{
  "_format": "hh-sol-artifact-1",
  "contractName": "InitializableUpgradeabilityProxy",
  "sourceName": "@aave/core-v3/contracts/dependencies/openzeppelin/upgradeability/InitializableUpgradeabilityProxy.sol",
  "abi": [
    {
      "anonymous": false,
      "inputs": [
        {
          "indexed": true,
          "internalType": "address",
          "name": "implementation",
          "type": "address"
        }
      ],
      "name": "Upgraded",
      "type": "event"
    },
    {
      "stateMutability": "payable",
      "type": "fallback"
    },
    {
      "inputs": [
        {
          "internalType": "address",
          "name": "_logic",
          "type": "address"
        },
        {
          "internalType": "bytes",
          "name": "_data",
          "type": "bytes"
        }
      ],
      "name": "initialize",
      "outputs": [],
      "stateMutability": "payable",
      "type": "function"
    }
  ],
  "bytecode": "0x608060405234801561001057600080fd5b5061047d806100206000396000f3fe60806040526004361061001e5760003560e01c8063d1f5789414610028575b61002661003b565b005b6100266100363660046102a4565b61006d565b61006b6100667f360894a13ba1a3210667c828492db98dca3e2076cc3735a920a3ca505d382bbc5490565b61019b565b565b60006100977f360894a13ba1a3210667c828492db98dca3e2076cc3735a920a3ca505d382bbc5490565b73ffffffffffffffffffffffffffffffffffffffff16146100b757600080fd5b6100e260017f360894a13ba1a3210667c828492db98dca3e2076cc3735a920a3ca505d382bbd61039f565b7f360894a13ba1a3210667c828492db98dca3e2076cc3735a920a3ca505d382bbc14610110576101106103dd565b610119826101bf565b8051156101975760008273ffffffffffffffffffffffffffffffffffffffff1682604051610147919061040c565b600060405180830381855af49150503d8060008114610182576040519150601f19603f3d011682016040523d82523d6000602084013e610187565b606091505b505090508061019557600080fd5b505b5050565b3660008037600080366000845af43d6000803e8080156101ba573d6000f35b3d6000fd5b803b610251576040517f08c379a000000000000000000000000000000000000000000000000000000000815260206004820152603b60248201527f43616e6e6f742073657420612070726f787920696d706c656d656e746174696f60448201527f6e20746f2061206e6f6e2d636f6e747261637420616464726573730000000000606482015260840160405180910390fd5b7f360894a13ba1a3210667c828492db98dca3e2076cc3735a920a3ca505d382bbc55565b7f4e487b7100000000000000000000000000000000000000000000000000000000600052604160045260246000fd5b600080604083850312156102b757600080fd5b823573ffffffffffffffffffffffffffffffffffffffff811681146102db57600080fd5b9150602083013567ffffffffffffffff808211156102f857600080fd5b818501915085601f83011261030c57600080fd5b81358181111561031e5761031e610275565b604051601f82017fffffffffffffffffffffffffffffffffffffffffffffffffffffffffffffffe0908116603f0116810190838211818310171561036457610364610275565b8160405282815288602084870101111561037d57600080fd5b8260208601602083013760006020848301015280955050505050509250929050565b6000828210156103d8577f4e487b7100000000000000000000000000000000000000000000000000000000600052601160045260246000fd5b500390565b7f4e487b7100000000000000000000000000000000000000000000000000000000600052600160045260246000fd5b6000825160005b8181101561042d5760208186018101518583015201610413565b8181111561043c576000828501525b50919091019291505056fea2646970667358221220704e61a9be3889dfe3ce26d543077f4f14dbecc9a98dc3582df71e4fa03d3ec664736f6c634300080a0033",
  "linkReferences": {},
  "deployedLinkReferences": {}
}