{
  "_format": "hh-sol-artifact-1",
  "contractName": "AllowedSharesTransferRecipientsPolicy",
  "sourceName": "contracts/release/extensions/policy-manager/policies/new-shareholders/AllowedSharesTransferRecipientsPolicy.sol",
  "abi": [
    {
      "inputs": [
        {
          "internalType": "address",
          "name": "_policyManager",
          "type": "address"
        },
        {
          "internalType": "address",
          "name": "_addressListRegistry",
          "type": "address"
        }
      ],
      "stateMutability": "nonpayable",
      "type": "constructor"
    },
    {
      "anonymous": false,
      "inputs": [
        {
          "indexed": true,
          "internalType": "address",
          "name": "comptrollerProxy",
          "type": "address"
        },
        {
          "indexed": false,
          "internalType": "uint256[]",
          "name": "listIds",
          "type": "uint256[]"
        }
      ],
      "name": "ListsSetForFund",
      "type": "event"
    },
    {
      "inputs": [
        {
          "internalType": "address",
          "name": "",
          "type": "address"
        }
      ],
      "name": "activateForFund",
      "outputs": [],
      "stateMutability": "nonpayable",
      "type": "function"
    },
    {
      "inputs": [
        {
          "internalType": "address",
          "name": "_comptrollerProxy",
          "type": "address"
        },
        {
          "internalType": "bytes",
          "name": "_encodedSettings",
          "type": "bytes"
        }
      ],
      "name": "addFundSettings",
      "outputs": [],
      "stateMutability": "nonpayable",
      "type": "function"
    },
    {
      "inputs": [],
      "name": "canDisable",
      "outputs": [
        {
          "internalType": "bool",
          "name": "canDisable_",
          "type": "bool"
        }
      ],
      "stateMutability": "pure",
      "type": "function"
    },
    {
      "inputs": [],
      "name": "getAddressListRegistry",
      "outputs": [
        {
          "internalType": "address",
          "name": "addressListRegistry_",
          "type": "address"
        }
      ],
      "stateMutability": "view",
      "type": "function"
    },
    {
      "inputs": [
        {
          "internalType": "address",
          "name": "_comptrollerProxy",
          "type": "address"
        }
      ],
      "name": "getListIdsForFund",
      "outputs": [
        {
          "internalType": "uint256[]",
          "name": "listIds_",
          "type": "uint256[]"
        }
      ],
      "stateMutability": "view",
      "type": "function"
    },
    {
      "inputs": [],
      "name": "getPolicyManager",
      "outputs": [
        {
          "internalType": "address",
          "name": "policyManager_",
          "type": "address"
        }
      ],
      "stateMutability": "view",
      "type": "function"
    },
    {
      "inputs": [],
      "name": "identifier",
      "outputs": [
        {
          "internalType": "string",
          "name": "identifier_",
          "type": "string"
        }
      ],
      "stateMutability": "pure",
      "type": "function"
    },
    {
      "inputs": [],
      "name": "implementedHooks",
      "outputs": [
        {
          "internalType": "enum IPolicyManager.PolicyHook[]",
          "name": "implementedHooks_",
          "type": "uint8[]"
        }
      ],
      "stateMutability": "pure",
      "type": "function"
    },
    {
      "inputs": [
        {
          "internalType": "address",
          "name": "_comptrollerProxy",
          "type": "address"
        },
        {
          "internalType": "address",
          "name": "_recipient",
          "type": "address"
        }
      ],
      "name": "passesRule",
      "outputs": [
        {
          "internalType": "bool",
          "name": "isValid_",
          "type": "bool"
        }
      ],
      "stateMutability": "view",
      "type": "function"
    },
    {
      "inputs": [
        {
          "internalType": "address",
          "name": "_comptrollerProxy",
          "type": "address"
        },
        {
          "internalType": "bytes",
          "name": "_encodedSettings",
          "type": "bytes"
        }
      ],
      "name": "updateFundSettings",
      "outputs": [],
      "stateMutability": "nonpayable",
      "type": "function"
    },
    {
      "inputs": [
        {
          "internalType": "address",
          "name": "_comptrollerProxy",
          "type": "address"
        },
        {
          "internalType": "enum IPolicyManager.PolicyHook",
          "name": "",
          "type": "uint8"
        },
        {
          "internalType": "bytes",
          "name": "_encodedArgs",
          "type": "bytes"
        }
      ],
      "name": "validateRule",
      "outputs": [
        {
          "internalType": "bool",
          "name": "isValid_",
          "type": "bool"
        }
      ],
      "stateMutability": "nonpayable",
      "type": "function"
    }
  ],
  "bytecode": "0x60c06040523480156200001157600080fd5b506040516200122538038062001225833981016040819052620000349162000066565b6001600160601b0319606092831b8116608052911b1660a052620000d1565b80516200006081620000b7565b92915050565b600080604083850312156200007a57600080fd5b600062000088858562000053565b92505060206200009b8582860162000053565b9150509250929050565b60006001600160a01b03821662000060565b620000c281620000a5565b8114620000ce57600080fd5b50565b60805160601c60a05160601c611125620001006000398061024352508061018c528061037952506111256000f3fe608060405234801561001057600080fd5b50600436106100a95760003560e01c80637998a1c4116100715780637998a1c414610109578063b67cb40c1461011e578063cbf54bb214610131578063ceb9a0ad14610146578063d44ad6cb14610159578063dffd7c6f14610161576100a9565b80630d4d7510146100ae5780630f5f6b4f146100ae5780631ef92578146100c3578063579be718146100e157806374708934146100f4575b600080fd5b6100c16100bc366004610ae2565b610181565b005b6100cb6101e2565b6040516100d89190610f28565b60405180910390f35b6100cb6100ef366004610b38565b6101e7565b6100fc610241565b6040516100d89190610ea4565b610111610265565b6040516100d89190610f36565b6100cb61012c366004610aa8565b610285565b61013961031d565b6040516100d89190610edf565b6100c1610154366004610a17565b610374565b6100fc610377565b61017461016f366004610a17565b61039b565b6040516100d89190610ef0565b336001600160a01b037f000000000000000000000000000000000000000000000000000000000000000016146101d25760405162461bcd60e51b81526004016101c990610f47565b60405180910390fd5b6101dd838383610406565b505050565b600190565b60008061022984848080601f0160208091040260200160405190810160405280939291908181526020018383808284376000920191909152506106c992505050565b509150506102378682610285565b9695505050505050565b7f000000000000000000000000000000000000000000000000000000000000000090565b60606040518060600160405280602281526020016110ce60229139905090565b600061028f610241565b6001600160a01b03166375674f466102a68561039b565b846040518363ffffffff1660e01b81526004016102c4929190610f01565b60206040518083038186803b1580156102dc57600080fd5b505afa1580156102f0573d6000803e3d6000fd5b505050506040513d601f19601f820116820180604052508101906103149190610bff565b90505b92915050565b6040805160018082528183019092526060916020808301908036833701905050905060028160008151811061034e57fe5b6020026020010190600981111561036157fe5b9081600981111561036e57fe5b90525090565b50565b7f000000000000000000000000000000000000000000000000000000000000000090565b6001600160a01b038116600090815260208181526040918290208054835181840281018401909452808452606093928301828280156103f957602002820191906000526020600020905b8154815260200190600101908083116103e5575b505050505090505b919050565b60608061041583850185610ba0565b915091506060815183510167ffffffffffffffff8111801561043657600080fd5b50604051908082528060200260200182016040528015610460578160200160208202803683370190505b5090508051600014156104855760405162461bcd60e51b81526004016101c990610f57565b6001600160a01b038616600090815260208190526040902054156104c4576001600160a01b03861660009081526020819052604081206104c4916107b4565b60005b8351811015610557578381815181106104dc57fe5b60200260200101518282815181106104f057fe5b602002602001018181525050600080886001600160a01b03166001600160a01b0316815260200190815260200160002084828151811061052c57fe5b60209081029190910181015182546001818101855560009485529290932090920191909155016104c7565b50815115610680576000866001600160a01b031663c98091876040518163ffffffff1660e01b815260040160206040518083038186803b15801561059a57600080fd5b505afa1580156105ae573d6000803e3d6000fd5b505050506040513d601f19601f820116820180604052508101906105d29190610a3d565b905060005b835181101561067d576000818651019050610605838684815181106105f857fe5b60200260200101516106ef565b84828151811061061157fe5b6020026020010181815250506000808a6001600160a01b03166001600160a01b0316815260200190815260200160002084828151811061064d57fe5b602090810291909101810151825460018181018555600094855292909320909201919091559190910190506105d7565b50505b856001600160a01b03167fd63f5b55f54cdda3234eab3aa26d85b99854a43efea66e0c459220fd7b3a332f826040516106b99190610ef0565b60405180910390a2505050505050565b6000806000838060200190518101906106e29190610a5b565b9250925092509193909250565b60008060606106fd84610793565b91509150610709610241565b6001600160a01b031663be68406e8684846040518463ffffffff1660e01b815260040161073893929190610eb2565b602060405180830381600087803b15801561075257600080fd5b505af1158015610766573d6000803e3d6000fd5b505050506040513d601f19601f8201168201806040525081019061078a9190610c65565b95945050505050565b60006060828060200190518101906107ab9190610c1d565b91509150915091565b508054600082559060005260206000209081019061037491905b808211156107e257600081556001016107ce565b5090565b80356103178161108d565b80516103178161108d565b600082601f83011261080d57600080fd5b815161082061081b82610f8e565b610f67565b9150818183526020840193506020810190508385602084028201111561084557600080fd5b60005b83811015610871578161085b88826107f1565b8452506020928301929190910190600101610848565b5050505092915050565b600082601f83011261088c57600080fd5b813561089a61081b82610f8e565b81815260209384019390925082018360005b8381101561087157813586016108c2888261099c565b84525060209283019291909101906001016108ac565b600082601f8301126108e957600080fd5b81356108f761081b82610f8e565b9150818183526020840193506020810190508385602084028201111561091c57600080fd5b60005b8381101561087157816109328882610a01565b845250602092830192919091019060010161091f565b8051610317816110a1565b60008083601f84011261096557600080fd5b50813567ffffffffffffffff81111561097d57600080fd5b60208301915083600182028301111561099557600080fd5b9250929050565b600082601f8301126109ad57600080fd5b81356109bb61081b82610faf565b915080825260208301602083018583830111156109d757600080fd5b6109e2838284611033565b50505092915050565b8035610317816110aa565b8051610317816110b7565b8035610317816110c4565b8051610317816110c4565b600060208284031215610a2957600080fd5b6000610a3584846107e6565b949350505050565b600060208284031215610a4f57600080fd5b6000610a3584846107f1565b600080600060608486031215610a7057600080fd5b6000610a7c86866107f1565b9350506020610a8d868287016107f1565b9250506040610a9e86828701610a0c565b9150509250925092565b60008060408385031215610abb57600080fd5b6000610ac785856107e6565b9250506020610ad8858286016107e6565b9150509250929050565b600080600060408486031215610af757600080fd5b6000610b0386866107e6565b935050602084013567ffffffffffffffff811115610b2057600080fd5b610b2c86828701610953565b92509250509250925092565b60008060008060608587031215610b4e57600080fd5b6000610b5a87876107e6565b9450506020610b6b878288016109eb565b935050604085013567ffffffffffffffff811115610b8857600080fd5b610b9487828801610953565b95989497509550505050565b60008060408385031215610bb357600080fd5b823567ffffffffffffffff811115610bca57600080fd5b610bd6858286016108d8565b925050602083013567ffffffffffffffff811115610bf357600080fd5b610ad88582860161087b565b600060208284031215610c1157600080fd5b6000610a358484610948565b60008060408385031215610c3057600080fd5b6000610c3c85856109f6565b925050602083015167ffffffffffffffff811115610c5957600080fd5b610ad8858286016107fc565b600060208284031215610c7757600080fd5b6000610a358484610a0c565b6000610c8f8383610caf565b505060200190565b6000610c8f8383610dbc565b6000610c8f8383610e9b565b610cb881610fea565b82525050565b6000610cc982610fdd565b610cd38185610fe1565b9350610cde83610fd7565b8060005b83811015610d0c578151610cf68882610c83565b9750610d0183610fd7565b925050600101610ce2565b509495945050505050565b6000610d2282610fdd565b610d2c8185610fe1565b9350610d3783610fd7565b8060005b83811015610d0c578151610d4f8882610c97565b9750610d5a83610fd7565b925050600101610d3b565b6000610d7082610fdd565b610d7a8185610fe1565b9350610d8583610fd7565b8060005b83811015610d0c578151610d9d8882610ca3565b9750610da883610fd7565b925050600101610d89565b610cb881610ff5565b610cb88161101d565b610cb881611028565b6000610dd982610fdd565b610de38185610fe1565b9350610df381856020860161103f565b610dfc8161106f565b9093019392505050565b6000610e13602983610fe1565b7f4f6e6c792074686520506f6c6963794d616e616765722063616e206d616b65208152681d1a1a5cc818d85b1b60ba1b602082015260400192915050565b6000610e5e602883610fe1565b7f5f5f7570646174654c69737473466f7246756e643a204e6f206c6973747320738152671c1958da599a595960c21b602082015260400192915050565b610cb88161101a565b602081016103178284610caf565b60608101610ec08286610caf565b610ecd6020830185610dc5565b818103604083015261078a8184610cbe565b602080825281016103148184610d17565b602080825281016103148184610d65565b60408082528101610f128185610d65565b9050610f216020830184610caf565b9392505050565b602081016103178284610db3565b602080825281016103148184610dce565b6020808252810161031781610e06565b6020808252810161031781610e51565b60405181810167ffffffffffffffff81118282101715610f8657600080fd5b604052919050565b600067ffffffffffffffff821115610fa557600080fd5b5060209081020190565b600067ffffffffffffffff821115610fc657600080fd5b506020601f91909101601f19160190565b60200190565b5190565b90815260200190565b60006103178261100e565b151590565b8061040181611079565b8061040181611083565b6001600160a01b031690565b90565b600061031782610ffa565b600061031782611004565b82818337506000910152565b60005b8381101561105a578181015183820152602001611042565b83811115611069576000848401525b50505050565b601f01601f191690565b600a811061037457fe5b6004811061037457fe5b61109681610fea565b811461037457600080fd5b61109681610ff5565b600a811061037457600080fd5b6004811061037457600080fd5b6110968161101a56fe414c4c4f5745445f5348415245535f5452414e534645525f524543495049454e5453a2646970667358221220e4722d278df396a8816262d4eaeed736ae9abbc3502d13093afd11394fb7d70b64736f6c634300060c0033",
  "linkReferences": {},
  "deployedLinkReferences": {}
}