{
  "_format": "hh-sol-artifact-1",
  "contractName": "AllowedAdapterIncomingAssetsPolicy",
  "sourceName": "contracts/release/extensions/policy-manager/policies/asset-managers/AllowedAdapterIncomingAssetsPolicy.sol",
  "abi": [
    {
      "inputs": [
        {
          "internalType": "address",
          "name": "_policyManager",
          "type": "address"
        },
        {
          "internalType": "address",
          "name": "_addressListRegistry",
          "type": "address"
        }
      ],
      "stateMutability": "nonpayable",
      "type": "constructor"
    },
    {
      "anonymous": false,
      "inputs": [
        {
          "indexed": true,
          "internalType": "address",
          "name": "comptrollerProxy",
          "type": "address"
        },
        {
          "indexed": false,
          "internalType": "uint256[]",
          "name": "listIds",
          "type": "uint256[]"
        }
      ],
      "name": "ListsSetForFund",
      "type": "event"
    },
    {
      "inputs": [
        {
          "internalType": "address",
          "name": "",
          "type": "address"
        }
      ],
      "name": "activateForFund",
      "outputs": [],
      "stateMutability": "nonpayable",
      "type": "function"
    },
    {
      "inputs": [
        {
          "internalType": "address",
          "name": "_comptrollerProxy",
          "type": "address"
        },
        {
          "internalType": "bytes",
          "name": "_encodedSettings",
          "type": "bytes"
        }
      ],
      "name": "addFundSettings",
      "outputs": [],
      "stateMutability": "nonpayable",
      "type": "function"
    },
    {
      "inputs": [],
      "name": "canDisable",
      "outputs": [
        {
          "internalType": "bool",
          "name": "canDisable_",
          "type": "bool"
        }
      ],
      "stateMutability": "pure",
      "type": "function"
    },
    {
      "inputs": [],
      "name": "getAddressListRegistry",
      "outputs": [
        {
          "internalType": "address",
          "name": "addressListRegistry_",
          "type": "address"
        }
      ],
      "stateMutability": "view",
      "type": "function"
    },
    {
      "inputs": [
        {
          "internalType": "address",
          "name": "_comptrollerProxy",
          "type": "address"
        }
      ],
      "name": "getListIdsForFund",
      "outputs": [
        {
          "internalType": "uint256[]",
          "name": "listIds_",
          "type": "uint256[]"
        }
      ],
      "stateMutability": "view",
      "type": "function"
    },
    {
      "inputs": [],
      "name": "getPolicyManager",
      "outputs": [
        {
          "internalType": "address",
          "name": "policyManager_",
          "type": "address"
        }
      ],
      "stateMutability": "view",
      "type": "function"
    },
    {
      "inputs": [],
      "name": "identifier",
      "outputs": [
        {
          "internalType": "string",
          "name": "identifier_",
          "type": "string"
        }
      ],
      "stateMutability": "pure",
      "type": "function"
    },
    {
      "inputs": [],
      "name": "implementedHooks",
      "outputs": [
        {
          "internalType": "enum IPolicyManager.PolicyHook[]",
          "name": "implementedHooks_",
          "type": "uint8[]"
        }
      ],
      "stateMutability": "pure",
      "type": "function"
    },
    {
      "inputs": [
        {
          "internalType": "address",
          "name": "_comptrollerProxy",
          "type": "address"
        },
        {
          "internalType": "address[]",
          "name": "_assets",
          "type": "address[]"
        }
      ],
      "name": "passesRule",
      "outputs": [
        {
          "internalType": "bool",
          "name": "isValid_",
          "type": "bool"
        }
      ],
      "stateMutability": "view",
      "type": "function"
    },
    {
      "inputs": [
        {
          "internalType": "address",
          "name": "",
          "type": "address"
        },
        {
          "internalType": "bytes",
          "name": "",
          "type": "bytes"
        }
      ],
      "name": "updateFundSettings",
      "outputs": [],
      "stateMutability": "nonpayable",
      "type": "function"
    },
    {
      "inputs": [
        {
          "internalType": "address",
          "name": "_comptrollerProxy",
          "type": "address"
        },
        {
          "internalType": "enum IPolicyManager.PolicyHook",
          "name": "",
          "type": "uint8"
        },
        {
          "internalType": "bytes",
          "name": "_encodedArgs",
          "type": "bytes"
        }
      ],
      "name": "validateRule",
      "outputs": [
        {
          "internalType": "bool",
          "name": "isValid_",
          "type": "bool"
        }
      ],
      "stateMutability": "nonpayable",
      "type": "function"
    }
  ],
  "bytecode": "0x60c06040523480156200001157600080fd5b506040516200148038038062001480833981016040819052620000349162000066565b6001600160601b0319606092831b8116608052911b1660a052620000d1565b80516200006081620000b7565b92915050565b600080604083850312156200007a57600080fd5b600062000088858562000053565b92505060206200009b8582860162000053565b9150509250929050565b60006001600160a01b03821662000060565b620000c281620000a5565b8114620000ce57600080fd5b50565b60805160601c60a05160601c61138062000100600039806102735250806101c052806103c052506113806000f3fe608060405234801561001057600080fd5b50600436106100a95760003560e01c80637998a1c4116100715780637998a1c41461011c578063c18a633814610131578063cbf54bb214610144578063ceb9a0ad14610159578063d44ad6cb1461016c578063dffd7c6f14610174576100a9565b80630d4d7510146100ae5780630f5f6b4f146100c35780631ef92578146100d6578063579be718146100f45780637470893414610107575b600080fd5b6100c16100bc366004610ce4565b610194565b005b6100c16100d1366004610ce4565b6101b5565b6100de61020d565b6040516100eb9190611182565b60405180910390f35b6100de610102366004610d39565b610212565b61010f610271565b6040516100eb9190611100565b610124610295565b6040516100eb9190611190565b6100de61013f366004610c93565b6102cc565b61014c610364565b6040516100eb919061113b565b6100c1610167366004610b57565b6103bb565b61010f6103be565b610187610182366004610b57565b6103e2565b6040516100eb919061114c565b60405162461bcd60e51b81526004016101ac906111a1565b60405180910390fd5b336001600160a01b037f000000000000000000000000000000000000000000000000000000000000000016146101fd5760405162461bcd60e51b81526004016101ac906111b1565b61020883838361044d565b505050565b600090565b6000606061025584848080601f01602080910402602001604051908101604052809392919081815260200183838082843760009201919091525061070f92505050565b505050935050505061026786826102cc565b9695505050505050565b7f000000000000000000000000000000000000000000000000000000000000000090565b60408051808201909152601f81527f414c4c4f5745445f414441505445525f494e434f4d494e475f41535345545300602082015290565b60006102d6610271565b6001600160a01b03166330bdd3866102ed856103e2565b846040518363ffffffff1660e01b815260040161030b92919061115d565b60206040518083038186803b15801561032357600080fd5b505afa158015610337573d6000803e3d6000fd5b505050506040513d601f19601f8201168201806040525081019061035b9190610dfd565b90505b92915050565b6040805160018082528183019092526060916020808301908036833701905050905060018160008151811061039557fe5b602002602001019060098111156103a857fe5b908160098111156103b557fe5b90525090565b50565b7f000000000000000000000000000000000000000000000000000000000000000090565b6001600160a01b0381166000908152602081815260409182902080548351818402810184019094528084526060939283018282801561044057602002820191906000526020600020905b81548152602001906001019080831161042c575b505050505090505b919050565b60608061045c83850185610da0565b91509150606081518351016001600160401b038111801561047c57600080fd5b506040519080825280602002602001820160405280156104a6578160200160208202803683370190505b5090508051600014156104cb5760405162461bcd60e51b81526004016101ac906111c1565b6001600160a01b0386166000908152602081905260409020541561050a576001600160a01b038616600090815260208190526040812061050a9161080a565b60005b835181101561059d5783818151811061052257fe5b602002602001015182828151811061053657fe5b602002602001018181525050600080886001600160a01b03166001600160a01b0316815260200190815260200160002084828151811061057257fe5b602090810291909101810151825460018181018555600094855292909320909201919091550161050d565b508151156106c6576000866001600160a01b031663c98091876040518163ffffffff1660e01b815260040160206040518083038186803b1580156105e057600080fd5b505afa1580156105f4573d6000803e3d6000fd5b505050506040513d601f19601f820116820180604052508101906106189190610b7d565b905060005b83518110156106c357600081865101905061064b8386848151811061063e57fe5b6020026020010151610745565b84828151811061065757fe5b6020026020010181815250506000808a6001600160a01b03166001600160a01b0316815260200190815260200160002084828151811061069357fe5b6020908102919091018101518254600181810185556000948552929093209092019190915591909101905061061d565b50505b856001600160a01b03167fd63f5b55f54cdda3234eab3aa26d85b99854a43efea66e0c459220fd7b3a332f826040516106ff919061114c565b60405180910390a2505050505050565b60008060006060806060808780602001905181019061072e9190610b9b565b959e949d50929b5090995097509550909350915050565b6000806060610753846107e9565b9150915061075f610271565b6001600160a01b031663be68406e8684846040518463ffffffff1660e01b815260040161078e9392919061110e565b602060405180830381600087803b1580156107a857600080fd5b505af11580156107bc573d6000803e3d6000fd5b505050506040513d601f19601f820116820180604052508101906107e09190610e62565b95945050505050565b60006060828060200190518101906108019190610e1b565b91509150915091565b50805460008255906000526020600020908101906103bb91905b808211156108385760008155600101610824565b5090565b803561035e81611301565b805161035e81611301565b600082601f83011261086357600080fd5b8135610876610871826111f7565b6111d1565b9150818183526020840193506020810190508385602084028201111561089b57600080fd5b60005b838110156108c757816108b1888261083c565b845250602092830192919091019060010161089e565b5050505092915050565b600082601f8301126108e257600080fd5b81516108f0610871826111f7565b9150818183526020840193506020810190508385602084028201111561091557600080fd5b60005b838110156108c7578161092b8882610847565b8452506020928301929190910190600101610918565b600082601f83011261095257600080fd5b8135610960610871826111f7565b81815260209384019390925082018360005b838110156108c757813586016109888882610adc565b8452506020928301929190910190600101610972565b600082601f8301126109af57600080fd5b81356109bd610871826111f7565b915081818352602084019350602081019050838560208402820111156109e257600080fd5b60005b838110156108c757816109f88882610b41565b84525060209283019291909101906001016109e5565b600082601f830112610a1f57600080fd5b8151610a2d610871826111f7565b91508181835260208401935060208101905083856020840282011115610a5257600080fd5b60005b838110156108c75781610a688882610b4c565b8452506020928301929190910190600101610a55565b805161035e81611315565b805161035e8161131e565b60008083601f840112610aa657600080fd5b5081356001600160401b03811115610abd57600080fd5b602083019150836001820283011115610ad557600080fd5b9250929050565b600082601f830112610aed57600080fd5b8135610afb61087182611217565b91508082526020830160208301858383011115610b1757600080fd5b610b228382846112a7565b50505092915050565b803561035e81611327565b805161035e81611334565b803561035e81611341565b805161035e81611341565b600060208284031215610b6957600080fd5b6000610b75848461083c565b949350505050565b600060208284031215610b8f57600080fd5b6000610b758484610847565b600080600080600080600060e0888a031215610bb657600080fd5b6000610bc28a8a610847565b9750506020610bd38a828b01610847565b9650506040610be48a828b01610a89565b95505060608801516001600160401b03811115610c0057600080fd5b610c0c8a828b016108d1565b94505060808801516001600160401b03811115610c2857600080fd5b610c348a828b01610a0e565b93505060a08801516001600160401b03811115610c5057600080fd5b610c5c8a828b016108d1565b92505060c08801516001600160401b03811115610c7857600080fd5b610c848a828b01610a0e565b91505092959891949750929550565b60008060408385031215610ca657600080fd5b6000610cb2858561083c565b92505060208301356001600160401b03811115610cce57600080fd5b610cda85828601610852565b9150509250929050565b600080600060408486031215610cf957600080fd5b6000610d05868661083c565b93505060208401356001600160401b03811115610d2157600080fd5b610d2d86828701610a94565b92509250509250925092565b60008060008060608587031215610d4f57600080fd5b6000610d5b878761083c565b9450506020610d6c87828801610b2b565b93505060408501356001600160401b03811115610d8857600080fd5b610d9487828801610a94565b95989497509550505050565b60008060408385031215610db357600080fd5b82356001600160401b03811115610dc957600080fd5b610dd58582860161099e565b92505060208301356001600160401b03811115610df157600080fd5b610cda85828601610941565b600060208284031215610e0f57600080fd5b6000610b758484610a7e565b60008060408385031215610e2e57600080fd5b6000610e3a8585610b36565b92505060208301516001600160401b03811115610e5657600080fd5b610cda858286016108d1565b600060208284031215610e7457600080fd5b6000610b758484610b4c565b6000610e8c8383610eac565b505060200190565b6000610e8c8383610fb9565b6000610e8c83836110f7565b610eb581611251565b82525050565b6000610ec682611244565b610ed08185611248565b9350610edb8361123e565b8060005b83811015610f09578151610ef38882610e80565b9750610efe8361123e565b925050600101610edf565b509495945050505050565b6000610f1f82611244565b610f298185611248565b9350610f348361123e565b8060005b83811015610f09578151610f4c8882610e94565b9750610f578361123e565b925050600101610f38565b6000610f6d82611244565b610f778185611248565b9350610f828361123e565b8060005b83811015610f09578151610f9a8882610ea0565b9750610fa58361123e565b925050600101610f86565b610eb58161125c565b610eb581611291565b610eb58161129c565b6000610fd682611244565b610fe08185611248565b9350610ff08185602086016112b3565b610ff9816112e3565b9093019392505050565b6000611010603783611248565b7f75706461746546756e6453657474696e67733a2055706461746573206e6f742081527f616c6c6f77656420666f72207468697320706f6c696379000000000000000000602082015260400192915050565b600061106f602983611248565b7f4f6e6c792074686520506f6c6963794d616e616765722063616e206d616b65208152681d1a1a5cc818d85b1b60ba1b602082015260400192915050565b60006110ba602883611248565b7f5f5f7570646174654c69737473466f7246756e643a204e6f206c6973747320738152671c1958da599a595960c21b602082015260400192915050565b610eb58161128e565b6020810161035e8284610eac565b6060810161111c8286610eac565b6111296020830185610fc2565b81810360408301526107e08184610ebb565b6020808252810161035b8184610f14565b6020808252810161035b8184610f62565b6040808252810161116e8185610f62565b90508181036020830152610b758184610ebb565b6020810161035e8284610fb0565b6020808252810161035b8184610fcb565b6020808252810161035e81611003565b6020808252810161035e81611062565b6020808252810161035e816110ad565b6040518181016001600160401b03811182821017156111ef57600080fd5b604052919050565b60006001600160401b0382111561120d57600080fd5b5060209081020190565b60006001600160401b0382111561122d57600080fd5b506020601f91909101601f19160190565b60200190565b5190565b90815260200190565b600061035e82611282565b151590565b6001600160e01b03191690565b80610448816112ed565b80610448816112f7565b6001600160a01b031690565b90565b600061035e8261126e565b600061035e82611278565b82818337506000910152565b60005b838110156112ce5781810151838201526020016112b6565b838111156112dd576000848401525b50505050565b601f01601f191690565b600a81106103bb57fe5b600481106103bb57fe5b61130a81611251565b81146103bb57600080fd5b61130a8161125c565b61130a81611261565b600a81106103bb57600080fd5b600481106103bb57600080fd5b61130a8161128e56fea26469706673582212208861d12eae5518b5ffd926e6443eb754161f5b700a39ccafb37a1f070801cda564736f6c634300060c0033",
  "linkReferences": {},
  "deployedLinkReferences": {}
}