{
  "abi": [
    {
      "inputs": [
        {
          "internalType": "address",
          "name": "_policyManager",
          "type": "address"
        },
        {
          "internalType": "address",
          "name": "_addressListRegistry",
          "type": "address"
        }
      ],
      "stateMutability": "nonpayable",
      "type": "constructor"
    },
    {
      "anonymous": false,
      "inputs": [
        {
          "indexed": true,
          "internalType": "address",
          "name": "comptrollerProxy",
          "type": "address"
        },
        {
          "indexed": false,
          "internalType": "uint256[]",
          "name": "listIds",
          "type": "uint256[]"
        }
      ],
      "name": "ListsSetForFund",
      "type": "event"
    },
    {
      "inputs": [
        {
          "internalType": "address",
          "name": "",
          "type": "address"
        }
      ],
      "name": "activateForFund",
      "outputs": [],
      "stateMutability": "nonpayable",
      "type": "function"
    },
    {
      "inputs": [
        {
          "internalType": "address",
          "name": "_comptrollerProxy",
          "type": "address"
        },
        {
          "internalType": "bytes",
          "name": "_encodedSettings",
          "type": "bytes"
        }
      ],
      "name": "addFundSettings",
      "outputs": [],
      "stateMutability": "nonpayable",
      "type": "function"
    },
    {
      "inputs": [],
      "name": "canDisable",
      "outputs": [
        {
          "internalType": "bool",
          "name": "canDisable_",
          "type": "bool"
        }
      ],
      "stateMutability": "pure",
      "type": "function"
    },
    {
      "inputs": [],
      "name": "getAddressListRegistry",
      "outputs": [
        {
          "internalType": "address",
          "name": "addressListRegistry_",
          "type": "address"
        }
      ],
      "stateMutability": "view",
      "type": "function"
    },
    {
      "inputs": [
        {
          "internalType": "address",
          "name": "_comptrollerProxy",
          "type": "address"
        }
      ],
      "name": "getListIdsForFund",
      "outputs": [
        {
          "internalType": "uint256[]",
          "name": "listIds_",
          "type": "uint256[]"
        }
      ],
      "stateMutability": "view",
      "type": "function"
    },
    {
      "inputs": [],
      "name": "getPolicyManager",
      "outputs": [
        {
          "internalType": "address",
          "name": "policyManager_",
          "type": "address"
        }
      ],
      "stateMutability": "view",
      "type": "function"
    },
    {
      "inputs": [],
      "name": "identifier",
      "outputs": [
        {
          "internalType": "string",
          "name": "identifier_",
          "type": "string"
        }
      ],
      "stateMutability": "pure",
      "type": "function"
    },
    {
      "inputs": [],
      "name": "implementedHooks",
      "outputs": [
        {
          "internalType": "enum IPolicyManager.PolicyHook[]",
          "name": "implementedHooks_",
          "type": "uint8[]"
        }
      ],
      "stateMutability": "pure",
      "type": "function"
    },
    {
      "inputs": [
        {
          "internalType": "address",
          "name": "_comptrollerProxy",
          "type": "address"
        },
        {
          "internalType": "address[]",
          "name": "_assets",
          "type": "address[]"
        }
      ],
      "name": "passesRule",
      "outputs": [
        {
          "internalType": "bool",
          "name": "isValid_",
          "type": "bool"
        }
      ],
      "stateMutability": "view",
      "type": "function"
    },
    {
      "inputs": [
        {
          "internalType": "address",
          "name": "",
          "type": "address"
        },
        {
          "internalType": "bytes",
          "name": "",
          "type": "bytes"
        }
      ],
      "name": "updateFundSettings",
      "outputs": [],
      "stateMutability": "nonpayable",
      "type": "function"
    },
    {
      "inputs": [
        {
          "internalType": "address",
          "name": "_comptrollerProxy",
          "type": "address"
        },
        {
          "internalType": "enum IPolicyManager.PolicyHook",
          "name": "",
          "type": "uint8"
        },
        {
          "internalType": "bytes",
          "name": "_encodedArgs",
          "type": "bytes"
        }
      ],
      "name": "validateRule",
      "outputs": [
        {
          "internalType": "bool",
          "name": "isValid_",
          "type": "bool"
        }
      ],
      "stateMutability": "nonpayable",
      "type": "function"
    }
  ],
  "bytecode": {
    "object": "0x60c06040523480156200001157600080fd5b50604051620013ee380380620013ee833981016040819052620000349162000066565b6001600160601b0319606092831b8116608052911b1660a052620000d1565b80516200006081620000b7565b92915050565b600080604083850312156200007a57600080fd5b600062000088858562000053565b92505060206200009b8582860162000053565b9150509250929050565b60006001600160a01b03821662000060565b620000c281620000a5565b8114620000ce57600080fd5b50565b60805160601c60a05160601c6112ee62000100600039806102725250806101c052806103bf52506112ee6000f3fe608060405234801561001057600080fd5b50600436106100a95760003560e01c80637998a1c4116100715780637998a1c41461011c578063c18a633814610131578063cbf54bb214610144578063ceb9a0ad14610159578063d44ad6cb1461016c578063dffd7c6f14610174576100a9565b80630d4d7510146100ae5780630f5f6b4f146100c35780631ef92578146100d6578063579be718146100f45780637470893414610107575b600080fd5b6100c16100bc366004610c91565b610194565b005b6100c16100d1366004610c91565b6101b5565b6100de61020d565b6040516100eb919061112f565b60405180910390f35b6100de610102366004610ce6565b610212565b61010f610270565b6040516100eb91906110ad565b610124610294565b6040516100eb919061113d565b6100de61013f366004610c40565b6102cb565b61014c610363565b6040516100eb91906110e8565b6100c1610167366004610b47565b6103ba565b61010f6103bd565b610187610182366004610b47565b6103e1565b6040516100eb91906110f9565b60405162461bcd60e51b81526004016101ac9061114e565b60405180910390fd5b336001600160a01b037f000000000000000000000000000000000000000000000000000000000000000016146101fd5760405162461bcd60e51b81526004016101ac9061115e565b61020883838361044c565b505050565b600190565b6000606061025584848080601f01602080910402602001604051908101604052809392919081815260200183838082843760009201919091525061070e92505050565b5050935050505061026686826102cb565b9695505050505050565b7f000000000000000000000000000000000000000000000000000000000000000090565b60408051808201909152601d81527f414c4c4f5745445f4153534554535f464f525f524544454d5054494f4e000000602082015290565b60006102d5610270565b6001600160a01b03166330bdd3866102ec856103e1565b846040518363ffffffff1660e01b815260040161030a92919061110a565b60206040518083038186803b15801561032257600080fd5b505afa158015610336573d6000803e3d6000fd5b505050506040513d601f19601f8201168201806040525081019061035a9190610daa565b90505b92915050565b6040805160018082528183019092526060916020808301908036833701905050905060038160008151811061039457fe5b602002602001019060098111156103a757fe5b908160098111156103b457fe5b90525090565b50565b7f000000000000000000000000000000000000000000000000000000000000000090565b6001600160a01b0381166000908152602081815260409182902080548351818402810184019094528084526060939283018282801561043f57602002820191906000526020600020905b81548152602001906001019080831161042b575b505050505090505b919050565b60608061045b83850185610d4d565b91509150606081518351016001600160401b038111801561047b57600080fd5b506040519080825280602002602001820160405280156104a5578160200160208202803683370190505b5090508051600014156104ca5760405162461bcd60e51b81526004016101ac9061116e565b6001600160a01b03861660009081526020819052604090205415610509576001600160a01b038616600090815260208190526040812061050991610805565b60005b835181101561059c5783818151811061052157fe5b602002602001015182828151811061053557fe5b602002602001018181525050600080886001600160a01b03166001600160a01b0316815260200190815260200160002084828151811061057157fe5b602090810291909101810151825460018181018555600094855292909320909201919091550161050c565b508151156106c5576000866001600160a01b031663c98091876040518163ffffffff1660e01b815260040160206040518083038186803b1580156105df57600080fd5b505afa1580156105f3573d6000803e3d6000fd5b505050506040513d601f19601f820116820180604052508101906106179190610b6d565b905060005b83518110156106c257600081865101905061064a8386848151811061063d57fe5b6020026020010151610740565b84828151811061065657fe5b6020026020010181815250506000808a6001600160a01b03166001600160a01b0316815260200190815260200160002084828151811061069257fe5b6020908102919091018101518254600181810185556000948552929093209092019190915591909101905061061c565b50505b856001600160a01b03167fd63f5b55f54cdda3234eab3aa26d85b99854a43efea66e0c459220fd7b3a332f826040516106fe91906110f9565b60405180910390a2505050505050565b600080600060608060008680602001905181019061072c9190610b8b565b949c939b5091995097509550909350915050565b600080606061074e846107e4565b9150915061075a610270565b6001600160a01b031663be68406e8684846040518463ffffffff1660e01b8152600401610789939291906110bb565b602060405180830381600087803b1580156107a357600080fd5b505af11580156107b7573d6000803e3d6000fd5b505050506040513d601f19601f820116820180604052508101906107db9190610e0f565b95945050505050565b60006060828060200190518101906107fc9190610dc8565b91509150915091565b50805460008255906000526020600020908101906103ba91905b80821115610833576000815560010161081f565b5090565b803561035d816112a1565b805161035d816112a1565b600082601f83011261085e57600080fd5b813561087161086c826111a4565b61117e565b9150818183526020840193506020810190508385602084028201111561089657600080fd5b60005b838110156108c257816108ac8882610837565b8452506020928301929190910190600101610899565b5050505092915050565b600082601f8301126108dd57600080fd5b81516108eb61086c826111a4565b9150818183526020840193506020810190508385602084028201111561091057600080fd5b60005b838110156108c257816109268882610842565b8452506020928301929190910190600101610913565b600082601f83011261094d57600080fd5b813561095b61086c826111a4565b81815260209384019390925082018360005b838110156108c257813586016109838882610acc565b845250602092830192919091019060010161096d565b600082601f8301126109aa57600080fd5b81356109b861086c826111a4565b915081818352602084019350602081019050838560208402820111156109dd57600080fd5b60005b838110156108c257816109f38882610b31565b84525060209283019291909101906001016109e0565b600082601f830112610a1a57600080fd5b8151610a2861086c826111a4565b91508181835260208401935060208101905083856020840282011115610a4d57600080fd5b60005b838110156108c25781610a638882610b3c565b8452506020928301929190910190600101610a50565b805161035d816112b5565b60008083601f840112610a9657600080fd5b5081356001600160401b03811115610aad57600080fd5b602083019150836001820283011115610ac557600080fd5b9250929050565b600082601f830112610add57600080fd5b8135610aeb61086c826111c4565b91508082526020830160208301858383011115610b0757600080fd5b610b12838284611247565b50505092915050565b803561035d816112be565b805161035d816112cb565b803561035d816112d8565b805161035d816112d8565b600060208284031215610b5957600080fd5b6000610b658484610837565b949350505050565b600060208284031215610b7f57600080fd5b6000610b658484610842565b60008060008060008060c08789031215610ba457600080fd5b6000610bb08989610842565b9650506020610bc189828a01610842565b9550506040610bd289828a01610b3c565b94505060608701516001600160401b03811115610bee57600080fd5b610bfa89828a016108cc565b93505060808701516001600160401b03811115610c1657600080fd5b610c2289828a01610a09565b92505060a0610c3389828a01610b3c565b9150509295509295509295565b60008060408385031215610c5357600080fd5b6000610c5f8585610837565b92505060208301356001600160401b03811115610c7b57600080fd5b610c878582860161084d565b9150509250929050565b600080600060408486031215610ca657600080fd5b6000610cb28686610837565b93505060208401356001600160401b03811115610cce57600080fd5b610cda86828701610a84565b92509250509250925092565b60008060008060608587031215610cfc57600080fd5b6000610d088787610837565b9450506020610d1987828801610b1b565b93505060408501356001600160401b03811115610d3557600080fd5b610d4187828801610a84565b95989497509550505050565b60008060408385031215610d6057600080fd5b82356001600160401b03811115610d7657600080fd5b610d8285828601610999565b92505060208301356001600160401b03811115610d9e57600080fd5b610c878582860161093c565b600060208284031215610dbc57600080fd5b6000610b658484610a79565b60008060408385031215610ddb57600080fd5b6000610de78585610b26565b92505060208301516001600160401b03811115610e0357600080fd5b610c87858286016108cc565b600060208284031215610e2157600080fd5b6000610b658484610b3c565b6000610e398383610e59565b505060200190565b6000610e398383610f66565b6000610e3983836110a4565b610e62816111fe565b82525050565b6000610e73826111f1565b610e7d81856111f5565b9350610e88836111eb565b8060005b83811015610eb6578151610ea08882610e2d565b9750610eab836111eb565b925050600101610e8c565b509495945050505050565b6000610ecc826111f1565b610ed681856111f5565b9350610ee1836111eb565b8060005b83811015610eb6578151610ef98882610e41565b9750610f04836111eb565b925050600101610ee5565b6000610f1a826111f1565b610f2481856111f5565b9350610f2f836111eb565b8060005b83811015610eb6578151610f478882610e4d565b9750610f52836111eb565b925050600101610f33565b610e6281611209565b610e6281611231565b610e628161123c565b6000610f83826111f1565b610f8d81856111f5565b9350610f9d818560208601611253565b610fa681611283565b9093019392505050565b6000610fbd6037836111f5565b7f75706461746546756e6453657474696e67733a2055706461746573206e6f742081527f616c6c6f77656420666f72207468697320706f6c696379000000000000000000602082015260400192915050565b600061101c6029836111f5565b7f4f6e6c792074686520506f6c6963794d616e616765722063616e206d616b65208152681d1a1a5cc818d85b1b60ba1b602082015260400192915050565b60006110676028836111f5565b7f5f5f7570646174654c69737473466f7246756e643a204e6f206c6973747320738152671c1958da599a595960c21b602082015260400192915050565b610e628161122e565b6020810161035d8284610e59565b606081016110c98286610e59565b6110d66020830185610f6f565b81810360408301526107db8184610e68565b6020808252810161035a8184610ec1565b6020808252810161035a8184610f0f565b6040808252810161111b8185610f0f565b90508181036020830152610b658184610e68565b6020810161035d8284610f5d565b6020808252810161035a8184610f78565b6020808252810161035d81610fb0565b6020808252810161035d8161100f565b6020808252810161035d8161105a565b6040518181016001600160401b038111828210171561119c57600080fd5b604052919050565b60006001600160401b038211156111ba57600080fd5b5060209081020190565b60006001600160401b038211156111da57600080fd5b506020601f91909101601f19160190565b60200190565b5190565b90815260200190565b600061035d82611222565b151590565b806104478161128d565b8061044781611297565b6001600160a01b031690565b90565b600061035d8261120e565b600061035d82611218565b82818337506000910152565b60005b8381101561126e578181015183820152602001611256565b8381111561127d576000848401525b50505050565b601f01601f191690565b600a81106103ba57fe5b600481106103ba57fe5b6112aa816111fe565b81146103ba57600080fd5b6112aa81611209565b600a81106103ba57600080fd5b600481106103ba57600080fd5b6112aa8161122e56fea164736f6c634300060c000a",
    "linkReferences": {}
  },
  "methodIdentifiers": {
    "activateForFund(address)": "ceb9a0ad",
    "addFundSettings(address,bytes)": "0f5f6b4f",
    "canDisable()": "1ef92578",
    "getAddressListRegistry()": "74708934",
    "getListIdsForFund(address)": "dffd7c6f",
    "getPolicyManager()": "d44ad6cb",
    "identifier()": "7998a1c4",
    "implementedHooks()": "cbf54bb2",
    "passesRule(address,address[])": "c18a6338",
    "updateFundSettings(address,bytes)": "0d4d7510",
    "validateRule(address,uint8,bytes)": "579be718"
  },
  "id": 215
}