{
  "_format": "hh-sol-artifact-1",
  "contractName": "ArbitraryLoanFixedInterestModule",
  "sourceName": "contracts/release/extensions/external-position-manager/external-positions/arbitrary-loan/modules/ArbitraryLoanFixedInterestModule.sol",
  "abi": [
    {
      "anonymous": false,
      "inputs": [
        {
          "indexed": true,
          "internalType": "address",
          "name": "loan",
          "type": "address"
        },
        {
          "indexed": false,
          "internalType": "uint256",
          "name": "scaledPerSecondRatePreMaturity",
          "type": "uint256"
        },
        {
          "indexed": false,
          "internalType": "uint256",
          "name": "scaledPerSecondRatePostMaturity",
          "type": "uint256"
        },
        {
          "indexed": false,
          "internalType": "uint256",
          "name": "maturity",
          "type": "uint256"
        },
        {
          "indexed": false,
          "internalType": "enum ArbitraryLoanFixedInterestModule.RepaymentTrackingType",
          "name": "repaymentTrackingType",
          "type": "uint8"
        },
        {
          "indexed": false,
          "internalType": "bool",
          "name": "faceValueIsPrincipalOnly",
          "type": "bool"
        }
      ],
      "name": "ConfigSetForLoan",
      "type": "event"
    },
    {
      "anonymous": false,
      "inputs": [
        {
          "indexed": true,
          "internalType": "address",
          "name": "loan",
          "type": "address"
        },
        {
          "indexed": false,
          "internalType": "uint256",
          "name": "totalInterest",
          "type": "uint256"
        }
      ],
      "name": "TotalInterestUpdatedForLoan",
      "type": "event"
    },
    {
      "anonymous": false,
      "inputs": [
        {
          "indexed": true,
          "internalType": "address",
          "name": "loan",
          "type": "address"
        },
        {
          "indexed": false,
          "internalType": "uint256",
          "name": "totalPrincipalRepaid",
          "type": "uint256"
        }
      ],
      "name": "TotalPrincipalRepaidUpdatedForLoan",
      "type": "event"
    },
    {
      "inputs": [
        {
          "internalType": "uint256",
          "name": "_totalBorrowed",
          "type": "uint256"
        },
        {
          "internalType": "uint256",
          "name": "_totalRepaid",
          "type": "uint256"
        }
      ],
      "name": "calcFaceValue",
      "outputs": [
        {
          "internalType": "uint256",
          "name": "faceValue_",
          "type": "uint256"
        }
      ],
      "stateMutability": "view",
      "type": "function"
    },
    {
      "inputs": [
        {
          "internalType": "bytes",
          "name": "_configData",
          "type": "bytes"
        }
      ],
      "name": "configure",
      "outputs": [],
      "stateMutability": "nonpayable",
      "type": "function"
    },
    {
      "inputs": [
        {
          "internalType": "address",
          "name": "_loan",
          "type": "address"
        }
      ],
      "name": "getAccountingInfoForLoan",
      "outputs": [
        {
          "components": [
            {
              "internalType": "uint128",
              "name": "totalInterestCached",
              "type": "uint128"
            },
            {
              "internalType": "uint32",
              "name": "totalInterestCachedTimestamp",
              "type": "uint32"
            },
            {
              "internalType": "uint96",
              "name": "scaledPerSecondRatePreMaturity",
              "type": "uint96"
            },
            {
              "internalType": "uint96",
              "name": "scaledPerSecondRatePostMaturity",
              "type": "uint96"
            },
            {
              "internalType": "uint32",
              "name": "maturity",
              "type": "uint32"
            },
            {
              "internalType": "uint112",
              "name": "totalPrincipalRepaid",
              "type": "uint112"
            },
            {
              "internalType": "enum ArbitraryLoanFixedInterestModule.RepaymentTrackingType",
              "name": "repaymentTrackingType",
              "type": "uint8"
            },
            {
              "internalType": "bool",
              "name": "faceValueIsPrincipalOnly",
              "type": "bool"
            }
          ],
          "internalType": "struct ArbitraryLoanFixedInterestModule.AccountingInfo",
          "name": "accountingInfo_",
          "type": "tuple"
        }
      ],
      "stateMutability": "view",
      "type": "function"
    },
    {
      "inputs": [
        {
          "internalType": "uint256",
          "name": "_prevTotalBorrowed",
          "type": "uint256"
        },
        {
          "internalType": "uint256",
          "name": "_totalRepaid",
          "type": "uint256"
        },
        {
          "internalType": "uint256",
          "name": "",
          "type": "uint256"
        }
      ],
      "name": "preBorrow",
      "outputs": [],
      "stateMutability": "nonpayable",
      "type": "function"
    },
    {
      "inputs": [
        {
          "internalType": "uint256",
          "name": "",
          "type": "uint256"
        },
        {
          "internalType": "uint256",
          "name": "",
          "type": "uint256"
        }
      ],
      "name": "preClose",
      "outputs": [],
      "stateMutability": "nonpayable",
      "type": "function"
    },
    {
      "inputs": [
        {
          "internalType": "uint256",
          "name": "_totalBorrowed",
          "type": "uint256"
        },
        {
          "internalType": "uint256",
          "name": "_prevTotalRepaid",
          "type": "uint256"
        },
        {
          "internalType": "uint256",
          "name": "_repayableLoanAssetAmount",
          "type": "uint256"
        },
        {
          "internalType": "address[]",
          "name": "",
          "type": "address[]"
        }
      ],
      "name": "preReconcile",
      "outputs": [
        {
          "internalType": "uint256",
          "name": "repayAmount_",
          "type": "uint256"
        }
      ],
      "stateMutability": "nonpayable",
      "type": "function"
    },
    {
      "inputs": [
        {
          "internalType": "uint256",
          "name": "_totalBorrowed",
          "type": "uint256"
        },
        {
          "internalType": "uint256",
          "name": "_prevTotalRepaid",
          "type": "uint256"
        },
        {
          "internalType": "uint256",
          "name": "_repayAmountInput",
          "type": "uint256"
        }
      ],
      "name": "preRepay",
      "outputs": [
        {
          "internalType": "uint256",
          "name": "repayAmount_",
          "type": "uint256"
        }
      ],
      "stateMutability": "nonpayable",
      "type": "function"
    },
    {
      "inputs": [
        {
          "internalType": "bytes",
          "name": "",
          "type": "bytes"
        }
      ],
      "name": "receiveCallFromLoan",
      "outputs": [],
      "stateMutability": "nonpayable",
      "type": "function"
    }
  ],
  "bytecode": "0x608060405234801561001057600080fd5b506115a3806100206000396000f3fe608060405234801561001057600080fd5b50600436106100885760003560e01c80637bb6668e1161005b5780637bb6668e146100fe5780638602074e146101115780639e950b2214610124578063e00c34901461013757610088565b8063118fa5751461008d5780631324041c146100b65780631770ac3a146100d657806346739e73146100eb575b600080fd5b6100a061009b366004610ddf565b61014a565b6040516100ad91906113d7565b60405180910390f35b6100c96100c4366004610e6c565b61022b565b6040516100ad91906113e6565b6100e96100e4366004610e32565b6102af565b005b6100e96100f9366004610dfd565b6102b3565b6100c961010c366004610e32565b610550565b6100e961011f366004610e6c565b6105c6565b6100e9610132366004610dfd565b6105d6565b6100c9610145366004610eb9565b6105ee565b610152610cbb565b6001600160a01b0382166000908152602081815260409182902082516101008101845281546001600160801b0381168252600160801b80820463ffffffff90811695840195909552600160a01b9091046001600160601b039081169583019590955260018301549485166060830152600160601b850490931660808201529183046001600160701b031660a0830152909160c0830190600160f01b900460ff1660028111156101fd57fe5b600281111561020857fe5b815260019190910154600160f81b900460ff16151560209091015290505b919050565b600033610239818686610639565b600061025886866102498561014a565b516001600160801b031661070a565b905060001984141561026c57809250610299565b808411156102955760405162461bcd60e51b815260040161028c906113a7565b60405180910390fd5b8392505b6102a582878786610727565b50505b9392505050565b5050565b60003390506000806000806000868060200190518101906102d49190610f37565b94509450945094509450428363ffffffff161180610312575063ffffffff83161580156103125750836001600160601b0316856001600160601b0316145b61032e5760405162461bcd60e51b815260040161028c90611337565b8015806103475750600082600281111561034457fe5b14155b6103635760405162461bcd60e51b815260040161028c906113b7565b60405180610100016040528060006001600160801b03168152602001600063ffffffff168152602001866001600160601b03168152602001856001600160601b031681526020018463ffffffff16815260200160006001600160701b031681526020018360028111156103d257fe5b81528215156020918201526001600160a01b0388811660009081528083526040908190208451815494860151928601516001600160801b03199095166001600160801b039091161763ffffffff60801b1916600160801b63ffffffff938416810291909117909316600160a01b6001600160601b03958616021781556060850151600182018054608088015160a08901516bffffffffffffffffffffffff19909216939097169290921763ffffffff60601b1916600160601b969094169590950292909217600160801b600160f01b0319166001600160701b039092169092021780835560c084015191929060ff60f01b1916600160f01b8360028111156104d657fe5b021790555060e082015181600101601f6101000a81548160ff021916908315150217905550905050856001600160a01b03167f3acd149726e001f5c76f974ab7a0a932794e7acea35cbc88fc2e93d90d50c2ab868686868660405161053f9594939291906113f4565b60405180910390a250505050505050565b60003361055b610cbb565b6105648261014a565b90508060e00151156105925760a08101516105899086906001600160701b03166108d1565b925050506105c0565b6105bb85856105b66105a5868a8a6108f9565b85516001600160801b031690610aac565b61070a565b925050505b92915050565b6105d1338484610639565b505050565b60405162461bcd60e51b815260040161028c906113c7565b6000336105fc818888610639565b600061060c88886102498561014a565b90508086111561061e57809250610622565b8592505b61062e82898986610727565b505095945050505050565b6001600160a01b03831660009081526020819052604081209061065d8585856108f9565b905080156106e857815460009061067d906001600160801b031683610aac565b905061068881610ad1565b83546001600160801b0319166001600160801b03919091161783556040516001600160a01b038716907f9500a489ed014d7675b6f72f4f9d8bebb645a36aeb864a13dcb223f269672971906106de9084906113e6565b60405180910390a2505b50805463ffffffff60801b1916600160801b4263ffffffff1602179055505050565b600061071f6107198584610aac565b84610afa565b949350505050565b61072f610cbb565b6107388561014a565b905060008160c00151600281111561074c57fe5b141561075857506108cb565b600061077a8260a001516001600160701b0316866108d190919063ffffffff16565b9050806107885750506108cb565b600060018360c00151600281111561079c57fe5b14156107d0578184106107b05750846107cb565b60a08301516107c8906001600160701b031685610aac565b90505b610842565b60006107ea878786600001516001600160801b031661070a565b90508085106107fb57869150610840565b600061080782856108d1565b90508086111561083e5761083b81610835888860a001516001600160701b0316610aac90919063ffffffff16565b906108d1565b92505b505b505b80156108c75761085181610b16565b6001600160a01b0388166000818152602081905260409081902060010180546001600160701b0394909416600160801b02600160801b600160f01b03199094169390931790925590517f1ce9ccee357c3e4e9a4e096cd199734532d89ca0b35b73ebba49990b496316d69061053f9084906113e6565b5050505b50505050565b6000828211156108f35760405162461bcd60e51b815260040161028c90611377565b50900390565b6000610903610cbb565b61090c8561014a565b905042816020015163ffffffff16141561092a5760009150506102a8565b805160009061094d906109479087906001600160801b0316610aac565b85610afa565b90508061095f576000925050506102a8565b816080015163ffffffff1642111580610991575081606001516001600160601b031682604001516001600160601b0316145b156109d3576109ca8183604001516001600160601b03166109c5856020015163ffffffff16426108d190919063ffffffff16565b610b3b565b925050506102a8565b816080015163ffffffff16826020015163ffffffff1610610a1d576109ca8183606001516001600160601b03166109c5856020015163ffffffff16426108d190919063ffffffff16565b6000610a588284604001516001600160601b03166109c5866020015163ffffffff16876080015163ffffffff166108d190919063ffffffff16565b90506000610a94610a698484610aac565b85606001516001600160601b03166109c5876080015163ffffffff16426108d190919063ffffffff16565b9050610aa08282610aac565b98975050505050505050565b6000828201838110156102a85760405162461bcd60e51b815260040161028c90611357565b6000600160801b8210610af65760405162461bcd60e51b815260040161028c90611367565b5090565b600081831115610b0d57508082036105c0565b50600092915050565b6000600160701b8210610af65760405162461bcd60e51b815260040161028c90611347565b600082610b4a575060006102a8565b61071f6b033b2e3c9fd0803ce8000000610b8b610b846b033b2e3c9fd0803ce800000061083588886b033b2e3c9fd0803ce8000000610b91565b8790610c4f565b90610c89565b6000838015610c3257600184168015610bac57859250610bb0565b8392505b50600283046002850494505b8415610c2c578586028687820414610bd357600080fd5b81810181811015610be357600080fd5b85810497506002870615610c1f578785028589820414158915151615610c0857600080fd5b83810181811015610c1857600080fd5b8790049550505b5050600285049450610bbc565b50610c47565b838015610c4257600092506102a5565b839250505b509392505050565b600082610c5e575060006105c0565b82820282848281610c6b57fe5b04146102a85760405162461bcd60e51b815260040161028c90611397565b6000808211610caa5760405162461bcd60e51b815260040161028c90611387565b818381610cb357fe5b049392505050565b6040805161010081018252600080825260208201819052918101829052606081018290526080810182905260a081018290529060c08201908152600060209091015290565b80356105c081611528565b60008083601f840112610d1d57600080fd5b50813567ffffffffffffffff811115610d3557600080fd5b602083019150836020820283011115610d4d57600080fd5b9250929050565b80516105c08161153c565b600082601f830112610d7057600080fd5b8135610d83610d7e82611467565b611440565b91508082526020830160208301858383011115610d9f57600080fd5b610daa83828461150f565b50505092915050565b80516105c081611545565b80356105c081611552565b80516105c08161155b565b80516105c081611564565b600060208284031215610df157600080fd5b600061071f8484610d00565b600060208284031215610e0f57600080fd5b813567ffffffffffffffff811115610e2657600080fd5b61071f84828501610d5f565b60008060408385031215610e4557600080fd5b6000610e518585610dbe565b9250506020610e6285828601610dbe565b9150509250929050565b600080600060608486031215610e8157600080fd5b6000610e8d8686610dbe565b9350506020610e9e86828701610dbe565b9250506040610eaf86828701610dbe565b9150509250925092565b600080600080600060808688031215610ed157600080fd5b6000610edd8888610dbe565b9550506020610eee88828901610dbe565b9450506040610eff88828901610dbe565b935050606086013567ffffffffffffffff811115610f1c57600080fd5b610f2888828901610d0b565b92509250509295509295909350565b600080600080600060a08688031215610f4f57600080fd5b6000610f5b8888610dd4565b9550506020610f6c88828901610dd4565b9450506040610f7d88828901610dc9565b9350506060610f8e88828901610db3565b9250506080610f9f88828901610d54565b9150509295509295909350565b610fb5816114a3565b82525050565b610fb5816114ee565b6000610fd160348361148f565b7f636f6e6669677572653a20506f73742d6d61747572697479207261746520776981527374686f75742076616c6964206d6174757269747960601b602082015260400192915050565b600061102760308361148f565b7f5f5f736166654361737455696e743131323a2056616c756520646f65736e277481526f2066697420696e20313132206269747360801b602082015260400192915050565b6000611079601b8361148f565b7f536166654d6174683a206164646974696f6e206f766572666c6f770000000000815260200192915050565b60006110b260278361148f565b7f53616665436173743a2076616c756520646f65736e27742066697420696e20318152663238206269747360c81b602082015260400192915050565b60006110fb601e8361148f565b7f536166654d6174683a207375627472616374696f6e206f766572666c6f770000815260200192915050565b6000611134601a8361148f565b7f536166654d6174683a206469766973696f6e206279207a65726f000000000000815260200192915050565b600061116d60218361148f565b7f536166654d6174683a206d756c7469706c69636174696f6e206f766572666c6f8152607760f81b602082015260400192915050565b60006111b060158361148f565b741c1c9954995c185e4e8813dd995c9c185e5b595b9d605a1b815260200192915050565b60006111e160248361148f565b7f636f6e6669677572653a20496e76616c696420666163652076616c756520636f8152636e66696760e01b602082015260400192915050565b600061122760258361148f565b7f7265636569766543616c6c46726f6d4c6f616e3a20496e76616c6964206163748152641a5bdb925960da1b602082015260400192915050565b80516101008301906112738482611301565b506020820151611286602085018261131c565b506040820151611299604085018261132e565b5060608201516112ac606085018261132e565b5060808201516112bf608085018261131c565b5060a08201516112d260a08501826112f8565b5060c08201516112e560c0850182610fbb565b5060e08201516108cb60e0850182610fac565b610fb5816114b2565b610fb5816114be565b610fb5816114d6565b610fb5816114f9565b610fb5816114d9565b610fb581611504565b610fb5816114e2565b602080825281016105c081610fc4565b602080825281016105c08161101a565b602080825281016105c08161106c565b602080825281016105c0816110a5565b602080825281016105c0816110ee565b602080825281016105c081611127565b602080825281016105c081611160565b602080825281016105c0816111a3565b602080825281016105c0816111d4565b602080825281016105c08161121a565b61010081016105c08284611261565b602081016105c0828461130a565b60a081016114028288611325565b61140f6020830187611325565b61141c6040830186611313565b6114296060830185610fbb565b6114366080830184610fac565b9695505050505050565b60405181810167ffffffffffffffff8111828210171561145f57600080fd5b604052919050565b600067ffffffffffffffff82111561147e57600080fd5b506020601f91909101601f19160190565b90815260200190565b60006105c0826114ca565b151590565b806102268161151b565b6001600160701b031690565b6001600160801b031690565b6001600160a01b031690565b90565b63ffffffff1690565b6001600160601b031690565b60006105c0826114a8565b60006105c0826114d9565b60006105c0826114e2565b82818337506000910152565b6003811061152557fe5b50565b61153181611498565b811461152557600080fd5b611531816114a3565b6003811061152557600080fd5b611531816114d6565b611531816114d9565b611531816114e256fea2646970667358221220f3743b5faf3a3197dc2305ec166c450f2a3b9b7fd3e21b559a3c0dd0377ede2d64736f6c634300060c0033",
  "linkReferences": {},
  "deployedLinkReferences": {}
}