{
  "_format": "hh-sol-artifact-1",
  "contractName": "ArbitraryLoanPositionLib",
  "sourceName": "contracts/release/extensions/external-position-manager/external-positions/arbitrary-loan/ArbitraryLoanPositionLib.sol",
  "abi": [
    {
      "inputs": [
        {
          "internalType": "address",
          "name": "_wrappedNativeAsset",
          "type": "address"
        }
      ],
      "stateMutability": "nonpayable",
      "type": "constructor"
    },
    {
      "anonymous": false,
      "inputs": [
        {
          "indexed": false,
          "internalType": "uint256",
          "name": "borrowableAmount",
          "type": "uint256"
        }
      ],
      "name": "BorrowableAmountUpdated",
      "type": "event"
    },
    {
      "anonymous": false,
      "inputs": [],
      "name": "LoanClosed",
      "type": "event"
    },
    {
      "anonymous": false,
      "inputs": [
        {
          "indexed": true,
          "internalType": "address",
          "name": "borrower",
          "type": "address"
        },
        {
          "indexed": true,
          "internalType": "address",
          "name": "loanAsset",
          "type": "address"
        },
        {
          "indexed": true,
          "internalType": "address",
          "name": "accountingModule",
          "type": "address"
        },
        {
          "indexed": false,
          "internalType": "bytes32",
          "name": "description",
          "type": "bytes32"
        }
      ],
      "name": "LoanConfigured",
      "type": "event"
    },
    {
      "anonymous": false,
      "inputs": [
        {
          "indexed": false,
          "internalType": "uint256",
          "name": "totalBorrowed",
          "type": "uint256"
        }
      ],
      "name": "TotalBorrowedUpdated",
      "type": "event"
    },
    {
      "anonymous": false,
      "inputs": [
        {
          "indexed": false,
          "internalType": "uint256",
          "name": "totalRepaid",
          "type": "uint256"
        }
      ],
      "name": "TotalRepaidUpdated",
      "type": "event"
    },
    {
      "inputs": [
        {
          "internalType": "uint256",
          "name": "_amount",
          "type": "uint256"
        }
      ],
      "name": "borrow",
      "outputs": [],
      "stateMutability": "nonpayable",
      "type": "function"
    },
    {
      "inputs": [],
      "name": "getAccountingModule",
      "outputs": [
        {
          "internalType": "address",
          "name": "accountingModule_",
          "type": "address"
        }
      ],
      "stateMutability": "view",
      "type": "function"
    },
    {
      "inputs": [],
      "name": "getBorrowableAmount",
      "outputs": [
        {
          "internalType": "uint256",
          "name": "borrowableAmount_",
          "type": "uint256"
        }
      ],
      "stateMutability": "view",
      "type": "function"
    },
    {
      "inputs": [],
      "name": "getBorrower",
      "outputs": [
        {
          "internalType": "address",
          "name": "borrower_",
          "type": "address"
        }
      ],
      "stateMutability": "view",
      "type": "function"
    },
    {
      "inputs": [],
      "name": "getDebtAssets",
      "outputs": [
        {
          "internalType": "address[]",
          "name": "assets_",
          "type": "address[]"
        },
        {
          "internalType": "uint256[]",
          "name": "amounts_",
          "type": "uint256[]"
        }
      ],
      "stateMutability": "nonpayable",
      "type": "function"
    },
    {
      "inputs": [],
      "name": "getLoanAsset",
      "outputs": [
        {
          "internalType": "address",
          "name": "asset_",
          "type": "address"
        }
      ],
      "stateMutability": "view",
      "type": "function"
    },
    {
      "inputs": [],
      "name": "getManagedAssets",
      "outputs": [
        {
          "internalType": "address[]",
          "name": "assets_",
          "type": "address[]"
        },
        {
          "internalType": "uint256[]",
          "name": "amounts_",
          "type": "uint256[]"
        }
      ],
      "stateMutability": "nonpayable",
      "type": "function"
    },
    {
      "inputs": [],
      "name": "getTotalBorrowed",
      "outputs": [
        {
          "internalType": "uint256",
          "name": "totalBorrowed_",
          "type": "uint256"
        }
      ],
      "stateMutability": "view",
      "type": "function"
    },
    {
      "inputs": [],
      "name": "getTotalRepaid",
      "outputs": [
        {
          "internalType": "uint256",
          "name": "totalRepaid_",
          "type": "uint256"
        }
      ],
      "stateMutability": "view",
      "type": "function"
    },
    {
      "inputs": [
        {
          "internalType": "bytes",
          "name": "",
          "type": "bytes"
        }
      ],
      "name": "init",
      "outputs": [],
      "stateMutability": "nonpayable",
      "type": "function"
    },
    {
      "inputs": [],
      "name": "loanIsClosed",
      "outputs": [
        {
          "internalType": "bool",
          "name": "isClosed_",
          "type": "bool"
        }
      ],
      "stateMutability": "view",
      "type": "function"
    },
    {
      "inputs": [
        {
          "internalType": "bytes",
          "name": "_actionData",
          "type": "bytes"
        }
      ],
      "name": "receiveCallFromVault",
      "outputs": [],
      "stateMutability": "nonpayable",
      "type": "function"
    },
    {
      "inputs": [
        {
          "internalType": "uint256",
          "name": "_amount",
          "type": "uint256"
        }
      ],
      "name": "repay",
      "outputs": [],
      "stateMutability": "nonpayable",
      "type": "function"
    }
  ],
  "bytecode": "0x60a060405234801561001057600080fd5b50604051611d72380380611d728339818101604052602081101561003357600080fd5b5051606081901b6001600160601b0319166080526001600160a01b0316611d0661006c600039806114ea52806115205250611d066000f3fe608060405234801561001057600080fd5b50600436106100cf5760003560e01c80636d82f6451161008c578063acf8982e11610066578063acf8982e146102aa578063c5ebeaec146102b2578063e5c23a97146102cf578063ecd658b414610373576100cf565b80636d82f645146101e557806377658e80146101ed57806380daddb814610209576100cf565b80630307c4a1146100d457806307758efb146100ee5780631cb0c3e714610112578063371fd8e61461011a5780634ddf47d41461013957806358414300146101dd575b600080fd5b6100dc61037b565b60408051918252519081900360200190f35b6100f661038a565b604080516001600160a01b039092168252519081900360200190f35b6100f6610399565b6101376004803603602081101561013057600080fd5b50356103a8565b005b6101376004803603602081101561014f57600080fd5b810190602081018135600160201b81111561016957600080fd5b82018360208201111561017b57600080fd5b803590602001918460018302840111600160201b8311171561019c57600080fd5b91908080601f016020809104026020016040519081016040528093929190818152602001838380828437600092019190915250929550610576945050505050565b6100dc610579565b6100dc61058f565b6101f5610595565b604080519115158252519081900360200190f35b6102116105a5565b604051808060200180602001838103835285818151815260200191508051906020019060200280838360005b8381101561025557818101518382015260200161023d565b50505050905001838103825284818151815260200191508051906020019060200280838360005b8381101561029457818101518382015260200161027c565b5050505090500194505050505060405180910390f35b6100f661072b565b610137600480360360208110156102c857600080fd5b503561073a565b610137600480360360208110156102e557600080fd5b810190602081018135600160201b8111156102ff57600080fd5b82018360208201111561031157600080fd5b803590602001918460018302840111600160201b8311171561033257600080fd5b91908080601f01602080910402602001604051908101604052809392919081815260200183838082843760009201919091525092955061092f945050505050565b610211610aa7565b6003546001600160801b031690565b6000546001600160a01b031690565b6001546001600160a01b031690565b60006103b2610579565b905060006103be61038a565b905060006001600160a01b0382161561046157816001600160a01b0316631324041c6103e861037b565b85876040518463ffffffff1660e01b8152600401808481526020018381526020018281526020019350505050602060405180830381600087803b15801561042e57600080fd5b505af1158015610442573d6000803e3d6000fd5b505050506040513d602081101561045857600080fd5b50519050610486565b6000198414156104835761047c61047661037b565b84610aad565b9050610486565b50825b600081116104db576040805162461bcd60e51b815260206004820152601760248201527f72657061793a204e6f7468696e6720746f207265706179000000000000000000604482015290519081900360640190fd5b6104ed6104e88483610aca565b610b2b565b61057033306001600160a01b031663c98091876040518163ffffffff1660e01b815260040160206040518083038186803b15801561052a57600080fd5b505afa15801561053e573d6000803e3d6000fd5b505050506040513d602081101561055457600080fd5b50518361055f61072b565b6001600160a01b0316929190610b87565b50505050565b50565b600354600160801b90046001600160801b031690565b60025490565b600454600160a01b900460ff1690565b6060806105b0610595565b156105ba57610727565b60006105c461038a565b905060006001600160a01b0382161561066457816001600160a01b0316637bb6668e6105ee61037b565b6105f6610579565b6040518363ffffffff1660e01b8152600401808381526020018281526020019250505060206040518083038186803b15801561063157600080fd5b505afa158015610645573d6000803e3d6000fd5b505050506040513d602081101561065b57600080fd5b5051905061067f565b61067c61066f61037b565b610677610579565b610aad565b90505b61069161068a61058f565b8290610aca565b90508061069f575050610727565b60408051600180825281830190925290602080830190803683370190505093506106c761072b565b846000815181106106d457fe5b6001600160a01b0392909216602092830291909101820152604080516001808252818301909252918281019080368337019050509250808360008151811061071857fe5b60200260200101818152505050505b9091565b6004546001600160a01b031690565b610742610399565b6001600160a01b0316336001600160a01b03161461079e576040805162461bcd60e51b8152602060048201526014602482015273189bdc9c9bddce88155b985d5d1a1bdc9a5e995960621b604482015290519081900360640190fd5b600081116107eb576040805162461bcd60e51b8152602060048201526015602482015274189bdc9c9bddce88115b5c1d1e4817d85b5bdd5b9d605a1b604482015290519081900360640190fd5b60006107f561037b565b9050600061080161038a565b90506001600160a01b0381161561088857806001600160a01b0316638602074e8361082a610579565b866040518463ffffffff1660e01b8152600401808481526020018381526020018281526020019350505050600060405180830381600087803b15801561086f57600080fd5b505af1158015610883573d6000803e3d6000fd5b505050505b6108a261089d8461089761058f565b90610be1565b610c3e565b6108ac8284610aca565b91506108b782610c79565b600380546fffffffffffffffffffffffffffffffff19166001600160801b03929092169190911790556004546108f7906001600160a01b03163385610cc1565b6040805183815290517f17f13fd3f7c4712af33f1770ebcb822dd20a2dbc00850eab48d786623d97b9599181900360200190a1505050565b6000606082806020019051604081101561094857600080fd5b815160208301805160405192949293830192919084600160201b82111561096e57600080fd5b90830190602082018581111561098357600080fd5b8251600160201b81118282018810171561099c57600080fd5b82525081516020918201929091019080838360005b838110156109c95781810151838201526020016109b1565b50505050905090810190601f1680156109f65780820380516001836020036101000a031916815260200191505b506040525050509150915060006004811115610a0e57fe5b821415610a2357610a1e81610d13565b610aa2565b6001821415610a3557610a1e81610f91565b6002821415610a4757610a1e8161104b565b6003821415610a5957610a1e81611115565b6004821415610a6b57610a1e81611128565b60405162461bcd60e51b8152600401808060200182810382526026815260200180611bdf6026913960400191505060405180910390fd5b505050565b60608091565b600081831115610ac05750808203610ac4565b5060005b92915050565b600082820183811015610b24576040805162461bcd60e51b815260206004820152601b60248201527f536166654d6174683a206164646974696f6e206f766572666c6f770000000000604482015290519081900360640190fd5b9392505050565b610b3481610c79565b600380546001600160801b03928316600160801b0292169190911790556040805182815290517f5fbda7f48544d8b75745d0afbdee80c8795852baa78a9c2d6aed0b244f9367ef9181900360200190a150565b604080516001600160a01b0380861660248301528416604482015260648082018490528251808303909101815260849091019091526020810180516001600160e01b03166323b872dd60e01b17905261057090859061126f565b600082821115610c38576040805162461bcd60e51b815260206004820152601e60248201527f536166654d6174683a207375627472616374696f6e206f766572666c6f770000604482015290519081900360640190fd5b50900390565b60028190556040805182815290517fefab1a36212873214a245322bb960227417faad7a04286819bc74cb820a633429181900360200190a150565b6000600160801b8210610cbd5760405162461bcd60e51b8152600401808060200182810382526027815260200180611b926027913960400191505060405180910390fd5b5090565b604080516001600160a01b038416602482015260448082018490528251808303909101815260649091019091526020810180516001600160e01b031663a9059cbb60e01b179052610aa290849061126f565b6000610d1d61072b565b6001600160a01b031614610d625760405162461bcd60e51b8152600401808060200182810382526029815260200180611ca86029913960400191505060405180910390fd5b60008060008060606000610d7587611320565b95509550955095509550955060006001600160a01b0316866001600160a01b03161415610dd35760405162461bcd60e51b8152600401808060200182810382526025815260200180611c5c6025913960400191505060405180910390fd5b6001600160a01b038516610e185760405162461bcd60e51b8152600401808060200182810382526027815260200180611c816027913960400191505060405180910390fd5b600180546001600160a01b038089166001600160a01b031992831617909255600480548884169216919091179055831615610f2457600080546001600160a01b0319166001600160a01b03851690811782556040516346739e7360e01b815260206004820181815286516024840152865193946346739e73948894929384936044019290860191908190849084905b83811015610ebf578181015183820152602001610ea7565b50505050905090810190601f168015610eec5780820380516001836020036101000a031916815260200191505b5092505050600060405180830381600087803b158015610f0b57600080fd5b505af1158015610f1f573d6000803e3d6000fd5b505050505b826001600160a01b0316856001600160a01b0316876001600160a01b03167f0d48a14589e59522bbc3a98345ee51dcdd958b27ec84f512c139ea74626c3aa3846040518082815260200191505060405180910390a48315610f8857610f8884610c3e565b50505050505050565b610f99610595565b15610feb576040805162461bcd60e51b815260206004820152601a60248201527f6f6e6c794e6f74436c6f7365643a204c6f616e20636c6f736564000000000000604482015290519081900360640190fd5b6000610ff682611421565b9050600081121561103257600081900361101561089d8261089761058f565b60045461102c906001600160a01b03163383610cc1565b50611047565b61104761089d8261104161058f565b90610aca565b5050565b61105361038a565b6001600160a01b0316639e950b22826040518263ffffffff1660e01b81526004018080602001828103825283818151815260200191508051906020019080838360005b838110156110ae578181015183820152602001611096565b50505050905090810190601f1680156110db5780820380516001836020036101000a031916815260200191505b5092505050600060405180830381600087803b1580156110fa57600080fd5b505af115801561110e573d6000803e3d6000fd5b5050505050565b61057661112182611440565b60006114e8565b611130610595565b15611182576040805162461bcd60e51b815260206004820152601a60248201527f6f6e6c794e6f74436c6f7365643a204c6f616e20636c6f736564000000000000604482015290519081900360640190fd5b61119561118e82611440565b60016114e8565b600061119f61038a565b90506001600160a01b0381161561122557806001600160a01b0316631770ac3a6111c761037b565b6111cf610579565b6040518363ffffffff1660e01b81526004018083815260200182815260200192505050600060405180830381600087803b15801561120c57600080fd5b505af1158015611220573d6000803e3d6000fd5b505050505b61122f6000610c3e565b6004805460ff60a01b1916600160a01b1790556040517f409fced1b85ae32a29fb1e18894d8361a5f2653dc27adf7102d86175c2901d7c90600090a15050565b60606112c4826040518060400160405280602081526020017f5361666545524332303a206c6f772d6c6576656c2063616c6c206661696c6564815250856001600160a01b03166117c39092919063ffffffff16565b805190915015610aa2578080602001905160208110156112e357600080fd5b5051610aa25760405162461bcd60e51b815260040180806020018281038252602a815260200180611c32602a913960400191505060405180910390fd5b600080600080606060008680602001905160c081101561133f57600080fd5b8151602083015160408085015160608601516080870180519351959794969295919491939282019284600160201b82111561137957600080fd5b90830190602082018581111561138e57600080fd5b8251600160201b8111828201881017156113a757600080fd5b82525081516020918201929091019080838360005b838110156113d45781810151838201526020016113bc565b50505050905090810190601f1680156114015780820380516001836020036101000a031916815260200191505b5060405260200151969e959d50939b509199509750929550909350505050565b600081806020019051602081101561143857600080fd5b505192915050565b606081806020019051602081101561145757600080fd5b8101908080516040519392919084600160201b82111561147657600080fd5b90830190602082018581111561148b57600080fd5b82518660208202830111600160201b821117156114a757600080fd5b82525081516020918201928201910280838360005b838110156114d45781810151838201526020016114bc565b505050509050016040525050509050919050565b7f00000000000000000000000000000000000000000000000000000000000000006001600160a01b03161561159557478015611593577f00000000000000000000000000000000000000000000000000000000000000006001600160a01b031663d0e30db0826040518263ffffffff1660e01b81526004016000604051808303818588803b15801561157957600080fd5b505af115801561158d573d6000803e3d6000fd5b50505050505b505b600061159f61072b565b90506115ab83826117da565b156115e75760405162461bcd60e51b815260040180806020018281038252602d815260200180611c05602d913960400191505060405180910390fd5b6000816001600160a01b03166370a08231306040518263ffffffff1660e01b815260040180826001600160a01b0316815260200191505060206040518083038186803b15801561163657600080fd5b505afa15801561164a573d6000803e3d6000fd5b505050506040513d602081101561166057600080fd5b5051905060006116728261067761058f565b9050801561178d57600080611685610579565b9050600061169161038a565b90506001600160a01b0381161561177857806001600160a01b031663e00c34906116b961037b565b84878c6040518563ffffffff1660e01b81526004018085815260200184815260200183815260200180602001828103825283818151815260200191508051906020019060200280838360005b8381101561171d578181015183820152602001611705565b5050505090500195505050505050602060405180830381600087803b15801561174557600080fd5b505af1158015611759573d6000803e3d6000fd5b505050506040513d602081101561176f57600080fd5b5051925061177c565b8392505b6117896104e88385610aca565b5050505b6000841561179c57508161179f565b50805b80156117b9576117b96001600160a01b0385163383610cc1565b610f883387611830565b60606117d2848460008561198b565b949350505050565b6000805b8351811015611826578381815181106117f357fe5b60200260200101516001600160a01b0316836001600160a01b0316141561181e576001915050610ac4565b6001016117de565b5060009392505050565b6060815167ffffffffffffffff8111801561184a57600080fd5b50604051908082528060200260200182016040528015611874578160200160208202803683370190505b50905060005b825181101561198457600083828151811061189157fe5b60200260200101519050806001600160a01b03166370a08231306040518263ffffffff1660e01b815260040180826001600160a01b0316815260200191505060206040518083038186803b1580156118e857600080fd5b505afa1580156118fc573d6000803e3d6000fd5b505050506040513d602081101561191257600080fd5b5051835184908490811061192257fe5b602002602001018181525050600083838151811061193c57fe5b6020026020010151111561197b5761197b8584848151811061195a57fe5b6020026020010151836001600160a01b0316610cc19092919063ffffffff16565b5060010161187a565b5092915050565b6060824710156119cc5760405162461bcd60e51b8152600401808060200182810382526026815260200180611bb96026913960400191505060405180910390fd5b6119d585611ae7565b611a26576040805162461bcd60e51b815260206004820152601d60248201527f416464726573733a2063616c6c20746f206e6f6e2d636f6e7472616374000000604482015290519081900360640190fd5b60006060866001600160a01b031685876040518082805190602001908083835b60208310611a655780518252601f199092019160209182019101611a46565b6001836020036101000a03801982511681845116808217855250505050505090500191505060006040518083038185875af1925050503d8060008114611ac7576040519150601f19603f3d011682016040523d82523d6000602084013e611acc565b606091505b5091509150611adc828286611aed565b979650505050505050565b3b151590565b60608315611afc575081610b24565b825115611b0c5782518084602001fd5b8160405162461bcd60e51b81526004018080602001828103825283818151815260200191508051906020019080838360005b83811015611b56578181015183820152602001611b3e565b50505050905090810190601f168015611b835780820380516001836020036101000a031916815260200191505b509250505060405180910390fdfe53616665436173743a2076616c756520646f65736e27742066697420696e203132382062697473416464726573733a20696e73756666696369656e742062616c616e636520666f722063616c6c7265636569766543616c6c46726f6d5661756c743a20496e76616c696420616374696f6e49645f5f7265636f6e63696c653a2045787472612061737365747320636f6e7461696e73206c6f616e2061737365745361666545524332303a204552433230206f7065726174696f6e20646964206e6f7420737563636565645f5f616374696f6e436f6e6669677572654c6f616e3a20456d70747920626f72726f7765725f5f616374696f6e436f6e6669677572654c6f616e3a20456d707479206c6f616e2061737365745f5f616374696f6e436f6e6669677572654c6f616e3a20416c726561647920636f6e66696775726564a2646970667358221220259904fbb9c3fc9d2832fa638083d3126bc4409a1eec7fb1bab424987f2a449f64736f6c634300060c0033",
  "linkReferences": {},
  "deployedLinkReferences": {}
}