{
  "_format": "hh-sol-artifact-1",
  "contractName": "AuraBalancerV2LpStakingAdapter",
  "sourceName": "contracts/release/extensions/integration-manager/integrations/adapters/AuraBalancerV2LpStakingAdapter.sol",
  "abi": [
    {
      "inputs": [
        {
          "internalType": "address",
          "name": "_integrationManager",
          "type": "address"
        },
        {
          "internalType": "address",
          "name": "_balancerVault",
          "type": "address"
        },
        {
          "internalType": "address",
          "name": "_stakingWrapperFactory",
          "type": "address"
        }
      ],
      "stateMutability": "nonpayable",
      "type": "constructor"
    },
    {
      "inputs": [],
      "name": "CLAIM_REWARDS_SELECTOR",
      "outputs": [
        {
          "internalType": "bytes4",
          "name": "",
          "type": "bytes4"
        }
      ],
      "stateMutability": "view",
      "type": "function"
    },
    {
      "inputs": [],
      "name": "LEND_AND_STAKE_SELECTOR",
      "outputs": [
        {
          "internalType": "bytes4",
          "name": "",
          "type": "bytes4"
        }
      ],
      "stateMutability": "view",
      "type": "function"
    },
    {
      "inputs": [],
      "name": "LEND_SELECTOR",
      "outputs": [
        {
          "internalType": "bytes4",
          "name": "",
          "type": "bytes4"
        }
      ],
      "stateMutability": "view",
      "type": "function"
    },
    {
      "inputs": [],
      "name": "REDEEM_SELECTOR",
      "outputs": [
        {
          "internalType": "bytes4",
          "name": "",
          "type": "bytes4"
        }
      ],
      "stateMutability": "view",
      "type": "function"
    },
    {
      "inputs": [],
      "name": "STAKE_SELECTOR",
      "outputs": [
        {
          "internalType": "bytes4",
          "name": "",
          "type": "bytes4"
        }
      ],
      "stateMutability": "view",
      "type": "function"
    },
    {
      "inputs": [],
      "name": "TAKE_MULTIPLE_ORDERS_SELECTOR",
      "outputs": [
        {
          "internalType": "bytes4",
          "name": "",
          "type": "bytes4"
        }
      ],
      "stateMutability": "view",
      "type": "function"
    },
    {
      "inputs": [],
      "name": "TAKE_ORDER_SELECTOR",
      "outputs": [
        {
          "internalType": "bytes4",
          "name": "",
          "type": "bytes4"
        }
      ],
      "stateMutability": "view",
      "type": "function"
    },
    {
      "inputs": [],
      "name": "UNSTAKE_AND_REDEEM_SELECTOR",
      "outputs": [
        {
          "internalType": "bytes4",
          "name": "",
          "type": "bytes4"
        }
      ],
      "stateMutability": "view",
      "type": "function"
    },
    {
      "inputs": [],
      "name": "UNSTAKE_SELECTOR",
      "outputs": [
        {
          "internalType": "bytes4",
          "name": "",
          "type": "bytes4"
        }
      ],
      "stateMutability": "view",
      "type": "function"
    },
    {
      "inputs": [
        {
          "internalType": "address",
          "name": "_vaultProxy",
          "type": "address"
        },
        {
          "internalType": "bytes",
          "name": "_actionData",
          "type": "bytes"
        },
        {
          "internalType": "bytes",
          "name": "",
          "type": "bytes"
        }
      ],
      "name": "claimRewards",
      "outputs": [],
      "stateMutability": "nonpayable",
      "type": "function"
    },
    {
      "inputs": [],
      "name": "getIntegrationManager",
      "outputs": [
        {
          "internalType": "address",
          "name": "integrationManager_",
          "type": "address"
        }
      ],
      "stateMutability": "view",
      "type": "function"
    },
    {
      "inputs": [
        {
          "internalType": "address",
          "name": "_vaultProxy",
          "type": "address"
        },
        {
          "internalType": "bytes",
          "name": "_actionData",
          "type": "bytes"
        },
        {
          "internalType": "bytes",
          "name": "",
          "type": "bytes"
        }
      ],
      "name": "lendAndStake",
      "outputs": [],
      "stateMutability": "nonpayable",
      "type": "function"
    },
    {
      "inputs": [
        {
          "internalType": "address",
          "name": "",
          "type": "address"
        },
        {
          "internalType": "bytes4",
          "name": "_selector",
          "type": "bytes4"
        },
        {
          "internalType": "bytes",
          "name": "_actionData",
          "type": "bytes"
        }
      ],
      "name": "parseAssetsForAction",
      "outputs": [
        {
          "internalType": "enum IIntegrationManager.SpendAssetsHandleType",
          "name": "spendAssetsHandleType_",
          "type": "uint8"
        },
        {
          "internalType": "address[]",
          "name": "spendAssets_",
          "type": "address[]"
        },
        {
          "internalType": "uint256[]",
          "name": "spendAssetAmounts_",
          "type": "uint256[]"
        },
        {
          "internalType": "address[]",
          "name": "incomingAssets_",
          "type": "address[]"
        },
        {
          "internalType": "uint256[]",
          "name": "minIncomingAssetAmounts_",
          "type": "uint256[]"
        }
      ],
      "stateMutability": "view",
      "type": "function"
    },
    {
      "inputs": [
        {
          "internalType": "address",
          "name": "_vaultProxy",
          "type": "address"
        },
        {
          "internalType": "bytes",
          "name": "_actionData",
          "type": "bytes"
        },
        {
          "internalType": "bytes",
          "name": "",
          "type": "bytes"
        }
      ],
      "name": "stake",
      "outputs": [],
      "stateMutability": "nonpayable",
      "type": "function"
    },
    {
      "inputs": [
        {
          "internalType": "address",
          "name": "_vaultProxy",
          "type": "address"
        },
        {
          "internalType": "bytes",
          "name": "_actionData",
          "type": "bytes"
        },
        {
          "internalType": "bytes",
          "name": "",
          "type": "bytes"
        }
      ],
      "name": "takeOrder",
      "outputs": [],
      "stateMutability": "nonpayable",
      "type": "function"
    },
    {
      "inputs": [
        {
          "internalType": "address",
          "name": "_vaultProxy",
          "type": "address"
        },
        {
          "internalType": "bytes",
          "name": "_actionData",
          "type": "bytes"
        },
        {
          "internalType": "bytes",
          "name": "",
          "type": "bytes"
        }
      ],
      "name": "unstake",
      "outputs": [],
      "stateMutability": "nonpayable",
      "type": "function"
    },
    {
      "inputs": [
        {
          "internalType": "address",
          "name": "_vaultProxy",
          "type": "address"
        },
        {
          "internalType": "bytes",
          "name": "_actionData",
          "type": "bytes"
        },
        {
          "internalType": "bytes",
          "name": "",
          "type": "bytes"
        }
      ],
      "name": "unstakeAndRedeem",
      "outputs": [],
      "stateMutability": "nonpayable",
      "type": "function"
    }
  ],
  "bytecode": "0x60e06040523480156200001157600080fd5b50604051620038e8380380620038e883398101604081905262000034916200006f565b6001600160601b0319606093841b811660805291831b821660a05290911b1660c052620000ef565b80516200006981620000d5565b92915050565b6000806000606084860312156200008557600080fd5b60006200009386866200005c565b9350506020620000a6868287016200005c565b9250506040620000b9868287016200005c565b9150509250925092565b60006001600160a01b03821662000069565b620000e081620000c3565b8114620000ec57600080fd5b50565b60805160601c60a05160601c60c05160601c61378c6200015c60003980611dd85250806103685280610ea2528061105a528061123b5280611efd5280611fa5525080610226528061072d528061087252806109155280610ac35280610c7e5280610ccf525061378c6000f3fe608060405234801561001057600080fd5b506004361061010b5760003560e01c80638334eb99116100a2578063c32990a211610071578063c32990a2146101bf578063c54efee5146101c7578063e7c45690146101eb578063f7d882b514610200578063fa7dd04d146102085761010b565b80638334eb9914610189578063863e5ad01461019c578063b23228cf146101a4578063b9dfbacc146101ac5761010b565b806329fa046e116100de57806329fa046e146101535780633ffc15911461016657806340da225d1461016e57806368e30677146101765761010b565b806303e38a2b14610110578063080456c114610125578063131461c014610143578063257cb1a31461014b575b600080fd5b61012361011e366004612a3c565b61021b565b005b61012d6106b6565b60405161013a919061345e565b60405180910390f35b61012d6106da565b61012d6106fe565b610123610161366004612a3c565b610722565b61012d61081f565b61012d610843565b610123610184366004612a3c565b610867565b610123610197366004612a3c565b61090a565b61012d610a70565b61012d610a94565b6101236101ba366004612a3c565b610ab8565b61012d610b4f565b6101da6101d53660046129d5565b610b73565b60405161013a95949392919061346c565b6101f3610c7c565b60405161013a9190613379565b61012d610ca0565b610123610216366004612a3c565b610cc4565b336001600160a01b037f0000000000000000000000000000000000000000000000000000000000000000161461026c5760405162461bcd60e51b81526004016102639061358a565b60405180910390fd5b60006060806060806102b389898080601f016020809104026020016040519081016040528093929190818152602001838380828437600092019190915250610d5d92505050565b945094509450945094506000808451905060005b818110156103ee5760008582815181106102dd57fe5b602002602001015113156103935760008582815181106102f957fe5b6020026020010151905060006001600160a01b031685838151811061031a57fe5b60200260200101516001600160a01b03161461034f5761034f303087858151811061034157fe5b602002602001015184610d8b565b61038d87838151811061035e57fe5b60200260200101517f000000000000000000000000000000000000000000000000000000000000000083610d9f565b506103e6565b60008582815181106103a157fe5b60200260200101511280156103dc575060006001600160a01b03168482815181106103c857fe5b60200260200101516001600160a01b031614155b156103e657600192505b6001016102c7565b50606061040b3084610400578e610402565b305b8a8a8a8a610e5b565b905060005b828110156106a657600086828151811061042657fe5b602002602001015113156105565760006001600160a01b031685828151811061044b57fe5b60200260200101516001600160a01b0316141580156104755750600189600181111561047357fe5b145b1561053357600087828151811061048857fe5b60200260200101516001600160a01b03166370a08231306040518263ffffffff1660e01b81526004016104bb9190613379565b60206040518083038186803b1580156104d357600080fd5b505afa1580156104e7573d6000803e3d6000fd5b505050506040513d601f19601f8201168201806040525081019061050b9190612c41565b90508015610531576105318f87848151811061052357fe5b602002602001015183610f43565b505b6105508e88838151811061054357fe5b6020026020010151610f5c565b5061069e565b600086828151811061056457fe5b6020026020010151121561066b5760006001600160a01b031685828151811061058957fe5b60200260200101516001600160a01b0316146106505761064b8e8683815181106105af57fe5b60200260200101518984815181106105c357fe5b60200260200101516001600160a01b03166370a08231306040518263ffffffff1660e01b81526004016105f69190613379565b60206040518083038186803b15801561060e57600080fd5b505afa158015610622573d6000803e3d6000fd5b505050506040513d601f19601f820116820180604052508101906106469190612c41565b610f43565b610666565b8315610666576105508e88838151811061054357fe5b61069e565b81818151811061067757fe5b602002602001015160001461069e5760405162461bcd60e51b81526004016102639061359a565b600101610410565b5050505050505050505050505050565b7f8334eb99be0145865eba9889fca2ee920288090caefff4cc776038e20ad9259a81565b7f29fa046e79524c3c5ac4c01df692c35e217802b2b13b21121b76cf0ef02b138c81565b7f099f75155f0e997bf83a7993a71d5e7e7540bd386fe1e84643a09ce6b412521981565b336001600160a01b037f0000000000000000000000000000000000000000000000000000000000000000161461076a5760405162461bcd60e51b81526004016102639061358a565b60008060608061077861247d565b6107b789898080601f016020809104026020016040519081016040528093929190818152602001838380828437600092019190915250610ffd92505050565b95509550955050945094506107cf3085858585611035565b6108088a866107dd876110a7565b6001600160a01b03166370a08231306040518263ffffffff1660e01b81526004016105f69190613379565b6108128a846110b2565b5050505050505050505050565b7ffa7dd04da627f433da73c4355ead9c75682a67a8fc84d3f6170ef0922f402d2481565b7fb9dfbaccbe5cd2a84fdcf1d15f23ef25d23086f5afbaa99516065ed4a5bbc7a381565b336001600160a01b037f000000000000000000000000000000000000000000000000000000000000000016146108af5760405162461bcd60e51b81526004016102639061358a565b6000806108f186868080601f01602080910402602001604051908101604052809392919081815260200183838082843760009201919091525061120d92505050565b9150915061090187888484610d8b565b50505050505050565b336001600160a01b037f000000000000000000000000000000000000000000000000000000000000000016146109525760405162461bcd60e51b81526004016102639061358a565b6000806000606061096161247d565b6109a089898080601f016020809104026020016040519081016040528093929190818152602001838380828437600092019190915250610ffd92505050565b95505094509450945094506109b78a308786610d8b565b6109c48a8585858561122d565b60006109cf856110a7565b90506000816001600160a01b03166370a08231306040518263ffffffff1660e01b81526004016109ff9190613379565b60206040518083038186803b158015610a1757600080fd5b505afa158015610a2b573d6000803e3d6000fd5b505050506040513d601f19601f82011682018060405250810190610a4f9190612c41565b90508015610a6257610a628c8883610f43565b505050505050505050505050565b7f03e38a2bd7063d45c897edeafc330e71657502dd86434d3c37a489caf116af6981565b7f68e30677f607df46e87da13e15b637784cfa62374b653f35ab43d10361a2f83081565b336001600160a01b037f00000000000000000000000000000000000000000000000000000000000000001614610b005760405162461bcd60e51b81526004016102639061358a565b610b4885610b4386868080601f0160208091040260200160405190810160405280939291908181526020018383808284376000920191909152506114cd92505050565b6114e3565b5050505050565b7f0e7f692dad5b88fdee426250d6eae91207e56a2e8112b7364579bed1790e5bf481565b600060608080806001600160e01b03198816632e77eeb360e21b1415610baa57610b9b6114f1565b94509450945094509450610c71565b6001600160e01b031988166314fd023760e11b1415610bcd57610b9b8787611551565b6001600160e01b03198816638334eb9960e01b1415610bf057610b9b8787611664565b6001600160e01b031988166303e38a2b60e01b1415610c1357610b9b878761168a565b6001600160e01b0319881663fa7dd04d60e01b1415610c3657610b9b8787611a58565b6001600160e01b031988166368e3067760e01b1415610c5957610b9b8787611bcf565b60405162461bcd60e51b8152600401610263906135ea565b945094509450945094565b7f000000000000000000000000000000000000000000000000000000000000000090565b7fc29fa9dde84204c2908778afd0613d802d31cf046179b88f6d2b4a4e507ea2d581565b336001600160a01b037f00000000000000000000000000000000000000000000000000000000000000001614610d0c5760405162461bcd60e51b81526004016102639061358a565b600080610d4e86868080601f01602080910402602001604051908101604052809392919081815260200183838082843760009201919091525061120d92505050565b91509150610901878383610f43565b600060608060608085806020019051810190610d799190612b70565b939a9299509097509550909350915050565b610d99828585846000611be1565b50505050565b604051636eb1769f60e11b81526000906001600160a01b0385169063dd62ed3e90610dd09030908790600401613387565b60206040518083038186803b158015610de857600080fd5b505afa158015610dfc573d6000803e3d6000fd5b505050506040513d601f19601f82011682018060405250810190610e209190612c41565b905081811015610d99578015610e4557610e456001600160a01b038516846000611cc4565b610d996001600160a01b03851684600019611cc4565b6060610e656124a7565b50604080516080810182526001600160a01b03808a168252600060208301819052898216838501526060830152915163945bcec960e01b815290917f0000000000000000000000000000000000000000000000000000000000000000169063945bcec990610ee19089908990899087908a9042906004016134d3565b600060405180830381600087803b158015610efb57600080fd5b505af1158015610f0f573d6000803e3d6000fd5b505050506040513d6000823e601f3d908101601f19168201604052610f379190810190612b1e565b98975050505050505050565b610f57828483610f5286611dbe565b611e5d565b505050565b6040516370a0823160e01b81526000906001600160a01b038316906370a0823190610f8b903090600401613379565b60206040518083038186803b158015610fa357600080fd5b505afa158015610fb7573d6000803e3d6000fd5b505050506040513d601f19601f82011682018060405250810190610fdb9190612c41565b90508015610ff757610ff76001600160a01b0383168483611ec7565b92915050565b600080600060608061100d61247d565b8680602001905181019061102191906128cf565b949c939b5091995097509550909350915050565b60005b835181101561109a5761109284828151811061105057fe5b60200260200101517f000000000000000000000000000000000000000000000000000000000000000085848151811061108557fe5b6020026020010151610d9f565b600101611038565b50610b4884308784611ee6565b606081901c5b919050565b606081516001600160401b03811180156110cb57600080fd5b506040519080825280602002602001820160405280156110f5578160200160208202803683370190505b50905060005b825181101561120657600083828151811061111257fe5b60200260200101519050806001600160a01b03166370a08231306040518263ffffffff1660e01b81526004016111489190613379565b60206040518083038186803b15801561116057600080fd5b505afa158015611174573d6000803e3d6000fd5b505050506040513d601f19601f820116820180604052508101906111989190612c41565b8383815181106111a457fe5b60200260200101818152505060008383815181106111be57fe5b602002602001015111156111fd576111fd858484815181106111dc57fe5b6020026020010151836001600160a01b0316611ec79092919063ffffffff16565b506001016110fb565b5092915050565b60008082806020019051810190611224919061299b565b91509150915091565b611260611239856110a7565b7f000000000000000000000000000000000000000000000000000000000000000085610d9f565b815181515103606081156113a6578251516001600160401b038111801561128657600080fd5b506040519080825280602002602001820160405280156112b0578160200160208202803683370190505b5090508160005b81156113a3576112e7856000015182815181106112d057fe5b602002602001015187611f3890919063ffffffff16565b61139b5784518051829081106112f957fe5b60200260200101516001600160a01b03166370a082318a6040518263ffffffff1660e01b815260040161132c9190613379565b60206040518083038186803b15801561134457600080fd5b505afa158015611358573d6000803e3d6000fd5b505050506040513d601f19601f8201168201806040525081019061137c9190612c41565b83828151811061138857fe5b6020908102919091010152600019909101905b6001016112b7565b50505b6113b286308986611f8e565b81156109015760005b82156114c3576113eb846000015182815181106113d457fe5b602002602001015186611f3890919063ffffffff16565b6114bb578181815181106113fb57fe5b60200260200101518460000151828151811061141357fe5b60200260200101516001600160a01b03166370a082318a6040518263ffffffff1660e01b81526004016114469190613379565b60206040518083038186803b15801561145e57600080fd5b505afa158015611472573d6000803e3d6000fd5b505050506040513d601f19601f820116820180604052508101906114969190612c41565b146114b35760405162461bcd60e51b81526004016102639061354a565b600019909201915b6001016113bb565b5050505050505050565b600081806020019051810190610ff791906128b1565b6114ed8183611fe0565b5050565b600060608080808480604051908082528060200260200182016040528015611523578160200160208202803683370190505b5060408051600080825260208201818152828401918252606083019093529399929850965094509092509050565b6040805160018082528183019092526000916060918291829182916020808301908036833750506040805160018082528183019092529294509050602080830190803683370190505090506000806115a761247d565b6115e68a8a8080601f016020809104026020016040519081016040528093929190818152602001838380828437600092019190915250610ffd92505050565b896000815181106115f357fe5b6020908102919091010193909352909a50985090945090925090506116188284612062565b61162581606001516120a3565b818560008151811061163357fe5b60200260200101906001600160a01b031690816001600160a01b031681525050600297505050509295509295909350565b600060608060608061167687876120c4565b60019c939b50919950975095509350505050565b600060608060608060608060606116d68a8a8080601f016020809104026020016040519081016040528093929190818152602001838380828437600092019190915250610d5d92505050565b945094509450505060008060005b855181101561173f5760008582815181106116fb57fe5b6020026020010151131561171457600190920191611737565b600085828151811061172257fe5b60200260200101511215611737576001909101905b6001016116e4565b50816001600160401b038111801561175657600080fd5b50604051908082528060200260200182016040528015611780578160200160208202803683370190505b509850816001600160401b038111801561179957600080fd5b506040519080825280602002602001820160405280156117c3578160200160208202803683370190505b509750806001600160401b03811180156117dc57600080fd5b50604051908082528060200260200182016040528015611806578160200160208202803683370190505b509650806001600160401b038111801561181f57600080fd5b50604051908082528060200260200182016040528015611849578160200160208202803683370190505b50955060005b8551811015611a4457600085828151811061186657fe5b60200260200101519050600081131561195657600087838151811061188757fe5b60200260200101519050600086848151811061189f57fe5b6020026020010151905060006001600160a01b0316816001600160a01b031614611900576118cc81611dbe565b6001600160a01b0316826001600160a01b0316146118fc5760405162461bcd60e51b81526004016102639061355a565b8091505b858060019003965050818d878151811061191657fe5b60200260200101906001600160a01b031690816001600160a01b031681525050828c878151811061194357fe5b6020026020010181815250505050611a3b565b6000811215611a3b57600087838151811061196d57fe5b60200260200101519050600086848151811061198557fe5b6020026020010151905060006001600160a01b0316816001600160a01b0316146119e6576119b281611dbe565b6001600160a01b0316826001600160a01b0316146119e25760405162461bcd60e51b81526004016102639061355a565b8091505b848060019003955050818b86815181106119fc57fe5b60200260200101906001600160a01b031690816001600160a01b031681525050826000038a8681518110611a2c57fe5b60200260200101818152505050505b5060010161184f565b506002995050505050509295509295909350565b6000606080606080600080611aa289898080601f01602080910402602001604051908101604052809392919081815260200183838082843760009201919091525061120d92505050565b60408051600180825281830190925292945090925060208083019080368337505060408051600180825281830190925292985090506020808301908036833750506040805160018082528183019092529297509050602080830190803683375050604080516001808252818301909252929650905060208083019080368337019050509250611b3082611dbe565b86600081518110611b3d57fe5b60200260200101906001600160a01b031690816001600160a01b0316815250508085600081518110611b6b57fe5b6020026020010181815250508184600081518110611b8557fe5b60200260200101906001600160a01b031690816001600160a01b0316815250508083600081518110611bb357fe5b6020026020010181815250506002965050509295509295909350565b600060608060608061167687876121a6565b6001600160a01b038416301415611c5957604051631cf88a4360e21b81526001600160a01b038616906373e2290c90611c22908690869086906004016133f2565b600060405180830381600087803b158015611c3c57600080fd5b505af1158015611c50573d6000803e3d6000fd5b50505050610b48565b60405163167d7d5f60e11b81526001600160a01b03861690632cfafabe90611c8b9087908790879087906004016133a2565b600060405180830381600087803b158015611ca557600080fd5b505af1158015611cb9573d6000803e3d6000fd5b505050505050505050565b801580611d4c5750604051636eb1769f60e11b81526001600160a01b0384169063dd62ed3e90611cfa9030908690600401613387565b60206040518083038186803b158015611d1257600080fd5b505afa158015611d26573d6000803e3d6000fd5b505050506040513d601f19601f82011682018060405250810190611d4a9190612c41565b155b611d685760405162461bcd60e51b8152600401610263906135da565b610f578363095ea7b360e01b8484604051602401611d879291906133d7565b60408051601f198184030181529190526020810180516001600160e01b03166001600160e01b0319909316929092179091526122d3565b60405163456b4a3760e01b81526000906001600160a01b037f0000000000000000000000000000000000000000000000000000000000000000169063456b4a3790611e0d908590600401613379565b60206040518083038186803b158015611e2557600080fd5b505afa158015611e39573d6000803e3d6000fd5b505050506040513d601f19601f82011682018060405250810190610ff791906128b1565b611e68818584610d9f565b60405160016255295b60e01b031981526001600160a01b0385169063ffaad6a590611e9990869086906004016133d7565b600060405180830381600087803b158015611eb357600080fd5b505af11580156114c3573d6000803e3d6000fd5b610f578363a9059cbb60e01b8484604051602401611d879291906133d7565b60405163172b958560e31b81526001600160a01b037f0000000000000000000000000000000000000000000000000000000000000000169063b95cac2890611e9990879087908790879060040161341a565b6000805b8351811015611f8457838181518110611f5157fe5b60200260200101516001600160a01b0316836001600160a01b03161415611f7c576001915050610ff7565b600101611f3c565b5060009392505050565b604051638bdb391360e01b81526001600160a01b037f00000000000000000000000000000000000000000000000000000000000000001690638bdb391390611e9990879087908790879060040161341a565b604051631ac6d19d60e01b81526001600160a01b03831690631ac6d19d9061200c908490600401613379565b600060405180830381600087803b15801561202657600080fd5b505af115801561203a573d6000803e3d6000fd5b505050506040513d6000823e601f3d908101601f19168201604052610d999190810190612ac1565b61206b816110a7565b6001600160a01b031661207d83611dbe565b6001600160a01b0316146114ed5760405162461bcd60e51b81526004016102639061356a565b80156120c15760405162461bcd60e51b8152600401610263906135aa565b50565b60408051600180825281830190925260009160609182918291829160208083019080368337505060408051600180825281830190925292965090506020808301908036833701905050925060008061211a61247d565b6121598a8a8080601f016020809104026020016040519081016040528093929190818152602001838380828437600092019190915250610ffd92505050565b8b60008151811061216657fe5b60209081029190910101939093529098509650909450909250905061218b8284612062565b61219881606001516120a3565b818760008151811061163357fe5b60006060806060806000806121f089898080601f01602080910402602001604051908101604052809392919081815260200183838082843760009201919091525061120d92505050565b60408051600180825281830190925292945090925060208083019080368337505060408051600180825281830190925292985090506020808301908036833750506040805160018082528183019092529297509050602080830190803683375050604080516001808252818301909252929650905060208083019080368337019050509250818660008151811061228357fe5b60200260200101906001600160a01b031690816001600160a01b03168152505080856000815181106122b157fe5b6020026020010181815250506122c682611dbe565b84600081518110611b8557fe5b6060612328826040518060400160405280602081526020017f5361666545524332303a206c6f772d6c6576656c2063616c6c206661696c6564815250856001600160a01b03166123629092919063ffffffff16565b805190915015610f5757808060200190518101906123469190612b52565b610f575760405162461bcd60e51b8152600401610263906135ca565b6060612371848460008561237b565b90505b9392505050565b60608247101561239d5760405162461bcd60e51b81526004016102639061357a565b6123a68561243e565b6123c25760405162461bcd60e51b8152600401610263906135ba565b60006060866001600160a01b031685876040516123df919061336d565b60006040518083038185875af1925050503d806000811461241c576040519150601f19603f3d011682016040523d82523d6000602084013e612421565b606091505b5091509150612431828286612444565b925050505b949350505050565b3b151590565b60608315612453575081612374565b8251156124635782518084602001fd5b8160405162461bcd60e51b81526004016102639190613539565b60405180608001604052806060815260200160608152602001606081526020016000151581525090565b60408051608081018252600080825260208201819052918101829052606081019190915290565b8035610ff78161371a565b8051610ff78161371a565b600082601f8301126124f557600080fd5b815161250861250382613620565b6135fa565b9150818183526020840193506020810190508385602084028201111561252d57600080fd5b60005b83811015612559578161254388826124d9565b8452506020928301929190910190600101612530565b5050505092915050565b600082601f83011261257457600080fd5b815161258261250382613620565b915081818352602084019350602081019050838560208402820111156125a757600080fd5b60005b8381101561255957816125bd88826126ab565b84525060209283019291909101906001016125aa565b600082601f8301126125e457600080fd5b81516125f261250382613620565b81815260209384019390925082018360005b83811015612559578151860161261a8882612763565b8452506020928301929190910190600101612604565b600082601f83011261264157600080fd5b815161264f61250382613620565b9150818183526020840193506020810190508385602084028201111561267457600080fd5b60005b83811015612559578161268a88826126ab565b8452506020928301929190910190600101612677565b8051610ff78161372e565b8051610ff781613737565b8035610ff781613740565b60008083601f8401126126d357600080fd5b5081356001600160401b038111156126ea57600080fd5b60208301915083600182028301111561270257600080fd5b9250929050565b600082601f83011261271a57600080fd5b815161272861250382613640565b9150808252602083016020830185838301111561274457600080fd5b61274f8382846136d0565b50505092915050565b8051610ff781613749565b600060a0828403121561277557600080fd5b61277f60a06135fa565b9050600061278d84846126ab565b825250602061279e848483016126ab565b60208301525060406127b2848285016126ab565b60408301525060606127c6848285016126ab565b60608301525060808201516001600160401b038111156127e557600080fd5b6127f184828501612709565b60808301525092915050565b60006080828403121561280f57600080fd5b61281960806135fa565b82519091506001600160401b0381111561283257600080fd5b61283e848285016124e4565b82525060208201516001600160401b0381111561285a57600080fd5b61286684828501612630565b60208301525060408201516001600160401b0381111561288557600080fd5b61289184828501612709565b60408301525060606128a5848285016126a0565b60608301525092915050565b6000602082840312156128c357600080fd5b600061243684846124d9565b60008060008060008060c087890312156128e857600080fd5b60006128f489896124d9565b965050602061290589828a016126ab565b955050604061291689828a016126ab565b94505060608701516001600160401b0381111561293257600080fd5b61293e89828a016124e4565b93505060808701516001600160401b0381111561295a57600080fd5b61296689828a01612630565b92505060a08701516001600160401b0381111561298257600080fd5b61298e89828a016127fd565b9150509295509295509295565b600080604083850312156129ae57600080fd5b60006129ba85856124d9565b92505060206129cb858286016126ab565b9150509250929050565b600080600080606085870312156129eb57600080fd5b60006129f787876124ce565b9450506020612a08878288016126b6565b93505060408501356001600160401b03811115612a2457600080fd5b612a30878288016126c1565b95989497509550505050565b600080600080600060608688031215612a5457600080fd5b6000612a6088886124ce565b95505060208601356001600160401b03811115612a7c57600080fd5b612a88888289016126c1565b945094505060408601356001600160401b03811115612aa657600080fd5b612ab2888289016126c1565b92509250509295509295909350565b60008060408385031215612ad457600080fd5b82516001600160401b03811115612aea57600080fd5b612af6858286016124e4565b92505060208301516001600160401b03811115612b1257600080fd5b6129cb85828601612630565b600060208284031215612b3057600080fd5b81516001600160401b03811115612b4657600080fd5b61243684828501612563565b600060208284031215612b6457600080fd5b600061243684846126a0565b600080600080600060a08688031215612b8857600080fd5b6000612b948888612758565b95505060208601516001600160401b03811115612bb057600080fd5b612bbc888289016125d3565b94505060408601516001600160401b03811115612bd857600080fd5b612be4888289016124e4565b93505060608601516001600160401b03811115612c0057600080fd5b612c0c88828901612563565b92505060808601516001600160401b03811115612c2857600080fd5b612c34888289016124e4565b9150509295509295909350565b600060208284031215612c5357600080fd5b600061243684846126ab565b6000612c6b8383612c8b565b505060200190565b6000612c6b8383612ea2565b6000612374838361324c565b612c948161367a565b82525050565b6000612ca58261366d565b612caf8185613671565b9350612cba83613667565b8060005b83811015612ce8578151612cd28882612c5f565b9750612cdd83613667565b925050600101612cbe565b509495945050505050565b6000612cfe8261366d565b612d088185613671565b9350612d1383613667565b8060005b83811015612ce8578151612d2b8882612c5f565b9750612d3683613667565b925050600101612d17565b6000612d4c8261366d565b612d568185613671565b9350612d6183613667565b8060005b83811015612ce8578151612d798882612c73565b9750612d8483613667565b925050600101612d65565b6000612d9a8261366d565b612da48185613671565b935083602082028501612db685613667565b8060005b85811015612df05784840389528151612dd38582612c7f565b9450612dde83613667565b60209a909a0199925050600101612dba565b5091979650505050505050565b6000612e088261366d565b612e128185613671565b9350612e1d83613667565b8060005b83811015612ce8578151612e358882612c73565b9750612e4083613667565b925050600101612e21565b6000612e568261366d565b612e608185613671565b9350612e6b83613667565b8060005b83811015612ce8578151612e838882612c73565b9750612e8e83613667565b925050600101612e6f565b612c9481613685565b612c948161368a565b612c948161368d565b6000612ebf8261366d565b612ec98185613671565b9350612ed98185602086016136d0565b612ee2816136fc565b9093019392505050565b6000612ef78261366d565b612f0181856110ad565b9350612f118185602086016136d0565b9290920192915050565b612c94816136ba565b612c94816136c5565b6000612f3a602b83613671565b7f5f5f62616c616e63657252656465656d3a20556e65787065637465642061737381526a195d081c9958d95a5d995960aa1b602082015260400192915050565b6000612f87602783613671565b7f5f5f7061727365417373657473466f7254616b654f726465723a20425054206d8152660d2e6dac2e8c6d60cb1b602082015260400192915050565b6000612fd0602583613671565b7f5f5f76616c6964617465427074466f725374616b696e67546f6b656e3a20496e8152641d985b1a5960da1b602082015260400192915050565b6000613017602683613671565b7f416464726573733a20696e73756666696369656e742062616c616e636520666f8152651c8818d85b1b60d21b602082015260400192915050565b600061305f603283613671565b7f4f6e6c792074686520496e746567726174696f6e4d616e616765722063616e2081527131b0b636103a3434b990333ab731ba34b7b760711b602082015260400192915050565b60006130b3602083613671565b7f74616b654f726465723a206c6566746f76657220696e7465726d656469617279815260200192915050565b60006130ec602583613671565b7f5f5f76616c69646174654e6f496e7465726e616c42616c616e6365733a20496e8152641d985b1a5960da1b602082015260400192915050565b6000613133601d83613671565b7f416464726573733a2063616c6c20746f206e6f6e2d636f6e7472616374000000815260200192915050565b600061316c602a83613671565b7f5361666545524332303a204552433230206f7065726174696f6e20646964206e8152691bdd081cdd58d8d9595960b21b602082015260400192915050565b60006131b8603683613671565b7f5361666545524332303a20617070726f76652066726f6d206e6f6e2d7a65726f81527520746f206e6f6e2d7a65726f20616c6c6f77616e636560501b602082015260400192915050565b6000613210602783613671565b7f7061727365417373657473466f72416374696f6e3a205f73656c6563746f72208152661a5b9d985b1a5960ca1b602082015260400192915050565b805160009060a08401906132608582612ea2565b5060208301516132736020860182612ea2565b5060408301516132866040860182612ea2565b5060608301516132996060860182612ea2565b50608083015184820360808601526132b18282612eb4565b95945050505050565b805160808301906132cb8482612c8b565b5060208201516132de6020850182612e99565b5060408201516132f16040850182612c8b565b506060820151610d996060850182612e99565b805160808084526000919084019061331c8282612c9a565b915050602083015184820360208601526133368282612dfd565b915050604083015184820360408601526133508282612eb4565b91505060608301516133656060860182612e99565b509392505050565b60006123748284612eec565b60208101610ff78284612c8b565b604081016133958285612c8b565b6123746020830184612c8b565b608081016133b08287612c8b565b6133bd6020830186612c8b565b6133ca6040830185612ea2565b6132b16060830184612e99565b604081016133e58285612c8b565b6123746020830184612ea2565b606081016134008286612c8b565b61340d6020830185612ea2565b6124366040830184612e99565b608081016134288287612ea2565b6134356020830186612c8b565b6134426040830185612c8b565b81810360608301526134548184613304565b9695505050505050565b60208101610ff78284612eab565b60a0810161347a8288612f1b565b818103602083015261348c8187612cf3565b905081810360408301526134a08186612e4b565b905081810360608301526134b48185612cf3565b905081810360808301526134c88184612e4b565b979650505050505050565b61012081016134e28289612f24565b81810360208301526134f48188612d8f565b905081810360408301526135088187612cf3565b905061351760608301866132ba565b81810360e08301526135298185612d41565b90506134c8610100830184612ea2565b602080825281016123748184612eb4565b60208082528101610ff781612f2d565b60208082528101610ff781612f7a565b60208082528101610ff781612fc3565b60208082528101610ff78161300a565b60208082528101610ff781613052565b60208082528101610ff7816130a6565b60208082528101610ff7816130df565b60208082528101610ff781613126565b60208082528101610ff78161315f565b60208082528101610ff7816131ab565b60208082528101610ff781613203565b6040518181016001600160401b038111828210171561361857600080fd5b604052919050565b60006001600160401b0382111561363657600080fd5b5060209081020190565b60006001600160401b0382111561365657600080fd5b506020601f91909101601f19160190565b60200190565b5190565b90815260200190565b6000610ff7826136ae565b151590565b90565b6001600160e01b03191690565b806110ad81613706565b806110ad81613710565b6001600160a01b031690565b6000610ff78261369a565b6000610ff7826136a4565b60005b838110156136eb5781810151838201526020016136d3565b83811115610d995750506000910152565b601f01601f191690565b600381106120c157fe5b600281106120c157fe5b6137238161367a565b81146120c157600080fd5b61372381613685565b6137238161368a565b6137238161368d565b600281106120c157600080fdfea26469706673582212204fe412b162d3f457fb5092b9e9b551e7efbd4721adf96a8eb031226718fa5fad64736f6c634300060c0033",
  "linkReferences": {},
  "deployedLinkReferences": {}
}