{
  "_format": "hh-sol-artifact-1",
  "contractName": "BalancerV2StablePoolPriceFeed",
  "sourceName": "contracts/release/infrastructure/price-feeds/derivatives/feeds/BalancerV2StablePoolPriceFeed.sol",
  "abi": [
    {
      "inputs": [
        {
          "internalType": "address",
          "name": "_fundDeployer",
          "type": "address"
        },
        {
          "internalType": "address",
          "name": "_wrappedNativeAsset",
          "type": "address"
        },
        {
          "internalType": "address",
          "name": "_balancerVault",
          "type": "address"
        },
        {
          "internalType": "address[]",
          "name": "_poolFactories",
          "type": "address[]"
        }
      ],
      "stateMutability": "nonpayable",
      "type": "constructor"
    },
    {
      "anonymous": false,
      "inputs": [
        {
          "indexed": true,
          "internalType": "address",
          "name": "pool",
          "type": "address"
        },
        {
          "indexed": true,
          "internalType": "address",
          "name": "invariantProxyAsset",
          "type": "address"
        }
      ],
      "name": "PoolAdded",
      "type": "event"
    },
    {
      "anonymous": false,
      "inputs": [
        {
          "indexed": true,
          "internalType": "address",
          "name": "poolFactory",
          "type": "address"
        }
      ],
      "name": "PoolFactoryAdded",
      "type": "event"
    },
    {
      "anonymous": false,
      "inputs": [
        {
          "indexed": true,
          "internalType": "address",
          "name": "poolFactory",
          "type": "address"
        }
      ],
      "name": "PoolFactoryRemoved",
      "type": "event"
    },
    {
      "anonymous": false,
      "inputs": [
        {
          "indexed": true,
          "internalType": "address",
          "name": "pool",
          "type": "address"
        }
      ],
      "name": "PoolRemoved",
      "type": "event"
    },
    {
      "inputs": [
        {
          "internalType": "address[]",
          "name": "_poolFactories",
          "type": "address[]"
        }
      ],
      "name": "addPoolFactories",
      "outputs": [],
      "stateMutability": "nonpayable",
      "type": "function"
    },
    {
      "inputs": [
        {
          "internalType": "address[]",
          "name": "_pools",
          "type": "address[]"
        },
        {
          "internalType": "address[]",
          "name": "_invariantProxyAssets",
          "type": "address[]"
        }
      ],
      "name": "addPools",
      "outputs": [],
      "stateMutability": "nonpayable",
      "type": "function"
    },
    {
      "inputs": [
        {
          "internalType": "address",
          "name": "_derivative",
          "type": "address"
        },
        {
          "internalType": "uint256",
          "name": "_derivativeAmount",
          "type": "uint256"
        }
      ],
      "name": "calcUnderlyingValues",
      "outputs": [
        {
          "internalType": "address[]",
          "name": "underlyings_",
          "type": "address[]"
        },
        {
          "internalType": "uint256[]",
          "name": "underlyingAmounts_",
          "type": "uint256[]"
        }
      ],
      "stateMutability": "nonpayable",
      "type": "function"
    },
    {
      "inputs": [],
      "name": "getFundDeployer",
      "outputs": [
        {
          "internalType": "address",
          "name": "fundDeployer_",
          "type": "address"
        }
      ],
      "stateMutability": "view",
      "type": "function"
    },
    {
      "inputs": [],
      "name": "getOwner",
      "outputs": [
        {
          "internalType": "address",
          "name": "owner_",
          "type": "address"
        }
      ],
      "stateMutability": "view",
      "type": "function"
    },
    {
      "inputs": [],
      "name": "getPoolFactories",
      "outputs": [
        {
          "internalType": "address[]",
          "name": "factories_",
          "type": "address[]"
        }
      ],
      "stateMutability": "view",
      "type": "function"
    },
    {
      "inputs": [
        {
          "internalType": "address",
          "name": "_pool",
          "type": "address"
        }
      ],
      "name": "getPoolInfo",
      "outputs": [
        {
          "components": [
            {
              "internalType": "address",
              "name": "invariantProxyAsset",
              "type": "address"
            },
            {
              "internalType": "uint8",
              "name": "invariantProxyAssetDecimals",
              "type": "uint8"
            },
            {
              "internalType": "bool",
              "name": "containsNativeAsset",
              "type": "bool"
            }
          ],
          "internalType": "struct BalancerV2StablePoolPriceFeed.PoolInfo",
          "name": "poolInfo_",
          "type": "tuple"
        }
      ],
      "stateMutability": "view",
      "type": "function"
    },
    {
      "inputs": [
        {
          "internalType": "address",
          "name": "_asset",
          "type": "address"
        }
      ],
      "name": "isSupportedAsset",
      "outputs": [
        {
          "internalType": "bool",
          "name": "isSupported_",
          "type": "bool"
        }
      ],
      "stateMutability": "view",
      "type": "function"
    },
    {
      "inputs": [
        {
          "internalType": "address[]",
          "name": "_poolFactories",
          "type": "address[]"
        }
      ],
      "name": "removePoolFactories",
      "outputs": [],
      "stateMutability": "nonpayable",
      "type": "function"
    },
    {
      "inputs": [
        {
          "internalType": "address[]",
          "name": "_pools",
          "type": "address[]"
        }
      ],
      "name": "removePools",
      "outputs": [],
      "stateMutability": "nonpayable",
      "type": "function"
    }
  ],
  "bytecode": "0x60e06040523480156200001157600080fd5b5060405162001b2338038062001b23833981016040819052620000349162000245565b6001600160601b0319606085811b821660805283811b821660a05284901b1660c05262000061816200006b565b505050506200033b565b60005b81518110156200014c57620000a78282815181106200008957fe5b602002602001015160006200015060201b62000b9e1790919060201c565b62000143576000828281518110620000bb57fe5b60209081029190910181015182546001810184556000938452919092200180546001600160a01b0319166001600160a01b0390921691909117905581518290829081106200010557fe5b60200260200101516001600160a01b03167fed48b5354ebc9ec871d70260374c2cdc552ec57a6b36e1dbc1fbdbe0921c136f60405160405180910390a25b6001016200006e565b5050565b8154600090815b81811015620001a2578481815481106200016d57fe5b6000918252602090912001546001600160a01b03858116911614156200019957600192505050620001a9565b60010162000157565b5060009150505b92915050565b8051620001a98162000321565b600082601f830112620001ce57600080fd5b8151620001e5620001df82620002ee565b620002c7565b915081818352602084019350602081019050838560208402820111156200020b57600080fd5b60005b838110156200023b5781620002248882620001af565b84525060209283019291909101906001016200020e565b5050505092915050565b600080600080608085870312156200025c57600080fd5b60006200026a8787620001af565b94505060206200027d87828801620001af565b93505060406200029087828801620001af565b92505060608501516001600160401b03811115620002ad57600080fd5b620002bb87828801620001bc565b91505092959194509250565b6040518181016001600160401b0381118282101715620002e657600080fd5b604052919050565b60006001600160401b038211156200030557600080fd5b5060209081020190565b60006001600160a01b038216620001a9565b6200032c816200030f565b81146200033857600080fd5b50565b60805160601c60a05160601c60c05160601c6117a86200037b6000398061098452508061041f52806107795250806105cc528061066252506117a86000f3fe608060405234801561001057600080fd5b506004361061009e5760003560e01c8063893d20e811610066578063893d20e81461012a57806397c0ac871461013f5780639be918e614610147578063c10e7d1514610167578063ec421ea01461017a5761009e565b806306bfa938146100a357806327082f73146100cc5780634b164140146100e15780634c8f6529146100f6578063727212f614610109575b600080fd5b6100b66100b13660046110e4565b61018d565b6040516100c391906116a1565b60405180910390f35b6100d46101e9565b6040516100c391906115ef565b6100f46100ef366004611162565b61024b565b005b6100f4610104366004611162565b610370565b61011c610117366004611128565b6103e8565b6040516100c3929190611600565b6101326105c8565b6040516100c391906115b9565b610132610660565b61015a6101553660046110e4565b610684565b6040516100c39190611625565b6100f46101753660046111a4565b6106a2565b6100f4610188366004611162565b610acb565b610195610f51565b506001600160a01b0380821660009081526001602090815260409182902082516060810184529054938416815260ff600160a01b8504811692820192909252600160a81b909304161515908201525b919050565b6060600080548060200260200160405190810160405280929190818152602001828054801561024157602002820191906000526020600020905b81546001600160a01b03168152600190910190602001808311610223575b5050505050905090565b6102536105c8565b6001600160a01b0316336001600160a01b03161461028c5760405162461bcd60e51b815260040161028390611651565b60405180910390fd5b60005b8181101561036b576102bb8383838181106102a657fe5b905060200201602081019061015591906110e4565b1561036357600160008484848181106102d057fe5b90506020020160208101906102e591906110e4565b6001600160a01b03168152602081019190915260400160002080546001600160b01b031916905582828281811061031857fe5b905060200201602081019061032d91906110e4565b6001600160a01b03167f4106dfdaa577573db51c0ca93f766dbedfa0758faa2e7f5bcdb7c142be803c3f60405160405180910390a25b60010161028f565b505050565b6103786105c8565b6001600160a01b0316336001600160a01b0316146103a85760405162461bcd60e51b815260040161028390611651565b6103e4828280806020026020016040519081016040528093929190818152602001838360200280828437600092019190915250610bf892505050565b5050565b6060806103f3610f51565b6103fc8561018d565b905080604001511561048c5760405163fa6e671d60e01b81526001600160a01b037f0000000000000000000000000000000000000000000000000000000000000000169063fa6e671d9061045990309060009081906004016115c7565b600060405180830381600087803b15801561047357600080fd5b505af1158015610487573d6000803e3d6000fd5b505050505b604080516001808252818301909252906020808301908036833750506040805160018082528183019092529295509050602080830190803683370190505091508060000151836000815181106104de57fe5b60200260200101906001600160a01b031690816001600160a01b0316815250506105a66ec097ce7bc90715b34b9f10000000006105a0836020015160ff16600a0a61059a896001600160a01b031663679aefce6040518163ffffffff1660e01b815260040160206040518083038186803b15801561055b57600080fd5b505afa15801561056f573d6000803e3d6000fd5b505050506040513d601f19601f8201168201806040525081019061059391906112ae565b8990610ccc565b90610ccc565b90610d0d565b826000815181106105b357fe5b602002602001018181525050505b9250929050565b60007f00000000000000000000000000000000000000000000000000000000000000006001600160a01b031663893d20e86040518163ffffffff1660e01b815260040160206040518083038186803b15801561062357600080fd5b505afa158015610637573d6000803e3d6000fd5b505050506040513d601f19601f8201168201806040525081019061065b919061110a565b905090565b7f000000000000000000000000000000000000000000000000000000000000000090565b6000806106908361018d565b516001600160a01b0316141592915050565b6106aa6105c8565b6001600160a01b0316336001600160a01b0316146106da5760405162461bcd60e51b815260040161028390611651565b8281146106f95760405162461bcd60e51b815260040161028390611661565b60005b83811015610ac4576107138585838181106102a657fe5b156107305760405162461bcd60e51b815260040161028390611691565b61075985858381811061073f57fe5b905060200201602081019061075491906110e4565b610d3f565b6107755760405162461bcd60e51b815260040161028390611641565b60607f00000000000000000000000000000000000000000000000000000000000000006001600160a01b031663f94d46688787858181106107b257fe5b90506020020160208101906107c791906110e4565b6001600160a01b03166338fff2d06040518163ffffffff1660e01b815260040160206040518083038186803b1580156107ff57600080fd5b505afa158015610813573d6000803e3d6000fd5b505050506040513d601f19601f8201168201806040525081019061083791906112ae565b6040518263ffffffff1660e01b81526004016108539190611633565b60006040518083038186803b15801561086b57600080fd5b505afa15801561087f573d6000803e3d6000fd5b505050506040513d6000823e601f3d908101601f191682016040526108a79190810190611214565b5050905060405180606001604052808585858181106108c257fe5b90506020020160208101906108d791906110e4565b6001600160a01b031681526020018585858181106108f157fe5b905060200201602081019061090691906110e4565b6001600160a01b031663313ce5676040518163ffffffff1660e01b815260040160206040518083038186803b15801561093e57600080fd5b505afa158015610952573d6000803e3d6000fd5b505050506040513d601f19601f8201168201806040525081019061097691906112cc565b60ff1681526020016109a8837f0000000000000000000000000000000000000000000000000000000000000000610e03565b15159052600160008888868181106109bc57fe5b90506020020160208101906109d191906110e4565b6001600160a01b0390811682526020808301939093526040918201600020845181549486015195909301511515600160a81b0260ff60a81b1960ff909616600160a01b0260ff60a01b19949093166001600160a01b031990951694909417929092161792909216179055838383818110610a4757fe5b9050602002016020810190610a5c91906110e4565b6001600160a01b0316868684818110610a7157fe5b9050602002016020810190610a8691906110e4565b6001600160a01b03167f95f865c2808f8b2a85eea2611db7843150ee7835ef1403f9755918a97d76933c60405160405180910390a3506001016106fc565b5050505050565b610ad36105c8565b6001600160a01b0316336001600160a01b031614610b035760405162461bcd60e51b815260040161028390611651565b60005b8181101561036b57610b3a838383818110610b1d57fe5b9050602002016020810190610b3291906110e4565b600090610e59565b15610b9657828282818110610b4b57fe5b9050602002016020810190610b6091906110e4565b6001600160a01b03167faf425cea5645b25ac2f49fdb1a46bf13689e763057f4e556078fea1cc2ecfb9b60405160405180910390a25b600101610b06565b8154600090815b81811015610beb57848181548110610bb957fe5b6000918252602090912001546001600160a01b0385811691161415610be357600192505050610bf2565b600101610ba5565b5060009150505b92915050565b60005b81518110156103e457610c2b828281518110610c1357fe5b60200260200101516000610b9e90919063ffffffff16565b610cc4576000828281518110610c3d57fe5b60209081029190910181015182546001810184556000938452919092200180546001600160a01b0319166001600160a01b039092169190911790558151829082908110610c8657fe5b60200260200101516001600160a01b03167fed48b5354ebc9ec871d70260374c2cdc552ec57a6b36e1dbc1fbdbe0921c136f60405160405180910390a25b600101610bfb565b600082610cdb57506000610bf2565b82820282848281610ce857fe5b0414610d065760405162461bcd60e51b815260040161028390611681565b9392505050565b6000808211610d2e5760405162461bcd60e51b815260040161028390611671565b818381610d3757fe5b049392505050565b6000805b600054811015610dfa5760008181548110610d5a57fe5b600091825260209091200154604051636634b75360e01b81526001600160a01b0390911690636634b75390610d939086906004016115b9565b60206040518083038186803b158015610dab57600080fd5b505afa158015610dbf573d6000803e3d6000fd5b505050506040513d601f19601f82011682018060405250810190610de39190611290565b15610df25760019150506101e4565b600101610d43565b50600092915050565b6000805b8351811015610e4f57838181518110610e1c57fe5b60200260200101516001600160a01b0316836001600160a01b03161415610e47576001915050610bf2565b600101610e07565b5060009392505050565b8154600090815b81811015610f4957836001600160a01b0316858281548110610e7e57fe5b6000918252602090912001546001600160a01b03161415610f415760018203811015610f0c57846001830381548110610eb357fe5b9060005260206000200160009054906101000a90046001600160a01b0316858281548110610edd57fe5b9060005260206000200160006101000a8154816001600160a01b0302191690836001600160a01b031602179055505b84805480610f1657fe5b600082815260209020810160001990810180546001600160a01b031916905501905560019250610f49565b600101610e60565b505092915050565b604080516060810182526000808252602082018190529181019190915290565b8035610bf281611740565b8051610bf281611740565b60008083601f840112610f9957600080fd5b50813567ffffffffffffffff811115610fb157600080fd5b6020830191508360208202830111156105c157600080fd5b600082601f830112610fda57600080fd5b8151610fed610fe8826116d6565b6116af565b9150818183526020840193506020810190508385602084028201111561101257600080fd5b60005b8381101561103e57816110288882610f7c565b8452506020928301929190910190600101611015565b5050505092915050565b600082601f83011261105957600080fd5b8151611067610fe8826116d6565b9150818183526020840193506020810190508385602084028201111561108c57600080fd5b60005b8381101561103e57816110a288826110c3565b845250602092830192919091019060010161108f565b8051610bf281611757565b8051610bf281611760565b8035610bf281611760565b8051610bf281611769565b6000602082840312156110f657600080fd5b60006111028484610f71565b949350505050565b60006020828403121561111c57600080fd5b60006111028484610f7c565b6000806040838503121561113b57600080fd5b60006111478585610f71565b9250506020611158858286016110ce565b9150509250929050565b6000806020838503121561117557600080fd5b823567ffffffffffffffff81111561118c57600080fd5b61119885828601610f87565b92509250509250929050565b600080600080604085870312156111ba57600080fd5b843567ffffffffffffffff8111156111d157600080fd5b6111dd87828801610f87565b9450945050602085013567ffffffffffffffff8111156111fc57600080fd5b61120887828801610f87565b95989497509550505050565b60008060006060848603121561122957600080fd5b835167ffffffffffffffff81111561124057600080fd5b61124c86828701610fc9565b935050602084015167ffffffffffffffff81111561126957600080fd5b61127586828701611048565b9250506040611286868287016110c3565b9150509250925092565b6000602082840312156112a257600080fd5b600061110284846110b8565b6000602082840312156112c057600080fd5b600061110284846110c3565b6000602082840312156112de57600080fd5b600061110284846110d9565b60006112f68383611319565b505060200190565b60006112f683836113d2565b6113138161172f565b82525050565b6113138161170a565b600061132d826116fd565b6113378185611701565b9350611342836116f7565b8060005b8381101561137057815161135a88826112ea565b9750611365836116f7565b925050600101611346565b509495945050505050565b6000611386826116fd565b6113908185611701565b935061139b836116f7565b8060005b838110156113705781516113b388826112fe565b97506113be836116f7565b92505060010161139f565b61131381611715565b6113138161171a565b60006113e8601983611701565b7f616464506f6f6c733a20496e76616c696420666163746f727900000000000000815260200192915050565b6000611421604983611701565b7f6f6e6c7946756e644465706c6f7965724f776e65723a204f6e6c79207468652081527f46756e644465706c6f796572206f776e65722063616e2063616c6c207468697360208201526810333ab731ba34b7b760b91b604082015260600192915050565b6000611492601883611701565b7f616464506f6f6c733a20556e657175616c206172726179730000000000000000815260200192915050565b60006114cb601a83611701565b7f536166654d6174683a206469766973696f6e206279207a65726f000000000000815260200192915050565b6000611504602183611701565b7f536166654d6174683a206d756c7469706c69636174696f6e206f766572666c6f8152607760f81b602082015260400192915050565b6000611547601c83611701565b7f616464506f6f6c733a20416c7265616479207265676973746572656400000000815260200192915050565b805160608301906115848482611319565b50602082015161159760208501826115b0565b5060408201516115aa60408501826113c9565b50505050565b61131381611729565b60208101610bf28284611319565b606081016115d58286611319565b6115e2602083018561130a565b61110260408301846113c9565b60208082528101610d068184611322565b604080825281016116118185611322565b90508181036020830152611102818461137b565b60208101610bf282846113c9565b60208101610bf282846113d2565b60208082528101610bf2816113db565b60208082528101610bf281611414565b60208082528101610bf281611485565b60208082528101610bf2816114be565b60208082528101610bf2816114f7565b60208082528101610bf28161153a565b60608101610bf28284611573565b60405181810167ffffffffffffffff811182821017156116ce57600080fd5b604052919050565b600067ffffffffffffffff8211156116ed57600080fd5b5060209081020190565b60200190565b5190565b90815260200190565b6000610bf28261171d565b151590565b90565b6001600160a01b031690565b60ff1690565b6000610bf2826000610bf28261170a565b6117498161170a565b811461175457600080fd5b50565b61174981611715565b6117498161171a565b6117498161172956fea2646970667358221220c68c7150b8e2bda454da289fce57b24a505e743ae06ff4636f17159e8a0febe664736f6c634300060c0033",
  "linkReferences": {},
  "deployedLinkReferences": {}
}