{
  "abi": [
    {
      "inputs": [
        {
          "internalType": "address",
          "name": "_derivative",
          "type": "address"
        },
        {
          "internalType": "uint256",
          "name": "_derivativeAmount",
          "type": "uint256"
        }
      ],
      "name": "calcUnderlyingValues",
      "outputs": [
        {
          "internalType": "address[]",
          "name": "underlyings_",
          "type": "address[]"
        },
        {
          "internalType": "uint256[]",
          "name": "underlyingAmounts_",
          "type": "uint256[]"
        }
      ],
      "stateMutability": "nonpayable",
      "type": "function"
    },
    {
      "inputs": [
        {
          "internalType": "address",
          "name": "_asset",
          "type": "address"
        }
      ],
      "name": "isSupportedAsset",
      "outputs": [
        {
          "internalType": "bool",
          "name": "isSupported_",
          "type": "bool"
        }
      ],
      "stateMutability": "view",
      "type": "function"
    }
  ],
  "bytecode": {
    "object": "0x608060405234801561001057600080fd5b506102b7806100206000396000f3fe608060405234801561001057600080fd5b50600436106100365760003560e01c8063727212f61461003b5780639be918e614610100575b600080fd5b6100676004803603604081101561005157600080fd5b506001600160a01b03813516906020013561013a565b604051808060200180602001838103835285818151815260200191508051906020019060200280838360005b838110156100ab578181015183820152602001610093565b50505050905001838103825284818151815260200191508051906020019060200280838360005b838110156100ea5781810151838201526020016100d2565b5050505090500194505050505060405180910390f35b6101266004803603602081101561011657600080fd5b50356001600160a01b0316610228565b604080519115158252519081900360200190f35b60408051600180825281830190925260609182919060208083019080368337019050509150836001600160a01b03166382c630666040518163ffffffff1660e01b815260040160206040518083038186803b15801561019857600080fd5b505afa1580156101ac573d6000803e3d6000fd5b505050506040513d60208110156101c257600080fd5b5051825183906000906101d157fe5b6001600160a01b0392909216602092830291909101820152604080516001808252818301909252918281019080368337019050509050828160008151811061021557fe5b6020026020010181815250509250929050565b6000806001600160a01b0316826001600160a01b03166382c630666040518163ffffffff1660e01b815260040160206040518083038186803b15801561026d57600080fd5b505afa158015610281573d6000803e3d6000fd5b505050506040513d602081101561029757600080fd5b50516001600160a01b031614159291505056fea164736f6c634300060c000a",
    "linkReferences": {}
  },
  "methodIdentifiers": {
    "calcUnderlyingValues(address,uint256)": "727212f6",
    "isSupportedAsset(address)": "9be918e6"
  },
  "id": 237
}