{
  "abi": [
    {
      "inputs": [
        {
          "internalType": "address",
          "name": "_addressListRegistry",
          "type": "address"
        },
        {
          "internalType": "string",
          "name": "_listDescription",
          "type": "string"
        },
        {
          "internalType": "address",
          "name": "_compoundV3Configurator",
          "type": "address"
        }
      ],
      "stateMutability": "nonpayable",
      "type": "constructor"
    },
    {
      "inputs": [
        {
          "internalType": "address[]",
          "name": "_items",
          "type": "address[]"
        }
      ],
      "name": "addValidatedItemsToList",
      "outputs": [],
      "stateMutability": "nonpayable",
      "type": "function"
    }
  ],
  "bytecode": {
    "object": "0x60e06040523480156200001157600080fd5b5060405162000efe38038062000efe83398101604081905262000034916200028f565b6001600160601b0319606084901b16608052828260006001600160a01b03831663be68406e3060018460405190808252806020026020018201604052801562000087578160200160208202803683370190505b506040518463ffffffff1660e01b8152600401620000a893929190620004fd565b602060405180830381600087803b158015620000c357600080fd5b505af1158015620000d8573d6000803e3d6000fd5b505050506040513d601f19601f82011682018060405250810190620000fe9190620002fb565b60a0819052604080516001808252818301909252919250606091906020808301908036833750506040805160018082528183019092529293506060929150602082015b60608152602001906001900390816200014157905050905082826000815181106200016857fe5b60200260200101818152505083816000815181106200018357fe5b6020908102919091010152604051635a137ca360e11b81526001600160a01b0386169063b426f94690620001be908590859060040162000539565b600060405180830381600087803b158015620001d957600080fd5b505af1158015620001ee573d6000803e3d6000fd5b505050505060609490941b6001600160601b03191660c052506200066b945050505050565b8051620002208162000649565b92915050565b600082601f8301126200023857600080fd5b81516200024f620002498262000589565b62000562565b915080825260208301602083018583830111156200026c57600080fd5b62000279838284620005fe565b50505092915050565b8051620002208162000660565b600080600060608486031215620002a557600080fd5b6000620002b3868662000213565b93505060208401516001600160401b03811115620002d057600080fd5b620002de8682870162000226565b9250506040620002f18682870162000213565b9150509250925092565b6000602082840312156200030e57600080fd5b60006200031c848462000282565b949350505050565b60006200033283836200035d565b505060200190565b6000620003488383620004b2565b9392505050565b6000620003328383620004f2565b6200036881620005c4565b82525050565b60006200037b82620005b7565b620003878185620005bb565b93506200039483620005b1565b8060005b83811015620003c8578151620003af888262000324565b9750620003bc83620005b1565b92505060010162000398565b509495945050505050565b6000620003e082620005b7565b620003ec8185620005bb565b9350836020820285016200040085620005b1565b8060005b858110156200044057848403895281516200042085826200033a565b94506200042d83620005b1565b60209a909a019992505060010162000404565b5091979650505050505050565b60006200045a82620005b7565b620004668185620005bb565b93506200047383620005b1565b8060005b83811015620003c85781516200048e88826200034f565b97506200049b83620005b1565b92505060010162000477565b6200036881620005f1565b6000620004bf82620005b7565b620004cb8185620005bb565b9350620004dd818560208601620005fe565b620004e88162000631565b9093019392505050565b6200036881620005ee565b606081016200050d82866200035d565b6200051c6020830185620004a7565b81810360408301526200053081846200036e565b95945050505050565b604080825281016200054c81856200044d565b905081810360208301526200031c8184620003d3565b6040518181016001600160401b03811182821017156200058157600080fd5b604052919050565b60006001600160401b03821115620005a057600080fd5b506020601f91909101601f19160190565b60200190565b5190565b90815260200190565b60006200022082620005e2565b80620005dd816200063b565b919050565b6001600160a01b031690565b90565b60006200022082620005d1565b60005b838110156200061b57818101518382015260200162000601565b838111156200062b576000848401525b50505050565b601f01601f191690565b600481106200064657fe5b50565b6200065481620005c4565b81146200064657600080fd5b6200065481620005ee565b60805160601c60a05160c05160601c6108626200069c600039806101045250806093525080606652506108626000f3fe608060405234801561001057600080fd5b506004361061002b5760003560e01c8063a8f0bc4114610030575b600080fd5b61004361003e3660046105dd565b610045565b005b61004f82826100f5565b6040516346d1eb9b60e11b81526001600160a01b037f00000000000000000000000000000000000000000000000000000000000000001690638da3d736906100bf907f0000000000000000000000000000000000000000000000000000000000000000908690869060040161072f565b600060405180830381600087803b1580156100d957600080fd5b505af11580156100ed573d6000803e3d6000fd5b505050505050565b60005b818110156101fe5760007f00000000000000000000000000000000000000000000000000000000000000006001600160a01b031663c44b11f785858581811061013d57fe5b905060200201602081019061015291906105b7565b6040518263ffffffff1660e01b815260040161016e9190610711565b60006040518083038186803b15801561018657600080fd5b505afa15801561019a573d6000803e3d6000fd5b505050506040513d6000823e601f3d908101601f191682016040526101c2919081019061061f565b604001516001600160a01b031614156101f65760405162461bcd60e51b81526004016101ed9061071f565b60405180910390fd5b6001016100f8565b505050565b803561020e8161081a565b92915050565b805161020e8161081a565b60008083601f84011261023157600080fd5b50813567ffffffffffffffff81111561024957600080fd5b60208301915083602082028301111561026157600080fd5b9250929050565b600082601f83011261027957600080fd5b815161028c61028782610780565b610759565b915081818352602084019350602081019050838560e08402820111156102b157600080fd5b60005b838110156102df57816102c788826102e9565b84525060209092019160e091909101906001016102b4565b5050505092915050565b600060e082840312156102fb57600080fd5b61030560e0610759565b905060006103138484610214565b825250602061032484848301610214565b6020830152506040610338848285016105ac565b604083015250606061034c848285016105a1565b6060830152506080610360848285016105a1565b60808301525060a0610374848285016105a1565b60a08301525060c061038884828501610596565b60c08301525092915050565b60006102a082840312156103a757600080fd5b6103b26102a0610759565b905060006103c08484610214565b82525060206103d184848301610214565b60208301525060406103e584828501610214565b60408301525060606103f984828501610214565b606083015250608061040d84828501610214565b60808301525060a0610421848285016105a1565b60a08301525060c0610435848285016105a1565b60c08301525060e0610449848285016105a1565b60e08301525061010061045e848285016105a1565b61010083015250610120610474848285016105a1565b6101208301525061014061048a848285016105a1565b610140830152506101606104a0848285016105a1565b610160830152506101806104b6848285016105a1565b610180830152506101a06104cc848285016105a1565b6101a0830152506101c06104e2848285016105a1565b6101c0830152506101e06104f8848285016105a1565b6101e08301525061020061050e848285016105a1565b610200830152506102206105248482850161058b565b6102208301525061024061053a8482850161058b565b610240830152506102606105508482850161058b565b6102608301525061028082015167ffffffffffffffff81111561057257600080fd5b61057e84828501610268565b6102808301525092915050565b805161020e81610831565b805161020e8161083a565b805161020e81610843565b805161020e8161084c565b6000602082840312156105c957600080fd5b60006105d58484610203565b949350505050565b600080602083850312156105f057600080fd5b823567ffffffffffffffff81111561060757600080fd5b6106138582860161021f565b92509250509250929050565b60006020828403121561063157600080fd5b815167ffffffffffffffff81111561064857600080fd5b6105d584828501610394565b60006106608383610668565b505060200190565b610671816107c9565b82525050565b600061068383856107aa565b935061068e826107a1565b8060005b858110156106c4576106a482846107b3565b6106ae8882610654565b97506106b9836107a4565b925050600101610692565b509495945050505050565b60006106dc601f836107aa565b7f5f5f76616c69646174654974656d733a20496e76616c69642063546f6b656e00815260200192915050565b610671816107a1565b6020810161020e8284610668565b6020808252810161020e816106cf565b6040810161073d8286610708565b8181036020830152610750818486610677565b95945050505050565b60405181810167ffffffffffffffff8111828210171561077857600080fd5b604052919050565b600067ffffffffffffffff82111561079757600080fd5b5060209081020190565b90565b60200190565b90815260200190565b60006107c26020840184610203565b9392505050565b600061020e826107fb565b6cffffffffffffffffffffffffff1690565b6fffffffffffffffffffffffffffffffff1690565b6001600160a01b031690565b67ffffffffffffffff1690565b60ff1690565b610823816107c9565b811461082e57600080fd5b50565b610823816107d4565b610823816107e6565b61082381610807565b6108238161081456fea164736f6c634300060c000a",
    "linkReferences": {}
  },
  "methodIdentifiers": {
    "addValidatedItemsToList(address[])": "a8f0bc41"
  },
  "id": 13
}