{
  "abi": [
    {
      "inputs": [],
      "name": "configKilnMainnet",
      "outputs": [
        {
          "internalType": "address",
          "name": "stakingContractAddress",
          "type": "address"
        }
      ],
      "stateMutability": "view",
      "type": "function"
    }
  ],
  "bytecode": {
    "object": "0x60a0604052730816df553a89c4bff7ebfd778a9706a989dd3ce36080819052600080546001600160a01b031916909117905534801561003d57600080fd5b50608c8061004c6000396000f3fe6080604052348015600f57600080fd5b506004361060285760003560e01c8063fe1cc43914602d575b600080fd5b600054603f906001600160a01b031681565b604051604a91906073565b60405180910390f35b60006001600160a01b0382165b92915050565b606d816053565b82525050565b6020810160608284606656fea164736f6c6343000811000a",
    "linkReferences": {}
  },
  "methodIdentifiers": {
    "configKilnMainnet()": "fe1cc439"
  },
  "id": 71
}