{
  "_format": "hh-sol-artifact-1",
  "contractName": "ConvexCurveLpStakingWrapperLib",
  "sourceName": "contracts/release/infrastructure/staking-wrappers/convex-curve-lp/ConvexCurveLpStakingWrapperLib.sol",
  "abi": [
    {
      "inputs": [
        {
          "internalType": "address",
          "name": "_owner",
          "type": "address"
        },
        {
          "internalType": "address",
          "name": "_convexBooster",
          "type": "address"
        },
        {
          "internalType": "address",
          "name": "_crvToken",
          "type": "address"
        },
        {
          "internalType": "address",
          "name": "_cvxToken",
          "type": "address"
        }
      ],
      "stateMutability": "nonpayable",
      "type": "constructor"
    },
    {
      "anonymous": false,
      "inputs": [
        {
          "indexed": true,
          "internalType": "address",
          "name": "owner",
          "type": "address"
        },
        {
          "indexed": true,
          "internalType": "address",
          "name": "spender",
          "type": "address"
        },
        {
          "indexed": false,
          "internalType": "uint256",
          "name": "value",
          "type": "uint256"
        }
      ],
      "name": "Approval",
      "type": "event"
    },
    {
      "anonymous": false,
      "inputs": [
        {
          "indexed": true,
          "internalType": "address",
          "name": "from",
          "type": "address"
        },
        {
          "indexed": true,
          "internalType": "address",
          "name": "to",
          "type": "address"
        },
        {
          "indexed": false,
          "internalType": "uint256",
          "name": "amount",
          "type": "uint256"
        }
      ],
      "name": "Deposited",
      "type": "event"
    },
    {
      "anonymous": false,
      "inputs": [
        {
          "indexed": false,
          "internalType": "bool",
          "name": "isPaused",
          "type": "bool"
        }
      ],
      "name": "PauseToggled",
      "type": "event"
    },
    {
      "anonymous": false,
      "inputs": [
        {
          "indexed": false,
          "internalType": "address",
          "name": "token",
          "type": "address"
        }
      ],
      "name": "RewardTokenAdded",
      "type": "event"
    },
    {
      "anonymous": false,
      "inputs": [
        {
          "indexed": false,
          "internalType": "address",
          "name": "caller",
          "type": "address"
        },
        {
          "indexed": true,
          "internalType": "address",
          "name": "user",
          "type": "address"
        },
        {
          "indexed": false,
          "internalType": "address[]",
          "name": "rewardTokens",
          "type": "address[]"
        },
        {
          "indexed": false,
          "internalType": "uint256[]",
          "name": "claimedAmounts",
          "type": "uint256[]"
        }
      ],
      "name": "RewardsClaimed",
      "type": "event"
    },
    {
      "anonymous": false,
      "inputs": [
        {
          "indexed": false,
          "internalType": "string",
          "name": "name",
          "type": "string"
        }
      ],
      "name": "TokenNameSet",
      "type": "event"
    },
    {
      "anonymous": false,
      "inputs": [
        {
          "indexed": false,
          "internalType": "string",
          "name": "symbol",
          "type": "string"
        }
      ],
      "name": "TokenSymbolSet",
      "type": "event"
    },
    {
      "anonymous": false,
      "inputs": [
        {
          "indexed": true,
          "internalType": "address",
          "name": "rewardToken",
          "type": "address"
        },
        {
          "indexed": false,
          "internalType": "uint256",
          "name": "integral",
          "type": "uint256"
        }
      ],
      "name": "TotalHarvestIntegralUpdated",
      "type": "event"
    },
    {
      "anonymous": false,
      "inputs": [
        {
          "indexed": true,
          "internalType": "address",
          "name": "rewardToken",
          "type": "address"
        },
        {
          "indexed": false,
          "internalType": "uint256",
          "name": "lastCheckpointBalance",
          "type": "uint256"
        }
      ],
      "name": "TotalHarvestLastCheckpointBalanceUpdated",
      "type": "event"
    },
    {
      "anonymous": false,
      "inputs": [
        {
          "indexed": true,
          "internalType": "address",
          "name": "from",
          "type": "address"
        },
        {
          "indexed": true,
          "internalType": "address",
          "name": "to",
          "type": "address"
        },
        {
          "indexed": false,
          "internalType": "uint256",
          "name": "value",
          "type": "uint256"
        }
      ],
      "name": "Transfer",
      "type": "event"
    },
    {
      "anonymous": false,
      "inputs": [
        {
          "indexed": true,
          "internalType": "address",
          "name": "user",
          "type": "address"
        },
        {
          "indexed": true,
          "internalType": "address",
          "name": "rewardToken",
          "type": "address"
        },
        {
          "indexed": false,
          "internalType": "uint256",
          "name": "integral",
          "type": "uint256"
        },
        {
          "indexed": false,
          "internalType": "uint256",
          "name": "claimableReward",
          "type": "uint256"
        }
      ],
      "name": "UserHarvestUpdated",
      "type": "event"
    },
    {
      "anonymous": false,
      "inputs": [
        {
          "indexed": true,
          "internalType": "address",
          "name": "caller",
          "type": "address"
        },
        {
          "indexed": true,
          "internalType": "address",
          "name": "from",
          "type": "address"
        },
        {
          "indexed": true,
          "internalType": "address",
          "name": "to",
          "type": "address"
        },
        {
          "indexed": false,
          "internalType": "uint256",
          "name": "amount",
          "type": "uint256"
        }
      ],
      "name": "Withdrawn",
      "type": "event"
    },
    {
      "inputs": [],
      "name": "addExtraRewards",
      "outputs": [],
      "stateMutability": "nonpayable",
      "type": "function"
    },
    {
      "inputs": [
        {
          "internalType": "address",
          "name": "owner",
          "type": "address"
        },
        {
          "internalType": "address",
          "name": "spender",
          "type": "address"
        }
      ],
      "name": "allowance",
      "outputs": [
        {
          "internalType": "uint256",
          "name": "",
          "type": "uint256"
        }
      ],
      "stateMutability": "view",
      "type": "function"
    },
    {
      "inputs": [
        {
          "internalType": "address",
          "name": "spender",
          "type": "address"
        },
        {
          "internalType": "uint256",
          "name": "amount",
          "type": "uint256"
        }
      ],
      "name": "approve",
      "outputs": [
        {
          "internalType": "bool",
          "name": "",
          "type": "bool"
        }
      ],
      "stateMutability": "nonpayable",
      "type": "function"
    },
    {
      "inputs": [
        {
          "internalType": "address",
          "name": "account",
          "type": "address"
        }
      ],
      "name": "balanceOf",
      "outputs": [
        {
          "internalType": "uint256",
          "name": "",
          "type": "uint256"
        }
      ],
      "stateMutability": "view",
      "type": "function"
    },
    {
      "inputs": [
        {
          "internalType": "address",
          "name": "_for",
          "type": "address"
        }
      ],
      "name": "claimRewardsFor",
      "outputs": [
        {
          "internalType": "address[]",
          "name": "rewardTokens_",
          "type": "address[]"
        },
        {
          "internalType": "uint256[]",
          "name": "claimedAmounts_",
          "type": "uint256[]"
        }
      ],
      "stateMutability": "nonpayable",
      "type": "function"
    },
    {
      "inputs": [],
      "name": "decimals",
      "outputs": [
        {
          "internalType": "uint8",
          "name": "decimals_",
          "type": "uint8"
        }
      ],
      "stateMutability": "view",
      "type": "function"
    },
    {
      "inputs": [
        {
          "internalType": "address",
          "name": "spender",
          "type": "address"
        },
        {
          "internalType": "uint256",
          "name": "subtractedValue",
          "type": "uint256"
        }
      ],
      "name": "decreaseAllowance",
      "outputs": [
        {
          "internalType": "bool",
          "name": "",
          "type": "bool"
        }
      ],
      "stateMutability": "nonpayable",
      "type": "function"
    },
    {
      "inputs": [
        {
          "internalType": "uint256",
          "name": "_amount",
          "type": "uint256"
        }
      ],
      "name": "deposit",
      "outputs": [],
      "stateMutability": "nonpayable",
      "type": "function"
    },
    {
      "inputs": [
        {
          "internalType": "address",
          "name": "_to",
          "type": "address"
        },
        {
          "internalType": "uint256",
          "name": "_amount",
          "type": "uint256"
        }
      ],
      "name": "depositTo",
      "outputs": [],
      "stateMutability": "nonpayable",
      "type": "function"
    },
    {
      "inputs": [],
      "name": "getConvexPool",
      "outputs": [
        {
          "internalType": "address",
          "name": "convexPool_",
          "type": "address"
        }
      ],
      "stateMutability": "view",
      "type": "function"
    },
    {
      "inputs": [],
      "name": "getConvexPoolId",
      "outputs": [
        {
          "internalType": "uint256",
          "name": "convexPoolId_",
          "type": "uint256"
        }
      ],
      "stateMutability": "view",
      "type": "function"
    },
    {
      "inputs": [],
      "name": "getCurveLpToken",
      "outputs": [
        {
          "internalType": "address",
          "name": "curveLPToken_",
          "type": "address"
        }
      ],
      "stateMutability": "view",
      "type": "function"
    },
    {
      "inputs": [
        {
          "internalType": "uint256",
          "name": "_index",
          "type": "uint256"
        }
      ],
      "name": "getRewardTokenAtIndex",
      "outputs": [
        {
          "internalType": "address",
          "name": "rewardToken_",
          "type": "address"
        }
      ],
      "stateMutability": "view",
      "type": "function"
    },
    {
      "inputs": [],
      "name": "getRewardTokenCount",
      "outputs": [
        {
          "internalType": "uint256",
          "name": "count_",
          "type": "uint256"
        }
      ],
      "stateMutability": "view",
      "type": "function"
    },
    {
      "inputs": [],
      "name": "getRewardTokens",
      "outputs": [
        {
          "internalType": "address[]",
          "name": "rewardTokens_",
          "type": "address[]"
        }
      ],
      "stateMutability": "view",
      "type": "function"
    },
    {
      "inputs": [
        {
          "internalType": "address",
          "name": "_rewardToken",
          "type": "address"
        }
      ],
      "name": "getTotalHarvestDataForRewardToken",
      "outputs": [
        {
          "components": [
            {
              "internalType": "uint128",
              "name": "integral",
              "type": "uint128"
            },
            {
              "internalType": "uint128",
              "name": "lastCheckpointBalance",
              "type": "uint128"
            }
          ],
          "internalType": "struct IStakingWrapper.TotalHarvestData",
          "name": "totalHarvestData_",
          "type": "tuple"
        }
      ],
      "stateMutability": "view",
      "type": "function"
    },
    {
      "inputs": [
        {
          "internalType": "address",
          "name": "_user",
          "type": "address"
        },
        {
          "internalType": "address",
          "name": "_rewardToken",
          "type": "address"
        }
      ],
      "name": "getUserHarvestDataForRewardToken",
      "outputs": [
        {
          "components": [
            {
              "internalType": "uint128",
              "name": "integral",
              "type": "uint128"
            },
            {
              "internalType": "uint128",
              "name": "claimableReward",
              "type": "uint128"
            }
          ],
          "internalType": "struct IStakingWrapper.UserHarvestData",
          "name": "userHarvestData_",
          "type": "tuple"
        }
      ],
      "stateMutability": "view",
      "type": "function"
    },
    {
      "inputs": [
        {
          "internalType": "address",
          "name": "spender",
          "type": "address"
        },
        {
          "internalType": "uint256",
          "name": "addedValue",
          "type": "uint256"
        }
      ],
      "name": "increaseAllowance",
      "outputs": [
        {
          "internalType": "bool",
          "name": "",
          "type": "bool"
        }
      ],
      "stateMutability": "nonpayable",
      "type": "function"
    },
    {
      "inputs": [
        {
          "internalType": "uint256",
          "name": "_pid",
          "type": "uint256"
        }
      ],
      "name": "init",
      "outputs": [],
      "stateMutability": "nonpayable",
      "type": "function"
    },
    {
      "inputs": [],
      "name": "isPaused",
      "outputs": [
        {
          "internalType": "bool",
          "name": "isPaused_",
          "type": "bool"
        }
      ],
      "stateMutability": "view",
      "type": "function"
    },
    {
      "inputs": [],
      "name": "name",
      "outputs": [
        {
          "internalType": "string",
          "name": "name_",
          "type": "string"
        }
      ],
      "stateMutability": "view",
      "type": "function"
    },
    {
      "inputs": [],
      "name": "setApprovals",
      "outputs": [],
      "stateMutability": "nonpayable",
      "type": "function"
    },
    {
      "inputs": [],
      "name": "symbol",
      "outputs": [
        {
          "internalType": "string",
          "name": "symbol_",
          "type": "string"
        }
      ],
      "stateMutability": "view",
      "type": "function"
    },
    {
      "inputs": [
        {
          "internalType": "bool",
          "name": "_isPaused",
          "type": "bool"
        }
      ],
      "name": "togglePause",
      "outputs": [],
      "stateMutability": "nonpayable",
      "type": "function"
    },
    {
      "inputs": [],
      "name": "totalSupply",
      "outputs": [
        {
          "internalType": "uint256",
          "name": "",
          "type": "uint256"
        }
      ],
      "stateMutability": "view",
      "type": "function"
    },
    {
      "inputs": [
        {
          "internalType": "address",
          "name": "recipient",
          "type": "address"
        },
        {
          "internalType": "uint256",
          "name": "amount",
          "type": "uint256"
        }
      ],
      "name": "transfer",
      "outputs": [
        {
          "internalType": "bool",
          "name": "",
          "type": "bool"
        }
      ],
      "stateMutability": "nonpayable",
      "type": "function"
    },
    {
      "inputs": [
        {
          "internalType": "address",
          "name": "sender",
          "type": "address"
        },
        {
          "internalType": "address",
          "name": "recipient",
          "type": "address"
        },
        {
          "internalType": "uint256",
          "name": "amount",
          "type": "uint256"
        }
      ],
      "name": "transferFrom",
      "outputs": [
        {
          "internalType": "bool",
          "name": "",
          "type": "bool"
        }
      ],
      "stateMutability": "nonpayable",
      "type": "function"
    },
    {
      "inputs": [
        {
          "internalType": "uint256",
          "name": "_amount",
          "type": "uint256"
        },
        {
          "internalType": "bool",
          "name": "_claimRewards",
          "type": "bool"
        }
      ],
      "name": "withdraw",
      "outputs": [
        {
          "internalType": "address[]",
          "name": "rewardTokens_",
          "type": "address[]"
        },
        {
          "internalType": "uint256[]",
          "name": "claimedAmounts_",
          "type": "uint256[]"
        }
      ],
      "stateMutability": "nonpayable",
      "type": "function"
    },
    {
      "inputs": [
        {
          "internalType": "address",
          "name": "_to",
          "type": "address"
        },
        {
          "internalType": "uint256",
          "name": "_amount",
          "type": "uint256"
        },
        {
          "internalType": "bool",
          "name": "_claimRewardsToHolder",
          "type": "bool"
        }
      ],
      "name": "withdrawTo",
      "outputs": [],
      "stateMutability": "nonpayable",
      "type": "function"
    },
    {
      "inputs": [
        {
          "internalType": "address",
          "name": "_onBehalf",
          "type": "address"
        },
        {
          "internalType": "address",
          "name": "_to",
          "type": "address"
        },
        {
          "internalType": "uint256",
          "name": "_amount",
          "type": "uint256"
        },
        {
          "internalType": "bool",
          "name": "_claimRewardsToHolder",
          "type": "bool"
        }
      ],
      "name": "withdrawToOnBehalf",
      "outputs": [],
      "stateMutability": "nonpayable",
      "type": "function"
    }
  ],
  "bytecode": "0x6101006040523480156200001257600080fd5b506040516200357b3803806200357b833981016040819052620000359162000174565b604080516020808201808452600080845284519283019094529281528151879383918391620000689160039190620000c5565b5080516200007e906004906020840190620000c5565b50506005805460ff1916601217905550506001600655506001600160601b0319606091821b811660805293811b841660a05291821b831660c052901b1660e052506200020a565b828054600181600116156101000203166002900490600052602060002090601f016020900481019282601f106200010857805160ff191683800117855562000138565b8280016001018555821562000138579182015b82811115620001385782518255916020019190600101906200011b565b50620001469291506200014a565b5090565b5b808211156200014657600081556001016200014b565b80516200016e81620001f0565b92915050565b600080600080608085870312156200018b57600080fd5b600062000199878762000161565b9450506020620001ac8782880162000161565b9350506040620001bf8782880162000161565b9250506060620001d28782880162000161565b91505092959194509250565b60006001600160a01b0382166200016e565b620001fb81620001de565b81146200020757600080fd5b50565b60805160601c60a05160601c60c05160601c60e05160601c6133256200025660003980610d12525080610ce95250806108f25280610ae55280611dcd52508061083352506133256000f3fe608060405234801561001057600080fd5b50600436106101da5760003560e01c806382e5d07311610104578063b187bd26116100a2578063c4f59f9b11610071578063c4f59f9b146103c6578063d12f8df0146103db578063dd62ed3e146103e3578063ffaad6a5146103f6576101da565b8063b187bd2614610390578063b6b55f2514610398578063b7b0422d146103ab578063b899aea4146103be576101da565b80639655dd61116100de5780639655dd6114610344578063a457c2d714610357578063a7d2793f1461036a578063a9059cbb1461037d576101da565b806382e5d0731461032c5780638757b15b1461033457806395d89b411461033c576101da565b806323b872dd1161017c578063395093511161014b57806339509351146102e057806357d159c6146102f357806370a082311461030657806373e2290c14610319576101da565b806323b872dd146102925780632cfafabe146102a5578063313ce567146102b857806338d07436146102cd576101da565b8063095ea7b3116101b8578063095ea7b31461022757806318160ddd146102475780631ac6d19d1461025c57806320c718101461027d576101da565b80630663b22c146101df57806306fdde03146101e9578063093f636514610207575b600080fd5b6101e7610409565b005b6101f1610597565b6040516101fe9190612f7e565b60405180910390f35b61021a6102153660046125c9565b61062d565b6040516101fe91906130af565b61023a6102353660046126b1565b610688565b6040516101fe9190612f70565b61024f6106a5565b6040516101fe91906130bd565b61026f61026a36600461258d565b6106ab565b6040516101fe929190612f4b565b6102856106f7565b6040516101fe9190612e91565b61023a6102a0366004612603565b610706565b6101e76102b3366004612650565b61078e565b6102c06107bb565b6040516101fe9190613137565b61026f6102db3660046127ef565b6107c0565b61023a6102ee3660046126b1565b6107da565b6101e7610301366004612724565b610828565b61024f61031436600461258d565b6108b9565b6101e76103273660046126e1565b6108d4565b61024f6108e7565b6101e76108ed565b6101f161092e565b61021a61035236600461258d565b61098f565b61023a6103653660046126b1565b6109d9565b6102856103783660046127b3565b610a41565b61023a61038b3660046126b1565b610a6b565b61023a610a7f565b6101e76103a63660046127b3565b610a88565b6101e76103b93660046127b3565b610a96565b610285610d4a565b6103ce610d59565b6040516101fe9190612f3a565b61024f610dba565b61024f6103f13660046125c9565b610dc0565b6101e76104043660046126b1565b610deb565b60006104136106f7565b90506000816001600160a01b031663d55a23f46040518163ffffffff1660e01b815260040160206040518083038186803b15801561045057600080fd5b505afa158015610464573d6000803e3d6000fd5b505050506040513d601f19601f8201168201806040525081019061048891906127d1565b905060005b8181101561059257604051632061aa2360e11b815261058a906001600160a01b038516906340c35446906104c59085906004016130bd565b60206040518083038186803b1580156104dd57600080fd5b505afa1580156104f1573d6000803e3d6000fd5b505050506040513d601f19601f8201168201806040525081019061051591906125ab565b6001600160a01b031663f7c618c16040518163ffffffff1660e01b815260040160206040518083038186803b15801561054d57600080fd5b505afa158015610561573d6000803e3d6000fd5b505050506040513d601f19601f8201168201806040525081019061058591906125ab565b610df6565b60010161048d565b505050565b600b8054604080516020601f60026000196101006001881615020190951694909404938401819004810282018101909252828152606093909290918301828280156106235780601f106105f857610100808354040283529160200191610623565b820191906000526020600020905b81548152906001019060200180831161060657829003601f168201915b5050505050905090565b610635612381565b506001600160a01b038082166000908152600a602090815260408083209386168352928152908290208251808401909352546001600160801b038082168452600160801b90910416908201525b92915050565b600061069c610695610ee2565b8484610ee6565b50600192915050565b60025490565b606080600260065414156106da5760405162461bcd60e51b81526004016106d19061307f565b60405180910390fd5b60026006556106e883610f9a565b60016006559094909350915050565b600d546001600160a01b031690565b60006107138484846110ef565b6107838461071f610ee2565b61077e856040518060600160405280602881526020016132a3602891396001600160a01b038a1660009081526001602052604081209061075d610ee2565b6001600160a01b031681526020810191909152604001600020549190611153565b610ee6565b5060015b9392505050565b6107a7843361077e856107a18933610dc0565b9061117f565b6107b3848484846111a7565b505050505050565b601290565b6060806107cf333386866111a7565b915091509250929050565b600061069c6107e7610ee2565b8461077e85600160006107f8610ee2565b6001600160a01b03908116825260208083019390935260409182016000908120918c16815292529020549061128a565b336001600160a01b037f000000000000000000000000000000000000000000000000000000000000000016146108705760405162461bcd60e51b81526004016106d190612f9f565b6007805460ff19168215151790556040517f9077d36bc00859b5c3f320310707208543dd35092cb0a0fe117d0c6a558b148b906108ae908390612f70565b60405180910390a150565b6001600160a01b031660009081526020819052604090205490565b6108e0338484846111a7565b5050505050565b60085490565b61092c7f000000000000000000000000000000000000000000000000000000000000000060001961091c610d4a565b6001600160a01b031691906112af565b565b600c8054604080516020601f60026000196101006001881615020190951694909404938401819004810282018101909252828152606093909290918301828280156106235780601f106105f857610100808354040283529160200191610623565b610997612381565b506001600160a01b03166000908152600960209081526040918290208251808401909352546001600160801b038082168452600160801b909104169082015290565b600061069c6109e6610ee2565b8461077e856040518060600160405280602581526020016132cb6025913960016000610a10610ee2565b6001600160a01b03908116825260208083019390935260409182016000908120918d16815292529020549190611153565b600060088281548110610a5057fe5b6000918252602090912001546001600160a01b031692915050565b600061069c610a78610ee2565b84846110ef565b60075460ff1690565b610a933333836113a9565b50565b6000610aa0610d4a565b6001600160a01b031614610ac65760405162461bcd60e51b81526004016106d19061301f565b610ace612398565b604051631526fe2760e01b81526001600160a01b037f00000000000000000000000000000000000000000000000000000000000000001690631526fe2790610b1a9085906004016130bd565b60c06040518083038186803b158015610b3257600080fd5b505afa158015610b46573d6000803e3d6000fd5b505050506040513d601f19601f82011682018060405250810190610b6a9190612795565b9050610c0c81602001516001600160a01b03166306fdde036040518163ffffffff1660e01b815260040160006040518083038186803b158015610bac57600080fd5b505afa158015610bc0573d6000803e3d6000fd5b505050506040513d6000823e601f3d908101601f19168201604052610be89190810190612760565b604051602001610bf89190612e6f565b604051602081830303815290604052611485565b610cac81602001516001600160a01b03166395d89b416040518163ffffffff1660e01b815260040160006040518083038186803b158015610c4c57600080fd5b505afa158015610c60573d6000803e3d6000fd5b505050506040513d6000823e601f3d908101601f19168201604052610c889190810190612760565b604051602001610c989190612e86565b6040516020818303038152906040526114c8565b8051600f80546001600160a01b039283166001600160a01b0319918216179091556060830151600d8054919093169116179055600e829055610d0d7f0000000000000000000000000000000000000000000000000000000000000000610df6565b610d367f0000000000000000000000000000000000000000000000000000000000000000610df6565b610d3e610409565b610d466108ed565b5050565b600f546001600160a01b031690565b6060600880548060200260200160405190810160405280929190818152602001828054801561062357602002820191906000526020600020905b81546001600160a01b03168152600190910190602001808311610d93575050505050905090565b600e5490565b6001600160a01b03918216600090815260016020908152604080832093909416825291909152205490565b610d463383836113a9565b610e63816008805480602002602001604051908101604052809291908181526020018280548015610e5057602002820191906000526020600020905b81546001600160a01b03168152600190910190602001808311610e32575b505050505061150b90919063ffffffff16565b610a9357600880546001810182556000919091527ff3f7a9fe364faab93b216da50a3214154f22a0a2b415b23a84c8169e8b636ee30180546001600160a01b0319166001600160a01b0383161790556040517ff3e4c2c64e71e6ba2eaab9a599bced62f9eb91d2cda610bf41aa8c80ff2cf826906108ae908390612e91565b3390565b6001600160a01b038316610f0c5760405162461bcd60e51b81526004016106d19061304f565b6001600160a01b038216610f325760405162461bcd60e51b81526004016106d190612fbf565b6001600160a01b0380841660008181526001602090815260408083209487168084529490915290819020849055517f8c5be1e5ebec7d5bd14f71427d1e84f3dd0314c0f7b2291e5b200ac8c7c3b92590610f8d9085906130bd565b60405180910390a3505050565b606080610fa5610a7f565b610fb157610fb1611561565b6000610fbb6106a5565b600880546040805160208084028201810190925282815293945083018282801561100e57602002820191906000526020600020905b81546001600160a01b03168152600190910190602001808311610ff0575b50505050509250825167ffffffffffffffff8111801561102d57600080fd5b50604051908082528060200260200182016040528015611057578160200160208202803683370190505b50915060005b83518110156110a35761108484828151811061107557fe5b602002602001015186846115e3565b83828151811061109057fe5b602090810291909101015260010161105d565b50836001600160a01b03167fc17f1458d7773c19369fc6c68a3b4c44b675c86c50c997d58853aed5e38de6cd3385856040516110e193929190612e9f565b60405180910390a250915091565b600260065414156111125760405162461bcd60e51b81526004016106d19061307f565b6002600655604080518082019091526001600160a01b0380851682528316602082015261113e9061194b565b6111498383836119b4565b5050600160065550565b600081848411156111775760405162461bcd60e51b81526004016106d19190612f7e565b505050900390565b6000828211156111a15760405162461bcd60e51b81526004016106d190612fdf565b50900390565b606080600260065414156111cd5760405162461bcd60e51b81526004016106d19061307f565b600260065582156111eb576111e186610f9a565b9092509050611211565b604080518082019091526001600160a01b0387168152600060208201526112119061194b565b61121b8685611ac9565b6112258585611bab565b846001600160a01b0316866001600160a01b0316336001600160a01b03167fa4195c37c2947bbe89165f03e320b6903116f0b10d8cfdb522330f7ce6f9fa248760405161127291906130bd565b60405180910390a46001600655909590945092505050565b6000828201838110156107875760405162461bcd60e51b81526004016106d190612fcf565b8015806113375750604051636eb1769f60e11b81526001600160a01b0384169063dd62ed3e906112e59030908690600401612edc565b60206040518083038186803b1580156112fd57600080fd5b505afa158015611311573d6000803e3d6000fd5b505050506040513d601f19601f8201168201806040525081019061133591906127d1565b155b6113535760405162461bcd60e51b81526004016106d19061308f565b6105928363095ea7b360e01b8484604051602401611372929190612f1f565b60408051601f198184030181529190526020810180516001600160e01b03166001600160e01b031990931692909217909152611c51565b600260065414156113cc5760405162461bcd60e51b81526004016106d19061307f565b60026006556113d9610a7f565b156113f65760405162461bcd60e51b81526004016106d190612f8f565b604080518082019091526001600160a01b03831681526000602082015261141c9061194b565b6114268282611ce0565b6114308382611d94565b816001600160a01b0316836001600160a01b03167f8752a472e571a816aea92eec8dae9baf628e840f4929fbcc2d155e6233ff68a78360405161147391906130bd565b60405180910390a35050600160065550565b805161149890600b9060208401906123cd565b507f12e9cab73c0c48661414f76e810af7d10c67f0db958722bf9f26b28a4b4afd69816040516108ae9190612f7e565b80516114db90600c9060208401906123cd565b507f862f26027c5033c09d43eacd856547decb3227c210f6eb7b6bdc0cf5edaa3f4b816040516108ae9190612f7e565b6000805b83518110156115575783818151811061152457fe5b60200260200101516001600160a01b0316836001600160a01b0316141561154f576001915050610682565b60010161150f565b5060009392505050565b611569610409565b6115716106f7565b6001600160a01b0316633d18b9126040518163ffffffff1660e01b8152600401602060405180830381600087803b1580156115ab57600080fd5b505af11580156115bf573d6000803e3d6000fd5b505050506040513d601f19601f82011682018060405250810190610a939190612742565b6001600160a01b038316600081815260096020526040808220805491516370a0823160e01b8152929390926001600160801b0390921691849161169e918791906370a0823190611637903090600401612e91565b60206040518083038186803b15801561164f57600080fd5b505afa158015611663573d6000803e3d6000fd5b505050506040513d601f19601f8201168201806040525081019061168791906127d1565b8554600160801b90046001600160801b0316611e58565b90508015611710576116b0828261128a565b83546001600160801b0319166001600160801b0382161784556040519092506001600160a01b038816907f64dcb34f2e45bc61753d72992aa4199ec96717158435e8085568ff38844bcd1c906117079085906130bd565b60405180910390a25b6001600160a01b038781166000908152600a60209081526040808320938a1683529290522080546001600160801b03600160801b82048116965016838110156117d15781546001600160801b0319166001600160801b03851617825561178161177a898684611ea3565b879061128a565b9550886001600160a01b0316886001600160a01b03167fe3bdf7e684a4024370a702abfcca4a32b08642aadc27065f3356458bd23e977e86896040516117c8929190613101565b60405180910390a35b85156118475781546001600160801b031682556117f86001600160a01b038a168988611ed5565b886001600160a01b0316886001600160a01b03167fe3bdf7e684a4024370a702abfcca4a32b08642aadc27065f3356458bd23e977e86600060405161183e9291906130e6565b60405180910390a35b6040516370a0823160e01b81526000906001600160a01b038b16906370a0823190611876903090600401612e91565b60206040518083038186803b15801561188e57600080fd5b505afa1580156118a2573d6000803e3d6000fd5b505050506040513d601f19601f820116820180604052508101906118c691906127d1565b8654909150600160801b90046001600160801b031681101561193e5785546001600160801b03808316600160801b0291161786556040516001600160a01b038b16907fdeb2652df61fdedd2d231dc4d777175097cc26369032d339be2a6db36d7754f2906119359084906130bd565b60405180910390a25b5050505050509392505050565b611953610a7f565b61195f5761195f611561565b60006119696106a5565b60085490915060005b818110156119ae576119a66008828154811061198a57fe5b6000918252602090912001546001600160a01b03168585611ef4565b600101611972565b50505050565b6001600160a01b0383166119da5760405162461bcd60e51b81526004016106d19061303f565b6001600160a01b038216611a005760405162461bcd60e51b81526004016106d190612faf565b611a0b838383610592565b611a488160405180606001604052806026815260200161327d602691396001600160a01b0386166000908152602081905260409020549190611153565b6001600160a01b038085166000908152602081905260408082209390935590841681522054611a77908261128a565b6001600160a01b0380841660008181526020819052604090819020939093559151908516907fddf252ad1be2c89b69c2b068fc378daa952ba7f163c4a11628f55a4df523b3ef90610f8d9085906130bd565b6001600160a01b038216611aef5760405162461bcd60e51b81526004016106d19061302f565b611afb82600083610592565b611b388160405180606001604052806022815260200161325b602291396001600160a01b0385166000908152602081905260409020549190611153565b6001600160a01b038316600090815260208190526040902055600254611b5e908261117f565b6002556040516000906001600160a01b038416907fddf252ad1be2c89b69c2b068fc378daa952ba7f163c4a11628f55a4df523b3ef90611b9f9085906130bd565b60405180910390a35050565b611bb36106f7565b6001600160a01b031663c32e72028260006040518363ffffffff1660e01b8152600401611be19291906130cb565b602060405180830381600087803b158015611bfb57600080fd5b505af1158015611c0f573d6000803e3d6000fd5b505050506040513d601f19601f82011682018060405250810190611c339190612742565b50610d468282611c41610d4a565b6001600160a01b03169190611ed5565b6060611ca6826040518060400160405280602081526020017f5361666545524332303a206c6f772d6c6576656c2063616c6c206661696c6564815250856001600160a01b03166121e59092919063ffffffff16565b8051909150156105925780806020019051810190611cc49190612742565b6105925760405162461bcd60e51b81526004016106d19061306f565b6001600160a01b038216611d065760405162461bcd60e51b81526004016106d19061309f565b611d1260008383610592565b600254611d1f908261128a565b6002556001600160a01b038216600090815260208190526040902054611d45908261128a565b6001600160a01b0383166000818152602081905260408082209390935591519091907fddf252ad1be2c89b69c2b068fc378daa952ba7f163c4a11628f55a4df523b3ef90611b9f9085906130bd565b611db3823083611da2610d4a565b6001600160a01b03169291906121f4565b600e546040516321d0683360e11b81526001600160a01b037f000000000000000000000000000000000000000000000000000000000000000016916343a0d06691611e069190859060019060040161310f565b602060405180830381600087803b158015611e2057600080fd5b505af1158015611e34573d6000803e3d6000fd5b505050506040513d601f19601f820116820180604052508101906105929190612742565b60008315611557576000611e6c848461117f565b90508015611e9857611e9085611e8a83670de0b6b3a7640000612215565b9061224f565b915050610787565b505060009392505050565b6000611ecd670de0b6b3a7640000611e8a611ebe868661117f565b611ec7886108b9565b90612215565b949350505050565b6105928363a9059cbb60e01b8484604051602401611372929190612f1f565b6001600160a01b038316600081815260096020526040808220805491516370a0823160e01b815290936001600160801b039092169291906370a0823190611f3f903090600401612e91565b60206040518083038186803b158015611f5757600080fd5b505afa158015611f6b573d6000803e3d6000fd5b505050506040513d601f19601f82011682018060405250810190611f8f91906127d1565b8354909150600090611fb49086908490600160801b90046001600160801b0316611e58565b9050801561208157611fc6838261128a565b84546001600160801b0319166001600160801b0382161785556040519093506001600160a01b038816907f64dcb34f2e45bc61753d72992aa4199ec96717158435e8085568ff38844bcd1c9061201d9086906130bd565b60405180910390a283546001600160801b03808416600160801b0291161784556040516001600160a01b038816907fdeb2652df61fdedd2d231dc4d777175097cc26369032d339be2a6db36d7754f2906120789085906130bd565b60405180910390a25b60005b60028110156121db57600087826002811061209b57fe5b60200201516001600160a01b031614156120b4576121d3565b6001600160a01b0388166000908152600a60205260408120818984600281106120d957fe5b602090810291909101516001600160a01b0316825281019190915260400160002080549091506001600160801b0316858110156121d05760006121486121308b866002811061212457fe5b60200201518985611ea3565b8454600160801b90046001600160801b03169061128a565b83546001600160801b03196001600160801b03918216600160801b84841602171690891617845590506001600160a01b038b168a856002811061218757fe5b60200201516001600160a01b03167fe3bdf7e684a4024370a702abfcca4a32b08642aadc27065f3356458bd23e977e89846040516121c6929190613101565b60405180910390a3505b50505b600101612084565b5050505050505050565b6060611ecd8484600085612281565b6119ae846323b872dd60e01b85858560405160240161137293929190612ef7565b60008261222457506000610682565b8282028284828161223157fe5b04146107875760405162461bcd60e51b81526004016106d19061300f565b60008082116122705760405162461bcd60e51b81526004016106d190612fff565b81838161227957fe5b049392505050565b6060824710156122a35760405162461bcd60e51b81526004016106d190612fef565b6122ac85612342565b6122c85760405162461bcd60e51b81526004016106d19061305f565b60006060866001600160a01b031685876040516122e59190612e63565b60006040518083038185875af1925050503d8060008114612322576040519150601f19603f3d011682016040523d82523d6000602084013e612327565b606091505b5091509150612337828286612348565b979650505050505050565b3b151590565b60608315612357575081610787565b8251156123675782518084602001fd5b8160405162461bcd60e51b81526004016106d19190612f7e565b604080518082019091526000808252602082015290565b6040805160c081018252600080825260208201819052918101829052606081018290526080810182905260a081019190915290565b828054600181600116156101000203166002900490600052602060002090601f016020900481019282601f1061240e57805160ff191683800117855561243b565b8280016001018555821561243b579182015b8281111561243b578251825591602001919060010190612420565b5061244792915061244b565b5090565b5b80821115612447576000815560010161244c565b803561068281613234565b805161068281613234565b803561068281613248565b805161068281613248565b600082601f83011261249d57600080fd5b81516124b06124ab8261316c565b613145565b915080825260208301602083018583830111156124cc57600080fd5b6124d78382846131fe565b50505092915050565b600060c082840312156124f257600080fd5b6124fc60c0613145565b9050600061250a848461246b565b825250602061251b8484830161246b565b602083015250604061252f8482850161246b565b60408301525060606125438482850161246b565b60608301525060806125578482850161246b565b60808301525060a061256b84828501612481565b60a08301525092915050565b803561068281613251565b805161068281613251565b60006020828403121561259f57600080fd5b6000611ecd8484612460565b6000602082840312156125bd57600080fd5b6000611ecd848461246b565b600080604083850312156125dc57600080fd5b60006125e88585612460565b92505060206125f985828601612460565b9150509250929050565b60008060006060848603121561261857600080fd5b60006126248686612460565b935050602061263586828701612460565b925050604061264686828701612577565b9150509250925092565b6000806000806080858703121561266657600080fd5b60006126728787612460565b945050602061268387828801612460565b935050604061269487828801612577565b92505060606126a587828801612476565b91505092959194509250565b600080604083850312156126c457600080fd5b60006126d08585612460565b92505060206125f985828601612577565b6000806000606084860312156126f657600080fd5b60006127028686612460565b935050602061271386828701612577565b925050604061264686828701612476565b60006020828403121561273657600080fd5b6000611ecd8484612476565b60006020828403121561275457600080fd5b6000611ecd8484612481565b60006020828403121561277257600080fd5b815167ffffffffffffffff81111561278957600080fd5b611ecd8482850161248c565b600060c082840312156127a757600080fd5b6000611ecd84846124e0565b6000602082840312156127c557600080fd5b6000611ecd8484612577565b6000602082840312156127e357600080fd5b6000611ecd8484612582565b6000806040838503121561280257600080fd5b600061280e8585612577565b92505060206125f985828601612476565b600061282b838361284e565b505060200190565b600061282b8383612e51565b612848816131dd565b82525050565b612848816131ac565b60006128628261319a565b61286c818561319e565b935061287783613194565b8060005b838110156128a557815161288f888261281f565b975061289a83613194565b92505060010161287b565b509495945050505050565b60006128bb8261319a565b6128c5818561319e565b93506128d083613194565b8060005b838110156128a55781516128e88882612833565b97506128f383613194565b9250506001016128d4565b612848816131b7565b60006129128261319a565b61291c81856131a7565b935061292c8185602086016131fe565b9290920192915050565b612848816131e8565b600061294a8261319a565b612954818561319e565b93506129648185602086016131fe565b61296d8161322a565b9093019392505050565b600061298460118361319e565b7017d7d9195c1bdcda5d0e8814185d5cd959607a1b815260200192915050565b60006129b160138361319e565b724f6e6c79206f776e65722063616c6c61626c6560681b815260200192915050565b60006129e060238361319e565b7f45524332303a207472616e7366657220746f20746865207a65726f206164647281526265737360e81b602082015260400192915050565b6000612a25600f836131a7565b6e022b73d3cb6b29029ba30b5b2b21d1608d1b8152600f0192915050565b6000612a5060228361319e565b7f45524332303a20617070726f766520746f20746865207a65726f206164647265815261737360f01b602082015260400192915050565b6000612a94601b8361319e565b7f536166654d6174683a206164646974696f6e206f766572666c6f770000000000815260200192915050565b6000612acd601e8361319e565b7f536166654d6174683a207375627472616374696f6e206f766572666c6f770000815260200192915050565b6000612b0660268361319e565b7f416464726573733a20696e73756666696369656e742062616c616e636520666f8152651c8818d85b1b60d21b602082015260400192915050565b6000612b4e601a8361319e565b7f536166654d6174683a206469766973696f6e206279207a65726f000000000000815260200192915050565b6000612b8760218361319e565b7f536166654d6174683a206d756c7469706c69636174696f6e206f766572666c6f8152607760f81b602082015260400192915050565b6000612bca60118361319e565b701a5b9a5d0e88125b9a5d1a585b1a5e9959607a1b815260200192915050565b6000612bf760218361319e565b7f45524332303a206275726e2066726f6d20746865207a65726f206164647265738152607360f81b602082015260400192915050565b6000612c3a60258361319e565b7f45524332303a207472616e736665722066726f6d20746865207a65726f206164815264647265737360d81b602082015260400192915050565b6000612c816003836131a7565b6273746b60e81b815260030192915050565b6000612ca060248361319e565b7f45524332303a20617070726f76652066726f6d20746865207a65726f206164648152637265737360e01b602082015260400192915050565b6000612ce6601d8361319e565b7f416464726573733a2063616c6c20746f206e6f6e2d636f6e7472616374000000815260200192915050565b6000612d1f602a8361319e565b7f5361666545524332303a204552433230206f7065726174696f6e20646964206e8152691bdd081cdd58d8d9595960b21b602082015260400192915050565b6000612d6b601f8361319e565b7f5265656e7472616e637947756172643a207265656e7472616e742063616c6c00815260200192915050565b6000612da460368361319e565b7f5361666545524332303a20617070726f76652066726f6d206e6f6e2d7a65726f81527520746f206e6f6e2d7a65726f20616c6c6f77616e636560501b602082015260400192915050565b6000612dfc601f8361319e565b7f45524332303a206d696e7420746f20746865207a65726f206164647265737300815260200192915050565b80516040830190612e398482612e48565b5060208201516119ae60208501825b612848816131bc565b612848816131d4565b612848816131d7565b60006107878284612907565b6000612e7a82612a18565b91506107878284612907565b6000612e7a82612c74565b60208101610682828461284e565b60608101612ead828661283f565b8181036020830152612ebf8185612857565b90508181036040830152612ed381846128b0565b95945050505050565b60408101612eea828561284e565b610787602083018461284e565b60608101612f05828661284e565b612f12602083018561284e565b611ecd6040830184612e51565b60408101612f2d828561284e565b6107876020830184612e51565b602080825281016107878184612857565b60408082528101612f5c8185612857565b90508181036020830152611ecd81846128b0565b6020810161068282846128fe565b60208082528101610787818461293f565b6020808252810161068281612977565b60208082528101610682816129a4565b60208082528101610682816129d3565b6020808252810161068281612a43565b6020808252810161068281612a87565b6020808252810161068281612ac0565b6020808252810161068281612af9565b6020808252810161068281612b41565b6020808252810161068281612b7a565b6020808252810161068281612bbd565b6020808252810161068281612bea565b6020808252810161068281612c2d565b6020808252810161068281612c93565b6020808252810161068281612cd9565b6020808252810161068281612d12565b6020808252810161068281612d5e565b6020808252810161068281612d97565b6020808252810161068281612def565b604081016106828284612e28565b602081016106828284612e51565b604081016130d98285612e51565b61078760208301846128fe565b604081016130f48285612e51565b6107876020830184612936565b60408101612f2d8285612e51565b6060810161311d8286612e51565b61312a6020830185612e51565b611ecd60408301846128fe565b602081016106828284612e5a565b60405181810167ffffffffffffffff8111828210171561316457600080fd5b604052919050565b600067ffffffffffffffff82111561318357600080fd5b506020601f91909101601f19160190565b60200190565b5190565b90815260200190565b919050565b6000610682826131c8565b151590565b6001600160801b031690565b6001600160a01b031690565b90565b60ff1690565b6000610682826131f3565b6000610682826131d4565b6000610682826131ac565b60005b83811015613219578181015183820152602001613201565b838111156119ae5750506000910152565b601f01601f191690565b61323d816131ac565b8114610a9357600080fd5b61323d816131b7565b61323d816131d456fe45524332303a206275726e20616d6f756e7420657863656564732062616c616e636545524332303a207472616e7366657220616d6f756e7420657863656564732062616c616e636545524332303a207472616e7366657220616d6f756e74206578636565647320616c6c6f77616e636545524332303a2064656372656173656420616c6c6f77616e63652062656c6f77207a65726fa2646970667358221220ba9afefe232c8775bb2b62a01d99038135d3aa5e2225e385b9d1d44783ce0e5b64736f6c634300060c0033",
  "linkReferences": {},
  "deployedLinkReferences": {}
}