{
  "abi": [
    {
      "inputs": [
        {
          "internalType": "address",
          "name": "_policyManager",
          "type": "address"
        },
        {
          "internalType": "address",
          "name": "_addressListRegistry",
          "type": "address"
        },
        {
          "internalType": "address",
          "name": "_valueInterpreter",
          "type": "address"
        },
        {
          "internalType": "address",
          "name": "_wethToken",
          "type": "address"
        },
        {
          "internalType": "uint256",
          "name": "_bypassableAdaptersListId",
          "type": "uint256"
        },
        {
          "internalType": "uint256",
          "name": "_tolerancePeriodDuration",
          "type": "uint256"
        },
        {
          "internalType": "uint256",
          "name": "_pricelessAssetBypassTimelock",
          "type": "uint256"
        },
        {
          "internalType": "uint256",
          "name": "_pricelessAssetBypassTimeLimit",
          "type": "uint256"
        }
      ],
      "stateMutability": "nonpayable",
      "type": "constructor"
    },
    {
      "anonymous": false,
      "inputs": [
        {
          "indexed": true,
          "internalType": "address",
          "name": "comptrollerProxy",
          "type": "address"
        },
        {
          "indexed": false,
          "internalType": "uint256",
          "name": "nextCumulativeSlippage",
          "type": "uint256"
        }
      ],
      "name": "CumulativeSlippageUpdatedForFund",
      "type": "event"
    },
    {
      "anonymous": false,
      "inputs": [
        {
          "indexed": true,
          "internalType": "address",
          "name": "comptrollerProxy",
          "type": "address"
        },
        {
          "indexed": false,
          "internalType": "uint256",
          "name": "tolerance",
          "type": "uint256"
        }
      ],
      "name": "FundSettingsSet",
      "type": "event"
    },
    {
      "anonymous": false,
      "inputs": [
        {
          "indexed": true,
          "internalType": "address",
          "name": "comptrollerProxy",
          "type": "address"
        },
        {
          "indexed": true,
          "internalType": "address",
          "name": "asset",
          "type": "address"
        }
      ],
      "name": "PricelessAssetBypassed",
      "type": "event"
    },
    {
      "anonymous": false,
      "inputs": [
        {
          "indexed": true,
          "internalType": "address",
          "name": "comptrollerProxy",
          "type": "address"
        },
        {
          "indexed": true,
          "internalType": "address",
          "name": "asset",
          "type": "address"
        }
      ],
      "name": "PricelessAssetTimelockStarted",
      "type": "event"
    },
    {
      "inputs": [
        {
          "internalType": "address",
          "name": "",
          "type": "address"
        }
      ],
      "name": "activateForFund",
      "outputs": [],
      "stateMutability": "nonpayable",
      "type": "function"
    },
    {
      "inputs": [
        {
          "internalType": "address",
          "name": "_comptrollerProxy",
          "type": "address"
        },
        {
          "internalType": "bytes",
          "name": "_encodedSettings",
          "type": "bytes"
        }
      ],
      "name": "addFundSettings",
      "outputs": [],
      "stateMutability": "nonpayable",
      "type": "function"
    },
    {
      "inputs": [
        {
          "internalType": "address",
          "name": "_comptrollerProxy",
          "type": "address"
        },
        {
          "internalType": "address",
          "name": "_asset",
          "type": "address"
        }
      ],
      "name": "assetIsBypassableForFund",
      "outputs": [
        {
          "internalType": "bool",
          "name": "isBypassable_",
          "type": "bool"
        }
      ],
      "stateMutability": "view",
      "type": "function"
    },
    {
      "inputs": [],
      "name": "canDisable",
      "outputs": [
        {
          "internalType": "bool",
          "name": "canDisable_",
          "type": "bool"
        }
      ],
      "stateMutability": "pure",
      "type": "function"
    },
    {
      "inputs": [],
      "name": "getAddressListRegistry",
      "outputs": [
        {
          "internalType": "address",
          "name": "addressListRegistry_",
          "type": "address"
        }
      ],
      "stateMutability": "view",
      "type": "function"
    },
    {
      "inputs": [
        {
          "internalType": "address",
          "name": "_comptrollerProxy",
          "type": "address"
        },
        {
          "internalType": "address",
          "name": "_asset",
          "type": "address"
        }
      ],
      "name": "getAssetBypassWindowStartForFund",
      "outputs": [
        {
          "internalType": "uint256",
          "name": "windowStart_",
          "type": "uint256"
        }
      ],
      "stateMutability": "view",
      "type": "function"
    },
    {
      "inputs": [],
      "name": "getBypassableAdaptersListId",
      "outputs": [
        {
          "internalType": "uint256",
          "name": "bypassableAdaptersListId_",
          "type": "uint256"
        }
      ],
      "stateMutability": "view",
      "type": "function"
    },
    {
      "inputs": [
        {
          "internalType": "address",
          "name": "_comptrollerProxy",
          "type": "address"
        }
      ],
      "name": "getPolicyInfoForFund",
      "outputs": [
        {
          "components": [
            {
              "internalType": "uint64",
              "name": "tolerance",
              "type": "uint64"
            },
            {
              "internalType": "uint64",
              "name": "cumulativeSlippage",
              "type": "uint64"
            },
            {
              "internalType": "uint128",
              "name": "lastSlippageTimestamp",
              "type": "uint128"
            }
          ],
          "internalType": "struct CumulativeSlippageTolerancePolicy.PolicyInfo",
          "name": "policyInfo_",
          "type": "tuple"
        }
      ],
      "stateMutability": "view",
      "type": "function"
    },
    {
      "inputs": [],
      "name": "getPolicyManager",
      "outputs": [
        {
          "internalType": "address",
          "name": "policyManager_",
          "type": "address"
        }
      ],
      "stateMutability": "view",
      "type": "function"
    },
    {
      "inputs": [],
      "name": "getPricelessAssetBypassTimeLimit",
      "outputs": [
        {
          "internalType": "uint256",
          "name": "timeLimit_",
          "type": "uint256"
        }
      ],
      "stateMutability": "view",
      "type": "function"
    },
    {
      "inputs": [],
      "name": "getPricelessAssetBypassTimelock",
      "outputs": [
        {
          "internalType": "uint256",
          "name": "timelock_",
          "type": "uint256"
        }
      ],
      "stateMutability": "view",
      "type": "function"
    },
    {
      "inputs": [],
      "name": "getPricelessAssetBypassValueInterpreter",
      "outputs": [
        {
          "internalType": "address",
          "name": "valueInterpreter_",
          "type": "address"
        }
      ],
      "stateMutability": "view",
      "type": "function"
    },
    {
      "inputs": [],
      "name": "getPricelessAssetBypassWethToken",
      "outputs": [
        {
          "internalType": "address",
          "name": "wethToken_",
          "type": "address"
        }
      ],
      "stateMutability": "view",
      "type": "function"
    },
    {
      "inputs": [],
      "name": "getTolerancePeriodDuration",
      "outputs": [
        {
          "internalType": "uint256",
          "name": "tolerancePeriodDuration_",
          "type": "uint256"
        }
      ],
      "stateMutability": "view",
      "type": "function"
    },
    {
      "inputs": [],
      "name": "identifier",
      "outputs": [
        {
          "internalType": "string",
          "name": "identifier_",
          "type": "string"
        }
      ],
      "stateMutability": "pure",
      "type": "function"
    },
    {
      "inputs": [],
      "name": "implementedHooks",
      "outputs": [
        {
          "internalType": "enum IPolicyManager.PolicyHook[]",
          "name": "implementedHooks_",
          "type": "uint8[]"
        }
      ],
      "stateMutability": "pure",
      "type": "function"
    },
    {
      "inputs": [
        {
          "internalType": "address",
          "name": "_asset",
          "type": "address"
        }
      ],
      "name": "startAssetBypassTimelock",
      "outputs": [],
      "stateMutability": "nonpayable",
      "type": "function"
    },
    {
      "inputs": [
        {
          "internalType": "address",
          "name": "",
          "type": "address"
        },
        {
          "internalType": "bytes",
          "name": "",
          "type": "bytes"
        }
      ],
      "name": "updateFundSettings",
      "outputs": [],
      "stateMutability": "nonpayable",
      "type": "function"
    },
    {
      "inputs": [
        {
          "internalType": "address",
          "name": "_comptrollerProxy",
          "type": "address"
        },
        {
          "internalType": "enum IPolicyManager.PolicyHook",
          "name": "",
          "type": "uint8"
        },
        {
          "internalType": "bytes",
          "name": "_encodedArgs",
          "type": "bytes"
        }
      ],
      "name": "validateRule",
      "outputs": [
        {
          "internalType": "bool",
          "name": "isValid_",
          "type": "bool"
        }
      ],
      "stateMutability": "nonpayable",
      "type": "function"
    }
  ],
  "bytecode": {
    "object": "0x6101806040523480156200001257600080fd5b5060405162001b7138038062001b71833981016040819052620000359162000099565b6001600160601b0319606098891b811660805260a09290925260c05293861b841660e05291851b8316610100529290931b1661012052610140526101605262000194565b805162000086816200016f565b92915050565b8051620000868162000189565b600080600080600080600080610100898b031215620000b757600080fd5b6000620000c58b8b62000079565b9850506020620000d88b828c0162000079565b9750506040620000eb8b828c0162000079565b9650506060620000fe8b828c0162000079565b9550506080620001118b828c016200008c565b94505060a0620001248b828c016200008c565b93505060c0620001378b828c016200008c565b92505060e06200014a8b828c016200008c565b9150509295985092959890939650565b60006001600160a01b03821662000086565b90565b6200017a816200015a565b81146200018657600080fd5b50565b6200017a816200016c565b60805160601c60a05160c05160e05160601c6101005160601c6101205160601c6101405161016051611969620002086000398061094552508061098d52508061083552508061063952508061061052508061089052508061065d5250806104c7528061068c528061096952506119696000f3fe608060405234801561001057600080fd5b50600436106101215760003560e01c80635da4cdb2116100ad578063cbf54bb211610071578063cbf54bb21461022f578063ceb9a0ad14610244578063cf09a09214610257578063d44ad6cb1461025f578063e09da6811461026757610121565b80635da4cdb2146101e457806374708934146101f75780637998a1c4146101ff5780637fe292681461021457806385d63ec91461021c57610121565b80631ef92578116100f45780631ef925781461017f578063234dfb1714610194578063441053981461019c578063579be718146101b15780635bbb869c146101c457610121565b806307d2890e146101265780630d4d75101461013b5780630f5f6b4f1461014e57806314f8e61514610161575b600080fd5b610139610134366004610fd0565b61026f565b005b61013961014936600461113e565b6104a4565b61013961015c36600461113e565b6104bc565b61016961060e565b60405161017691906116a9565b60405180910390f35b610187610632565b604051610176919061170b565b610169610637565b6101a461065b565b60405161017691906117d8565b6101876101bf366004611193565b61067f565b6101d76101d2366004610fd0565b61079f565b60405161017691906117ca565b6101a46101f2366004611104565b610808565b610169610833565b610207610857565b6040516101769190611719565b6101a461088e565b61018761022a366004611104565b6108b2565b6102376108e9565b60405161017691906116fa565b610139610252366004610fd0565b610940565b6101a4610943565b610169610967565b6101a461098b565b6000336001600160a01b0316635a53e3486040518163ffffffff1660e01b815260040160206040518083038186803b1580156102aa57600080fd5b505afa1580156102be573d6000803e3d6000fd5b505050506040513d601f19601f820116820180604052508101906102e29190610fee565b9050806001600160a01b031663c98091876040518163ffffffff1660e01b815260040160206040518083038186803b15801561031d57600080fd5b505afa158015610331573d6000803e3d6000fd5b505050506040513d601f19601f820116820180604052508101906103559190610fee565b6001600160a01b0316336001600160a01b03161461038e5760405162461bcd60e51b8152600401610385906117ba565b60405180910390fd5b61039661060e565b6001600160a01b0316634c67e1068360016103af610637565b6040518463ffffffff1660e01b81526004016103cd939291906116b7565b602060405180830381600087803b1580156103e757600080fd5b505af1925050508015610417575060408051601f3d908101601f1916820190925261041491810190611218565b60015b6104875761042d61042661065b565b42906109af565b6001600160a01b0380831660008181526020818152604080832094881680845294909152808220949094559251919290917f76fadd0d061c0fa0e079ec4814cecf7f5f6f43e604f241551dd35b6c3c9a69809190a36104a0565b5060405162461bcd60e51b81526004016103859061176a565b5050565b60405162461bcd60e51b81526004016103859061173a565b336001600160a01b037f000000000000000000000000000000000000000000000000000000000000000016146105045760405162461bcd60e51b81526004016103859061179a565b600061051282840184611236565b9050670de0b6b3a7640000816001600160401b0316106105445760405162461bcd60e51b81526004016103859061177a565b604080516060810182526001600160401b038084168252600060208084018281528486018381526001600160a01b038b1680855260019093529286902094518554915193516001600160801b03908116600160801b02948616600160401b0267ffffffffffffffff60401b199290961667ffffffffffffffff199093169290921716939093179092161790915590517f27abf63785bf8ff6d81b909a910422392df35bed801ecf834d5b60c8e72b859490610600908490611801565b60405180910390a250505050565b7f000000000000000000000000000000000000000000000000000000000000000090565b600090565b7f000000000000000000000000000000000000000000000000000000000000000090565b7f000000000000000000000000000000000000000000000000000000000000000090565b6000336001600160a01b037f000000000000000000000000000000000000000000000000000000000000000016146106c95760405162461bcd60e51b81526004016103859061179a565b600060608060608061071088888080601f0160208091040260200160405190810160405280939291908181526020018383808284376000920191909152506109db92505050565b96509650965096505095505061072585610a11565b1561073857600195505050505050610797565b60006107478b86868686610a9f565b90508061075d5760019650505050505050610797565b6001600160a01b038b166000908152600160205260409020546001600160401b03168061078b8d8483610b24565b11159750505050505050505b949350505050565b6107a7610e2c565b506001600160a01b038116600090815260016020908152604091829020825160608101845290546001600160401b038082168352600160401b82041692820192909252600160801b9091046001600160801b0316918101919091525b919050565b6001600160a01b03808316600090815260208181526040808320938516835292905220545b92915050565b7f000000000000000000000000000000000000000000000000000000000000000090565b60408051808201909152601d81527f43554d554c41544956455f534c4950504147455f544f4c4552414e4345000000602082015290565b7f000000000000000000000000000000000000000000000000000000000000000090565b6000806108bf8484610808565b90504281111580156107975750426108df6108d861088e565b83906109af565b1015949350505050565b6040805160018082528183019092526060916020808301908036833701905050905060018160008151811061091a57fe5b6020026020010190600981111561092d57fe5b9081600981111561093a57fe5b90525090565b50565b7f000000000000000000000000000000000000000000000000000000000000000090565b7f000000000000000000000000000000000000000000000000000000000000000090565b7f000000000000000000000000000000000000000000000000000000000000000090565b6000828201838110156109d45760405162461bcd60e51b81526004016103859061172a565b9392505050565b6000806000606080606080878060200190518101906109fa919061100c565b959e949d50929b5090995097509550909350915050565b6000610a1b610833565b6001600160a01b0316631c563204610a3161098b565b846040518363ffffffff1660e01b8152600401610a4f9291906117e6565b60206040518083038186803b158015610a6757600080fd5b505afa158015610a7b573d6000803e3d6000fd5b505050506040513d601f19601f8201168201806040525081019061082d91906111fa565b600080610ab5878585610ab0610637565b610c3f565b905080610ac6576000915050610b1b565b6000610ad6888888610ab0610637565b905080821115610b14576000610aec8383610c94565b9050610b0a83610b0483670de0b6b3a7640000610cbc565b90610cf6565b9350505050610b1b565b6000925050505b95945050505050565b6001600160a01b03831660009081526001602052604090208054600160401b90046001600160401b0316908115610bac576000610b8a610b62610943565b8354610b0490610b83904290600160801b90046001600160801b0316610c94565b8790610cbc565b905082811015610ba557610b9e8382610c94565b9250610baa565b600092505b505b610bb682856109af565b81546001600160801b03428116600160801b026001600160401b038416600160401b0267ffffffffffffffff60401b1990931692909217161782556040519092506001600160a01b038616907f4f2b5515347f3a595b0228c4e8afea6d14c5f08c4038241a43473ea876f6273990610c2f9085906117d8565b60405180910390a2509392505050565b6000805b8451811015610c8b57610c816108d887878481518110610c5f57fe5b6020026020010151878581518110610c7357fe5b602002602001015187610d28565b9150600101610c43565b50949350505050565b600082821115610cb65760405162461bcd60e51b81526004016103859061174a565b50900390565b600082610ccb5750600061082d565b82820282848281610cd857fe5b04146109d45760405162461bcd60e51b81526004016103859061178a565b6000808211610d175760405162461bcd60e51b81526004016103859061175a565b818381610d2057fe5b049392505050565b6000610d3261060e565b6001600160a01b0316634c67e1068585856040518463ffffffff1660e01b8152600401610d61939291906116df565b602060405180830381600087803b158015610d7b57600080fd5b505af1925050508015610dab575060408051601f3d908101601f19168201909252610da891810190611218565b60015b610e1a57610db985856108b2565b610dd55760405162461bcd60e51b8152600401610385906117aa565b836001600160a01b0316856001600160a01b03167fa2de3d3e85d58ec3c62bcbd0a67a60fac9f9002f6e70cfe768a49fa19d7dcf4660405160405180910390a3610e21565b9050610797565b506000949350505050565b604080516060810182526000808252602082018190529181019190915290565b803561082d81611917565b805161082d81611917565b600082601f830112610e7357600080fd5b8151610e86610e8182611835565b61180f565b91508181835260208401935060208101905083856020840282011115610eab57600080fd5b60005b83811015610ed75781610ec18882610e57565b8452506020928301929190910190600101610eae565b5050505092915050565b600082601f830112610ef257600080fd5b8151610f00610e8182611835565b91508181835260208401935060208101905083856020840282011115610f2557600080fd5b60005b83811015610ed75781610f3b8882610fba565b8452506020928301929190910190600101610f28565b805161082d8161192b565b805161082d81611934565b60008083601f840112610f7957600080fd5b5081356001600160401b03811115610f9057600080fd5b602083019150836001820283011115610fa857600080fd5b9250929050565b803561082d8161193d565b805161082d8161194a565b803561082d81611953565b600060208284031215610fe257600080fd5b60006107978484610e4c565b60006020828403121561100057600080fd5b60006107978484610e57565b600080600080600080600060e0888a03121561102757600080fd5b60006110338a8a610e57565b97505060206110448a828b01610e57565b96505060406110558a828b01610f5c565b95505060608801516001600160401b0381111561107157600080fd5b61107d8a828b01610e62565b94505060808801516001600160401b0381111561109957600080fd5b6110a58a828b01610ee1565b93505060a08801516001600160401b038111156110c157600080fd5b6110cd8a828b01610e62565b92505060c08801516001600160401b038111156110e957600080fd5b6110f58a828b01610ee1565b91505092959891949750929550565b6000806040838503121561111757600080fd5b60006111238585610e4c565b925050602061113485828601610e4c565b9150509250929050565b60008060006040848603121561115357600080fd5b600061115f8686610e4c565b93505060208401356001600160401b0381111561117b57600080fd5b61118786828701610f67565b92509250509250925092565b600080600080606085870312156111a957600080fd5b60006111b58787610e4c565b94505060206111c687828801610faf565b93505060408501356001600160401b038111156111e257600080fd5b6111ee87828801610f67565b95989497509550505050565b60006020828403121561120c57600080fd5b60006107978484610f51565b60006020828403121561122a57600080fd5b60006107978484610fba565b60006020828403121561124857600080fd5b60006107978484610fc5565b600061126083836112d9565b505060200190565b61127181611868565b82525050565b60006112828261185b565b61128c818561185f565b935061129783611855565b8060005b838110156112c55781516112af8882611254565b97506112ba83611855565b92505060010161129b565b509495945050505050565b61127181611873565b611271816118b6565b611271816118c1565b60006112f68261185b565b611300818561185f565b93506113108185602086016118d7565b61131981611903565b9093019392505050565b6000611330601b8361185f565b7f536166654d6174683a206164646974696f6e206f766572666c6f770000000000815260200192915050565b600061136960378361185f565b7f75706461746546756e6453657474696e67733a2055706461746573206e6f742081527f616c6c6f77656420666f72207468697320706f6c696379000000000000000000602082015260400192915050565b60006113c8601e8361185f565b7f536166654d6174683a207375627472616374696f6e206f766572666c6f770000815260200192915050565b6000611401601a8361185f565b7f536166654d6174683a206469766973696f6e206279207a65726f000000000000815260200192915050565b600061143a602b8361185f565b7f7374617274417373657442797061737354696d656c6f636b3a2041737365742081526a686173206120707269636560a81b602082015260400192915050565b600061148760278361185f565b7f61646446756e6453657474696e67733a204d617820746f6c6572616e636520658152661e18d95959195960ca1b602082015260400192915050565b60006114d060218361185f565b7f536166654d6174683a206d756c7469706c69636174696f6e206f766572666c6f8152607760f81b602082015260400192915050565b600061151360298361185f565b7f4f6e6c792074686520506f6c6963794d616e616765722063616e206d616b65208152681d1a1a5cc818d85b1b60ba1b602082015260400192915050565b600061155e604a8361185f565b7f5f5f63616c6356616c75654578636c7564696e6742797061737361626c65507281527f6963656c65737341737365743a20496e76616c6964206173736574206e6f742060208201526962797061737361626c6560b01b604082015260600192915050565b60006115d060598361185f565b7f7374617274417373657442797061737354696d656c6f636b3a2053656e64657281527f206973206e6f7420746865205661756c7450726f7879206f662074686520617360208201527f736f63696174656420436f6d7074726f6c6c657250726f787900000000000000604082015260600192915050565b8051606083019061165984826116a0565b50602082015161166c60208501826116a0565b50604082015161167f6040850182611685565b50505050565b6112718161188f565b611271816118a7565b611271816118cc565b611271816118aa565b6020810161082d8284611268565b606081016116c58286611268565b6116d260208301856112e2565b6107976040830184611268565b606081016116ed8286611268565b6116d2602083018561168e565b602080825281016109d48184611277565b6020810161082d82846112d0565b602080825281016109d481846112eb565b6020808252810161082d81611323565b6020808252810161082d8161135c565b6020808252810161082d816113bb565b6020808252810161082d816113f4565b6020808252810161082d8161142d565b6020808252810161082d8161147a565b6020808252810161082d816114c3565b6020808252810161082d81611506565b6020808252810161082d81611551565b6020808252810161082d816115c3565b6060810161082d8284611648565b6020810161082d828461168e565b604081016117f4828561168e565b6109d46020830184611268565b6020810161082d8284611697565b6040518181016001600160401b038111828210171561182d57600080fd5b604052919050565b60006001600160401b0382111561184b57600080fd5b5060209081020190565b60200190565b5190565b90815260200190565b600061082d8261189b565b151590565b6001600160e01b03191690565b806108038161190d565b6001600160801b031690565b6001600160a01b031690565b90565b6001600160401b031690565b600061082d82611885565b600061082d826118a7565b600061082d826118aa565b60005b838110156118f25781810151838201526020016118da565b8381111561167f5750506000910152565b601f01601f191690565b600a811061094057fe5b61192081611868565b811461094057600080fd5b61192081611873565b61192081611878565b600a811061094057600080fd5b611920816118a7565b611920816118aa56fea164736f6c634300060c000a",
    "linkReferences": {}
  },
  "methodIdentifiers": {
    "activateForFund(address)": "ceb9a0ad",
    "addFundSettings(address,bytes)": "0f5f6b4f",
    "assetIsBypassableForFund(address,address)": "85d63ec9",
    "canDisable()": "1ef92578",
    "getAddressListRegistry()": "74708934",
    "getAssetBypassWindowStartForFund(address,address)": "5da4cdb2",
    "getBypassableAdaptersListId()": "e09da681",
    "getPolicyInfoForFund(address)": "5bbb869c",
    "getPolicyManager()": "d44ad6cb",
    "getPricelessAssetBypassTimeLimit()": "7fe29268",
    "getPricelessAssetBypassTimelock()": "44105398",
    "getPricelessAssetBypassValueInterpreter()": "14f8e615",
    "getPricelessAssetBypassWethToken()": "234dfb17",
    "getTolerancePeriodDuration()": "cf09a092",
    "identifier()": "7998a1c4",
    "implementedHooks()": "cbf54bb2",
    "startAssetBypassTimelock(address)": "07d2890e",
    "updateFundSettings(address,bytes)": "0d4d7510",
    "validateRule(address,uint8,bytes)": "579be718"
  },
  "id": 39
}