{
  "abi": [
    {
      "inputs": [
        {
          "internalType": "address",
          "name": "_fundDeployer",
          "type": "address"
        },
        {
          "internalType": "address",
          "name": "_addressProvider",
          "type": "address"
        },
        {
          "internalType": "address",
          "name": "_poolOwner",
          "type": "address"
        },
        {
          "internalType": "uint256",
          "name": "_virtualPriceDeviationThreshold",
          "type": "uint256"
        }
      ],
      "stateMutability": "nonpayable",
      "type": "constructor"
    },
    {
      "anonymous": false,
      "inputs": [
        {
          "indexed": false,
          "internalType": "address",
          "name": "poolOwner",
          "type": "address"
        }
      ],
      "name": "CurvePoolOwnerSet",
      "type": "event"
    },
    {
      "anonymous": false,
      "inputs": [
        {
          "indexed": true,
          "internalType": "address",
          "name": "derivative",
          "type": "address"
        },
        {
          "indexed": true,
          "internalType": "address",
          "name": "pool",
          "type": "address"
        }
      ],
      "name": "DerivativeAdded",
      "type": "event"
    },
    {
      "anonymous": false,
      "inputs": [
        {
          "indexed": true,
          "internalType": "address",
          "name": "derivative",
          "type": "address"
        }
      ],
      "name": "DerivativeRemoved",
      "type": "event"
    },
    {
      "anonymous": false,
      "inputs": [
        {
          "indexed": true,
          "internalType": "address",
          "name": "pool",
          "type": "address"
        },
        {
          "indexed": true,
          "internalType": "address",
          "name": "invariantProxyAsset",
          "type": "address"
        }
      ],
      "name": "InvariantProxyAssetForPoolSet",
      "type": "event"
    },
    {
      "anonymous": false,
      "inputs": [
        {
          "indexed": true,
          "internalType": "address",
          "name": "pool",
          "type": "address"
        }
      ],
      "name": "PoolRemoved",
      "type": "event"
    },
    {
      "anonymous": false,
      "inputs": [
        {
          "indexed": true,
          "internalType": "address",
          "name": "pool",
          "type": "address"
        },
        {
          "indexed": false,
          "internalType": "uint256",
          "name": "virtualPrice",
          "type": "uint256"
        }
      ],
      "name": "ValidatedVirtualPriceForPoolUpdated",
      "type": "event"
    },
    {
      "inputs": [
        {
          "internalType": "address[]",
          "name": "_gaugeTokens",
          "type": "address[]"
        },
        {
          "internalType": "address[]",
          "name": "_pools",
          "type": "address[]"
        }
      ],
      "name": "addGaugeTokens",
      "outputs": [],
      "stateMutability": "nonpayable",
      "type": "function"
    },
    {
      "inputs": [
        {
          "internalType": "address[]",
          "name": "_gaugeTokens",
          "type": "address[]"
        },
        {
          "internalType": "address[]",
          "name": "_pools",
          "type": "address[]"
        }
      ],
      "name": "addGaugeTokensWithoutValidation",
      "outputs": [],
      "stateMutability": "nonpayable",
      "type": "function"
    },
    {
      "inputs": [
        {
          "internalType": "address[]",
          "name": "_pools",
          "type": "address[]"
        },
        {
          "internalType": "address[]",
          "name": "_invariantProxyAssets",
          "type": "address[]"
        },
        {
          "internalType": "bool[]",
          "name": "_reentrantVirtualPrices",
          "type": "bool[]"
        },
        {
          "internalType": "address[]",
          "name": "_lpTokens",
          "type": "address[]"
        },
        {
          "internalType": "address[]",
          "name": "_gaugeTokens",
          "type": "address[]"
        }
      ],
      "name": "addPools",
      "outputs": [],
      "stateMutability": "nonpayable",
      "type": "function"
    },
    {
      "inputs": [
        {
          "internalType": "address[]",
          "name": "_pools",
          "type": "address[]"
        },
        {
          "internalType": "address[]",
          "name": "_invariantProxyAssets",
          "type": "address[]"
        },
        {
          "internalType": "bool[]",
          "name": "_reentrantVirtualPrices",
          "type": "bool[]"
        },
        {
          "internalType": "address[]",
          "name": "_lpTokens",
          "type": "address[]"
        },
        {
          "internalType": "address[]",
          "name": "_gaugeTokens",
          "type": "address[]"
        }
      ],
      "name": "addPoolsWithoutValidation",
      "outputs": [],
      "stateMutability": "nonpayable",
      "type": "function"
    },
    {
      "inputs": [
        {
          "internalType": "address",
          "name": "_derivative",
          "type": "address"
        },
        {
          "internalType": "uint256",
          "name": "_derivativeAmount",
          "type": "uint256"
        }
      ],
      "name": "calcUnderlyingValues",
      "outputs": [
        {
          "internalType": "address[]",
          "name": "underlyings_",
          "type": "address[]"
        },
        {
          "internalType": "uint256[]",
          "name": "underlyingAmounts_",
          "type": "uint256[]"
        }
      ],
      "stateMutability": "nonpayable",
      "type": "function"
    },
    {
      "inputs": [],
      "name": "getCurvePoolOwner",
      "outputs": [
        {
          "internalType": "address",
          "name": "poolOwner_",
          "type": "address"
        }
      ],
      "stateMutability": "view",
      "type": "function"
    },
    {
      "inputs": [],
      "name": "getFundDeployer",
      "outputs": [
        {
          "internalType": "address",
          "name": "fundDeployer_",
          "type": "address"
        }
      ],
      "stateMutability": "view",
      "type": "function"
    },
    {
      "inputs": [
        {
          "internalType": "address",
          "name": "_pool",
          "type": "address"
        }
      ],
      "name": "getLpTokenForPool",
      "outputs": [
        {
          "internalType": "address",
          "name": "lpToken_",
          "type": "address"
        }
      ],
      "stateMutability": "view",
      "type": "function"
    },
    {
      "inputs": [],
      "name": "getOwner",
      "outputs": [
        {
          "internalType": "address",
          "name": "owner_",
          "type": "address"
        }
      ],
      "stateMutability": "view",
      "type": "function"
    },
    {
      "inputs": [
        {
          "internalType": "address",
          "name": "_derivative",
          "type": "address"
        }
      ],
      "name": "getPoolForDerivative",
      "outputs": [
        {
          "internalType": "address",
          "name": "pool_",
          "type": "address"
        }
      ],
      "stateMutability": "view",
      "type": "function"
    },
    {
      "inputs": [
        {
          "internalType": "address",
          "name": "_pool",
          "type": "address"
        }
      ],
      "name": "getPoolInfo",
      "outputs": [
        {
          "components": [
            {
              "internalType": "address",
              "name": "invariantProxyAsset",
              "type": "address"
            },
            {
              "internalType": "uint8",
              "name": "invariantProxyAssetDecimals",
              "type": "uint8"
            },
            {
              "internalType": "uint88",
              "name": "lastValidatedVirtualPrice",
              "type": "uint88"
            }
          ],
          "internalType": "struct CurvePriceFeed.PoolInfo",
          "name": "poolInfo_",
          "type": "tuple"
        }
      ],
      "stateMutability": "view",
      "type": "function"
    },
    {
      "inputs": [
        {
          "internalType": "address",
          "name": "_asset",
          "type": "address"
        }
      ],
      "name": "isSupportedAsset",
      "outputs": [
        {
          "internalType": "bool",
          "name": "isSupported_",
          "type": "bool"
        }
      ],
      "stateMutability": "view",
      "type": "function"
    },
    {
      "inputs": [
        {
          "internalType": "address[]",
          "name": "_derivatives",
          "type": "address[]"
        }
      ],
      "name": "removeDerivatives",
      "outputs": [],
      "stateMutability": "nonpayable",
      "type": "function"
    },
    {
      "inputs": [
        {
          "internalType": "address[]",
          "name": "_pools",
          "type": "address[]"
        }
      ],
      "name": "removePools",
      "outputs": [],
      "stateMutability": "nonpayable",
      "type": "function"
    },
    {
      "inputs": [
        {
          "internalType": "address",
          "name": "_nextPoolOwner",
          "type": "address"
        }
      ],
      "name": "setCurvePoolOwner",
      "outputs": [],
      "stateMutability": "nonpayable",
      "type": "function"
    },
    {
      "inputs": [
        {
          "internalType": "address[]",
          "name": "_pools",
          "type": "address[]"
        },
        {
          "internalType": "address[]",
          "name": "_invariantProxyAssets",
          "type": "address[]"
        },
        {
          "internalType": "bool[]",
          "name": "_reentrantVirtualPrices",
          "type": "bool[]"
        }
      ],
      "name": "updatePoolInfo",
      "outputs": [],
      "stateMutability": "nonpayable",
      "type": "function"
    }
  ],
  "bytecode": {
    "object": "0x60e06040523480156200001157600080fd5b50604051620028cb380380620028cb8339810160408190526200003491620000e0565b6001600160601b0319606085811b821660805284901b1660a05260c08190526200005e8262000068565b50505050620001a5565b600080546001600160a01b0319166001600160a01b0383161790556040517f285938205335d4bea92402795be7d763d8fdcf6b363506d1e419f026c37f44bd90620000b59083906200015b565b60405180910390a150565b8051620000cd8162000180565b92915050565b8051620000cd816200019a565b60008060008060808587031215620000f757600080fd5b6000620001058787620000c0565b94505060206200011887828801620000c0565b93505060406200012b87828801620000c0565b92505060606200013e87828801620000d3565b91505092959194509250565b62000155816200016b565b82525050565b60208101620000cd82846200014a565b60006001600160a01b038216620000cd565b90565b6200018b816200016b565b81146200019757600080fd5b50565b6200018b816200017d565b60805160601c60a05160601c60c0516126e9620001e2600039806114bc525080610ece5280610f3f525080610bc65280610d4952506126e96000f3fe608060405234801561001057600080fd5b50600436106101005760003560e01c8063727212f6116100975780639be918e6116100665780639be918e614610206578063bb5c7b1514610226578063f044506b1461022e578063f6d959c31461024157610100565b8063727212f6146101c2578063893d20e8146101e35780638f72b136146101eb57806397c0ac87146101fe57610100565b80634b164140116100d35780634b1641401461017657806351e7d01f14610189578063540eaddc1461019c5780636a2175c0146101af57610100565b80630254f0541461010557806305ecc2d41461011a57806306bfa9381461012d5780631f5bce5514610156575b600080fd5b610118610113366004611dab565b610254565b005b610118610128366004611bae565b6105cc565b61014061013b366004611bae565b610610565b60405161014d91906125fb565b60405180910390f35b610169610164366004611bae565b61066e565b60405161014d91906124aa565b610118610184366004611c5e565b61068c565b610118610197366004611c9f565b6107c0565b6101186101aa366004611dab565b61093c565b6101696101bd366004611bae565b610992565b6101d56101d0366004611bf2565b6109b0565b60405161014d9291906124b8565b610169610bc2565b6101186101f9366004611c5e565b610c5a565b610169610d47565b610219610214366004611bae565b610d6b565b60405161014d91906124dd565b610169610d88565b61011861023c366004611d0d565b610d97565b61011861024f366004611c9f565b610e80565b61025c610bc2565b6001600160a01b0316336001600160a01b0316146102955760405162461bcd60e51b815260040161028c906124fb565b60405180910390fd5b600061029f610eca565b905060006102ab610f25565b905060005b8b8110156105ab57826001600160a01b031663379510498e8e848181106102d357fe5b90506020020160208101906102e89190611bae565b6040518263ffffffff1660e01b815260040161030491906124aa565b60206040518083038186803b15801561031c57600080fd5b505afa158015610330573d6000803e3d6000fd5b505050506040513d601f19601f820116820180604052508101906103549190611bd4565b6001600160a01b031687878381811061036957fe5b905060200201602081019061037e9190611bae565b6001600160a01b0316141561040e57600085858381811061039b57fe5b90506020020160208101906103b09190611bae565b6001600160a01b031614610409576104098585838181106103cd57fe5b90506020020160208101906103e29190611bae565b8e8e848181106103ee57fe5b90506020020160208101906104039190611bae565b85610f8d565b6105a3565b8c8c8281811061041a57fe5b905060200201602081019061042f9190611bae565b6001600160a01b031687878381811061044457fe5b90506020020160208101906104599190611bae565b6001600160a01b031614801561050a57506000826001600160a01b031663940494f18f8f8581811061048757fe5b905060200201602081019061049c9190611bae565b6040518263ffffffff1660e01b81526004016104b891906124aa565b60206040518083038186803b1580156104d057600080fd5b505afa1580156104e4573d6000803e3d6000fd5b505050506040513d601f19601f820116820180604052508101906105089190611ec6565b115b1561058b57600085858381811061051d57fe5b90506020020160208101906105329190611bae565b6001600160a01b0316146104095761040985858381811061054f57fe5b90506020020160208101906105649190611bae565b8e8e8481811061057057fe5b90506020020160208101906105859190611bae565b84611073565b60405162461bcd60e51b815260040161028c906125cb565b6001016102b0565b506105be8c8c8c8c8c8c8c8c8c8c61111f565b505050505050505050505050565b6105d4610bc2565b6001600160a01b0316336001600160a01b0316146106045760405162461bcd60e51b815260040161028c906124fb565b61060d81611390565b50565b610618611a10565b506001600160a01b03908116600090815260026020908152604091829020825160608101845290549384168152600160a01b840460ff1691810191909152600160a81b9092046001600160581b03169082015290565b6001600160a01b039081166000908152600360205260409020541690565b610694610bc2565b6001600160a01b0316336001600160a01b0316146106c45760405162461bcd60e51b815260040161028c906124fb565b60005b818110156107bb57600260008484848181106106df57fe5b90506020020160208101906106f49190611bae565b6001600160a01b031681526020810191909152604001600090812081905560039084848481811061072157fe5b90506020020160208101906107369190611bae565b6001600160a01b03168152602081019190915260400160002080546001600160a01b031916905582828281811061076957fe5b905060200201602081019061077e9190611bae565b6001600160a01b03167f4106dfdaa577573db51c0ca93f766dbedfa0758faa2e7f5bcdb7c142be803c3f60405160405180910390a26001016106c7565b505050565b6107c8610bc2565b6001600160a01b0316336001600160a01b0316146107f85760405162461bcd60e51b815260040161028c906124fb565b6000610802610eca565b9050600061080e610f25565b905060005b858110156109275786868281811061082757fe5b905060200201602081019061083c9190611bae565b6001600160a01b0316826001600160a01b031663daf297b987878581811061086057fe5b90506020020160208101906108759190611bae565b6040518263ffffffff1660e01b815260040161089191906124aa565b60206040518083038186803b1580156108a957600080fd5b505afa1580156108bd573d6000803e3d6000fd5b505050506040513d601f19601f820116820180604052508101906108e19190611bd4565b6001600160a01b03161461091f5761091f8787838181106108fe57fe5b90506020020160208101906109139190611bae565b8686848181106103ee57fe5b600101610813565b50610934868686866113e6565b505050505050565b610944610bc2565b6001600160a01b0316336001600160a01b0316146109745760405162461bcd60e51b815260040161028c906124fb565b6109868a8a8a8a8a8a8a8a8a8a61111f565b50505050505050505050565b6001600160a01b039081166000908152600160205260409020541690565b60608060006109be85610992565b90506001600160a01b0381166109e65760405162461bcd60e51b815260040161028c906124eb565b6109ee611a10565b6109f782610610565b90506000826001600160a01b031663bb7b8b806040518163ffffffff1660e01b815260040160206040518083038186803b158015610a3457600080fd5b505afa158015610a48573d6000803e3d6000fd5b505050506040513d601f19601f82011682018060405250810190610a6c9190611ec6565b9050600082604001516001600160581b0316118015610a9d5750610a9d8183604001516001600160581b0316611487565b15610aac57610aac83826114ea565b6040805160018082528183019092529060208083019080368337019050509450816000015185600081518110610ade57fe5b6001600160a01b0392909216602092830291909101820152604080516001808252818301909252918281019080368337019050509350816020015160ff1660121415610b5e57610b40670de0b6b3a7640000610b3a8884611565565b906115a6565b84600081518110610b4d57fe5b602002602001018181525050610bb7565b610b9d670de0b6b3a7640000610b3a670de0b6b3a7640000610b3a866020015160ff16600a0a610b97878d61156590919063ffffffff16565b90611565565b84600081518110610baa57fe5b6020026020010181815250505b5050505b9250929050565b60007f00000000000000000000000000000000000000000000000000000000000000006001600160a01b031663893d20e86040518163ffffffff1660e01b815260040160206040518083038186803b158015610c1d57600080fd5b505afa158015610c31573d6000803e3d6000fd5b505050506040513d601f19601f82011682018060405250810190610c559190611bd4565b905090565b610c62610bc2565b6001600160a01b0316336001600160a01b031614610c925760405162461bcd60e51b815260040161028c906124fb565b60005b818110156107bb5760016000848484818110610cad57fe5b9050602002016020810190610cc29190611bae565b6001600160a01b03168152602081019190915260400160002080546001600160a01b0319169055828282818110610cf557fe5b9050602002016020810190610d0a9190611bae565b6001600160a01b03167fc15eb25d807b570f4567baf6e97c7b26d58a7d0512dc85e8db15375a056b860460405160405180910390a2600101610c95565b7f000000000000000000000000000000000000000000000000000000000000000090565b600080610d7783610992565b6001600160a01b0316141592915050565b6000546001600160a01b031690565b610d9f610bc2565b6001600160a01b0316336001600160a01b031614610dcf5760405162461bcd60e51b815260040161028c906124fb565b8483148015610ddd57508481145b610df95760405162461bcd60e51b815260040161028c906125db565b60005b85811015610e7757610e6f878783818110610e1357fe5b9050602002016020810190610e289190611bae565b868684818110610e3457fe5b9050602002016020810190610e499190611bae565b858585818110610e5557fe5b9050602002016020810190610e6a9190611ea8565b6115d8565b600101610dfc565b50505050505050565b610e88610bc2565b6001600160a01b0316336001600160a01b031614610eb85760405162461bcd60e51b815260040161028c906124fb565b610ec4848484846113e6565b50505050565b60007f00000000000000000000000000000000000000000000000000000000000000006001600160a01b031663a262904b6040518163ffffffff1660e01b815260040160206040518083038186803b158015610c1d57600080fd5b60405163124fd3dd60e21b81526000906001600160a01b037f0000000000000000000000000000000000000000000000000000000000000000169063493f4f7490610f7590600390600401612609565b60206040518083038186803b158015610c1d57600080fd5b610f95611a30565b6040516356059ffb60e01b81526001600160a01b038316906356059ffb90610fc19086906004016124aa565b6102806040518083038186803b158015610fda57600080fd5b505afa158015610fee573d6000803e3d6000fd5b505050506040513d601f19601f820116820180604052508101906110129190611c2c565b50905060005b600a81101561105a578181600a811061102d57fe5b60200201516001600160a01b0316856001600160a01b031614156110525750506107bb565b600101611018565b5060405162461bcd60e51b815260040161028c9061259b565b60405163daf297b960e01b81526001600160a01b0382169063daf297b99061109f9085906004016124aa565b60206040518083038186803b1580156110b757600080fd5b505afa1580156110cb573d6000803e3d6000fd5b505050506040513d601f19601f820116820180604052508101906110ef9190611bd4565b6001600160a01b0316836001600160a01b0316146107bb5760405162461bcd60e51b815260040161028c906125ab565b888714801561112d57508885145b801561113857508883145b801561114357508881145b61115f5760405162461bcd60e51b815260040161028c9061250b565b60005b8981101561138357600085858381811061117857fe5b905060200201602081019061118d9190611bae565b6001600160a01b031614156111b45760405162461bcd60e51b815260040161028c9061258b565b60006111da8c8c848181106111c557fe5b90506020020160208101906101649190611bae565b6001600160a01b0316146112005760405162461bcd60e51b815260040161028c9061255b565b6112298b8b8381811061120f57fe5b90506020020160208101906112249190611bae565b6117dc565b61127a8b8b8381811061123857fe5b905060200201602081019061124d9190611bae565b8a8a8481811061125957fe5b905060200201602081019061126e9190611bae565b898985818110610e5557fe5b84848281811061128657fe5b905060200201602081019061129b9190611bae565b600360008d8d858181106112ab57fe5b90506020020160208101906112c09190611bae565b6001600160a01b039081168252602082019290925260400160002080546001600160a01b0319169290911691909117905561133b85858381811061130057fe5b90506020020160208101906113159190611bae565b8c8c8481811061132157fe5b90506020020160208101906113369190611bae565b61186c565b600083838381811061134957fe5b905060200201602081019061135e9190611bae565b6001600160a01b03161461137b5761137b83838381811061130057fe5b600101611162565b5050505050505050505050565b600080546001600160a01b0319166001600160a01b0383161790556040517f285938205335d4bea92402795be7d763d8fdcf6b363506d1e419f026c37f44bd906113db9083906124aa565b60405180910390a150565b8281146114055760405162461bcd60e51b815260040161028c9061252b565b60005b838110156114805760006114218484848181106111c557fe5b6001600160a01b031614156114485760405162461bcd60e51b815260040161028c906125eb565b61147885858381811061145757fe5b905060200201602081019061146c9190611bae565b84848481811061132157fe5b600101611408565b5050505050565b600080828411156114a35761149c8484611987565b90506114b0565b6114ad8385611987565b90505b6114e0612710610b3a857f0000000000000000000000000000000000000000000000000000000000000000611565565b1090505b92915050565b6114f3826119af565b6001600160a01b0382166000818152600260205260409081902080546001600160a81b0316600160a81b6001600160581b03861602179055517fe4e8751d7ee9680c15b1a348b174e860467c86da7f4da037714ff62621947fb590611559908490612609565b60405180910390a25050565b600082611574575060006114e4565b8282028284828161158157fe5b041461159f5760405162461bcd60e51b815260040161028c9061256b565b9392505050565b60008082116115c75760405162461bcd60e51b815260040161028c9061253b565b8183816115d057fe5b049392505050565b6000811561169e576115e9846119af565b836001600160a01b031663bb7b8b806040518163ffffffff1660e01b815260040160206040518083038186803b15801561162257600080fd5b505afa158015611636573d6000803e3d6000fd5b505050506040513d601f19601f8201168201806040525081019061165a9190611ec6565b9050836001600160a01b03167fe4e8751d7ee9680c15b1a348b174e860467c86da7f4da037714ff62621947fb5826040516116959190612609565b60405180910390a25b6040518060600160405280846001600160a01b03168152602001846001600160a01b031663313ce5676040518163ffffffff1660e01b815260040160206040518083038186803b1580156116f157600080fd5b505afa158015611705573d6000803e3d6000fd5b505050506040513d601f19601f820116820180604052508101906117299190611ee4565b60ff90811682526001600160581b038481166020938401526001600160a01b03888116600081815260028652604080822088518154988a0151998301516001600160a01b03199099169086161760ff60a01b1916600160a01b9990971698909802959095176001600160a81b0316600160a81b96909416959095029290921790945590519286169290917fd748ce6086753f34f4a44a74c6e4ca397bcb452a0ce8389ba826794b0bd77dc391a350505050565b6000816001600160a01b031663bb7b8b806040518163ffffffff1660e01b815260040160206040518083038186803b15801561181757600080fd5b505afa15801561182b573d6000803e3d6000fd5b505050506040513d601f19601f8201168201806040525081019061184f9190611ec6565b1161060d5760405162461bcd60e51b815260040161028c9061254b565b600061187783610992565b6001600160a01b03161461189d5760405162461bcd60e51b815260040161028c906125bb565b816001600160a01b031663313ce5676040518163ffffffff1660e01b815260040160206040518083038186803b1580156118d657600080fd5b505afa1580156118ea573d6000803e3d6000fd5b505050506040513d601f19601f8201168201806040525081019061190e9190611ee4565b60ff166012146119305760405162461bcd60e51b815260040161028c9061257b565b6001600160a01b0382811660008181526001602052604080822080546001600160a01b0319169486169485179055517faa4ae250fb435bb4b31ed0b95822bc179fc6c5dd0c727c3ffe08d444025efd989190a35050565b6000828211156119a95760405162461bcd60e51b815260040161028c9061251b565b50900390565b6119b7610d88565b6001600160a01b031663e4e67c0f826040518263ffffffff1660e01b81526004016119e291906124aa565b600060405180830381600087803b1580156119fc57600080fd5b505af1158015611480573d6000803e3d6000fd5b604080516060810182526000808252602082018190529181019190915290565b604051806101400160405280600a906020820280368337509192915050565b80356114e4816126a4565b80516114e4816126a4565b600082601f830112611a7657600080fd5b600a611a89611a848261263d565b612617565b91508183856020840282011115611a9f57600080fd5b60005b83811015611acb5781611ab58882611a5a565b8452506020928301929190910190600101611aa2565b5050505092915050565b60008083601f840112611ae757600080fd5b5081356001600160401b03811115611afe57600080fd5b602083019150836020820283011115610bbb57600080fd5b600082601f830112611b2757600080fd5b600a611b35611a848261263d565b91508183856020840282011115611b4b57600080fd5b60005b83811015611acb5781611b618882611b82565b8452506020928301929190910190600101611b4e565b80356114e4816126b8565b80516114e4816126c1565b80356114e4816126ca565b80516114e4816126ca565b80516114e4816126d3565b600060208284031215611bc057600080fd5b6000611bcc8484611a4f565b949350505050565b600060208284031215611be657600080fd5b6000611bcc8484611a5a565b60008060408385031215611c0557600080fd5b6000611c118585611a4f565b9250506020611c2285828601611b8d565b9150509250929050565b6000806102808385031215611c4057600080fd5b6000611c4c8585611a65565b925050610140611c2285828601611b16565b60008060208385031215611c7157600080fd5b82356001600160401b03811115611c8757600080fd5b611c9385828601611ad5565b92509250509250929050565b60008060008060408587031215611cb557600080fd5b84356001600160401b03811115611ccb57600080fd5b611cd787828801611ad5565b945094505060208501356001600160401b03811115611cf557600080fd5b611d0187828801611ad5565b95989497509550505050565b60008060008060008060608789031215611d2657600080fd5b86356001600160401b03811115611d3c57600080fd5b611d4889828a01611ad5565b965096505060208701356001600160401b03811115611d6657600080fd5b611d7289828a01611ad5565b945094505060408701356001600160401b03811115611d9057600080fd5b611d9c89828a01611ad5565b92509250509295509295509295565b60008060008060008060008060008060a08b8d031215611dca57600080fd5b8a356001600160401b03811115611de057600080fd5b611dec8d828e01611ad5565b9a509a505060208b01356001600160401b03811115611e0a57600080fd5b611e168d828e01611ad5565b985098505060408b01356001600160401b03811115611e3457600080fd5b611e408d828e01611ad5565b965096505060608b01356001600160401b03811115611e5e57600080fd5b611e6a8d828e01611ad5565b945094505060808b01356001600160401b03811115611e8857600080fd5b611e948d828e01611ad5565b92509250509295989b9194979a5092959850565b600060208284031215611eba57600080fd5b6000611bcc8484611b77565b600060208284031215611ed857600080fd5b6000611bcc8484611b98565b600060208284031215611ef657600080fd5b6000611bcc8484611ba3565b6000611f0e8383611f22565b505060200190565b6000611f0e838361248f565b611f2b8161266d565b82525050565b6000611f3c82612660565b611f468185612664565b9350611f518361265a565b8060005b83811015611f7f578151611f698882611f02565b9750611f748361265a565b925050600101611f55565b509495945050505050565b6000611f9582612660565b611f9f8185612664565b9350611faa8361265a565b8060005b83811015611f7f578151611fc28882611f16565b9750611fcd8361265a565b925050600101611fae565b611f2b81612678565b6000611fee603283612664565b7f63616c63556e6465726c79696e6756616c7565733a205f64657269766174697681527119481a5cc81b9bdd081cdd5c1c1bdc9d195960721b602082015260400192915050565b6000612042604983612664565b7f6f6e6c7946756e644465706c6f7965724f776e65723a204f6e6c79207468652081527f46756e644465706c6f796572206f776e65722063616e2063616c6c207468697360208201526810333ab731ba34b7b760b91b604082015260600192915050565b60006120b3601a83612664565b7f5f5f616464506f6f6c733a20556e657175616c20617272617973000000000000815260200192915050565b60006120ec601e83612664565b7f536166654d6174683a207375627472616374696f6e206f766572666c6f770000815260200192915050565b6000612125602083612664565b7f5f5f6164644761756765546f6b656e733a20556e657175616c20617272617973815260200192915050565b600061215e601a83612664565b7f536166654d6174683a206469766973696f6e206279207a65726f000000000000815260200192915050565b6000612197602983612664565b7f5f5f76616c6964617465506f6f6c436f6d7061746962696c6974793a20496e638152686f6d70617469626c6560b81b602082015260400192915050565b60006121e2601e83612664565b7f5f5f616464506f6f6c733a20416c726561647920726567697374657265640000815260200192915050565b600061221b602183612664565b7f536166654d6174683a206d756c7469706c69636174696f6e206f766572666c6f8152607760f81b602082015260400192915050565b600061225e601f83612664565b7f5f5f616464446572697661746976653a204e6f742031382d646563696d616c00815260200192915050565b6000612297601983612664565b7f5f5f616464506f6f6c733a20456d707479206c70546f6b656e00000000000000815260200192915050565b60006122d0602a83612664565b7f5f5f76616c696461746547617567654d61696e52656769737472793a20496e76815269616c696420676175676560b01b602082015260400192915050565b600061231c603583612664565b7f5f5f76616c696461746547617567654d657461706f6f6c466163746f727952658152746769737472793a20496e76616c696420676175676560581b602082015260400192915050565b6000612373601f83612664565b7f5f5f616464446572697661746976653a20416c72656164792065786973747300815260200192915050565b60006123ac601883612664565b7f616464506f6f6c733a20496e76616c696420696e707574730000000000000000815260200192915050565b60006123e5601e83612664565b7f757064617465506f6f6c496e666f3a20556e657175616c206172726179730000815260200192915050565b600061241e602583612664565b7f5f5f6164644761756765546f6b656e733a20506f6f6c206e6f742072656769738152641d195c995960da1b602082015260400192915050565b805160608301906124698482611f22565b50602082015161247c60208501826124a1565b506040820151610ec46040850182612498565b611f2b8161268f565b611f2b81612698565b611f2b81612692565b602081016114e48284611f22565b604080825281016124c98185611f31565b90508181036020830152611bcc8184611f8a565b602081016114e48284611fd8565b602080825281016114e481611fe1565b602080825281016114e481612035565b602080825281016114e4816120a6565b602080825281016114e4816120df565b602080825281016114e481612118565b602080825281016114e481612151565b602080825281016114e48161218a565b602080825281016114e4816121d5565b602080825281016114e48161220e565b602080825281016114e481612251565b602080825281016114e48161228a565b602080825281016114e4816122c3565b602080825281016114e48161230f565b602080825281016114e481612366565b602080825281016114e48161239f565b602080825281016114e4816123d8565b602080825281016114e481612411565b606081016114e48284612458565b602081016114e4828461248f565b6040518181016001600160401b038111828210171561263557600080fd5b604052919050565b60006001600160401b0382111561265357600080fd5b5060200290565b60200190565b5190565b90815260200190565b60006114e482612683565b151590565b600f0b90565b6001600160a01b031690565b90565b60ff1690565b6001600160581b031690565b6126ad8161266d565b811461060d57600080fd5b6126ad81612678565b6126ad8161267d565b6126ad8161268f565b6126ad8161269256fea164736f6c634300060c000a",
    "linkReferences": {}
  },
  "methodIdentifiers": {
    "addGaugeTokens(address[],address[])": "51e7d01f",
    "addGaugeTokensWithoutValidation(address[],address[])": "f6d959c3",
    "addPools(address[],address[],bool[],address[],address[])": "0254f054",
    "addPoolsWithoutValidation(address[],address[],bool[],address[],address[])": "540eaddc",
    "calcUnderlyingValues(address,uint256)": "727212f6",
    "getCurvePoolOwner()": "bb5c7b15",
    "getFundDeployer()": "97c0ac87",
    "getLpTokenForPool(address)": "1f5bce55",
    "getOwner()": "893d20e8",
    "getPoolForDerivative(address)": "6a2175c0",
    "getPoolInfo(address)": "06bfa938",
    "isSupportedAsset(address)": "9be918e6",
    "removeDerivatives(address[])": "8f72b136",
    "removePools(address[])": "4b164140",
    "setCurvePoolOwner(address)": "05ecc2d4",
    "updatePoolInfo(address[],address[],bool[])": "f044506b"
  },
  "id": 242
}