{"abi":[{"type":"constructor","inputs":[{"name":"_weth","type":"address","internalType":"address"}],"stateMutability":"nonpayable"},{"type":"receive","stateMutability":"payable"},{"type":"function","name":"exchangeEthAndBuyShares","inputs":[{"name":"_comptrollerProxy","type":"address","internalType":"address"},{"name":"_minSharesQuantity","type":"uint256","internalType":"uint256"},{"name":"_exchange","type":"address","internalType":"address"},{"name":"_exchangeApproveTarget","type":"address","internalType":"address"},{"name":"_exchangeData","type":"bytes","internalType":"bytes"},{"name":"_minInvestmentAmount","type":"uint256","internalType":"uint256"}],"outputs":[{"name":"sharesReceived_","type":"uint256","internalType":"uint256"}],"stateMutability":"payable"},{"type":"function","name":"getWethToken","inputs":[],"outputs":[{"name":"wethToken_","type":"address","internalType":"address"}],"stateMutability":"view"}],"bytecode":{"object":"0x60a060405234801561001057600080fd5b50604051610c73380380610c738339818101604052602081101561003357600080fd5b5051606081901b6001600160601b0319166080526001600160a01b0316610c0c610067600039806101145250610c0c6000f3fe60806040526004361061002d5760003560e01c80634c252f91146100395780639a98f01b1461006a57610034565b3661003457005b600080fd5b34801561004557600080fd5b5061004e610112565b604080516001600160a01b039092168252519081900360200190f35b610100600480360360c081101561008057600080fd5b6001600160a01b0382358116926020810135926040820135831692606083013516919081019060a0810160808201356401000000008111156100c157600080fd5b8201836020820111156100d357600080fd5b803590602001918460018302840111640100000000831117156100f557600080fd5b919350915035610136565b60408051918252519081900360200190f35b7f000000000000000000000000000000000000000000000000000000000000000090565b600080886001600160a01b031663e269c3d66040518163ffffffff1660e01b815260040160206040518083038186803b15801561017257600080fd5b505afa158015610186573d6000803e3d6000fd5b505050506040513d602081101561019c57600080fd5b505190506101a8610112565b6001600160a01b031663d0e30db0346040518263ffffffff1660e01b81526004016000604051808303818588803b1580156101e257600080fd5b505af11580156101f6573d6000803e3d6000fd5b5050505050610203610112565b6001600160a01b0316816001600160a01b031614156102425761022e610227610112565b8a34610620565b61023a8933348b6106de565b915050610615565b60008585602081101561025457600080fd5b50356001600160e01b03191690506321dff62560e21b8114156102a85760405162461bcd60e51b815260040180806020018281038252602c815260200180610b74602c913960400191505060405180910390fd5b6102ba6102b3610112565b8834610620565b60006060896001600160a01b03168888604051808383808284376040519201945060009350909150508083038183865af19150503d806000811461031a576040519150601f19603f3d011682016040523d82523d6000602084013e61031f565b606091505b50915091508181906103af5760405162461bcd60e51b81526004018080602001828103825283818151815260200191508051906020019080838360005b8381101561037457818101518382015260200161035c565b50505050905090810190601f1680156103a15780820380516001836020036101000a031916815260200191505b509250505060405180910390fd5b506000846001600160a01b03166370a08231306040518263ffffffff1660e01b815260040180826001600160a01b0316815260200191505060206040518083038186803b1580156103ff57600080fd5b505afa158015610413573d6000803e3d6000fd5b505050506040513d602081101561042957600080fd5b505190508681101561046c5760405162461bcd60e51b8152600401808060200182810382526035815260200180610b196035913960400191505060405180910390fd5b610477858e83610620565b6104838d33838f6106de565b9550600061048f610112565b6001600160a01b03166370a08231306040518263ffffffff1660e01b815260040180826001600160a01b0316815260200191505060206040518083038186803b1580156104db57600080fd5b505afa1580156104ef573d6000803e3d6000fd5b505050506040513d602081101561050557600080fd5b50519050801561060e57610517610112565b6001600160a01b0316632e1a7d4d826040518263ffffffff1660e01b815260040180828152602001915050600060405180830381600087803b15801561055c57600080fd5b505af1158015610570573d6000803e3d6000fd5b5050604051339250839150600081818185875af1925050503d80600081146105b4576040519150601f19603f3d011682016040523d82523d6000602084013e6105b9565b606091505b509094509250828461060c5760405162461bcd60e51b815260206004820181815283516024840152835190928392604490910191908501908083836000831561037457818101518382015260200161035c565b505b5050505050505b979650505050505050565b60408051636eb1769f60e11b81523060048201526001600160a01b038481166024830152915160009286169163dd62ed3e916044808301926020929190829003018186803b15801561067157600080fd5b505afa158015610685573d6000803e3d6000fd5b505050506040513d602081101561069b57600080fd5b50519050818110156106d85780156106c2576106c26001600160a01b038516846000610779565b6106d86001600160a01b03851684600019610779565b50505050565b600080859050806001600160a01b031663877fd8948686866040518463ffffffff1660e01b815260040180846001600160a01b031681526020018381526020018281526020019350505050602060405180830381600087803b15801561074357600080fd5b505af1158015610757573d6000803e3d6000fd5b505050506040513d602081101561076d57600080fd5b50519695505050505050565b8015806107ff575060408051636eb1769f60e11b81523060048201526001600160a01b03848116602483015291519185169163dd62ed3e91604480820192602092909190829003018186803b1580156107d157600080fd5b505afa1580156107e5573d6000803e3d6000fd5b505050506040513d60208110156107fb57600080fd5b5051155b61083a5760405162461bcd60e51b8152600401808060200182810382526036815260200180610bca6036913960400191505060405180910390fd5b604080516001600160a01b038416602482015260448082018490528251808303909101815260649091019091526020810180516001600160e01b031663095ea7b360e01b17905261088c908490610891565b505050565b60606108e6826040518060400160405280602081526020017f5361666545524332303a206c6f772d6c6576656c2063616c6c206661696c6564815250856001600160a01b03166109429092919063ffffffff16565b80519091501561088c5780806020019051602081101561090557600080fd5b505161088c5760405162461bcd60e51b815260040180806020018281038252602a815260200180610ba0602a913960400191505060405180910390fd5b6060610951848460008561095b565b90505b9392505050565b60608247101561099c5760405162461bcd60e51b8152600401808060200182810382526026815260200180610b4e6026913960400191505060405180910390fd5b6109a585610aac565b6109f6576040805162461bcd60e51b815260206004820152601d60248201527f416464726573733a2063616c6c20746f206e6f6e2d636f6e7472616374000000604482015290519081900360640190fd5b60006060866001600160a01b031685876040518082805190602001908083835b60208310610a355780518252601f199092019160209182019101610a16565b6001836020036101000a03801982511681845116808217855250505050505090500191505060006040518083038185875af1925050503d8060008114610a97576040519150601f19603f3d011682016040523d82523d6000602084013e610a9c565b606091505b5091509150610615828286610ab2565b3b151590565b60608315610ac1575081610954565b825115610ad15782518084602001fd5b60405162461bcd60e51b815260206004820181815284516024840152845185939192839260440191908501908083836000831561037457818101518382015260200161035c56fe65786368616e6765457468416e644275795368617265733a205f6d696e496e766573746d656e74416d6f756e74206e6f74206d6574416464726573733a20696e73756666696369656e742062616c616e636520666f722063616c6c65786368616e6765457468416e644275795368617265733a20446973616c6c6f7765642073656c6563746f725361666545524332303a204552433230206f7065726174696f6e20646964206e6f7420737563636565645361666545524332303a20617070726f76652066726f6d206e6f6e2d7a65726f20746f206e6f6e2d7a65726f20616c6c6f77616e6365a164736f6c634300060c000a","linkReferences":{}},"methodIdentifiers":{"exchangeEthAndBuyShares(address,uint256,address,address,bytes,uint256)":"9a98f01b","getWethToken()":"4c252f91"},"id":349}