{
  "abi": [
    {
      "inputs": [
        {
          "internalType": "address",
          "name": "_dispatcher",
          "type": "address"
        }
      ],
      "stateMutability": "nonpayable",
      "type": "constructor"
    },
    {
      "anonymous": false,
      "inputs": [
        {
          "indexed": true,
          "internalType": "address",
          "name": "vaultProxy",
          "type": "address"
        },
        {
          "indexed": true,
          "internalType": "uint256",
          "name": "typeId",
          "type": "uint256"
        },
        {
          "indexed": true,
          "internalType": "address",
          "name": "constructLib",
          "type": "address"
        },
        {
          "indexed": false,
          "internalType": "bytes",
          "name": "constructData",
          "type": "bytes"
        }
      ],
      "name": "PositionDeployed",
      "type": "event"
    },
    {
      "anonymous": false,
      "inputs": [
        {
          "indexed": false,
          "internalType": "address",
          "name": "positionDeployer",
          "type": "address"
        }
      ],
      "name": "PositionDeployerAdded",
      "type": "event"
    },
    {
      "anonymous": false,
      "inputs": [
        {
          "indexed": false,
          "internalType": "address",
          "name": "positionDeployer",
          "type": "address"
        }
      ],
      "name": "PositionDeployerRemoved",
      "type": "event"
    },
    {
      "anonymous": false,
      "inputs": [
        {
          "indexed": false,
          "internalType": "uint256",
          "name": "typeId",
          "type": "uint256"
        },
        {
          "indexed": false,
          "internalType": "string",
          "name": "label",
          "type": "string"
        }
      ],
      "name": "PositionTypeAdded",
      "type": "event"
    },
    {
      "anonymous": false,
      "inputs": [
        {
          "indexed": true,
          "internalType": "uint256",
          "name": "typeId",
          "type": "uint256"
        },
        {
          "indexed": false,
          "internalType": "string",
          "name": "label",
          "type": "string"
        }
      ],
      "name": "PositionTypeLabelUpdated",
      "type": "event"
    },
    {
      "inputs": [
        {
          "internalType": "string[]",
          "name": "_labels",
          "type": "string[]"
        }
      ],
      "name": "addNewPositionTypes",
      "outputs": [],
      "stateMutability": "nonpayable",
      "type": "function"
    },
    {
      "inputs": [
        {
          "internalType": "address[]",
          "name": "_accounts",
          "type": "address[]"
        }
      ],
      "name": "addPositionDeployers",
      "outputs": [],
      "stateMutability": "nonpayable",
      "type": "function"
    },
    {
      "inputs": [
        {
          "internalType": "address",
          "name": "_vaultProxy",
          "type": "address"
        },
        {
          "internalType": "uint256",
          "name": "_typeId",
          "type": "uint256"
        },
        {
          "internalType": "address",
          "name": "_constructLib",
          "type": "address"
        },
        {
          "internalType": "bytes",
          "name": "_constructData",
          "type": "bytes"
        }
      ],
      "name": "deploy",
      "outputs": [
        {
          "internalType": "address",
          "name": "externalPositionProxy_",
          "type": "address"
        }
      ],
      "stateMutability": "nonpayable",
      "type": "function"
    },
    {
      "inputs": [],
      "name": "getDispatcher",
      "outputs": [
        {
          "internalType": "address",
          "name": "dispatcher_",
          "type": "address"
        }
      ],
      "stateMutability": "view",
      "type": "function"
    },
    {
      "inputs": [
        {
          "internalType": "uint256",
          "name": "_typeId",
          "type": "uint256"
        }
      ],
      "name": "getLabelForPositionType",
      "outputs": [
        {
          "internalType": "string",
          "name": "label_",
          "type": "string"
        }
      ],
      "stateMutability": "view",
      "type": "function"
    },
    {
      "inputs": [],
      "name": "getPositionTypeCounter",
      "outputs": [
        {
          "internalType": "uint256",
          "name": "positionTypeCounter_",
          "type": "uint256"
        }
      ],
      "stateMutability": "view",
      "type": "function"
    },
    {
      "inputs": [
        {
          "internalType": "address",
          "name": "_account",
          "type": "address"
        }
      ],
      "name": "isExternalPositionProxy",
      "outputs": [
        {
          "internalType": "bool",
          "name": "isExternalPositionProxy_",
          "type": "bool"
        }
      ],
      "stateMutability": "view",
      "type": "function"
    },
    {
      "inputs": [
        {
          "internalType": "address",
          "name": "_account",
          "type": "address"
        }
      ],
      "name": "isPositionDeployer",
      "outputs": [
        {
          "internalType": "bool",
          "name": "isPositionDeployer_",
          "type": "bool"
        }
      ],
      "stateMutability": "view",
      "type": "function"
    },
    {
      "inputs": [
        {
          "internalType": "address[]",
          "name": "_accounts",
          "type": "address[]"
        }
      ],
      "name": "removePositionDeployers",
      "outputs": [],
      "stateMutability": "nonpayable",
      "type": "function"
    },
    {
      "inputs": [
        {
          "internalType": "uint256[]",
          "name": "_typeIds",
          "type": "uint256[]"
        },
        {
          "internalType": "string[]",
          "name": "_labels",
          "type": "string[]"
        }
      ],
      "name": "updatePositionTypeLabels",
      "outputs": [],
      "stateMutability": "nonpayable",
      "type": "function"
    }
  ],
  "bytecode": {
    "object": "0x60a06040523480156200001157600080fd5b5060405162001b2738038062001b2783398101604081905262000034916200005d565b60601b6001600160601b031916608052620000b2565b8051620000578162000098565b92915050565b6000602082840312156200007057600080fd5b60006200007e84846200004a565b949350505050565b60006001600160a01b03821662000057565b620000a38162000086565b8114620000af57600080fd5b50565b60805160601c611a57620000d06000398061078e5250611a576000f3fe60806040523480156200001157600080fd5b5060043610620000ac5760003560e01c8063b678863b116200006f578063b678863b146200014f578063e976aa0e1462000166578063ebb3d589146200017d578063f908bc771462000196578063fdad10f214620001ad57620000ac565b80633825abe814620000b15780635869506714620000d35780635cf5f4f014620000f957806371b79dc114620001125780639b6832a51462000129575b600080fd5b620000bb620001c4565b604051620000ca91906200114f565b60405180910390f35b620000ea620000e436600462000c25565b620001ca565b604051620000ca9190620010b7565b620001106200010a36600462000cf2565b620001e8565b005b620000ea6200012336600462000c25565b6200039a565b620001406200013a36600462000de8565b620003b8565b604051620000ca9190620010c7565b620001106200016036600462000d71565b6200045c565b620001106200017736600462000d2b565b62000610565b620001876200078c565b604051620000ca91906200105b565b62000187620001a736600462000c6f565b620007b0565b62000110620001be36600462000cf2565b6200088d565b60005490565b6001600160a01b031660009081526003602052604090205460ff1690565b620001f26200078c565b6001600160a01b031663893d20e86040518163ffffffff1660e01b815260040160206040518083038186803b1580156200022b57600080fd5b505afa15801562000240573d6000803e3d6000fd5b505050506040513d601f19601f8201168201806040525081019062000266919062000c4e565b6001600160a01b0316336001600160a01b031614620002a25760405162461bcd60e51b815260040162000299906200112b565b60405180910390fd5b60005b81518110156200039657620002ce828281518110620002c057fe5b6020026020010151620001ca565b15620002ee5760405162461bcd60e51b815260040162000299906200113d565b6001600360008484815181106200030157fe5b60200260200101516001600160a01b03166001600160a01b0316815260200190815260200160002060006101000a81548160ff0219169083151502179055507f4e2cddb881b704c83c6ade58337e3de618b1a567844cc023636b12f2593c92f58282815181106200036e57fe5b60200260200101516040516200038591906200105b565b60405180910390a1600101620002a5565b5050565b6001600160a01b031660009081526002602052604090205460ff1690565b60008181526001602081815260409283902080548451600294821615610100026000190190911693909304601f81018390048302840183019094528383526060939091830182828015620004505780601f10620004245761010080835404028352916020019162000450565b820191906000526020600020905b8154815290600101906020018083116200043257829003601f168201915b50505050509050919050565b620004666200078c565b6001600160a01b031663893d20e86040518163ffffffff1660e01b815260040160206040518083038186803b1580156200049f57600080fd5b505afa158015620004b4573d6000803e3d6000fd5b505050506040513d601f19601f82011682018060405250810190620004da919062000c4e565b6001600160a01b0316336001600160a01b0316146200050d5760405162461bcd60e51b815260040162000299906200112b565b8281146200052f5760405162461bcd60e51b8152600401620002999062001119565b60005b8381101562000609578282828181106200054857fe5b90506020028101906200055c91906200118d565b600160008888868181106200056d57fe5b90506020020135815260200190815260200160002091906200059192919062000a23565b508484828181106200059f57fe5b905060200201357ff2a237a53e7bb8b02a659a4a650726a021c70b7a95fb81df08497a61659a279a848484818110620005d457fe5b9050602002810190620005e891906200118d565b604051620005f8929190620010e1565b60405180910390a260010162000532565b5050505050565b6200061a6200078c565b6001600160a01b031663893d20e86040518163ffffffff1660e01b815260040160206040518083038186803b1580156200065357600080fd5b505afa15801562000668573d6000803e3d6000fd5b505050506040513d601f19601f820116820180604052508101906200068e919062000c4e565b6001600160a01b0316336001600160a01b031614620006c15760405162461bcd60e51b815260040162000299906200112b565b60005b8181101562000787576000620006d9620001c4565b6000805460010190559050838383818110620006f157fe5b90506020028101906200070591906200118d565b60008381526001602052604090206200072092909162000a23565b507fc43043ed6e970dd281081754f024483e889327202cc79ec3f4aa059535472133818585858181106200075057fe5b90506020028101906200076491906200118d565b60405162000775939291906200115f565b60405180910390a150600101620006c4565b505050565b7f000000000000000000000000000000000000000000000000000000000000000090565b6000620007bd33620001ca565b620007dc5760405162461bcd60e51b8152600401620002999062001107565b84848484604051620007ee9062000aa8565b620007fd94939291906200106b565b604051809103906000f0801580156200081a573d6000803e3d6000fd5b506001600160a01b0380821660009081526002602052604090819020805460ff19166001179055519192508481169186918816907f1b6bd29f1cd483c0ffcdab807b5fb7193c1ec1661c42cc1c9cba25f9c32efe92906200087d908790620010c7565b60405180910390a4949350505050565b620008976200078c565b6001600160a01b031663893d20e86040518163ffffffff1660e01b815260040160206040518083038186803b158015620008d057600080fd5b505afa158015620008e5573d6000803e3d6000fd5b505050506040513d601f19601f820116820180604052508101906200090b919062000c4e565b6001600160a01b0316336001600160a01b0316146200093e5760405162461bcd60e51b815260040162000299906200112b565b60005b815181101562000396576200095c828281518110620002c057fe5b6200097b5760405162461bcd60e51b81526004016200029990620010f5565b6000600360008484815181106200098e57fe5b60200260200101516001600160a01b03166001600160a01b0316815260200190815260200160002060006101000a81548160ff0219169083151502179055507fa800cb2ff9f46268ead3d548d8466dfea9fcab8ff13867076c45be6e38ab97a6828281518110620009fb57fe5b602002602001015160405162000a1291906200105b565b60405180910390a160010162000941565b828054600181600116156101000203166002900490600052602060002090601f016020900481019282601f1062000a665782800160ff1982351617855562000a96565b8280016001018555821562000a96579182015b8281111562000a9657823582559160200191906001019062000a79565b5062000aa492915062000ab6565b5090565b61075580620012f683390190565b5b8082111562000aa4576000815560010162000ab7565b803562000ada81620012d0565b92915050565b805162000ada81620012d0565b600082601f83011262000aff57600080fd5b813562000b1662000b10826200120e565b620011e6565b9150818183526020840193506020810190508385602084028201111562000b3c57600080fd5b60005b8381101562000b6c578162000b55888262000acd565b845250602092830192919091019060010162000b3f565b5050505092915050565b60008083601f84011262000b8957600080fd5b50813567ffffffffffffffff81111562000ba257600080fd5b60208301915083602082028301111562000bbb57600080fd5b9250929050565b600082601f83011262000bd457600080fd5b813562000be562000b108262001230565b9150808252602083016020830185838301111562000c0257600080fd5b62000c0f83828462001287565b50505092915050565b803562000ada81620012ea565b60006020828403121562000c3857600080fd5b600062000c46848462000acd565b949350505050565b60006020828403121562000c6157600080fd5b600062000c46848462000ae0565b6000806000806080858703121562000c8657600080fd5b600062000c94878762000acd565b945050602062000ca78782880162000c18565b935050604062000cba8782880162000acd565b925050606085013567ffffffffffffffff81111562000cd857600080fd5b62000ce68782880162000bc2565b91505092959194509250565b60006020828403121562000d0557600080fd5b813567ffffffffffffffff81111562000d1d57600080fd5b62000c468482850162000aed565b6000806020838503121562000d3f57600080fd5b823567ffffffffffffffff81111562000d5757600080fd5b62000d658582860162000b76565b92509250509250929050565b6000806000806040858703121562000d8857600080fd5b843567ffffffffffffffff81111562000da057600080fd5b62000dae8782880162000b76565b9450945050602085013567ffffffffffffffff81111562000dce57600080fd5b62000ddc8782880162000b76565b95989497509550505050565b60006020828403121562000dfb57600080fd5b600062000c46848462000c18565b62000e148162001266565b82525050565b62000e148162001273565b600062000e328262001259565b62000e3e81856200125d565b935062000e5081856020860162001293565b62000e5b81620012c6565b9093019392505050565b600062000e7383856200125d565b935062000e8283858462001287565b62000e5b83620012c6565b600062000e9c603b836200125d565b7f72656d6f7665506f736974696f6e4465706c6f796572733a204163636f756e7481527f206973206e6f74206120706f736974696f6e206465706c6f7965720000000000602082015260400192915050565b600062000efd6037836200125d565b7f6465706c6f793a204f6e6c79206120706f736974696f6e206465706c6f79657281527f2063616e2063616c6c20746869732066756e6374696f6e000000000000000000602082015260400192915050565b600062000f5e6028836200125d565b7f757064617465506f736974696f6e547970654c6162656c733a20556e657175618152676c2061727261797360c01b602082015260400192915050565b600062000faa6030836200125d565b7f4f6e6c79207468652044697370617463686572206f776e65722063616e20636181526f3636103a3434b990333ab731ba34b7b760811b602082015260400192915050565b600062000ffe603c836200125d565b7f616464506f736974696f6e4465706c6f796572733a204163636f756e7420697381527f20616c7265616479206120706f736974696f6e206465706c6f79657200000000602082015260400192915050565b62000e148162001284565b6020810162000ada828462000e09565b608081016200107b828762000e09565b6200108a602083018662001050565b62001099604083018562000e09565b8181036060830152620010ad818462000e25565b9695505050505050565b6020810162000ada828462000e1a565b60208082528101620010da818462000e25565b9392505050565b6020808252810162000c4681848662000e65565b6020808252810162000ada8162000e8d565b6020808252810162000ada8162000eee565b6020808252810162000ada8162000f4f565b6020808252810162000ada8162000f9b565b6020808252810162000ada8162000fef565b6020810162000ada828462001050565b604081016200116f828662001050565b81810360208301526200118481848662000e65565b95945050505050565b6000808335601e1936859003018112620011a657600080fd5b80840192508235915067ffffffffffffffff821115620011c557600080fd5b602083019250600182023603831315620011de57600080fd5b509250929050565b60405181810167ffffffffffffffff811182821017156200120657600080fd5b604052919050565b600067ffffffffffffffff8211156200122657600080fd5b5060209081020190565b600067ffffffffffffffff8211156200124857600080fd5b506020601f91909101601f19160190565b5190565b90815260200190565b600062000ada8262001278565b151590565b6001600160a01b031690565b90565b82818337506000910152565b60005b83811015620012b057818101518382015260200162001296565b83811115620012c0576000848401525b50505050565b601f01601f191690565b620012db8162001266565b8114620012e757600080fd5b50565b620012db816200128456fe60c060405234801561001057600080fd5b506040516107553803806107558339818101604052608081101561003357600080fd5b81516020830151604080850151606086018051925194969395919493918201928464010000000082111561006657600080fd5b90830190602082018581111561007b57600080fd5b825164010000000081118282018810171561009557600080fd5b82525081516020918201929091019080838360005b838110156100c25781810151838201526020016100aa565b50505050905090810190601f1680156100ef5780820380516001836020036101000a031916815260200191505b50604052505050836001600160a01b031660a0816001600160a01b031660601b81525050826080818152505060006060836001600160a01b0316836040518082805190602001908083835b602083106101595780518252601f19909201916020918201910161013a565b6001836020036101000a038019825116818451168082178552505050505050905001915050600060405180830381855af49150503d80600081146101b9576040519150601f19603f3d011682016040523d82523d6000602084013e6101be565b606091505b509150915081819061024e5760405162461bcd60e51b81526004018080602001828103825283818151815260200191508051906020019080838360005b838110156102135781810151838201526020016101fb565b50505050905090810190601f1680156102405780820380516001836020036101000a031916815260200191505b509250505060405180910390fd5b5050505050505060805160a05160601c6104da61027b600039806101c35250806101e752506104da6000f3fe6080604052600436106100385760003560e01c806312bc0a44146100ea578063c980918714610111578063e5c23a97146101425761003f565b3661003f57005b60006100496101c1565b6001600160a01b03166375d8bb0e61005f6101e5565b6040518263ffffffff1660e01b81526004018082815260200191505060206040518083038186803b15801561009357600080fd5b505afa1580156100a7573d6000803e3d6000fd5b505050506040513d60208110156100bd57600080fd5b505190503660008037600080366000846127105a03f43d806000803e8180156100e557816000f35b816000fd5b3480156100f657600080fd5b506100ff6101e5565b60408051918252519081900360200190f35b34801561011d57600080fd5b506101266101c1565b604080516001600160a01b039092168252519081900360200190f35b34801561014e57600080fd5b506101bf6004803603602081101561016557600080fd5b81019060208101813564010000000081111561018057600080fd5b82018360208201111561019257600080fd5b803590602001918460018302840111640100000000831117156101b457600080fd5b509092509050610209565b005b7f000000000000000000000000000000000000000000000000000000000000000090565b7f000000000000000000000000000000000000000000000000000000000000000090565b6102116101c1565b6001600160a01b0316336001600160a01b0316146102605760405162461bcd60e51b81526004018080602001828103825260378152602001806104976037913960400191505060405180910390fd5b600061026a6101c1565b6001600160a01b03166375d8bb0e6102806101e5565b6040518263ffffffff1660e01b81526004018082815260200191505060206040518083038186803b1580156102b457600080fd5b505afa1580156102c8573d6000803e3d6000fd5b505050506040513d60208110156102de57600080fd5b5051604051602060248201908152604482018590529192506000916060916001600160a01b0385169163e5c23a9760e01b9188918891819060640184848082843760008382015260408051601f909201601f1990811690940182810390940182529283526020810180516001600160e01b03166001600160e01b0319909916989098178852915182519297909650869550935090915081905083835b602083106103995780518252601f19909201916020918201910161037a565b6001836020036101000a038019825116818451168082178552505050505050905001915050600060405180830381855af49150503d80600081146103f9576040519150601f19603f3d011682016040523d82523d6000602084013e6103fe565b606091505b509150915081819061048e5760405162461bcd60e51b81526004018080602001828103825283818151815260200191508051906020019080838360005b8381101561045357818101518382015260200161043b565b50505050905090810190601f1680156104805780820380516001836020036101000a031916815260200191505b509250505060405180910390fd5b50505050505056fe7265636569766543616c6c46726f6d5661756c743a204f6e6c7920746865207661756c742063616e206d616b6520746869732063616c6ca164736f6c634300060c000aa164736f6c634300060c000a",
    "linkReferences": {}
  },
  "methodIdentifiers": {
    "addNewPositionTypes(string[])": "e976aa0e",
    "addPositionDeployers(address[])": "5cf5f4f0",
    "deploy(address,uint256,address,bytes)": "f908bc77",
    "getDispatcher()": "ebb3d589",
    "getLabelForPositionType(uint256)": "9b6832a5",
    "getPositionTypeCounter()": "3825abe8",
    "isExternalPositionProxy(address)": "71b79dc1",
    "isPositionDeployer(address)": "58695067",
    "removePositionDeployers(address[])": "fdad10f2",
    "updatePositionTypeLabels(uint256[],string[])": "b678863b"
  },
  "id": 23
}