{
  "abi": [
    {
      "inputs": [
        {
          "internalType": "address",
          "name": "_vaultProxy",
          "type": "address"
        },
        {
          "internalType": "uint256",
          "name": "_typeId",
          "type": "uint256"
        },
        {
          "internalType": "address",
          "name": "_constructLib",
          "type": "address"
        },
        {
          "internalType": "bytes",
          "name": "_constructData",
          "type": "bytes"
        }
      ],
      "stateMutability": "nonpayable",
      "type": "constructor"
    },
    {
      "stateMutability": "payable",
      "type": "fallback"
    },
    {
      "inputs": [],
      "name": "getExternalPositionType",
      "outputs": [
        {
          "internalType": "uint256",
          "name": "externalPositionType_",
          "type": "uint256"
        }
      ],
      "stateMutability": "view",
      "type": "function"
    },
    {
      "inputs": [],
      "name": "getVaultProxy",
      "outputs": [
        {
          "internalType": "address",
          "name": "vaultProxy_",
          "type": "address"
        }
      ],
      "stateMutability": "view",
      "type": "function"
    },
    {
      "inputs": [
        {
          "internalType": "bytes",
          "name": "_data",
          "type": "bytes"
        }
      ],
      "name": "receiveCallFromVault",
      "outputs": [],
      "stateMutability": "nonpayable",
      "type": "function"
    },
    {
      "stateMutability": "payable",
      "type": "receive"
    }
  ],
  "bytecode": {
    "object": "0x60c060405234801561001057600080fd5b506040516107553803806107558339818101604052608081101561003357600080fd5b81516020830151604080850151606086018051925194969395919493918201928464010000000082111561006657600080fd5b90830190602082018581111561007b57600080fd5b825164010000000081118282018810171561009557600080fd5b82525081516020918201929091019080838360005b838110156100c25781810151838201526020016100aa565b50505050905090810190601f1680156100ef5780820380516001836020036101000a031916815260200191505b50604052505050836001600160a01b031660a0816001600160a01b031660601b81525050826080818152505060006060836001600160a01b0316836040518082805190602001908083835b602083106101595780518252601f19909201916020918201910161013a565b6001836020036101000a038019825116818451168082178552505050505050905001915050600060405180830381855af49150503d80600081146101b9576040519150601f19603f3d011682016040523d82523d6000602084013e6101be565b606091505b509150915081819061024e5760405162461bcd60e51b81526004018080602001828103825283818151815260200191508051906020019080838360005b838110156102135781810151838201526020016101fb565b50505050905090810190601f1680156102405780820380516001836020036101000a031916815260200191505b509250505060405180910390fd5b5050505050505060805160a05160601c6104da61027b600039806101c35250806101e752506104da6000f3fe6080604052600436106100385760003560e01c806312bc0a44146100ea578063c980918714610111578063e5c23a97146101425761003f565b3661003f57005b60006100496101c1565b6001600160a01b03166375d8bb0e61005f6101e5565b6040518263ffffffff1660e01b81526004018082815260200191505060206040518083038186803b15801561009357600080fd5b505afa1580156100a7573d6000803e3d6000fd5b505050506040513d60208110156100bd57600080fd5b505190503660008037600080366000846127105a03f43d806000803e8180156100e557816000f35b816000fd5b3480156100f657600080fd5b506100ff6101e5565b60408051918252519081900360200190f35b34801561011d57600080fd5b506101266101c1565b604080516001600160a01b039092168252519081900360200190f35b34801561014e57600080fd5b506101bf6004803603602081101561016557600080fd5b81019060208101813564010000000081111561018057600080fd5b82018360208201111561019257600080fd5b803590602001918460018302840111640100000000831117156101b457600080fd5b509092509050610209565b005b7f000000000000000000000000000000000000000000000000000000000000000090565b7f000000000000000000000000000000000000000000000000000000000000000090565b6102116101c1565b6001600160a01b0316336001600160a01b0316146102605760405162461bcd60e51b81526004018080602001828103825260378152602001806104976037913960400191505060405180910390fd5b600061026a6101c1565b6001600160a01b03166375d8bb0e6102806101e5565b6040518263ffffffff1660e01b81526004018082815260200191505060206040518083038186803b1580156102b457600080fd5b505afa1580156102c8573d6000803e3d6000fd5b505050506040513d60208110156102de57600080fd5b5051604051602060248201908152604482018590529192506000916060916001600160a01b0385169163e5c23a9760e01b9188918891819060640184848082843760008382015260408051601f909201601f1990811690940182810390940182529283526020810180516001600160e01b03166001600160e01b0319909916989098178852915182519297909650869550935090915081905083835b602083106103995780518252601f19909201916020918201910161037a565b6001836020036101000a038019825116818451168082178552505050505050905001915050600060405180830381855af49150503d80600081146103f9576040519150601f19603f3d011682016040523d82523d6000602084013e6103fe565b606091505b509150915081819061048e5760405162461bcd60e51b81526004018080602001828103825283818151815260200191508051906020019080838360005b8381101561045357818101518382015260200161043b565b50505050905090810190601f1680156104805780820380516001836020036101000a031916815260200191505b509250505060405180910390fd5b50505050505056fe7265636569766543616c6c46726f6d5661756c743a204f6e6c7920746865207661756c742063616e206d616b6520746869732063616c6ca164736f6c634300060c000a",
    "linkReferences": {}
  },
  "methodIdentifiers": {
    "getExternalPositionType()": "12bc0a44",
    "getVaultProxy()": "c9809187",
    "receiveCallFromVault(bytes)": "e5c23a97"
  },
  "id": 24
}