{
  "_format": "hh-sol-artifact-1",
  "contractName": "GasRelayPaymasterFactory",
  "sourceName": "contracts/release/infrastructure/gas-relayer/GasRelayPaymasterFactory.sol",
  "abi": [
    {
      "inputs": [
        {
          "internalType": "address",
          "name": "_dispatcher",
          "type": "address"
        },
        {
          "internalType": "address",
          "name": "_paymasterLib",
          "type": "address"
        }
      ],
      "stateMutability": "nonpayable",
      "type": "constructor"
    },
    {
      "anonymous": false,
      "inputs": [
        {
          "indexed": false,
          "internalType": "address",
          "name": "nextCanonicalLib",
          "type": "address"
        }
      ],
      "name": "CanonicalLibSet",
      "type": "event"
    },
    {
      "anonymous": false,
      "inputs": [
        {
          "indexed": true,
          "internalType": "address",
          "name": "caller",
          "type": "address"
        },
        {
          "indexed": false,
          "internalType": "address",
          "name": "proxy",
          "type": "address"
        },
        {
          "indexed": false,
          "internalType": "bytes",
          "name": "constructData",
          "type": "bytes"
        }
      ],
      "name": "ProxyDeployed",
      "type": "event"
    },
    {
      "inputs": [
        {
          "internalType": "bytes",
          "name": "_constructData",
          "type": "bytes"
        }
      ],
      "name": "deployProxy",
      "outputs": [
        {
          "internalType": "address",
          "name": "proxy_",
          "type": "address"
        }
      ],
      "stateMutability": "nonpayable",
      "type": "function"
    },
    {
      "inputs": [],
      "name": "getCanonicalLib",
      "outputs": [
        {
          "internalType": "address",
          "name": "canonicalLib_",
          "type": "address"
        }
      ],
      "stateMutability": "view",
      "type": "function"
    },
    {
      "inputs": [],
      "name": "getDispatcher",
      "outputs": [
        {
          "internalType": "address",
          "name": "dispatcher_",
          "type": "address"
        }
      ],
      "stateMutability": "view",
      "type": "function"
    },
    {
      "inputs": [],
      "name": "getOwner",
      "outputs": [
        {
          "internalType": "address",
          "name": "owner_",
          "type": "address"
        }
      ],
      "stateMutability": "view",
      "type": "function"
    },
    {
      "inputs": [
        {
          "internalType": "address",
          "name": "_nextCanonicalLib",
          "type": "address"
        }
      ],
      "name": "setCanonicalLib",
      "outputs": [],
      "stateMutability": "nonpayable",
      "type": "function"
    }
  ],
  "bytecode": "0x60a060405234801561001057600080fd5b5060405161090d38038061090d8339818101604052604081101561003357600080fd5b508051602090910151806100468161005d565b505060601b6001600160601b0319166080526100b1565b600080546001600160a01b0383166001600160a01b0319909116811790915560408051918252517f9007c6c0b3b1622c381c19563620e3ce8b824e958af3020495bd6654e8a0310a9181900360200190a150565b60805160601c61083f6100ce600039806103a9525061083f6000f3fe608060405234801561001057600080fd5b50600436106100575760003560e01c80630c0872f51461005c578063893d20e81461011e57806398a7c4c714610126578063d0ac1a8d1461012e578063ebb3d58914610156575b600080fd5b6101026004803603602081101561007257600080fd5b81019060208101813564010000000081111561008d57600080fd5b82018360208201111561009f57600080fd5b803590602001918460018302840111640100000000831117156100c157600080fd5b91908080601f01602080910402602001604051908101604052809392919081815260200183838082843760009201919091525092955061015e945050505050565b604080516001600160a01b039092168252519081900360200190f35b6101026102c2565b610102610335565b6101546004803603602081101561014457600080fd5b50356001600160a01b0316610344565b005b6101026103a7565b6000813060405161016e9061041f565b8080602001836001600160a01b03168152602001828103825284818151815260200191508051906020019080838360005b838110156101b757818101518382015260200161019f565b50505050905090810190601f1680156101e45780820380516001836020036101000a031916815260200191505b509350505050604051809103906000f080158015610206573d6000803e3d6000fd5b509050336001600160a01b03167f8f1eab90fee81d885732c2e07a3a9b9f6c32278756471123fa57486858c3f701828460405180836001600160a01b0316815260200180602001828103825283818151815260200191508051906020019080838360005b8381101561028257818101518382015260200161026a565b50505050905090810190601f1680156102af5780820380516001836020036101000a031916815260200191505b50935050505060405180910390a2919050565b60006102cc6103a7565b6001600160a01b031663893d20e86040518163ffffffff1660e01b815260040160206040518083038186803b15801561030457600080fd5b505afa158015610318573d6000803e3d6000fd5b505050506040513d602081101561032e57600080fd5b5051905090565b6000546001600160a01b031690565b61034c6102c2565b6001600160a01b0316336001600160a01b03161461039b5760405162461bcd60e51b81526004018080602001828103825260368152602001806107d46036913960400191505060405180910390fd5b6103a4816103cb565b50565b7f000000000000000000000000000000000000000000000000000000000000000090565b600080546001600160a01b0383166001600160a01b0319909116811790915560408051918252517f9007c6c0b3b1622c381c19563620e3ce8b824e958af3020495bd6654e8a0310a9181900360200190a150565b6103a78061042d8339019056fe60a060405234801561001057600080fd5b506040516103a73803806103a78339818101604052604081101561003357600080fd5b810190808051604051939291908464010000000082111561005357600080fd5b90830190602082018581111561006857600080fd5b825164010000000081118282018810171561008257600080fd5b82525081516020918201929091019080838360005b838110156100af578181015183820152602001610097565b50505050905090810190601f1680156100dc5780820380516001836020036101000a031916815260200191505b506040818152602092830151606081811b6001600160601b0319166080526398a7c4c760e01b845291519095506000945090926001600160a01b038616926398a7c4c79260048083019392829003018186803b15801561013b57600080fd5b505afa15801561014f573d6000803e3d6000fd5b505050506040513d602081101561016557600080fd5b505160405185516001600160a01b0390921691869190819060208401908083835b602083106101a55780518252601f199092019160209182019101610186565b6001836020036101000a038019825116818451168082178552505050505050905001915050600060405180830381855af49150503d8060008114610205576040519150601f19603f3d011682016040523d82523d6000602084013e61020a565b606091505b509150915081819061029a5760405162461bcd60e51b81526004018080602001828103825283818151815260200191508051906020019080838360005b8381101561025f578181015183820152602001610247565b50505050905090810190601f16801561028c5780820380516001836020036101000a031916815260200191505b509250505060405180910390fd5b505050505060805160601c60ee6102b960003980600e525060ee6000f3fe608060405236600a57005b60007f00000000000000000000000000000000000000000000000000000000000000006001600160a01b03166398a7c4c76040518163ffffffff1660e01b815260040160206040518083038186803b158015606457600080fd5b505afa1580156077573d6000803e3d6000fd5b505050506040513d6020811015608c57600080fd5b505190503660008037600080366000846127105a03f43d806000803e81801560b357816000f35b816000fdfea2646970667358221220b1ce1189c8d36828ab0ee2f0e429561589ae098d67918239126eef810993ea8a64736f6c634300060c003373657443616e6f6e6963616c4c69623a204f6e6c7920746865206f776e65722063616e2063616c6c20746869732066756e6374696f6ea2646970667358221220c4276415ea83a1c2e6280542866cb78886d50a3a0e197a377792e5fce61010ac64736f6c634300060c0033",
  "linkReferences": {},
  "deployedLinkReferences": {}
}