{
  "abi": [
    {
      "inputs": [
        {
          "internalType": "address",
          "name": "_wethToken",
          "type": "address"
        },
        {
          "internalType": "address",
          "name": "_relayHub",
          "type": "address"
        },
        {
          "internalType": "address",
          "name": "_trustedForwarder",
          "type": "address"
        }
      ],
      "stateMutability": "nonpayable",
      "type": "constructor"
    },
    {
      "anonymous": false,
      "inputs": [
        {
          "indexed": false,
          "internalType": "uint256",
          "name": "amount",
          "type": "uint256"
        }
      ],
      "name": "Deposited",
      "type": "event"
    },
    {
      "anonymous": false,
      "inputs": [
        {
          "indexed": true,
          "internalType": "address",
          "name": "authorizer",
          "type": "address"
        },
        {
          "indexed": false,
          "internalType": "bytes4",
          "name": "invokedSelector",
          "type": "bytes4"
        },
        {
          "indexed": false,
          "internalType": "bool",
          "name": "successful",
          "type": "bool"
        }
      ],
      "name": "TransactionRelayed",
      "type": "event"
    },
    {
      "anonymous": false,
      "inputs": [
        {
          "indexed": false,
          "internalType": "uint256",
          "name": "amount",
          "type": "uint256"
        }
      ],
      "name": "Withdrawn",
      "type": "event"
    },
    {
      "inputs": [],
      "name": "deposit",
      "outputs": [],
      "stateMutability": "nonpayable",
      "type": "function"
    },
    {
      "inputs": [],
      "name": "getGasAndDataLimits",
      "outputs": [
        {
          "components": [
            {
              "internalType": "uint256",
              "name": "acceptanceBudget",
              "type": "uint256"
            },
            {
              "internalType": "uint256",
              "name": "preRelayedCallGasLimit",
              "type": "uint256"
            },
            {
              "internalType": "uint256",
              "name": "postRelayedCallGasLimit",
              "type": "uint256"
            },
            {
              "internalType": "uint256",
              "name": "calldataSizeLimit",
              "type": "uint256"
            }
          ],
          "internalType": "struct IGsnPaymaster.GasAndDataLimits",
          "name": "limits_",
          "type": "tuple"
        }
      ],
      "stateMutability": "view",
      "type": "function"
    },
    {
      "inputs": [],
      "name": "getHubAddr",
      "outputs": [
        {
          "internalType": "address",
          "name": "relayHub_",
          "type": "address"
        }
      ],
      "stateMutability": "view",
      "type": "function"
    },
    {
      "inputs": [],
      "name": "getParentComptroller",
      "outputs": [
        {
          "internalType": "address",
          "name": "parentComptroller_",
          "type": "address"
        }
      ],
      "stateMutability": "view",
      "type": "function"
    },
    {
      "inputs": [],
      "name": "getParentVault",
      "outputs": [
        {
          "internalType": "address",
          "name": "parentVault_",
          "type": "address"
        }
      ],
      "stateMutability": "view",
      "type": "function"
    },
    {
      "inputs": [],
      "name": "getRelayHubDeposit",
      "outputs": [
        {
          "internalType": "uint256",
          "name": "depositBalance_",
          "type": "uint256"
        }
      ],
      "stateMutability": "view",
      "type": "function"
    },
    {
      "inputs": [],
      "name": "getWethToken",
      "outputs": [
        {
          "internalType": "address",
          "name": "wethToken_",
          "type": "address"
        }
      ],
      "stateMutability": "view",
      "type": "function"
    },
    {
      "inputs": [
        {
          "internalType": "address",
          "name": "_vault",
          "type": "address"
        }
      ],
      "name": "init",
      "outputs": [],
      "stateMutability": "nonpayable",
      "type": "function"
    },
    {
      "inputs": [
        {
          "internalType": "bytes",
          "name": "_context",
          "type": "bytes"
        },
        {
          "internalType": "bool",
          "name": "_success",
          "type": "bool"
        },
        {
          "internalType": "uint256",
          "name": "",
          "type": "uint256"
        },
        {
          "components": [
            {
              "internalType": "uint256",
              "name": "gasPrice",
              "type": "uint256"
            },
            {
              "internalType": "uint256",
              "name": "pctRelayFee",
              "type": "uint256"
            },
            {
              "internalType": "uint256",
              "name": "baseRelayFee",
              "type": "uint256"
            },
            {
              "internalType": "address",
              "name": "relayWorker",
              "type": "address"
            },
            {
              "internalType": "address",
              "name": "paymaster",
              "type": "address"
            },
            {
              "internalType": "address",
              "name": "forwarder",
              "type": "address"
            },
            {
              "internalType": "bytes",
              "name": "paymasterData",
              "type": "bytes"
            },
            {
              "internalType": "uint256",
              "name": "clientId",
              "type": "uint256"
            }
          ],
          "internalType": "struct IGsnTypes.RelayData",
          "name": "_relayData",
          "type": "tuple"
        }
      ],
      "name": "postRelayedCall",
      "outputs": [],
      "stateMutability": "nonpayable",
      "type": "function"
    },
    {
      "inputs": [
        {
          "components": [
            {
              "components": [
                {
                  "internalType": "address",
                  "name": "from",
                  "type": "address"
                },
                {
                  "internalType": "address",
                  "name": "to",
                  "type": "address"
                },
                {
                  "internalType": "uint256",
                  "name": "value",
                  "type": "uint256"
                },
                {
                  "internalType": "uint256",
                  "name": "gas",
                  "type": "uint256"
                },
                {
                  "internalType": "uint256",
                  "name": "nonce",
                  "type": "uint256"
                },
                {
                  "internalType": "bytes",
                  "name": "data",
                  "type": "bytes"
                },
                {
                  "internalType": "uint256",
                  "name": "validUntil",
                  "type": "uint256"
                }
              ],
              "internalType": "struct IGsnForwarder.ForwardRequest",
              "name": "request",
              "type": "tuple"
            },
            {
              "components": [
                {
                  "internalType": "uint256",
                  "name": "gasPrice",
                  "type": "uint256"
                },
                {
                  "internalType": "uint256",
                  "name": "pctRelayFee",
                  "type": "uint256"
                },
                {
                  "internalType": "uint256",
                  "name": "baseRelayFee",
                  "type": "uint256"
                },
                {
                  "internalType": "address",
                  "name": "relayWorker",
                  "type": "address"
                },
                {
                  "internalType": "address",
                  "name": "paymaster",
                  "type": "address"
                },
                {
                  "internalType": "address",
                  "name": "forwarder",
                  "type": "address"
                },
                {
                  "internalType": "bytes",
                  "name": "paymasterData",
                  "type": "bytes"
                },
                {
                  "internalType": "uint256",
                  "name": "clientId",
                  "type": "uint256"
                }
              ],
              "internalType": "struct IGsnTypes.RelayData",
              "name": "relayData",
              "type": "tuple"
            }
          ],
          "internalType": "struct IGsnTypes.RelayRequest",
          "name": "_relayRequest",
          "type": "tuple"
        },
        {
          "internalType": "bytes",
          "name": "",
          "type": "bytes"
        },
        {
          "internalType": "bytes",
          "name": "",
          "type": "bytes"
        },
        {
          "internalType": "uint256",
          "name": "",
          "type": "uint256"
        }
      ],
      "name": "preRelayedCall",
      "outputs": [
        {
          "internalType": "bytes",
          "name": "context_",
          "type": "bytes"
        },
        {
          "internalType": "bool",
          "name": "rejectOnRecipientRevert_",
          "type": "bool"
        }
      ],
      "stateMutability": "nonpayable",
      "type": "function"
    },
    {
      "inputs": [],
      "name": "trustedForwarder",
      "outputs": [
        {
          "internalType": "address",
          "name": "trustedForwarder_",
          "type": "address"
        }
      ],
      "stateMutability": "view",
      "type": "function"
    },
    {
      "inputs": [],
      "name": "versionPaymaster",
      "outputs": [
        {
          "internalType": "string",
          "name": "versionString_",
          "type": "string"
        }
      ],
      "stateMutability": "view",
      "type": "function"
    },
    {
      "inputs": [],
      "name": "withdrawBalance",
      "outputs": [],
      "stateMutability": "nonpayable",
      "type": "function"
    }
  ],
  "bytecode": {
    "object": "0x60e06040523480156200001157600080fd5b50604051620019833803806200198383398101604081905262000034916200006f565b6001600160601b0319606092831b811660805290821b811660a05291901b1660c052620000ef565b80516200006981620000d5565b92915050565b6000806000606084860312156200008557600080fd5b60006200009386866200005c565b9350506020620000a6868287016200005c565b9250506040620000b9868287016200005c565b9150509250925092565b60006001600160a01b03821662000069565b620000e081620000c3565b8114620000ec57600080fd5b50565b60805160601c60a05160601c60c05160601c61185e620001256000398061044f5250806106e35250806105fb525061185e6000f3fe608060405234801561001057600080fd5b50600436106100ce5760003560e01c806376fa01c31161008c578063ad5cb1cf11610066578063ad5cb1cf1461017c578063b039a88f14610184578063d0e30db014610199578063de866200146101a1576100ce565b806376fa01c31461014c5780637da0a8771461015f578063921276ea14610167576100ce565b8062be5dd4146100d357806319ab453c146100fd5780632afe31c1146101125780634c252f91146101275780635fd8c7101461013c57806374e861d614610144575b600080fd5b6100e66100e136600461109e565b6101a9565b6040516100f49291906115d2565b60405180910390f35b61011061010b366004610f4f565b610371565b005b61011a6103c3565b6040516100f491906116c1565b61012f61044d565b6040516100f4919061158e565b610110610471565b61012f6105f9565b61011061015a366004611009565b61061d565b61012f6106e1565b61016f610705565b6040516100f491906115f2565b61012f610725565b61018c61073b565b6040516100f491906116b3565b610110610774565b61012f6107b6565b606060006101b56105f9565b6001600160a01b0316336001600160a01b0316146101ee5760405162461bcd60e51b81526004016101e590611673565b60405180910390fd5b60006101f86107b6565b90506001600160a01b03811663368618896102138b80611740565b610221906020810190610f4f565b6040518263ffffffff1660e01b815260040161023d919061158e565b60206040518083038186803b15801561025557600080fd5b505afa158015610269573d6000803e3d6000fd5b505050506040513d601f19601f8201168201806040525081019061028d9190610feb565b6102a95760405162461bcd60e51b81526004016101e590611603565b60006102cb6102b88b80611740565b6102c69060a08101906116ea565b6107c5565b905061030a826102db8c80611740565b6102ec906040810190602001610f4f565b836102f78e80611740565b6103059060a08101906116ea565b610879565b6103265760405162461bcd60e51b81526004016101e5906116a3565b6103308a80611740565b61033e906020810190610f4f565b8160405160200161035092919061159c565b60408051601f198184030181529190529a60009a5098505050505050505050565b600061037b6107b6565b6001600160a01b0316146103a15760405162461bcd60e51b81526004016101e590611683565b600080546001600160a01b0319166001600160a01b0392909216919091179055565b60006103cd6105f9565b6001600160a01b03166370a08231306040518263ffffffff1660e01b81526004016103f8919061158e565b60206040518083038186803b15801561041057600080fd5b505afa158015610424573d6000803e3d6000fd5b505050506040513d601f19601f82011682018060405250810190610448919061114e565b905090565b7f000000000000000000000000000000000000000000000000000000000000000090565b600061047b6107b6565b9050806001600160a01b031663893d20e86040518163ffffffff1660e01b815260040160206040518083038186803b1580156104b657600080fd5b505afa1580156104ca573d6000803e3d6000fd5b505050506040513d601f19601f820116820180604052508101906104ee9190610f75565b6001600160a01b0316336001600160a01b03161480610526575061051181610b51565b6001600160a01b0316336001600160a01b0316145b6105425760405162461bcd60e51b81526004016101e590611663565b61054a6105f9565b6001600160a01b031662f714ce61055f6103c3565b306040518363ffffffff1660e01b815260040161057d9291906116cf565b600060405180830381600087803b15801561059757600080fd5b505af11580156105ab573d6000803e3d6000fd5b5050505060004790506105be8282610bc4565b7f430648de173157e069201c943adb2d4e340e7cf5b27b1b09c9cb852f03d63b56816040516105ed91906116c1565b60405180910390a15050565b7f000000000000000000000000000000000000000000000000000000000000000090565b6106256105f9565b6001600160a01b0316336001600160a01b0316146106555760405162461bcd60e51b81526004016101e590611673565b600061066460c08301836116ea565b8101906106719190610fcd565b9050801561068157610681610c65565b60008061069087890189610f93565b91509150816001600160a01b03167f0899cabaea081bac7a32055422e160973f6e38e6ecb8faee1f6aa46b1b76d91482886040516106cf9291906115b7565b60405180910390a25050505050505050565b7f000000000000000000000000000000000000000000000000000000000000000090565b606060405180606001604052806023815260200161182f60239139905090565b60008054610448906001600160a01b0316610b51565b610743610e66565b6040518060800160405280620249f08152602001620186a081526020016201adb08152602001612904815250905090565b61077c610725565b6001600160a01b0316336001600160a01b0316146107ac5760405162461bcd60e51b81526004016101e590611693565b6107b4610c65565b565b6000546001600160a01b031690565b600060048210156107e85760405162461bcd60e51b81526004016101e590611613565b6018838360038181106107f757fe5b909101356001600160f81b03191690911c905060108484600281811061081957fe5b909101356001600160f81b03191690911c905060088585600181811061083b57fe5b909101356001600160f81b03191690911c9050858560008161085957fe5b9050013560f81c60f81b6001600160f81b03191617171790505b92915050565b6000856001600160a01b0316856001600160a01b0316141561089d57506001610b48565b60006108a887610b51565b9050806001600160a01b0316866001600160a01b03161415610958576001600160e01b031985166339bf70d160e01b14806108f357506001600160e01b0319851663e572ced160e01b145b8061090e57506001600160e01b03198516630b10ea2b60e41b145b8061092957506001600160e01b03198516631c5b536960e21b145b8061094457506001600160e01b0319851663016e3d1d60e51b145b15610953576001915050610b48565b610b42565b806001600160a01b031663d44ad6cb6040518163ffffffff1660e01b815260040160206040518083038186803b15801561099157600080fd5b505afa1580156109a5573d6000803e3d6000fd5b505050506040513d601f19601f820116820180604052508101906109c99190610f75565b6001600160a01b0316866001600160a01b03161415610a5e576001600160e01b03198516634ed28b3f60e01b1480610a1157506001600160e01b031985166348f3520960e01b145b80610a2c57506001600160e01b031985166345d582e760e01b145b1561095357610a39610725565b6001600160a01b0316610a4c8585610df9565b6001600160a01b031614915050610b48565b806001600160a01b03166397c0ac876040518163ffffffff1660e01b815260040160206040518083038186803b158015610a9757600080fd5b505afa158015610aab573d6000803e3d6000fd5b505050506040513d601f19601f82011682018060405250810190610acf9190610f75565b6001600160a01b0316866001600160a01b03161415610b42576001600160e01b031985166321a455b160e11b1480610b1a57506001600160e01b031985166001620f751d60e31b0319145b80610b3557506001600160e01b0319851663d5189add60e01b145b15610b4257610a396107b6565b60009150505b95945050505050565b6000816001600160a01b0316635a53e3486040518163ffffffff1660e01b815260040160206040518083038186803b158015610b8c57600080fd5b505afa158015610ba0573d6000803e3d6000fd5b505050506040513d601f19601f820116820180604052508101906108739190610f75565b80471015610be45760405162461bcd60e51b81526004016101e590611653565b6000826001600160a01b031682604051610bfd90611583565b60006040518083038185875af1925050503d8060008114610c3a576040519150601f19603f3d011682016040523d82523d6000602084013e610c3f565b606091505b5050905080610c605760405162461bcd60e51b81526004016101e590611643565b505050565b6000610c6f6103c3565b90506706f05b59d3b20000811015610df6576000610c956706f05b59d3b2000083610e3e565b9050610c9f610725565b6001600160a01b03166379951f0f826040518263ffffffff1660e01b8152600401610cca91906116c1565b600060405180830381600087803b158015610ce457600080fd5b505af1158015610cf8573d6000803e3d6000fd5b50505050610d0461044d565b6001600160a01b0316632e1a7d4d826040518263ffffffff1660e01b8152600401610d2f91906116c1565b600060405180830381600087803b158015610d4957600080fd5b505af1158015610d5d573d6000803e3d6000fd5b50505050610d696105f9565b6001600160a01b031663aa67c91982306040518363ffffffff1660e01b8152600401610d95919061158e565b6000604051808303818588803b158015610dae57600080fd5b505af1158015610dc2573d6000803e3d6000fd5b50505050507f2a89b2e3d580398d6dc2db5e0f336b52602bbaa51afa9bb5cdf59239cf0d2bea816040516105ed91906116c1565b50565b60006024821015610e1c5760405162461bcd60e51b81526004016101e590611623565b610e2a602460048486611773565b810190610e379190610f4f565b9392505050565b600082821115610e605760405162461bcd60e51b81526004016101e590611633565b50900390565b6040518060800160405280600081526020016000815260200160008152602001600081525090565b8035610873816117ff565b8051610873816117ff565b803561087381611813565b805161087381611813565b80356108738161181c565b60008083601f840112610ed757600080fd5b50813567ffffffffffffffff811115610eef57600080fd5b602083019150836001820283011115610f0757600080fd5b9250929050565b60006101008284031215610f2157600080fd5b50919050565b600060408284031215610f2157600080fd5b803561087381611825565b805161087381611825565b600060208284031215610f6157600080fd5b6000610f6d8484610e8e565b949350505050565b600060208284031215610f8757600080fd5b6000610f6d8484610e99565b60008060408385031215610fa657600080fd5b6000610fb28585610e8e565b9250506020610fc385828601610eba565b9150509250929050565b600060208284031215610fdf57600080fd5b6000610f6d8484610ea4565b600060208284031215610ffd57600080fd5b6000610f6d8484610eaf565b60008060008060006080868803121561102157600080fd5b853567ffffffffffffffff81111561103857600080fd5b61104488828901610ec5565b9550955050602061105788828901610ea4565b935050604061106888828901610f39565b925050606086013567ffffffffffffffff81111561108557600080fd5b61109188828901610f0e565b9150509295509295909350565b600080600080600080608087890312156110b757600080fd5b863567ffffffffffffffff8111156110ce57600080fd5b6110da89828a01610f27565b965050602087013567ffffffffffffffff8111156110f757600080fd5b61110389828a01610ec5565b9550955050604087013567ffffffffffffffff81111561112257600080fd5b61112e89828a01610ec5565b9350935050606061114189828a01610f39565b9150509295509295509295565b60006020828403121561116057600080fd5b6000610f6d8484610f44565b6111758161179d565b82525050565b611175816117a8565b611175816117ad565b600061119882611761565b6111a28185611765565b93506111b28185602086016117c9565b6111bb816117f5565b9093019392505050565b60006111d2602383611765565b7f70726552656c6179656443616c6c3a20556e617574686f72697a65642063616c8152623632b960e91b602082015260400192915050565b6000611217603c83611765565b7f5f5f706172736554784461746146756e6374696f6e53656c6563746f723a205f81527f747844617461206973206e6f7420612076616c6964206c656e67746800000000602082015260400192915050565b6000611276604383611765565b7f5f5f70617273655478446174614669727374506172616d65746572417341646481527f726573733a205f747844617461206973206e6f7420612076616c6964206c656e6020820152620cee8d60eb1b604082015260600192915050565b60006112e1601e83611765565b7f536166654d6174683a207375627472616374696f6e206f766572666c6f770000815260200192915050565b600061131a603a83611765565b7f416464726573733a20756e61626c6520746f2073656e642076616c75652c207281527f6563697069656e74206d61792068617665207265766572746564000000000000602082015260400192915050565b6000611379601d83611765565b7f416464726573733a20696e73756666696369656e742062616c616e6365000000815260200192915050565b60006113b2603883611765565b7f776974686472617742616c616e63653a204f6e6c79206f776e6572206f72206381527f6f6d7074726f6c6c657220697320617574686f72697a65640000000000000000602082015260400192915050565b6000611411601e83611765565b7f43616e206f6e6c792062652063616c6c65642062792052656c61794875620000815260200192915050565b600061144a602383611765565b7f696e69743a205061796d617374657220616c726561647920696e697469616c698152621e995960ea1b602082015260400192915050565b600061148f602c83611765565b7f43616e206f6e6c792062652063616c6c65642062792074686520706172656e7481526b1031b7b6b83a3937b63632b960a11b602082015260400192915050565b600061087360008361176e565b60006114ea602b83611765565b7f70726552656c6179656443616c6c3a2046756e6374696f6e2063616c6c206e6f81526a1d081c195c9b5a5d1d195960aa1b602082015260400192915050565b8051608083019061153b848261157a565b50602082015161154e602085018261157a565b506040820151611561604085018261157a565b506060820151611574606085018261157a565b50505050565b611175816117c6565b6000610873826114d0565b60208101610873828461116c565b604081016115aa828561116c565b610e376020830184611184565b604081016115c58285611184565b610e37602083018461117b565b604080825281016115e3818561118d565b9050610e37602083018461117b565b60208082528101610e37818461118d565b60208082528101610873816111c5565b602080825281016108738161120a565b6020808252810161087381611269565b60208082528101610873816112d4565b602080825281016108738161130d565b602080825281016108738161136c565b60208082528101610873816113a5565b6020808252810161087381611404565b602080825281016108738161143d565b6020808252810161087381611482565b60208082528101610873816114dd565b60808101610873828461152a565b60208101610873828461157a565b604081016116dd828561157a565b610e37602083018461116c565b6000808335601e193685900301811261170257600080fd5b80840192508235915067ffffffffffffffff82111561172057600080fd5b60208301925060018202360383131561173857600080fd5b509250929050565b6000823560de193684900301811261175757600080fd5b9190910192915050565b5190565b90815260200190565b919050565b6000808585111561178357600080fd5b8386111561179057600080fd5b5050820193919092039150565b6000610873826117ba565b151590565b6001600160e01b03191690565b6001600160a01b031690565b90565b60005b838110156117e45781810151838201526020016117cc565b838111156115745750506000910152565b601f01601f191690565b6118088161179d565b8114610df657600080fd5b611808816117a8565b611808816117ad565b611808816117c656fe322e322e332b6f70656e67736e2e656e7a796d6566756e642e697061796d6173746572a164736f6c634300060c000a",
    "linkReferences": {}
  },
  "methodIdentifiers": {
    "deposit()": "d0e30db0",
    "getGasAndDataLimits()": "b039a88f",
    "getHubAddr()": "74e861d6",
    "getParentComptroller()": "ad5cb1cf",
    "getParentVault()": "de866200",
    "getRelayHubDeposit()": "2afe31c1",
    "getWethToken()": "4c252f91",
    "init(address)": "19ab453c",
    "postRelayedCall(bytes,bool,uint256,(uint256,uint256,uint256,address,address,address,bytes,uint256))": "76fa01c3",
    "preRelayedCall(((address,address,uint256,uint256,uint256,bytes,uint256),(uint256,uint256,uint256,address,address,address,bytes,uint256)),bytes,bytes,uint256)": "00be5dd4",
    "trustedForwarder()": "7da0a877",
    "versionPaymaster()": "921276ea",
    "withdrawBalance()": "5fd8c710"
  },
  "id": 229
}