{
  "abi": [
    {
      "inputs": [
        {
          "internalType": "address",
          "name": "_globalConfigProxy",
          "type": "address"
        }
      ],
      "stateMutability": "nonpayable",
      "type": "constructor"
    },
    {
      "anonymous": false,
      "inputs": [
        {
          "indexed": true,
          "internalType": "address",
          "name": "owner",
          "type": "address"
        },
        {
          "indexed": true,
          "internalType": "address",
          "name": "spender",
          "type": "address"
        },
        {
          "indexed": false,
          "internalType": "uint256",
          "name": "value",
          "type": "uint256"
        }
      ],
      "name": "Approval",
      "type": "event"
    },
    {
      "anonymous": false,
      "inputs": [
        {
          "indexed": true,
          "internalType": "address",
          "name": "user",
          "type": "address"
        },
        {
          "indexed": true,
          "internalType": "address",
          "name": "asset",
          "type": "address"
        },
        {
          "indexed": false,
          "internalType": "uint256",
          "name": "amount",
          "type": "uint256"
        }
      ],
      "name": "DepositApproval",
      "type": "event"
    },
    {
      "anonymous": false,
      "inputs": [
        {
          "indexed": true,
          "internalType": "address",
          "name": "user",
          "type": "address"
        },
        {
          "indexed": true,
          "internalType": "address",
          "name": "depositToken",
          "type": "address"
        },
        {
          "indexed": false,
          "internalType": "uint256",
          "name": "depositTokenAmount",
          "type": "uint256"
        },
        {
          "indexed": false,
          "internalType": "uint256",
          "name": "sharesReceived",
          "type": "uint256"
        }
      ],
      "name": "Deposited",
      "type": "event"
    },
    {
      "anonymous": false,
      "inputs": [
        {
          "indexed": true,
          "internalType": "address",
          "name": "vaultProxy",
          "type": "address"
        }
      ],
      "name": "Initialized",
      "type": "event"
    },
    {
      "anonymous": false,
      "inputs": [
        {
          "indexed": true,
          "internalType": "address",
          "name": "user",
          "type": "address"
        },
        {
          "indexed": false,
          "internalType": "uint256",
          "name": "sharesAmount",
          "type": "uint256"
        }
      ],
      "name": "Kicked",
      "type": "event"
    },
    {
      "anonymous": false,
      "inputs": [
        {
          "indexed": true,
          "internalType": "address",
          "name": "user",
          "type": "address"
        }
      ],
      "name": "ManagerAdded",
      "type": "event"
    },
    {
      "anonymous": false,
      "inputs": [
        {
          "indexed": true,
          "internalType": "address",
          "name": "user",
          "type": "address"
        }
      ],
      "name": "ManagerRemoved",
      "type": "event"
    },
    {
      "anonymous": false,
      "inputs": [
        {
          "indexed": true,
          "internalType": "address",
          "name": "user",
          "type": "address"
        },
        {
          "indexed": false,
          "internalType": "uint256",
          "name": "sharesAmount",
          "type": "uint256"
        }
      ],
      "name": "Redeemed",
      "type": "event"
    },
    {
      "anonymous": false,
      "inputs": [
        {
          "indexed": true,
          "internalType": "address",
          "name": "user",
          "type": "address"
        },
        {
          "indexed": false,
          "internalType": "uint256",
          "name": "amount",
          "type": "uint256"
        }
      ],
      "name": "RedemptionApproval",
      "type": "event"
    },
    {
      "anonymous": false,
      "inputs": [
        {
          "indexed": true,
          "internalType": "address",
          "name": "asset",
          "type": "address"
        }
      ],
      "name": "RedemptionAssetSet",
      "type": "event"
    },
    {
      "anonymous": false,
      "inputs": [
        {
          "indexed": true,
          "internalType": "address",
          "name": "user",
          "type": "address"
        },
        {
          "indexed": false,
          "internalType": "uint256",
          "name": "sharesAmount",
          "type": "uint256"
        }
      ],
      "name": "RedemptionRequestAdded",
      "type": "event"
    },
    {
      "anonymous": false,
      "inputs": [
        {
          "indexed": true,
          "internalType": "address",
          "name": "user",
          "type": "address"
        }
      ],
      "name": "RedemptionRequestRemoved",
      "type": "event"
    },
    {
      "anonymous": false,
      "inputs": [
        {
          "indexed": false,
          "internalType": "uint256",
          "name": "firstWindowStart",
          "type": "uint256"
        },
        {
          "indexed": false,
          "internalType": "uint256",
          "name": "frequency",
          "type": "uint256"
        },
        {
          "indexed": false,
          "internalType": "uint256",
          "name": "duration",
          "type": "uint256"
        },
        {
          "indexed": false,
          "internalType": "uint256",
          "name": "relativeSharesCap",
          "type": "uint256"
        }
      ],
      "name": "RedemptionWindowConfigSet",
      "type": "event"
    },
    {
      "anonymous": false,
      "inputs": [
        {
          "indexed": true,
          "internalType": "address",
          "name": "from",
          "type": "address"
        },
        {
          "indexed": true,
          "internalType": "address",
          "name": "to",
          "type": "address"
        },
        {
          "indexed": false,
          "internalType": "uint256",
          "name": "value",
          "type": "uint256"
        }
      ],
      "name": "Transfer",
      "type": "event"
    },
    {
      "anonymous": false,
      "inputs": [
        {
          "indexed": true,
          "internalType": "address",
          "name": "sender",
          "type": "address"
        },
        {
          "indexed": true,
          "internalType": "address",
          "name": "recipient",
          "type": "address"
        },
        {
          "indexed": false,
          "internalType": "uint256",
          "name": "amount",
          "type": "uint256"
        }
      ],
      "name": "TransferApproval",
      "type": "event"
    },
    {
      "anonymous": false,
      "inputs": [
        {
          "indexed": false,
          "internalType": "bool",
          "name": "useApprovals",
          "type": "bool"
        }
      ],
      "name": "UseDepositApprovalsSet",
      "type": "event"
    },
    {
      "anonymous": false,
      "inputs": [
        {
          "indexed": false,
          "internalType": "bool",
          "name": "useApprovals",
          "type": "bool"
        }
      ],
      "name": "UseRedemptionApprovalsSet",
      "type": "event"
    },
    {
      "anonymous": false,
      "inputs": [
        {
          "indexed": false,
          "internalType": "bool",
          "name": "useApprovals",
          "type": "bool"
        }
      ],
      "name": "UseTransferApprovalsSet",
      "type": "event"
    },
    {
      "inputs": [
        {
          "internalType": "address[]",
          "name": "_managers",
          "type": "address[]"
        }
      ],
      "name": "addManagers",
      "outputs": [],
      "stateMutability": "nonpayable",
      "type": "function"
    },
    {
      "inputs": [
        {
          "internalType": "address",
          "name": "owner",
          "type": "address"
        },
        {
          "internalType": "address",
          "name": "spender",
          "type": "address"
        }
      ],
      "name": "allowance",
      "outputs": [
        {
          "internalType": "uint256",
          "name": "",
          "type": "uint256"
        }
      ],
      "stateMutability": "view",
      "type": "function"
    },
    {
      "inputs": [
        {
          "internalType": "address",
          "name": "spender",
          "type": "address"
        },
        {
          "internalType": "uint256",
          "name": "amount",
          "type": "uint256"
        }
      ],
      "name": "approve",
      "outputs": [
        {
          "internalType": "bool",
          "name": "",
          "type": "bool"
        }
      ],
      "stateMutability": "nonpayable",
      "type": "function"
    },
    {
      "inputs": [
        {
          "internalType": "address",
          "name": "account",
          "type": "address"
        }
      ],
      "name": "balanceOf",
      "outputs": [
        {
          "internalType": "uint256",
          "name": "",
          "type": "uint256"
        }
      ],
      "stateMutability": "view",
      "type": "function"
    },
    {
      "inputs": [],
      "name": "calcLatestRedemptionWindow",
      "outputs": [
        {
          "internalType": "uint256",
          "name": "windowStart_",
          "type": "uint256"
        },
        {
          "internalType": "uint256",
          "name": "windowEnd_",
          "type": "uint256"
        }
      ],
      "stateMutability": "view",
      "type": "function"
    },
    {
      "inputs": [],
      "name": "cancelRequestRedeem",
      "outputs": [],
      "stateMutability": "nonpayable",
      "type": "function"
    },
    {
      "inputs": [],
      "name": "decimals",
      "outputs": [
        {
          "internalType": "uint8",
          "name": "decimals_",
          "type": "uint8"
        }
      ],
      "stateMutability": "view",
      "type": "function"
    },
    {
      "inputs": [
        {
          "internalType": "address",
          "name": "spender",
          "type": "address"
        },
        {
          "internalType": "uint256",
          "name": "subtractedValue",
          "type": "uint256"
        }
      ],
      "name": "decreaseAllowance",
      "outputs": [
        {
          "internalType": "bool",
          "name": "",
          "type": "bool"
        }
      ],
      "stateMutability": "nonpayable",
      "type": "function"
    },
    {
      "inputs": [
        {
          "internalType": "contract ERC20",
          "name": "_depositAssetContract",
          "type": "address"
        },
        {
          "internalType": "uint256",
          "name": "_depositAssetAmount",
          "type": "uint256"
        },
        {
          "internalType": "uint256",
          "name": "_minSharesAmount",
          "type": "uint256"
        }
      ],
      "name": "deposit",
      "outputs": [
        {
          "internalType": "uint256",
          "name": "sharesReceived_",
          "type": "uint256"
        }
      ],
      "stateMutability": "nonpayable",
      "type": "function"
    },
    {
      "inputs": [],
      "name": "depositApprovalsAreUsed",
      "outputs": [
        {
          "internalType": "bool",
          "name": "approvalsUsed_",
          "type": "bool"
        }
      ],
      "stateMutability": "view",
      "type": "function"
    },
    {
      "inputs": [
        {
          "internalType": "address",
          "name": "_user",
          "type": "address"
        },
        {
          "internalType": "address",
          "name": "_asset",
          "type": "address"
        }
      ],
      "name": "getDepositApproval",
      "outputs": [
        {
          "internalType": "uint256",
          "name": "amount_",
          "type": "uint256"
        }
      ],
      "stateMutability": "view",
      "type": "function"
    },
    {
      "inputs": [
        {
          "internalType": "address",
          "name": "_user",
          "type": "address"
        }
      ],
      "name": "getRedemptionApproval",
      "outputs": [
        {
          "internalType": "uint256",
          "name": "amount_",
          "type": "uint256"
        }
      ],
      "stateMutability": "view",
      "type": "function"
    },
    {
      "inputs": [],
      "name": "getRedemptionAsset",
      "outputs": [
        {
          "internalType": "address",
          "name": "asset_",
          "type": "address"
        }
      ],
      "stateMutability": "view",
      "type": "function"
    },
    {
      "inputs": [],
      "name": "getRedemptionQueue",
      "outputs": [
        {
          "internalType": "uint256",
          "name": "totalSharesPending_",
          "type": "uint256"
        },
        {
          "internalType": "uint256",
          "name": "relativeSharesAllowed_",
          "type": "uint256"
        },
        {
          "internalType": "uint256",
          "name": "relativeSharesCheckpointed_",
          "type": "uint256"
        }
      ],
      "stateMutability": "view",
      "type": "function"
    },
    {
      "inputs": [
        {
          "internalType": "uint256",
          "name": "_index",
          "type": "uint256"
        }
      ],
      "name": "getRedemptionQueueUserByIndex",
      "outputs": [
        {
          "internalType": "address",
          "name": "user_",
          "type": "address"
        }
      ],
      "stateMutability": "view",
      "type": "function"
    },
    {
      "inputs": [
        {
          "internalType": "address",
          "name": "_user",
          "type": "address"
        }
      ],
      "name": "getRedemptionQueueUserRequest",
      "outputs": [
        {
          "components": [
            {
              "internalType": "uint64",
              "name": "index",
              "type": "uint64"
            },
            {
              "internalType": "uint64",
              "name": "lastRedeemed",
              "type": "uint64"
            },
            {
              "internalType": "uint128",
              "name": "sharesPending",
              "type": "uint128"
            }
          ],
          "internalType": "struct GatedRedemptionQueueSharesWrapperLibBase1.RedemptionRequest",
          "name": "request_",
          "type": "tuple"
        }
      ],
      "stateMutability": "view",
      "type": "function"
    },
    {
      "inputs": [],
      "name": "getRedemptionQueueUsers",
      "outputs": [
        {
          "internalType": "address[]",
          "name": "users_",
          "type": "address[]"
        }
      ],
      "stateMutability": "view",
      "type": "function"
    },
    {
      "inputs": [],
      "name": "getRedemptionQueueUsersLength",
      "outputs": [
        {
          "internalType": "uint256",
          "name": "length_",
          "type": "uint256"
        }
      ],
      "stateMutability": "view",
      "type": "function"
    },
    {
      "inputs": [],
      "name": "getRedemptionWindowConfig",
      "outputs": [
        {
          "components": [
            {
              "internalType": "uint64",
              "name": "firstWindowStart",
              "type": "uint64"
            },
            {
              "internalType": "uint32",
              "name": "frequency",
              "type": "uint32"
            },
            {
              "internalType": "uint32",
              "name": "duration",
              "type": "uint32"
            },
            {
              "internalType": "uint64",
              "name": "relativeSharesCap",
              "type": "uint64"
            }
          ],
          "internalType": "struct GatedRedemptionQueueSharesWrapperLibBase1.RedemptionWindowConfig",
          "name": "redemptionWindowConfig_",
          "type": "tuple"
        }
      ],
      "stateMutability": "view",
      "type": "function"
    },
    {
      "inputs": [
        {
          "internalType": "address",
          "name": "_sender",
          "type": "address"
        },
        {
          "internalType": "address",
          "name": "_recipient",
          "type": "address"
        }
      ],
      "name": "getTransferApproval",
      "outputs": [
        {
          "internalType": "uint256",
          "name": "amount_",
          "type": "uint256"
        }
      ],
      "stateMutability": "view",
      "type": "function"
    },
    {
      "inputs": [],
      "name": "getVaultProxy",
      "outputs": [
        {
          "internalType": "address",
          "name": "vaultProxy_",
          "type": "address"
        }
      ],
      "stateMutability": "view",
      "type": "function"
    },
    {
      "inputs": [
        {
          "internalType": "address",
          "name": "spender",
          "type": "address"
        },
        {
          "internalType": "uint256",
          "name": "addedValue",
          "type": "uint256"
        }
      ],
      "name": "increaseAllowance",
      "outputs": [
        {
          "internalType": "bool",
          "name": "",
          "type": "bool"
        }
      ],
      "stateMutability": "nonpayable",
      "type": "function"
    },
    {
      "inputs": [
        {
          "internalType": "address",
          "name": "_vaultProxy",
          "type": "address"
        },
        {
          "internalType": "address[]",
          "name": "_managers",
          "type": "address[]"
        },
        {
          "internalType": "address",
          "name": "_redemptionAsset",
          "type": "address"
        },
        {
          "internalType": "bool",
          "name": "_useDepositApprovals",
          "type": "bool"
        },
        {
          "internalType": "bool",
          "name": "_useRedemptionApprovals",
          "type": "bool"
        },
        {
          "internalType": "bool",
          "name": "_useTransferApprovals",
          "type": "bool"
        },
        {
          "components": [
            {
              "internalType": "uint64",
              "name": "firstWindowStart",
              "type": "uint64"
            },
            {
              "internalType": "uint32",
              "name": "frequency",
              "type": "uint32"
            },
            {
              "internalType": "uint32",
              "name": "duration",
              "type": "uint32"
            },
            {
              "internalType": "uint64",
              "name": "relativeSharesCap",
              "type": "uint64"
            }
          ],
          "internalType": "struct GatedRedemptionQueueSharesWrapperLibBase1.RedemptionWindowConfig",
          "name": "_windowConfig",
          "type": "tuple"
        }
      ],
      "name": "init",
      "outputs": [],
      "stateMutability": "nonpayable",
      "type": "function"
    },
    {
      "inputs": [
        {
          "internalType": "address",
          "name": "_user",
          "type": "address"
        }
      ],
      "name": "isManager",
      "outputs": [
        {
          "internalType": "bool",
          "name": "isManager_",
          "type": "bool"
        }
      ],
      "stateMutability": "view",
      "type": "function"
    },
    {
      "inputs": [
        {
          "internalType": "address",
          "name": "_user",
          "type": "address"
        }
      ],
      "name": "kick",
      "outputs": [
        {
          "internalType": "uint256",
          "name": "sharesRedeemed_",
          "type": "uint256"
        }
      ],
      "stateMutability": "nonpayable",
      "type": "function"
    },
    {
      "inputs": [],
      "name": "name",
      "outputs": [
        {
          "internalType": "string",
          "name": "name_",
          "type": "string"
        }
      ],
      "stateMutability": "view",
      "type": "function"
    },
    {
      "inputs": [
        {
          "internalType": "uint256",
          "name": "_startIndex",
          "type": "uint256"
        },
        {
          "internalType": "uint256",
          "name": "_endIndex",
          "type": "uint256"
        }
      ],
      "name": "redeemFromQueue",
      "outputs": [
        {
          "internalType": "address[]",
          "name": "usersRedeemed_",
          "type": "address[]"
        },
        {
          "internalType": "uint256[]",
          "name": "sharesRedeemed_",
          "type": "uint256[]"
        }
      ],
      "stateMutability": "nonpayable",
      "type": "function"
    },
    {
      "inputs": [],
      "name": "redemptionApprovalsAreUsed",
      "outputs": [
        {
          "internalType": "bool",
          "name": "approvalsUsed_",
          "type": "bool"
        }
      ],
      "stateMutability": "view",
      "type": "function"
    },
    {
      "inputs": [
        {
          "internalType": "address[]",
          "name": "_managers",
          "type": "address[]"
        }
      ],
      "name": "removeManagers",
      "outputs": [],
      "stateMutability": "nonpayable",
      "type": "function"
    },
    {
      "inputs": [
        {
          "internalType": "uint256",
          "name": "_sharesAmount",
          "type": "uint256"
        }
      ],
      "name": "requestRedeem",
      "outputs": [],
      "stateMutability": "nonpayable",
      "type": "function"
    },
    {
      "inputs": [
        {
          "internalType": "address[]",
          "name": "_users",
          "type": "address[]"
        },
        {
          "internalType": "address[]",
          "name": "_assets",
          "type": "address[]"
        },
        {
          "internalType": "uint256[]",
          "name": "_amounts",
          "type": "uint256[]"
        }
      ],
      "name": "setDepositApprovals",
      "outputs": [],
      "stateMutability": "nonpayable",
      "type": "function"
    },
    {
      "inputs": [
        {
          "internalType": "address[]",
          "name": "_users",
          "type": "address[]"
        },
        {
          "internalType": "uint256[]",
          "name": "_amounts",
          "type": "uint256[]"
        }
      ],
      "name": "setRedemptionApprovals",
      "outputs": [],
      "stateMutability": "nonpayable",
      "type": "function"
    },
    {
      "inputs": [
        {
          "internalType": "address",
          "name": "_nextRedemptionAsset",
          "type": "address"
        }
      ],
      "name": "setRedemptionAsset",
      "outputs": [],
      "stateMutability": "nonpayable",
      "type": "function"
    },
    {
      "inputs": [
        {
          "components": [
            {
              "internalType": "uint64",
              "name": "firstWindowStart",
              "type": "uint64"
            },
            {
              "internalType": "uint32",
              "name": "frequency",
              "type": "uint32"
            },
            {
              "internalType": "uint32",
              "name": "duration",
              "type": "uint32"
            },
            {
              "internalType": "uint64",
              "name": "relativeSharesCap",
              "type": "uint64"
            }
          ],
          "internalType": "struct GatedRedemptionQueueSharesWrapperLibBase1.RedemptionWindowConfig",
          "name": "_nextWindowConfig",
          "type": "tuple"
        }
      ],
      "name": "setRedemptionWindowConfig",
      "outputs": [],
      "stateMutability": "nonpayable",
      "type": "function"
    },
    {
      "inputs": [
        {
          "internalType": "address[]",
          "name": "_users",
          "type": "address[]"
        },
        {
          "internalType": "address[]",
          "name": "_recipients",
          "type": "address[]"
        },
        {
          "internalType": "uint256[]",
          "name": "_amounts",
          "type": "uint256[]"
        }
      ],
      "name": "setTransferApprovals",
      "outputs": [],
      "stateMutability": "nonpayable",
      "type": "function"
    },
    {
      "inputs": [
        {
          "internalType": "bool",
          "name": "_nextUseDepositApprovals",
          "type": "bool"
        }
      ],
      "name": "setUseDepositApprovals",
      "outputs": [],
      "stateMutability": "nonpayable",
      "type": "function"
    },
    {
      "inputs": [
        {
          "internalType": "bool",
          "name": "_nextUseRedemptionApprovals",
          "type": "bool"
        }
      ],
      "name": "setUseRedemptionApprovals",
      "outputs": [],
      "stateMutability": "nonpayable",
      "type": "function"
    },
    {
      "inputs": [
        {
          "internalType": "bool",
          "name": "_nextUseTransferApprovals",
          "type": "bool"
        }
      ],
      "name": "setUseTransferApprovals",
      "outputs": [],
      "stateMutability": "nonpayable",
      "type": "function"
    },
    {
      "inputs": [],
      "name": "symbol",
      "outputs": [
        {
          "internalType": "string",
          "name": "symbol_",
          "type": "string"
        }
      ],
      "stateMutability": "view",
      "type": "function"
    },
    {
      "inputs": [],
      "name": "totalSupply",
      "outputs": [
        {
          "internalType": "uint256",
          "name": "",
          "type": "uint256"
        }
      ],
      "stateMutability": "view",
      "type": "function"
    },
    {
      "inputs": [
        {
          "internalType": "address",
          "name": "_recipient",
          "type": "address"
        },
        {
          "internalType": "uint256",
          "name": "_amount",
          "type": "uint256"
        }
      ],
      "name": "transfer",
      "outputs": [
        {
          "internalType": "bool",
          "name": "success_",
          "type": "bool"
        }
      ],
      "stateMutability": "nonpayable",
      "type": "function"
    },
    {
      "inputs": [],
      "name": "transferApprovalsAreUsed",
      "outputs": [
        {
          "internalType": "bool",
          "name": "approvalsUsed_",
          "type": "bool"
        }
      ],
      "stateMutability": "view",
      "type": "function"
    },
    {
      "inputs": [
        {
          "internalType": "address",
          "name": "_sender",
          "type": "address"
        },
        {
          "internalType": "address",
          "name": "_recipient",
          "type": "address"
        },
        {
          "internalType": "uint256",
          "name": "_amount",
          "type": "uint256"
        }
      ],
      "name": "transferFrom",
      "outputs": [
        {
          "internalType": "bool",
          "name": "success_",
          "type": "bool"
        }
      ],
      "stateMutability": "nonpayable",
      "type": "function"
    }
  ],
  "bytecode": {
    "object": "0x60c06040523480156200001157600080fd5b506040516200539c3803806200539c833981016040819052620000349162000192565b604080518082018252601981527f5772617070656420456e7a796d6520536861726573204c6962000000000000006020808301918252835180850190945260098452683ba2a72d2316b634b160b91b9084015281519192916200009a91600391620000e3565b508051620000b0906004906020840190620000e3565b50506005805460ff191660121790555060016006556001600160601b0319606091821b1660805230901b60a052620001e7565b828054600181600116156101000203166002900490600052602060002090601f016020900481019282601f106200012657805160ff191683800117855562000156565b8280016001018555821562000156579182015b828111156200015657825182559160200191906001019062000139565b506200016492915062000168565b5090565b5b8082111562000164576000815560010162000169565b80516200018c81620001cd565b92915050565b600060208284031215620001a557600080fd5b6000620001b384846200017f565b949350505050565b60006001600160a01b0382166200018c565b620001d881620001bb565b8114620001e457600080fd5b50565b60805160601c60a05160601c6151816200021b600039806105a552806119cb5250806108c5528061338a52506151816000f3fe608060405234801561001057600080fd5b50600436106102695760003560e01c80636829bda711610151578063a8e5eeb1116100c3578063ca4ca8fa11610087578063ca4ca8fa1461051d578063cea6a0ee1461053e578063dd62ed3e14610555578063f3ae241514610568578063f7cb89521461057b578063fd71b12b1461058357610269565b8063a8e5eeb1146104bc578063a9059cbb146104dc578063aa2f892d146104ef578063b9a3abdb14610502578063c98091871461051557610269565b80638d1d24da116101155780638d1d24da1461046b5780638f958f711461047e57806395d89b411461048657806396c551751461048e5780639a8fea95146104a1578063a457c2d7146104a957610269565b80636829bda71461042257806370a082311461042a5780637ba069311461043d5780637cb4f020146104505780638c5f9e741461045857610269565b8063318f98aa116101ea578063447d7e19116101ae578063447d7e19146103b6578063469df117146103cb5780634d947471146103de57806358205209146103f157806361791f27146103f95780636753c1591461040f57610269565b8063318f98aa1461034a57806334c945061461036a57806338f1917d1461037d578063395093511461039057806342f6be5b146103a357610269565b806315fd7a521161023157806315fd7a52146102f457806318160ddd1461030757806323b872dd1461030f5780632f63221d14610322578063313ce5671461033557610269565b806306fdde031461026e578063095ea7b31461028c57806309f8ca5c146102ac5780630efe6a8b146102c157806310f3ee29146102e1575b600080fd5b610276610598565b6040516102839190614c54565b60405180910390f35b61029f61029a366004613b10565b61067b565b6040516102839190614c46565b6102bf6102ba366004613d2f565b610699565b005b6102d46102cf366004613cc9565b610774565b6040516102839190614f21565b6102bf6102ef366004613b40565b610b27565b6102bf610302366004613c8d565b610c78565b6102d4610d39565b61029f61031d3660046139c4565b610d3f565b6102d461033036600461398a565b610d61565b61033d610d8c565b6040516102839190614f96565b61035d610358366004613d6b565b610d91565b6040516102839190614b58565b6102bf610378366004613b81565b610dc0565b6102d461038b36600461394e565b610ff0565b61029f61039e366004613b10565b61100b565b6102bf6103b1366004613a11565b61105e565b6103be611120565b6040516102839190614c10565b6102bf6103d9366004613b81565b611185565b6102bf6103ec366004613c8d565b6113ac565b6102bf61146d565b61040161154d565b604051610283929190614f2f565b6102d461041d36600461398a565b611626565b61035d611651565b6102d461043836600461394e565b611660565b6102bf61044b36600461394e565b61167b565b6102d461173c565b6102bf610466366004613b40565b611742565b6102bf610479366004613c1f565b6117f8565b61029f6119ae565b6102766119be565b6102d461049c36600461394e565b611a85565b61029f611c67565b61029f6104b7366004613b10565b611c77565b6104cf6104ca36600461394e565b611cdf565b6040516102839190614f05565b61029f6104ea366004613b10565b611d44565b6102bf6104fd366004613d6b565b611d5b565b6102bf610510366004613c8d565b611f55565b61035d612016565b61053061052b366004613da7565b612025565b604051610283929190614c21565b610546612580565b60405161028393929190614f3d565b6102d461056336600461398a565b6125ab565b61029f61057636600461394e565b6125d6565b61029f6125f4565b61058b612604565b6040516102839190614f13565b6060306001600160a01b037f00000000000000000000000000000000000000000000000000000000000000001614156105da576105d361265b565b9050610678565b6105e2612016565b6001600160a01b03166306fdde036040518163ffffffff1660e01b815260040160006040518083038186803b15801561061a57600080fd5b505afa15801561062e573d6000803e3d6000fd5b505050506040513d6000823e601f3d908101601f191682016040526106569190810190613cfb565b6040516020016106669190614b4d565b60405160208183030381529060405290505b90565b600061068f6106886126e8565b84846126ec565b5060015b92915050565b6106a2336125d6565b8061073557506106b0612016565b6001600160a01b031663893d20e86040518163ffffffff1660e01b815260040160206040518083038186803b1580156106e857600080fd5b505afa1580156106fc573d6000803e3d6000fd5b505050506040513d601f19601f82011682018060405250810190610720919061396c565b6001600160a01b0316336001600160a01b0316145b61075a5760405162461bcd60e51b815260040161075190614c65565b60405180910390fd5b61077161076c36839003830183613d4d565b6127a0565b50565b6000600260065414156107995760405162461bcd60e51b815260040161075190614ec5565b60026006556107a6611c67565b156108085760006107b73386610d61565b90506000198114610806578381146107e15760405162461bcd60e51b815260040161075190614c95565b336000908152600e602090815260408083206001600160a01b03891684529091528120555b505b61081142612988565b1561081e5761081e6129c0565b6108336001600160a01b038516333086612ac0565b600061083d612016565b90506000816001600160a01b03166370a08231306040518263ffffffff1660e01b815260040161086d9190614b58565b60206040518083038186803b15801561088557600080fd5b505afa158015610899573d6000803e3d6000fd5b505050506040513d601f19601f820116820180604052508101906108bd9190613d89565b9050600060607f00000000000000000000000000000000000000000000000000000000000000006001600160a01b0316637f180433858a8a6040518463ffffffff1660e01b815260040161091393929190614bcd565b60006040518083038186803b15801561092b57600080fd5b505afa15801561093f573d6000803e3d6000fd5b505050506040513d6000823e601f3d908101601f191682016040526109679190810190613ac9565b604051636eb1769f60e11b815291935091506001600160a01b0389169063dd62ed3e9061099a9030908690600401614b66565b60206040518083038186803b1580156109b257600080fd5b505afa1580156109c6573d6000803e3d6000fd5b505050506040513d601f19601f820116820180604052508101906109ea9190613d89565b610a0457610a046001600160a01b03891683600019612b1e565b610a176001600160a01b03831682612be1565b50610a9e83856001600160a01b03166370a08231306040518263ffffffff1660e01b8152600401610a489190614b58565b60206040518083038186803b158015610a6057600080fd5b505afa158015610a74573d6000803e3d6000fd5b505050506040513d601f19601f82011682018060405250810190610a989190613d89565b90612c23565b945085851015610ac05760405162461bcd60e51b815260040161075190614da5565b610aca3386612c4b565b876001600160a01b0316336001600160a01b03167ff5681f9d0db1b911ac18ee83d515a1cf1051853a9eae418316a2fdf7dea427c58988604051610b0f929190614f2f565b60405180910390a35050505060016006559392505050565b610b2f612016565b6001600160a01b031663893d20e86040518163ffffffff1660e01b815260040160206040518083038186803b158015610b6757600080fd5b505afa158015610b7b573d6000803e3d6000fd5b505050506040513d601f19601f82011682018060405250810190610b9f919061396c565b6001600160a01b0316336001600160a01b031614610bcf5760405162461bcd60e51b815260040161075190614e65565b60005b81811015610c73576000838383818110610be857fe5b9050602002016020810190610bfd919061394e565b9050610c08816125d6565b610c245760405162461bcd60e51b815260040161075190614cb5565b6001600160a01b0381166000818152600d6020526040808220805460ff19169055517fef69f7d97228658c92417be1b16b19058315de71fecb435d07b7d23728b6bd319190a250600101610bd2565b505050565b610c81336125d6565b80610d145750610c8f612016565b6001600160a01b031663893d20e86040518163ffffffff1660e01b815260040160206040518083038186803b158015610cc757600080fd5b505afa158015610cdb573d6000803e3d6000fd5b505050506040513d601f19601f82011682018060405250810190610cff919061396c565b6001600160a01b0316336001600160a01b0316145b610d305760405162461bcd60e51b815260040161075190614c65565b61077181612d0b565b60025490565b6000610d4c848484612d5d565b610d57848484612e23565b90505b9392505050565b6001600160a01b039182166000908152600e6020908152604080832093909416825291909152205490565b601290565b600060096002018281548110610da357fe5b6000918252602090912001546001600160a01b031690505b919050565b610dc9336125d6565b80610e5c5750610dd7612016565b6001600160a01b031663893d20e86040518163ffffffff1660e01b815260040160206040518083038186803b158015610e0f57600080fd5b505afa158015610e23573d6000803e3d6000fd5b505050506040513d601f19601f82011682018060405250810190610e47919061396c565b6001600160a01b0316336001600160a01b0316145b610e785760405162461bcd60e51b815260040161075190614c65565b8483148015610e8657508481145b610ea25760405162461bcd60e51b815260040161075190614e75565b60005b85811015610fe757828282818110610eb957fe5b90506020020135600e6000898985818110610ed057fe5b9050602002016020810190610ee5919061394e565b6001600160a01b03166001600160a01b031681526020019081526020016000206000878785818110610f1357fe5b9050602002016020810190610f28919061394e565b6001600160a01b03168152602081019190915260400160002055848482818110610f4e57fe5b9050602002016020810190610f63919061394e565b6001600160a01b0316878783818110610f7857fe5b9050602002016020810190610f8d919061394e565b6001600160a01b03167f4dae074c756df580211e8a4d151b1943c628014581d922bca6f1ed34971da8f7858585818110610fc357fe5b90506020020135604051610fd79190614f21565b60405180910390a3600101610ea5565b50505050505050565b6001600160a01b031660009081526010602052604090205490565b600061068f6110186126e8565b8461105985600160006110296126e8565b6001600160a01b03908116825260208083019390935260409182016000908120918c168152925290205490612ea5565b6126ec565b6007546001600160a01b0316156110875760405162461bcd60e51b815260040161075190614e05565b600780546001600160a01b0319166001600160a01b038a161790556110ac8787612eca565b6110b585612f72565b6110be84612fbc565b6110c783613003565b6110d082612d0b565b6110e261076c36839003830183613d4d565b6040516001600160a01b038916907f908408e307fc569b417f6cbec5d5a06f44a0a505ac0479b47d421a4b2fd6a1e690600090a25050505050505050565b6060600960020180548060200260200160405190810160405280929190818152602001828054801561117b57602002820191906000526020600020905b81546001600160a01b0316815260019091019060200180831161115d575b5050505050905090565b61118e336125d6565b80611221575061119c612016565b6001600160a01b031663893d20e86040518163ffffffff1660e01b815260040160206040518083038186803b1580156111d457600080fd5b505afa1580156111e8573d6000803e3d6000fd5b505050506040513d601f19601f8201168201806040525081019061120c919061396c565b6001600160a01b0316336001600160a01b0316145b61123d5760405162461bcd60e51b815260040161075190614c65565b848314801561124b57508481145b6112675760405162461bcd60e51b815260040161075190614ea5565b60005b85811015610fe75782828281811061127e57fe5b90506020020135600f600089898581811061129557fe5b90506020020160208101906112aa919061394e565b6001600160a01b03166001600160a01b0316815260200190815260200160002060008787858181106112d857fe5b90506020020160208101906112ed919061394e565b6001600160a01b0316815260208101919091526040016000205584848281811061131357fe5b9050602002016020810190611328919061394e565b6001600160a01b031687878381811061133d57fe5b9050602002016020810190611352919061394e565b6001600160a01b03167fd87fddc704b730421c81d78c453e00a9fce9becb5d1bac170929a72880a7115e85858581811061138857fe5b9050602002013560405161139c9190614f21565b60405180910390a360010161126a565b6113b5336125d6565b8061144857506113c3612016565b6001600160a01b031663893d20e86040518163ffffffff1660e01b815260040160206040518083038186803b1580156113fb57600080fd5b505afa15801561140f573d6000803e3d6000fd5b505050506040513d601f19601f82011682018060405250810190611433919061396c565b6001600160a01b0316336001600160a01b0316145b6114645760405162461bcd60e51b815260040161075190614c65565b61077181613003565b600260065414156114905760405162461bcd60e51b815260040161075190614ec5565b600260065561149e42612988565b156114bb5760405162461bcd60e51b815260040161075190614df5565b336000908152600a6020526040902054600990600160801b90046001600160801b0316806114fb5760405162461bcd60e51b815260040161075190614cc5565b815461151990611514906001600160801b031683612c23565b61304a565b82546001600160801b0319166001600160801b03919091161782556002820154611544903390613073565b50506001600655565b600080611558613781565b611560612604565b80519091506001600160401b0316421080611583575080516001600160401b0316155b15611595576000809250925050611622565b60006115cb826020015163ffffffff166115c584600001516001600160401b031642612c2390919063ffffffff16565b906131bb565b90506115fe6115ed836020015163ffffffff16836131ed90919063ffffffff16565b83516001600160401b031690612ea5565b935061161d826040015163ffffffff1685612ea590919063ffffffff16565b925050505b9091565b6001600160a01b039182166000908152600f6020908152604080832093909416825291909152205490565b6008546001600160a01b031690565b6001600160a01b031660009081526020819052604090205490565b611684336125d6565b806117175750611692612016565b6001600160a01b031663893d20e86040518163ffffffff1660e01b815260040160206040518083038186803b1580156116ca57600080fd5b505afa1580156116de573d6000803e3d6000fd5b505050506040513d601f19601f82011682018060405250810190611702919061396c565b6001600160a01b0316336001600160a01b0316145b6117335760405162461bcd60e51b815260040161075190614c65565b61077181612f72565b600b5490565b61174a612016565b6001600160a01b031663893d20e86040518163ffffffff1660e01b815260040160206040518083038186803b15801561178257600080fd5b505afa158015611796573d6000803e3d6000fd5b505050506040513d601f19601f820116820180604052508101906117ba919061396c565b6001600160a01b0316336001600160a01b0316146117ea5760405162461bcd60e51b815260040161075190614e65565b6117f48282612eca565b5050565b611801336125d6565b80611894575061180f612016565b6001600160a01b031663893d20e86040518163ffffffff1660e01b815260040160206040518083038186803b15801561184757600080fd5b505afa15801561185b573d6000803e3d6000fd5b505050506040513d601f19601f8201168201806040525081019061187f919061396c565b6001600160a01b0316336001600160a01b0316145b6118b05760405162461bcd60e51b815260040161075190614c65565b8281146118cf5760405162461bcd60e51b815260040161075190614de5565b60005b838110156119a7578282828181106118e657fe5b90506020020135601060008787858181106118fd57fe5b9050602002016020810190611912919061394e565b6001600160a01b0316815260208101919091526040016000205584848281811061193857fe5b905060200201602081019061194d919061394e565b6001600160a01b03167f86a006418c5abeb0342afa5645c469058b419458005b407f04edf930d356504784848481811061198357fe5b905060200201356040516119979190614f21565b60405180910390a26001016118d2565b5050505050565b600754600160a81b900460ff1690565b6060306001600160a01b037f00000000000000000000000000000000000000000000000000000000000000001614156119f9576105d3613227565b611a01612016565b6001600160a01b03166395d89b416040518163ffffffff1660e01b815260040160006040518083038186803b158015611a3957600080fd5b505afa158015611a4d573d6000803e3d6000fd5b505050506040513d6000823e601f3d908101601f19168201604052611a759190810190613cfb565b6040516020016106669190614b36565b6000611a90336125d6565b80611b235750611a9e612016565b6001600160a01b031663893d20e86040518163ffffffff1660e01b815260040160206040518083038186803b158015611ad657600080fd5b505afa158015611aea573d6000803e3d6000fd5b505050506040513d601f19601f82011682018060405250810190611b0e919061396c565b6001600160a01b0316336001600160a01b0316145b611b3f5760405162461bcd60e51b815260040161075190614c65565b60026006541415611b625760405162461bcd60e51b815260040161075190614ec5565b6002600655611b7042612988565b15611b7d57611b7d6129c0565b6001600160a01b0382166000908152600a6020526040902054600990600160801b90046001600160801b03168015611bf3578154611bc890611514906001600160801b031683612c23565b82546001600160801b0319166001600160801b03919091161782556002820154611bf3908590613073565b611bfc84611660565b9250611c088484613288565b611c1a8484611c15611651565b61335e565b836001600160a01b03167f8684348ed72cd103be12fcb99e9c5917294a8092ccd4808d1cd7b19daf98299184604051611c539190614f21565b60405180910390a250506001600655919050565b600754600160a01b900460ff1690565b600061068f611c846126e8565b84611059856040518060600160405280602581526020016151506025913960016000611cae6126e8565b6001600160a01b03908116825260208083019390935260409182016000908120918d16815292529020549190613458565b611ce76137a8565b506001600160a01b03166000908152600a6020908152604091829020825160608101845290546001600160401b038082168352600160401b82041692820192909252600160801b9091046001600160801b03169181019190915290565b6000611d51338484612d5d565b610d5a8383613484565b60026006541415611d7e5760405162461bcd60e51b815260040161075190614ec5565b6002600655611d8c42612988565b15611da95760405162461bcd60e51b815260040161075190614ef5565b611db16119ae565b15611dff576000611dc133610ff0565b90506000198114611dfd5780821115611dec5760405162461bcd60e51b815260040161075190614d15565b336000908152601060205260408120555b505b336000908152600a6020526040812060098054909290611e28906001600160801b031685612ea5565b8254909150600090611e4a90600160801b90046001600160801b031686612ea5565b9050611e5533611660565b811115611e745760405162461bcd60e51b815260040161075190614c85565b611e7d8261304a565b84546001600160801b0319166001600160801b0391909116178455611ea18161304a565b83546001600160801b03918216600160801b02911617835584811415611f085760028401805484546001600160401b0390911667ffffffffffffffff199091161784558054600181018255600091825260209091200180546001600160a01b031916331790555b336001600160a01b03167f8442da065c568ee5c2d856b7d959cdc982160318607425e37fa33ae08e0a1ff986604051611f419190614f21565b60405180910390a250506001600655505050565b611f5e336125d6565b80611ff15750611f6c612016565b6001600160a01b031663893d20e86040518163ffffffff1660e01b815260040160206040518083038186803b158015611fa457600080fd5b505afa158015611fb8573d6000803e3d6000fd5b505050506040513d601f19601f82011682018060405250810190611fdc919061396c565b6001600160a01b0316336001600160a01b0316145b61200d5760405162461bcd60e51b815260040161075190614c65565b61077181612fbc565b6007546001600160a01b031690565b6060806002600654141561204b5760405162461bcd60e51b815260040161075190614ec5565b6002600655612059336125d6565b806120ec5750612067612016565b6001600160a01b031663893d20e86040518163ffffffff1660e01b815260040160206040518083038186803b15801561209f57600080fd5b505afa1580156120b3573d6000803e3d6000fd5b505050506040513d601f19601f820116820180604052508101906120d7919061396c565b6001600160a01b0316336001600160a01b0316145b6121085760405162461bcd60e51b815260040161075190614c65565b60008061211361154d565b91509150612122428383613498565b61213e5760405162461bcd60e51b815260040161075190614cf5565b600b54600990600019871415612155576001810396505b8087106121745760405162461bcd60e51b815260040161075190614cd5565b868811156121945760405162461bcd60e51b815260040161075190614d95565b61219c6129c0565b8154670de0b6b3a76400006001600160401b03600160801b9092048216109060009060018b8b0301908190811180156121d457600080fd5b506040519080825280602002602001820160405280156121fe578160200160208202803683370190505b509850806001600160401b038111801561221757600080fd5b50604051908082528060200260200182016040528015612241578160200160208202803683370190505b509750895b811561243457600086600201828154811061225d57fe5b60009182526020808320909101546001600160a01b031680835260018a0190915260409091208054919250906122a5906001600160401b03600160401b909104168b8b613498565b156122c25760405162461bcd60e51b815260040161075190614e25565b6000861561235e5781548954600160801b918290046001600160801b031691670de0b6b3a764000091612300918491046001600160401b03166131ed565b8161230757fe5b0491506123176115148284612c23565b83546001600160401b034216600160401b026fffffffffffffffff0000000000000000196001600160801b03938416600160801b0293909216929092171617835550612383565b508054600160801b90046001600160801b031661237b8389613073565b600019909701965b61238d8382613288565b848060019003955050828d86815181106123a357fe5b60200260200101906001600160a01b031690816001600160a01b031681525050808c86815181106123d057fe5b60209081029190910101526123e58682612ea5565b9550826001600160a01b03167f4896181ff8f4543cc00db9fe9b6fb7e6f032b7eb772c72ab1ec1b4d2e03b9369826040516124209190614f21565b60405180910390a250505060001901612246565b50845461244e90611514906001600160801b031684612c23565b85546001600160801b0319166001600160801b03919091161785556000612473611651565b905061248030848361335e565b6040516370a0823160e01b81526000906001600160a01b038316906370a08231906124af903090600401614b58565b60206040518083038186803b1580156124c757600080fd5b505afa1580156124db573d6000803e3d6000fd5b505050506040513d601f19601f820116820180604052508101906124ff9190613d89565b905060005b8b518110156125675761255f8c828151811061251c57fe5b602002602001015161254e876115c58f868151811061253757fe5b6020026020010151876131ed90919063ffffffff16565b6001600160a01b03861691906134af565b600101612504565b5050505050505050505060016006819055509250929050565b6009546001600160801b038116916001600160401b03600160801b8304811692600160c01b90041690565b6001600160a01b03918216600090815260016020908152604080832093909416825291909152205490565b6001600160a01b03166000908152600d602052604090205460ff1690565b600754600160b01b900460ff1690565b61260c613781565b5060408051608081018252600c546001600160401b03808216835263ffffffff600160401b830481166020850152600160601b83041693830193909352600160801b9004909116606082015290565b60038054604080516020601f600260001961010060018816150201909516949094049384018190048102820181019092528281526060939092909183018282801561117b5780601f106126bc5761010080835404028352916020019161117b565b820191906000526020600020905b8154815290600101906020018083116126ca57509395945050505050565b3390565b6001600160a01b0383166127125760405162461bcd60e51b815260040161075190614e45565b6001600160a01b0382166127385760405162461bcd60e51b815260040161075190614ca5565b6001600160a01b0380841660008181526001602090815260408083209487168084529490915290819020849055517f8c5be1e5ebec7d5bd14f71427d1e84f3dd0314c0f7b2291e5b200ac8c7c3b92590612793908590614f21565b60405180910390a3505050565b80516001600160401b03161580156127c05750604081015163ffffffff16155b80156127d45750602081015163ffffffff16155b80156127eb575060608101516001600160401b0316155b6128ad574281600001516001600160401b03161161281b5760405162461bcd60e51b815260040161075190614e95565b6000816040015163ffffffff16116128455760405162461bcd60e51b815260040161075190614dc5565b806040015163ffffffff16816020015163ffffffff16116128785760405162461bcd60e51b815260040161075190614d35565b670de0b6b3a764000081606001516001600160401b031611156128ad5760405162461bcd60e51b815260040161075190614d25565b8051600c80546020840151604080860151606087015167ffffffffffffffff199094166001600160401b03808816919091176bffffffff00000000000000001916600160401b63ffffffff808716919091029190911763ffffffff60601b1916600160601b918416919091021767ffffffffffffffff60801b1916600160801b9186169190910217909455600980546001600160801b03168155905190947f2b031552c22336dc4af5bd89436b409d517289ddd34cfc8e4e1543dc4235e6519461297c94919392909190614f58565b60405180910390a15050565b600080600061299561154d565b9150915081600014156129ad57600092505050610dbb565b6129b8848383613498565b949350505050565b600980546001600160801b031615806129ef575080546129ef90600160c01b90046001600160401b0316612988565b156129fa5750612abe565b6000670de0b6b3a7640000612a2b612a10612604565b606001516001600160401b0316612a25610d39565b906131ed565b81612a3257fe5b835491900491506000906001600160801b0316821015612a74578254612a6d906001600160801b03166115c5670de0b6b3a7640000856131ed565b9050612a7f565b50670de0b6b3a76400005b825467ffffffffffffffff60801b1916600160801b6001600160401b0392831602176001600160c01b0316600160c01b42929092169190910217909155505b565b612b18846323b872dd60e01b858585604051602401612ae193929190614bcd565b60408051601f198184030181529190526020810180516001600160e01b03166001600160e01b0319909316929092179091526134ce565b50505050565b801580612ba65750604051636eb1769f60e11b81526001600160a01b0384169063dd62ed3e90612b549030908690600401614b66565b60206040518083038186803b158015612b6c57600080fd5b505afa158015612b80573d6000803e3d6000fd5b505050506040513d601f19601f82011682018060405250810190612ba49190613d89565b155b612bc25760405162461bcd60e51b815260040161075190614ed5565b610c738363095ea7b360e01b8484604051602401612ae1929190614bf5565b6060610d5a83836040518060400160405280601e81526020017f416464726573733a206c6f772d6c6576656c2063616c6c206661696c6564000081525061355d565b600082821115612c455760405162461bcd60e51b815260040161075190614d65565b50900390565b6001600160a01b038216612c715760405162461bcd60e51b815260040161075190614ee5565b612c7d60008383610c73565b600254612c8a9082612ea5565b6002556001600160a01b038216600090815260208190526040902054612cb09082612ea5565b6001600160a01b0383166000818152602081905260408082209390935591519091907fddf252ad1be2c89b69c2b068fc378daa952ba7f163c4a11628f55a4df523b3ef90612cff908590614f21565b60405180910390a35050565b6007805460ff60b01b1916600160b01b831515021790556040517f64e7f780e6e1129031b8bdd0e74a6718620d8dac82a40fd17743c71249bc019390612d52908390614c46565b60405180910390a150565b6001600160a01b0383166000908152600a6020526040902054612d9390600160801b90046001600160801b0316610a9885611660565b811115612db25760405162461bcd60e51b815260040161075190614d55565b612dba6125f4565b15610c73576000612dcb8484611626565b90506000198114612b1857818114612df55760405162461bcd60e51b815260040161075190614e85565b6001600160a01b038085166000908152600f6020908152604080832093871683529290529081205550505050565b6000612e3084848461356c565b612e9b84612e3c6126e8565b61105985604051806060016040528060288152602001615128602891396001600160a01b038a16600090815260016020526040812090612e7a6126e8565b6001600160a01b031681526020810191909152604001600020549190613458565b5060019392505050565b600082820183811015610d5a5760405162461bcd60e51b815260040161075190614d05565b60005b81811015610c73576000838383818110612ee357fe5b9050602002016020810190612ef8919061394e565b9050612f03816125d6565b15612f205760405162461bcd60e51b815260040161075190614db5565b6001600160a01b0381166000818152600d6020526040808220805460ff19166001179055517f3b4a40cccf2058c593542587329dd385be4f0b588db5471fbd9598e56dd7093a9190a250600101612ecd565b600880546001600160a01b0319166001600160a01b0383169081179091556040517f410f9465288aecd0c52f8000879de6419ab719bcb75db47009c66d629155208e90600090a250565b6007805460ff60a01b1916600160a01b831515021790556040517f8ee78a6848b5a5226d78b64328db1890ef13d87d478dfa9f0e423ea6698b580b90612d52908390614c46565b6007805460ff60a81b1916600160a81b831515021790556040517fd281e56a7f217bdcf7035d71951c03cd2ad9bb04f3b3388c53fa2f85dcb7245e90612d52908390614c46565b6000600160801b821061306f5760405162461bcd60e51b815260040161075190614d45565b5090565b6001600160a01b0382166000908152600a60205260409020546009906001600160401b031660001983018110156131375760008260020160018503815481106130b857fe5b6000918252602090912001546002840180546001600160a01b0390921692508291849081106130e357fe5b600091825260208083209190910180546001600160a01b0319166001600160a01b039485161790559290911681526001840190915260409020805467ffffffffffffffff19166001600160401b0383161790555b6001600160a01b03841660009081526001830160205260408120556002820180548061315f57fe5b600082815260208120820160001990810180546001600160a01b03191690559091019091556040516001600160a01b038616917f328fa7077ce5de1ca1520bbd7c37ef13c017de42d86cd7053c06fffaa1c5187a91a250505050565b60008082116131dc5760405162461bcd60e51b815260040161075190614d85565b8183816131e557fe5b049392505050565b6000826131fc57506000610693565b8282028284828161320957fe5b0414610d5a5760405162461bcd60e51b815260040161075190614dd5565b60048054604080516020601f600260001961010060018816150201909516949094049384018190048102820181019092528281526060939092909183018282801561117b5780601f106126bc5761010080835404028352916020019161117b565b6001600160a01b0382166132ae5760405162461bcd60e51b815260040161075190614e15565b6132ba82600083610c73565b6132f7816040518060600160405280602281526020016150e0602291396001600160a01b0385166000908152602081905260409020549190613458565b6001600160a01b03831660009081526020819052604090205560025461331d9082612c23565b6002556040516000906001600160a01b038416907fddf252ad1be2c89b69c2b068fc378daa952ba7f163c4a11628f55a4df523b3ef90612cff908590614f21565b6001600160a01b0381166133845760405162461bcd60e51b815260040161075190614ce5565b600060607f00000000000000000000000000000000000000000000000000000000000000006001600160a01b0316632441593c6133bf612016565b87868860016040518663ffffffff1660e01b81526004016133e4959493929190614b81565b60006040518083038186803b1580156133fc57600080fd5b505afa158015613410573d6000803e3d6000fd5b505050506040513d6000823e601f3d908101601f191682016040526134389190810190613ac9565b90925090506134506001600160a01b03831682612be1565b505050505050565b6000818484111561347c5760405162461bcd60e51b81526004016107519190614c54565b505050900390565b600061068f6134916126e8565b848461356c565b6000828410158015610d5757505090911115919050565b610c738363a9059cbb60e01b8484604051602401612ae1929190614bf5565b6060613523826040518060400160405280602081526020017f5361666545524332303a206c6f772d6c6576656c2063616c6c206661696c6564815250856001600160a01b031661355d9092919063ffffffff16565b805190915015610c7357808060200190518101906135419190613cab565b610c735760405162461bcd60e51b815260040161075190614eb5565b6060610d578484600085613681565b6001600160a01b0383166135925760405162461bcd60e51b815260040161075190614e35565b6001600160a01b0382166135b85760405162461bcd60e51b815260040161075190614c75565b6135c3838383610c73565b61360081604051806060016040528060268152602001615102602691396001600160a01b0386166000908152602081905260409020549190613458565b6001600160a01b03808516600090815260208190526040808220939093559084168152205461362f9082612ea5565b6001600160a01b0380841660008181526020819052604090819020939093559151908516907fddf252ad1be2c89b69c2b068fc378daa952ba7f163c4a11628f55a4df523b3ef90612793908590614f21565b6060824710156136a35760405162461bcd60e51b815260040161075190614d75565b6136ac85613742565b6136c85760405162461bcd60e51b815260040161075190614e55565b60006060866001600160a01b031685876040516136e59190614b2a565b60006040518083038185875af1925050503d8060008114613722576040519150601f19603f3d011682016040523d82523d6000602084013e613727565b606091505b5091509150613737828286613748565b979650505050505050565b3b151590565b60608315613757575081610d5a565b8251156137675782518084602001fd5b8160405162461bcd60e51b81526004016107519190614c54565b60408051608081018252600080825260208201819052918101829052606081019190915290565b604080516060810182526000808252602082018190529181019190915290565b80356106938161509e565b80516106938161509e565b60008083601f8401126137f057600080fd5b5081356001600160401b0381111561380757600080fd5b60208301915083602082028301111561381f57600080fd5b9250929050565b8035610693816150b2565b8051610693816150b2565b600082601f83011261384d57600080fd5b815161386061385b82614fca565b614fa4565b9150808252602083016020830185838301111561387c57600080fd5b613887838284615068565b50505092915050565b8035610693816150bb565b6000608082840312156138ad57600080fd5b50919050565b6000608082840312156138c557600080fd5b6138cf6080614fa4565b905060006138dd8484613943565b82525060206138ee84848301613938565b602083015250604061390284828501613938565b604083015250606061391684828501613943565b60608301525092915050565b8035610693816150c4565b8051610693816150c4565b8035610693816150cd565b8035610693816150d6565b60006020828403121561396057600080fd5b60006129b884846137c8565b60006020828403121561397e57600080fd5b60006129b884846137d3565b6000806040838503121561399d57600080fd5b60006139a985856137c8565b92505060206139ba858286016137c8565b9150509250929050565b6000806000606084860312156139d957600080fd5b60006139e586866137c8565b93505060206139f6868287016137c8565b9250506040613a0786828701613922565b9150509250925092565b600080600080600080600080610140898b031215613a2e57600080fd5b6000613a3a8b8b6137c8565b98505060208901356001600160401b03811115613a5657600080fd5b613a628b828c016137de565b97509750506040613a758b828c016137c8565b9550506060613a868b828c01613826565b9450506080613a978b828c01613826565b93505060a0613aa88b828c01613826565b92505060c0613ab98b828c0161389b565b9150509295985092959890939650565b60008060408385031215613adc57600080fd5b6000613ae885856137d3565b92505060208301516001600160401b03811115613b0457600080fd5b6139ba8582860161383c565b60008060408385031215613b2357600080fd5b6000613b2f85856137c8565b92505060206139ba85828601613922565b60008060208385031215613b5357600080fd5b82356001600160401b03811115613b6957600080fd5b613b75858286016137de565b92509250509250929050565b60008060008060008060608789031215613b9a57600080fd5b86356001600160401b03811115613bb057600080fd5b613bbc89828a016137de565b965096505060208701356001600160401b03811115613bda57600080fd5b613be689828a016137de565b945094505060408701356001600160401b03811115613c0457600080fd5b613c1089828a016137de565b92509250509295509295509295565b60008060008060408587031215613c3557600080fd5b84356001600160401b03811115613c4b57600080fd5b613c57878288016137de565b945094505060208501356001600160401b03811115613c7557600080fd5b613c81878288016137de565b95989497509550505050565b600060208284031215613c9f57600080fd5b60006129b88484613826565b600060208284031215613cbd57600080fd5b60006129b88484613831565b600080600060608486031215613cde57600080fd5b6000613cea8686613890565b93505060206139f686828701613922565b600060208284031215613d0d57600080fd5b81516001600160401b03811115613d2357600080fd5b6129b88482850161383c565b600060808284031215613d4157600080fd5b60006129b8848461389b565b600060808284031215613d5f57600080fd5b60006129b884846138b3565b600060208284031215613d7d57600080fd5b60006129b88484613922565b600060208284031215613d9b57600080fd5b60006129b8848461392d565b60008060408385031215613dba57600080fd5b6000613b2f8585613922565b6000613dd28383613de6565b505060200190565b6000613dd28383614af4565b613def81615004565b82525050565b6000613e0082614ff7565b613e0a8185614ffb565b9350613e1583614ff1565b8060005b83811015613e43578151613e2d8882613dc6565b9750613e3883614ff1565b925050600101613e19565b509495945050505050565b6000613e5982614ff7565b613e638185614ffb565b9350613e6e83614ff1565b8060005b83811015613e43578151613e868882613dda565b9750613e9183614ff1565b925050600101613e72565b613def8161500f565b6000613eb082614ff7565b613eba8185610dbb565b9350613eca818560208601615068565b9290920192915050565b6000613edf82614ff7565b613ee98185614ffb565b9350613ef9818560208601615068565b613f0281615094565b9093019392505050565b6000613f19600183610dbb565b607760f81b815260010192915050565b6000613f36602083614ffb565b7f6f6e6c794d616e616765724f724f776e65723a20556e617574686f72697a6564815260200192915050565b6000613f6f602383614ffb565b7f45524332303a207472616e7366657220746f20746865207a65726f206164647281526265737360e81b602082015260400192915050565b6000613fb4601e83614ffb565b7f7265717565737452656465656d3a20457863656564732062616c616e63650000815260200192915050565b6000613fed601a83614ffb565b7f6465706f7369743a20417070726f76616c206d69736d61746368000000000000815260200192915050565b6000614026602283614ffb565b7f45524332303a20617070726f766520746f20746865207a65726f206164647265815261737360f01b602082015260400192915050565b600061406a601d83614ffb565b7f72656d6f76654d616e61676572733a204e6f742061206d616e61676572000000815260200192915050565b60006140a3601f83614ffb565b7f63616e63656c5265717565737452656465656d3a204e6f207265717565737400815260200192915050565b60006140dc602783614ffb565b7f72656465656d46726f6d51756575653a204f75742d6f662d72616e6765205f658152660dcc892dcc8caf60cb1b602082015260400192915050565b6000614125602183614ffb565b7f5f5f72656465656d43616c6c3a204e6f20726564656d7074696f6e20617373658152601d60fa1b602082015260400192915050565b6000614168602a83614ffb565b7f72656465656d46726f6d51756575653a204f75747369646520726564656d7074815269696f6e2077696e646f7760b01b602082015260400192915050565b60006141b4601b83614ffb565b7f536166654d6174683a206164646974696f6e206f766572666c6f770000000000815260200192915050565b60006141ed601f83614ffb565b7f7265717565737452656465656d3a204578636565647320617070726f76616c00815260200192915050565b6000614226603b83614ffb565b7f5f5f736574526564656d7074696f6e57696e646f77436f6e6669673a2072656c81527f6174697665536861726573436170206578636565647320313030250000000000602082015260400192915050565b6000614285603783614ffb565b7f5f5f736574526564656d7074696f6e57696e646f77436f6e6669673a2064757281527f6174696f6e2065786365656473206672657175656e6379000000000000000000602082015260400192915050565b60006142e4602783614ffb565b7f53616665436173743a2076616c756520646f65736e27742066697420696e20318152663238206269747360c81b602082015260400192915050565b600061432d602983614ffb565b7f5f5f70726550726f636573735472616e736665723a20496e20726564656d7074815268696f6e20717565756560b81b602082015260400192915050565b6000614378601e83614ffb565b7f536166654d6174683a207375627472616374696f6e206f766572666c6f770000815260200192915050565b60006143b1602683614ffb565b7f416464726573733a20696e73756666696369656e742062616c616e636520666f8152651c8818d85b1b60d21b602082015260400192915050565b60006143f9601a83614ffb565b7f536166654d6174683a206469766973696f6e206279207a65726f000000000000815260200192915050565b6000614432602383614ffb565b7f72656465656d46726f6d51756575653a204d69736f72646572656420696e646581526278657360e81b602082015260400192915050565b6000614477601c83614ffb565b7f6465706f7369743a20496e73756666696369656e742073686172657300000000815260200192915050565b60006144b0601e83614ffb565b7f5f5f6164644d616e61676572733a20416c7265616479206d616e616765720000815260200192915050565b60006144e9602883614ffb565b7f5f5f736574526564656d7074696f6e57696e646f77436f6e6669673a204e6f20815267323ab930ba34b7b760c11b602082015260400192915050565b6000614533602183614ffb565b7f536166654d6174683a206d756c7469706c69636174696f6e206f766572666c6f8152607760f81b602082015260400192915050565b6000614576602683614ffb565b7f736574526564656d7074696f6e417070726f76616c733a20556e657175616c2081526561727261797360d01b602082015260400192915050565b60006145be602d83614ffb565b7f63616e63656c5265717565737452656465656d3a20496e73696465207265646581526c6d7074696f6e2077696e646f7760981b602082015260400192915050565b600061460d601183614ffb565b701a5b9a5d0e88125b9a5d1a585b1a5e9959607a1b815260200192915050565b600061463a602183614ffb565b7f45524332303a206275726e2066726f6d20746865207a65726f206164647265738152607360f81b602082015260400192915050565b600061467d602b83614ffb565b7f72656465656d46726f6d51756575653a20416c72656164792072656465656d6581526a6420696e2077696e646f7760a81b602082015260400192915050565b60006146ca602583614ffb565b7f45524332303a207472616e736665722066726f6d20746865207a65726f206164815264647265737360d81b602082015260400192915050565b6000614711602483614ffb565b7f45524332303a20617070726f76652066726f6d20746865207a65726f206164648152637265737360e01b602082015260400192915050565b6000614757601d83614ffb565b7f416464726573733a2063616c6c20746f206e6f6e2d636f6e7472616374000000815260200192915050565b6000614790601783614ffb565b7f6f6e6c794f776e65723a20556e617574686f72697a6564000000000000000000815260200192915050565b60006147c9602383614ffb565b7f7365744465706f736974417070726f76616c733a20556e657175616c2061727281526261797360e81b602082015260400192915050565b600061480e602783614ffb565b7f5f5f70726550726f636573735472616e736665723a20417070726f76616c206d8152660d2e6dac2e8c6d60cb1b602082015260400192915050565b6000614857603583614ffb565b7f5f5f736574526564656d7074696f6e57696e646f77436f6e6669673a20496e76815274185b1a5908199a5c9cdd15da5b991bddd4dd185c9d605a1b602082015260400192915050565b60006148ae602483614ffb565b7f7365745472616e73666572417070726f76616c733a20556e657175616c2061728152637261797360e01b602082015260400192915050565b60006148f4602a83614ffb565b7f5361666545524332303a204552433230206f7065726174696f6e20646964206e8152691bdd081cdd58d8d9595960b21b602082015260400192915050565b6000614940601f83614ffb565b7f5265656e7472616e637947756172643a207265656e7472616e742063616c6c00815260200192915050565b6000614979603683614ffb565b7f5361666545524332303a20617070726f76652066726f6d206e6f6e2d7a65726f81527520746f206e6f6e2d7a65726f20616c6c6f77616e636560501b602082015260400192915050565b60006149d1601f83614ffb565b7f45524332303a206d696e7420746f20746865207a65726f206164647265737300815260200192915050565b6000614a0a602783614ffb565b7f7265717565737452656465656d3a20496e7369646520726564656d7074696f6e8152662077696e646f7760c81b602082015260400192915050565b6000614a53600883610dbb565b6702bb930b83832b2160c51b815260080192915050565b80516060830190614a7b8482614b18565b506020820151614a8e6020850182614b18565b506040820151612b186040850182614aeb565b80516080830190614ab28482614b18565b506020820151614ac56020850182614b06565b506040820151614ad86040850182614b06565b506060820151612b186060850182614b18565b613def8161501f565b613def81610678565b613def81615052565b613def81615037565b613def8161505d565b613def81615040565b613def8161504c565b6000610d5a8284613ea5565b6000614b4182613f0c565b9150610d5a8284613ea5565b6000614b4182614a46565b602081016106938284613de6565b60408101614b748285613de6565b610d5a6020830184613de6565b60a08101614b8f8288613de6565b614b9c6020830187613de6565b614ba96040830186613de6565b614bb66060830185614af4565b614bc36080830184613e9c565b9695505050505050565b60608101614bdb8286613de6565b614be86020830185613de6565b6129b86040830184614af4565b60408101614c038285613de6565b610d5a6020830184614af4565b60208082528101610d5a8184613df5565b60408082528101614c328185613df5565b90508181036020830152610d578184613e4e565b602081016106938284613e9c565b60208082528101610d5a8184613ed4565b6020808252810161069381613f29565b6020808252810161069381613f62565b6020808252810161069381613fa7565b6020808252810161069381613fe0565b6020808252810161069381614019565b602080825281016106938161405d565b6020808252810161069381614096565b60208082528101610693816140cf565b6020808252810161069381614118565b602080825281016106938161415b565b60208082528101610693816141a7565b60208082528101610693816141e0565b6020808252810161069381614219565b6020808252810161069381614278565b60208082528101610693816142d7565b6020808252810161069381614320565b602080825281016106938161436b565b60208082528101610693816143a4565b60208082528101610693816143ec565b6020808252810161069381614425565b602080825281016106938161446a565b60208082528101610693816144a3565b60208082528101610693816144dc565b6020808252810161069381614526565b6020808252810161069381614569565b60208082528101610693816145b1565b6020808252810161069381614600565b602080825281016106938161462d565b6020808252810161069381614670565b60208082528101610693816146bd565b6020808252810161069381614704565b602080825281016106938161474a565b6020808252810161069381614783565b60208082528101610693816147bc565b6020808252810161069381614801565b602080825281016106938161484a565b60208082528101610693816148a1565b60208082528101610693816148e7565b6020808252810161069381614933565b602080825281016106938161496c565b60208082528101610693816149c4565b60208082528101610693816149fd565b606081016106938284614a6a565b608081016106938284614aa1565b602081016106938284614af4565b60408101614c038285614af4565b60608101614f4b8286614af4565b614be86020830185614af4565b60808101614f668287614b0f565b614f736020830186614afd565b614f806040830185614afd565b614f8d6060830184614b0f565b95945050505050565b602081016106938284614b21565b6040518181016001600160401b0381118282101715614fc257600080fd5b604052919050565b60006001600160401b03821115614fe057600080fd5b506020601f91909101601f19160190565b60200190565b5190565b90815260200190565b60006106938261502b565b151590565b600061069382615004565b6001600160801b031690565b6001600160a01b031690565b63ffffffff1690565b6001600160401b031690565b60ff1690565b600061069382615037565b600061069382615040565b60005b8381101561508357818101518382015260200161506b565b83811115612b185750506000910152565b601f01601f191690565b6150a781615004565b811461077157600080fd5b6150a78161500f565b6150a781615014565b6150a781610678565b6150a781615037565b6150a78161504056fe45524332303a206275726e20616d6f756e7420657863656564732062616c616e636545524332303a207472616e7366657220616d6f756e7420657863656564732062616c616e636545524332303a207472616e7366657220616d6f756e74206578636565647320616c6c6f77616e636545524332303a2064656372656173656420616c6c6f77616e63652062656c6f77207a65726fa164736f6c634300060c000a",
    "linkReferences": {}
  },
  "methodIdentifiers": {
    "addManagers(address[])": "8c5f9e74",
    "allowance(address,address)": "dd62ed3e",
    "approve(address,uint256)": "095ea7b3",
    "balanceOf(address)": "70a08231",
    "calcLatestRedemptionWindow()": "61791f27",
    "cancelRequestRedeem()": "58205209",
    "decimals()": "313ce567",
    "decreaseAllowance(address,uint256)": "a457c2d7",
    "deposit(address,uint256,uint256)": "0efe6a8b",
    "depositApprovalsAreUsed()": "9a8fea95",
    "getDepositApproval(address,address)": "2f63221d",
    "getRedemptionApproval(address)": "38f1917d",
    "getRedemptionAsset()": "6829bda7",
    "getRedemptionQueue()": "cea6a0ee",
    "getRedemptionQueueUserByIndex(uint256)": "318f98aa",
    "getRedemptionQueueUserRequest(address)": "a8e5eeb1",
    "getRedemptionQueueUsers()": "447d7e19",
    "getRedemptionQueueUsersLength()": "7cb4f020",
    "getRedemptionWindowConfig()": "fd71b12b",
    "getTransferApproval(address,address)": "6753c159",
    "getVaultProxy()": "c9809187",
    "increaseAllowance(address,uint256)": "39509351",
    "init(address,address[],address,bool,bool,bool,(uint64,uint32,uint32,uint64))": "42f6be5b",
    "isManager(address)": "f3ae2415",
    "kick(address)": "96c55175",
    "name()": "06fdde03",
    "redeemFromQueue(uint256,uint256)": "ca4ca8fa",
    "redemptionApprovalsAreUsed()": "8f958f71",
    "removeManagers(address[])": "10f3ee29",
    "requestRedeem(uint256)": "aa2f892d",
    "setDepositApprovals(address[],address[],uint256[])": "34c94506",
    "setRedemptionApprovals(address[],uint256[])": "8d1d24da",
    "setRedemptionAsset(address)": "7ba06931",
    "setRedemptionWindowConfig((uint64,uint32,uint32,uint64))": "09f8ca5c",
    "setTransferApprovals(address[],address[],uint256[])": "469df117",
    "setUseDepositApprovals(bool)": "b9a3abdb",
    "setUseRedemptionApprovals(bool)": "4d947471",
    "setUseTransferApprovals(bool)": "15fd7a52",
    "symbol()": "95d89b41",
    "totalSupply()": "18160ddd",
    "transfer(address,uint256)": "a9059cbb",
    "transferApprovalsAreUsed()": "f7cb8952",
    "transferFrom(address,address,uint256)": "23b872dd"
  },
  "id": 63
}