{
  "abi": [
    {
      "inputs": [
        {
          "internalType": "address",
          "name": "_dispatcher",
          "type": "address"
        },
        {
          "internalType": "address",
          "name": "_implementation",
          "type": "address"
        }
      ],
      "stateMutability": "nonpayable",
      "type": "constructor"
    },
    {
      "anonymous": false,
      "inputs": [
        {
          "indexed": false,
          "internalType": "address",
          "name": "implementation",
          "type": "address"
        }
      ],
      "name": "ImplementationSet",
      "type": "event"
    },
    {
      "anonymous": false,
      "inputs": [
        {
          "indexed": true,
          "internalType": "address",
          "name": "caller",
          "type": "address"
        },
        {
          "indexed": false,
          "internalType": "address",
          "name": "proxy",
          "type": "address"
        }
      ],
      "name": "ProxyDeployed",
      "type": "event"
    },
    {
      "inputs": [
        {
          "internalType": "address",
          "name": "_vaultProxy",
          "type": "address"
        },
        {
          "internalType": "address[]",
          "name": "_managers",
          "type": "address[]"
        },
        {
          "internalType": "address",
          "name": "_redemptionAsset",
          "type": "address"
        },
        {
          "internalType": "bool",
          "name": "_useDepositApprovals",
          "type": "bool"
        },
        {
          "internalType": "bool",
          "name": "_useRedemptionApprovals",
          "type": "bool"
        },
        {
          "internalType": "bool",
          "name": "_useTransferApprovals",
          "type": "bool"
        },
        {
          "components": [
            {
              "internalType": "uint64",
              "name": "firstWindowStart",
              "type": "uint64"
            },
            {
              "internalType": "uint32",
              "name": "frequency",
              "type": "uint32"
            },
            {
              "internalType": "uint32",
              "name": "duration",
              "type": "uint32"
            },
            {
              "internalType": "uint64",
              "name": "relativeSharesCap",
              "type": "uint64"
            }
          ],
          "internalType": "struct GatedRedemptionQueueSharesWrapperLibBase1.RedemptionWindowConfig",
          "name": "_windowConfig",
          "type": "tuple"
        }
      ],
      "name": "deploy",
      "outputs": [
        {
          "internalType": "address",
          "name": "wrapperProxy_",
          "type": "address"
        }
      ],
      "stateMutability": "nonpayable",
      "type": "function"
    },
    {
      "inputs": [],
      "name": "implementation",
      "outputs": [
        {
          "internalType": "address",
          "name": "",
          "type": "address"
        }
      ],
      "stateMutability": "view",
      "type": "function"
    },
    {
      "inputs": [
        {
          "internalType": "address",
          "name": "_nextImplementation",
          "type": "address"
        }
      ],
      "name": "setImplementation",
      "outputs": [],
      "stateMutability": "nonpayable",
      "type": "function"
    }
  ],
  "bytecode": {
    "object": "0x60a060405234801561001057600080fd5b5060405161123538038061123583398101604081905261002f91610077565b60609190911b6001600160601b031916608052600080546001600160a01b0319166001600160a01b039092169190911790556100d9565b8051610071816100c2565b92915050565b6000806040838503121561008a57600080fd5b60006100968585610066565b92505060206100a785828601610066565b9150509250929050565b60006001600160a01b038216610071565b6100cb816100b1565b81146100d657600080fd5b50565b60805160601c61113b6100fa6000398060b15280610275525061113b6000f3fe60806040523480156200001157600080fd5b5060043610620000465760003560e01c806349e33a5a146200004b5780635c60da1b146200007a578063d784d4261462000084575b600080fd5b620000626200005c36600462000497565b6200009d565b60405162000071919062000741565b60405180910390f35b6200006262000264565b6200009b620000953660046200044d565b62000273565b005b6040516307af8e9f60e31b815260009081907f00000000000000000000000000000000000000000000000000000000000000006001600160a01b031690633d7c74f890620000f0908d9060040162000741565b60206040518083038186803b1580156200010957600080fd5b505afa1580156200011e573d6000803e3d6000fd5b505050506040513d601f19601f8201168201806040525081019062000144919062000476565b6001600160a01b03161415620001775760405162461bcd60e51b81526004016200016e9062000807565b60405180910390fd5b60606342f6be5b60e01b8a8a8a8a8a8a8a8a604051602401620001a298979695949392919062000751565b604051602081830303815290604052906001600160e01b0319166020820180516001600160e01b03838183161783525050505090503081604051620001e79062000393565b620001f4929190620007d1565b604051809103906000f08015801562000211573d6000803e3d6000fd5b509150336001600160a01b03167f3d2489efb661e8b1c3679865db649ca1de61d76a71184a1234de2e55786a6aad836040516200024f919062000741565b60405180910390a25098975050505050505050565b6000546001600160a01b031681565b7f00000000000000000000000000000000000000000000000000000000000000006001600160a01b031663893d20e86040518163ffffffff1660e01b815260040160206040518083038186803b158015620002cd57600080fd5b505afa158015620002e2573d6000803e3d6000fd5b505050506040513d601f19601f8201168201806040525081019062000308919062000476565b6001600160a01b0316336001600160a01b0316146200033b5760405162461bcd60e51b81526004016200016e90620007f5565b600080546001600160a01b0319166001600160a01b0383161790556040517fab64f92ab780ecbf4f3866f57cee465ff36c89450dcce20237ca7a8d81fb7d13906200038890839062000741565b60405180910390a150565b61081d806200091283390190565b8035620003ae81620008d6565b92915050565b8051620003ae81620008d6565b60008083601f840112620003d457600080fd5b50813567ffffffffffffffff811115620003ed57600080fd5b6020830191508360208202830111156200040657600080fd5b9250929050565b8035620003ae81620008f0565b6000608082840312156200042d57600080fd5b50919050565b8035620003ae81620008fb565b8035620003ae8162000906565b6000602082840312156200046057600080fd5b60006200046e8484620003a1565b949350505050565b6000602082840312156200048957600080fd5b60006200046e8484620003b4565b600080600080600080600080610140898b031215620004b557600080fd5b6000620004c38b8b620003a1565b985050602089013567ffffffffffffffff811115620004e157600080fd5b620004ef8b828c01620003c1565b97509750506040620005048b828c01620003a1565b9550506060620005178b828c016200040d565b94505060806200052a8b828c016200040d565b93505060a06200053d8b828c016200040d565b92505060c0620005508b828c016200041a565b9150509295985092959890939650565b60006200056e838362000576565b505060200190565b620005818162000869565b82525050565b600062000595838562000826565b9350620005a28262000819565b8060005b85811015620005e057620005bb82846200082f565b620005c7888262000560565b9750620005d48362000820565b925050600101620005a6565b509495945050505050565b620005818162000876565b600062000603826200081c565b6200060f818562000826565b9350620006218185602086016200089d565b6200062c81620008cc565b9093019392505050565b600062000645601f8362000826565b7f736574496d706c656d656e746174696f6e3a20556e617574686f72697a656400815260200192915050565b600062000680601a8362000826565b7f5f7661756c7450726f78793a20496e76616c6964207661756c74000000000000815260200192915050565b60808201620006bc828062000858565b620006c8848262000736565b50620006d8602083018362000847565b620006e760208501826200072b565b50620006f7604083018362000847565b6200070660408501826200072b565b5062000716606083018362000858565b62000725606085018262000736565b50505050565b620005818162000887565b620005818162000890565b60208101620003ae828462000576565b610140810162000762828b62000576565b81810360208301526200077781898b62000587565b905062000788604083018862000576565b620007976060830187620005eb565b620007a66080830186620005eb565b620007b560a0830185620005eb565b620007c460c0830184620006ac565b9998505050505050505050565b60408101620007e1828562000576565b81810360208301526200046e8184620005f6565b60208082528101620003ae8162000636565b60208082528101620003ae8162000671565b90565b5190565b60200190565b90815260200190565b6000620008406020840184620003a1565b9392505050565b600062000840602084018462000433565b600062000840602084018462000440565b6000620003ae826200087b565b151590565b6001600160a01b031690565b63ffffffff1690565b67ffffffffffffffff1690565b60005b83811015620008ba578181015183820152602001620008a0565b83811115620007255750506000910152565b601f01601f191690565b620008e18162000869565b8114620008ed57600080fd5b50565b620008e18162000876565b620008e18162000887565b620008e1816200089056fe608060405260405161081d38038061081d8339818101604052604081101561002657600080fd5b81516020830180516040519294929383019291908464010000000082111561004d57600080fd5b90830190602082018581111561006257600080fd5b825164010000000081118282018810171561007c57600080fd5b82525081516020918201929091019080838360005b838110156100a9578181015183820152602001610091565b50505050905090810190601f1680156100d65780820380516001836020036101000a031916815260200191505b50604052506100e3915050565b6100ed82826100f4565b505061047f565b6101078261024960201b6100311760201c565b6101425760405162461bcd60e51b815260040180806020018281038252602581526020018061079e6025913960400191505060405180910390fd5b6101ba826001600160a01b0316635c60da1b6040518163ffffffff1660e01b815260040160206040518083038186803b15801561017e57600080fd5b505afa158015610192573d6000803e3d6000fd5b505050506040513d60208110156101a857600080fd5b5051610249602090811b61003117901c565b6101f55760405162461bcd60e51b81526004018080602001828103825260348152602001806107e96034913960400191505060405180910390fd5b60008051602061075d8339815191528281558151156102445761024261021961024f565b8360405180606001604052806021815260200161077d602191396102c260201b6100371760201c565b505b505050565b3b151590565b60006102596103c8565b6001600160a01b0316635c60da1b6040518163ffffffff1660e01b815260040160206040518083038186803b15801561029157600080fd5b505afa1580156102a5573d6000803e3d6000fd5b505050506040513d60208110156102bb57600080fd5b5051905090565b60606102cd84610249565b6103085760405162461bcd60e51b81526004018080602001828103825260268152602001806107c36026913960400191505060405180910390fd5b60006060856001600160a01b0316856040518082805190602001908083835b602083106103465780518252601f199092019160209182019101610327565b6001836020036101000a038019825116818451168082178552505050505050905001915050600060405180830381855af49150503d80600081146103a6576040519150601f19603f3d011682016040523d82523d6000602084013e6103ab565b606091505b5090925090506103bc8282866103db565b925050505b9392505050565b60008051602061075d8339815191525490565b606083156103ea5750816103c1565b8251156103fa5782518084602001fd5b8160405162461bcd60e51b81526004018080602001828103825283818151815260200191508051906020019080838360005b8381101561044457818101518382015260200161042c565b50505050905090810190601f1680156104715780820380516001836020036101000a031916815260200191505b509250505060405180910390fd5b6102cf8061048e6000396000f3fe60806040523661001357610011610017565b005b6100115b61001f61002f565b61002f61002a61013c565b6101af565b565b3b151590565b606061004284610031565b61007d5760405162461bcd60e51b815260040180806020018281038252602681526020018061029d6026913960400191505060405180910390fd5b60006060856001600160a01b0316856040518082805190602001908083835b602083106100bb5780518252601f19909201916020918201910161009c565b6001836020036101000a038019825116818451168082178552505050505050905001915050600060405180830381855af49150503d806000811461011b576040519150601f19603f3d011682016040523d82523d6000602084013e610120565b606091505b50915091506101308282866101d3565b925050505b9392505050565b6000610146610277565b6001600160a01b0316635c60da1b6040518163ffffffff1660e01b815260040160206040518083038186803b15801561017e57600080fd5b505afa158015610192573d6000803e3d6000fd5b505050506040513d60208110156101a857600080fd5b5051905090565b3660008037600080366000845af43d6000803e8080156101ce573d6000f35b3d6000fd5b606083156101e2575081610135565b8251156101f25782518084602001fd5b8160405162461bcd60e51b81526004018080602001828103825283818151815260200191508051906020019080838360005b8381101561023c578181015183820152602001610224565b50505050905090810190601f1680156102695780820380516001836020036101000a031916815260200191505b509250505060405180910390fd5b7fa3f0ad74e5423aebfd80d3ef4346578335a9a72aeaee59ff6cb3582b35133d50549056fe416464726573733a2064656c65676174652063616c6c20746f206e6f6e2d636f6e7472616374a164736f6c634300060c000aa3f0ad74e5423aebfd80d3ef4346578335a9a72aeaee59ff6cb3582b35133d50426561636f6e50726f78793a2066756e6374696f6e2063616c6c206661696c6564426561636f6e50726f78793a20626561636f6e206973206e6f74206120636f6e7472616374416464726573733a2064656c65676174652063616c6c20746f206e6f6e2d636f6e7472616374426561636f6e50726f78793a20626561636f6e20696d706c656d656e746174696f6e206973206e6f74206120636f6e7472616374a164736f6c634300060c000a",
    "linkReferences": {}
  },
  "methodIdentifiers": {
    "deploy(address,address[],address,bool,bool,bool,(uint64,uint32,uint32,uint64))": "49e33a5a",
    "implementation()": "5c60da1b",
    "setImplementation(address)": "d784d426"
  },
  "id": 62
}