{
  "abi": [
    {
      "inputs": [
        {
          "internalType": "address",
          "name": "_wethToken",
          "type": "address"
        }
      ],
      "stateMutability": "nonpayable",
      "type": "constructor"
    },
    {
      "anonymous": false,
      "inputs": [
        {
          "indexed": false,
          "internalType": "address",
          "name": "stakingContractAddress",
          "type": "address"
        },
        {
          "indexed": false,
          "internalType": "uint256",
          "name": "validatorAmount",
          "type": "uint256"
        }
      ],
      "name": "ValidatorsAdded",
      "type": "event"
    },
    {
      "inputs": [],
      "name": "ETH_AMOUNT_PER_NODE",
      "outputs": [
        {
          "internalType": "uint256",
          "name": "",
          "type": "uint256"
        }
      ],
      "stateMutability": "view",
      "type": "function"
    },
    {
      "inputs": [],
      "name": "WETH_TOKEN",
      "outputs": [
        {
          "internalType": "contract IWETH",
          "name": "",
          "type": "address"
        }
      ],
      "stateMutability": "view",
      "type": "function"
    },
    {
      "inputs": [],
      "name": "getDebtAssets",
      "outputs": [
        {
          "internalType": "address[]",
          "name": "assets_",
          "type": "address[]"
        },
        {
          "internalType": "uint256[]",
          "name": "amounts_",
          "type": "uint256[]"
        }
      ],
      "stateMutability": "nonpayable",
      "type": "function"
    },
    {
      "inputs": [],
      "name": "getManagedAssets",
      "outputs": [
        {
          "internalType": "address[]",
          "name": "assets_",
          "type": "address[]"
        },
        {
          "internalType": "uint256[]",
          "name": "amounts_",
          "type": "uint256[]"
        }
      ],
      "stateMutability": "nonpayable",
      "type": "function"
    },
    {
      "inputs": [],
      "name": "getValidatorCount",
      "outputs": [
        {
          "internalType": "uint256",
          "name": "validatorCount_",
          "type": "uint256"
        }
      ],
      "stateMutability": "view",
      "type": "function"
    },
    {
      "inputs": [
        {
          "internalType": "bytes",
          "name": "",
          "type": "bytes"
        }
      ],
      "name": "init",
      "outputs": [],
      "stateMutability": "nonpayable",
      "type": "function"
    },
    {
      "inputs": [
        {
          "internalType": "bytes",
          "name": "_actionData",
          "type": "bytes"
        }
      ],
      "name": "receiveCallFromVault",
      "outputs": [],
      "stateMutability": "nonpayable",
      "type": "function"
    }
  ],
  "bytecode": {
    "object": "0x60a060405234801561001057600080fd5b5060405161117038038061117083398101604081905261002f91610055565b60601b6001600160601b0319166080526100a3565b805161004f8161008c565b92915050565b60006020828403121561006757600080fd5b60006100738484610044565b949350505050565b60006001600160a01b03821661004f565b6100958161007b565b81146100a057600080fd5b50565b60805160601c61109c6100d46000398061010552806101845280610324528061065752806106d5525061109c6000f3fe608060405234801561001057600080fd5b506004361061007d5760003560e01c80637071688a1161005b5780637071688a146100ca57806380daddb8146100d2578063e5c23a97146100e8578063ecd658b4146100fb5761007d565b806337d277d4146100825780634ddf47d4146100a057806356e277f0146100b5575b600080fd5b61008a610103565b6040516100979190610eec565b60405180910390f35b6100b36100ae366004610b32565b610127565b005b6100bd61012a565b6040516100979190610f5a565b6100bd610137565b6100da61013d565b604051610097929190610eb6565b6100b36100f6366004610b32565b610215565b6100da61026d565b7f000000000000000000000000000000000000000000000000000000000000000081565b50565b6801bc16d674ec80000081565b60005490565b6040805160018082528183019092526060918291906020808301908036833750506040805160018082528183019092529294509050602080830190803683370190505090507f0000000000000000000000000000000000000000000000000000000000000000826000815181106101b057fe5b60200260200101906001600160a01b031690816001600160a01b0316815250506101f8476101f26801bc16d674ec80000060005461027390919063ffffffff16565b906102bf565b8160008151811061020557fe5b6020026020010181815250509091565b600060608280602001905181019061022d9190610b67565b90925090508161024557610240816102e4565b610268565b60018214156102575761024081610437565b600282141561026857610268610650565b505050565b60608091565b600082610282575060006102b9565b8282028284828161028f57fe5b04146102b65760405162461bcd60e51b81526004016102ad90610f1a565b60405180910390fd5b90505b92915050565b6000828201838110156102b65760405162461bcd60e51b81526004016102ad90610efa565b6000806102f083610700565b9092509050600061030a826801bc16d674ec800000610273565b604051632e1a7d4d60e01b81529091506001600160a01b037f00000000000000000000000000000000000000000000000000000000000000001690632e1a7d4d90610359908490600401610f5a565b600060405180830381600087803b15801561037357600080fd5b505af1158015610387573d6000803e3d6000fd5b50505050826001600160a01b031663d0e30db0826040518263ffffffff1660e01b81526004016000604051808303818588803b1580156103c657600080fd5b505af11580156103da573d6000803e3d6000fd5b50505050506103f4826000546102bf90919063ffffffff16565b6000556040517f68c3ce677c367b7afcaf3a43fd233dbbffb64c69fa9d55962079ad6d3dd93ce8906104299085908590610e9b565b60405180910390a150505050565b60006060600061044684610720565b91945092509050600081600281111561045b57fe5b14156104f05760005b82518110156104ea57836001600160a01b031663bf509bd484838151811061048857fe5b60200260200101516040518263ffffffff1660e01b81526004016104ac9190610edb565b600060405180830381600087803b1580156104c657600080fd5b505af11580156104da573d6000803e3d6000fd5b5050600190920191506104649050565b50610642565b60018160028111156104fe57fe5b141561058d5760005b82518110156104ea57836001600160a01b0316632ba03a7984838151811061052b57fe5b60200260200101516040518263ffffffff1660e01b815260040161054f9190610edb565b600060405180830381600087803b15801561056957600080fd5b505af115801561057d573d6000803e3d6000fd5b5050600190920191506105079050565b600281600281111561059b57fe5b141561062a5760005b82518110156104ea57836001600160a01b0316630968f2648483815181106105c857fe5b60200260200101516040518263ffffffff1660e01b81526004016105ec9190610edb565b600060405180830381600087803b15801561060657600080fd5b505af115801561061a573d6000803e3d6000fd5b5050600190920191506105a49050565b60405162461bcd60e51b81526004016102ad90610f4a565b61064a610650565b50505050565b60004790507f00000000000000000000000000000000000000000000000000000000000000006001600160a01b031663d0e30db0826040518263ffffffff1660e01b81526004016000604051808303818588803b1580156106b057600080fd5b505af11580156106c4573d6000803e3d6000fd5b506101279350506001600160a01b037f000000000000000000000000000000000000000000000000000000000000000016915033905083610747565b600080828060200190518101906107179190610ad2565b91509150915091565b6000606060008380602001905181019061073a9190610a6d565b9250925092509193909250565b6102688363a9059cbb60e01b8484604051602401610766929190610e9b565b60408051601f198184030181529190526020810180516001600160e01b03166001600160e01b03199093169290921790915260606107ed826040518060400160405280602081526020017f5361666545524332303a206c6f772d6c6576656c2063616c6c206661696c6564815250856001600160a01b03166108279092919063ffffffff16565b805190915015610268578080602001905181019061080b9190610b0c565b6102685760405162461bcd60e51b81526004016102ad90610f3a565b60606108368484600085610840565b90505b9392505050565b6060824710156108625760405162461bcd60e51b81526004016102ad90610f0a565b61086b85610901565b6108875760405162461bcd60e51b81526004016102ad90610f2a565b60006060866001600160a01b031685876040516108a49190610e8f565b60006040518083038185875af1925050503d80600081146108e1576040519150601f19603f3d011682016040523d82523d6000602084013e6108e6565b606091505b50915091506108f6828286610907565b979650505050505050565b3b151590565b60608315610916575081610839565b8251156109265782518084602001fd5b8160405162461bcd60e51b81526004016102ad9190610edb565b80516102b98161105c565b600082601f83011261095c57600080fd5b815161096f61096a82610f8f565b610f68565b81815260209384019390925082018360005b838110156109ad57815186016109978882610a11565b8452506020928301929190910190600101610981565b5050505092915050565b80516102b981611070565b600082601f8301126109d357600080fd5b81356109e161096a82610fb0565b915080825260208301602083018583830111156109fd57600080fd5b610a0883828461101a565b50505092915050565b600082601f830112610a2257600080fd5b8151610a3061096a82610fb0565b91508082526020830160208301858383011115610a4c57600080fd5b610a08838284611026565b80516102b981611079565b80516102b981611086565b600080600060608486031215610a8257600080fd5b6000610a8e8686610940565b935050602084015167ffffffffffffffff811115610aab57600080fd5b610ab78682870161094b565b9250506040610ac886828701610a57565b9150509250925092565b60008060408385031215610ae557600080fd5b6000610af18585610940565b9250506020610b0285828601610a62565b9150509250929050565b600060208284031215610b1e57600080fd5b6000610b2a84846109b7565b949350505050565b600060208284031215610b4457600080fd5b813567ffffffffffffffff811115610b5b57600080fd5b610b2a848285016109c2565b60008060408385031215610b7a57600080fd5b6000610b868585610a62565b925050602083015167ffffffffffffffff811115610ba357600080fd5b610b0285828601610a11565b6000610bbb8383610bcf565b505060200190565b6000610bbb8383610e86565b610bd881610ff0565b82525050565b6000610be982610fde565b610bf38185610fe2565b9350610bfe83610fd8565b8060005b83811015610c2c578151610c168882610baf565b9750610c2183610fd8565b925050600101610c02565b509495945050505050565b6000610c4282610fde565b610c4c8185610fe2565b9350610c5783610fd8565b8060005b83811015610c2c578151610c6f8882610bc3565b9750610c7a83610fd8565b925050600101610c5b565b6000610c9082610fde565b610c9a8185610fe2565b9350610caa818560208601611026565b610cb381611052565b9093019392505050565b6000610cc882610fde565b610cd28185610feb565b9350610ce2818560208601611026565b9290920192915050565b610bd88161100f565b6000610d02601b83610fe2565b7f536166654d6174683a206164646974696f6e206f766572666c6f770000000000815260200192915050565b6000610d3b602683610fe2565b7f416464726573733a20696e73756666696369656e742062616c616e636520666f8152651c8818d85b1b60d21b602082015260400192915050565b6000610d83602183610fe2565b7f536166654d6174683a206d756c7469706c69636174696f6e206f766572666c6f8152607760f81b602082015260400192915050565b6000610dc6601d83610fe2565b7f416464726573733a2063616c6c20746f206e6f6e2d636f6e7472616374000000815260200192915050565b6000610dff602a83610fe2565b7f5361666545524332303a204552433230206f7065726174696f6e20646964206e8152691bdd081cdd58d8d9595960b21b602082015260400192915050565b6000610e4b602683610fe2565b7f5f5f636c61696d466565733a20556e737570706f7274656420636c61696d466581526565207479706560d01b602082015260400192915050565b610bd88161100c565b60006108398284610cbd565b60408101610ea98285610bcf565b6108396020830184610e86565b60408082528101610ec78185610bde565b905081810360208301526108368184610c37565b602080825281016108398184610c85565b602081016102b98284610cec565b602080825281016102b981610cf5565b602080825281016102b981610d2e565b602080825281016102b981610d76565b602080825281016102b981610db9565b602080825281016102b981610df2565b602080825281016102b981610e3e565b602081016102b98284610e86565b60405181810167ffffffffffffffff81118282101715610f8757600080fd5b604052919050565b600067ffffffffffffffff821115610fa657600080fd5b5060209081020190565b600067ffffffffffffffff821115610fc757600080fd5b506020601f91909101601f19160190565b60200190565b5190565b90815260200190565b919050565b60006102b982611000565b151590565b6001600160a01b031690565b90565b60006102b982610ff0565b82818337506000910152565b60005b83811015611041578181015183820152602001611029565b8381111561064a5750506000910152565b601f01601f191690565b61106581610ff0565b811461012757600080fd5b61106581610ffb565b6003811061012757600080fd5b6110658161100c56fea164736f6c634300060c000a",
    "linkReferences": {}
  },
  "methodIdentifiers": {
    "ETH_AMOUNT_PER_NODE()": "56e277f0",
    "WETH_TOKEN()": "37d277d4",
    "getDebtAssets()": "ecd658b4",
    "getManagedAssets()": "80daddb8",
    "getValidatorCount()": "7071688a",
    "init(bytes)": "4ddf47d4",
    "receiveCallFromVault(bytes)": "e5c23a97"
  },
  "id": 108
}