{
  "_format": "hh-sol-artifact-1",
  "contractName": "KilnStakingPositionParser",
  "sourceName": "contracts/release/extensions/external-position-manager/external-positions/kiln-staking/KilnStakingPositionParser.sol",
  "abi": [
    {
      "inputs": [
        {
          "internalType": "address",
          "name": "_addressListRegistry",
          "type": "address"
        },
        {
          "internalType": "uint256",
          "name": "_stakingContractsListId",
          "type": "uint256"
        },
        {
          "internalType": "address",
          "name": "_weth",
          "type": "address"
        }
      ],
      "stateMutability": "nonpayable",
      "type": "constructor"
    },
    {
      "inputs": [],
      "name": "ADDRESS_LIST_REGISTRY_CONTRACT",
      "outputs": [
        {
          "internalType": "contract AddressListRegistry",
          "name": "",
          "type": "address"
        }
      ],
      "stateMutability": "view",
      "type": "function"
    },
    {
      "inputs": [],
      "name": "ETH_AMOUNT_PER_NODE",
      "outputs": [
        {
          "internalType": "uint256",
          "name": "",
          "type": "uint256"
        }
      ],
      "stateMutability": "view",
      "type": "function"
    },
    {
      "inputs": [],
      "name": "STAKING_CONTRACTS_LIST_ID",
      "outputs": [
        {
          "internalType": "uint256",
          "name": "",
          "type": "uint256"
        }
      ],
      "stateMutability": "view",
      "type": "function"
    },
    {
      "inputs": [],
      "name": "WETH_TOKEN",
      "outputs": [
        {
          "internalType": "address",
          "name": "",
          "type": "address"
        }
      ],
      "stateMutability": "view",
      "type": "function"
    },
    {
      "inputs": [
        {
          "internalType": "address",
          "name": "_externalPosition",
          "type": "address"
        },
        {
          "internalType": "uint256",
          "name": "_actionId",
          "type": "uint256"
        },
        {
          "internalType": "bytes",
          "name": "_encodedActionArgs",
          "type": "bytes"
        }
      ],
      "name": "parseAssetsForAction",
      "outputs": [
        {
          "internalType": "address[]",
          "name": "assetsToTransfer_",
          "type": "address[]"
        },
        {
          "internalType": "uint256[]",
          "name": "amountsToTransfer_",
          "type": "uint256[]"
        },
        {
          "internalType": "address[]",
          "name": "assetsToReceive_",
          "type": "address[]"
        }
      ],
      "stateMutability": "nonpayable",
      "type": "function"
    },
    {
      "inputs": [
        {
          "internalType": "address",
          "name": "",
          "type": "address"
        },
        {
          "internalType": "bytes",
          "name": "",
          "type": "bytes"
        }
      ],
      "name": "parseInitArgs",
      "outputs": [
        {
          "internalType": "bytes",
          "name": "initArgs_",
          "type": "bytes"
        }
      ],
      "stateMutability": "nonpayable",
      "type": "function"
    }
  ],
  "bytecode": "0x60e06040523480156200001157600080fd5b5060405162000e0038038062000e0083398101604081905262000034916200007a565b6001600160601b0319606093841b811660805260a09290925290911b1660c05262000108565b80516200006781620000e3565b92915050565b80516200006781620000fd565b6000806000606084860312156200009057600080fd5b60006200009e86866200005a565b9350506020620000b1868287016200006d565b9250506040620000c4868287016200005a565b9150509250925092565b60006001600160a01b03821662000067565b90565b620000ee81620000ce565b8114620000fa57600080fd5b50565b620000ee81620000e0565b60805160601c60a05160c05160601c610cad620001536000398061011f52806101b2528061034c52806103ca52508061042252806104be52508060fb52806104915250610cad6000f3fe608060405234801561001057600080fd5b50600436106100625760003560e01c806328cb563c1461006757806337d277d41461008557806356e277f01461009a578063bbd2d646146100af578063caacbe0a146100d1578063db16c72e146100d9575b600080fd5b61006f6100f9565b60405161007c9190610aea565b60405180910390f35b61008d61011d565b60405161007c9190610a89565b6100a2610141565b60405161007c9190610b28565b6100c26100bd36600461080f565b61014e565b60405161007c93929190610a97565b6100a2610420565b6100ec6100e73660046107c7565b610444565b60405161007c9190610ad9565b7f000000000000000000000000000000000000000000000000000000000000000081565b7f000000000000000000000000000000000000000000000000000000000000000081565b6801bc16d674ec80000081565b6060808084610229576000806101638661045a565b915091506101708261047a565b604080516001808252818301909252906020808301908036833750506040805160018082528183019092529297509050602080830190803683370190505093507f0000000000000000000000000000000000000000000000000000000000000000856000815181106101de57fe5b6001600160a01b0390921660209283029190910190910152610209816801bc16d674ec800000610557565b8460008151811061021657fe5b6020026020010181815250505050610417565b600185141561039f576000606061023f86610598565b509150915061024d8261047a565b60005b815181101561032957886001600160a01b0316836001600160a01b031663e00cb6ca84848151811061027e57fe5b60200260200101516040518263ffffffff1660e01b81526004016102a29190610ad9565b60206040518083038186803b1580156102ba57600080fd5b505afa1580156102ce573d6000803e3d6000fd5b505050506040513d601f19601f820116820180604052508101906102f29190610702565b6001600160a01b0316146103215760405162461bcd60e51b815260040161031890610b18565b60405180910390fd5b600101610250565b5060408051600180825281830190925290602080830190803683370190505092507f00000000000000000000000000000000000000000000000000000000000000008360008151811061037857fe5b60200260200101906001600160a01b031690816001600160a01b0316815250505050610417565b60028514156104175760408051600180825281830190925290602080830190803683370190505090507f0000000000000000000000000000000000000000000000000000000000000000816000815181106103f657fe5b60200260200101906001600160a01b031690816001600160a01b0316815250505b93509350939050565b7f000000000000000000000000000000000000000000000000000000000000000081565b6040805160208101909152600081525b92915050565b60008082806020019051810190610471919061078d565b91509150915091565b6040516307158c8160e21b81526001600160a01b037f00000000000000000000000000000000000000000000000000000000000000001690631c563204906104e8907f0000000000000000000000000000000000000000000000000000000000000000908590600401610b36565b60206040518083038186803b15801561050057600080fd5b505afa158015610514573d6000803e3d6000fd5b505050506040513d601f19601f82011682018060405250810190610538919061086a565b6105545760405162461bcd60e51b815260040161031890610af8565b50565b60008261056657506000610454565b8282028284828161057357fe5b04146105915760405162461bcd60e51b815260040161031890610b08565b9392505050565b600060606000838060200190518101906105b29190610728565b9250925092509193909250565b803561045481610c44565b805161045481610c44565b600082601f8301126105e657600080fd5b81516105f96105f482610b78565b610b51565b81815260209384019390925082018360005b838110156106375781518601610621888261069b565b845250602092830192919091019060010161060b565b5050505092915050565b805161045481610c58565b600082601f83011261065d57600080fd5b813561066b6105f482610b99565b9150808252602083016020830185838301111561068757600080fd5b610692838284610bfe565b50505092915050565b600082601f8301126106ac57600080fd5b81516106ba6105f482610b99565b915080825260208301602083018583830111156106d657600080fd5b610692838284610c0a565b805161045481610c61565b803561045481610c6e565b805161045481610c6e565b60006020828403121561071457600080fd5b600061072084846105ca565b949350505050565b60008060006060848603121561073d57600080fd5b600061074986866105ca565b935050602084015167ffffffffffffffff81111561076657600080fd5b610772868287016105d5565b9250506040610783868287016106e1565b9150509250925092565b600080604083850312156107a057600080fd5b60006107ac85856105ca565b92505060206107bd858286016106f7565b9150509250929050565b600080604083850312156107da57600080fd5b60006107e685856105bf565b925050602083013567ffffffffffffffff81111561080357600080fd5b6107bd8582860161064c565b60008060006060848603121561082457600080fd5b600061083086866105bf565b9350506020610841868287016106ec565b925050604084013567ffffffffffffffff81111561085e57600080fd5b6107838682870161064c565b60006020828403121561087c57600080fd5b60006107208484610641565b600061089483836108a8565b505060200190565b60006108948383610a80565b6108b181610bd4565b82525050565b60006108c282610bc7565b6108cc8185610bcb565b93506108d783610bc1565b8060005b838110156109055781516108ef8882610888565b97506108fa83610bc1565b9250506001016108db565b509495945050505050565b600061091b82610bc7565b6109258185610bcb565b935061093083610bc1565b8060005b83811015610905578151610948888261089c565b975061095383610bc1565b925050600101610934565b600061096982610bc7565b6109738185610bcb565b9350610983818560208601610c0a565b61098c81610c3a565b9093019392505050565b6108b181610bf3565b60006109ac603383610bcb565b7f5f5f76616c69646174655374616b696e67436f6e74726163743a20496e76616c8152721a59081cdd185ada5b99c818dbdb9d1c9858dd606a1b602082015260400192915050565b6000610a01602183610bcb565b7f536166654d6174683a206d756c7469706c69636174696f6e206f766572666c6f8152607760f81b602082015260400192915050565b6000610a44602783610bcb565b7f7061727365417373657473466f72416374696f6e3a20496e76616c69642076618152663634b230ba37b960c91b602082015260400192915050565b6108b181610bf0565b6020810161045482846108a8565b60608082528101610aa881866108b7565b90508181036020830152610abc8185610910565b90508181036040830152610ad081846108b7565b95945050505050565b60208082528101610591818461095e565b602081016104548284610996565b602080825281016104548161099f565b60208082528101610454816109f4565b6020808252810161045481610a37565b602081016104548284610a80565b60408101610b448285610a80565b61059160208301846108a8565b60405181810167ffffffffffffffff81118282101715610b7057600080fd5b604052919050565b600067ffffffffffffffff821115610b8f57600080fd5b5060209081020190565b600067ffffffffffffffff821115610bb057600080fd5b506020601f91909101601f19160190565b60200190565b5190565b90815260200190565b600061045482610be4565b151590565b6001600160a01b031690565b90565b600061045482610bd4565b82818337506000910152565b60005b83811015610c25578181015183820152602001610c0d565b83811115610c34576000848401525b50505050565b601f01601f191690565b610c4d81610bd4565b811461055457600080fd5b610c4d81610bdf565b6003811061055457600080fd5b610c4d81610bf056fea2646970667358221220402e261d115911dee1b73dd39480c884e47c98c28d13b6a88506c67ece017e9164736f6c634300060c0033",
  "linkReferences": {},
  "deployedLinkReferences": {}
}