{
  "abi": [
    {
      "inputs": [
        {
          "internalType": "address",
          "name": "_liquityBorrowerOperations",
          "type": "address"
        },
        {
          "internalType": "address",
          "name": "_liquityTroveManager",
          "type": "address"
        },
        {
          "internalType": "address",
          "name": "_lusd",
          "type": "address"
        },
        {
          "internalType": "address",
          "name": "_weth",
          "type": "address"
        }
      ],
      "stateMutability": "nonpayable",
      "type": "constructor"
    },
    {
      "inputs": [],
      "name": "getDebtAssets",
      "outputs": [
        {
          "internalType": "address[]",
          "name": "assets_",
          "type": "address[]"
        },
        {
          "internalType": "uint256[]",
          "name": "amounts_",
          "type": "uint256[]"
        }
      ],
      "stateMutability": "nonpayable",
      "type": "function"
    },
    {
      "inputs": [],
      "name": "getManagedAssets",
      "outputs": [
        {
          "internalType": "address[]",
          "name": "assets_",
          "type": "address[]"
        },
        {
          "internalType": "uint256[]",
          "name": "amounts_",
          "type": "uint256[]"
        }
      ],
      "stateMutability": "nonpayable",
      "type": "function"
    },
    {
      "inputs": [
        {
          "internalType": "bytes",
          "name": "",
          "type": "bytes"
        }
      ],
      "name": "init",
      "outputs": [],
      "stateMutability": "nonpayable",
      "type": "function"
    },
    {
      "inputs": [
        {
          "internalType": "bytes",
          "name": "_actionData",
          "type": "bytes"
        }
      ],
      "name": "receiveCallFromVault",
      "outputs": [],
      "stateMutability": "nonpayable",
      "type": "function"
    }
  ],
  "bytecode": {
    "object": "0x61010060405234801561001157600080fd5b506040516113ec3803806113ec8339818101604052608081101561003457600080fd5b508051602082015160408301516060938401516001600160601b031993851b841660805291841b831660a052831b821660c05290911b1660e05260805160601c60a05160601c60c05160601c60e05160601c6112ed6100ff600039806103a2528061079f52806109385280610af45280610b725280610ddd5280610f2a52508061072b52806108d05280610c8f5280610e555280610ef652508061028f528061065852508061081d52806109b65280610a545280610bdc5280610cc05280610d6552506112ed6000f3fe608060405234801561001057600080fd5b506004361061004c5760003560e01c80634ddf47d41461005157806380daddb8146100f9578063e5c23a971461019a578063ecd658b414610240575b600080fd5b6100f76004803603602081101561006757600080fd5b81019060208101813564010000000081111561008257600080fd5b82018360208201111561009457600080fd5b803590602001918460018302840111640100000000831117156100b657600080fd5b91908080601f016020809104026020016040519081016040528093929190818152602001838380828437600092019190915250929550610248945050505050565b005b61010161024b565b604051808060200180602001838103835285818151815260200191508051906020019060200280838360005b8381101561014557818101518382015260200161012d565b50505050905001838103825284818151815260200191508051906020019060200280838360005b8381101561018457818101518382015260200161016c565b5050505090500194505050505060405180910390f35b6100f7600480360360208110156101b057600080fd5b8101906020810181356401000000008111156101cb57600080fd5b8201836020820111156101dd57600080fd5b803590602001918460018302840111640100000000831117156101ff57600080fd5b91908080601f0160208091040260200160405190810160405280939291908181526020018383808284376000920191909152509295506103f3945050505050565b610101610614565b50565b604080516001808252818301909252606091829190602080830190803683375050604080516309019aaf60e31b815230600482015290519293506001600160a01b037f0000000000000000000000000000000000000000000000000000000000000000169263480cd57892506024808301926020929190829003018186803b1580156102d657600080fd5b505afa1580156102ea573d6000803e3d6000fd5b505050506040513d602081101561030057600080fd5b50518151829060009061030f57fe5b6020026020010181815250508060008151811061032857fe5b602002602001015160001415610380576000805b50604051908082528060200260200182016040528015610366578160200160208202803683370190505b5060408051600081526020810190915290925090506103ef565b60408051600180825281830190925290602080830190803683370190505091507f0000000000000000000000000000000000000000000000000000000000000000826000815181106103ce57fe5b60200260200101906001600160a01b031690816001600160a01b0316815250505b9091565b6000606082806020019051604081101561040c57600080fd5b81516020830180516040519294929383019291908464010000000082111561043357600080fd5b90830190602082018581111561044857600080fd5b825164010000000081118282018810171561046257600080fd5b82525081516020918201929091019080838360005b8381101561048f578181015183820152602001610477565b50505050905090810190601f1680156104bc5780820380516001836020036101000a031916815260200191505b5060405250505091509150600060058111156104d457fe5b82141561050d5760008060008060006104ec86610757565b94509450945094509450610503858585858561079d565b505050505061060f565b600182141561053d57600080600061052484610902565b925092509250610535838383610936565b50505061060f565b600282141561056557600080600061055484610902565b925092509250610535838383610a52565b600382141561059a5760008060008061057d85610b9d565b935093509350935061059184848484610bda565b5050505061060f565b60048214156105c25760008060006105b184610902565b925092509250610535838383610cbe565b60058214156105d8576105d3610d63565b61060f565b60405162461bcd60e51b81526004018080602001828103825260268152602001806112916026913960400191505060405180910390fd5b505050565b6040805160018082528183019092526060918291906020808301908036833750506040805163d66a255360e01b815230600482015290519293506001600160a01b037f0000000000000000000000000000000000000000000000000000000000000000169263d66a255392506024808301926020929190829003018186803b15801561069f57600080fd5b505afa1580156106b3573d6000803e3d6000fd5b505050506040513d60208110156106c957600080fd5b5051815182906000906106d857fe5b602002602001018181525050806000815181106106f157fe5b6020026020010151600014156107095760008061033c565b60408051600180825281830190925290602080830190803683370190505091507f0000000000000000000000000000000000000000000000000000000000000000826000815181106103ce57fe5b60008060008060008580602001905160a081101561077457600080fd5b508051602082015160408301516060840151608090940151929a91995097509195509350915050565b7f00000000000000000000000000000000000000000000000000000000000000006001600160a01b0316632e1a7d4d856040518263ffffffff1660e01b815260040180828152602001915050600060405180830381600087803b15801561080357600080fd5b505af1158015610817573d6000803e3d6000fd5b505050507f00000000000000000000000000000000000000000000000000000000000000006001600160a01b031663860665b385878686866040518663ffffffff1660e01b815260040180858152602001848152602001836001600160a01b03168152602001826001600160a01b031681526020019450505050506000604051808303818588803b1580156108ab57600080fd5b505af11580156108bf573d6000803e3d6000fd5b506108fb9350506001600160a01b037f000000000000000000000000000000000000000000000000000000000000000016915033905085610f4d565b5050505050565b600080600083806020019051606081101561091c57600080fd5b508051602082015160409092015190969195509350915050565b7f00000000000000000000000000000000000000000000000000000000000000006001600160a01b0316632e1a7d4d846040518263ffffffff1660e01b815260040180828152602001915050600060405180830381600087803b15801561099c57600080fd5b505af11580156109b0573d6000803e3d6000fd5b505050507f00000000000000000000000000000000000000000000000000000000000000006001600160a01b03166368647db18484846040518463ffffffff1660e01b815260040180836001600160a01b03168152602001826001600160a01b03168152602001925050506000604051808303818588803b158015610a3457600080fd5b505af1158015610a48573d6000803e3d6000fd5b5050505050505050565b7f00000000000000000000000000000000000000000000000000000000000000006001600160a01b0316635530273c8484846040518463ffffffff1660e01b815260040180848152602001836001600160a01b03168152602001826001600160a01b031681526020019350505050600060405180830381600087803b158015610ada57600080fd5b505af1158015610aee573d6000803e3d6000fd5b505050507f00000000000000000000000000000000000000000000000000000000000000006001600160a01b031663d0e30db0846040518263ffffffff1660e01b81526004016000604051808303818588803b158015610b4d57600080fd5b505af1158015610b61573d6000803e3d6000fd5b5061060f9350506001600160a01b037f000000000000000000000000000000000000000000000000000000000000000016915033905085610f4d565b600080600080848060200190516080811015610bb857600080fd5b5080516020820151604083015160609093015191989097509195509350915050565b7f00000000000000000000000000000000000000000000000000000000000000006001600160a01b0316631184e5f8858585856040518563ffffffff1660e01b815260040180858152602001848152602001836001600160a01b03168152602001826001600160a01b03168152602001945050505050600060405180830381600087803b158015610c6a57600080fd5b505af1158015610c7e573d6000803e3d6000fd5b50610cb89250506001600160a01b037f00000000000000000000000000000000000000000000000000000000000000001690503385610f4d565b50505050565b7f00000000000000000000000000000000000000000000000000000000000000006001600160a01b03166304491fa78484846040518463ffffffff1660e01b815260040180848152602001836001600160a01b03168152602001826001600160a01b031681526020019350505050600060405180830381600087803b158015610d4657600080fd5b505af1158015610d5a573d6000803e3d6000fd5b50505050505050565b7f00000000000000000000000000000000000000000000000000000000000000006001600160a01b0316630e704d506040518163ffffffff1660e01b8152600401600060405180830381600087803b158015610dbe57600080fd5b505af1158015610dd2573d6000803e3d6000fd5b5050505060004790507f00000000000000000000000000000000000000000000000000000000000000006001600160a01b031663d0e30db0826040518263ffffffff1660e01b81526004016000604051808303818588803b158015610e3657600080fd5b505af1158015610e4a573d6000803e3d6000fd5b5050505050610f1d337f00000000000000000000000000000000000000000000000000000000000000006001600160a01b03166370a08231306040518263ffffffff1660e01b815260040180826001600160a01b0316815260200191505060206040518083038186803b158015610ec057600080fd5b505afa158015610ed4573d6000803e3d6000fd5b505050506040513d6020811015610eea57600080fd5b50516001600160a01b037f0000000000000000000000000000000000000000000000000000000000000000169190610f4d565b6102486001600160a01b037f00000000000000000000000000000000000000000000000000000000000000001633835b604080516001600160a01b038416602482015260448082018490528251808303909101815260649091019091526020810180516001600160e01b031663a9059cbb60e01b17905261060f9084906060610fef826040518060400160405280602081526020017f5361666545524332303a206c6f772d6c6576656c2063616c6c206661696c6564815250856001600160a01b031661104b9092919063ffffffff16565b80519091501561060f5780806020019051602081101561100e57600080fd5b505161060f5760405162461bcd60e51b815260040180806020018281038252602a8152602001806112b7602a913960400191505060405180910390fd5b606061105a8484600085611064565b90505b9392505050565b6060824710156110a55760405162461bcd60e51b815260040180806020018281038252602681526020018061126b6026913960400191505060405180910390fd5b6110ae856111c0565b6110ff576040805162461bcd60e51b815260206004820152601d60248201527f416464726573733a2063616c6c20746f206e6f6e2d636f6e7472616374000000604482015290519081900360640190fd5b60006060866001600160a01b031685876040518082805190602001908083835b6020831061113e5780518252601f19909201916020918201910161111f565b6001836020036101000a03801982511681845116808217855250505050505090500191505060006040518083038185875af1925050503d80600081146111a0576040519150601f19603f3d011682016040523d82523d6000602084013e6111a5565b606091505b50915091506111b58282866111c6565b979650505050505050565b3b151590565b606083156111d557508161105d565b8251156111e55782518084602001fd5b8160405162461bcd60e51b81526004018080602001828103825283818151815260200191508051906020019080838360005b8381101561122f578181015183820152602001611217565b50505050905090810190601f16801561125c5780820380516001836020036101000a031916815260200191505b509250505060405180910390fdfe416464726573733a20696e73756666696369656e742062616c616e636520666f722063616c6c7265636569766543616c6c46726f6d5661756c743a20496e76616c696420616374696f6e49645361666545524332303a204552433230206f7065726174696f6e20646964206e6f742073756363656564a164736f6c634300060c000a",
    "linkReferences": {}
  },
  "methodIdentifiers": {
    "getDebtAssets()": "ecd658b4",
    "getManagedAssets()": "80daddb8",
    "init(bytes)": "4ddf47d4",
    "receiveCallFromVault(bytes)": "e5c23a97"
  },
  "id": 112
}