{
  "abi": [
    {
      "inputs": [
        {
          "internalType": "address",
          "name": "_feeManager",
          "type": "address"
        }
      ],
      "stateMutability": "nonpayable",
      "type": "constructor"
    },
    {
      "anonymous": false,
      "inputs": [
        {
          "indexed": true,
          "internalType": "address",
          "name": "comptrollerProxy",
          "type": "address"
        }
      ],
      "name": "ActivatedForMigratedFund",
      "type": "event"
    },
    {
      "anonymous": false,
      "inputs": [
        {
          "indexed": true,
          "internalType": "address",
          "name": "comptrollerProxy",
          "type": "address"
        },
        {
          "indexed": false,
          "internalType": "uint128",
          "name": "scaledPerSecondRate",
          "type": "uint128"
        }
      ],
      "name": "FundSettingsAdded",
      "type": "event"
    },
    {
      "anonymous": false,
      "inputs": [
        {
          "indexed": true,
          "internalType": "address",
          "name": "comptrollerProxy",
          "type": "address"
        },
        {
          "indexed": true,
          "internalType": "address",
          "name": "recipient",
          "type": "address"
        }
      ],
      "name": "RecipientSetForFund",
      "type": "event"
    },
    {
      "anonymous": false,
      "inputs": [
        {
          "indexed": true,
          "internalType": "address",
          "name": "comptrollerProxy",
          "type": "address"
        },
        {
          "indexed": false,
          "internalType": "uint256",
          "name": "sharesQuantity",
          "type": "uint256"
        },
        {
          "indexed": false,
          "internalType": "uint256",
          "name": "secondsSinceSettlement",
          "type": "uint256"
        }
      ],
      "name": "Settled",
      "type": "event"
    },
    {
      "inputs": [
        {
          "internalType": "address",
          "name": "_comptrollerProxy",
          "type": "address"
        },
        {
          "internalType": "address",
          "name": "_vaultProxy",
          "type": "address"
        }
      ],
      "name": "activateForFund",
      "outputs": [],
      "stateMutability": "nonpayable",
      "type": "function"
    },
    {
      "inputs": [
        {
          "internalType": "address",
          "name": "_comptrollerProxy",
          "type": "address"
        },
        {
          "internalType": "bytes",
          "name": "_settingsData",
          "type": "bytes"
        }
      ],
      "name": "addFundSettings",
      "outputs": [],
      "stateMutability": "nonpayable",
      "type": "function"
    },
    {
      "inputs": [
        {
          "internalType": "address",
          "name": "_comptrollerProxy",
          "type": "address"
        }
      ],
      "name": "getFeeInfoForFund",
      "outputs": [
        {
          "components": [
            {
              "internalType": "uint128",
              "name": "scaledPerSecondRate",
              "type": "uint128"
            },
            {
              "internalType": "uint128",
              "name": "lastSettled",
              "type": "uint128"
            }
          ],
          "internalType": "struct ManagementFee.FeeInfo",
          "name": "feeInfo_",
          "type": "tuple"
        }
      ],
      "stateMutability": "view",
      "type": "function"
    },
    {
      "inputs": [],
      "name": "getFeeManager",
      "outputs": [
        {
          "internalType": "address",
          "name": "feeManager_",
          "type": "address"
        }
      ],
      "stateMutability": "view",
      "type": "function"
    },
    {
      "inputs": [
        {
          "internalType": "address",
          "name": "_comptrollerProxy",
          "type": "address"
        }
      ],
      "name": "getRecipientForFund",
      "outputs": [
        {
          "internalType": "address",
          "name": "recipient_",
          "type": "address"
        }
      ],
      "stateMutability": "view",
      "type": "function"
    },
    {
      "inputs": [
        {
          "internalType": "address",
          "name": "",
          "type": "address"
        },
        {
          "internalType": "address",
          "name": "",
          "type": "address"
        }
      ],
      "name": "payout",
      "outputs": [
        {
          "internalType": "bool",
          "name": "",
          "type": "bool"
        }
      ],
      "stateMutability": "nonpayable",
      "type": "function"
    },
    {
      "inputs": [
        {
          "internalType": "address",
          "name": "_comptrollerProxy",
          "type": "address"
        },
        {
          "internalType": "address",
          "name": "_recipient",
          "type": "address"
        }
      ],
      "name": "setRecipientForFund",
      "outputs": [],
      "stateMutability": "nonpayable",
      "type": "function"
    },
    {
      "inputs": [
        {
          "internalType": "address",
          "name": "_comptrollerProxy",
          "type": "address"
        },
        {
          "internalType": "address",
          "name": "_vaultProxy",
          "type": "address"
        },
        {
          "internalType": "enum IFeeManager.FeeHook",
          "name": "",
          "type": "uint8"
        },
        {
          "internalType": "bytes",
          "name": "",
          "type": "bytes"
        },
        {
          "internalType": "uint256",
          "name": "",
          "type": "uint256"
        }
      ],
      "name": "settle",
      "outputs": [
        {
          "internalType": "enum IFeeManager.SettlementType",
          "name": "settlementType_",
          "type": "uint8"
        },
        {
          "internalType": "address",
          "name": "",
          "type": "address"
        },
        {
          "internalType": "uint256",
          "name": "sharesDue_",
          "type": "uint256"
        }
      ],
      "stateMutability": "nonpayable",
      "type": "function"
    },
    {
      "inputs": [
        {
          "internalType": "enum IFeeManager.FeeHook",
          "name": "_hook",
          "type": "uint8"
        }
      ],
      "name": "settlesOnHook",
      "outputs": [
        {
          "internalType": "bool",
          "name": "settles_",
          "type": "bool"
        },
        {
          "internalType": "bool",
          "name": "usesGav_",
          "type": "bool"
        }
      ],
      "stateMutability": "view",
      "type": "function"
    },
    {
      "inputs": [
        {
          "internalType": "address",
          "name": "",
          "type": "address"
        },
        {
          "internalType": "address",
          "name": "",
          "type": "address"
        },
        {
          "internalType": "enum IFeeManager.FeeHook",
          "name": "",
          "type": "uint8"
        },
        {
          "internalType": "bytes",
          "name": "",
          "type": "bytes"
        },
        {
          "internalType": "uint256",
          "name": "",
          "type": "uint256"
        }
      ],
      "name": "update",
      "outputs": [],
      "stateMutability": "nonpayable",
      "type": "function"
    },
    {
      "inputs": [
        {
          "internalType": "enum IFeeManager.FeeHook",
          "name": "",
          "type": "uint8"
        }
      ],
      "name": "updatesOnHook",
      "outputs": [
        {
          "internalType": "bool",
          "name": "updates_",
          "type": "bool"
        },
        {
          "internalType": "bool",
          "name": "usesGav_",
          "type": "bool"
        }
      ],
      "stateMutability": "view",
      "type": "function"
    }
  ],
  "bytecode": {
    "object": "0x60a060405234801561001057600080fd5b5060405161115c38038061115c83398101604081905261002f91610055565b60601b6001600160601b0319166080526100a3565b805161004f8161008c565b92915050565b60006020828403121561006757600080fd5b60006100738484610044565b949350505050565b60006001600160a01b03821661004f565b6100958161007b565b81146100a057600080fd5b50565b60805160601c61108d6100cf600039806101ce5280610321528061049c52806108ab525061108d6000f3fe608060405234801561001057600080fd5b50600436106100a95760003560e01c806362780b3c1161007157806362780b3c14610135578063877fd473146101555780638c55f80f14610175578063b78b481314610188578063e337a91f146101a8578063f2d63826146101bb576100a9565b80630f5f6b4f146100ae578063233faf5f146100c35780633146d058146100d6578063320f0ddd146100e957806341892d7e14610113575b600080fd5b6100c16100bc366004610c46565b6101c3565b005b6100c16100d1366004610bb6565b61030e565b6100c16100e4366004610b7c565b610316565b6100fc6100f7366004610c9c565b610432565b60405161010a929190610f1d565b60405180910390f35b610126610121366004610bb6565b61048d565b60405161010a93929190610f38565b610148610143366004610b38565b610720565b60405161010a9190610f01565b610168610163366004610b38565b610733565b60405161010a9190610fc0565b6100c1610183366004610b7c565b61077d565b61019b610196366004610b7c565b610898565b60405161010a9190610f0f565b6100fc6101b6366004610c9c565b6108a1565b6101486108a9565b336001600160a01b037f000000000000000000000000000000000000000000000000000000000000000016146102145760405162461bcd60e51b815260040161020b90610f80565b60405180910390fd5b60008061022383850185610cba565b915091506000826001600160801b0316116102505760405162461bcd60e51b815260040161020b90610fa0565b6040805180820182526001600160801b038085168252600060208084018281526001600160a01b038b168084526001909252918590209351845492518416600160801b029084166fffffffffffffffffffffffffffffffff19909316929092179092161790915590517f43e2539cfab38f0e3b5d0648103e367b0d65bdc181c37c6753066ba4e79f05b2906102e6908590610fce565b60405180910390a26001600160a01b038116156103075761030785826108cd565b5050505050565b505050505050565b336001600160a01b037f0000000000000000000000000000000000000000000000000000000000000000161461035e5760405162461bcd60e51b815260040161020b90610f80565b6000816001600160a01b03166318160ddd6040518163ffffffff1660e01b815260040160206040518083038186803b15801561039957600080fd5b505afa1580156103ad573d6000803e3d6000fd5b505050506040513d601f19601f820116820180604052508101906103d19190610cd9565b111561042e576001600160a01b03821660008181526001602052604080822080546001600160801b03428116600160801b029116179055517f8f1e8a779dce142f8b8b45e1747798edee9623be81f2f411496f3b49eb67bc369190a25b5050565b600080600183600381111561044357fe5b148061045a5750600383600381111561045857fe5b145b806104705750600083600381111561046e57fe5b145b156104815750600190506000610488565b5060009050805b915091565b60008080336001600160a01b037f000000000000000000000000000000000000000000000000000000000000000016146104d95760405162461bcd60e51b815260040161020b90610f80565b6001600160a01b03891660009081526001602052604081208054909190610511904290600160801b90046001600160801b0316610924565b90508061052a5760008060009450945094505050610714565b60008a90506000816001600160a01b03166318160ddd6040518163ffffffff1660e01b815260040160206040518083038186803b15801561056a57600080fd5b505afa15801561057e573d6000803e3d6000fd5b505050506040513d601f19601f820116820180604052508101906105a29190610cd9565b90508015610684576000610632836001600160a01b03166370a082318f6040518263ffffffff1660e01b81526004016105db9190610f01565b60206040518083038186803b1580156105f357600080fd5b505afa158015610607573d6000803e3d6000fd5b505050506040513d601f19601f8201168201806040525081019061062b9190610cd9565b8390610924565b9050801561068257845461067f906b033b2e3c9fd0803ce8000000906106799061067290839061066c906001600160801b03168a8361094c565b90610924565b8490610a0c565b90610a46565b95505b505b6001600160a01b038d166000818152600160205260409081902080546001600160801b03428116600160801b029116179055517f468aeeec0e901c52363552a06c1e39331d44c3cc886eb200af127ded3f380f82906106e69088908790610fdc565b60405180910390a28461070757600080600096509650965050505050610714565b6002600096509650505050505b96509650969350505050565b600061072b82610a78565b90505b919050565b61073b610a96565b506001600160a01b03166000908152600160209081526040918290208251808401909352546001600160801b038082168452600160801b909104169082015290565b816001600160a01b031663c98091876040518163ffffffff1660e01b815260040160206040518083038186803b1580156107b657600080fd5b505afa1580156107ca573d6000803e3d6000fd5b505050506040513d601f19601f820116820180604052508101906107ee9190610b5e565b6001600160a01b031663893d20e86040518163ffffffff1660e01b815260040160206040518083038186803b15801561082657600080fd5b505afa15801561083a573d6000803e3d6000fd5b505050506040513d601f19601f8201168201806040525081019061085e9190610b5e565b6001600160a01b0316336001600160a01b03161461088e5760405162461bcd60e51b815260040161020b90610fb0565b61042e82826108cd565b60005b92915050565b600080915091565b7f000000000000000000000000000000000000000000000000000000000000000090565b6001600160a01b0382811660008181526020819052604080822080546001600160a01b0319169486169485179055517fa11fc98cfb391622348acc16de92f0efb77d55f71a6e9fa18bfef387ae8d19ce9190a35050565b6000828211156109465760405162461bcd60e51b815260040161020b90610f60565b50900390565b60008380156109ed576001841680156109675785925061096b565b8392505b50600283046002850494505b84156109e757858602868782041461098e57600080fd5b8181018181101561099e57600080fd5b858104975060028706156109da5787850285898204141589151516156109c357600080fd5b838101818110156109d357600080fd5b8790049550505b5050600285049450610977565b50610a03565b8380156109fd5760009250610a01565b8392505b505b505b9392505050565b600082610a1b5750600061089b565b82820282848281610a2857fe5b0414610a055760405162461bcd60e51b815260040161020b90610f90565b6000808211610a675760405162461bcd60e51b815260040161020b90610f70565b818381610a7057fe5b049392505050565b6001600160a01b039081166000908152602081905260409020541690565b604080518082019091526000808252602082015290565b803561089b8161104d565b805161089b8161104d565b60008083601f840112610ad557600080fd5b50813567ffffffffffffffff811115610aed57600080fd5b602083019150836001820283011115610b0557600080fd5b9250929050565b803561089b81611061565b803561089b8161106e565b803561089b81611077565b805161089b81611077565b600060208284031215610b4a57600080fd5b6000610b568484610aad565b949350505050565b600060208284031215610b7057600080fd5b6000610b568484610ab8565b60008060408385031215610b8f57600080fd5b6000610b9b8585610aad565b9250506020610bac85828601610aad565b9150509250929050565b60008060008060008060a08789031215610bcf57600080fd5b6000610bdb8989610aad565b9650506020610bec89828a01610aad565b9550506040610bfd89828a01610b0c565b945050606087013567ffffffffffffffff811115610c1a57600080fd5b610c2689828a01610ac3565b93509350506080610c3989828a01610b22565b9150509295509295509295565b600080600060408486031215610c5b57600080fd5b6000610c678686610aad565b935050602084013567ffffffffffffffff811115610c8457600080fd5b610c9086828701610ac3565b92509250509250925092565b600060208284031215610cae57600080fd5b6000610b568484610b0c565b60008060408385031215610ccd57600080fd5b6000610b9b8585610b17565b600060208284031215610ceb57600080fd5b6000610b568484610b2d565b610d0081611000565b82525050565b610d008161100b565b610d0081611035565b6000610d25601e83610ff7565b7f536166654d6174683a207375627472616374696f6e206f766572666c6f770000815260200192915050565b6000610d5e601a83610ff7565b7f536166654d6174683a206469766973696f6e206279207a65726f000000000000815260200192915050565b6000610d97602583610ff7565b7f4f6e6c7920746865204665654d616e6765722063616e206d616b6520746869738152640818d85b1b60da1b602082015260400192915050565b6000610dde602183610ff7565b7f536166654d6174683a206d756c7469706c69636174696f6e206f766572666c6f8152607760f81b602082015260400192915050565b6000610e21603b83610ff7565b7f61646446756e6453657474696e67733a207363616c65645065725365636f6e6481527f52617465206d7573742062652067726561746572207468616e20300000000000602082015260400192915050565b6000610e80603083610ff7565b7f5f5f736574526563697069656e74466f7246756e643a204f6e6c79207661756c81526f74206f776e65722063616c6c61626c6560801b602082015260400192915050565b80516040830190610ed68482610eef565b506020820151610ee96020850182610eef565b50505050565b610d008161101a565b610d0081611032565b6020810161089b8284610cf7565b6020810161089b8284610d06565b60408101610f2b8285610d06565b610a056020830184610d06565b60608101610f468286610d0f565b610f536020830185610cf7565b610b566040830184610ef8565b6020808252810161072b81610d18565b6020808252810161072b81610d51565b6020808252810161072b81610d8a565b6020808252810161072b81610dd1565b6020808252810161072b81610e14565b6020808252810161072b81610e73565b6040810161089b8284610ec5565b6020810161089b8284610eef565b60408101610fea8285610ef8565b610a056020830184610ef8565b90815260200190565b600061072b82611026565b151590565b8061072e81611040565b6001600160801b031690565b6001600160a01b031690565b90565b600061072b82611010565b6006811061104a57fe5b50565b61105681611000565b811461104a57600080fd5b6004811061104a57600080fd5b6110568161101a565b6110568161103256fea164736f6c634300060c000a",
    "linkReferences": {}
  },
  "methodIdentifiers": {
    "activateForFund(address,address)": "3146d058",
    "addFundSettings(address,bytes)": "0f5f6b4f",
    "getFeeInfoForFund(address)": "877fd473",
    "getFeeManager()": "f2d63826",
    "getRecipientForFund(address)": "62780b3c",
    "payout(address,address)": "b78b4813",
    "setRecipientForFund(address,address)": "8c55f80f",
    "settle(address,address,uint8,bytes,uint256)": "41892d7e",
    "settlesOnHook(uint8)": "320f0ddd",
    "update(address,address,uint8,bytes,uint256)": "233faf5f",
    "updatesOnHook(uint8)": "e337a91f"
  },
  "id": 149
}