{
  "abi": [
    {
      "anonymous": false,
      "inputs": [
        {
          "indexed": false,
          "internalType": "bytes32",
          "name": "description",
          "type": "bytes32"
        }
      ],
      "name": "Initialized",
      "type": "event"
    },
    {
      "anonymous": false,
      "inputs": [
        {
          "indexed": true,
          "internalType": "address",
          "name": "nominatedOwner",
          "type": "address"
        }
      ],
      "name": "NominatedOwnerSet",
      "type": "event"
    },
    {
      "anonymous": false,
      "inputs": [
        {
          "indexed": false,
          "internalType": "address",
          "name": "owner",
          "type": "address"
        }
      ],
      "name": "OwnerSet",
      "type": "event"
    },
    {
      "anonymous": false,
      "inputs": [
        {
          "indexed": false,
          "internalType": "address",
          "name": "updater",
          "type": "address"
        }
      ],
      "name": "UpdaterSet",
      "type": "event"
    },
    {
      "anonymous": false,
      "inputs": [
        {
          "indexed": false,
          "internalType": "int256",
          "name": "value",
          "type": "int256"
        }
      ],
      "name": "ValueUpdated",
      "type": "event"
    },
    {
      "inputs": [],
      "name": "claimOwnership",
      "outputs": [],
      "stateMutability": "nonpayable",
      "type": "function"
    },
    {
      "inputs": [],
      "name": "getLastUpdated",
      "outputs": [
        {
          "internalType": "uint256",
          "name": "lastUpdated_",
          "type": "uint256"
        }
      ],
      "stateMutability": "view",
      "type": "function"
    },
    {
      "inputs": [],
      "name": "getNominatedOwner",
      "outputs": [
        {
          "internalType": "address",
          "name": "nominatedOwner_",
          "type": "address"
        }
      ],
      "stateMutability": "view",
      "type": "function"
    },
    {
      "inputs": [],
      "name": "getOwner",
      "outputs": [
        {
          "internalType": "address",
          "name": "owner_",
          "type": "address"
        }
      ],
      "stateMutability": "view",
      "type": "function"
    },
    {
      "inputs": [],
      "name": "getUpdater",
      "outputs": [
        {
          "internalType": "address",
          "name": "updater_",
          "type": "address"
        }
      ],
      "stateMutability": "view",
      "type": "function"
    },
    {
      "inputs": [],
      "name": "getValue",
      "outputs": [
        {
          "internalType": "int256",
          "name": "value_",
          "type": "int256"
        }
      ],
      "stateMutability": "view",
      "type": "function"
    },
    {
      "inputs": [],
      "name": "getValueWithTimestamp",
      "outputs": [
        {
          "internalType": "int256",
          "name": "value_",
          "type": "int256"
        },
        {
          "internalType": "uint256",
          "name": "lastUpdated_",
          "type": "uint256"
        }
      ],
      "stateMutability": "view",
      "type": "function"
    },
    {
      "inputs": [
        {
          "internalType": "address",
          "name": "_owner",
          "type": "address"
        },
        {
          "internalType": "address",
          "name": "_updater",
          "type": "address"
        },
        {
          "internalType": "bytes32",
          "name": "_description",
          "type": "bytes32"
        }
      ],
      "name": "init",
      "outputs": [],
      "stateMutability": "nonpayable",
      "type": "function"
    },
    {
      "inputs": [
        {
          "internalType": "address",
          "name": "_nextNominatedOwner",
          "type": "address"
        }
      ],
      "name": "setNominatedOwner",
      "outputs": [],
      "stateMutability": "nonpayable",
      "type": "function"
    },
    {
      "inputs": [
        {
          "internalType": "address",
          "name": "_nextUpdater",
          "type": "address"
        }
      ],
      "name": "setUpdater",
      "outputs": [],
      "stateMutability": "nonpayable",
      "type": "function"
    },
    {
      "inputs": [
        {
          "internalType": "int192",
          "name": "_nextValue",
          "type": "int192"
        }
      ],
      "name": "updateValue",
      "outputs": [],
      "stateMutability": "nonpayable",
      "type": "function"
    }
  ],
  "bytecode": {
    "object": "0x608060405234801561001057600080fd5b5061068b806100206000396000f3fe608060405234801561001057600080fd5b50600436106100a95760003560e01c80634e71e0c8116100715780634e71e0c814610165578063728e17a01461016d57806378121dd414610193578063893d20e81461019b57806399d54d39146101a35780639d54f419146101ab576100a9565b806320965255146100ae578063288b6a36146100c85780632cd56672146100ec578063347258aa1461010e5780634def985514610144575b600080fd5b6100b66101d1565b60408051918252519081900360200190f35b6100d06101de565b604080516001600160a01b039092168252519081900360200190f35b61010c6004803603602081101561010257600080fd5b503560170b6101ed565b005b61010c6004803603606081101561012457600080fd5b506001600160a01b038135811691602081013590911690604001356102c8565b61014c6103d6565b6040805192835260208301919091528051918290030190f35b61010c6103f1565b61010c6004803603602081101561018357600080fd5b50356001600160a01b0316610476565b6100b66104e9565b6100d0610500565b6100d061050f565b61010c600480360360208110156101c157600080fd5b50356001600160a01b031661051e565b600354601790810b900b90565b6000546001600160a01b031690565b6101f561050f565b6001600160a01b0316336001600160a01b03161461025a576040805162461bcd60e51b815260206004820152601960248201527f75706461746556616c75653a20556e617574686f72697a656400000000000000604482015290519081900360640190fd5b600380546001600160c01b0319166001600160c01b03601784900b8181169290921716600160c01b4267ffffffffffffffff16021790915560408051918252517f6577488b46c5d4bec17c8c7e5461e3b03f90932b44b31572d9b9cf30d21bdd8f916020908290030190a150565b60006102d2610500565b6001600160a01b03161461032d576040805162461bcd60e51b815260206004820152601960248201527f696e69743a20416c726561647920696e697469616c697a656400000000000000604482015290519081900360640190fd5b6001600160a01b03831661037d576040805162461bcd60e51b815260206004820152601260248201527134b734ba1d1022b6b83a3c902fb7bbb732b960711b604482015290519081900360640190fd5b6103868361058e565b6040805182815290517fdc73717d728bcfa015e8117438a65319aa06e979ca324afa6e1ea645c28ea15d9181900360200190a16001600160a01b038216156103d1576103d1826105e2565b505050565b6000806103e16101d1565b6103e96104e9565b915091509091565b60006103fb6101de565b9050336001600160a01b0382161461045a576040805162461bcd60e51b815260206004820152601c60248201527f636c61696d4f776e6572736869703a20556e617574686f72697a656400000000604482015290519081900360640190fd5b6104638161058e565b50600080546001600160a01b0319169055565b61047e610500565b6001600160a01b0316336001600160a01b0316146104dd576040805162461bcd60e51b81526020600482015260176024820152761bdb9b1e53dddb995c8e88155b985d5d1a1bdc9a5e9959604a1b604482015290519081900360640190fd5b6104e681610636565b50565b600354600160c01b900467ffffffffffffffff1690565b6001546001600160a01b031690565b6002546001600160a01b031690565b610526610500565b6001600160a01b0316336001600160a01b031614610585576040805162461bcd60e51b81526020600482015260176024820152761bdb9b1e53dddb995c8e88155b985d5d1a1bdc9a5e9959604a1b604482015290519081900360640190fd5b6104e6816105e2565b600180546001600160a01b0383166001600160a01b0319909116811790915560408051918252517f50146d0e3c60aa1d17a70635b05494f864e86144a2201275021014fbf08bafe29181900360200190a150565b600280546001600160a01b0383166001600160a01b0319909116811790915560408051918252517f5a39b8d3fd7361f3c5173afba233b7f1530567d03f9dfb0a2ca414960f08541d9181900360200190a150565b600080546001600160a01b0319166001600160a01b038316908117825560405190917f132c19de901bb4ed8403c34734b6c841d5dc57745824da452a52433519ea5abf91a25056fea164736f6c634300060c000a",
    "linkReferences": {}
  },
  "methodIdentifiers": {
    "claimOwnership()": "4e71e0c8",
    "getLastUpdated()": "78121dd4",
    "getNominatedOwner()": "288b6a36",
    "getOwner()": "893d20e8",
    "getUpdater()": "99d54d39",
    "getValue()": "20965255",
    "getValueWithTimestamp()": "4def9855",
    "init(address,address,bytes32)": "347258aa",
    "setNominatedOwner(address)": "728e17a0",
    "setUpdater(address)": "9d54f419",
    "updateValue(int192)": "2cd56672"
  },
  "id": 18
}