{
  "abi": [
    {
      "inputs": [
        {
          "internalType": "address",
          "name": "_dispacher",
          "type": "address"
        }
      ],
      "stateMutability": "nonpayable",
      "type": "constructor"
    },
    {
      "anonymous": false,
      "inputs": [],
      "name": "MigrationAllowed",
      "type": "event"
    },
    {
      "anonymous": false,
      "inputs": [
        {
          "indexed": false,
          "internalType": "address",
          "name": "poolTokenV1",
          "type": "address"
        },
        {
          "indexed": false,
          "internalType": "address",
          "name": "poolTokenV2",
          "type": "address"
        }
      ],
      "name": "PoolMapped",
      "type": "event"
    },
    {
      "anonymous": false,
      "inputs": [],
      "name": "SnapshotsFrozen",
      "type": "event"
    },
    {
      "inputs": [],
      "name": "allowMigration",
      "outputs": [],
      "stateMutability": "nonpayable",
      "type": "function"
    },
    {
      "inputs": [],
      "name": "freezeSnapshots",
      "outputs": [],
      "stateMutability": "nonpayable",
      "type": "function"
    },
    {
      "inputs": [
        {
          "internalType": "address",
          "name": "_poolTokenV1",
          "type": "address"
        }
      ],
      "name": "getPoolTokenV2FromPoolTokenV1",
      "outputs": [
        {
          "internalType": "address",
          "name": "poolTokenV2_",
          "type": "address"
        }
      ],
      "stateMutability": "view",
      "type": "function"
    },
    {
      "inputs": [
        {
          "internalType": "address[]",
          "name": "_poolTokensV1",
          "type": "address[]"
        },
        {
          "internalType": "address[]",
          "name": "_poolTokensV2",
          "type": "address[]"
        }
      ],
      "name": "mapPools",
      "outputs": [],
      "stateMutability": "nonpayable",
      "type": "function"
    },
    {
      "inputs": [
        {
          "internalType": "address[]",
          "name": "_proxies",
          "type": "address[]"
        }
      ],
      "name": "migrateExternalPositions",
      "outputs": [],
      "stateMutability": "nonpayable",
      "type": "function"
    },
    {
      "inputs": [],
      "name": "migrationIsAllowed",
      "outputs": [
        {
          "internalType": "bool",
          "name": "allowed_",
          "type": "bool"
        }
      ],
      "stateMutability": "view",
      "type": "function"
    },
    {
      "inputs": [
        {
          "internalType": "address[]",
          "name": "_proxies",
          "type": "address[]"
        }
      ],
      "name": "snapshotExternalPositions",
      "outputs": [],
      "stateMutability": "nonpayable",
      "type": "function"
    },
    {
      "inputs": [],
      "name": "snapshotsAreAllowed",
      "outputs": [
        {
          "internalType": "bool",
          "name": "allowed_",
          "type": "bool"
        }
      ],
      "stateMutability": "view",
      "type": "function"
    }
  ],
  "bytecode": {
    "object": "0x60a060405234801561001057600080fd5b5060405161082f38038061082f8339818101604052602081101561003357600080fd5b50516001600160601b031960609190911b166080526000805461ff001960ff199091166001171661010017905560805160601c6107a8610087600039806102a152806103bd52806105d152506107a86000f3fe608060405234801561001057600080fd5b50600436106100885760003560e01c806366e973391161005b57806366e97339146102055780638580eb5b1461020d5780639cf7922f14610229578063f0da6da01461023157610088565b806335d690591461008d57806337dd81961461009757806350b6af1a146100d95780635456b04814610197575b600080fd5b61009561029f565b005b6100bd600480360360208110156100ad57600080fd5b50356001600160a01b031661039d565b604080516001600160a01b039092168252519081900360200190f35b610095600480360360408110156100ef57600080fd5b810190602081018135600160201b81111561010957600080fd5b82018360208201111561011b57600080fd5b803590602001918460208302840111600160201b8311171561013c57600080fd5b919390929091602081019035600160201b81111561015957600080fd5b82018360208201111561016b57600080fd5b803590602001918460208302840111600160201b8311171561018c57600080fd5b5090925090506103bb565b610095600480360360208110156101ad57600080fd5b810190602081018135600160201b8111156101c757600080fd5b8201836020820111156101d957600080fd5b803590602001918460208302840111600160201b831117156101fa57600080fd5b509092509050610545565b6100956105cf565b6102156106ce565b604080519115158252519081900360200190f35b6102156106dc565b6100956004803603602081101561024757600080fd5b810190602081018135600160201b81111561026157600080fd5b82018360208201111561027357600080fd5b803590602001918460208302840111600160201b8311171561029457600080fd5b5090925090506106e6565b7f00000000000000000000000000000000000000000000000000000000000000006001600160a01b031663893d20e86040518163ffffffff1660e01b815260040160206040518083038186803b1580156102f857600080fd5b505afa15801561030c573d6000803e3d6000fd5b505050506040513d602081101561032257600080fd5b50516001600160a01b0316331461036a5760405162461bcd60e51b815260040180806020018281038252603081526020018061076c6030913960400191505060405180910390fd5b6000805460ff191681556040517f5bdd44d9f5f422abde8aaa5dd85f080c02b9d9fb852d2a06588bf7d773b350919190a1565b6001600160a01b039081166000908152600160205260409020541690565b7f00000000000000000000000000000000000000000000000000000000000000006001600160a01b031663893d20e86040518163ffffffff1660e01b815260040160206040518083038186803b15801561041457600080fd5b505afa158015610428573d6000803e3d6000fd5b505050506040513d602081101561043e57600080fd5b50516001600160a01b031633146104865760405162461bcd60e51b815260040180806020018281038252603081526020018061076c6030913960400191505060405180910390fd5b60005b8381101561053e57600085858381811061049f57fe5b905060200201356001600160a01b0316905060008484848181106104bf57fe5b6001600160a01b0385811660008181526001602090815260409182902080546001600160a01b031916958202979097013593909316938417909555845190815290810182905283519194507f6b1b985cb1b93b43234af26626ce9f43bbaad37c2c3f1df61a7686bb872648db9390829003019150a15050600101610489565b5050505050565b60005b818110156105ca5782828281811061055c57fe5b905060200201356001600160a01b03166001600160a01b0316637f15233f6040518163ffffffff1660e01b8152600401600060405180830381600087803b1580156105a657600080fd5b505af11580156105ba573d6000803e3d6000fd5b5050600190920191506105489050565b505050565b7f00000000000000000000000000000000000000000000000000000000000000006001600160a01b031663893d20e86040518163ffffffff1660e01b815260040160206040518083038186803b15801561062857600080fd5b505afa15801561063c573d6000803e3d6000fd5b505050506040513d602081101561065257600080fd5b50516001600160a01b0316331461069a5760405162461bcd60e51b815260040180806020018281038252603081526020018061076c6030913960400191505060405180910390fd5b6000805461ff00191681556040517ff5e3ae19c07f26be0de6a5962096aed0b7c2a2d4d5634032b4a862da9f943f0c9190a1565b600054610100900460ff1690565b60005460ff161590565b60005b818110156105ca578282828181106106fd57fe5b905060200201356001600160a01b03166001600160a01b0316632d13e0516040518163ffffffff1660e01b8152600401600060405180830381600087803b15801561074757600080fd5b505af115801561075b573d6000803e3d6000fd5b5050600190920191506106e9905056fe4f6e6c79207468652044697370617463686572206f776e65722063616e2063616c6c20746869732066756e6374696f6ea164736f6c634300060c000a",
    "linkReferences": {}
  },
  "methodIdentifiers": {
    "allowMigration()": "35d69059",
    "freezeSnapshots()": "66e97339",
    "getPoolTokenV2FromPoolTokenV1(address)": "37dd8196",
    "mapPools(address[],address[])": "50b6af1a",
    "migrateExternalPositions(address[])": "f0da6da0",
    "migrationIsAllowed()": "9cf7922f",
    "snapshotExternalPositions(address[])": "5456b048",
    "snapshotsAreAllowed()": "8580eb5b"
  },
  "id": 33
}