{
  "abi": [
    {
      "inputs": [
        {
          "internalType": "address",
          "name": "_mapleV2Globals",
          "type": "address"
        },
        {
          "internalType": "address",
          "name": "_mapleV1MplRewardsFactory",
          "type": "address"
        }
      ],
      "stateMutability": "nonpayable",
      "type": "constructor"
    },
    {
      "inputs": [
        {
          "internalType": "address",
          "name": "",
          "type": "address"
        },
        {
          "internalType": "uint256",
          "name": "_actionId",
          "type": "uint256"
        },
        {
          "internalType": "bytes",
          "name": "_encodedActionArgs",
          "type": "bytes"
        }
      ],
      "name": "parseAssetsForAction",
      "outputs": [
        {
          "internalType": "address[]",
          "name": "assetsToTransfer_",
          "type": "address[]"
        },
        {
          "internalType": "uint256[]",
          "name": "amountsToTransfer_",
          "type": "uint256[]"
        },
        {
          "internalType": "address[]",
          "name": "assetsToReceive_",
          "type": "address[]"
        }
      ],
      "stateMutability": "nonpayable",
      "type": "function"
    },
    {
      "inputs": [
        {
          "internalType": "address",
          "name": "",
          "type": "address"
        },
        {
          "internalType": "bytes",
          "name": "",
          "type": "bytes"
        }
      ],
      "name": "parseInitArgs",
      "outputs": [
        {
          "internalType": "bytes",
          "name": "initArgs_",
          "type": "bytes"
        }
      ],
      "stateMutability": "nonpayable",
      "type": "function"
    }
  ],
  "bytecode": {
    "object": "0x60c060405234801561001057600080fd5b50604051610b00380380610b008339818101604052604081101561003357600080fd5b5080516020909101516001600160601b0319606091821b811660805291901b1660a05260805160601c60a05160601c610a8161007f600039806107d05250806108df5250610a816000f3fe608060405234801561001057600080fd5b50600436106100365760003560e01c8063bbd2d6461461003b578063db16c72e146101d4575b600080fd5b6100f66004803603606081101561005157600080fd5b6001600160a01b038235169160208101359181019060608101604082013564010000000081111561008157600080fd5b82018360208201111561009357600080fd5b803590602001918460018302840111640100000000831117156100b557600080fd5b91908080601f0160208091040260200160405190810160405280939291908181526020018383808284376000920191909152509295506102ff945050505050565b60405180806020018060200180602001848103845287818151815260200191508051906020019060200280838360005b8381101561013e578181015183820152602001610126565b50505050905001848103835286818151815260200191508051906020019060200280838360005b8381101561017d578181015183820152602001610165565b50505050905001848103825285818151815260200191508051906020019060200280838360005b838110156101bc5781810151838201526020016101a4565b50505050905001965050505050505060405180910390f35b61028a600480360360408110156101ea57600080fd5b6001600160a01b03823516919081019060408101602082013564010000000081111561021557600080fd5b82018360208201111561022757600080fd5b8035906020019184600183028401116401000000008311171561024957600080fd5b91908080601f016020809104026020016040519081016040528093929190818152602001838380828437600092019190915250929550610554945050505050565b6040805160208082528351818301528351919283929083019185019080838360005b838110156102c45781810151838201526020016102ac565b50505050905090810190601f1680156102f15780820380516001836020036101000a031916815260200191505b509250505060405180910390f35b6060808060098514156104185760008061031886610568565b9150915061032582610593565b60408051600180825281830190925290602080830190803683375050604080516001808252818301909252929750905060208083019080368337019050509350816001600160a01b03166338d52e0f6040518163ffffffff1660e01b815260040160206040518083038186803b15801561039e57600080fd5b505afa1580156103b2573d6000803e3d6000fd5b505050506040513d60208110156103c857600080fd5b5051855186906000906103d757fe5b60200260200101906001600160a01b031690816001600160a01b031681525050808460008151811061040557fe5b602002602001018181525050505061054b565b600a85141561043e57600061042c85610568565b50905061043881610593565b5061054b565b600b85141561051657600061045285610568565b50905061045e81610593565b6040805160018082528183019092529060208083019080368337019050509150806001600160a01b03166338d52e0f6040518163ffffffff1660e01b815260040160206040518083038186803b1580156104b757600080fd5b505afa1580156104cb573d6000803e3d6000fd5b505050506040513d60208110156104e157600080fd5b5051825183906000906104f057fe5b60200260200101906001600160a01b031690816001600160a01b0316815250505061054b565b600c85141561052a57600061042c85610568565b600885141561054b57600061053e856108be565b9050610549816108dd565b505b93509350939050565b505060408051602081019091526000815290565b60008082806020019051604081101561058057600080fd5b5080516020909101519092509050915091565b6000816001600160a01b031663481c6a756040518163ffffffff1660e01b815260040160206040518083038186803b1580156105ce57600080fd5b505afa1580156105e2573d6000803e3d6000fd5b505050506040513d60208110156105f857600080fd5b5051604080516316f0115b60e01b815290519192506001600160a01b0380851692908416916316f0115b916004808301926020929190829003018186803b15801561064257600080fd5b505afa158015610656573d6000803e3d6000fd5b505050506040513d602081101561066c57600080fd5b50516001600160a01b0316146106b35760405162461bcd60e51b815260040180806020018281038252602e8152602001806109e8602e913960400191505060405180910390fd5b6000816001600160a01b031663c45a01556040518163ffffffff1660e01b815260040160206040518083038186803b1580156106ee57600080fd5b505afa158015610702573d6000803e3d6000fd5b505050506040513d602081101561071857600080fd5b5051604080516335a2735f60e11b81526001600160a01b038581166004830152915192935090831691636b44e6be91602480820192602092909190829003018186803b15801561076757600080fd5b505afa15801561077b573d6000803e3d6000fd5b505050506040513d602081101561079157600080fd5b50516107ce5760405162461bcd60e51b8152600401808060200182810382526035815260200180610a406035913960400191505060405180910390fd5b7f00000000000000000000000000000000000000000000000000000000000000006001600160a01b0316636167f931826040518263ffffffff1660e01b815260040180806b2827a7a62fa6a0a720a3a2a960a11b815250602001826001600160a01b0316815260200191505060206040518083038186803b15801561085257600080fd5b505afa158015610866573d6000803e3d6000fd5b505050506040513d602081101561087c57600080fd5b50516108b95760405162461bcd60e51b815260040180806020018281038252602a815260200180610a16602a913960400191505060405180910390fd5b505050565b60008180602001905160208110156108d557600080fd5b505192915050565b7f00000000000000000000000000000000000000000000000000000000000000006001600160a01b031663e291968e826040518263ffffffff1660e01b815260040180826001600160a01b0316815260200191505060206040518083038186803b15801561094a57600080fd5b505afa15801561095e573d6000803e3d6000fd5b505050506040513d602081101561097457600080fd5b50516109b15760405162461bcd60e51b81526004018080602001828103825260338152602001806109b56033913960400191505060405180910390fd5b5056fe5f5f76616c696461746552657761726473436f6e74726163743a20496e76616c6964207265776172647320636f6e74726163745f5f76616c6964617465506f6f6c56323a20496e76616c696420506f6f6c4d616e616765722072656c6174696f6e5f5f76616c6964617465506f6f6c56323a20496e76616c696420476c6f62616c732072656c6174696f6e5f5f76616c6964617465506f6f6c56323a20496e76616c696420506f6f6c4d616e61676572466163746f72792072656c6174696f6ea164736f6c634300060c000a",
    "linkReferences": {}
  },
  "methodIdentifiers": {
    "parseAssetsForAction(address,uint256,bytes)": "bbd2d646",
    "parseInitArgs(address,bytes)": "db16c72e"
  },
  "id": 117
}