{
  "abi": [
    {
      "inputs": [
        {
          "internalType": "address",
          "name": "_policyManager",
          "type": "address"
        }
      ],
      "stateMutability": "nonpayable",
      "type": "constructor"
    },
    {
      "anonymous": false,
      "inputs": [
        {
          "indexed": true,
          "internalType": "address",
          "name": "comptrollerProxy",
          "type": "address"
        },
        {
          "indexed": true,
          "internalType": "address",
          "name": "asset",
          "type": "address"
        },
        {
          "indexed": false,
          "internalType": "uint256",
          "name": "minBalance",
          "type": "uint256"
        }
      ],
      "name": "MinAssetBalanceAddedForFund",
      "type": "event"
    },
    {
      "inputs": [
        {
          "internalType": "address",
          "name": "",
          "type": "address"
        }
      ],
      "name": "activateForFund",
      "outputs": [],
      "stateMutability": "nonpayable",
      "type": "function"
    },
    {
      "inputs": [
        {
          "internalType": "address",
          "name": "_comptrollerProxy",
          "type": "address"
        },
        {
          "internalType": "bytes",
          "name": "_encodedSettings",
          "type": "bytes"
        }
      ],
      "name": "addFundSettings",
      "outputs": [],
      "stateMutability": "nonpayable",
      "type": "function"
    },
    {
      "inputs": [],
      "name": "canDisable",
      "outputs": [
        {
          "internalType": "bool",
          "name": "canDisable_",
          "type": "bool"
        }
      ],
      "stateMutability": "pure",
      "type": "function"
    },
    {
      "inputs": [
        {
          "internalType": "address",
          "name": "_comptrollerProxy",
          "type": "address"
        },
        {
          "internalType": "address",
          "name": "_asset",
          "type": "address"
        }
      ],
      "name": "getMinAssetBalanceForFund",
      "outputs": [
        {
          "internalType": "uint256",
          "name": "minBalance_",
          "type": "uint256"
        }
      ],
      "stateMutability": "view",
      "type": "function"
    },
    {
      "inputs": [],
      "name": "getPolicyManager",
      "outputs": [
        {
          "internalType": "address",
          "name": "policyManager_",
          "type": "address"
        }
      ],
      "stateMutability": "view",
      "type": "function"
    },
    {
      "inputs": [],
      "name": "identifier",
      "outputs": [
        {
          "internalType": "string",
          "name": "identifier_",
          "type": "string"
        }
      ],
      "stateMutability": "pure",
      "type": "function"
    },
    {
      "inputs": [],
      "name": "implementedHooks",
      "outputs": [
        {
          "internalType": "enum IPolicyManager.PolicyHook[]",
          "name": "implementedHooks_",
          "type": "uint8[]"
        }
      ],
      "stateMutability": "pure",
      "type": "function"
    },
    {
      "inputs": [
        {
          "internalType": "address",
          "name": "",
          "type": "address"
        },
        {
          "internalType": "bytes",
          "name": "",
          "type": "bytes"
        }
      ],
      "name": "updateFundSettings",
      "outputs": [],
      "stateMutability": "nonpayable",
      "type": "function"
    },
    {
      "inputs": [
        {
          "internalType": "address",
          "name": "_comptrollerProxy",
          "type": "address"
        },
        {
          "internalType": "enum IPolicyManager.PolicyHook",
          "name": "",
          "type": "uint8"
        },
        {
          "internalType": "bytes",
          "name": "_encodedArgs",
          "type": "bytes"
        }
      ],
      "name": "validateRule",
      "outputs": [
        {
          "internalType": "bool",
          "name": "isValid_",
          "type": "bool"
        }
      ],
      "stateMutability": "nonpayable",
      "type": "function"
    }
  ],
  "bytecode": {
    "object": "0x60a060405234801561001057600080fd5b50604051610b73380380610b738339818101604052602081101561003357600080fd5b5051606081901b6001600160601b0319166080526001600160a01b0316610b0761006c600039806103d952806108d35250610b076000f3fe608060405234801561001057600080fd5b50600436106100935760003560e01c8063579be71811610066578063579be718146101f25780637998a1c414610278578063cbf54bb2146102f5578063ceb9a0ad1461034d578063d44ad6cb1461037357610093565b80630d4d7510146100985780630f5f6b4f146101185780631d19746d146101965780631ef92578146101d6575b600080fd5b610116600480360360408110156100ae57600080fd5b6001600160a01b038235169190810190604081016020820135600160201b8111156100d857600080fd5b8201836020820111156100ea57600080fd5b803590602001918460018302840111600160201b8311171561010b57600080fd5b509092509050610397565b005b6101166004803603604081101561012e57600080fd5b6001600160a01b038235169190810190604081016020820135600160201b81111561015857600080fd5b82018360208201111561016a57600080fd5b803590602001918460018302840111600160201b8311171561018b57600080fd5b5090925090506103ce565b6101c4600480360360408110156101ac57600080fd5b506001600160a01b0381358116916020013516610697565b60408051918252519081900360200190f35b6101de6106c0565b604080519115158252519081900360200190f35b6101de6004803603606081101561020857600080fd5b6001600160a01b038235169160ff60208201351691810190606081016040820135600160201b81111561023a57600080fd5b82018360208201111561024c57600080fd5b803590602001918460018302840111600160201b8311171561026d57600080fd5b5090925090506106c5565b610280610857565b6040805160208082528351818301528351919283929083019185019080838360005b838110156102ba5781810151838201526020016102a2565b50505050905090810190601f1680156102e75780820380516001836020036101000a031916815260200191505b509250505060405180910390f35b6102fd610877565b60408051602080825283518183015283519192839290830191858101910280838360005b83811015610339578181015183820152602001610321565b505050509050019250505060405180910390f35b6101166004803603602081101561036357600080fd5b50356001600160a01b03166108ce565b61037b6108d1565b604080516001600160a01b039092168252519081900360200190f35b60405162461bcd60e51b8152600401808060200182810382526037815260200180610a796037913960400191505060405180910390fd5b336001600160a01b037f000000000000000000000000000000000000000000000000000000000000000016146104355760405162461bcd60e51b8152600401808060200182810382526029815260200180610ab06029913960400191505060405180910390fd5b6060808383604081101561044857600080fd5b810190602081018135600160201b81111561046257600080fd5b82018360208201111561047457600080fd5b803590602001918460208302840111600160201b8311171561049557600080fd5b9190808060200260200160405190810160405280939291908181526020018383602002808284376000920191909152509295949360208101935035915050600160201b8111156104e457600080fd5b8201836020820111156104f657600080fd5b803590602001918460208302840111600160201b8311171561051757600080fd5b919080806020026020016040519081016040528093929190818152602001838360200280828437600092019190915250508251875197995092975050509390931492506105989150505760405162461bcd60e51b8152600401808060200182810382526026815260200180610a536026913960400191505060405180910390fd5b60005b825181101561068f578181815181106105b057fe5b6020026020010151600080886001600160a01b03166001600160a01b0316815260200190815260200160002060008584815181106105ea57fe5b60200260200101516001600160a01b03166001600160a01b031681526020019081526020016000208190555082818151811061062257fe5b60200260200101516001600160a01b0316866001600160a01b03167fc337422678383b44aa667a4975f03ece744c19b20a4badde9dc5c355125b6ab784848151811061066a57fe5b60200260200101516040518082815260200191505060405180910390a360010161059b565b505050505050565b6001600160a01b0391821660009081526020818152604080832093909416825291909152205490565b600190565b6000606061070884848080601f0160208091040260200160405190810160405280939291908181526020018383808284376000920191909152506108f592505050565b505093505050506000866001600160a01b031663c98091876040518163ffffffff1660e01b815260040160206040518083038186803b15801561074a57600080fd5b505afa15801561075e573d6000803e3d6000fd5b505050506040513d602081101561077457600080fd5b5051905060005b8251811015610847576107a18884838151811061079457fe5b6020026020010151610697565b8382815181106107ad57fe5b60200260200101516001600160a01b03166370a08231846040518263ffffffff1660e01b815260040180826001600160a01b0316815260200191505060206040518083038186803b15801561080157600080fd5b505afa158015610815573d6000803e3d6000fd5b505050506040513d602081101561082b57600080fd5b5051101561083f576000935050505061084f565b60010161077b565b506001925050505b949350505050565b6060604051806060016040528060228152602001610ad960229139905090565b604080516001808252818301909252606091602080830190803683370190505090506003816000815181106108a857fe5b602002602001019060098111156108bb57fe5b908160098111156108c857fe5b90525090565b50565b7f000000000000000000000000000000000000000000000000000000000000000090565b600080600060608060008680602001905160c081101561091457600080fd5b815160208301516040808501516060860180519251949693959194939182019284600160201b82111561094657600080fd5b90830190602082018581111561095b57600080fd5b82518660208202830111600160201b8211171561097757600080fd5b82525081516020918201928201910280838360005b838110156109a457818101518382015260200161098c565b5050505090500160405260200180516040519392919084600160201b8211156109cc57600080fd5b9083019060208201858111156109e157600080fd5b82518660208202830111600160201b821117156109fd57600080fd5b82525081516020918201928201910280838360005b83811015610a2a578181015183820152602001610a12565b50505050919091016040525060200151969e959d50939b50919950975092955090935050505056fe61646446756e6453657474696e67733a20556e657175616c206172726179206c656e6774687375706461746546756e6453657474696e67733a2055706461746573206e6f7420616c6c6f77656420666f72207468697320706f6c6963794f6e6c792074686520506f6c6963794d616e616765722063616e206d616b6520746869732063616c6c4d494e5f41535345545f42414c414e4345535f504f53545f524544454d5054494f4ea164736f6c634300060c000a",
    "linkReferences": {}
  },
  "methodIdentifiers": {
    "activateForFund(address)": "ceb9a0ad",
    "addFundSettings(address,bytes)": "0f5f6b4f",
    "canDisable()": "1ef92578",
    "getMinAssetBalanceForFund(address,address)": "1d19746d",
    "getPolicyManager()": "d44ad6cb",
    "identifier()": "7998a1c4",
    "implementedHooks()": "cbf54bb2",
    "updateFundSettings(address,bytes)": "0d4d7510",
    "validateRule(address,uint8,bytes)": "579be718"
  },
  "id": 216
}