{
  "abi": [
    {
      "inputs": [
        {
          "internalType": "address",
          "name": "_integratee",
          "type": "address"
        }
      ],
      "stateMutability": "nonpayable",
      "type": "constructor"
    },
    {
      "inputs": [],
      "name": "CLAIM_REWARDS_SELECTOR",
      "outputs": [
        {
          "internalType": "bytes4",
          "name": "",
          "type": "bytes4"
        }
      ],
      "stateMutability": "view",
      "type": "function"
    },
    {
      "inputs": [],
      "name": "INTEGRATEE",
      "outputs": [
        {
          "internalType": "address",
          "name": "",
          "type": "address"
        }
      ],
      "stateMutability": "view",
      "type": "function"
    },
    {
      "inputs": [],
      "name": "LEND_AND_STAKE_SELECTOR",
      "outputs": [
        {
          "internalType": "bytes4",
          "name": "",
          "type": "bytes4"
        }
      ],
      "stateMutability": "view",
      "type": "function"
    },
    {
      "inputs": [],
      "name": "LEND_SELECTOR",
      "outputs": [
        {
          "internalType": "bytes4",
          "name": "",
          "type": "bytes4"
        }
      ],
      "stateMutability": "view",
      "type": "function"
    },
    {
      "inputs": [],
      "name": "REDEEM_SELECTOR",
      "outputs": [
        {
          "internalType": "bytes4",
          "name": "",
          "type": "bytes4"
        }
      ],
      "stateMutability": "view",
      "type": "function"
    },
    {
      "inputs": [],
      "name": "STAKE_SELECTOR",
      "outputs": [
        {
          "internalType": "bytes4",
          "name": "",
          "type": "bytes4"
        }
      ],
      "stateMutability": "view",
      "type": "function"
    },
    {
      "inputs": [],
      "name": "TAKE_MULTIPLE_ORDERS_SELECTOR",
      "outputs": [
        {
          "internalType": "bytes4",
          "name": "",
          "type": "bytes4"
        }
      ],
      "stateMutability": "view",
      "type": "function"
    },
    {
      "inputs": [],
      "name": "TAKE_ORDER_SELECTOR",
      "outputs": [
        {
          "internalType": "bytes4",
          "name": "",
          "type": "bytes4"
        }
      ],
      "stateMutability": "view",
      "type": "function"
    },
    {
      "inputs": [],
      "name": "UNSTAKE_AND_REDEEM_SELECTOR",
      "outputs": [
        {
          "internalType": "bytes4",
          "name": "",
          "type": "bytes4"
        }
      ],
      "stateMutability": "view",
      "type": "function"
    },
    {
      "inputs": [],
      "name": "UNSTAKE_SELECTOR",
      "outputs": [
        {
          "internalType": "bytes4",
          "name": "",
          "type": "bytes4"
        }
      ],
      "stateMutability": "view",
      "type": "function"
    },
    {
      "inputs": [],
      "name": "getIntegrationManager",
      "outputs": [
        {
          "internalType": "address",
          "name": "integrationManager_",
          "type": "address"
        }
      ],
      "stateMutability": "view",
      "type": "function"
    },
    {
      "inputs": [
        {
          "internalType": "address",
          "name": "",
          "type": "address"
        },
        {
          "internalType": "bytes4",
          "name": "_selector",
          "type": "bytes4"
        },
        {
          "internalType": "bytes",
          "name": "_callArgs",
          "type": "bytes"
        }
      ],
      "name": "parseAssetsForAction",
      "outputs": [
        {
          "internalType": "enum IIntegrationManager.SpendAssetsHandleType",
          "name": "spendAssetsHandleType_",
          "type": "uint8"
        },
        {
          "internalType": "address[]",
          "name": "spendAssets_",
          "type": "address[]"
        },
        {
          "internalType": "uint256[]",
          "name": "maxSpendAssetAmounts_",
          "type": "uint256[]"
        },
        {
          "internalType": "address[]",
          "name": "incomingAssets_",
          "type": "address[]"
        },
        {
          "internalType": "uint256[]",
          "name": "minIncomingAssetAmounts_",
          "type": "uint256[]"
        }
      ],
      "stateMutability": "view",
      "type": "function"
    },
    {
      "inputs": [
        {
          "internalType": "address",
          "name": "",
          "type": "address"
        },
        {
          "internalType": "bytes",
          "name": "",
          "type": "bytes"
        },
        {
          "internalType": "bytes",
          "name": "",
          "type": "bytes"
        }
      ],
      "name": "removeOnly",
      "outputs": [],
      "stateMutability": "nonpayable",
      "type": "function"
    },
    {
      "inputs": [
        {
          "internalType": "address",
          "name": "_vaultProxy",
          "type": "address"
        },
        {
          "internalType": "bytes",
          "name": "_callArgs",
          "type": "bytes"
        },
        {
          "internalType": "bytes",
          "name": "_assetTransferArgs",
          "type": "bytes"
        }
      ],
      "name": "swapA",
      "outputs": [],
      "stateMutability": "nonpayable",
      "type": "function"
    },
    {
      "inputs": [
        {
          "internalType": "address",
          "name": "_vaultProxy",
          "type": "address"
        },
        {
          "internalType": "bytes",
          "name": "_callArgs",
          "type": "bytes"
        },
        {
          "internalType": "bytes",
          "name": "_assetTransferArgs",
          "type": "bytes"
        }
      ],
      "name": "swapB",
      "outputs": [],
      "stateMutability": "nonpayable",
      "type": "function"
    },
    {
      "inputs": [
        {
          "internalType": "address",
          "name": "_vaultProxy",
          "type": "address"
        },
        {
          "internalType": "bytes",
          "name": "_callArgs",
          "type": "bytes"
        },
        {
          "internalType": "bytes",
          "name": "",
          "type": "bytes"
        }
      ],
      "name": "swapDirectFromVault",
      "outputs": [],
      "stateMutability": "nonpayable",
      "type": "function"
    },
    {
      "inputs": [
        {
          "internalType": "address",
          "name": "_vaultProxy",
          "type": "address"
        },
        {
          "internalType": "bytes",
          "name": "_callArgs",
          "type": "bytes"
        },
        {
          "internalType": "bytes",
          "name": "_assetTransferArgs",
          "type": "bytes"
        }
      ],
      "name": "swapViaApproval",
      "outputs": [],
      "stateMutability": "nonpayable",
      "type": "function"
    }
  ],
  "bytecode": {
    "object": "0x60c060405234801561001057600080fd5b50604051611ca5380380611ca58339818101604052602081101561003357600080fd5b505160006080819052606082901b6001600160601b03191660a052906001600160a01b0316611c226100838339806107bc5280610b6b52806113fd5280611467525080610d185250611c226000f3fe608060405234801561001057600080fd5b506004361061010b5760003560e01c8063740f2852116100a2578063c54efee511610071578063c54efee5146103fd578063cadd965d146105bf578063e7c456901461068d578063f7d882b514610695578063fb5051071461069d5761010b565b8063740f2852146103c1578063863e5ad0146103e5578063b23228cf146103ed578063c32990a2146103f55761010b565b8063360bbf05116100de578063360bbf05146102155780633ffc1591146102e357806340da225d146102eb57806362231430146102f35761010b565b80630377b2d014610110578063080456c1146101e0578063131461c014610205578063257cb1a31461020d575b600080fd5b6101de6004803603606081101561012657600080fd5b6001600160a01b038235169190810190604081016020820135600160201b81111561015057600080fd5b82018360208201111561016257600080fd5b803590602001918460018302840111600160201b8311171561018357600080fd5b919390929091602081019035600160201b8111156101a057600080fd5b8201836020820111156101b257600080fd5b803590602001918460018302840111600160201b831117156101d357600080fd5b50909250905061076b565b005b6101e8610964565b604080516001600160e01b03199092168252519081900360200190f35b6101e8610988565b6101e86109ac565b6101de6004803603606081101561022b57600080fd5b6001600160a01b038235169190810190604081016020820135600160201b81111561025557600080fd5b82018360208201111561026757600080fd5b803590602001918460018302840111600160201b8311171561028857600080fd5b919390929091602081019035600160201b8111156102a557600080fd5b8201836020820111156102b757600080fd5b803590602001918460018302840111600160201b831117156102d857600080fd5b5090925090506109d0565b6101e86109d7565b6101e86109fb565b6101de6004803603606081101561030957600080fd5b6001600160a01b038235169190810190604081016020820135600160201b81111561033357600080fd5b82018360208201111561034557600080fd5b803590602001918460018302840111600160201b8311171561036657600080fd5b919390929091602081019035600160201b81111561038357600080fd5b82018360208201111561039557600080fd5b803590602001918460018302840111600160201b831117156103b657600080fd5b509092509050610a1f565b6103c9610b69565b604080516001600160a01b039092168252519081900360200190f35b6101e8610b8d565b6101e8610bb1565b6101e8610bd5565b61048a6004803603606081101561041357600080fd5b6001600160a01b03823516916001600160e01b031960208201351691810190606081016040820135600160201b81111561044c57600080fd5b82018360208201111561045e57600080fd5b803590602001918460018302840111600160201b8311171561047f57600080fd5b509092509050610bf9565b6040518086600281111561049a57fe5b815260200180602001806020018060200180602001858103855289818151815260200191508051906020019060200280838360005b838110156104e75781810151838201526020016104cf565b50505050905001858103845288818151815260200191508051906020019060200280838360005b8381101561052657818101518382015260200161050e565b50505050905001858103835287818151815260200191508051906020019060200280838360005b8381101561056557818101518382015260200161054d565b50505050905001858103825286818151815260200191508051906020019060200280838360005b838110156105a457818101518382015260200161058c565b50505050905001995050505050505050505060405180910390f35b6101de600480360360608110156105d557600080fd5b6001600160a01b038235169190810190604081016020820135600160201b8111156105ff57600080fd5b82018360208201111561061157600080fd5b803590602001918460018302840111600160201b8311171561063257600080fd5b919390929091602081019035600160201b81111561064f57600080fd5b82018360208201111561066157600080fd5b803590602001918460018302840111600160201b8311171561068257600080fd5b509092509050610c65565b6103c9610d16565b6101e8610d3a565b6101de600480360360608110156106b357600080fd5b6001600160a01b038235169190810190604081016020820135600160201b8111156106dd57600080fd5b8201836020820111156106ef57600080fd5b803590602001918460018302840111600160201b8311171561071057600080fd5b919390929091602081019035600160201b81111561072d57600080fd5b82018360208201111561073f57600080fd5b803590602001918460018302840111600160201b8311171561076057600080fd5b509092509050610d5e565b6060806060806107b088888080601f016020809104026020016040519081016040528093929190818152602001838380828437600092019190915250610e0f92505050565b955050945094505093507f00000000000000000000000000000000000000000000000000000000000000006001600160a01b03166335671b2f8a868686866040518663ffffffff1660e01b815260040180866001600160a01b0316815260200180602001806020018060200180602001858103855289818151815260200191508051906020019060200280838360005b83811015610858578181015183820152602001610840565b50505050905001858103845288818151815260200191508051906020019060200280838360005b8381101561089757818101518382015260200161087f565b50505050905001858103835287818151815260200191508051906020019060200280838360005b838110156108d65781810151838201526020016108be565b50505050905001858103825286818151815260200191508051906020019060200280838360005b838110156109155781810151838201526020016108fd565b505050509050019950505050505050505050600060405180830381600087803b15801561094157600080fd5b505af1158015610955573d6000803e3d6000fd5b50505050505050505050505050565b7f8334eb99be0145865eba9889fca2ee920288090caefff4cc776038e20ad9259a81565b7f29fa046e79524c3c5ac4c01df692c35e217802b2b13b21121b76cf0ef02b138c81565b7f099f75155f0e997bf83a7993a71d5e7e7540bd386fe1e84643a09ce6b412521981565b5050505050565b7ffa7dd04da627f433da73c4355ead9c75682a67a8fc84d3f6170ef0922f402d2481565b7fb9dfbaccbe5cd2a84fdcf1d15f23ef25d23086f5afbaa99516065ed4a5bbc7a381565b8482828080601f016020809104026020016040519081016040528093929190818152602001838380828437600092019190915250610a8292507f62231430458bd051b4b08f5320d5d1d44938c14a62d90c95311a2e227f85c7b4915061116a9050565b6060806060610a90856111b6565b919450925090506001846002811115610aa557fe5b1415610b075760005b8351811015610b0557610afd8730858481518110610ac857fe5b6020026020010151878581518110610adc57fe5b60200260200101516001600160a01b0316611373909392919063ffffffff16565b600101610aae565b505b610b468a8a8080601f0160208091040260200160405190810160405280939291908181526020018383808284376000920191909152506113d392505050565b610b5086826115fa565b50610b5b86846115fa565b505050505050505050505050565b7f000000000000000000000000000000000000000000000000000000000000000081565b7f03e38a2bd7063d45c897edeafc330e71657502dd86434d3c37a489caf116af6981565b7f68e30677f607df46e87da13e15b637784cfa62374b653f35ab43d10361a2f83081565b7f0e7f692dad5b88fdee426250d6eae91207e56a2e8112b7364579bed1790e5bf481565b6000606080606080610c4087878080601f016020809104026020016040519081016040528093929190818152602001838380828437600092019190915250610e0f92505050565b50939750919550909350909150610c5890508861116a565b9450945094509450945094565b8482828080601f016020809104026020016040519081016040528093929190818152602001838380828437600092019190915250610cc892507fcadd965d4251b3cf197bac2aaf1b2efaad0abada23065ae873fda39383fbebac915061116a9050565b6060806060610cd6856111b6565b919450925090506001846002811115610ceb57fe5b1415610b075760005b8351811015610b0557610d0e8730858481518110610ac857fe5b600101610cf4565b7f000000000000000000000000000000000000000000000000000000000000000090565b7fc29fa9dde84204c2908778afd0613d802d31cf046179b88f6d2b4a4e507ea2d581565b8482828080601f016020809104026020016040519081016040528093929190818152602001838380828437600092019190915250610dc192507ffb5051076bd418e114f533b0b78c638e754015d74936fe20ffdfe387b0f6995d915061116a9050565b6060806060610dcf856111b6565b919450925090506001846002811115610de457fe5b1415610b075760005b8351811015610b0557610e078730858481518110610ac857fe5b600101610ded565b6060806060806060808680602001905160c0811015610e2d57600080fd5b8101908080516040519392919084600160201b821115610e4c57600080fd5b908301906020820185811115610e6157600080fd5b82518660208202830111600160201b82111715610e7d57600080fd5b82525081516020918201928201910280838360005b83811015610eaa578181015183820152602001610e92565b5050505090500160405260200180516040519392919084600160201b821115610ed257600080fd5b908301906020820185811115610ee757600080fd5b82518660208202830111600160201b82111715610f0357600080fd5b82525081516020918201928201910280838360005b83811015610f30578181015183820152602001610f18565b5050505090500160405260200180516040519392919084600160201b821115610f5857600080fd5b908301906020820185811115610f6d57600080fd5b82518660208202830111600160201b82111715610f8957600080fd5b82525081516020918201928201910280838360005b83811015610fb6578181015183820152602001610f9e565b5050505090500160405260200180516040519392919084600160201b821115610fde57600080fd5b908301906020820185811115610ff357600080fd5b82518660208202830111600160201b8211171561100f57600080fd5b82525081516020918201928201910280838360005b8381101561103c578181015183820152602001611024565b5050505090500160405260200180516040519392919084600160201b82111561106457600080fd5b90830190602082018581111561107957600080fd5b82518660208202830111600160201b8211171561109557600080fd5b82525081516020918201928201910280838360005b838110156110c25781810151838201526020016110aa565b5050505090500160405260200180516040519392919084600160201b8211156110ea57600080fd5b9083019060208201858111156110ff57600080fd5b82518660208202830111600160201b8211171561111b57600080fd5b82525081516020918201928201910280838360005b83811015611148578181015183820152602001611130565b5050505090500160405250505095509550955095509550955091939550919395565b60006001600160e01b0319821662377b2d60e41b141561118c575060006111b1565b6001600160e01b0319821663fb50510760e01b14156111ad575060016111b1565b5060025b919050565b60608060608380602001905160608110156111d057600080fd5b8101908080516040519392919084600160201b8211156111ef57600080fd5b90830190602082018581111561120457600080fd5b82518660208202830111600160201b8211171561122057600080fd5b82525081516020918201928201910280838360005b8381101561124d578181015183820152602001611235565b5050505090500160405260200180516040519392919084600160201b82111561127557600080fd5b90830190602082018581111561128a57600080fd5b82518660208202830111600160201b821117156112a657600080fd5b82525081516020918201928201910280838360005b838110156112d35781810151838201526020016112bb565b5050505090500160405260200180516040519392919084600160201b8211156112fb57600080fd5b90830190602082018581111561131057600080fd5b82518660208202830111600160201b8211171561132c57600080fd5b82525081516020918201928201910280838360005b83811015611359578181015183820152602001611341565b505050509050016040525050509250925092509193909250565b604080516001600160a01b0380861660248301528416604482015260648082018490528251808303909101815260849091019091526020810180516001600160e01b03166323b872dd60e01b1790526113cd908590611755565b50505050565b6060806060806113e285610e0f565b9550509450945050935060005b84518110156114645761145c7f000000000000000000000000000000000000000000000000000000000000000085838151811061142857fe5b602002602001015187848151811061143c57fe5b60200260200101516001600160a01b031661180b9092919063ffffffff16565b6001016113ef565b507f00000000000000000000000000000000000000000000000000000000000000006001600160a01b0316633005d9d0858585856040518563ffffffff1660e01b81526004018080602001806020018060200180602001858103855289818151815260200191508051906020019060200280838360005b838110156114f35781810151838201526020016114db565b50505050905001858103845288818151815260200191508051906020019060200280838360005b8381101561153257818101518382015260200161151a565b50505050905001858103835287818151815260200191508051906020019060200280838360005b83811015611571578181015183820152602001611559565b50505050905001858103825286818151815260200191508051906020019060200280838360005b838110156115b0578181015183820152602001611598565b5050505090500198505050505050505050600060405180830381600087803b1580156115db57600080fd5b505af11580156115ef573d6000803e3d6000fd5b505050505050505050565b6060815167ffffffffffffffff8111801561161457600080fd5b5060405190808252806020026020018201604052801561163e578160200160208202803683370190505b50905060005b825181101561174e57600083828151811061165b57fe5b60200260200101519050806001600160a01b03166370a08231306040518263ffffffff1660e01b815260040180826001600160a01b0316815260200191505060206040518083038186803b1580156116b257600080fd5b505afa1580156116c6573d6000803e3d6000fd5b505050506040513d60208110156116dc57600080fd5b505183518490849081106116ec57fe5b602002602001018181525050600083838151811061170657fe5b60200260200101511115611745576117458584848151811061172457fe5b6020026020010151836001600160a01b031661191e9092919063ffffffff16565b50600101611644565b5092915050565b60606117aa826040518060400160405280602081526020017f5361666545524332303a206c6f772d6c6576656c2063616c6c206661696c6564815250856001600160a01b03166119709092919063ffffffff16565b805190915015611806578080602001905160208110156117c957600080fd5b50516118065760405162461bcd60e51b815260040180806020018281038252602a815260200180611bb6602a913960400191505060405180910390fd5b505050565b801580611891575060408051636eb1769f60e11b81523060048201526001600160a01b03848116602483015291519185169163dd62ed3e91604480820192602092909190829003018186803b15801561186357600080fd5b505afa158015611877573d6000803e3d6000fd5b505050506040513d602081101561188d57600080fd5b5051155b6118cc5760405162461bcd60e51b8152600401808060200182810382526036815260200180611be06036913960400191505060405180910390fd5b604080516001600160a01b038416602482015260448082018490528251808303909101815260649091019091526020810180516001600160e01b031663095ea7b360e01b179052611806908490611755565b604080516001600160a01b038416602482015260448082018490528251808303909101815260649091019091526020810180516001600160e01b031663a9059cbb60e01b179052611806908490611755565b606061197f8484600085611989565b90505b9392505050565b6060824710156119ca5760405162461bcd60e51b8152600401808060200182810382526026815260200180611b906026913960400191505060405180910390fd5b6119d385611ae5565b611a24576040805162461bcd60e51b815260206004820152601d60248201527f416464726573733a2063616c6c20746f206e6f6e2d636f6e7472616374000000604482015290519081900360640190fd5b60006060866001600160a01b031685876040518082805190602001908083835b60208310611a635780518252601f199092019160209182019101611a44565b6001836020036101000a03801982511681845116808217855250505050505090500191505060006040518083038185875af1925050503d8060008114611ac5576040519150601f19603f3d011682016040523d82523d6000602084013e611aca565b606091505b5091509150611ada828286611aeb565b979650505050505050565b3b151590565b60608315611afa575081611982565b825115611b0a5782518084602001fd5b8160405162461bcd60e51b81526004018080602001828103825283818151815260200191508051906020019080838360005b83811015611b54578181015183820152602001611b3c565b50505050905090810190601f168015611b815780820380516001836020036101000a031916815260200191505b509250505060405180910390fdfe416464726573733a20696e73756666696369656e742062616c616e636520666f722063616c6c5361666545524332303a204552433230206f7065726174696f6e20646964206e6f7420737563636565645361666545524332303a20617070726f76652066726f6d206e6f6e2d7a65726f20746f206e6f6e2d7a65726f20616c6c6f77616e6365a164736f6c634300060c000a",
    "linkReferences": {}
  },
  "methodIdentifiers": {
    "CLAIM_REWARDS_SELECTOR()": "40da225d",
    "INTEGRATEE()": "740f2852",
    "LEND_AND_STAKE_SELECTOR()": "131461c0",
    "LEND_SELECTOR()": "257cb1a3",
    "REDEEM_SELECTOR()": "f7d882b5",
    "STAKE_SELECTOR()": "3ffc1591",
    "TAKE_MULTIPLE_ORDERS_SELECTOR()": "c32990a2",
    "TAKE_ORDER_SELECTOR()": "863e5ad0",
    "UNSTAKE_AND_REDEEM_SELECTOR()": "080456c1",
    "UNSTAKE_SELECTOR()": "b23228cf",
    "getIntegrationManager()": "e7c45690",
    "parseAssetsForAction(address,bytes4,bytes)": "c54efee5",
    "removeOnly(address,bytes,bytes)": "360bbf05",
    "swapA(address,bytes,bytes)": "62231430",
    "swapB(address,bytes,bytes)": "cadd965d",
    "swapDirectFromVault(address,bytes,bytes)": "0377b2d0",
    "swapViaApproval(address,bytes,bytes)": "fb505107"
  },
  "id": 1
}