{
  "abi": [
    {
      "inputs": [],
      "name": "getInitArgs",
      "outputs": [
        {
          "internalType": "bytes",
          "name": "initArgs_",
          "type": "bytes"
        }
      ],
      "stateMutability": "view",
      "type": "function"
    },
    {
      "inputs": [
        {
          "internalType": "address",
          "name": "",
          "type": "address"
        },
        {
          "internalType": "uint256",
          "name": "_actionId",
          "type": "uint256"
        },
        {
          "internalType": "bytes",
          "name": "",
          "type": "bytes"
        }
      ],
      "name": "parseAssetsForAction",
      "outputs": [
        {
          "internalType": "address[]",
          "name": "assetsToTransfer_",
          "type": "address[]"
        },
        {
          "internalType": "uint256[]",
          "name": "amountsToTransfer_",
          "type": "uint256[]"
        },
        {
          "internalType": "address[]",
          "name": "assetsToReceive_",
          "type": "address[]"
        }
      ],
      "stateMutability": "nonpayable",
      "type": "function"
    },
    {
      "inputs": [
        {
          "internalType": "address",
          "name": "",
          "type": "address"
        },
        {
          "internalType": "bytes",
          "name": "",
          "type": "bytes"
        }
      ],
      "name": "parseInitArgs",
      "outputs": [
        {
          "internalType": "bytes",
          "name": "initArgs_",
          "type": "bytes"
        }
      ],
      "stateMutability": "nonpayable",
      "type": "function"
    },
    {
      "inputs": [
        {
          "internalType": "uint256",
          "name": "actionId",
          "type": "uint256"
        },
        {
          "internalType": "address[]",
          "name": "_assetsToTransfer",
          "type": "address[]"
        },
        {
          "internalType": "uint256[]",
          "name": "_amountsToTransfer",
          "type": "uint256[]"
        },
        {
          "internalType": "address[]",
          "name": "_assetsToReceive",
          "type": "address[]"
        }
      ],
      "name": "setAssetsForAction",
      "outputs": [],
      "stateMutability": "nonpayable",
      "type": "function"
    },
    {
      "inputs": [
        {
          "internalType": "bytes",
          "name": "_initArgs",
          "type": "bytes"
        }
      ],
      "name": "setInitArgs",
      "outputs": [],
      "stateMutability": "nonpayable",
      "type": "function"
    }
  ],
  "bytecode": {
    "object": "0x608060405234801561001057600080fd5b50610a0a806100206000396000f3fe608060405234801561001057600080fd5b50600436106100575760003560e01c80630b48f7891461005c578063896d62961461020a578063bbd2d646146102ae578063c5dcfaf514610445578063db16c72e146104c2575b600080fd5b6102086004803603608081101561007257600080fd5b81359190810190604081016020820135600160201b81111561009357600080fd5b8201836020820111156100a557600080fd5b803590602001918460208302840111600160201b831117156100c657600080fd5b9190808060200260200160405190810160405280939291908181526020018383602002808284376000920191909152509295949360208101935035915050600160201b81111561011557600080fd5b82018360208201111561012757600080fd5b803590602001918460208302840111600160201b8311171561014857600080fd5b9190808060200260200160405190810160405280939291908181526020018383602002808284376000920191909152509295949360208101935035915050600160201b81111561019757600080fd5b8201836020820111156101a957600080fd5b803590602001918460208302840111600160201b831117156101ca57600080fd5b919080806020026020016040519081016040528093929190818152602001838360200280828437600092019190915250929550610576945050505050565b005b6102086004803603602081101561022057600080fd5b810190602081018135600160201b81111561023a57600080fd5b82018360208201111561024c57600080fd5b803590602001918460018302840111600160201b8311171561026d57600080fd5b91908080601f0160208091040260200160405190810160405280939291908181526020018383808284376000920191909152509295506105f1945050505050565b610367600480360360608110156102c457600080fd5b6001600160a01b0382351691602081013591810190606081016040820135600160201b8111156102f357600080fd5b82018360208201111561030557600080fd5b803590602001918460018302840111600160201b8311171561032657600080fd5b91908080601f016020809104026020016040519081016040528093929190818152602001838380828437600092019190915250929550610608945050505050565b60405180806020018060200180602001848103845287818151815260200191508051906020019060200280838360005b838110156103af578181015183820152602001610397565b50505050905001848103835286818151815260200191508051906020019060200280838360005b838110156103ee5781810151838201526020016103d6565b50505050905001848103825285818151815260200191508051906020019060200280838360005b8381101561042d578181015183820152602001610415565b50505050905001965050505050505060405180910390f35b61044d610760565b6040805160208082528351818301528351919283929083019185019080838360005b8381101561048757818101518382015260200161046f565b50505050905090810190601f1680156104b45780820380516001836020036101000a031916815260200191505b509250505060405180910390f35b61044d600480360360408110156104d857600080fd5b6001600160a01b038235169190810190604081016020820135600160201b81111561050257600080fd5b82018360208201111561051457600080fd5b803590602001918460018302840111600160201b8311171561053557600080fd5b91908080601f0160208091040260200160405190810160405280939291908181526020018383808284376000920191909152509295506107f6945050505050565b6040805160608101825284815260208082018590528183018490526000878152600182529290922081518051929391926105b3928492019061088f565b5060208281015180516105cc92600185019201906108f4565b50604082015180516105e891600284019160209091019061088f565b50505050505050565b805161060490600090602084019061093b565b5050565b60608060606106156109a8565b6000868152600160209081526040918290208251815460809381028201840190945260608101848152909391928492849184018282801561067f57602002820191906000526020600020905b81546001600160a01b03168152600190910190602001808311610661575b50505050508152602001600182018054806020026020016040519081016040528092919081815260200182805480156106d757602002820191906000526020600020905b8154815260200190600101908083116106c3575b505050505081526020016002820180548060200260200160405190810160405280929190818152602001828054801561073957602002820191906000526020600020905b81546001600160a01b0316815260019091019060200180831161071b575b50505091909252505081516020830151604090930151909a92995097509095505050505050565b60008054604080516020601f60026000196101006001881615020190951694909404938401819004810282018101909252828152606093909290918301828280156107ec5780601f106107c1576101008083540402835291602001916107ec565b820191906000526020600020905b8154815290600101906020018083116107cf57829003601f168201915b5050505050905090565b60008054604080516020601f60026000196101006001881615020190951694909404938401819004810282018101909252828152606093909290918301828280156108825780601f1061085757610100808354040283529160200191610882565b820191906000526020600020905b81548152906001019060200180831161086557829003601f168201915b5050505050905092915050565b8280548282559060005260206000209081019282156108e4579160200282015b828111156108e457825182546001600160a01b0319166001600160a01b039091161782556020909201916001909101906108af565b506108f09291506109c9565b5090565b82805482825590600052602060002090810192821561092f579160200282015b8281111561092f578251825591602001919060010190610914565b506108f09291506109e8565b828054600181600116156101000203166002900490600052602060002090601f016020900481019282601f1061097c57805160ff191683800117855561092f565b8280016001018555821561092f579182018281111561092f578251825591602001919060010190610914565b60405180606001604052806060815260200160608152602001606081525090565b5b808211156108f05780546001600160a01b03191681556001016109ca565b5b808211156108f057600081556001016109e956fea164736f6c634300060c000a",
    "linkReferences": {}
  },
  "methodIdentifiers": {
    "getInitArgs()": "c5dcfaf5",
    "parseAssetsForAction(address,uint256,bytes)": "bbd2d646",
    "parseInitArgs(address,bytes)": "db16c72e",
    "setAssetsForAction(uint256,address[],uint256[],address[])": "0b48f789",
    "setInitArgs(bytes)": "896d6296"
  },
  "id": 3
}