{
  "abi": [
    {
      "anonymous": false,
      "inputs": [
        {
          "indexed": true,
          "internalType": "address",
          "name": "owner",
          "type": "address"
        },
        {
          "indexed": true,
          "internalType": "address",
          "name": "spender",
          "type": "address"
        },
        {
          "indexed": false,
          "internalType": "uint256",
          "name": "value",
          "type": "uint256"
        }
      ],
      "name": "Approval",
      "type": "event"
    },
    {
      "anonymous": false,
      "inputs": [
        {
          "indexed": true,
          "internalType": "address",
          "name": "previousOwner",
          "type": "address"
        },
        {
          "indexed": true,
          "internalType": "address",
          "name": "newOwner",
          "type": "address"
        }
      ],
      "name": "OwnershipTransferred",
      "type": "event"
    },
    {
      "anonymous": false,
      "inputs": [
        {
          "indexed": true,
          "internalType": "address",
          "name": "from",
          "type": "address"
        },
        {
          "indexed": true,
          "internalType": "address",
          "name": "to",
          "type": "address"
        },
        {
          "indexed": false,
          "internalType": "uint256",
          "name": "value",
          "type": "uint256"
        }
      ],
      "name": "Transfer",
      "type": "event"
    },
    {
      "inputs": [
        {
          "internalType": "address[]",
          "name": "_minters",
          "type": "address[]"
        }
      ],
      "name": "addMinters",
      "outputs": [],
      "stateMutability": "nonpayable",
      "type": "function"
    },
    {
      "inputs": [
        {
          "internalType": "address",
          "name": "owner",
          "type": "address"
        },
        {
          "internalType": "address",
          "name": "spender",
          "type": "address"
        }
      ],
      "name": "allowance",
      "outputs": [
        {
          "internalType": "uint256",
          "name": "",
          "type": "uint256"
        }
      ],
      "stateMutability": "view",
      "type": "function"
    },
    {
      "inputs": [
        {
          "internalType": "address",
          "name": "spender",
          "type": "address"
        },
        {
          "internalType": "uint256",
          "name": "amount",
          "type": "uint256"
        }
      ],
      "name": "approve",
      "outputs": [
        {
          "internalType": "bool",
          "name": "",
          "type": "bool"
        }
      ],
      "stateMutability": "nonpayable",
      "type": "function"
    },
    {
      "inputs": [],
      "name": "bad",
      "outputs": [
        {
          "internalType": "bool",
          "name": "",
          "type": "bool"
        }
      ],
      "stateMutability": "view",
      "type": "function"
    },
    {
      "inputs": [
        {
          "internalType": "address",
          "name": "account",
          "type": "address"
        }
      ],
      "name": "balanceOf",
      "outputs": [
        {
          "internalType": "uint256",
          "name": "",
          "type": "uint256"
        }
      ],
      "stateMutability": "view",
      "type": "function"
    },
    {
      "inputs": [
        {
          "internalType": "uint256",
          "name": "amount",
          "type": "uint256"
        }
      ],
      "name": "burn",
      "outputs": [],
      "stateMutability": "nonpayable",
      "type": "function"
    },
    {
      "inputs": [
        {
          "internalType": "address",
          "name": "account",
          "type": "address"
        },
        {
          "internalType": "uint256",
          "name": "amount",
          "type": "uint256"
        }
      ],
      "name": "burnFrom",
      "outputs": [],
      "stateMutability": "nonpayable",
      "type": "function"
    },
    {
      "inputs": [],
      "name": "comptrollerProxy",
      "outputs": [
        {
          "internalType": "address",
          "name": "",
          "type": "address"
        }
      ],
      "stateMutability": "view",
      "type": "function"
    },
    {
      "inputs": [],
      "name": "decimals",
      "outputs": [
        {
          "internalType": "uint8",
          "name": "",
          "type": "uint8"
        }
      ],
      "stateMutability": "view",
      "type": "function"
    },
    {
      "inputs": [
        {
          "internalType": "address",
          "name": "spender",
          "type": "address"
        },
        {
          "internalType": "uint256",
          "name": "subtractedValue",
          "type": "uint256"
        }
      ],
      "name": "decreaseAllowance",
      "outputs": [
        {
          "internalType": "bool",
          "name": "",
          "type": "bool"
        }
      ],
      "stateMutability": "nonpayable",
      "type": "function"
    },
    {
      "inputs": [
        {
          "internalType": "address",
          "name": "spender",
          "type": "address"
        },
        {
          "internalType": "uint256",
          "name": "addedValue",
          "type": "uint256"
        }
      ],
      "name": "increaseAllowance",
      "outputs": [
        {
          "internalType": "bool",
          "name": "",
          "type": "bool"
        }
      ],
      "stateMutability": "nonpayable",
      "type": "function"
    },
    {
      "inputs": [
        {
          "internalType": "address",
          "name": "_comptrollerProxy",
          "type": "address"
        }
      ],
      "name": "makeItReentracyToken",
      "outputs": [],
      "stateMutability": "nonpayable",
      "type": "function"
    },
    {
      "inputs": [
        {
          "internalType": "uint256",
          "name": "_amount",
          "type": "uint256"
        }
      ],
      "name": "mint",
      "outputs": [],
      "stateMutability": "nonpayable",
      "type": "function"
    },
    {
      "inputs": [
        {
          "internalType": "address",
          "name": "_who",
          "type": "address"
        },
        {
          "internalType": "uint256",
          "name": "_amount",
          "type": "uint256"
        }
      ],
      "name": "mintFor",
      "outputs": [],
      "stateMutability": "nonpayable",
      "type": "function"
    },
    {
      "inputs": [],
      "name": "name",
      "outputs": [
        {
          "internalType": "string",
          "name": "",
          "type": "string"
        }
      ],
      "stateMutability": "view",
      "type": "function"
    },
    {
      "inputs": [],
      "name": "owner",
      "outputs": [
        {
          "internalType": "address",
          "name": "",
          "type": "address"
        }
      ],
      "stateMutability": "view",
      "type": "function"
    },
    {
      "inputs": [],
      "name": "renounceOwnership",
      "outputs": [],
      "stateMutability": "nonpayable",
      "type": "function"
    },
    {
      "inputs": [],
      "name": "symbol",
      "outputs": [
        {
          "internalType": "string",
          "name": "",
          "type": "string"
        }
      ],
      "stateMutability": "view",
      "type": "function"
    },
    {
      "inputs": [],
      "name": "totalSupply",
      "outputs": [
        {
          "internalType": "uint256",
          "name": "",
          "type": "uint256"
        }
      ],
      "stateMutability": "view",
      "type": "function"
    },
    {
      "inputs": [
        {
          "internalType": "address",
          "name": "recipient",
          "type": "address"
        },
        {
          "internalType": "uint256",
          "name": "amount",
          "type": "uint256"
        }
      ],
      "name": "transfer",
      "outputs": [
        {
          "internalType": "bool",
          "name": "",
          "type": "bool"
        }
      ],
      "stateMutability": "nonpayable",
      "type": "function"
    },
    {
      "inputs": [
        {
          "internalType": "address",
          "name": "sender",
          "type": "address"
        },
        {
          "internalType": "address",
          "name": "recipient",
          "type": "address"
        },
        {
          "internalType": "uint256",
          "name": "amount",
          "type": "uint256"
        }
      ],
      "name": "transferFrom",
      "outputs": [
        {
          "internalType": "bool",
          "name": "",
          "type": "bool"
        }
      ],
      "stateMutability": "nonpayable",
      "type": "function"
    },
    {
      "inputs": [
        {
          "internalType": "address",
          "name": "newOwner",
          "type": "address"
        }
      ],
      "name": "transferOwnership",
      "outputs": [],
      "stateMutability": "nonpayable",
      "type": "function"
    }
  ],
  "bytecode": {
    "object": "0x60806040523480156200001157600080fd5b506040518060400160405280601581526020017f4d6f636b205265656e7472616e637920546f6b656e00000000000000000000008152506040518060400160405280600381526020016213549560ea1b815250601282828160039080519060200190620000809291906200033b565b508051620000969060049060208401906200033b565b50506005805460ff19166012179055506000620000b26200014b565b60058054610100600160a81b0319166101006001600160a01b03841690810291909117909155604051919250906000907f8be0079c531659141344cd1fd0a4f28419497f9722a3daafe3b4186f6b6457e0908290a35062000113816200014f565b62000142336200013c8360ff16600a0a6305f5e1006200016560201b62000ef61790919060201c565b620001cc565b505050620003d7565b3390565b6005805460ff191660ff92909216919091179055565b6000826200017657506000620001c6565b828202828482816200018457fe5b0414620001c35760405162461bcd60e51b815260040180806020018281038252602181526020018062001a776021913960400191505060405180910390fd5b90505b92915050565b6001600160a01b03821662000228576040805162461bcd60e51b815260206004820152601f60248201527f45524332303a206d696e7420746f20746865207a65726f206164647265737300604482015290519081900360640190fd5b6200023660008383620002db565b6200025281600254620002e060201b62000f561790919060201c565b6002556001600160a01b038216600090815260208181526040909120546200028591839062000f56620002e0821b17901c565b6001600160a01b0383166000818152602081815260408083209490945583518581529351929391927fddf252ad1be2c89b69c2b068fc378daa952ba7f163c4a11628f55a4df523b3ef9281900390910190a35050565b505050565b600082820183811015620001c3576040805162461bcd60e51b815260206004820152601b60248201527f536166654d6174683a206164646974696f6e206f766572666c6f770000000000604482015290519081900360640190fd5b828054600181600116156101000203166002900490600052602060002090601f016020900481019282601f106200037e57805160ff1916838001178555620003ae565b82800160010185558215620003ae579182015b82811115620003ae57825182559160200191906001019062000391565b50620003bc929150620003c0565b5090565b5b80821115620003bc5760008155600101620003c1565b61169080620003e76000396000f3fe608060405234801561001057600080fd5b50600436106101425760003560e01c806371e2a657116100b8578063a0712d681161007c578063a0712d681461041c578063a457c2d714610439578063a9059cbb14610465578063da1919b314610491578063dd62ed3e146104bd578063f2fde38b146104eb57610142565b806371e2a6571461033557806379cc6790146103d85780638da5cb5b1461040457806395d89b411461040c5780639c3674fc1461041457610142565b8063395093511161010a578063395093511461027257806342966c681461029e578063430cf151146102bd5780634cbfb08a146102e357806370a0823114610307578063715018a61461032d57610142565b806306fdde0314610147578063095ea7b3146101c457806318160ddd1461020457806323b872dd1461021e578063313ce56714610254575b600080fd5b61014f610511565b6040805160208082528351818301528351919283929083019185019080838360005b83811015610189578181015183820152602001610171565b50505050905090810190601f1680156101b65780820380516001836020036101000a031916815260200191505b509250505060405180910390f35b6101f0600480360360408110156101da57600080fd5b506001600160a01b0381351690602001356105a7565b604080519115158252519081900360200190f35b61020c6105c5565b60408051918252519081900360200190f35b6101f06004803603606081101561023457600080fd5b506001600160a01b038135811691602081013590911690604001356105cb565b61025c610684565b6040805160ff9092168252519081900360200190f35b6101f06004803603604081101561028857600080fd5b506001600160a01b03813516906020013561068d565b6102bb600480360360208110156102b457600080fd5b50356106e0565b005b6102bb600480360360208110156102d357600080fd5b50356001600160a01b03166106f4565b6102eb610726565b604080516001600160a01b039092168252519081900360200190f35b61020c6004803603602081101561031d57600080fd5b50356001600160a01b031661073a565b6102bb610755565b6102bb6004803603602081101561034b57600080fd5b81019060208101813564010000000081111561036657600080fd5b82018360208201111561037857600080fd5b8035906020019184602083028401116401000000008311171561039a57600080fd5b919080806020026020016040519081016040528093929190818152602001838360200280828437600092019190915250929550610819945050505050565b6102bb600480360360408110156103ee57600080fd5b506001600160a01b0381351690602001356108e9565b6102eb610943565b61014f610957565b6101f06109b8565b6102bb6004803603602081101561043257600080fd5b50356109c1565b6101f06004803603604081101561044f57600080fd5b506001600160a01b038135169060200135610a33565b6101f06004803603604081101561047b57600080fd5b506001600160a01b038135169060200135610a9b565b6102bb600480360360408110156104a757600080fd5b506001600160a01b038135169060200135610d39565b61020c600480360360408110156104d357600080fd5b506001600160a01b0381358116916020013516610dab565b6102bb6004803603602081101561050157600080fd5b50356001600160a01b0316610dd6565b60038054604080516020601f600260001961010060018816150201909516949094049384018190048102820181019092528281526060939092909183018282801561059d5780601f106105725761010080835404028352916020019161059d565b820191906000526020600020905b81548152906001019060200180831161058057829003601f168201915b5050505050905090565b60006105bb6105b4610fb0565b8484610fb4565b5060015b92915050565b60025490565b60075460009060ff161561066f57600760019054906101000a90046001600160a01b03166001600160a01b031663beebc5da6000806040518363ffffffff1660e01b81526004018083815260200182815260200192505050602060405180830381600087803b15801561063d57600080fd5b505af1158015610651573d6000803e3d6000fd5b505050506040513d602081101561066757600080fd5b5061067a9050565b61067a8484846110a0565b5060019392505050565b60055460ff1690565b60006105bb61069a610fb0565b846106db85600160006106ab610fb0565b6001600160a01b03908116825260208083019390935260409182016000908120918c168152925290205490610f56565b610fb4565b6106f16106eb610fb0565b826111fb565b50565b600780546001600160a01b0390921661010002610100600160a81b031960ff1990931660011792909216919091179055565b60075461010090046001600160a01b031681565b6001600160a01b031660009081526020819052604090205490565b61075d610fb0565b6001600160a01b031661076e610943565b6001600160a01b0316146107c9576040805162461bcd60e51b815260206004820181905260248201527f4f776e61626c653a2063616c6c6572206973206e6f7420746865206f776e6572604482015290519081900360640190fd5b60055460405160009161010090046001600160a01b0316907f8be0079c531659141344cd1fd0a4f28419497f9722a3daafe3b4186f6b6457e0908390a360058054610100600160a81b0319169055565b610821610fb0565b6001600160a01b0316610832610943565b6001600160a01b03161461088d576040805162461bcd60e51b815260206004820181905260248201527f4f776e61626c653a2063616c6c6572206973206e6f7420746865206f776e6572604482015290519081900360640190fd5b60005b81518110156108e5576001600660008484815181106108ab57fe5b6020908102919091018101516001600160a01b03168252810191909152604001600020805460ff1916911515919091179055600101610890565b5050565b6000610920826040518060600160405280602481526020016115b06024913961091986610914610fb0565b610dab565b91906112f7565b90506109348361092e610fb0565b83610fb4565b61093e83836111fb565b505050565b60055461010090046001600160a01b031690565b60048054604080516020601f600260001961010060018816150201909516949094049384018190048102820181019092528281526060939092909183018282801561059d5780601f106105725761010080835404028352916020019161059d565b60075460ff1681565b3360009081526006602052604090205460ff16806109ee5750336109e3610943565b6001600160a01b0316145b610a295760405162461bcd60e51b815260040180806020018281038252602181526020018061163e6021913960400191505060405180910390fd5b6106f1338261138e565b60006105bb610a40610fb0565b846106db8560405180606001604052806025815260200161165f6025913960016000610a6a610fb0565b6001600160a01b03908116825260208083019390935260409182016000908120918d168152925290205491906112f7565b60075460009060ff1615610d275760075461010090046001600160a01b0316636af8e7eb30846000604051908082528060200260200182016040528015610aec578160200160208202803683370190505b506040805160008082526020820190925290506040518563ffffffff1660e01b815260040180856001600160a01b031681526020018481526020018060200180602001838103835285818151815260200191508051906020019060200280838360005b83811015610b67578181015183820152602001610b4f565b50505050905001838103825284818151815260200191508051906020019060200280838360005b83811015610ba6578181015183820152602001610b8e565b505050509050019650505050505050600060405180830381600087803b158015610bcf57600080fd5b505af1158015610be3573d6000803e3d6000fd5b505050506040513d6000823e601f3d908101601f191682016040908152811015610c0c57600080fd5b8101908080516040519392919084640100000000821115610c2c57600080fd5b908301906020820185811115610c4157600080fd5b8251866020820283011164010000000082111715610c5e57600080fd5b82525081516020918201928201910280838360005b83811015610c8b578181015183820152602001610c73565b5050505090500160405260200180516040519392919084640100000000821115610cb457600080fd5b908301906020820185811115610cc957600080fd5b8251866020820283011164010000000082111715610ce657600080fd5b82525081516020918201928201910280838360005b83811015610d13578181015183820152602001610cfb565b5050505090500160405250505050506105bb565b6105bb610d32610fb0565b84846110a0565b3360009081526006602052604090205460ff1680610d66575033610d5b610943565b6001600160a01b0316145b610da15760405162461bcd60e51b815260040180806020018281038252602181526020018061163e6021913960400191505060405180910390fd5b6108e5828261138e565b6001600160a01b03918216600090815260016020908152604080832093909416825291909152205490565b610dde610fb0565b6001600160a01b0316610def610943565b6001600160a01b031614610e4a576040805162461bcd60e51b815260206004820181905260248201527f4f776e61626c653a2063616c6c6572206973206e6f7420746865206f776e6572604482015290519081900360640190fd5b6001600160a01b038116610e8f5760405162461bcd60e51b81526004018080602001828103825260268152602001806115216026913960400191505060405180910390fd5b6005546040516001600160a01b0380841692610100900416907f8be0079c531659141344cd1fd0a4f28419497f9722a3daafe3b4186f6b6457e090600090a3600580546001600160a01b0390921661010002610100600160a81b0319909216919091179055565b600082610f05575060006105bf565b82820282848281610f1257fe5b0414610f4f5760405162461bcd60e51b815260040180806020018281038252602181526020018061158f6021913960400191505060405180910390fd5b9392505050565b600082820183811015610f4f576040805162461bcd60e51b815260206004820152601b60248201527f536166654d6174683a206164646974696f6e206f766572666c6f770000000000604482015290519081900360640190fd5b3390565b6001600160a01b038316610ff95760405162461bcd60e51b815260040180806020018281038252602481526020018061161a6024913960400191505060405180910390fd5b6001600160a01b03821661103e5760405162461bcd60e51b81526004018080602001828103825260228152602001806115476022913960400191505060405180910390fd5b6001600160a01b03808416600081815260016020908152604080832094871680845294825291829020859055815185815291517f8c5be1e5ebec7d5bd14f71427d1e84f3dd0314c0f7b2291e5b200ac8c7c3b9259281900390910190a3505050565b6001600160a01b0383166110e55760405162461bcd60e51b81526004018080602001828103825260258152602001806115f56025913960400191505060405180910390fd5b6001600160a01b03821661112a5760405162461bcd60e51b81526004018080602001828103825260238152602001806114dc6023913960400191505060405180910390fd5b61113583838361093e565b61117281604051806060016040528060268152602001611569602691396001600160a01b03861660009081526020819052604090205491906112f7565b6001600160a01b0380851660009081526020819052604080822093909355908416815220546111a19082610f56565b6001600160a01b038084166000818152602081815260409182902094909455805185815290519193928716927fddf252ad1be2c89b69c2b068fc378daa952ba7f163c4a11628f55a4df523b3ef92918290030190a3505050565b6001600160a01b0382166112405760405162461bcd60e51b81526004018080602001828103825260218152602001806115d46021913960400191505060405180910390fd5b61124c8260008361093e565b611289816040518060600160405280602281526020016114ff602291396001600160a01b03851660009081526020819052604090205491906112f7565b6001600160a01b0383166000908152602081905260409020556002546112af908261147e565b6002556040805182815290516000916001600160a01b038516917fddf252ad1be2c89b69c2b068fc378daa952ba7f163c4a11628f55a4df523b3ef9181900360200190a35050565b600081848411156113865760405162461bcd60e51b81526004018080602001828103825283818151815260200191508051906020019080838360005b8381101561134b578181015183820152602001611333565b50505050905090810190601f1680156113785780820380516001836020036101000a031916815260200191505b509250505060405180910390fd5b505050900390565b6001600160a01b0382166113e9576040805162461bcd60e51b815260206004820152601f60248201527f45524332303a206d696e7420746f20746865207a65726f206164647265737300604482015290519081900360640190fd5b6113f56000838361093e565b6002546114029082610f56565b6002556001600160a01b0382166000908152602081905260409020546114289082610f56565b6001600160a01b0383166000818152602081815260408083209490945583518581529351929391927fddf252ad1be2c89b69c2b068fc378daa952ba7f163c4a11628f55a4df523b3ef9281900390910190a35050565b6000828211156114d5576040805162461bcd60e51b815260206004820152601e60248201527f536166654d6174683a207375627472616374696f6e206f766572666c6f770000604482015290519081900360640190fd5b5090039056fe45524332303a207472616e7366657220746f20746865207a65726f206164647265737345524332303a206275726e20616d6f756e7420657863656564732062616c616e63654f776e61626c653a206e6577206f776e657220697320746865207a65726f206164647265737345524332303a20617070726f766520746f20746865207a65726f206164647265737345524332303a207472616e7366657220616d6f756e7420657863656564732062616c616e6365536166654d6174683a206d756c7469706c69636174696f6e206f766572666c6f7745524332303a206275726e20616d6f756e74206578636565647320616c6c6f77616e636545524332303a206275726e2066726f6d20746865207a65726f206164647265737345524332303a207472616e736665722066726f6d20746865207a65726f206164647265737345524332303a20617070726f76652066726f6d20746865207a65726f20616464726573736d73672e73656e646572206973206e6f74206f776e6572206f72206d696e74657245524332303a2064656372656173656420616c6c6f77616e63652062656c6f77207a65726fa164736f6c634300060c000a536166654d6174683a206d756c7469706c69636174696f6e206f766572666c6f77",
    "linkReferences": {}
  },
  "methodIdentifiers": {
    "addMinters(address[])": "71e2a657",
    "allowance(address,address)": "dd62ed3e",
    "approve(address,uint256)": "095ea7b3",
    "bad()": "9c3674fc",
    "balanceOf(address)": "70a08231",
    "burn(uint256)": "42966c68",
    "burnFrom(address,uint256)": "79cc6790",
    "comptrollerProxy()": "4cbfb08a",
    "decimals()": "313ce567",
    "decreaseAllowance(address,uint256)": "a457c2d7",
    "increaseAllowance(address,uint256)": "39509351",
    "makeItReentracyToken(address)": "430cf151",
    "mint(uint256)": "a0712d68",
    "mintFor(address,uint256)": "da1919b3",
    "name()": "06fdde03",
    "owner()": "8da5cb5b",
    "renounceOwnership()": "715018a6",
    "symbol()": "95d89b41",
    "totalSupply()": "18160ddd",
    "transfer(address,uint256)": "a9059cbb",
    "transferFrom(address,address,uint256)": "23b872dd",
    "transferOwnership(address)": "f2fde38b"
  },
  "id": 5
}