{
  "_format": "hh-sol-artifact-1",
  "contractName": "NotionalV2PositionParser",
  "sourceName": "contracts/release/extensions/external-position-manager/external-positions/notional-v2/NotionalV2PositionParser.sol",
  "abi": [
    {
      "inputs": [
        {
          "internalType": "address",
          "name": "_notionalV2Router",
          "type": "address"
        },
        {
          "internalType": "address",
          "name": "_weth",
          "type": "address"
        }
      ],
      "stateMutability": "nonpayable",
      "type": "constructor"
    },
    {
      "inputs": [
        {
          "internalType": "address",
          "name": "",
          "type": "address"
        },
        {
          "internalType": "uint256",
          "name": "_actionId",
          "type": "uint256"
        },
        {
          "internalType": "bytes",
          "name": "_encodedActionArgs",
          "type": "bytes"
        }
      ],
      "name": "parseAssetsForAction",
      "outputs": [
        {
          "internalType": "address[]",
          "name": "assetsToTransfer_",
          "type": "address[]"
        },
        {
          "internalType": "uint256[]",
          "name": "amountsToTransfer_",
          "type": "uint256[]"
        },
        {
          "internalType": "address[]",
          "name": "assetsToReceive_",
          "type": "address[]"
        }
      ],
      "stateMutability": "nonpayable",
      "type": "function"
    },
    {
      "inputs": [
        {
          "internalType": "address",
          "name": "",
          "type": "address"
        },
        {
          "internalType": "bytes",
          "name": "",
          "type": "bytes"
        }
      ],
      "name": "parseInitArgs",
      "outputs": [
        {
          "internalType": "bytes",
          "name": "",
          "type": "bytes"
        }
      ],
      "stateMutability": "nonpayable",
      "type": "function"
    }
  ],
  "bytecode": "0x60c060405234801561001057600080fd5b50604051610cc8380380610cc883398101604081905261002f9161005e565b6001600160601b0319606092831b8116608052911b1660a0526100c0565b8051610058816100a9565b92915050565b6000806040838503121561007157600080fd5b600061007d858561004d565b925050602061008e8582860161004d565b9150509250929050565b60006001600160a01b038216610058565b6100b281610098565b81146100bd57600080fd5b50565b60805160601c60a05160601c610bdf6100e9600039806104145250806104575250610bdf6000f3fe608060405234801561001057600080fd5b50600436106100365760003560e01c8063bbd2d6461461003b578063db16c72e14610066575b600080fd5b61004e6100493660046106fe565b610086565b60405161005d93929190610a0b565b60405180910390f35b6100796100743660046106ac565b6103cc565b60405161005d9190610a4d565b60608080846101375760008061009b866103e2565b6040805160018082528183019092529294509092506020808301908036833750506040805160018082528183019092529297509050602080830190803683370190505093506100e982610402565b856000815181106100f657fe5b60200260200101906001600160a01b031690816001600160a01b031681525050808460008151811061012457fe5b60200260200101818152505050506103c3565b600185141561021857600080600061014e876104e8565b9194509250905060f881901c156101805760405162461bcd60e51b815260040161017790610a65565b60405180910390fd5b604080516001808252818301909252906020808301908036833750506040805160018082528183019092529298509050602080830190803683370190505094506101c983610402565b866000815181106101d657fe5b60200260200101906001600160a01b031690816001600160a01b031681525050818560008151811061020457fe5b6020026020010181815250505050506103c3565b600285141561028b57600061022c8561050e565b506040805160018082528183019092529192506020808301908036833701905050915061025881610402565b8260008151811061026557fe5b60200260200101906001600160a01b031690816001600160a01b031681525050506103c3565b60038514156103c3576000806000806102a388610525565b9296509094509250905060f883901c6001146102d15760405162461bcd60e51b815260040161017790610a65565b8015610368576040805160018082528183019092529060208083019080368337505060408051600180825281830190925292995090506020808301908036833701905050955061032082610402565b8760008151811061032d57fe5b60200260200101906001600160a01b031690816001600160a01b031681525050808660008151811061035b57fe5b6020026020010181815250505b604080516001808252818301909252906020808301908036833701905050945061039184610402565b8560008151811061039e57fe5b60200260200101906001600160a01b031690816001600160a01b031681525050505050505b93509350939050565b6040805160208101909152600081525b92915050565b600080828060200190518101906103f991906107f5565b91509150915091565b600061ffff82166001141561043857507f00000000000000000000000000000000000000000000000000000000000000006104e3565b61044061054e565b60405163275d68c760e11b81526001600160a01b037f00000000000000000000000000000000000000000000000000000000000000001690634ebad18e9061048c908690600401610a75565b6101406040518083038186803b1580156104a557600080fd5b505afa1580156104b9573d6000803e3d6000fd5b505050506040513d601f19601f820116820180604052508101906104dd9190610763565b51925050505b919050565b6000806000838060200190518101906105019190610825565b9250925092509193909250565b600080828060200190518101906103f99190610868565b6000806000808480602001905181019061053f9190610794565b93509350935093509193509193565b6040805160a0810182526000808252602082018190529181018290529060608201908152602001600081525090565b80356103dc81610b61565b80516103dc81610b61565b80516103dc81610b78565b80516103dc81610b81565b600082601f8301126105ba57600080fd5b81356105cd6105c882610aaa565b610a83565b915080825260208301602083018583830111156105e957600080fd5b6105f4838284610b1b565b50505092915050565b80516103dc81610b8a565b600060a0828403121561061a57600080fd5b61062460a0610a83565b905060006106328484610588565b825250602061064384848301610593565b60208301525060406106578482850161059e565b604083015250606061066b848285016105fd565b606083015250608061067f8482850161059e565b60808301525092915050565b80516103dc81610b97565b80356103dc81610b81565b80516103dc81610ba0565b600080604083850312156106bf57600080fd5b60006106cb858561057d565b925050602083013567ffffffffffffffff8111156106e857600080fd5b6106f4858286016105a9565b9150509250929050565b60008060006060848603121561071357600080fd5b600061071f868661057d565b935050602061073086828701610696565b925050604084013567ffffffffffffffff81111561074d57600080fd5b610759868287016105a9565b9150509250925092565b600080610140838503121561077757600080fd5b60006107838585610608565b92505060a06106f485828601610608565b600080600080608085870312156107aa57600080fd5b60006107b6878761068b565b94505060206107c78782880161059e565b93505060406107d88782880161068b565b92505060606107e98782880161059e565b91505092959194509250565b6000806040838503121561080857600080fd5b6000610814858561068b565b92505060206106f48582860161059e565b60008060006060848603121561083a57600080fd5b6000610846868661068b565b93505060206108578682870161059e565b92505060406107598682870161059e565b6000806040838503121561087b57600080fd5b6000610887858561068b565b92505060206106f4858286016106a1565b60006108a483836108b8565b505060200190565b60006108a48383610a02565b6108c181610ae5565b82525050565b60006108d282610ad8565b6108dc8185610adc565b93506108e783610ad2565b8060005b838110156109155781516108ff8882610898565b975061090a83610ad2565b9250506001016108eb565b509495945050505050565b600061092b82610ad8565b6109358185610adc565b935061094083610ad2565b8060005b8381101561091557815161095888826108ac565b975061096383610ad2565b925050600101610944565b600061097982610ad8565b6109838185610adc565b9350610993818560208601610b27565b61099c81610b57565b9093019392505050565b60006109b3603183610adc565b7f7061727365417373657473466f72416374696f6e3a20496e636f727265637420815270747261646520616374696f6e207479706560781b602082015260400192915050565b6108c181610af8565b6108c181610af5565b60608082528101610a1c81866108c7565b90508181036020830152610a308185610920565b90508181036040830152610a4481846108c7565b95945050505050565b60208082528101610a5e818461096e565b9392505050565b602080825281016103dc816109a6565b602081016103dc82846109f9565b60405181810167ffffffffffffffff81118282101715610aa257600080fd5b604052919050565b600067ffffffffffffffff821115610ac157600080fd5b506020601f91909101601f19160190565b60200190565b5190565b90815260200190565b60006103dc82610aff565b151590565b90565b61ffff1690565b6001600160a01b031690565b6affffffffffffffffffffff1690565b82818337506000910152565b60005b83811015610b42578181015183820152602001610b2a565b83811115610b51576000848401525b50505050565b601f01601f191690565b610b6a81610ae5565b8114610b7557600080fd5b50565b610b6a81610af0565b610b6a81610af5565b60068110610b7557600080fd5b610b6a81610af8565b610b6a81610b0b56fea26469706673582212203155badd6d0ed794f947f398666b5b7762d37ca848379a726610d728785c03ab64736f6c634300060c0033",
  "linkReferences": {},
  "deployedLinkReferences": {}
}