{
  "_format": "hh-sol-artifact-1",
  "contractName": "OlympusV2Adapter",
  "sourceName": "contracts/release/extensions/integration-manager/integrations/adapters/OlympusV2Adapter.sol",
  "abi": [
    {
      "inputs": [
        {
          "internalType": "address",
          "name": "_integrationManager",
          "type": "address"
        },
        {
          "internalType": "address",
          "name": "_ohmToken",
          "type": "address"
        },
        {
          "internalType": "address",
          "name": "_sohmToken",
          "type": "address"
        },
        {
          "internalType": "address",
          "name": "_stakingContract",
          "type": "address"
        }
      ],
      "stateMutability": "nonpayable",
      "type": "constructor"
    },
    {
      "inputs": [],
      "name": "CLAIM_REWARDS_SELECTOR",
      "outputs": [
        {
          "internalType": "bytes4",
          "name": "",
          "type": "bytes4"
        }
      ],
      "stateMutability": "view",
      "type": "function"
    },
    {
      "inputs": [],
      "name": "LEND_AND_STAKE_SELECTOR",
      "outputs": [
        {
          "internalType": "bytes4",
          "name": "",
          "type": "bytes4"
        }
      ],
      "stateMutability": "view",
      "type": "function"
    },
    {
      "inputs": [],
      "name": "LEND_SELECTOR",
      "outputs": [
        {
          "internalType": "bytes4",
          "name": "",
          "type": "bytes4"
        }
      ],
      "stateMutability": "view",
      "type": "function"
    },
    {
      "inputs": [],
      "name": "REDEEM_SELECTOR",
      "outputs": [
        {
          "internalType": "bytes4",
          "name": "",
          "type": "bytes4"
        }
      ],
      "stateMutability": "view",
      "type": "function"
    },
    {
      "inputs": [],
      "name": "STAKE_SELECTOR",
      "outputs": [
        {
          "internalType": "bytes4",
          "name": "",
          "type": "bytes4"
        }
      ],
      "stateMutability": "view",
      "type": "function"
    },
    {
      "inputs": [],
      "name": "TAKE_MULTIPLE_ORDERS_SELECTOR",
      "outputs": [
        {
          "internalType": "bytes4",
          "name": "",
          "type": "bytes4"
        }
      ],
      "stateMutability": "view",
      "type": "function"
    },
    {
      "inputs": [],
      "name": "TAKE_ORDER_SELECTOR",
      "outputs": [
        {
          "internalType": "bytes4",
          "name": "",
          "type": "bytes4"
        }
      ],
      "stateMutability": "view",
      "type": "function"
    },
    {
      "inputs": [],
      "name": "UNSTAKE_AND_REDEEM_SELECTOR",
      "outputs": [
        {
          "internalType": "bytes4",
          "name": "",
          "type": "bytes4"
        }
      ],
      "stateMutability": "view",
      "type": "function"
    },
    {
      "inputs": [],
      "name": "UNSTAKE_SELECTOR",
      "outputs": [
        {
          "internalType": "bytes4",
          "name": "",
          "type": "bytes4"
        }
      ],
      "stateMutability": "view",
      "type": "function"
    },
    {
      "inputs": [],
      "name": "getIntegrationManager",
      "outputs": [
        {
          "internalType": "address",
          "name": "integrationManager_",
          "type": "address"
        }
      ],
      "stateMutability": "view",
      "type": "function"
    },
    {
      "inputs": [],
      "name": "getOhmToken",
      "outputs": [
        {
          "internalType": "address",
          "name": "ohmToken_",
          "type": "address"
        }
      ],
      "stateMutability": "view",
      "type": "function"
    },
    {
      "inputs": [],
      "name": "getOlympusV2StakingContract",
      "outputs": [
        {
          "internalType": "address",
          "name": "stakingContract_",
          "type": "address"
        }
      ],
      "stateMutability": "view",
      "type": "function"
    },
    {
      "inputs": [],
      "name": "getSohmToken",
      "outputs": [
        {
          "internalType": "address",
          "name": "sohmToken_",
          "type": "address"
        }
      ],
      "stateMutability": "view",
      "type": "function"
    },
    {
      "inputs": [
        {
          "internalType": "address",
          "name": "_vaultProxy",
          "type": "address"
        },
        {
          "internalType": "bytes4",
          "name": "_selector",
          "type": "bytes4"
        },
        {
          "internalType": "bytes",
          "name": "_actionData",
          "type": "bytes"
        }
      ],
      "name": "parseAssetsForAction",
      "outputs": [
        {
          "internalType": "enum IIntegrationManager.SpendAssetsHandleType",
          "name": "spendAssetsHandleType_",
          "type": "uint8"
        },
        {
          "internalType": "address[]",
          "name": "spendAssets_",
          "type": "address[]"
        },
        {
          "internalType": "uint256[]",
          "name": "spendAssetAmounts_",
          "type": "uint256[]"
        },
        {
          "internalType": "address[]",
          "name": "incomingAssets_",
          "type": "address[]"
        },
        {
          "internalType": "uint256[]",
          "name": "minIncomingAssetAmounts_",
          "type": "uint256[]"
        }
      ],
      "stateMutability": "view",
      "type": "function"
    },
    {
      "inputs": [
        {
          "internalType": "address",
          "name": "_vaultProxy",
          "type": "address"
        },
        {
          "internalType": "bytes",
          "name": "_actionData",
          "type": "bytes"
        },
        {
          "internalType": "bytes",
          "name": "",
          "type": "bytes"
        }
      ],
      "name": "stake",
      "outputs": [],
      "stateMutability": "nonpayable",
      "type": "function"
    },
    {
      "inputs": [
        {
          "internalType": "address",
          "name": "_vaultProxy",
          "type": "address"
        },
        {
          "internalType": "bytes",
          "name": "_actionData",
          "type": "bytes"
        },
        {
          "internalType": "bytes",
          "name": "",
          "type": "bytes"
        }
      ],
      "name": "unstake",
      "outputs": [],
      "stateMutability": "nonpayable",
      "type": "function"
    }
  ],
  "bytecode": "0x6101006040523480156200001257600080fd5b50604051620018b3380380620018b3833981810160405260808110156200003857600080fd5b50805160208083015160408401516060948501516001600160601b031985871b811660805281871b811660a05283871b811660c0529582901b90951660e0529293909291620000a1906001600160a01b0385169083906000199062000976620000d2821b17901c565b620000c881600019846001600160a01b0316620000d260201b62000976179092919060201c565b50505050620004e5565b8015806200015c575060408051636eb1769f60e11b81523060048201526001600160a01b03848116602483015291519185169163dd62ed3e91604480820192602092909190829003018186803b1580156200012c57600080fd5b505afa15801562000141573d6000803e3d6000fd5b505050506040513d60208110156200015857600080fd5b5051155b620001995760405162461bcd60e51b81526004018080602001828103825260368152602001806200187d6036913960400191505060405180910390fd5b604080516001600160a01b038416602482015260448082018490528251808303909101815260649091019091526020810180516001600160e01b0390811663095ea7b360e01b17909152620001f1918591620001f616565b505050565b606062000252826040518060400160405280602081526020017f5361666545524332303a206c6f772d6c6576656c2063616c6c206661696c6564815250856001600160a01b0316620002b260201b62000a8e179092919060201c565b805190915015620001f1578080602001905160208110156200027357600080fd5b5051620001f15760405162461bcd60e51b815260040180806020018281038252602a81526020018062001853602a913960400191505060405180910390fd5b6060620002c38484600085620002cd565b90505b9392505050565b606082471015620003105760405162461bcd60e51b81526004018080602001828103825260268152602001806200182d6026913960400191505060405180910390fd5b6200031b8562000435565b6200036d576040805162461bcd60e51b815260206004820152601d60248201527f416464726573733a2063616c6c20746f206e6f6e2d636f6e7472616374000000604482015290519081900360640190fd5b60006060866001600160a01b031685876040518082805190602001908083835b60208310620003ae5780518252601f1990920191602091820191016200038d565b6001836020036101000a03801982511681845116808217855250505050505090500191505060006040518083038185875af1925050503d806000811462000412576040519150601f19603f3d011682016040523d82523d6000602084013e62000417565b606091505b5090925090506200042a8282866200043b565b979650505050505050565b3b151590565b606083156200044c575081620002c6565b8251156200045d5782518084602001fd5b8160405162461bcd60e51b81526004018080602001828103825283818151815260200191508051906020019080838360005b83811015620004a95781810151838201526020016200048f565b50505050905090810190601f168015620004d75780820380516001836020036101000a031916815260200191505b509250505060405180910390fd5b60805160601c60a05160601c60c05160601c60e05160601c6112fc62000531600039806107955250806105e05250806105bc52508061060d528061087c52806108cd52506112fc6000f3fe608060405234801561001057600080fd5b50600436106101005760003560e01c8063863e5ad011610097578063c54efee511610066578063c54efee514610266578063e7c4569014610428578063f7d882b514610430578063fa7dd04d1461043857610100565b8063863e5ad014610246578063b23228cf1461024e578063b997f65814610256578063c32990a21461025e57610100565b806340da225d116100d357806340da225d1461014257806359b00d931461014a57806362cbb3891461016e57806368e306771461017657610100565b8063080456c114610105578063131461c01461012a578063257cb1a3146101325780633ffc15911461013a575b600080fd5b61010d610506565b604080516001600160e01b03199092168252519081900360200190f35b61010d61052a565b61010d61054e565b61010d610572565b61010d610596565b6101526105ba565b604080516001600160a01b039092168252519081900360200190f35b6101526105de565b6102446004803603606081101561018c57600080fd5b6001600160a01b038235169190810190604081016020820135600160201b8111156101b657600080fd5b8201836020820111156101c857600080fd5b803590602001918460018302840111600160201b831117156101e957600080fd5b919390929091602081019035600160201b81111561020657600080fd5b82018360208201111561021857600080fd5b803590602001918460018302840111600160201b8311171561023957600080fd5b509092509050610602565b005b61010d61074b565b61010d61076f565b610152610793565b61010d6107b7565b6102f36004803603606081101561027c57600080fd5b6001600160a01b03823516916001600160e01b031960208201351691810190606081016040820135600160201b8111156102b557600080fd5b8201836020820111156102c757600080fd5b803590602001918460018302840111600160201b831117156102e857600080fd5b5090925090506107db565b6040518086600281111561030357fe5b815260200180602001806020018060200180602001858103855289818151815260200191508051906020019060200280838360005b83811015610350578181015183820152602001610338565b50505050905001858103845288818151815260200191508051906020019060200280838360005b8381101561038f578181015183820152602001610377565b50505050905001858103835287818151815260200191508051906020019060200280838360005b838110156103ce5781810151838201526020016103b6565b50505050905001858103825286818151815260200191508051906020019060200280838360005b8381101561040d5781810151838201526020016103f5565b50505050905001995050505050505050505060405180910390f35b61015261087a565b61010d61089e565b6102446004803603606081101561044e57600080fd5b6001600160a01b038235169190810190604081016020820135600160201b81111561047857600080fd5b82018360208201111561048a57600080fd5b803590602001918460018302840111600160201b831117156104ab57600080fd5b919390929091602081019035600160201b8111156104c857600080fd5b8201836020820111156104da57600080fd5b803590602001918460018302840111600160201b831117156104fb57600080fd5b5090925090506108c2565b7f8334eb99be0145865eba9889fca2ee920288090caefff4cc776038e20ad9259a81565b7f29fa046e79524c3c5ac4c01df692c35e217802b2b13b21121b76cf0ef02b138c81565b7f099f75155f0e997bf83a7993a71d5e7e7540bd386fe1e84643a09ce6b412521981565b7ffa7dd04da627f433da73c4355ead9c75682a67a8fc84d3f6170ef0922f402d2481565b7fb9dfbaccbe5cd2a84fdcf1d15f23ef25d23086f5afbaa99516065ed4a5bbc7a381565b7f000000000000000000000000000000000000000000000000000000000000000090565b7f000000000000000000000000000000000000000000000000000000000000000090565b336001600160a01b037f000000000000000000000000000000000000000000000000000000000000000016146106695760405162461bcd60e51b815260040180806020018281038252603281526020018061120e6032913960400191505060405180910390fd5b60006106aa85858080601f016020809104026020016040519081016040528093929190818152602001838380828437600092019190915250610aa792505050565b9050600019811415610739576106be610793565b6001600160a01b03166370a08231306040518263ffffffff1660e01b815260040180826001600160a01b0316815260200191505060206040518083038186803b15801561070a57600080fd5b505afa15801561071e573d6000803e3d6000fd5b505050506040513d602081101561073457600080fd5b505190505b6107438682610ac6565b505050505050565b7f03e38a2bd7063d45c897edeafc330e71657502dd86434d3c37a489caf116af6981565b7f68e30677f607df46e87da13e15b637784cfa62374b653f35ab43d10361a2f83081565b7f000000000000000000000000000000000000000000000000000000000000000090565b7f0e7f692dad5b88fdee426250d6eae91207e56a2e8112b7364579bed1790e5bf481565b600060608080806001600160e01b0319881663fa7dd04d60e01b1415610814576108058787610b40565b9450945094509450945061086f565b6001600160e01b031988166368e3067760e01b141561083857610805898888610ca5565b60405162461bcd60e51b81526004018080602001828103825260278152602001806112a06027913960400191505060405180910390fd5b945094509450945094565b7f000000000000000000000000000000000000000000000000000000000000000090565b7fc29fa9dde84204c2908778afd0613d802d31cf046179b88f6d2b4a4e507ea2d581565b336001600160a01b037f000000000000000000000000000000000000000000000000000000000000000016146109295760405162461bcd60e51b815260040180806020018281038252603281526020018061120e6032913960400191505060405180910390fd5b600061096a85858080601f016020809104026020016040519081016040528093929190818152602001838380828437600092019190915250610aa792505050565b90506107438682610ec7565b8015806109fc575060408051636eb1769f60e11b81523060048201526001600160a01b03848116602483015291519185169163dd62ed3e91604480820192602092909190829003018186803b1580156109ce57600080fd5b505afa1580156109e2573d6000803e3d6000fd5b505050506040513d60208110156109f857600080fd5b5051155b610a375760405162461bcd60e51b815260040180806020018281038252603681526020018061126a6036913960400191505060405180910390fd5b604080516001600160a01b038416602482015260448082018490528251808303909101815260649091019091526020810180516001600160e01b031663095ea7b360e01b179052610a89908490610f30565b505050565b6060610a9d8484600085610fe1565b90505b9392505050565b6000818060200190516020811015610abe57600080fd5b505192915050565b610ace6105ba565b6040805163990966d560e01b81526001600160a01b0385811660048301526024820185905260006044830181905260016064840152925193169263990966d59260848084019391929182900301818387803b158015610b2c57600080fd5b505af1158015610743573d6000803e3d6000fd5b60006060806060806000610b8988888080601f016020809104026020016040519081016040528093929190818152602001838380828437600092019190915250610aa792505050565b60408051600180825281830190925291925060208083019080368337019050509450610bb36105de565b85600081518110610bc057fe5b6001600160a01b03929092166020928302919091018201526040805160018082528183019092529182810190803683370190505093508084600081518110610c0457fe5b602090810291909101015260408051600180825281830190925290816020016020820280368337019050509250610c39610793565b83600081518110610c4657fe5b6001600160a01b03929092166020928302919091018201526040805160018082528183019092529182810190803683370190505091508082600081518110610c8a57fe5b60200260200101818152505060029550509295509295909350565b60006060806060806000610cee88888080601f016020809104026020016040519081016040528093929190818152602001838380828437600092019190915250610aa792505050565b60408051600180825281830190925291925060208083019080368337019050509450610d18610793565b85600081518110610d2557fe5b6001600160a01b0392909216602092830291909101820152604080516001808252818301909252918281019080368337019050509350600019811415610e0357610d6d610793565b6001600160a01b03166370a082318a6040518263ffffffff1660e01b815260040180826001600160a01b0316815260200191505060206040518083038186803b158015610db957600080fd5b505afa158015610dcd573d6000803e3d6000fd5b505050506040513d6020811015610de357600080fd5b505184518590600090610df257fe5b602002602001018181525050610e1e565b8084600081518110610e1157fe5b6020026020010181815250505b6040805160018082528183019092529060208083019080368337019050509250610e466105de565b83600081518110610e5357fe5b6001600160a01b039290921660209283029190910182015260408051600180825281830190925291828101908036833701905050915083600081518110610e9657fe5b602002602001015182600081518110610eab57fe5b6020026020010181815250506002955050939792965093509350565b610ecf6105ba565b60408051631b0cd93b60e31b81526001600160a01b0385811660048301526024820185905260016044830181905260648301529151929091169163d866c9d89160848082019260009290919082900301818387803b158015610b2c57600080fd5b6060610f85826040518060400160405280602081526020017f5361666545524332303a206c6f772d6c6576656c2063616c6c206661696c6564815250856001600160a01b0316610a8e9092919063ffffffff16565b805190915015610a8957808060200190516020811015610fa457600080fd5b5051610a895760405162461bcd60e51b815260040180806020018281038252602a815260200180611240602a913960400191505060405180910390fd5b6060824710156110225760405162461bcd60e51b81526004018080602001828103825260268152602001806111e86026913960400191505060405180910390fd5b61102b8561113d565b61107c576040805162461bcd60e51b815260206004820152601d60248201527f416464726573733a2063616c6c20746f206e6f6e2d636f6e7472616374000000604482015290519081900360640190fd5b60006060866001600160a01b031685876040518082805190602001908083835b602083106110bb5780518252601f19909201916020918201910161109c565b6001836020036101000a03801982511681845116808217855250505050505090500191505060006040518083038185875af1925050503d806000811461111d576040519150601f19603f3d011682016040523d82523d6000602084013e611122565b606091505b5091509150611132828286611143565b979650505050505050565b3b151590565b60608315611152575081610aa0565b8251156111625782518084602001fd5b8160405162461bcd60e51b81526004018080602001828103825283818151815260200191508051906020019080838360005b838110156111ac578181015183820152602001611194565b50505050905090810190601f1680156111d95780820380516001836020036101000a031916815260200191505b509250505060405180910390fdfe416464726573733a20696e73756666696369656e742062616c616e636520666f722063616c6c4f6e6c792074686520496e746567726174696f6e4d616e616765722063616e2063616c6c20746869732066756e6374696f6e5361666545524332303a204552433230206f7065726174696f6e20646964206e6f7420737563636565645361666545524332303a20617070726f76652066726f6d206e6f6e2d7a65726f20746f206e6f6e2d7a65726f20616c6c6f77616e63657061727365417373657473466f72416374696f6e3a205f73656c6563746f7220696e76616c6964a26469706673582212203ac8ac40fd3ebf781f36f05e9dd17331ea38b591d4aadf49af44946fd98e581b64736f6c634300060c0033416464726573733a20696e73756666696369656e742062616c616e636520666f722063616c6c5361666545524332303a204552433230206f7065726174696f6e20646964206e6f7420737563636565645361666545524332303a20617070726f76652066726f6d206e6f6e2d7a65726f20746f206e6f6e2d7a65726f20616c6c6f77616e6365",
  "linkReferences": {},
  "deployedLinkReferences": {}
}