{
  "abi": [
    {
      "inputs": [
        {
          "internalType": "address",
          "name": "_integrationManager",
          "type": "address"
        },
        {
          "internalType": "address",
          "name": "_augustusSwapper",
          "type": "address"
        },
        {
          "internalType": "address",
          "name": "_tokenTransferProxy",
          "type": "address"
        },
        {
          "internalType": "address",
          "name": "_feePartner",
          "type": "address"
        },
        {
          "internalType": "uint256",
          "name": "_feePercent",
          "type": "uint256"
        }
      ],
      "stateMutability": "nonpayable",
      "type": "constructor"
    },
    {
      "anonymous": false,
      "inputs": [
        {
          "indexed": false,
          "internalType": "uint256",
          "name": "index",
          "type": "uint256"
        },
        {
          "indexed": false,
          "internalType": "string",
          "name": "reason",
          "type": "string"
        }
      ],
      "name": "MultipleOrdersItemFailed",
      "type": "event"
    },
    {
      "inputs": [],
      "name": "CLAIM_REWARDS_SELECTOR",
      "outputs": [
        {
          "internalType": "bytes4",
          "name": "",
          "type": "bytes4"
        }
      ],
      "stateMutability": "view",
      "type": "function"
    },
    {
      "inputs": [],
      "name": "LEND_AND_STAKE_SELECTOR",
      "outputs": [
        {
          "internalType": "bytes4",
          "name": "",
          "type": "bytes4"
        }
      ],
      "stateMutability": "view",
      "type": "function"
    },
    {
      "inputs": [],
      "name": "LEND_SELECTOR",
      "outputs": [
        {
          "internalType": "bytes4",
          "name": "",
          "type": "bytes4"
        }
      ],
      "stateMutability": "view",
      "type": "function"
    },
    {
      "inputs": [],
      "name": "REDEEM_SELECTOR",
      "outputs": [
        {
          "internalType": "bytes4",
          "name": "",
          "type": "bytes4"
        }
      ],
      "stateMutability": "view",
      "type": "function"
    },
    {
      "inputs": [],
      "name": "STAKE_SELECTOR",
      "outputs": [
        {
          "internalType": "bytes4",
          "name": "",
          "type": "bytes4"
        }
      ],
      "stateMutability": "view",
      "type": "function"
    },
    {
      "inputs": [],
      "name": "TAKE_MULTIPLE_ORDERS_SELECTOR",
      "outputs": [
        {
          "internalType": "bytes4",
          "name": "",
          "type": "bytes4"
        }
      ],
      "stateMutability": "view",
      "type": "function"
    },
    {
      "inputs": [],
      "name": "TAKE_ORDER_SELECTOR",
      "outputs": [
        {
          "internalType": "bytes4",
          "name": "",
          "type": "bytes4"
        }
      ],
      "stateMutability": "view",
      "type": "function"
    },
    {
      "inputs": [],
      "name": "UNSTAKE_AND_REDEEM_SELECTOR",
      "outputs": [
        {
          "internalType": "bytes4",
          "name": "",
          "type": "bytes4"
        }
      ],
      "stateMutability": "view",
      "type": "function"
    },
    {
      "inputs": [],
      "name": "UNSTAKE_SELECTOR",
      "outputs": [
        {
          "internalType": "bytes4",
          "name": "",
          "type": "bytes4"
        }
      ],
      "stateMutability": "view",
      "type": "function"
    },
    {
      "inputs": [],
      "name": "getIntegrationManager",
      "outputs": [
        {
          "internalType": "address",
          "name": "integrationManager_",
          "type": "address"
        }
      ],
      "stateMutability": "view",
      "type": "function"
    },
    {
      "inputs": [],
      "name": "getParaSwapV5AugustusSwapper",
      "outputs": [
        {
          "internalType": "address",
          "name": "augustusSwapper_",
          "type": "address"
        }
      ],
      "stateMutability": "view",
      "type": "function"
    },
    {
      "inputs": [],
      "name": "getParaSwapV5TokenTransferProxy",
      "outputs": [
        {
          "internalType": "address",
          "name": "tokenTransferProxy_",
          "type": "address"
        }
      ],
      "stateMutability": "view",
      "type": "function"
    },
    {
      "inputs": [
        {
          "internalType": "address",
          "name": "",
          "type": "address"
        },
        {
          "internalType": "bytes4",
          "name": "_selector",
          "type": "bytes4"
        },
        {
          "internalType": "bytes",
          "name": "_actionData",
          "type": "bytes"
        }
      ],
      "name": "parseAssetsForAction",
      "outputs": [
        {
          "internalType": "enum IIntegrationManager.SpendAssetsHandleType",
          "name": "spendAssetsHandleType_",
          "type": "uint8"
        },
        {
          "internalType": "address[]",
          "name": "spendAssets_",
          "type": "address[]"
        },
        {
          "internalType": "uint256[]",
          "name": "spendAssetAmounts_",
          "type": "uint256[]"
        },
        {
          "internalType": "address[]",
          "name": "incomingAssets_",
          "type": "address[]"
        },
        {
          "internalType": "uint256[]",
          "name": "minIncomingAssetAmounts_",
          "type": "uint256[]"
        }
      ],
      "stateMutability": "view",
      "type": "function"
    },
    {
      "inputs": [
        {
          "internalType": "address",
          "name": "_vaultProxy",
          "type": "address"
        },
        {
          "internalType": "bytes",
          "name": "_actionData",
          "type": "bytes"
        },
        {
          "internalType": "bytes",
          "name": "_assetData",
          "type": "bytes"
        }
      ],
      "name": "takeMultipleOrders",
      "outputs": [],
      "stateMutability": "nonpayable",
      "type": "function"
    },
    {
      "inputs": [
        {
          "internalType": "address",
          "name": "_vaultProxy",
          "type": "address"
        },
        {
          "internalType": "bytes",
          "name": "_actionData",
          "type": "bytes"
        },
        {
          "internalType": "bytes",
          "name": "",
          "type": "bytes"
        }
      ],
      "name": "takeOrder",
      "outputs": [],
      "stateMutability": "nonpayable",
      "type": "function"
    },
    {
      "inputs": [
        {
          "internalType": "address",
          "name": "_vaultProxy",
          "type": "address"
        },
        {
          "internalType": "bytes",
          "name": "_orderData",
          "type": "bytes"
        }
      ],
      "name": "takeOrderAndValidateIncoming",
      "outputs": [],
      "stateMutability": "nonpayable",
      "type": "function"
    }
  ],
  "bytecode": {
    "object": "0x6101206040523480156200001257600080fd5b50604051620029ba380380620029ba833981016040819052620000359162000089565b6001600160601b0319606095861b811660805293851b841660a05290841b831660c05260e05290911b166101005262000143565b805162000076816200011e565b92915050565b8051620000768162000138565b600080600080600060a08688031215620000a257600080fd5b6000620000b0888862000069565b9550506020620000c38882890162000069565b9450506040620000d68882890162000069565b9350506060620000e98882890162000069565b9250506080620000fc888289016200007c565b9150509295509295909350565b60006001600160a01b03821662000076565b90565b620001298162000109565b81146200013557600080fd5b50565b62000129816200011b565b60805160601c60a05160601c60c05160601c60e0516101005160601c61282b6200018f60003980610454525080610a195250806109ea52508061052a525080610914525061282b6000f3fe608060405234801561001057600080fd5b50600436106101005760003560e01c806340da225d11610097578063c32990a211610066578063c32990a2146101ab578063c54efee5146101b3578063e7c45690146101d7578063f7d882b5146101df57610100565b806340da225d1461018b578063863e5ad01461019357806391bc27dc1461019b578063b23228cf146101a357610100565b8063257cb1a3116100d3578063257cb1a3146101535780632c4286791461015b5780632d979b8c146101705780633ffc15911461018357610100565b806303e38a2b14610105578063080456c11461011a5780630e7f692d14610138578063131461c01461014b575b600080fd5b610118610113366004611b93565b6101e7565b005b610122610258565b60405161012f9190612501565b60405180910390f35b610118610146366004611b93565b61027c565b61012261040a565b61012261042e565b610163610452565b60405161012f919061249d565b61011861017e366004611b3e565b610477565b6101226104bc565b6101226104e0565b610122610504565b610163610528565b61012261054c565b610122610570565b6101c66101c1366004611ad7565b610594565b60405161012f95949392919061250f565b610163610912565b610122610936565b600080600080600060606102308a8a8080601f01602080910402602001604051908101604052809392919081815260200183838082843760009201919091525061095a92505050565b95509550955095509550955061024b848488888f878761098c565b5050505050505050505050565b7f8334eb99be0145865eba9889fca2ee920288090caefff4cc776038e20ad9259a81565b8482828080601f01602080910402602001604051908101604052809392919081815260200183838082843760009201829052506060935091506102c190508888610aed565b9150915080156103b15760005b82518110156103ab57306001600160a01b0316632d979b8c8b8584815181106102f357fe5b60200260200101516040518363ffffffff1660e01b81526004016103189291906124c6565b600060405180830381600087803b15801561033257600080fd5b505af1925050508015610343575060015b6103a35761034f612727565b8061035a5750610399565b7f61a3f67a014516af915df55e5a5e673c61ae0cc855f78150d184442765b77a0c828260405161038b9291906125fd565b60405180910390a1506103a3565b3d6000803e3d6000fd5b6001016102ce565b506103e4565b60005b82518110156103e2576103da8a8483815181106103cd57fe5b6020026020010151610b09565b6001016103b4565b505b505060606103f182610c88565b505090506103ff8382610cae565b505050505050505050565b7f29fa046e79524c3c5ac4c01df692c35e217802b2b13b21121b76cf0ef02b138c81565b7f099f75155f0e997bf83a7993a71d5e7e7540bd386fe1e84643a09ce6b412521981565b7f00000000000000000000000000000000000000000000000000000000000000005b90565b6104b78383838080601f016020809104026020016040519081016040528093929190818152602001838380828437600092019190915250610b0992505050565b505050565b7ffa7dd04da627f433da73c4355ead9c75682a67a8fc84d3f6170ef0922f402d2481565b7fb9dfbaccbe5cd2a84fdcf1d15f23ef25d23086f5afbaa99516065ed4a5bbc7a381565b7f03e38a2bd7063d45c897edeafc330e71657502dd86434d3c37a489caf116af6981565b7f000000000000000000000000000000000000000000000000000000000000000090565b7f68e30677f607df46e87da13e15b637784cfa62374b653f35ab43d10361a2f83081565b7f0e7f692dad5b88fdee426250d6eae91207e56a2e8112b7364579bed1790e5bf481565b600060608080806001600160e01b031988166303e38a2b60e01b1415610724576040805160018082528183019092529060208083019080368337505060408051600180825281830190925292965090506020808301908036833750506040805160018082528183019092529295509050602080830190803683375050604080516001808252818301909252929450905060208083019080368337019050509050606061067588888080601f01602080910402602001604051908101604052809392919081815260200183838082843760009201919091525061095a92505050565b909192935090508560008151811061068957fe5b602002602001018960008151811061069d57fe5b60200260200101896000815181106106b157fe5b60209081029190910101939093526001600160a01b039093169091529190528051909150819060001981019081106106e557fe5b602002602001015160000151836000815181106106fe57fe5b60200260200101906001600160a01b031690816001600160a01b03168152505050610903565b6001600160e01b03198816630e7f692d60e01b14156108e25760606107498888610aed565b50905080516001600160401b038111801561076357600080fd5b5060405190808252806020026020018201604052801561078d578160200160208202803683370190505b50945080516001600160401b03811180156107a757600080fd5b506040519080825280602002602001820160405280156107d1578160200160208202803683370190505b50935060005b81518110156108885760606107fe8383815181106107f157fe5b602002602001015161095a565b8c5193955091935090918b91508690811061081557fe5b6020026020010189868151811061082857fe5b6020026020010182955083815250836001600160a01b03166001600160a01b031681525050505061087d8160018351038151811061086257fe5b60200260200101516000015186610e0a90919063ffffffff16565b9450506001016107d7565b506108938585610e33565b845191965094506001600160401b03811180156108af57600080fd5b506040519080825280602002602001820160405280156108d9578160200160208202803683370190505b50915050610903565b60405162461bcd60e51b81526004016108fa906125dc565b60405180910390fd5b60029450945094509450945094565b7f000000000000000000000000000000000000000000000000000000000000000090565b7fc29fa9dde84204c2908778afd0613d802d31cf046179b88f6d2b4a4e507ea2d581565b60008060008060006060868060200190518101906109789190611d35565b949c939b5091995097509550909350915050565b61099e87610998610452565b88611073565b6109a6611540565b604051806101600160405280896001600160a01b03168152602001888152602001878152602001868152602001856001600160a01b031681526020018381526020017f00000000000000000000000000000000000000000000000000000000000000006001600160a01b031681526020017f00000000000000000000000000000000000000000000000000000000000000008152602001604051806020016040528060008152508152602001428152602001846001600160801b0319168152509050610a70610528565b6001600160a01b031663a94e78ef826040518263ffffffff1660e01b8152600401610a9b91906125ec565b602060405180830381600087803b158015610ab557600080fd5b505af1158015610ac9573d6000803e3d6000fd5b505050506040513d601f19601f820116820180604052508101906103ff9190611d17565b60606000610afd83850185611ca9565b915091505b9250929050565b60008060008060006060610b1c8761095a565b955095509550955095509550600081600183510381518110610b3a57fe5b60200260200101516000015190506000816001600160a01b03166370a082318b6040518263ffffffff1660e01b8152600401610b76919061249d565b60206040518083038186803b158015610b8e57600080fd5b505afa158015610ba2573d6000803e3d6000fd5b505050506040513d601f19601f82011682018060405250810190610bc69190611d17565b9050610bd786868a8a8e898961098c565b87610c5e82846001600160a01b03166370a082318e6040518263ffffffff1660e01b8152600401610c08919061249d565b60206040518083038186803b158015610c2057600080fd5b505afa158015610c34573d6000803e3d6000fd5b505050506040513d601f19601f82011682018060405250810190610c589190611d17565b90611135565b1015610c7c5760405162461bcd60e51b81526004016108fa9061257c565b50505050505050505050565b606080606083806020019051810190610ca19190611c18565b9250925092509193909250565b606081516001600160401b0381118015610cc757600080fd5b50604051908082528060200260200182016040528015610cf1578160200160208202803683370190505b50905060005b8251811015610e02576000838281518110610d0e57fe5b60200260200101519050806001600160a01b03166370a08231306040518263ffffffff1660e01b8152600401610d44919061249d565b60206040518083038186803b158015610d5c57600080fd5b505afa158015610d70573d6000803e3d6000fd5b505050506040513d601f19601f82011682018060405250810190610d949190611d17565b838381518110610da057fe5b6020026020010181815250506000838381518110610dba57fe5b60200260200101511115610df957610df985848481518110610dd857fe5b6020026020010151836001600160a01b031661115d9092919063ffffffff16565b50600101610cf7565b505b92915050565b6060610e1683836111b3565b15610e22575081610e04565b610e2c8383611209565b9392505050565b606080835160001415610e4557610b02565b6001805b8551811015610ec5576000805b82811015610eaf57878181518110610e6a57fe5b60200260200101516001600160a01b0316888481518110610e8757fe5b60200260200101516001600160a01b03161415610ea75760019150610eaf565b600101610e56565b5080610ebc576001909201915b50600101610e49565b50806001600160401b0381118015610edc57600080fd5b50604051908082528060200260200182016040528015610f06578160200160208202803683370190505b509250806001600160401b0381118015610f1f57600080fd5b50604051908082528060200260200182016040528015610f49578160200160208202803683370190505b5091506000805b8651811015611069576000805b83811015610fe857868181518110610f7157fe5b60200260200101516001600160a01b0316898481518110610f8e57fe5b60200260200101516001600160a01b03161415610fe05760019150878381518110610fb557fe5b6020026020010151868281518110610fc957fe5b602002602001018181510191508181525050610fe8565b600101610f5d565b508061106057878281518110610ffa57fe5b602002602001015186848151811061100e57fe5b60200260200101906001600160a01b031690816001600160a01b03168152505086828151811061103a57fe5b602002602001015185848151811061104e57fe5b60209081029190910101526001909201915b50600101610f50565b5050509250929050565b604051636eb1769f60e11b81526000906001600160a01b0385169063dd62ed3e906110a490309087906004016124ab565b60206040518083038186803b1580156110bc57600080fd5b505afa1580156110d0573d6000803e3d6000fd5b505050506040513d601f19601f820116820180604052508101906110f49190611d17565b90508181101561112f578015611119576111196001600160a01b0385168460006112d3565b61112f6001600160a01b038516846000196112d3565b50505050565b6000828211156111575760405162461bcd60e51b81526004016108fa9061258c565b50900390565b6104b78363a9059cbb60e01b848460405160240161117c9291906124e6565b60408051601f198184030181529190526020810180516001600160e01b03166001600160e01b031990931692909217909152611396565b6000805b83518110156111ff578381815181106111cc57fe5b60200260200101516001600160a01b0316836001600160a01b031614156111f7576001915050610e04565b6001016111b7565b5060009392505050565b606082516001016001600160401b038111801561122557600080fd5b5060405190808252806020026020018201604052801561124f578160200160208202803683370190505b50905060005b835181101561129e5783818151811061126a57fe5b602002602001015182828151811061127e57fe5b6001600160a01b0390921660209283029190910190910152600101611255565b5081818451815181106112ad57fe5b60200260200101906001600160a01b031690816001600160a01b03168152505092915050565b80158061135b5750604051636eb1769f60e11b81526001600160a01b0384169063dd62ed3e9061130990309086906004016124ab565b60206040518083038186803b15801561132157600080fd5b505afa158015611335573d6000803e3d6000fd5b505050506040513d601f19601f820116820180604052508101906113599190611d17565b155b6113775760405162461bcd60e51b81526004016108fa906125cc565b6104b78363095ea7b360e01b848460405160240161117c9291906124e6565b60606113eb826040518060400160405280602081526020017f5361666545524332303a206c6f772d6c6576656c2063616c6c206661696c6564815250856001600160a01b03166114259092919063ffffffff16565b8051909150156104b757808060200190518101906114099190611cf9565b6104b75760405162461bcd60e51b81526004016108fa906125bc565b6060611434848460008561143c565b949350505050565b60608247101561145e5760405162461bcd60e51b81526004016108fa9061259c565b611467856114fd565b6114835760405162461bcd60e51b81526004016108fa906125ac565b60006060866001600160a01b031685876040516114a09190612491565b60006040518083038185875af1925050503d80600081146114dd576040519150601f19603f3d011682016040523d82523d6000602084013e6114e2565b606091505b50915091506114f2828286611507565b979650505050505050565b803b15155b919050565b60608315611516575081610e2c565b8251156115265782518084602001fd5b8160405162461bcd60e51b81526004016108fa919061256b565b60405180610160016040528060006001600160a01b0316815260200160008152602001600081526020016000815260200160006001600160a01b031681526020016060815260200160006001600160a01b0316815260200160008152602001606081526020016000815260200160006001600160801b03191681525090565b8035610e04816127e6565b8051610e04816127e6565b600082601f8301126115e657600080fd5b81516115f96115f482612631565b61260b565b9150818183526020840193506020810190508385602084028201111561161e57600080fd5b60005b8381101561164a578161163488826115ca565b8452506020928301929190910190600101611621565b5050505092915050565b600082601f83011261166557600080fd5b81356116736115f482612631565b81815260209384019390925082018360005b8381101561164a578135860161169b88826118a5565b8452506020928301929190910190600101611685565b600082601f8301126116c257600080fd5b81516116d06115f482612631565b81815260209384019390925082018360005b8381101561164a57815186016116f8888261193a565b84525060209283019291909101906001016116e2565b600082601f83011261171f57600080fd5b815161172d6115f482612631565b81815260209384019390925082018360005b8381101561164a578151860161175588826119c0565b845250602092830192919091019060010161173f565b600082601f83011261177c57600080fd5b815161178a6115f482612631565b81815260209384019390925082018360005b8381101561164a57815186016117b28882611a32565b845250602092830192919091019060010161179c565b600082601f8301126117d957600080fd5b81516117e76115f482612631565b9150818183526020840193506020810190508385602084028201111561180c57600080fd5b60005b8381101561164a57816118228882611acc565b845250602092830192919091019060010161180f565b8035610e04816127fa565b8051610e04816127fa565b8051610e0481612803565b8035610e048161280c565b60008083601f84011261187657600080fd5b5081356001600160401b0381111561188d57600080fd5b602083019150836001820283011115610b0257600080fd5b600082601f8301126118b657600080fd5b81356118c46115f482612651565b915080825260208301602083018583830111156118e057600080fd5b6118eb8382846126df565b50505092915050565b600082601f83011261190557600080fd5b81516119136115f482612651565b9150808252602083016020830185838301111561192f57600080fd5b6118eb8382846126eb565b60006080828403121561194c57600080fd5b611956608061260b565b9050600061196484846115ca565b825250602061197584848301611acc565b602083015250604061198984828501611acc565b60408301525060608201516001600160401b038111156119a857600080fd5b6119b48482850161176b565b60608301525092915050565b6000606082840312156119d257600080fd5b6119dc606061260b565b905060006119ea84846115ca565b82525060206119fb84848301611acc565b60208301525060408201516001600160401b03811115611a1a57600080fd5b611a26848285016116b1565b60408301525092915050565b600060a08284031215611a4457600080fd5b611a4e60a061260b565b90506000611a5c8484611acc565b8252506020611a6d848483016115ca565b6020830152506040611a8184828501611acc565b60408301525060608201516001600160401b03811115611aa057600080fd5b611aac848285016118f4565b6060830152506080611ac084828501611acc565b60808301525092915050565b8051610e0481612815565b60008060008060608587031215611aed57600080fd5b6000611af987876115bf565b9450506020611b0a87828801611859565b93505060408501356001600160401b03811115611b2657600080fd5b611b3287828801611864565b95989497509550505050565b600080600060408486031215611b5357600080fd5b6000611b5f86866115bf565b93505060208401356001600160401b03811115611b7b57600080fd5b611b8786828701611864565b92509250509250925092565b600080600080600060608688031215611bab57600080fd5b6000611bb788886115bf565b95505060208601356001600160401b03811115611bd357600080fd5b611bdf88828901611864565b945094505060408601356001600160401b03811115611bfd57600080fd5b611c0988828901611864565b92509250509295509295909350565b600080600060608486031215611c2d57600080fd5b83516001600160401b03811115611c4357600080fd5b611c4f868287016115d5565b93505060208401516001600160401b03811115611c6b57600080fd5b611c77868287016117c8565b92505060408401516001600160401b03811115611c9357600080fd5b611c9f868287016115d5565b9150509250925092565b60008060408385031215611cbc57600080fd5b82356001600160401b03811115611cd257600080fd5b611cde85828601611654565b9250506020611cef85828601611838565b9150509250929050565b600060208284031215611d0b57600080fd5b60006114348484611843565b600060208284031215611d2957600080fd5b60006114348484611acc565b60008060008060008060c08789031215611d4e57600080fd5b6000611d5a8989611acc565b9650506020611d6b89828a01611acc565b9550506040611d7c89828a016115ca565b9450506060611d8d89828a01611acc565b9350506080611d9e89828a0161184e565b92505060a08701516001600160401b03811115611dba57600080fd5b611dc689828a0161170e565b9150509295509295509295565b6000611ddf8383611e17565b505060200190565b6000610e2c8383612298565b6000610e2c83836122f3565b6000610e2c8383612332565b6000611ddf8383612488565b611e208161268b565b82525050565b6000611e318261267e565b611e3b8185612682565b9350611e4683612678565b8060005b83811015611e74578151611e5e8882611dd3565b9750611e6983612678565b925050600101611e4a565b509495945050505050565b6000611e8a8261267e565b611e948185612682565b935083602082028501611ea685612678565b8060005b85811015611ee05784840389528151611ec38582611de7565b9450611ece83612678565b60209a909a0199925050600101611eaa565b5091979650505050505050565b6000611ef88261267e565b611f028185612682565b935083602082028501611f1485612678565b8060005b85811015611ee05784840389528151611f318582611df3565b9450611f3c83612678565b60209a909a0199925050600101611f18565b6000611f598261267e565b611f638185612682565b935083602082028501611f7585612678565b8060005b85811015611ee05784840389528151611f928582611dff565b9450611f9d83612678565b60209a909a0199925050600101611f79565b6000611fba8261267e565b611fc48185612682565b9350611fcf83612678565b8060005b83811015611e74578151611fe78882611e0b565b9750611ff283612678565b925050600101611fd3565b611e208161269b565b611e20816126b1565b600061201a8261267e565b6120248185612682565b93506120348185602086016126eb565b61203d81612717565b9093019392505050565b60006120528261267e565b61205c8185611502565b935061206c8185602086016126eb565b9290920192915050565b611e20816126d4565b600061208c604a83612682565b7f5f5f74616b654f72646572416e6456616c6964617465496e636f6d696e673a2081527f526563656976656420696e636f6d696e67206173736574206c657373207468616020820152691b88195e1c1958dd195960b21b604082015260600192915050565b60006120fe601e83612682565b7f536166654d6174683a207375627472616374696f6e206f766572666c6f770000815260200192915050565b6000612137602683612682565b7f416464726573733a20696e73756666696369656e742062616c616e636520666f8152651c8818d85b1b60d21b602082015260400192915050565b600061217f601d83612682565b7f416464726573733a2063616c6c20746f206e6f6e2d636f6e7472616374000000815260200192915050565b60006121b8602a83612682565b7f5361666545524332303a204552433230206f7065726174696f6e20646964206e8152691bdd081cdd58d8d9595960b21b602082015260400192915050565b6000612204603683612682565b7f5361666545524332303a20617070726f76652066726f6d206e6f6e2d7a65726f81527520746f206e6f6e2d7a65726f20616c6c6f77616e636560501b602082015260400192915050565b600061225c602783612682565b7f7061727365417373657473466f72416374696f6e3a205f73656c6563746f72208152661a5b9d985b1a5960ca1b602082015260400192915050565b805160009060808401906122ac8582611e17565b5060208301516122bf6020860182612488565b5060408301516122d26040860182612488565b50606083015184820360608601526122ea8282611f4e565b95945050505050565b805160009060608401906123078582611e17565b50602083015161231a6020860182612488565b50604083015184820360408601526122ea8282611e7f565b805160009060a08401906123468582612488565b5060208301516123596020860182611e17565b50604083015161236c6040860182612488565b5060608301518482036060860152612384828261200f565b91505060808301516123996080860182612488565b509392505050565b80516000906101608401906123b68582611e17565b5060208301516123c96020860182612488565b5060408301516123dc6040860182612488565b5060608301516123ef6060860182612488565b5060808301516124026080860182611e17565b5060a083015184820360a086015261241a8282611eed565b91505060c083015161242f60c0860182611e17565b5060e083015161244260e0860182612488565b5061010083015184820361010086015261245c828261200f565b915050610120830151612473610120860182612488565b50610140830151612399610140860182611ffd565b611e2081610474565b6000610e2c8284612047565b60208101610e048284611e17565b604081016124b98285611e17565b610e2c6020830184611e17565b604081016124d48285611e17565b8181036020830152611434818461200f565b604081016124f48285611e17565b610e2c6020830184612488565b60208101610e048284612006565b60a0810161251d8288612076565b818103602083015261252f8187611e26565b905081810360408301526125438186611faf565b905081810360608301526125578185611e26565b905081810360808301526114f28184611faf565b60208082528101610e2c818461200f565b60208082528101610e048161207f565b60208082528101610e04816120f1565b60208082528101610e048161212a565b60208082528101610e0481612172565b60208082528101610e04816121ab565b60208082528101610e04816121f7565b60208082528101610e048161224f565b60208082528101610e2c81846123a1565b604081016124d48285612488565b6040518181016001600160401b038111828210171561262957600080fd5b604052919050565b60006001600160401b0382111561264757600080fd5b5060209081020190565b60006001600160401b0382111561266757600080fd5b506020601f91909101601f19160190565b60200190565b5190565b90815260200190565b6000610e04826126c8565b151590565b6fffffffffffffffffffffffffffffffff191690565b6001600160e01b03191690565b80611502816127d9565b6001600160a01b031690565b6000610e04826126be565b82818337506000910152565b60005b838110156127065781810151838201526020016126ee565b8381111561112f5750506000910152565b601f01601f191690565b60e01c90565b600060443d101561273757610474565b60046000803e612748600051612721565b6308c379a081146127595750610474565b60405160043d036004823e80513d60248201116001600160401b038211171561278457505050610474565b80820180516001600160401b038111156127a2575050505050610474565b8060208301013d85018111156127bd57505050505050610474565b6127c682612717565b8301602001604052509094505050505090565b600381106127e357fe5b50565b6127ef8161268b565b81146127e357600080fd5b6127ef81612696565b6127ef8161269b565b6127ef816126b1565b6127ef8161047456fea164736f6c634300060c000a",
    "linkReferences": {}
  },
  "methodIdentifiers": {
    "CLAIM_REWARDS_SELECTOR()": "40da225d",
    "LEND_AND_STAKE_SELECTOR()": "131461c0",
    "LEND_SELECTOR()": "257cb1a3",
    "REDEEM_SELECTOR()": "f7d882b5",
    "STAKE_SELECTOR()": "3ffc1591",
    "TAKE_MULTIPLE_ORDERS_SELECTOR()": "c32990a2",
    "TAKE_ORDER_SELECTOR()": "863e5ad0",
    "UNSTAKE_AND_REDEEM_SELECTOR()": "080456c1",
    "UNSTAKE_SELECTOR()": "b23228cf",
    "getIntegrationManager()": "e7c45690",
    "getParaSwapV5AugustusSwapper()": "91bc27dc",
    "getParaSwapV5TokenTransferProxy()": "2c428679",
    "parseAssetsForAction(address,bytes4,bytes)": "c54efee5",
    "takeMultipleOrders(address,bytes,bytes)": "0e7f692d",
    "takeOrder(address,bytes,bytes)": "03e38a2b",
    "takeOrderAndValidateIncoming(address,bytes)": "2d979b8c"
  },
  "id": 171
}