{
  "abi": [
    {
      "inputs": [
        {
          "internalType": "address",
          "name": "_feeManager",
          "type": "address"
        }
      ],
      "stateMutability": "nonpayable",
      "type": "constructor"
    },
    {
      "anonymous": false,
      "inputs": [
        {
          "indexed": true,
          "internalType": "address",
          "name": "comptrollerProxy",
          "type": "address"
        },
        {
          "indexed": false,
          "internalType": "uint256",
          "name": "highWaterMark",
          "type": "uint256"
        }
      ],
      "name": "ActivatedForFund",
      "type": "event"
    },
    {
      "anonymous": false,
      "inputs": [
        {
          "indexed": true,
          "internalType": "address",
          "name": "comptrollerProxy",
          "type": "address"
        },
        {
          "indexed": false,
          "internalType": "uint256",
          "name": "rate",
          "type": "uint256"
        }
      ],
      "name": "FundSettingsAdded",
      "type": "event"
    },
    {
      "anonymous": false,
      "inputs": [
        {
          "indexed": true,
          "internalType": "address",
          "name": "comptrollerProxy",
          "type": "address"
        },
        {
          "indexed": false,
          "internalType": "uint256",
          "name": "nextHighWaterMark",
          "type": "uint256"
        }
      ],
      "name": "HighWaterMarkUpdated",
      "type": "event"
    },
    {
      "anonymous": false,
      "inputs": [
        {
          "indexed": true,
          "internalType": "address",
          "name": "comptrollerProxy",
          "type": "address"
        },
        {
          "indexed": true,
          "internalType": "address",
          "name": "recipient",
          "type": "address"
        }
      ],
      "name": "RecipientSetForFund",
      "type": "event"
    },
    {
      "anonymous": false,
      "inputs": [
        {
          "indexed": true,
          "internalType": "address",
          "name": "comptrollerProxy",
          "type": "address"
        },
        {
          "indexed": false,
          "internalType": "uint256",
          "name": "sharePrice",
          "type": "uint256"
        },
        {
          "indexed": false,
          "internalType": "uint256",
          "name": "sharesDue",
          "type": "uint256"
        }
      ],
      "name": "Settled",
      "type": "event"
    },
    {
      "inputs": [
        {
          "internalType": "address",
          "name": "_comptrollerProxy",
          "type": "address"
        },
        {
          "internalType": "address",
          "name": "",
          "type": "address"
        }
      ],
      "name": "activateForFund",
      "outputs": [],
      "stateMutability": "nonpayable",
      "type": "function"
    },
    {
      "inputs": [
        {
          "internalType": "address",
          "name": "_comptrollerProxy",
          "type": "address"
        },
        {
          "internalType": "bytes",
          "name": "_settingsData",
          "type": "bytes"
        }
      ],
      "name": "addFundSettings",
      "outputs": [],
      "stateMutability": "nonpayable",
      "type": "function"
    },
    {
      "inputs": [
        {
          "internalType": "address",
          "name": "_comptrollerProxy",
          "type": "address"
        }
      ],
      "name": "getFeeInfoForFund",
      "outputs": [
        {
          "components": [
            {
              "internalType": "uint256",
              "name": "rate",
              "type": "uint256"
            },
            {
              "internalType": "uint256",
              "name": "highWaterMark",
              "type": "uint256"
            }
          ],
          "internalType": "struct PerformanceFee.FeeInfo",
          "name": "feeInfo_",
          "type": "tuple"
        }
      ],
      "stateMutability": "view",
      "type": "function"
    },
    {
      "inputs": [],
      "name": "getFeeManager",
      "outputs": [
        {
          "internalType": "address",
          "name": "feeManager_",
          "type": "address"
        }
      ],
      "stateMutability": "view",
      "type": "function"
    },
    {
      "inputs": [
        {
          "internalType": "address",
          "name": "_comptrollerProxy",
          "type": "address"
        }
      ],
      "name": "getRecipientForFund",
      "outputs": [
        {
          "internalType": "address",
          "name": "recipient_",
          "type": "address"
        }
      ],
      "stateMutability": "view",
      "type": "function"
    },
    {
      "inputs": [
        {
          "internalType": "address",
          "name": "",
          "type": "address"
        },
        {
          "internalType": "address",
          "name": "",
          "type": "address"
        }
      ],
      "name": "payout",
      "outputs": [
        {
          "internalType": "bool",
          "name": "",
          "type": "bool"
        }
      ],
      "stateMutability": "nonpayable",
      "type": "function"
    },
    {
      "inputs": [
        {
          "internalType": "address",
          "name": "_comptrollerProxy",
          "type": "address"
        },
        {
          "internalType": "address",
          "name": "_recipient",
          "type": "address"
        }
      ],
      "name": "setRecipientForFund",
      "outputs": [],
      "stateMutability": "nonpayable",
      "type": "function"
    },
    {
      "inputs": [
        {
          "internalType": "address",
          "name": "_comptrollerProxy",
          "type": "address"
        },
        {
          "internalType": "address",
          "name": "_vaultProxy",
          "type": "address"
        },
        {
          "internalType": "enum IFeeManager.FeeHook",
          "name": "",
          "type": "uint8"
        },
        {
          "internalType": "bytes",
          "name": "",
          "type": "bytes"
        },
        {
          "internalType": "uint256",
          "name": "_gav",
          "type": "uint256"
        }
      ],
      "name": "settle",
      "outputs": [
        {
          "internalType": "enum IFeeManager.SettlementType",
          "name": "settlementType_",
          "type": "uint8"
        },
        {
          "internalType": "address",
          "name": "",
          "type": "address"
        },
        {
          "internalType": "uint256",
          "name": "sharesDue_",
          "type": "uint256"
        }
      ],
      "stateMutability": "nonpayable",
      "type": "function"
    },
    {
      "inputs": [
        {
          "internalType": "enum IFeeManager.FeeHook",
          "name": "_hook",
          "type": "uint8"
        }
      ],
      "name": "settlesOnHook",
      "outputs": [
        {
          "internalType": "bool",
          "name": "settles_",
          "type": "bool"
        },
        {
          "internalType": "bool",
          "name": "usesGav_",
          "type": "bool"
        }
      ],
      "stateMutability": "view",
      "type": "function"
    },
    {
      "inputs": [
        {
          "internalType": "address",
          "name": "_comptrollerProxy",
          "type": "address"
        },
        {
          "internalType": "address",
          "name": "_vaultProxy",
          "type": "address"
        },
        {
          "internalType": "enum IFeeManager.FeeHook",
          "name": "",
          "type": "uint8"
        },
        {
          "internalType": "bytes",
          "name": "",
          "type": "bytes"
        },
        {
          "internalType": "uint256",
          "name": "_gav",
          "type": "uint256"
        }
      ],
      "name": "update",
      "outputs": [],
      "stateMutability": "nonpayable",
      "type": "function"
    },
    {
      "inputs": [
        {
          "internalType": "enum IFeeManager.FeeHook",
          "name": "_hook",
          "type": "uint8"
        }
      ],
      "name": "updatesOnHook",
      "outputs": [
        {
          "internalType": "bool",
          "name": "updates_",
          "type": "bool"
        },
        {
          "internalType": "bool",
          "name": "usesGav_",
          "type": "bool"
        }
      ],
      "stateMutability": "view",
      "type": "function"
    }
  ],
  "bytecode": {
    "object": "0x60a060405234801561001057600080fd5b50604051620012e9380380620012e983398101604081905261003191610057565b60601b6001600160601b0319166080526100a5565b80516100518161008e565b92915050565b60006020828403121561006957600080fd5b60006100758484610046565b949350505050565b60006001600160a01b038216610051565b6100978161007d565b81146100a257600080fd5b50565b60805160601c611212620000d7600039806101ce5280610303528061045252806105d1528061082752506112126000f3fe608060405234801561001057600080fd5b50600436106100a95760003560e01c806362780b3c1161007157806362780b3c14610135578063877fd473146101555780638c55f80f14610175578063b78b481314610188578063e337a91f146101a8578063f2d63826146101bb576100a9565b80630f5f6b4f146100ae578063233faf5f146100c35780633146d058146100d6578063320f0ddd146100e957806341892d7e14610113575b600080fd5b6100c16100bc366004610d73565b6101c3565b005b6100c16100d1366004610ce3565b6102f8565b6100c16100e4366004610ca9565b610447565b6100fc6100f7366004610dc9565b610567565b60405161010a929190611098565b60405180910390f35b610126610121366004610ce3565b6105c2565b60405161010a939291906110b3565b610148610143366004610c65565b6106a5565b60405161010a919061107c565b610168610163366004610c65565b6106b8565b60405161010a919061114b565b6100c1610183366004610ca9565b6106f3565b61019b610196366004610ca9565b610812565b60405161010a919061108a565b6100fc6101b6366004610dc9565b61081b565b610148610825565b336001600160a01b037f000000000000000000000000000000000000000000000000000000000000000016146102145760405162461bcd60e51b815260040161020b9061110b565b60405180910390fd5b60008061022383850185610e05565b91509150600082116102475760405162461bcd60e51b815260040161020b9061112b565b6127108211156102695760405162461bcd60e51b815260040161020b906110db565b604080518082018252838152600060208083018281526001600160a01b038a1680845260019283905292859020935184555192019190915590517f90b7d1516011c1da1279f3ae0ed052b1416e7c373d4ec40cf515aa53c5f839df906102d0908590611159565b60405180910390a26001600160a01b038116156102f1576102f18582610849565b5050505050565b336001600160a01b037f000000000000000000000000000000000000000000000000000000000000000016146103405760405162461bcd60e51b815260040161020b9061110b565b6001600160a01b03861660009081526001602081905260409091200154600019141561043f5760006103e38783886001600160a01b03166318160ddd6040518163ffffffff1660e01b815260040160206040518083038186803b1580156103a657600080fd5b505afa1580156103ba573d6000803e3d6000fd5b505050506040513d601f19601f820116820180604052508101906103de9190610de7565b6108a0565b6001600160a01b0388166000818152600160208190526040918290200183905551919250907f0fec258962fcd71a7f561cba93e60d41887eacef883d1b68362ed5dfa493342890610435908490611159565b60405180910390a2505b505050505050565b336001600160a01b037f0000000000000000000000000000000000000000000000000000000000000000161461048f5760405162461bcd60e51b815260040161020b9061110b565b6001600160a01b0382166000818152600160209081526040808320815163369c940f60e21b8152915190949263da72503c926004808201939182900301818787803b1580156104dd57600080fd5b505af11580156104f1573d6000803e3d6000fd5b505050506040513d601f19601f820116820180604052508101906105159190610de7565b9050808260010181905550836001600160a01b03167f67286096839b70891eb51e1532e51d6a709d69c808d1b7e24abcb24a39167d05826040516105599190611159565b60405180910390a250505050565b60008060015b83600381111561057957fe5b14806105905750600383600381111561058e57fe5b145b806105a6575060008360038111156105a457fe5b145b156105b6575060019050806105bd565b5060009050805b915091565b60008080336001600160a01b037f0000000000000000000000000000000000000000000000000000000000000000161461060e5760405162461bcd60e51b815260040161020b9061110b565b600061061b8a8a876109bb565b925090508161063557600080600093509350935050610699565b6001600160a01b038a16600081815260016020819052604091829020600019910155517f468aeeec0e901c52363552a06c1e39331d44c3cc886eb200af127ded3f380f82906106879084908690611167565b60405180910390a26002600093509350505b96509650969350505050565b60006106b082610b0e565b90505b919050565b6106c0610bc0565b506001600160a01b0316600090815260016020818152604092839020835180850190945280548452909101549082015290565b816001600160a01b031663c98091876040518163ffffffff1660e01b815260040160206040518083038186803b15801561072c57600080fd5b505afa158015610740573d6000803e3d6000fd5b505050506040513d601f19601f820116820180604052508101906107649190610c8b565b6001600160a01b031663893d20e86040518163ffffffff1660e01b815260040160206040518083038186803b15801561079c57600080fd5b505afa1580156107b0573d6000803e3d6000fd5b505050506040513d601f19601f820116820180604052508101906107d49190610c8b565b6001600160a01b0316336001600160a01b0316146108045760405162461bcd60e51b815260040161020b9061113b565b61080e8282610849565b5050565b60005b92915050565b600080600261056d565b7f000000000000000000000000000000000000000000000000000000000000000090565b6001600160a01b0382811660008181526020819052604080822080546001600160a01b0319169486169485179055517fa11fc98cfb391622348acc16de92f0efb77d55f71a6e9fa18bfef387ae8d19ce9190a35050565b60008161099557836001600160a01b031663e269c3d66040518163ffffffff1660e01b815260040160206040518083038186803b1580156108e057600080fd5b505afa1580156108f4573d6000803e3d6000fd5b505050506040513d601f19601f820116820180604052508101906109189190610c8b565b6001600160a01b031663313ce5676040518163ffffffff1660e01b815260040160206040518083038186803b15801561095057600080fd5b505afa158015610964573d6000803e3d6000fd5b505050506040513d601f19601f820116820180604052508101906109889190610e24565b60ff16600a0a90506109b4565b6109b1826109ab85670de0b6b3a7640000610b2c565b90610b66565b90505b9392505050565b600080826109ce57506000905080610b06565b6000846001600160a01b03166318160ddd6040518163ffffffff1660e01b815260040160206040518083038186803b158015610a0957600080fd5b505afa158015610a1d573d6000803e3d6000fd5b505050506040513d601f19601f82011682018060405250810190610a419190610de7565b905080610a55576000809250925050610b06565b610a608685836108a0565b6001600160a01b03871660009081526001602081905260409091200154909350808411610a9557600080935093505050610b06565b6000610aa18583610b98565b6001600160a01b03891660009081526001602052604081205491925090610ae690670de0b6b3a7640000906109ab90612710908290610ae0888b610b2c565b90610b2c565b9050610aff610af58883610b98565b6109ab8387610b2c565b9450505050505b935093915050565b6001600160a01b039081166000908152602081905260409020541690565b600082610b3b57506000610815565b82820282848281610b4857fe5b04146109b45760405162461bcd60e51b815260040161020b9061111b565b6000808211610b875760405162461bcd60e51b815260040161020b906110fb565b818381610b9057fe5b049392505050565b600082821115610bba5760405162461bcd60e51b815260040161020b906110eb565b50900390565b604051806040016040528060008152602001600081525090565b8035610815816111d2565b8051610815816111d2565b60008083601f840112610c0257600080fd5b50813567ffffffffffffffff811115610c1a57600080fd5b602083019150836001820283011115610c3257600080fd5b9250929050565b8035610815816111e6565b8035610815816111f3565b8051610815816111f3565b8051610815816111fc565b600060208284031215610c7757600080fd5b6000610c838484610bda565b949350505050565b600060208284031215610c9d57600080fd5b6000610c838484610be5565b60008060408385031215610cbc57600080fd5b6000610cc88585610bda565b9250506020610cd985828601610bda565b9150509250929050565b60008060008060008060a08789031215610cfc57600080fd5b6000610d088989610bda565b9650506020610d1989828a01610bda565b9550506040610d2a89828a01610c39565b945050606087013567ffffffffffffffff811115610d4757600080fd5b610d5389828a01610bf0565b93509350506080610d6689828a01610c44565b9150509295509295509295565b600080600060408486031215610d8857600080fd5b6000610d948686610bda565b935050602084013567ffffffffffffffff811115610db157600080fd5b610dbd86828701610bf0565b92509250509250925092565b600060208284031215610ddb57600080fd5b6000610c838484610c39565b600060208284031215610df957600080fd5b6000610c838484610c4f565b60008060408385031215610e1857600080fd5b6000610cc88585610c44565b600060208284031215610e3657600080fd5b6000610c838484610c5a565b610e4b8161118b565b82525050565b610e4b81611196565b610e4b816111ba565b6000610e70602583611182565b7f61646446756e6453657474696e67733a2066656552617465206d617820657863815264195959195960da1b602082015260400192915050565b6000610eb7601e83611182565b7f536166654d6174683a207375627472616374696f6e206f766572666c6f770000815260200192915050565b6000610ef0601a83611182565b7f536166654d6174683a206469766973696f6e206279207a65726f000000000000815260200192915050565b6000610f29602583611182565b7f4f6e6c7920746865204665654d616e6765722063616e206d616b6520746869738152640818d85b1b60da1b602082015260400192915050565b6000610f70602183611182565b7f536166654d6174683a206d756c7469706c69636174696f6e206f766572666c6f8152607760f81b602082015260400192915050565b6000610fb3602f83611182565b7f61646446756e6453657474696e67733a2066656552617465206d75737420626581526e02067726561746572207468616e203608c1b602082015260400192915050565b6000611004603083611182565b7f5f5f736574526563697069656e74466f7246756e643a204f6e6c79207661756c81526f74206f776e65722063616c6c61626c6560801b602082015260400192915050565b8051604083019061105a8482611073565b50602082015161106d6020850182611073565b50505050565b610e4b816111b1565b602081016108158284610e42565b602081016108158284610e51565b604081016110a68285610e51565b6109b46020830184610e51565b606081016110c18286610e5a565b6110ce6020830185610e42565b610c836040830184611073565b602080825281016106b081610e63565b602080825281016106b081610eaa565b602080825281016106b081610ee3565b602080825281016106b081610f1c565b602080825281016106b081610f63565b602080825281016106b081610fa6565b602080825281016106b081610ff7565b604081016108158284611049565b602081016108158284611073565b604081016111758285611073565b6109b46020830184611073565b90815260200190565b60006106b0826111a5565b151590565b806106b3816111c5565b6001600160a01b031690565b90565b60ff1690565b60006106b08261119b565b600681106111cf57fe5b50565b6111db8161118b565b81146111cf57600080fd5b600481106111cf57600080fd5b6111db816111b1565b6111db816111b456fea164736f6c634300060c000a",
    "linkReferences": {}
  },
  "methodIdentifiers": {
    "activateForFund(address,address)": "3146d058",
    "addFundSettings(address,bytes)": "0f5f6b4f",
    "getFeeInfoForFund(address)": "877fd473",
    "getFeeManager()": "f2d63826",
    "getRecipientForFund(address)": "62780b3c",
    "payout(address,address)": "b78b4813",
    "setRecipientForFund(address,address)": "8c55f80f",
    "settle(address,address,uint8,bytes,uint256)": "41892d7e",
    "settlesOnHook(uint8)": "320f0ddd",
    "update(address,address,uint8,bytes,uint256)": "233faf5f",
    "updatesOnHook(uint8)": "e337a91f"
  },
  "id": 151
}