{
  "_format": "hh-sol-artifact-1",
  "contractName": "PoolTogetherV4Adapter",
  "sourceName": "contracts/release/extensions/integration-manager/integrations/adapters/PoolTogetherV4Adapter.sol",
  "abi": [
    {
      "inputs": [
        {
          "internalType": "address",
          "name": "_integrationManager",
          "type": "address"
        },
        {
          "internalType": "address",
          "name": "_poolTogetherV4PriceFeed",
          "type": "address"
        }
      ],
      "stateMutability": "nonpayable",
      "type": "constructor"
    },
    {
      "inputs": [],
      "name": "CLAIM_REWARDS_SELECTOR",
      "outputs": [
        {
          "internalType": "bytes4",
          "name": "",
          "type": "bytes4"
        }
      ],
      "stateMutability": "view",
      "type": "function"
    },
    {
      "inputs": [],
      "name": "LEND_AND_STAKE_SELECTOR",
      "outputs": [
        {
          "internalType": "bytes4",
          "name": "",
          "type": "bytes4"
        }
      ],
      "stateMutability": "view",
      "type": "function"
    },
    {
      "inputs": [],
      "name": "LEND_SELECTOR",
      "outputs": [
        {
          "internalType": "bytes4",
          "name": "",
          "type": "bytes4"
        }
      ],
      "stateMutability": "view",
      "type": "function"
    },
    {
      "inputs": [],
      "name": "REDEEM_SELECTOR",
      "outputs": [
        {
          "internalType": "bytes4",
          "name": "",
          "type": "bytes4"
        }
      ],
      "stateMutability": "view",
      "type": "function"
    },
    {
      "inputs": [],
      "name": "STAKE_SELECTOR",
      "outputs": [
        {
          "internalType": "bytes4",
          "name": "",
          "type": "bytes4"
        }
      ],
      "stateMutability": "view",
      "type": "function"
    },
    {
      "inputs": [],
      "name": "TAKE_MULTIPLE_ORDERS_SELECTOR",
      "outputs": [
        {
          "internalType": "bytes4",
          "name": "",
          "type": "bytes4"
        }
      ],
      "stateMutability": "view",
      "type": "function"
    },
    {
      "inputs": [],
      "name": "TAKE_ORDER_SELECTOR",
      "outputs": [
        {
          "internalType": "bytes4",
          "name": "",
          "type": "bytes4"
        }
      ],
      "stateMutability": "view",
      "type": "function"
    },
    {
      "inputs": [],
      "name": "UNSTAKE_AND_REDEEM_SELECTOR",
      "outputs": [
        {
          "internalType": "bytes4",
          "name": "",
          "type": "bytes4"
        }
      ],
      "stateMutability": "view",
      "type": "function"
    },
    {
      "inputs": [],
      "name": "UNSTAKE_SELECTOR",
      "outputs": [
        {
          "internalType": "bytes4",
          "name": "",
          "type": "bytes4"
        }
      ],
      "stateMutability": "view",
      "type": "function"
    },
    {
      "inputs": [
        {
          "internalType": "address",
          "name": "_vaultProxy",
          "type": "address"
        },
        {
          "internalType": "bytes",
          "name": "_actionData",
          "type": "bytes"
        },
        {
          "internalType": "bytes",
          "name": "",
          "type": "bytes"
        }
      ],
      "name": "claimRewards",
      "outputs": [],
      "stateMutability": "nonpayable",
      "type": "function"
    },
    {
      "inputs": [],
      "name": "getIntegrationManager",
      "outputs": [
        {
          "internalType": "address",
          "name": "integrationManager_",
          "type": "address"
        }
      ],
      "stateMutability": "view",
      "type": "function"
    },
    {
      "inputs": [],
      "name": "getPoolTogetherV4PriceFeed",
      "outputs": [
        {
          "internalType": "address",
          "name": "poolTogetherV4PriceFeed_",
          "type": "address"
        }
      ],
      "stateMutability": "view",
      "type": "function"
    },
    {
      "inputs": [
        {
          "internalType": "address",
          "name": "_vaultProxy",
          "type": "address"
        },
        {
          "internalType": "bytes",
          "name": "",
          "type": "bytes"
        },
        {
          "internalType": "bytes",
          "name": "_encodedAssetTransferArgs",
          "type": "bytes"
        }
      ],
      "name": "lend",
      "outputs": [],
      "stateMutability": "nonpayable",
      "type": "function"
    },
    {
      "inputs": [
        {
          "internalType": "address",
          "name": "",
          "type": "address"
        },
        {
          "internalType": "bytes4",
          "name": "_selector",
          "type": "bytes4"
        },
        {
          "internalType": "bytes",
          "name": "_actionData",
          "type": "bytes"
        }
      ],
      "name": "parseAssetsForAction",
      "outputs": [
        {
          "internalType": "enum IIntegrationManager.SpendAssetsHandleType",
          "name": "spendAssetsHandleType_",
          "type": "uint8"
        },
        {
          "internalType": "address[]",
          "name": "spendAssets_",
          "type": "address[]"
        },
        {
          "internalType": "uint256[]",
          "name": "spendAssetAmounts_",
          "type": "uint256[]"
        },
        {
          "internalType": "address[]",
          "name": "incomingAssets_",
          "type": "address[]"
        },
        {
          "internalType": "uint256[]",
          "name": "minIncomingAssetAmounts_",
          "type": "uint256[]"
        }
      ],
      "stateMutability": "view",
      "type": "function"
    },
    {
      "inputs": [
        {
          "internalType": "address",
          "name": "_vaultProxy",
          "type": "address"
        },
        {
          "internalType": "bytes",
          "name": "",
          "type": "bytes"
        },
        {
          "internalType": "bytes",
          "name": "_encodedAssetTransferArgs",
          "type": "bytes"
        }
      ],
      "name": "redeem",
      "outputs": [],
      "stateMutability": "nonpayable",
      "type": "function"
    }
  ],
  "bytecode": "0x60c060405234801561001057600080fd5b50604051611c54380380611c548339818101604052604081101561003357600080fd5b5080516020909101516001600160601b0319606092831b8116608052911b1660a05260805160601c60a05160601c611bbd61009760003980610706528061115952806113975250806105e852806107e752806108a45280610a685250611bbd6000f3fe608060405234801561001057600080fd5b50600436106100f55760003560e01c8063863e5ad011610097578063c32990a211610066578063c32990a2146103df578063c54efee5146103e7578063e7c45690146105a9578063f7d882b5146105b1576100f5565b8063863e5ad014610233578063b23228cf1461023b578063b9dfbacc14610243578063c29fa9dd14610311576100f5565b80631687c89b116100d35780631687c89b146101f7578063257cb1a31461021b5780633ffc15911461022357806340da225d1461022b576100f5565b8063080456c1146100fa578063099f75151461011f578063131461c0146101ef575b600080fd5b6101026105b9565b604080516001600160e01b03199092168252519081900360200190f35b6101ed6004803603606081101561013557600080fd5b6001600160a01b038235169190810190604081016020820135600160201b81111561015f57600080fd5b82018360208201111561017157600080fd5b803590602001918460018302840111600160201b8311171561019257600080fd5b919390929091602081019035600160201b8111156101af57600080fd5b8201836020820111156101c157600080fd5b803590602001918460018302840111600160201b831117156101e257600080fd5b5090925090506105dd565b005b6101026106e0565b6101ff610704565b604080516001600160a01b039092168252519081900360200190f35b610102610728565b61010261074c565b610102610770565b610102610794565b6101026107b8565b6101ed6004803603606081101561025957600080fd5b6001600160a01b038235169190810190604081016020820135600160201b81111561028357600080fd5b82018360208201111561029557600080fd5b803590602001918460018302840111600160201b831117156102b657600080fd5b919390929091602081019035600160201b8111156102d357600080fd5b8201836020820111156102e557600080fd5b803590602001918460018302840111600160201b8311171561030657600080fd5b5090925090506107dc565b6101ed6004803603606081101561032757600080fd5b6001600160a01b038235169190810190604081016020820135600160201b81111561035157600080fd5b82018360208201111561036357600080fd5b803590602001918460018302840111600160201b8311171561038457600080fd5b919390929091602081019035600160201b8111156103a157600080fd5b8201836020820111156103b357600080fd5b803590602001918460018302840111600160201b831117156103d457600080fd5b509092509050610899565b610102610983565b610474600480360360608110156103fd57600080fd5b6001600160a01b03823516916001600160e01b031960208201351691810190606081016040820135600160201b81111561043657600080fd5b82018360208201111561044857600080fd5b803590602001918460018302840111600160201b8311171561046957600080fd5b5090925090506109a7565b6040518086600281111561048457fe5b815260200180602001806020018060200180602001858103855289818151815260200191508051906020019060200280838360005b838110156104d15781810151838201526020016104b9565b50505050905001858103845288818151815260200191508051906020019060200280838360005b838110156105105781810151838201526020016104f8565b50505050905001858103835287818151815260200191508051906020019060200280838360005b8381101561054f578181015183820152602001610537565b50505050905001858103825286818151815260200191508051906020019060200280838360005b8381101561058e578181015183820152602001610576565b50505050905001995050505050505050505060405180910390f35b6101ff610a66565b610102610a8a565b7f8334eb99be0145865eba9889fca2ee920288090caefff4cc776038e20ad9259a81565b336001600160a01b037f000000000000000000000000000000000000000000000000000000000000000016146106445760405162461bcd60e51b8152600401808060200182810382526032815260200180611acd6032913960400191505060405180910390fd5b606080606061068885858080601f016020809104026020016040519081016040528093929190818152602001838380828437600092019190915250610aae92505050565b9250925092506106d6888460008151811061069f57fe5b6020026020010151846000815181106106b457fe5b6020026020010151846000815181106106c957fe5b6020026020010151610c6b565b5050505050505050565b7f29fa046e79524c3c5ac4c01df692c35e217802b2b13b21121b76cf0ef02b138c81565b7f000000000000000000000000000000000000000000000000000000000000000090565b7f099f75155f0e997bf83a7993a71d5e7e7540bd386fe1e84643a09ce6b412521981565b7ffa7dd04da627f433da73c4355ead9c75682a67a8fc84d3f6170ef0922f402d2481565b7fb9dfbaccbe5cd2a84fdcf1d15f23ef25d23086f5afbaa99516065ed4a5bbc7a381565b7f03e38a2bd7063d45c897edeafc330e71657502dd86434d3c37a489caf116af6981565b7f68e30677f607df46e87da13e15b637784cfa62374b653f35ab43d10361a2f83081565b336001600160a01b037f000000000000000000000000000000000000000000000000000000000000000016146108435760405162461bcd60e51b8152600401808060200182810382526032815260200180611acd6032913960400191505060405180910390fd5b600060608061088787878080601f016020809104026020016040519081016040528093929190818152602001838380828437600092019190915250610d5792505050565b9250925092506106d688848484610eb9565b336001600160a01b037f000000000000000000000000000000000000000000000000000000000000000016146109005760405162461bcd60e51b8152600401808060200182810382526032815260200180611acd6032913960400191505060405180910390fd5b60608061094284848080601f016020809104026020016040519081016040528093929190818152602001838380828437600092019190915250610aae92505050565b509150915061097a878360008151811061095857fe5b60200260200101518360008151811061096d57fe5b6020026020010151610fea565b50505050505050565b7f0e7f692dad5b88fdee426250d6eae91207e56a2e8112b7364579bed1790e5bf481565b600060608080806001600160e01b03198816632e77eeb360e21b14156109de576109cf6110a7565b94509450945094509450610a5b565b6001600160e01b0319881663099f751560e01b1415610a01576109cf8787611107565b6001600160e01b0319881663c29fa9dd60e01b1415610a24576109cf8787611345565b60405162461bcd60e51b8152600401808060200182810382526027815260200180611a806027913960400191505060405180910390fd5b945094509450945094565b7f000000000000000000000000000000000000000000000000000000000000000090565b7fc29fa9dde84204c2908778afd0613d802d31cf046179b88f6d2b4a4e507ea2d581565b6060806060838060200190516060811015610ac857600080fd5b8101908080516040519392919084600160201b821115610ae757600080fd5b908301906020820185811115610afc57600080fd5b82518660208202830111600160201b82111715610b1857600080fd5b82525081516020918201928201910280838360005b83811015610b45578181015183820152602001610b2d565b5050505090500160405260200180516040519392919084600160201b821115610b6d57600080fd5b908301906020820185811115610b8257600080fd5b82518660208202830111600160201b82111715610b9e57600080fd5b82525081516020918201928201910280838360005b83811015610bcb578181015183820152602001610bb3565b5050505090500160405260200180516040519392919084600160201b821115610bf357600080fd5b908301906020820185811115610c0857600080fd5b82518660208202830111600160201b82111715610c2457600080fd5b82525081516020918201928201910280838360005b83811015610c51578181015183820152602001610c39565b505050509050016040525050509250925092509193909250565b6000816001600160a01b031663f77c47916040518163ffffffff1660e01b815260040160206040518083038186803b158015610ca657600080fd5b505afa158015610cba573d6000803e3d6000fd5b505050506040513d6020811015610cd057600080fd5b50519050610cdf848285611583565b6040805163d7a169eb60e01b81526001600160a01b038781166004830181905260248301879052604483015291519183169163d7a169eb9160648082019260009290919082900301818387803b158015610d3857600080fd5b505af1158015610d4c573d6000803e3d6000fd5b505050505050505050565b6000606080838060200190516060811015610d7157600080fd5b815160208301805160405192949293830192919084600160201b821115610d9757600080fd5b908301906020820185811115610dac57600080fd5b82518660208202830111600160201b82111715610dc857600080fd5b82525081516020918201928201910280838360005b83811015610df5578181015183820152602001610ddd565b5050505090500160405260200180516040519392919084600160201b821115610e1d57600080fd5b908301906020820185811115610e3257600080fd5b8251600160201b811182820188101715610e4b57600080fd5b82525081516020918201929091019080838360005b83811015610e78578181015183820152602001610e60565b50505050905090810190601f168015610ea55780820380516001836020036101000a031916815260200191505b506040525050509250925092509193909250565b826001600160a01b031663bb7d4e2d8584846040518463ffffffff1660e01b815260040180846001600160a01b031681526020018060200180602001838103835285818151815260200191508051906020019060200280838360005b83811015610f2d578181015183820152602001610f15565b50505050905001838103825284818151815260200191508051906020019080838360005b83811015610f69578181015183820152602001610f51565b50505050905090810190601f168015610f965780820380516001836020036101000a031916815260200191505b5095505050505050602060405180830381600087803b158015610fb857600080fd5b505af1158015610fcc573d6000803e3d6000fd5b505050506040513d6020811015610fe257600080fd5b505050505050565b6000826001600160a01b031663f77c47916040518163ffffffff1660e01b815260040160206040518083038186803b15801561102557600080fd5b505afa158015611039573d6000803e3d6000fd5b505050506040513d602081101561104f57600080fd5b505160408051639470b0bd60e01b81526001600160a01b03878116600483015260248201869052915192935090831691639470b0bd916044808201926020929091908290030181600087803b158015610fb857600080fd5b6000606080808084806040519080825280602002602001820160405280156110d9578160200160208202803683370190505b5060408051600080825260208201818152828401918252606083019093529399929850965094509092509050565b600060608060608060008061115189898080601f01602080910402602001604051908101604052809392919081815260200183838082843760009201919091525061164192505050565b9150915060007f00000000000000000000000000000000000000000000000000000000000000006001600160a01b03166366adb867846040518263ffffffff1660e01b815260040180826001600160a01b0316815260200191505060206040518083038186803b1580156111c457600080fd5b505afa1580156111d8573d6000803e3d6000fd5b505050506040513d60208110156111ee57600080fd5b505190506001600160a01b0381166112375760405162461bcd60e51b8152600401808060200182810382526029815260200180611aff6029913960400191505060405180910390fd5b6040805160018082528183019092529060208083019080368337019050509650808760008151811061126557fe5b6001600160a01b039290921660209283029190910182015260408051600180825281830190925291828101908036833701905050955081866000815181106112a957fe5b60209081029190910101526040805160018082528183019092529081602001602082028036833701905050945082856000815181106112e457fe5b6001600160a01b0392909216602092830291909101820152604080516001808252818301909252918281019080368337019050509350818460008151811061132857fe5b602002602001018181525050600297505050509295509295909350565b600060608060608060008061138f89898080601f01602080910402602001604051908101604052809392919081815260200183838082843760009201919091525061164192505050565b9150915060007f00000000000000000000000000000000000000000000000000000000000000006001600160a01b03166366adb867846040518263ffffffff1660e01b815260040180826001600160a01b0316815260200191505060206040518083038186803b15801561140257600080fd5b505afa158015611416573d6000803e3d6000fd5b505050506040513d602081101561142c57600080fd5b505190506001600160a01b0381166114755760405162461bcd60e51b815260040180806020018281038252602b815260200180611a55602b913960400191505060405180910390fd5b604080516001808252818301909252906020808301908036833701905050965082876000815181106114a357fe5b6001600160a01b039290921660209283029190910182015260408051600180825281830190925291828101908036833701905050955081866000815181106114e757fe5b602090810291909101015260408051600180825281830190925290816020016020820280368337019050509450808560008151811061152257fe5b6001600160a01b0392909216602092830291909101820152604080516001808252818301909252918281019080368337019050509350818460008151811061156657fe5b602002602001018181525050600197505050509295509295909350565b60408051636eb1769f60e11b81523060048201526001600160a01b038481166024830152915160009286169163dd62ed3e916044808301926020929190829003018186803b1580156115d457600080fd5b505afa1580156115e8573d6000803e3d6000fd5b505050506040513d60208110156115fe57600080fd5b505190508181101561163b578015611625576116256001600160a01b03851684600061166c565b61163b6001600160a01b0385168460001961166c565b50505050565b60008082806020019051604081101561165957600080fd5b5080516020909101519092509050915091565b8015806116f2575060408051636eb1769f60e11b81523060048201526001600160a01b03848116602483015291519185169163dd62ed3e91604480820192602092909190829003018186803b1580156116c457600080fd5b505afa1580156116d8573d6000803e3d6000fd5b505050506040513d60208110156116ee57600080fd5b5051155b61172d5760405162461bcd60e51b8152600401808060200182810382526036815260200180611b526036913960400191505060405180910390fd5b604080516001600160a01b038416602482015260448082018490528251808303909101815260649091019091526020810180516001600160e01b031663095ea7b360e01b17905261177f908490611784565b505050565b60606117d9826040518060400160405280602081526020017f5361666545524332303a206c6f772d6c6576656c2063616c6c206661696c6564815250856001600160a01b03166118359092919063ffffffff16565b80519091501561177f578080602001905160208110156117f857600080fd5b505161177f5760405162461bcd60e51b815260040180806020018281038252602a815260200180611b28602a913960400191505060405180910390fd5b6060611844848460008561184e565b90505b9392505050565b60608247101561188f5760405162461bcd60e51b8152600401808060200182810382526026815260200180611aa76026913960400191505060405180910390fd5b611898856119aa565b6118e9576040805162461bcd60e51b815260206004820152601d60248201527f416464726573733a2063616c6c20746f206e6f6e2d636f6e7472616374000000604482015290519081900360640190fd5b60006060866001600160a01b031685876040518082805190602001908083835b602083106119285780518252601f199092019160209182019101611909565b6001836020036101000a03801982511681845116808217855250505050505090500191505060006040518083038185875af1925050503d806000811461198a576040519150601f19603f3d011682016040523d82523d6000602084013e61198f565b606091505b509150915061199f8282866119b0565b979650505050505050565b3b151590565b606083156119bf575081611847565b8251156119cf5782518084602001fd5b8160405162461bcd60e51b81526004018080602001828103825283818151815260200191508051906020019080838360005b83811015611a19578181015183820152602001611a01565b50505050905090810190601f168015611a465780820380516001836020036101000a031916815260200191505b509250505060405180910390fdfe5f5f7061727365417373657473466f7252656465656d3a20556e737570706f72746564207074546f6b656e7061727365417373657473466f724d6574686f643a205f73656c6563746f7220696e76616c6964416464726573733a20696e73756666696369656e742062616c616e636520666f722063616c6c4f6e6c792074686520496e746567726174696f6e4d616e616765722063616e2063616c6c20746869732066756e6374696f6e5f5f7061727365417373657473466f724c656e643a20556e737570706f72746564207074546f6b656e5361666545524332303a204552433230206f7065726174696f6e20646964206e6f7420737563636565645361666545524332303a20617070726f76652066726f6d206e6f6e2d7a65726f20746f206e6f6e2d7a65726f20616c6c6f77616e6365a26469706673582212206fb29db8136fdeea175b76ed838cb7595b907c7c771d2b480a7f1ed1eac2ec5164736f6c634300060c0033",
  "linkReferences": {},
  "deployedLinkReferences": {}
}