{"abi":[{"type":"receive","stateMutability":"payable"},{"type":"function","name":"receiveReentrantContract","inputs":[],"outputs":[{"name":"","type":"address","internalType":"address"}],"stateMutability":"view"},{"type":"function","name":"receiveReentrantData","inputs":[],"outputs":[{"name":"","type":"bytes","internalType":"bytes"}],"stateMutability":"view"},{"type":"function","name":"receiveReentrantReturnData","inputs":[],"outputs":[{"name":"","type":"bytes","internalType":"bytes"}],"stateMutability":"view"},{"type":"function","name":"receiveReentrantValue","inputs":[],"outputs":[{"name":"","type":"uint256","internalType":"uint256"}],"stateMutability":"view"},{"type":"function","name":"setReceiveReentrantPayload","inputs":[{"name":"_contract","type":"address","internalType":"address"},{"name":"_data","type":"bytes","internalType":"bytes"},{"name":"_value","type":"uint256","internalType":"uint256"}],"outputs":[],"stateMutability":"nonpayable"}],"bytecode":{"object":"0x608060405234801561001057600080fd5b5061051c806100206000396000f3fe60806040526004361061004e5760003560e01c806364257ffc1461015d578063aaea33f7146101e7578063affb459114610218578063b5bd51db1461023f578063d054fef51461025457610158565b36610158576000546001600160a01b03161561015657600019600254141561007557476002555b606060008054906101000a90046001600160a01b03166001600160a01b0316600254600160405180828054600181600116156101000203166002900480156100f45780601f106100d25761010080835404028352918201916100f4565b820191906000526020600020905b8154815290600101906020018083116100e0575b505091505060006040518083038185875af1925050503d8060008114610136576040519150601f19603f3d011682016040523d82523d6000602084013e61013b565b606091505b5080519092506101539150600390602084019061040e565b50505b005b600080fd5b34801561016957600080fd5b506101726102e1565b6040805160208082528351818301528351919283929083019185019080838360005b838110156101ac578181015183820152602001610194565b50505050905090810190601f1680156101d95780820380516001836020036101000a031916815260200191505b509250505060405180910390f35b3480156101f357600080fd5b506101fc61036f565b604080516001600160a01b039092168252519081900360200190f35b34801561022457600080fd5b5061022d61037e565b60408051918252519081900360200190f35b34801561024b57600080fd5b50610172610384565b34801561026057600080fd5b506101566004803603606081101561027757600080fd5b6001600160a01b0382351691908101906040810160208201356401000000008111156102a257600080fd5b8201836020820111156102b457600080fd5b803590602001918460018302840111640100000000831117156102d657600080fd5b9193509150356103de565b6003805460408051602060026001851615610100026000190190941693909304601f810184900484028201840190925281815292918301828280156103675780601f1061033c57610100808354040283529160200191610367565b820191906000526020600020905b81548152906001019060200180831161034a57829003601f168201915b505050505081565b6000546001600160a01b031681565b60025481565b60018054604080516020600284861615610100026000190190941693909304601f810184900484028201840190925281815292918301828280156103675780601f1061033c57610100808354040283529160200191610367565b600080546001600160a01b0319166001600160a01b0386161790556104056001848461048c565b50600255505050565b828054600181600116156101000203166002900490600052602060002090601f016020900481019282601f1061044f57805160ff191683800117855561047c565b8280016001018555821561047c579182015b8281111561047c578251825591602001919060010190610461565b506104889291506104fa565b5090565b828054600181600116156101000203166002900490600052602060002090601f016020900481019282601f106104cd5782800160ff1982351617855561047c565b8280016001018555821561047c579182015b8281111561047c5782358255916020019190600101906104df565b5b8082111561048857600081556001016104fb56fea164736f6c634300060c000a","linkReferences":{}},"methodIdentifiers":{"receiveReentrantContract()":"aaea33f7","receiveReentrantData()":"b5bd51db","receiveReentrantReturnData()":"64257ffc","receiveReentrantValue()":"affb4591","setReceiveReentrantPayload(address,bytes,uint256)":"d054fef5"},"id":368}