{
  "abi": [
    {
      "inputs": [
        {
          "internalType": "address payable",
          "name": "_recipient",
          "type": "address"
        }
      ],
      "name": "destructTo",
      "outputs": [],
      "stateMutability": "payable",
      "type": "function"
    }
  ],
  "bytecode": {
    "object": "0x6080604052348015600f57600080fd5b50605f8061001e6000396000f3fe608060405260043610601c5760003560e01c806337a55f77146021575b600080fd5b604460048036036020811015603557600080fd5b50356001600160a01b03166046565b005b806001600160a01b0316fffea164736f6c634300060c000a",
    "linkReferences": {}
  },
  "deployedBytecode": {
    "object": "0x608060405260043610601c5760003560e01c806337a55f77146021575b600080fd5b604460048036036020811015603557600080fd5b50356001600160a01b03166046565b005b806001600160a01b0316fffea164736f6c634300060c000a",
    "linkReferences": {}
  },
  "methodIdentifiers": {
    "destructTo(address)": "37a55f77"
  },
  "id": 369
}