{
  "abi": [
    {
      "inputs": [
        {
          "internalType": "address",
          "name": "_globalConfigProxy",
          "type": "address"
        },
        {
          "internalType": "address",
          "name": "_initializer",
          "type": "address"
        }
      ],
      "stateMutability": "nonpayable",
      "type": "constructor"
    },
    {
      "anonymous": false,
      "inputs": [
        {
          "indexed": true,
          "internalType": "address",
          "name": "user",
          "type": "address"
        },
        {
          "indexed": false,
          "internalType": "uint256",
          "name": "percentage",
          "type": "uint256"
        }
      ],
      "name": "SplitPercentageSet",
      "type": "event"
    },
    {
      "anonymous": false,
      "inputs": [
        {
          "indexed": true,
          "internalType": "address",
          "name": "user",
          "type": "address"
        },
        {
          "indexed": true,
          "internalType": "address",
          "name": "token",
          "type": "address"
        },
        {
          "indexed": false,
          "internalType": "uint256",
          "name": "amount",
          "type": "uint256"
        }
      ],
      "name": "TokenClaimed",
      "type": "event"
    },
    {
      "inputs": [
        {
          "internalType": "address",
          "name": "_token",
          "type": "address"
        }
      ],
      "name": "claimToken",
      "outputs": [
        {
          "internalType": "uint256",
          "name": "claimedAmount_",
          "type": "uint256"
        }
      ],
      "stateMutability": "nonpayable",
      "type": "function"
    },
    {
      "inputs": [
        {
          "internalType": "address",
          "name": "_token",
          "type": "address"
        },
        {
          "internalType": "uint256",
          "name": "_amount",
          "type": "uint256"
        },
        {
          "internalType": "address",
          "name": "_to",
          "type": "address"
        }
      ],
      "name": "claimTokenAmountTo",
      "outputs": [
        {
          "internalType": "uint256",
          "name": "claimedAmount_",
          "type": "uint256"
        }
      ],
      "stateMutability": "nonpayable",
      "type": "function"
    },
    {
      "inputs": [
        {
          "internalType": "address",
          "name": "_user",
          "type": "address"
        }
      ],
      "name": "getSplitPercentageForUser",
      "outputs": [
        {
          "internalType": "uint256",
          "name": "splitPercentage_",
          "type": "uint256"
        }
      ],
      "stateMutability": "view",
      "type": "function"
    },
    {
      "inputs": [
        {
          "internalType": "address",
          "name": "_user",
          "type": "address"
        },
        {
          "internalType": "address",
          "name": "_token",
          "type": "address"
        }
      ],
      "name": "getTokenBalClaimableForUser",
      "outputs": [
        {
          "internalType": "uint256",
          "name": "balClaimable_",
          "type": "uint256"
        }
      ],
      "stateMutability": "view",
      "type": "function"
    },
    {
      "inputs": [
        {
          "internalType": "address",
          "name": "_user",
          "type": "address"
        },
        {
          "internalType": "address",
          "name": "_token",
          "type": "address"
        }
      ],
      "name": "getTokenBalClaimedForUser",
      "outputs": [
        {
          "internalType": "uint256",
          "name": "balClaimed_",
          "type": "uint256"
        }
      ],
      "stateMutability": "view",
      "type": "function"
    },
    {
      "inputs": [
        {
          "internalType": "address",
          "name": "_token",
          "type": "address"
        }
      ],
      "name": "getTotalTokenBalClaimed",
      "outputs": [
        {
          "internalType": "uint256",
          "name": "totalBalClaimed_",
          "type": "uint256"
        }
      ],
      "stateMutability": "view",
      "type": "function"
    },
    {
      "inputs": [
        {
          "internalType": "address[]",
          "name": "_users",
          "type": "address[]"
        },
        {
          "internalType": "uint256[]",
          "name": "_splitPercentages",
          "type": "uint256[]"
        }
      ],
      "name": "init",
      "outputs": [],
      "stateMutability": "nonpayable",
      "type": "function"
    },
    {
      "inputs": [
        {
          "internalType": "address",
          "name": "_vaultProxy",
          "type": "address"
        },
        {
          "internalType": "uint256",
          "name": "_amount",
          "type": "uint256"
        },
        {
          "internalType": "address",
          "name": "_redeemContract",
          "type": "address"
        },
        {
          "internalType": "bytes4",
          "name": "_redeemSelector",
          "type": "bytes4"
        },
        {
          "internalType": "bytes",
          "name": "_redeemData",
          "type": "bytes"
        }
      ],
      "name": "redeemShares",
      "outputs": [
        {
          "internalType": "uint256",
          "name": "sharesRedeemed_",
          "type": "uint256"
        }
      ],
      "stateMutability": "nonpayable",
      "type": "function"
    }
  ],
  "bytecode": {
    "object": "0x60c060405234801561001057600080fd5b506040516111e33803806111e38339818101604052604081101561003357600080fd5b5080516020909101516001600160601b0319606092831b8116608052911b1660a05260805160601c60a05160601c61116561007e6000398061035b5250806104e152506111656000f3fe608060405234801561001057600080fd5b50600436106100885760003560e01c8063418981821161005b57806341898182146101e55780638a3503fa14610213578063c91995a314610239578063cb482df6146102d957610088565b80630cffb1851461008d5780630f0ee54c146100c557806332f289cf146100fb578063371aa15814610121575b600080fd5b6100b3600480360360208110156100a357600080fd5b50356001600160a01b0316610307565b60408051918252519081900360200190f35b6100b3600480360360608110156100db57600080fd5b506001600160a01b03813581169160208101359160409091013516610322565b6100b36004803603602081101561011157600080fd5b50356001600160a01b031661033a565b6101e36004803603604081101561013757600080fd5b81019060208101813564010000000081111561015257600080fd5b82018360208201111561016457600080fd5b8035906020019184602083028401116401000000008311171561018657600080fd5b9193909290916020810190356401000000008111156101a457600080fd5b8201836020820111156101b657600080fd5b803590602001918460208302840111640100000000831117156101d857600080fd5b509092509050610350565b005b6100b3600480360360408110156101fb57600080fd5b506001600160a01b0381358116916020013516610435565b6100b36004803603602081101561022957600080fd5b50356001600160a01b0316610460565b6100b3600480360360a081101561024f57600080fd5b6001600160a01b0382358116926020810135926040820135909216916001600160e01b0319606083013516919081019060a08101608082013564010000000081111561029a57600080fd5b8201836020820111156102ac57600080fd5b803590602001918460018302840111640100000000831117156102ce57600080fd5b50909250905061047b565b6100b3600480360360408110156102ef57600080fd5b506001600160a01b03813581169160200135166107a1565b6001600160a01b031660009081526020819052604090205490565b600061033033858585610849565b90505b9392505050565b600061034a338360001933610849565b92915050565b336001600160a01b037f000000000000000000000000000000000000000000000000000000000000000016146103c2576040805162461bcd60e51b81526020600482015260126024820152711a5b9a5d0e88155b985d5d1a1bdc9a5e995960721b604482015290519081900360640190fd5b61042f8484808060200260200160405190810160405280939291908181526020018383602002808284376000920191909152505060408051602080880282810182019093528782529093508792508691829185019084908082843760009201919091525061087492505050565b50505050565b6001600160a01b03918216600090815260026020908152604080832093909416825291909152205490565b6001600160a01b031660009081526001602052604090205490565b6000610488338888610ae3565b9050600081116104df576040805162461bcd60e51b815260206004820152601f60248201527f72656465656d5368617265733a204e6f2073686172657320636c61696d656400604482015290519081900360640190fd5b7f00000000000000000000000000000000000000000000000000000000000000006001600160a01b0316635d4755dc8861aaaa84898989896040518863ffffffff1660e01b815260040180886001600160a01b03168152602001876001600160a01b03168152602001868152602001856001600160a01b03168152602001846001600160e01b0319168152602001806020018281038252848482818152602001925080828437600081840152601f19601f8201169050808301925050509850505050505050505060206040518083038186803b1580156105be57600080fd5b505afa1580156105d2573d6000803e3d6000fd5b505050506040513d60208110156105e857600080fd5b50516106255760405162461bcd60e51b81526004018080602001828103825260218152602001806110c86021913960400191505060405180910390fd5b60006060866001600160a01b031686868660405160200180846001600160e01b03191681526004018383808284378083019250505093505050506040516020818303038152906040526040518082805190602001908083835b6020831061069d5780518252601f19909201916020918201910161067e565b6001836020036101000a0380198251168184511680821785525050505050509050019150506000604051808303816000865af19150503d80600081146106ff576040519150601f19603f3d011682016040523d82523d6000602084013e610704565b606091505b50915091508181906107945760405162461bcd60e51b81526004018080602001828103825283818151815260200191508051906020019080838360005b83811015610759578181015183820152602001610741565b50505050905090810190601f1680156107865780820380516001836020036101000a031916815260200191505b509250505060405180910390fd5b5050509695505050505050565b60006103336107af84610460565b6107b98585610435565b610844856001600160a01b03166370a08231306040518263ffffffff1660e01b815260040180826001600160a01b0316815260200191505060206040518083038186803b15801561080957600080fd5b505afa15801561081d573d6000803e3d6000fd5b505050506040513d602081101561083357600080fd5b505161083e87610307565b90610c8d565b610ce7565b6000610856858585610ae3565b905061086c6001600160a01b0385168383610d15565b949350505050565b6000805b8351811015610a875760006001600160a01b031684828151811061089857fe5b60200260200101516001600160a01b031614156108fc576040805162461bcd60e51b815260206004820152601b60248201527f5f5f73657453706c6974526174696f3a20456d70747920757365720000000000604482015290519081900360640190fd5b600181015b845181101561099f5784818151811061091657fe5b60200260200101516001600160a01b031685838151811061093357fe5b60200260200101516001600160a01b03161415610997576040805162461bcd60e51b815260206004820152601f60248201527f5f5f73657453706c6974526174696f3a204475706c6963617465207573657200604482015290519081900360640190fd5b600101610901565b508281815181106109ac57fe5b6020026020010151600160008684815181106109c457fe5b60200260200101516001600160a01b03166001600160a01b0316815260200190815260200160002081905550610a168382815181106109ff57fe5b602002602001015183610c8d90919063ffffffff16565b9150838181518110610a2457fe5b60200260200101516001600160a01b03167f531137a286e6d7db4298ad238c8007a3e9f4d5c41c4550d1f22c1b6965103ecd848381518110610a6257fe5b60200260200101516040518082815260200191505060405180910390a2600101610878565b506127108114610ade576040805162461bcd60e51b815260206004820152601f60248201527f5f5f73657453706c6974526174696f3a2053706c6974206e6f74203130302500604482015290519081900360640190fd5b505050565b600080610aef84610307565b90506000610afd8686610435565b90506000610b84866001600160a01b03166370a08231306040518263ffffffff1660e01b815260040180826001600160a01b0316815260200191505060206040518083038186803b158015610b5157600080fd5b505afa158015610b65573d6000803e3d6000fd5b505050506040513d6020811015610b7b57600080fd5b50518490610c8d565b90506000610b9b610b9489610460565b8484610ce7565b9050600019861415610baf57809450610bf2565b80861115610bee5760405162461bcd60e51b81526004018080602001828103825260258152602001806111346025913960400191505060405180910390fd5b8594505b610bfc8486610c8d565b6001600160a01b038816600090815260208190526040902055610c1f8386610c8d565b6001600160a01b03808a166000818152600260209081526040808320948d16808452948252918290209490945580518981529051929391927f4831bdd9dcf3048a28319ce81d3cab7a15366bcf449bc7803a539107440809cc929181900390910190a3505050509392505050565b600082820183811015610333576040805162461bcd60e51b815260206004820152601b60248201527f536166654d6174683a206164646974696f6e206f766572666c6f770000000000604482015290519081900360640190fd5b600080610d00612710610cfa8588610d67565b90610dc0565b9050610d0c8185610e27565b95945050505050565b604080516001600160a01b038416602482015260448082018490528251808303909101815260649091019091526020810180516001600160e01b031663a9059cbb60e01b179052610ade908490610e84565b600082610d765750600061034a565b82820282848281610d8357fe5b04146103335760405162461bcd60e51b81526004018080602001828103825260218152602001806110e96021913960400191505060405180910390fd5b6000808211610e16576040805162461bcd60e51b815260206004820152601a60248201527f536166654d6174683a206469766973696f6e206279207a65726f000000000000604482015290519081900360640190fd5b818381610e1f57fe5b049392505050565b600082821115610e7e576040805162461bcd60e51b815260206004820152601e60248201527f536166654d6174683a207375627472616374696f6e206f766572666c6f770000604482015290519081900360640190fd5b50900390565b6060610ed9826040518060400160405280602081526020017f5361666545524332303a206c6f772d6c6576656c2063616c6c206661696c6564815250856001600160a01b0316610f359092919063ffffffff16565b805190915015610ade57808060200190516020811015610ef857600080fd5b5051610ade5760405162461bcd60e51b815260040180806020018281038252602a81526020018061110a602a913960400191505060405180910390fd5b6060610330848460008585610f498561105b565b610f9a576040805162461bcd60e51b815260206004820152601d60248201527f416464726573733a2063616c6c20746f206e6f6e2d636f6e7472616374000000604482015290519081900360640190fd5b60006060866001600160a01b031685876040518082805190602001908083835b60208310610fd95780518252601f199092019160209182019101610fba565b6001836020036101000a03801982511681845116808217855250505050505090500191505060006040518083038185875af1925050503d806000811461103b576040519150601f19603f3d011682016040523d82523d6000602084013e611040565b606091505b5091509150611050828286611061565b979650505050505050565b3b151590565b60608315611070575081610333565b8251156110805782518084602001fd5b60405162461bcd60e51b815260206004820181815284516024840152845185939192839260440191908501908083836000831561075957818101518382015260200161074156fe72656465656d5368617265733a20496e76616c69642072656465656d2063616c6c536166654d6174683a206d756c7469706c69636174696f6e206f766572666c6f775361666545524332303a204552433230206f7065726174696f6e20646964206e6f742073756363656564636c61696d546f6b656e3a205f616d6f756e74206578636565647320636c61696d61626c65a164736f6c634300060c000a",
    "linkReferences": {}
  },
  "methodIdentifiers": {
    "claimToken(address)": "32f289cf",
    "claimTokenAmountTo(address,uint256,address)": "0f0ee54c",
    "getSplitPercentageForUser(address)": "8a3503fa",
    "getTokenBalClaimableForUser(address,address)": "cb482df6",
    "getTokenBalClaimedForUser(address,address)": "41898182",
    "getTotalTokenBalClaimed(address)": "0cffb185",
    "init(address[],uint256[])": "371aa158",
    "redeemShares(address,uint256,address,bytes4,bytes)": "c91995a3"
  },
  "id": 59
}