{
  "abi": [
    {
      "inputs": [],
      "stateMutability": "nonpayable",
      "type": "constructor"
    },
    {
      "inputs": [],
      "name": "getMlnToken",
      "outputs": [
        {
          "internalType": "contract IERC20",
          "name": "",
          "type": "address"
        }
      ],
      "stateMutability": "view",
      "type": "function"
    },
    {
      "inputs": [],
      "name": "getWethToken",
      "outputs": [
        {
          "internalType": "contract IWETH",
          "name": "",
          "type": "address"
        }
      ],
      "stateMutability": "view",
      "type": "function"
    },
    {
      "inputs": [],
      "name": "getWrappedNativeToken",
      "outputs": [
        {
          "internalType": "contract IWETH",
          "name": "",
          "type": "address"
        }
      ],
      "stateMutability": "view",
      "type": "function"
    }
  ],
  "bytecode": {
    "object": "0x60e060405234801561001057600080fd5b506000608081905260a081905260c0819052808061011d6100468239600060480152600060800152600060a6015261011d6000f3fe608060405234801561001057600080fd5b50600436106100415760003560e01c80631d9478b6146100465780634c252f911461007e578063e70e605e146100a4575b600080fd5b7f00000000000000000000000000000000000000000000000000000000000000005b6040516100759190610102565b60405180910390f35b7f0000000000000000000000000000000000000000000000000000000000000000610068565b7f0000000000000000000000000000000000000000000000000000000000000000610068565b60006001600160a01b0382165b92915050565b60006100d7826100ca565b60006100d7826100dd565b6100fc816100e8565b82525050565b602081016100d782846100f356fea164736f6c6343000811000a",
    "linkReferences": {}
  },
  "methodIdentifiers": {
    "getMlnToken()": "e70e605e",
    "getWethToken()": "4c252f91",
    "getWrappedNativeToken()": "1d9478b6"
  },
  "id": 27
}