{
  "abi": [
    {
      "anonymous": false,
      "inputs": [
        {
          "indexed": true,
          "internalType": "address",
          "name": "user",
          "type": "address"
        },
        {
          "indexed": false,
          "internalType": "uint256",
          "name": "percentage",
          "type": "uint256"
        }
      ],
      "name": "SplitPercentageSet",
      "type": "event"
    },
    {
      "anonymous": false,
      "inputs": [
        {
          "indexed": true,
          "internalType": "address",
          "name": "user",
          "type": "address"
        },
        {
          "indexed": true,
          "internalType": "address",
          "name": "token",
          "type": "address"
        },
        {
          "indexed": false,
          "internalType": "uint256",
          "name": "amount",
          "type": "uint256"
        }
      ],
      "name": "TokenClaimed",
      "type": "event"
    },
    {
      "inputs": [
        {
          "internalType": "address",
          "name": "_token",
          "type": "address"
        }
      ],
      "name": "claimToken",
      "outputs": [
        {
          "internalType": "uint256",
          "name": "claimedAmount_",
          "type": "uint256"
        }
      ],
      "stateMutability": "nonpayable",
      "type": "function"
    },
    {
      "inputs": [
        {
          "internalType": "address",
          "name": "_token",
          "type": "address"
        },
        {
          "internalType": "uint256",
          "name": "_amount",
          "type": "uint256"
        },
        {
          "internalType": "address",
          "name": "_to",
          "type": "address"
        }
      ],
      "name": "claimTokenAmountTo",
      "outputs": [
        {
          "internalType": "uint256",
          "name": "claimedAmount_",
          "type": "uint256"
        }
      ],
      "stateMutability": "nonpayable",
      "type": "function"
    },
    {
      "inputs": [
        {
          "internalType": "address",
          "name": "_user",
          "type": "address"
        }
      ],
      "name": "getSplitPercentageForUser",
      "outputs": [
        {
          "internalType": "uint256",
          "name": "splitPercentage_",
          "type": "uint256"
        }
      ],
      "stateMutability": "view",
      "type": "function"
    },
    {
      "inputs": [
        {
          "internalType": "address",
          "name": "_user",
          "type": "address"
        },
        {
          "internalType": "address",
          "name": "_token",
          "type": "address"
        }
      ],
      "name": "getTokenBalClaimableForUser",
      "outputs": [
        {
          "internalType": "uint256",
          "name": "balClaimable_",
          "type": "uint256"
        }
      ],
      "stateMutability": "view",
      "type": "function"
    },
    {
      "inputs": [
        {
          "internalType": "address",
          "name": "_user",
          "type": "address"
        },
        {
          "internalType": "address",
          "name": "_token",
          "type": "address"
        }
      ],
      "name": "getTokenBalClaimedForUser",
      "outputs": [
        {
          "internalType": "uint256",
          "name": "balClaimed_",
          "type": "uint256"
        }
      ],
      "stateMutability": "view",
      "type": "function"
    },
    {
      "inputs": [
        {
          "internalType": "address",
          "name": "_token",
          "type": "address"
        }
      ],
      "name": "getTotalTokenBalClaimed",
      "outputs": [
        {
          "internalType": "uint256",
          "name": "totalBalClaimed_",
          "type": "uint256"
        }
      ],
      "stateMutability": "view",
      "type": "function"
    },
    {
      "inputs": [
        {
          "internalType": "address[]",
          "name": "_users",
          "type": "address[]"
        },
        {
          "internalType": "uint256[]",
          "name": "_splitPercentages",
          "type": "uint256[]"
        }
      ],
      "name": "setSplitRatio",
      "outputs": [],
      "stateMutability": "nonpayable",
      "type": "function"
    }
  ],
  "bytecode": {
    "object": "0x608060405234801561001057600080fd5b50610d3f806100206000396000f3fe608060405234801561001057600080fd5b506004361061007d5760003560e01c8063418981821161005b57806341898182146101165780638a3503fa14610144578063cb482df61461016a578063f4fbdf11146101985761007d565b80630cffb185146100825780630f0ee54c146100ba57806332f289cf146100f0575b600080fd5b6100a86004803603602081101561009857600080fd5b50356001600160a01b03166102c1565b60408051918252519081900360200190f35b6100a8600480360360608110156100d057600080fd5b506001600160a01b038135811691602081013591604090910135166102dc565b6100a86004803603602081101561010657600080fd5b50356001600160a01b03166102f4565b6100a86004803603604081101561012c57600080fd5b506001600160a01b038135811691602001351661030a565b6100a86004803603602081101561015a57600080fd5b50356001600160a01b0316610335565b6100a86004803603604081101561018057600080fd5b506001600160a01b0381358116916020013516610350565b6102bf600480360360408110156101ae57600080fd5b8101906020810181356401000000008111156101c957600080fd5b8201836020820111156101db57600080fd5b803590602001918460208302840111640100000000831117156101fd57600080fd5b919080806020026020016040519081016040528093929190818152602001838360200280828437600092019190915250929594936020810193503591505064010000000081111561024d57600080fd5b82018360208201111561025f57600080fd5b8035906020019184602083028401116401000000008311171561028157600080fd5b9190808060200260200160405190810160405280939291908181526020018383602002808284376000920191909152509295506103f8945050505050565b005b6001600160a01b031660009081526020819052604090205490565b60006102ea33858585610406565b90505b9392505050565b6000610304338360001933610406565b92915050565b6001600160a01b03918216600090815260026020908152604080832093909416825291909152205490565b6001600160a01b031660009081526001602052604090205490565b60006102ed61035e84610335565b610368858561030a565b6103f3856001600160a01b03166370a08231306040518263ffffffff1660e01b815260040180826001600160a01b0316815260200191505060206040518083038186803b1580156103b857600080fd5b505afa1580156103cc573d6000803e3d6000fd5b505050506040513d60208110156103e257600080fd5b50516103ed876102c1565b90610431565b61048b565b61040282826104b9565b5050565b6000610413858585610728565b90506104296001600160a01b03851683836108d2565b949350505050565b6000828201838110156102ed576040805162461bcd60e51b815260206004820152601b60248201527f536166654d6174683a206164646974696f6e206f766572666c6f770000000000604482015290519081900360640190fd5b6000806104a461271061049e8588610924565b9061097d565b90506104b081856109e4565b95945050505050565b6000805b83518110156106cc5760006001600160a01b03168482815181106104dd57fe5b60200260200101516001600160a01b03161415610541576040805162461bcd60e51b815260206004820152601b60248201527f5f5f73657453706c6974526174696f3a20456d70747920757365720000000000604482015290519081900360640190fd5b600181015b84518110156105e45784818151811061055b57fe5b60200260200101516001600160a01b031685838151811061057857fe5b60200260200101516001600160a01b031614156105dc576040805162461bcd60e51b815260206004820152601f60248201527f5f5f73657453706c6974526174696f3a204475706c6963617465207573657200604482015290519081900360640190fd5b600101610546565b508281815181106105f157fe5b60200260200101516001600086848151811061060957fe5b60200260200101516001600160a01b03166001600160a01b031681526020019081526020016000208190555061065b83828151811061064457fe5b60200260200101518361043190919063ffffffff16565b915083818151811061066957fe5b60200260200101516001600160a01b03167f531137a286e6d7db4298ad238c8007a3e9f4d5c41c4550d1f22c1b6965103ecd8483815181106106a757fe5b60200260200101516040518082815260200191505060405180910390a26001016104bd565b506127108114610723576040805162461bcd60e51b815260206004820152601f60248201527f5f5f73657453706c6974526174696f3a2053706c6974206e6f74203130302500604482015290519081900360640190fd5b505050565b600080610734846102c1565b90506000610742868661030a565b905060006107c9866001600160a01b03166370a08231306040518263ffffffff1660e01b815260040180826001600160a01b0316815260200191505060206040518083038186803b15801561079657600080fd5b505afa1580156107aa573d6000803e3d6000fd5b505050506040513d60208110156107c057600080fd5b50518490610431565b905060006107e06107d989610335565b848461048b565b90506000198614156107f457809450610837565b808611156108335760405162461bcd60e51b8152600401808060200182810382526025815260200180610d0e6025913960400191505060405180910390fd5b8594505b6108418486610431565b6001600160a01b0388166000908152602081905260409020556108648386610431565b6001600160a01b03808a166000818152600260209081526040808320948d16808452948252918290209490945580518981529051929391927f4831bdd9dcf3048a28319ce81d3cab7a15366bcf449bc7803a539107440809cc929181900390910190a3505050509392505050565b604080516001600160a01b038416602482015260448082018490528251808303909101815260649091019091526020810180516001600160e01b031663a9059cbb60e01b179052610723908490610a41565b60008261093357506000610304565b8282028284828161094057fe5b04146102ed5760405162461bcd60e51b8152600401808060200182810382526021815260200180610cc36021913960400191505060405180910390fd5b60008082116109d3576040805162461bcd60e51b815260206004820152601a60248201527f536166654d6174683a206469766973696f6e206279207a65726f000000000000604482015290519081900360640190fd5b8183816109dc57fe5b049392505050565b600082821115610a3b576040805162461bcd60e51b815260206004820152601e60248201527f536166654d6174683a207375627472616374696f6e206f766572666c6f770000604482015290519081900360640190fd5b50900390565b6060610a96826040518060400160405280602081526020017f5361666545524332303a206c6f772d6c6576656c2063616c6c206661696c6564815250856001600160a01b0316610af29092919063ffffffff16565b80519091501561072357808060200190516020811015610ab557600080fd5b50516107235760405162461bcd60e51b815260040180806020018281038252602a815260200180610ce4602a913960400191505060405180910390fd5b60606102ea848460008585610b0685610c18565b610b57576040805162461bcd60e51b815260206004820152601d60248201527f416464726573733a2063616c6c20746f206e6f6e2d636f6e7472616374000000604482015290519081900360640190fd5b60006060866001600160a01b031685876040518082805190602001908083835b60208310610b965780518252601f199092019160209182019101610b77565b6001836020036101000a03801982511681845116808217855250505050505090500191505060006040518083038185875af1925050503d8060008114610bf8576040519150601f19603f3d011682016040523d82523d6000602084013e610bfd565b606091505b5091509150610c0d828286610c1e565b979650505050505050565b3b151590565b60608315610c2d5750816102ed565b825115610c3d5782518084602001fd5b8160405162461bcd60e51b81526004018080602001828103825283818151815260200191508051906020019080838360005b83811015610c87578181015183820152602001610c6f565b50505050905090810190601f168015610cb45780820380516001836020036101000a031916815260200191505b509250505060405180910390fdfe536166654d6174683a206d756c7469706c69636174696f6e206f766572666c6f775361666545524332303a204552433230206f7065726174696f6e20646964206e6f742073756363656564636c61696d546f6b656e3a205f616d6f756e74206578636565647320636c61696d61626c65a164736f6c634300060c000a",
    "linkReferences": {}
  },
  "methodIdentifiers": {
    "claimToken(address)": "32f289cf",
    "claimTokenAmountTo(address,uint256,address)": "0f0ee54c",
    "getSplitPercentageForUser(address)": "8a3503fa",
    "getTokenBalClaimableForUser(address,address)": "cb482df6",
    "getTokenBalClaimedForUser(address,address)": "41898182",
    "getTotalTokenBalClaimed(address)": "0cffb185",
    "setSplitRatio(address[],uint256[])": "f4fbdf11"
  },
  "id": 376
}