{"abi":[{"type":"constructor","inputs":[{"name":"_dispatcher","type":"address","internalType":"address"}],"stateMutability":"nonpayable"},{"type":"function","name":"addDerivatives","inputs":[{"name":"_derivatives","type":"address[]","internalType":"address[]"},{"name":"_underlyings","type":"address[]","internalType":"address[]"}],"outputs":[],"stateMutability":"nonpayable"},{"type":"function","name":"getFundDeployer","inputs":[],"outputs":[{"name":"fundDeployer_","type":"address","internalType":"address"}],"stateMutability":"view"},{"type":"function","name":"getOwner","inputs":[],"outputs":[{"name":"owner_","type":"address","internalType":"address"}],"stateMutability":"view"},{"type":"function","name":"getUnderlyingForDerivative","inputs":[{"name":"_derivative","type":"address","internalType":"address"}],"outputs":[{"name":"underlying_","type":"address","internalType":"address"}],"stateMutability":"view"},{"type":"function","name":"removeDerivatives","inputs":[{"name":"_derivatives","type":"address[]","internalType":"address[]"}],"outputs":[],"stateMutability":"nonpayable"},{"type":"event","name":"DerivativeAdded","inputs":[{"name":"derivative","type":"address","indexed":true,"internalType":"address"},{"name":"underlying","type":"address","indexed":true,"internalType":"address"}],"anonymous":false},{"type":"event","name":"DerivativeRemoved","inputs":[{"name":"derivative","type":"address","indexed":true,"internalType":"address"}],"anonymous":false}],"bytecode":{"object":"0x60a060405234801561001057600080fd5b5060405161099a38038061099a8339818101604052602081101561003357600080fd5b5051606081901b6001600160601b0319166080526001600160a01b031661092e61006c60003980610609528061084e525061092e6000f3fe608060405234801561001057600080fd5b50600436106100575760003560e01c806339cbb63c1461005c57806366adb86714610185578063893d20e8146101c75780638f72b136146101cf57806397c0ac8714610272575b600080fd5b6101836004803603604081101561007257600080fd5b81019060208101813564010000000081111561008d57600080fd5b82018360208201111561009f57600080fd5b803590602001918460208302840111640100000000831117156100c157600080fd5b919080806020026020016040519081016040528093929190818152602001838360200280828437600092019190915250929594936020810193503591505064010000000081111561011157600080fd5b82018360208201111561012357600080fd5b8035906020019184602083028401116401000000008311171561014557600080fd5b91908080602002602001604051908101604052809392919081815260200183836020028082843760009201919091525092955061027a945050505050565b005b6101ab6004803603602081101561019b57600080fd5b50356001600160a01b03166105e7565b604080516001600160a01b039092168252519081900360200190f35b6101ab610605565b610183600480360360208110156101e557600080fd5b81019060208101813564010000000081111561020057600080fd5b82018360208201111561021257600080fd5b8035906020019184602083028401116401000000008311171561023457600080fd5b919080806020026020016040519081016040528093929190818152602001838360200280828437600092019190915250929550610691945050505050565b6101ab61084c565b610282610605565b6001600160a01b0316336001600160a01b0316146102d15760405162461bcd60e51b81526004018080602001828103825260498152602001806108966049913960600191505060405180910390fd5b60008251116103115760405162461bcd60e51b81526004018080602001828103825260228152602001806109006022913960400191505060405180910390fd5b8051825114610367576040805162461bcd60e51b815260206004820152601e60248201527f61646444657269766174697665733a20556e657175616c206172726179730000604482015290519081900360640190fd5b60005b82518110156105e25760006001600160a01b031683828151811061038a57fe5b60200260200101516001600160a01b031614156103ee576040805162461bcd60e51b815260206004820181905260248201527f61646444657269766174697665733a20456d7074792064657269766174697665604482015290519081900360640190fd5b60006001600160a01b031682828151811061040557fe5b60200260200101516001600160a01b03161415610469576040805162461bcd60e51b815260206004820181905260248201527f61646444657269766174697665733a20456d70747920756e6465726c79696e67604482015290519081900360640190fd5b60006001600160a01b031661049084838151811061048357fe5b60200260200101516105e7565b6001600160a01b0316146104d55760405162461bcd60e51b81526004018080602001828103825260218152602001806108df6021913960400191505060405180910390fd5b6105058382815181106104e457fe5b60200260200101518383815181106104f857fe5b6020026020010151610848565b81818151811061051157fe5b602002602001015160008085848151811061052857fe5b60200260200101516001600160a01b03166001600160a01b0316815260200190815260200160002060006101000a8154816001600160a01b0302191690836001600160a01b0316021790555081818151811061058057fe5b60200260200101516001600160a01b031683828151811061059d57fe5b60200260200101516001600160a01b03167faa4ae250fb435bb4b31ed0b95822bc179fc6c5dd0c727c3ffe08d444025efd9860405160405180910390a360010161036a565b505050565b6001600160a01b039081166000908152602081905260409020541690565b60007f00000000000000000000000000000000000000000000000000000000000000006001600160a01b031663893d20e86040518163ffffffff1660e01b815260040160206040518083038186803b15801561066057600080fd5b505afa158015610674573d6000803e3d6000fd5b505050506040513d602081101561068a57600080fd5b5051905090565b610699610605565b6001600160a01b0316336001600160a01b0316146106e85760405162461bcd60e51b81526004018080602001828103825260498152602001806108966049913960600191505060405180910390fd5b60008151116107285760405162461bcd60e51b81526004018080602001828103825260258152602001806108716025913960400191505060405180910390fd5b60005b81518110156108485760006001600160a01b031661074e83838151811061048357fe5b6001600160a01b031614156107aa576040805162461bcd60e51b815260206004820181905260248201527f72656d6f766544657269766174697665733a2056616c7565206e6f7420736574604482015290519081900360640190fd5b6000808383815181106107b957fe5b60200260200101516001600160a01b03166001600160a01b0316815260200190815260200160002060006101000a8154906001600160a01b03021916905581818151811061080357fe5b60200260200101516001600160a01b03167fc15eb25d807b570f4567baf6e97c7b26d58a7d0512dc85e8db15375a056b860460405160405180910390a260010161072b565b5050565b7f00000000000000000000000000000000000000000000000000000000000000009056fe72656d6f766544657269766174697665733a20456d707479205f64657269766174697665736f6e6c7946756e644465706c6f7965724f776e65723a204f6e6c79207468652046756e644465706c6f796572206f776e65722063616e2063616c6c20746869732066756e6374696f6e61646444657269766174697665733a2056616c756520616c72656164792073657461646444657269766174697665733a20456d707479205f6465726976617469766573a164736f6c634300060c000a","linkReferences":{}},"methodIdentifiers":{"addDerivatives(address[],address[])":"39cbb63c","getFundDeployer()":"97c0ac87","getOwner()":"893d20e8","getUnderlyingForDerivative(address)":"66adb867","removeDerivatives(address[])":"8f72b136"},"id":375}