{
  "abi": [
    {
      "anonymous": false,
      "inputs": [
        {
          "indexed": true,
          "internalType": "address",
          "name": "nominatedOwner",
          "type": "address"
        }
      ],
      "name": "NominatedOwnerSet",
      "type": "event"
    },
    {
      "anonymous": false,
      "inputs": [
        {
          "indexed": false,
          "internalType": "address",
          "name": "owner",
          "type": "address"
        }
      ],
      "name": "OwnerSet",
      "type": "event"
    },
    {
      "inputs": [],
      "name": "claimOwnership",
      "outputs": [],
      "stateMutability": "nonpayable",
      "type": "function"
    },
    {
      "inputs": [],
      "name": "getNominatedOwner",
      "outputs": [
        {
          "internalType": "address",
          "name": "nominatedOwner_",
          "type": "address"
        }
      ],
      "stateMutability": "view",
      "type": "function"
    },
    {
      "inputs": [],
      "name": "getOwner",
      "outputs": [
        {
          "internalType": "address",
          "name": "owner_",
          "type": "address"
        }
      ],
      "stateMutability": "view",
      "type": "function"
    },
    {
      "inputs": [
        {
          "internalType": "address",
          "name": "_nextNominatedOwner",
          "type": "address"
        }
      ],
      "name": "setNominatedOwner",
      "outputs": [],
      "stateMutability": "nonpayable",
      "type": "function"
    },
    {
      "inputs": [
        {
          "internalType": "address",
          "name": "_nextOwner",
          "type": "address"
        }
      ],
      "name": "setOwner",
      "outputs": [],
      "stateMutability": "nonpayable",
      "type": "function"
    }
  ],
  "bytecode": {
    "object": "0x608060405234801561001057600080fd5b506102ac806100206000396000f3fe608060405234801561001057600080fd5b50600436106100575760003560e01c806313af40351461005c578063288b6a36146100845780634e71e0c8146100a8578063728e17a0146100b0578063893d20e8146100d6575b600080fd5b6100826004803603602081101561007257600080fd5b50356001600160a01b03166100de565b005b61008c6100ea565b604080516001600160a01b039092168252519081900360200190f35b6100826100f9565b610082600480360360208110156100c657600080fd5b50356001600160a01b031661017e565b61008c6101f4565b6100e781610203565b50565b6000546001600160a01b031690565b60006101036100ea565b9050336001600160a01b03821614610162576040805162461bcd60e51b815260206004820152601c60248201527f636c61696d4f776e6572736869703a20556e617574686f72697a656400000000604482015290519081900360640190fd5b61016b81610203565b50600080546001600160a01b0319169055565b6101866101f4565b6001600160a01b0316336001600160a01b0316146101eb576040805162461bcd60e51b815260206004820152601760248201527f6f6e6c794f776e65723a20556e617574686f72697a6564000000000000000000604482015290519081900360640190fd5b6100e781610257565b6001546001600160a01b031690565b600180546001600160a01b0383166001600160a01b0319909116811790915560408051918252517f50146d0e3c60aa1d17a70635b05494f864e86144a2201275021014fbf08bafe29181900360200190a150565b600080546001600160a01b0319166001600160a01b038316908117825560405190917f132c19de901bb4ed8403c34734b6c841d5dc57745824da452a52433519ea5abf91a25056fea164736f6c634300060c000a",
    "linkReferences": {}
  },
  "methodIdentifiers": {
    "claimOwnership()": "4e71e0c8",
    "getNominatedOwner()": "288b6a36",
    "getOwner()": "893d20e8",
    "setNominatedOwner(address)": "728e17a0",
    "setOwner(address)": "13af4035"
  },
  "id": 371
}