{
  "abi": [
    {
      "inputs": [
        {
          "internalType": "address",
          "name": "_stakingProxy",
          "type": "address"
        },
        {
          "internalType": "address",
          "name": "_grtToken",
          "type": "address"
        }
      ],
      "stateMutability": "nonpayable",
      "type": "constructor"
    },
    {
      "anonymous": false,
      "inputs": [
        {
          "indexed": true,
          "internalType": "address",
          "name": "indexer",
          "type": "address"
        }
      ],
      "name": "IndexerAdded",
      "type": "event"
    },
    {
      "anonymous": false,
      "inputs": [
        {
          "indexed": true,
          "internalType": "address",
          "name": "indexer",
          "type": "address"
        }
      ],
      "name": "IndexerRemoved",
      "type": "event"
    },
    {
      "inputs": [],
      "name": "getDebtAssets",
      "outputs": [
        {
          "internalType": "address[]",
          "name": "assets_",
          "type": "address[]"
        },
        {
          "internalType": "uint256[]",
          "name": "amounts_",
          "type": "uint256[]"
        }
      ],
      "stateMutability": "nonpayable",
      "type": "function"
    },
    {
      "inputs": [
        {
          "internalType": "address",
          "name": "_indexer",
          "type": "address"
        }
      ],
      "name": "getDelegationGrtValue",
      "outputs": [
        {
          "internalType": "uint256",
          "name": "grtValue_",
          "type": "uint256"
        }
      ],
      "stateMutability": "view",
      "type": "function"
    },
    {
      "inputs": [],
      "name": "getIndexers",
      "outputs": [
        {
          "internalType": "address[]",
          "name": "",
          "type": "address[]"
        }
      ],
      "stateMutability": "view",
      "type": "function"
    },
    {
      "inputs": [],
      "name": "getManagedAssets",
      "outputs": [
        {
          "internalType": "address[]",
          "name": "assets_",
          "type": "address[]"
        },
        {
          "internalType": "uint256[]",
          "name": "amounts_",
          "type": "uint256[]"
        }
      ],
      "stateMutability": "nonpayable",
      "type": "function"
    },
    {
      "inputs": [
        {
          "internalType": "bytes",
          "name": "",
          "type": "bytes"
        }
      ],
      "name": "init",
      "outputs": [],
      "stateMutability": "nonpayable",
      "type": "function"
    },
    {
      "inputs": [
        {
          "internalType": "address",
          "name": "_indexer",
          "type": "address"
        }
      ],
      "name": "isDelegatorTo",
      "outputs": [
        {
          "internalType": "bool",
          "name": "isDelegator_",
          "type": "bool"
        }
      ],
      "stateMutability": "view",
      "type": "function"
    },
    {
      "inputs": [
        {
          "internalType": "bytes",
          "name": "_actionData",
          "type": "bytes"
        }
      ],
      "name": "receiveCallFromVault",
      "outputs": [],
      "stateMutability": "nonpayable",
      "type": "function"
    }
  ],
  "bytecode": {
    "object": "0x60c060405234801561001057600080fd5b506040516116003803806116008339818101604052604081101561003357600080fd5b5080516020909101516001600160601b0319606092831b8116608052911b1660a05260805160601c60a05160601c61154b6100b560003980610364528061058f5280610c4f5280610cd75280610ee35280610f8452508061038652806103b752806104935280610ad35280610b8b5280610d165280610ded525061154b6000f3fe608060405234801561001057600080fd5b506004361061007d5760003560e01c806380daddb81161005b57806380daddb81461019c578063e5c23a971461023d578063ecd658b4146102e3578063f3b60567146102eb5761007d565b80634682b645146100825780634ddf47d4146100bc5780635d0e651714610164575b600080fd5b6100a86004803603602081101561009857600080fd5b50356001600160a01b0316610343565b604080519115158252519081900360200190f35b610162600480360360208110156100d257600080fd5b8101906020810181356401000000008111156100ed57600080fd5b8201836020820111156100ff57600080fd5b8035906020019184600183028401116401000000008311171561012157600080fd5b91908080601f016020809104026020016040519081016040528093929190818152602001838380828437600092019190915250929550610357945050505050565b005b61018a6004803603602081101561017a57600080fd5b50356001600160a01b03166103b0565b60408051918252519081900360200190f35b6101a461054f565b604051808060200180602001838103835285818151815260200191508051906020019060200280838360005b838110156101e85781810151838201526020016101d0565b50505050905001838103825284818151815260200191508051906020019060200280838360005b8381101561022757818101518382015260200161020f565b5050505090500194505050505060405180910390f35b6101626004803603602081101561025357600080fd5b81019060208101813564010000000081111561026e57600080fd5b82018360208201111561028057600080fd5b803590602001918460018302840111640100000000831117156102a257600080fd5b91908080601f01602080910402602001604051908101604052809392919081815260200183838082843760009201919091525092955061066c945050505050565b6101a46107c2565b6102f36107c8565b60408051602080825283518183015283519192839290830191858101910280838360005b8381101561032f578181015183820152602001610317565b505050509050019250505060405180910390f35b600061034f818361082a565b90505b919050565b6103ad6001600160a01b037f0000000000000000000000000000000000000000000000000000000000000000167f0000000000000000000000000000000000000000000000000000000000000000600019610884565b50565b60008060007f00000000000000000000000000000000000000000000000000000000000000006001600160a01b03166315049a5a85306040518363ffffffff1660e01b815260040180836001600160a01b03168152602001826001600160a01b031681526020019250505060606040518083038186803b15801561043357600080fd5b505afa158015610447573d6000803e3d6000fd5b505050506040513d606081101561045d57600080fd5b508051602090910151604080516392511c8f60e01b81526001600160a01b038881166004830152915193955091935060009283927f0000000000000000000000000000000000000000000000000000000000000000909216916392511c8f9160248083019260c0929190829003018186803b1580156104db57600080fd5b505afa1580156104ef573d6000803e3d6000fd5b505050506040513d60c081101561050557600080fd5b50608081015160a090910151909250905083156105455761053a836105348361052e8887610997565b906109f7565b90610a5e565b945050505050610352565b5090949350505050565b606080606061055c6107c8565b80519091508061056d575050610668565b60408051600180825281830190925290602080830190803683370190505093507f0000000000000000000000000000000000000000000000000000000000000000846000815181106105bb57fe5b6001600160a01b039290921660209283029190910182015260408051600180825281830190925291828101908036833701905050925060005b8181101561066457600061061a84838151811061060d57fe5b60200260200101516103b0565b9050610643818660008151811061062d57fe5b6020026020010151610a5e90919063ffffffff16565b8560008151811061065057fe5b6020908102919091010152506001016105f4565b5050505b9091565b6000606082806020019051604081101561068557600080fd5b8151602083018051604051929492938301929190846401000000008211156106ac57600080fd5b9083019060208201858111156106c157600080fd5b82516401000000008111828201881017156106db57600080fd5b82525081516020918201929091019080838360005b838110156107085781810151838201526020016106f0565b50505050905090810190601f1680156107355780820380516001836020036101000a031916815260200191505b50604052505050915091506000600281111561074d57fe5b8214156107625761075d81610ab8565b6107bd565b60018214156107745761075d81610b79565b60028214156107865761075d81610d04565b60405162461bcd60e51b81526004018080602001828103825260268152602001806114986026913960400191505060405180910390fd5b505050565b60608091565b6060600080548060200260200160405190810160405280929190818152602001828054801561082057602002820191906000526020600020905b81546001600160a01b03168152600190910190602001808311610802575b5050505050905090565b8154600090815b818110156108775784818154811061084557fe5b6000918252602090912001546001600160a01b038581169116141561086f5760019250505061087e565b600101610831565b5060009150505b92915050565b80158061090a575060408051636eb1769f60e11b81523060048201526001600160a01b03848116602483015291519185169163dd62ed3e91604480820192602092909190829003018186803b1580156108dc57600080fd5b505afa1580156108f0573d6000803e3d6000fd5b505050506040513d602081101561090657600080fd5b5051155b6109455760405162461bcd60e51b81526004018080602001828103825260368152602001806115096036913960400191505060405180910390fd5b604080516001600160a01b038416602482015260448082018490528251808303909101815260649091019091526020810180516001600160e01b031663095ea7b360e01b1790526107bd908490610fab565b6000826109a65750600061087e565b828202828482816109b357fe5b04146109f05760405162461bcd60e51b81526004018080602001828103825260218152602001806114be6021913960400191505060405180910390fd5b9392505050565b6000808211610a4d576040805162461bcd60e51b815260206004820152601a60248201527f536166654d6174683a206469766973696f6e206279207a65726f000000000000604482015290519081900360640190fd5b818381610a5657fe5b049392505050565b6000828201838110156109f0576040805162461bcd60e51b815260206004820152601b60248201527f536166654d6174683a206164646974696f6e206f766572666c6f770000000000604482015290519081900360640190fd5b600080610ac48361105c565b91509150610ad182611087565b7f00000000000000000000000000000000000000000000000000000000000000006001600160a01b031663026e402b83836040518363ffffffff1660e01b815260040180836001600160a01b0316815260200182815260200192505050602060405180830381600087803b158015610b4857600080fd5b505af1158015610b5c573d6000803e3d6000fd5b505050506040513d6020811015610b7257600080fd5b5050505050565b600080610b858361105c565b915091507f00000000000000000000000000000000000000000000000000000000000000006001600160a01b0316634d99dd1683836040518363ffffffff1660e01b815260040180836001600160a01b0316815260200182815260200192505050602060405180830381600087803b158015610c0057600080fd5b505af1158015610c14573d6000803e3d6000fd5b505050506040513d6020811015610c2a57600080fd5b5050604080516370a0823160e01b815230600482015290516000916001600160a01b037f000000000000000000000000000000000000000000000000000000000000000016916370a0823191602480820192602092909190829003018186803b158015610c9657600080fd5b505afa158015610caa573d6000803e3d6000fd5b505050506040513d6020811015610cc057600080fd5b505190508015610cfe57610cfe6001600160a01b037f000000000000000000000000000000000000000000000000000000000000000016338361110a565b50505050565b600080610d108361105c565b915091507f00000000000000000000000000000000000000000000000000000000000000006001600160a01b03166351a60b0283836040518363ffffffff1660e01b815260040180836001600160a01b03168152602001826001600160a01b0316815260200192505050602060405180830381600087803b158015610d9457600080fd5b505af1158015610da8573d6000803e3d6000fd5b505050506040513d6020811015610dbe57600080fd5b505060408051630a824d2d60e11b81526001600160a01b038481166004830152306024830152915160009283927f0000000000000000000000000000000000000000000000000000000000000000909116916315049a5a91604480820192606092909190829003018186803b158015610e3657600080fd5b505afa158015610e4a573d6000803e3d6000fd5b505050506040513d6060811015610e6057600080fd5b508051602090910151909250905081158015610e7a575080155b15610ec057610e8a60008561115c565b506040516001600160a01b038516907fc2311cd5b528d092b51bcba1ab9da737e9f7062ee61ab27aac6693ec84a0e64390600090a25b6001600160a01b03831615610edd57610ed883611087565b610b72565b610b72337f00000000000000000000000000000000000000000000000000000000000000006001600160a01b03166370a08231306040518263ffffffff1660e01b815260040180826001600160a01b0316815260200191505060206040518083038186803b158015610f4e57600080fd5b505afa158015610f62573d6000803e3d6000fd5b505050506040513d6020811015610f7857600080fd5b50516001600160a01b037f000000000000000000000000000000000000000000000000000000000000000016919061110a565b6060611000826040518060400160405280602081526020017f5361666545524332303a206c6f772d6c6576656c2063616c6c206661696c6564815250856001600160a01b03166112549092919063ffffffff16565b8051909150156107bd5780806020019051602081101561101f57600080fd5b50516107bd5760405162461bcd60e51b815260040180806020018281038252602a8152602001806114df602a913960400191505060405180910390fd5b60008082806020019051604081101561107457600080fd5b5080516020909101519092509050915091565b61109081610343565b6103ad57600080546001810182558180527f290decd9548b62a8d60345a988386fc84ba6bc95484008f6362f93160ef3e5630180546001600160a01b0319166001600160a01b03841690811790915560405190917fc858d0245daa67035a21710c35419a4f810d8ac380aae2ac337683b4a957cbe891a250565b604080516001600160a01b038416602482015260448082018490528251808303909101815260649091019091526020810180516001600160e01b031663a9059cbb60e01b1790526107bd908490610fab565b8154600090815b8181101561124c57836001600160a01b031685828154811061118157fe5b6000918252602090912001546001600160a01b03161415611244576001820381101561120f578460018303815481106111b657fe5b9060005260206000200160009054906101000a90046001600160a01b03168582815481106111e057fe5b9060005260206000200160006101000a8154816001600160a01b0302191690836001600160a01b031602179055505b8480548061121957fe5b600082815260209020810160001990810180546001600160a01b03191690550190556001925061124c565b600101611163565b505092915050565b6060611263848460008561126b565b949350505050565b6060824710156112ac5760405162461bcd60e51b81526004018080602001828103825260268152602001806114726026913960400191505060405180910390fd5b6112b5856113c7565b611306576040805162461bcd60e51b815260206004820152601d60248201527f416464726573733a2063616c6c20746f206e6f6e2d636f6e7472616374000000604482015290519081900360640190fd5b60006060866001600160a01b031685876040518082805190602001908083835b602083106113455780518252601f199092019160209182019101611326565b6001836020036101000a03801982511681845116808217855250505050505090500191505060006040518083038185875af1925050503d80600081146113a7576040519150601f19603f3d011682016040523d82523d6000602084013e6113ac565b606091505b50915091506113bc8282866113cd565b979650505050505050565b3b151590565b606083156113dc5750816109f0565b8251156113ec5782518084602001fd5b8160405162461bcd60e51b81526004018080602001828103825283818151815260200191508051906020019080838360005b8381101561143657818101518382015260200161141e565b50505050905090810190601f1680156114635780820380516001836020036101000a031916815260200191505b509250505060405180910390fdfe416464726573733a20696e73756666696369656e742062616c616e636520666f722063616c6c7265636569766543616c6c46726f6d5661756c743a20496e76616c696420616374696f6e4964536166654d6174683a206d756c7469706c69636174696f6e206f766572666c6f775361666545524332303a204552433230206f7065726174696f6e20646964206e6f7420737563636565645361666545524332303a20617070726f76652066726f6d206e6f6e2d7a65726f20746f206e6f6e2d7a65726f20616c6c6f77616e6365a164736f6c634300060c000a",
    "linkReferences": {}
  },
  "methodIdentifiers": {
    "getDebtAssets()": "ecd658b4",
    "getDelegationGrtValue(address)": "5d0e6517",
    "getIndexers()": "f3b60567",
    "getManagedAssets()": "80daddb8",
    "init(bytes)": "4ddf47d4",
    "isDelegatorTo(address)": "4682b645",
    "receiveCallFromVault(bytes)": "e5c23a97"
  },
  "id": 140
}