{
  "abi": [
    {
      "inputs": [
        {
          "internalType": "address",
          "name": "_nonFungibleTokenManager",
          "type": "address"
        },
        {
          "internalType": "address",
          "name": "_valueInterpreter",
          "type": "address"
        }
      ],
      "stateMutability": "nonpayable",
      "type": "constructor"
    },
    {
      "anonymous": false,
      "inputs": [
        {
          "indexed": true,
          "internalType": "uint256",
          "name": "tokenId",
          "type": "uint256"
        }
      ],
      "name": "NFTPositionAdded",
      "type": "event"
    },
    {
      "anonymous": false,
      "inputs": [
        {
          "indexed": true,
          "internalType": "uint256",
          "name": "tokenId",
          "type": "uint256"
        }
      ],
      "name": "NFTPositionRemoved",
      "type": "event"
    },
    {
      "inputs": [],
      "name": "getDebtAssets",
      "outputs": [
        {
          "internalType": "address[]",
          "name": "assets_",
          "type": "address[]"
        },
        {
          "internalType": "uint256[]",
          "name": "amounts_",
          "type": "uint256[]"
        }
      ],
      "stateMutability": "pure",
      "type": "function"
    },
    {
      "inputs": [],
      "name": "getManagedAssets",
      "outputs": [
        {
          "internalType": "address[]",
          "name": "assets_",
          "type": "address[]"
        },
        {
          "internalType": "uint256[]",
          "name": "amounts_",
          "type": "uint256[]"
        }
      ],
      "stateMutability": "nonpayable",
      "type": "function"
    },
    {
      "inputs": [],
      "name": "getNftIds",
      "outputs": [
        {
          "internalType": "uint256[]",
          "name": "nftIds_",
          "type": "uint256[]"
        }
      ],
      "stateMutability": "view",
      "type": "function"
    },
    {
      "inputs": [],
      "name": "getNonFungibleTokenManager",
      "outputs": [
        {
          "internalType": "address",
          "name": "nonFungibleTokenManager_",
          "type": "address"
        }
      ],
      "stateMutability": "view",
      "type": "function"
    },
    {
      "inputs": [
        {
          "internalType": "uint256",
          "name": "_nftId",
          "type": "uint256"
        }
      ],
      "name": "getPairForNft",
      "outputs": [
        {
          "internalType": "address",
          "name": "token0_",
          "type": "address"
        },
        {
          "internalType": "address",
          "name": "token1_",
          "type": "address"
        }
      ],
      "stateMutability": "view",
      "type": "function"
    },
    {
      "inputs": [
        {
          "internalType": "uint256",
          "name": "_nftId",
          "type": "uint256"
        }
      ],
      "name": "getToken0ForNft",
      "outputs": [
        {
          "internalType": "address",
          "name": "token0_",
          "type": "address"
        }
      ],
      "stateMutability": "view",
      "type": "function"
    },
    {
      "inputs": [
        {
          "internalType": "uint256",
          "name": "_nftId",
          "type": "uint256"
        }
      ],
      "name": "getToken1ForNft",
      "outputs": [
        {
          "internalType": "address",
          "name": "token1_",
          "type": "address"
        }
      ],
      "stateMutability": "view",
      "type": "function"
    },
    {
      "inputs": [],
      "name": "getValueInterpreter",
      "outputs": [
        {
          "internalType": "address",
          "name": "valueInterpreter_",
          "type": "address"
        }
      ],
      "stateMutability": "view",
      "type": "function"
    },
    {
      "inputs": [
        {
          "internalType": "bytes",
          "name": "",
          "type": "bytes"
        }
      ],
      "name": "init",
      "outputs": [],
      "stateMutability": "nonpayable",
      "type": "function"
    },
    {
      "inputs": [
        {
          "internalType": "bytes",
          "name": "_actionData",
          "type": "bytes"
        }
      ],
      "name": "receiveCallFromVault",
      "outputs": [],
      "stateMutability": "nonpayable",
      "type": "function"
    }
  ],
  "bytecode": {
    "object": "0x60c06040523480156200001157600080fd5b506040516200316438038062003164833981016040819052620000349162000066565b6001600160601b0319606092831b8116608052911b1660a052620000d1565b80516200006081620000b7565b92915050565b600080604083850312156200007a57600080fd5b600062000088858562000053565b92505060206200009b8582860162000053565b9150509250929050565b60006001600160a01b03821662000060565b620000c281620000a5565b8114620000ce57600080fd5b50565b60805160601c60a05160601c613064620001006000398061045252806105c852508061018e52506130646000f3fe608060405234801561001057600080fd5b506004361061009e5760003560e01c8063875fb4b311610066578063875fb4b314610114578063e0d803ad1461011c578063e5c23a971461012f578063ecd658b414610142578063eff2452a1461014a5761009e565b80634ddf47d4146100a35780635f358573146100b85780636904481a146100e1578063804ff143146100e957806380daddb8146100fe575b600080fd5b6100b66100b13660046127c2565b61016b565b005b6100cb6100c6366004612844565b61016e565b6040516100d89190612db5565b60405180910390f35b6100cb61018c565b6100f16101b0565b6040516100d89190612e2b565b610106610208565b6040516100d8929190612e06565b6100cb6105c6565b6100cb61012a366004612844565b6105ea565b6100b661013d3660046127c2565b610605565b61010661080c565b61015d610158366004612844565b610812565b6040516100d8929190612dc3565b50565b6000818152600260205260409020546001600160a01b03165b919050565b7f000000000000000000000000000000000000000000000000000000000000000090565b606060008054806020026020016040519081016040528092919081815260200182805480156101fe57602002820191906000526020600020905b8154815260200190600101908083116101ea575b5050505050905090565b60608060006102156101b0565b905080516000141561022757506105c2565b805160020267ffffffffffffffff8111801561024257600080fd5b5060405190808252806020026020018201604052801561026c578160200160208202803683370190505b509250825167ffffffffffffffff8111801561028757600080fd5b506040519080825280602002602001820160405280156102b1578160200160208202803683370190505b5091506000815167ffffffffffffffff811180156102ce57600080fd5b506040519080825280602002602001820160405280156102f8578160200160208202803683370190505b50905060005b82518110156105a45760008061032685848151811061031957fe5b6020026020010151610812565b91509150600083600202905060008160010190508389838151811061034757fe5b60200260200101906001600160a01b031690816001600160a01b0316815250508289828151811061037457fe5b60200260200101906001600160a01b031690816001600160a01b0316815250506000805b86811015610429578a81600202815181106103af57fe5b60200260200101516001600160a01b0316866001600160a01b031614801561040157508a81600202600101815181106103e457fe5b60200260200101516001600160a01b0316856001600160a01b0316145b156104215787818151811061041257fe5b60200260200101519150610429565b600101610398565b506001600160a01b03811661054057604051632633f08360e11b81526000906001600160a01b037f00000000000000000000000000000000000000000000000000000000000000001690634c67e10690610493908890670de0b6b3a7640000908b90600401612dde565b602060405180830381600087803b1580156104ad57600080fd5b505af11580156104c1573d6000803e3d6000fd5b505050506040513d601f19601f820116820180604052508101906104e59190612862565b905061050f61050a82610504600160c01b670de0b6b3a7640000610830565b90610892565b6108f9565b91508188888151811061051e57fe5b60200260200101906001600160a01b031690816001600160a01b031681525050505b61056561054b61018c565b89888151811061055757fe5b60200260200101518361094a565b8a858151811061057157fe5b602002602001018b858151811061058457fe5b6020908102919091010191909152525050600190930192506102fe915050565b506001825111156105bf576105b9848461097d565b90945092505b50505b9091565b7f000000000000000000000000000000000000000000000000000000000000000090565b6000908152600160205260409020546001600160a01b031690565b6000808280602001905181019061061c9190612880565b9092509050816106d757600080600080600080600080600061063d8a610bc0565b9850985098509850985098509850985098506106c96040518061016001604052808b6001600160a01b031681526020018a6001600160a01b031681526020018962ffffff1681526020018860020b81526020018760020b8152602001868152602001858152602001848152602001838152602001306001600160a01b0316815260200142815250610c64565b505050505050505050610807565b600182141561073a5760008060008060006106f186610f17565b945094509450945094506107306040518060c0016040528087815260200186815260200185815260200184815260200183815260200142815250610f5d565b5050505050610807565b600282141561079b57600080600080610752856110ed565b93509350935093506107926040518060a00160405280868152602001856001600160801b031681526020018481526020018381526020014281525061112a565b50505050610807565b60048214156107c7576000806000806107b3856110ed565b9350935093509350610792848484846111bb565b60038214156107e6576107e16107dc82611407565b611426565b610807565b60405162461bcd60e51b81526004016107fe90612e4d565b60405180910390fd5b505050565b60608091565b60008061081e836105ea565b6108278461016e565b91509150915091565b60008261083f5750600061088c565b8282028284828161084c57fe5b04146108895760405162461bcd60e51b8152600401808060200182810382526021815260200180612fd76021913960400191505060405180910390fd5b90505b92915050565b60008082116108e8576040805162461bcd60e51b815260206004820152601a60248201527f536166654d6174683a206469766973696f6e206279207a65726f000000000000604482015290519081900360640190fd5b8183816108f157fe5b049392505050565b6000600382111561093c575080600160028204015b818110156109365780915060028182858161092557fe5b04018161092e57fe5b04905061090e565b50610187565b811561018757506001919050565b60008060008061095b8787876114d0565b9150915060008061096c898961158c565b940195505050019050935093915050565b60608083516000141561098f57610bb9565b6001805b8551811015610a0f576000805b828110156109f9578781815181106109b457fe5b60200260200101516001600160a01b03168884815181106109d157fe5b60200260200101516001600160a01b031614156109f157600191506109f9565b6001016109a0565b5080610a06576001909201915b50600101610993565b508067ffffffffffffffff81118015610a2757600080fd5b50604051908082528060200260200182016040528015610a51578160200160208202803683370190505b5092508067ffffffffffffffff81118015610a6b57600080fd5b50604051908082528060200260200182016040528015610a95578160200160208202803683370190505b5091506000805b8651811015610bb5576000805b83811015610b3457868181518110610abd57fe5b60200260200101516001600160a01b0316898481518110610ada57fe5b60200260200101516001600160a01b03161415610b2c5760019150878381518110610b0157fe5b6020026020010151868281518110610b1557fe5b602002602001018181510191508181525050610b34565b600101610aa9565b5080610bac57878281518110610b4657fe5b6020026020010151868481518110610b5a57fe5b60200260200101906001600160a01b031690816001600160a01b031681525050868281518110610b8657fe5b6020026020010151858481518110610b9a57fe5b60209081029190910101526001909201915b50600101610a9c565b5050505b9250929050565b600080600080600080600080600089806020019051610120811015610be457600080fd5b810190808051906020019092919080519060200190929190805190602001909291908051906020019092919080519060200190929190805190602001909291908051906020019092919080519060200190929190805190602001909291905050509850985098509850985098509850985098509193959799909294969850565b8051610c7c90610c7261018c565b8360a0015161173f565b610c968160200151610c8c61018c565b8360c0015161173f565b6000806000610ca361018c565b6001600160a01b03166388316456856040518263ffffffff1660e01b8152600401610cce9190612e87565b608060405180830381600087803b158015610ce857600080fd5b505af1158015610cfc573d6000803e3d6000fd5b505050506040513d601f19601f82011682018060405250810190610d2091906128d2565b60008054600180820183558280527f290decd9548b62a8d60345a988386fc84ba6bc95484008f6362f93160ef3e56390910186905589518683526020918252604080842080546001600160a01b03199081166001600160a01b0394851617909155838d0151600290945293208054909316911617905560a0880151939650909450925050821015610e4157610e413385600001516001600160a01b03166370a08231306040518263ffffffff1660e01b8152600401610ddf9190612db5565b60206040518083038186803b158015610df757600080fd5b505afa158015610e0b573d6000803e3d6000fd5b505050506040513d601f19601f82011682018060405250810190610e2f9190612862565b86516001600160a01b031691906117fb565b8360c00151811015610ee657610ee63385602001516001600160a01b03166370a08231306040518263ffffffff1660e01b8152600401610e819190612db5565b60206040518083038186803b158015610e9957600080fd5b505afa158015610ead573d6000803e3d6000fd5b505050506040513d601f19601f82011682018060405250810190610ed19190612862565b60208701516001600160a01b031691906117fb565b60405183907fa831009a1dec500e6875fc241cfbe036162eb78da63101cbd7bfa24eaef48b3a90600090a250505050565b60008060008060008580602001905160a0811015610f3457600080fd5b508051602082015160408301516060840151608090940151929a91995097509195509350915050565b600080610f6861018c565b6001600160a01b031663219f5d17846040518263ffffffff1660e01b8152600401610f939190612e79565b606060405180830381600087803b158015610fad57600080fd5b505af1158015610fc1573d6000803e3d6000fd5b505050506040513d601f19601f82011682018060405250810190610fe591906127f7565b9250925050826020015182101561109a57600061100584600001516105ea565b905061109833826001600160a01b03166370a08231306040518263ffffffff1660e01b81526004016110379190612db5565b60206040518083038186803b15801561104f57600080fd5b505afa158015611063573d6000803e3d6000fd5b505050506040513d601f19601f820116820180604052508101906110879190612862565b6001600160a01b03841691906117fb565b505b82604001518110156108075760006110b5846000015161016e565b90506110e733826001600160a01b03166370a08231306040518263ffffffff1660e01b81526004016110379190612db5565b50505050565b60008060008084806020019051608081101561110857600080fd5b5080516020820151604083015160609093015191989097509195509350915050565b61113261018c565b6001600160a01b0316630c49ccbe826040518263ffffffff1660e01b815260040161115d9190612e6b565b6040805180830381600087803b15801561117657600080fd5b505af115801561118a573d6000803e3d6000fd5b505050506040513d601f19601f820116820180604052508101906111ae9190612933565b5050805161016b90611426565b6001600160801b0383811614156111d8576111d58461184d565b92505b6001600160801b0383161561129d576111ef61018c565b6001600160a01b0316630c49ccbe6040518060a00160405280878152602001866001600160801b03168152602001858152602001848152602001428152506040518263ffffffff1660e01b81526004016112499190612e6b565b6040805180830381600087803b15801561126257600080fd5b505af1158015611276573d6000803e3d6000fd5b505050506040513d601f19601f8201168201806040525081019061129a9190612933565b50505b6112a684611426565b6112ae61018c565b6001600160a01b03166342966c68856040518263ffffffff1660e01b81526004016112d99190612e96565b600060405180830381600087803b1580156112f357600080fd5b505af1158015611307573d6000803e3d6000fd5b505060008054925090505b818110156113a757856000828154811061132857fe5b9060005260206000200154141561139f5760018203811015611379576000600183038154811061135457fe5b90600052602060002001546000828154811061136c57fe5b6000918252602090912001555b600080548061138457fe5b600190038181906000526020600020016000905590556113a7565b600101611312565b50600085815260016020908152604080832080546001600160a01b0319908116909155600290925280832080549092169091555186917fb308fd4e2abaef716bcb96e9c382d61e5917345fd816de0d20278a23fbe109c791a25050505050565b600081806020019051602081101561141e57600080fd5b505192915050565b61142e61018c565b604080516080810182528381523360208201526001600160801b038183018190526060820152905163fc6f786560e01b81526001600160a01b03929092169163fc6f78659161147f91600401612e5d565b6040805180830381600087803b15801561149857600080fd5b505af11580156114ac573d6000803e3d6000fd5b505050506040513d601f19601f820116820180604052508101906108079190612933565b6000806000806000876001600160a01b03166399fbab88886040518263ffffffff1660e01b8152600401808281526020019150506101806040518083038186803b15801561151d57600080fd5b505afa158015611531573d6000803e3d6000fd5b505050506040513d61018081101561154857600080fd5b5060a081015160c082015160e090920151909450909250905061157d8661156e85611943565b61157785611943565b84611c75565b94509450505050935093915050565b6000806000806000806000806000806000808d6001600160a01b03166399fbab888e6040518263ffffffff1660e01b8152600401808281526020019150506101806040518083038186803b1580156115e357600080fd5b505afa1580156115f7573d6000803e3d6000fd5b505050506040513d61018081101561160e57600080fd5b810190808051906020019092919080519060200190929190805190602001909291908051906020019092919080519060200190929190805190602001909291908051906020019092919080519060200190929190805190602001909291908051906020019092919080519060200190929190805190602001909291905050506001600160801b03169b506001600160801b03169b509b509b509b509b509b509b509b509b50505061172a8e6040518061014001604052808d6001600160a01b031681526020018c6001600160a01b031681526020018b62ffffff1681526020018a60020b81526020018960020b8152602001886001600160801b0316815260200187815260200186815260200185815260200184815250611d11565b9b509b50505050505050505050509250929050565b604051636eb1769f60e11b81526000906001600160a01b0385169063dd62ed3e906117709030908790600401612dc3565b60206040518083038186803b15801561178857600080fd5b505afa15801561179c573d6000803e3d6000fd5b505050506040513d601f19601f820116820180604052508101906117c09190612862565b9050818110156110e75780156117e5576117e56001600160a01b038516846000611e2f565b6110e76001600160a01b03851684600019611e2f565b604080516001600160a01b038416602482015260448082018490528251808303909101815260649091019091526020810180516001600160e01b031663a9059cbb60e01b179052610807908490611f3e565b600080600061185a61018c565b6001600160a01b03166399fbab8860e01b8560405160240161187c9190612e96565b60408051601f198184030181529181526020820180516001600160e01b03166001600160e01b03199094169390931790925290516118ba9190612da9565b600060405180830381855afa9150503d80600081146118f5576040519150601f19603f3d011682016040523d82523d6000602084013e6118fa565b606091505b509150915081819061191f5760405162461bcd60e51b81526004016107fe9190612e3c565b50808060200190518101906119349190612963565b9b9a5050505050505050505050565b60008060008360020b1261195a578260020b611962565b8260020b6000035b9050620d89e88111156119a0576040805162461bcd60e51b81526020600482015260016024820152601560fa1b604482015290519081900360640190fd5b6000600182166119b457600160801b6119c6565b6ffffcb933bd6fad37aa2d162d1a5940015b70ffffffffffffffffffffffffffffffffff16905060028216156119fa576ffff97272373d413259a46990580e213a0260801c5b6004821615611a19576ffff2e50f5f656932ef12357cf3c7fdcc0260801c5b6008821615611a38576fffe5caca7e10e4e61c3624eaa0941cd00260801c5b6010821615611a57576fffcb9843d60f6159c9db58835c9266440260801c5b6020821615611a76576fff973b41fa98c081472e6896dfb254c00260801c5b6040821615611a95576fff2ea16466c96a3843ec78b326b528610260801c5b6080821615611ab4576ffe5dee046a99a2a811c461f1969c30530260801c5b610100821615611ad4576ffcbe86c7900a88aedcffc83b479aa3a40260801c5b610200821615611af4576ff987a7253ac413176f2b074cf7815e540260801c5b610400821615611b14576ff3392b0822b70005940c7a398e4b70f30260801c5b610800821615611b34576fe7159475a2c29b7443b29c7fa6e889d90260801c5b611000821615611b54576fd097f3bdfd2022b8845ad8f792aa58250260801c5b612000821615611b74576fa9f746462d870fdf8a65dc1f90e061e50260801c5b614000821615611b94576f70d869a156d2a1b890bb3df62baf32f70260801c5b618000821615611bb4576f31be135f97d08fd981231505542fcfa60260801c5b62010000821615611bd5576f09aa508b5b7a84e1c677de54f3e99bc90260801c5b62020000821615611bf5576e5d6af8dedb81196699c329225ee6040260801c5b62040000821615611c14576d2216e584f5fa1ea926041bedfe980260801c5b62080000821615611c31576b048a170391f7dc42444e8fa20260801c5b60008460020b1315611c4c578060001981611c4857fe5b0490505b640100000000810615611c60576001611c63565b60005b60ff16602082901c0192505050919050565b600080836001600160a01b0316856001600160a01b03161115611c96579293925b846001600160a01b0316866001600160a01b031611611cc157611cba858585611fef565b9150611d08565b836001600160a01b0316866001600160a01b03161015611cfa57611ce6868585611fef565b9150611cf385878561205a565b9050611d08565b611d0585858561205a565b90505b94509492505050565b600080600080611dcc611dbd876001600160a01b031663c45a01556040518163ffffffff1660e01b815260040160206040518083038186803b158015611d5657600080fd5b505afa158015611d6a573d6000803e3d6000fd5b505050506040513d6020811015611d8057600080fd5b50516040805160608101825289516001600160a01b03908116825260208b810151909116908201528982015162ffffff16918101919091526120a5565b86606001518760800151612189565b91509150846101000151611df88660c0015184038760a001516001600160801b0316600160801b612446565b019350846101200151611e238660e0015183038760a001516001600160801b0316600160801b612446565b01925050509250929050565b801580611eb5575060408051636eb1769f60e11b81523060048201526001600160a01b03848116602483015291519185169163dd62ed3e91604480820192602092909190829003018186803b158015611e8757600080fd5b505afa158015611e9b573d6000803e3d6000fd5b505050506040513d6020811015611eb157600080fd5b5051155b611ef05760405162461bcd60e51b81526004018080602001828103825260368152602001806130226036913960400191505060405180910390fd5b604080516001600160a01b038416602482015260448082018490528251808303909101815260649091019091526020810180516001600160e01b031663095ea7b360e01b1790526108079084905b6000611f93826040518060400160405280602081526020017f5361666545524332303a206c6f772d6c6576656c2063616c6c206661696c6564815250856001600160a01b03166124f59092919063ffffffff16565b80519091501561080757808060200190516020811015611fb257600080fd5b50516108075760405162461bcd60e51b815260040180806020018281038252602a815260200180612ff8602a913960400191505060405180910390fd5b6000826001600160a01b0316846001600160a01b0316111561200f579192915b836001600160a01b0316612048606060ff16846001600160801b0316901b8686036001600160a01b0316866001600160a01b0316612446565b8161204f57fe5b0490505b9392505050565b6000826001600160a01b0316846001600160a01b0316111561207a579192915b61209d826001600160801b03168585036001600160a01b0316600160601b612446565b949350505050565b600081602001516001600160a01b031682600001516001600160a01b0316106120cd57600080fd5b50805160208083015160409384015184516001600160a01b0394851681850152939091168385015262ffffff166060808401919091528351808403820181526080840185528051908301206001600160f81b031960a085015294901b6bffffffffffffffffffffffff191660a183015260b58201939093527fe34f199b19b2b4f47f68442619d555527d244f78a3297ea89325f843f87b8b5460d5808301919091528251808303909101815260f5909101909152805191012090565b6000806000856001600160a01b0316633850c7bd6040518163ffffffff1660e01b815260040160e06040518083038186803b1580156121c757600080fd5b505afa1580156121db573d6000803e3d6000fd5b505050506040513d60e08110156121f157600080fd5b50602001516040805163f30dba9360e01b8152600288900b6004820152905191925060009182916001600160a01b038a169163f30dba939160248082019261010092909190829003018186803b15801561224a57600080fd5b505afa15801561225e573d6000803e3d6000fd5b505050506040513d61010081101561227557600080fd5b50604080820151606090920151815163f30dba9360e01b815260028a900b60048201529151929450925060009182916001600160a01b038c169163f30dba939160248082019261010092909190829003018186803b1580156122d657600080fd5b505afa1580156122ea573d6000803e3d6000fd5b505050506040513d61010081101561230157600080fd5b5060408101516060909101519092509050600289810b9086900b12156123305781840396508083039550612439565b8760020b8560020b121561242e5760008a6001600160a01b031663f30583996040518163ffffffff1660e01b815260040160206040518083038186803b15801561237957600080fd5b505afa15801561238d573d6000803e3d6000fd5b505050506040513d60208110156123a357600080fd5b505160408051634614131960e01b815290519192506000916001600160a01b038e16916346141319916004808301926020929190829003018186803b1580156123eb57600080fd5b505afa1580156123ff573d6000803e3d6000fd5b505050506040513d602081101561241557600080fd5b5051918690038490039850508390038190039550612439565b838203965082810395505b5050505050935093915050565b600080806000198587098686029250828110908390030390508061247c576000841161247157600080fd5b508290049050612053565b80841161248857600080fd5b6000848688096000868103871696879004966002600389028118808a02820302808a02820302808a02820302808a02820302808a02820302808a02909103029181900381900460010186841190950394909402919094039290920491909117919091029150509392505050565b606061209d8484600085856125098561261a565b61255a576040805162461bcd60e51b815260206004820152601d60248201527f416464726573733a2063616c6c20746f206e6f6e2d636f6e7472616374000000604482015290519081900360640190fd5b600080866001600160a01b031685876040518082805190602001908083835b602083106125985780518252601f199092019160209182019101612579565b6001836020036101000a03801982511681845116808217855250505050505090500191505060006040518083038185875af1925050503d80600081146125fa576040519150601f19603f3d011682016040523d82523d6000602084013e6125ff565b606091505b509150915061260f828286612620565b979650505050505050565b3b151590565b6060831561262f575081612053565b82511561263f5782518084602001fd5b8160405162461bcd60e51b81526004018080602001828103825283818151815260200191508051906020019080838360005b83811015612689578181015183820152602001612671565b50505050905090810190601f1680156126b65780820380516001836020036101000a031916815260200191505b509250505060405180910390fd5b60006126d76126d284612ece565b612ea4565b9050828152602081018484840111156126ef57600080fd5b6126fa848285612f51565b509392505050565b60006127106126d284612ece565b90508281526020810184848401111561272857600080fd5b6126fa848285612f5d565b805161088c81612f95565b600082601f83011261274f57600080fd5b813561209d8482602086016126c4565b600082601f83011261277057600080fd5b815161209d848260208601612702565b805161088c81612fa9565b805161088c81612fb2565b805161088c81612fbb565b803561088c81612fc4565b805161088c81612fc4565b805161088c81612fcd565b6000602082840312156127d457600080fd5b813567ffffffffffffffff8111156127eb57600080fd5b61209d8482850161273e565b60008060006060848603121561280c57600080fd5b6000612818868661278b565b9350506020612829868287016127ac565b925050604061283a868287016127ac565b9150509250925092565b60006020828403121561285657600080fd5b600061209d84846127a1565b60006020828403121561287457600080fd5b600061209d84846127ac565b6000806040838503121561289357600080fd5b600061289f85856127ac565b925050602083015167ffffffffffffffff8111156128bc57600080fd5b6128c88582860161275f565b9150509250929050565b600080600080608085870312156128e857600080fd5b60006128f487876127ac565b94505060206129058782880161278b565b9350506040612916878288016127ac565b9250506060612927878288016127ac565b91505092959194509250565b6000806040838503121561294657600080fd5b600061295285856127ac565b92505060206128c8858286016127ac565b600080600080600080600080610100898b03121561298057600080fd5b600061298c8b8b6127b7565b985050602061299d8b828c01612733565b97505060406129ae8b828c01612733565b96505060606129bf8b828c01612733565b95505060806129d08b828c01612796565b94505060a06129e18b828c01612780565b93505060c06129f28b828c01612780565b92505060e0612a038b828c0161278b565b9150509295985092959890939650565b6000612a1f8383612a33565b505060200190565b6000612a1f8383612da0565b612a3c81612f0c565b82525050565b6000612a4d82612eff565b612a578185612f03565b9350612a6283612ef9565b8060005b83811015612a90578151612a7a8882612a13565b9750612a8583612ef9565b925050600101612a66565b509495945050505050565b6000612aa682612eff565b612ab08185612f03565b9350612abb83612ef9565b8060005b83811015612a90578151612ad38882612a27565b9750612ade83612ef9565b925050600101612abf565b6000612af482612eff565b612afe8185610187565b9350612b0e818560208601612f5d565b9290920192915050565b612a3c81612f17565b6000612b2c82612eff565b612b368185612f03565b9350612b46818560208601612f5d565b612b4f81612f8b565b9093019392505050565b6000612b66602683612f03565b7f7265636569766543616c6c46726f6d5661756c743a20496e76616c69642061638152651d1a5bdb925960d21b602082015260400192915050565b80516080830190612bb28482612da0565b506020820151612bc56020850182612a33565b506040820151612bd86040850182612d8e565b5060608201516110e76060850182612d8e565b805160a0830190612bfc8482612da0565b506020820151612c0f6020850182612d8e565b506040820151612c226040850182612da0565b506060820151612c356060850182612da0565b5060808201516110e76080850182612da0565b805160c0830190612c598482612da0565b506020820151612c6c6020850182612da0565b506040820151612c7f6040850182612da0565b506060820151612c926060850182612da0565b506080820151612ca56080850182612da0565b5060a08201516110e760a0850182612da0565b8051610160830190612cca8482612a33565b506020820151612cdd6020850182612a33565b506040820151612cf06040850182612d97565b506060820151612d036060850182612b18565b506080820151612d166080850182612b18565b5060a0820151612d2960a0850182612da0565b5060c0820151612d3c60c0850182612da0565b5060e0820151612d4f60e0850182612da0565b50610100820151612d64610100850182612da0565b50610120820151612d79610120850182612a33565b506101408201516110e7610140850182612da0565b612a3c81612f1d565b612a3c81612f35565b612a3c81612f3d565b60006120538284612ae9565b6020810161088c8284612a33565b60408101612dd18285612a33565b6120536020830184612a33565b60608101612dec8286612a33565b612df96020830185612da0565b61209d6040830184612a33565b60408082528101612e178185612a42565b9050818103602083015261209d8184612a9b565b602080825281016120538184612a9b565b602080825281016120538184612b21565b6020808252810161088c81612b59565b6080810161088c8284612ba1565b60a0810161088c8284612beb565b60c0810161088c8284612c48565b610160810161088c8284612cb8565b6020810161088c8284612da0565b60405181810167ffffffffffffffff81118282101715612ec657612ec6612f89565b604052919050565b600067ffffffffffffffff821115612ee857612ee8612f89565b506020601f91909101601f19160190565b60200190565b5190565b90815260200190565b600061088c82612f29565b60020b90565b6001600160801b031690565b6001600160a01b031690565b62ffffff1690565b90565b6bffffffffffffffffffffffff1690565b82818337506000910152565b60005b83811015612f78578181015183820152602001612f60565b838111156110e75750506000910152565bfe5b601f01601f191690565b612f9e81612f0c565b811461016b57600080fd5b612f9e81612f17565b612f9e81612f1d565b612f9e81612f35565b612f9e81612f3d565b612f9e81612f4056fe536166654d6174683a206d756c7469706c69636174696f6e206f766572666c6f775361666545524332303a204552433230206f7065726174696f6e20646964206e6f7420737563636565645361666545524332303a20617070726f76652066726f6d206e6f6e2d7a65726f20746f206e6f6e2d7a65726f20616c6c6f77616e6365a164736f6c6343000706000a",
    "linkReferences": {}
  },
  "methodIdentifiers": {
    "getDebtAssets()": "ecd658b4",
    "getManagedAssets()": "80daddb8",
    "getNftIds()": "804ff143",
    "getNonFungibleTokenManager()": "6904481a",
    "getPairForNft(uint256)": "eff2452a",
    "getToken0ForNft(uint256)": "e0d803ad",
    "getToken1ForNft(uint256)": "5f358573",
    "getValueInterpreter()": "875fb4b3",
    "init(bytes)": "4ddf47d4",
    "receiveCallFromVault(bytes)": "e5c23a97"
  },
  "id": 2
}