{"abi":[{"type":"constructor","inputs":[{"name":"_ethUsdAggregator","type":"address","internalType":"address"}],"stateMutability":"nonpayable"},{"type":"function","name":"decimals","inputs":[],"outputs":[{"name":"decimals_","type":"uint8","internalType":"uint8"}],"stateMutability":"pure"},{"type":"function","name":"latestRoundData","inputs":[],"outputs":[{"name":"roundId_","type":"uint80","internalType":"uint80"},{"name":"answer_","type":"int256","internalType":"int256"},{"name":"startedAt_","type":"uint256","internalType":"uint256"},{"name":"updatedAt_","type":"uint256","internalType":"uint256"},{"name":"answeredInRound_","type":"uint80","internalType":"uint80"}],"stateMutability":"view"}],"bytecode":{"object":"0x60a060405234801561001057600080fd5b506040516101fc3803806101fc8339818101604052602081101561003357600080fd5b5051606081901b6001600160601b0319166080526001600160a01b03166101966100666000398060bb52506101966000f3fe608060405234801561001057600080fd5b50600436106100365760003560e01c8063313ce5671461003b578063feaf968c14610059575b600080fd5b6100436100ab565b6040805160ff9092168252519081900360200190f35b6100616100b0565b604051808669ffffffffffffffffffff1681526020018581526020018481526020018381526020018269ffffffffffffffffffff1681526020019550505050505060405180910390f35b601290565b6000806000806000807f00000000000000000000000000000000000000000000000000000000000000006001600160a01b031663feaf968c6040518163ffffffff1660e01b815260040160a06040518083038186803b15801561011257600080fd5b505afa158015610126573d6000803e3d6000fd5b505050506040513d60a081101561013c57600080fd5b508051602082015160408301516060840151608090940151929950965091945092509050600081131561018157806a52b7d2dcc80cd2e40000008161017d57fe5b0594505b50909192939456fea164736f6c634300060c000a","linkReferences":{}},"methodIdentifiers":{"decimals()":"313ce567","latestRoundData()":"feaf968c"},"id":254}