{
  "abi": [
    {
      "inputs": [
        {
          "internalType": "address",
          "name": "_wsteth",
          "type": "address"
        },
        {
          "internalType": "address",
          "name": "_steth",
          "type": "address"
        }
      ],
      "stateMutability": "nonpayable",
      "type": "constructor"
    },
    {
      "inputs": [
        {
          "internalType": "address",
          "name": "",
          "type": "address"
        },
        {
          "internalType": "uint256",
          "name": "_derivativeAmount",
          "type": "uint256"
        }
      ],
      "name": "calcUnderlyingValues",
      "outputs": [
        {
          "internalType": "address[]",
          "name": "underlyings_",
          "type": "address[]"
        },
        {
          "internalType": "uint256[]",
          "name": "underlyingAmounts_",
          "type": "uint256[]"
        }
      ],
      "stateMutability": "nonpayable",
      "type": "function"
    },
    {
      "inputs": [
        {
          "internalType": "address",
          "name": "_asset",
          "type": "address"
        }
      ],
      "name": "isSupportedAsset",
      "outputs": [
        {
          "internalType": "bool",
          "name": "isSupported_",
          "type": "bool"
        }
      ],
      "stateMutability": "view",
      "type": "function"
    }
  ],
  "bytecode": {
    "object": "0x60c060405234801561001057600080fd5b506040516103363803806103368339818101604052604081101561003357600080fd5b5080516020909101516001600160601b0319606091821b811660805291901b1660a05260805160601c60a05160601c6102b26100846000398061027552508061016152806101c552506102b26000f3fe608060405234801561001057600080fd5b50600436106100365760003560e01c8063727212f61461003b5780639be918e614610100575b600080fd5b6100676004803603604081101561005157600080fd5b506001600160a01b03813516906020013561013a565b604051808060200180602001838103835285818151815260200191508051906020019060200280838360005b838110156100ab578181015183820152602001610093565b50505050905001838103825284818151815260200191508051906020019060200280838360005b838110156100ea5781810151838201526020016100d2565b5050505090500194505050505060405180910390f35b6101266004803603602081101561011657600080fd5b50356001600160a01b0316610273565b604080519115158252519081900360200190f35b604080516001808252818301909252606091829190602080830190803683370190505091507f00000000000000000000000000000000000000000000000000000000000000008260008151811061018d57fe5b6001600160a01b03929092166020928302919091018201526040805160018082528183019092529182810190803683370190505090507f00000000000000000000000000000000000000000000000000000000000000006001600160a01b0316637a28fb88846040518263ffffffff1660e01b81526004018082815260200191505060206040518083038186803b15801561022757600080fd5b505afa15801561023b573d6000803e3d6000fd5b505050506040513d602081101561025157600080fd5b50518151829060009061026057fe5b6020026020010181815250509250929050565b7f00000000000000000000000000000000000000000000000000000000000000006001600160a01b039081169116149056fea164736f6c634300060c000a",
    "linkReferences": {}
  },
  "methodIdentifiers": {
    "calcUnderlyingValues(address,uint256)": "727212f6",
    "isSupportedAsset(address)": "9be918e6"
  },
  "id": 248
}