{
  "_format": "hh-sol-artifact-1",
  "contractName": "ZeroExV2Adapter",
  "sourceName": "contracts/release/extensions/integration-manager/integrations/adapters/ZeroExV2Adapter.sol",
  "abi": [
    {
      "inputs": [
        {
          "internalType": "address",
          "name": "_integrationManager",
          "type": "address"
        },
        {
          "internalType": "address",
          "name": "_exchange",
          "type": "address"
        },
        {
          "internalType": "address",
          "name": "_fundDeployer",
          "type": "address"
        },
        {
          "internalType": "address[]",
          "name": "_allowedMakers",
          "type": "address[]"
        }
      ],
      "stateMutability": "nonpayable",
      "type": "constructor"
    },
    {
      "anonymous": false,
      "inputs": [
        {
          "indexed": true,
          "internalType": "address",
          "name": "account",
          "type": "address"
        }
      ],
      "name": "AllowedMakerAdded",
      "type": "event"
    },
    {
      "anonymous": false,
      "inputs": [
        {
          "indexed": true,
          "internalType": "address",
          "name": "account",
          "type": "address"
        }
      ],
      "name": "AllowedMakerRemoved",
      "type": "event"
    },
    {
      "inputs": [],
      "name": "CLAIM_REWARDS_SELECTOR",
      "outputs": [
        {
          "internalType": "bytes4",
          "name": "",
          "type": "bytes4"
        }
      ],
      "stateMutability": "view",
      "type": "function"
    },
    {
      "inputs": [],
      "name": "LEND_AND_STAKE_SELECTOR",
      "outputs": [
        {
          "internalType": "bytes4",
          "name": "",
          "type": "bytes4"
        }
      ],
      "stateMutability": "view",
      "type": "function"
    },
    {
      "inputs": [],
      "name": "LEND_SELECTOR",
      "outputs": [
        {
          "internalType": "bytes4",
          "name": "",
          "type": "bytes4"
        }
      ],
      "stateMutability": "view",
      "type": "function"
    },
    {
      "inputs": [],
      "name": "REDEEM_SELECTOR",
      "outputs": [
        {
          "internalType": "bytes4",
          "name": "",
          "type": "bytes4"
        }
      ],
      "stateMutability": "view",
      "type": "function"
    },
    {
      "inputs": [],
      "name": "STAKE_SELECTOR",
      "outputs": [
        {
          "internalType": "bytes4",
          "name": "",
          "type": "bytes4"
        }
      ],
      "stateMutability": "view",
      "type": "function"
    },
    {
      "inputs": [],
      "name": "TAKE_MULTIPLE_ORDERS_SELECTOR",
      "outputs": [
        {
          "internalType": "bytes4",
          "name": "",
          "type": "bytes4"
        }
      ],
      "stateMutability": "view",
      "type": "function"
    },
    {
      "inputs": [],
      "name": "TAKE_ORDER_SELECTOR",
      "outputs": [
        {
          "internalType": "bytes4",
          "name": "",
          "type": "bytes4"
        }
      ],
      "stateMutability": "view",
      "type": "function"
    },
    {
      "inputs": [],
      "name": "UNSTAKE_AND_REDEEM_SELECTOR",
      "outputs": [
        {
          "internalType": "bytes4",
          "name": "",
          "type": "bytes4"
        }
      ],
      "stateMutability": "view",
      "type": "function"
    },
    {
      "inputs": [],
      "name": "UNSTAKE_SELECTOR",
      "outputs": [
        {
          "internalType": "bytes4",
          "name": "",
          "type": "bytes4"
        }
      ],
      "stateMutability": "view",
      "type": "function"
    },
    {
      "inputs": [
        {
          "internalType": "address[]",
          "name": "_accountsToAdd",
          "type": "address[]"
        }
      ],
      "name": "addAllowedMakers",
      "outputs": [],
      "stateMutability": "nonpayable",
      "type": "function"
    },
    {
      "inputs": [],
      "name": "getFundDeployer",
      "outputs": [
        {
          "internalType": "address",
          "name": "fundDeployer_",
          "type": "address"
        }
      ],
      "stateMutability": "view",
      "type": "function"
    },
    {
      "inputs": [],
      "name": "getIntegrationManager",
      "outputs": [
        {
          "internalType": "address",
          "name": "integrationManager_",
          "type": "address"
        }
      ],
      "stateMutability": "view",
      "type": "function"
    },
    {
      "inputs": [],
      "name": "getOwner",
      "outputs": [
        {
          "internalType": "address",
          "name": "owner_",
          "type": "address"
        }
      ],
      "stateMutability": "view",
      "type": "function"
    },
    {
      "inputs": [],
      "name": "getZeroExV2Exchange",
      "outputs": [
        {
          "internalType": "address",
          "name": "zeroExV2Exchange_",
          "type": "address"
        }
      ],
      "stateMutability": "view",
      "type": "function"
    },
    {
      "inputs": [
        {
          "internalType": "address",
          "name": "_who",
          "type": "address"
        }
      ],
      "name": "isAllowedMaker",
      "outputs": [
        {
          "internalType": "bool",
          "name": "isAllowedMaker_",
          "type": "bool"
        }
      ],
      "stateMutability": "view",
      "type": "function"
    },
    {
      "inputs": [
        {
          "internalType": "address",
          "name": "",
          "type": "address"
        },
        {
          "internalType": "bytes4",
          "name": "_selector",
          "type": "bytes4"
        },
        {
          "internalType": "bytes",
          "name": "_actionData",
          "type": "bytes"
        }
      ],
      "name": "parseAssetsForAction",
      "outputs": [
        {
          "internalType": "enum IIntegrationManager.SpendAssetsHandleType",
          "name": "spendAssetsHandleType_",
          "type": "uint8"
        },
        {
          "internalType": "address[]",
          "name": "spendAssets_",
          "type": "address[]"
        },
        {
          "internalType": "uint256[]",
          "name": "spendAssetAmounts_",
          "type": "uint256[]"
        },
        {
          "internalType": "address[]",
          "name": "incomingAssets_",
          "type": "address[]"
        },
        {
          "internalType": "uint256[]",
          "name": "minIncomingAssetAmounts_",
          "type": "uint256[]"
        }
      ],
      "stateMutability": "view",
      "type": "function"
    },
    {
      "inputs": [
        {
          "internalType": "address[]",
          "name": "_accountsToRemove",
          "type": "address[]"
        }
      ],
      "name": "removeAllowedMakers",
      "outputs": [],
      "stateMutability": "nonpayable",
      "type": "function"
    },
    {
      "inputs": [
        {
          "internalType": "address",
          "name": "_vaultProxy",
          "type": "address"
        },
        {
          "internalType": "bytes",
          "name": "_actionData",
          "type": "bytes"
        },
        {
          "internalType": "bytes",
          "name": "_assetData",
          "type": "bytes"
        }
      ],
      "name": "takeOrder",
      "outputs": [],
      "stateMutability": "nonpayable",
      "type": "function"
    }
  ],
  "bytecode": "0x60e06040523480156200001157600080fd5b5060405162002ed538038062002ed5833981016040819052620000349162000254565b6001600160601b0319606085811b821660805283811b821660a05284901b1660c0528051156200006957620000698162000073565b505050506200040c565b6000815111620000a05760405162461bcd60e51b815260040162000097906200036b565b60405180910390fd5b60005b81518110156200019657620000d2828281518110620000be57fe5b60200260200101516200019a60201b60201c565b15620000f25760405162461bcd60e51b815260040162000097906200037d565b60016000808484815181106200010457fe5b60200260200101516001600160a01b03166001600160a01b0316815260200190815260200160002060006101000a81548160ff0219169083151502179055508181815181106200015057fe5b60200260200101516001600160a01b03167f2e1c3b07a83c6d2606a67771e6dd5c25722baac28ecf38e8056fb820d88536a860405160405180910390a2600101620000a3565b5050565b6001600160a01b031660009081526020819052604090205460ff1690565b8051620001c581620003f2565b92915050565b600082601f830112620001dd57600080fd5b8151620001f4620001ee82620003b6565b6200038f565b915081818352602084019350602081019050838560208402820111156200021a57600080fd5b60005b838110156200024a5781620002338882620001b8565b84525060209283019291909101906001016200021d565b5050505092915050565b600080600080608085870312156200026b57600080fd5b6000620002798787620001b8565b94505060206200028c87828801620001b8565b93505060406200029f87828801620001b8565b92505060608501516001600160401b03811115620002bc57600080fd5b620002ca87828801620001cb565b91505092959194509250565b6000620002e5602883620003d7565b7f5f5f616464416c6c6f7765644d616b6572733a20456d707479205f6163636f758152671b9d1cd51bd0591960c21b602082015260400192915050565b600062000331602583620003d7565b7f5f5f616464416c6c6f7765644d616b6572733a2056616c756520616c726561648152641e481cd95d60da1b602082015260400192915050565b60208082528101620001c581620002d6565b60208082528101620001c58162000322565b6040518181016001600160401b0381118282101715620003ae57600080fd5b604052919050565b60006001600160401b03821115620003cd57600080fd5b5060209081020190565b90815260200190565b60006001600160a01b038216620001c5565b620003fd81620003e0565b81146200040957600080fd5b50565b60805160601c60a05160601c60c05160601c612a7f62000456600039806103925280610ebd5280610f985250806104c052806105565250806102305280610c4a5250612a7f6000f3fe608060405234801561001057600080fd5b50600436106101165760003560e01c8063893d20e8116100a2578063c54efee511610071578063c54efee5146101be578063c960260d146101e2578063e7c45690146101f5578063f7d882b5146101fd578063ff7ede371461020557610116565b8063893d20e81461019e57806397c0ac87146101a6578063b23228cf146101ae578063c32990a2146101b657610116565b8063257cb1a3116100e9578063257cb1a31461016b5780633ffc15911461017357806340da225d1461017b5780634ce13fb014610183578063863e5ad01461019657610116565b806303e38a2b1461011b578063080456c114610130578063131461c01461014e5780631d566eee14610156575b600080fd5b61012e610129366004611c88565b610225565b005b610138610348565b604051610145919061273c565b60405180910390f35b61013861036c565b61015e610390565b60405161014591906126ea565b6101386103b4565b6101386103d8565b6101386103fc565b61012e610191366004611d9f565b610420565b610138610498565b61015e6104bc565b61015e610554565b610138610578565b61013861059c565b6101d16101cc366004611c21565b6105c0565b60405161014595949392919061274a565b61012e6101f0366004611d9f565b610af7565b61015e610c48565b610138610c6c565b610218610213366004611bdd565b610c90565b604051610145919061272e565b336001600160a01b037f000000000000000000000000000000000000000000000000000000000000000016146102765760405162461bcd60e51b815260040161026d90612837565b60405180910390fd5b8482828080601f0160208091040260200160405190810160405280939291908181526020018383808284376000920182905250604080516020601f8c018190048102820181019092528a8152606095509193506102ee92508a908a9081908401838280828437600092019190915250610cb292505050565b915091506102fa611774565b61030383610cd3565b9050606061031084610e4d565b9350505050610320828483610e8a565b50505050606061032f82611029565b9250505061033d838261104f565b505050505050505050565b7f8334eb99be0145865eba9889fca2ee920288090caefff4cc776038e20ad9259a81565b7f29fa046e79524c3c5ac4c01df692c35e217802b2b13b21121b76cf0ef02b138c81565b7f000000000000000000000000000000000000000000000000000000000000000090565b7f099f75155f0e997bf83a7993a71d5e7e7540bd386fe1e84643a09ce6b412521981565b7ffa7dd04da627f433da73c4355ead9c75682a67a8fc84d3f6170ef0922f402d2481565b7fb9dfbaccbe5cd2a84fdcf1d15f23ef25d23086f5afbaa99516065ed4a5bbc7a381565b6104286104bc565b6001600160a01b0316336001600160a01b0316146104585760405162461bcd60e51b815260040161026d906127d7565b6104948282808060200260200160405190810160405280939291908181526020018383602002808284376000920191909152506111ab92505050565b5050565b7f03e38a2bd7063d45c897edeafc330e71657502dd86434d3c37a489caf116af6981565b60007f00000000000000000000000000000000000000000000000000000000000000006001600160a01b031663893d20e86040518163ffffffff1660e01b815260040160206040518083038186803b15801561051757600080fd5b505afa15801561052b573d6000803e3d6000fd5b505050506040513d601f19601f8201168201806040525081019061054f9190611c03565b905090565b7f000000000000000000000000000000000000000000000000000000000000000090565b7f68e30677f607df46e87da13e15b637784cfa62374b653f35ab43d10361a2f83081565b7f0e7f692dad5b88fdee426250d6eae91207e56a2e8112b7364579bed1790e5bf481565b600060608080806001600160e01b031988166303e38a2b60e01b146105f75760405162461bcd60e51b815260040161026d906128b7565b6060600061063a89898080601f016020809104026020016040519081016040528093929190818152602001838380828437600092019190915250610cb292505050565b91509150610646611774565b61064f83610cd3565b905061065e8160000151610c90565b61067a5760405162461bcd60e51b815260040161026d90612857565b8060a0015182111561069e5760405162461bcd60e51b815260040161026d90612807565b60006106ae8261014001516112b2565b905060006106c08361016001516112b2565b6040805160018082528183019092529192506020808301908036833701905050965081876000815181106106f057fe5b6001600160a01b03929092166020928302919091018201526040805160018082528183019092529182810190803683370190505095506107398360a001518460800151866112b9565b8660008151811061074657fe5b602090810291909101015260e083015115610a645760006107e1610768610390565b6001600160a01b031663db123b1a6040518163ffffffff1660e01b815260040160006040518083038186803b1580156107a057600080fd5b505afa1580156107b4573d6000803e3d6000fd5b505050506040513d6000823e601f3d908101601f191682016040526107dc9190810190611e8f565b6112b2565b905060006107f88560a001518660e00151886112b9565b9050836001600160a01b0316826001600160a01b031614156108fe5784608001518560e001511061083b5760405162461bcd60e51b815260040161026d906127c7565b6040805160018082528183019092529060208083019080368337019050509a50828b60008151811061086957fe5b6001600160a01b0392909216602092830291909101820152604080516001808252818301909252918281019080368337019050509950858a6000815181106108ad57fe5b6020026020010181815250506108e081896000815181106108ca57fe5b60200260200101516112d990919063ffffffff16565b886000815181106108ed57fe5b602002602001018181525050610a5d565b826001600160a01b0316826001600160a01b03161415610993576040805160018082528183019092529060208083019080368337019050509a50828b60008151811061094657fe5b6001600160a01b03929092166020928302919091018201526040805160018082528183019092529182810190803683370190505099506109868682611301565b8a6000815181106108ed57fe5b6040805160028082526060820183529091602083019080368337019050509a50828b6000815181106109c157fe5b60200260200101906001600160a01b031690816001600160a01b031681525050818b6001815181106109ef57fe5b6001600160a01b0392909216602092830291909101820152604080516002808252606082018352909290919083019080368337019050509950858a600081518110610a3657fe5b602002602001018181525050808a600181518110610a5057fe5b6020026020010181815250505b5050610ae3565b60408051600180825281830190925290602080830190803683370190505098508089600081518110610a9257fe5b6001600160a01b03929092166020928302919091018201526040805160018082528183019092529182810190803683370190505097508388600081518110610ad657fe5b6020026020010181815250505b600299505050505050945094509450945094565b610aff6104bc565b6001600160a01b0316336001600160a01b031614610b2f5760405162461bcd60e51b815260040161026d906127d7565b80610b4c5760405162461bcd60e51b815260040161026d906127b7565b60005b81811015610c4357610b7b838383818110610b6657fe5b90506020020160208101906102139190611bdd565b610b975760405162461bcd60e51b815260040161026d906128a7565b6000806000858585818110610ba857fe5b9050602002016020810190610bbd9190611bdd565b6001600160a01b031681526020810191909152604001600020805460ff1916911515919091179055828282818110610bf157fe5b9050602002016020810190610c069190611bdd565b6001600160a01b03167f20bc817441764d1758bec8956a90bf0ba498c8c4098524577f7c068d3c9f8c3660405160405180910390a2600101610b4f565b505050565b7f000000000000000000000000000000000000000000000000000000000000000090565b7fc29fa9dde84204c2908778afd0613d802d31cf046179b88f6d2b4a4e507ea2d581565b6001600160a01b03811660009081526020819052604090205460ff165b919050565b6060600082806020019051810190610cca9190611ec3565b91509150915091565b610cdb611774565b610ce36117f9565b610ceb611817565b610cf3611835565b610cfc85610e4d565b5092509250925060405180610180016040528084600060048110610d1c57fe5b60200201516001600160a01b0316815260200184600160048110610d3c57fe5b60200201516001600160a01b0316815260200184600260048110610d5c57fe5b60200201516001600160a01b0316815260200184600360048110610d7c57fe5b60200201516001600160a01b0316815260200183600060068110610d9c57fe5b6020020151815260200183600160068110610db357fe5b6020020151815260200183600260068110610dca57fe5b6020020151815260200183600360068110610de157fe5b6020020151815260200183600460068110610df857fe5b6020020151815260200183600560068110610e0f57fe5b6020020151815260200182600060028110610e2657fe5b6020020151815260200182600160028110610e3d57fe5b6020020151905295945050505050565b610e556117f9565b610e5d611817565b610e65611835565b606084806020019051810190610e7b9190611d0d565b93509350935093509193509193565b610eaf610e9b8461016001516112b2565b610ea9856101600151611326565b846113bb565b60e083015115610f815760607f00000000000000000000000000000000000000000000000000000000000000006001600160a01b031663db123b1a6040518163ffffffff1660e01b815260040160006040518083038186803b158015610f1457600080fd5b505afa158015610f28573d6000803e3d6000fd5b505050506040513d6000823e601f3d908101601f19168201604052610f509190810190611e8f565b9050610f7f610f5e826112b2565b610f6783611326565b610f7a8760a001518860e00151886112b9565b6113bb565b505b60405163b4be83d560e01b81526001600160a01b037f0000000000000000000000000000000000000000000000000000000000000000169063b4be83d590610fd1908690869086906004016128c7565b608060405180830381600087803b158015610feb57600080fd5b505af1158015610fff573d6000803e3d6000fd5b505050506040513d601f19601f820116820180604052508101906110239190611f13565b50505050565b6060806060838060200190518101906110429190611de0565b9250925092509193909250565b606081516001600160401b038111801561106857600080fd5b50604051908082528060200260200182016040528015611092578160200160208202803683370190505b50905060005b82518110156111a35760008382815181106110af57fe5b60200260200101519050806001600160a01b03166370a08231306040518263ffffffff1660e01b81526004016110e591906126ea565b60206040518083038186803b1580156110fd57600080fd5b505afa158015611111573d6000803e3d6000fd5b505050506040513d601f19601f820116820180604052508101906111359190611f31565b83838151811061114157fe5b602002602001018181525050600083838151811061115b57fe5b6020026020010151111561119a5761119a8584848151811061117957fe5b6020026020010151836001600160a01b03166114779092919063ffffffff16565b50600101611098565b505b92915050565b60008151116111cc5760405162461bcd60e51b815260040161026d906127f7565b60005b8151811015610494576111f48282815181106111e757fe5b6020026020010151610c90565b156112115760405162461bcd60e51b815260040161026d90612877565b600160008084848151811061122257fe5b60200260200101516001600160a01b03166001600160a01b0316815260200190815260200160002060006101000a81548160ff02191690831515021790555081818151811061126d57fe5b60200260200101516001600160a01b03167f2e1c3b07a83c6d2606a67771e6dd5c25722baac28ecf38e8056fb820d88536a860405160405180910390a26001016111cf565b6024015190565b60006112cf846112c984866114cd565b90611507565b90505b9392505050565b6000828211156112fb5760405162461bcd60e51b815260040161026d90612817565b50900390565b6000828201838110156112d25760405162461bcd60e51b815260040161026d906127e7565b60208101516000906001600160e01b031916611340610390565b6001600160a01b03166360704108826040518263ffffffff1660e01b815260040161136b919061273c565b60206040518083038186803b15801561138357600080fd5b505afa158015611397573d6000803e3d6000fd5b505050506040513d601f19601f820116820180604052508101906112d29190611c03565b604051636eb1769f60e11b81526000906001600160a01b0385169063dd62ed3e906113ec90309087906004016126f8565b60206040518083038186803b15801561140457600080fd5b505afa158015611418573d6000803e3d6000fd5b505050506040513d601f19601f8201168201806040525081019061143c9190611f31565b905081811015611023578015611461576114616001600160a01b038516846000611539565b6110236001600160a01b03851684600019611539565b610c438363a9059cbb60e01b8484604051602401611496929190612713565b60408051601f198184030181529190526020810180516001600160e01b03166001600160e01b0319909316929092179091526115fc565b6000826114dc575060006111a5565b828202828482816114e957fe5b04146112d25760405162461bcd60e51b815260040161026d90612847565b60008082116115285760405162461bcd60e51b815260040161026d90612827565b81838161153157fe5b049392505050565b8015806115c15750604051636eb1769f60e11b81526001600160a01b0384169063dd62ed3e9061156f90309086906004016126f8565b60206040518083038186803b15801561158757600080fd5b505afa15801561159b573d6000803e3d6000fd5b505050506040513d601f19601f820116820180604052508101906115bf9190611f31565b155b6115dd5760405162461bcd60e51b815260040161026d90612897565b610c438363095ea7b360e01b8484604051602401611496929190612713565b6060611651826040518060400160405280602081526020017f5361666545524332303a206c6f772d6c6576656c2063616c6c206661696c6564815250856001600160a01b031661168b9092919063ffffffff16565b805190915015610c43578080602001905181019061166f9190611e71565b610c435760405162461bcd60e51b815260040161026d90612887565b60606112cf84846000858561169f85611735565b6116bb5760405162461bcd60e51b815260040161026d90612867565b60006060866001600160a01b031685876040516116d891906126de565b60006040518083038185875af1925050503d8060008114611715576040519150601f19603f3d011682016040523d82523d6000602084013e61171a565b606091505b509150915061172a82828661173b565b979650505050505050565b3b151590565b6060831561174a5750816112d2565b82511561175a5782518084602001fd5b8160405162461bcd60e51b815260040161026d91906127a6565b60405180610180016040528060006001600160a01b0316815260200160006001600160a01b0316815260200160006001600160a01b0316815260200160006001600160a01b0316815260200160008152602001600081526020016000815260200160008152602001600081526020016000815260200160608152602001606081525090565b60405180608001604052806004906020820280368337509192915050565b6040518060c001604052806006906020820280368337509192915050565b60405180604001604052806002905b60608152602001906001900390816118445790505090565b80356111a581612a1a565b80516111a581612a1a565b600082601f83011261188357600080fd5b60046118966118918261291f565b6128f9565b915081838560208402820111156118ac57600080fd5b60005b838110156118d857816118c28882611867565b84525060209283019291909101906001016118af565b5050505092915050565b60008083601f8401126118f457600080fd5b5081356001600160401b0381111561190b57600080fd5b60208301915083602082028301111561192357600080fd5b9250929050565b600082601f83011261193b57600080fd5b81516119496118918261293c565b9150818183526020840193506020810190508385602084028201111561196e57600080fd5b60005b838110156118d857816119848882611867565b8452506020928301929190910190600101611971565b600082601f8301126119ab57600080fd5b60026119b96118918261291f565b9150818360005b838110156118d857815186016119d68882611b14565b84525060209283019291909101906001016119c0565b600082601f8301126119fd57600080fd5b6006611a0b6118918261291f565b91508183856020840282011115611a2157600080fd5b60005b838110156118d85781611a378882611bd2565b8452506020928301929190910190600101611a24565b600082601f830112611a5e57600080fd5b8151611a6c6118918261293c565b91508181835260208401935060208101905083856020840282011115611a9157600080fd5b60005b838110156118d85781611aa78882611bd2565b8452506020928301929190910190600101611a94565b80516111a581612a2e565b80356111a581612a37565b60008083601f840112611ae557600080fd5b5081356001600160401b03811115611afc57600080fd5b60208301915083600182028301111561192357600080fd5b600082601f830112611b2557600080fd5b8151611b336118918261295c565b91508082526020830160208301858383011115611b4f57600080fd5b611b5a8382846129d7565b50505092915050565b600060808284031215611b7557600080fd5b611b7f60806128f9565b90506000611b8d8484611bd2565b8252506020611b9e84848301611bd2565b6020830152506040611bb284828501611bd2565b6040830152506060611bc684828501611bd2565b60608301525092915050565b80516111a581612a40565b600060208284031215611bef57600080fd5b6000611bfb848461185c565b949350505050565b600060208284031215611c1557600080fd5b6000611bfb8484611867565b60008060008060608587031215611c3757600080fd5b6000611c43878761185c565b9450506020611c5487828801611ac8565b93505060408501356001600160401b03811115611c7057600080fd5b611c7c87828801611ad3565b95989497509550505050565b600080600080600060608688031215611ca057600080fd5b6000611cac888861185c565b95505060208601356001600160401b03811115611cc857600080fd5b611cd488828901611ad3565b945094505060408601356001600160401b03811115611cf257600080fd5b611cfe88828901611ad3565b92509250509295509295909350565b6000806000806101808587031215611d2457600080fd5b6000611d308787611872565b9450506080611d41878288016119ec565b9350506101408501516001600160401b03811115611d5e57600080fd5b611d6a8782880161199a565b9250506101608501516001600160401b03811115611d8757600080fd5b611d9387828801611b14565b91505092959194509250565b60008060208385031215611db257600080fd5b82356001600160401b03811115611dc857600080fd5b611dd4858286016118e2565b92509250509250929050565b600080600060608486031215611df557600080fd5b83516001600160401b03811115611e0b57600080fd5b611e178682870161192a565b93505060208401516001600160401b03811115611e3357600080fd5b611e3f86828701611a4d565b92505060408401516001600160401b03811115611e5b57600080fd5b611e678682870161192a565b9150509250925092565b600060208284031215611e8357600080fd5b6000611bfb8484611abd565b600060208284031215611ea157600080fd5b81516001600160401b03811115611eb757600080fd5b611bfb84828501611b14565b60008060408385031215611ed657600080fd5b82516001600160401b03811115611eec57600080fd5b611ef885828601611b14565b9250506020611f0985828601611bd2565b9150509250929050565b600060808284031215611f2557600080fd5b6000611bfb8484611b63565b600060208284031215611f4357600080fd5b6000611bfb8484611bd2565b6000611f5b8383611f6f565b505060200190565b6000611f5b83836126d5565b611f7881612996565b82525050565b6000611f8982612989565b611f93818561298d565b9350611f9e83612983565b8060005b83811015611fcc578151611fb68882611f4f565b9750611fc183612983565b925050600101611fa2565b509495945050505050565b6000611fe282612989565b611fec818561298d565b9350611ff783612983565b8060005b83811015611fcc57815161200f8882611f63565b975061201a83612983565b925050600101611ffb565b611f78816129a1565b611f78816129a6565b600061204282612989565b61204c818561298d565b935061205c8185602086016129d7565b61206581612a03565b9093019392505050565b600061207a82612989565b6120848185610cad565b93506120948185602086016129d7565b9290920192915050565b611f78816129cc565b60006120b4602c8361298d565b7f72656d6f7665416c6c6f7765644d616b6572733a20456d707479205f6163636f81526b756e7473546f52656d6f766560a01b602082015260400192915050565b600061210260378361298d565b7f7061727365417373657473466f72416374696f6e3a204665652067726561746581527f72207468616e206d616b65724173736574416d6f756e74000000000000000000602082015260400192915050565b600061216160498361298d565b7f6f6e6c7946756e644465706c6f7965724f776e65723a204f6e6c79207468652081527f46756e644465706c6f796572206f776e65722063616e2063616c6c207468697360208201526810333ab731ba34b7b760b91b604082015260600192915050565b60006121d2601b8361298d565b7f536166654d6174683a206164646974696f6e206f766572666c6f770000000000815260200192915050565b600061220b60288361298d565b7f5f5f616464416c6c6f7765644d616b6572733a20456d707479205f6163636f758152671b9d1cd51bd0591960c21b602082015260400192915050565b600061225560448361298d565b7f7061727365417373657473466f72416374696f6e3a2054616b6572206173736581527f742066696c6c20616d6f756e742067726561746572207468616e20617661696c60208201526361626c6560e01b604082015260600192915050565b60006122c1601e8361298d565b7f536166654d6174683a207375627472616374696f6e206f766572666c6f770000815260200192915050565b60006122fa601a8361298d565b7f536166654d6174683a206469766973696f6e206279207a65726f000000000000815260200192915050565b600061233360328361298d565b7f4f6e6c792074686520496e746567726174696f6e4d616e616765722063616e2081527131b0b636103a3434b990333ab731ba34b7b760711b602082015260400192915050565b600061238760218361298d565b7f536166654d6174683a206d756c7469706c69636174696f6e206f766572666c6f8152607760f81b602082015260400192915050565b60006123ca60308361298d565b7f7061727365417373657473466f72416374696f6e3a204f72646572206d616b6581526f1c881a5cc81b9bdd08185b1b1bddd95960821b602082015260400192915050565b600061241c601d8361298d565b7f416464726573733a2063616c6c20746f206e6f6e2d636f6e7472616374000000815260200192915050565b600061245560258361298d565b7f5f5f616464416c6c6f7765644d616b6572733a2056616c756520616c726561648152641e481cd95d60da1b602082015260400192915050565b600061249c602a8361298d565b7f5361666545524332303a204552433230206f7065726174696f6e20646964206e8152691bdd081cdd58d8d9595960b21b602082015260400192915050565b60006124e860368361298d565b7f5361666545524332303a20617070726f76652066726f6d206e6f6e2d7a65726f81527520746f206e6f6e2d7a65726f20616c6c6f77616e636560501b602082015260400192915050565b600061254060348361298d565b7f72656d6f7665416c6c6f7765644d616b6572733a204163636f756e74206973208152733737ba1030b71030b63637bbb2b21036b0b5b2b960611b602082015260400192915050565b600061259660278361298d565b7f7061727365417373657473466f72416374696f6e3a205f73656c6563746f72208152661a5b9d985b1a5960ca1b602082015260400192915050565b80516000906101808401906125e78582611f6f565b5060208301516125fa6020860182611f6f565b50604083015161260d6040860182611f6f565b5060608301516126206060860182611f6f565b50608083015161263360808601826126d5565b5060a083015161264660a08601826126d5565b5060c083015161265960c08601826126d5565b5060e083015161266c60e08601826126d5565b506101008301516126816101008601826126d5565b506101208301516126966101208601826126d5565b506101408301518482036101408601526126b08282612037565b9150506101608301518482036101608601526126cc8282612037565b95945050505050565b611f78816129c9565b60006112d2828461206f565b602081016111a58284611f6f565b604081016127068285611f6f565b6112d26020830184611f6f565b604081016127218285611f6f565b6112d260208301846126d5565b602081016111a58284612025565b602081016111a5828461202e565b60a08101612758828861209e565b818103602083015261276a8187611f7e565b9050818103604083015261277e8186611fd7565b905081810360608301526127928185611f7e565b9050818103608083015261172a8184611fd7565b602080825281016112d28184612037565b602080825281016111a5816120a7565b602080825281016111a5816120f5565b602080825281016111a581612154565b602080825281016111a5816121c5565b602080825281016111a5816121fe565b602080825281016111a581612248565b602080825281016111a5816122b4565b602080825281016111a5816122ed565b602080825281016111a581612326565b602080825281016111a58161237a565b602080825281016111a5816123bd565b602080825281016111a58161240f565b602080825281016111a581612448565b602080825281016111a58161248f565b602080825281016111a5816124db565b602080825281016111a581612533565b602080825281016111a581612589565b606080825281016128d881866125d2565b90506128e760208301856126d5565b81810360408301526126cc8184612037565b6040518181016001600160401b038111828210171561291757600080fd5b604052919050565b60006001600160401b0382111561293557600080fd5b5060200290565b60006001600160401b0382111561295257600080fd5b5060209081020190565b60006001600160401b0382111561297257600080fd5b506020601f91909101601f19160190565b60200190565b5190565b90815260200190565b60006111a5826129bd565b151590565b6001600160e01b03191690565b80610cad81612a0d565b6001600160a01b031690565b90565b60006111a5826129b3565b60005b838110156129f25781810151838201526020016129da565b838111156110235750506000910152565b601f01601f191690565b60038110612a1757fe5b50565b612a2381612996565b8114612a1757600080fd5b612a23816129a1565b612a23816129a6565b612a23816129c956fea26469706673582212205451064ab780b752db48a4a4bef46e852056682f91feec1aeca7def9ff0bf21564736f6c634300060c0033",
  "linkReferences": {},
  "deployedLinkReferences": {}
}