{"abi":[{"type":"constructor","inputs":[{"name":"_aaveCollector","type":"address","internalType":"address"},{"name":"_paraswapFeeClaimer","type":"address","internalType":"contract IFeeClaimer"}],"stateMutability":"nonpayable"},{"type":"function","name":"aaveCollector","inputs":[],"outputs":[{"name":"","type":"address","internalType":"address"}],"stateMutability":"view"},{"type":"function","name":"batchClaimToCollector","inputs":[{"name":"assets","type":"address[]","internalType":"address[]"}],"outputs":[],"stateMutability":"nonpayable"},{"type":"function","name":"batchGetClaimable","inputs":[{"name":"assets","type":"address[]","internalType":"address[]"}],"outputs":[{"name":"","type":"uint256[]","internalType":"uint256[]"}],"stateMutability":"view"},{"type":"function","name":"claimToCollector","inputs":[{"name":"asset","type":"address","internalType":"contract IERC20"}],"outputs":[],"stateMutability":"nonpayable"},{"type":"function","name":"getClaimable","inputs":[{"name":"asset","type":"address","internalType":"address"}],"outputs":[{"name":"","type":"uint256","internalType":"uint256"}],"stateMutability":"view"},{"type":"function","name":"paraswapFeeClaimer","inputs":[],"outputs":[{"name":"","type":"address","internalType":"contract IFeeClaimer"}],"stateMutability":"view"}],"bytecode":{"object":"0x60c060405234801561000f575f80fd5b506040516107a73803806107a783398101604081905261002e91610102565b6001600160a01b0381166100895760405162461bcd60e51b815260206004820152601d60248201527f50415241535741505f4645455f434c41494d45525f524551554952454400000060448201526064015b60405180910390fd5b6001600160a01b0382166100d45760405162461bcd60e51b815260206004820152601260248201527110d3d3131150d513d497d49154555254915160721b6044820152606401610080565b6001600160a01b039182166080521660a05261013a565b6001600160a01b03811681146100ff575f80fd5b50565b5f8060408385031215610113575f80fd5b825161011e816100eb565b602084015190925061012f816100eb565b809150509250929050565b60805160a0516106246101835f395f818160690152818161017f0152818161020501528181610283015261030e01525f818160d501528181610157015261023401526106245ff3fe608060405234801561000f575f80fd5b5060043610610060575f3560e01c806301bb0de514610064578063080dba3a146100a8578063274af2a9146100bd57806359c7dc7a146100d0578063a583024b146100f7578063ebdb0e8314610118575b5f80fd5b61008b7f000000000000000000000000000000000000000000000000000000000000000081565b6040516001600160a01b0390911681526020015b60405180910390f35b6100bb6100b636600461039d565b610138565b005b6100bb6100cb366004610427565b6101ee565b61008b7f000000000000000000000000000000000000000000000000000000000000000081565b61010a61010536600461039d565b61025c565b60405190815260200161009f565b61012b610126366004610427565b6102f4565b60405161009f91906104c1565b6040516315c238ff60e31b81526001600160a01b0382811660048301527f0000000000000000000000000000000000000000000000000000000000000000811660248301527f0000000000000000000000000000000000000000000000000000000000000000169063ae11c7f8906044015b6020604051808303815f875af11580156101c6573d5f803e3d5ffd5b505050506040513d601f19601f820116820180604052508101906101ea9190610504565b5050565b6040516302efb73160e61b81526001600160a01b037f0000000000000000000000000000000000000000000000000000000000000000169063bbedcc40906101aa9084907f000000000000000000000000000000000000000000000000000000000000000090600401610523565b60405163d4fac45d60e01b81526001600160a01b0382811660048301523060248301525f917f00000000000000000000000000000000000000000000000000000000000000009091169063d4fac45d90604401602060405180830381865afa1580156102ca573d5f803e3d5ffd5b505050506040513d601f19601f820116820180604052508101906102ee919061057f565b92915050565b60405163b0a65b1760e01b81526060906001600160a01b037f0000000000000000000000000000000000000000000000000000000000000000169063b0a65b17906103459085903090600401610523565b5f60405180830381865afa15801561035f573d5f803e3d5ffd5b505050506040513d5f823e601f3d908101601f191682016040526102ee9190810190610596565b6001600160a01b038116811461039a575f80fd5b50565b5f602082840312156103ad575f80fd5b81356103b881610386565b9392505050565b634e487b7160e01b5f52604160045260245ffd5b604051601f8201601f1916810167ffffffffffffffff811182821017156103fc576103fc6103bf565b604052919050565b5f67ffffffffffffffff82111561041d5761041d6103bf565b5060051b60200190565b5f6020808385031215610438575f80fd5b823567ffffffffffffffff81111561044e575f80fd5b8301601f8101851361045e575f80fd5b803561047161046c82610404565b6103d3565b81815260059190911b8201830190838101908783111561048f575f80fd5b928401925b828410156104b65783356104a781610386565b82529284019290840190610494565b979650505050505050565b602080825282518282018190525f9190848201906040850190845b818110156104f8578351835292840192918401916001016104dc565b50909695505050505050565b5f60208284031215610514575f80fd5b815180151581146103b8575f80fd5b604080825283519082018190525f906020906060840190828701845b828110156105645781516001600160a01b03168452928401929084019060010161053f565b5050506001600160a01b039490941692019190915250919050565b5f6020828403121561058f575f80fd5b5051919050565b5f60208083850312156105a7575f80fd5b825167ffffffffffffffff8111156105bd575f80fd5b8301601f810185136105cd575f80fd5b80516105db61046c82610404565b81815260059190911b820183019083810190878311156105f9575f80fd5b928401925b828410156104b6578351825292840192908401906105fe56fea164736f6c6343000814000a","linkReferences":{}},"methodIdentifiers":{"aaveCollector()":"59c7dc7a","batchClaimToCollector(address[])":"274af2a9","batchGetClaimable(address[])":"ebdb0e83","claimToCollector(address)":"080dba3a","getClaimable(address)":"a583024b","paraswapFeeClaimer()":"01bb0de5"},"id":99}