{"abi":[{"type":"constructor","inputs":[{"name":"aTokenImpl","type":"address","internalType":"address"},{"name":"vTokenImpl","type":"address","internalType":"address"},{"name":"engineConstants","type":"tuple","internalType":"struct IAaveV3ConfigEngine.EngineConstants","components":[{"name":"pool","type":"address","internalType":"contract IPool"},{"name":"poolConfigurator","type":"address","internalType":"contract IPoolConfigurator"},{"name":"oracle","type":"address","internalType":"contract IAaveOracle"},{"name":"rewardsController","type":"address","internalType":"address"},{"name":"collector","type":"address","internalType":"address"},{"name":"defaultInterestRateStrategy","type":"address","internalType":"address"}]},{"name":"engineLibraries","type":"tuple","internalType":"struct IAaveV3ConfigEngine.EngineLibraries","components":[{"name":"listingEngine","type":"address","internalType":"address"},{"name":"eModeEngine","type":"address","internalType":"address"},{"name":"borrowEngine","type":"address","internalType":"address"},{"name":"collateralEngine","type":"address","internalType":"address"},{"name":"priceFeedEngine","type":"address","internalType":"address"},{"name":"rateEngine","type":"address","internalType":"address"},{"name":"capsEngine","type":"address","internalType":"address"}]}],"stateMutability":"nonpayable"},{"type":"function","name":"ATOKEN_IMPL","inputs":[],"outputs":[{"name":"","type":"address","internalType":"address"}],"stateMutability":"view"},{"type":"function","name":"BORROW_ENGINE","inputs":[],"outputs":[{"name":"","type":"address","internalType":"address"}],"stateMutability":"view"},{"type":"function","name":"CAPS_ENGINE","inputs":[],"outputs":[{"name":"","type":"address","internalType":"address"}],"stateMutability":"view"},{"type":"function","name":"COLLATERAL_ENGINE","inputs":[],"outputs":[{"name":"","type":"address","internalType":"address"}],"stateMutability":"view"},{"type":"function","name":"COLLECTOR","inputs":[],"outputs":[{"name":"","type":"address","internalType":"address"}],"stateMutability":"view"},{"type":"function","name":"DEFAULT_INTEREST_RATE_STRATEGY","inputs":[],"outputs":[{"name":"","type":"address","internalType":"address"}],"stateMutability":"view"},{"type":"function","name":"EMODE_ENGINE","inputs":[],"outputs":[{"name":"","type":"address","internalType":"address"}],"stateMutability":"view"},{"type":"function","name":"LISTING_ENGINE","inputs":[],"outputs":[{"name":"","type":"address","internalType":"address"}],"stateMutability":"view"},{"type":"function","name":"ORACLE","inputs":[],"outputs":[{"name":"","type":"address","internalType":"contract IAaveOracle"}],"stateMutability":"view"},{"type":"function","name":"POOL","inputs":[],"outputs":[{"name":"","type":"address","internalType":"contract IPool"}],"stateMutability":"view"},{"type":"function","name":"POOL_CONFIGURATOR","inputs":[],"outputs":[{"name":"","type":"address","internalType":"contract IPoolConfigurator"}],"stateMutability":"view"},{"type":"function","name":"PRICE_FEED_ENGINE","inputs":[],"outputs":[{"name":"","type":"address","internalType":"address"}],"stateMutability":"view"},{"type":"function","name":"RATE_ENGINE","inputs":[],"outputs":[{"name":"","type":"address","internalType":"address"}],"stateMutability":"view"},{"type":"function","name":"REWARDS_CONTROLLER","inputs":[],"outputs":[{"name":"","type":"address","internalType":"address"}],"stateMutability":"view"},{"type":"function","name":"VTOKEN_IMPL","inputs":[],"outputs":[{"name":"","type":"address","internalType":"address"}],"stateMutability":"view"},{"type":"function","name":"listAssets","inputs":[{"name":"context","type":"tuple","internalType":"struct IAaveV3ConfigEngine.PoolContext","components":[{"name":"networkName","type":"string","internalType":"string"},{"name":"networkAbbreviation","type":"string","internalType":"string"}]},{"name":"listings","type":"tuple[]","internalType":"struct IAaveV3ConfigEngine.Listing[]","components":[{"name":"asset","type":"address","internalType":"address"},{"name":"assetSymbol","type":"string","internalType":"string"},{"name":"priceFeed","type":"address","internalType":"address"},{"name":"rateStrategyParams","type":"tuple","internalType":"struct IAaveV3ConfigEngine.InterestRateInputData","components":[{"name":"optimalUsageRatio","type":"uint256","internalType":"uint256"},{"name":"baseVariableBorrowRate","type":"uint256","internalType":"uint256"},{"name":"variableRateSlope1","type":"uint256","internalType":"uint256"},{"name":"variableRateSlope2","type":"uint256","internalType":"uint256"}]},{"name":"enabledToBorrow","type":"uint256","internalType":"uint256"},{"name":"borrowableInIsolation","type":"uint256","internalType":"uint256"},{"name":"withSiloedBorrowing","type":"uint256","internalType":"uint256"},{"name":"flashloanable","type":"uint256","internalType":"uint256"},{"name":"ltv","type":"uint256","internalType":"uint256"},{"name":"liqThreshold","type":"uint256","internalType":"uint256"},{"name":"liqBonus","type":"uint256","internalType":"uint256"},{"name":"reserveFactor","type":"uint256","internalType":"uint256"},{"name":"supplyCap","type":"uint256","internalType":"uint256"},{"name":"borrowCap","type":"uint256","internalType":"uint256"},{"name":"debtCeiling","type":"uint256","internalType":"uint256"},{"name":"liqProtocolFee","type":"uint256","internalType":"uint256"}]}],"outputs":[],"stateMutability":"nonpayable"},{"type":"function","name":"listAssetsCustom","inputs":[{"name":"context","type":"tuple","internalType":"struct IAaveV3ConfigEngine.PoolContext","components":[{"name":"networkName","type":"string","internalType":"string"},{"name":"networkAbbreviation","type":"string","internalType":"string"}]},{"name":"listings","type":"tuple[]","internalType":"struct IAaveV3ConfigEngine.ListingWithCustomImpl[]","components":[{"name":"base","type":"tuple","internalType":"struct IAaveV3ConfigEngine.Listing","components":[{"name":"asset","type":"address","internalType":"address"},{"name":"assetSymbol","type":"string","internalType":"string"},{"name":"priceFeed","type":"address","internalType":"address"},{"name":"rateStrategyParams","type":"tuple","internalType":"struct IAaveV3ConfigEngine.InterestRateInputData","components":[{"name":"optimalUsageRatio","type":"uint256","internalType":"uint256"},{"name":"baseVariableBorrowRate","type":"uint256","internalType":"uint256"},{"name":"variableRateSlope1","type":"uint256","internalType":"uint256"},{"name":"variableRateSlope2","type":"uint256","internalType":"uint256"}]},{"name":"enabledToBorrow","type":"uint256","internalType":"uint256"},{"name":"borrowableInIsolation","type":"uint256","internalType":"uint256"},{"name":"withSiloedBorrowing","type":"uint256","internalType":"uint256"},{"name":"flashloanable","type":"uint256","internalType":"uint256"},{"name":"ltv","type":"uint256","internalType":"uint256"},{"name":"liqThreshold","type":"uint256","internalType":"uint256"},{"name":"liqBonus","type":"uint256","internalType":"uint256"},{"name":"reserveFactor","type":"uint256","internalType":"uint256"},{"name":"supplyCap","type":"uint256","internalType":"uint256"},{"name":"borrowCap","type":"uint256","internalType":"uint256"},{"name":"debtCeiling","type":"uint256","internalType":"uint256"},{"name":"liqProtocolFee","type":"uint256","internalType":"uint256"}]},{"name":"implementations","type":"tuple","internalType":"struct IAaveV3ConfigEngine.TokenImplementations","components":[{"name":"aToken","type":"address","internalType":"address"},{"name":"vToken","type":"address","internalType":"address"}]}]}],"outputs":[],"stateMutability":"nonpayable"},{"type":"function","name":"updateAssetsEMode","inputs":[{"name":"updates","type":"tuple[]","internalType":"struct IAaveV3ConfigEngine.AssetEModeUpdate[]","components":[{"name":"asset","type":"address","internalType":"address"},{"name":"eModeCategory","type":"uint8","internalType":"uint8"},{"name":"borrowable","type":"uint256","internalType":"uint256"},{"name":"collateral","type":"uint256","internalType":"uint256"}]}],"outputs":[],"stateMutability":"nonpayable"},{"type":"function","name":"updateBorrowSide","inputs":[{"name":"updates","type":"tuple[]","internalType":"struct IAaveV3ConfigEngine.BorrowUpdate[]","components":[{"name":"asset","type":"address","internalType":"address"},{"name":"enabledToBorrow","type":"uint256","internalType":"uint256"},{"name":"flashloanable","type":"uint256","internalType":"uint256"},{"name":"borrowableInIsolation","type":"uint256","internalType":"uint256"},{"name":"withSiloedBorrowing","type":"uint256","internalType":"uint256"},{"name":"reserveFactor","type":"uint256","internalType":"uint256"}]}],"outputs":[],"stateMutability":"nonpayable"},{"type":"function","name":"updateCaps","inputs":[{"name":"updates","type":"tuple[]","internalType":"struct IAaveV3ConfigEngine.CapsUpdate[]","components":[{"name":"asset","type":"address","internalType":"address"},{"name":"supplyCap","type":"uint256","internalType":"uint256"},{"name":"borrowCap","type":"uint256","internalType":"uint256"}]}],"outputs":[],"stateMutability":"nonpayable"},{"type":"function","name":"updateCollateralSide","inputs":[{"name":"updates","type":"tuple[]","internalType":"struct IAaveV3ConfigEngine.CollateralUpdate[]","components":[{"name":"asset","type":"address","internalType":"address"},{"name":"ltv","type":"uint256","internalType":"uint256"},{"name":"liqThreshold","type":"uint256","internalType":"uint256"},{"name":"liqBonus","type":"uint256","internalType":"uint256"},{"name":"debtCeiling","type":"uint256","internalType":"uint256"},{"name":"liqProtocolFee","type":"uint256","internalType":"uint256"}]}],"outputs":[],"stateMutability":"nonpayable"},{"type":"function","name":"updateEModeCategories","inputs":[{"name":"updates","type":"tuple[]","internalType":"struct IAaveV3ConfigEngine.EModeCategoryUpdate[]","components":[{"name":"eModeCategory","type":"uint8","internalType":"uint8"},{"name":"ltv","type":"uint256","internalType":"uint256"},{"name":"liqThreshold","type":"uint256","internalType":"uint256"},{"name":"liqBonus","type":"uint256","internalType":"uint256"},{"name":"label","type":"string","internalType":"string"}]}],"outputs":[],"stateMutability":"nonpayable"},{"type":"function","name":"updatePriceFeeds","inputs":[{"name":"updates","type":"tuple[]","internalType":"struct IAaveV3ConfigEngine.PriceFeedUpdate[]","components":[{"name":"asset","type":"address","internalType":"address"},{"name":"priceFeed","type":"address","internalType":"address"}]}],"outputs":[],"stateMutability":"nonpayable"},{"type":"function","name":"updateRateStrategies","inputs":[{"name":"updates","type":"tuple[]","internalType":"struct IAaveV3ConfigEngine.RateStrategyUpdate[]","components":[{"name":"asset","type":"address","internalType":"address"},{"name":"params","type":"tuple","internalType":"struct IAaveV3ConfigEngine.InterestRateInputData","components":[{"name":"optimalUsageRatio","type":"uint256","internalType":"uint256"},{"name":"baseVariableBorrowRate","type":"uint256","internalType":"uint256"},{"name":"variableRateSlope1","type":"uint256","internalType":"uint256"},{"name":"variableRateSlope2","type":"uint256","internalType":"uint256"}]}]}],"outputs":[],"stateMutability":"nonpayable"}],"bytecode":{"object":"0x61026060405234801562000011575f80fd5b50604051620023cd380380620023cd83398101604081905262000034916200040f565b81516001600160a01b0316158015906200005a575060208201516001600160a01b031615155b801562000073575060408201516001600160a01b031615155b80156200008c575060608201516001600160a01b031615155b8015620000a5575060808201516001600160a01b031615155b8015620000be575060a08201516001600160a01b031615155b620001105760405162461bcd60e51b815260206004820152601d60248201527f4f4e4c595f4e4f4e5a45524f5f454e47494e455f434f4e5354414e545300000060448201526064015b60405180910390fd5b6001600160a01b038416158015906200013157506001600160a01b03831615155b6200017f5760405162461bcd60e51b815260206004820152601860248201527f4f4e4c595f4e4f4e5a45524f5f544f4b454e5f494d504c530000000000000000604482015260640162000107565b60408101516001600160a01b031615801590620001a8575060c08101516001600160a01b031615155b8015620001be575080516001600160a01b031615155b8015620001d7575060808101516001600160a01b031615155b8015620001f0575060a08101516001600160a01b031615155b6200023e5760405162461bcd60e51b815260206004820152601d60248201527f4f4e4c595f4e4f4e5a45524f5f454e47494e455f4c4942524152494553000000604482015260640162000107565b6001600160a01b0393841660e05291831661010052805183166080908152602080830151851660a0908152604080850151871660c090815260608087015189166101205285870151891661014052958301518816610160529086015187166101805285015186166101a0529284015185166101c05283015184166101e052825184166102005282015183166102205201511661024052620004fc565b6001600160a01b0381168114620002ef575f80fd5b50565b8051620002ff81620002da565b919050565b60405160c081016001600160401b03811182821017156200033357634e487b7160e01b5f52604160045260245ffd5b60405290565b5f60e082840312156200034a575f80fd5b60405160e081016001600160401b03811182821017156200037957634e487b7160e01b5f52604160045260245ffd5b806040525080915082516200038e81620002da565b81526020830151620003a081620002da565b60208201526040830151620003b581620002da565b60408201526060830151620003ca81620002da565b6060820152620003dd60808401620002f2565b6080820152620003f060a08401620002f2565b60a08201526200040360c08401620002f2565b60c08201525092915050565b5f805f808486036101e081121562000425575f80fd5b85516200043281620002da565b60208701519095506200044581620002da565b935060c0603f198201121562000459575f80fd5b506200046462000304565b60408601516200047481620002da565b815260608601516200048681620002da565b602082015260808601516200049b81620002da565b604082015260a0860151620004b081620002da565b606082015260c0860151620004c581620002da565b608082015260e0860151620004da81620002da565b60a08201529150620004f186610100870162000339565b905092959194509250565b60805160a05160c05160e05161010051610120516101405161016051610180516101a0516101c0516101e051610200516102205161024051611d95620006385f395f81816103e60152818161063e0152610ad401525f81816104470152818161060f0152610a4b01525f81816101b40152818161055301526106ed01525f818161021401528181610582015261077601525f81816102b0015281816104cc01526105e001525f818161015c0152818161066d01526109c201525f818161040d015281816105b10152610b5d01525f81816103240152610cac01525f81816102890152610c7d01525f81816103980152610c4e01525f818161023b01526108c901525f81816103bf015261089a01525f81816102620152610c1f01525f81816102fd0152610bf001525f818161034b0152610bc10152611d955ff3fe608060405234801561000f575f80fd5b5060043610610153575f3560e01c806355caa163116100bf578063cd086d4511610079578063cd086d4514610393578063d99ec884146103ba578063e36b91ab146103e1578063f1288cbb14610408578063f1c2652c1461042f578063fafeb57414610442575f80fd5b806355caa163146102e557806358725084146102f85780636714ddd51461031f5780637535d24614610346578063927c40031461036d578063b79421eb14610380575f80fd5b80632415540911610110578063241554091461020f5780633368555c1461023657806338013f021461025d5780633cbadf78146102845780633d5030a3146102ab5780634ee1151a146102d2575f80fd5b80630804799f1461015757806309d833281461019a5780630a4aa3fa146101af57806311577d8d146101d657806312146c70146101e957806316727412146101fc575b5f80fd5b61017e7f000000000000000000000000000000000000000000000000000000000000000081565b6040516001600160a01b03909116815260200160405180910390f35b6101ad6101a8366004610f5d565b610469565b005b61017e7f000000000000000000000000000000000000000000000000000000000000000081565b6101ad6101e4366004611230565b6104f7565b6101ad6101f7366004611382565b610713565b6101ad61020a366004611430565b61079c565b61017e7f000000000000000000000000000000000000000000000000000000000000000081565b61017e7f000000000000000000000000000000000000000000000000000000000000000081565b61017e7f000000000000000000000000000000000000000000000000000000000000000081565b61017e7f000000000000000000000000000000000000000000000000000000000000000081565b61017e7f000000000000000000000000000000000000000000000000000000000000000081565b6101ad6102e0366004611493565b610938565b6101ad6102f33660046114c5565b61095f565b61017e7f000000000000000000000000000000000000000000000000000000000000000081565b61017e7f000000000000000000000000000000000000000000000000000000000000000081565b61017e7f000000000000000000000000000000000000000000000000000000000000000081565b6101ad61037b366004611521565b6109e8565b6101ad61038e36600461157d565b610a71565b61017e7f000000000000000000000000000000000000000000000000000000000000000081565b61017e7f000000000000000000000000000000000000000000000000000000000000000081565b61017e7f000000000000000000000000000000000000000000000000000000000000000081565b61017e7f000000000000000000000000000000000000000000000000000000000000000081565b6101ad61043d366004610f5d565b610afa565b61017e7f000000000000000000000000000000000000000000000000000000000000000081565b6104f2630304504560e21b61047c610b83565b84846040516024016104909392919061166e565b60408051601f198184030181529190526020810180516001600160e01b03166001600160e01b0319909316929092179091526001600160a01b037f00000000000000000000000000000000000000000000000000000000000000001690610cdc565b505050565b6104f263b668509b60e01b8361050b610b83565b61069d6040805160e0810182525f80825260208201819052918101829052606081018290526080810182905260a0810182905260c08101919091526040518060e001604052807f00000000000000000000000000000000000000000000000000000000000000006001600160a01b031681526020017f00000000000000000000000000000000000000000000000000000000000000006001600160a01b031681526020017f00000000000000000000000000000000000000000000000000000000000000006001600160a01b031681526020017f00000000000000000000000000000000000000000000000000000000000000006001600160a01b031681526020017f00000000000000000000000000000000000000000000000000000000000000006001600160a01b031681526020017f00000000000000000000000000000000000000000000000000000000000000006001600160a01b031681526020017f00000000000000000000000000000000000000000000000000000000000000006001600160a01b0316815250905090565b856040516024016106b19493929190611901565b60408051601f198184030181529190526020810180516001600160e01b03166001600160e01b0319909316929092179091526001600160a01b037f00000000000000000000000000000000000000000000000000000000000000001690610cdc565b6104f263930b9fc960e01b610726610b83565b848460405160240161073a93929190611a05565b60408051601f198184030181529190526020810180516001600160e01b03166001600160e01b0319909316929092179091526001600160a01b037f00000000000000000000000000000000000000000000000000000000000000001690610cdc565b5f8190036107f15760405162461bcd60e51b815260206004820152601b60248201527f41545f4c454153545f4f4e455f41535345545f5245515549524544000000000060448201526064015b60405180910390fd5b5f816001600160401b0381111561080a5761080a610fb1565b60405190808252806020026020018201604052801561084357816020015b610830610e26565b8152602001906001900390816108285790505b5090505f5b8281101561092757604051806040016040528085858481811061086d5761086d611a87565b905060200281019061087f9190611a9b565b61088890611aba565b815260200160405180604001604052807f00000000000000000000000000000000000000000000000000000000000000006001600160a01b031681526020017f00000000000000000000000000000000000000000000000000000000000000006001600160a01b031681525081525082828151811061090957610909611a87565b6020026020010181905250808061091f90611acb565b915050610848565b5061093284826104f7565b50505050565b6104f2634b333daf60e11b61094b610b83565b848460405160240161073a93929190611aef565b6104f2633c2d400f60e01b610972610b83565b848460405160240161098693929190611bb7565b60408051601f198184030181529190526020810180516001600160e01b03166001600160e01b0319909316929092179091526001600160a01b037f00000000000000000000000000000000000000000000000000000000000000001690610cdc565b6104f263f328645d60e01b6109fb610b83565b8484604051602401610a0f93929190611c1a565b60408051601f198184030181529190526020810180516001600160e01b03166001600160e01b0319909316929092179091526001600160a01b037f00000000000000000000000000000000000000000000000000000000000000001690610cdc565b6104f26302e0cfc960e11b610a84610b83565b8484604051602401610a9893929190611c7e565b60408051601f198184030181529190526020810180516001600160e01b03166001600160e01b0319909316929092179091526001600160a01b037f00000000000000000000000000000000000000000000000000000000000000001690610cdc565b6104f26351518ee360e11b610b0d610b83565b8484604051602401610b2193929190611cf5565b60408051601f198184030181529190526020810180516001600160e01b03166001600160e01b0319909316929092179091526001600160a01b037f00000000000000000000000000000000000000000000000000000000000000001690610cdc565b6040805160c0810182525f80825260208201819052918101829052606081018290526080810182905260a08101919091526040518060c001604052807f00000000000000000000000000000000000000000000000000000000000000006001600160a01b031681526020017f00000000000000000000000000000000000000000000000000000000000000006001600160a01b031681526020017f00000000000000000000000000000000000000000000000000000000000000006001600160a01b031681526020017f00000000000000000000000000000000000000000000000000000000000000006001600160a01b031681526020017f00000000000000000000000000000000000000000000000000000000000000006001600160a01b031681526020017f00000000000000000000000000000000000000000000000000000000000000006001600160a01b0316815250905090565b6060610d018383604051806060016040528060278152602001611d6260279139610d08565b9392505050565b60605f80856001600160a01b031685604051610d249190611d3e565b5f60405180830381855af49150503d805f8114610d5c576040519150601f19603f3d011682016040523d82523d5f602084013e610d61565b606091505b5091509150610d7286838387610d7c565b9695505050505050565b60608315610dea5782515f03610de3576001600160a01b0385163b610de35760405162461bcd60e51b815260206004820152601d60248201527f416464726573733a2063616c6c20746f206e6f6e2d636f6e747261637400000060448201526064016107e8565b5081610df4565b610df48383610dfc565b949350505050565b815115610e0c5781518083602001fd5b8060405162461bcd60e51b81526004016107e89190611d4f565b6040518060400160405280610e39610e70565b8152602001610e6b60405180604001604052805f6001600160a01b031681526020015f6001600160a01b031681525090565b905290565b6040518061020001604052805f6001600160a01b03168152602001606081526020015f6001600160a01b03168152602001610ec860405180608001604052805f81526020015f81526020015f81526020015f81525090565b81526020015f81526020015f81526020015f81526020015f81526020015f81526020015f81526020015f81526020015f81526020015f81526020015f81526020015f81526020015f81525090565b5f8083601f840112610f26575f80fd5b5081356001600160401b03811115610f3c575f80fd5b60208301915083602060c083028501011115610f56575f80fd5b9250929050565b5f8060208385031215610f6e575f80fd5b82356001600160401b03811115610f83575f80fd5b610f8f85828601610f16565b90969095509350505050565b5f60408284031215610fab575f80fd5b50919050565b634e487b7160e01b5f52604160045260245ffd5b60405161020081016001600160401b0381118282101715610fe857610fe8610fb1565b60405290565b604080519081016001600160401b0381118282101715610fe857610fe8610fb1565b604051601f8201601f191681016001600160401b038111828210171561103857611038610fb1565b604052919050565b80356001600160a01b0381168114611056575f80fd5b919050565b5f82601f83011261106a575f80fd5b81356001600160401b0381111561108357611083610fb1565b611096601f8201601f1916602001611010565b8181528460208386010111156110aa575f80fd5b816020850160208301375f918101602001919091529392505050565b5f608082840312156110d6575f80fd5b604051608081018181106001600160401b03821117156110f8576110f8610fb1565b8060405250809150823581526020830135602082015260408301356040820152606083013560608201525092915050565b5f610260828403121561113a575f80fd5b611142610fc5565b905061114d82611040565b815260208201356001600160401b03811115611167575f80fd5b6111738482850161105b565b60208301525061118560408301611040565b604082015261119783606084016110c6565b606082015260e082013560808201526101008083013560a08301526101208084013560c08401526101408085013560e08501526101608086013584860152610180935083860135838601526101a0925082860135828601526101c091508186013581860152506101e080860135848601526102008601358386015261022086013582860152610240860135818601525050505092915050565b5f8060408385031215611241575f80fd5b82356001600160401b0380821115611257575f80fd5b61126386838701610f9b565b9350602091508185013581811115611279575f80fd5b8501601f81018713611289575f80fd5b80358281111561129b5761129b610fb1565b8060051b6112aa858201611010565b918252828101850191858101908a8411156112c3575f80fd5b86850192505b83831015611371578235868111156112df575f80fd5b8501808c036060601f19820112156112f6575f8081fd5b6112fe610fee565b898301358981111561130f575f8081fd5b61131d8f8c83870101611129565b8252506040603f1983011215611332575f8081fd5b61133a610fee565b915061134860408401611040565b825261135660608401611040565b828b0152808a019190915283525091860191908601906112c9565b809750505050505050509250929050565b5f8060208385031215611393575f80fd5b82356001600160401b03808211156113a9575f80fd5b818501915085601f8301126113bc575f80fd5b8135818111156113ca575f80fd5b8660208260071b85010111156113de575f80fd5b60209290920196919550909350505050565b5f8083601f840112611400575f80fd5b5081356001600160401b03811115611416575f80fd5b6020830191508360208260051b8501011115610f56575f80fd5b5f805f60408486031215611442575f80fd5b83356001600160401b0380821115611458575f80fd5b61146487838801610f9b565b94506020860135915080821115611479575f80fd5b50611486868287016113f0565b9497909650939450505050565b5f80602083850312156114a4575f80fd5b82356001600160401b038111156114b9575f80fd5b610f8f858286016113f0565b5f80602083850312156114d6575f80fd5b82356001600160401b03808211156114ec575f80fd5b818501915085601f8301126114ff575f80fd5b81358181111561150d575f80fd5b8660206060830285010111156113de575f80fd5b5f8060208385031215611532575f80fd5b82356001600160401b0380821115611548575f80fd5b818501915085601f83011261155b575f80fd5b813581811115611569575f80fd5b8660208260061b85010111156113de575f80fd5b5f806020838503121561158e575f80fd5b82356001600160401b03808211156115a4575f80fd5b818501915085601f8301126115b7575f80fd5b8135818111156115c5575f80fd5b86602060a0830285010111156113de575f80fd5b80516001600160a01b03908116835260208083015182169084015260408083015182169084015260608083015182169084015260808083015182169084015260a09182015116910152565b6001600160a01b0361163582611040565b1682526020810135602083015260408101356040830152606081013560608301526080810135608083015260a081013560a08301525050565b5f60e0820161167d83876115d9565b60c060e08185015281858352610100850190508692505f5b868110156116b7576116a78285611624565b9282019290820190600101611695565b50979650505050505050565b5f808335601e198436030181126116d8575f80fd5b83016020810192503590506001600160401b038111156116f6575f80fd5b803603821315610f56575f80fd5b81835281816020850137505f828201602090810191909152601f909101601f19169091010190565b5f5b8381101561174657818101518382015260200161172e565b50505f910152565b5f815180845261176581602086016020860161172c565b601f01601f19169290920160200192915050565b5f81518084526020808501808196508360051b810191508286015f5b858110156118f457828403895281518051606086526117c06060870182516001600160a01b03169052565b8681015161026060808801526117da6102c088018261174e565b905060408201516117f660a08901826001600160a01b03169052565b50606082810151805160c08a0152602081015160e08a015260408101516101008a0152908101516101208901525060808201516101408881019190915260a0830151610160808a019190915260c0840151610180808b019190915260e08501516101a0808c01919091526101008601516101c0808d01919091526101208701516101e0808e0191909152948701516102008d0152928601516102208c0152908501516102408b01528401516102608a01528301516102808901528201516102a088015291870151916118e08888018480516001600160a01b03908116835260209182015116910152565b9a87019a9550505090840190600101611795565b5091979650505050505050565b5f6101e080835261191287886116c3565b60408386015261192761022086018284611704565b9250505061193860208801886116c3565b8483036101df1901610200860152611951838284611704565b9250505061196260208401876115d9565b84516001600160a01b0390811660e085015260208601518116610100850152604086015181166101208501526060860151811661014085015260808601511661016084015260a08501516119c26101808501826001600160a01b03169052565b5060c08501516001600160a01b03166101a08401528281036101c08401526119ea8185611779565b979650505050505050565b803560ff81168114611056575f80fd5b5f60e08201611a1483876115d9565b60e060c08401528390528361010083015f5b85811015611a7c576001600160a01b03611a3f84611040565b168252602060ff611a518286016119f5565b1690830152604083810135908301526060808401359083015260809283019290910190600101611a26565b509695505050505050565b634e487b7160e01b5f52603260045260245ffd5b5f823561025e19833603018112611ab0575f80fd5b9190910192915050565b5f611ac53683611129565b92915050565b5f60018201611ae857634e487b7160e01b5f52601160045260245ffd5b5060010190565b5f60e08201611afe83876115d9565b60e060c0840152839052610100600584901b83018101908301855f805b87811015611ba95786850360ff190184528235368a9003609e19018112611b40578283fd5b890160a060ff611b4f836119f5565b1687526020828101358189015260408084013590890152606080840135908901526080611b7e818501856116c3565b945083828b0152611b92848b018683611704565b995050509586019594909401935050600101611b1b565b509298975050505050505050565b5f60e08201611bc683876115d9565b60e060c08401528390528361010083015f5b85811015611a7c576001600160a01b03611bf184611040565b168252602083810135908301526040808401359083015260609283019290910190600101611bd8565b5f60e08201611c2983876115d9565b60e060c08401528390528361010083015f5b85811015611a7c576001600160a01b0380611c5585611040565b168352602081611c66828701611040565b16908401525060409283019290910190600101611c3b565b5f60e08201611c8d83876115d9565b60e060c08401528390528361010083015f5b85811015611a7c576001600160a01b03611cb884611040565b1682526020838101359083015260408084013590830152606080840135908301526080808401359083015260a09283019290910190600101611c9f565b5f60e08201611d0483876115d9565b60c060e08185015281858352610100850190508692505f5b868110156116b757611d2e8285611624565b9282019290820190600101611d1c565b5f8251611ab081846020870161172c565b602081525f610d01602083018461174e56fe416464726573733a206c6f772d6c6576656c2064656c65676174652063616c6c206661696c6564a164736f6c6343000814000a","linkReferences":{}},"methodIdentifiers":{"ATOKEN_IMPL()":"d99ec884","BORROW_ENGINE()":"f1288cbb","CAPS_ENGINE()":"0804799f","COLLATERAL_ENGINE()":"3d5030a3","COLLECTOR()":"3cbadf78","DEFAULT_INTEREST_RATE_STRATEGY()":"6714ddd5","EMODE_ENGINE()":"24155409","LISTING_ENGINE()":"0a4aa3fa","ORACLE()":"38013f02","POOL()":"7535d246","POOL_CONFIGURATOR()":"58725084","PRICE_FEED_ENGINE()":"fafeb574","RATE_ENGINE()":"e36b91ab","REWARDS_CONTROLLER()":"cd086d45","VTOKEN_IMPL()":"3368555c","listAssets((string,string),(address,string,address,(uint256,uint256,uint256,uint256),uint256,uint256,uint256,uint256,uint256,uint256,uint256,uint256,uint256,uint256,uint256,uint256)[])":"16727412","listAssetsCustom((string,string),((address,string,address,(uint256,uint256,uint256,uint256),uint256,uint256,uint256,uint256,uint256,uint256,uint256,uint256,uint256,uint256,uint256,uint256),(address,address))[])":"11577d8d","updateAssetsEMode((address,uint8,uint256,uint256)[])":"12146c70","updateBorrowSide((address,uint256,uint256,uint256,uint256,uint256)[])":"f1c2652c","updateCaps((address,uint256,uint256)[])":"55caa163","updateCollateralSide((address,uint256,uint256,uint256,uint256,uint256)[])":"09d83328","updateEModeCategories((uint8,uint256,uint256,uint256,string)[])":"4ee1151a","updatePriceFeeds((address,address)[])":"927c4003","updateRateStrategies((address,(uint256,uint256,uint256,uint256))[])":"b79421eb"},"id":118}