{"abi":[{"type":"constructor","inputs":[{"name":"poolAdmin","type":"address","internalType":"address"},{"name":"config","type":"tuple","internalType":"struct MarketConfig","components":[{"name":"networkBaseTokenPriceInUsdProxyAggregator","type":"address","internalType":"address"},{"name":"marketReferenceCurrencyPriceInUsdProxyAggregator","type":"address","internalType":"address"},{"name":"marketId","type":"string","internalType":"string"},{"name":"oracleDecimals","type":"uint8","internalType":"uint8"},{"name":"paraswapAugustusRegistry","type":"address","internalType":"address"},{"name":"paraswapFeeClaimer","type":"address","internalType":"address"},{"name":"l2SequencerUptimeFeed","type":"address","internalType":"address"},{"name":"l2PriceOracleSentinelGracePeriod","type":"uint256","internalType":"uint256"},{"name":"providerId","type":"uint256","internalType":"uint256"},{"name":"salt","type":"bytes32","internalType":"bytes32"},{"name":"wrappedNativeToken","type":"address","internalType":"address"},{"name":"proxyAdmin","type":"address","internalType":"address"},{"name":"flashLoanPremiumTotal","type":"uint128","internalType":"uint128"},{"name":"flashLoanPremiumToProtocol","type":"uint128","internalType":"uint128"},{"name":"incentivesProxy","type":"address","internalType":"address"},{"name":"treasury","type":"address","internalType":"address"},{"name":"treasuryPartner","type":"address","internalType":"address"},{"name":"treasurySplitPercent","type":"uint16","internalType":"uint16"}]},{"name":"poolAddressesProvider","type":"address","internalType":"address"},{"name":"setupBatch","type":"address","internalType":"address"}],"stateMutability":"nonpayable"},{"type":"function","name":"getPeripheryReport","inputs":[],"outputs":[{"name":"","type":"tuple","internalType":"struct PeripheryReport","components":[{"name":"aaveOracle","type":"address","internalType":"address"},{"name":"proxyAdmin","type":"address","internalType":"address"},{"name":"treasury","type":"address","internalType":"address"},{"name":"treasuryImplementation","type":"address","internalType":"address"},{"name":"emissionManager","type":"address","internalType":"address"},{"name":"rewardsControllerImplementation","type":"address","internalType":"address"},{"name":"revenueSplitter","type":"address","internalType":"address"}]}],"stateMutability":"view"}],"bytecode":{"object":"0x608060405234801562000010575f80fd5b5060405162009cbe38038062009cbe8339810160408190526200003391620008f2565b6101608301516001600160a01b0316620000ed578261012001516040516200005b9062000748565b8190604051809103905ff590508015801562000079573d5f803e3d5ffd5b50600180546001600160a01b0319166001600160a01b0392831690811790915560405163f2fde38b60e01b815291861660048301529063f2fde38b906024015f604051808303815f87803b158015620000d0575f80fd5b505af1158015620000e3573d5f803e3d5ffd5b5050505062000113565b610160830151600180546001600160a01b0319166001600160a01b039092169190911790555b6060830151620001279060ff168362000380565b5f80546001600160a01b0319166001600160a01b039283161790556101e084015116620001a9576001546101208401515f91620001709187916001600160a01b031690620003db565b6020810151600280546001600160a01b03199081166001600160a01b0393841617909155915160038054909316911617905550620001cf565b6101e0830151600280546001600160a01b0319166001600160a01b039092169190911790555b6102008301516001600160a01b031615801590620001f557505f83610220015161ffff16115b80156200020c575061271083610220015161ffff16105b1562000299576002546102008401516102208501516040516001600160a01b03909316926200023b9062000756565b6001600160a01b03938416815292909116602083015261ffff166040820152606001604051809103905ff08015801562000277573d5f803e3d5ffd5b50600680546001600160a01b0319166001600160a01b03929092169190911790555b6101c08301516001600160a01b0316620002ed57620002b8816200066a565b600580546001600160a01b039283166001600160a01b0319918216179091556004805493909216921691909117905562000376565b826101c001516001600160a01b03166392074b086040518163ffffffff1660e01b8152600401602060405180830381865afa1580156200032f573d5f803e3d5ffd5b505050506040513d601f19601f8201168201806040525081019062000355919062000ade565b600480546001600160a01b0319166001600160a01b03929092169190911790555b5050505062000d06565b5f6060818382808380620003968a600a62000c0e565b604051620003a49062000764565b620003b59695949392919062000c63565b604051809103905ff080158015620003cf573d5f803e3d5ffd5b50925050505b92915050565b604080518082019091525f8082526020820152604080518082019091525f8082526020820152828581156200053a575f826040516200041a9062000772565b8190604051809103905ff590508015801562000438573d5f803e3d5ffd5b5060405163cd6dc68760e01b81525f6004820181905260248201529091506001600160a01b0382169063cd6dc687906044015f604051808303815f87803b15801562000482575f80fd5b505af115801562000495573d5f803e3d5ffd5b505050506001600160a01b038181168086526040805192851660248401525f60448085019190915281518085039091018152606490930181526020830180516001600160e01b031663cd6dc68760e01b1790525185928a91620004f89062000780565b620005069392919062000cb8565b8190604051809103905ff590508015801562000524573d5f803e3d5ffd5b506001600160a01b03166020850152506200065f565b5f604051620005499062000772565b604051809103905ff08015801562000563573d5f803e3d5ffd5b5060405163cd6dc68760e01b81525f6004820181905260248201529091506001600160a01b0382169063cd6dc687906044015f604051808303815f87803b158015620005ad575f80fd5b505af1158015620005c0573d5f803e3d5ffd5b505050506001600160a01b03818116808652604080519285166024840152620186a060448085019190915281518085039091018152606490930181526020830180516001600160e01b031663cd6dc68760e01b1790525190918991620006269062000780565b620006349392919062000cb8565b604051809103905ff0801580156200064e573d5f803e3d5ffd5b506001600160a01b03166020850152505b509095945050505050565b5f805f836040516200067c906200078e565b6001600160a01b039091168152602001604051809103905ff080158015620006a6573d5f803e3d5ffd5b5090505f81604051620006b9906200079c565b6001600160a01b039091168152602001604051809103905ff080158015620006e3573d5f803e3d5ffd5b5060405163189acdbd60e31b81525f60048201529091506001600160a01b0382169063c4d66de8906024015f604051808303815f87803b15801562000726575f80fd5b505af115801562000739573d5f803e3d5ffd5b50939792965091945050505050565b6106b28062000e5583390190565b6108d3806200150783390190565b610f1b8062001dda83390190565b611ac48062002cf583390190565b610d6580620047b983390190565b610f4c806200551e83390190565b613854806200646a83390190565b80516001600160a01b0381168114620007c1575f80fd5b919050565b634e487b7160e01b5f52604160045260245ffd5b60405161024081016001600160401b0381118282101715620008005762000800620007c6565b60405290565b5f5b838110156200082257818101518382015260200162000808565b50505f910152565b5f82601f8301126200083a575f80fd5b81516001600160401b0380821115620008575762000857620007c6565b604051601f8301601f19908116603f01168101908282118183101715620008825762000882620007c6565b816040528381528660208588010111156200089b575f80fd5b620008ae84602083016020890162000806565b9695505050505050565b805160ff81168114620007c1575f80fd5b80516001600160801b0381168114620007c1575f80fd5b805161ffff81168114620007c1575f80fd5b5f805f806080858703121562000906575f80fd5b6200091185620007aa565b60208601519094506001600160401b03808211156200092e575f80fd5b90860190610240828903121562000943575f80fd5b6200094d620007da565b6200095883620007aa565b81526200096860208401620007aa565b60208201526040830151828111156200097f575f80fd5b6200098d8a8286016200082a565b604083015250620009a160608401620008b8565b6060820152620009b460808401620007aa565b6080820152620009c760a08401620007aa565b60a0820152620009da60c08401620007aa565b60c082015260e0838101519082015261010080840151908201526101208084015190820152610140915062000a11828401620007aa565b82820152610160915062000a27828401620007aa565b82820152610180915062000a3d828401620008c9565b828201526101a0915062000a53828401620008c9565b828201526101c0915062000a69828401620007aa565b828201526101e0915062000a7f828401620007aa565b82820152610200915062000a95828401620007aa565b82820152610220915062000aab828401620008e0565b8282015280955050505062000ac360408601620007aa565b915062000ad360608601620007aa565b905092959194509250565b5f6020828403121562000aef575f80fd5b62000afa82620007aa565b9392505050565b634e487b7160e01b5f52601160045260245ffd5b600181815b8085111562000b5557815f190482111562000b395762000b3962000b01565b8085161562000b4757918102915b93841c939080029062000b1a565b509250929050565b5f8262000b6d57506001620003d5565b8162000b7b57505f620003d5565b816001811462000b94576002811462000b9f5762000bbf565b6001915050620003d5565b60ff84111562000bb35762000bb362000b01565b50506001821b620003d5565b5060208310610133831016604e8410600b841016171562000be4575081810a620003d5565b62000bf0838362000b15565b805f190482111562000c065762000c0662000b01565b029392505050565b5f62000afa61ffff84168362000b5d565b5f8151808452602080850194508084015f5b8381101562000c585781516001600160a01b03168752958201959082019060010162000c31565b509495945050505050565b5f60018060a01b03808916835260c0602084015262000c8660c084018962000c1f565b838103604085015262000c9a818962000c1f565b96821660608501525093909316608082015260a00152509392505050565b5f60018060a01b03808616835280851660208401525060606040830152825180606084015262000cf081608085016020870162000806565b601f01601f191691909101608001949350505050565b6101418062000d145f395ff3fe608060405234801561000f575f80fd5b5060043610610029575f3560e01c8063620b88461461002d575b5f80fd5b6100c46040805160e0810182525f80825260208201819052918101829052606081018290526080810182905260a0810182905260c0810191909152506040805160e0810182525f546001600160a01b039081168252600154811660208301526002548116928201929092526003548216606082015260045482166080820152600554821660a082015260065490911660c082015290565b60405161012b919081516001600160a01b03908116825260208084015182169083015260408084015182169083015260608084015182169083015260808084015182169083015260a08381015182169083015260c092830151169181019190915260e00190565b60405180910390f3fea164736f6c6343000814000a608060405234801561000f575f80fd5b506100193361001e565b61006d565b5f80546001600160a01b038381166001600160a01b0319831681178455604051919092169283917f8be0079c531659141344cd1fd0a4f28419497f9722a3daafe3b4186f6b6457e09190a35050565b6106388061007a5f395ff3fe608060405260043610610079575f3560e01c80639623609d1161004c5780639623609d1461010957806399a88ec41461011c578063f2fde38b1461013b578063f3b7dead1461015a575f80fd5b8063204e1c7a1461007d578063715018a6146100b85780637eff275e146100ce5780638da5cb5b146100ed575b5f80fd5b348015610088575f80fd5b5061009c610097366004610479565b610179565b6040516001600160a01b03909116815260200160405180910390f35b3480156100c3575f80fd5b506100cc610204565b005b3480156100d9575f80fd5b506100cc6100e836600461049b565b610217565b3480156100f8575f80fd5b505f546001600160a01b031661009c565b6100cc6101173660046104e6565b61027a565b348015610127575f80fd5b506100cc61013636600461049b565b6102e5565b348015610146575f80fd5b506100cc610155366004610479565b61031b565b348015610165575f80fd5b5061009c610174366004610479565b610399565b5f805f836001600160a01b031660405161019d90635c60da1b60e01b815260040190565b5f60405180830381855afa9150503d805f81146101d5576040519150601f19603f3d011682016040523d82523d5f602084013e6101da565b606091505b5091509150816101e8575f80fd5b808060200190518101906101fc91906105b5565b949350505050565b61020c6103bd565b6102155f610416565b565b61021f6103bd565b6040516308f2839760e41b81526001600160a01b038281166004830152831690638f283970906024015b5f604051808303815f87803b158015610260575f80fd5b505af1158015610272573d5f803e3d5ffd5b505050505050565b6102826103bd565b60405163278f794360e11b81526001600160a01b03841690634f1ef2869034906102b290869086906004016105d0565b5f604051808303818588803b1580156102c9575f80fd5b505af11580156102db573d5f803e3d5ffd5b5050505050505050565b6102ed6103bd565b604051631b2ce7f360e11b81526001600160a01b038281166004830152831690633659cfe690602401610249565b6103236103bd565b6001600160a01b03811661038d5760405162461bcd60e51b815260206004820152602660248201527f4f776e61626c653a206e6577206f776e657220697320746865207a65726f206160448201526564647265737360d01b60648201526084015b60405180910390fd5b61039681610416565b50565b5f805f836001600160a01b031660405161019d906303e1469160e61b815260040190565b5f546001600160a01b031633146102155760405162461bcd60e51b815260206004820181905260248201527f4f776e61626c653a2063616c6c6572206973206e6f7420746865206f776e65726044820152606401610384565b5f80546001600160a01b038381166001600160a01b0319831681178455604051919092169283917f8be0079c531659141344cd1fd0a4f28419497f9722a3daafe3b4186f6b6457e09190a35050565b6001600160a01b0381168114610396575f80fd5b5f60208284031215610489575f80fd5b813561049481610465565b9392505050565b5f80604083850312156104ac575f80fd5b82356104b781610465565b915060208301356104c781610465565b809150509250929050565b634e487b7160e01b5f52604160045260245ffd5b5f805f606084860312156104f8575f80fd5b833561050381610465565b9250602084013561051381610465565b9150604084013567ffffffffffffffff8082111561052f575f80fd5b818601915086601f830112610542575f80fd5b813581811115610554576105546104d2565b604051601f8201601f19908116603f0116810190838211818310171561057c5761057c6104d2565b81604052828152896020848701011115610594575f80fd5b826020860160208301375f6020848301015280955050505050509250925092565b5f602082840312156105c5575f80fd5b815161049481610465565b60018060a01b03831681525f602060408184015283518060408501525f5b8181101561060a578581018301518582016060015282016105ee565b505f606082860101526060601f19601f83011685010192505050939250505056fea164736f6c6343000814000a60e060405234801561000f575f80fd5b506040516108d33803806108d383398101604081905261002e916100a1565b60015f5561ffff8116158061004957506127108161ffff1610155b15610067576040516307a6a76b60e31b815260040160405180910390fd5b6001600160a01b03928316608052911660a05261ffff1660c0526100eb565b80516001600160a01b038116811461009c575f80fd5b919050565b5f805f606084860312156100b3575f80fd5b6100bc84610086565b92506100ca60208501610086565b9150604084015161ffff811681146100e0575f80fd5b809150509250925092565b60805160a05160c05161079661013d5f395f818160680152818161025f01526103b301525f8181610133015281816102f2015261046301525f818160d40152818161029801526103e901526107965ff3fe60806040526004361061004c575f3560e01c806330298df414610057578063607ecbea146100a2578063a93aa57e146100c3578063ee8d69a81461010e578063f10d2fd114610122575f80fd5b3661005357005b5f80fd5b348015610062575f80fd5b5061008a7f000000000000000000000000000000000000000000000000000000000000000081565b60405161ffff90911681526020015b60405180910390f35b3480156100ad575f80fd5b506100c16100bc366004610653565b610155565b005b3480156100ce575f80fd5b506100f67f000000000000000000000000000000000000000000000000000000000000000081565b6040516001600160a01b039091168152602001610099565b348015610119575f80fd5b506100c1610343565b34801561012d575f80fd5b506100f67f000000000000000000000000000000000000000000000000000000000000000081565b60025f54036101ab5760405162461bcd60e51b815260206004820152601f60248201527f5265656e7472616e637947756172643a207265656e7472616e742063616c6c0060448201526064015b60405180910390fd5b60025f9081555b81518160ff16101561033b575f828260ff16815181106101d4576101d4610713565b60209081029190910101516040516370a0823160e01b81523060048201526001600160a01b03909116906370a0823190602401602060405180830381865afa158015610222573d5f803e3d5ffd5b505050506040513d601f19601f820116820180604052508101906102469190610727565b9050805f03610255575061032b565b5f6102848261ffff7f0000000000000000000000000000000000000000000000000000000000000000166104cf565b90505f6102918284610752565b90506102ed7f000000000000000000000000000000000000000000000000000000000000000083878760ff16815181106102cd576102cd610713565b60200260200101516001600160a01b03166104f39092919063ffffffff16565b6103277f000000000000000000000000000000000000000000000000000000000000000082878760ff16815181106102cd576102cd610713565b5050505b6103348161076b565b90506101b2565b505060015f55565b60025f54036103945760405162461bcd60e51b815260206004820152601f60248201527f5265656e7472616e637947756172643a207265656e7472616e742063616c6c0060448201526064016101a2565b60025f90815547908190036103a957506104c9565b5f6103d88261ffff7f0000000000000000000000000000000000000000000000000000000000000000166104cf565b90505f6103e58284610752565b90507f00000000000000000000000000000000000000000000000000000000000000006001600160a01b0316826040515f6040518083038185875af1925050503d805f811461044f576040519150601f19603f3d011682016040523d82523d5f602084013e610454565b606091505b50506040516001600160a01b037f000000000000000000000000000000000000000000000000000000000000000016915082905f81818185875af1925050503d805f81146104bd576040519150601f19603f3d011682016040523d82523d5f602084013e6104c2565b606091505b5050505050505b60015f55565b5f811561138819839004841115176104e5575f80fd5b506127109102611388010490565b60405163a9059cbb60e01b8082526001600160a01b038416600483015260248201839052905f8060448382895af161052d573d5f803e3d5ffd5b5061053784610581565b61057b5760405162461bcd60e51b815260206004820152601560248201527423a83b191d103330b4b632b2103a3930b739b332b960591b60448201526064016101a2565b50505050565b5f6105a3565b62461bcd60e51b5f52602060045280602452508060445260645ffd5b3d80156105e25760208114610613576105dd7f475076323a206d616c666f726d6564207472616e7366657220726573756c7400601f610587565b61061e565b823b61060a5761060a7311d41d8c8e881b9bdd08184818dbdb9d1c9858dd60621b6014610587565b6001915061061e565b3d5f803e5f51151591505b50919050565b634e487b7160e01b5f52604160045260245ffd5b80356001600160a01b038116811461064e575f80fd5b919050565b5f6020808385031215610664575f80fd5b823567ffffffffffffffff8082111561067b575f80fd5b818501915085601f83011261068e575f80fd5b8135818111156106a0576106a0610624565b8060051b604051601f19603f830116810181811085821117156106c5576106c5610624565b6040529182528482019250838101850191888311156106e2575f80fd5b938501935b82851015610707576106f885610638565b845293850193928501926106e7565b98975050505050505050565b634e487b7160e01b5f52603260045260245ffd5b5f60208284031215610737575f80fd5b5051919050565b634e487b7160e01b5f52601160045260245ffd5b818103818111156107655761076561073e565b92915050565b5f60ff821660ff81036107805761078061073e565b6001019291505056fea164736f6c6343000814000a60e060405234801562000010575f80fd5b5060405162000f1b38038062000f1b833981016040819052620000339162000342565b6001600160a01b0386166080526200004b83620000aa565b620000578585620000f3565b6001600160a01b03821660a081905260c08290526040518281527fe27c4c1372396a3d15a9922f74f9dfc7c72b1ad6d63868470787249c356454c19060200160405180910390a250505050505062000476565b600180546001600160a01b0319166001600160a01b0383169081179091556040517fce7a780d33665b1ea097af5f155e3821b809ecbaa839d3b33aa83ba28168cefb905f90a250565b8051825114604051806040016040528060028152602001611b9b60f11b815250906200013d5760405162461bcd60e51b8152600401620001349190620003f0565b60405180910390fd5b505f5b825181101562000255578181815181106200015f576200015f6200043d565b60200260200101515f808584815181106200017e576200017e6200043d565b60200260200101516001600160a01b03166001600160a01b031681526020019081526020015f205f6101000a8154816001600160a01b0302191690836001600160a01b03160217905550818181518110620001dd57620001dd6200043d565b60200260200101516001600160a01b03168382815181106200020357620002036200043d565b60200260200101516001600160a01b03167f22c5b7b2d8561d39f7f210b6b326a1aa69f15311163082308ac4877db6339dc160405160405180910390a3806200024c8162000451565b91505062000140565b505050565b6001600160a01b03811681146200026f575f80fd5b50565b634e487b7160e01b5f52604160045260245ffd5b805162000293816200025a565b919050565b5f82601f830112620002a8575f80fd5b815160206001600160401b0380831115620002c757620002c762000272565b8260051b604051601f19603f83011681018181108482111715620002ef57620002ef62000272565b6040529384528581018301938381019250878511156200030d575f80fd5b83870191505b848210156200033757620003278262000286565b8352918301919083019062000313565b979650505050505050565b5f805f805f8060c0878903121562000358575f80fd5b865162000365816200025a565b60208801519096506001600160401b038082111562000382575f80fd5b620003908a838b0162000298565b96506040890151915080821115620003a6575f80fd5b50620003b589828a0162000298565b9450506060870151620003c8816200025a565b6080880151909350620003db816200025a565b8092505060a087015190509295509295509295565b5f6020808352835180828501525f5b818110156200041d57858101830151858201604001528201620003ff565b505f604082860101526040601f19601f8301168501019250505092915050565b634e487b7160e01b5f52603260045260245ffd5b5f600182016200046f57634e487b7160e01b5f52601160045260245ffd5b5060010190565b60805160a05160c051610a66620004b55f395f8181610103015261035701525f81816101a9015261032c01525f8181609901526104e60152610a665ff3fe608060405234801561000f575f80fd5b5060043610610090575f3560e01c806392bf2be01161006357806392bf2be0146101335780639d23d9f21461015e578063abfd53101461017e578063b3596f0714610191578063e19f4700146101a4575f80fd5b80630542975c14610094578063170aee73146100d85780636210308c146100ed5780638c89b64f146100fe575b5f80fd5b6100bb7f000000000000000000000000000000000000000000000000000000000000000081565b6040516001600160a01b0390911681526020015b60405180910390f35b6100eb6100e6366004610825565b6101cb565b005b6001546001600160a01b03166100bb565b6101257f000000000000000000000000000000000000000000000000000000000000000081565b6040519081526020016100cf565b6100bb610141366004610825565b6001600160a01b039081165f908152602081905260409020541690565b61017161016c366004610888565b6101df565b6040516100cf91906108c7565b6100eb61018c36600461090a565b610292565b61012561019f366004610825565b61030b565b6100bb7f000000000000000000000000000000000000000000000000000000000000000081565b6101d36104e3565b6101dc8161067d565b50565b60605f8267ffffffffffffffff8111156101fb576101fb610971565b604051908082528060200260200182016040528015610224578160200160208202803683370190505b5090505f5b8381101561028a5761025b85858381811061024657610246610985565b905060200201602081019061019f9190610825565b82828151811061026d5761026d610985565b60209081029190910101528061028281610999565b915050610229565b509392505050565b61029a6104e3565b6103058484808060200260200160405190810160405280939291908181526020018383602002808284375f92019190915250506040805160208088028281018201909352878252909350879250869182918501908490808284375f920191909152506106c692505050565b50505050565b6001600160a01b038082165f818152602081905260408120549092908116917f0000000000000000000000000000000000000000000000000000000000000000909116900361037c57507f000000000000000000000000000000000000000000000000000000000000000092915050565b6001600160a01b0381166103fd5760015460405163b3596f0760e01b81526001600160a01b0385811660048301529091169063b3596f0790602401602060405180830381865afa1580156103d2573d5f803e3d5ffd5b505050506040513d601f19601f820116820180604052508101906103f691906109bd565b9392505050565b5f816001600160a01b03166350d25bcd6040518163ffffffff1660e01b8152600401602060405180830381865afa15801561043a573d5f803e3d5ffd5b505050506040513d601f19601f8201168201806040525081019061045e91906109bd565b90505f81131561046f579392505050565b60015460405163b3596f0760e01b81526001600160a01b0386811660048301529091169063b3596f0790602401602060405180830381865afa1580156104b7573d5f803e3d5ffd5b505050506040513d601f19601f820116820180604052508101906104db91906109bd565b949350505050565b5f7f00000000000000000000000000000000000000000000000000000000000000006001600160a01b031663707cd7166040518163ffffffff1660e01b8152600401602060405180830381865afa158015610540573d5f803e3d5ffd5b505050506040513d601f19601f8201168201806040525081019061056491906109d4565b604051629f719760e51b81523360048201529091506001600160a01b038216906313ee32e090602401602060405180830381865afa1580156105a8573d5f803e3d5ffd5b505050506040513d601f19601f820116820180604052508101906105cc91906109ef565b806106385750604051637be53ca160e01b81523360048201526001600160a01b03821690637be53ca190602401602060405180830381865afa158015610614573d5f803e3d5ffd5b505050506040513d601f19601f8201168201806040525081019061063891906109ef565b604051806040016040528060018152602001603560f81b815250906106795760405162461bcd60e51b81526004016106709190610a0e565b60405180910390fd5b5050565b600180546001600160a01b0319166001600160a01b0383169081179091556040517fce7a780d33665b1ea097af5f155e3821b809ecbaa839d3b33aa83ba28168cefb905f90a250565b8051825114604051806040016040528060028152602001611b9b60f11b815250906107045760405162461bcd60e51b81526004016106709190610a0e565b505f5b825181101561080c5781818151811061072257610722610985565b60200260200101515f8085848151811061073e5761073e610985565b60200260200101516001600160a01b03166001600160a01b031681526020019081526020015f205f6101000a8154816001600160a01b0302191690836001600160a01b0316021790555081818151811061079a5761079a610985565b60200260200101516001600160a01b03168382815181106107bd576107bd610985565b60200260200101516001600160a01b03167f22c5b7b2d8561d39f7f210b6b326a1aa69f15311163082308ac4877db6339dc160405160405180910390a38061080481610999565b915050610707565b505050565b6001600160a01b03811681146101dc575f80fd5b5f60208284031215610835575f80fd5b81356103f681610811565b5f8083601f840112610850575f80fd5b50813567ffffffffffffffff811115610867575f80fd5b6020830191508360208260051b8501011115610881575f80fd5b9250929050565b5f8060208385031215610899575f80fd5b823567ffffffffffffffff8111156108af575f80fd5b6108bb85828601610840565b90969095509350505050565b602080825282518282018190525f9190848201906040850190845b818110156108fe578351835292840192918401916001016108e2565b50909695505050505050565b5f805f806040858703121561091d575f80fd5b843567ffffffffffffffff80821115610934575f80fd5b61094088838901610840565b90965094506020870135915080821115610958575f80fd5b5061096587828801610840565b95989497509550505050565b634e487b7160e01b5f52604160045260245ffd5b634e487b7160e01b5f52603260045260245ffd5b5f600182016109b657634e487b7160e01b5f52601160045260245ffd5b5060010190565b5f602082840312156109cd575f80fd5b5051919050565b5f602082840312156109e4575f80fd5b81516103f681610811565b5f602082840312156109ff575f80fd5b815180151581146103f6575f80fd5b5f6020808352835180828501525f5b81811015610a3957858101830151858201604001528201610a1d565b505f604082860101526040601f19601f830116850101925050509291505056fea164736f6c6343000814000a60806040525f8055348015610012575f80fd5b506001603455611a9f806100255f395ff3fe608060405234801561000f575f80fd5b50600436106100e5575f3560e01c8063a82ccd4d11610088578063cd6dc68711610063578063cd6dc68714610222578063dde43cba14610235578063e1f21c671461023d578063ed0d237114610250575f80fd5b8063a82ccd4d146101e7578063beabacc8146101fa578063cc1b4bf61461020f575f80fd5b806351ee886b116100c357806351ee886b146101385780636db9241b146101535780637a9b2c6c14610176578063894e9a0d14610189575f80fd5b806306bc2ee0146100e95780630932f92b146101135780633656eec214610125575b5f80fd5b6035546001600160a01b03165b6040516001600160a01b0390911681526020015b60405180910390f35b6036545b60405190815260200161010a565b610117610133366004611768565b610263565b6100f673eeeeeeeeeeeeeeeeeeeeeeeeeeeeeeeeeeeeeeee81565b610166610161366004611796565b61040e565b604051901515815260200161010a565b6101666101843660046117ad565b610692565b61019c610197366004611796565b6109b2565b604080516001600160a01b03998a1681529789166020890152870195909552959092166060850152608084015260a083015260c082019290925260e08101919091526101000161010a565b6101176101f5366004611796565b610a54565b61020d6102083660046117cd565b610b6c565b005b61011761021d36600461180b565b610c34565b61020d610230366004611859565b6110fb565b610117600581565b61020d61024b3660046117cd565b6111c6565b61020d61025e366004611883565b611204565b5f828152603760205260408120600701548390600160a01b900460ff166102a55760405162461bcd60e51b815260040161029c9061189e565b60405180910390fd5b5f8481526037602090815260408083208151610120810183528154815260018201548185015260028201548184015260038201546060808301919091526004830154608083015260058301546001600160a01b0390811660a08401526006840154811660c084015260079093015492831660e0830152600160a01b90920460ff1615156101008201528251918201835284825292810184905290810192909252905f61035087610a54565b905082602001518161036291906118e1565b8252604083015183511115610398576040830151835161038291906118fe565b60208301819052825161039591906118fe565b82525b8260a001516001600160a01b0316866001600160a01b0316036103c057505192506104079050565b8260c001516001600160a01b0316866001600160a01b03160361040057815160408401516103ee91906118fe565b60409092018290525092506104079050565b5f94505050505b5092915050565b5f6002603454036104615760405162461bcd60e51b815260206004820152601f60248201527f5265656e7472616e637947756172643a207265656e7472616e742063616c6c00604482015260640161029c565b60026034555f828152603760205260409020600701548290600160a01b900460ff1661049f5760405162461bcd60e51b815260040161029c9061189e565b60355483906001600160a01b03163314806104d257505f818152603760205260409020600501546001600160a01b031633145b6104ee5760405162461bcd60e51b815260040161029c90611911565b5f84815260376020908152604080832081516101208101835281548152600182015493810193909352600281015491830191909152600381015460608301526004810154608083015260058101546001600160a01b0390811660a08401526006820154811660c0840181905260079092015490811660e0840152600160a01b900460ff161515610100830152909190610588908790610263565b90505f610599878460a00151610263565b5f88815260376020526040812081815560018101829055600281018290556003810182905560048101919091556005810180546001600160a01b0319908116909155600682018054909116905560070180546001600160a81b031916905560e0840151909150811561061f5760a084015161061f906001600160a01b038316908461123a565b8360a001516001600160a01b03168460c001516001600160a01b0316897fca3e6079b726e7728802a0537949e2d1c7762304fa641fb06eb56daf2ba8c6b98686604051610676929190918252602082015260400190565b60405180910390a4600196505050505050506001603455919050565b5f6002603454036106e55760405162461bcd60e51b815260206004820152601f60248201527f5265656e7472616e637947756172643a207265656e7472616e742063616c6c00604482015260640161029c565b60026034555f838152603760205260409020600701548390600160a01b900460ff166107235760405162461bcd60e51b815260040161029c9061189e565b60355484906001600160a01b031633148061075657505f818152603760205260409020600501546001600160a01b031633145b6107725760405162461bcd60e51b815260040161029c90611911565b5f84116107b25760405162461bcd60e51b815260206004820152600e60248201526d616d6f756e74206973207a65726f60901b604482015260640161029c565b5f85815260376020908152604080832081516101208101835281548152600182015493810193909352600281015491830191909152600381015460608301526004810154608083015260058101546001600160a01b0390811660a084018190526006830154821660c085015260079092015490811660e0840152600160a01b900460ff16151561010083015290919061084c908890610263565b9050858110156108aa5760405162461bcd60e51b8152602060048201526024808201527f616d6f756e7420657863656564732074686520617661696c61626c652062616c604482015263616e636560e01b606482015260840161029c565b8582604001516108ba91906118fe565b5f88815260376020526040812060020182905503610931575f87815260376020526040812081815560018101829055600281018290556003810182905560048101919091556005810180546001600160a01b0319908116909155600682018054909116905560070180546001600160a81b03191690555b6109578260a00151878460e001516001600160a01b031661123a9092919063ffffffff16565b8160a001516001600160a01b0316877f36c3ab437e6a424ed25dc4bfdeb62706aa06558660fab2dab229d2555adaf89c8860405161099791815260200190565b60405180910390a36001945050505050600160345592915050565b5f805f805f805f808860375f8281526020019081526020015f2060070160149054906101000a900460ff166109f95760405162461bcd60e51b815260040161029c9061189e565b5050505f968752505060376020525050604090922060068101546005820154825460078401546003850154600486015460028701546001909701546001600160a01b039687169a958716995093975091909416949092909190565b5f818152603760205260408120600701548290600160a01b900460ff16610a8d5760405162461bcd60e51b815260040161029c9061189e565b5f83815260376020908152604091829020825161012081018452815481526001820154928101929092526002810154928201929092526003820154606082018190526004830154608083015260058301546001600160a01b0390811660a08401526006840154811660c084015260079093015492831660e0830152600160a01b90920460ff161515610100820152904211610b2b575f925050610b66565b8060800151421015610b4e576060810151610b4690426118fe565b925050610b66565b80606001518160800151610b6291906118fe565b9250505b50919050565b6035546001600160a01b03163314610b965760405162461bcd60e51b815260040161029c9061196e565b6001600160a01b038216610be35760405162461bcd60e51b81526020600482015260146024820152731253959053125117cc1617d49150d2541251539560621b604482015260640161029c565b73eeeeeeeeeeeeeeeeeeeeeeeeeeeeeeeeeeeeeeed196001600160a01b03841601610c2057610c1b6001600160a01b0383168261129d565b505050565b610c1b6001600160a01b038416838361123a565b6035545f906001600160a01b03163314610c605760405162461bcd60e51b815260040161029c9061196e565b6001600160a01b038616610cb65760405162461bcd60e51b815260206004820152601a60248201527f73747265616d20746f20746865207a65726f2061646472657373000000000000604482015260640161029c565b306001600160a01b03871603610d0e5760405162461bcd60e51b815260206004820152601d60248201527f73747265616d20746f2074686520636f6e747261637420697473656c66000000604482015260640161029c565b336001600160a01b03871603610d5d5760405162461bcd60e51b815260206004820152601460248201527339ba3932b0b6903a37903a34329031b0b63632b960611b604482015260640161029c565b5f8511610d9e5760405162461bcd60e51b815260206004820152600f60248201526e6465706f736974206973207a65726f60881b604482015260640161029c565b42831015610df85760405162461bcd60e51b815260206004820152602160248201527f73746172742074696d65206265666f726520626c6f636b2e74696d657374616d6044820152600760fc1b606482015260840161029c565b828211610e475760405162461bcd60e51b815260206004820152601f60248201527f73746f702074696d65206265666f7265207468652073746172742074696d6500604482015260640161029c565b604080518082019091525f8082526020820152610e6484846118fe565b808252861015610eb65760405162461bcd60e51b815260206004820152601f60248201527f6465706f73697420736d616c6c6572207468616e2074696d652064656c746100604482015260640161029c565b8051610ec290876119af565b15610f1a5760405162461bcd60e51b815260206004820152602260248201527f6465706f736974206e6f74206d756c7469706c65206f662074696d652064656c604482015261746160f01b606482015260840161029c565b8051610f2690876119c2565b8160200181815250505f603654905060405180610120016040528088815260200183602001518152602001888152602001868152602001858152602001896001600160a01b03168152602001306001600160a01b03168152602001876001600160a01b031681526020016001151581525060375f8381526020019081526020015f205f820151815f01556020820151816001015560408201518160020155606082015181600301556080820151816004015560a0820151816005015f6101000a8154816001600160a01b0302191690836001600160a01b0316021790555060c0820151816006015f6101000a8154816001600160a01b0302191690836001600160a01b0316021790555060e0820151816007015f6101000a8154816001600160a01b0302191690836001600160a01b031602179055506101008201518160070160146101000a81548160ff02191690831515021790555090505060365f815480929190611092906119d5565b9091555050604080518881526001600160a01b0388811660208301529181018790526060810186905290891690309083907f7b01d409597969366dc268d7f957a990d1ca3d3449baf8fb45db67351aecfe789060800160405180910390a4979650505050505050565b60015460059060ff168061110e5750303b155b8061111957505f5481115b61117c5760405162461bcd60e51b815260206004820152602e60248201527f436f6e747261637420696e7374616e63652068617320616c726561647920626560448201526d195b881a5b9a5d1a585b1a5e995960921b606482015260840161029c565b60015460ff1615801561119a576001805460ff1916811790555f8290555b82156111a65760368390555b6111af846113b2565b80156111c0576001805460ff191690555b50505050565b6035546001600160a01b031633146111f05760405162461bcd60e51b815260040161029c9061196e565b610c1b6001600160a01b03841683836113fb565b6035546001600160a01b0316331461122e5760405162461bcd60e51b815260040161029c9061196e565b611237816113b2565b50565b6040516001600160a01b038316602482015260448101829052610c1b90849063a9059cbb60e01b906064015b60408051601f198184030181529190526020810180516001600160e01b03166001600160e01b03199093169290921790915261150e565b804710156112ed5760405162461bcd60e51b815260206004820152601d60248201527f416464726573733a20696e73756666696369656e742062616c616e6365000000604482015260640161029c565b5f826001600160a01b0316826040515f6040518083038185875af1925050503d805f8114611336576040519150601f19603f3d011682016040523d82523d5f602084013e61133b565b606091505b5050905080610c1b5760405162461bcd60e51b815260206004820152603a60248201527f416464726573733a20756e61626c6520746f2073656e642076616c75652c207260448201527f6563697069656e74206d61792068617665207265766572746564000000000000606482015260840161029c565b603580546001600160a01b0319166001600160a01b0383169081179091556040517f1ab77a654795da4cfe37c33188e862203ade9a5c7f1a9d4957669b3ccbec9e11905f90a250565b8015806114735750604051636eb1769f60e11b81523060048201526001600160a01b03838116602483015284169063dd62ed3e90604401602060405180830381865afa15801561144d573d5f803e3d5ffd5b505050506040513d601f19601f8201168201806040525081019061147191906119ed565b155b6114de5760405162461bcd60e51b815260206004820152603660248201527f5361666545524332303a20617070726f76652066726f6d206e6f6e2d7a65726f60448201527520746f206e6f6e2d7a65726f20616c6c6f77616e636560501b606482015260840161029c565b6040516001600160a01b038316602482015260448101829052610c1b90849063095ea7b360e01b90606401611266565b5f611562826040518060400160405280602081526020017f5361666545524332303a206c6f772d6c6576656c2063616c6c206661696c6564815250856001600160a01b03166115df9092919063ffffffff16565b805190915015610c1b57808060200190518101906115809190611a04565b610c1b5760405162461bcd60e51b815260206004820152602a60248201527f5361666545524332303a204552433230206f7065726174696f6e20646964206e6044820152691bdd081cdd58d8d9595960b21b606482015260840161029c565b60606115ed84845f856115f7565b90505b9392505050565b6060824710156116585760405162461bcd60e51b815260206004820152602660248201527f416464726573733a20696e73756666696369656e742062616c616e636520666f6044820152651c8818d85b1b60d21b606482015260840161029c565b843b6116a65760405162461bcd60e51b815260206004820152601d60248201527f416464726573733a2063616c6c20746f206e6f6e2d636f6e7472616374000000604482015260640161029c565b5f80866001600160a01b031685876040516116c19190611a45565b5f6040518083038185875af1925050503d805f81146116fb576040519150601f19603f3d011682016040523d82523d5f602084013e611700565b606091505b509150915061171082828661171b565b979650505050505050565b6060831561172a5750816115f0565b82511561173a5782518084602001fd5b8160405162461bcd60e51b815260040161029c9190611a60565b6001600160a01b0381168114611237575f80fd5b5f8060408385031215611779575f80fd5b82359150602083013561178b81611754565b809150509250929050565b5f602082840312156117a6575f80fd5b5035919050565b5f80604083850312156117be575f80fd5b50508035926020909101359150565b5f805f606084860312156117df575f80fd5b83356117ea81611754565b925060208401356117fa81611754565b929592945050506040919091013590565b5f805f805f60a0868803121561181f575f80fd5b853561182a81611754565b945060208601359350604086013561184181611754565b94979396509394606081013594506080013592915050565b5f806040838503121561186a575f80fd5b823561187581611754565b946020939093013593505050565b5f60208284031215611893575f80fd5b81356115f081611754565b6020808252601590820152741cdd1c99585b48191bd95cc81b9bdd08195e1a5cdd605a1b604082015260600190565b634e487b7160e01b5f52601160045260245ffd5b80820281158282048414176118f8576118f86118cd565b92915050565b818103818111156118f8576118f86118cd565b6020808252603c908201527f63616c6c6572206973206e6f74207468652066756e64732061646d696e206f7260408201527f2074686520726563697069656e74206f66207468652073747265616d00000000606082015260800190565b60208082526013908201527227a7262cafa12cafa32aa72229afa0a226a4a760691b604082015260600190565b634e487b7160e01b5f52601260045260245ffd5b5f826119bd576119bd61199b565b500690565b5f826119d0576119d061199b565b500490565b5f600182016119e6576119e66118cd565b5060010190565b5f602082840312156119fd575f80fd5b5051919050565b5f60208284031215611a14575f80fd5b815180151581146115f0575f80fd5b5f5b83811015611a3d578181015183820152602001611a25565b50505f910152565b5f8251611a56818460208701611a23565b9190910192915050565b602081525f8251806020840152611a7e816040850160208701611a23565b601f01601f1916919091016040019291505056fea164736f6c6343000814000a608060405260405162000d6538038062000d65833981016040819052620000269162000415565b82816200003582825f6200004c565b50620000439050826200007d565b50505062000540565b6200005783620000ee565b5f82511180620000645750805b1562000078576200007683836200012f565b505b505050565b7f7e644d79422f17c01e4894b5f4f588d331ebfa28653d42ae832dc59e38c9798f620000be5f8051602062000d1e833981519152546001600160a01b031690565b604080516001600160a01b03928316815291841660208301520160405180910390a1620000eb816200015e565b50565b620000f981620001fb565b6040516001600160a01b038216907fbc7cd75a20ee27fd9adebab32041f755214dbc6bffa90cc0225b39da2e5c2d3b905f90a250565b606062000157838360405180606001604052806027815260200162000d3e6027913962000292565b9392505050565b6001600160a01b038116620001c95760405162461bcd60e51b815260206004820152602660248201527f455243313936373a206e65772061646d696e20697320746865207a65726f206160448201526564647265737360d01b60648201526084015b60405180910390fd5b805f8051602062000d1e8339815191525b80546001600160a01b0319166001600160a01b039290921691909117905550565b6001600160a01b0381163b6200026a5760405162461bcd60e51b815260206004820152602d60248201527f455243313936373a206e657720696d706c656d656e746174696f6e206973206e60448201526c1bdd08184818dbdb9d1c9858dd609a1b6064820152608401620001c0565b807f360894a13ba1a3210667c828492db98dca3e2076cc3735a920a3ca505d382bbc620001da565b60605f80856001600160a01b031685604051620002b09190620004ef565b5f60405180830381855af49150503d805f8114620002ea576040519150601f19603f3d011682016040523d82523d5f602084013e620002ef565b606091505b50909250905062000303868383876200030d565b9695505050505050565b60608315620003805782515f0362000378576001600160a01b0385163b620003785760405162461bcd60e51b815260206004820152601d60248201527f416464726573733a2063616c6c20746f206e6f6e2d636f6e74726163740000006044820152606401620001c0565b50816200038c565b6200038c838362000394565b949350505050565b815115620003a55781518083602001fd5b8060405162461bcd60e51b8152600401620001c091906200050c565b80516001600160a01b0381168114620003d8575f80fd5b919050565b634e487b7160e01b5f52604160045260245ffd5b5f5b838110156200040d578181015183820152602001620003f3565b50505f910152565b5f805f6060848603121562000428575f80fd5b6200043384620003c1565b92506200044360208501620003c1565b60408501519092506001600160401b038082111562000460575f80fd5b818601915086601f83011262000474575f80fd5b815181811115620004895762000489620003dd565b604051601f8201601f19908116603f01168101908382118183101715620004b457620004b4620003dd565b81604052828152896020848701011115620004cd575f80fd5b620004e0836020830160208801620003f1565b80955050505050509250925092565b5f825162000502818460208701620003f1565b9190910192915050565b602081525f82518060208401526200052c816040850160208701620003f1565b601f01601f19169190910160400192915050565b6107d0806200054e5f395ff3fe60806040526004361061004d575f3560e01c80633659cfe6146100645780634f1ef286146100835780635c60da1b146100965780638f283970146100c6578063f851a440146100e55761005c565b3661005c5761005a6100f9565b005b61005a6100f9565b34801561006f575f80fd5b5061005a61007e366004610698565b610113565b61005a6100913660046106b1565b61014e565b3480156100a1575f80fd5b506100aa6101b4565b6040516001600160a01b03909116815260200160405180910390f35b3480156100d1575f80fd5b5061005a6100e0366004610698565b6101e4565b3480156100f0575f80fd5b506100aa610204565b610101610224565b61011161010c6102b9565b6102c2565b565b61011b6102e0565b6001600160a01b03163303610146576101438160405180602001604052805f8152505f610312565b50565b6101436100f9565b6101566102e0565b6001600160a01b031633036101ac576101a78383838080601f0160208091040260200160405190810160405280939291908181526020018383808284375f9201919091525060019250610312915050565b505050565b6101a76100f9565b5f6101bd6102e0565b6001600160a01b031633036101d9576101d46102b9565b905090565b6101e16100f9565b90565b6101ec6102e0565b6001600160a01b03163303610146576101438161033c565b5f61020d6102e0565b6001600160a01b031633036101d9576101d46102e0565b61022c6102e0565b6001600160a01b031633036101115760405162461bcd60e51b815260206004820152604260248201527f5472616e73706172656e745570677261646561626c6550726f78793a2061646d60448201527f696e2063616e6e6f742066616c6c6261636b20746f2070726f78792074617267606482015261195d60f21b608482015260a4015b60405180910390fd5b5f6101d4610390565b365f80375f80365f845af43d5f803e8080156102dc573d5ff35b3d5ffd5b5f7fb53127684a568b3173ae13b9f8a6016e243e63b6e8ee1178d6a717850b5d61035b546001600160a01b0316919050565b61031b836103b7565b5f825111806103275750805b156101a75761033683836103f6565b50505050565b7f7e644d79422f17c01e4894b5f4f588d331ebfa28653d42ae832dc59e38c9798f6103656102e0565b604080516001600160a01b03928316815291841660208301520160405180910390a161014381610422565b5f7f360894a13ba1a3210667c828492db98dca3e2076cc3735a920a3ca505d382bbc610303565b6103c0816104cb565b6040516001600160a01b038216907fbc7cd75a20ee27fd9adebab32041f755214dbc6bffa90cc0225b39da2e5c2d3b905f90a250565b606061041b838360405180606001604052806027815260200161079d6027913961055f565b9392505050565b6001600160a01b0381166104875760405162461bcd60e51b815260206004820152602660248201527f455243313936373a206e65772061646d696e20697320746865207a65726f206160448201526564647265737360d01b60648201526084016102b0565b807fb53127684a568b3173ae13b9f8a6016e243e63b6e8ee1178d6a717850b5d61035b80546001600160a01b0319166001600160a01b039290921691909117905550565b6001600160a01b0381163b6105385760405162461bcd60e51b815260206004820152602d60248201527f455243313936373a206e657720696d706c656d656e746174696f6e206973206e60448201526c1bdd08184818dbdb9d1c9858dd609a1b60648201526084016102b0565b807f360894a13ba1a3210667c828492db98dca3e2076cc3735a920a3ca505d382bbc6104aa565b60605f80856001600160a01b03168560405161057b919061074f565b5f60405180830381855af49150503d805f81146105b3576040519150601f19603f3d011682016040523d82523d5f602084013e6105b8565b606091505b50915091506105c9868383876105d3565b9695505050505050565b606083156106415782515f0361063a576001600160a01b0385163b61063a5760405162461bcd60e51b815260206004820152601d60248201527f416464726573733a2063616c6c20746f206e6f6e2d636f6e747261637400000060448201526064016102b0565b508161064b565b61064b8383610653565b949350505050565b8151156106635781518083602001fd5b8060405162461bcd60e51b81526004016102b0919061076a565b80356001600160a01b0381168114610693575f80fd5b919050565b5f602082840312156106a8575f80fd5b61041b8261067d565b5f805f604084860312156106c3575f80fd5b6106cc8461067d565b9250602084013567ffffffffffffffff808211156106e8575f80fd5b818601915086601f8301126106fb575f80fd5b813581811115610709575f80fd5b87602082850101111561071a575f80fd5b6020830194508093505050509250925092565b5f5b8381101561074757818101518382015260200161072f565b50505f910152565b5f825161076081846020870161072d565b9190910192915050565b602081525f825180602084015261078881604085016020870161072d565b601f01601f1916919091016040019291505056fe416464726573733a206c6f772d6c6576656c2064656c65676174652063616c6c206661696c6564a164736f6c6343000814000ab53127684a568b3173ae13b9f8a6016e243e63b6e8ee1178d6a717850b5d6103416464726573733a206c6f772d6c6576656c2064656c65676174652063616c6c206661696c6564608060405234801561000f575f80fd5b50604051610f4c380380610f4c83398101604081905261002e91610173565b5f80546001600160a01b031916339081178255604051909182915f80516020610f2c833981519152908290a3506100648161006a565b506101a0565b5f546001600160a01b031633146100c85760405162461bcd60e51b815260206004820181905260248201527f4f776e61626c653a2063616c6c6572206973206e6f7420746865206f776e657260448201526064015b60405180910390fd5b6001600160a01b03811661012d5760405162461bcd60e51b815260206004820152602660248201527f4f776e61626c653a206e6577206f776e657220697320746865207a65726f206160448201526564647265737360d01b60648201526084016100bf565b5f80546040516001600160a01b03808516939216915f80516020610f2c83398151915291a35f80546001600160a01b0319166001600160a01b0392909216919091179055565b5f60208284031215610183575f80fd5b81516001600160a01b0381168114610199575f80fd5b9392505050565b610d7f806101ad5f395ff3fe608060405234801561000f575f80fd5b50600436106100cb575f3560e01c8063bee36bb311610088578063e15ac62311610063578063e15ac623146101a0578063f2fde38b146101b3578063f5cf673b146101c6578063f996868b146101d9575f80fd5b8063bee36bb314610169578063c5a7b5381461017c578063de2627381461018f575f80fd5b8063529b1e87146100cf5780635453ba1014610116578063715018a61461012b5780638da5cb5b14610133578063955c2ad714610143578063a286c6b414610156575b5f80fd5b6100fa6100dd366004610870565b6001600160a01b039081165f908152600160205260409020541690565b6040516001600160a01b03909116815260200160405180910390f35b610129610124366004610892565b6101ec565b005b610129610297565b5f546001600160a01b03166100fa565b610129610151366004610964565b610308565b610129610164366004610892565b6103ed565b610129610177366004610870565b610479565b61012961018a366004610a86565b6104c4565b6002546001600160a01b03166100fa565b6101296101ae366004610892565b610572565b6101296101c1366004610870565b6105e6565b6101296101d4366004610892565b6106cd565b6101296101e7366004610b12565b61075c565b6001600160a01b038281165f90815260016020526040902054839116331461022f5760405162461bcd60e51b815260040161022690610b8f565b60405180910390fd5b6002546040516305453ba160e41b81526001600160a01b038581166004830152848116602483015290911690635453ba10906044015b5f604051808303815f87803b15801561027c575f80fd5b505af115801561028e573d5f803e3d5ffd5b50505050505050565b5f546001600160a01b031633146102c05760405162461bcd60e51b815260040161022690610bbc565b5f80546040516001600160a01b03909116907f8be0079c531659141344cd1fd0a4f28419497f9722a3daafe3b4186f6b6457e0908390a35f80546001600160a01b0319169055565b5f5b815181101561038c57336001600160a01b031660015f84848151811061033257610332610bf1565b602090810291909101810151608001516001600160a01b039081168352908201929092526040015f2054161461037a5760405162461bcd60e51b815260040161022690610b8f565b8061038481610c05565b91505061030a565b5060025460405163955c2ad760e01b81526001600160a01b039091169063955c2ad7906103bd908490600401610c29565b5f604051808303815f87803b1580156103d4575f80fd5b505af11580156103e6573d5f803e3d5ffd5b5050505050565b5f546001600160a01b031633146104165760405162461bcd60e51b815260040161022690610bbc565b6001600160a01b038083165f8181526001602052604080822080548686166001600160a01b0319821681179092559151919094169392849290917fda40ea421dd7e42cf8be71255facac4fdc12a3f70f4d5fd373cb16cec4cb53849190a4505050565b5f546001600160a01b031633146104a25760405162461bcd60e51b815260040161022690610bbc565b600280546001600160a01b0319166001600160a01b0392909216919091179055565b6001600160a01b038281165f9081526001602052604090205483911633146104fe5760405162461bcd60e51b815260040161022690610b8f565b6002546040516318b4f6a760e31b81526001600160a01b038681166004830152858116602483015263ffffffff851660448301529091169063c5a7b538906064015f604051808303815f87803b158015610556575f80fd5b505af1158015610568573d5f803e3d5ffd5b5050505050505050565b6001600160a01b038281165f9081526001602052604090205483911633146105ac5760405162461bcd60e51b815260040161022690610b8f565b60025460405163e15ac62360e01b81526001600160a01b03858116600483015284811660248301529091169063e15ac62390604401610265565b5f546001600160a01b0316331461060f5760405162461bcd60e51b815260040161022690610bbc565b6001600160a01b0381166106745760405162461bcd60e51b815260206004820152602660248201527f4f776e61626c653a206e6577206f776e657220697320746865207a65726f206160448201526564647265737360d01b6064820152608401610226565b5f80546040516001600160a01b03808516939216917f8be0079c531659141344cd1fd0a4f28419497f9722a3daafe3b4186f6b6457e091a35f80546001600160a01b0319166001600160a01b0392909216919091179055565b5f546001600160a01b031633146106f65760405162461bcd60e51b815260040161022690610bbc565b60025460405163f5cf673b60e01b81526001600160a01b03848116600483015283811660248301529091169063f5cf673b906044015f604051808303815f87803b158015610742575f80fd5b505af1158015610754573d5f803e3d5ffd5b505050505050565b5f5b838110156107dc573360015f87878581811061077c5761077c610bf1565b90506020020160208101906107919190610870565b6001600160a01b03908116825260208201929092526040015f205416146107ca5760405162461bcd60e51b815260040161022690610b8f565b806107d481610c05565b91505061075e565b5060025460405163f996868b60e01b81526001600160a01b039091169063f996868b906108159088908890889088908890600401610cd0565b5f604051808303815f87803b15801561082c575f80fd5b505af115801561083e573d5f803e3d5ffd5b505050505050505050565b6001600160a01b038116811461085d575f80fd5b50565b803561086b81610849565b919050565b5f60208284031215610880575f80fd5b813561088b81610849565b9392505050565b5f80604083850312156108a3575f80fd5b82356108ae81610849565b915060208301356108be81610849565b809150509250929050565b634e487b7160e01b5f52604160045260245ffd5b60405160e0810167ffffffffffffffff81118282101715610900576109006108c9565b60405290565b604051601f8201601f1916810167ffffffffffffffff8111828210171561092f5761092f6108c9565b604052919050565b80356affffffffffffffffffffff8116811461086b575f80fd5b803563ffffffff8116811461086b575f80fd5b5f6020808385031215610975575f80fd5b823567ffffffffffffffff8082111561098c575f80fd5b818501915085601f83011261099f575f80fd5b8135818111156109b1576109b16108c9565b6109bf848260051b01610906565b818152848101925060e09182028401850191888311156109dd575f80fd5b938501935b82851015610a7a5780858a0312156109f9575f8081fd5b610a016108dd565b610a0a86610937565b815286860135878201526040610a21818801610951565b90820152606086810135610a3481610849565b908201526080610a45878201610860565b9082015260a0610a56878201610860565b9082015260c0610a67878201610860565b90820152845293840193928501926109e2565b50979650505050505050565b5f805f60608486031215610a98575f80fd5b8335610aa381610849565b92506020840135610ab381610849565b9150610ac160408501610951565b90509250925092565b5f8083601f840112610ada575f80fd5b50813567ffffffffffffffff811115610af1575f80fd5b6020830191508360208260051b8501011115610b0b575f80fd5b9250929050565b5f805f805f60608688031215610b26575f80fd5b8535610b3181610849565b9450602086013567ffffffffffffffff80821115610b4d575f80fd5b610b5989838a01610aca565b90965094506040880135915080821115610b71575f80fd5b50610b7e88828901610aca565b969995985093965092949392505050565b60208082526013908201527227a7262cafa2a6a4a9a9a4a7a72fa0a226a4a760691b604082015260600190565b6020808252818101527f4f776e61626c653a2063616c6c6572206973206e6f7420746865206f776e6572604082015260600190565b634e487b7160e01b5f52603260045260245ffd5b5f60018201610c2257634e487b7160e01b5f52601160045260245ffd5b5060010190565b602080825282518282018190525f919060409081850190868401855b82811015610cc357815180516affffffffffffffffffffff16855286810151878601528581015163ffffffff16868601526060808201516001600160a01b039081169187019190915260808083015182169087015260a08083015182169087015260c091820151169085015260e09093019290850190600101610c45565b5091979650505050505050565b6001600160a01b038681168252606060208084018290529083018690525f91879160808501845b89811015610d1e578435610d0a81610849565b841682529382019390820190600101610cf7565b508581036040870152868152810192508691505f5b86811015610d63576affffffffffffffffffffff610d5084610937565b1684529281019291810191600101610d33565b5091999850505050505050505056fea164736f6c6343000814000a8be0079c531659141344cd1fd0a4f28419497f9722a3daafe3b4186f6b6457e060a06040525f60055534801562000014575f80fd5b506040516200385438038062003854833981016040819052620000379162000049565b6001600160a01b031660805262000078565b5f602082840312156200005a575f80fd5b81516001600160a01b038116811462000071575f80fd5b9392505050565b608051613792620000c25f395f818161044f0152818161054c015281816109f901528181610c4c015281816110e5015281816111f40152818161124601526112e401526137925ff3fe608060405234801561000f575f80fd5b50600436106101d1575f3560e01c806392074b08116100fe578063bf90f63a1161009e578063dde43cba1161006e578063dde43cba1461056e578063e15ac62314610576578063f5cf673b14610589578063f996868b1461059c575f80fd5b8063bf90f63a1461050e578063c4d66de814610521578063c5a7b53814610534578063cbcbb50714610547575f80fd5b80639ff55db9116100d95780639ff55db9146104cd578063b022418c146104e0578063b45ac1a9146104f3578063bb492bf5146104fb575f80fd5b806392074b081461044d578063955c2ad7146104735780639efd6f7214610486575f80fd5b80635453ba101161017457806370674ab91161014457806370674ab91461035b57806374d945ec1461036e5780637eff4ba814610399578063886fe70b14610425575f80fd5b80635453ba10146102ea57806357b89883146102fd5780635f130b24146103105780636657732f1461033b575f80fd5b806331873e2e116101af57806331873e2e1461025157806333028b99146102665780634c0369c314610279578063533f542a1461029a575f80fd5b80631b839c77146101d5578063236300dc146101fb5780632a17bf601461020e575b5f80fd5b6101e86101e3366004612e76565b6105af565b6040519081526020015b60405180910390f35b6101e8610209366004612eed565b6105e8565b61023961021c366004612f5b565b6001600160a01b039081165f908152603b60205260409020541690565b6040516001600160a01b0390911681526020016101f2565b61026461025f366004612f7d565b610631565b005b6101e8610274366004612faf565b610642565b61028c61028736600461302e565b610736565b6040516101f29291906130c2565b6101e86102a8366004613117565b6001600160a01b038083165f90815260016020818152604080842086861685528252808420948816845293909101905220546001600160681b03169392505050565b6102646102f8366004612e76565b6109ee565b6101e861030b366004613154565b610a44565b61023961031e366004612f5b565b6001600160a01b039081165f908152603a60205260409020541690565b61034e610349366004612f5b565b610a5d565b6040516101f291906131ae565b6101e86103693660046131c0565b610b60565b61023961037c366004612f5b565b6001600160a01b039081165f908152603960205260409020541690565b6104056103a7366004612e76565b6001600160a01b039182165f9081526001602090815260408083209390941682529190915220546001600160681b038116916001600160581b03600160681b8304169163ffffffff600160c01b8204811692600160e01b9092041690565b6040805194855260208501939093529183015260608201526080016101f2565b610438610433366004612e76565b610b76565b604080519283526020830191909152016101f2565b7f0000000000000000000000000000000000000000000000000000000000000000610239565b6102646104813660046132b2565b610c41565b6104bb610494366004612f5b565b6001600160a01b03165f90815260016020526040902060020154600160801b900460ff1690565b60405160ff90911681526020016101f2565b61028c6104db3660046131c0565b610dda565b6101e86104ee366004612e76565b610ed1565b61034e610f66565b61028c61050936600461302e565b610fc6565b61028c61051c3660046133d9565b611008565b61026461052f366004612f5b565b611023565b610264610542366004613417565b6110da565b6102397f000000000000000000000000000000000000000000000000000000000000000081565b6101e8600181565b610264610584366004612e76565b6111e9565b610264610597366004612e76565b61123b565b6102646105aa36600461345b565b6112d9565b6001600160a01b038281165f90815260016020908152604080832093851683529290522054600160e01b900463ffffffff165b92915050565b5f6001600160a01b0383166106185760405162461bcd60e51b815260040161060f906134d7565b60405180910390fd5b610627868686333388886115ff565b9695505050505050565b61063d33848385611806565b505050565b6001600160a01b038084165f908152603960205260408120549091339186911682146106a75760405162461bcd60e51b815260206004820152601460248201527310d3105253515497d5539055551213d49256915160621b604482015260640161060f565b6001600160a01b0386166106f45760405162461bcd60e51b8152602060048201526014602482015273494e56414c49445f555345525f4144445245535360601b604482015260640161060f565b6001600160a01b03851661071a5760405162461bcd60e51b815260040161060f906134d7565b610729898989338a8a8a6115ff565b9998505050505050505050565b6060805f610745868686611951565b6003549091506001600160401b0381111561076257610762613218565b60405190808252806020026020018201604052801561078b578160200160208202803683370190505b50925082516001600160401b038111156107a7576107a7613218565b6040519080825280602002602001820160405280156107d0578160200160208202803683370190505b5091505f5b81518110156109e3575f5b84518110156109d057600381815481106107fc576107fc613503565b905f5260205f20015f9054906101000a90046001600160a01b031685828151811061082957610829613503565b60200260200101906001600160a01b031690816001600160a01b03168152505060015f84848151811061085e5761085e613503565b60200260200101515f01516001600160a01b03166001600160a01b031681526020019081526020015f205f015f86838151811061089d5761089d613503565b60200260200101516001600160a01b03166001600160a01b031681526020019081526020015f206001015f876001600160a01b03166001600160a01b031681526020019081526020015f205f01600d9054906101000a90046001600160801b03166001600160801b031684828151811061091957610919613503565b6020026020010181815161092d919061352b565b905250825183908390811061094457610944613503565b6020026020010151602001515f03156109be576109948686838151811061096d5761096d613503565b602002602001015185858151811061098757610987613503565b6020026020010151611b08565b8482815181106109a6576109a6613503565b602002602001018181516109ba919061352b565b9052505b806109c88161353e565b9150506107e0565b50806109db8161353e565b9150506107d5565b50505b935093915050565b336001600160a01b037f00000000000000000000000000000000000000000000000000000000000000001614610a365760405162461bcd60e51b815260040161060f90613556565b610a408282611ba6565b5050565b5f610a54858585333333886115ff565b95945050505050565b6001600160a01b0381165f908152600160205260408120600201546060916001600160801b0390911690816001600160401b03811115610a9f57610a9f613218565b604051908082528060200260200182016040528015610ac8578160200160208202803683370190505b5090505f5b826001600160801b0316816001600160801b03161015610b58576001600160a01b038086165f9081526001602081815260408084206001600160801b03871680865293019091529091205484519216918491908110610b2e57610b2e613503565b6001600160a01b039092166020928302919091019091015280610b5081613585565b915050610acd565b509392505050565b5f610a548383610b71888888611951565b611caa565b6001600160a01b038083165f8181526001602090815260408083209486168352938152838220845163b1bf962d60e01b81529451929485949193610c349385939263b1bf962d92600480830193928290030181865afa158015610bdb573d5f803e3d5ffd5b505050506040513d601f19601f82011682018060405250810190610bff91906135aa565b6001600160a01b0388165f90815260016020526040902060020154610c2f90600160801b900460ff16600a6136a1565b611e02565b92509250505b9250929050565b336001600160a01b037f00000000000000000000000000000000000000000000000000000000000000001614610c895760405162461bcd60e51b815260040161060f90613556565b5f5b8151811015610dcd57818181518110610ca657610ca6613503565b6020026020010151606001516001600160a01b031663b1bf962d6040518163ffffffff1660e01b8152600401602060405180830381865afa158015610ced573d5f803e3d5ffd5b505050506040513d601f19601f82011682018060405250810190610d1191906135aa565b828281518110610d2357610d23613503565b60200260200101516020018181525050610d77828281518110610d4857610d48613503565b602002602001015160800151838381518110610d6657610d66613503565b602002602001015160a00151611ec8565b610dbb828281518110610d8c57610d8c613503565b602002602001015160800151838381518110610daa57610daa613503565b602002602001015160c00151611ba6565b80610dc58161353e565b915050610c8b565b50610dd781611fc7565b50565b6001600160a01b038083165f90815260396020526040902054606091829133918691168214610e425760405162461bcd60e51b815260206004820152601460248201527310d3105253515497d5539055551213d49256915160621b604482015260640161060f565b6001600160a01b038616610e8f5760405162461bcd60e51b8152602060048201526014602482015273494e56414c49445f555345525f4144445245535360601b604482015260640161060f565b6001600160a01b038516610eb55760405162461bcd60e51b815260040161060f906134d7565b610ec2888833898961265a565b93509350505094509492505050565b5f805f5b600454811015610b585760015f60048381548110610ef557610ef5613503565b5f918252602080832091909101546001600160a01b03908116845283820194909452604092830182208885168352815282822093891682526001909301909252902054610f5290600160681b90046001600160801b03168361352b565b915080610f5e8161353e565b915050610ed5565b60606003805480602002602001604051908101604052809291908181526020018280548015610fbc57602002820191905f5260205f20905b81546001600160a01b03168152600190910190602001808311610f9e575b5050505050905090565b6060806001600160a01b038316610fef5760405162461bcd60e51b815260040161060f906134d7565b610ffc858533338761265a565b91509150935093915050565b606080611018848433333361265a565b915091509250929050565b60065460019060ff16806110365750303b155b80611042575060055481115b6110a55760405162461bcd60e51b815260206004820152602e60248201527f436f6e747261637420696e7374616e63652068617320616c726561647920626560448201526d195b881a5b9a5d1a585b1a5e995960921b606482015260840161060f565b60065460ff161580156110c5576006805460ff1916600117905560058290555b801561063d576006805460ff19169055505050565b336001600160a01b037f000000000000000000000000000000000000000000000000000000000000000016146111225760405162461bcd60e51b815260040161060f90613556565b6001600160a01b038381165f8181526001602090815260408083209487168084529482529182902080546001600160e01b038116600160e01b63ffffffff898116828102938417958690558751600160681b9096046001600160581b0316808752968601969096529083041694830185905260608301939093526001600160681b039081169216919091176080820152909291907fac1777479f07f3e7c34da8402139d54027a6a260caaae168bdee825ca5580dc59060a00160405180910390a350505050565b336001600160a01b037f000000000000000000000000000000000000000000000000000000000000000016146112315760405162461bcd60e51b815260040161060f90613556565b610a408282611ec8565b336001600160a01b037f000000000000000000000000000000000000000000000000000000000000000016146112835760405162461bcd60e51b815260040161060f90613556565b6001600160a01b038281165f8181526039602052604080822080546001600160a01b0319169486169485179055517f4925eafc82d0c4d67889898eeed64b18488ab19811e61620f387026dec126a289190a35050565b336001600160a01b037f000000000000000000000000000000000000000000000000000000000000000016146113215760405162461bcd60e51b815260040161060f90613556565b8281146113605760405162461bcd60e51b815260206004820152600d60248201526c1253959053125117d253941555609a1b604482015260640161060f565b5f5b838110156115f7576001600160a01b0386165f90815260016020526040812090818188888681811061139657611396613503565b90506020020160208101906113ab9190612f5b565b6001600160a01b0316815260208101919091526040015f206002830154909150600160801b900460ff1680158015906113f157508154600160c01b900463ffffffff1615155b61143d5760405162461bcd60e51b815260206004820152601b60248201527f444953545249425554494f4e5f444f45535f4e4f545f45584953540000000000604482015260640161060f565b5f6114b2838b6001600160a01b031663b1bf962d6040518163ffffffff1660e01b8152600401602060405180830381865afa15801561147e573d5f803e3d5ffd5b505050506040513d601f19601f820116820180604052508101906114a291906135aa565b6114ad85600a6136af565b612a3b565b508354909150600160681b90046001600160581b03168787878181106114da576114da613503565b90506020020160208101906114ef91906136ba565b84546001600160581b0391909116600160681b026affffffffffffffffffffff60681b1990911617845589898781811061152b5761152b613503565b90506020020160208101906115409190612f5b565b6001600160a01b03168b6001600160a01b03167fac1777479f07f3e7c34da8402139d54027a6a260caaae168bdee825ca5580dc5838b8b8b81811061158757611587613503565b905060200201602081019061159c91906136ba565b8854604080519384526001600160581b039092166020840152600160e01b900463ffffffff1690820181905260608201526080810186905260a00160405180910390a3505050505080806115ef9061353e565b915050611362565b505050505050565b5f855f0361160e57505f6117fb565b5f6116238561161e8b8b89611951565b612b25565b5f5b8881101561178d575f8a8a8381811061164057611640613503565b90506020020160208101906116559190612f5b565b6001600160a01b038181165f9081526001602081815260408084208b861685528252808420948d16845293909101905220549091506116a490600160681b90046001600160801b03168461352b565b92508883116116f4576001600160a01b038082165f9081526001602081815260408084208a861685528252808420948c168452939091019052208054600160681b600160e81b031916905561177a565b5f6116ff8a856136d3565b905061170b81856136d3565b935061171681612ba4565b6001600160a01b039283165f9081526001602081815260408084208b881685528252808420968d1684529590910190529290922080546001600160801b0393909316600160681b02600160681b600160e81b0319909316929092179091555061178d565b50806117858161353e565b915050611625565b50805f0361179e575f9150506117fb565b6117a9848483612c10565b604080516001600160a01b038881168252602082018490528087169286821692918916917fc052130bc4ef84580db505783484b067ea8b71b3bca78a7e12db7aea8658f004910160405180910390a490505b979650505050505050565b6001600160a01b0384165f9081526001602052604081206002015460ff600160801b820416600a0a916001600160801b039091169081900361184957505061194b565b5f5b81816001600160801b03161015611947576001600160a01b038088165f9081526001602081815260408084206001600160801b038716855292830182528084205490941680845291905291812090806118a5838989612a3b565b915091505f806118b8858d8d878d612ce9565b9150915082806118c55750805b15611935578b6001600160a01b0316866001600160a01b03168e6001600160a01b03167f3303facd24627943a92e9dc87cfbb34b15c49b726eec3ad3487c16be9ab8efe887888760405161192c939291909283526020830191909152604082015260600190565b60405180910390a45b50506001909401935061184b92505050565b5050505b50505050565b6060826001600160401b0381111561196b5761196b613218565b6040519080825280602002602001820160405280156119c657816020015b6119b360405180606001604052805f6001600160a01b031681526020015f81526020015f81525090565b8152602001906001900390816119895790505b5090505f5b83811015610b58578484828181106119e5576119e5613503565b90506020020160208101906119fa9190612f5b565b828281518110611a0c57611a0c613503565b60209081029190910101516001600160a01b039091169052848482818110611a3657611a36613503565b9050602002016020810190611a4b9190612f5b565b604051630afbcdc960e01b81526001600160a01b0385811660048301529190911690630afbcdc9906024016040805180830381865afa158015611a90573d5f803e3d5ffd5b505050506040513d601f19601f82011682018060405250810190611ab491906136e6565b838381518110611ac657611ac6613503565b6020026020010151602001848481518110611ae357611ae3613503565b6020908102919091010151604001919091525280611b008161353e565b9150506119cb565b80516001600160a01b039081165f90815260016020818152604080842087861685528252808420865190951684529190528120600201549091908290611b5990600160801b900460ff16600a6136a1565b90505f611b6b83866040015184611e02565b6020808801516001600160a01b038b165f908152600188019092526040909120549193506117fb92509083906001600160681b031685612ddb565b5f816001600160a01b03166350d25bcd6040518163ffffffff1660e01b8152600401602060405180830381865afa158015611be3573d5f803e3d5ffd5b505050506040513d601f19601f82011682018060405250810190611c0791906135aa565b13611c545760405162461bcd60e51b815260206004820152601860248201527f4f5241434c455f4d5553545f52455455524e5f50524943450000000000000000604482015260640161060f565b6001600160a01b038281165f818152603b602052604080822080546001600160a01b0319169486169485179055517f1a1cd5483e52e60b9ff7f3b9d1db3bbd9e9d21c6324ad3a8c79dba9b75e62f4d9190a35050565b5f805b8251811015610b5857828181518110611cc857611cc8613503565b6020026020010151602001515f03611d535760015f848381518110611cef57611cef613503565b602090810291909101810151516001600160a01b0390811683528282019390935260409182015f90812088851682528252828120938916815260019093019052902054611d4c90600160681b90046001600160801b03168361352b565b9150611df0565b60015f848381518110611d6857611d68613503565b602090810291909101810151516001600160a01b0390811683528282019390935260409182015f908120888516825282528281209389168152600190930190529020548351600160681b9091046001600160801b031690611dd9908790879087908690811061098757610987613503565b611de3919061352b565b611ded908361352b565b91505b80611dfa8161353e565b915050611cad565b82545f9081906001600160681b0381169063ffffffff600160e01b82048116916001600160581b03600160681b82041691600160c01b90910416811580611e47575087155b80611e5157504281145b80611e5c5750828110155b15611e7057838495509550505050506109e6565b5f834211611e7e5742611e80565b835b90505f611e8d83836136d3565b90505f89611e9b8387613708565b611ea59190613708565b8b9004905086611eb5818361352b565b9850985050505050505050935093915050565b6001600160a01b038116611f1e5760405162461bcd60e51b815260206004820152601860248201527f53545241544547595f43414e5f4e4f545f42455f5a45524f0000000000000000604482015260640161060f565b6001813b151514611f715760405162461bcd60e51b815260206004820152601960248201527f53545241544547595f4d5553545f42455f434f4e545241435400000000000000604482015260640161060f565b6001600160a01b038281165f818152603a602052604080822080546001600160a01b0319169486169485179055517f8ca1d928f1d72493a6b78c4f74aabde976bc37ffe2570f2a1ce5a8abd3dde0aa9190a35050565b5f5b8151811015610a405760015f838381518110611fe757611fe7613503565b6020026020010151606001516001600160a01b03166001600160a01b031681526020019081526020015f2060020160109054906101000a900460ff1660ff165f0361207f57600482828151811061204057612040613503565b6020908102919091018101516060015182546001810184555f938452919092200180546001600160a01b0319166001600160a01b039092169190911790555b5f82828151811061209257612092613503565b6020026020010151606001516001600160a01b031663313ce5676040518163ffffffff1660e01b8152600401602060405180830381865afa1580156120d9573d5f803e3d5ffd5b505050506040513d601f19601f820116820180604052508101906120fd919061371f565b60015f85858151811061211257612112613503565b6020026020010151606001516001600160a01b03166001600160a01b031681526020019081526020015f2060020160106101000a81548160ff021916908360ff160217905560ff1690505f60015f85858151811061217257612172613503565b6020026020010151606001516001600160a01b03166001600160a01b031681526020019081526020015f205f015f8585815181106121b2576121b2613503565b6020026020010151608001516001600160a01b03166001600160a01b031681526020019081526020015f209050805f0160189054906101000a900463ffffffff1663ffffffff165f036123745783838151811061221157612211613503565b60200260200101516080015160015f86868151811061223257612232613503565b6020026020010151606001516001600160a01b03166001600160a01b031681526020019081526020015f206001015f60015f88888151811061227657612276613503565b6020026020010151606001516001600160a01b03166001600160a01b031681526020019081526020015f206002015f9054906101000a90046001600160801b03166001600160801b03166001600160801b031681526020019081526020015f205f6101000a8154816001600160a01b0302191690836001600160a01b0316021790555060015f85858151811061230e5761230e613503565b602090810291909101810151606001516001600160a01b031682528101919091526040015f90812060020180546001600160801b03169161234e83613585565b91906101000a8154816001600160801b0302191690836001600160801b03160217905550505b60025f85858151811061238957612389613503565b602090810291909101810151608001516001600160a01b031682528101919091526040015f9081205460ff161515900361246857600160025f8686815181106123d4576123d4613503565b6020026020010151608001516001600160a01b03166001600160a01b031681526020019081526020015f205f6101000a81548160ff021916908315150217905550600384848151811061242957612429613503565b6020908102919091018101516080015182546001810184555f938452919092200180546001600160a01b0319166001600160a01b039092169190911790555b5f6124988286868151811061247f5761247f613503565b60200260200101516020015185600a6114ad91906136af565b5082548651919250600160681b81046001600160581b031691600160e01b90910463ffffffff16908790879081106124d2576124d2613503565b60209081029190910101515184546001600160581b03909116600160681b026affffffffffffffffffffff60681b19909116178455865187908790811061251b5761251b613503565b602090810291909101015160400151845463ffffffff909116600160e01b026001600160e01b03909116178455865187908790811061255c5761255c613503565b6020026020010151608001516001600160a01b031687878151811061258357612583613503565b6020026020010151606001516001600160a01b03167fac1777479f07f3e7c34da8402139d54027a6a260caaae168bdee825ca5580dc5848a8a815181106125cc576125cc613503565b60200260200101515f0151858c8c815181106125ea576125ea613503565b6020026020010151604001518960405161263a9594939291906001600160581b03958616815293909416602084015263ffffffff9182166040840152166060820152608081019190915260a00190565b60405180910390a3505050505080806126529061353e565b915050611fc9565b6003546060908190806001600160401b0381111561267a5761267a613218565b6040519080825280602002602001820160405280156126a3578160200160208202803683370190505b509250806001600160401b038111156126be576126be613218565b6040519080825280602002602001820160405280156126e7578160200160208202803683370190505b5091506126f98561161e8a8a89611951565b5f5b87811015612938575f89898381811061271657612716613503565b905060200201602081019061272b9190612f5b565b90505f5b83811015612923575f6001600160a01b031686828151811061275357612753613503565b60200260200101516001600160a01b0316036127ca576003818154811061277c5761277c613503565b905f5260205f20015f9054906101000a90046001600160a01b03168682815181106127a9576127a9613503565b60200260200101906001600160a01b031690816001600160a01b0316815250505b6001600160a01b0382165f908152600160205260408120875182908990859081106127f7576127f7613503565b6020908102919091018101516001600160a01b0390811683528282019390935260409182015f908120938d16815260019093019052902054600160681b90046001600160801b031690508015612910578086838151811061285a5761285a613503565b6020026020010181815161286e919061352b565b9052506001600160a01b0383165f908152600160205260408120885182908a908690811061289e5761289e613503565b60200260200101516001600160a01b03166001600160a01b031681526020019081526020015f206001015f8b6001600160a01b03166001600160a01b031681526020019081526020015f205f01600d6101000a8154816001600160801b0302191690836001600160801b031602179055505b508061291b8161353e565b91505061272f565b505080806129309061353e565b9150506126fb565b505f5b81811015612a2f576129808585838151811061295957612959613503565b602002602001015185848151811061297357612973613503565b6020026020010151612c10565b846001600160a01b031684828151811061299c5761299c613503565b60200260200101516001600160a01b0316876001600160a01b03167fc052130bc4ef84580db505783484b067ea8b71b3bca78a7e12db7aea8658f0048a8786815181106129eb576129eb613503565b6020026020010151604051612a159291906001600160a01b03929092168252602082015260400190565b60405180910390a480612a278161353e565b91505061293b565b50509550959350505050565b5f805f80612a4a878787611e02565b915091505f828214612aee576001600160681b03821115612a9e5760405162461bcd60e51b815260206004820152600e60248201526d494e4445585f4f564552464c4f5760901b604482015260640161060f565b5086546cffffffffffffffffffffffffff19166001600160681b0382161787556001612ac942612dfe565b885463ffffffff91909116600160c01b0263ffffffff60c01b19909116178855612b18565b612af742612dfe565b885463ffffffff91909116600160c01b0263ffffffff60c01b199091161788555b9097909650945050505050565b5f5b815181101561063d57612b92828281518110612b4557612b45613503565b60200260200101515f015184848481518110612b6357612b63613503565b602002602001015160200151858581518110612b8157612b81613503565b602002602001015160400151611806565b80612b9c8161353e565b915050612b27565b5f6001600160801b03821115612c0c5760405162461bcd60e51b815260206004820152602760248201527f53616665436173743a2076616c756520646f65736e27742066697420696e20316044820152663238206269747360c81b606482015260840161060f565b5090565b6001600160a01b038281165f818152603a6020526040808220549051630b5f5cc160e11b81528785166004820152602481019390935260448301859052909216919082906316beb982906064016020604051808303815f875af1158015612c79573d5f803e3d5ffd5b505050506040513d601f19601f82011682018060405250810190612c9d919061373f565b9050600181151514612ce25760405162461bcd60e51b815260206004820152600e60248201526d2a2920a729a322a92fa2a92927a960911b604482015260640161060f565b5050505050565b6001600160a01b0384165f90815260018601602052604081205481906001600160681b031681858214801590612dcc576001600160a01b0389165f90815260018b016020526040902080546cffffffffffffffffffffffffff19166001600160681b0389161790558715612dcc57612d6388888589612ddb565b9150612d6e82612ba4565b6001600160a01b038a165f90815260018c01602052604090208054600d90612da7908490600160681b90046001600160801b031661375e565b92506101000a8154816001600160801b0302191690836001600160801b031602179055505b90999098509650505050505050565b5f80612de784866136d3565b612df19087613708565b9290920495945050505050565b5f63ffffffff821115612c0c5760405162461bcd60e51b815260206004820152602660248201527f53616665436173743a2076616c756520646f65736e27742066697420696e203360448201526532206269747360d01b606482015260840161060f565b6001600160a01b0381168114610dd7575f80fd5b5f8060408385031215612e87575f80fd5b8235612e9281612e62565b91506020830135612ea281612e62565b809150509250929050565b5f8083601f840112612ebd575f80fd5b5081356001600160401b03811115612ed3575f80fd5b6020830191508360208260051b8501011115610c3a575f80fd5b5f805f805f60808688031215612f01575f80fd5b85356001600160401b03811115612f16575f80fd5b612f2288828901612ead565b909650945050602086013592506040860135612f3d81612e62565b91506060860135612f4d81612e62565b809150509295509295909350565b5f60208284031215612f6b575f80fd5b8135612f7681612e62565b9392505050565b5f805f60608486031215612f8f575f80fd5b8335612f9a81612e62565b95602085013595506040909401359392505050565b5f805f805f8060a08789031215612fc4575f80fd5b86356001600160401b03811115612fd9575f80fd5b612fe589828a01612ead565b90975095505060208701359350604087013561300081612e62565b9250606087013561301081612e62565b9150608087013561302081612e62565b809150509295509295509295565b5f805f60408486031215613040575f80fd5b83356001600160401b03811115613055575f80fd5b61306186828701612ead565b909450925050602084013561307581612e62565b809150509250925092565b5f8151808452602080850194508084015f5b838110156130b75781516001600160a01b031687529582019590820190600101613092565b509495945050505050565b604081525f6130d46040830185613080565b8281036020848101919091528451808352858201928201905f5b8181101561310a578451835293830193918301916001016130ee565b5090979650505050505050565b5f805f60608486031215613129575f80fd5b833561313481612e62565b9250602084013561314481612e62565b9150604084013561307581612e62565b5f805f8060608587031215613167575f80fd5b84356001600160401b0381111561317c575f80fd5b61318887828801612ead565b9095509350506020850135915060408501356131a381612e62565b939692955090935050565b602081525f612f766020830184613080565b5f805f80606085870312156131d3575f80fd5b84356001600160401b038111156131e8575f80fd5b6131f487828801612ead565b909550935050602085013561320881612e62565b915060408501356131a381612e62565b634e487b7160e01b5f52604160045260245ffd5b60405160e081016001600160401b038111828210171561324e5761324e613218565b60405290565b604051601f8201601f191681016001600160401b038111828210171561327c5761327c613218565b604052919050565b80356001600160581b038116811461329a575f80fd5b919050565b803563ffffffff8116811461329a575f80fd5b5f60208083850312156132c3575f80fd5b82356001600160401b03808211156132d9575f80fd5b818501915085601f8301126132ec575f80fd5b8135818111156132fe576132fe613218565b61330c848260051b01613254565b818152848101925060e091820284018501918883111561332a575f80fd5b938501935b828510156133cd5780858a031215613346575f8081fd5b61334e61322c565b61335786613284565b81528686013587820152604061336e81880161329f565b9082015260608681013561338181612e62565b9082015260808681013561339481612e62565b9082015260a0868101356133a781612e62565b9082015260c0868101356133ba81612e62565b908201528452938401939285019261332f565b50979650505050505050565b5f80602083850312156133ea575f80fd5b82356001600160401b038111156133ff575f80fd5b61340b85828601612ead565b90969095509350505050565b5f805f60608486031215613429575f80fd5b833561343481612e62565b9250602084013561344481612e62565b91506134526040850161329f565b90509250925092565b5f805f805f6060868803121561346f575f80fd5b853561347a81612e62565b945060208601356001600160401b0380821115613495575f80fd5b6134a189838a01612ead565b909650945060408801359150808211156134b9575f80fd5b506134c688828901612ead565b969995985093965092949392505050565b602080825260129082015271494e56414c49445f544f5f4144445245535360701b604082015260600190565b634e487b7160e01b5f52603260045260245ffd5b634e487b7160e01b5f52601160045260245ffd5b808201808211156105e2576105e2613517565b5f6001820161354f5761354f613517565b5060010190565b60208082526015908201527427a7262cafa2a6a4a9a9a4a7a72fa6a0a720a3a2a960591b604082015260600190565b5f6001600160801b038083168181036135a0576135a0613517565b6001019392505050565b5f602082840312156135ba575f80fd5b5051919050565b600181815b808511156135fb57815f19048211156135e1576135e1613517565b808516156135ee57918102915b93841c93908002906135c6565b509250929050565b5f82613611575060016105e2565b8161361d57505f6105e2565b8160018114613633576002811461363d57613659565b60019150506105e2565b60ff84111561364e5761364e613517565b50506001821b6105e2565b5060208310610133831016604e8410600b841016171561367c575081810a6105e2565b61368683836135c1565b805f190482111561369957613699613517565b029392505050565b5f612f7660ff841683613603565b5f612f768383613603565b5f602082840312156136ca575f80fd5b612f7682613284565b818103818111156105e2576105e2613517565b5f80604083850312156136f7575f80fd5b505080516020909101519092909150565b80820281158282048414176105e2576105e2613517565b5f6020828403121561372f575f80fd5b815160ff81168114612f76575f80fd5b5f6020828403121561374f575f80fd5b81518015158114612f76575f80fd5b6001600160801b0381811683821601908082111561377e5761377e613517565b509291505056fea164736f6c6343000814000a","linkReferences":{}},"methodIdentifiers":{"getPeripheryReport()":"620b8846"},"id":306}