{"abi":[{"type":"constructor","inputs":[{"name":"poolAdmin","type":"address","internalType":"address"},{"name":"config","type":"tuple","internalType":"struct MarketConfig","components":[{"name":"networkBaseTokenPriceInUsdProxyAggregator","type":"address","internalType":"address"},{"name":"marketReferenceCurrencyPriceInUsdProxyAggregator","type":"address","internalType":"address"},{"name":"marketId","type":"string","internalType":"string"},{"name":"oracleDecimals","type":"uint8","internalType":"uint8"},{"name":"paraswapAugustusRegistry","type":"address","internalType":"address"},{"name":"paraswapFeeClaimer","type":"address","internalType":"address"},{"name":"l2SequencerUptimeFeed","type":"address","internalType":"address"},{"name":"l2PriceOracleSentinelGracePeriod","type":"uint256","internalType":"uint256"},{"name":"providerId","type":"uint256","internalType":"uint256"},{"name":"salt","type":"bytes32","internalType":"bytes32"},{"name":"wrappedNativeToken","type":"address","internalType":"address"},{"name":"proxyAdmin","type":"address","internalType":"address"},{"name":"flashLoanPremiumTotal","type":"uint128","internalType":"uint128"},{"name":"flashLoanPremiumToProtocol","type":"uint128","internalType":"uint128"},{"name":"incentivesProxy","type":"address","internalType":"address"},{"name":"treasury","type":"address","internalType":"address"},{"name":"treasuryPartner","type":"address","internalType":"address"},{"name":"treasurySplitPercent","type":"uint16","internalType":"uint16"}]},{"name":"poolAddressesProvider","type":"address","internalType":"address"},{"name":"treasury","type":"address","internalType":"address"}],"stateMutability":"nonpayable"},{"type":"function","name":"getParaswapReport","inputs":[],"outputs":[{"name":"","type":"tuple","internalType":"struct ParaswapReport","components":[{"name":"paraSwapLiquiditySwapAdapter","type":"address","internalType":"address"},{"name":"paraSwapRepayAdapter","type":"address","internalType":"address"},{"name":"paraSwapWithdrawSwapAdapter","type":"address","internalType":"address"},{"name":"aaveParaSwapFeeClaimer","type":"address","internalType":"address"}]}],"stateMutability":"view"}],"bytecode":{"object":"0x608060405234801562000010575f80fd5b5060405162007f7b38038062007f7b83398101604081905262000033916200045a565b5f6200005184608001518560a00151858886620000b760201b60201c565b80515f80546001600160a01b03199081166001600160a01b03938416179091556020830151600180548316918416919091179055604083015160028054831691841691909117905560609092015160038054909316911617905550620006469350505050565b604080516080810182525f808252602082018190529181018290526060810182905290620000e98787878787620000f4565b979650505050505050565b604080516080810182525f808252602082018190529181018290526060810191909152604080516080810182525f8082526020820181905291810182905260608101919091526001600160a01b038716158015906200015b57506001600160a01b03861615155b15620002c7578487856040516200017290620002d1565b6001600160a01b03938416815291831660208301529091166040820152606001604051809103905ff080158015620001ac573d5f803e3d5ffd5b506001600160a01b03168152604051859088908690620001cc90620002df565b6001600160a01b03938416815291831660208301529091166040820152606001604051809103905ff08015801562000206573d5f803e3d5ffd5b506001600160a01b031660208201526040518590889086906200022990620002ed565b6001600160a01b03938416815291831660208301529091166040820152606001604051809103905ff08015801562000263573d5f803e3d5ffd5b506001600160a01b031660408083019190915251839087906200028690620002fb565b6001600160a01b03928316815291166020820152604001604051809103905ff080158015620002b7573d5f803e3d5ffd5b506001600160a01b031660608201525b9695505050505050565b61267a806200073883390190565b61291f8062002db283390190565b61210380620056d183390190565b6107a780620077d483390190565b80516001600160a01b038116811462000320575f80fd5b919050565b634e487b7160e01b5f52604160045260245ffd5b60405161024081016001600160401b03811182821017156200035f576200035f62000325565b60405290565b604051601f8201601f191681016001600160401b038111828210171562000390576200039062000325565b604052919050565b5f82601f830112620003a8575f80fd5b81516001600160401b03811115620003c457620003c462000325565b6020620003da601f8301601f1916820162000365565b8281528582848701011115620003ee575f80fd5b5f5b838110156200040d578581018301518282018401528201620003f0565b505f928101909101919091529392505050565b805160ff8116811462000320575f80fd5b80516001600160801b038116811462000320575f80fd5b805161ffff8116811462000320575f80fd5b5f805f80608085870312156200046e575f80fd5b620004798562000309565b60208601519094506001600160401b038082111562000496575f80fd5b908601906102408289031215620004ab575f80fd5b620004b562000339565b620004c08362000309565b8152620004d06020840162000309565b6020820152604083015182811115620004e7575f80fd5b620004f58a82860162000398565b604083015250620005096060840162000420565b60608201526200051c6080840162000309565b60808201526200052f60a0840162000309565b60a08201526200054260c0840162000309565b60c082015260e083810151908201526101008084015190820152610120808401519082015261014091506200057982840162000309565b8282015261016091506200058f82840162000309565b828201526101809150620005a582840162000431565b828201526101a09150620005bb82840162000431565b828201526101c09150620005d182840162000309565b828201526101e09150620005e782840162000309565b828201526102009150620005fd82840162000309565b8282015261022091506200061382840162000448565b828201528095505050506200062b6040860162000309565b91506200063b6060860162000309565b905092959194509250565b60e580620006535f395ff3fe6080604052348015600e575f80fd5b50600436106026575f3560e01c8063d0ee379114602a575b5f80fd5b608d604080516080810182525f80825260208201819052918101829052606081019190915250604080516080810182525f546001600160a01b03908116825260015481166020830152600254811692820192909252600354909116606082015290565b60405160cf919081516001600160a01b039081168252602080840151821690830152604080840151821690830152606092830151169181019190915260800190565b60405180910390f3fea164736f6c6343000814000a61010060405234801562000011575f80fd5b506040516200267a3803806200267a833981016040819052620000349162000318565b82828180806001600160a01b03166080816001600160a01b031681525050806001600160a01b031663026b1d5f6040518163ffffffff1660e01b8152600401602060405180830381865afa1580156200008f573d5f803e3d5ffd5b505050506040513d601f19601f82011682018060405250810190620000b5919062000369565b6001600160a01b031660a052505f80546001600160a01b031916339081178255604051909182915f805160206200265a833981519152908290a350806001600160a01b031663fca513a86040518163ffffffff1660e01b8152600401602060405180830381865afa1580156200012d573d5f803e3d5ffd5b505050506040513d601f19601f8201168201806040525081019062000153919062000369565b6001600160a01b0390811660c05260405163fb04e17b60e01b81525f6004820152908316915063fb04e17b90602401602060405180830381865afa1580156200019e573d5f803e3d5ffd5b505050506040513d601f19601f82011682018060405250810190620001c491906200038e565b15620001ce575f80fd5b6001600160a01b031660e0525060018055620001ea81620001f3565b505050620003af565b5f546001600160a01b03163314620002525760405162461bcd60e51b815260206004820181905260248201527f4f776e61626c653a2063616c6c6572206973206e6f7420746865206f776e657260448201526064015b60405180910390fd5b6001600160a01b038116620002b95760405162461bcd60e51b815260206004820152602660248201527f4f776e61626c653a206e6577206f776e657220697320746865207a65726f206160448201526564647265737360d01b606482015260840162000249565b5f80546040516001600160a01b03808516939216915f805160206200265a83398151915291a35f80546001600160a01b0319166001600160a01b0392909216919091179055565b6001600160a01b038116811462000315575f80fd5b50565b5f805f606084860312156200032b575f80fd5b8351620003388162000300565b60208501519093506200034b8162000300565b60408501519092506200035e8162000300565b809150509250925092565b5f602082840312156200037a575f80fd5b8151620003878162000300565b9392505050565b5f602082840312156200039f575f80fd5b8151801515811462000387575f80fd5b60805160a05160c05160e05161221d6200043d5f395f81816101680152610e0501525f8181610141015261177201525f818161019701528181610312015281816105de0152818161061201528181610669015281816109ab015281816109df01528181610a3801528181610abd01528181610ae701528181610bcf0152610d2401525f60c3015261221d5ff3fe608060405234801561000f575f80fd5b50600436106100a5575f3560e01c80633a8298671161006e5780633a82986714610163578063715018a61461018a5780637535d246146101925780638da5cb5b146101b9578063d3454a35146101c9578063f2fde38b146101dc575f80fd5b8062ae3bf8146100a95780630542975c146100be5780631b11d0ff1461010257806332e4b2861461012557806338013f021461013c575b5f80fd5b6100bc6100b7366004611a93565b6101ef565b005b6100e57f000000000000000000000000000000000000000000000000000000000000000081565b6040516001600160a01b0390911681526020015b60405180910390f35b610115610110366004611af3565b6102af565b60405190151581526020016100f9565b61012e610bb881565b6040519081526020016100f9565b6100e57f000000000000000000000000000000000000000000000000000000000000000081565b6100e57f000000000000000000000000000000000000000000000000000000000000000081565b6100bc6103c3565b6100e57f000000000000000000000000000000000000000000000000000000000000000081565b5f546001600160a01b03166100e5565b6100bc6101d7366004611b7a565b610434565b6100bc6101ea366004611a93565b6106d1565b5f546001600160a01b031633146102215760405162461bcd60e51b815260040161021890611c26565b60405180910390fd5b6102ac6102355f546001600160a01b031690565b6040516370a0823160e01b81523060048201526001600160a01b038416906370a0823190602401602060405180830381865afa158015610277573d5f803e3d5ffd5b505050506040513d601f19601f8201168201806040525081019061029b9190611c5b565b6001600160a01b03841691906107b8565b50565b5f6002600154036103025760405162461bcd60e51b815260206004820152601f60248201527f5265656e7472616e637947756172643a207265656e7472616e742063616c6c006044820152606401610218565b6002600155336001600160a01b037f000000000000000000000000000000000000000000000000000000000000000016146103755760405162461bcd60e51b815260206004820152601360248201527210d05313115497d35554d517d09157d413d3d3606a1b6044820152606401610218565b858585895f808080808061038b8c8e018e611d68565b9550955095509550955095506103a9848484848e8e8e8e8e8e610846565b505060018080559f9e505050505050505050505050505050565b5f546001600160a01b031633146103ec5760405162461bcd60e51b815260040161021890611c26565b5f80546040516001600160a01b03909116907f8be0079c531659141344cd1fd0a4f28419497f9722a3daafe3b4186f6b6457e0908390a35f80546001600160a01b0319169055565b6002600154036104865760405162461bcd60e51b815260206004820152601f60248201527f5265656e7472616e637947756172643a207265656e7472616e742063616c6c006044820152606401610218565b60026001555f6104958a610b31565b61010001519050851561055f576040516370a0823160e01b81523360048201525f906001600160a01b038316906370a0823190602401602060405180830381865afa1580156104e6573d5f803e3d5ffd5b505050506040513d601f19601f8201168201806040525081019061050a9190611c5b565b90508881111561055c5760405162461bcd60e51b815260206004820152601b60248201527f494e53554646494349454e545f414d4f554e545f544f5f5357415000000000006044820152606401610218565b97505b61057a8a82338b61057536889003880188611e3d565b610c3f565b5f6105cd8787878080601f0160208091040260200160405190810160405280939291908181526020018383808284375f81840152601f19601f82011690508083019250505050505050868e8e8e8e610de4565b90506106036001600160a01b038b167f00000000000000000000000000000000000000000000000000000000000000005f611406565b6106376001600160a01b038b167f000000000000000000000000000000000000000000000000000000000000000083611406565b60405163e8eda9df60e01b81526001600160a01b038b81166004830152602482018390523360448301525f60648301527f0000000000000000000000000000000000000000000000000000000000000000169063e8eda9df906084015f604051808303815f87803b1580156106aa575f80fd5b505af11580156106bc573d5f803e3d5ffd5b50506001805550505050505050505050505050565b5f546001600160a01b031633146106fa5760405162461bcd60e51b815260040161021890611c26565b6001600160a01b03811661075f5760405162461bcd60e51b815260206004820152602660248201527f4f776e61626c653a206e6577206f776e657220697320746865207a65726f206160448201526564647265737360d01b6064820152608401610218565b5f80546040516001600160a01b03808516939216917f8be0079c531659141344cd1fd0a4f28419497f9722a3daafe3b4186f6b6457e091a35f80546001600160a01b0319166001600160a01b0392909216919091179055565b60405163a9059cbb60e01b8082526001600160a01b038416600483015260248201839052905f8060448382895af16107f2573d5f803e3d5ffd5b506107fc84611540565b6108405760405162461bcd60e51b815260206004820152601560248201527423a83b191d103330b4b632b2103a3930b739b332b960591b6044820152606401610218565b50505050565b5f61085084610b31565b61010001516040516370a0823160e01b81526001600160a01b03878116600483015291925088915f91908416906370a0823190602401602060405180830381865afa1580156108a1573d5f803e3d5ffd5b505050506040513d601f19601f820116820180604052508101906108c59190611c5b565b90508c15610931575f6108d8828a6115e3565b90508281111561092a5760405162461bcd60e51b815260206004820152601b60248201527f494e53554646494349454e545f414d4f554e545f544f5f5357415000000000006044820152606401610218565b915061098a565b61093b82896115f2565b81101561098a5760405162461bcd60e51b815260206004820152601b60248201527f494e53554646494349454e545f41544f4b454e5f42414c414e434500000000006044820152606401610218565b5f61099a8e8e8e8a8a888b610de4565b90506109d06001600160a01b0387167f00000000000000000000000000000000000000000000000000000000000000005f611406565b610a046001600160a01b0387167f000000000000000000000000000000000000000000000000000000000000000083611406565b60405163e8eda9df60e01b81526001600160a01b0387811660048301526024820183905289811660448301525f60648301527f0000000000000000000000000000000000000000000000000000000000000000169063e8eda9df906084015f604051808303815f87803b158015610a79575f80fd5b505af1158015610a8b573d5f803e3d5ffd5b50505050610aae87858a610aa88d886115f290919063ffffffff16565b8f610c3f565b610ae26001600160a01b0388167f00000000000000000000000000000000000000000000000000000000000000005f611406565b610b217f0000000000000000000000000000000000000000000000000000000000000000610b108c8c6115f2565b6001600160a01b038a169190611406565b5050505050505050505050505050565b60408051610200810182525f6101e08201818152825260208201819052918101829052606081018290526080810182905260a0810182905260c0810182905260e08101829052610100810182905261012081018290526101408101829052610160810182905261018081018290526101a081018290526101c08101919091526040516335ea6a7560e01b81526001600160a01b0383811660048301527f000000000000000000000000000000000000000000000000000000000000000016906335ea6a75906024016101e060405180830381865afa158015610c15573d5f803e3d5ffd5b505050506040513d601f19601f82011682018060405250810190610c399190611ee6565b92915050565b602081015115610ce1578051602082015160408084015160608501516080860151925163d505accf60e01b81526001600160a01b0389811660048301523060248301526044820196909652606481019490945260ff909116608484015260a483015260c48201529085169063d505accf9060e4015f604051808303815f87803b158015610cca575f80fd5b505af1158015610cdc573d5f803e3d5ffd5b505050505b610cf66001600160a01b038516843085611601565b604051631a4ca37b60e21b81526001600160a01b0386811660048301526024820184905230604483015283917f0000000000000000000000000000000000000000000000000000000000000000909116906369328dec906064016020604051808303815f875af1158015610d6c573d5f803e3d5ffd5b505050506040513d601f19601f82011682018060405250810190610d909190611c5b565b14610ddd5760405162461bcd60e51b815260206004820152601b60248201527f554e45585045435445445f414d4f554e545f57495448445241574e00000000006044820152606401610218565b5050505050565b60405163fb04e17b60e01b81526001600160a01b0386811660048301525f917f00000000000000000000000000000000000000000000000000000000000000009091169063fb04e17b90602401602060405180830381865afa158015610e4c573d5f803e3d5ffd5b505050506040513d601f19601f82011682018060405250810190610e709190612007565b610eaf5760405162461bcd60e51b815260206004820152601060248201526f494e56414c49445f415547555354555360801b6044820152606401610218565b5f610eb986611699565b60ff1690505f610ec886611699565b60ff1690505f610ed788611751565b90505f610ee388611751565b90505f610f3a610ef7610bb861271061203a565b610f34610f0f610f0889600a61212d565b86906117dd565b610f2e610f27610f208a600a61212d565b89906117dd565b8d906117dd565b90611805565b90611817565b905086811115610f8c5760405162461bcd60e51b815260206004820152601f60248201527f4d494e5f414d4f554e545f455843454544535f4d41585f534c495050414745006044820152606401610218565b50506040516370a0823160e01b81523060048201525f93506001600160a01b03891692506370a082319150602401602060405180830381865afa158015610fd5573d5f803e3d5ffd5b505050506040513d601f19601f82011682018060405250810190610ff99190611c5b565b90508381101561104b5760405162461bcd60e51b815260206004820181905260248201527f494e53554646494349454e545f42414c414e43455f4245464f52455f535741506044820152606401610218565b6040516370a0823160e01b81523060048201525f906001600160a01b038716906370a0823190602401602060405180830381865afa15801561108f573d5f803e3d5ffd5b505050506040513d601f19601f820116820180604052508101906110b39190611c5b565b90505f886001600160a01b031663d2c4b5986040518163ffffffff1660e01b8152600401602060405180830381865afa1580156110f2573d5f803e3d5ffd5b505050506040513d601f19601f820116820180604052508101906111169190612138565b905061112c6001600160a01b038916825f611406565b6111406001600160a01b0389168288611406565b8a156111b85760048b101580156111635750895161115f9060206115e3565b8b11155b6111af5760405162461bcd60e51b815260206004820152601f60248201527f46524f4d5f414d4f554e545f4f46465345545f4f55545f4f465f52414e4745006044820152606401610218565b8560208c018b01525b5f896001600160a01b03168b6040516111d19190612175565b5f604051808303815f865af19150503d805f811461120a576040519150601f19603f3d011682016040523d82523d5f602084013e61120f565b606091505b5050905080611220573d5f803e3d5ffd5b61122a878561203a565b6040516370a0823160e01b81523060048201526001600160a01b038b16906370a0823190602401602060405180830381865afa15801561126c573d5f803e3d5ffd5b505050506040513d601f19601f820116820180604052508101906112909190611c5b565b146112dd5760405162461bcd60e51b815260206004820152601860248201527f57524f4e475f42414c414e43455f41465445525f5357415000000000000000006044820152606401610218565b6040516370a0823160e01b815230600482015261134f9084906001600160a01b038b16906370a0823190602401602060405180830381865afa158015611325573d5f803e3d5ffd5b505050506040513d601f19601f820116820180604052508101906113499190611c5b565b906115e3565b9450858510156113a15760405162461bcd60e51b815260206004820152601c60248201527f494e53554646494349454e545f414d4f554e545f5245434549564544000000006044820152606401610218565b876001600160a01b0316896001600160a01b03167fa078c4190abe07940190effc1846be0ccf03ad6007bc9e93f9697d0b460befbb89886040516113ef929190918252602082015260400190565b60405180910390a350505050979650505050505050565b80158061147e5750604051636eb1769f60e11b81523060048201526001600160a01b03838116602483015284169063dd62ed3e90604401602060405180830381865afa158015611458573d5f803e3d5ffd5b505050506040513d601f19601f8201168201806040525081019061147c9190611c5b565b155b6114e95760405162461bcd60e51b815260206004820152603660248201527f5361666545524332303a20617070726f76652066726f6d206e6f6e2d7a65726f60448201527520746f206e6f6e2d7a65726f20616c6c6f77616e636560501b6064820152608401610218565b604080516001600160a01b038416602482015260448082018490528251808303909101815260649091019091526020810180516001600160e01b031663095ea7b360e01b17905261153b90849061183b565b505050565b5f611562565b62461bcd60e51b5f52602060045280602452508060445260645ffd5b3d80156115a157602081146115d25761159c7f475076323a206d616c666f726d6564207472616e7366657220726573756c7400601f611546565b6115dd565b823b6115c9576115c97311d41d8c8e881b9bdd08184818dbdb9d1c9858dd60621b6014611546565b600191506115dd565b3d5f803e5f51151591505b50919050565b80820382811115610c39575f80fd5b80820182811015610c39575f80fd5b6040516323b872dd60e01b8082526001600160a01b0385811660048401528416602483015260448201839052905f80606483828a5af1611643573d5f803e3d5ffd5b5061164d85611540565b610ddd5760405162461bcd60e51b815260206004820152601960248201527f475076323a206661696c6564207472616e7366657246726f6d000000000000006044820152606401610218565b5f80826001600160a01b031663313ce5676040518163ffffffff1660e01b8152600401602060405180830381865afa1580156116d7573d5f803e3d5ffd5b505050506040513d601f19601f820116820180604052508101906116fb9190612190565b9050604d8160ff161115610c395760405162461bcd60e51b815260206004820152601a60248201527f544f4f5f4d414e595f444543494d414c535f4f4e5f544f4b454e0000000000006044820152606401610218565b60405163b3596f0760e01b81526001600160a01b0382811660048301525f917f00000000000000000000000000000000000000000000000000000000000000009091169063b3596f0790602401602060405180830381865afa1580156117b9573d5f803e3d5ffd5b505050506040513d601f19601f82011682018060405250810190610c399190611c5b565b5f8215806117fd575050818102818382816117fa576117fa6121ab565b04145b610c39575f80fd5b5f61181082846121bf565b9392505050565b5f8115611388198390048411151761182d575f80fd5b506127109102611388010490565b5f61188f826040518060400160405280602081526020017f5361666545524332303a206c6f772d6c6576656c2063616c6c206661696c6564815250856001600160a01b031661190c9092919063ffffffff16565b80519091501561153b57808060200190518101906118ad9190612007565b61153b5760405162461bcd60e51b815260206004820152602a60248201527f5361666545524332303a204552433230206f7065726174696f6e20646964206e6044820152691bdd081cdd58d8d9595960b21b6064820152608401610218565b606061191a84845f85611922565b949350505050565b6060824710156119835760405162461bcd60e51b815260206004820152602660248201527f416464726573733a20696e73756666696369656e742062616c616e636520666f6044820152651c8818d85b1b60d21b6064820152608401610218565b843b6119d15760405162461bcd60e51b815260206004820152601d60248201527f416464726573733a2063616c6c20746f206e6f6e2d636f6e74726163740000006044820152606401610218565b5f80866001600160a01b031685876040516119ec9190612175565b5f6040518083038185875af1925050503d805f8114611a26576040519150601f19603f3d011682016040523d82523d5f602084013e611a2b565b606091505b5091509150611a3b828286611a46565b979650505050505050565b60608315611a55575081611810565b825115611a655782518084602001fd5b8160405162461bcd60e51b815260040161021891906121de565b6001600160a01b03811681146102ac575f80fd5b5f60208284031215611aa3575f80fd5b813561181081611a7f565b5f8083601f840112611abe575f80fd5b50813567ffffffffffffffff811115611ad5575f80fd5b602083019150836020828501011115611aec575f80fd5b9250929050565b5f805f805f8060a08789031215611b08575f80fd5b8635611b1381611a7f565b955060208701359450604087013593506060870135611b3181611a7f565b9250608087013567ffffffffffffffff811115611b4c575f80fd5b611b5889828a01611aae565b979a9699509497509295939492505050565b8035611b7581611a7f565b919050565b5f805f805f805f805f898b03610180811215611b94575f80fd5b8a35611b9f81611a7f565b995060208b0135611baf81611a7f565b985060408b0135975060608b0135965060808b0135955060a08b013567ffffffffffffffff811115611bdf575f80fd5b611beb8d828e01611aae565b90965094505060c08b0135611bff81611a7f565b925060a060df1982011215611c12575f80fd5b5060e08a0190509295985092959850929598565b6020808252818101527f4f776e61626c653a2063616c6c6572206973206e6f7420746865206f776e6572604082015260600190565b5f60208284031215611c6b575f80fd5b5051919050565b634e487b7160e01b5f52604160045260245ffd5b6040516101e0810167ffffffffffffffff81118282101715611caa57611caa611c72565b60405290565b604051601f8201601f1916810167ffffffffffffffff81118282101715611cd957611cd9611c72565b604052919050565b60ff811681146102ac575f80fd5b5f60a08284031215611cff575f80fd5b60405160a0810181811067ffffffffffffffff82111715611d2257611d22611c72565b806040525080915082358152602083013560208201526040830135611d4681611ce1565b8060408301525060608301356060820152608083013560808201525092915050565b5f805f805f806101408789031215611d7e575f80fd5b8635611d8981611a7f565b9550602087810135955060408801359450606088013567ffffffffffffffff80821115611db4575f80fd5b818a0191508a601f830112611dc7575f80fd5b813581811115611dd957611dd9611c72565b611deb601f8201601f19168501611cb0565b91508082528b84828501011115611e00575f80fd5b80848401858401375f84828401015250809550505050611e2260808801611b6a565b9150611e318860a08901611cef565b90509295509295509295565b5f60a08284031215611e4d575f80fd5b6118108383611cef565b5f60208284031215611e67575f80fd5b6040516020810181811067ffffffffffffffff82111715611e8a57611e8a611c72565b6040529151825250919050565b80516fffffffffffffffffffffffffffffffff81168114611b75575f80fd5b805164ffffffffff81168114611b75575f80fd5b805161ffff81168114611b75575f80fd5b8051611b7581611a7f565b5f6101e08284031215611ef7575f80fd5b611eff611c86565b611f098484611e57565b8152611f1760208401611e97565b6020820152611f2860408401611e97565b6040820152611f3960608401611e97565b6060820152611f4a60808401611e97565b6080820152611f5b60a08401611e97565b60a0820152611f6c60c08401611eb6565b60c0820152611f7d60e08401611eca565b60e0820152610100611f90818501611edb565b90820152610120611fa2848201611edb565b90820152610140611fb4848201611edb565b90820152610160611fc6848201611edb565b90820152610180611fd8848201611e97565b908201526101a0611fea848201611e97565b908201526101c0611ffc848201611e97565b908201529392505050565b5f60208284031215612017575f80fd5b81518015158114611810575f80fd5b634e487b7160e01b5f52601160045260245ffd5b81810381811115610c3957610c39612026565b600181815b8085111561208757815f190482111561206d5761206d612026565b8085161561207a57918102915b93841c9390800290612052565b509250929050565b5f8261209d57506001610c39565b816120a957505f610c39565b81600181146120bf57600281146120c9576120e5565b6001915050610c39565b60ff8411156120da576120da612026565b50506001821b610c39565b5060208310610133831016604e8410600b8410161715612108575081810a610c39565b612112838361204d565b805f190482111561212557612125612026565b029392505050565b5f611810838361208f565b5f60208284031215612148575f80fd5b815161181081611a7f565b5f5b8381101561216d578181015183820152602001612155565b50505f910152565b5f8251612186818460208701612153565b9190910192915050565b5f602082840312156121a0575f80fd5b815161181081611ce1565b634e487b7160e01b5f52601260045260245ffd5b5f826121d957634e487b7160e01b5f52601260045260245ffd5b500490565b602081525f82518060208401526121fc816040850160208701612153565b601f01601f1916919091016040019291505056fea164736f6c6343000814000a8be0079c531659141344cd1fd0a4f28419497f9722a3daafe3b4186f6b6457e061010060405234801562000011575f80fd5b506040516200291f3803806200291f83398101604081905262000034916200035d565b82828180806001600160a01b03166080816001600160a01b031681525050806001600160a01b031663026b1d5f6040518163ffffffff1660e01b8152600401602060405180830381865afa1580156200008f573d5f803e3d5ffd5b505050506040513d601f19601f82011682018060405250810190620000b59190620003ae565b6001600160a01b031660a052505f80546001600160a01b031916339081178255604051909182915f80516020620028ff833981519152908290a350806001600160a01b031663fca513a86040518163ffffffff1660e01b8152600401602060405180830381865afa1580156200012d573d5f803e3d5ffd5b505050506040513d601f19601f82011682018060405250810190620001539190620003ae565b6001600160a01b0390811660c05260405163fb04e17b60e01b81525f6004820152908316915063fb04e17b90602401602060405180830381865afa1580156200019e573d5f803e3d5ffd5b505050506040513d601f19601f82011682018060405250810190620001c49190620003d3565b15620002175760405162461bcd60e51b815260206004820152601c60248201527f4e6f7420612076616c696420417567757374757320616464726573730000000060448201526064015b60405180910390fd5b6001600160a01b031660e052506001805562000233816200023c565b505050620003f4565b5f546001600160a01b03163314620002975760405162461bcd60e51b815260206004820181905260248201527f4f776e61626c653a2063616c6c6572206973206e6f7420746865206f776e657260448201526064016200020e565b6001600160a01b038116620002fe5760405162461bcd60e51b815260206004820152602660248201527f4f776e61626c653a206e6577206f776e657220697320746865207a65726f206160448201526564647265737360d01b60648201526084016200020e565b5f80546040516001600160a01b03808516939216915f80516020620028ff83398151915291a35f80546001600160a01b0319166001600160a01b0392909216919091179055565b6001600160a01b03811681146200035a575f80fd5b50565b5f805f6060848603121562000370575f80fd5b83516200037d8162000345565b6020850151909350620003908162000345565b6040850151909250620003a38162000345565b809150509250925092565b5f60208284031215620003bf575f80fd5b8151620003cc8162000345565b9392505050565b5f60208284031215620003e4575f80fd5b81518015158114620003cc575f80fd5b60805160a05160c05160e051612468620004975f395f81816101680152610cb701525f8181610141015261188201525f81816101aa0152818161031201528181610493015281816104ea0152818161055101528181610585015281816105dd01528181610657015281816108ed01528181610947015281816109c101528181610a3601528181610a60015281816115a101526116f001525f60c301526124685ff3fe608060405234801561000f575f80fd5b50600436106100a5575f3560e01c80633a8298671161006e5780633a829867146101635780634db9dc971461018a578063715018a61461019d5780637535d246146101a55780638da5cb5b146101cc578063f2fde38b146101dc575f80fd5b8062ae3bf8146100a95780630542975c146100be5780631b11d0ff1461010257806332e4b2861461012557806338013f021461013c575b5f80fd5b6100bc6100b7366004611c4a565b6101ef565b005b6100e57f000000000000000000000000000000000000000000000000000000000000000081565b6040516001600160a01b0390911681526020015b60405180910390f35b610115610110366004611caa565b6102af565b60405190151581526020016100f9565b61012e610bb881565b6040519081526020016100f9565b6100e57f000000000000000000000000000000000000000000000000000000000000000081565b6100e57f000000000000000000000000000000000000000000000000000000000000000081565b6100bc610198366004611d21565b610399565b6100bc6106b6565b6100e57f000000000000000000000000000000000000000000000000000000000000000081565b5f546001600160a01b03166100e5565b6100bc6101ea366004611c4a565b610727565b5f546001600160a01b031633146102215760405162461bcd60e51b815260040161021890611dc4565b60405180910390fd5b6102ac6102355f546001600160a01b031690565b6040516370a0823160e01b81523060048201526001600160a01b038416906370a0823190602401602060405180830381865afa158015610277573d5f803e3d5ffd5b505050506040513d601f19601f8201168201806040525081019061029b9190611df9565b6001600160a01b038416919061080e565b50565b5f6002600154036103025760405162461bcd60e51b815260206004820152601f60248201527f5265656e7472616e637947756172643a207265656e7472616e742063616c6c006044820152606401610218565b6002600155336001600160a01b037f000000000000000000000000000000000000000000000000000000000000000016146103755760405162461bcd60e51b815260206004820152601360248201527210d05313115497d35554d517d09157d413d3d3606a1b6044820152606401610218565b85848861038686868a85858861089c565b5050600180805598975050505050505050565b6002600154036103eb5760405162461bcd60e51b815260206004820152601f60248201527f5265656e7472616e637947756172643a207265656e7472616e742063616c6c006044820152606401610218565b60026001556103fd8886868933610ab4565b955061041989338961041436869003860186611f06565b610c55565b5f8061046c8686868080601f0160208091040260200160405190810160405280939291908181526020018383808284375f81840152601f19601f820116905080830192505050505050508d8d8d8d610c7a565b90925090505f61047c838b611f34565b90508015610576576104b86001600160a01b038d167f0000000000000000000000000000000000000000000000000000000000000000836112d0565b60405163e8eda9df60e01b81526001600160a01b038d81166004830152602482018390523360448301525f60648301527f0000000000000000000000000000000000000000000000000000000000000000169063e8eda9df906084015f604051808303815f87803b15801561052b575f80fd5b505af115801561053d573d5f803e3d5ffd5b50610576925050506001600160a01b038d167f00000000000000000000000000000000000000000000000000000000000000005f6112d0565b6105aa6001600160a01b038c167f00000000000000000000000000000000000000000000000000000000000000008b6112d0565b60405163573ade8160e01b81526001600160a01b038c81166004830152602482018b9052604482018a90523360648301527f0000000000000000000000000000000000000000000000000000000000000000169063573ade81906084016020604051808303815f875af1158015610623573d5f803e3d5ffd5b505050506040513d601f19601f820116820180604052508101906106479190611df9565b5061067c6001600160a01b038c167f00000000000000000000000000000000000000000000000000000000000000005f6112d0565b5f6106878a84611f34565b905080156106a3576106a36001600160a01b038d16338361141b565b5050600180555050505050505050505050565b5f546001600160a01b031633146106df5760405162461bcd60e51b815260040161021890611dc4565b5f80546040516001600160a01b03909116907f8be0079c531659141344cd1fd0a4f28419497f9722a3daafe3b4186f6b6457e0908390a35f80546001600160a01b0319169055565b5f546001600160a01b031633146107505760405162461bcd60e51b815260040161021890611dc4565b6001600160a01b0381166107b55760405162461bcd60e51b815260206004820152602660248201527f4f776e61626c653a206e6577206f776e657220697320746865207a65726f206160448201526564647265737360d01b6064820152608401610218565b5f80546040516001600160a01b03808516939216917f8be0079c531659141344cd1fd0a4f28419497f9722a3daafe3b4186f6b6457e091a35f80546001600160a01b0319166001600160a01b0392909216919091179055565b60405163a9059cbb60e01b8082526001600160a01b038416600483015260248201839052905f8060448382895af1610848573d5f803e3d5ffd5b506108528461144b565b6108965760405162461bcd60e51b815260206004820152601560248201527423a83b191d103330b4b632b2103a3930b739b332b960591b6044820152606401610218565b50505050565b5f80808080806108ae8b8d018d611f6e565b9550955095509550955095506108c7868486888d610ab4565b94505f806108d986858c8b8d8c610c7a565b90925090506109126001600160a01b0389167f0000000000000000000000000000000000000000000000000000000000000000896112d0565b60405163573ade8160e01b81526001600160a01b03898116600483015260248201899052604482018790528c811660648301527f0000000000000000000000000000000000000000000000000000000000000000169063573ade81906084016020604051808303815f875af115801561098d573d5f803e3d5ffd5b505050506040513d601f19601f820116820180604052508101906109b19190611df9565b506109e66001600160a01b0389167f00000000000000000000000000000000000000000000000000000000000000005f6112d0565b5f6109f1838e6114ee565b90506109ff8b8d8387610c55565b5f610a0a8984611f34565b90508015610a2657610a266001600160a01b038b168e8361141b565b50610a5b6001600160a01b038c167f00000000000000000000000000000000000000000000000000000000000000005f6112d0565b610aa37f0000000000000000000000000000000000000000000000000000000000000000610a928f8d6114ee90919063ffffffff16565b6001600160a01b038e1691906112d0565b505050505050505050505050505050565b5f6002856002811115610ac957610ac9612027565b6002811115610ada57610ada612027565b14610b1b5760405162461bcd60e51b8152602060048201526011602482015270494e56414c49445f524154455f4d4f444560781b6044820152606401610218565b5f610b2587611503565b6101408101516040516370a0823160e01b81526001600160a01b0386811660048301529293505f92909116906370a0823190602401602060405180830381865afa158015610b75573d5f803e3d5ffd5b505050506040513d601f19601f82011682018060405250810190610b999190611df9565b90508515610bf95784811115610bf15760405162461bcd60e51b815260206004820152601c60248201527f494e53554646494349454e545f414d4f554e545f544f5f5245504159000000006044820152606401610218565b809450610c49565b80851115610c495760405162461bcd60e51b815260206004820152601960248201527f494e56414c49445f444542545f52455041595f414d4f554e54000000000000006044820152606401610218565b50929695505050505050565b5f610c5f85611503565b61010001519050610c73858286868661160b565b5050505050565b5f805f8088806020019051810190610c92919061205d565b60405163fb04e17b60e01b81526001600160a01b0380831660048301529294509092507f00000000000000000000000000000000000000000000000000000000000000009091169063fb04e17b90602401602060405180830381865afa158015610cfe573d5f803e3d5ffd5b505050506040513d601f19601f82011682018060405250810190610d2291906120e6565b610d615760405162461bcd60e51b815260206004820152601060248201526f494e56414c49445f415547555354555360801b6044820152606401610218565b5f610d6b896117a9565b60ff1690505f610d7a896117a9565b60ff1690505f610d898b611861565b90505f610d958b611861565b90505f610dec610da9612710610bb86114ee565b610de6610dc1610dba88600a6121e5565b87906118ed565b610de0610dd9610dd28b600a6121e5565b88906118ed565b8f906118ed565b90611915565b90611927565b9050808b1115610e4a5760405162461bcd60e51b815260206004820152602360248201527f6d6178416d6f756e74546f5377617020657863656564206d617820736c69707060448201526261676560e81b6064820152608401610218565b50506040516370a0823160e01b81523060048201525f93506001600160a01b038c1692506370a082319150602401602060405180830381865afa158015610e93573d5f803e3d5ffd5b505050506040513d601f19601f82011682018060405250810190610eb79190611df9565b905086811015610f095760405162461bcd60e51b815260206004820181905260248201527f494e53554646494349454e545f42414c414e43455f4245464f52455f535741506044820152606401610218565b6040516370a0823160e01b81523060048201525f906001600160a01b038a16906370a0823190602401602060405180830381865afa158015610f4d573d5f803e3d5ffd5b505050506040513d601f19601f82011682018060405250810190610f719190611df9565b90505f836001600160a01b031663d2c4b5986040518163ffffffff1660e01b8152600401602060405180830381865afa158015610fb0573d5f803e3d5ffd5b505050506040513d601f19601f82011682018060405250810190610fd49190612200565b9050610fea6001600160a01b038c16828b6112d0565b8c156110625760048d1015801561100d5750845161100990602061194b565b8d11155b6110595760405162461bcd60e51b815260206004820152601d60248201527f544f5f414d4f554e545f4f46465345545f4f55545f4f465f52414e47450000006044820152606401610218565b8760208e018601525b5f846001600160a01b03168660405161107b919061221b565b5f604051808303815f865af19150503d805f81146110b4576040519150601f19603f3d011682016040523d82523d5f602084013e6110b9565b606091505b50509050806110ca573d5f803e3d5ffd5b6110de6001600160a01b038d16835f6112d0565b6040516370a0823160e01b81523060048201525f906001600160a01b038e16906370a0823190602401602060405180830381865afa158015611122573d5f803e3d5ffd5b505050506040513d601f19601f820116820180604052508101906111469190611df9565b90506111528186611f34565b98508a8911156111a45760405162461bcd60e51b815260206004820152601860248201527f57524f4e475f42414c414e43455f41465445525f5357415000000000000000006044820152606401610218565b6040516370a0823160e01b81523060048201526112169085906001600160a01b038f16906370a0823190602401602060405180830381865afa1580156111ec573d5f803e3d5ffd5b505050506040513d601f19601f820116820180604052508101906112109190611df9565b9061194b565b9750898810156112685760405162461bcd60e51b815260206004820152601c60248201527f494e53554646494349454e545f414d4f554e545f5245434549564544000000006044820152606401610218565b8b6001600160a01b03168d6001600160a01b03167fbf77fd13a39d14dc0da779342c14105c38d9a5d0c60f2caa22f5fd1d5525416d8b8b6040516112b6929190918252602082015260400190565b60405180910390a350505050505050965096945050505050565b8015806113485750604051636eb1769f60e11b81523060048201526001600160a01b03838116602483015284169063dd62ed3e90604401602060405180830381865afa158015611322573d5f803e3d5ffd5b505050506040513d601f19601f820116820180604052508101906113469190611df9565b155b6113b35760405162461bcd60e51b815260206004820152603660248201527f5361666545524332303a20617070726f76652066726f6d206e6f6e2d7a65726f60448201527520746f206e6f6e2d7a65726f20616c6c6f77616e636560501b6064820152608401610218565b6040516001600160a01b03831660248201526044810182905261141690849063095ea7b360e01b906064015b60408051601f198184030181529190526020810180516001600160e01b03166001600160e01b03199093169290921790915261195a565b505050565b6040516001600160a01b03831660248201526044810182905261141690849063a9059cbb60e01b906064016113df565b5f61146d565b62461bcd60e51b5f52602060045280602452508060445260645ffd5b3d80156114ac57602081146114dd576114a77f475076323a206d616c666f726d6564207472616e7366657220726573756c7400601f611451565b6114e8565b823b6114d4576114d47311d41d8c8e881b9bdd08184818dbdb9d1c9858dd60621b6014611451565b600191506114e8565b3d5f803e5f51151591505b50919050565b808201828110156114fd575f80fd5b92915050565b60408051610200810182525f6101e08201818152825260208201819052918101829052606081018290526080810182905260a0810182905260c0810182905260e08101829052610100810182905261012081018290526101408101829052610160810182905261018081018290526101a081018290526101c08101919091526040516335ea6a7560e01b81526001600160a01b0383811660048301527f000000000000000000000000000000000000000000000000000000000000000016906335ea6a75906024016101e060405180830381865afa1580156115e7573d5f803e3d5ffd5b505050506040513d601f19601f820116820180604052508101906114fd91906122ba565b6020810151156116ad578051602082015160408084015160608501516080860151925163d505accf60e01b81526001600160a01b0389811660048301523060248301526044820196909652606481019490945260ff909116608484015260a483015260c48201529085169063d505accf9060e4015f604051808303815f87803b158015611696575f80fd5b505af11580156116a8573d5f803e3d5ffd5b505050505b6116c26001600160a01b038516843085611a2b565b604051631a4ca37b60e21b81526001600160a01b0386811660048301526024820184905230604483015283917f0000000000000000000000000000000000000000000000000000000000000000909116906369328dec906064016020604051808303815f875af1158015611738573d5f803e3d5ffd5b505050506040513d601f19601f8201168201806040525081019061175c9190611df9565b14610c735760405162461bcd60e51b815260206004820152601b60248201527f554e45585045435445445f414d4f554e545f57495448445241574e00000000006044820152606401610218565b5f80826001600160a01b031663313ce5676040518163ffffffff1660e01b8152600401602060405180830381865afa1580156117e7573d5f803e3d5ffd5b505050506040513d601f19601f8201168201806040525081019061180b91906123db565b9050604d8160ff1611156114fd5760405162461bcd60e51b815260206004820152601a60248201527f544f4f5f4d414e595f444543494d414c535f4f4e5f544f4b454e0000000000006044820152606401610218565b60405163b3596f0760e01b81526001600160a01b0382811660048301525f917f00000000000000000000000000000000000000000000000000000000000000009091169063b3596f0790602401602060405180830381865afa1580156118c9573d5f803e3d5ffd5b505050506040513d601f19601f820116820180604052508101906114fd9190611df9565b5f82158061190d5750508181028183828161190a5761190a6123f6565b04145b6114fd575f80fd5b5f611920828461240a565b9392505050565b5f8115611388198390048411151761193d575f80fd5b506127109102611388010490565b808203828111156114fd575f80fd5b5f6119ae826040518060400160405280602081526020017f5361666545524332303a206c6f772d6c6576656c2063616c6c206661696c6564815250856001600160a01b0316611ac39092919063ffffffff16565b80519091501561141657808060200190518101906119cc91906120e6565b6114165760405162461bcd60e51b815260206004820152602a60248201527f5361666545524332303a204552433230206f7065726174696f6e20646964206e6044820152691bdd081cdd58d8d9595960b21b6064820152608401610218565b6040516323b872dd60e01b8082526001600160a01b0385811660048401528416602483015260448201839052905f80606483828a5af1611a6d573d5f803e3d5ffd5b50611a778561144b565b610c735760405162461bcd60e51b815260206004820152601960248201527f475076323a206661696c6564207472616e7366657246726f6d000000000000006044820152606401610218565b6060611ad184845f85611ad9565b949350505050565b606082471015611b3a5760405162461bcd60e51b815260206004820152602660248201527f416464726573733a20696e73756666696369656e742062616c616e636520666f6044820152651c8818d85b1b60d21b6064820152608401610218565b843b611b885760405162461bcd60e51b815260206004820152601d60248201527f416464726573733a2063616c6c20746f206e6f6e2d636f6e74726163740000006044820152606401610218565b5f80866001600160a01b03168587604051611ba3919061221b565b5f6040518083038185875af1925050503d805f8114611bdd576040519150601f19603f3d011682016040523d82523d5f602084013e611be2565b606091505b5091509150611bf2828286611bfd565b979650505050505050565b60608315611c0c575081611920565b825115611c1c5782518084602001fd5b8160405162461bcd60e51b81526004016102189190612429565b6001600160a01b03811681146102ac575f80fd5b5f60208284031215611c5a575f80fd5b813561192081611c36565b5f8083601f840112611c75575f80fd5b50813567ffffffffffffffff811115611c8c575f80fd5b602083019150836020828501011115611ca3575f80fd5b9250929050565b5f805f805f8060a08789031215611cbf575f80fd5b8635611cca81611c36565b955060208701359450604087013593506060870135611ce881611c36565b9250608087013567ffffffffffffffff811115611d03575f80fd5b611d0f89828a01611c65565b979a9699509497509295939492505050565b5f805f805f805f805f898b03610180811215611d3b575f80fd5b8a35611d4681611c36565b995060208b0135611d5681611c36565b985060408b0135975060608b0135965060808b0135955060a08b0135945060c08b013567ffffffffffffffff811115611d8d575f80fd5b611d998d828e01611c65565b90955093505060a060df1982011215611db0575f80fd5b5060e08a0190509295985092959850929598565b6020808252818101527f4f776e61626c653a2063616c6c6572206973206e6f7420746865206f776e6572604082015260600190565b5f60208284031215611e09575f80fd5b5051919050565b634e487b7160e01b5f52604160045260245ffd5b6040516101e0810167ffffffffffffffff81118282101715611e4857611e48611e10565b60405290565b604051601f8201601f1916810167ffffffffffffffff81118282101715611e7757611e77611e10565b604052919050565b60ff811681146102ac575f80fd5b5f60a08284031215611e9d575f80fd5b60405160a0810181811067ffffffffffffffff82111715611ec057611ec0611e10565b806040525080915082358152602083013560208201526040830135611ee481611e7f565b8060408301525060608301356060820152608083013560808201525092915050565b5f60a08284031215611f16575f80fd5b6119208383611e8d565b634e487b7160e01b5f52601160045260245ffd5b818103818111156114fd576114fd611f20565b5f67ffffffffffffffff821115611f6057611f60611e10565b50601f01601f191660200190565b5f805f805f806101408789031215611f84575f80fd5b8635611f8f81611c36565b9550602087013594506040870135935060608701359250608087013567ffffffffffffffff811115611fbf575f80fd5b8701601f81018913611fcf575f80fd5b8035611fe2611fdd82611f47565b611e4e565b8181528a6020838501011115611ff6575f80fd5b816020840160208301375f6020838301015280945050505061201b8860a08901611e8d565b90509295509295509295565b634e487b7160e01b5f52602160045260245ffd5b5f5b8381101561205557818101518382015260200161203d565b50505f910152565b5f806040838503121561206e575f80fd5b825167ffffffffffffffff811115612084575f80fd5b8301601f81018513612094575f80fd5b80516120a2611fdd82611f47565b8181528660208385010111156120b6575f80fd5b6120c782602083016020860161203b565b80945050505060208301516120db81611c36565b809150509250929050565b5f602082840312156120f6575f80fd5b81518015158114611920575f80fd5b600181815b8085111561213f57815f190482111561212557612125611f20565b8085161561213257918102915b93841c939080029061210a565b509250929050565b5f82612155575060016114fd565b8161216157505f6114fd565b816001811461217757600281146121815761219d565b60019150506114fd565b60ff84111561219257612192611f20565b50506001821b6114fd565b5060208310610133831016604e8410600b84101617156121c0575081810a6114fd565b6121ca8383612105565b805f19048211156121dd576121dd611f20565b029392505050565b5f6119208383612147565b80516121fb81611c36565b919050565b5f60208284031215612210575f80fd5b815161192081611c36565b5f825161222c81846020870161203b565b9190910192915050565b5f60208284031215612246575f80fd5b6040516020810181811067ffffffffffffffff8211171561226957612269611e10565b6040529151825250919050565b80516fffffffffffffffffffffffffffffffff811681146121fb575f80fd5b805164ffffffffff811681146121fb575f80fd5b805161ffff811681146121fb575f80fd5b5f6101e082840312156122cb575f80fd5b6122d3611e24565b6122dd8484612236565b81526122eb60208401612276565b60208201526122fc60408401612276565b604082015261230d60608401612276565b606082015261231e60808401612276565b608082015261232f60a08401612276565b60a082015261234060c08401612295565b60c082015261235160e084016122a9565b60e08201526101006123648185016121f0565b908201526101206123768482016121f0565b908201526101406123888482016121f0565b9082015261016061239a8482016121f0565b908201526101806123ac848201612276565b908201526101a06123be848201612276565b908201526101c06123d0848201612276565b908201529392505050565b5f602082840312156123eb575f80fd5b815161192081611e7f565b634e487b7160e01b5f52601260045260245ffd5b5f8261242457634e487b7160e01b5f52601260045260245ffd5b500490565b602081525f825180602084015261244781604085016020870161203b565b601f01601f1916919091016040019291505056fea164736f6c6343000814000a8be0079c531659141344cd1fd0a4f28419497f9722a3daafe3b4186f6b6457e061010060405234801562000011575f80fd5b506040516200210338038062002103833981016040819052620000349162000318565b82828180806001600160a01b03166080816001600160a01b031681525050806001600160a01b031663026b1d5f6040518163ffffffff1660e01b8152600401602060405180830381865afa1580156200008f573d5f803e3d5ffd5b505050506040513d601f19601f82011682018060405250810190620000b5919062000369565b6001600160a01b031660a052505f80546001600160a01b031916339081178255604051909182915f80516020620020e3833981519152908290a350806001600160a01b031663fca513a86040518163ffffffff1660e01b8152600401602060405180830381865afa1580156200012d573d5f803e3d5ffd5b505050506040513d601f19601f8201168201806040525081019062000153919062000369565b6001600160a01b0390811660c05260405163fb04e17b60e01b81525f6004820152908316915063fb04e17b90602401602060405180830381865afa1580156200019e573d5f803e3d5ffd5b505050506040513d601f19601f82011682018060405250810190620001c491906200038e565b15620001ce575f80fd5b6001600160a01b031660e0525060018055620001ea81620001f3565b505050620003af565b5f546001600160a01b03163314620002525760405162461bcd60e51b815260206004820181905260248201527f4f776e61626c653a2063616c6c6572206973206e6f7420746865206f776e657260448201526064015b60405180910390fd5b6001600160a01b038116620002b95760405162461bcd60e51b815260206004820152602660248201527f4f776e61626c653a206e6577206f776e657220697320746865207a65726f206160448201526564647265737360d01b606482015260840162000249565b5f80546040516001600160a01b03808516939216915f80516020620020e383398151915291a35f80546001600160a01b0319166001600160a01b0392909216919091179055565b6001600160a01b038116811462000315575f80fd5b50565b5f805f606084860312156200032b575f80fd5b8351620003388162000300565b60208501519093506200034b8162000300565b60408501519092506200035e8162000300565b809150509250925092565b5f602082840312156200037a575f80fd5b8151620003878162000300565b9392505050565b5f602082840312156200039f575f80fd5b8151801515811462000387575f80fd5b60805160a05160c05160e051611ce5620003fe5f395f818161016801526109b901525f8181610141015261123601525f81816101aa0152818161078301526108d801525f60c30152611ce55ff3fe608060405234801561000f575f80fd5b50600436106100a5575f3560e01c80633a8298671161006e5780633a829867146101635780635fd73e071461018a578063715018a61461019d5780637535d246146101a55780638da5cb5b146101cc578063f2fde38b146101dc575f80fd5b8062ae3bf8146100a95780630542975c146100be5780631b11d0ff1461010257806332e4b2861461012557806338013f021461013c575b5f80fd5b6100bc6100b7366004611679565b6101ef565b005b6100e57f000000000000000000000000000000000000000000000000000000000000000081565b6040516001600160a01b0390911681526020015b60405180910390f35b6101156101103660046116d9565b6102af565b60405190151581526020016100f9565b61012e610bb881565b6040519081526020016100f9565b6100e57f000000000000000000000000000000000000000000000000000000000000000081565b6100e57f000000000000000000000000000000000000000000000000000000000000000081565b6100bc610198366004611750565b61033f565b6100bc6104ff565b6100e57f000000000000000000000000000000000000000000000000000000000000000081565b5f546001600160a01b03166100e5565b6100bc6101ea366004611679565b610570565b5f546001600160a01b031633146102215760405162461bcd60e51b8152600401610218906117fc565b60405180910390fd5b6102ac6102355f546001600160a01b031690565b6040516370a0823160e01b81523060048201526001600160a01b038416906370a0823190602401602060405180830381865afa158015610277573d5f803e3d5ffd5b505050506040513d601f19601f8201168201806040525081019061029b9190611831565b6001600160a01b0384169190610657565b50565b5f6002600154036103025760405162461bcd60e51b815260206004820152601f60248201527f5265656e7472616e637947756172643a207265656e7472616e742063616c6c006044820152606401610218565b600260015560405162461bcd60e51b815260206004820152600d60248201526c1393d517d4d5541413d4951151609a1b6044820152606401610218565b6002600154036103915760405162461bcd60e51b815260206004820152601f60248201527f5265656e7472616e637947756172643a207265656e7472616e742063616c6c006044820152606401610218565b60026001555f6103a08a6106e5565b61010001519050851561046a576040516370a0823160e01b81523360048201525f906001600160a01b038316906370a0823190602401602060405180830381865afa1580156103f1573d5f803e3d5ffd5b505050506040513d601f19601f820116820180604052508101906104159190611831565b9050888111156104675760405162461bcd60e51b815260206004820152601b60248201527f494e53554646494349454e545f414d4f554e545f544f5f5357415000000000006044820152606401610218565b97505b6104858a82338b6104803688900388018861188c565b6107f3565b5f6104d88787878080601f0160208091040260200160405190810160405280939291908181526020018383808284375f81840152601f19601f82011690508083019250505050505050868e8e8e8e610998565b90506104ee6001600160a01b038b163383610fba565b505060018055505050505050505050565b5f546001600160a01b031633146105285760405162461bcd60e51b8152600401610218906117fc565b5f80546040516001600160a01b03909116907f8be0079c531659141344cd1fd0a4f28419497f9722a3daafe3b4186f6b6457e0908390a35f80546001600160a01b0319169055565b5f546001600160a01b031633146105995760405162461bcd60e51b8152600401610218906117fc565b6001600160a01b0381166105fe5760405162461bcd60e51b815260206004820152602660248201527f4f776e61626c653a206e6577206f776e657220697320746865207a65726f206160448201526564647265737360d01b6064820152608401610218565b5f80546040516001600160a01b03808516939216917f8be0079c531659141344cd1fd0a4f28419497f9722a3daafe3b4186f6b6457e091a35f80546001600160a01b0319166001600160a01b0392909216919091179055565b60405163a9059cbb60e01b8082526001600160a01b038416600483015260248201839052905f8060448382895af1610691573d5f803e3d5ffd5b5061069b84611022565b6106df5760405162461bcd60e51b815260206004820152601560248201527423a83b191d103330b4b632b2103a3930b739b332b960591b6044820152606401610218565b50505050565b60408051610200810182525f6101e08201818152825260208201819052918101829052606081018290526080810182905260a0810182905260c0810182905260e08101829052610100810182905261012081018290526101408101829052610160810182905261018081018290526101a081018290526101c08101919091526040516335ea6a7560e01b81526001600160a01b0383811660048301527f000000000000000000000000000000000000000000000000000000000000000016906335ea6a75906024016101e060405180830381865afa1580156107c9573d5f803e3d5ffd5b505050506040513d601f19601f820116820180604052508101906107ed91906119ae565b92915050565b602081015115610895578051602082015160408084015160608501516080860151925163d505accf60e01b81526001600160a01b0389811660048301523060248301526044820196909652606481019490945260ff909116608484015260a483015260c48201529085169063d505accf9060e4015f604051808303815f87803b15801561087e575f80fd5b505af1158015610890573d5f803e3d5ffd5b505050505b6108aa6001600160a01b0385168430856110c5565b604051631a4ca37b60e21b81526001600160a01b0386811660048301526024820184905230604483015283917f0000000000000000000000000000000000000000000000000000000000000000909116906369328dec906064016020604051808303815f875af1158015610920573d5f803e3d5ffd5b505050506040513d601f19601f820116820180604052508101906109449190611831565b146109915760405162461bcd60e51b815260206004820152601b60248201527f554e45585045435445445f414d4f554e545f57495448445241574e00000000006044820152606401610218565b5050505050565b60405163fb04e17b60e01b81526001600160a01b0386811660048301525f917f00000000000000000000000000000000000000000000000000000000000000009091169063fb04e17b90602401602060405180830381865afa158015610a00573d5f803e3d5ffd5b505050506040513d601f19601f82011682018060405250810190610a249190611acf565b610a635760405162461bcd60e51b815260206004820152601060248201526f494e56414c49445f415547555354555360801b6044820152606401610218565b5f610a6d8661115d565b60ff1690505f610a7c8661115d565b60ff1690505f610a8b88611215565b90505f610a9788611215565b90505f610aee610aab610bb8612710611b02565b610ae8610ac3610abc89600a611bf5565b86906112a1565b610ae2610adb610ad48a600a611bf5565b89906112a1565b8d906112a1565b906112c9565b906112db565b905086811115610b405760405162461bcd60e51b815260206004820152601f60248201527f4d494e5f414d4f554e545f455843454544535f4d41585f534c495050414745006044820152606401610218565b50506040516370a0823160e01b81523060048201525f93506001600160a01b03891692506370a082319150602401602060405180830381865afa158015610b89573d5f803e3d5ffd5b505050506040513d601f19601f82011682018060405250810190610bad9190611831565b905083811015610bff5760405162461bcd60e51b815260206004820181905260248201527f494e53554646494349454e545f42414c414e43455f4245464f52455f535741506044820152606401610218565b6040516370a0823160e01b81523060048201525f906001600160a01b038716906370a0823190602401602060405180830381865afa158015610c43573d5f803e3d5ffd5b505050506040513d601f19601f82011682018060405250810190610c679190611831565b90505f886001600160a01b031663d2c4b5986040518163ffffffff1660e01b8152600401602060405180830381865afa158015610ca6573d5f803e3d5ffd5b505050506040513d601f19601f82011682018060405250810190610cca9190611c00565b9050610ce06001600160a01b038916825f6112ff565b610cf46001600160a01b03891682886112ff565b8a15610d6c5760048b10158015610d1757508951610d13906020611412565b8b11155b610d635760405162461bcd60e51b815260206004820152601f60248201527f46524f4d5f414d4f554e545f4f46465345545f4f55545f4f465f52414e4745006044820152606401610218565b8560208c018b01525b5f896001600160a01b03168b604051610d859190611c3d565b5f604051808303815f865af19150503d805f8114610dbe576040519150601f19603f3d011682016040523d82523d5f602084013e610dc3565b606091505b5050905080610dd4573d5f803e3d5ffd5b610dde8785611b02565b6040516370a0823160e01b81523060048201526001600160a01b038b16906370a0823190602401602060405180830381865afa158015610e20573d5f803e3d5ffd5b505050506040513d601f19601f82011682018060405250810190610e449190611831565b14610e915760405162461bcd60e51b815260206004820152601860248201527f57524f4e475f42414c414e43455f41465445525f5357415000000000000000006044820152606401610218565b6040516370a0823160e01b8152306004820152610f039084906001600160a01b038b16906370a0823190602401602060405180830381865afa158015610ed9573d5f803e3d5ffd5b505050506040513d601f19601f82011682018060405250810190610efd9190611831565b90611412565b945085851015610f555760405162461bcd60e51b815260206004820152601c60248201527f494e53554646494349454e545f414d4f554e545f5245434549564544000000006044820152606401610218565b876001600160a01b0316896001600160a01b03167fa078c4190abe07940190effc1846be0ccf03ad6007bc9e93f9697d0b460befbb8988604051610fa3929190918252602082015260400190565b60405180910390a350505050979650505050505050565b6040516001600160a01b03831660248201526044810182905261101d90849063a9059cbb60e01b906064015b60408051601f198184030181529190526020810180516001600160e01b03166001600160e01b031990931692909217909152611421565b505050565b5f611044565b62461bcd60e51b5f52602060045280602452508060445260645ffd5b3d801561108357602081146110b45761107e7f475076323a206d616c666f726d6564207472616e7366657220726573756c7400601f611028565b6110bf565b823b6110ab576110ab7311d41d8c8e881b9bdd08184818dbdb9d1c9858dd60621b6014611028565b600191506110bf565b3d5f803e5f51151591505b50919050565b6040516323b872dd60e01b8082526001600160a01b0385811660048401528416602483015260448201839052905f80606483828a5af1611107573d5f803e3d5ffd5b5061111185611022565b6109915760405162461bcd60e51b815260206004820152601960248201527f475076323a206661696c6564207472616e7366657246726f6d000000000000006044820152606401610218565b5f80826001600160a01b031663313ce5676040518163ffffffff1660e01b8152600401602060405180830381865afa15801561119b573d5f803e3d5ffd5b505050506040513d601f19601f820116820180604052508101906111bf9190611c58565b9050604d8160ff1611156107ed5760405162461bcd60e51b815260206004820152601a60248201527f544f4f5f4d414e595f444543494d414c535f4f4e5f544f4b454e0000000000006044820152606401610218565b60405163b3596f0760e01b81526001600160a01b0382811660048301525f917f00000000000000000000000000000000000000000000000000000000000000009091169063b3596f0790602401602060405180830381865afa15801561127d573d5f803e3d5ffd5b505050506040513d601f19601f820116820180604052508101906107ed9190611831565b5f8215806112c1575050818102818382816112be576112be611c73565b04145b6107ed575f80fd5b5f6112d48284611c87565b9392505050565b5f811561138819839004841115176112f1575f80fd5b506127109102611388010490565b8015806113775750604051636eb1769f60e11b81523060048201526001600160a01b03838116602483015284169063dd62ed3e90604401602060405180830381865afa158015611351573d5f803e3d5ffd5b505050506040513d601f19601f820116820180604052508101906113759190611831565b155b6113e25760405162461bcd60e51b815260206004820152603660248201527f5361666545524332303a20617070726f76652066726f6d206e6f6e2d7a65726f60448201527520746f206e6f6e2d7a65726f20616c6c6f77616e636560501b6064820152608401610218565b6040516001600160a01b03831660248201526044810182905261101d90849063095ea7b360e01b90606401610fe6565b808203828111156107ed575f80fd5b5f611475826040518060400160405280602081526020017f5361666545524332303a206c6f772d6c6576656c2063616c6c206661696c6564815250856001600160a01b03166114f29092919063ffffffff16565b80519091501561101d57808060200190518101906114939190611acf565b61101d5760405162461bcd60e51b815260206004820152602a60248201527f5361666545524332303a204552433230206f7065726174696f6e20646964206e6044820152691bdd081cdd58d8d9595960b21b6064820152608401610218565b606061150084845f85611508565b949350505050565b6060824710156115695760405162461bcd60e51b815260206004820152602660248201527f416464726573733a20696e73756666696369656e742062616c616e636520666f6044820152651c8818d85b1b60d21b6064820152608401610218565b843b6115b75760405162461bcd60e51b815260206004820152601d60248201527f416464726573733a2063616c6c20746f206e6f6e2d636f6e74726163740000006044820152606401610218565b5f80866001600160a01b031685876040516115d29190611c3d565b5f6040518083038185875af1925050503d805f811461160c576040519150601f19603f3d011682016040523d82523d5f602084013e611611565b606091505b509150915061162182828661162c565b979650505050505050565b6060831561163b5750816112d4565b82511561164b5782518084602001fd5b8160405162461bcd60e51b81526004016102189190611ca6565b6001600160a01b03811681146102ac575f80fd5b5f60208284031215611689575f80fd5b81356112d481611665565b5f8083601f8401126116a4575f80fd5b50813567ffffffffffffffff8111156116bb575f80fd5b6020830191508360208285010111156116d2575f80fd5b9250929050565b5f805f805f8060a087890312156116ee575f80fd5b86356116f981611665565b95506020870135945060408701359350606087013561171781611665565b9250608087013567ffffffffffffffff811115611732575f80fd5b61173e89828a01611694565b979a9699509497509295939492505050565b5f805f805f805f805f898b0361018081121561176a575f80fd5b8a3561177581611665565b995060208b013561178581611665565b985060408b0135975060608b0135965060808b0135955060a08b013567ffffffffffffffff8111156117b5575f80fd5b6117c18d828e01611694565b90965094505060c08b01356117d581611665565b925060a060df19820112156117e8575f80fd5b5060e08a0190509295985092959850929598565b6020808252818101527f4f776e61626c653a2063616c6c6572206973206e6f7420746865206f776e6572604082015260600190565b5f60208284031215611841575f80fd5b5051919050565b6040516101e0810167ffffffffffffffff8111828210171561187857634e487b7160e01b5f52604160045260245ffd5b60405290565b60ff811681146102ac575f80fd5b5f60a0828403121561189c575f80fd5b60405160a0810181811067ffffffffffffffff821117156118cb57634e487b7160e01b5f52604160045260245ffd5b8060405250823581526020830135602082015260408301356118ec8161187e565b6040820152606083810135908201526080928301359281019290925250919050565b5f6020828403121561191e575f80fd5b6040516020810181811067ffffffffffffffff8211171561194d57634e487b7160e01b5f52604160045260245ffd5b6040529151825250919050565b80516fffffffffffffffffffffffffffffffff81168114611979575f80fd5b919050565b805164ffffffffff81168114611979575f80fd5b805161ffff81168114611979575f80fd5b805161197981611665565b5f6101e082840312156119bf575f80fd5b6119c7611848565b6119d1848461190e565b81526119df6020840161195a565b60208201526119f06040840161195a565b6040820152611a016060840161195a565b6060820152611a126080840161195a565b6080820152611a2360a0840161195a565b60a0820152611a3460c0840161197e565b60c0820152611a4560e08401611992565b60e0820152610100611a588185016119a3565b90820152610120611a6a8482016119a3565b90820152610140611a7c8482016119a3565b90820152610160611a8e8482016119a3565b90820152610180611aa084820161195a565b908201526101a0611ab284820161195a565b908201526101c0611ac484820161195a565b908201529392505050565b5f60208284031215611adf575f80fd5b815180151581146112d4575f80fd5b634e487b7160e01b5f52601160045260245ffd5b818103818111156107ed576107ed611aee565b600181815b80851115611b4f57815f1904821115611b3557611b35611aee565b80851615611b4257918102915b93841c9390800290611b1a565b509250929050565b5f82611b65575060016107ed565b81611b7157505f6107ed565b8160018114611b875760028114611b9157611bad565b60019150506107ed565b60ff841115611ba257611ba2611aee565b50506001821b6107ed565b5060208310610133831016604e8410600b8410161715611bd0575081810a6107ed565b611bda8383611b15565b805f1904821115611bed57611bed611aee565b029392505050565b5f6112d48383611b57565b5f60208284031215611c10575f80fd5b81516112d481611665565b5f5b83811015611c35578181015183820152602001611c1d565b50505f910152565b5f8251611c4e818460208701611c1b565b9190910192915050565b5f60208284031215611c68575f80fd5b81516112d48161187e565b634e487b7160e01b5f52601260045260245ffd5b5f82611ca157634e487b7160e01b5f52601260045260245ffd5b500490565b602081525f8251806020840152611cc4816040850160208701611c1b565b601f01601f1916919091016040019291505056fea164736f6c6343000814000a8be0079c531659141344cd1fd0a4f28419497f9722a3daafe3b4186f6b6457e060c060405234801561000f575f80fd5b506040516107a73803806107a783398101604081905261002e91610102565b6001600160a01b0381166100895760405162461bcd60e51b815260206004820152601d60248201527f50415241535741505f4645455f434c41494d45525f524551554952454400000060448201526064015b60405180910390fd5b6001600160a01b0382166100d45760405162461bcd60e51b815260206004820152601260248201527110d3d3131150d513d497d49154555254915160721b6044820152606401610080565b6001600160a01b039182166080521660a05261013a565b6001600160a01b03811681146100ff575f80fd5b50565b5f8060408385031215610113575f80fd5b825161011e816100eb565b602084015190925061012f816100eb565b809150509250929050565b60805160a0516106246101835f395f818160690152818161017f0152818161020501528181610283015261030e01525f818160d501528181610157015261023401526106245ff3fe608060405234801561000f575f80fd5b5060043610610060575f3560e01c806301bb0de514610064578063080dba3a146100a8578063274af2a9146100bd57806359c7dc7a146100d0578063a583024b146100f7578063ebdb0e8314610118575b5f80fd5b61008b7f000000000000000000000000000000000000000000000000000000000000000081565b6040516001600160a01b0390911681526020015b60405180910390f35b6100bb6100b636600461039d565b610138565b005b6100bb6100cb366004610427565b6101ee565b61008b7f000000000000000000000000000000000000000000000000000000000000000081565b61010a61010536600461039d565b61025c565b60405190815260200161009f565b61012b610126366004610427565b6102f4565b60405161009f91906104c1565b6040516315c238ff60e31b81526001600160a01b0382811660048301527f0000000000000000000000000000000000000000000000000000000000000000811660248301527f0000000000000000000000000000000000000000000000000000000000000000169063ae11c7f8906044015b6020604051808303815f875af11580156101c6573d5f803e3d5ffd5b505050506040513d601f19601f820116820180604052508101906101ea9190610504565b5050565b6040516302efb73160e61b81526001600160a01b037f0000000000000000000000000000000000000000000000000000000000000000169063bbedcc40906101aa9084907f000000000000000000000000000000000000000000000000000000000000000090600401610523565b60405163d4fac45d60e01b81526001600160a01b0382811660048301523060248301525f917f00000000000000000000000000000000000000000000000000000000000000009091169063d4fac45d90604401602060405180830381865afa1580156102ca573d5f803e3d5ffd5b505050506040513d601f19601f820116820180604052508101906102ee919061057f565b92915050565b60405163b0a65b1760e01b81526060906001600160a01b037f0000000000000000000000000000000000000000000000000000000000000000169063b0a65b17906103459085903090600401610523565b5f60405180830381865afa15801561035f573d5f803e3d5ffd5b505050506040513d5f823e601f3d908101601f191682016040526102ee9190810190610596565b6001600160a01b038116811461039a575f80fd5b50565b5f602082840312156103ad575f80fd5b81356103b881610386565b9392505050565b634e487b7160e01b5f52604160045260245ffd5b604051601f8201601f1916810167ffffffffffffffff811182821017156103fc576103fc6103bf565b604052919050565b5f67ffffffffffffffff82111561041d5761041d6103bf565b5060051b60200190565b5f6020808385031215610438575f80fd5b823567ffffffffffffffff81111561044e575f80fd5b8301601f8101851361045e575f80fd5b803561047161046c82610404565b6103d3565b81815260059190911b8201830190838101908783111561048f575f80fd5b928401925b828410156104b65783356104a781610386565b82529284019290840190610494565b979650505050505050565b602080825282518282018190525f9190848201906040850190845b818110156104f8578351835292840192918401916001016104dc565b50909695505050505050565b5f60208284031215610514575f80fd5b815180151581146103b8575f80fd5b604080825283519082018190525f906020906060840190828701845b828110156105645781516001600160a01b03168452928401929084019060010161053f565b5050506001600160a01b039490941692019190915250919050565b5f6020828403121561058f575f80fd5b5051919050565b5f60208083850312156105a7575f80fd5b825167ffffffffffffffff8111156105bd575f80fd5b8301601f810185136105cd575f80fd5b80516105db61046c82610404565b81815260059190911b820183019083810190878311156105f9575f80fd5b928401925b828410156104b6578351825292840192908401906105fe56fea164736f6c6343000814000a","linkReferences":{}},"methodIdentifiers":{"getParaswapReport()":"d0ee3791"},"id":305}