{"abi":[{"type":"constructor","inputs":[{"name":"assetAddress","type":"address","internalType":"address"},{"name":"assetFeed","type":"address","internalType":"address"},{"name":"customEngine","type":"address","internalType":"address"}],"stateMutability":"nonpayable"},{"type":"function","name":"ASSET_ADDRESS","inputs":[],"outputs":[{"name":"","type":"address","internalType":"address"}],"stateMutability":"view"},{"type":"function","name":"ASSET_FEED","inputs":[],"outputs":[{"name":"","type":"address","internalType":"address"}],"stateMutability":"view"},{"type":"function","name":"CONFIG_ENGINE","inputs":[],"outputs":[{"name":"","type":"address","internalType":"contract IAaveV3ConfigEngine"}],"stateMutability":"view"},{"type":"function","name":"assetsEModeUpdates","inputs":[],"outputs":[{"name":"","type":"tuple[]","internalType":"struct IAaveV3ConfigEngine.AssetEModeUpdate[]","components":[{"name":"asset","type":"address","internalType":"address"},{"name":"eModeCategory","type":"uint8","internalType":"uint8"},{"name":"borrowable","type":"uint256","internalType":"uint256"},{"name":"collateral","type":"uint256","internalType":"uint256"}]}],"stateMutability":"view"},{"type":"function","name":"borrowsUpdates","inputs":[],"outputs":[{"name":"","type":"tuple[]","internalType":"struct IAaveV3ConfigEngine.BorrowUpdate[]","components":[{"name":"asset","type":"address","internalType":"address"},{"name":"enabledToBorrow","type":"uint256","internalType":"uint256"},{"name":"flashloanable","type":"uint256","internalType":"uint256"},{"name":"borrowableInIsolation","type":"uint256","internalType":"uint256"},{"name":"withSiloedBorrowing","type":"uint256","internalType":"uint256"},{"name":"reserveFactor","type":"uint256","internalType":"uint256"}]}],"stateMutability":"view"},{"type":"function","name":"capsUpdates","inputs":[],"outputs":[{"name":"","type":"tuple[]","internalType":"struct IAaveV3ConfigEngine.CapsUpdate[]","components":[{"name":"asset","type":"address","internalType":"address"},{"name":"supplyCap","type":"uint256","internalType":"uint256"},{"name":"borrowCap","type":"uint256","internalType":"uint256"}]}],"stateMutability":"view"},{"type":"function","name":"collateralsUpdates","inputs":[],"outputs":[{"name":"","type":"tuple[]","internalType":"struct IAaveV3ConfigEngine.CollateralUpdate[]","components":[{"name":"asset","type":"address","internalType":"address"},{"name":"ltv","type":"uint256","internalType":"uint256"},{"name":"liqThreshold","type":"uint256","internalType":"uint256"},{"name":"liqBonus","type":"uint256","internalType":"uint256"},{"name":"debtCeiling","type":"uint256","internalType":"uint256"},{"name":"liqProtocolFee","type":"uint256","internalType":"uint256"}]}],"stateMutability":"view"},{"type":"function","name":"eModeCategoriesUpdates","inputs":[],"outputs":[{"name":"","type":"tuple[]","internalType":"struct IAaveV3ConfigEngine.EModeCategoryUpdate[]","components":[{"name":"eModeCategory","type":"uint8","internalType":"uint8"},{"name":"ltv","type":"uint256","internalType":"uint256"},{"name":"liqThreshold","type":"uint256","internalType":"uint256"},{"name":"liqBonus","type":"uint256","internalType":"uint256"},{"name":"label","type":"string","internalType":"string"}]}],"stateMutability":"view"},{"type":"function","name":"execute","inputs":[],"outputs":[],"stateMutability":"nonpayable"},{"type":"function","name":"getPoolContext","inputs":[],"outputs":[{"name":"","type":"tuple","internalType":"struct IAaveV3ConfigEngine.PoolContext","components":[{"name":"networkName","type":"string","internalType":"string"},{"name":"networkAbbreviation","type":"string","internalType":"string"}]}],"stateMutability":"pure"},{"type":"function","name":"newListings","inputs":[],"outputs":[{"name":"","type":"tuple[]","internalType":"struct IAaveV3ConfigEngine.Listing[]","components":[{"name":"asset","type":"address","internalType":"address"},{"name":"assetSymbol","type":"string","internalType":"string"},{"name":"priceFeed","type":"address","internalType":"address"},{"name":"rateStrategyParams","type":"tuple","internalType":"struct IAaveV3ConfigEngine.InterestRateInputData","components":[{"name":"optimalUsageRatio","type":"uint256","internalType":"uint256"},{"name":"baseVariableBorrowRate","type":"uint256","internalType":"uint256"},{"name":"variableRateSlope1","type":"uint256","internalType":"uint256"},{"name":"variableRateSlope2","type":"uint256","internalType":"uint256"}]},{"name":"enabledToBorrow","type":"uint256","internalType":"uint256"},{"name":"borrowableInIsolation","type":"uint256","internalType":"uint256"},{"name":"withSiloedBorrowing","type":"uint256","internalType":"uint256"},{"name":"flashloanable","type":"uint256","internalType":"uint256"},{"name":"ltv","type":"uint256","internalType":"uint256"},{"name":"liqThreshold","type":"uint256","internalType":"uint256"},{"name":"liqBonus","type":"uint256","internalType":"uint256"},{"name":"reserveFactor","type":"uint256","internalType":"uint256"},{"name":"supplyCap","type":"uint256","internalType":"uint256"},{"name":"borrowCap","type":"uint256","internalType":"uint256"},{"name":"debtCeiling","type":"uint256","internalType":"uint256"},{"name":"liqProtocolFee","type":"uint256","internalType":"uint256"}]}],"stateMutability":"view"},{"type":"function","name":"newListingsCustom","inputs":[],"outputs":[{"name":"","type":"tuple[]","internalType":"struct IAaveV3ConfigEngine.ListingWithCustomImpl[]","components":[{"name":"base","type":"tuple","internalType":"struct IAaveV3ConfigEngine.Listing","components":[{"name":"asset","type":"address","internalType":"address"},{"name":"assetSymbol","type":"string","internalType":"string"},{"name":"priceFeed","type":"address","internalType":"address"},{"name":"rateStrategyParams","type":"tuple","internalType":"struct IAaveV3ConfigEngine.InterestRateInputData","components":[{"name":"optimalUsageRatio","type":"uint256","internalType":"uint256"},{"name":"baseVariableBorrowRate","type":"uint256","internalType":"uint256"},{"name":"variableRateSlope1","type":"uint256","internalType":"uint256"},{"name":"variableRateSlope2","type":"uint256","internalType":"uint256"}]},{"name":"enabledToBorrow","type":"uint256","internalType":"uint256"},{"name":"borrowableInIsolation","type":"uint256","internalType":"uint256"},{"name":"withSiloedBorrowing","type":"uint256","internalType":"uint256"},{"name":"flashloanable","type":"uint256","internalType":"uint256"},{"name":"ltv","type":"uint256","internalType":"uint256"},{"name":"liqThreshold","type":"uint256","internalType":"uint256"},{"name":"liqBonus","type":"uint256","internalType":"uint256"},{"name":"reserveFactor","type":"uint256","internalType":"uint256"},{"name":"supplyCap","type":"uint256","internalType":"uint256"},{"name":"borrowCap","type":"uint256","internalType":"uint256"},{"name":"debtCeiling","type":"uint256","internalType":"uint256"},{"name":"liqProtocolFee","type":"uint256","internalType":"uint256"}]},{"name":"implementations","type":"tuple","internalType":"struct IAaveV3ConfigEngine.TokenImplementations","components":[{"name":"aToken","type":"address","internalType":"address"},{"name":"vToken","type":"address","internalType":"address"}]}]}],"stateMutability":"view"},{"type":"function","name":"priceFeedsUpdates","inputs":[],"outputs":[{"name":"","type":"tuple[]","internalType":"struct IAaveV3ConfigEngine.PriceFeedUpdate[]","components":[{"name":"asset","type":"address","internalType":"address"},{"name":"priceFeed","type":"address","internalType":"address"}]}],"stateMutability":"view"},{"type":"function","name":"rateStrategiesUpdates","inputs":[],"outputs":[{"name":"","type":"tuple[]","internalType":"struct IAaveV3ConfigEngine.RateStrategyUpdate[]","components":[{"name":"asset","type":"address","internalType":"address"},{"name":"params","type":"tuple","internalType":"struct IAaveV3ConfigEngine.InterestRateInputData","components":[{"name":"optimalUsageRatio","type":"uint256","internalType":"uint256"},{"name":"baseVariableBorrowRate","type":"uint256","internalType":"uint256"},{"name":"variableRateSlope1","type":"uint256","internalType":"uint256"},{"name":"variableRateSlope2","type":"uint256","internalType":"uint256"}]}]}],"stateMutability":"view"}],"bytecode":{"object":"0x60e060405234801561000f575f80fd5b50604051610ef3380380610ef383398101604081905261002e91610066565b6001600160a01b0390811660805291821660a0521660c0526100a6565b80516001600160a01b0381168114610061575f80fd5b919050565b5f805f60608486031215610078575f80fd5b6100818461004b565b925061008f6020850161004b565b915061009d6040850161004b565b90509250925092565b60805160a05160c051610e0e6100e55f395f818161015401526104ab01525f8181610106015261045901525f818161017b01526102a70152610e0e5ff3fe608060405234801561000f575f80fd5b50600436106100e5575f3560e01c806395a93cb111610088578063ca8e89cc11610063578063ca8e89cc146101e9578063d0c38c27146101f8578063fabe346314610207578063fbb256f614610216575f80fd5b806395a93cb1146101b6578063b1af0d0d146101c5578063c0a25580146101d4575f80fd5b80635917d266116100c35780635917d2661461014f5780635e5eef7a14610176578063614619541461019d57806392287095146101a7575f80fd5b80631850edd8146100e95780631d4be043146101015780632b17943414610140575b5f80fd5b60606040516100f8919061080e565b60405180910390f35b6101287f000000000000000000000000000000000000000000000000000000000000000081565b6040516001600160a01b0390911681526020016100f8565b60606040516100f8919061085b565b6101287f000000000000000000000000000000000000000000000000000000000000000081565b6101287f000000000000000000000000000000000000000000000000000000000000000081565b6101a561022b565b005b60606040516100f8919061089c565b60606040516100f8919061090b565b60606040516100f8919061095f565b6101dc610414565b6040516100f89190610b5d565b60606040516100f89190610b6f565b60606040516100f89190610c05565b60606040516100f89190610cf7565b61021e61057d565b6040516100f89190610d3f565b60605f610236610414565b8251909150606090819081908190819081908190156102cf576102cd634ee1151a60e01b8a60405160240161026b9190610b6f565b60408051601f198184030181529190526020810180516001600160e01b03166001600160e01b0319909316929092179091526001600160a01b037f000000000000000000000000000000000000000000000000000000000000000016906105d9565b505b8751156102fd576102fb630b393a0960e11b6102e961057d565b8a60405160240161026b929190610d51565b505b86511561032b576103296311577d8d60e01b61031761057d565b8960405160240161026b929190610d75565b505b8451156103505761034e63f1c2652c60e01b8660405160240161026b919061080e565b505b855115610375576103736309d8332860e01b8760405160240161026b919061085b565b505b83511561039a5761039863b79421eb60e01b8560405160240161026b9190610c05565b505b8251156103bf576103bd63927c400360e01b8460405160240161026b919061095f565b505b8151156103e4576103e26312146c7060e01b8360405160240161026b919061089c565b505b805115610409576104076355caa16360e01b8260405160240161026b919061090b565b505b505050505050505050565b6040805160018082528183019092526060915f9190816020015b610436610728565b81526020019060019003908161042e5790505090506040518061020001604052807f00000000000000000000000000000000000000000000000000000000000000006001600160a01b0316815260200160405180604001604052806005815260200164062929c86960db1b81525081526020017f00000000000000000000000000000000000000000000000000000000000000006001600160a01b031681526020016040518060800160405280611f4081526020016019815260200161012c8152602001611d4c8152508152602001600181526020015f81526020015f81526020015f815260200161203a815260200161219881526020016101f481526020016103e8815260200162014c08815260200161ea6081526020015f81526020016103e8815250815f8151811061056d5761056d610d99565b6020908102919091010152919050565b60408051808201909152606080825260208201525060408051608081018252600581830190815264131bd8d85b60da1b60608301528152815180830190925260038252624c6f6360e81b60208381019190915281019190915290565b60606105fe8383604051806060016040528060278152602001610ddb60279139610605565b9392505050565b60605f80856001600160a01b0316856040516106219190610dad565b5f60405180830381855af49150503d805f8114610659576040519150601f19603f3d011682016040523d82523d5f602084013e61065e565b606091505b509150915061066f86838387610679565b9695505050505050565b606083156106ec5782515f036106e5576001600160a01b0385163b6106e55760405162461bcd60e51b815260206004820152601d60248201527f416464726573733a2063616c6c20746f206e6f6e2d636f6e747261637400000060448201526064015b60405180910390fd5b50816106f6565b6106f683836106fe565b949350505050565b81511561070e5781518083602001fd5b8060405162461bcd60e51b81526004016106dc9190610dc8565b6040518061020001604052805f6001600160a01b03168152602001606081526020015f6001600160a01b0316815260200161078060405180608001604052805f81526020015f81526020015f81526020015f81525090565b81526020015f81526020015f81526020015f81526020015f81526020015f81526020015f81526020015f81526020015f81526020015f81526020015f81526020015f81526020015f81525090565b80516001600160a01b031682526020808201519083015260408082015190830152606080820151908301526080808201519083015260a090810151910152565b602080825282518282018190525f9190848201906040850190845b8181101561084f5761083c8385516107ce565b9284019260c09290920191600101610829565b50909695505050505050565b602080825282518282018190525f9190848201906040850190845b8181101561084f576108898385516107ce565b9284019260c09290920191600101610876565b602080825282518282018190525f919060409081850190868401855b828110156108fe57815180516001600160a01b031685528681015160ff1687860152858101518686015260609081015190850152608090930192908501906001016108b8565b5091979650505050505050565b602080825282518282018190525f919060409081850190868401855b828110156108fe57815180516001600160a01b0316855286810151878601528501518585015260609093019290850190600101610927565b602080825282518282018190525f919060409081850190868401855b828110156108fe576109a484835180516001600160a01b03908116835260209182015116910152565b928401929085019060010161097b565b5f5b838110156109ce5781810151838201526020016109b6565b50505f910152565b5f81518084526109ed8160208601602086016109b4565b601f01601f19169290920160200192915050565b80516001600160a01b031682525f6102606020830151816020860152610a29828601826109d6565b9150506040830151610a4660408601826001600160a01b03169052565b5060608381015180518683015260208101516080870152604081015160a08701529081015160c086015250608083015160e08581019190915260a08401516101008087019190915260c085015161012080880191909152918501516101408088019190915290850151610160808801919091529185015161018080880191909152908501516101a080880191909152918501516101c080880191909152908501516101e080880191909152918501516102008701528401516102208601529092015161024090930192909252919050565b5f81518084526020808501808196508360051b810191508286015f5b858110156108fe578284038952610b4b848351610a01565b98850198935090840190600101610b33565b602081525f6105fe6020830184610b17565b5f6020808301818452808551808352604092508286019150828160051b8701018488015f5b83811015610bf757888303603f190185528151805160ff168452878101518885015286810151878501526060808201519085015260809081015160a091850182905290610be3818601836109d6565b968901969450505090860190600101610b94565b509098975050505050505050565b602080825282518282018190525f9190848201906040850190845b8181101561084f57835180516001600160a01b03168452850151610c6786850182805182526020810151602083015260408101516040830152606081015160608301525050565b509284019260a09290920191600101610c20565b5f81518084526020808501808196508360051b810191508286015f5b858110156108fe578284038952815160608151818752610cb982880182610a01565b915050868201519150610ce48787018380516001600160a01b03908116835260209182015116910152565b9986019994505090840190600101610c97565b602081525f6105fe6020830184610c7b565b5f815160408452610d1d60408501826109d6565b905060208301518482036020860152610d3682826109d6565b95945050505050565b602081525f6105fe6020830184610d09565b604081525f610d636040830185610d09565b8281036020840152610d368185610b17565b604081525f610d876040830185610d09565b8281036020840152610d368185610c7b565b634e487b7160e01b5f52603260045260245ffd5b5f8251610dbe8184602087016109b4565b9190910192915050565b602081525f6105fe60208301846109d656fe416464726573733a206c6f772d6c6576656c2064656c65676174652063616c6c206661696c6564a164736f6c6343000814000a","linkReferences":{}},"methodIdentifiers":{"ASSET_ADDRESS()":"1d4be043","ASSET_FEED()":"5917d266","CONFIG_ENGINE()":"5e5eef7a","assetsEModeUpdates()":"92287095","borrowsUpdates()":"1850edd8","capsUpdates()":"95a93cb1","collateralsUpdates()":"2b179434","eModeCategoriesUpdates()":"ca8e89cc","execute()":"61461954","getPoolContext()":"fbb256f6","newListings()":"c0a25580","newListingsCustom()":"fabe3463","priceFeedsUpdates()":"b1af0d0d","rateStrategiesUpdates()":"d0c38c27"},"id":335}