{"abi":[{"type":"constructor","inputs":[{"name":"poolAddressesProvider","type":"address","internalType":"address"}],"stateMutability":"nonpayable"},{"type":"function","name":"getPoolReport","inputs":[],"outputs":[{"name":"","type":"tuple","internalType":"struct PoolReport","components":[{"name":"poolImplementation","type":"address","internalType":"address"},{"name":"poolConfiguratorImplementation","type":"address","internalType":"address"}]}],"stateMutability":"view"},{"type":"error","name":"L2MustBeDisabled","inputs":[]},{"type":"error","name":"L2MustBeEnabled","inputs":[]},{"type":"error","name":"ProviderNotFound","inputs":[]},{"type":"error","name":"ProxyAdminNotFound","inputs":[]}],"bytecode":{"object":"0x608060405234801561000f575f80fd5b5060405161ab0638038061ab0683398101604081905261002e916101b0565b6100378161006f565b80515f80546001600160a01b03199081166001600160a01b0393841617909155602090920151600180549093169116179055506101dd565b604080518082019091525f80825260208201526001600160a01b0382166100a95760405163b1cd090360e01b815260040160405180910390fd5b604080518082019091525f80825260208201526100c5836100ed565b6001600160a01b031681526100d983610188565b6001600160a01b0316602082015292915050565b5f80826040516100fc90610196565b6001600160a01b0390911681526020015b604051809103905ff080158015610126573d5f803e3d5ffd5b5060405163189acdbd60e31b81526001600160a01b0385811660048301529192509082169063c4d66de8906024015f604051808303815f87803b15801561016b575f80fd5b505af115801561017d573d5f803e3d5ffd5b509295945050505050565b5f8060405161010d906101a3565b615b308061027283390190565b614d6480615da283390190565b5f602082840312156101c0575f80fd5b81516001600160a01b03811681146101d6575f80fd5b9392505050565b6089806101e95f395ff3fe6080604052348015600e575f80fd5b50600436106026575f3560e01c8063aec5b39b14602a575b5f80fd5b6040805180820182525f80825260209182018190528251808401845290546001600160a01b03908116808352600154821692840192835284519081529151169181019190915281519081900390910190f3fea164736f6c6343000814000a60a06040525f805534801562000013575f80fd5b5060405162005b3038038062005b30833981016040819052620000369162000048565b6001600160a01b031660805262000077565b5f6020828403121562000059575f80fd5b81516001600160a01b038116811462000070575f80fd5b9392505050565b608051615a3e620000f25f395f818161046201528181610e1d01528181610ed9015281816112e9015281816119ef01528181611cd20152818161246d015281816125290152818161274b01528181612a9901528181612c8701528181612f9001528181613506015281816136f30152613d150152615a3e5ff3fe608060405234801561000f575f80fd5b5060043610610416575f3560e01c80638e19899e11610221578063d15e00531161012a578063e8eda9df116100b4578063f51e435b11610084578063f51e435b14610d3d578063f7a7384014610d50578063f8119d5114610d63578063fd21ecff14610d72578063ff72158a14610d85575f80fd5b8063e8eda9df146106c6578063eddf1b7914610ce5578063ee3e210b14610d10578063f32b9a7314610d23575f80fd5b8063d5eed868116100fa578063d5eed86814610c7f578063d65dc7a114610c92578063dc7c0bff14610ca5578063df374c3614610cb8578063e43e88a114610cd2575f80fd5b8063d15e005314610c2a578063d1946dbc14610c3d578063d335015514610c52578063d5ed393314610c6c575f80fd5b8063ab9c4b5d116101ab578063bcb6e5221161017b578063bcb6e52214610b70578063bf92857c14610b83578063c44b11f714610bc3578063c4d66de814610c04578063cea9d26f14610c17575f80fd5b8063ab9c4b5d14610a79578063b0771dba14610a8c578063b1a99e2614610abe578063b286f46714610ad1575f80fd5b806394b576de116101f157806394b576de14610a1a57806398c7da4e14610a2d5780639cd1999614610a40578063a415bcad14610a53578063ab2b51f614610a66575f80fd5b80638e19899e146109ac578063903a2c71146109bf578063911a3413146109ed57806392380ecb14610a07575f80fd5b8063527517971161032357806369a933a5116102ad57806372218d041161027d57806372218d04146107985780637b75d7f4146107ab5780638381995f146107be578063870e77441461097f5780638bd2567714610999575f80fd5b806369a933a5146107125780636a99c036146107255780636c6f6ae11461073d5780636fb07f961461075d575f80fd5b80635c9a8b18116102f35780635c9a8b1814610677578063617ba037146106c657806363c9b860146106d9578063680dd47c146106ec57806369328dec146106ff575f80fd5b80635275179714610612578063563dd6131461063e578063573ade81146106515780635a3b74b914610664575f80fd5b80632be29fa7116103a457806335ea6a751161037457806335ea6a7514610569578063386497fd1461058957806342b0b77c1461059c5780634417a583146105af5780634d013f03146105ff575f80fd5b80632be29fa71461050f5780632dad97d4146105295780633036b4391461053c578063348fde0f1461054f575f80fd5b8063074b2e43116103ea578063074b2e431461049c5780631d2118f9146104c15780632083e183146104d4578063272d9072146104f457806328530a47146104fc575f80fd5b8062a718a91461041a5780630148170e1461042f57806302c205f01461044a5780630542975c1461045d575b5f80fd5b61042d61042836600461448e565b610d98565b005b610437600581565b6040519081526020015b60405180910390f35b61042d610458366004614513565b610fa3565b6104847f000000000000000000000000000000000000000000000000000000000000000081565b6040516001600160a01b039091168152602001610441565b603a546001600160801b03165b6040516001600160801b039091168152602001610441565b61042d6104cf36600461458d565b6110b4565b6104e76104e23660046145c4565b6111d7565b6040516104419190614620565b603954610437565b61042d61050a3660046145c4565b61127d565b73__$83e702f37eeb79ca6ea8c03d9bc14d29cb$__610484565b610437610537366004614632565b611413565b61042d61054a366004614664565b611513565b73__$1aecd72e546835de8d2664e100f70770e0$__610484565b61057c61057736600461467b565b611520565b6040516104419190614696565b61043761059736600461467b565b61170b565b61042d6105aa366004614813565b611731565b6105f06105bd36600461467b565b60408051602080820183525f918290526001600160a01b0393909316815260358352819020815192830190915254815290565b60405190518152602001610441565b61042d61060d366004614664565b61184f565b610484610620366004614890565b61ffff165f908152603660205260409020546001600160a01b031690565b61043761064c366004614664565b61186f565b61043761065f3660046148a9565b611899565b61042d6106723660046148f0565b611997565b6106b061068536600461467b565b6001600160a01b03165f90815260346020526040902060030154600160b81b900464ffffffffff1690565b60405164ffffffffff9091168152602001610441565b61042d6106d436600461491c565b611b17565b61042d6106e736600461467b565b611bc3565b61042d6106fa36600461496a565b611c19565b61043761070d366004614993565b611c43565b61042d61072036600461491c565b611df6565b603a54600160801b90046001600160801b03166104a9565b61075061074b3660046145c4565b611e7c565b60405161044191906149d2565b6104a961076b36600461467b565b6001600160a01b03165f90815260346020526040902060090154600160801b90046001600160801b031690565b603b54600160401b900461ffff16610437565b61042d6107b9366004614a94565b611ff8565b6109726107cc36600461467b565b60408051610240810182525f6102208201818152825260208201819052918101829052606081018290526080810182905260a0810182905260c0810182905260e08101829052610100810182905261012081018290526101408101829052610160810182905261018081018290526101a081018290526101c081018290526101e08101829052610200810191909152506001600160a01b039081165f9081526034602090815260409182902082516102408101845281546102208201908152815260018201546001600160801b0380821694830194909452600160801b908190048416948201949094526002820154808416606083015284900483166080820152600382015480841660a083015264ffffffffff858204811660c084015261ffff600160a81b83041660e0840152600160b81b90910416610100820152600482015485166101208201526005820154851661014082015260068201548516610160820152600782015490941661018085015260088101548083166101a086015283900482166101c0850152600901548082166101e0850152919091041661020082015290565b6040516104419190614b93565b73__$91b47d451814c731a99462488968bab857$__610484565b61042d6109a7366004614ced565b6120aa565b6104376109ba366004614664565b612238565b6104a96109cd3660046145c4565b60ff165f908152603760205260409020600201546001600160801b031690565b73__$6d137c64be18f5cad883104c2a9fa60a79$__610484565b61042d610a15366004614d51565b61225d565b610437610a2836600461496a565b6122e8565b61042d610a3b36600461467b565b612320565b61042d610a4e366004614dc3565b612358565b61042d610a61366004614e02565b612394565b61042d610a7436600461467b565b6125c0565b61042d610a87366004614e4d565b6125f5565b6104a9610a9a3660046145c4565b60ff165f90815260376020526040902054600160301b90046001600160801b031690565b61042d610acc366004614f3c565b6128ef565b610b43610adf3660046145c4565b604080516060810182525f8082526020820181905291810191909152506040805160608101825260ff9092165f818152603760208181528483205461ffff808216885262010000820481168389015294909352526401000000009004169082015290565b60408051825161ffff90811682526020808501518216908301529282015190921690820152606001610441565b61042d610b7e366004614f71565b6129ec565b610b96610b9136600461467b565b612a0d565b604080519687526020870195909552938501929092526060840152608083015260a082015260c001610441565b6105f0610bd136600461467b565b60408051602080820183525f918290526001600160a01b0393909316815260348352819020815192830190915254815290565b61042d610c1236600461467b565b612be6565b61042d610c25366004614f8b565b612d09565b610437610c3836600461467b565b612d8c565b610c45612dac565b6040516104419190614fc9565b73__$5c81c34ced5c181849a1f58b32d6fe0e6c$__610484565b61042d610c7a366004615015565b612eab565b61042d610c8d366004614664565b61308f565b610437610ca0366004614632565b6130ed565b610437610cb3366004614664565b613165565b73__$97e4eb0b6bcf9a716469ce15878e0c4184$__610484565b61042d610ce036600461467b565b613185565b610437610cf336600461467b565b6001600160a01b03165f9081526038602052604090205460ff1690565b610437610d1e366004615076565b6131d4565b73__$3e9faf92b4e65bc494281f12b43a229306$__610484565b61042d610d4b3660046150b7565b61332e565b61042d610d5e366004614664565b61343a565b60405160808152602001610441565b61042d610d803660046150f5565b61345a565b61042d610d93366004614d51565b613482565b73__$6d137c64be18f5cad883104c2a9fa60a79$__6383c1087d6034603660356037604051806101200160405280603b60089054906101000a900461ffff1661ffff1681526020018981526020018c6001600160a01b031681526020018b6001600160a01b031681526020018a6001600160a01b0316815260200188151581526020017f00000000000000000000000000000000000000000000000000000000000000006001600160a01b031663fca513a86040518163ffffffff1660e01b8152600401602060405180830381865afa158015610e77573d5f803e3d5ffd5b505050506040513d601f19601f82011682018060405250810190610e9b9190615115565b6001600160a01b0390811682528b81165f908152603860209081526040918290205460ff16818501528151635eb88d3d60e01b8152825192909401937f000000000000000000000000000000000000000000000000000000000000000090931692635eb88d3d92600480830193928290030181865afa158015610f20573d5f803e3d5ffd5b505050506040513d601f19601f82011682018060405250810190610f449190615115565b6001600160a01b03168152506040518663ffffffff1660e01b8152600401610f70959493929190615130565b5f6040518083038186803b158015610f86575f80fd5b505af4158015610f98573d5f803e3d5ffd5b505050505050505050565b60405163d505accf60e01b81526001600160a01b0389169063d505accf90610fdb90339030908c908a908a908a908a906004016151e8565b5f604051808303815f87803b158015610ff2575f80fd5b505af1925050508015611003575060015b506001600160a01b038087165f818152603560209081526040918290208251608081018452948d1685529084018b90528382019290925261ffff8816606084015251631913f16160e01b815273__$91b47d451814c731a99462488968bab857$__92631913f1619261107e9260349260369291600401615229565b5f6040518083038186803b158015611094575f80fd5b505af41580156110a6573d5f803e3d5ffd5b505050505050505050505050565b6110bc6134fa565b604080518082019091526002815261373760f01b60208201526001600160a01b0383166111055760405162461bcd60e51b81526004016110fc9190614620565b60405180910390fd5b506001600160a01b0382165f90815260346020526040902060030154600160a81b900461ffff1615158061116d57505f805260366020527f4cb2b152c1b54ce671907a93c300fd5aa72383a9d4ec19a81e3333632ae92e00546001600160a01b038381169116145b604051806040016040528060028152602001611c1960f11b815250906111a65760405162461bcd60e51b81526004016110fc9190614620565b506001600160a01b039182165f90815260346020526040902060070180546001600160a01b03191691909216179055565b60ff81165f9081526037602052604090206001018054606091906111fa9061527a565b80601f01602080910402602001604051908101604052809291908181526020018280546112269061527a565b80156112715780601f1061124857610100808354040283529160200191611271565b820191905f5260205f20905b81548152906001019060200180831161125457829003601f168201915b50505050509050919050565b73__$3e9faf92b4e65bc494281f12b43a229306$__635d5dc313603460366037603860355f336001600160a01b03166001600160a01b031681526020019081526020015f206040518060600160405280603b60089054906101000a900461ffff1661ffff1681526020017f00000000000000000000000000000000000000000000000000000000000000006001600160a01b031663fca513a86040518163ffffffff1660e01b8152600401602060405180830381865afa158015611343573d5f803e3d5ffd5b505050506040513d601f19601f820116820180604052508101906113679190615115565b6001600160a01b031681526020018960ff168152506040518763ffffffff1660e01b81526004016113e49695949392919095865260208087019590955260408087019490945260608601929092526080850152805160a0850152918201516001600160a01b031660c0840152015160ff1660e08201526101000190565b5f6040518083038186803b1580156113fa575f80fd5b505af415801561140c573d5f803e3d5ffd5b5050505050565b5f73__$83e702f37eeb79ca6ea8c03d9bc14d29cb$__6340e95de66034603660355f336001600160a01b03166001600160a01b031681526020019081526020015f206040518060a001604052808a6001600160a01b03168152602001898152602001886002811115611487576114876152ac565b6002811115611498576114986152ac565b81523360208201526001604091820152516001600160e01b031960e087901b1681526114ca94939291906004016152e0565b602060405180830381865af41580156114e5573d5f803e3d5ffd5b505050506040513d601f19601f820116820180604052508101906115099190615346565b90505b9392505050565b61151b6134fa565b603955565b61152861436a565b6001600160a01b038083165f9081526034602090815260409182902082516102408101845281546102208201908152815260018201546001600160801b0380821694830194909452600160801b908190048416948201949094526002820154808416606083015284900483166080820152600382015480841660a083015264ffffffffff858204811660c084015261ffff600160a81b83041660e0840152600160b81b90910416610100820152600482015485166101208201526005820154851661014082015260068201548516610160820152600782015490941661018085015260088101548083166101a086015283900482166101c0850152600901548082166101e0850152919091041661020082015261164361436a565b815181526020808301516001600160801b039081169183019190915260408084015182169083015260608084015182169083015260808084015182169083015260c08084015164ffffffffff169083015260e08084015161ffff16908301526101208301516001600160a01b0390811661010084015261016080850151821661014085015261018080860151909216908401526101a0808501518316918401919091526101c0808501518316918401919091526101e090930151169181019190915292915050565b6001600160a01b0381165f90815260346020526040812061172b906135ca565b92915050565b5f6040518060e00160405280886001600160a01b03168152602001876001600160a01b0316815260200186815260200185858080601f0160208091040260200160405190810160405280939291908181526020018383808284375f92018290525093855250505061ffff8516602080840191909152603a546001600160801b03600160801b8204811660408087019190915291166060909401939093526001600160a01b038a16825260349052819020905163a1fe0e8d60e01b815291925073__$1aecd72e546835de8d2664e100f70770e0$__9163a1fe0e8d9161181a91859060040161535d565b5f6040518083038186803b158015611830575f80fd5b505af4158015611842573d5f803e3d5ffd5b5050505050505050505050565b5f8061185c60368461362c565b9150915061186a8282611997565b505050565b5f805f8061187e603686613658565b92509250925061189083838333611899565b95945050505050565b5f73__$83e702f37eeb79ca6ea8c03d9bc14d29cb$__6340e95de66034603660355f876001600160a01b03166001600160a01b031681526020019081526020015f206040518060a001604052808b6001600160a01b031681526020018a815260200189600281111561190d5761190d6152ac565b600281111561191e5761191e6152ac565b81526001600160a01b03891660208201525f604091820152516001600160e01b031960e087901b16815261195894939291906004016152e0565b602060405180830381865af4158015611973573d5f803e3d5ffd5b505050506040513d601f19601f820116820180604052508101906118909190615346565b73__$91b47d451814c731a99462488968bab857$__63bf697a2660346036603760355f336001600160a01b03166001600160a01b031681526020019081526020015f208787603b60089054906101000a900461ffff167f00000000000000000000000000000000000000000000000000000000000000006001600160a01b031663fca513a86040518163ffffffff1660e01b8152600401602060405180830381865afa158015611a49573d5f803e3d5ffd5b505050506040513d601f19601f82011682018060405250810190611a6d9190615115565b335f908152603860205260409081902054905160e08b901b6001600160e01b031916815260048101999099526024890197909752604488019590955260648701939093526001600160a01b039182166084870152151560a486015261ffff90911660c48501521660e483015260ff16610104820152610124015b5f6040518083038186803b158015611afd575f80fd5b505af4158015611b0f573d5f803e3d5ffd5b505050505050565b6001600160a01b038083165f81815260356020908152604091829020825160808101845294891685529084018790528382019290925261ffff8416606084015251631913f16160e01b815273__$91b47d451814c731a99462488968bab857$__92631913f16192611b919260349260369291600401615229565b5f6040518083038186803b158015611ba7575f80fd5b505af4158015611bb9573d5f803e3d5ffd5b5050505050505050565b611bcb6134fa565b604051639cf5702360e01b815260346004820152603660248201526001600160a01b038216604482015273__$5c81c34ced5c181849a1f58b32d6fe0e6c$__90639cf57023906064016113e4565b5f805f805f611c296036896136b4565b94509450945094509450611bb98585338686868d8d610fa3565b5f73__$91b47d451814c731a99462488968bab857$__63186dea4460346036603760355f336001600160a01b03166001600160a01b031681526020019081526020015f206040518060c001604052808b6001600160a01b031681526020018a8152602001896001600160a01b03168152602001603b60089054906101000a900461ffff1661ffff1681526020017f00000000000000000000000000000000000000000000000000000000000000006001600160a01b031663fca513a86040518163ffffffff1660e01b8152600401602060405180830381865afa158015611d2c573d5f803e3d5ffd5b505050506040513d601f19601f82011682018060405250810190611d509190615115565b6001600160a01b039081168252335f908152603860209081526040918290205460ff90811694820194909452815160e08b901b6001600160e01b031916815260048101999099526024890197909752604488019590955260648701939093528151831660848701529381015160a486015291820151811660c4850152606082015160e485015260808201511661010484015260a0015116610124820152610144016114ca565b611dfe6136f1565b6001600160a01b038281165f81815260356020526040908190209051630413c86f60e01b81526034600482015260366024820152604481019190915291861660648301526084820185905260a482015261ffff821660c482015273__$97e4eb0b6bcf9a716469ce15878e0c4184$__90630413c86f9060e401611b91565b6040805160a0810182525f80825260208201819052918101829052606080820192909252608081019190915260ff82165f908152603760209081526040808320815160c081018352815461ffff8082168352620100008204811695830195909552640100000000810490941692810192909252600160301b9092046001600160801b03166060820152600182018054919291608084019190611f1d9061527a565b80601f0160208091040260200160405190810160405280929190818152602001828054611f499061527a565b8015611f945780601f10611f6b57610100808354040283529160200191611f94565b820191905f5260205f20905b815481529060010190602001808311611f7757829003601f168201915b5050509183525050600291909101546001600160801b03166020918201526040805160a081018252835161ffff90811682528484015181169382019390935281840151909216908201525f6060820152608091820151918101919091529392505050565b6120006134fa565b604080518082019091526002815261189b60f11b602082015260ff831661203a5760405162461bcd60e51b81526004016110fc9190614620565b50805160ff83165f908152603760209081526040918290208054918501519285015161ffff9081166401000000000265ffff0000000019948216620100000263ffffffff1990941691909516179190911791909116919091178155606082015160019091019061186a908261541e565b6120b26134fa565b73__$5c81c34ced5c181849a1f58b32d6fe0e6c$__6369fc1bdf603460366040518060c00160405280896001600160a01b03168152602001886001600160a01b03168152602001876001600160a01b03168152602001866001600160a01b03168152602001603b60089054906101000a900461ffff1661ffff168152602001612139608090565b61ffff908116909152604080516001600160e01b031960e088901b1681526004810195909552602485019390935281516001600160a01b0390811660448601526020830151811660648601529282015183166084850152606082015190921660a48401526080810151821660c484015260a001511660e482015261010401602060405180830381865af41580156121d2573d5f803e3d5ffd5b505050506040513d601f19601f820116820180604052508101906121f691906154da565b1561223257603b8054600160401b900461ffff1690600861221683615509565b91906101000a81548161ffff021916908361ffff160217905550505b50505050565b5f805f612246603685613811565b91509150612255828233611c43565b949350505050565b6122656134fa565b604080518082019091526002815261189b60f11b602082015260ff831661229f5760405162461bcd60e51b81526004016110fc9190614620565b5060ff9091165f90815260376020526040902080546001600160801b03909216600160301b0275ffffffffffffffffffffffffffffffff00000000000019909216919091179055565b5f805f805f806122f960368a613860565b945094509450945094506123138585853386868e8e6131d4565b9998505050505050505050565b6123286134fa565b6001600160a01b0381165f908152603460205260408120906123498261389b565b905061186a8282855f806139be565b604051631230b2a360e21b815273__$5c81c34ced5c181849a1f58b32d6fe0e6c$__906348c2ca8c90611ae79060349086908690600401615529565b73__$83e702f37eeb79ca6ea8c03d9bc14d29cb$__631e6473f960346036603760355f876001600160a01b03166001600160a01b031681526020019081526020015f206040518061016001604052808c6001600160a01b03168152602001336001600160a01b03168152602001886001600160a01b031681526020018b81526020018a6002811115612428576124286152ac565b6002811115612439576124396152ac565b81526020018961ffff168152602001600115158152602001603b60089054906101000a900461ffff1661ffff1681526020017f00000000000000000000000000000000000000000000000000000000000000006001600160a01b031663fca513a86040518163ffffffff1660e01b8152600401602060405180830381865afa1580156124c7573d5f803e3d5ffd5b505050506040513d601f19601f820116820180604052508101906124eb9190615115565b6001600160a01b0390811682528981165f908152603860209081526040918290205460ff16818501528151635eb88d3d60e01b8152825192909401937f000000000000000000000000000000000000000000000000000000000000000090931692635eb88d3d92600480830193928290030181865afa158015612570573d5f803e3d5ffd5b505050506040513d601f19601f820116820180604052508101906125949190615115565b6001600160a01b03168152506040518663ffffffff1660e01b8152600401610f70959493929190615580565b6125c86134fa565b6001600160a01b0381165f908152603460205260408120906125e98261389b565b905061186a8282613cbb565b5f604051806101c001604052808d6001600160a01b031681526020018c8c808060200260200160405190810160405280939291908181526020018383602002808284375f920191909152505050908252506040805160208c810282810182019093528c82529283019290918d918d9182918501908490808284375f920191909152505050908252506040805160208a810282810182019093528a82529283019290918b918b9182918501908490808284375f920191909152505050908252506001600160a01b03871660208083019190915260408051601f880183900483028101830182528781529201919087908790819084018382808284375f92018290525093855250505061ffff808616602080850191909152603a546001600160801b03600160801b8204811660408088019190915291166060860152603b54600160401b900490921660808501526001600160a01b037f0000000000000000000000000000000000000000000000000000000000000000811660a086018190523060c0870152908b16845260388252928290205460ff1660e0850152815163383e6b8b60e11b815291516101009094019363707cd7169260048082019392918290030181865afa1580156127c9573d5f803e3d5ffd5b505050506040513d601f19601f820116820180604052508101906127ed9190615115565b60405163fa50f29760e01b81523360048201526001600160a01b03919091169063fa50f29790602401602060405180830381865afa158015612831573d5f803e3d5ffd5b505050506040513d601f19601f8201168201806040525081019061285591906154da565b151590526001600160a01b0386165f9081526035602052604090819020905163173931f560e11b815291925073__$1aecd72e546835de8d2664e100f70770e0$__91632e7263ea916128b5916034916036916037919088906004016156d6565b5f6040518083038186803b1580156128cb575f80fd5b505af41580156128dd573d5f803e3d5ffd5b50505050505050505050505050505050565b6128f76134fa565b6001600160a01b0382165f90815260346020526040902060030154600160a81b900461ffff1615158061295e57505f805260366020527f4cb2b152c1b54ce671907a93c300fd5aa72383a9d4ec19a81e3333632ae92e00546001600160a01b038381169116145b604051806040016040528060028152602001611c1960f11b815250906129975760405162461bcd60e51b81526004016110fc9190614620565b50604051636ae4381360e01b8152603460048201526001600160a01b038316602482015264ffffffffff8216604482015273__$5c81c34ced5c181849a1f58b32d6fe0e6c$__90636ae4381390606401611ae7565b6129f46134fa565b6001600160801b03908116600160801b02911617603a55565b604080516001600160a01b038381165f8181526035602090815285822060c0860187525460a086019081528552603b54600160401b900461ffff1681860152848601929092528451631f94a27560e31b8152945190948594859485948594859473__$5c81c34ced5c181849a1f58b32d6fe0e6c$__946326ec273f9460349460369460379460608501937f0000000000000000000000000000000000000000000000000000000000000000169263fca513a8926004808401938290030181865afa158015612add573d5f803e3d5ffd5b505050506040513d601f19601f82011682018060405250810190612b019190615115565b6001600160a01b0390811682528e81165f908152603860209081526040918290205460ff90811694820194909452815160e08a901b6001600160e01b0319168152600481019890985260248801969096526044870194909452825151606487015293820151608486015291810151831660a4850152606081015190921660c48401526080909101511660e48201526101040160c060405180830381865af4158015612bae573d5f803e3d5ffd5b505050506040513d601f19601f82011682018060405250810190612bd2919061583f565b949c939b5091995097509550909350915050565b60015460059060ff1680612bf95750303b155b80612c0457505f5481115b612c675760405162461bcd60e51b815260206004820152602e60248201527f436f6e747261637420696e7374616e63652068617320616c726561647920626560448201526d195b881a5b9a5d1a585b1a5e995960921b60648201526084016110fc565b60015460ff16158015612c85576001805460ff1916811790555f8290555b7f00000000000000000000000000000000000000000000000000000000000000006001600160a01b0316836001600160a01b03161460405180604001604052806002815260200161189960f11b81525090612cf35760405162461bcd60e51b81526004016110fc9190614620565b50801561186a576001805460ff19169055505050565b612d11613d13565b6040516343d9915960e11b81526001600160a01b038085166004830152831660248201526044810182905273__$5c81c34ced5c181849a1f58b32d6fe0e6c$__906387b322b2906064015f6040518083038186803b158015612d71575f80fd5b505af4158015612d83573d5f803e3d5ffd5b50505050505050565b6001600160a01b0381165f90815260346020526040812061172b90613e33565b603b54606090600160401b900461ffff165f808267ffffffffffffffff811115612dd857612dd8614a26565b604051908082528060200260200182016040528015612e01578160200160208202803683370190505b5090505f5b83811015612ea1575f818152603660205260409020546001600160a01b031615612e81575f818152603660205260409020546001600160a01b031682612e4c8584615885565b81518110612e5c57612e5c615898565b60200260200101906001600160a01b031690816001600160a01b031681525050612e8f565b82612e8b816158ac565b9350505b80612e99816158ac565b915050612e06565b5091038152919050565b6001600160a01b038681165f908152603460209081526040918290206004015482518084019093526002835261313160f01b918301919091529091163314612f065760405162461bcd60e51b81526004016110fc9190614620565b5073__$91b47d451814c731a99462488968bab857$__638a5dadd160346036603760356040518061012001604052808d6001600160a01b031681526020018c6001600160a01b031681526020018b6001600160a01b031681526020018a8152602001898152602001888152602001603b60089054906101000a900461ffff1661ffff1681526020017f00000000000000000000000000000000000000000000000000000000000000006001600160a01b031663fca513a86040518163ffffffff1660e01b8152600401602060405180830381865afa158015612fea573d5f803e3d5ffd5b505050506040513d601f19601f8201168201806040525081019061300e9190615115565b6001600160a01b0390811682528d165f908152603860209081526040918290205460ff16920191909152516001600160e01b031960e088901b16815261305b9594939291906004016158c4565b5f6040518083038186803b158015613071575f80fd5b505af4158015613083573d5f803e3d5ffd5b50505050505050505050565b5f805f806130d860368661ffff8181165f9081526020939093526040909220546001600160a01b0316926001600160801b03601083901c169260ff609084901c169260981c1690565b935093509350935061140c8484848433612394565b5f6130f66136f1565b6001600160a01b0384165f818152603460205260409081902060395491516311ce864960e31b8152600481019190915260248101929092526044820185905260648201849052608482015273__$97e4eb0b6bcf9a716469ce15878e0c4184$__90638e7432489060a4016114ca565b5f805f80613174603686613658565b925092509250611890838383611413565b61318d6134fa565b604051631e3b414560e01b8152603460048201526001600160a01b038216602482015273__$5c81c34ced5c181849a1f58b32d6fe0e6c$__90631e3b4145906044016113e4565b60405163d505accf60e01b81525f906001600160a01b038a169063d505accf9061320e90339030908d908b908b908b908b906004016151e8565b5f604051808303815f87803b158015613225575f80fd5b505af1925050508015613236575060015b505f6040518060a001604052808b6001600160a01b031681526020018a815260200189600281111561326a5761326a6152ac565b600281111561327b5761327b6152ac565b81526001600160a01b03891660208083018290525f6040938401819052918252603590528190209051632074aef360e11b815291925073__$83e702f37eeb79ca6ea8c03d9bc14d29cb$__916340e95de6916132e19160349160369187906004016152e0565b602060405180830381865af41580156132fc573d5f803e3d5ffd5b505050506040513d601f19601f820116820180604052508101906133209190615346565b9a9950505050505050505050565b6133366134fa565b604080518082019091526002815261373760f01b60208201526001600160a01b0383166133765760405162461bcd60e51b81526004016110fc9190614620565b506001600160a01b0382165f90815260346020526040902060030154600160a81b900461ffff161515806133de57505f805260366020527f4cb2b152c1b54ce671907a93c300fd5aa72383a9d4ec19a81e3333632ae92e00546001600160a01b038381169116145b604051806040016040528060028152602001611c1960f11b815250906134175760405162461bcd60e51b81526004016110fc9190614620565b506001600160a01b0382165f908152603460205260409020813581558190612232565b5f805f613448603685613e89565b92509250925061223283833384611b17565b5f805f805f61346b60368888613ec3565b94509450945094509450612d838585858585610d98565b61348a6134fa565b604080518082019091526002815261189b60f11b602082015260ff83166134c45760405162461bcd60e51b81526004016110fc9190614620565b5060ff919091165f90815260376020526040902060020180546001600160801b0319166001600160801b03909216919091179055565b336001600160a01b03167f00000000000000000000000000000000000000000000000000000000000000006001600160a01b031663631adfca6040518163ffffffff1660e01b8152600401602060405180830381865afa158015613560573d5f803e3d5ffd5b505050506040513d601f19601f820116820180604052508101906135849190615115565b6001600160a01b03161460405180604001604052806002815260200161031360f41b815250906135c75760405162461bcd60e51b81526004016110fc9190614620565b50565b60038101545f90600160801b900464ffffffffff164281036135f8575050600201546001600160801b031690565b600283015461150c906001600160801b038082169161362091600160801b9091041684613f48565b90613f54565b50919050565b61ffff81165f908152602083905260409020546001600160a01b0316601082901c6001165b9250929050565b5f808061ffff8416601085901c6001600160801b0316609086901c60ff166002600160801b0319820161368a575f1991505b61ffff9092165f908152602088905260409020546001600160a01b03169450925090509250925092565b5f8080808060a086901c63ffffffff1660c087901c60ff168280806136d98c8c613e89565b919e909d50909b509499509297509295505050505050565b7f00000000000000000000000000000000000000000000000000000000000000006001600160a01b031663707cd7166040518163ffffffff1660e01b8152600401602060405180830381865afa15801561374d573d5f803e3d5ffd5b505050506040513d601f19601f820116820180604052508101906137719190615115565b604051633933006760e11b81523360048201526001600160a01b03919091169063726600ce90602401602060405180830381865afa1580156137b5573d5f803e3d5ffd5b505050506040513d601f19601f820116820180604052508101906137d991906154da565b604051806040016040528060018152602001601b60f91b815250906135c75760405162461bcd60e51b81526004016110fc9190614620565b5f8061ffff8316601084901c6001600160801b03166002600160801b0319810161383957505f195b61ffff919091165f9081526020959095526040909420546001600160a01b03169492505050565b5f805f805f805f805f806138748c8c613658565b919e909d50909b609881901c63ffffffff169b5060b81c60ff169950975050505050505050565b6138a36143ec565b6138ab6143ec565b6040805160208101825284548152610120830181905251901c61ffff1661010082015260018301546001600160801b0380821660608401819052604080850191909152600286015480831660a086018190526080860152600160801b93849004831660c086015283900490911660e08401526004808601546001600160a01b03908116610140860152600687015416610160850181905260038701549390930464ffffffffff16610180850152815163b1bf962d60e01b8152915163b1bf962d9280830192602092918290030181865afa15801561398b573d5f803e3d5ffd5b505050506040513d601f19601f820116820180604052508101906139af9190615346565b60208201819052815292915050565b5f6139da8560a001518660200151613f5490919063ffffffff16565b600787015460408051610100808201835260088b0154600160801b90046001600160801b03168252602080830189905282840188905260608301869052908a015160808301526001600160a01b0389811660a084015283519182019093528a54908190529394505f938493929092169163b90db31b919060c0820190600160fc1b1615151515815260098c0154600160801b90046001600160801b03166020918201526040805160e085811b6001600160e01b031916825284516004830152928401516024820152908301516044820152606083015160648201526080830151608482015260a08301516001600160a01b031660a482015260c0830151151560c482015291015160e4820152610104016040805180830381865afa158015613b04573d5f803e3d5ffd5b505050506040513d601f19601f82011682018060405250810190613b28919061596b565b91509150613b3582613f96565b6001890180546001600160801b03928316600160801b029216919091179055613b5d81613f96565b6002890180546001600160801b03928316600160801b029216919091179055604080516020810190915288548152613b9b9051600160fc1b16151590565b15613c50578415613bf857613baf85613f96565b600989018054601090613bd3908490600160801b90046001600160801b031661598d565b92506101000a8154816001600160801b0302191690836001600160801b031602179055505b8315613c5057613c0784613f96565b600989018054601090613c2b908490600160801b90046001600160801b03166159b4565b92506101000a8154816001600160801b0302191690836001600160801b031602179055505b60608781015160a0808a0151604080518781525f602082015280820187905294850193909352608084015290516001600160a01b038916927f804c9b842b2748a22bb64b345453a3de7ca54a6ca45ce00d415894979e22897a92908290030190a25050505050505050565b600382015464ffffffffff428116600160801b9092041603613cdb575050565b613ce58282614002565b613cef82826140d9565b50600301805464ffffffffff60801b1916600160801b4264ffffffffff1602179055565b7f00000000000000000000000000000000000000000000000000000000000000006001600160a01b031663707cd7166040518163ffffffff1660e01b8152600401602060405180830381865afa158015613d6f573d5f803e3d5ffd5b505050506040513d601f19601f82011682018060405250810190613d939190615115565b604051637be53ca160e01b81523360048201526001600160a01b039190911690637be53ca190602401602060405180830381865afa158015613dd7573d5f803e3d5ffd5b505050506040513d601f19601f82011682018060405250810190613dfb91906154da565b604051806040016040528060018152602001603160f81b815250906135c75760405162461bcd60e51b81526004016110fc9190614620565b60038101545f90600160801b900464ffffffffff16428103613e61575050600101546001600160801b031690565b600183015461150c906001600160801b038082169161362091600160801b90910416846141a8565b61ffff8181165f908152602084905260409020546001600160a01b031690601083901c6001600160801b031690609084901c169250925092565b5f8080808061ffff87811690601089901c16602089901c6001600160a01b03166001600160801b03891660808a901c6001166002600160801b03198201613f09575f1991505b61ffff9485165f90815260209d909d526040808e2054949095168d5293909b20546001600160a01b039283169c92169a90995097509095509350505050565b5f61150c8383426141e4565b5f81156b019d971e4fe8401e740000001983900484111517613f74575f80fd5b506b033b2e3c9fd0803ce800000091026b019d971e4fe8401e74000000010490565b5f6001600160801b03821115613ffe5760405162461bcd60e51b815260206004820152602760248201527f53616665436173743a2076616c756520646f65736e27742066697420696e20316044820152663238206269747360c81b60648201526084016110fc565b5090565b60c08101511561406d575f6140208260c001518361018001516141a8565b9050614039826040015182613f5490919063ffffffff16565b6060830181905261404990613f96565b6001840180546001600160801b0319166001600160801b0392909216919091179055505b8051156140d5575f6140888260e00151836101800151613f48565b90506140a1826080015182613f5490919063ffffffff16565b60a083018190526140b190613f96565b6002840180546001600160801b0319166001600160801b0392909216919091179055505b5050565b8061010001515f036140e9575050565b608081015181515f916140fc9190613f54565b60a083015183519192505f9161411191613f54565b90505f61411e8383615885565b90505f6141398561010001518361430990919063ffffffff16565b90508015611b0f5761416061415b86606001518361432d90919063ffffffff16565b613f96565b6008870180545f9061417c9084906001600160801b031661598d565b92506101000a8154816001600160801b0302191690836001600160801b03160217905550505050505050565b5f806141bb64ffffffffff841642615885565b6141c590856159d4565b6301e1338090049050612255816b033b2e3c9fd0803ce80000006159ff565b5f806141f764ffffffffff851684615885565b9050805f03614215576b033b2e3c9fd0803ce800000091505061150c565b5f1981015f80806002851161422a575f61422f565b600285035b925066038882915c40006142438a80613f54565b81614250576142506159eb565b0491506301e13380614262838b613f54565b8161426f5761426f6159eb565b0490505f8261427e86886159d4565b61428891906159d4565b6002900490505f828561429b888a6159d4565b6142a591906159d4565b6142af91906159d4565b60069004905080826301e133806142c68a8f6159d4565b6142d09190615a12565b6142e6906b033b2e3c9fd0803ce80000006159ff565b6142f091906159ff565b6142fa91906159ff565b9b9a5050505050505050505050565b5f8115611388198390048411151761431f575f80fd5b506127109102611388010490565b5f81156b033b2e3c9fd0803ce80000006002840419048411171561434f575f80fd5b506b033b2e3c9fd0803ce80000009190910260028204010490565b60408051610200810182525f6101e08201818152825260208201819052918101829052606081018290526080810182905260a0810182905260c0810182905260e08101829052610100810182905261012081018290526101408101829052610160810182905261018081018290526101a081018290526101c081019190915290565b604051806101a001604052805f81526020015f81526020015f81526020015f81526020015f81526020015f81526020015f81526020015f81526020015f815260200161444360405180602001604052805f81525090565b81525f602082018190526040820181905260609091015290565b6001600160a01b03811681146135c7575f80fd5b803561447c8161445d565b919050565b80151581146135c7575f80fd5b5f805f805f60a086880312156144a2575f80fd5b85356144ad8161445d565b945060208601356144bd8161445d565b935060408601356144cd8161445d565b92506060860135915060808601356144e481614481565b809150509295509295909350565b803561ffff8116811461447c575f80fd5b803560ff8116811461447c575f80fd5b5f805f805f805f80610100898b03121561452b575f80fd5b88356145368161445d565b975060208901359650604089013561454d8161445d565b955061455b60608a016144f2565b94506080890135935061457060a08a01614503565b925060c0890135915060e089013590509295985092959890939650565b5f806040838503121561459e575f80fd5b82356145a98161445d565b915060208301356145b98161445d565b809150509250929050565b5f602082840312156145d4575f80fd5b61150c82614503565b5f81518084525f5b81811015614601576020818501810151868301820152016145e5565b505f602082860101526020601f19601f83011685010191505092915050565b602081525f61150c60208301846145dd565b5f805f60608486031215614644575f80fd5b833561464f8161445d565b95602085013595506040909401359392505050565b5f60208284031215614674575f80fd5b5035919050565b5f6020828403121561468b575f80fd5b813561150c8161445d565b81515181526101e0810160208301516146ba60208401826001600160801b03169052565b5060408301516146d560408401826001600160801b03169052565b5060608301516146f060608401826001600160801b03169052565b50608083015161470b60808401826001600160801b03169052565b5060a083015161472660a08401826001600160801b03169052565b5060c083015161473f60c084018264ffffffffff169052565b5060e083015161475560e084018261ffff169052565b50610100838101516001600160a01b039081169184019190915261012080850151821690840152610140808501518216908401526101608085015190911690830152610180808401516001600160801b03908116918401919091526101a0808501518216908401526101c08085015191821681850152905b505092915050565b5f8083601f8401126147e5575f80fd5b50813567ffffffffffffffff8111156147fc575f80fd5b602083019150836020828501011115613651575f80fd5b5f805f805f8060a08789031215614828575f80fd5b86356148338161445d565b955060208701356148438161445d565b945060408701359350606087013567ffffffffffffffff811115614865575f80fd5b61487189828a016147d5565b90945092506148849050608088016144f2565b90509295509295509295565b5f602082840312156148a0575f80fd5b61150c826144f2565b5f805f80608085870312156148bc575f80fd5b84356148c78161445d565b9350602085013592506040850135915060608501356148e58161445d565b939692955090935050565b5f8060408385031215614901575f80fd5b823561490c8161445d565b915060208301356145b981614481565b5f805f806080858703121561492f575f80fd5b843561493a8161445d565b93506020850135925060408501356149518161445d565b915061495f606086016144f2565b905092959194509250565b5f805f6060848603121561497c575f80fd5b505081359360208301359350604090920135919050565b5f805f606084860312156149a5575f80fd5b83356149b08161445d565b92506020840135915060408401356149c78161445d565b809150509250925092565b602081525f61ffff8084511660208401528060208501511660408401528060408501511660608401525060018060a01b036060840151166080830152608083015160a08084015261225560c08401826145dd565b634e487b7160e01b5f52604160045260245ffd5b6040516080810167ffffffffffffffff81118282101715614a5d57614a5d614a26565b60405290565b604051601f8201601f1916810167ffffffffffffffff81118282101715614a8c57614a8c614a26565b604052919050565b5f8060408385031215614aa5575f80fd5b614aae83614503565b915060208084013567ffffffffffffffff80821115614acb575f80fd5b9085019060808288031215614ade575f80fd5b614ae6614a3a565b614aef836144f2565b8152614afc8484016144f2565b84820152614b0c604084016144f2565b6040820152606083013582811115614b22575f80fd5b80840193505087601f840112614b36575f80fd5b823582811115614b4857614b48614a26565b614b5a601f8201601f19168601614a63565b92508083528885828601011115614b6f575f80fd5b80858501868501375f85828501015250816060820152809450505050509250929050565b815151815261022081016020830151614bb760208401826001600160801b03169052565b506040830151614bd260408401826001600160801b03169052565b506060830151614bed60608401826001600160801b03169052565b506080830151614c0860808401826001600160801b03169052565b5060a0830151614c2360a08401826001600160801b03169052565b5060c0830151614c3c60c084018264ffffffffff169052565b5060e0830151614c5260e084018261ffff169052565b506101008381015164ffffffffff1690830152610120808401516001600160a01b0390811691840191909152610140808501518216908401526101608085015182169084015261018080850151909116908301526101a0808401516001600160801b03908116918401919091526101c0808501518216908401526101e0808501518216908401526102008085015191821681850152906147cd565b5f805f8060808587031215614d00575f80fd5b8435614d0b8161445d565b93506020850135614d1b8161445d565b92506040850135614d2b8161445d565b915060608501356148e58161445d565b80356001600160801b038116811461447c575f80fd5b5f8060408385031215614d62575f80fd5b614d6b83614503565b9150614d7960208401614d3b565b90509250929050565b5f8083601f840112614d92575f80fd5b50813567ffffffffffffffff811115614da9575f80fd5b6020830191508360208260051b8501011115613651575f80fd5b5f8060208385031215614dd4575f80fd5b823567ffffffffffffffff811115614dea575f80fd5b614df685828601614d82565b90969095509350505050565b5f805f805f60a08688031215614e16575f80fd5b8535614e218161445d565b94506020860135935060408601359250614e3d606087016144f2565b915060808601356144e48161445d565b5f805f805f805f805f805f60e08c8e031215614e67575f80fd5b614e708c614471565b9a5067ffffffffffffffff8060208e01351115614e8b575f80fd5b614e9b8e60208f01358f01614d82565b909b50995060408d0135811015614eb0575f80fd5b614ec08e60408f01358f01614d82565b909950975060608d0135811015614ed5575f80fd5b614ee58e60608f01358f01614d82565b9097509550614ef660808e01614471565b94508060a08e01351115614f08575f80fd5b50614f198d60a08e01358e016147d5565b9093509150614f2a60c08d016144f2565b90509295989b509295989b9093969950565b5f8060408385031215614f4d575f80fd5b8235614f588161445d565b9150602083013564ffffffffff811681146145b9575f80fd5b5f8060408385031215614f82575f80fd5b614d6b83614d3b565b5f805f60608486031215614f9d575f80fd5b8335614fa88161445d565b92506020840135614fb88161445d565b929592945050506040919091013590565b602080825282518282018190525f9190848201906040850190845b818110156150095783516001600160a01b031683529284019291840191600101614fe4565b50909695505050505050565b5f805f805f8060c0878903121561502a575f80fd5b86356150358161445d565b955060208701356150458161445d565b945060408701356150558161445d565b959894975094956060810135955060808101359460a0909101359350915050565b5f805f805f805f80610100898b03121561508e575f80fd5b88356150998161445d565b97506020890135965060408901359550606089013561455b8161445d565b5f8082840360408112156150c9575f80fd5b83356150d48161445d565b92506020601f19820112156150e7575f80fd5b506020830190509250929050565b5f8060408385031215615106575f80fd5b50508035926020909101359150565b5f60208284031215615125575f80fd5b815161150c8161445d565b5f6101a08201905086825285602083015284604083015283606083015282516080830152602083015160a0830152604083015160018060a01b0380821660c08501528060608601511660e08501525050608083015161010061519c818501836001600160a01b03169052565b60a0850151151561012085015260c08501516001600160a01b0390811661014086015260e086015160ff166101608601529085015190811661018085015290505b509695505050505050565b6001600160a01b0397881681529590961660208601526040850193909352606084019190915260ff16608083015260a082015260c081019190915260e00190565b93845260208085019390935260408085019290925280516001600160a01b039081166060808701919091529382015160808601529181015190911660a0840152015161ffff1660c082015260e00190565b600181811c9082168061528e57607f821691505b60208210810361362657634e487b7160e01b5f52602260045260245ffd5b634e487b7160e01b5f52602160045260245ffd5b600381106152dc57634e487b7160e01b5f52602160045260245ffd5b9052565b8481526020808201859052604080830185905283516001600160a01b0390811660608501529184015160808401528301516101008301919061532560a08501826152c0565b5060608401511660c0830152608090920151151560e0909101529392505050565b5f60208284031215615356575f80fd5b5051919050565b828152604060208201525f60018060a01b038084511660408401528060208501511660608401525060408301516080830152606083015160e060a08401526153a96101208401826145dd565b905061ffff60808501511660c084015260a084015160e084015260c0840151610100840152809150509392505050565b601f82111561186a575f81815260208120601f850160051c810160208610156153ff5750805b601f850160051c820191505b81811015611b0f5782815560010161540b565b815167ffffffffffffffff81111561543857615438614a26565b61544c81615446845461527a565b846153d9565b602080601f83116001811461547f575f84156154685750858301515b5f19600386901b1c1916600185901b178555611b0f565b5f85815260208120601f198616915b828110156154ad5788860151825594840194600190910190840161548e565b50858210156154ca57878501515f19600388901b60f8161c191681555b5050505050600190811b01905550565b5f602082840312156154ea575f80fd5b815161150c81614481565b634e487b7160e01b5f52601160045260245ffd5b5f61ffff80831681810361551f5761551f6154f5565b6001019392505050565b838152604060208083018290529082018390525f90849060608401835b868110156155745783356155598161445d565b6001600160a01b031682529282019290820190600101615546565b50979650505050505050565b85815260208101859052604081018490526060810183905281516001600160a01b031660808201526101e0810160208301516001600160a01b03811660a08401525060408301516001600160a01b03811660c084015250606083015160e083015260808301516101006155f5818501836152c0565b60a0850151915061012061560e8186018461ffff169052565b60c086015192506101406156258187018515159052565b60e0870151610160870152918601516001600160a01b039081166101808701529086015160ff166101a0860152908501519081166101c085015290506151dd565b5f8151808452602080850194508084015f5b8381101561569d5781516001600160a01b031687529582019590820190600101615678565b509495945050505050565b5f8151808452602080850194508084015f5b8381101561569d578151875295820195908201906001016156ba565b85815284602082015283604082015282606082015260a0608082015261570860a0820183516001600160a01b03169052565b5f60208301516101c08060c0850152615725610260850183615666565b91506040850151609f19808685030160e087015261574384836156a8565b93506060870151915061010081878603018188015261576285846156a8565b945060808801519250610120615782818901856001600160a01b03169052565b60a089015193506101408389880301818a015261579f87866145dd565b965060c08a0151945061016093506157bc848a018661ffff169052565b60e08a0151945061018085818b0152838b015195506101a0935085848b0152828b0151878b0152818b015196506157ff6101e08b01886001600160a01b03169052565b848b01516001600160a01b03166102008b01528a015160ff81166102208b01529550615829915050565b8701518015156102408801529250615574915050565b5f805f805f8060c08789031215615854575f80fd5b865195506020870151945060408701519350606087015192506080870151915060a087015190509295509295509295565b8181038181111561172b5761172b6154f5565b634e487b7160e01b5f52603260045260245ffd5b5f600182016158bd576158bd6154f5565b5060010190565b858152602080820186905260408083018690526060830185905283516001600160a01b03908116608085015291840151821660a084015283015190811660c08301526101a082019050606083015160e08301526080830151610100818185015260a085015161012085015260c085015161014085015260e085015191506159576101608501836001600160a01b03169052565b84015160ff811661018085015290506151dd565b5f806040838503121561597c575f80fd5b505080516020909101519092909150565b6001600160801b038181168382160190808211156159ad576159ad6154f5565b5092915050565b6001600160801b038281168282160390808211156159ad576159ad6154f5565b808202811582820484141761172b5761172b6154f5565b634e487b7160e01b5f52601260045260245ffd5b8082018082111561172b5761172b6154f5565b5f82615a2c57634e487b7160e01b5f52601260045260245ffd5b50049056fea164736f6c6343000814000a60806040525f8055348015610012575f80fd5b50614d44806100205f395ff3fe608060405234801561000f575f80fd5b5060043610610208575f3560e01c80637641f3d91161011f578063ad4e6432116100a9578063bb01c37c11610079578063bb01c37c14610489578063c4d66de81461049c578063d14a0983146104af578063f213ef0e146104c2578063f6527810146104d5575f80fd5b8063ad4e64321461043d578063aeb4fcc114610450578063b42d793b14610463578063b736aaeb14610476575f80fd5b80638a298302116100ef5780638a298302146103c65780638a493676146103d957806396c205b3146103ec57806396e957c414610417578063a7fa83b71461042a575f80fd5b80637641f3d9146103625780637af635a6146103755780637c4e560b1461038b578063888a1d5e1461039e575f80fd5b806338ae0cc3116101a0578063571f03e511610170578063571f03e514610303578063597c3e871461031657806363c9b86014610329578063682cf2641461033c5780636aabe21d1461034f575f80fd5b806338ae0cc3146102a657806346619649146102b957806348d9fba9146102dd5780634b4e6753146102f0575f80fd5b806323415e46116101db57806323415e461461025a57806326d2cec21461026d5780633036b4391461028057806334a461ea14610293575f80fd5b8063110ac2561461020c57806312bc3f6114610221578063145f5892146102345780631df970bd14610247575b5f80fd5b61021f61021a366004613fd6565b6104e8565b005b61021f61022f36600461402e565b61078a565b61021f610242366004614065565b61087a565b61021f6102553660046140a3565b6109b1565b61021f6102683660046140be565b610b86565b61021f61027b366004614065565b610c24565b61021f61028e3660046140d9565b610d8b565b61021f6102a1366004614143565b610ecc565b61021f6102b43660046141c9565b611130565b6102c261384081565b60405164ffffffffff90911681526020015b60405180910390f35b61021f6102eb3660046141c9565b611258565b61021f6102fe366004614065565b61126f565b61021f610311366004614065565b611495565b61021f6103243660046141f5565b6115c2565b61021f6103373660046140be565b61164d565b61021f61034a3660046141c9565b6116e5565b61021f61035d366004614255565b61180e565b61021f6103703660046142a5565b611897565b61037d600481565b6040519081526020016102d4565b61021f6103993660046142c0565b6118ac565b61037d6103ac3660046140be565b6001600160a01b03165f9081526036602052604090205490565b61021f6103d43660046142f8565b611b6b565b61021f6103e73660046140a3565b611d09565b6040516001600160a01b0373__$7f4825fe44be376a2f872b8658e2a09d99$__1681526020016102d4565b61021f6104253660046141c9565b611ed6565b61021f6104383660046141c9565b61215d565b61021f61044b366004614366565b6122a6565b61021f61045e366004614065565b61231a565b61021f61047136600461439c565b6124cd565b61021f6104843660046141c9565b612701565b61021f6104973660046143d9565b61282b565b61021f6104aa3660046140be565b612877565b61021f6104bd366004614065565b6129c7565b61021f6104d03660046141c9565b612af4565b61021f6104e3366004613fd6565b612c10565b6104f0612e9b565b60355460405163903a2c7160e01b815260ff841660048201525f916001600160a01b03169063903a2c7190602401602060405180830381865afa158015610539573d5f803e3d5ffd5b505050506040513d601f19601f8201168201806040525081019061055d919061441a565b6035546040516335ea6a7560e01b81526001600160a01b0387811660048301529293505f92909116906335ea6a75906024016101e060405180830381865afa1580156105ab573d5f803e3d5ffd5b505050506040513d601f19601f820116820180604052508101906105cf9190614502565b90508060e0015161ffff165f1415806106765750603554604080516334651b6f60e21b815290516001600160a01b0380891693169163d1946dbc916004808301925f9291908290030181865afa15801561062b573d5f803e3d5ffd5b505050506040513d5f823e601f3d908101601f191682016040526106529190810190614623565b5f81518110610663576106636146cf565b60200260200101516001600160a01b0316145b604051806040016040528060028152602001611c1960f11b815250906106b85760405162461bcd60e51b81526004016106af9190614726565b60405180910390fd5b506106cc828260e0015161ffff1685613013565b60355460405160016246f53b60e11b0319815260ff871660048201526001600160801b03831660248201529193506001600160a01b03169063ff72158a906044015f604051808303815f87803b158015610724575f80fd5b505af1158015610736573d5f803e3d5ffd5b50506040805160ff8816815286151560208201526001600160a01b03891693507f60087ca045be9d8d1301445e67d6248eddba97629c80284fa4910c0e52f103ab9250015b60405180910390a25050505050565b610792613070565b603554604080516334651b6f60e21b815290515f926001600160a01b03169163d1946dbc91600480830192869291908290030181865afa1580156107d8573d5f803e3d5ffd5b505050506040513d5f823e601f3d908101601f191682016040526107ff9190810190614623565b90505f5b8151811015610874575f6001600160a01b0316828281518110610828576108286146cf565b60200260200101516001600160a01b03161461086257610862828281518110610853576108536146cf565b602002602001015185856124cd565b8061086c8161474c565b915050610803565b50505050565b610882612e9b565b60355460405163c44b11f760e01b81526001600160a01b0384811660048301525f92169063c44b11f790602401602060405180830381865afa1580156108ca573d5f803e3d5ffd5b505050506040513d601f19601f820116820180604052508101906108ee9190614764565b805190915060b01c640fffffffff1661090782846131e8565b60355460405163f51e435b60e01b81526001600160a01b039091169063f51e435b90610939908790869060040161477e565b5f604051808303815f87803b158015610950575f80fd5b505af1158015610962573d5f803e3d5ffd5b505060408051848152602081018790526001600160a01b03881693507f09808b1fc5abde94edf02fdde393bea0d2e4795999ba31695472848638b5c29f9250015b60405180910390a250505050565b6109b9613240565b604080518082019091526002815261313960f01b60208201526127106001600160801b03831611156109fe5760405162461bcd60e51b81526004016106af9190614726565b506035546040805163354ce01b60e11b815290515f926001600160a01b031691636a99c0369160048083019260209291908290030181865afa158015610a46573d5f803e3d5ffd5b505050506040513d601f19601f82011682018060405250810190610a6a919061441a565b6035546040805163074b2e4360e01b815290519293506001600160a01b039091169163bcb6e52291839163074b2e43916004808201926020929091908290030181865afa158015610abd573d5f803e3d5ffd5b505050506040513d601f19601f82011682018060405250810190610ae1919061441a565b6040516001600160e01b031960e084901b1681526001600160801b03918216600482015290851660248201526044015f604051808303815f87803b158015610b27575f80fd5b505af1158015610b39573d5f803e3d5ffd5b5050604080516001600160801b038086168252861660208201527fe7e0c75e1fc2d0bd83dc85d59f085b3e763107c392fb368e85572b292f1f557693500190505b60405180910390a15050565b610b8e613070565b6035546040516358d4cf1360e11b81526001600160a01b0383811660048301525f60248301529091169063b1a99e26906044015f604051808303815f87803b158015610bd8575f80fd5b505af1158015610bea573d5f803e3d5ffd5b50506040516001600160a01b03841692507f1df36dc1651d06d990805068d22811a3a9ca4396190787ef59f9102e61868fff91505f90a250565b610c2c612e9b565b604080518082019091526002815261037360f41b6020820152612710821115610c685760405162461bcd60e51b81526004016106af9190614726565b5060355460405163c44b11f760e01b81526001600160a01b0384811660048301525f92169063c44b11f790602401602060405180830381865afa158015610cb1573d5f803e3d5ffd5b505050506040513d601f19601f82011682018060405250810190610cd59190614764565b805190915060981c61ffff16610ceb828461334c565b60355460405163f51e435b60e01b81526001600160a01b039091169063f51e435b90610d1d908790869060040161477e565b5f604051808303815f87803b158015610d34575f80fd5b505af1158015610d46573d5f803e3d5ffd5b505060408051848152602081018790526001600160a01b03881693507fb5b0a963825337808b6e3154de8e98027595a5cad4219bb3a9bc55b192f4b3919250016109a3565b610d93613240565b604080518082019091526002815261191960f11b6020820152612710821115610dcf5760405162461bcd60e51b81526004016106af9190614726565b5060355460408051631396c83960e11b815290515f926001600160a01b03169163272d90729160048083019260209291908290030181865afa158015610e17573d5f803e3d5ffd5b505050506040513d601f19601f82011682018060405250810190610e3b9190614798565b603554604051633036b43960e01b8152600481018590529192506001600160a01b031690633036b439906024015f604051808303815f87803b158015610e7f575f80fd5b505af1158015610e91573d5f803e3d5ffd5b505060408051848152602081018690527f30b17cb587a89089d003457c432f73e22aeee93de425e92224ba01080260ecd99350019050610b7a565b610ed4612e9b565b604080518082019091526002815261323160f01b602082015261ffff8616610f0f5760405162461bcd60e51b81526004016106af9190614726565b50604080518082019091526002815261323160f01b602082015261ffff8516610f4b5760405162461bcd60e51b81526004016106af9190614726565b508361ffff168561ffff16111560405180604001604052806002815260200161323160f01b81525090610f915760405162461bcd60e51b81526004016106af9190614726565b50604080518082019091526002815261323160f01b602082015261271061ffff851611610fd15760405162461bcd60e51b81526004016106af9190614726565b50612710610fe661ffff86811690861661339e565b111560405180604001604052806002815260200161323160f01b815250906110215760405162461bcd60e51b81526004016106af9190614726565b506040805160808101825260608082015261ffff8781168252868116602080840191909152908616828401528251601f850182900482028101820190935283835290919084908490819084018382808284375f920191909152505050506060820152603554604051631edd75fd60e21b81526001600160a01b0390911690637b75d7f4906110b5908a9085906004016147af565b5f604051808303815f87803b1580156110cc575f80fd5b505af11580156110de573d5f803e3d5ffd5b505050508660ff167f0acf8b4a3cace10779798a89a206a0ae73a71b63acdd3be2801d39c2ef7ab3cb8787875f888860405161111f9695949392919061482c565b60405180910390a250505050505050565b611138612e9b565b60355460405163c44b11f760e01b81526001600160a01b0384811660048301525f92169063c44b11f790602401602060405180830381865afa158015611180573d5f803e3d5ffd5b505050506040513d601f19601f820116820180604052508101906111a49190614764565b90506111b081836133c2565b60355460405163f51e435b60e01b81526001600160a01b039091169063f51e435b906111e2908690859060040161477e565b5f604051808303815f87803b1580156111f9575f80fd5b505af115801561120b573d5f803e3d5ffd5b5050604080516001600160a01b038716815285151560208201527f74adf6aaf58c08bc4f993640385e136522375ea3d1589a10d02adbb906c67d1c935001905060405180910390a1505050565b611260613070565b61126b82825f6124cd565b5050565b611277612e9b565b604080518082019091526002815261363760f01b60208201526127108211156112b35760405162461bcd60e51b81526004016106af9190614726565b50603554604051635595a8fb60e11b81526001600160a01b0384811660048301529091169063ab2b51f6906024015f604051808303815f87803b1580156112f8575f80fd5b505af115801561130a573d5f803e3d5ffd5b505060355460405163c44b11f760e01b81526001600160a01b0386811660048301525f9450909116915063c44b11f790602401602060405180830381865afa158015611358573d5f803e3d5ffd5b505050506040513d601f19601f8201168201806040525081019061137c9190614764565b805190915060401c61ffff1661139282846133ef565b60355460405163f51e435b60e01b81526001600160a01b039091169063f51e435b906113c4908790869060040161477e565b5f604051808303815f87803b1580156113db575f80fd5b505af11580156113ed573d5f803e3d5ffd5b505060408051848152602081018790526001600160a01b03881693507fb46e2b82b0c2cf3d7d9dece53635e165c53e0eaa7a44f904d61a2b7174826aef92500160405180910390a2603554604051634c63ed2760e11b81526001600160a01b038681166004830152909116906398c7da4e906024015f604051808303815f87803b158015611479575f80fd5b505af115801561148b573d5f803e3d5ffd5b5050505050505050565b61149d612e9b565b60355460405163c44b11f760e01b81526001600160a01b0384811660048301525f92169063c44b11f790602401602060405180830381865afa1580156114e5573d5f803e3d5ffd5b505050506040513d601f19601f820116820180604052508101906115099190614764565b805190915060741c640fffffffff166115228284613446565b60355460405163f51e435b60e01b81526001600160a01b039091169063f51e435b90611554908790869060040161477e565b5f604051808303815f87803b15801561156b575f80fd5b505af115801561157d573d5f803e3d5ffd5b505060408051848152602081018790526001600160a01b03881693507f0263602682188540a2d633561c0b4453b7d8566285e99f9f6018b8ef2facef499250016109a3565b6115ca612e9b565b6035546040516335ea6a7560e01b81526001600160a01b0386811660048301525f9216906335ea6a75906024016101e060405180830381865afa158015611613573d5f803e3d5ffd5b505050506040513d601f19601f820116820180604052508101906116379190614502565b9050611646858286868661349e565b5050505050565b611655613240565b60355460405163031e4dc360e51b81526001600160a01b038381166004830152909116906363c9b860906024015f604051808303815f87803b158015611699575f80fd5b505af11580156116ab573d5f803e3d5ffd5b50506040516001600160a01b03841692507feeec4c06f7adad215cbdb4d2960896c83c26aedce02dde76d36fa28588d62da491505f90a250565b6116ed612e9b565b60355460405163c44b11f760e01b81526001600160a01b0384811660048301525f92169063c44b11f790602401602060405180830381865afa158015611735573d5f803e3d5ffd5b505050506040513d601f19601f820116820180604052508101906117599190614764565b905061176581836136cd565b60355460405163f51e435b60e01b81526001600160a01b039091169063f51e435b90611797908690859060040161477e565b5f604051808303815f87803b1580156117ae575f80fd5b505af11580156117c0573d5f803e3d5ffd5b50505050826001600160a01b03167f2443ba28e8d1d88d531a3d90b981816a4f3b3c7f1fd4085c6029e81d1b7a570d83604051611801911515815260200190565b60405180910390a2505050565b611816612e9b565b6035546040516335ea6a7560e01b81526001600160a01b0385811660048301525f9216906335ea6a75906024016101e060405180830381865afa15801561185f573d5f803e3d5ffd5b505050506040513d601f19601f820116820180604052508101906118839190614502565b90506108748482836101600151868661349e565b61189f613070565b6118a9815f61078a565b50565b6118b4612e9b565b604080518082019091526002815261032360f41b6020820152828411156118ee5760405162461bcd60e51b81526004016106af9190614726565b5060355460405163c44b11f760e01b81526001600160a01b0386811660048301525f92169063c44b11f790602401602060405180830381865afa158015611937573d5f803e3d5ffd5b505050506040513d601f19601f8201168201806040525081019061195b9190614764565b905082156119ed57604080518082019091526002815261032360f41b6020820152612710831161199e5760405162461bcd60e51b81526004016106af9190614726565b506127106119ac848461339e565b111560405180604001604052806002815260200161032360f41b815250906119e75760405162461bcd60e51b81526004016106af9190614726565b50611a2f565b604080518082019091526002815261032360f41b60208201528215611a255760405162461bcd60e51b81526004016106af9190614726565b50611a2f856136fa565b83611a408251600160391b16151590565b15611a9a57506001600160a01b0385165f818152603660209081526040808320889055518781529192917f6a3fa1f355f7c7ab43e41cb277d1f8471f2693c63dca91049d5ec127bb588e10910160405180910390a2611aa4565b611aa4828661389d565b611aae82856138e6565b611ab88284613937565b60355460405163f51e435b60e01b81526001600160a01b039091169063f51e435b90611aea908990869060040161477e565b5f604051808303815f87803b158015611b01575f80fd5b505af1158015611b13573d5f803e3d5ffd5b505060408051848152602081018890529081018690526001600160a01b03891692507f637febbda9275aea2e85c0ff690444c8d87eb2e8339bbede9715abcc89cb0995915060600160405180910390a2505050505050565b611b7361398a565b6035546001600160a01b03165f5b828110156108745773__$7f4825fe44be376a2f872b8658e2a09d99$__63df59b8b283868685818110611bb657611bb66146cf565b9050602002810190611bc8919061486a565b6040518363ffffffff1660e01b8152600401611be59291906148ca565b5f6040518083038186803b158015611bfb575f80fd5b505af4158015611c0d573d5f803e3d5ffd5b50505050838382818110611c2357611c236146cf565b9050602002810190611c35919061486a565b611c469060808101906060016140be565b6001600160a01b0316848483818110611c6157611c616146cf565b9050602002810190611c73919061486a565b611c849060a08101906080016140be565b6001600160a01b03167f1e608c2c753fede2f1f22fca4170277b53ebe5015e488a53414a8921446b7c40868685818110611cc057611cc06146cf565b9050602002810190611cd2919061486a565b611ce190610180810190614aa1565b604051611cef929190614ae3565b60405180910390a380611d018161474c565b915050611b81565b611d11613240565b604080518082019091526002815261313960f01b60208201526127106001600160801b0383161115611d565760405162461bcd60e51b81526004016106af9190614726565b506035546040805163074b2e4360e01b815290515f926001600160a01b03169163074b2e439160048083019260209291908290030181865afa158015611d9e573d5f803e3d5ffd5b505050506040513d601f19601f82011682018060405250810190611dc2919061441a565b6035546040805163354ce01b60e11b815290519293506001600160a01b039091169163bcb6e5229185918491636a99c0369160048083019260209291908290030181865afa158015611e16573d5f803e3d5ffd5b505050506040513d601f19601f82011682018060405250810190611e3a919061441a565b6040516001600160e01b031960e085901b1681526001600160801b039283166004820152911660248201526044015f604051808303815f87803b158015611e7f575f80fd5b505af1158015611e91573d5f803e3d5ffd5b5050604080516001600160801b038086168252861660208201527f71aba182c9d0529b516de7a78bed74d49c207ef7e152f52f7ea5d8730138f6439350019050610b7a565b611ede613b01565b60355460405163c44b11f760e01b81526001600160a01b0384811660048301525f92169063c44b11f790602401602060405180830381865afa158015611f26573d5f803e3d5ffd5b505050506040513d601f19601f82011682018060405250810190611f4a9190614764565b9050611f5c8151600160391b16151590565b1515821515141560405180604001604052806002815260200161393960f01b81525090611f9c5760405162461bcd60e51b81526004016106af9190614726565b50611fa78183613ce6565b5f808315611fe257825161ffff166001600160a01b0386165f908152603660205260408120829055909150611fdd90849061389d565b61201f565b6001600160a01b0385165f908152603660205260409020549150612006838361389d565b6001600160a01b0385165f908152603660205260408120555b846001600160a01b03167f6a3fa1f355f7c7ab43e41cb277d1f8471f2693c63dca91049d5ec127bb588e108260405161205a91815260200190565b60405180910390a282516001600160a01b038616907f637febbda9275aea2e85c0ff690444c8d87eb2e8339bbede9715abcc89cb099590849060101c61ffff16865160201c61ffff166040805193845260208401929092529082015260600160405180910390a260355460405163f51e435b60e01b81526001600160a01b039091169063f51e435b906120f3908890879060040161477e565b5f604051808303815f87803b15801561210a575f80fd5b505af115801561211c573d5f803e3d5ffd5b50505050846001600160a01b03167f0c4443d258a350d27dc50c378b2ebf165e6469725f786d21b30cab16823f55878560405161077b911515815260200190565b612165612e9b565b80156121745761217482613d13565b60355460405163c44b11f760e01b81526001600160a01b0384811660048301525f92169063c44b11f790602401602060405180830381865afa1580156121bc573d5f803e3d5ffd5b505050506040513d601f19601f820116820180604052508101906121e09190614764565b90505f6121f7825167400000000000000016151590565b90506122038284613e23565b60355460405163f51e435b60e01b81526001600160a01b039091169063f51e435b90612235908790869060040161477e565b5f604051808303815f87803b15801561224c575f80fd5b505af115801561225e573d5f803e3d5ffd5b505060408051841515815286151560208201526001600160a01b03881693507f842a280b07e8e502a9101f32a3b768ebaba3655556dd674f0831900861fc674b9250016109a3565b6122ae613240565b60355460405163b0f0935560e01b815273__$7f4825fe44be376a2f872b8658e2a09d99$__9163b0f09355916122f2916001600160a01b0316908590600401614afe565b5f6040518083038186803b158015612308575f80fd5b505af4158015611646573d5f803e3d5ffd5b612322612e9b565b60355460405163c44b11f760e01b81526001600160a01b0384811660048301525f92169063c44b11f790602401602060405180830381865afa15801561236a573d5f803e3d5ffd5b505050506040513d601f19601f8201168201806040525081019061238e9190614764565b805190915060d481901c64ffffffffff169060101c61ffff16158015906123b3575080155b156123c1576123c1846136fa565b6123cb8284613e50565b60355460405163f51e435b60e01b81526001600160a01b039091169063f51e435b906123fd908790869060040161477e565b5f604051808303815f87803b158015612414575f80fd5b505af1158015612426573d5f803e3d5ffd5b50505050825f0361248c5760355460405163e43e88a160e01b81526001600160a01b0386811660048301529091169063e43e88a1906024015f604051808303815f87803b158015612475575f80fd5b505af1158015612487573d5f803e3d5ffd5b505050505b60408051828152602081018590526001600160a01b038616917f6824a6c7fbc10d2979b1f1ccf2dd4ed0436541679a661dedb5c10bd4be83068291016109a3565b6124d5613070565b811580156124e9575064ffffffffff811615155b156125ed57604080518082019091526002815261072760f31b602082015261384064ffffffffff831611156125315760405162461bcd60e51b81526004016106af9190614726565b505f61253d8242614bcb565b6035546040516358d4cf1360e11b81526001600160a01b03878116600483015264ffffffffff8416602483015292935091169063b1a99e26906044015f604051808303815f87803b158015612590575f80fd5b505af11580156125a2573d5f803e3d5ffd5b505060405164ffffffffff841681526001600160a01b03871692507fdf4f96448786bcd6fecc9f1fa25f1fbbbee6a5c9e76d635a615ac57bb5983d10915060200160405180910390a2505b60355460405163c44b11f760e01b81526001600160a01b0385811660048301525f92169063c44b11f790602401602060405180830381865afa158015612635573d5f803e3d5ffd5b505050506040513d601f19601f820116820180604052508101906126599190614764565b90506126658184613eab565b60355460405163f51e435b60e01b81526001600160a01b039091169063f51e435b90612697908790859060040161477e565b5f604051808303815f87803b1580156126ae575f80fd5b505af11580156126c0573d5f803e3d5ffd5b50505050836001600160a01b03167fe188d542a5f11925d3a3af33703cdd30a43cb3e8066a3cf68b1b57f61a5a94b5846040516109a3911515815260200190565b612709613240565b8061271757612717826136fa565b60355460405163c44b11f760e01b81526001600160a01b0384811660048301525f92169063c44b11f790602401602060405180830381865afa15801561275f573d5f803e3d5ffd5b505050506040513d601f19601f820116820180604052508101906127839190614764565b905061278f8183613ed8565b60355460405163f51e435b60e01b81526001600160a01b039091169063f51e435b906127c1908690859060040161477e565b5f604051808303815f87803b1580156127d8575f80fd5b505af11580156127ea573d5f803e3d5ffd5b50505050826001600160a01b03167fc36c7d11ba01a5869d52aa4a3781939dab851cbc9ee6e7fdcedc7d58898a3f1e83604051611801911515815260200190565b612833613240565b60355460405163162792d560e31b815273__$7f4825fe44be376a2f872b8658e2a09d99$__9163b13c96a8916122f2916001600160a01b0316908590600401614bf0565b60015460049060ff168061288a5750303b155b8061289557505f5481115b6128f85760405162461bcd60e51b815260206004820152602e60248201527f436f6e747261637420696e7374616e63652068617320616c726561647920626560448201526d195b881a5b9a5d1a585b1a5e995960921b60648201526084016106af565b60015460ff16158015612916576001805460ff1916811790555f8290555b603480546001600160a01b0319166001600160a01b0385169081179091556040805163026b1d5f60e01b8152905163026b1d5f916004808201926020929091908290030181865afa15801561296d573d5f803e3d5ffd5b505050506040513d601f19601f820116820180604052508101906129919190614cdd565b603580546001600160a01b0319166001600160a01b039290921691909117905580156129c2576001805460ff191690555b505050565b6129cf612e9b565b60355460405163c44b11f760e01b81526001600160a01b0384811660048301525f92169063c44b11f790602401602060405180830381865afa158015612a17573d5f803e3d5ffd5b505050506040513d601f19601f82011682018060405250810190612a3b9190614764565b805190915060501c640fffffffff16612a548284613f05565b60355460405163f51e435b60e01b81526001600160a01b039091169063f51e435b90612a86908790869060040161477e565b5f604051808303815f87803b158015612a9d575f80fd5b505af1158015612aaf573d5f803e3d5ffd5b505060408051848152602081018790526001600160a01b03881693507fc51aca575985d521c5072ad11549bad77013bb786d57f30f94b40ed8f8dc9bc49250016109a3565b612afc612e9b565b60355460405163c44b11f760e01b81526001600160a01b0384811660048301525f92169063c44b11f790602401602060405180830381865afa158015612b44573d5f803e3d5ffd5b505050506040513d601f19601f82011682018060405250810190612b689190614764565b9050612b748183613f5d565b60355460405163f51e435b60e01b81526001600160a01b039091169063f51e435b90612ba6908690859060040161477e565b5f604051808303815f87803b158015612bbd575f80fd5b505af1158015612bcf573d5f803e3d5ffd5b50505050826001600160a01b03167fc8ff3cc5b0fddaa3e6ebbbd7438f43393e4ea30e88b80ad016c1bc094655034d83604051611801911515815260200190565b612c18612e9b565b60355460405163583b8edd60e11b815260ff841660048201525f916001600160a01b03169063b0771dba90602401602060405180830381865afa158015612c61573d5f803e3d5ffd5b505050506040513d601f19601f82011682018060405250810190612c85919061441a565b6035546040516335ea6a7560e01b81526001600160a01b0387811660048301529293505f92909116906335ea6a75906024016101e060405180830381865afa158015612cd3573d5f803e3d5ffd5b505050506040513d601f19601f82011682018060405250810190612cf79190614502565b90508060e0015161ffff165f141580612d9e5750603554604080516334651b6f60e21b815290516001600160a01b0380891693169163d1946dbc916004808301925f9291908290030181865afa158015612d53573d5f803e3d5ffd5b505050506040513d5f823e601f3d908101601f19168201604052612d7a9190810190614623565b5f81518110612d8b57612d8b6146cf565b60200260200101516001600160a01b0316145b604051806040016040528060028152602001611c1960f11b81525090612dd75760405162461bcd60e51b81526004016106af9190614726565b50612deb828260e0015161ffff1685613013565b6035546040516392380ecb60e01b815260ff871660048201526001600160801b03831660248201529193506001600160a01b0316906392380ecb906044015f604051808303815f87803b158015612e40575f80fd5b505af1158015612e52573d5f803e3d5ffd5b50506040805160ff8816815286151560208201526001600160a01b03891693507f79409190108b26fcb0e4570f8e240f627bf18fd01a55f751010224d5bd48609892500161077b565b6034546040805163383e6b8b60e11b815290515f926001600160a01b03169163707cd7169160048083019260209291908290030181865afa158015612ee2573d5f803e3d5ffd5b505050506040513d601f19601f82011682018060405250810190612f069190614cdd565b60405163674b5e4d60e01b81523360048201529091506001600160a01b0382169063674b5e4d90602401602060405180830381865afa158015612f4b573d5f803e3d5ffd5b505050506040513d601f19601f82011682018060405250810190612f6f9190614cf8565b80612fdb5750604051637be53ca160e01b81523360048201526001600160a01b03821690637be53ca190602401602060405180830381865afa158015612fb7573d5f803e3d5ffd5b505050506040513d601f19601f82011682018060405250810190612fdb9190614cf8565b604051806040016040528060018152602001600d60fa1b8152509061126b5760405162461bcd60e51b81526004016106af9190614726565b6040805180820190915260028152610dcd60f21b60208201525f906080841061304f5760405162461bcd60e51b81526004016106af9190614726565b506001831b82156130635784179050613069565b19841690505b9392505050565b6034546040805163383e6b8b60e11b815290515f926001600160a01b03169163707cd7169160048083019260209291908290030181865afa1580156130b7573d5f803e3d5ffd5b505050506040513d601f19601f820116820180604052508101906130db9190614cdd565b604051637be53ca160e01b81523360048201529091506001600160a01b03821690637be53ca190602401602060405180830381865afa158015613120573d5f803e3d5ffd5b505050506040513d601f19601f820116820180604052508101906131449190614cf8565b806131b05750604051631280795b60e11b81523360048201526001600160a01b03821690632500f2b690602401602060405180830381865afa15801561318c573d5f803e3d5ffd5b505050506040513d601f19601f820116820180604052508101906131b09190614cf8565b604051806040016040528060018152602001603360f81b8152509061126b5760405162461bcd60e51b81526004016106af9190614726565b6040805180820190915260028152611b9960f11b6020820152640fffffffff8211156132275760405162461bcd60e51b81526004016106af9190614726565b508151640fffffffff60b01b191660b09190911b179052565b6034546040805163383e6b8b60e11b815290515f926001600160a01b03169163707cd7169160048083019260209291908290030181865afa158015613287573d5f803e3d5ffd5b505050506040513d601f19601f820116820180604052508101906132ab9190614cdd565b604051637be53ca160e01b81523360048201529091506001600160a01b03821690637be53ca190602401602060405180830381865afa1580156132f0573d5f803e3d5ffd5b505050506040513d601f19601f820116820180604052508101906133149190614cf8565b604051806040016040528060018152602001603160f81b8152509061126b5760405162461bcd60e51b81526004016106af9190614726565b604080518082019091526002815261037360f41b602082015261ffff8211156133885760405162461bcd60e51b81526004016106af9190614726565b50815161ffff60981b191660989190911b179052565b5f811561138819839004841115176133b4575f80fd5b506127109102611388010490565b603d816133cf575f6133d2565b60015b8351672000000000000000191660ff9190911690911b1790915250565b604080518082019091526002815261363760f01b602082015261ffff82111561342b5760405162461bcd60e51b81526004016106af9190614726565b50815169ffff0000000000000000191660409190911b179052565b604080518082019091526002815261363960f01b6020820152640fffffffff8211156134855760405162461bcd60e51b81526004016106af9190614726565b508151640fffffffff60741b191660749190911b179052565b610160840151603554604051635595a8fb60e11b81526001600160a01b0388811660048301529091169063ab2b51f6906024015f604051808303815f87803b1580156134e8575f80fd5b505af11580156134fa573d5f803e3d5ffd5b505060405163a8d9e56f60e01b81526001600160a01b038716925063a8d9e56f915061352e90899087908790600401614d13565b5f604051808303815f87803b158015613545575f80fd5b505af1158015613557573d5f803e3d5ffd5b50505050836001600160a01b0316866001600160a01b03167f1e608c2c753fede2f1f22fca4170277b53ebe5015e488a53414a8921446b7c4085856040516135a0929190614ae3565b60405180910390a3836001600160a01b0316816001600160a01b03161461366b57603554604051631d2118f960e01b81526001600160a01b038881166004830152868116602483015290911690631d2118f9906044015f604051808303815f87803b15801561360d575f80fd5b505af115801561361f573d5f803e3d5ffd5b5050604080516001600160a01b03858116825288811660208301528a1693507fdb8dada53709ce4988154324196790c2e4a60c377e1256790946f83b87db3c3392500160405180910390a25b603554604051634c63ed2760e11b81526001600160a01b038881166004830152909116906398c7da4e906024015f604051808303815f87803b1580156136af575f80fd5b505af11580156136c1573d5f803e3d5ffd5b50505050505050505050565b603a816136da575f6136dd565b60015b8351670400000000000000191660ff9190911690911b1790915250565b6035546040516335ea6a7560e01b81526001600160a01b0383811660048301525f9216906335ea6a75906024016101e060405180830381865afa158015613743573d5f803e3d5ffd5b505050506040513d601f19601f820116820180604052508101906137679190614502565b90505f60345f9054906101000a90046001600160a01b03166001600160a01b031663e860accb6040518163ffffffff1660e01b8152600401602060405180830381865afa1580156137ba573d5f803e3d5ffd5b505050506040513d601f19601f820116820180604052508101906137de9190614cdd565b6040516351460e2560e01b81526001600160a01b03858116600483015291909116906351460e2590602401602060405180830381865afa158015613824573d5f803e3d5ffd5b505050506040513d601f19601f820116820180604052508101906138489190614798565b90508015801561386457506101808201516001600160801b0316155b60405180604001604052806002815260200161062760f31b815250906108745760405162461bcd60e51b81526004016106af9190614726565b604080518082019091526002815261363360f01b602082015261ffff8211156138d95760405162461bcd60e51b81526004016106af9190614726565b50815161ffff1916179052565b6040805180820190915260028152610d8d60f21b602082015261ffff8211156139225760405162461bcd60e51b81526004016106af9190614726565b50815163ffff0000191660109190911b179052565b604080518082019091526002815261363560f01b602082015261ffff8211156139735760405162461bcd60e51b81526004016106af9190614726565b50815165ffff00000000191660209190911b179052565b6034546040805163383e6b8b60e11b815290515f926001600160a01b03169163707cd7169160048083019260209291908290030181865afa1580156139d1573d5f803e3d5ffd5b505050506040513d601f19601f820116820180604052508101906139f59190614cdd565b604051629f719760e51b81523360048201529091506001600160a01b038216906313ee32e090602401602060405180830381865afa158015613a39573d5f803e3d5ffd5b505050506040513d601f19601f82011682018060405250810190613a5d9190614cf8565b80613ac95750604051637be53ca160e01b81523360048201526001600160a01b03821690637be53ca190602401602060405180830381865afa158015613aa5573d5f803e3d5ffd5b505050506040513d601f19601f82011682018060405250810190613ac99190614cf8565b604051806040016040528060018152602001603560f81b8152509061126b5760405162461bcd60e51b81526004016106af9190614726565b6034546040805163383e6b8b60e11b815290515f926001600160a01b03169163707cd7169160048083019260209291908290030181865afa158015613b48573d5f803e3d5ffd5b505050506040513d601f19601f82011682018060405250810190613b6c9190614cdd565b60405163674b5e4d60e01b81523360048201529091506001600160a01b0382169063674b5e4d90602401602060405180830381865afa158015613bb1573d5f803e3d5ffd5b505050506040513d601f19601f82011682018060405250810190613bd59190614cf8565b80613c415750604051637be53ca160e01b81523360048201526001600160a01b03821690637be53ca190602401602060405180830381865afa158015613c1d573d5f803e3d5ffd5b505050506040513d601f19601f82011682018060405250810190613c419190614cf8565b80613cad5750604051631280795b60e11b81523360048201526001600160a01b03821690632500f2b690602401602060405180830381865afa158015613c89573d5f803e3d5ffd5b505050506040513d601f19601f82011682018060405250810190613cad9190614cf8565b604051806040016040528060028152602001611c9b60f11b8152509061126b5760405162461bcd60e51b81526004016106af9190614726565b603981613cf3575f613cf6565b60015b8351670200000000000000191660ff9190911690911b1790915250565b6034546040805163e860accb60e01b815290515f926001600160a01b03169163e860accb9160048083019260209291908290030181865afa158015613d5a573d5f803e3d5ffd5b505050506040513d601f19601f82011682018060405250810190613d7e9190614cdd565b604051634d44ac4f60e01b81526001600160a01b0384811660048301529190911690634d44ac4f90602401602060405180830381865afa158015613dc4573d5f803e3d5ffd5b505050506040513d601f19601f82011682018060405250810190613de89190614798565b604080518082019091526002815261039360f41b602082015290915081156129c25760405162461bcd60e51b81526004016106af9190614726565b603e81613e30575f613e33565b60015b8351674000000000000000191660ff9190911690911b1790915250565b604080518082019091526002815261373360f01b602082015264ffffffffff821115613e8f5760405162461bcd60e51b81526004016106af9190614726565b5081516001650f000000000160d41b031660d49190911b179052565b603c81613eb8575f613ebb565b60015b8351671000000000000000191660ff9190911690911b1790915250565b603881613ee5575f613ee8565b60015b8351670100000000000000191660ff9190911690911b1790915250565b60408051808201909152600281526106c760f31b6020820152640fffffffff821115613f445760405162461bcd60e51b81526004016106af9190614726565b508151640fffffffff60501b191660509190911b179052565b603f81613f6a575f613f6d565b60015b8351678000000000000000191660ff9190911690911b1790915250565b6001600160a01b03811681146118a9575f80fd5b8035613fa981613f8a565b919050565b803560ff81168114613fa9575f80fd5b80151581146118a9575f80fd5b8035613fa981613fbe565b5f805f60608486031215613fe8575f80fd5b8335613ff381613f8a565b925061400160208501613fae565b9150604084013561401181613fbe565b809150509250925092565b64ffffffffff811681146118a9575f80fd5b5f806040838503121561403f575f80fd5b823561404a81613fbe565b9150602083013561405a8161401c565b809150509250929050565b5f8060408385031215614076575f80fd5b823561408181613f8a565b946020939093013593505050565b6001600160801b03811681146118a9575f80fd5b5f602082840312156140b3575f80fd5b81356130698161408f565b5f602082840312156140ce575f80fd5b813561306981613f8a565b5f602082840312156140e9575f80fd5b5035919050565b61ffff811681146118a9575f80fd5b5f8083601f84011261410f575f80fd5b5081356001600160401b03811115614125575f80fd5b60208301915083602082850101111561413c575f80fd5b9250929050565b5f805f805f8060a08789031215614158575f80fd5b61416187613fae565b95506020870135614171816140f0565b94506040870135614181816140f0565b93506060870135614191816140f0565b925060808701356001600160401b038111156141ab575f80fd5b6141b789828a016140ff565b979a9699509497509295939492505050565b5f80604083850312156141da575f80fd5b82356141e581613f8a565b9150602083013561405a81613fbe565b5f805f8060608587031215614208575f80fd5b843561421381613f8a565b9350602085013561422381613f8a565b925060408501356001600160401b0381111561423d575f80fd5b614249878288016140ff565b95989497509550505050565b5f805f60408486031215614267575f80fd5b833561427281613f8a565b925060208401356001600160401b0381111561428c575f80fd5b614298868287016140ff565b9497909650939450505050565b5f602082840312156142b5575f80fd5b813561306981613fbe565b5f805f80608085870312156142d3575f80fd5b84356142de81613f8a565b966020860135965060408601359560600135945092505050565b5f8060208385031215614309575f80fd5b82356001600160401b038082111561431f575f80fd5b818501915085601f830112614332575f80fd5b813581811115614340575f80fd5b8660208260051b8501011115614354575f80fd5b60209290920196919550909350505050565b5f60208284031215614376575f80fd5b81356001600160401b0381111561438b575f80fd5b820160c08185031215613069575f80fd5b5f805f606084860312156143ae575f80fd5b83356143b981613f8a565b925060208401356143c981613fbe565b915060408401356140118161401c565b5f602082840312156143e9575f80fd5b81356001600160401b038111156143fe575f80fd5b820160e08185031215613069575f80fd5b8051613fa98161408f565b5f6020828403121561442a575f80fd5b81516130698161408f565b634e487b7160e01b5f52604160045260245ffd5b6040516101e081016001600160401b038111828210171561446c5761446c614435565b60405290565b604051601f8201601f191681016001600160401b038111828210171561449a5761449a614435565b604052919050565b5f602082840312156144b2575f80fd5b604051602081018181106001600160401b03821117156144d4576144d4614435565b6040529151825250919050565b8051613fa98161401c565b8051613fa9816140f0565b8051613fa981613f8a565b5f6101e08284031215614513575f80fd5b61451b614449565b61452584846144a2565b81526145336020840161440f565b60208201526145446040840161440f565b60408201526145556060840161440f565b60608201526145666080840161440f565b608082015261457760a0840161440f565b60a082015261458860c084016144e1565b60c082015261459960e084016144ec565b60e08201526101006145ac8185016144f7565b908201526101206145be8482016144f7565b908201526101406145d08482016144f7565b908201526101606145e28482016144f7565b908201526101806145f484820161440f565b908201526101a061460684820161440f565b908201526101c061461884820161440f565b908201529392505050565b5f6020808385031215614634575f80fd5b82516001600160401b038082111561464a575f80fd5b818501915085601f83011261465d575f80fd5b81518181111561466f5761466f614435565b8060051b9150614680848301614472565b8181529183018401918481019088841115614699575f80fd5b938501935b838510156146c357845192506146b383613f8a565b828252938501939085019061469e565b98975050505050505050565b634e487b7160e01b5f52603260045260245ffd5b5f81518084525f5b81811015614707576020818501810151868301820152016146eb565b505f602082860101526020601f19601f83011685010191505092915050565b602081525f61306960208301846146e3565b634e487b7160e01b5f52601160045260245ffd5b5f6001820161475d5761475d614738565b5060010190565b5f60208284031215614774575f80fd5b61306983836144a2565b6001600160a01b0392909216825251602082015260400190565b5f602082840312156147a8575f80fd5b5051919050565b60ff83168152604060208201525f61ffff808451166040840152806020850151166060840152806040850151166080840152506060830151608060a08401526147fb60c08401826146e3565b95945050505050565b81835281816020850137505f828201602090810191909152601f909101601f19169091010190565b61ffff87811682528681166020830152851660408201526001600160a01b038416606082015260a0608082018190525f906146c39083018486614804565b5f823561019e1983360301811261487f575f80fd5b9190910192915050565b5f808335601e1984360301811261489e575f80fd5b83016020810192503590506001600160401b038111156148bc575f80fd5b80360382131561413c575f80fd5b6001600160a01b03831681526040602082018190526148fb9082016148ee84613f9e565b6001600160a01b03169052565b5f61490860208401613f9e565b6001600160a01b0316606083015261492260408401613fcb565b1515608083015261493560608401613f9e565b6001600160a01b031660a083015261494f60808401613f9e565b6001600160a01b031660c083015261496960a08401613f9e565b6001600160a01b031660e083015261498360c08401613f9e565b61010061499a818501836001600160a01b03169052565b6149a760e0860186614889565b92506101a061012081818801526149c36101e088018685614804565b94506149d184890189614889565b94509250603f196101408189880301818a01526149ef878787614804565b96506149fd838b018b614889565b9650945061016092508189880301838a0152614a1a878787614804565b9650614a28818b018b614889565b96509450506101808189880301818a0152614a44878787614804565b9650614a52838b018b614889565b965094508189880301848a0152614a6a878787614804565b9650614a78818b018b614889565b965094505080888703016101c0890152505050614a96838383614804565b979650505050505050565b5f808335601e19843603018112614ab6575f80fd5b8301803591506001600160401b03821115614acf575f80fd5b60200191503681900382131561413c575f80fd5b602081525f614af6602083018486614804565b949350505050565b6001600160a01b038381168252604060208301525f908335614b1f81613f8a565b811660408401526020840135614b3481613f8a565b166060830152614b476040840184614889565b60c06080850152614b5d61010085018284614804565b915050614b6d6060850185614889565b603f19808685030160a0870152614b85848385614804565b9350614b9360808801613f9e565b6001600160a01b03811660c08801529250614bb160a0880188614889565b93509150808685030160e087015250614a96838383614804565b64ffffffffff818116838216019080821115614be957614be9614738565b5092915050565b6001600160a01b038381168252604060208301525f908335614c1181613f8a565b166040830152614c2360208401613f9e565b6001600160a01b03166060830152614c3d60408401613f9e565b6001600160a01b03166080830152614c586060840184614889565b60e060a0850152614c6e61012085018284614804565b915050614c7e6080850185614889565b603f19808685030160c0870152614c96848385614804565b9350614ca460a08801613f9e565b6001600160a01b03811660e08801529250614cc260c0880188614889565b93509150808685030161010087015250614a96838383614804565b5f60208284031215614ced575f80fd5b815161306981613f8a565b5f60208284031215614d08575f80fd5b815161306981613fbe565b6001600160a01b03841681526040602082018190525f906147fb908301848661480456fea164736f6c6343000814000a","linkReferences":{"src/contracts/protocol/libraries/logic/BorrowLogic.sol":{"BorrowLogic":[{"start":2165,"length":20},{"start":6010,"length":20},{"start":7168,"length":20},{"start":9978,"length":20},{"start":13847,"length":20}]},"src/contracts/protocol/libraries/logic/BridgeLogic.sol":{"BridgeLogic":[{"start":4126,"length":20},{"start":8638,"length":20},{"start":13479,"length":20}]},"src/contracts/protocol/libraries/logic/ConfiguratorLogic.sol":{"ConfiguratorLogic":[{"start":25019,"length":20},{"start":31053,"length":20},{"start":32898,"length":20},{"start":34311,"length":20}]},"src/contracts/protocol/libraries/logic/EModeLogic.sol":{"EModeLogic":[{"start":4233,"length":20},{"start":5603,"length":20}]},"src/contracts/protocol/libraries/logic/FlashLoanLogic.sol":{"FlashLoanLogic":[{"start":2229,"length":20},{"start":6998,"length":20},{"start":11239,"length":20}]},"src/contracts/protocol/libraries/logic/LiquidationLogic.sol":{"LiquidationLogic":[{"start":3411,"length":20},{"start":4350,"length":20}]},"src/contracts/protocol/libraries/logic/PoolLogic.sol":{"PoolLogic":[{"start":4024,"length":20},{"start":8027,"length":20},{"start":9240,"length":20},{"start":9931,"length":20},{"start":11566,"length":20},{"start":11731,"length":20},{"start":12450,"length":20},{"start":13590,"length":20}]},"src/contracts/protocol/libraries/logic/SupplyLogic.sol":{"SupplyLogic":[{"start":3301,"length":20},{"start":5045,"length":20},{"start":7421,"length":20},{"start":7880,"length":20},{"start":8106,"length":20},{"start":12909,"length":20}]}}},"methodIdentifiers":{"getPoolReport()":"aec5b39b"},"id":303}