{
  "_format": "hh-sol-artifact-1",
  "contractName": "AaveProtocolDataProvider",
  "sourceName": "contracts/misc/AaveProtocolDataProvider.sol",
  "abi": [
    {
      "inputs": [
        {
          "internalType": "contract IPoolAddressesProvider",
          "name": "addressesProvider",
          "type": "address"
        }
      ],
      "stateMutability": "nonpayable",
      "type": "constructor"
    },
    {
      "inputs": [],
      "name": "ADDRESSES_PROVIDER",
      "outputs": [
        {
          "internalType": "contract IPoolAddressesProvider",
          "name": "",
          "type": "address"
        }
      ],
      "stateMutability": "view",
      "type": "function"
    },
    {
      "inputs": [
        {
          "internalType": "address",
          "name": "asset",
          "type": "address"
        }
      ],
      "name": "getATokenTotalSupply",
      "outputs": [
        {
          "internalType": "uint256",
          "name": "",
          "type": "uint256"
        }
      ],
      "stateMutability": "view",
      "type": "function"
    },
    {
      "inputs": [],
      "name": "getAllATokens",
      "outputs": [
        {
          "components": [
            {
              "internalType": "string",
              "name": "symbol",
              "type": "string"
            },
            {
              "internalType": "address",
              "name": "tokenAddress",
              "type": "address"
            }
          ],
          "internalType": "struct AaveProtocolDataProvider.TokenData[]",
          "name": "",
          "type": "tuple[]"
        }
      ],
      "stateMutability": "view",
      "type": "function"
    },
    {
      "inputs": [],
      "name": "getAllReservesTokens",
      "outputs": [
        {
          "components": [
            {
              "internalType": "string",
              "name": "symbol",
              "type": "string"
            },
            {
              "internalType": "address",
              "name": "tokenAddress",
              "type": "address"
            }
          ],
          "internalType": "struct AaveProtocolDataProvider.TokenData[]",
          "name": "",
          "type": "tuple[]"
        }
      ],
      "stateMutability": "view",
      "type": "function"
    },
    {
      "inputs": [
        {
          "internalType": "address",
          "name": "asset",
          "type": "address"
        }
      ],
      "name": "getDebtCeiling",
      "outputs": [
        {
          "internalType": "uint256",
          "name": "",
          "type": "uint256"
        }
      ],
      "stateMutability": "view",
      "type": "function"
    },
    {
      "inputs": [],
      "name": "getDebtCeilingDecimals",
      "outputs": [
        {
          "internalType": "uint256",
          "name": "",
          "type": "uint256"
        }
      ],
      "stateMutability": "pure",
      "type": "function"
    },
    {
      "inputs": [
        {
          "internalType": "address",
          "name": "asset",
          "type": "address"
        }
      ],
      "name": "getInterestRateStrategyAddress",
      "outputs": [
        {
          "internalType": "address",
          "name": "irStrategyAddress",
          "type": "address"
        }
      ],
      "stateMutability": "view",
      "type": "function"
    },
    {
      "inputs": [
        {
          "internalType": "address",
          "name": "asset",
          "type": "address"
        }
      ],
      "name": "getLiquidationProtocolFee",
      "outputs": [
        {
          "internalType": "uint256",
          "name": "",
          "type": "uint256"
        }
      ],
      "stateMutability": "view",
      "type": "function"
    },
    {
      "inputs": [
        {
          "internalType": "address",
          "name": "asset",
          "type": "address"
        }
      ],
      "name": "getPaused",
      "outputs": [
        {
          "internalType": "bool",
          "name": "isPaused",
          "type": "bool"
        }
      ],
      "stateMutability": "view",
      "type": "function"
    },
    {
      "inputs": [
        {
          "internalType": "address",
          "name": "asset",
          "type": "address"
        }
      ],
      "name": "getReserveCaps",
      "outputs": [
        {
          "internalType": "uint256",
          "name": "borrowCap",
          "type": "uint256"
        },
        {
          "internalType": "uint256",
          "name": "supplyCap",
          "type": "uint256"
        }
      ],
      "stateMutability": "view",
      "type": "function"
    },
    {
      "inputs": [
        {
          "internalType": "address",
          "name": "asset",
          "type": "address"
        }
      ],
      "name": "getReserveConfigurationData",
      "outputs": [
        {
          "internalType": "uint256",
          "name": "decimals",
          "type": "uint256"
        },
        {
          "internalType": "uint256",
          "name": "ltv",
          "type": "uint256"
        },
        {
          "internalType": "uint256",
          "name": "liquidationThreshold",
          "type": "uint256"
        },
        {
          "internalType": "uint256",
          "name": "liquidationBonus",
          "type": "uint256"
        },
        {
          "internalType": "uint256",
          "name": "reserveFactor",
          "type": "uint256"
        },
        {
          "internalType": "bool",
          "name": "usageAsCollateralEnabled",
          "type": "bool"
        },
        {
          "internalType": "bool",
          "name": "borrowingEnabled",
          "type": "bool"
        },
        {
          "internalType": "bool",
          "name": "stableBorrowRateEnabled",
          "type": "bool"
        },
        {
          "internalType": "bool",
          "name": "isActive",
          "type": "bool"
        },
        {
          "internalType": "bool",
          "name": "isFrozen",
          "type": "bool"
        }
      ],
      "stateMutability": "view",
      "type": "function"
    },
    {
      "inputs": [
        {
          "internalType": "address",
          "name": "asset",
          "type": "address"
        }
      ],
      "name": "getReserveData",
      "outputs": [
        {
          "internalType": "uint256",
          "name": "unbacked",
          "type": "uint256"
        },
        {
          "internalType": "uint256",
          "name": "accruedToTreasuryScaled",
          "type": "uint256"
        },
        {
          "internalType": "uint256",
          "name": "totalAToken",
          "type": "uint256"
        },
        {
          "internalType": "uint256",
          "name": "totalStableDebt",
          "type": "uint256"
        },
        {
          "internalType": "uint256",
          "name": "totalVariableDebt",
          "type": "uint256"
        },
        {
          "internalType": "uint256",
          "name": "liquidityRate",
          "type": "uint256"
        },
        {
          "internalType": "uint256",
          "name": "variableBorrowRate",
          "type": "uint256"
        },
        {
          "internalType": "uint256",
          "name": "stableBorrowRate",
          "type": "uint256"
        },
        {
          "internalType": "uint256",
          "name": "averageStableBorrowRate",
          "type": "uint256"
        },
        {
          "internalType": "uint256",
          "name": "liquidityIndex",
          "type": "uint256"
        },
        {
          "internalType": "uint256",
          "name": "variableBorrowIndex",
          "type": "uint256"
        },
        {
          "internalType": "uint40",
          "name": "lastUpdateTimestamp",
          "type": "uint40"
        }
      ],
      "stateMutability": "view",
      "type": "function"
    },
    {
      "inputs": [
        {
          "internalType": "address",
          "name": "asset",
          "type": "address"
        }
      ],
      "name": "getReserveEModeCategory",
      "outputs": [
        {
          "internalType": "uint256",
          "name": "",
          "type": "uint256"
        }
      ],
      "stateMutability": "view",
      "type": "function"
    },
    {
      "inputs": [
        {
          "internalType": "address",
          "name": "asset",
          "type": "address"
        }
      ],
      "name": "getReserveTokensAddresses",
      "outputs": [
        {
          "internalType": "address",
          "name": "aTokenAddress",
          "type": "address"
        },
        {
          "internalType": "address",
          "name": "stableDebtTokenAddress",
          "type": "address"
        },
        {
          "internalType": "address",
          "name": "variableDebtTokenAddress",
          "type": "address"
        }
      ],
      "stateMutability": "view",
      "type": "function"
    },
    {
      "inputs": [
        {
          "internalType": "address",
          "name": "asset",
          "type": "address"
        }
      ],
      "name": "getUnbackedMintCap",
      "outputs": [
        {
          "internalType": "uint256",
          "name": "",
          "type": "uint256"
        }
      ],
      "stateMutability": "view",
      "type": "function"
    },
    {
      "inputs": [
        {
          "internalType": "address",
          "name": "asset",
          "type": "address"
        },
        {
          "internalType": "address",
          "name": "user",
          "type": "address"
        }
      ],
      "name": "getUserReserveData",
      "outputs": [
        {
          "internalType": "uint256",
          "name": "currentATokenBalance",
          "type": "uint256"
        },
        {
          "internalType": "uint256",
          "name": "currentStableDebt",
          "type": "uint256"
        },
        {
          "internalType": "uint256",
          "name": "currentVariableDebt",
          "type": "uint256"
        },
        {
          "internalType": "uint256",
          "name": "principalStableDebt",
          "type": "uint256"
        },
        {
          "internalType": "uint256",
          "name": "scaledVariableDebt",
          "type": "uint256"
        },
        {
          "internalType": "uint256",
          "name": "stableBorrowRate",
          "type": "uint256"
        },
        {
          "internalType": "uint256",
          "name": "liquidityRate",
          "type": "uint256"
        },
        {
          "internalType": "uint40",
          "name": "stableRateLastUpdated",
          "type": "uint40"
        },
        {
          "internalType": "bool",
          "name": "usageAsCollateralEnabled",
          "type": "bool"
        }
      ],
      "stateMutability": "view",
      "type": "function"
    }
  ],
  "bytecode": "0x60a06040523480156200001157600080fd5b5060405162002bcb38038062002bcb833981016040819052620000349162000046565b6001600160a01b031660805262000078565b6000602082840312156200005957600080fd5b81516001600160a01b03811681146200007157600080fd5b9392505050565b608051612ace620000fd6000396000818161010a015281816103ce015281816105110152818161063701528181610be601528181610fc7015281816111010152818161123e015281816113d901528181611520015281816116bb015281816117ee0152818161192101528181611d9701528181611f1001526120560152612ace6000f3fe608060405234801561001057600080fd5b50600436106101005760003560e01c806351460e2511610097578063b316ff8911610066578063b316ff891461033f578063b55d990414610354578063d2493b6c14610377578063f561ae41146103c157600080fd5b806351460e25146102ff5780636744362a1461031257806369b169e1146103255780637ba1ae361461032c57600080fd5b80633c798109116100d35780633c7981091461024a5780633cb8a6221461025d5780633e1501411461027057806346fbe558146102d757600080fd5b80630542975c14610105578063163a0f201461015657806328dd2d011461017757806335ea6a75146101d7575b600080fd5b61012c7f000000000000000000000000000000000000000000000000000000000000000081565b60405173ffffffffffffffffffffffffffffffffffffffff90911681526020015b60405180910390f35b610169610164366004612447565b6103c9565b60405190815260200161014d565b61018a610185366004612464565b610500565b60408051998a5260208a0198909852968801959095526060870193909352608086019190915260a085015260c084015264ffffffffff1660e083015215156101008201526101200161014d565b6101ea6101e5366004612447565b610bd0565b604080519c8d5260208d019b909b52998b019890985260608a0196909652608089019490945260a088019290925260c087015260e086015261010085015261012084015261014083015264ffffffffff166101608201526101800161014d565b610169610258366004612447565b610fc0565b61016961026b366004612447565b6110fa565b61028361027e366004612447565b61122b565b604080519a8b5260208b01999099529789019690965260608801949094526080870192909252151560a0860152151560c0850152151560e0840152151561010083015215156101208201526101400161014d565b6102ea6102e5366004612447565b6113d1565b6040805192835260208301919091520161014d565b61016961030d366004612447565b61151b565b61012c610320366004612447565b6116b6565b6002610169565b61016961033a366004612447565b6117e7565b61034761191b565b60405161014d9190612517565b610367610362366004612447565b611d90565b604051901515815260200161014d565b61038a610385366004612447565b611f08565b6040805173ffffffffffffffffffffffffffffffffffffffff9485168152928416602084015292169181019190915260600161014d565b610347612050565b6000807f000000000000000000000000000000000000000000000000000000000000000073ffffffffffffffffffffffffffffffffffffffff1663026b1d5f6040518163ffffffff1660e01b8152600401602060405180830381865afa158015610437573d6000803e3d6000fd5b505050506040513d601f19601f8201168201806040525081019061045b91906125d1565b6040517fc44b11f700000000000000000000000000000000000000000000000000000000815273ffffffffffffffffffffffffffffffffffffffff8581166004830152919091169063c44b11f790602401602060405180830381865afa1580156104c9573d6000803e3d6000fd5b505050506040513d601f19601f820116820180604052508101906104ed91906126d8565b805190915060a81c60ff165b9392505050565b6000806000806000806000806000807f000000000000000000000000000000000000000000000000000000000000000073ffffffffffffffffffffffffffffffffffffffff1663026b1d5f6040518163ffffffff1660e01b8152600401602060405180830381865afa15801561057a573d6000803e3d6000fd5b505050506040513d601f19601f8201168201806040525081019061059e91906125d1565b6040517f35ea6a7500000000000000000000000000000000000000000000000000000000815273ffffffffffffffffffffffffffffffffffffffff8e8116600483015291909116906335ea6a75906024016101e060405180830381865afa15801561060d573d6000803e3d6000fd5b505050506040513d601f19601f82011682018060405250810190610631919061273b565b905060007f000000000000000000000000000000000000000000000000000000000000000073ffffffffffffffffffffffffffffffffffffffff1663026b1d5f6040518163ffffffff1660e01b8152600401602060405180830381865afa1580156106a0573d6000803e3d6000fd5b505050506040513d601f19601f820116820180604052508101906106c491906125d1565b6040517f4417a58300000000000000000000000000000000000000000000000000000000815273ffffffffffffffffffffffffffffffffffffffff8e811660048301529190911690634417a58390602401602060405180830381865afa158015610732573d6000803e3d6000fd5b505050506040513d601f19601f8201168201806040525081019061075691906126d8565b6101008301516040517f70a0823100000000000000000000000000000000000000000000000000000000815273ffffffffffffffffffffffffffffffffffffffff8f811660048301529293509116906370a0823190602401602060405180830381865afa1580156107cb573d6000803e3d6000fd5b505050506040513d601f19601f820116820180604052508101906107ef919061285e565b6101408301516040517f70a0823100000000000000000000000000000000000000000000000000000000815273ffffffffffffffffffffffffffffffffffffffff8f81166004830152929d509116906370a0823190602401602060405180830381865afa158015610864573d6000803e3d6000fd5b505050506040513d601f19601f82011682018060405250810190610888919061285e565b6101208301516040517f70a0823100000000000000000000000000000000000000000000000000000000815273ffffffffffffffffffffffffffffffffffffffff8f81166004830152929b509116906370a0823190602401602060405180830381865afa1580156108fd573d6000803e3d6000fd5b505050506040513d601f19601f82011682018060405250810190610921919061285e565b6101208301516040517fc634dfaa00000000000000000000000000000000000000000000000000000000815273ffffffffffffffffffffffffffffffffffffffff8f81166004830152929c5091169063c634dfaa90602401602060405180830381865afa158015610996573d6000803e3d6000fd5b505050506040513d601f19601f820116820180604052508101906109ba919061285e565b6101408301516040517f1da24f3e00000000000000000000000000000000000000000000000000000000815273ffffffffffffffffffffffffffffffffffffffff8f81166004830152929a50911690631da24f3e90602401602060405180830381865afa158015610a2f573d6000803e3d6000fd5b505050506040513d601f19601f82011682018060405250810190610a53919061285e565b965081604001516fffffffffffffffffffffffffffffffff16945081610120015173ffffffffffffffffffffffffffffffffffffffff1663e78c9b3b8d6040518263ffffffff1660e01b8152600401610ac8919073ffffffffffffffffffffffffffffffffffffffff91909116815260200190565b602060405180830381865afa158015610ae5573d6000803e3d6000fd5b505050506040513d601f19601f82011682018060405250810190610b09919061285e565b6101208301516040517f79ce6b8c00000000000000000000000000000000000000000000000000000000815273ffffffffffffffffffffffffffffffffffffffff8f811660048301529298509116906379ce6b8c90602401602060405180830381865afa158015610b7e573d6000803e3d6000fd5b505050506040513d601f19601f82011682018060405250810190610ba29190612877565b9350610bbf8260e0015161ffff168261239590919063ffffffff16565b925050509295985092959850929598565b60008060008060008060008060008060008060007f000000000000000000000000000000000000000000000000000000000000000073ffffffffffffffffffffffffffffffffffffffff1663026b1d5f6040518163ffffffff1660e01b8152600401602060405180830381865afa158015610c4f573d6000803e3d6000fd5b505050506040513d601f19601f82011682018060405250810190610c7391906125d1565b73ffffffffffffffffffffffffffffffffffffffff166335ea6a758f6040518263ffffffff1660e01b8152600401610cc7919073ffffffffffffffffffffffffffffffffffffffff91909116815260200190565b6101e060405180830381865afa158015610ce5573d6000803e3d6000fd5b505050506040513d601f19601f82011682018060405250810190610d09919061273b565b9050806101a0015181610180015182610100015173ffffffffffffffffffffffffffffffffffffffff166318160ddd6040518163ffffffff1660e01b8152600401602060405180830381865afa158015610d67573d6000803e3d6000fd5b505050506040513d601f19601f82011682018060405250810190610d8b919061285e565b83610120015173ffffffffffffffffffffffffffffffffffffffff166318160ddd6040518163ffffffff1660e01b8152600401602060405180830381865afa158015610ddb573d6000803e3d6000fd5b505050506040513d601f19601f82011682018060405250810190610dff919061285e565b84610140015173ffffffffffffffffffffffffffffffffffffffff166318160ddd6040518163ffffffff1660e01b8152600401602060405180830381865afa158015610e4f573d6000803e3d6000fd5b505050506040513d601f19601f82011682018060405250810190610e73919061285e565b856040015186608001518760a0015188610120015173ffffffffffffffffffffffffffffffffffffffff166390f6fcf26040518163ffffffff1660e01b8152600401602060405180830381865afa158015610ed2573d6000803e3d6000fd5b505050506040513d601f19601f82011682018060405250810190610ef6919061285e565b89602001518a606001518b60c001518b6fffffffffffffffffffffffffffffffff169b508a6fffffffffffffffffffffffffffffffff169a50866fffffffffffffffffffffffffffffffff169650856fffffffffffffffffffffffffffffffff169550846fffffffffffffffffffffffffffffffff169450826fffffffffffffffffffffffffffffffff169250816fffffffffffffffffffffffffffffffff1691509c509c509c509c509c509c509c509c509c509c509c509c505091939597999b5091939597999b565b60006110f47f000000000000000000000000000000000000000000000000000000000000000073ffffffffffffffffffffffffffffffffffffffff1663026b1d5f6040518163ffffffff1660e01b8152600401602060405180830381865afa158015611030573d6000803e3d6000fd5b505050506040513d601f19601f8201168201806040525081019061105491906125d1565b6040517fc44b11f700000000000000000000000000000000000000000000000000000000815273ffffffffffffffffffffffffffffffffffffffff8581166004830152919091169063c44b11f790602401602060405180830381865afa1580156110c2573d6000803e3d6000fd5b505050506040513d601f19601f820116820180604052508101906110e691906126d8565b5160d41c64ffffffffff1690565b92915050565b60006110f47f000000000000000000000000000000000000000000000000000000000000000073ffffffffffffffffffffffffffffffffffffffff1663026b1d5f6040518163ffffffff1660e01b8152600401602060405180830381865afa15801561116a573d6000803e3d6000fd5b505050506040513d601f19601f8201168201806040525081019061118e91906125d1565b6040517fc44b11f700000000000000000000000000000000000000000000000000000000815273ffffffffffffffffffffffffffffffffffffffff8581166004830152919091169063c44b11f790602401602060405180830381865afa1580156111fc573d6000803e3d6000fd5b505050506040513d601f19601f8201168201806040525081019061122091906126d8565b5160981c61ffff1690565b60008060008060008060008060008060007f000000000000000000000000000000000000000000000000000000000000000073ffffffffffffffffffffffffffffffffffffffff1663026b1d5f6040518163ffffffff1660e01b8152600401602060405180830381865afa1580156112a7573d6000803e3d6000fd5b505050506040513d601f19601f820116820180604052508101906112cb91906125d1565b6040517fc44b11f700000000000000000000000000000000000000000000000000000000815273ffffffffffffffffffffffffffffffffffffffff8e81166004830152919091169063c44b11f790602401602060405180830381865afa158015611339573d6000803e3d6000fd5b505050506040513d601f19601f8201168201806040525081019061135d91906126d8565b5160ff603082901c169d61ffff8083169e50601083901c81169d50602083901c81169c50604083901c169a508c151599506704000000000000008216151598506708000000000000008216151597506701000000000000008216151596506702000000000000009091161515945092505050565b6000806115117f000000000000000000000000000000000000000000000000000000000000000073ffffffffffffffffffffffffffffffffffffffff1663026b1d5f6040518163ffffffff1660e01b8152600401602060405180830381865afa158015611442573d6000803e3d6000fd5b505050506040513d601f19601f8201168201806040525081019061146691906125d1565b6040517fc44b11f700000000000000000000000000000000000000000000000000000000815273ffffffffffffffffffffffffffffffffffffffff8681166004830152919091169063c44b11f790602401602060405180830381865afa1580156114d4573d6000803e3d6000fd5b505050506040513d601f19601f820116820180604052508101906114f891906126d8565b51640fffffffff605082901c81169260749290921c1690565b9094909350915050565b6000807f000000000000000000000000000000000000000000000000000000000000000073ffffffffffffffffffffffffffffffffffffffff1663026b1d5f6040518163ffffffff1660e01b8152600401602060405180830381865afa158015611589573d6000803e3d6000fd5b505050506040513d601f19601f820116820180604052508101906115ad91906125d1565b6040517f35ea6a7500000000000000000000000000000000000000000000000000000000815273ffffffffffffffffffffffffffffffffffffffff858116600483015291909116906335ea6a75906024016101e060405180830381865afa15801561161c573d6000803e3d6000fd5b505050506040513d601f19601f82011682018060405250810190611640919061273b565b905080610100015173ffffffffffffffffffffffffffffffffffffffff166318160ddd6040518163ffffffff1660e01b8152600401602060405180830381865afa158015611692573d6000803e3d6000fd5b505050506040513d601f19601f820116820180604052508101906104f9919061285e565b6000807f000000000000000000000000000000000000000000000000000000000000000073ffffffffffffffffffffffffffffffffffffffff1663026b1d5f6040518163ffffffff1660e01b8152600401602060405180830381865afa158015611724573d6000803e3d6000fd5b505050506040513d601f19601f8201168201806040525081019061174891906125d1565b6040517f35ea6a7500000000000000000000000000000000000000000000000000000000815273ffffffffffffffffffffffffffffffffffffffff858116600483015291909116906335ea6a75906024016101e060405180830381865afa1580156117b7573d6000803e3d6000fd5b505050506040513d601f19601f820116820180604052508101906117db919061273b565b61016001519392505050565b60006110f47f000000000000000000000000000000000000000000000000000000000000000073ffffffffffffffffffffffffffffffffffffffff1663026b1d5f6040518163ffffffff1660e01b8152600401602060405180830381865afa158015611857573d6000803e3d6000fd5b505050506040513d601f19601f8201168201806040525081019061187b91906125d1565b6040517fc44b11f700000000000000000000000000000000000000000000000000000000815273ffffffffffffffffffffffffffffffffffffffff8581166004830152919091169063c44b11f790602401602060405180830381865afa1580156118e9573d6000803e3d6000fd5b505050506040513d601f19601f8201168201806040525081019061190d91906126d8565b5160b01c640fffffffff1690565b606060007f000000000000000000000000000000000000000000000000000000000000000073ffffffffffffffffffffffffffffffffffffffff1663026b1d5f6040518163ffffffff1660e01b8152600401602060405180830381865afa15801561198a573d6000803e3d6000fd5b505050506040513d601f19601f820116820180604052508101906119ae91906125d1565b905060008173ffffffffffffffffffffffffffffffffffffffff1663d1946dbc6040518163ffffffff1660e01b8152600401600060405180830381865afa1580156119fd573d6000803e3d6000fd5b505050506040513d6000823e601f3d9081017fffffffffffffffffffffffffffffffffffffffffffffffffffffffffffffffe0168201604052611a439190810190612892565b90506000815167ffffffffffffffff811115611a6157611a616125ee565b604051908082528060200260200182016040528015611aa757816020015b604080518082019091526060815260006020820152815260200190600190039081611a7f5790505b50905060005b8251811015611d8857739f8f72aa9304c8b593d555f12ef6589cc3a579a273ffffffffffffffffffffffffffffffffffffffff16838281518110611af357611af3612944565b602002602001015173ffffffffffffffffffffffffffffffffffffffff161415611bb25760405180604001604052806040518060400160405280600381526020017f4d4b5200000000000000000000000000000000000000000000000000000000008152508152602001848381518110611b6f57611b6f612944565b602002602001015173ffffffffffffffffffffffffffffffffffffffff16815250828281518110611ba257611ba2612944565b6020026020010181905250611d76565b73eeeeeeeeeeeeeeeeeeeeeeeeeeeeeeeeeeeeeeee73ffffffffffffffffffffffffffffffffffffffff16838281518110611bef57611bef612944565b602002602001015173ffffffffffffffffffffffffffffffffffffffff161415611c6b5760405180604001604052806040518060400160405280600381526020017f45544800000000000000000000000000000000000000000000000000000000008152508152602001848381518110611b6f57611b6f612944565b6040518060400160405280848381518110611c8857611c88612944565b602002602001015173ffffffffffffffffffffffffffffffffffffffff166395d89b416040518163ffffffff1660e01b8152600401600060405180830381865afa158015611cda573d6000803e3d6000fd5b505050506040513d6000823e601f3d9081017fffffffffffffffffffffffffffffffffffffffffffffffffffffffffffffffe0168201604052611d209190810190612973565b8152602001848381518110611d3757611d37612944565b602002602001015173ffffffffffffffffffffffffffffffffffffffff16815250828281518110611d6a57611d6a612944565b60200260200101819052505b80611d8081612a25565b915050611aad565b509392505050565b6000611efe7f000000000000000000000000000000000000000000000000000000000000000073ffffffffffffffffffffffffffffffffffffffff1663026b1d5f6040518163ffffffff1660e01b8152600401602060405180830381865afa158015611e00573d6000803e3d6000fd5b505050506040513d601f19601f82011682018060405250810190611e2491906125d1565b6040517fc44b11f700000000000000000000000000000000000000000000000000000000815273ffffffffffffffffffffffffffffffffffffffff8581166004830152919091169063c44b11f790602401602060405180830381865afa158015611e92573d6000803e3d6000fd5b505050506040513d601f19601f82011682018060405250810190611eb691906126d8565b51670100000000000000811615159167020000000000000082161515916704000000000000008116151591670800000000000000821615159167100000000000000016151590565b9695505050505050565b6000806000807f000000000000000000000000000000000000000000000000000000000000000073ffffffffffffffffffffffffffffffffffffffff1663026b1d5f6040518163ffffffff1660e01b8152600401602060405180830381865afa158015611f79573d6000803e3d6000fd5b505050506040513d601f19601f82011682018060405250810190611f9d91906125d1565b6040517f35ea6a7500000000000000000000000000000000000000000000000000000000815273ffffffffffffffffffffffffffffffffffffffff878116600483015291909116906335ea6a75906024016101e060405180830381865afa15801561200c573d6000803e3d6000fd5b505050506040513d601f19601f82011682018060405250810190612030919061273b565b610100810151610120820151610140909201519097919650945092505050565b606060007f000000000000000000000000000000000000000000000000000000000000000073ffffffffffffffffffffffffffffffffffffffff1663026b1d5f6040518163ffffffff1660e01b8152600401602060405180830381865afa1580156120bf573d6000803e3d6000fd5b505050506040513d601f19601f820116820180604052508101906120e391906125d1565b905060008173ffffffffffffffffffffffffffffffffffffffff1663d1946dbc6040518163ffffffff1660e01b8152600401600060405180830381865afa158015612132573d6000803e3d6000fd5b505050506040513d6000823e601f3d9081017fffffffffffffffffffffffffffffffffffffffffffffffffffffffffffffffe01682016040526121789190810190612892565b90506000815167ffffffffffffffff811115612196576121966125ee565b6040519080825280602002602001820160405280156121dc57816020015b6040805180820190915260608152600060208201528152602001906001900390816121b45790505b50905060005b8251811015611d885760008473ffffffffffffffffffffffffffffffffffffffff166335ea6a7585848151811061221b5761221b612944565b60200260200101516040518263ffffffff1660e01b815260040161225b919073ffffffffffffffffffffffffffffffffffffffff91909116815260200190565b6101e060405180830381865afa158015612279573d6000803e3d6000fd5b505050506040513d601f19601f8201168201806040525081019061229d919061273b565b9050604051806040016040528082610100015173ffffffffffffffffffffffffffffffffffffffff166395d89b416040518163ffffffff1660e01b8152600401600060405180830381865afa1580156122fa573d6000803e3d6000fd5b505050506040513d6000823e601f3d9081017fffffffffffffffffffffffffffffffffffffffffffffffffffffffffffffffe01682016040526123409190810190612973565b815260200182610100015173ffffffffffffffffffffffffffffffffffffffff1681525083838151811061237657612376612944565b602002602001018190525050808061238d90612a25565b9150506121e2565b60408051808201909152600281527f3734000000000000000000000000000000000000000000000000000000000000602082015260009060808310612410576040517f08c379a00000000000000000000000000000000000000000000000000000000081526004016124079190612a85565b60405180910390fd5b50509051600191821b82011c16151590565b73ffffffffffffffffffffffffffffffffffffffff8116811461244457600080fd5b50565b60006020828403121561245957600080fd5b81356104f981612422565b6000806040838503121561247757600080fd5b823561248281612422565b9150602083013561249281612422565b809150509250929050565b60005b838110156124b85781810151838201526020016124a0565b838111156124c7576000848401525b50505050565b600081518084526124e581602086016020860161249d565b601f017fffffffffffffffffffffffffffffffffffffffffffffffffffffffffffffffe0169290920160200192915050565b60006020808301818452808551808352604092508286019150828160051b87010184880160005b838110156125b3577fffffffffffffffffffffffffffffffffffffffffffffffffffffffffffffffc089840301855281518051878552612580888601826124cd565b9189015173ffffffffffffffffffffffffffffffffffffffff16948901949094529487019492509086019060010161253e565b509098975050505050505050565b80516125cc81612422565b919050565b6000602082840312156125e357600080fd5b81516104f981612422565b7f4e487b7100000000000000000000000000000000000000000000000000000000600052604160045260246000fd5b6040516101e0810167ffffffffffffffff81118282101715612641576126416125ee565b60405290565b604051601f82017fffffffffffffffffffffffffffffffffffffffffffffffffffffffffffffffe016810167ffffffffffffffff8111828210171561268e5761268e6125ee565b604052919050565b6000602082840312156126a857600080fd5b6040516020810181811067ffffffffffffffff821117156126cb576126cb6125ee565b6040529151825250919050565b6000602082840312156126ea57600080fd5b6104f98383612696565b80516fffffffffffffffffffffffffffffffff811681146125cc57600080fd5b805164ffffffffff811681146125cc57600080fd5b805161ffff811681146125cc57600080fd5b60006101e0828403121561274e57600080fd5b61275661261d565b6127608484612696565b815261276e602084016126f4565b602082015261277f604084016126f4565b6040820152612790606084016126f4565b60608201526127a1608084016126f4565b60808201526127b260a084016126f4565b60a08201526127c360c08401612714565b60c08201526127d460e08401612729565b60e08201526101006127e78185016125c1565b908201526101206127f98482016125c1565b9082015261014061280b8482016125c1565b9082015261016061281d8482016125c1565b9082015261018061282f8482016126f4565b908201526101a06128418482016126f4565b908201526101c06128538482016126f4565b908201529392505050565b60006020828403121561287057600080fd5b5051919050565b60006020828403121561288957600080fd5b6104f982612714565b600060208083850312156128a557600080fd5b825167ffffffffffffffff808211156128bd57600080fd5b818501915085601f8301126128d157600080fd5b8151818111156128e3576128e36125ee565b8060051b91506128f4848301612647565b818152918301840191848101908884111561290e57600080fd5b938501935b83851015612938578451925061292883612422565b8282529385019390850190612913565b98975050505050505050565b7f4e487b7100000000000000000000000000000000000000000000000000000000600052603260045260246000fd5b60006020828403121561298557600080fd5b815167ffffffffffffffff8082111561299d57600080fd5b818401915084601f8301126129b157600080fd5b8151818111156129c3576129c36125ee565b6129f460207fffffffffffffffffffffffffffffffffffffffffffffffffffffffffffffffe0601f84011601612647565b9150808252856020828501011115612a0b57600080fd5b612a1c81602084016020860161249d565b50949350505050565b60007fffffffffffffffffffffffffffffffffffffffffffffffffffffffffffffffff821415612a7e577f4e487b7100000000000000000000000000000000000000000000000000000000600052601160045260246000fd5b5060010190565b6020815260006104f960208301846124cd56fea2646970667358221220e357b2b7fea8fc70913af7f021c8c3bc29a5b452d23e05d36057222cad76831264736f6c634300080a0033",
  "linkReferences": {},
  "deployedLinkReferences": {}
}