{"abi":[{"type":"constructor","inputs":[{"name":"customEngine","type":"address","internalType":"address"}],"stateMutability":"nonpayable"},{"type":"function","name":"CONFIG_ENGINE","inputs":[],"outputs":[{"name":"","type":"address","internalType":"contract IAaveV3ConfigEngine"}],"stateMutability":"view"},{"type":"function","name":"assetsEModeUpdates","inputs":[],"outputs":[{"name":"","type":"tuple[]","internalType":"struct IAaveV3ConfigEngine.AssetEModeUpdate[]","components":[{"name":"asset","type":"address","internalType":"address"},{"name":"eModeCategory","type":"uint8","internalType":"uint8"},{"name":"borrowable","type":"uint256","internalType":"uint256"},{"name":"collateral","type":"uint256","internalType":"uint256"}]}],"stateMutability":"view"},{"type":"function","name":"borrowsUpdates","inputs":[],"outputs":[{"name":"","type":"tuple[]","internalType":"struct IAaveV3ConfigEngine.BorrowUpdate[]","components":[{"name":"asset","type":"address","internalType":"address"},{"name":"enabledToBorrow","type":"uint256","internalType":"uint256"},{"name":"flashloanable","type":"uint256","internalType":"uint256"},{"name":"borrowableInIsolation","type":"uint256","internalType":"uint256"},{"name":"withSiloedBorrowing","type":"uint256","internalType":"uint256"},{"name":"reserveFactor","type":"uint256","internalType":"uint256"}]}],"stateMutability":"view"},{"type":"function","name":"capsUpdates","inputs":[],"outputs":[{"name":"","type":"tuple[]","internalType":"struct IAaveV3ConfigEngine.CapsUpdate[]","components":[{"name":"asset","type":"address","internalType":"address"},{"name":"supplyCap","type":"uint256","internalType":"uint256"},{"name":"borrowCap","type":"uint256","internalType":"uint256"}]}],"stateMutability":"view"},{"type":"function","name":"collateralsUpdates","inputs":[],"outputs":[{"name":"","type":"tuple[]","internalType":"struct IAaveV3ConfigEngine.CollateralUpdate[]","components":[{"name":"asset","type":"address","internalType":"address"},{"name":"ltv","type":"uint256","internalType":"uint256"},{"name":"liqThreshold","type":"uint256","internalType":"uint256"},{"name":"liqBonus","type":"uint256","internalType":"uint256"},{"name":"debtCeiling","type":"uint256","internalType":"uint256"},{"name":"liqProtocolFee","type":"uint256","internalType":"uint256"}]}],"stateMutability":"view"},{"type":"function","name":"eModeCategoriesUpdates","inputs":[],"outputs":[{"name":"","type":"tuple[]","internalType":"struct IAaveV3ConfigEngine.EModeCategoryUpdate[]","components":[{"name":"eModeCategory","type":"uint8","internalType":"uint8"},{"name":"ltv","type":"uint256","internalType":"uint256"},{"name":"liqThreshold","type":"uint256","internalType":"uint256"},{"name":"liqBonus","type":"uint256","internalType":"uint256"},{"name":"label","type":"string","internalType":"string"}]}],"stateMutability":"pure"},{"type":"function","name":"execute","inputs":[],"outputs":[],"stateMutability":"nonpayable"},{"type":"function","name":"getPoolContext","inputs":[],"outputs":[{"name":"","type":"tuple","internalType":"struct IAaveV3ConfigEngine.PoolContext","components":[{"name":"networkName","type":"string","internalType":"string"},{"name":"networkAbbreviation","type":"string","internalType":"string"}]}],"stateMutability":"pure"},{"type":"function","name":"newListings","inputs":[],"outputs":[{"name":"","type":"tuple[]","internalType":"struct IAaveV3ConfigEngine.Listing[]","components":[{"name":"asset","type":"address","internalType":"address"},{"name":"assetSymbol","type":"string","internalType":"string"},{"name":"priceFeed","type":"address","internalType":"address"},{"name":"rateStrategyParams","type":"tuple","internalType":"struct IAaveV3ConfigEngine.InterestRateInputData","components":[{"name":"optimalUsageRatio","type":"uint256","internalType":"uint256"},{"name":"baseVariableBorrowRate","type":"uint256","internalType":"uint256"},{"name":"variableRateSlope1","type":"uint256","internalType":"uint256"},{"name":"variableRateSlope2","type":"uint256","internalType":"uint256"}]},{"name":"enabledToBorrow","type":"uint256","internalType":"uint256"},{"name":"borrowableInIsolation","type":"uint256","internalType":"uint256"},{"name":"withSiloedBorrowing","type":"uint256","internalType":"uint256"},{"name":"flashloanable","type":"uint256","internalType":"uint256"},{"name":"ltv","type":"uint256","internalType":"uint256"},{"name":"liqThreshold","type":"uint256","internalType":"uint256"},{"name":"liqBonus","type":"uint256","internalType":"uint256"},{"name":"reserveFactor","type":"uint256","internalType":"uint256"},{"name":"supplyCap","type":"uint256","internalType":"uint256"},{"name":"borrowCap","type":"uint256","internalType":"uint256"},{"name":"debtCeiling","type":"uint256","internalType":"uint256"},{"name":"liqProtocolFee","type":"uint256","internalType":"uint256"}]}],"stateMutability":"view"},{"type":"function","name":"newListingsCustom","inputs":[],"outputs":[{"name":"","type":"tuple[]","internalType":"struct IAaveV3ConfigEngine.ListingWithCustomImpl[]","components":[{"name":"base","type":"tuple","internalType":"struct IAaveV3ConfigEngine.Listing","components":[{"name":"asset","type":"address","internalType":"address"},{"name":"assetSymbol","type":"string","internalType":"string"},{"name":"priceFeed","type":"address","internalType":"address"},{"name":"rateStrategyParams","type":"tuple","internalType":"struct IAaveV3ConfigEngine.InterestRateInputData","components":[{"name":"optimalUsageRatio","type":"uint256","internalType":"uint256"},{"name":"baseVariableBorrowRate","type":"uint256","internalType":"uint256"},{"name":"variableRateSlope1","type":"uint256","internalType":"uint256"},{"name":"variableRateSlope2","type":"uint256","internalType":"uint256"}]},{"name":"enabledToBorrow","type":"uint256","internalType":"uint256"},{"name":"borrowableInIsolation","type":"uint256","internalType":"uint256"},{"name":"withSiloedBorrowing","type":"uint256","internalType":"uint256"},{"name":"flashloanable","type":"uint256","internalType":"uint256"},{"name":"ltv","type":"uint256","internalType":"uint256"},{"name":"liqThreshold","type":"uint256","internalType":"uint256"},{"name":"liqBonus","type":"uint256","internalType":"uint256"},{"name":"reserveFactor","type":"uint256","internalType":"uint256"},{"name":"supplyCap","type":"uint256","internalType":"uint256"},{"name":"borrowCap","type":"uint256","internalType":"uint256"},{"name":"debtCeiling","type":"uint256","internalType":"uint256"},{"name":"liqProtocolFee","type":"uint256","internalType":"uint256"}]},{"name":"implementations","type":"tuple","internalType":"struct IAaveV3ConfigEngine.TokenImplementations","components":[{"name":"aToken","type":"address","internalType":"address"},{"name":"vToken","type":"address","internalType":"address"}]}]}],"stateMutability":"view"},{"type":"function","name":"priceFeedsUpdates","inputs":[],"outputs":[{"name":"","type":"tuple[]","internalType":"struct IAaveV3ConfigEngine.PriceFeedUpdate[]","components":[{"name":"asset","type":"address","internalType":"address"},{"name":"priceFeed","type":"address","internalType":"address"}]}],"stateMutability":"view"},{"type":"function","name":"rateStrategiesUpdates","inputs":[],"outputs":[{"name":"","type":"tuple[]","internalType":"struct IAaveV3ConfigEngine.RateStrategyUpdate[]","components":[{"name":"asset","type":"address","internalType":"address"},{"name":"params","type":"tuple","internalType":"struct IAaveV3ConfigEngine.InterestRateInputData","components":[{"name":"optimalUsageRatio","type":"uint256","internalType":"uint256"},{"name":"baseVariableBorrowRate","type":"uint256","internalType":"uint256"},{"name":"variableRateSlope1","type":"uint256","internalType":"uint256"},{"name":"variableRateSlope2","type":"uint256","internalType":"uint256"}]}]}],"stateMutability":"view"}],"bytecode":{"object":"0x60a060405234801561000f575f80fd5b50604051610d1f380380610d1f83398101604081905261002e9161003f565b6001600160a01b031660805261006c565b5f6020828403121561004f575f80fd5b81516001600160a01b0381168114610065575f80fd5b9392505050565b608051610c9561008a5f395f818160e101526102250152610c955ff3fe608060405234801561000f575f80fd5b50600436106100b1575f3560e01c8063b1af0d0d1161006e578063b1af0d0d14610143578063c0a2558014610152578063ca8e89cc14610161578063d0c38c2714610176578063fabe346314610185578063fbb256f614610194575f80fd5b80631850edd8146100b55780632b179434146100cd5780635e5eef7a146100dc578063614619541461011b578063922870951461012557806395a93cb114610134575b5f80fd5b60606040516100c49190610676565b60405180910390f35b60606040516100c491906106c3565b6101037f000000000000000000000000000000000000000000000000000000000000000081565b6040516001600160a01b0390911681526020016100c4565b6101236101a9565b005b60606040516100c49190610704565b60606040516100c49190610773565b60606040516100c491906107c7565b60606040516100c491906109c5565b610169610392565b6040516100c491906109d7565b60606040516100c49190610a6d565b60606040516100c49190610b5f565b61019c610489565b6040516100c49190610ba7565b5f6101b2610392565b805190915060609081908190819081908190819081901561024d5761024b634ee1151a60e01b8a6040516024016101e991906109d7565b60408051601f198184030181529190526020810180516001600160e01b03166001600160e01b0319909316929092179091526001600160a01b037f000000000000000000000000000000000000000000000000000000000000000016906104e5565b505b87511561027b57610279630b393a0960e11b610267610489565b8a6040516024016101e9929190610bb9565b505b8651156102a9576102a76311577d8d60e01b610295610489565b896040516024016101e9929190610bdd565b505b8451156102ce576102cc63f1c2652c60e01b866040516024016101e99190610676565b505b8551156102f3576102f16309d8332860e01b876040516024016101e991906106c3565b505b8351156103185761031663b79421eb60e01b856040516024016101e99190610a6d565b505b82511561033d5761033b63927c400360e01b846040516024016101e991906107c7565b505b815115610362576103606312146c7060e01b836040516024016101e99190610704565b505b805115610387576103856355caa16360e01b826040516024016101e99190610773565b505b505050505050505050565b6040805160018082528183019092526060915f9190816020015b6103dd6040518060a001604052805f60ff1681526020015f81526020015f81526020015f8152602001606081525090565b8152602001906001900390816103ac5750506040805160a081019091526001815290915060208101610411602a5f19610c01565b8152602001610422602a5f19610c01565b8152602001610433602a5f19610c01565b8152602001604051806040016040528060138152602001724b4545505f43555252454e545f535452494e4760681b815250815250815f8151811061047957610479610c20565b6020908102919091010152919050565b60408051808201909152606080825260208201525060408051608081018252600581830190815264131bd8d85b60da1b60608301528152815180830190925260038252624c6f6360e81b60208381019190915281019190915290565b606061050a8383604051806060016040528060278152602001610c6260279139610513565b90505b92915050565b60605f80856001600160a01b03168560405161052f9190610c34565b5f60405180830381855af49150503d805f8114610567576040519150601f19603f3d011682016040523d82523d5f602084013e61056c565b606091505b509150915061057d86838387610587565b9695505050505050565b606083156105fa5782515f036105f3576001600160a01b0385163b6105f35760405162461bcd60e51b815260206004820152601d60248201527f416464726573733a2063616c6c20746f206e6f6e2d636f6e747261637400000060448201526064015b60405180910390fd5b5081610604565b610604838361060c565b949350505050565b81511561061c5781518083602001fd5b8060405162461bcd60e51b81526004016105ea9190610c4f565b80516001600160a01b031682526020808201519083015260408082015190830152606080820151908301526080808201519083015260a090810151910152565b602080825282518282018190525f9190848201906040850190845b818110156106b7576106a4838551610636565b9284019260c09290920191600101610691565b50909695505050505050565b602080825282518282018190525f9190848201906040850190845b818110156106b7576106f1838551610636565b9284019260c092909201916001016106de565b602080825282518282018190525f919060409081850190868401855b8281101561076657815180516001600160a01b031685528681015160ff168786015285810151868601526060908101519085015260809093019290850190600101610720565b5091979650505050505050565b602080825282518282018190525f919060409081850190868401855b8281101561076657815180516001600160a01b031685528681015187860152850151858501526060909301929085019060010161078f565b602080825282518282018190525f919060409081850190868401855b828110156107665761080c84835180516001600160a01b03908116835260209182015116910152565b92840192908501906001016107e3565b5f5b8381101561083657818101518382015260200161081e565b50505f910152565b5f815180845261085581602086016020860161081c565b601f01601f19169290920160200192915050565b80516001600160a01b031682525f61026060208301518160208601526108918286018261083e565b91505060408301516108ae60408601826001600160a01b03169052565b5060608381015180518683015260208101516080870152604081015160a08701529081015160c086015250608083015160e08581019190915260a08401516101008087019190915260c085015161012080880191909152918501516101408088019190915290850151610160808801919091529185015161018080880191909152908501516101a080880191909152918501516101c080880191909152908501516101e080880191909152918501516102008701528401516102208601529092015161024090930192909252919050565b5f81518084526020808501808196508360051b810191508286015f5b858110156107665782840389526109b3848351610869565b9885019893509084019060010161099b565b602081525f61050a602083018461097f565b5f6020808301818452808551808352604092508286019150828160051b8701018488015f5b83811015610a5f57888303603f190185528151805160ff168452878101518885015286810151878501526060808201519085015260809081015160a091850182905290610a4b8186018361083e565b9689019694505050908601906001016109fc565b509098975050505050505050565b602080825282518282018190525f9190848201906040850190845b818110156106b757835180516001600160a01b03168452850151610acf86850182805182526020810151602083015260408101516040830152606081015160608301525050565b509284019260a09290920191600101610a88565b5f81518084526020808501808196508360051b810191508286015f5b85811015610766578284038952815160608151818752610b2182880182610869565b915050868201519150610b4c8787018380516001600160a01b03908116835260209182015116910152565b9986019994505090840190600101610aff565b602081525f61050a6020830184610ae3565b5f815160408452610b85604085018261083e565b905060208301518482036020860152610b9e828261083e565b95945050505050565b602081525f61050a6020830184610b71565b604081525f610bcb6040830185610b71565b8281036020840152610b9e818561097f565b604081525f610bef6040830185610b71565b8281036020840152610b9e8185610ae3565b8181038181111561050d57634e487b7160e01b5f52601160045260245ffd5b634e487b7160e01b5f52603260045260245ffd5b5f8251610c4581846020870161081c565b9190910192915050565b602081525f61050a602083018461083e56fe416464726573733a206c6f772d6c6576656c2064656c65676174652063616c6c206661696c6564a164736f6c6343000814000a","linkReferences":{}},"methodIdentifiers":{"CONFIG_ENGINE()":"5e5eef7a","assetsEModeUpdates()":"92287095","borrowsUpdates()":"1850edd8","capsUpdates()":"95a93cb1","collateralsUpdates()":"2b179434","eModeCategoriesUpdates()":"ca8e89cc","execute()":"61461954","getPoolContext()":"fbb256f6","newListings()":"c0a25580","newListingsCustom()":"fabe3463","priceFeedsUpdates()":"b1af0d0d","rateStrategiesUpdates()":"d0c38c27"},"id":334}