{"abi":[{"type":"constructor","inputs":[{"name":"l2Flag","type":"bool","internalType":"bool"},{"name":"poolAddressesProvider","type":"address","internalType":"address"},{"name":"sequencerUptimeOracle","type":"address","internalType":"address"},{"name":"gracePeriod","type":"uint256","internalType":"uint256"}],"stateMutability":"nonpayable"},{"type":"function","name":"getMiscReport","inputs":[],"outputs":[{"name":"","type":"tuple","internalType":"struct MiscReport","components":[{"name":"priceOracleSentinel","type":"address","internalType":"address"},{"name":"defaultInterestRateStrategy","type":"address","internalType":"address"}]}],"stateMutability":"view"},{"type":"error","name":"L2MustBeDisabled","inputs":[]},{"type":"error","name":"L2MustBeEnabled","inputs":[]},{"type":"error","name":"ProviderNotFound","inputs":[]},{"type":"error","name":"ProxyAdminNotFound","inputs":[]}],"bytecode":{"object":"0x608060405234801561000f575f80fd5b50604051611aae380380611aae83398101604081905261002e916101ac565b5f61003b85858585610078565b80515f80546001600160a01b03199081166001600160a01b0393841617909155602090920151600180549093169116179055506101fa9350505050565b604080518082019091525f80825260208201526001600160a01b0384166100b25760405163b1cd090360e01b815260040160405180910390fd5b8480156100c757506001600160a01b03831615155b80156100d257508115155b1561012a578383836040516100e690610177565b6001600160a01b0393841681529290911660208301526040820152606001604051809103905ff08015801561011d573d5f803e3d5ffd5b506001600160a01b031681525b8360405161013790610184565b6001600160a01b039091168152602001604051809103905ff080158015610160573d5f803e3d5ffd5b506001600160a01b03166020820152949350505050565b61075c8061028f83390190565b6110c3806109eb83390190565b80516001600160a01b03811681146101a7575f80fd5b919050565b5f805f80608085870312156101bf575f80fd5b845180151581146101ce575f80fd5b93506101dc60208601610191565b92506101ea60408601610191565b6060959095015193969295505050565b6089806102065f395ff3fe6080604052348015600e575f80fd5b50600436106026575f3560e01c8063edffa84714602a575b5f80fd5b6040805180820182525f80825260209182018190528251808401845290546001600160a01b03908116808352600154821692840192835284519081529151169181019190915281519081900390910190f3fea164736f6c6343000814000a60a060405234801561000f575f80fd5b5060405161075c38038061075c83398101604081905261002e91610073565b6001600160a01b039283166080525f80546001600160a01b03191692909316919091179091556001556100b3565b6001600160a01b0381168114610070575f80fd5b50565b5f805f60608486031215610085575f80fd5b83516100908161005c565b60208501519093506100a18161005c565b80925050604084015190509250925092565b6080516106846100d85f395f818160830152818161013401526102b501526106845ff3fe608060405234801561000f575f80fd5b506004361061007a575f3560e01c80637a5d20ea116100585780637a5d20ea146100d2578063dbd18388146100ea578063f0aef31c146100fb578063f2f6596014610110575f80fd5b80630542975c1461007e57806312168dc2146100c257806349aa2e81146100d2575b5f80fd5b6100a57f000000000000000000000000000000000000000000000000000000000000000081565b6040516001600160a01b0390911681526020015b60405180910390f35b5f546001600160a01b03166100a5565b6100da610123565b60405190151581526020016100b9565b6001546040519081526020016100b9565b61010e61010936600461052a565b610131565b005b61010e61011e36600461054c565b6102b2565b5f61012c610476565b905090565b5f7f00000000000000000000000000000000000000000000000000000000000000006001600160a01b031663707cd7166040518163ffffffff1660e01b8152600401602060405180830381865afa15801561018e573d5f803e3d5ffd5b505050506040513d601f19601f820116820180604052508101906101b29190610563565b604051637be53ca160e01b81523360048201529091506001600160a01b03821690637be53ca190602401602060405180830381865afa1580156101f7573d5f803e3d5ffd5b505050506040513d601f19601f8201168201806040525081019061021b919061057e565b604051806040016040528060018152602001603160f81b8152509061025c5760405162461bcd60e51b8152600401610253919061059d565b60405180910390fd5b505f80546001600160a01b0319166001600160a01b0384169081179091556040519081527f95cbf1d8f44ec81ff345ed9cf2fe53b6a6473e072bf046ee412f198c54dba449906020015b60405180910390a15050565b5f7f00000000000000000000000000000000000000000000000000000000000000006001600160a01b031663707cd7166040518163ffffffff1660e01b8152600401602060405180830381865afa15801561030f573d5f803e3d5ffd5b505050506040513d601f19601f820116820180604052508101906103339190610563565b60405163674b5e4d60e01b81523360048201529091506001600160a01b0382169063674b5e4d90602401602060405180830381865afa158015610378573d5f803e3d5ffd5b505050506040513d601f19601f8201168201806040525081019061039c919061057e565b806104085750604051637be53ca160e01b81523360048201526001600160a01b03821690637be53ca190602401602060405180830381865afa1580156103e4573d5f803e3d5ffd5b505050506040513d601f19601f82011682018060405250810190610408919061057e565b604051806040016040528060018152602001600d60fa1b815250906104405760405162461bcd60e51b8152600401610253919061059d565b5060018290556040518281527f33d1191f5a3abfe19d468d51bb5ece97489f1277a912a5b5c65992fc279ad3d4906020016102a6565b5f805f805f9054906101000a90046001600160a01b03166001600160a01b031663feaf968c6040518163ffffffff1660e01b815260040160a060405180830381865afa1580156104c8573d5f803e3d5ffd5b505050506040513d601f19601f820116820180604052508101906104ec9190610606565b50509250925050815f14801561050c575060015461050a8242610652565b115b9250505090565b6001600160a01b0381168114610527575f80fd5b50565b5f6020828403121561053a575f80fd5b813561054581610513565b9392505050565b5f6020828403121561055c575f80fd5b5035919050565b5f60208284031215610573575f80fd5b815161054581610513565b5f6020828403121561058e575f80fd5b81518015158114610545575f80fd5b5f6020808352835180828501525f5b818110156105c8578581018301518582016040015282016105ac565b505f604082860101526040601f19601f8301168501019250505092915050565b805169ffffffffffffffffffff81168114610601575f80fd5b919050565b5f805f805f60a0868803121561061a575f80fd5b610623866105e8565b9450602086015193506040860151925060608601519150610646608087016105e8565b90509295509295909350565b8181038181111561067157634e487b7160e01b5f52601160045260245ffd5b9291505056fea164736f6c6343000814000a60a060405234801561000f575f80fd5b506040516110c33803806110c383398101604081905261002e91610089565b604080518082019091526002815261189960f11b60208201526001600160a01b0382166100775760405162461bcd60e51b815260040161006e91906100b6565b60405180910390fd5b506001600160a01b0316608052610101565b5f60208284031215610099575f80fd5b81516001600160a01b03811681146100af575f80fd5b9392505050565b5f6020808352835180828501525f5b818110156100e1578581018301518582016040015282016100c5565b505f604082860101526040601f19601f8301168501019250505092915050565b608051610f9d6101265f395f818160ee0152818161046a01526107fb0152610f9d5ff3fe608060405234801561000f575f80fd5b50600436106100e5575f3560e01c8063a8d9e56f11610088578063c79ce42e11610063578063c79ce42e1461021d578063cca22ea1146102f2578063f7e0fe6714610305578063fd81bb121461030d575f80fd5b8063a8d9e56f146101cd578063aa33f063146101e2578063b90db31b146101f5575f80fd5b80636a00178e116100c35780636a00178e146101945780637a0c5ebf146101a75780637a24bd7e146101b15780638f4b0d5d146101ba575f80fd5b80630542975c146100e9578063131e889c1461012d5780635b651bae14610173575b5f80fd5b6101107f000000000000000000000000000000000000000000000000000000000000000081565b6040516001600160a01b0390911681526020015b60405180910390f35b61014061013b366004610c74565b610320565b60405161012491908151815260208083015190820152604080830151908201526060918201519181019190915260800190565b610186610181366004610c74565b6103b2565b604051908152602001610124565b6101866101a2366004610c74565b6103e0565b610186620186a081565b6101866126ac81565b6101866101c8366004610c74565b61043a565b6101e06101db366004610c96565b610468565b005b6101866101f0366004610c74565b610559565b610208610203366004610d28565b61057e565b60408051928352602083019190915201610124565b6102ad61022b366004610c74565b604080516080810182525f808252602082018190529181018290526060810191909152506001600160a01b03165f90815260208181526040918290208251608081018452905461ffff8116825263ffffffff620100008204811693830193909352600160301b8104831693820193909352600160501b90920416606082015290565b6040516101249190815161ffff16815260208083015163ffffffff90811691830191909152604080840151821690830152606092830151169181019190915260800190565b610186610300366004610c74565b6107cc565b610186606481565b6101e061031b366004610dd5565b6107f9565b61034760405180608001604052805f81526020015f81526020015f81526020015f81525090565b6001600160a01b0382165f90815260208181526040918290208251608081018452905461ffff8116825263ffffffff620100008204811693830193909352600160301b8104831693820193909352600160501b9092041660608201526103ac906108de565b92915050565b6001600160a01b0381165f908152602081905260408120546103ac90600160301b900463ffffffff16610970565b6001600160a01b0381165f908152602081905260408120546103ac9063ffffffff600160501b820481169161042591600160301b820481169162010000900416610e27565b61042f9190610e27565b63ffffffff16610970565b6001600160a01b0381165f908152602081905260408120546103ac90600160501b900463ffffffff16610970565b7f00000000000000000000000000000000000000000000000000000000000000006001600160a01b031663631adfca6040518163ffffffff1660e01b8152600401602060405180830381865afa1580156104c4573d5f803e3d5ffd5b505050506040513d601f19601f820116820180604052508101906104e89190610e4b565b6001600160a01b0316336001600160a01b03161460405180604001604052806002815260200161031360f41b8152509061053e5760405162461bcd60e51b81526004016105359190610e66565b60405180910390fd5b506105548361054f83850185610ec4565b610985565b505050565b6001600160a01b0381165f908152602081905260408120546103ac9061ffff16610970565b60a08101516001600160a01b03165f908152602081815260408083208151608081018352905461ffff8116825263ffffffff620100008204811694830194909452600160301b8104841692820192909252600160501b9091049091166060820152819081906105ec906108de565b90508360c0015161060557602001515f94909350915050565b6106386040518060c001604052805f81526020015f81526020015f81526020015f81526020015f81526020015f81525090565b5f6040820152602080830151908201526060850151156106c957846040015185602001518660e0015161066b9190610f53565b6106759190610f66565b808252606086015161068691610f53565b60a08201819052606086015161069b91610bba565b6060820152845160a08201516106bf916106b491610f53565b606087015190610bba565b60808201526106d8565b602001515f9590945092505050565b8151606082015111156107565781515f9061071a90610703906b033b2e3c9fd0803ce8000000610f66565b845160608501516107149190610f66565b90610bba565b606084015190915061072c9082610bf7565b836040015161073b9190610f53565b8260200181815161074c9190610f53565b9052506107869050565b81516060820151604084015161077192916107149190610bf7565b816020018181516107829190610f53565b9052505b6107b4856080015161271061079b9190610f66565b608083015160208401516107ae91610bf7565b90610c39565b60408201819052602090910151909590945092505050565b6001600160a01b0381165f908152602081905260408120546103ac9062010000900463ffffffff16610970565b7f00000000000000000000000000000000000000000000000000000000000000006001600160a01b031663631adfca6040518163ffffffff1660e01b8152600401602060405180830381865afa158015610855573d5f803e3d5ffd5b505050506040513d601f19601f820116820180604052508101906108799190610e4b565b6001600160a01b0316336001600160a01b03161460405180604001604052806002815260200161031360f41b815250906108c65760405162461bcd60e51b81526004016105359190610e66565b506108da8261054f36849003840184610ec4565b5050565b61090560405180608001604052805f81526020015f81526020015f81526020015f81525090565b6040518060800160405280610920845f015161ffff16610970565b8152602001610938846020015163ffffffff16610970565b8152602001610950846040015163ffffffff16610970565b8152602001610968846060015163ffffffff16610970565b905292915050565b5f6103ac8269152d02c7e14af6800000610f79565b604080518082019091526002815261373760f01b60208201526001600160a01b0383166109c55760405162461bcd60e51b81526004016105359190610e66565b506126ac815f015161ffff16111580156109e757506064815f015161ffff1610155b60405180604001604052806002815260200161383360f01b81525090610a205760405162461bcd60e51b81526004016105359190610e66565b50806060015163ffffffff16816040015163ffffffff16111560405180604001604052806002815260200161393560f01b81525090610a725760405162461bcd60e51b81526004016105359190610e66565b50620186a0816060015163ffffffff16826040015163ffffffff16836020015163ffffffff16610aa29190610f53565b610aac9190610f53565b1115604051806040016040528060028152602001611c9960f11b81525090610ae75760405162461bcd60e51b81526004016105359190610e66565b506001600160a01b0382165f81815260208181526040918290208451815486840151878601516060808a015161ffff90951665ffffffffffff1990941684176201000063ffffffff948516908102919091176dffffffffffffffff0000000000001916600160301b93851693840263ffffffff60501b191617600160501b9490961693840295909517909555865192835294820192909252938401929092528201527f5d123bea2036a4052274206f59d99350b9741e17da56ffae335d809b25ee09429060800160405180910390a25050565b5f81156b033b2e3c9fd0803ce800000060028404190484111715610bdc575f80fd5b506b033b2e3c9fd0803ce80000009190910260028204010490565b5f81156b019d971e4fe8401e740000001983900484111517610c17575f80fd5b506b033b2e3c9fd0803ce800000091026b019d971e4fe8401e74000000010490565b5f81156113881983900484111517610c4f575f80fd5b506127109102611388010490565b6001600160a01b0381168114610c71575f80fd5b50565b5f60208284031215610c84575f80fd5b8135610c8f81610c5d565b9392505050565b5f805f60408486031215610ca8575f80fd5b8335610cb381610c5d565b9250602084013567ffffffffffffffff80821115610ccf575f80fd5b818601915086601f830112610ce2575f80fd5b813581811115610cf0575f80fd5b876020828501011115610d01575f80fd5b6020830194508093505050509250925092565b80358015158114610d23575f80fd5b919050565b5f610100808385031215610d3a575f80fd5b6040519081019067ffffffffffffffff82118183101715610d6957634e487b7160e01b5f52604160045260245ffd5b81604052833581526020840135602082015260408401356040820152606084013560608201526080840135608082015260a08401359150610da982610c5d565b8160a0820152610dbb60c08501610d14565b60c082015260e084013560e0820152809250505092915050565b5f8082840360a0811215610de7575f80fd5b8335610df281610c5d565b92506080601f1982011215610e05575f80fd5b506020830190509250929050565b634e487b7160e01b5f52601160045260245ffd5b63ffffffff818116838216019080821115610e4457610e44610e13565b5092915050565b5f60208284031215610e5b575f80fd5b8151610c8f81610c5d565b5f6020808352835180828501525f5b81811015610e9157858101830151858201604001528201610e75565b505f604082860101526040601f19601f8301168501019250505092915050565b803563ffffffff81168114610d23575f80fd5b5f60808284031215610ed4575f80fd5b6040516080810181811067ffffffffffffffff82111715610f0357634e487b7160e01b5f52604160045260245ffd5b604052823561ffff81168114610f17575f80fd5b8152610f2560208401610eb1565b6020820152610f3660408401610eb1565b6040820152610f4760608401610eb1565b60608201529392505050565b808201808211156103ac576103ac610e13565b818103818111156103ac576103ac610e13565b80820281158282048414176103ac576103ac610e1356fea164736f6c6343000814000a","linkReferences":{}},"methodIdentifiers":{"getMiscReport()":"edffa847"},"id":304}