{"abi":[{"type":"constructor","inputs":[{"name":"assetAddress","type":"address","internalType":"address"},{"name":"customEngine","type":"address","internalType":"address"}],"stateMutability":"nonpayable"},{"type":"function","name":"ASSET_ADDRESS","inputs":[],"outputs":[{"name":"","type":"address","internalType":"address"}],"stateMutability":"view"},{"type":"function","name":"CONFIG_ENGINE","inputs":[],"outputs":[{"name":"","type":"address","internalType":"contract IAaveV3ConfigEngine"}],"stateMutability":"view"},{"type":"function","name":"assetsEModeUpdates","inputs":[],"outputs":[{"name":"","type":"tuple[]","internalType":"struct IAaveV3ConfigEngine.AssetEModeUpdate[]","components":[{"name":"asset","type":"address","internalType":"address"},{"name":"eModeCategory","type":"uint8","internalType":"uint8"},{"name":"borrowable","type":"uint256","internalType":"uint256"},{"name":"collateral","type":"uint256","internalType":"uint256"}]}],"stateMutability":"view"},{"type":"function","name":"borrowsUpdates","inputs":[],"outputs":[{"name":"","type":"tuple[]","internalType":"struct IAaveV3ConfigEngine.BorrowUpdate[]","components":[{"name":"asset","type":"address","internalType":"address"},{"name":"enabledToBorrow","type":"uint256","internalType":"uint256"},{"name":"flashloanable","type":"uint256","internalType":"uint256"},{"name":"borrowableInIsolation","type":"uint256","internalType":"uint256"},{"name":"withSiloedBorrowing","type":"uint256","internalType":"uint256"},{"name":"reserveFactor","type":"uint256","internalType":"uint256"}]}],"stateMutability":"view"},{"type":"function","name":"capsUpdates","inputs":[],"outputs":[{"name":"","type":"tuple[]","internalType":"struct IAaveV3ConfigEngine.CapsUpdate[]","components":[{"name":"asset","type":"address","internalType":"address"},{"name":"supplyCap","type":"uint256","internalType":"uint256"},{"name":"borrowCap","type":"uint256","internalType":"uint256"}]}],"stateMutability":"view"},{"type":"function","name":"collateralsUpdates","inputs":[],"outputs":[{"name":"","type":"tuple[]","internalType":"struct IAaveV3ConfigEngine.CollateralUpdate[]","components":[{"name":"asset","type":"address","internalType":"address"},{"name":"ltv","type":"uint256","internalType":"uint256"},{"name":"liqThreshold","type":"uint256","internalType":"uint256"},{"name":"liqBonus","type":"uint256","internalType":"uint256"},{"name":"debtCeiling","type":"uint256","internalType":"uint256"},{"name":"liqProtocolFee","type":"uint256","internalType":"uint256"}]}],"stateMutability":"view"},{"type":"function","name":"eModeCategoriesUpdates","inputs":[],"outputs":[{"name":"","type":"tuple[]","internalType":"struct IAaveV3ConfigEngine.EModeCategoryUpdate[]","components":[{"name":"eModeCategory","type":"uint8","internalType":"uint8"},{"name":"ltv","type":"uint256","internalType":"uint256"},{"name":"liqThreshold","type":"uint256","internalType":"uint256"},{"name":"liqBonus","type":"uint256","internalType":"uint256"},{"name":"label","type":"string","internalType":"string"}]}],"stateMutability":"view"},{"type":"function","name":"execute","inputs":[],"outputs":[],"stateMutability":"nonpayable"},{"type":"function","name":"getPoolContext","inputs":[],"outputs":[{"name":"","type":"tuple","internalType":"struct IAaveV3ConfigEngine.PoolContext","components":[{"name":"networkName","type":"string","internalType":"string"},{"name":"networkAbbreviation","type":"string","internalType":"string"}]}],"stateMutability":"pure"},{"type":"function","name":"newListings","inputs":[],"outputs":[{"name":"","type":"tuple[]","internalType":"struct IAaveV3ConfigEngine.Listing[]","components":[{"name":"asset","type":"address","internalType":"address"},{"name":"assetSymbol","type":"string","internalType":"string"},{"name":"priceFeed","type":"address","internalType":"address"},{"name":"rateStrategyParams","type":"tuple","internalType":"struct IAaveV3ConfigEngine.InterestRateInputData","components":[{"name":"optimalUsageRatio","type":"uint256","internalType":"uint256"},{"name":"baseVariableBorrowRate","type":"uint256","internalType":"uint256"},{"name":"variableRateSlope1","type":"uint256","internalType":"uint256"},{"name":"variableRateSlope2","type":"uint256","internalType":"uint256"}]},{"name":"enabledToBorrow","type":"uint256","internalType":"uint256"},{"name":"borrowableInIsolation","type":"uint256","internalType":"uint256"},{"name":"withSiloedBorrowing","type":"uint256","internalType":"uint256"},{"name":"flashloanable","type":"uint256","internalType":"uint256"},{"name":"ltv","type":"uint256","internalType":"uint256"},{"name":"liqThreshold","type":"uint256","internalType":"uint256"},{"name":"liqBonus","type":"uint256","internalType":"uint256"},{"name":"reserveFactor","type":"uint256","internalType":"uint256"},{"name":"supplyCap","type":"uint256","internalType":"uint256"},{"name":"borrowCap","type":"uint256","internalType":"uint256"},{"name":"debtCeiling","type":"uint256","internalType":"uint256"},{"name":"liqProtocolFee","type":"uint256","internalType":"uint256"}]}],"stateMutability":"view"},{"type":"function","name":"newListingsCustom","inputs":[],"outputs":[{"name":"","type":"tuple[]","internalType":"struct IAaveV3ConfigEngine.ListingWithCustomImpl[]","components":[{"name":"base","type":"tuple","internalType":"struct IAaveV3ConfigEngine.Listing","components":[{"name":"asset","type":"address","internalType":"address"},{"name":"assetSymbol","type":"string","internalType":"string"},{"name":"priceFeed","type":"address","internalType":"address"},{"name":"rateStrategyParams","type":"tuple","internalType":"struct IAaveV3ConfigEngine.InterestRateInputData","components":[{"name":"optimalUsageRatio","type":"uint256","internalType":"uint256"},{"name":"baseVariableBorrowRate","type":"uint256","internalType":"uint256"},{"name":"variableRateSlope1","type":"uint256","internalType":"uint256"},{"name":"variableRateSlope2","type":"uint256","internalType":"uint256"}]},{"name":"enabledToBorrow","type":"uint256","internalType":"uint256"},{"name":"borrowableInIsolation","type":"uint256","internalType":"uint256"},{"name":"withSiloedBorrowing","type":"uint256","internalType":"uint256"},{"name":"flashloanable","type":"uint256","internalType":"uint256"},{"name":"ltv","type":"uint256","internalType":"uint256"},{"name":"liqThreshold","type":"uint256","internalType":"uint256"},{"name":"liqBonus","type":"uint256","internalType":"uint256"},{"name":"reserveFactor","type":"uint256","internalType":"uint256"},{"name":"supplyCap","type":"uint256","internalType":"uint256"},{"name":"borrowCap","type":"uint256","internalType":"uint256"},{"name":"debtCeiling","type":"uint256","internalType":"uint256"},{"name":"liqProtocolFee","type":"uint256","internalType":"uint256"}]},{"name":"implementations","type":"tuple","internalType":"struct IAaveV3ConfigEngine.TokenImplementations","components":[{"name":"aToken","type":"address","internalType":"address"},{"name":"vToken","type":"address","internalType":"address"}]}]}],"stateMutability":"view"},{"type":"function","name":"priceFeedsUpdates","inputs":[],"outputs":[{"name":"","type":"tuple[]","internalType":"struct IAaveV3ConfigEngine.PriceFeedUpdate[]","components":[{"name":"asset","type":"address","internalType":"address"},{"name":"priceFeed","type":"address","internalType":"address"}]}],"stateMutability":"view"},{"type":"function","name":"rateStrategiesUpdates","inputs":[],"outputs":[{"name":"","type":"tuple[]","internalType":"struct IAaveV3ConfigEngine.RateStrategyUpdate[]","components":[{"name":"asset","type":"address","internalType":"address"},{"name":"params","type":"tuple","internalType":"struct IAaveV3ConfigEngine.InterestRateInputData","components":[{"name":"optimalUsageRatio","type":"uint256","internalType":"uint256"},{"name":"baseVariableBorrowRate","type":"uint256","internalType":"uint256"},{"name":"variableRateSlope1","type":"uint256","internalType":"uint256"},{"name":"variableRateSlope2","type":"uint256","internalType":"uint256"}]}]}],"stateMutability":"view"}],"bytecode":{"object":"0x60c060405234801561000f575f80fd5b50604051610dc2380380610dc283398101604081905261002e91610060565b6001600160a01b039081166080521660a052610091565b80516001600160a01b038116811461005b575f80fd5b919050565b5f8060408385031215610071575f80fd5b61007a83610045565b915061008860208401610045565b90509250929050565b60805160a051610d036100bf5f395f818160ec015261026201525f818161014001526103800152610d035ff3fe608060405234801561000f575f80fd5b50600436106100cb575f3560e01c806395a93cb111610088578063ca8e89cc11610063578063ca8e89cc146101a8578063d0c38c27146101b7578063fabe3463146101c6578063fbb256f6146101d5575f80fd5b806395a93cb11461017b578063b1af0d0d1461018a578063c0a2558014610199575f80fd5b80631850edd8146100cf5780631d4be043146100e75780632b179434146101265780635e5eef7a1461013b5780636146195414610162578063922870951461016c575b5f80fd5b60606040516100de91906106da565b60405180910390f35b61010e7f000000000000000000000000000000000000000000000000000000000000000081565b6040516001600160a01b0390911681526020016100de565b61012e6101ea565b6040516100de9190610727565b61010e7f000000000000000000000000000000000000000000000000000000000000000081565b61016a610306565b005b60606040516100de9190610768565b60606040516100de91906107d7565b60606040516100de919061082b565b60606040516100de9190610a33565b60606040516100de9190610a45565b60606040516100de9190610adb565b60606040516100de9190610bcd565b6101dd6104ed565b6040516100de9190610c15565b6040805160018082528183019092526060915f9190816020015b6102406040518060c001604052805f6001600160a01b031681526020015f81526020015f81526020015f81526020015f81526020015f81525090565b8152602001906001900390816102045790505090506040518060c001604052807f00000000000000000000000000000000000000000000000000000000000000006001600160a01b03168152602001602a5f1961029d9190610c27565b81526020016102ae602a5f19610c27565b81526020016102bf602a5f19610c27565b81526020016102d0602a5f19610c27565b81526020016102e1602a5f19610c27565b815250815f815181106102f6576102f6610c46565b6020908102919091010152919050565b606080805f6103136101ea565b84519091506060908190819081908190156103a8576103a6634ee1151a60e01b8a6040516024016103449190610a45565b60408051601f198184030181529190526020810180516001600160e01b03166001600160e01b0319909316929092179091526001600160a01b037f00000000000000000000000000000000000000000000000000000000000000001690610549565b505b8751156103d6576103d4630b393a0960e11b6103c26104ed565b8a604051602401610344929190610c5a565b505b865115610404576104026311577d8d60e01b6103f06104ed565b89604051602401610344929190610c7e565b505b8451156104295761042763f1c2652c60e01b8660405160240161034491906106da565b505b85511561044e5761044c6309d8332860e01b876040516024016103449190610727565b505b8351156104735761047163b79421eb60e01b856040516024016103449190610adb565b505b8251156104985761049663927c400360e01b84604051602401610344919061082b565b505b8151156104bd576104bb6312146c7060e01b836040516024016103449190610768565b505b8051156104e2576104e06355caa16360e01b8260405160240161034491906107d7565b505b505050505050505050565b60408051808201909152606080825260208201525060408051608081018252600581830190815264131bd8d85b60da1b60608301528152815180830190925260038252624c6f6360e81b60208381019190915281019190915290565b606061056e8383604051806060016040528060278152602001610cd060279139610577565b90505b92915050565b60605f80856001600160a01b0316856040516105939190610ca2565b5f60405180830381855af49150503d805f81146105cb576040519150601f19603f3d011682016040523d82523d5f602084013e6105d0565b606091505b50915091506105e1868383876105eb565b9695505050505050565b6060831561065e5782515f03610657576001600160a01b0385163b6106575760405162461bcd60e51b815260206004820152601d60248201527f416464726573733a2063616c6c20746f206e6f6e2d636f6e747261637400000060448201526064015b60405180910390fd5b5081610668565b6106688383610670565b949350505050565b8151156106805781518083602001fd5b8060405162461bcd60e51b815260040161064e9190610cbd565b80516001600160a01b031682526020808201519083015260408082015190830152606080820151908301526080808201519083015260a090810151910152565b602080825282518282018190525f9190848201906040850190845b8181101561071b5761070883855161069a565b9284019260c092909201916001016106f5565b50909695505050505050565b602080825282518282018190525f9190848201906040850190845b8181101561071b5761075583855161069a565b9284019260c09290920191600101610742565b602080825282518282018190525f919060409081850190868401855b828110156107ca57815180516001600160a01b031685528681015160ff168786015285810151868601526060908101519085015260809093019290850190600101610784565b5091979650505050505050565b602080825282518282018190525f919060409081850190868401855b828110156107ca57815180516001600160a01b03168552868101518786015285015185850152606090930192908501906001016107f3565b602080825282518282018190525f919060409081850190868401855b828110156107ca5761087084835180516001600160a01b03908116835260209182015116910152565b9284019290850190600101610847565b5f5b8381101561089a578181015183820152602001610882565b50505f910152565b5f81518084526108b9816020860160208601610880565b601f01601f19169290920160200192915050565b80516001600160a01b031682525f61026060208301518160208601526108f5828601826108a2565b915050604083015161091260408601826001600160a01b03169052565b5060608381015180518683015260208101516080870152604081015160a08701529081015160c086015250608083015160e08581019190915260a08401516101008087019190915260c085015161012080880191909152918501516101408088019190915290850151610160808801919091529185015161018080880191909152908501516101a080880191909152918501516101c080880191909152908501516101e080880191909152918501516102008701528401516102208601529092015161024090930192909252919050565b5f815180845260208085019450848260051b86018286015f5b85811015610a26578383038952610a148383516108cd565b988501989250908401906001016109fc565b5090979650505050505050565b602081525f61056e60208301846109e3565b5f6020808301818452808551808352604092508286019150828160051b8701018488015f5b83811015610acd57888303603f190185528151805160ff168452878101518885015286810151878501526060808201519085015260809081015160a091850182905290610ab9818601836108a2565b968901969450505090860190600101610a6a565b509098975050505050505050565b602080825282518282018190525f9190848201906040850190845b8181101561071b57835180516001600160a01b03168452850151610b3d86850182805182526020810151602083015260408101516040830152606081015160608301525050565b509284019260a09290920191600101610af6565b5f81518084526020808501808196508360051b810191508286015f5b858110156107ca578284038952815160608151818752610b8f828801826108cd565b915050868201519150610bba8787018380516001600160a01b03908116835260209182015116910152565b9986019994505090840190600101610b6d565b602081525f61056e6020830184610b51565b5f815160408452610bf360408501826108a2565b905060208301518482036020860152610c0c82826108a2565b95945050505050565b602081525f61056e6020830184610bdf565b8181038181111561057157634e487b7160e01b5f52601160045260245ffd5b634e487b7160e01b5f52603260045260245ffd5b604081525f610c6c6040830185610bdf565b8281036020840152610c0c81856109e3565b604081525f610c906040830185610bdf565b8281036020840152610c0c8185610b51565b5f8251610cb3818460208701610880565b9190910192915050565b602081525f61056e60208301846108a256fe416464726573733a206c6f772d6c6576656c2064656c65676174652063616c6c206661696c6564a164736f6c6343000814000a","linkReferences":{}},"methodIdentifiers":{"ASSET_ADDRESS()":"1d4be043","CONFIG_ENGINE()":"5e5eef7a","assetsEModeUpdates()":"92287095","borrowsUpdates()":"1850edd8","capsUpdates()":"95a93cb1","collateralsUpdates()":"2b179434","eModeCategoriesUpdates()":"ca8e89cc","execute()":"61461954","getPoolContext()":"fbb256f6","newListings()":"c0a25580","newListingsCustom()":"fabe3463","priceFeedsUpdates()":"b1af0d0d","rateStrategiesUpdates()":"d0c38c27"},"id":331}