{"abi":[{"type":"constructor","inputs":[{"name":"customEngine","type":"address","internalType":"contract IAaveV3ConfigEngine"},{"name":"erc20Owner","type":"address","internalType":"address"},{"name":"weth9","type":"address","internalType":"address"},{"name":"report","type":"tuple","internalType":"struct MarketReport","components":[{"name":"poolAddressesProviderRegistry","type":"address","internalType":"address"},{"name":"poolAddressesProvider","type":"address","internalType":"address"},{"name":"poolProxy","type":"address","internalType":"address"},{"name":"poolImplementation","type":"address","internalType":"address"},{"name":"poolConfiguratorProxy","type":"address","internalType":"address"},{"name":"poolConfiguratorImplementation","type":"address","internalType":"address"},{"name":"protocolDataProvider","type":"address","internalType":"address"},{"name":"aaveOracle","type":"address","internalType":"address"},{"name":"defaultInterestRateStrategy","type":"address","internalType":"address"},{"name":"priceOracleSentinel","type":"address","internalType":"address"},{"name":"aclManager","type":"address","internalType":"address"},{"name":"treasury","type":"address","internalType":"address"},{"name":"proxyAdmin","type":"address","internalType":"address"},{"name":"treasuryImplementation","type":"address","internalType":"address"},{"name":"wrappedTokenGateway","type":"address","internalType":"address"},{"name":"walletBalanceProvider","type":"address","internalType":"address"},{"name":"uiIncentiveDataProvider","type":"address","internalType":"address"},{"name":"uiPoolDataProvider","type":"address","internalType":"address"},{"name":"paraSwapLiquiditySwapAdapter","type":"address","internalType":"address"},{"name":"paraSwapRepayAdapter","type":"address","internalType":"address"},{"name":"paraSwapWithdrawSwapAdapter","type":"address","internalType":"address"},{"name":"aaveParaSwapFeeClaimer","type":"address","internalType":"address"},{"name":"l2Encoder","type":"address","internalType":"address"},{"name":"aToken","type":"address","internalType":"address"},{"name":"variableDebtToken","type":"address","internalType":"address"},{"name":"emissionManager","type":"address","internalType":"address"},{"name":"rewardsControllerImplementation","type":"address","internalType":"address"},{"name":"rewardsControllerProxy","type":"address","internalType":"address"},{"name":"configEngine","type":"address","internalType":"address"},{"name":"transparentProxyFactory","type":"address","internalType":"address"},{"name":"staticATokenFactoryImplementation","type":"address","internalType":"address"},{"name":"staticATokenFactoryProxy","type":"address","internalType":"address"},{"name":"staticATokenImplementation","type":"address","internalType":"address"},{"name":"revenueSplitter","type":"address","internalType":"address"}]}],"stateMutability":"nonpayable"},{"type":"function","name":"CONFIG_ENGINE","inputs":[],"outputs":[{"name":"","type":"address","internalType":"contract IAaveV3ConfigEngine"}],"stateMutability":"view"},{"type":"function","name":"POOL_ADMIN_ROLE_ID","inputs":[],"outputs":[{"name":"","type":"bytes32","internalType":"bytes32"}],"stateMutability":"view"},{"type":"function","name":"USDX_ADDRESS","inputs":[],"outputs":[{"name":"","type":"address","internalType":"address"}],"stateMutability":"view"},{"type":"function","name":"USDX_MOCK_PRICE_FEED","inputs":[],"outputs":[{"name":"","type":"address","internalType":"address"}],"stateMutability":"view"},{"type":"function","name":"WBTC_ADDRESS","inputs":[],"outputs":[{"name":"","type":"address","internalType":"address"}],"stateMutability":"view"},{"type":"function","name":"WBTC_MOCK_PRICE_FEED","inputs":[],"outputs":[{"name":"","type":"address","internalType":"address"}],"stateMutability":"view"},{"type":"function","name":"WETH_ADDRESS","inputs":[],"outputs":[{"name":"","type":"address","internalType":"address"}],"stateMutability":"view"},{"type":"function","name":"WETH_MOCK_PRICE_FEED","inputs":[],"outputs":[{"name":"","type":"address","internalType":"address"}],"stateMutability":"view"},{"type":"function","name":"assetsEModeUpdates","inputs":[],"outputs":[{"name":"","type":"tuple[]","internalType":"struct IAaveV3ConfigEngine.AssetEModeUpdate[]","components":[{"name":"asset","type":"address","internalType":"address"},{"name":"eModeCategory","type":"uint8","internalType":"uint8"},{"name":"borrowable","type":"uint256","internalType":"uint256"},{"name":"collateral","type":"uint256","internalType":"uint256"}]}],"stateMutability":"view"},{"type":"function","name":"borrowsUpdates","inputs":[],"outputs":[{"name":"","type":"tuple[]","internalType":"struct IAaveV3ConfigEngine.BorrowUpdate[]","components":[{"name":"asset","type":"address","internalType":"address"},{"name":"enabledToBorrow","type":"uint256","internalType":"uint256"},{"name":"flashloanable","type":"uint256","internalType":"uint256"},{"name":"borrowableInIsolation","type":"uint256","internalType":"uint256"},{"name":"withSiloedBorrowing","type":"uint256","internalType":"uint256"},{"name":"reserveFactor","type":"uint256","internalType":"uint256"}]}],"stateMutability":"view"},{"type":"function","name":"capsUpdates","inputs":[],"outputs":[{"name":"","type":"tuple[]","internalType":"struct IAaveV3ConfigEngine.CapsUpdate[]","components":[{"name":"asset","type":"address","internalType":"address"},{"name":"supplyCap","type":"uint256","internalType":"uint256"},{"name":"borrowCap","type":"uint256","internalType":"uint256"}]}],"stateMutability":"view"},{"type":"function","name":"collateralsUpdates","inputs":[],"outputs":[{"name":"","type":"tuple[]","internalType":"struct IAaveV3ConfigEngine.CollateralUpdate[]","components":[{"name":"asset","type":"address","internalType":"address"},{"name":"ltv","type":"uint256","internalType":"uint256"},{"name":"liqThreshold","type":"uint256","internalType":"uint256"},{"name":"liqBonus","type":"uint256","internalType":"uint256"},{"name":"debtCeiling","type":"uint256","internalType":"uint256"},{"name":"liqProtocolFee","type":"uint256","internalType":"uint256"}]}],"stateMutability":"view"},{"type":"function","name":"eModeCategoriesUpdates","inputs":[],"outputs":[{"name":"","type":"tuple[]","internalType":"struct IAaveV3ConfigEngine.EModeCategoryUpdate[]","components":[{"name":"eModeCategory","type":"uint8","internalType":"uint8"},{"name":"ltv","type":"uint256","internalType":"uint256"},{"name":"liqThreshold","type":"uint256","internalType":"uint256"},{"name":"liqBonus","type":"uint256","internalType":"uint256"},{"name":"label","type":"string","internalType":"string"}]}],"stateMutability":"view"},{"type":"function","name":"execute","inputs":[],"outputs":[],"stateMutability":"nonpayable"},{"type":"function","name":"getPoolContext","inputs":[],"outputs":[{"name":"","type":"tuple","internalType":"struct IAaveV3ConfigEngine.PoolContext","components":[{"name":"networkName","type":"string","internalType":"string"},{"name":"networkAbbreviation","type":"string","internalType":"string"}]}],"stateMutability":"pure"},{"type":"function","name":"newListings","inputs":[],"outputs":[{"name":"","type":"tuple[]","internalType":"struct IAaveV3ConfigEngine.Listing[]","components":[{"name":"asset","type":"address","internalType":"address"},{"name":"assetSymbol","type":"string","internalType":"string"},{"name":"priceFeed","type":"address","internalType":"address"},{"name":"rateStrategyParams","type":"tuple","internalType":"struct IAaveV3ConfigEngine.InterestRateInputData","components":[{"name":"optimalUsageRatio","type":"uint256","internalType":"uint256"},{"name":"baseVariableBorrowRate","type":"uint256","internalType":"uint256"},{"name":"variableRateSlope1","type":"uint256","internalType":"uint256"},{"name":"variableRateSlope2","type":"uint256","internalType":"uint256"}]},{"name":"enabledToBorrow","type":"uint256","internalType":"uint256"},{"name":"borrowableInIsolation","type":"uint256","internalType":"uint256"},{"name":"withSiloedBorrowing","type":"uint256","internalType":"uint256"},{"name":"flashloanable","type":"uint256","internalType":"uint256"},{"name":"ltv","type":"uint256","internalType":"uint256"},{"name":"liqThreshold","type":"uint256","internalType":"uint256"},{"name":"liqBonus","type":"uint256","internalType":"uint256"},{"name":"reserveFactor","type":"uint256","internalType":"uint256"},{"name":"supplyCap","type":"uint256","internalType":"uint256"},{"name":"borrowCap","type":"uint256","internalType":"uint256"},{"name":"debtCeiling","type":"uint256","internalType":"uint256"},{"name":"liqProtocolFee","type":"uint256","internalType":"uint256"}]}],"stateMutability":"view"},{"type":"function","name":"newListingsCustom","inputs":[],"outputs":[{"name":"","type":"tuple[]","internalType":"struct IAaveV3ConfigEngine.ListingWithCustomImpl[]","components":[{"name":"base","type":"tuple","internalType":"struct IAaveV3ConfigEngine.Listing","components":[{"name":"asset","type":"address","internalType":"address"},{"name":"assetSymbol","type":"string","internalType":"string"},{"name":"priceFeed","type":"address","internalType":"address"},{"name":"rateStrategyParams","type":"tuple","internalType":"struct IAaveV3ConfigEngine.InterestRateInputData","components":[{"name":"optimalUsageRatio","type":"uint256","internalType":"uint256"},{"name":"baseVariableBorrowRate","type":"uint256","internalType":"uint256"},{"name":"variableRateSlope1","type":"uint256","internalType":"uint256"},{"name":"variableRateSlope2","type":"uint256","internalType":"uint256"}]},{"name":"enabledToBorrow","type":"uint256","internalType":"uint256"},{"name":"borrowableInIsolation","type":"uint256","internalType":"uint256"},{"name":"withSiloedBorrowing","type":"uint256","internalType":"uint256"},{"name":"flashloanable","type":"uint256","internalType":"uint256"},{"name":"ltv","type":"uint256","internalType":"uint256"},{"name":"liqThreshold","type":"uint256","internalType":"uint256"},{"name":"liqBonus","type":"uint256","internalType":"uint256"},{"name":"reserveFactor","type":"uint256","internalType":"uint256"},{"name":"supplyCap","type":"uint256","internalType":"uint256"},{"name":"borrowCap","type":"uint256","internalType":"uint256"},{"name":"debtCeiling","type":"uint256","internalType":"uint256"},{"name":"liqProtocolFee","type":"uint256","internalType":"uint256"}]},{"name":"implementations","type":"tuple","internalType":"struct IAaveV3ConfigEngine.TokenImplementations","components":[{"name":"aToken","type":"address","internalType":"address"},{"name":"vToken","type":"address","internalType":"address"}]}]}],"stateMutability":"view"},{"type":"function","name":"priceFeedsUpdates","inputs":[],"outputs":[{"name":"","type":"tuple[]","internalType":"struct IAaveV3ConfigEngine.PriceFeedUpdate[]","components":[{"name":"asset","type":"address","internalType":"address"},{"name":"priceFeed","type":"address","internalType":"address"}]}],"stateMutability":"view"},{"type":"function","name":"rateStrategiesUpdates","inputs":[],"outputs":[{"name":"","type":"tuple[]","internalType":"struct IAaveV3ConfigEngine.RateStrategyUpdate[]","components":[{"name":"asset","type":"address","internalType":"address"},{"name":"params","type":"tuple","internalType":"struct IAaveV3ConfigEngine.InterestRateInputData","components":[{"name":"optimalUsageRatio","type":"uint256","internalType":"uint256"},{"name":"baseVariableBorrowRate","type":"uint256","internalType":"uint256"},{"name":"variableRateSlope1","type":"uint256","internalType":"uint256"},{"name":"variableRateSlope2","type":"uint256","internalType":"uint256"}]}]}],"stateMutability":"view"}],"bytecode":{"object":"0x6101c060405234801562000011575f80fd5b50604051620030903803806200309083398101604081905262000034916200024b565b6001600160a01b03841660805260405160069084906200005490620001cf565b6200006192919062000586565b604051809103905ff0801580156200007b573d5f803e3d5ffd5b506001600160a01b031660a0526040516305f5e100906200009c90620001dd565b908152602001604051809103905ff080158015620000bc573d5f803e3d5ffd5b506001600160a01b031660c0526040516008908490620000dc90620001cf565b620000e9929190620005f0565b604051809103905ff08015801562000103573d5f803e3d5ffd5b506001600160a01b031660e052604051650274a48a7800906200012690620001dd565b908152602001604051809103905ff08015801562000146573d5f803e3d5ffd5b506001600160a01b03908116610100528216610120526040516429e8d60800906200017190620001dd565b908152602001604051809103905ff08015801562000191573d5f803e3d5ffd5b506001600160a01b039081166101409081526102e08301518216610160526103008301518216610180529190910151166101a0525062000638915050565b6115148062001a6683390190565b6101168062002f7a83390190565b6001600160a01b038116811462000200575f80fd5b50565b80516200021081620001eb565b919050565b60405161044081016001600160401b03811182821017156200024557634e487b7160e01b5f52604160045260245ffd5b60405290565b5f805f808486036104a081121562000261575f80fd5b85516200026e81620001eb565b60208701519095506200028181620001eb565b60408701519094506200029481620001eb565b9250610440605f198201811315620002aa575f80fd5b620002b462000215565b9150620002c46060880162000203565b8252620002d46080880162000203565b6020830152620002e760a0880162000203565b6040830152620002fa60c0880162000203565b60608301526200030d60e0880162000203565b60808301526101006200032281890162000203565b60a084015261012062000337818a0162000203565b60c08501526101406200034c818b0162000203565b60e086015261016062000361818c0162000203565b84870152610180935062000377848c0162000203565b838701526101a092506200038d838c0162000203565b828701526101c09150620003a3828c0162000203565b908601526101e0620003b78b820162000203565b848701526102009350620003cd848c0162000203565b838701526102209250620003e3838c0162000203565b828701526102409150620003f9828c0162000203565b908601526102606200040d8b820162000203565b84870152610280935062000423848c0162000203565b838701526102a0925062000439838c0162000203565b828701526102c091506200044f828c0162000203565b908601526102e0620004638b820162000203565b84870152610300935062000479848c0162000203565b8387015261032092506200048f838c0162000203565b828701526103409150620004a5828c0162000203565b90860152610360620004b98b820162000203565b848701526103809350620004cf848c0162000203565b838701526103a09250620004e5838c0162000203565b828701526103c09150620004fb828c0162000203565b908601526103e06200050f8b820162000203565b84870152610400935062000525848c0162000203565b8387015261042092506200053b838c0162000203565b828701526200054c858c0162000203565b9086015250620005606104608a0162000203565b82850152620005736104808a0162000203565b9084015250949793965091945090925050565b608081525f620005aa6080830160048152630aaa688b60e31b602082015260400190565b8281036020840152620005ce8160048152630aaa688b60e31b602082015260400190565b60ff95909516604084015250506001600160a01b039190911660609091015290565b608081525f620006146080830160048152635742544360e01b602082015260400190565b8281036020840152620005ce8160048152635742544360e01b602082015260400190565b60805160a05160c05160e05161010051610120516101405161016051610180516101a051611371620006f55f395f610abd01525f81816106b10152818161082c01526109a801525f8181610682015281816107fd015261097901525f81816102e301526108e201525f8181610125015261089101525f81816101ae015261076601525f8181610233015261071501525f818161017801526105eb01525f8181610269015261059a01525f81816101d501526103aa01526113715ff3fe608060405234801561000f575f80fd5b506004361061011c575f3560e01c8063b1af0d0d116100a9578063caf731721161006e578063caf731721461029a578063d0c38c27146102cf578063f99dfb1c146102de578063fabe346314610305578063fbb256f61461031a575f80fd5b8063b1af0d0d1461021f578063bdd5915f1461022e578063c0a2558014610255578063c92c246014610264578063ca8e89cc1461028b575f80fd5b8063399367ea116100ef578063399367ea146101a95780635e5eef7a146101d057806361461954146101f7578063922870951461020157806395a93cb114610210575f80fd5b8063040141e5146101205780631850edd814610164578063274bdc78146101735780632b1794341461019a575b5f80fd5b6101477f000000000000000000000000000000000000000000000000000000000000000081565b6040516001600160a01b0390911681526020015b60405180910390f35b606060405161015b9190610d71565b6101477f000000000000000000000000000000000000000000000000000000000000000081565b606060405161015b9190610dbe565b6101477f000000000000000000000000000000000000000000000000000000000000000081565b6101477f000000000000000000000000000000000000000000000000000000000000000081565b6101ff61032f565b005b606060405161015b9190610dff565b606060405161015b9190610e6e565b606060405161015b9190610ec2565b6101477f000000000000000000000000000000000000000000000000000000000000000081565b606060405161015b91906110c0565b6101477f000000000000000000000000000000000000000000000000000000000000000081565b606060405161015b91906110d2565b6102c17f12ad05bde78c5ab75238ce885307f96ecd482bb402ef831f99e7018a0f169b7b81565b60405190815260200161015b565b606060405161015b9190611168565b6101477f000000000000000000000000000000000000000000000000000000000000000081565b61030d61051f565b60405161015b919061125a565b6103226109fa565b60405161015b91906112a2565b6060805f61033b61051f565b835190915060609081908190819081908190156103d2576103d0634ee1151a60e01b8a60405160240161036e91906110d2565b60408051601f198184030181529190526020810180516001600160e01b03166001600160e01b0319909316929092179091526001600160a01b037f00000000000000000000000000000000000000000000000000000000000000001690610a56565b505b875115610400576103fe630b393a0960e11b6103ec6109fa565b8a60405160240161036e9291906112b4565b505b86511561042e5761042c6311577d8d60e01b61041a6109fa565b8960405160240161036e9291906112d8565b505b8451156104535761045163f1c2652c60e01b8660405160240161036e9190610d71565b505b855115610478576104766309d8332860e01b8760405160240161036e9190610dbe565b505b83511561049d5761049b63b79421eb60e01b8560405160240161036e9190611168565b505b8251156104c2576104c063927c400360e01b8460405160240161036e9190610ec2565b505b8151156104e7576104e56312146c7060e01b8360405160240161036e9190610dff565b505b80511561050c5761050a6355caa16360e01b8260405160240161036e9190610e6e565b505b610514610a82565b505050505050505050565b604080516003808252608082019092526060915f9190816020015b610542610c41565b81526020019060019003908161053a5790505090505f604051806080016040528061119481526020015f81526020016101908152602001611770815250905060405180604001604052806040518061020001604052807f00000000000000000000000000000000000000000000000000000000000000006001600160a01b03168152602001604051806040016040528060048152602001630aaa688b60e31b81525081526020017f00000000000000000000000000000000000000000000000000000000000000006001600160a01b03168152602001848152602001600181526020015f81526020015f81526020016001815260200161203a815260200161219881526020016101f481526020016103e881526020015f81526020015f81526020015f81526020016103e8815250815260200160405180604001604052807f00000000000000000000000000000000000000000000000000000000000000006001600160a01b031681526020017f00000000000000000000000000000000000000000000000000000000000000006001600160a01b0316815250815250825f815181106106f1576106f16112fc565b602002602001018190525060405180604001604052806040518061020001604052807f00000000000000000000000000000000000000000000000000000000000000006001600160a01b03168152602001604051806040016040528060048152602001635742544360e01b81525081526020017f00000000000000000000000000000000000000000000000000000000000000006001600160a01b03168152602001848152602001600181526020015f81526020015f81526020016001815260200161203a815260200161219881526020016101f481526020016103e881526020015f81526020015f81526020015f81526020016103e8815250815260200160405180604001604052807f00000000000000000000000000000000000000000000000000000000000000006001600160a01b031681526020017f00000000000000000000000000000000000000000000000000000000000000006001600160a01b03168152508152508260018151811061086d5761086d6112fc565b602002602001018190525060405180604001604052806040518061020001604052807f00000000000000000000000000000000000000000000000000000000000000006001600160a01b03168152602001604051806040016040528060048152602001630ae8aa8960e31b81525081526020017f00000000000000000000000000000000000000000000000000000000000000006001600160a01b03168152602001848152602001600181526020015f81526020015f81526020016001815260200161203a815260200161219881526020016101f481526020016103e881526020015f81526020015f81526020015f81526020016103e8815250815260200160405180604001604052807f00000000000000000000000000000000000000000000000000000000000000006001600160a01b031681526020017f00000000000000000000000000000000000000000000000000000000000000006001600160a01b0316815250815250826002815181106109e9576109e96112fc565b602090810291909101015250919050565b60408051808201909152606080825260208201525060408051608081018252600581830190815264131bd8d85b60da1b60608301528152815180830190925260038252624c6f6360e81b60208381019190915281019190915290565b6060610a7b838360405180606001604052806027815260200161133e60279139610b1e565b9392505050565b604051631b2b455f60e11b81527f12ad05bde78c5ab75238ce885307f96ecd482bb402ef831f99e7018a0f169b7b60048201523060248201527f00000000000000000000000000000000000000000000000000000000000000006001600160a01b0316906336568abe906044015f604051808303815f87803b158015610b06575f80fd5b505af1158015610b18573d5f803e3d5ffd5b50505050565b60605f80856001600160a01b031685604051610b3a9190611310565b5f60405180830381855af49150503d805f8114610b72576040519150601f19603f3d011682016040523d82523d5f602084013e610b77565b606091505b5091509150610b8886838387610b92565b9695505050505050565b60608315610c055782515f03610bfe576001600160a01b0385163b610bfe5760405162461bcd60e51b815260206004820152601d60248201527f416464726573733a2063616c6c20746f206e6f6e2d636f6e747261637400000060448201526064015b60405180910390fd5b5081610c0f565b610c0f8383610c17565b949350505050565b815115610c275781518083602001fd5b8060405162461bcd60e51b8152600401610bf5919061132b565b6040518060400160405280610c54610c8b565b8152602001610c8660405180604001604052805f6001600160a01b031681526020015f6001600160a01b031681525090565b905290565b6040518061020001604052805f6001600160a01b03168152602001606081526020015f6001600160a01b03168152602001610ce360405180608001604052805f81526020015f81526020015f81526020015f81525090565b81526020015f81526020015f81526020015f81526020015f81526020015f81526020015f81526020015f81526020015f81526020015f81526020015f81526020015f81526020015f81525090565b80516001600160a01b031682526020808201519083015260408082015190830152606080820151908301526080808201519083015260a090810151910152565b602080825282518282018190525f9190848201906040850190845b81811015610db257610d9f838551610d31565b9284019260c09290920191600101610d8c565b50909695505050505050565b602080825282518282018190525f9190848201906040850190845b81811015610db257610dec838551610d31565b9284019260c09290920191600101610dd9565b602080825282518282018190525f919060409081850190868401855b82811015610e6157815180516001600160a01b031685528681015160ff168786015285810151868601526060908101519085015260809093019290850190600101610e1b565b5091979650505050505050565b602080825282518282018190525f919060409081850190868401855b82811015610e6157815180516001600160a01b0316855286810151878601528501518585015260609093019290850190600101610e8a565b602080825282518282018190525f919060409081850190868401855b82811015610e6157610f0784835180516001600160a01b03908116835260209182015116910152565b9284019290850190600101610ede565b5f5b83811015610f31578181015183820152602001610f19565b50505f910152565b5f8151808452610f50816020860160208601610f17565b601f01601f19169290920160200192915050565b80516001600160a01b031682525f6102606020830151816020860152610f8c82860182610f39565b9150506040830151610fa960408601826001600160a01b03169052565b5060608381015180518683015260208101516080870152604081015160a08701529081015160c086015250608083015160e08581019190915260a08401516101008087019190915260c085015161012080880191909152918501516101408088019190915290850151610160808801919091529185015161018080880191909152908501516101a080880191909152918501516101c080880191909152908501516101e080880191909152918501516102008701528401516102208601529092015161024090930192909252919050565b5f81518084526020808501808196508360051b810191508286015f5b85811015610e615782840389526110ae848351610f64565b98850198935090840190600101611096565b602081525f610a7b602083018461107a565b5f6020808301818452808551808352604092508286019150828160051b8701018488015f5b8381101561115a57888303603f190185528151805160ff168452878101518885015286810151878501526060808201519085015260809081015160a09185018290529061114681860183610f39565b9689019694505050908601906001016110f7565b509098975050505050505050565b602080825282518282018190525f9190848201906040850190845b81811015610db257835180516001600160a01b031684528501516111ca86850182805182526020810151602083015260408101516040830152606081015160608301525050565b509284019260a09290920191600101611183565b5f81518084526020808501808196508360051b810191508286015f5b85811015610e6157828403895281516060815181875261121c82880182610f64565b9150508682015191506112478787018380516001600160a01b03908116835260209182015116910152565b99860199945050908401906001016111fa565b602081525f610a7b60208301846111de565b5f8151604084526112806040850182610f39565b9050602083015184820360208601526112998282610f39565b95945050505050565b602081525f610a7b602083018461126c565b604081525f6112c6604083018561126c565b8281036020840152611299818561107a565b604081525f6112ea604083018561126c565b828103602084015261129981856111de565b634e487b7160e01b5f52603260045260245ffd5b5f8251611321818460208701610f17565b9190910192915050565b602081525f610a7b6020830184610f3956fe416464726573733a206c6f772d6c6576656c2064656c65676174652063616c6c206661696c6564a164736f6c6343000814000a608060405234801562000010575f80fd5b506040516200151438038062001514833981016040819052620000339162000368565b8383600362000043838262000491565b50600462000052828262000491565b50506005805460ff19166012179055505f6200006b3390565b60058054610100600160a81b0319166101006001600160a01b03841690810291909117909155604051919250905f905f80516020620014f4833981519152908290a350835160208086019190912060408051808201825260018152603160f81b9084015280517f8b73c3c69bb8fe3d512ecc4cf759cc79239f7b179b0ffacaa9a75d522b39400f938101939093528201527fc89efdaa54c0f20c7adf612882df0950f5a951637e0307cdcb4c672f298b8bc6606082015246608082018190523060a08301529060c00160408051808303601f1901815291905280516020909101206007556005805460ff851660ff199091161790556001600160a01b03821662000173575f80fd5b6200017e8262000189565b505050505062000559565b6005546001600160a01b03610100909104163314620001ef5760405162461bcd60e51b815260206004820181905260248201527f4f776e61626c653a2063616c6c6572206973206e6f7420746865206f776e657260448201526064015b60405180910390fd5b6001600160a01b038116620002565760405162461bcd60e51b815260206004820152602660248201527f4f776e61626c653a206e6577206f776e657220697320746865207a65726f206160448201526564647265737360d01b6064820152608401620001e6565b6005546040516001600160a01b0380841692610100900416905f80516020620014f4833981519152905f90a3600580546001600160a01b0390921661010002610100600160a81b0319909216919091179055565b634e487b7160e01b5f52604160045260245ffd5b5f82601f830112620002ce575f80fd5b81516001600160401b0380821115620002eb57620002eb620002aa565b604051601f8301601f19908116603f01168101908282118183101715620003165762000316620002aa565b8160405283815260209250868385880101111562000332575f80fd5b5f91505b8382101562000355578582018301518183018401529082019062000336565b5f93810190920192909252949350505050565b5f805f80608085870312156200037c575f80fd5b84516001600160401b038082111562000393575f80fd5b620003a188838901620002be565b95506020870151915080821115620003b7575f80fd5b50620003c687828801620002be565b935050604085015160ff81168114620003dd575f80fd5b60608601519092506001600160a01b0381168114620003fa575f80fd5b939692955090935050565b600181811c908216806200041a57607f821691505b6020821081036200043957634e487b7160e01b5f52602260045260245ffd5b50919050565b601f8211156200048c575f81815260208120601f850160051c81016020861015620004675750805b601f850160051c820191505b81811015620004885782815560010162000473565b5050505b505050565b81516001600160401b03811115620004ad57620004ad620002aa565b620004c581620004be845462000405565b846200043f565b602080601f831160018114620004fb575f8415620004e35750858301515b5f19600386901b1c1916600185901b17855562000488565b5f85815260208120601f198616915b828110156200052b578886015182559484019460019091019084016200050a565b50858210156200054957878501515f19600388901b60f8161c191681555b5050505050600190811b01905550565b610f8d80620005675f395ff3fe608060405234801561000f575f80fd5b5060043610610132575f3560e01c8063715018a6116100b4578063a0712d6811610079578063a0712d68146102b2578063a457c2d7146102c5578063a9059cbb146102d8578063d505accf146102eb578063dd62ed3e146102fe578063f2fde38b14610336575f80fd5b8063715018a61461022f57806378160376146102395780637ecebe00146102595780638da5cb5b1461028157806395d89b41146102aa575f80fd5b8063313ce567116100fa578063313ce567146101c35780633644e515146101d857806339509351146101e157806340c10f19146101f457806370a0823114610207575f80fd5b806306fdde0314610136578063095ea7b31461015457806318160ddd1461017757806323b872dd1461018957806330adf81f1461019c575b5f80fd5b61013e610349565b60405161014b9190610d23565b60405180910390f35b610167610162366004610d52565b6103d9565b604051901515815260200161014b565b6002545b60405190815260200161014b565b610167610197366004610d7a565b6103ef565b61017b7f6e71edae12b1b97f4d1f60370fef10105fa2faae0126114a169c64845d6126c981565b60055460405160ff909116815260200161014b565b61017b60075481565b6101676101ef366004610d52565b610456565b610167610202366004610d52565b61048b565b61017b610215366004610db3565b6001600160a01b03165f9081526020819052604090205490565b6102376104d0565b005b61013e604051806040016040528060018152602001603160f81b81525081565b61017b610267366004610db3565b6001600160a01b03165f9081526006602052604090205490565b60055461010090046001600160a01b03166040516001600160a01b03909116815260200161014b565b61013e61054f565b6101676102c0366004610dcc565b61055e565b6101676102d3366004610d52565b6105a3565b6101676102e6366004610d52565b6105f0565b6102376102f9366004610de3565b6105fc565b61017b61030c366004610e50565b6001600160a01b039182165f90815260016020908152604080832093909416825291909152205490565b610237610344366004610db3565b610829565b60606003805461035890610e81565b80601f016020809104026020016040519081016040528092919081815260200182805461038490610e81565b80156103cf5780601f106103a6576101008083540402835291602001916103cf565b820191905f5260205f20905b8154815290600101906020018083116103b257829003601f168201915b5050505050905090565b5f6103e5338484610924565b5060015b92915050565b5f6103fb848484610a48565b61044c843361044785604051806060016040528060288152602001610f34602891396001600160a01b038a165f9081526001602090815260408083203384529091529020549190610bc8565b610924565b5060019392505050565b335f8181526001602090815260408083206001600160a01b038716845290915281205490916103e59185906104479086610bf5565b6005545f906001600160a01b036101009091041633146104c65760405162461bcd60e51b81526004016104bd90610eb9565b60405180910390fd5b6103e58383610c04565b6005546001600160a01b036101009091041633146105005760405162461bcd60e51b81526004016104bd90610eb9565b6005546040515f9161010090046001600160a01b0316907f8be0079c531659141344cd1fd0a4f28419497f9722a3daafe3b4186f6b6457e0908390a360058054610100600160a81b0319169055565b60606004805461035890610e81565b6005545f906001600160a01b036101009091041633146105905760405162461bcd60e51b81526004016104bd90610eb9565b61059a3383610c04565b5060015b919050565b5f6103e5338461044785604051806060016040528060258152602001610f5c60259139335f9081526001602090815260408083206001600160a01b038d1684529091529020549190610bc8565b5f6103e5338484610a48565b6001600160a01b0387166106425760405162461bcd60e51b815260206004820152600d60248201526c24a72b20a624a22fa7aba722a960991b60448201526064016104bd565b834211156106875760405162461bcd60e51b815260206004820152601260248201527124a72b20a624a22fa2ac2824a920aa24a7a760711b60448201526064016104bd565b6001600160a01b038781165f8181526006602090815260408083205460075482517f6e71edae12b1b97f4d1f60370fef10105fa2faae0126114a169c64845d6126c98186015280840196909652958c166060860152608085018b905260a0850181905260c08086018b90528251808703909101815260e086019092528151919092012061190160f01b610100850152610102840194909452610122830193909352906101420160408051601f1981840301815282825280516020918201205f845290830180835281905260ff8816918301919091526060820186905260808201859052915060019060a0016020604051602081039080840390855afa158015610792573d5f803e3d5ffd5b505050602060405103516001600160a01b0316896001600160a01b0316146107f05760405162461bcd60e51b8152602060048201526011602482015270494e56414c49445f5349474e415455524560781b60448201526064016104bd565b6107fb826001610eee565b6001600160a01b038a165f9081526006602052604090205561081e898989610924565b505050505050505050565b6005546001600160a01b036101009091041633146108595760405162461bcd60e51b81526004016104bd90610eb9565b6001600160a01b0381166108be5760405162461bcd60e51b815260206004820152602660248201527f4f776e61626c653a206e6577206f776e657220697320746865207a65726f206160448201526564647265737360d01b60648201526084016104bd565b6005546040516001600160a01b0380841692610100900416907f8be0079c531659141344cd1fd0a4f28419497f9722a3daafe3b4186f6b6457e0905f90a3600580546001600160a01b0390921661010002610100600160a81b0319909216919091179055565b6001600160a01b0383166109865760405162461bcd60e51b8152602060048201526024808201527f45524332303a20617070726f76652066726f6d20746865207a65726f206164646044820152637265737360e01b60648201526084016104bd565b6001600160a01b0382166109e75760405162461bcd60e51b815260206004820152602260248201527f45524332303a20617070726f766520746f20746865207a65726f206164647265604482015261737360f01b60648201526084016104bd565b6001600160a01b038381165f8181526001602090815260408083209487168084529482529182902085905590518481527f8c5be1e5ebec7d5bd14f71427d1e84f3dd0314c0f7b2291e5b200ac8c7c3b92591015b60405180910390a3505050565b6001600160a01b038316610aac5760405162461bcd60e51b815260206004820152602560248201527f45524332303a207472616e736665722066726f6d20746865207a65726f206164604482015264647265737360d81b60648201526084016104bd565b6001600160a01b038216610b0e5760405162461bcd60e51b815260206004820152602360248201527f45524332303a207472616e7366657220746f20746865207a65726f206164647260448201526265737360e81b60648201526084016104bd565b610b4a81604051806060016040528060268152602001610f0e602691396001600160a01b0386165f908152602081905260409020549190610bc8565b6001600160a01b038085165f908152602081905260408082209390935590841681522054610b789082610bf5565b6001600160a01b038381165f818152602081815260409182902094909455518481529092918616917fddf252ad1be2c89b69c2b068fc378daa952ba7f163c4a11628f55a4df523b3ef9101610a3b565b8183038184821115610bed5760405162461bcd60e51b81526004016104bd9190610d23565b509392505050565b808201828110156103e9575f80fd5b6001600160a01b038216610c5a5760405162461bcd60e51b815260206004820152601f60248201527f45524332303a206d696e7420746f20746865207a65726f20616464726573730060448201526064016104bd565b600254610c679082610bf5565b6002556001600160a01b0382165f90815260208190526040902054610c8c9082610bf5565b6001600160a01b0383165f81815260208181526040808320949094559251848152919290917fddf252ad1be2c89b69c2b068fc378daa952ba7f163c4a11628f55a4df523b3ef910160405180910390a35050565b5f81518084525f5b81811015610d0457602081850181015186830182015201610ce8565b505f602082860101526020601f19601f83011685010191505092915050565b602081525f610d356020830184610ce0565b9392505050565b80356001600160a01b038116811461059e575f80fd5b5f8060408385031215610d63575f80fd5b610d6c83610d3c565b946020939093013593505050565b5f805f60608486031215610d8c575f80fd5b610d9584610d3c565b9250610da360208501610d3c565b9150604084013590509250925092565b5f60208284031215610dc3575f80fd5b610d3582610d3c565b5f60208284031215610ddc575f80fd5b5035919050565b5f805f805f805f60e0888a031215610df9575f80fd5b610e0288610d3c565b9650610e1060208901610d3c565b95506040880135945060608801359350608088013560ff81168114610e33575f80fd5b9699959850939692959460a0840135945060c09093013592915050565b5f8060408385031215610e61575f80fd5b610e6a83610d3c565b9150610e7860208401610d3c565b90509250929050565b600181811c90821680610e9557607f821691505b602082108103610eb357634e487b7160e01b5f52602260045260245ffd5b50919050565b6020808252818101527f4f776e61626c653a2063616c6c6572206973206e6f7420746865206f776e6572604082015260600190565b808201808211156103e957634e487b7160e01b5f52601160045260245ffdfe45524332303a207472616e7366657220616d6f756e7420657863656564732062616c616e636545524332303a207472616e7366657220616d6f756e74206578636565647320616c6c6f77616e636545524332303a2064656372656173656420616c6c6f77616e63652062656c6f77207a65726fa164736f6c6343000814000a8be0079c531659141344cd1fd0a4f28419497f9722a3daafe3b4186f6b6457e0608060405234801561000f575f80fd5b5060405161011638038061011683398101604081905261002e9161006d565b5f81815560405142815282907f0559884fd3a460db3073b7fc896cc77986f16e378210ded43186175bf646fc5f9060200160405180910390a350610084565b5f6020828403121561007d575f80fd5b5051919050565b6086806100905f395ff3fe6080604052348015600e575f80fd5b50600436106044575f3560e01c8063313ce56714604857806350d25bcd14605c578063b15b37a514606c578063fcab1819146073575b5f80fd5b604051600881526020015b60405180910390f35b5f545b6040519081526020016053565b605f5f5481565b6001605f56fea164736f6c6343000814000a","linkReferences":{}},"methodIdentifiers":{"CONFIG_ENGINE()":"5e5eef7a","POOL_ADMIN_ROLE_ID()":"caf73172","USDX_ADDRESS()":"c92c2460","USDX_MOCK_PRICE_FEED()":"274bdc78","WBTC_ADDRESS()":"bdd5915f","WBTC_MOCK_PRICE_FEED()":"399367ea","WETH_ADDRESS()":"040141e5","WETH_MOCK_PRICE_FEED()":"f99dfb1c","assetsEModeUpdates()":"92287095","borrowsUpdates()":"1850edd8","capsUpdates()":"95a93cb1","collateralsUpdates()":"2b179434","eModeCategoriesUpdates()":"ca8e89cc","execute()":"61461954","getPoolContext()":"fbb256f6","newListings()":"c0a25580","newListingsCustom()":"fabe3463","priceFeedsUpdates()":"b1af0d0d","rateStrategiesUpdates()":"d0c38c27"},"id":348}