{"abi":[{"type":"constructor","inputs":[{"name":"poolAddressesProvider","type":"address","internalType":"address"},{"name":"networkBaseTokenPriceInUsdProxyAggregator","type":"address","internalType":"address"},{"name":"marketReferenceCurrencyPriceInUsdProxyAggregator","type":"address","internalType":"address"}],"stateMutability":"nonpayable"},{"type":"function","name":"getGettersReportOne","inputs":[],"outputs":[{"name":"","type":"tuple","internalType":"struct AaveV3GettersProcedureOne.GettersReportBatchOne","components":[{"name":"walletBalanceProvider","type":"address","internalType":"address"},{"name":"uiIncentiveDataProvider","type":"address","internalType":"address"},{"name":"protocolDataProvider","type":"address","internalType":"address"},{"name":"uiPoolDataProvider","type":"address","internalType":"address"}]}],"stateMutability":"view"}],"bytecode":{"object":"0x608060405234801561000f575f80fd5b50604051617f31380380617f3183398101604081905261002e9161024b565b61003983838361009c565b80515f80546001600160a01b03199081166001600160a01b0393841617909155602083015160018054831691841691909117905560408301516002805483169184169190911790556060909201516003805490931691161790555061028b915050565b60408051608080820183525f808352602080840182905283850182905260608085018390528551938401865282845290830182905282850182905282015291519091906100e8906101fc565b604051809103905ff080158015610101573d5f803e3d5ffd5b506001600160a01b0316815260405161011990610209565b604051809103905ff080158015610132573d5f803e3d5ffd5b506001600160a01b03166020820152604051859061014f90610216565b6001600160a01b039091168152602001604051809103905ff080158015610178573d5f803e3d5ffd5b506001600160a01b0390811660408301528416158015906101a157506001600160a01b03831615155b156101f45783836040516101b490610223565b6001600160a01b03928316815291166020820152604001604051809103905ff0801580156101e4573d5f803e3d5ffd5b506001600160a01b031660608201525b949350505050565b610a588061037c83390190565b6123c280610dd483390190565b61260b8061319683390190565b612790806157a183390190565b80516001600160a01b0381168114610246575f80fd5b919050565b5f805f6060848603121561025d575f80fd5b61026684610230565b925061027460208501610230565b915061028260408501610230565b90509250925092565b60e5806102975f395ff3fe6080604052348015600e575f80fd5b50600436106026575f3560e01c80630cf19f2c14602a575b5f80fd5b608d604080516080810182525f80825260208201819052918101829052606081019190915250604080516080810182525f546001600160a01b03908116825260015481166020830152600254811692820192909252600354909116606082015290565b60405160cf919081516001600160a01b039081168252602080840151821690830152604080840151821690830152606092830151169181019190915260800190565b60405180910390f3fea164736f6c6343000814000a608060405234801561000f575f80fd5b50610a3b8061001d5f395ff3fe608060405260043610610036575f3560e01c80630240534314610079578063b59b28ef146100af578063f7888aec146100db575f80fd5b3661007557333b6100735760405162461bcd60e51b8152602060048201526002602482015261191960f11b60448201526064015b60405180910390fd5b005b5f80fd5b348015610084575f80fd5b506100986100933660046106b5565b610108565b6040516100a6929190610725565b60405180910390f35b3480156100ba575f80fd5b506100ce6100c93660046107c5565b610494565b6040516100a6919061082c565b3480156100e6575f80fd5b506100fa6100f53660046106b5565b6105aa565b6040519081526020016100a6565b6060805f846001600160a01b031663026b1d5f6040518163ffffffff1660e01b8152600401602060405180830381865afa158015610148573d5f803e3d5ffd5b505050506040513d601f19601f8201168201806040525081019061016c9190610845565b90505f816001600160a01b031663d1946dbc6040518163ffffffff1660e01b81526004015f60405180830381865afa1580156101aa573d5f803e3d5ffd5b505050506040513d5f823e601f3d908101601f191682016040526101d191908101906108a5565b90505f815160016101e29190610966565b67ffffffffffffffff8111156101fa576101fa610860565b604051908082528060200260200182016040528015610223578160200160208202803683370190505b5090505f5b82518110156102875782818151811061024357610243610979565b602002602001015182828151811061025d5761025d610979565b6001600160a01b03909216602092830291909101909101528061027f8161098d565b915050610228565b5073eeeeeeeeeeeeeeeeeeeeeeeeeeeeeeeeeeeeeeee818351815181106102b0576102b0610979565b60200260200101906001600160a01b031690816001600160a01b0316815250505f815167ffffffffffffffff8111156102eb576102eb610860565b604051908082528060200260200182016040528015610314578160200160208202803683370190505b5090505f5b8351811015610448575f856001600160a01b031663c44b11f785848151811061034457610344610979565b60200260200101516040518263ffffffff1660e01b815260040161037791906001600160a01b0391909116815260200190565b602060405180830381865afa158015610392573d5f803e3d5ffd5b505050506040513d601f19601f820116820180604052508101906103b691906109a5565b8051909150670100000000000000161515806103f2575f8484815181106103df576103df610979565b6020026020010181815250505050610436565b6104158a86858151811061040857610408610979565b60200260200101516105aa565b84848151811061042757610427610979565b60200260200101818152505050505b806104408161098d565b915050610319565b506104678773eeeeeeeeeeeeeeeeeeeeeeeeeeeeeeeeeeeeeeee6105aa565b8184518151811061047a5761047a610979565b6020908102919091010152909450925050505b9250929050565b60605f6104a183866109e5565b67ffffffffffffffff8111156104b9576104b9610860565b6040519080825280602002602001820160405280156104e2578160200160208202803683370190505b5090505f5b858110156105a0575f5b8481101561058d5761054a88888481811061050e5761050e610979565b905060200201602081019061052391906109fc565b87878481811061053557610535610979565b90506020020160208101906100f591906109fc565b838261055688866109e5565b6105609190610966565b8151811061057057610570610979565b6020908102919091010152806105858161098d565b9150506104f1565b50806105988161098d565b9150506104e7565b5095945050505050565b5f73eeeeeeeeeeeeeeeeeeeeeeeeeeeeeeeeeeeeeeed196001600160a01b038316016105e157506001600160a01b03821631610698565b6001600160a01b0382163b15610660576040516370a0823160e01b81526001600160a01b0384811660048301528316906370a0823190602401602060405180830381865afa158015610635573d5f803e3d5ffd5b505050506040513d601f19601f820116820180604052508101906106599190610a17565b9050610698565b60405162461bcd60e51b815260206004820152600d60248201526c24a72b20a624a22faa27a5a2a760991b604482015260640161006a565b92915050565b6001600160a01b03811681146106b2575f80fd5b50565b5f80604083850312156106c6575f80fd5b82356106d18161069e565b915060208301356106e18161069e565b809150509250929050565b5f8151808452602080850194508084015f5b8381101561071a578151875295820195908201906001016106fe565b509495945050505050565b604080825283519082018190525f906020906060840190828701845b828110156107665781516001600160a01b031684529284019290840190600101610741565b5050508381038285015261077a81866106ec565b9695505050505050565b5f8083601f840112610794575f80fd5b50813567ffffffffffffffff8111156107ab575f80fd5b6020830191508360208260051b850101111561048d575f80fd5b5f805f80604085870312156107d8575f80fd5b843567ffffffffffffffff808211156107ef575f80fd5b6107fb88838901610784565b90965094506020870135915080821115610813575f80fd5b5061082087828801610784565b95989497509550505050565b602081525f61083e60208301846106ec565b9392505050565b5f60208284031215610855575f80fd5b815161083e8161069e565b634e487b7160e01b5f52604160045260245ffd5b604051601f8201601f1916810167ffffffffffffffff8111828210171561089d5761089d610860565b604052919050565b5f60208083850312156108b6575f80fd5b825167ffffffffffffffff808211156108cd575f80fd5b818501915085601f8301126108e0575f80fd5b8151818111156108f2576108f2610860565b8060051b9150610903848301610874565b818152918301840191848101908884111561091c575f80fd5b938501935b8385101561094657845192506109368361069e565b8282529385019390850190610921565b98975050505050505050565b634e487b7160e01b5f52601160045260245ffd5b8082018082111561069857610698610952565b634e487b7160e01b5f52603260045260245ffd5b5f6001820161099e5761099e610952565b5060010190565b5f602082840312156109b5575f80fd5b6040516020810181811067ffffffffffffffff821117156109d8576109d8610860565b6040529151825250919050565b808202811582820484141761069857610698610952565b5f60208284031215610a0c575f80fd5b813561083e8161069e565b5f60208284031215610a27575f80fd5b505191905056fea164736f6c6343000814000a608060405234801561000f575f80fd5b506123a58061001d5f395ff3fe608060405234801561000f575f80fd5b506004361061003f575f3560e01c80634763753614610043578063799bdcf51461006d578063976fafc51461008d575b5f80fd5b610056610051366004611b83565b6100ad565b604051610064929190611f18565b60405180910390f35b61008061007b366004611b83565b6100ce565b6040516100649190611f45565b6100a061009b366004611f57565b6100e1565b6040516100649190611f72565b6060806100b9846100f2565b6100c38585610d6d565b915091509250929050565b60606100da8383610d6d565b9392505050565b60606100ec826100f2565b92915050565b60605f826001600160a01b031663026b1d5f6040518163ffffffff1660e01b8152600401602060405180830381865afa158015610131573d5f803e3d5ffd5b505050506040513d601f19601f820116820180604052508101906101559190611f94565b90505f816001600160a01b031663d1946dbc6040518163ffffffff1660e01b81526004015f60405180830381865afa158015610193573d5f803e3d5ffd5b505050506040513d5f823e601f3d908101601f191682016040526101ba919081019061201e565b90505f815167ffffffffffffffff8111156101d7576101d7611faf565b60405190808252806020026020018201604052801561021057816020015b6101fd611a45565b8152602001906001900390816101f55790505b5090505f5b8251811015610d64575f828281518110610231576102316120cb565b6020026020010151905083828151811061024d5761024d6120cb565b6020026020010151815f01906001600160a01b031690816001600160a01b0316815250505f856001600160a01b03166335ea6a75868581518110610293576102936120cb565b60200260200101516040518263ffffffff1660e01b81526004016102c691906001600160a01b0391909116815260200190565b6101e060405180830381865afa1580156102e2573d5f803e3d5ffd5b505050506040513d601f19601f820116820180604052508101906103069190612163565b90505f8161010001516001600160a01b03166375d264136040518163ffffffff1660e01b8152600401602060405180830381865afa15801561034a573d5f803e3d5ffd5b505050506040513d601f19601f8201168201806040525081019061036e9190611f94565b905060606001600160a01b038216156107f557610100830151604051636657732f60e01b81526001600160a01b0391821660048201525f91841690636657732f906024015f60405180830381865afa1580156103cc573d5f803e3d5ffd5b505050506040513d5f823e601f3d908101601f191682016040526103f3919081019061201e565b9050805167ffffffffffffffff81111561040f5761040f611faf565b60405190808252806020026020018201604052801561044857816020015b610435611aab565b81526020019060019003908161042d5790505b5091505f5b81518110156107f25761045e611aab565b828281518110610470576104706120cb565b6020908102919091018101516001600160a01b03908116918301829052610100880151604051630fdfe97560e31b815290821660048201526024810192909252861690637eff4ba890604401608060405180830381865afa1580156104d7573d5f803e3d5ffd5b505050506040513d601f19601f820116820180604052508101906104fb9190612284565b60c08501526080840152606083015260a0820152610100860151604051634f7eb7b960e11b81526001600160a01b03918216600482015290861690639efd6f7290602401602060405180830381865afa15801561055a573d5f803e3d5ffd5b505050506040513d601f19601f8201168201806040525081019061057e91906122b7565b60ff166101208201526020808201516040805163313ce56760e01b815290516001600160a01b039092169263313ce567926004808401938290030181865afa1580156105cc573d5f803e3d5ffd5b505050506040513d601f19601f820116820180604052508101906105f091906122b7565b81610100019060ff16908160ff168152505080602001516001600160a01b03166395d89b416040518163ffffffff1660e01b81526004015f60405180830381865afa158015610641573d5f803e3d5ffd5b505050506040513d5f823e601f3d908101601f1916820160405261066891908101906122d7565b81526020810151604051630150bdfb60e51b81526001600160a01b03918216600482015290861690632a17bf6090602401602060405180830381865afa1580156106b4573d5f803e3d5ffd5b505050506040513d601f19601f820116820180604052508101906106d89190611f94565b6001600160a01b03166040808301829052805163313ce56760e01b8152905163313ce567916004808201926020929091908290030181865afa158015610720573d5f803e3d5ffd5b505050506040513d601f19601f8201168201806040525081019061074491906122b7565b81610140019060ff16908160ff168152505080604001516001600160a01b03166350d25bcd6040518163ffffffff1660e01b8152600401602060405180830381865afa158015610796573d5f803e3d5ffd5b505050506040513d601f19601f820116820180604052508101906107ba919061235d565b60e0820152835181908590849081106107d5576107d56120cb565b602002602001018190525050806107eb90612374565b905061044d565b50505b60405180606001604052808461010001516001600160a01b03168152602001836001600160a01b031681526020018281525084602001819052505f8361014001516001600160a01b03166375d264136040518163ffffffff1660e01b8152600401602060405180830381865afa158015610871573d5f803e3d5ffd5b505050506040513d601f19601f820116820180604052508101906108959190611f94565b905060606001600160a01b03821615610d1c57610140850151604051636657732f60e01b81526001600160a01b0391821660048201525f91841690636657732f906024015f60405180830381865afa1580156108f3573d5f803e3d5ffd5b505050506040513d5f823e601f3d908101601f1916820160405261091a919081019061201e565b9050805167ffffffffffffffff81111561093657610936611faf565b60405190808252806020026020018201604052801561096f57816020015b61095c611aab565b8152602001906001900390816109545790505b5091505f5b8151811015610d1957610985611aab565b828281518110610997576109976120cb565b6020908102919091018101516001600160a01b039081169183018290526101408a0151604051630fdfe97560e31b815290821660048201526024810192909252861690637eff4ba890604401608060405180830381865afa1580156109fe573d5f803e3d5ffd5b505050506040513d601f19601f82011682018060405250810190610a229190612284565b60c08501526080840152606083015260a0820152610140880151604051634f7eb7b960e11b81526001600160a01b03918216600482015290861690639efd6f7290602401602060405180830381865afa158015610a81573d5f803e3d5ffd5b505050506040513d601f19601f82011682018060405250810190610aa591906122b7565b60ff166101208201526020808201516040805163313ce56760e01b815290516001600160a01b039092169263313ce567926004808401938290030181865afa158015610af3573d5f803e3d5ffd5b505050506040513d601f19601f82011682018060405250810190610b1791906122b7565b81610100019060ff16908160ff168152505080602001516001600160a01b03166395d89b416040518163ffffffff1660e01b81526004015f60405180830381865afa158015610b68573d5f803e3d5ffd5b505050506040513d5f823e601f3d908101601f19168201604052610b8f91908101906122d7565b81526020810151604051630150bdfb60e51b81526001600160a01b03918216600482015290861690632a17bf6090602401602060405180830381865afa158015610bdb573d5f803e3d5ffd5b505050506040513d601f19601f82011682018060405250810190610bff9190611f94565b6001600160a01b03166040808301829052805163313ce56760e01b8152905163313ce567916004808201926020929091908290030181865afa158015610c47573d5f803e3d5ffd5b505050506040513d601f19601f82011682018060405250810190610c6b91906122b7565b81610140019060ff16908160ff168152505080604001516001600160a01b03166350d25bcd6040518163ffffffff1660e01b8152600401602060405180830381865afa158015610cbd573d5f803e3d5ffd5b505050506040513d601f19601f82011682018060405250810190610ce1919061235d565b60e082015283518190859084908110610cfc57610cfc6120cb565b60200260200101819052505080610d1290612374565b9050610974565b50505b60408051606081018252610140909601516001600160a01b03908116875292909216602086015284820152939093019190915250819050610d5c81612374565b915050610215565b50949350505050565b60605f836001600160a01b031663026b1d5f6040518163ffffffff1660e01b8152600401602060405180830381865afa158015610dac573d5f803e3d5ffd5b505050506040513d601f19601f82011682018060405250810190610dd09190611f94565b90505f816001600160a01b031663d1946dbc6040518163ffffffff1660e01b81526004015f60405180830381865afa158015610e0e573d5f803e3d5ffd5b505050506040513d5f823e601f3d908101601f19168201604052610e35919081019061201e565b90505f6001600160a01b038516610e4c575f610e4f565b81515b67ffffffffffffffff811115610e6757610e67611faf565b604051908082528060200260200182016040528015610ea057816020015b610e8d611a45565b815260200190600190039081610e855790505b5090505f5b8251811015611a3b575f846001600160a01b03166335ea6a75858481518110610ed057610ed06120cb565b60200260200101516040518263ffffffff1660e01b8152600401610f0391906001600160a01b0391909116815260200190565b6101e060405180830381865afa158015610f1f573d5f803e3d5ffd5b505050506040513d601f19601f82011682018060405250810190610f439190612163565b9050838281518110610f5757610f576120cb565b6020026020010151838381518110610f7157610f716120cb565b60200260200101515f01906001600160a01b031690816001600160a01b0316815250505f8161010001516001600160a01b03166375d264136040518163ffffffff1660e01b8152600401602060405180830381865afa158015610fd6573d5f803e3d5ffd5b505050506040513d601f19601f82011682018060405250810190610ffa9190611f94565b90506001600160a01b038116156114c957610100820151604051636657732f60e01b81526001600160a01b0391821660048201525f91831690636657732f906024015f60405180830381865afa158015611056573d5f803e3d5ffd5b505050506040513d5f823e601f3d908101601f1916820160405261107d919081019061201e565b90505f815167ffffffffffffffff81111561109a5761109a611faf565b6040519080825280602002602001820160405280156110d357816020015b6110c0611b16565b8152602001906001900390816110b85790505b5090505f5b8251811015611472576110e9611b16565b8382815181106110fb576110fb6120cb565b60209081029190910101516001600160a01b039081166040808401829052610100890151905163299faa1560e11b81528f84166004820152908316602482015260448101919091529086169063533f542a90606401602060405180830381865afa15801561116b573d5f803e3d5ffd5b505050506040513d601f19601f8201168201806040525081019061118f919061235d565b60808201526040808201519051632c08906360e21b81526001600160a01b038e8116600483015291821660248201529086169063b022418c90604401602060405180830381865afa1580156111e6573d5f803e3d5ffd5b505050506040513d601f19601f8201168201806040525081019061120a919061235d565b81606001818152505080604001516001600160a01b031663313ce5676040518163ffffffff1660e01b8152600401602060405180830381865afa158015611253573d5f803e3d5ffd5b505050506040513d601f19601f8201168201806040525081019061127791906122b7565b8160e0019060ff16908160ff168152505080604001516001600160a01b03166395d89b416040518163ffffffff1660e01b81526004015f60405180830381865afa1580156112c7573d5f803e3d5ffd5b505050506040513d5f823e601f3d908101601f191682016040526112ee91908101906122d7565b81526040808201519051630150bdfb60e51b81526001600160a01b03918216600482015290861690632a17bf6090602401602060405180830381865afa15801561133a573d5f803e3d5ffd5b505050506040513d601f19601f8201168201806040525081019061135e9190611f94565b6001600160a01b031660208083018290526040805163313ce56760e01b8152905163313ce567926004808401939192918290030181865afa1580156113a5573d5f803e3d5ffd5b505050506040513d601f19601f820116820180604052508101906113c991906122b7565b60ff1660c0820152602080820151604080516350d25bcd60e01b815290516001600160a01b03909216926350d25bcd926004808401938290030181865afa158015611416573d5f803e3d5ffd5b505050506040513d601f19601f8201168201806040525081019061143a919061235d565b60a082015282518190849084908110611455576114556120cb565b6020026020010181905250508061146b90612374565b90506110d8565b5060405180606001604052808561010001516001600160a01b03168152602001846001600160a01b03168152602001828152508686815181106114b7576114b76120cb565b60200260200101516020018190525050505b5f8261014001516001600160a01b03166375d264136040518163ffffffff1660e01b8152600401602060405180830381865afa15801561150b573d5f803e3d5ffd5b505050506040513d601f19601f8201168201806040525081019061152f9190611f94565b90506001600160a01b03811615611a2557610140830151604051636657732f60e01b81526001600160a01b0391821660048201525f91831690636657732f906024015f60405180830381865afa15801561158b573d5f803e3d5ffd5b505050506040513d5f823e601f3d908101601f191682016040526115b2919081019061201e565b90505f815167ffffffffffffffff8111156115cf576115cf611faf565b60405190808252806020026020018201604052801561160857816020015b6115f5611b16565b8152602001906001900390816115ed5790505b5090505f5b82518110156119ce5761161e611b16565b838281518110611630576116306120cb565b602002602001015181604001906001600160a01b031690816001600160a01b031681525050846001600160a01b031663533f542a8e89610140015184604001516040518463ffffffff1660e01b81526004016116ac939291906001600160a01b0393841681529183166020830152909116604082015260600190565b602060405180830381865afa1580156116c7573d5f803e3d5ffd5b505050506040513d601f19601f820116820180604052508101906116eb919061235d565b60808201526040808201519051632c08906360e21b81526001600160a01b038f8116600483015291821660248201529086169063b022418c90604401602060405180830381865afa158015611742573d5f803e3d5ffd5b505050506040513d601f19601f82011682018060405250810190611766919061235d565b81606001818152505080604001516001600160a01b031663313ce5676040518163ffffffff1660e01b8152600401602060405180830381865afa1580156117af573d5f803e3d5ffd5b505050506040513d601f19601f820116820180604052508101906117d391906122b7565b8160e0019060ff16908160ff168152505080604001516001600160a01b03166395d89b416040518163ffffffff1660e01b81526004015f60405180830381865afa158015611823573d5f803e3d5ffd5b505050506040513d5f823e601f3d908101601f1916820160405261184a91908101906122d7565b81526040808201519051630150bdfb60e51b81526001600160a01b03918216600482015290861690632a17bf6090602401602060405180830381865afa158015611896573d5f803e3d5ffd5b505050506040513d601f19601f820116820180604052508101906118ba9190611f94565b6001600160a01b031660208083018290526040805163313ce56760e01b8152905163313ce567926004808401939192918290030181865afa158015611901573d5f803e3d5ffd5b505050506040513d601f19601f8201168201806040525081019061192591906122b7565b60ff1660c0820152602080820151604080516350d25bcd60e01b815290516001600160a01b03909216926350d25bcd926004808401938290030181865afa158015611972573d5f803e3d5ffd5b505050506040513d601f19601f82011682018060405250810190611996919061235d565b60a0820152825181908490849081106119b1576119b16120cb565b602002602001018190525050806119c790612374565b905061160d565b5060405180606001604052808661014001516001600160a01b03168152602001856001600160a01b0316815260200182815250878781518110611a1357611a136120cb565b60200260200101516040018190525050505b5050508080611a3390612374565b915050610ea5565b5095945050505050565b60405180606001604052805f6001600160a01b03168152602001611a8060408051606080820183525f80835260208301529181019190915290565b8152602001611aa660408051606080820183525f80835260208301529181019190915290565b905290565b604051806101600160405280606081526020015f6001600160a01b031681526020015f6001600160a01b031681526020015f81526020015f81526020015f81526020015f81526020015f81526020015f60ff1681526020015f60ff1681526020015f60ff1681525090565b604051806101000160405280606081526020015f6001600160a01b031681526020015f6001600160a01b031681526020015f81526020015f81526020015f81526020015f60ff1681526020015f60ff1681525090565b6001600160a01b0381168114611b80575f80fd5b50565b5f8060408385031215611b94575f80fd5b8235611b9f81611b6c565b91506020830135611baf81611b6c565b809150509250929050565b5f5b83811015611bd4578181015183820152602001611bbc565b50505f910152565b5f8151808452611bf3816020860160208601611bba565b601f01601f19169290920160200192915050565b5f606080840160018060a01b038085511686526020818187015116818801526040915081860151848389015283815180865260809550858a019150858160051b8b010184840193505f5b82811015611d1057607f198c830301845284516101608151818552611c7882860182611bdc565b91505087820151611c93898601826001600160a01b03169052565b50888201516001600160a01b0316848a01528a8201518b850152898201518a85015260a0808301519085015260c0808301519085015260e080830151908501526101008083015160ff9081169186019190915261012080840151821690860152610140928301511691909301529385019392850192600101611c51565b509a9950505050505050505050565b5f81518084526020808501808196508360051b810191508286015f5b85811015611da1578284038952815180516001600160a01b0316855285810151606087870181905290611d7082880182611c07565b91505060408083015192508682038188015250611d8d8183611c07565b9a87019a9550505090840190600101611d3b565b5091979650505050505050565b5f606080840160018060a01b0380855116865260208181870151168188015260408087015185828a015284815180875260809650868b019150868160051b8c010185840193505f5b82811015611e8657607f198d830301845284516101008151818552611e1d82860182611bdc565b91505089898301511689850152898883015116888501528b8201518c8501528a8201518b85015260a080830151818601525060c080830151611e638287018260ff169052565b505060e09182015160ff1693909101929092529386019392860192600101611df6565b509b9a5050505050505050505050565b5f81518084526020808501808196508360051b810191508286015f5b85811015611da1578284038952815180516001600160a01b0316855285810151606087870181905290611ee782880182611dae565b91505060408083015192508682038188015250611f048183611dae565b9a87019a9550505090840190600101611eb2565b604081525f611f2a6040830185611d1f565b8281036020840152611f3c8185611e96565b95945050505050565b602081525f6100da6020830184611e96565b5f60208284031215611f67575f80fd5b81356100da81611b6c565b602081525f6100da6020830184611d1f565b8051611f8f81611b6c565b919050565b5f60208284031215611fa4575f80fd5b81516100da81611b6c565b634e487b7160e01b5f52604160045260245ffd5b6040516101e0810167ffffffffffffffff81118282101715611fe757611fe7611faf565b60405290565b604051601f8201601f1916810167ffffffffffffffff8111828210171561201657612016611faf565b604052919050565b5f602080838503121561202f575f80fd5b825167ffffffffffffffff80821115612046575f80fd5b818501915085601f830112612059575f80fd5b81518181111561206b5761206b611faf565b8060051b915061207c848301611fed565b8181529183018401918481019088841115612095575f80fd5b938501935b838510156120bf57845192506120af83611b6c565b828252938501939085019061209a565b98975050505050505050565b634e487b7160e01b5f52603260045260245ffd5b5f602082840312156120ef575f80fd5b6040516020810181811067ffffffffffffffff8211171561211257612112611faf565b6040529151825250919050565b80516fffffffffffffffffffffffffffffffff81168114611f8f575f80fd5b805164ffffffffff81168114611f8f575f80fd5b805161ffff81168114611f8f575f80fd5b5f6101e08284031215612174575f80fd5b61217c611fc3565b61218684846120df565b81526121946020840161211f565b60208201526121a56040840161211f565b60408201526121b66060840161211f565b60608201526121c76080840161211f565b60808201526121d860a0840161211f565b60a08201526121e960c0840161213e565b60c08201526121fa60e08401612152565b60e082015261010061220d818501611f84565b9082015261012061221f848201611f84565b90820152610140612231848201611f84565b90820152610160612243848201611f84565b9082015261018061225584820161211f565b908201526101a061226784820161211f565b908201526101c061227984820161211f565b908201529392505050565b5f805f8060808587031215612297575f80fd5b505082516020840151604085015160609095015191969095509092509050565b5f602082840312156122c7575f80fd5b815160ff811681146100da575f80fd5b5f602082840312156122e7575f80fd5b815167ffffffffffffffff808211156122fe575f80fd5b818401915084601f830112612311575f80fd5b81518181111561232357612323611faf565b612336601f8201601f1916602001611fed565b915080825285602082850101111561234c575f80fd5b610d64816020840160208601611bba565b5f6020828403121561236d575f80fd5b5051919050565b5f6001820161239157634e487b7160e01b5f52601160045260245ffd5b506001019056fea164736f6c6343000814000a60a060405234801562000010575f80fd5b506040516200260b3803806200260b833981016040819052620000339162000045565b6001600160a01b031660805262000074565b5f6020828403121562000056575f80fd5b81516001600160a01b03811681146200006d575f80fd5b9392505050565b6080516124f9620001125f395f81816101300152818161042d0152818161051b015281816107af01528181610a1101528181610b1301528181610c1301528181610d8001528181610e8f01528181610fea0152818161111a015281816112120152818161130f0152818161140a0152818161178a015281816118b1015281816119b901528181611abc01528181611d640152611e6401526124f95ff3fe608060405234801561000f575f80fd5b5060043610610127575f3560e01c806369b169e1116100a9578063d2493b6c1161006e578063d2493b6c146103a3578063d7ed3ef4146103e0578063f561ae41146103f3578063f7e14307146103fb578063fcf40a621461040e575f80fd5b806369b169e11461033e5780636fb07f96146103455780637ba1ae3614610358578063b316ff891461036b578063b55d990414610380575f80fd5b80633e150141116100ef5780633e1501411461027657806346fbe558146102dd5780634d44ac4f1461030557806351460e25146103185780636744362a1461032b575f80fd5b80630542975c1461012b57806328dd2d011461016f57806335ea6a75146101cf5780633c798109146102425780633cb8a62214610263575b5f80fd5b6101527f000000000000000000000000000000000000000000000000000000000000000081565b6040516001600160a01b0390911681526020015b60405180910390f35b61018261017d366004611fca565b610421565b60408051998a5260208a0198909852968801959095526060870193909352608086019190915260a085015260c084015264ffffffffff1660e0830152151561010082015261012001610166565b6101e26101dd366004612001565b6107a0565b604080519c8d5260208d019b909b52998b019890985260608a0196909652608089019490945260a088019290925260c087015260e086015261010085015261012084015261014083015264ffffffffff1661016082015261018001610166565b610255610250366004612001565b610a0b565b604051908152602001610166565b610255610271366004612001565b610b0d565b610289610284366004612001565b610c06565b604080519a8b5260208b01999099529789019690965260608801949094526080870192909252151560a0860152151560c0850152151560e08401521515610100830152151561012082015261014001610166565b6102f06102eb366004612001565b610d79565b60408051928352602083019190915201610166565b610255610313366004612001565b610e8b565b610255610326366004612001565b610fe6565b610152610339366004612001565b611116565b6002610255565b610255610353366004612001565b61120f565b610255610366366004612001565b611309565b610373611405565b6040516101669190612069565b61039361038e366004612001565b611784565b6040519015158152602001610166565b6103b66103b1366004612001565b6118ab565b604080516001600160a01b0394851681529284166020840152921691810191909152606001610166565b6103936103ee366004612001565b6119b5565b610373611ab7565b610393610409366004612001565b611d60565b61039361041c366004612001565b611e5e565b5f805f805f805f805f807f00000000000000000000000000000000000000000000000000000000000000006001600160a01b031663026b1d5f6040518163ffffffff1660e01b8152600401602060405180830381865afa158015610487573d5f803e3d5ffd5b505050506040513d601f19601f820116820180604052508101906104ab91906120f6565b6040516335ea6a7560e01b81526001600160a01b038e8116600483015291909116906335ea6a75906024016101e060405180830381865afa1580156104f2573d5f803e3d5ffd5b505050506040513d601f19601f8201168201806040525081019061051691906121fb565b90505f7f00000000000000000000000000000000000000000000000000000000000000006001600160a01b031663026b1d5f6040518163ffffffff1660e01b8152600401602060405180830381865afa158015610575573d5f803e3d5ffd5b505050506040513d601f19601f8201168201806040525081019061059991906120f6565b604051634417a58360e01b81526001600160a01b038e811660048301529190911690634417a58390602401602060405180830381865afa1580156105df573d5f803e3d5ffd5b505050506040513d601f19601f82011682018060405250810190610603919061231c565b6101008301516040516370a0823160e01b81526001600160a01b038f811660048301529293509116906370a0823190602401602060405180830381865afa158015610650573d5f803e3d5ffd5b505050506040513d601f19601f820116820180604052508101906106749190612336565b6101408301516040516370a0823160e01b81526001600160a01b038f81166004830152929d509116906370a0823190602401602060405180830381865afa1580156106c1573d5f803e3d5ffd5b505050506040513d601f19601f820116820180604052508101906106e59190612336565b610140830151604051630ed1279f60e11b81526001600160a01b038f811660048301525f9d50929b508c9a508a9850889650911690631da24f3e90602401602060405180830381865afa15801561073e573d5f803e3d5ffd5b505050506040513d601f19601f820116820180604052508101906107629190612336565b965081604001516001600160801b0316945061078f8260e0015161ffff1682611f5c90919063ffffffff16565b925050509295985092959850929598565b5f805f805f805f805f805f805f7f00000000000000000000000000000000000000000000000000000000000000006001600160a01b031663026b1d5f6040518163ffffffff1660e01b8152600401602060405180830381865afa158015610809573d5f803e3d5ffd5b505050506040513d601f19601f8201168201806040525081019061082d91906120f6565b6001600160a01b03166335ea6a758f6040518263ffffffff1660e01b815260040161086791906001600160a01b0391909116815260200190565b6101e060405180830381865afa158015610883573d5f803e3d5ffd5b505050506040513d601f19601f820116820180604052508101906108a791906121fb565b9050806101a001518161018001518261010001516001600160a01b03166318160ddd6040518163ffffffff1660e01b8152600401602060405180830381865afa1580156108f6573d5f803e3d5ffd5b505050506040513d601f19601f8201168201806040525081019061091a9190612336565b5f8461014001516001600160a01b03166318160ddd6040518163ffffffff1660e01b8152600401602060405180830381865afa15801561095c573d5f803e3d5ffd5b505050506040513d601f19601f820116820180604052508101906109809190612336565b856040015186608001515f8089602001518a606001518b60c001518b6001600160801b03169b508a6001600160801b03169a50866001600160801b03169650856001600160801b03169550826001600160801b03169250816001600160801b031691509c509c509c509c509c509c509c509c509c509c509c509c505091939597999b5091939597999b565b5f610b077f00000000000000000000000000000000000000000000000000000000000000006001600160a01b031663026b1d5f6040518163ffffffff1660e01b8152600401602060405180830381865afa158015610a6b573d5f803e3d5ffd5b505050506040513d601f19601f82011682018060405250810190610a8f91906120f6565b60405163c44b11f760e01b81526001600160a01b038581166004830152919091169063c44b11f790602401602060405180830381865afa158015610ad5573d5f803e3d5ffd5b505050506040513d601f19601f82011682018060405250810190610af9919061231c565b5160d41c64ffffffffff1690565b92915050565b5f610b077f00000000000000000000000000000000000000000000000000000000000000006001600160a01b031663026b1d5f6040518163ffffffff1660e01b8152600401602060405180830381865afa158015610b6d573d5f803e3d5ffd5b505050506040513d601f19601f82011682018060405250810190610b9191906120f6565b60405163c44b11f760e01b81526001600160a01b038581166004830152919091169063c44b11f790602401602060405180830381865afa158015610bd7573d5f803e3d5ffd5b505050506040513d601f19601f82011682018060405250810190610bfb919061231c565b5160981c61ffff1690565b5f805f805f805f805f805f7f00000000000000000000000000000000000000000000000000000000000000006001600160a01b031663026b1d5f6040518163ffffffff1660e01b8152600401602060405180830381865afa158015610c6d573d5f803e3d5ffd5b505050506040513d601f19601f82011682018060405250810190610c9191906120f6565b60405163c44b11f760e01b81526001600160a01b038e81166004830152919091169063c44b11f790602401602060405180830381865afa158015610cd7573d5f803e3d5ffd5b505050506040513d601f19601f82011682018060405250810190610cfb919061231c565b9050610d2c815161ffff80821692601083901c821692602081901c831692603082901c60ff169260409290921c1690565b8551919f50939d50919b509950909750600160381b8116151590600160391b81161515906001603a1b8116151590509c9e9b9d50999b989a97998c151599985f9850919650945092505050565b5f80610e817f00000000000000000000000000000000000000000000000000000000000000006001600160a01b031663026b1d5f6040518163ffffffff1660e01b8152600401602060405180830381865afa158015610dda573d5f803e3d5ffd5b505050506040513d601f19601f82011682018060405250810190610dfe91906120f6565b60405163c44b11f760e01b81526001600160a01b038681166004830152919091169063c44b11f790602401602060405180830381865afa158015610e44573d5f803e3d5ffd5b505050506040513d601f19601f82011682018060405250810190610e68919061231c565b51640fffffffff605082901c81169260749290921c1690565b9094909350915050565b5f807f00000000000000000000000000000000000000000000000000000000000000006001600160a01b031663026b1d5f6040518163ffffffff1660e01b8152600401602060405180830381865afa158015610ee9573d5f803e3d5ffd5b505050506040513d601f19601f82011682018060405250810190610f0d91906120f6565b6040516335ea6a7560e01b81526001600160a01b03858116600483015291909116906335ea6a75906024016101e060405180830381865afa158015610f54573d5f803e3d5ffd5b505050506040513d601f19601f82011682018060405250810190610f7891906121fb565b90508061014001516001600160a01b03166318160ddd6040518163ffffffff1660e01b8152600401602060405180830381865afa158015610fbb573d5f803e3d5ffd5b505050506040513d601f19601f82011682018060405250810190610fdf9190612336565b9392505050565b5f807f00000000000000000000000000000000000000000000000000000000000000006001600160a01b031663026b1d5f6040518163ffffffff1660e01b8152600401602060405180830381865afa158015611044573d5f803e3d5ffd5b505050506040513d601f19601f8201168201806040525081019061106891906120f6565b6040516335ea6a7560e01b81526001600160a01b03858116600483015291909116906335ea6a75906024016101e060405180830381865afa1580156110af573d5f803e3d5ffd5b505050506040513d601f19601f820116820180604052508101906110d391906121fb565b90508061010001516001600160a01b03166318160ddd6040518163ffffffff1660e01b8152600401602060405180830381865afa158015610fbb573d5f803e3d5ffd5b5f807f00000000000000000000000000000000000000000000000000000000000000006001600160a01b031663026b1d5f6040518163ffffffff1660e01b8152600401602060405180830381865afa158015611174573d5f803e3d5ffd5b505050506040513d601f19601f8201168201806040525081019061119891906120f6565b6040516335ea6a7560e01b81526001600160a01b03858116600483015291909116906335ea6a75906024016101e060405180830381865afa1580156111df573d5f803e3d5ffd5b505050506040513d601f19601f8201168201806040525081019061120391906121fb565b61016001519392505050565b5f7f00000000000000000000000000000000000000000000000000000000000000006001600160a01b031663026b1d5f6040518163ffffffff1660e01b8152600401602060405180830381865afa15801561126c573d5f803e3d5ffd5b505050506040513d601f19601f8201168201806040525081019061129091906120f6565b6040516337d83fcb60e11b81526001600160a01b0384811660048301529190911690636fb07f9690602401602060405180830381865afa1580156112d6573d5f803e3d5ffd5b505050506040513d601f19601f820116820180604052508101906112fa919061234d565b6001600160801b031692915050565b5f610b077f00000000000000000000000000000000000000000000000000000000000000006001600160a01b031663026b1d5f6040518163ffffffff1660e01b8152600401602060405180830381865afa158015611369573d5f803e3d5ffd5b505050506040513d601f19601f8201168201806040525081019061138d91906120f6565b60405163c44b11f760e01b81526001600160a01b038581166004830152919091169063c44b11f790602401602060405180830381865afa1580156113d3573d5f803e3d5ffd5b505050506040513d601f19601f820116820180604052508101906113f7919061231c565b5160b01c640fffffffff1690565b60605f7f00000000000000000000000000000000000000000000000000000000000000006001600160a01b031663026b1d5f6040518163ffffffff1660e01b8152600401602060405180830381865afa158015611464573d5f803e3d5ffd5b505050506040513d601f19601f8201168201806040525081019061148891906120f6565b90505f816001600160a01b031663d1946dbc6040518163ffffffff1660e01b81526004015f60405180830381865afa1580156114c6573d5f803e3d5ffd5b505050506040513d5f823e601f3d908101601f191682016040526114ed9190810190612366565b90505f815167ffffffffffffffff81111561150a5761150a612111565b60405190808252806020026020018201604052801561154f57816020015b60408051808201909152606081525f60208201528152602001906001900390816115285790505b5090505f5b825181101561177c57739f8f72aa9304c8b593d555f12ef6589cc3a579a26001600160a01b031683828151811061158d5761158d612413565b60200260200101516001600160a01b0316036116175760405180604001604052806040518060400160405280600381526020016226a5a960e91b81525081526020018483815181106115e1576115e1612413565b60200260200101516001600160a01b031681525082828151811061160757611607612413565b602002602001018190525061176a565b73eeeeeeeeeeeeeeeeeeeeeeeeeeeeeeeeeeeeeeee6001600160a01b031683828151811061164757611647612413565b60200260200101516001600160a01b03160361169b5760405180604001604052806040518060400160405280600381526020016208aa8960eb1b81525081526020018483815181106115e1576115e1612413565b60405180604001604052808483815181106116b8576116b8612413565b60200260200101516001600160a01b03166395d89b416040518163ffffffff1660e01b81526004015f60405180830381865afa1580156116fa573d5f803e3d5ffd5b505050506040513d5f823e601f3d908101601f191682016040526117219190810190612427565b815260200184838151811061173857611738612413565b60200260200101516001600160a01b031681525082828151811061175e5761175e612413565b60200260200101819052505b80611774816124b6565b915050611554565b509392505050565b5f6118a27f00000000000000000000000000000000000000000000000000000000000000006001600160a01b031663026b1d5f6040518163ffffffff1660e01b8152600401602060405180830381865afa1580156117e4573d5f803e3d5ffd5b505050506040513d601f19601f8201168201806040525081019061180891906120f6565b60405163c44b11f760e01b81526001600160a01b038581166004830152919091169063c44b11f790602401602060405180830381865afa15801561184e573d5f803e3d5ffd5b505050506040513d601f19601f82011682018060405250810190611872919061231c565b51600160381b8116151591600160391b82161515916001603a1b8116151591671000000000000000909116151590565b95945050505050565b5f805f807f00000000000000000000000000000000000000000000000000000000000000006001600160a01b031663026b1d5f6040518163ffffffff1660e01b8152600401602060405180830381865afa15801561190b573d5f803e3d5ffd5b505050506040513d601f19601f8201168201806040525081019061192f91906120f6565b6040516335ea6a7560e01b81526001600160a01b03878116600483015291909116906335ea6a75906024016101e060405180830381865afa158015611976573d5f803e3d5ffd5b505050506040513d601f19601f8201168201806040525081019061199a91906121fb565b6101008101516101409091015190965f965090945092505050565b5f807f00000000000000000000000000000000000000000000000000000000000000006001600160a01b031663026b1d5f6040518163ffffffff1660e01b8152600401602060405180830381865afa158015611a13573d5f803e3d5ffd5b505050506040513d601f19601f82011682018060405250810190611a3791906120f6565b60405163c44b11f760e01b81526001600160a01b038581166004830152919091169063c44b11f790602401602060405180830381865afa158015611a7d573d5f803e3d5ffd5b505050506040513d601f19601f82011682018060405250810190611aa1919061231c565b9050610fdf815167800000000000000016151590565b60605f7f00000000000000000000000000000000000000000000000000000000000000006001600160a01b031663026b1d5f6040518163ffffffff1660e01b8152600401602060405180830381865afa158015611b16573d5f803e3d5ffd5b505050506040513d601f19601f82011682018060405250810190611b3a91906120f6565b90505f816001600160a01b031663d1946dbc6040518163ffffffff1660e01b81526004015f60405180830381865afa158015611b78573d5f803e3d5ffd5b505050506040513d5f823e601f3d908101601f19168201604052611b9f9190810190612366565b90505f815167ffffffffffffffff811115611bbc57611bbc612111565b604051908082528060200260200182016040528015611c0157816020015b60408051808201909152606081525f6020820152815260200190600190039081611bda5790505b5090505f5b825181101561177c575f846001600160a01b03166335ea6a75858481518110611c3157611c31612413565b60200260200101516040518263ffffffff1660e01b8152600401611c6491906001600160a01b0391909116815260200190565b6101e060405180830381865afa158015611c80573d5f803e3d5ffd5b505050506040513d601f19601f82011682018060405250810190611ca491906121fb565b905060405180604001604052808261010001516001600160a01b03166395d89b416040518163ffffffff1660e01b81526004015f60405180830381865afa158015611cf1573d5f803e3d5ffd5b505050506040513d5f823e601f3d908101601f19168201604052611d189190810190612427565b81526020018261010001516001600160a01b0316815250838381518110611d4157611d41612413565b6020026020010181905250508080611d58906124b6565b915050611c06565b5f807f00000000000000000000000000000000000000000000000000000000000000006001600160a01b031663026b1d5f6040518163ffffffff1660e01b8152600401602060405180830381865afa158015611dbe573d5f803e3d5ffd5b505050506040513d601f19601f82011682018060405250810190611de291906120f6565b60405163c44b11f760e01b81526001600160a01b038581166004830152919091169063c44b11f790602401602060405180830381865afa158015611e28573d5f803e3d5ffd5b505050506040513d601f19601f82011682018060405250810190611e4c919061231c565b9050610fdf8151600160fc1b16151590565b5f610b077f00000000000000000000000000000000000000000000000000000000000000006001600160a01b031663026b1d5f6040518163ffffffff1660e01b8152600401602060405180830381865afa158015611ebe573d5f803e3d5ffd5b505050506040513d601f19601f82011682018060405250810190611ee291906120f6565b60405163c44b11f760e01b81526001600160a01b038581166004830152919091169063c44b11f790602401602060405180830381865afa158015611f28573d5f803e3d5ffd5b505050506040513d601f19601f82011682018060405250810190611f4c919061231c565b5167400000000000000016151590565b6040805180820190915260028152610dcd60f21b60208201525f9060808310611fa15760405162461bcd60e51b8152600401611f9891906124da565b60405180910390fd5b50509051600191821b82011c16151590565b6001600160a01b0381168114611fc7575f80fd5b50565b5f8060408385031215611fdb575f80fd5b8235611fe681611fb3565b91506020830135611ff681611fb3565b809150509250929050565b5f60208284031215612011575f80fd5b8135610fdf81611fb3565b5f5b8381101561203657818101518382015260200161201e565b50505f910152565b5f815180845261205581602086016020860161201c565b601f01601f19169290920160200192915050565b5f6020808301818452808551808352604092508286019150828160051b8701018488015f5b838110156120d857888303603f19018552815180518785526120b28886018261203e565b918901516001600160a01b0316948901949094529487019492509086019060010161208e565b509098975050505050505050565b80516120f181611fb3565b919050565b5f60208284031215612106575f80fd5b8151610fdf81611fb3565b634e487b7160e01b5f52604160045260245ffd5b6040516101e0810167ffffffffffffffff8111828210171561214957612149612111565b60405290565b604051601f8201601f1916810167ffffffffffffffff8111828210171561217857612178612111565b604052919050565b5f60208284031215612190575f80fd5b6040516020810181811067ffffffffffffffff821117156121b3576121b3612111565b6040529151825250919050565b80516001600160801b03811681146120f1575f80fd5b805164ffffffffff811681146120f1575f80fd5b805161ffff811681146120f1575f80fd5b5f6101e0828403121561220c575f80fd5b612214612125565b61221e8484612180565b815261222c602084016121c0565b602082015261223d604084016121c0565b604082015261224e606084016121c0565b606082015261225f608084016121c0565b608082015261227060a084016121c0565b60a082015261228160c084016121d6565b60c082015261229260e084016121ea565b60e08201526101006122a58185016120e6565b908201526101206122b78482016120e6565b908201526101406122c98482016120e6565b908201526101606122db8482016120e6565b908201526101806122ed8482016121c0565b908201526101a06122ff8482016121c0565b908201526101c06123118482016121c0565b908201529392505050565b5f6020828403121561232c575f80fd5b610fdf8383612180565b5f60208284031215612346575f80fd5b5051919050565b5f6020828403121561235d575f80fd5b610fdf826121c0565b5f6020808385031215612377575f80fd5b825167ffffffffffffffff8082111561238e575f80fd5b818501915085601f8301126123a1575f80fd5b8151818111156123b3576123b3612111565b8060051b91506123c484830161214f565b81815291830184019184810190888411156123dd575f80fd5b938501935b8385101561240757845192506123f783611fb3565b82825293850193908501906123e2565b98975050505050505050565b634e487b7160e01b5f52603260045260245ffd5b5f60208284031215612437575f80fd5b815167ffffffffffffffff8082111561244e575f80fd5b818401915084601f830112612461575f80fd5b81518181111561247357612473612111565b612486601f8201601f191660200161214f565b915080825285602082850101111561249c575f80fd5b6124ad81602084016020860161201c565b50949350505050565b5f600182016124d357634e487b7160e01b5f52601160045260245ffd5b5060010190565b602081525f610fdf602083018461203e56fea164736f6c6343000814000a60c060405234801562000010575f80fd5b506040516200279038038062002790833981016040819052620000339162000067565b6001600160a01b039182166080521660a0526200009d565b80516001600160a01b038116811462000062575f80fd5b919050565b5f806040838503121562000079575f80fd5b62000084836200004b565b915062000094602084016200004b565b90509250929050565b60805160a0516126bd620000d35f395f81816101960152611ad601525f818160bb0152818161192001526119a901526126bd5ff3fe608060405234801561000f575f80fd5b5060043610610090575f3560e01c80636f90b9d1116100635780636f90b9d114610136578063825ffd92146101565780639201de5514610171578063d22cf68a14610191578063ec489c21146101b8575f80fd5b80630496f53a146100945780633c1740ed146100b657806351974cc0146100f5578063586c144214610116575b5f80fd5b6100a3670de0b6b3a764000081565b6040519081526020015b60405180910390f35b6100dd7f000000000000000000000000000000000000000000000000000000000000000081565b6040516001600160a01b0390911681526020016100ad565b610108610103366004611c73565b6101d9565b6040516100ad929190611caa565b610129610124366004611d23565b61065f565b6040516100ad9190611d3e565b610149610144366004611d23565b61072d565b6040516100ad9190611dd7565b6100dd739f8f72aa9304c8b593d555f12ef6589cc3a579a281565b61018461017f366004611eac565b610b3a565b6040516100ad9190611ec3565b6100dd7f000000000000000000000000000000000000000000000000000000000000000081565b6101cb6101c6366004611d23565b610c66565b6040516100ad929190611ed5565b60605f80846001600160a01b031663026b1d5f6040518163ffffffff1660e01b8152600401602060405180830381865afa158015610219573d5f803e3d5ffd5b505050506040513d601f19601f8201168201806040525081019061023d9190612199565b90505f816001600160a01b031663d1946dbc6040518163ffffffff1660e01b81526004015f60405180830381865afa15801561027b573d5f803e3d5ffd5b505050506040513d5f823e601f3d908101601f191682016040526102a29190810190612223565b604051634417a58360e01b81526001600160a01b0387811660048301529192505f91841690634417a58390602401602060405180830381865afa1580156102eb573d5f803e3d5ffd5b505050506040513d601f19601f8201168201806040525081019061030f9190612310565b60405163eddf1b7960e01b81526001600160a01b0388811660048301529192505f9185169063eddf1b7990602401602060405180830381865afa158015610358573d5f803e3d5ffd5b505050506040513d601f19601f8201168201806040525081019061037c919061232a565b90505f6001600160a01b038816610393575f610396565b83515b67ffffffffffffffff8111156103ae576103ae6121b4565b6040519080825280602002602001820160405280156103fe57816020015b604080516080810182525f8082526020808301829052928201819052606082015282525f199092019101816103cc5790505b5090505f5b8451811015610651575f866001600160a01b03166335ea6a7587848151811061042e5761042e612341565b60200260200101516040518263ffffffff1660e01b815260040161046191906001600160a01b0391909116815260200190565b6101e060405180830381865afa15801561047d573d5f803e3d5ffd5b505050506040513d601f19601f820116820180604052508101906104a19190612390565b90508582815181106104b5576104b5612341565b60200260200101518383815181106104cf576104cf612341565b60209081029190910101516001600160a01b039182169052610100820151604051630ed1279f60e11b81528c83166004820152911690631da24f3e90602401602060405180830381865afa158015610529573d5f803e3d5ffd5b505050506040513d601f19601f8201168201806040525081019061054d919061232a565b83838151811061055f5761055f612341565b60209081029190910181015101526105778583611b76565b83838151811061058957610589612341565b60209081029190910101519015156040909101526105a78583611bcd565b1561063e57610140810151604051630ed1279f60e11b81526001600160a01b038c8116600483015290911690631da24f3e90602401602060405180830381865afa1580156105f7573d5f803e3d5ffd5b505050506040513d601f19601f8201168201806040525081019061061b919061232a565b83838151811061062d5761062d612341565b602002602001015160600181815250505b5080610649816124c5565b915050610403565b509890975095505050505050565b60605f826001600160a01b031663026b1d5f6040518163ffffffff1660e01b8152600401602060405180830381865afa15801561069e573d5f803e3d5ffd5b505050506040513d601f19601f820116820180604052508101906106c29190612199565b9050806001600160a01b031663d1946dbc6040518163ffffffff1660e01b81526004015f60405180830381865afa1580156106ff573d5f803e3d5ffd5b505050506040513d5f823e601f3d908101601f191682016040526107269190810190612223565b9392505050565b60605f826001600160a01b031663026b1d5f6040518163ffffffff1660e01b8152600401602060405180830381865afa15801561076c573d5f803e3d5ffd5b505050506040513d601f19601f820116820180604052508101906107909190612199565b6040805161010080825261202082019092529192505f9190816020015b6107b5611c19565b8152602001906001900390816107ad5790505090505f8060015b6101008160ff161015610a755760405163b286f46760e01b815260ff821660048201525f906001600160a01b0387169063b286f46790602401606060405180830381865afa158015610823573d5f803e3d5ffd5b505050506040513d601f19601f8201168201806040525081019061084791906124dd565b9050806020015161ffff165f14610a445760405180604001604052808360ff1681526020016040518060c00160405280845f015161ffff168152602001846020015161ffff168152602001846040015161ffff168152602001896001600160a01b031663b0771dba876040518263ffffffff1660e01b81526004016108d5919060ff91909116815260200190565b602060405180830381865afa1580156108f0573d5f803e3d5ffd5b505050506040513d601f19601f820116820180604052508101906109149190612547565b6001600160801b03168152604051632083e18360e01b815260ff871660048201526020909101906001600160a01b038b1690632083e183906024015f60405180830381865afa158015610969573d5f803e3d5ffd5b505050506040513d5f823e601f3d908101601f191682016040526109909190810190612560565b815260405163903a2c7160e01b815260ff871660048201526020909101906001600160a01b038b169063903a2c7190602401602060405180830381865afa1580156109dd573d5f803e3d5ffd5b505050506040513d601f19601f82011682018060405250810190610a019190612547565b6001600160801b0316815250815250858560ff1681518110610a2557610a25612341565b602002602001018190525083610a3a906125ef565b93505f9250610a50565b610a4d836125ef565b92505b60028360ff161115610a625750610a75565b5080610a6d816125ef565b9150506107cf565b505f8260ff1667ffffffffffffffff811115610a9357610a936121b4565b604051908082528060200260200182016040528015610acc57816020015b610ab9611c19565b815260200190600190039081610ab15790505b5090505f5b8360ff168160ff161015610b2f57848160ff1681518110610af457610af4612341565b6020026020010151828260ff1681518110610b1157610b11612341565b60200260200101819052508080610b27906125ef565b915050610ad1565b509695505050505050565b60605f5b60208160ff16108015610b725750828160ff1660208110610b6157610b61612341565b1a60f81b6001600160f81b03191615155b15610b895780610b81816125ef565b915050610b3e565b5f8160ff1667ffffffffffffffff811115610ba657610ba66121b4565b6040519080825280601f01601f191660200182016040528015610bd0576020820181803683370190505b5090505f91505b60208260ff16108015610c0b5750838260ff1660208110610bfa57610bfa612341565b1a60f81b6001600160f81b03191615155b1561072657838260ff1660208110610c2557610c25612341565b1a60f81b818360ff1681518110610c3e57610c3e612341565b60200101906001600160f81b03191690815f1a90535081610c5e816125ef565b925050610bd7565b6060610c9260405180608001604052805f81526020015f81526020015f81526020015f60ff1681525090565b5f836001600160a01b031663fca513a86040518163ffffffff1660e01b8152600401602060405180830381865afa158015610ccf573d5f803e3d5ffd5b505050506040513d601f19601f82011682018060405250810190610cf39190612199565b90505f846001600160a01b031663026b1d5f6040518163ffffffff1660e01b8152600401602060405180830381865afa158015610d32573d5f803e3d5ffd5b505050506040513d601f19601f82011682018060405250810190610d569190612199565b90505f856001600160a01b031663e860accb6040518163ffffffff1660e01b8152600401602060405180830381865afa158015610d95573d5f803e3d5ffd5b505050506040513d601f19601f82011682018060405250810190610db99190612199565b90505f826001600160a01b031663d1946dbc6040518163ffffffff1660e01b81526004015f60405180830381865afa158015610df7573d5f803e3d5ffd5b505050506040513d5f823e601f3d908101601f19168201604052610e1e9190810190612223565b90505f815167ffffffffffffffff811115610e3b57610e3b6121b4565b604051908082528060200260200182016040528015610fb057816020015b60408051610520810182525f8082526060602080840182905293830181905282018190526080820181905260a0820181905260c0820181905260e08201819052610100820181905261012082018190526101408201819052610160820181905261018082018190526101a082018190526101c082018190526101e08201819052610200820181905261022082018190526102408201819052610260820181905261028082018190526102a082018190526102c082018190526102e08201819052610300820181905261032082018190526103408201819052610360820181905261038082018190526103a082018190526103c082018190526103e08201819052610400820181905261042082018190526104408201819052610460820181905261048082018190526104a082018190526104c082018190526104e0820181905261050082015282525f19909201910181610e595790505b5090505f5b82518110156118f3575f828281518110610fd157610fd1612341565b60200260200101519050838281518110610fed57610fed612341565b60209081029190910101516001600160a01b039081168083526040516335ea6a7560e01b815260048101919091525f918816906335ea6a75906024016101e060405180830381865afa158015611045573d5f803e3d5ffd5b505050506040513d601f19601f820116820180604052508101906110699190612390565b60208101516001600160801b03908116610180850152606082015181166101a085015260408083015182166101c086015260808301519091166101e085015260c082015164ffffffffff166102008501526101008201516001600160a01b03908116610220860152610140830151811661024086015261016083015181166102608601528451915163b3596f0760e01b815291811660048301529192509089169063b3596f0790602401602060405180830381865afa15801561112e573d5f803e3d5ffd5b505050506040513d601f19601f82011682018060405250810190611152919061232a565b6102c08301528151604051630495f95f60e51b81526001600160a01b039182166004820152908916906392bf2be090602401602060405180830381865afa15801561119f573d5f803e3d5ffd5b505050506040513d601f19601f820116820180604052508101906111c39190612199565b6001600160a01b039081166102e084015282516102208401516040516370a0823160e01b815290831660048201529116906370a0823190602401602060405180830381865afa158015611218573d5f803e3d5ffd5b505050506040513d601f19601f8201168201806040525081019061123c919061232a565b826102800181815250508161024001516001600160a01b031663b1bf962d6040518163ffffffff1660e01b8152600401602060405180830381865afa158015611287573d5f803e3d5ffd5b505050506040513d601f19601f820116820180604052508101906112ab919061232a565b6102a083015281516001600160a01b0316739f8f72aa9304c8b593d555f12ef6589cc3a579a119016113c7575f825f01516001600160a01b03166395d89b416040518163ffffffff1660e01b8152600401602060405180830381865afa158015611317573d5f803e3d5ffd5b505050506040513d601f19601f8201168201806040525081019061133b919061232a565b90505f835f01516001600160a01b03166306fdde036040518163ffffffff1660e01b8152600401602060405180830381865afa15801561137d573d5f803e3d5ffd5b505050506040513d601f19601f820116820180604052508101906113a1919061232a565b90506113ac82610b3a565b60408501526113ba81610b3a565b60208501525061149f9050565b815f01516001600160a01b03166395d89b416040518163ffffffff1660e01b81526004015f60405180830381865afa158015611405573d5f803e3d5ffd5b505050506040513d5f823e601f3d908101601f1916820160405261142c9190810190612560565b8260400181905250815f01516001600160a01b03166306fdde036040518163ffffffff1660e01b81526004015f60405180830381865afa158015611472573d5f803e3d5ffd5b505050506040513d5f823e601f3d908101601f191682016040526114999190810190612560565b60208301525b8051805161ffff604082811c821660e087015260ff603084901c166060870152602083901c821660c0870152601083901c821660a0870152911660808086018290529015156101008601528251671000000000000000811615156103808701526704000000000000008116151561012087015267020000000000000081161515610160870152670100000000000000161515610140860152610260850151855183516304c7a22760e21b81526001600160a01b039182166004820152935191169263131e889c9260248083019391928290030181865afa9250505080156115a3575060408051601f3d908101601f191682019092526115a09181019061260d565b60015b156115d157602081015161034085015260408101516103008501526060810151610320850152516103608401525b805160d41c64ffffffffff1683610440018181525050866001600160a01b03166369b169e16040518163ffffffff1660e01b8152600401602060405180830381865afa158015611623573d5f803e3d5ffd5b505050506040513d601f19601f82011682018060405250810190611647919061232a565b6104608401528051640fffffffff605082901c81169160741c166104a085015261048084015282516040516335fb4fbd60e21b81526001600160a01b0391821660048201529088169063d7ed3ef490602401602060405180830381865afa9250505080156116d2575060408051601f3d908101601f191682019092526116cf91810190612671565b60015b611713573d8080156116ff576040519150601f19603f3d011682016040523d82523d5f602084013e611704565b606091505b5050600161042084015261171c565b15156104208401525b805167400000000000000016151515156103a08401526101a08201516001600160801b039081166103e08501526101c08301518116610400850152610180830151166103c0840152805167200000000000000016151515156104c0840152825160405163f7e1430760e01b81526001600160a01b0391821660048201529088169063f7e1430790602401602060405180830381865afa9250505080156117df575060408051601f3d908101601f191682019092526117dc91810190612671565b60015b61181f573d80801561180c576040519150601f19603f3d011682016040523d82523d5f602084013e611811565b606091505b50505f6104e0840152611828565b15156104e08401525b82516040516337d83fcb60e11b81526001600160a01b03918216600482015290891690636fb07f9690602401602060405180830381865afa92505050801561188d575060408051601f3d908101601f1916820190925261188a91810190612547565b60015b6118cd573d8080156118ba576040519150601f19603f3d011682016040523d82523d5f602084013e6118bf565b606091505b50505f6105008401526118dd565b6001600160801b03166105008401525b50505080806118eb906124c5565b915050610fb5565b5061191e60405180608001604052805f81526020015f81526020015f81526020015f60ff1681525090565b7f00000000000000000000000000000000000000000000000000000000000000006001600160a01b03166350d25bcd6040518163ffffffff1660e01b8152600401602060405180830381865afa15801561197a573d5f803e3d5ffd5b505050506040513d601f19601f8201168201806040525081019061199e919061232a565b8160400181815250507f00000000000000000000000000000000000000000000000000000000000000006001600160a01b031663313ce5676040518163ffffffff1660e01b8152600401602060405180830381865afa158015611a03573d5f803e3d5ffd5b505050506040513d601f19601f82011682018060405250810190611a279190612690565b60ff16606082015260408051638c89b64f60e01b815290516001600160a01b03881691638c89b64f9160048083019260209291908290030181865afa925050508015611a90575060408051601f3d908101601f19168201909252611a8d9181019061232a565b60015b611b5f573d808015611abd576040519150601f19603f3d011682016040523d82523d5f602084013e611ac2565b606091505b50670de0b6b3a7640000825f0181815250507f00000000000000000000000000000000000000000000000000000000000000006001600160a01b03166350d25bcd6040518163ffffffff1660e01b8152600401602060405180830381865afa158015611b30573d5f803e3d5ffd5b505050506040513d601f19601f82011682018060405250810190611b54919061232a565b602083015250611b68565b80825260208201525b909890975095505050505050565b6040805180820190915260028152610dcd60f21b60208201525f9060808310611bbb5760405162461bcd60e51b8152600401611bb29190611ec3565b60405180910390fd5b50509051600191821b82011c16151590565b6040805180820190915260028152610dcd60f21b60208201525f9060808310611c095760405162461bcd60e51b8152600401611bb29190611ec3565b50509051600191821b1c16151590565b6040805180820182525f808252825160c08101845281815260208181018390529381018290526060808201839052608082015260a0810191909152909182015290565b6001600160a01b0381168114611c70575f80fd5b50565b5f8060408385031215611c84575f80fd5b8235611c8f81611c5c565b91506020830135611c9f81611c5c565b809150509250929050565b604080825283518282018190525f9190606090818501906020808901865b83811015611d0a57815180516001600160a01b031686528381015184870152878101511515888701528601518686015260809094019390820190600101611cc8565b505082955060ff88168188015250505050509392505050565b5f60208284031215611d33575f80fd5b813561072681611c5c565b602080825282518282018190525f9190848201906040850190845b81811015611d7e5783516001600160a01b031683529284019291840191600101611d59565b50909695505050505050565b5f5b83811015611da4578181015183820152602001611d8c565b50505f910152565b5f8151808452611dc3816020860160208601611d8a565b601f01601f19169290920160200192915050565b5f6020808301818452808551808352604092508286019150828160051b8701018488015f5b83811015611e9e57888303603f190185528151805160ff168452870151878401879052805161ffff9081168886015281890151811660608087019190915288830151909116608080870191909152908201516001600160801b0390811660a0808801919091529183015160c0808801529190611e7c610100880184611dac565b93909101511660e0959095019490945294870194925090860190600101611dfc565b509098975050505050505050565b5f60208284031215611ebc575f80fd5b5035919050565b602081525f6107266020830184611dac565b5f60a080830181845280865180835260c092508286019150828160051b8701016020808a015f5b848110156121475789840360bf19018652815180516001600160a01b03168552610520848201518186880152611f3482880182611dac565b91505060408083015187830382890152611f4e8382611dac565b606085810151908a0152608080860151908a01528c8501518d8a01528b8501518c8a015260e080860151908a0152610100808601511515908a0152610120808601511515908a0152610140808601511515908a0152610160808601511515908a0152610180808601516001600160801b03908116918b01919091526101a0808701518216908b01526101c0808701518216908b01526101e0808701518216908b01526102008087015164ffffffffff16908b0152610220808701516001600160a01b03908116918c0191909152610240808801518216908c0152610260808801518216908c015261028080880151908c01526102a080880151908c01526102c080880151908c01526102e080880151909116908b015261030080870151908b015261032080870151908b015261034080870151908b015261036080870151908b0152610380808701511515908b01526103a0808701511515908b01526103c0808701518216908b01526103e0808701518216908b0152610400808701518216908b0152610420808701511515908b015261044080870151908b015261046080870151908b015261048080870151908b01526104a080870151908b01526104c0808701511515908b01526104e0808701511515908b0152610500958601511694909801939093525050509482019490820190600101611efc565b505081965061217c8189018a80518252602081015160208301526040810151604083015260ff60608201511660608301525050565b5050505050509392505050565b805161219481611c5c565b919050565b5f602082840312156121a9575f80fd5b815161072681611c5c565b634e487b7160e01b5f52604160045260245ffd5b6040516101e0810167ffffffffffffffff811182821017156121ec576121ec6121b4565b60405290565b604051601f8201601f1916810167ffffffffffffffff8111828210171561221b5761221b6121b4565b604052919050565b5f6020808385031215612234575f80fd5b825167ffffffffffffffff8082111561224b575f80fd5b818501915085601f83011261225e575f80fd5b815181811115612270576122706121b4565b8060051b91506122818483016121f2565b818152918301840191848101908884111561229a575f80fd5b938501935b838510156122c457845192506122b483611c5c565b828252938501939085019061229f565b98975050505050505050565b5f602082840312156122e0575f80fd5b6040516020810181811067ffffffffffffffff82111715612303576123036121b4565b6040529151825250919050565b5f60208284031215612320575f80fd5b61072683836122d0565b5f6020828403121561233a575f80fd5b5051919050565b634e487b7160e01b5f52603260045260245ffd5b80516001600160801b0381168114612194575f80fd5b805164ffffffffff81168114612194575f80fd5b805161ffff81168114612194575f80fd5b5f6101e082840312156123a1575f80fd5b6123a96121c8565b6123b384846122d0565b81526123c160208401612355565b60208201526123d260408401612355565b60408201526123e360608401612355565b60608201526123f460808401612355565b608082015261240560a08401612355565b60a082015261241660c0840161236b565b60c082015261242760e0840161237f565b60e082015261010061243a818501612189565b9082015261012061244c848201612189565b9082015261014061245e848201612189565b90820152610160612470848201612189565b90820152610180612482848201612355565b908201526101a0612494848201612355565b908201526101c06124a6848201612355565b908201529392505050565b634e487b7160e01b5f52601160045260245ffd5b5f600182016124d6576124d66124b1565b5060010190565b5f606082840312156124ed575f80fd5b6040516060810181811067ffffffffffffffff82111715612510576125106121b4565b60405261251c8361237f565b815261252a6020840161237f565b602082015261253b6040840161237f565b60408201529392505050565b5f60208284031215612557575f80fd5b61072682612355565b5f60208284031215612570575f80fd5b815167ffffffffffffffff80821115612587575f80fd5b818401915084601f83011261259a575f80fd5b8151818111156125ac576125ac6121b4565b6125bf601f8201601f19166020016121f2565b91508082528560208285010111156125d5575f80fd5b6125e6816020840160208601611d8a565b50949350505050565b5f60ff821660ff8103612604576126046124b1565b60010192915050565b5f6080828403121561261d575f80fd5b6040516080810181811067ffffffffffffffff82111715612640576126406121b4565b8060405250825181526020830151602082015260408301516040820152606083015160608201528091505092915050565b5f60208284031215612681575f80fd5b81518015158114610726575f80fd5b5f602082840312156126a0575f80fd5b815160ff81168114610726575f80fdfea164736f6c6343000814000a","linkReferences":{}},"methodIdentifiers":{"getGettersReportOne()":"0cf19f2c"},"id":299}