{"abi":[{"type":"constructor","inputs":[],"stateMutability":"nonpayable"},{"type":"function","name":"getLibrariesReport","inputs":[],"outputs":[{"name":"","type":"tuple","internalType":"struct LibrariesReport","components":[{"name":"borrowLogic","type":"address","internalType":"address"},{"name":"bridgeLogic","type":"address","internalType":"address"},{"name":"configuratorLogic","type":"address","internalType":"address"},{"name":"eModeLogic","type":"address","internalType":"address"},{"name":"flashLoanLogic","type":"address","internalType":"address"},{"name":"liquidationLogic","type":"address","internalType":"address"},{"name":"poolLogic","type":"address","internalType":"address"},{"name":"supplyLogic","type":"address","internalType":"address"}]}],"stateMutability":"view"}],"bytecode":{"object":"0x608060405234801561000f575f80fd5b506100186100c7565b80515f80546001600160a01b03199081166001600160a01b0393841617909155602083015160018054831691841691909117905560408301516002805483169184169190911790556060830151600380548316918416919091179055608083015160048054831691841691909117905560a083015160058054831691841691909117905560c083015160068054831691841691909117905560e090920151600780549093169116179055610504565b60408051610100810182525f80825260208201819052918101829052606081018290526080810182905260a0810182905260c0810182905260e08101919091526040517f689217c1373873bb79a9fac7d9ef8e087de78e5547e2ef7976137de6e359e04c9061015690829061013e60208201610448565b601f1982820381018352601f909101166040526101d4565b6001600160a01b0316825260405161017690829061013e60208201610455565b6001600160a01b031660208084019190915260405161019d9183919061013e908201610462565b6001600160a01b0316604080840191909152516101c290829061013e6020820161046f565b6001600160a01b031660608301525090565b5f73914d7fec6aac8cd542e72bca78b30650d45643d73b151581036102405760405162461bcd60e51b815260206004820152601760248201527f4d495353494e475f435245415445325f464143544f525900000000000000000060448201526064015b60405180910390fd5b5f61024b8484610380565b90506001600160a01b0381163b1561026457905061037a565b5f84846040516020016102789291906104a9565b6040516020818303038152906040529050606073914d7fec6aac8cd542e72bca78b30650d45643d76001600160a01b0316826040516102b791906104c2565b5f604051808303815f865af19150503d805f81146102f0576040519150601f19603f3d011682016040523d82523d5f602084013e6102f5565b606091505b5091505f9050610304826104cd565b60601c90506001600160a01b038416811461036f5760405162461bcd60e51b815260206004820152602560248201527f6661696c7572652061742063726561746532206164647265737320646572697660448201526430ba34b7b760d91b6064820152608401610237565b935061037a92505050565b92915050565b5f6103b7838360405160200161039691906104c2565b604051602081830303815290604052805190602001206103be60201b60201c565b9392505050565b6040517fff0000000000000000000000000000000000000000000000000000000000000060208201527f914d7fec6aac8cd542e72bca78b30650d45643d7000000000000000000000000602182015260358101839052605581018290525f906103b7906075016040516020818303038152906040528051906020012061044560201b60201c565b90565b6130aa8061067283390190565b611a6c8061371c83390190565b6119c08061518883390190565b610ee180616b4883390190565b5f81515f5b8181101561049b5760208185018101518683015201610481565b505f93019283525090919050565b8281525f6104ba602083018461047c565b949350505050565b5f6103b7828461047c565b805160208201516001600160601b031980821692919060148310156104fc5780818460140360031b1b83161693505b505050919050565b610161806105115f395ff3fe608060405234801561000f575f80fd5b5060043610610029575f3560e01c8063c3d5cff51461002d575b5f80fd5b6100d760408051610100810182525f80825260208201819052918101829052606081018290526080810182905260a0810182905260c0810182905260e08101919091525060408051610100810182525f546001600160a01b039081168252600154811660208301526002548116928201929092526003548216606082015260045482166080820152600554821660a0820152600654821660c082015260075490911660e082015290565b60405161014b919081516001600160a01b03908116825260208084015182169083015260408084015182169083015260608084015182169083015260808084015182169083015260a08084015182169083015260c08084015182169083015260e09283015116918101919091526101000190565b60405180910390f3fea164736f6c6343000814000a613075610035600b8282823980515f1a60731461002957634e487b7160e01b5f525f60045260245ffd5b305f52607381538281f3fe730000000000000000000000000000000000000000301460806040526004361061003f575f3560e01c80631e6473f91461004357806340e95de614610064575b5f80fd5b81801561004e575f80fd5b5061006261005d366004612bb2565b610095565b005b81801561006f575f80fd5b5061008361007e366004612cbf565b6104a4565b60405190815260200160405180910390f35b80516001600160a01b03165f908152602086905260408120906100b78261092d565b90506100c38282610a50565b6040805160208101909152845481525f90819081906100e3908b8b610aa8565b9250925092506101c58a8a8a604051806101a001604052808981526020018c6040518060200160405290815f8201548152505081526020018b5f01516001600160a01b031681526020018b604001516001600160a01b031681526020018b6060015181526020018b60800151600281111561016057610160612d82565b81526020018b60e0015181526020018b61010001516001600160a01b031681526020018b610120015160ff1681526020018b61014001516001600160a01b031681526020018815158152602001876001600160a01b0316815260200186815250610b4e565b610160840151602087015160408089015160608a015160a0890151925163b3f1c93d60e01b81526001600160a01b0394851660048201529184166024830152604482015260648101919091525f92919091169063b3f1c93d9060840160408051808303815f875af115801561023c573d5f803e3d5ffd5b505050506040513d601f19601f820116820180604052508101906102609190612d96565b60208701529050801561028a57600386015461028a908990600160a81b900461ffff1660016114ca565b831561037557610120850151515f906102cf9060029060301c60ff166102b09190612dd6565b6102bb90600a612ec9565b89606001516102ca9190612ee8565b61152a565b6001600160a01b0385165f90815260208e90526040812060090180549091906103029084906001600160801b0316612f07565b92506101000a8154816001600160801b0302191690836001600160801b0316021790556001600160801b03169050836001600160a01b03167faef84d3b40895fd58c561f3998000f0583abb992a52fbdc99ace8e8de4d676a58260405161036b91815260200190565b60405180910390a2505b61039d85885f01515f8a60c0015161038d575f610393565b8a606001515b8a93929190611596565b8660c00151156104165761014085015160208801516060890151604051634efecaa560e01b81526001600160a01b0392831660048201526024810191909152911690634efecaa5906044015f604051808303815f87803b1580156103ff575f80fd5b505af1158015610411573d5f803e3d5ffd5b505050505b8660a0015161ffff1687604001516001600160a01b0316885f01516001600160a01b03167fb3d084820fb1a9decffb176436bd02558d15fac9b0ddfed8c465bc7359d7dce08a602001518b6060015160028c60020160109054906101000a90046001600160801b031660405161048f9493929190612f2e565b60405180910390a45050505050505050505050565b80516001600160a01b03165f908152602085905260408120816104c68261092d565b90506104d28282610a50565b61016081015160608501516040516370a0823160e01b81526001600160a01b0391821660048201525f9291909116906370a0823190602401602060405180830381865afa158015610525573d5f803e3d5ffd5b505050506040513d601f19601f820116820180604052508101906105499190612f7f565b90506105648286602001518760400151886060015185611893565b60808501518190801561057b57505f198660200151145b156105f3576101408301516040516370a0823160e01b81523360048201526001600160a01b03909116906370a0823190602401602060405180830381865afa1580156105c9573d5f803e3d5ffd5b505050506040513d601f19601f820116820180604052508101906105ed9190612f7f565b60208701525b8086602001511015610606575060208501515b610160830151606087015160a0850151604051637a94c56560e11b81526001600160a01b03928316600482015260248101859052604481019190915291169063f5298aca906064016020604051808303815f875af115801561066a573d5f803e3d5ffd5b505050506040513d601f19601f8201168201806040525081019061068e9190612f7f565b6020840152855160808701516106b69185916106aa57836106ac565b5f5b879291905f611596565b6106c08183612dd6565b5f036106e25760038401546106e2908890600160a81b900461ffff165f6114ca565b6106ef8989898685611a38565b85608001511561083a576101408301516060840151604051636b81068560e11b81523360048201526001600160a01b03909216602483018190526044830184905260648301919091529063d7020d0a906084015f604051808303815f87803b158015610759575f80fd5b505af115801561076b573d5f803e3d5ffd5b505050610140840151604051630ed1279f60e11b81523360048201526001600160a01b039091169150631da24f3e90602401602060405180830381865afa1580156107b8573d5f803e3d5ffd5b505050506040513d601f19601f820116820180604052508101906107dc9190612f7f565b5f036108355760038401546107fe908890600160a81b900461ffff165f611bbb565b855160405133916001600160a01b0316907f44c58d81365b66dd4b1a7f36c25aa97b8c71c361ee4937adc1a00000227db5dd905f90a35b6108c9565b610140830151865161085a916001600160a01b0390911690339084611c0f565b61014083015160608701516040516337ecbb3b60e11b81523360048201526001600160a01b03918216602482015260448101849052911690636fd97676906064015f604051808303815f87803b1580156108b2575f80fd5b505af11580156108c4573d5f803e3d5ffd5b505050505b60608601518651608088015160408051858152911515602083015233936001600160a01b039081169316917fa534c8dbe71f871f9f3530e97a74601fea17b426cae02e1c5aee42c96c784051910160405180910390a493505050505b949350505050565b610935612aa6565b61093d612aa6565b6040805160208101825284548152610120830181905251901c61ffff1661010082015260018301546001600160801b0380821660608401819052604080850191909152600286015480831660a086018190526080860152600160801b93849004831660c086015283900490911660e08401526004808601546001600160a01b03908116610140860152600687015416610160850181905260038701549390930464ffffffffff16610180850152815163b1bf962d60e01b8152915163b1bf962d9280830192602092918290030181865afa158015610a1d573d5f803e3d5ffd5b505050506040513d601f19601f82011682018060405250810190610a419190612f7f565b60208201819052815292915050565b600382015464ffffffffff428116600160801b9092041603610a70575050565b610a7a8282611ca7565b610a848282611d7e565b50600301805464ffffffffff60801b1916600160801b4264ffffffffff1602179055565b5f805f610ab486611e48565b15610b3c575f610ae4877faaaaaaaaaaaaaaaaaaaaaaaaaaaaaaaaaaaaaaaaaaaaaaaaaaaaaaaaaaaaaaaa611e8e565b5f81815260208781526040808320546001600160a01b03168084528a8352818420825193840190925290549182905292935060d41c64ffffffffff1690508015610b3857600195509093509150610b459050565b5050505b505f9150819050805b93509350939050565b6080810151604080518082019091526002815261191b60f11b602082015290610b935760405162461bcd60e51b8152600401610b8a9190612f96565b60405180910390fd5b50610c236040518061024001604052805f81526020015f81526020015f81526020015f81526020015f81526020015f81526020015f81526020015f81526020015f81526020015f81526020015f81526020015f81526020015f6001600160a01b031681526020015f151581526020015f151581526020015f151581526020015f151581526020015f151581525090565b81516101200151516001603c1b811615156101e083015267040000000000000081161515610200830152670200000000000000811615156101c0830152600160381b1615156101a08201819052604080518082019091526002815261323760f01b602082015290610ca75760405162461bcd60e51b8152600401610b8a9190612f96565b50806101e001511560405180604001604052806002815260200161323960f01b81525090610ce85760405162461bcd60e51b8152600401610b8a9190612f96565b50806101c001511560405180604001604052806002815260200161064760f31b81525090610d295760405162461bcd60e51b8152600401610b8a9190612f96565b5080610200015160405180604001604052806002815260200161033360f41b81525090610d695760405162461bcd60e51b8152600401610b8a9190612f96565b508151610120015151600160fc1b161580610def57508160800151825f015161014001516001600160a01b03166318160ddd6040518163ffffffff1660e01b8152600401602060405180830381865afa158015610dc8573d5f803e3d5ffd5b505050506040513d601f19601f82011682018060405250810190610dec9190612f7f565b10155b60405180604001604052806002815260200161191b60f11b81525090610e285760405162461bcd60e51b8152600401610b8a9190612f96565b506101208201516001600160a01b03161580610ea457508161012001516001600160a01b03166349aa2e816040518163ffffffff1660e01b8152600401602060405180830381865afa158015610e80573d5f803e3d5ffd5b505050506040513d601f19601f82011682018060405250810190610ea49190612fe1565b60405180604001604052806002815260200161353960f01b81525090610edd5760405162461bcd60e51b8152600401610b8a9190612f96565b5060028260a001516002811115610ef657610ef6612d82565b1460405180604001604052806002815260200161333360f01b81525090610f305760405162461bcd60e51b8152600401610b8a9190612f96565b50815161012001515160301c60ff16610100820152815161012001515160501c640fffffffff166101208201819052610100820151600a0a61016083015215610fea57815160a08101519051610f8591611ebd565b60e082018190526080830151610f9a91612ffc565b60c08201819052610160820151610120830151604080518082019091526002815261035360f41b60208201529291021015610fe85760405162461bcd60e51b8152600401610b8a9190612f96565b505b816101400151156110f157815161012001515167200000000000000016151560405180604001604052806002815260200161036360f41b815250906110425760405162461bcd60e51b8152600401610b8a9190612f96565b50816101800151611078600283610100015161105e9190612dd6565b61106990600a612ec9565b84608001516102ca9190612ee8565b6101608401516001600160a01b03165f908152602088905260409020600901546110ab91906001600160801b0316612f07565b6001600160801b0316111560405180604001604052806002815260200161353360f01b815250906110ef5760405162461bcd60e51b8152600401610b8a9190612f96565b505b61010082015160ff161561118e5761010082015160ff165f9081526020848152604080832060020154818601516001600160a01b031684529188905290912060030154611152916001600160801b031690600160a81b900461ffff16611eff565b6040518060400160405280600381526020016203130360ec1b8152509061118c5760405162461bcd60e51b8152600401610b8a9190612f96565b505b6111ea8585856040518060a00160405280876020015181526020018760c00151815260200187606001516001600160a01b031681526020018760e001516001600160a01b0316815260200187610100015160ff16815250611f53565b5060a086015250835260608301526040808301829052805180820190915260028152610ccd60f21b6020820152906112355760405162461bcd60e51b8152600401610b8a9190612f96565b508051604080518082019091526002815261353760f01b60208201529061126f5760405162461bcd60e51b8152600401610b8a9190612f96565b50670de0b6b3a76400008160a001511160405180604001604052806002815260200161333560f01b815250906112b85760405162461bcd60e51b8152600401610b8a9190612f96565b50608082015160e0830151604080850151905163b3596f0760e01b81526001600160a01b03918216600482015291169063b3596f0790602401602060405180830381865afa15801561130c573d5f803e3d5ffd5b505050506040513d601f19601f820116820180604052508101906113309190612f7f565b61133a919061300f565b61014082018181526101608301519182908161135857611358612ed4565b049052508051610140820151606083015161137d929161137791612ffc565b906123fe565b602080830182905260408084015181518083019092526002825261199b60f11b928201929092529111156113c45760405162461bcd60e51b8152600401610b8a9190612f96565b506020820151517f555555555555555555555555555555555555555555555555555555555555555516156114c3576020820151611402908686612427565b6001600160a01b031661018083015215801561022083015261147b5781604001516001600160a01b03168161018001516001600160a01b03161460405180604001604052806002815260200161383960f01b815250906114755760405162461bcd60e51b8152600401610b8a9190612f96565b506114c3565b8151610120015151604080518082019091526002815261383960f01b6020820152906001603e1b16156114c15760405162461bcd60e51b8152600401610b8a9190612f96565b505b5050505050565b6040805180820190915260028152610dcd60f21b6020820152608083106115045760405162461bcd60e51b8152600401610b8a9190612f96565b50600182811b1b811561151c57835481178455611524565b835481191684555b50505050565b5f6001600160801b038211156115925760405162461bcd60e51b815260206004820152602760248201527f53616665436173743a2076616c756520646f65736e27742066697420696e20316044820152663238206269747360c81b6064820152608401610b8a565b5090565b5f6115b28560a001518660200151611ebd90919063ffffffff16565b600787015460408051610100808201835260088b0154600160801b90046001600160801b03168252602080830189905282840188905260608301869052908a015160808301526001600160a01b0389811660a084015283519182019093528a54908190529394505f938493929092169163b90db31b919060c0820190600160fc1b1615151515815260098c0154600160801b90046001600160801b03166020918201526040805160e085811b6001600160e01b031916825284516004830152928401516024820152908301516044820152606083015160648201526080830151608482015260a08301516001600160a01b031660a482015260c0830151151560c482015291015160e4820152610104016040805180830381865afa1580156116dc573d5f803e3d5ffd5b505050506040513d601f19601f820116820180604052508101906117009190613026565b9150915061170d8261152a565b6001890180546001600160801b03928316600160801b0292169190911790556117358161152a565b6002890180546001600160801b03928316600160801b0292169190911790556040805160208101909152885481526117739051600160fc1b16151590565b156118285784156117d0576117878561152a565b6009890180546010906117ab908490600160801b90046001600160801b0316612f07565b92506101000a8154816001600160801b0302191690836001600160801b031602179055505b8315611828576117df8461152a565b600989018054601090611803908490600160801b90046001600160801b0316613048565b92506101000a8154816001600160801b0302191690836001600160801b031602179055505b60608781015160a0808a0151604080518781525f602082015280820187905294850193909352608084015290516001600160a01b038916927f804c9b842b2748a22bb64b345453a3de7ca54a6ca45ce00d415894979e22897a92908290030190a25050505050505050565b604080518082019091526002815261191b60f11b6020820152846118ca5760405162461bcd60e51b8152600401610b8a9190612f96565b5060028360028111156118df576118df612d82565b1460405180604001604052806002815260200161333360f01b815250906119195760405162461bcd60e51b8152600401610b8a9190612f96565b505f19841415806119325750336001600160a01b038316145b60405180604001604052806002815260200161034360f41b8152509061196b5760405162461bcd60e51b8152600401610b8a9190612f96565b5061012085015151604080518082019091526002815261323760f01b6020820152600160381b82161515916001603c1b16151590826119bd5760405162461bcd60e51b8152600401610b8a9190612f96565b50604080518082019091526002815261323960f01b602082015281156119f65760405162461bcd60e51b8152600401610b8a9190612f96565b50604080518082019091526002815261333960f01b602082015283611a2e5760405162461bcd60e51b8152600401610b8a9190612f96565b5050505050505050565b6040805160208101909152835481525f908190611a56908888610aa8565b50915091508115611bb2576001600160a01b0381165f90815260208890526040812060090154610120860151516001600160801b039091169190611abc9060029060301c60ff16611aa79190612dd6565b611ab290600a612ec9565b6102ca9087612ee8565b9050806001600160801b0316826001600160801b031611611b34576001600160a01b0383165f81815260208b8152604080832060090180546001600160801b0319169055519182527faef84d3b40895fd58c561f3998000f0583abb992a52fbdc99ace8e8de4d676a5910160405180910390a2611baf565b5f611b3f8284613048565b6001600160a01b0385165f81815260208d815260409182902060090180546001600160801b0319166001600160801b03959095169485179055905183815292935090917faef84d3b40895fd58c561f3998000f0583abb992a52fbdc99ace8e8de4d676a5910160405180910390a2505b50505b50505050505050565b6040805180820190915260028152610dcd60f21b602082015260808310611bf55760405162461bcd60e51b8152600401610b8a9190612f96565b50600182811b81011b811561151c57835481178455611524565b6040516323b872dd60e01b8082526001600160a01b0385811660048401528416602483015260448201839052905f80606483828a5af1611c51573d5f803e3d5ffd5b50611c5b856124be565b6114c35760405162461bcd60e51b815260206004820152601960248201527f475076323a206661696c6564207472616e7366657246726f6d000000000000006044820152606401610b8a565b60c081015115611d12575f611cc58260c00151836101800151612561565b9050611cde826040015182611ebd90919063ffffffff16565b60608301819052611cee9061152a565b6001840180546001600160801b0319166001600160801b0392909216919091179055505b805115611d7a575f611d2d8260e0015183610180015161259d565b9050611d46826080015182611ebd90919063ffffffff16565b60a08301819052611d569061152a565b6002840180546001600160801b0319166001600160801b0392909216919091179055505b5050565b8061010001515f03611d8e575050565b608081015181515f91611da19190611ebd565b60a083015183519192505f91611db691611ebd565b90505f611dc38383612dd6565b90505f611dde856101000151836125a990919063ffffffff16565b905080156114c157611e006102ca8660600151836125cd90919063ffffffff16565b6008870180545f90611e1c9084906001600160801b0316612f07565b92506101000a8154816001600160801b0302191690836001600160801b03160217905550505050505050565b80515f907faaaaaaaaaaaaaaaaaaaaaaaaaaaaaaaaaaaaaaaaaaaaaaaaaaaaaaaaaaaaaaaa168015801590611e875750611e83600182612dd6565b8116155b9392505050565b81515f9082165f198101198116825b60029190911c908115611eb257600101611e9d565b925050505b92915050565b5f81156b019d971e4fe8401e740000001983900484111517611edd575f80fd5b506b033b2e3c9fd0803ce800000091026b019d971e4fe8401e74000000010490565b6040805180820190915260028152610dcd60f21b60208201525f9060808310611f3b5760405162461bcd60e51b8152600401610b8a9190612f96565b50506001600160801b0391909116901c600116151590565b5f805f805f80611f65875f0151511590565b15611f8157505f94508493508392508291505f199050816123f1565b6120046040518061022001604052805f81526020015f81526020015f81526020015f81526020015f81526020015f81526020015f81526020015f81526020015f81526020015f81526020015f81526020015f81526020015f81526020015f81526020015f6001600160a01b031681526020015f151581526020015f151581525090565b608088015160ff16156120515760808801805160ff9081165f90815260208c815260408083205461ffff908116610180880152945190931682528c90522054620100009004166101a08201525b87602001518160c0015110156123165760c081015188516120719161260a565b6120855760c0810180516001019052612051565b60c08101515f90815260208b905260409020546001600160a01b03166101c082018190526120bd5760c0810180516001019052612051565b6101c0810180516001600160a01b039081165f90815260208e81526040918290208251808301845281549081905260ff603082901c16606080890182905261ffff601084901c811660a08b01529092166080890152600a0a838801528d01519451835163b3596f0760e01b81529085166004820152925190949093169263b3596f079260248082019392918290030181865afa15801561215f573d5f803e3d5ffd5b505050506040513d601f19601f820116820180604052508101906121839190612f7f565b825260a0820151158015906121a3575060c082015189516121a391612659565b156122c3576121bf896040015182845f015185602001516126a7565b60408301819052610100830180516121d8908390612ffc565b905250608089015160ff16158015906122245750608089015160ff165f90815260208b9052604090205460c083015161222491660100000000000090046001600160801b031690611eff565b151561020083015260808201511561227a5781610200015161224a578160800151612251565b8161018001515b8260400151612260919061300f565b82610140018181516122729190612ffc565b905250612283565b60016101e08301525b816102000151612297578160a0015161229e565b816101a001515b82604001516122ad919061300f565b82610160018181516122bf9190612ffc565b9052505b60c082015189516122d39161275c565b15612305576122ef896040015182845f015185602001516127a8565b82610120018181516123019190612ffc565b9052505b5060c0810180516001019052612051565b8061010001515f03612328575f612343565b8061010001518161014001518161234157612341612ed4565b045b6101408201526101008101515f0361235b575f612376565b8061010001518161016001518161237457612374612ed4565b045b610160820152610120810151156123b8576123b38161012001516123ad8361016001518461010001516125a990919063ffffffff16565b90612865565b6123bb565b5f195b60e082018190526101008201516101208301516101408401516101608501516101e090950151929a509098509650919450925090505b9499939850945094509450565b5f811561271060028404190484111715612416575f80fd5b506127109190910260028204010490565b5f806124328561289a565b156124b0575f612462867f5555555555555555555555555555555555555555555555555555555555555555611e8e565b5f81815260208681526040808320546001600160a01b03168084528983529281902081519283019091525490819052919250906001603e1b16156124ad576001935091506124b69050565b50505b505f9050805b935093915050565b5f6124e0565b62461bcd60e51b5f52602060045280602452508060445260645ffd5b3d801561251f57602081146125505761251a7f475076323a206d616c666f726d6564207472616e7366657220726573756c7400601f6124c4565b61255b565b823b612547576125477311d41d8c8e881b9bdd08184818dbdb9d1c9858dd60621b60146124c4565b6001915061255b565b3d5f803e5f51151591505b50919050565b5f8061257464ffffffffff841642612dd6565b61257e908561300f565b6301e1338090049050610925816b033b2e3c9fd0803ce8000000612ffc565b5f611e878383426128d5565b5f811561138819839004841115176125bf575f80fd5b506127109102611388010490565b5f81156b033b2e3c9fd0803ce8000000600284041904841117156125ef575f80fd5b506b033b2e3c9fd0803ce80000009190910260028204010490565b6040805180820190915260028152610dcd60f21b60208201525f90608083106126465760405162461bcd60e51b8152600401610b8a9190612f96565b5050905160019190911b1c600316151590565b6040805180820190915260028152610dcd60f21b60208201525f90608083106126955760405162461bcd60e51b8152600401610b8a9190612f96565b50509051600191821b82011c16151590565b5f806126b2856129fa565b600486810154604051630ed1279f60e11b81526001600160a01b038a8116938201939093529293505f928792612735928692911690631da24f3e90602401602060405180830381865afa15801561270b573d5f803e3d5ffd5b505050506040513d601f19601f8201168201806040525081019061272f9190612f7f565b90611ebd565b61273f919061300f565b905083818161275057612750612ed4565b04979650505050505050565b6040805180820190915260028152610dcd60f21b60208201525f90608083106127985760405162461bcd60e51b8152600401610b8a9190612f96565b50509051600191821b1c16151590565b6006830154604051630ed1279f60e11b81526001600160a01b0386811660048301525f928392911690631da24f3e90602401602060405180830381865afa1580156127f5573d5f803e3d5ffd5b505050506040513d601f19601f820116820180604052508101906128199190612f7f565b9050805f0361282b575f915050610925565b8361283f61283887612a50565b8390611ebd565b612849919061300f565b905082818161285a5761285a612ed4565b049695505050505050565b5f8115670de0b6b3a764000060028404190484111715612883575f80fd5b50670de0b6b3a76400009190910260028204010490565b80515f907f5555555555555555555555555555555555555555555555555555555555555555168015801590611e875750611e83600182612dd6565b5f806128e864ffffffffff851684612dd6565b9050805f03612906576b033b2e3c9fd0803ce8000000915050611e87565b5f1981015f80806002851161291b575f612920565b600285035b925066038882915c40006129348a80611ebd565b8161294157612941612ed4565b0491506301e13380612953838b611ebd565b8161296057612960612ed4565b0490505f8261296f868861300f565b612979919061300f565b6002900490505f828561298c888a61300f565b612996919061300f565b6129a0919061300f565b60069004905080826301e133806129b78a8f61300f565b6129c19190612ee8565b6129d7906b033b2e3c9fd0803ce8000000612ffc565b6129e19190612ffc565b6129eb9190612ffc565b9b9a5050505050505050505050565b60038101545f90600160801b900464ffffffffff16428103612a28575050600101546001600160801b031690565b6001830154611e87906001600160801b038082169161272f91600160801b9091041684612561565b60038101545f90600160801b900464ffffffffff16428103612a7e575050600201546001600160801b031690565b6002830154611e87906001600160801b038082169161272f91600160801b909104168461259d565b604051806101a001604052805f81526020015f81526020015f81526020015f81526020015f81526020015f81526020015f81526020015f81526020015f8152602001612afd60405180602001604052805f81525090565b81525f602082018190526040820181905260609091015290565b604051610160810167ffffffffffffffff81118282101715612b4757634e487b7160e01b5f52604160045260245ffd5b60405290565b80356001600160a01b0381168114612b63575f80fd5b919050565b803560038110612b63575f80fd5b803561ffff81168114612b63575f80fd5b8015158114612b94575f80fd5b50565b8035612b6381612b87565b803560ff81168114612b63575f80fd5b5f805f805f8587036101e0811215612bc8575f80fd5b8635955060208701359450604087013593506060870135925061016080607f1983011215612bf4575f80fd5b612bfc612b17565b9150612c0a60808901612b4d565b8252612c1860a08901612b4d565b6020830152612c2960c08901612b4d565b604083015260e08801356060830152610100612c46818a01612b68565b6080840152610120612c59818b01612b76565b60a0850152610140612c6c818c01612b97565b60c0860152838b013560e0860152612c876101808c01612b4d565b83860152612c986101a08c01612ba2565b82860152612ca96101c08c01612b4d565b8186015250505050809150509295509295909350565b5f805f80848603610100811215612cd4575f80fd5b85359450602086013593506040860135925060a0605f1982011215612cf7575f80fd5b5060405160a0810181811067ffffffffffffffff82111715612d2757634e487b7160e01b5f52604160045260245ffd5b604052612d3660608701612b4d565b815260808601356020820152612d4e60a08701612b68565b6040820152612d5f60c08701612b4d565b606082015260e0860135612d7281612b87565b6080820152939692955090935050565b634e487b7160e01b5f52602160045260245ffd5b5f8060408385031215612da7575f80fd5b8251612db281612b87565b6020939093015192949293505050565b634e487b7160e01b5f52601160045260245ffd5b81810381811115611eb757611eb7612dc2565b600181815b80851115612e2357815f1904821115612e0957612e09612dc2565b80851615612e1657918102915b93841c9390800290612dee565b509250929050565b5f82612e3957506001611eb7565b81612e4557505f611eb7565b8160018114612e5b5760028114612e6557612e81565b6001915050611eb7565b60ff841115612e7657612e76612dc2565b50506001821b611eb7565b5060208310610133831016604e8410600b8410161715612ea4575081810a611eb7565b612eae8383612de9565b805f1904821115612ec157612ec1612dc2565b029392505050565b5f611e878383612e2b565b634e487b7160e01b5f52601260045260245ffd5b5f82612f0257634e487b7160e01b5f52601260045260245ffd5b500490565b6001600160801b03818116838216019080821115612f2757612f27612dc2565b5092915050565b6001600160a01b0385168152602081018490526080810160038410612f6157634e487b7160e01b5f52602160045260245ffd5b8360408301526001600160801b038316606083015295945050505050565b5f60208284031215612f8f575f80fd5b5051919050565b5f6020808352835180828501525f5b81811015612fc157858101830151858201604001528201612fa5565b505f604082860101526040601f19601f8301168501019250505092915050565b5f60208284031215612ff1575f80fd5b8151611e8781612b87565b80820180821115611eb757611eb7612dc2565b8082028115828204841417611eb757611eb7612dc2565b5f8060408385031215613037575f80fd5b505080516020909101519092909150565b6001600160801b03828116828216039080821115612f2757612f27612dc256fea164736f6c6343000814000a611a37610035600b8282823980515f1a60731461002957634e487b7160e01b5f525f60045260245ffd5b305f52607381538281f3fe730000000000000000000000000000000000000000301460806040526004361061003f575f3560e01c80630413c86f146100435780638e74324814610064575b5f80fd5b81801561004e575f80fd5b5061006261005d3660046116ff565b610095565b005b81801561006f575f80fd5b5061008361007e366004611772565b61031a565b60405190815260200160405180910390f35b6001600160a01b0384165f908152602088905260408120906100b682610567565b90506100c2828261068a565b6100ce818387876106e2565b6101208101515160b081901c640fffffffff169060301c60ff165f6100f288610995565b600886018054601090610116908490600160801b90046001600160801b03166117ca565b92506101000a8154816001600160801b0302191690836001600160801b0316021790556001600160801b0316905081600a61015191906118d1565b61015b90846118dc565b811115604051806040016040528060028152602001611a9960f11b815250906101a05760405162461bcd60e51b815260040161019791906118f3565b60405180910390fd5b506101ae85858b5f80610a01565b610140840151606085015160405163b3f1c93d60e01b81523360048201526001600160a01b038a81166024830152604482018c905260648201929092525f92919091169063b3f1c93d906084016020604051808303815f875af1158015610217573d5f803e3d5ffd5b505050506040513d601f19601f8201168201806040525081019061023b919061193e565b905080156102bc5761025a8d8d8d886101200151896101400151610cfe565b156102bc57600386015461027c908c90600160a81b900461ffff166001610ee6565b876001600160a01b03168a6001600160a01b03167e058a56ea94653cdf4f152d227ace22d4c00ad99e2a43f58cb7d9e3feb295f260405160405180910390a35b60408051338152602081018b905261ffff8916916001600160a01b03808c1692908e16917ff25af37b3d3ec226063dc9bdc103ece7eb110a50f340fe854bb7bc1b0676d7d0910160405180910390a450505050505050505050505050565b5f8061032587610567565b9050610331878261068a565b60088701545f90600160801b90046001600160801b03168610610368576008880154600160801b90046001600160801b031661036a565b855b90505f6103778686610f48565b90505f610384828861195d565b90505f6103918885611970565b606086015160088d015491925061042e916103b7916001600160801b0390911690610f6c565b8661014001516001600160a01b03166318160ddd6040518163ffffffff1660e01b8152600401602060405180830381865afa1580156103f8573d5f803e3d5ffd5b505050506040513d601f19601f8201168201806040525081019061041c9190611983565b6104269190611970565b8c9084610fad565b6060860181905261044990610444908590611021565b610995565b60088c0180545f906104659084906001600160801b03166117ca565b92506101000a8154816001600160801b0302191690836001600160801b0316021790555061049284610995565b60088c0180546010906104b6908490600160801b90046001600160801b031661199a565b92506101000a8154816001600160801b0302191690836001600160801b031602179055506104f3858b835f8f610a0190949392919063ffffffff16565b610140850151610510906001600160a01b038c169033908461105c565b60408051858152602081018a905233916001600160a01b038d16917f281596e92b2d974beb7d4f124df30a0b39067b096893e95011ce4bdad798b759910160405180910390a3509193505050505b95945050505050565b61056f611677565b610577611677565b6040805160208101825284548152610120830181905251901c61ffff1661010082015260018301546001600160801b0380821660608401819052604080850191909152600286015480831660a086018190526080860152600160801b93849004831660c086015283900490911660e08401526004808601546001600160a01b03908116610140860152600687015416610160850181905260038701549390930464ffffffffff16610180850152815163b1bf962d60e01b8152915163b1bf962d9280830192602092918290030181865afa158015610657573d5f803e3d5ffd5b505050506040513d601f19601f8201168201806040525081019061067b9190611983565b60208201819052815292915050565b600382015464ffffffffff428116600160801b90920416036106aa575050565b6106b482826110fb565b6106be82826111d2565b50600301805464ffffffffff60801b1916600160801b4264ffffffffff1602179055565b604080518082019091526002815261191b60f11b6020820152826107195760405162461bcd60e51b815260040161019791906118f3565b505f805f61076287610120015151670100000000000000811615159167020000000000000082161515916704000000000000008116151591671000000000000000909116151590565b935050925092508260405180604001604052806002815260200161323760f01b815250906107a35760405162461bcd60e51b815260040161019791906118f3565b50604080518082019091526002815261323960f01b602082015281156107dc5760405162461bcd60e51b815260040161019791906118f3565b50604080518082019091526002815261064760f31b602082015282156108155760405162461bcd60e51b815260040161019791906118f3565b508661014001516001600160a01b0316846001600160a01b03161415604051806040016040528060028152602001610e4d60f21b8152509061086a5760405162461bcd60e51b815260040161019791906118f3565b506101208701515160741c640fffffffff1680158061095157506101208801515160301c60ff1661089c90600a6118d1565b6108a690826118dc565b866109448a606001518a6008015f9054906101000a90046001600160801b03166001600160801b03168c61014001516001600160a01b031663b1bf962d6040518163ffffffff1660e01b8152600401602060405180830381865afa158015610910573d5f803e3d5ffd5b505050506040513d601f19601f820116820180604052508101906109349190611983565b61093e9190611970565b90610f6c565b61094e9190611970565b11155b60405180604001604052806002815260200161353160f01b8152509061098a5760405162461bcd60e51b815260040161019791906118f3565b505050505050505050565b5f6001600160801b038211156109fd5760405162461bcd60e51b815260206004820152602760248201527f53616665436173743a2076616c756520646f65736e27742066697420696e20316044820152663238206269747360c81b6064820152608401610197565b5090565b5f610a1d8560a001518660200151610f6c90919063ffffffff16565b600787015460408051610100808201835260088b0154600160801b90046001600160801b03168252602080830189905282840188905260608301869052908a015160808301526001600160a01b0389811660a084015283519182019093528a54908190529394505f938493929092169163b90db31b919060c0820190600160fc1b1615151515815260098c0154600160801b90046001600160801b03166020918201526040805160e085811b6001600160e01b031916825284516004830152928401516024820152908301516044820152606083015160648201526080830151608482015260a08301516001600160a01b031660a482015260c0830151151560c482015291015160e4820152610104016040805180830381865afa158015610b47573d5f803e3d5ffd5b505050506040513d601f19601f82011682018060405250810190610b6b91906119ba565b91509150610b7882610995565b6001890180546001600160801b03928316600160801b029216919091179055610ba081610995565b6002890180546001600160801b03928316600160801b029216919091179055604080516020810190915288548152610bde9051600160fc1b16151590565b15610c93578415610c3b57610bf285610995565b600989018054601090610c16908490600160801b90046001600160801b03166117ca565b92506101000a8154816001600160801b0302191690836001600160801b031602179055505b8315610c9357610c4a84610995565b600989018054601090610c6e908490600160801b90046001600160801b031661199a565b92506101000a8154816001600160801b0302191690836001600160801b031602179055505b60608781015160a0808a0151604080518781525f602082015280820187905294850193909352608084015290516001600160a01b038916927f804c9b842b2748a22bb64b345453a3de7ca54a6ca45ce00d415894979e22897a92908290030190a25050505050505050565b81515f9060d41c64ffffffffff1615610ed0575f826001600160a01b0316637535d2466040518163ffffffff1660e01b8152600401602060405180830381865afa158015610d4e573d5f803e3d5ffd5b505050506040513d601f19601f82011682018060405250810190610d7291906119dc565b6001600160a01b0316630542975c6040518163ffffffff1660e01b8152600401602060405180830381865afa158015610dad573d5f803e3d5ffd5b505050506040513d601f19601f82011682018060405250810190610dd191906119dc565b9050806001600160a01b031663707cd7166040518163ffffffff1660e01b8152600401602060405180830381865afa158015610e0f573d5f803e3d5ffd5b505050506040513d601f19601f82011682018060405250810190610e3391906119dc565b604051632474521560e21b81527fd1d2cf869016112a9af1107bcf43c3759daf22cf734aad47d0c9c726e33bc78260048201523360248201526001600160a01b0391909116906391d1485490604401602060405180830381865afa158015610e9d573d5f803e3d5ffd5b505050506040513d601f19601f82011682018060405250810190610ec1919061193e565b610ece575f91505061055e565b505b610edc8686868661129d565b9695505050505050565b6040805180820190915260028152610dcd60f21b602082015260808310610f205760405162461bcd60e51b815260040161019791906118f3565b50600182811b81011b8115610f3a57835481178455610f42565b835481191684555b50505050565b5f81156113881983900484111517610f5e575f80fd5b506127109102611388010490565b5f81156b019d971e4fe8401e740000001983900484111517610f8c575f80fd5b50676765c793fa10079d601b1b91026b019d971e4fe8401e74000000010490565b60018301545f908190610fea906001600160801b0316676765c793fa10079d601b1b610934610fdb88611339565b610fe488611339565b90611021565b9050610ff581610995565b6001860180546001600160801b0319166001600160801b039290921691909117905590505b9392505050565b5f8115676765c793fa10079d601b1b60028404190484111715611042575f80fd5b50676765c793fa10079d601b1b9190910260028204010490565b6040516323b872dd60e01b8082526001600160a01b0385811660048401528416602483015260448201839052905f80606483828a5af161109e573d5f803e3d5ffd5b506110a885611353565b6110f45760405162461bcd60e51b815260206004820152601960248201527f475076323a206661696c6564207472616e7366657246726f6d000000000000006044820152606401610197565b5050505050565b60c081015115611166575f6111198260c001518361018001516113f6565b9050611132826040015182610f6c90919063ffffffff16565b6060830181905261114290610995565b6001840180546001600160801b0319166001600160801b0392909216919091179055505b8051156111ce575f6111818260e0015183610180015161143b565b905061119a826080015182610f6c90919063ffffffff16565b60a083018190526111aa90610995565b6002840180546001600160801b0319166001600160801b0392909216919091179055505b5050565b8061010001515f036111e2575050565b608081015181515f916111f59190610f6c565b60a083015183519192505f9161120a91610f6c565b90505f611217838361195d565b90505f61123285610100015183610f4890919063ffffffff16565b905080156112955761125461044486606001518361102190919063ffffffff16565b6008870180545f906112709084906001600160801b03166117ca565b92506101000a8154816001600160801b0302191690836001600160801b031602179055505b505050505050565b5f6112aa825161ffff1690565b5f036112b757505f611331565b60408051602081019091528354908190527faaaaaaaaaaaaaaaaaaaaaaaaaaaaaaaaaaaaaaaaaaaaaaaaaaaaaaaaaaaaaaaa166112f657506001611331565b6040805160208101909152835481525f90611312908787611447565b505090508015801561132d5750825160d41c64ffffffffff16155b9150505b949350505050565b633b9aca00818102908104821461134e575f80fd5b919050565b5f611375565b62461bcd60e51b5f52602060045280602452508060445260645ffd5b3d80156113b457602081146113e5576113af7f475076323a206d616c666f726d6564207472616e7366657220726573756c7400601f611359565b6113f0565b823b6113dc576113dc7311d41d8c8e881b9bdd08184818dbdb9d1c9858dd60621b6014611359565b600191506113f0565b3d5f803e5f51151591505b50919050565b5f8061140964ffffffffff84164261195d565b61141390856118dc565b6301e133809004905061143181676765c793fa10079d601b1b611970565b9150505b92915050565b5f61101a8383426114ed565b5f805f61145386611610565b156114db575f611483877faaaaaaaaaaaaaaaaaaaaaaaaaaaaaaaaaaaaaaaaaaaaaaaaaaaaaaaaaaaaaaaa611653565b5f81815260208781526040808320546001600160a01b03168084528a8352818420825193840190925290549182905292935060d41c64ffffffffff16905080156114d7576001955090935091506114e49050565b5050505b505f9150819050805b93509350939050565b5f8061150064ffffffffff85168461195d565b9050805f0361151d57676765c793fa10079d601b1b91505061101a565b5f1981015f808060028511611532575f611537565b600285035b925066038882915c400061154b8a80610f6c565b81611558576115586119f7565b0491506301e1338061156a838b610f6c565b81611577576115776119f7565b0490505f8261158686886118dc565b61159091906118dc565b6002900490505f82856115a3888a6118dc565b6115ad91906118dc565b6115b791906118dc565b60069004905080826301e133806115ce8a8f6118dc565b6115d89190611a0b565b6115ed90676765c793fa10079d601b1b611970565b6115f79190611970565b6116019190611970565b9b9a5050505050505050505050565b80515f907faaaaaaaaaaaaaaaaaaaaaaaaaaaaaaaaaaaaaaaaaaaaaaaaaaaaaaaaaaaaaaaa16801580159061101a575061164b60018261195d565b161592915050565b81515f9082165f198101198116825b60029190911c90811561055e57600101611662565b604051806101a001604052805f81526020015f81526020015f81526020015f81526020015f81526020015f81526020015f81526020015f81526020015f81526020016116ce60405180602001604052805f81525090565b81525f602082018190526040820181905260609091015290565b6001600160a01b03811681146116fc575f80fd5b50565b5f805f805f805f60e0888a031215611715575f80fd5b8735965060208801359550604088013594506060880135611735816116e8565b93506080880135925060a088013561174c816116e8565b915060c088013561ffff81168114611762575f80fd5b8091505092959891949750929550565b5f805f805f60a08688031215611786575f80fd5b853594506020860135611798816116e8565b94979496505050506040830135926060810135926080909101359150565b634e487b7160e01b5f52601160045260245ffd5b6001600160801b038181168382160190808211156117ea576117ea6117b6565b5092915050565b600181815b8085111561182b57815f1904821115611811576118116117b6565b8085161561181e57918102915b93841c93908002906117f6565b509250929050565b5f8261184157506001611435565b8161184d57505f611435565b8160018114611863576002811461186d57611889565b6001915050611435565b60ff84111561187e5761187e6117b6565b50506001821b611435565b5060208310610133831016604e8410600b84101617156118ac575081810a611435565b6118b683836117f1565b805f19048211156118c9576118c96117b6565b029392505050565b5f61101a8383611833565b8082028115828204841417611435576114356117b6565b5f6020808352835180828501525f5b8181101561191e57858101830151858201604001528201611902565b505f604082860101526040601f19601f8301168501019250505092915050565b5f6020828403121561194e575f80fd5b8151801515811461101a575f80fd5b81810381811115611435576114356117b6565b80820180821115611435576114356117b6565b5f60208284031215611993575f80fd5b5051919050565b6001600160801b038281168282160390808211156117ea576117ea6117b6565b5f80604083850312156119cb575f80fd5b505080516020909101519092909150565b5f602082840312156119ec575f80fd5b815161101a816116e8565b634e487b7160e01b5f52601260045260245ffd5b5f82611a2557634e487b7160e01b5f52601260045260245ffd5b50049056fea164736f6c6343000814000a61198b610035600b8282823980515f1a60731461002957634e487b7160e01b5f525f60045260245ffd5b305f52607381538281f3fe730000000000000000000000000000000000000000301460806040526004361061004a575f3560e01c8063b0f093551461004e578063b13c96a81461006f578063df59b8b21461008e575b5f80fd5b818015610059575f80fd5b5061006d610068366004610bae565b6100ad565b005b81801561007a575f80fd5b5061006d610089366004610c01565b610316565b818015610099575f80fd5b5061006d6100a8366004610c49565b6104f9565b5f6001600160a01b0383166335ea6a756100ca6020850185610c92565b6040516001600160e01b031960e084901b1681526001600160a01b0390911660048201526024016101e060405180830381865afa15801561010d573d5f803e3d5ffd5b505050506040513d601f19601f820116820180604052508101906101319190610d8a565b90505f6101e46001600160a01b03851663c44b11f76101536020870187610c92565b6040516001600160e01b031960e084901b1681526001600160a01b039091166004820152602401602060405180830381865afa158015610195573d5f803e3d5ffd5b505050506040513d601f19601f820116820180604052508101906101b99190610eab565b5161ffff80821692601083901c821692602081901c831692603082901c60ff169260409290921c1690565b5093505f9250636111764560e11b91508690506102046020870187610c92565b6102146040880160208901610c92565b8561022260408a018a610ec5565b61022f60608c018c610ec5565b61023c60a08e018e610ec5565b6040516024016102559a99989796959493929190610f37565b60408051601f198184030181529190526020810180516001600160e01b03166001600160e01b0319909316929092179091526101408401519091506102aa906102a460a0870160808801610c92565b83610983565b6102ba60a0850160808601610c92565b6101408401516001600160a01b0391821691166102da6020870187610c92565b6001600160a01b03167f9439658a562a5c46b1173589df89cf001483d685bad28aedaff4a88656292d8160405160405180910390a45050505050565b5f6001600160a01b0383166335ea6a756103336020850185610c92565b6040516001600160e01b031960e084901b1681526001600160a01b0390911660048201526024016101e060405180830381865afa158015610376573d5f803e3d5ffd5b505050506040513d601f19601f8201168201806040525081019061039a9190610d8a565b90505f6103bc6001600160a01b03851663c44b11f76101536020870187610c92565b5093505f925063183fb41360e01b91508690506103df6040870160208801610c92565b6103ec6020880188610c92565b6103fc6060890160408a01610c92565b8661040a60608b018b610ec5565b61041760808d018d610ec5565b61042460c08f018f610ec5565b60405160240161043e9b9a99989796959493929190610fab565b60408051601f198184030181529190526020810180516001600160e01b03166001600160e01b03199093169290921790915261010084015190915061048d906102a460c0870160a08801610c92565b61049d60c0850160a08601610c92565b6101008401516001600160a01b0391821691166104bd6020870187610c92565b6001600160a01b03167fa76f65411ec66a7fb6bc467432eb14767900449ae4469fa295e4441fe5e1cb7360405160405180910390a45050505050565b5f61050a60a0830160808401610c92565b6001600160a01b031663313ce5676040518163ffffffff1660e01b8152600401602060405180830381865afa158015610545573d5f803e3d5ffd5b505050506040513d601f19601f82011682018060405250810190610569919061102b565b905060058160ff1611604051806040016040528060028152602001611b1b60f11b815250906105b45760405162461bcd60e51b81526004016105ab919061108e565b60405180910390fd5b505f61067d6105c66020850185610c92565b63183fb41360e01b866105df60c0880160a08901610c92565b6105ef60a0890160808a01610c92565b6105ff60e08a0160c08b01610c92565b8861060d60e08c018c610ec5565b61061b6101008e018e610ec5565b8e80610160019061062c9190610ec5565b6040516024016106469b9a999897969594939291906110a0565b60408051601f198184030181529190526020810180516001600160e01b03166001600160e01b0319909316929092179091526109e6565b90505f6107036106936040860160208701610c92565b636111764560e11b876106ac60a0890160808a01610c92565b6106bc60e08a0160c08b01610c92565b886106cb6101208c018c610ec5565b6106d96101408e018e610ec5565b8e8061016001906106ea9190610ec5565b6040516024016106469a999897969594939291906110e6565b90506001600160a01b038516638bd2567761072460a0870160808801610c92565b848461073660808a0160608b01610c92565b60405160e086901b6001600160e01b03191681526001600160a01b0394851660048201529284166024840152908316604483015290911660648201526084015f604051808303815f87803b15801561078c575f80fd5b505af115801561079e573d5f803e3d5ffd5b505060408051602081019091525f815291506107bf90508160ff8616610a85565b6107ca816001610ad8565b6107d4815f610b05565b6107de815f610b32565b6107f86107f16060870160408801611123565b8290610b5f565b6001600160a01b03861663f51e435b61081760a0880160808901610c92565b6040516001600160e01b031960e084901b1681526001600160a01b039091166004820152835160248201526044015f604051808303815f87803b15801561085c575f80fd5b505af115801561086e573d5f803e3d5ffd5b50610883925050506080860160608701610c92565b6001600160a01b031663a8d9e56f6108a160a0880160808901610c92565b6108af610180890189610ec5565b6040518463ffffffff1660e01b81526004016108cd93929190611142565b5f604051808303815f87803b1580156108e4575f80fd5b505af11580156108f6573d5f803e3d5ffd5b5050506001600160a01b038416905061091560a0870160808801610c92565b6001600160a01b03167f3a0ca721fc364424566385a1aa271ed508cc2c0949c2272575fb3013a163a45f5f8561095160808b0160608c01610c92565b604080516001600160a01b039485168152928416602084015292168183015290519081900360600190a3505050505050565b60405163278f794360e11b815283906001600160a01b03821690634f1ef286906109b3908690869060040161116f565b5f604051808303815f87803b1580156109ca575f80fd5b505af11580156109dc573d5f803e3d5ffd5b5050505050505050565b5f80306040516109f590610b8a565b6001600160a01b039091168152602001604051809103905ff080158015610a1e573d5f803e3d5ffd5b5060405163347d5e2560e21b81529091506001600160a01b0382169063d1f5789490610a50908790879060040161116f565b5f604051808303815f87803b158015610a67575f80fd5b505af1158015610a79573d5f803e3d5ffd5b50929695505050505050565b6040805180820190915260028152611b1b60f11b602082015260ff821115610ac05760405162461bcd60e51b81526004016105ab919061108e565b50815166ff000000000000191660309190911b179052565b603881610ae5575f610ae8565b60015b8351670100000000000000191660ff9190911690911b1790915250565b603c81610b12575f610b15565b60015b8351671000000000000000191660ff9190911690911b1790915250565b603981610b3f575f610b42565b60015b8351670200000000000000191660ff9190911690911b1790915250565b60fc81610b6c575f610b6f565b60015b83516001600f60fc1b031660ff9190911690911b1790915250565b6107e48061119b83390190565b6001600160a01b0381168114610bab575f80fd5b50565b5f8060408385031215610bbf575f80fd5b8235610bca81610b97565b9150602083013567ffffffffffffffff811115610be5575f80fd5b830160c08186031215610bf6575f80fd5b809150509250929050565b5f8060408385031215610c12575f80fd5b8235610c1d81610b97565b9150602083013567ffffffffffffffff811115610c38575f80fd5b830160e08186031215610bf6575f80fd5b5f8060408385031215610c5a575f80fd5b8235610c6581610b97565b9150602083013567ffffffffffffffff811115610c80575f80fd5b83016101a08186031215610bf6575f80fd5b5f60208284031215610ca2575f80fd5b8135610cad81610b97565b9392505050565b6040516101e0810167ffffffffffffffff81118282101715610ce457634e487b7160e01b5f52604160045260245ffd5b60405290565b5f60208284031215610cfa575f80fd5b6040516020810181811067ffffffffffffffff82111715610d2957634e487b7160e01b5f52604160045260245ffd5b6040529151825250919050565b80516fffffffffffffffffffffffffffffffff81168114610d55575f80fd5b919050565b805164ffffffffff81168114610d55575f80fd5b805161ffff81168114610d55575f80fd5b8051610d5581610b97565b5f6101e08284031215610d9b575f80fd5b610da3610cb4565b610dad8484610cea565b8152610dbb60208401610d36565b6020820152610dcc60408401610d36565b6040820152610ddd60608401610d36565b6060820152610dee60808401610d36565b6080820152610dff60a08401610d36565b60a0820152610e1060c08401610d5a565b60c0820152610e2160e08401610d6e565b60e0820152610100610e34818501610d7f565b90820152610120610e46848201610d7f565b90820152610140610e58848201610d7f565b90820152610160610e6a848201610d7f565b90820152610180610e7c848201610d36565b908201526101a0610e8e848201610d36565b908201526101c0610ea0848201610d36565b908201529392505050565b5f60208284031215610ebb575f80fd5b610cad8383610cea565b5f808335601e19843603018112610eda575f80fd5b83018035915067ffffffffffffffff821115610ef4575f80fd5b602001915036819003821315610f08575f80fd5b9250929050565b81835281816020850137505f828201602090810191909152601f909101601f19169091010190565b6001600160a01b038b811682528a81166020830152891660408201526060810188905260e0608082018190525f90610f72908301888a610f0f565b82810360a0840152610f85818789610f0f565b905082810360c0840152610f9a818587610f0f565b9d9c50505050505050505050505050565b6001600160a01b038c811682528b811660208301528a81166040830152891660608201526080810188905261010060a082018190525f90610fef838201898b610f0f565b905082810360c0840152611004818789610f0f565b905082810360e0840152611019818587610f0f565b9e9d5050505050505050505050505050565b5f6020828403121561103b575f80fd5b815160ff81168114610cad575f80fd5b5f81518084525f5b8181101561106f57602081850181015186830182015201611053565b505f602082860101526020601f19601f83011685010191505092915050565b602081525f610cad602083018461104b565b6001600160a01b038c811682528b811660208301528a811660408301528916606082015260ff8816608082015261010060a082018190525f90610fef838201898b610f0f565b6001600160a01b038b811682528a811660208301528916604082015260ff8816606082015260e0608082018190525f90610f72908301888a610f0f565b5f60208284031215611133575f80fd5b81358015158114610cad575f80fd5b6001600160a01b03841681526040602082018190525f906111669083018486610f0f565b95945050505050565b6001600160a01b03831681526040602082018190525f906111929083018461104b565b94935050505056fe60a060405234801561000f575f80fd5b506040516107e43803806107e483398101604081905261002e9161003f565b6001600160a01b031660805261006c565b5f6020828403121561004f575f80fd5b81516001600160a01b0381168114610065575f80fd5b9392505050565b60805161073d6100a75f395f818161011e01528181610162015281816102140152818161034801528181610371015261048c015261073d5ff3fe60806040526004361061004d575f3560e01c80633659cfe6146100645780634f1ef286146100835780635c60da1b14610096578063d1f57894146100c6578063f851a440146100d95761005c565b3661005c5761005a6100ed565b005b61005a6100ed565b34801561006f575f80fd5b5061005a61007e366004610530565b610114565b61005a610091366004610550565b610158565b3480156100a1575f80fd5b506100aa610209565b6040516001600160a01b03909116815260200160405180910390f35b61005a6100d43660046105e0565b610258565b3480156100e4575f80fd5b506100aa61033d565b6100f5610393565b61011261010d5f805160206107118339815191525490565b61039b565b565b6001600160a01b037f00000000000000000000000000000000000000000000000000000000000000001633036101505761014d816103b9565b50565b61014d6100ed565b6001600160a01b037f00000000000000000000000000000000000000000000000000000000000000001633036101fc57610191836103b9565b5f836001600160a01b031683836040516101ac92919061069c565b5f60405180830381855af49150503d805f81146101e4576040519150601f19603f3d011682016040523d82523d5f602084013e6101e9565b606091505b50509050806101f6575f80fd5b50505050565b6102046100ed565b505050565b5f6001600160a01b037f000000000000000000000000000000000000000000000000000000000000000016330361024d57505f805160206107118339815191525490565b6102556100ed565b90565b5f61026e5f805160206107118339815191525490565b6001600160a01b031614610280575f80fd5b6102ab60017f360894a13ba1a3210667c828492db98dca3e2076cc3735a920a3ca505d382bbd6106ab565b5f80516020610711833981519152146102c6576102c66106d0565b6102cf826103f8565b805115610339575f826001600160a01b0316826040516102ef91906106e4565b5f60405180830381855af49150503d805f8114610327576040519150601f19603f3d011682016040523d82523d5f602084013e61032c565b606091505b5050905080610204575f80fd5b5050565b5f6001600160a01b037f000000000000000000000000000000000000000000000000000000000000000016330361024d57507f000000000000000000000000000000000000000000000000000000000000000090565b610112610482565b365f80375f80365f845af43d5f803e8080156103b5573d5ff35b3d5ffd5b6103c2816103f8565b6040516001600160a01b038216907fbc7cd75a20ee27fd9adebab32041f755214dbc6bffa90cc0225b39da2e5c2d3b905f90a250565b803b6104715760405162461bcd60e51b815260206004820152603b60248201527f43616e6e6f742073657420612070726f787920696d706c656d656e746174696f60448201527f6e20746f2061206e6f6e2d636f6e74726163742061646472657373000000000060648201526084015b60405180910390fd5b5f8051602061071183398151915255565b6001600160a01b037f00000000000000000000000000000000000000000000000000000000000000001633036101125760405162461bcd60e51b815260206004820152603260248201527f43616e6e6f742063616c6c2066616c6c6261636b2066756e6374696f6e20667260448201527137b6903a343290383937bc3c9030b236b4b760711b6064820152608401610468565b80356001600160a01b038116811461052b575f80fd5b919050565b5f60208284031215610540575f80fd5b61054982610515565b9392505050565b5f805f60408486031215610562575f80fd5b61056b84610515565b9250602084013567ffffffffffffffff80821115610587575f80fd5b818601915086601f83011261059a575f80fd5b8135818111156105a8575f80fd5b8760208285010111156105b9575f80fd5b6020830194508093505050509250925092565b634e487b7160e01b5f52604160045260245ffd5b5f80604083850312156105f1575f80fd5b6105fa83610515565b9150602083013567ffffffffffffffff80821115610616575f80fd5b818501915085601f830112610629575f80fd5b81358181111561063b5761063b6105cc565b604051601f8201601f19908116603f01168101908382118183101715610663576106636105cc565b8160405282815288602084870101111561067b575f80fd5b826020860160208301375f6020848301015280955050505050509250929050565b818382375f9101908152919050565b818103818111156106ca57634e487b7160e01b5f52601160045260245ffd5b92915050565b634e487b7160e01b5f52600160045260245ffd5b5f82515f5b8181101561070357602081860181015185830152016106e9565b505f92019182525091905056fe360894a13ba1a3210667c828492db98dca3e2076cc3735a920a3ca505d382bbca164736f6c6343000814000aa164736f6c6343000814000a610eac610035600b8282823980515f1a60731461002957634e487b7160e01b5f525f60045260245ffd5b305f52607381538281f3fe7300000000000000000000000000000000000000003014608060405260043610610034575f3560e01c80635d5dc31314610038575b5f80fd5b818015610043575f80fd5b50610057610052366004610cf2565b610059565b005b604080820151335f9081526020869052919091205460ff90811691161461012a57604080516020810182528354815282519183015161009a92879291610132565b60408181018051335f818152602088815290859020805460ff191660ff9094169390931790925583518083019094528554845291518451918501516100e9948b948b948b94929391929161022f565b5050604080820151905160ff909116815233907fd728da875fc88944cbf17638bcbe4af0eedaef63becd1d1c57cc097eb4608d849060200160405180910390a25b505050505050565b60ff81165f81815260208690526040902090158061015a5750805462010000900461ffff1615155b6040518060400160405280600281526020016106a760f31b8152509061019c5760405162461bcd60e51b81526004016101939190610db9565b60405180910390fd5b5083516101a95750610229565b60ff821615610227575f5b8381101561012a576101c685826102d9565b1561021f5760028201546101e3906001600160801b03168261032c565b6040518060400160405280600381526020016203130360ec1b8152509061021d5760405162461bcd60e51b81526004016101939190610db9565b505b6001016101b4565b505b50505050565b5f805f8061027a8c8c8c6040518060a001604052808e81526020018b81526020018d6001600160a01b031681526020018a6001600160a01b031681526020018c60ff16815250610380565b9550955050505050670de0b6b3a764000082101560405180604001604052806002815260200161333560f01b815250906102c75760405162461bcd60e51b81526004016101939190610db9565b50909b909a5098505050505050505050565b6040805180820190915260028152610dcd60f21b60208201525f90608083106103155760405162461bcd60e51b81526004016101939190610db9565b50508151600182811b9190911c1615155b92915050565b6040805180820190915260028152610dcd60f21b60208201525f90608083106103685760405162461bcd60e51b81526004016101939190610db9565b50506001600160801b0391909116901c600116151590565b5f805f805f80610392875f0151511590565b156103ae57505f94508493508392508291505f1990508161081e565b6104316040518061022001604052805f81526020015f81526020015f81526020015f81526020015f81526020015f81526020015f81526020015f81526020015f81526020015f81526020015f81526020015f81526020015f81526020015f81526020015f6001600160a01b031681526020015f151581526020015f151581525090565b608088015160ff161561047e5760808801805160ff9081165f90815260208c815260408083205461ffff908116610180880152945190931682528c90522054620100009004166101a08201525b87602001518160c0015110156107435760c0810151885161049e9161082b565b6104b25760c081018051600101905261047e565b60c08101515f90815260208b905260409020546001600160a01b03166101c082018190526104ea5760c081018051600101905261047e565b6101c0810180516001600160a01b039081165f90815260208e81526040918290208251808301845281549081905260ff603082901c16606080890182905261ffff601084901c811660a08b01529092166080890152600a0a838801528d01519451835163b3596f0760e01b81529085166004820152925190949093169263b3596f079260248082019392918290030181865afa15801561058c573d5f803e3d5ffd5b505050506040513d601f19601f820116820180604052508101906105b09190610e04565b825260a0820151158015906105d0575060c082015189516105d09161087a565b156106f0576105ec896040015182845f015185602001516108c8565b6040830181905261010083018051610605908390610e2f565b905250608089015160ff16158015906106515750608089015160ff165f90815260208b9052604090205460c083015161065191660100000000000090046001600160801b03169061032c565b15156102008301526080820151156106a75781610200015161067757816080015161067e565b8161018001515b826040015161068d9190610e42565b826101400181815161069f9190610e2f565b9052506106b0565b60016101e08301525b8161020001516106c4578160a001516106cb565b816101a001515b82604001516106da9190610e42565b82610160018181516106ec9190610e2f565b9052505b60c08201518951610700916102d9565b156107325761071c896040015182845f0151856020015161097f565b826101200181815161072e9190610e2f565b9052505b5060c081018051600101905261047e565b8061010001515f03610755575f610770565b8061010001518161014001518161076e5761076e610e59565b045b6101408201526101008101515f03610788575f6107a3565b806101000151816101600151816107a1576107a1610e59565b045b610160820152610120810151156107e5576107e08161012001516107da836101600151846101000151610a3c90919063ffffffff16565b90610a60565b6107e8565b5f195b60e082018190526101008201516101208301516101408401516101608501516101e090950151929a509098509650919450925090505b9499939850945094509450565b6040805180820190915260028152610dcd60f21b60208201525f90608083106108675760405162461bcd60e51b81526004016101939190610db9565b5050905160019190911b1c600316151590565b6040805180820190915260028152610dcd60f21b60208201525f90608083106108b65760405162461bcd60e51b81526004016101939190610db9565b50509051600191821b82011c16151590565b5f806108d385610a95565b600486810154604051630ed1279f60e11b81526001600160a01b038a8116938201939093529293505f928792610956928692911690631da24f3e90602401602060405180830381865afa15801561092c573d5f803e3d5ffd5b505050506040513d601f19601f820116820180604052508101906109509190610e04565b90610af2565b6109609190610e42565b905083818161097157610971610e59565b04925050505b949350505050565b6006830154604051630ed1279f60e11b81526001600160a01b0386811660048301525f928392911690631da24f3e90602401602060405180830381865afa1580156109cc573d5f803e3d5ffd5b505050506040513d601f19601f820116820180604052508101906109f09190610e04565b9050805f03610a02575f915050610977565b83610a16610a0f87610b34565b8390610af2565b610a209190610e42565b9050828181610a3157610a31610e59565b049695505050505050565b5f81156113881983900484111517610a52575f80fd5b506127109102611388010490565b5f8115670de0b6b3a764000060028404190484111715610a7e575f80fd5b50670de0b6b3a76400009190910260028204010490565b60038101545f90600160801b900464ffffffffff16428103610ac3575050600101546001600160801b031690565b6001830154610aeb906001600160801b038082169161095091600160801b9091041684610b8a565b9392505050565b5f81156b019d971e4fe8401e740000001983900484111517610b12575f80fd5b506b033b2e3c9fd0803ce800000091026b019d971e4fe8401e74000000010490565b60038101545f90600160801b900464ffffffffff16428103610b62575050600201546001600160801b031690565b6002830154610aeb906001600160801b038082169161095091600160801b9091041684610bc6565b5f80610b9d64ffffffffff841642610e6d565b610ba79085610e42565b6301e1338090049050610977816b033b2e3c9fd0803ce8000000610e2f565b5f610aeb8383425f80610be064ffffffffff851684610e6d565b9050805f03610bfe576b033b2e3c9fd0803ce8000000915050610aeb565b5f1981015f808060028511610c13575f610c18565b600285035b925066038882915c4000610c2c8a80610af2565b81610c3957610c39610e59565b0491506301e13380610c4b838b610af2565b81610c5857610c58610e59565b0490505f82610c678688610e42565b610c719190610e42565b6002900490505f8285610c84888a610e42565b610c8e9190610e42565b610c989190610e42565b60069004905080826301e13380610caf8a8f610e42565b610cb99190610e80565b610ccf906b033b2e3c9fd0803ce8000000610e2f565b610cd99190610e2f565b610ce39190610e2f565b9b9a5050505050505050505050565b5f805f805f80868803610100811215610d09575f80fd5b873596506020880135955060408801359450606080890135945060808901359350609f1982011215610d39575f80fd5b506040516060810181811067ffffffffffffffff82111715610d6957634e487b7160e01b5f52604160045260245ffd5b60405260a0880135815260c08801356001600160a01b0381168114610d8c575f80fd5b602082015260e088013560ff81168114610da4575f80fd5b80604083015250809150509295509295509295565b5f6020808352835180828501525f5b81811015610de457858101830151858201604001528201610dc8565b505f604082860101526040601f19601f8301168501019250505092915050565b5f60208284031215610e14575f80fd5b5051919050565b634e487b7160e01b5f52601160045260245ffd5b8082018082111561032657610326610e1b565b808202811582820484141761032657610326610e1b565b634e487b7160e01b5f52601260045260245ffd5b8181038181111561032657610326610e1b565b5f82610e9a57634e487b7160e01b5f52601260045260245ffd5b50049056fea164736f6c6343000814000a","linkReferences":{}},"methodIdentifiers":{"getLibrariesReport()":"c3d5cff5"},"id":310}