{"abi":[{"type":"function","name":"ETH_MOCK_ADDRESS","inputs":[],"outputs":[{"name":"","type":"address","internalType":"address"}],"stateMutability":"view"},{"type":"function","name":"REVISION","inputs":[],"outputs":[{"name":"","type":"uint256","internalType":"uint256"}],"stateMutability":"view"},{"type":"function","name":"approve","inputs":[{"name":"token","type":"address","internalType":"contract IERC20"},{"name":"recipient","type":"address","internalType":"address"},{"name":"amount","type":"uint256","internalType":"uint256"}],"outputs":[],"stateMutability":"nonpayable"},{"type":"function","name":"balanceOf","inputs":[{"name":"streamId","type":"uint256","internalType":"uint256"},{"name":"who","type":"address","internalType":"address"}],"outputs":[{"name":"balance","type":"uint256","internalType":"uint256"}],"stateMutability":"view"},{"type":"function","name":"cancelStream","inputs":[{"name":"streamId","type":"uint256","internalType":"uint256"}],"outputs":[{"name":"","type":"bool","internalType":"bool"}],"stateMutability":"nonpayable"},{"type":"function","name":"createStream","inputs":[{"name":"recipient","type":"address","internalType":"address"},{"name":"deposit","type":"uint256","internalType":"uint256"},{"name":"tokenAddress","type":"address","internalType":"address"},{"name":"startTime","type":"uint256","internalType":"uint256"},{"name":"stopTime","type":"uint256","internalType":"uint256"}],"outputs":[{"name":"","type":"uint256","internalType":"uint256"}],"stateMutability":"nonpayable"},{"type":"function","name":"deltaOf","inputs":[{"name":"streamId","type":"uint256","internalType":"uint256"}],"outputs":[{"name":"delta","type":"uint256","internalType":"uint256"}],"stateMutability":"view"},{"type":"function","name":"getFundsAdmin","inputs":[],"outputs":[{"name":"","type":"address","internalType":"address"}],"stateMutability":"view"},{"type":"function","name":"getNextStreamId","inputs":[],"outputs":[{"name":"","type":"uint256","internalType":"uint256"}],"stateMutability":"view"},{"type":"function","name":"getStream","inputs":[{"name":"streamId","type":"uint256","internalType":"uint256"}],"outputs":[{"name":"sender","type":"address","internalType":"address"},{"name":"recipient","type":"address","internalType":"address"},{"name":"deposit","type":"uint256","internalType":"uint256"},{"name":"tokenAddress","type":"address","internalType":"address"},{"name":"startTime","type":"uint256","internalType":"uint256"},{"name":"stopTime","type":"uint256","internalType":"uint256"},{"name":"remainingBalance","type":"uint256","internalType":"uint256"},{"name":"ratePerSecond","type":"uint256","internalType":"uint256"}],"stateMutability":"view"},{"type":"function","name":"initialize","inputs":[{"name":"fundsAdmin","type":"address","internalType":"address"},{"name":"nextStreamId","type":"uint256","internalType":"uint256"}],"outputs":[],"stateMutability":"nonpayable"},{"type":"function","name":"setFundsAdmin","inputs":[{"name":"admin","type":"address","internalType":"address"}],"outputs":[],"stateMutability":"nonpayable"},{"type":"function","name":"transfer","inputs":[{"name":"token","type":"address","internalType":"contract IERC20"},{"name":"recipient","type":"address","internalType":"address"},{"name":"amount","type":"uint256","internalType":"uint256"}],"outputs":[],"stateMutability":"nonpayable"},{"type":"function","name":"withdrawFromStream","inputs":[{"name":"streamId","type":"uint256","internalType":"uint256"},{"name":"amount","type":"uint256","internalType":"uint256"}],"outputs":[{"name":"","type":"bool","internalType":"bool"}],"stateMutability":"nonpayable"},{"type":"event","name":"CancelStream","inputs":[{"name":"streamId","type":"uint256","indexed":true,"internalType":"uint256"},{"name":"sender","type":"address","indexed":true,"internalType":"address"},{"name":"recipient","type":"address","indexed":true,"internalType":"address"},{"name":"senderBalance","type":"uint256","indexed":false,"internalType":"uint256"},{"name":"recipientBalance","type":"uint256","indexed":false,"internalType":"uint256"}],"anonymous":false},{"type":"event","name":"CreateStream","inputs":[{"name":"streamId","type":"uint256","indexed":true,"internalType":"uint256"},{"name":"sender","type":"address","indexed":true,"internalType":"address"},{"name":"recipient","type":"address","indexed":true,"internalType":"address"},{"name":"deposit","type":"uint256","indexed":false,"internalType":"uint256"},{"name":"tokenAddress","type":"address","indexed":false,"internalType":"address"},{"name":"startTime","type":"uint256","indexed":false,"internalType":"uint256"},{"name":"stopTime","type":"uint256","indexed":false,"internalType":"uint256"}],"anonymous":false},{"type":"event","name":"NewFundsAdmin","inputs":[{"name":"fundsAdmin","type":"address","indexed":true,"internalType":"address"}],"anonymous":false},{"type":"event","name":"WithdrawFromStream","inputs":[{"name":"streamId","type":"uint256","indexed":true,"internalType":"uint256"},{"name":"recipient","type":"address","indexed":true,"internalType":"address"},{"name":"amount","type":"uint256","indexed":false,"internalType":"uint256"}],"anonymous":false}],"bytecode":{"object":"0x60806040525f8055348015610012575f80fd5b506001603455611a9f806100255f395ff3fe608060405234801561000f575f80fd5b50600436106100e5575f3560e01c8063a82ccd4d11610088578063cd6dc68711610063578063cd6dc68714610222578063dde43cba14610235578063e1f21c671461023d578063ed0d237114610250575f80fd5b8063a82ccd4d146101e7578063beabacc8146101fa578063cc1b4bf61461020f575f80fd5b806351ee886b116100c357806351ee886b146101385780636db9241b146101535780637a9b2c6c14610176578063894e9a0d14610189575f80fd5b806306bc2ee0146100e95780630932f92b146101135780633656eec214610125575b5f80fd5b6035546001600160a01b03165b6040516001600160a01b0390911681526020015b60405180910390f35b6036545b60405190815260200161010a565b610117610133366004611768565b610263565b6100f673eeeeeeeeeeeeeeeeeeeeeeeeeeeeeeeeeeeeeeee81565b610166610161366004611796565b61040e565b604051901515815260200161010a565b6101666101843660046117ad565b610692565b61019c610197366004611796565b6109b2565b604080516001600160a01b03998a1681529789166020890152870195909552959092166060850152608084015260a083015260c082019290925260e08101919091526101000161010a565b6101176101f5366004611796565b610a54565b61020d6102083660046117cd565b610b6c565b005b61011761021d36600461180b565b610c34565b61020d610230366004611859565b6110fb565b610117600581565b61020d61024b3660046117cd565b6111c6565b61020d61025e366004611883565b611204565b5f828152603760205260408120600701548390600160a01b900460ff166102a55760405162461bcd60e51b815260040161029c9061189e565b60405180910390fd5b5f8481526037602090815260408083208151610120810183528154815260018201548185015260028201548184015260038201546060808301919091526004830154608083015260058301546001600160a01b0390811660a08401526006840154811660c084015260079093015492831660e0830152600160a01b90920460ff1615156101008201528251918201835284825292810184905290810192909252905f61035087610a54565b905082602001518161036291906118e1565b8252604083015183511115610398576040830151835161038291906118fe565b60208301819052825161039591906118fe565b82525b8260a001516001600160a01b0316866001600160a01b0316036103c057505192506104079050565b8260c001516001600160a01b0316866001600160a01b03160361040057815160408401516103ee91906118fe565b60409092018290525092506104079050565b5f94505050505b5092915050565b5f6002603454036104615760405162461bcd60e51b815260206004820152601f60248201527f5265656e7472616e637947756172643a207265656e7472616e742063616c6c00604482015260640161029c565b60026034555f828152603760205260409020600701548290600160a01b900460ff1661049f5760405162461bcd60e51b815260040161029c9061189e565b60355483906001600160a01b03163314806104d257505f818152603760205260409020600501546001600160a01b031633145b6104ee5760405162461bcd60e51b815260040161029c90611911565b5f84815260376020908152604080832081516101208101835281548152600182015493810193909352600281015491830191909152600381015460608301526004810154608083015260058101546001600160a01b0390811660a08401526006820154811660c0840181905260079092015490811660e0840152600160a01b900460ff161515610100830152909190610588908790610263565b90505f610599878460a00151610263565b5f88815260376020526040812081815560018101829055600281018290556003810182905560048101919091556005810180546001600160a01b0319908116909155600682018054909116905560070180546001600160a81b031916905560e0840151909150811561061f5760a084015161061f906001600160a01b038316908461123a565b8360a001516001600160a01b03168460c001516001600160a01b0316897fca3e6079b726e7728802a0537949e2d1c7762304fa641fb06eb56daf2ba8c6b98686604051610676929190918252602082015260400190565b60405180910390a4600196505050505050506001603455919050565b5f6002603454036106e55760405162461bcd60e51b815260206004820152601f60248201527f5265656e7472616e637947756172643a207265656e7472616e742063616c6c00604482015260640161029c565b60026034555f838152603760205260409020600701548390600160a01b900460ff166107235760405162461bcd60e51b815260040161029c9061189e565b60355484906001600160a01b031633148061075657505f818152603760205260409020600501546001600160a01b031633145b6107725760405162461bcd60e51b815260040161029c90611911565b5f84116107b25760405162461bcd60e51b815260206004820152600e60248201526d616d6f756e74206973207a65726f60901b604482015260640161029c565b5f85815260376020908152604080832081516101208101835281548152600182015493810193909352600281015491830191909152600381015460608301526004810154608083015260058101546001600160a01b0390811660a084018190526006830154821660c085015260079092015490811660e0840152600160a01b900460ff16151561010083015290919061084c908890610263565b9050858110156108aa5760405162461bcd60e51b8152602060048201526024808201527f616d6f756e7420657863656564732074686520617661696c61626c652062616c604482015263616e636560e01b606482015260840161029c565b8582604001516108ba91906118fe565b5f88815260376020526040812060020182905503610931575f87815260376020526040812081815560018101829055600281018290556003810182905560048101919091556005810180546001600160a01b0319908116909155600682018054909116905560070180546001600160a81b03191690555b6109578260a00151878460e001516001600160a01b031661123a9092919063ffffffff16565b8160a001516001600160a01b0316877f36c3ab437e6a424ed25dc4bfdeb62706aa06558660fab2dab229d2555adaf89c8860405161099791815260200190565b60405180910390a36001945050505050600160345592915050565b5f805f805f805f808860375f8281526020019081526020015f2060070160149054906101000a900460ff166109f95760405162461bcd60e51b815260040161029c9061189e565b5050505f968752505060376020525050604090922060068101546005820154825460078401546003850154600486015460028701546001909701546001600160a01b039687169a958716995093975091909416949092909190565b5f818152603760205260408120600701548290600160a01b900460ff16610a8d5760405162461bcd60e51b815260040161029c9061189e565b5f83815260376020908152604091829020825161012081018452815481526001820154928101929092526002810154928201929092526003820154606082018190526004830154608083015260058301546001600160a01b0390811660a08401526006840154811660c084015260079093015492831660e0830152600160a01b90920460ff161515610100820152904211610b2b575f925050610b66565b8060800151421015610b4e576060810151610b4690426118fe565b925050610b66565b80606001518160800151610b6291906118fe565b9250505b50919050565b6035546001600160a01b03163314610b965760405162461bcd60e51b815260040161029c9061196e565b6001600160a01b038216610be35760405162461bcd60e51b81526020600482015260146024820152731253959053125117cc1617d49150d2541251539560621b604482015260640161029c565b73eeeeeeeeeeeeeeeeeeeeeeeeeeeeeeeeeeeeeeed196001600160a01b03841601610c2057610c1b6001600160a01b0383168261129d565b505050565b610c1b6001600160a01b038416838361123a565b6035545f906001600160a01b03163314610c605760405162461bcd60e51b815260040161029c9061196e565b6001600160a01b038616610cb65760405162461bcd60e51b815260206004820152601a60248201527f73747265616d20746f20746865207a65726f2061646472657373000000000000604482015260640161029c565b306001600160a01b03871603610d0e5760405162461bcd60e51b815260206004820152601d60248201527f73747265616d20746f2074686520636f6e747261637420697473656c66000000604482015260640161029c565b336001600160a01b03871603610d5d5760405162461bcd60e51b815260206004820152601460248201527339ba3932b0b6903a37903a34329031b0b63632b960611b604482015260640161029c565b5f8511610d9e5760405162461bcd60e51b815260206004820152600f60248201526e6465706f736974206973207a65726f60881b604482015260640161029c565b42831015610df85760405162461bcd60e51b815260206004820152602160248201527f73746172742074696d65206265666f726520626c6f636b2e74696d657374616d6044820152600760fc1b606482015260840161029c565b828211610e475760405162461bcd60e51b815260206004820152601f60248201527f73746f702074696d65206265666f7265207468652073746172742074696d6500604482015260640161029c565b604080518082019091525f8082526020820152610e6484846118fe565b808252861015610eb65760405162461bcd60e51b815260206004820152601f60248201527f6465706f73697420736d616c6c6572207468616e2074696d652064656c746100604482015260640161029c565b8051610ec290876119af565b15610f1a5760405162461bcd60e51b815260206004820152602260248201527f6465706f736974206e6f74206d756c7469706c65206f662074696d652064656c604482015261746160f01b606482015260840161029c565b8051610f2690876119c2565b8160200181815250505f603654905060405180610120016040528088815260200183602001518152602001888152602001868152602001858152602001896001600160a01b03168152602001306001600160a01b03168152602001876001600160a01b031681526020016001151581525060375f8381526020019081526020015f205f820151815f01556020820151816001015560408201518160020155606082015181600301556080820151816004015560a0820151816005015f6101000a8154816001600160a01b0302191690836001600160a01b0316021790555060c0820151816006015f6101000a8154816001600160a01b0302191690836001600160a01b0316021790555060e0820151816007015f6101000a8154816001600160a01b0302191690836001600160a01b031602179055506101008201518160070160146101000a81548160ff02191690831515021790555090505060365f815480929190611092906119d5565b9091555050604080518881526001600160a01b0388811660208301529181018790526060810186905290891690309083907f7b01d409597969366dc268d7f957a990d1ca3d3449baf8fb45db67351aecfe789060800160405180910390a4979650505050505050565b60015460059060ff168061110e5750303b155b8061111957505f5481115b61117c5760405162461bcd60e51b815260206004820152602e60248201527f436f6e747261637420696e7374616e63652068617320616c726561647920626560448201526d195b881a5b9a5d1a585b1a5e995960921b606482015260840161029c565b60015460ff1615801561119a576001805460ff1916811790555f8290555b82156111a65760368390555b6111af846113b2565b80156111c0576001805460ff191690555b50505050565b6035546001600160a01b031633146111f05760405162461bcd60e51b815260040161029c9061196e565b610c1b6001600160a01b03841683836113fb565b6035546001600160a01b0316331461122e5760405162461bcd60e51b815260040161029c9061196e565b611237816113b2565b50565b6040516001600160a01b038316602482015260448101829052610c1b90849063a9059cbb60e01b906064015b60408051601f198184030181529190526020810180516001600160e01b03166001600160e01b03199093169290921790915261150e565b804710156112ed5760405162461bcd60e51b815260206004820152601d60248201527f416464726573733a20696e73756666696369656e742062616c616e6365000000604482015260640161029c565b5f826001600160a01b0316826040515f6040518083038185875af1925050503d805f8114611336576040519150601f19603f3d011682016040523d82523d5f602084013e61133b565b606091505b5050905080610c1b5760405162461bcd60e51b815260206004820152603a60248201527f416464726573733a20756e61626c6520746f2073656e642076616c75652c207260448201527f6563697069656e74206d61792068617665207265766572746564000000000000606482015260840161029c565b603580546001600160a01b0319166001600160a01b0383169081179091556040517f1ab77a654795da4cfe37c33188e862203ade9a5c7f1a9d4957669b3ccbec9e11905f90a250565b8015806114735750604051636eb1769f60e11b81523060048201526001600160a01b03838116602483015284169063dd62ed3e90604401602060405180830381865afa15801561144d573d5f803e3d5ffd5b505050506040513d601f19601f8201168201806040525081019061147191906119ed565b155b6114de5760405162461bcd60e51b815260206004820152603660248201527f5361666545524332303a20617070726f76652066726f6d206e6f6e2d7a65726f60448201527520746f206e6f6e2d7a65726f20616c6c6f77616e636560501b606482015260840161029c565b6040516001600160a01b038316602482015260448101829052610c1b90849063095ea7b360e01b90606401611266565b5f611562826040518060400160405280602081526020017f5361666545524332303a206c6f772d6c6576656c2063616c6c206661696c6564815250856001600160a01b03166115df9092919063ffffffff16565b805190915015610c1b57808060200190518101906115809190611a04565b610c1b5760405162461bcd60e51b815260206004820152602a60248201527f5361666545524332303a204552433230206f7065726174696f6e20646964206e6044820152691bdd081cdd58d8d9595960b21b606482015260840161029c565b60606115ed84845f856115f7565b90505b9392505050565b6060824710156116585760405162461bcd60e51b815260206004820152602660248201527f416464726573733a20696e73756666696369656e742062616c616e636520666f6044820152651c8818d85b1b60d21b606482015260840161029c565b843b6116a65760405162461bcd60e51b815260206004820152601d60248201527f416464726573733a2063616c6c20746f206e6f6e2d636f6e7472616374000000604482015260640161029c565b5f80866001600160a01b031685876040516116c19190611a45565b5f6040518083038185875af1925050503d805f81146116fb576040519150601f19603f3d011682016040523d82523d5f602084013e611700565b606091505b509150915061171082828661171b565b979650505050505050565b6060831561172a5750816115f0565b82511561173a5782518084602001fd5b8160405162461bcd60e51b815260040161029c9190611a60565b6001600160a01b0381168114611237575f80fd5b5f8060408385031215611779575f80fd5b82359150602083013561178b81611754565b809150509250929050565b5f602082840312156117a6575f80fd5b5035919050565b5f80604083850312156117be575f80fd5b50508035926020909101359150565b5f805f606084860312156117df575f80fd5b83356117ea81611754565b925060208401356117fa81611754565b929592945050506040919091013590565b5f805f805f60a0868803121561181f575f80fd5b853561182a81611754565b945060208601359350604086013561184181611754565b94979396509394606081013594506080013592915050565b5f806040838503121561186a575f80fd5b823561187581611754565b946020939093013593505050565b5f60208284031215611893575f80fd5b81356115f081611754565b6020808252601590820152741cdd1c99585b48191bd95cc81b9bdd08195e1a5cdd605a1b604082015260600190565b634e487b7160e01b5f52601160045260245ffd5b80820281158282048414176118f8576118f86118cd565b92915050565b818103818111156118f8576118f86118cd565b6020808252603c908201527f63616c6c6572206973206e6f74207468652066756e64732061646d696e206f7260408201527f2074686520726563697069656e74206f66207468652073747265616d00000000606082015260800190565b60208082526013908201527227a7262cafa12cafa32aa72229afa0a226a4a760691b604082015260600190565b634e487b7160e01b5f52601260045260245ffd5b5f826119bd576119bd61199b565b500690565b5f826119d0576119d061199b565b500490565b5f600182016119e6576119e66118cd565b5060010190565b5f602082840312156119fd575f80fd5b5051919050565b5f60208284031215611a14575f80fd5b815180151581146115f0575f80fd5b5f5b83811015611a3d578181015183820152602001611a25565b50505f910152565b5f8251611a56818460208701611a23565b9190910192915050565b602081525f8251806020840152611a7e816040850160208701611a23565b601f01601f1916919091016040019291505056fea164736f6c6343000814000a","linkReferences":{}},"methodIdentifiers":{"ETH_MOCK_ADDRESS()":"51ee886b","REVISION()":"dde43cba","approve(address,address,uint256)":"e1f21c67","balanceOf(uint256,address)":"3656eec2","cancelStream(uint256)":"6db9241b","createStream(address,uint256,address,uint256,uint256)":"cc1b4bf6","deltaOf(uint256)":"a82ccd4d","getFundsAdmin()":"06bc2ee0","getNextStreamId()":"0932f92b","getStream(uint256)":"894e9a0d","initialize(address,uint256)":"cd6dc687","setFundsAdmin(address)":"ed0d2371","transfer(address,address,uint256)":"beabacc8","withdrawFromStream(uint256,uint256)":"7a9b2c6c"},"id":263}