{"abi":[{"type":"function","name":"CREATE2_FACTORY","inputs":[],"outputs":[{"name":"","type":"address","internalType":"address"}],"stateMutability":"view"}],"bytecode":{"object":"0x6079610033600b8282823980515f1a607314602757634e487b7160e01b5f525f60045260245ffd5b305f52607381538281f3fe73000000000000000000000000000000000000000030146080604052600436106032575f3560e01c806364dac83d146036575b5f80fd5b605073914d7fec6aac8cd542e72bca78b30650d45643d781565b6040516001600160a01b03909116815260200160405180910390f3fea164736f6c6343000814000a","linkReferences":{}},"methodIdentifiers":{"CREATE2_FACTORY()":"64dac83d"},"id":284}