{
  "_format": "hh-sol-artifact-1",
  "contractName": "DefaultReserveInterestRateStrategy",
  "sourceName": "contracts/protocol/pool/DefaultReserveInterestRateStrategy.sol",
  "abi": [
    {
      "inputs": [
        {
          "internalType": "contract IPoolAddressesProvider",
          "name": "provider",
          "type": "address"
        },
        {
          "internalType": "uint256",
          "name": "optimalUsageRatio",
          "type": "uint256"
        },
        {
          "internalType": "uint256",
          "name": "baseVariableBorrowRate",
          "type": "uint256"
        },
        {
          "internalType": "uint256",
          "name": "variableRateSlope1",
          "type": "uint256"
        },
        {
          "internalType": "uint256",
          "name": "variableRateSlope2",
          "type": "uint256"
        },
        {
          "internalType": "uint256",
          "name": "stableRateSlope1",
          "type": "uint256"
        },
        {
          "internalType": "uint256",
          "name": "stableRateSlope2",
          "type": "uint256"
        },
        {
          "internalType": "uint256",
          "name": "baseStableRateOffset",
          "type": "uint256"
        },
        {
          "internalType": "uint256",
          "name": "stableRateExcessOffset",
          "type": "uint256"
        },
        {
          "internalType": "uint256",
          "name": "optimalStableToTotalDebtRatio",
          "type": "uint256"
        }
      ],
      "stateMutability": "nonpayable",
      "type": "constructor"
    },
    {
      "inputs": [],
      "name": "ADDRESSES_PROVIDER",
      "outputs": [
        {
          "internalType": "contract IPoolAddressesProvider",
          "name": "",
          "type": "address"
        }
      ],
      "stateMutability": "view",
      "type": "function"
    },
    {
      "inputs": [],
      "name": "MAX_EXCESS_STABLE_TO_TOTAL_DEBT_RATIO",
      "outputs": [
        {
          "internalType": "uint256",
          "name": "",
          "type": "uint256"
        }
      ],
      "stateMutability": "view",
      "type": "function"
    },
    {
      "inputs": [],
      "name": "MAX_EXCESS_USAGE_RATIO",
      "outputs": [
        {
          "internalType": "uint256",
          "name": "",
          "type": "uint256"
        }
      ],
      "stateMutability": "view",
      "type": "function"
    },
    {
      "inputs": [],
      "name": "OPTIMAL_STABLE_TO_TOTAL_DEBT_RATIO",
      "outputs": [
        {
          "internalType": "uint256",
          "name": "",
          "type": "uint256"
        }
      ],
      "stateMutability": "view",
      "type": "function"
    },
    {
      "inputs": [],
      "name": "OPTIMAL_USAGE_RATIO",
      "outputs": [
        {
          "internalType": "uint256",
          "name": "",
          "type": "uint256"
        }
      ],
      "stateMutability": "view",
      "type": "function"
    },
    {
      "inputs": [
        {
          "components": [
            {
              "internalType": "uint256",
              "name": "unbacked",
              "type": "uint256"
            },
            {
              "internalType": "uint256",
              "name": "liquidityAdded",
              "type": "uint256"
            },
            {
              "internalType": "uint256",
              "name": "liquidityTaken",
              "type": "uint256"
            },
            {
              "internalType": "uint256",
              "name": "totalStableDebt",
              "type": "uint256"
            },
            {
              "internalType": "uint256",
              "name": "totalVariableDebt",
              "type": "uint256"
            },
            {
              "internalType": "uint256",
              "name": "averageStableBorrowRate",
              "type": "uint256"
            },
            {
              "internalType": "uint256",
              "name": "reserveFactor",
              "type": "uint256"
            },
            {
              "internalType": "address",
              "name": "reserve",
              "type": "address"
            },
            {
              "internalType": "address",
              "name": "aToken",
              "type": "address"
            }
          ],
          "internalType": "struct DataTypes.CalculateInterestRatesParams",
          "name": "params",
          "type": "tuple"
        }
      ],
      "name": "calculateInterestRates",
      "outputs": [
        {
          "internalType": "uint256",
          "name": "",
          "type": "uint256"
        },
        {
          "internalType": "uint256",
          "name": "",
          "type": "uint256"
        },
        {
          "internalType": "uint256",
          "name": "",
          "type": "uint256"
        }
      ],
      "stateMutability": "view",
      "type": "function"
    },
    {
      "inputs": [],
      "name": "getBaseStableBorrowRate",
      "outputs": [
        {
          "internalType": "uint256",
          "name": "",
          "type": "uint256"
        }
      ],
      "stateMutability": "view",
      "type": "function"
    },
    {
      "inputs": [],
      "name": "getBaseVariableBorrowRate",
      "outputs": [
        {
          "internalType": "uint256",
          "name": "",
          "type": "uint256"
        }
      ],
      "stateMutability": "view",
      "type": "function"
    },
    {
      "inputs": [],
      "name": "getMaxVariableBorrowRate",
      "outputs": [
        {
          "internalType": "uint256",
          "name": "",
          "type": "uint256"
        }
      ],
      "stateMutability": "view",
      "type": "function"
    },
    {
      "inputs": [],
      "name": "getStableRateExcessOffset",
      "outputs": [
        {
          "internalType": "uint256",
          "name": "",
          "type": "uint256"
        }
      ],
      "stateMutability": "view",
      "type": "function"
    },
    {
      "inputs": [],
      "name": "getStableRateSlope1",
      "outputs": [
        {
          "internalType": "uint256",
          "name": "",
          "type": "uint256"
        }
      ],
      "stateMutability": "view",
      "type": "function"
    },
    {
      "inputs": [],
      "name": "getStableRateSlope2",
      "outputs": [
        {
          "internalType": "uint256",
          "name": "",
          "type": "uint256"
        }
      ],
      "stateMutability": "view",
      "type": "function"
    },
    {
      "inputs": [],
      "name": "getVariableRateSlope1",
      "outputs": [
        {
          "internalType": "uint256",
          "name": "",
          "type": "uint256"
        }
      ],
      "stateMutability": "view",
      "type": "function"
    },
    {
      "inputs": [],
      "name": "getVariableRateSlope2",
      "outputs": [
        {
          "internalType": "uint256",
          "name": "",
          "type": "uint256"
        }
      ],
      "stateMutability": "view",
      "type": "function"
    }
  ],
  "bytecode": "0x61020060405234801561001157600080fd5b50604051610efd380380610efd83398101604081905261003091610144565b886b033b2e3c9fd0803ce8000000101560405180604001604052806002815260200161383360f01b815250906100825760405162461bcd60e51b815260040161007991906101cf565b60405180910390fd5b50806b033b2e3c9fd0803ce80000001015604051806040016040528060028152602001610e0d60f21b815250906100cc5760405162461bcd60e51b815260040161007991906101cf565b5060808990526100e8896b033b2e3c9fd0803ce8000000610224565b60c05260a0819052610106816b033b2e3c9fd0803ce8000000610224565b60e052506001600160a01b0390981661010052610120959095526101409390935261016091909152610180526101a0526101c052506101e052610249565b6000806000806000806000806000806101408b8d03121561016457600080fd5b8a516001600160a01b038116811461017b57600080fd5b809a505060208b0151985060408b0151975060608b0151965060808b0151955060a08b0151945060c08b0151935060e08b015192506101008b015191506101208b015190509295989b9194979a5092959850565b600060208083528351808285015260005b818110156101fc578581018301518582016040015282016101e0565b8181111561020e576000604083870101525b50601f01601f1916929092016040019392505050565b60008282101561024457634e487b7160e01b600052601160045260246000fd5b500390565b60805160a05160c05160e05161010051610120516101405161016051610180516101a0516101c0516101e051610b98610365600039600081816102710152610852015260006108f5015260008181610172015261061d01526000818161029701528181610648015261071d0152600081816102bd0152818161030c015261068501526000818161014201528181610330015281816106b00152818161078f01526109160152600081816101980152818161035101526103f80152600060f40152600081816102e601526107fc01526000818161024501526105c10152600081816101e8015281816107cb015261081d0152600081816101c101528181610590015281816105e2015281816106f401526107690152610b986000f3fe608060405234801561001057600080fd5b50600436106100ea5760003560e01c8063a58987091161008c578063bc62690811610066578063bc6269081461026f578063d5cd739114610295578063f4202409146102bb578063fe5fd698146102e157600080fd5b8063a589870914610212578063a9c622f814610240578063acd786861461026757600080fd5b806334762ca5116100c857806334762ca51461019657806354c365c6146101bc5780636fb92589146101e357806380031e371461020a57600080fd5b80630542975c146100ef5780630b3429a21461014057806314e32da414610170575b600080fd5b6101167f000000000000000000000000000000000000000000000000000000000000000081565b60405173ffffffffffffffffffffffffffffffffffffffff90911681526020015b60405180910390f35b7f00000000000000000000000000000000000000000000000000000000000000005b604051908152602001610137565b7f0000000000000000000000000000000000000000000000000000000000000000610162565b7f0000000000000000000000000000000000000000000000000000000000000000610162565b6101627f000000000000000000000000000000000000000000000000000000000000000081565b6101627f000000000000000000000000000000000000000000000000000000000000000081565b610162610308565b610225610220366004610a95565b610384565b60408051938452602084019290925290820152606001610137565b6101627f000000000000000000000000000000000000000000000000000000000000000081565b6101626108ee565b7f0000000000000000000000000000000000000000000000000000000000000000610162565b7f0000000000000000000000000000000000000000000000000000000000000000610162565b7f0000000000000000000000000000000000000000000000000000000000000000610162565b6101627f000000000000000000000000000000000000000000000000000000000000000081565b60007f00000000000000000000000000000000000000000000000000000000000000006103757f00000000000000000000000000000000000000000000000000000000000000007f0000000000000000000000000000000000000000000000000000000000000000610add565b61037f9190610add565b905090565b60008060006103d86040518061012001604052806000815260200160008152602001600081526020016000815260200160008152602001600081526020016000815260200160008152602001600081525090565b6103ea60808601356060870135610add565b6020820152600060808201527f000000000000000000000000000000000000000000000000000000000000000060408201526104246108ee565b606082015260208101511561058e5760208101516104479060608701359061093a565b8160e0018181525050846040013585602001358660e001602081019061046d9190610af5565b73ffffffffffffffffffffffffffffffffffffffff166370a0823161049a6101208a016101008b01610af5565b6040517fffffffff0000000000000000000000000000000000000000000000000000000060e084901b16815273ffffffffffffffffffffffffffffffffffffffff9091166004820152602401602060405180830381865afa158015610503573d6000803e3d6000fd5b505050506040513d601f19601f820116820180604052508101906105279190610b32565b6105319190610add565b61053b9190610b4b565b808252602082015161054c91610add565b610100820181905260208201516105629161093a565b60a08201526101008101516105889061057d90873590610add565b60208301519061093a565b60c08201525b7f00000000000000000000000000000000000000000000000000000000000000008160a0015111156106ef5760006106167f00000000000000000000000000000000000000000000000000000000000000007f00000000000000000000000000000000000000000000000000000000000000008460a001516106109190610b4b565b9061093a565b90506106427f000000000000000000000000000000000000000000000000000000000000000082610979565b61066c907f0000000000000000000000000000000000000000000000000000000000000000610add565b8260600181815161067d9190610add565b9052506106aa7f000000000000000000000000000000000000000000000000000000000000000082610979565b6106d4907f0000000000000000000000000000000000000000000000000000000000000000610add565b826040018181516106e59190610add565b9052506107c99050565b61074a7f00000000000000000000000000000000000000000000000000000000000000006106108360a001517f000000000000000000000000000000000000000000000000000000000000000061097990919063ffffffff16565b8160600181815161075b9190610add565b90525060a08101516107b4907f000000000000000000000000000000000000000000000000000000000000000090610610907f000000000000000000000000000000000000000000000000000000000000000090610979565b816040018181516107c59190610add565b9052505b7f00000000000000000000000000000000000000000000000000000000000000008160e00151111561088d57600061084b7f00000000000000000000000000000000000000000000000000000000000000007f00000000000000000000000000000000000000000000000000000000000000008460e001516106109190610b4b565b90506108777f000000000000000000000000000000000000000000000000000000000000000082610979565b826060018181516108889190610add565b905250505b6108d06108a060c0870135612710610b4b565b6108ca8360c001516108c489606001358a6080013587604001518c60a001356109d0565b90610979565b90610a37565b60808201819052606082015160409092015190969195509350915050565b600061037f7f00000000000000000000000000000000000000000000000000000000000000007f0000000000000000000000000000000000000000000000000000000000000000610add565b600081156b033b2e3c9fd0803ce80000006002840419048411171561095e57600080fd5b506b033b2e3c9fd0803ce80000009190910260028204010490565b600081157ffffffffffffffffffffffffffffffffffffffffffe6268e1b017bfe18bffffff839004841115176109ae57600080fd5b506b033b2e3c9fd0803ce800000091026b019d971e4fe8401e74000000010490565b6000806109dd8587610add565b9050806109ee576000915050610a2f565b60006109fd856108c488610a7a565b90506000610a0e856108c48a610a7a565b90506000610a28610a1e85610a7a565b6106108486610add565b9450505050505b949350505050565b600081157fffffffffffffffffffffffffffffffffffffffffffffffffffffffffffffec7783900484111517610a6c57600080fd5b506127109102611388010490565b633b9aca008181029081048214610a9057600080fd5b919050565b60006101208284031215610aa857600080fd5b50919050565b7f4e487b7100000000000000000000000000000000000000000000000000000000600052601160045260246000fd5b60008219821115610af057610af0610aae565b500190565b600060208284031215610b0757600080fd5b813573ffffffffffffffffffffffffffffffffffffffff81168114610b2b57600080fd5b9392505050565b600060208284031215610b4457600080fd5b5051919050565b600082821015610b5d57610b5d610aae565b50039056fea2646970667358221220f3f957ef5984ca5ae42ace0808f300a938639963c3ee45565816afa32d3f99b564736f6c634300080a0033",
  "linkReferences": {},
  "deployedLinkReferences": {}
}