{
  "_format": "hh-sol-artifact-1",
  "contractName": "DelegationAwareAToken",
  "sourceName": "contracts/protocol/tokenization/DelegationAwareAToken.sol",
  "abi": [
    {
      "inputs": [
        {
          "internalType": "contract IPool",
          "name": "pool",
          "type": "address"
        }
      ],
      "stateMutability": "nonpayable",
      "type": "constructor"
    },
    {
      "anonymous": false,
      "inputs": [
        {
          "indexed": true,
          "internalType": "address",
          "name": "owner",
          "type": "address"
        },
        {
          "indexed": true,
          "internalType": "address",
          "name": "spender",
          "type": "address"
        },
        {
          "indexed": false,
          "internalType": "uint256",
          "name": "value",
          "type": "uint256"
        }
      ],
      "name": "Approval",
      "type": "event"
    },
    {
      "anonymous": false,
      "inputs": [
        {
          "indexed": true,
          "internalType": "address",
          "name": "from",
          "type": "address"
        },
        {
          "indexed": true,
          "internalType": "address",
          "name": "to",
          "type": "address"
        },
        {
          "indexed": false,
          "internalType": "uint256",
          "name": "value",
          "type": "uint256"
        },
        {
          "indexed": false,
          "internalType": "uint256",
          "name": "index",
          "type": "uint256"
        }
      ],
      "name": "BalanceTransfer",
      "type": "event"
    },
    {
      "anonymous": false,
      "inputs": [
        {
          "indexed": true,
          "internalType": "address",
          "name": "from",
          "type": "address"
        },
        {
          "indexed": true,
          "internalType": "address",
          "name": "target",
          "type": "address"
        },
        {
          "indexed": false,
          "internalType": "uint256",
          "name": "value",
          "type": "uint256"
        },
        {
          "indexed": false,
          "internalType": "uint256",
          "name": "balanceIncrease",
          "type": "uint256"
        },
        {
          "indexed": false,
          "internalType": "uint256",
          "name": "index",
          "type": "uint256"
        }
      ],
      "name": "Burn",
      "type": "event"
    },
    {
      "anonymous": false,
      "inputs": [
        {
          "indexed": true,
          "internalType": "address",
          "name": "delegatee",
          "type": "address"
        }
      ],
      "name": "DelegateUnderlyingTo",
      "type": "event"
    },
    {
      "anonymous": false,
      "inputs": [
        {
          "indexed": true,
          "internalType": "address",
          "name": "underlyingAsset",
          "type": "address"
        },
        {
          "indexed": true,
          "internalType": "address",
          "name": "pool",
          "type": "address"
        },
        {
          "indexed": false,
          "internalType": "address",
          "name": "treasury",
          "type": "address"
        },
        {
          "indexed": false,
          "internalType": "address",
          "name": "incentivesController",
          "type": "address"
        },
        {
          "indexed": false,
          "internalType": "uint8",
          "name": "aTokenDecimals",
          "type": "uint8"
        },
        {
          "indexed": false,
          "internalType": "string",
          "name": "aTokenName",
          "type": "string"
        },
        {
          "indexed": false,
          "internalType": "string",
          "name": "aTokenSymbol",
          "type": "string"
        },
        {
          "indexed": false,
          "internalType": "bytes",
          "name": "params",
          "type": "bytes"
        }
      ],
      "name": "Initialized",
      "type": "event"
    },
    {
      "anonymous": false,
      "inputs": [
        {
          "indexed": true,
          "internalType": "address",
          "name": "caller",
          "type": "address"
        },
        {
          "indexed": true,
          "internalType": "address",
          "name": "onBehalfOf",
          "type": "address"
        },
        {
          "indexed": false,
          "internalType": "uint256",
          "name": "value",
          "type": "uint256"
        },
        {
          "indexed": false,
          "internalType": "uint256",
          "name": "balanceIncrease",
          "type": "uint256"
        },
        {
          "indexed": false,
          "internalType": "uint256",
          "name": "index",
          "type": "uint256"
        }
      ],
      "name": "Mint",
      "type": "event"
    },
    {
      "anonymous": false,
      "inputs": [
        {
          "indexed": true,
          "internalType": "address",
          "name": "from",
          "type": "address"
        },
        {
          "indexed": true,
          "internalType": "address",
          "name": "to",
          "type": "address"
        },
        {
          "indexed": false,
          "internalType": "uint256",
          "name": "value",
          "type": "uint256"
        }
      ],
      "name": "Transfer",
      "type": "event"
    },
    {
      "inputs": [],
      "name": "ATOKEN_REVISION",
      "outputs": [
        {
          "internalType": "uint256",
          "name": "",
          "type": "uint256"
        }
      ],
      "stateMutability": "view",
      "type": "function"
    },
    {
      "inputs": [],
      "name": "DOMAIN_SEPARATOR",
      "outputs": [
        {
          "internalType": "bytes32",
          "name": "",
          "type": "bytes32"
        }
      ],
      "stateMutability": "view",
      "type": "function"
    },
    {
      "inputs": [],
      "name": "EIP712_REVISION",
      "outputs": [
        {
          "internalType": "bytes",
          "name": "",
          "type": "bytes"
        }
      ],
      "stateMutability": "view",
      "type": "function"
    },
    {
      "inputs": [],
      "name": "PERMIT_TYPEHASH",
      "outputs": [
        {
          "internalType": "bytes32",
          "name": "",
          "type": "bytes32"
        }
      ],
      "stateMutability": "view",
      "type": "function"
    },
    {
      "inputs": [],
      "name": "POOL",
      "outputs": [
        {
          "internalType": "contract IPool",
          "name": "",
          "type": "address"
        }
      ],
      "stateMutability": "view",
      "type": "function"
    },
    {
      "inputs": [],
      "name": "RESERVE_TREASURY_ADDRESS",
      "outputs": [
        {
          "internalType": "address",
          "name": "",
          "type": "address"
        }
      ],
      "stateMutability": "view",
      "type": "function"
    },
    {
      "inputs": [],
      "name": "UNDERLYING_ASSET_ADDRESS",
      "outputs": [
        {
          "internalType": "address",
          "name": "",
          "type": "address"
        }
      ],
      "stateMutability": "view",
      "type": "function"
    },
    {
      "inputs": [
        {
          "internalType": "address",
          "name": "owner",
          "type": "address"
        },
        {
          "internalType": "address",
          "name": "spender",
          "type": "address"
        }
      ],
      "name": "allowance",
      "outputs": [
        {
          "internalType": "uint256",
          "name": "",
          "type": "uint256"
        }
      ],
      "stateMutability": "view",
      "type": "function"
    },
    {
      "inputs": [
        {
          "internalType": "address",
          "name": "spender",
          "type": "address"
        },
        {
          "internalType": "uint256",
          "name": "amount",
          "type": "uint256"
        }
      ],
      "name": "approve",
      "outputs": [
        {
          "internalType": "bool",
          "name": "",
          "type": "bool"
        }
      ],
      "stateMutability": "nonpayable",
      "type": "function"
    },
    {
      "inputs": [
        {
          "internalType": "address",
          "name": "user",
          "type": "address"
        }
      ],
      "name": "balanceOf",
      "outputs": [
        {
          "internalType": "uint256",
          "name": "",
          "type": "uint256"
        }
      ],
      "stateMutability": "view",
      "type": "function"
    },
    {
      "inputs": [
        {
          "internalType": "address",
          "name": "from",
          "type": "address"
        },
        {
          "internalType": "address",
          "name": "receiverOfUnderlying",
          "type": "address"
        },
        {
          "internalType": "uint256",
          "name": "amount",
          "type": "uint256"
        },
        {
          "internalType": "uint256",
          "name": "index",
          "type": "uint256"
        }
      ],
      "name": "burn",
      "outputs": [],
      "stateMutability": "nonpayable",
      "type": "function"
    },
    {
      "inputs": [],
      "name": "decimals",
      "outputs": [
        {
          "internalType": "uint8",
          "name": "",
          "type": "uint8"
        }
      ],
      "stateMutability": "view",
      "type": "function"
    },
    {
      "inputs": [
        {
          "internalType": "address",
          "name": "spender",
          "type": "address"
        },
        {
          "internalType": "uint256",
          "name": "subtractedValue",
          "type": "uint256"
        }
      ],
      "name": "decreaseAllowance",
      "outputs": [
        {
          "internalType": "bool",
          "name": "",
          "type": "bool"
        }
      ],
      "stateMutability": "nonpayable",
      "type": "function"
    },
    {
      "inputs": [
        {
          "internalType": "address",
          "name": "delegatee",
          "type": "address"
        }
      ],
      "name": "delegateUnderlyingTo",
      "outputs": [],
      "stateMutability": "nonpayable",
      "type": "function"
    },
    {
      "inputs": [],
      "name": "getIncentivesController",
      "outputs": [
        {
          "internalType": "contract IAaveIncentivesController",
          "name": "",
          "type": "address"
        }
      ],
      "stateMutability": "view",
      "type": "function"
    },
    {
      "inputs": [
        {
          "internalType": "address",
          "name": "user",
          "type": "address"
        }
      ],
      "name": "getPreviousIndex",
      "outputs": [
        {
          "internalType": "uint256",
          "name": "",
          "type": "uint256"
        }
      ],
      "stateMutability": "view",
      "type": "function"
    },
    {
      "inputs": [
        {
          "internalType": "address",
          "name": "user",
          "type": "address"
        }
      ],
      "name": "getScaledUserBalanceAndSupply",
      "outputs": [
        {
          "internalType": "uint256",
          "name": "",
          "type": "uint256"
        },
        {
          "internalType": "uint256",
          "name": "",
          "type": "uint256"
        }
      ],
      "stateMutability": "view",
      "type": "function"
    },
    {
      "inputs": [
        {
          "internalType": "address",
          "name": "user",
          "type": "address"
        },
        {
          "internalType": "uint256",
          "name": "amount",
          "type": "uint256"
        }
      ],
      "name": "handleRepayment",
      "outputs": [],
      "stateMutability": "nonpayable",
      "type": "function"
    },
    {
      "inputs": [
        {
          "internalType": "address",
          "name": "spender",
          "type": "address"
        },
        {
          "internalType": "uint256",
          "name": "addedValue",
          "type": "uint256"
        }
      ],
      "name": "increaseAllowance",
      "outputs": [
        {
          "internalType": "bool",
          "name": "",
          "type": "bool"
        }
      ],
      "stateMutability": "nonpayable",
      "type": "function"
    },
    {
      "inputs": [
        {
          "internalType": "contract IPool",
          "name": "initializingPool",
          "type": "address"
        },
        {
          "internalType": "address",
          "name": "treasury",
          "type": "address"
        },
        {
          "internalType": "address",
          "name": "underlyingAsset",
          "type": "address"
        },
        {
          "internalType": "contract IAaveIncentivesController",
          "name": "incentivesController",
          "type": "address"
        },
        {
          "internalType": "uint8",
          "name": "aTokenDecimals",
          "type": "uint8"
        },
        {
          "internalType": "string",
          "name": "aTokenName",
          "type": "string"
        },
        {
          "internalType": "string",
          "name": "aTokenSymbol",
          "type": "string"
        },
        {
          "internalType": "bytes",
          "name": "params",
          "type": "bytes"
        }
      ],
      "name": "initialize",
      "outputs": [],
      "stateMutability": "nonpayable",
      "type": "function"
    },
    {
      "inputs": [
        {
          "internalType": "address",
          "name": "caller",
          "type": "address"
        },
        {
          "internalType": "address",
          "name": "onBehalfOf",
          "type": "address"
        },
        {
          "internalType": "uint256",
          "name": "amount",
          "type": "uint256"
        },
        {
          "internalType": "uint256",
          "name": "index",
          "type": "uint256"
        }
      ],
      "name": "mint",
      "outputs": [
        {
          "internalType": "bool",
          "name": "",
          "type": "bool"
        }
      ],
      "stateMutability": "nonpayable",
      "type": "function"
    },
    {
      "inputs": [
        {
          "internalType": "uint256",
          "name": "amount",
          "type": "uint256"
        },
        {
          "internalType": "uint256",
          "name": "index",
          "type": "uint256"
        }
      ],
      "name": "mintToTreasury",
      "outputs": [],
      "stateMutability": "nonpayable",
      "type": "function"
    },
    {
      "inputs": [],
      "name": "name",
      "outputs": [
        {
          "internalType": "string",
          "name": "",
          "type": "string"
        }
      ],
      "stateMutability": "view",
      "type": "function"
    },
    {
      "inputs": [
        {
          "internalType": "address",
          "name": "owner",
          "type": "address"
        }
      ],
      "name": "nonces",
      "outputs": [
        {
          "internalType": "uint256",
          "name": "",
          "type": "uint256"
        }
      ],
      "stateMutability": "view",
      "type": "function"
    },
    {
      "inputs": [
        {
          "internalType": "address",
          "name": "owner",
          "type": "address"
        },
        {
          "internalType": "address",
          "name": "spender",
          "type": "address"
        },
        {
          "internalType": "uint256",
          "name": "value",
          "type": "uint256"
        },
        {
          "internalType": "uint256",
          "name": "deadline",
          "type": "uint256"
        },
        {
          "internalType": "uint8",
          "name": "v",
          "type": "uint8"
        },
        {
          "internalType": "bytes32",
          "name": "r",
          "type": "bytes32"
        },
        {
          "internalType": "bytes32",
          "name": "s",
          "type": "bytes32"
        }
      ],
      "name": "permit",
      "outputs": [],
      "stateMutability": "nonpayable",
      "type": "function"
    },
    {
      "inputs": [
        {
          "internalType": "address",
          "name": "token",
          "type": "address"
        },
        {
          "internalType": "address",
          "name": "to",
          "type": "address"
        },
        {
          "internalType": "uint256",
          "name": "amount",
          "type": "uint256"
        }
      ],
      "name": "rescueTokens",
      "outputs": [],
      "stateMutability": "nonpayable",
      "type": "function"
    },
    {
      "inputs": [
        {
          "internalType": "address",
          "name": "user",
          "type": "address"
        }
      ],
      "name": "scaledBalanceOf",
      "outputs": [
        {
          "internalType": "uint256",
          "name": "",
          "type": "uint256"
        }
      ],
      "stateMutability": "view",
      "type": "function"
    },
    {
      "inputs": [],
      "name": "scaledTotalSupply",
      "outputs": [
        {
          "internalType": "uint256",
          "name": "",
          "type": "uint256"
        }
      ],
      "stateMutability": "view",
      "type": "function"
    },
    {
      "inputs": [
        {
          "internalType": "contract IAaveIncentivesController",
          "name": "controller",
          "type": "address"
        }
      ],
      "name": "setIncentivesController",
      "outputs": [],
      "stateMutability": "nonpayable",
      "type": "function"
    },
    {
      "inputs": [],
      "name": "symbol",
      "outputs": [
        {
          "internalType": "string",
          "name": "",
          "type": "string"
        }
      ],
      "stateMutability": "view",
      "type": "function"
    },
    {
      "inputs": [],
      "name": "totalSupply",
      "outputs": [
        {
          "internalType": "uint256",
          "name": "",
          "type": "uint256"
        }
      ],
      "stateMutability": "view",
      "type": "function"
    },
    {
      "inputs": [
        {
          "internalType": "address",
          "name": "recipient",
          "type": "address"
        },
        {
          "internalType": "uint256",
          "name": "amount",
          "type": "uint256"
        }
      ],
      "name": "transfer",
      "outputs": [
        {
          "internalType": "bool",
          "name": "",
          "type": "bool"
        }
      ],
      "stateMutability": "nonpayable",
      "type": "function"
    },
    {
      "inputs": [
        {
          "internalType": "address",
          "name": "sender",
          "type": "address"
        },
        {
          "internalType": "address",
          "name": "recipient",
          "type": "address"
        },
        {
          "internalType": "uint256",
          "name": "amount",
          "type": "uint256"
        }
      ],
      "name": "transferFrom",
      "outputs": [
        {
          "internalType": "bool",
          "name": "",
          "type": "bool"
        }
      ],
      "stateMutability": "nonpayable",
      "type": "function"
    },
    {
      "inputs": [
        {
          "internalType": "address",
          "name": "from",
          "type": "address"
        },
        {
          "internalType": "address",
          "name": "to",
          "type": "address"
        },
        {
          "internalType": "uint256",
          "name": "value",
          "type": "uint256"
        }
      ],
      "name": "transferOnLiquidation",
      "outputs": [],
      "stateMutability": "nonpayable",
      "type": "function"
    },
    {
      "inputs": [
        {
          "internalType": "address",
          "name": "target",
          "type": "address"
        },
        {
          "internalType": "uint256",
          "name": "amount",
          "type": "uint256"
        }
      ],
      "name": "transferUnderlyingTo",
      "outputs": [],
      "stateMutability": "nonpayable",
      "type": "function"
    }
  ],
  "bytecode": "0x60e0604052600080553480156200001557600080fd5b506040516200386c3803806200386c83398101604081905262000038916200021f565b80806040518060400160405280600b81526020016a105513d2d15397d253541360aa1b8152506040518060400160405280600b81526020016a105513d2d15397d253541360aa1b81525060008383838383838383836001600160a01b0316630542975c6040518163ffffffff1660e01b8152600401602060405180830381865afa158015620000cb573d6000803e3d6000fd5b505050506040513d601f19601f82011682018060405250810190620000f191906200021f565b6001600160a01b031660805282516200011290603790602086019062000160565b5081516200012890603890602085019062000160565b506039805460ff191660ff9290921691909117905550506001600160a01b031660a05250504660c05250620002839650505050505050565b8280546200016e9062000246565b90600052602060002090601f016020900481019282620001925760008555620001dd565b82601f10620001ad57805160ff1916838001178555620001dd565b82800160010185558215620001dd579182015b82811115620001dd578251825591602001919060010190620001c0565b50620001eb929150620001ef565b5090565b5b80821115620001eb5760008155600101620001f0565b6001600160a01b03811681146200021c57600080fd5b50565b6000602082840312156200023257600080fd5b81516200023f8162000206565b9392505050565b600181811c908216806200025b57607f821691505b602082108114156200027d57634e487b7160e01b600052602260045260246000fd5b50919050565b60805160a05160c0516135506200031c6000396000611fb80152600081816103d70152818161074b015281816108b001528181610aaf01528181610f2401528181611009015281816110ec0152818161116c01528181611210015281816113380152818161199001528181611c600152818161266d01526127f4015260008181610c43015281816113bf0152611a4f01526135506000f3fe608060405234801561001057600080fd5b50600436106102415760003560e01c80637816037611610145578063b1bf962d116100bd578063d7020d0a1161008c578063e075398611610071578063e0753986146105ba578063e655dbd814610616578063f866c3191461062957600080fd5b8063d7020d0a14610561578063dd62ed3e1461057457600080fd5b8063b1bf962d14610520578063b3f1c93d14610528578063cea9d26f1461053b578063d505accf1461054e57600080fd5b806395d89b4111610114578063a9059cbb116100f9578063a9059cbb146104d1578063ae167335146104e4578063b16a19de1461050257600080fd5b806395d89b41146104b6578063a457c2d7146104be57600080fd5b806378160376146104415780637df5bd3b1461047d5780637ecebe001461049057806388dd91a1146104a357600080fd5b80632f114618116101d857806339509351116101a757806370a082311161018c57806370a08231146103bf5780637535d246146103d257806375d264131461041e57600080fd5b806339509351146103995780634efecaa5146103ac57600080fd5b80632f1146181461034257806330adf81f14610355578063313ce5671461037c5780633644e5151461039157600080fd5b806318160ddd1161021457806318160ddd146102ff578063183fb413146103075780631da24f3e1461031c57806323b872dd1461032f57600080fd5b806306fdde0314610246578063095ea7b3146102645780630afbcdc9146102875780630bd7ad3b146102e9575b600080fd5b61024e61063c565b60405161025b9190612fb7565b60405180910390f35b610277610272366004613006565b6106ce565b604051901515815260200161025b565b6102d4610295366004613032565b73ffffffffffffffffffffffffffffffffffffffff166000908152603460205260409020546036546fffffffffffffffffffffffffffffffff90911691565b6040805192835260208301919091520161025b565b6102f1600181565b60405190815260200161025b565b6102f16106e4565b61031a6103153660046130a9565b6107c3565b005b6102f161032a366004613032565b610b80565b61027761033d36600461319d565b610bbf565b61031a610350366004613032565b610c3f565b6102f17f6e71edae12b1b97f4d1f60370fef10105fa2faae0126114a169c64845d6126c981565b60395460405160ff909116815260200161025b565b6102f1610e9a565b6102776103a7366004613006565b610ea9565b61031a6103ba366004613006565b610eed565b6102f16103cd366004613032565b610fba565b6103f97f000000000000000000000000000000000000000000000000000000000000000081565b60405173ffffffffffffffffffffffffffffffffffffffff909116815260200161025b565b603954610100900473ffffffffffffffffffffffffffffffffffffffff166103f9565b61024e6040518060400160405280600181526020017f310000000000000000000000000000000000000000000000000000000000000081525081565b61031a61048b3660046131de565b6110b5565b6102f161049e366004613032565b6111ae565b61031a6104b1366004613006565b6111d9565b61024e61127d565b6102776104cc366004613006565b61128c565b6102776104df366004613006565b6112d0565b603c5473ffffffffffffffffffffffffffffffffffffffff166103f9565b603d5473ffffffffffffffffffffffffffffffffffffffff166103f9565b6102f16112f3565b610277610536366004613200565b6112fe565b61031a61054936600461319d565b6113bb565b61031a61055c366004613246565b6115ff565b61031a61056f366004613200565b611959565b6102f16105823660046132b4565b73ffffffffffffffffffffffffffffffffffffffff918216600090815260356020908152604080832093909416825291909152205490565b6102f16105c8366004613032565b73ffffffffffffffffffffffffffffffffffffffff1660009081526034602052604090205470010000000000000000000000000000000090046fffffffffffffffffffffffffffffffff1690565b61031a610624366004613032565b611a4b565b61031a61063736600461319d565b611c29565b60606037805461064b906132ed565b80601f0160208091040260200160405190810160405280929190818152602001828054610677906132ed565b80156106c45780601f10610699576101008083540402835291602001916106c4565b820191906000526020600020905b8154815290600101906020018083116106a757829003601f168201915b5050505050905090565b60006106db338484611d47565b50600192915050565b6000806106f060365490565b9050806106ff57600091505090565b603d546040517fd15e005300000000000000000000000000000000000000000000000000000000815273ffffffffffffffffffffffffffffffffffffffff91821660048201526107bd917f0000000000000000000000000000000000000000000000000000000000000000169063d15e005390602401602060405180830381865afa158015610792573d6000803e3d6000fd5b505050506040513d601f19601f820116820180604052508101906107b6919061333b565b8290611dad565b91505090565b6001805460ff16806107d45750303b155b806107e0575060005481115b610871576040517f08c379a000000000000000000000000000000000000000000000000000000000815260206004820152602e60248201527f436f6e747261637420696e7374616e63652068617320616c726561647920626560448201527f656e20696e697469616c697a656400000000000000000000000000000000000060648201526084015b60405180910390fd5b60015460ff161580156108ae57600180547fffffffffffffffffffffffffffffffffffffffffffffffffffffffffffffff00168117905560008290555b7f000000000000000000000000000000000000000000000000000000000000000073ffffffffffffffffffffffffffffffffffffffff168d73ffffffffffffffffffffffffffffffffffffffff16146040518060400160405280600281526020017f38370000000000000000000000000000000000000000000000000000000000008152509061096b576040517f08c379a00000000000000000000000000000000000000000000000000000000081526004016108689190612fb7565b506109ab88888080601f016020809104026020016040519081016040528093929190818152602001838380828437600092019190915250611e0492505050565b6109ea86868080601f016020809104026020016040519081016040528093929190818152602001838380828437600092019190915250611e1792505050565b603980547fffffffffffffffffffffffffffffffffffffffffffffffffffffffffffffff001660ff8b16179055603c805473ffffffffffffffffffffffffffffffffffffffff808f167fffffffffffffffffffffffff000000000000000000000000000000000000000092831617909255603d80548e8416921691909117905560398054918c16610100027fffffffffffffffffffffff0000000000000000000000000000000000000000ff909216919091179055610aa7611e2a565b603b819055507f000000000000000000000000000000000000000000000000000000000000000073ffffffffffffffffffffffffffffffffffffffff168b73ffffffffffffffffffffffffffffffffffffffff167fb19e051f8af41150ccccb3fc2c2d8d15f4a4cf434f32a559ba75fe73d6eea20b8e8d8d8d8d8d8d8d8d604051610b3a9998979695949392919061339d565b60405180910390a38015610b7157600180547fffffffffffffffffffffffffffffffffffffffffffffffffffffffffffffff001690555b50505050505050505050505050565b73ffffffffffffffffffffffffffffffffffffffff81166000908152603460205260408120546fffffffffffffffffffffffffffffffff165b92915050565b600080610bcb83611eef565b73ffffffffffffffffffffffffffffffffffffffff8616600090815260356020908152604080832033808552925290912054919250610c2991879190610c24906fffffffffffffffffffffffffffffffff861690613447565b611d47565b610c34858583611f95565b506001949350505050565b60007f000000000000000000000000000000000000000000000000000000000000000073ffffffffffffffffffffffffffffffffffffffff1663707cd7166040518163ffffffff1660e01b8152600401602060405180830381865afa158015610cac573d6000803e3d6000fd5b505050506040513d601f19601f82011682018060405250810190610cd0919061345e565b6040517f7be53ca100000000000000000000000000000000000000000000000000000000815233600482015290915073ffffffffffffffffffffffffffffffffffffffff821690637be53ca190602401602060405180830381865afa158015610d3d573d6000803e3d6000fd5b505050506040513d601f19601f82011682018060405250810190610d61919061347b565b6040518060400160405280600181526020017f310000000000000000000000000000000000000000000000000000000000000081525090610dcf576040517f08c379a00000000000000000000000000000000000000000000000000000000081526004016108689190612fb7565b50603d546040517f5c19a95c00000000000000000000000000000000000000000000000000000000815273ffffffffffffffffffffffffffffffffffffffff848116600483015290911690635c19a95c90602401600060405180830381600087803b158015610e3d57600080fd5b505af1158015610e51573d6000803e3d6000fd5b505060405173ffffffffffffffffffffffffffffffffffffffff851692507fc7a5523bfd09724fd56950e708e523ad6a61ab165b8e997a31d42357a77f0e0f9150600090a25050565b6000610ea4611fb4565b905090565b33600081815260356020908152604080832073ffffffffffffffffffffffffffffffffffffffff8716845290915281205490916106db918590610c2490869061349d565b60408051808201909152600281527f32330000000000000000000000000000000000000000000000000000000000006020820152337f000000000000000000000000000000000000000000000000000000000000000073ffffffffffffffffffffffffffffffffffffffff1614610f91576040517f08c379a00000000000000000000000000000000000000000000000000000000081526004016108689190612fb7565b50603d54610fb69073ffffffffffffffffffffffffffffffffffffffff168383611fed565b5050565b603d546040517fd15e005300000000000000000000000000000000000000000000000000000000815273ffffffffffffffffffffffffffffffffffffffff9182166004820152600091610bb9917f00000000000000000000000000000000000000000000000000000000000000009091169063d15e005390602401602060405180830381865afa158015611052573d6000803e3d6000fd5b505050506040513d601f19601f82011682018060405250810190611076919061333b565b73ffffffffffffffffffffffffffffffffffffffff84166000908152603460205260409020546fffffffffffffffffffffffffffffffff165b90611dad565b60408051808201909152600281527f32330000000000000000000000000000000000000000000000000000000000006020820152337f000000000000000000000000000000000000000000000000000000000000000073ffffffffffffffffffffffffffffffffffffffff1614611159576040517f08c379a00000000000000000000000000000000000000000000000000000000081526004016108689190612fb7565b5081611163575050565b603c546111a9907f00000000000000000000000000000000000000000000000000000000000000009073ffffffffffffffffffffffffffffffffffffffff1684846120c0565b505050565b73ffffffffffffffffffffffffffffffffffffffff81166000908152603a6020526040812054610bb9565b60408051808201909152600281527f32330000000000000000000000000000000000000000000000000000000000006020820152337f000000000000000000000000000000000000000000000000000000000000000073ffffffffffffffffffffffffffffffffffffffff16146111a9576040517f08c379a00000000000000000000000000000000000000000000000000000000081526004016108689190612fb7565b60606038805461064b906132ed565b33600081815260356020908152604080832073ffffffffffffffffffffffffffffffffffffffff8716845290915281205490916106db918590610c24908690613447565b6000806112dc83611eef565b90506112e9338583611f95565b5060019392505050565b6000610ea460365490565b60408051808201909152600281527f32330000000000000000000000000000000000000000000000000000000000006020820152600090337f000000000000000000000000000000000000000000000000000000000000000073ffffffffffffffffffffffffffffffffffffffff16146113a5576040517f08c379a00000000000000000000000000000000000000000000000000000000081526004016108689190612fb7565b506113b2858585856120c0565b95945050505050565b60007f000000000000000000000000000000000000000000000000000000000000000073ffffffffffffffffffffffffffffffffffffffff1663707cd7166040518163ffffffff1660e01b8152600401602060405180830381865afa158015611428573d6000803e3d6000fd5b505050506040513d601f19601f8201168201806040525081019061144c919061345e565b6040517f7be53ca100000000000000000000000000000000000000000000000000000000815233600482015290915073ffffffffffffffffffffffffffffffffffffffff821690637be53ca190602401602060405180830381865afa1580156114b9573d6000803e3d6000fd5b505050506040513d601f19601f820116820180604052508101906114dd919061347b565b6040518060400160405280600181526020017f31000000000000000000000000000000000000000000000000000000000000008152509061154b576040517f08c379a00000000000000000000000000000000000000000000000000000000081526004016108689190612fb7565b50603d5460408051808201909152600281527f383500000000000000000000000000000000000000000000000000000000000060208201529073ffffffffffffffffffffffffffffffffffffffff868116911614156115d7576040517f08c379a00000000000000000000000000000000000000000000000000000000081526004016108689190612fb7565b506115f973ffffffffffffffffffffffffffffffffffffffff85168484611fed565b50505050565b60408051808201909152600281527f3737000000000000000000000000000000000000000000000000000000000000602082015273ffffffffffffffffffffffffffffffffffffffff8816611681576040517f08c379a00000000000000000000000000000000000000000000000000000000081526004016108689190612fb7565b50834211156040518060400160405280600281526020017f3738000000000000000000000000000000000000000000000000000000000000815250906116f4576040517f08c379a00000000000000000000000000000000000000000000000000000000081526004016108689190612fb7565b5073ffffffffffffffffffffffffffffffffffffffff87166000908152603a602052604081205490611724610e9a565b604080517f6e71edae12b1b97f4d1f60370fef10105fa2faae0126114a169c64845d6126c9602082015273ffffffffffffffffffffffffffffffffffffffff808d1692820192909252908a1660608201526080810189905260a0810184905260c0810188905260e001604051602081830303815290604052805190602001206040516020016117e59291907f190100000000000000000000000000000000000000000000000000000000000081526002810192909252602282015260420190565b604080517fffffffffffffffffffffffffffffffffffffffffffffffffffffffffffffffe081840301815282825280516020918201206000845290830180835281905260ff8816918301919091526060820186905260808201859052915060019060a0016020604051602081039080840390855afa15801561186b573d6000803e3d6000fd5b5050506020604051035173ffffffffffffffffffffffffffffffffffffffff168973ffffffffffffffffffffffffffffffffffffffff16146040518060400160405280600281526020017f373900000000000000000000000000000000000000000000000000000000000081525090611911576040517f08c379a00000000000000000000000000000000000000000000000000000000081526004016108689190612fb7565b5061191d82600161349d565b73ffffffffffffffffffffffffffffffffffffffff8a166000908152603a602052604090205561194e898989611d47565b505050505050505050565b60408051808201909152600281527f32330000000000000000000000000000000000000000000000000000000000006020820152337f000000000000000000000000000000000000000000000000000000000000000073ffffffffffffffffffffffffffffffffffffffff16146119fd576040517f08c379a00000000000000000000000000000000000000000000000000000000081526004016108689190612fb7565b50611a0a84848484612301565b73ffffffffffffffffffffffffffffffffffffffff831630146115f957603d546115f99073ffffffffffffffffffffffffffffffffffffffff168484611fed565b60007f000000000000000000000000000000000000000000000000000000000000000073ffffffffffffffffffffffffffffffffffffffff1663707cd7166040518163ffffffff1660e01b8152600401602060405180830381865afa158015611ab8573d6000803e3d6000fd5b505050506040513d601f19601f82011682018060405250810190611adc919061345e565b6040517f7be53ca100000000000000000000000000000000000000000000000000000000815233600482015290915073ffffffffffffffffffffffffffffffffffffffff821690637be53ca190602401602060405180830381865afa158015611b49573d6000803e3d6000fd5b505050506040513d601f19601f82011682018060405250810190611b6d919061347b565b6040518060400160405280600181526020017f310000000000000000000000000000000000000000000000000000000000000081525090611bdb576040517f08c379a00000000000000000000000000000000000000000000000000000000081526004016108689190612fb7565b50506039805473ffffffffffffffffffffffffffffffffffffffff909216610100027fffffffffffffffffffffff0000000000000000000000000000000000000000ff909216919091179055565b60408051808201909152600281527f32330000000000000000000000000000000000000000000000000000000000006020820152337f000000000000000000000000000000000000000000000000000000000000000073ffffffffffffffffffffffffffffffffffffffff1614611ccd576040517f08c379a00000000000000000000000000000000000000000000000000000000081526004016108689190612fb7565b50611cdb838383600061261f565b8173ffffffffffffffffffffffffffffffffffffffff168373ffffffffffffffffffffffffffffffffffffffff167fddf252ad1be2c89b69c2b068fc378daa952ba7f163c4a11628f55a4df523b3ef83604051611d3a91815260200190565b60405180910390a3505050565b73ffffffffffffffffffffffffffffffffffffffff83811660008181526035602090815260408083209487168084529482529182902085905590518481527f8c5be1e5ebec7d5bd14f71427d1e84f3dd0314c0f7b2291e5b200ac8c7c3b9259101611d3a565b600081157ffffffffffffffffffffffffffffffffffffffffffe6268e1b017bfe18bffffff83900484111517611de257600080fd5b506b033b2e3c9fd0803ce800000091026b019d971e4fe8401e74000000010490565b8051610fb6906037906020840190612ebc565b8051610fb6906038906020840190612ebc565b60007f8b73c3c69bb8fe3d512ecc4cf759cc79239f7b179b0ffacaa9a75d522b39400f611e556128b9565b8051602091820120604080518082018252600181527f310000000000000000000000000000000000000000000000000000000000000090840152805192830193909352918101919091527fc89efdaa54c0f20c7adf612882df0950f5a951637e0307cdcb4c672f298b8bc660608201524660808201523060a082015260c00160405160208183030381529060405280519060200120905090565b60006fffffffffffffffffffffffffffffffff821115611f91576040517f08c379a000000000000000000000000000000000000000000000000000000000815260206004820152602760248201527f53616665436173743a2076616c756520646f65736e27742066697420696e203160448201527f32382062697473000000000000000000000000000000000000000000000000006064820152608401610868565b5090565b6111a98383836fffffffffffffffffffffffffffffffff16600161261f565b60007f0000000000000000000000000000000000000000000000000000000000000000461415611fe55750603b5490565b610ea4611e2a565b6040517fa9059cbb0000000000000000000000000000000000000000000000000000000080825273ffffffffffffffffffffffffffffffffffffffff84166004830152602482018390529060008060448382895af1612050573d6000803e3d6000fd5b5061205a846128c3565b6115f9576040517f08c379a000000000000000000000000000000000000000000000000000000000815260206004820152601560248201527f475076323a206661696c6564207472616e7366657200000000000000000000006044820152606401610868565b6000806120cd848461298f565b60408051808201909152600281527f323400000000000000000000000000000000000000000000000000000000000060208201529091508161213c576040517f08c379a00000000000000000000000000000000000000000000000000000000081526004016108689190612fb7565b5073ffffffffffffffffffffffffffffffffffffffff85166000908152603460205260408120546fffffffffffffffffffffffffffffffff8082169291612199918491700100000000000000000000000000000000900416611dad565b6121a38387611dad565b6121ad9190613447565b90506121b885611eef565b73ffffffffffffffffffffffffffffffffffffffff8816600090815260346020526040902080546fffffffffffffffffffffffffffffffff9283167001000000000000000000000000000000000292169190911790556122208761221b85611eef565b6129ce565b600061222c828861349d565b90508773ffffffffffffffffffffffffffffffffffffffff16600073ffffffffffffffffffffffffffffffffffffffff167fddf252ad1be2c89b69c2b068fc378daa952ba7f163c4a11628f55a4df523b3ef8360405161228e91815260200190565b60405180910390a3604080518281526020810184905290810187905273ffffffffffffffffffffffffffffffffffffffff808a1691908b16907f458f5fa412d0f69b08dd84872b0215675cc67bc1d5b6fd93300a1c3878b861969060600160405180910390a35050159695505050505050565b600061230d838361298f565b60408051808201909152600281527f323500000000000000000000000000000000000000000000000000000000000060208201529091508161237c576040517f08c379a00000000000000000000000000000000000000000000000000000000081526004016108689190612fb7565b5073ffffffffffffffffffffffffffffffffffffffff85166000908152603460205260408120546fffffffffffffffffffffffffffffffff80821692916123d9918491700100000000000000000000000000000000900416611dad565b6123e38386611dad565b6123ed9190613447565b90506123f884611eef565b73ffffffffffffffffffffffffffffffffffffffff8816600090815260346020526040902080546fffffffffffffffffffffffffffffffff9283167001000000000000000000000000000000000292169190911790556124608761245b85611eef565b612b4a565b8481111561253f5760006124748683613447565b90508773ffffffffffffffffffffffffffffffffffffffff16600073ffffffffffffffffffffffffffffffffffffffff167fddf252ad1be2c89b69c2b068fc378daa952ba7f163c4a11628f55a4df523b3ef836040516124d691815260200190565b60405180910390a3604080518281526020810184905290810186905273ffffffffffffffffffffffffffffffffffffffff89169081907f458f5fa412d0f69b08dd84872b0215675cc67bc1d5b6fd93300a1c3878b861969060600160405180910390a350612616565b600061254b8287613447565b9050600073ffffffffffffffffffffffffffffffffffffffff168873ffffffffffffffffffffffffffffffffffffffff167fddf252ad1be2c89b69c2b068fc378daa952ba7f163c4a11628f55a4df523b3ef836040516125ad91815260200190565b60405180910390a3604080518281526020810184905290810186905273ffffffffffffffffffffffffffffffffffffffff80891691908a16907f4cf25bc1d991c17529c25213d3cc0cda295eeaad5f13f361969b12ea48015f90906060015b60405180910390a3505b50505050505050565b603d546040517fd15e005300000000000000000000000000000000000000000000000000000000815273ffffffffffffffffffffffffffffffffffffffff91821660048201819052916000917f00000000000000000000000000000000000000000000000000000000000000009091169063d15e005390602401602060405180830381865afa1580156126b6573d6000803e3d6000fd5b505050506040513d601f19601f820116820180604052508101906126da919061333b565b90506000612720826110af8973ffffffffffffffffffffffffffffffffffffffff166000908152603460205260409020546fffffffffffffffffffffffffffffffff1690565b90506000612766836110af8973ffffffffffffffffffffffffffffffffffffffff166000908152603460205260409020546fffffffffffffffffffffffffffffffff1690565b9050612784888861277f61277a8a8861298f565b611eef565b612bae565b8415612851576040517fd5ed393300000000000000000000000000000000000000000000000000000000815273ffffffffffffffffffffffffffffffffffffffff858116600483015289811660248301528881166044830152606482018890526084820184905260a482018390527f0000000000000000000000000000000000000000000000000000000000000000169063d5ed39339060c401600060405180830381600087803b15801561283857600080fd5b505af115801561284c573d6000803e3d6000fd5b505050505b8673ffffffffffffffffffffffffffffffffffffffff168873ffffffffffffffffffffffffffffffffffffffff167f4beccb90f994c31aced7a23b5611020728a23d8ec5cddd1a3e9d97b96fda8666888660405161260c929190918252602082015260400190565b6060610ea461063c565b6000612903565b7f08c379a00000000000000000000000000000000000000000000000000000000060005260206004528060245250806044525060646000fd5b3d8015612942576020811461297c5761293d7f475076323a206d616c666f726d6564207472616e7366657220726573756c7400601f6128ca565b612989565b823b612973576129737f475076323a206e6f74206120636f6e747261637400000000000000000000000060146128ca565b60019150612989565b3d6000803e600051151591505b50919050565b600081156b033b2e3c9fd0803ce8000000600284041904841117156129b357600080fd5b506b033b2e3c9fd0803ce80000009190910260028204010490565b6036546129ed6fffffffffffffffffffffffffffffffff83168261349d565b60365573ffffffffffffffffffffffffffffffffffffffff83166000908152603460205260409020546fffffffffffffffffffffffffffffffff16612a3283826134b5565b73ffffffffffffffffffffffffffffffffffffffff858116600090815260346020526040902080547fffffffffffffffffffffffffffffffff00000000000000000000000000000000166fffffffffffffffffffffffffffffffff93909316929092179091556039546101009004168015612b43576040517f31873e2e00000000000000000000000000000000000000000000000000000000815273ffffffffffffffffffffffffffffffffffffffff8681166004830152602482018590526fffffffffffffffffffffffffffffffff841660448301528216906331873e2e90606401600060405180830381600087803b158015612b2f57600080fd5b505af115801561194e573d6000803e3d6000fd5b5050505050565b603654612b696fffffffffffffffffffffffffffffffff831682613447565b60365573ffffffffffffffffffffffffffffffffffffffff83166000908152603460205260409020546fffffffffffffffffffffffffffffffff16612a3283826134e9565b73ffffffffffffffffffffffffffffffffffffffff83166000908152603460205260409020546fffffffffffffffffffffffffffffffff16612bf082826134e9565b73ffffffffffffffffffffffffffffffffffffffff85811660009081526034602052604080822080547fffffffffffffffffffffffffffffffff00000000000000000000000000000000166fffffffffffffffffffffffffffffffff9586161790559186168152205416612c6483826134b5565b73ffffffffffffffffffffffffffffffffffffffff858116600090815260346020526040902080547fffffffffffffffffffffffffffffffff00000000000000000000000000000000166fffffffffffffffffffffffffffffffff93909316929092179091556039546101009004168015612e52576036546040517f31873e2e00000000000000000000000000000000000000000000000000000000815273ffffffffffffffffffffffffffffffffffffffff8881166004830152602482018390526fffffffffffffffffffffffffffffffff861660448301528316906331873e2e90606401600060405180830381600087803b158015612d6457600080fd5b505af1158015612d78573d6000803e3d6000fd5b505050508573ffffffffffffffffffffffffffffffffffffffff168773ffffffffffffffffffffffffffffffffffffffff1614612e50576040517f31873e2e00000000000000000000000000000000000000000000000000000000815273ffffffffffffffffffffffffffffffffffffffff8781166004830152602482018390526fffffffffffffffffffffffffffffffff851660448301528316906331873e2e90606401600060405180830381600087803b158015612e3757600080fd5b505af1158015612e4b573d6000803e3d6000fd5b505050505b505b6040516fffffffffffffffffffffffffffffffff8516815273ffffffffffffffffffffffffffffffffffffffff80871691908816907fddf252ad1be2c89b69c2b068fc378daa952ba7f163c4a11628f55a4df523b3ef9060200160405180910390a3505050505050565b828054612ec8906132ed565b90600052602060002090601f016020900481019282612eea5760008555612f30565b82601f10612f0357805160ff1916838001178555612f30565b82800160010185558215612f30579182015b82811115612f30578251825591602001919060010190612f15565b50611f919291505b80821115611f915760008155600101612f38565b6000815180845260005b81811015612f7257602081850181015186830182015201612f56565b81811115612f84576000602083870101525b50601f017fffffffffffffffffffffffffffffffffffffffffffffffffffffffffffffffe0169290920160200192915050565b602081526000612fca6020830184612f4c565b9392505050565b73ffffffffffffffffffffffffffffffffffffffff81168114612ff357600080fd5b50565b803561300181612fd1565b919050565b6000806040838503121561301957600080fd5b823561302481612fd1565b946020939093013593505050565b60006020828403121561304457600080fd5b8135612fca81612fd1565b803560ff8116811461300157600080fd5b60008083601f84011261307257600080fd5b50813567ffffffffffffffff81111561308a57600080fd5b6020830191508360208285010111156130a257600080fd5b9250929050565b60008060008060008060008060008060006101008c8e0312156130cb57600080fd5b6130d48c612ff6565b9a506130e260208d01612ff6565b99506130f060408d01612ff6565b98506130fe60608d01612ff6565b975061310c60808d0161304f565b965067ffffffffffffffff8060a08e0135111561312857600080fd5b6131388e60a08f01358f01613060565b909750955060c08d013581101561314e57600080fd5b61315e8e60c08f01358f01613060565b909550935060e08d013581101561317457600080fd5b506131858d60e08e01358e01613060565b81935080925050509295989b509295989b9093969950565b6000806000606084860312156131b257600080fd5b83356131bd81612fd1565b925060208401356131cd81612fd1565b929592945050506040919091013590565b600080604083850312156131f157600080fd5b50508035926020909101359150565b6000806000806080858703121561321657600080fd5b843561322181612fd1565b9350602085013561323181612fd1565b93969395505050506040820135916060013590565b600080600080600080600060e0888a03121561326157600080fd5b873561326c81612fd1565b9650602088013561327c81612fd1565b955060408801359450606088013593506132986080890161304f565b925060a0880135915060c0880135905092959891949750929550565b600080604083850312156132c757600080fd5b82356132d281612fd1565b915060208301356132e281612fd1565b809150509250929050565b600181811c9082168061330157607f821691505b60208210811415612989577f4e487b7100000000000000000000000000000000000000000000000000000000600052602260045260246000fd5b60006020828403121561334d57600080fd5b5051919050565b8183528181602085013750600060208284010152600060207fffffffffffffffffffffffffffffffffffffffffffffffffffffffffffffffe0601f840116840101905092915050565b600073ffffffffffffffffffffffffffffffffffffffff808c168352808b1660208401525060ff8916604083015260c060608301526133e060c08301888a613354565b82810360808401526133f3818789613354565b905082810360a0840152613408818587613354565b9c9b505050505050505050505050565b7f4e487b7100000000000000000000000000000000000000000000000000000000600052601160045260246000fd5b60008282101561345957613459613418565b500390565b60006020828403121561347057600080fd5b8151612fca81612fd1565b60006020828403121561348d57600080fd5b81518015158114612fca57600080fd5b600082198211156134b0576134b0613418565b500190565b60006fffffffffffffffffffffffffffffffff8083168185168083038211156134e0576134e0613418565b01949350505050565b60006fffffffffffffffffffffffffffffffff8381169083168181101561351257613512613418565b03939250505056fea26469706673582212208e6fb8b60787edcb9fb6746625bb22b1757c667c1854111770f23c7eda40032e64736f6c634300080a0033",
  "linkReferences": {},
  "deployedLinkReferences": {}
}