{"abi":[{"type":"function","name":"DELEGATION_WITH_SIG_TYPEHASH","inputs":[],"outputs":[{"name":"","type":"bytes32","internalType":"bytes32"}],"stateMutability":"view"},{"type":"function","name":"EIP712_DOMAIN","inputs":[],"outputs":[{"name":"","type":"bytes32","internalType":"bytes32"}],"stateMutability":"view"},{"type":"function","name":"PERMIT_TYPEHASH","inputs":[],"outputs":[{"name":"","type":"bytes32","internalType":"bytes32"}],"stateMutability":"view"},{"type":"function","name":"getCreditDelegationTypedDataHash","inputs":[{"name":"_del","type":"tuple","internalType":"struct EIP712SigUtils.CreditDelegation","components":[{"name":"delegatee","type":"address","internalType":"address"},{"name":"value","type":"uint256","internalType":"uint256"},{"name":"nonce","type":"uint256","internalType":"uint256"},{"name":"deadline","type":"uint256","internalType":"uint256"}]},{"name":"name","type":"bytes","internalType":"bytes"},{"name":"revision","type":"bytes","internalType":"bytes"},{"name":"contractAddress","type":"address","internalType":"address"}],"outputs":[{"name":"","type":"bytes32","internalType":"bytes32"}],"stateMutability":"view"},{"type":"function","name":"getDomainSeparator","inputs":[{"name":"name","type":"bytes","internalType":"bytes"},{"name":"revision","type":"bytes","internalType":"bytes"},{"name":"contractAddress","type":"address","internalType":"address"}],"outputs":[{"name":"","type":"bytes32","internalType":"bytes32"}],"stateMutability":"view"},{"type":"function","name":"getTypedDataHash","inputs":[{"name":"_permit","type":"tuple","internalType":"struct EIP712SigUtils.Permit","components":[{"name":"owner","type":"address","internalType":"address"},{"name":"spender","type":"address","internalType":"address"},{"name":"value","type":"uint256","internalType":"uint256"},{"name":"nonce","type":"uint256","internalType":"uint256"},{"name":"deadline","type":"uint256","internalType":"uint256"}]},{"name":"name","type":"bytes","internalType":"bytes"},{"name":"revision","type":"bytes","internalType":"bytes"},{"name":"contractAddress","type":"address","internalType":"address"}],"outputs":[{"name":"","type":"bytes32","internalType":"bytes32"}],"stateMutability":"view"}],"bytecode":{"object":"0x61061b610035600b8282823980515f1a60731461002957634e487b7160e01b5f525f60045260245ffd5b305f52607381538281f3fe730000000000000000000000000000000000000000301460806040526004361061006b575f3560e01c806330adf81f1461006f57806338731cdb146100a8578063436a01eb146100bb578063bcf0b7e3146100ce578063e1b11da4146100e1578063f3bfc73814610108575b5f80fd5b6100967f6e71edae12b1b97f4d1f60370fef10105fa2faae0126114a169c64845d6126c981565b60405190815260200160405180910390f35b6100966100b6366004610426565b61012f565b6100966100c93660046104f1565b610182565b6100966100dc366004610560565b610203565b6100967f8b73c3c69bb8fe3d512ecc4cf759cc79239f7b179b0ffacaa9a75d522b39400f81565b6100967f323db0410fecc107e39e2af5908671f4c8d106123b35a51501bb805c5fa36aa081565b5f61013b848484610182565b61014486610218565b60405161190160f01b602082015260228101929092526042820152606201604051602081830303815290604052805190602001209050949350505050565b8251602080850191909120835184830120604080517f8b73c3c69bb8fe3d512ecc4cf759cc79239f7b179b0ffacaa9a75d522b39400f9481019490945283019190915260608201524660808201526001600160a01b03821660a08201525f9060c0016040516020818303038152906040528051906020012090509392505050565b5f61020f848484610182565b610144866102b2565b80516020808301516040808501516060860151608087015192515f96610295967f6e71edae12b1b97f4d1f60370fef10105fa2faae0126114a169c64845d6126c996919591949392019586526001600160a01b0394851660208701529290931660408501526060840152608083019190915260a082015260c00190565b604051602081830303815290604052805190602001209050919050565b5f7f323db0410fecc107e39e2af5908671f4c8d106123b35a51501bb805c5fa36aa0825f01518360200151846040015185606001516040516020016102959594939291909485526001600160a01b0393909316602085015260408401919091526060830152608082015260a00190565b634e487b7160e01b5f52604160045260245ffd5b60405160a0810167ffffffffffffffff8111828210171561035957610359610322565b60405290565b6040516080810167ffffffffffffffff8111828210171561035957610359610322565b80356001600160a01b0381168114610398575f80fd5b919050565b5f82601f8301126103ac575f80fd5b813567ffffffffffffffff808211156103c7576103c7610322565b604051601f8301601f19908116603f011681019082821181831017156103ef576103ef610322565b81604052838152866020858801011115610407575f80fd5b836020870160208301375f602085830101528094505050505092915050565b5f805f8084860361010081121561043b575f80fd5b60a0811215610448575f80fd5b50610451610336565b61045a86610382565b815261046860208701610382565b60208201526040860135604082015260608601356060820152608086013560808201528094505060a085013567ffffffffffffffff808211156104a9575f80fd5b6104b58883890161039d565b945060c08701359150808211156104ca575f80fd5b506104d78782880161039d565b9250506104e660e08601610382565b905092959194509250565b5f805f60608486031215610503575f80fd5b833567ffffffffffffffff8082111561051a575f80fd5b6105268783880161039d565b9450602086013591508082111561053b575f80fd5b506105488682870161039d565b92505061055760408501610382565b90509250925092565b5f805f8084860360e0811215610574575f80fd5b6080811215610581575f80fd5b5061058a61035f565b61059386610382565b815260208601356020820152604086013560408201526060860135606082015280945050608085013567ffffffffffffffff808211156105d1575f80fd5b6105dd8883890161039d565b945060a08701359150808211156105f2575f80fd5b506105ff8782880161039d565b9250506104e660c0860161038256fea164736f6c6343000814000a","linkReferences":{}},"methodIdentifiers":{"DELEGATION_WITH_SIG_TYPEHASH()":"f3bfc738","EIP712_DOMAIN()":"e1b11da4","PERMIT_TYPEHASH()":"30adf81f","getCreditDelegationTypedDataHash(EIP712SigUtils.CreditDelegation,bytes,bytes,address)":"bcf0b7e3","getDomainSeparator(bytes,bytes,address)":"436a01eb","getTypedDataHash(EIP712SigUtils.Permit,bytes,bytes,address)":"38731cdb"},"id":393}