{"abi":[{"type":"constructor","inputs":[{"name":"provider","type":"address","internalType":"contract IPoolAddressesProvider"}],"stateMutability":"nonpayable"},{"type":"function","name":"ADDRESSES_PROVIDER","inputs":[],"outputs":[{"name":"","type":"address","internalType":"contract IPoolAddressesProvider"}],"stateMutability":"view"},{"type":"function","name":"POOL","inputs":[],"outputs":[{"name":"","type":"address","internalType":"contract IPool"}],"stateMutability":"view"},{"type":"function","name":"executeOperation","inputs":[{"name":"asset","type":"address","internalType":"address"},{"name":"amount","type":"uint256","internalType":"uint256"},{"name":"premium","type":"uint256","internalType":"uint256"},{"name":"","type":"address","internalType":"address"},{"name":"","type":"bytes","internalType":"bytes"}],"outputs":[{"name":"","type":"bool","internalType":"bool"}],"stateMutability":"nonpayable"},{"type":"function","name":"supplyAsset","inputs":[{"name":"asset","type":"address","internalType":"address"},{"name":"amount","type":"uint256","internalType":"uint256"}],"outputs":[],"stateMutability":"nonpayable"}],"bytecode":{"object":"0x60c060405234801561000f575f80fd5b506040516109f33803806109f383398101604081905261002e91610160565b80806001600160a01b03166080816001600160a01b031681525050806001600160a01b031663026b1d5f6040518163ffffffff1660e01b8152600401602060405180830381865afa158015610085573d5f803e3d5ffd5b505050506040513d601f19601f820116820180604052508101906100a99190610160565b6001600160a01b031660a0816001600160a01b03168152505050806001600160a01b031663026b1d5f6040518163ffffffff1660e01b8152600401602060405180830381865afa1580156100ff573d5f803e3d5ffd5b505050506040513d601f19601f820116820180604052508101906101239190610160565b600180546001600160a01b0319166001600160a01b039290921691909117905550610182565b6001600160a01b038116811461015d575f80fd5b50565b5f60208284031215610170575f80fd5b815161017b81610149565b9392505050565b60805160a05161084b6101a85f395f818160cf01526102db01525f6053015261084b5ff3fe608060405234801561000f575f80fd5b506004361061004a575f3560e01c80630542975c1461004e5780631416d762146100925780631b11d0ff146100a75780637535d246146100ca575b5f80fd5b6100757f000000000000000000000000000000000000000000000000000000000000000081565b6040516001600160a01b0390911681526020015b60405180910390f35b6100a56100a03660046104ed565b6100f1565b005b6100ba6100b5366004610586565b610243565b6040519015158152602001610089565b6100757f000000000000000000000000000000000000000000000000000000000000000081565b60405163140e25ad60e31b81526004810182905282906001600160a01b0382169063a0712d68906024016020604051808303815f875af1158015610137573d5f803e3d5ffd5b505050506040513d601f19601f8201168201806040525081019061015b919061064c565b5060015460405163095ea7b360e01b81526001600160a01b0391821660048201525f1960248201529082169063095ea7b3906044016020604051808303815f875af11580156101ac573d5f803e3d5ffd5b505050506040513d601f19601f820116820180604052508101906101d0919061064c565b5060015460405163617ba03760e01b81526001600160a01b038581166004830152602482018590523060448301525f60648301529091169063617ba037906084015f604051808303815f87803b158015610228575f80fd5b505af115801561023a573d5f803e3d5ffd5b50505050505050565b5f85816102508787610363565b905061025b88610378565b60405163140e25ad60e31b8152600481018790526001600160a01b0383169063a0712d68906024016020604051808303815f875af115801561029f573d5f803e3d5ffd5b505050506040513d601f19601f820116820180604052508101906102c3919061064c565b5060405163095ea7b360e01b81526001600160a01b037f0000000000000000000000000000000000000000000000000000000000000000811660048301526024820183905289169063095ea7b3906044016020604051808303815f875af1158015610330573d5f803e3d5ffd5b505050506040513d601f19601f82011682018060405250810190610354919061064c565b50600198975050505050505050565b80820182811015610372575f80fd5b92915050565b6001546040516335ea6a7560e01b81526001600160a01b0383811660048301525f9216906335ea6a75906024016101e060405180830381865afa1580156103c1573d5f803e3d5ffd5b505050506040513d601f19601f820116820180604052508101906103e59190610706565b6101008101516040516370a0823160e01b81526001600160a01b03918216600482015291925083915f918316906370a0823190602401602060405180830381865afa158015610436573d5f803e3d5ffd5b505050506040513d601f19601f8201168201806040525081019061045a9190610827565b60015460405163a415bcad60e01b81526001600160a01b03878116600483015260248201849052600260448301525f606483015230608483015292935091169063a415bcad9060a4015f604051808303815f87803b1580156104ba575f80fd5b505af11580156104cc573d5f803e3d5ffd5b5050505050505050565b6001600160a01b03811681146104ea575f80fd5b50565b5f80604083850312156104fe575f80fd5b8235610509816104d6565b946020939093013593505050565b634e487b7160e01b5f52604160045260245ffd5b6040516101e0810167ffffffffffffffff8111828210171561054f5761054f610517565b60405290565b604051601f8201601f1916810167ffffffffffffffff8111828210171561057e5761057e610517565b604052919050565b5f805f805f60a0868803121561059a575f80fd5b85356105a5816104d6565b945060208681013594506040870135935060608701356105c4816104d6565b9250608087013567ffffffffffffffff808211156105e0575f80fd5b818901915089601f8301126105f3575f80fd5b81358181111561060557610605610517565b610617601f8201601f19168501610555565b91508082528a8482850101111561062c575f80fd5b80848401858401375f848284010152508093505050509295509295909350565b5f6020828403121561065c575f80fd5b8151801515811461066b575f80fd5b9392505050565b5f60208284031215610682575f80fd5b6040516020810181811067ffffffffffffffff821117156106a5576106a5610517565b6040529151825250919050565b80516fffffffffffffffffffffffffffffffff811681146106d1575f80fd5b919050565b805164ffffffffff811681146106d1575f80fd5b805161ffff811681146106d1575f80fd5b80516106d1816104d6565b5f6101e08284031215610717575f80fd5b61071f61052b565b6107298484610672565b8152610737602084016106b2565b6020820152610748604084016106b2565b6040820152610759606084016106b2565b606082015261076a608084016106b2565b608082015261077b60a084016106b2565b60a082015261078c60c084016106d6565b60c082015261079d60e084016106ea565b60e08201526101006107b08185016106fb565b908201526101206107c28482016106fb565b908201526101406107d48482016106fb565b908201526101606107e68482016106fb565b908201526101806107f88482016106b2565b908201526101a061080a8482016106b2565b908201526101c061081c8482016106b2565b908201529392505050565b5f60208284031215610837575f80fd5b505191905056fea164736f6c6343000814000a","linkReferences":{}},"methodIdentifiers":{"ADDRESSES_PROVIDER()":"0542975c","POOL()":"7535d246","executeOperation(address,uint256,uint256,address,bytes)":"1b11d0ff","supplyAsset(address,uint256)":"1416d762"},"id":199}