{"abi":[{"type":"constructor","inputs":[{"name":"pool","type":"address","internalType":"contract IPool"}],"stateMutability":"nonpayable"},{"type":"function","name":"POOL","inputs":[],"outputs":[{"name":"","type":"address","internalType":"contract IPool"}],"stateMutability":"view"},{"type":"function","name":"encodeBorrowParams","inputs":[{"name":"asset","type":"address","internalType":"address"},{"name":"amount","type":"uint256","internalType":"uint256"},{"name":"interestRateMode","type":"uint256","internalType":"uint256"},{"name":"referralCode","type":"uint16","internalType":"uint16"}],"outputs":[{"name":"","type":"bytes32","internalType":"bytes32"}],"stateMutability":"view"},{"type":"function","name":"encodeLiquidationCall","inputs":[{"name":"collateralAsset","type":"address","internalType":"address"},{"name":"debtAsset","type":"address","internalType":"address"},{"name":"user","type":"address","internalType":"address"},{"name":"debtToCover","type":"uint256","internalType":"uint256"},{"name":"receiveAToken","type":"bool","internalType":"bool"}],"outputs":[{"name":"","type":"bytes32","internalType":"bytes32"},{"name":"","type":"bytes32","internalType":"bytes32"}],"stateMutability":"view"},{"type":"function","name":"encodeRepayParams","inputs":[{"name":"asset","type":"address","internalType":"address"},{"name":"amount","type":"uint256","internalType":"uint256"},{"name":"interestRateMode","type":"uint256","internalType":"uint256"}],"outputs":[{"name":"","type":"bytes32","internalType":"bytes32"}],"stateMutability":"view"},{"type":"function","name":"encodeRepayWithATokensParams","inputs":[{"name":"asset","type":"address","internalType":"address"},{"name":"amount","type":"uint256","internalType":"uint256"},{"name":"interestRateMode","type":"uint256","internalType":"uint256"}],"outputs":[{"name":"","type":"bytes32","internalType":"bytes32"}],"stateMutability":"view"},{"type":"function","name":"encodeRepayWithPermitParams","inputs":[{"name":"asset","type":"address","internalType":"address"},{"name":"amount","type":"uint256","internalType":"uint256"},{"name":"interestRateMode","type":"uint256","internalType":"uint256"},{"name":"deadline","type":"uint256","internalType":"uint256"},{"name":"permitV","type":"uint8","internalType":"uint8"},{"name":"permitR","type":"bytes32","internalType":"bytes32"},{"name":"permitS","type":"bytes32","internalType":"bytes32"}],"outputs":[{"name":"","type":"bytes32","internalType":"bytes32"},{"name":"","type":"bytes32","internalType":"bytes32"},{"name":"","type":"bytes32","internalType":"bytes32"}],"stateMutability":"view"},{"type":"function","name":"encodeSetUserUseReserveAsCollateral","inputs":[{"name":"asset","type":"address","internalType":"address"},{"name":"useAsCollateral","type":"bool","internalType":"bool"}],"outputs":[{"name":"","type":"bytes32","internalType":"bytes32"}],"stateMutability":"view"},{"type":"function","name":"encodeSupplyParams","inputs":[{"name":"asset","type":"address","internalType":"address"},{"name":"amount","type":"uint256","internalType":"uint256"},{"name":"referralCode","type":"uint16","internalType":"uint16"}],"outputs":[{"name":"","type":"bytes32","internalType":"bytes32"}],"stateMutability":"view"},{"type":"function","name":"encodeSupplyWithPermitParams","inputs":[{"name":"asset","type":"address","internalType":"address"},{"name":"amount","type":"uint256","internalType":"uint256"},{"name":"referralCode","type":"uint16","internalType":"uint16"},{"name":"deadline","type":"uint256","internalType":"uint256"},{"name":"permitV","type":"uint8","internalType":"uint8"},{"name":"permitR","type":"bytes32","internalType":"bytes32"},{"name":"permitS","type":"bytes32","internalType":"bytes32"}],"outputs":[{"name":"","type":"bytes32","internalType":"bytes32"},{"name":"","type":"bytes32","internalType":"bytes32"},{"name":"","type":"bytes32","internalType":"bytes32"}],"stateMutability":"view"},{"type":"function","name":"encodeWithdrawParams","inputs":[{"name":"asset","type":"address","internalType":"address"},{"name":"amount","type":"uint256","internalType":"uint256"}],"outputs":[{"name":"","type":"bytes32","internalType":"bytes32"}],"stateMutability":"view"}],"bytecode":{"object":"0x60a060405234801561000f575f80fd5b50604051610f56380380610f5683398101604081905261002e9161003f565b6001600160a01b031660805261006c565b5f6020828403121561004f575f80fd5b81516001600160a01b0381168114610065575f80fd5b9392505050565b608051610e936100c35f395f818161010b015281816101ef015281816102bc0152818161038501528181610467015281816104fe015281816105f0015281816106cc0152818161078301526108270152610e935ff3fe608060405234801561000f575f80fd5b506004361061009b575f3560e01c80638da7fb18116100635780638da7fb181461016d5780639d2ffc1b14610180578063b76398e414610193578063fc0eed85146101a6578063fed63a93146101b9575f80fd5b80631a64acf21461009f5780635cc7bc10146100c5578063671a7fae146100d85780637535d2461461010657806388d5185214610145575b5f80fd5b6100b26100ad366004610a5d565b6101cc565b6040519081526020015b60405180910390f35b6100b26100d3366004610aa4565b610299565b6100eb6100e6366004610ae3565b61035e565b604080519384526020840192909252908201526060016100bc565b61012d7f000000000000000000000000000000000000000000000000000000000000000081565b6040516001600160a01b0390911681526020016100bc565b610158610153366004610b5b565b610442565b604080519283526020830191909152016100bc565b6100b261017b366004610bbb565b6105b9565b6100b261018e366004610bbb565b6105cd565b6100b26101a1366004610bed565b6106a9565b6100b26101b4366004610c2c565b610760565b6100eb6101c7366004610c5f565b610800565b6040516335ea6a7560e01b81526001600160a01b0385811660048301525f9182917f000000000000000000000000000000000000000000000000000000000000000016906335ea6a75906024016101e060405180830381865afa158015610235573d5f803e3d5ffd5b505050506040513d601f19601f820116820180604052508101906102599190610d65565b60e08101519091505f61026b87610902565b90505f61027787610973565b60109290921b60909290921b60989690961b9590950101019695505050505050565b6040516335ea6a7560e01b81526001600160a01b0383811660048301525f9182917f000000000000000000000000000000000000000000000000000000000000000016906335ea6a75906024016101e060405180830381865afa158015610302573d5f803e3d5ffd5b505050506040513d601f19601f820116820180604052508101906103269190610d65565b60e08101519091505f5f1985146103455761034085610902565b61034e565b6001600160801b035b60101b9190910195945050505050565b6040516335ea6a7560e01b81526001600160a01b0388811660048301525f918291829182917f000000000000000000000000000000000000000000000000000000000000000016906335ea6a75906024016101e060405180830381865afa1580156103cb573d5f803e3d5ffd5b505050506040513d601f19601f820116820180604052508101906103ef9190610d65565b60e08101519091505f6104018c610902565b90505f61040d8b6109d3565b90505f8a60c01b8260a01b018d60901b018360101b0184019050808a8a97509750975050505050509750975097945050505050565b6040516335ea6a7560e01b81526001600160a01b0386811660048301525f91829182917f0000000000000000000000000000000000000000000000000000000000000000909116906335ea6a75906024016101e060405180830381865afa1580156104af573d5f803e3d5ffd5b505050506040513d601f19601f820116820180604052508101906104d39190610d65565b60e08101516040516335ea6a7560e01b81526001600160a01b038a8116600483015292935090915f917f0000000000000000000000000000000000000000000000000000000000000000909116906335ea6a75906024016101e060405180830381865afa158015610546573d5f803e3d5ffd5b505050506040513d601f19601f8201168201806040525081019061056a9190610d65565b60e08101519091505f5f1989146105895761058489610902565b610592565b6001600160801b035b60109290921b9390930160208a901b019550608087901b0193505050509550959350505050565b5f6105c58484846105cd565b949350505050565b6040516335ea6a7560e01b81526001600160a01b0384811660048301525f9182917f000000000000000000000000000000000000000000000000000000000000000016906335ea6a75906024016101e060405180830381865afa158015610636573d5f803e3d5ffd5b505050506040513d601f19601f8201168201806040525081019061065a9190610d65565b60e08101519091505f5f1986146106795761067486610902565b610682565b6001600160801b035b90505f61068e86610973565b60901b60109290921b91909101919091019695505050505050565b6040516335ea6a7560e01b81526001600160a01b0384811660048301525f9182917f000000000000000000000000000000000000000000000000000000000000000016906335ea6a75906024016101e060405180830381865afa158015610712573d5f803e3d5ffd5b505050506040513d601f19601f820116820180604052508101906107369190610d65565b60e08101519091505f61074886610902565b60101b609086901b0191909101925050509392505050565b6040516335ea6a7560e01b81526001600160a01b0383811660048301525f9182917f000000000000000000000000000000000000000000000000000000000000000016906335ea6a75906024016101e060405180830381865afa1580156107c9573d5f803e3d5ffd5b505050506040513d601f19601f820116820180604052508101906107ed9190610d65565b60e00151601084901b0191505092915050565b6040516335ea6a7560e01b81526001600160a01b0388811660048301525f918291829182917f000000000000000000000000000000000000000000000000000000000000000016906335ea6a75906024016101e060405180830381865afa15801561086d573d5f803e3d5ffd5b505050506040513d601f19601f820116820180604052508101906108919190610d65565b60e08101519091505f5f198c146108b0576108ab8c610902565b6108b9565b6001600160801b035b90505f6108c58c610973565b90505f6108d18c6109d3565b60b89b909b1b60989b909b1b9a909a0160909190911b0160109190911b01019b959a50939850939650505050505050565b5f6001600160801b0382111561096f5760405162461bcd60e51b815260206004820152602760248201527f53616665436173743a2076616c756520646f65736e27742066697420696e20316044820152663238206269747360c81b60648201526084015b60405180910390fd5b5090565b5f60ff82111561096f5760405162461bcd60e51b815260206004820152602560248201527f53616665436173743a2076616c756520646f65736e27742066697420696e2038604482015264206269747360d81b6064820152608401610966565b5f63ffffffff82111561096f5760405162461bcd60e51b815260206004820152602660248201527f53616665436173743a2076616c756520646f65736e27742066697420696e203360448201526532206269747360d01b6064820152608401610966565b6001600160a01b0381168114610a4b575f80fd5b50565b61ffff81168114610a4b575f80fd5b5f805f8060808587031215610a70575f80fd5b8435610a7b81610a37565b935060208501359250604085013591506060850135610a9981610a4e565b939692955090935050565b5f8060408385031215610ab5575f80fd5b8235610ac081610a37565b946020939093013593505050565b803560ff81168114610ade575f80fd5b919050565b5f805f805f805f60e0888a031215610af9575f80fd5b8735610b0481610a37565b9650602088013595506040880135610b1b81610a4e565b945060608801359350610b3060808901610ace565b925060a0880135915060c0880135905092959891949750929550565b80358015158114610ade575f80fd5b5f805f805f60a08688031215610b6f575f80fd5b8535610b7a81610a37565b94506020860135610b8a81610a37565b93506040860135610b9a81610a37565b925060608601359150610baf60808701610b4c565b90509295509295909350565b5f805f60608486031215610bcd575f80fd5b8335610bd881610a37565b95602085013595506040909401359392505050565b5f805f60608486031215610bff575f80fd5b8335610c0a81610a37565b9250602084013591506040840135610c2181610a4e565b809150509250925092565b5f8060408385031215610c3d575f80fd5b8235610c4881610a37565b9150610c5660208401610b4c565b90509250929050565b5f805f805f805f60e0888a031215610c75575f80fd5b8735610c8081610a37565b9650602088013595506040880135945060608801359350610b3060808901610ace565b6040516101e0810167ffffffffffffffff81118282101715610cd357634e487b7160e01b5f52604160045260245ffd5b60405290565b5f60208284031215610ce9575f80fd5b6040516020810181811067ffffffffffffffff82111715610d1857634e487b7160e01b5f52604160045260245ffd5b6040529151825250919050565b80516001600160801b0381168114610ade575f80fd5b805164ffffffffff81168114610ade575f80fd5b8051610ade81610a4e565b8051610ade81610a37565b5f6101e08284031215610d76575f80fd5b610d7e610ca3565b610d888484610cd9565b8152610d9660208401610d25565b6020820152610da760408401610d25565b6040820152610db860608401610d25565b6060820152610dc960808401610d25565b6080820152610dda60a08401610d25565b60a0820152610deb60c08401610d3b565b60c0820152610dfc60e08401610d4f565b60e0820152610100610e0f818501610d5a565b90820152610120610e21848201610d5a565b90820152610140610e33848201610d5a565b90820152610160610e45848201610d5a565b90820152610180610e57848201610d25565b908201526101a0610e69848201610d25565b908201526101c0610e7b848201610d25565b90820152939250505056fea164736f6c6343000814000a","linkReferences":{}},"methodIdentifiers":{"POOL()":"7535d246","encodeBorrowParams(address,uint256,uint256,uint16)":"1a64acf2","encodeLiquidationCall(address,address,address,uint256,bool)":"88d51852","encodeRepayParams(address,uint256,uint256)":"9d2ffc1b","encodeRepayWithATokensParams(address,uint256,uint256)":"8da7fb18","encodeRepayWithPermitParams(address,uint256,uint256,uint256,uint8,bytes32,bytes32)":"fed63a93","encodeSetUserUseReserveAsCollateral(address,bool)":"fc0eed85","encodeSupplyParams(address,uint256,uint16)":"b76398e4","encodeSupplyWithPermitParams(address,uint256,uint16,uint256,uint8,bytes32,bytes32)":"671a7fae","encodeWithdrawParams(address,uint256)":"5cc7bc10"},"id":130}