{"abi":[{"type":"function","name":"CLOSE_FACTOR_HF_THRESHOLD","inputs":[],"outputs":[{"name":"","type":"uint256","internalType":"uint256"}],"stateMutability":"view"},{"type":"function","name":"MAX_LIQUIDATION_CLOSE_FACTOR","inputs":[],"outputs":[{"name":"","type":"uint256","internalType":"uint256"}],"stateMutability":"view"},{"type":"event","name":"IsolationModeTotalDebtUpdated","inputs":[{"name":"asset","type":"address","indexed":true,"internalType":"address"},{"name":"totalDebt","type":"uint256","indexed":false,"internalType":"uint256"}],"anonymous":false},{"type":"event","name":"LiquidationCall","inputs":[{"name":"collateralAsset","type":"address","indexed":true,"internalType":"address"},{"name":"debtAsset","type":"address","indexed":true,"internalType":"address"},{"name":"user","type":"address","indexed":true,"internalType":"address"},{"name":"debtToCover","type":"uint256","indexed":false,"internalType":"uint256"},{"name":"liquidatedCollateralAmount","type":"uint256","indexed":false,"internalType":"uint256"},{"name":"liquidator","type":"address","indexed":false,"internalType":"address"},{"name":"receiveAToken","type":"bool","indexed":false,"internalType":"bool"}],"anonymous":false},{"type":"event","name":"ReserveDataUpdated","inputs":[{"name":"reserve","type":"address","indexed":true,"internalType":"address"},{"name":"liquidityRate","type":"uint256","indexed":false,"internalType":"uint256"},{"name":"stableBorrowRate","type":"uint256","indexed":false,"internalType":"uint256"},{"name":"variableBorrowRate","type":"uint256","indexed":false,"internalType":"uint256"},{"name":"liquidityIndex","type":"uint256","indexed":false,"internalType":"uint256"},{"name":"variableBorrowIndex","type":"uint256","indexed":false,"internalType":"uint256"}],"anonymous":false},{"type":"event","name":"ReserveUsedAsCollateralDisabled","inputs":[{"name":"reserve","type":"address","indexed":true,"internalType":"address"},{"name":"user","type":"address","indexed":true,"internalType":"address"}],"anonymous":false},{"type":"event","name":"ReserveUsedAsCollateralEnabled","inputs":[{"name":"reserve","type":"address","indexed":true,"internalType":"address"},{"name":"user","type":"address","indexed":true,"internalType":"address"}],"anonymous":false}],"bytecode":{"object":"0x612e0b610035600b8282823980515f1a60731461002957634e487b7160e01b5f525f60045260245ffd5b305f52607381538281f3fe730000000000000000000000000000000000000000301460806040526004361061004a575f3560e01c806383c1087d1461004e578063a18964a51461006f578063d246754414610090575b5f80fd5b818015610059575f80fd5b5061006d610068366004612aa8565b610099565b005b61007e670d2f13f7789f000081565b60405190815260200160405180910390f35b61007e61271081565b6100a1612960565b6040808301516001600160a01b039081165f908152602089815283822060608701518416835284832060808801519094168352908890529290206100e482610745565b61010085018190526100f7908390610868565b6101618989886040518060a00160405280866040518060200160405290815f8201548152505081526020018a5f015181526020018a608001516001600160a01b031681526020018a60c001516001600160a01b031681526020018a60e0015160ff168152506108c0565b5060a08901819052610100890151610180955093508992509050610d6b565b8560200186604001828152508281525050506101d981848460405180608001604052808961010001518152602001896020015181526020018960a0015181526020018a61010001516001600160a01b0316815250610e39565b60048301546001600160a01b031660e08086019190915285015160ff1615801590610242575060e085015160ff165f90815260208790526040902054600384015461024291660100000000000090046001600160801b031690600160a81b900461ffff166111a1565b156102735760e085015160ff165f90815260208790526040902054640100000000900461ffff166080850152610291565b604080516020808201909252845490819052901c61ffff1660808501525b60e084015160808601516040516370a0823160e01b81526001600160a01b0391821660048201529116906370a0823190602401602060405180830381865afa1580156102df573d5f803e3d5ffd5b505050506040513d601f19601f820116820180604052508101906103039190612b8e565b808552610100850151604080880151606089015191880151608089015160c08b0151610335968a9695939290916111f7565b60c087015260408601819052606086019190915260208501510361036f57600382015461036f908290600160a81b900461ffff165f6114f7565b835160c085015160608601516103859190612bb9565b036103ef5760038301546103a6908290600160a81b900461ffff165f611557565b84608001516001600160a01b031685604001516001600160a01b03167f44c58d81365b66dd4b1a7f36c25aa97b8c71c361ee4937adc1a00000227db5dd60405160405180910390a35b6103f985856115ab565b6101008401516060860151604086015161041792859290915f61164a565b61042d8989838761010001518860400151611947565b8460a001511561044a57610445898989868989611acf565b610455565b610455838686611c55565b60c0840151156105fb575f61046984611cfe565b90505f610483828760c00151611d6790919063ffffffff16565b60e08701516080890151604051630ed1279f60e11b81526001600160a01b0391821660048201529293505f92911690631da24f3e90602401602060405180830381865afa1580156104d6573d5f803e3d5ffd5b505050506040513d601f19601f820116820180604052508101906104fa9190612b8e565b9050808211156105145761050e8184611da4565b60c08801525b8660e001516001600160a01b031663f866c31989608001518960e001516001600160a01b031663ae1673356040518163ffffffff1660e01b8152600401602060405180830381865afa15801561056c573d5f803e3d5ffd5b505050506040513d601f19601f820116820180604052508101906105909190612bcc565b60c08b01516040516001600160e01b031960e086901b1681526001600160a01b03938416600482015292909116602483015260448201526064015f604051808303815f87803b1580156105e1575f80fd5b505af11580156105f3573d5f803e3d5ffd5b505050505050505b61062d338561010001516101400151866040015188606001516001600160a01b0316611de6909392919063ffffffff16565b6101008401516101400151608086015160408087015190516337ecbb3b60e11b81523360048201526001600160a01b0392831660248201526044810191909152911690636fd97676906064015f604051808303815f87803b158015610690575f80fd5b505af11580156106a2573d5f803e3d5ffd5b5050505084608001516001600160a01b031685606001516001600160a01b031686604001516001600160a01b03167fe413a321e8681d831f4dbccbca790d2952b56f977908e45be37335533e00528687604001518860600151338b60a00151604051610732949392919093845260208401929092526001600160a01b031660408301521515606082015260800190565b60405180910390a4505050505050505050565b61074d6129b2565b6107556129b2565b6040805160208101825284548152610120830181905251901c61ffff1661010082015260018301546001600160801b0380821660608401819052604080850191909152600286015480831660a086018190526080860152600160801b93849004831660c086015283900490911660e08401526004808601546001600160a01b03908116610140860152600687015416610160850181905260038701549390930464ffffffffff16610180850152815163b1bf962d60e01b8152915163b1bf962d9280830192602092918290030181865afa158015610835573d5f803e3d5ffd5b505050506040513d601f19601f820116820180604052508101906108599190612b8e565b60208201819052815292915050565b600382015464ffffffffff428116600160801b9092041603610888575050565b6108928282611e85565b61089c8282611f5c565b50600301805464ffffffffff60801b1916600160801b4264ffffffffff1602179055565b5f805f805f806108d2875f0151511590565b156108ee57505f94508493508392508291505f19905081610d5e565b6109716040518061022001604052805f81526020015f81526020015f81526020015f81526020015f81526020015f81526020015f81526020015f81526020015f81526020015f81526020015f81526020015f81526020015f81526020015f81526020015f6001600160a01b031681526020015f151581526020015f151581525090565b608088015160ff16156109be5760808801805160ff9081165f90815260208c815260408083205461ffff908116610180880152945190931682528c90522054620100009004166101a08201525b87602001518160c001511015610c835760c081015188516109de91612026565b6109f25760c08101805160010190526109be565b60c08101515f90815260208b905260409020546001600160a01b03166101c08201819052610a2a5760c08101805160010190526109be565b6101c0810180516001600160a01b039081165f90815260208e81526040918290208251808301845281549081905260ff603082901c16606080890182905261ffff601084901c811660a08b01529092166080890152600a0a838801528d01519451835163b3596f0760e01b81529085166004820152925190949093169263b3596f079260248082019392918290030181865afa158015610acc573d5f803e3d5ffd5b505050506040513d601f19601f82011682018060405250810190610af09190612b8e565b825260a082015115801590610b10575060c08201518951610b1091612075565b15610c3057610b2c896040015182845f015185602001516120c3565b6040830181905261010083018051610b45908390612bb9565b905250608089015160ff1615801590610b915750608089015160ff165f90815260208b9052604090205460c0830151610b9191660100000000000090046001600160801b0316906111a1565b1515610200830152608082015115610be757816102000151610bb7578160800151610bbe565b8161018001515b8260400151610bcd9190612be7565b8261014001818151610bdf9190612bb9565b905250610bf0565b60016101e08301525b816102000151610c04578160a00151610c0b565b816101a001515b8260400151610c1a9190612be7565b8261016001818151610c2c9190612bb9565b9052505b60c08201518951610c4091612174565b15610c7257610c5c896040015182845f015185602001516121c0565b8261012001818151610c6e9190612bb9565b9052505b5060c08101805160010190526109be565b8061010001515f03610c95575f610cb0565b80610100015181610140015181610cae57610cae612bfe565b045b6101408201526101008101515f03610cc8575f610ce3565b80610100015181610160015181610ce157610ce1612bfe565b045b61016082015261012081015115610d2557610d20816101200151610d1a83610160015184610100015161227d90919063ffffffff16565b906122a1565b610d28565b5f195b60e082018190526101008201516101208301516101408401516101608501516101e090950151929a509098509650919450925090505b9499939850945094509450565b61016083015160808301516040516370a0823160e01b81526001600160a01b0391821660048201525f92839283929116906370a0823190602401602060405180830381865afa158015610dc0573d5f803e3d5ffd5b505050506040513d601f19601f82011682018060405250810190610de49190612b8e565b90505f670d2f13f7789f00008511610dfe57612710610e02565b6113885b90505f610e0f838361227d565b90505f81886020015111610e27578760200151610e29565b815b9399939850929650505050505050565b6040805160a0810182525f80825260208083018281528385018381526060850184815260808601949094528551928301909552875491829052671000000000000000808316151590915267010000000000000091821615801580865287516101200151519283161515909452911615159093529091610eb9575080604001515b60405180604001604052806002815260200161323760f01b81525090610efb5760405162461bcd60e51b8152600401610ef29190612c12565b60405180910390fd5b508060200151158015610f1057508060600151155b60405180604001604052806002815260200161323960f01b81525090610f495760405162461bcd60e51b8152600401610ef29190612c12565b5060608201516001600160a01b03161580610f6f5750670d2f13f7789f00008260400151105b80610fd9575081606001516001600160a01b0316637a5d20ea6040518163ffffffff1660e01b8152600401602060405180830381865afa158015610fb5573d5f803e3d5ffd5b505050506040513d601f19601f82011682018060405250810190610fd99190612c5d565b60405180604001604052806002815260200161353960f01b815250906110125760405162461bcd60e51b8152600401610ef29190612c12565b50600384015464ffffffffff428116600160b81b9092041610801561104b5750600383015464ffffffffff428116600160b81b90920416105b60405180604001604052806002815260200161393760f01b815250906110845760405162461bcd60e51b8152600401610ef29190612c12565b50670de0b6b3a764000082604001511060405180604001604052806002815260200161343560f01b815250906110cd5760405162461bcd60e51b8152600401610ef29190612c12565b50604080516020810190915284549081905260101c61ffff16158015906111175750600384015460408051602081019091528654815261111791600160a81b900461ffff16612075565b1515608082018190526040805180820190915260028152611a1b60f11b6020820152906111575760405162461bcd60e51b8152600401610ef29190612c12565b5081602001515f141560405180604001604052806002815260200161343760f01b815250906111995760405162461bcd60e51b8152600401610ef29190612c12565b505050505050565b6040805180820190915260028152610dcd60f21b60208201525f90608083106111dd5760405162461bcd60e51b8152600401610ef29190612c12565b505060016001600160801b038316821c1615155b92915050565b5f805f611258604051806101a001604052805f81526020015f81526020015f81526020015f81526020015f81526020015f81526020015f81526020015f81526020015f81526020015f81526020015f81526020015f81526020015f81525090565b60405163b3596f0760e01b81526001600160a01b038b8116600483015286169063b3596f0790602401602060405180830381865afa15801561129c573d5f803e3d5ffd5b505050506040513d601f19601f820116820180604052508101906112c09190612b8e565b815260405163b3596f0760e01b81526001600160a01b038a8116600483015286169063b3596f0790602401602060405180830381865afa158015611306573d5f803e3d5ffd5b505050506040513d601f19601f8201168201806040525081019061132a9190612b8e565b6020828101919091526040805191820190528c549081905260301c60ff1660c08201526101208b01515160301c60ff1660a0820181905260c0820151600a90810a60e08401520a61010082015260408051602081019091528c549081905260981c61ffff1661016082015261010081015181516113a79190612be7565b8160e001518983602001516113bc9190612be7565b6113c69190612be7565b6113d09190612c78565b606082018190526113e1908761227d565b6040820181905287101561144e57610120810187905260e081015160208201516114439188916114119190612be7565b61010084015161012085015185516114299190612be7565b6114339190612be7565b61143d9190612c78565b906122d6565b610140820152611462565b604081015161012082015261014081018890525b610160810151156114d45761012081015161147d90876122d6565b81610120015161148d9190612c97565b608082018190526101608201516114a4919061227d565b61018082018190526101208201516114bc9190612c97565b816101400151826101800151935093509350506114e9565b8061012001518161014001515f935093509350505b985098509895505050505050565b6040805180820190915260028152610dcd60f21b6020820152608083106115315760405162461bcd60e51b8152600401610ef29190612c12565b50600182811b1b811561154957835481178455611551565b835481191684555b50505050565b6040805180820190915260028152610dcd60f21b6020820152608083106115915760405162461bcd60e51b8152600401610ef29190612c12565b50600182811b81011b811561154957835481178455611551565b610100810151610160810151608084015160408085015160a0909401519051637a94c56560e11b81526001600160a01b03928316600482015260248101949094526044840152169063f5298aca906064016020604051808303815f875af1158015611618573d5f803e3d5ffd5b505050506040513d601f19601f8201168201806040525081019061163c9190612b8e565b610100909101516020015250565b5f6116668560a001518660200151611da490919063ffffffff16565b600787015460408051610100808201835260088b0154600160801b90046001600160801b03168252602080830189905282840188905260608301869052908a015160808301526001600160a01b0389811660a084015283519182019093528a54908190529394505f938493929092169163b90db31b919060c0820190600160fc1b1615151515815260098c0154600160801b90046001600160801b03166020918201526040805160e085811b6001600160e01b031916825284516004830152928401516024820152908301516044820152606083015160648201526080830151608482015260a08301516001600160a01b031660a482015260c0830151151560c482015291015160e4820152610104016040805180830381865afa158015611790573d5f803e3d5ffd5b505050506040513d601f19601f820116820180604052508101906117b49190612caa565b915091506117c1826122ff565b6001890180546001600160801b03928316600160801b0292169190911790556117e9816122ff565b6002890180546001600160801b03928316600160801b0292169190911790556040805160208101909152885481526118279051600160fc1b16151590565b156118dc5784156118845761183b856122ff565b60098901805460109061185f908490600160801b90046001600160801b0316612ccc565b92506101000a8154816001600160801b0302191690836001600160801b031602179055505b83156118dc57611893846122ff565b6009890180546010906118b7908490600160801b90046001600160801b0316612cf3565b92506101000a8154816001600160801b0302191690836001600160801b031602179055505b60608781015160a0808a0151604080518781525f602082015280820187905294850193909352608084015290516001600160a01b038916927f804c9b842b2748a22bb64b345453a3de7ca54a6ca45ce00d415894979e22897a92908290030190a25050505050505050565b6040805160208101909152835481525f90819061196590888861236b565b50915091508115611ac6576001600160a01b0381165f90815260208890526040812060090154610120860151516001600160801b0390911691906119d09060029060301c60ff166119b69190612c97565b6119c190600a612df3565b6119cb9087612c78565b6122ff565b9050806001600160801b0316826001600160801b031611611a48576001600160a01b0383165f81815260208b8152604080832060090180546001600160801b0319169055519182527faef84d3b40895fd58c561f3998000f0583abb992a52fbdc99ace8e8de4d676a5910160405180910390a2611ac3565b5f611a538284612cf3565b6001600160a01b0385165f81815260208d815260409182902060090180546001600160801b0319166001600160801b03959095169485179055905183815292935090917faef84d3b40895fd58c561f3998000f0583abb992a52fbdc99ace8e8de4d676a5910160405180910390a2505b50505b50505050505050565b60e08101516040516370a0823160e01b81523360048201525f916001600160a01b0316906370a0823190602401602060405180830381865afa158015611b17573d5f803e3d5ffd5b505050506040513d601f19601f82011682018060405250810190611b3b9190612b8e565b60e08301516080850151606085015160405163f866c31960e01b81526001600160a01b0392831660048201523360248201526044810191909152929350169063f866c319906064015f604051808303815f87803b158015611b9a575f80fd5b505af1158015611bac573d5f803e3d5ffd5b50505050805f03611ac657335f90815260208681526040918290208251918201909252855481526004860154611bf0918a918a9185916001600160a01b0316612411565b15611c4b576003850154611c12908290600160a81b900461ffff166001611557565b604080850151905133916001600160a01b0316907e058a56ea94653cdf4f152d227ace22d4c00ad99e2a43f58cb7d9e3feb295f2905f90a35b5050505050505050565b5f611c5f84610745565b9050611c6b8482610868565b60408301516060830151611c859186918491905f9061164a565b60e0820151608084015160608085015190840151604051636b81068560e11b81526001600160a01b0393841660048201523360248201526044810192909252606482015291169063d7020d0a906084015f604051808303815f87803b158015611cec575f80fd5b505af1158015611c4b573d5f803e3d5ffd5b60038101545f90600160801b900464ffffffffff16428103611d2c575050600101546001600160801b031690565b6001830154611d5a906001600160801b0380821691611d5491600160801b90910416846125fb565b90611da4565b9392505050565b50919050565b5f81156b033b2e3c9fd0803ce800000060028404190484111715611d89575f80fd5b506b033b2e3c9fd0803ce80000009190910260028204010490565b5f81156b019d971e4fe8401e740000001983900484111517611dc4575f80fd5b506b033b2e3c9fd0803ce800000091026b019d971e4fe8401e74000000010490565b6040516323b872dd60e01b8082526001600160a01b0385811660048401528416602483015260448201839052905f80606483828a5af1611e28573d5f803e3d5ffd5b50611e3285612637565b611e7e5760405162461bcd60e51b815260206004820152601960248201527f475076323a206661696c6564207472616e7366657246726f6d000000000000006044820152606401610ef2565b5050505050565b60c081015115611ef0575f611ea38260c001518361018001516125fb565b9050611ebc826040015182611da490919063ffffffff16565b60608301819052611ecc906122ff565b6001840180546001600160801b0319166001600160801b0392909216919091179055505b805115611f58575f611f0b8260e001518361018001516126d8565b9050611f24826080015182611da490919063ffffffff16565b60a08301819052611f34906122ff565b6002840180546001600160801b0319166001600160801b0392909216919091179055505b5050565b8061010001515f03611f6c575050565b608081015181515f91611f7f9190611da4565b60a083015183519192505f91611f9491611da4565b90505f611fa18383612c97565b90505f611fbc8561010001518361227d90919063ffffffff16565b9050801561119957611fde6119cb866060015183611d6790919063ffffffff16565b6008870180545f90611ffa9084906001600160801b0316612ccc565b92506101000a8154816001600160801b0302191690836001600160801b03160217905550505050505050565b6040805180820190915260028152610dcd60f21b60208201525f90608083106120625760405162461bcd60e51b8152600401610ef29190612c12565b5050905160019190911b1c600316151590565b6040805180820190915260028152610dcd60f21b60208201525f90608083106120b15760405162461bcd60e51b8152600401610ef29190612c12565b50509051600191821b82011c16151590565b5f806120ce85611cfe565b600486810154604051630ed1279f60e11b81526001600160a01b038a8116938201939093529293505f92879261214b928692911690631da24f3e90602401602060405180830381865afa158015612127573d5f803e3d5ffd5b505050506040513d601f19601f82011682018060405250810190611d549190612b8e565b6121559190612be7565b905083818161216657612166612bfe565b04925050505b949350505050565b6040805180820190915260028152610dcd60f21b60208201525f90608083106121b05760405162461bcd60e51b8152600401610ef29190612c12565b50509051600191821b1c16151590565b6006830154604051630ed1279f60e11b81526001600160a01b0386811660048301525f928392911690631da24f3e90602401602060405180830381865afa15801561220d573d5f803e3d5ffd5b505050506040513d601f19601f820116820180604052508101906122319190612b8e565b9050805f03612243575f91505061216c565b83612257612250876126e4565b8390611da4565b6122619190612be7565b905082818161227257612272612bfe565b049695505050505050565b5f81156113881983900484111517612293575f80fd5b506127109102611388010490565b5f8115670de0b6b3a7640000600284041904841117156122bf575f80fd5b50670de0b6b3a76400009190910260028204010490565b5f8115612710600284041904841117156122ee575f80fd5b506127109190910260028204010490565b5f6001600160801b038211156123675760405162461bcd60e51b815260206004820152602760248201527f53616665436173743a2076616c756520646f65736e27742066697420696e20316044820152663238206269747360c81b6064820152608401610ef2565b5090565b5f805f6123778661273a565b156123ff575f6123a7877faaaaaaaaaaaaaaaaaaaaaaaaaaaaaaaaaaaaaaaaaaaaaaaaaaaaaaaaaaaaaaaa61277d565b5f81815260208781526040808320546001600160a01b03168084528a8352818420825193840190925290549182905292935060d41c64ffffffffff16905080156123fb576001955090935091506124089050565b5050505b505f9150819050805b93509350939050565b81515f9060d41c64ffffffffff16156125e3575f826001600160a01b0316637535d2466040518163ffffffff1660e01b8152600401602060405180830381865afa158015612461573d5f803e3d5ffd5b505050506040513d601f19601f820116820180604052508101906124859190612bcc565b6001600160a01b0316630542975c6040518163ffffffff1660e01b8152600401602060405180830381865afa1580156124c0573d5f803e3d5ffd5b505050506040513d601f19601f820116820180604052508101906124e49190612bcc565b9050806001600160a01b031663707cd7166040518163ffffffff1660e01b8152600401602060405180830381865afa158015612522573d5f803e3d5ffd5b505050506040513d601f19601f820116820180604052508101906125469190612bcc565b604051632474521560e21b81527fd1d2cf869016112a9af1107bcf43c3759daf22cf734aad47d0c9c726e33bc78260048201523360248201526001600160a01b0391909116906391d1485490604401602060405180830381865afa1580156125b0573d5f803e3d5ffd5b505050506040513d601f19601f820116820180604052508101906125d49190612c5d565b6125e1575f9150506125f2565b505b6125ef868686866127a1565b90505b95945050505050565b5f8061260e64ffffffffff841642612c97565b6126189085612be7565b6301e133809004905061216c816b033b2e3c9fd0803ce8000000612bb9565b5f612659565b62461bcd60e51b5f52602060045280602452508060445260645ffd5b3d801561269857602081146126c9576126937f475076323a206d616c666f726d6564207472616e7366657220726573756c7400601f61263d565b611d61565b823b6126c0576126c07311d41d8c8e881b9bdd08184818dbdb9d1c9858dd60621b601461263d565b60019150611d61565b3d5f803e50505f511515919050565b5f611d5a83834261283b565b60038101545f90600160801b900464ffffffffff16428103612712575050600201546001600160801b031690565b6002830154611d5a906001600160801b0380821691611d5491600160801b90910416846126d8565b80515f907faaaaaaaaaaaaaaaaaaaaaaaaaaaaaaaaaaaaaaaaaaaaaaaaaaaaaaaaaaaaaaaa168015801590611d5a5750612775600182612c97565b161592915050565b81515f9082165f198101198116825b60029190911c9081156125f25760010161278c565b5f6127ae825161ffff1690565b5f036127bb57505f61216c565b60408051602081019091528354908190527faaaaaaaaaaaaaaaaaaaaaaaaaaaaaaaaaaaaaaaaaaaaaaaaaaaaaaaaaaaaaaaa166127fa5750600161216c565b6040805160208101909152835481525f9061281690878761236b565b50509050801580156128315750825160d41c64ffffffffff16155b9695505050505050565b5f8061284e64ffffffffff851684612c97565b9050805f0361286c576b033b2e3c9fd0803ce8000000915050611d5a565b5f1981015f808060028511612881575f612886565b600285035b925066038882915c400061289a8a80611da4565b816128a7576128a7612bfe565b0491506301e133806128b9838b611da4565b816128c6576128c6612bfe565b0490505f826128d58688612be7565b6128df9190612be7565b6002900490505f82856128f2888a612be7565b6128fc9190612be7565b6129069190612be7565b60069004905080826301e1338061291d8a8f612be7565b6129279190612c78565b61293d906b033b2e3c9fd0803ce8000000612bb9565b6129479190612bb9565b6129519190612bb9565b9b9a5050505050505050505050565b6040518061012001604052805f81526020015f81526020015f81526020015f81526020015f81526020015f81526020015f81526020015f6001600160a01b031681526020016129ad6129b2565b905290565b604051806101a001604052805f81526020015f81526020015f81526020015f81526020015f81526020015f81526020015f81526020015f81526020015f8152602001612a0960405180602001604052805f81525090565b81525f602082018190526040820181905260609091015290565b604051610120810167ffffffffffffffff81118282101715612a5357634e487b7160e01b5f52604160045260245ffd5b60405290565b6001600160a01b0381168114612a6d575f80fd5b50565b8035612a7b81612a59565b919050565b8015158114612a6d575f80fd5b8035612a7b81612a80565b803560ff81168114612a7b575f80fd5b5f805f805f8587036101a0811215612abe575f80fd5b8635955060208701359450604087013593506060870135925061012080607f1983011215612aea575f80fd5b612af2612a23565b91506080880135825260a08801356020830152612b1160c08901612a70565b6040830152612b2260e08901612a70565b6060830152610100612b35818a01612a70565b6080840152612b45828a01612a8d565b60a0840152612b576101408a01612a70565b60c0840152612b696101608a01612a98565b60e0840152612b7b6101808a01612a70565b9083015250949793965091945092919050565b5f60208284031215612b9e575f80fd5b5051919050565b634e487b7160e01b5f52601160045260245ffd5b808201808211156111f1576111f1612ba5565b5f60208284031215612bdc575f80fd5b8151611d5a81612a59565b80820281158282048414176111f1576111f1612ba5565b634e487b7160e01b5f52601260045260245ffd5b5f6020808352835180828501525f5b81811015612c3d57858101830151858201604001528201612c21565b505f604082860101526040601f19601f8301168501019250505092915050565b5f60208284031215612c6d575f80fd5b8151611d5a81612a80565b5f82612c9257634e487b7160e01b5f52601260045260245ffd5b500490565b818103818111156111f1576111f1612ba5565b5f8060408385031215612cbb575f80fd5b505080516020909101519092909150565b6001600160801b03818116838216019080821115612cec57612cec612ba5565b5092915050565b6001600160801b03828116828216039080821115612cec57612cec612ba5565b600181815b80851115612d4d57815f1904821115612d3357612d33612ba5565b80851615612d4057918102915b93841c9390800290612d18565b509250929050565b5f82612d63575060016111f1565b81612d6f57505f6111f1565b8160018114612d855760028114612d8f57612dab565b60019150506111f1565b60ff841115612da057612da0612ba5565b50506001821b6111f1565b5060208310610133831016604e8410600b8410161715612dce575081810a6111f1565b612dd88383612d13565b805f1904821115612deb57612deb612ba5565b029392505050565b5f611d5a8383612d5556fea164736f6c6343000814000a","linkReferences":{}},"methodIdentifiers":{"CLOSE_FACTOR_HF_THRESHOLD()":"a18964a5","MAX_LIQUIDATION_CLOSE_FACTOR()":"d2467544","executeLiquidationCall(mapping(address => DataTypes.ReserveData) storage,mapping(uint256 => address) storage,mapping(address => DataTypes.UserConfigurationMap) storage,mapping(uint8 => DataTypes.EModeCategory) storage,DataTypes.ExecuteLiquidationCallParams)":"83c1087d"},"id":228}