{"abi":[{"type":"function","name":"getGitModuleVersion","inputs":[],"outputs":[{"name":"commit","type":"string","internalType":"string"},{"name":"branch","type":"string","internalType":"string"}],"stateMutability":"nonpayable"},{"type":"function","name":"getTimestamp","inputs":[],"outputs":[{"name":"result","type":"string","internalType":"string"}],"stateMutability":"nonpayable"},{"type":"function","name":"writeJsonReportLibraryBatch1","inputs":[{"name":"libraries","type":"tuple","internalType":"struct LibrariesReport","components":[{"name":"borrowLogic","type":"address","internalType":"address"},{"name":"bridgeLogic","type":"address","internalType":"address"},{"name":"configuratorLogic","type":"address","internalType":"address"},{"name":"eModeLogic","type":"address","internalType":"address"},{"name":"flashLoanLogic","type":"address","internalType":"address"},{"name":"liquidationLogic","type":"address","internalType":"address"},{"name":"poolLogic","type":"address","internalType":"address"},{"name":"supplyLogic","type":"address","internalType":"address"}]}],"outputs":[],"stateMutability":"nonpayable"},{"type":"function","name":"writeJsonReportLibraryBatch2","inputs":[{"name":"libraries","type":"tuple","internalType":"struct LibrariesReport","components":[{"name":"borrowLogic","type":"address","internalType":"address"},{"name":"bridgeLogic","type":"address","internalType":"address"},{"name":"configuratorLogic","type":"address","internalType":"address"},{"name":"eModeLogic","type":"address","internalType":"address"},{"name":"flashLoanLogic","type":"address","internalType":"address"},{"name":"liquidationLogic","type":"address","internalType":"address"},{"name":"poolLogic","type":"address","internalType":"address"},{"name":"supplyLogic","type":"address","internalType":"address"}]}],"outputs":[],"stateMutability":"nonpayable"},{"type":"function","name":"writeJsonReportMarket","inputs":[{"name":"report","type":"tuple","internalType":"struct MarketReport","components":[{"name":"poolAddressesProviderRegistry","type":"address","internalType":"address"},{"name":"poolAddressesProvider","type":"address","internalType":"address"},{"name":"poolProxy","type":"address","internalType":"address"},{"name":"poolImplementation","type":"address","internalType":"address"},{"name":"poolConfiguratorProxy","type":"address","internalType":"address"},{"name":"poolConfiguratorImplementation","type":"address","internalType":"address"},{"name":"protocolDataProvider","type":"address","internalType":"address"},{"name":"aaveOracle","type":"address","internalType":"address"},{"name":"defaultInterestRateStrategy","type":"address","internalType":"address"},{"name":"priceOracleSentinel","type":"address","internalType":"address"},{"name":"aclManager","type":"address","internalType":"address"},{"name":"treasury","type":"address","internalType":"address"},{"name":"proxyAdmin","type":"address","internalType":"address"},{"name":"treasuryImplementation","type":"address","internalType":"address"},{"name":"wrappedTokenGateway","type":"address","internalType":"address"},{"name":"walletBalanceProvider","type":"address","internalType":"address"},{"name":"uiIncentiveDataProvider","type":"address","internalType":"address"},{"name":"uiPoolDataProvider","type":"address","internalType":"address"},{"name":"paraSwapLiquiditySwapAdapter","type":"address","internalType":"address"},{"name":"paraSwapRepayAdapter","type":"address","internalType":"address"},{"name":"paraSwapWithdrawSwapAdapter","type":"address","internalType":"address"},{"name":"aaveParaSwapFeeClaimer","type":"address","internalType":"address"},{"name":"l2Encoder","type":"address","internalType":"address"},{"name":"aToken","type":"address","internalType":"address"},{"name":"variableDebtToken","type":"address","internalType":"address"},{"name":"emissionManager","type":"address","internalType":"address"},{"name":"rewardsControllerImplementation","type":"address","internalType":"address"},{"name":"rewardsControllerProxy","type":"address","internalType":"address"},{"name":"configEngine","type":"address","internalType":"address"},{"name":"transparentProxyFactory","type":"address","internalType":"address"},{"name":"staticATokenFactoryImplementation","type":"address","internalType":"address"},{"name":"staticATokenFactoryProxy","type":"address","internalType":"address"},{"name":"staticATokenImplementation","type":"address","internalType":"address"},{"name":"revenueSplitter","type":"address","internalType":"address"}]}],"outputs":[],"stateMutability":"nonpayable"}],"bytecode":{"object":"0x608060405234801561000f575f80fd5b506130e28061001d5f395ff3fe608060405234801561000f575f80fd5b5060043610610055575f3560e01c8063188ec3561461005957806351b2199514610077578063bccf020f1461008c578063d5760b511461009f578063e993af3a146100b5575b5f80fd5b6100616100c8565b60405161006e9190611b32565b60405180910390f35b61008a610085366004611ba4565b610235565b005b61008a61009a366004611ba4565b6104e2565b6100a761072b565b60405161006e929190611c67565b61008a6100c3366004611c94565b610a01565b604080516003808252608082019092526060915f9190816020015b60608152602001906001900390816100e3579050509050604051806040016040528060048152602001630c4c2e6d60e31b815250815f8151811061012957610129611f0a565b6020026020010181905250604051806040016040528060028152602001612d6360f01b8152508160018151811061016257610162611f0a565b6020026020010181905250604051806080016040528060458152602001612fb4604591398160028151811061019957610199611f0a565b6020908102919091010152604051638916046760e01b81525f905f80516020612ff9833981519152906389160467906101d6908590600401611f1e565b5f604051808303815f875af11580156101f1573d5f803e3d5ffd5b505050506040513d5f823e601f3d908101601f191682016040526102189190810190611ff0565b90508080602001905181019061022e9190611ff0565b9250505090565b6060805f6102416100c8565b905061024b61072b565b604080518082018252600c81526b3634b116b932b837b93a169960a11b602082015260808801519151634b96303160e11b815293965091945090915f80516020612ff98339815191529163972c6062916102a991859160040161203d565b5f604051808303815f875af11580156102c4573d5f803e3d5ffd5b505050506040513d5f823e601f3d908101601f191682016040526102eb9190810190611ff0565b5060a0850151604051634b96303160e11b81525f80516020612ff98339815191529163972c60629161032191859160040161208e565b5f604051808303815f875af115801561033c573d5f803e3d5ffd5b505050506040513d5f823e601f3d908101601f191682016040526103639190810190611ff0565b5060c0850151604051634b96303160e11b81525f80516020612ff98339815191529163972c6062916103999185916004016120e1565b5f604051808303815f875af11580156103b4573d5f803e3d5ffd5b505050506040513d5f823e601f3d908101601f191682016040526103db9190810190611ff0565b5060e0850151604051634b96303160e11b81525f915f80516020612ff98339815191529163972c6062916104149186919060040161212d565b5f604051808303815f875af115801561042f573d5f803e3d5ffd5b505050506040513d5f823e601f3d908101601f191682016040526104569190810190611ff0565b6040519091505f80516020612ff98339815191529063e23cd19f90839061048190879060200161217b565b6040516020818303038152906040526040518363ffffffff1660e01b81526004016104ad929190611c67565b5f604051808303815f87803b1580156104c4575f80fd5b505af11580156104d6573d5f803e3d5ffd5b50505050505050505050565b6060805f6104ee6100c8565b90506104f861072b565b604080518082018252600c81526b6c69622d7265706f72742d3160a01b602082015287519151634b96303160e11b815293965091945090915f80516020612ff98339815191529163972c6062916105539185916004016121d3565b5f604051808303815f875af115801561056e573d5f803e3d5ffd5b505050506040513d5f823e601f3d908101601f191682016040526105959190810190611ff0565b506020850151604051634b96303160e11b81525f80516020612ff98339815191529163972c6062916105cb918591600401612221565b5f604051808303815f875af11580156105e6573d5f803e3d5ffd5b505050506040513d5f823e601f3d908101601f1916820160405261060d9190810190611ff0565b506040808601519051634b96303160e11b81525f80516020612ff98339815191529163972c60629161064391859160040161226f565b5f604051808303815f875af115801561065e573d5f803e3d5ffd5b505050506040513d5f823e601f3d908101601f191682016040526106859190810190611ff0565b506060850151604051634b96303160e11b81525f915f80516020612ff98339815191529163972c6062916106be918691906004016122c3565b5f604051808303815f875af11580156106d9573d5f803e3d5ffd5b505050506040513d5f823e601f3d908101601f191682016040526107009190810190611ff0565b6040519091505f80516020612ff98339815191529063e23cd19f908390610481908790602001612310565b6040805160038082526080820190925260609182915f91816020015b6060815260200190600190039081610747575050604080516003808252608082019092529192505f9190602082015b6060815260200190600190039081610776579050509050604051806040016040528060048152602001630c4c2e6d60e31b815250825f815181106107bc576107bc611f0a565b6020026020010181905250604051806040016040528060028152602001612d6360f01b815250826001815181106107f5576107f5611f0a565b60200260200101819052506040518060800160405280605b8152602001613019605b91398260028151811061082c5761082c611f0a565b6020908102919091010152604051638916046760e01b81525f905f80516020612ff983398151915290638916046790610869908690600401611f1e565b5f604051808303815f875af1158015610884573d5f803e3d5ffd5b505050506040513d5f823e601f3d908101601f191682016040526108ab9190810190611ff0565b9050808060200190518101906108c19190611ff0565b9450604051806040016040528060048152602001630c4c2e6d60e31b815250825f815181106108f2576108f2611f0a565b6020026020010181905250604051806040016040528060028152602001612d6360f01b8152508260018151811061092b5761092b611f0a565b60200260200101819052506040518060a0016040528060628152602001613074606291398260028151811061096257610962611f0a565b6020908102919091010152604051638916046760e01b81525f905f80516020612ff98339815191529063891604679061099f908690600401611f1e565b5f604051808303815f875af11580156109ba573d5f803e3d5ffd5b505050506040513d5f823e601f3d908101601f191682016040526109e19190810190611ff0565b9050808060200190518101906109f79190611ff0565b9450505050509091565b6060805f610a0d6100c8565b9050610a1761072b565b604080518082018252600d81526c1b585c9ad95d0b5c995c1bdc9d609a1b602082015290516388da6d3560e01b8152929550909350905f80516020612ff9833981519152906388da6d3590610a729084908890600401612368565b5f604051808303815f875af1158015610a8d573d5f803e3d5ffd5b505050506040513d5f823e601f3d908101601f19168201604052610ab49190810190611ff0565b506040516388da6d3560e01b81525f80516020612ff9833981519152906388da6d3590610ae790849087906004016123bd565b5f604051808303815f875af1158015610b02573d5f803e3d5ffd5b505050506040513d5f823e601f3d908101601f19168201604052610b299190810190611ff0565b508451604051634b96303160e11b81525f80516020612ff98339815191529163972c606291610b5c918591600401612412565b5f604051808303815f875af1158015610b77573d5f803e3d5ffd5b505050506040513d5f823e601f3d908101601f19168201604052610b9e9190810190611ff0565b506020850151604051634b96303160e11b81525f80516020612ff98339815191529163972c606291610bd4918591600401612472565b5f604051808303815f875af1158015610bef573d5f803e3d5ffd5b505050506040513d5f823e601f3d908101601f19168201604052610c169190810190611ff0565b506040808601519051634b96303160e11b81525f80516020612ff98339815191529163972c606291610c4c9185916004016124ca565b5f604051808303815f875af1158015610c67573d5f803e3d5ffd5b505050506040513d5f823e601f3d908101601f19168201604052610c8e9190810190611ff0565b506060850151604051634b96303160e11b81525f80516020612ff98339815191529163972c606291610cc4918591600401612516565b5f604051808303815f875af1158015610cdf573d5f803e3d5ffd5b505050506040513d5f823e601f3d908101601f19168201604052610d069190810190611ff0565b506080850151604051634b96303160e11b81525f80516020612ff98339815191529163972c606291610d3c91859160040161256b565b5f604051808303815f875af1158015610d57573d5f803e3d5ffd5b505050506040513d5f823e601f3d908101601f19168201604052610d7e9190810190611ff0565b5060a0850151604051634b96303160e11b81525f80516020612ff98339815191529163972c606291610db49185916004016125c3565b5f604051808303815f875af1158015610dcf573d5f803e3d5ffd5b505050506040513d5f823e601f3d908101601f19168201604052610df69190810190611ff0565b5060e0850151604051634b96303160e11b81525f80516020612ff98339815191529163972c606291610e2c918591600401612623565b5f604051808303815f875af1158015610e47573d5f803e3d5ffd5b505050506040513d5f823e601f3d908101601f19168201604052610e6e9190810190611ff0565b50610160850151604051634b96303160e11b81525f80516020612ff98339815191529163972c606291610ea5918591600401612670565b5f604051808303815f875af1158015610ec0573d5f803e3d5ffd5b505050506040513d5f823e601f3d908101601f19168201604052610ee79190810190611ff0565b50610180850151604051634b96303160e11b81525f80516020612ff98339815191529163972c606291610f1e9185916004016126bb565b5f604051808303815f875af1158015610f39573d5f803e3d5ffd5b505050506040513d5f823e601f3d908101601f19168201604052610f609190810190611ff0565b506101c0850151604051634b96303160e11b81525f80516020612ff98339815191529163972c606291610f97918591600401612708565b5f604051808303815f875af1158015610fb2573d5f803e3d5ffd5b505050506040513d5f823e601f3d908101601f19168201604052610fd99190810190611ff0565b506101e0850151604051634b96303160e11b81525f80516020612ff98339815191529163972c60629161101091859160040161275e565b5f604051808303815f875af115801561102b573d5f803e3d5ffd5b505050506040513d5f823e601f3d908101601f191682016040526110529190810190611ff0565b50610200850151604051634b96303160e11b81525f80516020612ff98339815191529163972c6062916110899185916004016127b6565b5f604051808303815f875af11580156110a4573d5f803e3d5ffd5b505050506040513d5f823e601f3d908101601f191682016040526110cb9190810190611ff0565b50610220850151604051634b96303160e11b81525f80516020612ff98339815191529163972c606291611102918591600401612816565b5f604051808303815f875af115801561111d573d5f803e3d5ffd5b505050506040513d5f823e601f3d908101601f191682016040526111449190810190611ff0565b506101a0850151604051634b96303160e11b81525f80516020612ff98339815191529163972c60629161117b91859160040161286b565b5f604051808303815f875af1158015611196573d5f803e3d5ffd5b505050506040513d5f823e601f3d908101601f191682016040526111bd9190810190611ff0565b506102c0850151604051634b96303160e11b81525f80516020612ff98339815191529163972c6062916111f49185916004016128c4565b5f604051808303815f875af115801561120f573d5f803e3d5ffd5b505050506040513d5f823e601f3d908101601f191682016040526112369190810190611ff0565b506102e0850151604051634b96303160e11b81525f80516020612ff98339815191529163972c60629161126d918591600401612910565b5f604051808303815f875af1158015611288573d5f803e3d5ffd5b505050506040513d5f823e601f3d908101601f191682016040526112af9190810190611ff0565b50610300850151604051634b96303160e11b81525f80516020612ff98339815191529163972c6062916112e6918591600401612959565b5f604051808303815f875af1158015611301573d5f803e3d5ffd5b505050506040513d5f823e601f3d908101601f191682016040526113289190810190611ff0565b50610320850151604051634b96303160e11b81525f80516020612ff98339815191529163972c60629161135f9185916004016129ad565b5f604051808303815f875af115801561137a573d5f803e3d5ffd5b505050506040513d5f823e601f3d908101601f191682016040526113a19190810190611ff0565b50610340850151604051634b96303160e11b81525f80516020612ff98339815191529163972c6062916113d89185916004016129ff565b5f604051808303815f875af11580156113f3573d5f803e3d5ffd5b505050506040513d5f823e601f3d908101601f1916820160405261141a9190810190611ff0565b50610360850151604051634b96303160e11b81525f80516020612ff98339815191529163972c606291611451918591600401612a5f565b5f604051808303815f875af115801561146c573d5f803e3d5ffd5b505050506040513d5f823e601f3d908101601f191682016040526114939190810190611ff0565b50610140850151604051634b96303160e11b81525f80516020612ff98339815191529163972c6062916114ca918591600401612ab8565b5f604051808303815f875af11580156114e5573d5f803e3d5ffd5b505050506040513d5f823e601f3d908101601f1916820160405261150c9190810190611ff0565b5060c0850151604051634b96303160e11b81525f80516020612ff98339815191529163972c606291611542918591600401612b05565b5f604051808303815f875af115801561155d573d5f803e3d5ffd5b505050506040513d5f823e601f3d908101601f191682016040526115849190810190611ff0565b50610240850151604051634b96303160e11b81525f80516020612ff98339815191529163972c6062916115bb918591600401612b5c565b5f604051808303815f875af11580156115d6573d5f803e3d5ffd5b505050506040513d5f823e601f3d908101601f191682016040526115fd9190810190611ff0565b50610280850151604051634b96303160e11b81525f80516020612ff98339815191529163972c606291611634918591600401612bbc565b5f604051808303815f875af115801561164f573d5f803e3d5ffd5b505050506040513d5f823e601f3d908101601f191682016040526116769190810190611ff0565b506102a0850151604051634b96303160e11b81525f80516020612ff98339815191529163972c6062916116ad918591600401612c1c565b5f604051808303815f875af11580156116c8573d5f803e3d5ffd5b505050506040513d5f823e601f3d908101601f191682016040526116ef9190810190611ff0565b50610100850151604051634b96303160e11b81525f80516020612ff98339815191529163972c606291611726918591600401612c75565b5f604051808303815f875af1158015611741573d5f803e3d5ffd5b505050506040513d5f823e601f3d908101601f191682016040526117689190810190611ff0565b50610120850151604051634b96303160e11b81525f80516020612ff98339815191529163972c60629161179f918591600401612cd5565b5f604051808303815f875af11580156117ba573d5f803e3d5ffd5b505050506040513d5f823e601f3d908101601f191682016040526117e19190810190611ff0565b50610380850151604051634b96303160e11b81525f80516020612ff98339815191529163972c606291611818918591600401612d2b565b5f604051808303815f875af1158015611833573d5f803e3d5ffd5b505050506040513d5f823e601f3d908101601f1916820160405261185a9190810190611ff0565b506103c0850151604051634b96303160e11b81525f80516020612ff98339815191529163972c606291611891918591600401612d7a565b5f604051808303815f875af11580156118ac573d5f803e3d5ffd5b505050506040513d5f823e601f3d908101601f191682016040526118d39190810190611ff0565b506103e0850151604051634b96303160e11b81525f80516020612ff98339815191529163972c60629161190a918591600401612de4565b5f604051808303815f875af1158015611925573d5f803e3d5ffd5b505050506040513d5f823e601f3d908101601f1916820160405261194c9190810190611ff0565b50610400850151604051634b96303160e11b81525f80516020612ff98339815191529163972c606291611983918591600401612e44565b5f604051808303815f875af115801561199e573d5f803e3d5ffd5b505050506040513d5f823e601f3d908101601f191682016040526119c59190810190611ff0565b506103a0850151604051634b96303160e11b81525f80516020612ff98339815191529163972c6062916119fc918591600401612ea4565b5f604051808303815f875af1158015611a17573d5f803e3d5ffd5b505050506040513d5f823e601f3d908101601f19168201604052611a3e9190810190611ff0565b50610260850151604051634b96303160e11b81525f915f80516020612ff98339815191529163972c606291611a7891869190600401612f04565b5f604051808303815f875af1158015611a93573d5f803e3d5ffd5b505050506040513d5f823e601f3d908101601f19168201604052611aba9190810190611ff0565b6040519091505f80516020612ff98339815191529063e23cd19f908390610481908790602001612f5b565b5f5b83811015611aff578181015183820152602001611ae7565b50505f910152565b5f8151808452611b1e816020860160208601611ae5565b601f01601f19169290920160200192915050565b602081525f611b446020830184611b07565b9392505050565b634e487b7160e01b5f52604160045260245ffd5b604051610440810167ffffffffffffffff81118282101715611b8357611b83611b4b565b60405290565b80356001600160a01b0381168114611b9f575f80fd5b919050565b5f610100808385031215611bb6575f80fd5b6040519081019067ffffffffffffffff82118183101715611bd957611bd9611b4b565b81604052611be684611b89565b8152611bf460208501611b89565b6020820152611c0560408501611b89565b6040820152611c1660608501611b89565b6060820152611c2760808501611b89565b6080820152611c3860a08501611b89565b60a0820152611c4960c08501611b89565b60c0820152611c5a60e08501611b89565b60e0820152949350505050565b604081525f611c796040830185611b07565b8281036020840152611c8b8185611b07565b95945050505050565b5f6104408284031215611ca5575f80fd5b611cad611b5f565b611cb683611b89565b8152611cc460208401611b89565b6020820152611cd560408401611b89565b6040820152611ce660608401611b89565b6060820152611cf760808401611b89565b6080820152611d0860a08401611b89565b60a0820152611d1960c08401611b89565b60c0820152611d2a60e08401611b89565b60e0820152610100611d3d818501611b89565b90820152610120611d4f848201611b89565b90820152610140611d61848201611b89565b90820152610160611d73848201611b89565b90820152610180611d85848201611b89565b908201526101a0611d97848201611b89565b908201526101c0611da9848201611b89565b908201526101e0611dbb848201611b89565b90820152610200611dcd848201611b89565b90820152610220611ddf848201611b89565b90820152610240611df1848201611b89565b90820152610260611e03848201611b89565b90820152610280611e15848201611b89565b908201526102a0611e27848201611b89565b908201526102c0611e39848201611b89565b908201526102e0611e4b848201611b89565b90820152610300611e5d848201611b89565b90820152610320611e6f848201611b89565b90820152610340611e81848201611b89565b90820152610360611e93848201611b89565b90820152610380611ea5848201611b89565b908201526103a0611eb7848201611b89565b908201526103c0611ec9848201611b89565b908201526103e0611edb848201611b89565b90820152610400611eed848201611b89565b90820152610420611eff848201611b89565b908201529392505050565b634e487b7160e01b5f52603260045260245ffd5b5f602080830181845280855180835260408601915060408160051b87010192508387015f5b82811015611f7157603f19888603018452611f5f858351611b07565b94509285019290850190600101611f43565b5092979650505050505050565b5f67ffffffffffffffff80841115611f9857611f98611b4b565b604051601f8501601f19908116603f01168101908282118183101715611fc057611fc0611b4b565b81604052809350858152868686011115611fd8575f80fd5b611fe6866020830187611ae5565b5050509392505050565b5f60208284031215612000575f80fd5b815167ffffffffffffffff811115612016575f80fd5b8201601f81018413612026575f80fd5b61203584825160208401611f7e565b949350505050565b606081525f61204f6060830185611b07565b828103602080850191909152600e82526d666c6173684c6f616e4c6f67696360901b908201526001600160a01b03939093166040928301525001919050565b606081525f6120a06060830185611b07565b828103602080850191909152601082526f6c69717569646174696f6e4c6f67696360801b908201526001600160a01b03939093166040928301525001919050565b606081525f6120f36060830185611b07565b8281036020808501919091526009825268706f6f6c4c6f67696360b81b908201526001600160a01b03939093166040928301525001919050565b606081525f61213f6060830185611b07565b828103602080850191909152600b82526a737570706c794c6f67696360a81b908201526001600160a01b03939093166040928301525001919050565b692e2f7265706f7274732f60b01b81525f825161219f81600a850160208701611ae5565b7f2d6c6962726172792d322d6465706c6f796d656e742e6a736f6e000000000000600a939091019283015250602401919050565b606081525f6121e56060830185611b07565b828103602080850191909152600b82526a626f72726f774c6f67696360a81b908201526001600160a01b03939093166040928301525001919050565b606081525f6122336060830185611b07565b828103602080850191909152600b82526a6272696467654c6f67696360a81b908201526001600160a01b03939093166040928301525001919050565b606081525f6122816060830185611b07565b8281036020808501919091526011825270636f6e666967757261746f724c6f67696360781b908201526001600160a01b03939093166040928301525001919050565b606081525f6122d56060830185611b07565b828103602080850191909152600a825269654d6f64654c6f67696360b01b908201526001600160a01b03939093166040928301525001919050565b692e2f7265706f7274732f60b01b81525f825161233481600a850160208701611ae5565b7f2d6c6962726172792d312d6465706c6f796d656e742e6a736f6e000000000000600a939091019283015250602401919050565b606081525f61237a6060830185611b07565b828103806020850152601682527518585d994b5d8ccb599858dd1bdc9e4b58dbdb5b5a5d60521b602083015260408101604085015250611c8b6040820185611b07565b606081525f6123cf6060830185611b07565b82810380602085015260168252750c2c2ecca5aec665accc2c6e8dee4f25ac4e4c2dcc6d60531b602083015260408101604085015250611c8b6040820185611b07565b606081525f6124246060830185611b07565b828103602080850191909152601d82527f706f6f6c41646472657373657350726f76696465725265676973747279000000908201526001600160a01b03939093166040928301525001919050565b606081525f6124846060830185611b07565b82810360208085019190915260158252743837b7b620b2323932b9b9b2b9a83937bb34b232b960591b908201526001600160a01b03939093166040928301525001919050565b606081525f6124dc6060830185611b07565b8281036020808501919091526009825268706f6f6c50726f787960b81b908201526001600160a01b03939093166040928301525001919050565b606081525f6125286060830185611b07565b82810360208085019190915260128252713837b7b624b6b83632b6b2b73a30ba34b7b760711b908201526001600160a01b03939093166040928301525001919050565b606081525f61257d6060830185611b07565b8281036020808501919091526015825274706f6f6c436f6e666967757261746f7250726f787960581b908201526001600160a01b03939093166040928301525001919050565b606081525f6125d56060830185611b07565b828103602080850191909152601e82527f706f6f6c436f6e666967757261746f72496d706c656d656e746174696f6e0000908201526001600160a01b03939093166040928301525001919050565b606081525f6126356060830185611b07565b828103602080850191909152600a825269616176654f7261636c6560b01b908201526001600160a01b03939093166040928301525001919050565b606081525f6126826060830185611b07565b8281036020808501919091526008825267747265617375727960c01b908201526001600160a01b03939093166040928301525001919050565b606081525f6126cd6060830185611b07565b828103602080850191909152600a825269383937bc3ca0b236b4b760b11b908201526001600160a01b03939093166040928301525001919050565b606081525f61271a6060830185611b07565b828103602080850191909152601382527277726170706564546f6b656e4761746577617960681b908201526001600160a01b03939093166040928301525001919050565b606081525f6127706060830185611b07565b82810360208085019190915260158252743bb0b63632ba2130b630b731b2a83937bb34b232b960591b908201526001600160a01b03939093166040928301525001919050565b606081525f6127c86060830185611b07565b828103602080850191909152601782527f7569496e63656e746976654461746150726f7669646572000000000000000000908201526001600160a01b03939093166040928301525001919050565b606081525f6128286060830185611b07565b82810360208085019190915260128252713ab4a837b7b62230ba30a83937bb34b232b960711b908201526001600160a01b03939093166040928301525001919050565b606081525f61287d6060830185611b07565b82810360208085019190915260168252753a3932b0b9bab93ca4b6b83632b6b2b73a30ba34b7b760511b908201526001600160a01b03939093166040928301525001919050565b606081525f6128d66060830185611b07565b8281036020808501919091526009825268361922b731b7b232b960b91b908201526001600160a01b03939093166040928301525001919050565b606081525f6129226060830185611b07565b828103602080850191909152600682526530aa37b5b2b760d11b908201526001600160a01b03939093166040928301525001919050565b606081525f61296b6060830185611b07565b82810360208085019190915260118252703b30b934b0b13632a232b13a2a37b5b2b760791b908201526001600160a01b03939093166040928301525001919050565b606081525f6129bf6060830185611b07565b828103602080850191909152600f82526e32b6b4b9b9b4b7b726b0b730b3b2b960891b908201526001600160a01b03939093166040928301525001919050565b606081525f612a116060830185611b07565b828103602080850191909152601f82527f72657761726473436f6e74726f6c6c6572496d706c656d656e746174696f6e00908201526001600160a01b03939093166040928301525001919050565b606081525f612a716060830185611b07565b828103602080850191909152601682527572657761726473436f6e74726f6c6c657250726f787960501b908201526001600160a01b03939093166040928301525001919050565b606081525f612aca6060830185611b07565b828103602080850191909152600a82526930b1b626b0b730b3b2b960b11b908201526001600160a01b03939093166040928301525001919050565b606081525f612b176060830185611b07565b8281036020808501919091526014825273383937ba37b1b7b62230ba30a83937bb34b232b960611b908201526001600160a01b03939093166040928301525001919050565b606081525f612b6e6060830185611b07565b828103602080850191909152601c82527f70617261537761704c6971756964697479537761704164617074657200000000908201526001600160a01b03939093166040928301525001919050565b606081525f612bce6060830185611b07565b828103602080850191909152601b82527f7061726153776170576974686472617753776170416461707465720000000000908201526001600160a01b03939093166040928301525001919050565b606081525f612c2e6060830185611b07565b828103602080850191909152601682527530b0bb32a830b930a9bbb0b82332b2a1b630b4b6b2b960511b908201526001600160a01b03939093166040928301525001919050565b606081525f612c876060830185611b07565b828103602080850191909152601b82527f64656661756c74496e7465726573745261746553747261746567790000000000908201526001600160a01b03939093166040928301525001919050565b606081525f612ce76060830185611b07565b82810360208085019190915260138252721c1c9a58d953dc9858db1954d95b9d1a5b995b606a1b908201526001600160a01b03939093166040928301525001919050565b606081525f612d3d6060830185611b07565b828103602080850191909152600c82526b636f6e666967456e67696e6560a01b908201526001600160a01b03939093166040928301525001919050565b606081525f612d8c6060830185611b07565b8281036020840152602181527f73746174696341546f6b656e466163746f7279496d706c656d656e746174696f6020820152603760f91b60408201526060810191505060018060a01b03831660408301529392505050565b606081525f612df66060830185611b07565b828103602080850191909152601882527f73746174696341546f6b656e466163746f727950726f78790000000000000000908201526001600160a01b03939093166040928301525001919050565b606081525f612e566060830185611b07565b828103602080850191909152601a82527f73746174696341546f6b656e496d706c656d656e746174696f6e000000000000908201526001600160a01b03939093166040928301525001919050565b606081525f612eb66060830185611b07565b828103602080850191909152601782527f7472616e73706172656e7450726f7879466163746f7279000000000000000000908201526001600160a01b03939093166040928301525001919050565b606081525f612f166060830185611b07565b82810360208085019190915260148252733830b930a9bbb0b82932b830bca0b230b83a32b960611b908201526001600160a01b03939093166040928301525001919050565b692e2f7265706f7274732f60b01b81525f8251612f7f81600a850160208701611ae5565b7f2d6d61726b65742d6465706c6f796d656e742e6a736f6e000000000000000000600a93909101928301525060210191905056fe726573706f6e73653d22242864617465202b257329223b2063617374206162692d656e636f64652022726573706f6e736528737472696e6729222024726573706f6e73653b0000000000000000000000007109709ecfa91a80626ff3989d68f67f5b1dd12d726573706f6e73653d2224286563686f202d6e202428676974207265762d706172736520484541442929223b2063617374206162692d656e636f64652022726573706f6e736528737472696e672922202224726573706f6e736522726573706f6e73653d2224286563686f202d6e202428676974206272616e6368202d2d73686f772d63757272656e742929223b2063617374206162692d656e636f64652022726573706f6e736528737472696e672922202224726573706f6e736522a164736f6c6343000814000a","linkReferences":{}},"methodIdentifiers":{"getGitModuleVersion()":"d5760b51","getTimestamp()":"188ec356","writeJsonReportLibraryBatch1((address,address,address,address,address,address,address,address))":"bccf020f","writeJsonReportLibraryBatch2((address,address,address,address,address,address,address,address))":"51b21995","writeJsonReportMarket((address,address,address,address,address,address,address,address,address,address,address,address,address,address,address,address,address,address,address,address,address,address,address,address,address,address,address,address,address,address,address,address,address,address))":"e993af3a"},"id":288}