{"abi":[{"type":"constructor","inputs":[{"name":"provider","type":"address","internalType":"contract IPoolAddressesProvider"}],"stateMutability":"nonpayable"},{"type":"function","name":"ADDRESSES_PROVIDER","inputs":[],"outputs":[{"name":"","type":"address","internalType":"contract IPoolAddressesProvider"}],"stateMutability":"view"},{"type":"function","name":"BRIDGE_PROTOCOL_FEE","inputs":[],"outputs":[{"name":"","type":"uint256","internalType":"uint256"}],"stateMutability":"view"},{"type":"function","name":"FLASHLOAN_PREMIUM_TOTAL","inputs":[],"outputs":[{"name":"","type":"uint128","internalType":"uint128"}],"stateMutability":"view"},{"type":"function","name":"FLASHLOAN_PREMIUM_TO_PROTOCOL","inputs":[],"outputs":[{"name":"","type":"uint128","internalType":"uint128"}],"stateMutability":"view"},{"type":"function","name":"MAX_NUMBER_RESERVES","inputs":[],"outputs":[{"name":"","type":"uint16","internalType":"uint16"}],"stateMutability":"view"},{"type":"function","name":"POOL_REVISION","inputs":[],"outputs":[{"name":"","type":"uint256","internalType":"uint256"}],"stateMutability":"view"},{"type":"function","name":"backUnbacked","inputs":[{"name":"asset","type":"address","internalType":"address"},{"name":"amount","type":"uint256","internalType":"uint256"},{"name":"fee","type":"uint256","internalType":"uint256"}],"outputs":[{"name":"","type":"uint256","internalType":"uint256"}],"stateMutability":"nonpayable"},{"type":"function","name":"borrow","inputs":[{"name":"asset","type":"address","internalType":"address"},{"name":"amount","type":"uint256","internalType":"uint256"},{"name":"interestRateMode","type":"uint256","internalType":"uint256"},{"name":"referralCode","type":"uint16","internalType":"uint16"},{"name":"onBehalfOf","type":"address","internalType":"address"}],"outputs":[],"stateMutability":"nonpayable"},{"type":"function","name":"borrow","inputs":[{"name":"args","type":"bytes32","internalType":"bytes32"}],"outputs":[],"stateMutability":"nonpayable"},{"type":"function","name":"configureEModeCategory","inputs":[{"name":"id","type":"uint8","internalType":"uint8"},{"name":"category","type":"tuple","internalType":"struct DataTypes.EModeCategoryBaseConfiguration","components":[{"name":"ltv","type":"uint16","internalType":"uint16"},{"name":"liquidationThreshold","type":"uint16","internalType":"uint16"},{"name":"liquidationBonus","type":"uint16","internalType":"uint16"},{"name":"label","type":"string","internalType":"string"}]}],"outputs":[],"stateMutability":"nonpayable"},{"type":"function","name":"configureEModeCategoryBorrowableBitmap","inputs":[{"name":"id","type":"uint8","internalType":"uint8"},{"name":"borrowableBitmap","type":"uint128","internalType":"uint128"}],"outputs":[],"stateMutability":"nonpayable"},{"type":"function","name":"configureEModeCategoryCollateralBitmap","inputs":[{"name":"id","type":"uint8","internalType":"uint8"},{"name":"collateralBitmap","type":"uint128","internalType":"uint128"}],"outputs":[],"stateMutability":"nonpayable"},{"type":"function","name":"deposit","inputs":[{"name":"asset","type":"address","internalType":"address"},{"name":"amount","type":"uint256","internalType":"uint256"},{"name":"onBehalfOf","type":"address","internalType":"address"},{"name":"referralCode","type":"uint16","internalType":"uint16"}],"outputs":[],"stateMutability":"nonpayable"},{"type":"function","name":"dropReserve","inputs":[{"name":"asset","type":"address","internalType":"address"}],"outputs":[],"stateMutability":"nonpayable"},{"type":"function","name":"finalizeTransfer","inputs":[{"name":"asset","type":"address","internalType":"address"},{"name":"from","type":"address","internalType":"address"},{"name":"to","type":"address","internalType":"address"},{"name":"amount","type":"uint256","internalType":"uint256"},{"name":"balanceFromBefore","type":"uint256","internalType":"uint256"},{"name":"balanceToBefore","type":"uint256","internalType":"uint256"}],"outputs":[],"stateMutability":"nonpayable"},{"type":"function","name":"flashLoan","inputs":[{"name":"receiverAddress","type":"address","internalType":"address"},{"name":"assets","type":"address[]","internalType":"address[]"},{"name":"amounts","type":"uint256[]","internalType":"uint256[]"},{"name":"interestRateModes","type":"uint256[]","internalType":"uint256[]"},{"name":"onBehalfOf","type":"address","internalType":"address"},{"name":"params","type":"bytes","internalType":"bytes"},{"name":"referralCode","type":"uint16","internalType":"uint16"}],"outputs":[],"stateMutability":"nonpayable"},{"type":"function","name":"flashLoanSimple","inputs":[{"name":"receiverAddress","type":"address","internalType":"address"},{"name":"asset","type":"address","internalType":"address"},{"name":"amount","type":"uint256","internalType":"uint256"},{"name":"params","type":"bytes","internalType":"bytes"},{"name":"referralCode","type":"uint16","internalType":"uint16"}],"outputs":[],"stateMutability":"nonpayable"},{"type":"function","name":"getBorrowLogic","inputs":[],"outputs":[{"name":"","type":"address","internalType":"address"}],"stateMutability":"pure"},{"type":"function","name":"getBridgeLogic","inputs":[],"outputs":[{"name":"","type":"address","internalType":"address"}],"stateMutability":"pure"},{"type":"function","name":"getConfiguration","inputs":[{"name":"asset","type":"address","internalType":"address"}],"outputs":[{"name":"","type":"tuple","internalType":"struct DataTypes.ReserveConfigurationMap","components":[{"name":"data","type":"uint256","internalType":"uint256"}]}],"stateMutability":"view"},{"type":"function","name":"getEModeCategoryBorrowableBitmap","inputs":[{"name":"id","type":"uint8","internalType":"uint8"}],"outputs":[{"name":"","type":"uint128","internalType":"uint128"}],"stateMutability":"view"},{"type":"function","name":"getEModeCategoryCollateralBitmap","inputs":[{"name":"id","type":"uint8","internalType":"uint8"}],"outputs":[{"name":"","type":"uint128","internalType":"uint128"}],"stateMutability":"view"},{"type":"function","name":"getEModeCategoryCollateralConfig","inputs":[{"name":"id","type":"uint8","internalType":"uint8"}],"outputs":[{"name":"","type":"tuple","internalType":"struct DataTypes.CollateralConfig","components":[{"name":"ltv","type":"uint16","internalType":"uint16"},{"name":"liquidationThreshold","type":"uint16","internalType":"uint16"},{"name":"liquidationBonus","type":"uint16","internalType":"uint16"}]}],"stateMutability":"view"},{"type":"function","name":"getEModeCategoryData","inputs":[{"name":"id","type":"uint8","internalType":"uint8"}],"outputs":[{"name":"","type":"tuple","internalType":"struct DataTypes.EModeCategoryLegacy","components":[{"name":"ltv","type":"uint16","internalType":"uint16"},{"name":"liquidationThreshold","type":"uint16","internalType":"uint16"},{"name":"liquidationBonus","type":"uint16","internalType":"uint16"},{"name":"priceSource","type":"address","internalType":"address"},{"name":"label","type":"string","internalType":"string"}]}],"stateMutability":"view"},{"type":"function","name":"getEModeCategoryLabel","inputs":[{"name":"id","type":"uint8","internalType":"uint8"}],"outputs":[{"name":"","type":"string","internalType":"string"}],"stateMutability":"view"},{"type":"function","name":"getEModeLogic","inputs":[],"outputs":[{"name":"","type":"address","internalType":"address"}],"stateMutability":"pure"},{"type":"function","name":"getFlashLoanLogic","inputs":[],"outputs":[{"name":"","type":"address","internalType":"address"}],"stateMutability":"pure"},{"type":"function","name":"getLiquidationGracePeriod","inputs":[{"name":"asset","type":"address","internalType":"address"}],"outputs":[{"name":"","type":"uint40","internalType":"uint40"}],"stateMutability":"nonpayable"},{"type":"function","name":"getLiquidationLogic","inputs":[],"outputs":[{"name":"","type":"address","internalType":"address"}],"stateMutability":"pure"},{"type":"function","name":"getPoolLogic","inputs":[],"outputs":[{"name":"","type":"address","internalType":"address"}],"stateMutability":"pure"},{"type":"function","name":"getReserveAddressById","inputs":[{"name":"id","type":"uint16","internalType":"uint16"}],"outputs":[{"name":"","type":"address","internalType":"address"}],"stateMutability":"view"},{"type":"function","name":"getReserveData","inputs":[{"name":"asset","type":"address","internalType":"address"}],"outputs":[{"name":"","type":"tuple","internalType":"struct DataTypes.ReserveDataLegacy","components":[{"name":"configuration","type":"tuple","internalType":"struct DataTypes.ReserveConfigurationMap","components":[{"name":"data","type":"uint256","internalType":"uint256"}]},{"name":"liquidityIndex","type":"uint128","internalType":"uint128"},{"name":"currentLiquidityRate","type":"uint128","internalType":"uint128"},{"name":"variableBorrowIndex","type":"uint128","internalType":"uint128"},{"name":"currentVariableBorrowRate","type":"uint128","internalType":"uint128"},{"name":"currentStableBorrowRate","type":"uint128","internalType":"uint128"},{"name":"lastUpdateTimestamp","type":"uint40","internalType":"uint40"},{"name":"id","type":"uint16","internalType":"uint16"},{"name":"aTokenAddress","type":"address","internalType":"address"},{"name":"stableDebtTokenAddress","type":"address","internalType":"address"},{"name":"variableDebtTokenAddress","type":"address","internalType":"address"},{"name":"interestRateStrategyAddress","type":"address","internalType":"address"},{"name":"accruedToTreasury","type":"uint128","internalType":"uint128"},{"name":"unbacked","type":"uint128","internalType":"uint128"},{"name":"isolationModeTotalDebt","type":"uint128","internalType":"uint128"}]}],"stateMutability":"view"},{"type":"function","name":"getReserveDataExtended","inputs":[{"name":"asset","type":"address","internalType":"address"}],"outputs":[{"name":"","type":"tuple","internalType":"struct DataTypes.ReserveData","components":[{"name":"configuration","type":"tuple","internalType":"struct DataTypes.ReserveConfigurationMap","components":[{"name":"data","type":"uint256","internalType":"uint256"}]},{"name":"liquidityIndex","type":"uint128","internalType":"uint128"},{"name":"currentLiquidityRate","type":"uint128","internalType":"uint128"},{"name":"variableBorrowIndex","type":"uint128","internalType":"uint128"},{"name":"currentVariableBorrowRate","type":"uint128","internalType":"uint128"},{"name":"__deprecatedStableBorrowRate","type":"uint128","internalType":"uint128"},{"name":"lastUpdateTimestamp","type":"uint40","internalType":"uint40"},{"name":"id","type":"uint16","internalType":"uint16"},{"name":"liquidationGracePeriodUntil","type":"uint40","internalType":"uint40"},{"name":"aTokenAddress","type":"address","internalType":"address"},{"name":"__deprecatedStableDebtTokenAddress","type":"address","internalType":"address"},{"name":"variableDebtTokenAddress","type":"address","internalType":"address"},{"name":"interestRateStrategyAddress","type":"address","internalType":"address"},{"name":"accruedToTreasury","type":"uint128","internalType":"uint128"},{"name":"unbacked","type":"uint128","internalType":"uint128"},{"name":"isolationModeTotalDebt","type":"uint128","internalType":"uint128"},{"name":"virtualUnderlyingBalance","type":"uint128","internalType":"uint128"}]}],"stateMutability":"view"},{"type":"function","name":"getReserveNormalizedIncome","inputs":[{"name":"asset","type":"address","internalType":"address"}],"outputs":[{"name":"","type":"uint256","internalType":"uint256"}],"stateMutability":"view"},{"type":"function","name":"getReserveNormalizedVariableDebt","inputs":[{"name":"asset","type":"address","internalType":"address"}],"outputs":[{"name":"","type":"uint256","internalType":"uint256"}],"stateMutability":"view"},{"type":"function","name":"getReservesCount","inputs":[],"outputs":[{"name":"","type":"uint256","internalType":"uint256"}],"stateMutability":"view"},{"type":"function","name":"getReservesList","inputs":[],"outputs":[{"name":"","type":"address[]","internalType":"address[]"}],"stateMutability":"view"},{"type":"function","name":"getSupplyLogic","inputs":[],"outputs":[{"name":"","type":"address","internalType":"address"}],"stateMutability":"pure"},{"type":"function","name":"getUserAccountData","inputs":[{"name":"user","type":"address","internalType":"address"}],"outputs":[{"name":"totalCollateralBase","type":"uint256","internalType":"uint256"},{"name":"totalDebtBase","type":"uint256","internalType":"uint256"},{"name":"availableBorrowsBase","type":"uint256","internalType":"uint256"},{"name":"currentLiquidationThreshold","type":"uint256","internalType":"uint256"},{"name":"ltv","type":"uint256","internalType":"uint256"},{"name":"healthFactor","type":"uint256","internalType":"uint256"}],"stateMutability":"view"},{"type":"function","name":"getUserConfiguration","inputs":[{"name":"user","type":"address","internalType":"address"}],"outputs":[{"name":"","type":"tuple","internalType":"struct DataTypes.UserConfigurationMap","components":[{"name":"data","type":"uint256","internalType":"uint256"}]}],"stateMutability":"view"},{"type":"function","name":"getUserEMode","inputs":[{"name":"user","type":"address","internalType":"address"}],"outputs":[{"name":"","type":"uint256","internalType":"uint256"}],"stateMutability":"view"},{"type":"function","name":"getVirtualUnderlyingBalance","inputs":[{"name":"asset","type":"address","internalType":"address"}],"outputs":[{"name":"","type":"uint128","internalType":"uint128"}],"stateMutability":"view"},{"type":"function","name":"initReserve","inputs":[{"name":"asset","type":"address","internalType":"address"},{"name":"aTokenAddress","type":"address","internalType":"address"},{"name":"variableDebtAddress","type":"address","internalType":"address"},{"name":"interestRateStrategyAddress","type":"address","internalType":"address"}],"outputs":[],"stateMutability":"nonpayable"},{"type":"function","name":"initialize","inputs":[{"name":"provider","type":"address","internalType":"contract IPoolAddressesProvider"}],"outputs":[],"stateMutability":"nonpayable"},{"type":"function","name":"liquidationCall","inputs":[{"name":"collateralAsset","type":"address","internalType":"address"},{"name":"debtAsset","type":"address","internalType":"address"},{"name":"user","type":"address","internalType":"address"},{"name":"debtToCover","type":"uint256","internalType":"uint256"},{"name":"receiveAToken","type":"bool","internalType":"bool"}],"outputs":[],"stateMutability":"nonpayable"},{"type":"function","name":"liquidationCall","inputs":[{"name":"args1","type":"bytes32","internalType":"bytes32"},{"name":"args2","type":"bytes32","internalType":"bytes32"}],"outputs":[],"stateMutability":"nonpayable"},{"type":"function","name":"mintToTreasury","inputs":[{"name":"assets","type":"address[]","internalType":"address[]"}],"outputs":[],"stateMutability":"nonpayable"},{"type":"function","name":"mintUnbacked","inputs":[{"name":"asset","type":"address","internalType":"address"},{"name":"amount","type":"uint256","internalType":"uint256"},{"name":"onBehalfOf","type":"address","internalType":"address"},{"name":"referralCode","type":"uint16","internalType":"uint16"}],"outputs":[],"stateMutability":"nonpayable"},{"type":"function","name":"repay","inputs":[{"name":"args","type":"bytes32","internalType":"bytes32"}],"outputs":[{"name":"","type":"uint256","internalType":"uint256"}],"stateMutability":"nonpayable"},{"type":"function","name":"repay","inputs":[{"name":"asset","type":"address","internalType":"address"},{"name":"amount","type":"uint256","internalType":"uint256"},{"name":"interestRateMode","type":"uint256","internalType":"uint256"},{"name":"onBehalfOf","type":"address","internalType":"address"}],"outputs":[{"name":"","type":"uint256","internalType":"uint256"}],"stateMutability":"nonpayable"},{"type":"function","name":"repayWithATokens","inputs":[{"name":"asset","type":"address","internalType":"address"},{"name":"amount","type":"uint256","internalType":"uint256"},{"name":"interestRateMode","type":"uint256","internalType":"uint256"}],"outputs":[{"name":"","type":"uint256","internalType":"uint256"}],"stateMutability":"nonpayable"},{"type":"function","name":"repayWithATokens","inputs":[{"name":"args","type":"bytes32","internalType":"bytes32"}],"outputs":[{"name":"","type":"uint256","internalType":"uint256"}],"stateMutability":"nonpayable"},{"type":"function","name":"repayWithPermit","inputs":[{"name":"args","type":"bytes32","internalType":"bytes32"},{"name":"r","type":"bytes32","internalType":"bytes32"},{"name":"s","type":"bytes32","internalType":"bytes32"}],"outputs":[{"name":"","type":"uint256","internalType":"uint256"}],"stateMutability":"nonpayable"},{"type":"function","name":"repayWithPermit","inputs":[{"name":"asset","type":"address","internalType":"address"},{"name":"amount","type":"uint256","internalType":"uint256"},{"name":"interestRateMode","type":"uint256","internalType":"uint256"},{"name":"onBehalfOf","type":"address","internalType":"address"},{"name":"deadline","type":"uint256","internalType":"uint256"},{"name":"permitV","type":"uint8","internalType":"uint8"},{"name":"permitR","type":"bytes32","internalType":"bytes32"},{"name":"permitS","type":"bytes32","internalType":"bytes32"}],"outputs":[{"name":"","type":"uint256","internalType":"uint256"}],"stateMutability":"nonpayable"},{"type":"function","name":"rescueTokens","inputs":[{"name":"token","type":"address","internalType":"address"},{"name":"to","type":"address","internalType":"address"},{"name":"amount","type":"uint256","internalType":"uint256"}],"outputs":[],"stateMutability":"nonpayable"},{"type":"function","name":"resetIsolationModeTotalDebt","inputs":[{"name":"asset","type":"address","internalType":"address"}],"outputs":[],"stateMutability":"nonpayable"},{"type":"function","name":"setConfiguration","inputs":[{"name":"asset","type":"address","internalType":"address"},{"name":"configuration","type":"tuple","internalType":"struct DataTypes.ReserveConfigurationMap","components":[{"name":"data","type":"uint256","internalType":"uint256"}]}],"outputs":[],"stateMutability":"nonpayable"},{"type":"function","name":"setLiquidationGracePeriod","inputs":[{"name":"asset","type":"address","internalType":"address"},{"name":"until","type":"uint40","internalType":"uint40"}],"outputs":[],"stateMutability":"nonpayable"},{"type":"function","name":"setReserveInterestRateStrategyAddress","inputs":[{"name":"asset","type":"address","internalType":"address"},{"name":"rateStrategyAddress","type":"address","internalType":"address"}],"outputs":[],"stateMutability":"nonpayable"},{"type":"function","name":"setUserEMode","inputs":[{"name":"categoryId","type":"uint8","internalType":"uint8"}],"outputs":[],"stateMutability":"nonpayable"},{"type":"function","name":"setUserUseReserveAsCollateral","inputs":[{"name":"args","type":"bytes32","internalType":"bytes32"}],"outputs":[],"stateMutability":"nonpayable"},{"type":"function","name":"setUserUseReserveAsCollateral","inputs":[{"name":"asset","type":"address","internalType":"address"},{"name":"useAsCollateral","type":"bool","internalType":"bool"}],"outputs":[],"stateMutability":"nonpayable"},{"type":"function","name":"supply","inputs":[{"name":"asset","type":"address","internalType":"address"},{"name":"amount","type":"uint256","internalType":"uint256"},{"name":"onBehalfOf","type":"address","internalType":"address"},{"name":"referralCode","type":"uint16","internalType":"uint16"}],"outputs":[],"stateMutability":"nonpayable"},{"type":"function","name":"supply","inputs":[{"name":"args","type":"bytes32","internalType":"bytes32"}],"outputs":[],"stateMutability":"nonpayable"},{"type":"function","name":"supplyWithPermit","inputs":[{"name":"asset","type":"address","internalType":"address"},{"name":"amount","type":"uint256","internalType":"uint256"},{"name":"onBehalfOf","type":"address","internalType":"address"},{"name":"referralCode","type":"uint16","internalType":"uint16"},{"name":"deadline","type":"uint256","internalType":"uint256"},{"name":"permitV","type":"uint8","internalType":"uint8"},{"name":"permitR","type":"bytes32","internalType":"bytes32"},{"name":"permitS","type":"bytes32","internalType":"bytes32"}],"outputs":[],"stateMutability":"nonpayable"},{"type":"function","name":"supplyWithPermit","inputs":[{"name":"args","type":"bytes32","internalType":"bytes32"},{"name":"r","type":"bytes32","internalType":"bytes32"},{"name":"s","type":"bytes32","internalType":"bytes32"}],"outputs":[],"stateMutability":"nonpayable"},{"type":"function","name":"syncIndexesState","inputs":[{"name":"asset","type":"address","internalType":"address"}],"outputs":[],"stateMutability":"nonpayable"},{"type":"function","name":"syncRatesState","inputs":[{"name":"asset","type":"address","internalType":"address"}],"outputs":[],"stateMutability":"nonpayable"},{"type":"function","name":"updateBridgeProtocolFee","inputs":[{"name":"protocolFee","type":"uint256","internalType":"uint256"}],"outputs":[],"stateMutability":"nonpayable"},{"type":"function","name":"updateFlashloanPremiums","inputs":[{"name":"flashLoanPremiumTotal","type":"uint128","internalType":"uint128"},{"name":"flashLoanPremiumToProtocol","type":"uint128","internalType":"uint128"}],"outputs":[],"stateMutability":"nonpayable"},{"type":"function","name":"withdraw","inputs":[{"name":"asset","type":"address","internalType":"address"},{"name":"amount","type":"uint256","internalType":"uint256"},{"name":"to","type":"address","internalType":"address"}],"outputs":[{"name":"","type":"uint256","internalType":"uint256"}],"stateMutability":"nonpayable"},{"type":"function","name":"withdraw","inputs":[{"name":"args","type":"bytes32","internalType":"bytes32"}],"outputs":[{"name":"","type":"uint256","internalType":"uint256"}],"stateMutability":"nonpayable"},{"type":"event","name":"BackUnbacked","inputs":[{"name":"reserve","type":"address","indexed":true,"internalType":"address"},{"name":"backer","type":"address","indexed":true,"internalType":"address"},{"name":"amount","type":"uint256","indexed":false,"internalType":"uint256"},{"name":"fee","type":"uint256","indexed":false,"internalType":"uint256"}],"anonymous":false},{"type":"event","name":"Borrow","inputs":[{"name":"reserve","type":"address","indexed":true,"internalType":"address"},{"name":"user","type":"address","indexed":false,"internalType":"address"},{"name":"onBehalfOf","type":"address","indexed":true,"internalType":"address"},{"name":"amount","type":"uint256","indexed":false,"internalType":"uint256"},{"name":"interestRateMode","type":"uint8","indexed":false,"internalType":"enum DataTypes.InterestRateMode"},{"name":"borrowRate","type":"uint256","indexed":false,"internalType":"uint256"},{"name":"referralCode","type":"uint16","indexed":true,"internalType":"uint16"}],"anonymous":false},{"type":"event","name":"FlashLoan","inputs":[{"name":"target","type":"address","indexed":true,"internalType":"address"},{"name":"initiator","type":"address","indexed":false,"internalType":"address"},{"name":"asset","type":"address","indexed":true,"internalType":"address"},{"name":"amount","type":"uint256","indexed":false,"internalType":"uint256"},{"name":"interestRateMode","type":"uint8","indexed":false,"internalType":"enum DataTypes.InterestRateMode"},{"name":"premium","type":"uint256","indexed":false,"internalType":"uint256"},{"name":"referralCode","type":"uint16","indexed":true,"internalType":"uint16"}],"anonymous":false},{"type":"event","name":"IsolationModeTotalDebtUpdated","inputs":[{"name":"asset","type":"address","indexed":true,"internalType":"address"},{"name":"totalDebt","type":"uint256","indexed":false,"internalType":"uint256"}],"anonymous":false},{"type":"event","name":"LiquidationCall","inputs":[{"name":"collateralAsset","type":"address","indexed":true,"internalType":"address"},{"name":"debtAsset","type":"address","indexed":true,"internalType":"address"},{"name":"user","type":"address","indexed":true,"internalType":"address"},{"name":"debtToCover","type":"uint256","indexed":false,"internalType":"uint256"},{"name":"liquidatedCollateralAmount","type":"uint256","indexed":false,"internalType":"uint256"},{"name":"liquidator","type":"address","indexed":false,"internalType":"address"},{"name":"receiveAToken","type":"bool","indexed":false,"internalType":"bool"}],"anonymous":false},{"type":"event","name":"MintUnbacked","inputs":[{"name":"reserve","type":"address","indexed":true,"internalType":"address"},{"name":"user","type":"address","indexed":false,"internalType":"address"},{"name":"onBehalfOf","type":"address","indexed":true,"internalType":"address"},{"name":"amount","type":"uint256","indexed":false,"internalType":"uint256"},{"name":"referralCode","type":"uint16","indexed":true,"internalType":"uint16"}],"anonymous":false},{"type":"event","name":"MintedToTreasury","inputs":[{"name":"reserve","type":"address","indexed":true,"internalType":"address"},{"name":"amountMinted","type":"uint256","indexed":false,"internalType":"uint256"}],"anonymous":false},{"type":"event","name":"Repay","inputs":[{"name":"reserve","type":"address","indexed":true,"internalType":"address"},{"name":"user","type":"address","indexed":true,"internalType":"address"},{"name":"repayer","type":"address","indexed":true,"internalType":"address"},{"name":"amount","type":"uint256","indexed":false,"internalType":"uint256"},{"name":"useATokens","type":"bool","indexed":false,"internalType":"bool"}],"anonymous":false},{"type":"event","name":"ReserveDataUpdated","inputs":[{"name":"reserve","type":"address","indexed":true,"internalType":"address"},{"name":"liquidityRate","type":"uint256","indexed":false,"internalType":"uint256"},{"name":"stableBorrowRate","type":"uint256","indexed":false,"internalType":"uint256"},{"name":"variableBorrowRate","type":"uint256","indexed":false,"internalType":"uint256"},{"name":"liquidityIndex","type":"uint256","indexed":false,"internalType":"uint256"},{"name":"variableBorrowIndex","type":"uint256","indexed":false,"internalType":"uint256"}],"anonymous":false},{"type":"event","name":"ReserveDataUpdated","inputs":[{"name":"reserve","type":"address","indexed":true,"internalType":"address"},{"name":"liquidityRate","type":"uint256","indexed":false,"internalType":"uint256"},{"name":"stableBorrowRate","type":"uint256","indexed":false,"internalType":"uint256"},{"name":"variableBorrowRate","type":"uint256","indexed":false,"internalType":"uint256"},{"name":"liquidityIndex","type":"uint256","indexed":false,"internalType":"uint256"},{"name":"variableBorrowIndex","type":"uint256","indexed":false,"internalType":"uint256"}],"anonymous":false},{"type":"event","name":"ReserveUsedAsCollateralDisabled","inputs":[{"name":"reserve","type":"address","indexed":true,"internalType":"address"},{"name":"user","type":"address","indexed":true,"internalType":"address"}],"anonymous":false},{"type":"event","name":"ReserveUsedAsCollateralEnabled","inputs":[{"name":"reserve","type":"address","indexed":true,"internalType":"address"},{"name":"user","type":"address","indexed":true,"internalType":"address"}],"anonymous":false},{"type":"event","name":"Supply","inputs":[{"name":"reserve","type":"address","indexed":true,"internalType":"address"},{"name":"user","type":"address","indexed":false,"internalType":"address"},{"name":"onBehalfOf","type":"address","indexed":true,"internalType":"address"},{"name":"amount","type":"uint256","indexed":false,"internalType":"uint256"},{"name":"referralCode","type":"uint16","indexed":true,"internalType":"uint16"}],"anonymous":false},{"type":"event","name":"UserEModeSet","inputs":[{"name":"user","type":"address","indexed":true,"internalType":"address"},{"name":"categoryId","type":"uint8","indexed":false,"internalType":"uint8"}],"anonymous":false},{"type":"event","name":"Withdraw","inputs":[{"name":"reserve","type":"address","indexed":true,"internalType":"address"},{"name":"user","type":"address","indexed":true,"internalType":"address"},{"name":"to","type":"address","indexed":true,"internalType":"address"},{"name":"amount","type":"uint256","indexed":false,"internalType":"uint256"}],"anonymous":false}],"bytecode":{"object":"0x60a06040525f805534801562000013575f80fd5b5060405162005b4b38038062005b4b833981016040819052620000369162000048565b6001600160a01b031660805262000077565b5f6020828403121562000059575f80fd5b81516001600160a01b038116811462000070575f80fd5b9392505050565b608051615a59620000f25f395f818161046201528181610e1d01528181610ed9015281816112e9015281816119ef01528181611cd20152818161246d015281816125290152818161274b01528181612a9901528181612c9001528181612f990152818161350f015281816136fc0152613d300152615a595ff3fe608060405234801561000f575f80fd5b5060043610610416575f3560e01c80638e19899e11610221578063d15e00531161012a578063e8eda9df116100b4578063f51e435b11610084578063f51e435b14610d3d578063f7a7384014610d50578063f8119d5114610d63578063fd21ecff14610d72578063ff72158a14610d85575f80fd5b8063e8eda9df146106c6578063eddf1b7914610ce5578063ee3e210b14610d10578063f32b9a7314610d23575f80fd5b8063d5eed868116100fa578063d5eed86814610c7f578063d65dc7a114610c92578063dc7c0bff14610ca5578063df374c3614610cb8578063e43e88a114610cd2575f80fd5b8063d15e005314610c2a578063d1946dbc14610c3d578063d335015514610c52578063d5ed393314610c6c575f80fd5b8063ab9c4b5d116101ab578063bcb6e5221161017b578063bcb6e52214610b70578063bf92857c14610b83578063c44b11f714610bc3578063c4d66de814610c04578063cea9d26f14610c17575f80fd5b8063ab9c4b5d14610a79578063b0771dba14610a8c578063b1a99e2614610abe578063b286f46714610ad1575f80fd5b806394b576de116101f157806394b576de14610a1a57806398c7da4e14610a2d5780639cd1999614610a40578063a415bcad14610a53578063ab2b51f614610a66575f80fd5b80638e19899e146109ac578063903a2c71146109bf578063911a3413146109ed57806392380ecb14610a07575f80fd5b8063527517971161032357806369a933a5116102ad57806372218d041161027d57806372218d04146107985780637b75d7f4146107ab5780638381995f146107be578063870e77441461097f5780638bd2567714610999575f80fd5b806369a933a5146107125780636a99c036146107255780636c6f6ae11461073d5780636fb07f961461075d575f80fd5b80635c9a8b18116102f35780635c9a8b1814610677578063617ba037146106c657806363c9b860146106d9578063680dd47c146106ec57806369328dec146106ff575f80fd5b80635275179714610612578063563dd6131461063e578063573ade81146106515780635a3b74b914610664575f80fd5b80632be29fa7116103a457806335ea6a751161037457806335ea6a7514610569578063386497fd1461058957806342b0b77c1461059c5780634417a583146105af5780634d013f03146105ff575f80fd5b80632be29fa71461050f5780632dad97d4146105295780633036b4391461053c578063348fde0f1461054f575f80fd5b8063074b2e43116103ea578063074b2e431461049c5780631d2118f9146104c15780632083e183146104d4578063272d9072146104f457806328530a47146104fc575f80fd5b8062a718a91461041a5780630148170e1461042f57806302c205f01461044a5780630542975c1461045d575b5f80fd5b61042d6104283660046144a9565b610d98565b005b610437600581565b6040519081526020015b60405180910390f35b61042d61045836600461452e565b610fa3565b6104847f000000000000000000000000000000000000000000000000000000000000000081565b6040516001600160a01b039091168152602001610441565b603a546001600160801b03165b6040516001600160801b039091168152602001610441565b61042d6104cf3660046145a8565b6110b4565b6104e76104e23660046145df565b6111d7565b604051610441919061463b565b603954610437565b61042d61050a3660046145df565b61127d565b73__$83e702f37eeb79ca6ea8c03d9bc14d29cb$__610484565b61043761053736600461464d565b611413565b61042d61054a36600461467f565b611513565b73__$1aecd72e546835de8d2664e100f70770e0$__610484565b61057c610577366004614696565b611520565b60405161044191906146b1565b610437610597366004614696565b61170b565b61042d6105aa36600461482e565b611731565b6105f06105bd366004614696565b60408051602080820183525f918290526001600160a01b0393909316815260358352819020815192830190915254815290565b60405190518152602001610441565b61042d61060d36600461467f565b61184f565b6104846106203660046148ab565b61ffff165f908152603660205260409020546001600160a01b031690565b61043761064c36600461467f565b61186f565b61043761065f3660046148c4565b611899565b61042d61067236600461490b565b611997565b6106b0610685366004614696565b6001600160a01b03165f90815260346020526040902060030154600160b81b900464ffffffffff1690565b60405164ffffffffff9091168152602001610441565b61042d6106d4366004614937565b611b17565b61042d6106e7366004614696565b611bc3565b61042d6106fa366004614985565b611c19565b61043761070d3660046149ae565b611c43565b61042d610720366004614937565b611df6565b603a54600160801b90046001600160801b03166104a9565b61075061074b3660046145df565b611e7c565b60405161044191906149ed565b6104a961076b366004614696565b6001600160a01b03165f90815260346020526040902060090154600160801b90046001600160801b031690565b603b54600160401b900461ffff16610437565b61042d6107b9366004614aaf565b611ff8565b6109726107cc366004614696565b60408051610240810182525f6102208201818152825260208201819052918101829052606081018290526080810182905260a0810182905260c0810182905260e08101829052610100810182905261012081018290526101408101829052610160810182905261018081018290526101a081018290526101c081018290526101e08101829052610200810191909152506001600160a01b039081165f9081526034602090815260409182902082516102408101845281546102208201908152815260018201546001600160801b0380821694830194909452600160801b908190048416948201949094526002820154808416606083015284900483166080820152600382015480841660a083015264ffffffffff858204811660c084015261ffff600160a81b83041660e0840152600160b81b90910416610100820152600482015485166101208201526005820154851661014082015260068201548516610160820152600782015490941661018085015260088101548083166101a086015283900482166101c0850152600901548082166101e0850152919091041661020082015290565b6040516104419190614bae565b73__$91b47d451814c731a99462488968bab857$__610484565b61042d6109a7366004614d08565b6120aa565b6104376109ba36600461467f565b612238565b6104a96109cd3660046145df565b60ff165f908152603760205260409020600201546001600160801b031690565b73__$6d137c64be18f5cad883104c2a9fa60a79$__610484565b61042d610a15366004614d6c565b61225d565b610437610a28366004614985565b6122e8565b61042d610a3b366004614696565b612320565b61042d610a4e366004614dde565b612358565b61042d610a61366004614e1d565b612394565b61042d610a74366004614696565b6125c0565b61042d610a87366004614e68565b6125f5565b6104a9610a9a3660046145df565b60ff165f90815260376020526040902054600160301b90046001600160801b031690565b61042d610acc366004614f57565b6128ef565b610b43610adf3660046145df565b604080516060810182525f8082526020820181905291810191909152506040805160608101825260ff9092165f818152603760208181528483205461ffff808216885262010000820481168389015294909352526401000000009004169082015290565b60408051825161ffff90811682526020808501518216908301529282015190921690820152606001610441565b61042d610b7e366004614f8c565b6129ec565b610b96610b91366004614696565b612a0d565b604080519687526020870195909552938501929092526060840152608083015260a082015260c001610441565b6105f0610bd1366004614696565b60408051602080820183525f918290526001600160a01b0393909316815260348352819020815192830190915254815290565b61042d610c12366004614696565b612be6565b61042d610c25366004614fa6565b612d12565b610437610c38366004614696565b612d95565b610c45612db5565b6040516104419190614fe4565b73__$5c81c34ced5c181849a1f58b32d6fe0e6c$__610484565b61042d610c7a366004615030565b612eb4565b61042d610c8d36600461467f565b613098565b610437610ca036600461464d565b6130f6565b610437610cb336600461467f565b61316e565b73__$97e4eb0b6bcf9a716469ce15878e0c4184$__610484565b61042d610ce0366004614696565b61318e565b610437610cf3366004614696565b6001600160a01b03165f9081526038602052604090205460ff1690565b610437610d1e366004615091565b6131dd565b73__$3e9faf92b4e65bc494281f12b43a229306$__610484565b61042d610d4b3660046150d2565b613337565b61042d610d5e36600461467f565b613443565b60405160808152602001610441565b61042d610d80366004615110565b613463565b61042d610d93366004614d6c565b61348b565b73__$6d137c64be18f5cad883104c2a9fa60a79$__6383c1087d6034603660356037604051806101200160405280603b60089054906101000a900461ffff1661ffff1681526020018981526020018c6001600160a01b031681526020018b6001600160a01b031681526020018a6001600160a01b0316815260200188151581526020017f00000000000000000000000000000000000000000000000000000000000000006001600160a01b031663fca513a86040518163ffffffff1660e01b8152600401602060405180830381865afa158015610e77573d5f803e3d5ffd5b505050506040513d601f19601f82011682018060405250810190610e9b9190615130565b6001600160a01b0390811682528b81165f908152603860209081526040918290205460ff16818501528151635eb88d3d60e01b8152825192909401937f000000000000000000000000000000000000000000000000000000000000000090931692635eb88d3d92600480830193928290030181865afa158015610f20573d5f803e3d5ffd5b505050506040513d601f19601f82011682018060405250810190610f449190615130565b6001600160a01b03168152506040518663ffffffff1660e01b8152600401610f7095949392919061514b565b5f6040518083038186803b158015610f86575f80fd5b505af4158015610f98573d5f803e3d5ffd5b505050505050505050565b60405163d505accf60e01b81526001600160a01b0389169063d505accf90610fdb90339030908c908a908a908a908a90600401615203565b5f604051808303815f87803b158015610ff2575f80fd5b505af1925050508015611003575060015b506001600160a01b038087165f818152603560209081526040918290208251608081018452948d1685529084018b90528382019290925261ffff8816606084015251631913f16160e01b815273__$91b47d451814c731a99462488968bab857$__92631913f1619261107e9260349260369291600401615244565b5f6040518083038186803b158015611094575f80fd5b505af41580156110a6573d5f803e3d5ffd5b505050505050505050505050565b6110bc613503565b604080518082019091526002815261373760f01b60208201526001600160a01b0383166111055760405162461bcd60e51b81526004016110fc919061463b565b60405180910390fd5b506001600160a01b0382165f90815260346020526040902060030154600160a81b900461ffff1615158061116d57505f805260366020527f4cb2b152c1b54ce671907a93c300fd5aa72383a9d4ec19a81e3333632ae92e00546001600160a01b038381169116145b604051806040016040528060028152602001611c1960f11b815250906111a65760405162461bcd60e51b81526004016110fc919061463b565b506001600160a01b039182165f90815260346020526040902060070180546001600160a01b03191691909216179055565b60ff81165f9081526037602052604090206001018054606091906111fa90615295565b80601f016020809104026020016040519081016040528092919081815260200182805461122690615295565b80156112715780601f1061124857610100808354040283529160200191611271565b820191905f5260205f20905b81548152906001019060200180831161125457829003601f168201915b50505050509050919050565b73__$3e9faf92b4e65bc494281f12b43a229306$__635d5dc313603460366037603860355f336001600160a01b03166001600160a01b031681526020019081526020015f206040518060600160405280603b60089054906101000a900461ffff1661ffff1681526020017f00000000000000000000000000000000000000000000000000000000000000006001600160a01b031663fca513a86040518163ffffffff1660e01b8152600401602060405180830381865afa158015611343573d5f803e3d5ffd5b505050506040513d601f19601f820116820180604052508101906113679190615130565b6001600160a01b031681526020018960ff168152506040518763ffffffff1660e01b81526004016113e49695949392919095865260208087019590955260408087019490945260608601929092526080850152805160a0850152918201516001600160a01b031660c0840152015160ff1660e08201526101000190565b5f6040518083038186803b1580156113fa575f80fd5b505af415801561140c573d5f803e3d5ffd5b5050505050565b5f73__$83e702f37eeb79ca6ea8c03d9bc14d29cb$__6340e95de66034603660355f336001600160a01b03166001600160a01b031681526020019081526020015f206040518060a001604052808a6001600160a01b03168152602001898152602001886002811115611487576114876152c7565b6002811115611498576114986152c7565b81523360208201526001604091820152516001600160e01b031960e087901b1681526114ca94939291906004016152fb565b602060405180830381865af41580156114e5573d5f803e3d5ffd5b505050506040513d601f19601f820116820180604052508101906115099190615361565b90505b9392505050565b61151b613503565b603955565b611528614385565b6001600160a01b038083165f9081526034602090815260409182902082516102408101845281546102208201908152815260018201546001600160801b0380821694830194909452600160801b908190048416948201949094526002820154808416606083015284900483166080820152600382015480841660a083015264ffffffffff858204811660c084015261ffff600160a81b83041660e0840152600160b81b90910416610100820152600482015485166101208201526005820154851661014082015260068201548516610160820152600782015490941661018085015260088101548083166101a086015283900482166101c0850152600901548082166101e08501529190910416610200820152611643614385565b815181526020808301516001600160801b039081169183019190915260408084015182169083015260608084015182169083015260808084015182169083015260c08084015164ffffffffff169083015260e08084015161ffff16908301526101208301516001600160a01b0390811661010084015261016080850151821661014085015261018080860151909216908401526101a0808501518316918401919091526101c0808501518316918401919091526101e090930151169181019190915292915050565b6001600160a01b0381165f90815260346020526040812061172b906135d3565b92915050565b5f6040518060e00160405280886001600160a01b03168152602001876001600160a01b0316815260200186815260200185858080601f0160208091040260200160405190810160405280939291908181526020018383808284375f92018290525093855250505061ffff8516602080840191909152603a546001600160801b03600160801b8204811660408087019190915291166060909401939093526001600160a01b038a16825260349052819020905163a1fe0e8d60e01b815291925073__$1aecd72e546835de8d2664e100f70770e0$__9163a1fe0e8d9161181a918590600401615378565b5f6040518083038186803b158015611830575f80fd5b505af4158015611842573d5f803e3d5ffd5b5050505050505050505050565b5f8061185c603684613635565b9150915061186a8282611997565b505050565b5f805f8061187e603686613661565b92509250925061189083838333611899565b95945050505050565b5f73__$83e702f37eeb79ca6ea8c03d9bc14d29cb$__6340e95de66034603660355f876001600160a01b03166001600160a01b031681526020019081526020015f206040518060a001604052808b6001600160a01b031681526020018a815260200189600281111561190d5761190d6152c7565b600281111561191e5761191e6152c7565b81526001600160a01b03891660208201525f604091820152516001600160e01b031960e087901b16815261195894939291906004016152fb565b602060405180830381865af4158015611973573d5f803e3d5ffd5b505050506040513d601f19601f820116820180604052508101906118909190615361565b73__$91b47d451814c731a99462488968bab857$__63bf697a2660346036603760355f336001600160a01b03166001600160a01b031681526020019081526020015f208787603b60089054906101000a900461ffff167f00000000000000000000000000000000000000000000000000000000000000006001600160a01b031663fca513a86040518163ffffffff1660e01b8152600401602060405180830381865afa158015611a49573d5f803e3d5ffd5b505050506040513d601f19601f82011682018060405250810190611a6d9190615130565b335f908152603860205260409081902054905160e08b901b6001600160e01b031916815260048101999099526024890197909752604488019590955260648701939093526001600160a01b039182166084870152151560a486015261ffff90911660c48501521660e483015260ff16610104820152610124015b5f6040518083038186803b158015611afd575f80fd5b505af4158015611b0f573d5f803e3d5ffd5b505050505050565b6001600160a01b038083165f81815260356020908152604091829020825160808101845294891685529084018790528382019290925261ffff8416606084015251631913f16160e01b815273__$91b47d451814c731a99462488968bab857$__92631913f16192611b919260349260369291600401615244565b5f6040518083038186803b158015611ba7575f80fd5b505af4158015611bb9573d5f803e3d5ffd5b5050505050505050565b611bcb613503565b604051639cf5702360e01b815260346004820152603660248201526001600160a01b038216604482015273__$5c81c34ced5c181849a1f58b32d6fe0e6c$__90639cf57023906064016113e4565b5f805f805f611c296036896136bd565b94509450945094509450611bb98585338686868d8d610fa3565b5f73__$91b47d451814c731a99462488968bab857$__63186dea4460346036603760355f336001600160a01b03166001600160a01b031681526020019081526020015f206040518060c001604052808b6001600160a01b031681526020018a8152602001896001600160a01b03168152602001603b60089054906101000a900461ffff1661ffff1681526020017f00000000000000000000000000000000000000000000000000000000000000006001600160a01b031663fca513a86040518163ffffffff1660e01b8152600401602060405180830381865afa158015611d2c573d5f803e3d5ffd5b505050506040513d601f19601f82011682018060405250810190611d509190615130565b6001600160a01b039081168252335f908152603860209081526040918290205460ff90811694820194909452815160e08b901b6001600160e01b031916815260048101999099526024890197909752604488019590955260648701939093528151831660848701529381015160a486015291820151811660c4850152606082015160e485015260808201511661010484015260a0015116610124820152610144016114ca565b611dfe6136fa565b6001600160a01b038281165f81815260356020526040908190209051630413c86f60e01b81526034600482015260366024820152604481019190915291861660648301526084820185905260a482015261ffff821660c482015273__$97e4eb0b6bcf9a716469ce15878e0c4184$__90630413c86f9060e401611b91565b6040805160a0810182525f80825260208201819052918101829052606080820192909252608081019190915260ff82165f908152603760209081526040808320815160c081018352815461ffff8082168352620100008204811695830195909552640100000000810490941692810192909252600160301b9092046001600160801b03166060820152600182018054919291608084019190611f1d90615295565b80601f0160208091040260200160405190810160405280929190818152602001828054611f4990615295565b8015611f945780601f10611f6b57610100808354040283529160200191611f94565b820191905f5260205f20905b815481529060010190602001808311611f7757829003601f168201915b5050509183525050600291909101546001600160801b03166020918201526040805160a081018252835161ffff90811682528484015181169382019390935281840151909216908201525f6060820152608091820151918101919091529392505050565b612000613503565b604080518082019091526002815261189b60f11b602082015260ff831661203a5760405162461bcd60e51b81526004016110fc919061463b565b50805160ff83165f908152603760209081526040918290208054918501519285015161ffff9081166401000000000265ffff0000000019948216620100000263ffffffff1990941691909516179190911791909116919091178155606082015160019091019061186a9082615439565b6120b2613503565b73__$5c81c34ced5c181849a1f58b32d6fe0e6c$__6369fc1bdf603460366040518060c00160405280896001600160a01b03168152602001886001600160a01b03168152602001876001600160a01b03168152602001866001600160a01b03168152602001603b60089054906101000a900461ffff1661ffff168152602001612139608090565b61ffff908116909152604080516001600160e01b031960e088901b1681526004810195909552602485019390935281516001600160a01b0390811660448601526020830151811660648601529282015183166084850152606082015190921660a48401526080810151821660c484015260a001511660e482015261010401602060405180830381865af41580156121d2573d5f803e3d5ffd5b505050506040513d601f19601f820116820180604052508101906121f691906154f5565b1561223257603b8054600160401b900461ffff1690600861221683615524565b91906101000a81548161ffff021916908361ffff160217905550505b50505050565b5f805f61224660368561381a565b91509150612255828233611c43565b949350505050565b612265613503565b604080518082019091526002815261189b60f11b602082015260ff831661229f5760405162461bcd60e51b81526004016110fc919061463b565b5060ff9091165f90815260376020526040902080546001600160801b03909216600160301b0275ffffffffffffffffffffffffffffffff00000000000019909216919091179055565b5f805f805f806122f960368a613869565b945094509450945094506123138585853386868e8e6131dd565b9998505050505050505050565b612328613503565b6001600160a01b0381165f90815260346020526040812090612349826138a4565b905061186a8282855f806139c7565b604051631230b2a360e21b815273__$5c81c34ced5c181849a1f58b32d6fe0e6c$__906348c2ca8c90611ae79060349086908690600401615544565b73__$83e702f37eeb79ca6ea8c03d9bc14d29cb$__631e6473f960346036603760355f876001600160a01b03166001600160a01b031681526020019081526020015f206040518061016001604052808c6001600160a01b03168152602001336001600160a01b03168152602001886001600160a01b031681526020018b81526020018a6002811115612428576124286152c7565b6002811115612439576124396152c7565b81526020018961ffff168152602001600115158152602001603b60089054906101000a900461ffff1661ffff1681526020017f00000000000000000000000000000000000000000000000000000000000000006001600160a01b031663fca513a86040518163ffffffff1660e01b8152600401602060405180830381865afa1580156124c7573d5f803e3d5ffd5b505050506040513d601f19601f820116820180604052508101906124eb9190615130565b6001600160a01b0390811682528981165f908152603860209081526040918290205460ff16818501528151635eb88d3d60e01b8152825192909401937f000000000000000000000000000000000000000000000000000000000000000090931692635eb88d3d92600480830193928290030181865afa158015612570573d5f803e3d5ffd5b505050506040513d601f19601f820116820180604052508101906125949190615130565b6001600160a01b03168152506040518663ffffffff1660e01b8152600401610f7095949392919061559b565b6125c8613503565b6001600160a01b0381165f908152603460205260408120906125e9826138a4565b905061186a8282613cc4565b5f604051806101c001604052808d6001600160a01b031681526020018c8c808060200260200160405190810160405280939291908181526020018383602002808284375f920191909152505050908252506040805160208c810282810182019093528c82529283019290918d918d9182918501908490808284375f920191909152505050908252506040805160208a810282810182019093528a82529283019290918b918b9182918501908490808284375f920191909152505050908252506001600160a01b03871660208083019190915260408051601f880183900483028101830182528781529201919087908790819084018382808284375f92018290525093855250505061ffff808616602080850191909152603a546001600160801b03600160801b8204811660408088019190915291166060860152603b54600160401b900490921660808501526001600160a01b037f0000000000000000000000000000000000000000000000000000000000000000811660a086018190523060c0870152908b16845260388252928290205460ff1660e0850152815163383e6b8b60e11b815291516101009094019363707cd7169260048082019392918290030181865afa1580156127c9573d5f803e3d5ffd5b505050506040513d601f19601f820116820180604052508101906127ed9190615130565b60405163fa50f29760e01b81523360048201526001600160a01b03919091169063fa50f29790602401602060405180830381865afa158015612831573d5f803e3d5ffd5b505050506040513d601f19601f8201168201806040525081019061285591906154f5565b151590526001600160a01b0386165f9081526035602052604090819020905163173931f560e11b815291925073__$1aecd72e546835de8d2664e100f70770e0$__91632e7263ea916128b5916034916036916037919088906004016156f1565b5f6040518083038186803b1580156128cb575f80fd5b505af41580156128dd573d5f803e3d5ffd5b50505050505050505050505050505050565b6128f7613503565b6001600160a01b0382165f90815260346020526040902060030154600160a81b900461ffff1615158061295e57505f805260366020527f4cb2b152c1b54ce671907a93c300fd5aa72383a9d4ec19a81e3333632ae92e00546001600160a01b038381169116145b604051806040016040528060028152602001611c1960f11b815250906129975760405162461bcd60e51b81526004016110fc919061463b565b50604051636ae4381360e01b8152603460048201526001600160a01b038316602482015264ffffffffff8216604482015273__$5c81c34ced5c181849a1f58b32d6fe0e6c$__90636ae4381390606401611ae7565b6129f4613503565b6001600160801b03908116600160801b02911617603a55565b604080516001600160a01b038381165f8181526035602090815285822060c0860187525460a086019081528552603b54600160401b900461ffff1681860152848601929092528451631f94a27560e31b8152945190948594859485948594859473__$5c81c34ced5c181849a1f58b32d6fe0e6c$__946326ec273f9460349460369460379460608501937f0000000000000000000000000000000000000000000000000000000000000000169263fca513a8926004808401938290030181865afa158015612add573d5f803e3d5ffd5b505050506040513d601f19601f82011682018060405250810190612b019190615130565b6001600160a01b0390811682528e81165f908152603860209081526040918290205460ff90811694820194909452815160e08a901b6001600160e01b0319168152600481019890985260248801969096526044870194909452825151606487015293820151608486015291810151831660a4850152606081015190921660c48401526080909101511660e48201526101040160c060405180830381865af4158015612bae573d5f803e3d5ffd5b505050506040513d601f19601f82011682018060405250810190612bd2919061585a565b949c939b5091995097509550909350915050565b5f612bef613d1c565b60015490915060ff1680612c025750303b155b80612c0d57505f5481115b612c705760405162461bcd60e51b815260206004820152602e60248201527f436f6e747261637420696e7374616e63652068617320616c726561647920626560448201526d195b881a5b9a5d1a585b1a5e995960921b60648201526084016110fc565b60015460ff16158015612c8e576001805460ff1916811790555f8290555b7f00000000000000000000000000000000000000000000000000000000000000006001600160a01b0316836001600160a01b03161460405180604001604052806002815260200161189960f11b81525090612cfc5760405162461bcd60e51b81526004016110fc919061463b565b50801561186a576001805460ff19169055505050565b612d1a613d2e565b6040516343d9915960e11b81526001600160a01b038085166004830152831660248201526044810182905273__$5c81c34ced5c181849a1f58b32d6fe0e6c$__906387b322b2906064015f6040518083038186803b158015612d7a575f80fd5b505af4158015612d8c573d5f803e3d5ffd5b50505050505050565b6001600160a01b0381165f90815260346020526040812061172b90613e4e565b603b54606090600160401b900461ffff165f808267ffffffffffffffff811115612de157612de1614a41565b604051908082528060200260200182016040528015612e0a578160200160208202803683370190505b5090505f5b83811015612eaa575f818152603660205260409020546001600160a01b031615612e8a575f818152603660205260409020546001600160a01b031682612e5585846158a0565b81518110612e6557612e656158b3565b60200260200101906001600160a01b031690816001600160a01b031681525050612e98565b82612e94816158c7565b9350505b80612ea2816158c7565b915050612e0f565b5091038152919050565b6001600160a01b038681165f908152603460209081526040918290206004015482518084019093526002835261313160f01b918301919091529091163314612f0f5760405162461bcd60e51b81526004016110fc919061463b565b5073__$91b47d451814c731a99462488968bab857$__638a5dadd160346036603760356040518061012001604052808d6001600160a01b031681526020018c6001600160a01b031681526020018b6001600160a01b031681526020018a8152602001898152602001888152602001603b60089054906101000a900461ffff1661ffff1681526020017f00000000000000000000000000000000000000000000000000000000000000006001600160a01b031663fca513a86040518163ffffffff1660e01b8152600401602060405180830381865afa158015612ff3573d5f803e3d5ffd5b505050506040513d601f19601f820116820180604052508101906130179190615130565b6001600160a01b0390811682528d165f908152603860209081526040918290205460ff16920191909152516001600160e01b031960e088901b1681526130649594939291906004016158df565b5f6040518083038186803b15801561307a575f80fd5b505af415801561308c573d5f803e3d5ffd5b50505050505050505050565b5f805f806130e160368661ffff8181165f9081526020939093526040909220546001600160a01b0316926001600160801b03601083901c169260ff609084901c169260981c1690565b935093509350935061140c8484848433612394565b5f6130ff6136fa565b6001600160a01b0384165f818152603460205260409081902060395491516311ce864960e31b8152600481019190915260248101929092526044820185905260648201849052608482015273__$97e4eb0b6bcf9a716469ce15878e0c4184$__90638e7432489060a4016114ca565b5f805f8061317d603686613661565b925092509250611890838383611413565b613196613503565b604051631e3b414560e01b8152603460048201526001600160a01b038216602482015273__$5c81c34ced5c181849a1f58b32d6fe0e6c$__90631e3b4145906044016113e4565b60405163d505accf60e01b81525f906001600160a01b038a169063d505accf9061321790339030908d908b908b908b908b90600401615203565b5f604051808303815f87803b15801561322e575f80fd5b505af192505050801561323f575060015b505f6040518060a001604052808b6001600160a01b031681526020018a8152602001896002811115613273576132736152c7565b6002811115613284576132846152c7565b81526001600160a01b03891660208083018290525f6040938401819052918252603590528190209051632074aef360e11b815291925073__$83e702f37eeb79ca6ea8c03d9bc14d29cb$__916340e95de6916132ea9160349160369187906004016152fb565b602060405180830381865af4158015613305573d5f803e3d5ffd5b505050506040513d601f19601f820116820180604052508101906133299190615361565b9a9950505050505050505050565b61333f613503565b604080518082019091526002815261373760f01b60208201526001600160a01b03831661337f5760405162461bcd60e51b81526004016110fc919061463b565b506001600160a01b0382165f90815260346020526040902060030154600160a81b900461ffff161515806133e757505f805260366020527f4cb2b152c1b54ce671907a93c300fd5aa72383a9d4ec19a81e3333632ae92e00546001600160a01b038381169116145b604051806040016040528060028152602001611c1960f11b815250906134205760405162461bcd60e51b81526004016110fc919061463b565b506001600160a01b0382165f908152603460205260409020813581558190612232565b5f805f613451603685613ea4565b92509250925061223283833384611b17565b5f805f805f61347460368888613ede565b94509450945094509450612d8c8585858585610d98565b613493613503565b604080518082019091526002815261189b60f11b602082015260ff83166134cd5760405162461bcd60e51b81526004016110fc919061463b565b5060ff919091165f90815260376020526040902060020180546001600160801b0319166001600160801b03909216919091179055565b336001600160a01b03167f00000000000000000000000000000000000000000000000000000000000000006001600160a01b031663631adfca6040518163ffffffff1660e01b8152600401602060405180830381865afa158015613569573d5f803e3d5ffd5b505050506040513d601f19601f8201168201806040525081019061358d9190615130565b6001600160a01b03161460405180604001604052806002815260200161031360f41b815250906135d05760405162461bcd60e51b81526004016110fc919061463b565b50565b60038101545f90600160801b900464ffffffffff16428103613601575050600201546001600160801b031690565b600283015461150c906001600160801b038082169161362991600160801b9091041684613f63565b90613f6f565b50919050565b61ffff81165f908152602083905260409020546001600160a01b0316601082901c6001165b9250929050565b5f808061ffff8416601085901c6001600160801b0316609086901c60ff166002600160801b03198201613693575f1991505b61ffff9092165f908152602088905260409020546001600160a01b03169450925090509250925092565b5f8080808060a086901c63ffffffff1660c087901c60ff168280806136e28c8c613ea4565b919e909d50909b509499509297509295505050505050565b7f00000000000000000000000000000000000000000000000000000000000000006001600160a01b031663707cd7166040518163ffffffff1660e01b8152600401602060405180830381865afa158015613756573d5f803e3d5ffd5b505050506040513d601f19601f8201168201806040525081019061377a9190615130565b604051633933006760e11b81523360048201526001600160a01b03919091169063726600ce90602401602060405180830381865afa1580156137be573d5f803e3d5ffd5b505050506040513d601f19601f820116820180604052508101906137e291906154f5565b604051806040016040528060018152602001601b60f91b815250906135d05760405162461bcd60e51b81526004016110fc919061463b565b5f8061ffff8316601084901c6001600160801b03166002600160801b0319810161384257505f195b61ffff919091165f9081526020959095526040909420546001600160a01b03169492505050565b5f805f805f805f805f8061387d8c8c613661565b919e909d50909b609881901c63ffffffff169b5060b81c60ff169950975050505050505050565b6138ac614407565b6138b4614407565b6040805160208101825284548152610120830181905251901c61ffff1661010082015260018301546001600160801b0380821660608401819052604080850191909152600286015480831660a086018190526080860152600160801b93849004831660c086015283900490911660e08401526004808601546001600160a01b03908116610140860152600687015416610160850181905260038701549390930464ffffffffff16610180850152815163b1bf962d60e01b8152915163b1bf962d9280830192602092918290030181865afa158015613994573d5f803e3d5ffd5b505050506040513d601f19601f820116820180604052508101906139b89190615361565b60208201819052815292915050565b5f6139e38560a001518660200151613f6f90919063ffffffff16565b600787015460408051610100808201835260088b0154600160801b90046001600160801b03168252602080830189905282840188905260608301869052908a015160808301526001600160a01b0389811660a084015283519182019093528a54908190529394505f938493929092169163b90db31b919060c0820190600160fc1b1615151515815260098c0154600160801b90046001600160801b03166020918201526040805160e085811b6001600160e01b031916825284516004830152928401516024820152908301516044820152606083015160648201526080830151608482015260a08301516001600160a01b031660a482015260c0830151151560c482015291015160e4820152610104016040805180830381865afa158015613b0d573d5f803e3d5ffd5b505050506040513d601f19601f82011682018060405250810190613b319190615986565b91509150613b3e82613fb1565b6001890180546001600160801b03928316600160801b029216919091179055613b6681613fb1565b6002890180546001600160801b03928316600160801b029216919091179055604080516020810190915288548152613ba49051600160fc1b16151590565b15613c59578415613c0157613bb885613fb1565b600989018054601090613bdc908490600160801b90046001600160801b03166159a8565b92506101000a8154816001600160801b0302191690836001600160801b031602179055505b8315613c5957613c1084613fb1565b600989018054601090613c34908490600160801b90046001600160801b03166159cf565b92506101000a8154816001600160801b0302191690836001600160801b031602179055505b60608781015160a0808a0151604080518781525f602082015280820187905294850193909352608084015290516001600160a01b038916927f804c9b842b2748a22bb64b345453a3de7ca54a6ca45ce00d415894979e22897a92908290030190a25050505050505050565b600382015464ffffffffff428116600160801b9092041603613ce4575050565b613cee828261401d565b613cf882826140f4565b50600301805464ffffffffff60801b1916600160801b4264ffffffffff1602179055565b5f613d29600560016159ef565b905090565b7f00000000000000000000000000000000000000000000000000000000000000006001600160a01b031663707cd7166040518163ffffffff1660e01b8152600401602060405180830381865afa158015613d8a573d5f803e3d5ffd5b505050506040513d601f19601f82011682018060405250810190613dae9190615130565b604051637be53ca160e01b81523360048201526001600160a01b039190911690637be53ca190602401602060405180830381865afa158015613df2573d5f803e3d5ffd5b505050506040513d601f19601f82011682018060405250810190613e1691906154f5565b604051806040016040528060018152602001603160f81b815250906135d05760405162461bcd60e51b81526004016110fc919061463b565b60038101545f90600160801b900464ffffffffff16428103613e7c575050600101546001600160801b031690565b600183015461150c906001600160801b038082169161362991600160801b90910416846141c3565b61ffff8181165f908152602084905260409020546001600160a01b031690601083901c6001600160801b031690609084901c169250925092565b5f8080808061ffff87811690601089901c16602089901c6001600160a01b03166001600160801b03891660808a901c6001166002600160801b03198201613f24575f1991505b61ffff9485165f90815260209d909d526040808e2054949095168d5293909b20546001600160a01b039283169c92169a90995097509095509350505050565b5f61150c8383426141ff565b5f81156b019d971e4fe8401e740000001983900484111517613f8f575f80fd5b506b033b2e3c9fd0803ce800000091026b019d971e4fe8401e74000000010490565b5f6001600160801b038211156140195760405162461bcd60e51b815260206004820152602760248201527f53616665436173743a2076616c756520646f65736e27742066697420696e20316044820152663238206269747360c81b60648201526084016110fc565b5090565b60c081015115614088575f61403b8260c001518361018001516141c3565b9050614054826040015182613f6f90919063ffffffff16565b6060830181905261406490613fb1565b6001840180546001600160801b0319166001600160801b0392909216919091179055505b8051156140f0575f6140a38260e00151836101800151613f63565b90506140bc826080015182613f6f90919063ffffffff16565b60a083018190526140cc90613fb1565b6002840180546001600160801b0319166001600160801b0392909216919091179055505b5050565b8061010001515f03614104575050565b608081015181515f916141179190613f6f565b60a083015183519192505f9161412c91613f6f565b90505f61413983836158a0565b90505f6141548561010001518361432490919063ffffffff16565b90508015611b0f5761417b61417686606001518361434890919063ffffffff16565b613fb1565b6008870180545f906141979084906001600160801b03166159a8565b92506101000a8154816001600160801b0302191690836001600160801b03160217905550505050505050565b5f806141d664ffffffffff8416426158a0565b6141e09085615a02565b6301e1338090049050612255816b033b2e3c9fd0803ce80000006159ef565b5f8061421264ffffffffff8516846158a0565b9050805f03614230576b033b2e3c9fd0803ce800000091505061150c565b5f1981015f808060028511614245575f61424a565b600285035b925066038882915c400061425e8a80613f6f565b8161426b5761426b615a19565b0491506301e1338061427d838b613f6f565b8161428a5761428a615a19565b0490505f826142998688615a02565b6142a39190615a02565b6002900490505f82856142b6888a615a02565b6142c09190615a02565b6142ca9190615a02565b60069004905080826301e133806142e18a8f615a02565b6142eb9190615a2d565b614301906b033b2e3c9fd0803ce80000006159ef565b61430b91906159ef565b61431591906159ef565b9b9a5050505050505050505050565b5f8115611388198390048411151761433a575f80fd5b506127109102611388010490565b5f81156b033b2e3c9fd0803ce80000006002840419048411171561436a575f80fd5b506b033b2e3c9fd0803ce80000009190910260028204010490565b60408051610200810182525f6101e08201818152825260208201819052918101829052606081018290526080810182905260a0810182905260c0810182905260e08101829052610100810182905261012081018290526101408101829052610160810182905261018081018290526101a081018290526101c081019190915290565b604051806101a001604052805f81526020015f81526020015f81526020015f81526020015f81526020015f81526020015f81526020015f81526020015f815260200161445e60405180602001604052805f81525090565b81525f602082018190526040820181905260609091015290565b6001600160a01b03811681146135d0575f80fd5b803561449781614478565b919050565b80151581146135d0575f80fd5b5f805f805f60a086880312156144bd575f80fd5b85356144c881614478565b945060208601356144d881614478565b935060408601356144e881614478565b92506060860135915060808601356144ff8161449c565b809150509295509295909350565b803561ffff81168114614497575f80fd5b803560ff81168114614497575f80fd5b5f805f805f805f80610100898b031215614546575f80fd5b883561455181614478565b975060208901359650604089013561456881614478565b955061457660608a0161450d565b94506080890135935061458b60a08a0161451e565b925060c0890135915060e089013590509295985092959890939650565b5f80604083850312156145b9575f80fd5b82356145c481614478565b915060208301356145d481614478565b809150509250929050565b5f602082840312156145ef575f80fd5b61150c8261451e565b5f81518084525f5b8181101561461c57602081850181015186830182015201614600565b505f602082860101526020601f19601f83011685010191505092915050565b602081525f61150c60208301846145f8565b5f805f6060848603121561465f575f80fd5b833561466a81614478565b95602085013595506040909401359392505050565b5f6020828403121561468f575f80fd5b5035919050565b5f602082840312156146a6575f80fd5b813561150c81614478565b81515181526101e0810160208301516146d560208401826001600160801b03169052565b5060408301516146f060408401826001600160801b03169052565b50606083015161470b60608401826001600160801b03169052565b50608083015161472660808401826001600160801b03169052565b5060a083015161474160a08401826001600160801b03169052565b5060c083015161475a60c084018264ffffffffff169052565b5060e083015161477060e084018261ffff169052565b50610100838101516001600160a01b039081169184019190915261012080850151821690840152610140808501518216908401526101608085015190911690830152610180808401516001600160801b03908116918401919091526101a0808501518216908401526101c08085015191821681850152905b505092915050565b5f8083601f840112614800575f80fd5b50813567ffffffffffffffff811115614817575f80fd5b60208301915083602082850101111561365a575f80fd5b5f805f805f8060a08789031215614843575f80fd5b863561484e81614478565b9550602087013561485e81614478565b945060408701359350606087013567ffffffffffffffff811115614880575f80fd5b61488c89828a016147f0565b909450925061489f90506080880161450d565b90509295509295509295565b5f602082840312156148bb575f80fd5b61150c8261450d565b5f805f80608085870312156148d7575f80fd5b84356148e281614478565b93506020850135925060408501359150606085013561490081614478565b939692955090935050565b5f806040838503121561491c575f80fd5b823561492781614478565b915060208301356145d48161449c565b5f805f806080858703121561494a575f80fd5b843561495581614478565b935060208501359250604085013561496c81614478565b915061497a6060860161450d565b905092959194509250565b5f805f60608486031215614997575f80fd5b505081359360208301359350604090920135919050565b5f805f606084860312156149c0575f80fd5b83356149cb81614478565b92506020840135915060408401356149e281614478565b809150509250925092565b602081525f61ffff8084511660208401528060208501511660408401528060408501511660608401525060018060a01b036060840151166080830152608083015160a08084015261225560c08401826145f8565b634e487b7160e01b5f52604160045260245ffd5b6040516080810167ffffffffffffffff81118282101715614a7857614a78614a41565b60405290565b604051601f8201601f1916810167ffffffffffffffff81118282101715614aa757614aa7614a41565b604052919050565b5f8060408385031215614ac0575f80fd5b614ac98361451e565b915060208084013567ffffffffffffffff80821115614ae6575f80fd5b9085019060808288031215614af9575f80fd5b614b01614a55565b614b0a8361450d565b8152614b1784840161450d565b84820152614b276040840161450d565b6040820152606083013582811115614b3d575f80fd5b80840193505087601f840112614b51575f80fd5b823582811115614b6357614b63614a41565b614b75601f8201601f19168601614a7e565b92508083528885828601011115614b8a575f80fd5b80858501868501375f85828501015250816060820152809450505050509250929050565b815151815261022081016020830151614bd260208401826001600160801b03169052565b506040830151614bed60408401826001600160801b03169052565b506060830151614c0860608401826001600160801b03169052565b506080830151614c2360808401826001600160801b03169052565b5060a0830151614c3e60a08401826001600160801b03169052565b5060c0830151614c5760c084018264ffffffffff169052565b5060e0830151614c6d60e084018261ffff169052565b506101008381015164ffffffffff1690830152610120808401516001600160a01b0390811691840191909152610140808501518216908401526101608085015182169084015261018080850151909116908301526101a0808401516001600160801b03908116918401919091526101c0808501518216908401526101e0808501518216908401526102008085015191821681850152906147e8565b5f805f8060808587031215614d1b575f80fd5b8435614d2681614478565b93506020850135614d3681614478565b92506040850135614d4681614478565b9150606085013561490081614478565b80356001600160801b0381168114614497575f80fd5b5f8060408385031215614d7d575f80fd5b614d868361451e565b9150614d9460208401614d56565b90509250929050565b5f8083601f840112614dad575f80fd5b50813567ffffffffffffffff811115614dc4575f80fd5b6020830191508360208260051b850101111561365a575f80fd5b5f8060208385031215614def575f80fd5b823567ffffffffffffffff811115614e05575f80fd5b614e1185828601614d9d565b90969095509350505050565b5f805f805f60a08688031215614e31575f80fd5b8535614e3c81614478565b94506020860135935060408601359250614e586060870161450d565b915060808601356144ff81614478565b5f805f805f805f805f805f60e08c8e031215614e82575f80fd5b614e8b8c61448c565b9a5067ffffffffffffffff8060208e01351115614ea6575f80fd5b614eb68e60208f01358f01614d9d565b909b50995060408d0135811015614ecb575f80fd5b614edb8e60408f01358f01614d9d565b909950975060608d0135811015614ef0575f80fd5b614f008e60608f01358f01614d9d565b9097509550614f1160808e0161448c565b94508060a08e01351115614f23575f80fd5b50614f348d60a08e01358e016147f0565b9093509150614f4560c08d0161450d565b90509295989b509295989b9093969950565b5f8060408385031215614f68575f80fd5b8235614f7381614478565b9150602083013564ffffffffff811681146145d4575f80fd5b5f8060408385031215614f9d575f80fd5b614d8683614d56565b5f805f60608486031215614fb8575f80fd5b8335614fc381614478565b92506020840135614fd381614478565b929592945050506040919091013590565b602080825282518282018190525f9190848201906040850190845b818110156150245783516001600160a01b031683529284019291840191600101614fff565b50909695505050505050565b5f805f805f8060c08789031215615045575f80fd5b863561505081614478565b9550602087013561506081614478565b9450604087013561507081614478565b959894975094956060810135955060808101359460a0909101359350915050565b5f805f805f805f80610100898b0312156150a9575f80fd5b88356150b481614478565b97506020890135965060408901359550606089013561457681614478565b5f8082840360408112156150e4575f80fd5b83356150ef81614478565b92506020601f1982011215615102575f80fd5b506020830190509250929050565b5f8060408385031215615121575f80fd5b50508035926020909101359150565b5f60208284031215615140575f80fd5b815161150c81614478565b5f6101a08201905086825285602083015284604083015283606083015282516080830152602083015160a0830152604083015160018060a01b0380821660c08501528060608601511660e0850152505060808301516101006151b7818501836001600160a01b03169052565b60a0850151151561012085015260c08501516001600160a01b0390811661014086015260e086015160ff166101608601529085015190811661018085015290505b509695505050505050565b6001600160a01b0397881681529590961660208601526040850193909352606084019190915260ff16608083015260a082015260c081019190915260e00190565b93845260208085019390935260408085019290925280516001600160a01b039081166060808701919091529382015160808601529181015190911660a0840152015161ffff1660c082015260e00190565b600181811c908216806152a957607f821691505b60208210810361362f57634e487b7160e01b5f52602260045260245ffd5b634e487b7160e01b5f52602160045260245ffd5b600381106152f757634e487b7160e01b5f52602160045260245ffd5b9052565b8481526020808201859052604080830185905283516001600160a01b0390811660608501529184015160808401528301516101008301919061534060a08501826152db565b5060608401511660c0830152608090920151151560e0909101529392505050565b5f60208284031215615371575f80fd5b5051919050565b828152604060208201525f60018060a01b038084511660408401528060208501511660608401525060408301516080830152606083015160e060a08401526153c46101208401826145f8565b905061ffff60808501511660c084015260a084015160e084015260c0840151610100840152809150509392505050565b601f82111561186a575f81815260208120601f850160051c8101602086101561541a5750805b601f850160051c820191505b81811015611b0f57828155600101615426565b815167ffffffffffffffff81111561545357615453614a41565b615467816154618454615295565b846153f4565b602080601f83116001811461549a575f84156154835750858301515b5f19600386901b1c1916600185901b178555611b0f565b5f85815260208120601f198616915b828110156154c8578886015182559484019460019091019084016154a9565b50858210156154e557878501515f19600388901b60f8161c191681555b5050505050600190811b01905550565b5f60208284031215615505575f80fd5b815161150c8161449c565b634e487b7160e01b5f52601160045260245ffd5b5f61ffff80831681810361553a5761553a615510565b6001019392505050565b838152604060208083018290529082018390525f90849060608401835b8681101561558f57833561557481614478565b6001600160a01b031682529282019290820190600101615561565b50979650505050505050565b85815260208101859052604081018490526060810183905281516001600160a01b031660808201526101e0810160208301516001600160a01b03811660a08401525060408301516001600160a01b03811660c084015250606083015160e08301526080830151610100615610818501836152db565b60a085015191506101206156298186018461ffff169052565b60c086015192506101406156408187018515159052565b60e0870151610160870152918601516001600160a01b039081166101808701529086015160ff166101a0860152908501519081166101c085015290506151f8565b5f8151808452602080850194508084015f5b838110156156b85781516001600160a01b031687529582019590820190600101615693565b509495945050505050565b5f8151808452602080850194508084015f5b838110156156b8578151875295820195908201906001016156d5565b85815284602082015283604082015282606082015260a0608082015261572360a0820183516001600160a01b03169052565b5f60208301516101c08060c0850152615740610260850183615681565b91506040850151609f19808685030160e087015261575e84836156c3565b93506060870151915061010081878603018188015261577d85846156c3565b94506080880151925061012061579d818901856001600160a01b03169052565b60a089015193506101408389880301818a01526157ba87866145f8565b965060c08a0151945061016093506157d7848a018661ffff169052565b60e08a0151945061018085818b0152838b015195506101a0935085848b0152828b0151878b0152818b0151965061581a6101e08b01886001600160a01b03169052565b848b01516001600160a01b03166102008b01528a015160ff81166102208b01529550615844915050565b870151801515610240880152925061558f915050565b5f805f805f8060c0878903121561586f575f80fd5b865195506020870151945060408701519350606087015192506080870151915060a087015190509295509295509295565b8181038181111561172b5761172b615510565b634e487b7160e01b5f52603260045260245ffd5b5f600182016158d8576158d8615510565b5060010190565b858152602080820186905260408083018690526060830185905283516001600160a01b03908116608085015291840151821660a084015283015190811660c08301526101a082019050606083015160e08301526080830151610100818185015260a085015161012085015260c085015161014085015260e085015191506159726101608501836001600160a01b03169052565b84015160ff811661018085015290506151f8565b5f8060408385031215615997575f80fd5b505080516020909101519092909150565b6001600160801b038181168382160190808211156159c8576159c8615510565b5092915050565b6001600160801b038281168282160390808211156159c8576159c8615510565b8082018082111561172b5761172b615510565b808202811582820484141761172b5761172b615510565b634e487b7160e01b5f52601260045260245ffd5b5f82615a4757634e487b7160e01b5f52601260045260245ffd5b50049056fea164736f6c6343000814000a","linkReferences":{"src/contracts/protocol/libraries/logic/BorrowLogic.sol":{"BorrowLogic":[{"start":1539,"length":20},{"start":5384,"length":20},{"start":6542,"length":20},{"start":9352,"length":20},{"start":13230,"length":20}]},"src/contracts/protocol/libraries/logic/BridgeLogic.sol":{"BridgeLogic":[{"start":3500,"length":20},{"start":8012,"length":20},{"start":12862,"length":20}]},"src/contracts/protocol/libraries/logic/EModeLogic.sol":{"EModeLogic":[{"start":3607,"length":20},{"start":4977,"length":20}]},"src/contracts/protocol/libraries/logic/FlashLoanLogic.sol":{"FlashLoanLogic":[{"start":1603,"length":20},{"start":6372,"length":20},{"start":10613,"length":20}]},"src/contracts/protocol/libraries/logic/LiquidationLogic.sol":{"LiquidationLogic":[{"start":2785,"length":20},{"start":3724,"length":20}]},"src/contracts/protocol/libraries/logic/PoolLogic.sol":{"PoolLogic":[{"start":3398,"length":20},{"start":7401,"length":20},{"start":8614,"length":20},{"start":9305,"length":20},{"start":10940,"length":20},{"start":11105,"length":20},{"start":11833,"length":20},{"start":12973,"length":20}]},"src/contracts/protocol/libraries/logic/SupplyLogic.sol":{"SupplyLogic":[{"start":2675,"length":20},{"start":4419,"length":20},{"start":6795,"length":20},{"start":7254,"length":20},{"start":7480,"length":20},{"start":12292,"length":20}]}}},"methodIdentifiers":{"ADDRESSES_PROVIDER()":"0542975c","BRIDGE_PROTOCOL_FEE()":"272d9072","FLASHLOAN_PREMIUM_TOTAL()":"074b2e43","FLASHLOAN_PREMIUM_TO_PROTOCOL()":"6a99c036","MAX_NUMBER_RESERVES()":"f8119d51","POOL_REVISION()":"0148170e","backUnbacked(address,uint256,uint256)":"d65dc7a1","borrow(address,uint256,uint256,uint16,address)":"a415bcad","borrow(bytes32)":"d5eed868","configureEModeCategory(uint8,(uint16,uint16,uint16,string))":"7b75d7f4","configureEModeCategoryBorrowableBitmap(uint8,uint128)":"ff72158a","configureEModeCategoryCollateralBitmap(uint8,uint128)":"92380ecb","deposit(address,uint256,address,uint16)":"e8eda9df","dropReserve(address)":"63c9b860","finalizeTransfer(address,address,address,uint256,uint256,uint256)":"d5ed3933","flashLoan(address,address[],uint256[],uint256[],address,bytes,uint16)":"ab9c4b5d","flashLoanSimple(address,address,uint256,bytes,uint16)":"42b0b77c","getBorrowLogic()":"2be29fa7","getBridgeLogic()":"df374c36","getConfiguration(address)":"c44b11f7","getEModeCategoryBorrowableBitmap(uint8)":"903a2c71","getEModeCategoryCollateralBitmap(uint8)":"b0771dba","getEModeCategoryCollateralConfig(uint8)":"b286f467","getEModeCategoryData(uint8)":"6c6f6ae1","getEModeCategoryLabel(uint8)":"2083e183","getEModeLogic()":"f32b9a73","getFlashLoanLogic()":"348fde0f","getLiquidationGracePeriod(address)":"5c9a8b18","getLiquidationLogic()":"911a3413","getPoolLogic()":"d3350155","getReserveAddressById(uint16)":"52751797","getReserveData(address)":"35ea6a75","getReserveDataExtended(address)":"8381995f","getReserveNormalizedIncome(address)":"d15e0053","getReserveNormalizedVariableDebt(address)":"386497fd","getReservesCount()":"72218d04","getReservesList()":"d1946dbc","getSupplyLogic()":"870e7744","getUserAccountData(address)":"bf92857c","getUserConfiguration(address)":"4417a583","getUserEMode(address)":"eddf1b79","getVirtualUnderlyingBalance(address)":"6fb07f96","initReserve(address,address,address,address)":"8bd25677","initialize(address)":"c4d66de8","liquidationCall(address,address,address,uint256,bool)":"00a718a9","liquidationCall(bytes32,bytes32)":"fd21ecff","mintToTreasury(address[])":"9cd19996","mintUnbacked(address,uint256,address,uint16)":"69a933a5","repay(address,uint256,uint256,address)":"573ade81","repay(bytes32)":"563dd613","repayWithATokens(address,uint256,uint256)":"2dad97d4","repayWithATokens(bytes32)":"dc7c0bff","repayWithPermit(address,uint256,uint256,address,uint256,uint8,bytes32,bytes32)":"ee3e210b","repayWithPermit(bytes32,bytes32,bytes32)":"94b576de","rescueTokens(address,address,uint256)":"cea9d26f","resetIsolationModeTotalDebt(address)":"e43e88a1","setConfiguration(address,(uint256))":"f51e435b","setLiquidationGracePeriod(address,uint40)":"b1a99e26","setReserveInterestRateStrategyAddress(address,address)":"1d2118f9","setUserEMode(uint8)":"28530a47","setUserUseReserveAsCollateral(address,bool)":"5a3b74b9","setUserUseReserveAsCollateral(bytes32)":"4d013f03","supply(address,uint256,address,uint16)":"617ba037","supply(bytes32)":"f7a73840","supplyWithPermit(address,uint256,address,uint16,uint256,uint8,bytes32,bytes32)":"02c205f0","supplyWithPermit(bytes32,bytes32,bytes32)":"680dd47c","syncIndexesState(address)":"ab2b51f6","syncRatesState(address)":"98c7da4e","updateBridgeProtocolFee(uint256)":"3036b439","updateFlashloanPremiums(uint128,uint128)":"bcb6e522","withdraw(address,uint256,address)":"69328dec","withdraw(bytes32)":"8e19899e"},"id":185}