{"abi":[{"type":"function","name":"getManager","inputs":[],"outputs":[{"name":"","type":"address","internalType":"address"}],"stateMutability":"view"},{"type":"function","name":"initialize","inputs":[{"name":"manager","type":"address","internalType":"address"},{"name":"value","type":"uint256","internalType":"uint256"}],"outputs":[],"stateMutability":"nonpayable"},{"type":"function","name":"setManager","inputs":[{"name":"newManager","type":"address","internalType":"address"}],"outputs":[],"stateMutability":"nonpayable"}],"bytecode":{"object":"0x608060405234801561000f575f80fd5b506101358061001d5f395ff3fe608060405234801561000f575f80fd5b506004361061003f575f3560e01c8063cd6dc68714610043578063d0ebdbe714610078578063d5009584146100a7575b5f80fd5b6100766100513660046100e0565b5f80546001600160a01b0319166001600160a01b039390931692909217909155600155565b005b610076610086366004610108565b5f80546001600160a01b0319166001600160a01b0392909216919091179055565b5f54604080516001600160a01b039092168252519081900360200190f35b80356001600160a01b03811681146100db575f80fd5b919050565b5f80604083850312156100f1575f80fd5b6100fa836100c5565b946020939093013593505050565b5f60208284031215610118575f80fd5b610121826100c5565b939250505056fea164736f6c6343000814000a","linkReferences":{}},"methodIdentifiers":{"getManager()":"d5009584","initialize(address,uint256)":"cd6dc687","setManager(address)":"d0ebdbe7"},"id":186}