{"abi":[{"type":"function","name":"REVISION","inputs":[],"outputs":[{"name":"","type":"uint256","internalType":"uint256"}],"stateMutability":"view"},{"type":"function","name":"initialize","inputs":[{"name":"val","type":"uint256","internalType":"uint256"},{"name":"txt","type":"string","internalType":"string"},{"name":"vals","type":"uint256[]","internalType":"uint256[]"}],"outputs":[],"stateMutability":"nonpayable"},{"type":"function","name":"setValue","inputs":[{"name":"newValue","type":"uint256","internalType":"uint256"}],"outputs":[],"stateMutability":"nonpayable"},{"type":"function","name":"setValueViaProxy","inputs":[{"name":"newValue","type":"uint256","internalType":"uint256"}],"outputs":[],"stateMutability":"nonpayable"},{"type":"function","name":"text","inputs":[],"outputs":[{"name":"","type":"string","internalType":"string"}],"stateMutability":"view"},{"type":"function","name":"value","inputs":[],"outputs":[{"name":"","type":"uint256","internalType":"uint256"}],"stateMutability":"view"},{"type":"function","name":"values","inputs":[{"name":"","type":"uint256","internalType":"uint256"}],"outputs":[{"name":"","type":"uint256","internalType":"uint256"}],"stateMutability":"view"}],"bytecode":{"object":"0x60806040525f8055348015610012575f80fd5b50610608806100205f395ff3fe608060405234801561000f575f80fd5b506004361061007a575f3560e01c80635dd21610116100585780635dd21610146100b35780635e383d21146100c8578063d31f8b6b146100db578063dde43cba146100ee575f80fd5b80631f1bd6921461007e5780633fa4f2451461009c57806355241077146100b3575b5f80fd5b6100866100f6565b60405161009391906102dd565b60405180910390f35b6100a560345481565b604051908152602001610093565b6100c66100c1366004610328565b603455565b005b6100a56100d6366004610328565b610182565b6100c66100e9366004610401565b6101a1565b6100a5600181565b60358054610103906104b9565b80601f016020809104026020016040519081016040528092919081815260200182805461012f906104b9565b801561017a5780601f106101515761010080835404028352916020019161017a565b820191905f5260205f20905b81548152906001019060200180831161015d57829003601f168201915b505050505081565b60368181548110610191575f80fd5b5f91825260209091200154905081565b6001805460ff16806101b25750303b155b806101bd57505f5481115b6102245760405162461bcd60e51b815260206004820152602e60248201527f436f6e747261637420696e7374616e63652068617320616c726561647920626560448201526d195b881a5b9a5d1a585b1a5e995960921b606482015260840160405180910390fd5b60015460ff16158015610242576001805460ff1916811790555f8290555b60348590556035610253858261053f565b508251610267906036906020860190610280565b508015610279576001805460ff191690555b5050505050565b828054828255905f5260205f209081019282156102b9579160200282015b828111156102b957825182559160200191906001019061029e565b506102c59291506102c9565b5090565b5b808211156102c5575f81556001016102ca565b5f6020808352835180828501525f5b81811015610308578581018301518582016040015282016102ec565b505f604082860101526040601f19601f8301168501019250505092915050565b5f60208284031215610338575f80fd5b5035919050565b634e487b7160e01b5f52604160045260245ffd5b604051601f8201601f1916810167ffffffffffffffff8111828210171561037c5761037c61033f565b604052919050565b5f82601f830112610393575f80fd5b8135602067ffffffffffffffff8211156103af576103af61033f565b8160051b6103be828201610353565b92835284810182019282810190878511156103d7575f80fd5b83870192505b848310156103f6578235825291830191908301906103dd565b979650505050505050565b5f805f60608486031215610413575f80fd5b8335925060208085013567ffffffffffffffff80821115610432575f80fd5b818701915087601f830112610445575f80fd5b8135818111156104575761045761033f565b610469601f8201601f19168501610353565b818152898583860101111561047c575f80fd5b81858501868301375f91810190940152919350604086013591808311156104a1575f80fd5b50506104af86828701610384565b9150509250925092565b600181811c908216806104cd57607f821691505b6020821081036104eb57634e487b7160e01b5f52602260045260245ffd5b50919050565b601f82111561053a575f81815260208120601f850160051c810160208610156105175750805b601f850160051c820191505b8181101561053657828155600101610523565b5050505b505050565b815167ffffffffffffffff8111156105595761055961033f565b61056d8161056784546104b9565b846104f1565b602080601f8311600181146105a0575f84156105895750858301515b5f19600386901b1c1916600185901b178555610536565b5f85815260208120601f198616915b828110156105ce578886015182559484019460019091019084016105af565b50858210156105eb57878501515f19600388901b60f8161c191681555b5050505050600190811b0190555056fea164736f6c6343000814000a","linkReferences":{}},"methodIdentifiers":{"REVISION()":"dde43cba","initialize(uint256,string,uint256[])":"d31f8b6b","setValue(uint256)":"55241077","setValueViaProxy(uint256)":"5dd21610","text()":"1f1bd692","value()":"3fa4f245","values(uint256)":"5e383d21"},"id":211}