{
  "_format": "hh-sol-artifact-1",
  "contractName": "MockReentrantInitializableImple",
  "sourceName": "contracts/mocks/upgradeability/MockInitializableImplementation.sol",
  "abi": [
    {
      "inputs": [],
      "name": "REVISION",
      "outputs": [
        {
          "internalType": "uint256",
          "name": "",
          "type": "uint256"
        }
      ],
      "stateMutability": "view",
      "type": "function"
    },
    {
      "inputs": [
        {
          "internalType": "uint256",
          "name": "val",
          "type": "uint256"
        }
      ],
      "name": "initialize",
      "outputs": [],
      "stateMutability": "nonpayable",
      "type": "function"
    },
    {
      "inputs": [],
      "name": "value",
      "outputs": [
        {
          "internalType": "uint256",
          "name": "",
          "type": "uint256"
        }
      ],
      "stateMutability": "view",
      "type": "function"
    }
  ],
  "bytecode": "0x60806040526000805534801561001457600080fd5b5061024c806100246000396000f3fe608060405234801561001057600080fd5b50600436106100415760003560e01c80633fa4f24514610046578063dde43cba14610061578063fe4b84df14610069575b600080fd5b61004f60345481565b60405190815260200160405180910390f35b61004f600281565b61007c6100773660046101be565b61007e565b005b60015460029060ff16806100915750303b155b8061009d575060005481115b61012d576040517f08c379a000000000000000000000000000000000000000000000000000000000815260206004820152602e60248201527f436f6e747261637420696e7374616e63652068617320616c726561647920626560448201527f656e20696e697469616c697a6564000000000000000000000000000000000000606482015260840160405180910390fd5b60015460ff1615801561016a57600180547fffffffffffffffffffffffffffffffffffffffffffffffffffffffffffffff00168117905560008290555b6034839055600283101561018a5761018a603454600161007791906101d7565b80156101b957600180547fffffffffffffffffffffffffffffffffffffffffffffffffffffffffffffff001690555b505050565b6000602082840312156101d057600080fd5b5035919050565b60008219821115610211577f4e487b7100000000000000000000000000000000000000000000000000000000600052601160045260246000fd5b50019056fea2646970667358221220e7ceb3d99f86a154c41725a572894f578a92d068da86d7196856f76cac16ceb964736f6c634300080a0033",
  "linkReferences": {},
  "deployedLinkReferences": {}
}