{"abi":[{"type":"function","name":"handleAction","inputs":[{"name":"","type":"address","internalType":"address"},{"name":"","type":"uint256","internalType":"uint256"},{"name":"","type":"uint256","internalType":"uint256"}],"outputs":[],"stateMutability":"nonpayable"}],"bytecode":{"object":"0x6080604052348015600e575f80fd5b5060848061001b5f395ff3fe6080604052348015600e575f80fd5b50600436106026575f3560e01c806331873e2e14602a575b5f80fd5b603a6035366004603c565b505050565b005b5f805f60608486031215604d575f80fd5b83356001600160a01b03811681146062575f80fd5b9560208501359550604090940135939250505056fea164736f6c6343000814000a","linkReferences":{}},"methodIdentifiers":{"handleAction(address,uint256,uint256)":"31873e2e"},"id":184}