{"abi":[{"type":"constructor","inputs":[{"name":"val","type":"uint256","internalType":"uint256"}],"stateMutability":"nonpayable"},{"type":"function","name":"REVISION","inputs":[],"outputs":[{"name":"","type":"uint256","internalType":"uint256"}],"stateMutability":"view"},{"type":"function","name":"initialize","inputs":[{"name":"val","type":"uint256","internalType":"uint256"}],"outputs":[],"stateMutability":"nonpayable"},{"type":"function","name":"value","inputs":[],"outputs":[{"name":"","type":"uint256","internalType":"uint256"}],"stateMutability":"view"}],"bytecode":{"object":"0x60806040525f8055348015610012575f80fd5b5060405161027f38038061027f833981016040819052610031916100fe565b61003a81610040565b50610115565b60015460029060ff16806100535750303b155b8061005e57505f5481115b6100c55760405162461bcd60e51b815260206004820152602e60248201527f436f6e747261637420696e7374616e63652068617320616c726561647920626560448201526d195b881a5b9a5d1a585b1a5e995960921b606482015260840160405180910390fd5b60015460ff161580156100e3576001805460ff1916811790555f8290555b603483905580156100f9576001805460ff191690555b505050565b5f6020828403121561010e575f80fd5b5051919050565b61015d806101225f395ff3fe608060405234801561000f575f80fd5b506004361061003f575f3560e01c80633fa4f24514610043578063dde43cba1461005e578063fe4b84df14610066575b5f80fd5b61004c60345481565b60405190815260200160405180910390f35b61004c600281565b610079610074366004610139565b61007b565b005b60015460029060ff168061008e5750303b155b8061009957505f5481115b6101005760405162461bcd60e51b815260206004820152602e60248201527f436f6e747261637420696e7374616e63652068617320616c726561647920626560448201526d195b881a5b9a5d1a585b1a5e995960921b606482015260840160405180910390fd5b60015460ff1615801561011e576001805460ff1916811790555f8290555b60348390558015610134576001805460ff191690555b505050565b5f60208284031215610149575f80fd5b503591905056fea164736f6c6343000814000a","linkReferences":{}},"methodIdentifiers":{"REVISION()":"dde43cba","initialize(uint256)":"fe4b84df","value()":"3fa4f245"},"id":211}