{"abi":[{"type":"constructor","inputs":[{"name":"provider","type":"address","internalType":"contract IPoolAddressesProvider"}],"stateMutability":"nonpayable"},{"type":"function","name":"ADDRESSES_PROVIDER","inputs":[],"outputs":[{"name":"","type":"address","internalType":"contract IPoolAddressesProvider"}],"stateMutability":"view"},{"type":"function","name":"BRIDGE_PROTOCOL_FEE","inputs":[],"outputs":[{"name":"","type":"uint256","internalType":"uint256"}],"stateMutability":"view"},{"type":"function","name":"FLASHLOAN_PREMIUM_TOTAL","inputs":[],"outputs":[{"name":"","type":"uint128","internalType":"uint128"}],"stateMutability":"view"},{"type":"function","name":"FLASHLOAN_PREMIUM_TO_PROTOCOL","inputs":[],"outputs":[{"name":"","type":"uint128","internalType":"uint128"}],"stateMutability":"view"},{"type":"function","name":"MAX_NUMBER_RESERVES","inputs":[],"outputs":[{"name":"","type":"uint16","internalType":"uint16"}],"stateMutability":"view"},{"type":"function","name":"POOL_REVISION","inputs":[],"outputs":[{"name":"","type":"uint256","internalType":"uint256"}],"stateMutability":"view"},{"type":"function","name":"backUnbacked","inputs":[{"name":"asset","type":"address","internalType":"address"},{"name":"amount","type":"uint256","internalType":"uint256"},{"name":"fee","type":"uint256","internalType":"uint256"}],"outputs":[{"name":"","type":"uint256","internalType":"uint256"}],"stateMutability":"nonpayable"},{"type":"function","name":"borrow","inputs":[{"name":"asset","type":"address","internalType":"address"},{"name":"amount","type":"uint256","internalType":"uint256"},{"name":"interestRateMode","type":"uint256","internalType":"uint256"},{"name":"referralCode","type":"uint16","internalType":"uint16"},{"name":"onBehalfOf","type":"address","internalType":"address"}],"outputs":[],"stateMutability":"nonpayable"},{"type":"function","name":"configureEModeCategory","inputs":[{"name":"id","type":"uint8","internalType":"uint8"},{"name":"category","type":"tuple","internalType":"struct DataTypes.EModeCategoryBaseConfiguration","components":[{"name":"ltv","type":"uint16","internalType":"uint16"},{"name":"liquidationThreshold","type":"uint16","internalType":"uint16"},{"name":"liquidationBonus","type":"uint16","internalType":"uint16"},{"name":"label","type":"string","internalType":"string"}]}],"outputs":[],"stateMutability":"nonpayable"},{"type":"function","name":"configureEModeCategoryBorrowableBitmap","inputs":[{"name":"id","type":"uint8","internalType":"uint8"},{"name":"borrowableBitmap","type":"uint128","internalType":"uint128"}],"outputs":[],"stateMutability":"nonpayable"},{"type":"function","name":"configureEModeCategoryCollateralBitmap","inputs":[{"name":"id","type":"uint8","internalType":"uint8"},{"name":"collateralBitmap","type":"uint128","internalType":"uint128"}],"outputs":[],"stateMutability":"nonpayable"},{"type":"function","name":"deposit","inputs":[{"name":"asset","type":"address","internalType":"address"},{"name":"amount","type":"uint256","internalType":"uint256"},{"name":"onBehalfOf","type":"address","internalType":"address"},{"name":"referralCode","type":"uint16","internalType":"uint16"}],"outputs":[],"stateMutability":"nonpayable"},{"type":"function","name":"dropReserve","inputs":[{"name":"asset","type":"address","internalType":"address"}],"outputs":[],"stateMutability":"nonpayable"},{"type":"function","name":"finalizeTransfer","inputs":[{"name":"asset","type":"address","internalType":"address"},{"name":"from","type":"address","internalType":"address"},{"name":"to","type":"address","internalType":"address"},{"name":"amount","type":"uint256","internalType":"uint256"},{"name":"balanceFromBefore","type":"uint256","internalType":"uint256"},{"name":"balanceToBefore","type":"uint256","internalType":"uint256"}],"outputs":[],"stateMutability":"nonpayable"},{"type":"function","name":"flashLoan","inputs":[{"name":"receiverAddress","type":"address","internalType":"address"},{"name":"assets","type":"address[]","internalType":"address[]"},{"name":"amounts","type":"uint256[]","internalType":"uint256[]"},{"name":"interestRateModes","type":"uint256[]","internalType":"uint256[]"},{"name":"onBehalfOf","type":"address","internalType":"address"},{"name":"params","type":"bytes","internalType":"bytes"},{"name":"referralCode","type":"uint16","internalType":"uint16"}],"outputs":[],"stateMutability":"nonpayable"},{"type":"function","name":"flashLoanSimple","inputs":[{"name":"receiverAddress","type":"address","internalType":"address"},{"name":"asset","type":"address","internalType":"address"},{"name":"amount","type":"uint256","internalType":"uint256"},{"name":"params","type":"bytes","internalType":"bytes"},{"name":"referralCode","type":"uint16","internalType":"uint16"}],"outputs":[],"stateMutability":"nonpayable"},{"type":"function","name":"getBorrowLogic","inputs":[],"outputs":[{"name":"","type":"address","internalType":"address"}],"stateMutability":"pure"},{"type":"function","name":"getBridgeLogic","inputs":[],"outputs":[{"name":"","type":"address","internalType":"address"}],"stateMutability":"pure"},{"type":"function","name":"getConfiguration","inputs":[{"name":"asset","type":"address","internalType":"address"}],"outputs":[{"name":"","type":"tuple","internalType":"struct DataTypes.ReserveConfigurationMap","components":[{"name":"data","type":"uint256","internalType":"uint256"}]}],"stateMutability":"view"},{"type":"function","name":"getEModeCategoryBorrowableBitmap","inputs":[{"name":"id","type":"uint8","internalType":"uint8"}],"outputs":[{"name":"","type":"uint128","internalType":"uint128"}],"stateMutability":"view"},{"type":"function","name":"getEModeCategoryCollateralBitmap","inputs":[{"name":"id","type":"uint8","internalType":"uint8"}],"outputs":[{"name":"","type":"uint128","internalType":"uint128"}],"stateMutability":"view"},{"type":"function","name":"getEModeCategoryCollateralConfig","inputs":[{"name":"id","type":"uint8","internalType":"uint8"}],"outputs":[{"name":"","type":"tuple","internalType":"struct DataTypes.CollateralConfig","components":[{"name":"ltv","type":"uint16","internalType":"uint16"},{"name":"liquidationThreshold","type":"uint16","internalType":"uint16"},{"name":"liquidationBonus","type":"uint16","internalType":"uint16"}]}],"stateMutability":"view"},{"type":"function","name":"getEModeCategoryData","inputs":[{"name":"id","type":"uint8","internalType":"uint8"}],"outputs":[{"name":"","type":"tuple","internalType":"struct DataTypes.EModeCategoryLegacy","components":[{"name":"ltv","type":"uint16","internalType":"uint16"},{"name":"liquidationThreshold","type":"uint16","internalType":"uint16"},{"name":"liquidationBonus","type":"uint16","internalType":"uint16"},{"name":"priceSource","type":"address","internalType":"address"},{"name":"label","type":"string","internalType":"string"}]}],"stateMutability":"view"},{"type":"function","name":"getEModeCategoryLabel","inputs":[{"name":"id","type":"uint8","internalType":"uint8"}],"outputs":[{"name":"","type":"string","internalType":"string"}],"stateMutability":"view"},{"type":"function","name":"getEModeLogic","inputs":[],"outputs":[{"name":"","type":"address","internalType":"address"}],"stateMutability":"pure"},{"type":"function","name":"getFlashLoanLogic","inputs":[],"outputs":[{"name":"","type":"address","internalType":"address"}],"stateMutability":"pure"},{"type":"function","name":"getLiquidationGracePeriod","inputs":[{"name":"asset","type":"address","internalType":"address"}],"outputs":[{"name":"","type":"uint40","internalType":"uint40"}],"stateMutability":"nonpayable"},{"type":"function","name":"getLiquidationLogic","inputs":[],"outputs":[{"name":"","type":"address","internalType":"address"}],"stateMutability":"pure"},{"type":"function","name":"getPoolLogic","inputs":[],"outputs":[{"name":"","type":"address","internalType":"address"}],"stateMutability":"pure"},{"type":"function","name":"getReserveAddressById","inputs":[{"name":"id","type":"uint16","internalType":"uint16"}],"outputs":[{"name":"","type":"address","internalType":"address"}],"stateMutability":"view"},{"type":"function","name":"getReserveData","inputs":[{"name":"asset","type":"address","internalType":"address"}],"outputs":[{"name":"","type":"tuple","internalType":"struct DataTypes.ReserveDataLegacy","components":[{"name":"configuration","type":"tuple","internalType":"struct DataTypes.ReserveConfigurationMap","components":[{"name":"data","type":"uint256","internalType":"uint256"}]},{"name":"liquidityIndex","type":"uint128","internalType":"uint128"},{"name":"currentLiquidityRate","type":"uint128","internalType":"uint128"},{"name":"variableBorrowIndex","type":"uint128","internalType":"uint128"},{"name":"currentVariableBorrowRate","type":"uint128","internalType":"uint128"},{"name":"currentStableBorrowRate","type":"uint128","internalType":"uint128"},{"name":"lastUpdateTimestamp","type":"uint40","internalType":"uint40"},{"name":"id","type":"uint16","internalType":"uint16"},{"name":"aTokenAddress","type":"address","internalType":"address"},{"name":"stableDebtTokenAddress","type":"address","internalType":"address"},{"name":"variableDebtTokenAddress","type":"address","internalType":"address"},{"name":"interestRateStrategyAddress","type":"address","internalType":"address"},{"name":"accruedToTreasury","type":"uint128","internalType":"uint128"},{"name":"unbacked","type":"uint128","internalType":"uint128"},{"name":"isolationModeTotalDebt","type":"uint128","internalType":"uint128"}]}],"stateMutability":"view"},{"type":"function","name":"getReserveDataExtended","inputs":[{"name":"asset","type":"address","internalType":"address"}],"outputs":[{"name":"","type":"tuple","internalType":"struct DataTypes.ReserveData","components":[{"name":"configuration","type":"tuple","internalType":"struct DataTypes.ReserveConfigurationMap","components":[{"name":"data","type":"uint256","internalType":"uint256"}]},{"name":"liquidityIndex","type":"uint128","internalType":"uint128"},{"name":"currentLiquidityRate","type":"uint128","internalType":"uint128"},{"name":"variableBorrowIndex","type":"uint128","internalType":"uint128"},{"name":"currentVariableBorrowRate","type":"uint128","internalType":"uint128"},{"name":"__deprecatedStableBorrowRate","type":"uint128","internalType":"uint128"},{"name":"lastUpdateTimestamp","type":"uint40","internalType":"uint40"},{"name":"id","type":"uint16","internalType":"uint16"},{"name":"liquidationGracePeriodUntil","type":"uint40","internalType":"uint40"},{"name":"aTokenAddress","type":"address","internalType":"address"},{"name":"__deprecatedStableDebtTokenAddress","type":"address","internalType":"address"},{"name":"variableDebtTokenAddress","type":"address","internalType":"address"},{"name":"interestRateStrategyAddress","type":"address","internalType":"address"},{"name":"accruedToTreasury","type":"uint128","internalType":"uint128"},{"name":"unbacked","type":"uint128","internalType":"uint128"},{"name":"isolationModeTotalDebt","type":"uint128","internalType":"uint128"},{"name":"virtualUnderlyingBalance","type":"uint128","internalType":"uint128"}]}],"stateMutability":"view"},{"type":"function","name":"getReserveNormalizedIncome","inputs":[{"name":"asset","type":"address","internalType":"address"}],"outputs":[{"name":"","type":"uint256","internalType":"uint256"}],"stateMutability":"view"},{"type":"function","name":"getReserveNormalizedVariableDebt","inputs":[{"name":"asset","type":"address","internalType":"address"}],"outputs":[{"name":"","type":"uint256","internalType":"uint256"}],"stateMutability":"view"},{"type":"function","name":"getReservesCount","inputs":[],"outputs":[{"name":"","type":"uint256","internalType":"uint256"}],"stateMutability":"view"},{"type":"function","name":"getReservesList","inputs":[],"outputs":[{"name":"","type":"address[]","internalType":"address[]"}],"stateMutability":"view"},{"type":"function","name":"getSupplyLogic","inputs":[],"outputs":[{"name":"","type":"address","internalType":"address"}],"stateMutability":"pure"},{"type":"function","name":"getUserAccountData","inputs":[{"name":"user","type":"address","internalType":"address"}],"outputs":[{"name":"totalCollateralBase","type":"uint256","internalType":"uint256"},{"name":"totalDebtBase","type":"uint256","internalType":"uint256"},{"name":"availableBorrowsBase","type":"uint256","internalType":"uint256"},{"name":"currentLiquidationThreshold","type":"uint256","internalType":"uint256"},{"name":"ltv","type":"uint256","internalType":"uint256"},{"name":"healthFactor","type":"uint256","internalType":"uint256"}],"stateMutability":"view"},{"type":"function","name":"getUserConfiguration","inputs":[{"name":"user","type":"address","internalType":"address"}],"outputs":[{"name":"","type":"tuple","internalType":"struct DataTypes.UserConfigurationMap","components":[{"name":"data","type":"uint256","internalType":"uint256"}]}],"stateMutability":"view"},{"type":"function","name":"getUserEMode","inputs":[{"name":"user","type":"address","internalType":"address"}],"outputs":[{"name":"","type":"uint256","internalType":"uint256"}],"stateMutability":"view"},{"type":"function","name":"getVirtualUnderlyingBalance","inputs":[{"name":"asset","type":"address","internalType":"address"}],"outputs":[{"name":"","type":"uint128","internalType":"uint128"}],"stateMutability":"view"},{"type":"function","name":"initReserve","inputs":[{"name":"asset","type":"address","internalType":"address"},{"name":"aTokenAddress","type":"address","internalType":"address"},{"name":"variableDebtAddress","type":"address","internalType":"address"},{"name":"interestRateStrategyAddress","type":"address","internalType":"address"}],"outputs":[],"stateMutability":"nonpayable"},{"type":"function","name":"initialize","inputs":[{"name":"provider","type":"address","internalType":"contract IPoolAddressesProvider"}],"outputs":[],"stateMutability":"nonpayable"},{"type":"function","name":"liquidationCall","inputs":[{"name":"collateralAsset","type":"address","internalType":"address"},{"name":"debtAsset","type":"address","internalType":"address"},{"name":"user","type":"address","internalType":"address"},{"name":"debtToCover","type":"uint256","internalType":"uint256"},{"name":"receiveAToken","type":"bool","internalType":"bool"}],"outputs":[],"stateMutability":"nonpayable"},{"type":"function","name":"mintToTreasury","inputs":[{"name":"assets","type":"address[]","internalType":"address[]"}],"outputs":[],"stateMutability":"nonpayable"},{"type":"function","name":"mintUnbacked","inputs":[{"name":"asset","type":"address","internalType":"address"},{"name":"amount","type":"uint256","internalType":"uint256"},{"name":"onBehalfOf","type":"address","internalType":"address"},{"name":"referralCode","type":"uint16","internalType":"uint16"}],"outputs":[],"stateMutability":"nonpayable"},{"type":"function","name":"repay","inputs":[{"name":"asset","type":"address","internalType":"address"},{"name":"amount","type":"uint256","internalType":"uint256"},{"name":"interestRateMode","type":"uint256","internalType":"uint256"},{"name":"onBehalfOf","type":"address","internalType":"address"}],"outputs":[{"name":"","type":"uint256","internalType":"uint256"}],"stateMutability":"nonpayable"},{"type":"function","name":"repayWithATokens","inputs":[{"name":"asset","type":"address","internalType":"address"},{"name":"amount","type":"uint256","internalType":"uint256"},{"name":"interestRateMode","type":"uint256","internalType":"uint256"}],"outputs":[{"name":"","type":"uint256","internalType":"uint256"}],"stateMutability":"nonpayable"},{"type":"function","name":"repayWithPermit","inputs":[{"name":"asset","type":"address","internalType":"address"},{"name":"amount","type":"uint256","internalType":"uint256"},{"name":"interestRateMode","type":"uint256","internalType":"uint256"},{"name":"onBehalfOf","type":"address","internalType":"address"},{"name":"deadline","type":"uint256","internalType":"uint256"},{"name":"permitV","type":"uint8","internalType":"uint8"},{"name":"permitR","type":"bytes32","internalType":"bytes32"},{"name":"permitS","type":"bytes32","internalType":"bytes32"}],"outputs":[{"name":"","type":"uint256","internalType":"uint256"}],"stateMutability":"nonpayable"},{"type":"function","name":"rescueTokens","inputs":[{"name":"token","type":"address","internalType":"address"},{"name":"to","type":"address","internalType":"address"},{"name":"amount","type":"uint256","internalType":"uint256"}],"outputs":[],"stateMutability":"nonpayable"},{"type":"function","name":"resetIsolationModeTotalDebt","inputs":[{"name":"asset","type":"address","internalType":"address"}],"outputs":[],"stateMutability":"nonpayable"},{"type":"function","name":"setConfiguration","inputs":[{"name":"asset","type":"address","internalType":"address"},{"name":"configuration","type":"tuple","internalType":"struct DataTypes.ReserveConfigurationMap","components":[{"name":"data","type":"uint256","internalType":"uint256"}]}],"outputs":[],"stateMutability":"nonpayable"},{"type":"function","name":"setLiquidationGracePeriod","inputs":[{"name":"asset","type":"address","internalType":"address"},{"name":"until","type":"uint40","internalType":"uint40"}],"outputs":[],"stateMutability":"nonpayable"},{"type":"function","name":"setMaxNumberOfReserves","inputs":[{"name":"newMaxNumberOfReserves","type":"uint16","internalType":"uint16"}],"outputs":[],"stateMutability":"nonpayable"},{"type":"function","name":"setReserveInterestRateStrategyAddress","inputs":[{"name":"asset","type":"address","internalType":"address"},{"name":"rateStrategyAddress","type":"address","internalType":"address"}],"outputs":[],"stateMutability":"nonpayable"},{"type":"function","name":"setUserEMode","inputs":[{"name":"categoryId","type":"uint8","internalType":"uint8"}],"outputs":[],"stateMutability":"nonpayable"},{"type":"function","name":"setUserUseReserveAsCollateral","inputs":[{"name":"asset","type":"address","internalType":"address"},{"name":"useAsCollateral","type":"bool","internalType":"bool"}],"outputs":[],"stateMutability":"nonpayable"},{"type":"function","name":"supply","inputs":[{"name":"asset","type":"address","internalType":"address"},{"name":"amount","type":"uint256","internalType":"uint256"},{"name":"onBehalfOf","type":"address","internalType":"address"},{"name":"referralCode","type":"uint16","internalType":"uint16"}],"outputs":[],"stateMutability":"nonpayable"},{"type":"function","name":"supplyWithPermit","inputs":[{"name":"asset","type":"address","internalType":"address"},{"name":"amount","type":"uint256","internalType":"uint256"},{"name":"onBehalfOf","type":"address","internalType":"address"},{"name":"referralCode","type":"uint16","internalType":"uint16"},{"name":"deadline","type":"uint256","internalType":"uint256"},{"name":"permitV","type":"uint8","internalType":"uint8"},{"name":"permitR","type":"bytes32","internalType":"bytes32"},{"name":"permitS","type":"bytes32","internalType":"bytes32"}],"outputs":[],"stateMutability":"nonpayable"},{"type":"function","name":"syncIndexesState","inputs":[{"name":"asset","type":"address","internalType":"address"}],"outputs":[],"stateMutability":"nonpayable"},{"type":"function","name":"syncRatesState","inputs":[{"name":"asset","type":"address","internalType":"address"}],"outputs":[],"stateMutability":"nonpayable"},{"type":"function","name":"updateBridgeProtocolFee","inputs":[{"name":"protocolFee","type":"uint256","internalType":"uint256"}],"outputs":[],"stateMutability":"nonpayable"},{"type":"function","name":"updateFlashloanPremiums","inputs":[{"name":"flashLoanPremiumTotal","type":"uint128","internalType":"uint128"},{"name":"flashLoanPremiumToProtocol","type":"uint128","internalType":"uint128"}],"outputs":[],"stateMutability":"nonpayable"},{"type":"function","name":"withdraw","inputs":[{"name":"asset","type":"address","internalType":"address"},{"name":"amount","type":"uint256","internalType":"uint256"},{"name":"to","type":"address","internalType":"address"}],"outputs":[{"name":"","type":"uint256","internalType":"uint256"}],"stateMutability":"nonpayable"},{"type":"event","name":"BackUnbacked","inputs":[{"name":"reserve","type":"address","indexed":true,"internalType":"address"},{"name":"backer","type":"address","indexed":true,"internalType":"address"},{"name":"amount","type":"uint256","indexed":false,"internalType":"uint256"},{"name":"fee","type":"uint256","indexed":false,"internalType":"uint256"}],"anonymous":false},{"type":"event","name":"Borrow","inputs":[{"name":"reserve","type":"address","indexed":true,"internalType":"address"},{"name":"user","type":"address","indexed":false,"internalType":"address"},{"name":"onBehalfOf","type":"address","indexed":true,"internalType":"address"},{"name":"amount","type":"uint256","indexed":false,"internalType":"uint256"},{"name":"interestRateMode","type":"uint8","indexed":false,"internalType":"enum DataTypes.InterestRateMode"},{"name":"borrowRate","type":"uint256","indexed":false,"internalType":"uint256"},{"name":"referralCode","type":"uint16","indexed":true,"internalType":"uint16"}],"anonymous":false},{"type":"event","name":"FlashLoan","inputs":[{"name":"target","type":"address","indexed":true,"internalType":"address"},{"name":"initiator","type":"address","indexed":false,"internalType":"address"},{"name":"asset","type":"address","indexed":true,"internalType":"address"},{"name":"amount","type":"uint256","indexed":false,"internalType":"uint256"},{"name":"interestRateMode","type":"uint8","indexed":false,"internalType":"enum DataTypes.InterestRateMode"},{"name":"premium","type":"uint256","indexed":false,"internalType":"uint256"},{"name":"referralCode","type":"uint16","indexed":true,"internalType":"uint16"}],"anonymous":false},{"type":"event","name":"IsolationModeTotalDebtUpdated","inputs":[{"name":"asset","type":"address","indexed":true,"internalType":"address"},{"name":"totalDebt","type":"uint256","indexed":false,"internalType":"uint256"}],"anonymous":false},{"type":"event","name":"LiquidationCall","inputs":[{"name":"collateralAsset","type":"address","indexed":true,"internalType":"address"},{"name":"debtAsset","type":"address","indexed":true,"internalType":"address"},{"name":"user","type":"address","indexed":true,"internalType":"address"},{"name":"debtToCover","type":"uint256","indexed":false,"internalType":"uint256"},{"name":"liquidatedCollateralAmount","type":"uint256","indexed":false,"internalType":"uint256"},{"name":"liquidator","type":"address","indexed":false,"internalType":"address"},{"name":"receiveAToken","type":"bool","indexed":false,"internalType":"bool"}],"anonymous":false},{"type":"event","name":"MintUnbacked","inputs":[{"name":"reserve","type":"address","indexed":true,"internalType":"address"},{"name":"user","type":"address","indexed":false,"internalType":"address"},{"name":"onBehalfOf","type":"address","indexed":true,"internalType":"address"},{"name":"amount","type":"uint256","indexed":false,"internalType":"uint256"},{"name":"referralCode","type":"uint16","indexed":true,"internalType":"uint16"}],"anonymous":false},{"type":"event","name":"MintedToTreasury","inputs":[{"name":"reserve","type":"address","indexed":true,"internalType":"address"},{"name":"amountMinted","type":"uint256","indexed":false,"internalType":"uint256"}],"anonymous":false},{"type":"event","name":"Repay","inputs":[{"name":"reserve","type":"address","indexed":true,"internalType":"address"},{"name":"user","type":"address","indexed":true,"internalType":"address"},{"name":"repayer","type":"address","indexed":true,"internalType":"address"},{"name":"amount","type":"uint256","indexed":false,"internalType":"uint256"},{"name":"useATokens","type":"bool","indexed":false,"internalType":"bool"}],"anonymous":false},{"type":"event","name":"ReserveDataUpdated","inputs":[{"name":"reserve","type":"address","indexed":true,"internalType":"address"},{"name":"liquidityRate","type":"uint256","indexed":false,"internalType":"uint256"},{"name":"stableBorrowRate","type":"uint256","indexed":false,"internalType":"uint256"},{"name":"variableBorrowRate","type":"uint256","indexed":false,"internalType":"uint256"},{"name":"liquidityIndex","type":"uint256","indexed":false,"internalType":"uint256"},{"name":"variableBorrowIndex","type":"uint256","indexed":false,"internalType":"uint256"}],"anonymous":false},{"type":"event","name":"ReserveDataUpdated","inputs":[{"name":"reserve","type":"address","indexed":true,"internalType":"address"},{"name":"liquidityRate","type":"uint256","indexed":false,"internalType":"uint256"},{"name":"stableBorrowRate","type":"uint256","indexed":false,"internalType":"uint256"},{"name":"variableBorrowRate","type":"uint256","indexed":false,"internalType":"uint256"},{"name":"liquidityIndex","type":"uint256","indexed":false,"internalType":"uint256"},{"name":"variableBorrowIndex","type":"uint256","indexed":false,"internalType":"uint256"}],"anonymous":false},{"type":"event","name":"ReserveUsedAsCollateralDisabled","inputs":[{"name":"reserve","type":"address","indexed":true,"internalType":"address"},{"name":"user","type":"address","indexed":true,"internalType":"address"}],"anonymous":false},{"type":"event","name":"ReserveUsedAsCollateralEnabled","inputs":[{"name":"reserve","type":"address","indexed":true,"internalType":"address"},{"name":"user","type":"address","indexed":true,"internalType":"address"}],"anonymous":false},{"type":"event","name":"Supply","inputs":[{"name":"reserve","type":"address","indexed":true,"internalType":"address"},{"name":"user","type":"address","indexed":false,"internalType":"address"},{"name":"onBehalfOf","type":"address","indexed":true,"internalType":"address"},{"name":"amount","type":"uint256","indexed":false,"internalType":"uint256"},{"name":"referralCode","type":"uint16","indexed":true,"internalType":"uint16"}],"anonymous":false},{"type":"event","name":"UserEModeSet","inputs":[{"name":"user","type":"address","indexed":true,"internalType":"address"},{"name":"categoryId","type":"uint8","indexed":false,"internalType":"uint8"}],"anonymous":false},{"type":"event","name":"Withdraw","inputs":[{"name":"reserve","type":"address","indexed":true,"internalType":"address"},{"name":"user","type":"address","indexed":true,"internalType":"address"},{"name":"to","type":"address","indexed":true,"internalType":"address"},{"name":"amount","type":"uint256","indexed":false,"internalType":"uint256"}],"anonymous":false}],"bytecode":{"object":"0x60a06040525f8055603b805461ffff60501b19166a80000000000000000000001790553480156200002e575f80fd5b506040516200572938038062005729833981016040819052620000519162000063565b6001600160a01b031660805262000092565b5f6020828403121562000074575f80fd5b81516001600160a01b03811681146200008b575f80fd5b9392505050565b60805161561c6200010d5f395f818161040a01528181610dfa01528181610eb6015281816112c60152818161198b01528181611bee0152818161233e015281816123fa0152818161261c0152818161296a01528181612b6101528181612e6a0152818161331a0152818161344201526139ec015261561c5ff3fe608060405234801561000f575f80fd5b50600436106103be575f3560e01c8063870e7744116101f5578063c4d66de811610114578063e43e88a1116100a9578063f32b9a7311610079578063f32b9a7314610d14578063f51e435b14610d2e578063f8119d5114610d41578063ff72158a14610d62575f80fd5b8063e43e88a114610cc3578063e8eda9df14610678578063eddf1b7914610cd6578063ee3e210b14610d01575f80fd5b8063d3350155116100e4578063d335015514610c69578063d5ed393314610c83578063d65dc7a114610c96578063df374c3614610ca9575f80fd5b8063c4d66de814610c1b578063cea9d26f14610c2e578063d15e005314610c41578063d1946dbc14610c54575f80fd5b8063ab2b51f61161018a578063b286f4671161015a578063b286f46714610ae8578063bcb6e52214610b87578063bf92857c14610b9a578063c44b11f714610bda575f80fd5b8063ab2b51f614610a7d578063ab9c4b5d14610a90578063b0771dba14610aa3578063b1a99e2614610ad5575f80fd5b806392380ecb116101c557806392380ecb14610a3157806398c7da4e14610a445780639cd1999614610a57578063a415bcad14610a6a575f80fd5b8063870e7744146109bc5780638bd25677146109d6578063903a2c71146109e9578063911a341314610a17575f80fd5b80634417a583116102e157806369328dec116102765780636fb07f96116102465780636fb07f961461079a57806372218d04146107d55780637b75d7f4146107e85780638381995f146107fb575f80fd5b806369328dec1461073c57806369a933a51461074f5780636a99c036146107625780636c6f6ae11461077a575f80fd5b80635a3b74b9116102b15780635a3b74b9146106165780635c9a8b1814610629578063617ba0371461067857806363c9b8601461068b575f80fd5b80634417a5831461055757806352751797146105a7578063573ade81146105d357806357c68dc4146105e6575f80fd5b806328530a4711610357578063348fde0f11610327578063348fde0f146104f757806335ea6a7514610511578063386497fd1461053157806342b0b77c14610544575f80fd5b806328530a47146104a45780632be29fa7146104b75780632dad97d4146104d15780633036b439146104e4575f80fd5b8063074b2e4311610392578063074b2e43146104445780631d2118f9146104695780632083e1831461047c578063272d90721461049c575f80fd5b8062a718a9146103c25780630148170e146103d757806302c205f0146103f25780630542975c14610405575b5f80fd5b6103d56103d03660046140ae565b610d75565b005b6103df600581565b6040519081526020015b60405180910390f35b6103d5610400366004614133565b610f80565b61042c7f000000000000000000000000000000000000000000000000000000000000000081565b6040516001600160a01b0390911681526020016103e9565b603a546001600160801b03165b6040516001600160801b0390911681526020016103e9565b6103d56104773660046141ad565b611091565b61048f61048a3660046141e4565b6111b4565b6040516103e99190614240565b6039546103df565b6103d56104b23660046141e4565b61125a565b73__$83e702f37eeb79ca6ea8c03d9bc14d29cb$__61042c565b6103df6104df366004614252565b6113f0565b6103d56104f2366004614284565b6114f0565b73__$1aecd72e546835de8d2664e100f70770e0$__61042c565b61052461051f36600461429b565b6114fd565b6040516103e991906142b6565b6103df61053f36600461429b565b6116e8565b6103d561055236600461443a565b61170e565b61059861056536600461429b565b60408051602080820183525f918290526001600160a01b0393909316815260358352819020815192830190915254815290565b604051905181526020016103e9565b61042c6105b53660046144b7565b61ffff165f908152603660205260409020546001600160a01b031690565b6103df6105e13660046144d0565b61182c565b6103d56105f43660046144b7565b603b805461ffff909216600160501b0261ffff60501b19909216919091179055565b6103d5610624366004614517565b611933565b61066261063736600461429b565b6001600160a01b03165f90815260346020526040902060030154600160b81b900464ffffffffff1690565b60405164ffffffffff90911681526020016103e9565b6103d5610686366004614543565b611ab3565b6103d561069936600461429b565b6001600160a01b03165f818152603460208181526040808420600381018054600160a81b900461ffff1686526036845291852080546001600160a01b031990811690915595855292909152828255600182018390556002820183905580546001600160e01b031916905560048101805484169055600581018054841690556006810180548416905560078101805490931690925560088201819055600990910155565b6103df61074a366004614591565b611b5f565b6103d561075d366004614543565b611d12565b603a54600160801b90046001600160801b0316610451565b61078d6107883660046141e4565b611d98565b6040516103e991906145d0565b6104516107a836600461429b565b6001600160a01b03165f90815260346020526040902060090154600160801b90046001600160801b031690565b603b54600160401b900461ffff166103df565b6103d56107f6366004614692565b611f14565b6109af61080936600461429b565b60408051610240810182525f6102208201818152825260208201819052918101829052606081018290526080810182905260a0810182905260c0810182905260e08101829052610100810182905261012081018290526101408101829052610160810182905261018081018290526101a081018290526101c081018290526101e08101829052610200810191909152506001600160a01b039081165f9081526034602090815260409182902082516102408101845281546102208201908152815260018201546001600160801b0380821694830194909452600160801b908190048416948201949094526002820154808416606083015284900483166080820152600382015480841660a083015264ffffffffff858204811660c084015261ffff600160a81b83041660e0840152600160b81b90910416610100820152600482015485166101208201526005820154851661014082015260068201548516610160820152600782015490941661018085015260088101548083166101a086015283900482166101c0850152600901548082166101e0850152919091041661020082015290565b6040516103e99190614791565b73__$91b47d451814c731a99462488968bab857$__61042c565b6103d56109e43660046148eb565b611fcb565b6104516109f73660046141e4565b60ff165f908152603760205260409020600201546001600160801b031690565b73__$6d137c64be18f5cad883104c2a9fa60a79$__61042c565b6103d5610a3f36600461494f565b612166565b6103d5610a5236600461429b565b6121f1565b6103d5610a653660046149c1565b612229565b6103d5610a78366004614a00565b612265565b6103d5610a8b36600461429b565b612491565b6103d5610a9e366004614a4b565b6124c6565b610451610ab13660046141e4565b60ff165f90815260376020526040902054600160301b90046001600160801b031690565b6103d5610ae3366004614b3a565b6127c0565b610b5a610af63660046141e4565b604080516060810182525f8082526020820181905291810191909152506040805160608101825260ff9092165f818152603760208181528483205461ffff808216885262010000820481168389015294909352526401000000009004169082015290565b60408051825161ffff908116825260208085015182169083015292820151909216908201526060016103e9565b6103d5610b95366004614b6f565b6128bd565b610bad610ba836600461429b565b6128de565b604080519687526020870195909552938501929092526060840152608083015260a082015260c0016103e9565b610598610be836600461429b565b60408051602080820183525f918290526001600160a01b0393909316815260348352819020815192830190915254815290565b6103d5610c2936600461429b565b612ab7565b6103d5610c3c366004614b89565b612be3565b6103df610c4f36600461429b565b612c66565b610c5c612c86565b6040516103e99190614bc7565b73__$5c81c34ced5c181849a1f58b32d6fe0e6c$__61042c565b6103d5610c91366004614c13565b612d85565b6103df610ca4366004614252565b612f69565b73__$97e4eb0b6bcf9a716469ce15878e0c4184$__61042c565b6103d5610cd136600461429b565b612fe1565b6103df610ce436600461429b565b6001600160a01b03165f9081526038602052604090205460ff1690565b6103df610d0f366004614c74565b613030565b73__$3e9faf92b4e65bc494281f12b43a229306$__61042c565b6103d5610d3c366004614cb5565b61318a565b603b54600160501b900461ffff1660405161ffff90911681526020016103e9565b6103d5610d7036600461494f565b613296565b73__$6d137c64be18f5cad883104c2a9fa60a79$__6383c1087d6034603660356037604051806101200160405280603b60089054906101000a900461ffff1661ffff1681526020018981526020018c6001600160a01b031681526020018b6001600160a01b031681526020018a6001600160a01b0316815260200188151581526020017f00000000000000000000000000000000000000000000000000000000000000006001600160a01b031663fca513a86040518163ffffffff1660e01b8152600401602060405180830381865afa158015610e54573d5f803e3d5ffd5b505050506040513d601f19601f82011682018060405250810190610e789190614cf3565b6001600160a01b0390811682528b81165f908152603860209081526040918290205460ff16818501528151635eb88d3d60e01b8152825192909401937f000000000000000000000000000000000000000000000000000000000000000090931692635eb88d3d92600480830193928290030181865afa158015610efd573d5f803e3d5ffd5b505050506040513d601f19601f82011682018060405250810190610f219190614cf3565b6001600160a01b03168152506040518663ffffffff1660e01b8152600401610f4d959493929190614d0e565b5f6040518083038186803b158015610f63575f80fd5b505af4158015610f75573d5f803e3d5ffd5b505050505050505050565b60405163d505accf60e01b81526001600160a01b0389169063d505accf90610fb890339030908c908a908a908a908a90600401614dc6565b5f604051808303815f87803b158015610fcf575f80fd5b505af1925050508015610fe0575060015b506001600160a01b038087165f818152603560209081526040918290208251608081018452948d1685529084018b90528382019290925261ffff8816606084015251631913f16160e01b815273__$91b47d451814c731a99462488968bab857$__92631913f1619261105b9260349260369291600401614e07565b5f6040518083038186803b158015611071575f80fd5b505af4158015611083573d5f803e3d5ffd5b505050505050505050505050565b61109961330e565b604080518082019091526002815261373760f01b60208201526001600160a01b0383166110e25760405162461bcd60e51b81526004016110d99190614240565b60405180910390fd5b506001600160a01b0382165f90815260346020526040902060030154600160a81b900461ffff1615158061114a57505f805260366020527f4cb2b152c1b54ce671907a93c300fd5aa72383a9d4ec19a81e3333632ae92e00546001600160a01b038381169116145b604051806040016040528060028152602001611c1960f11b815250906111835760405162461bcd60e51b81526004016110d99190614240565b506001600160a01b039182165f90815260346020526040902060070180546001600160a01b03191691909216179055565b60ff81165f9081526037602052604090206001018054606091906111d790614e58565b80601f016020809104026020016040519081016040528092919081815260200182805461120390614e58565b801561124e5780601f106112255761010080835404028352916020019161124e565b820191905f5260205f20905b81548152906001019060200180831161123157829003601f168201915b50505050509050919050565b73__$3e9faf92b4e65bc494281f12b43a229306$__635d5dc313603460366037603860355f336001600160a01b03166001600160a01b031681526020019081526020015f206040518060600160405280603b60089054906101000a900461ffff1661ffff1681526020017f00000000000000000000000000000000000000000000000000000000000000006001600160a01b031663fca513a86040518163ffffffff1660e01b8152600401602060405180830381865afa158015611320573d5f803e3d5ffd5b505050506040513d601f19601f820116820180604052508101906113449190614cf3565b6001600160a01b031681526020018960ff168152506040518763ffffffff1660e01b81526004016113c19695949392919095865260208087019590955260408087019490945260608601929092526080850152805160a0850152918201516001600160a01b031660c0840152015160ff1660e08201526101000190565b5f6040518083038186803b1580156113d7575f80fd5b505af41580156113e9573d5f803e3d5ffd5b5050505050565b5f73__$83e702f37eeb79ca6ea8c03d9bc14d29cb$__6340e95de66034603660355f336001600160a01b03166001600160a01b031681526020019081526020015f206040518060a001604052808a6001600160a01b0316815260200189815260200188600281111561146457611464614e8a565b600281111561147557611475614e8a565b81523360208201526001604091820152516001600160e01b031960e087901b1681526114a79493929190600401614ebe565b602060405180830381865af41580156114c2573d5f803e3d5ffd5b505050506040513d601f19601f820116820180604052508101906114e69190614f24565b90505b9392505050565b6114f861330e565b603955565b611505613f8a565b6001600160a01b038083165f9081526034602090815260409182902082516102408101845281546102208201908152815260018201546001600160801b0380821694830194909452600160801b908190048416948201949094526002820154808416606083015284900483166080820152600382015480841660a083015264ffffffffff858204811660c084015261ffff600160a81b83041660e0840152600160b81b90910416610100820152600482015485166101208201526005820154851661014082015260068201548516610160820152600782015490941661018085015260088101548083166101a086015283900482166101c0850152600901548082166101e08501529190910416610200820152611620613f8a565b815181526020808301516001600160801b039081169183019190915260408084015182169083015260608084015182169083015260808084015182169083015260c08084015164ffffffffff169083015260e08084015161ffff16908301526101208301516001600160a01b0390811661010084015261016080850151821661014085015261018080860151909216908401526101a0808501518316918401919091526101c0808501518316918401919091526101e090930151169181019190915292915050565b6001600160a01b0381165f908152603460205260408120611708906133de565b92915050565b5f6040518060e00160405280886001600160a01b03168152602001876001600160a01b0316815260200186815260200185858080601f0160208091040260200160405190810160405280939291908181526020018383808284375f92018290525093855250505061ffff8516602080840191909152603a546001600160801b03600160801b8204811660408087019190915291166060909401939093526001600160a01b038a16825260349052819020905163a1fe0e8d60e01b815291925073__$1aecd72e546835de8d2664e100f70770e0$__9163a1fe0e8d916117f7918590600401614f3b565b5f6040518083038186803b15801561180d575f80fd5b505af415801561181f573d5f803e3d5ffd5b5050505050505050505050565b5f73__$83e702f37eeb79ca6ea8c03d9bc14d29cb$__6340e95de66034603660355f876001600160a01b03166001600160a01b031681526020019081526020015f206040518060a001604052808b6001600160a01b031681526020018a81526020018960028111156118a0576118a0614e8a565b60028111156118b1576118b1614e8a565b81526001600160a01b03891660208201525f604091820152516001600160e01b031960e087901b1681526118eb9493929190600401614ebe565b602060405180830381865af4158015611906573d5f803e3d5ffd5b505050506040513d601f19601f8201168201806040525081019061192a9190614f24565b95945050505050565b73__$91b47d451814c731a99462488968bab857$__63bf697a2660346036603760355f336001600160a01b03166001600160a01b031681526020019081526020015f208787603b60089054906101000a900461ffff167f00000000000000000000000000000000000000000000000000000000000000006001600160a01b031663fca513a86040518163ffffffff1660e01b8152600401602060405180830381865afa1580156119e5573d5f803e3d5ffd5b505050506040513d601f19601f82011682018060405250810190611a099190614cf3565b335f908152603860205260409081902054905160e08b901b6001600160e01b031916815260048101999099526024890197909752604488019590955260648701939093526001600160a01b039182166084870152151560a486015261ffff90911660c48501521660e483015260ff16610104820152610124015b5f6040518083038186803b158015611a99575f80fd5b505af4158015611aab573d5f803e3d5ffd5b505050505050565b6001600160a01b038083165f81815260356020908152604091829020825160808101845294891685529084018790528382019290925261ffff8416606084015251631913f16160e01b815273__$91b47d451814c731a99462488968bab857$__92631913f16192611b2d9260349260369291600401614e07565b5f6040518083038186803b158015611b43575f80fd5b505af4158015611b55573d5f803e3d5ffd5b5050505050505050565b5f73__$91b47d451814c731a99462488968bab857$__63186dea4460346036603760355f336001600160a01b03166001600160a01b031681526020019081526020015f206040518060c001604052808b6001600160a01b031681526020018a8152602001896001600160a01b03168152602001603b60089054906101000a900461ffff1661ffff1681526020017f00000000000000000000000000000000000000000000000000000000000000006001600160a01b031663fca513a86040518163ffffffff1660e01b8152600401602060405180830381865afa158015611c48573d5f803e3d5ffd5b505050506040513d601f19601f82011682018060405250810190611c6c9190614cf3565b6001600160a01b039081168252335f908152603860209081526040918290205460ff90811694820194909452815160e08b901b6001600160e01b031916815260048101999099526024890197909752604488019590955260648701939093528151831660848701529381015160a486015291820151811660c4850152606082015160e485015260808201511661010484015260a0015116610124820152610144016114a7565b611d1a613440565b6001600160a01b038281165f81815260356020526040908190209051630413c86f60e01b81526034600482015260366024820152604481019190915291861660648301526084820185905260a482015261ffff821660c482015273__$97e4eb0b6bcf9a716469ce15878e0c4184$__90630413c86f9060e401611b2d565b6040805160a0810182525f80825260208201819052918101829052606080820192909252608081019190915260ff82165f908152603760209081526040808320815160c081018352815461ffff8082168352620100008204811695830195909552640100000000810490941692810192909252600160301b9092046001600160801b03166060820152600182018054919291608084019190611e3990614e58565b80601f0160208091040260200160405190810160405280929190818152602001828054611e6590614e58565b8015611eb05780601f10611e8757610100808354040283529160200191611eb0565b820191905f5260205f20905b815481529060010190602001808311611e9357829003601f168201915b5050509183525050600291909101546001600160801b03166020918201526040805160a081018252835161ffff90811682528484015181169382019390935281840151909216908201525f6060820152608091820151918101919091529392505050565b611f1c61330e565b604080518082019091526002815261189b60f11b602082015260ff8316611f565760405162461bcd60e51b81526004016110d99190614240565b50805160ff83165f908152603760209081526040918290208054918501519285015161ffff9081166401000000000265ffff0000000019948216620100000263ffffffff19909416919095161791909117919091169190911781556060820151600190910190611fc69082614ffc565b505050565b611fd361330e565b73__$5c81c34ced5c181849a1f58b32d6fe0e6c$__6369fc1bdf603460366040518060c00160405280896001600160a01b03168152602001886001600160a01b03168152602001876001600160a01b03168152602001866001600160a01b03168152602001603b60089054906101000a900461ffff1661ffff168152602001612067603b5461ffff600160501b9091041690565b61ffff908116909152604080516001600160e01b031960e088901b1681526004810195909552602485019390935281516001600160a01b0390811660448601526020830151811660648601529282015183166084850152606082015190921660a48401526080810151821660c484015260a001511660e482015261010401602060405180830381865af4158015612100573d5f803e3d5ffd5b505050506040513d601f19601f8201168201806040525081019061212491906150b8565b1561216057603b8054600160401b900461ffff16906008612144836150e7565b91906101000a81548161ffff021916908361ffff160217905550505b50505050565b61216e61330e565b604080518082019091526002815261189b60f11b602082015260ff83166121a85760405162461bcd60e51b81526004016110d99190614240565b5060ff9091165f90815260376020526040902080546001600160801b03909216600160301b0275ffffffffffffffffffffffffffffffff00000000000019909216919091179055565b6121f961330e565b6001600160a01b0381165f9081526034602052604081209061221a82613560565b9050611fc68282855f80613683565b604051631230b2a360e21b815273__$5c81c34ced5c181849a1f58b32d6fe0e6c$__906348c2ca8c90611a839060349086908690600401615107565b73__$83e702f37eeb79ca6ea8c03d9bc14d29cb$__631e6473f960346036603760355f876001600160a01b03166001600160a01b031681526020019081526020015f206040518061016001604052808c6001600160a01b03168152602001336001600160a01b03168152602001886001600160a01b031681526020018b81526020018a60028111156122f9576122f9614e8a565b600281111561230a5761230a614e8a565b81526020018961ffff168152602001600115158152602001603b60089054906101000a900461ffff1661ffff1681526020017f00000000000000000000000000000000000000000000000000000000000000006001600160a01b031663fca513a86040518163ffffffff1660e01b8152600401602060405180830381865afa158015612398573d5f803e3d5ffd5b505050506040513d601f19601f820116820180604052508101906123bc9190614cf3565b6001600160a01b0390811682528981165f908152603860209081526040918290205460ff16818501528151635eb88d3d60e01b8152825192909401937f000000000000000000000000000000000000000000000000000000000000000090931692635eb88d3d92600480830193928290030181865afa158015612441573d5f803e3d5ffd5b505050506040513d601f19601f820116820180604052508101906124659190614cf3565b6001600160a01b03168152506040518663ffffffff1660e01b8152600401610f4d95949392919061515e565b61249961330e565b6001600160a01b0381165f908152603460205260408120906124ba82613560565b9050611fc68282613980565b5f604051806101c001604052808d6001600160a01b031681526020018c8c808060200260200160405190810160405280939291908181526020018383602002808284375f920191909152505050908252506040805160208c810282810182019093528c82529283019290918d918d9182918501908490808284375f920191909152505050908252506040805160208a810282810182019093528a82529283019290918b918b9182918501908490808284375f920191909152505050908252506001600160a01b03871660208083019190915260408051601f880183900483028101830182528781529201919087908790819084018382808284375f92018290525093855250505061ffff808616602080850191909152603a546001600160801b03600160801b8204811660408088019190915291166060860152603b54600160401b900490921660808501526001600160a01b037f0000000000000000000000000000000000000000000000000000000000000000811660a086018190523060c0870152908b16845260388252928290205460ff1660e0850152815163383e6b8b60e11b815291516101009094019363707cd7169260048082019392918290030181865afa15801561269a573d5f803e3d5ffd5b505050506040513d601f19601f820116820180604052508101906126be9190614cf3565b60405163fa50f29760e01b81523360048201526001600160a01b03919091169063fa50f29790602401602060405180830381865afa158015612702573d5f803e3d5ffd5b505050506040513d601f19601f8201168201806040525081019061272691906150b8565b151590526001600160a01b0386165f9081526035602052604090819020905163173931f560e11b815291925073__$1aecd72e546835de8d2664e100f70770e0$__91632e7263ea91612786916034916036916037919088906004016152b4565b5f6040518083038186803b15801561279c575f80fd5b505af41580156127ae573d5f803e3d5ffd5b50505050505050505050505050505050565b6127c861330e565b6001600160a01b0382165f90815260346020526040902060030154600160a81b900461ffff1615158061282f57505f805260366020527f4cb2b152c1b54ce671907a93c300fd5aa72383a9d4ec19a81e3333632ae92e00546001600160a01b038381169116145b604051806040016040528060028152602001611c1960f11b815250906128685760405162461bcd60e51b81526004016110d99190614240565b50604051636ae4381360e01b8152603460048201526001600160a01b038316602482015264ffffffffff8216604482015273__$5c81c34ced5c181849a1f58b32d6fe0e6c$__90636ae4381390606401611a83565b6128c561330e565b6001600160801b03908116600160801b02911617603a55565b604080516001600160a01b038381165f8181526035602090815285822060c0860187525460a086019081528552603b54600160401b900461ffff1681860152848601929092528451631f94a27560e31b8152945190948594859485948594859473__$5c81c34ced5c181849a1f58b32d6fe0e6c$__946326ec273f9460349460369460379460608501937f0000000000000000000000000000000000000000000000000000000000000000169263fca513a8926004808401938290030181865afa1580156129ae573d5f803e3d5ffd5b505050506040513d601f19601f820116820180604052508101906129d29190614cf3565b6001600160a01b0390811682528e81165f908152603860209081526040918290205460ff90811694820194909452815160e08a901b6001600160e01b0319168152600481019890985260248801969096526044870194909452825151606487015293820151608486015291810151831660a4850152606081015190921660c48401526080909101511660e48201526101040160c060405180830381865af4158015612a7f573d5f803e3d5ffd5b505050506040513d601f19601f82011682018060405250810190612aa3919061541d565b949c939b5091995097509550909350915050565b5f612ac06139d8565b60015490915060ff1680612ad35750303b155b80612ade57505f5481115b612b415760405162461bcd60e51b815260206004820152602e60248201527f436f6e747261637420696e7374616e63652068617320616c726561647920626560448201526d195b881a5b9a5d1a585b1a5e995960921b60648201526084016110d9565b60015460ff16158015612b5f576001805460ff1916811790555f8290555b7f00000000000000000000000000000000000000000000000000000000000000006001600160a01b0316836001600160a01b03161460405180604001604052806002815260200161189960f11b81525090612bcd5760405162461bcd60e51b81526004016110d99190614240565b508015611fc6576001805460ff19169055505050565b612beb6139ea565b6040516343d9915960e11b81526001600160a01b038085166004830152831660248201526044810182905273__$5c81c34ced5c181849a1f58b32d6fe0e6c$__906387b322b2906064015f6040518083038186803b158015612c4b575f80fd5b505af4158015612c5d573d5f803e3d5ffd5b50505050505050565b6001600160a01b0381165f90815260346020526040812061170890613b0a565b603b54606090600160401b900461ffff165f808267ffffffffffffffff811115612cb257612cb2614624565b604051908082528060200260200182016040528015612cdb578160200160208202803683370190505b5090505f5b83811015612d7b575f818152603660205260409020546001600160a01b031615612d5b575f818152603660205260409020546001600160a01b031682612d268584615463565b81518110612d3657612d36615476565b60200260200101906001600160a01b031690816001600160a01b031681525050612d69565b82612d658161548a565b9350505b80612d738161548a565b915050612ce0565b5091038152919050565b6001600160a01b038681165f908152603460209081526040918290206004015482518084019093526002835261313160f01b918301919091529091163314612de05760405162461bcd60e51b81526004016110d99190614240565b5073__$91b47d451814c731a99462488968bab857$__638a5dadd160346036603760356040518061012001604052808d6001600160a01b031681526020018c6001600160a01b031681526020018b6001600160a01b031681526020018a8152602001898152602001888152602001603b60089054906101000a900461ffff1661ffff1681526020017f00000000000000000000000000000000000000000000000000000000000000006001600160a01b031663fca513a86040518163ffffffff1660e01b8152600401602060405180830381865afa158015612ec4573d5f803e3d5ffd5b505050506040513d601f19601f82011682018060405250810190612ee89190614cf3565b6001600160a01b0390811682528d165f908152603860209081526040918290205460ff16920191909152516001600160e01b031960e088901b168152612f359594939291906004016154a2565b5f6040518083038186803b158015612f4b575f80fd5b505af4158015612f5d573d5f803e3d5ffd5b50505050505050505050565b5f612f72613440565b6001600160a01b0384165f818152603460205260409081902060395491516311ce864960e31b8152600481019190915260248101929092526044820185905260648201849052608482015273__$97e4eb0b6bcf9a716469ce15878e0c4184$__90638e7432489060a4016114a7565b612fe961330e565b604051631e3b414560e01b8152603460048201526001600160a01b038216602482015273__$5c81c34ced5c181849a1f58b32d6fe0e6c$__90631e3b4145906044016113c1565b60405163d505accf60e01b81525f906001600160a01b038a169063d505accf9061306a90339030908d908b908b908b908b90600401614dc6565b5f604051808303815f87803b158015613081575f80fd5b505af1925050508015613092575060015b505f6040518060a001604052808b6001600160a01b031681526020018a81526020018960028111156130c6576130c6614e8a565b60028111156130d7576130d7614e8a565b81526001600160a01b03891660208083018290525f6040938401819052918252603590528190209051632074aef360e11b815291925073__$83e702f37eeb79ca6ea8c03d9bc14d29cb$__916340e95de69161313d916034916036918790600401614ebe565b602060405180830381865af4158015613158573d5f803e3d5ffd5b505050506040513d601f19601f8201168201806040525081019061317c9190614f24565b9a9950505050505050505050565b61319261330e565b604080518082019091526002815261373760f01b60208201526001600160a01b0383166131d25760405162461bcd60e51b81526004016110d99190614240565b506001600160a01b0382165f90815260346020526040902060030154600160a81b900461ffff1615158061323a57505f805260366020527f4cb2b152c1b54ce671907a93c300fd5aa72383a9d4ec19a81e3333632ae92e00546001600160a01b038381169116145b604051806040016040528060028152602001611c1960f11b815250906132735760405162461bcd60e51b81526004016110d99190614240565b506001600160a01b0382165f908152603460205260409020813581558190612160565b61329e61330e565b604080518082019091526002815261189b60f11b602082015260ff83166132d85760405162461bcd60e51b81526004016110d99190614240565b5060ff919091165f90815260376020526040902060020180546001600160801b0319166001600160801b03909216919091179055565b336001600160a01b03167f00000000000000000000000000000000000000000000000000000000000000006001600160a01b031663631adfca6040518163ffffffff1660e01b8152600401602060405180830381865afa158015613374573d5f803e3d5ffd5b505050506040513d601f19601f820116820180604052508101906133989190614cf3565b6001600160a01b03161460405180604001604052806002815260200161031360f41b815250906133db5760405162461bcd60e51b81526004016110d99190614240565b50565b60038101545f90600160801b900464ffffffffff1642810361340c575050600201546001600160801b031690565b60028301546114e9906001600160801b038082169161343491600160801b9091041684613b60565b90613b6c565b50919050565b7f00000000000000000000000000000000000000000000000000000000000000006001600160a01b031663707cd7166040518163ffffffff1660e01b8152600401602060405180830381865afa15801561349c573d5f803e3d5ffd5b505050506040513d601f19601f820116820180604052508101906134c09190614cf3565b604051633933006760e11b81523360048201526001600160a01b03919091169063726600ce90602401602060405180830381865afa158015613504573d5f803e3d5ffd5b505050506040513d601f19601f8201168201806040525081019061352891906150b8565b604051806040016040528060018152602001601b60f91b815250906133db5760405162461bcd60e51b81526004016110d99190614240565b61356861400c565b61357061400c565b6040805160208101825284548152610120830181905251901c61ffff1661010082015260018301546001600160801b0380821660608401819052604080850191909152600286015480831660a086018190526080860152600160801b93849004831660c086015283900490911660e08401526004808601546001600160a01b03908116610140860152600687015416610160850181905260038701549390930464ffffffffff16610180850152815163b1bf962d60e01b8152915163b1bf962d9280830192602092918290030181865afa158015613650573d5f803e3d5ffd5b505050506040513d601f19601f820116820180604052508101906136749190614f24565b60208201819052815292915050565b5f61369f8560a001518660200151613b6c90919063ffffffff16565b600787015460408051610100808201835260088b0154600160801b90046001600160801b03168252602080830189905282840188905260608301869052908a015160808301526001600160a01b0389811660a084015283519182019093528a54908190529394505f938493929092169163b90db31b919060c0820190600160fc1b1615151515815260098c0154600160801b90046001600160801b03166020918201526040805160e085811b6001600160e01b031916825284516004830152928401516024820152908301516044820152606083015160648201526080830151608482015260a08301516001600160a01b031660a482015260c0830151151560c482015291015160e4820152610104016040805180830381865afa1580156137c9573d5f803e3d5ffd5b505050506040513d601f19601f820116820180604052508101906137ed9190615549565b915091506137fa82613bae565b6001890180546001600160801b03928316600160801b02921691909117905561382281613bae565b6002890180546001600160801b03928316600160801b0292169190911790556040805160208101909152885481526138609051600160fc1b16151590565b156139155784156138bd5761387485613bae565b600989018054601090613898908490600160801b90046001600160801b031661556b565b92506101000a8154816001600160801b0302191690836001600160801b031602179055505b8315613915576138cc84613bae565b6009890180546010906138f0908490600160801b90046001600160801b0316615592565b92506101000a8154816001600160801b0302191690836001600160801b031602179055505b60608781015160a0808a0151604080518781525f602082015280820187905294850193909352608084015290516001600160a01b038916927f804c9b842b2748a22bb64b345453a3de7ca54a6ca45ce00d415894979e22897a92908290030190a25050505050505050565b600382015464ffffffffff428116600160801b90920416036139a0575050565b6139aa8282613c1a565b6139b48282613cf1565b50600301805464ffffffffff60801b1916600160801b4264ffffffffff1602179055565b5f6139e5600560016155b2565b905090565b7f00000000000000000000000000000000000000000000000000000000000000006001600160a01b031663707cd7166040518163ffffffff1660e01b8152600401602060405180830381865afa158015613a46573d5f803e3d5ffd5b505050506040513d601f19601f82011682018060405250810190613a6a9190614cf3565b604051637be53ca160e01b81523360048201526001600160a01b039190911690637be53ca190602401602060405180830381865afa158015613aae573d5f803e3d5ffd5b505050506040513d601f19601f82011682018060405250810190613ad291906150b8565b604051806040016040528060018152602001603160f81b815250906133db5760405162461bcd60e51b81526004016110d99190614240565b60038101545f90600160801b900464ffffffffff16428103613b38575050600101546001600160801b031690565b60018301546114e9906001600160801b038082169161343491600160801b9091041684613dc0565b5f6114e9838342613e04565b5f81156b019d971e4fe8401e740000001983900484111517613b8c575f80fd5b506b033b2e3c9fd0803ce800000091026b019d971e4fe8401e74000000010490565b5f6001600160801b03821115613c165760405162461bcd60e51b815260206004820152602760248201527f53616665436173743a2076616c756520646f65736e27742066697420696e20316044820152663238206269747360c81b60648201526084016110d9565b5090565b60c081015115613c85575f613c388260c00151836101800151613dc0565b9050613c51826040015182613b6c90919063ffffffff16565b60608301819052613c6190613bae565b6001840180546001600160801b0319166001600160801b0392909216919091179055505b805115613ced575f613ca08260e00151836101800151613b60565b9050613cb9826080015182613b6c90919063ffffffff16565b60a08301819052613cc990613bae565b6002840180546001600160801b0319166001600160801b0392909216919091179055505b5050565b8061010001515f03613d01575050565b608081015181515f91613d149190613b6c565b60a083015183519192505f91613d2991613b6c565b90505f613d368383615463565b90505f613d5185610100015183613f2990919063ffffffff16565b90508015611aab57613d78613d73866060015183613f4d90919063ffffffff16565b613bae565b6008870180545f90613d949084906001600160801b031661556b565b92506101000a8154816001600160801b0302191690836001600160801b03160217905550505050505050565b5f80613dd364ffffffffff841642615463565b613ddd90856155c5565b6301e1338090049050613dfc816b033b2e3c9fd0803ce80000006155b2565b949350505050565b5f80613e1764ffffffffff851684615463565b9050805f03613e35576b033b2e3c9fd0803ce80000009150506114e9565b5f1981015f808060028511613e4a575f613e4f565b600285035b925066038882915c4000613e638a80613b6c565b81613e7057613e706155dc565b0491506301e13380613e82838b613b6c565b81613e8f57613e8f6155dc565b0490505f82613e9e86886155c5565b613ea891906155c5565b6002900490505f8285613ebb888a6155c5565b613ec591906155c5565b613ecf91906155c5565b60069004905080826301e13380613ee68a8f6155c5565b613ef091906155f0565b613f06906b033b2e3c9fd0803ce80000006155b2565b613f1091906155b2565b613f1a91906155b2565b9b9a5050505050505050505050565b5f81156113881983900484111517613f3f575f80fd5b506127109102611388010490565b5f81156b033b2e3c9fd0803ce800000060028404190484111715613f6f575f80fd5b506b033b2e3c9fd0803ce80000009190910260028204010490565b60408051610200810182525f6101e08201818152825260208201819052918101829052606081018290526080810182905260a0810182905260c0810182905260e08101829052610100810182905261012081018290526101408101829052610160810182905261018081018290526101a081018290526101c081019190915290565b604051806101a001604052805f81526020015f81526020015f81526020015f81526020015f81526020015f81526020015f81526020015f81526020015f815260200161406360405180602001604052805f81525090565b81525f602082018190526040820181905260609091015290565b6001600160a01b03811681146133db575f80fd5b803561409c8161407d565b919050565b80151581146133db575f80fd5b5f805f805f60a086880312156140c2575f80fd5b85356140cd8161407d565b945060208601356140dd8161407d565b935060408601356140ed8161407d565b9250606086013591506080860135614104816140a1565b809150509295509295909350565b803561ffff8116811461409c575f80fd5b803560ff8116811461409c575f80fd5b5f805f805f805f80610100898b03121561414b575f80fd5b88356141568161407d565b975060208901359650604089013561416d8161407d565b955061417b60608a01614112565b94506080890135935061419060a08a01614123565b925060c0890135915060e089013590509295985092959890939650565b5f80604083850312156141be575f80fd5b82356141c98161407d565b915060208301356141d98161407d565b809150509250929050565b5f602082840312156141f4575f80fd5b6114e982614123565b5f81518084525f5b8181101561422157602081850181015186830182015201614205565b505f602082860101526020601f19601f83011685010191505092915050565b602081525f6114e960208301846141fd565b5f805f60608486031215614264575f80fd5b833561426f8161407d565b95602085013595506040909401359392505050565b5f60208284031215614294575f80fd5b5035919050565b5f602082840312156142ab575f80fd5b81356114e98161407d565b81515181526101e0810160208301516142da60208401826001600160801b03169052565b5060408301516142f560408401826001600160801b03169052565b50606083015161431060608401826001600160801b03169052565b50608083015161432b60808401826001600160801b03169052565b5060a083015161434660a08401826001600160801b03169052565b5060c083015161435f60c084018264ffffffffff169052565b5060e083015161437560e084018261ffff169052565b50610100838101516001600160a01b039081169184019190915261012080850151821690840152610140808501518216908401526101608085015190911690830152610180808401516001600160801b03908116918401919091526101a0808501518216908401526101c08085015191821681850152905b505092915050565b5f8083601f840112614405575f80fd5b50813567ffffffffffffffff81111561441c575f80fd5b602083019150836020828501011115614433575f80fd5b9250929050565b5f805f805f8060a0878903121561444f575f80fd5b863561445a8161407d565b9550602087013561446a8161407d565b945060408701359350606087013567ffffffffffffffff81111561448c575f80fd5b61449889828a016143f5565b90945092506144ab905060808801614112565b90509295509295509295565b5f602082840312156144c7575f80fd5b6114e982614112565b5f805f80608085870312156144e3575f80fd5b84356144ee8161407d565b93506020850135925060408501359150606085013561450c8161407d565b939692955090935050565b5f8060408385031215614528575f80fd5b82356145338161407d565b915060208301356141d9816140a1565b5f805f8060808587031215614556575f80fd5b84356145618161407d565b93506020850135925060408501356145788161407d565b915061458660608601614112565b905092959194509250565b5f805f606084860312156145a3575f80fd5b83356145ae8161407d565b92506020840135915060408401356145c58161407d565b809150509250925092565b602081525f61ffff8084511660208401528060208501511660408401528060408501511660608401525060018060a01b036060840151166080830152608083015160a080840152613dfc60c08401826141fd565b634e487b7160e01b5f52604160045260245ffd5b6040516080810167ffffffffffffffff8111828210171561465b5761465b614624565b60405290565b604051601f8201601f1916810167ffffffffffffffff8111828210171561468a5761468a614624565b604052919050565b5f80604083850312156146a3575f80fd5b6146ac83614123565b915060208084013567ffffffffffffffff808211156146c9575f80fd5b90850190608082880312156146dc575f80fd5b6146e4614638565b6146ed83614112565b81526146fa848401614112565b8482015261470a60408401614112565b6040820152606083013582811115614720575f80fd5b80840193505087601f840112614734575f80fd5b82358281111561474657614746614624565b614758601f8201601f19168601614661565b9250808352888582860101111561476d575f80fd5b80858501868501375f85828501015250816060820152809450505050509250929050565b8151518152610220810160208301516147b560208401826001600160801b03169052565b5060408301516147d060408401826001600160801b03169052565b5060608301516147eb60608401826001600160801b03169052565b50608083015161480660808401826001600160801b03169052565b5060a083015161482160a08401826001600160801b03169052565b5060c083015161483a60c084018264ffffffffff169052565b5060e083015161485060e084018261ffff169052565b506101008381015164ffffffffff1690830152610120808401516001600160a01b0390811691840191909152610140808501518216908401526101608085015182169084015261018080850151909116908301526101a0808401516001600160801b03908116918401919091526101c0808501518216908401526101e0808501518216908401526102008085015191821681850152906143ed565b5f805f80608085870312156148fe575f80fd5b84356149098161407d565b935060208501356149198161407d565b925060408501356149298161407d565b9150606085013561450c8161407d565b80356001600160801b038116811461409c575f80fd5b5f8060408385031215614960575f80fd5b61496983614123565b915061497760208401614939565b90509250929050565b5f8083601f840112614990575f80fd5b50813567ffffffffffffffff8111156149a7575f80fd5b6020830191508360208260051b8501011115614433575f80fd5b5f80602083850312156149d2575f80fd5b823567ffffffffffffffff8111156149e8575f80fd5b6149f485828601614980565b90969095509350505050565b5f805f805f60a08688031215614a14575f80fd5b8535614a1f8161407d565b94506020860135935060408601359250614a3b60608701614112565b915060808601356141048161407d565b5f805f805f805f805f805f60e08c8e031215614a65575f80fd5b614a6e8c614091565b9a5067ffffffffffffffff8060208e01351115614a89575f80fd5b614a998e60208f01358f01614980565b909b50995060408d0135811015614aae575f80fd5b614abe8e60408f01358f01614980565b909950975060608d0135811015614ad3575f80fd5b614ae38e60608f01358f01614980565b9097509550614af460808e01614091565b94508060a08e01351115614b06575f80fd5b50614b178d60a08e01358e016143f5565b9093509150614b2860c08d01614112565b90509295989b509295989b9093969950565b5f8060408385031215614b4b575f80fd5b8235614b568161407d565b9150602083013564ffffffffff811681146141d9575f80fd5b5f8060408385031215614b80575f80fd5b61496983614939565b5f805f60608486031215614b9b575f80fd5b8335614ba68161407d565b92506020840135614bb68161407d565b929592945050506040919091013590565b602080825282518282018190525f9190848201906040850190845b81811015614c075783516001600160a01b031683529284019291840191600101614be2565b50909695505050505050565b5f805f805f8060c08789031215614c28575f80fd5b8635614c338161407d565b95506020870135614c438161407d565b94506040870135614c538161407d565b959894975094956060810135955060808101359460a0909101359350915050565b5f805f805f805f80610100898b031215614c8c575f80fd5b8835614c978161407d565b97506020890135965060408901359550606089013561417b8161407d565b5f808284036040811215614cc7575f80fd5b8335614cd28161407d565b92506020601f1982011215614ce5575f80fd5b506020830190509250929050565b5f60208284031215614d03575f80fd5b81516114e98161407d565b5f6101a08201905086825285602083015284604083015283606083015282516080830152602083015160a0830152604083015160018060a01b0380821660c08501528060608601511660e085015250506080830151610100614d7a818501836001600160a01b03169052565b60a0850151151561012085015260c08501516001600160a01b0390811661014086015260e086015160ff166101608601529085015190811661018085015290505b509695505050505050565b6001600160a01b0397881681529590961660208601526040850193909352606084019190915260ff16608083015260a082015260c081019190915260e00190565b93845260208085019390935260408085019290925280516001600160a01b039081166060808701919091529382015160808601529181015190911660a0840152015161ffff1660c082015260e00190565b600181811c90821680614e6c57607f821691505b60208210810361343a57634e487b7160e01b5f52602260045260245ffd5b634e487b7160e01b5f52602160045260245ffd5b60038110614eba57634e487b7160e01b5f52602160045260245ffd5b9052565b8481526020808201859052604080830185905283516001600160a01b03908116606085015291840151608084015283015161010083019190614f0360a0850182614e9e565b5060608401511660c0830152608090920151151560e0909101529392505050565b5f60208284031215614f34575f80fd5b5051919050565b828152604060208201525f60018060a01b038084511660408401528060208501511660608401525060408301516080830152606083015160e060a0840152614f876101208401826141fd565b905061ffff60808501511660c084015260a084015160e084015260c0840151610100840152809150509392505050565b601f821115611fc6575f81815260208120601f850160051c81016020861015614fdd5750805b601f850160051c820191505b81811015611aab57828155600101614fe9565b815167ffffffffffffffff81111561501657615016614624565b61502a816150248454614e58565b84614fb7565b602080601f83116001811461505d575f84156150465750858301515b5f19600386901b1c1916600185901b178555611aab565b5f85815260208120601f198616915b8281101561508b5788860151825594840194600190910190840161506c565b50858210156150a857878501515f19600388901b60f8161c191681555b5050505050600190811b01905550565b5f602082840312156150c8575f80fd5b81516114e9816140a1565b634e487b7160e01b5f52601160045260245ffd5b5f61ffff8083168181036150fd576150fd6150d3565b6001019392505050565b838152604060208083018290529082018390525f90849060608401835b868110156151525783356151378161407d565b6001600160a01b031682529282019290820190600101615124565b50979650505050505050565b85815260208101859052604081018490526060810183905281516001600160a01b031660808201526101e0810160208301516001600160a01b03811660a08401525060408301516001600160a01b03811660c084015250606083015160e083015260808301516101006151d381850183614e9e565b60a085015191506101206151ec8186018461ffff169052565b60c086015192506101406152038187018515159052565b60e0870151610160870152918601516001600160a01b039081166101808701529086015160ff166101a0860152908501519081166101c08501529050614dbb565b5f8151808452602080850194508084015f5b8381101561527b5781516001600160a01b031687529582019590820190600101615256565b509495945050505050565b5f8151808452602080850194508084015f5b8381101561527b57815187529582019590820190600101615298565b85815284602082015283604082015282606082015260a060808201526152e660a0820183516001600160a01b03169052565b5f60208301516101c08060c0850152615303610260850183615244565b91506040850151609f19808685030160e08701526153218483615286565b9350606087015191506101008187860301818801526153408584615286565b945060808801519250610120615360818901856001600160a01b03169052565b60a089015193506101408389880301818a015261537d87866141fd565b965060c08a01519450610160935061539a848a018661ffff169052565b60e08a0151945061018085818b0152838b015195506101a0935085848b0152828b0151878b0152818b015196506153dd6101e08b01886001600160a01b03169052565b848b01516001600160a01b03166102008b01528a015160ff81166102208b01529550615407915050565b8701518015156102408801529250615152915050565b5f805f805f8060c08789031215615432575f80fd5b865195506020870151945060408701519350606087015192506080870151915060a087015190509295509295509295565b81810381811115611708576117086150d3565b634e487b7160e01b5f52603260045260245ffd5b5f6001820161549b5761549b6150d3565b5060010190565b858152602080820186905260408083018690526060830185905283516001600160a01b03908116608085015291840151821660a084015283015190811660c08301526101a082019050606083015160e08301526080830151610100818185015260a085015161012085015260c085015161014085015260e085015191506155356101608501836001600160a01b03169052565b84015160ff81166101808501529050614dbb565b5f806040838503121561555a575f80fd5b505080516020909101519092909150565b6001600160801b0381811683821601908082111561558b5761558b6150d3565b5092915050565b6001600160801b0382811682821603908082111561558b5761558b6150d3565b80820180821115611708576117086150d3565b8082028115828204841417611708576117086150d3565b634e487b7160e01b5f52601260045260245ffd5b5f8261560a57634e487b7160e01b5f52601260045260245ffd5b50049056fea164736f6c6343000814000a","linkReferences":{"src/contracts/protocol/libraries/logic/BorrowLogic.sol":{"BorrowLogic":[{"start":1478,"length":20},{"start":5376,"length":20},{"start":6460,"length":20},{"start":9076,"length":20},{"start":12828,"length":20}]},"src/contracts/protocol/libraries/logic/BridgeLogic.sol":{"BridgeLogic":[{"start":3512,"length":20},{"start":7811,"length":20},{"start":12492,"length":20}]},"src/contracts/protocol/libraries/logic/EModeLogic.sol":{"EModeLogic":[{"start":3619,"length":20},{"start":4969,"length":20}]},"src/contracts/protocol/libraries/logic/FlashLoanLogic.sol":{"FlashLoanLogic":[{"start":1542,"length":20},{"start":6364,"length":20},{"start":10337,"length":20}]},"src/contracts/protocol/libraries/logic/LiquidationLogic.sol":{"LiquidationLogic":[{"start":2854,"length":20},{"start":3716,"length":20}]},"src/contracts/protocol/libraries/logic/PoolLogic.sol":{"PoolLogic":[{"start":3448,"length":20},{"start":8418,"length":20},{"start":9029,"length":20},{"start":10664,"length":20},{"start":10829,"length":20},{"start":11557,"length":20},{"start":12571,"length":20}]},"src/contracts/protocol/libraries/logic/SupplyLogic.sol":{"SupplyLogic":[{"start":2763,"length":20},{"start":4411,"length":20},{"start":6722,"length":20},{"start":7181,"length":20},{"start":7279,"length":20},{"start":12016,"length":20}]}}},"methodIdentifiers":{"ADDRESSES_PROVIDER()":"0542975c","BRIDGE_PROTOCOL_FEE()":"272d9072","FLASHLOAN_PREMIUM_TOTAL()":"074b2e43","FLASHLOAN_PREMIUM_TO_PROTOCOL()":"6a99c036","MAX_NUMBER_RESERVES()":"f8119d51","POOL_REVISION()":"0148170e","backUnbacked(address,uint256,uint256)":"d65dc7a1","borrow(address,uint256,uint256,uint16,address)":"a415bcad","configureEModeCategory(uint8,(uint16,uint16,uint16,string))":"7b75d7f4","configureEModeCategoryBorrowableBitmap(uint8,uint128)":"ff72158a","configureEModeCategoryCollateralBitmap(uint8,uint128)":"92380ecb","deposit(address,uint256,address,uint16)":"e8eda9df","dropReserve(address)":"63c9b860","finalizeTransfer(address,address,address,uint256,uint256,uint256)":"d5ed3933","flashLoan(address,address[],uint256[],uint256[],address,bytes,uint16)":"ab9c4b5d","flashLoanSimple(address,address,uint256,bytes,uint16)":"42b0b77c","getBorrowLogic()":"2be29fa7","getBridgeLogic()":"df374c36","getConfiguration(address)":"c44b11f7","getEModeCategoryBorrowableBitmap(uint8)":"903a2c71","getEModeCategoryCollateralBitmap(uint8)":"b0771dba","getEModeCategoryCollateralConfig(uint8)":"b286f467","getEModeCategoryData(uint8)":"6c6f6ae1","getEModeCategoryLabel(uint8)":"2083e183","getEModeLogic()":"f32b9a73","getFlashLoanLogic()":"348fde0f","getLiquidationGracePeriod(address)":"5c9a8b18","getLiquidationLogic()":"911a3413","getPoolLogic()":"d3350155","getReserveAddressById(uint16)":"52751797","getReserveData(address)":"35ea6a75","getReserveDataExtended(address)":"8381995f","getReserveNormalizedIncome(address)":"d15e0053","getReserveNormalizedVariableDebt(address)":"386497fd","getReservesCount()":"72218d04","getReservesList()":"d1946dbc","getSupplyLogic()":"870e7744","getUserAccountData(address)":"bf92857c","getUserConfiguration(address)":"4417a583","getUserEMode(address)":"eddf1b79","getVirtualUnderlyingBalance(address)":"6fb07f96","initReserve(address,address,address,address)":"8bd25677","initialize(address)":"c4d66de8","liquidationCall(address,address,address,uint256,bool)":"00a718a9","mintToTreasury(address[])":"9cd19996","mintUnbacked(address,uint256,address,uint16)":"69a933a5","repay(address,uint256,uint256,address)":"573ade81","repayWithATokens(address,uint256,uint256)":"2dad97d4","repayWithPermit(address,uint256,uint256,address,uint256,uint8,bytes32,bytes32)":"ee3e210b","rescueTokens(address,address,uint256)":"cea9d26f","resetIsolationModeTotalDebt(address)":"e43e88a1","setConfiguration(address,(uint256))":"f51e435b","setLiquidationGracePeriod(address,uint40)":"b1a99e26","setMaxNumberOfReserves(uint16)":"57c68dc4","setReserveInterestRateStrategyAddress(address,address)":"1d2118f9","setUserEMode(uint8)":"28530a47","setUserUseReserveAsCollateral(address,bool)":"5a3b74b9","supply(address,uint256,address,uint16)":"617ba037","supplyWithPermit(address,uint256,address,uint16,uint256,uint8,bytes32,bytes32)":"02c205f0","syncIndexesState(address)":"ab2b51f6","syncRatesState(address)":"98c7da4e","updateBridgeProtocolFee(uint256)":"3036b439","updateFlashloanPremiums(uint128,uint128)":"bcb6e522","withdraw(address,uint256,address)":"69328dec"},"id":187}