{"abi":[{"type":"constructor","inputs":[{"name":"pool","type":"address","internalType":"contract IPool"}],"stateMutability":"nonpayable"},{"type":"function","name":"POOL","inputs":[],"outputs":[{"name":"","type":"address","internalType":"contract IPool"}],"stateMutability":"view"},{"type":"function","name":"allowance","inputs":[{"name":"owner","type":"address","internalType":"address"},{"name":"spender","type":"address","internalType":"address"}],"outputs":[{"name":"","type":"uint256","internalType":"uint256"}],"stateMutability":"view"},{"type":"function","name":"approve","inputs":[{"name":"spender","type":"address","internalType":"address"},{"name":"amount","type":"uint256","internalType":"uint256"}],"outputs":[{"name":"","type":"bool","internalType":"bool"}],"stateMutability":"nonpayable"},{"type":"function","name":"balanceOf","inputs":[{"name":"account","type":"address","internalType":"address"}],"outputs":[{"name":"","type":"uint256","internalType":"uint256"}],"stateMutability":"view"},{"type":"function","name":"decimals","inputs":[],"outputs":[{"name":"","type":"uint8","internalType":"uint8"}],"stateMutability":"view"},{"type":"function","name":"decreaseAllowance","inputs":[{"name":"spender","type":"address","internalType":"address"},{"name":"subtractedValue","type":"uint256","internalType":"uint256"}],"outputs":[{"name":"","type":"bool","internalType":"bool"}],"stateMutability":"nonpayable"},{"type":"function","name":"getIncentivesController","inputs":[],"outputs":[{"name":"","type":"address","internalType":"contract IAaveIncentivesController"}],"stateMutability":"view"},{"type":"function","name":"getPreviousIndex","inputs":[{"name":"user","type":"address","internalType":"address"}],"outputs":[{"name":"","type":"uint256","internalType":"uint256"}],"stateMutability":"view"},{"type":"function","name":"getScaledUserBalanceAndSupply","inputs":[{"name":"user","type":"address","internalType":"address"}],"outputs":[{"name":"","type":"uint256","internalType":"uint256"},{"name":"","type":"uint256","internalType":"uint256"}],"stateMutability":"view"},{"type":"function","name":"increaseAllowance","inputs":[{"name":"spender","type":"address","internalType":"address"},{"name":"addedValue","type":"uint256","internalType":"uint256"}],"outputs":[{"name":"","type":"bool","internalType":"bool"}],"stateMutability":"nonpayable"},{"type":"function","name":"name","inputs":[],"outputs":[{"name":"","type":"string","internalType":"string"}],"stateMutability":"view"},{"type":"function","name":"scaledBalanceOf","inputs":[{"name":"user","type":"address","internalType":"address"}],"outputs":[{"name":"","type":"uint256","internalType":"uint256"}],"stateMutability":"view"},{"type":"function","name":"scaledTotalSupply","inputs":[],"outputs":[{"name":"","type":"uint256","internalType":"uint256"}],"stateMutability":"view"},{"type":"function","name":"setIncentivesController","inputs":[{"name":"controller","type":"address","internalType":"contract IAaveIncentivesController"}],"outputs":[],"stateMutability":"nonpayable"},{"type":"function","name":"setStorage","inputs":[{"name":"alice","type":"address","internalType":"address"},{"name":"bob","type":"address","internalType":"address"},{"name":"previousIndex","type":"uint256","internalType":"uint256"},{"name":"aliceScaledBalance","type":"uint256","internalType":"uint256"},{"name":"bobScaledBalance","type":"uint256","internalType":"uint256"}],"outputs":[],"stateMutability":"nonpayable"},{"type":"function","name":"symbol","inputs":[],"outputs":[{"name":"","type":"string","internalType":"string"}],"stateMutability":"view"},{"type":"function","name":"totalSupply","inputs":[],"outputs":[{"name":"","type":"uint256","internalType":"uint256"}],"stateMutability":"view"},{"type":"function","name":"transfer","inputs":[{"name":"recipient","type":"address","internalType":"address"},{"name":"amount","type":"uint256","internalType":"uint256"}],"outputs":[{"name":"","type":"bool","internalType":"bool"}],"stateMutability":"nonpayable"},{"type":"function","name":"transferFrom","inputs":[{"name":"sender","type":"address","internalType":"address"},{"name":"recipient","type":"address","internalType":"address"},{"name":"amount","type":"uint256","internalType":"uint256"}],"outputs":[{"name":"","type":"bool","internalType":"bool"}],"stateMutability":"nonpayable"},{"type":"function","name":"transferWithIndex","inputs":[{"name":"sender","type":"address","internalType":"address"},{"name":"recipient","type":"address","internalType":"address"},{"name":"amount","type":"uint256","internalType":"uint256"},{"name":"newIndex","type":"uint256","internalType":"uint256"}],"outputs":[],"stateMutability":"nonpayable"},{"type":"event","name":"Approval","inputs":[{"name":"owner","type":"address","indexed":true,"internalType":"address"},{"name":"spender","type":"address","indexed":true,"internalType":"address"},{"name":"value","type":"uint256","indexed":false,"internalType":"uint256"}],"anonymous":false},{"type":"event","name":"Burn","inputs":[{"name":"from","type":"address","indexed":true,"internalType":"address"},{"name":"target","type":"address","indexed":true,"internalType":"address"},{"name":"value","type":"uint256","indexed":false,"internalType":"uint256"},{"name":"balanceIncrease","type":"uint256","indexed":false,"internalType":"uint256"},{"name":"index","type":"uint256","indexed":false,"internalType":"uint256"}],"anonymous":false},{"type":"event","name":"Mint","inputs":[{"name":"caller","type":"address","indexed":true,"internalType":"address"},{"name":"onBehalfOf","type":"address","indexed":true,"internalType":"address"},{"name":"value","type":"uint256","indexed":false,"internalType":"uint256"},{"name":"balanceIncrease","type":"uint256","indexed":false,"internalType":"uint256"},{"name":"index","type":"uint256","indexed":false,"internalType":"uint256"}],"anonymous":false},{"type":"event","name":"Transfer","inputs":[{"name":"from","type":"address","indexed":true,"internalType":"address"},{"name":"to","type":"address","indexed":true,"internalType":"address"},{"name":"value","type":"uint256","indexed":false,"internalType":"uint256"}],"anonymous":false}],"bytecode":{"object":"0x60c060405234801562000010575f80fd5b506040516200129638038062001296833981016040819052620000339162000149565b80604051806040016040528060018152602001604160f81b815250604051806040016040528060018152602001604160f81b81525060068383838383838383836001600160a01b0316630542975c6040518163ffffffff1660e01b8152600401602060405180830381865afa158015620000af573d5f803e3d5ffd5b505050506040513d601f19601f82011682018060405250810190620000d5919062000149565b6001600160a01b03166080526003620000ef84826200020e565b506004620000fe83826200020e565b506005805460ff191660ff9290921691909117905550506001600160a01b031660a05250620002d6975050505050505050565b6001600160a01b038116811462000146575f80fd5b50565b5f602082840312156200015a575f80fd5b8151620001678162000131565b9392505050565b634e487b7160e01b5f52604160045260245ffd5b600181811c908216806200019757607f821691505b602082108103620001b657634e487b7160e01b5f52602260045260245ffd5b50919050565b601f82111562000209575f81815260208120601f850160051c81016020861015620001e45750805b601f850160051c820191505b818110156200020557828155600101620001f0565b5050505b505050565b81516001600160401b038111156200022a576200022a6200016e565b62000242816200023b845462000182565b84620001bc565b602080601f83116001811462000278575f8415620002605750858301515b5f19600386901b1c1916600185901b17855562000205565b5f85815260208120601f198616915b82811015620002a85788860151825594840194600190910190840162000287565b5085821015620002c657878501515f19600388901b60f8161c191681555b5050505050600190811b01905550565b60805160a051610f9e620002f85f395f61029e01525f6105ba0152610f9e5ff3fe608060405234801561000f575f80fd5b5060043610610127575f3560e01c806370a08231116100a9578063a9059cbb1161006e578063a9059cbb14610309578063b1bf962d1461031c578063dd62ed3e14610324578063e07539861461035c578063e655dbd814610394575f80fd5b806370a08231146102865780637535d2461461029957806375d26413146102d857806395d89b41146102ee578063a457c2d7146102f6575f80fd5b80631da24f3e116100ef5780631da24f3e1461022557806323b872dd14610238578063313ce5671461024b5780633950935114610260578063559b8e1614610273575f80fd5b806306fdde031461012b578063095ea7b3146101495780630afbcdc91461016c5780631749f2291461019457806318160ddd14610213575b5f80fd5b6101336103a7565b6040516101409190610ceb565b60405180910390f35b61015c610157366004610d4d565b610437565b6040519015158152602001610140565b61017f61017a366004610d77565b61044d565b60408051928352602083019190915201610140565b6102116101a2366004610d99565b6001600160a01b039485165f9081526020819052604080822080546001600160801b03968716600160801b02908716811782559690971680835290822080548616909617865586549385166001600160801b031994851617909655949094528254939091169216919091179055565b005b6002545b604051908152602001610140565b610217610233366004610d77565b610464565b61015c610246366004610de6565b61046e565b60055460405160ff9091168152602001610140565b61015c61026e366004610d4d565b6104d6565b610211610281366004610e24565b61050c565b610217610294366004610d77565b61051e565b6102c07f000000000000000000000000000000000000000000000000000000000000000081565b6040516001600160a01b039091168152602001610140565b60055461010090046001600160a01b03166102c0565b610133610541565b61015c610304366004610d4d565b610550565b61015c610317366004610d4d565b610586565b6102176105a8565b610217610332366004610e67565b6001600160a01b039182165f90815260016020908152604080832093909416825291909152205490565b61021761036a366004610d77565b6001600160a01b03165f90815260208190526040902054600160801b90046001600160801b031690565b6102116103a2366004610d77565b6105b7565b6060600380546103b690610e9e565b80601f01602080910402602001604051908101604052809291908181526020018280546103e290610e9e565b801561042d5780601f106104045761010080835404028352916020019161042d565b820191905f5260205f20905b81548152906001019060200180831161041057829003601f168201915b5050505050905090565b5f61044333848461070c565b5060015b92915050565b5f806104588361051e565b60025491509150915091565b5f6104478261051e565b5f806104798361076c565b6001600160a01b0386165f908152600160209081526040808320338085529252909120549192506104c0918791906104bb906001600160801b03861690610eea565b61070c565b6104cb8585836107d8565b506001949350505050565b335f8181526001602090815260408083206001600160a01b038716845290915281205490916104439185906104bb908690610efd565b6105188484848461098d565b50505050565b6001600160a01b03165f908152602081905260409020546001600160801b031690565b6060600480546103b690610e9e565b335f8181526001602090815260408083206001600160a01b038716845290915281205490916104439185906104bb908690610eea565b5f806105918361076c565b905061059e3385836107d8565b5060019392505050565b5f6105b260025490565b905090565b5f7f00000000000000000000000000000000000000000000000000000000000000006001600160a01b031663707cd7166040518163ffffffff1660e01b8152600401602060405180830381865afa158015610614573d5f803e3d5ffd5b505050506040513d601f19601f820116820180604052508101906106389190610f10565b604051637be53ca160e01b81523360048201529091506001600160a01b03821690637be53ca190602401602060405180830381865afa15801561067d573d5f803e3d5ffd5b505050506040513d601f19601f820116820180604052508101906106a19190610f2b565b604051806040016040528060018152602001603160f81b815250906106e25760405162461bcd60e51b81526004016106d99190610ceb565b60405180910390fd5b5050600580546001600160a01b0390921661010002610100600160a81b0319909216919091179055565b6001600160a01b038381165f8181526001602090815260408083209487168084529482529182902085905590518481527f8c5be1e5ebec7d5bd14f71427d1e84f3dd0314c0f7b2291e5b200ac8c7c3b925910160405180910390a3505050565b5f6001600160801b038211156107d45760405162461bcd60e51b815260206004820152602760248201527f53616665436173743a2076616c756520646f65736e27742066697420696e20316044820152663238206269747360c81b60648201526084016106d9565b5090565b6001600160a01b0383165f908152602081905260409020546001600160801b03166108038282610f4a565b6001600160a01b038581165f9081526020819052604080822080546001600160801b0319166001600160801b0395861617905591861681522054166108488382610f71565b6001600160a01b038581165f90815260208190526040902080546001600160801b0319166001600160801b0393909316929092179091556005546101009004168015610985576002546040516318c39f1760e11b81526001600160a01b038881166004830152602482018390526001600160801b03861660448301528316906331873e2e906064015f604051808303815f87803b1580156108e7575f80fd5b505af11580156108f9573d5f803e3d5ffd5b50505050856001600160a01b0316876001600160a01b031614610983576040516318c39f1760e11b81526001600160a01b038781166004830152602482018390526001600160801b03851660448301528316906331873e2e906064015f604051808303815f87803b15801561096c575f80fd5b505af115801561097e573d5f803e3d5ffd5b505050505b505b505050505050565b5f6109978561051e565b6001600160a01b0386165f90815260208190526040812054919250906109ce908390600160801b90046001600160801b0316610c6c565b6109d88385610c6c565b6109e29190610eea565b90505f6109ee8661051e565b6001600160a01b0387165f9081526020819052604081205491925090610a25908390600160801b90046001600160801b0316610c6c565b610a2f8387610c6c565b610a399190610eea565b9050610a448561076c565b6001600160a01b0389165f90815260208190526040902080546001600160801b03928316600160801b029216919091179055610a7f8561076c565b6001600160a01b0388165f90815260208190526040902080546001600160801b03928316600160801b029216919091179055610acd8888610ac8610ac38a8a610cae565b61076c565b6107d8565b8215610b61576040518381526001600160a01b038916905f907fddf252ad1be2c89b69c2b068fc378daa952ba7f163c4a11628f55a4df523b3ef9060200160405180910390a3604080518481526020810185905280820187905290516001600160a01b038a169133917f458f5fa412d0f69b08dd84872b0215675cc67bc1d5b6fd93300a1c3878b861969181900360600190a35b866001600160a01b0316886001600160a01b031614158015610b8257505f81115b15610c15576040518181526001600160a01b038816905f907fddf252ad1be2c89b69c2b068fc378daa952ba7f163c4a11628f55a4df523b3ef9060200160405180910390a3604080518281526020810183905280820187905290516001600160a01b0389169133917f458f5fa412d0f69b08dd84872b0215675cc67bc1d5b6fd93300a1c3878b861969181900360600190a35b866001600160a01b0316886001600160a01b03167fddf252ad1be2c89b69c2b068fc378daa952ba7f163c4a11628f55a4df523b3ef88604051610c5a91815260200190565b60405180910390a35050505050505050565b5f81156b019d971e4fe8401e740000001983900484111517610c8c575f80fd5b506b033b2e3c9fd0803ce800000091026b019d971e4fe8401e74000000010490565b5f81156b033b2e3c9fd0803ce800000060028404190484111715610cd0575f80fd5b506b033b2e3c9fd0803ce80000009190910260028204010490565b5f6020808352835180828501525f5b81811015610d1657858101830151858201604001528201610cfa565b505f604082860101526040601f19601f8301168501019250505092915050565b6001600160a01b0381168114610d4a575f80fd5b50565b5f8060408385031215610d5e575f80fd5b8235610d6981610d36565b946020939093013593505050565b5f60208284031215610d87575f80fd5b8135610d9281610d36565b9392505050565b5f805f805f60a08688031215610dad575f80fd5b8535610db881610d36565b94506020860135610dc881610d36565b94979496505050506040830135926060810135926080909101359150565b5f805f60608486031215610df8575f80fd5b8335610e0381610d36565b92506020840135610e1381610d36565b929592945050506040919091013590565b5f805f8060808587031215610e37575f80fd5b8435610e4281610d36565b93506020850135610e5281610d36565b93969395505050506040820135916060013590565b5f8060408385031215610e78575f80fd5b8235610e8381610d36565b91506020830135610e9381610d36565b809150509250929050565b600181811c90821680610eb257607f821691505b602082108103610ed057634e487b7160e01b5f52602260045260245ffd5b50919050565b634e487b7160e01b5f52601160045260245ffd5b8181038181111561044757610447610ed6565b8082018082111561044757610447610ed6565b5f60208284031215610f20575f80fd5b8151610d9281610d36565b5f60208284031215610f3b575f80fd5b81518015158114610d92575f80fd5b6001600160801b03828116828216039080821115610f6a57610f6a610ed6565b5092915050565b6001600160801b03818116838216019080821115610f6a57610f6a610ed656fea164736f6c6343000814000a","linkReferences":{}},"methodIdentifiers":{"POOL()":"7535d246","allowance(address,address)":"dd62ed3e","approve(address,uint256)":"095ea7b3","balanceOf(address)":"70a08231","decimals()":"313ce567","decreaseAllowance(address,uint256)":"a457c2d7","getIncentivesController()":"75d26413","getPreviousIndex(address)":"e0753986","getScaledUserBalanceAndSupply(address)":"0afbcdc9","increaseAllowance(address,uint256)":"39509351","name()":"06fdde03","scaledBalanceOf(address)":"1da24f3e","scaledTotalSupply()":"b1bf962d","setIncentivesController(address)":"e655dbd8","setStorage(address,address,uint256,uint256,uint256)":"1749f229","symbol()":"95d89b41","totalSupply()":"18160ddd","transfer(address,uint256)":"a9059cbb","transferFrom(address,address,uint256)":"23b872dd","transferWithIndex(address,address,uint256,uint256)":"559b8e16"},"id":208}