{"abi":[{"type":"constructor","inputs":[],"stateMutability":"nonpayable"},{"type":"function","name":"buy","inputs":[{"name":"fromToken","type":"address","internalType":"address"},{"name":"toToken","type":"address","internalType":"address"},{"name":"fromAmount","type":"uint256","internalType":"uint256"},{"name":"toAmount","type":"uint256","internalType":"uint256"}],"outputs":[{"name":"","type":"uint256","internalType":"uint256"}],"stateMutability":"nonpayable"},{"type":"function","name":"expectBuy","inputs":[{"name":"fromToken","type":"address","internalType":"address"},{"name":"toToken","type":"address","internalType":"address"},{"name":"fromAmount","type":"uint256","internalType":"uint256"},{"name":"toAmountMin","type":"uint256","internalType":"uint256"},{"name":"toAmountMax","type":"uint256","internalType":"uint256"}],"outputs":[],"stateMutability":"nonpayable"},{"type":"function","name":"expectSwap","inputs":[{"name":"fromToken","type":"address","internalType":"address"},{"name":"toToken","type":"address","internalType":"address"},{"name":"fromAmountMin","type":"uint256","internalType":"uint256"},{"name":"fromAmountMax","type":"uint256","internalType":"uint256"},{"name":"receivedAmount","type":"uint256","internalType":"uint256"}],"outputs":[],"stateMutability":"nonpayable"},{"type":"function","name":"getTokenTransferProxy","inputs":[],"outputs":[{"name":"","type":"address","internalType":"address"}],"stateMutability":"view"},{"type":"function","name":"swap","inputs":[{"name":"fromToken","type":"address","internalType":"address"},{"name":"toToken","type":"address","internalType":"address"},{"name":"fromAmount","type":"uint256","internalType":"uint256"},{"name":"toAmount","type":"uint256","internalType":"uint256"}],"outputs":[{"name":"","type":"uint256","internalType":"uint256"}],"stateMutability":"nonpayable"}],"bytecode":{"object":"0x60a060405234801561000f575f80fd5b5060405161001c90610047565b604051809103905ff080158015610035573d5f803e3d5ffd5b506001600160a01b0316608052610054565b6103e6806108cf83390190565b60805161085561007a5f395f81816101400152818161036d015261063601526108555ff3fe608060405234801561000f575f80fd5b5060043610610055575f3560e01c80638507eae814610059578063a9d424e2146100b4578063b166d5f0146100da578063d2c4b59814610133578063fe0291561461016a575b5f80fd5b6100b261006736600461079a565b5f805460016001600160a81b03199091166101006001600160a01b039889160217811790915580546001600160a01b0319169490951693909317909355600555600791909155600655565b005b6100c76100c23660046107e3565b61017d565b6040519081526020015b60405180910390f35b6100b26100e836600461079a565b5f805460016001600160a81b03199091166101006001600160a01b039889160217811790915580546001600160a01b0319169490951693909317909355600255600391909155600455565b6040516001600160a01b037f00000000000000000000000000000000000000000000000000000000000000001681526020016100d1565b6100c76101783660046107e3565b610446565b5f805460ff166101c95760405162461bcd60e51b815260206004820152601260248201527104e6f7420657870656374696e6720737761760741b60448201526064015b60405180910390fd5b5f546001600160a01b0386811661010090920416146102225760405162461bcd60e51b81526020600482015260156024820152742ab732bc3832b1ba32b210333937b6903a37b5b2b760591b60448201526064016101c0565b6001546001600160a01b038581169116146102755760405162461bcd60e51b81526020600482015260136024820152722ab732bc3832b1ba32b2103a37903a37b5b2b760691b60448201526064016101c0565b600754821015801561028957506006548211155b6102ce5760405162461bcd60e51b8152602060048201526016602482015275546f20616d6f756e74206f7574206f662072616e676560501b60448201526064016101c0565b8260055411156103375760405162461bcd60e51b815260206004820152602e60248201527f46726f6d20616d6f756e74206f6620746f6b656e73206172652068696768657260448201526d081d1a185b88195e1c1958dd195960921b60648201526084016101c0565b600554604051630aed65f560e11b81526001600160a01b03878116600483015233602483015230604483015260648201929092527f0000000000000000000000000000000000000000000000000000000000000000909116906315dacbea906084015f604051808303815f87803b1580156103b0575f80fd5b505af11580156103c2573d5f803e3d5ffd5b50506040516340c10f1960e01b8152336004820152602481018590526001600160a01b03871692506340c10f1991506044016020604051808303815f875af1158015610410573d5f803e3d5ffd5b505050506040513d601f19601f820116820180604052508101906104349190610822565b50505f805460ff191690555092915050565b5f805460ff1661048d5760405162461bcd60e51b815260206004820152601260248201527104e6f7420657870656374696e6720737761760741b60448201526064016101c0565b5f546001600160a01b0386811661010090920416146104e65760405162461bcd60e51b81526020600482015260156024820152742ab732bc3832b1ba32b210333937b6903a37b5b2b760591b60448201526064016101c0565b6001546001600160a01b038581169116146105395760405162461bcd60e51b81526020600482015260136024820152722ab732bc3832b1ba32b2103a37903a37b5b2b760691b60448201526064016101c0565b600254831015801561054d57506003548311155b6105995760405162461bcd60e51b815260206004820152601860248201527f46726f6d20616d6f756e74206f7574206f662072616e6765000000000000000060448201526064016101c0565b8160045410156106045760405162461bcd60e51b815260206004820152603060248201527f526563656976656420616d6f756e74206f6620746f6b656e7320617265206c6560448201526f1cdcc81d1a185b88195e1c1958dd195960821b60648201526084016101c0565b604051630aed65f560e11b81526001600160a01b038681166004830152336024830152306044830152606482018590527f000000000000000000000000000000000000000000000000000000000000000016906315dacbea906084015f604051808303815f87803b158015610677575f80fd5b505af1158015610689573d5f803e3d5ffd5b50506004805460405163140e25ad60e31b8152918201526001600160a01b038716925063a0712d6891506024016020604051808303815f875af11580156106d2573d5f803e3d5ffd5b505050506040513d601f19601f820116820180604052508101906106f69190610822565b506004805460405163a9059cbb60e01b8152339281019290925260248201526001600160a01b0385169063a9059cbb906044016020604051808303815f875af1158015610745573d5f803e3d5ffd5b505050506040513d601f19601f820116820180604052508101906107699190610822565b50505f805460ff19169055600454949350505050565b80356001600160a01b0381168114610795575f80fd5b919050565b5f805f805f60a086880312156107ae575f80fd5b6107b78661077f565b94506107c56020870161077f565b94979496505050506040830135926060810135926080909101359150565b5f805f80608085870312156107f6575f80fd5b6107ff8561077f565b935061080d6020860161077f565b93969395505050506040820135916060013590565b5f60208284031215610832575f80fd5b81518015158114610841575f80fd5b939250505056fea164736f6c6343000814000a608060405234801561000f575f80fd5b505f80546001600160a01b031916339081178255604051909182917f8be0079c531659141344cd1fd0a4f28419497f9722a3daafe3b4186f6b6457e0908290a3506103898061005d5f395ff3fe608060405234801561000f575f80fd5b506004361061004a575f3560e01c806315dacbea1461004e578063715018a6146100635780638da5cb5b1461006b578063f2fde38b14610089575b5f80fd5b61006161005c3660046102c0565b61009c565b005b61006161014d565b5f54604080516001600160a01b039092168252519081900360200190f35b610061610097366004610308565b6101be565b5f546001600160a01b031633146100ce5760405162461bcd60e51b81526004016100c590610328565b60405180910390fd5b6040516323b872dd60e01b81526001600160a01b0384811660048301528381166024830152604482018390528516906323b872dd906064016020604051808303815f875af1158015610122573d5f803e3d5ffd5b505050506040513d601f19601f82011682018060405250810190610146919061035d565b5050505050565b5f546001600160a01b031633146101765760405162461bcd60e51b81526004016100c590610328565b5f80546040516001600160a01b03909116907f8be0079c531659141344cd1fd0a4f28419497f9722a3daafe3b4186f6b6457e0908390a35f80546001600160a01b0319169055565b5f546001600160a01b031633146101e75760405162461bcd60e51b81526004016100c590610328565b6001600160a01b03811661024c5760405162461bcd60e51b815260206004820152602660248201527f4f776e61626c653a206e6577206f776e657220697320746865207a65726f206160448201526564647265737360d01b60648201526084016100c5565b5f80546040516001600160a01b03808516939216917f8be0079c531659141344cd1fd0a4f28419497f9722a3daafe3b4186f6b6457e091a35f80546001600160a01b0319166001600160a01b0392909216919091179055565b80356001600160a01b03811681146102bb575f80fd5b919050565b5f805f80608085870312156102d3575f80fd5b6102dc856102a5565b93506102ea602086016102a5565b92506102f8604086016102a5565b9396929550929360600135925050565b5f60208284031215610318575f80fd5b610321826102a5565b9392505050565b6020808252818101527f4f776e61626c653a2063616c6c6572206973206e6f7420746865206f776e6572604082015260600190565b5f6020828403121561036d575f80fd5b81518015158114610321575f80fdfea164736f6c6343000814000a","linkReferences":{}},"methodIdentifiers":{"buy(address,address,uint256,uint256)":"a9d424e2","expectBuy(address,address,uint256,uint256,uint256)":"8507eae8","expectSwap(address,address,uint256,uint256,uint256)":"b166d5f0","getTokenTransferProxy()":"d2c4b598","swap(address,address,uint256,uint256)":"fe029156"},"id":192}