{
  "_format": "hh-sol-artifact-1",
  "contractName": "MockReserveConfiguration",
  "sourceName": "contracts/mocks/helpers/MockReserveConfiguration.sol",
  "abi": [
    {
      "inputs": [],
      "name": "configuration",
      "outputs": [
        {
          "internalType": "uint256",
          "name": "data",
          "type": "uint256"
        }
      ],
      "stateMutability": "view",
      "type": "function"
    },
    {
      "inputs": [],
      "name": "getBorrowCap",
      "outputs": [
        {
          "internalType": "uint256",
          "name": "",
          "type": "uint256"
        }
      ],
      "stateMutability": "view",
      "type": "function"
    },
    {
      "inputs": [],
      "name": "getBorrowingEnabled",
      "outputs": [
        {
          "internalType": "bool",
          "name": "",
          "type": "bool"
        }
      ],
      "stateMutability": "view",
      "type": "function"
    },
    {
      "inputs": [],
      "name": "getCaps",
      "outputs": [
        {
          "internalType": "uint256",
          "name": "",
          "type": "uint256"
        },
        {
          "internalType": "uint256",
          "name": "",
          "type": "uint256"
        }
      ],
      "stateMutability": "view",
      "type": "function"
    },
    {
      "inputs": [],
      "name": "getDecimals",
      "outputs": [
        {
          "internalType": "uint256",
          "name": "",
          "type": "uint256"
        }
      ],
      "stateMutability": "view",
      "type": "function"
    },
    {
      "inputs": [],
      "name": "getEModeCategory",
      "outputs": [
        {
          "internalType": "uint256",
          "name": "",
          "type": "uint256"
        }
      ],
      "stateMutability": "view",
      "type": "function"
    },
    {
      "inputs": [],
      "name": "getFlags",
      "outputs": [
        {
          "internalType": "bool",
          "name": "",
          "type": "bool"
        },
        {
          "internalType": "bool",
          "name": "",
          "type": "bool"
        },
        {
          "internalType": "bool",
          "name": "",
          "type": "bool"
        },
        {
          "internalType": "bool",
          "name": "",
          "type": "bool"
        },
        {
          "internalType": "bool",
          "name": "",
          "type": "bool"
        }
      ],
      "stateMutability": "view",
      "type": "function"
    },
    {
      "inputs": [],
      "name": "getFrozen",
      "outputs": [
        {
          "internalType": "bool",
          "name": "",
          "type": "bool"
        }
      ],
      "stateMutability": "view",
      "type": "function"
    },
    {
      "inputs": [],
      "name": "getLiquidationBonus",
      "outputs": [
        {
          "internalType": "uint256",
          "name": "",
          "type": "uint256"
        }
      ],
      "stateMutability": "view",
      "type": "function"
    },
    {
      "inputs": [],
      "name": "getLiquidationProtocolFee",
      "outputs": [
        {
          "internalType": "uint256",
          "name": "",
          "type": "uint256"
        }
      ],
      "stateMutability": "view",
      "type": "function"
    },
    {
      "inputs": [],
      "name": "getLiquidationThreshold",
      "outputs": [
        {
          "internalType": "uint256",
          "name": "",
          "type": "uint256"
        }
      ],
      "stateMutability": "view",
      "type": "function"
    },
    {
      "inputs": [],
      "name": "getLtv",
      "outputs": [
        {
          "internalType": "uint256",
          "name": "",
          "type": "uint256"
        }
      ],
      "stateMutability": "view",
      "type": "function"
    },
    {
      "inputs": [],
      "name": "getParams",
      "outputs": [
        {
          "internalType": "uint256",
          "name": "",
          "type": "uint256"
        },
        {
          "internalType": "uint256",
          "name": "",
          "type": "uint256"
        },
        {
          "internalType": "uint256",
          "name": "",
          "type": "uint256"
        },
        {
          "internalType": "uint256",
          "name": "",
          "type": "uint256"
        },
        {
          "internalType": "uint256",
          "name": "",
          "type": "uint256"
        },
        {
          "internalType": "uint256",
          "name": "",
          "type": "uint256"
        }
      ],
      "stateMutability": "view",
      "type": "function"
    },
    {
      "inputs": [],
      "name": "getReserveFactor",
      "outputs": [
        {
          "internalType": "uint256",
          "name": "",
          "type": "uint256"
        }
      ],
      "stateMutability": "view",
      "type": "function"
    },
    {
      "inputs": [],
      "name": "getStableRateBorrowingEnabled",
      "outputs": [
        {
          "internalType": "bool",
          "name": "",
          "type": "bool"
        }
      ],
      "stateMutability": "view",
      "type": "function"
    },
    {
      "inputs": [],
      "name": "getSupplyCap",
      "outputs": [
        {
          "internalType": "uint256",
          "name": "",
          "type": "uint256"
        }
      ],
      "stateMutability": "view",
      "type": "function"
    },
    {
      "inputs": [],
      "name": "getUnbackedMintCap",
      "outputs": [
        {
          "internalType": "uint256",
          "name": "",
          "type": "uint256"
        }
      ],
      "stateMutability": "view",
      "type": "function"
    },
    {
      "inputs": [
        {
          "internalType": "uint256",
          "name": "borrowCap",
          "type": "uint256"
        }
      ],
      "name": "setBorrowCap",
      "outputs": [],
      "stateMutability": "nonpayable",
      "type": "function"
    },
    {
      "inputs": [
        {
          "internalType": "bool",
          "name": "enabled",
          "type": "bool"
        }
      ],
      "name": "setBorrowingEnabled",
      "outputs": [],
      "stateMutability": "nonpayable",
      "type": "function"
    },
    {
      "inputs": [
        {
          "internalType": "uint256",
          "name": "decimals",
          "type": "uint256"
        }
      ],
      "name": "setDecimals",
      "outputs": [],
      "stateMutability": "nonpayable",
      "type": "function"
    },
    {
      "inputs": [
        {
          "internalType": "uint256",
          "name": "categoryId",
          "type": "uint256"
        }
      ],
      "name": "setEModeCategory",
      "outputs": [],
      "stateMutability": "nonpayable",
      "type": "function"
    },
    {
      "inputs": [
        {
          "internalType": "bool",
          "name": "frozen",
          "type": "bool"
        }
      ],
      "name": "setFrozen",
      "outputs": [],
      "stateMutability": "nonpayable",
      "type": "function"
    },
    {
      "inputs": [
        {
          "internalType": "uint256",
          "name": "bonus",
          "type": "uint256"
        }
      ],
      "name": "setLiquidationBonus",
      "outputs": [],
      "stateMutability": "nonpayable",
      "type": "function"
    },
    {
      "inputs": [
        {
          "internalType": "uint256",
          "name": "liquidationProtocolFee",
          "type": "uint256"
        }
      ],
      "name": "setLiquidationProtocolFee",
      "outputs": [],
      "stateMutability": "nonpayable",
      "type": "function"
    },
    {
      "inputs": [
        {
          "internalType": "uint256",
          "name": "threshold",
          "type": "uint256"
        }
      ],
      "name": "setLiquidationThreshold",
      "outputs": [],
      "stateMutability": "nonpayable",
      "type": "function"
    },
    {
      "inputs": [
        {
          "internalType": "uint256",
          "name": "ltv",
          "type": "uint256"
        }
      ],
      "name": "setLtv",
      "outputs": [],
      "stateMutability": "nonpayable",
      "type": "function"
    },
    {
      "inputs": [
        {
          "internalType": "uint256",
          "name": "reserveFactor",
          "type": "uint256"
        }
      ],
      "name": "setReserveFactor",
      "outputs": [],
      "stateMutability": "nonpayable",
      "type": "function"
    },
    {
      "inputs": [
        {
          "internalType": "bool",
          "name": "enabled",
          "type": "bool"
        }
      ],
      "name": "setStableRateBorrowingEnabled",
      "outputs": [],
      "stateMutability": "nonpayable",
      "type": "function"
    },
    {
      "inputs": [
        {
          "internalType": "uint256",
          "name": "supplyCap",
          "type": "uint256"
        }
      ],
      "name": "setSupplyCap",
      "outputs": [],
      "stateMutability": "nonpayable",
      "type": "function"
    },
    {
      "inputs": [
        {
          "internalType": "uint256",
          "name": "unbackedMintCap",
          "type": "uint256"
        }
      ],
      "name": "setUnbackedMintCap",
      "outputs": [],
      "stateMutability": "nonpayable",
      "type": "function"
    }
  ],
  "bytecode": "0x608060405234801561001057600080fd5b50610f78806100206000396000f3fe608060405234801561001057600080fd5b50600436106101da5760003560e01c80638145bd2e11610104578063b6a3f59a116100a2578063ead8aa0211610071578063ead8aa02146104c9578063f0141d84146104ea578063f1514a1a14610507578063fa573d071461051a57600080fd5b8063b6a3f59a14610462578063c37bdcec14610475578063d0b0c81614610493578063e08a28a3146104a657600080fd5b80639d706d31116100de5780639d706d31146103e2578063a37e52e31461041b578063a62006351461042e578063aede7b761461044157600080fd5b80638145bd2e146103a15780638c8885c8146103bc57806392dfb2fb146103cf57600080fd5b80635f558e531161017c57806371cb13321161014b57806371cb1332146103295780637495b3531461033c57806379750bc41461036b5780637e932d321461038e57600080fd5b80635f558e53146102b65780636c70bee9146102d25780636cc7149d146102dc578063717186d11461031657600080fd5b8063356f235c116101b8578063356f235c146102375780634ae9b8bc1461025457806359aa9e72146102725780635e615a6b1461028157600080fd5b80631c446983146101df57806320361814146101f457806328842d4f14610224575b600080fd5b6101f26101ed366004610e8d565b61052d565b005b60408051602081019091526000549081905260741c640fffffffff165b6040519081526020015b60405180910390f35b6101f2610232366004610e8d565b61054e565b60408051602081019091526000549081905260a81c60ff16610211565b60408051602081019091526000549081905260101c61ffff16610211565b60005460201c61ffff16610211565b610289610568565b604080519687526020870195909552938501929092526060840152608083015260a082015260c00161021b565b6040805160208101825260005490819052901c61ffff16610211565b6000546102119081565b6102e46105d1565b60408051951515865293151560208601529115159284019290925290151560608301521515608082015260a00161021b565b6101f2610324366004610e8d565b61064c565b6101f2610337366004610ea6565b610666565b6040805160208101909152600054908190526702000000000000001615155b604051901515815260200161021b565b60408051602081019091526000549081905267040000000000000016151561035b565b6101f261039c366004610ea6565b610680565b60408051602081019091526000549081905261ffff16610211565b6101f26103ca366004610e8d565b61069a565b6101f26103dd366004610e8d565b6106b4565b604080516020810190915260005490819052640fffffffff605082901c81169160741c166040805192835260208301919091520161021b565b6101f2610429366004610e8d565b6106ce565b6101f261043c366004610e8d565b6106e8565b60408051602081019091526000549081905260501c640fffffffff16610211565b6101f2610470366004610e8d565b610702565b60408051602081019091526000549081905260981c61ffff16610211565b6101f26104a1366004610e8d565b61071c565b60408051602081019091526000549081905267080000000000000016151561035b565b60408051602081019091526000549081905260b01c640fffffffff16610211565b60408051602081019091526000549081905260301c60ff16610211565b6101f2610515366004610ea6565b610736565b6101f2610528366004610e8d565b610750565b60408051602081019091526000548152610547818361076a565b5160005550565b604080516020810190915260005481526105478183610814565b6000806000806000806105be60006040518060200160405290816000820154815250505161ffff80821692601083901c821692602081901c831692603082901c60ff90811693604084901c9092169260a81c1690565b949b939a50919850965094509092509050565b600080600080600061063b600060405180602001604052908160008201548152505051670100000000000000811615159167020000000000000082161515916704000000000000008116151591670800000000000000821615159167100000000000000016151590565b945094509450945094509091929394565b6040805160208101909152600054815261054781836108b5565b604080516020810190915260005481526105478183610959565b60408051602081019091526000548152610547818361099e565b6040805160208101909152600054815261054781836109e3565b604080516020810190915260005481526105478183610a83565b604080516020810190915260005481526105478183610b27565b604080516020810190915260005481526105478183610bc2565b604080516020810190915260005481526105478183610c63565b604080516020810190915260005481526105478183610d07565b604080516020810190915260005481526105478183610da8565b604080516020810190915260005481526105478183610ded565b60408051808201909152600281527f3637000000000000000000000000000000000000000000000000000000000000602082015261ffff8211156107e4576040517f08c379a00000000000000000000000000000000000000000000000000000000081526004016107db9190610ecf565b60405180910390fd5b5081517fffffffffffffffffffffffffffffffffffffffffffff0000ffffffffffffffff1660409190911b179052565b60408051808201909152600281527f3635000000000000000000000000000000000000000000000000000000000000602082015261ffff821115610885576040517f08c379a00000000000000000000000000000000000000000000000000000000081526004016107db9190610ecf565b5081517fffffffffffffffffffffffffffffffffffffffffffffffffffff0000ffffffff1660209190911b179052565b60408051808201909152600281527f36380000000000000000000000000000000000000000000000000000000000006020820152640fffffffff821115610929576040517f08c379a00000000000000000000000000000000000000000000000000000000081526004016107db9190610ecf565b5081517ffffffffffffffffffffffffffffffffffff000000000ffffffffffffffffffff1660509190911b179052565b603b8161096757600061096a565b60015b83517ffffffffffffffffffffffffffffffffffffffffffffffffff7ffffffffffffff1660ff9190911690911b1790915250565b6039816109ac5760006109af565b60015b83517ffffffffffffffffffffffffffffffffffffffffffffffffffdffffffffffffff1660ff9190911690911b1790915250565b60408051808201909152600281527f3636000000000000000000000000000000000000000000000000000000000000602082015260ff821115610a53576040517f08c379a00000000000000000000000000000000000000000000000000000000081526004016107db9190610ecf565b5081517fffffffffffffffffffffffffffffffffffffffffffffffffff00ffffffffffff1660309190911b179052565b60408051808201909152600281527f37320000000000000000000000000000000000000000000000000000000000006020820152640fffffffff821115610af7576040517f08c379a00000000000000000000000000000000000000000000000000000000081526004016107db9190610ecf565b5081517ffffffffffff000000000ffffffffffffffffffffffffffffffffffffffffffff1660b09190911b179052565b60408051808201909152600281527f3633000000000000000000000000000000000000000000000000000000000000602082015261ffff821115610b98576040517f08c379a00000000000000000000000000000000000000000000000000000000081526004016107db9190610ecf565b5081517fffffffffffffffffffffffffffffffffffffffffffffffffffffffffffff000016179052565b60408051808201909152600281527f3730000000000000000000000000000000000000000000000000000000000000602082015261ffff821115610c33576040517f08c379a00000000000000000000000000000000000000000000000000000000081526004016107db9190610ecf565b5081517fffffffffffffffffffffff0000ffffffffffffffffffffffffffffffffffffff1660989190911b179052565b60408051808201909152600281527f36390000000000000000000000000000000000000000000000000000000000006020820152640fffffffff821115610cd7576040517f08c379a00000000000000000000000000000000000000000000000000000000081526004016107db9190610ecf565b5081517fffffffffffffffffffffffffff000000000fffffffffffffffffffffffffffff1660749190911b179052565b60408051808201909152600281527f3634000000000000000000000000000000000000000000000000000000000000602082015261ffff821115610d78576040517f08c379a00000000000000000000000000000000000000000000000000000000081526004016107db9190610ecf565b5081517fffffffffffffffffffffffffffffffffffffffffffffffffffffffff0000ffff1660109190911b179052565b603a81610db6576000610db9565b60015b83517ffffffffffffffffffffffffffffffffffffffffffffffffffbffffffffffffff1660ff9190911690911b1790915250565b60408051808201909152600281527f3731000000000000000000000000000000000000000000000000000000000000602082015260ff821115610e5d576040517f08c379a00000000000000000000000000000000000000000000000000000000081526004016107db9190610ecf565b5081517fffffffffffffffffffff00ffffffffffffffffffffffffffffffffffffffffff1660a89190911b179052565b600060208284031215610e9f57600080fd5b5035919050565b600060208284031215610eb857600080fd5b81358015158114610ec857600080fd5b9392505050565b600060208083528351808285015260005b81811015610efc57858101830151858201604001528201610ee0565b81811115610f0e576000604083870101525b50601f017fffffffffffffffffffffffffffffffffffffffffffffffffffffffffffffffe01692909201604001939250505056fea26469706673582212207cac94abf2a42b52804997c1d90c0fc3da30405ad57fff09fb1dd0aa59a4f41664736f6c634300080a0033",
  "linkReferences": {},
  "deployedLinkReferences": {}
}