{"abi":[{"type":"constructor","inputs":[{"name":"augustus","type":"address","internalType":"address"}],"stateMutability":"nonpayable"},{"type":"function","name":"isValidAugustus","inputs":[{"name":"augustus","type":"address","internalType":"address"}],"outputs":[{"name":"","type":"bool","internalType":"bool"}],"stateMutability":"view"}],"bytecode":{"object":"0x60a060405234801561000f575f80fd5b5060405161013438038061013483398101604081905261002e9161003f565b6001600160a01b031660805261006c565b5f6020828403121561004f575f80fd5b81516001600160a01b0381168114610065575f80fd5b9392505050565b60805160b36100815f395f6037015260b35ff3fe6080604052348015600e575f80fd5b50600436106026575f3560e01c8063fb04e17b14602a575b5f80fd5b60676035366004607b565b7f00000000000000000000000000000000000000000000000000000000000000006001600160a01b0390811691161490565b604051901515815260200160405180910390f35b5f60208284031215608a575f80fd5b81356001600160a01b0381168114609f575f80fd5b939250505056fea164736f6c6343000814000a","linkReferences":{}},"methodIdentifiers":{"isValidAugustus(address)":"fb04e17b"},"id":193}