{"abi":[{"type":"constructor","inputs":[{"name":"provider","type":"address","internalType":"address"}],"stateMutability":"nonpayable"},{"type":"function","name":"ADDRESSES_PROVIDER","inputs":[],"outputs":[{"name":"","type":"address","internalType":"contract IPoolAddressesProvider"}],"stateMutability":"view"},{"type":"function","name":"MAX_BORROW_RATE","inputs":[],"outputs":[{"name":"","type":"uint256","internalType":"uint256"}],"stateMutability":"view"},{"type":"function","name":"MAX_OPTIMAL_POINT","inputs":[],"outputs":[{"name":"","type":"uint256","internalType":"uint256"}],"stateMutability":"view"},{"type":"function","name":"MIN_OPTIMAL_POINT","inputs":[],"outputs":[{"name":"","type":"uint256","internalType":"uint256"}],"stateMutability":"view"},{"type":"function","name":"calculateInterestRates","inputs":[{"name":"","type":"tuple","internalType":"struct DataTypes.CalculateInterestRatesParams","components":[{"name":"unbacked","type":"uint256","internalType":"uint256"},{"name":"liquidityAdded","type":"uint256","internalType":"uint256"},{"name":"liquidityTaken","type":"uint256","internalType":"uint256"},{"name":"totalDebt","type":"uint256","internalType":"uint256"},{"name":"reserveFactor","type":"uint256","internalType":"uint256"},{"name":"reserve","type":"address","internalType":"address"},{"name":"usingVirtualBalance","type":"bool","internalType":"bool"},{"name":"virtualUnderlyingBalance","type":"uint256","internalType":"uint256"}]}],"outputs":[{"name":"liquidityRate","type":"uint256","internalType":"uint256"},{"name":"variableBorrowRate","type":"uint256","internalType":"uint256"}],"stateMutability":"view"},{"type":"function","name":"getBaseVariableBorrowRate","inputs":[{"name":"reserve","type":"address","internalType":"address"}],"outputs":[{"name":"","type":"uint256","internalType":"uint256"}],"stateMutability":"view"},{"type":"function","name":"getInterestRateData","inputs":[{"name":"reserve","type":"address","internalType":"address"}],"outputs":[{"name":"","type":"tuple","internalType":"struct IDefaultInterestRateStrategyV2.InterestRateDataRay","components":[{"name":"optimalUsageRatio","type":"uint256","internalType":"uint256"},{"name":"baseVariableBorrowRate","type":"uint256","internalType":"uint256"},{"name":"variableRateSlope1","type":"uint256","internalType":"uint256"},{"name":"variableRateSlope2","type":"uint256","internalType":"uint256"}]}],"stateMutability":"view"},{"type":"function","name":"getInterestRateDataBps","inputs":[{"name":"reserve","type":"address","internalType":"address"}],"outputs":[{"name":"","type":"tuple","internalType":"struct IDefaultInterestRateStrategyV2.InterestRateData","components":[{"name":"optimalUsageRatio","type":"uint16","internalType":"uint16"},{"name":"baseVariableBorrowRate","type":"uint32","internalType":"uint32"},{"name":"variableRateSlope1","type":"uint32","internalType":"uint32"},{"name":"variableRateSlope2","type":"uint32","internalType":"uint32"}]}],"stateMutability":"view"},{"type":"function","name":"getMaxVariableBorrowRate","inputs":[{"name":"reserve","type":"address","internalType":"address"}],"outputs":[{"name":"","type":"uint256","internalType":"uint256"}],"stateMutability":"view"},{"type":"function","name":"getOptimalUsageRatio","inputs":[{"name":"reserve","type":"address","internalType":"address"}],"outputs":[{"name":"","type":"uint256","internalType":"uint256"}],"stateMutability":"view"},{"type":"function","name":"getVariableRateSlope1","inputs":[{"name":"reserve","type":"address","internalType":"address"}],"outputs":[{"name":"","type":"uint256","internalType":"uint256"}],"stateMutability":"view"},{"type":"function","name":"getVariableRateSlope2","inputs":[{"name":"reserve","type":"address","internalType":"address"}],"outputs":[{"name":"","type":"uint256","internalType":"uint256"}],"stateMutability":"view"},{"type":"function","name":"setInterestRateParams","inputs":[{"name":"reserve","type":"address","internalType":"address"},{"name":"rateData","type":"bytes","internalType":"bytes"}],"outputs":[],"stateMutability":"nonpayable"},{"type":"function","name":"setInterestRateParams","inputs":[{"name":"reserve","type":"address","internalType":"address"},{"name":"rateData","type":"tuple","internalType":"struct IDefaultInterestRateStrategyV2.InterestRateData","components":[{"name":"optimalUsageRatio","type":"uint16","internalType":"uint16"},{"name":"baseVariableBorrowRate","type":"uint32","internalType":"uint32"},{"name":"variableRateSlope1","type":"uint32","internalType":"uint32"},{"name":"variableRateSlope2","type":"uint32","internalType":"uint32"}]}],"outputs":[],"stateMutability":"nonpayable"},{"type":"function","name":"setLiquidityRate","inputs":[{"name":"liquidityRate","type":"uint256","internalType":"uint256"}],"outputs":[],"stateMutability":"nonpayable"},{"type":"function","name":"setVariableBorrowRate","inputs":[{"name":"variableBorrowRate","type":"uint256","internalType":"uint256"}],"outputs":[],"stateMutability":"nonpayable"},{"type":"event","name":"RateDataUpdate","inputs":[{"name":"reserve","type":"address","indexed":true,"internalType":"address"},{"name":"optimalUsageRatio","type":"uint256","indexed":false,"internalType":"uint256"},{"name":"baseVariableBorrowRate","type":"uint256","indexed":false,"internalType":"uint256"},{"name":"variableRateSlope1","type":"uint256","indexed":false,"internalType":"uint256"},{"name":"variableRateSlope2","type":"uint256","indexed":false,"internalType":"uint256"}],"anonymous":false}],"bytecode":{"object":"0x60a060405234801561000f575f80fd5b50604051610e1c380380610e1c83398101604081905261002e9161008c565b604080518082019091526002815261189960f11b602082015281906001600160a01b0382166100795760405162461bcd60e51b815260040161007091906100b9565b60405180910390fd5b506001600160a01b031660805250610104565b5f6020828403121561009c575f80fd5b81516001600160a01b03811681146100b2575f80fd5b9392505050565b5f6020808352835180828501525f5b818110156100e4578581018301518582016040015282016100c8565b505f604082860101526040601f19601f8301168501019250505092915050565b608051610cf261012a5f395f8181610104015281816104ac01526105ef0152610cf25ff3fe608060405234801561000f575f80fd5b50600436106100fb575f3560e01c8063a8d9e56f11610093578063c79ce42e11610063578063c79ce42e1461025f578063cca22ea114610334578063f7e0fe6714610347578063fd81bb121461034f575f80fd5b8063a8d9e56f146101f8578063aa16fe341461020b578063aa33f0631461021e578063b90db31b14610231575f80fd5b80636a00178e116100ce5780636a00178e146101bf5780637a0c5ebf146101d25780637a24bd7e146101dc5780638f4b0d5d146101e5575f80fd5b80630542975c146100ff578063131e889c146101435780633a244adf146101895780635b651bae1461019e575b5f80fd5b6101267f000000000000000000000000000000000000000000000000000000000000000081565b6040516001600160a01b0390911681526020015b60405180910390f35b6101566101513660046109c5565b610362565b60405161013a91908151815260208083015190820152604080830151908201526060918201519181019190915260800190565b61019c6101973660046109e7565b600155565b005b6101b16101ac3660046109c5565b6103f4565b60405190815260200161013a565b6101b16101cd3660046109c5565b610422565b6101b1620186a081565b6101b16126ac81565b6101b16101f33660046109c5565b61047c565b61019c6102063660046109fe565b6104aa565b61019c6102193660046109e7565b600255565b6101b161022c3660046109c5565b61059b565b61024a61023f366004610a90565b506001546002549091565b6040805192835260208301919091520161013a565b6102ef61026d3660046109c5565b604080516080810182525f808252602082018190529181018290526060810191909152506001600160a01b03165f90815260208181526040918290208251608081018452905461ffff8116825263ffffffff620100008204811693830193909352600160301b8104831693820193909352600160501b90920416606082015290565b60405161013a9190815161ffff16815260208083015163ffffffff90811691830191909152604080840151821690830152606092830151169181019190915260800190565b6101b16103423660046109c5565b6105c0565b6101b1606481565b61019c61035d366004610b3d565b6105ed565b61038960405180608001604052805f81526020015f81526020015f81526020015f81525090565b6001600160a01b0382165f90815260208181526040918290208251608081018452905461ffff8116825263ffffffff620100008204811693830193909352600160301b8104831693820193909352600160501b9092041660608201526103ee906106d2565b92915050565b6001600160a01b0381165f908152602081905260408120546103ee90600160301b900463ffffffff16610764565b6001600160a01b0381165f908152602081905260408120546103ee9063ffffffff600160501b820481169161046791600160301b820481169162010000900416610b8f565b6104719190610b8f565b63ffffffff16610764565b6001600160a01b0381165f908152602081905260408120546103ee90600160501b900463ffffffff16610764565b7f00000000000000000000000000000000000000000000000000000000000000006001600160a01b031663631adfca6040518163ffffffff1660e01b8152600401602060405180830381865afa158015610506573d5f803e3d5ffd5b505050506040513d601f19601f8201168201806040525081019061052a9190610bb3565b6001600160a01b0316336001600160a01b03161460405180604001604052806002815260200161031360f41b815250906105805760405162461bcd60e51b81526004016105779190610bce565b60405180910390fd5b506105968361059183850185610c2c565b610779565b505050565b6001600160a01b0381165f908152602081905260408120546103ee9061ffff16610764565b6001600160a01b0381165f908152602081905260408120546103ee9062010000900463ffffffff16610764565b7f00000000000000000000000000000000000000000000000000000000000000006001600160a01b031663631adfca6040518163ffffffff1660e01b8152600401602060405180830381865afa158015610649573d5f803e3d5ffd5b505050506040513d601f19601f8201168201806040525081019061066d9190610bb3565b6001600160a01b0316336001600160a01b03161460405180604001604052806002815260200161031360f41b815250906106ba5760405162461bcd60e51b81526004016105779190610bce565b506106ce8261059136849003840184610c2c565b5050565b6106f960405180608001604052805f81526020015f81526020015f81526020015f81525090565b6040518060800160405280610714845f015161ffff16610764565b815260200161072c846020015163ffffffff16610764565b8152602001610744846040015163ffffffff16610764565b815260200161075c846060015163ffffffff16610764565b905292915050565b5f6103ee8269152d02c7e14af6800000610cbb565b604080518082019091526002815261373760f01b60208201526001600160a01b0383166107b95760405162461bcd60e51b81526004016105779190610bce565b506126ac815f015161ffff16111580156107db57506064815f015161ffff1610155b60405180604001604052806002815260200161383360f01b815250906108145760405162461bcd60e51b81526004016105779190610bce565b50806060015163ffffffff16816040015163ffffffff16111560405180604001604052806002815260200161393560f01b815250906108665760405162461bcd60e51b81526004016105779190610bce565b50620186a0816060015163ffffffff16826040015163ffffffff16836020015163ffffffff166108969190610cd2565b6108a09190610cd2565b1115604051806040016040528060028152602001611c9960f11b815250906108db5760405162461bcd60e51b81526004016105779190610bce565b506001600160a01b0382165f81815260208181526040918290208451815486840151878601516060808a015161ffff90951665ffffffffffff1990941684176201000063ffffffff948516908102919091176dffffffffffffffff0000000000001916600160301b93851693840263ffffffff60501b191617600160501b9490961693840295909517909555865192835294820192909252938401929092528201527f5d123bea2036a4052274206f59d99350b9741e17da56ffae335d809b25ee09429060800160405180910390a25050565b6001600160a01b03811681146109c2575f80fd5b50565b5f602082840312156109d5575f80fd5b81356109e0816109ae565b9392505050565b5f602082840312156109f7575f80fd5b5035919050565b5f805f60408486031215610a10575f80fd5b8335610a1b816109ae565b9250602084013567ffffffffffffffff80821115610a37575f80fd5b818601915086601f830112610a4a575f80fd5b813581811115610a58575f80fd5b876020828501011115610a69575f80fd5b6020830194508093505050509250925092565b80358015158114610a8b575f80fd5b919050565b5f610100808385031215610aa2575f80fd5b6040519081019067ffffffffffffffff82118183101715610ad157634e487b7160e01b5f52604160045260245ffd5b81604052833581526020840135602082015260408401356040820152606084013560608201526080840135608082015260a08401359150610b11826109ae565b8160a0820152610b2360c08501610a7c565b60c082015260e084013560e0820152809250505092915050565b5f8082840360a0811215610b4f575f80fd5b8335610b5a816109ae565b92506080601f1982011215610b6d575f80fd5b506020830190509250929050565b634e487b7160e01b5f52601160045260245ffd5b63ffffffff818116838216019080821115610bac57610bac610b7b565b5092915050565b5f60208284031215610bc3575f80fd5b81516109e0816109ae565b5f6020808352835180828501525f5b81811015610bf957858101830151858201604001528201610bdd565b505f604082860101526040601f19601f8301168501019250505092915050565b803563ffffffff81168114610a8b575f80fd5b5f60808284031215610c3c575f80fd5b6040516080810181811067ffffffffffffffff82111715610c6b57634e487b7160e01b5f52604160045260245ffd5b604052823561ffff81168114610c7f575f80fd5b8152610c8d60208401610c19565b6020820152610c9e60408401610c19565b6040820152610caf60608401610c19565b60608201529392505050565b80820281158282048414176103ee576103ee610b7b565b808201808211156103ee576103ee610b7b56fea164736f6c6343000814000a","linkReferences":{}},"methodIdentifiers":{"ADDRESSES_PROVIDER()":"0542975c","MAX_BORROW_RATE()":"7a0c5ebf","MAX_OPTIMAL_POINT()":"7a24bd7e","MIN_OPTIMAL_POINT()":"f7e0fe67","calculateInterestRates((uint256,uint256,uint256,uint256,uint256,address,bool,uint256))":"b90db31b","getBaseVariableBorrowRate(address)":"cca22ea1","getInterestRateData(address)":"131e889c","getInterestRateDataBps(address)":"c79ce42e","getMaxVariableBorrowRate(address)":"6a00178e","getOptimalUsageRatio(address)":"aa33f063","getVariableRateSlope1(address)":"5b651bae","getVariableRateSlope2(address)":"8f4b0d5d","setInterestRateParams(address,(uint16,uint32,uint32,uint32))":"fd81bb12","setInterestRateParams(address,bytes)":"a8d9e56f","setLiquidityRate(uint256)":"3a244adf","setVariableBorrowRate(uint256)":"aa16fe34"},"id":201}