{"abi":[{"type":"function","name":"getAddressesProvider","inputs":[],"outputs":[{"name":"","type":"address","internalType":"address"}],"stateMutability":"view"},{"type":"function","name":"getManager","inputs":[],"outputs":[{"name":"","type":"address","internalType":"address"}],"stateMutability":"view"},{"type":"function","name":"initialize","inputs":[{"name":"addressesProvider","type":"address","internalType":"address"}],"outputs":[],"stateMutability":"nonpayable"},{"type":"function","name":"setManager","inputs":[{"name":"newManager","type":"address","internalType":"address"}],"outputs":[],"stateMutability":"nonpayable"}],"bytecode":{"object":"0x608060405234801561000f575f80fd5b506101228061001d5f395ff3fe608060405234801561000f575f80fd5b506004361061004a575f3560e01c8063c4d66de81461004e578063d0ebdbe714610080578063d5009584146100af578063fe65acfe146100d7575b5f80fd5b61007e61005c3660046100e8565b600280546001600160a01b0319166001600160a01b0392909216919091179055565b005b61007e61008e3660046100e8565b5f80546001600160a01b0319166001600160a01b0392909216919091179055565b5f546001600160a01b03165b6040516001600160a01b03909116815260200160405180910390f35b6002546001600160a01b03166100bb565b5f602082840312156100f8575f80fd5b81356001600160a01b038116811461010e575f80fd5b939250505056fea164736f6c6343000814000a","linkReferences":{}},"methodIdentifiers":{"getAddressesProvider()":"fe65acfe","getManager()":"d5009584","initialize(address)":"c4d66de8","setManager(address)":"d0ebdbe7"},"id":186}