{"abi":[{"type":"constructor","inputs":[{"name":"initialAnswer","type":"int256","internalType":"int256"}],"stateMutability":"nonpayable"},{"type":"function","name":"_latestAnswer","inputs":[],"outputs":[{"name":"","type":"int256","internalType":"int256"}],"stateMutability":"view"},{"type":"function","name":"decimals","inputs":[],"outputs":[{"name":"","type":"uint8","internalType":"uint8"}],"stateMutability":"pure"},{"type":"function","name":"getTokenType","inputs":[],"outputs":[{"name":"","type":"uint256","internalType":"uint256"}],"stateMutability":"pure"},{"type":"function","name":"latestAnswer","inputs":[],"outputs":[{"name":"","type":"int256","internalType":"int256"}],"stateMutability":"view"},{"type":"event","name":"AnswerUpdated","inputs":[{"name":"current","type":"int256","indexed":true,"internalType":"int256"},{"name":"roundId","type":"uint256","indexed":true,"internalType":"uint256"},{"name":"updatedAt","type":"uint256","indexed":false,"internalType":"uint256"}],"anonymous":false}],"bytecode":{"object":"0x608060405234801561000f575f80fd5b5060405161011638038061011683398101604081905261002e9161006d565b5f81815560405142815282907f0559884fd3a460db3073b7fc896cc77986f16e378210ded43186175bf646fc5f9060200160405180910390a350610084565b5f6020828403121561007d575f80fd5b5051919050565b6086806100905f395ff3fe6080604052348015600e575f80fd5b50600436106044575f3560e01c8063313ce56714604857806350d25bcd14605c578063b15b37a514606c578063fcab1819146073575b5f80fd5b604051600881526020015b60405180910390f35b5f545b6040519081526020016053565b605f5f5481565b6001605f56fea164736f6c6343000814000a","linkReferences":{}},"methodIdentifiers":{"_latestAnswer()":"b15b37a5","decimals()":"313ce567","getTokenType()":"fcab1819","latestAnswer()":"50d25bcd"},"id":189}