{"abi":[{"type":"function","name":"configuration","inputs":[],"outputs":[{"name":"data","type":"uint256","internalType":"uint256"}],"stateMutability":"view"},{"type":"function","name":"getBorrowCap","inputs":[],"outputs":[{"name":"","type":"uint256","internalType":"uint256"}],"stateMutability":"view"},{"type":"function","name":"getBorrowingEnabled","inputs":[],"outputs":[{"name":"","type":"bool","internalType":"bool"}],"stateMutability":"view"},{"type":"function","name":"getCaps","inputs":[],"outputs":[{"name":"","type":"uint256","internalType":"uint256"},{"name":"","type":"uint256","internalType":"uint256"}],"stateMutability":"view"},{"type":"function","name":"getDecimals","inputs":[],"outputs":[{"name":"","type":"uint256","internalType":"uint256"}],"stateMutability":"view"},{"type":"function","name":"getFlags","inputs":[],"outputs":[{"name":"","type":"bool","internalType":"bool"},{"name":"","type":"bool","internalType":"bool"},{"name":"","type":"bool","internalType":"bool"},{"name":"","type":"bool","internalType":"bool"}],"stateMutability":"view"},{"type":"function","name":"getFlashLoanEnabled","inputs":[],"outputs":[{"name":"","type":"bool","internalType":"bool"}],"stateMutability":"view"},{"type":"function","name":"getFrozen","inputs":[],"outputs":[{"name":"","type":"bool","internalType":"bool"}],"stateMutability":"view"},{"type":"function","name":"getLiquidationBonus","inputs":[],"outputs":[{"name":"","type":"uint256","internalType":"uint256"}],"stateMutability":"view"},{"type":"function","name":"getLiquidationProtocolFee","inputs":[],"outputs":[{"name":"","type":"uint256","internalType":"uint256"}],"stateMutability":"view"},{"type":"function","name":"getLiquidationThreshold","inputs":[],"outputs":[{"name":"","type":"uint256","internalType":"uint256"}],"stateMutability":"view"},{"type":"function","name":"getLtv","inputs":[],"outputs":[{"name":"","type":"uint256","internalType":"uint256"}],"stateMutability":"view"},{"type":"function","name":"getParams","inputs":[],"outputs":[{"name":"","type":"uint256","internalType":"uint256"},{"name":"","type":"uint256","internalType":"uint256"},{"name":"","type":"uint256","internalType":"uint256"},{"name":"","type":"uint256","internalType":"uint256"},{"name":"","type":"uint256","internalType":"uint256"}],"stateMutability":"view"},{"type":"function","name":"getReserveFactor","inputs":[],"outputs":[{"name":"","type":"uint256","internalType":"uint256"}],"stateMutability":"view"},{"type":"function","name":"getSupplyCap","inputs":[],"outputs":[{"name":"","type":"uint256","internalType":"uint256"}],"stateMutability":"view"},{"type":"function","name":"getUnbackedMintCap","inputs":[],"outputs":[{"name":"","type":"uint256","internalType":"uint256"}],"stateMutability":"view"},{"type":"function","name":"setBorrowCap","inputs":[{"name":"borrowCap","type":"uint256","internalType":"uint256"}],"outputs":[],"stateMutability":"nonpayable"},{"type":"function","name":"setBorrowingEnabled","inputs":[{"name":"enabled","type":"bool","internalType":"bool"}],"outputs":[],"stateMutability":"nonpayable"},{"type":"function","name":"setDecimals","inputs":[{"name":"decimals","type":"uint256","internalType":"uint256"}],"outputs":[],"stateMutability":"nonpayable"},{"type":"function","name":"setFlashLoanEnabled","inputs":[{"name":"enabled","type":"bool","internalType":"bool"}],"outputs":[],"stateMutability":"nonpayable"},{"type":"function","name":"setFrozen","inputs":[{"name":"frozen","type":"bool","internalType":"bool"}],"outputs":[],"stateMutability":"nonpayable"},{"type":"function","name":"setLiquidationBonus","inputs":[{"name":"bonus","type":"uint256","internalType":"uint256"}],"outputs":[],"stateMutability":"nonpayable"},{"type":"function","name":"setLiquidationProtocolFee","inputs":[{"name":"liquidationProtocolFee","type":"uint256","internalType":"uint256"}],"outputs":[],"stateMutability":"nonpayable"},{"type":"function","name":"setLiquidationThreshold","inputs":[{"name":"threshold","type":"uint256","internalType":"uint256"}],"outputs":[],"stateMutability":"nonpayable"},{"type":"function","name":"setLtv","inputs":[{"name":"ltv","type":"uint256","internalType":"uint256"}],"outputs":[],"stateMutability":"nonpayable"},{"type":"function","name":"setReserveFactor","inputs":[{"name":"reserveFactor","type":"uint256","internalType":"uint256"}],"outputs":[],"stateMutability":"nonpayable"},{"type":"function","name":"setSupplyCap","inputs":[{"name":"supplyCap","type":"uint256","internalType":"uint256"}],"outputs":[],"stateMutability":"nonpayable"},{"type":"function","name":"setUnbackedMintCap","inputs":[{"name":"unbackedMintCap","type":"uint256","internalType":"uint256"}],"outputs":[],"stateMutability":"nonpayable"}],"bytecode":{"object":"0x608060405234801561000f575f80fd5b50610a5b8061001d5f395ff3fe608060405234801561000f575f80fd5b50600436106101bb575f3560e01c80638c8885c8116100f3578063b6a3f59a11610093578063d1c11f181161006e578063d1c11f18146104a2578063ead8aa02146104c4578063f0141d84146104e4578063f1514a1a14610500575f80fd5b8063b6a3f59a1461045f578063c37bdcec14610472578063d0b0c8161461048f575f80fd5b8063a37e52e3116100ce578063a37e52e314610406578063a55102f714610419578063a62006351461042c578063aede7b761461043f575f80fd5b80638c8885c8146103a857806392dfb2fb146103bb5780639d706d31146103ce575f80fd5b80636c70bee91161015e5780637495b353116101395780637495b3531461033357806379750bc41461035d5780637e932d321461037b5780638145bd2e1461038e575f80fd5b80636c70bee9146102bc5780636cc7149d146102c5578063717186d114610320575f80fd5b80634ae9b8bc116101995780634ae9b8bc1461021657806359aa9e72146102335780635e615a6b146102505780635f558e53146102a1575f80fd5b80631c446983146101bf57806320361814146101d457806328842d4f14610203575b5f80fd5b6101d26101cd3660046109c6565b610513565b005b60408051602081019091525f549081905260741c640fffffffff165b6040519081526020015b60405180910390f35b6101d26102113660046109c6565b610532565b60408051602081019091525f549081905260101c61ffff166101f0565b6040805160208082019092525f5490819052901c61ffff166101f0565b60408051602080820183525f5491829052825161ffff8084168252601084901c8116828401529183901c821681850152603083901c60ff1660608201529190921c909116608082015260a0016101fa565b604080516020810182525f5490819052901c61ffff166101f0565b5f546101f09081565b60408051602080820183525f54918290528251670100000000000000831615158152600160391b83161515918101919091526001603a1b821615159281019290925267100000000000000016151560608201526080016101fa565b6101d261032e3660046109c6565b61054b565b60408051602081019091525f5490819052600160391b1615155b60405190151581526020016101fa565b60408051602081019091525f54908190526001603a1b16151561034d565b6101d26103893660046109dd565b610564565b60408051602081019091525f549081905261ffff166101f0565b6101d26103b63660046109c6565b61057d565b6101d26103c93660046109c6565b610596565b60408051602081019091525f5490819052640fffffffff605082901c81169160741c16604080519283526020830191909152016101fa565b6101d26104143660046109c6565b6105af565b6101d26104273660046109dd565b6105c8565b6101d261043a3660046109c6565b6105e1565b60408051602081019091525f549081905260501c640fffffffff166101f0565b6101d261046d3660046109c6565b6105fa565b60408051602081019091525f549081905260981c61ffff166101f0565b6101d261049d3660046109c6565b610613565b60408051602081019091525f549081905267800000000000000016151561034d565b60408051602081019091525f549081905260b01c640fffffffff166101f0565b60408051602081019091525f549081905260301c60ff166101f0565b6101d261050e3660046109dd565b61062c565b60408051602081019091525f54815261052c8183610645565b515f5550565b60408051602081019091525f54815261052c81836106a5565b60408051602081019091525f54815261052c81836106f8565b60408051602081019091525f54815261052c8183610750565b60408051602081019091525f54815261052c818361077d565b60408051602081019091525f54815261052c81836107d0565b60408051602081019091525f54815261052c8183610828565b60408051602081019091525f54815261052c8183610871565b60408051602081019091525f54815261052c818361089e565b60408051602081019091525f54815261052c81836108f0565b60408051602081019091525f54815261052c8183610948565b60408051602081019091525f54815261052c8183610999565b604080518082019091526002815261363760f01b602082015261ffff82111561068a5760405162461bcd60e51b81526004016106819190610a03565b60405180910390fd5b50815169ffff0000000000000000191660409190911b179052565b604080518082019091526002815261363560f01b602082015261ffff8211156106e15760405162461bcd60e51b81526004016106819190610a03565b50815165ffff00000000191660209190911b179052565b60408051808201909152600281526106c760f31b6020820152640fffffffff8211156107375760405162461bcd60e51b81526004016106819190610a03565b508151640fffffffff60501b191660509190911b179052565b60398161075d575f610760565b60015b8351670200000000000000191660ff9190911690911b1790915250565b6040805180820190915260028152611b1b60f11b602082015260ff8211156107b85760405162461bcd60e51b81526004016106819190610a03565b50815166ff000000000000191660309190911b179052565b6040805180820190915260028152611b9960f11b6020820152640fffffffff82111561080f5760405162461bcd60e51b81526004016106819190610a03565b508151640fffffffff60b01b191660b09190911b179052565b604080518082019091526002815261363360f01b602082015261ffff8211156108645760405162461bcd60e51b81526004016106819190610a03565b50815161ffff1916179052565b603f8161087e575f610881565b60015b8351678000000000000000191660ff9190911690911b1790915250565b604080518082019091526002815261037360f41b602082015261ffff8211156108da5760405162461bcd60e51b81526004016106819190610a03565b50815161ffff60981b191660989190911b179052565b604080518082019091526002815261363960f01b6020820152640fffffffff82111561092f5760405162461bcd60e51b81526004016106819190610a03565b508151640fffffffff60741b191660749190911b179052565b6040805180820190915260028152610d8d60f21b602082015261ffff8211156109845760405162461bcd60e51b81526004016106819190610a03565b50815163ffff0000191660109190911b179052565b603a816109a6575f6109a9565b60015b8351670400000000000000191660ff9190911690911b1790915250565b5f602082840312156109d6575f80fd5b5035919050565b5f602082840312156109ed575f80fd5b813580151581146109fc575f80fd5b9392505050565b5f6020808352835180828501525f5b81811015610a2e57858101830151858201604001528201610a12565b505f604082860101526040601f19601f830116850101925050509291505056fea164736f6c6343000814000a","linkReferences":{}},"methodIdentifiers":{"configuration()":"6c70bee9","getBorrowCap()":"aede7b76","getBorrowingEnabled()":"79750bc4","getCaps()":"9d706d31","getDecimals()":"f0141d84","getFlags()":"6cc7149d","getFlashLoanEnabled()":"d1c11f18","getFrozen()":"7495b353","getLiquidationBonus()":"59aa9e72","getLiquidationProtocolFee()":"c37bdcec","getLiquidationThreshold()":"4ae9b8bc","getLtv()":"8145bd2e","getParams()":"5e615a6b","getReserveFactor()":"5f558e53","getSupplyCap()":"20361814","getUnbackedMintCap()":"ead8aa02","setBorrowCap(uint256)":"717186d1","setBorrowingEnabled(bool)":"f1514a1a","setDecimals(uint256)":"8c8885c8","setFlashLoanEnabled(bool)":"a55102f7","setFrozen(bool)":"7e932d32","setLiquidationBonus(uint256)":"28842d4f","setLiquidationProtocolFee(uint256)":"a6200635","setLiquidationThreshold(uint256)":"d0b0c816","setLtv(uint256)":"a37e52e3","setReserveFactor(uint256)":"1c446983","setSupplyCap(uint256)":"b6a3f59a","setUnbackedMintCap(uint256)":"92dfb2fb"},"id":188}