{
  "_format": "hh-sol-artifact-1",
  "contractName": "ParaSwapRepayAdapter",
  "sourceName": "@aave/periphery-v3/contracts/adapters/paraswap/ParaSwapRepayAdapter.sol",
  "abi": [
    {
      "inputs": [
        {
          "internalType": "contract IPoolAddressesProvider",
          "name": "addressesProvider",
          "type": "address"
        },
        {
          "internalType": "contract IParaSwapAugustusRegistry",
          "name": "augustusRegistry",
          "type": "address"
        },
        {
          "internalType": "address",
          "name": "owner",
          "type": "address"
        }
      ],
      "stateMutability": "nonpayable",
      "type": "constructor"
    },
    {
      "anonymous": false,
      "inputs": [
        {
          "indexed": true,
          "internalType": "address",
          "name": "fromAsset",
          "type": "address"
        },
        {
          "indexed": true,
          "internalType": "address",
          "name": "toAsset",
          "type": "address"
        },
        {
          "indexed": false,
          "internalType": "uint256",
          "name": "amountSold",
          "type": "uint256"
        },
        {
          "indexed": false,
          "internalType": "uint256",
          "name": "receivedAmount",
          "type": "uint256"
        }
      ],
      "name": "Bought",
      "type": "event"
    },
    {
      "anonymous": false,
      "inputs": [
        {
          "indexed": true,
          "internalType": "address",
          "name": "previousOwner",
          "type": "address"
        },
        {
          "indexed": true,
          "internalType": "address",
          "name": "newOwner",
          "type": "address"
        }
      ],
      "name": "OwnershipTransferred",
      "type": "event"
    },
    {
      "anonymous": false,
      "inputs": [
        {
          "indexed": true,
          "internalType": "address",
          "name": "fromAsset",
          "type": "address"
        },
        {
          "indexed": true,
          "internalType": "address",
          "name": "toAsset",
          "type": "address"
        },
        {
          "indexed": false,
          "internalType": "uint256",
          "name": "fromAmount",
          "type": "uint256"
        },
        {
          "indexed": false,
          "internalType": "uint256",
          "name": "receivedAmount",
          "type": "uint256"
        }
      ],
      "name": "Swapped",
      "type": "event"
    },
    {
      "inputs": [],
      "name": "ADDRESSES_PROVIDER",
      "outputs": [
        {
          "internalType": "contract IPoolAddressesProvider",
          "name": "",
          "type": "address"
        }
      ],
      "stateMutability": "view",
      "type": "function"
    },
    {
      "inputs": [],
      "name": "AUGUSTUS_REGISTRY",
      "outputs": [
        {
          "internalType": "contract IParaSwapAugustusRegistry",
          "name": "",
          "type": "address"
        }
      ],
      "stateMutability": "view",
      "type": "function"
    },
    {
      "inputs": [],
      "name": "MAX_SLIPPAGE_PERCENT",
      "outputs": [
        {
          "internalType": "uint256",
          "name": "",
          "type": "uint256"
        }
      ],
      "stateMutability": "view",
      "type": "function"
    },
    {
      "inputs": [],
      "name": "ORACLE",
      "outputs": [
        {
          "internalType": "contract IPriceOracleGetter",
          "name": "",
          "type": "address"
        }
      ],
      "stateMutability": "view",
      "type": "function"
    },
    {
      "inputs": [],
      "name": "POOL",
      "outputs": [
        {
          "internalType": "contract IPool",
          "name": "",
          "type": "address"
        }
      ],
      "stateMutability": "view",
      "type": "function"
    },
    {
      "inputs": [
        {
          "internalType": "address",
          "name": "asset",
          "type": "address"
        },
        {
          "internalType": "uint256",
          "name": "amount",
          "type": "uint256"
        },
        {
          "internalType": "uint256",
          "name": "premium",
          "type": "uint256"
        },
        {
          "internalType": "address",
          "name": "initiator",
          "type": "address"
        },
        {
          "internalType": "bytes",
          "name": "params",
          "type": "bytes"
        }
      ],
      "name": "executeOperation",
      "outputs": [
        {
          "internalType": "bool",
          "name": "",
          "type": "bool"
        }
      ],
      "stateMutability": "nonpayable",
      "type": "function"
    },
    {
      "inputs": [],
      "name": "owner",
      "outputs": [
        {
          "internalType": "address",
          "name": "",
          "type": "address"
        }
      ],
      "stateMutability": "view",
      "type": "function"
    },
    {
      "inputs": [],
      "name": "renounceOwnership",
      "outputs": [],
      "stateMutability": "nonpayable",
      "type": "function"
    },
    {
      "inputs": [
        {
          "internalType": "contract IERC20",
          "name": "token",
          "type": "address"
        }
      ],
      "name": "rescueTokens",
      "outputs": [],
      "stateMutability": "nonpayable",
      "type": "function"
    },
    {
      "inputs": [
        {
          "internalType": "contract IERC20Detailed",
          "name": "collateralAsset",
          "type": "address"
        },
        {
          "internalType": "contract IERC20Detailed",
          "name": "debtAsset",
          "type": "address"
        },
        {
          "internalType": "uint256",
          "name": "collateralAmount",
          "type": "uint256"
        },
        {
          "internalType": "uint256",
          "name": "debtRepayAmount",
          "type": "uint256"
        },
        {
          "internalType": "uint256",
          "name": "debtRateMode",
          "type": "uint256"
        },
        {
          "internalType": "uint256",
          "name": "buyAllBalanceOffset",
          "type": "uint256"
        },
        {
          "internalType": "bytes",
          "name": "paraswapData",
          "type": "bytes"
        },
        {
          "components": [
            {
              "internalType": "uint256",
              "name": "amount",
              "type": "uint256"
            },
            {
              "internalType": "uint256",
              "name": "deadline",
              "type": "uint256"
            },
            {
              "internalType": "uint8",
              "name": "v",
              "type": "uint8"
            },
            {
              "internalType": "bytes32",
              "name": "r",
              "type": "bytes32"
            },
            {
              "internalType": "bytes32",
              "name": "s",
              "type": "bytes32"
            }
          ],
          "internalType": "struct BaseParaSwapAdapter.PermitSignature",
          "name": "permitSignature",
          "type": "tuple"
        }
      ],
      "name": "swapAndRepay",
      "outputs": [],
      "stateMutability": "nonpayable",
      "type": "function"
    },
    {
      "inputs": [
        {
          "internalType": "address",
          "name": "newOwner",
          "type": "address"
        }
      ],
      "name": "transferOwnership",
      "outputs": [],
      "stateMutability": "nonpayable",
      "type": "function"
    }
  ],
  "bytecode": "0x6101006040523480156200001257600080fd5b506040516200328b3803806200328b83398101604081905262000035916200036c565b82828180806001600160a01b03166080816001600160a01b031681525050806001600160a01b031663026b1d5f6040518163ffffffff1660e01b8152600401602060405180830381865afa15801562000092573d6000803e3d6000fd5b505050506040513d601f19601f82011682018060405250810190620000b89190620003c0565b6001600160a01b031660a05250600080546001600160a01b031916339081178255604051909182916000805160206200326b833981519152908290a350806001600160a01b031663fca513a86040518163ffffffff1660e01b8152600401602060405180830381865afa15801562000134573d6000803e3d6000fd5b505050506040513d601f19601f820116820180604052508101906200015a9190620003c0565b6001600160a01b0390811660c05260405163fb04e17b60e01b815260006004820152908316915063fb04e17b90602401602060405180830381865afa158015620001a8573d6000803e3d6000fd5b505050506040513d601f19601f82011682018060405250810190620001ce9190620003e7565b15620002215760405162461bcd60e51b815260206004820152601c60248201527f4e6f7420612076616c696420417567757374757320616464726573730000000060448201526064015b60405180910390fd5b6001600160a01b031660e05250600180556200023d8162000246565b5050506200040b565b6000546001600160a01b03163314620002a25760405162461bcd60e51b815260206004820181905260248201527f4f776e61626c653a2063616c6c6572206973206e6f7420746865206f776e6572604482015260640162000218565b6001600160a01b038116620003095760405162461bcd60e51b815260206004820152602660248201527f4f776e61626c653a206e6577206f776e657220697320746865207a65726f206160448201526564647265737360d01b606482015260840162000218565b600080546040516001600160a01b03808516939216916000805160206200326b83398151915291a3600080546001600160a01b0319166001600160a01b0392909216919091179055565b6001600160a01b03811681146200036957600080fd5b50565b6000806000606084860312156200038257600080fd5b83516200038f8162000353565b6020850151909350620003a28162000353565b6040850151909250620003b58162000353565b809150509250925092565b600060208284031215620003d357600080fd5b8151620003e08162000353565b9392505050565b600060208284031215620003fa57600080fd5b81518015158114620003e057600080fd5b60805160a05160c05160e051612db7620004b460003960008181610199015261144a01526000818161017201526122750152600081816101db01528181610411015281816105f2015281816106ac015281816107820152818161081c015281816108d6015281816109ac01528181610e2001528181610ede01528181610fb60152818161107b0152818161111601528181611ec601526120750152600060e70152612db76000f3fe608060405234801561001057600080fd5b50600436106100c85760003560e01c80633a829867116100815780637535d2461161005b5780637535d246146101d65780638da5cb5b146101fd578063f2fde38b1461021b57600080fd5b80633a829867146101945780634db9dc97146101bb578063715018a6146101ce57600080fd5b80631b11d0ff116100b25780631b11d0ff1461013357806332e4b2861461015657806338013f021461016d57600080fd5b8062ae3bf8146100cd5780630542975c146100e2575b600080fd5b6100e06100db36600461246f565b61022e565b005b6101097f000000000000000000000000000000000000000000000000000000000000000081565b60405173ffffffffffffffffffffffffffffffffffffffff90911681526020015b60405180910390f35b6101466101413660046124d5565b610385565b604051901515815260200161012a565b61015f610bb881565b60405190815260200161012a565b6101097f000000000000000000000000000000000000000000000000000000000000000081565b6101097f000000000000000000000000000000000000000000000000000000000000000081565b6100e06101c9366004612551565b6104bc565b6100e0610a2b565b6101097f000000000000000000000000000000000000000000000000000000000000000081565b60005473ffffffffffffffffffffffffffffffffffffffff16610109565b6100e061022936600461246f565b610b1b565b60005473ffffffffffffffffffffffffffffffffffffffff1633146102b4576040517f08c379a000000000000000000000000000000000000000000000000000000000815260206004820181905260248201527f4f776e61626c653a2063616c6c6572206973206e6f7420746865206f776e657260448201526064015b60405180910390fd5b6103826102d660005473ffffffffffffffffffffffffffffffffffffffff1690565b6040517f70a0823100000000000000000000000000000000000000000000000000000000815230600482015273ffffffffffffffffffffffffffffffffffffffff8416906370a0823190602401602060405180830381865afa158015610340573d6000803e3d6000fd5b505050506040513d601f19601f82011682018060405250810190610364919061261a565b73ffffffffffffffffffffffffffffffffffffffff84169190610ccc565b50565b6000600260015414156103f4576040517f08c379a000000000000000000000000000000000000000000000000000000000815260206004820152601f60248201527f5265656e7472616e637947756172643a207265656e7472616e742063616c6c0060448201526064016102ab565b60026001553373ffffffffffffffffffffffffffffffffffffffff7f00000000000000000000000000000000000000000000000000000000000000001614610498576040517f08c379a000000000000000000000000000000000000000000000000000000000815260206004820152601360248201527f43414c4c45525f4d5553545f42455f504f4f4c0000000000000000000000000060448201526064016102ab565b8584886104a986868a858588610da5565b5050600180805598975050505050505050565b60026001541415610529576040517f08c379a000000000000000000000000000000000000000000000000000000000815260206004820152601f60248201527f5265656e7472616e637947756172643a207265656e7472616e742063616c6c0060448201526064016102ab565b600260015561053b88868689336111ed565b955061055789338961055236869003860186612765565b6113c0565b600061059f8585858080601f0160208091040260200160405190810160405280939291908181526020018383808284376000920191909152508f92508e91508d90508c6113e6565b905060006105ad828a6127b0565b905080156107df576040517f095ea7b300000000000000000000000000000000000000000000000000000000815273ffffffffffffffffffffffffffffffffffffffff7f000000000000000000000000000000000000000000000000000000000000000081166004830152600060248301528c169063095ea7b3906044016020604051808303816000875af115801561064a573d6000803e3d6000fd5b505050506040513d601f19601f8201168201806040525081019061066e91906127c7565b506040517f095ea7b300000000000000000000000000000000000000000000000000000000815273ffffffffffffffffffffffffffffffffffffffff7f000000000000000000000000000000000000000000000000000000000000000081166004830152602482018390528c169063095ea7b3906044016020604051808303816000875af1158015610704573d6000803e3d6000fd5b505050506040513d601f19601f8201168201806040525081019061072891906127c7565b506040517fe8eda9df00000000000000000000000000000000000000000000000000000000815273ffffffffffffffffffffffffffffffffffffffff8c8116600483015260248201839052336044830152600060648301527f0000000000000000000000000000000000000000000000000000000000000000169063e8eda9df90608401600060405180830381600087803b1580156107c657600080fd5b505af11580156107da573d6000803e3d6000fd5b505050505b6040517f095ea7b300000000000000000000000000000000000000000000000000000000815273ffffffffffffffffffffffffffffffffffffffff7f000000000000000000000000000000000000000000000000000000000000000081166004830152600060248301528b169063095ea7b3906044016020604051808303816000875af1158015610874573d6000803e3d6000fd5b505050506040513d601f19601f8201168201806040525081019061089891906127c7565b506040517f095ea7b300000000000000000000000000000000000000000000000000000000815273ffffffffffffffffffffffffffffffffffffffff7f000000000000000000000000000000000000000000000000000000000000000081166004830152602482018a90528b169063095ea7b3906044016020604051808303816000875af115801561092e573d6000803e3d6000fd5b505050506040513d601f19601f8201168201806040525081019061095291906127c7565b506040517f573ade8100000000000000000000000000000000000000000000000000000000815273ffffffffffffffffffffffffffffffffffffffff8b81166004830152602482018a9052604482018990523360648301527f0000000000000000000000000000000000000000000000000000000000000000169063573ade81906084016020604051808303816000875af11580156109f5573d6000803e3d6000fd5b505050506040513d601f19601f82011682018060405250810190610a19919061261a565b50506001805550505050505050505050565b60005473ffffffffffffffffffffffffffffffffffffffff163314610aac576040517f08c379a000000000000000000000000000000000000000000000000000000000815260206004820181905260248201527f4f776e61626c653a2063616c6c6572206973206e6f7420746865206f776e657260448201526064016102ab565b6000805460405173ffffffffffffffffffffffffffffffffffffffff909116907f8be0079c531659141344cd1fd0a4f28419497f9722a3daafe3b4186f6b6457e0908390a3600080547fffffffffffffffffffffffff0000000000000000000000000000000000000000169055565b60005473ffffffffffffffffffffffffffffffffffffffff163314610b9c576040517f08c379a000000000000000000000000000000000000000000000000000000000815260206004820181905260248201527f4f776e61626c653a2063616c6c6572206973206e6f7420746865206f776e657260448201526064016102ab565b73ffffffffffffffffffffffffffffffffffffffff8116610c3f576040517f08c379a000000000000000000000000000000000000000000000000000000000815260206004820152602660248201527f4f776e61626c653a206e6577206f776e657220697320746865207a65726f206160448201527f646472657373000000000000000000000000000000000000000000000000000060648201526084016102ab565b6000805460405173ffffffffffffffffffffffffffffffffffffffff808516939216917f8be0079c531659141344cd1fd0a4f28419497f9722a3daafe3b4186f6b6457e091a3600080547fffffffffffffffffffffffff00000000000000000000000000000000000000001673ffffffffffffffffffffffffffffffffffffffff92909216919091179055565b6040517fa9059cbb0000000000000000000000000000000000000000000000000000000080825273ffffffffffffffffffffffffffffffffffffffff84166004830152602482018390529060008060448382895af1610d2f573d6000803e3d6000fd5b50610d3984611d1f565b610d9f576040517f08c379a000000000000000000000000000000000000000000000000000000000815260206004820152601560248201527f475076323a206661696c6564207472616e73666572000000000000000000000060448201526064016102ab565b50505050565b60008080808080610db88b8d018d61282f565b955095509550955095509550610dd1868486888d6111ed565b94506000610de385848b8a8c8b6113e6565b6040517f095ea7b300000000000000000000000000000000000000000000000000000000815273ffffffffffffffffffffffffffffffffffffffff7f000000000000000000000000000000000000000000000000000000000000000081166004830152600060248301529192509088169063095ea7b3906044016020604051808303816000875af1158015610e7c573d6000803e3d6000fd5b505050506040513d601f19601f82011682018060405250810190610ea091906127c7565b506040517f095ea7b300000000000000000000000000000000000000000000000000000000815273ffffffffffffffffffffffffffffffffffffffff7f0000000000000000000000000000000000000000000000000000000000000000811660048301526024820188905288169063095ea7b3906044016020604051808303816000875af1158015610f36573d6000803e3d6000fd5b505050506040513d601f19601f82011682018060405250810190610f5a91906127c7565b506040517f573ade8100000000000000000000000000000000000000000000000000000000815273ffffffffffffffffffffffffffffffffffffffff888116600483015260248201889052604482018690528b811660648301527f0000000000000000000000000000000000000000000000000000000000000000169063573ade81906084016020604051808303816000875af1158015610fff573d6000803e3d6000fd5b505050506040513d601f19601f82011682018060405250810190611023919061261a565b506000611030828d611deb565b905061103e8a8c83866113c0565b6040517f095ea7b300000000000000000000000000000000000000000000000000000000815273ffffffffffffffffffffffffffffffffffffffff7f000000000000000000000000000000000000000000000000000000000000000081166004830152600060248301528b169063095ea7b3906044016020604051808303816000875af11580156110d3573d6000803e3d6000fd5b505050506040513d601f19601f820116820180604052508101906110f791906127c7565b508973ffffffffffffffffffffffffffffffffffffffff1663095ea7b37f00000000000000000000000000000000000000000000000000000000000000006111488f8d611deb90919063ffffffff16565b6040517fffffffff0000000000000000000000000000000000000000000000000000000060e085901b16815273ffffffffffffffffffffffffffffffffffffffff909216600483015260248201526044016020604051808303816000875af11580156111b8573d6000803e3d6000fd5b505050506040513d601f19601f820116820180604052508101906111dc91906127c7565b505050505050505050505050505050565b6000806111f987611e01565b905060006001876002811115611211576112116128f0565b6002811115611222576112226128f0565b1461123257816101400151611239565b8161012001515b6040517f70a0823100000000000000000000000000000000000000000000000000000000815273ffffffffffffffffffffffffffffffffffffffff86811660048301529192506000918316906370a0823190602401602060405180830381865afa1580156112ab573d6000803e3d6000fd5b505050506040513d601f19601f820116820180604052508101906112cf919061261a565b905086156113495785811115611341576040517f08c379a000000000000000000000000000000000000000000000000000000000815260206004820152601c60248201527f494e53554646494349454e545f414d4f554e545f544f5f52455041590000000060448201526064016102ab565b8095506113b3565b808611156113b3576040517f08c379a000000000000000000000000000000000000000000000000000000000815260206004820152601960248201527f494e56414c49445f444542545f52455041595f414d4f554e540000000000000060448201526064016102ab565b5093979650505050505050565b60006113cb85611e01565b610100015190506113df8582868686611f32565b5050505050565b6000806000878060200190518101906113ff919061294b565b6040517ffb04e17b00000000000000000000000000000000000000000000000000000000815273ffffffffffffffffffffffffffffffffffffffff80831660048301529294509092507f00000000000000000000000000000000000000000000000000000000000000009091169063fb04e17b90602401602060405180830381865afa158015611493573d6000803e3d6000fd5b505050506040513d601f19601f820116820180604052508101906114b791906127c7565b61151d576040517f08c379a000000000000000000000000000000000000000000000000000000000815260206004820152601060248201527f494e56414c49445f41554755535455530000000000000000000000000000000060448201526064016102ab565b60006115288861214b565b60ff16905060006115388861214b565b60ff16905060006115488a61222d565b905060006115558a61222d565b905060006115ad61156a612710610bb8611deb565b6115a761158261157b88600a612af9565b87906122e2565b6115a161159a6115938b600a612af9565b88906122e2565b8e906122e2565b9061230c565b9061231f565b9050808a111561163f576040517f08c379a000000000000000000000000000000000000000000000000000000000815260206004820152602360248201527f6d6178416d6f756e74546f5377617020657863656564206d617820736c69707060448201527f616765000000000000000000000000000000000000000000000000000000000060648201526084016102ab565b50506040517f70a082310000000000000000000000000000000000000000000000000000000081523060048201526000935073ffffffffffffffffffffffffffffffffffffffff8b1692506370a082319150602401602060405180830381865afa1580156116b1573d6000803e3d6000fd5b505050506040513d601f19601f820116820180604052508101906116d5919061261a565b905085811015611741576040517f08c379a000000000000000000000000000000000000000000000000000000000815260206004820181905260248201527f494e53554646494349454e545f42414c414e43455f4245464f52455f5357415060448201526064016102ab565b6040517f70a0823100000000000000000000000000000000000000000000000000000000815230600482015260009073ffffffffffffffffffffffffffffffffffffffff8916906370a0823190602401602060405180830381865afa1580156117ae573d6000803e3d6000fd5b505050506040513d601f19601f820116820180604052508101906117d2919061261a565b905060008373ffffffffffffffffffffffffffffffffffffffff1663d2c4b5986040518163ffffffff1660e01b8152600401602060405180830381865afa158015611821573d6000803e3d6000fd5b505050506040513d601f19601f820116820180604052508101906118459190612b15565b6040517f095ea7b300000000000000000000000000000000000000000000000000000000815273ffffffffffffffffffffffffffffffffffffffff808316600483015260006024830152919250908b169063095ea7b3906044016020604051808303816000875af11580156118be573d6000803e3d6000fd5b505050506040513d601f19601f820116820180604052508101906118e291906127c7565b506040517f095ea7b300000000000000000000000000000000000000000000000000000000815273ffffffffffffffffffffffffffffffffffffffff8281166004830152602482018a90528b169063095ea7b3906044016020604051808303816000875af1158015611958573d6000803e3d6000fd5b505050506040513d601f19601f8201168201806040525081019061197c91906127c7565b508b15611a0f5760048c101580156119a05750845161199c906020612362565b8c11155b611a06576040517f08c379a000000000000000000000000000000000000000000000000000000000815260206004820152601d60248201527f544f5f414d4f554e545f4f46465345545f4f55545f4f465f52414e474500000060448201526064016102ab565b8660208d018601525b60008473ffffffffffffffffffffffffffffffffffffffff1686604051611a369190612b32565b6000604051808303816000865af19150503d8060008114611a73576040519150601f19603f3d011682016040523d82523d6000602084013e611a78565b606091505b5050905080611a8b573d6000803e3d6000fd5b6040517f70a0823100000000000000000000000000000000000000000000000000000000815230600482015260009073ffffffffffffffffffffffffffffffffffffffff8d16906370a0823190602401602060405180830381865afa158015611af8573d6000803e3d6000fd5b505050506040513d601f19601f82011682018060405250810190611b1c919061261a565b9050611b2881866127b0565b975089881115611b94576040517f08c379a000000000000000000000000000000000000000000000000000000000815260206004820152601860248201527f57524f4e475f42414c414e43455f41465445525f53574150000000000000000060448201526064016102ab565b6040517f70a08231000000000000000000000000000000000000000000000000000000008152306004820152600090611c3190869073ffffffffffffffffffffffffffffffffffffffff8f16906370a0823190602401602060405180830381865afa158015611c07573d6000803e3d6000fd5b505050506040513d601f19601f82011682018060405250810190611c2b919061261a565b90612362565b905089811015611c9d576040517f08c379a000000000000000000000000000000000000000000000000000000000815260206004820152601c60248201527f494e53554646494349454e545f414d4f554e545f52454345495645440000000060448201526064016102ab565b8b73ffffffffffffffffffffffffffffffffffffffff168d73ffffffffffffffffffffffffffffffffffffffff167fbf77fd13a39d14dc0da779342c14105c38d9a5d0c60f2caa22f5fd1d5525416d8b84604051611d05929190918252602082015260400190565b60405180910390a350505050505050509695505050505050565b6000611d5f565b7f08c379a00000000000000000000000000000000000000000000000000000000060005260206004528060245250806044525060646000fd5b3d8015611d9e5760208114611dd857611d997f475076323a206d616c666f726d6564207472616e7366657220726573756c7400601f611d26565b611de5565b823b611dcf57611dcf7f475076323a206e6f74206120636f6e74726163740000000000000000000000006014611d26565b60019150611de5565b3d6000803e600051151591505b50919050565b80820182811015611dfb57600080fd5b92915050565b604080516102008101825260006101e08201818152825260208201819052918101829052606081018290526080810182905260a0810182905260c0810182905260e08101829052610100810182905261012081018290526101408101829052610160810182905261018081018290526101a081018290526101c08101919091526040517f35ea6a7500000000000000000000000000000000000000000000000000000000815273ffffffffffffffffffffffffffffffffffffffff83811660048301527f000000000000000000000000000000000000000000000000000000000000000016906335ea6a75906024016101e060405180830381865afa158015611f0e573d6000803e3d6000fd5b505050506040513d601f19601f82011682018060405250810190611dfb9190612bd7565b602081015115611fff57805160208201516040808401516060850151608086015192517fd505accf00000000000000000000000000000000000000000000000000000000815273ffffffffffffffffffffffffffffffffffffffff89811660048301523060248301526044820196909652606481019490945260ff909116608484015260a483015260c48201529085169063d505accf9060e401600060405180830381600087803b158015611fe657600080fd5b505af1158015611ffa573d6000803e3d6000fd5b505050505b61202173ffffffffffffffffffffffffffffffffffffffff8516843085612372565b6040517f69328dec00000000000000000000000000000000000000000000000000000000815273ffffffffffffffffffffffffffffffffffffffff86811660048301526024820184905230604483015283917f0000000000000000000000000000000000000000000000000000000000000000909116906369328dec906064016020604051808303816000875af11580156120c0573d6000803e3d6000fd5b505050506040513d601f19601f820116820180604052508101906120e4919061261a565b146113df576040517f08c379a000000000000000000000000000000000000000000000000000000000815260206004820152601b60248201527f554e45585045435445445f414d4f554e545f57495448445241574e000000000060448201526064016102ab565b6000808273ffffffffffffffffffffffffffffffffffffffff1663313ce5676040518163ffffffff1660e01b8152600401602060405180830381865afa158015612199573d6000803e3d6000fd5b505050506040513d601f19601f820116820180604052508101906121bd9190612cfa565b9050604d8160ff161115611dfb576040517f08c379a000000000000000000000000000000000000000000000000000000000815260206004820152601a60248201527f544f4f5f4d414e595f444543494d414c535f4f4e5f544f4b454e00000000000060448201526064016102ab565b6040517fb3596f0700000000000000000000000000000000000000000000000000000000815273ffffffffffffffffffffffffffffffffffffffff82811660048301526000917f00000000000000000000000000000000000000000000000000000000000000009091169063b3596f0790602401602060405180830381865afa1580156122be573d6000803e3d6000fd5b505050506040513d601f19601f82011682018060405250810190611dfb919061261a565b60008215806123035750508181028183828161230057612300612d17565b04145b611dfb57600080fd5b60006123188284612d46565b9392505050565b600081157fffffffffffffffffffffffffffffffffffffffffffffffffffffffffffffec778390048411151761235457600080fd5b506127109102611388010490565b80820382811115611dfb57600080fd5b6040517f23b872dd0000000000000000000000000000000000000000000000000000000080825273ffffffffffffffffffffffffffffffffffffffff8581166004840152841660248301526044820183905290600080606483828a5af16123dd573d6000803e3d6000fd5b506123e785611d1f565b6113df576040517f08c379a000000000000000000000000000000000000000000000000000000000815260206004820152601960248201527f475076323a206661696c6564207472616e7366657246726f6d0000000000000060448201526064016102ab565b73ffffffffffffffffffffffffffffffffffffffff8116811461038257600080fd5b60006020828403121561248157600080fd5b81356123188161244d565b60008083601f84011261249e57600080fd5b50813567ffffffffffffffff8111156124b657600080fd5b6020830191508360208285010111156124ce57600080fd5b9250929050565b60008060008060008060a087890312156124ee57600080fd5b86356124f98161244d565b9550602087013594506040870135935060608701356125178161244d565b9250608087013567ffffffffffffffff81111561253357600080fd5b61253f89828a0161248c565b979a9699509497509295939492505050565b6000806000806000806000806000898b0361018081121561257157600080fd5b8a3561257c8161244d565b995060208b013561258c8161244d565b985060408b0135975060608b0135965060808b0135955060a08b0135945060c08b013567ffffffffffffffff8111156125c457600080fd5b6125d08d828e0161248c565b90955093505060a07fffffffffffffffffffffffffffffffffffffffffffffffffffffffffffffff208201121561260657600080fd5b5060e08a0190509295985092959850929598565b60006020828403121561262c57600080fd5b5051919050565b7f4e487b7100000000000000000000000000000000000000000000000000000000600052604160045260246000fd5b6040516101e0810167ffffffffffffffff8111828210171561268657612686612633565b60405290565b604051601f82017fffffffffffffffffffffffffffffffffffffffffffffffffffffffffffffffe016810167ffffffffffffffff811182821017156126d3576126d3612633565b604052919050565b60ff8116811461038257600080fd5b600060a082840312156126fc57600080fd5b60405160a0810181811067ffffffffffffffff8211171561271f5761271f612633565b806040525080915082358152602083013560208201526040830135612743816126db565b8060408301525060608301356060820152608083013560808201525092915050565b600060a0828403121561277757600080fd5b61231883836126ea565b7f4e487b7100000000000000000000000000000000000000000000000000000000600052601160045260246000fd5b6000828210156127c2576127c2612781565b500390565b6000602082840312156127d957600080fd5b8151801515811461231857600080fd5b600067ffffffffffffffff82111561280357612803612633565b50601f017fffffffffffffffffffffffffffffffffffffffffffffffffffffffffffffffe01660200190565b600080600080600080610140878903121561284957600080fd5b86356128548161244d565b9550602087013594506040870135935060608701359250608087013567ffffffffffffffff81111561288557600080fd5b8701601f8101891361289657600080fd5b80356128a96128a4826127e9565b61268c565b8181528a60208385010111156128be57600080fd5b816020840160208301376000602083830101528094505050506128e48860a089016126ea565b90509295509295509295565b7f4e487b7100000000000000000000000000000000000000000000000000000000600052602160045260246000fd5b60005b8381101561293a578181015183820152602001612922565b83811115610d9f5750506000910152565b6000806040838503121561295e57600080fd5b825167ffffffffffffffff81111561297557600080fd5b8301601f8101851361298657600080fd5b80516129946128a4826127e9565b8181528660208385010111156129a957600080fd5b6129ba82602083016020860161291f565b80945050505060208301516129ce8161244d565b809150509250929050565b600181815b80851115612a3257817fffffffffffffffffffffffffffffffffffffffffffffffffffffffffffffffff04821115612a1857612a18612781565b80851615612a2557918102915b93841c93908002906129de565b509250929050565b600082612a4957506001611dfb565b81612a5657506000611dfb565b8160018114612a6c5760028114612a7657612a92565b6001915050611dfb565b60ff841115612a8757612a87612781565b50506001821b611dfb565b5060208310610133831016604e8410600b8410161715612ab5575081810a611dfb565b612abf83836129d9565b807fffffffffffffffffffffffffffffffffffffffffffffffffffffffffffffffff04821115612af157612af1612781565b029392505050565b60006123188383612a3a565b8051612b108161244d565b919050565b600060208284031215612b2757600080fd5b81516123188161244d565b60008251612b4481846020870161291f565b9190910192915050565b600060208284031215612b6057600080fd5b6040516020810181811067ffffffffffffffff82111715612b8357612b83612633565b6040529151825250919050565b80516fffffffffffffffffffffffffffffffff81168114612b1057600080fd5b805164ffffffffff81168114612b1057600080fd5b805161ffff81168114612b1057600080fd5b60006101e08284031215612bea57600080fd5b612bf2612662565b612bfc8484612b4e565b8152612c0a60208401612b90565b6020820152612c1b60408401612b90565b6040820152612c2c60608401612b90565b6060820152612c3d60808401612b90565b6080820152612c4e60a08401612b90565b60a0820152612c5f60c08401612bb0565b60c0820152612c7060e08401612bc5565b60e0820152610100612c83818501612b05565b90820152610120612c95848201612b05565b90820152610140612ca7848201612b05565b90820152610160612cb9848201612b05565b90820152610180612ccb848201612b90565b908201526101a0612cdd848201612b90565b908201526101c0612cef848201612b90565b908201529392505050565b600060208284031215612d0c57600080fd5b8151612318816126db565b7f4e487b7100000000000000000000000000000000000000000000000000000000600052601260045260246000fd5b600082612d7c577f4e487b7100000000000000000000000000000000000000000000000000000000600052601260045260246000fd5b50049056fea2646970667358221220dd0850ac266acd3a832a6fe148611e41cd54e46bff7e1b6c51d85f0eca91ea5064736f6c634300080a00338be0079c531659141344cd1fd0a4f28419497f9722a3daafe3b4186f6b6457e0",
  "linkReferences": {},
  "deployedLinkReferences": {}
}