{"abi":[{"type":"constructor","inputs":[{"name":"addressesProvider","type":"address","internalType":"contract IPoolAddressesProvider"},{"name":"augustusRegistry","type":"address","internalType":"contract IParaSwapAugustusRegistry"},{"name":"owner","type":"address","internalType":"address"}],"stateMutability":"nonpayable"},{"type":"function","name":"ADDRESSES_PROVIDER","inputs":[],"outputs":[{"name":"","type":"address","internalType":"contract IPoolAddressesProvider"}],"stateMutability":"view"},{"type":"function","name":"AUGUSTUS_REGISTRY","inputs":[],"outputs":[{"name":"","type":"address","internalType":"contract IParaSwapAugustusRegistry"}],"stateMutability":"view"},{"type":"function","name":"MAX_SLIPPAGE_PERCENT","inputs":[],"outputs":[{"name":"","type":"uint256","internalType":"uint256"}],"stateMutability":"view"},{"type":"function","name":"ORACLE","inputs":[],"outputs":[{"name":"","type":"address","internalType":"contract IPriceOracleGetter"}],"stateMutability":"view"},{"type":"function","name":"POOL","inputs":[],"outputs":[{"name":"","type":"address","internalType":"contract IPool"}],"stateMutability":"view"},{"type":"function","name":"executeOperation","inputs":[{"name":"asset","type":"address","internalType":"address"},{"name":"amount","type":"uint256","internalType":"uint256"},{"name":"premium","type":"uint256","internalType":"uint256"},{"name":"initiator","type":"address","internalType":"address"},{"name":"params","type":"bytes","internalType":"bytes"}],"outputs":[{"name":"","type":"bool","internalType":"bool"}],"stateMutability":"nonpayable"},{"type":"function","name":"owner","inputs":[],"outputs":[{"name":"","type":"address","internalType":"address"}],"stateMutability":"view"},{"type":"function","name":"renounceOwnership","inputs":[],"outputs":[],"stateMutability":"nonpayable"},{"type":"function","name":"rescueTokens","inputs":[{"name":"token","type":"address","internalType":"contract IERC20"}],"outputs":[],"stateMutability":"nonpayable"},{"type":"function","name":"swapAndDeposit","inputs":[{"name":"assetToSwapFrom","type":"address","internalType":"contract IERC20Detailed"},{"name":"assetToSwapTo","type":"address","internalType":"contract IERC20Detailed"},{"name":"amountToSwap","type":"uint256","internalType":"uint256"},{"name":"minAmountToReceive","type":"uint256","internalType":"uint256"},{"name":"swapAllBalanceOffset","type":"uint256","internalType":"uint256"},{"name":"swapCalldata","type":"bytes","internalType":"bytes"},{"name":"augustus","type":"address","internalType":"contract IParaSwapAugustus"},{"name":"permitParams","type":"tuple","internalType":"struct BaseParaSwapAdapter.PermitSignature","components":[{"name":"amount","type":"uint256","internalType":"uint256"},{"name":"deadline","type":"uint256","internalType":"uint256"},{"name":"v","type":"uint8","internalType":"uint8"},{"name":"r","type":"bytes32","internalType":"bytes32"},{"name":"s","type":"bytes32","internalType":"bytes32"}]}],"outputs":[],"stateMutability":"nonpayable"},{"type":"function","name":"transferOwnership","inputs":[{"name":"newOwner","type":"address","internalType":"address"}],"outputs":[],"stateMutability":"nonpayable"},{"type":"event","name":"Bought","inputs":[{"name":"fromAsset","type":"address","indexed":true,"internalType":"address"},{"name":"toAsset","type":"address","indexed":true,"internalType":"address"},{"name":"amountSold","type":"uint256","indexed":false,"internalType":"uint256"},{"name":"receivedAmount","type":"uint256","indexed":false,"internalType":"uint256"}],"anonymous":false},{"type":"event","name":"OwnershipTransferred","inputs":[{"name":"previousOwner","type":"address","indexed":true,"internalType":"address"},{"name":"newOwner","type":"address","indexed":true,"internalType":"address"}],"anonymous":false},{"type":"event","name":"Swapped","inputs":[{"name":"fromAsset","type":"address","indexed":true,"internalType":"address"},{"name":"toAsset","type":"address","indexed":true,"internalType":"address"},{"name":"fromAmount","type":"uint256","indexed":false,"internalType":"uint256"},{"name":"receivedAmount","type":"uint256","indexed":false,"internalType":"uint256"}],"anonymous":false}],"bytecode":{"object":"0x61010060405234801562000011575f80fd5b506040516200267a3803806200267a833981016040819052620000349162000318565b82828180806001600160a01b03166080816001600160a01b031681525050806001600160a01b031663026b1d5f6040518163ffffffff1660e01b8152600401602060405180830381865afa1580156200008f573d5f803e3d5ffd5b505050506040513d601f19601f82011682018060405250810190620000b5919062000369565b6001600160a01b031660a052505f80546001600160a01b031916339081178255604051909182915f805160206200265a833981519152908290a350806001600160a01b031663fca513a86040518163ffffffff1660e01b8152600401602060405180830381865afa1580156200012d573d5f803e3d5ffd5b505050506040513d601f19601f8201168201806040525081019062000153919062000369565b6001600160a01b0390811660c05260405163fb04e17b60e01b81525f6004820152908316915063fb04e17b90602401602060405180830381865afa1580156200019e573d5f803e3d5ffd5b505050506040513d601f19601f82011682018060405250810190620001c491906200038e565b15620001ce575f80fd5b6001600160a01b031660e0525060018055620001ea81620001f3565b505050620003af565b5f546001600160a01b03163314620002525760405162461bcd60e51b815260206004820181905260248201527f4f776e61626c653a2063616c6c6572206973206e6f7420746865206f776e657260448201526064015b60405180910390fd5b6001600160a01b038116620002b95760405162461bcd60e51b815260206004820152602660248201527f4f776e61626c653a206e6577206f776e657220697320746865207a65726f206160448201526564647265737360d01b606482015260840162000249565b5f80546040516001600160a01b03808516939216915f805160206200265a83398151915291a35f80546001600160a01b0319166001600160a01b0392909216919091179055565b6001600160a01b038116811462000315575f80fd5b50565b5f805f606084860312156200032b575f80fd5b8351620003388162000300565b60208501519093506200034b8162000300565b60408501519092506200035e8162000300565b809150509250925092565b5f602082840312156200037a575f80fd5b8151620003878162000300565b9392505050565b5f602082840312156200039f575f80fd5b8151801515811462000387575f80fd5b60805160a05160c05160e05161221d6200043d5f395f81816101680152610e0501525f8181610141015261177201525f818161019701528181610312015281816105de0152818161061201528181610669015281816109ab015281816109df01528181610a3801528181610abd01528181610ae701528181610bcf0152610d2401525f60c3015261221d5ff3fe608060405234801561000f575f80fd5b50600436106100a5575f3560e01c80633a8298671161006e5780633a82986714610163578063715018a61461018a5780637535d246146101925780638da5cb5b146101b9578063d3454a35146101c9578063f2fde38b146101dc575f80fd5b8062ae3bf8146100a95780630542975c146100be5780631b11d0ff1461010257806332e4b2861461012557806338013f021461013c575b5f80fd5b6100bc6100b7366004611a93565b6101ef565b005b6100e57f000000000000000000000000000000000000000000000000000000000000000081565b6040516001600160a01b0390911681526020015b60405180910390f35b610115610110366004611af3565b6102af565b60405190151581526020016100f9565b61012e610bb881565b6040519081526020016100f9565b6100e57f000000000000000000000000000000000000000000000000000000000000000081565b6100e57f000000000000000000000000000000000000000000000000000000000000000081565b6100bc6103c3565b6100e57f000000000000000000000000000000000000000000000000000000000000000081565b5f546001600160a01b03166100e5565b6100bc6101d7366004611b7a565b610434565b6100bc6101ea366004611a93565b6106d1565b5f546001600160a01b031633146102215760405162461bcd60e51b815260040161021890611c26565b60405180910390fd5b6102ac6102355f546001600160a01b031690565b6040516370a0823160e01b81523060048201526001600160a01b038416906370a0823190602401602060405180830381865afa158015610277573d5f803e3d5ffd5b505050506040513d601f19601f8201168201806040525081019061029b9190611c5b565b6001600160a01b03841691906107b8565b50565b5f6002600154036103025760405162461bcd60e51b815260206004820152601f60248201527f5265656e7472616e637947756172643a207265656e7472616e742063616c6c006044820152606401610218565b6002600155336001600160a01b037f000000000000000000000000000000000000000000000000000000000000000016146103755760405162461bcd60e51b815260206004820152601360248201527210d05313115497d35554d517d09157d413d3d3606a1b6044820152606401610218565b858585895f808080808061038b8c8e018e611d68565b9550955095509550955095506103a9848484848e8e8e8e8e8e610846565b505060018080559f9e505050505050505050505050505050565b5f546001600160a01b031633146103ec5760405162461bcd60e51b815260040161021890611c26565b5f80546040516001600160a01b03909116907f8be0079c531659141344cd1fd0a4f28419497f9722a3daafe3b4186f6b6457e0908390a35f80546001600160a01b0319169055565b6002600154036104865760405162461bcd60e51b815260206004820152601f60248201527f5265656e7472616e637947756172643a207265656e7472616e742063616c6c006044820152606401610218565b60026001555f6104958a610b31565b61010001519050851561055f576040516370a0823160e01b81523360048201525f906001600160a01b038316906370a0823190602401602060405180830381865afa1580156104e6573d5f803e3d5ffd5b505050506040513d601f19601f8201168201806040525081019061050a9190611c5b565b90508881111561055c5760405162461bcd60e51b815260206004820152601b60248201527f494e53554646494349454e545f414d4f554e545f544f5f5357415000000000006044820152606401610218565b97505b61057a8a82338b61057536889003880188611e3d565b610c3f565b5f6105cd8787878080601f0160208091040260200160405190810160405280939291908181526020018383808284375f81840152601f19601f82011690508083019250505050505050868e8e8e8e610de4565b90506106036001600160a01b038b167f00000000000000000000000000000000000000000000000000000000000000005f611406565b6106376001600160a01b038b167f000000000000000000000000000000000000000000000000000000000000000083611406565b60405163e8eda9df60e01b81526001600160a01b038b81166004830152602482018390523360448301525f60648301527f0000000000000000000000000000000000000000000000000000000000000000169063e8eda9df906084015f604051808303815f87803b1580156106aa575f80fd5b505af11580156106bc573d5f803e3d5ffd5b50506001805550505050505050505050505050565b5f546001600160a01b031633146106fa5760405162461bcd60e51b815260040161021890611c26565b6001600160a01b03811661075f5760405162461bcd60e51b815260206004820152602660248201527f4f776e61626c653a206e6577206f776e657220697320746865207a65726f206160448201526564647265737360d01b6064820152608401610218565b5f80546040516001600160a01b03808516939216917f8be0079c531659141344cd1fd0a4f28419497f9722a3daafe3b4186f6b6457e091a35f80546001600160a01b0319166001600160a01b0392909216919091179055565b60405163a9059cbb60e01b8082526001600160a01b038416600483015260248201839052905f8060448382895af16107f2573d5f803e3d5ffd5b506107fc84611540565b6108405760405162461bcd60e51b815260206004820152601560248201527423a83b191d103330b4b632b2103a3930b739b332b960591b6044820152606401610218565b50505050565b5f61085084610b31565b61010001516040516370a0823160e01b81526001600160a01b03878116600483015291925088915f91908416906370a0823190602401602060405180830381865afa1580156108a1573d5f803e3d5ffd5b505050506040513d601f19601f820116820180604052508101906108c59190611c5b565b90508c15610931575f6108d8828a6115e3565b90508281111561092a5760405162461bcd60e51b815260206004820152601b60248201527f494e53554646494349454e545f414d4f554e545f544f5f5357415000000000006044820152606401610218565b915061098a565b61093b82896115f2565b81101561098a5760405162461bcd60e51b815260206004820152601b60248201527f494e53554646494349454e545f41544f4b454e5f42414c414e434500000000006044820152606401610218565b5f61099a8e8e8e8a8a888b610de4565b90506109d06001600160a01b0387167f00000000000000000000000000000000000000000000000000000000000000005f611406565b610a046001600160a01b0387167f000000000000000000000000000000000000000000000000000000000000000083611406565b60405163e8eda9df60e01b81526001600160a01b0387811660048301526024820183905289811660448301525f60648301527f0000000000000000000000000000000000000000000000000000000000000000169063e8eda9df906084015f604051808303815f87803b158015610a79575f80fd5b505af1158015610a8b573d5f803e3d5ffd5b50505050610aae87858a610aa88d886115f290919063ffffffff16565b8f610c3f565b610ae26001600160a01b0388167f00000000000000000000000000000000000000000000000000000000000000005f611406565b610b217f0000000000000000000000000000000000000000000000000000000000000000610b108c8c6115f2565b6001600160a01b038a169190611406565b5050505050505050505050505050565b60408051610200810182525f6101e08201818152825260208201819052918101829052606081018290526080810182905260a0810182905260c0810182905260e08101829052610100810182905261012081018290526101408101829052610160810182905261018081018290526101a081018290526101c08101919091526040516335ea6a7560e01b81526001600160a01b0383811660048301527f000000000000000000000000000000000000000000000000000000000000000016906335ea6a75906024016101e060405180830381865afa158015610c15573d5f803e3d5ffd5b505050506040513d601f19601f82011682018060405250810190610c399190611ee6565b92915050565b602081015115610ce1578051602082015160408084015160608501516080860151925163d505accf60e01b81526001600160a01b0389811660048301523060248301526044820196909652606481019490945260ff909116608484015260a483015260c48201529085169063d505accf9060e4015f604051808303815f87803b158015610cca575f80fd5b505af1158015610cdc573d5f803e3d5ffd5b505050505b610cf66001600160a01b038516843085611601565b604051631a4ca37b60e21b81526001600160a01b0386811660048301526024820184905230604483015283917f0000000000000000000000000000000000000000000000000000000000000000909116906369328dec906064016020604051808303815f875af1158015610d6c573d5f803e3d5ffd5b505050506040513d601f19601f82011682018060405250810190610d909190611c5b565b14610ddd5760405162461bcd60e51b815260206004820152601b60248201527f554e45585045435445445f414d4f554e545f57495448445241574e00000000006044820152606401610218565b5050505050565b60405163fb04e17b60e01b81526001600160a01b0386811660048301525f917f00000000000000000000000000000000000000000000000000000000000000009091169063fb04e17b90602401602060405180830381865afa158015610e4c573d5f803e3d5ffd5b505050506040513d601f19601f82011682018060405250810190610e709190612007565b610eaf5760405162461bcd60e51b815260206004820152601060248201526f494e56414c49445f415547555354555360801b6044820152606401610218565b5f610eb986611699565b60ff1690505f610ec886611699565b60ff1690505f610ed788611751565b90505f610ee388611751565b90505f610f3a610ef7610bb861271061203a565b610f34610f0f610f0889600a61212d565b86906117dd565b610f2e610f27610f208a600a61212d565b89906117dd565b8d906117dd565b90611805565b90611817565b905086811115610f8c5760405162461bcd60e51b815260206004820152601f60248201527f4d494e5f414d4f554e545f455843454544535f4d41585f534c495050414745006044820152606401610218565b50506040516370a0823160e01b81523060048201525f93506001600160a01b03891692506370a082319150602401602060405180830381865afa158015610fd5573d5f803e3d5ffd5b505050506040513d601f19601f82011682018060405250810190610ff99190611c5b565b90508381101561104b5760405162461bcd60e51b815260206004820181905260248201527f494e53554646494349454e545f42414c414e43455f4245464f52455f535741506044820152606401610218565b6040516370a0823160e01b81523060048201525f906001600160a01b038716906370a0823190602401602060405180830381865afa15801561108f573d5f803e3d5ffd5b505050506040513d601f19601f820116820180604052508101906110b39190611c5b565b90505f886001600160a01b031663d2c4b5986040518163ffffffff1660e01b8152600401602060405180830381865afa1580156110f2573d5f803e3d5ffd5b505050506040513d601f19601f820116820180604052508101906111169190612138565b905061112c6001600160a01b038916825f611406565b6111406001600160a01b0389168288611406565b8a156111b85760048b101580156111635750895161115f9060206115e3565b8b11155b6111af5760405162461bcd60e51b815260206004820152601f60248201527f46524f4d5f414d4f554e545f4f46465345545f4f55545f4f465f52414e4745006044820152606401610218565b8560208c018b01525b5f896001600160a01b03168b6040516111d19190612175565b5f604051808303815f865af19150503d805f811461120a576040519150601f19603f3d011682016040523d82523d5f602084013e61120f565b606091505b5050905080611220573d5f803e3d5ffd5b61122a878561203a565b6040516370a0823160e01b81523060048201526001600160a01b038b16906370a0823190602401602060405180830381865afa15801561126c573d5f803e3d5ffd5b505050506040513d601f19601f820116820180604052508101906112909190611c5b565b146112dd5760405162461bcd60e51b815260206004820152601860248201527f57524f4e475f42414c414e43455f41465445525f5357415000000000000000006044820152606401610218565b6040516370a0823160e01b815230600482015261134f9084906001600160a01b038b16906370a0823190602401602060405180830381865afa158015611325573d5f803e3d5ffd5b505050506040513d601f19601f820116820180604052508101906113499190611c5b565b906115e3565b9450858510156113a15760405162461bcd60e51b815260206004820152601c60248201527f494e53554646494349454e545f414d4f554e545f5245434549564544000000006044820152606401610218565b876001600160a01b0316896001600160a01b03167fa078c4190abe07940190effc1846be0ccf03ad6007bc9e93f9697d0b460befbb89886040516113ef929190918252602082015260400190565b60405180910390a350505050979650505050505050565b80158061147e5750604051636eb1769f60e11b81523060048201526001600160a01b03838116602483015284169063dd62ed3e90604401602060405180830381865afa158015611458573d5f803e3d5ffd5b505050506040513d601f19601f8201168201806040525081019061147c9190611c5b565b155b6114e95760405162461bcd60e51b815260206004820152603660248201527f5361666545524332303a20617070726f76652066726f6d206e6f6e2d7a65726f60448201527520746f206e6f6e2d7a65726f20616c6c6f77616e636560501b6064820152608401610218565b604080516001600160a01b038416602482015260448082018490528251808303909101815260649091019091526020810180516001600160e01b031663095ea7b360e01b17905261153b90849061183b565b505050565b5f611562565b62461bcd60e51b5f52602060045280602452508060445260645ffd5b3d80156115a157602081146115d25761159c7f475076323a206d616c666f726d6564207472616e7366657220726573756c7400601f611546565b6115dd565b823b6115c9576115c97311d41d8c8e881b9bdd08184818dbdb9d1c9858dd60621b6014611546565b600191506115dd565b3d5f803e5f51151591505b50919050565b80820382811115610c39575f80fd5b80820182811015610c39575f80fd5b6040516323b872dd60e01b8082526001600160a01b0385811660048401528416602483015260448201839052905f80606483828a5af1611643573d5f803e3d5ffd5b5061164d85611540565b610ddd5760405162461bcd60e51b815260206004820152601960248201527f475076323a206661696c6564207472616e7366657246726f6d000000000000006044820152606401610218565b5f80826001600160a01b031663313ce5676040518163ffffffff1660e01b8152600401602060405180830381865afa1580156116d7573d5f803e3d5ffd5b505050506040513d601f19601f820116820180604052508101906116fb9190612190565b9050604d8160ff161115610c395760405162461bcd60e51b815260206004820152601a60248201527f544f4f5f4d414e595f444543494d414c535f4f4e5f544f4b454e0000000000006044820152606401610218565b60405163b3596f0760e01b81526001600160a01b0382811660048301525f917f00000000000000000000000000000000000000000000000000000000000000009091169063b3596f0790602401602060405180830381865afa1580156117b9573d5f803e3d5ffd5b505050506040513d601f19601f82011682018060405250810190610c399190611c5b565b5f8215806117fd575050818102818382816117fa576117fa6121ab565b04145b610c39575f80fd5b5f61181082846121bf565b9392505050565b5f8115611388198390048411151761182d575f80fd5b506127109102611388010490565b5f61188f826040518060400160405280602081526020017f5361666545524332303a206c6f772d6c6576656c2063616c6c206661696c6564815250856001600160a01b031661190c9092919063ffffffff16565b80519091501561153b57808060200190518101906118ad9190612007565b61153b5760405162461bcd60e51b815260206004820152602a60248201527f5361666545524332303a204552433230206f7065726174696f6e20646964206e6044820152691bdd081cdd58d8d9595960b21b6064820152608401610218565b606061191a84845f85611922565b949350505050565b6060824710156119835760405162461bcd60e51b815260206004820152602660248201527f416464726573733a20696e73756666696369656e742062616c616e636520666f6044820152651c8818d85b1b60d21b6064820152608401610218565b843b6119d15760405162461bcd60e51b815260206004820152601d60248201527f416464726573733a2063616c6c20746f206e6f6e2d636f6e74726163740000006044820152606401610218565b5f80866001600160a01b031685876040516119ec9190612175565b5f6040518083038185875af1925050503d805f8114611a26576040519150601f19603f3d011682016040523d82523d5f602084013e611a2b565b606091505b5091509150611a3b828286611a46565b979650505050505050565b60608315611a55575081611810565b825115611a655782518084602001fd5b8160405162461bcd60e51b815260040161021891906121de565b6001600160a01b03811681146102ac575f80fd5b5f60208284031215611aa3575f80fd5b813561181081611a7f565b5f8083601f840112611abe575f80fd5b50813567ffffffffffffffff811115611ad5575f80fd5b602083019150836020828501011115611aec575f80fd5b9250929050565b5f805f805f8060a08789031215611b08575f80fd5b8635611b1381611a7f565b955060208701359450604087013593506060870135611b3181611a7f565b9250608087013567ffffffffffffffff811115611b4c575f80fd5b611b5889828a01611aae565b979a9699509497509295939492505050565b8035611b7581611a7f565b919050565b5f805f805f805f805f898b03610180811215611b94575f80fd5b8a35611b9f81611a7f565b995060208b0135611baf81611a7f565b985060408b0135975060608b0135965060808b0135955060a08b013567ffffffffffffffff811115611bdf575f80fd5b611beb8d828e01611aae565b90965094505060c08b0135611bff81611a7f565b925060a060df1982011215611c12575f80fd5b5060e08a0190509295985092959850929598565b6020808252818101527f4f776e61626c653a2063616c6c6572206973206e6f7420746865206f776e6572604082015260600190565b5f60208284031215611c6b575f80fd5b5051919050565b634e487b7160e01b5f52604160045260245ffd5b6040516101e0810167ffffffffffffffff81118282101715611caa57611caa611c72565b60405290565b604051601f8201601f1916810167ffffffffffffffff81118282101715611cd957611cd9611c72565b604052919050565b60ff811681146102ac575f80fd5b5f60a08284031215611cff575f80fd5b60405160a0810181811067ffffffffffffffff82111715611d2257611d22611c72565b806040525080915082358152602083013560208201526040830135611d4681611ce1565b8060408301525060608301356060820152608083013560808201525092915050565b5f805f805f806101408789031215611d7e575f80fd5b8635611d8981611a7f565b9550602087810135955060408801359450606088013567ffffffffffffffff80821115611db4575f80fd5b818a0191508a601f830112611dc7575f80fd5b813581811115611dd957611dd9611c72565b611deb601f8201601f19168501611cb0565b91508082528b84828501011115611e00575f80fd5b80848401858401375f84828401015250809550505050611e2260808801611b6a565b9150611e318860a08901611cef565b90509295509295509295565b5f60a08284031215611e4d575f80fd5b6118108383611cef565b5f60208284031215611e67575f80fd5b6040516020810181811067ffffffffffffffff82111715611e8a57611e8a611c72565b6040529151825250919050565b80516fffffffffffffffffffffffffffffffff81168114611b75575f80fd5b805164ffffffffff81168114611b75575f80fd5b805161ffff81168114611b75575f80fd5b8051611b7581611a7f565b5f6101e08284031215611ef7575f80fd5b611eff611c86565b611f098484611e57565b8152611f1760208401611e97565b6020820152611f2860408401611e97565b6040820152611f3960608401611e97565b6060820152611f4a60808401611e97565b6080820152611f5b60a08401611e97565b60a0820152611f6c60c08401611eb6565b60c0820152611f7d60e08401611eca565b60e0820152610100611f90818501611edb565b90820152610120611fa2848201611edb565b90820152610140611fb4848201611edb565b90820152610160611fc6848201611edb565b90820152610180611fd8848201611e97565b908201526101a0611fea848201611e97565b908201526101c0611ffc848201611e97565b908201529392505050565b5f60208284031215612017575f80fd5b81518015158114611810575f80fd5b634e487b7160e01b5f52601160045260245ffd5b81810381811115610c3957610c39612026565b600181815b8085111561208757815f190482111561206d5761206d612026565b8085161561207a57918102915b93841c9390800290612052565b509250929050565b5f8261209d57506001610c39565b816120a957505f610c39565b81600181146120bf57600281146120c9576120e5565b6001915050610c39565b60ff8411156120da576120da612026565b50506001821b610c39565b5060208310610133831016604e8410600b8410161715612108575081810a610c39565b612112838361204d565b805f190482111561212557612125612026565b029392505050565b5f611810838361208f565b5f60208284031215612148575f80fd5b815161181081611a7f565b5f5b8381101561216d578181015183820152602001612155565b50505f910152565b5f8251612186818460208701612153565b9190910192915050565b5f602082840312156121a0575f80fd5b815161181081611ce1565b634e487b7160e01b5f52601260045260245ffd5b5f826121d957634e487b7160e01b5f52601260045260245ffd5b500490565b602081525f82518060208401526121fc816040850160208701612153565b601f01601f1916919091016040019291505056fea164736f6c6343000814000a8be0079c531659141344cd1fd0a4f28419497f9722a3daafe3b4186f6b6457e0","linkReferences":{}},"methodIdentifiers":{"ADDRESSES_PROVIDER()":"0542975c","AUGUSTUS_REGISTRY()":"3a829867","MAX_SLIPPAGE_PERCENT()":"32e4b286","ORACLE()":"38013f02","POOL()":"7535d246","executeOperation(address,uint256,uint256,address,bytes)":"1b11d0ff","owner()":"8da5cb5b","renounceOwnership()":"715018a6","rescueTokens(address)":"00ae3bf8","swapAndDeposit(address,address,uint256,uint256,uint256,bytes,address,(uint256,uint256,uint8,bytes32,bytes32))":"d3454a35","transferOwnership(address)":"f2fde38b"},"id":103}