{"abi":[{"type":"function","name":"HALF_PERCENTAGE_FACTOR","inputs":[],"outputs":[{"name":"","type":"uint256","internalType":"uint256"}],"stateMutability":"pure"},{"type":"function","name":"PERCENTAGE_FACTOR","inputs":[],"outputs":[{"name":"","type":"uint256","internalType":"uint256"}],"stateMutability":"pure"},{"type":"function","name":"percentDiv","inputs":[{"name":"value","type":"uint256","internalType":"uint256"},{"name":"percentage","type":"uint256","internalType":"uint256"}],"outputs":[{"name":"","type":"uint256","internalType":"uint256"}],"stateMutability":"pure"},{"type":"function","name":"percentMul","inputs":[{"name":"value","type":"uint256","internalType":"uint256"},{"name":"percentage","type":"uint256","internalType":"uint256"}],"outputs":[{"name":"","type":"uint256","internalType":"uint256"}],"stateMutability":"pure"}],"bytecode":{"object":"0x608060405234801561000f575f80fd5b506101298061001d5f395ff3fe608060405234801561000f575f80fd5b506004361061004a575f3560e01c80633e7df3251461004e57806346c840bb146100645780634bf6a8f014610077578063ee01e5e71461008a575b5f80fd5b6113885b60405190815260200160405180910390f35b6100526100723660046100fc565b610092565b6100526100853660046100fc565b6100a4565b612710610052565b5f61009d83836100af565b9392505050565b5f61009d83836100d8565b5f8115612710600284041904841117156100c7575f80fd5b506127109190910260028204010490565b5f811561138819839004841115176100ee575f80fd5b506127109102611388010490565b5f806040838503121561010d575f80fd5b5050803592602090910135915056fea164736f6c6343000814000a","linkReferences":{}},"methodIdentifiers":{"HALF_PERCENTAGE_FACTOR()":"3e7df325","PERCENTAGE_FACTOR()":"ee01e5e7","percentDiv(uint256,uint256)":"46c840bb","percentMul(uint256,uint256)":"4bf6a8f0"},"id":202}