{"abi":[{"type":"function","name":"getAssetPrice","inputs":[{"name":"asset","type":"address","internalType":"address"}],"outputs":[{"name":"","type":"uint256","internalType":"uint256"}],"stateMutability":"view"},{"type":"function","name":"getEthUsdPrice","inputs":[],"outputs":[{"name":"","type":"uint256","internalType":"uint256"}],"stateMutability":"view"},{"type":"function","name":"setAssetPrice","inputs":[{"name":"asset","type":"address","internalType":"address"},{"name":"price","type":"uint256","internalType":"uint256"}],"outputs":[],"stateMutability":"nonpayable"},{"type":"function","name":"setEthUsdPrice","inputs":[{"name":"price","type":"uint256","internalType":"uint256"}],"outputs":[],"stateMutability":"nonpayable"},{"type":"event","name":"AssetPriceUpdated","inputs":[{"name":"asset","type":"address","indexed":false,"internalType":"address"},{"name":"price","type":"uint256","indexed":false,"internalType":"uint256"},{"name":"timestamp","type":"uint256","indexed":false,"internalType":"uint256"}],"anonymous":false},{"type":"event","name":"EthPriceUpdated","inputs":[{"name":"price","type":"uint256","indexed":false,"internalType":"uint256"},{"name":"timestamp","type":"uint256","indexed":false,"internalType":"uint256"}],"anonymous":false}],"bytecode":{"object":"0x608060405234801561000f575f80fd5b506101d58061001d5f395ff3fe608060405234801561000f575f80fd5b506004361061004a575f3560e01c806351323f721461004e578063a0a8045e14610063578063b3596f0714610079578063b951883a146100a1575b5f80fd5b61006161005c366004610169565b6100b4565b005b6001545b60405190815260200160405180910390f35b610067610087366004610191565b6001600160a01b03165f9081526020819052604090205490565b6100616100af3660046101b1565b61010e565b6001600160a01b0382165f8181526020818152604091829020849055815192835282018390524282820152517fce6e0b57367bae95ca7198e1172f653ea64a645c16ab586b4cefa9237bfc2d929181900360600190a15050565b6001819055604080518281524260208201527fb4f35977939fa8b5ffe552d517a8ff5223046b1fdd3ee0068ae38d1e2b8d0016910160405180910390a150565b80356001600160a01b0381168114610164575f80fd5b919050565b5f806040838503121561017a575f80fd5b6101838361014e565b946020939093013593505050565b5f602082840312156101a1575f80fd5b6101aa8261014e565b9392505050565b5f602082840312156101c1575f80fd5b503591905056fea164736f6c6343000814000a","linkReferences":{}},"methodIdentifiers":{"getAssetPrice(address)":"b3596f07","getEthUsdPrice()":"a0a8045e","setAssetPrice(address,uint256)":"51323f72","setEthUsdPrice(uint256)":"b951883a"},"id":190}