{
  "_format": "hh-sol-artifact-1",
  "contractName": "ReservesSetupHelper",
  "sourceName": "contracts/deployments/ReservesSetupHelper.sol",
  "abi": [
    {
      "anonymous": false,
      "inputs": [
        {
          "indexed": true,
          "internalType": "address",
          "name": "previousOwner",
          "type": "address"
        },
        {
          "indexed": true,
          "internalType": "address",
          "name": "newOwner",
          "type": "address"
        }
      ],
      "name": "OwnershipTransferred",
      "type": "event"
    },
    {
      "inputs": [
        {
          "internalType": "contract PoolConfigurator",
          "name": "configurator",
          "type": "address"
        },
        {
          "components": [
            {
              "internalType": "address",
              "name": "asset",
              "type": "address"
            },
            {
              "internalType": "uint256",
              "name": "baseLTV",
              "type": "uint256"
            },
            {
              "internalType": "uint256",
              "name": "liquidationThreshold",
              "type": "uint256"
            },
            {
              "internalType": "uint256",
              "name": "liquidationBonus",
              "type": "uint256"
            },
            {
              "internalType": "uint256",
              "name": "reserveFactor",
              "type": "uint256"
            },
            {
              "internalType": "uint256",
              "name": "borrowCap",
              "type": "uint256"
            },
            {
              "internalType": "uint256",
              "name": "supplyCap",
              "type": "uint256"
            },
            {
              "internalType": "bool",
              "name": "stableBorrowingEnabled",
              "type": "bool"
            },
            {
              "internalType": "bool",
              "name": "borrowingEnabled",
              "type": "bool"
            }
          ],
          "internalType": "struct ReservesSetupHelper.ConfigureReserveInput[]",
          "name": "inputParams",
          "type": "tuple[]"
        }
      ],
      "name": "configureReserves",
      "outputs": [],
      "stateMutability": "nonpayable",
      "type": "function"
    },
    {
      "inputs": [],
      "name": "owner",
      "outputs": [
        {
          "internalType": "address",
          "name": "",
          "type": "address"
        }
      ],
      "stateMutability": "view",
      "type": "function"
    },
    {
      "inputs": [],
      "name": "renounceOwnership",
      "outputs": [],
      "stateMutability": "nonpayable",
      "type": "function"
    },
    {
      "inputs": [
        {
          "internalType": "address",
          "name": "newOwner",
          "type": "address"
        }
      ],
      "name": "transferOwnership",
      "outputs": [],
      "stateMutability": "nonpayable",
      "type": "function"
    }
  ],
  "bytecode": "0x608060405234801561001057600080fd5b50600080546001600160a01b031916339081178255604051909182917f8be0079c531659141344cd1fd0a4f28419497f9722a3daafe3b4186f6b6457e0908290a350610b48806100616000396000f3fe608060405234801561001057600080fd5b506004361061004c5760003560e01c8063715018a614610051578063778128311461005b5780638da5cb5b1461006e578063f2fde38b1461009a575b600080fd5b6100596100ad565b005b6100596100693660046109b4565b6101a2565b6000546040805173ffffffffffffffffffffffffffffffffffffffff9092168252519081900360200190f35b6100596100a8366004610a3d565b6107de565b60005473ffffffffffffffffffffffffffffffffffffffff163314610133576040517f08c379a000000000000000000000000000000000000000000000000000000000815260206004820181905260248201527f4f776e61626c653a2063616c6c6572206973206e6f7420746865206f776e657260448201526064015b60405180910390fd5b6000805460405173ffffffffffffffffffffffffffffffffffffffff909116907f8be0079c531659141344cd1fd0a4f28419497f9722a3daafe3b4186f6b6457e0908390a3600080547fffffffffffffffffffffffff0000000000000000000000000000000000000000169055565b60005473ffffffffffffffffffffffffffffffffffffffff163314610223576040517f08c379a000000000000000000000000000000000000000000000000000000000815260206004820181905260248201527f4f776e61626c653a2063616c6c6572206973206e6f7420746865206f776e6572604482015260640161012a565b60005b818110156107d8578373ffffffffffffffffffffffffffffffffffffffff16637c4e560b84848481811061025c5761025c610a61565b610273926020610120909202019081019150610a3d565b85858581811061028557610285610a61565b90506101200201602001358686868181106102a2576102a2610a61565b90506101200201604001358787878181106102bf576102bf610a61565b6040517fffffffff0000000000000000000000000000000000000000000000000000000060e089901b16815273ffffffffffffffffffffffffffffffffffffffff9096166004870152602486019490945250604484019190915260606101209092020101356064820152608401600060405180830381600087803b15801561034657600080fd5b505af115801561035a573d6000803e3d6000fd5b5050505082828281811061037057610370610a61565b9050610120020161010001602081019061038a9190610a90565b15610621578373ffffffffffffffffffffffffffffffffffffffff1663682cf2648484848181106103bd576103bd610a61565b6103d4926020610120909202019081019150610a3d565b6040517fffffffff0000000000000000000000000000000000000000000000000000000060e084901b16815273ffffffffffffffffffffffffffffffffffffffff909116600482015260016024820152604401600060405180830381600087803b15801561044157600080fd5b505af1158015610455573d6000803e3d6000fd5b505050508373ffffffffffffffffffffffffffffffffffffffff1663d14a098384848481811061048757610487610a61565b61049e926020610120909202019081019150610a3d565b8585858181106104b0576104b0610a61565b9050610120020160a001356040518363ffffffff1660e01b81526004016104f992919073ffffffffffffffffffffffffffffffffffffffff929092168252602082015260400190565b600060405180830381600087803b15801561051357600080fd5b505af1158015610527573d6000803e3d6000fd5b505050508373ffffffffffffffffffffffffffffffffffffffff16638a751a6084848481811061055957610559610a61565b610570926020610120909202019081019150610a3d565b85858581811061058257610582610a61565b9050610120020160e001602081019061059b9190610a90565b6040517fffffffff0000000000000000000000000000000000000000000000000000000060e085901b16815273ffffffffffffffffffffffffffffffffffffffff909216600483015215156024820152604401600060405180830381600087803b15801561060857600080fd5b505af115801561061c573d6000803e3d6000fd5b505050505b8373ffffffffffffffffffffffffffffffffffffffff1663571f03e584848481811061064f5761064f610a61565b610666926020610120909202019081019150610a3d565b85858581811061067857610678610a61565b9050610120020160c001356040518363ffffffff1660e01b81526004016106c192919073ffffffffffffffffffffffffffffffffffffffff929092168252602082015260400190565b600060405180830381600087803b1580156106db57600080fd5b505af11580156106ef573d6000803e3d6000fd5b505050508373ffffffffffffffffffffffffffffffffffffffff16634b4e675384848481811061072157610721610a61565b610738926020610120909202019081019150610a3d565b85858581811061074a5761074a610a61565b90506101200201608001356040518363ffffffff1660e01b815260040161079392919073ffffffffffffffffffffffffffffffffffffffff929092168252602082015260400190565b600060405180830381600087803b1580156107ad57600080fd5b505af11580156107c1573d6000803e3d6000fd5b5050505080806107d090610ab2565b915050610226565b50505050565b60005473ffffffffffffffffffffffffffffffffffffffff16331461085f576040517f08c379a000000000000000000000000000000000000000000000000000000000815260206004820181905260248201527f4f776e61626c653a2063616c6c6572206973206e6f7420746865206f776e6572604482015260640161012a565b73ffffffffffffffffffffffffffffffffffffffff8116610902576040517f08c379a000000000000000000000000000000000000000000000000000000000815260206004820152602660248201527f4f776e61626c653a206e6577206f776e657220697320746865207a65726f206160448201527f6464726573730000000000000000000000000000000000000000000000000000606482015260840161012a565b6000805460405173ffffffffffffffffffffffffffffffffffffffff808516939216917f8be0079c531659141344cd1fd0a4f28419497f9722a3daafe3b4186f6b6457e091a3600080547fffffffffffffffffffffffff00000000000000000000000000000000000000001673ffffffffffffffffffffffffffffffffffffffff92909216919091179055565b73ffffffffffffffffffffffffffffffffffffffff811681146109b157600080fd5b50565b6000806000604084860312156109c957600080fd5b83356109d48161098f565b9250602084013567ffffffffffffffff808211156109f157600080fd5b818601915086601f830112610a0557600080fd5b813581811115610a1457600080fd5b87602061012083028501011115610a2a57600080fd5b6020830194508093505050509250925092565b600060208284031215610a4f57600080fd5b8135610a5a8161098f565b9392505050565b7f4e487b7100000000000000000000000000000000000000000000000000000000600052603260045260246000fd5b600060208284031215610aa257600080fd5b81358015158114610a5a57600080fd5b60007fffffffffffffffffffffffffffffffffffffffffffffffffffffffffffffffff821415610b0b577f4e487b7100000000000000000000000000000000000000000000000000000000600052601160045260246000fd5b506001019056fea2646970667358221220132be0274f2eea24314b6853c4b1e3d15ea709efef1e486bd955747a455ddde964736f6c634300080a0033",
  "linkReferences": {},
  "deployedLinkReferences": {}
}