{"abi":[{"type":"constructor","inputs":[{"name":"owner","type":"address","internalType":"address"}],"stateMutability":"nonpayable"},{"type":"function","name":"latestRoundData","inputs":[],"outputs":[{"name":"roundId","type":"uint80","internalType":"uint80"},{"name":"answer","type":"int256","internalType":"int256"},{"name":"startedAt","type":"uint256","internalType":"uint256"},{"name":"updatedAt","type":"uint256","internalType":"uint256"},{"name":"answeredInRound","type":"uint80","internalType":"uint80"}],"stateMutability":"view"},{"type":"function","name":"owner","inputs":[],"outputs":[{"name":"","type":"address","internalType":"address"}],"stateMutability":"view"},{"type":"function","name":"renounceOwnership","inputs":[],"outputs":[],"stateMutability":"nonpayable"},{"type":"function","name":"setAnswer","inputs":[{"name":"isDown","type":"bool","internalType":"bool"},{"name":"timestamp","type":"uint256","internalType":"uint256"}],"outputs":[],"stateMutability":"nonpayable"},{"type":"function","name":"transferOwnership","inputs":[{"name":"newOwner","type":"address","internalType":"address"}],"outputs":[],"stateMutability":"nonpayable"},{"type":"event","name":"OwnershipTransferred","inputs":[{"name":"previousOwner","type":"address","indexed":true,"internalType":"address"},{"name":"newOwner","type":"address","indexed":true,"internalType":"address"}],"anonymous":false}],"bytecode":{"object":"0x608060405234801561000f575f80fd5b5060405161052e38038061052e83398101604081905261002e91610173565b5f80546001600160a01b031916339081178255604051909182915f8051602061050e833981519152908290a3506100648161006a565b506101a0565b5f546001600160a01b031633146100c85760405162461bcd60e51b815260206004820181905260248201527f4f776e61626c653a2063616c6c6572206973206e6f7420746865206f776e657260448201526064015b60405180910390fd5b6001600160a01b03811661012d5760405162461bcd60e51b815260206004820152602660248201527f4f776e61626c653a206e6577206f776e657220697320746865207a65726f206160448201526564647265737360d01b60648201526084016100bf565b5f80546040516001600160a01b03808516939216915f8051602061050e83398151915291a35f80546001600160a01b0319166001600160a01b0392909216919091179055565b5f60208284031215610183575f80fd5b81516001600160a01b0381168114610199575f80fd5b9392505050565b610361806101ad5f395ff3fe608060405234801561000f575f80fd5b5060043610610055575f3560e01c8063715018a614610059578063826a98ce146100635780638da5cb5b14610076578063f2fde38b14610095578063feaf968c146100a8575b5f80fd5b6100616100e7565b005b6100616100713660046102c4565b610161565b5f546040516001600160a01b0390911681526020015b60405180910390f35b6100616100a33660046102f2565b6101ab565b6100b0610292565b6040805169ffffffffffffffffffff968716815260208101959095528401929092526060830152909116608082015260a00161008c565b5f546001600160a01b031633146101195760405162461bcd60e51b81526004016101109061031f565b60405180910390fd5b5f80546040516001600160a01b03909116907f8be0079c531659141344cd1fd0a4f28419497f9722a3daafe3b4186f6b6457e0908390a35f80546001600160a01b0319169055565b5f546001600160a01b0316331461018a5760405162461bcd60e51b81526004016101109061031f565b5f8054921515600160a01b0260ff60a01b1990931692909217909155600155565b5f546001600160a01b031633146101d45760405162461bcd60e51b81526004016101109061031f565b6001600160a01b0381166102395760405162461bcd60e51b815260206004820152602660248201527f4f776e61626c653a206e6577206f776e657220697320746865207a65726f206160448201526564647265737360d01b6064820152608401610110565b5f80546040516001600160a01b03808516939216917f8be0079c531659141344cd1fd0a4f28419497f9722a3daafe3b4186f6b6457e091a35f80546001600160a01b0319166001600160a01b0392909216919091179055565b5f805f805f805f60149054906101000a900460ff16156102b0575060015b6001545f9791965094508693508392509050565b5f80604083850312156102d5575f80fd5b823580151581146102e4575f80fd5b946020939093013593505050565b5f60208284031215610302575f80fd5b81356001600160a01b0381168114610318575f80fd5b9392505050565b6020808252818101527f4f776e61626c653a2063616c6c6572206973206e6f7420746865206f776e657260408201526060019056fea164736f6c6343000814000a8be0079c531659141344cd1fd0a4f28419497f9722a3daafe3b4186f6b6457e0","linkReferences":{}},"methodIdentifiers":{"latestRoundData()":"feaf968c","owner()":"8da5cb5b","renounceOwnership()":"715018a6","setAnswer(bool,uint256)":"826a98ce","transferOwnership(address)":"f2fde38b"},"id":191}