{"abi":[{"type":"function","name":"STAKED_TOKEN","inputs":[],"outputs":[{"name":"","type":"address","internalType":"address"}],"stateMutability":"view"},{"type":"function","name":"approve","inputs":[{"name":"spender","type":"address","internalType":"address"},{"name":"amount","type":"uint256","internalType":"uint256"}],"outputs":[{"name":"","type":"bool","internalType":"bool"}],"stateMutability":"nonpayable"},{"type":"function","name":"stake","inputs":[{"name":"a","type":"address","internalType":"address"},{"name":"b","type":"uint256","internalType":"uint256"}],"outputs":[],"stateMutability":"nonpayable"},{"type":"event","name":"TestApproval","inputs":[{"name":"spender","type":"address","indexed":false,"internalType":"address"},{"name":"amount","type":"uint256","indexed":false,"internalType":"uint256"}],"anonymous":false},{"type":"event","name":"TestCheck","inputs":[{"name":"a","type":"address","indexed":false,"internalType":"address"},{"name":"b","type":"uint256","indexed":false,"internalType":"uint256"}],"anonymous":false}],"bytecode":{"object":"0x608060405234801561000f575f80fd5b506101638061001d5f395ff3fe608060405234801561000f575f80fd5b506004361061003f575f3560e01c8063095ea7b314610043578063312f6b831461006b578063adc9772e14610079575b5f80fd5b610056610051366004610121565b61008e565b60405190151581526020015b60405180910390f35b604051308152602001610062565b61008c610087366004610121565b6100db565b005b604080516001600160a01b0384168152602081018390525f917fa4fb1b69399381ec91d2fc55b540b7dc375335dc8a7a6d7ac2d9e909cfeb6832910160405180910390a150600192915050565b604080516001600160a01b0384168152602081018390527f61322315fd06219a09e38f7548f0fada4bec8fccb122b09b426ebb62ef5804c4910160405180910390a15050565b5f8060408385031215610132575f80fd5b82356001600160a01b0381168114610148575f80fd5b94602093909301359350505056fea164736f6c6343000814000a","linkReferences":{}},"methodIdentifiers":{"STAKED_TOKEN()":"312f6b83","approve(address,uint256)":"095ea7b3","stake(address,uint256)":"adc9772e"},"id":351}