{"abi":[{"type":"constructor","inputs":[{"name":"name","type":"string","internalType":"string"},{"name":"symbol","type":"string","internalType":"string"},{"name":"decimals","type":"uint8","internalType":"uint8"},{"name":"owner","type":"address","internalType":"address"}],"stateMutability":"nonpayable"},{"type":"function","name":"DOMAIN_SEPARATOR","inputs":[],"outputs":[{"name":"","type":"bytes32","internalType":"bytes32"}],"stateMutability":"view"},{"type":"function","name":"EIP712_REVISION","inputs":[],"outputs":[{"name":"","type":"bytes","internalType":"bytes"}],"stateMutability":"view"},{"type":"function","name":"PERMIT_TYPEHASH","inputs":[],"outputs":[{"name":"","type":"bytes32","internalType":"bytes32"}],"stateMutability":"view"},{"type":"function","name":"allowance","inputs":[{"name":"owner","type":"address","internalType":"address"},{"name":"spender","type":"address","internalType":"address"}],"outputs":[{"name":"","type":"uint256","internalType":"uint256"}],"stateMutability":"view"},{"type":"function","name":"approve","inputs":[{"name":"spender","type":"address","internalType":"address"},{"name":"amount","type":"uint256","internalType":"uint256"}],"outputs":[{"name":"","type":"bool","internalType":"bool"}],"stateMutability":"nonpayable"},{"type":"function","name":"balanceOf","inputs":[{"name":"account","type":"address","internalType":"address"}],"outputs":[{"name":"","type":"uint256","internalType":"uint256"}],"stateMutability":"view"},{"type":"function","name":"decimals","inputs":[],"outputs":[{"name":"","type":"uint8","internalType":"uint8"}],"stateMutability":"view"},{"type":"function","name":"decreaseAllowance","inputs":[{"name":"spender","type":"address","internalType":"address"},{"name":"subtractedValue","type":"uint256","internalType":"uint256"}],"outputs":[{"name":"","type":"bool","internalType":"bool"}],"stateMutability":"nonpayable"},{"type":"function","name":"increaseAllowance","inputs":[{"name":"spender","type":"address","internalType":"address"},{"name":"addedValue","type":"uint256","internalType":"uint256"}],"outputs":[{"name":"","type":"bool","internalType":"bool"}],"stateMutability":"nonpayable"},{"type":"function","name":"mint","inputs":[{"name":"account","type":"address","internalType":"address"},{"name":"value","type":"uint256","internalType":"uint256"}],"outputs":[{"name":"","type":"bool","internalType":"bool"}],"stateMutability":"nonpayable"},{"type":"function","name":"mint","inputs":[{"name":"value","type":"uint256","internalType":"uint256"}],"outputs":[{"name":"","type":"bool","internalType":"bool"}],"stateMutability":"nonpayable"},{"type":"function","name":"name","inputs":[],"outputs":[{"name":"","type":"string","internalType":"string"}],"stateMutability":"view"},{"type":"function","name":"nonces","inputs":[{"name":"owner","type":"address","internalType":"address"}],"outputs":[{"name":"","type":"uint256","internalType":"uint256"}],"stateMutability":"view"},{"type":"function","name":"owner","inputs":[],"outputs":[{"name":"","type":"address","internalType":"address"}],"stateMutability":"view"},{"type":"function","name":"permit","inputs":[{"name":"owner","type":"address","internalType":"address"},{"name":"spender","type":"address","internalType":"address"},{"name":"value","type":"uint256","internalType":"uint256"},{"name":"deadline","type":"uint256","internalType":"uint256"},{"name":"v","type":"uint8","internalType":"uint8"},{"name":"r","type":"bytes32","internalType":"bytes32"},{"name":"s","type":"bytes32","internalType":"bytes32"}],"outputs":[],"stateMutability":"nonpayable"},{"type":"function","name":"renounceOwnership","inputs":[],"outputs":[],"stateMutability":"nonpayable"},{"type":"function","name":"symbol","inputs":[],"outputs":[{"name":"","type":"string","internalType":"string"}],"stateMutability":"view"},{"type":"function","name":"totalSupply","inputs":[],"outputs":[{"name":"","type":"uint256","internalType":"uint256"}],"stateMutability":"view"},{"type":"function","name":"transfer","inputs":[{"name":"recipient","type":"address","internalType":"address"},{"name":"amount","type":"uint256","internalType":"uint256"}],"outputs":[{"name":"","type":"bool","internalType":"bool"}],"stateMutability":"nonpayable"},{"type":"function","name":"transferFrom","inputs":[{"name":"sender","type":"address","internalType":"address"},{"name":"recipient","type":"address","internalType":"address"},{"name":"amount","type":"uint256","internalType":"uint256"}],"outputs":[{"name":"","type":"bool","internalType":"bool"}],"stateMutability":"nonpayable"},{"type":"function","name":"transferOwnership","inputs":[{"name":"newOwner","type":"address","internalType":"address"}],"outputs":[],"stateMutability":"nonpayable"},{"type":"event","name":"Approval","inputs":[{"name":"owner","type":"address","indexed":true,"internalType":"address"},{"name":"spender","type":"address","indexed":true,"internalType":"address"},{"name":"value","type":"uint256","indexed":false,"internalType":"uint256"}],"anonymous":false},{"type":"event","name":"OwnershipTransferred","inputs":[{"name":"previousOwner","type":"address","indexed":true,"internalType":"address"},{"name":"newOwner","type":"address","indexed":true,"internalType":"address"}],"anonymous":false},{"type":"event","name":"Transfer","inputs":[{"name":"from","type":"address","indexed":true,"internalType":"address"},{"name":"to","type":"address","indexed":true,"internalType":"address"},{"name":"value","type":"uint256","indexed":false,"internalType":"uint256"}],"anonymous":false}],"bytecode":{"object":"0x608060405234801562000010575f80fd5b506040516200151438038062001514833981016040819052620000339162000368565b8383600362000043838262000491565b50600462000052828262000491565b50506005805460ff19166012179055505f6200006b3390565b60058054610100600160a81b0319166101006001600160a01b03841690810291909117909155604051919250905f905f80516020620014f4833981519152908290a350835160208086019190912060408051808201825260018152603160f81b9084015280517f8b73c3c69bb8fe3d512ecc4cf759cc79239f7b179b0ffacaa9a75d522b39400f938101939093528201527fc89efdaa54c0f20c7adf612882df0950f5a951637e0307cdcb4c672f298b8bc6606082015246608082018190523060a08301529060c00160408051808303601f1901815291905280516020909101206007556005805460ff851660ff199091161790556001600160a01b03821662000173575f80fd5b6200017e8262000189565b505050505062000559565b6005546001600160a01b03610100909104163314620001ef5760405162461bcd60e51b815260206004820181905260248201527f4f776e61626c653a2063616c6c6572206973206e6f7420746865206f776e657260448201526064015b60405180910390fd5b6001600160a01b038116620002565760405162461bcd60e51b815260206004820152602660248201527f4f776e61626c653a206e6577206f776e657220697320746865207a65726f206160448201526564647265737360d01b6064820152608401620001e6565b6005546040516001600160a01b0380841692610100900416905f80516020620014f4833981519152905f90a3600580546001600160a01b0390921661010002610100600160a81b0319909216919091179055565b634e487b7160e01b5f52604160045260245ffd5b5f82601f830112620002ce575f80fd5b81516001600160401b0380821115620002eb57620002eb620002aa565b604051601f8301601f19908116603f01168101908282118183101715620003165762000316620002aa565b8160405283815260209250868385880101111562000332575f80fd5b5f91505b8382101562000355578582018301518183018401529082019062000336565b5f93810190920192909252949350505050565b5f805f80608085870312156200037c575f80fd5b84516001600160401b038082111562000393575f80fd5b620003a188838901620002be565b95506020870151915080821115620003b7575f80fd5b50620003c687828801620002be565b935050604085015160ff81168114620003dd575f80fd5b60608601519092506001600160a01b0381168114620003fa575f80fd5b939692955090935050565b600181811c908216806200041a57607f821691505b6020821081036200043957634e487b7160e01b5f52602260045260245ffd5b50919050565b601f8211156200048c575f81815260208120601f850160051c81016020861015620004675750805b601f850160051c820191505b81811015620004885782815560010162000473565b5050505b505050565b81516001600160401b03811115620004ad57620004ad620002aa565b620004c581620004be845462000405565b846200043f565b602080601f831160018114620004fb575f8415620004e35750858301515b5f19600386901b1c1916600185901b17855562000488565b5f85815260208120601f198616915b828110156200052b578886015182559484019460019091019084016200050a565b50858210156200054957878501515f19600388901b60f8161c191681555b5050505050600190811b01905550565b610f8d80620005675f395ff3fe608060405234801561000f575f80fd5b5060043610610132575f3560e01c8063715018a6116100b4578063a0712d6811610079578063a0712d68146102b2578063a457c2d7146102c5578063a9059cbb146102d8578063d505accf146102eb578063dd62ed3e146102fe578063f2fde38b14610336575f80fd5b8063715018a61461022f57806378160376146102395780637ecebe00146102595780638da5cb5b1461028157806395d89b41146102aa575f80fd5b8063313ce567116100fa578063313ce567146101c35780633644e515146101d857806339509351146101e157806340c10f19146101f457806370a0823114610207575f80fd5b806306fdde0314610136578063095ea7b31461015457806318160ddd1461017757806323b872dd1461018957806330adf81f1461019c575b5f80fd5b61013e610349565b60405161014b9190610d23565b60405180910390f35b610167610162366004610d52565b6103d9565b604051901515815260200161014b565b6002545b60405190815260200161014b565b610167610197366004610d7a565b6103ef565b61017b7f6e71edae12b1b97f4d1f60370fef10105fa2faae0126114a169c64845d6126c981565b60055460405160ff909116815260200161014b565b61017b60075481565b6101676101ef366004610d52565b610456565b610167610202366004610d52565b61048b565b61017b610215366004610db3565b6001600160a01b03165f9081526020819052604090205490565b6102376104d0565b005b61013e604051806040016040528060018152602001603160f81b81525081565b61017b610267366004610db3565b6001600160a01b03165f9081526006602052604090205490565b60055461010090046001600160a01b03166040516001600160a01b03909116815260200161014b565b61013e61054f565b6101676102c0366004610dcc565b61055e565b6101676102d3366004610d52565b6105a3565b6101676102e6366004610d52565b6105f0565b6102376102f9366004610de3565b6105fc565b61017b61030c366004610e50565b6001600160a01b039182165f90815260016020908152604080832093909416825291909152205490565b610237610344366004610db3565b610829565b60606003805461035890610e81565b80601f016020809104026020016040519081016040528092919081815260200182805461038490610e81565b80156103cf5780601f106103a6576101008083540402835291602001916103cf565b820191905f5260205f20905b8154815290600101906020018083116103b257829003601f168201915b5050505050905090565b5f6103e5338484610924565b5060015b92915050565b5f6103fb848484610a48565b61044c843361044785604051806060016040528060288152602001610f34602891396001600160a01b038a165f9081526001602090815260408083203384529091529020549190610bc8565b610924565b5060019392505050565b335f8181526001602090815260408083206001600160a01b038716845290915281205490916103e59185906104479086610bf5565b6005545f906001600160a01b036101009091041633146104c65760405162461bcd60e51b81526004016104bd90610eb9565b60405180910390fd5b6103e58383610c04565b6005546001600160a01b036101009091041633146105005760405162461bcd60e51b81526004016104bd90610eb9565b6005546040515f9161010090046001600160a01b0316907f8be0079c531659141344cd1fd0a4f28419497f9722a3daafe3b4186f6b6457e0908390a360058054610100600160a81b0319169055565b60606004805461035890610e81565b6005545f906001600160a01b036101009091041633146105905760405162461bcd60e51b81526004016104bd90610eb9565b61059a3383610c04565b5060015b919050565b5f6103e5338461044785604051806060016040528060258152602001610f5c60259139335f9081526001602090815260408083206001600160a01b038d1684529091529020549190610bc8565b5f6103e5338484610a48565b6001600160a01b0387166106425760405162461bcd60e51b815260206004820152600d60248201526c24a72b20a624a22fa7aba722a960991b60448201526064016104bd565b834211156106875760405162461bcd60e51b815260206004820152601260248201527124a72b20a624a22fa2ac2824a920aa24a7a760711b60448201526064016104bd565b6001600160a01b038781165f8181526006602090815260408083205460075482517f6e71edae12b1b97f4d1f60370fef10105fa2faae0126114a169c64845d6126c98186015280840196909652958c166060860152608085018b905260a0850181905260c08086018b90528251808703909101815260e086019092528151919092012061190160f01b610100850152610102840194909452610122830193909352906101420160408051601f1981840301815282825280516020918201205f845290830180835281905260ff8816918301919091526060820186905260808201859052915060019060a0016020604051602081039080840390855afa158015610792573d5f803e3d5ffd5b505050602060405103516001600160a01b0316896001600160a01b0316146107f05760405162461bcd60e51b8152602060048201526011602482015270494e56414c49445f5349474e415455524560781b60448201526064016104bd565b6107fb826001610eee565b6001600160a01b038a165f9081526006602052604090205561081e898989610924565b505050505050505050565b6005546001600160a01b036101009091041633146108595760405162461bcd60e51b81526004016104bd90610eb9565b6001600160a01b0381166108be5760405162461bcd60e51b815260206004820152602660248201527f4f776e61626c653a206e6577206f776e657220697320746865207a65726f206160448201526564647265737360d01b60648201526084016104bd565b6005546040516001600160a01b0380841692610100900416907f8be0079c531659141344cd1fd0a4f28419497f9722a3daafe3b4186f6b6457e0905f90a3600580546001600160a01b0390921661010002610100600160a81b0319909216919091179055565b6001600160a01b0383166109865760405162461bcd60e51b8152602060048201526024808201527f45524332303a20617070726f76652066726f6d20746865207a65726f206164646044820152637265737360e01b60648201526084016104bd565b6001600160a01b0382166109e75760405162461bcd60e51b815260206004820152602260248201527f45524332303a20617070726f766520746f20746865207a65726f206164647265604482015261737360f01b60648201526084016104bd565b6001600160a01b038381165f8181526001602090815260408083209487168084529482529182902085905590518481527f8c5be1e5ebec7d5bd14f71427d1e84f3dd0314c0f7b2291e5b200ac8c7c3b92591015b60405180910390a3505050565b6001600160a01b038316610aac5760405162461bcd60e51b815260206004820152602560248201527f45524332303a207472616e736665722066726f6d20746865207a65726f206164604482015264647265737360d81b60648201526084016104bd565b6001600160a01b038216610b0e5760405162461bcd60e51b815260206004820152602360248201527f45524332303a207472616e7366657220746f20746865207a65726f206164647260448201526265737360e81b60648201526084016104bd565b610b4a81604051806060016040528060268152602001610f0e602691396001600160a01b0386165f908152602081905260409020549190610bc8565b6001600160a01b038085165f908152602081905260408082209390935590841681522054610b789082610bf5565b6001600160a01b038381165f818152602081815260409182902094909455518481529092918616917fddf252ad1be2c89b69c2b068fc378daa952ba7f163c4a11628f55a4df523b3ef9101610a3b565b8183038184821115610bed5760405162461bcd60e51b81526004016104bd9190610d23565b509392505050565b808201828110156103e9575f80fd5b6001600160a01b038216610c5a5760405162461bcd60e51b815260206004820152601f60248201527f45524332303a206d696e7420746f20746865207a65726f20616464726573730060448201526064016104bd565b600254610c679082610bf5565b6002556001600160a01b0382165f90815260208190526040902054610c8c9082610bf5565b6001600160a01b0383165f81815260208181526040808320949094559251848152919290917fddf252ad1be2c89b69c2b068fc378daa952ba7f163c4a11628f55a4df523b3ef910160405180910390a35050565b5f81518084525f5b81811015610d0457602081850181015186830182015201610ce8565b505f602082860101526020601f19601f83011685010191505092915050565b602081525f610d356020830184610ce0565b9392505050565b80356001600160a01b038116811461059e575f80fd5b5f8060408385031215610d63575f80fd5b610d6c83610d3c565b946020939093013593505050565b5f805f60608486031215610d8c575f80fd5b610d9584610d3c565b9250610da360208501610d3c565b9150604084013590509250925092565b5f60208284031215610dc3575f80fd5b610d3582610d3c565b5f60208284031215610ddc575f80fd5b5035919050565b5f805f805f805f60e0888a031215610df9575f80fd5b610e0288610d3c565b9650610e1060208901610d3c565b95506040880135945060608801359350608088013560ff81168114610e33575f80fd5b9699959850939692959460a0840135945060c09093013592915050565b5f8060408385031215610e61575f80fd5b610e6a83610d3c565b9150610e7860208401610d3c565b90509250929050565b600181811c90821680610e9557607f821691505b602082108103610eb357634e487b7160e01b5f52602260045260245ffd5b50919050565b6020808252818101527f4f776e61626c653a2063616c6c6572206973206e6f7420746865206f776e6572604082015260600190565b808201808211156103e957634e487b7160e01b5f52601160045260245ffdfe45524332303a207472616e7366657220616d6f756e7420657863656564732062616c616e636545524332303a207472616e7366657220616d6f756e74206578636565647320616c6c6f77616e636545524332303a2064656372656173656420616c6c6f77616e63652062656c6f77207a65726fa164736f6c6343000814000a8be0079c531659141344cd1fd0a4f28419497f9722a3daafe3b4186f6b6457e0","linkReferences":{}},"methodIdentifiers":{"DOMAIN_SEPARATOR()":"3644e515","EIP712_REVISION()":"78160376","PERMIT_TYPEHASH()":"30adf81f","allowance(address,address)":"dd62ed3e","approve(address,uint256)":"095ea7b3","balanceOf(address)":"70a08231","decimals()":"313ce567","decreaseAllowance(address,uint256)":"a457c2d7","increaseAllowance(address,uint256)":"39509351","mint(address,uint256)":"40c10f19","mint(uint256)":"a0712d68","name()":"06fdde03","nonces(address)":"7ecebe00","owner()":"8da5cb5b","permit(address,address,uint256,uint256,uint8,bytes32,bytes32)":"d505accf","renounceOwnership()":"715018a6","symbol()":"95d89b41","totalSupply()":"18160ddd","transfer(address,uint256)":"a9059cbb","transferFrom(address,address,uint256)":"23b872dd","transferOwnership(address)":"f2fde38b"},"id":198}