{"abi":[{"type":"function","name":"getFullReservesIncentiveData","inputs":[{"name":"provider","type":"address","internalType":"contract IPoolAddressesProvider"},{"name":"user","type":"address","internalType":"address"}],"outputs":[{"name":"","type":"tuple[]","internalType":"struct IUiIncentiveDataProviderV3.AggregatedReserveIncentiveData[]","components":[{"name":"underlyingAsset","type":"address","internalType":"address"},{"name":"aIncentiveData","type":"tuple","internalType":"struct IUiIncentiveDataProviderV3.IncentiveData","components":[{"name":"tokenAddress","type":"address","internalType":"address"},{"name":"incentiveControllerAddress","type":"address","internalType":"address"},{"name":"rewardsTokenInformation","type":"tuple[]","internalType":"struct IUiIncentiveDataProviderV3.RewardInfo[]","components":[{"name":"rewardTokenSymbol","type":"string","internalType":"string"},{"name":"rewardTokenAddress","type":"address","internalType":"address"},{"name":"rewardOracleAddress","type":"address","internalType":"address"},{"name":"emissionPerSecond","type":"uint256","internalType":"uint256"},{"name":"incentivesLastUpdateTimestamp","type":"uint256","internalType":"uint256"},{"name":"tokenIncentivesIndex","type":"uint256","internalType":"uint256"},{"name":"emissionEndTimestamp","type":"uint256","internalType":"uint256"},{"name":"rewardPriceFeed","type":"int256","internalType":"int256"},{"name":"rewardTokenDecimals","type":"uint8","internalType":"uint8"},{"name":"precision","type":"uint8","internalType":"uint8"},{"name":"priceFeedDecimals","type":"uint8","internalType":"uint8"}]}]},{"name":"vIncentiveData","type":"tuple","internalType":"struct IUiIncentiveDataProviderV3.IncentiveData","components":[{"name":"tokenAddress","type":"address","internalType":"address"},{"name":"incentiveControllerAddress","type":"address","internalType":"address"},{"name":"rewardsTokenInformation","type":"tuple[]","internalType":"struct IUiIncentiveDataProviderV3.RewardInfo[]","components":[{"name":"rewardTokenSymbol","type":"string","internalType":"string"},{"name":"rewardTokenAddress","type":"address","internalType":"address"},{"name":"rewardOracleAddress","type":"address","internalType":"address"},{"name":"emissionPerSecond","type":"uint256","internalType":"uint256"},{"name":"incentivesLastUpdateTimestamp","type":"uint256","internalType":"uint256"},{"name":"tokenIncentivesIndex","type":"uint256","internalType":"uint256"},{"name":"emissionEndTimestamp","type":"uint256","internalType":"uint256"},{"name":"rewardPriceFeed","type":"int256","internalType":"int256"},{"name":"rewardTokenDecimals","type":"uint8","internalType":"uint8"},{"name":"precision","type":"uint8","internalType":"uint8"},{"name":"priceFeedDecimals","type":"uint8","internalType":"uint8"}]}]}]},{"name":"","type":"tuple[]","internalType":"struct IUiIncentiveDataProviderV3.UserReserveIncentiveData[]","components":[{"name":"underlyingAsset","type":"address","internalType":"address"},{"name":"aTokenIncentivesUserData","type":"tuple","internalType":"struct IUiIncentiveDataProviderV3.UserIncentiveData","components":[{"name":"tokenAddress","type":"address","internalType":"address"},{"name":"incentiveControllerAddress","type":"address","internalType":"address"},{"name":"userRewardsInformation","type":"tuple[]","internalType":"struct IUiIncentiveDataProviderV3.UserRewardInfo[]","components":[{"name":"rewardTokenSymbol","type":"string","internalType":"string"},{"name":"rewardOracleAddress","type":"address","internalType":"address"},{"name":"rewardTokenAddress","type":"address","internalType":"address"},{"name":"userUnclaimedRewards","type":"uint256","internalType":"uint256"},{"name":"tokenIncentivesUserIndex","type":"uint256","internalType":"uint256"},{"name":"rewardPriceFeed","type":"int256","internalType":"int256"},{"name":"priceFeedDecimals","type":"uint8","internalType":"uint8"},{"name":"rewardTokenDecimals","type":"uint8","internalType":"uint8"}]}]},{"name":"vTokenIncentivesUserData","type":"tuple","internalType":"struct IUiIncentiveDataProviderV3.UserIncentiveData","components":[{"name":"tokenAddress","type":"address","internalType":"address"},{"name":"incentiveControllerAddress","type":"address","internalType":"address"},{"name":"userRewardsInformation","type":"tuple[]","internalType":"struct IUiIncentiveDataProviderV3.UserRewardInfo[]","components":[{"name":"rewardTokenSymbol","type":"string","internalType":"string"},{"name":"rewardOracleAddress","type":"address","internalType":"address"},{"name":"rewardTokenAddress","type":"address","internalType":"address"},{"name":"userUnclaimedRewards","type":"uint256","internalType":"uint256"},{"name":"tokenIncentivesUserIndex","type":"uint256","internalType":"uint256"},{"name":"rewardPriceFeed","type":"int256","internalType":"int256"},{"name":"priceFeedDecimals","type":"uint8","internalType":"uint8"},{"name":"rewardTokenDecimals","type":"uint8","internalType":"uint8"}]}]}]}],"stateMutability":"view"},{"type":"function","name":"getReservesIncentivesData","inputs":[{"name":"provider","type":"address","internalType":"contract IPoolAddressesProvider"}],"outputs":[{"name":"","type":"tuple[]","internalType":"struct IUiIncentiveDataProviderV3.AggregatedReserveIncentiveData[]","components":[{"name":"underlyingAsset","type":"address","internalType":"address"},{"name":"aIncentiveData","type":"tuple","internalType":"struct IUiIncentiveDataProviderV3.IncentiveData","components":[{"name":"tokenAddress","type":"address","internalType":"address"},{"name":"incentiveControllerAddress","type":"address","internalType":"address"},{"name":"rewardsTokenInformation","type":"tuple[]","internalType":"struct IUiIncentiveDataProviderV3.RewardInfo[]","components":[{"name":"rewardTokenSymbol","type":"string","internalType":"string"},{"name":"rewardTokenAddress","type":"address","internalType":"address"},{"name":"rewardOracleAddress","type":"address","internalType":"address"},{"name":"emissionPerSecond","type":"uint256","internalType":"uint256"},{"name":"incentivesLastUpdateTimestamp","type":"uint256","internalType":"uint256"},{"name":"tokenIncentivesIndex","type":"uint256","internalType":"uint256"},{"name":"emissionEndTimestamp","type":"uint256","internalType":"uint256"},{"name":"rewardPriceFeed","type":"int256","internalType":"int256"},{"name":"rewardTokenDecimals","type":"uint8","internalType":"uint8"},{"name":"precision","type":"uint8","internalType":"uint8"},{"name":"priceFeedDecimals","type":"uint8","internalType":"uint8"}]}]},{"name":"vIncentiveData","type":"tuple","internalType":"struct IUiIncentiveDataProviderV3.IncentiveData","components":[{"name":"tokenAddress","type":"address","internalType":"address"},{"name":"incentiveControllerAddress","type":"address","internalType":"address"},{"name":"rewardsTokenInformation","type":"tuple[]","internalType":"struct IUiIncentiveDataProviderV3.RewardInfo[]","components":[{"name":"rewardTokenSymbol","type":"string","internalType":"string"},{"name":"rewardTokenAddress","type":"address","internalType":"address"},{"name":"rewardOracleAddress","type":"address","internalType":"address"},{"name":"emissionPerSecond","type":"uint256","internalType":"uint256"},{"name":"incentivesLastUpdateTimestamp","type":"uint256","internalType":"uint256"},{"name":"tokenIncentivesIndex","type":"uint256","internalType":"uint256"},{"name":"emissionEndTimestamp","type":"uint256","internalType":"uint256"},{"name":"rewardPriceFeed","type":"int256","internalType":"int256"},{"name":"rewardTokenDecimals","type":"uint8","internalType":"uint8"},{"name":"precision","type":"uint8","internalType":"uint8"},{"name":"priceFeedDecimals","type":"uint8","internalType":"uint8"}]}]}]}],"stateMutability":"view"},{"type":"function","name":"getUserReservesIncentivesData","inputs":[{"name":"provider","type":"address","internalType":"contract IPoolAddressesProvider"},{"name":"user","type":"address","internalType":"address"}],"outputs":[{"name":"","type":"tuple[]","internalType":"struct IUiIncentiveDataProviderV3.UserReserveIncentiveData[]","components":[{"name":"underlyingAsset","type":"address","internalType":"address"},{"name":"aTokenIncentivesUserData","type":"tuple","internalType":"struct IUiIncentiveDataProviderV3.UserIncentiveData","components":[{"name":"tokenAddress","type":"address","internalType":"address"},{"name":"incentiveControllerAddress","type":"address","internalType":"address"},{"name":"userRewardsInformation","type":"tuple[]","internalType":"struct IUiIncentiveDataProviderV3.UserRewardInfo[]","components":[{"name":"rewardTokenSymbol","type":"string","internalType":"string"},{"name":"rewardOracleAddress","type":"address","internalType":"address"},{"name":"rewardTokenAddress","type":"address","internalType":"address"},{"name":"userUnclaimedRewards","type":"uint256","internalType":"uint256"},{"name":"tokenIncentivesUserIndex","type":"uint256","internalType":"uint256"},{"name":"rewardPriceFeed","type":"int256","internalType":"int256"},{"name":"priceFeedDecimals","type":"uint8","internalType":"uint8"},{"name":"rewardTokenDecimals","type":"uint8","internalType":"uint8"}]}]},{"name":"vTokenIncentivesUserData","type":"tuple","internalType":"struct IUiIncentiveDataProviderV3.UserIncentiveData","components":[{"name":"tokenAddress","type":"address","internalType":"address"},{"name":"incentiveControllerAddress","type":"address","internalType":"address"},{"name":"userRewardsInformation","type":"tuple[]","internalType":"struct IUiIncentiveDataProviderV3.UserRewardInfo[]","components":[{"name":"rewardTokenSymbol","type":"string","internalType":"string"},{"name":"rewardOracleAddress","type":"address","internalType":"address"},{"name":"rewardTokenAddress","type":"address","internalType":"address"},{"name":"userUnclaimedRewards","type":"uint256","internalType":"uint256"},{"name":"tokenIncentivesUserIndex","type":"uint256","internalType":"uint256"},{"name":"rewardPriceFeed","type":"int256","internalType":"int256"},{"name":"priceFeedDecimals","type":"uint8","internalType":"uint8"},{"name":"rewardTokenDecimals","type":"uint8","internalType":"uint8"}]}]}]}],"stateMutability":"view"}],"bytecode":{"object":"0x608060405234801561000f575f80fd5b506123a58061001d5f395ff3fe608060405234801561000f575f80fd5b506004361061003f575f3560e01c80634763753614610043578063799bdcf51461006d578063976fafc51461008d575b5f80fd5b610056610051366004611b83565b6100ad565b604051610064929190611f18565b60405180910390f35b61008061007b366004611b83565b6100ce565b6040516100649190611f45565b6100a061009b366004611f57565b6100e1565b6040516100649190611f72565b6060806100b9846100f2565b6100c38585610d6d565b915091509250929050565b60606100da8383610d6d565b9392505050565b60606100ec826100f2565b92915050565b60605f826001600160a01b031663026b1d5f6040518163ffffffff1660e01b8152600401602060405180830381865afa158015610131573d5f803e3d5ffd5b505050506040513d601f19601f820116820180604052508101906101559190611f94565b90505f816001600160a01b031663d1946dbc6040518163ffffffff1660e01b81526004015f60405180830381865afa158015610193573d5f803e3d5ffd5b505050506040513d5f823e601f3d908101601f191682016040526101ba919081019061201e565b90505f815167ffffffffffffffff8111156101d7576101d7611faf565b60405190808252806020026020018201604052801561021057816020015b6101fd611a45565b8152602001906001900390816101f55790505b5090505f5b8251811015610d64575f828281518110610231576102316120cb565b6020026020010151905083828151811061024d5761024d6120cb565b6020026020010151815f01906001600160a01b031690816001600160a01b0316815250505f856001600160a01b03166335ea6a75868581518110610293576102936120cb565b60200260200101516040518263ffffffff1660e01b81526004016102c691906001600160a01b0391909116815260200190565b6101e060405180830381865afa1580156102e2573d5f803e3d5ffd5b505050506040513d601f19601f820116820180604052508101906103069190612163565b90505f8161010001516001600160a01b03166375d264136040518163ffffffff1660e01b8152600401602060405180830381865afa15801561034a573d5f803e3d5ffd5b505050506040513d601f19601f8201168201806040525081019061036e9190611f94565b905060606001600160a01b038216156107f557610100830151604051636657732f60e01b81526001600160a01b0391821660048201525f91841690636657732f906024015f60405180830381865afa1580156103cc573d5f803e3d5ffd5b505050506040513d5f823e601f3d908101601f191682016040526103f3919081019061201e565b9050805167ffffffffffffffff81111561040f5761040f611faf565b60405190808252806020026020018201604052801561044857816020015b610435611aab565b81526020019060019003908161042d5790505b5091505f5b81518110156107f25761045e611aab565b828281518110610470576104706120cb565b6020908102919091018101516001600160a01b03908116918301829052610100880151604051630fdfe97560e31b815290821660048201526024810192909252861690637eff4ba890604401608060405180830381865afa1580156104d7573d5f803e3d5ffd5b505050506040513d601f19601f820116820180604052508101906104fb9190612284565b60c08501526080840152606083015260a0820152610100860151604051634f7eb7b960e11b81526001600160a01b03918216600482015290861690639efd6f7290602401602060405180830381865afa15801561055a573d5f803e3d5ffd5b505050506040513d601f19601f8201168201806040525081019061057e91906122b7565b60ff166101208201526020808201516040805163313ce56760e01b815290516001600160a01b039092169263313ce567926004808401938290030181865afa1580156105cc573d5f803e3d5ffd5b505050506040513d601f19601f820116820180604052508101906105f091906122b7565b81610100019060ff16908160ff168152505080602001516001600160a01b03166395d89b416040518163ffffffff1660e01b81526004015f60405180830381865afa158015610641573d5f803e3d5ffd5b505050506040513d5f823e601f3d908101601f1916820160405261066891908101906122d7565b81526020810151604051630150bdfb60e51b81526001600160a01b03918216600482015290861690632a17bf6090602401602060405180830381865afa1580156106b4573d5f803e3d5ffd5b505050506040513d601f19601f820116820180604052508101906106d89190611f94565b6001600160a01b03166040808301829052805163313ce56760e01b8152905163313ce567916004808201926020929091908290030181865afa158015610720573d5f803e3d5ffd5b505050506040513d601f19601f8201168201806040525081019061074491906122b7565b81610140019060ff16908160ff168152505080604001516001600160a01b03166350d25bcd6040518163ffffffff1660e01b8152600401602060405180830381865afa158015610796573d5f803e3d5ffd5b505050506040513d601f19601f820116820180604052508101906107ba919061235d565b60e0820152835181908590849081106107d5576107d56120cb565b602002602001018190525050806107eb90612374565b905061044d565b50505b60405180606001604052808461010001516001600160a01b03168152602001836001600160a01b031681526020018281525084602001819052505f8361014001516001600160a01b03166375d264136040518163ffffffff1660e01b8152600401602060405180830381865afa158015610871573d5f803e3d5ffd5b505050506040513d601f19601f820116820180604052508101906108959190611f94565b905060606001600160a01b03821615610d1c57610140850151604051636657732f60e01b81526001600160a01b0391821660048201525f91841690636657732f906024015f60405180830381865afa1580156108f3573d5f803e3d5ffd5b505050506040513d5f823e601f3d908101601f1916820160405261091a919081019061201e565b9050805167ffffffffffffffff81111561093657610936611faf565b60405190808252806020026020018201604052801561096f57816020015b61095c611aab565b8152602001906001900390816109545790505b5091505f5b8151811015610d1957610985611aab565b828281518110610997576109976120cb565b6020908102919091018101516001600160a01b039081169183018290526101408a0151604051630fdfe97560e31b815290821660048201526024810192909252861690637eff4ba890604401608060405180830381865afa1580156109fe573d5f803e3d5ffd5b505050506040513d601f19601f82011682018060405250810190610a229190612284565b60c08501526080840152606083015260a0820152610140880151604051634f7eb7b960e11b81526001600160a01b03918216600482015290861690639efd6f7290602401602060405180830381865afa158015610a81573d5f803e3d5ffd5b505050506040513d601f19601f82011682018060405250810190610aa591906122b7565b60ff166101208201526020808201516040805163313ce56760e01b815290516001600160a01b039092169263313ce567926004808401938290030181865afa158015610af3573d5f803e3d5ffd5b505050506040513d601f19601f82011682018060405250810190610b1791906122b7565b81610100019060ff16908160ff168152505080602001516001600160a01b03166395d89b416040518163ffffffff1660e01b81526004015f60405180830381865afa158015610b68573d5f803e3d5ffd5b505050506040513d5f823e601f3d908101601f19168201604052610b8f91908101906122d7565b81526020810151604051630150bdfb60e51b81526001600160a01b03918216600482015290861690632a17bf6090602401602060405180830381865afa158015610bdb573d5f803e3d5ffd5b505050506040513d601f19601f82011682018060405250810190610bff9190611f94565b6001600160a01b03166040808301829052805163313ce56760e01b8152905163313ce567916004808201926020929091908290030181865afa158015610c47573d5f803e3d5ffd5b505050506040513d601f19601f82011682018060405250810190610c6b91906122b7565b81610140019060ff16908160ff168152505080604001516001600160a01b03166350d25bcd6040518163ffffffff1660e01b8152600401602060405180830381865afa158015610cbd573d5f803e3d5ffd5b505050506040513d601f19601f82011682018060405250810190610ce1919061235d565b60e082015283518190859084908110610cfc57610cfc6120cb565b60200260200101819052505080610d1290612374565b9050610974565b50505b60408051606081018252610140909601516001600160a01b03908116875292909216602086015284820152939093019190915250819050610d5c81612374565b915050610215565b50949350505050565b60605f836001600160a01b031663026b1d5f6040518163ffffffff1660e01b8152600401602060405180830381865afa158015610dac573d5f803e3d5ffd5b505050506040513d601f19601f82011682018060405250810190610dd09190611f94565b90505f816001600160a01b031663d1946dbc6040518163ffffffff1660e01b81526004015f60405180830381865afa158015610e0e573d5f803e3d5ffd5b505050506040513d5f823e601f3d908101601f19168201604052610e35919081019061201e565b90505f6001600160a01b038516610e4c575f610e4f565b81515b67ffffffffffffffff811115610e6757610e67611faf565b604051908082528060200260200182016040528015610ea057816020015b610e8d611a45565b815260200190600190039081610e855790505b5090505f5b8251811015611a3b575f846001600160a01b03166335ea6a75858481518110610ed057610ed06120cb565b60200260200101516040518263ffffffff1660e01b8152600401610f0391906001600160a01b0391909116815260200190565b6101e060405180830381865afa158015610f1f573d5f803e3d5ffd5b505050506040513d601f19601f82011682018060405250810190610f439190612163565b9050838281518110610f5757610f576120cb565b6020026020010151838381518110610f7157610f716120cb565b60200260200101515f01906001600160a01b031690816001600160a01b0316815250505f8161010001516001600160a01b03166375d264136040518163ffffffff1660e01b8152600401602060405180830381865afa158015610fd6573d5f803e3d5ffd5b505050506040513d601f19601f82011682018060405250810190610ffa9190611f94565b90506001600160a01b038116156114c957610100820151604051636657732f60e01b81526001600160a01b0391821660048201525f91831690636657732f906024015f60405180830381865afa158015611056573d5f803e3d5ffd5b505050506040513d5f823e601f3d908101601f1916820160405261107d919081019061201e565b90505f815167ffffffffffffffff81111561109a5761109a611faf565b6040519080825280602002602001820160405280156110d357816020015b6110c0611b16565b8152602001906001900390816110b85790505b5090505f5b8251811015611472576110e9611b16565b8382815181106110fb576110fb6120cb565b60209081029190910101516001600160a01b039081166040808401829052610100890151905163299faa1560e11b81528f84166004820152908316602482015260448101919091529086169063533f542a90606401602060405180830381865afa15801561116b573d5f803e3d5ffd5b505050506040513d601f19601f8201168201806040525081019061118f919061235d565b60808201526040808201519051632c08906360e21b81526001600160a01b038e8116600483015291821660248201529086169063b022418c90604401602060405180830381865afa1580156111e6573d5f803e3d5ffd5b505050506040513d601f19601f8201168201806040525081019061120a919061235d565b81606001818152505080604001516001600160a01b031663313ce5676040518163ffffffff1660e01b8152600401602060405180830381865afa158015611253573d5f803e3d5ffd5b505050506040513d601f19601f8201168201806040525081019061127791906122b7565b8160e0019060ff16908160ff168152505080604001516001600160a01b03166395d89b416040518163ffffffff1660e01b81526004015f60405180830381865afa1580156112c7573d5f803e3d5ffd5b505050506040513d5f823e601f3d908101601f191682016040526112ee91908101906122d7565b81526040808201519051630150bdfb60e51b81526001600160a01b03918216600482015290861690632a17bf6090602401602060405180830381865afa15801561133a573d5f803e3d5ffd5b505050506040513d601f19601f8201168201806040525081019061135e9190611f94565b6001600160a01b031660208083018290526040805163313ce56760e01b8152905163313ce567926004808401939192918290030181865afa1580156113a5573d5f803e3d5ffd5b505050506040513d601f19601f820116820180604052508101906113c991906122b7565b60ff1660c0820152602080820151604080516350d25bcd60e01b815290516001600160a01b03909216926350d25bcd926004808401938290030181865afa158015611416573d5f803e3d5ffd5b505050506040513d601f19601f8201168201806040525081019061143a919061235d565b60a082015282518190849084908110611455576114556120cb565b6020026020010181905250508061146b90612374565b90506110d8565b5060405180606001604052808561010001516001600160a01b03168152602001846001600160a01b03168152602001828152508686815181106114b7576114b76120cb565b60200260200101516020018190525050505b5f8261014001516001600160a01b03166375d264136040518163ffffffff1660e01b8152600401602060405180830381865afa15801561150b573d5f803e3d5ffd5b505050506040513d601f19601f8201168201806040525081019061152f9190611f94565b90506001600160a01b03811615611a2557610140830151604051636657732f60e01b81526001600160a01b0391821660048201525f91831690636657732f906024015f60405180830381865afa15801561158b573d5f803e3d5ffd5b505050506040513d5f823e601f3d908101601f191682016040526115b2919081019061201e565b90505f815167ffffffffffffffff8111156115cf576115cf611faf565b60405190808252806020026020018201604052801561160857816020015b6115f5611b16565b8152602001906001900390816115ed5790505b5090505f5b82518110156119ce5761161e611b16565b838281518110611630576116306120cb565b602002602001015181604001906001600160a01b031690816001600160a01b031681525050846001600160a01b031663533f542a8e89610140015184604001516040518463ffffffff1660e01b81526004016116ac939291906001600160a01b0393841681529183166020830152909116604082015260600190565b602060405180830381865afa1580156116c7573d5f803e3d5ffd5b505050506040513d601f19601f820116820180604052508101906116eb919061235d565b60808201526040808201519051632c08906360e21b81526001600160a01b038f8116600483015291821660248201529086169063b022418c90604401602060405180830381865afa158015611742573d5f803e3d5ffd5b505050506040513d601f19601f82011682018060405250810190611766919061235d565b81606001818152505080604001516001600160a01b031663313ce5676040518163ffffffff1660e01b8152600401602060405180830381865afa1580156117af573d5f803e3d5ffd5b505050506040513d601f19601f820116820180604052508101906117d391906122b7565b8160e0019060ff16908160ff168152505080604001516001600160a01b03166395d89b416040518163ffffffff1660e01b81526004015f60405180830381865afa158015611823573d5f803e3d5ffd5b505050506040513d5f823e601f3d908101601f1916820160405261184a91908101906122d7565b81526040808201519051630150bdfb60e51b81526001600160a01b03918216600482015290861690632a17bf6090602401602060405180830381865afa158015611896573d5f803e3d5ffd5b505050506040513d601f19601f820116820180604052508101906118ba9190611f94565b6001600160a01b031660208083018290526040805163313ce56760e01b8152905163313ce567926004808401939192918290030181865afa158015611901573d5f803e3d5ffd5b505050506040513d601f19601f8201168201806040525081019061192591906122b7565b60ff1660c0820152602080820151604080516350d25bcd60e01b815290516001600160a01b03909216926350d25bcd926004808401938290030181865afa158015611972573d5f803e3d5ffd5b505050506040513d601f19601f82011682018060405250810190611996919061235d565b60a0820152825181908490849081106119b1576119b16120cb565b602002602001018190525050806119c790612374565b905061160d565b5060405180606001604052808661014001516001600160a01b03168152602001856001600160a01b0316815260200182815250878781518110611a1357611a136120cb565b60200260200101516040018190525050505b5050508080611a3390612374565b915050610ea5565b5095945050505050565b60405180606001604052805f6001600160a01b03168152602001611a8060408051606080820183525f80835260208301529181019190915290565b8152602001611aa660408051606080820183525f80835260208301529181019190915290565b905290565b604051806101600160405280606081526020015f6001600160a01b031681526020015f6001600160a01b031681526020015f81526020015f81526020015f81526020015f81526020015f81526020015f60ff1681526020015f60ff1681526020015f60ff1681525090565b604051806101000160405280606081526020015f6001600160a01b031681526020015f6001600160a01b031681526020015f81526020015f81526020015f81526020015f60ff1681526020015f60ff1681525090565b6001600160a01b0381168114611b80575f80fd5b50565b5f8060408385031215611b94575f80fd5b8235611b9f81611b6c565b91506020830135611baf81611b6c565b809150509250929050565b5f5b83811015611bd4578181015183820152602001611bbc565b50505f910152565b5f8151808452611bf3816020860160208601611bba565b601f01601f19169290920160200192915050565b5f606080840160018060a01b038085511686526020818187015116818801526040915081860151848389015283815180865260809550858a019150858160051b8b010184840193505f5b82811015611d1057607f198c830301845284516101608151818552611c7882860182611bdc565b91505087820151611c93898601826001600160a01b03169052565b50888201516001600160a01b0316848a01528a8201518b850152898201518a85015260a0808301519085015260c0808301519085015260e080830151908501526101008083015160ff9081169186019190915261012080840151821690860152610140928301511691909301529385019392850192600101611c51565b509a9950505050505050505050565b5f81518084526020808501808196508360051b810191508286015f5b85811015611da1578284038952815180516001600160a01b0316855285810151606087870181905290611d7082880182611c07565b91505060408083015192508682038188015250611d8d8183611c07565b9a87019a9550505090840190600101611d3b565b5091979650505050505050565b5f606080840160018060a01b0380855116865260208181870151168188015260408087015185828a015284815180875260809650868b019150868160051b8c010185840193505f5b82811015611e8657607f198d830301845284516101008151818552611e1d82860182611bdc565b91505089898301511689850152898883015116888501528b8201518c8501528a8201518b85015260a080830151818601525060c080830151611e638287018260ff169052565b505060e09182015160ff1693909101929092529386019392860192600101611df6565b509b9a5050505050505050505050565b5f81518084526020808501808196508360051b810191508286015f5b85811015611da1578284038952815180516001600160a01b0316855285810151606087870181905290611ee782880182611dae565b91505060408083015192508682038188015250611f048183611dae565b9a87019a9550505090840190600101611eb2565b604081525f611f2a6040830185611d1f565b8281036020840152611f3c8185611e96565b95945050505050565b602081525f6100da6020830184611e96565b5f60208284031215611f67575f80fd5b81356100da81611b6c565b602081525f6100da6020830184611d1f565b8051611f8f81611b6c565b919050565b5f60208284031215611fa4575f80fd5b81516100da81611b6c565b634e487b7160e01b5f52604160045260245ffd5b6040516101e0810167ffffffffffffffff81118282101715611fe757611fe7611faf565b60405290565b604051601f8201601f1916810167ffffffffffffffff8111828210171561201657612016611faf565b604052919050565b5f602080838503121561202f575f80fd5b825167ffffffffffffffff80821115612046575f80fd5b818501915085601f830112612059575f80fd5b81518181111561206b5761206b611faf565b8060051b915061207c848301611fed565b8181529183018401918481019088841115612095575f80fd5b938501935b838510156120bf57845192506120af83611b6c565b828252938501939085019061209a565b98975050505050505050565b634e487b7160e01b5f52603260045260245ffd5b5f602082840312156120ef575f80fd5b6040516020810181811067ffffffffffffffff8211171561211257612112611faf565b6040529151825250919050565b80516fffffffffffffffffffffffffffffffff81168114611f8f575f80fd5b805164ffffffffff81168114611f8f575f80fd5b805161ffff81168114611f8f575f80fd5b5f6101e08284031215612174575f80fd5b61217c611fc3565b61218684846120df565b81526121946020840161211f565b60208201526121a56040840161211f565b60408201526121b66060840161211f565b60608201526121c76080840161211f565b60808201526121d860a0840161211f565b60a08201526121e960c0840161213e565b60c08201526121fa60e08401612152565b60e082015261010061220d818501611f84565b9082015261012061221f848201611f84565b90820152610140612231848201611f84565b90820152610160612243848201611f84565b9082015261018061225584820161211f565b908201526101a061226784820161211f565b908201526101c061227984820161211f565b908201529392505050565b5f805f8060808587031215612297575f80fd5b505082516020840151604085015160609095015191969095509092509050565b5f602082840312156122c7575f80fd5b815160ff811681146100da575f80fd5b5f602082840312156122e7575f80fd5b815167ffffffffffffffff808211156122fe575f80fd5b818401915084601f830112612311575f80fd5b81518181111561232357612323611faf565b612336601f8201601f1916602001611fed565b915080825285602082850101111561234c575f80fd5b610d64816020840160208601611bba565b5f6020828403121561236d575f80fd5b5051919050565b5f6001820161239157634e487b7160e01b5f52601160045260245ffd5b506001019056fea164736f6c6343000814000a","linkReferences":{}},"methodIdentifiers":{"getFullReservesIncentiveData(address,address)":"47637536","getReservesIncentivesData(address)":"976fafc5","getUserReservesIncentivesData(address,address)":"799bdcf5"},"id":131}