{"abi":[{"type":"constructor","inputs":[{"name":"pool","type":"address","internalType":"contract IPool"}],"stateMutability":"nonpayable"},{"type":"function","name":"DEBT_TOKEN_REVISION","inputs":[],"outputs":[{"name":"","type":"uint256","internalType":"uint256"}],"stateMutability":"view"},{"type":"function","name":"DELEGATION_WITH_SIG_TYPEHASH","inputs":[],"outputs":[{"name":"","type":"bytes32","internalType":"bytes32"}],"stateMutability":"view"},{"type":"function","name":"DOMAIN_SEPARATOR","inputs":[],"outputs":[{"name":"","type":"bytes32","internalType":"bytes32"}],"stateMutability":"view"},{"type":"function","name":"EIP712_REVISION","inputs":[],"outputs":[{"name":"","type":"bytes","internalType":"bytes"}],"stateMutability":"view"},{"type":"function","name":"POOL","inputs":[],"outputs":[{"name":"","type":"address","internalType":"contract IPool"}],"stateMutability":"view"},{"type":"function","name":"UNDERLYING_ASSET_ADDRESS","inputs":[],"outputs":[{"name":"","type":"address","internalType":"address"}],"stateMutability":"view"},{"type":"function","name":"_getRevision","inputs":[],"outputs":[{"name":"","type":"uint256","internalType":"uint256"}],"stateMutability":"pure"},{"type":"function","name":"allowance","inputs":[{"name":"","type":"address","internalType":"address"},{"name":"","type":"address","internalType":"address"}],"outputs":[{"name":"","type":"uint256","internalType":"uint256"}],"stateMutability":"view"},{"type":"function","name":"approve","inputs":[{"name":"","type":"address","internalType":"address"},{"name":"","type":"uint256","internalType":"uint256"}],"outputs":[{"name":"","type":"bool","internalType":"bool"}],"stateMutability":"nonpayable"},{"type":"function","name":"approveDelegation","inputs":[{"name":"delegatee","type":"address","internalType":"address"},{"name":"amount","type":"uint256","internalType":"uint256"}],"outputs":[],"stateMutability":"nonpayable"},{"type":"function","name":"balanceOf","inputs":[{"name":"user","type":"address","internalType":"address"}],"outputs":[{"name":"","type":"uint256","internalType":"uint256"}],"stateMutability":"view"},{"type":"function","name":"borrowAllowance","inputs":[{"name":"fromUser","type":"address","internalType":"address"},{"name":"toUser","type":"address","internalType":"address"}],"outputs":[{"name":"","type":"uint256","internalType":"uint256"}],"stateMutability":"view"},{"type":"function","name":"burn","inputs":[{"name":"from","type":"address","internalType":"address"},{"name":"amount","type":"uint256","internalType":"uint256"},{"name":"index","type":"uint256","internalType":"uint256"}],"outputs":[{"name":"","type":"uint256","internalType":"uint256"}],"stateMutability":"nonpayable"},{"type":"function","name":"decimals","inputs":[],"outputs":[{"name":"","type":"uint8","internalType":"uint8"}],"stateMutability":"view"},{"type":"function","name":"decreaseAllowance","inputs":[{"name":"","type":"address","internalType":"address"},{"name":"","type":"uint256","internalType":"uint256"}],"outputs":[{"name":"","type":"bool","internalType":"bool"}],"stateMutability":"nonpayable"},{"type":"function","name":"delegationWithSig","inputs":[{"name":"delegator","type":"address","internalType":"address"},{"name":"delegatee","type":"address","internalType":"address"},{"name":"value","type":"uint256","internalType":"uint256"},{"name":"deadline","type":"uint256","internalType":"uint256"},{"name":"v","type":"uint8","internalType":"uint8"},{"name":"r","type":"bytes32","internalType":"bytes32"},{"name":"s","type":"bytes32","internalType":"bytes32"}],"outputs":[],"stateMutability":"nonpayable"},{"type":"function","name":"getIncentivesController","inputs":[],"outputs":[{"name":"","type":"address","internalType":"contract IAaveIncentivesController"}],"stateMutability":"view"},{"type":"function","name":"getPreviousIndex","inputs":[{"name":"user","type":"address","internalType":"address"}],"outputs":[{"name":"","type":"uint256","internalType":"uint256"}],"stateMutability":"view"},{"type":"function","name":"getScaledUserBalanceAndSupply","inputs":[{"name":"user","type":"address","internalType":"address"}],"outputs":[{"name":"","type":"uint256","internalType":"uint256"},{"name":"","type":"uint256","internalType":"uint256"}],"stateMutability":"view"},{"type":"function","name":"increaseAllowance","inputs":[{"name":"","type":"address","internalType":"address"},{"name":"","type":"uint256","internalType":"uint256"}],"outputs":[{"name":"","type":"bool","internalType":"bool"}],"stateMutability":"nonpayable"},{"type":"function","name":"initialize","inputs":[{"name":"initializingPool","type":"address","internalType":"contract IPool"},{"name":"underlyingAsset","type":"address","internalType":"address"},{"name":"incentivesController","type":"address","internalType":"contract IAaveIncentivesController"},{"name":"debtTokenDecimals","type":"uint8","internalType":"uint8"},{"name":"debtTokenName","type":"string","internalType":"string"},{"name":"debtTokenSymbol","type":"string","internalType":"string"},{"name":"params","type":"bytes","internalType":"bytes"}],"outputs":[],"stateMutability":"nonpayable"},{"type":"function","name":"mint","inputs":[{"name":"user","type":"address","internalType":"address"},{"name":"onBehalfOf","type":"address","internalType":"address"},{"name":"amount","type":"uint256","internalType":"uint256"},{"name":"index","type":"uint256","internalType":"uint256"}],"outputs":[{"name":"","type":"bool","internalType":"bool"},{"name":"","type":"uint256","internalType":"uint256"}],"stateMutability":"nonpayable"},{"type":"function","name":"name","inputs":[],"outputs":[{"name":"","type":"string","internalType":"string"}],"stateMutability":"view"},{"type":"function","name":"nonces","inputs":[{"name":"owner","type":"address","internalType":"address"}],"outputs":[{"name":"","type":"uint256","internalType":"uint256"}],"stateMutability":"view"},{"type":"function","name":"scaledBalanceOf","inputs":[{"name":"user","type":"address","internalType":"address"}],"outputs":[{"name":"","type":"uint256","internalType":"uint256"}],"stateMutability":"view"},{"type":"function","name":"scaledTotalSupply","inputs":[],"outputs":[{"name":"","type":"uint256","internalType":"uint256"}],"stateMutability":"view"},{"type":"function","name":"setIncentivesController","inputs":[{"name":"controller","type":"address","internalType":"contract IAaveIncentivesController"}],"outputs":[],"stateMutability":"nonpayable"},{"type":"function","name":"symbol","inputs":[],"outputs":[{"name":"","type":"string","internalType":"string"}],"stateMutability":"view"},{"type":"function","name":"totalSupply","inputs":[],"outputs":[{"name":"","type":"uint256","internalType":"uint256"}],"stateMutability":"view"},{"type":"function","name":"transfer","inputs":[{"name":"","type":"address","internalType":"address"},{"name":"","type":"uint256","internalType":"uint256"}],"outputs":[{"name":"","type":"bool","internalType":"bool"}],"stateMutability":"nonpayable"},{"type":"function","name":"transferFrom","inputs":[{"name":"","type":"address","internalType":"address"},{"name":"","type":"address","internalType":"address"},{"name":"","type":"uint256","internalType":"uint256"}],"outputs":[{"name":"","type":"bool","internalType":"bool"}],"stateMutability":"nonpayable"},{"type":"event","name":"Approval","inputs":[{"name":"owner","type":"address","indexed":true,"internalType":"address"},{"name":"spender","type":"address","indexed":true,"internalType":"address"},{"name":"value","type":"uint256","indexed":false,"internalType":"uint256"}],"anonymous":false},{"type":"event","name":"BorrowAllowanceDelegated","inputs":[{"name":"fromUser","type":"address","indexed":true,"internalType":"address"},{"name":"toUser","type":"address","indexed":true,"internalType":"address"},{"name":"asset","type":"address","indexed":true,"internalType":"address"},{"name":"amount","type":"uint256","indexed":false,"internalType":"uint256"}],"anonymous":false},{"type":"event","name":"Burn","inputs":[{"name":"from","type":"address","indexed":true,"internalType":"address"},{"name":"target","type":"address","indexed":true,"internalType":"address"},{"name":"value","type":"uint256","indexed":false,"internalType":"uint256"},{"name":"balanceIncrease","type":"uint256","indexed":false,"internalType":"uint256"},{"name":"index","type":"uint256","indexed":false,"internalType":"uint256"}],"anonymous":false},{"type":"event","name":"Initialized","inputs":[{"name":"underlyingAsset","type":"address","indexed":true,"internalType":"address"},{"name":"pool","type":"address","indexed":true,"internalType":"address"},{"name":"incentivesController","type":"address","indexed":false,"internalType":"address"},{"name":"debtTokenDecimals","type":"uint8","indexed":false,"internalType":"uint8"},{"name":"debtTokenName","type":"string","indexed":false,"internalType":"string"},{"name":"debtTokenSymbol","type":"string","indexed":false,"internalType":"string"},{"name":"params","type":"bytes","indexed":false,"internalType":"bytes"}],"anonymous":false},{"type":"event","name":"Mint","inputs":[{"name":"caller","type":"address","indexed":true,"internalType":"address"},{"name":"onBehalfOf","type":"address","indexed":true,"internalType":"address"},{"name":"value","type":"uint256","indexed":false,"internalType":"uint256"},{"name":"balanceIncrease","type":"uint256","indexed":false,"internalType":"uint256"},{"name":"index","type":"uint256","indexed":false,"internalType":"uint256"}],"anonymous":false},{"type":"event","name":"Transfer","inputs":[{"name":"from","type":"address","indexed":true,"internalType":"address"},{"name":"to","type":"address","indexed":true,"internalType":"address"},{"name":"value","type":"uint256","indexed":false,"internalType":"uint256"}],"anonymous":false}],"bytecode":{"object":"0x60e06040525f805534801562000013575f80fd5b5060405162001ff238038062001ff283398101604081905262000036916200018f565b8080806040518060400160405280601881526020017f5641524941424c455f444542545f544f4b454e5f494d504c00000000000000008152506040518060400160405280601881526020017f5641524941424c455f444542545f544f4b454e5f494d504c00000000000000008152505f83838383838383834660808181525050836001600160a01b0316630542975c6040518163ffffffff1660e01b8152600401602060405180830381865afa158015620000f3573d5f803e3d5ffd5b505050506040513d601f19601f820116820180604052508101906200011991906200018f565b6001600160a01b031660a052603b62000133848262000254565b50603c62000142838262000254565b50603d805460ff191660ff9290921691909117905550506001600160a01b031660c052506200031c9950505050505050505050565b6001600160a01b03811681146200018c575f80fd5b50565b5f60208284031215620001a0575f80fd5b8151620001ad8162000177565b9392505050565b634e487b7160e01b5f52604160045260245ffd5b600181811c90821680620001dd57607f821691505b602082108103620001fc57634e487b7160e01b5f52602260045260245ffd5b50919050565b601f8211156200024f575f81815260208120601f850160051c810160208610156200022a5750805b601f850160051c820191505b818110156200024b5782815560010162000236565b5050505b505050565b81516001600160401b03811115620002705762000270620001b4565b6200028881620002818454620001c8565b8462000202565b602080601f831160018114620002be575f8415620002a65750858301515b5f19600386901b1c1916600185901b1785556200024b565b5f85815260208120601f198616915b82811015620002ee57888601518255948401946001909101908401620002cd565b50858210156200030c57878501515f19600388901b60f8161c191681555b5050505050600190811b01905550565b60805160a05160c051611c81620003715f395f8181610302015281816107dc015281816108de0152818161098e01528181610ac801528181610b970152610d9101525f610c2a01525f6108680152611c815ff3fe608060405234801561000f575f80fd5b50600436106101dc575f3560e01c80637ecebe0011610109578063b9ca76f61161009e578063e07539861161006e578063e075398614610428578063e655dbd814610460578063f3bfc73814610473578063f5298aca1461049a575f80fd5b8063b9ca76f6146103ed578063c04a8a10146103f4578063c222ec8a14610407578063dd62ed3e1461041a575f80fd5b8063b16a19de116100d9578063b16a19de146103a2578063b1bf962d146103b3578063b3f1c93d146103bb578063b9a7b622146103e5575f80fd5b80637ecebe001461037257806395d89b411461039a578063a457c2d7146101fe578063a9059cbb146101fe575f80fd5b8063313ce5671161017f57806370a082311161014f57806370a08231146102ea5780637535d246146102fd57806375d264131461033c5780637816037614610352575f80fd5b8063313ce567146102955780633644e515146102aa57806339509351146101fe5780636bd76d24146102b2575f80fd5b80630b52d558116101ba5780630b52d5581461024957806318160ddd1461025e5780631da24f3e1461027457806323b872dd14610287575f80fd5b806306fdde03146101e0578063095ea7b3146101fe5780630afbcdc914610221575b5f80fd5b6101e86104ad565b6040516101f5919061165b565b60405180910390f35b61021161020c366004611694565b61053d565b60405190151581526020016101f5565b61023461022f3660046116be565b610577565b604080519283526020830191909152016101f5565b61025c6102573660046116e9565b61058e565b005b6102666107b4565b6040519081526020016101f5565b6102666102823660046116be565b610855565b61021161020c366004611752565b603d5460405160ff90911681526020016101f5565b610266610865565b6102666102c0366004611790565b6001600160a01b039182165f90815260366020908152604080832093909416825291909152205490565b6102666102f83660046116be565b61089c565b6103247f000000000000000000000000000000000000000000000000000000000000000081565b6040516001600160a01b0390911681526020016101f5565b603d5461010090046001600160a01b0316610324565b6101e8604051806040016040528060018152602001603160f81b81525081565b6102666103803660046116be565b6001600160a01b03165f9081526034602052604090205490565b6101e8610955565b6037546001600160a01b0316610324565b610266610964565b6103ce6103c93660046117c7565b61096e565b6040805192151583526020830191909152016101f5565b610266600181565b6001610266565b61025c610402366004611694565b610a1a565b61025c6104153660046118ec565b610a29565b61026661020c366004611790565b6102666104363660046116be565b6001600160a01b03165f90815260386020526040902054600160801b90046001600160801b031690565b61025c61046e3660046116be565b610c27565b6102667f323db0410fecc107e39e2af5908671f4c8d106123b35a51501bb805c5fa36aa081565b6102666104a83660046119b9565b610d73565b6060603b80546104bc906119eb565b80601f01602080910402602001604051908101604052809291908181526020018280546104e8906119eb565b80156105335780601f1061050a57610100808354040283529160200191610533565b820191905f5260205f20905b81548152906001019060200180831161051657829003601f168201915b5050505050905090565b6040805180820182526002815261038360f41b6020820152905162461bcd60e51b81525f9161056e9160040161165b565b60405180910390fd5b5f8061058283610df4565b603a5491509150915091565b604080518082019091526002815261373760f01b60208201526001600160a01b0388166105ce5760405162461bcd60e51b815260040161056e919061165b565b50834211156040518060400160405280600281526020016106e760f31b8152509061060c5760405162461bcd60e51b815260040161056e919061165b565b506001600160a01b0387165f908152603460205260408120549061062e610865565b604080517f323db0410fecc107e39e2af5908671f4c8d106123b35a51501bb805c5fa36aa060208201526001600160a01b038b1691810191909152606081018990526080810184905260a0810188905260c001604051602081830303815290604052805190602001206040516020016106be92919061190160f01b81526002810192909252602282015260420190565b60408051601f1981840301815282825280516020918201205f845290830180835281905260ff8816918301919091526060820186905260808201859052915060019060a0016020604051602081039080840390855afa158015610723573d5f803e3d5ffd5b505050602060405103516001600160a01b0316896001600160a01b03161460405180604001604052806002815260200161373960f01b8152509061077a5760405162461bcd60e51b815260040161056e919061165b565b50610786826001611a37565b6001600160a01b038a165f908152603460205260409020556107a9898989610e17565b505050505050505050565b60375460405163386497fd60e01b81526001600160a01b0391821660048201525f91610850917f00000000000000000000000000000000000000000000000000000000000000009091169063386497fd90602401602060405180830381865afa158015610823573d5f803e3d5ffd5b505050506040513d601f19601f820116820180604052508101906108479190611a4a565b603a5490610e80565b905090565b5f61085f82610df4565b92915050565b5f7f00000000000000000000000000000000000000000000000000000000000000004603610894575060355490565b610850610ec2565b5f806108a783610df4565b9050805f036108b857505f92915050565b60375460405163386497fd60e01b81526001600160a01b03918216600482015261094e917f0000000000000000000000000000000000000000000000000000000000000000169063386497fd90602401602060405180830381865afa158015610923573d5f803e3d5ffd5b505050506040513d601f19601f820116820180604052508101906109479190611a4a565b8290610e80565b9392505050565b6060603c80546104bc906119eb565b5f610850603a5490565b604080518082019091526002815261323360f01b60208201525f908190337f00000000000000000000000000000000000000000000000000000000000000006001600160a01b0316146109d45760405162461bcd60e51b815260040161056e919061165b565b50846001600160a01b0316866001600160a01b0316146109f9576109f9858786610f6a565b610a058686868661100e565b610a0d610964565b9150915094509492505050565b610a25338383610e17565b5050565b6001805460ff1680610a3a5750303b155b80610a4557505f5481115b610aa85760405162461bcd60e51b815260206004820152602e60248201527f436f6e747261637420696e7374616e63652068617320616c726561647920626560448201526d195b881a5b9a5d1a585b1a5e995960921b606482015260840161056e565b60015460ff16158015610ac6576001805460ff1916811790555f8290555b7f00000000000000000000000000000000000000000000000000000000000000006001600160a01b03168a6001600160a01b03161460405180604001604052806002815260200161383760f01b81525090610b345760405162461bcd60e51b815260040161056e919061165b565b50610b3e866111b1565b610b47856111bd565b603d8054603780546001600160a01b038d81166001600160a01b0319909216919091179091558a16610100026001600160a81b031990911660ff8a1617179055610b8f610ec2565b6035819055507f00000000000000000000000000000000000000000000000000000000000000006001600160a01b0316896001600160a01b03167f40251fbfb6656cfa65a00d7879029fec1fad21d28fdcff2f4f68f52795b74f2c8a8a8a8a8a8a604051610c0296959493929190611a61565b60405180910390a38015610c1b576001805460ff191690555b50505050505050505050565b5f7f00000000000000000000000000000000000000000000000000000000000000006001600160a01b031663707cd7166040518163ffffffff1660e01b8152600401602060405180830381865afa158015610c84573d5f803e3d5ffd5b505050506040513d601f19601f82011682018060405250810190610ca89190611ad6565b604051637be53ca160e01b81523360048201529091506001600160a01b03821690637be53ca190602401602060405180830381865afa158015610ced573d5f803e3d5ffd5b505050506040513d601f19601f82011682018060405250810190610d119190611af1565b604051806040016040528060018152602001603160f81b81525090610d495760405162461bcd60e51b815260040161056e919061165b565b5050603d80546001600160a01b0390921661010002610100600160a81b0319909216919091179055565b604080518082019091526002815261323360f01b60208201525f90337f00000000000000000000000000000000000000000000000000000000000000006001600160a01b031614610dd75760405162461bcd60e51b815260040161056e919061165b565b50610de4845f85856111c9565b610dec610964565b949350505050565b6001600160a01b03165f908152603860205260409020546001600160801b031690565b6001600160a01b038381165f8181526036602090815260408083208786168085529083529281902086905560375490518681529416939192917fda919360433220e13b51e8c211e490d148e61a3bd53de8c097194e458b97f3e1910160405180910390a4505050565b5f81156b019d971e4fe8401e740000001983900484111517610ea0575f80fd5b506b033b2e3c9fd0803ce800000091026b019d971e4fe8401e74000000010490565b5f7f8b73c3c69bb8fe3d512ecc4cf759cc79239f7b179b0ffacaa9a75d522b39400f610eec61141f565b805160209182012060408051808201825260018152603160f81b90840152805192830193909352918101919091527fc89efdaa54c0f20c7adf612882df0950f5a951637e0307cdcb4c672f298b8bc660608201524660808201523060a082015260c00160405160208183030381529060405280519060200120905090565b6001600160a01b038084165f908152603660209081526040808320938616835292905290812054610f9c908390611b10565b6001600160a01b038086165f81815260366020908152604080832089861680855292529182902085905560375491519495509216927fda919360433220e13b51e8c211e490d148e61a3bd53de8c097194e458b97f3e1906110009086815260200190565b60405180910390a450505050565b5f8061101a8484611429565b6040805180820190915260028152610c8d60f21b6020820152909150816110545760405162461bcd60e51b815260040161056e919061165b565b505f61105f86610df4565b6001600160a01b0387165f9081526038602052604081205491925090611096908390600160801b90046001600160801b0316610e80565b6110a08387610e80565b6110aa9190611b10565b90506110b585611466565b6001600160a01b0388165f90815260386020526040902080546001600160801b03928316600160801b0292169190911790556110f9876110f485611466565b6114d2565b5f6111048288611a37565b9050876001600160a01b03165f6001600160a01b03167fddf252ad1be2c89b69c2b068fc378daa952ba7f163c4a11628f55a4df523b3ef8360405161114b91815260200190565b60405180910390a360408051828152602081018490529081018790526001600160a01b03808a1691908b16907f458f5fa412d0f69b08dd84872b0215675cc67bc1d5b6fd93300a1c3878b861969060600160405180910390a35050159695505050505050565b603b610a258282611b71565b603c610a258282611b71565b5f6111d48383611429565b604080518082019091526002815261323560f01b60208201529091508161120e5760405162461bcd60e51b815260040161056e919061165b565b505f61121986610df4565b6001600160a01b0387165f9081526038602052604081205491925090611250908390600160801b90046001600160801b0316610e80565b61125a8386610e80565b6112649190611b10565b905061126f84611466565b6001600160a01b0388165f90815260386020526040902080546001600160801b03928316600160801b0292169190911790556112b3876112ae85611466565b6115d4565b84811115611369575f6112c68683611b10565b9050876001600160a01b03165f6001600160a01b03167fddf252ad1be2c89b69c2b068fc378daa952ba7f163c4a11628f55a4df523b3ef8360405161130d91815260200190565b60405180910390a360408051828152602081018490529081018690526001600160a01b0389169081907f458f5fa412d0f69b08dd84872b0215675cc67bc1d5b6fd93300a1c3878b861969060600160405180910390a350611416565b5f6113748287611b10565b90505f6001600160a01b0316886001600160a01b03167fddf252ad1be2c89b69c2b068fc378daa952ba7f163c4a11628f55a4df523b3ef836040516113bb91815260200190565b60405180910390a360408051828152602081018490529081018690526001600160a01b0380891691908a16907f4cf25bc1d991c17529c25213d3cc0cda295eeaad5f13f361969b12ea48015f909060600160405180910390a3505b50505050505050565b60606108506104ad565b5f81156b033b2e3c9fd0803ce80000006002840419048411171561144b575f80fd5b506b033b2e3c9fd0803ce80000009190910260028204010490565b5f6001600160801b038211156114ce5760405162461bcd60e51b815260206004820152602760248201527f53616665436173743a2076616c756520646f65736e27742066697420696e20316044820152663238206269747360c81b606482015260840161056e565b5090565b603a546114e86001600160801b03831682611a37565b603a556001600160a01b0383165f908152603860205260409020546001600160801b03166115168382611c2d565b6001600160a01b038581165f90815260386020526040902080546fffffffffffffffffffffffffffffffff19166001600160801b039390931692909217909155603d5461010090041680156115cd576040516318c39f1760e11b81526001600160a01b038681166004830152602482018590526001600160801b03841660448301528216906331873e2e906064015f604051808303815f87803b1580156115bb575f80fd5b505af11580156107a9573d5f803e3d5ffd5b5050505050565b603a546115ea6001600160801b03831682611b10565b603a556001600160a01b0383165f908152603860205260409020546001600160801b03166115168382611c54565b5f81518084525f5b8181101561163c57602081850181015186830182015201611620565b505f602082860101526020601f19601f83011685010191505092915050565b602081525f61094e6020830184611618565b6001600160a01b0381168114611681575f80fd5b50565b803561168f8161166d565b919050565b5f80604083850312156116a5575f80fd5b82356116b08161166d565b946020939093013593505050565b5f602082840312156116ce575f80fd5b813561094e8161166d565b803560ff8116811461168f575f80fd5b5f805f805f805f60e0888a0312156116ff575f80fd5b873561170a8161166d565b9650602088013561171a8161166d565b95506040880135945060608801359350611736608089016116d9565b925060a0880135915060c0880135905092959891949750929550565b5f805f60608486031215611764575f80fd5b833561176f8161166d565b9250602084013561177f8161166d565b929592945050506040919091013590565b5f80604083850312156117a1575f80fd5b82356117ac8161166d565b915060208301356117bc8161166d565b809150509250929050565b5f805f80608085870312156117da575f80fd5b84356117e58161166d565b935060208501356117f58161166d565b93969395505050506040820135916060013590565b634e487b7160e01b5f52604160045260245ffd5b5f82601f83011261182d575f80fd5b813567ffffffffffffffff808211156118485761184861180a565b604051601f8301601f19908116603f011681019082821181831017156118705761187061180a565b81604052838152866020858801011115611888575f80fd5b836020870160208301375f602085830101528094505050505092915050565b5f8083601f8401126118b7575f80fd5b50813567ffffffffffffffff8111156118ce575f80fd5b6020830191508360208285010111156118e5575f80fd5b9250929050565b5f805f805f805f8060e0898b031215611903575f80fd5b883561190e8161166d565b9750602089013561191e8161166d565b965061192c60408a01611684565b955061193a60608a016116d9565b9450608089013567ffffffffffffffff80821115611956575f80fd5b6119628c838d0161181e565b955060a08b0135915080821115611977575f80fd5b6119838c838d0161181e565b945060c08b0135915080821115611998575f80fd5b506119a58b828c016118a7565b999c989b5096995094979396929594505050565b5f805f606084860312156119cb575f80fd5b83356119d68161166d565b95602085013595506040909401359392505050565b600181811c908216806119ff57607f821691505b602082108103611a1d57634e487b7160e01b5f52602260045260245ffd5b50919050565b634e487b7160e01b5f52601160045260245ffd5b8082018082111561085f5761085f611a23565b5f60208284031215611a5a575f80fd5b5051919050565b6001600160a01b038716815260ff8616602082015260a0604082018190525f90611a8d90830187611618565b8281036060840152611a9f8187611618565b90508281036080840152838152838560208301375f602085830101526020601f19601f860116820101915050979650505050505050565b5f60208284031215611ae6575f80fd5b815161094e8161166d565b5f60208284031215611b01575f80fd5b8151801515811461094e575f80fd5b8181038181111561085f5761085f611a23565b601f821115611b6c575f81815260208120601f850160051c81016020861015611b495750805b601f850160051c820191505b81811015611b6857828155600101611b55565b5050505b505050565b815167ffffffffffffffff811115611b8b57611b8b61180a565b611b9f81611b9984546119eb565b84611b23565b602080601f831160018114611bd2575f8415611bbb5750858301515b5f19600386901b1c1916600185901b178555611b68565b5f85815260208120601f198616915b82811015611c0057888601518255948401946001909101908401611be1565b5085821015611c1d57878501515f19600388901b60f8161c191681555b5050505050600190811b01905550565b6001600160801b03818116838216019080821115611c4d57611c4d611a23565b5092915050565b6001600160801b03828116828216039080821115611c4d57611c4d611a2356fea164736f6c6343000814000a","linkReferences":{}},"methodIdentifiers":{"DEBT_TOKEN_REVISION()":"b9a7b622","DELEGATION_WITH_SIG_TYPEHASH()":"f3bfc738","DOMAIN_SEPARATOR()":"3644e515","EIP712_REVISION()":"78160376","POOL()":"7535d246","UNDERLYING_ASSET_ADDRESS()":"b16a19de","_getRevision()":"b9ca76f6","allowance(address,address)":"dd62ed3e","approve(address,uint256)":"095ea7b3","approveDelegation(address,uint256)":"c04a8a10","balanceOf(address)":"70a08231","borrowAllowance(address,address)":"6bd76d24","burn(address,uint256,uint256)":"f5298aca","decimals()":"313ce567","decreaseAllowance(address,uint256)":"a457c2d7","delegationWithSig(address,address,uint256,uint256,uint8,bytes32,bytes32)":"0b52d558","getIncentivesController()":"75d26413","getPreviousIndex(address)":"e0753986","getScaledUserBalanceAndSupply(address)":"0afbcdc9","increaseAllowance(address,uint256)":"39509351","initialize(address,address,address,uint8,string,string,bytes)":"c222ec8a","mint(address,address,uint256,uint256)":"b3f1c93d","name()":"06fdde03","nonces(address)":"7ecebe00","scaledBalanceOf(address)":"1da24f3e","scaledTotalSupply()":"b1bf962d","setIncentivesController(address)":"e655dbd8","symbol()":"95d89b41","totalSupply()":"18160ddd","transfer(address,uint256)":"a9059cbb","transferFrom(address,address,uint256)":"23b872dd"},"id":339}