{"abi":[{"type":"function","name":"HALF_RAY","inputs":[],"outputs":[{"name":"","type":"uint256","internalType":"uint256"}],"stateMutability":"pure"},{"type":"function","name":"HALF_WAD","inputs":[],"outputs":[{"name":"","type":"uint256","internalType":"uint256"}],"stateMutability":"pure"},{"type":"function","name":"RAY","inputs":[],"outputs":[{"name":"","type":"uint256","internalType":"uint256"}],"stateMutability":"pure"},{"type":"function","name":"WAD","inputs":[],"outputs":[{"name":"","type":"uint256","internalType":"uint256"}],"stateMutability":"pure"},{"type":"function","name":"WAD_RAY_RATIO","inputs":[],"outputs":[{"name":"","type":"uint256","internalType":"uint256"}],"stateMutability":"pure"},{"type":"function","name":"rayDiv","inputs":[{"name":"a","type":"uint256","internalType":"uint256"},{"name":"b","type":"uint256","internalType":"uint256"}],"outputs":[{"name":"","type":"uint256","internalType":"uint256"}],"stateMutability":"pure"},{"type":"function","name":"rayMul","inputs":[{"name":"a","type":"uint256","internalType":"uint256"},{"name":"b","type":"uint256","internalType":"uint256"}],"outputs":[{"name":"","type":"uint256","internalType":"uint256"}],"stateMutability":"pure"},{"type":"function","name":"rayToWad","inputs":[{"name":"a","type":"uint256","internalType":"uint256"}],"outputs":[{"name":"","type":"uint256","internalType":"uint256"}],"stateMutability":"pure"},{"type":"function","name":"wadDiv","inputs":[{"name":"a","type":"uint256","internalType":"uint256"},{"name":"b","type":"uint256","internalType":"uint256"}],"outputs":[{"name":"","type":"uint256","internalType":"uint256"}],"stateMutability":"pure"},{"type":"function","name":"wadMul","inputs":[{"name":"a","type":"uint256","internalType":"uint256"},{"name":"b","type":"uint256","internalType":"uint256"}],"outputs":[{"name":"","type":"uint256","internalType":"uint256"}],"stateMutability":"pure"},{"type":"function","name":"wadToRay","inputs":[{"name":"a","type":"uint256","internalType":"uint256"}],"outputs":[{"name":"","type":"uint256","internalType":"uint256"}],"stateMutability":"pure"}],"bytecode":{"object":"0x608060405234801561000f575f80fd5b506103308061001d5f395ff3fe608060405234801561000f575f80fd5b50600436106100a6575f3560e01c80636a1460241161006e5780636a14602414610110578063761fdad61461011e57806385aa454e146101315780639c34d8801461013f578063d2e3058514610152578063e57b6d3b14610165575f80fd5b806310de27b9146100aa57806329cb5aa4146100cf578063552033c4146100e25780635fcd6809146100f4578063629fa5a714610106575b5f80fd5b6100bd6100b83660046102ec565b610178565b60405190815260200160405180910390f35b6100bd6100dd3660046102ec565b610188565b6b033b2e3c9fd0803ce80000006100bd565b6b019d971e4fe8401e740000006100bd565b633b9aca006100bd565b670de0b6b3a76400006100bd565b6100bd61012c366004610303565b610192565b6706f05b59d3b200006100bd565b6100bd61014d366004610303565b6101a4565b6100bd610160366004610303565b6101af565b6100bd610173366004610303565b6101ba565b5f610182826101c5565b92915050565b5f610182826101df565b5f61019d8383610202565b9392505050565b5f61019d8383610238565b5f61019d8383610275565b5f61019d83836102b7565b633b9aca0081810290810482146101da575f80fd5b919050565b633b9aca00808204908206631dcd650081106101fc576001820191505b50919050565b5f81156706f05b59d3b20000198390048411151761021e575f80fd5b50670de0b6b3a764000091026706f05b59d3b20000010490565b5f81156b033b2e3c9fd0803ce80000006002840419048411171561025a575f80fd5b506b033b2e3c9fd0803ce80000009190910260028204010490565b5f81156b019d971e4fe8401e740000001983900484111517610295575f80fd5b506b033b2e3c9fd0803ce800000091026b019d971e4fe8401e74000000010490565b5f8115670de0b6b3a7640000600284041904841117156102d5575f80fd5b50670de0b6b3a76400009190910260028204010490565b5f602082840312156102fc575f80fd5b5035919050565b5f8060408385031215610314575f80fd5b5050803592602090910135915056fea164736f6c6343000814000a","linkReferences":{}},"methodIdentifiers":{"HALF_RAY()":"5fcd6809","HALF_WAD()":"85aa454e","RAY()":"552033c4","WAD()":"6a146024","WAD_RAY_RATIO()":"629fa5a7","rayDiv(uint256,uint256)":"9c34d880","rayMul(uint256,uint256)":"d2e30585","rayToWad(uint256)":"29cb5aa4","wadDiv(uint256,uint256)":"e57b6d3b","wadMul(uint256,uint256)":"761fdad6","wadToRay(uint256)":"10de27b9"},"id":203}