{
  "_format": "hh-sol-artifact-1",
  "contractName": "WalletBalanceProvider",
  "sourceName": "@aave/periphery-v3/contracts/misc/WalletBalanceProvider.sol",
  "abi": [
    {
      "inputs": [
        {
          "internalType": "address",
          "name": "user",
          "type": "address"
        },
        {
          "internalType": "address",
          "name": "token",
          "type": "address"
        }
      ],
      "name": "balanceOf",
      "outputs": [
        {
          "internalType": "uint256",
          "name": "",
          "type": "uint256"
        }
      ],
      "stateMutability": "view",
      "type": "function"
    },
    {
      "inputs": [
        {
          "internalType": "address[]",
          "name": "users",
          "type": "address[]"
        },
        {
          "internalType": "address[]",
          "name": "tokens",
          "type": "address[]"
        }
      ],
      "name": "batchBalanceOf",
      "outputs": [
        {
          "internalType": "uint256[]",
          "name": "",
          "type": "uint256[]"
        }
      ],
      "stateMutability": "view",
      "type": "function"
    },
    {
      "inputs": [
        {
          "internalType": "address",
          "name": "provider",
          "type": "address"
        },
        {
          "internalType": "address",
          "name": "user",
          "type": "address"
        }
      ],
      "name": "getUserWalletBalances",
      "outputs": [
        {
          "internalType": "address[]",
          "name": "",
          "type": "address[]"
        },
        {
          "internalType": "uint256[]",
          "name": "",
          "type": "uint256[]"
        }
      ],
      "stateMutability": "view",
      "type": "function"
    },
    {
      "stateMutability": "payable",
      "type": "receive"
    }
  ],
  "bytecode": "0x608060405234801561001057600080fd5b50610d26806100206000396000f3fe6080604052600436106100385760003560e01c806302405343146100b8578063b59b28ef146100ef578063f7888aec1461011c57600080fd5b366100b3576100463361014a565b6100b1576040517f08c379a000000000000000000000000000000000000000000000000000000000815260206004820152600260248201527f323200000000000000000000000000000000000000000000000000000000000060448201526064015b60405180910390fd5b005b600080fd5b3480156100c457600080fd5b506100d86100d3366004610893565b610186565b6040516100e6929190610907565b60405180910390f35b3480156100fb57600080fd5b5061010f61010a3660046109b9565b6105e0565b6040516100e69190610a25565b34801561012857600080fd5b5061013c610137366004610893565b6106f9565b6040519081526020016100e6565b6000813f7fc5d2460186f7233c927e7db2dcc703c0e500b653ca82273b7bfad8045d85a47081811480159061017e57508115155b949350505050565b60608060008473ffffffffffffffffffffffffffffffffffffffff1663026b1d5f6040518163ffffffff1660e01b8152600401602060405180830381865afa1580156101d6573d6000803e3d6000fd5b505050506040513d601f19601f820116820180604052508101906101fa9190610a3f565b905060008173ffffffffffffffffffffffffffffffffffffffff1663d1946dbc6040518163ffffffff1660e01b8152600401600060405180830381865afa158015610249573d6000803e3d6000fd5b505050506040513d6000823e601f3d9081017fffffffffffffffffffffffffffffffffffffffffffffffffffffffffffffffe016820160405261028f9190810190610ada565b90506000815160016102a19190610bbb565b67ffffffffffffffff8111156102b9576102b9610a5c565b6040519080825280602002602001820160405280156102e2578160200160208202803683370190505b50905060005b82518110156103545782818151811061030357610303610bd3565b602002602001015182828151811061031d5761031d610bd3565b73ffffffffffffffffffffffffffffffffffffffff909216602092830291909101909101528061034c81610c02565b9150506102e8565b5073eeeeeeeeeeeeeeeeeeeeeeeeeeeeeeeeeeeeeeee8183518151811061037d5761037d610bd3565b602002602001019073ffffffffffffffffffffffffffffffffffffffff16908173ffffffffffffffffffffffffffffffffffffffff16815250506000815167ffffffffffffffff8111156103d3576103d3610a5c565b6040519080825280602002602001820160405280156103fc578160200160208202803683370190505b50905060005b83518110156105945760008573ffffffffffffffffffffffffffffffffffffffff1663c44b11f785848151811061043b5761043b610bd3565b60200260200101516040518263ffffffff1660e01b815260040161047b919073ffffffffffffffffffffffffffffffffffffffff91909116815260200190565b602060405180830381865afa158015610498573d6000803e3d6000fd5b505050506040513d601f19601f820116820180604052508101906104bc9190610c3b565b9050600061050c8251670100000000000000811615159167020000000000000082161515916704000000000000008116151591670800000000000000821615159167100000000000000016151590565b5050505090508061053e57600084848151811061052b5761052b610bd3565b6020026020010181815250505050610582565b6105618a86858151811061055457610554610bd3565b60200260200101516106f9565b84848151811061057357610573610bd3565b60200260200101818152505050505b8061058c81610c02565b915050610402565b506105b38773eeeeeeeeeeeeeeeeeeeeeeeeeeeeeeeeeeeeeeee6106f9565b818451815181106105c6576105c6610bd3565b6020908102919091010152909450925050505b9250929050565b606060006105ee8386610c7d565b67ffffffffffffffff81111561060657610606610a5c565b60405190808252806020026020018201604052801561062f578160200160208202803683370190505b50905060005b858110156106ef5760005b848110156106dc5761069988888481811061065d5761065d610bd3565b90506020020160208101906106729190610cba565b87878481811061068457610684610bd3565b90506020020160208101906101379190610cba565b83826106a58886610c7d565b6106af9190610bbb565b815181106106bf576106bf610bd3565b6020908102919091010152806106d481610c02565b915050610640565b50806106e781610c02565b915050610635565b5095945050505050565b600073ffffffffffffffffffffffffffffffffffffffff821673eeeeeeeeeeeeeeeeeeeeeeeeeeeeeeeeeeeeeeee141561074b575073ffffffffffffffffffffffffffffffffffffffff821631610868565b61076a8273ffffffffffffffffffffffffffffffffffffffff1661014a565b15610806576040517f70a0823100000000000000000000000000000000000000000000000000000000815273ffffffffffffffffffffffffffffffffffffffff84811660048301528316906370a0823190602401602060405180830381865afa1580156107db573d6000803e3d6000fd5b505050506040513d601f19601f820116820180604052508101906107ff9190610cd7565b9050610868565b6040517f08c379a000000000000000000000000000000000000000000000000000000000815260206004820152600d60248201527f494e56414c49445f544f4b454e0000000000000000000000000000000000000060448201526064016100a8565b92915050565b73ffffffffffffffffffffffffffffffffffffffff8116811461089057600080fd5b50565b600080604083850312156108a657600080fd5b82356108b18161086e565b915060208301356108c18161086e565b809150509250929050565b600081518084526020808501945080840160005b838110156108fc578151875295820195908201906001016108e0565b509495945050505050565b604080825283519082018190526000906020906060840190828701845b8281101561095657815173ffffffffffffffffffffffffffffffffffffffff1684529284019290840190600101610924565b5050508381038285015261096a81866108cc565b9695505050505050565b60008083601f84011261098657600080fd5b50813567ffffffffffffffff81111561099e57600080fd5b6020830191508360208260051b85010111156105d957600080fd5b600080600080604085870312156109cf57600080fd5b843567ffffffffffffffff808211156109e757600080fd5b6109f388838901610974565b90965094506020870135915080821115610a0c57600080fd5b50610a1987828801610974565b95989497509550505050565b602081526000610a3860208301846108cc565b9392505050565b600060208284031215610a5157600080fd5b8151610a388161086e565b7f4e487b7100000000000000000000000000000000000000000000000000000000600052604160045260246000fd5b604051601f82017fffffffffffffffffffffffffffffffffffffffffffffffffffffffffffffffe016810167ffffffffffffffff81118282101715610ad257610ad2610a5c565b604052919050565b60006020808385031215610aed57600080fd5b825167ffffffffffffffff80821115610b0557600080fd5b818501915085601f830112610b1957600080fd5b815181811115610b2b57610b2b610a5c565b8060051b9150610b3c848301610a8b565b8181529183018401918481019088841115610b5657600080fd5b938501935b83851015610b805784519250610b708361086e565b8282529385019390850190610b5b565b98975050505050505050565b7f4e487b7100000000000000000000000000000000000000000000000000000000600052601160045260246000fd5b60008219821115610bce57610bce610b8c565b500190565b7f4e487b7100000000000000000000000000000000000000000000000000000000600052603260045260246000fd5b60007fffffffffffffffffffffffffffffffffffffffffffffffffffffffffffffffff821415610c3457610c34610b8c565b5060010190565b600060208284031215610c4d57600080fd5b6040516020810181811067ffffffffffffffff82111715610c7057610c70610a5c565b6040529151825250919050565b6000817fffffffffffffffffffffffffffffffffffffffffffffffffffffffffffffffff0483118215151615610cb557610cb5610b8c565b500290565b600060208284031215610ccc57600080fd5b8135610a388161086e565b600060208284031215610ce957600080fd5b505191905056fea2646970667358221220e8f531288b05593e0734ea81ee3c1e7a317dbae954589898b2ac93a1d0ee912464736f6c634300080a0033",
  "linkReferences": {},
  "deployedLinkReferences": {}
}