{"abi":[{"type":"constructor","inputs":[{"name":"mockName","type":"string","internalType":"string"},{"name":"mockSymbol","type":"string","internalType":"string"},{"name":"owner","type":"address","internalType":"address"}],"stateMutability":"nonpayable"},{"type":"receive","stateMutability":"payable"},{"type":"function","name":"allowance","inputs":[{"name":"","type":"address","internalType":"address"},{"name":"","type":"address","internalType":"address"}],"outputs":[{"name":"","type":"uint256","internalType":"uint256"}],"stateMutability":"view"},{"type":"function","name":"approve","inputs":[{"name":"guy","type":"address","internalType":"address"},{"name":"wad","type":"uint256","internalType":"uint256"}],"outputs":[{"name":"","type":"bool","internalType":"bool"}],"stateMutability":"nonpayable"},{"type":"function","name":"balanceOf","inputs":[{"name":"","type":"address","internalType":"address"}],"outputs":[{"name":"","type":"uint256","internalType":"uint256"}],"stateMutability":"view"},{"type":"function","name":"decimals","inputs":[],"outputs":[{"name":"","type":"uint8","internalType":"uint8"}],"stateMutability":"view"},{"type":"function","name":"deposit","inputs":[],"outputs":[],"stateMutability":"payable"},{"type":"function","name":"mint","inputs":[{"name":"account","type":"address","internalType":"address"},{"name":"value","type":"uint256","internalType":"uint256"}],"outputs":[{"name":"","type":"bool","internalType":"bool"}],"stateMutability":"nonpayable"},{"type":"function","name":"name","inputs":[],"outputs":[{"name":"","type":"string","internalType":"string"}],"stateMutability":"view"},{"type":"function","name":"owner","inputs":[],"outputs":[{"name":"","type":"address","internalType":"address"}],"stateMutability":"view"},{"type":"function","name":"renounceOwnership","inputs":[],"outputs":[],"stateMutability":"nonpayable"},{"type":"function","name":"symbol","inputs":[],"outputs":[{"name":"","type":"string","internalType":"string"}],"stateMutability":"view"},{"type":"function","name":"totalSupply","inputs":[],"outputs":[{"name":"","type":"uint256","internalType":"uint256"}],"stateMutability":"view"},{"type":"function","name":"transfer","inputs":[{"name":"dst","type":"address","internalType":"address"},{"name":"wad","type":"uint256","internalType":"uint256"}],"outputs":[{"name":"","type":"bool","internalType":"bool"}],"stateMutability":"nonpayable"},{"type":"function","name":"transferFrom","inputs":[{"name":"src","type":"address","internalType":"address"},{"name":"dst","type":"address","internalType":"address"},{"name":"wad","type":"uint256","internalType":"uint256"}],"outputs":[{"name":"","type":"bool","internalType":"bool"}],"stateMutability":"nonpayable"},{"type":"function","name":"transferOwnership","inputs":[{"name":"newOwner","type":"address","internalType":"address"}],"outputs":[],"stateMutability":"nonpayable"},{"type":"function","name":"withdraw","inputs":[{"name":"wad","type":"uint256","internalType":"uint256"}],"outputs":[],"stateMutability":"nonpayable"},{"type":"event","name":"Approval","inputs":[{"name":"src","type":"address","indexed":true,"internalType":"address"},{"name":"guy","type":"address","indexed":true,"internalType":"address"},{"name":"wad","type":"uint256","indexed":false,"internalType":"uint256"}],"anonymous":false},{"type":"event","name":"Deposit","inputs":[{"name":"dst","type":"address","indexed":true,"internalType":"address"},{"name":"wad","type":"uint256","indexed":false,"internalType":"uint256"}],"anonymous":false},{"type":"event","name":"OwnershipTransferred","inputs":[{"name":"previousOwner","type":"address","indexed":true,"internalType":"address"},{"name":"newOwner","type":"address","indexed":true,"internalType":"address"}],"anonymous":false},{"type":"event","name":"Transfer","inputs":[{"name":"src","type":"address","indexed":true,"internalType":"address"},{"name":"dst","type":"address","indexed":true,"internalType":"address"},{"name":"wad","type":"uint256","indexed":false,"internalType":"uint256"}],"anonymous":false},{"type":"event","name":"Withdrawal","inputs":[{"name":"src","type":"address","indexed":true,"internalType":"address"},{"name":"wad","type":"uint256","indexed":false,"internalType":"uint256"}],"anonymous":false}],"bytecode":{"object":"0x60c0604052600d60809081526c2bb930b83832b21022ba3432b960991b60a0525f906200002d9082620002a6565b506040805180820190915260048152630ae8aa8960e31b6020820152600190620000589082620002a6565b506002805460ff1916601217905534801562000072575f80fd5b5060405162000f1d38038062000f1d833981016040819052620000959162000418565b600580546001600160a01b0319163390811790915560405181905f905f8051602062000efd833981519152908290a3505f620000d28482620002a6565b506001620000e18382620002a6565b50620000ed81620000f6565b5050506200049f565b6005546001600160a01b03163314620001565760405162461bcd60e51b815260206004820181905260248201527f4f776e61626c653a2063616c6c6572206973206e6f7420746865206f776e657260448201526064015b60405180910390fd5b6001600160a01b038116620001bd5760405162461bcd60e51b815260206004820152602660248201527f4f776e61626c653a206e6577206f776e657220697320746865207a65726f206160448201526564647265737360d01b60648201526084016200014d565b6005546040516001600160a01b038084169216905f8051602062000efd833981519152905f90a3600580546001600160a01b0319166001600160a01b0392909216919091179055565b634e487b7160e01b5f52604160045260245ffd5b600181811c908216806200022f57607f821691505b6020821081036200024e57634e487b7160e01b5f52602260045260245ffd5b50919050565b601f821115620002a1575f81815260208120601f850160051c810160208610156200027c5750805b601f850160051c820191505b818110156200029d5782815560010162000288565b5050505b505050565b81516001600160401b03811115620002c257620002c262000206565b620002da81620002d384546200021a565b8462000254565b602080601f83116001811462000310575f8415620002f85750858301515b5f19600386901b1c1916600185901b1785556200029d565b5f85815260208120601f198616915b8281101562000340578886015182559484019460019091019084016200031f565b50858210156200035e57878501515f19600388901b60f8161c191681555b5050505050600190811b01905550565b5f82601f8301126200037e575f80fd5b81516001600160401b03808211156200039b576200039b62000206565b604051601f8301601f19908116603f01168101908282118183101715620003c657620003c662000206565b81604052838152602092508683858801011115620003e2575f80fd5b5f91505b83821015620004055785820183015181830184015290820190620003e6565b5f93810190920192909252949350505050565b5f805f606084860312156200042b575f80fd5b83516001600160401b038082111562000442575f80fd5b62000450878388016200036e565b9450602086015191508082111562000466575f80fd5b5062000475868287016200036e565b604086015190935090506001600160a01b038116811462000494575f80fd5b809150509250925092565b610a5080620004ad5f395ff3fe6080604052600436106100e7575f3560e01c806370a0823111610087578063a9059cbb11610057578063a9059cbb14610271578063d0e30db014610290578063dd62ed3e14610298578063f2fde38b146102ce575f80fd5b806370a08231146101f7578063715018a6146102225780638da5cb5b1461023657806395d89b411461025d575f80fd5b806323b872dd116100c257806323b872dd1461016f5780632e1a7d4d1461018e578063313ce567146101ad57806340c10f19146101d8575f80fd5b806306fdde03146100fa578063095ea7b31461012457806318160ddd14610153575f80fd5b366100f6576100f46102ed565b005b5f80fd5b348015610105575f80fd5b5061010e610347565b60405161011b9190610874565b60405180910390f35b34801561012f575f80fd5b5061014361013e3660046108da565b6103d2565b604051901515815260200161011b565b34801561015e575f80fd5b50475b60405190815260200161011b565b34801561017a575f80fd5b50610143610189366004610902565b61043e565b348015610199575f80fd5b506100f46101a836600461093b565b6105b9565b3480156101b8575f80fd5b506002546101c69060ff1681565b60405160ff909116815260200161011b565b3480156101e3575f80fd5b506101436101f23660046108da565b610659565b348015610202575f80fd5b50610161610211366004610952565b60036020525f908152604090205481565b34801561022d575f80fd5b506100f46106f7565b348015610241575f80fd5b506005546040516001600160a01b03909116815260200161011b565b348015610268575f80fd5b5061010e61076a565b34801561027c575f80fd5b5061014361028b3660046108da565b610777565b6100f46102ed565b3480156102a3575f80fd5b506101616102b236600461096b565b600460209081525f928352604080842090915290825290205481565b3480156102d9575f80fd5b506100f46102e8366004610952565b61078a565b335f908152600360205260408120805434929061030b9084906109b0565b909155505060405134815233907fe1fffcc4923d04b559f4d29a8bfc6cda04eb5b0d3c460751c2402c5c5cc9109c9060200160405180910390a2565b5f8054610353906109c3565b80601f016020809104026020016040519081016040528092919081815260200182805461037f906109c3565b80156103ca5780601f106103a1576101008083540402835291602001916103ca565b820191905f5260205f20905b8154815290600101906020018083116103ad57829003601f168201915b505050505081565b335f8181526004602090815260408083206001600160a01b038716808552925280832085905551919290917f8c5be1e5ebec7d5bd14f71427d1e84f3dd0314c0f7b2291e5b200ac8c7c3b9259061042c9086815260200190565b60405180910390a35060015b92915050565b6001600160a01b0383165f90815260036020526040812054821115610461575f80fd5b6001600160a01b038416331480159061049d57506001600160a01b0384165f9081526004602090815260408083203384529091529020545f1914155b15610508576001600160a01b0384165f9081526004602090815260408083203384529091529020548211156104d0575f80fd5b6001600160a01b0384165f908152600460209081526040808320338452909152812080548492906105029084906109fb565b90915550505b6001600160a01b0384165f908152600360205260408120805484929061052f9084906109fb565b90915550506001600160a01b0383165f908152600360205260408120805484929061055b9084906109b0565b92505081905550826001600160a01b0316846001600160a01b03167fddf252ad1be2c89b69c2b068fc378daa952ba7f163c4a11628f55a4df523b3ef846040516105a791815260200190565b60405180910390a35060019392505050565b335f908152600360205260409020548111156105d3575f80fd5b335f90815260036020526040812080548392906105f19084906109fb565b9091555050604051339082156108fc029083905f818181858888f19350505050158015610620573d5f803e3d5ffd5b5060405181815233907f7fcf532c15f0a6db0bd6d0e038bea71d30d808c7d98cb3bf7268a95bf5081b659060200160405180910390a250565b6005545f906001600160a01b0316331461068e5760405162461bcd60e51b815260040161068590610a0e565b60405180910390fd5b6001600160a01b0383165f90815260036020526040812080548492906106b59084906109b0565b90915550506040518281526001600160a01b038416905f907fddf252ad1be2c89b69c2b068fc378daa952ba7f163c4a11628f55a4df523b3ef9060200161042c565b6005546001600160a01b031633146107215760405162461bcd60e51b815260040161068590610a0e565b6005546040515f916001600160a01b0316907f8be0079c531659141344cd1fd0a4f28419497f9722a3daafe3b4186f6b6457e0908390a3600580546001600160a01b0319169055565b60018054610353906109c3565b5f61078333848461043e565b9392505050565b6005546001600160a01b031633146107b45760405162461bcd60e51b815260040161068590610a0e565b6001600160a01b0381166108195760405162461bcd60e51b815260206004820152602660248201527f4f776e61626c653a206e6577206f776e657220697320746865207a65726f206160448201526564647265737360d01b6064820152608401610685565b6005546040516001600160a01b038084169216907f8be0079c531659141344cd1fd0a4f28419497f9722a3daafe3b4186f6b6457e0905f90a3600580546001600160a01b0319166001600160a01b0392909216919091179055565b5f6020808352835180828501525f5b8181101561089f57858101830151858201604001528201610883565b505f604082860101526040601f19601f8301168501019250505092915050565b80356001600160a01b03811681146108d5575f80fd5b919050565b5f80604083850312156108eb575f80fd5b6108f4836108bf565b946020939093013593505050565b5f805f60608486031215610914575f80fd5b61091d846108bf565b925061092b602085016108bf565b9150604084013590509250925092565b5f6020828403121561094b575f80fd5b5035919050565b5f60208284031215610962575f80fd5b610783826108bf565b5f806040838503121561097c575f80fd5b610985836108bf565b9150610993602084016108bf565b90509250929050565b634e487b7160e01b5f52601160045260245ffd5b808201808211156104385761043861099c565b600181811c908216806109d757607f821691505b6020821081036109f557634e487b7160e01b5f52602260045260245ffd5b50919050565b818103818111156104385761043861099c565b6020808252818101527f4f776e61626c653a2063616c6c6572206973206e6f7420746865206f776e657260408201526060019056fea164736f6c6343000814000a8be0079c531659141344cd1fd0a4f28419497f9722a3daafe3b4186f6b6457e0","linkReferences":{}},"methodIdentifiers":{"allowance(address,address)":"dd62ed3e","approve(address,uint256)":"095ea7b3","balanceOf(address)":"70a08231","decimals()":"313ce567","deposit()":"d0e30db0","mint(address,uint256)":"40c10f19","name()":"06fdde03","owner()":"8da5cb5b","renounceOwnership()":"715018a6","symbol()":"95d89b41","totalSupply()":"18160ddd","transfer(address,uint256)":"a9059cbb","transferFrom(address,address,uint256)":"23b872dd","transferOwnership(address)":"f2fde38b","withdraw(uint256)":"2e1a7d4d"},"id":181}