{
  "_format": "hh-sol-artifact-1",
  "contractName": "AaveOracle",
  "sourceName": "contracts/misc/AaveOracle.sol",
  "abi": [
    {
      "inputs": [
        {
          "internalType": "address[]",
          "name": "assets",
          "type": "address[]"
        },
        {
          "internalType": "address[]",
          "name": "sources",
          "type": "address[]"
        },
        {
          "internalType": "address",
          "name": "fallbackOracle",
          "type": "address"
        },
        {
          "internalType": "address",
          "name": "baseCurrency",
          "type": "address"
        },
        {
          "internalType": "uint256",
          "name": "baseCurrencyUnit",
          "type": "uint256"
        }
      ],
      "stateMutability": "nonpayable",
      "type": "constructor"
    },
    {
      "anonymous": false,
      "inputs": [
        {
          "indexed": true,
          "internalType": "address",
          "name": "asset",
          "type": "address"
        },
        {
          "indexed": true,
          "internalType": "address",
          "name": "source",
          "type": "address"
        }
      ],
      "name": "AssetSourceUpdated",
      "type": "event"
    },
    {
      "anonymous": false,
      "inputs": [
        {
          "indexed": true,
          "internalType": "address",
          "name": "baseCurrency",
          "type": "address"
        },
        {
          "indexed": false,
          "internalType": "uint256",
          "name": "baseCurrencyUnit",
          "type": "uint256"
        }
      ],
      "name": "BaseCurrencySet",
      "type": "event"
    },
    {
      "anonymous": false,
      "inputs": [
        {
          "indexed": true,
          "internalType": "address",
          "name": "fallbackOracle",
          "type": "address"
        }
      ],
      "name": "FallbackOracleUpdated",
      "type": "event"
    },
    {
      "anonymous": false,
      "inputs": [
        {
          "indexed": true,
          "internalType": "address",
          "name": "previousOwner",
          "type": "address"
        },
        {
          "indexed": true,
          "internalType": "address",
          "name": "newOwner",
          "type": "address"
        }
      ],
      "name": "OwnershipTransferred",
      "type": "event"
    },
    {
      "inputs": [],
      "name": "BASE_CURRENCY",
      "outputs": [
        {
          "internalType": "address",
          "name": "",
          "type": "address"
        }
      ],
      "stateMutability": "view",
      "type": "function"
    },
    {
      "inputs": [],
      "name": "BASE_CURRENCY_UNIT",
      "outputs": [
        {
          "internalType": "uint256",
          "name": "",
          "type": "uint256"
        }
      ],
      "stateMutability": "view",
      "type": "function"
    },
    {
      "inputs": [
        {
          "internalType": "address",
          "name": "asset",
          "type": "address"
        }
      ],
      "name": "getAssetPrice",
      "outputs": [
        {
          "internalType": "uint256",
          "name": "",
          "type": "uint256"
        }
      ],
      "stateMutability": "view",
      "type": "function"
    },
    {
      "inputs": [
        {
          "internalType": "address[]",
          "name": "assets",
          "type": "address[]"
        }
      ],
      "name": "getAssetsPrices",
      "outputs": [
        {
          "internalType": "uint256[]",
          "name": "",
          "type": "uint256[]"
        }
      ],
      "stateMutability": "view",
      "type": "function"
    },
    {
      "inputs": [],
      "name": "getFallbackOracle",
      "outputs": [
        {
          "internalType": "address",
          "name": "",
          "type": "address"
        }
      ],
      "stateMutability": "view",
      "type": "function"
    },
    {
      "inputs": [
        {
          "internalType": "address",
          "name": "asset",
          "type": "address"
        }
      ],
      "name": "getSourceOfAsset",
      "outputs": [
        {
          "internalType": "address",
          "name": "",
          "type": "address"
        }
      ],
      "stateMutability": "view",
      "type": "function"
    },
    {
      "inputs": [],
      "name": "owner",
      "outputs": [
        {
          "internalType": "address",
          "name": "",
          "type": "address"
        }
      ],
      "stateMutability": "view",
      "type": "function"
    },
    {
      "inputs": [],
      "name": "renounceOwnership",
      "outputs": [],
      "stateMutability": "nonpayable",
      "type": "function"
    },
    {
      "inputs": [
        {
          "internalType": "address[]",
          "name": "assets",
          "type": "address[]"
        },
        {
          "internalType": "address[]",
          "name": "sources",
          "type": "address[]"
        }
      ],
      "name": "setAssetSources",
      "outputs": [],
      "stateMutability": "nonpayable",
      "type": "function"
    },
    {
      "inputs": [
        {
          "internalType": "address",
          "name": "fallbackOracle",
          "type": "address"
        }
      ],
      "name": "setFallbackOracle",
      "outputs": [],
      "stateMutability": "nonpayable",
      "type": "function"
    },
    {
      "inputs": [
        {
          "internalType": "address",
          "name": "newOwner",
          "type": "address"
        }
      ],
      "name": "transferOwnership",
      "outputs": [],
      "stateMutability": "nonpayable",
      "type": "function"
    }
  ],
  "bytecode": "0x60c06040523480156200001157600080fd5b5060405162000f2238038062000f22833981810160405260a08110156200003757600080fd5b81019080805160405193929190846401000000008211156200005857600080fd5b9083019060208201858111156200006e57600080fd5b82518660208202830111640100000000821117156200008c57600080fd5b82525081516020918201928201910280838360005b83811015620000bb578181015183820152602001620000a1565b5050505090500160405260200180516040519392919084640100000000821115620000e557600080fd5b908301906020820185811115620000fb57600080fd5b82518660208202830111640100000000821117156200011957600080fd5b82525081516020918201928201910280838360005b83811015620001485781810151838201526020016200012e565b5050505091909101604090815260208301519083015160609093015190945091925060009050620001786200023a565b600080546001600160a01b0319166001600160a01b0383169081178255604051929350917f8be0079c531659141344cd1fd0a4f28419497f9722a3daafe3b4186f6b6457e0908290a350620001cd836200023e565b620001d9858562000288565b6001600160601b0319606083901b1660805260a08190526040805182815290516001600160a01b038416917fe27c4c1372396a3d15a9922f74f9dfc7c72b1ad6d63868470787249c356454c1919081900360200190a25050505050620003d4565b3390565b600280546001600160a01b0319166001600160a01b0383169081179091556040517fce7a780d33665b1ea097af5f155e3821b809ecbaa839d3b33aa83ba28168cefb90600090a250565b8051825114620002df576040805162461bcd60e51b815260206004820152601a60248201527f494e434f4e53495354454e545f504152414d535f4c454e475448000000000000604482015290519081900360640190fd5b60005b8251811015620003cf57818181518110620002f957fe5b6020026020010151600160008584815181106200031257fe5b60200260200101516001600160a01b03166001600160a01b0316815260200190815260200160002060006101000a8154816001600160a01b0302191690836001600160a01b031602179055508181815181106200036b57fe5b60200260200101516001600160a01b03168382815181106200038957fe5b60200260200101516001600160a01b03167f22c5b7b2d8561d39f7f210b6b326a1aa69f15311163082308ac4877db6339dc160405160405180910390a3600101620002e2565b505050565b60805160601c60a051610b1d6200040560003980610437528061063d52508061061352806107f45250610b1d6000f3fe608060405234801561001057600080fd5b50600436106100a95760003560e01c806392bf2be01161007157806392bf2be0146101245780639d23d9f21461014a578063abfd53101461020a578063b3596f07146102cc578063e19f4700146102f2578063f2fde38b146102fa576100a9565b8063170aee73146100ae5780636210308c146100d6578063715018a6146100fa5780638c89b64f146101025780638da5cb5b1461011c575b600080fd5b6100d4600480360360208110156100c457600080fd5b50356001600160a01b0316610320565b005b6100de610384565b604080516001600160a01b039092168252519081900360200190f35b6100d4610393565b61010a610435565b60408051918252519081900360200190f35b6100de610459565b6100de6004803603602081101561013a57600080fd5b50356001600160a01b0316610468565b6101ba6004803603602081101561016057600080fd5b81019060208101813564010000000081111561017b57600080fd5b82018360208201111561018d57600080fd5b803590602001918460208302840111640100000000831117156101af57600080fd5b509092509050610489565b60408051602080825283518183015283519192839290830191858101910280838360005b838110156101f65781810151838201526020016101de565b505050509050019250505060405180910390f35b6100d46004803603604081101561022057600080fd5b81019060208101813564010000000081111561023b57600080fd5b82018360208201111561024d57600080fd5b8035906020019184602083028401116401000000008311171561026f57600080fd5b91939092909160208101903564010000000081111561028d57600080fd5b82018360208201111561029f57600080fd5b803590602001918460208302840111640100000000831117156102c157600080fd5b509092509050610526565b61010a600480360360208110156102e257600080fd5b50356001600160a01b03166105f1565b6100de6107f2565b6100d46004803603602081101561031057600080fd5b50356001600160a01b0316610816565b61032861090e565b6000546001600160a01b03908116911614610378576040805162461bcd60e51b81526020600482018190526024820152600080516020610ac8833981519152604482015290519081900360640190fd5b61038181610912565b50565b6002546001600160a01b031690565b61039b61090e565b6000546001600160a01b039081169116146103eb576040805162461bcd60e51b81526020600482018190526024820152600080516020610ac8833981519152604482015290519081900360640190fd5b600080546040516001600160a01b03909116907f8be0079c531659141344cd1fd0a4f28419497f9722a3daafe3b4186f6b6457e0908390a3600080546001600160a01b0319169055565b7f000000000000000000000000000000000000000000000000000000000000000081565b6000546001600160a01b031690565b6001600160a01b03808216600090815260016020526040902054165b919050565b6060808267ffffffffffffffff811180156104a357600080fd5b506040519080825280602002602001820160405280156104cd578160200160208202803683370190505b50905060005b8381101561051e576104ff8585838181106104ea57fe5b905060200201356001600160a01b03166105f1565b82828151811061050b57fe5b60209081029190910101526001016104d3565b509392505050565b61052e61090e565b6000546001600160a01b0390811691161461057e576040805162461bcd60e51b81526020600482018190526024820152600080516020610ac8833981519152604482015290519081900360640190fd5b6105eb8484808060200260200160405190810160405280939291908181526020018383602002808284376000920191909152505060408051602080880282810182019093528782529093508792508691829185019084908082843760009201919091525061095c92505050565b50505050565b6001600160a01b038082166000818152600160205260408120549092908116917f00000000000000000000000000000000000000000000000000000000000000009091161415610664577f0000000000000000000000000000000000000000000000000000000000000000915050610484565b6001600160a01b0381166106f4576002546040805163b3596f0760e01b81526001600160a01b0386811660048301529151919092169163b3596f07916024808301926020929190829003018186803b1580156106bf57600080fd5b505afa1580156106d3573d6000803e3d6000fd5b505050506040513d60208110156106e957600080fd5b505191506104849050565b6000816001600160a01b03166350d25bcd6040518163ffffffff1660e01b815260040160206040518083038186803b15801561072f57600080fd5b505afa158015610743573d6000803e3d6000fd5b505050506040513d602081101561075957600080fd5b50519050600081131561076f5791506104849050565b6002546040805163b3596f0760e01b81526001600160a01b0387811660048301529151919092169163b3596f07916024808301926020929190829003018186803b1580156107bc57600080fd5b505afa1580156107d0573d6000803e3d6000fd5b505050506040513d60208110156107e657600080fd5b50519250610484915050565b7f000000000000000000000000000000000000000000000000000000000000000081565b61081e61090e565b6000546001600160a01b0390811691161461086e576040805162461bcd60e51b81526020600482018190526024820152600080516020610ac8833981519152604482015290519081900360640190fd5b6001600160a01b0381166108b35760405162461bcd60e51b8152600401808060200182810382526026815260200180610aa26026913960400191505060405180910390fd5b600080546040516001600160a01b03808516939216917f8be0079c531659141344cd1fd0a4f28419497f9722a3daafe3b4186f6b6457e091a3600080546001600160a01b0319166001600160a01b0392909216919091179055565b3390565b600280546001600160a01b0319166001600160a01b0383169081179091556040517fce7a780d33665b1ea097af5f155e3821b809ecbaa839d3b33aa83ba28168cefb90600090a250565b80518251146109b2576040805162461bcd60e51b815260206004820152601a60248201527f494e434f4e53495354454e545f504152414d535f4c454e475448000000000000604482015290519081900360640190fd5b60005b8251811015610a9c578181815181106109ca57fe5b6020026020010151600160008584815181106109e257fe5b60200260200101516001600160a01b03166001600160a01b0316815260200190815260200160002060006101000a8154816001600160a01b0302191690836001600160a01b03160217905550818181518110610a3a57fe5b60200260200101516001600160a01b0316838281518110610a5757fe5b60200260200101516001600160a01b03167f22c5b7b2d8561d39f7f210b6b326a1aa69f15311163082308ac4877db6339dc160405160405180910390a36001016109b5565b50505056fe4f776e61626c653a206e6577206f776e657220697320746865207a65726f20616464726573734f776e61626c653a2063616c6c6572206973206e6f7420746865206f776e6572a2646970667358221220eb57f0f25d819c5e0f2a38b68292d8ef783d86dd75dea94e4aca3442859c7f0564736f6c634300060c0033",
  "linkReferences": {},
  "deployedLinkReferences": {}
}