{
  "_format": "hh-sol-artifact-1",
  "contractName": "Errors",
  "sourceName": "contracts/protocol/libraries/helpers/Errors.sol",
  "abi": [
    {
      "inputs": [],
      "name": "BORROW_ALLOWANCE_NOT_ENOUGH",
      "outputs": [
        {
          "internalType": "string",
          "name": "",
          "type": "string"
        }
      ],
      "stateMutability": "view",
      "type": "function"
    },
    {
      "inputs": [],
      "name": "CALLER_NOT_POOL_ADMIN",
      "outputs": [
        {
          "internalType": "string",
          "name": "",
          "type": "string"
        }
      ],
      "stateMutability": "view",
      "type": "function"
    },
    {
      "inputs": [],
      "name": "CT_CALLER_MUST_BE_LENDING_POOL",
      "outputs": [
        {
          "internalType": "string",
          "name": "",
          "type": "string"
        }
      ],
      "stateMutability": "view",
      "type": "function"
    },
    {
      "inputs": [],
      "name": "CT_CANNOT_GIVE_ALLOWANCE_TO_HIMSELF",
      "outputs": [
        {
          "internalType": "string",
          "name": "",
          "type": "string"
        }
      ],
      "stateMutability": "view",
      "type": "function"
    },
    {
      "inputs": [],
      "name": "CT_INVALID_BURN_AMOUNT",
      "outputs": [
        {
          "internalType": "string",
          "name": "",
          "type": "string"
        }
      ],
      "stateMutability": "view",
      "type": "function"
    },
    {
      "inputs": [],
      "name": "CT_INVALID_MINT_AMOUNT",
      "outputs": [
        {
          "internalType": "string",
          "name": "",
          "type": "string"
        }
      ],
      "stateMutability": "view",
      "type": "function"
    },
    {
      "inputs": [],
      "name": "CT_TRANSFER_AMOUNT_NOT_GT_0",
      "outputs": [
        {
          "internalType": "string",
          "name": "",
          "type": "string"
        }
      ],
      "stateMutability": "view",
      "type": "function"
    },
    {
      "inputs": [],
      "name": "LPAPR_INVALID_ADDRESSES_PROVIDER_ID",
      "outputs": [
        {
          "internalType": "string",
          "name": "",
          "type": "string"
        }
      ],
      "stateMutability": "view",
      "type": "function"
    },
    {
      "inputs": [],
      "name": "LPAPR_PROVIDER_NOT_REGISTERED",
      "outputs": [
        {
          "internalType": "string",
          "name": "",
          "type": "string"
        }
      ],
      "stateMutability": "view",
      "type": "function"
    },
    {
      "inputs": [],
      "name": "LPCM_COLLATERAL_CANNOT_BE_LIQUIDATED",
      "outputs": [
        {
          "internalType": "string",
          "name": "",
          "type": "string"
        }
      ],
      "stateMutability": "view",
      "type": "function"
    },
    {
      "inputs": [],
      "name": "LPCM_HEALTH_FACTOR_NOT_BELOW_THRESHOLD",
      "outputs": [
        {
          "internalType": "string",
          "name": "",
          "type": "string"
        }
      ],
      "stateMutability": "view",
      "type": "function"
    },
    {
      "inputs": [],
      "name": "LPCM_NOT_ENOUGH_LIQUIDITY_TO_LIQUIDATE",
      "outputs": [
        {
          "internalType": "string",
          "name": "",
          "type": "string"
        }
      ],
      "stateMutability": "view",
      "type": "function"
    },
    {
      "inputs": [],
      "name": "LPCM_NO_ERRORS",
      "outputs": [
        {
          "internalType": "string",
          "name": "",
          "type": "string"
        }
      ],
      "stateMutability": "view",
      "type": "function"
    },
    {
      "inputs": [],
      "name": "LPCM_SPECIFIED_CURRENCY_NOT_BORROWED_BY_USER",
      "outputs": [
        {
          "internalType": "string",
          "name": "",
          "type": "string"
        }
      ],
      "stateMutability": "view",
      "type": "function"
    },
    {
      "inputs": [],
      "name": "LPC_CALLER_NOT_EMERGENCY_ADMIN",
      "outputs": [
        {
          "internalType": "string",
          "name": "",
          "type": "string"
        }
      ],
      "stateMutability": "view",
      "type": "function"
    },
    {
      "inputs": [],
      "name": "LPC_INVALID_ADDRESSES_PROVIDER_ID",
      "outputs": [
        {
          "internalType": "string",
          "name": "",
          "type": "string"
        }
      ],
      "stateMutability": "view",
      "type": "function"
    },
    {
      "inputs": [],
      "name": "LPC_INVALID_ATOKEN_POOL_ADDRESS",
      "outputs": [
        {
          "internalType": "string",
          "name": "",
          "type": "string"
        }
      ],
      "stateMutability": "view",
      "type": "function"
    },
    {
      "inputs": [],
      "name": "LPC_INVALID_CONFIGURATION",
      "outputs": [
        {
          "internalType": "string",
          "name": "",
          "type": "string"
        }
      ],
      "stateMutability": "view",
      "type": "function"
    },
    {
      "inputs": [],
      "name": "LPC_INVALID_STABLE_DEBT_TOKEN_POOL_ADDRESS",
      "outputs": [
        {
          "internalType": "string",
          "name": "",
          "type": "string"
        }
      ],
      "stateMutability": "view",
      "type": "function"
    },
    {
      "inputs": [],
      "name": "LPC_INVALID_STABLE_DEBT_TOKEN_UNDERLYING_ADDRESS",
      "outputs": [
        {
          "internalType": "string",
          "name": "",
          "type": "string"
        }
      ],
      "stateMutability": "view",
      "type": "function"
    },
    {
      "inputs": [],
      "name": "LPC_INVALID_VARIABLE_DEBT_TOKEN_POOL_ADDRESS",
      "outputs": [
        {
          "internalType": "string",
          "name": "",
          "type": "string"
        }
      ],
      "stateMutability": "view",
      "type": "function"
    },
    {
      "inputs": [],
      "name": "LPC_INVALID_VARIABLE_DEBT_TOKEN_UNDERLYING_ADDRESS",
      "outputs": [
        {
          "internalType": "string",
          "name": "",
          "type": "string"
        }
      ],
      "stateMutability": "view",
      "type": "function"
    },
    {
      "inputs": [],
      "name": "LPC_RESERVE_LIQUIDITY_NOT_0",
      "outputs": [
        {
          "internalType": "string",
          "name": "",
          "type": "string"
        }
      ],
      "stateMutability": "view",
      "type": "function"
    },
    {
      "inputs": [],
      "name": "LP_CALLER_MUST_BE_AN_ATOKEN",
      "outputs": [
        {
          "internalType": "string",
          "name": "",
          "type": "string"
        }
      ],
      "stateMutability": "view",
      "type": "function"
    },
    {
      "inputs": [],
      "name": "LP_CALLER_NOT_LENDING_POOL_CONFIGURATOR",
      "outputs": [
        {
          "internalType": "string",
          "name": "",
          "type": "string"
        }
      ],
      "stateMutability": "view",
      "type": "function"
    },
    {
      "inputs": [],
      "name": "LP_FAILED_COLLATERAL_SWAP",
      "outputs": [
        {
          "internalType": "string",
          "name": "",
          "type": "string"
        }
      ],
      "stateMutability": "view",
      "type": "function"
    },
    {
      "inputs": [],
      "name": "LP_FAILED_REPAY_WITH_COLLATERAL",
      "outputs": [
        {
          "internalType": "string",
          "name": "",
          "type": "string"
        }
      ],
      "stateMutability": "view",
      "type": "function"
    },
    {
      "inputs": [],
      "name": "LP_INCONSISTENT_FLASHLOAN_PARAMS",
      "outputs": [
        {
          "internalType": "string",
          "name": "",
          "type": "string"
        }
      ],
      "stateMutability": "view",
      "type": "function"
    },
    {
      "inputs": [],
      "name": "LP_INCONSISTENT_PARAMS_LENGTH",
      "outputs": [
        {
          "internalType": "string",
          "name": "",
          "type": "string"
        }
      ],
      "stateMutability": "view",
      "type": "function"
    },
    {
      "inputs": [],
      "name": "LP_INCONSISTENT_PROTOCOL_ACTUAL_BALANCE",
      "outputs": [
        {
          "internalType": "string",
          "name": "",
          "type": "string"
        }
      ],
      "stateMutability": "view",
      "type": "function"
    },
    {
      "inputs": [],
      "name": "LP_INTEREST_RATE_REBALANCE_CONDITIONS_NOT_MET",
      "outputs": [
        {
          "internalType": "string",
          "name": "",
          "type": "string"
        }
      ],
      "stateMutability": "view",
      "type": "function"
    },
    {
      "inputs": [],
      "name": "LP_INVALID_EQUAL_ASSETS_TO_SWAP",
      "outputs": [
        {
          "internalType": "string",
          "name": "",
          "type": "string"
        }
      ],
      "stateMutability": "view",
      "type": "function"
    },
    {
      "inputs": [],
      "name": "LP_INVALID_FLASHLOAN_MODE",
      "outputs": [
        {
          "internalType": "string",
          "name": "",
          "type": "string"
        }
      ],
      "stateMutability": "view",
      "type": "function"
    },
    {
      "inputs": [],
      "name": "LP_INVALID_FLASH_LOAN_EXECUTOR_RETURN",
      "outputs": [
        {
          "internalType": "string",
          "name": "",
          "type": "string"
        }
      ],
      "stateMutability": "view",
      "type": "function"
    },
    {
      "inputs": [],
      "name": "LP_IS_PAUSED",
      "outputs": [
        {
          "internalType": "string",
          "name": "",
          "type": "string"
        }
      ],
      "stateMutability": "view",
      "type": "function"
    },
    {
      "inputs": [],
      "name": "LP_LIQUIDATION_CALL_FAILED",
      "outputs": [
        {
          "internalType": "string",
          "name": "",
          "type": "string"
        }
      ],
      "stateMutability": "view",
      "type": "function"
    },
    {
      "inputs": [],
      "name": "LP_NOT_CONTRACT",
      "outputs": [
        {
          "internalType": "string",
          "name": "",
          "type": "string"
        }
      ],
      "stateMutability": "view",
      "type": "function"
    },
    {
      "inputs": [],
      "name": "LP_NOT_ENOUGH_LIQUIDITY_TO_BORROW",
      "outputs": [
        {
          "internalType": "string",
          "name": "",
          "type": "string"
        }
      ],
      "stateMutability": "view",
      "type": "function"
    },
    {
      "inputs": [],
      "name": "LP_NOT_ENOUGH_STABLE_BORROW_BALANCE",
      "outputs": [
        {
          "internalType": "string",
          "name": "",
          "type": "string"
        }
      ],
      "stateMutability": "view",
      "type": "function"
    },
    {
      "inputs": [],
      "name": "LP_NO_MORE_RESERVES_ALLOWED",
      "outputs": [
        {
          "internalType": "string",
          "name": "",
          "type": "string"
        }
      ],
      "stateMutability": "view",
      "type": "function"
    },
    {
      "inputs": [],
      "name": "LP_REENTRANCY_NOT_ALLOWED",
      "outputs": [
        {
          "internalType": "string",
          "name": "",
          "type": "string"
        }
      ],
      "stateMutability": "view",
      "type": "function"
    },
    {
      "inputs": [],
      "name": "LP_REQUESTED_AMOUNT_TOO_SMALL",
      "outputs": [
        {
          "internalType": "string",
          "name": "",
          "type": "string"
        }
      ],
      "stateMutability": "view",
      "type": "function"
    },
    {
      "inputs": [],
      "name": "MATH_ADDITION_OVERFLOW",
      "outputs": [
        {
          "internalType": "string",
          "name": "",
          "type": "string"
        }
      ],
      "stateMutability": "view",
      "type": "function"
    },
    {
      "inputs": [],
      "name": "MATH_DIVISION_BY_ZERO",
      "outputs": [
        {
          "internalType": "string",
          "name": "",
          "type": "string"
        }
      ],
      "stateMutability": "view",
      "type": "function"
    },
    {
      "inputs": [],
      "name": "MATH_MULTIPLICATION_OVERFLOW",
      "outputs": [
        {
          "internalType": "string",
          "name": "",
          "type": "string"
        }
      ],
      "stateMutability": "view",
      "type": "function"
    },
    {
      "inputs": [],
      "name": "RC_INVALID_DECIMALS",
      "outputs": [
        {
          "internalType": "string",
          "name": "",
          "type": "string"
        }
      ],
      "stateMutability": "view",
      "type": "function"
    },
    {
      "inputs": [],
      "name": "RC_INVALID_LIQ_BONUS",
      "outputs": [
        {
          "internalType": "string",
          "name": "",
          "type": "string"
        }
      ],
      "stateMutability": "view",
      "type": "function"
    },
    {
      "inputs": [],
      "name": "RC_INVALID_LIQ_THRESHOLD",
      "outputs": [
        {
          "internalType": "string",
          "name": "",
          "type": "string"
        }
      ],
      "stateMutability": "view",
      "type": "function"
    },
    {
      "inputs": [],
      "name": "RC_INVALID_LTV",
      "outputs": [
        {
          "internalType": "string",
          "name": "",
          "type": "string"
        }
      ],
      "stateMutability": "view",
      "type": "function"
    },
    {
      "inputs": [],
      "name": "RC_INVALID_RESERVE_FACTOR",
      "outputs": [
        {
          "internalType": "string",
          "name": "",
          "type": "string"
        }
      ],
      "stateMutability": "view",
      "type": "function"
    },
    {
      "inputs": [],
      "name": "RL_LIQUIDITY_INDEX_OVERFLOW",
      "outputs": [
        {
          "internalType": "string",
          "name": "",
          "type": "string"
        }
      ],
      "stateMutability": "view",
      "type": "function"
    },
    {
      "inputs": [],
      "name": "RL_LIQUIDITY_RATE_OVERFLOW",
      "outputs": [
        {
          "internalType": "string",
          "name": "",
          "type": "string"
        }
      ],
      "stateMutability": "view",
      "type": "function"
    },
    {
      "inputs": [],
      "name": "RL_RESERVE_ALREADY_INITIALIZED",
      "outputs": [
        {
          "internalType": "string",
          "name": "",
          "type": "string"
        }
      ],
      "stateMutability": "view",
      "type": "function"
    },
    {
      "inputs": [],
      "name": "RL_STABLE_BORROW_RATE_OVERFLOW",
      "outputs": [
        {
          "internalType": "string",
          "name": "",
          "type": "string"
        }
      ],
      "stateMutability": "view",
      "type": "function"
    },
    {
      "inputs": [],
      "name": "RL_VARIABLE_BORROW_INDEX_OVERFLOW",
      "outputs": [
        {
          "internalType": "string",
          "name": "",
          "type": "string"
        }
      ],
      "stateMutability": "view",
      "type": "function"
    },
    {
      "inputs": [],
      "name": "RL_VARIABLE_BORROW_RATE_OVERFLOW",
      "outputs": [
        {
          "internalType": "string",
          "name": "",
          "type": "string"
        }
      ],
      "stateMutability": "view",
      "type": "function"
    },
    {
      "inputs": [],
      "name": "SDT_BURN_EXCEEDS_BALANCE",
      "outputs": [
        {
          "internalType": "string",
          "name": "",
          "type": "string"
        }
      ],
      "stateMutability": "view",
      "type": "function"
    },
    {
      "inputs": [],
      "name": "SDT_STABLE_DEBT_OVERFLOW",
      "outputs": [
        {
          "internalType": "string",
          "name": "",
          "type": "string"
        }
      ],
      "stateMutability": "view",
      "type": "function"
    },
    {
      "inputs": [],
      "name": "UL_INVALID_INDEX",
      "outputs": [
        {
          "internalType": "string",
          "name": "",
          "type": "string"
        }
      ],
      "stateMutability": "view",
      "type": "function"
    },
    {
      "inputs": [],
      "name": "VL_AMOUNT_BIGGER_THAN_MAX_LOAN_SIZE_STABLE",
      "outputs": [
        {
          "internalType": "string",
          "name": "",
          "type": "string"
        }
      ],
      "stateMutability": "view",
      "type": "function"
    },
    {
      "inputs": [],
      "name": "VL_BORROWING_NOT_ENABLED",
      "outputs": [
        {
          "internalType": "string",
          "name": "",
          "type": "string"
        }
      ],
      "stateMutability": "view",
      "type": "function"
    },
    {
      "inputs": [],
      "name": "VL_COLLATERAL_BALANCE_IS_0",
      "outputs": [
        {
          "internalType": "string",
          "name": "",
          "type": "string"
        }
      ],
      "stateMutability": "view",
      "type": "function"
    },
    {
      "inputs": [],
      "name": "VL_COLLATERAL_CANNOT_COVER_NEW_BORROW",
      "outputs": [
        {
          "internalType": "string",
          "name": "",
          "type": "string"
        }
      ],
      "stateMutability": "view",
      "type": "function"
    },
    {
      "inputs": [],
      "name": "VL_COLLATERAL_SAME_AS_BORROWING_CURRENCY",
      "outputs": [
        {
          "internalType": "string",
          "name": "",
          "type": "string"
        }
      ],
      "stateMutability": "view",
      "type": "function"
    },
    {
      "inputs": [],
      "name": "VL_CURRENT_AVAILABLE_LIQUIDITY_NOT_ENOUGH",
      "outputs": [
        {
          "internalType": "string",
          "name": "",
          "type": "string"
        }
      ],
      "stateMutability": "view",
      "type": "function"
    },
    {
      "inputs": [],
      "name": "VL_DEPOSIT_ALREADY_IN_USE",
      "outputs": [
        {
          "internalType": "string",
          "name": "",
          "type": "string"
        }
      ],
      "stateMutability": "view",
      "type": "function"
    },
    {
      "inputs": [],
      "name": "VL_HEALTH_FACTOR_LOWER_THAN_LIQUIDATION_THRESHOLD",
      "outputs": [
        {
          "internalType": "string",
          "name": "",
          "type": "string"
        }
      ],
      "stateMutability": "view",
      "type": "function"
    },
    {
      "inputs": [],
      "name": "VL_INCONSISTENT_FLASHLOAN_PARAMS",
      "outputs": [
        {
          "internalType": "string",
          "name": "",
          "type": "string"
        }
      ],
      "stateMutability": "view",
      "type": "function"
    },
    {
      "inputs": [],
      "name": "VL_INVALID_AMOUNT",
      "outputs": [
        {
          "internalType": "string",
          "name": "",
          "type": "string"
        }
      ],
      "stateMutability": "view",
      "type": "function"
    },
    {
      "inputs": [],
      "name": "VL_INVALID_INTEREST_RATE_MODE_SELECTED",
      "outputs": [
        {
          "internalType": "string",
          "name": "",
          "type": "string"
        }
      ],
      "stateMutability": "view",
      "type": "function"
    },
    {
      "inputs": [],
      "name": "VL_NOT_ENOUGH_AVAILABLE_USER_BALANCE",
      "outputs": [
        {
          "internalType": "string",
          "name": "",
          "type": "string"
        }
      ],
      "stateMutability": "view",
      "type": "function"
    },
    {
      "inputs": [],
      "name": "VL_NO_ACTIVE_RESERVE",
      "outputs": [
        {
          "internalType": "string",
          "name": "",
          "type": "string"
        }
      ],
      "stateMutability": "view",
      "type": "function"
    },
    {
      "inputs": [],
      "name": "VL_NO_DEBT_OF_SELECTED_TYPE",
      "outputs": [
        {
          "internalType": "string",
          "name": "",
          "type": "string"
        }
      ],
      "stateMutability": "view",
      "type": "function"
    },
    {
      "inputs": [],
      "name": "VL_NO_EXPLICIT_AMOUNT_TO_REPAY_ON_BEHALF",
      "outputs": [
        {
          "internalType": "string",
          "name": "",
          "type": "string"
        }
      ],
      "stateMutability": "view",
      "type": "function"
    },
    {
      "inputs": [],
      "name": "VL_NO_STABLE_RATE_LOAN_IN_RESERVE",
      "outputs": [
        {
          "internalType": "string",
          "name": "",
          "type": "string"
        }
      ],
      "stateMutability": "view",
      "type": "function"
    },
    {
      "inputs": [],
      "name": "VL_NO_VARIABLE_RATE_LOAN_IN_RESERVE",
      "outputs": [
        {
          "internalType": "string",
          "name": "",
          "type": "string"
        }
      ],
      "stateMutability": "view",
      "type": "function"
    },
    {
      "inputs": [],
      "name": "VL_RESERVE_FROZEN",
      "outputs": [
        {
          "internalType": "string",
          "name": "",
          "type": "string"
        }
      ],
      "stateMutability": "view",
      "type": "function"
    },
    {
      "inputs": [],
      "name": "VL_STABLE_BORROWING_NOT_ENABLED",
      "outputs": [
        {
          "internalType": "string",
          "name": "",
          "type": "string"
        }
      ],
      "stateMutability": "view",
      "type": "function"
    },
    {
      "inputs": [],
      "name": "VL_TRANSFER_NOT_ALLOWED",
      "outputs": [
        {
          "internalType": "string",
          "name": "",
          "type": "string"
        }
      ],
      "stateMutability": "view",
      "type": "function"
    },
    {
      "inputs": [],
      "name": "VL_UNDERLYING_BALANCE_NOT_GREATER_THAN_0",
      "outputs": [
        {
          "internalType": "string",
          "name": "",
          "type": "string"
        }
      ],
      "stateMutability": "view",
      "type": "function"
    }
  ],
  "bytecode": "0x611111610026600b82828239805160001a60731461001957fe5b30600052607381538281f3fe730000000000000000000000000000000000000000301460806040526004361061048a5760003560e01c80636ba4271f11610261578063cdad445a11610150578063e2c16d69116100cd578063f11c672011610091578063f11c67201461075c578063f3d9cc1114610764578063f902735d1461076c578063fb681def14610774578063fe75fd261461077c5761048a565b8063e2c16d6914610734578063e66327481461073c578063e7bf91b314610744578063eca85d3a1461074c578063f0473259146107545761048a565b8063d7510e0c11610114578063d7510e0c1461070c578063d7b079aa14610714578063daf235471461071c578063e0d7dfd714610724578063e29425dc1461072c5761048a565b8063cdad445a146106e4578063d3e370ee146106ec578063d44e8e88146106f4578063d57bb964146106fc578063d6f681b6146107045761048a565b8063a39ed4ff116101de578063b89652cd116101a2578063b89652cd146106bc578063bd013f5b146106c4578063c09e2618146106cc578063c2d628df146106d4578063cc5fc44c146106dc5761048a565b8063a39ed4ff14610694578063a84402411461069c578063ac753236146106a4578063b36a2cf3146106ac578063b72e40c7146106b45761048a565b80637865a627116102255780637865a6271461066c578063871938a81461067457806391a9fb181461067c5780639be4f03a14610684578063a2fbc8ad1461068c5761048a565b80636ba4271f146106445780636d422aa11461064c578063708b8dd31461065457806371a629da1461065c57806376f19030146106645761048a565b80633aa786a81161037d5780634a529f91116102fa578063614cf6a1116102be578063614cf6a11461061c578063637a5a12146106245780636422b2571461062c57806365344799146106345780636ab5e6151461063c5761048a565b80634a529f91146105f45780634fe4f1ab146105fc57806355bab12c146106045780635a9786d41461060c5780635e869ff1146106145761048a565b80634349e3d8116103415780634349e3d8146105cc57806344942004146105d457806344dc4f70146105dc57806347d25300146105e45780634927c63a146105ec5761048a565b80633aa786a8146105a45780633b5d25aa146105ac5780633f5d6ec8146105b4578063407374a4146105bc57806341b40ba5146105c45761048a565b806322a6f08e1161040b578063333e8ea8116103cf578063333e8ea81461057c57806335a9d21d1461058457806336565ab11461058c5780633872b0ad14610594578063390f34ba1461059c5761048a565b806322a6f08e146105545780632ace698a1461055c5780632b34c349146105645780632b9c57f61461056c5780632ea347b0146105745761048a565b80631291a38b116104525780631291a38b1461052c578063179476c5146105345780631befa78d1461053c5780631ea7c604146105445780631ec68b1d1461054c5761048a565b806302454ad31461048f578063029d23441461050c57806306f355ad146105145780630b8fd5881461051c5780630f5ee48214610524575b600080fd5b610497610784565b6040805160208082528351818301528351919283929083019185019080838360005b838110156104d15781810151838201526020016104b9565b50505050905090810190601f1680156104fe5780820380516001836020036101000a031916815260200191505b509250505060405180910390f35b6104976107a2565b6104976107c0565b6104976107de565b6104976107fc565b61049761081a565b610497610838565b610497610855565b610497610873565b610497610891565b6104976108af565b6104976108cd565b6104976108eb565b610497610909565b610497610927565b610497610945565b610497610963565b610497610981565b61049761099e565b6104976109bc565b6104976109da565b6104976109f8565b610497610a15565b610497610a33565b610497610a51565b610497610a6f565b610497610a8d565b610497610aab565b610497610ac9565b610497610ae7565b610497610b05565b610497610b23565b610497610b41565b610497610b5f565b610497610b7d565b610497610b9b565b610497610bb9565b610497610bd7565b610497610bf5565b610497610c13565b610497610c31565b610497610c4f565b610497610c6d565b610497610c8a565b610497610ca8565b610497610cc6565b610497610ce3565b610497610d00565b610497610d1e565b610497610d3c565b610497610d5a565b610497610d78565b610497610d95565b610497610db3565b610497610dd1565b610497610def565b610497610e0d565b610497610e2b565b610497610e49565b610497610e67565b610497610e85565b610497610ea3565b610497610ec1565b610497610edf565b610497610efd565b610497610f1b565b610497610f38565b610497610f56565b610497610f74565b610497610f92565b610497610fb0565b610497610fce565b610497610fec565b61049761100a565b610497611028565b610497611046565b610497611064565b610497611081565b61049761109f565b6104976110bd565b60405180604001604052806002815260200161373760f01b81525081565b60405180604001604052806002815260200161068760f31b81525081565b60405180604001604052806002815260200161033360f41b81525081565b60405180604001604052806002815260200161191b60f11b81525081565b60405180604001604052806002815260200161343960f01b81525081565b604051806040016040528060028152602001611a9b60f11b81525081565b604051806040016040528060018152602001600d60fa1b81525081565b60405180604001604052806002815260200161038360f41b81525081565b604051806040016040528060028152602001611a1b60f11b81525081565b60405180604001604052806002815260200161031360f41b81525081565b604051806040016040528060028152602001610c8d60f21b81525081565b60405180604001604052806002815260200161313160f01b81525081565b60405180604001604052806002815260200161064760f31b81525081565b6040518060400160405280600281526020016106a760f31b81525081565b604051806040016040528060028152602001610d4d60f21b81525081565b604051806040016040528060028152602001611b9960f11b81525081565b60405180604001604052806002815260200161313960f01b81525081565b604051806040016040528060018152602001603760f81b81525081565b60405180604001604052806002815260200161333960f01b81525081565b60405180604001604052806002815260200161323560f01b81525081565b604051806040016040528060028152602001610c4d60f21b81525081565b604051806040016040528060018152602001600760fb1b81525081565b60405180604001604052806002815260200161037360f41b81525081565b60405180604001604052806002815260200161343360f01b81525081565b60405180604001604052806002815260200161066760f31b81525081565b60405180604001604052806002815260200161035360f41b81525081565b604051806040016040528060028152602001611a9960f11b81525081565b60405180604001604052806002815260200161323160f01b81525081565b60405180604001604052806002815260200161373560f01b81525081565b60405180604001604052806002815260200161189960f11b81525081565b60405180604001604052806002815260200161323360f01b81525081565b60405180604001604052806002815260200161353160f01b81525081565b60405180604001604052806002815260200161036360f41b81525081565b60405180604001604052806002815260200161034360f41b81525081565b60405180604001604052806002815260200161363960f01b81525081565b60405180604001604052806002815260200161363760f01b81525081565b6040518060400160405280600281526020016106e760f31b81525081565b60405180604001604052806002815260200161313760f01b81525081565b604051806040016040528060028152602001610ccd60f21b81525081565b60405180604001604052806002815260200161062760f31b81525081565b60405180604001604052806002815260200161323960f01b81525081565b60405180604001604052806002815260200161353560f01b81525081565b604051806040016040528060018152602001603960f81b81525081565b604051806040016040528060028152602001610d0d60f21b81525081565b60405180604001604052806002815260200161363560f01b81525081565b604051806040016040528060018152602001601960f91b81525081565b604051806040016040528060018152602001603160f81b81525081565b60405180604001604052806002815260200161313560f01b81525081565b60405180604001604052806002815260200161373160f01b81525081565b60405180604001604052806002815260200161333160f01b81525081565b60405180604001604052806002815260200161313360f01b81525081565b604051806040016040528060018152602001603560f81b81525081565b60405180604001604052806002815260200161333360f01b81525081565b60405180604001604052806002815260200161323760f01b81525081565b604051806040016040528060028152602001610dcd60f21b81525081565b60405180604001604052806002815260200161191960f11b81525081565b6040518060400160405280600281526020016106c760f31b81525081565b60405180604001604052806002815260200161333760f01b81525081565b60405180604001604052806002815260200161363160f01b81525081565b60405180604001604052806002815260200161343560f01b81525081565b60405180604001604052806002815260200161373960f01b81525081565b604051806040016040528060028152602001611b9b60f11b81525081565b604051806040016040528060028152602001611b1b60f11b81525081565b604051806040016040528060028152602001610d8d60f21b81525081565b60405180604001604052806002815260200161343160f01b81525081565b604051806040016040528060018152602001603360f81b81525081565b60405180604001604052806002815260200161373360f01b81525081565b60405180604001604052806002815260200161189b60f11b81525081565b60405180604001604052806002815260200161199b60f11b81525081565b60405180604001604052806002815260200161032360f41b81525081565b60405180604001604052806002815260200161353960f01b81525081565b60405180604001604052806002815260200161353760f01b81525081565b60405180604001604052806002815260200161343760f01b81525081565b60405180604001604052806002815260200161363360f01b81525081565b60405180604001604052806002815260200161333560f01b81525081565b60405180604001604052806002815260200161353360f01b81525081565b604051806040016040528060018152602001601b60f91b81525081565b604051806040016040528060028152602001611b1960f11b81525081565b604051806040016040528060028152602001611a1960f11b81525081565b60405180604001604052806002815260200161199960f11b8152508156fea264697066735822122031dc367ad4466b8be1fcde1dc598e31bd7cee9829694af2139923ac0db7f5faa64736f6c634300060c0033",
  "linkReferences": {},
  "deployedLinkReferences": {}
}