{
  "_format": "hh-sol-artifact-1",
  "contractName": "UiIncentiveDataProviderV2V3",
  "sourceName": "contracts/misc/UiIncentiveDataProviderV2V3.sol",
  "abi": [
    {
      "inputs": [],
      "stateMutability": "nonpayable",
      "type": "constructor"
    },
    {
      "inputs": [],
      "name": "MKRAddress",
      "outputs": [
        {
          "internalType": "address",
          "name": "",
          "type": "address"
        }
      ],
      "stateMutability": "view",
      "type": "function"
    },
    {
      "inputs": [
        {
          "internalType": "bytes32",
          "name": "_bytes32",
          "type": "bytes32"
        }
      ],
      "name": "bytes32ToString",
      "outputs": [
        {
          "internalType": "string",
          "name": "",
          "type": "string"
        }
      ],
      "stateMutability": "pure",
      "type": "function"
    },
    {
      "inputs": [
        {
          "internalType": "contract ILendingPoolAddressesProvider",
          "name": "provider",
          "type": "address"
        },
        {
          "internalType": "address",
          "name": "user",
          "type": "address"
        }
      ],
      "name": "getFullReservesIncentiveData",
      "outputs": [
        {
          "components": [
            {
              "internalType": "address",
              "name": "underlyingAsset",
              "type": "address"
            },
            {
              "components": [
                {
                  "internalType": "address",
                  "name": "tokenAddress",
                  "type": "address"
                },
                {
                  "internalType": "address",
                  "name": "incentiveControllerAddress",
                  "type": "address"
                },
                {
                  "components": [
                    {
                      "internalType": "string",
                      "name": "rewardTokenSymbol",
                      "type": "string"
                    },
                    {
                      "internalType": "address",
                      "name": "rewardTokenAddress",
                      "type": "address"
                    },
                    {
                      "internalType": "address",
                      "name": "rewardOracleAddress",
                      "type": "address"
                    },
                    {
                      "internalType": "uint256",
                      "name": "emissionPerSecond",
                      "type": "uint256"
                    },
                    {
                      "internalType": "uint256",
                      "name": "incentivesLastUpdateTimestamp",
                      "type": "uint256"
                    },
                    {
                      "internalType": "uint256",
                      "name": "tokenIncentivesIndex",
                      "type": "uint256"
                    },
                    {
                      "internalType": "uint256",
                      "name": "emissionEndTimestamp",
                      "type": "uint256"
                    },
                    {
                      "internalType": "int256",
                      "name": "rewardPriceFeed",
                      "type": "int256"
                    },
                    {
                      "internalType": "uint8",
                      "name": "rewardTokenDecimals",
                      "type": "uint8"
                    },
                    {
                      "internalType": "uint8",
                      "name": "precision",
                      "type": "uint8"
                    },
                    {
                      "internalType": "uint8",
                      "name": "priceFeedDecimals",
                      "type": "uint8"
                    }
                  ],
                  "internalType": "struct IUiIncentiveDataProviderV3.RewardInfo[]",
                  "name": "rewardsTokenInformation",
                  "type": "tuple[]"
                }
              ],
              "internalType": "struct IUiIncentiveDataProviderV3.IncentiveData",
              "name": "aIncentiveData",
              "type": "tuple"
            },
            {
              "components": [
                {
                  "internalType": "address",
                  "name": "tokenAddress",
                  "type": "address"
                },
                {
                  "internalType": "address",
                  "name": "incentiveControllerAddress",
                  "type": "address"
                },
                {
                  "components": [
                    {
                      "internalType": "string",
                      "name": "rewardTokenSymbol",
                      "type": "string"
                    },
                    {
                      "internalType": "address",
                      "name": "rewardTokenAddress",
                      "type": "address"
                    },
                    {
                      "internalType": "address",
                      "name": "rewardOracleAddress",
                      "type": "address"
                    },
                    {
                      "internalType": "uint256",
                      "name": "emissionPerSecond",
                      "type": "uint256"
                    },
                    {
                      "internalType": "uint256",
                      "name": "incentivesLastUpdateTimestamp",
                      "type": "uint256"
                    },
                    {
                      "internalType": "uint256",
                      "name": "tokenIncentivesIndex",
                      "type": "uint256"
                    },
                    {
                      "internalType": "uint256",
                      "name": "emissionEndTimestamp",
                      "type": "uint256"
                    },
                    {
                      "internalType": "int256",
                      "name": "rewardPriceFeed",
                      "type": "int256"
                    },
                    {
                      "internalType": "uint8",
                      "name": "rewardTokenDecimals",
                      "type": "uint8"
                    },
                    {
                      "internalType": "uint8",
                      "name": "precision",
                      "type": "uint8"
                    },
                    {
                      "internalType": "uint8",
                      "name": "priceFeedDecimals",
                      "type": "uint8"
                    }
                  ],
                  "internalType": "struct IUiIncentiveDataProviderV3.RewardInfo[]",
                  "name": "rewardsTokenInformation",
                  "type": "tuple[]"
                }
              ],
              "internalType": "struct IUiIncentiveDataProviderV3.IncentiveData",
              "name": "vIncentiveData",
              "type": "tuple"
            },
            {
              "components": [
                {
                  "internalType": "address",
                  "name": "tokenAddress",
                  "type": "address"
                },
                {
                  "internalType": "address",
                  "name": "incentiveControllerAddress",
                  "type": "address"
                },
                {
                  "components": [
                    {
                      "internalType": "string",
                      "name": "rewardTokenSymbol",
                      "type": "string"
                    },
                    {
                      "internalType": "address",
                      "name": "rewardTokenAddress",
                      "type": "address"
                    },
                    {
                      "internalType": "address",
                      "name": "rewardOracleAddress",
                      "type": "address"
                    },
                    {
                      "internalType": "uint256",
                      "name": "emissionPerSecond",
                      "type": "uint256"
                    },
                    {
                      "internalType": "uint256",
                      "name": "incentivesLastUpdateTimestamp",
                      "type": "uint256"
                    },
                    {
                      "internalType": "uint256",
                      "name": "tokenIncentivesIndex",
                      "type": "uint256"
                    },
                    {
                      "internalType": "uint256",
                      "name": "emissionEndTimestamp",
                      "type": "uint256"
                    },
                    {
                      "internalType": "int256",
                      "name": "rewardPriceFeed",
                      "type": "int256"
                    },
                    {
                      "internalType": "uint8",
                      "name": "rewardTokenDecimals",
                      "type": "uint8"
                    },
                    {
                      "internalType": "uint8",
                      "name": "precision",
                      "type": "uint8"
                    },
                    {
                      "internalType": "uint8",
                      "name": "priceFeedDecimals",
                      "type": "uint8"
                    }
                  ],
                  "internalType": "struct IUiIncentiveDataProviderV3.RewardInfo[]",
                  "name": "rewardsTokenInformation",
                  "type": "tuple[]"
                }
              ],
              "internalType": "struct IUiIncentiveDataProviderV3.IncentiveData",
              "name": "sIncentiveData",
              "type": "tuple"
            }
          ],
          "internalType": "struct IUiIncentiveDataProviderV3.AggregatedReserveIncentiveData[]",
          "name": "",
          "type": "tuple[]"
        },
        {
          "components": [
            {
              "internalType": "address",
              "name": "underlyingAsset",
              "type": "address"
            },
            {
              "components": [
                {
                  "internalType": "address",
                  "name": "tokenAddress",
                  "type": "address"
                },
                {
                  "internalType": "address",
                  "name": "incentiveControllerAddress",
                  "type": "address"
                },
                {
                  "components": [
                    {
                      "internalType": "string",
                      "name": "rewardTokenSymbol",
                      "type": "string"
                    },
                    {
                      "internalType": "address",
                      "name": "rewardOracleAddress",
                      "type": "address"
                    },
                    {
                      "internalType": "address",
                      "name": "rewardTokenAddress",
                      "type": "address"
                    },
                    {
                      "internalType": "uint256",
                      "name": "userUnclaimedRewards",
                      "type": "uint256"
                    },
                    {
                      "internalType": "uint256",
                      "name": "tokenIncentivesUserIndex",
                      "type": "uint256"
                    },
                    {
                      "internalType": "int256",
                      "name": "rewardPriceFeed",
                      "type": "int256"
                    },
                    {
                      "internalType": "uint8",
                      "name": "priceFeedDecimals",
                      "type": "uint8"
                    },
                    {
                      "internalType": "uint8",
                      "name": "rewardTokenDecimals",
                      "type": "uint8"
                    }
                  ],
                  "internalType": "struct IUiIncentiveDataProviderV3.UserRewardInfo[]",
                  "name": "userRewardsInformation",
                  "type": "tuple[]"
                }
              ],
              "internalType": "struct IUiIncentiveDataProviderV3.UserIncentiveData",
              "name": "aTokenIncentivesUserData",
              "type": "tuple"
            },
            {
              "components": [
                {
                  "internalType": "address",
                  "name": "tokenAddress",
                  "type": "address"
                },
                {
                  "internalType": "address",
                  "name": "incentiveControllerAddress",
                  "type": "address"
                },
                {
                  "components": [
                    {
                      "internalType": "string",
                      "name": "rewardTokenSymbol",
                      "type": "string"
                    },
                    {
                      "internalType": "address",
                      "name": "rewardOracleAddress",
                      "type": "address"
                    },
                    {
                      "internalType": "address",
                      "name": "rewardTokenAddress",
                      "type": "address"
                    },
                    {
                      "internalType": "uint256",
                      "name": "userUnclaimedRewards",
                      "type": "uint256"
                    },
                    {
                      "internalType": "uint256",
                      "name": "tokenIncentivesUserIndex",
                      "type": "uint256"
                    },
                    {
                      "internalType": "int256",
                      "name": "rewardPriceFeed",
                      "type": "int256"
                    },
                    {
                      "internalType": "uint8",
                      "name": "priceFeedDecimals",
                      "type": "uint8"
                    },
                    {
                      "internalType": "uint8",
                      "name": "rewardTokenDecimals",
                      "type": "uint8"
                    }
                  ],
                  "internalType": "struct IUiIncentiveDataProviderV3.UserRewardInfo[]",
                  "name": "userRewardsInformation",
                  "type": "tuple[]"
                }
              ],
              "internalType": "struct IUiIncentiveDataProviderV3.UserIncentiveData",
              "name": "vTokenIncentivesUserData",
              "type": "tuple"
            },
            {
              "components": [
                {
                  "internalType": "address",
                  "name": "tokenAddress",
                  "type": "address"
                },
                {
                  "internalType": "address",
                  "name": "incentiveControllerAddress",
                  "type": "address"
                },
                {
                  "components": [
                    {
                      "internalType": "string",
                      "name": "rewardTokenSymbol",
                      "type": "string"
                    },
                    {
                      "internalType": "address",
                      "name": "rewardOracleAddress",
                      "type": "address"
                    },
                    {
                      "internalType": "address",
                      "name": "rewardTokenAddress",
                      "type": "address"
                    },
                    {
                      "internalType": "uint256",
                      "name": "userUnclaimedRewards",
                      "type": "uint256"
                    },
                    {
                      "internalType": "uint256",
                      "name": "tokenIncentivesUserIndex",
                      "type": "uint256"
                    },
                    {
                      "internalType": "int256",
                      "name": "rewardPriceFeed",
                      "type": "int256"
                    },
                    {
                      "internalType": "uint8",
                      "name": "priceFeedDecimals",
                      "type": "uint8"
                    },
                    {
                      "internalType": "uint8",
                      "name": "rewardTokenDecimals",
                      "type": "uint8"
                    }
                  ],
                  "internalType": "struct IUiIncentiveDataProviderV3.UserRewardInfo[]",
                  "name": "userRewardsInformation",
                  "type": "tuple[]"
                }
              ],
              "internalType": "struct IUiIncentiveDataProviderV3.UserIncentiveData",
              "name": "sTokenIncentivesUserData",
              "type": "tuple"
            }
          ],
          "internalType": "struct IUiIncentiveDataProviderV3.UserReserveIncentiveData[]",
          "name": "",
          "type": "tuple[]"
        }
      ],
      "stateMutability": "view",
      "type": "function"
    },
    {
      "inputs": [
        {
          "internalType": "contract ILendingPoolAddressesProvider",
          "name": "provider",
          "type": "address"
        }
      ],
      "name": "getReservesIncentivesData",
      "outputs": [
        {
          "components": [
            {
              "internalType": "address",
              "name": "underlyingAsset",
              "type": "address"
            },
            {
              "components": [
                {
                  "internalType": "address",
                  "name": "tokenAddress",
                  "type": "address"
                },
                {
                  "internalType": "address",
                  "name": "incentiveControllerAddress",
                  "type": "address"
                },
                {
                  "components": [
                    {
                      "internalType": "string",
                      "name": "rewardTokenSymbol",
                      "type": "string"
                    },
                    {
                      "internalType": "address",
                      "name": "rewardTokenAddress",
                      "type": "address"
                    },
                    {
                      "internalType": "address",
                      "name": "rewardOracleAddress",
                      "type": "address"
                    },
                    {
                      "internalType": "uint256",
                      "name": "emissionPerSecond",
                      "type": "uint256"
                    },
                    {
                      "internalType": "uint256",
                      "name": "incentivesLastUpdateTimestamp",
                      "type": "uint256"
                    },
                    {
                      "internalType": "uint256",
                      "name": "tokenIncentivesIndex",
                      "type": "uint256"
                    },
                    {
                      "internalType": "uint256",
                      "name": "emissionEndTimestamp",
                      "type": "uint256"
                    },
                    {
                      "internalType": "int256",
                      "name": "rewardPriceFeed",
                      "type": "int256"
                    },
                    {
                      "internalType": "uint8",
                      "name": "rewardTokenDecimals",
                      "type": "uint8"
                    },
                    {
                      "internalType": "uint8",
                      "name": "precision",
                      "type": "uint8"
                    },
                    {
                      "internalType": "uint8",
                      "name": "priceFeedDecimals",
                      "type": "uint8"
                    }
                  ],
                  "internalType": "struct IUiIncentiveDataProviderV3.RewardInfo[]",
                  "name": "rewardsTokenInformation",
                  "type": "tuple[]"
                }
              ],
              "internalType": "struct IUiIncentiveDataProviderV3.IncentiveData",
              "name": "aIncentiveData",
              "type": "tuple"
            },
            {
              "components": [
                {
                  "internalType": "address",
                  "name": "tokenAddress",
                  "type": "address"
                },
                {
                  "internalType": "address",
                  "name": "incentiveControllerAddress",
                  "type": "address"
                },
                {
                  "components": [
                    {
                      "internalType": "string",
                      "name": "rewardTokenSymbol",
                      "type": "string"
                    },
                    {
                      "internalType": "address",
                      "name": "rewardTokenAddress",
                      "type": "address"
                    },
                    {
                      "internalType": "address",
                      "name": "rewardOracleAddress",
                      "type": "address"
                    },
                    {
                      "internalType": "uint256",
                      "name": "emissionPerSecond",
                      "type": "uint256"
                    },
                    {
                      "internalType": "uint256",
                      "name": "incentivesLastUpdateTimestamp",
                      "type": "uint256"
                    },
                    {
                      "internalType": "uint256",
                      "name": "tokenIncentivesIndex",
                      "type": "uint256"
                    },
                    {
                      "internalType": "uint256",
                      "name": "emissionEndTimestamp",
                      "type": "uint256"
                    },
                    {
                      "internalType": "int256",
                      "name": "rewardPriceFeed",
                      "type": "int256"
                    },
                    {
                      "internalType": "uint8",
                      "name": "rewardTokenDecimals",
                      "type": "uint8"
                    },
                    {
                      "internalType": "uint8",
                      "name": "precision",
                      "type": "uint8"
                    },
                    {
                      "internalType": "uint8",
                      "name": "priceFeedDecimals",
                      "type": "uint8"
                    }
                  ],
                  "internalType": "struct IUiIncentiveDataProviderV3.RewardInfo[]",
                  "name": "rewardsTokenInformation",
                  "type": "tuple[]"
                }
              ],
              "internalType": "struct IUiIncentiveDataProviderV3.IncentiveData",
              "name": "vIncentiveData",
              "type": "tuple"
            },
            {
              "components": [
                {
                  "internalType": "address",
                  "name": "tokenAddress",
                  "type": "address"
                },
                {
                  "internalType": "address",
                  "name": "incentiveControllerAddress",
                  "type": "address"
                },
                {
                  "components": [
                    {
                      "internalType": "string",
                      "name": "rewardTokenSymbol",
                      "type": "string"
                    },
                    {
                      "internalType": "address",
                      "name": "rewardTokenAddress",
                      "type": "address"
                    },
                    {
                      "internalType": "address",
                      "name": "rewardOracleAddress",
                      "type": "address"
                    },
                    {
                      "internalType": "uint256",
                      "name": "emissionPerSecond",
                      "type": "uint256"
                    },
                    {
                      "internalType": "uint256",
                      "name": "incentivesLastUpdateTimestamp",
                      "type": "uint256"
                    },
                    {
                      "internalType": "uint256",
                      "name": "tokenIncentivesIndex",
                      "type": "uint256"
                    },
                    {
                      "internalType": "uint256",
                      "name": "emissionEndTimestamp",
                      "type": "uint256"
                    },
                    {
                      "internalType": "int256",
                      "name": "rewardPriceFeed",
                      "type": "int256"
                    },
                    {
                      "internalType": "uint8",
                      "name": "rewardTokenDecimals",
                      "type": "uint8"
                    },
                    {
                      "internalType": "uint8",
                      "name": "precision",
                      "type": "uint8"
                    },
                    {
                      "internalType": "uint8",
                      "name": "priceFeedDecimals",
                      "type": "uint8"
                    }
                  ],
                  "internalType": "struct IUiIncentiveDataProviderV3.RewardInfo[]",
                  "name": "rewardsTokenInformation",
                  "type": "tuple[]"
                }
              ],
              "internalType": "struct IUiIncentiveDataProviderV3.IncentiveData",
              "name": "sIncentiveData",
              "type": "tuple"
            }
          ],
          "internalType": "struct IUiIncentiveDataProviderV3.AggregatedReserveIncentiveData[]",
          "name": "",
          "type": "tuple[]"
        }
      ],
      "stateMutability": "view",
      "type": "function"
    },
    {
      "inputs": [
        {
          "internalType": "address",
          "name": "rewardToken",
          "type": "address"
        }
      ],
      "name": "getSymbol",
      "outputs": [
        {
          "internalType": "string",
          "name": "",
          "type": "string"
        }
      ],
      "stateMutability": "view",
      "type": "function"
    },
    {
      "inputs": [
        {
          "internalType": "contract ILendingPoolAddressesProvider",
          "name": "provider",
          "type": "address"
        },
        {
          "internalType": "address",
          "name": "user",
          "type": "address"
        }
      ],
      "name": "getUserReservesIncentivesData",
      "outputs": [
        {
          "components": [
            {
              "internalType": "address",
              "name": "underlyingAsset",
              "type": "address"
            },
            {
              "components": [
                {
                  "internalType": "address",
                  "name": "tokenAddress",
                  "type": "address"
                },
                {
                  "internalType": "address",
                  "name": "incentiveControllerAddress",
                  "type": "address"
                },
                {
                  "components": [
                    {
                      "internalType": "string",
                      "name": "rewardTokenSymbol",
                      "type": "string"
                    },
                    {
                      "internalType": "address",
                      "name": "rewardOracleAddress",
                      "type": "address"
                    },
                    {
                      "internalType": "address",
                      "name": "rewardTokenAddress",
                      "type": "address"
                    },
                    {
                      "internalType": "uint256",
                      "name": "userUnclaimedRewards",
                      "type": "uint256"
                    },
                    {
                      "internalType": "uint256",
                      "name": "tokenIncentivesUserIndex",
                      "type": "uint256"
                    },
                    {
                      "internalType": "int256",
                      "name": "rewardPriceFeed",
                      "type": "int256"
                    },
                    {
                      "internalType": "uint8",
                      "name": "priceFeedDecimals",
                      "type": "uint8"
                    },
                    {
                      "internalType": "uint8",
                      "name": "rewardTokenDecimals",
                      "type": "uint8"
                    }
                  ],
                  "internalType": "struct IUiIncentiveDataProviderV3.UserRewardInfo[]",
                  "name": "userRewardsInformation",
                  "type": "tuple[]"
                }
              ],
              "internalType": "struct IUiIncentiveDataProviderV3.UserIncentiveData",
              "name": "aTokenIncentivesUserData",
              "type": "tuple"
            },
            {
              "components": [
                {
                  "internalType": "address",
                  "name": "tokenAddress",
                  "type": "address"
                },
                {
                  "internalType": "address",
                  "name": "incentiveControllerAddress",
                  "type": "address"
                },
                {
                  "components": [
                    {
                      "internalType": "string",
                      "name": "rewardTokenSymbol",
                      "type": "string"
                    },
                    {
                      "internalType": "address",
                      "name": "rewardOracleAddress",
                      "type": "address"
                    },
                    {
                      "internalType": "address",
                      "name": "rewardTokenAddress",
                      "type": "address"
                    },
                    {
                      "internalType": "uint256",
                      "name": "userUnclaimedRewards",
                      "type": "uint256"
                    },
                    {
                      "internalType": "uint256",
                      "name": "tokenIncentivesUserIndex",
                      "type": "uint256"
                    },
                    {
                      "internalType": "int256",
                      "name": "rewardPriceFeed",
                      "type": "int256"
                    },
                    {
                      "internalType": "uint8",
                      "name": "priceFeedDecimals",
                      "type": "uint8"
                    },
                    {
                      "internalType": "uint8",
                      "name": "rewardTokenDecimals",
                      "type": "uint8"
                    }
                  ],
                  "internalType": "struct IUiIncentiveDataProviderV3.UserRewardInfo[]",
                  "name": "userRewardsInformation",
                  "type": "tuple[]"
                }
              ],
              "internalType": "struct IUiIncentiveDataProviderV3.UserIncentiveData",
              "name": "vTokenIncentivesUserData",
              "type": "tuple"
            },
            {
              "components": [
                {
                  "internalType": "address",
                  "name": "tokenAddress",
                  "type": "address"
                },
                {
                  "internalType": "address",
                  "name": "incentiveControllerAddress",
                  "type": "address"
                },
                {
                  "components": [
                    {
                      "internalType": "string",
                      "name": "rewardTokenSymbol",
                      "type": "string"
                    },
                    {
                      "internalType": "address",
                      "name": "rewardOracleAddress",
                      "type": "address"
                    },
                    {
                      "internalType": "address",
                      "name": "rewardTokenAddress",
                      "type": "address"
                    },
                    {
                      "internalType": "uint256",
                      "name": "userUnclaimedRewards",
                      "type": "uint256"
                    },
                    {
                      "internalType": "uint256",
                      "name": "tokenIncentivesUserIndex",
                      "type": "uint256"
                    },
                    {
                      "internalType": "int256",
                      "name": "rewardPriceFeed",
                      "type": "int256"
                    },
                    {
                      "internalType": "uint8",
                      "name": "priceFeedDecimals",
                      "type": "uint8"
                    },
                    {
                      "internalType": "uint8",
                      "name": "rewardTokenDecimals",
                      "type": "uint8"
                    }
                  ],
                  "internalType": "struct IUiIncentiveDataProviderV3.UserRewardInfo[]",
                  "name": "userRewardsInformation",
                  "type": "tuple[]"
                }
              ],
              "internalType": "struct IUiIncentiveDataProviderV3.UserIncentiveData",
              "name": "sTokenIncentivesUserData",
              "type": "tuple"
            }
          ],
          "internalType": "struct IUiIncentiveDataProviderV3.UserReserveIncentiveData[]",
          "name": "",
          "type": "tuple[]"
        }
      ],
      "stateMutability": "view",
      "type": "function"
    }
  ],
  "bytecode": "0x608060405234801561001057600080fd5b50613200806100206000396000f3fe608060405234801561001057600080fd5b50600436106100625760003560e01c80634763753614610067578063799bdcf5146100915780639201de55146100b1578063976fafc5146100d15780639dd9e2ce146100f1578063c9b2e52214610106575b600080fd5b61007a610075366004612adf565b610119565b6040516100889291906130f2565b60405180910390f35b6100a461009f366004612adf565b61013a565b6040516100889190613120565b6100c46100bf366004612aaf565b61014f565b6040516100889190613133565b6100e46100df3660046129c5565b61025e565b60405161008891906130df565b6100f9610269565b60405161008891906130b1565b6100c46101143660046129c5565b610281565b606080610125846103aa565b61012f8585611a94565b915091509250929050565b60606101468383611a94565b90505b92915050565b606060005b60208160ff161080156101825750828160ff166020811061017157fe5b1a60f81b6001600160f81b03191615155b1561018f57600101610154565b60608160ff1667ffffffffffffffff811180156101ab57600080fd5b506040519080825280601f01601f1916602001820160405280156101d6576020820181803683370190505b509050600091505b60208260ff1610801561020c5750838260ff16602081106101fb57fe5b1a60f81b6001600160f81b03191615155b1561025557838260ff166020811061022057fe5b1a60f81b818360ff168151811061023357fe5b60200101906001600160f81b031916908160001a9053506001909101906101de565b9150505b919050565b6060610149826103aa565b739f8f72aa9304c8b593d555f12ef6589cc3a579a281565b60606001600160a01b038216739f8f72aa9304c8b593d555f12ef6589cc3a579a2141561032e576000826001600160a01b03166395d89b416040518163ffffffff1660e01b815260040160206040518083038186803b1580156102e357600080fd5b505afa1580156102f7573d6000803e3d6000fd5b505050506040513d601f19601f8201168201806040525081019061031b9190612ac7565b90506103268161014f565b915050610259565b816001600160a01b03166395d89b416040518163ffffffff1660e01b815260040160006040518083038186803b15801561036757600080fd5b505afa15801561037b573d6000803e3d6000fd5b505050506040513d6000823e601f3d908101601f191682016040526103a39190810190612b17565b9050610259565b60606000826001600160a01b0316630261bf8b6040518163ffffffff1660e01b815260040160206040518083038186803b1580156103e757600080fd5b505afa1580156103fb573d6000803e3d6000fd5b505050506040513d601f19601f8201168201806040525081019061041f91906129e8565b90506060816001600160a01b031663d1946dbc6040518163ffffffff1660e01b815260040160006040518083038186803b15801561045c57600080fd5b505afa158015610470573d6000803e3d6000fd5b505050506040513d6000823e601f3d908101601f191682016040526104989190810190612a04565b90506060815167ffffffffffffffff811180156104b457600080fd5b506040519080825280602002602001820160405280156104ee57816020015b6104db6127a7565b8152602001906001900390816104d35790505b50905060005b8251811015611a8b576105056127a7565b82828151811061051157fe5b6020026020010151905083828151811061052757fe5b60209081029190910101516001600160a01b031681526105456127e9565b856001600160a01b03166335ea6a7586858151811061056057fe5b60200260200101516040518263ffffffff1660e01b815260040161058491906130b1565b6101806040518083038186803b15801561059d57600080fd5b505afa1580156105b1573d6000803e3d6000fd5b505050506040513d601f19601f820116820180604052508101906105d59190612b9a565b90508060e001516001600160a01b03166375d264136040518163ffffffff1660e01b815260040160206040518083038186803b15801561061457600080fd5b505afa925050508015610644575060408051601f3d908101601f19168201909252610641918101906129e8565b60015b61067e573d808015610672576040519150601f19603f3d011682016040523d82523d6000602084013e610677565b606091505b5050610cb7565b604080516001808252818301909252606091816020015b61069d612854565b8152602001906001900390816106955790505090506001600160a01b03821615610cb4576000826001600160a01b03166399248ea76040518163ffffffff1660e01b815260040160206040518083038186803b1580156106fc57600080fd5b505afa158015610710573d6000803e3d6000fd5b505050506040513d601f19601f8201168201806040525081019061073491906129e8565b60e0850151604051631652e7b760e01b81529192506001600160a01b03851691631652e7b791610766916004016130b1565b60606040518083038186803b15801561077e57600080fd5b505afa9250505080156107ae575060408051601f3d908101601f191682019092526107ab91810190612cd7565b60015b610a9b573d8080156107dc576040519150601f19603f3d011682016040523d82523d6000602084013e6107e1565b606091505b506000806000866001600160a01b031663f11b81888960e001516040518263ffffffff1660e01b815260040161081791906130b1565b60606040518083038186803b15801561082f57600080fd5b505afa158015610843573d6000803e3d6000fd5b505050506040513d601f19601f820116820180604052508101906108679190612c95565b92506001600160801b031692506001600160801b0316925060405180610160016040528061089487610281565b8152602001866001600160a01b0316815260200160006001600160a01b03168152602001848152602001838152602001828152602001886001600160a01b031663919cd40f6040518163ffffffff1660e01b815260040160206040518083038186803b15801561090357600080fd5b505afa158015610917573d6000803e3d6000fd5b505050506040513d601f19601f8201168201806040525081019061093b9190612ac7565b815260200160008152602001866001600160a01b031663313ce5676040518163ffffffff1660e01b815260040160206040518083038186803b15801561098057600080fd5b505afa158015610994573d6000803e3d6000fd5b505050506040513d601f19601f820116820180604052508101906109b89190612d04565b60ff168152602001886001600160a01b031663aaf5eb686040518163ffffffff1660e01b815260040160206040518083038186803b1580156109f957600080fd5b505afa158015610a0d573d6000803e3d6000fd5b505050506040513d601f19601f82011682018060405250810190610a319190612d04565b60ff168152602001600060ff1681525086600081518110610a4e57fe5b602002602001018190525060405180606001604052808960e001516001600160a01b03168152602001886001600160a01b0316815260200187815250896020018190525050505050610cb2565b604051806101600160405280610ab086610281565b8152602001856001600160a01b0316815260200160006001600160a01b03168152602001838152602001828152602001848152602001876001600160a01b031663919cd40f6040518163ffffffff1660e01b815260040160206040518083038186803b158015610b1f57600080fd5b505afa158015610b33573d6000803e3d6000fd5b505050506040513d601f19601f82011682018060405250810190610b579190612ac7565b815260200160008152602001856001600160a01b031663313ce5676040518163ffffffff1660e01b815260040160206040518083038186803b158015610b9c57600080fd5b505afa158015610bb0573d6000803e3d6000fd5b505050506040513d601f19601f82011682018060405250810190610bd49190612d04565b60ff168152602001876001600160a01b031663aaf5eb686040518163ffffffff1660e01b815260040160206040518083038186803b158015610c1557600080fd5b505afa158015610c29573d6000803e3d6000fd5b505050506040513d601f19601f82011682018060405250810190610c4d9190612d04565b60ff168152602001600060ff1681525085600081518110610c6a57fe5b602002602001018190525060405180606001604052808860e001516001600160a01b03168152602001876001600160a01b031681526020018681525088602001819052505050505b505b50505b8061010001516001600160a01b03166375d264136040518163ffffffff1660e01b815260040160206040518083038186803b158015610cf557600080fd5b505afa925050508015610d25575060408051601f3d908101601f19168201909252610d22918101906129e8565b60015b610d5f573d808015610d53576040519150601f19603f3d011682016040523d82523d6000602084013e610d58565b606091505b505061139c565b604080516001808252818301909252606091816020015b610d7e612854565b815260200190600190039081610d765790505090506001600160a01b03821615611399576000826001600160a01b03166399248ea76040518163ffffffff1660e01b815260040160206040518083038186803b158015610ddd57600080fd5b505afa158015610df1573d6000803e3d6000fd5b505050506040513d601f19601f82011682018060405250810190610e1591906129e8565b610100850151604051631652e7b760e01b81529192506001600160a01b03851691631652e7b791610e48916004016130b1565b60606040518083038186803b158015610e6057600080fd5b505afa925050508015610e90575060408051601f3d908101601f19168201909252610e8d91810190612cd7565b60015b61117f573d808015610ebe576040519150601f19603f3d011682016040523d82523d6000602084013e610ec3565b606091505b506000806000866001600160a01b031663f11b81888961010001516040518263ffffffff1660e01b8152600401610efa91906130b1565b60606040518083038186803b158015610f1257600080fd5b505afa158015610f26573d6000803e3d6000fd5b505050506040513d601f19601f82011682018060405250810190610f4a9190612c95565b92506001600160801b031692506001600160801b03169250604051806101600160405280610f7787610281565b8152602001866001600160a01b0316815260200160006001600160a01b03168152602001848152602001838152602001828152602001886001600160a01b031663919cd40f6040518163ffffffff1660e01b815260040160206040518083038186803b158015610fe657600080fd5b505afa158015610ffa573d6000803e3d6000fd5b505050506040513d601f19601f8201168201806040525081019061101e9190612ac7565b815260200160008152602001866001600160a01b031663313ce5676040518163ffffffff1660e01b815260040160206040518083038186803b15801561106357600080fd5b505afa158015611077573d6000803e3d6000fd5b505050506040513d601f19601f8201168201806040525081019061109b9190612d04565b60ff168152602001886001600160a01b031663aaf5eb686040518163ffffffff1660e01b815260040160206040518083038186803b1580156110dc57600080fd5b505afa1580156110f0573d6000803e3d6000fd5b505050506040513d601f19601f820116820180604052508101906111149190612d04565b60ff168152602001600060ff168152508660008151811061113157fe5b602002602001018190525060405180606001604052808961010001516001600160a01b03168152602001886001600160a01b0316815260200187815250896060018190525050505050611397565b60405180610160016040528061119486610281565b8152602001856001600160a01b0316815260200160006001600160a01b03168152602001838152602001828152602001848152602001876001600160a01b031663919cd40f6040518163ffffffff1660e01b815260040160206040518083038186803b15801561120357600080fd5b505afa158015611217573d6000803e3d6000fd5b505050506040513d601f19601f8201168201806040525081019061123b9190612ac7565b815260200160008152602001856001600160a01b031663313ce5676040518163ffffffff1660e01b815260040160206040518083038186803b15801561128057600080fd5b505afa158015611294573d6000803e3d6000fd5b505050506040513d601f19601f820116820180604052508101906112b89190612d04565b60ff168152602001876001600160a01b031663aaf5eb686040518163ffffffff1660e01b815260040160206040518083038186803b1580156112f957600080fd5b505afa15801561130d573d6000803e3d6000fd5b505050506040513d601f19601f820116820180604052508101906113319190612d04565b60ff168152602001600060ff168152508560008151811061134e57fe5b602002602001018190525060405180606001604052808861010001516001600160a01b03168152602001876001600160a01b031681526020018681525088606001819052505050505b505b50505b8061012001516001600160a01b03166375d264136040518163ffffffff1660e01b815260040160206040518083038186803b1580156113da57600080fd5b505afa92505050801561140a575060408051601f3d908101601f19168201909252611407918101906129e8565b60015b611444573d808015611438576040519150601f19603f3d011682016040523d82523d6000602084013e61143d565b606091505b5050611a81565b604080516001808252818301909252606091816020015b611463612854565b81526020019060019003908161145b5790505090506001600160a01b03821615611a7e576000826001600160a01b03166399248ea76040518163ffffffff1660e01b815260040160206040518083038186803b1580156114c257600080fd5b505afa1580156114d6573d6000803e3d6000fd5b505050506040513d601f19601f820116820180604052508101906114fa91906129e8565b610120850151604051631652e7b760e01b81529192506001600160a01b03851691631652e7b79161152d916004016130b1565b60606040518083038186803b15801561154557600080fd5b505afa925050508015611575575060408051601f3d908101601f1916820190925261157291810190612cd7565b60015b611864573d8080156115a3576040519150601f19603f3d011682016040523d82523d6000602084013e6115a8565b606091505b506000806000866001600160a01b031663f11b81888961012001516040518263ffffffff1660e01b81526004016115df91906130b1565b60606040518083038186803b1580156115f757600080fd5b505afa15801561160b573d6000803e3d6000fd5b505050506040513d601f19601f8201168201806040525081019061162f9190612c95565b92506001600160801b031692506001600160801b0316925060405180610160016040528061165c87610281565b8152602001866001600160a01b0316815260200160006001600160a01b03168152602001848152602001838152602001828152602001886001600160a01b031663919cd40f6040518163ffffffff1660e01b815260040160206040518083038186803b1580156116cb57600080fd5b505afa1580156116df573d6000803e3d6000fd5b505050506040513d601f19601f820116820180604052508101906117039190612ac7565b815260200160008152602001866001600160a01b031663313ce5676040518163ffffffff1660e01b815260040160206040518083038186803b15801561174857600080fd5b505afa15801561175c573d6000803e3d6000fd5b505050506040513d601f19601f820116820180604052508101906117809190612d04565b60ff168152602001886001600160a01b031663aaf5eb686040518163ffffffff1660e01b815260040160206040518083038186803b1580156117c157600080fd5b505afa1580156117d5573d6000803e3d6000fd5b505050506040513d601f19601f820116820180604052508101906117f99190612d04565b60ff168152602001600060ff168152508660008151811061181657fe5b602002602001018190525060405180606001604052808961012001516001600160a01b03168152602001886001600160a01b0316815260200187815250896040018190525050505050611a7c565b60405180610160016040528061187986610281565b8152602001856001600160a01b0316815260200160006001600160a01b03168152602001838152602001828152602001848152602001876001600160a01b031663919cd40f6040518163ffffffff1660e01b815260040160206040518083038186803b1580156118e857600080fd5b505afa1580156118fc573d6000803e3d6000fd5b505050506040513d601f19601f820116820180604052508101906119209190612ac7565b815260200160008152602001856001600160a01b031663313ce5676040518163ffffffff1660e01b815260040160206040518083038186803b15801561196557600080fd5b505afa158015611979573d6000803e3d6000fd5b505050506040513d601f19601f8201168201806040525081019061199d9190612d04565b60ff168152602001876001600160a01b031663aaf5eb686040518163ffffffff1660e01b815260040160206040518083038186803b1580156119de57600080fd5b505afa1580156119f2573d6000803e3d6000fd5b505050506040513d601f19601f82011682018060405250810190611a169190612d04565b60ff168152602001600060ff1681525085600081518110611a3357fe5b602002602001018190525060405180606001604052808861012001516001600160a01b03168152602001876001600160a01b031681526020018681525088604001819052505050505b505b50505b50506001016104f4565b50949350505050565b60606000836001600160a01b0316630261bf8b6040518163ffffffff1660e01b815260040160206040518083038186803b158015611ad157600080fd5b505afa158015611ae5573d6000803e3d6000fd5b505050506040513d601f19601f82011682018060405250810190611b0991906129e8565b90506060816001600160a01b031663d1946dbc6040518163ffffffff1660e01b815260040160006040518083038186803b158015611b4657600080fd5b505afa158015611b5a573d6000803e3d6000fd5b505050506040513d6000823e601f3d908101601f19168201604052611b829190810190612a04565b905060606001600160a01b038516611b9b576000611b9e565b81515b67ffffffffffffffff81118015611bb457600080fd5b50604051908082528060200260200182016040528015611bee57816020015b611bdb6127a7565b815260200190600190039081611bd35790505b50905060005b825181101561279d57611c056127e9565b846001600160a01b03166335ea6a75858481518110611c2057fe5b60200260200101516040518263ffffffff1660e01b8152600401611c4491906130b1565b6101806040518083038186803b158015611c5d57600080fd5b505afa158015611c71573d6000803e3d6000fd5b505050506040513d601f19601f82011682018060405250810190611c959190612b9a565b9050838281518110611ca357fe5b6020026020010151838381518110611cb757fe5b6020026020010151600001906001600160a01b031690816001600160a01b0316815250508060e001516001600160a01b03166375d264136040518163ffffffff1660e01b815260040160206040518083038186803b158015611d1857600080fd5b505afa925050508015611d48575060408051601f3d908101601f19168201909252611d45918101906129e8565b60015b611d82573d808015611d76576040519150601f19603f3d011682016040523d82523d6000602084013e611d7b565b606091505b505061206c565b6001600160a01b0381161561206a57604080516001808252818301909252606091816020015b611db06128c9565b815260200190600190039081611da85790505090506000826001600160a01b03166399248ea76040518163ffffffff1660e01b815260040160206040518083038186803b158015611e0057600080fd5b505afa158015611e14573d6000803e3d6000fd5b505050506040513d601f19601f82011682018060405250810190611e3891906129e8565b9050604051806101000160405280611e4f83610281565b815260200160006001600160a01b03168152602001826001600160a01b03168152602001846001600160a01b031663198fa81e8d6040518263ffffffff1660e01b8152600401611e9f91906130b1565b60206040518083038186803b158015611eb757600080fd5b505afa158015611ecb573d6000803e3d6000fd5b505050506040513d601f19601f82011682018060405250810190611eef9190612ac7565b8152602001846001600160a01b0316633373ee4c8d8860e001516040518363ffffffff1660e01b8152600401611f269291906130c5565b60206040518083038186803b158015611f3e57600080fd5b505afa158015611f52573d6000803e3d6000fd5b505050506040513d601f19601f82011682018060405250810190611f769190612ac7565b815260200160008152602001600060ff168152602001826001600160a01b031663313ce5676040518163ffffffff1660e01b815260040160206040518083038186803b158015611fc557600080fd5b505afa158015611fd9573d6000803e3d6000fd5b505050506040513d601f19601f82011682018060405250810190611ffd9190612d04565b60ff168152508260008151811061201057fe5b602002602001018190525060405180606001604052808560e001516001600160a01b03168152602001846001600160a01b031681526020018381525086868151811061205857fe5b60200260200101516020018190525050505b505b8061012001516001600160a01b03166375d264136040518163ffffffff1660e01b815260040160206040518083038186803b1580156120aa57600080fd5b505afa9250505080156120da575060408051601f3d908101601f191682019092526120d7918101906129e8565b60015b612114573d808015612108576040519150601f19603f3d011682016040523d82523d6000602084013e61210d565b606091505b5050612400565b6001600160a01b038116156123fe57604080516001808252818301909252606091816020015b6121426128c9565b81526020019060019003908161213a5790505090506000826001600160a01b03166399248ea76040518163ffffffff1660e01b815260040160206040518083038186803b15801561219257600080fd5b505afa1580156121a6573d6000803e3d6000fd5b505050506040513d601f19601f820116820180604052508101906121ca91906129e8565b90506040518061010001604052806121e183610281565b815260200160006001600160a01b03168152602001826001600160a01b03168152602001846001600160a01b031663198fa81e8d6040518263ffffffff1660e01b815260040161223191906130b1565b60206040518083038186803b15801561224957600080fd5b505afa15801561225d573d6000803e3d6000fd5b505050506040513d601f19601f820116820180604052508101906122819190612ac7565b8152602001846001600160a01b0316633373ee4c8d8861012001516040518363ffffffff1660e01b81526004016122b99291906130c5565b60206040518083038186803b1580156122d157600080fd5b505afa1580156122e5573d6000803e3d6000fd5b505050506040513d601f19601f820116820180604052508101906123099190612ac7565b815260200160008152602001600060ff168152602001826001600160a01b031663313ce5676040518163ffffffff1660e01b815260040160206040518083038186803b15801561235857600080fd5b505afa15801561236c573d6000803e3d6000fd5b505050506040513d601f19601f820116820180604052508101906123909190612d04565b60ff16815250826000815181106123a357fe5b602002602001018190525060405180606001604052808561012001516001600160a01b03168152602001846001600160a01b03168152602001838152508686815181106123ec57fe5b60200260200101516040018190525050505b505b8061010001516001600160a01b03166375d264136040518163ffffffff1660e01b815260040160206040518083038186803b15801561243e57600080fd5b505afa92505050801561246e575060408051601f3d908101601f1916820190925261246b918101906129e8565b60015b6124a8573d80801561249c576040519150601f19603f3d011682016040523d82523d6000602084013e6124a1565b606091505b5050612794565b6001600160a01b0381161561279257604080516001808252818301909252606091816020015b6124d66128c9565b8152602001906001900390816124ce5790505090506000826001600160a01b03166399248ea76040518163ffffffff1660e01b815260040160206040518083038186803b15801561252657600080fd5b505afa15801561253a573d6000803e3d6000fd5b505050506040513d601f19601f8201168201806040525081019061255e91906129e8565b905060405180610100016040528061257583610281565b815260200160006001600160a01b03168152602001826001600160a01b03168152602001846001600160a01b031663198fa81e8d6040518263ffffffff1660e01b81526004016125c591906130b1565b60206040518083038186803b1580156125dd57600080fd5b505afa1580156125f1573d6000803e3d6000fd5b505050506040513d601f19601f820116820180604052508101906126159190612ac7565b8152602001846001600160a01b0316633373ee4c8d8861010001516040518363ffffffff1660e01b815260040161264d9291906130c5565b60206040518083038186803b15801561266557600080fd5b505afa158015612679573d6000803e3d6000fd5b505050506040513d601f19601f8201168201806040525081019061269d9190612ac7565b815260200160008152602001600060ff168152602001826001600160a01b031663313ce5676040518163ffffffff1660e01b815260040160206040518083038186803b1580156126ec57600080fd5b505afa158015612700573d6000803e3d6000fd5b505050506040513d601f19601f820116820180604052508101906127249190612d04565b60ff168152508260008151811061273757fe5b602002602001018190525060405180606001604052808561010001516001600160a01b03168152602001846001600160a01b031681526020018381525086868151811061278057fe5b60200260200101516060018190525050505b505b50600101611bf4565b5095945050505050565b604051806080016040528060006001600160a01b031681526020016127ca612926565b81526020016127d7612926565b81526020016127e4612926565b905290565b6040518061018001604052806127fd612945565b815260006020820181905260408201819052606082018190526080820181905260a0820181905260c0820181905260e082018190526101008201819052610120820181905261014082018190526101609091015290565b6040518061016001604052806060815260200160006001600160a01b0316815260200160006001600160a01b031681526020016000815260200160008152602001600081526020016000815260200160008152602001600060ff168152602001600060ff168152602001600060ff1681525090565b6040518061010001604052806060815260200160006001600160a01b0316815260200160006001600160a01b03168152602001600081526020016000815260200160008152602001600060ff168152602001600060ff1681525090565b6040805160608082018352600080835260208301529181019190915290565b6040518060200160405280600081525090565b80516101498161319d565b600060208284031215612974578081fd5b61297e6020613146565b9151825250919050565b80516001600160801b038116811461014957600080fd5b805164ffffffffff8116811461014957600080fd5b805160ff8116811461014957600080fd5b6000602082840312156129d6578081fd5b81356129e18161319d565b9392505050565b6000602082840312156129f9578081fd5b81516129e18161319d565b60006020808385031215612a16578182fd5b825167ffffffffffffffff80821115612a2d578384fd5b818501915085601f830112612a40578384fd5b815181811115612a4e578485fd5b8381029150612a5e848301613146565b8181528481019084860184860187018a1015612a78578788fd5b8795505b83861015612aa257612a8e8a82612958565b835260019590950194918601918601612a7c565b5098975050505050505050565b600060208284031215612ac0578081fd5b5035919050565b600060208284031215612ad8578081fd5b5051919050565b60008060408385031215612af1578081fd5b8235612afc8161319d565b91506020830135612b0c8161319d565b809150509250929050565b600060208284031215612b28578081fd5b815167ffffffffffffffff80821115612b3f578283fd5b818401915084601f830112612b52578283fd5b815181811115612b60578384fd5b612b73601f8201601f1916602001613146565b9150808252856020828501011115612b89578384fd5b611a8b81602084016020860161316d565b6000610180808385031215612bad578182fd5b612bb681613146565b9050612bc28484612963565b8152612bd18460208501612988565b6020820152612be38460408501612988565b6040820152612bf58460608501612988565b6060820152612c078460808501612988565b6080820152612c198460a08501612988565b60a0820152612c2b8460c0850161299f565b60c0820152612c3d8460e08501612958565b60e0820152610100612c5185828601612958565b90820152610120612c6485858301612958565b90820152610140612c7785858301612958565b90820152610160612c8a858583016129b4565b908201529392505050565b600080600060608486031215612ca9578081fd5b8351612cb4816131b5565b6020850151909350612cc5816131b5565b80925050604084015190509250925092565b600080600060608486031215612ceb578081fd5b8351925060208401519150604084015190509250925092565b600060208284031215612d15578081fd5b61014683836129b4565b6001600160a01b03169052565b6000815180845260208085018081965082840281019150828601855b85811015612dc9578284038952815180516001600160a01b0316855285810151608087870181905290612d7d82880182612e9b565b91505060408083015187830382890152612d978382612e9b565b9250505060608083015192508682038188015250612db58183612e9b565b9a87019a9550505090840190600101612d48565b5091979650505050505050565b6000815180845260208085018081965082840281019150828601855b85811015612dc957828403895281516080612e0e868351612d1f565b868201518188880152612e2382880182612fc4565b91505060408083015187830382890152612e3d8382612fc4565b9250505060608083015192508682038188015250612e5b8183612fc4565b9a87019a9550505090840190600101612df2565b60008151808452612e8781602086016020860161316d565b601f01601f19169290920160200192915050565b80516001600160a01b0390811683526020808301519091168184015260408083015160608286018190528151868201819052600094919360809390929190820190848901908084028a018601885b82811015612fb557607f198c830301845284516101608151818552612f1082860182612e6f565b91505087820151612f2389860182612d1f565b5088820151612f348a860182612d1f565b50818b0151848c0152898201518a85015260a0808301519085015260c0808301519085015260e0808301519085015261010080830151612f76828701826130aa565b505061012080830151612f8b828701826130aa565b50506101409182015191612fa1858201846130aa565b509587019594870194925050600101612ee9565b509a9950505050505050505050565b6000606080840160018060a01b0380855116865260208181870151168188015260408087015185828a015284815180875260809650868b019150868582028c01018584019350895b8281101561309a57607f198d83030184528451610100815181855261303382860182612e6f565b838b01518c16868c0152898401518c168a8701528d8401518e8701528c8401518d87015260a0808501519087015260c08085015160ff169087015260e093840151939092509050613086818601846130aa565b50958801959488019492505060010161300c565b509b9a5050505050505050505050565b60ff169052565b6001600160a01b0391909116815260200190565b6001600160a01b0392831681529116602082015260400190565b6000602082526101466020830184612d2c565b6000604082526131056040830185612d2c565b82810360208401526131178185612dd6565b95945050505050565b6000602082526101466020830184612dd6565b6000602082526101466020830184612e6f565b60405181810167ffffffffffffffff8111828210171561316557600080fd5b604052919050565b60005b83811015613188578181015183820152602001613170565b83811115613197576000848401525b50505050565b6001600160a01b03811681146131b257600080fd5b50565b6001600160801b03811681146131b257600080fdfea2646970667358221220cb49701e8b7a334272b687d6c8a03126b0215930b7f591012bf1a5f6b8703ee564736f6c634300060c0033",
  "linkReferences": {},
  "deployedLinkReferences": {}
}