{
  "_format": "hh-sol-artifact-1",
  "contractName": "UiPoolDataProviderV2",
  "sourceName": "contracts/misc/UiPoolDataProviderV2.sol",
  "abi": [
    {
      "inputs": [
        {
          "internalType": "contract IChainlinkAggregator",
          "name": "_networkBaseTokenPriceInUsdProxyAggregator",
          "type": "address"
        },
        {
          "internalType": "contract IChainlinkAggregator",
          "name": "_marketReferenceCurrencyPriceInUsdProxyAggregator",
          "type": "address"
        }
      ],
      "stateMutability": "nonpayable",
      "type": "constructor"
    },
    {
      "inputs": [],
      "name": "ETH_CURRENCY_UNIT",
      "outputs": [
        {
          "internalType": "uint256",
          "name": "",
          "type": "uint256"
        }
      ],
      "stateMutability": "view",
      "type": "function"
    },
    {
      "inputs": [],
      "name": "MKRAddress",
      "outputs": [
        {
          "internalType": "address",
          "name": "",
          "type": "address"
        }
      ],
      "stateMutability": "view",
      "type": "function"
    },
    {
      "inputs": [
        {
          "internalType": "bytes32",
          "name": "_bytes32",
          "type": "bytes32"
        }
      ],
      "name": "bytes32ToString",
      "outputs": [
        {
          "internalType": "string",
          "name": "",
          "type": "string"
        }
      ],
      "stateMutability": "pure",
      "type": "function"
    },
    {
      "inputs": [
        {
          "internalType": "contract ILendingPoolAddressesProvider",
          "name": "provider",
          "type": "address"
        }
      ],
      "name": "getReservesData",
      "outputs": [
        {
          "components": [
            {
              "internalType": "address",
              "name": "underlyingAsset",
              "type": "address"
            },
            {
              "internalType": "string",
              "name": "name",
              "type": "string"
            },
            {
              "internalType": "string",
              "name": "symbol",
              "type": "string"
            },
            {
              "internalType": "uint256",
              "name": "decimals",
              "type": "uint256"
            },
            {
              "internalType": "uint256",
              "name": "baseLTVasCollateral",
              "type": "uint256"
            },
            {
              "internalType": "uint256",
              "name": "reserveLiquidationThreshold",
              "type": "uint256"
            },
            {
              "internalType": "uint256",
              "name": "reserveLiquidationBonus",
              "type": "uint256"
            },
            {
              "internalType": "uint256",
              "name": "reserveFactor",
              "type": "uint256"
            },
            {
              "internalType": "bool",
              "name": "usageAsCollateralEnabled",
              "type": "bool"
            },
            {
              "internalType": "bool",
              "name": "borrowingEnabled",
              "type": "bool"
            },
            {
              "internalType": "bool",
              "name": "stableBorrowRateEnabled",
              "type": "bool"
            },
            {
              "internalType": "bool",
              "name": "isActive",
              "type": "bool"
            },
            {
              "internalType": "bool",
              "name": "isFrozen",
              "type": "bool"
            },
            {
              "internalType": "uint128",
              "name": "liquidityIndex",
              "type": "uint128"
            },
            {
              "internalType": "uint128",
              "name": "variableBorrowIndex",
              "type": "uint128"
            },
            {
              "internalType": "uint128",
              "name": "liquidityRate",
              "type": "uint128"
            },
            {
              "internalType": "uint128",
              "name": "variableBorrowRate",
              "type": "uint128"
            },
            {
              "internalType": "uint128",
              "name": "stableBorrowRate",
              "type": "uint128"
            },
            {
              "internalType": "uint40",
              "name": "lastUpdateTimestamp",
              "type": "uint40"
            },
            {
              "internalType": "address",
              "name": "aTokenAddress",
              "type": "address"
            },
            {
              "internalType": "address",
              "name": "stableDebtTokenAddress",
              "type": "address"
            },
            {
              "internalType": "address",
              "name": "variableDebtTokenAddress",
              "type": "address"
            },
            {
              "internalType": "address",
              "name": "interestRateStrategyAddress",
              "type": "address"
            },
            {
              "internalType": "uint256",
              "name": "availableLiquidity",
              "type": "uint256"
            },
            {
              "internalType": "uint256",
              "name": "totalPrincipalStableDebt",
              "type": "uint256"
            },
            {
              "internalType": "uint256",
              "name": "averageStableRate",
              "type": "uint256"
            },
            {
              "internalType": "uint256",
              "name": "stableDebtLastUpdateTimestamp",
              "type": "uint256"
            },
            {
              "internalType": "uint256",
              "name": "totalScaledVariableDebt",
              "type": "uint256"
            },
            {
              "internalType": "uint256",
              "name": "priceInMarketReferenceCurrency",
              "type": "uint256"
            },
            {
              "internalType": "uint256",
              "name": "variableRateSlope1",
              "type": "uint256"
            },
            {
              "internalType": "uint256",
              "name": "variableRateSlope2",
              "type": "uint256"
            },
            {
              "internalType": "uint256",
              "name": "stableRateSlope1",
              "type": "uint256"
            },
            {
              "internalType": "uint256",
              "name": "stableRateSlope2",
              "type": "uint256"
            }
          ],
          "internalType": "struct IUiPoolDataProviderV2.AggregatedReserveData[]",
          "name": "",
          "type": "tuple[]"
        },
        {
          "components": [
            {
              "internalType": "uint256",
              "name": "marketReferenceCurrencyUnit",
              "type": "uint256"
            },
            {
              "internalType": "int256",
              "name": "marketReferenceCurrencyPriceInUsd",
              "type": "int256"
            },
            {
              "internalType": "int256",
              "name": "networkBaseTokenPriceInUsd",
              "type": "int256"
            },
            {
              "internalType": "uint8",
              "name": "networkBaseTokenPriceDecimals",
              "type": "uint8"
            }
          ],
          "internalType": "struct IUiPoolDataProviderV2.BaseCurrencyInfo",
          "name": "",
          "type": "tuple"
        }
      ],
      "stateMutability": "view",
      "type": "function"
    },
    {
      "inputs": [
        {
          "internalType": "contract ILendingPoolAddressesProvider",
          "name": "provider",
          "type": "address"
        }
      ],
      "name": "getReservesList",
      "outputs": [
        {
          "internalType": "address[]",
          "name": "",
          "type": "address[]"
        }
      ],
      "stateMutability": "view",
      "type": "function"
    },
    {
      "inputs": [
        {
          "internalType": "contract ILendingPoolAddressesProvider",
          "name": "provider",
          "type": "address"
        },
        {
          "internalType": "address",
          "name": "user",
          "type": "address"
        }
      ],
      "name": "getUserReservesData",
      "outputs": [
        {
          "components": [
            {
              "internalType": "address",
              "name": "underlyingAsset",
              "type": "address"
            },
            {
              "internalType": "uint256",
              "name": "scaledATokenBalance",
              "type": "uint256"
            },
            {
              "internalType": "bool",
              "name": "usageAsCollateralEnabledOnUser",
              "type": "bool"
            },
            {
              "internalType": "uint256",
              "name": "stableBorrowRate",
              "type": "uint256"
            },
            {
              "internalType": "uint256",
              "name": "scaledVariableDebt",
              "type": "uint256"
            },
            {
              "internalType": "uint256",
              "name": "principalStableDebt",
              "type": "uint256"
            },
            {
              "internalType": "uint256",
              "name": "stableBorrowLastUpdateTimestamp",
              "type": "uint256"
            }
          ],
          "internalType": "struct IUiPoolDataProviderV2.UserReserveData[]",
          "name": "",
          "type": "tuple[]"
        }
      ],
      "stateMutability": "view",
      "type": "function"
    },
    {
      "inputs": [],
      "name": "marketReferenceCurrencyPriceInUsdProxyAggregator",
      "outputs": [
        {
          "internalType": "contract IChainlinkAggregator",
          "name": "",
          "type": "address"
        }
      ],
      "stateMutability": "view",
      "type": "function"
    },
    {
      "inputs": [],
      "name": "networkBaseTokenPriceInUsdProxyAggregator",
      "outputs": [
        {
          "internalType": "contract IChainlinkAggregator",
          "name": "",
          "type": "address"
        }
      ],
      "stateMutability": "view",
      "type": "function"
    }
  ],
  "bytecode": "0x60c06040523480156200001157600080fd5b506040516200234c3803806200234c833981016040819052620000349162000053565b6001600160601b0319606092831b8116608052911b1660a052620000aa565b6000806040838503121562000066578182fd5b8251620000738162000091565b6020840151909250620000868162000091565b809150509250929050565b6001600160a01b0381168114620000a757600080fd5b50565b60805160601c60a05160601c612264620000e8600039806109d252806112fd52806113bb52508061015f528061111452806111ae52506122646000f3fe608060405234801561001057600080fd5b50600436106100885760003560e01c80639201de551161005b5780639201de55146101005780639dd9e2ce14610120578063d22cf68a14610128578063ec489c211461013057610088565b80630496f53a1461008d5780633c1740ed146100ab57806351974cc0146100c0578063586c1442146100e0575b600080fd5b610095610151565b6040516100a29190612197565b60405180910390f35b6100b361015d565b6040516100a29190612006565b6100d36100ce366004611b30565b610181565b6040516100a291906120f8565b6100f36100ee366004611b14565b6107bf565b6040516100a2919061201a565b61011361010e366004611ae4565b6108b2565b6040516100a29190612184565b6100b36109b8565b6100b36109d0565b61014361013e366004611b14565b6109f4565b6040516100a2929190612067565b670de0b6b3a764000081565b7f000000000000000000000000000000000000000000000000000000000000000081565b60606000836001600160a01b0316630261bf8b6040518163ffffffff1660e01b815260040160206040518083038186803b1580156101be57600080fd5b505afa1580156101d2573d6000803e3d6000fd5b505050506040513d601f19601f820116820180604052508101906101f69190611a1d565b90506060816001600160a01b031663d1946dbc6040518163ffffffff1660e01b815260040160006040518083038186803b15801561023357600080fd5b505afa158015610247573d6000803e3d6000fd5b505050506040513d6000823e601f3d908101601f1916820160405261026f9190810190611a39565b9050610279611760565b604051634417a58360e01b81526001600160a01b03841690634417a583906102a5908890600401612006565b60206040518083038186803b1580156102bd57600080fd5b505afa1580156102d1573d6000803e3d6000fd5b505050506040513d601f19601f820116820180604052508101906102f59190611cef565b905060606001600160a01b03861661030e576000610311565b82515b67ffffffffffffffff8111801561032757600080fd5b5060405190808252806020026020018201604052801561036157816020015b61034e611773565b8152602001906001900390816103465790505b50905060005b83518110156107b2576103786117bb565b856001600160a01b03166335ea6a7586848151811061039357fe5b60200260200101516040518263ffffffff1660e01b81526004016103b79190612006565b6101806040518083038186803b1580156103d057600080fd5b505afa1580156103e4573d6000803e3d6000fd5b505050506040513d601f19601f820116820180604052508101906104089190611bf4565b905084828151811061041657fe5b602002602001015183838151811061042a57fe5b60209081029190910101516001600160a01b03918216905260e0820151604051630ed1279f60e11b8152911690631da24f3e9061046b908b90600401612006565b60206040518083038186803b15801561048357600080fd5b505afa158015610497573d6000803e3d6000fd5b505050506040513d601f19601f820116820180604052508101906104bb9190611afc565b8383815181106104c757fe5b60209081029190910181015101526104df848361146e565b8383815181106104eb57fe5b602090810291909101015190151560409091015261050984836114cf565b156107a9578061012001516001600160a01b0316631da24f3e896040518263ffffffff1660e01b815260040161053f9190612006565b60206040518083038186803b15801561055757600080fd5b505afa15801561056b573d6000803e3d6000fd5b505050506040513d601f19601f8201168201806040525081019061058f9190611afc565b83838151811061059b57fe5b602002602001015160800181815250508061010001516001600160a01b031663c634dfaa896040518263ffffffff1660e01b81526004016105dc9190612006565b60206040518083038186803b1580156105f457600080fd5b505afa158015610608573d6000803e3d6000fd5b505050506040513d601f19601f8201168201806040525081019061062c9190611afc565b83838151811061063857fe5b602002602001015160a001818152505082828151811061065457fe5b602002602001015160a001516000146107a9578061010001516001600160a01b031663e78c9b3b896040518263ffffffff1660e01b81526004016106989190612006565b60206040518083038186803b1580156106b057600080fd5b505afa1580156106c4573d6000803e3d6000fd5b505050506040513d601f19601f820116820180604052508101906106e89190611afc565b8383815181106106f457fe5b602002602001015160600181815250508061010001516001600160a01b03166379ce6b8c896040518263ffffffff1660e01b81526004016107359190612006565b60206040518083038186803b15801561074d57600080fd5b505afa158015610761573d6000803e3d6000fd5b505050506040513d601f19601f820116820180604052508101906107859190611d4a565b64ffffffffff1683838151811061079857fe5b602002602001015160c00181815250505b50600101610367565b5093505050505b92915050565b60606000826001600160a01b0316630261bf8b6040518163ffffffff1660e01b815260040160206040518083038186803b1580156107fc57600080fd5b505afa158015610810573d6000803e3d6000fd5b505050506040513d601f19601f820116820180604052508101906108349190611a1d565b9050806001600160a01b031663d1946dbc6040518163ffffffff1660e01b815260040160006040518083038186803b15801561086f57600080fd5b505afa158015610883573d6000803e3d6000fd5b505050506040513d6000823e601f3d908101601f191682016040526108ab9190810190611a39565b9392505050565b606060005b60208160ff161080156108e55750828160ff16602081106108d457fe5b1a60f81b6001600160f81b03191615155b156108f2576001016108b7565b60608160ff1667ffffffffffffffff8111801561090e57600080fd5b506040519080825280601f01601f191660200182016040528015610939576020820181803683370190505b509050600091505b60208260ff1610801561096f5750838260ff166020811061095e57fe5b1a60f81b6001600160f81b03191615155b156108ab57838260ff166020811061098357fe5b1a60f81b818360ff168151811061099657fe5b60200101906001600160f81b031916908160001a905350600190910190610941565b739f8f72aa9304c8b593d555f12ef6589cc3a579a281565b7f000000000000000000000000000000000000000000000000000000000000000081565b60606109fe611826565b6000836001600160a01b031663fca513a86040518163ffffffff1660e01b815260040160206040518083038186803b158015610a3957600080fd5b505afa158015610a4d573d6000803e3d6000fd5b505050506040513d601f19601f82011682018060405250810190610a719190611a1d565b90506000846001600160a01b0316630261bf8b6040518163ffffffff1660e01b815260040160206040518083038186803b158015610aae57600080fd5b505afa158015610ac2573d6000803e3d6000fd5b505050506040513d601f19601f82011682018060405250810190610ae69190611a1d565b90506060816001600160a01b031663d1946dbc6040518163ffffffff1660e01b815260040160006040518083038186803b158015610b2357600080fd5b505afa158015610b37573d6000803e3d6000fd5b505050506040513d6000823e601f3d908101601f19168201604052610b5f9190810190611a39565b90506060815167ffffffffffffffff81118015610b7b57600080fd5b50604051908082528060200260200182016040528015610bb557816020015b610ba2611851565b815260200190600190039081610b9a5790505b50905060005b825181101561110957610bcc611851565b828281518110610bd857fe5b60200260200101519050838281518110610bee57fe5b60209081029190910101516001600160a01b03168152610c0c6117bb565b81516040516335ea6a7560e01b81526001600160a01b038816916335ea6a7591610c399190600401612006565b6101806040518083038186803b158015610c5257600080fd5b505afa158015610c66573d6000803e3d6000fd5b505050506040513d601f19601f82011682018060405250810190610c8a9190611bf4565b60208101516001600160801b039081166101a085015260408083015182166101c0860152606083015182166101e08601526080830151821661020086015260a083015190911661022085015260c082015164ffffffffff1661024085015260e08201516001600160a01b03908116610260860152610100830151811661028086015261012083015181166102a086015261014083015181166102c08601528451915163b3596f0760e01b815292935089169163b3596f0791610d4e91600401612006565b60206040518083038186803b158015610d6657600080fd5b505afa158015610d7a573d6000803e3d6000fd5b505050506040513d601f19601f82011682018060405250810190610d9e9190611afc565b61038083015281516102608301516040516370a0823160e01b81526001600160a01b03909216916370a0823191610dd791600401612006565b60206040518083038186803b158015610def57600080fd5b505afa158015610e03573d6000803e3d6000fd5b505050506040513d601f19601f82011682018060405250810190610e279190611afc565b826102e00181815250508161028001516001600160a01b031663797743386040518163ffffffff1660e01b815260040160806040518083038186803b158015610e6f57600080fd5b505afa158015610e83573d6000803e3d6000fd5b505050506040513d601f19601f82011682018060405250810190610ea79190611d0a565b64ffffffffff16610340860152610320850152506103008301526102a08201516040805163b1bf962d60e01b815290516001600160a01b039092169163b1bf962d91600480820192602092909190829003018186803b158015610f0957600080fd5b505afa158015610f1d573d6000803e3d6000fd5b505050506040513d601f19601f82011682018060405250810190610f419190611afc565b61036083015281516001600160a01b0316739f8f72aa9304c8b593d555f12ef6589cc3a579a21415610ffa57600082600001516001600160a01b03166395d89b416040518163ffffffff1660e01b815260040160206040518083038186803b158015610fac57600080fd5b505afa158015610fc0573d6000803e3d6000fd5b505050506040513d601f19601f82011682018060405250810190610fe49190611afc565b9050610fef816108b2565b604084015250611079565b81600001516001600160a01b03166395d89b416040518163ffffffff1660e01b815260040160006040518083038186803b15801561103757600080fd5b505afa15801561104b573d6000803e3d6000fd5b505050506040513d6000823e601f3d908101601f191682016040526110739190810190611b68565b60408301525b805161108490611520565b60e0870152606086015260c085015260a0840152608083015280516110a89061154b565b1515610140860152151561012085015215156101808401521515610160830152608082015115156101008301526102c08201516110e490611587565b6104008601526103e08501526103c08401526103a09092019190915250600101610bbb565b50611112611826565b7f00000000000000000000000000000000000000000000000000000000000000006001600160a01b03166350d25bcd6040518163ffffffff1660e01b815260040160206040518083038186803b15801561116b57600080fd5b505afa15801561117f573d6000803e3d6000fd5b505050506040513d601f19601f820116820180604052508101906111a39190611afc565b8160400181815250507f00000000000000000000000000000000000000000000000000000000000000006001600160a01b031663313ce5676040518163ffffffff1660e01b815260040160206040518083038186803b15801561120557600080fd5b505afa158015611219573d6000803e3d6000fd5b505050506040513d601f19601f8201168201806040525081019061123d9190611d66565b60ff16606082015260408051638c89b64f60e01b815290516001600160a01b03871691638c89b64f916004808301926020929190829003018186803b15801561128557600080fd5b505afa9250505080156112b5575060408051601f3d908101601f191682019092526112b291810190611afc565b60015b611397573d8080156112e3576040519150601f19603f3d011682016040523d82523d6000602084013e6112e8565b606091505b50670de0b6b3a76400008260000181815250507f00000000000000000000000000000000000000000000000000000000000000006001600160a01b03166350d25bcd6040518163ffffffff1660e01b815260040160206040518083038186803b15801561135457600080fd5b505afa158015611368573d6000803e3d6000fd5b505050506040513d601f19601f8201168201806040525081019061138c9190611afc565b602083015250611461565b80670de0b6b3a7640000141561145457670de0b6b3a76400008260000181815250507f00000000000000000000000000000000000000000000000000000000000000006001600160a01b03166350d25bcd6040518163ffffffff1660e01b815260040160206040518083038186803b15801561141257600080fd5b505afa158015611426573d6000803e3d6000fd5b505050506040513d601f19601f8201168201806040525081019061144a9190611afc565b602083015261145f565b808252602082018190525b505b9095509350505050915091565b60006080821060405180604001604052806002815260200161373760f01b815250906114b65760405162461bcd60e51b81526004016114ad9190612184565b60405180910390fd5b5050815160016002830281019190911c16151592915050565b60006080821060405180604001604052806002815260200161373760f01b8152509061150e5760405162461bcd60e51b81526004016114ad9190612184565b50509051600160029092021c16151590565b5161ffff80821692601083901c821692602081901c831692603082901c60ff169260409290921c1690565b51670100000000000000811615159167020000000000000082161515916704000000000000008116151591670800000000000000909116151590565b600080600080846001600160a01b0316637b832f586040518163ffffffff1660e01b815260040160206040518083038186803b1580156115c657600080fd5b505afa1580156115da573d6000803e3d6000fd5b505050506040513d601f19601f820116820180604052508101906115fe9190611afc565b856001600160a01b03166365614f816040518163ffffffff1660e01b815260040160206040518083038186803b15801561163757600080fd5b505afa15801561164b573d6000803e3d6000fd5b505050506040513d601f19601f8201168201806040525081019061166f9190611afc565b866001600160a01b0316630bdf953f6040518163ffffffff1660e01b815260040160206040518083038186803b1580156116a857600080fd5b505afa1580156116bc573d6000803e3d6000fd5b505050506040513d601f19601f820116820180604052508101906116e09190611afc565b876001600160a01b031663ccab01a36040518163ffffffff1660e01b815260040160206040518083038186803b15801561171957600080fd5b505afa15801561172d573d6000803e3d6000fd5b505050506040513d601f19601f820116820180604052508101906117519190611afc565b93509350935093509193509193565b6040518060200160405280600081525090565b6040518060e0016040528060006001600160a01b0316815260200160008152602001600015158152602001600081526020016000815260200160008152602001600081525090565b6040518061018001604052806117cf611760565b815260006020820181905260408201819052606082018190526080820181905260a0820181905260c0820181905260e082018190526101008201819052610120820181905261014082018190526101609091015290565b6040518060800160405280600081526020016000815260200160008152602001600060ff1681525090565b60405180610420016040528060006001600160a01b031681526020016060815260200160608152602001600081526020016000815260200160008152602001600081526020016000815260200160001515815260200160001515815260200160001515815260200160001515815260200160001515815260200160006001600160801b0316815260200160006001600160801b0316815260200160006001600160801b0316815260200160006001600160801b0316815260200160006001600160801b03168152602001600064ffffffffff16815260200160006001600160a01b0316815260200160006001600160a01b0316815260200160006001600160a01b0316815260200160006001600160a01b03168152602001600081526020016000815260200160008152602001600081526020016000815260200160008152602001600081526020016000815260200160008152602001600081525090565b80516107b981612203565b6000602082840312156119cc578081fd5b6119d660206121a0565b9151825250919050565b80516001600160801b03811681146107b957600080fd5b805164ffffffffff811681146107b957600080fd5b805160ff811681146107b957600080fd5b600060208284031215611a2e578081fd5b81516108ab81612203565b60006020808385031215611a4b578182fd5b825167ffffffffffffffff80821115611a62578384fd5b818501915085601f830112611a75578384fd5b815181811115611a83578485fd5b8381029150611a938483016121a0565b8181528481019084860184860187018a1015611aad578788fd5b8795505b83861015611ad757611ac38a826119b0565b835260019590950194918601918601611ab1565b5098975050505050505050565b600060208284031215611af5578081fd5b5035919050565b600060208284031215611b0d578081fd5b5051919050565b600060208284031215611b25578081fd5b81356108ab81612203565b60008060408385031215611b42578081fd5b8235611b4d81612203565b91506020830135611b5d81612203565b809150509250929050565b600060208284031215611b79578081fd5b815167ffffffffffffffff80821115611b90578283fd5b818401915084601f830112611ba3578283fd5b815181811115611bb1578384fd5b611bc4601f8201601f19166020016121a0565b9150808252856020828501011115611bda578384fd5b611beb8160208401602086016121d3565b50949350505050565b6000610180808385031215611c07578182fd5b611c10816121a0565b9050611c1c84846119bb565b8152611c2b84602085016119e0565b6020820152611c3d84604085016119e0565b6040820152611c4f84606085016119e0565b6060820152611c6184608085016119e0565b6080820152611c738460a085016119e0565b60a0820152611c858460c085016119f7565b60c0820152611c978460e085016119b0565b60e0820152610100611cab858286016119b0565b90820152610120611cbe858583016119b0565b90820152610140611cd1858583016119b0565b90820152610160611ce485858301611a0c565b908201529392505050565b600060208284031215611d00578081fd5b6108ab83836119bb565b60008060008060808587031215611d1f578182fd5b8451935060208501519250604085015191506060850151611d3f8161221b565b939692955090935050565b600060208284031215611d5b578081fd5b81516108ab8161221b565b600060208284031215611d77578081fd5b6108ab8383611a0c565b6000610420611d91848451611fa8565b6020830151816020860152611da882860182611fbb565b91505060408301518482036040860152611dc28282611fbb565b915050606083015160608501526080830151608085015260a083015160a085015260c083015160c085015260e083015160e085015261010080840151611e0a82870182611fb5565b505061012080840151611e1f82870182611fb5565b505061014080840151611e3482870182611fb5565b505061016080840151611e4982870182611fb5565b505061018080840151611e5e82870182611fb5565b50506101a080840151611e7382870182611fe7565b50506101c080840151611e8882870182611fe7565b50506101e080840151611e9d82870182611fe7565b505061020080840151611eb282870182611fe7565b505061022080840151611ec782870182611fe7565b505061024080840151611edc82870182611ff4565b505061026080840151611ef182870182611fa8565b505061028080840151611f0682870182611fa8565b50506102a080840151611f1b82870182611fa8565b50506102c080840151611f3082870182611fa8565b50506102e08381015190850152610300808401519085015261032080840151908501526103408084015190850152610360808401519085015261038080840151908501526103a080840151908501526103c080840151908501526103e080840151908501526104009283015192909301919091525090565b6001600160a01b03169052565b15159052565b60008151808452611fd38160208601602086016121d3565b601f01601f19169290920160200192915050565b6001600160801b03169052565b64ffffffffff169052565b60ff169052565b6001600160a01b0391909116815260200190565b6020808252825182820181905260009190848201906040850190845b8181101561205b5783516001600160a01b031683529284019291840191600101612036565b50909695505050505050565b600060a0820160a0835280855180835260c0850191506020925060c0838202860101838801855b838110156120bc5760bf198884030185526120aa838351611d81565b9486019492509085019060010161208e565b5050809450505050835181840152808401516040840152506040830151606083015260608301516120f06080840182611fff565b509392505050565b602080825282518282018190526000919060409081850190868401855b8281101561217757815161212981516121c7565b8552808701518786015285810151151586860152606080820151908601526080808201519086015260a0808201519086015260c0908101519085015260e09093019290850190600101612115565b5091979650505050505050565b6000602082526108ab6020830184611fbb565b90815260200190565b60405181810167ffffffffffffffff811182821017156121bf57600080fd5b604052919050565b6001600160a01b031690565b60005b838110156121ee5781810151838201526020016121d6565b838111156121fd576000848401525b50505050565b6001600160a01b038116811461221857600080fd5b50565b64ffffffffff8116811461221857600080fdfea26469706673582212202904bd24e0f01891572048b59b76059c0739624378351fad6ebd6c4ad4194d1464736f6c634300060c0033",
  "linkReferences": {},
  "deployedLinkReferences": {}
}