{"abi":[{"type":"constructor","inputs":[{"name":"disable","type":"bool","internalType":"bool"}],"stateMutability":"nonpayable"},{"type":"function","name":"MAX_MANAGEMENT_RATE","inputs":[],"outputs":[{"name":"","type":"uint16","internalType":"uint16"}],"stateMutability":"view"},{"type":"function","name":"MAX_PERFORMANCE_RATE","inputs":[],"outputs":[{"name":"","type":"uint16","internalType":"uint16"}],"stateMutability":"view"},{"type":"function","name":"MAX_PROTOCOL_RATE","inputs":[],"outputs":[{"name":"","type":"uint16","internalType":"uint16"}],"stateMutability":"view"},{"type":"function","name":"acceptOwnership","inputs":[],"outputs":[],"stateMutability":"nonpayable"},{"type":"function","name":"activateWhitelist","inputs":[],"outputs":[],"stateMutability":"nonpayable"},{"type":"function","name":"addToWhitelist","inputs":[{"name":"accounts","type":"address[]","internalType":"address[]"}],"outputs":[],"stateMutability":"nonpayable"},{"type":"function","name":"allowance","inputs":[{"name":"owner","type":"address","internalType":"address"},{"name":"spender","type":"address","internalType":"address"}],"outputs":[{"name":"","type":"uint256","internalType":"uint256"}],"stateMutability":"view"},{"type":"function","name":"approve","inputs":[{"name":"spender","type":"address","internalType":"address"},{"name":"value","type":"uint256","internalType":"uint256"}],"outputs":[{"name":"","type":"bool","internalType":"bool"}],"stateMutability":"nonpayable"},{"type":"function","name":"asset","inputs":[],"outputs":[{"name":"","type":"address","internalType":"address"}],"stateMutability":"view"},{"type":"function","name":"balanceOf","inputs":[{"name":"account","type":"address","internalType":"address"}],"outputs":[{"name":"","type":"uint256","internalType":"uint256"}],"stateMutability":"view"},{"type":"function","name":"cancelRequestDeposit","inputs":[],"outputs":[],"stateMutability":"nonpayable"},{"type":"function","name":"claimSharesAndRequestRedeem","inputs":[{"name":"sharesToRedeem","type":"uint256","internalType":"uint256"}],"outputs":[{"name":"requestId","type":"uint40","internalType":"uint40"}],"stateMutability":"nonpayable"},{"type":"function","name":"claimSharesOnBehalf","inputs":[{"name":"controllers","type":"address[]","internalType":"address[]"}],"outputs":[],"stateMutability":"nonpayable"},{"type":"function","name":"claimableDepositRequest","inputs":[{"name":"requestId","type":"uint256","internalType":"uint256"},{"name":"controller","type":"address","internalType":"address"}],"outputs":[{"name":"assets","type":"uint256","internalType":"uint256"}],"stateMutability":"view"},{"type":"function","name":"claimableRedeemRequest","inputs":[{"name":"requestId","type":"uint256","internalType":"uint256"},{"name":"controller","type":"address","internalType":"address"}],"outputs":[{"name":"shares","type":"uint256","internalType":"uint256"}],"stateMutability":"view"},{"type":"function","name":"close","inputs":[{"name":"_newTotalAssets","type":"uint256","internalType":"uint256"}],"outputs":[],"stateMutability":"nonpayable"},{"type":"function","name":"convertToAssets","inputs":[{"name":"shares","type":"uint256","internalType":"uint256"}],"outputs":[{"name":"","type":"uint256","internalType":"uint256"}],"stateMutability":"view"},{"type":"function","name":"convertToAssets","inputs":[{"name":"shares","type":"uint256","internalType":"uint256"},{"name":"requestId","type":"uint256","internalType":"uint256"}],"outputs":[{"name":"","type":"uint256","internalType":"uint256"}],"stateMutability":"view"},{"type":"function","name":"convertToShares","inputs":[{"name":"assets","type":"uint256","internalType":"uint256"}],"outputs":[{"name":"","type":"uint256","internalType":"uint256"}],"stateMutability":"view"},{"type":"function","name":"convertToShares","inputs":[{"name":"assets","type":"uint256","internalType":"uint256"},{"name":"requestId","type":"uint256","internalType":"uint256"}],"outputs":[{"name":"","type":"uint256","internalType":"uint256"}],"stateMutability":"view"},{"type":"function","name":"decimals","inputs":[],"outputs":[{"name":"","type":"uint8","internalType":"uint8"}],"stateMutability":"view"},{"type":"function","name":"decimalsOffset","inputs":[],"outputs":[{"name":"","type":"uint256","internalType":"uint256"}],"stateMutability":"view"},{"type":"function","name":"deposit","inputs":[{"name":"assets","type":"uint256","internalType":"uint256"},{"name":"receiver","type":"address","internalType":"address"},{"name":"controller","type":"address","internalType":"address"}],"outputs":[{"name":"","type":"uint256","internalType":"uint256"}],"stateMutability":"nonpayable"},{"type":"function","name":"deposit","inputs":[{"name":"assets","type":"uint256","internalType":"uint256"},{"name":"receiver","type":"address","internalType":"address"}],"outputs":[{"name":"","type":"uint256","internalType":"uint256"}],"stateMutability":"nonpayable"},{"type":"function","name":"depositEpochId","inputs":[],"outputs":[{"name":"","type":"uint40","internalType":"uint40"}],"stateMutability":"view"},{"type":"function","name":"depositSettleId","inputs":[],"outputs":[{"name":"","type":"uint256","internalType":"uint256"}],"stateMutability":"view"},{"type":"function","name":"disableWhitelist","inputs":[],"outputs":[],"stateMutability":"nonpayable"},{"type":"function","name":"epochSettleId","inputs":[{"name":"epochId","type":"uint40","internalType":"uint40"}],"outputs":[{"name":"","type":"uint40","internalType":"uint40"}],"stateMutability":"view"},{"type":"function","name":"expireTotalAssets","inputs":[],"outputs":[],"stateMutability":"nonpayable"},{"type":"function","name":"feeRates","inputs":[],"outputs":[{"name":"","type":"tuple","internalType":"struct Rates","components":[{"name":"managementRate","type":"uint16","internalType":"uint16"},{"name":"performanceRate","type":"uint16","internalType":"uint16"}]}],"stateMutability":"view"},{"type":"function","name":"feeReceiver","inputs":[],"outputs":[{"name":"","type":"address","internalType":"address"}],"stateMutability":"view"},{"type":"function","name":"feeRegistry","inputs":[],"outputs":[{"name":"","type":"address","internalType":"address"}],"stateMutability":"view"},{"type":"function","name":"getRolesStorage","inputs":[],"outputs":[{"name":"_rolesStorage","type":"tuple","internalType":"struct Roles.RolesStorage","components":[{"name":"whitelistManager","type":"address","internalType":"address"},{"name":"feeReceiver","type":"address","internalType":"address"},{"name":"safe","type":"address","internalType":"address"},{"name":"feeRegistry","type":"address","internalType":"contract FeeRegistry"},{"name":"valuationManager","type":"address","internalType":"address"}]}],"stateMutability":"pure"},{"type":"function","name":"highWaterMark","inputs":[],"outputs":[{"name":"","type":"uint256","internalType":"uint256"}],"stateMutability":"view"},{"type":"function","name":"initialize","inputs":[{"name":"data","type":"bytes","internalType":"bytes"},{"name":"feeRegistry","type":"address","internalType":"address"},{"name":"wrappedNativeToken","type":"address","internalType":"address"}],"outputs":[],"stateMutability":"nonpayable"},{"type":"function","name":"initiateClosing","inputs":[],"outputs":[],"stateMutability":"nonpayable"},{"type":"function","name":"isOperator","inputs":[{"name":"controller","type":"address","internalType":"address"},{"name":"operator","type":"address","internalType":"address"}],"outputs":[{"name":"","type":"bool","internalType":"bool"}],"stateMutability":"view"},{"type":"function","name":"isTotalAssetsValid","inputs":[],"outputs":[{"name":"","type":"bool","internalType":"bool"}],"stateMutability":"view"},{"type":"function","name":"isWhitelistActivated","inputs":[],"outputs":[{"name":"","type":"bool","internalType":"bool"}],"stateMutability":"view"},{"type":"function","name":"isWhitelisted","inputs":[{"name":"account","type":"address","internalType":"address"}],"outputs":[{"name":"","type":"bool","internalType":"bool"}],"stateMutability":"view"},{"type":"function","name":"lastDepositEpochIdSettled_debug","inputs":[],"outputs":[{"name":"","type":"uint256","internalType":"uint256"}],"stateMutability":"view"},{"type":"function","name":"lastDepositRequestId","inputs":[{"name":"controller","type":"address","internalType":"address"}],"outputs":[{"name":"","type":"uint40","internalType":"uint40"}],"stateMutability":"view"},{"type":"function","name":"lastDepositRequestId_debug","inputs":[{"name":"controller","type":"address","internalType":"address"}],"outputs":[{"name":"","type":"uint256","internalType":"uint256"}],"stateMutability":"view"},{"type":"function","name":"lastFeeTime","inputs":[],"outputs":[{"name":"","type":"uint256","internalType":"uint256"}],"stateMutability":"view"},{"type":"function","name":"lastRedeemRequestId","inputs":[{"name":"controller","type":"address","internalType":"address"}],"outputs":[{"name":"","type":"uint40","internalType":"uint40"}],"stateMutability":"view"},{"type":"function","name":"maxDeposit","inputs":[{"name":"controller","type":"address","internalType":"address"}],"outputs":[{"name":"","type":"uint256","internalType":"uint256"}],"stateMutability":"view"},{"type":"function","name":"maxMint","inputs":[{"name":"controller","type":"address","internalType":"address"}],"outputs":[{"name":"","type":"uint256","internalType":"uint256"}],"stateMutability":"view"},{"type":"function","name":"maxRedeem","inputs":[{"name":"controller","type":"address","internalType":"address"}],"outputs":[{"name":"","type":"uint256","internalType":"uint256"}],"stateMutability":"view"},{"type":"function","name":"maxWithdraw","inputs":[{"name":"controller","type":"address","internalType":"address"}],"outputs":[{"name":"","type":"uint256","internalType":"uint256"}],"stateMutability":"view"},{"type":"function","name":"mint","inputs":[{"name":"shares","type":"uint256","internalType":"uint256"},{"name":"receiver","type":"address","internalType":"address"}],"outputs":[{"name":"","type":"uint256","internalType":"uint256"}],"stateMutability":"nonpayable"},{"type":"function","name":"mint","inputs":[{"name":"shares","type":"uint256","internalType":"uint256"},{"name":"receiver","type":"address","internalType":"address"},{"name":"controller","type":"address","internalType":"address"}],"outputs":[{"name":"","type":"uint256","internalType":"uint256"}],"stateMutability":"nonpayable"},{"type":"function","name":"name","inputs":[],"outputs":[{"name":"","type":"string","internalType":"string"}],"stateMutability":"view"},{"type":"function","name":"newTotalAssets","inputs":[],"outputs":[{"name":"","type":"uint256","internalType":"uint256"}],"stateMutability":"view"},{"type":"function","name":"owner","inputs":[],"outputs":[{"name":"","type":"address","internalType":"address"}],"stateMutability":"view"},{"type":"function","name":"pause","inputs":[],"outputs":[],"stateMutability":"nonpayable"},{"type":"function","name":"paused","inputs":[],"outputs":[{"name":"","type":"bool","internalType":"bool"}],"stateMutability":"view"},{"type":"function","name":"pendingDeposit","inputs":[],"outputs":[{"name":"","type":"uint256","internalType":"uint256"}],"stateMutability":"view"},{"type":"function","name":"pendingDepositRequest","inputs":[{"name":"requestId","type":"uint256","internalType":"uint256"},{"name":"controller","type":"address","internalType":"address"}],"outputs":[{"name":"assets","type":"uint256","internalType":"uint256"}],"stateMutability":"view"},{"type":"function","name":"pendingOwner","inputs":[],"outputs":[{"name":"","type":"address","internalType":"address"}],"stateMutability":"view"},{"type":"function","name":"pendingRedeem","inputs":[],"outputs":[{"name":"","type":"uint256","internalType":"uint256"}],"stateMutability":"view"},{"type":"function","name":"pendingRedeemRequest","inputs":[{"name":"requestId","type":"uint256","internalType":"uint256"},{"name":"controller","type":"address","internalType":"address"}],"outputs":[{"name":"shares","type":"uint256","internalType":"uint256"}],"stateMutability":"view"},{"type":"function","name":"pendingSilo","inputs":[],"outputs":[{"name":"","type":"address","internalType":"address"}],"stateMutability":"view"},{"type":"function","name":"previewDeposit","inputs":[{"name":"","type":"uint256","internalType":"uint256"}],"outputs":[{"name":"","type":"uint256","internalType":"uint256"}],"stateMutability":"pure"},{"type":"function","name":"previewMint","inputs":[{"name":"","type":"uint256","internalType":"uint256"}],"outputs":[{"name":"","type":"uint256","internalType":"uint256"}],"stateMutability":"pure"},{"type":"function","name":"previewRedeem","inputs":[{"name":"","type":"uint256","internalType":"uint256"}],"outputs":[{"name":"","type":"uint256","internalType":"uint256"}],"stateMutability":"pure"},{"type":"function","name":"previewWithdraw","inputs":[{"name":"","type":"uint256","internalType":"uint256"}],"outputs":[{"name":"","type":"uint256","internalType":"uint256"}],"stateMutability":"pure"},{"type":"function","name":"pricePerShare","inputs":[],"outputs":[{"name":"","type":"uint256","internalType":"uint256"}],"stateMutability":"view"},{"type":"function","name":"protocolFeeReceiver","inputs":[],"outputs":[{"name":"","type":"address","internalType":"address"}],"stateMutability":"view"},{"type":"function","name":"protocolRate","inputs":[],"outputs":[{"name":"","type":"uint256","internalType":"uint256"}],"stateMutability":"view"},{"type":"function","name":"redeem","inputs":[{"name":"shares","type":"uint256","internalType":"uint256"},{"name":"receiver","type":"address","internalType":"address"},{"name":"controller","type":"address","internalType":"address"}],"outputs":[{"name":"assets","type":"uint256","internalType":"uint256"}],"stateMutability":"nonpayable"},{"type":"function","name":"redeemEpochId","inputs":[],"outputs":[{"name":"","type":"uint40","internalType":"uint40"}],"stateMutability":"view"},{"type":"function","name":"redeemSettleId","inputs":[],"outputs":[{"name":"","type":"uint256","internalType":"uint256"}],"stateMutability":"view"},{"type":"function","name":"renounceOwnership","inputs":[],"outputs":[],"stateMutability":"nonpayable"},{"type":"function","name":"requestDeposit","inputs":[{"name":"assets","type":"uint256","internalType":"uint256"},{"name":"controller","type":"address","internalType":"address"},{"name":"owner","type":"address","internalType":"address"}],"outputs":[{"name":"requestId","type":"uint256","internalType":"uint256"}],"stateMutability":"payable"},{"type":"function","name":"requestDeposit","inputs":[{"name":"assets","type":"uint256","internalType":"uint256"},{"name":"controller","type":"address","internalType":"address"},{"name":"owner","type":"address","internalType":"address"},{"name":"referral","type":"address","internalType":"address"}],"outputs":[{"name":"requestId","type":"uint256","internalType":"uint256"}],"stateMutability":"payable"},{"type":"function","name":"requestRedeem","inputs":[{"name":"shares","type":"uint256","internalType":"uint256"},{"name":"controller","type":"address","internalType":"address"},{"name":"owner","type":"address","internalType":"address"}],"outputs":[{"name":"requestId","type":"uint256","internalType":"uint256"}],"stateMutability":"nonpayable"},{"type":"function","name":"revokeFromWhitelist","inputs":[{"name":"accounts","type":"address[]","internalType":"address[]"}],"outputs":[],"stateMutability":"nonpayable"},{"type":"function","name":"safe","inputs":[],"outputs":[{"name":"","type":"address","internalType":"address"}],"stateMutability":"view"},{"type":"function","name":"setOperator","inputs":[{"name":"operator","type":"address","internalType":"address"},{"name":"approved","type":"bool","internalType":"bool"}],"outputs":[{"name":"success","type":"bool","internalType":"bool"}],"stateMutability":"nonpayable"},{"type":"function","name":"settleDeposit","inputs":[{"name":"_newTotalAssets","type":"uint256","internalType":"uint256"}],"outputs":[],"stateMutability":"nonpayable"},{"type":"function","name":"settleRedeem","inputs":[{"name":"_newTotalAssets","type":"uint256","internalType":"uint256"}],"outputs":[],"stateMutability":"nonpayable"},{"type":"function","name":"share","inputs":[],"outputs":[{"name":"","type":"address","internalType":"address"}],"stateMutability":"view"},{"type":"function","name":"state","inputs":[],"outputs":[{"name":"","type":"uint8","internalType":"enum State"}],"stateMutability":"view"},{"type":"function","name":"supportsInterface","inputs":[{"name":"interfaceId","type":"bytes4","internalType":"bytes4"}],"outputs":[{"name":"","type":"bool","internalType":"bool"}],"stateMutability":"view"},{"type":"function","name":"symbol","inputs":[],"outputs":[{"name":"","type":"string","internalType":"string"}],"stateMutability":"view"},{"type":"function","name":"syncDeposit","inputs":[{"name":"assets","type":"uint256","internalType":"uint256"},{"name":"receiver","type":"address","internalType":"address"},{"name":"referral","type":"address","internalType":"address"}],"outputs":[{"name":"shares","type":"uint256","internalType":"uint256"}],"stateMutability":"payable"},{"type":"function","name":"totalAssets","inputs":[],"outputs":[{"name":"","type":"uint256","internalType":"uint256"}],"stateMutability":"view"},{"type":"function","name":"totalAssets","inputs":[{"name":"epochId","type":"uint256","internalType":"uint256"}],"outputs":[{"name":"","type":"uint256","internalType":"uint256"}],"stateMutability":"view"},{"type":"function","name":"totalAssetsExpiration","inputs":[],"outputs":[{"name":"","type":"uint256","internalType":"uint256"}],"stateMutability":"view"},{"type":"function","name":"totalAssetsLifespan","inputs":[],"outputs":[{"name":"","type":"uint256","internalType":"uint256"}],"stateMutability":"view"},{"type":"function","name":"totalSupply","inputs":[],"outputs":[{"name":"","type":"uint256","internalType":"uint256"}],"stateMutability":"view"},{"type":"function","name":"totalSupply","inputs":[{"name":"epochId","type":"uint256","internalType":"uint256"}],"outputs":[{"name":"","type":"uint256","internalType":"uint256"}],"stateMutability":"view"},{"type":"function","name":"transfer","inputs":[{"name":"to","type":"address","internalType":"address"},{"name":"value","type":"uint256","internalType":"uint256"}],"outputs":[{"name":"","type":"bool","internalType":"bool"}],"stateMutability":"nonpayable"},{"type":"function","name":"transferFrom","inputs":[{"name":"from","type":"address","internalType":"address"},{"name":"to","type":"address","internalType":"address"},{"name":"value","type":"uint256","internalType":"uint256"}],"outputs":[{"name":"","type":"bool","internalType":"bool"}],"stateMutability":"nonpayable"},{"type":"function","name":"transferOwnership","inputs":[{"name":"newOwner","type":"address","internalType":"address"}],"outputs":[],"stateMutability":"nonpayable"},{"type":"function","name":"underlyingDecimals","inputs":[],"outputs":[{"name":"","type":"uint256","internalType":"uint256"}],"stateMutability":"view"},{"type":"function","name":"unpause","inputs":[],"outputs":[],"stateMutability":"nonpayable"},{"type":"function","name":"updateFeeReceiver","inputs":[{"name":"_feeReceiver","type":"address","internalType":"address"}],"outputs":[],"stateMutability":"nonpayable"},{"type":"function","name":"updateNewTotalAssets","inputs":[{"name":"_newTotalAssets","type":"uint256","internalType":"uint256"}],"outputs":[],"stateMutability":"nonpayable"},{"type":"function","name":"updateRates","inputs":[{"name":"newRates","type":"tuple","internalType":"struct Rates","components":[{"name":"managementRate","type":"uint16","internalType":"uint16"},{"name":"performanceRate","type":"uint16","internalType":"uint16"}]}],"outputs":[],"stateMutability":"nonpayable"},{"type":"function","name":"updateTotalAssetsLifespan","inputs":[{"name":"lifespan","type":"uint128","internalType":"uint128"}],"outputs":[],"stateMutability":"nonpayable"},{"type":"function","name":"updateValuationManager","inputs":[{"name":"_valuationManager","type":"address","internalType":"address"}],"outputs":[],"stateMutability":"nonpayable"},{"type":"function","name":"updateWhitelistManager","inputs":[{"name":"_whitelistManager","type":"address","internalType":"address"}],"outputs":[],"stateMutability":"nonpayable"},{"type":"function","name":"valuationManager","inputs":[],"outputs":[{"name":"","type":"address","internalType":"address"}],"stateMutability":"view"},{"type":"function","name":"version","inputs":[],"outputs":[{"name":"","type":"string","internalType":"string"}],"stateMutability":"pure"},{"type":"function","name":"whitelistManager","inputs":[],"outputs":[{"name":"","type":"address","internalType":"address"}],"stateMutability":"view"},{"type":"function","name":"withdraw","inputs":[{"name":"assets","type":"uint256","internalType":"uint256"},{"name":"receiver","type":"address","internalType":"address"},{"name":"controller","type":"address","internalType":"address"}],"outputs":[{"name":"shares","type":"uint256","internalType":"uint256"}],"stateMutability":"nonpayable"},{"type":"event","name":"Approval","inputs":[{"name":"owner","type":"address","indexed":true,"internalType":"address"},{"name":"spender","type":"address","indexed":true,"internalType":"address"},{"name":"value","type":"uint256","indexed":false,"internalType":"uint256"}],"anonymous":false},{"type":"event","name":"Deposit","inputs":[{"name":"sender","type":"address","indexed":true,"internalType":"address"},{"name":"owner","type":"address","indexed":true,"internalType":"address"},{"name":"assets","type":"uint256","indexed":false,"internalType":"uint256"},{"name":"shares","type":"uint256","indexed":false,"internalType":"uint256"}],"anonymous":false},{"type":"event","name":"DepositRequest","inputs":[{"name":"controller","type":"address","indexed":true,"internalType":"address"},{"name":"owner","type":"address","indexed":true,"internalType":"address"},{"name":"requestId","type":"uint256","indexed":true,"internalType":"uint256"},{"name":"sender","type":"address","indexed":false,"internalType":"address"},{"name":"assets","type":"uint256","indexed":false,"internalType":"uint256"}],"anonymous":false},{"type":"event","name":"DepositRequestCanceled","inputs":[{"name":"requestId","type":"uint256","indexed":true,"internalType":"uint256"},{"name":"controller","type":"address","indexed":true,"internalType":"address"}],"anonymous":false},{"type":"event","name":"DepositSync","inputs":[{"name":"sender","type":"address","indexed":true,"internalType":"address"},{"name":"owner","type":"address","indexed":true,"internalType":"address"},{"name":"assets","type":"uint256","indexed":false,"internalType":"uint256"},{"name":"shares","type":"uint256","indexed":false,"internalType":"uint256"}],"anonymous":false},{"type":"event","name":"FeeReceiverUpdated","inputs":[{"name":"oldReceiver","type":"address","indexed":false,"internalType":"address"},{"name":"newReceiver","type":"address","indexed":false,"internalType":"address"}],"anonymous":false},{"type":"event","name":"HighWaterMarkUpdated","inputs":[{"name":"oldHighWaterMark","type":"uint256","indexed":false,"internalType":"uint256"},{"name":"newHighWaterMark","type":"uint256","indexed":false,"internalType":"uint256"}],"anonymous":false},{"type":"event","name":"Initialized","inputs":[{"name":"version","type":"uint64","indexed":false,"internalType":"uint64"}],"anonymous":false},{"type":"event","name":"NewTotalAssetsUpdated","inputs":[{"name":"totalAssets","type":"uint256","indexed":false,"internalType":"uint256"}],"anonymous":false},{"type":"event","name":"OperatorSet","inputs":[{"name":"controller","type":"address","indexed":true,"internalType":"address"},{"name":"operator","type":"address","indexed":true,"internalType":"address"},{"name":"approved","type":"bool","indexed":false,"internalType":"bool"}],"anonymous":false},{"type":"event","name":"OwnershipTransferStarted","inputs":[{"name":"previousOwner","type":"address","indexed":true,"internalType":"address"},{"name":"newOwner","type":"address","indexed":true,"internalType":"address"}],"anonymous":false},{"type":"event","name":"OwnershipTransferred","inputs":[{"name":"previousOwner","type":"address","indexed":true,"internalType":"address"},{"name":"newOwner","type":"address","indexed":true,"internalType":"address"}],"anonymous":false},{"type":"event","name":"Paused","inputs":[{"name":"account","type":"address","indexed":false,"internalType":"address"}],"anonymous":false},{"type":"event","name":"RatesUpdated","inputs":[{"name":"oldRates","type":"tuple","indexed":false,"internalType":"struct Rates","components":[{"name":"managementRate","type":"uint16","internalType":"uint16"},{"name":"performanceRate","type":"uint16","internalType":"uint16"}]},{"name":"newRate","type":"tuple","indexed":false,"internalType":"struct Rates","components":[{"name":"managementRate","type":"uint16","internalType":"uint16"},{"name":"performanceRate","type":"uint16","internalType":"uint16"}]},{"name":"timestamp","type":"uint256","indexed":false,"internalType":"uint256"}],"anonymous":false},{"type":"event","name":"RedeemRequest","inputs":[{"name":"controller","type":"address","indexed":true,"internalType":"address"},{"name":"owner","type":"address","indexed":true,"internalType":"address"},{"name":"requestId","type":"uint256","indexed":true,"internalType":"uint256"},{"name":"sender","type":"address","indexed":false,"internalType":"address"},{"name":"shares","type":"uint256","indexed":false,"internalType":"uint256"}],"anonymous":false},{"type":"event","name":"Referral","inputs":[{"name":"referral","type":"address","indexed":true,"internalType":"address"},{"name":"owner","type":"address","indexed":true,"internalType":"address"},{"name":"requestId","type":"uint256","indexed":true,"internalType":"uint256"},{"name":"assets","type":"uint256","indexed":false,"internalType":"uint256"}],"anonymous":false},{"type":"event","name":"SettleDeposit","inputs":[{"name":"epochId","type":"uint40","indexed":true,"internalType":"uint40"},{"name":"settledId","type":"uint40","indexed":true,"internalType":"uint40"},{"name":"totalAssets","type":"uint256","indexed":false,"internalType":"uint256"},{"name":"totalSupply","type":"uint256","indexed":false,"internalType":"uint256"},{"name":"assetsDeposited","type":"uint256","indexed":false,"internalType":"uint256"},{"name":"sharesMinted","type":"uint256","indexed":false,"internalType":"uint256"}],"anonymous":false},{"type":"event","name":"SettleRedeem","inputs":[{"name":"epochId","type":"uint40","indexed":true,"internalType":"uint40"},{"name":"settledId","type":"uint40","indexed":true,"internalType":"uint40"},{"name":"totalAssets","type":"uint256","indexed":false,"internalType":"uint256"},{"name":"totalSupply","type":"uint256","indexed":false,"internalType":"uint256"},{"name":"assetsWithdrawed","type":"uint256","indexed":false,"internalType":"uint256"},{"name":"sharesBurned","type":"uint256","indexed":false,"internalType":"uint256"}],"anonymous":false},{"type":"event","name":"StateUpdated","inputs":[{"name":"state","type":"uint8","indexed":false,"internalType":"enum State"}],"anonymous":false},{"type":"event","name":"TotalAssetsLifespanUpdated","inputs":[{"name":"oldLifespan","type":"uint128","indexed":false,"internalType":"uint128"},{"name":"newLifespan","type":"uint128","indexed":false,"internalType":"uint128"}],"anonymous":false},{"type":"event","name":"TotalAssetsUpdated","inputs":[{"name":"totalAssets","type":"uint256","indexed":false,"internalType":"uint256"}],"anonymous":false},{"type":"event","name":"Transfer","inputs":[{"name":"from","type":"address","indexed":true,"internalType":"address"},{"name":"to","type":"address","indexed":true,"internalType":"address"},{"name":"value","type":"uint256","indexed":false,"internalType":"uint256"}],"anonymous":false},{"type":"event","name":"Unpaused","inputs":[{"name":"account","type":"address","indexed":false,"internalType":"address"}],"anonymous":false},{"type":"event","name":"ValuationManagerUpdated","inputs":[{"name":"oldManager","type":"address","indexed":false,"internalType":"address"},{"name":"newManager","type":"address","indexed":false,"internalType":"address"}],"anonymous":false},{"type":"event","name":"WhitelistDisabled","inputs":[],"anonymous":false},{"type":"event","name":"WhitelistManagerUpdated","inputs":[{"name":"oldManager","type":"address","indexed":false,"internalType":"address"},{"name":"newManager","type":"address","indexed":false,"internalType":"address"}],"anonymous":false},{"type":"event","name":"WhitelistUpdated","inputs":[{"name":"account","type":"address","indexed":true,"internalType":"address"},{"name":"authorized","type":"bool","indexed":false,"internalType":"bool"}],"anonymous":false},{"type":"event","name":"Withdraw","inputs":[{"name":"sender","type":"address","indexed":true,"internalType":"address"},{"name":"receiver","type":"address","indexed":true,"internalType":"address"},{"name":"owner","type":"address","indexed":true,"internalType":"address"},{"name":"assets","type":"uint256","indexed":false,"internalType":"uint256"},{"name":"shares","type":"uint256","indexed":false,"internalType":"uint256"}],"anonymous":false},{"type":"error","name":"AboveMaxRate","inputs":[{"name":"maxRate","type":"uint256","internalType":"uint256"}]},{"type":"error","name":"AddressEmptyCode","inputs":[{"name":"target","type":"address","internalType":"address"}]},{"type":"error","name":"AddressInsufficientBalance","inputs":[{"name":"account","type":"address","internalType":"address"}]},{"type":"error","name":"CantDepositNativeToken","inputs":[]},{"type":"error","name":"Closed","inputs":[]},{"type":"error","name":"ERC20InsufficientAllowance","inputs":[{"name":"spender","type":"address","internalType":"address"},{"name":"allowance","type":"uint256","internalType":"uint256"},{"name":"needed","type":"uint256","internalType":"uint256"}]},{"type":"error","name":"ERC20InsufficientBalance","inputs":[{"name":"sender","type":"address","internalType":"address"},{"name":"balance","type":"uint256","internalType":"uint256"},{"name":"needed","type":"uint256","internalType":"uint256"}]},{"type":"error","name":"ERC20InvalidApprover","inputs":[{"name":"approver","type":"address","internalType":"address"}]},{"type":"error","name":"ERC20InvalidReceiver","inputs":[{"name":"receiver","type":"address","internalType":"address"}]},{"type":"error","name":"ERC20InvalidSender","inputs":[{"name":"sender","type":"address","internalType":"address"}]},{"type":"error","name":"ERC20InvalidSpender","inputs":[{"name":"spender","type":"address","internalType":"address"}]},{"type":"error","name":"ERC4626ExceededMaxDeposit","inputs":[{"name":"receiver","type":"address","internalType":"address"},{"name":"assets","type":"uint256","internalType":"uint256"},{"name":"max","type":"uint256","internalType":"uint256"}]},{"type":"error","name":"ERC4626ExceededMaxMint","inputs":[{"name":"receiver","type":"address","internalType":"address"},{"name":"shares","type":"uint256","internalType":"uint256"},{"name":"max","type":"uint256","internalType":"uint256"}]},{"type":"error","name":"ERC4626ExceededMaxRedeem","inputs":[{"name":"owner","type":"address","internalType":"address"},{"name":"shares","type":"uint256","internalType":"uint256"},{"name":"max","type":"uint256","internalType":"uint256"}]},{"type":"error","name":"ERC4626ExceededMaxWithdraw","inputs":[{"name":"owner","type":"address","internalType":"address"},{"name":"assets","type":"uint256","internalType":"uint256"},{"name":"max","type":"uint256","internalType":"uint256"}]},{"type":"error","name":"ERC7540InvalidOperator","inputs":[]},{"type":"error","name":"ERC7540PreviewDepositDisabled","inputs":[]},{"type":"error","name":"ERC7540PreviewMintDisabled","inputs":[]},{"type":"error","name":"ERC7540PreviewRedeemDisabled","inputs":[]},{"type":"error","name":"ERC7540PreviewWithdrawDisabled","inputs":[]},{"type":"error","name":"EnforcedPause","inputs":[]},{"type":"error","name":"ExpectedPause","inputs":[]},{"type":"error","name":"FailedInnerCall","inputs":[]},{"type":"error","name":"InvalidInitialization","inputs":[]},{"type":"error","name":"MathOverflowedMulDiv","inputs":[]},{"type":"error","name":"NewTotalAssetsMissing","inputs":[]},{"type":"error","name":"NotClosing","inputs":[{"name":"currentState","type":"uint8","internalType":"enum State"}]},{"type":"error","name":"NotInitializing","inputs":[]},{"type":"error","name":"NotOpen","inputs":[{"name":"currentState","type":"uint8","internalType":"enum State"}]},{"type":"error","name":"NotWhitelisted","inputs":[]},{"type":"error","name":"OnlyAsyncDepositAllowed","inputs":[]},{"type":"error","name":"OnlyOneRequestAllowed","inputs":[]},{"type":"error","name":"OnlySafe","inputs":[{"name":"safe","type":"address","internalType":"address"}]},{"type":"error","name":"OnlySyncDepositAllowed","inputs":[]},{"type":"error","name":"OnlyValuationManager","inputs":[{"name":"valuationManager","type":"address","internalType":"address"}]},{"type":"error","name":"OnlyWhitelistManager","inputs":[{"name":"whitelistManager","type":"address","internalType":"address"}]},{"type":"error","name":"OwnableInvalidOwner","inputs":[{"name":"owner","type":"address","internalType":"address"}]},{"type":"error","name":"OwnableUnauthorizedAccount","inputs":[{"name":"account","type":"address","internalType":"address"}]},{"type":"error","name":"RequestIdNotClaimable","inputs":[]},{"type":"error","name":"RequestNotCancelable","inputs":[{"name":"requestId","type":"uint256","internalType":"uint256"}]},{"type":"error","name":"SafeERC20FailedOperation","inputs":[{"name":"token","type":"address","internalType":"address"}]},{"type":"error","name":"ValuationUpdateNotAllowed","inputs":[]},{"type":"error","name":"WrongNewTotalAssets","inputs":[]}],"bytecode":{"object":"0x608060405234801561000f575f80fd5b50604051616a54380380616a5483398101604081905261002e916100f6565b80801561003d5761003d610044565b505061011c565b7ff0c57e16840df040f15088dc2f81fe391c3923bec73e23a9662efc9c229c6a00805468010000000000000000900460ff16156100945760405163f92ee8a960e01b815260040160405180910390fd5b80546001600160401b03908116146100f35780546001600160401b0319166001600160401b0390811782556040519081527fc7f505b2f371ae2175ee4913f4499e1f2633a7b5936321eed1cdaeb6115181d29060200160405180910390a15b50565b5f60208284031215610106575f80fd5b81518015158114610115575f80fd5b9392505050565b61692b806101295f395ff3fe6080604052600436106104ab575f3560e01c806301e1d114146104af57806301ffc9a7146104d6578063035eab841461050557806306fdde031461051957806307a2d13a1461053a578063095ea7b3146105595780630a28a477146105785780630a605c6d146105975780630aebeb4e146105ab5780630c2b5b91146105cc5780631291d4e0146105e057806316f79e301461061557806318160ddd14610634578063181e7b3b14610648578063186f03541461066757806318766de3146106885780631e8410da1461069c57806323b872dd146106b05780632542d4a6146106cf57806325a760c2146106f157806326563b401461070557806326c6f96c146107195780632e2d2984146107385780632ef2274a14610757578063313ce5671461077657806338d52e0f1461079c57806339a51be5146107b05780633a0a190f146107c45780633af32abf146107d85780633e0a3c25146107f75780633edf7247146108165780633f4ba83a1461082a578063402d267d1461083e5780634cdad5061461085d57806354fd4d501461087c578063558a7297146108aa57806355fcd367146108c95780635c975abb146108dd5780635cfe2fe4146108f15780636564223e1461091057806365ccfcef1461092457806365e08b2314610943578063660b88ee1461095757806366b5ae1f146109765780636e553f651461098a57806370a08231146109a9578063715018a6146109c85780637688c584146109dc57806379ba5097146109fd5780637d41c86e14610a115780637f64978314610a3057806383701fd114610a4f5780638456cb5914610a6957806385b77f4514610a7d57806386af6e6814610a9057806389e877a314610aaf5780638da5cb5b14610ac3578063927b15df14610ad7578063937147e314610aeb5780639460585714610b4e57806394bf804d14610b6d57806395d89b4114610b8c57806396b298c514610ba057806399530b0614610bb4578063995ea21a14610bc857806399dd156614610be75780639c42892114610bfb5780639d8490ff14610c0f578063a1da6eb514610c23578063a1e5944214610c37578063a439391514610c4c578063a5948c8914610c60578063a627df6614610c73578063a8d5fd6514610c92578063a9059cbb14610ca4578063ae16ea8c14610cc3578063b3a408b814610ce2578063b3d7f6b914610cf6578063b3f0067414610d15578063b460af9414610d29578063b6363cf214610d48578063ba08765214610d67578063bcd1bf3414610d86578063bd85b03914610da5578063c19d93fb14610dc4578063c63d75b614610de5578063c69bebe414610e04578063c6d8a07414610e23578063c6e6f59214610e37578063caa768d514610e56578063ce96cb7714610e6a578063d01d073a14610e89578063d24ca58a14610e9c578063d6b0f48414610ebb578063d905777e14610ecf578063da39b3e714610eee578063db2088f414610f0d578063dd62ed3e14610f2c578063e30c397814610f4b578063eaed1d0714610f5f578063ef8b30f714610f7e578063f15be6f914610f9d578063f1a76fcc14610fbc578063f2fde38b14610fdb578063f5a23d8d14610ffa578063f64c6f3214611019578063f886d4bd1461102d575b5f80fd5b3480156104ba575f80fd5b506104c3611042565b6040519081526020015b60405180910390f35b3480156104e1575f80fd5b506104f56104f036600461578b565b611053565b60405190151581526020016104cd565b348015610510575f80fd5b506104c36110f5565b348015610524575f80fd5b5061052d611117565b6040516104cd91906157d4565b348015610545575f80fd5b506104c3610554366004615806565b6111b5565b348015610564575f80fd5b506104f5610573366004615831565b6111c0565b348015610583575f80fd5b506104c3610592366004615806565b6111d7565b3480156105a2575f80fd5b506104c36111f1565b3480156105b6575f80fd5b506105ca6105c5366004615806565b611202565b005b3480156105d7575f80fd5b506104f56113a6565b3480156105eb575f80fd5b506105ff6105fa36600461585b565b6113c3565b60405164ffffffffff90911681526020016104cd565b348015610620575f80fd5b506105ff61062f36600461585b565b6113f4565b34801561063f575f80fd5b506104c3611425565b348015610653575f80fd5b506104c3610662366004615876565b611439565b348015610672575f80fd5b5061067b61144c565b6040516104cd9190615896565b348015610693575f80fd5b506104c3611467565b3480156106a7575f80fd5b506104c361147b565b3480156106bb575f80fd5b506104f56106ca3660046158aa565b61148d565b3480156106da575f80fd5b506106e4610bb881565b6040516104cd91906158e8565b3480156106fc575f80fd5b506104c36114b0565b348015610710575f80fd5b5061067b611525565b348015610724575f80fd5b506104c36107333660046158f7565b61153d565b348015610743575f80fd5b506104c3610752366004615925565b6115cc565b348015610762575f80fd5b506105ff610771366004615964565b611622565b348015610781575f80fd5b5061078a61164e565b60405160ff90911681526020016104cd565b3480156107a7575f80fd5b5061067b61166a565b3480156107bb575f80fd5b5061067b611684565b3480156107cf575f80fd5b506104c3611702565b3480156107e3575f80fd5b506104f56107f236600461585b565b61171d565b348015610802575f80fd5b506105ca610811366004615a04565b6117fc565b348015610821575f80fd5b506105ff61191b565b348015610835575f80fd5b506105ca61193b565b348015610849575f80fd5b506104c361085836600461585b565b61194d565b348015610868575f80fd5b506104c3610877366004615806565b61196c565b348015610887575f80fd5b50604080518082019091526006815265076302e352e360d41b602082015261052d565b3480156108b5575f80fd5b506104f56108c4366004615a6f565b611986565b3480156108d4575f80fd5b506104f5611a14565b3480156108e8575f80fd5b506104f5611a29565b3480156108fc575f80fd5b506105ff61090b366004615806565b611a3d565b34801561091b575f80fd5b506104c3611ae5565b34801561092f575f80fd5b506105ca61093e36600461585b565b611b05565b34801561094e575f80fd5b506105ff611b87565b348015610962575f80fd5b506105ca610971366004615ac1565b611ba0565b348015610981575f80fd5b506104c3611e04565b348015610995575f80fd5b506104c36109a43660046158f7565b611e16565b3480156109b4575f80fd5b506104c36109c336600461585b565b611e22565b3480156109d3575f80fd5b506105ca611e4b565b3480156109e7575f80fd5b506109f0611e5c565b6040516104cd9190615b5b565b348015610a08575f80fd5b506105ca611ed9565b348015610a1c575f80fd5b506104c3610a2b366004615925565b611f18565b348015610a3b575f80fd5b506105ca610a4a366004615b69565b611f94565b348015610a5a575f80fd5b506104c361062f36600461585b565b348015610a74575f80fd5b506105ca612090565b6104c3610a8b366004615925565b6120a0565b348015610a9b575f80fd5b506105ca610aaa366004615b69565b61213f565b348015610aba575f80fd5b506105ca612233565b348015610ace575f80fd5b5061067b612251565b348015610ae2575f80fd5b506105ca61225b565b348015610af6575f80fd5b50610aff6122c2565b6040516104cd919081516001600160a01b039081168252602080840151821690830152604080840151821690830152606080840151821690830152608092830151169181019190915260a00190565b348015610b59575f80fd5b506104c3610b68366004615806565b612344565b348015610b78575f80fd5b506104c3610b873660046158f7565b612385565b348015610b97575f80fd5b5061052d612391565b348015610bab575f80fd5b506104c36123ad565b348015610bbf575f80fd5b506104c36123be565b348015610bd3575f80fd5b506104c3610be23660046158f7565b6123e6565b348015610bf2575f80fd5b506104c361246d565b348015610c06575f80fd5b506105ca612476565b348015610c1a575f80fd5b506104c3612556565b348015610c2e575f80fd5b506104c3612578565b348015610c42575f80fd5b506106e461138881565b348015610c57575f80fd5b506105ca61259a565b6104c3610c6e366004615c1b565b61265a565b348015610c7e575f80fd5b506105ca610c8d366004615806565b61273f565b348015610c9d575f80fd5b503061067b565b348015610caf575f80fd5b506104f5610cbe366004615831565b6127d2565b348015610cce575f80fd5b506105ca610cdd366004615c6b565b6127df565b348015610ced575f80fd5b5061067b612826565b348015610d01575f80fd5b506104c3610d10366004615806565b612841565b348015610d20575f80fd5b5061067b61285b565b348015610d34575f80fd5b506104c3610d43366004615925565b612876565b348015610d53575f80fd5b506104f5610d62366004615c91565b61292b565b348015610d72575f80fd5b506104c3610d81366004615925565b612966565b348015610d91575f80fd5b506105ca610da0366004615806565b612a0d565b348015610db0575f80fd5b506104c3610dbf366004615806565b612ab3565b348015610dcf575f80fd5b50610dd8612af1565b6040516104cd9190615cd1565b348015610df0575f80fd5b506104c3610dff36600461585b565b612b03565b348015610e0f575f80fd5b506105ca610e1e36600461585b565b612b64565b348015610e2e575f80fd5b5061067b612be6565b348015610e42575f80fd5b506104c3610e51366004615806565b612c03565b348015610e61575f80fd5b5061067b612c0e565b348015610e75575f80fd5b506104c3610e8436600461585b565b612c29565b6104c3610e97366004615925565b612cbe565b348015610ea7575f80fd5b506105ca610eb6366004615806565b612ef6565b348015610ec6575f80fd5b506105ca612f84565b348015610eda575f80fd5b506104c3610ee936600461585b565b612fd1565b348015610ef9575f80fd5b506104c3610f08366004615925565b61302b565b348015610f18575f80fd5b506104c3610f27366004615876565b613076565b348015610f37575f80fd5b506104c3610f46366004615c91565b613082565b348015610f56575f80fd5b5061067b6130bc565b348015610f6a575f80fd5b506104c3610f793660046158f7565b6130c6565b348015610f89575f80fd5b506104c3610f98366004615806565b61314d565b348015610fa8575f80fd5b506105ca610fb7366004615b69565b613167565b348015610fc7575f80fd5b506105ca610fd636600461585b565b613220565b348015610fe6575f80fd5b506105ca610ff536600461585b565b61329c565b348015611005575f80fd5b506104c36110143660046158f7565b61330c565b348015611024575f80fd5b506104c3613394565b348015611038575f80fd5b506106e46103e881565b5f8061104c61340e565b5492915050565b5f632f0a18c560e01b6001600160e01b031983161480611083575063f815c03d60e01b6001600160e01b03198316145b8061109e5750630ce3bbe560e41b6001600160e01b03198316145b806110b95750631883ba3960e21b6001600160e01b03198316145b806110d4575063e3bc4e6560e01b6001600160e01b03198316145b806110ef57506001600160e01b031982166301ffc9a760e01b145b92915050565b5f6110fe61340e565b600a0154600160801b90046001600160801b0316919050565b60605f611122613432565b905080600301805461113390615cf7565b80601f016020809104026020016040519081016040528092919081815260200182805461115f90615cf7565b80156111aa5780601f10611181576101008083540402835291602001916111aa565b820191905f5260205f20905b81548152906001019060200180831161118d57829003601f168201915b505050505091505090565b5f6110ef825f613456565b5f336111cd81858561349b565b5060019392505050565b5f60405163954bf3b160e01b815260040160405180910390fd5b5f6111fd6109c3612be6565b905090565b5f61120b6134a8565b600201546001600160a01b03169050338114611245578060405163fde82f1f60e01b815260040161123c9190615896565b60405180910390fd5b5f61124e6134cc565b5460ff169050600181600281111561126857611268615cbd565b1461128857806040516373cc9d4d60e01b815260040161123c9190615cd1565b5f6112916134a8565b905061129c846134f0565b60018101546003820154604080516339a51be560e01b81529051611319936001600160a01b039081169316916339a51be59160048083019260209291908290030181865afa1580156112f0573d5f803e3d5ffd5b505050506040513d601f19601f820116820180604052508101906113149190615d39565b6135cd565b6113223361363a565b61132b336137c1565b60026113356134cc565b805460ff1916600183600281111561134f5761134f615cbd565b021790555061137b333061136161340e565b5461136a61166a565b6001600160a01b03169291906139e4565b5f8051602061689683398151915260026040516113989190615cd1565b60405180910390a150505050565b5f6113af61340e565b600a01546001600160801b03164210919050565b5f6113cc61340e565b6001600160a01b039092165f90815260069290920160205250604090205464ffffffffff1690565b5f6113fd61340e565b6001600160a01b039092165f90815260059290920160205250604090205464ffffffffff1690565b5f8061142f613432565b6002015492915050565b5f61144583835f613a4b565b9392505050565b5f6114556134a8565b600201546001600160a01b0316919050565b5f8061147161340e565b6001015492915050565b5f611484613aea565b60030154905090565b5f3361149a858285613b0e565b6114a5858585613b58565b506001949350505050565b5f806114ba61166a565b9050806001600160a01b031663313ce5676040518163ffffffff1660e01b8152600401602060405180830381865afa1580156114f8573d5f803e3d5ffd5b505050506040513d601f19601f8201168201806040525081019061151c9190615d54565b60ff1691505090565b5f61152e6134a8565b546001600160a01b0316919050565b5f8061154761340e565b9050835f03611574576001600160a01b0383165f90815260058201602052604090205464ffffffffff1693505b6002810154600160501b900464ffffffffff168411156115c55764ffffffffff84165f9081526003909101602090815260408083206001600160a01b038616845260010190915290205490506110ef565b5092915050565b5f816001600160a01b03811633148015906115ee57506115ec813361292b565b155b1561160c576040516331d00f8160e11b815260040160405180910390fd5b611617858585613bb5565b91505b509392505050565b5f61162b61340e565b64ffffffffff9283165f9081526003919091016020526040902054909116919050565b5f61165761340e565b60090154600160a01b900460ff16919050565b5f80611674613cb8565b546001600160a01b031692915050565b5f61168d6134a8565b6003015f9054906101000a90046001600160a01b03166001600160a01b03166339a51be56040518163ffffffff1660e01b8152600401602060405180830381865afa1580156116de573d5f803e3d5ffd5b505050506040513d601f19601f820116820180604052508101906111fd9190615d39565b5f61170b61340e565b600a01546001600160801b0316919050565b5f80611727613cdc565b9050826001600160a01b031661173b6134a8565b6003015f9054906101000a90046001600160a01b03166001600160a01b03166339a51be56040518163ffffffff1660e01b8152600401602060405180830381865afa15801561178c573d5f803e3d5ffd5b505050506040513d601f19601f820116820180604052508101906117b09190615d39565b6001600160a01b0316036117c75750600192915050565b600181015460ff166117da576001611445565b6001600160a01b0383165f9081526020829052604090205460ff169392505050565b611804613d00565b5f61180d613aea565b90506103e861ffff16825f015161ffff161115611841576103e8604051630343096960e31b815260040161123c91906158e8565b61138861ffff16826020015161ffff16111561187457611388604051630343096960e31b815260040161123c91906158e8565b5f8160040154426118859190615d88565b60408051808201825260058501805461ffff808216808552620100008084048316602080880182905260018c018a905560068c01805492840263ffffffff19938416909517949094179093558b51928c0151841690910293169116171790559051919250907f9eb7e8ec6516c29bbbd60a1c51902c46787a4ce63ef22701759b0b4e9dd34fe09061139890839087908690615d9b565b5f61192461340e565b60020154600160781b900464ffffffffff16919050565b611943613d00565b61194b613d32565b565b5f611956611a29565b1561196257505f919050565b6110ef5f836123e6565b5f604051630aaf8c3d60e31b815260040160405180910390fd5b5f61198f613d88565b8161199861340e565b335f818152600792909201602090815260408084206001600160a01b038916808652925292839020805460ff19169415159490941790935590517fceb576d9f15e4e200fdb5096d64d5dfd667e16def20c1eefd14256d8e3faa26790611a0390861515815260200190565b60405180910390a350600192915050565b5f611a1d613cdc565b6001015460ff16919050565b5f80611a33613dae565b5460ff1692915050565b5f80611a476134cc565b5460ff1690505f816002811115611a6057611a60615cbd565b14611a805780604051634b0145f360e01b815260040161123c9190615cd1565b611a88613d88565b611a913361171d565b611aae57604051630b094f2760e31b815260040160405180910390fd5b5f611ab95f336123e6565b90508015611ace57611acc813333613bb5565b505b5f611ada853333613dd2565b935050505b50919050565b5f611aee61340e565b60020154600160501b900464ffffffffff16919050565b611b0d613d00565b7f27e018912099274c84ffbb1a48209e91c5b25727666d86b88a9d27c5abf4aa67611b366134a8565b60040154604051611b52916001600160a01b0316908490615dc4565b60405180910390a180611b636134a8565b60040180546001600160a01b0319166001600160a01b039290921691909117905550565b5f611b9061340e565b6002015464ffffffffff16919050565b5f611ba9613f81565b805490915060ff600160401b82041615906001600160401b03165f81158015611bcf5750825b90505f826001600160401b03166001148015611bea5750303b155b905081158015611bf8575080155b15611c165760405163f92ee8a960e01b815260040160405180910390fd5b84546001600160401b03191660011785558315611c3f57845460ff60401b1916600160401b1785555b5f88806020019051810190611c549190615e36565b9050611c638160c00151613fa5565b611ccf6040518060a0016040528083608001516001600160a01b031681526020018360e001516001600160a01b0316815260200183606001516001600160a01b031681526020018a6001600160a01b031681526020018360a001516001600160a01b0316815250613fb6565b611ce181602001518260400151614040565b611ce9614052565b8051611cf490614062565b8051611d009088614073565b611d0e8161014001516141e6565b611d8f88826101000151836101200151845f01516001600160a01b031663313ce5676040518163ffffffff1660e01b8152600401602060405180830381865afa158015611d5d573d5f803e3d5ffd5b505050506040513d601f19601f82011682018060405250810190611d819190615d54565b60ff16856101600151614211565b5f805160206168968339815191525f604051611dab9190615cd1565b60405180910390a1508315611dfa57845460ff60401b19168555604051600181527fc7f505b2f371ae2175ee4913f4499e1f2633a7b5936321eed1cdaeb6115181d29060200160405180910390a15b5050505050505050565b5f611e0d613aea565b60020154905090565b5f611445838333613bb5565b5f80611e2c613432565b6001600160a01b039093165f9081526020939093525050604090205490565b611e53613d00565b61194b5f6142dd565b604080518082019091525f80825260208201525f611e78613aea565b905042816001015411611eaf576040805180820190915260059091015461ffff808216835262010000909104166020820152919050565b6040805180820190915260069091015461ffff808216835262010000909104166020820152919050565b3380611ee36130bc565b6001600160a01b031614611f0c578060405163118cdaa760e01b815260040161123c9190615896565b611f15816142dd565b50565b5f80611f226134cc565b5460ff1690505f816002811115611f3b57611f3b615cbd565b14611f5b5780604051634b0145f360e01b815260040161123c9190615cd1565b611f63613d88565b611f6c8361171d565b611f8957604051630b094f2760e31b815260040160405180910390fd5b611617858585613dd2565b5f611f9d6134a8565b546001600160a01b03169050338114611fcb5780604051632c1d27eb60e11b815260040161123c9190615896565b5f611fd4613cdc565b90505f5b835181101561208a576001825f015f868481518110611ff957611ff9615f77565b60200260200101516001600160a01b03166001600160a01b031681526020019081526020015f205f6101000a81548160ff02191690831515021790555083818151811061204857612048615f77565b60200260200101516001600160a01b03165f805160206168d6833981519152600160405161207a911515815260200190565b60405180910390a2600101611fd8565b50505050565b612098613d00565b61194b6142ff565b5f816001600160a01b03811633148015906120c257506120c0813361292b565b155b156120e0576040516331d00f8160e11b815260040160405180910390fd5b6120e8613d88565b6120f06113a6565b1561210e5760405163b097d84160e01b815260040160405180910390fd5b6121178361171d565b61213457604051630b094f2760e31b815260040160405180910390fd5b611617858585614345565b5f6121486134a8565b546001600160a01b031690503381146121765780604051632c1d27eb60e11b815260040161123c9190615896565b5f61217f613cdc565b90505f5b835181101561208a575f825f015f8684815181106121a3576121a3615f77565b60200260200101516001600160a01b03166001600160a01b031681526020019081526020015f205f6101000a81548160ff0219169083151502179055508381815181106121f2576121f2615f77565b60200260200101516001600160a01b03165f805160206168d68339815191525f604051612223911515815260200190565b60405180910390a2600101612183565b600161223d613cdc565b600101805460ff1916911515919091179055565b5f80611674614542565b5f6122646134a8565b600201546001600160a01b03169050338114612295578060405163fde82f1f60e01b815260040161123c9190615896565b5f61229e61340e565b600a0180546001600160801b0319166001600160801b039290921691909117905550565b6040805160a0810182525f808252602082018190529181018290526060810182905260808101919091526122f46134a8565b6040805160a08101825282546001600160a01b0390811682526001840154811660208301526002840154811692820192909252600383015482166060820152600490920154166080820152919050565b5f8061234e61340e565b64ffffffffff9384165f90815260038201602090815260408083205490961682526004909201909152929092206001015492915050565b5f611445838333614566565b60605f61239c613432565b905080600401805461113390615cf7565b5f6123b6614656565b60ff16905090565b5f6111fd6123ca61164e565b6123d590600a61606e565b6123e090600161607c565b5f613456565b5f806123f061340e565b9050835f0361241d576001600160a01b0383165f90815260058201602052604090205464ffffffffff1693505b6002810154600160501b900464ffffffffff1684116115c55764ffffffffff84165f9081526003909101602090815260408083206001600160a01b038616845260010190915290205490506110ef565b5f6111fd614672565b61247e613d88565b5f61248761340e565b335f908152600582016020526040902054600282015491925064ffffffffff908116911681146124d357604051630378803f60e51b815264ffffffffff8216600482015260240161123c565b64ffffffffff81165f908152600383016020908152604080832033808552600190910190925282208054929055600884015461251e916001600160a01b03909116908361136a61166a565b604051339064ffffffffff8416907ff3df774413906479e4aa6d20ad2ad938e10990d517dc9d29909f6eaa4981ad43905f90a3505050565b5f8061256061340e565b60020154600160a01b900464ffffffffff1692915050565b5f8061258261340e565b60020154600160281b900464ffffffffff1692915050565b6125a2613d00565b5f6125ab6134cc565b5460ff1690505f8160028111156125c4576125c4615cbd565b146125e45780604051634b0145f360e01b815260040161123c9190615cd1565b5f6125ed61340e565b90505f19816001015414612608576126088160010154614703565b60016126126134cc565b805460ff1916600183600281111561262c5761262c615cbd565b02179055505f80516020616896833981519152600160405161264e9190615cd1565b60405180910390a15050565b5f826001600160a01b038116331480159061267c575061267a813361292b565b155b1561269a576040516331d00f8160e11b815260040160405180910390fd5b6126a2613d88565b6126aa6113a6565b156126c85760405163b097d84160e01b815260040160405180910390fd5b6126d18461171d565b6126ee57604051630b094f2760e31b815260040160405180910390fd5b6126f9868686614345565b915081846001600160a01b0316846001600160a01b03165f805160206168568339815191528960405161272e91815260200190565b60405180910390a450949350505050565b5f6127486134a8565b600201546001600160a01b03169050338114612779578060405163fde82f1f60e01b815260040161123c9190615896565b5f6127826134cc565b5460ff1690505f81600281111561279b5761279b615cbd565b146127bb5780604051634b0145f360e01b815260040161123c9190615cd1565b6127c483614918565b6127cd336137c1565b505050565b5f336111cd818585613b58565b5f6127e86134a8565b600201546001600160a01b03169050338114612819578060405163fde82f1f60e01b815260040161123c9190615896565b61282282614980565b5050565b5f61282f6134a8565b600301546001600160a01b0316919050565b5f6040516366345fa160e01b815260040160405180910390fd5b5f6128646134a8565b600101546001600160a01b0316919050565b5f61287f613d88565b5f6128886134cc565b90506002815460ff1660028111156128a2576128a2615cbd565b1480156128b657506128b45f846130c6565b155b156128da576128c68560016149ea565b91506128d53385858886614a26565b61161a565b6001600160a01b03831633148015906128fa57506128f8833361292b565b155b15612918576040516331d00f8160e11b815260040160405180910390fd5b612923858585614aef565b915050611445565b5f61293461340e565b6001600160a01b039384165f908152600791909101602090815260408083209490951682529290925250205460ff1690565b5f61296f613d88565b5f6129786134cc565b90506002815460ff16600281111561299257612992615cbd565b1480156129a657506129a45f846130c6565b155b156129c4576129b5855f613456565b91506128d53385858589614a26565b6001600160a01b03831633148015906129e457506129e2833361292b565b155b15612a02576040516331d00f8160e11b815260040160405180910390fd5b612923858585614beb565b5f612a166134a8565b600401546001600160a01b03169050338114612a4757806040516314c9222d60e01b815260040161123c9190615896565b6002612a516134cc565b5460ff166002811115612a6657612a66615cbd565b03612a8457604051631cdde67b60e01b815260040160405180910390fd5b612a8c6113a6565b15612aaa5760405163ebe435fd60e01b815260040160405180910390fd5b61282282614703565b5f80612abd61340e565b64ffffffffff9384165f90815260038201602090815260408083205490961682526004909201909152929092205492915050565b5f612afa6134cc565b5460ff16919050565b5f612b0c611a29565b15612b1857505f919050565b5f612b2161340e565b6001600160a01b0384165f908152600591909101602052604081205464ffffffffff169150612b5082856123e6565b9050612b5c8183613076565b949350505050565b612b6c613d00565b7fa92ff4390fe6943f0b30e8fe715dde86f85ab79b2b2c640a10fc094cc4036cc8612b956134a8565b60010154604051612bb1916001600160a01b0316908490615dc4565b60405180910390a180612bc26134a8565b60010180546001600160a01b0319166001600160a01b039290921691909117905550565b5f80612bf061340e565b600801546001600160a01b031692915050565b5f6110ef825f6149ea565b5f612c176134a8565b600401546001600160a01b0316919050565b5f612c32611a29565b15612c3e57505f919050565b5f612c495f846130c6565b905080158015612c7557506002612c5e6134cc565b5460ff166002811115612c7357612c73615cbd565b145b15612c865761144561055484611e22565b5f612c8f61340e565b6001600160a01b0385165f908152600691909101602052604090205464ffffffffff169050612b5c8282611439565b5f612cc76113a6565b612ce4576040516341e86ac160e11b815260040160405180910390fd5b5f612ced6134cc565b5460ff1690505f816002811115612d0657612d06615cbd565b14612d265780604051634b0145f360e01b815260040161123c9190615cd1565b5f612d2f61340e565b9050612d3a3361171d565b612d5757604051630b094f2760e31b815260040160405180910390fd5b3415612e2b5760098101546001600160a01b0316612d7361166a565b6001600160a01b031603612e1257349550806008015f9054906101000a90046001600160a01b03166001600160a01b031663439370b1876040518263ffffffff1660e01b81526004015f604051808303818588803b158015612dd3575f80fd5b505af1158015612de5573d5f803e3d5ffd5b505050506008820154612e0d91506001600160a01b0316612e0461144c565b8861136a61166a565b612e37565b604051636546370360e01b815260040160405180910390fd5b612e3733612e0461144c565b612e41865f6149ea565b925085815f015f828254612e559190615d88565b90915550612e6590508584614ce3565b846001600160a01b0316336001600160a01b03167fc7fa05bbaa7a6c46527c364d2da9fbafe81091552e9cfa35b7fd69c27878afbc8886604051612eaa929190616093565b60405180910390a35f336001600160a01b0316856001600160a01b03165f8051602061685683398151915289604051612ee591815260200190565b60405180910390a450509392505050565b5f612eff6134a8565b600201546001600160a01b03169050338114612f30578060405163fde82f1f60e01b815260040161123c9190615896565b5f612f396134cc565b5460ff1690505f816002811115612f5257612f52615cbd565b14612f725780604051634b0145f360e01b815260040161123c9190615cd1565b612f7b83614918565b6127c43361363a565b612f8c613d00565b5f612f95613cdc565b600101805460ff19169115159190911790556040517f212c6e1d3045c9581ef0adf2504dbb1d137f52f38162ccf77a16c69d14eba5c3905f90a1565b5f612fda611a29565b15612fe657505f919050565b5f612ff15f846130c6565b90508015801561301d575060026130066134cc565b5460ff16600281111561301b5761301b615cbd565b145b156110ef5761144583611e22565b5f816001600160a01b038116331480159061304d575061304b813361292b565b155b1561306b576040516331d00f8160e11b815260040160405180910390fd5b611617858585614566565b5f61144583835f614d17565b5f8061308c613432565b6001600160a01b039485165f90815260019190910160209081526040808320959096168252939093525050205490565b5f80611674614daa565b5f806130d061340e565b9050835f036130fd576001600160a01b0383165f90815260068201602052604090205464ffffffffff1693505b6002810154600160c81b900464ffffffffff1684116115c55764ffffffffff84165f9081526003909101602090815260408083206001600160a01b038616845260020190915290205490506110ef565b5f604051633e26cc2f60e11b815260040160405180910390fd5b5f6131706134a8565b600201546001600160a01b031690503381146131a1578060405163fde82f1f60e01b815260040161123c9190615896565b5f5b82518110156127cd575f6131d05f8584815181106131c3576131c3615f77565b60200260200101516123e6565b9050801561321757613215818584815181106131ee576131ee615f77565b602002602001015186858151811061320857613208615f77565b6020026020010151613bb5565b505b506001016131a3565b613228613d00565b7f1eee17fbeb6d1c008ca140cc7d787451b233547ba63af138cea3470a1faf33a56132516134a8565b5460405161326a916001600160a01b0316908490615dc4565b60405180910390a18061327b6134a8565b80546001600160a01b0319166001600160a01b039290921691909117905550565b6132a4613d00565b5f6132ad614daa565b80546001600160a01b0319166001600160a01b03841690811782559091506132d3612251565b6001600160a01b03167f38d16b8cac22d99fc7c124b9cd0de2d3fa1faef420bfe791d8c362d765e2270060405160405180910390a35050565b5f8061331661340e565b9050835f03613343576001600160a01b0383165f90815260068201602052604090205464ffffffffff1693505b6002810154600160c81b900464ffffffffff168411156115c55764ffffffffff84165f9081526003909101602090815260408083206001600160a01b038616845260020190915290205490506110ef565b5f61339d61166a565b6001600160a01b03166370a082316133b3612be6565b6040518263ffffffff1660e01b81526004016133cf9190615896565b602060405180830381865afa1580156133ea573d5f803e3d5ffd5b505050506040513d601f19601f820116820180604052508101906111fd91906160a1565b7f5c74d456014b1c0eb4368d944667a568313858a3029a650ff0cb7b56f8b57a0090565b7f52c63247e1f47db19d5ce0460030c497f067ca4cebf71ba98eeadabe20bace0090565b5f611445613462611042565b61346d906001615d88565b613475614656565b61348090600a61606e565b613488611425565b6134929190615d88565b85919085614dce565b6127cd8383836001614e1d565b7f7c302ed2c673c3d6b4551cf74a01ee649f887e14fd20d13dbca1b6099534d90090565b7f0e6b3200a60a991c539f47dddaca04a18eb4bcf2b53906fb44751d827f00140090565b6134f8613d88565b5f61350161340e565b6001808201549192508101613529576040516343ec4aed60e11b815260040160405180910390fd5b8083146135495760405163389db72f60e01b815260040160405180910390fd5b8082555f196001830155600a82015461357290600160801b90046001600160801b0316426160b8565b600a830180546001600160801b0319166001600160801b03929092169190911790556040518181527ff306601d1bd9ff6895ca817f568f68463b269e4b0cf4710e5f1003592ad29f5c906020015b60405180910390a1505050565b5f6135d6613aea565b90505f806135e2614efe565b90925090508115613607576135f78583614ce3565b8015613607576136078482614ce3565b5f61361e61361361164e565b6123e090600a61606e565b905061362981615057565b428460020181905550505050505050565b5f61364361340e565b600281810154600160281b900464ffffffffff165f818152600484016020526040812090920154929350919081900361367c5750505050565b5f613687825f6149ea565b90505f613692611042565b90505f61369d611425565b6002878101549192505f916136b9919064ffffffffff166160d7565b64ffffffffff87165f9081526004890160205260409020600181018590558381559091506136e73086614ce3565b6136f18685615d88565b93506136fd8584615d88565b848955925061370d8760026160f4565b600289018054600160281b600160781b031916600160281b64ffffffffff9384160264ffffffffff60501b191617600160501b928516929092029190911790556008880154613769906001600160a01b03168a8861136a61166a565b8664ffffffffff168264ffffffffff167f26be8b1af887e484fec2868840869fd162e136268c24803bede886ab91aa29bc86868a8a6040516137ae9493929190616111565b60405180910390a3505050505050505050565b5f6137ca61340e565b6002810154909150600160a01b900464ffffffffff165f6137e961166a565b64ffffffffff83165f9081526004850160205260408120600301549192506138118282613456565b90505f836001600160a01b03166370a08231886040518263ffffffff1660e01b81526004016138409190615896565b602060405180830381865afa15801561385b573d5f803e3d5ffd5b505050506040513d601f19601f8201168201806040525081019061387f91906160a1565b905081158061388d57508082115b1561389b5750505050505050565b5f6138a4611042565b90505f6138af611425565b6002898101549192505f916138d29190600160781b900464ffffffffff166160d7565b64ffffffffff89165f90815260048b01602052604090206001810185905583815560088b01549192509061390f906001600160a01b0316886150b0565b613919868561612c565b9350613925878461612c565b848b5592506139358960026160f4565b60028b018054600160a01b600160f01b031916600160a01b64ffffffffff9384160264ffffffffff60c81b191617600160c81b9285169290920291909117905561398a6001600160a01b0389168c30896139e4565b8864ffffffffff168264ffffffffff167fa8fe241e26fead168e608ab85aa4e059a34552bad0fc6d98961122cb5a0abefd86868a8c6040516139cf9493929190616111565b60405180910390a35050505050505050505050565b6040516001600160a01b03848116602483015283811660448301526064820183905261208a9186918216906323b872dd906084015b604051602081830303815290604052915060e01b6020820180516001600160e01b0383818316178352505050506150e4565b5f80613a5561340e565b64ffffffffff8086165f9081526003830160209081526040808320549093168083526004850190915291812060019081015493945091929091613a989190615d88565b90505f613aa3614656565b613aae90600a61606e565b64ffffffffff84165f908152600486016020526040902054613ad09190615d88565b9050613ade88838389614dce565b98975050505050505050565b7fa5292f7ccd85acc1b3080c01f5da9af7799f2c26826bd4d79081d6511780bd0090565b5f613b198484613082565b90505f19811461208a5781811015613b4a57828183604051637dc7a0d960e11b815260040161123c9392919061613f565b61208a84848484035f614e1d565b6001600160a01b038316613b81575f604051634b637e8f60e11b815260040161123c9190615896565b6001600160a01b038216613baa575f60405163ec442f0560e01b815260040161123c9190615896565b6127cd83838361513c565b5f80613bbf61340e565b6001600160a01b0384165f908152600582016020526040902054600282015491925064ffffffffff90811691600160501b900416811115613c135760405163912d1a7360e01b815260040160405180910390fd5b64ffffffffff81165f90815260038301602090815260408083206001600160a01b038816845260010190915281208054889290613c5190849061612c565b90915550613c6890508664ffffffffff8316613076565b9250613c75308685613b58565b846001600160a01b0316846001600160a01b03165f805160206168b68339815191528886604051613ca7929190616093565b60405180910390a350509392505050565b7f0773e532dfede91f04b12a73d3d2acd361424f41f76b4fb79f090161e36b4e0090565b7f083cc98ab296d1a1f01854b5f7a2f47df4425a56ba7b35f7faa3a336067e480090565b33613d09612251565b6001600160a01b03161461194b573360405163118cdaa760e01b815260040161123c9190615896565b613d3a615147565b5f613d43613dae565b805460ff1916815590507f5db9ee0a495bf2e6ff9c91a7834c1ba4fdd244a5e8aa4e537bd38aeae4b073aa335b604051613d7d9190615896565b60405180910390a150565b613d90611a29565b1561194b5760405163d93c066560e01b815260040160405180910390fd5b7fcd5ed15c6e187e77e9aee88184c21f4f2182ab5827cb3b7e07fbedcd63f0330090565b5f336001600160a01b03831614801590613df35750613df1823361292b565b155b15613e0357613e03823386613b0e565b5f613e0c61340e565b90505f613e195f866130c6565b90508015613e2e57613e2c818687614beb565b505b60028201546001600160a01b0386165f90815260068401602052604090205464ffffffffff600160781b909204821691168114613ebe575f613e705f8861330c565b1115613e8f5760405163cadcefcf60e01b815260040160405180910390fd5b6001600160a01b0386165f9081526006840160205260409020805464ffffffffff191664ffffffffff83161790555b64ffffffffff81165f90815260038401602090815260408083206001600160a01b038a16845260020190915281208054899290613efc908490615d88565b90915550506008830154613f1b9086906001600160a01b03168961513c565b8064ffffffffff16856001600160a01b0316876001600160a01b03167f1fdc681a13d8c5da54e301c7ce6542dcde4581e4725043fdab2db12ddc574506338b604051613f68929190616160565b60405180910390a464ffffffffff169695505050505050565b7ff0c57e16840df040f15088dc2f81fe391c3923bec73e23a9662efc9c229c6a0090565b613fad61516c565b611f1581615191565b613fbe61516c565b5f613fc76134a8565b825181546001600160a01b03199081166001600160a01b039283161783556020850151600184018054831691841691909117905560408501516002840180548316918416919091179055606085015160038401805483169184169190911790556080909401516004909201805490941691161790915550565b61404861516c565b61282282826151c2565b61405a61516c565b61194b6151f2565b61406a61516c565b611f158161520e565b61407b61516c565b5f61408461340e565b600281018054600164ffffffffff60501b01600160c81b031916650100000000016501000000000160791b01179055604051909150839083906140c69061577e565b6140d1929190615dc4565b604051809103905ff0801580156140ea573d5f803e3d5ffd5b506008820180546001600160a01b03199081166001600160a01b03938416179091556009830180549091169184169190911790555f1960018201555f61412e61166a565b6001600160a01b031663313ce5676040518163ffffffff1660e01b8152600401602060405180830381865afa158015614169573d5f803e3d5ffd5b505050506040513d601f19601f8201168201806040525081019061418d9190615d54565b905060128160ff16106141b95760098201805460ff60a01b1916600160a01b60ff84160217905561208a565b600982018054601283900360ff16600160a81b0261ffff60a01b1990911617600960a11b17905550505050565b6141ee61516c565b8015611f15575f6141fd613cdc565b6001908101805460ff191690911790555050565b61421961516c565b6103e861ffff85161115614244576103e8604051630343096960e31b815260040161123c91906158e8565b61138861ffff8416111561426f57611388604051630343096960e31b815260040161123c91906158e8565b5f614278613aea565b4260018201556004810183905580546001600160a01b0319166001600160a01b03881617815590506142ab83600a616179565b6003820155600501805461ffff948516620100000263ffffffff19909116949095169390931793909317909155505050565b5f6142e6614daa565b80546001600160a01b031916815590506128228261527b565b614307613d88565b5f614310613dae565b805460ff1916600117815590507f62e78cea01bee320cd4e420270b5ea74000d11b0c9f74754ebdbfc544b05a258613d703390565b5f806143515f856123e6565b9050801561436657614364818586613bb5565b505b5f61436f61340e565b60028101546001600160a01b0387165f90815260058301602052604090205491925064ffffffffff908116911681146143fb575f6143ad5f8861153d565b11156143cc5760405163cadcefcf60e01b815260040160405180910390fd5b6001600160a01b0386165f9081526005830160205260409020805464ffffffffff191664ffffffffff83161790555b34156144935760098201546001600160a01b031661441761166a565b6001600160a01b031603612e1257816008015f9054906101000a90046001600160a01b03166001600160a01b031663439370b1346040518263ffffffff1660e01b81526004015f604051808303818588803b158015614474575f80fd5b505af1158015614486573d5f803e3d5ffd5b50505050503496506144b0565b60088201546144b09086906001600160a01b03168961136a61166a565b64ffffffffff81165f90815260038301602090815260408083206001600160a01b038a168452600101909152812080548992906144ee908490615d88565b925050819055508064ffffffffff16856001600160a01b0316876001600160a01b03167fbb58420bb8ce44e11b84e214cc0de10ce5e7c24d0355b2815c3d758b514cae72338b604051613f68929190616160565b7f9016d09d72d40fdae2fd8ceac6b6234c7706214fd39c1cd1e609a0528c19930090565b5f8061457061340e565b6001600160a01b0384165f908152600582016020526040902054600282015491925064ffffffffff90811691600160501b9004168111156145c45760405163912d1a7360e01b815260040160405180910390fd5b6145d086826001613a4b565b64ffffffffff82165f90815260038401602090815260408083206001600160a01b038916845260010190915281208054929550859290919061461390849061612c565b909155506146249050308688613b58565b846001600160a01b0316846001600160a01b03165f805160206168b68339815191528589604051613ca7929190616093565b5f61465f61340e565b60090154600160a81b900460ff16919050565b5f8061467c613aea565b805460408051634cee8ab360e11b815290519293506001600160a01b03909116916399dd1566916004808201926020929091908290030181865afa1580156146c6573d5f803e3d5ffd5b505050506040513d601f19601f820116820180604052508101906146ea91906160a1565b9150610bb88211156146ff5750610bb8919050565b5090565b61470b613d88565b5f61471461340e565b60028101805464ffffffffff8082165f9081526003850160205260408082208054600160281b909504841664ffffffffff199586161790559354600160781b8104831682529381208054600160a01b909504909216939092169290921790915560088201549192506001600160a01b039091169061479061166a565b6001600160a01b03166370a08231836040518263ffffffff1660e01b81526004016147bb9190615896565b602060405180830381865afa1580156147d6573d5f803e3d5ffd5b505050506040513d601f19601f820116820180604052508101906147fa91906160a1565b90505f61480683611e22565b9050811561486c57600284810180545f9061482990849064ffffffffff166160f4565b82546101009290920a64ffffffffff818102199093169183160217909155600286810154600160281b90049091165f908152600487016020526040902001839055505b80156148d75760028481018054600f90614895908490600160781b900464ffffffffff166160f4565b82546101009290920a64ffffffffff8181021990931691831602179091556002860154600160a01b9004165f9081526004860160205260409020600301829055505b600184018590556040518581527f3809c8827d04fcf6537fe5af7a5e42a8ec939c3556096ca7107842a2d44efca59060200160405180910390a15050505050565b5f6149216134a8565b905061492c826134f0565b60018101546003820154604080516339a51be560e01b81529051612822936001600160a01b039081169316916339a51be59160048083019260209291908290030181865afa1580156112f0573d5f803e3d5ffd5b5f61498961340e565b600a810180546001600160801b03858116600160801b81810283851617909455604080519490930490911680845260208401919091529293507f2bc73e9b849f667d30dc57236e1deed6d5368da53fe4367a550d7309ae219d7791016135c0565b5f6114456149f6614656565b614a0190600a61606e565b614a09611425565b614a139190615d88565b614a1b611042565b613492906001615d88565b826001600160a01b0316856001600160a01b031614158015614a4f5750614a4d838661292b565b155b15614a5f57614a5f838683613b0e565b81614a6861340e565b80545f90614a7790849061612c565b90915550614a87905083826150b0565b614aa48483614a9461166a565b6001600160a01b031691906152d5565b826001600160a01b0316846001600160a01b0316866001600160a01b03165f805160206168768339815191528585604051614ae0929190616093565b60405180910390a45050505050565b5f80614af961340e565b6001600160a01b0384165f908152600682016020526040902054600282015491925064ffffffffff90811691600160c81b900416811115614b4d5760405163912d1a7360e01b815260040160405180910390fd5b614b5986826001614d17565b64ffffffffff82165f90815260038401602090815260408083206001600160a01b0389168452600201909152812080549295508592909190614b9c90849061612c565b90915550614baf90508587614a9461166a565b836001600160a01b0316856001600160a01b0316336001600160a01b03165f805160206168768339815191528987604051612ee5929190616093565b5f80614bf561340e565b6001600160a01b0384165f908152600682016020526040902054600282015491925064ffffffffff90811691600160c81b900416811115614c495760405163912d1a7360e01b815260040160405180910390fd5b64ffffffffff81165f90815260038301602090815260408083206001600160a01b038816845260020190915281208054889290614c8790849061612c565b90915550614c98905086825f613a4b565b9250614ca78584614a9461166a565b836001600160a01b0316856001600160a01b0316336001600160a01b03165f80516020616876833981519152868a604051612ee5929190616093565b6001600160a01b038216614d0c575f60405163ec442f0560e01b815260040161123c9190615896565b6128225f838361513c565b5f80614d2161340e565b64ffffffffff8086165f9081526003830160209081526040808320549093168083526004850190915291812060019081015493945091929091614d649190615d88565b90505f614d6f614656565b614d7a90600a61606e565b64ffffffffff84165f908152600486016020526040902054614d9c9190615d88565b9050613ade88828489614dce565b7f237e158222e3e6968b72b9db0d8043aacf074ad9f650f0d1606b4d82ee432c0090565b5f80614ddb8686866152fb565b9050614de6836153ba565b8015614e0157505f8480614dfc57614dfc616184565b868809115b15614e1457614e11600182615d88565b90505b95945050505050565b5f614e26613432565b90506001600160a01b038516614e51575f60405163e602df0560e01b815260040161123c9190615896565b6001600160a01b038416614e7a575f604051634a1406b160e11b815260040161123c9190615896565b6001600160a01b038086165f90815260018301602090815260408083209388168352929052208390558115614ef757836001600160a01b0316856001600160a01b03167f8c5be1e5ebec7d5bd14f71427d1e84f3dd0314c0f7b2291e5b200ac8c7c3b92585604051614eee91815260200190565b60405180910390a35b5050505050565b5f805f614f09613aea565b90505f614f1461164e565b60ff1690505f614f22611e5c565b90505f836002015442614f35919061612c565b90505f614f40611042565b90505f614f5582855f015161ffff16856153e6565b90505f614fab82614f67856001615d88565b614f71919061612c565b614f79614656565b614f8490600a61606e565b614f8c611425565b614f969190615d88565b6001614fa38a600a616179565b929190614dce565b90505f614fb6611425565b90505f614fd2876020015161ffff1683858c600301548c61540a565b90505f614fdf8286615d88565b90505f615021614fed614656565b614ff890600a61606e565b6150029086615d88565b61500c848a61612c565b615017906001615d88565b8491906001614dce565b905061503a61502e614672565b82906127106001614dce565b9b506150468c8261612c565b9c5050505050505050505050509091565b5f615060613aea565b6003810154909150808311156127cd577f03f8f938dbe4475565f0cf1c3dcf09728208c2c6065e1f717102058c51e94d0681846040516150a1929190616093565b60405180910390a15060030155565b6001600160a01b0382166150d9575f604051634b637e8f60e11b815260040161123c9190615896565b612822825f8361513c565b5f6150f86001600160a01b03841683615437565b905080515f1415801561511c57508080602001905181019061511a9190616198565b155b156127cd5782604051635274afe760e01b815260040161123c9190615896565b6127cd838383615444565b61514f611a29565b61194b57604051638dfc202b60e01b815260040160405180910390fd5b615174615457565b61194b57604051631afcd79f60e31b815260040160405180910390fd5b61519961516c565b6001600160a01b038116611f0c575f604051631e4fbdf760e01b815260040161123c9190615896565b6151ca61516c565b5f6151d3613432565b9050600381016151e384826161f7565b506004810161208a83826161f7565b6151fa61516c565b5f615203613dae565b805460ff1916905550565b61521661516c565b5f61521f613cb8565b90505f8061522c84615470565b915091508161523c57601261523e565b805b83546001600160a81b031916600160a01b60ff92909216919091026001600160a01b031916176001600160a01b0394909416939093179091555050565b5f615284614542565b80546001600160a01b038481166001600160a01b031983168117845560405193945091169182907f8be0079c531659141344cd1fd0a4f28419497f9722a3daafe3b4186f6b6457e0905f90a3505050565b6127cd83846001600160a01b031663a9059cbb8585604051602401613a19929190616160565b5f838302815f1985870982811083820303915050805f0361532f5783828161532557615325616184565b0492505050611445565b80841161534f5760405163227bc15360e01b815260040160405180910390fd5b5f848688095f868103871696879004966002600389028118808a02820302808a02820302808a02820302808a02820302808a02820302808a02909103029181900381900460010186841190950394909402919094039290920491909117919091029150509392505050565b5f60028260038111156153cf576153cf615cbd565b6153d991906162b1565b60ff166001149050919050565b5f806153f785856127106001614dce565b905061161781846301e133806001614dce565b5f82841115614e14578284035f6154268761501786600a616179565b9050613ade81896127106001614dce565b606061144583835f615546565b61544c613d88565b6127cd8383836155df565b5f615460613f81565b54600160401b900460ff16919050565b60408051600481526024810182526020810180516001600160e01b031663313ce56760e01b17905290515f918291829182916001600160a01b038716916154b6916162de565b5f60405180830381855afa9150503d805f81146154ee576040519150601f19603f3d011682016040523d82523d5f602084013e6154f3565b606091505b509150915081801561550757506020815110155b1561553a575f8180602001905181019061552191906160a1565b905060ff8111615538576001969095509350505050565b505b505f9485945092505050565b60608147101561556b573060405163cd78605960e01b815260040161123c9190615896565b5f80856001600160a01b0316848660405161558691906162de565b5f6040518083038185875af1925050503d805f81146155c0576040519150601f19603f3d011682016040523d82523d5f602084013e6155c5565b606091505b50915091506155d5868383615702565b9695505050505050565b5f6155e8613432565b90506001600160a01b0384166156165781816002015f82825461560b9190615d88565b909155506156739050565b6001600160a01b0384165f90815260208290526040902054828110156156555784818460405163391434e360e21b815260040161123c9392919061613f565b6001600160a01b0385165f9081526020839052604090209083900390555b6001600160a01b0383166156915760028101805483900390556156af565b6001600160a01b0383165f9081526020829052604090208054830190555b826001600160a01b0316846001600160a01b03167fddf252ad1be2c89b69c2b068fc378daa952ba7f163c4a11628f55a4df523b3ef846040516156f491815260200190565b60405180910390a350505050565b6060826157175761571282615755565b611445565b815115801561572e57506001600160a01b0384163b155b1561574e5783604051639996b31560e01b815260040161123c9190615896565b5080611445565b8051156157655780518082602001fd5b604051630a12f52160e11b815260040160405180910390fd5b61055c806162fa83390190565b5f6020828403121561579b575f80fd5b81356001600160e01b031981168114611445575f80fd5b5f5b838110156157cc5781810151838201526020016157b4565b50505f910152565b602081525f82518060208401526157f28160408501602087016157b2565b601f01601f19169190910160400192915050565b5f60208284031215615816575f80fd5b5035919050565b6001600160a01b0381168114611f15575f80fd5b5f8060408385031215615842575f80fd5b823561584d8161581d565b946020939093013593505050565b5f6020828403121561586b575f80fd5b81356114458161581d565b5f8060408385031215615887575f80fd5b50508035926020909101359150565b6001600160a01b0391909116815260200190565b5f805f606084860312156158bc575f80fd5b83356158c78161581d565b925060208401356158d78161581d565b929592945050506040919091013590565b61ffff91909116815260200190565b5f8060408385031215615908575f80fd5b82359150602083013561591a8161581d565b809150509250929050565b5f805f60608486031215615937575f80fd5b8335925060208401356159498161581d565b915060408401356159598161581d565b809150509250925092565b5f60208284031215615974575f80fd5b813564ffffffffff81168114611445575f80fd5b634e487b7160e01b5f52604160045260245ffd5b60405161018081016001600160401b03811182821017156159bf576159bf615988565b60405290565b604051601f8201601f191681016001600160401b03811182821017156159ed576159ed615988565b604052919050565b61ffff81168114611f15575f80fd5b5f6040828403128015615a15575f80fd5b50604080519081016001600160401b0381118282101715615a3857615a38615988565b6040528235615a46816159f5565b81526020830135615a56816159f5565b60208201529392505050565b8015158114611f15575f80fd5b5f8060408385031215615a80575f80fd5b8235615a8b8161581d565b9150602083013561591a81615a62565b5f6001600160401b03821115615ab357615ab3615988565b50601f01601f191660200190565b5f805f60608486031215615ad3575f80fd5b83356001600160401b03811115615ae8575f80fd5b8401601f81018613615af8575f80fd5b8035615b0b615b0682615a9b565b6159c5565b818152876020838501011115615b1f575f80fd5b816020840160208301375f6020838301015280955050505060208401356159498161581d565b805161ffff908116835260209182015116910152565b604081016110ef8284615b45565b5f60208284031215615b79575f80fd5b81356001600160401b03811115615b8e575f80fd5b8201601f81018413615b9e575f80fd5b80356001600160401b03811115615bb757615bb7615988565b8060051b615bc7602082016159c5565b91825260208184018101929081019087841115615be2575f80fd5b6020850194505b83851015615c105784359250615bfe8361581d565b82825260209485019490910190615be9565b979650505050505050565b5f805f8060808587031215615c2e575f80fd5b843593506020850135615c408161581d565b92506040850135615c508161581d565b91506060850135615c608161581d565b939692955090935050565b5f60208284031215615c7b575f80fd5b81356001600160801b0381168114611445575f80fd5b5f8060408385031215615ca2575f80fd5b8235615cad8161581d565b9150602083013561591a8161581d565b634e487b7160e01b5f52602160045260245ffd5b6020810160038310615cf157634e487b7160e01b5f52602160045260245ffd5b91905290565b600181811c90821680615d0b57607f821691505b602082108103611adf57634e487b7160e01b5f52602260045260245ffd5b8051615d348161581d565b919050565b5f60208284031215615d49575f80fd5b81516114458161581d565b5f60208284031215615d64575f80fd5b815160ff81168114611445575f80fd5b634e487b7160e01b5f52601160045260245ffd5b808201808211156110ef576110ef615d74565b60a08101615da98286615b45565b615db66040830185615b45565b826080830152949350505050565b6001600160a01b0392831681529116602082015260400190565b5f82601f830112615ded575f80fd5b8151615dfb615b0682615a9b565b818152846020838601011115615e0f575f80fd5b612b5c8260208301602087016157b2565b8051615d34816159f5565b8051615d3481615a62565b5f60208284031215615e46575f80fd5b81516001600160401b03811115615e5b575f80fd5b82016101808185031215615e6d575f80fd5b615e7561599c565b615e7e82615d29565b815260208201516001600160401b03811115615e98575f80fd5b615ea486828501615dde565b60208301525060408201516001600160401b03811115615ec2575f80fd5b615ece86828501615dde565b604083015250615ee060608301615d29565b6060820152615ef160808301615d29565b6080820152615f0260a08301615d29565b60a0820152615f1360c08301615d29565b60c0820152615f2460e08301615d29565b60e0820152615f366101008301615e20565b610100820152615f496101208301615e20565b610120820152615f5c6101408301615e2b565b61014082015261016091820151918101919091529392505050565b634e487b7160e01b5f52603260045260245ffd5b6001815b6001841115615fc657808504811115615faa57615faa615d74565b6001841615615fb857908102905b60019390931c928002615f8f565b935093915050565b5f82615fdc575060016110ef565b81615fe857505f6110ef565b8160018114615ffe576002811461600857616024565b60019150506110ef565b60ff84111561601957616019615d74565b50506001821b6110ef565b5060208310610133831016604e8410600b8410161715616047575081810a6110ef565b6160535f198484615f8b565b805f190482111561606657616066615d74565b029392505050565b5f61144560ff841683615fce565b80820281158282048414176110ef576110ef615d74565b918252602082015260400190565b5f602082840312156160b1575f80fd5b5051919050565b6001600160801b0381811683821601908111156110ef576110ef615d74565b64ffffffffff82811682821603908111156110ef576110ef615d74565b64ffffffffff81811683821601908111156110ef576110ef615d74565b93845260208401929092526040830152606082015260800190565b818103818111156110ef576110ef615d74565b6001600160a01b039390931683526020830191909152604082015260600190565b6001600160a01b03929092168252602082015260400190565b5f6114458383615fce565b634e487b7160e01b5f52601260045260245ffd5b5f602082840312156161a8575f80fd5b815161144581615a62565b601f8211156127cd57805f5260205f20601f840160051c810160208510156161d85750805b601f840160051c820191505b81811015614ef7575f81556001016161e4565b81516001600160401b0381111561621057616210615988565b6162248161621e8454615cf7565b846161b3565b6020601f821160018114616256575f831561623f5750848201515b5f19600385901b1c1916600184901b178455614ef7565b5f84815260208120601f198516915b828110156162855787850151825560209485019460019092019101616265565b50848210156162a257868401515f19600387901b60f8161c191681555b50505050600190811b01905550565b5f60ff8316806162cf57634e487b7160e01b5f52601260045260245ffd5b8060ff84160691505092915050565b5f82516162ef8184602087016157b2565b919091019291505056fe60a060405234801561000f575f80fd5b5060405161055c38038061055c83398101604081905261002e9161036b565b6100436001600160a01b038316335f19610055565b6001600160a01b03166080525061041b565b5f836001600160a01b031663095ea7b384846040516024016100789291906103a3565b604051602081830303815290604052915060e01b6020820180516001600160e01b03838183161783525050505090506100b7848261012360201b60201c565b61011d5761011384856001600160a01b031663095ea7b3865f6040516024016100e19291906103a3565b60408051808303601f1901815291905260208101805160e09390931b6001600160e01b0393841617905291506101c416565b61011d84826101c4565b50505050565b5f805f846001600160a01b03168460405161013e91906103bc565b5f604051808303815f865af19150503d805f8114610177576040519150601f19603f3d011682016040523d82523d5f602084013e61017c565b606091505b50915091508180156101a65750805115806101a65750808060200190518101906101a691906103e8565b80156101bb57505f856001600160a01b03163b115b95945050505050565b5f6101d86001600160a01b0384168361022a565b905080515f141580156101fc5750808060200190518101906101fa91906103e8565b155b156102255782604051635274afe760e01b815260040161021c9190610407565b60405180910390fd5b505050565b606061023783835f61023e565b9392505050565b606081471015610263573060405163cd78605960e01b815260040161021c9190610407565b5f80856001600160a01b0316848660405161027e91906103bc565b5f6040518083038185875af1925050503d805f81146102b8576040519150601f19603f3d011682016040523d82523d5f602084013e6102bd565b606091505b5090925090506102ce8683836102d8565b9695505050505050565b6060826102ed576102e88261032b565b610237565b815115801561030457506001600160a01b0384163b155b156103245783604051639996b31560e01b815260040161021c9190610407565b5080610237565b80511561033b5780518082602001fd5b604051630a12f52160e11b815260040160405180910390fd5b50565b6001600160a01b0381168114610354575f80fd5b5f806040838503121561037c575f80fd5b825161038781610357565b602084015190925061039881610357565b809150509250929050565b6001600160a01b03929092168252602082015260400190565b5f82515f5b818110156103db57602081860181015185830152016103c1565b505f920191825250919050565b5f602082840312156103f8575f80fd5b81518015158114610237575f80fd5b6001600160a01b0391909116815260200190565b6080516101246104385f395f818160380152608001526101245ff3fe6080604052600436106025575f3560e01c806317fcb39b146029578063439370b1146076575b5f80fd5b3480156033575f80fd5b50605a7f000000000000000000000000000000000000000000000000000000000000000081565b6040516001600160a01b03909116815260200160405180910390f35b607c607e565b005b7f00000000000000000000000000000000000000000000000000000000000000006001600160a01b031663d0e30db0346040518263ffffffff1660e01b81526004015f604051808303818588803b15801560d6575f80fd5b505af115801560e7573d5f803e3d5ffd5b505050505056fea2646970667358221220b077ad1406cfb23c4a5e3c974877a67708d170e55c83da7d5a4881fa49b1ef7764736f6c634300081a003390f46099733ed637df811df4fcc5cae4961192ca04f36da9ab64b4dd8dc9b7f5fbde797d201c681b91056529119e0b02407c7bb96a4a2c75c01fc9667232c8db23ad33ab6a13a00aa7d06cd167b2abd03dec86af3cf3cc91759dcd3ae8411887dcbc1c05240f31ff3ad067ef1ee35ce4997762752e3a095284754544f4c709d7f93f9a76c1bf3444d22400a00cb9fe990e6abe9dbb333fda48859cfee864543da2646970667358221220b98dc7d4b1ca387deb96a7e7f473d2ab48515d10357c53c666e462b5a0ea156964736f6c634300081a0033","linkReferences":{}},"methodIdentifiers":{"MAX_MANAGEMENT_RATE()":"f886d4bd","MAX_PERFORMANCE_RATE()":"a1e59442","MAX_PROTOCOL_RATE()":"2542d4a6","acceptOwnership()":"79ba5097","activateWhitelist()":"89e877a3","addToWhitelist(address[])":"7f649783","allowance(address,address)":"dd62ed3e","approve(address,uint256)":"095ea7b3","asset()":"38d52e0f","balanceOf(address)":"70a08231","cancelRequestDeposit()":"9c428921","claimSharesAndRequestRedeem(uint256)":"5cfe2fe4","claimSharesOnBehalf(address[])":"f15be6f9","claimableDepositRequest(uint256,address)":"995ea21a","claimableRedeemRequest(uint256,address)":"eaed1d07","close(uint256)":"0aebeb4e","convertToAssets(uint256)":"07a2d13a","convertToAssets(uint256,uint256)":"181e7b3b","convertToShares(uint256)":"c6e6f592","convertToShares(uint256,uint256)":"db2088f4","decimals()":"313ce567","decimalsOffset()":"96b298c5","deposit(uint256,address)":"6e553f65","deposit(uint256,address,address)":"2e2d2984","depositEpochId()":"65e08b23","depositSettleId()":"a1da6eb5","disableWhitelist()":"d6b0f484","epochSettleId(uint40)":"2ef2274a","expireTotalAssets()":"927b15df","feeRates()":"7688c584","feeReceiver()":"b3f00674","feeRegistry()":"b3a408b8","getRolesStorage()":"937147e3","highWaterMark()":"1e8410da","initialize(bytes,address,address)":"660b88ee","initiateClosing()":"a4393915","isOperator(address,address)":"b6363cf2","isTotalAssetsValid()":"0c2b5b91","isWhitelistActivated()":"55fcd367","isWhitelisted(address)":"3af32abf","lastDepositEpochIdSettled_debug()":"6564223e","lastDepositRequestId(address)":"16f79e30","lastDepositRequestId_debug(address)":"83701fd1","lastFeeTime()":"66b5ae1f","lastRedeemRequestId(address)":"1291d4e0","maxDeposit(address)":"402d267d","maxMint(address)":"c63d75b6","maxRedeem(address)":"d905777e","maxWithdraw(address)":"ce96cb77","mint(uint256,address)":"94bf804d","mint(uint256,address,address)":"da39b3e7","name()":"06fdde03","newTotalAssets()":"18766de3","owner()":"8da5cb5b","pause()":"8456cb59","paused()":"5c975abb","pendingDeposit()":"f64c6f32","pendingDepositRequest(uint256,address)":"26c6f96c","pendingOwner()":"e30c3978","pendingRedeem()":"0a605c6d","pendingRedeemRequest(uint256,address)":"f5a23d8d","pendingSilo()":"c6d8a074","previewDeposit(uint256)":"ef8b30f7","previewMint(uint256)":"b3d7f6b9","previewRedeem(uint256)":"4cdad506","previewWithdraw(uint256)":"0a28a477","pricePerShare()":"99530b06","protocolFeeReceiver()":"39a51be5","protocolRate()":"99dd1566","redeem(uint256,address,address)":"ba087652","redeemEpochId()":"3edf7247","redeemSettleId()":"9d8490ff","renounceOwnership()":"715018a6","requestDeposit(uint256,address,address)":"85b77f45","requestDeposit(uint256,address,address,address)":"a5948c89","requestRedeem(uint256,address,address)":"7d41c86e","revokeFromWhitelist(address[])":"86af6e68","safe()":"186f0354","setOperator(address,bool)":"558a7297","settleDeposit(uint256)":"d24ca58a","settleRedeem(uint256)":"a627df66","share()":"a8d5fd65","state()":"c19d93fb","supportsInterface(bytes4)":"01ffc9a7","symbol()":"95d89b41","syncDeposit(uint256,address,address)":"d01d073a","totalAssets()":"01e1d114","totalAssets(uint256)":"94605857","totalAssetsExpiration()":"3a0a190f","totalAssetsLifespan()":"035eab84","totalSupply()":"18160ddd","totalSupply(uint256)":"bd85b039","transfer(address,uint256)":"a9059cbb","transferFrom(address,address,uint256)":"23b872dd","transferOwnership(address)":"f2fde38b","underlyingDecimals()":"25a760c2","unpause()":"3f4ba83a","updateFeeReceiver(address)":"c69bebe4","updateNewTotalAssets(uint256)":"bcd1bf34","updateRates((uint16,uint16))":"3e0a3c25","updateTotalAssetsLifespan(uint128)":"ae16ea8c","updateValuationManager(address)":"65ccfcef","updateWhitelistManager(address)":"f1a76fcc","valuationManager()":"caa768d5","version()":"54fd4d50","whitelistManager()":"26563b40","withdraw(uint256,address,address)":"b460af94"},"storageLayout":{"storage":[],"types":{}},"id":313}