{
  "_format": "hh-sol-artifact-1",
  "contractName": "GmOracleProvider",
  "sourceName": "contracts/oracle/GmOracleProvider.sol",
  "abi": [
    {
      "inputs": [
        {
          "internalType": "contract RoleStore",
          "name": "_roleStore",
          "type": "address"
        },
        {
          "internalType": "contract DataStore",
          "name": "_dataStore",
          "type": "address"
        },
        {
          "internalType": "contract OracleStore",
          "name": "_oracleStore",
          "type": "address"
        }
      ],
      "stateMutability": "nonpayable",
      "type": "constructor"
    },
    {
      "inputs": [],
      "name": "MAX_SIGNERS",
      "outputs": [
        {
          "internalType": "uint256",
          "name": "",
          "type": "uint256"
        }
      ],
      "stateMutability": "view",
      "type": "function"
    },
    {
      "inputs": [],
      "name": "MAX_SIGNER_INDEX",
      "outputs": [
        {
          "internalType": "uint256",
          "name": "",
          "type": "uint256"
        }
      ],
      "stateMutability": "view",
      "type": "function"
    },
    {
      "inputs": [],
      "name": "SIGNER_INDEX_LENGTH",
      "outputs": [
        {
          "internalType": "uint256",
          "name": "",
          "type": "uint256"
        }
      ],
      "stateMutability": "view",
      "type": "function"
    },
    {
      "inputs": [],
      "name": "dataStore",
      "outputs": [
        {
          "internalType": "contract DataStore",
          "name": "",
          "type": "address"
        }
      ],
      "stateMutability": "view",
      "type": "function"
    },
    {
      "inputs": [
        {
          "internalType": "address",
          "name": "token",
          "type": "address"
        },
        {
          "internalType": "bytes",
          "name": "data",
          "type": "bytes"
        }
      ],
      "name": "getOraclePrice",
      "outputs": [
        {
          "components": [
            {
              "internalType": "address",
              "name": "token",
              "type": "address"
            },
            {
              "internalType": "uint256",
              "name": "min",
              "type": "uint256"
            },
            {
              "internalType": "uint256",
              "name": "max",
              "type": "uint256"
            },
            {
              "internalType": "uint256",
              "name": "timestamp",
              "type": "uint256"
            },
            {
              "internalType": "address",
              "name": "provider",
              "type": "address"
            }
          ],
          "internalType": "struct OracleUtils.ValidatedPrice",
          "name": "",
          "type": "tuple"
        }
      ],
      "stateMutability": "view",
      "type": "function"
    },
    {
      "inputs": [],
      "name": "oracleStore",
      "outputs": [
        {
          "internalType": "contract OracleStore",
          "name": "",
          "type": "address"
        }
      ],
      "stateMutability": "view",
      "type": "function"
    },
    {
      "inputs": [],
      "name": "roleStore",
      "outputs": [
        {
          "internalType": "contract RoleStore",
          "name": "",
          "type": "address"
        }
      ],
      "stateMutability": "view",
      "type": "function"
    }
  ],
  "bytecode": "0x60e060405234801561001057600080fd5b506040516104aa3803806104aa83398101604081905261002f91610064565b6001600160a01b0392831660805290821660a0521660c0526100b1565b6001600160a01b038116811461006157600080fd5b50565b60008060006060848603121561007957600080fd5b83516100848161004c565b60208501519093506100958161004c565b60408501519092506100a68161004c565b809150509250925092565b60805160a05160c0516103cb6100df600039600060dc015260006101600152600061013101526103cb6000f3fe608060405234801561001057600080fd5b506004361061006d5760003560e01c8063377bbdaf14610072578063392bf7f6146100d75780633b9f9bd2146101165780634a4a7b041461012c57806359ecd65714610153578063660d0d671461015b578063b74da61d14610182575b600080fd5b610085610080366004610255565b61018b565b6040516100ce919081516001600160a01b039081168252602080840151908301526040808401519083015260608084015190830152608092830151169181019190915260a00190565b60405180910390f35b6100fe7f000000000000000000000000000000000000000000000000000000000000000081565b6040516001600160a01b0390911681526020016100ce565b61011e601081565b6040519081526020016100ce565b6100fe7f000000000000000000000000000000000000000000000000000000000000000081565b61011e610223565b6100fe7f000000000000000000000000000000000000000000000000000000000000000081565b61011e61010081565b6101cf6040518060a0016040528060006001600160a01b0316815260200160008152602001600081526020016000815260200160006001600160a01b031681525090565b6000806000848060200190518101906101e89190610324565b6040805160a0810182526001600160a01b038b1681526020810194909452830191909152606082015230608082015293505050505b92915050565b60016102326010610100610352565b61023c9190610374565b81565b634e487b7160e01b600052604160045260246000fd5b6000806040838503121561026857600080fd5b82356001600160a01b038116811461027f57600080fd5b915060208301356001600160401b038082111561029b57600080fd5b818501915085601f8301126102af57600080fd5b8135818111156102c1576102c161023f565b604051601f8201601f19908116603f011681019083821181831017156102e9576102e961023f565b8160405282815288602084870101111561030257600080fd5b8260208601602083013760006020848301015280955050505050509250929050565b60008060006060848603121561033957600080fd5b8351925060208401519150604084015190509250925092565b60008261036f57634e487b7160e01b600052601260045260246000fd5b500490565b8181038181111561021d57634e487b7160e01b600052601160045260246000fdfea264697066735822122030c40a1c34057958253b348352cebd5a0533813cba98e052d652cd3a03e593c664736f6c63430008120033",
  "linkReferences": {},
  "deployedLinkReferences": {}
}