{
  "_format": "hh-sol-artifact-1",
  "contractName": "AaveMarginTraderInit",
  "sourceName": "contracts/1delta/initializers/AaveMarginTraderInit.sol",
  "abi": [
    {
      "inputs": [
        {
          "internalType": "address",
          "name": "_aavePool",
          "type": "address"
        }
      ],
      "name": "initAaveMarginTrader",
      "outputs": [],
      "stateMutability": "nonpayable",
      "type": "function"
    }
  ],
  "bytecode": "0x6080806040523461001657610216908161001c8239f35b600080fdfe608080604052600436101561001357600080fd5b600090813560e01c63d20cdbab1461002a57600080fd5b346101dc5760207ffffffffffffffffffffffffffffffffffffffffffffffffffffffffffffffffc3601126101dc5760043573ffffffffffffffffffffffffffffffffffffffff81168091036101d8577f7f329bcfcc522490fb9354c98bac52257df458f150bb3c717c605a68e973d91280549260ff841661017c575060017fffffffffffffffffffffffffffffffffffffffffffffffffffffffffffffff008094161790557fffffffffffffffffffffffff0000000000000000000000000000000000000000907f893924bbf3abb5d61e6884fbda9b7e595ceeb9cfb3fbde996d4124865fe8f49290828254161790557f61d1713be5232408b5b4a4eb9167729a7f6f26a324a820a406ab862b03af3c649033908254161790553382527f61d1713be5232408b5b4a4eb9167729a7f6f26a324a820a406ab862b03af3c656020526001604083209182541617905580f35b807f08c379a0000000000000000000000000000000000000000000000000000000006064925260206004820152601260248201527f616c7261647920696e697469616c697a656400000000000000000000000000006044820152fd5b8280fd5b5080fdfea2646970667358221220d0a042753a99f7d9543b62785c093dfe528a88de84505de3083bf252d929e13e64736f6c63430008150033",
  "linkReferences": {},
  "deployedLinkReferences": {}
}