{
  "_format": "hh-sol-artifact-1",
  "contractName": "BalancerFlashModule",
  "sourceName": "contracts/1delta/modules/aave/BalancerFlashModule.sol",
  "abi": [
    {
      "inputs": [
        {
          "internalType": "address",
          "name": "_aave",
          "type": "address"
        },
        {
          "internalType": "address",
          "name": "_balancer",
          "type": "address"
        }
      ],
      "stateMutability": "nonpayable",
      "type": "constructor"
    },
    {
      "inputs": [
        {
          "internalType": "contract IERC20",
          "name": "asset",
          "type": "address"
        },
        {
          "internalType": "uint256",
          "name": "amount",
          "type": "uint256"
        },
        {
          "components": [
            {
              "internalType": "address",
              "name": "baseAsset",
              "type": "address"
            },
            {
              "internalType": "address",
              "name": "target",
              "type": "address"
            },
            {
              "internalType": "uint8",
              "name": "marginTradeType",
              "type": "uint8"
            },
            {
              "internalType": "uint8",
              "name": "interestRateModeIn",
              "type": "uint8"
            },
            {
              "internalType": "uint8",
              "name": "interestRateModeOut",
              "type": "uint8"
            },
            {
              "internalType": "bool",
              "name": "withdrawMax",
              "type": "bool"
            }
          ],
          "internalType": "struct BalancerFlashModule.DeltaParams",
          "name": "deltaParams",
          "type": "tuple"
        },
        {
          "internalType": "bytes",
          "name": "swapCalldata",
          "type": "bytes"
        }
      ],
      "name": "executeOnBalancer",
      "outputs": [],
      "stateMutability": "payable",
      "type": "function"
    },
    {
      "inputs": [
        {
          "internalType": "contract IERC20[]",
          "name": "tokens",
          "type": "address[]"
        },
        {
          "internalType": "uint256[]",
          "name": "amounts",
          "type": "uint256[]"
        },
        {
          "internalType": "uint256[]",
          "name": "feeAmounts",
          "type": "uint256[]"
        },
        {
          "internalType": "bytes",
          "name": "userData",
          "type": "bytes"
        }
      ],
      "name": "receiveFlashLoan",
      "outputs": [],
      "stateMutability": "nonpayable",
      "type": "function"
    }
  ],
  "bytecode": "0x60c034620000cd57601f6200216238819003918201601f19168301916001600160401b03831184841017620000d2578084926040948552833981010312620000cd576200005a60206200005283620000e8565b9201620000e8565b6001600160a01b039182166080521660a0526040516120649081620000fe8239608051818181610de1015281816111500152818161130e015281816114aa015281816115bb0152818161171301528181611bab01528181611c440152611da4015260a05181818161075c0152610c080152f35b600080fd5b634e487b7160e01b600052604160045260246000fd5b51906001600160a01b0382168203620000cd5756fe6080604052600436101561001257600080fd5b6000803560e01c908163158038701461003a575063f04f27071461003557600080fd5b6102eb565b6101207ffffffffffffffffffffffffffffffffffffffffffffffffffffffffffffffffc3601126100f057600435610071816100f3565b60c07fffffffffffffffffffffffffffffffffffffffffffffffffffffffffffffffbc3601126100ec57610104359067ffffffffffffffff908183116100e857366023840112156100e85782600401359182116100e85736602483850101116100e85760246100e5930190602435906106cc565b80f35b8380fd5b5080fd5b80fd5b73ffffffffffffffffffffffffffffffffffffffff81160361011157565b600080fd5b7f4e487b7100000000000000000000000000000000000000000000000000000000600052604160045260246000fd5b60c0810190811067ffffffffffffffff82111761016157604052565b610116565b67ffffffffffffffff811161016157604052565b6060810190811067ffffffffffffffff82111761016157604052565b90601f7fffffffffffffffffffffffffffffffffffffffffffffffffffffffffffffffe0910116810190811067ffffffffffffffff82111761016157604052565b604051906101e48261017a565b565b67ffffffffffffffff81116101615760051b60200190565b9080601f83011215610111576020908235610218816101e6565b936102266040519586610196565b818552838086019260051b820101928311610111578301905b82821061024d575050505090565b8135815290830190830161023f565b67ffffffffffffffff811161016157601f017fffffffffffffffffffffffffffffffffffffffffffffffffffffffffffffffe01660200190565b9291926102a28261025c565b916102b06040519384610196565b829481845281830111610111578281602093846000960137010152565b9080601f83011215610111578160206102e893359101610296565b90565b346101115760807ffffffffffffffffffffffffffffffffffffffffffffffffffffffffffffffffc3601126101115767ffffffffffffffff6004358181116101115736602382011215610111578060040135610346816101e6565b916103546040519384610196565b81835260209160248385019160051b8301019136831161011157602401905b8282106103d0578585602435828111610111576103949036906004016101fe565b604435838111610111576103ac9036906004016101fe565b90606435938411610111576103c86103ce9436906004016102cd565b92610bae565b005b83809183356103de816100f3565b815201910190610373565b604051906040820182811067ffffffffffffffff821117610161576040526001825260203681840137565b8051156104215760200190565b7f4e487b7100000000000000000000000000000000000000000000000000000000600052603260045260246000fd5b60ff81160361011157565b8015150361011157565b7fffffffffffffffffffffffffffffffffffffffffffffffffffffffffffffffbc60c0910112610111576040519061049c82610145565b816044356104a9816100f3565b81526064356104b7816100f3565b60208201526084356104c881610450565b604082015260a4356104d981610450565b606082015260c4356104ea81610450565b608082015260a060e435916104fe8361045b565b0152565b60005b8381106105155750506000910152565b8181015183820152602001610505565b907fffffffffffffffffffffffffffffffffffffffffffffffffffffffffffffffe0601f60209361056181518092818752878088019101610502565b0116010190565b6102e8906020815260a0835173ffffffffffffffffffffffffffffffffffffffff808251166020850152602082015116604084015260ff604082015116606084015260ff606082015116608084015260ff608082015116828401520151151560c0820152602083015160406105eb610100928360e0860152610120850190610525565b94015173ffffffffffffffffffffffffffffffffffffffff16910152565b600091031261011157565b90949391608082019573ffffffffffffffffffffffffffffffffffffffff809116835260209660808885015282518091528760a085019301916000905b898383106106a6575050505050818103604083015285808551928381520194019060005b818110610692575050506102e89394506060818403910152610525565b825186529487019491870191600101610675565b845182168652948501949093019260019190910190610651565b6040513d6000823e3d90fd5b92916107de6107b292936106de6103e9565b9461070f6106ea6103e9565b976106f488610414565b9073ffffffffffffffffffffffffffffffffffffffff169052565b61071887610414565b5261074260017f9fc772e484014aadda1a3916bdcbf34dd65a99500e92cb6faae6cb2496083ccb55565b61079873ffffffffffffffffffffffffffffffffffffffff7f000000000000000000000000000000000000000000000000000000000000000016936107856101d7565b9261078f36610465565b84523691610296565b602082015233604082015260405193849160208301610568565b037fffffffffffffffffffffffffffffffffffffffffffffffffffffffffffffffe08101845283610196565b803b15610111576108249360008094604051968795869485937f5c38449e0000000000000000000000000000000000000000000000000000000085523060048601610614565b03925af18015610848576108355750565b806108426101e492610166565b80610609565b6106c0565b1561085457565b60646040517f08c379a000000000000000000000000000000000000000000000000000000000815260206004820152600d60248201527f43616e6e6f74456e7465722829000000000000000000000000000000000000006044820152fd5b156108b957565b60646040517f08c379a000000000000000000000000000000000000000000000000000000000815260206004820152601060248201527f5661756c744e6f7443616c6c65722829000000000000000000000000000000006044820152fd5b51906101e4826100f3565b51906101e48261045b565b81601f820112156101115780516109438161025c565b926109516040519485610196565b81845260208284010111610111576102e89160208085019101610502565b60208183031261011157805167ffffffffffffffff918282116101115701918281039261010084126101115760c0604051946109aa8661017a565b12610111576040516109bb81610145565b81516109c6816100f3565b815260208201516109d6816100f3565b602082015260408201516109e981610450565b604082015260608201516109fc81610450565b60608201526080820151610a0f81610450565b6080820152610a2060a08301610922565b60a0820152845260c081015192831161011157610a4460e092610a4f94830161092d565b602085015201610917565b604082015290565b15610a5e57565b60646040517f08c379a000000000000000000000000000000000000000000000000000000000815260206004820152600860248201527f54617267657428290000000000000000000000000000000000000000000000006044820152fd5b3d15610ae7573d90610acd8261025c565b91610adb6040519384610196565b82523d6000602084013e565b606090565b15610af357565b60646040517f08c379a000000000000000000000000000000000000000000000000000000000815260206004820152600c60248201527f43616c6c4661696c6564282900000000000000000000000000000000000000006044820152fd5b90816020910312610111575190565b7f4e487b7100000000000000000000000000000000000000000000000000000000600052601160045260246000fd5b91908203918211610b9c57565b610b60565b91908201809211610b9c57565b610c6d610c67610c4e610c34610c7e94989798610bee60017f9fc772e484014aadda1a3916bdcbf34dd65a99500e92cb6faae6cb2496083ccb541461084d565b610c2f73ffffffffffffffffffffffffffffffffffffffff7f00000000000000000000000000000000000000000000000000000000000000001633146108b2565b610414565b5173ffffffffffffffffffffffffffffffffffffffff1690565b73ffffffffffffffffffffffffffffffffffffffff1690565b92610414565b51946020808251830101910161096f565b93845190610cba610cb46040610cab602086015173ffffffffffffffffffffffffffffffffffffffff1690565b94015160ff1690565b60ff1690565b90610cdc604088015173ffffffffffffffffffffffffffffffffffffffff1690565b91610d38610d33610d2c8673ffffffffffffffffffffffffffffffffffffffff166000527f9fc772e484014aadda1a3916bdcbf34dd65a99500e92cb6faae6cb2496083ccc602052604060002090565b5460ff1690565b610a57565b806110155750610d666020880151936000858196928260208195519301915af1610d60610abc565b50610aec565b8651516040517f70a08231000000000000000000000000000000000000000000000000000000008082523060048301529673ffffffffffffffffffffffffffffffffffffffff909216929190602081602481875afa908115610848578691610ff6575b5073ffffffffffffffffffffffffffffffffffffffff7f00000000000000000000000000000000000000000000000000000000000000001693843b15610ff2576040517f617ba03700000000000000000000000000000000000000000000000000000000815273ffffffffffffffffffffffffffffffffffffffff9182166004820152602481019290925285166044820152600060648201529190858360848183885af190811561084857610e8e93610e8792610fdf575b50610414565b5190610ba1565b6040519586523060048701529460208160248173ffffffffffffffffffffffffffffffffffffffff89165afa801561084857610ed8606091610ee2938791610fb0575b5088610b8f565b9851015160ff1690565b813b156100e8576040517fa415bcad00000000000000000000000000000000000000000000000000000000815273ffffffffffffffffffffffffffffffffffffffff8681166004830152602482019990995260ff919091166044820152600060648201529190961660848201529394849060a490829084905af192831561084857610f7493610f9d575b503390611e84565b6101e460007f9fc772e484014aadda1a3916bdcbf34dd65a99500e92cb6faae6cb2496083ccb55565b80610842610faa92610166565b38610f6c565b610fd2915060203d602011610fd8575b610fca8183610196565b810190610b51565b38610ed1565b503d610fc0565b80610842610fec92610166565b38610e81565b8680fd5b61100f915060203d602011610fd857610fca8183610196565b38610dc9565b600181989495979896939614600014611636575090919260008061104b9260208701519082602083519301915af1610d60610abc565b8251516040517f70a08231000000000000000000000000000000000000000000000000000000008152306004820152929073ffffffffffffffffffffffffffffffffffffffff16602084602481845afa93841561084857600094611615575b508451608001516110bd9060ff16610cb4565b866110c9818385611ef7565b91868311611554576040517f573ade8100000000000000000000000000000000000000000000000000000000815273ffffffffffffffffffffffffffffffffffffffff80861660048301526024820185905260448201929092529116606482015292919060208480608481010381600073ffffffffffffffffffffffffffffffffffffffff7f0000000000000000000000000000000000000000000000000000000000000000165af19081156108485761119f96610e879561119093611535575b50610b8f565b8781611524575b505050610414565b61121360a061120a6111f08773ffffffffffffffffffffffffffffffffffffffff166000527f893924bbf3abb5d61e6884fbda9b7e595ceeb9cfb3fbde996d4124865fe8f48f602052604060002090565b5473ffffffffffffffffffffffffffffffffffffffff1690565b93510151151590565b156113b5576040517f70a0823100000000000000000000000000000000000000000000000000000000815273ffffffffffffffffffffffffffffffffffffffff84166004820152916020838060248101038173ffffffffffffffffffffffffffffffffffffffff85165afa92831561084857600093611390575b508261129b91853091611e00565b6040517f69328dec00000000000000000000000000000000000000000000000000000000815273ffffffffffffffffffffffffffffffffffffffff85166004820152602481018390523060448201529160208380606481010381600073ffffffffffffffffffffffffffffffffffffffff7f0000000000000000000000000000000000000000000000000000000000000000165af19283156108485761135193611371575b5061134c823387611e84565b610b8f565b9081611360575b505050610f74565b61136992611e84565b388080611358565b6113899060203d602011610fd857610fca8183610196565b5038611340565b61129b9193506113ae9060203d602011610fd857610fca8183610196565b929061128d565b6040517f70a0823100000000000000000000000000000000000000000000000000000000815230600482015292939092909160208260248173ffffffffffffffffffffffffffffffffffffffff87165afa80156108485761148f9561142961143392602095600091611507575b5087610b8f565b9283913091611e00565b6040517f69328dec00000000000000000000000000000000000000000000000000000000815273ffffffffffffffffffffffffffffffffffffffff84166004820152602481019190915230604482015293849081906064820190565b0381600073ffffffffffffffffffffffffffffffffffffffff7f0000000000000000000000000000000000000000000000000000000000000000165af1928315610848576114e3936114e857503390611e84565b610f74565b6115009060203d602011610fd857610fca8183610196565b5038610f6c565b61151e9150863d8811610fd857610fca8183610196565b38611422565b61152d92611e84565b388087611197565b61154d9060203d602011610fd857610fca8183610196565b503861118a565b6040517f573ade8100000000000000000000000000000000000000000000000000000000815273ffffffffffffffffffffffffffffffffffffffff9485166004820152602481019790975260448701528216606486015250602090849060849082906000907f0000000000000000000000000000000000000000000000000000000000000000165af19081156108485761119f93610e87926115f65750610414565b61160e9060203d602011610fd857610fca8183610196565b5038610e81565b61162f91945060203d602011610fd857610fca8183610196565b92386110aa565b600203611a7c5761165f6020840151946000868197928260208195519301915af1610d60610abc565b82515173ffffffffffffffffffffffffffffffffffffffff1690604051907f70a082310000000000000000000000000000000000000000000000000000000093848352600492602081806116d23088830191909173ffffffffffffffffffffffffffffffffffffffff6020820193169052565b038173ffffffffffffffffffffffffffffffffffffffff89165afa908115610848578891611a5d575b5073ffffffffffffffffffffffffffffffffffffffff7f00000000000000000000000000000000000000000000000000000000000000001694853b15611a59578993929189916117a860405196879384937f617ba0370000000000000000000000000000000000000000000000000000000085528a85016060916000939594608083019673ffffffffffffffffffffffffffffffffffffffff809316845260208401521660408201520152565b038183895af1908115610848576117c793610e8792610fdf5750610414565b9361182260a06118196111f08b73ffffffffffffffffffffffffffffffffffffffff166000527f893924bbf3abb5d61e6884fbda9b7e595ceeb9cfb3fbde996d4124865fe8f48f602052604060002090565b92510151151590565b156119415760405193845273ffffffffffffffffffffffffffffffffffffffff8716828501908152602090859081908301038173ffffffffffffffffffffffffffffffffffffffff85165afa938415610848578694611913575b50916118f491611891856020958a3091611e00565b6040519687809481937f69328dec000000000000000000000000000000000000000000000000000000008352888d3092850191939290604091606084019573ffffffffffffffffffffffffffffffffffffffff8093168552602085015216910152565b03925af19283156108485761135193611371575061134c823387611e84565b602093919450916118916119366118f494863d8811610fd857610fca8183610196565b95929450509161187c565b9092939596946040519485526020858061197a3088830191909173ffffffffffffffffffffffffffffffffffffffff6020820193169052565b038173ffffffffffffffffffffffffffffffffffffffff8a165afa801561084857611a21986119b76119c1926020988591611a3c575b508a610b8f565b9384913091611e00565b604080517f69328dec00000000000000000000000000000000000000000000000000000000815273ffffffffffffffffffffffffffffffffffffffff88169581019586526020860193909352309085015290968793849291839160600190565b03925af1928315610848576114e3936114e857503390611e84565b611a539150893d8b11610fd857610fca8183610196565b386119b0565b8880fd5b611a76915060203d602011610fd857610fca8183610196565b386116fb565b9390611aa4602084989795940151936000858196928260208195519301915af1610d60610abc565b8651516040517f70a0823100000000000000000000000000000000000000000000000000000000808252306004830152969092909173ffffffffffffffffffffffffffffffffffffffff16602084602481845afa938415610848578694611ddf575b50895160800151611b199060ff16610cb4565b85611b25818385611ef7565b91868311611d3e576040517f573ade8100000000000000000000000000000000000000000000000000000000815273ffffffffffffffffffffffffffffffffffffffff808616600483015260248201859052604482019290925291166064820152929190602084806084810103818b73ffffffffffffffffffffffffffffffffffffffff7f0000000000000000000000000000000000000000000000000000000000000000165af190811561084857611bf896610e8795611bea936115355750610b8f565b8681611d2d57505050610414565b6040519485523060048601529360208160248173ffffffffffffffffffffffffffffffffffffffff88165afa801561084857611c3c918491611d0e575b5085610b8f565b9551606001517f000000000000000000000000000000000000000000000000000000000000000073ffffffffffffffffffffffffffffffffffffffff169060ff16813b156100e8576040517fa415bcad00000000000000000000000000000000000000000000000000000000815273ffffffffffffffffffffffffffffffffffffffff8681166004830152602482019990995260ff919091166044820152600060648201529190961660848201529394849060a490829084905af1928315610848576114e393610f9d57503390611e84565b611d27915060203d602011610fd857610fca8183610196565b38611c35565b611d3692611e84565b388086611197565b6040517f573ade8100000000000000000000000000000000000000000000000000000000815273ffffffffffffffffffffffffffffffffffffffff94851660048201526024810197909752604487015282166064860152506020908490608490829089907f0000000000000000000000000000000000000000000000000000000000000000165af190811561084857611bf893610e87926115f65750610414565b611df991945060203d602011610fd857610fca8183610196565b9238611b06565b9290606490600060209460405196879586947f23b872dd00000000000000000000000000000000000000000000000000000000865273ffffffffffffffffffffffffffffffffffffffff938480921660048801521660248601526044850152165af1903d9160018251146020841015168315171615611e7d575050565b816000823efd5b604460209293600060405195869485937fa9059cbb00000000000000000000000000000000000000000000000000000000855273ffffffffffffffffffffffffffffffffffffffff80931660048601526024850152165af1903d9160018251146020841015168315171615611e7d575050565b90600203611fd657611fa891611f57610c4e610c4e6111f060209573ffffffffffffffffffffffffffffffffffffffff166000527f893924bbf3abb5d61e6884fbda9b7e595ceeb9cfb3fbde996d4124865fe8f490602052604060002090565b60405180809581947f70a082310000000000000000000000000000000000000000000000000000000083526004830191909173ffffffffffffffffffffffffffffffffffffffff6020820193169052565b03915afa90811561084857600091611fbe575090565b6102e8915060203d8111610fd857610fca8183610196565b611fa891611f57610c4e610c4e6111f060209573ffffffffffffffffffffffffffffffffffffffff166000527f893924bbf3abb5d61e6884fbda9b7e595ceeb9cfb3fbde996d4124865fe8f49160205260406000209056fea2646970667358221220cbbb13238b255dafe5b7f0f10052c23683468b74d99312c0080a5e152e04f38264736f6c63430008150033",
  "linkReferences": {},
  "deployedLinkReferences": {}
}