{
  "_format": "hh-sol-artifact-1",
  "contractName": "CometMoneyMarketModule",
  "sourceName": "contracts/1delta/modules/comet/CometMoneyMarketModule.sol",
  "abi": [
    {
      "inputs": [
        {
          "internalType": "address",
          "name": "uniFactory",
          "type": "address"
        }
      ],
      "stateMutability": "nonpayable",
      "type": "constructor"
    },
    {
      "inputs": [
        {
          "components": [
            {
              "internalType": "bytes",
              "name": "path",
              "type": "bytes"
            },
            {
              "internalType": "uint256",
              "name": "amountIn",
              "type": "uint256"
            },
            {
              "internalType": "uint256",
              "name": "amountOutMinimum",
              "type": "uint256"
            },
            {
              "internalType": "address",
              "name": "recipient",
              "type": "address"
            },
            {
              "internalType": "uint8",
              "name": "cometId",
              "type": "uint8"
            }
          ],
          "internalType": "struct ExactInputMoneyMarketMultiParams",
          "name": "params",
          "type": "tuple"
        }
      ],
      "name": "borrowAndSwapExactIn",
      "outputs": [
        {
          "internalType": "uint256",
          "name": "amountOut",
          "type": "uint256"
        }
      ],
      "stateMutability": "nonpayable",
      "type": "function"
    },
    {
      "inputs": [
        {
          "components": [
            {
              "internalType": "bytes",
              "name": "path",
              "type": "bytes"
            },
            {
              "internalType": "uint256",
              "name": "amountIn",
              "type": "uint256"
            },
            {
              "internalType": "uint256",
              "name": "amountOutMinimum",
              "type": "uint256"
            },
            {
              "internalType": "address",
              "name": "recipient",
              "type": "address"
            },
            {
              "internalType": "uint8",
              "name": "cometId",
              "type": "uint8"
            }
          ],
          "internalType": "struct ExactInputMoneyMarketMultiParams",
          "name": "params",
          "type": "tuple"
        }
      ],
      "name": "borrowAndSwapExactInToETH",
      "outputs": [
        {
          "internalType": "uint256",
          "name": "amountOut",
          "type": "uint256"
        }
      ],
      "stateMutability": "nonpayable",
      "type": "function"
    },
    {
      "inputs": [
        {
          "components": [
            {
              "internalType": "bytes",
              "name": "path",
              "type": "bytes"
            },
            {
              "internalType": "uint8",
              "name": "cometId",
              "type": "uint8"
            },
            {
              "internalType": "uint256",
              "name": "amountOut",
              "type": "uint256"
            },
            {
              "internalType": "uint256",
              "name": "amountInMaximum",
              "type": "uint256"
            }
          ],
          "internalType": "struct MarginSwapParamsMultiExactOut",
          "name": "params",
          "type": "tuple"
        }
      ],
      "name": "borrowAndSwapExactOut",
      "outputs": [
        {
          "internalType": "uint256",
          "name": "amountIn",
          "type": "uint256"
        }
      ],
      "stateMutability": "payable",
      "type": "function"
    },
    {
      "inputs": [
        {
          "components": [
            {
              "internalType": "bytes",
              "name": "path",
              "type": "bytes"
            },
            {
              "internalType": "uint8",
              "name": "cometId",
              "type": "uint8"
            },
            {
              "internalType": "uint256",
              "name": "amountOut",
              "type": "uint256"
            },
            {
              "internalType": "uint256",
              "name": "amountInMaximum",
              "type": "uint256"
            }
          ],
          "internalType": "struct MarginSwapParamsMultiExactOut",
          "name": "params",
          "type": "tuple"
        }
      ],
      "name": "borrowAndSwapExactOutToETH",
      "outputs": [
        {
          "internalType": "uint256",
          "name": "amountIn",
          "type": "uint256"
        }
      ],
      "stateMutability": "nonpayable",
      "type": "function"
    },
    {
      "inputs": [
        {
          "components": [
            {
              "internalType": "bytes",
              "name": "path",
              "type": "bytes"
            },
            {
              "internalType": "uint256",
              "name": "amountIn",
              "type": "uint256"
            },
            {
              "internalType": "uint256",
              "name": "amountOutMinimum",
              "type": "uint256"
            },
            {
              "internalType": "uint8",
              "name": "cometId",
              "type": "uint8"
            }
          ],
          "internalType": "struct ExactInputCollateralMultiParams",
          "name": "params",
          "type": "tuple"
        }
      ],
      "name": "swapAndRepayExactIn",
      "outputs": [
        {
          "internalType": "uint256",
          "name": "amountOut",
          "type": "uint256"
        }
      ],
      "stateMutability": "nonpayable",
      "type": "function"
    },
    {
      "inputs": [
        {
          "components": [
            {
              "internalType": "bytes",
              "name": "path",
              "type": "bytes"
            },
            {
              "internalType": "uint8",
              "name": "cometId",
              "type": "uint8"
            },
            {
              "internalType": "uint256",
              "name": "amountOut",
              "type": "uint256"
            },
            {
              "internalType": "uint256",
              "name": "amountInMaximum",
              "type": "uint256"
            }
          ],
          "internalType": "struct MarginSwapParamsMultiExactOut",
          "name": "params",
          "type": "tuple"
        }
      ],
      "name": "swapAndRepayExactOut",
      "outputs": [
        {
          "internalType": "uint256",
          "name": "amountIn",
          "type": "uint256"
        }
      ],
      "stateMutability": "payable",
      "type": "function"
    },
    {
      "inputs": [
        {
          "components": [
            {
              "internalType": "bytes",
              "name": "path",
              "type": "bytes"
            },
            {
              "internalType": "uint256",
              "name": "amountIn",
              "type": "uint256"
            },
            {
              "internalType": "uint256",
              "name": "amountOutMinimum",
              "type": "uint256"
            },
            {
              "internalType": "uint8",
              "name": "cometId",
              "type": "uint8"
            }
          ],
          "internalType": "struct ExactInputCollateralMultiParams",
          "name": "params",
          "type": "tuple"
        }
      ],
      "name": "swapAndSupplyExactIn",
      "outputs": [],
      "stateMutability": "nonpayable",
      "type": "function"
    },
    {
      "inputs": [
        {
          "components": [
            {
              "internalType": "bytes",
              "name": "path",
              "type": "bytes"
            },
            {
              "internalType": "uint8",
              "name": "cometId",
              "type": "uint8"
            },
            {
              "internalType": "uint256",
              "name": "amountOut",
              "type": "uint256"
            },
            {
              "internalType": "uint256",
              "name": "amountInMaximum",
              "type": "uint256"
            }
          ],
          "internalType": "struct MarginSwapParamsMultiExactOut",
          "name": "params",
          "type": "tuple"
        }
      ],
      "name": "swapAndSupplyExactOut",
      "outputs": [
        {
          "internalType": "uint256",
          "name": "amountIn",
          "type": "uint256"
        }
      ],
      "stateMutability": "payable",
      "type": "function"
    },
    {
      "inputs": [
        {
          "components": [
            {
              "internalType": "bytes",
              "name": "path",
              "type": "bytes"
            },
            {
              "internalType": "uint256",
              "name": "amountIn",
              "type": "uint256"
            },
            {
              "internalType": "uint256",
              "name": "amountOutMinimum",
              "type": "uint256"
            },
            {
              "internalType": "uint8",
              "name": "cometId",
              "type": "uint8"
            }
          ],
          "internalType": "struct ExactInputMultiParams",
          "name": "params",
          "type": "tuple"
        }
      ],
      "name": "swapETHAndRepayExactIn",
      "outputs": [
        {
          "internalType": "uint256",
          "name": "amountOut",
          "type": "uint256"
        }
      ],
      "stateMutability": "payable",
      "type": "function"
    },
    {
      "inputs": [
        {
          "components": [
            {
              "internalType": "bytes",
              "name": "path",
              "type": "bytes"
            },
            {
              "internalType": "uint256",
              "name": "amountOut",
              "type": "uint256"
            },
            {
              "internalType": "uint256",
              "name": "amountInMaximum",
              "type": "uint256"
            },
            {
              "internalType": "uint8",
              "name": "cometId",
              "type": "uint8"
            }
          ],
          "internalType": "struct ExactOutputCollateralMultiParams",
          "name": "params",
          "type": "tuple"
        }
      ],
      "name": "swapETHAndRepayExactOut",
      "outputs": [
        {
          "internalType": "uint256",
          "name": "amountIn",
          "type": "uint256"
        }
      ],
      "stateMutability": "payable",
      "type": "function"
    },
    {
      "inputs": [
        {
          "components": [
            {
              "internalType": "bytes",
              "name": "path",
              "type": "bytes"
            },
            {
              "internalType": "uint256",
              "name": "amountIn",
              "type": "uint256"
            },
            {
              "internalType": "uint256",
              "name": "amountOutMinimum",
              "type": "uint256"
            },
            {
              "internalType": "uint8",
              "name": "cometId",
              "type": "uint8"
            }
          ],
          "internalType": "struct ExactInputCollateralMultiParams",
          "name": "params",
          "type": "tuple"
        }
      ],
      "name": "swapETHAndSupplyExactIn",
      "outputs": [],
      "stateMutability": "payable",
      "type": "function"
    },
    {
      "inputs": [
        {
          "components": [
            {
              "internalType": "bytes",
              "name": "path",
              "type": "bytes"
            },
            {
              "internalType": "uint256",
              "name": "amountOut",
              "type": "uint256"
            },
            {
              "internalType": "uint256",
              "name": "amountInMaximum",
              "type": "uint256"
            },
            {
              "internalType": "uint8",
              "name": "cometId",
              "type": "uint8"
            }
          ],
          "internalType": "struct ExactOutputCollateralMultiParams",
          "name": "params",
          "type": "tuple"
        }
      ],
      "name": "swapETHAndSupplyExactOut",
      "outputs": [
        {
          "internalType": "uint256",
          "name": "amountIn",
          "type": "uint256"
        }
      ],
      "stateMutability": "payable",
      "type": "function"
    },
    {
      "inputs": [
        {
          "components": [
            {
              "internalType": "bytes",
              "name": "path",
              "type": "bytes"
            },
            {
              "internalType": "uint256",
              "name": "amountIn",
              "type": "uint256"
            },
            {
              "internalType": "uint256",
              "name": "amountOutMinimum",
              "type": "uint256"
            },
            {
              "internalType": "address",
              "name": "recipient",
              "type": "address"
            },
            {
              "internalType": "uint8",
              "name": "cometId",
              "type": "uint8"
            }
          ],
          "internalType": "struct ExactInputMoneyMarketMultiParams",
          "name": "params",
          "type": "tuple"
        }
      ],
      "name": "withdrawAndSwapExactIn",
      "outputs": [
        {
          "internalType": "uint256",
          "name": "amountOut",
          "type": "uint256"
        }
      ],
      "stateMutability": "nonpayable",
      "type": "function"
    },
    {
      "inputs": [
        {
          "components": [
            {
              "internalType": "bytes",
              "name": "path",
              "type": "bytes"
            },
            {
              "internalType": "uint256",
              "name": "amountIn",
              "type": "uint256"
            },
            {
              "internalType": "uint256",
              "name": "amountOutMinimum",
              "type": "uint256"
            },
            {
              "internalType": "address",
              "name": "recipient",
              "type": "address"
            },
            {
              "internalType": "uint8",
              "name": "cometId",
              "type": "uint8"
            }
          ],
          "internalType": "struct ExactInputMoneyMarketMultiParams",
          "name": "params",
          "type": "tuple"
        }
      ],
      "name": "withdrawAndSwapExactInToETH",
      "outputs": [
        {
          "internalType": "uint256",
          "name": "amountOut",
          "type": "uint256"
        }
      ],
      "stateMutability": "nonpayable",
      "type": "function"
    },
    {
      "inputs": [
        {
          "components": [
            {
              "internalType": "bytes",
              "name": "path",
              "type": "bytes"
            },
            {
              "internalType": "uint256",
              "name": "amountOut",
              "type": "uint256"
            },
            {
              "internalType": "uint256",
              "name": "amountInMaximum",
              "type": "uint256"
            },
            {
              "internalType": "address",
              "name": "recipient",
              "type": "address"
            },
            {
              "internalType": "uint8",
              "name": "cometId",
              "type": "uint8"
            }
          ],
          "internalType": "struct ExactOutputMoneyMarketMultiParams",
          "name": "params",
          "type": "tuple"
        }
      ],
      "name": "withdrawAndSwapExactOut",
      "outputs": [
        {
          "internalType": "uint256",
          "name": "amountIn",
          "type": "uint256"
        }
      ],
      "stateMutability": "payable",
      "type": "function"
    },
    {
      "inputs": [
        {
          "components": [
            {
              "internalType": "bytes",
              "name": "path",
              "type": "bytes"
            },
            {
              "internalType": "uint8",
              "name": "cometId",
              "type": "uint8"
            },
            {
              "internalType": "uint256",
              "name": "amountOut",
              "type": "uint256"
            },
            {
              "internalType": "uint256",
              "name": "amountInMaximum",
              "type": "uint256"
            }
          ],
          "internalType": "struct MarginSwapParamsMultiExactOut",
          "name": "params",
          "type": "tuple"
        }
      ],
      "name": "withdrawAndSwapExactOutToETH",
      "outputs": [
        {
          "internalType": "uint256",
          "name": "amountIn",
          "type": "uint256"
        }
      ],
      "stateMutability": "nonpayable",
      "type": "function"
    },
    {
      "inputs": [
        {
          "internalType": "uint256",
          "name": "_amountToWithdraw",
          "type": "uint256"
        },
        {
          "internalType": "address payable",
          "name": "_recipient",
          "type": "address"
        },
        {
          "internalType": "uint8",
          "name": "cometId",
          "type": "uint8"
        }
      ],
      "name": "withdrawAndUnwrap",
      "outputs": [],
      "stateMutability": "nonpayable",
      "type": "function"
    },
    {
      "inputs": [
        {
          "internalType": "uint8",
          "name": "_cometId",
          "type": "uint8"
        }
      ],
      "name": "wrapAndRepay",
      "outputs": [],
      "stateMutability": "payable",
      "type": "function"
    },
    {
      "inputs": [
        {
          "internalType": "uint8",
          "name": "_cometId",
          "type": "uint8"
        }
      ],
      "name": "wrapAndSupply",
      "outputs": [],
      "stateMutability": "payable",
      "type": "function"
    }
  ],
  "bytecode": "0x60e03461014357601f6200339e38819003918201601f19168301916001600160401b038311848410176101485780849260209460405283398101031261014357516001600160a01b0381168103610143576401000276a460805273fffd8963efd1fc6a506488495d951d5263988d2560a0527fff0000000000000000000000000000000000000000000000000000000000000060589190911b600160581b600160f81b03161760c05260405161323f90816200015f82396080518181816102da015281816108c101528181610c3b0152818161186f01528181611a4b01528181611c31015281816120ac0152818161252a0152612c01015260a0518181816105da01528181610ab001528181610dc20152818161197201528181611b7601528181611d8a015281816121f8015281816126430152612d06015260c05181612fc60152f35b600080fd5b634e487b7160e01b600052604160045260246000fdfe6080604052600436101561001257600080fd5b60003560e01c8063099ab2de1461014257806309bbc0e41461013d578063141c682214610138578063257f6b3f146101335780634025b6511461012e57806344e59e3914610129578063466101f3146101245780634f2287081461011f5780634fdb4cf7146101015780635ec7b0001461011a5780638f637c041461011557806390c0fcfa1461011057806393992f861461010b578063941342d114610106578063c522fc4814610101578063c5a84931146100fc578063c6605807146100f7578063cde43dcd146100f25763f511cf59146100ed57600080fd5b612483565b6123d3565b61221d565b611fde565b6115e8565b611f31565b611daf565b611b9b565b6119aa565b61175d565b611406565b611246565b611013565b610e37565b610b82565b610ad5565b61081b565b61019c565b7ffffffffffffffffffffffffffffffffffffffffffffffffffffffffffffffffc90602082820112610197576004359167ffffffffffffffff831161019757826080920301126101975760040190565b600080fd5b6101a536610147565b7f12e519ac34a7c0c6f1453240f0fcf1fe145432333432792a37a6fc156d411a6f546040919073ffffffffffffffffffffffffffffffffffffffff908116838301356020840135823b15610197578551937fd0e30db0000000000000000000000000000000000000000000000000000000008552600094858160048187895af1801561056757610309928992610257926105ff575b506102458980613010565b929061024f6106d3565b93369161071c565b8252306020830152600c828401528760608301528760808301526102bb6102a261029361028e6102878d80613010565b369161071c565b612d56565b90948083169086161094612f75565b73ffffffffffffffffffffffffffffffffffffffff1690565b90886102ce6102c988612d2b565b612b57565b9180156105d5576103357f0000000000000000000000000000000000000000000000000000000000000000955b875198899160208301612a9d565b037fffffffffffffffffffffffffffffffffffffffffffffffffffffffffffffffe08101895288610692565b61036e8651978896879586947f128acb080000000000000000000000000000000000000000000000000000000086523060048701612b14565b03925af18015610567576105a9575b507fca34c12b7ac03787f2248ab5ca282f44a09cb283af20e44277e7dbd576a9280b54946103e97fffffffffffffffffffffffffffffffffffffffffffffffffffffffffffffffff7fca34c12b7ac03787f2248ab5ca282f44a09cb283af20e44277e7dbd576a9280b55565b6103f58684101561306b565b61046e6104696102876104626102a26102a261044861041660608901613061565b60ff166000527fd408c83a623a3e514bed18a618f57d4f4b5063c9517109ee96b7036b9fe40fac602052604060002090565b5473ffffffffffffffffffffffffffffffffffffffff1690565b9380613010565b612a00565b813b156105a55787517f4232cd6300000000000000000000000000000000000000000000000000000000815233600482015273ffffffffffffffffffffffffffffffffffffffff919091166024820152604481019290925290919084908390606490829084905af1908115610567576104ee928692610592575b50612944565b90803b1561058e5782855180927f2e1a7d4d00000000000000000000000000000000000000000000000000000000825281838161053388600483019190602083019252565b03925af1801561056757839283928392610575575b5081811561056c575b3390f115610567579051908152602090f35b0390f35b612673565b506108fc610551565b8061058261058892610641565b80612668565b38610548565b8280fd5b8061058261059f92610641565b386104e8565b8580fd5b6105c890873d89116105ce575b6105c08183610692565b810190612afe565b5061037d565b503d6105b6565b6103357f0000000000000000000000000000000000000000000000000000000000000000956102fb565b8061058261060c92610641565b3861023a565b7f4e487b7100000000000000000000000000000000000000000000000000000000600052604160045260246000fd5b67ffffffffffffffff811161065557604052565b610612565b6080810190811067ffffffffffffffff82111761065557604052565b60a0810190811067ffffffffffffffff82111761065557604052565b90601f7fffffffffffffffffffffffffffffffffffffffffffffffffffffffffffffffe0910116810190811067ffffffffffffffff82111761065557604052565b604051906106e082610676565b565b67ffffffffffffffff811161065557601f017fffffffffffffffffffffffffffffffffffffffffffffffffffffffffffffffe01660200190565b929192610728826106e2565b916107366040519384610692565b829481845281830111610197578281602093846000960137010152565b9080601f830112156101975781602061076e9335910161071c565b90565b60ff81160361019757565b7ffffffffffffffffffffffffffffffffffffffffffffffffffffffffffffffffc906020828201126101975760043567ffffffffffffffff9283821161019757608090828403011261019757604051926107d58461065a565b81600401359081116101975760649260046107f292840101610753565b8352602481013561080281610771565b6020840152604481013560408401520135606082015290565b6108243661077c565b61082e8151612d56565b6040939293916108f083850151918486516020880192610875610852855160ff1690565b61085a6106d3565b9384523360208501525b600c848601525b60ff166060840152565b6108a76102a28b6000998a608087015273ffffffffffffffffffffffffffffffffffffffff8083169086161094612f75565b90876108b56102c989612d2b565b918015610aab5761091c7f0000000000000000000000000000000000000000000000000000000000000000955b8751998a9160208301612a9d565b037fffffffffffffffffffffffffffffffffffffffffffffffffffffffffffffffe081018a5289610692565b6109558651988996879586947f128acb080000000000000000000000000000000000000000000000000000000086523060048701612b14565b03925af18015610567576104486104166102a2936109f360609a6109fa976102a296610a8f575b507fca34c12b7ac03787f2248ab5ca282f44a09cb283af20e44277e7dbd576a9280b549b8c916109ea7fffffffffffffffffffffffffffffffffffffffffffffffffffffffffffffffff7fca34c12b7ac03787f2248ab5ca282f44a09cb283af20e44277e7dbd576a9280b55565b015110156131a4565b5160ff1690565b803b1561058e5783517f4232cd6300000000000000000000000000000000000000000000000000000000815233600482015273ffffffffffffffffffffffffffffffffffffffff96909616602487015260448601919091528490606490829084905af19283156105675761056393610a7c575b50519081529081906020820190565b80610582610a8992610641565b38610a6d565b610aa5908c8d3d106105ce576105c08183610692565b5061097c565b61091c7f0000000000000000000000000000000000000000000000000000000000000000956108e2565b34610197577ffffffffffffffffffffffffffffffffffffffffffffffffffffffffffffffffc602081360112610197576004359067ffffffffffffffff908183116101975760809083360301126101975760405190610b338261065a565b826004013590811161019757610b8092610b5560649260043691840101610753565b835260248101356020840152604481013560408401520135610b7681610771565b60608201526126e4565b005b3461019757610b9036610147565b610c6a610ba361028e6102878480613010565b60409485610bee8183013594610bb98480613010565b9290610bdb610bca60208801613061565b91610bd36106d3565b95369161071c565b8452336020850152600d8486015261086b565b610c216102a260009889608086015273ffffffffffffffffffffffffffffffffffffffff97888216809986161094612f75565b9087610c2f6102c989612d2b565b918015610dbd57610c967f0000000000000000000000000000000000000000000000000000000000000000955b87519c8d9160208301612a9d565b037fffffffffffffffffffffffffffffffffffffffffffffffffffffffffffffffe081018d528c610692565b610ccf86519b8c96879586947f128acb080000000000000000000000000000000000000000000000000000000086523060048701612b14565b03925af190811561056757606095610d5d92610da1575b507fca34c12b7ac03787f2248ab5ca282f44a09cb283af20e44277e7dbd576a9280b54958691610d547fffffffffffffffffffffffffffffffffffffffffffffffffffffffffffffffff7fca34c12b7ac03787f2248ab5ca282f44a09cb283af20e44277e7dbd576a9280b55565b013510156130da565b803b1561058e5782855180927f2e1a7d4d00000000000000000000000000000000000000000000000000000000825281838161053388600483019190602083019252565b610db790883d8a116105ce576105c08183610692565b50610ce6565b610c967f000000000000000000000000000000000000000000000000000000000000000095610c5c565b7ffffffffffffffffffffffffffffffffffffffffffffffffffffffffffffffffc90602082820112610197576004359167ffffffffffffffff8311610197578260a0920301126101975760040190565b3461019757610e4536610de7565b6020810135610e626102a26102a261044861041660808701613061565b610e726104696102878580613010565b91813b15610197576040517f2644131800000000000000000000000000000000000000000000000000000000815233600482015230602482015273ffffffffffffffffffffffffffffffffffffffff9093166044840152606483018190526000929183908390818381608481015b03925af191821561056757610f0892611000575b50610f026102878580613010565b90612b84565b91610f19604082013584101561267f565b7f12e519ac34a7c0c6f1453240f0fcf1fe145432333432792a37a6fc156d411a6f54610f5a9073ffffffffffffffffffffffffffffffffffffffff166102a2565b90813b1561058e578260405180937f2e1a7d4d000000000000000000000000000000000000000000000000000000008252818381610fa08a600483019190602083019252565b03925af19081156105675784610fcb6102a26102a260608897958897968897610fed575b50016130d0565b828215610fe4575bf11561056757604051908152602090f35b506108fc610fd3565b80610582610ffa92610641565b38610fc4565b8061058261100d92610641565b38610ef4565b61101c36610147565b7f12e519ac34a7c0c6f1453240f0fcf1fe145432333432792a37a6fc156d411a6f546020820135919073ffffffffffffffffffffffffffffffffffffffff16803b156101975782604051917fd0e30db00000000000000000000000000000000000000000000000000000000083528260048160009788945af19081156105675784926110b4926110005750610f026102878580613010565b6110c4604084013582101561267f565b6110f16110ec6102876110e56102a26102a261044861041660608b01613061565b9580613010565b612956565b92803b1561058e576040517f4232cd6300000000000000000000000000000000000000000000000000000000815233600482015273ffffffffffffffffffffffffffffffffffffffff909416602485015260448401919091528290818381606481015b03925af1801561056757611166575080f35b8061058261117392610641565b80f35b73ffffffffffffffffffffffffffffffffffffffff81160361019757565b7ffffffffffffffffffffffffffffffffffffffffffffffffffffffffffffffffc906020828201126101975760043567ffffffffffffffff928382116101975760a090828403011261019757604051926111ed84610676565b816004013590811161019757608492600461120a92840101610753565b83526024810135602084015260448101356040840152606481013561122e81611176565b6060840152013561123e81610771565b608082015290565b346101975761125436611194565b6020810180516112746102a26102a2610448610416608088015160ff1690565b9161127f8451612a00565b9051833b15610197576040517f2644131800000000000000000000000000000000000000000000000000000000815233600482015230602482015273ffffffffffffffffffffffffffffffffffffffff9290921660448301526064820152916000908390608490829084905af191821561056757611305926113f3575b50825190612b84565b61139060208261131b6102a26102a28751612956565b606086015173ffffffffffffffffffffffffffffffffffffffff1660006040518096819582947fa9059cbb000000000000000000000000000000000000000000000000000000008452600484016020909392919373ffffffffffffffffffffffffffffffffffffffff60408201951681520152565b03925af1801561056757610563936113b5926040926113c5575b50015182101561267f565b6040519081529081906020820190565b6113e59060203d81116113ec575b6113dd8183610692565b8101906127bf565b50386113aa565b503d6113d3565b8061058261140092610641565b386112fc565b346101975760607ffffffffffffffffffffffffffffffffffffffffffffffffffffffffffffffffc3601126101975760043560243561144481611176565b60443561145081610771565b73ffffffffffffffffffffffffffffffffffffffff906114c96102a26102a2610448857f12e519ac34a7c0c6f1453240f0fcf1fe145432333432792a37a6fc156d411a6f54169460ff166000527fd408c83a623a3e514bed18a618f57d4f4b5063c9517109ee96b7036b9fe40fac602052604060002090565b93843b15610197576040517f2644131800000000000000000000000000000000000000000000000000000000815233600482015230602482015273ffffffffffffffffffffffffffffffffffffffff831660448201526064810182905260009586908290608490829084905af18015610567576115d5575b50813b156115d1578460405180937f2e1a7d4d00000000000000000000000000000000000000000000000000000000825281838161158787600483019190602083019252565b03925af19081156105675785948594859485946115be575b50839183156115b4575b1690f1156105675780f35b6108fc92506115a9565b806105826115cb92610641565b3861159f565b8480fd5b806105826115e292610641565b38611541565b60207ffffffffffffffffffffffffffffffffffffffffffffffffffffffffffffffffc3601126101975760043561161e81610771565b73ffffffffffffffffffffffffffffffffffffffff7f12e519ac34a7c0c6f1453240f0fcf1fe145432333432792a37a6fc156d411a6f5416803b1561019757604051907fd0e30db0000000000000000000000000000000000000000000000000000000008252600092838360048134865af1908115610567576102a26104486102a29287966116df9561174a575b5060ff166000527fd408c83a623a3e514bed18a618f57d4f4b5063c9517109ee96b7036b9fe40fac602052604060002090565b90813b15611746576040517f4232cd6300000000000000000000000000000000000000000000000000000000815233600482015273ffffffffffffffffffffffffffffffffffffffff90911660248201523460448201529190829081838160648101611154565b5050fd5b8061058261175792610641565b386116ac565b61176636610147565b7f12e519ac34a7c0c6f1453240f0fcf1fe145432333432792a37a6fc156d411a6f546040919073ffffffffffffffffffffffffffffffffffffffff90811683830135813b15610197578451927fd0e30db0000000000000000000000000000000000000000000000000000000008452600093848160048186885af1801561056757611997575b50610309866118106117fe8880613010565b91906118086106d3565b92369161071c565b8152306020820152600c818301528660608201528660808201526102a261185561184061028e6102878c80613010565b60208d01359880841690831610949291612f75565b90886118636102c988612d2b565b91801561196d5761189d7f000000000000000000000000000000000000000000000000000000000000000095875198899160208301612a9d565b6118d68651978896879586947f128acb080000000000000000000000000000000000000000000000000000000086523060048701612b14565b03925af1801561056757611951575b507fca34c12b7ac03787f2248ab5ca282f44a09cb283af20e44277e7dbd576a9280b54946103f57fffffffffffffffffffffffffffffffffffffffffffffffffffffffffffffffff7fca34c12b7ac03787f2248ab5ca282f44a09cb283af20e44277e7dbd576a9280b55565b61196790873d89116105ce576105c08183610692565b506118e5565b61189d7f0000000000000000000000000000000000000000000000000000000000000000956102fb565b806105826119a492610641565b386117ec565b6119b336610147565b6119c361028e6102878380613010565b6040939293916108f08385013591846119dc8780613010565b90926119ff60208a01946119f2610bca87613061565b8452336020850152610864565b611a316102a28b6000998a608087015273ffffffffffffffffffffffffffffffffffffffff8083169086161094612f75565b9087611a3f6102c989612d2b565b918015611b7157611a797f0000000000000000000000000000000000000000000000000000000000000000958751998a9160208301612a9d565b611ab28651988996879586947f128acb080000000000000000000000000000000000000000000000000000000086523060048701612b14565b03925af18015610567576104486104166102a293611b5060609a6109fa976102a296611b55575b507fca34c12b7ac03787f2248ab5ca282f44a09cb283af20e44277e7dbd576a9280b549b8c91611b477fffffffffffffffffffffffffffffffffffffffffffffffffffffffffffffffff7fca34c12b7ac03787f2248ab5ca282f44a09cb283af20e44277e7dbd576a9280b55565b0135101561306b565b613061565b611b6b908c8d3d106105ce576105c08183610692565b50611ad9565b611a797f0000000000000000000000000000000000000000000000000000000000000000956108e2565b3461019757611ba936610147565b611bb961028e6102878380613010565b919060409361030985611be58184013594611bd48580613010565b9290610bdb610bca60208901613061565b611c176102a260009889608086015273ffffffffffffffffffffffffffffffffffffffff9a8b82168c86161094612f75565b9087611c256102c989612d2b565b918015611d8557611c5f7f000000000000000000000000000000000000000000000000000000000000000095875198899160208301612a9d565b611c988651978896879586947f128acb080000000000000000000000000000000000000000000000000000000086523060048701612b14565b03925af194851561056757611d2d610d5d936102a293606098611d69575b507fca34c12b7ac03787f2248ab5ca282f44a09cb283af20e44277e7dbd576a9280b54978891611d247fffffffffffffffffffffffffffffffffffffffffffffffffffffffffffffffff7fca34c12b7ac03787f2248ab5ca282f44a09cb283af20e44277e7dbd576a9280b55565b0135101561313f565b7f12e519ac34a7c0c6f1453240f0fcf1fe145432333432792a37a6fc156d411a6f541673ffffffffffffffffffffffffffffffffffffffff1690565b611d7f908a3d8c116105ce576105c08183610692565b50611cb6565b611c5f7f0000000000000000000000000000000000000000000000000000000000000000956102fb565b3461019757611dbd36610147565b6020810135611dd86102a26102a26104696102878680613010565b6040517f23b872dd000000000000000000000000000000000000000000000000000000008152336004820152306024820152604481018390529190602090839060649082906000905af191821561056757611e4092611f13575b50610f026102878480613010565b611e50604083013582101561267f565b611e786110ec610287611e716102a26102a261044861041660608a01613061565b9480613010565b91803b15610197576040517f4232cd6300000000000000000000000000000000000000000000000000000000815233600482015273ffffffffffffffffffffffffffffffffffffffff939093166024840152604483018290526000908390606490829084905af19182156105675761056392611f00575b506040519081529081906020820190565b80610582611f0d92610641565b38611eef565b611f2a9060203d81116113ec576113dd8183610692565b5038611e32565b3461019757611f3f36610de7565b611f4f6104696102878380613010565b6020820135611f6c6102a26102a261044861041660808801613061565b90813b15610197576040517f2644131800000000000000000000000000000000000000000000000000000000815233600482015230602482015273ffffffffffffffffffffffffffffffffffffffff909316604484015260648301819052600092918390839081838160848101610ee0565b611fe736610de7565b612051611ffa61028e6102878480613010565b9061207a6102a261200b8780613010565b95909461202e61201d60808b01613061565b966120266106d3565b98369161071c565b87523360208801526040978896612047888a01600d9052565b60ff166060890152565b6000608088015273ffffffffffffffffffffffffffffffffffffffff8083169086161094612f75565b612086606087016130d0565b9160006120996102c960208a0135612d2b565b938282146121ed5761213c6120db6121077f0000000000000000000000000000000000000000000000000000000000000000995b895192839160208301612a9d565b037fffffffffffffffffffffffffffffffffffffffffffffffffffffffffffffffe08101835282610692565b8751988997889687957f128acb0800000000000000000000000000000000000000000000000000000000875260048701612b14565b03925af18015610567576105639383926121c3926121d1575b507fca34c12b7ac03787f2248ab5ca282f44a09cb283af20e44277e7dbd576a9280b54938491610d547fffffffffffffffffffffffffffffffffffffffffffffffffffffffffffffffff7fca34c12b7ac03787f2248ab5ca282f44a09cb283af20e44277e7dbd576a9280b55565b519081529081906020820190565b6121e790843d86116105ce576105c08183610692565b50612155565b61213c6120db6121077f0000000000000000000000000000000000000000000000000000000000000000996120cd565b346101975761222b36611194565b6122358151612a00565b906020810151916122566102a26102a2610448610416608087015160ff1690565b803b15610197576040517f2644131800000000000000000000000000000000000000000000000000000000815233600482015230602482015273ffffffffffffffffffffffffffffffffffffffff929092166044830152606482018490526000908290608490829084905af180156105675761237e936020926122e1926123c0575b50835190612b84565b826122f360408395015183101561267f565b61232460606123086102a26102a28551612956565b92015173ffffffffffffffffffffffffffffffffffffffff1690565b60006040518097819582947fa9059cbb000000000000000000000000000000000000000000000000000000008452600484016020909392919373ffffffffffffffffffffffffffffffffffffffff60408201951681520152565b03925af191821561056757610563926123a257506040519081529081906020820190565b6123b99060203d81116113ec576113dd8183610692565b5038611eef565b806105826123cd92610641565b386122d8565b6123dc36610147565b7f12e519ac34a7c0c6f1453240f0fcf1fe145432333432792a37a6fc156d411a6f5460208201359073ffffffffffffffffffffffffffffffffffffffff16803b1561019757600082916004604051809581937fd0e30db00000000000000000000000000000000000000000000000000000000083525af191821561056757611e40926124705750610f026102878480613010565b8061058261247d92610641565b38611e32565b61248c3661077c565b6108f06124e261249c8351612d56565b919061250b6102a28751936124b560208a015160ff1690565b956124be6106d3565b95865233602087015260409788976124d8898901600d9052565b60ff166060880152565b6000608087015273ffffffffffffffffffffffffffffffffffffffff8083169086161094612f75565b90600061251d6102c9868a0151612d2b565b9180821461263e576125587f0000000000000000000000000000000000000000000000000000000000000000958751998a9160208301612a9d565b6125918651988996879586947f128acb080000000000000000000000000000000000000000000000000000000086523360048701612b14565b03925af1801561056757610563936060936121c392612622575b507fca34c12b7ac03787f2248ab5ca282f44a09cb283af20e44277e7dbd576a9280b549384916126197fffffffffffffffffffffffffffffffffffffffffffffffffffffffffffffffff7fca34c12b7ac03787f2248ab5ca282f44a09cb283af20e44277e7dbd576a9280b55565b0151101561313f565b61263890843d86116105ce576105c08183610692565b506125ab565b6125587f0000000000000000000000000000000000000000000000000000000000000000956108e2565b600091031261019757565b6040513d6000823e3d90fd5b1561268657565b60646040517f08c379a000000000000000000000000000000000000000000000000000000000815260206004820152601360248201527f526563656976656420746f6f206c6974746c65000000000000000000000000006044820152fd5b61270b6020820151612703816126fa8551612a00565b309033906127d7565b825190612b84565b61271b604083015182101561267f565b61273f6127386102a26102a2610448610416606088015160ff1690565b9251612956565b90823b15610197576040517f4232cd6300000000000000000000000000000000000000000000000000000000815233600482015273ffffffffffffffffffffffffffffffffffffffff9290921660248301526044820152906000908290606490829084905af18015610567576127b25750565b806105826106e092610641565b90816020910312610197575180151581036101975790565b906000809461284682956120db60405193849260208401977f23b872dd0000000000000000000000000000000000000000000000000000000089526024850160409194939294606082019573ffffffffffffffffffffffffffffffffffffffff80921683521660208201520152565b51925af13d1561290e573d61285a816106e2565b906128686040519283610692565b81523d6000602083013e5b816128df575b501561288157565b60646040517f08c379a000000000000000000000000000000000000000000000000000000000815260206004820152600360248201527f53544600000000000000000000000000000000000000000000000000000000006044820152fd5b80518015925082156128f4575b505038612879565b61290792506020809183010191016127bf565b38806128ec565b6060612873565b7f4e487b7100000000000000000000000000000000000000000000000000000000600052601160045260246000fd5b9190820391821161295157565b612915565b8051807fffffffffffffffffffffffffffffffffffffffffffffffffffffffffffffffec81011161295157808251106129945701600c015160601c90565b60646040517f08c379a000000000000000000000000000000000000000000000000000000000815260206004820152601560248201527f746f416464726573735f6f75744f66426f756e647300000000000000000000006044820152fd5b601701908160171161295157565b6014815110612994576020015160601c90565b60405190612a2082610676565b6000608083606081528260208201528260408201528260608201520152565b919082519283825260005b848110612a895750507fffffffffffffffffffffffffffffffffffffffffffffffffffffffffffffffe0601f8460006020809697860101520116010190565b602081830181015184830182015201612a4a565b6020815260a06080612aba845183602086015260c0850190612a3f565b9373ffffffffffffffffffffffffffffffffffffffff602082015116604085015260ff604082015116606085015260ff606082015116828501520151151591015290565b9190826040910312610197576020825192015190565b919360a09361076e969573ffffffffffffffffffffffffffffffffffffffff80941685521515602085015260408401521660608201528160808201520190612a3f565b7f800000000000000000000000000000000000000000000000000000000000000081146129515760000390565b6000915b612c936102a260428351101593612b9d612a13565b612ba685612e46565b8152612c3060409282612bbc8580950160639052565b89612bf6612bf0612bcd8451612d56565b73ffffffffffffffffffffffffffffffffffffffff828116908416109b92612f75565b93612d2b565b8715612d0157612c5c7f0000000000000000000000000000000000000000000000000000000000000000935b875196879160208301612a9d565b037fffffffffffffffffffffffffffffffffffffffffffffffffffffffffffffffe08101875286610692565b8551988995869485937f128acb080000000000000000000000000000000000000000000000000000000085528b3060048701612b14565b03925af191821561056757612cb89387928894612cde575b505015612cd75750612b57565b9115612cd157612cca612c9391612eaf565b9050612b88565b50905090565b9050612b57565b8091929450612cf99350903d106105ce576105c08183610692565b913880612cab565b612c5c7f000000000000000000000000000000000000000000000000000000000000000093612c22565b7f80000000000000000000000000000000000000000000000000000000000000008110156101975790565b90612d6082612a00565b916017815110612d8357601781015190602b815110612994576037015160601c91565b60646040517f08c379a000000000000000000000000000000000000000000000000000000000815260206004820152601460248201527f746f55696e7432345f6f75744f66426f756e64730000000000000000000000006044820152fd5b15612de857565b60646040517f08c379a000000000000000000000000000000000000000000000000000000000815260206004820152601160248201527f736c6963655f6f75744f66426f756e64730000000000000000000000000000006044820152fd5b612e54602b82511015612de1565b60405190600b8083019101603683015b808310612e9c575050602b8252601f017fffffffffffffffffffffffffffffffffffffffffffffffffffffffffffffffe01660405290565b9091825181526020809101920190612e64565b80517fffffffffffffffffffffffffffffffffffffffffffffffffffffffffffffffe9918282019082821161295157612ef38151612eec846129f2565b1115612de1565b81612f0d5750505050604051600081526020810160405290565b601760405194601f8416801560051b9182828901019687010193010101905b808410612f625750508252601f017fffffffffffffffffffffffffffffffffffffffffffffffffffffffffffffffe01660405290565b9092835181526020809101930190612f2c565b91907fe34f199b19b2b4f47f68442619d555527d244f78a3297ea89325f843f87b8b5460559273ffffffffffffffffffffffffffffffffffffffff948582168682161060001461300a575b604051937f00000000000000000000000000000000000000000000000000000000000000008552601585019182526035850192835262ffffff168585015260608120905252201690565b90612fc0565b9035907fffffffffffffffffffffffffffffffffffffffffffffffffffffffffffffffe181360301821215610197570180359067ffffffffffffffff82116101975760200191813603831361019757565b3561076e81610771565b1561307257565b60646040517f08c379a000000000000000000000000000000000000000000000000000000000815260206004820152600d60248201527f5061696420746f6f206d756368000000000000000000000000000000000000006044820152fd5b3561076e81611176565b156130e157565b60646040517f08c379a000000000000000000000000000000000000000000000000000000000815260206004820152601860248201527f48616420746f20776974686472617720746f6f206d75636800000000000000006044820152fd5b1561314657565b60646040517f08c379a000000000000000000000000000000000000000000000000000000000815260206004820152601660248201527f48616420746f20626f72726f7720746f6f206d756368000000000000000000006044820152fd5b156131ab57565b60646040517f08c379a000000000000000000000000000000000000000000000000000000000815260206004820152601360248201527f48616420746f2070617920746f6f206d756368000000000000000000000000006044820152fdfea2646970667358221220d3d8491479ca1eb8ea27e21a9f496d5a4b1ba721398a852eaccae343b69c579464736f6c63430008150033",
  "linkReferences": {},
  "deployedLinkReferences": {}
}