{
  "_format": "hh-sol-artifact-1",
  "contractName": "CometMarginTraderModule",
  "sourceName": "contracts/1delta/modules/comet/CometMarginTraderModule.sol",
  "abi": [
    {
      "inputs": [
        {
          "internalType": "address",
          "name": "uniFactory",
          "type": "address"
        }
      ],
      "stateMutability": "nonpayable",
      "type": "constructor"
    },
    {
      "inputs": [
        {
          "components": [
            {
              "internalType": "bytes",
              "name": "path",
              "type": "bytes"
            },
            {
              "internalType": "uint8",
              "name": "cometId",
              "type": "uint8"
            },
            {
              "internalType": "uint256",
              "name": "amountIn",
              "type": "uint256"
            },
            {
              "internalType": "uint256",
              "name": "amountOutMinimum",
              "type": "uint256"
            }
          ],
          "internalType": "struct MarginSwapParamsMultiExactIn",
          "name": "params",
          "type": "tuple"
        }
      ],
      "name": "openMarginPositionExactIn",
      "outputs": [
        {
          "internalType": "uint256",
          "name": "amountOut",
          "type": "uint256"
        }
      ],
      "stateMutability": "nonpayable",
      "type": "function"
    },
    {
      "inputs": [
        {
          "components": [
            {
              "internalType": "bytes",
              "name": "path",
              "type": "bytes"
            },
            {
              "internalType": "uint8",
              "name": "cometId",
              "type": "uint8"
            },
            {
              "internalType": "uint256",
              "name": "amountOut",
              "type": "uint256"
            },
            {
              "internalType": "uint256",
              "name": "amountInMaximum",
              "type": "uint256"
            }
          ],
          "internalType": "struct MarginSwapParamsMultiExactOut",
          "name": "params",
          "type": "tuple"
        }
      ],
      "name": "openMarginPositionExactOut",
      "outputs": [
        {
          "internalType": "uint256",
          "name": "amountIn",
          "type": "uint256"
        }
      ],
      "stateMutability": "nonpayable",
      "type": "function"
    },
    {
      "inputs": [
        {
          "components": [
            {
              "internalType": "bytes",
              "name": "path",
              "type": "bytes"
            },
            {
              "internalType": "uint256",
              "name": "amountIn",
              "type": "uint256"
            },
            {
              "internalType": "uint256",
              "name": "amountOutMinimum",
              "type": "uint256"
            },
            {
              "internalType": "uint8",
              "name": "cometId",
              "type": "uint8"
            }
          ],
          "internalType": "struct ExactInputMultiParams",
          "name": "params",
          "type": "tuple"
        }
      ],
      "name": "swapBorrowExactIn",
      "outputs": [
        {
          "internalType": "uint256",
          "name": "amountOut",
          "type": "uint256"
        }
      ],
      "stateMutability": "payable",
      "type": "function"
    },
    {
      "inputs": [
        {
          "components": [
            {
              "internalType": "bytes",
              "name": "path",
              "type": "bytes"
            },
            {
              "internalType": "uint256",
              "name": "amountOut",
              "type": "uint256"
            },
            {
              "internalType": "uint256",
              "name": "amountInMaximum",
              "type": "uint256"
            },
            {
              "internalType": "uint8",
              "name": "cometId",
              "type": "uint8"
            }
          ],
          "internalType": "struct ExactOutputMultiParams",
          "name": "params",
          "type": "tuple"
        }
      ],
      "name": "swapBorrowExactOut",
      "outputs": [
        {
          "internalType": "uint256",
          "name": "amountIn",
          "type": "uint256"
        }
      ],
      "stateMutability": "nonpayable",
      "type": "function"
    },
    {
      "inputs": [
        {
          "components": [
            {
              "internalType": "bytes",
              "name": "path",
              "type": "bytes"
            },
            {
              "internalType": "uint256",
              "name": "amountIn",
              "type": "uint256"
            },
            {
              "internalType": "uint256",
              "name": "amountOutMinimum",
              "type": "uint256"
            },
            {
              "internalType": "uint8",
              "name": "cometId",
              "type": "uint8"
            }
          ],
          "internalType": "struct ExactInputCollateralMultiParams",
          "name": "params",
          "type": "tuple"
        }
      ],
      "name": "swapCollateralExactIn",
      "outputs": [
        {
          "internalType": "uint256",
          "name": "amountOut",
          "type": "uint256"
        }
      ],
      "stateMutability": "nonpayable",
      "type": "function"
    },
    {
      "inputs": [
        {
          "components": [
            {
              "internalType": "bytes",
              "name": "path",
              "type": "bytes"
            },
            {
              "internalType": "uint256",
              "name": "amountOut",
              "type": "uint256"
            },
            {
              "internalType": "uint256",
              "name": "amountInMaximum",
              "type": "uint256"
            },
            {
              "internalType": "uint8",
              "name": "cometId",
              "type": "uint8"
            }
          ],
          "internalType": "struct ExactOutputCollateralMultiParams",
          "name": "params",
          "type": "tuple"
        }
      ],
      "name": "swapCollateralExactOut",
      "outputs": [
        {
          "internalType": "uint256",
          "name": "amountIn",
          "type": "uint256"
        }
      ],
      "stateMutability": "nonpayable",
      "type": "function"
    },
    {
      "inputs": [
        {
          "components": [
            {
              "internalType": "bytes",
              "name": "path",
              "type": "bytes"
            },
            {
              "internalType": "uint8",
              "name": "cometId",
              "type": "uint8"
            },
            {
              "internalType": "uint256",
              "name": "amountIn",
              "type": "uint256"
            },
            {
              "internalType": "uint256",
              "name": "amountOutMinimum",
              "type": "uint256"
            }
          ],
          "internalType": "struct MarginSwapParamsMultiExactIn",
          "name": "params",
          "type": "tuple"
        }
      ],
      "name": "trimMarginPositionExactIn",
      "outputs": [
        {
          "internalType": "uint256",
          "name": "amountOut",
          "type": "uint256"
        }
      ],
      "stateMutability": "nonpayable",
      "type": "function"
    },
    {
      "inputs": [
        {
          "components": [
            {
              "internalType": "bytes",
              "name": "path",
              "type": "bytes"
            },
            {
              "internalType": "uint8",
              "name": "cometId",
              "type": "uint8"
            },
            {
              "internalType": "uint256",
              "name": "amountOut",
              "type": "uint256"
            },
            {
              "internalType": "uint256",
              "name": "amountInMaximum",
              "type": "uint256"
            }
          ],
          "internalType": "struct MarginSwapParamsMultiExactOut",
          "name": "params",
          "type": "tuple"
        }
      ],
      "name": "trimMarginPositionExactOut",
      "outputs": [
        {
          "internalType": "uint256",
          "name": "amountIn",
          "type": "uint256"
        }
      ],
      "stateMutability": "payable",
      "type": "function"
    }
  ],
  "bytecode": "0x60e03461013357601f6116fd38819003918201601f19168301916001600160401b038311848410176101385780849260209460405283398101031261013357516001600160a01b0381168103610133576401000276a460805273fffd8963efd1fc6a506488495d951d5263988d2560a0527fff0000000000000000000000000000000000000000000000000000000000000060589190911b600160581b600160f81b03161760c0526040516115ae908161014f8239608051818181610159015281816105d8015281816107bc0152818161097101528181610afd01528181610c8d01528181610e190152610f87015260a0518181816102c60152818161071d015281816108ae01528181610a8a01528181610c1501528181610d7f01528181610f0c015261107a015260c051816113a30152f35b600080fd5b634e487b7160e01b600052604160045260246000fdfe604060808152600436101561001357600080fd5b60003560e01c908163214c98001461009a5750806347a0251e146100955780634e7179a9146100905780635a8a1ddd1461008b578063845089fa14610086578063af7897dc14610081578063b246380f1461007c5763d99dfd461461007757600080fd5b610f31565b610da4565b610c3a565b610aaf565b6108d3565b610742565b61055e565b6101886100a636610424565b918061013561011c6100b88651611256565b93918893919351946100f36100d160208c015160ff1690565b6100d961037c565b978852336020890152600a888a01525b60ff166060880152565b6000608087015273ffffffffffffffffffffffffffffffffffffffff8083169086161094611352565b73ffffffffffffffffffffffffffffffffffffffff1690565b90600061014c610147868a015161122b565b6113ed565b918082146102c1576101b47f0000000000000000000000000000000000000000000000000000000000000000955b8751998a91602083016110fd565b037fffffffffffffffffffffffffffffffffffffffffffffffffffffffffffffffe081018a528961033b565b6101ed8651988996879586947f128acb080000000000000000000000000000000000000000000000000000000086523060048701611174565b03925af180156102bc5761028c9360609361027e92610290575b507fca34c12b7ac03787f2248ab5ca282f44a09cb283af20e44277e7dbd576a9280b549384916102757fffffffffffffffffffffffffffffffffffffffffffffffffffffffffffffffff7fca34c12b7ac03787f2248ab5ca282f44a09cb283af20e44277e7dbd576a9280b55565b01511015611513565b519081529081906020820190565b0390f35b6102af90843d86116102b5575b6102a7818361033b565b81019061115e565b50610207565b503d61029d565b6111ba565b6101b47f00000000000000000000000000000000000000000000000000000000000000009561017a565b7f4e487b7100000000000000000000000000000000000000000000000000000000600052604160045260246000fd5b6080810190811067ffffffffffffffff82111761033657604052565b6102eb565b90601f7fffffffffffffffffffffffffffffffffffffffffffffffffffffffffffffffe0910116810190811067ffffffffffffffff82111761033657604052565b6040519060a0820182811067ffffffffffffffff82111761033657604052565b81601f820112156104115780359067ffffffffffffffff821161033657604051926103ef60207fffffffffffffffffffffffffffffffffffffffffffffffffffffffffffffffe0601f860116018561033b565b8284526020838301011161041157816000926020809301838601378301015290565b600080fd5b359060ff8216820361041157565b7ffffffffffffffffffffffffffffffffffffffffffffffffffffffffffffffffc906020828201126104115760043567ffffffffffffffff92838211610411576080908284030112610411576040519261047d8461031a565b816004013590811161041157606492600461049a9284010161039c565b83526104a860248201610416565b6020840152604481013560408401520135606082015290565b7ffffffffffffffffffffffffffffffffffffffffffffffffffffffffffffffffc602081830112610411576004359167ffffffffffffffff91828411610411576080908483030112610411576040519261051a8461031a565b80600401359283116104115761053a60649260046105569584010161039c565b8452602481013560208501526044810135604085015201610416565b606082015290565b346104115761056c366104c1565b6100f361060761057c8351611256565b91906105b861011c87519361059560608a015160ff1690565b9561059e61037c565b95865233602087015260409889976100e989890160029052565b9060006105cb61014760208a015161122b565b91808214610718576106337f0000000000000000000000000000000000000000000000000000000000000000955b8751988991602083016110fd565b037fffffffffffffffffffffffffffffffffffffffffffffffffffffffffffffffe0810189528861033b565b61066c8651978896879586947f128acb080000000000000000000000000000000000000000000000000000000086523060048701611174565b03925af180156102bc5761028c93839261027e926106fc575b507fca34c12b7ac03787f2248ab5ca282f44a09cb283af20e44277e7dbd576a9280b549384916106f37fffffffffffffffffffffffffffffffffffffffffffffffffffffffffffffffff7fca34c12b7ac03787f2248ab5ca282f44a09cb283af20e44277e7dbd576a9280b55565b01511015611449565b61071290843d86116102b5576102a7818361033b565b50610685565b6106337f0000000000000000000000000000000000000000000000000000000000000000956105f9565b3461041157610750366104c1565b6100f36106076107608351611256565b919061079c61011c87519361077960608a015160ff1690565b9561078261037c565b95865233602087015260409889976100e989890160049052565b9060006107af61014760208a015161122b565b918082146108a9576107ea7f0000000000000000000000000000000000000000000000000000000000000000958751988991602083016110fd565b6108238651978896879586947f128acb080000000000000000000000000000000000000000000000000000000086523060048701611174565b03925af180156102bc5761028c93839261027e9261029057507fca34c12b7ac03787f2248ab5ca282f44a09cb283af20e44277e7dbd576a9280b549384916102757fffffffffffffffffffffffffffffffffffffffffffffffffffffffffffffffff7fca34c12b7ac03787f2248ab5ca282f44a09cb283af20e44277e7dbd576a9280b55565b6107ea7f0000000000000000000000000000000000000000000000000000000000000000956105f9565b34610411576108e136610424565b61018861092c6108f18351611256565b9161095561011c87519361090960208a015160ff1690565b9561091261037c565b95865233602087015260409788976100e989890160089052565b6001608087015273ffffffffffffffffffffffffffffffffffffffff8083169086161094611352565b9060006109648589015161122b565b91808214610a855761099f7f0000000000000000000000000000000000000000000000000000000000000000958751998a91602083016110fd565b6109d88651988996879586947f128acb080000000000000000000000000000000000000000000000000000000086523060048701611174565b03925af180156102bc5761028c9360609361027e92610a69575b507fca34c12b7ac03787f2248ab5ca282f44a09cb283af20e44277e7dbd576a9280b54938491610a607fffffffffffffffffffffffffffffffffffffffffffffffffffffffffffffffff7fca34c12b7ac03787f2248ab5ca282f44a09cb283af20e44277e7dbd576a9280b55565b015111156114ae565b610a7f90843d86116102b5576102a7818361033b565b506109f2565b61099f7f00000000000000000000000000000000000000000000000000000000000000009561017a565b610ab8366104c1565b61092c610607610ac88351611256565b91610ae061011c87519361059560608a015160ff1690565b906000610af0602089015161122b565b91808214610c1057610b2b7f0000000000000000000000000000000000000000000000000000000000000000958751988991602083016110fd565b610b648651978896879586947f128acb080000000000000000000000000000000000000000000000000000000086523060048701611174565b03925af180156102bc5761028c93839261027e92610bf4575b507fca34c12b7ac03787f2248ab5ca282f44a09cb283af20e44277e7dbd576a9280b54938491610beb7fffffffffffffffffffffffffffffffffffffffffffffffffffffffffffffffff7fca34c12b7ac03787f2248ab5ca282f44a09cb283af20e44277e7dbd576a9280b55565b015111156111c6565b610c0a90843d86116102b5576102a7818361033b565b50610b7d565b610b2b7f0000000000000000000000000000000000000000000000000000000000000000956105f9565b3461041157610c48366104c1565b61092c610607610c588351611256565b91610c7061011c87519361077960608a015160ff1690565b906000610c80602089015161122b565b91808214610d7a57610cbb7f0000000000000000000000000000000000000000000000000000000000000000958751988991602083016110fd565b610cf48651978896879586947f128acb080000000000000000000000000000000000000000000000000000000086523060048701611174565b03925af180156102bc5761028c93839261027e92610a6957507fca34c12b7ac03787f2248ab5ca282f44a09cb283af20e44277e7dbd576a9280b54938491610a607fffffffffffffffffffffffffffffffffffffffffffffffffffffffffffffffff7fca34c12b7ac03787f2248ab5ca282f44a09cb283af20e44277e7dbd576a9280b55565b610cbb7f0000000000000000000000000000000000000000000000000000000000000000956105f9565b3461041157610db236610424565b61018861092c610dc28351611256565b91610dfd61011c875193610dda60208a015160ff1690565b95610de361037c565b95865233602087015260409788976100e9898901600a9052565b906000610e0c8589015161122b565b91808214610f0757610e477f0000000000000000000000000000000000000000000000000000000000000000958751998a91602083016110fd565b610e808651988996879586947f128acb080000000000000000000000000000000000000000000000000000000086523060048701611174565b03925af180156102bc5761028c9360609361027e92610bf457507fca34c12b7ac03787f2248ab5ca282f44a09cb283af20e44277e7dbd576a9280b54938491610beb7fffffffffffffffffffffffffffffffffffffffffffffffffffffffffffffffff7fca34c12b7ac03787f2248ab5ca282f44a09cb283af20e44277e7dbd576a9280b55565b610e477f00000000000000000000000000000000000000000000000000000000000000009561017a565b3461041157610f3f36610424565b6101886100f3610f4f8351611256565b9190610f6861011c87519361090960208a015160ff1690565b906000610f7a610147868a015161122b565b9180821461107557610fb57f0000000000000000000000000000000000000000000000000000000000000000958751998a91602083016110fd565b610fee8651988996879586947f128acb080000000000000000000000000000000000000000000000000000000086523060048701611174565b03925af180156102bc5761028c9360609361027e926106fc57507fca34c12b7ac03787f2248ab5ca282f44a09cb283af20e44277e7dbd576a9280b549384916106f37fffffffffffffffffffffffffffffffffffffffffffffffffffffffffffffffff7fca34c12b7ac03787f2248ab5ca282f44a09cb283af20e44277e7dbd576a9280b55565b610fb57f00000000000000000000000000000000000000000000000000000000000000009561017a565b919082519283825260005b8481106110e95750507fffffffffffffffffffffffffffffffffffffffffffffffffffffffffffffffe0601f8460006020809697860101520116010190565b6020818301810151848301820152016110aa565b6020815260a0608061111a845183602086015260c085019061109f565b9373ffffffffffffffffffffffffffffffffffffffff602082015116604085015260ff604082015116606085015260ff606082015116828501520151151591015290565b9190826040910312610411576020825192015190565b919360a0936111b7969573ffffffffffffffffffffffffffffffffffffffff8094168552151560208501526040840152166060820152816080820152019061109f565b90565b6040513d6000823e3d90fd5b156111cd57565b60646040517f08c379a000000000000000000000000000000000000000000000000000000000815260206004820152601160248201527f52657061696420746f6f206c6974746c650000000000000000000000000000006044820152fd5b7f80000000000000000000000000000000000000000000000000000000000000008110156104115790565b9060148251106112e157602082015160601c9160178151106112835761128060178201519161133f565b91565b60646040517f08c379a000000000000000000000000000000000000000000000000000000000815260206004820152601460248201527f746f55696e7432345f6f75744f66426f756e64730000000000000000000000006044820152fd5b60646040517f08c379a000000000000000000000000000000000000000000000000000000000815260206004820152601560248201527f746f416464726573735f6f75744f66426f756e647300000000000000000000006044820152fd5b602b8151106112e1576037015160601c90565b91907fe34f199b19b2b4f47f68442619d555527d244f78a3297ea89325f843f87b8b5460559273ffffffffffffffffffffffffffffffffffffffff94858216868216106000146113e7575b604051937f00000000000000000000000000000000000000000000000000000000000000008552601585019182526035850192835262ffffff168585015260608120905252201690565b9061139d565b7f8000000000000000000000000000000000000000000000000000000000000000811461141a5760000390565b7f4e487b7100000000000000000000000000000000000000000000000000000000600052601160045260246000fd5b1561145057565b60646040517f08c379a000000000000000000000000000000000000000000000000000000000815260206004820152601660248201527f48616420746f20626f72726f7720746f6f206d756368000000000000000000006044820152fd5b156114b557565b60646040517f08c379a000000000000000000000000000000000000000000000000000000000815260206004820152601460248201527f4465706f736974656420746f6f206c6974746c650000000000000000000000006044820152fd5b1561151a57565b60646040517f08c379a000000000000000000000000000000000000000000000000000000000815260206004820152601860248201527f48616420746f20776974686472617720746f6f206d75636800000000000000006044820152fdfea2646970667358221220058aacb31ea9d041f9fdf030215e6969c5f97db0ea51cbfc71baaaba8a5c794564736f6c63430008150033",
  "linkReferences": {},
  "deployedLinkReferences": {}
}