{
  "_format": "hh-sol-artifact-1",
  "contractName": "CometUniV3Callback",
  "sourceName": "contracts/1delta/modules/comet/CometUniV3Callback.sol",
  "abi": [
    {
      "inputs": [
        {
          "internalType": "address",
          "name": "uniFactory",
          "type": "address"
        }
      ],
      "stateMutability": "nonpayable",
      "type": "constructor"
    },
    {
      "inputs": [
        {
          "internalType": "int256",
          "name": "amount0Delta",
          "type": "int256"
        },
        {
          "internalType": "int256",
          "name": "amount1Delta",
          "type": "int256"
        },
        {
          "internalType": "bytes",
          "name": "_data",
          "type": "bytes"
        }
      ],
      "name": "uniswapV3SwapCallback",
      "outputs": [],
      "stateMutability": "nonpayable",
      "type": "function"
    }
  ],
  "bytecode": "0x60e0346100df57601f61158938819003918201601f19168301916001600160401b038311848410176100e4578084926020946040528339810103126100df57516001600160a01b03811681036100df576401000276a460805273fffd8963efd1fc6a506488495d951d5263988d2560a0527fff0000000000000000000000000000000000000000000000000000000000000060589190911b600160581b600160f81b03161760c05260405161148e90816100fb823960805181818161093d0152611214015260a051818181610a0f0152611319015260c051816111210152f35b600080fd5b634e487b7160e01b600052604160045260246000fdfe6080604052600436101561001257600080fd5b6000803560e01c63fa461e331461002857600080fd5b346100c65760607ffffffffffffffffffffffffffffffffffffffffffffffffffffffffffffffffc3601126100c65760443567ffffffffffffffff81116100c257366023820112156100c257806004013590826100848361016e565b91610092604051938461012d565b83835236602485830101116100c257836100bf9460246020930183860137830101526024356004356104b5565b80f35b5080fd5b80fd5b7f4e487b7100000000000000000000000000000000000000000000000000000000600052604160045260246000fd5b60a0810190811067ffffffffffffffff82111761011457604052565b6100c9565b67ffffffffffffffff811161011457604052565b90601f7fffffffffffffffffffffffffffffffffffffffffffffffffffffffffffffffe0910116810190811067ffffffffffffffff82111761011457604052565b67ffffffffffffffff811161011457601f017fffffffffffffffffffffffffffffffffffffffffffffffffffffffffffffffe01660200190565b60005b8381106101bb5750506000910152565b81810151838201526020016101ab565b519073ffffffffffffffffffffffffffffffffffffffff821682036101ec57565b600080fd5b519060ff821682036101ec57565b519081151582036101ec57565b9060209081838203126101ec57825167ffffffffffffffff938482116101ec570160a0818303126101ec5760405193610244856100f8565b81519081116101ec5781019282601f850112156101ec578351926102678461016e565b90610275604051928361012d565b8482528285870101116101ec576102976080946102d0968480850191016101a8565b85526102a48183016101cb565b908501526102b4604082016101f1565b60408501526102c5606082016101f1565b6060850152016101ff565b608082015290565b156102df57565b60646040517f08c379a000000000000000000000000000000000000000000000000000000000815260206004820152600e60248201527f496e76616c69642043616c6c65720000000000000000000000000000000000006044820152fd5b7f4e487b7100000000000000000000000000000000000000000000000000000000600052601160045260246000fd5b7f800000000000000000000000000000000000000000000000000000000000000081146103995760000390565b61033d565b907fffffffffffffffffffffffffffffffffffffffffffffffffffffffffffffffe0601f6020936103da815180928187528780880191016101a8565b0116010190565b6020815260a060806103fe845183602086015260c085019061039e565b9373ffffffffffffffffffffffffffffffffffffffff602082015116604085015260ff604082015116606085015260ff606082015116828501520151151591015290565b91908260409103126101ec576020825192015190565b919360a09361049b969573ffffffffffffffffffffffffffffffffffffffff8094168552151560208501526040840152166060820152816080820152019061039e565b90565b6040513d6000823e3d90fd5b60009103126101ec57565b919061052f916104d08151916020808094830101910161020c565b60409161050f6105288484019261050f6104f46104ee865160ff1690565b60ff1690565b946104ff8751610ed8565b9782809692859f959994996110d0565b73ffffffffffffffffffffffffffffffffffffffff1690565b33146102d8565b6063860361056357505050505050505091610559926000821360001461055b5750905b3090611352565b565b905090610552565b6105cf61050f6105b561058360608b9c9e9d969798999a9b015160ff1690565b60ff166000527fd408c83a623a3e514bed18a618f57d4f4b5063c9517109ee96b7036b9fe40fac602052604060002090565b5473ffffffffffffffffffffffffffffffffffffffff1690565b92600497888114600014610aa95750506080880151156107ff575060008a13156107f0576105fc9061036c565b80946107ad575b5073ffffffffffffffffffffffffffffffffffffffff90610642857fca34c12b7ac03787f2248ab5ca282f44a09cb283af20e44277e7dbd576a9280b55565b16940190610664825173ffffffffffffffffffffffffffffffffffffffff1690565b90853b156101ec576000916106cf895195869384937f4232cd6300000000000000000000000000000000000000000000000000000000855289850160409194939294606082019573ffffffffffffffffffffffffffffffffffffffff80921683521660208201520152565b038183885af1918215610795576107009261079a575b505173ffffffffffffffffffffffffffffffffffffffff1690565b93823b156101ec57517f2644131800000000000000000000000000000000000000000000000000000000815273ffffffffffffffffffffffffffffffffffffffff94851691810191825233602083015292909316604084015260608301939093529160009183919082908490829060800103925af18015610795576107825750565b8061078f61055992610119565b806104aa565b61049e565b8061078f6107a792610119565b386106e5565b9092506107c99193506107c08651610efe565b90818752611197565b9173ffffffffffffffffffffffffffffffffffffffff6107e98651611092565b9290610603565b986107fa9061036c565b6105fc565b949199959392979060008713600014610a995761081b9061036c565b915b73ffffffffffffffffffffffffffffffffffffffff809b169289890192610858845173ffffffffffffffffffffffffffffffffffffffff1690565b90853b156101ec576000916108c38e5194859384937f4232cd630000000000000000000000000000000000000000000000000000000085528c850160409194939294606082019573ffffffffffffffffffffffffffffffffffffffff80921683521660208201520152565b038183885af1801561079557610a86575b5015610a34575050506000906109ce61093061092b61092561050f6109188c9d61090d8c9d9e9d6109058151610efe565b809152610dc6565b929193909b600d9052565b808316908b1610996110d0565b96610d8d565b61036c565b95848414610a0a576109997f0000000000000000000000000000000000000000000000000000000000000000995b61096d8a5193849283016103e1565b037fffffffffffffffffffffffffffffffffffffffffffffffffffffffffffffffe0810183528261012d565b8751988997889687957f128acb0800000000000000000000000000000000000000000000000000000000875233908701610458565b03925af18015610795576109e0575050565b816109ff92903d10610a03575b6109f7818361012d565b810190610442565b5050565b503d6109ed565b6109997f00000000000000000000000000000000000000000000000000000000000000009961095e565b92949850945094506107009150610a69877fca34c12b7ac03787f2248ab5ca282f44a09cb283af20e44277e7dbd576a9280b55565b5173ffffffffffffffffffffffffffffffffffffffff1690565b50565b8061078f610a9392610119565b386108d4565b95610aa39061036c565b9161081d565b60088103610ad05750506080880151156107ff575060008a13156107f0576105fc9061036c565b600d819d969b949597989d14600014610c4b575050505060008213600014610c435750965b15610b4c5750509361050f600085966109ce61093061092b610925610b28610b208a9c9b9c51610efe565b808b52610dc6565b73ffffffffffffffffffffffffffffffffffffffff838116908316109992916110d0565b9373ffffffffffffffffffffffffffffffffffffffff610b86929493951692015173ffffffffffffffffffffffffffffffffffffffff1690565b92813b156101ec5793517f2644131800000000000000000000000000000000000000000000000000000000815273ffffffffffffffffffffffffffffffffffffffff938416948101948552336020860152919092166040840152606083018490529291600091849182908490829060800103925af19182156107955761055992610c30575b507fca34c12b7ac03787f2248ab5ca282f44a09cb283af20e44277e7dbd576a9280b55565b8061078f610c3d92610119565b38610c0b565b905096610af5565b600a819d989795949b969d14600014610c9b5750608089015115610c7d57505060008a13156107f0576105fc9061036c565b9398919095929a96945060008713600014610a995761081b9061036c565b9350979850509250600c919798935014610cb9575b50505050505050565b6000821315610d855750915b835151604211610d2b57509061050f60008493610cf261093061092b610925610b28610b208d9b51610efe565b03925af1801561079557610d10575b50505b38808080808080610cb0565b81610d2692903d10610a03576109f7818361012d565b610d01565b9050610d809450610d568294610d5c94015173ffffffffffffffffffffffffffffffffffffffff1690565b90611352565b7fca34c12b7ac03787f2248ab5ca282f44a09cb283af20e44277e7dbd576a9280b55565b610d04565b905091610cc5565b7f80000000000000000000000000000000000000000000000000000000000000008110156101ec5790565b601701908160171161039957565b90610dd082610de6565b91610de3610ddd82610e6a565b91610e57565b91565b6014815110610df9576020015160601c90565b60646040517f08c379a000000000000000000000000000000000000000000000000000000000815260206004820152601560248201527f746f416464726573735f6f75744f66426f756e647300000000000000000000006044820152fd5b602b815110610df9576037015160601c90565b6017815110610e7a576017015190565b60646040517f08c379a000000000000000000000000000000000000000000000000000000000815260206004820152601460248201527f746f55696e7432345f6f75744f66426f756e64730000000000000000000000006044820152fd5b610ee181610de6565b91610eeb82610e6a565b906042610ef784610e57565b9351101590565b80517fffffffffffffffffffffffffffffffffffffffffffffffffffffffffffffffe9918282019082821161039957610f428151610f3b84610db8565b1115610fc4565b81610f5c5750505050604051600081526020810160405290565b601760405194601f8416801560051b9182828901019687010193010101905b808410610fb15750508252601f017fffffffffffffffffffffffffffffffffffffffffffffffffffffffffffffffe01660405290565b9092835181526020809101930190610f7b565b15610fcb57565b60646040517f08c379a000000000000000000000000000000000000000000000000000000000815260206004820152601160248201527f736c6963655f6f75744f66426f756e64730000000000000000000000000000006044820152fd5b611037602b82511015610fc4565b60405190600b8083019101603683015b80831061107f575050602b8252601f017fffffffffffffffffffffffffffffffffffffffffffffffffffffffffffffffe01660405290565b9091825181526020809101920190611047565b8051807fffffffffffffffffffffffffffffffffffffffffffffffffffffffffffffffec8101116103995780825110610df95701600c015160601c90565b91907fe34f199b19b2b4f47f68442619d555527d244f78a3297ea89325f843f87b8b5460559273ffffffffffffffffffffffffffffffffffffffff9485821686821610600014611165575b604051937f00000000000000000000000000000000000000000000000000000000000000008552601585019182526035850192835262ffffff168585015260608120905252201690565b9061111b565b60405190611178826100f8565b6000608083606081528260208201528260408201528260608201520152565b6000915b6112a661050f604283511015936111b061116b565b6111b985611029565b8152611243604092826111cf8580950160639052565b896112096112036111e08451610dc6565b73ffffffffffffffffffffffffffffffffffffffff828116908416109b926110d0565b93610d8d565b87156113145761126f7f0000000000000000000000000000000000000000000000000000000000000000935b8751968791602083016103e1565b037fffffffffffffffffffffffffffffffffffffffffffffffffffffffffffffffe0810187528661012d565b8551988995869485937f128acb080000000000000000000000000000000000000000000000000000000085528b3060048701610458565b03925af1918215610795576112cb93879288946112f1575b5050156112ea575061036c565b91156112e4576112dd6112a691610efe565b905061119b565b50905090565b905061036c565b809192945061130c9350903d10610a03576109f7818361012d565b9138806112be565b61126f7f000000000000000000000000000000000000000000000000000000000000000093611235565b908160209103126101ec5761049b906101ff565b73ffffffffffffffffffffffffffffffffffffffff92909183811630036113f257506040517fa9059cbb0000000000000000000000000000000000000000000000000000000081523360048201526024810191909152916020918391829060009082604481015b0393165af18015610795576113cb5750565b610a839060203d81116113eb575b6113e3818361012d565b81019061133e565b503d6113d9565b6040517f23b872dd00000000000000000000000000000000000000000000000000000000815273ffffffffffffffffffffffffffffffffffffffff90911660048201523360248201526044810191909152916020918391829060009082606481016113b956fea26469706673582212205b4cbae6798fa6b55aa38a7bd1ea7aca4a76a6ffd77de2216d9f51729de1c78864736f6c63430008150033",
  "linkReferences": {},
  "deployedLinkReferences": {}
}