{
  "_format": "hh-sol-artifact-1",
  "contractName": "CometManagementModule",
  "sourceName": "contracts/1delta/modules/comet/ManagementModule.sol",
  "abi": [
    {
      "inputs": [
        {
          "internalType": "address",
          "name": "_comet",
          "type": "address"
        },
        {
          "internalType": "uint8",
          "name": "_id",
          "type": "uint8"
        }
      ],
      "name": "addComet",
      "outputs": [],
      "stateMutability": "nonpayable",
      "type": "function"
    },
    {
      "inputs": [
        {
          "internalType": "address[]",
          "name": "assets",
          "type": "address[]"
        },
        {
          "internalType": "uint8",
          "name": "_cometId",
          "type": "uint8"
        }
      ],
      "name": "approveComet",
      "outputs": [],
      "stateMutability": "nonpayable",
      "type": "function"
    },
    {
      "inputs": [
        {
          "internalType": "address[]",
          "name": "assets",
          "type": "address[]"
        }
      ],
      "name": "approveRouter",
      "outputs": [],
      "stateMutability": "nonpayable",
      "type": "function"
    },
    {
      "inputs": [
        {
          "internalType": "address",
          "name": "_nativeWrapper",
          "type": "address"
        }
      ],
      "name": "setNativeWrapper",
      "outputs": [],
      "stateMutability": "nonpayable",
      "type": "function"
    },
    {
      "inputs": [
        {
          "internalType": "address",
          "name": "_router",
          "type": "address"
        }
      ],
      "name": "setUniswapRouter",
      "outputs": [],
      "stateMutability": "nonpayable",
      "type": "function"
    }
  ],
  "bytecode": "0x608080604052346100165761091a908161001c8239f35b600080fdfe6040608081526004908136101561001557600080fd5b600091823560e01c8381631fb5969e146104e757508063211016b7146103ff5780638a37c719146102f8578063bea9849e1461020d5763ef3194d11461005a57600080fd5b3461020957602090817ffffffffffffffffffffffffffffffffffffffffffffffffffffffffffffffffc36011261020557803567ffffffffffffffff8111610201576100a99036908301610734565b926100ff60ff6100f83373ffffffffffffffffffffffffffffffffffffffff166000527f61d1713be5232408b5b4a4eb9167729a7f6f26a324a820a406ab862b03af3c65602052604060002090565b54166107c8565b73ffffffffffffffffffffffffffffffffffffffff807f12e519ac34a7c0c6f1453240f0fcf1fe145432333432792a37a6fc156d411a705416865b86518110156101fd57878684610150848b610889565b511660448751809481937f095ea7b3000000000000000000000000000000000000000000000000000000008352888c8401527fffffffffffffffffffffffffffffffffffffffffffffffffffffffffffffffff60248401525af180156101f357906101c192916101c6575b5061082d565b61013a565b6101e590883d8a116101ec575b6101dd818361069c565b8101906108cc565b50386101bb565b503d6101d3565b85513d8b823e3d90fd5b8780f35b8480fd5b8380fd5b8280fd5b83346102f55760207ffffffffffffffffffffffffffffffffffffffffffffffffffffffffffffffffc3601126102f55761024561070c565b61029360ff6100f83373ffffffffffffffffffffffffffffffffffffffff166000527f61d1713be5232408b5b4a4eb9167729a7f6f26a324a820a406ab862b03af3c65602052604060002090565b73ffffffffffffffffffffffffffffffffffffffff7f12e519ac34a7c0c6f1453240f0fcf1fe145432333432792a37a6fc156d411a7091167fffffffffffffffffffffffff000000000000000000000000000000000000000082541617905580f35b80fd5b5050346103fb577ffffffffffffffffffffffffffffffffffffffffffffffffffffffffffffffffc3601126102f55761032f61070c565b73ffffffffffffffffffffffffffffffffffffffff6103cf61034f6107b8565b61039d60ff6100f83373ffffffffffffffffffffffffffffffffffffffff166000527f61d1713be5232408b5b4a4eb9167729a7f6f26a324a820a406ab862b03af3c65602052604060002090565b60ff166000527fd408c83a623a3e514bed18a618f57d4f4b5063c9517109ee96b7036b9fe40fac602052604060002090565b91167fffffffffffffffffffffffff000000000000000000000000000000000000000082541617905580f35b5080fd5b83346102f55760207ffffffffffffffffffffffffffffffffffffffffffffffffffffffffffffffffc3601126102f55761043761070c565b61048560ff6100f83373ffffffffffffffffffffffffffffffffffffffff166000527f61d1713be5232408b5b4a4eb9167729a7f6f26a324a820a406ab862b03af3c65602052604060002090565b73ffffffffffffffffffffffffffffffffffffffff7f12e519ac34a7c0c6f1453240f0fcf1fe145432333432792a37a6fc156d411a6f91167fffffffffffffffffffffffff000000000000000000000000000000000000000082541617905580f35b919050346103fb57827ffffffffffffffffffffffffffffffffffffffffffffffffffffffffffffffffc3601126103fb57803567ffffffffffffffff8111610209576105369036908301610734565b926105da6105426107b8565b61059060ff6100f83373ffffffffffffffffffffffffffffffffffffffff166000527f61d1713be5232408b5b4a4eb9167729a7f6f26a324a820a406ab862b03af3c65602052604060002090565b73ffffffffffffffffffffffffffffffffffffffff91829160ff166000527fd408c83a623a3e514bed18a618f57d4f4b5063c9517109ee96b7036b9fe40fac602052604060002090565b541690845b86518110156106985785826105f4838a610889565b51168551907f095ea7b300000000000000000000000000000000000000000000000000000000825285888301527fffffffffffffffffffffffffffffffffffffffffffffffffffffffffffffffff60248301528160448160209586945af1801561068e579061066b939291610670575b505061082d565b6105df565b8161068692903d106101ec576101dd818361069c565b503880610664565b86513d8a823e3d90fd5b8580f35b90601f7fffffffffffffffffffffffffffffffffffffffffffffffffffffffffffffffe0910116810190811067ffffffffffffffff8211176106dd57604052565b7f4e487b7100000000000000000000000000000000000000000000000000000000600052604160045260246000fd5b6004359073ffffffffffffffffffffffffffffffffffffffff8216820361072f57565b600080fd5b81601f8201121561072f5780359160209167ffffffffffffffff84116106dd578360051b90604051946107698584018761069c565b8552838086019282010192831161072f578301905b82821061078c575050505090565b813573ffffffffffffffffffffffffffffffffffffffff8116810361072f57815290830190830161077e565b6024359060ff8216820361072f57565b156107cf57565b60646040517f08c379a000000000000000000000000000000000000000000000000000000000815260206004820152601d60248201527f4f6e6c79206d616e6167656d656e742063616e20696e7465726163742e0000006044820152fd5b7fffffffffffffffffffffffffffffffffffffffffffffffffffffffffffffffff811461085a5760010190565b7f4e487b7100000000000000000000000000000000000000000000000000000000600052601160045260246000fd5b805182101561089d5760209160051b010190565b7f4e487b7100000000000000000000000000000000000000000000000000000000600052603260045260246000fd5b9081602091031261072f5751801515810361072f579056fea2646970667358221220542b3867e14fc19699712b4a7fb7a4b072fb4798bb68c6c3857ebf5475a0a15e64736f6c63430008150033",
  "linkReferences": {},
  "deployedLinkReferences": {}
}