{
  "_format": "hh-sol-artifact-1",
  "contractName": "CometFlashAggregator",
  "sourceName": "contracts/1delta/modules/comet/FlashAggregator.sol",
  "abi": [
    {
      "inputs": [
        {
          "internalType": "address",
          "name": "_factoryV2",
          "type": "address"
        },
        {
          "internalType": "address",
          "name": "_factoryV3",
          "type": "address"
        },
        {
          "internalType": "address",
          "name": "weth",
          "type": "address"
        }
      ],
      "stateMutability": "nonpayable",
      "type": "constructor"
    },
    {
      "inputs": [],
      "name": "NoBalance",
      "type": "error"
    },
    {
      "inputs": [],
      "name": "Slippage",
      "type": "error"
    },
    {
      "inputs": [
        {
          "internalType": "int256",
          "name": "amount0Delta",
          "type": "int256"
        },
        {
          "internalType": "int256",
          "name": "amount1Delta",
          "type": "int256"
        },
        {
          "internalType": "bytes",
          "name": "data",
          "type": "bytes"
        }
      ],
      "name": "algebraSwapCallback",
      "outputs": [],
      "stateMutability": "nonpayable",
      "type": "function"
    },
    {
      "inputs": [
        {
          "internalType": "address",
          "name": "target",
          "type": "address"
        },
        {
          "internalType": "bytes",
          "name": "params",
          "type": "bytes"
        }
      ],
      "name": "callTarget",
      "outputs": [],
      "stateMutability": "payable",
      "type": "function"
    },
    {
      "inputs": [
        {
          "internalType": "uint256",
          "name": "amountOutMinimum",
          "type": "uint256"
        },
        {
          "internalType": "bytes",
          "name": "path",
          "type": "bytes"
        }
      ],
      "name": "flashSwapAllIn",
      "outputs": [
        {
          "internalType": "uint256",
          "name": "amountOut",
          "type": "uint256"
        }
      ],
      "stateMutability": "payable",
      "type": "function"
    },
    {
      "inputs": [
        {
          "internalType": "uint256",
          "name": "amountInMaximum",
          "type": "uint256"
        },
        {
          "internalType": "bytes",
          "name": "path",
          "type": "bytes"
        }
      ],
      "name": "flashSwapAllOut",
      "outputs": [
        {
          "internalType": "uint256",
          "name": "amountIn",
          "type": "uint256"
        }
      ],
      "stateMutability": "payable",
      "type": "function"
    },
    {
      "inputs": [
        {
          "internalType": "uint256",
          "name": "amountIn",
          "type": "uint256"
        },
        {
          "internalType": "uint256",
          "name": "amountOutMinimum",
          "type": "uint256"
        },
        {
          "internalType": "bytes",
          "name": "path",
          "type": "bytes"
        }
      ],
      "name": "flashSwapExactIn",
      "outputs": [
        {
          "internalType": "uint256",
          "name": "amountOut",
          "type": "uint256"
        }
      ],
      "stateMutability": "payable",
      "type": "function"
    },
    {
      "inputs": [
        {
          "internalType": "uint256",
          "name": "amountOut",
          "type": "uint256"
        },
        {
          "internalType": "uint256",
          "name": "amountInMaximum",
          "type": "uint256"
        },
        {
          "internalType": "bytes",
          "name": "path",
          "type": "bytes"
        }
      ],
      "name": "flashSwapExactOut",
      "outputs": [
        {
          "internalType": "uint256",
          "name": "amountIn",
          "type": "uint256"
        }
      ],
      "stateMutability": "payable",
      "type": "function"
    },
    {
      "inputs": [],
      "name": "refundNative",
      "outputs": [],
      "stateMutability": "payable",
      "type": "function"
    },
    {
      "inputs": [
        {
          "internalType": "address",
          "name": "asset",
          "type": "address"
        },
        {
          "internalType": "address",
          "name": "recipient",
          "type": "address"
        },
        {
          "internalType": "uint8",
          "name": "cometId",
          "type": "uint8"
        }
      ],
      "name": "repay",
      "outputs": [],
      "stateMutability": "payable",
      "type": "function"
    },
    {
      "inputs": [
        {
          "internalType": "address",
          "name": "creditToken",
          "type": "address"
        },
        {
          "internalType": "uint256",
          "name": "value",
          "type": "uint256"
        },
        {
          "internalType": "uint256",
          "name": "deadline",
          "type": "uint256"
        },
        {
          "internalType": "uint8",
          "name": "v",
          "type": "uint8"
        },
        {
          "internalType": "bytes32",
          "name": "r",
          "type": "bytes32"
        },
        {
          "internalType": "bytes32",
          "name": "s",
          "type": "bytes32"
        }
      ],
      "name": "selfCreditDelegate",
      "outputs": [],
      "stateMutability": "payable",
      "type": "function"
    },
    {
      "inputs": [
        {
          "internalType": "address",
          "name": "token",
          "type": "address"
        },
        {
          "internalType": "uint256",
          "name": "value",
          "type": "uint256"
        },
        {
          "internalType": "uint256",
          "name": "deadline",
          "type": "uint256"
        },
        {
          "internalType": "uint8",
          "name": "v",
          "type": "uint8"
        },
        {
          "internalType": "bytes32",
          "name": "r",
          "type": "bytes32"
        },
        {
          "internalType": "bytes32",
          "name": "s",
          "type": "bytes32"
        }
      ],
      "name": "selfPermit",
      "outputs": [],
      "stateMutability": "payable",
      "type": "function"
    },
    {
      "inputs": [
        {
          "internalType": "address",
          "name": "token",
          "type": "address"
        },
        {
          "internalType": "uint256",
          "name": "nonce",
          "type": "uint256"
        },
        {
          "internalType": "uint256",
          "name": "expiry",
          "type": "uint256"
        },
        {
          "internalType": "uint8",
          "name": "v",
          "type": "uint8"
        },
        {
          "internalType": "bytes32",
          "name": "r",
          "type": "bytes32"
        },
        {
          "internalType": "bytes32",
          "name": "s",
          "type": "bytes32"
        }
      ],
      "name": "selfPermitAllowed",
      "outputs": [],
      "stateMutability": "payable",
      "type": "function"
    },
    {
      "inputs": [
        {
          "internalType": "address",
          "name": "asset",
          "type": "address"
        },
        {
          "internalType": "address",
          "name": "recipient",
          "type": "address"
        },
        {
          "internalType": "uint8",
          "name": "cometId",
          "type": "uint8"
        }
      ],
      "name": "supplyTo",
      "outputs": [],
      "stateMutability": "payable",
      "type": "function"
    },
    {
      "inputs": [
        {
          "internalType": "uint256",
          "name": "minimumAmountOut",
          "type": "uint256"
        },
        {
          "internalType": "bytes",
          "name": "path",
          "type": "bytes"
        }
      ],
      "name": "swapAllInSpot",
      "outputs": [],
      "stateMutability": "payable",
      "type": "function"
    },
    {
      "inputs": [
        {
          "internalType": "uint256",
          "name": "maximumAmountIn",
          "type": "uint256"
        },
        {
          "internalType": "uint8",
          "name": "cometId",
          "type": "uint8"
        },
        {
          "internalType": "bytes",
          "name": "path",
          "type": "bytes"
        }
      ],
      "name": "swapAllOutSpot",
      "outputs": [],
      "stateMutability": "payable",
      "type": "function"
    },
    {
      "inputs": [
        {
          "internalType": "uint256",
          "name": "maximumAmountIn",
          "type": "uint256"
        },
        {
          "internalType": "uint8",
          "name": "cometId",
          "type": "uint8"
        },
        {
          "internalType": "bytes",
          "name": "path",
          "type": "bytes"
        }
      ],
      "name": "swapAllOutSpotSelf",
      "outputs": [],
      "stateMutability": "payable",
      "type": "function"
    },
    {
      "inputs": [
        {
          "internalType": "uint256",
          "name": "amountIn",
          "type": "uint256"
        },
        {
          "internalType": "uint256",
          "name": "minimumAmountOut",
          "type": "uint256"
        },
        {
          "internalType": "bytes",
          "name": "path",
          "type": "bytes"
        }
      ],
      "name": "swapExactInSpot",
      "outputs": [],
      "stateMutability": "payable",
      "type": "function"
    },
    {
      "inputs": [
        {
          "internalType": "uint256",
          "name": "amountOut",
          "type": "uint256"
        },
        {
          "internalType": "uint256",
          "name": "maximumAmountIn",
          "type": "uint256"
        },
        {
          "internalType": "bytes",
          "name": "path",
          "type": "bytes"
        }
      ],
      "name": "swapExactOutSpot",
      "outputs": [],
      "stateMutability": "payable",
      "type": "function"
    },
    {
      "inputs": [
        {
          "internalType": "uint256",
          "name": "amountOut",
          "type": "uint256"
        },
        {
          "internalType": "uint256",
          "name": "maximumAmountIn",
          "type": "uint256"
        },
        {
          "internalType": "bytes",
          "name": "path",
          "type": "bytes"
        }
      ],
      "name": "swapExactOutSpotSelf",
      "outputs": [],
      "stateMutability": "payable",
      "type": "function"
    },
    {
      "inputs": [
        {
          "internalType": "address",
          "name": "asset",
          "type": "address"
        }
      ],
      "name": "sweep",
      "outputs": [],
      "stateMutability": "payable",
      "type": "function"
    },
    {
      "inputs": [
        {
          "internalType": "address",
          "name": "asset",
          "type": "address"
        },
        {
          "internalType": "address",
          "name": "recipient",
          "type": "address"
        }
      ],
      "name": "sweepTo",
      "outputs": [],
      "stateMutability": "payable",
      "type": "function"
    },
    {
      "inputs": [
        {
          "internalType": "address",
          "name": "asset",
          "type": "address"
        }
      ],
      "name": "transferERC20AllIn",
      "outputs": [],
      "stateMutability": "payable",
      "type": "function"
    },
    {
      "inputs": [
        {
          "internalType": "address",
          "name": "asset",
          "type": "address"
        },
        {
          "internalType": "uint256",
          "name": "amount",
          "type": "uint256"
        }
      ],
      "name": "transferERC20In",
      "outputs": [],
      "stateMutability": "payable",
      "type": "function"
    },
    {
      "inputs": [
        {
          "internalType": "address",
          "name": "",
          "type": "address"
        },
        {
          "internalType": "uint256",
          "name": "amount0",
          "type": "uint256"
        },
        {
          "internalType": "uint256",
          "name": "amount1",
          "type": "uint256"
        },
        {
          "internalType": "bytes",
          "name": "data",
          "type": "bytes"
        }
      ],
      "name": "uniswapV2Call",
      "outputs": [],
      "stateMutability": "nonpayable",
      "type": "function"
    },
    {
      "inputs": [
        {
          "internalType": "int256",
          "name": "amount0Delta",
          "type": "int256"
        },
        {
          "internalType": "int256",
          "name": "amount1Delta",
          "type": "int256"
        },
        {
          "internalType": "bytes",
          "name": "_data",
          "type": "bytes"
        }
      ],
      "name": "uniswapV3SwapCallback",
      "outputs": [],
      "stateMutability": "nonpayable",
      "type": "function"
    },
    {
      "inputs": [],
      "name": "unwrap",
      "outputs": [],
      "stateMutability": "payable",
      "type": "function"
    },
    {
      "inputs": [
        {
          "internalType": "uint256",
          "name": "amountMin",
          "type": "uint256"
        }
      ],
      "name": "validateAndUnwrap",
      "outputs": [],
      "stateMutability": "payable",
      "type": "function"
    },
    {
      "inputs": [
        {
          "internalType": "address",
          "name": "asset",
          "type": "address"
        },
        {
          "internalType": "uint256",
          "name": "amount",
          "type": "uint256"
        },
        {
          "internalType": "uint8",
          "name": "cometId",
          "type": "uint8"
        }
      ],
      "name": "withdrawFrom",
      "outputs": [],
      "stateMutability": "payable",
      "type": "function"
    },
    {
      "inputs": [],
      "name": "wrap",
      "outputs": [],
      "stateMutability": "payable",
      "type": "function"
    }
  ],
  "bytecode": "0x610120346200014757601f62003be538819003918201601f19168301916001600160401b038311848410176200014c5780849260609460405283398101031262000147576200004e8162000162565b906200006b6040620000636020840162000162565b920162000162565b916401000276a460805273fffd8963efd1fc6a506488495d951d5263988d2560a0526b010000000000000000000000600160f81b03908160ff60f81b9360581b16831760c05260581b161760e052610100908152604051613a6d918262000178833960805182818161088501528181610c700152818161255a01528181612991015261389f015260a051828181610a0e01528181610dbf0152818161263601528181612a1801526138fb015260c051826126d5015260e0518281816127430152612b2e015251818181611156015281816119f10152611fe60152f35b600080fd5b634e487b7160e01b600052604160045260246000fd5b51906001600160a01b0382168203620001475756fe6080604052600436101561001257600080fd5b60003560e01c806301681a62146101d25780630bfa0b88146101cd5780630bffb7bb146101c857806310d1e85c146101c3578063113a3a60146101be5780632c8958f6146101555780632d4c2e9b146101b95780633d4582d6146101b45780634614c692146101af5780634659a494146101aa578063469d9fd7146101a55780634777a81e146101a05780634a13c36d1461019b578063646352fd146101965780636f5ed4e814610191578063a2f696521461018c578063aea7314d14610187578063b002fba914610182578063c4a7edaa1461017d578063d1f0d7ce14610178578063d46eb11914610173578063d8c463041461016e578063dbf51cc514610169578063df9ee9be14610164578063e0d8a9121461015f578063f3995c671461015a578063fa461e33146101555763fd02ffb71461015057600080fd5b611f78565b6106ea565b611ede565b611cbf565b611c29565b611af3565b611a58565b6119af565b611915565b6118d3565b6117ab565b6116df565b611596565b61140d565b6113c8565b6112cb565b611249565b6110e9565b61103e565b610f18565b610b58565b610752565b6106cf565b610668565b61043d565b610356565b6101ff565b6004359073ffffffffffffffffffffffffffffffffffffffff821682036101fa57565b600080fd5b60207ffffffffffffffffffffffffffffffffffffffffffffffffffffffffffffffffc3601126101fa576102316101d7565b6040517f70a0823100000000000000000000000000000000000000000000000000000000815230600482015260208160248173ffffffffffffffffffffffffffffffffffffffff86165afa9081156102ce576000916102a0575b508061029357005b61029e91339061225b565b005b6102c1915060203d81116102c7575b6102b98183612116565b810190612163565b3861028b565b503d6102af565b612157565b9181601f840112156101fa5782359167ffffffffffffffff83116101fa57602083818601950101116101fa57565b60607ffffffffffffffffffffffffffffffffffffffffffffffffffffffffffffffffc8201126101fa5760043591602435916044359067ffffffffffffffff82116101fa57610352916004016102d3565b9091565b61036a61036236610301565b91939261293a565b7fca34c12b7ac03787f2248ab5ca282f44a09cb283af20e44277e7dbd576a9280b908154116103b8577fffffffffffffffffffffffffffffffffffffffffffffffffffffffffffffffff9055005b60046040517f7dd37f70000000000000000000000000000000000000000000000000000000008152fd5b60607ffffffffffffffffffffffffffffffffffffffffffffffffffffffffffffffffc8201126101fa576004359160243560ff811681036101fa57916044359067ffffffffffffffff82116101fa57610352916004016102d3565b6104f16104d76104f161050a610452366103e2565b7f091da6246b1b3b31883dc17ec393fc6167542d4146b2299108cddc8643fb879a80547fffffffffffffffffffffffff000000000000000000000000000000000000000016331790559296909592949290915b60ff166000527fd408c83a623a3e514bed18a618f57d4f4b5063c9517109ee96b7036b9fe40fac602052604060002090565b5473ffffffffffffffffffffffffffffffffffffffff1690565b73ffffffffffffffffffffffffffffffffffffffff1690565b6040517f374c49b40000000000000000000000000000000000000000000000000000000081523360048201529290602090849060249082905afa9283156102ce57600093610648575b50821561061e576105639261293a565b7fca34c12b7ac03787f2248ab5ca282f44a09cb283af20e44277e7dbd576a9280b54116103b8576105d27fffffffffffffffffffffffffffffffffffffffffffffffffffffffffffffffff7fca34c12b7ac03787f2248ab5ca282f44a09cb283af20e44277e7dbd576a9280b55565b61029e7f091da6246b1b3b31883dc17ec393fc6167542d4146b2299108cddc8643fb879a7fffffffffffffffffffffffff00000000000000000000000000000000000000008154169055565b60046040517fc2caa2a6000000000000000000000000000000000000000000000000000000008152fd5b61066191935060203d81116102c7576102b98183612116565b9138610553565b346101fa5760807ffffffffffffffffffffffffffffffffffffffffffffffffffffffffffffffffc3601126101fa5761069f6101d7565b5060643567ffffffffffffffff81116101fa576106c361029e9136906004016102d3565b906044356024356133ba565b6106e36106db36610301565b919392612508565b106103b857005b346101fa5761029e6106fb36610301565b92919091612c7a565b9060407ffffffffffffffffffffffffffffffffffffffffffffffffffffffffffffffffc8301126101fa57600435916024359067ffffffffffffffff82116101fa57610352916004016102d3565b61075b36610704565b7f091da6246b1b3b31883dc17ec393fc6167542d4146b2299108cddc8643fb879a80547fffffffffffffffffffffffff0000000000000000000000000000000000000000163317905590918235928360601c92604093601983013560601c818110906107f06104f16104f16104d76104a56107ea6107e48b8b806107de81612ba0565b926123f4565b90612bcb565b60f81c90565b87517f374c49b40000000000000000000000000000000000000000000000000000000081523360048201529390602090859060249082905afa9384156102ce57600094610b38575b508315610b0f578860ff899a8a98999a1c1660328110600014610a3357506104f16000936108789362ffffff6108729460481c1691612685565b936124d6565b91808214610a09576108dc7f0000000000000000000000000000000000000000000000000000000000000000955b8751988997889687957f128acb080000000000000000000000000000000000000000000000000000000087523060048801612461565b03925af180156102ce576109dd575b505b7fca34c12b7ac03787f2248ab5ca282f44a09cb283af20e44277e7dbd576a9280b5480916109597fffffffffffffffffffffffffffffffffffffffffffffffffffffffffffffffff7fca34c12b7ac03787f2248ab5ca282f44a09cb283af20e44277e7dbd576a9280b55565b6109a57f091da6246b1b3b31883dc17ec393fc6167542d4146b2299108cddc8643fb879a7fffffffffffffffffffffffff00000000000000000000000000000000000000008154169055565b106109b4579051908152602090f35b600482517f7dd37f70000000000000000000000000000000000000000000000000000000008152fd5b6109fc90833d8511610a02575b6109f48183612116565b81019061240c565b506108eb565b503d6109ea565b6108dc7f0000000000000000000000000000000000000000000000000000000000000000956108a6565b90506064919293965096949610610a50575b5050505050506108ed565b610a5991612b0e565b9215610af25773ffffffffffffffffffffffffffffffffffffffff600091935b1690813b156101fa5760008094610ac08951978896879586947f022c0d9f000000000000000000000000000000000000000000000000000000008652309160048701612901565b03925af180156102ce57610ad9575b8080808080610a45565b80610ae6610aec926120fd565b806113bd565b38610acf565b73ffffffffffffffffffffffffffffffffffffffff600093610a79565b600488517fc2caa2a6000000000000000000000000000000000000000000000000000000008152fd5b610b5191945060203d81116102c7576102b98183612116565b9238610838565b610b6136610704565b7f091da6246b1b3b31883dc17ec393fc6167542d4146b2299108cddc8643fb879a80547fffffffffffffffffffffffff0000000000000000000000000000000000000000163317905590918235928360601c92604093601983013560601c80821091610be46104f16104f16104d76104a56107ea6107e48b8b806107de81612ba0565b87517f70a082310000000000000000000000000000000000000000000000000000000081523360048201529290602090849060249082905afa9283156102ce57600093610ef8575b508215610b0f578860ff899a8a98999a1c1660328110600014610de45750600092610c639262ffffff6104f19360481c1691612685565b92808214610dba57610cc67f0000000000000000000000000000000000000000000000000000000000000000958751988997889687957f128acb080000000000000000000000000000000000000000000000000000000087523060048801612461565b03925af180156102ce57610d9e575b505b7fca34c12b7ac03787f2248ab5ca282f44a09cb283af20e44277e7dbd576a9280b548091610d437fffffffffffffffffffffffffffffffffffffffffffffffffffffffffffffffff7fca34c12b7ac03787f2248ab5ca282f44a09cb283af20e44277e7dbd576a9280b55565b610d8f7f091da6246b1b3b31883dc17ec393fc6167542d4146b2299108cddc8643fb879a7fffffffffffffffffffffffff00000000000000000000000000000000000000008154169055565b116109b4579051908152602090f35b610db490833d8511610a02576109f48183612116565b50610cd5565b610cc67f0000000000000000000000000000000000000000000000000000000000000000956108a6565b90506064919293965096949610610e01575b505050505050610cd7565b610e3291610e2d867fca34c12b7ac03787f2248ab5ca282f44a09cb283af20e44277e7dbd576a9280b55565b612b0e565b928115610ed057610e439184613351565b73ffffffffffffffffffffffffffffffffffffffff600091935b1690813b156101fa5760008094610ea48951978896879586947f022c0d9f000000000000000000000000000000000000000000000000000000008652309160048701612901565b03925af180156102ce57610ebd575b8080808080610df6565b80610ae6610eca926120fd565b38610eb3565b610edb9150836132ee565b73ffffffffffffffffffffffffffffffffffffffff600093610e5d565b610f1191935060203d81116102c7576102b98183612116565b9138610c2c565b60207ffffffffffffffffffffffffffffffffffffffffffffffffffffffffffffffffc3601126101fa57610f4a6101d7565b604051907f70a0823100000000000000000000000000000000000000000000000000000000825233600483015260208260248173ffffffffffffffffffffffffffffffffffffffff85165afa9081156102ce5761029e92600092610fb3575b50309033906121d7565b610fcc91925060203d81116102c7576102b98183612116565b9038610fa9565b7ffffffffffffffffffffffffffffffffffffffffffffffffffffffffffffffffc60c09101126101fa5760043573ffffffffffffffffffffffffffffffffffffffff811681036101fa5790602435906044359060643560ff811681036101fa57906084359060a43590565b73ffffffffffffffffffffffffffffffffffffffff61105c36610fd3565b9293919590941693843b156101fa5760009461010493869260ff604051998a9889977f8fcbaf0c0000000000000000000000000000000000000000000000000000000089523360048a01523060248a015260448901526064880152600160848801521660a486015260c485015260e48401525af180156102ce576110dc57005b80610ae661029e926120fd565b60207ffffffffffffffffffffffffffffffffffffffffffffffffffffffffffffffffc3601126101fa576040517f70a0823100000000000000000000000000000000000000000000000000000000815230600482015273ffffffffffffffffffffffffffffffffffffffff7f00000000000000000000000000000000000000000000000000000000000000001690602081602481855afa9081156102ce5760009161122b575b5061119e600435821015612172565b813b156101fa57600060405180937f2e1a7d4d0000000000000000000000000000000000000000000000000000000082528183816111e487600483019190602083019252565b03925af19182156102ce576000808093819386611218575b5081811561120f575b3390f1156102ce57005b506108fc611205565b80610ae6611225926120fd565b856111fc565b611243915060203d81116102c7576102b98183612116565b3861118f565b61125236610704565b6040517f70a0823100000000000000000000000000000000000000000000000000000000815230600482015291602083602481843560601c5afa9283156102ce576000936112ab575b50821561061e576106e392612508565b6112c491935060203d81116102c7576102b98183612116565b913861129b565b6113286112d736610301565b7f091da6246b1b3b31883dc17ec393fc6167542d4146b2299108cddc8643fb879a80547fffffffffffffffffffffffff0000000000000000000000000000000000000000163317905591939261293a565b7fca34c12b7ac03787f2248ab5ca282f44a09cb283af20e44277e7dbd576a9280b908154116103b8577fffffffffffffffffffffffffffffffffffffffffffffffffffffffffffffffff90557f091da6246b1b3b31883dc17ec393fc6167542d4146b2299108cddc8643fb879a80547fffffffffffffffffffffffff0000000000000000000000000000000000000000169055005b60009103126101fa57565b6000807ffffffffffffffffffffffffffffffffffffffffffffffffffffffffffffffffc36011261140a578047806113fd5750f35b8180809233615208f15080f35b80fd5b600060607ffffffffffffffffffffffffffffffffffffffffffffffffffffffffffffffffc36011261140a57806114426101d7565b60443560ff811681036115285761149a73ffffffffffffffffffffffffffffffffffffffff9160ff166000527fd408c83a623a3e514bed18a618f57d4f4b5063c9517109ee96b7036b9fe40fac602052604060002090565b541690813b15611528576040517f264413180000000000000000000000000000000000000000000000000000000081523360048201523060248083019190915273ffffffffffffffffffffffffffffffffffffffff90921660448201529035606482015291908290818381608481015b03925af180156102ce5761151c575080f35b611525906120fd565b80f35b5050fd5b7ffffffffffffffffffffffffffffffffffffffffffffffffffffffffffffffffc60609101126101fa5773ffffffffffffffffffffffffffffffffffffffff9060043582811681036101fa579160243590811681036101fa579060443560ff811681036101fa5790565b61159f3661152c565b6040517f70a082310000000000000000000000000000000000000000000000000000000081523060048201529060208260248173ffffffffffffffffffffffffffffffffffffffff88165afa9182156102ce576000926116af575b506104f16104f16104d761163a9360ff166000527fd408c83a623a3e514bed18a618f57d4f4b5063c9517109ee96b7036b9fe40fac602052604060002090565b803b156101fa576040517f4232cd6300000000000000000000000000000000000000000000000000000000815273ffffffffffffffffffffffffffffffffffffffff938416600482015293909216602484015260448301526000908290818381606481015b03925af180156102ce576110dc57005b61163a9192506104f16104d76116d56104f19360203d81116102c7576102b98183612116565b94935050506115fa565b60407ffffffffffffffffffffffffffffffffffffffffffffffffffffffffffffffffc3601126101fa576117116101d7565b73ffffffffffffffffffffffffffffffffffffffff60243581811681036101fa576020602492604051938480927f70a0823100000000000000000000000000000000000000000000000000000000825230600483015287165afa9182156102ce5760009261178b575b508161178257005b61029e9261225b565b6117a491925060203d81116102c7576102b98183612116565b903861177a565b60407ffffffffffffffffffffffffffffffffffffffffffffffffffffffffffffffffc3601126101fa576117dd6101d7565b60243567ffffffffffffffff81116101fa576117fd9036906004016102d3565b6000929173ffffffffffffffffffffffffffffffffffffffff831684527f9fc772e484014aadda1a3916bdcbf34dd65a99500e92cb6faae6cb2496083ccc60205260ff6040852054161561187557611525928492838093611863604051809481936122ce565b03925af161186f612316565b50612346565b60646040517f08c379a000000000000000000000000000000000000000000000000000000000815260206004820152600860248201527f54617267657428290000000000000000000000000000000000000000000000006044820152fd5b60407ffffffffffffffffffffffffffffffffffffffffffffffffffffffffffffffffc3601126101fa5761029e6119086101d7565b60243590309033906121d7565b73ffffffffffffffffffffffffffffffffffffffff61193336610fd3565b929394959091951690813b156101fa576040517f0b52d5580000000000000000000000000000000000000000000000000000000081523360048201523060248201526044810195909552606485019390935260ff909416608484015260a483019190915260c48201526000918290829081838160e4810161150a565b6000807ffffffffffffffffffffffffffffffffffffffffffffffffffffffffffffffffc36011261140a5773ffffffffffffffffffffffffffffffffffffffff7f00000000000000000000000000000000000000000000000000000000000000001681813b1561140a57600491604051928380927fd0e30db000000000000000000000000000000000000000000000000000000000825234905af180156102ce5761151c575080f35b611a6136610301565b7f091da6246b1b3b31883dc17ec393fc6167542d4146b2299108cddc8643fb879a80547fffffffffffffffffffffffff00000000000000000000000000000000000000001633179055928135938460601c916040958693601986013560601c908082109260ff81881c1660328110600014610a3357506104f16000936108789362ffffff6108729460481c1691612685565b6104f16104d76104f1611b41611b08366103e2565b9492969195909560ff166000527fd408c83a623a3e514bed18a618f57d4f4b5063c9517109ee96b7036b9fe40fac602052604060002090565b6040517f374c49b40000000000000000000000000000000000000000000000000000000081523360048201529290602090849060249082905afa9283156102ce57600093611c09575b50821561061e57611b9a9261293a565b7fca34c12b7ac03787f2248ab5ca282f44a09cb283af20e44277e7dbd576a9280b54116103b85761029e7fffffffffffffffffffffffffffffffffffffffffffffffffffffffffffffffff7fca34c12b7ac03787f2248ab5ca282f44a09cb283af20e44277e7dbd576a9280b55565b611c2291935060203d81116102c7576102b98183612116565b9138611b8a565b611c3236610301565b7f091da6246b1b3b31883dc17ec393fc6167542d4146b2299108cddc8643fb879a80547fffffffffffffffffffffffff000000000000000000000000000000000000000016331790558135908160601c916040958693601986013560601c8082109360ff81881c1660328110600014610de45750600092610c639262ffffff6104f19360481c1691612685565b611cc83661152c565b6040517f70a0823100000000000000000000000000000000000000000000000000000000815230600482015290602090818360248173ffffffffffffffffffffffffffffffffffffffff89165afa9283156102ce57600093611eaf575b506104f16104f16104d7611d659360ff166000527fd408c83a623a3e514bed18a618f57d4f4b5063c9517109ee96b7036b9fe40fac602052604060002090565b6040517f374c49b40000000000000000000000000000000000000000000000000000000081523360048201529091908181602481865afa9182156102ce57600092611e92575b5050828110611e275750803b156101fa576040517f4232cd6300000000000000000000000000000000000000000000000000000000815273ffffffffffffffffffffffffffffffffffffffff938416600482015293909216602484015260448301526000908290606490829084905af180156102ce576110dc57005b9150803b156101fa576040517f4232cd6300000000000000000000000000000000000000000000000000000000815273ffffffffffffffffffffffffffffffffffffffff9384166004820152939092166024840152604483015260009082908183816064810161169f565b611ea89250803d106102c7576102b98183612116565b3880611dab565b611d659193506104f16104d7611ed46104f193863d88116102c7576102b98183612116565b9593505050611d25565b73ffffffffffffffffffffffffffffffffffffffff611efc36610fd3565b929394959091951690813b156101fa576040517fd505accf0000000000000000000000000000000000000000000000000000000081523360048201523060248201526044810195909552606485019390935260ff909416608484015260a483019190915260c48201526000918290829081838160e4810161150a565b6000807ffffffffffffffffffffffffffffffffffffffffffffffffffffffffffffffffc36011261140a576040517f70a0823100000000000000000000000000000000000000000000000000000000815230600482015273ffffffffffffffffffffffffffffffffffffffff7f00000000000000000000000000000000000000000000000000000000000000001690602081602481855afa9081156102ce5783916120b0575b50813b156120ac578260405180937f2e1a7d4d00000000000000000000000000000000000000000000000000000000825281838161206487600483019190602083019252565b03925af19182156102ce578380808094819487612099575b50818115612090575b3390f1156102ce5780f35b506108fc612085565b80610ae66120a6926120fd565b8661207c565b8280fd5b6120c8915060203d81116102c7576102b98183612116565b3861201e565b7f4e487b7100000000000000000000000000000000000000000000000000000000600052604160045260246000fd5b67ffffffffffffffff811161211157604052565b6120ce565b90601f7fffffffffffffffffffffffffffffffffffffffffffffffffffffffffffffffe0910116810190811067ffffffffffffffff82111761211157604052565b6040513d6000823e3d90fd5b908160209103126101fa575190565b1561217957565b60646040517f08c379a000000000000000000000000000000000000000000000000000000000815260206004820152601260248201527f496e73756666696369656e7420537765657000000000000000000000000000006044820152fd5b9290606490600060209460405196879586947f23b872dd00000000000000000000000000000000000000000000000000000000865273ffffffffffffffffffffffffffffffffffffffff938480921660048801521660248601526044850152165af1903d9160018251146020841015168315171615612254575050565b816000823efd5b604460209293600060405195869485937fa9059cbb00000000000000000000000000000000000000000000000000000000855273ffffffffffffffffffffffffffffffffffffffff80931660048601526024850152165af1903d9160018251146020841015168315171615612254575050565b908092918237016000815290565b67ffffffffffffffff811161211157601f017fffffffffffffffffffffffffffffffffffffffffffffffffffffffffffffffe01660200190565b3d15612341573d90612327826122dc565b916123356040519384612116565b82523d6000602084013e565b606090565b1561234d57565b60646040517f08c379a000000000000000000000000000000000000000000000000000000000815260206004820152600c60248201527f43616c6c4661696c6564282900000000000000000000000000000000000000006044820152fd5b90602d116101fa5790602d90565b90929192836019116101fa5783116101fa57601901917fffffffffffffffffffffffffffffffffffffffffffffffffffffffffffffffe70190565b909392938483116101fa5784116101fa578101920390565b91908260409103126101fa576020825192015190565b601f82602094937fffffffffffffffffffffffffffffffffffffffffffffffffffffffffffffffe0938186528686013760008582860101520116010190565b919360a0936124a4979573ffffffffffffffffffffffffffffffffffffffff80941685521515602085015260408401521660608201528160808201520191612422565b90565b7f4e487b7100000000000000000000000000000000000000000000000000000000600052601160045260246000fd5b7f800000000000000000000000000000000000000000000000000000000000000081146125035760000390565b6124a7565b919290926000925b843590604090606083811c906019890135901c84841c60ff16603281101561265a5750916125526104f1838562ffffff88978d9a9997109860481c1691612685565b8415612634577f00000000000000000000000000000000000000000000000000000000000000005b612584888c6123ab565b9790936125c18651998a96879586947f128acb080000000000000000000000000000000000000000000000000000000086528c3060048801612461565b03925af19182156102ce576125e69387928894612611575b50501561260a57506124d6565b935b602e8211156126035790806125fc926123b9565b9093612510565b5090915050565b90506124d6565b809192945061262c9350903d10610a02576109f48183612116565b9138806125d9565b7f000000000000000000000000000000000000000000000000000000000000000061257a565b9093506064919298945010612671575b50506125e8565b9061267d92969161271f565b93388061266a565b917fe34f199b19b2b4f47f68442619d555527d244f78a3297ea89325f843f87b8b5460559273ffffffffffffffffffffffffffffffffffffffff9485821686821610600014612719575b604051937f00000000000000000000000000000000000000000000000000000000000000008552601585019182526035850192835262ffffff168585015260608120905252201690565b906126cf565b8181109392909184156128f357610b145281610b00525b6028610b0c2090610b00917f00000000000000000000000000000000000000000000000000000000000000008352610b15527f1a39f3b48bfeecc839ed1f8018cb533055200a40a7e19ef735744ed10ec18cb2610b3552605582209073ffffffffffffffffffffffffffffffffffffffff9360208560448582169560405194859384927fa9059cbb0000000000000000000000000000000000000000000000000000000084521660048301528660248301526000998a91165af1903d91600182511460208410151683151716156128ed5750507f0902f1ac000000000000000000000000000000000000000000000000000000008352610c00604081600486865afa156128e45760403d106128e057928480949360a49382958a156000146128d657610c205190515b6103e86103e592028284020192020204987f022c0d9f0000000000000000000000000000000000000000000000000000000084526000146128c75781610b045288610b24525b30610b44526080610b645281610b84525af1156128bf5750565b3d81803e3d90fd5b88610b045281610b24526128a5565b51610c205161285f565b8480fd5b843d81803e3d90fd5b8186823efd5b82610b1452610b0052612736565b906124a4959360809373ffffffffffffffffffffffffffffffffffffffff92845260208401521660408201528160608201520191612422565b91908035918260601c93604093601984013560601c60ff82871c1660328110600014612a3d57506129846108726104f1838a62ffffff8b9c6000979c9b9c109760481c1691612685565b91808214612a13576129e77f0000000000000000000000000000000000000000000000000000000000000000958751988997889687957f128acb080000000000000000000000000000000000000000000000000000000087523060048801612461565b03925af180156102ce576129f9575050565b81612a0f92903d10610a02576109f48183612116565b5050565b6129e77f0000000000000000000000000000000000000000000000000000000000000000956108a6565b606491969497925010612a53575b505050505050565b612a5d8186612b0e565b941015612af15773ffffffffffffffffffffffffffffffffffffffff600091945b1691823b156101fa57600094612ac5869251978896879586947f022c0d9f000000000000000000000000000000000000000000000000000000008652309160048701612901565b03925af180156102ce57612ade575b8080808080612a4b565b80610ae6612aeb926120fd565b38612ad4565b73ffffffffffffffffffffffffffffffffffffffff600094612a7e565b9080821015612b9257610b1452610b00525b60556028610b0c20610b00907f00000000000000000000000000000000000000000000000000000000000000008252610b15527f1a39f3b48bfeecc839ed1f8018cb533055200a40a7e19ef735744ed10ec18cb2610b35522073ffffffffffffffffffffffffffffffffffffffff1690565b90610b1452610b0052612b20565b8015612503577fffffffffffffffffffffffffffffffffffffffffffffffffffffffffffffffff0190565b7fff000000000000000000000000000000000000000000000000000000000000009035818116939260018110612c0057505050565b60010360031b82901b16169150565b156101fa57565b907fffffffffffffffffffffffffffffffffffffffffffffffffffffffffffffffff820191821161250357565b929192612c4f826122dc565b91612c5d6040519384612116565b8294818452818301116101fa578281602093846000960137010152565b9082358060601c9360ff601982013560601c92612cb0612ca96104f16104f162ffffff8560481c16888c612685565b3314612c0f565b60381c1680612cde5750612cd4955050506000821315612cd65750905b339061225b565b565b905090612ccd565b91949093929160018103612eec5750506000821315612ee45750915b602e841115612d18575082612cd493612d12926123b9565b9161384b565b926107ea6107e482612d3d9481612d31612d3796612c16565b916123f4565b60ff1690565b6008811015612e79576104f16104f16104d760ff612d88941660ff166000527fd408c83a623a3e514bed18a618f57d4f4b5063c9517109ee96b7036b9fe40fac602052604060002090565b9173ffffffffffffffffffffffffffffffffffffffff7f091da6246b1b3b31883dc17ec393fc6167542d4146b2299108cddc8643fb879a5416833b156101fa576040517f2644131800000000000000000000000000000000000000000000000000000000815273ffffffffffffffffffffffffffffffffffffffff91821660048201523360248201529116604482015260648101829052916000908390818381608481015b03925af19182156102ce57612cd492612e66575b507fca34c12b7ac03787f2248ab5ca282f44a09cb283af20e44277e7dbd576a9280b55565b80610ae6612e73926120fd565b38612e41565b50612ec081612cd49373ffffffffffffffffffffffffffffffffffffffff7f091da6246b1b3b31883dc17ec393fc6167542d4146b2299108cddc8643fb879a541690613a02565b7fca34c12b7ac03787f2248ab5ca282f44a09cb283af20e44277e7dbd576a9280b55565b905091612cfa565b919590949293909160051015613124576107ea94956000851360001461311457612f15906124d6565b905b81928092602e82116130b7575b506104d76104a5612f43856104f1956104f195612d31612fac99612c16565b612f6e889b929b7fca34c12b7ac03787f2248ab5ca282f44a09cb283af20e44277e7dbd576a9280b55565b73ffffffffffffffffffffffffffffffffffffffff7f091da6246b1b3b31883dc17ec393fc6167542d4146b2299108cddc8643fb879a54169a612bcb565b91823b156101fa576040517f4232cd6300000000000000000000000000000000000000000000000000000000815273ffffffffffffffffffffffffffffffffffffffff8681166004830152919091166024820152604481019190915260008160648183865af180156102ce576130a4575b50803b156101fa576040517f2644131800000000000000000000000000000000000000000000000000000000815273ffffffffffffffffffffffffffffffffffffffff938416600482015233602482015293909216604484015260648301526000908290608490829084905af180156102ce576130975750565b80610ae6612cd4926120fd565b80610ae66130b1926120fd565b3861301d565b9350612f439450612fac92506104d76104a56130da836104f1946104f1966123b9565b979096876131066130f96130f08c8c8196612508565b9a8c3691612c43565b805101600b015160601c90565b999750955093505050612f24565b9361311e906124d6565b90612f17565b92935093600084136000146132df5761313c906124d6565b73ffffffffffffffffffffffffffffffffffffffff7f091da6246b1b3b31883dc17ec393fc6167542d4146b2299108cddc8643fb879a54169061319b6104f16104f16104d76104a56107ea6107e48c61319481612c16565b818d6123f4565b90813b156101fa576040517f4232cd6300000000000000000000000000000000000000000000000000000000815273ffffffffffffffffffffffffffffffffffffffff848116600483015285166024820152604481019190915260008160648183865af180156102ce576132cc575b50602e8611156132255750505082612cd493612d12926123b9565b919450929150613253827fca34c12b7ac03787f2248ab5ca282f44a09cb283af20e44277e7dbd576a9280b55565b803b156101fa576040517f2644131800000000000000000000000000000000000000000000000000000000815273ffffffffffffffffffffffffffffffffffffffff938416600482015233602482015293909216604484015260648301526000908290608490829084905af180156102ce576130975750565b80610ae66132d9926120fd565b3861320a565b926132e9906124d6565b61313c565b6040610b00917f0902f1ac0000000000000000000000000000000000000000000000000000000083526004610c009384925afa156133475760403d106101fa57610c205190516103e86103e59202828402019202020490565b3d6000803e3d6000fd5b906040610b00927f0902f1ac0000000000000000000000000000000000000000000000000000000084526004610c009485925afa156133475760403d106101fa576133b057610c205190515b6103e86103e59202828402019202020490565b51610c205161339d565b9290918035928360601c94601983013560601c92838710916133dc8589612b0e565b60ff73ffffffffffffffffffffffffffffffffffffffff986134018a84163314612c0f565b60381c1660018114613673576005101561356b575085921561354157507fca34c12b7ac03787f2248ab5ca282f44a09cb283af20e44277e7dbd576a9280b54945b83602e82116134ed575b506104d761346e6107ea6107e4866104f1966104f196612d31612fac9a612c16565b97613497867fca34c12b7ac03787f2248ab5ca282f44a09cb283af20e44277e7dbd576a9280b55565b7f091da6246b1b3b31883dc17ec393fc6167542d4146b2299108cddc8643fb879a54169760ff166000527fd408c83a623a3e514bed18a618f57d4f4b5063c9517109ee96b7036b9fe40fac602052604060002090565b93506107e49450612fac92506104d761346e6107ea613513846104f1956104f1976123b9565b989097886135326130f96135298d8d8196612508565b9b8d3691612c43565b9a98509650945050505061344c565b92507fca34c12b7ac03787f2248ab5ca282f44a09cb283af20e44277e7dbd576a9280b5494613442565b92969390919597508660001461366b5750915b7f091da6246b1b3b31883dc17ec393fc6167542d4146b2299108cddc8643fb879a5416916135c36104f16104f16104d76104a56107ea6107e48d8c81612d3181612c16565b95863b156101fa576040517f4232cd6300000000000000000000000000000000000000000000000000000000815273ffffffffffffffffffffffffffffffffffffffff8581166004830152861660248201526044810183905292600084606481838c5af19384156102ce5761363d94613658575b506137dc565b93602e8611156132255750505082612cd493612d12926123b9565b80610ae6613665926120fd565b38613637565b90509161357e565b50929195975061369293600097959750826000146137d85750916137dc565b92602e8511156136ac57505082612cd493612d12926123b9565b916107ea6107e486612d379381612d316136c6979a612c16565b60088110156137a5576104f16104f16104d760ff613711941660ff166000527fd408c83a623a3e514bed18a618f57d4f4b5063c9517109ee96b7036b9fe40fac602052604060002090565b927f091da6246b1b3b31883dc17ec393fc6167542d4146b2299108cddc8643fb879a5416833b156101fa576040517f2644131800000000000000000000000000000000000000000000000000000000815273ffffffffffffffffffffffffffffffffffffffff9182166004820152336024820152911660448201526064810182905291600090839081838160848101612e2d565b5081612ec091612cd4947f091da6246b1b3b31883dc17ec393fc6167542d4146b2299108cddc8643fb879a541690613a02565b9050915b9060406004928151938480927f0902f1ac0000000000000000000000000000000000000000000000000000000082525afa156133475760403d106101fa576001926103e89161383b576103e581602085519501515b0302920202040190565b6103e58160208501519451613831565b6040929082356019840135606090811c9082901c82871c60ff16603281101561392057506138926108726104f1848462ffffff6000968d9b9a9998109760481c1691612685565b918082146138f6576129e77f0000000000000000000000000000000000000000000000000000000000000000955b8751988997889687957f128acb080000000000000000000000000000000000000000000000000000000087523360048801612461565b6129e77f0000000000000000000000000000000000000000000000000000000000000000956138c0565b606491959792949693501061393757505050505050565b836139428185612b0e565b9310156139e457600073ffffffffffffffffffffffffffffffffffffffff86945b1691823b156101fa576000946139aa869251998a96879586947f022c0d9f000000000000000000000000000000000000000000000000000000008652309160048701612901565b03925af19283156102ce576139c6936139d1575b50339061225b565b388080808080612a4b565b80610ae66139de926120fd565b386139be565b8473ffffffffffffffffffffffffffffffffffffffff600094613963565b90919073ffffffffffffffffffffffffffffffffffffffff8316613a2c57612cd49250339061225b565b612cd49233916121d756fea2646970667358221220c7c3ba817f8f10398dd961b671d3839919b0e6169e4a32ebb55f124d06dbbb4464736f6c63430008150033",
  "linkReferences": {},
  "deployedLinkReferences": {}
}