{
  "_format": "hh-sol-artifact-1",
  "contractName": "ConfigModule",
  "sourceName": "contracts/1delta/proxy/modules/ConfigModule.sol",
  "abi": [
    {
      "anonymous": false,
      "inputs": [
        {
          "components": [
            {
              "internalType": "address",
              "name": "moduleAddress",
              "type": "address"
            },
            {
              "internalType": "enum IModuleConfig.ModuleConfigAction",
              "name": "action",
              "type": "uint8"
            },
            {
              "internalType": "bytes4[]",
              "name": "functionSelectors",
              "type": "bytes4[]"
            }
          ],
          "indexed": false,
          "internalType": "struct IModuleConfig.ModuleConfig[]",
          "name": "_moduleChange",
          "type": "tuple[]"
        }
      ],
      "name": "Upgrade",
      "type": "event"
    },
    {
      "inputs": [
        {
          "components": [
            {
              "internalType": "address",
              "name": "moduleAddress",
              "type": "address"
            },
            {
              "internalType": "enum IModuleConfig.ModuleConfigAction",
              "name": "action",
              "type": "uint8"
            },
            {
              "internalType": "bytes4[]",
              "name": "functionSelectors",
              "type": "bytes4[]"
            }
          ],
          "internalType": "struct IModuleConfig.ModuleConfig[]",
          "name": "_moduleConfig",
          "type": "tuple[]"
        }
      ],
      "name": "configureModules",
      "outputs": [],
      "stateMutability": "nonpayable",
      "type": "function"
    }
  ],
  "bytecode": "0x60808060405234610016576115dc908161001c8239f35b600080fdfe608060408181526004908136101561001657600080fd5b6000803560e01c6369fc9a801461002c57600080fd5b346109f057602092837ffffffffffffffffffffffffffffffffffffffffffffffffffffffffffffffffc3601126109ec57803567ffffffffffffffff948582116109e857366023830112156109e85781830135948686116109e45760249260059784888a1b830101903682116109e05773ffffffffffffffffffffffffffffffffffffffff9a8b7f76a4e0db4b1954ed8d81a6d47b0f62dd8c71c2f4e57cbbe90dd863575a2bc407541633036109615750846100f26100ed8b9d959d610a86565b610a42565b809a81520190819b878101925b84841061083657505050505085975b87518910156106e857836101228a8a610afa565b51015160038110156106bd578061030157508161013f8a8a610afa565b515116978361014e8b83610afa565b5101519161015e83511515610b3d565b6101698a1515610bc8565b6bffffffffffffffffffffffff6101bf8b73ffffffffffffffffffffffffffffffffffffffff166000527f76a4e0db4b1954ed8d81a6d47b0f62dd8c71c2f4e57cbbe90dd863575a2bc403602052604060002090565b54169182156102f3575b89925b84518410156102d6577fffffffff000000000000000000000000000000000000000000000000000000006102008587610afa565b5116808c527f76a4e0db4b1954ed8d81a6d47b0f62dd8c71c2f4e57cbbe90dd863575a2bc401895286888d20541661025557816102448e61024f9461024994610f1e565b610c53565b93610a9e565b926101cc565b60848b60378c8c8c51937f08c379a00000000000000000000000000000000000000000000000000000000085528401528201527f4c69624d6f64756c65436f6e6669673a2043616e2774206164642066756e637460448201527f696f6e207468617420616c7265616479206578697374730000000000000000006064820152fd5b5099509990506102ea91509991995b610a9e565b9798909861010e565b6102fc8b610cc5565b6101c9565b9199909890916001908082036104f05750808b61031e848c610afa565b5151168561032c858d610afa565b51015161033b81511515610b3d565b610346821515610bc8565b6bffffffffffffffffffffffff61039c8373ffffffffffffffffffffffffffffffffffffffff166000527f76a4e0db4b1954ed8d81a6d47b0f62dd8c71c2f4e57cbbe90dd863575a2bc403602052604060002090565b541680156104e2575b8b8f8195939495935b6103c3575b505050505050506102ea90610a9e565b84518410156104dd57897fffffffff000000000000000000000000000000000000000000000000000000006103f88688610afa565b5116928381527f76a4e0db4b1954ed8d81a6d47b0f62dd8c71c2f4e57cbbe90dd863575a2bc4018d5220541685811461045c5782610244878998979695856104466104519761044b976110d1565b610f1e565b91610a9e565b9192938f8d916103ae565b60848d603a8e8e8e51937f08c379a00000000000000000000000000000000000000000000000000000000085528401528201527f4c69624d6f64756c65436f6e6669673a2043616e2774207265706c616365206660448201527f756e6374696f6e20776974682073616d652066756e6374696f6e0000000000006064820152fd5b6103b3565b6104eb83610cc5565b6103a5565b60020361063c578a610502838b610afa565b51511684610510848c610afa565b5101519061052082511515610b3d565b6105bb5788825b610538575b5050506102ea90610a9e565b868d878c85518510156105b2579284926102e5926105ac957f76a4e0db4b1954ed8d81a6d47b0f62dd8c71c2f4e57cbbe90dd863575a2bc4017fffffffff0000000000000000000000000000000000000000000000000000000061059d8c9a8c610afa565b511694858352522054166110d1565b90610527565b5050505061052c565b608488603989898951937f08c379a00000000000000000000000000000000000000000000000000000000085528401528201527f4c69624d6f64756c65436f6e6669673a2052656d6f7665206d6f64756c65206160448201527f646472657373206d7573742062652061646472657373283029000000000000006064820152fd5b608487602d88888851937f08c379a00000000000000000000000000000000000000000000000000000000085528401528201527f4c69624d6f64756c65436f6e6669673a20496e636f7272656374204d6f64756c60448201527f65436f6e666967416374696f6e000000000000000000000000000000000000006064820152fd5b85886021897f4e487b7100000000000000000000000000000000000000000000000000000000835252fd5b9286958a948993969480519784890195858a52518096528186818b01941b8a010197968a945b87861061073f578b7f5baa3478e7f762f071cc4e10c54ae2573362a38e93c8ba3f39d9acf6e49ca5288c8c038da180f35b9091929394959697987fffffffffffffffffffffffffffffffffffffffffffffffffffffffffffffffc08b82030186528951606091828101918681511682528a810151600381101561080a578f92808a8e97969488948560809501520151958b820152855180945201930191905b8082106107cf5750505090806001929b0196019601949796959392919061070e565b919380600192947fffffffff00000000000000000000000000000000000000000000000000000000875116815201940192018a9392916107ad565b50858f6021877f4e487b7100000000000000000000000000000000000000000000000000000000835252fd5b839d959d3583811161095d57820160607fffffffffffffffffffffffffffffffffffffffffffffffffffffffffffffffdc823603011261095d578e9061087a6109f3565b918b8201359081168103610955578252604490818101356003811015610959578b8401526064810135908682116109595701903660438301121561095557908f828c938e8401356108cd6100ed82610a86565b958682815201931b8401019236841161095057908d95939694929101905b8682106109095750508394508a8201528152019301929c949c6100ff565b9080929496939550357fffffffff000000000000000000000000000000000000000000000000000000008116810361095057818e92918392520191018c94929593916108eb565b508f80fd5b8d80fd5b8e80fd5b8b80fd5b80602788888b7f08c379a000000000000000000000000000000000000000000000000000000000608496528401528201527f4c69624d6f64756c65436f6e6669673a204d75737420626520636f6e7472616360448201527f74206f776e6572000000000000000000000000000000000000000000000000006064820152fd5b8780fd5b8480fd5b8380fd5b5080fd5b80fd5b604051906060820182811067ffffffffffffffff821117610a1357604052565b7f4e487b7100000000000000000000000000000000000000000000000000000000600052604160045260246000fd5b907fffffffffffffffffffffffffffffffffffffffffffffffffffffffffffffffe0601f604051930116820182811067ffffffffffffffff821117610a1357604052565b67ffffffffffffffff8111610a135760051b60200190565b7fffffffffffffffffffffffffffffffffffffffffffffffffffffffffffffffff8114610acb5760010190565b7f4e487b7100000000000000000000000000000000000000000000000000000000600052601160045260246000fd5b8051821015610b0e5760209160051b010190565b7f4e487b7100000000000000000000000000000000000000000000000000000000600052603260045260246000fd5b15610b4457565b60846040517f08c379a000000000000000000000000000000000000000000000000000000000815260206004820152602e60248201527f4c69624d6f64756c65436f6e6669673a204e6f2073656c6563746f727320696e60448201527f206d6f64756c6520746f206375740000000000000000000000000000000000006064820152fd5b15610bcf57565b60846040517f08c379a000000000000000000000000000000000000000000000000000000000815260206004820152602f60248201527f4c69624d6f64756c65436f6e6669673a20416464206d6f64756c652063616e2760448201527f74206265206164647265737328302900000000000000000000000000000000006064820152fd5b6bffffffffffffffffffffffff809116908114610acb5760010190565b7f76a4e0db4b1954ed8d81a6d47b0f62dd8c71c2f4e57cbbe90dd863575a2bc4048054821015610b0e576000527fbbb6f07362f6a44981d7b2874ae38217851184d0d63296de7352333f850ed73a0190600090565b610ccd6109f3565b602781526020907f4c69624d6f64756c65436f6e6669673a204e6577206d6f64756c652068617320828201527f6e6f20636f6465000000000000000000000000000000000000000000000000006040820152823b15610e6957507f76a4e0db4b1954ed8d81a6d47b0f62dd8c71c2f4e57cbbe90dd863575a2bc4049182549073ffffffffffffffffffffffffffffffffffffffff8116916000948386527f76a4e0db4b1954ed8d81a6d47b0f62dd8c71c2f4e57cbbe90dd863575a2bc403855281600160408820015568010000000000000000821015610e3c576040959492610de183610e0d9360017f76a4e0db4b1954ed8d81a6d47b0f62dd8c71c2f4e57cbbe90dd863575a2bc4069896019055610c70565b90919073ffffffffffffffffffffffffffffffffffffffff8084549260031b9316831b921b1916179055565b8352522060017fffffffffffffffffffffffffffffffffffffffffffffffffffffffffffffff00825416179055565b6024867f4e487b710000000000000000000000000000000000000000000000000000000081526041600452fd5b60405180927f08c379a000000000000000000000000000000000000000000000000000000000825280600483015282519283602484015260005b848110610ee4575050507fffffffffffffffffffffffffffffffffffffffffffffffffffffffffffffffe0601f836000604480968601015201168101030190fd5b818101830151868201604401528593508201610ea3565b9190918054831015610b0e57600052601c60206000208360031c019260021b1690565b907fffffffff00000000000000000000000000000000000000000000000000000000821673ffffffffffffffffffffffffffffffffffffffff600094828652610fcf7f76a4e0db4b1954ed8d81a6d47b0f62dd8c71c2f4e57cbbe90dd863575a2bc4019485602052604088209073ffffffffffffffffffffffffffffffffffffffff7fffffffffffffffffffffffff000000000000000000000000000000000000000083549260a01b169116179055565b16928385527f76a4e0db4b1954ed8d81a6d47b0f62dd8c71c2f4e57cbbe90dd863575a2bc40360205260408520805490680100000000000000008210156110a457816110249160016110419594018155610efb565b90919063ffffffff83549160031b9260e01c831b921b1916179055565b83526020526040808320927fffffffffffffffffffffffff00000000000000000000000000000000000000009383858254161790557f76a4e0db4b1954ed8d81a6d47b0f62dd8c71c2f4e57cbbe90dd863575a2bc4026020522091825416179055565b6024877f4e487b710000000000000000000000000000000000000000000000000000000081526041600452fd5b91909173ffffffffffffffffffffffffffffffffffffffff8091169081156115225730821461149e577fffffffff00000000000000000000000000000000000000000000000000000000809416906000918083527f76a4e0db4b1954ed8d81a6d47b0f62dd8c71c2f4e57cbbe90dd863575a2bc401936020928584526040958686205460a01c908387527f76a4e0db4b1954ed8d81a6d47b0f62dd8c71c2f4e57cbbe90dd863575a2bc4039485875288882054927fffffffffffffffffffffffffffffffffffffffffffffffffffffffffffffffff9b8c850194851161147157908a91898b898b898087036113e1575b5050905250505086885250888820805480156113b4578c01906111e48282610efb565b63ffffffff82549160031b1b19169055558752855285878120557f76a4e0db4b1954ed8d81a6d47b0f62dd8c71c2f4e57cbbe90dd863575a2bc40285528686207fffffffffffffffffffffffff000000000000000000000000000000000000000081541690551561125a575b5050505050509050565b7f76a4e0db4b1954ed8d81a6d47b0f62dd8c71c2f4e57cbbe90dd863575a2bc404805489810190811161138757838752848652826001898920015491808303611355575b5050508054988915611328577f76a4e0db4b1954ed8d81a6d47b0f62dd8c71c2f4e57cbbe90dd863575a2bc4069697989901916112da83610c70565b909182549160031b1b191690555584528152826001858220015552207fffffffffffffffffffffffffffffffffffffffffffffffffffffffffffffff00815416905580388080808080611250565b6024877f4e487b710000000000000000000000000000000000000000000000000000000081526031600452fd5b61135e90610c70565b90549060031b1c1661137381610de184610c70565b87528486526001888820015538828161129e565b6024877f4e487b710000000000000000000000000000000000000000000000000000000081526011600452fd5b60248a7f4e487b710000000000000000000000000000000000000000000000000000000081526031600452fd5b6114649784611024936114008a94876114169952828a52848420610efb565b90549060031b1c60e01b97889683525220610efb565b168a528389528a8a209073ffffffffffffffffffffffffffffffffffffffff7fffffffffffffffffffffffff000000000000000000000000000000000000000083549260a01b169116179055565b883880898b898b896111c1565b60248a7f4e487b710000000000000000000000000000000000000000000000000000000081526011600452fd5b60846040517f08c379a000000000000000000000000000000000000000000000000000000000815260206004820152603060248201527f4c69624d6f64756c65436f6e6669673a2043616e27742072656d6f766520696d60448201527f6d757461626c652066756e6374696f6e000000000000000000000000000000006064820152fd5b60846040517f08c379a000000000000000000000000000000000000000000000000000000000815260206004820152603960248201527f4c69624d6f64756c65436f6e6669673a2043616e27742072656d6f766520667560448201527f6e6374696f6e207468617420646f65736e2774206578697374000000000000006064820152fdfea264697066735822122009da31270bf359e47ec01da7fd7e3cb2f8067a9d018b4cd94dc8cc4c7340ed5e64736f6c63430008150033",
  "linkReferences": {},
  "deployedLinkReferences": {}
}