{
  "_format": "hh-sol-artifact-1",
  "contractName": "DeltaBrokerProxyLegacy",
  "sourceName": "contracts/1delta/proxy/DeltaBrokerLegacy.sol",
  "abi": [
    {
      "inputs": [
        {
          "internalType": "address",
          "name": "_contractOwner",
          "type": "address"
        },
        {
          "internalType": "address",
          "name": "_moduleConfigModule",
          "type": "address"
        }
      ],
      "stateMutability": "payable",
      "type": "constructor"
    },
    {
      "anonymous": false,
      "inputs": [
        {
          "indexed": true,
          "internalType": "address",
          "name": "previousOwner",
          "type": "address"
        },
        {
          "indexed": true,
          "internalType": "address",
          "name": "newOwner",
          "type": "address"
        }
      ],
      "name": "OwnershipTransferred",
      "type": "event"
    },
    {
      "anonymous": false,
      "inputs": [
        {
          "components": [
            {
              "internalType": "address",
              "name": "moduleAddress",
              "type": "address"
            },
            {
              "internalType": "enum IModuleConfig.ModuleConfigAction",
              "name": "action",
              "type": "uint8"
            },
            {
              "internalType": "bytes4[]",
              "name": "functionSelectors",
              "type": "bytes4[]"
            }
          ],
          "indexed": false,
          "internalType": "struct IModuleConfig.ModuleConfig[]",
          "name": "_moduleChange",
          "type": "tuple[]"
        }
      ],
      "name": "Upgrade",
      "type": "event"
    },
    {
      "stateMutability": "payable",
      "type": "fallback"
    },
    {
      "inputs": [
        {
          "internalType": "address[]",
          "name": "modules",
          "type": "address[]"
        },
        {
          "internalType": "bytes[]",
          "name": "data",
          "type": "bytes[]"
        }
      ],
      "name": "multicallMultiModule",
      "outputs": [],
      "stateMutability": "payable",
      "type": "function"
    },
    {
      "inputs": [
        {
          "internalType": "address",
          "name": "module",
          "type": "address"
        },
        {
          "internalType": "bytes[]",
          "name": "data",
          "type": "bytes[]"
        }
      ],
      "name": "multicallSingleModule",
      "outputs": [],
      "stateMutability": "payable",
      "type": "function"
    },
    {
      "stateMutability": "payable",
      "type": "receive"
    }
  ],
  "bytecode": "0x620017506080601f38839003908101601f19168201906001600160401b0382118383101762000767578083916040958694855283398101031262000762576200004881620007bd565b620000576020809301620007bd565b7f76a4e0db4b1954ed8d81a6d47b0f62dd8c71c2f4e57cbbe90dd863575a2bc40780546001600160a01b039384166001600160a01b03198216811790925560009392919083167f8be0079c531659141344cd1fd0a4f28419497f9722a3daafe3b4186f6b6457e08580a3620000cb6200079d565b92600191828552815b868110620007325750620000e76200079d565b83815286368183013762d3f93560e71b6200010282620007d2565b52846200010e6200077d565b921682528287830152878201526200012685620007d2565b526200013284620007d2565b5080825b62000244575b5085519480860191818752855180935287870182898560051b8a0101970195825b8584106200019a578a7f5baa3478e7f762f071cc4e10c54ae2573362a38e93c8ba3f39d9acf6e49ca5288b8b038ca151610777908162000f398239f35b9091929394959697603f198a8203018452885190606080820192858151168352888101516003811015620002305760808f92948b94848f9787958685015201519482015283518097520191019385905b8082106200020b575050819293509a0194019401929695949391906200015d565b85516001600160e01b0319168352948301948c948b94939093019290910190620001ea565b634e487b7160e01b86526021600452602486fd5b84959192939551811015620007275781620002608287620007f6565b51015160038110156200071357806200040b57508386620002828388620007f6565b51511688620002928489620007f6565b510151620002a38151151562000831565b620002b082151562000895565b6001600160a01b0382166000908152600080516020620016d083398151915260205260409020546001600160601b03168015620003fa575b9280949387915b62000310575b5050505062000305905b6200080b565b909291959362000136565b90919293948351831015620003f257506001600160e01b0319620003358385620007f6565b5116808852600080516020620016b083398151915287528a8c892054166200038857620003778262000371878c989796956200037e9562000ad2565b620008fa565b916200080b565b90849594620002ef565b8b5162461bcd60e51b815260048101889052603760248201527f4c69624d6f64756c65436f6e6669673a2043616e2774206164642066756e637460448201527f696f6e207468617420616c7265616479206578697374730000000000000000006064820152608490fd5b9493620002f5565b62000405836200093c565b620002e8565b8085036200059857508386620004228388620007f6565b51511688620004328489620007f6565b510151620004438151151562000831565b6200045082151562000895565b6001600160a01b0382166000908152600080516020620016d083398151915260205260409020546001600160601b0316801562000587575b9280949387915b620004a3575050505062000305906200080b565b90919293948351831015620003f257506001600160e01b0319620004c88385620007f6565b5116808852600080516020620016b083398151915287528a8c892054168581146200051d578262000371878c98979695856200050d6200051397620003779762000bdd565b62000ad2565b908495946200048f565b8c5162461bcd60e51b815260048101899052603a60248201527f4c69624d6f64756c65436f6e6669673a2043616e2774207265706c616365206660448201527f756e6374696f6e20776974682073616d652066756e6374696f6e0000000000006064820152608490fd5b62000592836200093c565b62000488565b600203620006b95785620005ad8287620007f6565b51511687620005bd8388620007f6565b51015190620005cf8251151562000831565b6200064f5784919084835b620005ed575b505062000305906200080b565b819293915181101562000645576200063b90620002ff6001600160e01b0319620006188387620007f6565b5116808952600080516020620016b083398151915288528b8d8a20541662000bdd565b81939291620005da565b81939250620005e0565b875162461bcd60e51b815260048101849052603960248201527f4c69624d6f64756c65436f6e6669673a2052656d6f7665206d6f64756c65206160448201527f646472657373206d7573742062652061646472657373283029000000000000006064820152608490fd5b865162461bcd60e51b815260048101839052602d60248201527f4c69624d6f64756c65436f6e6669673a20496e636f7272656374204d6f64756c60448201526c32a1b7b73334b3a0b1ba34b7b760991b6064820152608490fd5b634e487b7160e01b84526021600452602484fd5b94929190946200013c565b958092939496620007426200077d565b858152858382015260608a820152828289010152019593929195620000d4565b600080fd5b634e487b7160e01b600052604160045260246000fd5b60405190606082016001600160401b038111838210176200076757604052565b60408051919082016001600160401b038111838210176200076757604052565b51906001600160a01b03821682036200076257565b805115620007e05760200190565b634e487b7160e01b600052603260045260246000fd5b8051821015620007e05760209160051b010190565b60001981146200081b5760010190565b634e487b7160e01b600052601160045260246000fd5b156200083957565b60405162461bcd60e51b815260206004820152602e60248201527f4c69624d6f64756c65436f6e6669673a204e6f2073656c6563746f727320696e60448201526d081b5bd91d5b19481d1bc818dd5d60921b6064820152608490fd5b156200089d57565b60405162461bcd60e51b815260206004820152602f60248201527f4c69624d6f64756c65436f6e6669673a20416464206d6f64756c652063616e2760448201526e74206265206164647265737328302960881b6064820152608490fd5b6001600160601b039081169081146200081b5760010190565b600080516020620017308339815191528054821015620007e05760005260206000200190600090565b620009466200077d565b602781526020907f4c69624d6f64756c65436f6e6669673a204e6577206d6f64756c65206861732082820152666e6f20636f646560c81b6040820152823b1562000a4f57506000805160206200173083398151915280546001600160a01b0384166000818152600080516020620016d08339815191528552604081206001018390559490929091906801000000000000000082101562000a3b57604095949262000a0c8362000a2a93600160008051602062001710833981519152989601905562000913565b90919060018060a01b038084549260031b9316831b921b1916179055565b83525220805460ff19166001179055565b634e487b7160e01b86526041600452602486fd5b604051809262461bcd60e51b82528060048301528251908160248401526000935b82851062000a94575050604492506000838284010152601f80199101168101030190fd5b848101820151868601604401529381019385935062000a70565b9190918054831015620007e057600052601c60206000208360031c019260021b1690565b6001600160e01b031981166000818152600080516020620016b083398151915260208190526040822080546001600160a01b031660a09690961b6001600160a01b03191695909517909455939192916001600160a01b0316808552600080516020620016d0833981519152602052604085208054919491906801000000000000000082101562000bc9578162000b7391600162000b90959401815562000aae565b90919063ffffffff83549160031b9260e01c831b921b1916179055565b835260205260408083209260018060a01b0319938385825416179055600080516020620016f08339815191526020522091825416179055565b634e487b7160e01b87526041600452602487fd5b9091906001600160a01b0390811690811562000ecd5730821462000e6f5763ffffffff60e01b80941690600091808352600080516020620016b0833981519152936020928584526040958686205460a01c90838752600080516020620016d08339815191529485875288882054926000199b8c850194851162000e5b57908a91898b898b8980870362000de6575b50509052505050868852508888208054801562000dd2578c019062000c91828262000aae565b63ffffffff82549160031b1b1916905555875285528587812055600080516020620016f0833981519152855286862060018060a01b031981541690551562000cde575b5050505050509050565b60008051602062001730833981519152805489810190811162000dbe5783875284865282600189892001549180830362000d86575b505050805498891562000d72576000805160206200171083398151915296979899019162000d418362000913565b909182549160031b1b1916905555845281528260018582200155522060ff1981541690558038808080808062000cd4565b634e487b7160e01b87526031600452602487fd5b62000d919062000913565b90549060031b1c1662000da98162000a0c8462000913565b87528486526001888820015538828162000d13565b634e487b7160e01b87526011600452602487fd5b634e487b7160e01b8a52603160045260248afd5b62000e4d978462000b739362000e0a8a948762000e219952828a5284842062000aae565b90549060031b1c60e01b9788968352522062000aae565b168a528389528a8a2080546001600160a01b031660a09290921b6001600160a01b031916919091179055565b883880898b898b8962000c6b565b634e487b7160e01b8a52601160045260248afd5b60405162461bcd60e51b815260206004820152603060248201527f4c69624d6f64756c65436f6e6669673a2043616e27742072656d6f766520696d60448201526f36baba30b1363290333ab731ba34b7b760811b6064820152608490fd5b60405162461bcd60e51b815260206004820152603960248201527f4c69624d6f64756c65436f6e6669673a2043616e27742072656d6f766520667560448201527f6e6374696f6e207468617420646f65736e2774206578697374000000000000006064820152608490fdfe6040608081526004908136101561001a575b50503661065957005b600090813560e01c9283636b62c048146100475750505063941d89e814610042573880610011565b610222565b817ffffffffffffffffffffffffffffffffffffffffffffffffffffffffffffffffc3601126101ca5767ffffffffffffffff9080358281116101c65761009090369083016101ce565b60249391939182359081116101c2576100ac90369085016101ce565b9091875b8281036100bb578880f35b88806100d06100cb84868c6103c5565b6103da565b61012b61012661011f8373ffffffffffffffffffffffffffffffffffffffff166000527f76a4e0db4b1954ed8d81a6d47b0f62dd8c71c2f4e57cbbe90dd863575a2bc406602052604060002090565b5460ff1690565b6103e7565b61013684878961044c565b906101458d51809381936104ac565b03915af461015161056c565b901561016657506101619061033a565b6100b0565b8681878c60448d9551106101bf5750818161018c92856101bb95015183010191016105ba565b92519283927f08c379a0000000000000000000000000000000000000000000000000000000008452830161060f565b0390fd5b80fd5b8680fd5b8480fd5b8280fd5b9181601f840112156101ff5782359167ffffffffffffffff83116101ff576020808501948460051b0101116101ff57565b600080fd5b73ffffffffffffffffffffffffffffffffffffffff8116036101ff57565b6040807ffffffffffffffffffffffffffffffffffffffffffffffffffffffffffffffffc3601126101ff57600480359061025b82610204565b6024803567ffffffffffffffff81116101ff5761027b90369084016101ce565b906102cb61012661011f8773ffffffffffffffffffffffffffffffffffffffff166000527f76a4e0db4b1954ed8d81a6d47b0f62dd8c71c2f4e57cbbe90dd863575a2bc406602052604060002090565b60005b8281036102d757005b6000806102e583868661044c565b906102f48b51809381936104ac565b0390895af461030161056c565b901561031657506103119061033a565b6102ce565b85818660448b9451106101ff57818161018c92856101bb95015183010191016105ba565b7fffffffffffffffffffffffffffffffffffffffffffffffffffffffffffffffff81146103675760010190565b7f4e487b7100000000000000000000000000000000000000000000000000000000600052601160045260246000fd5b7f4e487b7100000000000000000000000000000000000000000000000000000000600052603260045260246000fd5b91908110156103d55760051b0190565b610396565b356103e481610204565b90565b156103ee57565b60646040517f08c379a000000000000000000000000000000000000000000000000000000000815260206004820152601660248201527f42726f6b65723a20496e76616c6964206d6f64756c65000000000000000000006044820152fd5b91908110156103d55760051b810135907fffffffffffffffffffffffffffffffffffffffffffffffffffffffffffffffe1813603018212156101ff57019081359167ffffffffffffffff83116101ff5760200182360381136101ff579190565b908092918237016000815290565b7f4e487b7100000000000000000000000000000000000000000000000000000000600052604160045260246000fd5b907fffffffffffffffffffffffffffffffffffffffffffffffffffffffffffffffe0601f604051930116820182811067ffffffffffffffff82111761052d57604052565b6104ba565b67ffffffffffffffff811161052d57601f017fffffffffffffffffffffffffffffffffffffffffffffffffffffffffffffffe01660200190565b3d15610592573d9061058561058083610532565b6104e9565b9182523d6000602084013e565b606090565b60005b8381106105aa5750506000910152565b818101518382015260200161059a565b6020818303126101ff5780519067ffffffffffffffff82116101ff570181601f820112156101ff5780516105f061058082610532565b92818452602082840101116101ff576103e49160208085019101610597565b7fffffffffffffffffffffffffffffffffffffffffffffffffffffffffffffffe0601f604093602084526106528151809281602088015260208888019101610597565b0116010190565b60007fffffffff0000000000000000000000000000000000000000000000000000000081351681527f76a4e0db4b1954ed8d81a6d47b0f62dd8c71c2f4e57cbbe90dd863575a2bc40260205273ffffffffffffffffffffffffffffffffffffffff60408220541680156106e357818091368280378136915af43d82803e156106df573d90f35b3d90fd5b60646040517f08c379a000000000000000000000000000000000000000000000000000000000815260206004820152601f60248201527f42726f6b65723a2046756e6374696f6e20646f6573206e6f74206578697374006044820152fdfea2646970667358221220318917e2942f03351f3a3b7c99e9ad8c6a36711fd94d92ae026fada746eab63164736f6c6343000815003376a4e0db4b1954ed8d81a6d47b0f62dd8c71c2f4e57cbbe90dd863575a2bc40176a4e0db4b1954ed8d81a6d47b0f62dd8c71c2f4e57cbbe90dd863575a2bc40376a4e0db4b1954ed8d81a6d47b0f62dd8c71c2f4e57cbbe90dd863575a2bc40276a4e0db4b1954ed8d81a6d47b0f62dd8c71c2f4e57cbbe90dd863575a2bc40676a4e0db4b1954ed8d81a6d47b0f62dd8c71c2f4e57cbbe90dd863575a2bc404",
  "linkReferences": {},
  "deployedLinkReferences": {}
}