{
  "_format": "hh-sol-artifact-1",
  "contractName": "DeltaFlashAggregatorMantle",
  "sourceName": "contracts/1delta/modules/deploy/mantle/FlashAggregator.sol",
  "abi": [
    {
      "inputs": [],
      "stateMutability": "nonpayable",
      "type": "constructor"
    },
    {
      "inputs": [],
      "name": "NoBalance",
      "type": "error"
    },
    {
      "inputs": [],
      "name": "Slippage",
      "type": "error"
    },
    {
      "inputs": [
        {
          "internalType": "address",
          "name": "",
          "type": "address"
        },
        {
          "internalType": "uint256",
          "name": "amount0",
          "type": "uint256"
        },
        {
          "internalType": "uint256",
          "name": "amount1",
          "type": "uint256"
        },
        {
          "internalType": "bytes",
          "name": "data",
          "type": "bytes"
        }
      ],
      "name": "FusionXCall",
      "outputs": [],
      "stateMutability": "nonpayable",
      "type": "function"
    },
    {
      "inputs": [
        {
          "internalType": "int256",
          "name": "amount0Delta",
          "type": "int256"
        },
        {
          "internalType": "int256",
          "name": "amount1Delta",
          "type": "int256"
        },
        {
          "internalType": "bytes",
          "name": "_data",
          "type": "bytes"
        }
      ],
      "name": "agniSwapCallback",
      "outputs": [],
      "stateMutability": "nonpayable",
      "type": "function"
    },
    {
      "inputs": [
        {
          "internalType": "address",
          "name": "asset",
          "type": "address"
        },
        {
          "internalType": "uint256",
          "name": "amount",
          "type": "uint256"
        },
        {
          "internalType": "uint256",
          "name": "interestRateMode",
          "type": "uint256"
        }
      ],
      "name": "borrow",
      "outputs": [],
      "stateMutability": "payable",
      "type": "function"
    },
    {
      "inputs": [
        {
          "internalType": "address",
          "name": "target",
          "type": "address"
        },
        {
          "internalType": "bytes",
          "name": "params",
          "type": "bytes"
        }
      ],
      "name": "callTarget",
      "outputs": [],
      "stateMutability": "payable",
      "type": "function"
    },
    {
      "inputs": [
        {
          "internalType": "address",
          "name": "asset",
          "type": "address"
        },
        {
          "internalType": "address",
          "name": "recipient",
          "type": "address"
        }
      ],
      "name": "deposit",
      "outputs": [],
      "stateMutability": "payable",
      "type": "function"
    },
    {
      "inputs": [
        {
          "internalType": "uint256",
          "name": "amountOutMinimum",
          "type": "uint256"
        },
        {
          "internalType": "bytes",
          "name": "path",
          "type": "bytes"
        }
      ],
      "name": "flashSwapAllIn",
      "outputs": [
        {
          "internalType": "uint256",
          "name": "amountOut",
          "type": "uint256"
        }
      ],
      "stateMutability": "payable",
      "type": "function"
    },
    {
      "inputs": [
        {
          "internalType": "uint256",
          "name": "amountInMaximum",
          "type": "uint256"
        },
        {
          "internalType": "bytes",
          "name": "path",
          "type": "bytes"
        }
      ],
      "name": "flashSwapAllOut",
      "outputs": [
        {
          "internalType": "uint256",
          "name": "amountIn",
          "type": "uint256"
        }
      ],
      "stateMutability": "payable",
      "type": "function"
    },
    {
      "inputs": [
        {
          "internalType": "uint256",
          "name": "amountIn",
          "type": "uint256"
        },
        {
          "internalType": "uint256",
          "name": "amountOutMinimum",
          "type": "uint256"
        },
        {
          "internalType": "bytes",
          "name": "path",
          "type": "bytes"
        }
      ],
      "name": "flashSwapExactIn",
      "outputs": [
        {
          "internalType": "uint256",
          "name": "amountOut",
          "type": "uint256"
        }
      ],
      "stateMutability": "payable",
      "type": "function"
    },
    {
      "inputs": [
        {
          "internalType": "uint256",
          "name": "amountOut",
          "type": "uint256"
        },
        {
          "internalType": "uint256",
          "name": "amountInMaximum",
          "type": "uint256"
        },
        {
          "internalType": "bytes",
          "name": "path",
          "type": "bytes"
        }
      ],
      "name": "flashSwapExactOut",
      "outputs": [
        {
          "internalType": "uint256",
          "name": "amountIn",
          "type": "uint256"
        }
      ],
      "stateMutability": "payable",
      "type": "function"
    },
    {
      "inputs": [
        {
          "internalType": "int256",
          "name": "amount0Delta",
          "type": "int256"
        },
        {
          "internalType": "int256",
          "name": "amount1Delta",
          "type": "int256"
        },
        {
          "internalType": "bytes",
          "name": "data",
          "type": "bytes"
        }
      ],
      "name": "fusionXV3SwapCallback",
      "outputs": [],
      "stateMutability": "nonpayable",
      "type": "function"
    },
    {
      "inputs": [],
      "name": "refundNative",
      "outputs": [],
      "stateMutability": "payable",
      "type": "function"
    },
    {
      "inputs": [
        {
          "internalType": "address",
          "name": "asset",
          "type": "address"
        },
        {
          "internalType": "address",
          "name": "recipient",
          "type": "address"
        },
        {
          "internalType": "uint256",
          "name": "interestRateMode",
          "type": "uint256"
        }
      ],
      "name": "repay",
      "outputs": [],
      "stateMutability": "payable",
      "type": "function"
    },
    {
      "inputs": [
        {
          "internalType": "address",
          "name": "creditToken",
          "type": "address"
        },
        {
          "internalType": "uint256",
          "name": "value",
          "type": "uint256"
        },
        {
          "internalType": "uint256",
          "name": "deadline",
          "type": "uint256"
        },
        {
          "internalType": "uint8",
          "name": "v",
          "type": "uint8"
        },
        {
          "internalType": "bytes32",
          "name": "r",
          "type": "bytes32"
        },
        {
          "internalType": "bytes32",
          "name": "s",
          "type": "bytes32"
        }
      ],
      "name": "selfCreditDelegate",
      "outputs": [],
      "stateMutability": "payable",
      "type": "function"
    },
    {
      "inputs": [
        {
          "internalType": "address",
          "name": "token",
          "type": "address"
        },
        {
          "internalType": "uint256",
          "name": "value",
          "type": "uint256"
        },
        {
          "internalType": "uint256",
          "name": "deadline",
          "type": "uint256"
        },
        {
          "internalType": "uint8",
          "name": "v",
          "type": "uint8"
        },
        {
          "internalType": "bytes32",
          "name": "r",
          "type": "bytes32"
        },
        {
          "internalType": "bytes32",
          "name": "s",
          "type": "bytes32"
        }
      ],
      "name": "selfPermit",
      "outputs": [],
      "stateMutability": "payable",
      "type": "function"
    },
    {
      "inputs": [
        {
          "internalType": "address",
          "name": "token",
          "type": "address"
        },
        {
          "internalType": "uint256",
          "name": "nonce",
          "type": "uint256"
        },
        {
          "internalType": "uint256",
          "name": "expiry",
          "type": "uint256"
        },
        {
          "internalType": "uint8",
          "name": "v",
          "type": "uint8"
        },
        {
          "internalType": "bytes32",
          "name": "r",
          "type": "bytes32"
        },
        {
          "internalType": "bytes32",
          "name": "s",
          "type": "bytes32"
        }
      ],
      "name": "selfPermitAllowed",
      "outputs": [],
      "stateMutability": "payable",
      "type": "function"
    },
    {
      "inputs": [
        {
          "internalType": "uint256",
          "name": "minimumAmountOut",
          "type": "uint256"
        },
        {
          "internalType": "bytes",
          "name": "path",
          "type": "bytes"
        }
      ],
      "name": "swapAllInSpot",
      "outputs": [],
      "stateMutability": "payable",
      "type": "function"
    },
    {
      "inputs": [
        {
          "internalType": "uint256",
          "name": "maximumAmountIn",
          "type": "uint256"
        },
        {
          "internalType": "uint256",
          "name": "interestRateMode",
          "type": "uint256"
        },
        {
          "internalType": "bytes",
          "name": "path",
          "type": "bytes"
        }
      ],
      "name": "swapAllOutSpot",
      "outputs": [],
      "stateMutability": "payable",
      "type": "function"
    },
    {
      "inputs": [
        {
          "internalType": "uint256",
          "name": "maximumAmountIn",
          "type": "uint256"
        },
        {
          "internalType": "uint256",
          "name": "interestRateMode",
          "type": "uint256"
        },
        {
          "internalType": "bytes",
          "name": "path",
          "type": "bytes"
        }
      ],
      "name": "swapAllOutSpotSelf",
      "outputs": [],
      "stateMutability": "payable",
      "type": "function"
    },
    {
      "inputs": [
        {
          "internalType": "uint256",
          "name": "amountIn",
          "type": "uint256"
        },
        {
          "internalType": "uint256",
          "name": "minimumAmountOut",
          "type": "uint256"
        },
        {
          "internalType": "bytes",
          "name": "path",
          "type": "bytes"
        }
      ],
      "name": "swapExactInSpot",
      "outputs": [],
      "stateMutability": "payable",
      "type": "function"
    },
    {
      "inputs": [
        {
          "internalType": "uint256",
          "name": "amountOut",
          "type": "uint256"
        },
        {
          "internalType": "uint256",
          "name": "maximumAmountIn",
          "type": "uint256"
        },
        {
          "internalType": "bytes",
          "name": "path",
          "type": "bytes"
        }
      ],
      "name": "swapExactOutSpot",
      "outputs": [],
      "stateMutability": "payable",
      "type": "function"
    },
    {
      "inputs": [
        {
          "internalType": "uint256",
          "name": "amountOut",
          "type": "uint256"
        },
        {
          "internalType": "uint256",
          "name": "maximumAmountIn",
          "type": "uint256"
        },
        {
          "internalType": "bytes",
          "name": "path",
          "type": "bytes"
        }
      ],
      "name": "swapExactOutSpotSelf",
      "outputs": [],
      "stateMutability": "payable",
      "type": "function"
    },
    {
      "inputs": [
        {
          "internalType": "address",
          "name": "asset",
          "type": "address"
        }
      ],
      "name": "sweep",
      "outputs": [],
      "stateMutability": "payable",
      "type": "function"
    },
    {
      "inputs": [
        {
          "internalType": "address",
          "name": "asset",
          "type": "address"
        },
        {
          "internalType": "address",
          "name": "recipient",
          "type": "address"
        }
      ],
      "name": "sweepTo",
      "outputs": [],
      "stateMutability": "payable",
      "type": "function"
    },
    {
      "inputs": [
        {
          "internalType": "address",
          "name": "asset",
          "type": "address"
        }
      ],
      "name": "transferERC20AllIn",
      "outputs": [],
      "stateMutability": "payable",
      "type": "function"
    },
    {
      "inputs": [
        {
          "internalType": "address",
          "name": "asset",
          "type": "address"
        },
        {
          "internalType": "uint256",
          "name": "amount",
          "type": "uint256"
        }
      ],
      "name": "transferERC20In",
      "outputs": [],
      "stateMutability": "payable",
      "type": "function"
    },
    {
      "inputs": [],
      "name": "unwrap",
      "outputs": [],
      "stateMutability": "payable",
      "type": "function"
    },
    {
      "inputs": [
        {
          "internalType": "uint256",
          "name": "amountMin",
          "type": "uint256"
        }
      ],
      "name": "validateAndUnwrap",
      "outputs": [],
      "stateMutability": "payable",
      "type": "function"
    },
    {
      "inputs": [
        {
          "internalType": "address",
          "name": "asset",
          "type": "address"
        },
        {
          "internalType": "address",
          "name": "recipient",
          "type": "address"
        }
      ],
      "name": "withdraw",
      "outputs": [],
      "stateMutability": "payable",
      "type": "function"
    },
    {
      "inputs": [],
      "name": "wrap",
      "outputs": [],
      "stateMutability": "payable",
      "type": "function"
    }
  ],
  "bytecode": "0x608080604052346100165761466b908161001c8239f35b600080fdfe6080604052600436101561001257600080fd5b60003560e01c806301681a62146101e25780630a7f820c146101dd5780630bfa0b88146101d8578063113a3a60146101d35780631da649cf146101ce5780632cbac713146101c95780632d4c2e9b146101c45780633d4582d6146101bf5780634614c692146101ba5780634659a494146101b5578063469d9fd7146101b05780634777a81e146101ab5780634a13c36d146101a65780635bee97a31461019c578063646352fd146101a1578063ae067e0f1461019c578063aea7314d14610197578063b002fba914610192578063c1bce0b71461018d578063c4a7edaa14610188578063d1f0d7ce14610183578063d46eb1191461017e578063d8c4630414610179578063df9ee9be14610174578063efe7fac81461016f578063f3995c671461016a578063f940e38514610165578063f9609f08146101605763fd02ffb71461015b57600080fd5b6122cc565b612186565b61209a565b612000565b611f99565b611f00565b611e65565b611dde565b611d44565b611d02565b611c25565b611af1565b611a2b565b6119c1565b6119e6565b6118cf565b61184d565b61170f565b611664565b61153e565b611146565b610ca1565b6109a9565b6106a2565b610687565b610625565b610389565b610232565b6004359073ffffffffffffffffffffffffffffffffffffffff8216820361020a57565b600080fd5b6024359073ffffffffffffffffffffffffffffffffffffffff8216820361020a57565b60207ffffffffffffffffffffffffffffffffffffffffffffffffffffffffffffffffc36011261020a576102646101e7565b6040517f70a0823100000000000000000000000000000000000000000000000000000000815230600482015260208160248173ffffffffffffffffffffffffffffffffffffffff86165afa908115610301576000916102d3575b50806102c657005b6102d1913390612528565b005b6102f4915060203d81116102fa575b6102ec8183612448565b810190612495565b386102be565b503d6102e2565b612489565b9181601f8401121561020a5782359167ffffffffffffffff831161020a576020838186019501011161020a57565b60607ffffffffffffffffffffffffffffffffffffffffffffffffffffffffffffffffc82011261020a5760043591602435916044359067ffffffffffffffff821161020a5761038591600401610306565b9091565b61039236610334565b909160006002843560601c921460001461056757506104136104136103f961042c9373ffffffffffffffffffffffffffffffffffffffff166000527f893924bbf3abb5d61e6884fbda9b7e595ceeb9cfb3fbde996d4124865fe8f490602052604060002090565b5473ffffffffffffffffffffffffffffffffffffffff1690565b73ffffffffffffffffffffffffffffffffffffffff1690565b6040517f70a0823100000000000000000000000000000000000000000000000000000000815233600482015290602090829060249082905afa90811561030157600091610549575b50915b821561051f5761048692612c9c565b7fcff5bbd1b2d2801305f53eb2f94cba4428e797852af2f6b82f41fdca2c9a278a54116104f5576102d17fffffffffffffffffffffffffffffffffffffffffffffffffffffffffffffffff7fcff5bbd1b2d2801305f53eb2f94cba4428e797852af2f6b82f41fdca2c9a278a55565b60046040517f7dd37f70000000000000000000000000000000000000000000000000000000008152fd5b60046040517fc2caa2a6000000000000000000000000000000000000000000000000000000008152fd5b610561915060203d81116102fa576102ec8183612448565b38610474565b906104136104136103f96105ba9373ffffffffffffffffffffffffffffffffffffffff166000527f893924bbf3abb5d61e6884fbda9b7e595ceeb9cfb3fbde996d4124865fe8f491602052604060002090565b6040517f70a0823100000000000000000000000000000000000000000000000000000000815233600482015290602090829060249082905afa9182156103015791610607575b5091610477565b61061f915060203d81116102fa576102ec8183612448565b38610600565b61063961063136610334565b919392612c9c565b7fcff5bbd1b2d2801305f53eb2f94cba4428e797852af2f6b82f41fdca2c9a278a908154116104f5577fffffffffffffffffffffffffffffffffffffffffffffffffffffffffffffffff9055005b61069b61069336610334565b9193926127eb565b106104f557005b60607ffffffffffffffffffffffffffffffffffffffffffffffffffffffffffffffffc36011261020a576106d46101e7565b6106dc61020f565b6040517f70a082310000000000000000000000000000000000000000000000000000000080825230600483015260209360443593919291858360248173ffffffffffffffffffffffffffffffffffffffff86165afa9283156103015760009361098a575b506000600286036108ef57508561079f6104136104136103f98673ffffffffffffffffffffffffffffffffffffffff166000527f893924bbf3abb5d61e6884fbda9b7e595ceeb9cfb3fbde996d4124865fe8f490602052604060002090565b604051958652336004870152859060249082905afa80156103015786946000916108d2575b505b83811061086d57506040517f573ade8100000000000000000000000000000000000000000000000000000000815273ffffffffffffffffffffffffffffffffffffffff92831660048201526024810193909352604483019490945290921660648301528180608481015b0381600073cfa5ae7c2ce8fadc6426c1ff872ca45378fb7cf35af180156103015761085757005b816102d192903d106102fa576102ec8183612448565b6040517f573ade8100000000000000000000000000000000000000000000000000000000815273ffffffffffffffffffffffffffffffffffffffff93841660048201526024810191909152604481019590955216606484015250818060848101610830565b6108e99150853d87116102fa576102ec8183612448565b386107c4565b93866109436104136104136103f98773ffffffffffffffffffffffffffffffffffffffff166000527f893924bbf3abb5d61e6884fbda9b7e595ceeb9cfb3fbde996d4124865fe8f491602052604060002090565b604051928352336004840152829060249082905afa9081156103015787959161096d575b506107c6565b6109849150853d87116102fa576102ec8183612448565b38610967565b6109a2919350863d88116102fa576102ec8183612448565b9138610740565b6109b236610334565b7f82765f668477b0e192c599c8bcda956bb2d57135f98a8bccb0cb9d886fb6e5aa80547fffffffffffffffffffffffff00000000000000000000000000000000000000001633179055909160006002843560601c9214600014610b9557506104136104136103f9610a629373ffffffffffffffffffffffffffffffffffffffff166000527f893924bbf3abb5d61e6884fbda9b7e595ceeb9cfb3fbde996d4124865fe8f490602052604060002090565b6040517f70a0823100000000000000000000000000000000000000000000000000000000815233600482015290602090829060249082905afa90811561030157600091610b77575b50915b821561051f57610abc92612c9c565b7fcff5bbd1b2d2801305f53eb2f94cba4428e797852af2f6b82f41fdca2c9a278a54116104f557610b2b7fffffffffffffffffffffffffffffffffffffffffffffffffffffffffffffffff7fcff5bbd1b2d2801305f53eb2f94cba4428e797852af2f6b82f41fdca2c9a278a55565b6102d17f82765f668477b0e192c599c8bcda956bb2d57135f98a8bccb0cb9d886fb6e5aa7fffffffffffffffffffffffff00000000000000000000000000000000000000008154169055565b610b8f915060203d81116102fa576102ec8183612448565b38610aaa565b906104136104136103f9610be89373ffffffffffffffffffffffffffffffffffffffff166000527f893924bbf3abb5d61e6884fbda9b7e595ceeb9cfb3fbde996d4124865fe8f491602052604060002090565b6040517f70a0823100000000000000000000000000000000000000000000000000000000815233600482015290602090829060249082905afa9182156103015791610c35575b5091610aad565b610c4d915060203d81116102fa576102ec8183612448565b38610c2e565b9060407ffffffffffffffffffffffffffffffffffffffffffffffffffffffffffffffffc83011261020a57600435916024359067ffffffffffffffff821161020a5761038591600401610306565b610caa36610c53565b7f82765f668477b0e192c599c8bcda956bb2d57135f98a8bccb0cb9d886fb6e5aa80547fffffffffffffffffffffffff0000000000000000000000000000000000000000163317905591908035928360601c90601983013560601c948286106000600560ff8460381c16146000146110895750610d6f6104136104136103f98773ffffffffffffffffffffffffffffffffffffffff166000527f893924bbf3abb5d61e6884fbda9b7e595ceeb9cfb3fbde996d4124865fe8f490602052604060002090565b6040517f70a0823100000000000000000000000000000000000000000000000000000000815233600482015290602090829060249082905afa9081156103015760009161106b575b50915b821561051f57604097889582871c9260ff84166032811015610f8e5750600093610dfa93610df49362ffffff6104139460481c1691612945565b936127b9565b91808214610f7057610e436401000276a4955b8751988997889687957f128acb080000000000000000000000000000000000000000000000000000000087523060048801612744565b03925af1801561030157610f44575b505b7fcff5bbd1b2d2801305f53eb2f94cba4428e797852af2f6b82f41fdca2c9a278a548091610ec07fffffffffffffffffffffffffffffffffffffffffffffffffffffffffffffffff7fcff5bbd1b2d2801305f53eb2f94cba4428e797852af2f6b82f41fdca2c9a278a55565b610f0c7f82765f668477b0e192c599c8bcda956bb2d57135f98a8bccb0cb9d886fb6e5aa7fffffffffffffffffffffffff00000000000000000000000000000000000000008154169055565b10610f1b579051908152602090f35b600482517f7dd37f70000000000000000000000000000000000000000000000000000000008152fd5b610f6390833d8511610f69575b610f5b8183612448565b8101906126ef565b50610e52565b503d610f51565b610e4373fffd8963efd1fc6a506488495d951d5263988d2595610e0d565b9193505060649193965096949610610fac575b505050505050610e54565b610fb591612e4f565b921561104e5773ffffffffffffffffffffffffffffffffffffffff600091935b1690813b1561020a576000809461101c8951978896879586947f022c0d9f000000000000000000000000000000000000000000000000000000008652309160048701612c63565b03925af1801561030157611035575b8080808080610fa1565b806110426110489261242f565b806119db565b3861102b565b73ffffffffffffffffffffffffffffffffffffffff600093610fd5565b611083915060203d81116102fa576102ec8183612448565b38610db7565b6110db6104136104136103f98873ffffffffffffffffffffffffffffffffffffffff166000527f893924bbf3abb5d61e6884fbda9b7e595ceeb9cfb3fbde996d4124865fe8f491602052604060002090565b6040517f70a0823100000000000000000000000000000000000000000000000000000000815233600482015290602090829060249082905afa9182156103015791611128575b5091610dba565b611140915060203d81116102fa576102ec8183612448565b38611121565b61114f36610c53565b7f82765f668477b0e192c599c8bcda956bb2d57135f98a8bccb0cb9d886fb6e5aa80547fffffffffffffffffffffffff0000000000000000000000000000000000000000163317905590918235928360601c9260409385851c601984013560601c90818310926112076104136104136103f98473ffffffffffffffffffffffffffffffffffffffff166000527f893924bbf3abb5d61e6884fbda9b7e595ceeb9cfb3fbde996d4124865fe8f48f602052604060002090565b88517f70a082310000000000000000000000000000000000000000000000000000000081523360048201529390602090859060249082905afa9384156103015760009461151e575b5083156114f557889960ff849a98999a16603281106000146113e0575092611286926104139262ffffff60009660481c1691612945565b928082146113c2576112ce6401000276a4958751988997889687957f128acb080000000000000000000000000000000000000000000000000000000087523060048801612744565b03925af18015610301576113a6575b505b7fcff5bbd1b2d2801305f53eb2f94cba4428e797852af2f6b82f41fdca2c9a278a54809161134b7fffffffffffffffffffffffffffffffffffffffffffffffffffffffffffffffff7fcff5bbd1b2d2801305f53eb2f94cba4428e797852af2f6b82f41fdca2c9a278a55565b6113977f82765f668477b0e192c599c8bcda956bb2d57135f98a8bccb0cb9d886fb6e5aa7fffffffffffffffffffffffff00000000000000000000000000000000000000008154169055565b11610f1b579051908152602090f35b6113bc90833d8511610f6957610f5b8183612448565b506112dd565b6112ce73fffd8963efd1fc6a506488495d951d5263988d2595610e0d565b91935050606491939650969496106113fe575b5050505050506112df565b61142f9161142a867fcff5bbd1b2d2801305f53eb2f94cba4428e797852af2f6b82f41fdca2c9a278a55565b612e4f565b9281156114cd576114409184613a25565b73ffffffffffffffffffffffffffffffffffffffff600091935b1690813b1561020a57600080946114a18951978896879586947f022c0d9f000000000000000000000000000000000000000000000000000000008652309160048701612c63565b03925af18015610301576114ba575b80808080806113f3565b806110426114c79261242f565b386114b0565b6114d89150836139c2565b73ffffffffffffffffffffffffffffffffffffffff60009361145a565b600489517fc2caa2a6000000000000000000000000000000000000000000000000000000008152fd5b61153791945060203d81116102fa576102ec8183612448565b923861124f565b60207ffffffffffffffffffffffffffffffffffffffffffffffffffffffffffffffffc36011261020a576115706101e7565b604051907f70a0823100000000000000000000000000000000000000000000000000000000825233600483015260208260248173ffffffffffffffffffffffffffffffffffffffff85165afa908115610301576102d1926000926115d9575b50309033906124a4565b6115f291925060203d81116102fa576102ec8183612448565b90386115cf565b7ffffffffffffffffffffffffffffffffffffffffffffffffffffffffffffffffc60c091011261020a5760043573ffffffffffffffffffffffffffffffffffffffff8116810361020a5790602435906044359060643560ff8116810361020a57906084359060a43590565b73ffffffffffffffffffffffffffffffffffffffff611682366115f9565b9293919590941693843b1561020a5760009461010493869260ff604051998a9889977f8fcbaf0c0000000000000000000000000000000000000000000000000000000089523360048a01523060248a015260448901526064880152600160848801521660a486015260c485015260e48401525af180156103015761170257005b806110426102d19261242f565b60207ffffffffffffffffffffffffffffffffffffffffffffffffffffffffffffffffc36011261020a576040517f70a082310000000000000000000000000000000000000000000000000000000081523060048201527378c1b0c915c4faa5fffa6cabf0219da63d7f4cb890602081602481855afa9081156103015760009161182f575b506117a26004358210156145d0565b813b1561020a57600060405180937f2e1a7d4d0000000000000000000000000000000000000000000000000000000082528183816117e887600483019190602083019252565b03925af191821561030157600080809381938661181c575b50818115611813575b3390f11561030157005b506108fc611809565b806110426118299261242f565b85611800565b611847915060203d81116102fa576102ec8183612448565b38611793565b61185636610c53565b6040517f70a0823100000000000000000000000000000000000000000000000000000000815230600482015291602083602481843560601c5afa928315610301576000936118af575b50821561051f5761069b926127eb565b6118c891935060203d81116102fa576102ec8183612448565b913861189f565b61192c6118db36610334565b7f82765f668477b0e192c599c8bcda956bb2d57135f98a8bccb0cb9d886fb6e5aa80547fffffffffffffffffffffffff00000000000000000000000000000000000000001633179055919392612c9c565b7fcff5bbd1b2d2801305f53eb2f94cba4428e797852af2f6b82f41fdca2c9a278a908154116104f5577fffffffffffffffffffffffffffffffffffffffffffffffffffffffffffffffff90557f82765f668477b0e192c599c8bcda956bb2d57135f98a8bccb0cb9d886fb6e5aa80547fffffffffffffffffffffffff0000000000000000000000000000000000000000169055005b3461020a576102d16119d236610334565b92919091612fea565b600091031261020a57565b6000807ffffffffffffffffffffffffffffffffffffffffffffffffffffffffffffffffc360112611a2857804780611a1b5750f35b8180809233615208f15080f35b80fd5b60407ffffffffffffffffffffffffffffffffffffffffffffffffffffffffffffffffc36011261020a57611a5d6101e7565b611a6561020f565b604051907f70a0823100000000000000000000000000000000000000000000000000000000825230600483015260208260248173ffffffffffffffffffffffffffffffffffffffff87165afa91821561030157600092611ad1575b5081611ac857005b6102d192612528565b611aea91925060203d81116102fa576102ec8183612448565b9038611ac0565b60407ffffffffffffffffffffffffffffffffffffffffffffffffffffffffffffffffc36011261020a57611b236101e7565b60243567ffffffffffffffff811161020a57611b43903690600401610306565b919060ff611b908373ffffffffffffffffffffffffffffffffffffffff166000527f9fc772e484014aadda1a3916bdcbf34dd65a99500e92cb6faae6cb2496083ccc602052604060002090565b541615611bc757611bc491836040519485938437820190600094858094848280965203925af1611bbe6125d5565b50612605565b80f35b60646040517f08c379a000000000000000000000000000000000000000000000000000000000815260206004820152600860248201527f54617267657428290000000000000000000000000000000000000000000000006044820152fd5b600060607ffffffffffffffffffffffffffffffffffffffffffffffffffffffffffffffffc360112611a285780611c5a6101e7565b73cfa5ae7c2ce8fadc6426c1ff872ca45378fb7cf390813b15611cfe576040517fa415bcad00000000000000000000000000000000000000000000000000000000815273ffffffffffffffffffffffffffffffffffffffff909116600482015260248035908201526044803590820152600060648201523360848201529190829081838160a481015b03925af1801561030157611cf5575080f35b611bc49061242f565b5050fd5b60407ffffffffffffffffffffffffffffffffffffffffffffffffffffffffffffffffc36011261020a576102d1611d376101e7565b60243590309033906124a4565b73ffffffffffffffffffffffffffffffffffffffff611d62366115f9565b929394959091951690813b1561020a576040517f0b52d5580000000000000000000000000000000000000000000000000000000081523360048201523060248201526044810195909552606485019390935260ff909416608484015260a483019190915260c48201526000918290829081838160e48101611ce3565b6000807ffffffffffffffffffffffffffffffffffffffffffffffffffffffffffffffffc360112611a28577378c1b0c915c4faa5fffa6cabf0219da63d7f4cb881813b15611a2857600491604051928380927fd0e30db000000000000000000000000000000000000000000000000000000000825234905af1801561030157611cf5575080f35b611e6e36610334565b7f82765f668477b0e192c599c8bcda956bb2d57135f98a8bccb0cb9d886fb6e5aa80547fffffffffffffffffffffffff000000000000000000000000000000000000000016331790559260409384918335606081811c601987013590911c8181109280871c929060ff84166032811015610f8e5750600093610dfa93610df49362ffffff6104139460481c1691612945565b611f0936610334565b7f82765f668477b0e192c599c8bcda956bb2d57135f98a8bccb0cb9d886fb6e5aa80547fffffffffffffffffffffffff000000000000000000000000000000000000000016331790558135908160601c91604095869382851c90601987013560601c8082109460ff8416603281106000146113e0575092611286926104139262ffffff60009660481c1691612945565b3461020a5760807ffffffffffffffffffffffffffffffffffffffffffffffffffffffffffffffffc36011261020a57611fd06101e7565b5060643567ffffffffffffffff811161020a57611ff46102d1913690600401610306565b90604435602435613af0565b73ffffffffffffffffffffffffffffffffffffffff61201e366115f9565b929394959091951690813b1561020a576040517fd505accf0000000000000000000000000000000000000000000000000000000081523360048201523060248201526044810195909552606485019390935260ff909416608484015260a483019190915260c48201526000918290829081838160e48101611ce3565b60407ffffffffffffffffffffffffffffffffffffffffffffffffffffffffffffffffc36011261020a576120cc6101e7565b6120d461020f565b6040517f69328dec00000000000000000000000000000000000000000000000000000000815273ffffffffffffffffffffffffffffffffffffffff92831660048201527fffffffffffffffffffffffffffffffffffffffffffffffffffffffffffffffff602482015291166044820152602081606481600073cfa5ae7c2ce8fadc6426c1ff872ca45378fb7cf35af180156103015761216f57005b6102d19060203d81116102fa576102ec8183612448565b60407ffffffffffffffffffffffffffffffffffffffffffffffffffffffffffffffffc36011261020a576121b86101e7565b6121c061020f565b6040517f70a08231000000000000000000000000000000000000000000000000000000008152306004820152919060208360248173ffffffffffffffffffffffffffffffffffffffff86165afa928315610301576000936122ac575b5073cfa5ae7c2ce8fadc6426c1ff872ca45378fb7cf3803b1561020a576040517f617ba03700000000000000000000000000000000000000000000000000000000815273ffffffffffffffffffffffffffffffffffffffff9384166004820152602481019490945291166044830152600060648301819052908290608490829084905af180156103015761170257005b6122c591935060203d81116102fa576102ec8183612448565b913861221c565b6000807ffffffffffffffffffffffffffffffffffffffffffffffffffffffffffffffffc360112611a28576040517f70a082310000000000000000000000000000000000000000000000000000000081523060048201527378c1b0c915c4faa5fffa6cabf0219da63d7f4cb890602081602481855afa9081156103015783916123e2575b50813b156123de578260405180937f2e1a7d4d00000000000000000000000000000000000000000000000000000000825281838161239687600483019190602083019252565b03925af19182156103015783808080948194876123cb575b508181156123c2575b3390f1156103015780f35b506108fc6123b7565b806110426123d89261242f565b866123ae565b8280fd5b6123fa915060203d81116102fa576102ec8183612448565b38612350565b7f4e487b7100000000000000000000000000000000000000000000000000000000600052604160045260246000fd5b67ffffffffffffffff811161244357604052565b612400565b90601f7fffffffffffffffffffffffffffffffffffffffffffffffffffffffffffffffe0910116810190811067ffffffffffffffff82111761244357604052565b6040513d6000823e3d90fd5b9081602091031261020a575190565b9290606490600060209460405196879586947f23b872dd00000000000000000000000000000000000000000000000000000000865273ffffffffffffffffffffffffffffffffffffffff938480921660048801521660248601526044850152165af1903d9160018251146020841015168315171615612521575050565b816000823efd5b604460209293600060405195869485937fa9059cbb00000000000000000000000000000000000000000000000000000000855273ffffffffffffffffffffffffffffffffffffffff80931660048601526024850152165af1903d9160018251146020841015168315171615612521575050565b67ffffffffffffffff811161244357601f017fffffffffffffffffffffffffffffffffffffffffffffffffffffffffffffffe01660200190565b3d15612600573d906125e68261259b565b916125f46040519384612448565b82523d6000602084013e565b606090565b1561260c57565b60646040517f08c379a000000000000000000000000000000000000000000000000000000000815260206004820152600c60248201527f43616c6c4661696c6564282900000000000000000000000000000000000000006044820152fd5b7fcff5bbd1b2d2801305f53eb2f94cba4428e797852af2f6b82f41fdca2c9a278a55565b90602d1161020a5790602d90565b909291928360191161020a57831161020a57601901917fffffffffffffffffffffffffffffffffffffffffffffffffffffffffffffffe70190565b9093929384831161020a57841161020a578101920390565b919082604091031261020a576020825192015190565b601f82602094937fffffffffffffffffffffffffffffffffffffffffffffffffffffffffffffffe0938186528686013760008582860101520116010190565b919360a093612787979573ffffffffffffffffffffffffffffffffffffffff80941685521515602085015260408401521660608201528160808201520191612705565b90565b7f4e487b7100000000000000000000000000000000000000000000000000000000600052601160045260246000fd5b7f800000000000000000000000000000000000000000000000000000000000000081146127e65760000390565b61278a565b919290926000925b84359060409082821c606084811c9060198a0135901c60ff83166032811015612919575061041385949293848362ffffff612838958e9b9a98109960481c1691612945565b84156128ff576401000276a45b61284f888c61268e565b97909361288c8651998a96879586947f128acb080000000000000000000000000000000000000000000000000000000086528c3060048801612744565b03925af1918215610301576128b193879288946128dc575b5050156128d557506127b9565b935b602e8211156128ce5790806128c79261269c565b90936127f3565b5090915050565b90506127b9565b80919294506128f79350903d10610f6957610f5b8183612448565b9138806128a4565b73fffd8963efd1fc6a506488495d951d5263988d25612845565b919399955093506064915010612931575b50506128b3565b9061293d929691612a81565b93388061292a565b90916055939260ff60405194166000146129ed577fffe9827b4ebeb9ae41fc57efdddd79edddc2ea4d03000000000000000000000084526015840192818110156129e057835260358401525b62ffffff16838301526060812090527faf9bd540c3449b723624376f906d8d3a0e6441ff18b847f05f4f85789ab64d9a60358201522073ffffffffffffffffffffffffffffffffffffffff1690565b9083526035840152612991565b7fff8790c2c3ba67223d83c8fcf2a5e3c650059987b400000000000000000000008452601584019281811015612a7457835260358401525b62ffffff16838301526060812090527f1bce652aaa6528355d7a339037433a20cd28410e3967635ba8d2ddb037440dbf60358201522073ffffffffffffffffffffffffffffffffffffffff1690565b9083526035840152612a25565b818110939290918415612c5557610b145281610b00525b6028610b0c2090610b00917fffe5020961fa51ffd3662cdf307def18f9a87cce7c00000000000000000000008352610b15527f58c684aeb03fe49c8a3080db88e425fae262c5ef5bf0e8acffc0526c6e3c03a0610b3552605582209073ffffffffffffffffffffffffffffffffffffffff9360208560448582169560405194859384927fa9059cbb0000000000000000000000000000000000000000000000000000000084521660048301528660248301526000998a91165af1903d9160018251146020841015168315171615612c4f5750507f0902f1ac000000000000000000000000000000000000000000000000000000008352610c00604081600486865afa15612c465760403d10612c4257928480949360a49382958a15600014612c3857610c205190515b6103e86103e592028284020192020204987f022c0d9f000000000000000000000000000000000000000000000000000000008452600014612c295781610b045288610b24525b30610b44526080610b645281610b84525af115612c215750565b3d81803e3d90fd5b88610b045281610b2452612c07565b51610c2051612bc1565b8480fd5b843d81803e3d90fd5b8186823efd5b82610b1452610b0052612a98565b90612787959360809373ffffffffffffffffffffffffffffffffffffffff92845260208401521660408201528160608201520191612705565b91908035918260601c9360409380851c95601985013560601c9060ff881660328110600014612d7c5750610df46104138899848462ffffff612cea966000989d9c9d109860481c1691612945565b91808214612d5e57612d326401000276a4958751988997889687957f128acb080000000000000000000000000000000000000000000000000000000087523060048801612744565b03925af1801561030157612d44575050565b81612d5a92903d10610f6957610f5b8183612448565b5050565b612d3273fffd8963efd1fc6a506488495d951d5263988d2595610e0d565b9092506064919694975010612d94575b505050505050565b612d9e8186612e4f565b941015612e325773ffffffffffffffffffffffffffffffffffffffff600091945b1691823b1561020a57600094612e06869251978896879586947f022c0d9f000000000000000000000000000000000000000000000000000000008652309160048701612c63565b03925af1801561030157612e1f575b8080808080612d8c565b80611042612e2c9261242f565b38612e15565b73ffffffffffffffffffffffffffffffffffffffff600094612dbf565b9080821015612ed357610b1452610b00525b60556028610b0c20610b00907fffe5020961fa51ffd3662cdf307def18f9a87cce7c00000000000000000000008252610b15527f58c684aeb03fe49c8a3080db88e425fae262c5ef5bf0e8acffc0526c6e3c03a0610b35522073ffffffffffffffffffffffffffffffffffffffff1690565b90610b1452610b0052612e61565b1561020a57565b907ffffffffffffffffffffffffffffffffffffffffffffffffffffffffffffffffd82019182116127e657565b907fffffffffffffffffffffffffffffffffffffffffffffffffffffffffffffffff82019182116127e657565b907ffffffffffffffffffffffffffffffffffffffffffffffffffffffffffffffffa82019182116127e657565b7fff000000000000000000000000000000000000000000000000000000000000009035818116939260018110612fa457505050565b60010360031b82901b16169150565b929192612fbf8261259b565b91612fcd6040519384612448565b82948184528183011161020a578281602093846000960137010152565b9082358060601c9360409160ff601983013560601c9161302761302061041361041384891c8c8862ffffff8860481c1691612945565b3314612ee1565b60381c1680613058575050505061304e9350600082136000146130505750905b3390612528565b565b905090613047565b90939194929560018214600014613383575050600082131561337b5750925b602e8511156130965750508261304e936130909261269c565b9161441b565b916130bc6130b6866130c293816130b06130c8979a612f15565b916126d7565b90612f6f565b60f81c90565b60ff1690565b9060038210156131c85773ffffffffffffffffffffffffffffffffffffffff7f82765f668477b0e192c599c8bcda956bb2d57135f98a8bccb0cb9d886fb6e5aa541673cfa5ae7c2ce8fadc6426c1ff872ca45378fb7cf3803b1561020a5791517fa415bcad00000000000000000000000000000000000000000000000000000000815273ffffffffffffffffffffffffffffffffffffffff868116600483015260248201869052604482019490945260006064820181905291909316608484015290829081838160a481015b03925af180156103015761304e9361266a9284926131b5575b503390612528565b806110426131c29261242f565b386131ad565b906008111561332f5782602091613267846132286103f96132c19873ffffffffffffffffffffffffffffffffffffffff166000527f893924bbf3abb5d61e6884fbda9b7e595ceeb9cfb3fbde996d4124865fe8f48f602052604060002090565b73ffffffffffffffffffffffffffffffffffffffff7f82765f668477b0e192c599c8bcda956bb2d57135f98a8bccb0cb9d886fb6e5aa541630916124a4565b517f69328dec00000000000000000000000000000000000000000000000000000000815273ffffffffffffffffffffffffffffffffffffffff90911660048201526024810183905233604482015292839081906064820190565b0381600073cfa5ae7c2ce8fadc6426c1ff872ca45378fb7cf35af19182156103015761304e92613311575b507fcff5bbd1b2d2801305f53eb2f94cba4428e797852af2f6b82f41fdca2c9a278a55565b6133289060203d81116102fa576102ec8183612448565b50386132ec565b506133768161304e9373ffffffffffffffffffffffffffffffffffffffff7f82765f668477b0e192c599c8bcda956bb2d57135f98a8bccb0cb9d886fb6e5aa54169061459b565b61266a565b905092613077565b94909692959391600588116000146137a7576000871315613797576133a7906127b9565b905b81938092602e821161374d575b509082916130b06133c694612f15565b90926133f0817fcff5bbd1b2d2801305f53eb2f94cba4428e797852af2f6b82f41fdca2c9a278a55565b7f82765f668477b0e192c599c8bcda956bb2d57135f98a8bccb0cb9d886fb6e5aa5473ffffffffffffffffffffffffffffffffffffffff169760068103613692575073cfa5ae7c2ce8fadc6426c1ff872ca45378fb7cf392833b1561020a5785517f617ba03700000000000000000000000000000000000000000000000000000000815273ffffffffffffffffffffffffffffffffffffffff918216600482015260248101929092528816604482015260006064820181905290928390608490829084905af1908115610301576134d4936130c2936130bc9361367f575b50612f6f565b9360038510156135835773cfa5ae7c2ce8fadc6426c1ff872ca45378fb7cf3803b1561020a5791517fa415bcad00000000000000000000000000000000000000000000000000000000815273ffffffffffffffffffffffffffffffffffffffff848116600483015260248201869052604482019690965260006064820181905291909516608486015290849081838160a481015b03925af19283156103015761304e936131b557503390612528565b61363d9450906135e584602095936135dd6103f98773ffffffffffffffffffffffffffffffffffffffff166000527f893924bbf3abb5d61e6884fbda9b7e595ceeb9cfb3fbde996d4124865fe8f48f602052604060002090565b9030916124a4565b517f69328dec00000000000000000000000000000000000000000000000000000000815273ffffffffffffffffffffffffffffffffffffffff9092166004830152602482015233604482015291829081906064820190565b0381600073cfa5ae7c2ce8fadc6426c1ff872ca45378fb7cf35af18015610301576136655750565b61367c9060203d81116102fa576102ec8183612448565b50565b8061104261368c9261242f565b386134ce565b9061369e602092612f42565b86517f573ade8100000000000000000000000000000000000000000000000000000000815273ffffffffffffffffffffffffffffffffffffffff958616600482015260248101929092526044820152928816606484015282608481600073cfa5ae7c2ce8fadc6426c1ff872ca45378fb7cf35af1908115610301576134d4936130c2936130bc9361372f5750612f6f565b6137469060203d81116102fa576102ec8183612448565b50386134ce565b93506133c694506137609250809161269c565b929092918361378d613780613777868881966127eb565b96863691612fb3565b805101600b015160601c90565b93929190916133b6565b956137a1906127b9565b906133a9565b929690949093919260008713156139b3576137c1906127b9565b7f82765f668477b0e192c599c8bcda956bb2d57135f98a8bccb0cb9d886fb6e5aa5473ffffffffffffffffffffffffffffffffffffffff169460038103613904575073cfa5ae7c2ce8fadc6426c1ff872ca45378fb7cf391823b1561020a5783517f617ba03700000000000000000000000000000000000000000000000000000000815273ffffffffffffffffffffffffffffffffffffffff918216600482015260248101929092528516604482015260006064820181905290918290608490829084905af18015610301576138f1575b505b602e8611156138ae575050508261304e936130909261269c565b91946130bc6130b66130c2926134d494966138e7897fcff5bbd1b2d2801305f53eb2f94cba4428e797852af2f6b82f41fdca2c9a278a55565b816130b081612f15565b806110426138fe9261242f565b38613892565b90613910602092612ee8565b84517f573ade8100000000000000000000000000000000000000000000000000000000815273ffffffffffffffffffffffffffffffffffffffff948516600482015260248101929092526044820152918516606483015281608481600073cfa5ae7c2ce8fadc6426c1ff872ca45378fb7cf35af1801561030157613995575b50613894565b6139ac9060203d81116102fa576102ec8183612448565b503861398f565b956139bd906127b9565b6137c1565b6040610b00917f0902f1ac0000000000000000000000000000000000000000000000000000000083526004610c009384925afa15613a1b5760403d1061020a57610c205190516103e86103e59202828402019202020490565b3d6000803e3d6000fd5b906040610b00927f0902f1ac0000000000000000000000000000000000000000000000000000000084526004610c009485925afa15613a1b5760403d1061020a57613a8457610c205190515b6103e86103e59202828402019202020490565b51610c2051613a71565b60ff7ffffffffffffffffffffffffffffffffffffffffffffffffffffffffffffffffd9116019060ff82116127e657565b60ff7ffffffffffffffffffffffffffffffffffffffffffffffffffffffffffffffffa9116019060ff82116127e657565b92918035918260601c9260381c90601983013560601c9283851090613b158587612e4f565b9373ffffffffffffffffffffffffffffffffffffffff94613b398682163314612ee1565b60ff82169060018214614181576005821115613ee8575050978792600014613ebe57507fcff5bbd1b2d2801305f53eb2f94cba4428e797852af2f6b82f41fdca2c9a278a54965b83602e8211613e80575b509082916130b0613b9a94612f15565b919092613bc5827fcff5bbd1b2d2801305f53eb2f94cba4428e797852af2f6b82f41fdca2c9a278a55565b7f82765f668477b0e192c599c8bcda956bb2d57135f98a8bccb0cb9d886fb6e5aa54169660ff8116600603613de3575073cfa5ae7c2ce8fadc6426c1ff872ca45378fb7cf393843b1561020a576040517f617ba03700000000000000000000000000000000000000000000000000000000815273ffffffffffffffffffffffffffffffffffffffff918216600482015260248101929092528716604482015260006064820181905290938490608490829084905af191821561030157613c93936130bc9361367f5750612f6f565b600360ff82161015613d315773cfa5ae7c2ce8fadc6426c1ff872ca45378fb7cf393843b1561020a576040517fa415bcad00000000000000000000000000000000000000000000000000000000815273ffffffffffffffffffffffffffffffffffffffff80851660048301526024820186905260ff909316604482015260006064820181905292909116608482015293849081838160a48101613568565b5081613d8960209361363d956135dd6103f98673ffffffffffffffffffffffffffffffffffffffff166000527f893924bbf3abb5d61e6884fbda9b7e595ceeb9cfb3fbde996d4124865fe8f48f602052604060002090565b6040517f69328dec00000000000000000000000000000000000000000000000000000000815273ffffffffffffffffffffffffffffffffffffffff9092166004830152602482015233604482015291829081906064820190565b90613def602092613abf565b6040517f573ade8100000000000000000000000000000000000000000000000000000000815273ffffffffffffffffffffffffffffffffffffffff9687166004820152602481019290925260ff166044820152938716606485015283608481600073cfa5ae7c2ce8fadc6426c1ff872ca45378fb7cf35af191821561030157613c93936130bc9361372f5750612f6f565b9550613b9a9350613e939250809161269c565b919093849294613eb4613780613eab888781966127eb565b95883691612fb3565b9592919091613b8a565b92507fcff5bbd1b2d2801305f53eb2f94cba4428e797852af2f6b82f41fdca2c9a278a5496613b80565b929795909698996003958560001461417757509485915b7f82765f668477b0e192c599c8bcda956bb2d57135f98a8bccb0cb9d886fb6e5aa541697036140c157505073cfa5ae7c2ce8fadc6426c1ff872ca45378fb7cf3803b1561020a576040517f617ba03700000000000000000000000000000000000000000000000000000000815273ffffffffffffffffffffffffffffffffffffffff9586166004820152602481018590529486166044860152600060648601819052908590608490829084905af193841561030157613fc3946140ae575b506143ac565b92602e851115613fdd5750508261304e936130909261269c565b916130bc6130b661401593966130c2936138e7887fcff5bbd1b2d2801305f53eb2f94cba4428e797852af2f6b82f41fdca2c9a278a55565b6003811015613d315773cfa5ae7c2ce8fadc6426c1ff872ca45378fb7cf393843b1561020a576040517fa415bcad00000000000000000000000000000000000000000000000000000000815273ffffffffffffffffffffffffffffffffffffffff808516600483015260248201869052604482019390935260006064820181905292909116608482015293849081838160a48101613568565b806110426140bb9261242f565b38613fbd565b6140cc602092613a8e565b6040517f573ade8100000000000000000000000000000000000000000000000000000000815273ffffffffffffffffffffffffffffffffffffffff9788166004820152602481019290925260ff166044820152948616606486015284608481600073cfa5ae7c2ce8fadc6426c1ff872ca45378fb7cf35af193841561030157613fc39461415957506143ac565b6141709060203d81116102fa576102ec8183612448565b5038613fbd565b9050948591613eff565b9491505061419d949798919650826000146143a85750916143ac565b92602e8511156141b75750508261304e936130909261269c565b916130bc6130b6866130c293816130b06141d1979a612f15565b90600382101561428f577f82765f668477b0e192c599c8bcda956bb2d57135f98a8bccb0cb9d886fb6e5aa54169073cfa5ae7c2ce8fadc6426c1ff872ca45378fb7cf391823b1561020a576040517fa415bcad00000000000000000000000000000000000000000000000000000000815273ffffffffffffffffffffffffffffffffffffffff808716600483015260248201869052604482019390935260006064820181905292909116608482015291829081838160a48101613194565b9060081115614376578261431a836020936142ef6103f96132c19873ffffffffffffffffffffffffffffffffffffffff166000527f893924bbf3abb5d61e6884fbda9b7e595ceeb9cfb3fbde996d4124865fe8f48f602052604060002090565b907f82765f668477b0e192c599c8bcda956bb2d57135f98a8bccb0cb9d886fb6e5aa541630916124a4565b6040517f69328dec00000000000000000000000000000000000000000000000000000000815273ffffffffffffffffffffffffffffffffffffffff90911660048201526024810183905233604482015292839081906064820190565b8161304e93613376927f82765f668477b0e192c599c8bcda956bb2d57135f98a8bccb0cb9d886fb6e5aa54169061459b565b9050915b9060406004928151938480927f0902f1ac0000000000000000000000000000000000000000000000000000000082525afa15613a1b5760403d1061020a576001926103e89161440b576103e581602085519501515b0302920202040190565b6103e58160208501519451614401565b60409290823580851c6019850135606090811c9083901c60ff831660328110156144cb5750610df46104138997969594848462ffffff61446496600098109860481c1691612945565b918082146144ad57612d326401000276a4955b8751988997889687957f128acb080000000000000000000000000000000000000000000000000000000087523360048801612744565b612d3273fffd8963efd1fc6a506488495d951d5263988d2595614477565b909597925060649194969350106144e457505050505050565b836144ef8185612e4f565b93101561457d57600073ffffffffffffffffffffffffffffffffffffffff86945b1691823b1561020a57600094614557869251998a96879586947f022c0d9f000000000000000000000000000000000000000000000000000000008652309160048701612c63565b03925af192831561030157614572936131b557503390612528565b388080808080612d8c565b8473ffffffffffffffffffffffffffffffffffffffff600094614510565b90919073ffffffffffffffffffffffffffffffffffffffff83166145c55761304e92503390612528565b61304e9233916124a4565b156145d757565b60646040517f08c379a000000000000000000000000000000000000000000000000000000000815260206004820152601260248201527f496e73756666696369656e7420537765657000000000000000000000000000006044820152fdfea26469706673582212206829115fd6f82c31d08bced72e5ca0d9bf3d6eccf78d59c8491b0bb30a204a1464736f6c63430008150033",
  "linkReferences": {},
  "deployedLinkReferences": {}
}