{
  "_format": "hh-sol-artifact-1",
  "contractName": "LensModule",
  "sourceName": "contracts/1delta/proxy/modules/LensModule.sol",
  "abi": [
    {
      "inputs": [
        {
          "internalType": "bytes4",
          "name": "_functionSelector",
          "type": "bytes4"
        }
      ],
      "name": "moduleAddress",
      "outputs": [
        {
          "internalType": "address",
          "name": "moduleAddress_",
          "type": "address"
        }
      ],
      "stateMutability": "view",
      "type": "function"
    },
    {
      "inputs": [],
      "name": "moduleAddresses",
      "outputs": [
        {
          "internalType": "address[]",
          "name": "moduleAddresses_",
          "type": "address[]"
        }
      ],
      "stateMutability": "view",
      "type": "function"
    },
    {
      "inputs": [
        {
          "internalType": "address",
          "name": "_module",
          "type": "address"
        }
      ],
      "name": "moduleFunctionSelectors",
      "outputs": [
        {
          "internalType": "bytes4[]",
          "name": "moduleFunctionSelectors_",
          "type": "bytes4[]"
        }
      ],
      "stateMutability": "view",
      "type": "function"
    },
    {
      "inputs": [],
      "name": "modules",
      "outputs": [
        {
          "components": [
            {
              "internalType": "address",
              "name": "moduleAddress",
              "type": "address"
            },
            {
              "internalType": "bytes4[]",
              "name": "functionSelectors",
              "type": "bytes4[]"
            }
          ],
          "internalType": "struct IModuleLens.Module[]",
          "name": "modules_",
          "type": "tuple[]"
        }
      ],
      "stateMutability": "view",
      "type": "function"
    },
    {
      "inputs": [
        {
          "internalType": "bytes4",
          "name": "_interfaceId",
          "type": "bytes4"
        }
      ],
      "name": "supportsInterface",
      "outputs": [
        {
          "internalType": "bool",
          "name": "",
          "type": "bool"
        }
      ],
      "stateMutability": "view",
      "type": "function"
    }
  ],
  "bytecode": "0x6080806040523461001657610a82908161001c8239f35b600080fdfe608060408181526004918236101561001657600080fd5b600090813560e01c90816301ffc9a71461063f57508063b1f6114714610535578063b763dde21461048c578063b7c89c45146103715763f7e80e981461005b57600080fd5b3461036e57807ffffffffffffffffffffffffffffffffffffffffffffffffffffffffffffffffc36011261036e57827f76a4e0db4b1954ed8d81a6d47b0f62dd8c71c2f4e57cbbe90dd863575a2bc4049182546100b781610741565b926100c4865194856106d1565b8184526100d082610741565b947fffffffffffffffffffffffffffffffffffffffffffffffffffffffffffffffe060209601845b818110610307575050835b8381106101f9575050505083519280840191818552835180935285850182878560051b880101950196825b85841061013b5787870388f35b90919293867fffffffffffffffffffffffffffffffffffffffffffffffffffffffffffffffc089839899030185528951826060818785019373ffffffffffffffffffffffffffffffffffffffff8151168652015193878382015284518094520192019084905b8082106101be57505050988101989695946001019301919061012e565b919380600192947fffffffff0000000000000000000000000000000000000000000000000000000087511681520194019201889392916101a1565b8185969897955261028f73ffffffffffffffffffffffffffffffffffffffff827fbbb6f07362f6a44981d7b2874ae38217851184d0d63296de7352333f850ed73a01541680610248848c610759565b515273ffffffffffffffffffffffffffffffffffffffff166000527f76a4e0db4b1954ed8d81a6d47b0f62dd8c71c2f4e57cbbe90dd863575a2bc403602052604060002090565b6102a58661029d848c610759565b51019161079c565b90527fffffffffffffffffffffffffffffffffffffffffffffffffffffffffffffffff81146102db576001019694939596610103565b6024866011857f4e487b7100000000000000000000000000000000000000000000000000000000835252fd5b88979596985188810181811067ffffffffffffffff8211176103425789528781526060878201528982018701529697949694959487016100f8565b6024896041887f4e487b7100000000000000000000000000000000000000000000000000000000835252fd5b80fd5b503461036e57807ffffffffffffffffffffffffffffffffffffffffffffffffffffffffffffffffc36011261036e579080519182907f76a4e0db4b1954ed8d81a6d47b0f62dd8c71c2f4e57cbbe90dd863575a2bc404918254808652602080960190819484527fbbb6f07362f6a44981d7b2874ae38217851184d0d63296de7352333f850ed73a90845b81811061046257505050816104119103826106d1565b83519485948186019282875251809352850193925b82811061043557505050500390f35b835173ffffffffffffffffffffffffffffffffffffffff1685528695509381019392810192600101610426565b825473ffffffffffffffffffffffffffffffffffffffff16845292880192600192830192016103fb565b5091346105315760207ffffffffffffffffffffffffffffffffffffffffffffffffffffffffffffffffc36011261053157357fffffffff00000000000000000000000000000000000000000000000000000000811680910361053157818373ffffffffffffffffffffffffffffffffffffffff92602095527f76a4e0db4b1954ed8d81a6d47b0f62dd8c71c2f4e57cbbe90dd863575a2bc40185522054169051908152f35b8280fd5b5091903461053157602091827ffffffffffffffffffffffffffffffffffffffffffffffffffffffffffffffffc36011261063b573573ffffffffffffffffffffffffffffffffffffffff8116810361063b57836105da6105d5859373ffffffffffffffffffffffffffffffffffffffff166000527f76a4e0db4b1954ed8d81a6d47b0f62dd8c71c2f4e57cbbe90dd863575a2bc403602052604060002090565b61079c565b9083519383808695860192818752855180945286019401925b82811061060257505050500390f35b83517fffffffff0000000000000000000000000000000000000000000000000000000016855286955093810193928101926001016105f3565b8380fd5b905082843461063b5760207ffffffffffffffffffffffffffffffffffffffffffffffffffffffffffffffffc36011261063b57357fffffffff00000000000000000000000000000000000000000000000000000000811680910361063b5783527f76a4e0db4b1954ed8d81a6d47b0f62dd8c71c2f4e57cbbe90dd863575a2bc405602090815292205460ff1615158152f35b90601f7fffffffffffffffffffffffffffffffffffffffffffffffffffffffffffffffe0910116810190811067ffffffffffffffff82111761071257604052565b7f4e487b7100000000000000000000000000000000000000000000000000000000600052604160045260246000fd5b67ffffffffffffffff81116107125760051b60200190565b805182101561076d5760209160051b010190565b7f4e487b7100000000000000000000000000000000000000000000000000000000600052603260045260246000fd5b906040918251809382549283835260209182840191600052826000209460005b8160078201106109c1578461081797549383831061098a575b838310610953575b83831061091c575b8383106108e5575b8383106108ae575b838310610879575b50828210610845575b5010610819575b50905003836106d1565b565b7fffffffff0000000000000000000000000000000000000000000000000000000016815201803861080d565b600191947fffffffff0000000000000000000000000000000000000000000000000000000085831b16815201930184610806565b947fffffffff0000000000000000000000000000000000000000000000000000000085600194971b16815201930184386107fd565b9194816001917fffffffff000000000000000000000000000000000000000000000000000000008760601b168152019501916107f5565b9194816001917fffffffff000000000000000000000000000000000000000000000000000000008760801b168152019501916107ed565b9194816001917fffffffff000000000000000000000000000000000000000000000000000000008760a01b168152019501916107e5565b9194816001917fffffffff000000000000000000000000000000000000000000000000000000008760c01b168152019501916107dd565b9194816001917fffffffff000000000000000000000000000000000000000000000000000000008760e01b168152019501916107d5565b86547fffffffff0000000000000000000000000000000000000000000000000000000060e082811b8216875260c083811b83168989015260a084811b8416888a0152608085811b85166060808c019190915286901b8516908a015284881b84169089015283891b831690880152911690850152600190960195889550610100909301926008016107bc56fea2646970667358221220fd1907aa8e06d3b8bc5760aa6f4f0f1ca07eeeee7a21c0ca9cd7058684b2bde564736f6c63430008150033",
  "linkReferences": {},
  "deployedLinkReferences": {}
}