{
  "_format": "hh-sol-artifact-1",
  "contractName": "OneDeltaQuoter",
  "sourceName": "contracts/1delta/quoter/AggregationQuoter.sol",
  "abi": [
    {
      "inputs": [],
      "stateMutability": "nonpayable",
      "type": "constructor"
    },
    {
      "inputs": [],
      "name": "tickOutOfRange",
      "type": "error"
    },
    {
      "inputs": [
        {
          "internalType": "int256",
          "name": "amount0Delta",
          "type": "int256"
        },
        {
          "internalType": "int256",
          "name": "amount1Delta",
          "type": "int256"
        },
        {
          "internalType": "bytes",
          "name": "path",
          "type": "bytes"
        }
      ],
      "name": "algebraSwapCallback",
      "outputs": [],
      "stateMutability": "view",
      "type": "function"
    },
    {
      "inputs": [
        {
          "internalType": "bytes",
          "name": "path",
          "type": "bytes"
        },
        {
          "internalType": "uint256",
          "name": "amountIn",
          "type": "uint256"
        }
      ],
      "name": "quoteExactInput",
      "outputs": [
        {
          "internalType": "uint256",
          "name": "amountOut",
          "type": "uint256"
        }
      ],
      "stateMutability": "nonpayable",
      "type": "function"
    },
    {
      "inputs": [
        {
          "internalType": "address",
          "name": "tokenIn",
          "type": "address"
        },
        {
          "internalType": "address",
          "name": "tokenOut",
          "type": "address"
        },
        {
          "internalType": "uint24",
          "name": "fee",
          "type": "uint24"
        },
        {
          "internalType": "uint8",
          "name": "pId",
          "type": "uint8"
        },
        {
          "internalType": "uint256",
          "name": "amountIn",
          "type": "uint256"
        }
      ],
      "name": "quoteExactInputSingleV3",
      "outputs": [
        {
          "internalType": "uint256",
          "name": "amountOut",
          "type": "uint256"
        }
      ],
      "stateMutability": "nonpayable",
      "type": "function"
    },
    {
      "inputs": [
        {
          "internalType": "bytes",
          "name": "path",
          "type": "bytes"
        },
        {
          "internalType": "uint256",
          "name": "amountIn",
          "type": "uint256"
        }
      ],
      "name": "quoteExactInputV3",
      "outputs": [
        {
          "internalType": "uint256",
          "name": "amountOut",
          "type": "uint256"
        }
      ],
      "stateMutability": "nonpayable",
      "type": "function"
    },
    {
      "inputs": [
        {
          "internalType": "bytes",
          "name": "path",
          "type": "bytes"
        },
        {
          "internalType": "uint256",
          "name": "amountOut",
          "type": "uint256"
        }
      ],
      "name": "quoteExactOutput",
      "outputs": [
        {
          "internalType": "uint256",
          "name": "amountIn",
          "type": "uint256"
        }
      ],
      "stateMutability": "nonpayable",
      "type": "function"
    },
    {
      "inputs": [
        {
          "internalType": "address",
          "name": "tokenIn",
          "type": "address"
        },
        {
          "internalType": "address",
          "name": "tokenOut",
          "type": "address"
        },
        {
          "internalType": "uint24",
          "name": "fee",
          "type": "uint24"
        },
        {
          "internalType": "uint8",
          "name": "poolId",
          "type": "uint8"
        },
        {
          "internalType": "uint256",
          "name": "amountOut",
          "type": "uint256"
        }
      ],
      "name": "quoteExactOutputSingleV3",
      "outputs": [
        {
          "internalType": "uint256",
          "name": "amountIn",
          "type": "uint256"
        }
      ],
      "stateMutability": "nonpayable",
      "type": "function"
    },
    {
      "inputs": [
        {
          "internalType": "bytes",
          "name": "path",
          "type": "bytes"
        },
        {
          "internalType": "uint256",
          "name": "amountOut",
          "type": "uint256"
        }
      ],
      "name": "quoteExactOutputV3",
      "outputs": [
        {
          "internalType": "uint256",
          "name": "amountIn",
          "type": "uint256"
        }
      ],
      "stateMutability": "nonpayable",
      "type": "function"
    },
    {
      "inputs": [
        {
          "internalType": "int256",
          "name": "amount0Delta",
          "type": "int256"
        },
        {
          "internalType": "int256",
          "name": "amount1Delta",
          "type": "int256"
        },
        {
          "internalType": "bytes",
          "name": "path",
          "type": "bytes"
        }
      ],
      "name": "uniswapV3SwapCallback",
      "outputs": [],
      "stateMutability": "view",
      "type": "function"
    }
  ],
  "bytecode": "0x60c08060405234610050576401000276a460805273fffd8963efd1fc6a506488495d951d5263988d2560a052610ff4908161005682396080518181816105670152610954015260a051816106d70152f35b600080fdfe6080604052600436101561001257600080fd5b60003560e01c80632c8958f6146100745780632f80bb1d146100925780637fce253a1461008d578063cdca175314610088578063d1f15f4c14610083578063d8ef1bd71461007e578063f0cade1d146100795763fa461e331461007457600080fd5b61013b565b6102f1565b6102d5565b6102b9565b610222565b610209565b346100b35760206100ab6100a5366101b8565b91610ec1565b604051908152f35b600080fd5b9181601f840112156100b35782359167ffffffffffffffff83116100b357602083818601950101116100b357565b60607ffffffffffffffffffffffffffffffffffffffffffffffffffffffffffffffffc8201126100b35760043591602435916044359067ffffffffffffffff82116100b357610137916004016100b8565b9091565b346100b357610149366100e6565b5091906018833560601c93013560601c90600083136000146101a35761016e9061030a565b9192105b1561018257602090604051908152fd5b6000549081610197575b602083604051908152fd5b036100b357388061018c565b916101b09093919361030a565b919210610172565b60407ffffffffffffffffffffffffffffffffffffffffffffffffffffffffffffffffc8201126100b3576004359067ffffffffffffffff82116100b357610201916004016100b8565b909160243590565b346100b35760206100ab61021c366101b8565b91610888565b346100b35760206100ab610235366101b8565b91610cc3565b7ffffffffffffffffffffffffffffffffffffffffffffffffffffffffffffffffc60a09101126100b35773ffffffffffffffffffffffffffffffffffffffff9060043582811681036100b3579160243590811681036100b3579060443562ffffff811681036100b3579060643560ff811681036100b3579060843590565b346100b35760206100ab6102cc3661023b565b93929092610507565b346100b35760206100ab6102e83661023b565b93929092610901565b346100b35760206100ab610304366101b8565b91610a89565b7f800000000000000000000000000000000000000000000000000000000000000081146103375760000390565b7f4e487b7100000000000000000000000000000000000000000000000000000000600052601160045260246000fd5b7f4e487b7100000000000000000000000000000000000000000000000000000000600052604160045260246000fd5b90601f7fffffffffffffffffffffffffffffffffffffffffffffffffffffffffffffffe0910116810190811067ffffffffffffffff8211176103d657604052565b610366565b91908260409103126100b3576020825192015190565b60005b8381106104045750506000910152565b81810151838201526020016103f4565b907fffffffffffffffffffffffffffffffffffffffffffffffffffffffffffffffe0601f602093610450815180928187528780880191016103f1565b0116010190565b919360a09361049a969573ffffffffffffffffffffffffffffffffffffffff80941685521515602085015260408401521660608201528160808201520190610414565b90565b67ffffffffffffffff81116103d657601f017fffffffffffffffffffffffffffffffffffffffffffffffffffffffffffffffe01660200190565b3d15610502573d906104e88261049d565b916104f66040519384610395565b82523d6000602084013e565b606090565b939060409293916000809661064e73ffffffffffffffffffffffffffffffffffffffff808616908316109161062261055d610544898c8a86610afd565b73ffffffffffffffffffffffffffffffffffffffff1690565b968486146106d5577f0000000000000000000000000000000000000000000000000000000000000000985b8a519b8c9460208601927fff00000000000000000000000000000000000000000000000000000000000000907fffffff0000000000000000000000000000000000000000000000000000000000602c9693947fffffffffffffffffffffffffffffffffffffffff000000000000000000000000809660601b16875260e81b16601486015260f81b16601784015260601b1660188201520190565b037fffffffffffffffffffffffffffffffffffffffffffffffffffffffffffffffe08101895288610395565b6106878651978896879586947f128acb080000000000000000000000000000000000000000000000000000000086523060048701610457565b03925af190816106a8575b5061049a575061049a6106a36104d7565b61077b565b6106c89060403d81116106ce575b6106c08183610395565b8101906103db565b50610692565b503d6106b6565b7f000000000000000000000000000000000000000000000000000000000000000098610588565b6020818303126100b35780519067ffffffffffffffff82116100b3570181601f820112156100b357805161072f8161049d565b9261073d6040519485610395565b818452602082840101116100b35761049a91602080850191016103f1565b90602061049a928181520190610414565b908160209103126100b3575190565b80516020810361079957508060208061049a9351830101910161076c565b6044116107ef576107b98160248060046107eb95015183010191016106fc565b6040519182917f08c379a00000000000000000000000000000000000000000000000000000000083526004830161075b565b0390fd5b60646040517f08c379a000000000000000000000000000000000000000000000000000000000815260206004820152601060248201527f556e6578706563746564206572726f72000000000000000000000000000000006044820152fd5b90929192836018116100b35783116100b357601801917fffffffffffffffffffffffffffffffffffffffffffffffffffffffffffffffe80190565b909291926000935b6108b883359160606018809601938060401c9162ffffff8260481c16918635821c911c610507565b9283602c8411156108f9575082106108f5577fffffffffffffffffffffffffffffffffffffffffffffffffffffffffffffffe89091019091610890565b8480fd5b955050505050565b9360409293919460008096610a0e73ffffffffffffffffffffffffffffffffffffffff808316908516109185845561062261094a6109446105448a8d868b610afd565b9761030a565b958486146106d5577f0000000000000000000000000000000000000000000000000000000000000000988a519b8c9460208601927fff00000000000000000000000000000000000000000000000000000000000000907fffffff0000000000000000000000000000000000000000000000000000000000602c9693947fffffffffffffffffffffffffffffffffffffffff000000000000000000000000809660601b16875260e81b16601486015260f81b16601784015260601b1660188201520190565b610a478651978896879586947f128acb080000000000000000000000000000000000000000000000000000000086523060048701610457565b03925af19081610a6c575b5061049a575061049a610a636104d7565b6000805561077b565b610a839060403d81116106ce576106c08183610395565b50610a52565b909291926000935b610aba83359160606018809601938060401c9162ffffff8260481c1691811c908635901c610901565b92602c831115610af55782106108f5577fffffffffffffffffffffffffffffffffffffffffffffffffffffffffffffffe89091019091610a91565b509193505050565b90916055939260ff604051941680600014610c3c57600114610bad577fff917933899c6a5f8e37f31e19f92cdbff7e8ff0e200000000000000000000008452601584019281811015610ba057835260358401525b62ffffff16838301526060812090527fe34f199b19b2b4f47f68442619d555527d244f78a3297ea89325f843f87b8b5460358201522073ffffffffffffffffffffffffffffffffffffffff1690565b9083526035840152610b51565b90507fff2d98e2fa9da15aa6dc9581ab097ced7af697cb92000000000000000000000083526015830191818110600014610c2f57825260358301525b6040812090527f6ec6c9c8091d160c0aa74b2b14ba9c1717e95093bd3ac085cee99a49aab294a460358201522073ffffffffffffffffffffffffffffffffffffffff1690565b9082526035830152610be9565b507fff1f98431c8ad98523631ae4a59f267346ea31f98400000000000000000000008452601584019281811015610ba0578352603584015262ffffff16838301526060812090527fe34f199b19b2b4f47f68442619d555527d244f78a3297ea89325f843f87b8b5460358201522073ffffffffffffffffffffffffffffffffffffffff1690565b9192906000935b8335604081811c91606081811c92601889013590911c919060ff85166032811015610d2b5750509062ffffff610d079594939260481c1691610507565b925b602c821115610d24579080610d1d9261084d565b9092610cca565b5050915090565b60649195925098959893929310610d46575b50505050610d09565b610d54908383999699610dcf565b9280610b00947f0902f1ac0000000000000000000000000000000000000000000000000000000086526004610c009687925afa15610dc6573d10610dc25710610db857610c205190515b6103e86103e5920282840201920202049238808080610d3d565b51610c2051610d9e565b8780fd5b883d81803e3d90fd5b9080821015610eb357610b1452610b00525b60ff6028610b0c209116603214610e60577fffc35dadb65012ec5796536bd9864ed8773abc74c40000000000000000000000610b0052610b15527fe18a34eb0e04b04f7a0ac29a6e80748dca96319b42c54d679cb821dca90c6303610b35525b6055610b002073ffffffffffffffffffffffffffffffffffffffff1690565b7fff5757371414417b8c6caad45baef941abc7d3ab320000000000000000000000610b0052610b15527f96e8ac4277198ff8b6f785478aa9a39f403cb768dd02cbee326c3e7da348845f610b3552610e41565b90610b1452610b0052610de1565b9192906000935b833560609080821c60409180831c936018890135901c9260ff851660328110600014610f235750509062ffffff610f069594939260481c1691610901565b925b602c821115610d24579080610f1c9261084d565b9092610ec8565b606491939495925098959810610f3d575b50505050610f08565b9080610f4f8596999385600497610dcf565b8151958680927f0902f1ac0000000000000000000000000000000000000000000000000000000082525afa15610dc6573d10610dc2576001936103e89210610fae576103e581602085519501515b030292020204019238808080610f34565b6103e58160208501519451610f9d56fea2646970667358221220acd47b66bc79cd50f4829811f7da5728bf047c0cb625ad7b0ff197fec7019b9d64736f6c63430008150033",
  "linkReferences": {},
  "deployedLinkReferences": {}
}