{"abi":[{"type":"constructor","inputs":[{"name":"_owner","type":"address","internalType":"address"}],"stateMutability":"nonpayable"},{"type":"function","name":"allowApprovalDestination","inputs":[{"name":"destination","type":"address","internalType":"address"},{"name":"notes","type":"string","internalType":"string"}],"outputs":[],"stateMutability":"nonpayable"},{"type":"function","name":"allowAsset","inputs":[{"name":"asset","type":"address","internalType":"address"},{"name":"notes","type":"string","internalType":"string"}],"outputs":[],"stateMutability":"nonpayable"},{"type":"function","name":"allowCallSite","inputs":[{"name":"target","type":"address","internalType":"address"},{"name":"selector","type":"bytes4","internalType":"bytes4"},{"name":"notes","type":"string","internalType":"string"}],"outputs":[],"stateMutability":"nonpayable"},{"type":"function","name":"allowDelegationApprovalDestination","inputs":[{"name":"destination","type":"address","internalType":"address"},{"name":"notes","type":"string","internalType":"string"}],"outputs":[],"stateMutability":"nonpayable"},{"type":"function","name":"allowReceiver","inputs":[{"name":"receiver","type":"address","internalType":"address"},{"name":"notes","type":"string","internalType":"string"}],"outputs":[],"stateMutability":"nonpayable"},{"type":"function","name":"allowSender","inputs":[{"name":"sender","type":"address","internalType":"address"},{"name":"notes","type":"string","internalType":"string"}],"outputs":[],"stateMutability":"nonpayable"},{"type":"function","name":"allowWithdrawDestination","inputs":[{"name":"destination","type":"address","internalType":"address"},{"name":"notes","type":"string","internalType":"string"}],"outputs":[],"stateMutability":"nonpayable"},{"type":"function","name":"allowedApprovalDestinations","inputs":[{"name":"destination","type":"address","internalType":"address"}],"outputs":[{"name":"allowed","type":"bool","internalType":"bool"}],"stateMutability":"view"},{"type":"function","name":"allowedAssets","inputs":[{"name":"token","type":"address","internalType":"address"}],"outputs":[{"name":"allowed","type":"bool","internalType":"bool"}],"stateMutability":"view"},{"type":"function","name":"allowedCallSites","inputs":[{"name":"target","type":"address","internalType":"address"},{"name":"selector","type":"bytes4","internalType":"bytes4"}],"outputs":[{"name":"allowed","type":"bool","internalType":"bool"}],"stateMutability":"view"},{"type":"function","name":"allowedDelegationApprovalDestinations","inputs":[{"name":"destination","type":"address","internalType":"address"}],"outputs":[{"name":"allowed","type":"bool","internalType":"bool"}],"stateMutability":"view"},{"type":"function","name":"allowedReceivers","inputs":[{"name":"receiver","type":"address","internalType":"address"}],"outputs":[{"name":"allowed","type":"bool","internalType":"bool"}],"stateMutability":"view"},{"type":"function","name":"allowedSenders","inputs":[{"name":"sender","type":"address","internalType":"address"}],"outputs":[{"name":"allowed","type":"bool","internalType":"bool"}],"stateMutability":"view"},{"type":"function","name":"allowedWithdrawDestinations","inputs":[{"name":"destination","type":"address","internalType":"address"}],"outputs":[{"name":"allowed","type":"bool","internalType":"bool"}],"stateMutability":"view"},{"type":"function","name":"avatar","inputs":[],"outputs":[{"name":"","type":"address","internalType":"address"}],"stateMutability":"view"},{"type":"function","name":"callSiteCount","inputs":[],"outputs":[{"name":"","type":"uint256","internalType":"uint256"}],"stateMutability":"view"},{"type":"function","name":"getGovernanceAddress","inputs":[],"outputs":[{"name":"","type":"address","internalType":"address"}],"stateMutability":"view"},{"type":"function","name":"getInternalVersion","inputs":[],"outputs":[{"name":"","type":"uint8","internalType":"uint8"}],"stateMutability":"pure"},{"type":"function","name":"isAllowedApprovalDestination","inputs":[{"name":"receiver","type":"address","internalType":"address"}],"outputs":[{"name":"","type":"bool","internalType":"bool"}],"stateMutability":"view"},{"type":"function","name":"isAllowedAsset","inputs":[{"name":"token","type":"address","internalType":"address"}],"outputs":[{"name":"","type":"bool","internalType":"bool"}],"stateMutability":"view"},{"type":"function","name":"isAllowedCallSite","inputs":[{"name":"target","type":"address","internalType":"address"},{"name":"selector","type":"bytes4","internalType":"bytes4"}],"outputs":[{"name":"","type":"bool","internalType":"bool"}],"stateMutability":"view"},{"type":"function","name":"isAllowedDelegationApprovalDestination","inputs":[{"name":"receiver","type":"address","internalType":"address"}],"outputs":[{"name":"","type":"bool","internalType":"bool"}],"stateMutability":"view"},{"type":"function","name":"isAllowedReceiver","inputs":[{"name":"receiver","type":"address","internalType":"address"}],"outputs":[{"name":"","type":"bool","internalType":"bool"}],"stateMutability":"view"},{"type":"function","name":"isAllowedSender","inputs":[{"name":"sender","type":"address","internalType":"address"}],"outputs":[{"name":"","type":"bool","internalType":"bool"}],"stateMutability":"view"},{"type":"function","name":"isAllowedWithdrawDestination","inputs":[{"name":"receiver","type":"address","internalType":"address"}],"outputs":[{"name":"","type":"bool","internalType":"bool"}],"stateMutability":"view"},{"type":"function","name":"owner","inputs":[],"outputs":[{"name":"","type":"address","internalType":"address"}],"stateMutability":"view"},{"type":"function","name":"performCall","inputs":[{"name":"target","type":"address","internalType":"address"},{"name":"callData","type":"bytes","internalType":"bytes"}],"outputs":[],"stateMutability":"nonpayable"},{"type":"function","name":"removeApprovalDestination","inputs":[{"name":"destination","type":"address","internalType":"address"},{"name":"notes","type":"string","internalType":"string"}],"outputs":[],"stateMutability":"nonpayable"},{"type":"function","name":"removeAsset","inputs":[{"name":"asset","type":"address","internalType":"address"},{"name":"notes","type":"string","internalType":"string"}],"outputs":[],"stateMutability":"nonpayable"},{"type":"function","name":"removeCallSite","inputs":[{"name":"target","type":"address","internalType":"address"},{"name":"selector","type":"bytes4","internalType":"bytes4"},{"name":"notes","type":"string","internalType":"string"}],"outputs":[],"stateMutability":"nonpayable"},{"type":"function","name":"removeDelegationApprovalDestination","inputs":[{"name":"destination","type":"address","internalType":"address"},{"name":"notes","type":"string","internalType":"string"}],"outputs":[],"stateMutability":"nonpayable"},{"type":"function","name":"removeReceiver","inputs":[{"name":"receiver","type":"address","internalType":"address"},{"name":"notes","type":"string","internalType":"string"}],"outputs":[],"stateMutability":"nonpayable"},{"type":"function","name":"removeSender","inputs":[{"name":"sender","type":"address","internalType":"address"},{"name":"notes","type":"string","internalType":"string"}],"outputs":[],"stateMutability":"nonpayable"},{"type":"function","name":"removeWithdrawDestination","inputs":[{"name":"destination","type":"address","internalType":"address"},{"name":"notes","type":"string","internalType":"string"}],"outputs":[],"stateMutability":"nonpayable"},{"type":"function","name":"renounceOwnership","inputs":[],"outputs":[],"stateMutability":"nonpayable"},{"type":"function","name":"setAvatar","inputs":[{"name":"_avatar","type":"address","internalType":"address"}],"outputs":[],"stateMutability":"nonpayable"},{"type":"function","name":"setTarget","inputs":[{"name":"_target","type":"address","internalType":"address"}],"outputs":[],"stateMutability":"nonpayable"},{"type":"function","name":"setUp","inputs":[{"name":"initializeParams","type":"bytes","internalType":"bytes"}],"outputs":[],"stateMutability":"nonpayable"},{"type":"function","name":"target","inputs":[],"outputs":[{"name":"","type":"address","internalType":"address"}],"stateMutability":"view"},{"type":"function","name":"transferOwnership","inputs":[{"name":"newOwner","type":"address","internalType":"address"}],"outputs":[],"stateMutability":"nonpayable"},{"type":"function","name":"validate1deltaPath","inputs":[{"name":"path","type":"bytes","internalType":"bytes"}],"outputs":[],"stateMutability":"view"},{"type":"function","name":"validateCall","inputs":[{"name":"sender","type":"address","internalType":"address"},{"name":"target","type":"address","internalType":"address"},{"name":"callDataWithSelector","type":"bytes","internalType":"bytes"}],"outputs":[],"stateMutability":"view"},{"type":"function","name":"validateUniswapV3Path","inputs":[{"name":"path","type":"bytes","internalType":"bytes"}],"outputs":[],"stateMutability":"view"},{"type":"function","name":"validate_1deltaDeposit","inputs":[{"name":"callData","type":"bytes","internalType":"bytes"}],"outputs":[],"stateMutability":"view"},{"type":"function","name":"validate_1deltaMulticall","inputs":[{"name":"callData","type":"bytes","internalType":"bytes"}],"outputs":[],"stateMutability":"view"},{"type":"function","name":"validate_1deltaWithdraw","inputs":[{"name":"callData","type":"bytes","internalType":"bytes"}],"outputs":[],"stateMutability":"view"},{"type":"function","name":"validate_aaveSupply","inputs":[{"name":"callData","type":"bytes","internalType":"bytes"}],"outputs":[],"stateMutability":"view"},{"type":"function","name":"validate_aaveWithdraw","inputs":[{"name":"callData","type":"bytes","internalType":"bytes"}],"outputs":[],"stateMutability":"view"},{"type":"function","name":"validate_approve","inputs":[{"name":"callData","type":"bytes","internalType":"bytes"}],"outputs":[],"stateMutability":"view"},{"type":"function","name":"validate_approveDelegation","inputs":[{"name":"callData","type":"bytes","internalType":"bytes"}],"outputs":[],"stateMutability":"view"},{"type":"function","name":"validate_exactInput","inputs":[{"name":"callData","type":"bytes","internalType":"bytes"}],"outputs":[],"stateMutability":"view"},{"type":"function","name":"validate_exactOutput","inputs":[{"name":"callData","type":"bytes","internalType":"bytes"}],"outputs":[],"stateMutability":"view"},{"type":"function","name":"validate_flashSwapAllOut","inputs":[{"name":"callData","type":"bytes","internalType":"bytes"}],"outputs":[],"stateMutability":"view"},{"type":"function","name":"validate_flashSwapExactInt","inputs":[{"name":"callData","type":"bytes","internalType":"bytes"}],"outputs":[],"stateMutability":"view"},{"type":"function","name":"validate_flashSwapExactOut","inputs":[{"name":"callData","type":"bytes","internalType":"bytes"}],"outputs":[],"stateMutability":"view"},{"type":"function","name":"validate_swapExactTokensForTokens","inputs":[{"name":"callData","type":"bytes","internalType":"bytes"}],"outputs":[],"stateMutability":"view"},{"type":"function","name":"validate_transfer","inputs":[{"name":"callData","type":"bytes","internalType":"bytes"}],"outputs":[],"stateMutability":"view"},{"type":"function","name":"validate_transferERC20AllIn","inputs":[{"name":"callData","type":"bytes","internalType":"bytes"}],"outputs":[],"stateMutability":"view"},{"type":"function","name":"validate_transferERC20In","inputs":[{"name":"callData","type":"bytes","internalType":"bytes"}],"outputs":[],"stateMutability":"view"},{"type":"function","name":"whitelistAaveV3","inputs":[{"name":"lendingPool","type":"address","internalType":"address"},{"name":"notes","type":"string","internalType":"string"}],"outputs":[],"stateMutability":"nonpayable"},{"type":"function","name":"whitelistOnedelta","inputs":[{"name":"brokerProxy","type":"address","internalType":"address"},{"name":"lendingPool","type":"address","internalType":"address"},{"name":"notes","type":"string","internalType":"string"}],"outputs":[],"stateMutability":"nonpayable"},{"type":"function","name":"whitelistToken","inputs":[{"name":"token","type":"address","internalType":"address"},{"name":"notes","type":"string","internalType":"string"}],"outputs":[],"stateMutability":"nonpayable"},{"type":"function","name":"whitelistTokenForDelegation","inputs":[{"name":"token","type":"address","internalType":"address"},{"name":"notes","type":"string","internalType":"string"}],"outputs":[],"stateMutability":"nonpayable"},{"type":"function","name":"whitelistUniswapV2Router","inputs":[{"name":"router","type":"address","internalType":"address"},{"name":"notes","type":"string","internalType":"string"}],"outputs":[],"stateMutability":"nonpayable"},{"type":"function","name":"whitelistUniswapV3Router","inputs":[{"name":"router","type":"address","internalType":"address"},{"name":"notes","type":"string","internalType":"string"}],"outputs":[],"stateMutability":"nonpayable"},{"type":"event","name":"ApprovalDestinationApproved","inputs":[{"name":"sender","type":"address","indexed":false,"internalType":"address"},{"name":"notes","type":"string","indexed":false,"internalType":"string"}],"anonymous":false},{"type":"event","name":"ApprovalDestinationRemoved","inputs":[{"name":"sender","type":"address","indexed":false,"internalType":"address"},{"name":"notes","type":"string","indexed":false,"internalType":"string"}],"anonymous":false},{"type":"event","name":"AssetApproved","inputs":[{"name":"sender","type":"address","indexed":false,"internalType":"address"},{"name":"notes","type":"string","indexed":false,"internalType":"string"}],"anonymous":false},{"type":"event","name":"AssetRemoved","inputs":[{"name":"sender","type":"address","indexed":false,"internalType":"address"},{"name":"notes","type":"string","indexed":false,"internalType":"string"}],"anonymous":false},{"type":"event","name":"AvatarSet","inputs":[{"name":"previousAvatar","type":"address","indexed":true,"internalType":"address"},{"name":"newAvatar","type":"address","indexed":true,"internalType":"address"}],"anonymous":false},{"type":"event","name":"CallSiteApproved","inputs":[{"name":"target","type":"address","indexed":false,"internalType":"address"},{"name":"selector","type":"bytes4","indexed":false,"internalType":"bytes4"},{"name":"notes","type":"string","indexed":false,"internalType":"string"}],"anonymous":false},{"type":"event","name":"CallSiteRemoved","inputs":[{"name":"target","type":"address","indexed":false,"internalType":"address"},{"name":"selector","type":"bytes4","indexed":false,"internalType":"bytes4"},{"name":"notes","type":"string","indexed":false,"internalType":"string"}],"anonymous":false},{"type":"event","name":"DelegationApprovalDestinationApproved","inputs":[{"name":"sender","type":"address","indexed":false,"internalType":"address"},{"name":"notes","type":"string","indexed":false,"internalType":"string"}],"anonymous":false},{"type":"event","name":"DelegationApprovalDestinationRemoved","inputs":[{"name":"sender","type":"address","indexed":false,"internalType":"address"},{"name":"notes","type":"string","indexed":false,"internalType":"string"}],"anonymous":false},{"type":"event","name":"Initialized","inputs":[{"name":"version","type":"uint64","indexed":false,"internalType":"uint64"}],"anonymous":false},{"type":"event","name":"OwnershipTransferred","inputs":[{"name":"previousOwner","type":"address","indexed":true,"internalType":"address"},{"name":"newOwner","type":"address","indexed":true,"internalType":"address"}],"anonymous":false},{"type":"event","name":"ReceiverApproved","inputs":[{"name":"sender","type":"address","indexed":false,"internalType":"address"},{"name":"notes","type":"string","indexed":false,"internalType":"string"}],"anonymous":false},{"type":"event","name":"ReceiverRemoved","inputs":[{"name":"sender","type":"address","indexed":false,"internalType":"address"},{"name":"notes","type":"string","indexed":false,"internalType":"string"}],"anonymous":false},{"type":"event","name":"SenderApproved","inputs":[{"name":"sender","type":"address","indexed":false,"internalType":"address"},{"name":"notes","type":"string","indexed":false,"internalType":"string"}],"anonymous":false},{"type":"event","name":"SenderRemoved","inputs":[{"name":"sender","type":"address","indexed":false,"internalType":"address"},{"name":"notes","type":"string","indexed":false,"internalType":"string"}],"anonymous":false},{"type":"event","name":"TargetSet","inputs":[{"name":"previousTarget","type":"address","indexed":true,"internalType":"address"},{"name":"newTarget","type":"address","indexed":true,"internalType":"address"}],"anonymous":false},{"type":"event","name":"WithdrawDestinationApproved","inputs":[{"name":"sender","type":"address","indexed":false,"internalType":"address"},{"name":"notes","type":"string","indexed":false,"internalType":"string"}],"anonymous":false},{"type":"event","name":"WithdrawDestinationRemoved","inputs":[{"name":"sender","type":"address","indexed":false,"internalType":"address"},{"name":"notes","type":"string","indexed":false,"internalType":"string"}],"anonymous":false},{"type":"error","name":"InvalidInitialization","inputs":[]},{"type":"error","name":"NotInitializing","inputs":[]},{"type":"error","name":"OwnableInvalidOwner","inputs":[{"name":"owner","type":"address","internalType":"address"}]},{"type":"error","name":"OwnableUnauthorizedAccount","inputs":[{"name":"account","type":"address","internalType":"address"}]}],"bytecode":{"object":"0x608060405234801561001057600080fd5b50604051613af5380380613af583398101604081905261002f9161038f565b604080516001600160a01b03831660208201526000910160408051601f19818403018152919052905061006181610068565b50506103b3565b7ff0c57e16840df040f15088dc2f81fe391c3923bec73e23a9662efc9c229c6a00805468010000000000000000810460ff1615906001600160401b03166000811580156100b25750825b90506000826001600160401b031660011480156100ce5750303b155b9050811580156100dc575080155b156100fa5760405163f92ee8a960e01b815260040160405180910390fd5b84546001600160401b0319166001178555831561012857845460ff60401b1916680100000000000000001785555b610131336101aa565b600086806020019051810190610147919061038f565b9050610152816101be565b61015b81610216565b5083156101a257845460ff60401b19168555604051600181527fc7f505b2f371ae2175ee4913f4499e1f2633a7b5936321eed1cdaeb6115181d29060200160405180910390a15b505050505050565b6101b2610256565b6101bb816102a6565b50565b6101c66102ae565b600080546001600160a01b038381166001600160a01b0319831681178455604051919092169283917f52ae88b092de36f87fb43fe794eb1381023b9c1bce563a871154022c63dce3429190a35050565b61021e6102ae565b6001600160a01b03811661024d57604051631e4fbdf760e01b8152600060048201526024015b60405180910390fd5b6101bb81610309565b7ff0c57e16840df040f15088dc2f81fe391c3923bec73e23a9662efc9c229c6a005468010000000000000000900460ff166102a457604051631afcd79f60e31b815260040160405180910390fd5b565b61021e610256565b336102e07f9016d09d72d40fdae2fd8ceac6b6234c7706214fd39c1cd1e609a0528c199300546001600160a01b031690565b6001600160a01b0316146102a45760405163118cdaa760e01b8152336004820152602401610244565b7f9016d09d72d40fdae2fd8ceac6b6234c7706214fd39c1cd1e609a0528c19930080546001600160a01b031981166001600160a01b03848116918217845560405192169182907f8be0079c531659141344cd1fd0a4f28419497f9722a3daafe3b4186f6b6457e090600090a3505050565b6001600160a01b03811681146101bb57600080fd5b6000602082840312156103a157600080fd5b81516103ac8161037a565b9392505050565b613733806103c26000396000f3fe608060405234801561001057600080fd5b50600436106103db5760003560e01c80638c2fdf9e1161020a578063d4b8399211610125578063f20e85e0116100b8578063f76081e411610087578063f76081e414610923578063f901dc3314610936578063fa2c59c814610949578063fadbcf481461095c578063fdedfa271461097f57600080fd5b8063f20e85e0146108ea578063f259a073146103e0578063f26749f3146108fd578063f2fde38b1461091057600080fd5b8063eb0de042116100f4578063eb0de04214610870578063ebe2681614610893578063ee5462cc146108a6578063efb47bff146108b957600080fd5b8063d4b8399214610824578063d4c0fe4514610837578063d7334c9d1461084a578063e98539c51461085d57600080fd5b8063a847cf4d1161019d578063c537bed01161016c578063c537bed0146107eb578063ca963c501461060a578063d075f9bb146107fe578063d2f73e3d1461081157600080fd5b8063a847cf4d14610762578063a9fc3d4f14610790578063be8c97b0146107a7578063c4cc9dba146107d857600080fd5b8063a1b6b430116101d9578063a1b6b43014610706578063a4c1cccb14610719578063a4f9edbf1461073c578063a67e1f541461074f57600080fd5b80638c2fdf9e146106c55780638da5cb5b146106d8578063957dc6c0146106e057806398b3cc39146106f357600080fd5b80635ace1d92116102fa578063713ebf3b1161028d578063761bcd9c1161025c578063761bcd9c14610679578063776d1a011461068c5780637ea446551461069f57806386b6dbe5146106b257600080fd5b8063713ebf3b14610643578063715018a61461065657806372e548a91461065e578063732524941461067157600080fd5b80636a6d5cc8116102c95780636a6d5cc8146105f75780636ad113531461060a5780636d5025f11461061d5780636d9a14231461063057600080fd5b80635ace1d92146105935780635aef7de6146105a65780635e4ccace146105d157806363cc17f2146105e457600080fd5b80632dc32a6111610372578063425f49d011610341578063425f49d0146105375780634b9412681461054a5780634b956bd81461056d57806359b92be91461058057600080fd5b80632dc32a61146104bd57806334ec8d7e146104ee5780633cf20025146105015780633ea355511461052457600080fd5b80631710a4f2116103ae5780631710a4f2146104535780631c123e77146104665780631d49039c146104795780632d12d788146104aa57600080fd5b806304a3ba25146103e057806307ac3562146103f557806307ef00cf14610408578063086cfca814610440575b600080fd5b6103f36103ee366004612b8b565b61098e565b005b6103f3610403366004612c4c565b6109f7565b61042b610416366004612ccb565b60076020526000908152604090205460ff1681565b60405190151581526020015b60405180910390f35b6103f361044e366004612ccb565b610d38565b6103f3610461366004612c4c565b610d90565b6103f3610474366004612c4c565b610e46565b61042b610487366004612ccb565b6001600160a01b031660009081526008602052604090205460ff16151560011490565b6103f36104b8366004612b8b565b610ec0565b61042b6104cb366004612ccb565b6001600160a01b031660009081526009602052604090205460ff16151560011490565b6103f36104fc366004612b8b565b610f1c565b61042b61050f366004612ccb565b60066020526000908152604090205460ff1681565b6103f3610532366004612b8b565b610f84565b6103f3610545366004612c4c565b610faf565b61042b610558366004612ccb565b60096020526000908152604090205460ff1681565b6103f361057b366004612c4c565b610fd1565b6103f361058e366004612c4c565b611076565b6103f36105a1366004612b8b565b6110f8565b6000546105b9906001600160a01b031681565b6040516001600160a01b039091168152602001610437565b6103f36105df366004612d0c565b611157565b6103f36105f2366004612b8b565b6111ed565b6103f3610605366004612c4c565b61124c565b6103f3610618366004612c4c565b6112f4565b6103f361062b366004612d6e565b611317565b6103f361063e366004612b8b565b6118a2565b61042b610651366004612d9f565b6118d8565b6103f3611910565b6103f361066c366004612b8b565b611924565b6105b9611983565b6103f3610687366004612c4c565b611992565b6103f361069a366004612ccb565b611a9d565b6103f36106ad366004612c4c565b611af7565b6103f36106c0366004612b8b565b611b34565b6103f36106d3366004612b8b565b611b93565b6105b9611bef565b6103f36106ee366004612c4c565b611c1d565b6103f3610701366004612b8b565b611cdd565b6103f3610714366004612c4c565b611d3c565b61042b610727366004612ccb565b60046020526000908152604090205460ff1681565b6103f361074a366004612c4c565b611e84565b6103f361075d366004612b8b565b611fbd565b61042b610770366004612d9f565b600260209081526000928352604080842090915290825290205460ff1681565b61079960035481565b604051908152602001610437565b61042b6107b5366004612ccb565b6001600160a01b031660009081526005602052604090205460ff16151560011490565b6103f36107e6366004612c4c565b612019565b61042b6107f9366004612ccb565b6120d4565b61042b61080c366004612ccb565b6120f7565b6103f361081f366004612b8b565b61211a565b6001546105b9906001600160a01b031681565b6103f3610845366004612c4c565b612168565b6103f3610858366004612d0c565b6121a8565b6103f361086b366004612c4c565b61221b565b61042b61087e366004612ccb565b60086020526000908152604090205460ff1681565b6103f36108a1366004612c4c565b6122bd565b6103f36108b4366004612b8b565b612354565b61042b6108c7366004612ccb565b6001600160a01b031660009081526007602052604090205460ff16151560011490565b6103f36108f8366004612b8b565b612409565b6103f361090b366004612d6e565b61245f565b6103f361091e366004612ccb565b6124d4565b6103f3610931366004612c4c565b612512565b6103f3610944366004612b8b565b61258e565b6103f3610957366004612b8b565b6125ea565b61042b61096a366004612ccb565b60056020526000908152604090205460ff1681565b60405160018152602001610437565b610996612649565b6001600160a01b03831660009081526008602052604090819020805460ff19169055517fb71be9befd3ac90c1c9981d3b1161b3c2c6dcd741f13b34061aa251226a802df906109ea90859085908590612dfd565b60405180910390a1505050565b600081806020019051810190610a0d9190612eb6565b905060005b8151811015610d33576000828281518110610a2f57610a2f612f6b565b602002602001015190506000610a52600060048461267b9092919063ffffffff16565b610a5b90612f81565b90506000610a796004808551610a719190612fd5565b85919061267b565b6040805180820190915260208082527f7472616e736665724552433230496e28616464726573732c75696e74323536299101529050631dac092b60e11b6001600160e01b0319831601610ad457610acf81611076565b610d28565b60408051808201909152601b81527f7472616e736665724552433230416c6c496e2861646472657373290000000000602090910152635cf59cb760e11b6001600160e01b0319831601610b2a57610acf81611af7565b60408051808201909152601881527f6465706f73697428616464726573732c6164647265737329000000000000000060209091015262d3ec1f60e31b6001600160e01b0319831601610b7f57610acf81612019565b60408051808201909152601981527f776974686472617728616464726573732c6164647265737329000000000000006020909101526306bf1c7b60e01b6001600160e01b0319831601610bd557610acf81612512565b610bfc6040518060600160405280602781526020016136a360279139805160209091012090565b6001600160e01b031916826001600160e01b03191603610c1f57610acf816112f4565b610c4660405180606001604052806028815260200161367b60289139805160209091012090565b6001600160e01b031916826001600160e01b03191603610c6957610acf816112f4565b60408051808201909152601e81527f666c61736853776170416c6c4f75742875696e743235362c627974657329000060209091015263d2b3d16560e01b6001600160e01b0319831601610cbf57610acf81610faf565b60405162461bcd60e51b815260206004820152603360248201527f76616c69646174655f3164656c74614d756c746963616c6c3a20556e6b6e6f776044820152723710333ab731ba34b7b71039b2b632b1ba37b960691b60648201526084015b60405180910390fd5b505050600101610a12565b505050565b610d40612649565b600080546001600160a01b038381166001600160a01b0319831681178455604051919092169283917f52ae88b092de36f87fb43fe794eb1381023b9c1bce563a871154022c63dce3429190a35050565b600081806020019051810190610da69190612ff3565b509050610dd0816001600160a01b031660009081526007602052604090205460ff16151560011490565b610e425760405162461bcd60e51b815260206004820152603c60248201527f76616c69646174655f7472616e736665723a205265636569766572206164647260448201527f657373206e6f742077686974656c6973746564206279204775617264000000006064820152608401610d1f565b5050565b6000805b610e53836127d2565b5092509050610e61826120d4565b610e7d5760405162461bcd60e51b8152600401610d1f90613021565b610e86816120d4565b610ea25760405162461bcd60e51b8152600401610d1f90613021565b610eab8361280e565b15610d3357610eb983612848565b9250610e4a565b610ec8612649565b6001600160a01b03831660009081526006602052604090819020805460ff19169055517f4e13b11ab98e672bd78295ef9cebe764dc617f95decf47d842c25b83abc0c724906109ea90859085908590612dfd565b610f4e83610f4760405180606001604052806033815260200161364860339139805160209091012090565b8484611157565b610f7983610f476040518060600160405280603481526020016136ca60349139805160209091012090565b610d33838383611cdd565b610f7983610f4760405180608001604052806043815260200161359c60439139805160209091012090565b600081806020019051810190610fc59190613069565b915050610e4281611d3c565b600081806020019051810190610fe79190612ff3565b509050611011816001600160a01b031660009081526008602052604090205460ff16151560011490565b610e425760405162461bcd60e51b815260206004820152603060248201527f76616c69646174655f617070726f76653a20417070726f76652061646472657360448201526f0e640c8decae640dcdee840dac2e8c6d60831b6064820152608401610d1f565b60008180602001905181019061108c9190612ff3565b509050611098816120d4565b610e425760405162461bcd60e51b815260206004820152602b60248201527f76616c69646174655f7472616e736665724552433230496e3a20546f6b656e2060448201526a1b9bdd08185b1b1bddd95960aa1b6064820152608401610d1f565b611100612649565b6001600160a01b03831660009081526007602052604090819020805460ff19166001179055517f3562181221a42a19ddd03a82dfe06acab1905ceb65cdaf7d86a1d9fec6643552906109ea90859085908590612dfd565b61115f612649565b6001600160a01b03841660009081526002602090815260408083206001600160e01b0319871684529091528120805460ff1916600117905560038054916111a5836130b0565b91905055507fef729aaa41b9fd994f9ff7c1960df214a84f722002e6cfbea31799cd0873a3ef848484846040516111df94939291906130c9565b60405180910390a150505050565b6111f5612649565b6001600160a01b03831660009081526009602052604090819020805460ff19166001179055517f628a44970c0e450415e3ae74334ea44f3307b74dbf677a1371190242bf2f3589906109ea90859085908590612dfd565b600080828060200190518101906112639190613108565b9250509150611271826120d4565b61128d5760405162461bcd60e51b8152600401610d1f9061314b565b611296816120f7565b610d335760405162461bcd60e51b815260206004820152602960248201527f52656365697665722061646472657373206e6f742077686974656c697374656460448201526808189e4811dd585c9960ba1b6064820152608401610d1f565b60008180602001905181019061130a9190613176565b92505050610e4281611d3c565b61131f611983565b6001600160a01b0316846001600160a01b0316031561189c5761135f846001600160a01b031660009081526005602052604090205460ff16151560011490565b6113ab5760405162461bcd60e51b815260206004820181905260248201527f76616c696461746543616c6c3a2053656e646572206e6f7420616c6c6f7765646044820152606401610d1f565b60006113ba60048284866131c6565b6113c3916131f0565b90503660006113d584600481886131c6565b915091506113e386846118d8565b61143b5760405162461bcd60e51b815260206004820152602360248201527f76616c696461746543616c6c3a2043616c6c2073697465206e6f7420616c6c6f6044820152621dd95960ea1b6064820152608401610d1f565b61146260405180608001604052806043815260200161359c60439139805160209091012090565b6001600160e01b031916836001600160e01b031916036114c0576114bb82828080601f01602080910402602001604051908101604052809392919081815260200183838082843760009201919091525061199292505050565b611898565b6114e760405180606001604052806033815260200161364860339139805160209091012090565b6001600160e01b031916836001600160e01b03191603611540576114bb82828080601f0160208091040260200160405190810160405280939291908181526020018383808284376000920191909152506122bd92505050565b6040805180820190915260128152716d756c746963616c6c2862797465735b5d2960701b602090910152630a6d35e560e31b6001600160e01b03198416016115c1576114bb82828080601f0160208091040260200160405190810160405280939291908181526020018383808284376000920191909152506109f792505050565b6040805180820190915260198152787472616e7366657228616464726573732c75696e743235362960381b6020909101526356fa634560e01b6001600160e01b0319841601611649576114bb82828080601f016020809104026020016040519081016040528093929190818152602001838380828437600092019190915250610d9092505050565b604080518082019091526018815277617070726f766528616464726573732c75696e743235362960401b60209091015263f6a1584d60e01b6001600160e01b03198416016116d0576114bb82828080601f016020809104026020016040519081016040528093929190818152602001838380828437600092019190915250610fd192505050565b6116f760405180606001604052806022815260200161362660229139805160209091012090565b6001600160e01b031916836001600160e01b03191603611750576114bb82828080601f016020809104026020016040519081016040528093929190818152602001838380828437600092019190915250611c1d92505050565b6117776040518060600160405280602681526020016135df60269139805160209091012090565b6001600160e01b031916836001600160e01b031916036117d0576114bb82828080601f01602080910402602001604051908101604052809392919081815260200183838082843760009201919091525061216892505050565b6117f760405180606001604052806021815260200161360560219139805160209091012090565b6001600160e01b031916836001600160e01b03191603611850576114bb82828080601f01602080910402602001604051908101604052809392919081815260200183838082843760009201919091525061124c92505050565b60405162461bcd60e51b815260206004820152601960248201527f556e6b6e6f776e2066756e6374696f6e2073656c6563746f72000000000000006044820152606401610d1f565b5050505b50505050565b6118cd83610f4760405180606001604052806022815260200161362660229139805160209091012090565b610d33838383611b34565b6001600160a01b03821660009081526002602090815260408083206001600160e01b03198516845290915290205460ff165b92915050565b611918612649565b6119226000612879565b565b61192c612649565b6001600160a01b03831660009081526006602052604090819020805460ff19166001179055517f62dd88c5ecfa60713a657640ebec4de26fc1aefa4afdb24e6d15a124fce72779906109ea90859085908590612dfd565b600061198d611bef565b905090565b600080828060200190518101906119a99190613228565b509350935050506119b9816120f7565b611a405760405162461bcd60e51b815260206004820152604c60248201527f76616c69646174655f737761704578616374546f6b656e73466f72546f6b656e60448201527f733a2052656365697665722061646472657373206e6f742077686974656c697360648201526b1d195908189e4811dd585c9960a21b608482015260a401610d1f565b6000805b8351811015611a9657838181518110611a5f57611a5f612f6b565b60200260200101519150611a72826120d4565b611a8e5760405162461bcd60e51b8152600401610d1f9061314b565b600101611a44565b5050505050565b611aa5612649565b600180546001600160a01b038381166001600160a01b0319831681179093556040519116919082907f90cc2f570a6eb594b1580ea3e41247d2d73a55281889e86bd4ec2fc29c7e62d690600090a35050565b600081806020019051810190611b0d91906132f8565b9050611b18816120d4565b610e425760405162461bcd60e51b8152600401610d1f90613315565b611b3c612649565b6001600160a01b03831660009081526004602052604090819020805460ff19166001179055517fad90e2570fc4fe9f7437be3188d5c791c6662892d31731992aa88f5c87621983906109ea90859085908590612dfd565b611b9b612649565b6001600160a01b03831660009081526007602052604090819020805460ff19169055517f1212f8ddb39de8e1a339460c95752d61100723efeaa34ccd94bca94393f40938906109ea90859085908590612dfd565b7f9016d09d72d40fdae2fd8ceac6b6234c7706214fd39c1cd1e609a0528c199300546001600160a01b031690565b600081806020019051810190611c339190612ff3565b509050611c5d816001600160a01b031660009081526009602052604090205460ff16151560011490565b610e425760405162461bcd60e51b815260206004820152604560248201527f76616c69646174655f617070726f766544656c65676174696f6e3a204170707260448201527f6f76652064656c65676174696f6e206164647265737320646f6573206e6f74206064820152640dac2e8c6d60db1b608482015260a401610d1f565b611ce5612649565b6001600160a01b03831660009081526008602052604090819020805460ff19166001179055517f628a44970c0e450415e3ae74334ea44f3307b74dbf677a1371190242bf2f3589906109ea90859085908590612dfd565b6000805b611d4b8360006128ea565b9150611d7a600180611d5f60036014613363565b611d699190613363565b611d739190613363565b84906128ea565b9050611d85826120d4565b611da15760405162461bcd60e51b8152600401610d1f90613376565b611daa816120d4565b611dc65760405162461bcd60e51b8152600401610d1f90613376565b600180611dd560036014613363565b611ddf9190613363565b611de99190613363565b6014600180611df9600384613363565b611e039190613363565b611e0d9190613363565b611e179190613363565b611e219190613363565b835110610d3357611e7d600180611e3a60036014613363565b611e449190613363565b611e4e9190613363565b600180611e5d60036014613363565b611e679190613363565b611e719190613363565b8551610a719190612fd5565b9250611d40565b7ff0c57e16840df040f15088dc2f81fe391c3923bec73e23a9662efc9c229c6a008054600160401b810460ff1615906001600160401b0316600081158015611ec95750825b90506000826001600160401b03166001148015611ee55750303b155b905081158015611ef3575080155b15611f115760405163f92ee8a960e01b815260040160405180910390fd5b845467ffffffffffffffff191660011785558315611f3b57845460ff60401b1916600160401b1785555b611f443361299e565b600086806020019051810190611f5a91906132f8565b9050611f6581610d38565b611f6e816124d4565b508315611fb557845460ff60401b19168555604051600181527fc7f505b2f371ae2175ee4913f4499e1f2633a7b5936321eed1cdaeb6115181d29060200160405180910390a15b505050505050565b611fc5612649565b6001600160a01b03831660009081526005602052604090819020805460ff19169055517f3097928509c53a2dab9500431201d82b0d756e8f890fd01f4ae6b33b45687ea4906109ea90859085908590612dfd565b6000808280602001905181019061203091906133bb565b9150915061203d826120d4565b6120595760405162461bcd60e51b8152600401610d1f90613315565b612062816120f7565b610d335760405162461bcd60e51b815260206004820152603b60248201527f76616c69646174655f6465706f7369743a20526563656976657220616464726560448201527f7373206e6f742077686974656c697374656420627920477561726400000000006064820152608401610d1f565b6001600160a01b031660009081526004602052604090205460ff16151560011490565b6001600160a01b031660009081526006602052604090205460ff16151560011490565b61212633848484611317565b61189c83600084848080601f016020809104026020016040519081016040528093929190818152602001838380828437600092018290525092506129af915050565b60008180602001905181019061217e91906133f5565b505050905061218c816120d4565b610e425760405162461bcd60e51b8152600401610d1f9061314b565b6121b0612649565b6001600160a01b03841660009081526002602090815260408083206001600160e01b03198716845290915290819020805460ff19169055517f37ea10f2d08f5a9803dfcd5abf3cfc7b0d6fcdf5fcbc36be9ea5a0b53d9a4d9b906111df9086908690869086906130c9565b60008180602001905181019061223191906134d7565b905061224081602001516120f7565b6122b25760405162461bcd60e51b815260206004820152603f60248201527f76616c69646174655f65786163744f75747075743a205265636569766572206160448201527f646472657373206e6f742077686974656c6973746564206279204775617264006064820152608401610d1f565b8051610e4290610e46565b6000818060200190518101906122d391906134d7565b90506122e281602001516120f7565b6122b25760405162461bcd60e51b815260206004820152603e60248201527f76616c69646174655f6578616374496e7075743a20526563656976657220616460448201527f6472657373206e6f742077686974656c697374656420627920477561726400006064820152608401610d1f565b6040805180820190915260198152787472616e7366657228616464726573732c75696e743235362960381b6020909101526123af837fa9059cbb2ab09eb219583f4a59a5d0623ade346d962bcd4e46b11da047c9049b610f47565b604080518082019091526018815277617070726f766528616464726573732c75696e743235362960401b6020909101526118cd837f095ea7b334ae44009aa867bfb386f5c3b4b443ac6f0ee573fa91c4608fbadfba610f47565b61243483610f476040518060600160405280602681526020016135df60269139805160209091012090565b610f7983610f4760405180606001604052806021815260200161360560219139805160209091012090565b6040805180820190915260128152716d756c746963616c6c2862797465735b5d2960701b6020909101526124b3847fac9650d882acfa253cba1ed543b9ff47351da99c3bd00a89625e5cdb2099009c610f47565b6124be848383611cdd565b6124c9838383611cdd565b61189c8483836111ed565b6124dc612649565b6001600160a01b03811661250657604051631e4fbdf760e01b815260006004820152602401610d1f565b61250f81612879565b50565b6000808280602001905181019061252991906133bb565b91509150612536826120d4565b6120595760405162461bcd60e51b8152602060048201526024808201527f76616c69646174655f77697468647261773a20546f6b656e206e6f7420616c6c6044820152631bddd95960e21b6064820152608401610d1f565b612596612649565b6001600160a01b03831660009081526004602052604090819020805460ff19169055517f9ca3f065622f5f03f32b7157677a0e420c3a36ab45fd49f256ffebce3e310587906109ea90859085908590612dfd565b6125f2612649565b6001600160a01b03831660009081526005602052604090819020805460ff19166001179055517fa8f9caaf4861720900294428e4ff34d37070c37afd26d96e6e4da75326d2c3ad906109ea90859085908590612dfd565b33612652611bef565b6001600160a01b0316146119225760405163118cdaa760e01b8152336004820152602401610d1f565b60608161268981601f613363565b10156126c85760405162461bcd60e51b815260206004820152600e60248201526d736c6963655f6f766572666c6f7760901b6044820152606401610d1f565b826126d38382613363565b10156127125760405162461bcd60e51b815260206004820152600e60248201526d736c6963655f6f766572666c6f7760901b6044820152606401610d1f565b61271c8284613363565b845110156127605760405162461bcd60e51b8152602060048201526011602482015270736c6963655f6f75744f66426f756e647360781b6044820152606401610d1f565b60608215801561277f57604051915060008252602082016040526127c9565b6040519150601f8416801560200281840101858101878315602002848b0101015b818310156127b85780518352602092830192016127a0565b5050858452601f01601f1916604052505b50949350505050565b600080806127e084826128ea565b92506127ed846014612a32565b90506128056127fe60036014613363565b85906128ea565b91509193909250565b600061281c60036014613363565b6014612829600382613363565b6128339190613363565b61283d9190613363565b825110159050919050565b606061190a61285960036014613363565b61286560036014613363565b84516128719190612fd5565b84919061267b565b7f9016d09d72d40fdae2fd8ceac6b6234c7706214fd39c1cd1e609a0528c19930080546001600160a01b031981166001600160a01b03848116918217845560405192169182907f8be0079c531659141344cd1fd0a4f28419497f9722a3daafe3b4186f6b6457e090600090a3505050565b6000816128f8816014613363565b101561293b5760405162461bcd60e51b8152602060048201526012602482015271746f416464726573735f6f766572666c6f7760701b6044820152606401610d1f565b612946826014613363565b8351101561298e5760405162461bcd60e51b8152602060048201526015602482015274746f416464726573735f6f75744f66426f756e647360581b6044820152606401610d1f565b500160200151600160601b900490565b6129a6612add565b61250f81612b26565b60015460405163468721a760e01b81526000916001600160a01b03169063468721a7906129e690889088908890889060040161350b565b6020604051808303816000875af1158015612a05573d6000803e3d6000fd5b505050506040513d601f19601f82011682018060405250810190612a299190613579565b95945050505050565b600081612a40816003613363565b1015612a825760405162461bcd60e51b8152602060048201526011602482015270746f55696e7432345f6f766572666c6f7760781b6044820152606401610d1f565b612a8d826003613363565b83511015612ad45760405162461bcd60e51b8152602060048201526014602482015273746f55696e7432345f6f75744f66426f756e647360601b6044820152606401610d1f565b50016003015190565b7ff0c57e16840df040f15088dc2f81fe391c3923bec73e23a9662efc9c229c6a0054600160401b900460ff1661192257604051631afcd79f60e31b815260040160405180910390fd5b6124dc612add565b6001600160a01b038116811461250f57600080fd5b60008083601f840112612b5557600080fd5b5081356001600160401b03811115612b6c57600080fd5b602083019150836020828501011115612b8457600080fd5b9250929050565b600080600060408486031215612ba057600080fd5b8335612bab81612b2e565b925060208401356001600160401b03811115612bc657600080fd5b612bd286828701612b43565b9497909650939450505050565b634e487b7160e01b600052604160045260246000fd5b604051601f8201601f191681016001600160401b0381118282101715612c1d57612c1d612bdf565b604052919050565b60006001600160401b03821115612c3e57612c3e612bdf565b50601f01601f191660200190565b600060208284031215612c5e57600080fd5b81356001600160401b03811115612c7457600080fd5b8201601f81018413612c8557600080fd5b8035612c98612c9382612c25565b612bf5565b818152856020838501011115612cad57600080fd5b81602084016020830137600091810160200191909152949350505050565b600060208284031215612cdd57600080fd5b8135612ce881612b2e565b9392505050565b80356001600160e01b031981168114612d0757600080fd5b919050565b60008060008060608587031215612d2257600080fd5b8435612d2d81612b2e565b9350612d3b60208601612cef565b925060408501356001600160401b03811115612d5657600080fd5b612d6287828801612b43565b95989497509550505050565b60008060008060608587031215612d8457600080fd5b8435612d8f81612b2e565b93506020850135612d3b81612b2e565b60008060408385031215612db257600080fd5b8235612dbd81612b2e565b9150612dcb60208401612cef565b90509250929050565b81835281816020850137506000828201602090810191909152601f909101601f19169091010190565b6001600160a01b0384168152604060208201819052600090612a299083018486612dd4565b60006001600160401b03821115612e3b57612e3b612bdf565b5060051b60200190565b60005b83811015612e60578181015183820152602001612e48565b50506000910152565b600082601f830112612e7a57600080fd5b8151612e88612c9382612c25565b818152846020838601011115612e9d57600080fd5b612eae826020830160208701612e45565b949350505050565b600060208284031215612ec857600080fd5b81516001600160401b03811115612ede57600080fd5b8201601f81018413612eef57600080fd5b8051612efd612c9382612e22565b8082825260208201915060208360051b850101925086831115612f1f57600080fd5b602084015b83811015612f605780516001600160401b03811115612f4257600080fd5b612f5189602083890101612e69565b84525060209283019201612f24565b509695505050505050565b634e487b7160e01b600052603260045260246000fd5b805160208201516001600160e01b0319811691906004821015612fb8576001600160e01b0319600483900360031b81901b82161692505b5050919050565b634e487b7160e01b600052601160045260246000fd5b8181038181111561190a5761190a612fbf565b8051612d0781612b2e565b6000806040838503121561300657600080fd5b825161301181612b2e565b6020939093015192949293505050565b60208082526028908201527f76616c6964617465556e69737761705633506174683a20546f6b656e206e6f7460408201526708185b1b1bddd95960c21b606082015260800190565b6000806040838503121561307c57600080fd5b825160208401519092506001600160401b0381111561309a57600080fd5b6130a685828601612e69565b9150509250929050565b6000600182016130c2576130c2612fbf565b5060010190565b6001600160a01b03851681526001600160e01b0319841660208201526060604082018190526000906130fe9083018486612dd4565b9695505050505050565b60008060006060848603121561311d57600080fd5b835161312881612b2e565b60208501516040860151919450925061314081612b2e565b809150509250925092565b602080825260119082015270151bdad95b881b9bdd08185b1b1bddd959607a1b604082015260600190565b60008060006060848603121561318b57600080fd5b83516020850151604086015191945092506001600160401b038111156131b057600080fd5b6131bc86828701612e69565b9150509250925092565b600080858511156131d657600080fd5b838611156131e357600080fd5b5050820193919092039150565b80356001600160e01b03198116906004841015613221576001600160e01b0319600485900360031b81901b82161691505b5092915050565b600080600080600060a0868803121561324057600080fd5b85516020870151604088015191965094506001600160401b0381111561326557600080fd5b8601601f8101881361327657600080fd5b8051613284612c9382612e22565b8082825260208201915060208360051b85010192508a8311156132a657600080fd5b6020840193505b828410156132d15783516132c081612b2e565b8252602093840193909101906132ad565b95506132e39250505060608701612fe8565b60809690960151949793965091949392915050565b60006020828403121561330a57600080fd5b8151612ce881612b2e565b6020808252602e908201527f76616c69646174655f7472616e736665724552433230416c6c496e3a20546f6b60408201526d195b881b9bdd08185b1b1bddd95960921b606082015260800190565b8082018082111561190a5761190a612fbf565b60208082526025908201527f76616c69646174653164656c7461506174683a20546f6b656e206e6f7420616c6040820152641b1bddd95960da1b606082015260800190565b600080604083850312156133ce57600080fd5b82516133d981612b2e565b60208401519092506133ea81612b2e565b809150509250929050565b6000806000806080858703121561340b57600080fd5b845161341681612b2e565b60208601516040870151919550935061342e81612b2e565b6060959095015193969295505050565b600060a0828403121561345057600080fd5b60405160a081016001600160401b038111828210171561347257613472612bdf565b806040525080915082516001600160401b0381111561349057600080fd5b61349c85828601612e69565b82525060208301516134ad81612b2e565b60208201526040838101519082015260608084015190820152608092830151920191909152919050565b6000602082840312156134e957600080fd5b81516001600160401b038111156134ff57600080fd5b612eae8482850161343e565b60018060a01b0385168152836020820152608060408201526000835180608084015261353e8160a0850160208801612e45565b601f01601f1916820160a00190506002831061356a57634e487b7160e01b600052602160045260246000fd5b82606083015295945050505050565b60006020828403121561358b57600080fd5b81518015158114612ce857600080fdfe737761704578616374546f6b656e73466f72546f6b656e732875696e743235362c75696e743235362c616464726573735b5d2c616464726573732c75696e7432353629737570706c7928616464726573732c75696e743235362c616464726573732c75696e74313629776974686472617728616464726573732c75696e743235362c6164647265737329617070726f766544656c65676174696f6e28616464726573732c75696e74323536296578616374496e707574282862797465732c616464726573732c75696e743235362c75696e743235362c75696e743235362929666c6173685377617045786163744f75742875696e743235362c75696e743235362c627974657329666c617368537761704578616374496e2875696e743235362c75696e743235362c62797465732965786163744f7574707574282862797465732c616464726573732c75696e743235362c75696e743235362c75696e743235362929a2646970667358221220fb976e80efe385747d2762e35ea6f5711d3dd3248e35b4d6dc693f70f1d1015164736f6c634300081a0033","linkReferences":{}},"methodIdentifiers":{"allowApprovalDestination(address,string)":"98b3cc39","allowAsset(address,string)":"86b6dbe5","allowCallSite(address,bytes4,string)":"5e4ccace","allowDelegationApprovalDestination(address,string)":"63cc17f2","allowReceiver(address,string)":"72e548a9","allowSender(address,string)":"fa2c59c8","allowWithdrawDestination(address,string)":"5ace1d92","allowedApprovalDestinations(address)":"eb0de042","allowedAssets(address)":"a4c1cccb","allowedCallSites(address,bytes4)":"a847cf4d","allowedDelegationApprovalDestinations(address)":"4b941268","allowedReceivers(address)":"3cf20025","allowedSenders(address)":"fadbcf48","allowedWithdrawDestinations(address)":"07ef00cf","avatar()":"5aef7de6","callSiteCount()":"a9fc3d4f","getGovernanceAddress()":"73252494","getInternalVersion()":"fdedfa27","isAllowedApprovalDestination(address)":"1d49039c","isAllowedAsset(address)":"c537bed0","isAllowedCallSite(address,bytes4)":"713ebf3b","isAllowedDelegationApprovalDestination(address)":"2dc32a61","isAllowedReceiver(address)":"d075f9bb","isAllowedSender(address)":"be8c97b0","isAllowedWithdrawDestination(address)":"efb47bff","owner()":"8da5cb5b","performCall(address,bytes)":"d2f73e3d","removeApprovalDestination(address,string)":"04a3ba25","removeAsset(address,string)":"f901dc33","removeCallSite(address,bytes4,string)":"d7334c9d","removeDelegationApprovalDestination(address,string)":"f259a073","removeReceiver(address,string)":"2d12d788","removeSender(address,string)":"a67e1f54","removeWithdrawDestination(address,string)":"8c2fdf9e","renounceOwnership()":"715018a6","setAvatar(address)":"086cfca8","setTarget(address)":"776d1a01","setUp(bytes)":"a4f9edbf","target()":"d4b83992","transferOwnership(address)":"f2fde38b","validate1deltaPath(bytes)":"a1b6b430","validateCall(address,address,bytes)":"6d5025f1","validateUniswapV3Path(bytes)":"1c123e77","validate_1deltaDeposit(bytes)":"c4cc9dba","validate_1deltaMulticall(bytes)":"07ac3562","validate_1deltaWithdraw(bytes)":"f76081e4","validate_aaveSupply(bytes)":"d4c0fe45","validate_aaveWithdraw(bytes)":"6a6d5cc8","validate_approve(bytes)":"4b956bd8","validate_approveDelegation(bytes)":"957dc6c0","validate_exactInput(bytes)":"ebe26816","validate_exactOutput(bytes)":"e98539c5","validate_flashSwapAllOut(bytes)":"425f49d0","validate_flashSwapExactInt(bytes)":"ca963c50","validate_flashSwapExactOut(bytes)":"6ad11353","validate_swapExactTokensForTokens(bytes)":"761bcd9c","validate_transfer(bytes)":"1710a4f2","validate_transferERC20AllIn(bytes)":"7ea44655","validate_transferERC20In(bytes)":"59b92be9","whitelistAaveV3(address,string)":"f20e85e0","whitelistOnedelta(address,address,string)":"f26749f3","whitelistToken(address,string)":"ee5462cc","whitelistTokenForDelegation(address,string)":"6d9a1423","whitelistUniswapV2Router(address,string)":"3ea35551","whitelistUniswapV3Router(address,string)":"34ec8d7e"},"id":14}