{"abi":[{"type":"receive","stateMutability":"payable"},{"type":"function","name":"enableModule","inputs":[{"name":"_module","type":"address","internalType":"address"}],"outputs":[],"stateMutability":"nonpayable"},{"type":"function","name":"exec","inputs":[{"name":"to","type":"address","internalType":"address payable"},{"name":"value","type":"uint256","internalType":"uint256"},{"name":"data","type":"bytes","internalType":"bytes"}],"outputs":[],"stateMutability":"nonpayable"},{"type":"function","name":"execTransactionFromModule","inputs":[{"name":"to","type":"address","internalType":"address payable"},{"name":"value","type":"uint256","internalType":"uint256"},{"name":"data","type":"bytes","internalType":"bytes"},{"name":"operation","type":"uint8","internalType":"uint8"}],"outputs":[{"name":"success","type":"bool","internalType":"bool"}],"stateMutability":"nonpayable"},{"type":"function","name":"module","inputs":[],"outputs":[{"name":"","type":"address","internalType":"address"}],"stateMutability":"view"},{"type":"error","name":"NotAuthorized","inputs":[{"name":"unacceptedAddress","type":"address","internalType":"address"}]}],"bytecode":{"object":"0x6080806040523460155761030a908161001a8239f35b5f80fdfe6080604052600436101561001a575b3615610018575f80fd5b005b5f3560e01c80630565bb6714610059578063468721a714610054578063610b59251461004f5763b86d52980361000e57610238565b6101fa565b61010f565b346100cd5760603660031901126100cd57600435610076816100d1565b602435604435916001600160401b0383116100cd5760805f939261009f859436906004016100e2565b80949184378284018590526001600160a01b03165af16100bd610280565b90156100c557005b602081519101fd5b5f80fd5b6001600160a01b038116036100cd57565b9181601f840112156100cd578235916001600160401b0383116100cd57602083818601950101116100cd57565b346100cd5760803660031901126100cd5760043561012c816100d1565b6024356044356001600160401b0381116100cd5761014e9036906004016100e2565b90926064359160ff83168093036100cd575f546001600160a01b031633036101e7576101b8945f9485946001036101bc575061018f6040518093819361025f565b03916001600160a01b03165af46101a4610280565b505b60405190151581529081906020820190565b0390f35b906101cc6040518094819361025f565b03926001600160a01b03165af16101e1610280565b506101a6565b634a0bfec160e01b5f523360045260245ffd5b346100cd5760203660031901126100cd57600435610217816100d1565b5f80546001600160a01b0319166001600160a01b0392909216919091179055005b346100cd575f3660031901126100cd575f546040516001600160a01b039091168152602090f35b908092918237015f815290565b634e487b7160e01b5f52604160045260245ffd5b3d156102cf573d906001600160401b0382116102ca5760405191601f8101601f19908116603f011683016001600160401b038111848210176102ca5760405282523d5f602084013e565b61026c565b60609056fea2646970667358221220a2ba191c910ac4f0cc3d20d26c12c6f33f94593b63adf4ecda961e112edfaddb64736f6c634300081a0033","linkReferences":{}},"methodIdentifiers":{"enableModule(address)":"610b5925","exec(address,uint256,bytes)":"0565bb67","execTransactionFromModule(address,uint256,bytes,uint8)":"468721a7","module()":"b86d5298"},"id":28}