{"abi":[{"type":"receive","stateMutability":"payable"},{"type":"function","name":"enableModule","inputs":[{"name":"_module","type":"address","internalType":"address"}],"outputs":[],"stateMutability":"nonpayable"},{"type":"function","name":"exec","inputs":[{"name":"to","type":"address","internalType":"address payable"},{"name":"value","type":"uint256","internalType":"uint256"},{"name":"data","type":"bytes","internalType":"bytes"}],"outputs":[],"stateMutability":"nonpayable"},{"type":"function","name":"execTransactionFromModule","inputs":[{"name":"to","type":"address","internalType":"address payable"},{"name":"value","type":"uint256","internalType":"uint256"},{"name":"data","type":"bytes","internalType":"bytes"},{"name":"operation","type":"uint8","internalType":"uint8"}],"outputs":[{"name":"success","type":"bool","internalType":"bool"}],"stateMutability":"nonpayable"},{"type":"function","name":"module","inputs":[],"outputs":[{"name":"","type":"address","internalType":"address"}],"stateMutability":"view"},{"type":"error","name":"NotAuthorized","inputs":[{"name":"unacceptedAddress","type":"address","internalType":"address"}]}],"bytecode":{"object":"0x6080604052348015600f57600080fd5b506104468061001f6000396000f3fe6080604052600436106100435760003560e01c80630565bb671461004f578063468721a714610071578063610b5925146100a6578063b86d5298146100e357600080fd5b3661004a57005b600080fd5b34801561005b57600080fd5b5061006f61006a366004610306565b61011b565b005b34801561007d57600080fd5b5061009161008c366004610362565b610197565b60405190151581526020015b60405180910390f35b3480156100b257600080fd5b5061006f6100c13660046103dc565b600080546001600160a01b0319166001600160a01b0392909216919091179055565b3480156100ef57600080fd5b50600054610103906001600160a01b031681565b6040516001600160a01b03909116815260200161009d565b60006060856001600160a01b031685858560405161013a929190610400565b60006040518083038185875af1925050503d8060008114610177576040519150601f19603f3d011682016040523d82523d6000602084013e61017c565b606091505b5090925090508161018f57805160208201fd5b505050505050565b600080546001600160a01b031633146101c957604051634a0bfec160e01b815233600482015260240160405180910390fd5b8160ff1660010361023957856001600160a01b031684846040516101ee929190610400565b600060405180830381855af49150503d8060008114610229576040519150601f19603f3d011682016040523d82523d6000602084013e61022e565b606091505b50508091505061029c565b856001600160a01b0316858585604051610254929190610400565b60006040518083038185875af1925050503d8060008114610291576040519150601f19603f3d011682016040523d82523d6000602084013e610296565b606091505b50909150505b95945050505050565b6001600160a01b03811681146102ba57600080fd5b50565b60008083601f8401126102cf57600080fd5b50813567ffffffffffffffff8111156102e757600080fd5b6020830191508360208285010111156102ff57600080fd5b9250929050565b6000806000806060858703121561031c57600080fd5b8435610327816102a5565b935060208501359250604085013567ffffffffffffffff81111561034a57600080fd5b610356878288016102bd565b95989497509550505050565b60008060008060006080868803121561037a57600080fd5b8535610385816102a5565b945060208601359350604086013567ffffffffffffffff8111156103a857600080fd5b6103b4888289016102bd565b909450925050606086013560ff811681146103ce57600080fd5b809150509295509295909350565b6000602082840312156103ee57600080fd5b81356103f9816102a5565b9392505050565b818382376000910190815291905056fea26469706673582212200446d66091ce10af1428ad4b2f918c362021407997eb056c1cb84dfb481acccf64736f6c634300081a0033","linkReferences":{}},"methodIdentifiers":{"enableModule(address)":"610b5925","exec(address,uint256,bytes)":"0565bb67","execTransactionFromModule(address,uint256,bytes,uint8)":"468721a7","module()":"b86d5298"},"id":0}