{"abi":[{"type":"constructor","inputs":[{"name":"_owner","type":"address","internalType":"address"},{"name":"_target","type":"address","internalType":"address"}],"stateMutability":"nonpayable"},{"type":"function","name":"_SIGN_COOLDOWN","inputs":[],"outputs":[{"name":"","type":"uint256","internalType":"uint256"}],"stateMutability":"view"},{"type":"function","name":"allowApprovalDestination","inputs":[{"name":"destination","type":"address","internalType":"address"},{"name":"notes","type":"string","internalType":"string"}],"outputs":[],"stateMutability":"nonpayable"},{"type":"function","name":"allowAsset","inputs":[{"name":"asset","type":"address","internalType":"address"},{"name":"notes","type":"string","internalType":"string"}],"outputs":[],"stateMutability":"nonpayable"},{"type":"function","name":"allowCallSite","inputs":[{"name":"target","type":"address","internalType":"address"},{"name":"selector","type":"bytes4","internalType":"bytes4"},{"name":"notes","type":"string","internalType":"string"}],"outputs":[],"stateMutability":"nonpayable"},{"type":"function","name":"allowDelegationApprovalDestination","inputs":[{"name":"destination","type":"address","internalType":"address"},{"name":"notes","type":"string","internalType":"string"}],"outputs":[],"stateMutability":"nonpayable"},{"type":"function","name":"allowReceiver","inputs":[{"name":"receiver","type":"address","internalType":"address"},{"name":"notes","type":"string","internalType":"string"}],"outputs":[],"stateMutability":"nonpayable"},{"type":"function","name":"allowSender","inputs":[{"name":"sender","type":"address","internalType":"address"},{"name":"notes","type":"string","internalType":"string"}],"outputs":[],"stateMutability":"nonpayable"},{"type":"function","name":"allowWithdrawDestination","inputs":[{"name":"destination","type":"address","internalType":"address"},{"name":"notes","type":"string","internalType":"string"}],"outputs":[],"stateMutability":"nonpayable"},{"type":"function","name":"allowedApprovalDestinations","inputs":[{"name":"destination","type":"address","internalType":"address"}],"outputs":[{"name":"allowed","type":"bool","internalType":"bool"}],"stateMutability":"view"},{"type":"function","name":"allowedAssets","inputs":[{"name":"token","type":"address","internalType":"address"}],"outputs":[{"name":"allowed","type":"bool","internalType":"bool"}],"stateMutability":"view"},{"type":"function","name":"allowedCCTPDestinations","inputs":[{"name":"domain","type":"uint32","internalType":"uint32"}],"outputs":[{"name":"allowed","type":"bool","internalType":"bool"}],"stateMutability":"view"},{"type":"function","name":"allowedCCTPMessengers","inputs":[{"name":"messenger","type":"address","internalType":"address"}],"outputs":[{"name":"allowed","type":"bool","internalType":"bool"}],"stateMutability":"view"},{"type":"function","name":"allowedCallSites","inputs":[{"name":"target","type":"address","internalType":"address"},{"name":"selector","type":"bytes4","internalType":"bytes4"}],"outputs":[{"name":"allowed","type":"bool","internalType":"bool"}],"stateMutability":"view"},{"type":"function","name":"allowedCowSwaps","inputs":[{"name":"destination","type":"address","internalType":"address"}],"outputs":[{"name":"allowed","type":"bool","internalType":"bool"}],"stateMutability":"view"},{"type":"function","name":"allowedDelegationApprovalDestinations","inputs":[{"name":"destination","type":"address","internalType":"address"}],"outputs":[{"name":"allowed","type":"bool","internalType":"bool"}],"stateMutability":"view"},{"type":"function","name":"allowedGMXMarkets","inputs":[{"name":"market","type":"address","internalType":"address"}],"outputs":[{"name":"allowed","type":"bool","internalType":"bool"}],"stateMutability":"view"},{"type":"function","name":"allowedGMXRouters","inputs":[{"name":"destination","type":"address","internalType":"address"}],"outputs":[{"name":"allowed","type":"bool","internalType":"bool"}],"stateMutability":"view"},{"type":"function","name":"allowedLagoonVaults","inputs":[{"name":"destination","type":"address","internalType":"address"}],"outputs":[{"name":"allowed","type":"bool","internalType":"bool"}],"stateMutability":"view"},{"type":"function","name":"allowedReceivers","inputs":[{"name":"receiver","type":"address","internalType":"address"}],"outputs":[{"name":"allowed","type":"bool","internalType":"bool"}],"stateMutability":"view"},{"type":"function","name":"allowedSenders","inputs":[{"name":"sender","type":"address","internalType":"address"}],"outputs":[{"name":"allowed","type":"bool","internalType":"bool"}],"stateMutability":"view"},{"type":"function","name":"allowedTargets","inputs":[{"name":"target","type":"address","internalType":"address"}],"outputs":[{"name":"allowed","type":"bool","internalType":"bool"}],"stateMutability":"view"},{"type":"function","name":"allowedVeloraSwappers","inputs":[{"name":"destination","type":"address","internalType":"address"}],"outputs":[{"name":"allowed","type":"bool","internalType":"bool"}],"stateMutability":"view"},{"type":"function","name":"allowedWithdrawDestinations","inputs":[{"name":"destination","type":"address","internalType":"address"}],"outputs":[{"name":"allowed","type":"bool","internalType":"bool"}],"stateMutability":"view"},{"type":"function","name":"anyAsset","inputs":[],"outputs":[{"name":"","type":"bool","internalType":"bool"}],"stateMutability":"view"},{"type":"function","name":"avatar","inputs":[],"outputs":[{"name":"","type":"address","internalType":"address"}],"stateMutability":"view"},{"type":"function","name":"callSiteCount","inputs":[],"outputs":[{"name":"","type":"uint256","internalType":"uint256"}],"stateMutability":"view"},{"type":"function","name":"getGovernanceAddress","inputs":[],"outputs":[{"name":"","type":"address","internalType":"address"}],"stateMutability":"view"},{"type":"function","name":"getInternalVersion","inputs":[],"outputs":[{"name":"","type":"uint8","internalType":"uint8"}],"stateMutability":"pure"},{"type":"function","name":"getTradingStrategyModuleVersion","inputs":[],"outputs":[{"name":"","type":"string","internalType":"string"}],"stateMutability":"pure"},{"type":"function","name":"gmxOrderVaults","inputs":[{"name":"exchangeRouter","type":"address","internalType":"address"}],"outputs":[{"name":"orderVault","type":"address","internalType":"address"}],"stateMutability":"view"},{"type":"function","name":"isAllowedApprovalDestination","inputs":[{"name":"receiver","type":"address","internalType":"address"}],"outputs":[{"name":"","type":"bool","internalType":"bool"}],"stateMutability":"view"},{"type":"function","name":"isAllowedAsset","inputs":[{"name":"token","type":"address","internalType":"address"}],"outputs":[{"name":"","type":"bool","internalType":"bool"}],"stateMutability":"view"},{"type":"function","name":"isAllowedCCTPDestination","inputs":[{"name":"domain","type":"uint32","internalType":"uint32"}],"outputs":[{"name":"","type":"bool","internalType":"bool"}],"stateMutability":"view"},{"type":"function","name":"isAllowedCCTPMessenger","inputs":[{"name":"messenger","type":"address","internalType":"address"}],"outputs":[{"name":"","type":"bool","internalType":"bool"}],"stateMutability":"view"},{"type":"function","name":"isAllowedCallSite","inputs":[{"name":"target","type":"address","internalType":"address"},{"name":"selector","type":"bytes4","internalType":"bytes4"}],"outputs":[{"name":"","type":"bool","internalType":"bool"}],"stateMutability":"view"},{"type":"function","name":"isAllowedCowSwap","inputs":[{"name":"settlement","type":"address","internalType":"address"}],"outputs":[{"name":"","type":"bool","internalType":"bool"}],"stateMutability":"view"},{"type":"function","name":"isAllowedDelegationApprovalDestination","inputs":[{"name":"receiver","type":"address","internalType":"address"}],"outputs":[{"name":"","type":"bool","internalType":"bool"}],"stateMutability":"view"},{"type":"function","name":"isAllowedGMXMarket","inputs":[{"name":"market","type":"address","internalType":"address"}],"outputs":[{"name":"","type":"bool","internalType":"bool"}],"stateMutability":"view"},{"type":"function","name":"isAllowedGMXRouter","inputs":[{"name":"router","type":"address","internalType":"address"}],"outputs":[{"name":"","type":"bool","internalType":"bool"}],"stateMutability":"view"},{"type":"function","name":"isAllowedLagoonVault","inputs":[{"name":"vault","type":"address","internalType":"address"}],"outputs":[{"name":"","type":"bool","internalType":"bool"}],"stateMutability":"view"},{"type":"function","name":"isAllowedReceiver","inputs":[{"name":"receiver","type":"address","internalType":"address"}],"outputs":[{"name":"","type":"bool","internalType":"bool"}],"stateMutability":"view"},{"type":"function","name":"isAllowedSender","inputs":[{"name":"sender","type":"address","internalType":"address"}],"outputs":[{"name":"","type":"bool","internalType":"bool"}],"stateMutability":"view"},{"type":"function","name":"isAllowedTarget","inputs":[{"name":"target","type":"address","internalType":"address"}],"outputs":[{"name":"","type":"bool","internalType":"bool"}],"stateMutability":"view"},{"type":"function","name":"isAllowedVeloraSwapper","inputs":[{"name":"swapper","type":"address","internalType":"address"}],"outputs":[{"name":"","type":"bool","internalType":"bool"}],"stateMutability":"view"},{"type":"function","name":"isAllowedWithdrawDestination","inputs":[{"name":"receiver","type":"address","internalType":"address"}],"outputs":[{"name":"","type":"bool","internalType":"bool"}],"stateMutability":"view"},{"type":"function","name":"multicall","inputs":[{"name":"data","type":"bytes[]","internalType":"bytes[]"}],"outputs":[{"name":"results","type":"bytes[]","internalType":"bytes[]"}],"stateMutability":"payable"},{"type":"function","name":"owner","inputs":[],"outputs":[{"name":"","type":"address","internalType":"address"}],"stateMutability":"view"},{"type":"function","name":"performCall","inputs":[{"name":"target","type":"address","internalType":"address"},{"name":"callData","type":"bytes","internalType":"bytes"},{"name":"value","type":"uint256","internalType":"uint256"}],"outputs":[],"stateMutability":"nonpayable"},{"type":"function","name":"performCall","inputs":[{"name":"target","type":"address","internalType":"address"},{"name":"callData","type":"bytes","internalType":"bytes"}],"outputs":[],"stateMutability":"nonpayable"},{"type":"function","name":"removeApprovalDestination","inputs":[{"name":"destination","type":"address","internalType":"address"},{"name":"notes","type":"string","internalType":"string"}],"outputs":[],"stateMutability":"nonpayable"},{"type":"function","name":"removeAsset","inputs":[{"name":"asset","type":"address","internalType":"address"},{"name":"notes","type":"string","internalType":"string"}],"outputs":[],"stateMutability":"nonpayable"},{"type":"function","name":"removeCCTPDestination","inputs":[{"name":"domain","type":"uint32","internalType":"uint32"},{"name":"notes","type":"string","internalType":"string"}],"outputs":[],"stateMutability":"nonpayable"},{"type":"function","name":"removeCallSite","inputs":[{"name":"target","type":"address","internalType":"address"},{"name":"selector","type":"bytes4","internalType":"bytes4"},{"name":"notes","type":"string","internalType":"string"}],"outputs":[],"stateMutability":"nonpayable"},{"type":"function","name":"removeDelegationApprovalDestination","inputs":[{"name":"destination","type":"address","internalType":"address"},{"name":"notes","type":"string","internalType":"string"}],"outputs":[],"stateMutability":"nonpayable"},{"type":"function","name":"removeGMXMarket","inputs":[{"name":"market","type":"address","internalType":"address"},{"name":"notes","type":"string","internalType":"string"}],"outputs":[],"stateMutability":"nonpayable"},{"type":"function","name":"removeHypercoreVault","inputs":[{"name":"vault","type":"address","internalType":"address"},{"name":"notes","type":"string","internalType":"string"}],"outputs":[],"stateMutability":"nonpayable"},{"type":"function","name":"removeReceiver","inputs":[{"name":"receiver","type":"address","internalType":"address"},{"name":"notes","type":"string","internalType":"string"}],"outputs":[],"stateMutability":"nonpayable"},{"type":"function","name":"removeSender","inputs":[{"name":"sender","type":"address","internalType":"address"},{"name":"notes","type":"string","internalType":"string"}],"outputs":[],"stateMutability":"nonpayable"},{"type":"function","name":"removeWithdrawDestination","inputs":[{"name":"destination","type":"address","internalType":"address"},{"name":"notes","type":"string","internalType":"string"}],"outputs":[],"stateMutability":"nonpayable"},{"type":"function","name":"renounceOwnership","inputs":[],"outputs":[],"stateMutability":"nonpayable"},{"type":"function","name":"setAnyAssetAllowed","inputs":[{"name":"value","type":"bool","internalType":"bool"},{"name":"notes","type":"string","internalType":"string"}],"outputs":[],"stateMutability":"nonpayable"},{"type":"function","name":"setAvatar","inputs":[{"name":"_avatar","type":"address","internalType":"address"}],"outputs":[],"stateMutability":"nonpayable"},{"type":"function","name":"setTarget","inputs":[{"name":"_target","type":"address","internalType":"address"}],"outputs":[],"stateMutability":"nonpayable"},{"type":"function","name":"setUp","inputs":[{"name":"initializeParams","type":"bytes","internalType":"bytes"}],"outputs":[],"stateMutability":"nonpayable"},{"type":"function","name":"swapAndValidateCowSwap","inputs":[{"name":"settlementContract","type":"address","internalType":"address"},{"name":"receiver","type":"address","internalType":"address"},{"name":"appData","type":"bytes32","internalType":"bytes32"},{"name":"tokenIn","type":"address","internalType":"address"},{"name":"tokenOut","type":"address","internalType":"address"},{"name":"amountIn","type":"uint256","internalType":"uint256"},{"name":"minAmountOut","type":"uint256","internalType":"uint256"}],"outputs":[],"stateMutability":"nonpayable"},{"type":"function","name":"swapAndValidateVelora","inputs":[{"name":"augustusSwapper","type":"address","internalType":"address"},{"name":"tokenIn","type":"address","internalType":"address"},{"name":"tokenOut","type":"address","internalType":"address"},{"name":"amountIn","type":"uint256","internalType":"uint256"},{"name":"minAmountOut","type":"uint256","internalType":"uint256"},{"name":"augustusCalldata","type":"bytes","internalType":"bytes"}],"outputs":[],"stateMutability":"nonpayable"},{"type":"function","name":"target","inputs":[],"outputs":[{"name":"","type":"address","internalType":"address"}],"stateMutability":"view"},{"type":"function","name":"transferOwnership","inputs":[{"name":"newOwner","type":"address","internalType":"address"}],"outputs":[],"stateMutability":"nonpayable"},{"type":"function","name":"validateCall","inputs":[{"name":"sender","type":"address","internalType":"address"},{"name":"target","type":"address","internalType":"address"},{"name":"callDataWithSelector","type":"bytes","internalType":"bytes"}],"outputs":[],"stateMutability":"view"},{"type":"function","name":"whitelistAaveV3","inputs":[{"name":"lendingPool","type":"address","internalType":"address"},{"name":"notes","type":"string","internalType":"string"}],"outputs":[],"stateMutability":"nonpayable"},{"type":"function","name":"whitelistCCTP","inputs":[{"name":"tokenMessenger","type":"address","internalType":"address"},{"name":"notes","type":"string","internalType":"string"}],"outputs":[],"stateMutability":"nonpayable"},{"type":"function","name":"whitelistCCTPDestination","inputs":[{"name":"domain","type":"uint32","internalType":"uint32"},{"name":"notes","type":"string","internalType":"string"}],"outputs":[],"stateMutability":"nonpayable"},{"type":"function","name":"whitelistCoreWriter","inputs":[{"name":"coreWriter","type":"address","internalType":"address"},{"name":"coreDepositWallet","type":"address","internalType":"address"},{"name":"notes","type":"string","internalType":"string"}],"outputs":[],"stateMutability":"nonpayable"},{"type":"function","name":"whitelistCowSwap","inputs":[{"name":"settlementContract","type":"address","internalType":"address"},{"name":"relayerContract","type":"address","internalType":"address"},{"name":"notes","type":"string","internalType":"string"}],"outputs":[],"stateMutability":"nonpayable"},{"type":"function","name":"whitelistERC4626","inputs":[{"name":"vault","type":"address","internalType":"address"},{"name":"notes","type":"string","internalType":"string"}],"outputs":[],"stateMutability":"nonpayable"},{"type":"function","name":"whitelistGMX","inputs":[{"name":"exchangeRouter","type":"address","internalType":"address"},{"name":"syntheticsRouter","type":"address","internalType":"address"},{"name":"orderVault","type":"address","internalType":"address"},{"name":"notes","type":"string","internalType":"string"}],"outputs":[],"stateMutability":"nonpayable"},{"type":"function","name":"whitelistGMXMarket","inputs":[{"name":"market","type":"address","internalType":"address"},{"name":"notes","type":"string","internalType":"string"}],"outputs":[],"stateMutability":"nonpayable"},{"type":"function","name":"whitelistHypercoreVault","inputs":[{"name":"vault","type":"address","internalType":"address"},{"name":"notes","type":"string","internalType":"string"}],"outputs":[],"stateMutability":"nonpayable"},{"type":"function","name":"whitelistLagoon","inputs":[{"name":"vault","type":"address","internalType":"address"},{"name":"notes","type":"string","internalType":"string"}],"outputs":[],"stateMutability":"nonpayable"},{"type":"function","name":"whitelistOrderly","inputs":[{"name":"orderlyVault","type":"address","internalType":"address"},{"name":"notes","type":"string","internalType":"string"}],"outputs":[],"stateMutability":"nonpayable"},{"type":"function","name":"whitelistToken","inputs":[{"name":"token","type":"address","internalType":"address"},{"name":"notes","type":"string","internalType":"string"}],"outputs":[],"stateMutability":"nonpayable"},{"type":"function","name":"whitelistTokenForDelegation","inputs":[{"name":"token","type":"address","internalType":"address"},{"name":"notes","type":"string","internalType":"string"}],"outputs":[],"stateMutability":"nonpayable"},{"type":"function","name":"whitelistUniswapV2Router","inputs":[{"name":"router","type":"address","internalType":"address"},{"name":"notes","type":"string","internalType":"string"}],"outputs":[],"stateMutability":"nonpayable"},{"type":"function","name":"whitelistUniswapV3Router","inputs":[{"name":"router","type":"address","internalType":"address"},{"name":"notes","type":"string","internalType":"string"}],"outputs":[],"stateMutability":"nonpayable"},{"type":"function","name":"whitelistVelora","inputs":[{"name":"augustusSwapper","type":"address","internalType":"address"},{"name":"tokenTransferProxy","type":"address","internalType":"address"},{"name":"notes","type":"string","internalType":"string"}],"outputs":[],"stateMutability":"nonpayable"},{"type":"event","name":"AnyAssetSet","inputs":[{"name":"value","type":"bool","indexed":false,"internalType":"bool"},{"name":"notes","type":"string","indexed":false,"internalType":"string"}],"anonymous":false},{"type":"event","name":"AnyVaultSet","inputs":[{"name":"value","type":"bool","indexed":false,"internalType":"bool"},{"name":"notes","type":"string","indexed":false,"internalType":"string"}],"anonymous":false},{"type":"event","name":"ApprovalDestinationApproved","inputs":[{"name":"destination","type":"address","indexed":false,"internalType":"address"},{"name":"notes","type":"string","indexed":false,"internalType":"string"}],"anonymous":false},{"type":"event","name":"ApprovalDestinationRemoved","inputs":[{"name":"destination","type":"address","indexed":false,"internalType":"address"},{"name":"notes","type":"string","indexed":false,"internalType":"string"}],"anonymous":false},{"type":"event","name":"AssetApproved","inputs":[{"name":"asset","type":"address","indexed":false,"internalType":"address"},{"name":"notes","type":"string","indexed":false,"internalType":"string"}],"anonymous":false},{"type":"event","name":"AssetRemoved","inputs":[{"name":"asset","type":"address","indexed":false,"internalType":"address"},{"name":"notes","type":"string","indexed":false,"internalType":"string"}],"anonymous":false},{"type":"event","name":"AvatarSet","inputs":[{"name":"previousAvatar","type":"address","indexed":true,"internalType":"address"},{"name":"newAvatar","type":"address","indexed":true,"internalType":"address"}],"anonymous":false},{"type":"event","name":"CCTPDestinationApproved","inputs":[{"name":"domain","type":"uint32","indexed":false,"internalType":"uint32"},{"name":"notes","type":"string","indexed":false,"internalType":"string"}],"anonymous":false},{"type":"event","name":"CCTPDestinationRemoved","inputs":[{"name":"domain","type":"uint32","indexed":false,"internalType":"uint32"},{"name":"notes","type":"string","indexed":false,"internalType":"string"}],"anonymous":false},{"type":"event","name":"CCTPMessengerApproved","inputs":[{"name":"tokenMessenger","type":"address","indexed":false,"internalType":"address"},{"name":"notes","type":"string","indexed":false,"internalType":"string"}],"anonymous":false},{"type":"event","name":"CallSiteApproved","inputs":[{"name":"target","type":"address","indexed":false,"internalType":"address"},{"name":"selector","type":"bytes4","indexed":false,"internalType":"bytes4"},{"name":"notes","type":"string","indexed":false,"internalType":"string"}],"anonymous":false},{"type":"event","name":"CallSiteRemoved","inputs":[{"name":"target","type":"address","indexed":false,"internalType":"address"},{"name":"selector","type":"bytes4","indexed":false,"internalType":"bytes4"},{"name":"notes","type":"string","indexed":false,"internalType":"string"}],"anonymous":false},{"type":"event","name":"CowSwapApproved","inputs":[{"name":"settlementContract","type":"address","indexed":false,"internalType":"address"},{"name":"notes","type":"string","indexed":false,"internalType":"string"}],"anonymous":false},{"type":"event","name":"DelegationApprovalDestinationApproved","inputs":[{"name":"destination","type":"address","indexed":false,"internalType":"address"},{"name":"notes","type":"string","indexed":false,"internalType":"string"}],"anonymous":false},{"type":"event","name":"DelegationApprovalDestinationRemoved","inputs":[{"name":"destination","type":"address","indexed":false,"internalType":"address"},{"name":"notes","type":"string","indexed":false,"internalType":"string"}],"anonymous":false},{"type":"event","name":"ERC4626Approved","inputs":[{"name":"vault","type":"address","indexed":false,"internalType":"address"},{"name":"notes","type":"string","indexed":false,"internalType":"string"}],"anonymous":false},{"type":"event","name":"GMXMarketApproved","inputs":[{"name":"market","type":"address","indexed":false,"internalType":"address"},{"name":"notes","type":"string","indexed":false,"internalType":"string"}],"anonymous":false},{"type":"event","name":"GMXMarketRemoved","inputs":[{"name":"market","type":"address","indexed":false,"internalType":"address"},{"name":"notes","type":"string","indexed":false,"internalType":"string"}],"anonymous":false},{"type":"event","name":"GMXRouterApproved","inputs":[{"name":"exchangeRouter","type":"address","indexed":false,"internalType":"address"},{"name":"syntheticsRouter","type":"address","indexed":false,"internalType":"address"},{"name":"notes","type":"string","indexed":false,"internalType":"string"}],"anonymous":false},{"type":"event","name":"Initialized","inputs":[{"name":"version","type":"uint64","indexed":false,"internalType":"uint64"}],"anonymous":false},{"type":"event","name":"LagoonVaultApproved","inputs":[{"name":"vault","type":"address","indexed":false,"internalType":"address"},{"name":"notes","type":"string","indexed":false,"internalType":"string"}],"anonymous":false},{"type":"event","name":"OrderSigned","inputs":[{"name":"timestamp","type":"uint256","indexed":true,"internalType":"uint256"},{"name":"orderUid","type":"bytes","indexed":false,"internalType":"bytes"},{"name":"order","type":"tuple","indexed":false,"internalType":"struct GPv2Order.Data","components":[{"name":"sellToken","type":"address","internalType":"contract IERC20"},{"name":"buyToken","type":"address","internalType":"contract IERC20"},{"name":"receiver","type":"address","internalType":"address"},{"name":"sellAmount","type":"uint256","internalType":"uint256"},{"name":"buyAmount","type":"uint256","internalType":"uint256"},{"name":"validTo","type":"uint32","internalType":"uint32"},{"name":"appData","type":"bytes32","internalType":"bytes32"},{"name":"feeAmount","type":"uint256","internalType":"uint256"},{"name":"kind","type":"bytes32","internalType":"bytes32"},{"name":"partiallyFillable","type":"bool","internalType":"bool"},{"name":"sellTokenBalance","type":"bytes32","internalType":"bytes32"},{"name":"buyTokenBalance","type":"bytes32","internalType":"bytes32"}]},{"name":"validTo","type":"uint32","indexed":false,"internalType":"uint32"},{"name":"buyAmount","type":"uint256","indexed":false,"internalType":"uint256"},{"name":"sellAmount","type":"uint256","indexed":false,"internalType":"uint256"}],"anonymous":false},{"type":"event","name":"OwnershipTransferred","inputs":[{"name":"previousOwner","type":"address","indexed":true,"internalType":"address"},{"name":"newOwner","type":"address","indexed":true,"internalType":"address"}],"anonymous":false},{"type":"event","name":"ReceiverApproved","inputs":[{"name":"receiver","type":"address","indexed":false,"internalType":"address"},{"name":"notes","type":"string","indexed":false,"internalType":"string"}],"anonymous":false},{"type":"event","name":"ReceiverRemoved","inputs":[{"name":"receiver","type":"address","indexed":false,"internalType":"address"},{"name":"notes","type":"string","indexed":false,"internalType":"string"}],"anonymous":false},{"type":"event","name":"SenderApproved","inputs":[{"name":"sender","type":"address","indexed":false,"internalType":"address"},{"name":"notes","type":"string","indexed":false,"internalType":"string"}],"anonymous":false},{"type":"event","name":"SenderRemoved","inputs":[{"name":"sender","type":"address","indexed":false,"internalType":"address"},{"name":"notes","type":"string","indexed":false,"internalType":"string"}],"anonymous":false},{"type":"event","name":"TargetSet","inputs":[{"name":"previousTarget","type":"address","indexed":true,"internalType":"address"},{"name":"newTarget","type":"address","indexed":true,"internalType":"address"}],"anonymous":false},{"type":"event","name":"VeloraSwapExecuted","inputs":[{"name":"timestamp","type":"uint256","indexed":true,"internalType":"uint256"},{"name":"augustusSwapper","type":"address","indexed":true,"internalType":"address"},{"name":"tokenIn","type":"address","indexed":false,"internalType":"address"},{"name":"tokenOut","type":"address","indexed":false,"internalType":"address"},{"name":"amountIn","type":"uint256","indexed":false,"internalType":"uint256"},{"name":"amountOut","type":"uint256","indexed":false,"internalType":"uint256"},{"name":"minAmountOut","type":"uint256","indexed":false,"internalType":"uint256"}],"anonymous":false},{"type":"event","name":"VeloraSwapperApproved","inputs":[{"name":"augustusSwapper","type":"address","indexed":false,"internalType":"address"},{"name":"notes","type":"string","indexed":false,"internalType":"string"}],"anonymous":false},{"type":"event","name":"WithdrawDestinationApproved","inputs":[{"name":"destination","type":"address","indexed":false,"internalType":"address"},{"name":"notes","type":"string","indexed":false,"internalType":"string"}],"anonymous":false},{"type":"event","name":"WithdrawDestinationRemoved","inputs":[{"name":"destination","type":"address","indexed":false,"internalType":"address"},{"name":"notes","type":"string","indexed":false,"internalType":"string"}],"anonymous":false},{"type":"error","name":"InvalidInitialization","inputs":[]},{"type":"error","name":"NotInitializing","inputs":[]},{"type":"error","name":"OwnableInvalidOwner","inputs":[{"name":"owner","type":"address","internalType":"address"}]},{"type":"error","name":"OwnableUnauthorizedAccount","inputs":[{"name":"account","type":"address","internalType":"address"}]}],"bytecode":{"object":"0x608080604052346102325760408161638d803803809161001f828561028a565b8339810103126102325761003e6020610037836102c1565b92016102c1565b604080516001600160a01b03938416602082019081529290931683820190815290835261006c60608461028a565b5f8051602061636d83398151915254604081901c60ff1615936001600160401b03821680159081610282575b6001149081610278575b15908161026f575b50610260576001600160401b031982166001175f8051602061636d8339815191525560409185610236575b506100de610359565b6100e6610359565b6100ef336102d5565b805181010312610232576101056101c4926102c1565b906001600160a01b0390610118906102c1565b16610121610384565b5f80546001600160a01b031981168317825582916001600160a01b03909116907f52ae88b092de36f87fb43fe794eb1381023b9c1bce563a871154022c63dce3429080a361016d610384565b600180546001600160a01b0319811683179091556001600160a01b03167f90cc2f570a6eb594b1580ea3e41247d2d73a55281889e86bd4ec2fc29c7e62d65f80a36101b6610384565b6001600160a01b03166102d5565b6101d8575b604051615fa290816103cb8239f35b68ff0000000000000000195f8051602061636d83398151915254165f8051602061636d833981519152557fc7f505b2f371ae2175ee4913f4499e1f2633a7b5936321eed1cdaeb6115181d2602060405160018152a16101c9565b5f80fd5b6001600160481b03191668010000000000000001175f8051602061636d833981519152555f6100d5565b63f92ee8a960e01b5f5260045ffd5b9050155f6100aa565b303b1591506100a2565b869150610098565b601f909101601f19168101906001600160401b038211908210176102ad57604052565b634e487b7160e01b5f52604160045260245ffd5b51906001600160a01b038216820361023257565b6001600160a01b03168015610346577f9016d09d72d40fdae2fd8ceac6b6234c7706214fd39c1cd1e609a0528c19930080546001600160a01b0319811683179091556001600160a01b03167f8be0079c531659141344cd1fd0a4f28419497f9722a3daafe3b4186f6b6457e05f80a3565b631e4fbdf760e01b5f525f60045260245ffd5b60ff5f8051602061636d8339815191525460401c161561037557565b631afcd79f60e31b5f5260045ffd5b7f9016d09d72d40fdae2fd8ceac6b6234c7706214fd39c1cd1e609a0528c199300546001600160a01b031633036103b757565b63118cdaa760e01b5f523360045260245ffdfe60806040526004361015610011575f80fd5b5f3560e01c80630411fb8e1461051e57806304a3ba2514610523578063076053421461051e57806307ef00cf146103ed578063086cfca8146105195780630985b046146105145780631047789e1461050f5780631d49039c146103fc5780632d12d7881461050a5780632dc32a61146104d85780632de905bc146105055780632e31e9c614610500578063333f22e8146104e757806334ec8d7e146104fb5780633cf20025146104f65780633ea35551146104f15780633ffb788e146104ec57806347566064146104e7578063486295dc146104e25780634acf884d146104dd5780634b941268146104d85780634c03f1f8146104295780634d3d31ca146104d35780634efbad39146104ce5780635ace1d92146104c95780635aef7de6146104c45780635e4ccace146104bf5780635e6afe4d146104ba57806362d6775e146104b557806363cc17f2146104b05780636d5025f1146104ab5780636d9a1423146104a65780636fd7fdef14610474578063713ebf3b14610456578063715018a6146104a157806372e548a91461049c5780637325249414610479578063748fca4614610492578063776d1a011461049757806378addb481461043d5780637cac69c31461049257806386a6ae151461048d57806386b6dbe51461048857806387301608146104835780638c2fdf9e1461047e5780638da5cb5b146104795780638fb4dff21461047457806398b3cc391461046f5780639e4a83cf1461046a578063a4c1cccb14610465578063a4f9edbf14610460578063a67e1f541461045b578063a847cf4d14610456578063a86ddc5714610451578063a9fc3d4f1461044c578063ac9650d814610447578063acb9da1614610442578063b45ea48b146103d9578063b8fe8d5f1461043d578063ba44ad4114610438578063be8c97b0146103c5578063c2e657ae14610433578063c537bed01461042e578063cbdb1dcf14610429578063d075f9bb14610424578063d2f73e3d1461041f578063d4b839921461041a578063d7334c9d14610415578063d758150914610410578063db17a1701461040b578063e2873b6d14610406578063e6f32c5114610401578063eb0de042146103fc578063ec011440146103f7578063ee5462cc146103f2578063efb47bff146103ed578063f20e85e0146103e8578063f259a073146103e3578063f2fde38b146103de578063f84756aa146103d9578063f901dc33146103d4578063f9cf8ae5146103cf578063fa2c59c8146103ca578063fadbcf48146103c55763fdedfa27146103c0575f80fd5b61282c565b612025565b6127c1565b612674565b61260c565b611f46565b6125df565b612577565b6124d9565b6106d0565b6124c2565b6123d9565b6108e1565b612373565b612322565b612279565b61220e565b61219f565b612177565b612154565b61212d565b610e12565b612106565b61206f565b611fc2565b61169a565b611e9d565b611d9e565b611d22565b611cdf565b61149b565b611c61565b611b18565b6119b9565b61196d565b6118dd565b61145b565b6115ae565b611875565b611853565b6117fb565b6116da565b611606565b611640565b611543565b6114ef565b6113c3565b6113a9565b611351565b6111fc565b611101565b611079565b610fef565b610f71565b610eba565b610e52565b610989565b610cde565b610c6c565b610a75565b610c50565b610ba8565b610b68565b610ab5565b610a44565b6109c9565b610921565b6107ec565b610768565b610710565b61053d565b6105e6565b6001600160a01b0381160361053957565b5f80fd5b346105395760203660031901126105395760043561055a81610528565b60018060a01b03165f526011602052602060ff60405f2054166040519015158152f35b9181601f84011215610539578235916001600160401b038311610539576020838186019501011161053957565b906040600319830112610539576004356105c381610528565b91602435906001600160401b038211610539576105e29160040161057d565b9091565b34610539577fb71be9befd3ac90c1c9981d3b1161b3c2c6dcd741f13b34061aa251226a802df61064e610618366105aa565b61062393919361395f565b6001600160a01b0383165f9081526009602052604090819020805460ff191690555193849384612867565b0390a1005b6001600160a01b03165f90815260066020526040902090565b6001600160a01b03165f90815260076020526040902090565b6001600160a01b03165f908152600f6020526040902090565b6001600160a01b03165f908152600e6020526040902090565b6001600160a01b03165f90815260026020526040902090565b34610539576020366003190112610539576004356106ed81610528565b60018060a01b03165f526008602052602060ff60405f2054166040519015158152f35b346105395760203660031901126105395760043561072d81610528565b61073561395f565b5f80546001600160a01b039283166001600160a01b03198216811783559216905f80516020615e6d8339815191529080a3005b346105395760203660031901126105395760043561078581610528565b60018060a01b03165f526010602052602060ff60405f2054166040519015158152f35b6060600319820112610539576004356107c081610528565b916024356107cd81610528565b91604435906001600160401b038211610539576105e29160040161057d565b34610539577f936b7187f49d778f82d1c17d927c8006f00eac6d2e5ccb50720dbc7afda8b4a961064e5f80516020615e4d83398151915261082c366107a8565b9190809593949161083b61395f565b6001600160a01b0386165f9081526009602052604090819020805460ff191660011790555183908061086f87868b84612867565b0390a161087a61395f565b60018060a01b0381165f52600960205260405f20600160ff198254161790556108a98460405193849384612867565b0390a16001600160a01b0383165f908152600c602052604090206108d5905b805460ff19166001179055565b60405193849384612867565b34610539576020366003190112610539576004356108fe81610528565b60018060a01b03165f526009602052602060ff60405f2054166040519015158152f35b34610539577f4e13b11ab98e672bd78295ef9cebe764dc617f95decf47d842c25b83abc0c72461064e610953366105aa565b61095e93919361395f565b6001600160a01b0383165f9081526007602052604090819020805460ff191690555193849384612867565b34610539576020366003190112610539576004356109a681610528565b60018060a01b03165f52600a602052602060ff60405f2054166040519015158152f35b34610539576109d7366105aa565b6109df61395f565b73__$1aa345e7a1afe9e3f905bd75a987cc2f53$__92833b1561053957610a1a5f92604051948593630b7a416f60e21b855260048501612867565b938180849603915af48015610a3f57610a31575080f35b610a3d91505f90611a49565b005b612889565b34610539576020366003190112610539576020610a6b600435610a6681610528565b612894565b6040519015158152f35b3461053957602036600319011261053957600435610a9281610528565b60018060a01b03165f52600c602052602060ff60405f2054166040519015158152f35b3461053957610a3d610ac6366105aa565b91610acf61395f565b6001600160a01b0381165f81815260026020908152604080832063c04b8d5960e01b84529091529020600160ff198254161790555f52600360205260405f20600160ff19825416179055610b2c610b276004546133df565b600455565b5f80516020615f4d83398151915260405180610b4a868686846133f2565b0390a1610b588383836128c4565b610b63838383612956565b61362f565b3461053957602036600319011261053957600435610b8581610528565b60018060a01b03165f526007602052602060ff60405f2054166040519015158152f35b3461053957610a3d610bb9366105aa565b91610bc261395f565b6001600160a01b0381165f8181526002602090815260408083206338ed173960e01b84529091529020600160ff198254161790555f52600360205260405f20600160ff19825416179055610c1a610b276004546133df565b5f80516020615f4d83398151915260405180610c3886868684613421565b0390a1610b638383836129e3565b5f91031261053957565b34610539575f3660031901126105395760206040516104b08152f35b3461053957606036600319011261053957600435610c8981610528565b602435906001600160401b03821161053957610cc8610caf610cce93369060040161057d565b919060443592610cc181838733613b63565b3691611ac7565b9161427e565b9015610cd657005b602081519101fd5b346105395760e036600319011261053957600435610cfb81610528565b602435610d0781610528565b6044359160643591610d1883610528565b60843593610d2585610528565b60c43560a435610d336142ca565b506001600160a01b0385165f908152600c602052604090205460ff1615610dd757610cce96610dbd9685610db795610d7c610d77610d7033610653565b5460ff1690565b613992565b610d8d610d88846138a8565b6142f9565b610d9e610d99856138a8565b61433b565b610db2610dad610d708461066c565b61437e565b6150fc565b916152fe565b60208101516040906001600160a01b0316910151906141f5565b60405162461bcd60e51b815260206004820152601360248201527210dbddd4ddd85c081b9bdd08195b98589b1959606a1b6044820152606490fd5b3461053957602036600319011261053957600435610e2f81610528565b60018060a01b03165f52600e602052602060ff60405f2054166040519015158152f35b34610539577f1cc7e10cd1d551ab6504f6a15828923f911f4658af4cc1b82aeaab1d8a4ccc4c61064e610e84366105aa565b610e8f93919361395f565b6001600160a01b0383165f9081526010602052604090819020805460ff191690555193849384612867565b34610539577f4528ea4d4b1ca7b25fe4843fa8f643b7bbdc91395054ca124e68c761b44f770761064e5f80516020615e4d833981519152610efa366107a8565b91908095939491610f0961395f565b610f1161395f565b60018060a01b0381165f52600960205260405f20600160ff19825416179055610f408460405193849384612867565b0390a16001600160a01b0383165f908152600d602052604090819020805460ff191660011790555193849384612867565b34610539577f3562181221a42a19ddd03a82dfe06acab1905ceb65cdaf7d86a1d9fec664355261064e610fa3366105aa565b610fae93919361395f565b6001600160a01b0383165f9081526008602052604090819020805460ff191660011790555193849384612867565b6001600160a01b03909116815260200190565b34610539575f366003190112610539575f546040516001600160a01b039091168152602090f35b602435906001600160e01b03198216820361053957565b60606003198201126105395760043561104581610528565b916024356001600160e01b0319811681036105395791604435906001600160401b038211610539576105e29160040161057d565b34610539575f80516020615f4d83398151915261064e6110983661102d565b906110a494929461395f565b6001600160a01b0384165f8181526002602052604090206110c6908790611cc9565b600160ff198254161790555f52600360205260405f20600160ff198254161790556110f26004546133df565b60045560405194859485613599565b34610539577ffaa136302ac223cf7c1146490a741e4520e886fc22d7e759641453f432283d0161064e611133366105aa565b61113e93919361395f565b6001600160a01b0383165f818152600b60205260409020805460ff1916600117905561116861395f565b805f52600260205261118b60405f2063559ec80d60e01b5f5260205260405f2090565b600160ff198254161790555f52600360205260405f20600160ff198254161790556111ba610b276004546133df565b5f80516020615f4d833981519152604051806111d884888884613450565b0390a16111e6818585612a70565b6111f1818585612afd565b6108d5818585612b8a565b346105395760803660031901126105395760043561121981610528565b60243561122581610528565b6044359161123283610528565b606435926001600160401b0384116105395761133961064e9161127a7f4cd8335923e6c59235dad1eb0d9466176d7e2d5331062745aac072188386d7fe96369060040161057d565b92909161128561395f565b61128d61395f565b6001600160a01b0386165f818152600260209081526040808320631592ca1b60e31b84529091529020600160ff198254161790555f52600360205260405f20600160ff198254161790556112e5610b276004546133df565b5f80516020615f4d8339815191526040518061130387878b8461347f565b0390a161131184848961362f565b61131a86610685565b80546001600160a01b0319166001600160a01b03909216919091179055565b6113456108c88561069e565b604051948594856135cc565b34610539575f80516020615e4d83398151915261064e611370366105aa565b61137b93919361395f565b6001600160a01b0383165f908152600a602052604090819020805460ff191660011790555193849384612867565b3461053957610a3d6113ba366107a8565b92919091613b63565b3461053957610a3d6113d4366105aa565b916113dd61395f565b6001600160a01b0381165f818152600260209081526040808320630c04a8a160e41b84529091529020600160ff198254161790555f52600360205260405f20600160ff19825416179055611435610b276004546133df565b5f80516020615f4d83398151915260405180611453868686846134ae565b0390a1613615565b346105395760203660031901126105395760043561147881610528565b60018060a01b03165f52600b602052602060ff60405f2054166040519015158152f35b3461053957604036600319011261053957602060ff6114e36004356114bf81610528565b6114c7611016565b6001600160a01b039091165f9081526002855260409020611cc9565b54166040519015158152f35b34610539575f3660031901126105395761150761395f565b5f80516020615ead83398151915280546001600160a01b031981169091555f906001600160a01b03165f80516020615eed8339815191528280a3005b34610539577f62dd88c5ecfa60713a657640ebec4de26fc1aefa4afdb24e6d15a124fce7277961064e611575366105aa565b61158093919361395f565b6001600160a01b0383165f9081526007602052604090819020805460ff191660011790555193849384612867565b34610539575f366003190112610539575f80516020615ead833981519152546040516001600160a01b039091168152602090f35b6004359063ffffffff8216820361053957565b359063ffffffff8216820361053957565b346105395760203660031901126105395763ffffffff6116246115e2565b165f526012602052602060ff60405f2054166040519015158152f35b346105395760203660031901126105395760043561165d81610528565b61166561395f565b600180546001600160a01b039283166001600160a01b0319821681179092559091165f80516020615ecd8339815191525f80a3005b34610539576020366003190112610539576004356116b781610528565b60018060a01b03165f526003602052602060ff60405f2054166040519015158152f35b34610539576116e8366105aa565b6040516338d52e0f60e01b815292906020846004816001600160a01b0386165afa908115610a3f576108d5818561064e947fd2851df39115d63968e90113e8b3a96f13e33ac4c2e5a9caa1afeffe59e55748985f916117cc575b5061174e838389612c17565b611759838389612ca4565b611764838389612d31565b61176f838389612dbe565b61177a838389612e4b565b611785838389612ed6565b611790838389612f63565b61179b838389612ff0565b6117a683838961307d565b6117b183838961310a565b6117bc83838961362f565b6117c78383896143c1565b6143c1565b6117ee915060203d6020116117f4575b6117e68183611a49565b810190613600565b5f611742565b503d6117dc565b34610539575f80516020615f0d83398151915261064e61181a366105aa565b61182593919361395f565b6001600160a01b0383165f9081526005602052604090819020805460ff191660011790555193849384612867565b34610539575f36600319011261053957602060ff601354166040519015158152f35b34610539577f1212f8ddb39de8e1a339460c95752d61100723efeaa34ccd94bca94393f4093861064e6118a7366105aa565b6118b293919361395f565b6001600160a01b0383165f9081526008602052604090819020805460ff191690555193849384612867565b34610539575f80516020615e4d83398151915261064e6118fc366105aa565b61190793919361395f565b6001600160a01b0383165f9081526009602052604090819020805460ff191660011790555193849384612867565b805180835260209291819084018484015e5f828201840152601f01601f1916010190565b90602061196a928181520190611935565b90565b34610539575f366003190112610539576119b560405161198e604082611a49565b60068152651d8c0b8c4b8d60d21b6020820152604051918291602083526020830190611935565b0390f35b34610539576020366003190112610539576004356119d681610528565b60018060a01b03165f526005602052602060ff60405f2054166040519015158152f35b634e487b7160e01b5f52604160045260245ffd5b60a081019081106001600160401b03821117611a2857604052565b6119f9565b61010081019081106001600160401b03821117611a2857604052565b601f909101601f19168101906001600160401b03821190821017611a2857604052565b60405190611a7c61018083611a49565b565b60405190611a7c606083611a49565b60405190611a7c60e083611a49565b60405190611a7c61012083611a49565b6001600160401b038111611a2857601f01601f191660200190565b929192611ad382611aac565b91611ae16040519384611a49565b829481845281830111610539578281602093845f960137010152565b9080601f830112156105395781602061196a93359101611ac7565b34610539576020366003190112610539576004356001600160401b03811161053957611b48903690600401611afd565b5f80516020615f2d833981519152549060ff604083901c1615611b6a565b1590565b916001600160401b031680159081611c59575b6001149081611c4f575b159081611c46575b50611c37575f80516020615f2d83398151915280546001600160401b0319166001179055611bc19082611c1357613649565b611bc757005b5f80516020615f2d833981519152805460ff60401b19169055604051600181527fc7f505b2f371ae2175ee4913f4499e1f2633a7b5936321eed1cdaeb6115181d290806020810161064e565b5f80516020615f2d833981519152805460ff60401b1916600160401b179055613649565b63f92ee8a960e01b5f5260045ffd5b9050155f611b8f565b303b159150611b87565b839150611b7d565b34610539577f3097928509c53a2dab9500431201d82b0d756e8f890fd01f4ae6b33b45687ea461064e611c93366105aa565b611c9e93919361395f565b6001600160a01b0383165f9081526006602052604090819020805460ff191690555193849384612867565b9063ffffffff60e01b165f5260205260405f2090565b3461053957602036600319011261053957600435611cfc81610528565b60018060a01b03165f52600f602052602060018060a01b0360405f205416604051908152f35b34610539575f366003190112610539576020600454604051908152f35b602081016020825282518091526040820191602060408360051b8301019401925f915b838310611d7157505050505090565b9091929394602080611d8f600193603f198682030187528951611935565b97019301930191939290611d62565b6020366003190112610539576004356001600160401b0381116105395736602382011215610539576004810135906001600160401b038211610539576024810190602436918460051b01011161053957611df78261372c565b915f5b818110611e0f57604051806119b58682611d3f565b5f80611e1c838587613789565b90611e2c604051809381936137cf565b0390305af4611e396137dc565b9015611e5f5790600191611e4d8287613877565b52611e588186613877565b5001611dfa565b604481511061053957611e81816024806004611e999501518301019101613841565b60405162461bcd60e51b815291829160048301611959565b0390fd5b3461053957611eab366107a8565b91611eb461395f565b73__$1aa345e7a1afe9e3f905bd75a987cc2f53$__93843b156105395760405163565ced0b60e11b81526001600160a01b039182166004820152908216602482015260606044820152935f9085908180611f12606482018989612847565b03915af4938415610a3f57610a3d94611f2c575b5061362f565b80611f3a5f611f4093611a49565b80610c46565b5f611f26565b3461053957602036600319011261053957600435611f6381610528565b60018060a01b03165f52600d602052602060ff60405f2054166040519015158152f35b9060406003198301126105395760043563ffffffff811681036105395791602435906001600160401b038211610539576105e29160040161057d565b34610539577f1032cb8f3d65d1f2761007cb8b0ca5365671ee20a8efa21ecae1a8dfbca5b7a561064e611ff436611f86565b611fff93919361395f565b63ffffffff83165f52601260205260405f2060ff1981541690556040519384938461388b565b346105395760203660031901126105395760043561204281610528565b60018060a01b03165f526006602052602060ff60405f2054166040519015158152f35b8015150361053957565b346105395760403660031901126105395760043561208c81612065565b6024356001600160401b038111610539577f50454d9d0025a28a39cac5a4b3f3101d29b6e413fbb64f75fb42eb6837b07718916120d061064e92369060040161057d565b9290916120db61395f565b15159160ff196013541660ff8416176013556040519384938452604060208501526040840191612847565b34610539576020366003190112610539576020610a6b60043561212881610528565b6138a8565b34610539576020366003190112610539576020610a6b60043561214f81610528565b6138d8565b3461053957610cce610cc85f612169366105aa565b610cc1818385979533613b63565b34610539575f366003190112610539576001546040516001600160a01b039091168152602090f35b34610539577f37ea10f2d08f5a9803dfcd5abf3cfc7b0d6fcdf5fcbc36be9ea5a0b53d9a4d9b61064e6121d13661102d565b906121dd94929461395f565b60018060a01b0384165f5260026020526121fa8560405f20611cc9565b805460ff1916905560405194859485613599565b34610539577fefc511aabde7c4d22a66bc3bc12740a348cb98d9f7f433d6768ae8c1ab0e3cb861064e612240366105aa565b61224b93919361395f565b6001600160a01b0383165f9081526010602052604090819020805460ff191660011790555193849384612867565b3461053957610a3d61228a366105aa565b9161229361395f565b6001600160a01b0381165f818152600260209081526040808320632df4869b60e01b84529091529020600160ff198254161790555f52600360205260405f20600160ff198254161790556122eb610b276004546133df565b5f80516020615f4d83398151915260405180612309868686846134dd565b0390a1612317838383613197565b610b63838383613224565b3461053957612330366105aa565b61233861395f565b73__$1aa345e7a1afe9e3f905bd75a987cc2f53$__92833b1561053957610a1a5f9260405194859363e2873b6d60e01b855260048501612867565b34610539577f9fc3f914bc6770a3679a6a9fdb4620f0566db329f178fb033fc0c6dcce1b693d61064e6123a536611f86565b6123b093919361395f565b63ffffffff83165f52601260205260405f20600160ff198254161790556040519384938461388b565b34610539577f9efd66cbdaa05f6414ab9c4ae71d358b087e972c11874e7c3e9c7c79c61e23aa61064e61240b366105aa565b61241693919361395f565b61241e61395f565b6001600160a01b0383165f818152600260209081526040808320634701287760e11b84529091529020600160ff198254161790555f52600360205260405f20600160ff19825416179055612476610b276004546133df565b5f80516020615f4d833981519152604051806124948488888461350c565b0390a16124a281858561362f565b6001600160a01b0383165f9081526011602052604090206108d5906108c8565b3461053957610a3d6124d3366105aa565b916143c1565b3461053957610a3d6124ea366105aa565b916124f361395f565b6001600160a01b0381165f81815260026020908152604080832063617ba03760e01b84529091529020600160ff198254161790555f52600360205260405f20600160ff1982541617905561254b610b276004546133df565b5f80516020615f4d833981519152604051806125698686868461353b565b0390a1610b638383836132b1565b34610539577ff9a414ea26a64e12a2abdb23706ec196a42adeb564668fb73f46555fbd2336c261064e6125a9366105aa565b6125b493919361395f565b6001600160a01b0383165f908152600a602052604090819020805460ff191690555193849384612867565b3461053957602036600319011261053957610a3d6004356125ff81610528565b61260761395f565b613901565b34610539577f9ca3f065622f5f03f32b7157677a0e420c3a36ab45fd49f256ffebce3e31058761064e61263e366105aa565b61264993919361395f565b6001600160a01b0383165f9081526005602052604090819020805460ff191690555193849384612867565b346105395760c03660031901126105395760043561269181610528565b60243561269d81610528565b6044356126a981610528565b60a4359160843591606435916001600160401b038511610539576126d4612741953690600401611afd565b5f80546001600160a01b038981168352600d60209081526040909320549116906127009060ff16614455565b61270f610d77610d7033610653565b61271b610d88856138a8565b612727610d99866138a8565b604051809881926370a0823160e01b835260048301610fdc565b03816001600160a01b0387165afa958615610a3f575f9661278c575b5061276890876141f5565b969015612784575f54610a3d97506001600160a01b031661453c565b865160208801fd5b6127689196506127b39060203d6020116127ba575b6127ab8183611a49565b81019061449e565b959061275d565b503d6127a1565b34610539577fa8f9caaf4861720900294428e4ff34d37070c37afd26d96e6e4da75326d2c3ad61064e6127f3366105aa565b6127fe93919361395f565b6001600160a01b0383165f9081526006602052604090819020805460ff191660011790555193849384612867565b34610539575f36600319011261053957602060405160018152f35b908060209392818452848401375f828201840152601f01601f1916010190565b6001600160a01b03909116815260406020820181905261196a93910191612847565b6040513d5f823e3d90fd5b60ff601354169081156128a5575090565b6001600160a01b03165f9081526010602052604090205460ff16919050565b6129515f80516020615f4d833981519152936128de61395f565b60018060a01b038316805f52600260205260405f2063ffffffff60e01b631e51809360e31b165f5260205260405f20600160ff198254161790555f52600360205260405f20600160ff1982541617905561293c610b276004546133df565b604051938493631e51809360e31b9085613599565b0390a1565b6129515f80516020615f4d8339815191529361297061395f565b60018060a01b038316805f52600260205260405f2063ffffffff60e01b63b858183f60e01b165f5260205260405f20600160ff198254161790555f52600360205260405f20600160ff198254161790556129ce610b276004546133df565b60405193849363b858183f60e01b9085613599565b6129515f80516020615f4d833981519152936129fd61395f565b60018060a01b038316805f52600260205260405f2063ffffffff60e01b635c11d79560e01b165f5260205260405f20600160ff198254161790555f52600360205260405f20600160ff19825416179055612a5b610b276004546133df565b604051938493635c11d79560e01b9085613599565b6129515f80516020615f4d83398151915293612a8a61395f565b60018060a01b038316805f52600260205260405f2063ffffffff60e01b63a03d55e360e01b165f5260205260405f20600160ff198254161790555f52600360205260405f20600160ff19825416179055612ae8610b276004546133df565b60405193849363a03d55e360e01b9085613599565b6129515f80516020615f4d83398151915293612b1761395f565b60018060a01b038316805f52600260205260405f2063ffffffff60e01b63692652c560e11b165f5260205260405f20600160ff198254161790555f52600360205260405f20600160ff19825416179055612b75610b276004546133df565b60405193849363692652c560e11b9085613599565b6129515f80516020615f4d83398151915293612ba461395f565b60018060a01b038316805f52600260205260405f2063ffffffff60e01b635313efb360e11b165f5260205260405f20600160ff198254161790555f52600360205260405f20600160ff19825416179055612c02610b276004546133df565b604051938493635313efb360e11b9085613599565b6129515f80516020615f4d83398151915293612c3161395f565b60018060a01b038316805f52600260205260405f2063ffffffff60e01b636e553f6560e01b165f5260205260405f20600160ff198254161790555f52600360205260405f20600160ff19825416179055612c8f610b276004546133df565b604051938493636e553f6560e01b9085613599565b6129515f80516020615f4d83398151915293612cbe61395f565b60018060a01b038316805f52600260205260405f2063ffffffff60e01b632d182be560e21b165f5260205260405f20600160ff198254161790555f52600360205260405f20600160ff19825416179055612d1c610b276004546133df565b604051938493632d182be560e21b9085613599565b6129515f80516020615f4d83398151915293612d4b61395f565b60018060a01b038316805f52600260205260405f2063ffffffff60e01b635d043b2960e11b165f5260205260405f20600160ff198254161790555f52600360205260405f20600160ff19825416179055612da9610b276004546133df565b604051938493635d043b2960e11b9085613599565b6129515f80516020615f4d83398151915293612dd861395f565b60018060a01b038316805f52600260205260405f2063ffffffff60e01b638dbdbe6d60e01b165f5260205260405f20600160ff198254161790555f52600360205260405f20600160ff19825416179055612e36610b276004546133df565b604051938493638dbdbe6d60e01b9085613599565b6129515f80516020615f4d83398151915293612e6561395f565b60018060a01b038316805f52600260205260405f2063ffffffff60e01b62b4d4cb60e11b165f5260205260405f20600160ff198254161790555f52600360205260405f20600160ff19825416179055612ec2610b276004546133df565b60405193849362b4d4cb60e11b9085613599565b6129515f80516020615f4d83398151915293612ef061395f565b60018060a01b038316805f52600260205260405f2063ffffffff60e01b630b8b4a6160e21b165f5260205260405f20600160ff198254161790555f52600360205260405f20600160ff19825416179055612f4e610b276004546133df565b604051938493630b8b4a6160e21b9085613599565b6129515f80516020615f4d83398151915293612f7d61395f565b60018060a01b038316805f52600260205260405f2063ffffffff60e01b633ea0e43760e11b165f5260205260405f20600160ff198254161790555f52600360205260405f20600160ff19825416179055612fdb610b276004546133df565b604051938493633ea0e43760e11b9085613599565b6129515f80516020615f4d8339815191529361300a61395f565b60018060a01b038316805f52600260205260405f2063ffffffff60e01b6319792d1d60e11b165f5260205260405f20600160ff198254161790555f52600360205260405f20600160ff19825416179055613068610b276004546133df565b6040519384936319792d1d60e11b9085613599565b6129515f80516020615f4d8339815191529361309761395f565b60018060a01b038316805f52600260205260405f2063ffffffff60e01b6385b77f4560e01b165f5260205260405f20600160ff198254161790555f52600360205260405f20600160ff198254161790556130f5610b276004546133df565b6040519384936385b77f4560e01b9085613599565b6129515f80516020615f4d8339815191529361312461395f565b60018060a01b038316805f52600260205260405f2063ffffffff60e01b63a8abe90560e01b165f5260205260405f20600160ff198254161790555f52600360205260405f20600160ff19825416179055613182610b276004546133df565b60405193849363a8abe90560e01b9085613599565b6129515f80516020615f4d833981519152936131b161395f565b60018060a01b038316805f52600260205260405f2063ffffffff60e01b63322dda6d60e01b165f5260205260405f20600160ff198254161790555f52600360205260405f20600160ff1982541617905561320f610b276004546133df565b60405193849363322dda6d60e01b9085613599565b6129515f80516020615f4d8339815191529361323e61395f565b60018060a01b038316805f52600260205260405f2063ffffffff60e01b634c61684360e11b165f5260205260405f20600160ff198254161790555f52600360205260405f20600160ff1982541617905561329c610b276004546133df565b604051938493634c61684360e11b9085613599565b6129515f80516020615f4d833981519152936132cb61395f565b60018060a01b038316805f52600260205260405f2063ffffffff60e01b631a4ca37b60e21b165f5260205260405f20600160ff198254161790555f52600360205260405f20600160ff19825416179055613329610b276004546133df565b604051938493631a4ca37b60e21b9085613599565b6129515f80516020615f4d8339815191529361335861395f565b60018060a01b038316805f52600260205260405f2063ffffffff60e01b63095ea7b360e01b165f5260205260405f20600160ff198254161790555f52600360205260405f20600160ff198254161790556133b6610b276004546133df565b60405193849363095ea7b360e01b9085613599565b634e487b7160e01b5f52601160045260245ffd5b5f1981146133ed5760010190565b6133cb565b6001600160a01b03909116815263c04b8d5960e01b602082015260606040820181905261196a93910191612847565b6001600160a01b0390911681526338ed173960e01b602082015260606040820181905261196a93910191612847565b6001600160a01b03909116815263559ec80d60e01b602082015260606040820181905261196a93910191612847565b6001600160a01b039091168152631592ca1b60e31b602082015260606040820181905261196a93910191612847565b6001600160a01b039091168152630c04a8a160e41b602082015260606040820181905261196a93910191612847565b6001600160a01b039091168152632df4869b60e01b602082015260606040820181905261196a93910191612847565b6001600160a01b039091168152634701287760e11b602082015260606040820181905261196a93910191612847565b6001600160a01b03909116815263617ba03760e01b602082015260606040820181905261196a93910191612847565b6001600160a01b03909116815263a9059cbb60e01b602082015260606040820181905261196a93910191612847565b6001600160a01b0390911681526001600160e01b0319909116602082015260606040820181905261196a93910191612847565b6001600160a01b0391821681529116602082015260606040820181905261196a93910191612847565b5190611a7c82610528565b90816020910312610539575161196a81610528565b6129515f80516020615f0d8339815191529361182561395f565b6129515f80516020615e4d8339815191529361190761395f565b61365161546e565b61365961546e565b61366233613901565b604081805181010312610539578060406020611a7c9301519161368483610528565b015161368f81610528565b6001600160a01b03166136a061395f565b5f80546001600160a01b031981168317825582916001600160a01b03909116905f80516020615e6d8339815191529080a36136d961395f565b600180546001600160a01b0319811683179091556001600160a01b03165f80516020615ecd8339815191525f80a36001600160a01b03166138f5565b6001600160401b038111611a285760051b60200190565b9061373682613715565b6137436040519182611a49565b8281528092613754601f1991613715565b01905f5b82811061376457505050565b806060602080938501015201613758565b634e487b7160e01b5f52603260045260245ffd5b91908110156137ca5760051b81013590601e19813603018212156105395701803591906001600160401b038311610539576020018236038113610539579190565b613775565b908092918237015f815290565b3d15613806573d906137ed82611aac565b916137fb6040519384611a49565b82523d5f602084013e565b606090565b92919261381782611aac565b916138256040519384611a49565b829481845281830111610539578281602093845f96015e010152565b602081830312610539578051906001600160401b03821161053957019080601f8301121561053957815161196a9260200161380b565b80518210156137ca5760209160051b010190565b60409063ffffffff61196a95931681528160208201520191612847565b60ff601354169081156138b9575090565b6001600160a01b03165f9081526005602052604090205460ff16919050565b6001600160a01b03165f9081526007602052604090205460ff1690565b611a7c9061260761395f565b6001600160a01b0316801561394c575f80516020615ead83398151915280546001600160a01b0319811683179091556001600160a01b03165f80516020615eed8339815191525f80a3565b631e4fbdf760e01b5f525f60045260245ffd5b5f80516020615ead833981519152546001600160a01b0316330361397f57565b63118cdaa760e01b5f523360045260245ffd5b1561399957565b60405162461bcd60e51b815260206004820152601260248201527114d95b99195c881b9bdd08185b1b1bddd95960721b6044820152606490fd5b906004116105395790600490565b909291928360041161053957831161053957600401916003190190565b356001600160e01b0319811692919060048210613a19575050565b6001600160e01b031960049290920360031b82901b16169150565b15613a3b57565b60405162461bcd60e51b815260206004820152601260248201527115185c99d95d081b9bdd08185b1b1bddd95960721b6044820152606490fd5b15613a7c57565b60405162461bcd60e51b815260206004820152601460248201527314d95b1958dd1bdc881b9bdd08185b1b1bddd95960621b6044820152606490fd5b919082604091031261053957815162ffffff811681036105395760209092015161196a81610528565b15613ae857565b60405162461bcd60e51b815260206004820152600760248201526621ab903932b1bb60c91b6044820152606490fd5b15613b1e57565b60405162461bcd60e51b815260206004820152601e60248201527f53776170526f75746572303220726571756972657320616e79417373657400006044820152606490fd5b5f80516020615ead83398151915254919390916001600160a01b03166001600160a01b0383161461419257613ba0610d77610d70613bba94610653565b80613bb4613bae82866139d3565b906139fe565b936139e1565b9091613bc860135460ff1690565b80614178575b6001600160e01b03198216916317938e1360e01b83149182908115614167575b15908161415e575b506140fe575b506338ed173960e01b8203613c23575050611a7c925090613c1e913691611ac7565b615000565b635c11d79560e01b8203613c44575050611a7c925090613c1e913691611ac7565b63c04b8d5960e01b8203613c6a575050611a7c925090613c65913691611ac7565b614ee1565b63b858183f60e01b8203613c91575050505050611a7c613c8c60135460ff1690565b613b17565b63a9059cbb60e01b8203613cb7575050611a7c925090613cb2913691611ac7565b614eaa565b63095ea7b360e01b8203613cdd575050611a7c925090613cd8913691611ac7565b614e32565b630c04a8a160e41b8203613d03575050611a7c925090613cfe913691611ac7565b614db8565b63617ba03760e01b8203613d29575050611a7c925090613d24913691611ac7565b614d71565b631a4ca37b60e21b8203613d4f575050611a7c925090613d4a913691611ac7565b614d3c565b63559ec80d60e01b8203613d6a5750505050611a7c90614ca2565b63a03d55e360e01b8203613d855750505050611a7c90614ca2565b63692652c560e11b8203613da05750505050611a7c90614ca2565b635313efb360e11b8203613dbb5750505050611a7c90614ca2565b636e553f6560e01b821480156140ee575b15613dd9575b5050505050565b638dbdbe6d60e01b8203613e09575050613dff925090613dfa913691611ac7565b614c88565b5f80808080613dd2565b62b4d4cb60e11b8203613e33575050613e2e925090613e29913691611ac7565b614c67565b613dff565b632d182be560e21b8203613e59575050613e2e925090613e54913691611ac7565b614c1c565b635d043b2960e11b8203613e7a575050613e2e925090613e54913691611ac7565b633ea0e43760e11b8203613e9b575050613e2e925090613e54913691611ac7565b6319792d1d60e11b8203613ebc575050613e2e925090613e54913691611ac7565b637a4880bb60e01b8201613ed5575b5050505050613dff565b63575416fb60e01b820115613ecb57632df4869b60e01b8203613f0c575050613f0092503691611ac7565b505b5f80808080613ecb565b63322dda6d60e01b8203613f2e575050613f2892503691611ac7565b50613f02565b634c61684360e11b8203613f4a575050613f2892503691611ac7565b919291631592ca1b60e31b8203613f6b575050613f66926149c7565b613f02565b634701287760e11b8203613f84575050613f6692614750565b1561403c575060409192613fab835194859384936388ea783f60e01b855260048501612867565b038173__$1aa345e7a1afe9e3f905bd75a987cc2f53$__5af4908115610a3f575f905f92614001575b5062ffffff16600614613fe75750613f02565b613ff6610d70613ffb9261066c565b613ae1565b5f613f28565b62ffffff92506006915061402c9060403d604011614035575b6140248183611a49565b810190613ab8565b92909150613fd4565b503d61401a565b630acb7f4b60e21b141591506140ad90505773__$1aa345e7a1afe9e3f905bd75a987cc2f53$__803b156105395761408b915f9160405180809581946367bc52cb60e01b835260048301610fdc565b03915af48015610a3f5761409f5750613f02565b80611f3a5f613ffb93611a49565b60405162461bcd60e51b81526020600482015260196024820152782ab735b737bbb710333ab731ba34b7b71039b2b632b1ba37b960391b6044820152606490fd5b50630b8b4a6160e21b8214613dcc565b614116611b66610d70836141118a6106b7565b611cc9565b15613bfc57614153610d706141589261414a614145610d708b60018060a01b03165f52600360205260405f2090565b613a34565b614111896106b7565b613a75565b5f613bfc565b9050155f613bf6565b630acb7f4b60e21b85149150613bee565b5063095ea7b360e01b6001600160e01b0319821614613bce565b50505050565b5190611a7c82612065565b9080601f8301121561053957815161196a9260200161380b565b9190916040818403126105395780516141d581612065565b60208201519093906001600160401b0381116105395761196a92016141a3565b600154604051635229073f60e01b81526001600160a01b0392831660048201525f6024820181905260806044830152909493909285921690829084908290614241906084830190611935565b82606483015203925af1918215610a3f575f905f9361425f57509190565b90506105e29192503d805f833e6142768183611a49565b8101906141bd565b600154604051635229073f60e01b81526001600160a01b0392831660048201526024810193909352608060448401529193925f9285921690829084908290614241906084830190611935565b60405190606082016001600160401b03811183821017611a285760405260606040838281525f60208201520152565b1561430057565b60405162461bcd60e51b81526020600482015260136024820152721d1bdad95b925b881b9bdd08185b1b1bddd959606a1b6044820152606490fd5b1561434257565b60405162461bcd60e51b81526020600482015260146024820152731d1bdad95b93dd5d081b9bdd08185b1b1bddd95960621b6044820152606490fd5b1561438557565b60405162461bcd60e51b8152602060048201526014602482015273149958d95a5d995c881b9bdd08185b1b1bddd95960621b6044820152606490fd5b90611a7c92916143cf61395f565b60018060a01b038116805f52600260205260405f2063a9059cbb60e01b5f5260205260405f20600160ff198254161790555f52600360205260405f20600160ff19825416179055614424610b276004546133df565b5f80516020615f4d833981519152604051806144428686868461356a565b0390a161445083838361333e565b613615565b1561445c57565b60405162461bcd60e51b815260206004820152601a60248201527915995b1bdc98481cddd85c1c195c881b9bdd08195b98589b195960321b6044820152606490fd5b90816020910312610539575190565b906104b082018092116133ed57565b90601f82018092116133ed57565b919082018092116133ed57565b156144de57565b60405162461bcd60e51b815260206004820152601a602482015279125b9cdd59999a58da595b9d081bdd5d1c1d5d08185b5bdd5b9d60321b6044820152606490fd5b6003198101919082116133ed57565b919082039182116133ed57565b6040516370a0823160e01b81526001600160a01b03918216600482015293969295929493919290602090839060249082908b165afa918215610a3f575f92614607575b508085018086116133ed577fadccd6d5139732e7db3b6f230f309c7e8eb03047d2c40c4c136ed949c6e8aa6595836145bf6145c4936146029610156144d7565b61452f565b604080516001600160a01b03988916815298881660208a015288019490945260608701939093526080860192909252909216924292819060a0820190565b0390a3565b61462191925060203d6020116127ba576127ab8183611a49565b905f61457f565b908160e091031261053957803591614642602083016115f5565b91604081013591606082013561465781610528565b9160808101359161196a60c060a084013593016115f5565b1561467657565b60405162461bcd60e51b815260206004820152601c60248201527b10d0d5140819195cdd1a5b985d1a5bdb881b9bdd08185b1b1bddd95960221b6044820152606490fd5b156146c157565b60405162461bcd60e51b815260206004820152601b60248201527a10d0d51408189d5c9b881d1bdad95b881b9bdd08185b1b1bddd959602a1b6044820152606490fd5b1561470b57565b60405162461bcd60e51b815260206004820152601f60248201527f43435450206d696e7420726563697069656e74206e6f7420616c6c6f776564006044820152606490fd5b6001600160a01b03165f9081526011602052604090205460ff16156147db57610d70610d706147c86147c36147b06147b561479487611a7c996147d6990190614628565b505050949250969063ffffffff165f52601260205260405f2090565b61466f565b6001600160a01b03166138a8565b6146ba565b6001600160a01b031661066c565b614704565b60405162461bcd60e51b815260206004820152601a60248201527910d0d514081b595cdcd95b99d95c881b9bdd08185b1b1bddd95960321b6044820152606490fd5b1561482457565b60405162461bcd60e51b815260206004820152601660248201527511d356081c9bdd5d195c881b9bdd08185b1b1bddd95960521b6044820152606490fd5b1561486957565b60405162461bcd60e51b815260206004820152601d60248201527f474d58206f726465725661756c74206e6f7420636f6e666967757265640000006044820152606490fd5b602081830312610539578035906001600160401b03821161053957019080601f830112156105395781356148e181613715565b926148ef6040519485611a49565b81845260208085019260051b820101918383116105395760208201905b83821061491b57505050505090565b81356001600160401b0381116105395760209161493d87848094880101611afd565b81520191019061490c565b1561494f57565b60405162461bcd60e51b815260206004820152601360248201527211d3560e8818d85b1b081d1bdbc81cda1bdc9d606a1b6044820152606490fd5b8051156137ca5760200190565b8051600110156137ca5760210190565b8051600210156137ca5760220190565b8051600310156137ca5760230190565b906149fb6149ee614a18939594956149e96149e4610d708361069e565b61481d565b610685565b546001600160a01b031690565b93614a106001600160a01b0386161515614862565b8101906148ae565b915f5b8351811015614bcf57614a3c6004614a338387613877565b51511015614948565b614a70614a63614a55614a4f8488613877565b5161498a565b516001600160f81b03191690565b6001600160f81b03191690565b614a9a614a8c614a63614a55614a86868a613877565b51614997565b60081c62ffffff60e01b1690565b17614ac4614ab7614a63614a55614ab1868a613877565b516149a7565b60101c61ffff60e01b1690565b17614aed614ae1614a63614a55614adb868a613877565b516149b7565b60181c60ff60e01b1690565b179082614b18614afd8388613877565b51614b12614b0b858a613877565b5151614520565b90615516565b926001600160e01b031916637d39aaf160e01b8103614b445750614b3e90600193615ba7565b01614a1b565b631cdacd5960e31b8103614b645750614b5f90600193615b0b565b614b3e565b63f59c48eb60e01b14159050614b7f57614b5f6001926159e6565b60405162461bcd60e51b815260206004820152602260248201527f474d583a20556e6b6e6f776e2066756e6374696f6e20696e206d756c746963616044820152611b1b60f21b6064820152608490fd5b50509050565b15614bdc57565b60405162461bcd60e51b8152602060048201526018602482015277149958d95a5d995c881b9bdd081dda1a5d195b1a5cdd195960421b6044820152606490fd5b60608180518101031261053957614c446060604083015192614c3d84610528565b0151610528565b6001600160a01b03165f90815260076020526040902054611a7c9060ff16614bd5565b60808180518101031261053957614c446080606083015192614c3d84610528565b6060818051810103126105395760600151614c4481610528565b6001600160a01b03165f908152600b602052604090205460ff1615614cc357565b60405162461bcd60e51b815260206004820152601160248201527015985d5b1d081b9bdd08185b1b1bddd959607a1b6044820152606490fd5b15614d0357565b60405162461bcd60e51b8152602060048201526011602482015270151bdad95b881b9bdd08185b1b1bddd959607a1b6044820152606490fd5b60608180518101031261053957614c44614d6c6060602084015193614d6085610528565b0151926147b584610528565b614cfc565b60808180518101031261053957614d6c816147b560606020611a7c95015192614c3d84610528565b91908260409103126105395760208251614db281610528565b92015190565b614dcb9060208082518301019101614d99565b506001600160a01b03165f908152600a602052604090205460ff1615614ded57565b60405162461bcd60e51b815260206004820152601e60248201527f44656c65676174696f6e2061646472657373206e6f7420616c6c6f77656400006044820152606490fd5b614e459060208082518301019101614d99565b506001600160a01b03165f9081526009602052604090205460ff1615614e6757565b60405162461bcd60e51b815260206004820152601b60248201527a105c1c1c9bdd99481859191c995cdcc81b9bdd08185b1b1bddd959602a1b6044820152606490fd5b614ebd9060208082518301019101614d99565b506001600160a01b03165f90815260086020526040902054611a7c9060ff16614bd5565b8051810190602081830312610539576020810151906001600160401b038211610539570160a0818303126105395760405190614f1c82611a0d565b6020810151926001600160401b0384116105395761214f614f9392614f4f611a7c96602080614f8e9601918401016141a3565b855260a0604082015191614f6283610528565b82602088015260608101516040880152608081015160608801520151608086015260018060a01b031690565b614bd5565b51615c14565b9080601f83011215610539578151614fb081613715565b92614fbe6040519485611a49565b81845260208085019260051b82010192831161053957602001905b828210614fe65750505090565b602080918351614ff581610528565b815201910190614fd9565b908151820160a0838203126105395760608301516001600160401b03811161053957610d70608061503f614f8e9360208061504b970191890101614f99565b9501516147c881610528565b5f5b825181101561507f5780615079614d6c61212861506c60019588613877565b516001600160a01b031690565b0161504d565b509050565b6040519061018082016001600160401b03811183821017611a28576040525f610160838281528260208201528260408201528260608201528260808201528260a08201528260c08201528260e08201528261010082015282610120820152826101408201520152565b6001600160a01b039091169052565b9361515f6151769493969261510f615084565b5061515661512861511f426144ad565b63ffffffff1690565b95615144615134611a6c565b9a6001600160a01b03168b6150ed565b6001600160a01b031660208a016150ed565b604088016150ed565b6060860152608085015263ffffffff1660a0840152565b60c08201525f60e08201527ff3b277728b3fee749481eb3e0b3b48980dbbab78658fc419025cb16eee3467756101008201525f6101208201525f80516020615e8d8339815191526101408201525f80516020615e8d83398151915261016082015290565b604051606091906151eb8382611a49565b6038815291601f1901366020840137565b91959493906101e09361016061521f6152d7936102008752610200870190611935565b89516001600160a01b031660208701529860208101516001600160a01b0316604087015260408101516001600160a01b0316606087015260608101516080870152608081015160a087015261528160a082015160c088019063ffffffff169052565b60c081015160e087015260e08101516101008701526101008101516101208701526152b761012082015161014088019015159052565b61014081015186830152015161018085015263ffffffff166101a0840152565b6101c08201520152565b919060206152f9600192604086526040860190611935565b930152565b90916153086142ca565b5060405163f698da2560e01b81526020816004816001600160a01b0387165afa8015610a3f576153ae6153df917f2c222fa91d81130fe56ee74391b3b6a113851c1f9cd5bc5853108490ccafc782935f9161544f575b508490604291601f190180517fd5a25ba2e97094ad7d83dc28a6572da797d6b3e7fc6663bd93efb789fc17e48982526101a0822091526040519161190160f01b8352600283015260228201522090565b946153d56153ba6151da565b9660a08601926153ce845163ffffffff1690565b9189615ca4565b5163ffffffff1690565b6080830151906153fc606085015160405193849342978a866151fc565b0390a260405163ec6cb13f60e01b602082015290615447906154338361542586602483016152e1565b03601f198101855284611a49565b61543b611a7e565b938452602084016150ed565b604082015290565b615468915060203d6020116127ba576127ab8183611a49565b5f61535e565b60ff5f80516020615f2d8339815191525460401c161561548a57565b631afcd79f60e31b5f5260045ffd5b156154a057565b60405162461bcd60e51b815260206004820152600e60248201526d736c6963655f6f766572666c6f7760901b6044820152606490fd5b156154dd57565b60405162461bcd60e51b8152602060048201526011602482015270736c6963655f6f75744f66426f756e647360781b6044820152606490fd5b61552a82615523816144bc565b1015615499565b615539600461552384826144ca565b61555081516155498460046144ca565b11156154d6565b816155675750506040515f81526020810160405290565b60405191601f8116916004831560051b80858701019484860193010101905b80841061559e5750508252601f01601f191660405290565b9092602080918551815201930190615586565b91909160e081840312610539576155c6611a8d565b926155d0826135f5565b84526155de602083016135f5565b60208501526155ef604083016135f5565b6040850152615600606083016135f5565b6060850152615611608083016135f5565b608085015261562260a083016135f5565b60a085015260c08201516001600160401b038111610539576156449201614f99565b60c0830152565b9190826101009103126105395760405161566481611a2d565b60e0808294805184526020810151602085015260408101516040850152606081015160608501526080810151608085015260a081015160a085015260c081015160c08501520151910152565b519060ff8216820361053957565b9080601f830112156105395781516156d581613715565b926156e36040519485611a49565b81845260208085019260051b82010192831161053957602001905b82821061570b5750505090565b81518152602091820191016156fe565b602081830312610539578051906001600160401b0382116105395701610200818303126105395761574a611a9c565b81519092906001600160401b03811161053957816157699184016155b1565b8352615778816020840161564b565b602084015261578a61012083016156b0565b604084015261579c61014083016156b0565b60608401526157ae6101608301614198565b60808401526157c06101808301614198565b60a08401526157d26101a08301614198565b60c08401526101c082015160e08401526101e08201516001600160401b0381116105395761580092016156be565b61010082015290565b1561581057565b60405162461bcd60e51b815260206004820152602960248201527f474d58206372656174654f726465723a207265636569766572206e6f742077686044820152681a5d195b1a5cdd195960ba1b6064820152608490fd5b1561586e57565b60405162461bcd60e51b815260206004820152603560248201527f474d58206372656174654f726465723a2063616e63656c6c6174696f6e526563604482015274195a5d995c881b9bdd081dda1a5d195b1a5cdd1959605a1b6064820152608490fd5b156158d857565b60405162461bcd60e51b815260206004820152602360248201527f474d58206372656174654f726465723a206d61726b6574206e6f7420616c6c6f6044820152621dd95960ea1b6064820152608490fd5b1561593057565b60405162461bcd60e51b815260206004820152602760248201527f474d58206372656174654f726465723a20636f6c6c61746572616c206e6f7420604482015266185b1b1bddd95960ca1b6064820152608490fd5b1561598c57565b60405162461bcd60e51b815260206004820152602c60248201527f474d58206372656174654f726465723a207377617050617468206d61726b657460448201526b081b9bdd08185b1b1bddd95960a21b6064820152608490fd5b6159f9906020808251830101910161571b565b805151615a1790615a12906001600160a01b03166138d8565b615809565b805160200151615a3890615a33906001600160a01b03166138d8565b615867565b805160800151615a5990615a54906001600160a01b0316612894565b6158d1565b805160a00151615a7a90615a75906001600160a01b03166138a8565b615929565b5f5b60c0825101518051821015615ab05781615aa8615aa3610a6661506c60c096600196613877565b615985565b019050615a7c565b505050565b15615abc57565b60405162461bcd60e51b815260206004820152602160248201527f474d582073656e64546f6b656e733a20746f6b656e206e6f7420616c6c6f77656044820152601960fa1b6064820152608490fd5b90606082805181010312610539576040602083015192615b2a84610528565b015190615b3682610528565b6001600160a01b03908116911603615b6357611a7c90615b5e906001600160a01b03166138a8565b615ab5565b606460405162461bcd60e51b815260206004820152602060248201527f474d582073656e64546f6b656e733a20696e76616c69642072656365697665726044820152fd5b615bba9060208082518301019101614d99565b506001600160a01b03918216911603615bcf57565b60405162461bcd60e51b815260206004820152601d60248201527f474d582073656e64576e743a20696e76616c69642072656365697665720000006044820152606490fd5b6017905b615c26601482511015615da2565b602081015160601c82825110615c6857614d6c615c4d91612128614d6c6121288787615de6565b8051604211615c6457615c5f90615d02565b615c18565b5050565b60405162461bcd60e51b8152602060048201526014602482015273746f55696e7432345f6f75744f66426f756e647360601b6044820152606490fd5b9092916038825103615cc157602092603883015260348201520152565b60405162461bcd60e51b8152602060048201526019602482015278475076323a2075696420627566666572206f766572666c6f7760381b6044820152606490fd5b805160161981018181116133ed57615d1d81615523816144bc565b615d2c601761552383826144ca565b615d3c83516155498360176144ca565b80615d54575050506040515f81526020810160405290565b604051926017601f8316801560051b908181880101956016199087010193010101905b808410615d8f5750508252601f01601f191660405290565b9092602080918551815201930190615d77565b15615da957565b60405162461bcd60e51b8152602060048201526015602482015274746f416464726573735f6f75744f66426f756e647360581b6044820152606490fd5b9060148101918282116133ed57818310615e1257615e0960209382511015615da2565b01015160601c90565b60405162461bcd60e51b8152602060048201526012602482015271746f416464726573735f6f766572666c6f7760701b6044820152606490fdfe628a44970c0e450415e3ae74334ea44f3307b74dbf677a1371190242bf2f358952ae88b092de36f87fb43fe794eb1381023b9c1bce563a871154022c63dce3425a28e9363bb942b639270062aa6bb295f434bcdfc42c97267bf003f272060dc99016d09d72d40fdae2fd8ceac6b6234c7706214fd39c1cd1e609a0528c19930090cc2f570a6eb594b1580ea3e41247d2d73a55281889e86bd4ec2fc29c7e62d68be0079c531659141344cd1fd0a4f28419497f9722a3daafe3b4186f6b6457e0ad90e2570fc4fe9f7437be3188d5c791c6662892d31731992aa88f5c87621983f0c57e16840df040f15088dc2f81fe391c3923bec73e23a9662efc9c229c6a00ef729aaa41b9fd994f9ff7c1960df214a84f722002e6cfbea31799cd0873a3efa26469706673582212209dcd03dcc1f91b863eeff57e74eec0dec16720c7f2bb824308f7bedf5e563d6864736f6c634300081a0033f0c57e16840df040f15088dc2f81fe391c3923bec73e23a9662efc9c229c6a00","linkReferences":{"../guard/src/lib/HypercoreVault.sol":{"HypercoreVaultLib":[{"start":3500,"length":20},{"start":8833,"length":20},{"start":9989,"length":20},{"start":17274,"length":20},{"start":17435,"length":20}]}}},"methodIdentifiers":{"_SIGN_COOLDOWN()":"3ffb788e","allowApprovalDestination(address,string)":"98b3cc39","allowAsset(address,string)":"86b6dbe5","allowCallSite(address,bytes4,string)":"5e4ccace","allowDelegationApprovalDestination(address,string)":"63cc17f2","allowReceiver(address,string)":"72e548a9","allowSender(address,string)":"fa2c59c8","allowWithdrawDestination(address,string)":"5ace1d92","allowedApprovalDestinations(address)":"eb0de042","allowedAssets(address)":"a4c1cccb","allowedCCTPDestinations(uint32)":"7cac69c3","allowedCCTPMessengers(address)":"07605342","allowedCallSites(address,bytes4)":"a847cf4d","allowedCowSwaps(address)":"47566064","allowedDelegationApprovalDestinations(address)":"4b941268","allowedGMXMarkets(address)":"0985b046","allowedGMXRouters(address)":"4c03f1f8","allowedLagoonVaults(address)":"8fb4dff2","allowedReceivers(address)":"3cf20025","allowedSenders(address)":"fadbcf48","allowedTargets(address)":"b8fe8d5f","allowedVeloraSwappers(address)":"b45ea48b","allowedWithdrawDestinations(address)":"07ef00cf","anyAsset()":"87301608","avatar()":"5aef7de6","callSiteCount()":"a9fc3d4f","getGovernanceAddress()":"73252494","getInternalVersion()":"fdedfa27","getTradingStrategyModuleVersion()":"9e4a83cf","gmxOrderVaults(address)":"a86ddc57","isAllowedApprovalDestination(address)":"1d49039c","isAllowedAsset(address)":"c537bed0","isAllowedCCTPDestination(uint32)":"748fca46","isAllowedCCTPMessenger(address)":"0411fb8e","isAllowedCallSite(address,bytes4)":"713ebf3b","isAllowedCowSwap(address)":"333f22e8","isAllowedDelegationApprovalDestination(address)":"2dc32a61","isAllowedGMXMarket(address)":"2e31e9c6","isAllowedGMXRouter(address)":"cbdb1dcf","isAllowedLagoonVault(address)":"6fd7fdef","isAllowedReceiver(address)":"d075f9bb","isAllowedSender(address)":"be8c97b0","isAllowedTarget(address)":"78addb48","isAllowedVeloraSwapper(address)":"f84756aa","isAllowedWithdrawDestination(address)":"efb47bff","multicall(bytes[])":"ac9650d8","owner()":"8da5cb5b","performCall(address,bytes)":"d2f73e3d","performCall(address,bytes,uint256)":"486295dc","removeApprovalDestination(address,string)":"04a3ba25","removeAsset(address,string)":"f901dc33","removeCCTPDestination(uint32,string)":"ba44ad41","removeCallSite(address,bytes4,string)":"d7334c9d","removeDelegationApprovalDestination(address,string)":"f259a073","removeGMXMarket(address,string)":"4d3d31ca","removeHypercoreVault(address,string)":"e2873b6d","removeReceiver(address,string)":"2d12d788","removeSender(address,string)":"a67e1f54","removeWithdrawDestination(address,string)":"8c2fdf9e","renounceOwnership()":"715018a6","setAnyAssetAllowed(bool,string)":"c2e657ae","setAvatar(address)":"086cfca8","setTarget(address)":"776d1a01","setUp(bytes)":"a4f9edbf","swapAndValidateCowSwap(address,address,bytes32,address,address,uint256,uint256)":"4acf884d","swapAndValidateVelora(address,address,address,uint256,uint256,bytes)":"f9cf8ae5","target()":"d4b83992","transferOwnership(address)":"f2fde38b","validateCall(address,address,bytes)":"6d5025f1","whitelistAaveV3(address,string)":"f20e85e0","whitelistCCTP(address,string)":"ec011440","whitelistCCTPDestination(uint32,string)":"e6f32c51","whitelistCoreWriter(address,address,string)":"acb9da16","whitelistCowSwap(address,address,string)":"1047789e","whitelistERC4626(address,string)":"86a6ae15","whitelistGMX(address,address,address,string)":"62d6775e","whitelistGMXMarket(address,string)":"d7581509","whitelistHypercoreVault(address,string)":"2de905bc","whitelistLagoon(address,string)":"5e6afe4d","whitelistOrderly(address,string)":"db17a170","whitelistToken(address,string)":"ee5462cc","whitelistTokenForDelegation(address,string)":"6d9a1423","whitelistUniswapV2Router(address,string)":"3ea35551","whitelistUniswapV3Router(address,string)":"34ec8d7e","whitelistVelora(address,address,string)":"4efbad39"},"id":31}