{"abi":[{"type":"constructor","inputs":[{"name":"_owner","type":"address","internalType":"address"},{"name":"_target","type":"address","internalType":"address"}],"stateMutability":"nonpayable"},{"type":"function","name":"allowApprovalDestination","inputs":[{"name":"destination","type":"address","internalType":"address"},{"name":"notes","type":"string","internalType":"string"}],"outputs":[],"stateMutability":"nonpayable"},{"type":"function","name":"allowAsset","inputs":[{"name":"asset","type":"address","internalType":"address"},{"name":"notes","type":"string","internalType":"string"}],"outputs":[],"stateMutability":"nonpayable"},{"type":"function","name":"allowCallSite","inputs":[{"name":"target","type":"address","internalType":"address"},{"name":"selector","type":"bytes4","internalType":"bytes4"},{"name":"notes","type":"string","internalType":"string"}],"outputs":[],"stateMutability":"nonpayable"},{"type":"function","name":"allowDelegationApprovalDestination","inputs":[{"name":"destination","type":"address","internalType":"address"},{"name":"notes","type":"string","internalType":"string"}],"outputs":[],"stateMutability":"nonpayable"},{"type":"function","name":"allowReceiver","inputs":[{"name":"receiver","type":"address","internalType":"address"},{"name":"notes","type":"string","internalType":"string"}],"outputs":[],"stateMutability":"nonpayable"},{"type":"function","name":"allowSender","inputs":[{"name":"sender","type":"address","internalType":"address"},{"name":"notes","type":"string","internalType":"string"}],"outputs":[],"stateMutability":"nonpayable"},{"type":"function","name":"allowWithdrawDestination","inputs":[{"name":"destination","type":"address","internalType":"address"},{"name":"notes","type":"string","internalType":"string"}],"outputs":[],"stateMutability":"nonpayable"},{"type":"function","name":"allowedApprovalDestinations","inputs":[{"name":"destination","type":"address","internalType":"address"}],"outputs":[{"name":"allowed","type":"bool","internalType":"bool"}],"stateMutability":"view"},{"type":"function","name":"allowedAssets","inputs":[{"name":"token","type":"address","internalType":"address"}],"outputs":[{"name":"allowed","type":"bool","internalType":"bool"}],"stateMutability":"view"},{"type":"function","name":"allowedCallSites","inputs":[{"name":"target","type":"address","internalType":"address"},{"name":"selector","type":"bytes4","internalType":"bytes4"}],"outputs":[{"name":"allowed","type":"bool","internalType":"bool"}],"stateMutability":"view"},{"type":"function","name":"allowedDelegationApprovalDestinations","inputs":[{"name":"destination","type":"address","internalType":"address"}],"outputs":[{"name":"allowed","type":"bool","internalType":"bool"}],"stateMutability":"view"},{"type":"function","name":"allowedLagoonVaults","inputs":[{"name":"destination","type":"address","internalType":"address"}],"outputs":[{"name":"allowed","type":"bool","internalType":"bool"}],"stateMutability":"view"},{"type":"function","name":"allowedReceivers","inputs":[{"name":"receiver","type":"address","internalType":"address"}],"outputs":[{"name":"allowed","type":"bool","internalType":"bool"}],"stateMutability":"view"},{"type":"function","name":"allowedSenders","inputs":[{"name":"sender","type":"address","internalType":"address"}],"outputs":[{"name":"allowed","type":"bool","internalType":"bool"}],"stateMutability":"view"},{"type":"function","name":"allowedTargets","inputs":[{"name":"target","type":"address","internalType":"address"}],"outputs":[{"name":"allowed","type":"bool","internalType":"bool"}],"stateMutability":"view"},{"type":"function","name":"allowedWithdrawDestinations","inputs":[{"name":"destination","type":"address","internalType":"address"}],"outputs":[{"name":"allowed","type":"bool","internalType":"bool"}],"stateMutability":"view"},{"type":"function","name":"anyAsset","inputs":[],"outputs":[{"name":"","type":"bool","internalType":"bool"}],"stateMutability":"view"},{"type":"function","name":"avatar","inputs":[],"outputs":[{"name":"","type":"address","internalType":"address"}],"stateMutability":"view"},{"type":"function","name":"callSiteCount","inputs":[],"outputs":[{"name":"","type":"uint256","internalType":"uint256"}],"stateMutability":"view"},{"type":"function","name":"getGovernanceAddress","inputs":[],"outputs":[{"name":"","type":"address","internalType":"address"}],"stateMutability":"view"},{"type":"function","name":"getInternalVersion","inputs":[],"outputs":[{"name":"","type":"uint8","internalType":"uint8"}],"stateMutability":"pure"},{"type":"function","name":"isAllowedApprovalDestination","inputs":[{"name":"receiver","type":"address","internalType":"address"}],"outputs":[{"name":"","type":"bool","internalType":"bool"}],"stateMutability":"view"},{"type":"function","name":"isAllowedAsset","inputs":[{"name":"token","type":"address","internalType":"address"}],"outputs":[{"name":"","type":"bool","internalType":"bool"}],"stateMutability":"view"},{"type":"function","name":"isAllowedCallSite","inputs":[{"name":"target","type":"address","internalType":"address"},{"name":"selector","type":"bytes4","internalType":"bytes4"}],"outputs":[{"name":"","type":"bool","internalType":"bool"}],"stateMutability":"view"},{"type":"function","name":"isAllowedDelegationApprovalDestination","inputs":[{"name":"receiver","type":"address","internalType":"address"}],"outputs":[{"name":"","type":"bool","internalType":"bool"}],"stateMutability":"view"},{"type":"function","name":"isAllowedLagoonVault","inputs":[{"name":"vault","type":"address","internalType":"address"}],"outputs":[{"name":"","type":"bool","internalType":"bool"}],"stateMutability":"view"},{"type":"function","name":"isAllowedReceiver","inputs":[{"name":"receiver","type":"address","internalType":"address"}],"outputs":[{"name":"","type":"bool","internalType":"bool"}],"stateMutability":"view"},{"type":"function","name":"isAllowedSender","inputs":[{"name":"sender","type":"address","internalType":"address"}],"outputs":[{"name":"","type":"bool","internalType":"bool"}],"stateMutability":"view"},{"type":"function","name":"isAllowedTarget","inputs":[{"name":"target","type":"address","internalType":"address"}],"outputs":[{"name":"","type":"bool","internalType":"bool"}],"stateMutability":"view"},{"type":"function","name":"isAllowedWithdrawDestination","inputs":[{"name":"receiver","type":"address","internalType":"address"}],"outputs":[{"name":"","type":"bool","internalType":"bool"}],"stateMutability":"view"},{"type":"function","name":"owner","inputs":[],"outputs":[{"name":"","type":"address","internalType":"address"}],"stateMutability":"view"},{"type":"function","name":"performCall","inputs":[{"name":"target","type":"address","internalType":"address"},{"name":"callData","type":"bytes","internalType":"bytes"}],"outputs":[],"stateMutability":"nonpayable"},{"type":"function","name":"removeApprovalDestination","inputs":[{"name":"destination","type":"address","internalType":"address"},{"name":"notes","type":"string","internalType":"string"}],"outputs":[],"stateMutability":"nonpayable"},{"type":"function","name":"removeAsset","inputs":[{"name":"asset","type":"address","internalType":"address"},{"name":"notes","type":"string","internalType":"string"}],"outputs":[],"stateMutability":"nonpayable"},{"type":"function","name":"removeCallSite","inputs":[{"name":"target","type":"address","internalType":"address"},{"name":"selector","type":"bytes4","internalType":"bytes4"},{"name":"notes","type":"string","internalType":"string"}],"outputs":[],"stateMutability":"nonpayable"},{"type":"function","name":"removeDelegationApprovalDestination","inputs":[{"name":"destination","type":"address","internalType":"address"},{"name":"notes","type":"string","internalType":"string"}],"outputs":[],"stateMutability":"nonpayable"},{"type":"function","name":"removeReceiver","inputs":[{"name":"receiver","type":"address","internalType":"address"},{"name":"notes","type":"string","internalType":"string"}],"outputs":[],"stateMutability":"nonpayable"},{"type":"function","name":"removeSender","inputs":[{"name":"sender","type":"address","internalType":"address"},{"name":"notes","type":"string","internalType":"string"}],"outputs":[],"stateMutability":"nonpayable"},{"type":"function","name":"removeWithdrawDestination","inputs":[{"name":"destination","type":"address","internalType":"address"},{"name":"notes","type":"string","internalType":"string"}],"outputs":[],"stateMutability":"nonpayable"},{"type":"function","name":"renounceOwnership","inputs":[],"outputs":[],"stateMutability":"nonpayable"},{"type":"function","name":"setAnyAssetAllowed","inputs":[{"name":"value","type":"bool","internalType":"bool"},{"name":"notes","type":"string","internalType":"string"}],"outputs":[],"stateMutability":"nonpayable"},{"type":"function","name":"setAvatar","inputs":[{"name":"_avatar","type":"address","internalType":"address"}],"outputs":[],"stateMutability":"nonpayable"},{"type":"function","name":"setTarget","inputs":[{"name":"_target","type":"address","internalType":"address"}],"outputs":[],"stateMutability":"nonpayable"},{"type":"function","name":"setUp","inputs":[{"name":"initializeParams","type":"bytes","internalType":"bytes"}],"outputs":[],"stateMutability":"nonpayable"},{"type":"function","name":"target","inputs":[],"outputs":[{"name":"","type":"address","internalType":"address"}],"stateMutability":"view"},{"type":"function","name":"transferOwnership","inputs":[{"name":"newOwner","type":"address","internalType":"address"}],"outputs":[],"stateMutability":"nonpayable"},{"type":"function","name":"validate1deltaPath","inputs":[{"name":"path","type":"bytes","internalType":"bytes"}],"outputs":[],"stateMutability":"view"},{"type":"function","name":"validateCall","inputs":[{"name":"sender","type":"address","internalType":"address"},{"name":"target","type":"address","internalType":"address"},{"name":"callDataWithSelector","type":"bytes","internalType":"bytes"}],"outputs":[],"stateMutability":"view"},{"type":"function","name":"validateUniswapV3Path","inputs":[{"name":"path","type":"bytes","internalType":"bytes"}],"outputs":[],"stateMutability":"view"},{"type":"function","name":"validate_1deltaDeposit","inputs":[{"name":"callData","type":"bytes","internalType":"bytes"}],"outputs":[],"stateMutability":"view"},{"type":"function","name":"validate_1deltaMulticall","inputs":[{"name":"callData","type":"bytes","internalType":"bytes"}],"outputs":[],"stateMutability":"view"},{"type":"function","name":"validate_1deltaWithdraw","inputs":[{"name":"callData","type":"bytes","internalType":"bytes"}],"outputs":[],"stateMutability":"view"},{"type":"function","name":"validate_ERC4626Deposit","inputs":[{"name":"target","type":"address","internalType":"address"},{"name":"callData","type":"bytes","internalType":"bytes"}],"outputs":[],"stateMutability":"view"},{"type":"function","name":"validate_ERC4626Redeem","inputs":[{"name":"callData","type":"bytes","internalType":"bytes"}],"outputs":[],"stateMutability":"view"},{"type":"function","name":"validate_ERC4626Withdraw","inputs":[{"name":"callData","type":"bytes","internalType":"bytes"}],"outputs":[],"stateMutability":"view"},{"type":"function","name":"validate_aaveSupply","inputs":[{"name":"callData","type":"bytes","internalType":"bytes"}],"outputs":[],"stateMutability":"view"},{"type":"function","name":"validate_aaveWithdraw","inputs":[{"name":"callData","type":"bytes","internalType":"bytes"}],"outputs":[],"stateMutability":"view"},{"type":"function","name":"validate_approve","inputs":[{"name":"callData","type":"bytes","internalType":"bytes"}],"outputs":[],"stateMutability":"view"},{"type":"function","name":"validate_approveDelegation","inputs":[{"name":"callData","type":"bytes","internalType":"bytes"}],"outputs":[],"stateMutability":"view"},{"type":"function","name":"validate_exactInput","inputs":[{"name":"callData","type":"bytes","internalType":"bytes"}],"outputs":[],"stateMutability":"view"},{"type":"function","name":"validate_exactOutput","inputs":[{"name":"callData","type":"bytes","internalType":"bytes"}],"outputs":[],"stateMutability":"view"},{"type":"function","name":"validate_flashSwapAllOut","inputs":[{"name":"callData","type":"bytes","internalType":"bytes"}],"outputs":[],"stateMutability":"view"},{"type":"function","name":"validate_flashSwapExactInt","inputs":[{"name":"callData","type":"bytes","internalType":"bytes"}],"outputs":[],"stateMutability":"view"},{"type":"function","name":"validate_flashSwapExactOut","inputs":[{"name":"callData","type":"bytes","internalType":"bytes"}],"outputs":[],"stateMutability":"view"},{"type":"function","name":"validate_lagoonSettle","inputs":[{"name":"vault","type":"address","internalType":"address"}],"outputs":[],"stateMutability":"view"},{"type":"function","name":"validate_swapExactTokensForTokens","inputs":[{"name":"callData","type":"bytes","internalType":"bytes"}],"outputs":[],"stateMutability":"view"},{"type":"function","name":"validate_transfer","inputs":[{"name":"callData","type":"bytes","internalType":"bytes"}],"outputs":[],"stateMutability":"view"},{"type":"function","name":"validate_transferERC20AllIn","inputs":[{"name":"callData","type":"bytes","internalType":"bytes"}],"outputs":[],"stateMutability":"view"},{"type":"function","name":"validate_transferERC20In","inputs":[{"name":"callData","type":"bytes","internalType":"bytes"}],"outputs":[],"stateMutability":"view"},{"type":"function","name":"whitelistAaveV3","inputs":[{"name":"lendingPool","type":"address","internalType":"address"},{"name":"notes","type":"string","internalType":"string"}],"outputs":[],"stateMutability":"nonpayable"},{"type":"function","name":"whitelistERC4626","inputs":[{"name":"vault","type":"address","internalType":"address"},{"name":"notes","type":"string","internalType":"string"}],"outputs":[],"stateMutability":"nonpayable"},{"type":"function","name":"whitelistLagoon","inputs":[{"name":"vault","type":"address","internalType":"address"},{"name":"notes","type":"string","internalType":"string"}],"outputs":[],"stateMutability":"nonpayable"},{"type":"function","name":"whitelistOnedelta","inputs":[{"name":"brokerProxy","type":"address","internalType":"address"},{"name":"lendingPool","type":"address","internalType":"address"},{"name":"notes","type":"string","internalType":"string"}],"outputs":[],"stateMutability":"nonpayable"},{"type":"function","name":"whitelistToken","inputs":[{"name":"token","type":"address","internalType":"address"},{"name":"notes","type":"string","internalType":"string"}],"outputs":[],"stateMutability":"nonpayable"},{"type":"function","name":"whitelistTokenForDelegation","inputs":[{"name":"token","type":"address","internalType":"address"},{"name":"notes","type":"string","internalType":"string"}],"outputs":[],"stateMutability":"nonpayable"},{"type":"function","name":"whitelistUniswapV2Router","inputs":[{"name":"router","type":"address","internalType":"address"},{"name":"notes","type":"string","internalType":"string"}],"outputs":[],"stateMutability":"nonpayable"},{"type":"function","name":"whitelistUniswapV3Router","inputs":[{"name":"router","type":"address","internalType":"address"},{"name":"notes","type":"string","internalType":"string"}],"outputs":[],"stateMutability":"nonpayable"},{"type":"event","name":"AnyAssetSet","inputs":[{"name":"value","type":"bool","indexed":false,"internalType":"bool"},{"name":"notes","type":"string","indexed":false,"internalType":"string"}],"anonymous":false},{"type":"event","name":"AnyVaultSet","inputs":[{"name":"value","type":"bool","indexed":false,"internalType":"bool"},{"name":"notes","type":"string","indexed":false,"internalType":"string"}],"anonymous":false},{"type":"event","name":"ApprovalDestinationApproved","inputs":[{"name":"sender","type":"address","indexed":false,"internalType":"address"},{"name":"notes","type":"string","indexed":false,"internalType":"string"}],"anonymous":false},{"type":"event","name":"ApprovalDestinationRemoved","inputs":[{"name":"sender","type":"address","indexed":false,"internalType":"address"},{"name":"notes","type":"string","indexed":false,"internalType":"string"}],"anonymous":false},{"type":"event","name":"AssetApproved","inputs":[{"name":"sender","type":"address","indexed":false,"internalType":"address"},{"name":"notes","type":"string","indexed":false,"internalType":"string"}],"anonymous":false},{"type":"event","name":"AssetRemoved","inputs":[{"name":"sender","type":"address","indexed":false,"internalType":"address"},{"name":"notes","type":"string","indexed":false,"internalType":"string"}],"anonymous":false},{"type":"event","name":"AvatarSet","inputs":[{"name":"previousAvatar","type":"address","indexed":true,"internalType":"address"},{"name":"newAvatar","type":"address","indexed":true,"internalType":"address"}],"anonymous":false},{"type":"event","name":"CallSiteApproved","inputs":[{"name":"target","type":"address","indexed":false,"internalType":"address"},{"name":"selector","type":"bytes4","indexed":false,"internalType":"bytes4"},{"name":"notes","type":"string","indexed":false,"internalType":"string"}],"anonymous":false},{"type":"event","name":"CallSiteRemoved","inputs":[{"name":"target","type":"address","indexed":false,"internalType":"address"},{"name":"selector","type":"bytes4","indexed":false,"internalType":"bytes4"},{"name":"notes","type":"string","indexed":false,"internalType":"string"}],"anonymous":false},{"type":"event","name":"DelegationApprovalDestinationApproved","inputs":[{"name":"sender","type":"address","indexed":false,"internalType":"address"},{"name":"notes","type":"string","indexed":false,"internalType":"string"}],"anonymous":false},{"type":"event","name":"DelegationApprovalDestinationRemoved","inputs":[{"name":"sender","type":"address","indexed":false,"internalType":"address"},{"name":"notes","type":"string","indexed":false,"internalType":"string"}],"anonymous":false},{"type":"event","name":"Initialized","inputs":[{"name":"version","type":"uint64","indexed":false,"internalType":"uint64"}],"anonymous":false},{"type":"event","name":"LagoonVaultApproved","inputs":[{"name":"vault","type":"address","indexed":false,"internalType":"address"},{"name":"notes","type":"string","indexed":false,"internalType":"string"}],"anonymous":false},{"type":"event","name":"OwnershipTransferred","inputs":[{"name":"previousOwner","type":"address","indexed":true,"internalType":"address"},{"name":"newOwner","type":"address","indexed":true,"internalType":"address"}],"anonymous":false},{"type":"event","name":"ReceiverApproved","inputs":[{"name":"sender","type":"address","indexed":false,"internalType":"address"},{"name":"notes","type":"string","indexed":false,"internalType":"string"}],"anonymous":false},{"type":"event","name":"ReceiverRemoved","inputs":[{"name":"sender","type":"address","indexed":false,"internalType":"address"},{"name":"notes","type":"string","indexed":false,"internalType":"string"}],"anonymous":false},{"type":"event","name":"SenderApproved","inputs":[{"name":"sender","type":"address","indexed":false,"internalType":"address"},{"name":"notes","type":"string","indexed":false,"internalType":"string"}],"anonymous":false},{"type":"event","name":"SenderRemoved","inputs":[{"name":"sender","type":"address","indexed":false,"internalType":"address"},{"name":"notes","type":"string","indexed":false,"internalType":"string"}],"anonymous":false},{"type":"event","name":"TargetSet","inputs":[{"name":"previousTarget","type":"address","indexed":true,"internalType":"address"},{"name":"newTarget","type":"address","indexed":true,"internalType":"address"}],"anonymous":false},{"type":"event","name":"WithdrawDestinationApproved","inputs":[{"name":"sender","type":"address","indexed":false,"internalType":"address"},{"name":"notes","type":"string","indexed":false,"internalType":"string"}],"anonymous":false},{"type":"event","name":"WithdrawDestinationRemoved","inputs":[{"name":"sender","type":"address","indexed":false,"internalType":"address"},{"name":"notes","type":"string","indexed":false,"internalType":"string"}],"anonymous":false},{"type":"error","name":"InvalidInitialization","inputs":[]},{"type":"error","name":"NotInitializing","inputs":[]},{"type":"error","name":"OwnableInvalidOwner","inputs":[{"name":"owner","type":"address","internalType":"address"}]},{"type":"error","name":"OwnableUnauthorizedAccount","inputs":[{"name":"account","type":"address","internalType":"address"}]}],"bytecode":{"object":"0x608060405234801561000f575f80fd5b506040516145a83803806145a883398101604081905261002e916103f1565b604080516001600160a01b03848116602083015283168183015281518082038301815260609091019091526100628161006a565b505050610429565b7ff0c57e16840df040f15088dc2f81fe391c3923bec73e23a9662efc9c229c6a00805468010000000000000000810460ff1615906001600160401b03165f811580156100b35750825b90505f826001600160401b031660011480156100ce5750303b155b9050811580156100dc575080155b156100fa5760405163f92ee8a960e01b815260040160405180910390fd5b84546001600160401b0319166001178555831561012857845460ff60401b1916680100000000000000001785555b610131336101b7565b5f808780602001905181019061014791906103f1565b9092509050610155816101cb565b61015e81610222565b6101678261027b565b505083156101af57845460ff60401b19168555604051600181527fc7f505b2f371ae2175ee4913f4499e1f2633a7b5936321eed1cdaeb6115181d29060200160405180910390a15b505050505050565b6101bf6102ba565b6101c88161030a565b50565b6101d3610312565b5f80546001600160a01b038381166001600160a01b0319831681178455604051919092169283917f52ae88b092de36f87fb43fe794eb1381023b9c1bce563a871154022c63dce3429190a35050565b61022a610312565b600180546001600160a01b038381166001600160a01b0319831681179093556040519116919082907f90cc2f570a6eb594b1580ea3e41247d2d73a55281889e86bd4ec2fc29c7e62d6905f90a35050565b610283610312565b6001600160a01b0381166102b157604051631e4fbdf760e01b81525f60048201526024015b60405180910390fd5b6101c88161036d565b7ff0c57e16840df040f15088dc2f81fe391c3923bec73e23a9662efc9c229c6a005468010000000000000000900460ff1661030857604051631afcd79f60e31b815260040160405180910390fd5b565b6102836102ba565b336103447f9016d09d72d40fdae2fd8ceac6b6234c7706214fd39c1cd1e609a0528c199300546001600160a01b031690565b6001600160a01b0316146103085760405163118cdaa760e01b81523360048201526024016102a8565b7f9016d09d72d40fdae2fd8ceac6b6234c7706214fd39c1cd1e609a0528c19930080546001600160a01b031981166001600160a01b03848116918217845560405192169182907f8be0079c531659141344cd1fd0a4f28419497f9722a3daafe3b4186f6b6457e0905f90a3505050565b6001600160a01b03811681146101c8575f80fd5b5f8060408385031215610402575f80fd5b825161040d816103dd565b602084015190925061041e816103dd565b809150509250929050565b614172806104365f395ff3fe608060405234801561000f575f80fd5b506004361061044e575f3560e01c806386b6dbe511610242578063ca963c5011610140578063efb47bff116100bf578063f76081e411610084578063f76081e414610abf578063f901dc3314610ad2578063fa2c59c814610ae5578063fadbcf4814610af8578063fdedfa2714610b1a575f80fd5b8063efb47bff14610a56578063f20e85e014610a86578063f259a07314610452578063f26749f314610a99578063f2fde38b14610aac575f80fd5b8063d7334c9d11610105578063d7334c9d146109e8578063e98539c5146109fb578063eb0de04214610a0e578063ebe2681614610a30578063ee5462cc14610a43575f80fd5b8063ca963c501461069b578063d075f9bb1461099c578063d2f73e3d146109af578063d4b83992146109c2578063d4c0fe45146109d5575f80fd5b8063a4f9edbf116101cc578063b8fe8d5f11610191578063b8fe8d5f14610911578063be8c97b014610933578063c2e657ae14610963578063c4cc9dba14610976578063c537bed014610989575f80fd5b8063a4f9edbf14610894578063a67e1f54146108a7578063a847cf4d146108ba578063a9fc3d4f146108e7578063b3c329cb146108fe575f80fd5b80638fb4dff2116102125780638fb4dff214610817578063957dc6c01461083957806398b3cc391461084c578063a1b6b4301461085f578063a4c1cccb14610872575f80fd5b806386b6dbe5146107dc57806387301608146107ef5780638c2fdf9e146107fc5780638da5cb5b1461080f575f80fd5b80635e4ccace1161034f578063715018a6116102d9578063776d1a011161029e578063776d1a0114610760578063780650861461077357806378addb48146107865780637ea44655146107b657806386a6ae15146107c9575f80fd5b8063715018a61461071757806372e548a91461071f5780637325249414610732578063742bfc7e1461073a578063761bcd9c1461074d575f80fd5b80636ad113531161031f5780636ad113531461069b5780636d5025f1146106ae5780636d9a1423146106c15780636fd7fdef146106d4578063713ebf3b14610704575f80fd5b80635e4ccace1461064f5780635e6afe4d1461066257806363cc17f2146106755780636a6d5cc814610688575f80fd5b80632dc32a61116103db5780634b941268116103a05780634b941268146105ca5780634b956bd8146105ec57806359b92be9146105ff5780635ace1d92146106125780635aef7de614610625575f80fd5b80632dc32a611461053f57806334ec8d7e1461056f5780633cf20025146105825780633ea35551146105a4578063425f49d0146105b7575f80fd5b80631710a4f2116104215780631710a4f2146104c45780631c123e77146104d75780631d49039c146104ea5780632c02cda01461051a5780632d12d7881461052c575f80fd5b806304a3ba251461045257806307ac35621461046757806307ef00cf1461047a578063086cfca8146104b1575b5f80fd5b61046561046036600461352b565b610b29565b005b610465610475366004613637565b610b91565b61049c610488366004613670565b60086020525f908152604090205460ff1681565b60405190151581526020015b60405180910390f35b6104656104bf366004613670565b610ecc565b6104656104d2366004613637565b610f23565b6104656104e5366004613637565b610fd3565b61049c6104f8366004613670565b6001600160a01b03165f9081526009602052604090205460ff16151560011490565b610465610528366004613692565b5050565b61046561053a36600461352b565b61104c565b61049c61054d366004613670565b6001600160a01b03165f908152600a602052604090205460ff16151560011490565b61046561057d36600461352b565b6110a7565b61049c610590366004613670565b60076020525f908152604090205460ff1681565b6104656105b236600461352b565b611122565b6104656105c5366004613637565b61114d565b61049c6105d8366004613670565b600a6020525f908152604090205460ff1681565b6104656105fa366004613637565b61116e565b61046561060d366004613637565b611211565b61046561062036600461352b565b611292565b5f54610637906001600160a01b031681565b6040516001600160a01b0390911681526020016104a8565b61046561065d3660046136fa565b6112f0565b61046561067036600461352b565b61139c565b61046561068336600461352b565b611499565b610465610696366004613637565b6114f7565b6104656106a9366004613637565b61159e565b6104656106bc366004613758565b6115c0565b6104656106cf36600461352b565b6115d2565b61049c6106e2366004613670565b6001600160a01b03165f908152600b602052604090205460ff16151560011490565b61049c610712366004613786565b611608565b61046561163f565b61046561072d36600461352b565b611652565b6106376116b0565b610465610748366004613637565b6116be565b61046561075b366004613637565b61175c565b61046561076e366004613670565b611865565b610465610781366004613637565b6118be565b61049c610794366004613670565b6001600160a01b03165f9081526003602052604090205460ff16151560011490565b6104656107c4366004613637565b611960565b6104656107d736600461352b565b61199c565b6104656107ea36600461352b565b611b14565b600c5461049c9060ff1681565b61046561080a36600461352b565b611b72565b610637611bcd565b61049c610825366004613670565b600b6020525f908152604090205460ff1681565b610465610847366004613637565b611bfb565b61046561085a36600461352b565b611cb9565b61046561086d366004613637565b611d17565b61049c610880366004613670565b60056020525f908152604090205460ff1681565b6104656108a2366004613637565b611e5d565b6104656108b536600461352b565b611f9f565b61049c6108c8366004613786565b600260209081525f928352604080842090915290825290205460ff1681565b6108f060045481565b6040519081526020016104a8565b61046561090c366004613670565b611ffa565b61049c61091f366004613670565b60036020525f908152604090205460ff1681565b61049c610941366004613670565b6001600160a01b03165f9081526006602052604090205460ff16151560011490565b6104656109713660046137c6565b612063565b610465610984366004613637565b6120ad565b61049c610997366004613670565b612167565b61049c6109aa366004613670565b612198565b6104656109bd36600461352b565b6121ba565b600154610637906001600160a01b031681565b6104656109e3366004613637565b61221b565b6104656109f63660046136fa565b61225a565b610465610a09366004613637565b6122cc565b61049c610a1c366004613670565b60096020525f908152604090205460ff1681565b610465610a3e366004613637565b61236d565b610465610a5136600461352b565b612403565b61049c610a64366004613670565b6001600160a01b03165f9081526008602052604090205460ff16151560011490565b610465610a9436600461352b565b61240e565b610465610aa7366004613758565b612464565b610465610aba366004613670565b6124d9565b610465610acd366004613637565b612513565b610465610ae036600461352b565b61258e565b610465610af336600461352b565b6125e9565b61049c610b06366004613670565b60066020525f908152604090205460ff1681565b604051600181526020016104a8565b610b31612647565b6001600160a01b0383165f9081526009602052604090819020805460ff19169055517fb71be9befd3ac90c1c9981d3b1161b3c2c6dcd741f13b34061aa251226a802df90610b849085908590859061380b565b60405180910390a1505050565b5f81806020019051810190610ba691906138a7565b90505f5b8151811015610ec7575f828281518110610bc657610bc6613956565b602002602001015190505f610be75f6004846126799092919063ffffffff16565b610bf09061396a565b90505f610c0d6004808551610c0591906139bc565b859190612679565b6040805180820190915260208082527f7472616e736665724552433230496e28616464726573732c75696e74323536299101529050631dac092b60e11b6001600160e01b0319831601610c6857610c6381611211565b610ebc565b60408051808201909152601b81527f7472616e736665724552433230416c6c496e2861646472657373290000000000602090910152635cf59cb760e11b6001600160e01b0319831601610cbe57610c6381611960565b60408051808201909152601881527f6465706f73697428616464726573732c6164647265737329000000000000000060209091015262d3ec1f60e31b6001600160e01b0319831601610d1357610c63816120ad565b60408051808201909152601981527f776974686472617728616464726573732c6164647265737329000000000000006020909101526306bf1c7b60e01b6001600160e01b0319831601610d6957610c6381612513565b610d906040518060600160405280602781526020016140e260279139805160209091012090565b6001600160e01b031916826001600160e01b03191603610db357610c638161159e565b610dda6040518060600160405280602881526020016140ba60289139805160209091012090565b6001600160e01b031916826001600160e01b03191603610dfd57610c638161159e565b60408051808201909152601e81527f666c61736853776170416c6c4f75742875696e743235362c627974657329000060209091015263d2b3d16560e01b6001600160e01b0319831601610e5357610c638161114d565b60405162461bcd60e51b815260206004820152603360248201527f76616c69646174655f3164656c74614d756c746963616c6c3a20556e6b6e6f776044820152723710333ab731ba34b7b71039b2b632b1ba37b960691b60648201526084015b60405180910390fd5b505050600101610baa565b505050565b610ed4612647565b5f80546001600160a01b038381166001600160a01b0319831681178455604051919092169283917f52ae88b092de36f87fb43fe794eb1381023b9c1bce563a871154022c63dce3429190a35050565b5f81806020019051810190610f3891906139da565b509050610f61816001600160a01b03165f9081526008602052604090205460ff16151560011490565b6105285760405162461bcd60e51b815260206004820152603c60248201527f76616c69646174655f7472616e736665723a205265636569766572206164647260448201527f657373206e6f742077686974656c6973746564206279204775617264000000006064820152608401610eb3565b5f805b610fdf836127cf565b5092509050610fed82612167565b6110095760405162461bcd60e51b8152600401610eb390613a06565b61101281612167565b61102e5760405162461bcd60e51b8152600401610eb390613a06565b6110378361280a565b15610ec75761104583612843565b9250610fd6565b611054612647565b6001600160a01b0383165f9081526007602052604090819020805460ff19169055517f4e13b11ab98e672bd78295ef9cebe764dc617f95decf47d842c25b83abc0c72490610b849085908590859061380b565b6110d9836110d260405180606001604052806033815260200161408760339139805160209091012090565b84846112f0565b611104836110d260405180606001604052806034815260200161410960349139805160209091012090565b6111178363b858183f60e01b84846112f0565b610ec7838383611cb9565b611117836110d2604051806080016040528060438152602001613fba60439139805160209091012090565b5f818060200190518101906111629190613a4e565b91505061052881611d17565b5f8180602001905181019061118391906139da565b5090506111ac816001600160a01b03165f9081526009602052604090205460ff16151560011490565b6105285760405162461bcd60e51b815260206004820152603060248201527f76616c69646174655f617070726f76653a20417070726f76652061646472657360448201526f0e640c8decae640dcdee840dac2e8c6d60831b6064820152608401610eb3565b5f8180602001905181019061122691906139da565b50905061123281612167565b6105285760405162461bcd60e51b815260206004820152602b60248201527f76616c69646174655f7472616e736665724552433230496e3a20546f6b656e2060448201526a1b9bdd08185b1b1bddd95960aa1b6064820152608401610eb3565b61129a612647565b6001600160a01b0383165f9081526008602052604090819020805460ff19166001179055517f3562181221a42a19ddd03a82dfe06acab1905ceb65cdaf7d86a1d9fec664355290610b849085908590859061380b565b6112f8612647565b6001600160a01b0384165f8181526002602090815260408083206001600160e01b03198816845282528083208054600160ff19918216811790925594845260039092528220805490931617909155600480549161135483613a88565b91905055507fef729aaa41b9fd994f9ff7c1960df214a84f722002e6cfbea31799cd0873a3ef8484848460405161138e9493929190613aa0565b60405180910390a150505050565b6113a4612647565b6001600160a01b0383165f908152600b6020908152604091829020805460ff191660011790558151808301909252600f82526e736574746c654465706f736974282960881b910152611416837f559ec80da0b29925dac0e329ba0aaf8bbf2760bcaf9174e4ca42e01d74c0e6d06110d2565b60408051808201909152600e81526d736574746c6552656465656d282960901b602090910152611466837fa03d55e3f74b6754c01f274bb12d9c8a11ea8330b6b4ce7125c8dff1f63646ca6110d2565b7ffaa136302ac223cf7c1146490a741e4520e886fc22d7e759641453f432283d01838383604051610b849392919061380b565b6114a1612647565b6001600160a01b0383165f908152600a602052604090819020805460ff19166001179055517f628a44970c0e450415e3ae74334ea44f3307b74dbf677a1371190242bf2f358990610b849085908590859061380b565b5f808280602001905181019061150d9190613ade565b925050915061151b82612167565b6115375760405162461bcd60e51b8152600401610eb390613b1e565b61154081612198565b610ec75760405162461bcd60e51b815260206004820152602960248201527f52656365697665722061646472657373206e6f742077686974656c697374656460448201526808189e4811dd585c9960ba1b6064820152608401610eb3565b5f818060200190518101906115b39190613b49565b9250505061052881611d17565b6115cc84848484612874565b50505050565b6115fd836110d260405180606001604052806022815260200161406560229139805160209091012090565b610ec7838383611b14565b6001600160a01b0382165f9081526002602090815260408083206001600160e01b03198516845290915290205460ff165b92915050565b611647612647565b6116505f613165565b565b61165a612647565b6001600160a01b0383165f9081526007602052604090819020805460ff19166001179055517f62dd88c5ecfa60713a657640ebec4de26fc1aefa4afdb24e6d15a124fce7277990610b849085908590859061380b565b5f6116b9611bcd565b905090565b5f818060200190518101906116d39190613b95565b509150506116e081612198565b6105285760405162461bcd60e51b815260206004820152604160248201527f76616c69646174655f4552433436323652656465656d3a20526563656976657260448201527f2061646472657373206e6f742077686974656c697374656420627920477561726064820152601960fa1b608482015260a401610eb3565b5f80828060200190518101906117729190613bcb565b5093509350505061178281612198565b6118095760405162461bcd60e51b815260206004820152604c60248201527f76616c69646174655f737761704578616374546f6b656e73466f72546f6b656e60448201527f733a2052656365697665722061646472657373206e6f742077686974656c697360648201526b1d195908189e4811dd585c9960a21b608482015260a401610eb3565b5f805b835181101561185e5783818151811061182757611827613956565b6020026020010151915061183a82612167565b6118565760405162461bcd60e51b8152600401610eb390613b1e565b60010161180c565b5050505050565b61186d612647565b600180546001600160a01b038381166001600160a01b0319831681179093556040519116919082907f90cc2f570a6eb594b1580ea3e41247d2d73a55281889e86bd4ec2fc29c7e62d6905f90a35050565b5f818060200190518101906118d39190613b95565b509150506118e081612198565b6105285760405162461bcd60e51b815260206004820152604560248201527f76616c69646174655f455243343632365769746864726177616c3a205265636560448201527f697665722061646472657373206e6f742077686974656c69737465642062792060648201526411dd585c9960da1b608482015260a401610eb3565b5f818060200190518101906119759190613c94565b905061198081612167565b6105285760405162461bcd60e51b8152600401610eb390613caf565b5f8390505f816001600160a01b03166338d52e0f6040518163ffffffff1660e01b8152600401602060405180830381865afa1580156119dd573d5f803e3d5ffd5b505050506040513d601f19601f82011682018060405250810190611a019190613c94565b6040805180820190915260188152776465706f7369742875696e743235362c616464726573732960401b602090910152905084611a61817f6e553f653991036c188afcef45e14f9ecb45269ff9c675358bbb3a2eeb78e03b5b87876112f0565b611a8c86611a5a60405180606001604052806021815260200161404460219139805160209091012090565b60408051808201909152601f81527f72656465656d2875696e743235362c616464726573732c616464726573732900602090910152611aeb867fba087652ef750b77b3f3b86ecd8aac56de04fbc0d6751abdd0992cabce379054611a5a565b611af6868686611cb9565b611b018186866131d5565b611b0c8286866131d5565b505050505050565b611b1c612647565b6001600160a01b0383165f9081526005602052604090819020805460ff19166001179055517fad90e2570fc4fe9f7437be3188d5c791c6662892d31731992aa88f5c8762198390610b849085908590859061380b565b611b7a612647565b6001600160a01b0383165f9081526008602052604090819020805460ff19169055517f1212f8ddb39de8e1a339460c95752d61100723efeaa34ccd94bca94393f4093890610b849085908590859061380b565b7f9016d09d72d40fdae2fd8ceac6b6234c7706214fd39c1cd1e609a0528c199300546001600160a01b031690565b5f81806020019051810190611c1091906139da565b509050611c39816001600160a01b03165f908152600a602052604090205460ff16151560011490565b6105285760405162461bcd60e51b815260206004820152604560248201527f76616c69646174655f617070726f766544656c65676174696f6e3a204170707260448201527f6f76652064656c65676174696f6e206164647265737320646f6573206e6f74206064820152640dac2e8c6d60db1b608482015260a401610eb3565b611cc1612647565b6001600160a01b0383165f9081526009602052604090819020805460ff19166001179055517f628a44970c0e450415e3ae74334ea44f3307b74dbf677a1371190242bf2f358990610b849085908590859061380b565b5f805b611d24835f61328a565b9150611d53600180611d3860036014613cfd565b611d429190613cfd565b611d4c9190613cfd565b849061328a565b9050611d5e82612167565b611d7a5760405162461bcd60e51b8152600401610eb390613d10565b611d8381612167565b611d9f5760405162461bcd60e51b8152600401610eb390613d10565b600180611dae60036014613cfd565b611db89190613cfd565b611dc29190613cfd565b6014600180611dd2600384613cfd565b611ddc9190613cfd565b611de69190613cfd565b611df09190613cfd565b611dfa9190613cfd565b835110610ec757611e56600180611e1360036014613cfd565b611e1d9190613cfd565b611e279190613cfd565b600180611e3660036014613cfd565b611e409190613cfd565b611e4a9190613cfd565b8551610c0591906139bc565b9250611d1a565b7ff0c57e16840df040f15088dc2f81fe391c3923bec73e23a9662efc9c229c6a008054600160401b810460ff1615906001600160401b03165f81158015611ea15750825b90505f826001600160401b03166001148015611ebc5750303b155b905081158015611eca575080155b15611ee85760405163f92ee8a960e01b815260040160405180910390fd5b845467ffffffffffffffff191660011785558315611f1257845460ff60401b1916600160401b1785555b611f1b3361333d565b5f8087806020019051810190611f319190613d55565b91509150611f3e81610ecc565b611f4781611865565b611f50826124d9565b50508315611b0c57845460ff60401b19168555604051600181527fc7f505b2f371ae2175ee4913f4499e1f2633a7b5936321eed1cdaeb6115181d29060200160405180910390a1505050505050565b611fa7612647565b6001600160a01b0383165f9081526006602052604090819020805460ff19169055517f3097928509c53a2dab9500431201d82b0d756e8f890fd01f4ae6b33b45687ea490610b849085908590859061380b565b612020816001600160a01b03165f908152600b602052604090205460ff16151560011490565b6120605760405162461bcd60e51b815260206004820152601160248201527015985d5b1d081b9bdd08185b1b1bddd959607a1b6044820152606401610eb3565b50565b61206b612647565b600c805460ff19168415151790556040517f50454d9d0025a28a39cac5a4b3f3101d29b6e413fbb64f75fb42eb6837b0771890610b8490859085908590613d8d565b5f80828060200190518101906120c39190613d55565b915091506120d082612167565b6120ec5760405162461bcd60e51b8152600401610eb390613caf565b6120f581612198565b610ec75760405162461bcd60e51b815260206004820152603b60248201527f76616c69646174655f6465706f7369743a20526563656976657220616464726560448201527f7373206e6f742077686974656c697374656420627920477561726400000000006064820152608401610eb3565b600c545f9060ff16806116395750506001600160a01b03165f9081526005602052604090205460ff16151560011490565b6001600160a01b03165f9081526007602052604090205460ff16151560011490565b5f60606121c933868686612874565b612209855f86868080601f0160208091040260200160405190810160405280939291908181526020018383808284375f920182905250925061334e915050565b90925090508161185e57805160208201fd5b5f818060200190518101906122309190613da8565b505050905061223e81612167565b6105285760405162461bcd60e51b8152600401610eb390613b1e565b612262612647565b6001600160a01b0384165f9081526002602090815260408083206001600160e01b03198716845290915290819020805460ff19169055517f37ea10f2d08f5a9803dfcd5abf3cfc7b0d6fcdf5fcbc36be9ea5a0b53d9a4d9b9061138e908690869086908690613aa0565b5f818060200190518101906122e19190613e84565b90506122f08160200151612198565b6123625760405162461bcd60e51b815260206004820152603f60248201527f76616c69646174655f65786163744f75747075743a205265636569766572206160448201527f646472657373206e6f742077686974656c6973746564206279204775617264006064820152608401610eb3565b805161052890610fd3565b5f818060200190518101906123829190613e84565b90506123918160200151612198565b6123625760405162461bcd60e51b815260206004820152603e60248201527f76616c69646174655f6578616374496e7075743a20526563656976657220616460448201527f6472657373206e6f742077686974656c697374656420627920477561726400006064820152608401610eb3565b610ec78383836131d5565b612439836110d2604051806060016040528060268152602001613ffd60269139805160209091012090565b611117836110d260405180606001604052806021815260200161402360219139805160209091012090565b6040805180820190915260128152716d756c746963616c6c2862797465735b5d2960701b6020909101526124b8847fac9650d882acfa253cba1ed543b9ff47351da99c3bd00a89625e5cdb2099009c6110d2565b6124c3848383611cb9565b6124ce838383611cb9565b6115cc848383611499565b6124e1612647565b6001600160a01b03811661250a57604051631e4fbdf760e01b81525f6004820152602401610eb3565b61206081613165565b5f80828060200190518101906125299190613d55565b9150915061253682612167565b6120ec5760405162461bcd60e51b8152602060048201526024808201527f76616c69646174655f77697468647261773a20546f6b656e206e6f7420616c6c6044820152631bddd95960e21b6064820152608401610eb3565b612596612647565b6001600160a01b0383165f9081526005602052604090819020805460ff19169055517f9ca3f065622f5f03f32b7157677a0e420c3a36ab45fd49f256ffebce3e31058790610b849085908590859061380b565b6125f1612647565b6001600160a01b0383165f9081526006602052604090819020805460ff19166001179055517fa8f9caaf4861720900294428e4ff34d37070c37afd26d96e6e4da75326d2c3ad90610b849085908590859061380b565b33612650611bcd565b6001600160a01b0316146116505760405163118cdaa760e01b8152336004820152602401610eb3565b60608161268781601f613cfd565b10156126c65760405162461bcd60e51b815260206004820152600e60248201526d736c6963655f6f766572666c6f7760901b6044820152606401610eb3565b826126d18382613cfd565b10156127105760405162461bcd60e51b815260206004820152600e60248201526d736c6963655f6f766572666c6f7760901b6044820152606401610eb3565b61271a8284613cfd565b8451101561275e5760405162461bcd60e51b8152602060048201526011602482015270736c6963655f6f75744f66426f756e647360781b6044820152606401610eb3565b60608215801561277c5760405191505f8252602082016040526127c6565b6040519150601f8416801560200281840101858101878315602002848b0101015b818310156127b557805183526020928301920161279d565b5050858452601f01601f1916604052505b50949350505050565b5f80806127dc848261328a565b92506127e98460146133d8565b90506128016127fa60036014613cfd565b859061328a565b91509193909250565b5f61281760036014613cfd565b6014612824600382613cfd565b61282e9190613cfd565b6128389190613cfd565b825110159050919050565b606061163961285460036014613cfd565b61286060036014613cfd565b845161286c91906139bc565b849190612679565b61287c6116b0565b6001600160a01b0316846001600160a01b031603156115cc576128bb846001600160a01b03165f9081526006602052604090205460ff16151560011490565b6129075760405162461bcd60e51b815260206004820181905260248201527f76616c696461746543616c6c3a2053656e646572206e6f7420616c6c6f7765646044820152606401610eb3565b5f6129156004828486613eb5565b61291e91613edc565b9050365f61292f8460048188613eb5565b600c5491935091505f9060ff1680156129885750604080518082019091526018815277617070726f766528616464726573732c75696e743235362960401b60209091015263095ea7b360e01b6001600160e01b03198516145b905080612a7e576129998785611608565b612a7e576129c3876001600160a01b03165f9081526003602052604090205460ff16151560011490565b612a0f5760405162461bcd60e51b815260206004820181905260248201527f76616c696461746543616c6c3a20746172676574206e6f7420616c6c6f7765646044820152606401610eb3565b612a198785611608565b612a7e5760405162461bcd60e51b815260206004820152603060248201527f76616c696461746543616c6c3a2073656c6563746f72206e6f7420616c6c6f7760448201526f1959081bdb881d1a19481d185c99d95d60821b6064820152608401610eb3565b612aa5604051806080016040528060438152602001613fba60439139805160209091012090565b6001600160e01b031916846001600160e01b03191603612b0257612afd83838080601f0160208091040260200160405190810160405280939291908181526020018383808284375f9201919091525061175c92505050565b61315b565b612b2960405180606001604052806033815260200161408760339139805160209091012090565b6001600160e01b031916846001600160e01b03191603612b8157612afd83838080601f0160208091040260200160405190810160405280939291908181526020018383808284375f9201919091525061236d92505050565b6001600160e01b0319841663b858183f60e01b03612c2857600c5460ff16612afd5760405162461bcd60e51b815260206004820152604e60248201527f76616c696461746543616c6c3a2053776170526f75746572303220697320637560448201527f7272656e746c7920737570706f72746564206f6e6c79207769746820616e794160648201526d1cdcd95d081dda1a5d195b1a5cdd60921b608482015260a401610eb3565b6040805180820190915260128152716d756c746963616c6c2862797465735b5d2960701b602090910152630a6d35e560e31b6001600160e01b0319851601612ca857612afd83838080601f0160208091040260200160405190810160405280939291908181526020018383808284375f92019190915250610b9192505050565b6040805180820190915260198152787472616e7366657228616464726573732c75696e743235362960381b6020909101526356fa634560e01b6001600160e01b0319851601612d2f57612afd83838080601f0160208091040260200160405190810160405280939291908181526020018383808284375f92019190915250610f2392505050565b604080518082019091526018815277617070726f766528616464726573732c75696e743235362960401b60209091015263f6a1584d60e01b6001600160e01b0319851601612db557612afd83838080601f0160208091040260200160405190810160405280939291908181526020018383808284375f9201919091525061116e92505050565b612ddc60405180606001604052806022815260200161406560229139805160209091012090565b6001600160e01b031916846001600160e01b03191603612e3457612afd83838080601f0160208091040260200160405190810160405280939291908181526020018383808284375f92019190915250611bfb92505050565b612e5b604051806060016040528060268152602001613ffd60269139805160209091012090565b6001600160e01b031916846001600160e01b03191603612eb357612afd83838080601f0160208091040260200160405190810160405280939291908181526020018383808284375f9201919091525061221b92505050565b612eda60405180606001604052806021815260200161402360219139805160209091012090565b6001600160e01b031916846001600160e01b03191603612f3257612afd83838080601f0160208091040260200160405190810160405280939291908181526020018383808284375f920191909152506114f792505050565b60408051808201909152600f81526e736574746c654465706f736974282960881b60209091015263aa6137f360e01b6001600160e01b0319851601612f7a57612afd87611ffa565b60408051808201909152600e81526d736574746c6552656465656d282960901b602090910152635fc2aa1d60e01b6001600160e01b0319851601612fc157612afd87611ffa565b6040805180820190915260188152776465706f7369742875696e743235362c616464726573732960401b602090910152636e553f6560e01b6001600160e01b031985161461315b5761303060405180606001604052806021815260200161404460219139805160209091012090565b6001600160e01b031916846001600160e01b0319160361308857612afd83838080601f0160208091040260200160405190810160405280939291908181526020018383808284375f920191909152506118be92505050565b60408051808201909152601f81527f72656465656d2875696e743235362c616464726573732c6164647265737329006020909101526322fbc4d760e11b6001600160e01b031985160161311357612afd83838080601f0160208091040260200160405190810160405280939291908181526020018383808284375f920191909152506116be92505050565b60405162461bcd60e51b815260206004820152601960248201527f556e6b6e6f776e2066756e6374696f6e2073656c6563746f72000000000000006044820152606401610eb3565b5050505050505050565b7f9016d09d72d40fdae2fd8ceac6b6234c7706214fd39c1cd1e609a0528c19930080546001600160a01b031981166001600160a01b03848116918217845560405192169182907f8be0079c531659141344cd1fd0a4f28419497f9722a3daafe3b4186f6b6457e0905f90a3505050565b6040805180820190915260198152787472616e7366657228616464726573732c75696e743235362960381b602090910152613230837fa9059cbb2ab09eb219583f4a59a5d0623ade346d962bcd4e46b11da047c9049b6110d2565b604080518082019091526018815277617070726f766528616464726573732c75696e743235362960401b6020909101526115fd837f095ea7b334ae44009aa867bfb386f5c3b4b443ac6f0ee573fa91c4608fbadfba6110d2565b5f81613297816014613cfd565b10156132da5760405162461bcd60e51b8152602060048201526012602482015271746f416464726573735f6f766572666c6f7760701b6044820152606401610eb3565b6132e5826014613cfd565b8351101561332d5760405162461bcd60e51b8152602060048201526015602482015274746f416464726573735f6f75744f66426f756e647360581b6044820152606401610eb3565b500160200151600160601b900490565b613345613482565b612060816134cb565b600154604051635229073f60e01b81525f916060916001600160a01b0390911690635229073f90613389908990899089908990600401613f14565b5f604051808303815f875af11580156133a4573d5f803e3d5ffd5b505050506040513d5f823e601f3d908101601f191682016040526133cb9190810190613f82565b9150915094509492505050565b5f816133e5816003613cfd565b10156134275760405162461bcd60e51b8152602060048201526011602482015270746f55696e7432345f6f766572666c6f7760781b6044820152606401610eb3565b613432826003613cfd565b835110156134795760405162461bcd60e51b8152602060048201526014602482015273746f55696e7432345f6f75744f66426f756e647360601b6044820152606401610eb3565b50016003015190565b7ff0c57e16840df040f15088dc2f81fe391c3923bec73e23a9662efc9c229c6a0054600160401b900460ff1661165057604051631afcd79f60e31b815260040160405180910390fd5b6124e1613482565b6001600160a01b0381168114612060575f80fd5b5f8083601f8401126134f7575f80fd5b5081356001600160401b0381111561350d575f80fd5b602083019150836020828501011115613524575f80fd5b9250929050565b5f805f6040848603121561353d575f80fd5b8335613548816134d3565b925060208401356001600160401b03811115613562575f80fd5b61356e868287016134e7565b9497909650939450505050565b634e487b7160e01b5f52604160045260245ffd5b604051601f8201601f191681016001600160401b03811182821017156135b7576135b761357b565b604052919050565b5f6001600160401b038211156135d7576135d761357b565b50601f01601f191660200190565b5f82601f8301126135f4575f80fd5b8135613607613602826135bf565b61358f565b81815284602083860101111561361b575f80fd5b816020850160208301375f918101602001919091529392505050565b5f60208284031215613647575f80fd5b81356001600160401b0381111561365c575f80fd5b613668848285016135e5565b949350505050565b5f60208284031215613680575f80fd5b813561368b816134d3565b9392505050565b5f80604083850312156136a3575f80fd5b82356136ae816134d3565b915060208301356001600160401b038111156136c8575f80fd5b6136d4858286016135e5565b9150509250929050565b80356001600160e01b0319811681146136f5575f80fd5b919050565b5f805f806060858703121561370d575f80fd5b8435613718816134d3565b9350613726602086016136de565b925060408501356001600160401b03811115613740575f80fd5b61374c878288016134e7565b95989497509550505050565b5f805f806060858703121561376b575f80fd5b8435613776816134d3565b93506020850135613726816134d3565b5f8060408385031215613797575f80fd5b82356137a2816134d3565b91506137b0602084016136de565b90509250929050565b8015158114612060575f80fd5b5f805f604084860312156137d8575f80fd5b8335613548816137b9565b81835281816020850137505f828201602090810191909152601f909101601f19169091010190565b6001600160a01b03841681526040602082018190525f9061382f90830184866137e3565b95945050505050565b5f6001600160401b038211156138505761385061357b565b5060051b60200190565b5f82601f830112613869575f80fd5b8151613877613602826135bf565b81815284602083860101111561388b575f80fd5b8160208501602083015e5f918101602001919091529392505050565b5f602082840312156138b7575f80fd5b81516001600160401b038111156138cc575f80fd5b8201601f810184136138dc575f80fd5b80516138ea61360282613838565b8082825260208201915060208360051b85010192508683111561390b575f80fd5b602084015b8381101561394b5780516001600160401b0381111561392d575f80fd5b61393c8960208389010161385a565b84525060209283019201613910565b509695505050505050565b634e487b7160e01b5f52603260045260245ffd5b805160208201516001600160e01b03198116919060048210156139a1576001600160e01b0319600483900360031b81901b82161692505b5050919050565b634e487b7160e01b5f52601160045260245ffd5b81810381811115611639576116396139a8565b80516136f5816134d3565b5f80604083850312156139eb575f80fd5b82516139f6816134d3565b6020939093015192949293505050565b60208082526028908201527f76616c6964617465556e69737761705633506174683a20546f6b656e206e6f7460408201526708185b1b1bddd95960c21b606082015260800190565b5f8060408385031215613a5f575f80fd5b825160208401519092506001600160401b03811115613a7c575f80fd5b6136d48582860161385a565b5f60018201613a9957613a996139a8565b5060010190565b6001600160a01b03851681526001600160e01b0319841660208201526060604082018190525f90613ad490830184866137e3565b9695505050505050565b5f805f60608486031215613af0575f80fd5b8351613afb816134d3565b602085015160408601519194509250613b13816134d3565b809150509250925092565b602080825260119082015270151bdad95b881b9bdd08185b1b1bddd959607a1b604082015260600190565b5f805f60608486031215613b5b575f80fd5b83516020850151604086015191945092506001600160401b03811115613b7f575f80fd5b613b8b8682870161385a565b9150509250925092565b5f805f60608486031215613ba7575f80fd5b83516020850151909350613bba816134d3565b6040850151909250613b13816134d3565b5f805f805f60a08688031215613bdf575f80fd5b85516020870151604088015191965094506001600160401b03811115613c03575f80fd5b8601601f81018813613c13575f80fd5b8051613c2161360282613838565b8082825260208201915060208360051b85010192508a831115613c42575f80fd5b6020840193505b82841015613c6d578351613c5c816134d3565b825260209384019390910190613c49565b9550613c7f92505050606087016139cf565b60809690960151949793965091949392915050565b5f60208284031215613ca4575f80fd5b815161368b816134d3565b6020808252602e908201527f76616c69646174655f7472616e736665724552433230416c6c496e3a20546f6b60408201526d195b881b9bdd08185b1b1bddd95960921b606082015260800190565b80820180821115611639576116396139a8565b60208082526025908201527f76616c69646174653164656c7461506174683a20546f6b656e206e6f7420616c6040820152641b1bddd95960da1b606082015260800190565b5f8060408385031215613d66575f80fd5b8251613d71816134d3565b6020840151909250613d82816134d3565b809150509250929050565b8315158152604060208201525f61382f6040830184866137e3565b5f805f8060808587031215613dbb575f80fd5b8451613dc6816134d3565b602086015160408701519195509350613dde816134d3565b6060959095015193969295505050565b5f60a08284031215613dfe575f80fd5b60405160a081016001600160401b0381118282101715613e2057613e2061357b565b806040525080915082516001600160401b03811115613e3d575f80fd5b613e498582860161385a565b8252506020830151613e5a816134d3565b60208201526040838101519082015260608084015190820152608092830151920191909152919050565b5f60208284031215613e94575f80fd5b81516001600160401b03811115613ea9575f80fd5b61366884828501613dee565b5f8085851115613ec3575f80fd5b83861115613ecf575f80fd5b5050820193919092039150565b80356001600160e01b03198116906004841015613f0d576001600160e01b0319600485900360031b81901b82161691505b5092915050565b60018060a01b0385168152836020820152608060408201525f8351806080840152806020860160a085015e5f60a0828501015260a0601f19601f83011684010191505060028310613f7357634e487b7160e01b5f52602160045260245ffd5b82606083015295945050505050565b5f8060408385031215613f93575f80fd5b8251613f9e816137b9565b60208401519092506001600160401b03811115613a7c575f80fdfe737761704578616374546f6b656e73466f72546f6b656e732875696e743235362c75696e743235362c616464726573735b5d2c616464726573732c75696e7432353629737570706c7928616464726573732c75696e743235362c616464726573732c75696e74313629776974686472617728616464726573732c75696e743235362c616464726573732977697468647261772875696e743235362c616464726573732c6164647265737329617070726f766544656c65676174696f6e28616464726573732c75696e74323536296578616374496e707574282862797465732c616464726573732c75696e743235362c75696e743235362c75696e743235362929666c6173685377617045786163744f75742875696e743235362c75696e743235362c627974657329666c617368537761704578616374496e2875696e743235362c75696e743235362c62797465732965786163744f7574707574282862797465732c616464726573732c75696e743235362c75696e743235362c75696e743235362929a2646970667358221220a5ae0415ce59655a98b12c72e481d790e1a5e8f346f5086af60d9d7e5b0f4b3364736f6c634300081a0033","linkReferences":{}},"methodIdentifiers":{"allowApprovalDestination(address,string)":"98b3cc39","allowAsset(address,string)":"86b6dbe5","allowCallSite(address,bytes4,string)":"5e4ccace","allowDelegationApprovalDestination(address,string)":"63cc17f2","allowReceiver(address,string)":"72e548a9","allowSender(address,string)":"fa2c59c8","allowWithdrawDestination(address,string)":"5ace1d92","allowedApprovalDestinations(address)":"eb0de042","allowedAssets(address)":"a4c1cccb","allowedCallSites(address,bytes4)":"a847cf4d","allowedDelegationApprovalDestinations(address)":"4b941268","allowedLagoonVaults(address)":"8fb4dff2","allowedReceivers(address)":"3cf20025","allowedSenders(address)":"fadbcf48","allowedTargets(address)":"b8fe8d5f","allowedWithdrawDestinations(address)":"07ef00cf","anyAsset()":"87301608","avatar()":"5aef7de6","callSiteCount()":"a9fc3d4f","getGovernanceAddress()":"73252494","getInternalVersion()":"fdedfa27","isAllowedApprovalDestination(address)":"1d49039c","isAllowedAsset(address)":"c537bed0","isAllowedCallSite(address,bytes4)":"713ebf3b","isAllowedDelegationApprovalDestination(address)":"2dc32a61","isAllowedLagoonVault(address)":"6fd7fdef","isAllowedReceiver(address)":"d075f9bb","isAllowedSender(address)":"be8c97b0","isAllowedTarget(address)":"78addb48","isAllowedWithdrawDestination(address)":"efb47bff","owner()":"8da5cb5b","performCall(address,bytes)":"d2f73e3d","removeApprovalDestination(address,string)":"04a3ba25","removeAsset(address,string)":"f901dc33","removeCallSite(address,bytes4,string)":"d7334c9d","removeDelegationApprovalDestination(address,string)":"f259a073","removeReceiver(address,string)":"2d12d788","removeSender(address,string)":"a67e1f54","removeWithdrawDestination(address,string)":"8c2fdf9e","renounceOwnership()":"715018a6","setAnyAssetAllowed(bool,string)":"c2e657ae","setAvatar(address)":"086cfca8","setTarget(address)":"776d1a01","setUp(bytes)":"a4f9edbf","target()":"d4b83992","transferOwnership(address)":"f2fde38b","validate1deltaPath(bytes)":"a1b6b430","validateCall(address,address,bytes)":"6d5025f1","validateUniswapV3Path(bytes)":"1c123e77","validate_1deltaDeposit(bytes)":"c4cc9dba","validate_1deltaMulticall(bytes)":"07ac3562","validate_1deltaWithdraw(bytes)":"f76081e4","validate_ERC4626Deposit(address,bytes)":"2c02cda0","validate_ERC4626Redeem(bytes)":"742bfc7e","validate_ERC4626Withdraw(bytes)":"78065086","validate_aaveSupply(bytes)":"d4c0fe45","validate_aaveWithdraw(bytes)":"6a6d5cc8","validate_approve(bytes)":"4b956bd8","validate_approveDelegation(bytes)":"957dc6c0","validate_exactInput(bytes)":"ebe26816","validate_exactOutput(bytes)":"e98539c5","validate_flashSwapAllOut(bytes)":"425f49d0","validate_flashSwapExactInt(bytes)":"ca963c50","validate_flashSwapExactOut(bytes)":"6ad11353","validate_lagoonSettle(address)":"b3c329cb","validate_swapExactTokensForTokens(bytes)":"761bcd9c","validate_transfer(bytes)":"1710a4f2","validate_transferERC20AllIn(bytes)":"7ea44655","validate_transferERC20In(bytes)":"59b92be9","whitelistAaveV3(address,string)":"f20e85e0","whitelistERC4626(address,string)":"86a6ae15","whitelistLagoon(address,string)":"5e6afe4d","whitelistOnedelta(address,address,string)":"f26749f3","whitelistToken(address,string)":"ee5462cc","whitelistTokenForDelegation(address,string)":"6d9a1423","whitelistUniswapV2Router(address,string)":"3ea35551","whitelistUniswapV3Router(address,string)":"34ec8d7e"},"id":18}