{"abi":[{"type":"constructor","inputs":[{"name":"_owner","type":"address","internalType":"address"},{"name":"_target","type":"address","internalType":"address"}],"stateMutability":"nonpayable"},{"type":"function","name":"allowApprovalDestination","inputs":[{"name":"destination","type":"address","internalType":"address"},{"name":"notes","type":"string","internalType":"string"}],"outputs":[],"stateMutability":"nonpayable"},{"type":"function","name":"allowAsset","inputs":[{"name":"asset","type":"address","internalType":"address"},{"name":"notes","type":"string","internalType":"string"}],"outputs":[],"stateMutability":"nonpayable"},{"type":"function","name":"allowCallSite","inputs":[{"name":"target","type":"address","internalType":"address"},{"name":"selector","type":"bytes4","internalType":"bytes4"},{"name":"notes","type":"string","internalType":"string"}],"outputs":[],"stateMutability":"nonpayable"},{"type":"function","name":"allowDelegationApprovalDestination","inputs":[{"name":"destination","type":"address","internalType":"address"},{"name":"notes","type":"string","internalType":"string"}],"outputs":[],"stateMutability":"nonpayable"},{"type":"function","name":"allowReceiver","inputs":[{"name":"receiver","type":"address","internalType":"address"},{"name":"notes","type":"string","internalType":"string"}],"outputs":[],"stateMutability":"nonpayable"},{"type":"function","name":"allowSender","inputs":[{"name":"sender","type":"address","internalType":"address"},{"name":"notes","type":"string","internalType":"string"}],"outputs":[],"stateMutability":"nonpayable"},{"type":"function","name":"allowWithdrawDestination","inputs":[{"name":"destination","type":"address","internalType":"address"},{"name":"notes","type":"string","internalType":"string"}],"outputs":[],"stateMutability":"nonpayable"},{"type":"function","name":"allowedApprovalDestinations","inputs":[{"name":"destination","type":"address","internalType":"address"}],"outputs":[{"name":"allowed","type":"bool","internalType":"bool"}],"stateMutability":"view"},{"type":"function","name":"allowedAssets","inputs":[{"name":"token","type":"address","internalType":"address"}],"outputs":[{"name":"allowed","type":"bool","internalType":"bool"}],"stateMutability":"view"},{"type":"function","name":"allowedCCTPDestinations","inputs":[{"name":"domain","type":"uint32","internalType":"uint32"}],"outputs":[{"name":"allowed","type":"bool","internalType":"bool"}],"stateMutability":"view"},{"type":"function","name":"allowedCCTPMessengers","inputs":[{"name":"messenger","type":"address","internalType":"address"}],"outputs":[{"name":"allowed","type":"bool","internalType":"bool"}],"stateMutability":"view"},{"type":"function","name":"allowedCallSites","inputs":[{"name":"target","type":"address","internalType":"address"},{"name":"selector","type":"bytes4","internalType":"bytes4"}],"outputs":[{"name":"allowed","type":"bool","internalType":"bool"}],"stateMutability":"view"},{"type":"function","name":"allowedDelegationApprovalDestinations","inputs":[{"name":"destination","type":"address","internalType":"address"}],"outputs":[{"name":"allowed","type":"bool","internalType":"bool"}],"stateMutability":"view"},{"type":"function","name":"allowedLagoonVaults","inputs":[{"name":"vault","type":"address","internalType":"address"}],"outputs":[{"name":"","type":"bool","internalType":"bool"}],"stateMutability":"view"},{"type":"function","name":"allowedReceivers","inputs":[{"name":"receiver","type":"address","internalType":"address"}],"outputs":[{"name":"allowed","type":"bool","internalType":"bool"}],"stateMutability":"view"},{"type":"function","name":"allowedSenders","inputs":[{"name":"sender","type":"address","internalType":"address"}],"outputs":[{"name":"allowed","type":"bool","internalType":"bool"}],"stateMutability":"view"},{"type":"function","name":"allowedTargets","inputs":[{"name":"target","type":"address","internalType":"address"}],"outputs":[{"name":"allowed","type":"bool","internalType":"bool"}],"stateMutability":"view"},{"type":"function","name":"allowedWithdrawDestinations","inputs":[{"name":"destination","type":"address","internalType":"address"}],"outputs":[{"name":"allowed","type":"bool","internalType":"bool"}],"stateMutability":"view"},{"type":"function","name":"anyAsset","inputs":[],"outputs":[{"name":"","type":"bool","internalType":"bool"}],"stateMutability":"view"},{"type":"function","name":"avatar","inputs":[],"outputs":[{"name":"","type":"address","internalType":"address"}],"stateMutability":"view"},{"type":"function","name":"callSiteCount","inputs":[],"outputs":[{"name":"","type":"uint256","internalType":"uint256"}],"stateMutability":"view"},{"type":"function","name":"getGovernanceAddress","inputs":[],"outputs":[{"name":"","type":"address","internalType":"address"}],"stateMutability":"view"},{"type":"function","name":"getInternalVersion","inputs":[],"outputs":[{"name":"","type":"uint8","internalType":"uint8"}],"stateMutability":"pure"},{"type":"function","name":"getLagoonSettlementConfig","inputs":[{"name":"vault","type":"address","internalType":"address"}],"outputs":[{"name":"allowed","type":"bool","internalType":"bool"},{"name":"limitEnabled","type":"bool","internalType":"bool"},{"name":"asset","type":"address","internalType":"address"},{"name":"pendingSilo","type":"address","internalType":"address"},{"name":"maxSettlementAmount","type":"uint256","internalType":"uint256"}],"stateMutability":"view"},{"type":"function","name":"getTradingStrategyModuleVersion","inputs":[],"outputs":[{"name":"","type":"string","internalType":"string"}],"stateMutability":"pure"},{"type":"function","name":"gmxOrderVaults","inputs":[{"name":"exchangeRouter","type":"address","internalType":"address"}],"outputs":[{"name":"","type":"address","internalType":"address"}],"stateMutability":"view"},{"type":"function","name":"isAllowedApprovalDestination","inputs":[{"name":"receiver","type":"address","internalType":"address"}],"outputs":[{"name":"","type":"bool","internalType":"bool"}],"stateMutability":"view"},{"type":"function","name":"isAllowedAsset","inputs":[{"name":"token","type":"address","internalType":"address"}],"outputs":[{"name":"","type":"bool","internalType":"bool"}],"stateMutability":"view"},{"type":"function","name":"isAllowedCCTPDestination","inputs":[{"name":"domain","type":"uint32","internalType":"uint32"}],"outputs":[{"name":"","type":"bool","internalType":"bool"}],"stateMutability":"view"},{"type":"function","name":"isAllowedCCTPMessenger","inputs":[{"name":"messenger","type":"address","internalType":"address"}],"outputs":[{"name":"","type":"bool","internalType":"bool"}],"stateMutability":"view"},{"type":"function","name":"isAllowedCallSite","inputs":[{"name":"target","type":"address","internalType":"address"},{"name":"selector","type":"bytes4","internalType":"bytes4"}],"outputs":[{"name":"","type":"bool","internalType":"bool"}],"stateMutability":"view"},{"type":"function","name":"isAllowedCowSwap","inputs":[{"name":"settlement","type":"address","internalType":"address"}],"outputs":[{"name":"","type":"bool","internalType":"bool"}],"stateMutability":"view"},{"type":"function","name":"isAllowedDelegationApprovalDestination","inputs":[{"name":"receiver","type":"address","internalType":"address"}],"outputs":[{"name":"","type":"bool","internalType":"bool"}],"stateMutability":"view"},{"type":"function","name":"isAllowedGMXMarket","inputs":[{"name":"market","type":"address","internalType":"address"}],"outputs":[{"name":"","type":"bool","internalType":"bool"}],"stateMutability":"view"},{"type":"function","name":"isAllowedGMXRouter","inputs":[{"name":"router","type":"address","internalType":"address"}],"outputs":[{"name":"","type":"bool","internalType":"bool"}],"stateMutability":"view"},{"type":"function","name":"isAllowedLagoonVault","inputs":[{"name":"vault","type":"address","internalType":"address"}],"outputs":[{"name":"","type":"bool","internalType":"bool"}],"stateMutability":"view"},{"type":"function","name":"isAllowedLighter","inputs":[{"name":"zkLighter","type":"address","internalType":"address"}],"outputs":[{"name":"","type":"bool","internalType":"bool"}],"stateMutability":"view"},{"type":"function","name":"isAllowedLighterAssetIndex","inputs":[{"name":"assetIndex","type":"uint16","internalType":"uint16"}],"outputs":[{"name":"","type":"bool","internalType":"bool"}],"stateMutability":"view"},{"type":"function","name":"isAllowedReceiver","inputs":[{"name":"receiver","type":"address","internalType":"address"}],"outputs":[{"name":"","type":"bool","internalType":"bool"}],"stateMutability":"view"},{"type":"function","name":"isAllowedSender","inputs":[{"name":"sender","type":"address","internalType":"address"}],"outputs":[{"name":"","type":"bool","internalType":"bool"}],"stateMutability":"view"},{"type":"function","name":"isAllowedTarget","inputs":[{"name":"target","type":"address","internalType":"address"}],"outputs":[{"name":"","type":"bool","internalType":"bool"}],"stateMutability":"view"},{"type":"function","name":"isAllowedVeloraSwapper","inputs":[{"name":"swapper","type":"address","internalType":"address"}],"outputs":[{"name":"","type":"bool","internalType":"bool"}],"stateMutability":"view"},{"type":"function","name":"isAllowedWithdrawDestination","inputs":[{"name":"receiver","type":"address","internalType":"address"}],"outputs":[{"name":"","type":"bool","internalType":"bool"}],"stateMutability":"view"},{"type":"function","name":"multicall","inputs":[{"name":"data","type":"bytes[]","internalType":"bytes[]"}],"outputs":[{"name":"results","type":"bytes[]","internalType":"bytes[]"}],"stateMutability":"payable"},{"type":"function","name":"owner","inputs":[],"outputs":[{"name":"","type":"address","internalType":"address"}],"stateMutability":"view"},{"type":"function","name":"performCall","inputs":[{"name":"target","type":"address","internalType":"address"},{"name":"callData","type":"bytes","internalType":"bytes"},{"name":"value","type":"uint256","internalType":"uint256"}],"outputs":[],"stateMutability":"payable"},{"type":"function","name":"performCall","inputs":[{"name":"target","type":"address","internalType":"address"},{"name":"callData","type":"bytes","internalType":"bytes"}],"outputs":[],"stateMutability":"nonpayable"},{"type":"function","name":"removeApprovalDestination","inputs":[{"name":"destination","type":"address","internalType":"address"},{"name":"notes","type":"string","internalType":"string"}],"outputs":[],"stateMutability":"nonpayable"},{"type":"function","name":"removeAsset","inputs":[{"name":"asset","type":"address","internalType":"address"},{"name":"notes","type":"string","internalType":"string"}],"outputs":[],"stateMutability":"nonpayable"},{"type":"function","name":"removeCCTPDestination","inputs":[{"name":"domain","type":"uint32","internalType":"uint32"},{"name":"notes","type":"string","internalType":"string"}],"outputs":[],"stateMutability":"nonpayable"},{"type":"function","name":"removeCallSite","inputs":[{"name":"target","type":"address","internalType":"address"},{"name":"selector","type":"bytes4","internalType":"bytes4"},{"name":"notes","type":"string","internalType":"string"}],"outputs":[],"stateMutability":"nonpayable"},{"type":"function","name":"removeDelegationApprovalDestination","inputs":[{"name":"destination","type":"address","internalType":"address"},{"name":"notes","type":"string","internalType":"string"}],"outputs":[],"stateMutability":"nonpayable"},{"type":"function","name":"removeGMXMarket","inputs":[{"name":"market","type":"address","internalType":"address"},{"name":"notes","type":"string","internalType":"string"}],"outputs":[],"stateMutability":"nonpayable"},{"type":"function","name":"removeHypercoreVault","inputs":[{"name":"vault","type":"address","internalType":"address"},{"name":"notes","type":"string","internalType":"string"}],"outputs":[],"stateMutability":"nonpayable"},{"type":"function","name":"removeReceiver","inputs":[{"name":"receiver","type":"address","internalType":"address"},{"name":"notes","type":"string","internalType":"string"}],"outputs":[],"stateMutability":"nonpayable"},{"type":"function","name":"removeSender","inputs":[{"name":"sender","type":"address","internalType":"address"},{"name":"notes","type":"string","internalType":"string"}],"outputs":[],"stateMutability":"nonpayable"},{"type":"function","name":"removeWithdrawDestination","inputs":[{"name":"destination","type":"address","internalType":"address"},{"name":"notes","type":"string","internalType":"string"}],"outputs":[],"stateMutability":"nonpayable"},{"type":"function","name":"renounceOwnership","inputs":[],"outputs":[],"stateMutability":"nonpayable"},{"type":"function","name":"setAnyAssetAllowed","inputs":[{"name":"value","type":"bool","internalType":"bool"},{"name":"notes","type":"string","internalType":"string"}],"outputs":[],"stateMutability":"nonpayable"},{"type":"function","name":"setAvatar","inputs":[{"name":"_avatar","type":"address","internalType":"address"}],"outputs":[],"stateMutability":"nonpayable"},{"type":"function","name":"setTarget","inputs":[{"name":"_target","type":"address","internalType":"address"}],"outputs":[],"stateMutability":"nonpayable"},{"type":"function","name":"setUp","inputs":[{"name":"initializeParams","type":"bytes","internalType":"bytes"}],"outputs":[],"stateMutability":"nonpayable"},{"type":"function","name":"swapAndValidateCowSwap","inputs":[{"name":"settlementContract","type":"address","internalType":"address"},{"name":"receiver","type":"address","internalType":"address"},{"name":"appData","type":"bytes32","internalType":"bytes32"},{"name":"tokenIn","type":"address","internalType":"address"},{"name":"tokenOut","type":"address","internalType":"address"},{"name":"amountIn","type":"uint256","internalType":"uint256"},{"name":"minAmountOut","type":"uint256","internalType":"uint256"}],"outputs":[],"stateMutability":"nonpayable"},{"type":"function","name":"swapAndValidateVelora","inputs":[{"name":"augustusSwapper","type":"address","internalType":"address"},{"name":"receiver","type":"address","internalType":"address"},{"name":"tokenIn","type":"address","internalType":"address"},{"name":"tokenOut","type":"address","internalType":"address"},{"name":"amountIn","type":"uint256","internalType":"uint256"},{"name":"minAmountOut","type":"uint256","internalType":"uint256"},{"name":"augustusCalldata","type":"bytes","internalType":"bytes"}],"outputs":[],"stateMutability":"nonpayable"},{"type":"function","name":"target","inputs":[],"outputs":[{"name":"","type":"address","internalType":"address"}],"stateMutability":"view"},{"type":"function","name":"transferOwnership","inputs":[{"name":"newOwner","type":"address","internalType":"address"}],"outputs":[],"stateMutability":"nonpayable"},{"type":"function","name":"validateCall","inputs":[{"name":"sender","type":"address","internalType":"address"},{"name":"target","type":"address","internalType":"address"},{"name":"callDataWithSelector","type":"bytes","internalType":"bytes"}],"outputs":[],"stateMutability":"view"},{"type":"function","name":"whitelistAaveV3","inputs":[{"name":"lendingPool","type":"address","internalType":"address"},{"name":"notes","type":"string","internalType":"string"}],"outputs":[],"stateMutability":"nonpayable"},{"type":"function","name":"whitelistCCTP","inputs":[{"name":"tokenMessenger","type":"address","internalType":"address"},{"name":"notes","type":"string","internalType":"string"}],"outputs":[],"stateMutability":"nonpayable"},{"type":"function","name":"whitelistCCTPDestination","inputs":[{"name":"domain","type":"uint32","internalType":"uint32"},{"name":"notes","type":"string","internalType":"string"}],"outputs":[],"stateMutability":"nonpayable"},{"type":"function","name":"whitelistCoreWriter","inputs":[{"name":"coreWriter","type":"address","internalType":"address"},{"name":"coreDepositWallet","type":"address","internalType":"address"},{"name":"notes","type":"string","internalType":"string"}],"outputs":[],"stateMutability":"nonpayable"},{"type":"function","name":"whitelistCowSwap","inputs":[{"name":"settlementContract","type":"address","internalType":"address"},{"name":"relayerContract","type":"address","internalType":"address"},{"name":"notes","type":"string","internalType":"string"}],"outputs":[],"stateMutability":"nonpayable"},{"type":"function","name":"whitelistERC4626","inputs":[{"name":"vault","type":"address","internalType":"address"},{"name":"notes","type":"string","internalType":"string"}],"outputs":[],"stateMutability":"nonpayable"},{"type":"function","name":"whitelistGMX","inputs":[{"name":"exchangeRouter","type":"address","internalType":"address"},{"name":"syntheticsRouter","type":"address","internalType":"address"},{"name":"orderVault","type":"address","internalType":"address"},{"name":"collateralTokens","type":"address[]","internalType":"address[]"},{"name":"notes","type":"string","internalType":"string"}],"outputs":[],"stateMutability":"nonpayable"},{"type":"function","name":"whitelistGMXMarket","inputs":[{"name":"market","type":"address","internalType":"address"},{"name":"notes","type":"string","internalType":"string"}],"outputs":[],"stateMutability":"nonpayable"},{"type":"function","name":"whitelistHypercoreVault","inputs":[{"name":"vault","type":"address","internalType":"address"},{"name":"notes","type":"string","internalType":"string"}],"outputs":[],"stateMutability":"nonpayable"},{"type":"function","name":"whitelistLagoon","inputs":[{"name":"vault","type":"address","internalType":"address"},{"name":"notes","type":"string","internalType":"string"}],"outputs":[],"stateMutability":"nonpayable"},{"type":"function","name":"whitelistLagoonWithSettlementLimit","inputs":[{"name":"vault","type":"address","internalType":"address"},{"name":"asset","type":"address","internalType":"address"},{"name":"pendingSilo","type":"address","internalType":"address"},{"name":"maxSettlementAmount","type":"uint256","internalType":"uint256"},{"name":"notes","type":"string","internalType":"string"}],"outputs":[],"stateMutability":"nonpayable"},{"type":"function","name":"whitelistLighter","inputs":[{"name":"zkLighter","type":"address","internalType":"address"},{"name":"usdc","type":"address","internalType":"address"},{"name":"assetIndex","type":"uint16","internalType":"uint16"},{"name":"notes","type":"string","internalType":"string"}],"outputs":[],"stateMutability":"nonpayable"},{"type":"function","name":"whitelistToken","inputs":[{"name":"token","type":"address","internalType":"address"},{"name":"notes","type":"string","internalType":"string"}],"outputs":[],"stateMutability":"nonpayable"},{"type":"function","name":"whitelistTokenForDelegation","inputs":[{"name":"token","type":"address","internalType":"address"},{"name":"notes","type":"string","internalType":"string"}],"outputs":[],"stateMutability":"nonpayable"},{"type":"function","name":"whitelistUniswapV2Router","inputs":[{"name":"router","type":"address","internalType":"address"},{"name":"notes","type":"string","internalType":"string"}],"outputs":[],"stateMutability":"nonpayable"},{"type":"function","name":"whitelistUniswapV3Router","inputs":[{"name":"router","type":"address","internalType":"address"},{"name":"notes","type":"string","internalType":"string"}],"outputs":[],"stateMutability":"nonpayable"},{"type":"function","name":"whitelistVelora","inputs":[{"name":"augustusSwapper","type":"address","internalType":"address"},{"name":"tokenTransferProxy","type":"address","internalType":"address"},{"name":"notes","type":"string","internalType":"string"}],"outputs":[],"stateMutability":"nonpayable"},{"type":"event","name":"AnyAssetSet","inputs":[{"name":"value","type":"bool","indexed":false,"internalType":"bool"},{"name":"notes","type":"string","indexed":false,"internalType":"string"}],"anonymous":false},{"type":"event","name":"AnyVaultSet","inputs":[{"name":"value","type":"bool","indexed":false,"internalType":"bool"},{"name":"notes","type":"string","indexed":false,"internalType":"string"}],"anonymous":false},{"type":"event","name":"ApprovalDestinationApproved","inputs":[{"name":"destination","type":"address","indexed":false,"internalType":"address"},{"name":"notes","type":"string","indexed":false,"internalType":"string"}],"anonymous":false},{"type":"event","name":"ApprovalDestinationRemoved","inputs":[{"name":"destination","type":"address","indexed":false,"internalType":"address"},{"name":"notes","type":"string","indexed":false,"internalType":"string"}],"anonymous":false},{"type":"event","name":"AssetApproved","inputs":[{"name":"asset","type":"address","indexed":false,"internalType":"address"},{"name":"notes","type":"string","indexed":false,"internalType":"string"}],"anonymous":false},{"type":"event","name":"AssetRemoved","inputs":[{"name":"asset","type":"address","indexed":false,"internalType":"address"},{"name":"notes","type":"string","indexed":false,"internalType":"string"}],"anonymous":false},{"type":"event","name":"AvatarSet","inputs":[{"name":"previousAvatar","type":"address","indexed":true,"internalType":"address"},{"name":"newAvatar","type":"address","indexed":true,"internalType":"address"}],"anonymous":false},{"type":"event","name":"CCTPDestinationApproved","inputs":[{"name":"domain","type":"uint32","indexed":false,"internalType":"uint32"},{"name":"notes","type":"string","indexed":false,"internalType":"string"}],"anonymous":false},{"type":"event","name":"CCTPDestinationRemoved","inputs":[{"name":"domain","type":"uint32","indexed":false,"internalType":"uint32"},{"name":"notes","type":"string","indexed":false,"internalType":"string"}],"anonymous":false},{"type":"event","name":"CCTPMessengerApproved","inputs":[{"name":"tokenMessenger","type":"address","indexed":false,"internalType":"address"},{"name":"notes","type":"string","indexed":false,"internalType":"string"}],"anonymous":false},{"type":"event","name":"CallSiteApproved","inputs":[{"name":"target","type":"address","indexed":false,"internalType":"address"},{"name":"selector","type":"bytes4","indexed":false,"internalType":"bytes4"},{"name":"notes","type":"string","indexed":false,"internalType":"string"}],"anonymous":false},{"type":"event","name":"CallSiteRemoved","inputs":[{"name":"target","type":"address","indexed":false,"internalType":"address"},{"name":"selector","type":"bytes4","indexed":false,"internalType":"bytes4"},{"name":"notes","type":"string","indexed":false,"internalType":"string"}],"anonymous":false},{"type":"event","name":"DelegationApprovalDestinationApproved","inputs":[{"name":"destination","type":"address","indexed":false,"internalType":"address"},{"name":"notes","type":"string","indexed":false,"internalType":"string"}],"anonymous":false},{"type":"event","name":"DelegationApprovalDestinationRemoved","inputs":[{"name":"destination","type":"address","indexed":false,"internalType":"address"},{"name":"notes","type":"string","indexed":false,"internalType":"string"}],"anonymous":false},{"type":"event","name":"ERC4626Approved","inputs":[{"name":"vault","type":"address","indexed":false,"internalType":"address"},{"name":"notes","type":"string","indexed":false,"internalType":"string"}],"anonymous":false},{"type":"event","name":"Initialized","inputs":[{"name":"version","type":"uint64","indexed":false,"internalType":"uint64"}],"anonymous":false},{"type":"event","name":"LagoonVaultApproved","inputs":[{"name":"vault","type":"address","indexed":false,"internalType":"address"},{"name":"notes","type":"string","indexed":false,"internalType":"string"}],"anonymous":false},{"type":"event","name":"OwnershipTransferred","inputs":[{"name":"previousOwner","type":"address","indexed":true,"internalType":"address"},{"name":"newOwner","type":"address","indexed":true,"internalType":"address"}],"anonymous":false},{"type":"event","name":"ReceiverApproved","inputs":[{"name":"receiver","type":"address","indexed":false,"internalType":"address"},{"name":"notes","type":"string","indexed":false,"internalType":"string"}],"anonymous":false},{"type":"event","name":"ReceiverRemoved","inputs":[{"name":"receiver","type":"address","indexed":false,"internalType":"address"},{"name":"notes","type":"string","indexed":false,"internalType":"string"}],"anonymous":false},{"type":"event","name":"SenderApproved","inputs":[{"name":"sender","type":"address","indexed":false,"internalType":"address"},{"name":"notes","type":"string","indexed":false,"internalType":"string"}],"anonymous":false},{"type":"event","name":"SenderRemoved","inputs":[{"name":"sender","type":"address","indexed":false,"internalType":"address"},{"name":"notes","type":"string","indexed":false,"internalType":"string"}],"anonymous":false},{"type":"event","name":"TargetSet","inputs":[{"name":"previousTarget","type":"address","indexed":true,"internalType":"address"},{"name":"newTarget","type":"address","indexed":true,"internalType":"address"}],"anonymous":false},{"type":"event","name":"WithdrawDestinationApproved","inputs":[{"name":"destination","type":"address","indexed":false,"internalType":"address"},{"name":"notes","type":"string","indexed":false,"internalType":"string"}],"anonymous":false},{"type":"event","name":"WithdrawDestinationRemoved","inputs":[{"name":"destination","type":"address","indexed":false,"internalType":"address"},{"name":"notes","type":"string","indexed":false,"internalType":"string"}],"anonymous":false},{"type":"error","name":"InvalidInitialization","inputs":[]},{"type":"error","name":"NotInitializing","inputs":[]},{"type":"error","name":"OwnableInvalidOwner","inputs":[{"name":"owner","type":"address","internalType":"address"}]},{"type":"error","name":"OwnableUnauthorizedAccount","inputs":[{"name":"account","type":"address","internalType":"address"}]},{"type":"error","name":"UnknownPostCallValidationKind","inputs":[{"name":"kind","type":"uint8","internalType":"uint8"}]}],"bytecode":{"object":"0x608060405234801561000f575f80fd5b506040516157b93803806157b983398101604081905261002e916103f8565b604080516001600160a01b03848116602083015283168183015281518082038301815260609091019091526100628161006a565b505050610444565b5f6100736101a2565b805490915060ff6801000000000000000082041615906001600160401b03165f8115801561009e5750825b90505f826001600160401b031660011480156100b95750303b155b9050811580156100c7575080155b156100e55760405163f92ee8a960e01b815260040160405180910390fd5b84546001600160401b0319166001178555831561011357845460ff60401b1916680100000000000000001785555b61011c336101c6565b5f808780602001905181019061013291906103f8565b9092509050610140816101da565b61014981610231565b6101528261028a565b5050831561019a57845460ff60401b19168555604051600181527fc7f505b2f371ae2175ee4913f4499e1f2633a7b5936321eed1cdaeb6115181d29060200160405180910390a15b505050505050565b7ff0c57e16840df040f15088dc2f81fe391c3923bec73e23a9662efc9c229c6a0090565b6101ce6102cd565b6101d7816102f4565b50565b6101e26102fc565b5f80546001600160a01b038381166001600160a01b0319831681178455604051919092169283917f52ae88b092de36f87fb43fe794eb1381023b9c1bce563a871154022c63dce3429190a35050565b6102396102fc565b600180546001600160a01b038381166001600160a01b0319831681179093556040519116919082907f90cc2f570a6eb594b1580ea3e41247d2d73a55281889e86bd4ec2fc29c7e62d6905f90a35050565b6102926102fc565b6001600160a01b0381166102c4575f604051631e4fbdf760e01b81526004016102bb9190610430565b60405180910390fd5b6101d78161032e565b6102d5610388565b6102f257604051631afcd79f60e31b815260040160405180910390fd5b565b6102926102cd565b336103056103a6565b6001600160a01b0316146102f2573360405163118cdaa760e01b81526004016102bb9190610430565b5f6103376103c0565b80546001600160a01b038481166001600160a01b031983168117845560405193945091169182907f8be0079c531659141344cd1fd0a4f28419497f9722a3daafe3b4186f6b6457e0905f90a3505050565b5f6103916101a2565b5468010000000000000000900460ff16919050565b5f806103b06103c0565b546001600160a01b031692915050565b7f9016d09d72d40fdae2fd8ceac6b6234c7706214fd39c1cd1e609a0528c19930090565b6001600160a01b03811681146101d7575f80fd5b5f8060408385031215610409575f80fd5b8251610414816103e4565b6020840151909250610425816103e4565b809150509250929050565b6001600160a01b0391909116815260200190565b615368806104515f395ff3fe6080604052600436106103ae575f3560e01c80630411fb8e146103b257806304a3ba25146103e6578063076053421461040757806307ef00cf14610435578063086cfca8146104635780631047789e146104825780631d49039c146104a15780632d12d788146104c05780632dc32a61146104df5780632de905bc146104fe5780632e31e9c61461051d578063333f22e81461053c57806334ec8d7e1461055b5780633cf200251461057a5780633ea35551146105a8578063408694e3146105c7578063486295dc146105e65780634acf884d146105f95780634b941268146106185780634d3d31ca146106465780634ecd74d6146106655780634efbad39146106ba5780634f97d805146106d95780635ace1d92146106f85780635aef7de6146107175780635e4ccace146107425780635e6afe4d1461076157806363cc17f2146107805780636d5025f11461079f5780636d9a1423146107be5780636e3de202146107dd5780636fd7fdef146107fc578063713ebf3b1461081b578063715018a61461083a57806372e548a91461084e578063732524941461086d578063748fca4614610881578063776d1a01146108a057806378addb48146108bf5780637cac69c3146108de57806386a6ae151461090c57806386b6dbe51461092b578063873016081461094a5780638c2fdf9e146109635780638da5cb5b146109825780638fb4dff21461099657806398b3cc39146109b55780639e4a83cf146109d4578063a2a7c02f14610a06578063a4c1cccb14610a25578063a4f9edbf14610a53578063a67e1f5414610a72578063a847cf4d14610a91578063a86ddc5714610aca578063a9fc3d4f14610ae9578063ac9650d814610b0c578063acb9da1614610b2c578063b8fe8d5f14610b4b578063ba44ad4114610b79578063be8c97b014610b98578063c2e657ae14610bb7578063c537bed014610bd6578063cbdb1dcf14610bf5578063d075f9bb14610c14578063d078377c14610c33578063d2f73e3d14610c52578063d4b8399214610c71578063d7334c9d14610c90578063d758150914610caf578063e2873b6d14610cce578063e6f32c5114610ced578063eb0de04214610d0c578063ec01144014610d3a578063ee5462cc14610d59578063efb47bff14610d78578063f20e85e014610d97578063f259a07314610db6578063f2fde38b14610dd5578063f84756aa14610df4578063f901dc3314610e13578063fa2c59c814610e32578063fadbcf4814610e51578063faef8f5814610e7f578063fdedfa2714610e9e575b5f80fd5b3480156103bd575f80fd5b506103d16103cc366004614358565b610eb9565b60405190151581526020015b60405180910390f35b3480156103f1575f80fd5b506104056104003660046143be565b610ed6565b005b348015610412575f80fd5b506103d1610421366004614358565b600b6020525f908152604090205460ff1681565b348015610440575f80fd5b506103d161044f366004614358565b60086020525f908152604090205460ff1681565b34801561046e575f80fd5b5061040561047d366004614358565b610f3e565b34801561048d575f80fd5b5061040561049c36600461440e565b610f95565b3480156104ac575f80fd5b506103d16104bb366004614358565b611020565b3480156104cb575f80fd5b506104056104da3660046143be565b61103d565b3480156104ea575f80fd5b506103d16104f9366004614358565b611098565b348015610509575f80fd5b506104056105183660046143be565b6110b5565b348015610528575f80fd5b506103d1610537366004614358565b611129565b348015610547575f80fd5b506103d1610556366004614358565b6111bb565b348015610566575f80fd5b506104056105753660046143be565b6111f4565b348015610585575f80fd5b506103d1610594366004614358565b60076020525f908152604090205460ff1681565b3480156105b3575f80fd5b506104056105c23660046143be565b611245565b3480156105d2575f80fd5b506104056105e1366004614484565b611273565b6104056105f43660046144f8565b61133a565b348015610604575f80fd5b5061040561061336600461454f565b611444565b348015610623575f80fd5b506103d1610632366004614358565b600a6020525f908152604090205460ff1681565b348015610651575f80fd5b506104056106603660046143be565b6115d0565b348015610670575f80fd5b5061068461067f366004614358565b611613565b60408051951515865293151560208601526001600160a01b0392831693850193909352166060830152608082015260a0016103dd565b3480156106c5575f80fd5b506104056106d436600461440e565b611713565b3480156106e4575f80fd5b506103d16106f33660046145c4565b611761565b348015610703575f80fd5b506104056107123660046143be565b6117ad565b348015610722575f80fd5b505f54610735906001600160a01b031681565b6040516103dd91906145dd565b34801561074d575f80fd5b5061040561075c366004614608565b61180b565b34801561076c575f80fd5b5061040561077b3660046143be565b6118b7565b34801561078b575f80fd5b5061040561079a3660046143be565b6119a4565b3480156107aa575f80fd5b506104056107b936600461440e565b611a02565b3480156107c9575f80fd5b506104056107d83660046143be565b611a15565b3480156107e8575f80fd5b506104056107f7366004614674565b611a3b565b348015610807575f80fd5b506103d1610816366004614358565b611b0f565b348015610826575f80fd5b506103d1610835366004614718565b611b19565b348015610845575f80fd5b50610405611b4f565b348015610859575f80fd5b506104056108683660046143be565b611b62565b348015610878575f80fd5b50610735611bc0565b34801561088c575f80fd5b506103d161089b36600461475e565b611bce565b3480156108ab575f80fd5b506104056108ba366004614358565b611be8565b3480156108ca575f80fd5b506103d16108d9366004614358565b611c41565b3480156108e9575f80fd5b506103d16108f836600461475e565b600c6020525f908152604090205460ff1681565b348015610917575f80fd5b506104056109263660046143be565b611c5e565b348015610936575f80fd5b506104056109453660046143be565b611e9a565b348015610955575f80fd5b50600d546103d19060ff1681565b34801561096e575f80fd5b5061040561097d3660046143be565b611ef8565b34801561098d575f80fd5b50610735611f53565b3480156109a1575f80fd5b506103d16109b0366004614358565b611f6d565b3480156109c0575f80fd5b506104056109cf3660046143be565b612018565b3480156109df575f80fd5b50604080518082018252600481526376302e3560e01b602082015290516103dd91906147a5565b348015610a11575f80fd5b50610405610a203660046147b7565b612076565b348015610a30575f80fd5b506103d1610a3f366004614358565b60056020525f908152604090205460ff1681565b348015610a5e575f80fd5b50610405610a6d36600461491a565b612171565b348015610a7d575f80fd5b50610405610a8c3660046143be565b612292565b348015610a9c575f80fd5b506103d1610aab366004614718565b600260209081525f928352604080842090915290825290205460ff1681565b348015610ad5575f80fd5b50610735610ae4366004614358565b6122ed565b348015610af4575f80fd5b50610afe60045481565b6040519081526020016103dd565b610b1f610b1a36600461494b565b612365565b6040516103dd9190614989565b348015610b37575f80fd5b50610405610b4636600461440e565b6124ab565b348015610b56575f80fd5b506103d1610b65366004614358565b60036020525f908152604090205460ff1681565b348015610b84575f80fd5b50610405610b933660046149ec565b61252d565b348015610ba3575f80fd5b506103d1610bb2366004614358565b612585565b348015610bc2575f80fd5b50610405610bd1366004614a14565b6125a2565b348015610be1575f80fd5b506103d1610bf0366004614358565b6125ec565b348015610c00575f80fd5b506103d1610c0f366004614358565b612618565b348015610c1f575f80fd5b506103d1610c2e366004614358565b612651565b348015610c3e575f80fd5b50610405610c4d366004614a31565b61266e565b348015610c5d575f80fd5b50610405610c6c3660046143be565b612887565b348015610c7c575f80fd5b50600154610735906001600160a01b031681565b348015610c9b575f80fd5b50610405610caa366004614608565b612893565b348015610cba575f80fd5b50610405610cc93660046143be565b612905565b348015610cd9575f80fd5b50610405610ce83660046143be565b612948565b348015610cf8575f80fd5b50610405610d073660046149ec565b61298b565b348015610d17575f80fd5b506103d1610d26366004614358565b60096020525f908152604090205460ff1681565b348015610d45575f80fd5b50610405610d543660046143be565b6129e6565b348015610d64575f80fd5b50610405610d733660046143be565b612a62565b348015610d83575f80fd5b506103d1610d92366004614358565b612a75565b348015610da2575f80fd5b50610405610db13660046143be565b612a92565b348015610dc1575f80fd5b50610405610dd03660046143be565b612ac0565b348015610de0575f80fd5b50610405610def366004614358565b612b1b565b348015610dff575f80fd5b506103d1610e0e366004614358565b612b58565b348015610e1e575f80fd5b50610405610e2d3660046143be565b612b91565b348015610e3d575f80fd5b50610405610e4c3660046143be565b612bec565b348015610e5c575f80fd5b506103d1610e6b366004614358565b60066020525f908152604090205460ff1681565b348015610e8a575f80fd5b506103d1610e99366004614358565b612c4a565b348015610ea9575f80fd5b50604051600281526020016103dd565b6001600160a01b03165f908152600b602052604090205460ff1690565b610ede612c83565b6001600160a01b0383165f9081526009602052604090819020805460ff19169055517fb71be9befd3ac90c1c9981d3b1161b3c2c6dcd741f13b34061aa251226a802df90610f3190859085908590614aed565b60405180910390a1505050565b610f46612c83565b5f80546001600160a01b038381166001600160a01b0319831681178455604051919092169283917f52ae88b092de36f87fb43fe794eb1381023b9c1bce563a871154022c63dce3429190a35050565b610f9d612c83565b610fa8848383612018565b610fb3838383612018565b60405163303e5bc960e21b815273__$f7398432285ba6c2c1c9749bf7c6b7e7ad$__9063c0f96f2490610fee90879086908690600401614aed565b5f6040518083038186803b158015611004575f80fd5b505af4158015611016573d5f803e3d5ffd5b5050505050505050565b6001600160a01b03165f9081526009602052604090205460ff1690565b611045612c83565b6001600160a01b0383165f9081526007602052604090819020805460ff19169055517f4e13b11ab98e672bd78295ef9cebe764dc617f95decf47d842c25b83abc0c72490610f3190859085908590614aed565b6001600160a01b03165f908152600a602052604090205460ff1690565b6110bd612c83565b604051630b7a416f60e21b815273__$f9fa4d4e532bfe6aeff5ab3d328fd72bc7$__90632de905bc906110f890869086908690600401614aed565b5f6040518083038186803b15801561110e575f80fd5b505af4158015611120573d5f803e3d5ffd5b50505050505050565b600d546040516312789ae160e11b81526001600160a01b038316600482015260ff909116151560248201525f9073__$bda5499a8fa48831c49ec55d96dbc8aee1$__906324f135c2906044015b602060405180830381865af4158015611191573d5f803e3d5ffd5b505050506040513d601f19601f820116820180604052508101906111b59190614b1a565b92915050565b604051630667e45d60e31b81525f9073__$f7398432285ba6c2c1c9749bf7c6b7e7ad$__9063333f22e8906111769085906004016145dd565b6111fc612c83565b61120f8363c04b8d5960e01b848461180b565b61122283631e51809360e31b848461180b565b6112358363b858183f60e01b848461180b565b611240838383612018565b505050565b61124d612c83565b611260836338ed173960e01b848461180b565b61123583635c11d79560e01b848461180b565b61127b612c83565b61128e85638a85708360e01b848461180b565b6112a18563d20191bd60e01b848461180b565b6112b485631792c03f60e11b848461180b565b6112bf858383612018565b6112ca848383612cb5565b6040516303cb6dc560e31b815273__$b1eadc77501473dd7d6b2fe89954bce60e$__90631e5b6e2890611307908890879087908790600401614b35565b5f6040518083038186803b15801561131d575f80fd5b505af415801561132f573d5f803e3d5ffd5b505050505050505050565b5f61134733868686612cdb565b905034156113eb575f80546040516001600160a01b039091169034908381818185875af1925050503d805f8114611399576040519150601f19603f3d011682016040523d82523d5f602084013e61139e565b606091505b50509050806113e95760405162461bcd60e51b815260206004820152601260248201527111551208199bdc9dd85c990819985a5b195960721b60448201526064015b60405180910390fd5b505b5f8061142d878588888080601f0160208091040260200160405190810160405280939291908181526020018383808284375f9201829052509250613bf1915050565b9150915061143b8282613c7b565b61112083613c8c565b73__$f7398432285ba6c2c1c9749bf7c6b7e7ad$__63c52046de6040518163ffffffff1660e01b8152600401602060405180830381865af415801561148b573d5f803e3d5ffd5b505050506040513d601f19601f820116820180604052508101906114af9190614b1a565b6114f35760405162461bcd60e51b815260206004820152601560248201527410dbddd4ddd85c131a58881b9bdd081b1a5b9ad959605a1b60448201526064016113e0565b604051635a1b5fa560e01b81526001600160a01b03808916600483015280881660248301526044820187905280861660648301528416608482015260a4810183905260c481018290525f9073__$f7398432285ba6c2c1c9749bf7c6b7e7ad$__90635a1b5fa59060e4015f60405180830381865af4158015611577573d5f803e3d5ffd5b505050506040513d5f823e601f3d908101601f1916820160405261159e9190810190614bc1565b90505f806115b683602001515f85604001515f613bf1565b915091506115c48282613c7b565b50505050505050505050565b6115d8612c83565b60405163f7570c2960e01b815273__$bda5499a8fa48831c49ec55d96dbc8aee1$__9063f7570c29906110f890869086908690600401614aed565b5f805f805f73__$8a78b2314c8022eee5a913787dcdf9f72e$__63c52046de6040518163ffffffff1660e01b8152600401602060405180830381865af415801561165f573d5f803e3d5ffd5b505050506040513d601f19601f820116820180604052508101906116839190614b1a565b61168b575f80fd5b60405163de1eb9a360e01b815273__$8a78b2314c8022eee5a913787dcdf9f72e$__9063de1eb9a3906116c29089906004016145dd565b60a060405180830381865af41580156116dd573d5f803e3d5ffd5b505050506040513d601f19601f820116820180604052508101906117019190614c68565b939a9299509097509550909350915050565b61171b612c83565b611726838383612018565b604051631a65191160e21b815273__$c49bf44a3286d065a371d69fbc4a0c0f99$__90636994644490610fee90879086908690600401614aed565b600d54604051632e8e669960e11b815261ffff8316600482015260ff909116151560248201525f9073__$b1eadc77501473dd7d6b2fe89954bce60e$__90635d1ccd3290604401611176565b6117b5612c83565b6001600160a01b0383165f9081526008602052604090819020805460ff19166001179055517f3562181221a42a19ddd03a82dfe06acab1905ceb65cdaf7d86a1d9fec664355290610f3190859085908590614aed565b611813612c83565b6001600160a01b0384165f8181526002602090815260408083206001600160e01b03198816845282528083208054600160ff19918216811790925594845260039092528220805490931617909155600480549161186f83614ccf565b91905055507fef729aaa41b9fd994f9ff7c1960df214a84f722002e6cfbea31799cd0873a3ef848484846040516118a99493929190614cf3565b60405180910390a150505050565b6118bf612c83565b73__$8a78b2314c8022eee5a913787dcdf9f72e$__63c52046de6040518163ffffffff1660e01b8152600401602060405180830381865af4158015611906573d5f803e3d5ffd5b505050506040513d601f19601f8201168201806040525081019061192a9190614b1a565b611932575f80fd5b60405163fe16474d60e01b815273__$8a78b2314c8022eee5a913787dcdf9f72e$__9063fe16474d9061196d90869086908690600401614aed565b5f6040518083038186803b158015611983575f80fd5b505af4158015611995573d5f803e3d5ffd5b50505050611240838383613de1565b6119ac612c83565b6001600160a01b0383165f908152600a602052604090819020805460ff19166001179055517fb71b62345f0de74ec86ca2292697c77744d05ce6534f9b8866cefdf5fa3152b290610f3190859085908590614aed565b611a0e84848484612cdb565b5050505050565b611a1d612c83565b611a3083630c04a8a160e41b848461180b565b611240838383611e9a565b611a43612c83565b611a5687631592ca1b60e31b848461180b565b611a61868383612018565b60405163f4d5bb9360e01b815273__$bda5499a8fa48831c49ec55d96dbc8aee1$__9063f4d5bb9390611aa0908a908a908a9088908890600401614d27565b5f6040518083038186803b158015611ab6575f80fd5b505af4158015611ac8573d5f803e3d5ffd5b505050505f5b8381101561101657611b07858583818110611aeb57611aeb614d66565b9050602002016020810190611b009190614358565b8484612cb5565b600101611ace565b5f6111b582611f6d565b6001600160a01b0382165f9081526002602090815260408083206001600160e01b03198516845290915290205460ff1692915050565b611b57612c83565b611b605f613e2d565b565b611b6a612c83565b6001600160a01b0383165f9081526007602052604090819020805460ff19166001179055517f62dd88c5ecfa60713a657640ebec4de26fc1aefa4afdb24e6d15a124fce7277990610f3190859085908590614aed565b5f611bc9611f53565b905090565b63ffffffff165f908152600c602052604090205460ff1690565b611bf0612c83565b600180546001600160a01b038381166001600160a01b0319831681179093556040519116919082907f90cc2f570a6eb594b1580ea3e41247d2d73a55281889e86bd4ec2fc29c7e62d6905f90a35050565b6001600160a01b03165f9081526003602052604090205460ff1690565b611c66612c83565b5f8390505f816001600160a01b03166338d52e0f6040518163ffffffff1660e01b8152600401602060405180830381865afa158015611ca7573d5f803e3d5ffd5b505050506040513d601f19601f82011682018060405250810190611ccb9190614d7a565b905084611ce181636e553f6560e01b878761180b565b611cf486632d182be560e21b878761180b565b611d0786635d043b2960e11b878761180b565b611d1a8663983c676d60e01b878761180b565b611d2d86638dbdbe6d60e01b878761180b565b611d3f8662b4d4cb60e11b878761180b565b611d5286630b8b4a6160e21b878761180b565b611d6586633ea0e43760e11b878761180b565b611d78866319792d1d60e11b878761180b565b611d8b866385b77f4560e01b878761180b565b611d9e8663a8abe90560e01b878761180b565b611db186630d1e666760e01b878761180b565b611dc48663036bdad760e61b878761180b565b611dd786633786fe4360e11b878761180b565b611dea8663d46a0a4f60e01b878761180b565b611dfd8663745400c960e01b878761180b565b611e108663dd9cc05360e01b878761180b565b611e2386630332eee160e11b878761180b565b611e3686634c267cb160e11b878761180b565b611e41868686612018565b611e4c818686612cb5565b611e57828686612cb5565b7fd2851df39115d63968e90113e8b3a96f13e33ac4c2e5a9caa1afeffe59e55748868686604051611e8a93929190614aed565b60405180910390a1505050505050565b611ea2612c83565b6001600160a01b0383165f9081526005602052604090819020805460ff19166001179055517fad90e2570fc4fe9f7437be3188d5c791c6662892d31731992aa88f5c8762198390610f3190859085908590614aed565b611f00612c83565b6001600160a01b0383165f9081526008602052604090819020805460ff19169055517f1212f8ddb39de8e1a339460c95752d61100723efeaa34ccd94bca94393f4093890610f3190859085908590614aed565b5f80611f5d613e87565b546001600160a01b031692915050565b5f73__$8a78b2314c8022eee5a913787dcdf9f72e$__63c52046de6040518163ffffffff1660e01b8152600401602060405180830381865af4158015611fb5573d5f803e3d5ffd5b505050506040513d601f19601f82011682018060405250810190611fd99190614b1a565b611fe1575f80fd5b604051633f60482560e21b815273__$8a78b2314c8022eee5a913787dcdf9f72e$__9063fd812094906111769085906004016145dd565b612020612c83565b6001600160a01b0383165f9081526009602052604090819020805460ff19166001179055517f628a44970c0e450415e3ae74334ea44f3307b74dbf677a1371190242bf2f358990610f3190859085908590614aed565b61207e612c83565b73__$8a78b2314c8022eee5a913787dcdf9f72e$__63c52046de6040518163ffffffff1660e01b8152600401602060405180830381865af41580156120c5573d5f803e3d5ffd5b505050506040513d601f19601f820116820180604052508101906120e99190614b1a565b6120f1575f80fd5b604051631870a1c360e11b815273__$8a78b2314c8022eee5a913787dcdf9f72e$__906330e143869061213290899089908990899089908990600401614d95565b5f6040518083038186803b158015612148575f80fd5b505af415801561215a573d5f803e3d5ffd5b50505050612169868383613de1565b505050505050565b5f61217a613eab565b805490915060ff600160401b82041615906001600160401b03165f811580156121a05750825b90505f826001600160401b031660011480156121bb5750303b155b9050811580156121c9575080155b156121e75760405163f92ee8a960e01b815260040160405180910390fd5b84546001600160401b0319166001178555831561221057845460ff60401b1916600160401b1785555b61221933613ecf565b5f808780602001905181019061222f9190614ddc565b9150915061223c81610f3e565b61224581611be8565b61224e82612b1b565b5050831561216957845460ff60401b19168555604051600181527fc7f505b2f371ae2175ee4913f4499e1f2633a7b5936321eed1cdaeb6115181d290602001611e8a565b61229a612c83565b6001600160a01b0383165f9081526006602052604090819020805460ff19169055517f3097928509c53a2dab9500431201d82b0d756e8f890fd01f4ae6b33b45687ea490610f3190859085908590614aed565b6040516351097a3360e01b81525f9073__$bda5499a8fa48831c49ec55d96dbc8aee1$__906351097a33906123269085906004016145dd565b602060405180830381865af4158015612341573d5f803e3d5ffd5b505050506040513d601f19601f820116820180604052508101906111b59190614d7a565b6060816001600160401b0381111561237f5761237f614836565b6040519080825280602002602001820160405280156123b257816020015b606081526020019060019003908161239d5790505b5090505f5b828110156124a4575f80308686858181106123d4576123d4614d66565b90506020028101906123e69190614e14565b6040516123f4929190614e56565b5f60405180830381855af49150503d805f811461242c576040519150601f19603f3d011682016040523d82523d5f602084013e612431565b606091505b50915091508161247c57604481511015612449575f80fd5b600481019050808060200190518101906124639190614e65565b60405162461bcd60e51b81526004016113e091906147a5565b8084848151811061248f5761248f614d66565b602090810291909101015250506001016123b7565b5092915050565b6124b3612c83565b60405163565ced0b60e11b815273__$f9fa4d4e532bfe6aeff5ab3d328fd72bc7$__9063acb9da16906124f0908790879087908790600401614ea9565b5f6040518083038186803b158015612506575f80fd5b505af4158015612518573d5f803e3d5ffd5b50505050612527838383612018565b50505050565b612535612c83565b63ffffffff83165f908152600c602052604090819020805460ff19169055517f1032cb8f3d65d1f2761007cb8b0ca5365671ee20a8efa21ecae1a8dfbca5b7a590610f3190859085908590614ed5565b6001600160a01b03165f9081526006602052604090205460ff1690565b6125aa612c83565b600d805460ff19168415151790556040517f50454d9d0025a28a39cac5a4b3f3101d29b6e413fbb64f75fb42eb6837b0771890610f3190859085908590614ef4565b600d545f9060ff16806111b55750506001600160a01b03165f9081526005602052604090205460ff1690565b60405163c226c4bb60e01b81525f9073__$bda5499a8fa48831c49ec55d96dbc8aee1$__9063c226c4bb906111769085906004016145dd565b6001600160a01b03165f9081526007602052604090205460ff1690565b73__$c49bf44a3286d065a371d69fbc4a0c0f99$__63c52046de6040518163ffffffff1660e01b8152600401602060405180830381865af41580156126b5573d5f803e3d5ffd5b505050506040513d601f19601f820116820180604052508101906126d99190614b1a565b61271c5760405162461bcd60e51b815260206004820152601460248201527315995b1bdc98531a58881b9bdd081b1a5b9ad95960621b60448201526064016113e0565b5f8054604051636267722d60e11b81526001600160a01b0391821660048201528982166024820152888216604482015287821660648201529086166084820152819073__$c49bf44a3286d065a371d69fbc4a0c0f99$__9063c4cee45a9060a4016040805180830381865af4158015612797573d5f803e3d5ffd5b505050506040513d601f19601f820116820180604052508101906127bb9190614f0f565b915091505f806127cd8b5f875f613bf1565b915091506127db8282613c7b565b5f5460405163fe36c22960e01b81526001600160a01b0391821660048201528c821660248201528a8216604482015290891660648201526084810188905260a4810187905260c4810185905260e4810184905273__$c49bf44a3286d065a371d69fbc4a0c0f99$__9063fe36c22990610104015f6040518083038186803b158015612864575f80fd5b505af4158015612876573d5f803e3d5ffd5b505050505050505050505050505050565b6112408383835f61133a565b61289b612c83565b6001600160a01b0384165f9081526002602090815260408083206001600160e01b03198716845290915290819020805460ff19169055517f37ea10f2d08f5a9803dfcd5abf3cfc7b0d6fcdf5fcbc36be9ea5a0b53d9a4d9b906118a9908690869086908690614cf3565b61290d612c83565b604051634a1c4b1960e11b815273__$bda5499a8fa48831c49ec55d96dbc8aee1$__906394389632906110f890869086908690600401614aed565b612950612c83565b60405163e2873b6d60e01b815273__$f9fa4d4e532bfe6aeff5ab3d328fd72bc7$__9063e2873b6d906110f890869086908690600401614aed565b612993612c83565b63ffffffff83165f908152600c602052604090819020805460ff19166001179055517f9fc3f914bc6770a3679a6a9fdb4620f0566db329f178fb033fc0c6dcce1b693d90610f3190859085908590614ed5565b6129ee612c83565b612a0183634701287760e11b848461180b565b612a0c838383612018565b6001600160a01b0383165f908152600b602052604090819020805460ff19166001179055517f9efd66cbdaa05f6414ab9c4ae71d358b087e972c11874e7c3e9c7c79c61e23aa90610f3190859085908590614aed565b612a6a612c83565b611240838383612cb5565b6001600160a01b03165f9081526008602052604090205460ff1690565b612a9a612c83565b612aad8363617ba03760e01b848461180b565b61123583631a4ca37b60e21b848461180b565b612ac8612c83565b6001600160a01b0383165f908152600a602052604090819020805460ff19169055517ff9a414ea26a64e12a2abdb23706ec196a42adeb564668fb73f46555fbd2336c290610f3190859085908590614aed565b612b23612c83565b6001600160a01b038116612b4c575f604051631e4fbdf760e01b81526004016113e091906145dd565b612b5581613e2d565b50565b604051637c23ab5560e11b81525f9073__$c49bf44a3286d065a371d69fbc4a0c0f99$__9063f84756aa906111769085906004016145dd565b612b99612c83565b6001600160a01b0383165f9081526005602052604090819020805460ff19169055517f9ca3f065622f5f03f32b7157677a0e420c3a36ab45fd49f256ffebce3e31058790610f3190859085908590614aed565b612bf4612c83565b6001600160a01b0383165f9081526006602052604090819020805460ff19166001179055517fa8f9caaf4861720900294428e4ff34d37070c37afd26d96e6e4da75326d2c3ad90610f3190859085908590614aed565b604051631f5df1eb60e31b81525f9073__$b1eadc77501473dd7d6b2fe89954bce60e$__9063faef8f58906111769085906004016145dd565b33612c8c611f53565b6001600160a01b031614611b60573360405163118cdaa760e01b81526004016113e091906145dd565b612cc88363a9059cbb60e01b848461180b565b611a308363095ea7b360e01b848461180b565b604080518082019091525f815260606020820152612cf7611bc0565b6001600160a01b0316856001600160a01b03160315613be957612d1985612585565b612d5a5760405162461bcd60e51b815260206004820152601260248201527114d95b99195c881b9bdd08185b1b1bddd95960721b60448201526064016113e0565b5f612d686004828587614f31565b612d7191614f58565b9050365f612d828560048189614f31565b600d5491935091505f9060ff168015612dab575063095ea7b360e01b6001600160e01b03198516145b90505f6001600160e01b031985166317938e1360e01b1480612ddd57506001600160e01b03198516630acb7f4b60e21b145b80612df857506001600160e01b0319851663611e2a2d60e11b145b905081158015612e06575080155b15612eb057612e158986611b19565b612eb057612e2289611c41565b612e635760405162461bcd60e51b815260206004820152601260248201527115185c99d95d081b9bdd08185b1b1bddd95960721b60448201526064016113e0565b612e6d8986611b19565b612eb05760405162461bcd60e51b815260206004820152601460248201527314d95b1958dd1bdc881b9bdd08185b1b1bddd95960621b60448201526064016113e0565b6001600160e01b031985166338ed173960e01b1480612edf57506001600160e01b03198516635c11d79560e01b145b15612f4d57604051625e769d60e91b815273__$0e99dd572d354182f948ac1bae4d23aed1$__9063bced3a0090612f1c9087908790600401614f8e565b5f6040518083038186803b158015612f32575f80fd5b505af4158015612f44573d5f803e3d5ffd5b50505050613be3565b633fb472a760e01b6001600160e01b0319861601612f9e57604051632c69e61160e11b815273__$0e99dd572d354182f948ac1bae4d23aed1$__906358d3cc2290612f1c9087908790600401614f8e565b6301ae7f6d60e31b6001600160e01b0319861601612fef5760405163fdf3722360e01b815273__$0e99dd572d354182f948ac1bae4d23aed1$__9063fdf3722390612f1c9087908790600401614f8e565b6347a7e7c160e01b6001600160e01b031986160161309957600d5460ff166130595760405162461bcd60e51b815260206004820152601e60248201527f53776170526f75746572303220726571756972657320616e794173736574000060448201526064016113e0565b600d546040516331dc39a360e01b815273__$0e99dd572d354182f948ac1bae4d23aed1$__916331dc39a391612f1c918891889160ff1690600401614fa1565b6356fa634560e01b6001600160e01b03198616016130f4576130ef84848080601f0160208091040260200160405190810160405280939291908181526020018383808284375f92019190915250613ee092505050565b613be3565b63f6a1584d60e01b6001600160e01b031986160161314a576130ef84848080601f0160208091040260200160405190810160405280939291908181526020018383808284375f92019190915250613f1d92505050565b6303fb575f60e41b6001600160e01b03198616016131a0576130ef84848080601f0160208091040260200160405190810160405280939291908181526020018383808284375f92019190915250613f8892505050565b639e845fc960e01b6001600160e01b03198616016131f6576130ef84848080601f0160208091040260200160405190810160405280939291908181526020018383808284375f92019190915250613ff592505050565b6325b35c8560e21b6001600160e01b031986160161324c576130ef84848080601f0160208091040260200160405190810160405280939291908181526020018383808284375f9201919091525061407f92505050565b613255856140a3565b156133635773__$8a78b2314c8022eee5a913787dcdf9f72e$__63c52046de6040518163ffffffff1660e01b8152600401602060405180830381865af41580156132a1573d5f803e3d5ffd5b505050506040513d601f19601f820116820180604052508101906132c59190614b1a565b6132cd575f80fd5b60405163147a100f60e01b81525f9073__$8a78b2314c8022eee5a913787dcdf9f72e$__9063147a100f90613306908d906004016145dd565b5f60405180830381865af4158015613320573d5f803e3d5ffd5b505050506040513d5f823e601f3d908101601f191682016040526133479190810190614fc6565b905080515f1461335d5760018752602087018190525b50613be3565b6391aac09b60e01b6001600160e01b03198616016133b9576130ef84848080601f0160208091040260200160405190810160405280939291908181526020018383808284375f9201919091525061410e92505050565b633474b59f60e21b6001600160e01b031986160161340f576130ef84848080601f0160208091040260200160405190810160405280939291908181526020018383808284375f9201919091525061412f92505050565b637242419360e01b6001600160e01b0319861601613465576130ef84848080601f0160208091040260200160405190810160405280939291908181526020018383808284375f9201919091525061415192505050565b637f4b2b3560e11b6001600160e01b03198616016134bb576130ef84848080601f0160208091040260200160405190810160405280939291908181526020018383808284375f9201919091525061417392505050565b6312e7d41b60e21b6001600160e01b0319861601613511576130ef84848080601f0160208091040260200160405190810160405280939291908181526020018383808284375f9201919091525061412f92505050565b6322fbc4d760e11b6001600160e01b0319861601613567576130ef84848080601f0160208091040260200160405190810160405280939291908181526020018383808284375f9201919091525061412f92505050565b6367c3989360e01b6001600160e01b03198616016135bd576130ef84848080601f0160208091040260200160405190810160405280939291908181526020018383808284375f9201919091525061410e92505050565b63415f1bc960e11b6001600160e01b0319861601613613576130ef84848080601f0160208091040260200160405190810160405280939291908181526020018383808284375f9201919091525061412f92505050565b636686d2e360e11b6001600160e01b0319861601613669576130ef84848080601f0160208091040260200160405190810160405280939291908181526020018383808284375f9201919091525061412f92505050565b637a4880bb60e01b6001600160e01b03198616016136bf576130ef84848080601f0160208091040260200160405190810160405280939291908181526020018383808284375f9201919091525061412f92505050565b63575416fb60e01b6001600160e01b0319861601613715576130ef84848080601f0160208091040260200160405190810160405280939291908181526020018383808284375f9201919091525061410e92505050565b6001600160e01b03198516630d1e666760e01b148061374457506001600160e01b0319851663036bdad760e61b145b8061375f57506001600160e01b03198516633786fe4360e11b145b8061377a57506001600160e01b0319851663d46a0a4f60e01b145b8061379557506001600160e01b0319851663745400c960e01b145b806137b057506001600160e01b0319851663dd9cc05360e01b145b806137cb57506001600160e01b03198516630332eee160e11b145b806137e657506001600160e01b03198516634c267cb160e11b145b613be357630a6d35e560e31b6001600160e01b03198616016138f15773__$bda5499a8fa48831c49ec55d96dbc8aee1$__63c52046de6040518163ffffffff1660e01b8152600401602060405180830381865af4158015613849573d5f803e3d5ffd5b505050506040513d601f19601f8201168201806040525081019061386d9190614b1a565b6138ad5760405162461bcd60e51b815260206004820152601160248201527011db5e131a58881b9bdd081b1a5b9ad959607a1b60448201526064016113e0565b600d54604051633bf8b9bb60e11b815273__$bda5499a8fa48831c49ec55d96dbc8aee1$__916377f1737691612f1c918d918991899160ff9091169060040161500b565b6338fed78960e11b6001600160e01b0319861601613914576130ef898585614196565b6001600160e01b031985166317938e1360e01b148061394357506001600160e01b03198516630acb7f4b60e21b145b8061395e57506001600160e01b0319851663611e2a2d60e11b145b15613a5d5773__$f9fa4d4e532bfe6aeff5ab3d328fd72bc7$__63c52046de6040518163ffffffff1660e01b8152600401602060405180830381865af41580156139aa573d5f803e3d5ffd5b505050506040513d601f19601f820116820180604052508101906139ce9190614b1a565b613a195760405162461bcd60e51b815260206004820152601c60248201527b121e5c195c98dbdc9955985d5b1d131a58881b9bdd081b1a5b9ad95960221b60448201526064016113e0565b600d5460405163f42001eb60e01b815273__$f9fa4d4e532bfe6aeff5ab3d328fd72bc7$__9163f42001eb91612f1c9189918e918a918a9160ff1690600401615042565b6001600160e01b03198516638a85708360e01b1480613a8c57506001600160e01b0319851663d20191bd60e01b145b80613aa757506001600160e01b03198516631792c03f60e11b145b15613b9f5773__$b1eadc77501473dd7d6b2fe89954bce60e$__63c52046de6040518163ffffffff1660e01b8152600401602060405180830381865af4158015613af3573d5f803e3d5ffd5b505050506040513d601f19601f82011682018060405250810190613b179190614b1a565b613b5b5760405162461bcd60e51b8152602060048201526015602482015274131a59da1d195c931a58881b9bdd081b1a5b9ad959605a1b60448201526064016113e0565b600d5460405163f42001eb60e01b815273__$b1eadc77501473dd7d6b2fe89954bce60e$__9163f42001eb91612f1c9189918e918a918a9160ff1690600401615042565b60405162461bcd60e51b81526020600482015260196024820152782ab735b737bbb710333ab731ba34b7b71039b2b632b1ba37b960391b60448201526064016113e0565b50505050505b949350505050565b600154604051635229073f60e01b81525f916060916001600160a01b0390911690635229073f90613c2c90899089908990899060040161508a565b5f604051808303815f875af1158015613c47573d5f803e3d5ffd5b505050506040513d5f823e601f3d908101601f19168201604052613c6e91908101906150dd565b9150915094509492505050565b81613c8857805160208201fd5b5050565b5f81516001811115613ca057613ca0614ff7565b03613ca85750565b600181516001811115613cbd57613cbd614ff7565b03613daf5773__$8a78b2314c8022eee5a913787dcdf9f72e$__63c52046de6040518163ffffffff1660e01b8152600401602060405180830381865af4158015613d09573d5f803e3d5ffd5b505050506040513d601f19601f82011682018060405250810190613d2d9190614b1a565b613d35575f80fd5b602081015160405163321b790760e21b815273__$8a78b2314c8022eee5a913787dcdf9f72e$__9163c86de41c91613d7091906004016147a5565b602060405180830381865af4158015613d8b573d5f803e3d5ffd5b505050506040513d601f19601f82011682018060405250810190613c88919061512a565b80516001811115613dc257613dc2614ff7565b6040516306c5503560e31b815260ff90911660048201526024016113e0565b613df48363559ec80d60e01b848461180b565b613e078363a03d55e360e01b848461180b565b613e1a8363692652c560e11b848461180b565b61124083635313efb360e11b848461180b565b5f613e36613e87565b80546001600160a01b038481166001600160a01b031983168117845560405193945091169182907f8be0079c531659141344cd1fd0a4f28419497f9722a3daafe3b4186f6b6457e0905f90a3505050565b7f9016d09d72d40fdae2fd8ceac6b6234c7706214fd39c1cd1e609a0528c19930090565b7ff0c57e16840df040f15088dc2f81fe391c3923bec73e23a9662efc9c229c6a0090565b613ed76142fe565b612b5581614323565b5f81806020019051810190613ef59190615141565b509050613f0181612a75565b613c885760405162461bcd60e51b81526004016113e09061516d565b5f81806020019051810190613f329190615141565b509050613f3e81611020565b613c885760405162461bcd60e51b815260206004820152601b60248201527a105c1c1c9bdd99481859191c995cdcc81b9bdd08185b1b1bddd959602a1b60448201526064016113e0565b5f81806020019051810190613f9d9190615141565b509050613fa981611098565b613c885760405162461bcd60e51b815260206004820152601e60248201527f44656c65676174696f6e2061646472657373206e6f7420616c6c6f776564000060448201526064016113e0565b5f808280602001905181019061400b919061519f565b50925050915061401a826125ec565b61405a5760405162461bcd60e51b8152602060048201526011602482015270151bdad95b881b9bdd08185b1b1bddd959607a1b60448201526064016113e0565b61406381612651565b6112405760405162461bcd60e51b81526004016113e09061516d565b5f808280602001905181019061409591906151e5565b925050915061401a826125ec565b5f6001600160e01b0319821663559ec80d60e01b14806140d357506001600160e01b0319821663a03d55e360e01b145b806140ee57506001600160e01b0319821663692652c560e11b145b806111b557506001600160e01b03198216635313efb360e11b1492915050565b5f818060200190518101906141239190615225565b915050613f0181612651565b5f818060200190518101906141449190615249565b50915050613f0181612651565b5f81806020019051810190614166919061527f565b92505050613f0181612651565b5f8180602001905181019061418891906152ab565b5092505050613f0181612651565b61419f83610eb9565b6141e85760405162461bcd60e51b815260206004820152601a60248201527910d0d514081b595cdcd95b99d95c881b9bdd08185b1b1bddd95960321b60448201526064016113e0565b5f80806141f7848601866152f4565b5050509350935093505061420a83611bce565b6142555760405162461bcd60e51b815260206004820152601c60248201527b10d0d5140819195cdd1a5b985d1a5bdb881b9bdd08185b1b1bddd95960221b60448201526064016113e0565b61425e816125ec565b6142a85760405162461bcd60e51b815260206004820152601b60248201527a10d0d51408189d5c9b881d1bdad95b881b9bdd08185b1b1bddd959602a1b60448201526064016113e0565b816142b281612651565b6111205760405162461bcd60e51b815260206004820152601f60248201527f43435450206d696e7420726563697069656e74206e6f7420616c6c6f7765640060448201526064016113e0565b61430661432b565b611b6057604051631afcd79f60e31b815260040160405180910390fd5b612b236142fe565b5f614334613eab565b54600160401b900460ff16919050565b6001600160a01b0381168114612b55575f80fd5b5f60208284031215614368575f80fd5b813561437381614344565b9392505050565b5f8083601f84011261438a575f80fd5b5081356001600160401b038111156143a0575f80fd5b6020830191508360208285010111156143b7575f80fd5b9250929050565b5f805f604084860312156143d0575f80fd5b83356143db81614344565b925060208401356001600160401b038111156143f5575f80fd5b6144018682870161437a565b9497909650939450505050565b5f805f8060608587031215614421575f80fd5b843561442c81614344565b9350602085013561443c81614344565b925060408501356001600160401b03811115614456575f80fd5b6144628782880161437a565b95989497509550505050565b803561ffff8116811461447f575f80fd5b919050565b5f805f805f60808688031215614498575f80fd5b85356144a381614344565b945060208601356144b381614344565b93506144c16040870161446e565b925060608601356001600160401b038111156144db575f80fd5b6144e78882890161437a565b969995985093965092949392505050565b5f805f806060858703121561450b575f80fd5b843561451681614344565b935060208501356001600160401b03811115614530575f80fd5b61453c8782880161437a565b9598909750949560400135949350505050565b5f805f805f805f60e0888a031215614565575f80fd5b873561457081614344565b9650602088013561458081614344565b955060408801359450606088013561459781614344565b935060808801356145a781614344565b9699959850939692959460a0840135945060c09093013592915050565b5f602082840312156145d4575f80fd5b6143738261446e565b6001600160a01b0391909116815260200190565b80356001600160e01b03198116811461447f575f80fd5b5f805f806060858703121561461b575f80fd5b843561462681614344565b935061443c602086016145f1565b5f8083601f840112614644575f80fd5b5081356001600160401b0381111561465a575f80fd5b6020830191508360208260051b85010111156143b7575f80fd5b5f805f805f805f60a0888a03121561468a575f80fd5b873561469581614344565b965060208801356146a581614344565b955060408801356146b581614344565b945060608801356001600160401b038111156146cf575f80fd5b6146db8a828b01614634565b90955093505060808801356001600160401b038111156146f9575f80fd5b6147058a828b0161437a565b989b979a50959850939692959293505050565b5f8060408385031215614729575f80fd5b823561473481614344565b9150614742602084016145f1565b90509250929050565b803563ffffffff8116811461447f575f80fd5b5f6020828403121561476e575f80fd5b6143738261474b565b5f81518084528060208401602086015e5f602082860101526020601f19601f83011685010191505092915050565b602081525f6143736020830184614777565b5f805f805f8060a087890312156147cc575f80fd5b86356147d781614344565b955060208701356147e781614344565b945060408701356147f781614344565b93506060870135925060808701356001600160401b03811115614818575f80fd5b61482489828a0161437a565b979a9699509497509295939492505050565b634e487b7160e01b5f52604160045260245ffd5b604051606081016001600160401b038111828210171561486c5761486c614836565b60405290565b604051601f8201601f191681016001600160401b038111828210171561489a5761489a614836565b604052919050565b5f6001600160401b038211156148ba576148ba614836565b50601f01601f191660200190565b5f82601f8301126148d7575f80fd5b81356148ea6148e5826148a2565b614872565b8181528460208386010111156148fe575f80fd5b816020850160208301375f918101602001919091529392505050565b5f6020828403121561492a575f80fd5b81356001600160401b0381111561493f575f80fd5b613be9848285016148c8565b5f806020838503121561495c575f80fd5b82356001600160401b03811115614971575f80fd5b61497d85828601614634565b90969095509350505050565b5f602082016020835280845180835260408501915060408160051b8601019250602086015f5b828110156149e057603f198786030184526149cb858351614777565b945060209384019391909101906001016149af565b50929695505050505050565b5f805f604084860312156149fe575f80fd5b6143db8461474b565b8015158114612b55575f80fd5b5f805f60408486031215614a26575f80fd5b83356143db81614a07565b5f805f805f805f60e0888a031215614a47575f80fd5b8735614a5281614344565b96506020880135614a6281614344565b95506040880135614a7281614344565b94506060880135614a8281614344565b93506080880135925060a0880135915060c08801356001600160401b03811115614aaa575f80fd5b614ab68a828b016148c8565b91505092959891949750929550565b81835281816020850137505f828201602090810191909152601f909101601f19169091010190565b6001600160a01b03841681526040602082018190525f90614b119083018486614ac5565b95945050505050565b5f60208284031215614b2a575f80fd5b815161437381614a07565b6001600160a01b038516815261ffff841660208201526060604082018190525f90614b639083018486614ac5565b9695505050505050565b5f614b7a6148e5846148a2565b9050828152838383011115614b8d575f80fd5b8282602083015e5f602084830101529392505050565b5f82601f830112614bb2575f80fd5b61437383835160208501614b6d565b5f60208284031215614bd1575f80fd5b81516001600160401b03811115614be6575f80fd5b820160608185031215614bf7575f80fd5b614bff61484a565b81516001600160401b03811115614c14575f80fd5b614c2086828501614ba3565b8252506020820151614c3181614344565b602082015260408201516001600160401b03811115614c4e575f80fd5b614c5a86828501614ba3565b604083015250949350505050565b5f805f805f60a08688031215614c7c575f80fd5b8551614c8781614a07565b6020870151909550614c9881614a07565b6040870151909450614ca981614344565b6060870151909350614cba81614344565b60809690960151949793965091949392915050565b5f60018201614cec57634e487b7160e01b5f52601160045260245ffd5b5060010190565b6001600160a01b03851681526001600160e01b0319841660208201526060604082018190525f90614b639083018486614ac5565b6001600160a01b0386811682528581166020830152841660408201526080606082018190525f90614d5b9083018486614ac5565b979650505050505050565b634e487b7160e01b5f52603260045260245ffd5b5f60208284031215614d8a575f80fd5b815161437381614344565b6001600160a01b0387811682528681166020830152851660408201526060810184905260a0608082018190525f90614dd09083018486614ac5565b98975050505050505050565b5f8060408385031215614ded575f80fd5b8251614df881614344565b6020840151909250614e0981614344565b809150509250929050565b5f808335601e19843603018112614e29575f80fd5b8301803591506001600160401b03821115614e42575f80fd5b6020019150368190038213156143b7575f80fd5b818382375f9101908152919050565b5f60208284031215614e75575f80fd5b81516001600160401b03811115614e8a575f80fd5b8201601f81018413614e9a575f80fd5b613be984825160208401614b6d565b6001600160a01b038581168252841660208201526060604082018190525f90614b639083018486614ac5565b63ffffffff84168152604060208201525f614b11604083018486614ac5565b8315158152604060208201525f614b11604083018486614ac5565b5f8060408385031215614f20575f80fd5b505080516020909101519092909150565b5f8085851115614f3f575f80fd5b83861115614f4b575f80fd5b5050820193919092039150565b80356001600160e01b031981169060048410156124a4576001600160e01b031960049490940360031b84901b1690921692915050565b602081525f613be9602083018486614ac5565b604081525f614fb4604083018587614ac5565b90508215156020830152949350505050565b5f60208284031215614fd6575f80fd5b81516001600160401b03811115614feb575f80fd5b613be984828501614ba3565b634e487b7160e01b5f52602160045260245ffd5b6001600160a01b03851681526060602082018190525f9061502f9083018587614ac5565b9050821515604083015295945050505050565b6001600160e01b0319861681526001600160a01b03851660208201526080604082018190525f906150769083018587614ac5565b905082151560608301529695505050505050565b60018060a01b0385168152836020820152608060408201525f6150b06080830185614777565b9050600283106150ce57634e487b7160e01b5f52602160045260245ffd5b82606083015295945050505050565b5f80604083850312156150ee575f80fd5b82516150f981614a07565b60208401519092506001600160401b03811115615114575f80fd5b61512085828601614ba3565b9150509250929050565b5f6020828403121561513a575f80fd5b5051919050565b5f8060408385031215615152575f80fd5b825161515d81614344565b6020939093015192949293505050565b602080825260189082015277149958d95a5d995c881b9bdd081dda1a5d195b1a5cdd195960421b604082015260600190565b5f805f80608085870312156151b2575f80fd5b84516151bd81614344565b6020860151604087015191955093506151d581614344565b6060959095015193969295505050565b5f805f606084860312156151f7575f80fd5b835161520281614344565b60208501516040860151919450925061521a81614344565b809150509250925092565b5f8060408385031215615236575f80fd5b82516020840151909250614e0981614344565b5f805f6060848603121561525b575f80fd5b8351602085015190935061526e81614344565b604085015190925061521a81614344565b5f805f60608486031215615291575f80fd5b835160208501516040860151919450925061521a81614344565b5f805f80608085870312156152be575f80fd5b84516020860151604087015191955093506152d881614344565b60608601519092506152e981614344565b939692955090935050565b5f805f805f805f60e0888a03121561530a575f80fd5b8735965061531a6020890161474b565b955060408801359450606088013561533181614344565b93506080880135925060a0880135915061534d60c0890161474b565b90509295989194975092955056fea164736f6c634300081a000a","linkReferences":{"../guard/src/lib/CowSwapLib.sol":{"CowSwapLib":[{"start":5139,"length":20},{"start":5661,"length":20},{"start":6295,"length":20},{"start":6545,"length":20}]},"../guard/src/lib/GmxLib.sol":{"GmxLib":[{"start":5545,"length":20},{"start":6712,"length":20},{"start":7873,"length":20},{"start":10063,"length":20},{"start":10874,"length":20},{"start":11629,"length":20},{"start":15445,"length":20},{"start":15632,"length":20}]},"../guard/src/lib/HypercoreVaultLib.sol":{"HypercoreVaultLib":[{"start":5405,"length":20},{"start":10515,"length":20},{"start":11696,"length":20},{"start":15798,"length":20},{"start":15996,"length":20}]},"../guard/src/lib/LagoonLib.sol":{"LagoonLib":[{"start":6763,"length":20},{"start":6891,"length":20},{"start":7442,"length":20},{"start":7570,"length":20},{"start":9153,"length":20},{"start":9281,"length":20},{"start":9425,"length":20},{"start":9553,"length":20},{"start":13997,"length":20},{"start":14127,"length":20},{"start":16661,"length":20},{"start":16794,"length":20}]},"../guard/src/lib/LighterLib.sol":{"LighterLib":[{"start":5930,"length":20},{"start":7132,"length":20},{"start":12460,"length":20},{"start":16127,"length":20},{"start":16318,"length":20}]},"../guard/src/lib/UniswapLib.sol":{"UniswapLib":[{"start":13123,"length":20},{"start":13253,"length":20},{"start":13334,"length":20},{"start":13500,"length":20}]},"../guard/src/lib/VeloraLib.sol":{"VeloraLib":[{"start":7046,"length":20},{"start":10945,"length":20},{"start":11185,"length":20},{"start":11393,"length":20},{"start":12218,"length":20}]}}},"methodIdentifiers":{"allowApprovalDestination(address,string)":"98b3cc39","allowAsset(address,string)":"86b6dbe5","allowCallSite(address,bytes4,string)":"5e4ccace","allowDelegationApprovalDestination(address,string)":"63cc17f2","allowReceiver(address,string)":"72e548a9","allowSender(address,string)":"fa2c59c8","allowWithdrawDestination(address,string)":"5ace1d92","allowedApprovalDestinations(address)":"eb0de042","allowedAssets(address)":"a4c1cccb","allowedCCTPDestinations(uint32)":"7cac69c3","allowedCCTPMessengers(address)":"07605342","allowedCallSites(address,bytes4)":"a847cf4d","allowedDelegationApprovalDestinations(address)":"4b941268","allowedLagoonVaults(address)":"8fb4dff2","allowedReceivers(address)":"3cf20025","allowedSenders(address)":"fadbcf48","allowedTargets(address)":"b8fe8d5f","allowedWithdrawDestinations(address)":"07ef00cf","anyAsset()":"87301608","avatar()":"5aef7de6","callSiteCount()":"a9fc3d4f","getGovernanceAddress()":"73252494","getInternalVersion()":"fdedfa27","getLagoonSettlementConfig(address)":"4ecd74d6","getTradingStrategyModuleVersion()":"9e4a83cf","gmxOrderVaults(address)":"a86ddc57","isAllowedApprovalDestination(address)":"1d49039c","isAllowedAsset(address)":"c537bed0","isAllowedCCTPDestination(uint32)":"748fca46","isAllowedCCTPMessenger(address)":"0411fb8e","isAllowedCallSite(address,bytes4)":"713ebf3b","isAllowedCowSwap(address)":"333f22e8","isAllowedDelegationApprovalDestination(address)":"2dc32a61","isAllowedGMXMarket(address)":"2e31e9c6","isAllowedGMXRouter(address)":"cbdb1dcf","isAllowedLagoonVault(address)":"6fd7fdef","isAllowedLighter(address)":"faef8f58","isAllowedLighterAssetIndex(uint16)":"4f97d805","isAllowedReceiver(address)":"d075f9bb","isAllowedSender(address)":"be8c97b0","isAllowedTarget(address)":"78addb48","isAllowedVeloraSwapper(address)":"f84756aa","isAllowedWithdrawDestination(address)":"efb47bff","multicall(bytes[])":"ac9650d8","owner()":"8da5cb5b","performCall(address,bytes)":"d2f73e3d","performCall(address,bytes,uint256)":"486295dc","removeApprovalDestination(address,string)":"04a3ba25","removeAsset(address,string)":"f901dc33","removeCCTPDestination(uint32,string)":"ba44ad41","removeCallSite(address,bytes4,string)":"d7334c9d","removeDelegationApprovalDestination(address,string)":"f259a073","removeGMXMarket(address,string)":"4d3d31ca","removeHypercoreVault(address,string)":"e2873b6d","removeReceiver(address,string)":"2d12d788","removeSender(address,string)":"a67e1f54","removeWithdrawDestination(address,string)":"8c2fdf9e","renounceOwnership()":"715018a6","setAnyAssetAllowed(bool,string)":"c2e657ae","setAvatar(address)":"086cfca8","setTarget(address)":"776d1a01","setUp(bytes)":"a4f9edbf","swapAndValidateCowSwap(address,address,bytes32,address,address,uint256,uint256)":"4acf884d","swapAndValidateVelora(address,address,address,address,uint256,uint256,bytes)":"d078377c","target()":"d4b83992","transferOwnership(address)":"f2fde38b","validateCall(address,address,bytes)":"6d5025f1","whitelistAaveV3(address,string)":"f20e85e0","whitelistCCTP(address,string)":"ec011440","whitelistCCTPDestination(uint32,string)":"e6f32c51","whitelistCoreWriter(address,address,string)":"acb9da16","whitelistCowSwap(address,address,string)":"1047789e","whitelistERC4626(address,string)":"86a6ae15","whitelistGMX(address,address,address,address[],string)":"6e3de202","whitelistGMXMarket(address,string)":"d7581509","whitelistHypercoreVault(address,string)":"2de905bc","whitelistLagoon(address,string)":"5e6afe4d","whitelistLagoonWithSettlementLimit(address,address,address,uint256,string)":"a2a7c02f","whitelistLighter(address,address,uint16,string)":"408694e3","whitelistToken(address,string)":"ee5462cc","whitelistTokenForDelegation(address,string)":"6d9a1423","whitelistUniswapV2Router(address,string)":"3ea35551","whitelistUniswapV3Router(address,string)":"34ec8d7e","whitelistVelora(address,address,string)":"4efbad39"},"id":43}