{"abi":[{"type":"constructor","inputs":[{"name":"_owner","type":"address","internalType":"address"},{"name":"_target","type":"address","internalType":"address"}],"stateMutability":"nonpayable"},{"type":"function","name":"_SIGN_COOLDOWN","inputs":[],"outputs":[{"name":"","type":"uint256","internalType":"uint256"}],"stateMutability":"view"},{"type":"function","name":"allowApprovalDestination","inputs":[{"name":"destination","type":"address","internalType":"address"},{"name":"notes","type":"string","internalType":"string"}],"outputs":[],"stateMutability":"nonpayable"},{"type":"function","name":"allowAsset","inputs":[{"name":"asset","type":"address","internalType":"address"},{"name":"notes","type":"string","internalType":"string"}],"outputs":[],"stateMutability":"nonpayable"},{"type":"function","name":"allowCallSite","inputs":[{"name":"target","type":"address","internalType":"address"},{"name":"selector","type":"bytes4","internalType":"bytes4"},{"name":"notes","type":"string","internalType":"string"}],"outputs":[],"stateMutability":"nonpayable"},{"type":"function","name":"allowDelegationApprovalDestination","inputs":[{"name":"destination","type":"address","internalType":"address"},{"name":"notes","type":"string","internalType":"string"}],"outputs":[],"stateMutability":"nonpayable"},{"type":"function","name":"allowReceiver","inputs":[{"name":"receiver","type":"address","internalType":"address"},{"name":"notes","type":"string","internalType":"string"}],"outputs":[],"stateMutability":"nonpayable"},{"type":"function","name":"allowSender","inputs":[{"name":"sender","type":"address","internalType":"address"},{"name":"notes","type":"string","internalType":"string"}],"outputs":[],"stateMutability":"nonpayable"},{"type":"function","name":"allowWithdrawDestination","inputs":[{"name":"destination","type":"address","internalType":"address"},{"name":"notes","type":"string","internalType":"string"}],"outputs":[],"stateMutability":"nonpayable"},{"type":"function","name":"allowedApprovalDestinations","inputs":[{"name":"destination","type":"address","internalType":"address"}],"outputs":[{"name":"allowed","type":"bool","internalType":"bool"}],"stateMutability":"view"},{"type":"function","name":"allowedAssets","inputs":[{"name":"token","type":"address","internalType":"address"}],"outputs":[{"name":"allowed","type":"bool","internalType":"bool"}],"stateMutability":"view"},{"type":"function","name":"allowedCallSites","inputs":[{"name":"target","type":"address","internalType":"address"},{"name":"selector","type":"bytes4","internalType":"bytes4"}],"outputs":[{"name":"allowed","type":"bool","internalType":"bool"}],"stateMutability":"view"},{"type":"function","name":"allowedCowSwaps","inputs":[{"name":"destination","type":"address","internalType":"address"}],"outputs":[{"name":"allowed","type":"bool","internalType":"bool"}],"stateMutability":"view"},{"type":"function","name":"allowedDelegationApprovalDestinations","inputs":[{"name":"destination","type":"address","internalType":"address"}],"outputs":[{"name":"allowed","type":"bool","internalType":"bool"}],"stateMutability":"view"},{"type":"function","name":"allowedLagoonVaults","inputs":[{"name":"destination","type":"address","internalType":"address"}],"outputs":[{"name":"allowed","type":"bool","internalType":"bool"}],"stateMutability":"view"},{"type":"function","name":"allowedReceivers","inputs":[{"name":"receiver","type":"address","internalType":"address"}],"outputs":[{"name":"allowed","type":"bool","internalType":"bool"}],"stateMutability":"view"},{"type":"function","name":"allowedSenders","inputs":[{"name":"sender","type":"address","internalType":"address"}],"outputs":[{"name":"allowed","type":"bool","internalType":"bool"}],"stateMutability":"view"},{"type":"function","name":"allowedTargets","inputs":[{"name":"target","type":"address","internalType":"address"}],"outputs":[{"name":"allowed","type":"bool","internalType":"bool"}],"stateMutability":"view"},{"type":"function","name":"allowedWithdrawDestinations","inputs":[{"name":"destination","type":"address","internalType":"address"}],"outputs":[{"name":"allowed","type":"bool","internalType":"bool"}],"stateMutability":"view"},{"type":"function","name":"anyAsset","inputs":[],"outputs":[{"name":"","type":"bool","internalType":"bool"}],"stateMutability":"view"},{"type":"function","name":"avatar","inputs":[],"outputs":[{"name":"","type":"address","internalType":"address"}],"stateMutability":"view"},{"type":"function","name":"callSiteCount","inputs":[],"outputs":[{"name":"","type":"uint256","internalType":"uint256"}],"stateMutability":"view"},{"type":"function","name":"getGovernanceAddress","inputs":[],"outputs":[{"name":"","type":"address","internalType":"address"}],"stateMutability":"view"},{"type":"function","name":"getInternalVersion","inputs":[],"outputs":[{"name":"","type":"uint8","internalType":"uint8"}],"stateMutability":"pure"},{"type":"function","name":"getTradingStrategyModuleVersion","inputs":[],"outputs":[{"name":"","type":"string","internalType":"string"}],"stateMutability":"pure"},{"type":"function","name":"isAllowedApprovalDestination","inputs":[{"name":"receiver","type":"address","internalType":"address"}],"outputs":[{"name":"","type":"bool","internalType":"bool"}],"stateMutability":"view"},{"type":"function","name":"isAllowedAsset","inputs":[{"name":"token","type":"address","internalType":"address"}],"outputs":[{"name":"","type":"bool","internalType":"bool"}],"stateMutability":"view"},{"type":"function","name":"isAllowedCallSite","inputs":[{"name":"target","type":"address","internalType":"address"},{"name":"selector","type":"bytes4","internalType":"bytes4"}],"outputs":[{"name":"","type":"bool","internalType":"bool"}],"stateMutability":"view"},{"type":"function","name":"isAllowedCowSwap","inputs":[{"name":"settlement","type":"address","internalType":"address"}],"outputs":[{"name":"","type":"bool","internalType":"bool"}],"stateMutability":"view"},{"type":"function","name":"isAllowedDelegationApprovalDestination","inputs":[{"name":"receiver","type":"address","internalType":"address"}],"outputs":[{"name":"","type":"bool","internalType":"bool"}],"stateMutability":"view"},{"type":"function","name":"isAllowedLagoonVault","inputs":[{"name":"vault","type":"address","internalType":"address"}],"outputs":[{"name":"","type":"bool","internalType":"bool"}],"stateMutability":"view"},{"type":"function","name":"isAllowedReceiver","inputs":[{"name":"receiver","type":"address","internalType":"address"}],"outputs":[{"name":"","type":"bool","internalType":"bool"}],"stateMutability":"view"},{"type":"function","name":"isAllowedSender","inputs":[{"name":"sender","type":"address","internalType":"address"}],"outputs":[{"name":"","type":"bool","internalType":"bool"}],"stateMutability":"view"},{"type":"function","name":"isAllowedTarget","inputs":[{"name":"target","type":"address","internalType":"address"}],"outputs":[{"name":"","type":"bool","internalType":"bool"}],"stateMutability":"view"},{"type":"function","name":"isAllowedWithdrawDestination","inputs":[{"name":"receiver","type":"address","internalType":"address"}],"outputs":[{"name":"","type":"bool","internalType":"bool"}],"stateMutability":"view"},{"type":"function","name":"multicall","inputs":[{"name":"data","type":"bytes[]","internalType":"bytes[]"}],"outputs":[{"name":"results","type":"bytes[]","internalType":"bytes[]"}],"stateMutability":"payable"},{"type":"function","name":"owner","inputs":[],"outputs":[{"name":"","type":"address","internalType":"address"}],"stateMutability":"view"},{"type":"function","name":"performCall","inputs":[{"name":"target","type":"address","internalType":"address"},{"name":"callData","type":"bytes","internalType":"bytes"},{"name":"value","type":"uint256","internalType":"uint256"}],"outputs":[],"stateMutability":"nonpayable"},{"type":"function","name":"performCall","inputs":[{"name":"target","type":"address","internalType":"address"},{"name":"callData","type":"bytes","internalType":"bytes"}],"outputs":[],"stateMutability":"nonpayable"},{"type":"function","name":"removeApprovalDestination","inputs":[{"name":"destination","type":"address","internalType":"address"},{"name":"notes","type":"string","internalType":"string"}],"outputs":[],"stateMutability":"nonpayable"},{"type":"function","name":"removeAsset","inputs":[{"name":"asset","type":"address","internalType":"address"},{"name":"notes","type":"string","internalType":"string"}],"outputs":[],"stateMutability":"nonpayable"},{"type":"function","name":"removeCallSite","inputs":[{"name":"target","type":"address","internalType":"address"},{"name":"selector","type":"bytes4","internalType":"bytes4"},{"name":"notes","type":"string","internalType":"string"}],"outputs":[],"stateMutability":"nonpayable"},{"type":"function","name":"removeDelegationApprovalDestination","inputs":[{"name":"destination","type":"address","internalType":"address"},{"name":"notes","type":"string","internalType":"string"}],"outputs":[],"stateMutability":"nonpayable"},{"type":"function","name":"removeReceiver","inputs":[{"name":"receiver","type":"address","internalType":"address"},{"name":"notes","type":"string","internalType":"string"}],"outputs":[],"stateMutability":"nonpayable"},{"type":"function","name":"removeSender","inputs":[{"name":"sender","type":"address","internalType":"address"},{"name":"notes","type":"string","internalType":"string"}],"outputs":[],"stateMutability":"nonpayable"},{"type":"function","name":"removeWithdrawDestination","inputs":[{"name":"destination","type":"address","internalType":"address"},{"name":"notes","type":"string","internalType":"string"}],"outputs":[],"stateMutability":"nonpayable"},{"type":"function","name":"renounceOwnership","inputs":[],"outputs":[],"stateMutability":"nonpayable"},{"type":"function","name":"setAnyAssetAllowed","inputs":[{"name":"value","type":"bool","internalType":"bool"},{"name":"notes","type":"string","internalType":"string"}],"outputs":[],"stateMutability":"nonpayable"},{"type":"function","name":"setAvatar","inputs":[{"name":"_avatar","type":"address","internalType":"address"}],"outputs":[],"stateMutability":"nonpayable"},{"type":"function","name":"setTarget","inputs":[{"name":"_target","type":"address","internalType":"address"}],"outputs":[],"stateMutability":"nonpayable"},{"type":"function","name":"setUp","inputs":[{"name":"initializeParams","type":"bytes","internalType":"bytes"}],"outputs":[],"stateMutability":"nonpayable"},{"type":"function","name":"swapAndValidateCowSwap","inputs":[{"name":"settlementContract","type":"address","internalType":"address"},{"name":"receiver","type":"address","internalType":"address"},{"name":"appData","type":"bytes32","internalType":"bytes32"},{"name":"tokenIn","type":"address","internalType":"address"},{"name":"tokenOut","type":"address","internalType":"address"},{"name":"amountIn","type":"uint256","internalType":"uint256"},{"name":"minAmountOut","type":"uint256","internalType":"uint256"}],"outputs":[],"stateMutability":"nonpayable"},{"type":"function","name":"target","inputs":[],"outputs":[{"name":"","type":"address","internalType":"address"}],"stateMutability":"view"},{"type":"function","name":"transferOwnership","inputs":[{"name":"newOwner","type":"address","internalType":"address"}],"outputs":[],"stateMutability":"nonpayable"},{"type":"function","name":"validate1deltaPath","inputs":[{"name":"path","type":"bytes","internalType":"bytes"}],"outputs":[],"stateMutability":"view"},{"type":"function","name":"validateCall","inputs":[{"name":"sender","type":"address","internalType":"address"},{"name":"target","type":"address","internalType":"address"},{"name":"callDataWithSelector","type":"bytes","internalType":"bytes"}],"outputs":[],"stateMutability":"view"},{"type":"function","name":"validateUniswapV3Path","inputs":[{"name":"path","type":"bytes","internalType":"bytes"}],"outputs":[],"stateMutability":"view"},{"type":"function","name":"validate_1deltaDeposit","inputs":[{"name":"callData","type":"bytes","internalType":"bytes"}],"outputs":[],"stateMutability":"view"},{"type":"function","name":"validate_1deltaMulticall","inputs":[{"name":"callData","type":"bytes","internalType":"bytes"}],"outputs":[],"stateMutability":"view"},{"type":"function","name":"validate_1deltaWithdraw","inputs":[{"name":"callData","type":"bytes","internalType":"bytes"}],"outputs":[],"stateMutability":"view"},{"type":"function","name":"validate_ERC4626Deposit","inputs":[{"name":"target","type":"address","internalType":"address"},{"name":"callData","type":"bytes","internalType":"bytes"}],"outputs":[],"stateMutability":"view"},{"type":"function","name":"validate_ERC4626Redeem","inputs":[{"name":"callData","type":"bytes","internalType":"bytes"}],"outputs":[],"stateMutability":"view"},{"type":"function","name":"validate_ERC4626Withdraw","inputs":[{"name":"callData","type":"bytes","internalType":"bytes"}],"outputs":[],"stateMutability":"view"},{"type":"function","name":"validate_UmamiDeposit","inputs":[{"name":"callData","type":"bytes","internalType":"bytes"}],"outputs":[],"stateMutability":"view"},{"type":"function","name":"validate_UmamiRedeem","inputs":[{"name":"callData","type":"bytes","internalType":"bytes"}],"outputs":[],"stateMutability":"view"},{"type":"function","name":"validate_aaveSupply","inputs":[{"name":"callData","type":"bytes","internalType":"bytes"}],"outputs":[],"stateMutability":"view"},{"type":"function","name":"validate_aaveWithdraw","inputs":[{"name":"callData","type":"bytes","internalType":"bytes"}],"outputs":[],"stateMutability":"view"},{"type":"function","name":"validate_approve","inputs":[{"name":"callData","type":"bytes","internalType":"bytes"}],"outputs":[],"stateMutability":"view"},{"type":"function","name":"validate_approveDelegation","inputs":[{"name":"callData","type":"bytes","internalType":"bytes"}],"outputs":[],"stateMutability":"view"},{"type":"function","name":"validate_cowSwapSettlement","inputs":[{"name":"callData","type":"bytes","internalType":"bytes"}],"outputs":[],"stateMutability":"view"},{"type":"function","name":"validate_exactInput","inputs":[{"name":"callData","type":"bytes","internalType":"bytes"}],"outputs":[],"stateMutability":"view"},{"type":"function","name":"validate_exactOutput","inputs":[{"name":"callData","type":"bytes","internalType":"bytes"}],"outputs":[],"stateMutability":"view"},{"type":"function","name":"validate_flashSwapAllOut","inputs":[{"name":"callData","type":"bytes","internalType":"bytes"}],"outputs":[],"stateMutability":"view"},{"type":"function","name":"validate_flashSwapExactInt","inputs":[{"name":"callData","type":"bytes","internalType":"bytes"}],"outputs":[],"stateMutability":"view"},{"type":"function","name":"validate_flashSwapExactOut","inputs":[{"name":"callData","type":"bytes","internalType":"bytes"}],"outputs":[],"stateMutability":"view"},{"type":"function","name":"validate_lagoonSettle","inputs":[{"name":"vault","type":"address","internalType":"address"}],"outputs":[],"stateMutability":"view"},{"type":"function","name":"validate_orderlyDelegateSigner","inputs":[{"name":"callData","type":"bytes","internalType":"bytes"}],"outputs":[],"stateMutability":"view"},{"type":"function","name":"validate_orderlyDeposit","inputs":[{"name":"callData","type":"bytes","internalType":"bytes"}],"outputs":[],"stateMutability":"view"},{"type":"function","name":"validate_orderlyWithdraw","inputs":[{"name":"callData","type":"bytes","internalType":"bytes"}],"outputs":[],"stateMutability":"view"},{"type":"function","name":"validate_swapExactTokensForTokens","inputs":[{"name":"callData","type":"bytes","internalType":"bytes"}],"outputs":[],"stateMutability":"view"},{"type":"function","name":"validate_transfer","inputs":[{"name":"callData","type":"bytes","internalType":"bytes"}],"outputs":[],"stateMutability":"view"},{"type":"function","name":"validate_transferERC20AllIn","inputs":[{"name":"callData","type":"bytes","internalType":"bytes"}],"outputs":[],"stateMutability":"view"},{"type":"function","name":"validate_transferERC20In","inputs":[{"name":"callData","type":"bytes","internalType":"bytes"}],"outputs":[],"stateMutability":"view"},{"type":"function","name":"whitelistAaveV3","inputs":[{"name":"lendingPool","type":"address","internalType":"address"},{"name":"notes","type":"string","internalType":"string"}],"outputs":[],"stateMutability":"nonpayable"},{"type":"function","name":"whitelistCowSwap","inputs":[{"name":"settlementContract","type":"address","internalType":"address"},{"name":"relayerContract","type":"address","internalType":"address"},{"name":"notes","type":"string","internalType":"string"}],"outputs":[],"stateMutability":"nonpayable"},{"type":"function","name":"whitelistERC4626","inputs":[{"name":"vault","type":"address","internalType":"address"},{"name":"notes","type":"string","internalType":"string"}],"outputs":[],"stateMutability":"nonpayable"},{"type":"function","name":"whitelistLagoon","inputs":[{"name":"vault","type":"address","internalType":"address"},{"name":"notes","type":"string","internalType":"string"}],"outputs":[],"stateMutability":"nonpayable"},{"type":"function","name":"whitelistOnedelta","inputs":[{"name":"brokerProxy","type":"address","internalType":"address"},{"name":"lendingPool","type":"address","internalType":"address"},{"name":"notes","type":"string","internalType":"string"}],"outputs":[],"stateMutability":"nonpayable"},{"type":"function","name":"whitelistOrderly","inputs":[{"name":"orderlyVault","type":"address","internalType":"address"},{"name":"notes","type":"string","internalType":"string"}],"outputs":[],"stateMutability":"nonpayable"},{"type":"function","name":"whitelistToken","inputs":[{"name":"token","type":"address","internalType":"address"},{"name":"notes","type":"string","internalType":"string"}],"outputs":[],"stateMutability":"nonpayable"},{"type":"function","name":"whitelistTokenForDelegation","inputs":[{"name":"token","type":"address","internalType":"address"},{"name":"notes","type":"string","internalType":"string"}],"outputs":[],"stateMutability":"nonpayable"},{"type":"function","name":"whitelistUniswapV2Router","inputs":[{"name":"router","type":"address","internalType":"address"},{"name":"notes","type":"string","internalType":"string"}],"outputs":[],"stateMutability":"nonpayable"},{"type":"function","name":"whitelistUniswapV3Router","inputs":[{"name":"router","type":"address","internalType":"address"},{"name":"notes","type":"string","internalType":"string"}],"outputs":[],"stateMutability":"nonpayable"},{"type":"event","name":"AnyAssetSet","inputs":[{"name":"value","type":"bool","indexed":false,"internalType":"bool"},{"name":"notes","type":"string","indexed":false,"internalType":"string"}],"anonymous":false},{"type":"event","name":"AnyVaultSet","inputs":[{"name":"value","type":"bool","indexed":false,"internalType":"bool"},{"name":"notes","type":"string","indexed":false,"internalType":"string"}],"anonymous":false},{"type":"event","name":"ApprovalDestinationApproved","inputs":[{"name":"sender","type":"address","indexed":false,"internalType":"address"},{"name":"notes","type":"string","indexed":false,"internalType":"string"}],"anonymous":false},{"type":"event","name":"ApprovalDestinationRemoved","inputs":[{"name":"sender","type":"address","indexed":false,"internalType":"address"},{"name":"notes","type":"string","indexed":false,"internalType":"string"}],"anonymous":false},{"type":"event","name":"AssetApproved","inputs":[{"name":"sender","type":"address","indexed":false,"internalType":"address"},{"name":"notes","type":"string","indexed":false,"internalType":"string"}],"anonymous":false},{"type":"event","name":"AssetRemoved","inputs":[{"name":"sender","type":"address","indexed":false,"internalType":"address"},{"name":"notes","type":"string","indexed":false,"internalType":"string"}],"anonymous":false},{"type":"event","name":"AvatarSet","inputs":[{"name":"previousAvatar","type":"address","indexed":true,"internalType":"address"},{"name":"newAvatar","type":"address","indexed":true,"internalType":"address"}],"anonymous":false},{"type":"event","name":"CallSiteApproved","inputs":[{"name":"target","type":"address","indexed":false,"internalType":"address"},{"name":"selector","type":"bytes4","indexed":false,"internalType":"bytes4"},{"name":"notes","type":"string","indexed":false,"internalType":"string"}],"anonymous":false},{"type":"event","name":"CallSiteRemoved","inputs":[{"name":"target","type":"address","indexed":false,"internalType":"address"},{"name":"selector","type":"bytes4","indexed":false,"internalType":"bytes4"},{"name":"notes","type":"string","indexed":false,"internalType":"string"}],"anonymous":false},{"type":"event","name":"CowSwapApproved","inputs":[{"name":"settlementContract","type":"address","indexed":false,"internalType":"address"},{"name":"notes","type":"string","indexed":false,"internalType":"string"}],"anonymous":false},{"type":"event","name":"DelegationApprovalDestinationApproved","inputs":[{"name":"sender","type":"address","indexed":false,"internalType":"address"},{"name":"notes","type":"string","indexed":false,"internalType":"string"}],"anonymous":false},{"type":"event","name":"DelegationApprovalDestinationRemoved","inputs":[{"name":"sender","type":"address","indexed":false,"internalType":"address"},{"name":"notes","type":"string","indexed":false,"internalType":"string"}],"anonymous":false},{"type":"event","name":"ERC4626Approved","inputs":[{"name":"vault","type":"address","indexed":false,"internalType":"address"},{"name":"notes","type":"string","indexed":false,"internalType":"string"}],"anonymous":false},{"type":"event","name":"Initialized","inputs":[{"name":"version","type":"uint64","indexed":false,"internalType":"uint64"}],"anonymous":false},{"type":"event","name":"LagoonVaultApproved","inputs":[{"name":"vault","type":"address","indexed":false,"internalType":"address"},{"name":"notes","type":"string","indexed":false,"internalType":"string"}],"anonymous":false},{"type":"event","name":"OrderSigned","inputs":[{"name":"timestamp","type":"uint256","indexed":true,"internalType":"uint256"},{"name":"orderUid","type":"bytes","indexed":false,"internalType":"bytes"},{"name":"order","type":"tuple","indexed":false,"internalType":"struct GPv2Order.Data","components":[{"name":"sellToken","type":"address","internalType":"contract IERC20"},{"name":"buyToken","type":"address","internalType":"contract IERC20"},{"name":"receiver","type":"address","internalType":"address"},{"name":"sellAmount","type":"uint256","internalType":"uint256"},{"name":"buyAmount","type":"uint256","internalType":"uint256"},{"name":"validTo","type":"uint32","internalType":"uint32"},{"name":"appData","type":"bytes32","internalType":"bytes32"},{"name":"feeAmount","type":"uint256","internalType":"uint256"},{"name":"kind","type":"bytes32","internalType":"bytes32"},{"name":"partiallyFillable","type":"bool","internalType":"bool"},{"name":"sellTokenBalance","type":"bytes32","internalType":"bytes32"},{"name":"buyTokenBalance","type":"bytes32","internalType":"bytes32"}]},{"name":"validTo","type":"uint32","indexed":false,"internalType":"uint32"},{"name":"buyAmount","type":"uint256","indexed":false,"internalType":"uint256"},{"name":"sellAmount","type":"uint256","indexed":false,"internalType":"uint256"}],"anonymous":false},{"type":"event","name":"OwnershipTransferred","inputs":[{"name":"previousOwner","type":"address","indexed":true,"internalType":"address"},{"name":"newOwner","type":"address","indexed":true,"internalType":"address"}],"anonymous":false},{"type":"event","name":"ReceiverApproved","inputs":[{"name":"sender","type":"address","indexed":false,"internalType":"address"},{"name":"notes","type":"string","indexed":false,"internalType":"string"}],"anonymous":false},{"type":"event","name":"ReceiverRemoved","inputs":[{"name":"sender","type":"address","indexed":false,"internalType":"address"},{"name":"notes","type":"string","indexed":false,"internalType":"string"}],"anonymous":false},{"type":"event","name":"SenderApproved","inputs":[{"name":"sender","type":"address","indexed":false,"internalType":"address"},{"name":"notes","type":"string","indexed":false,"internalType":"string"}],"anonymous":false},{"type":"event","name":"SenderRemoved","inputs":[{"name":"sender","type":"address","indexed":false,"internalType":"address"},{"name":"notes","type":"string","indexed":false,"internalType":"string"}],"anonymous":false},{"type":"event","name":"TargetSet","inputs":[{"name":"previousTarget","type":"address","indexed":true,"internalType":"address"},{"name":"newTarget","type":"address","indexed":true,"internalType":"address"}],"anonymous":false},{"type":"event","name":"WithdrawDestinationApproved","inputs":[{"name":"sender","type":"address","indexed":false,"internalType":"address"},{"name":"notes","type":"string","indexed":false,"internalType":"string"}],"anonymous":false},{"type":"event","name":"WithdrawDestinationRemoved","inputs":[{"name":"sender","type":"address","indexed":false,"internalType":"address"},{"name":"notes","type":"string","indexed":false,"internalType":"string"}],"anonymous":false},{"type":"error","name":"InvalidInitialization","inputs":[]},{"type":"error","name":"NotInitializing","inputs":[]},{"type":"error","name":"OwnableInvalidOwner","inputs":[{"name":"owner","type":"address","internalType":"address"}]},{"type":"error","name":"OwnableUnauthorizedAccount","inputs":[{"name":"account","type":"address","internalType":"address"}]}],"bytecode":{"object":"0x608060405234801561000f575f80fd5b5060405161665638038061665683398101604081905261002e916103f1565b604080516001600160a01b03848116602083015283168183015281518082038301815260609091019091526100628161006a565b505050610429565b7ff0c57e16840df040f15088dc2f81fe391c3923bec73e23a9662efc9c229c6a00805468010000000000000000810460ff1615906001600160401b03165f811580156100b35750825b90505f826001600160401b031660011480156100ce5750303b155b9050811580156100dc575080155b156100fa5760405163f92ee8a960e01b815260040160405180910390fd5b84546001600160401b0319166001178555831561012857845460ff60401b1916680100000000000000001785555b610131336101b7565b5f808780602001905181019061014791906103f1565b9092509050610155816101cb565b61015e81610222565b6101678261027b565b505083156101af57845460ff60401b19168555604051600181527fc7f505b2f371ae2175ee4913f4499e1f2633a7b5936321eed1cdaeb6115181d29060200160405180910390a15b505050505050565b6101bf6102ba565b6101c88161030a565b50565b6101d3610312565b5f80546001600160a01b038381166001600160a01b0319831681178455604051919092169283917f52ae88b092de36f87fb43fe794eb1381023b9c1bce563a871154022c63dce3429190a35050565b61022a610312565b600180546001600160a01b038381166001600160a01b0319831681179093556040519116919082907f90cc2f570a6eb594b1580ea3e41247d2d73a55281889e86bd4ec2fc29c7e62d6905f90a35050565b610283610312565b6001600160a01b0381166102b157604051631e4fbdf760e01b81525f60048201526024015b60405180910390fd5b6101c88161036d565b7ff0c57e16840df040f15088dc2f81fe391c3923bec73e23a9662efc9c229c6a005468010000000000000000900460ff1661030857604051631afcd79f60e31b815260040160405180910390fd5b565b6102836102ba565b336103447f9016d09d72d40fdae2fd8ceac6b6234c7706214fd39c1cd1e609a0528c199300546001600160a01b031690565b6001600160a01b0316146103085760405163118cdaa760e01b81523360048201526024016102a8565b7f9016d09d72d40fdae2fd8ceac6b6234c7706214fd39c1cd1e609a0528c19930080546001600160a01b031981166001600160a01b03848116918217845560405192169182907f8be0079c531659141344cd1fd0a4f28419497f9722a3daafe3b4186f6b6457e0905f90a3505050565b6001600160a01b03811681146101c8575f80fd5b5f8060408385031215610402575f80fd5b825161040d816103dd565b602084015190925061041e816103dd565b809150509250929050565b616220806104365f395ff3fe60806040526004361061059b575f3560e01c806386a6ae15116102dd578063c537bed011610182578063ebe26816116100e7578063f2fde38b11610092578063fa2c59c81161006d578063fa2c59c814611181578063fadbcf48146111a0578063fdedfa27146111ce575f80fd5b8063f2fde38b14611124578063f76081e414611143578063f901dc3314611162575f80fd5b8063f20e85e0116100c2578063f20e85e0146110e6578063f259a0731461059f578063f26749f314611105575f80fd5b8063ebe268161461106c578063ee5462cc1461108b578063efb47bff146110aa575f80fd5b8063d4c0fe4511610147578063db17a17011610122578063db17a17014611000578063e98539c51461101f578063eb0de0421461103e575f80fd5b8063d4c0fe4514610fc2578063d718f04114610a43578063d7334c9d14610fe1575f80fd5b8063c537bed014610f29578063ca963c5014610a05578063d075f9bb14610f48578063d2f73e3d14610f84578063d4b8399214610fa3575f80fd5b8063a4c1cccb11610242578063adcfa55b116101ed578063be8c97b0116101c8578063be8c97b014610eaf578063c2e657ae14610eeb578063c4cc9dba14610f0a575f80fd5b8063adcfa55b14610b9d578063b3c329cb14610e62578063b8fe8d5f14610e81575f80fd5b8063a847cf4d1161021d578063a847cf4d14610df4578063a9fc3d4f14610e2d578063ac9650d814610e42575f80fd5b8063a4c1cccb14610d88578063a4f9edbf14610db6578063a67e1f5414610dd5575f80fd5b80638fb4dff2116102a257806398b3cc391161027d57806398b3cc3914610d165780639e4a83cf14610d35578063a1b6b43014610d69575f80fd5b80638fb4dff214610cc9578063912ef02d14610a43578063957dc6c014610cf7575f80fd5b806386a6ae1514610c1757806386b6dbe514610c365780638730160814610c555780638c2fdf9e14610c6e5780638da5cb5b14610c8d575f80fd5b806359b92be9116104435780636fd7fdef116103a857806374fb77fe11610353578063780650861161032e5780637806508614610b9d57806378addb4814610bbc5780637ea4465514610bf8575f80fd5b806374fb77fe14610b40578063761bcd9c14610b5f578063776d1a0114610b7e575f80fd5b806372e548a91161038357806372e548a914610aee5780637325249414610b0d578063742bfc7e14610b21575f80fd5b80636fd7fdef14610a7f578063713ebf3b14610abb578063715018a614610ada575f80fd5b806363cc17f2116104085780636d5025f1116103e35780636d5025f114610a245780636d5176a614610a435780636d9a142314610a60575f80fd5b806363cc17f2146109c75780636a6d5cc8146109e65780636ad1135314610a05575f80fd5b806359b92be9146109155780635ace1d92146109345780635aef7de6146109535780635e4ccace146109895780635e6afe4d146109a8575f80fd5b80632dc32a6111610503578063425f49d0116104ae5780634acf884d116104895780634acf884d146108a95780634b941268146108c85780634b956bd8146108f6575f80fd5b8063425f49d01461083d578063475660641461085c578063486295dc1461088a575f80fd5b80633cf20025116104de5780633cf20025146107cd5780633ea35551146107fb5780633ffb788e1461081a575f80fd5b80632dc32a6114610736578063333f22e81461077257806334ec8d7e146107ae575f80fd5b80631047789e116105635780631d49039c1161053e5780631d49039c146106bd5780632c02cda0146106f95780632d12d78814610717575f80fd5b80631047789e146106605780631710a4f21461067f5780631c123e771461069e575f80fd5b806304a3ba251461059f57806307ac3562146105c057806307ef00cf146105df578063086cfca8146106225780630c260a7b14610641575b5f80fd5b3480156105aa575f80fd5b506105be6105b936600461512f565b6111e9565b005b3480156105cb575f80fd5b506105be6105da36600461523b565b611251565b3480156105ea575f80fd5b5061060d6105f9366004615274565b60086020525f908152604090205460ff1681565b60405190151581526020015b60405180910390f35b34801561062d575f80fd5b506105be61063c366004615274565b611596565b34801561064c575f80fd5b506105be61065b36600461523b565b6115ed565b34801561066b575f80fd5b506105be61067a366004615296565b61169f565b34801561068a575f80fd5b506105be61069936600461523b565b611719565b3480156106a9575f80fd5b506105be6106b836600461523b565b6117c9565b3480156106c8575f80fd5b5061060d6106d7366004615274565b6001600160a01b03165f9081526009602052604090205460ff16151560011490565b348015610704575f80fd5b506105be6107133660046152f6565b5050565b348015610722575f80fd5b506105be61073136600461512f565b6118c4565b348015610741575f80fd5b5061060d610750366004615274565b6001600160a01b03165f908152600a602052604090205460ff16151560011490565b34801561077d575f80fd5b5061060d61078c366004615274565b6001600160a01b03165f908152600c602052604090205460ff16151560011490565b3480156107b9575f80fd5b506105be6107c836600461512f565b61191f565b3480156107d8575f80fd5b5061060d6107e7366004615274565b60076020525f908152604090205460ff1681565b348015610806575f80fd5b506105be61081536600461512f565b61199a565b348015610825575f80fd5b5061082f6104b081565b604051908152602001610619565b348015610848575f80fd5b506105be61085736600461523b565b6119f0565b348015610867575f80fd5b5061060d610876366004615274565b600c6020525f908152604090205460ff1681565b348015610895575f80fd5b506105be6108a4366004615342565b611a11565b3480156108b4575f80fd5b506105be6108c3366004615399565b611a7a565b3480156108d3575f80fd5b5061060d6108e2366004615274565b600a6020525f908152604090205460ff1681565b348015610901575f80fd5b506105be61091036600461523b565b611ac1565b348015610920575f80fd5b506105be61092f36600461523b565b611b64565b34801561093f575f80fd5b506105be61094e36600461512f565b611be5565b34801561095e575f80fd5b505f54610971906001600160a01b031681565b6040516001600160a01b039091168152602001610619565b348015610994575f80fd5b506105be6109a336600461542a565b611c43565b3480156109b3575f80fd5b506105be6109c236600461512f565b611ce1565b3480156109d2575f80fd5b506105be6109e136600461512f565b611e8d565b3480156109f1575f80fd5b506105be610a0036600461523b565b611eeb565b348015610a10575f80fd5b506105be610a1f36600461523b565b611fd3565b348015610a2f575f80fd5b506105be610a3e366004615296565b611ff5565b348015610a4e575f80fd5b506105be610a5d36600461523b565b50565b348015610a6b575f80fd5b506105be610a7a36600461512f565b612007565b348015610a8a575f80fd5b5061060d610a99366004615274565b6001600160a01b03165f908152600b602052604090205460ff16151560011490565b348015610ac6575f80fd5b5061060d610ad5366004615456565b61203d565b348015610ae5575f80fd5b506105be612074565b348015610af9575f80fd5b506105be610b0836600461512f565b612087565b348015610b18575f80fd5b506109716120e5565b348015610b2c575f80fd5b506105be610b3b36600461523b565b61211c565b348015610b4b575f80fd5b506105be610b5a36600461523b565b6121d7565b348015610b6a575f80fd5b506105be610b7936600461523b565b61228a565b348015610b89575f80fd5b506105be610b98366004615274565b6123d4565b348015610ba8575f80fd5b506105be610bb736600461523b565b61242d565b348015610bc7575f80fd5b5061060d610bd6366004615274565b6001600160a01b03165f9081526003602052604090205460ff16151560011490565b348015610c03575f80fd5b506105be610c1236600461523b565b6124ec565b348015610c22575f80fd5b506105be610c3136600461512f565b61256f565b348015610c41575f80fd5b506105be610c5036600461512f565b6128b8565b348015610c60575f80fd5b50600d5461060d9060ff1681565b348015610c79575f80fd5b506105be610c8836600461512f565b612916565b348015610c98575f80fd5b507f9016d09d72d40fdae2fd8ceac6b6234c7706214fd39c1cd1e609a0528c199300546001600160a01b0316610971565b348015610cd4575f80fd5b5061060d610ce3366004615274565b600b6020525f908152604090205460ff1681565b348015610d02575f80fd5b506105be610d1136600461523b565b612971565b348015610d21575f80fd5b506105be610d3036600461512f565b612a2f565b348015610d40575f80fd5b50604080518082018252600681526576302e312e3360d01b6020820152905161061991906154b7565b348015610d74575f80fd5b506105be610d8336600461523b565b612a8d565b348015610d93575f80fd5b5061060d610da2366004615274565b60056020525f908152604090205460ff1681565b348015610dc1575f80fd5b506105be610dd036600461523b565b612c4f565b348015610de0575f80fd5b506105be610def36600461512f565b612d90565b348015610dff575f80fd5b5061060d610e0e366004615456565b600260209081525f928352604080842090915290825290205460ff1681565b348015610e38575f80fd5b5061082f60045481565b610e55610e503660046154c9565b612deb565b6040516106199190615538565b348015610e6d575f80fd5b506105be610e7c366004615274565b612f31565b348015610e8c575f80fd5b5061060d610e9b366004615274565b60036020525f908152604090205460ff1681565b348015610eba575f80fd5b5061060d610ec9366004615274565b6001600160a01b03165f9081526006602052604090205460ff16151560011490565b348015610ef6575f80fd5b506105be610f053660046155a8565b612fa3565b348015610f15575f80fd5b506105be610f2436600461523b565b612fed565b348015610f34575f80fd5b5061060d610f43366004615274565b61310b565b348015610f53575f80fd5b5061060d610f62366004615274565b6001600160a01b03165f9081526007602052604090205460ff16151560011490565b348015610f8f575f80fd5b506105be610f9e36600461512f565b61313c565b348015610fae575f80fd5b50600154610971906001600160a01b031681565b348015610fcd575f80fd5b506105be610fdc36600461523b565b613148565b348015610fec575f80fd5b506105be610ffb36600461542a565b6131ab565b34801561100b575f80fd5b506105be61101a36600461512f565b61321d565b34801561102a575f80fd5b506105be61103936600461523b565b61329e565b348015611049575f80fd5b5061060d611058366004615274565b60096020525f908152604090205460ff1681565b348015611077575f80fd5b506105be61108636600461523b565b61335c565b348015611096575f80fd5b506105be6110a536600461512f565b61340f565b3480156110b5575f80fd5b5061060d6110c4366004615274565b6001600160a01b03165f9081526008602052604090205460ff16151560011490565b3480156110f1575f80fd5b506105be61110036600461512f565b61341a565b348015611110575f80fd5b506105be61111f366004615296565b613470565b34801561112f575f80fd5b506105be61113e366004615274565b6134e5565b34801561114e575f80fd5b506105be61115d36600461523b565b61351f565b34801561116d575f80fd5b506105be61117c36600461512f565b61359a565b34801561118c575f80fd5b506105be61119b36600461512f565b6135f5565b3480156111ab575f80fd5b5061060d6111ba366004615274565b60066020525f908152604090205460ff1681565b3480156111d9575f80fd5b5060405160018152602001610619565b6111f1613653565b6001600160a01b0383165f9081526009602052604090819020805460ff19169055517fb71be9befd3ac90c1c9981d3b1161b3c2c6dcd741f13b34061aa251226a802df90611244908590859085906155ed565b60405180910390a1505050565b5f81806020019051810190611266919061568e565b90505f5b8151811015611591575f8282815181106112865761128661573d565b602002602001015190505f6112a75f6004846136ae9092919063ffffffff16565b6112b090615751565b90505f6112cd60048085516112c591906157a3565b8591906136ae565b6040805180820190915260208082527f7472616e736665724552433230496e28616464726573732c75696e74323536299101529050631dac092b60e11b6001600160e01b03198316016113285761132381611b64565b611586565b60408051808201909152601b81527f7472616e736665724552433230416c6c496e2861646472657373290000000000602090910152635cf59cb760e11b6001600160e01b031983160161137e57611323816124ec565b60408051808201909152601881527f6465706f73697428616464726573732c6164647265737329000000000000000060209091015262d3ec1f60e31b6001600160e01b03198316016113d35761132381612fed565b60408051808201909152601981527f776974686472617728616464726573732c6164647265737329000000000000006020909101526306bf1c7b60e01b6001600160e01b0319831601611429576113238161351f565b61145060405180606001604052806027815260200161619060279139805160209091012090565b6001600160e01b031916826001600160e01b031916036114735761132381611fd3565b61149a60405180606001604052806028815260200161616860289139805160209091012090565b6001600160e01b031916826001600160e01b031916036114bd5761132381611fd3565b60408051808201909152601e81527f666c61736853776170416c6c4f75742875696e743235362c627974657329000060209091015263d2b3d16560e01b6001600160e01b031983160161151357611323816119f0565b60405162461bcd60e51b815260206004820152603360248201527f76616c69646174655f3164656c74614d756c746963616c6c3a20556e6b6e6f7760448201527f6e2066756e6374696f6e2073656c6563746f720000000000000000000000000060648201526084015b60405180910390fd5b50505060010161126a565b505050565b61159e613653565b5f80546001600160a01b038381166001600160a01b0319831681178455604051919092169283917f52ae88b092de36f87fb43fe794eb1381023b9c1bce563a871154022c63dce3429190a35050565b5f8180602001905181019061160291906157c1565b509250505061162d816001600160a01b03165f9081526007602052604090205460ff16151560011490565b6107135760405162461bcd60e51b815260206004820152603f60248201527f76616c69646174655f556d616d6952656465656d3a205265636569766572206160448201527f646472657373206e6f742077686974656c697374656420627920477561726400606482015260840161157d565b6116aa848383612a2f565b6116b5838383612a2f565b6001600160a01b0384165f908152600c602052604090819020805460ff19166001179055517f936b7187f49d778f82d1c17d927c8006f00eac6d2e5ccb50720dbc7afda8b4a99061170b908690859085906155ed565b60405180910390a150505050565b5f8180602001905181019061172e919061580a565b509050611757816001600160a01b03165f9081526008602052604090205460ff16151560011490565b6107135760405162461bcd60e51b815260206004820152603c60248201527f76616c69646174655f7472616e736665723a205265636569766572206164647260448201527f657373206e6f742077686974656c697374656420627920477561726400000000606482015260840161157d565b5f805b6117d583613810565b50925090506117e38261310b565b6118405760405162461bcd60e51b815260206004820152602860248201527f76616c6964617465556e69737761705633506174683a20546f6b656e206e6f7460448201526708185b1b1bddd95960c21b606482015260840161157d565b6118498161310b565b6118a65760405162461bcd60e51b815260206004820152602860248201527f76616c6964617465556e69737761705633506174683a20546f6b656e206e6f7460448201526708185b1b1bddd95960c21b606482015260840161157d565b6118af8361384b565b15611591576118bd83613884565b92506117cc565b6118cc613653565b6001600160a01b0383165f9081526007602052604090819020805460ff19169055517f4e13b11ab98e672bd78295ef9cebe764dc617f95decf47d842c25b83abc0c72490611244908590859085906155ed565b6119518361194a60405180606001604052806033815260200161613560339139805160209091012090565b8484611c43565b61197c8361194a6040518060600160405280603481526020016161b760349139805160209091012090565b61198f8363b858183f60e01b8484611c43565b611591838383612a2f565b6119c58361194a604051806080016040528060438152602001615f4d60439139805160209091012090565b61198f8361194a604051806080016040528060608152602001615f9060609139805160209091012090565b5f81806020019051810190611a059190615836565b91505061071381612a8d565b5f6060611a20338787876138b5565b611a60868487878080601f0160208091040260200160405190810160405280939291908181526020018383808284375f9201829052509250614710915050565b909250905081611a7257805160208201fd5b505050505050565b5f60605f611a8d8a8a8a8a8a8a8a61479a565b9050611aa381602001515f83604001515f614710565b909350915082611ab557815160208301fd5b50505050505050505050565b5f81806020019051810190611ad6919061580a565b509050611aff816001600160a01b03165f9081526009602052604090205460ff16151560011490565b6107135760405162461bcd60e51b815260206004820152603060248201527f76616c69646174655f617070726f76653a20417070726f76652061646472657360448201526f0e640c8decae640dcdee840dac2e8c6d60831b606482015260840161157d565b5f81806020019051810190611b79919061580a565b509050611b858161310b565b6107135760405162461bcd60e51b815260206004820152602b60248201527f76616c69646174655f7472616e736665724552433230496e3a20546f6b656e2060448201526a1b9bdd08185b1b1bddd95960aa1b606482015260840161157d565b611bed613653565b6001600160a01b0383165f9081526008602052604090819020805460ff19166001179055517f3562181221a42a19ddd03a82dfe06acab1905ceb65cdaf7d86a1d9fec664355290611244908590859085906155ed565b611c4b613653565b6001600160a01b0384165f8181526002602090815260408083206001600160e01b03198816845282528083208054600160ff199182168117909255948452600390925282208054909316179091556004805491611ca783615870565b91905055507fef729aaa41b9fd994f9ff7c1960df214a84f722002e6cfbea31799cd0873a3ef8484848460405161170b9493929190615888565b611ce9613653565b6001600160a01b0383165f908152600b6020908152604091829020805460ff191660011790558151808301909252600f82526e736574746c654465706f736974282960881b910152611d5b837f559ec80da0b29925dac0e329ba0aaf8bbf2760bcaf9174e4ca42e01d74c0e6d061194a565b60408051808201909152600e81526d736574746c6552656465656d282960901b602090910152611dab837fa03d55e3f74b6754c01f274bb12d9c8a11ea8330b6b4ce7125c8dff1f63646ca61194a565b604080518082019091526016815275736574746c654465706f7369742875696e743235362960501b602090910152611e03837fd24ca58a10c001ae46e533b96327657c0a386bc41cac6e2db77fab9c775540b561194a565b604080518082019091526015815274736574746c6552656465656d2875696e743235362960581b602090910152611e5a837fa627df6689990c734a41da64c298fd0d8c7cc1757a97e2f817ed479cf45d135d61194a565b7ffaa136302ac223cf7c1146490a741e4520e886fc22d7e759641453f432283d01838383604051611244939291906155ed565b611e95613653565b6001600160a01b0383165f908152600a602052604090819020805460ff19166001179055517f628a44970c0e450415e3ae74334ea44f3307b74dbf677a1371190242bf2f358990611244908590859085906155ed565b5f8082806020019051810190611f0191906158c3565b9250509150611f0f8261310b565b611f4f5760405162461bcd60e51b8152602060048201526011602482015270151bdad95b881b9bdd08185b1b1bddd959607a1b604482015260640161157d565b611f75816001600160a01b03165f9081526007602052604090205460ff16151560011490565b6115915760405162461bcd60e51b815260206004820152602960248201527f52656365697665722061646472657373206e6f742077686974656c697374656460448201526808189e4811dd585c9960ba1b606482015260840161157d565b5f81806020019051810190611fe89190615903565b9250505061071381612a8d565b612001848484846138b5565b50505050565b6120328361194a60405180606001604052806022815260200161611360229139805160209091012090565b6115918383836128b8565b6001600160a01b0382165f9081526002602090815260408083206001600160e01b03198516845290915290205460ff165b92915050565b61207c613653565b6120855f614a3b565b565b61208f613653565b6001600160a01b0383165f9081526007602052604090819020805460ff19166001179055517f62dd88c5ecfa60713a657640ebec4de26fc1aefa4afdb24e6d15a124fce7277990611244908590859085906155ed565b5f6121177f9016d09d72d40fdae2fd8ceac6b6234c7706214fd39c1cd1e609a0528c199300546001600160a01b031690565b905090565b5f81806020019051810190612131919061594f565b5091505061215b816001600160a01b03165f9081526007602052604090205460ff16151560011490565b6107135760405162461bcd60e51b815260206004820152604160248201527f76616c69646174655f4552433436323652656465656d3a20526563656976657260448201527f2061646472657373206e6f742077686974656c697374656420627920477561726064820152601960fa1b608482015260a40161157d565b5f818060200190518101906121ec9190615985565b92505050612216816001600160a01b03165f9081526007602052604090205460ff16151560011490565b610713576040805162461bcd60e51b81526020600482015260248101919091527f76616c69646174655f556d616d694465706f7369743a2052656365697665722060448201527f61646472657373206e6f742077686974656c6973746564206279204775617264606482015260840161157d565b5f80828060200190518101906122a091906159b1565b509350935050506122cd816001600160a01b03165f9081526007602052604090205460ff16151560011490565b6123545760405162461bcd60e51b815260206004820152604c60248201527f76616c69646174655f737761704578616374546f6b656e73466f72546f6b656e60448201527f733a2052656365697665722061646472657373206e6f742077686974656c697360648201526b1d195908189e4811dd585c9960a21b608482015260a40161157d565b5f805b83518110156123cd578381815181106123725761237261573d565b602002602001015191506123858261310b565b6123c55760405162461bcd60e51b8152602060048201526011602482015270151bdad95b881b9bdd08185b1b1bddd959607a1b604482015260640161157d565b600101612357565b5050505050565b6123dc613653565b600180546001600160a01b038381166001600160a01b0319831681179093556040519116919082907f90cc2f570a6eb594b1580ea3e41247d2d73a55281889e86bd4ec2fc29c7e62d6905f90a35050565b5f81806020019051810190612442919061594f565b5091505061246c816001600160a01b03165f9081526007602052604090205460ff16151560011490565b6107135760405162461bcd60e51b815260206004820152604560248201527f76616c69646174655f455243343632365769746864726177616c3a205265636560448201527f697665722061646472657373206e6f742077686974656c69737465642062792060648201526411dd585c9960da1b608482015260a40161157d565b5f818060200190518101906125019190615a7a565b905061250c8161310b565b6107135760405162461bcd60e51b815260206004820152602e60248201527f76616c69646174655f7472616e736665724552433230416c6c496e3a20546f6b60448201526d195b881b9bdd08185b1b1bddd95960921b606482015260840161157d565b5f8390505f816001600160a01b03166338d52e0f6040518163ffffffff1660e01b8152600401602060405180830381865afa1580156125b0573d5f803e3d5ffd5b505050506040513d601f19601f820116820180604052508101906125d49190615a7a565b60408051808201909152601881527f6465706f7369742875696e743235362c61646472657373290000000000000000602090910152905084612639817f6e553f653991036c188afcef45e14f9ecb45269ff9c675358bbb3a2eeb78e03b5b8787611c43565b612664866126326040518060600160405280602181526020016160f260219139805160209091012090565b60408051808201909152601f81527f72656465656d2875696e743235362c616464726573732c6164647265737329006020909101526126c3867fba087652ef750b77b3f3b86ecd8aac56de04fbc0d6751abdd0992cabce379054612632565b6040805180820190915260208082527f6465706f7369742875696e743235362c75696e743235362c6164647265737329910152612720867f8dbdbe6d001f5e99073d1e00fb9ab09617cdb877a368e124850de81886e5a85b612632565b61274b86612632604051806060016040528060278152602001615eb360279139805160209091012090565b6040805180820190915260208082527f6465706f7369742875696e743235362c616464726573732c61646472657373299101526127a8867f2e2d298468c732b7cc7344a26321c2cd82d446fea74af620fb9923927c3c57e9612632565b6127d38661263260405180606001604052806026815260200161603760269139805160209091012090565b6127fe86612632604051806060016040528060288152602001615f2560289139805160209091012090565b6128298661263260405180606001604052806027815260200161605d60279139805160209091012090565b612854866126326040518060600160405280602481526020016160ce60249139805160209091012090565b61285f868686612a2f565b61286a818686614aab565b612875828686614aab565b7fd2851df39115d63968e90113e8b3a96f13e33ac4c2e5a9caa1afeffe59e557488686866040516128a8939291906155ed565b60405180910390a1505050505050565b6128c0613653565b6001600160a01b0383165f9081526005602052604090819020805460ff19166001179055517fad90e2570fc4fe9f7437be3188d5c791c6662892d31731992aa88f5c8762198390611244908590859085906155ed565b61291e613653565b6001600160a01b0383165f9081526008602052604090819020805460ff19169055517f1212f8ddb39de8e1a339460c95752d61100723efeaa34ccd94bca94393f4093890611244908590859085906155ed565b5f81806020019051810190612986919061580a565b5090506129af816001600160a01b03165f908152600a602052604090205460ff16151560011490565b6107135760405162461bcd60e51b815260206004820152604560248201527f76616c69646174655f617070726f766544656c65676174696f6e3a204170707260448201527f6f76652064656c65676174696f6e206164647265737320646f6573206e6f74206064820152640dac2e8c6d60db1b608482015260a40161157d565b612a37613653565b6001600160a01b0383165f9081526009602052604090819020805460ff19166001179055517f628a44970c0e450415e3ae74334ea44f3307b74dbf677a1371190242bf2f358990611244908590859085906155ed565b5f805b612a9a835f614b64565b9150612ac9600180612aae60036014615a95565b612ab89190615a95565b612ac29190615a95565b8490614b64565b9050612ad48261310b565b612b2e5760405162461bcd60e51b815260206004820152602560248201527f76616c69646174653164656c7461506174683a20546f6b656e206e6f7420616c6044820152641b1bddd95960da1b606482015260840161157d565b612b378161310b565b612b915760405162461bcd60e51b815260206004820152602560248201527f76616c69646174653164656c7461506174683a20546f6b656e206e6f7420616c6044820152641b1bddd95960da1b606482015260840161157d565b600180612ba060036014615a95565b612baa9190615a95565b612bb49190615a95565b6014600180612bc4600384615a95565b612bce9190615a95565b612bd89190615a95565b612be29190615a95565b612bec9190615a95565b83511061159157612c48600180612c0560036014615a95565b612c0f9190615a95565b612c199190615a95565b600180612c2860036014615a95565b612c329190615a95565b612c3c9190615a95565b85516112c591906157a3565b9250612a90565b7ff0c57e16840df040f15088dc2f81fe391c3923bec73e23a9662efc9c229c6a008054600160401b810460ff1615906001600160401b03165f81158015612c935750825b90505f826001600160401b03166001148015612cae5750303b155b905081158015612cbc575080155b15612cda5760405163f92ee8a960e01b815260040160405180910390fd5b845467ffffffffffffffff191660011785558315612d0957845468ff00000000000000001916600160401b1785555b612d1233614c33565b5f8087806020019051810190612d289190615aa8565b91509150612d3581611596565b612d3e816123d4565b612d47826134e5565b50508315611a7257845468ff000000000000000019168555604051600181527fc7f505b2f371ae2175ee4913f4499e1f2633a7b5936321eed1cdaeb6115181d2906020016128a8565b612d98613653565b6001600160a01b0383165f9081526006602052604090819020805460ff19169055517f3097928509c53a2dab9500431201d82b0d756e8f890fd01f4ae6b33b45687ea490611244908590859085906155ed565b6060816001600160401b03811115612e0557612e0561517f565b604051908082528060200260200182016040528015612e3857816020015b6060815260200190600190039081612e235790505b5090505f5b82811015612f2a575f8030868685818110612e5a57612e5a61573d565b9050602002810190612e6c9190615ae0565b604051612e7a929190615b22565b5f60405180830381855af49150503d805f8114612eb2576040519150601f19603f3d011682016040523d82523d5f602084013e612eb7565b606091505b509150915081612f0257604481511015612ecf575f80fd5b60048101905080806020019051810190612ee99190615b31565b60405162461bcd60e51b815260040161157d91906154b7565b80848481518110612f1557612f1561573d565b60209081029190910101525050600101612e3d565b5092915050565b612f57816001600160a01b03165f908152600b602052604090205460ff16151560011490565b610a5d5760405162461bcd60e51b815260206004820152601160248201527f5661756c74206e6f7420616c6c6f776564000000000000000000000000000000604482015260640161157d565b612fab613653565b600d805460ff19168415151790556040517f50454d9d0025a28a39cac5a4b3f3101d29b6e413fbb64f75fb42eb6837b077189061124490859085908590615b75565b5f80828060200190518101906130039190615aa8565b915091506130108261310b565b6130735760405162461bcd60e51b815260206004820152602e60248201527f76616c69646174655f7472616e736665724552433230416c6c496e3a20546f6b60448201526d195b881b9bdd08185b1b1bddd95960921b606482015260840161157d565b613099816001600160a01b03165f9081526007602052604090205460ff16151560011490565b6115915760405162461bcd60e51b815260206004820152603b60248201527f76616c69646174655f6465706f7369743a20526563656976657220616464726560448201527f7373206e6f742077686974656c69737465642062792047756172640000000000606482015260840161157d565b600d545f9060ff168061206e5750506001600160a01b03165f9081526005602052604090205460ff16151560011490565b6115918383835f611a11565b5f8180602001905181019061315d9190615b90565b505050905061316b8161310b565b6107135760405162461bcd60e51b8152602060048201526011602482015270151bdad95b881b9bdd08185b1b1bddd959607a1b604482015260640161157d565b6131b3613653565b6001600160a01b0384165f9081526002602090815260408083206001600160e01b03198716845290915290819020805460ff19169055517f37ea10f2d08f5a9803dfcd5abf3cfc7b0d6fcdf5fcbc36be9ea5a0b53d9a4d9b9061170b908690869086908690615888565b6132488361194a604051806060016040528060218152602001615eda60219139805160209091012090565b6132738361194a6040518060600160405280602a8152602001615efb602a9139805160209091012090565b61198f8361194a6040518060800160405280604a8152602001616084604a9139805160209091012090565b5f818060200190518101906132b39190615c6c565b90506132df81602001516001600160a01b03165f9081526007602052604090205460ff16151560011490565b6133515760405162461bcd60e51b815260206004820152603f60248201527f76616c69646174655f65786163744f75747075743a205265636569766572206160448201527f646472657373206e6f742077686974656c697374656420627920477561726400606482015260840161157d565b8051610713906117c9565b5f818060200190518101906133719190615c6c565b905061339d81602001516001600160a01b03165f9081526007602052604090205460ff16151560011490565b6133515760405162461bcd60e51b815260206004820152603e60248201527f76616c69646174655f6578616374496e7075743a20526563656976657220616460448201527f6472657373206e6f742077686974656c69737465642062792047756172640000606482015260840161157d565b611591838383614aab565b6134458361194a604051806060016040528060268152602001615ff060269139805160209091012090565b61198f8361194a60405180606001604052806021815260200161601660219139805160209091012090565b6040805180820190915260128152716d756c746963616c6c2862797465735b5d2960701b6020909101526134c4847fac9650d882acfa253cba1ed543b9ff47351da99c3bd00a89625e5cdb2099009c61194a565b6134cf848383612a2f565b6134da838383612a2f565b612001848383611e8d565b6134ed613653565b6001600160a01b03811661351657604051631e4fbdf760e01b81525f600482015260240161157d565b610a5d81614a3b565b5f80828060200190518101906135359190615aa8565b915091506135428261310b565b6130735760405162461bcd60e51b8152602060048201526024808201527f76616c69646174655f77697468647261773a20546f6b656e206e6f7420616c6c6044820152631bddd95960e21b606482015260840161157d565b6135a2613653565b6001600160a01b0383165f9081526005602052604090819020805460ff19169055517f9ca3f065622f5f03f32b7157677a0e420c3a36ab45fd49f256ffebce3e31058790611244908590859085906155ed565b6135fd613653565b6001600160a01b0383165f9081526006602052604090819020805460ff19166001179055517fa8f9caaf4861720900294428e4ff34d37070c37afd26d96e6e4da75326d2c3ad90611244908590859085906155ed565b336136857f9016d09d72d40fdae2fd8ceac6b6234c7706214fd39c1cd1e609a0528c199300546001600160a01b031690565b6001600160a01b0316146120855760405163118cdaa760e01b815233600482015260240161157d565b6060816136bc81601f615a95565b10156136fb5760405162461bcd60e51b815260206004820152600e60248201526d736c6963655f6f766572666c6f7760901b604482015260640161157d565b826137068382615a95565b10156137455760405162461bcd60e51b815260206004820152600e60248201526d736c6963655f6f766572666c6f7760901b604482015260640161157d565b61374f8284615a95565b8451101561379f5760405162461bcd60e51b815260206004820152601160248201527f736c6963655f6f75744f66426f756e6473000000000000000000000000000000604482015260640161157d565b6060821580156137bd5760405191505f825260208201604052613807565b6040519150601f8416801560200281840101858101878315602002848b0101015b818310156137f65780518352602092830192016137de565b5050858452601f01601f1916604052505b50949350505050565b5f808061381d8482614b64565b925061382a846014614c44565b905061384261383b60036014615a95565b8590614b64565b91509193909250565b5f61385860036014615a95565b6014613865600382615a95565b61386f9190615a95565b6138799190615a95565b825110159050919050565b606061206e61389560036014615a95565b6138a160036014615a95565b84516138ad91906157a3565b8491906136ae565b6138bd6120e5565b6001600160a01b0316846001600160a01b03160315612001576138fc846001600160a01b03165f9081526006602052604090205460ff16151560011490565b6139485760405162461bcd60e51b815260206004820181905260248201527f76616c696461746543616c6c3a2053656e646572206e6f7420616c6c6f776564604482015260640161157d565b5f6139566004828486615c9d565b61395f91615cc4565b9050365f6139708460048188615c9d565b600d5491935091505f9060ff1680156139c95750604080518082019091526018815277617070726f766528616464726573732c75696e743235362960401b60209091015263095ea7b360e01b6001600160e01b03198516145b905080613abf576139da878561203d565b613abf57613a04876001600160a01b03165f9081526003602052604090205460ff16151560011490565b613a505760405162461bcd60e51b815260206004820181905260248201527f76616c696461746543616c6c3a20746172676574206e6f7420616c6c6f776564604482015260640161157d565b613a5a878561203d565b613abf5760405162461bcd60e51b815260206004820152603060248201527f76616c696461746543616c6c3a2073656c6563746f72206e6f7420616c6c6f7760448201526f1959081bdb881d1a19481d185c99d95d60821b606482015260840161157d565b613ae6604051806080016040528060438152602001615f4d60439139805160209091012090565b6001600160e01b031916846001600160e01b03191603613b4357613b3e83838080601f0160208091040260200160405190810160405280939291908181526020018383808284375f9201919091525061228a92505050565b614706565b613b6a604051806080016040528060608152602001615f9060609139805160209091012090565b6001600160e01b031916846001600160e01b03191603613bc257613b3e83838080601f0160208091040260200160405190810160405280939291908181526020018383808284375f9201919091525061228a92505050565b613be960405180606001604052806033815260200161613560339139805160209091012090565b6001600160e01b031916846001600160e01b03191603613c4157613b3e83838080601f0160208091040260200160405190810160405280939291908181526020018383808284375f9201919091525061335c92505050565b6001600160e01b0319841663b858183f60e01b03613ce857600d5460ff16613b3e5760405162461bcd60e51b815260206004820152604e60248201527f76616c696461746543616c6c3a2053776170526f75746572303220697320637560448201527f7272656e746c7920737570706f72746564206f6e6c79207769746820616e794160648201526d1cdcd95d081dda1a5d195b1a5cdd60921b608482015260a40161157d565b6040805180820190915260128152716d756c746963616c6c2862797465735b5d2960701b602090910152630a6d35e560e31b6001600160e01b0319851601613d6857613b3e83838080601f0160208091040260200160405190810160405280939291908181526020018383808284375f9201919091525061125192505050565b60408051808201909152601981527f7472616e7366657228616464726573732c75696e7432353629000000000000006020909101526356fa634560e01b6001600160e01b0319851601613df357613b3e83838080601f0160208091040260200160405190810160405280939291908181526020018383808284375f9201919091525061171992505050565b604080518082019091526018815277617070726f766528616464726573732c75696e743235362960401b60209091015263f6a1584d60e01b6001600160e01b0319851601613e7957613b3e83838080601f0160208091040260200160405190810160405280939291908181526020018383808284375f92019190915250611ac192505050565b613ea060405180606001604052806022815260200161611360229139805160209091012090565b6001600160e01b031916846001600160e01b03191603613ef857613b3e83838080601f0160208091040260200160405190810160405280939291908181526020018383808284375f9201919091525061297192505050565b613f1f604051806060016040528060268152602001615ff060269139805160209091012090565b6001600160e01b031916846001600160e01b03191603613f7757613b3e83838080601f0160208091040260200160405190810160405280939291908181526020018383808284375f9201919091525061314892505050565b613f9e60405180606001604052806021815260200161601660219139805160209091012090565b6001600160e01b031916846001600160e01b03191603613ff657613b3e83838080601f0160208091040260200160405190810160405280939291908181526020018383808284375f92019190915250611eeb92505050565b60408051808201909152600f81526e736574746c654465706f736974282960881b60209091015263aa6137f360e01b6001600160e01b031985160161403e57613b3e87612f31565b60408051808201909152600e81526d736574746c6552656465656d282960901b602090910152635fc2aa1d60e01b6001600160e01b031985160161408557613b3e87612f31565b604080518082019091526016815275736574746c654465706f7369742875696e743235362960501b6020909101526316d9ad3b60e11b6001600160e01b03198516016140d457613b3e87612f31565b604080518082019091526015815274736574746c6552656465656d2875696e743235362960581b602090910152632cec104d60e11b6001600160e01b031985160161412257613b3e87612f31565b60408051808201909152601881527f6465706f7369742875696e743235362c61646472657373290000000000000000602090910152636e553f6560e01b6001600160e01b0319851614806141b957506040805180820190915260208082527f6465706f7369742875696e743235362c616464726573732c6164647265737329910152630b8b4a6160e21b6001600160e01b03198516145b614706576040805180820190915260208082527f6465706f7369742875696e743235362c75696e743235362c6164647265737329910152637242419360e01b6001600160e01b031985160161424657613b3e83838080601f0160208091040260200160405190810160405280939291908181526020018383808284375f920191909152506121d792505050565b61426d604051806060016040528060278152602001615eb360279139805160209091012090565b6001600160e01b031916846001600160e01b031916036142c557613b3e83838080601f0160208091040260200160405190810160405280939291908181526020018383808284375f920191909152506115ed92505050565b6142ec6040518060600160405280602181526020016160f260219139805160209091012090565b6001600160e01b031916846001600160e01b0319160361434457613b3e83838080601f0160208091040260200160405190810160405280939291908181526020018383808284375f9201919091525061242d92505050565b60408051808201909152601f81527f72656465656d2875696e743235362c616464726573732c6164647265737329006020909101526322fbc4d760e11b6001600160e01b03198516016143cf57613b3e83838080601f0160208091040260200160405190810160405280939291908181526020018383808284375f9201919091525061211c92505050565b6143f660405180606001604052806026815260200161603760269139805160209091012090565b6001600160e01b031916846001600160e01b0319160361444e57613b3e83838080601f0160208091040260200160405190810160405280939291908181526020018383808284375f9201919091525061211c92505050565b614475604051806060016040528060288152602001615f2560289139805160209091012090565b6001600160e01b031916846001600160e01b031916036144cd57613b3e83838080601f0160208091040260200160405190810160405280939291908181526020018383808284375f9201919091525061242d92505050565b6144f460405180606001604052806027815260200161605d60279139805160209091012090565b6001600160e01b03198581169116146147065761452e6040518060600160405280602481526020016160ce60249139805160209091012090565b6001600160e01b031985811691161461470657614568604051806060016040528060218152602001615eda60219139805160209091012090565b6001600160e01b031916846001600160e01b031916036145c057613b3e83838080601f0160208091040260200160405190810160405280939291908181526020018383808284375f92019190915250610a5d92505050565b6145e76040518060600160405280602a8152602001615efb602a9139805160209091012090565b6001600160e01b031916846001600160e01b0319160361463f57613b3e83838080601f0160208091040260200160405190810160405280939291908181526020018383808284375f92019190915250610a5d92505050565b6146666040518060800160405280604a8152602001616084604a9139805160209091012090565b6001600160e01b031916846001600160e01b031916036146be57613b3e83838080601f0160208091040260200160405190810160405280939291908181526020018383808284375f92019190915250610a5d92505050565b60405162461bcd60e51b815260206004820152601960248201527f556e6b6e6f776e2066756e6374696f6e2073656c6563746f7200000000000000604482015260640161157d565b5050505050505050565b600154604051635229073f60e01b81525f916060916001600160a01b0390911690635229073f9061474b908990899089908990600401615cfa565b5f604051808303815f875af1158015614766573d5f803e3d5ffd5b505050506040513d5f823e601f3d908101601f1916820160405261478d9190810190615d4e565b9150915094509492505050565b60408051606080820183528082525f6020830152918101919091526147db886001600160a01b03165f908152600c602052604090205460ff16151560011490565b61483c5760405162461bcd60e51b815260206004820152602c60248201527f73776170416e6456616c6964617465436f77537761703a20436f77205377617060448201526b081b9bdd08195b98589b195960a21b606482015260840161157d565b335f9081526006602052604090205460ff1615156001146148b85760405162461bcd60e51b815260206004820152603060248201527f73776170416e6456616c6964617465436f77537761703a2053656e646572206e60448201526f37ba1030b9b9b2ba1036b0b730b3b2b960811b606482015260840161157d565b6148c18561310b565b6149215760405162461bcd60e51b815260206004820152602b60248201527f73776170416e6456616c6964617465436f77537761703a20746f6b656e496e2060448201526a1b9bdd08185b1b1bddd95960aa1b606482015260840161157d565b61492a8461310b565b61498b5760405162461bcd60e51b815260206004820152602c60248201527f73776170416e6456616c6964617465436f77537761703a20746f6b656e4f757460448201526b081b9bdd08185b1b1bddd95960a21b606482015260840161157d565b6149b1876001600160a01b03165f9081526007602052604090205460ff16151560011490565b614a125760405162461bcd60e51b815260206004820152602c60248201527f73776170416e6456616c6964617465436f77537761703a20726563656976657260448201526b081b9bdd08185b1b1bddd95960a21b606482015260840161157d565b5f614a21878988888888614d03565b9050614a2e898983614e51565b9998505050505050505050565b7f9016d09d72d40fdae2fd8ceac6b6234c7706214fd39c1cd1e609a0528c19930080546001600160a01b031981166001600160a01b03848116918217845560405192169182907f8be0079c531659141344cd1fd0a4f28419497f9722a3daafe3b4186f6b6457e0905f90a3505050565b60408051808201909152601981527f7472616e7366657228616464726573732c75696e743235362900000000000000602090910152614b0a837fa9059cbb2ab09eb219583f4a59a5d0623ade346d962bcd4e46b11da047c9049b61194a565b604080518082019091526018815277617070726f766528616464726573732c75696e743235362960401b602090910152612032837f095ea7b334ae44009aa867bfb386f5c3b4b443ac6f0ee573fa91c4608fbadfba61194a565b5f81614b71816014615a95565b1015614bbf5760405162461bcd60e51b815260206004820152601260248201527f746f416464726573735f6f766572666c6f770000000000000000000000000000604482015260640161157d565b614bca826014615a95565b83511015614c1a5760405162461bcd60e51b815260206004820152601560248201527f746f416464726573735f6f75744f66426f756e64730000000000000000000000604482015260640161157d565b5001602001516c01000000000000000000000000900490565b614c3b615023565b610a5d8161506c565b5f81614c51816003615a95565b1015614c9f5760405162461bcd60e51b815260206004820152601160248201527f746f55696e7432345f6f766572666c6f77000000000000000000000000000000604482015260640161157d565b614caa826003615a95565b83511015614cfa5760405162461bcd60e51b815260206004820152601460248201527f746f55696e7432345f6f75744f66426f756e6473000000000000000000000000604482015260640161157d565b50016003015190565b60408051610180810182525f80825260208201819052918101829052606081018290526080810182905260a0810182905260c0810182905260e08101829052610100810182905261012081018290526101408101829052610160810191909152604051806101800160405280866001600160a01b03168152602001856001600160a01b03168152602001876001600160a01b031681526020018481526020018381526020016104b042614db69190615a95565b63ffffffff1681526020018881526020015f81526020017ff3b277728b3fee749481eb3e0b3b48980dbbab78658fc419025cb16eee34677581526020015f151581526020017f5a28e9363bb942b639270062aa6bb295f434bcdfc42c97267bf003f272060dc981526020017f5a28e9363bb942b639270062aa6bb295f434bcdfc42c97267bf003f272060dc981525090509695505050505050565b60408051606080820183528082525f6020830152918101919091525f8490505f614f2684836001600160a01b031663f698da256040518163ffffffff1660e01b8152600401602060405180830381865afa158015614eb1573d5f803e3d5ffd5b505050506040513d601f19601f82011682018060405250810190614ed59190615d85565b601f1990910180517fd5a25ba2e97094ad7d83dc28a6572da797d6b3e7fc6663bd93efb789fc17e48982526101a08220915260405161190160f01b8152600281019290925260228201526042902090565b604080516038808252606082019092529192505f9190602082018180368337019050509050614f5b8183888860a00151615074565b427f2c222fa91d81130fe56ee74391b3b6a113851c1f9cd5bc5853108490ccafc78282878860a0015189608001518a60600151604051614f9f959493929190615d9c565b60405180910390a26040518060600160405280828152602001886001600160a01b0316815260200163ec6cb13f60e01b836001604051602401614fe3929190615e8f565b60408051601f198184030181529190526020810180516001600160e01b03166001600160e01b031990931692909217909152905293505050509392505050565b7ff0c57e16840df040f15088dc2f81fe391c3923bec73e23a9662efc9c229c6a0054600160401b900460ff1661208557604051631afcd79f60e31b815260040160405180910390fd5b6134ed615023565b60388451146150c55760405162461bcd60e51b815260206004820152601960248201527f475076323a2075696420627566666572206f766572666c6f7700000000000000604482015260640161157d565b60388401526034830152602090910152565b6001600160a01b0381168114610a5d575f80fd5b5f8083601f8401126150fb575f80fd5b5081356001600160401b03811115615111575f80fd5b602083019150836020828501011115615128575f80fd5b9250929050565b5f805f60408486031215615141575f80fd5b833561514c816150d7565b925060208401356001600160401b03811115615166575f80fd5b615172868287016150eb565b9497909650939450505050565b634e487b7160e01b5f52604160045260245ffd5b604051601f8201601f191681016001600160401b03811182821017156151bb576151bb61517f565b604052919050565b5f6001600160401b038211156151db576151db61517f565b50601f01601f191660200190565b5f82601f8301126151f8575f80fd5b813561520b615206826151c3565b615193565b81815284602083860101111561521f575f80fd5b816020850160208301375f918101602001919091529392505050565b5f6020828403121561524b575f80fd5b81356001600160401b03811115615260575f80fd5b61526c848285016151e9565b949350505050565b5f60208284031215615284575f80fd5b813561528f816150d7565b9392505050565b5f805f80606085870312156152a9575f80fd5b84356152b4816150d7565b935060208501356152c4816150d7565b925060408501356001600160401b038111156152de575f80fd5b6152ea878288016150eb565b95989497509550505050565b5f8060408385031215615307575f80fd5b8235615312816150d7565b915060208301356001600160401b0381111561532c575f80fd5b615338858286016151e9565b9150509250929050565b5f805f8060608587031215615355575f80fd5b8435615360816150d7565b935060208501356001600160401b0381111561537a575f80fd5b615386878288016150eb565b9598909750949560400135949350505050565b5f805f805f805f60e0888a0312156153af575f80fd5b87356153ba816150d7565b965060208801356153ca816150d7565b95506040880135945060608801356153e1816150d7565b935060808801356153f1816150d7565b9699959850939692959460a0840135945060c09093013592915050565b80356001600160e01b031981168114615425575f80fd5b919050565b5f805f806060858703121561543d575f80fd5b8435615448816150d7565b93506152c46020860161540e565b5f8060408385031215615467575f80fd5b8235615472816150d7565b91506154806020840161540e565b90509250929050565b5f81518084528060208401602086015e5f602082860101526020601f19601f83011685010191505092915050565b602081525f61528f6020830184615489565b5f80602083850312156154da575f80fd5b82356001600160401b038111156154ef575f80fd5b8301601f810185136154ff575f80fd5b80356001600160401b03811115615514575f80fd5b8560208260051b8401011115615528575f80fd5b6020919091019590945092505050565b5f602082016020835280845180835260408501915060408160051b8601019250602086015f5b8281101561558f57603f1987860301845261557a858351615489565b9450602093840193919091019060010161555e565b50929695505050505050565b8015158114610a5d575f80fd5b5f805f604084860312156155ba575f80fd5b833561514c8161559b565b81835281816020850137505f828201602090810191909152601f909101601f19169091010190565b6001600160a01b0384168152604060208201525f61560f6040830184866155c5565b95945050505050565b5f6001600160401b038211156156305761563061517f565b5060051b60200190565b5f615647615206846151c3565b905082815283838301111561565a575f80fd5b8282602083015e5f602084830101529392505050565b5f82601f83011261567f575f80fd5b61528f8383516020850161563a565b5f6020828403121561569e575f80fd5b81516001600160401b038111156156b3575f80fd5b8201601f810184136156c3575f80fd5b80516156d161520682615618565b8082825260208201915060208360051b8501019250868311156156f2575f80fd5b602084015b838110156157325780516001600160401b03811115615714575f80fd5b61572389602083890101615670565b845250602092830192016156f7565b509695505050505050565b634e487b7160e01b5f52603260045260245ffd5b805160208201516001600160e01b0319811691906004821015615788576001600160e01b0319600483900360031b81901b82161692505b5050919050565b634e487b7160e01b5f52601160045260245ffd5b8181038181111561206e5761206e61578f565b8051615425816150d7565b5f805f80608085870312156157d4575f80fd5b84516020860151604087015191955093506157ee816150d7565b60608601519092506157ff816150d7565b939692955090935050565b5f806040838503121561581b575f80fd5b8251615826816150d7565b6020939093015192949293505050565b5f8060408385031215615847575f80fd5b825160208401519092506001600160401b03811115615864575f80fd5b61533885828601615670565b5f600182016158815761588161578f565b5060010190565b6001600160a01b038516815263ffffffff60e01b84166020820152606060408201525f6158b96060830184866155c5565b9695505050505050565b5f805f606084860312156158d5575f80fd5b83516158e0816150d7565b6020850151604086015191945092506158f8816150d7565b809150509250925092565b5f805f60608486031215615915575f80fd5b83516020850151604086015191945092506001600160401b03811115615939575f80fd5b61594586828701615670565b9150509250925092565b5f805f60608486031215615961575f80fd5b83516020850151909350615974816150d7565b60408501519092506158f8816150d7565b5f805f60608486031215615997575f80fd5b83516020850151604086015191945092506158f8816150d7565b5f805f805f60a086880312156159c5575f80fd5b85516020870151604088015191965094506001600160401b038111156159e9575f80fd5b8601601f810188136159f9575f80fd5b8051615a0761520682615618565b8082825260208201915060208360051b85010192508a831115615a28575f80fd5b6020840193505b82841015615a53578351615a42816150d7565b825260209384019390910190615a2f565b9550615a6592505050606087016157b6565b60809690960151949793965091949392915050565b5f60208284031215615a8a575f80fd5b815161528f816150d7565b8082018082111561206e5761206e61578f565b5f8060408385031215615ab9575f80fd5b8251615ac4816150d7565b6020840151909250615ad5816150d7565b809150509250929050565b5f808335601e19843603018112615af5575f80fd5b8301803591506001600160401b03821115615b0e575f80fd5b602001915036819003821315615128575f80fd5b818382375f9101908152919050565b5f60208284031215615b41575f80fd5b81516001600160401b03811115615b56575f80fd5b8201601f81018413615b66575f80fd5b61526c8482516020840161563a565b8315158152604060208201525f61560f6040830184866155c5565b5f805f8060808587031215615ba3575f80fd5b8451615bae816150d7565b602086015160408701519195509350615bc6816150d7565b6060959095015193969295505050565b5f60a08284031215615be6575f80fd5b60405160a081016001600160401b0381118282101715615c0857615c0861517f565b806040525080915082516001600160401b03811115615c25575f80fd5b615c3185828601615670565b8252506020830151615c42816150d7565b60208201526040838101519082015260608084015190820152608092830151920191909152919050565b5f60208284031215615c7c575f80fd5b81516001600160401b03811115615c91575f80fd5b61526c84828501615bd6565b5f8085851115615cab575f80fd5b83861115615cb7575f80fd5b5050820193919092039150565b80356001600160e01b03198116906004841015612f2a576001600160e01b031960049490940360031b84901b1690921692915050565b6001600160a01b0385168152836020820152608060408201525f615d216080830185615489565b905060028310615d3f57634e487b7160e01b5f52602160045260245ffd5b82606083015295945050505050565b5f8060408385031215615d5f575f80fd5b8251615d6a8161559b565b60208401519092506001600160401b03811115615864575f80fd5b5f60208284031215615d95575f80fd5b5051919050565b61020081525f615db0610200830188615489565b86516001600160a01b03166020840152905060208601516001600160a01b03811660408401525060408601516001600160a01b03811660608401525060608601516080830152608086015160a083015260a0860151615e1760c084018263ffffffff169052565b5060c086015160e083015260e0860151610100830152610100860151610120830152610120860151615e4e61014084018215159052565b50610140860151610160830152610160860151610180830152615e7a6101a083018663ffffffff169052565b6101c08201939093526101e001529392505050565b604081525f615ea16040830185615489565b90508215156020830152939250505056fe72656465656d2875696e743235362c75696e743235362c616464726573732c616464726573732964656c65676174655369676e65722828627974657333322c6164647265737329296465706f7369742828627974657333322c627974657333322c627974657333322c75696e7431323829297265717565737457697468647261772875696e743235362c616464726573732c6164647265737329737761704578616374546f6b656e73466f72546f6b656e732875696e743235362c75696e743235362c616464726573735b5d2c616464726573732c75696e7432353629737761704578616374546f6b656e73466f72546f6b656e73537570706f7274696e674665654f6e5472616e73666572546f6b656e732875696e743235362c75696e743235362c616464726573735b5d2c616464726573732c75696e7432353629737570706c7928616464726573732c75696e743235362c616464726573732c75696e74313629776974686472617728616464726573732c75696e743235362c61646472657373297265717565737452656465656d2875696e743235362c616464726573732c6164647265737329726571756573744465706f7369742875696e743235362c616464726573732c616464726573732977697468647261772828627974657333322c627974657333322c627974657333322c75696e743132382c75696e743132382c616464726573732c616464726573732c75696e74363429296d616b655769746864726177526571756573742875696e743235362c616464726573732977697468647261772875696e743235362c616464726573732c6164647265737329617070726f766544656c65676174696f6e28616464726573732c75696e74323536296578616374496e707574282862797465732c616464726573732c75696e743235362c75696e743235362c75696e743235362929666c6173685377617045786163744f75742875696e743235362c75696e743235362c627974657329666c617368537761704578616374496e2875696e743235362c75696e743235362c62797465732965786163744f7574707574282862797465732c616464726573732c75696e743235362c75696e743235362c75696e743235362929a2646970667358221220bb43cfc6bd79ff38e37d7f6f3eb1bfd9c3f62f9344fdb61b584cf5fba39b272c64736f6c634300081a0033","linkReferences":{}},"methodIdentifiers":{"_SIGN_COOLDOWN()":"3ffb788e","allowApprovalDestination(address,string)":"98b3cc39","allowAsset(address,string)":"86b6dbe5","allowCallSite(address,bytes4,string)":"5e4ccace","allowDelegationApprovalDestination(address,string)":"63cc17f2","allowReceiver(address,string)":"72e548a9","allowSender(address,string)":"fa2c59c8","allowWithdrawDestination(address,string)":"5ace1d92","allowedApprovalDestinations(address)":"eb0de042","allowedAssets(address)":"a4c1cccb","allowedCallSites(address,bytes4)":"a847cf4d","allowedCowSwaps(address)":"47566064","allowedDelegationApprovalDestinations(address)":"4b941268","allowedLagoonVaults(address)":"8fb4dff2","allowedReceivers(address)":"3cf20025","allowedSenders(address)":"fadbcf48","allowedTargets(address)":"b8fe8d5f","allowedWithdrawDestinations(address)":"07ef00cf","anyAsset()":"87301608","avatar()":"5aef7de6","callSiteCount()":"a9fc3d4f","getGovernanceAddress()":"73252494","getInternalVersion()":"fdedfa27","getTradingStrategyModuleVersion()":"9e4a83cf","isAllowedApprovalDestination(address)":"1d49039c","isAllowedAsset(address)":"c537bed0","isAllowedCallSite(address,bytes4)":"713ebf3b","isAllowedCowSwap(address)":"333f22e8","isAllowedDelegationApprovalDestination(address)":"2dc32a61","isAllowedLagoonVault(address)":"6fd7fdef","isAllowedReceiver(address)":"d075f9bb","isAllowedSender(address)":"be8c97b0","isAllowedTarget(address)":"78addb48","isAllowedWithdrawDestination(address)":"efb47bff","multicall(bytes[])":"ac9650d8","owner()":"8da5cb5b","performCall(address,bytes)":"d2f73e3d","performCall(address,bytes,uint256)":"486295dc","removeApprovalDestination(address,string)":"04a3ba25","removeAsset(address,string)":"f901dc33","removeCallSite(address,bytes4,string)":"d7334c9d","removeDelegationApprovalDestination(address,string)":"f259a073","removeReceiver(address,string)":"2d12d788","removeSender(address,string)":"a67e1f54","removeWithdrawDestination(address,string)":"8c2fdf9e","renounceOwnership()":"715018a6","setAnyAssetAllowed(bool,string)":"c2e657ae","setAvatar(address)":"086cfca8","setTarget(address)":"776d1a01","setUp(bytes)":"a4f9edbf","swapAndValidateCowSwap(address,address,bytes32,address,address,uint256,uint256)":"4acf884d","target()":"d4b83992","transferOwnership(address)":"f2fde38b","validate1deltaPath(bytes)":"a1b6b430","validateCall(address,address,bytes)":"6d5025f1","validateUniswapV3Path(bytes)":"1c123e77","validate_1deltaDeposit(bytes)":"c4cc9dba","validate_1deltaMulticall(bytes)":"07ac3562","validate_1deltaWithdraw(bytes)":"f76081e4","validate_ERC4626Deposit(address,bytes)":"2c02cda0","validate_ERC4626Redeem(bytes)":"742bfc7e","validate_ERC4626Withdraw(bytes)":"78065086","validate_UmamiDeposit(bytes)":"74fb77fe","validate_UmamiRedeem(bytes)":"0c260a7b","validate_aaveSupply(bytes)":"d4c0fe45","validate_aaveWithdraw(bytes)":"6a6d5cc8","validate_approve(bytes)":"4b956bd8","validate_approveDelegation(bytes)":"957dc6c0","validate_cowSwapSettlement(bytes)":"adcfa55b","validate_exactInput(bytes)":"ebe26816","validate_exactOutput(bytes)":"e98539c5","validate_flashSwapAllOut(bytes)":"425f49d0","validate_flashSwapExactInt(bytes)":"ca963c50","validate_flashSwapExactOut(bytes)":"6ad11353","validate_lagoonSettle(address)":"b3c329cb","validate_orderlyDelegateSigner(bytes)":"d718f041","validate_orderlyDeposit(bytes)":"6d5176a6","validate_orderlyWithdraw(bytes)":"912ef02d","validate_swapExactTokensForTokens(bytes)":"761bcd9c","validate_transfer(bytes)":"1710a4f2","validate_transferERC20AllIn(bytes)":"7ea44655","validate_transferERC20In(bytes)":"59b92be9","whitelistAaveV3(address,string)":"f20e85e0","whitelistCowSwap(address,address,string)":"1047789e","whitelistERC4626(address,string)":"86a6ae15","whitelistLagoon(address,string)":"5e6afe4d","whitelistOnedelta(address,address,string)":"f26749f3","whitelistOrderly(address,string)":"db17a170","whitelistToken(address,string)":"ee5462cc","whitelistTokenForDelegation(address,string)":"6d9a1423","whitelistUniswapV2Router(address,string)":"3ea35551","whitelistUniswapV3Router(address,string)":"34ec8d7e"},"id":26}