{"abi":[{"type":"constructor","inputs":[{"name":"_owner","type":"address","internalType":"address"},{"name":"_target","type":"address","internalType":"address"}],"stateMutability":"nonpayable"},{"type":"function","name":"_SIGN_COOLDOWN","inputs":[],"outputs":[{"name":"","type":"uint256","internalType":"uint256"}],"stateMutability":"view"},{"type":"function","name":"allowApprovalDestination","inputs":[{"name":"destination","type":"address","internalType":"address"},{"name":"notes","type":"string","internalType":"string"}],"outputs":[],"stateMutability":"nonpayable"},{"type":"function","name":"allowAsset","inputs":[{"name":"asset","type":"address","internalType":"address"},{"name":"notes","type":"string","internalType":"string"}],"outputs":[],"stateMutability":"nonpayable"},{"type":"function","name":"allowCallSite","inputs":[{"name":"target","type":"address","internalType":"address"},{"name":"selector","type":"bytes4","internalType":"bytes4"},{"name":"notes","type":"string","internalType":"string"}],"outputs":[],"stateMutability":"nonpayable"},{"type":"function","name":"allowDelegationApprovalDestination","inputs":[{"name":"destination","type":"address","internalType":"address"},{"name":"notes","type":"string","internalType":"string"}],"outputs":[],"stateMutability":"nonpayable"},{"type":"function","name":"allowReceiver","inputs":[{"name":"receiver","type":"address","internalType":"address"},{"name":"notes","type":"string","internalType":"string"}],"outputs":[],"stateMutability":"nonpayable"},{"type":"function","name":"allowSender","inputs":[{"name":"sender","type":"address","internalType":"address"},{"name":"notes","type":"string","internalType":"string"}],"outputs":[],"stateMutability":"nonpayable"},{"type":"function","name":"allowWithdrawDestination","inputs":[{"name":"destination","type":"address","internalType":"address"},{"name":"notes","type":"string","internalType":"string"}],"outputs":[],"stateMutability":"nonpayable"},{"type":"function","name":"allowedApprovalDestinations","inputs":[{"name":"destination","type":"address","internalType":"address"}],"outputs":[{"name":"allowed","type":"bool","internalType":"bool"}],"stateMutability":"view"},{"type":"function","name":"allowedAssets","inputs":[{"name":"token","type":"address","internalType":"address"}],"outputs":[{"name":"allowed","type":"bool","internalType":"bool"}],"stateMutability":"view"},{"type":"function","name":"allowedCCTPDestinations","inputs":[{"name":"domain","type":"uint32","internalType":"uint32"}],"outputs":[{"name":"allowed","type":"bool","internalType":"bool"}],"stateMutability":"view"},{"type":"function","name":"allowedCCTPMessengers","inputs":[{"name":"messenger","type":"address","internalType":"address"}],"outputs":[{"name":"allowed","type":"bool","internalType":"bool"}],"stateMutability":"view"},{"type":"function","name":"allowedCallSites","inputs":[{"name":"target","type":"address","internalType":"address"},{"name":"selector","type":"bytes4","internalType":"bytes4"}],"outputs":[{"name":"allowed","type":"bool","internalType":"bool"}],"stateMutability":"view"},{"type":"function","name":"allowedCowSwaps","inputs":[{"name":"destination","type":"address","internalType":"address"}],"outputs":[{"name":"allowed","type":"bool","internalType":"bool"}],"stateMutability":"view"},{"type":"function","name":"allowedDelegationApprovalDestinations","inputs":[{"name":"destination","type":"address","internalType":"address"}],"outputs":[{"name":"allowed","type":"bool","internalType":"bool"}],"stateMutability":"view"},{"type":"function","name":"allowedGMXMarkets","inputs":[{"name":"market","type":"address","internalType":"address"}],"outputs":[{"name":"allowed","type":"bool","internalType":"bool"}],"stateMutability":"view"},{"type":"function","name":"allowedGMXRouters","inputs":[{"name":"destination","type":"address","internalType":"address"}],"outputs":[{"name":"allowed","type":"bool","internalType":"bool"}],"stateMutability":"view"},{"type":"function","name":"allowedLagoonVaults","inputs":[{"name":"destination","type":"address","internalType":"address"}],"outputs":[{"name":"allowed","type":"bool","internalType":"bool"}],"stateMutability":"view"},{"type":"function","name":"allowedReceivers","inputs":[{"name":"receiver","type":"address","internalType":"address"}],"outputs":[{"name":"allowed","type":"bool","internalType":"bool"}],"stateMutability":"view"},{"type":"function","name":"allowedSenders","inputs":[{"name":"sender","type":"address","internalType":"address"}],"outputs":[{"name":"allowed","type":"bool","internalType":"bool"}],"stateMutability":"view"},{"type":"function","name":"allowedTargets","inputs":[{"name":"target","type":"address","internalType":"address"}],"outputs":[{"name":"allowed","type":"bool","internalType":"bool"}],"stateMutability":"view"},{"type":"function","name":"allowedVeloraSwappers","inputs":[{"name":"destination","type":"address","internalType":"address"}],"outputs":[{"name":"allowed","type":"bool","internalType":"bool"}],"stateMutability":"view"},{"type":"function","name":"allowedWithdrawDestinations","inputs":[{"name":"destination","type":"address","internalType":"address"}],"outputs":[{"name":"allowed","type":"bool","internalType":"bool"}],"stateMutability":"view"},{"type":"function","name":"anyAsset","inputs":[],"outputs":[{"name":"","type":"bool","internalType":"bool"}],"stateMutability":"view"},{"type":"function","name":"avatar","inputs":[],"outputs":[{"name":"","type":"address","internalType":"address"}],"stateMutability":"view"},{"type":"function","name":"callSiteCount","inputs":[],"outputs":[{"name":"","type":"uint256","internalType":"uint256"}],"stateMutability":"view"},{"type":"function","name":"getGovernanceAddress","inputs":[],"outputs":[{"name":"","type":"address","internalType":"address"}],"stateMutability":"view"},{"type":"function","name":"getInternalVersion","inputs":[],"outputs":[{"name":"","type":"uint8","internalType":"uint8"}],"stateMutability":"pure"},{"type":"function","name":"getTradingStrategyModuleVersion","inputs":[],"outputs":[{"name":"","type":"string","internalType":"string"}],"stateMutability":"pure"},{"type":"function","name":"gmxOrderVaults","inputs":[{"name":"exchangeRouter","type":"address","internalType":"address"}],"outputs":[{"name":"orderVault","type":"address","internalType":"address"}],"stateMutability":"view"},{"type":"function","name":"isAllowedApprovalDestination","inputs":[{"name":"receiver","type":"address","internalType":"address"}],"outputs":[{"name":"","type":"bool","internalType":"bool"}],"stateMutability":"view"},{"type":"function","name":"isAllowedAsset","inputs":[{"name":"token","type":"address","internalType":"address"}],"outputs":[{"name":"","type":"bool","internalType":"bool"}],"stateMutability":"view"},{"type":"function","name":"isAllowedCCTPDestination","inputs":[{"name":"domain","type":"uint32","internalType":"uint32"}],"outputs":[{"name":"","type":"bool","internalType":"bool"}],"stateMutability":"view"},{"type":"function","name":"isAllowedCCTPMessenger","inputs":[{"name":"messenger","type":"address","internalType":"address"}],"outputs":[{"name":"","type":"bool","internalType":"bool"}],"stateMutability":"view"},{"type":"function","name":"isAllowedCallSite","inputs":[{"name":"target","type":"address","internalType":"address"},{"name":"selector","type":"bytes4","internalType":"bytes4"}],"outputs":[{"name":"","type":"bool","internalType":"bool"}],"stateMutability":"view"},{"type":"function","name":"isAllowedCowSwap","inputs":[{"name":"settlement","type":"address","internalType":"address"}],"outputs":[{"name":"","type":"bool","internalType":"bool"}],"stateMutability":"view"},{"type":"function","name":"isAllowedDelegationApprovalDestination","inputs":[{"name":"receiver","type":"address","internalType":"address"}],"outputs":[{"name":"","type":"bool","internalType":"bool"}],"stateMutability":"view"},{"type":"function","name":"isAllowedGMXMarket","inputs":[{"name":"market","type":"address","internalType":"address"}],"outputs":[{"name":"","type":"bool","internalType":"bool"}],"stateMutability":"view"},{"type":"function","name":"isAllowedGMXRouter","inputs":[{"name":"router","type":"address","internalType":"address"}],"outputs":[{"name":"","type":"bool","internalType":"bool"}],"stateMutability":"view"},{"type":"function","name":"isAllowedLagoonVault","inputs":[{"name":"vault","type":"address","internalType":"address"}],"outputs":[{"name":"","type":"bool","internalType":"bool"}],"stateMutability":"view"},{"type":"function","name":"isAllowedReceiver","inputs":[{"name":"receiver","type":"address","internalType":"address"}],"outputs":[{"name":"","type":"bool","internalType":"bool"}],"stateMutability":"view"},{"type":"function","name":"isAllowedSender","inputs":[{"name":"sender","type":"address","internalType":"address"}],"outputs":[{"name":"","type":"bool","internalType":"bool"}],"stateMutability":"view"},{"type":"function","name":"isAllowedTarget","inputs":[{"name":"target","type":"address","internalType":"address"}],"outputs":[{"name":"","type":"bool","internalType":"bool"}],"stateMutability":"view"},{"type":"function","name":"isAllowedVeloraSwapper","inputs":[{"name":"swapper","type":"address","internalType":"address"}],"outputs":[{"name":"","type":"bool","internalType":"bool"}],"stateMutability":"view"},{"type":"function","name":"isAllowedWithdrawDestination","inputs":[{"name":"receiver","type":"address","internalType":"address"}],"outputs":[{"name":"","type":"bool","internalType":"bool"}],"stateMutability":"view"},{"type":"function","name":"multicall","inputs":[{"name":"data","type":"bytes[]","internalType":"bytes[]"}],"outputs":[{"name":"results","type":"bytes[]","internalType":"bytes[]"}],"stateMutability":"payable"},{"type":"function","name":"owner","inputs":[],"outputs":[{"name":"","type":"address","internalType":"address"}],"stateMutability":"view"},{"type":"function","name":"performCall","inputs":[{"name":"target","type":"address","internalType":"address"},{"name":"callData","type":"bytes","internalType":"bytes"},{"name":"value","type":"uint256","internalType":"uint256"}],"outputs":[],"stateMutability":"nonpayable"},{"type":"function","name":"performCall","inputs":[{"name":"target","type":"address","internalType":"address"},{"name":"callData","type":"bytes","internalType":"bytes"}],"outputs":[],"stateMutability":"nonpayable"},{"type":"function","name":"removeApprovalDestination","inputs":[{"name":"destination","type":"address","internalType":"address"},{"name":"notes","type":"string","internalType":"string"}],"outputs":[],"stateMutability":"nonpayable"},{"type":"function","name":"removeAsset","inputs":[{"name":"asset","type":"address","internalType":"address"},{"name":"notes","type":"string","internalType":"string"}],"outputs":[],"stateMutability":"nonpayable"},{"type":"function","name":"removeCCTPDestination","inputs":[{"name":"domain","type":"uint32","internalType":"uint32"},{"name":"notes","type":"string","internalType":"string"}],"outputs":[],"stateMutability":"nonpayable"},{"type":"function","name":"removeCallSite","inputs":[{"name":"target","type":"address","internalType":"address"},{"name":"selector","type":"bytes4","internalType":"bytes4"},{"name":"notes","type":"string","internalType":"string"}],"outputs":[],"stateMutability":"nonpayable"},{"type":"function","name":"removeDelegationApprovalDestination","inputs":[{"name":"destination","type":"address","internalType":"address"},{"name":"notes","type":"string","internalType":"string"}],"outputs":[],"stateMutability":"nonpayable"},{"type":"function","name":"removeGMXMarket","inputs":[{"name":"market","type":"address","internalType":"address"},{"name":"notes","type":"string","internalType":"string"}],"outputs":[],"stateMutability":"nonpayable"},{"type":"function","name":"removeReceiver","inputs":[{"name":"receiver","type":"address","internalType":"address"},{"name":"notes","type":"string","internalType":"string"}],"outputs":[],"stateMutability":"nonpayable"},{"type":"function","name":"removeSender","inputs":[{"name":"sender","type":"address","internalType":"address"},{"name":"notes","type":"string","internalType":"string"}],"outputs":[],"stateMutability":"nonpayable"},{"type":"function","name":"removeWithdrawDestination","inputs":[{"name":"destination","type":"address","internalType":"address"},{"name":"notes","type":"string","internalType":"string"}],"outputs":[],"stateMutability":"nonpayable"},{"type":"function","name":"renounceOwnership","inputs":[],"outputs":[],"stateMutability":"nonpayable"},{"type":"function","name":"setAnyAssetAllowed","inputs":[{"name":"value","type":"bool","internalType":"bool"},{"name":"notes","type":"string","internalType":"string"}],"outputs":[],"stateMutability":"nonpayable"},{"type":"function","name":"setAvatar","inputs":[{"name":"_avatar","type":"address","internalType":"address"}],"outputs":[],"stateMutability":"nonpayable"},{"type":"function","name":"setTarget","inputs":[{"name":"_target","type":"address","internalType":"address"}],"outputs":[],"stateMutability":"nonpayable"},{"type":"function","name":"setUp","inputs":[{"name":"initializeParams","type":"bytes","internalType":"bytes"}],"outputs":[],"stateMutability":"nonpayable"},{"type":"function","name":"swapAndValidateCowSwap","inputs":[{"name":"settlementContract","type":"address","internalType":"address"},{"name":"receiver","type":"address","internalType":"address"},{"name":"appData","type":"bytes32","internalType":"bytes32"},{"name":"tokenIn","type":"address","internalType":"address"},{"name":"tokenOut","type":"address","internalType":"address"},{"name":"amountIn","type":"uint256","internalType":"uint256"},{"name":"minAmountOut","type":"uint256","internalType":"uint256"}],"outputs":[],"stateMutability":"nonpayable"},{"type":"function","name":"swapAndValidateVelora","inputs":[{"name":"augustusSwapper","type":"address","internalType":"address"},{"name":"tokenIn","type":"address","internalType":"address"},{"name":"tokenOut","type":"address","internalType":"address"},{"name":"amountIn","type":"uint256","internalType":"uint256"},{"name":"minAmountOut","type":"uint256","internalType":"uint256"},{"name":"augustusCalldata","type":"bytes","internalType":"bytes"}],"outputs":[],"stateMutability":"nonpayable"},{"type":"function","name":"target","inputs":[],"outputs":[{"name":"","type":"address","internalType":"address"}],"stateMutability":"view"},{"type":"function","name":"transferOwnership","inputs":[{"name":"newOwner","type":"address","internalType":"address"}],"outputs":[],"stateMutability":"nonpayable"},{"type":"function","name":"validateCall","inputs":[{"name":"sender","type":"address","internalType":"address"},{"name":"target","type":"address","internalType":"address"},{"name":"callDataWithSelector","type":"bytes","internalType":"bytes"}],"outputs":[],"stateMutability":"view"},{"type":"function","name":"validateUniswapV3Path","inputs":[{"name":"path","type":"bytes","internalType":"bytes"}],"outputs":[],"stateMutability":"view"},{"type":"function","name":"validate_ERC4626Deposit","inputs":[{"name":"target","type":"address","internalType":"address"},{"name":"callData","type":"bytes","internalType":"bytes"}],"outputs":[],"stateMutability":"view"},{"type":"function","name":"validate_ERC4626Redeem","inputs":[{"name":"callData","type":"bytes","internalType":"bytes"}],"outputs":[],"stateMutability":"view"},{"type":"function","name":"validate_ERC4626Withdraw","inputs":[{"name":"callData","type":"bytes","internalType":"bytes"}],"outputs":[],"stateMutability":"view"},{"type":"function","name":"validate_UmamiDeposit","inputs":[{"name":"callData","type":"bytes","internalType":"bytes"}],"outputs":[],"stateMutability":"view"},{"type":"function","name":"validate_UmamiRedeem","inputs":[{"name":"callData","type":"bytes","internalType":"bytes"}],"outputs":[],"stateMutability":"view"},{"type":"function","name":"validate_aaveSupply","inputs":[{"name":"callData","type":"bytes","internalType":"bytes"}],"outputs":[],"stateMutability":"view"},{"type":"function","name":"validate_aaveWithdraw","inputs":[{"name":"callData","type":"bytes","internalType":"bytes"}],"outputs":[],"stateMutability":"view"},{"type":"function","name":"validate_approve","inputs":[{"name":"callData","type":"bytes","internalType":"bytes"}],"outputs":[],"stateMutability":"view"},{"type":"function","name":"validate_approveDelegation","inputs":[{"name":"callData","type":"bytes","internalType":"bytes"}],"outputs":[],"stateMutability":"view"},{"type":"function","name":"validate_cctpDepositForBurn","inputs":[{"name":"target","type":"address","internalType":"address"},{"name":"callData","type":"bytes","internalType":"bytes"}],"outputs":[],"stateMutability":"view"},{"type":"function","name":"validate_cowSwapSettlement","inputs":[{"name":"callData","type":"bytes","internalType":"bytes"}],"outputs":[],"stateMutability":"view"},{"type":"function","name":"validate_exactInput","inputs":[{"name":"callData","type":"bytes","internalType":"bytes"}],"outputs":[],"stateMutability":"view"},{"type":"function","name":"validate_exactOutput","inputs":[{"name":"callData","type":"bytes","internalType":"bytes"}],"outputs":[],"stateMutability":"view"},{"type":"function","name":"validate_gmxMulticall","inputs":[{"name":"exchangeRouter","type":"address","internalType":"address"},{"name":"callData","type":"bytes","internalType":"bytes"}],"outputs":[],"stateMutability":"view"},{"type":"function","name":"validate_lagoonSettle","inputs":[{"name":"vault","type":"address","internalType":"address"}],"outputs":[],"stateMutability":"view"},{"type":"function","name":"validate_orderlyDelegateSigner","inputs":[{"name":"callData","type":"bytes","internalType":"bytes"}],"outputs":[],"stateMutability":"view"},{"type":"function","name":"validate_orderlyDeposit","inputs":[{"name":"callData","type":"bytes","internalType":"bytes"}],"outputs":[],"stateMutability":"view"},{"type":"function","name":"validate_orderlyWithdraw","inputs":[{"name":"callData","type":"bytes","internalType":"bytes"}],"outputs":[],"stateMutability":"view"},{"type":"function","name":"validate_swapExactTokensForTokens","inputs":[{"name":"callData","type":"bytes","internalType":"bytes"}],"outputs":[],"stateMutability":"view"},{"type":"function","name":"validate_transfer","inputs":[{"name":"callData","type":"bytes","internalType":"bytes"}],"outputs":[],"stateMutability":"view"},{"type":"function","name":"whitelistAaveV3","inputs":[{"name":"lendingPool","type":"address","internalType":"address"},{"name":"notes","type":"string","internalType":"string"}],"outputs":[],"stateMutability":"nonpayable"},{"type":"function","name":"whitelistCCTP","inputs":[{"name":"tokenMessenger","type":"address","internalType":"address"},{"name":"notes","type":"string","internalType":"string"}],"outputs":[],"stateMutability":"nonpayable"},{"type":"function","name":"whitelistCCTPDestination","inputs":[{"name":"domain","type":"uint32","internalType":"uint32"},{"name":"notes","type":"string","internalType":"string"}],"outputs":[],"stateMutability":"nonpayable"},{"type":"function","name":"whitelistCowSwap","inputs":[{"name":"settlementContract","type":"address","internalType":"address"},{"name":"relayerContract","type":"address","internalType":"address"},{"name":"notes","type":"string","internalType":"string"}],"outputs":[],"stateMutability":"nonpayable"},{"type":"function","name":"whitelistERC4626","inputs":[{"name":"vault","type":"address","internalType":"address"},{"name":"notes","type":"string","internalType":"string"}],"outputs":[],"stateMutability":"nonpayable"},{"type":"function","name":"whitelistGMX","inputs":[{"name":"exchangeRouter","type":"address","internalType":"address"},{"name":"syntheticsRouter","type":"address","internalType":"address"},{"name":"orderVault","type":"address","internalType":"address"},{"name":"notes","type":"string","internalType":"string"}],"outputs":[],"stateMutability":"nonpayable"},{"type":"function","name":"whitelistGMXMarket","inputs":[{"name":"market","type":"address","internalType":"address"},{"name":"notes","type":"string","internalType":"string"}],"outputs":[],"stateMutability":"nonpayable"},{"type":"function","name":"whitelistLagoon","inputs":[{"name":"vault","type":"address","internalType":"address"},{"name":"notes","type":"string","internalType":"string"}],"outputs":[],"stateMutability":"nonpayable"},{"type":"function","name":"whitelistOrderly","inputs":[{"name":"orderlyVault","type":"address","internalType":"address"},{"name":"notes","type":"string","internalType":"string"}],"outputs":[],"stateMutability":"nonpayable"},{"type":"function","name":"whitelistToken","inputs":[{"name":"token","type":"address","internalType":"address"},{"name":"notes","type":"string","internalType":"string"}],"outputs":[],"stateMutability":"nonpayable"},{"type":"function","name":"whitelistTokenForDelegation","inputs":[{"name":"token","type":"address","internalType":"address"},{"name":"notes","type":"string","internalType":"string"}],"outputs":[],"stateMutability":"nonpayable"},{"type":"function","name":"whitelistUniswapV2Router","inputs":[{"name":"router","type":"address","internalType":"address"},{"name":"notes","type":"string","internalType":"string"}],"outputs":[],"stateMutability":"nonpayable"},{"type":"function","name":"whitelistUniswapV3Router","inputs":[{"name":"router","type":"address","internalType":"address"},{"name":"notes","type":"string","internalType":"string"}],"outputs":[],"stateMutability":"nonpayable"},{"type":"function","name":"whitelistVelora","inputs":[{"name":"augustusSwapper","type":"address","internalType":"address"},{"name":"tokenTransferProxy","type":"address","internalType":"address"},{"name":"notes","type":"string","internalType":"string"}],"outputs":[],"stateMutability":"nonpayable"},{"type":"event","name":"AnyAssetSet","inputs":[{"name":"value","type":"bool","indexed":false,"internalType":"bool"},{"name":"notes","type":"string","indexed":false,"internalType":"string"}],"anonymous":false},{"type":"event","name":"AnyVaultSet","inputs":[{"name":"value","type":"bool","indexed":false,"internalType":"bool"},{"name":"notes","type":"string","indexed":false,"internalType":"string"}],"anonymous":false},{"type":"event","name":"ApprovalDestinationApproved","inputs":[{"name":"destination","type":"address","indexed":false,"internalType":"address"},{"name":"notes","type":"string","indexed":false,"internalType":"string"}],"anonymous":false},{"type":"event","name":"ApprovalDestinationRemoved","inputs":[{"name":"destination","type":"address","indexed":false,"internalType":"address"},{"name":"notes","type":"string","indexed":false,"internalType":"string"}],"anonymous":false},{"type":"event","name":"AssetApproved","inputs":[{"name":"asset","type":"address","indexed":false,"internalType":"address"},{"name":"notes","type":"string","indexed":false,"internalType":"string"}],"anonymous":false},{"type":"event","name":"AssetRemoved","inputs":[{"name":"asset","type":"address","indexed":false,"internalType":"address"},{"name":"notes","type":"string","indexed":false,"internalType":"string"}],"anonymous":false},{"type":"event","name":"AvatarSet","inputs":[{"name":"previousAvatar","type":"address","indexed":true,"internalType":"address"},{"name":"newAvatar","type":"address","indexed":true,"internalType":"address"}],"anonymous":false},{"type":"event","name":"CCTPDestinationApproved","inputs":[{"name":"domain","type":"uint32","indexed":false,"internalType":"uint32"},{"name":"notes","type":"string","indexed":false,"internalType":"string"}],"anonymous":false},{"type":"event","name":"CCTPDestinationRemoved","inputs":[{"name":"domain","type":"uint32","indexed":false,"internalType":"uint32"},{"name":"notes","type":"string","indexed":false,"internalType":"string"}],"anonymous":false},{"type":"event","name":"CCTPMessengerApproved","inputs":[{"name":"tokenMessenger","type":"address","indexed":false,"internalType":"address"},{"name":"notes","type":"string","indexed":false,"internalType":"string"}],"anonymous":false},{"type":"event","name":"CallSiteApproved","inputs":[{"name":"target","type":"address","indexed":false,"internalType":"address"},{"name":"selector","type":"bytes4","indexed":false,"internalType":"bytes4"},{"name":"notes","type":"string","indexed":false,"internalType":"string"}],"anonymous":false},{"type":"event","name":"CallSiteRemoved","inputs":[{"name":"target","type":"address","indexed":false,"internalType":"address"},{"name":"selector","type":"bytes4","indexed":false,"internalType":"bytes4"},{"name":"notes","type":"string","indexed":false,"internalType":"string"}],"anonymous":false},{"type":"event","name":"CowSwapApproved","inputs":[{"name":"settlementContract","type":"address","indexed":false,"internalType":"address"},{"name":"notes","type":"string","indexed":false,"internalType":"string"}],"anonymous":false},{"type":"event","name":"DelegationApprovalDestinationApproved","inputs":[{"name":"destination","type":"address","indexed":false,"internalType":"address"},{"name":"notes","type":"string","indexed":false,"internalType":"string"}],"anonymous":false},{"type":"event","name":"DelegationApprovalDestinationRemoved","inputs":[{"name":"destination","type":"address","indexed":false,"internalType":"address"},{"name":"notes","type":"string","indexed":false,"internalType":"string"}],"anonymous":false},{"type":"event","name":"ERC4626Approved","inputs":[{"name":"vault","type":"address","indexed":false,"internalType":"address"},{"name":"notes","type":"string","indexed":false,"internalType":"string"}],"anonymous":false},{"type":"event","name":"GMXMarketApproved","inputs":[{"name":"market","type":"address","indexed":false,"internalType":"address"},{"name":"notes","type":"string","indexed":false,"internalType":"string"}],"anonymous":false},{"type":"event","name":"GMXMarketRemoved","inputs":[{"name":"market","type":"address","indexed":false,"internalType":"address"},{"name":"notes","type":"string","indexed":false,"internalType":"string"}],"anonymous":false},{"type":"event","name":"GMXRouterApproved","inputs":[{"name":"exchangeRouter","type":"address","indexed":false,"internalType":"address"},{"name":"syntheticsRouter","type":"address","indexed":false,"internalType":"address"},{"name":"notes","type":"string","indexed":false,"internalType":"string"}],"anonymous":false},{"type":"event","name":"Initialized","inputs":[{"name":"version","type":"uint64","indexed":false,"internalType":"uint64"}],"anonymous":false},{"type":"event","name":"LagoonVaultApproved","inputs":[{"name":"vault","type":"address","indexed":false,"internalType":"address"},{"name":"notes","type":"string","indexed":false,"internalType":"string"}],"anonymous":false},{"type":"event","name":"OrderSigned","inputs":[{"name":"timestamp","type":"uint256","indexed":true,"internalType":"uint256"},{"name":"orderUid","type":"bytes","indexed":false,"internalType":"bytes"},{"name":"order","type":"tuple","indexed":false,"internalType":"struct GPv2Order.Data","components":[{"name":"sellToken","type":"address","internalType":"contract IERC20"},{"name":"buyToken","type":"address","internalType":"contract IERC20"},{"name":"receiver","type":"address","internalType":"address"},{"name":"sellAmount","type":"uint256","internalType":"uint256"},{"name":"buyAmount","type":"uint256","internalType":"uint256"},{"name":"validTo","type":"uint32","internalType":"uint32"},{"name":"appData","type":"bytes32","internalType":"bytes32"},{"name":"feeAmount","type":"uint256","internalType":"uint256"},{"name":"kind","type":"bytes32","internalType":"bytes32"},{"name":"partiallyFillable","type":"bool","internalType":"bool"},{"name":"sellTokenBalance","type":"bytes32","internalType":"bytes32"},{"name":"buyTokenBalance","type":"bytes32","internalType":"bytes32"}]},{"name":"validTo","type":"uint32","indexed":false,"internalType":"uint32"},{"name":"buyAmount","type":"uint256","indexed":false,"internalType":"uint256"},{"name":"sellAmount","type":"uint256","indexed":false,"internalType":"uint256"}],"anonymous":false},{"type":"event","name":"OwnershipTransferred","inputs":[{"name":"previousOwner","type":"address","indexed":true,"internalType":"address"},{"name":"newOwner","type":"address","indexed":true,"internalType":"address"}],"anonymous":false},{"type":"event","name":"ReceiverApproved","inputs":[{"name":"receiver","type":"address","indexed":false,"internalType":"address"},{"name":"notes","type":"string","indexed":false,"internalType":"string"}],"anonymous":false},{"type":"event","name":"ReceiverRemoved","inputs":[{"name":"receiver","type":"address","indexed":false,"internalType":"address"},{"name":"notes","type":"string","indexed":false,"internalType":"string"}],"anonymous":false},{"type":"event","name":"SenderApproved","inputs":[{"name":"sender","type":"address","indexed":false,"internalType":"address"},{"name":"notes","type":"string","indexed":false,"internalType":"string"}],"anonymous":false},{"type":"event","name":"SenderRemoved","inputs":[{"name":"sender","type":"address","indexed":false,"internalType":"address"},{"name":"notes","type":"string","indexed":false,"internalType":"string"}],"anonymous":false},{"type":"event","name":"TargetSet","inputs":[{"name":"previousTarget","type":"address","indexed":true,"internalType":"address"},{"name":"newTarget","type":"address","indexed":true,"internalType":"address"}],"anonymous":false},{"type":"event","name":"VeloraSwapExecuted","inputs":[{"name":"timestamp","type":"uint256","indexed":true,"internalType":"uint256"},{"name":"augustusSwapper","type":"address","indexed":true,"internalType":"address"},{"name":"tokenIn","type":"address","indexed":false,"internalType":"address"},{"name":"tokenOut","type":"address","indexed":false,"internalType":"address"},{"name":"amountIn","type":"uint256","indexed":false,"internalType":"uint256"},{"name":"amountOut","type":"uint256","indexed":false,"internalType":"uint256"},{"name":"minAmountOut","type":"uint256","indexed":false,"internalType":"uint256"}],"anonymous":false},{"type":"event","name":"VeloraSwapperApproved","inputs":[{"name":"augustusSwapper","type":"address","indexed":false,"internalType":"address"},{"name":"notes","type":"string","indexed":false,"internalType":"string"}],"anonymous":false},{"type":"event","name":"WithdrawDestinationApproved","inputs":[{"name":"destination","type":"address","indexed":false,"internalType":"address"},{"name":"notes","type":"string","indexed":false,"internalType":"string"}],"anonymous":false},{"type":"event","name":"WithdrawDestinationRemoved","inputs":[{"name":"destination","type":"address","indexed":false,"internalType":"address"},{"name":"notes","type":"string","indexed":false,"internalType":"string"}],"anonymous":false},{"type":"error","name":"InvalidInitialization","inputs":[]},{"type":"error","name":"NotInitializing","inputs":[]},{"type":"error","name":"OwnableInvalidOwner","inputs":[{"name":"owner","type":"address","internalType":"address"}]},{"type":"error","name":"OwnableUnauthorizedAccount","inputs":[{"name":"account","type":"address","internalType":"address"}]}],"bytecode":{"object":"0x60808060405234610232576040816162cc803803809161001f828561028a565b8339810103126102325761003e6020610037836102c1565b92016102c1565b604080516001600160a01b03938416602082019081529290931683820190815290835261006c60608461028a565b5f805160206162ac83398151915254604081901c60ff1615936001600160401b03821680159081610282575b6001149081610278575b15908161026f575b50610260576001600160401b031982166001175f805160206162ac8339815191525560409185610236575b506100de610359565b6100e6610359565b6100ef336102d5565b805181010312610232576101056101c4926102c1565b906001600160a01b0390610118906102c1565b16610121610384565b5f80546001600160a01b031981168317825582916001600160a01b03909116907f52ae88b092de36f87fb43fe794eb1381023b9c1bce563a871154022c63dce3429080a361016d610384565b600180546001600160a01b0319811683179091556001600160a01b03167f90cc2f570a6eb594b1580ea3e41247d2d73a55281889e86bd4ec2fc29c7e62d65f80a36101b6610384565b6001600160a01b03166102d5565b6101d8575b604051615ee190816103cb8239f35b68ff0000000000000000195f805160206162ac83398151915254165f805160206162ac833981519152557fc7f505b2f371ae2175ee4913f4499e1f2633a7b5936321eed1cdaeb6115181d2602060405160018152a16101c9565b5f80fd5b6001600160481b03191668010000000000000001175f805160206162ac833981519152555f6100d5565b63f92ee8a960e01b5f5260045ffd5b9050155f6100aa565b303b1591506100a2565b869150610098565b601f909101601f19168101906001600160401b038211908210176102ad57604052565b634e487b7160e01b5f52604160045260245ffd5b51906001600160a01b038216820361023257565b6001600160a01b03168015610346577f9016d09d72d40fdae2fd8ceac6b6234c7706214fd39c1cd1e609a0528c19930080546001600160a01b0319811683179091556001600160a01b03167f8be0079c531659141344cd1fd0a4f28419497f9722a3daafe3b4186f6b6457e05f80a3565b631e4fbdf760e01b5f525f60045260245ffd5b60ff5f805160206162ac8339815191525460401c161561037557565b631afcd79f60e31b5f5260045ffd5b7f9016d09d72d40fdae2fd8ceac6b6234c7706214fd39c1cd1e609a0528c199300546001600160a01b031633036103b757565b63118cdaa760e01b5f523360045260245ffdfe60806040526004361015610011575f80fd5b5f3560e01c80630411fb8e1461062a57806304a3ba251461062f578063076053421461062a57806307ef00cf146104b3578063086cfca8146106255780630985b046146106205780630c260a7b1461061b5780631047789e146106165780631561149f146106115780631710a4f21461060c5780631c123e77146106075780631d49039c146104c75780632c02cda0146106025780632d12d788146105fd5780632dc32a61146105d05780632e31e9c6146105f8578063333f22e8146105df57806334ec8d7e146105f35780633cf20025146105ee5780633ea35551146105e95780633ffb788e146105e457806347566064146105df578063486295dc146105da5780634acf884d146105d55780634b941268146105d05780634b956bd8146105cb5780634c03f1f8146104fe5780634d3d31ca146105c65780634efbad39146105c15780635ace1d92146105bc5780635aef7de6146105b75780635e4ccace146105b25780635e6afe4d146105ad57806362d6775e146105a857806363cc17f2146105a35780636a6d5cc81461059e5780636bf9e331146105995780636d5025f1146105945780636d5176a6146104e55780636d9a14231461058f5780636fd7fdef14610553578063713ebf3b14610530578063715018a61461058a57806372e548a9146105855780637325249414610558578063742bfc7e1461051c578063748fca461461057157806374fb77fe14610580578063761bcd9c1461057b578063776d1a0114610576578063780650861461051c57806378addb48146105125780637cac69c31461057157806386a6ae151461056c57806386b6dbe51461056757806387301608146105625780638c2fdf9e1461055d5780638da5cb5b146105585780638fb4dff214610553578063912ef02d146104e5578063957dc6c01461054e57806398b3cc39146105495780639e4a83cf14610544578063a4c1cccb1461053f578063a4f9edbf1461053a578063a67e1f5414610535578063a847cf4d14610530578063a86ddc571461052b578063a9fc3d4f14610526578063ac9650d814610521578063adcfa55b1461051c578063b3c329cb14610517578063b45ea48b1461049f578063b8fe8d5f14610512578063ba44ad411461050d578063be8c97b01461048b578063c2e657ae14610508578063c537bed014610503578063cbdb1dcf146104fe578063d075f9bb146104f9578063d2f73e3d146104f4578063d4b83992146104ef578063d4c0fe45146104ea578063d718f041146104e5578063d7334c9d146104e0578063d7581509146104db578063db17a170146104d6578063e6f32c51146104d1578063e98539c5146104cc578063eb0de042146104c7578063ebe26816146104c2578063ec011440146104bd578063ee5462cc146104b8578063efb47bff146104b3578063f20e85e0146104ae578063f259a073146104a9578063f2fde38b146104a4578063f84756aa1461049f578063f901dc331461049a578063f9cf8ae514610495578063fa2c59c814610490578063fadbcf481461048b5763fdedfa2714610486575f80fd5b61299b565b612161565b612930565b6127d4565b61276c565b612082565b61273f565b6126d7565b612639565b6107dc565b612622565b612539565b612523565b610b94565b6124da565b612474565b6123cb565b612360565b6122f1565b61165c565b6122db565b6122b3565b612290565b612269565b611091565b612242565b6121ab565b6120fe565b611983565b61205d565b611889565b611f5e565b611ee2565b611e9f565b611742565b611e21565b611cfa565b611cba565b611c6e565b611be1565b611bcb565b611702565b611855565b611b63565b611b41565b611ae9565b6119c3565b6118c3565b611929565b611913565b6118fd565b6117ea565b611796565b61166a565b611642565b61162b565b611615565b6115bd565b611468565b61136d565b6112e5565b61125b565b6111f0565b611139565b6110d1565b61107b565b610c77565b610f47565b610ed5565b610ce8565b610eb9565b610e1b565b610ddb565b610d28565b610cb7565b610c0f565b610bd4565b610b7e565b610b68565b610b51565b610a5c565b610a00565b610874565b61081c565b610649565b6106f2565b6001600160a01b0381160361064557565b5f80fd5b346106455760203660031901126106455760043561066681610634565b60018060a01b03165f526011602052602060ff60405f2054166040519015158152f35b9181601f84011215610645578235916001600160401b038311610645576020838186019501011161064557565b906040600319830112610645576004356106cf81610634565b91602435906001600160401b038211610645576106ee91600401610689565b9091565b34610645577fb71be9befd3ac90c1c9981d3b1161b3c2c6dcd741f13b34061aa251226a802df61075a610724366106b6565b61072f9391936145d3565b6001600160a01b0383165f9081526009602052604090819020805460ff1916905551938493846129d6565b0390a1005b6001600160a01b03165f90815260066020526040902090565b6001600160a01b03165f90815260076020526040902090565b6001600160a01b03165f908152600f6020526040902090565b6001600160a01b03165f908152600e6020526040902090565b6001600160a01b03165f90815260026020526040902090565b34610645576020366003190112610645576004356107f981610634565b60018060a01b03165f526008602052602060ff60405f2054166040519015158152f35b346106455760203660031901126106455760043561083981610634565b6108416145d3565b5f80546001600160a01b039283166001600160a01b03198216811783559216905f80516020615dac8339815191529080a3005b346106455760203660031901126106455760043561089181610634565b60018060a01b03165f526010602052602060ff60405f2054166040519015158152f35b634e487b7160e01b5f52604160045260245ffd5b60a081019081106001600160401b038211176108e357604052565b6108b4565b61010081019081106001600160401b038211176108e357604052565b601f909101601f19168101906001600160401b038211908210176108e357604052565b6040519061093660e083610904565b565b6040519061093661012083610904565b6040519061093661018083610904565b60405190610936606083610904565b6001600160401b0381116108e357601f01601f191660200190565b92919261098e82610967565b9161099c6040519384610904565b829481845281830111610645578281602093845f960137010152565b9080601f83011215610645578160206109d393359101610982565b90565b602060031982011261064557600435906001600160401b038211610645576109d3916004016109b8565b3461064557610a16610a11366109d6565b612a3f565b005b606060031982011261064557600435610a3081610634565b91602435610a3d81610634565b91604435906001600160401b038211610645576106ee91600401610689565b34610645577f936b7187f49d778f82d1c17d927c8006f00eac6d2e5ccb50720dbc7afda8b4a961075a5f80516020615d8c833981519152610a9c36610a18565b91908095939491610aab6145d3565b6001600160a01b0386165f9081526009602052604090819020805460ff1916600117905551839080610adf87868b846129d6565b0390a1610aea6145d3565b60018060a01b0381165f52600960205260405f20600160ff19825416179055610b1984604051938493846129d6565b0390a16001600160a01b0383165f908152600c60205260409020610b45905b805460ff19166001179055565b604051938493846129d6565b3461064557610a16610b62366106b6565b91612bb2565b3461064557610a16610b79366109d6565b612c9e565b3461064557610a16610b8f366109d6565b612d15565b3461064557602036600319011261064557600435610bb181610634565b60018060a01b03165f526009602052602060ff60405f2054166040519015158152f35b3461064557604036600319011261064557610bf0600435610634565b6024356001600160401b03811161064557610a169036906004016109b8565b34610645577f4e13b11ab98e672bd78295ef9cebe764dc617f95decf47d842c25b83abc0c72461075a610c41366106b6565b610c4c9391936145d3565b6001600160a01b0383165f9081526007602052604090819020805460ff1916905551938493846129d6565b3461064557602036600319011261064557600435610c9481610634565b60018060a01b03165f52600a602052602060ff60405f2054166040519015158152f35b34610645576020366003190112610645576020610cde600435610cd981610634565b612daa565b6040519015158152f35b3461064557602036600319011261064557600435610d0581610634565b60018060a01b03165f52600c602052602060ff60405f2054166040519015158152f35b3461064557610a16610d39366106b6565b91610d426145d3565b6001600160a01b0381165f81815260026020908152604080832063c04b8d5960e01b84529091529020600160ff198254161790555f52600360205260405f20600160ff19825416179055610d9f610d9a60045461396d565b600455565b5f80516020615e8c83398151915260405180610dbd86868684613980565b0390a1610dcb838383612e52565b610dd6838383612ee4565b6141b0565b3461064557602036600319011261064557600435610df881610634565b60018060a01b03165f526007602052602060ff60405f2054166040519015158152f35b3461064557610a16610e2c366106b6565b91610e356145d3565b6001600160a01b0381165f8181526002602090815260408083206338ed173960e01b84529091529020600160ff198254161790555f52600360205260405f20600160ff19825416179055610e8d610d9a60045461396d565b5f80516020615e8c83398151915260405180610eab868686846139af565b0390a1610dd6838383612f71565b34610645575f3660031901126106455760206040516104b08152f35b3461064557606036600319011261064557600435610ef281610634565b602435906001600160401b03821161064557610f31610f18610f37933690600401610689565b919060443592610f2a81838733614850565b3691610982565b91614d9d565b9015610f3f57005b602081519101fd5b346106455760e036600319011261064557600435610f6481610634565b602435610f7081610634565b6044359160643591610f8183610634565b60843593610f8e85610634565b60c43560a435610f9c614de9565b506001600160a01b0385165f908152600c602052604090205460ff161561104057610f3796611026968561102095610fe5610fe0610fd93361075f565b5460ff1690565b6146de565b610ff6610ff18461443f565b614e18565b6110076110028561443f565b614e5a565b61101b611016610fd984610778565b614e9d565b615990565b91615b92565b60208101516040906001600160a01b031691015190614d14565b60405162461bcd60e51b815260206004820152601360248201527210dbddd4ddd85c081b9bdd08195b98589b1959606a1b6044820152606490fd5b3461064557610a1661108c366109d6565b612dda565b34610645576020366003190112610645576004356110ae81610634565b60018060a01b03165f52600e602052602060ff60405f2054166040519015158152f35b34610645577f1cc7e10cd1d551ab6504f6a15828923f911f4658af4cc1b82aeaab1d8a4ccc4c61075a611103366106b6565b61110e9391936145d3565b6001600160a01b0383165f9081526010602052604090819020805460ff1916905551938493846129d6565b34610645577f4528ea4d4b1ca7b25fe4843fa8f643b7bbdc91395054ca124e68c761b44f770761075a5f80516020615d8c83398151915261117936610a18565b919080959394916111886145d3565b6111906145d3565b60018060a01b0381165f52600960205260405f20600160ff198254161790556111bf84604051938493846129d6565b0390a16001600160a01b0383165f908152600d602052604090819020805460ff1916600117905551938493846129d6565b34610645577f3562181221a42a19ddd03a82dfe06acab1905ceb65cdaf7d86a1d9fec664355261075a611222366106b6565b61122d9391936145d3565b6001600160a01b0383165f9081526008602052604090819020805460ff1916600117905551938493846129d6565b34610645575f366003190112610645575f546040516001600160a01b039091168152602090f35b602435906001600160e01b03198216820361064557565b6060600319820112610645576004356112b181610634565b916024356001600160e01b0319811681036106455791604435906001600160401b038211610645576106ee91600401610689565b34610645575f80516020615e8c83398151915261075a61130436611299565b906113109492946145d3565b6001600160a01b0384165f818152600260205260409020611332908790611e89565b600160ff198254161790555f52600360205260405f20600160ff1982541617905561135e60045461396d565b60045560405194859485613b27565b34610645577ffaa136302ac223cf7c1146490a741e4520e886fc22d7e759641453f432283d0161075a61139f366106b6565b6113aa9391936145d3565b6001600160a01b0383165f818152600b60205260409020805460ff191660011790556113d46145d3565b805f5260026020526113f760405f2063559ec80d60e01b5f5260205260405f2090565b600160ff198254161790555f52600360205260405f20600160ff19825416179055611426610d9a60045461396d565b5f80516020615e8c83398151915260405180611444848888846139de565b0390a1611452818585612ffe565b61145d81858561308b565b610b45818585613118565b346106455760803660031901126106455760043561148581610634565b60243561149181610634565b6044359161149e83610634565b606435926001600160401b038411610645576115a561075a916114e67f4cd8335923e6c59235dad1eb0d9466176d7e2d5331062745aac072188386d7fe963690600401610689565b9290916114f16145d3565b6114f96145d3565b6001600160a01b0386165f818152600260209081526040808320631592ca1b60e31b84529091529020600160ff198254161790555f52600360205260405f20600160ff19825416179055611551610d9a60045461396d565b5f80516020615e8c8339815191526040518061156f87878b84613a0d565b0390a161157d8484896141b0565b61158686610791565b80546001600160a01b0319166001600160a01b03909216919091179055565b6115b1610b38856107aa565b60405194859485613b5a565b34610645575f80516020615d8c83398151915261075a6115dc366106b6565b6115e79391936145d3565b6001600160a01b0383165f908152600a602052604090819020805460ff1916600117905551938493846129d6565b3461064557610a16611626366109d6565b613b83565b3461064557610a1661163c366106b6565b91613dbd565b3461064557610a1661165336610a18565b92919091614850565b3461064557610a16366109d6565b3461064557610a1661167b366106b6565b916116846145d3565b6001600160a01b0381165f818152600260209081526040808320630c04a8a160e41b84529091529020600160ff198254161790555f52600360205260405f20600160ff198254161790556116dc610d9a60045461396d565b5f80516020615e8c833981519152604051806116fa86868684613a3c565b0390a161411c565b346106455760203660031901126106455760043561171f81610634565b60018060a01b03165f52600b602052602060ff60405f2054166040519015158152f35b3461064557604036600319011261064557602060ff61178a60043561176681610634565b61176e611282565b6001600160a01b039091165f9081526002855260409020611e89565b54166040519015158152f35b34610645575f366003190112610645576117ae6145d3565b5f80516020615dec83398151915280546001600160a01b031981169091555f906001600160a01b03165f80516020615e2c8339815191528280a3005b34610645577f62dd88c5ecfa60713a657640ebec4de26fc1aefa4afdb24e6d15a124fce7277961075a61181c366106b6565b6118279391936145d3565b6001600160a01b0383165f9081526007602052604090819020805460ff1916600117905551938493846129d6565b34610645575f366003190112610645575f80516020615dec833981519152546040516001600160a01b039091168152602090f35b3461064557610a1661189a366109d6565b613fcb565b6004359063ffffffff8216820361064557565b359063ffffffff8216820361064557565b346106455760203660031901126106455763ffffffff6118e161189f565b165f526012602052602060ff60405f2054166040519015158152f35b3461064557610a1661190e366109d6565b613fec565b3461064557610a16611924366109d6565b614078565b346106455760203660031901126106455760043561194681610634565b61194e6145d3565b600180546001600160a01b039283166001600160a01b0319821681179092559091165f80516020615e0c8339815191525f80a3005b34610645576020366003190112610645576004356119a081610634565b60018060a01b03165f526003602052602060ff60405f2054166040519015158152f35b34610645576119d1366106b6565b6040516338d52e0f60e01b815292906020846004816001600160a01b0386165afa908115611ae457610b45818561075a947fd2851df39115d63968e90113e8b3a96f13e33ac4c2e5a9caa1afeffe59e55748985f91611ab5575b50611a378383896131a5565b611a42838389613232565b611a4d8383896132bf565b611a5883838961334c565b611a638383896133d9565b611a6e838389613464565b611a798383896134f1565b611a8483838961357e565b611a8f83838961360b565b611a9a838389613698565b611aa58383896141b0565b611ab083838961564d565b61564d565b611ad7915060203d602011611add575b611acf8183610904565b8101906140fc565b5f611a2b565b503d611ac5565b614111565b34610645575f80516020615e4c83398151915261075a611b08366106b6565b611b139391936145d3565b6001600160a01b0383165f9081526005602052604090819020805460ff1916600117905551938493846129d6565b34610645575f36600319011261064557602060ff601354166040519015158152f35b34610645577f1212f8ddb39de8e1a339460c95752d61100723efeaa34ccd94bca94393f4093861075a611b95366106b6565b611ba09391936145d3565b6001600160a01b0383165f9081526008602052604090819020805460ff1916905551938493846129d6565b3461064557610a16611bdc366109d6565b614136565b34610645575f80516020615d8c83398151915261075a611c00366106b6565b611c0b9391936145d3565b6001600160a01b0383165f9081526009602052604090819020805460ff1916600117905551938493846129d6565b805180835260209291819084018484015e5f828201840152601f01601f1916010190565b9060206109d3928181520190611c39565b34610645575f36600319011261064557611cb6604051611c8f604082610904565b60068152651d8c0b8c4b8d60d21b6020820152604051918291602083526020830190611c39565b0390f35b3461064557602036600319011261064557600435611cd781610634565b60018060a01b03165f526005602052602060ff60405f2054166040519015158152f35b3461064557611d08366109d6565b5f80516020615e6c833981519152549060ff604083901c1615611d2a565b1590565b916001600160401b031680159081611e19575b6001149081611e0f575b159081611e06575b50611df7575f80516020615e6c83398151915280546001600160401b0319166001179055611d819082611dd3576141ca565b611d8757005b5f80516020615e6c833981519152805460ff60401b19169055604051600181527fc7f505b2f371ae2175ee4913f4499e1f2633a7b5936321eed1cdaeb6115181d290806020810161075a565b5f80516020615e6c833981519152805460ff60401b1916600160401b1790556141ca565b63f92ee8a960e01b5f5260045ffd5b9050155f611d4f565b303b159150611d47565b839150611d3d565b34610645577f3097928509c53a2dab9500431201d82b0d756e8f890fd01f4ae6b33b45687ea461075a611e53366106b6565b611e5e9391936145d3565b6001600160a01b0383165f9081526006602052604090819020805460ff1916905551938493846129d6565b9063ffffffff60e01b165f5260205260405f2090565b3461064557602036600319011261064557600435611ebc81610634565b60018060a01b03165f52600f602052602060018060a01b0360405f205416604051908152f35b34610645575f366003190112610645576020600454604051908152f35b602081016020825282518091526040820191602060408360051b8301019401925f915b838310611f3157505050505090565b9091929394602080611f4f600193603f198682030187528951611c39565b97019301930191939290611f22565b6020366003190112610645576004356001600160401b0381116106455736602382011215610645576004810135906001600160401b038211610645576024810190602436918460051b01011161064557611fb782614296565b915f5b818110611fcf5760405180611cb68682611eff565b5f80611fdc8385876142df565b90611fec60405180938193614320565b0390305af4611ff961432d565b901561201f579060019161200d8287613d09565b526120188186613d09565b5001611fba565b6044815110610645576120418160248060046120599501518301019101614392565b60405162461bcd60e51b815291829160048301611c5d565b0390fd5b3461064557602036600319011261064557610a1660043561207d81610634565b6143c8565b346106455760203660031901126106455760043561209f81610634565b60018060a01b03165f52600d602052602060ff60405f2054166040519015158152f35b9060406003198301126106455760043563ffffffff811681036106455791602435906001600160401b038211610645576106ee91600401610689565b34610645577f1032cb8f3d65d1f2761007cb8b0ca5365671ee20a8efa21ecae1a8dfbca5b7a561075a612130366120c2565b61213b9391936145d3565b63ffffffff83165f52601260205260405f2060ff19815416905560405193849384614422565b346106455760203660031901126106455760043561217e81610634565b60018060a01b03165f526006602052602060ff60405f2054166040519015158152f35b8015150361064557565b34610645576040366003190112610645576004356121c8816121a1565b6024356001600160401b038111610645577f50454d9d0025a28a39cac5a4b3f3101d29b6e413fbb64f75fb42eb6837b077189161220c61075a923690600401610689565b9290916122176145d3565b15159160ff196013541660ff84161760135560405193849384526040602085015260408401916129b6565b34610645576020366003190112610645576020610cde60043561226481610634565b61443f565b34610645576020366003190112610645576020610cde60043561228b81610634565b61446f565b3461064557610f37610f315f6122a5366106b6565b610f2a818385979533614850565b34610645575f366003190112610645576001546040516001600160a01b039091168152602090f35b3461064557610a166122ec366109d6565b61448c565b34610645577f37ea10f2d08f5a9803dfcd5abf3cfc7b0d6fcdf5fcbc36be9ea5a0b53d9a4d9b61075a61232336611299565b9061232f9492946145d3565b60018060a01b0384165f52600260205261234c8560405f20611e89565b805460ff1916905560405194859485613b27565b34610645577fefc511aabde7c4d22a66bc3bc12740a348cb98d9f7f433d6768ae8c1ab0e3cb861075a612392366106b6565b61239d9391936145d3565b6001600160a01b0383165f9081526010602052604090819020805460ff1916600117905551938493846129d6565b3461064557610a166123dc366106b6565b916123e56145d3565b6001600160a01b0381165f818152600260209081526040808320632df4869b60e01b84529091529020600160ff198254161790555f52600360205260405f20600160ff1982541617905561243d610d9a60045461396d565b5f80516020615e8c8339815191526040518061245b86868684613a6b565b0390a1612469838383613725565b610dd68383836137b2565b34610645577f9fc3f914bc6770a3679a6a9fdb4620f0566db329f178fb033fc0c6dcce1b693d61075a6124a6366120c2565b6124b19391936145d3565b63ffffffff83165f52601260205260405f20600160ff1982541617905560405193849384614422565b3461064557610a166124fd6124ee366109d6565b602080825183010191016144ce565b602081015161251d90612518906001600160a01b031661446f565b6129f8565b51612d15565b3461064557610a16612534366109d6565b614553565b34610645577f9efd66cbdaa05f6414ab9c4ae71d358b087e972c11874e7c3e9c7c79c61e23aa61075a61256b366106b6565b6125769391936145d3565b61257e6145d3565b6001600160a01b0383165f818152600260209081526040808320634701287760e11b84529091529020600160ff198254161790555f52600360205260405f20600160ff198254161790556125d6610d9a60045461396d565b5f80516020615e8c833981519152604051806125f484888884613a9a565b0390a16126028185856141b0565b6001600160a01b0383165f908152601160205260409020610b4590610b38565b3461064557610a16612633366106b6565b9161564d565b3461064557610a1661264a366106b6565b916126536145d3565b6001600160a01b0381165f81815260026020908152604080832063617ba03760e01b84529091529020600160ff198254161790555f52600360205260405f20600160ff198254161790556126ab610d9a60045461396d565b5f80516020615e8c833981519152604051806126c986868684613ac9565b0390a1610dd683838361383f565b34610645577ff9a414ea26a64e12a2abdb23706ec196a42adeb564668fb73f46555fbd2336c261075a612709366106b6565b6127149391936145d3565b6001600160a01b0383165f908152600a602052604090819020805460ff1916905551938493846129d6565b3461064557602036600319011261064557610a1660043561275f81610634565b6127676145d3565b614575565b34610645577f9ca3f065622f5f03f32b7157677a0e420c3a36ab45fd49f256ffebce3e31058761075a61279e366106b6565b6127a99391936145d3565b6001600160a01b0383165f9081526005602052604090819020805460ff1916905551938493846129d6565b346106455760c0366003190112610645576004356127f181610634565b6024356127fd81610634565b60443561280981610634565b60a4359160843591606435916001600160401b038511610645576128346128b09536906004016109b8565b5f80546001600160a01b038981168352600d60209081526040909320549116906128609060ff166156e1565b61286f610fe0610fd93361075f565b61287b610ff18561443f565b6128876110028661443f565b6040516370a0823160e01b81526001600160a01b03909116600482015296879081906024820190565b03816001600160a01b0387165afa958615611ae4575f966128fb575b506128d79087614d14565b9690156128f3575f54610a1697506001600160a01b0316615782565b865160208801fd5b6128d79196506129229060203d602011612929575b61291a8183610904565b81019061572a565b95906128cc565b503d612910565b34610645577fa8f9caaf4861720900294428e4ff34d37070c37afd26d96e6e4da75326d2c3ad61075a612962366106b6565b61296d9391936145d3565b6001600160a01b0383165f9081526006602052604090819020805460ff1916600117905551938493846129d6565b34610645575f36600319011261064557602060405160018152f35b908060209392818452848401375f828201840152601f01601f1916010190565b6001600160a01b0390911681526040602082018190526109d3939101916129b6565b156129ff57565b60405162461bcd60e51b8152602060048201526018602482015277149958d95a5d995c881b9bdd081dda1a5d195b1a5cdd195960421b6044820152606490fd5b60808180518101031261064557612a676080606083015192612a6084610634565b0151610634565b6001600160a01b03165f908152600760205260409020546109369060ff166129f8565b908160e091031261064557803591612aa4602083016118b2565b916040810135916060820135612ab981610634565b916080810135916109d360c060a084013593016118b2565b15612ad857565b60405162461bcd60e51b815260206004820152601c60248201527b10d0d5140819195cdd1a5b985d1a5bdb881b9bdd08185b1b1bddd95960221b6044820152606490fd5b15612b2357565b60405162461bcd60e51b815260206004820152601b60248201527a10d0d51408189d5c9b881d1bdad95b881b9bdd08185b1b1bddd959602a1b6044820152606490fd5b15612b6d57565b60405162461bcd60e51b815260206004820152601f60248201527f43435450206d696e7420726563697069656e74206e6f7420616c6c6f776564006044820152606490fd5b6001600160a01b03165f9081526011602052604090205460ff1615612c3d57610fd9610fd9612c2a612c25612c12612c17612bf68761093699612c38990190612a8a565b505050949250969063ffffffff165f52601260205260405f2090565b612ad1565b6001600160a01b031661443f565b612b1c565b6001600160a01b0316610778565b612b66565b60405162461bcd60e51b815260206004820152601a60248201527910d0d514081b595cdcd95b99d95c881b9bdd08185b1b1bddd95960321b6044820152606490fd5b91908260409103126106455760208251612c9881610634565b92015190565b612cb19060208082518301019101612c7f565b506001600160a01b03165f908152600860205260409020546109369060ff166129f8565b15612cdc57565b60405162461bcd60e51b8152602060048201526011602482015270151bdad95b881b9bdd08185b1b1bddd959607a1b6044820152606490fd5b6017905b612d2760148251101561586e565b602081015160601c82825110612d6e57612d4e612d5391612264612d4e61226487876158b2565b612cd5565b8051604211612d6a57612d6590614630565b612d19565b5050565b60405162461bcd60e51b8152602060048201526014602482015273746f55696e7432345f6f75744f66426f756e647360601b6044820152606490fd5b60ff60135416908115612dbb575090565b6001600160a01b03165f9081526010602052604090205460ff16919050565b612ded9060208082518301019101612c7f565b506001600160a01b03165f9081526009602052604090205460ff1615612e0f57565b60405162461bcd60e51b815260206004820152601b60248201527a105c1c1c9bdd99481859191c995cdcc81b9bdd08185b1b1bddd959602a1b6044820152606490fd5b612edf5f80516020615e8c83398151915293612e6c6145d3565b60018060a01b038316805f52600260205260405f2063ffffffff60e01b631e51809360e31b165f5260205260405f20600160ff198254161790555f52600360205260405f20600160ff19825416179055612eca610d9a60045461396d565b604051938493631e51809360e31b9085613b27565b0390a1565b612edf5f80516020615e8c83398151915293612efe6145d3565b60018060a01b038316805f52600260205260405f2063ffffffff60e01b63b858183f60e01b165f5260205260405f20600160ff198254161790555f52600360205260405f20600160ff19825416179055612f5c610d9a60045461396d565b60405193849363b858183f60e01b9085613b27565b612edf5f80516020615e8c83398151915293612f8b6145d3565b60018060a01b038316805f52600260205260405f2063ffffffff60e01b635c11d79560e01b165f5260205260405f20600160ff198254161790555f52600360205260405f20600160ff19825416179055612fe9610d9a60045461396d565b604051938493635c11d79560e01b9085613b27565b612edf5f80516020615e8c833981519152936130186145d3565b60018060a01b038316805f52600260205260405f2063ffffffff60e01b63a03d55e360e01b165f5260205260405f20600160ff198254161790555f52600360205260405f20600160ff19825416179055613076610d9a60045461396d565b60405193849363a03d55e360e01b9085613b27565b612edf5f80516020615e8c833981519152936130a56145d3565b60018060a01b038316805f52600260205260405f2063ffffffff60e01b63692652c560e11b165f5260205260405f20600160ff198254161790555f52600360205260405f20600160ff19825416179055613103610d9a60045461396d565b60405193849363692652c560e11b9085613b27565b612edf5f80516020615e8c833981519152936131326145d3565b60018060a01b038316805f52600260205260405f2063ffffffff60e01b635313efb360e11b165f5260205260405f20600160ff198254161790555f52600360205260405f20600160ff19825416179055613190610d9a60045461396d565b604051938493635313efb360e11b9085613b27565b612edf5f80516020615e8c833981519152936131bf6145d3565b60018060a01b038316805f52600260205260405f2063ffffffff60e01b636e553f6560e01b165f5260205260405f20600160ff198254161790555f52600360205260405f20600160ff1982541617905561321d610d9a60045461396d565b604051938493636e553f6560e01b9085613b27565b612edf5f80516020615e8c8339815191529361324c6145d3565b60018060a01b038316805f52600260205260405f2063ffffffff60e01b632d182be560e21b165f5260205260405f20600160ff198254161790555f52600360205260405f20600160ff198254161790556132aa610d9a60045461396d565b604051938493632d182be560e21b9085613b27565b612edf5f80516020615e8c833981519152936132d96145d3565b60018060a01b038316805f52600260205260405f2063ffffffff60e01b635d043b2960e11b165f5260205260405f20600160ff198254161790555f52600360205260405f20600160ff19825416179055613337610d9a60045461396d565b604051938493635d043b2960e11b9085613b27565b612edf5f80516020615e8c833981519152936133666145d3565b60018060a01b038316805f52600260205260405f2063ffffffff60e01b638dbdbe6d60e01b165f5260205260405f20600160ff198254161790555f52600360205260405f20600160ff198254161790556133c4610d9a60045461396d565b604051938493638dbdbe6d60e01b9085613b27565b612edf5f80516020615e8c833981519152936133f36145d3565b60018060a01b038316805f52600260205260405f2063ffffffff60e01b62b4d4cb60e11b165f5260205260405f20600160ff198254161790555f52600360205260405f20600160ff19825416179055613450610d9a60045461396d565b60405193849362b4d4cb60e11b9085613b27565b612edf5f80516020615e8c8339815191529361347e6145d3565b60018060a01b038316805f52600260205260405f2063ffffffff60e01b630b8b4a6160e21b165f5260205260405f20600160ff198254161790555f52600360205260405f20600160ff198254161790556134dc610d9a60045461396d565b604051938493630b8b4a6160e21b9085613b27565b612edf5f80516020615e8c8339815191529361350b6145d3565b60018060a01b038316805f52600260205260405f2063ffffffff60e01b633ea0e43760e11b165f5260205260405f20600160ff198254161790555f52600360205260405f20600160ff19825416179055613569610d9a60045461396d565b604051938493633ea0e43760e11b9085613b27565b612edf5f80516020615e8c833981519152936135986145d3565b60018060a01b038316805f52600260205260405f2063ffffffff60e01b6319792d1d60e11b165f5260205260405f20600160ff198254161790555f52600360205260405f20600160ff198254161790556135f6610d9a60045461396d565b6040519384936319792d1d60e11b9085613b27565b612edf5f80516020615e8c833981519152936136256145d3565b60018060a01b038316805f52600260205260405f2063ffffffff60e01b6385b77f4560e01b165f5260205260405f20600160ff198254161790555f52600360205260405f20600160ff19825416179055613683610d9a60045461396d565b6040519384936385b77f4560e01b9085613b27565b612edf5f80516020615e8c833981519152936136b26145d3565b60018060a01b038316805f52600260205260405f2063ffffffff60e01b63a8abe90560e01b165f5260205260405f20600160ff198254161790555f52600360205260405f20600160ff19825416179055613710610d9a60045461396d565b60405193849363a8abe90560e01b9085613b27565b612edf5f80516020615e8c8339815191529361373f6145d3565b60018060a01b038316805f52600260205260405f2063ffffffff60e01b63322dda6d60e01b165f5260205260405f20600160ff198254161790555f52600360205260405f20600160ff1982541617905561379d610d9a60045461396d565b60405193849363322dda6d60e01b9085613b27565b612edf5f80516020615e8c833981519152936137cc6145d3565b60018060a01b038316805f52600260205260405f2063ffffffff60e01b634c61684360e11b165f5260205260405f20600160ff198254161790555f52600360205260405f20600160ff1982541617905561382a610d9a60045461396d565b604051938493634c61684360e11b9085613b27565b612edf5f80516020615e8c833981519152936138596145d3565b60018060a01b038316805f52600260205260405f2063ffffffff60e01b631a4ca37b60e21b165f5260205260405f20600160ff198254161790555f52600360205260405f20600160ff198254161790556138b7610d9a60045461396d565b604051938493631a4ca37b60e21b9085613b27565b612edf5f80516020615e8c833981519152936138e66145d3565b60018060a01b038316805f52600260205260405f2063ffffffff60e01b63095ea7b360e01b165f5260205260405f20600160ff198254161790555f52600360205260405f20600160ff19825416179055613944610d9a60045461396d565b60405193849363095ea7b360e01b9085613b27565b634e487b7160e01b5f52601160045260245ffd5b5f19811461397b5760010190565b613959565b6001600160a01b03909116815263c04b8d5960e01b60208201526060604082018190526109d3939101916129b6565b6001600160a01b0390911681526338ed173960e01b60208201526060604082018190526109d3939101916129b6565b6001600160a01b03909116815263559ec80d60e01b60208201526060604082018190526109d3939101916129b6565b6001600160a01b039091168152631592ca1b60e31b60208201526060604082018190526109d3939101916129b6565b6001600160a01b039091168152630c04a8a160e41b60208201526060604082018190526109d3939101916129b6565b6001600160a01b039091168152632df4869b60e01b60208201526060604082018190526109d3939101916129b6565b6001600160a01b039091168152634701287760e11b60208201526060604082018190526109d3939101916129b6565b6001600160a01b03909116815263617ba03760e01b60208201526060604082018190526109d3939101916129b6565b6001600160a01b03909116815263a9059cbb60e01b60208201526060604082018190526109d3939101916129b6565b6001600160a01b0390911681526001600160e01b031990911660208201526060604082018190526109d3939101916129b6565b6001600160a01b039182168152911660208201526060604082018190526109d3939101916129b6565b60608180518101031261064557612a67612d4e6060602084015193613ba785610634565b015192612c1784610634565b15613bba57565b60405162461bcd60e51b815260206004820152601660248201527511d356081c9bdd5d195c881b9bdd08185b1b1bddd95960521b6044820152606490fd5b15613bff57565b60405162461bcd60e51b815260206004820152601d60248201527f474d58206f726465725661756c74206e6f7420636f6e666967757265640000006044820152606490fd5b6001600160401b0381116108e35760051b60200190565b602081830312610645578035906001600160401b03821161064557019080601f83011215610645578135613c8e81613c44565b92613c9c6040519485610904565b81845260208085019260051b820101918383116106455760208201905b838210613cc857505050505090565b81356001600160401b03811161064557602091613cea878480948801016109b8565b815201910190613cb9565b634e487b7160e01b5f52603260045260245ffd5b8051821015613d1d5760209160051b010190565b613cf5565b15613d2957565b60405162461bcd60e51b815260206004820152601360248201527211d3560e8818d85b1b081d1bdbc81cda1bdc9d606a1b6044820152606490fd5b805115613d1d5760200190565b805160011015613d1d5760210190565b805160021015613d1d5760220190565b805160031015613d1d5760230190565b60031981019190821161397b57565b9190820391821161397b57565b90613df1613de4613e0e93959495613ddf613dda610fd9836107aa565b613bb3565b610791565b546001600160a01b031690565b93613e066001600160a01b0386161515613bf8565b810190613c5b565b915f5b8351811015613fc557613e326004613e298387613d09565b51511015613d22565b613e66613e59613e4b613e458488613d09565b51613d64565b516001600160f81b03191690565b6001600160f81b03191690565b613e90613e82613e59613e4b613e7c868a613d09565b51613d71565b60081c62ffffff60e01b1690565b17613eba613ead613e59613e4b613ea7868a613d09565b51613d81565b60101c61ffff60e01b1690565b17613ee3613ed7613e59613e4b613ed1868a613d09565b51613d91565b60181c60ff60e01b1690565b179082613f0e613ef38388613d09565b51613f08613f01858a613d09565b5151613da1565b90614f5d565b926001600160e01b031916637d39aaf160e01b8103613f3a5750613f34906001936155e0565b01613e11565b631cdacd5960e31b8103613f5a5750613f5590600193615544565b613f34565b63f59c48eb60e01b14159050613f7557613f5560019261541f565b60405162461bcd60e51b815260206004820152602260248201527f474d583a20556e6b6e6f776e2066756e6374696f6e20696e206d756c746963616044820152611b1b60f21b6064820152608490fd5b50509050565b60608180518101031261064557612a676060604083015192612a6084610634565b6060818051810103126106455760600151612a6781610634565b519061093682610634565b9080601f8301121561064557815161402881613c44565b926140366040519485610904565b81845260208085019260051b82010192831161064557602001905b82821061405e5750505090565b60208091835161406d81610634565b815201910190614051565b908151820160a0838203126106455760608301516001600160401b03811161064557610fd960806140b7612518936020806140c3970191890101614011565b950151612c2a81610634565b5f5b82518110156140f757806140f1612d4e6122646140e460019588613d09565b516001600160a01b031690565b016140c5565b509050565b9081602091031261064557516109d381610634565b6040513d5f823e3d90fd5b612edf5f80516020615e4c83398151915293611b136145d3565b6141499060208082518301019101612c7f565b506001600160a01b03165f908152600a602052604090205460ff161561416b57565b60405162461bcd60e51b815260206004820152601e60248201527f44656c65676174696f6e2061646472657373206e6f7420616c6c6f77656400006044820152606490fd5b612edf5f80516020615d8c83398151915293611c0b6145d3565b6141d2615d02565b6141da615d02565b6141e333614575565b6040818051810103126106455780604060206109369301519161420583610634565b015161421081610634565b6001600160a01b03166142216145d3565b5f80546001600160a01b031981168317825582916001600160a01b03909116905f80516020615dac8339815191529080a361425a6145d3565b600180546001600160a01b0319811683179091556001600160a01b03165f80516020615e0c8339815191525f80a36001600160a01b0316614569565b906142a082613c44565b6142ad6040519182610904565b82815280926142be601f1991613c44565b01905f5b8281106142ce57505050565b8060606020809385010152016142c2565b9190811015613d1d5760051b81013590601e19813603018212156106455701803591906001600160401b038311610645576020018236038113610645579190565b908092918237015f815290565b3d15614357573d9061433e82610967565b9161434c6040519384610904565b82523d5f602084013e565b606090565b92919261436882610967565b916143766040519384610904565b829481845281830111610645578281602093845f96015e010152565b602081830312610645578051906001600160401b03821161064557019080601f830112156106455781516109d39260200161435c565b6001600160a01b03165f908152600b602052604090205460ff16156143e957565b60405162461bcd60e51b815260206004820152601160248201527015985d5b1d081b9bdd08185b1b1bddd959607a1b6044820152606490fd5b60409063ffffffff6109d3959316815281602082015201916129b6565b60ff60135416908115614450575090565b6001600160a01b03165f9081526005602052604090205460ff16919050565b6001600160a01b03165f9081526007602052604090205460ff1690565b60808180518101031261064557612d4e81612c176060602061093695015192612a6084610634565b9080601f830112156106455781516109d39260200161435c565b602081830312610645578051906001600160401b03821161064557019060a0828203126106455760405191614502836108c8565b80516001600160401b038111610645576080926145209183016144b4565b8352602081015161453081610634565b602084015260408101516040840152606081015160608401520151608082015290565b6124fd61093691602080825183010191016144ce565b610936906127676145d3565b6001600160a01b031680156145c0575f80516020615dec83398151915280546001600160a01b0319811683179091556001600160a01b03165f80516020615e2c8339815191525f80a3565b631e4fbdf760e01b5f525f60045260245ffd5b5f80516020615dec833981519152546001600160a01b031633036145f357565b63118cdaa760e01b5f523360045260245ffd5b90601f820180921161397b57565b906104b0820180921161397b57565b9190820180921161397b57565b8051601619810181811161397b576146528161464b81614606565b1015614ee0565b614661601761464b8382614623565b6146788351614671836017614623565b1115614f1d565b80614690575050506040515f81526020810160405290565b604051926017601f8316801560051b908181880101956016199087010193010101905b8084106146cb5750508252601f01601f191660405290565b90926020809185518152019301906146b3565b156146e557565b60405162461bcd60e51b815260206004820152601260248201527114d95b99195c881b9bdd08185b1b1bddd95960721b6044820152606490fd5b906004116106455790600490565b909291928360041161064557831161064557600401916003190190565b356001600160e01b0319811692919060048210614765575050565b6001600160e01b031960049290920360031b82901b16169150565b1561478757565b60405162461bcd60e51b815260206004820152601260248201527115185c99d95d081b9bdd08185b1b1bddd95960721b6044820152606490fd5b156147c857565b60405162461bcd60e51b815260206004820152601460248201527314d95b1958dd1bdc881b9bdd08185b1b1bddd95960621b6044820152606490fd5b1561480b57565b60405162461bcd60e51b815260206004820152601e60248201527f53776170526f75746572303220726571756972657320616e79417373657400006044820152606490fd5b5f80516020615dec83398151915254919390916001600160a01b03166001600160a01b03831614614a715761488d610fe0610fd96148a79461075f565b806148a161489b828661471f565b9061474a565b9361472d565b9290916148b660135460ff1690565b908180614cb7575b15614c54575b6001600160e01b0319166338ed173960e01b81036148ee5750505061192490610936923691610982565b635c11d79560e01b810361490e5750505061192490610936923691610982565b63c04b8d5960e01b810361492e5750505061253490610936923691610982565b919390929163b858183f60e01b810361494e575050506109369150614804565b9192509063a9059cbb60e01b81036149725750610936925090610b79913691610982565b63095ea7b360e01b8103614992575061093692509061108c913691610982565b630c04a8a160e41b81036149b25750610936925090611bdc913691610982565b63617ba03760e01b81036149d257506109369250906122ec913691610982565b631a4ca37b60e21b81036149f25750610936925090611626913691610982565b63559ec80d60e01b8103614a0c57505050610936906143c8565b63a03d55e360e01b8103614a2657505050610936906143c8565b63692652c560e11b8103614a4057505050610936906143c8565b635313efb360e11b8103614a5a57505050610936906143c8565b636e553f6560e01b81148015614c44575b15614a77575b50505050565b638dbdbe6d60e01b8103614aa05750614a9792509061190e913691610982565b5f808080614a71565b62b4d4cb60e11b8103614ac45750614abf925090610a11913691610982565b614a97565b632d182be560e21b8103614ae45750614abf92509061189a913691610982565b635d043b2960e11b8103614b045750614abf92509061189a913691610982565b633ea0e43760e11b8103614b245750614abf92509061189a913691610982565b6319792d1d60e11b8103614b445750614abf92509061189a913691610982565b637a4880bb60e01b8101614b5c575b50505050614a97565b63575416fb60e01b810115614b5357632df4869b60e01b8103614b915750614b8692503691610982565b505b5f808080614b53565b63322dda6d60e01b8103614bb25750614bac92503691610982565b50614b88565b634c61684360e11b8103614bcd5750614bac92503691610982565b909190631592ca1b60e31b8103614bed5750614be892613dbd565b614b88565b634701287760e11b03614c0357614be892612bb2565b60405162461bcd60e51b81526020600482015260196024820152782ab735b737bbb710333ab731ba34b7b71039b2b632b1ba37b960391b6044820152606490fd5b50630b8b4a6160e21b8114614a6b565b614c6c611d26610fd983614c67876107c3565b611e89565b156148c4576001600160a01b0383165f908152600360205260409020614c9a90614c9590610fd9565b614780565b614cb2614cad610fd983614c67876107c3565b6147c1565b6148c4565b5063095ea7b360e01b6001600160e01b03198216146148be565b5190610936826121a1565b919091604081840312610645578051614cf4816121a1565b60208201519093906001600160401b038111610645576109d392016144b4565b600154604051635229073f60e01b81526001600160a01b0392831660048201525f6024820181905260806044830152909493909285921690829084908290614d60906084830190611c39565b82606483015203925af1918215611ae4575f905f93614d7e57509190565b90506106ee9192503d805f833e614d958183610904565b810190614cdc565b600154604051635229073f60e01b81526001600160a01b0392831660048201526024810193909352608060448401529193925f9285921690829084908290614d60906084830190611c39565b60405190606082016001600160401b038111838210176108e35760405260606040838281525f60208201520152565b15614e1f57565b60405162461bcd60e51b81526020600482015260136024820152721d1bdad95b925b881b9bdd08185b1b1bddd959606a1b6044820152606490fd5b15614e6157565b60405162461bcd60e51b81526020600482015260146024820152731d1bdad95b93dd5d081b9bdd08185b1b1bddd95960621b6044820152606490fd5b15614ea457565b60405162461bcd60e51b8152602060048201526014602482015273149958d95a5d995c881b9bdd08185b1b1bddd95960621b6044820152606490fd5b15614ee757565b60405162461bcd60e51b815260206004820152600e60248201526d736c6963655f6f766572666c6f7760901b6044820152606490fd5b15614f2457565b60405162461bcd60e51b8152602060048201526011602482015270736c6963655f6f75744f66426f756e647360781b6044820152606490fd5b614f6a8261464b81614606565b614f79600461464b8482614623565b614f898151614671846004614623565b81614fa05750506040515f81526020810160405290565b60405191601f8116916004831560051b80858701019484860193010101905b808410614fd75750508252601f01601f191660405290565b9092602080918551815201930190614fbf565b91909160e08184031261064557614fff610927565b9261500982614006565b845261501760208301614006565b602085015261502860408301614006565b604085015261503960608301614006565b606085015261504a60808301614006565b608085015261505b60a08301614006565b60a085015260c08201516001600160401b0381116106455761507d9201614011565b60c0830152565b9190826101009103126106455760405161509d816108e8565b60e0808294805184526020810151602085015260408101516040850152606081015160608501526080810151608085015260a081015160a085015260c081015160c08501520151910152565b519060ff8216820361064557565b9080601f8301121561064557815161510e81613c44565b9261511c6040519485610904565b81845260208085019260051b82010192831161064557602001905b8282106151445750505090565b8151815260209182019101615137565b602081830312610645578051906001600160401b03821161064557016102008183031261064557615183610938565b81519092906001600160401b03811161064557816151a2918401614fea565b83526151b18160208401615084565b60208401526151c361012083016150e9565b60408401526151d561014083016150e9565b60608401526151e76101608301614cd1565b60808401526151f96101808301614cd1565b60a084015261520b6101a08301614cd1565b60c08401526101c082015160e08401526101e08201516001600160401b0381116106455761523992016150f7565b61010082015290565b1561524957565b60405162461bcd60e51b815260206004820152602960248201527f474d58206372656174654f726465723a207265636569766572206e6f742077686044820152681a5d195b1a5cdd195960ba1b6064820152608490fd5b156152a757565b60405162461bcd60e51b815260206004820152603560248201527f474d58206372656174654f726465723a2063616e63656c6c6174696f6e526563604482015274195a5d995c881b9bdd081dda1a5d195b1a5cdd1959605a1b6064820152608490fd5b1561531157565b60405162461bcd60e51b815260206004820152602360248201527f474d58206372656174654f726465723a206d61726b6574206e6f7420616c6c6f6044820152621dd95960ea1b6064820152608490fd5b1561536957565b60405162461bcd60e51b815260206004820152602760248201527f474d58206372656174654f726465723a20636f6c6c61746572616c206e6f7420604482015266185b1b1bddd95960ca1b6064820152608490fd5b156153c557565b60405162461bcd60e51b815260206004820152602c60248201527f474d58206372656174654f726465723a207377617050617468206d61726b657460448201526b081b9bdd08185b1b1bddd95960a21b6064820152608490fd5b6154329060208082518301019101615154565b8051516154509061544b906001600160a01b031661446f565b615242565b8051602001516154719061546c906001600160a01b031661446f565b6152a0565b8051608001516154929061548d906001600160a01b0316612daa565b61530a565b805160a001516154b3906154ae906001600160a01b031661443f565b615362565b5f5b60c08251015180518210156154e957816154e16154dc610cd96140e460c096600196613d09565b6153be565b0190506154b5565b505050565b156154f557565b60405162461bcd60e51b815260206004820152602160248201527f474d582073656e64546f6b656e733a20746f6b656e206e6f7420616c6c6f77656044820152601960fa1b6064820152608490fd5b9060608280518101031261064557604060208301519261556384610634565b01519061556f82610634565b6001600160a01b0390811691160361559c5761093690615597906001600160a01b031661443f565b6154ee565b606460405162461bcd60e51b815260206004820152602060248201527f474d582073656e64546f6b656e733a20696e76616c69642072656365697665726044820152fd5b6155f39060208082518301019101612c7f565b506001600160a01b0391821691160361560857565b60405162461bcd60e51b815260206004820152601d60248201527f474d582073656e64576e743a20696e76616c69642072656365697665720000006044820152606490fd5b90610936929161565b6145d3565b60018060a01b038116805f52600260205260405f2063a9059cbb60e01b5f5260205260405f20600160ff198254161790555f52600360205260405f20600160ff198254161790556156b0610d9a60045461396d565b5f80516020615e8c833981519152604051806156ce86868684613af8565b0390a16156dc8383836138cc565b61411c565b156156e857565b60405162461bcd60e51b815260206004820152601a60248201527915995b1bdc98481cddd85c1c195c881b9bdd08195b98589b195960321b6044820152606490fd5b90816020910312610645575190565b1561574057565b60405162461bcd60e51b815260206004820152601a602482015279125b9cdd59999a58da595b9d081bdd5d1c1d5d08185b5bdd5b9d60321b6044820152606490fd5b6040516370a0823160e01b81526001600160a01b03918216600482015293969295929493919290602090839060249082908b165afa918215611ae4575f9261584d575b5080850180861161397b577fadccd6d5139732e7db3b6f230f309c7e8eb03047d2c40c4c136ed949c6e8aa65958361580561580a93615848961015615739565b613db0565b604080516001600160a01b03988916815298881660208a015288019490945260608701939093526080860192909252909216924292819060a0820190565b0390a3565b61586791925060203d6020116129295761291a8183610904565b905f6157c5565b1561587557565b60405162461bcd60e51b8152602060048201526015602482015274746f416464726573735f6f75744f66426f756e647360581b6044820152606490fd5b90601481019182821161397b578183106158de576158d56020938251101561586e565b01015160601c90565b60405162461bcd60e51b8152602060048201526012602482015271746f416464726573735f6f766572666c6f7760701b6044820152606490fd5b6040519061018082016001600160401b038111838210176108e3576040525f610160838281528260208201528260408201528260608201528260808201528260a08201528260c08201528260e08201528261010082015282610120820152826101408201520152565b6001600160a01b039091169052565b936159f3615a0a949396926159a3615918565b506159ea6159bc6159b342614614565b63ffffffff1690565b956159d86159c8610948565b9a6001600160a01b03168b615981565b6001600160a01b031660208a01615981565b60408801615981565b6060860152608085015263ffffffff1660a0840152565b60c08201525f60e08201527ff3b277728b3fee749481eb3e0b3b48980dbbab78658fc419025cb16eee3467756101008201525f6101208201525f80516020615dcc8339815191526101408201525f80516020615dcc83398151915261016082015290565b60405160609190615a7f8382610904565b6038815291601f1901366020840137565b91959493906101e093610160615ab3615b6b936102008752610200870190611c39565b89516001600160a01b031660208701529860208101516001600160a01b0316604087015260408101516001600160a01b0316606087015260608101516080870152608081015160a0870152615b1560a082015160c088019063ffffffff169052565b60c081015160e087015260e0810151610100870152610100810151610120870152615b4b61012082015161014088019015159052565b61014081015186830152015161018085015263ffffffff166101a0840152565b6101c08201520152565b91906020615b8d600192604086526040860190611c39565b930152565b9091615b9c614de9565b5060405163f698da2560e01b81526020816004816001600160a01b0387165afa8015611ae457615c42615c73917f2c222fa91d81130fe56ee74391b3b6a113851c1f9cd5bc5853108490ccafc782935f91615ce3575b508490604291601f190180517fd5a25ba2e97094ad7d83dc28a6572da797d6b3e7fc6663bd93efb789fc17e48982526101a0822091526040519161190160f01b8352600283015260228201522090565b94615c69615c4e615a6e565b9660a0860192615c62845163ffffffff1690565b9189615d2d565b5163ffffffff1690565b608083015190615c90606085015160405193849342978a86615a90565b0390a260405163ec6cb13f60e01b602082015290615cdb90615cc783615cb98660248301615b75565b03601f198101855284610904565b615ccf610958565b93845260208401615981565b604082015290565b615cfc915060203d6020116129295761291a8183610904565b5f615bf2565b60ff5f80516020615e6c8339815191525460401c1615615d1e57565b631afcd79f60e31b5f5260045ffd5b9092916038825103615d4a57602092603883015260348201520152565b60405162461bcd60e51b8152602060048201526019602482015278475076323a2075696420627566666572206f766572666c6f7760381b6044820152606490fdfe628a44970c0e450415e3ae74334ea44f3307b74dbf677a1371190242bf2f358952ae88b092de36f87fb43fe794eb1381023b9c1bce563a871154022c63dce3425a28e9363bb942b639270062aa6bb295f434bcdfc42c97267bf003f272060dc99016d09d72d40fdae2fd8ceac6b6234c7706214fd39c1cd1e609a0528c19930090cc2f570a6eb594b1580ea3e41247d2d73a55281889e86bd4ec2fc29c7e62d68be0079c531659141344cd1fd0a4f28419497f9722a3daafe3b4186f6b6457e0ad90e2570fc4fe9f7437be3188d5c791c6662892d31731992aa88f5c87621983f0c57e16840df040f15088dc2f81fe391c3923bec73e23a9662efc9c229c6a00ef729aaa41b9fd994f9ff7c1960df214a84f722002e6cfbea31799cd0873a3efa264697066735822122015453f0c38c9e17e9e10bccaf5741094ebe8e6bb6bfa014ba8b264fb765800c364736f6c634300081a0033f0c57e16840df040f15088dc2f81fe391c3923bec73e23a9662efc9c229c6a00","linkReferences":{}},"methodIdentifiers":{"_SIGN_COOLDOWN()":"3ffb788e","allowApprovalDestination(address,string)":"98b3cc39","allowAsset(address,string)":"86b6dbe5","allowCallSite(address,bytes4,string)":"5e4ccace","allowDelegationApprovalDestination(address,string)":"63cc17f2","allowReceiver(address,string)":"72e548a9","allowSender(address,string)":"fa2c59c8","allowWithdrawDestination(address,string)":"5ace1d92","allowedApprovalDestinations(address)":"eb0de042","allowedAssets(address)":"a4c1cccb","allowedCCTPDestinations(uint32)":"7cac69c3","allowedCCTPMessengers(address)":"07605342","allowedCallSites(address,bytes4)":"a847cf4d","allowedCowSwaps(address)":"47566064","allowedDelegationApprovalDestinations(address)":"4b941268","allowedGMXMarkets(address)":"0985b046","allowedGMXRouters(address)":"4c03f1f8","allowedLagoonVaults(address)":"8fb4dff2","allowedReceivers(address)":"3cf20025","allowedSenders(address)":"fadbcf48","allowedTargets(address)":"b8fe8d5f","allowedVeloraSwappers(address)":"b45ea48b","allowedWithdrawDestinations(address)":"07ef00cf","anyAsset()":"87301608","avatar()":"5aef7de6","callSiteCount()":"a9fc3d4f","getGovernanceAddress()":"73252494","getInternalVersion()":"fdedfa27","getTradingStrategyModuleVersion()":"9e4a83cf","gmxOrderVaults(address)":"a86ddc57","isAllowedApprovalDestination(address)":"1d49039c","isAllowedAsset(address)":"c537bed0","isAllowedCCTPDestination(uint32)":"748fca46","isAllowedCCTPMessenger(address)":"0411fb8e","isAllowedCallSite(address,bytes4)":"713ebf3b","isAllowedCowSwap(address)":"333f22e8","isAllowedDelegationApprovalDestination(address)":"2dc32a61","isAllowedGMXMarket(address)":"2e31e9c6","isAllowedGMXRouter(address)":"cbdb1dcf","isAllowedLagoonVault(address)":"6fd7fdef","isAllowedReceiver(address)":"d075f9bb","isAllowedSender(address)":"be8c97b0","isAllowedTarget(address)":"78addb48","isAllowedVeloraSwapper(address)":"f84756aa","isAllowedWithdrawDestination(address)":"efb47bff","multicall(bytes[])":"ac9650d8","owner()":"8da5cb5b","performCall(address,bytes)":"d2f73e3d","performCall(address,bytes,uint256)":"486295dc","removeApprovalDestination(address,string)":"04a3ba25","removeAsset(address,string)":"f901dc33","removeCCTPDestination(uint32,string)":"ba44ad41","removeCallSite(address,bytes4,string)":"d7334c9d","removeDelegationApprovalDestination(address,string)":"f259a073","removeGMXMarket(address,string)":"4d3d31ca","removeReceiver(address,string)":"2d12d788","removeSender(address,string)":"a67e1f54","removeWithdrawDestination(address,string)":"8c2fdf9e","renounceOwnership()":"715018a6","setAnyAssetAllowed(bool,string)":"c2e657ae","setAvatar(address)":"086cfca8","setTarget(address)":"776d1a01","setUp(bytes)":"a4f9edbf","swapAndValidateCowSwap(address,address,bytes32,address,address,uint256,uint256)":"4acf884d","swapAndValidateVelora(address,address,address,uint256,uint256,bytes)":"f9cf8ae5","target()":"d4b83992","transferOwnership(address)":"f2fde38b","validateCall(address,address,bytes)":"6d5025f1","validateUniswapV3Path(bytes)":"1c123e77","validate_ERC4626Deposit(address,bytes)":"2c02cda0","validate_ERC4626Redeem(bytes)":"742bfc7e","validate_ERC4626Withdraw(bytes)":"78065086","validate_UmamiDeposit(bytes)":"74fb77fe","validate_UmamiRedeem(bytes)":"0c260a7b","validate_aaveSupply(bytes)":"d4c0fe45","validate_aaveWithdraw(bytes)":"6a6d5cc8","validate_approve(bytes)":"4b956bd8","validate_approveDelegation(bytes)":"957dc6c0","validate_cctpDepositForBurn(address,bytes)":"1561149f","validate_cowSwapSettlement(bytes)":"adcfa55b","validate_exactInput(bytes)":"ebe26816","validate_exactOutput(bytes)":"e98539c5","validate_gmxMulticall(address,bytes)":"6bf9e331","validate_lagoonSettle(address)":"b3c329cb","validate_orderlyDelegateSigner(bytes)":"d718f041","validate_orderlyDeposit(bytes)":"6d5176a6","validate_orderlyWithdraw(bytes)":"912ef02d","validate_swapExactTokensForTokens(bytes)":"761bcd9c","validate_transfer(bytes)":"1710a4f2","whitelistAaveV3(address,string)":"f20e85e0","whitelistCCTP(address,string)":"ec011440","whitelistCCTPDestination(uint32,string)":"e6f32c51","whitelistCowSwap(address,address,string)":"1047789e","whitelistERC4626(address,string)":"86a6ae15","whitelistGMX(address,address,address,string)":"62d6775e","whitelistGMXMarket(address,string)":"d7581509","whitelistLagoon(address,string)":"5e6afe4d","whitelistOrderly(address,string)":"db17a170","whitelistToken(address,string)":"ee5462cc","whitelistTokenForDelegation(address,string)":"6d9a1423","whitelistUniswapV2Router(address,string)":"3ea35551","whitelistUniswapV3Router(address,string)":"34ec8d7e","whitelistVelora(address,address,string)":"4efbad39"},"id":29}