{"abi":[{"type":"constructor","inputs":[{"name":"_owner","type":"address","internalType":"address"},{"name":"_target","type":"address","internalType":"address"}],"stateMutability":"nonpayable"},{"type":"function","name":"allowApprovalDestination","inputs":[{"name":"destination","type":"address","internalType":"address"},{"name":"notes","type":"string","internalType":"string"}],"outputs":[],"stateMutability":"nonpayable"},{"type":"function","name":"allowAsset","inputs":[{"name":"asset","type":"address","internalType":"address"},{"name":"notes","type":"string","internalType":"string"}],"outputs":[],"stateMutability":"nonpayable"},{"type":"function","name":"allowCallSite","inputs":[{"name":"target","type":"address","internalType":"address"},{"name":"selector","type":"bytes4","internalType":"bytes4"},{"name":"notes","type":"string","internalType":"string"}],"outputs":[],"stateMutability":"nonpayable"},{"type":"function","name":"allowDelegationApprovalDestination","inputs":[{"name":"destination","type":"address","internalType":"address"},{"name":"notes","type":"string","internalType":"string"}],"outputs":[],"stateMutability":"nonpayable"},{"type":"function","name":"allowReceiver","inputs":[{"name":"receiver","type":"address","internalType":"address"},{"name":"notes","type":"string","internalType":"string"}],"outputs":[],"stateMutability":"nonpayable"},{"type":"function","name":"allowSender","inputs":[{"name":"sender","type":"address","internalType":"address"},{"name":"notes","type":"string","internalType":"string"}],"outputs":[],"stateMutability":"nonpayable"},{"type":"function","name":"allowWithdrawDestination","inputs":[{"name":"destination","type":"address","internalType":"address"},{"name":"notes","type":"string","internalType":"string"}],"outputs":[],"stateMutability":"nonpayable"},{"type":"function","name":"allowedApprovalDestinations","inputs":[{"name":"destination","type":"address","internalType":"address"}],"outputs":[{"name":"allowed","type":"bool","internalType":"bool"}],"stateMutability":"view"},{"type":"function","name":"allowedAssets","inputs":[{"name":"token","type":"address","internalType":"address"}],"outputs":[{"name":"allowed","type":"bool","internalType":"bool"}],"stateMutability":"view"},{"type":"function","name":"allowedCallSites","inputs":[{"name":"target","type":"address","internalType":"address"},{"name":"selector","type":"bytes4","internalType":"bytes4"}],"outputs":[{"name":"allowed","type":"bool","internalType":"bool"}],"stateMutability":"view"},{"type":"function","name":"allowedDelegationApprovalDestinations","inputs":[{"name":"destination","type":"address","internalType":"address"}],"outputs":[{"name":"allowed","type":"bool","internalType":"bool"}],"stateMutability":"view"},{"type":"function","name":"allowedLagoonVaults","inputs":[{"name":"destination","type":"address","internalType":"address"}],"outputs":[{"name":"allowed","type":"bool","internalType":"bool"}],"stateMutability":"view"},{"type":"function","name":"allowedReceivers","inputs":[{"name":"receiver","type":"address","internalType":"address"}],"outputs":[{"name":"allowed","type":"bool","internalType":"bool"}],"stateMutability":"view"},{"type":"function","name":"allowedSenders","inputs":[{"name":"sender","type":"address","internalType":"address"}],"outputs":[{"name":"allowed","type":"bool","internalType":"bool"}],"stateMutability":"view"},{"type":"function","name":"allowedTargets","inputs":[{"name":"target","type":"address","internalType":"address"}],"outputs":[{"name":"allowed","type":"bool","internalType":"bool"}],"stateMutability":"view"},{"type":"function","name":"allowedWithdrawDestinations","inputs":[{"name":"destination","type":"address","internalType":"address"}],"outputs":[{"name":"allowed","type":"bool","internalType":"bool"}],"stateMutability":"view"},{"type":"function","name":"anyAsset","inputs":[],"outputs":[{"name":"","type":"bool","internalType":"bool"}],"stateMutability":"view"},{"type":"function","name":"avatar","inputs":[],"outputs":[{"name":"","type":"address","internalType":"address"}],"stateMutability":"view"},{"type":"function","name":"callSiteCount","inputs":[],"outputs":[{"name":"","type":"uint256","internalType":"uint256"}],"stateMutability":"view"},{"type":"function","name":"getGovernanceAddress","inputs":[],"outputs":[{"name":"","type":"address","internalType":"address"}],"stateMutability":"view"},{"type":"function","name":"getInternalVersion","inputs":[],"outputs":[{"name":"","type":"uint8","internalType":"uint8"}],"stateMutability":"pure"},{"type":"function","name":"isAllowedApprovalDestination","inputs":[{"name":"receiver","type":"address","internalType":"address"}],"outputs":[{"name":"","type":"bool","internalType":"bool"}],"stateMutability":"view"},{"type":"function","name":"isAllowedAsset","inputs":[{"name":"token","type":"address","internalType":"address"}],"outputs":[{"name":"","type":"bool","internalType":"bool"}],"stateMutability":"view"},{"type":"function","name":"isAllowedCallSite","inputs":[{"name":"target","type":"address","internalType":"address"},{"name":"selector","type":"bytes4","internalType":"bytes4"}],"outputs":[{"name":"","type":"bool","internalType":"bool"}],"stateMutability":"view"},{"type":"function","name":"isAllowedDelegationApprovalDestination","inputs":[{"name":"receiver","type":"address","internalType":"address"}],"outputs":[{"name":"","type":"bool","internalType":"bool"}],"stateMutability":"view"},{"type":"function","name":"isAllowedLagoonVault","inputs":[{"name":"vault","type":"address","internalType":"address"}],"outputs":[{"name":"","type":"bool","internalType":"bool"}],"stateMutability":"view"},{"type":"function","name":"isAllowedReceiver","inputs":[{"name":"receiver","type":"address","internalType":"address"}],"outputs":[{"name":"","type":"bool","internalType":"bool"}],"stateMutability":"view"},{"type":"function","name":"isAllowedSender","inputs":[{"name":"sender","type":"address","internalType":"address"}],"outputs":[{"name":"","type":"bool","internalType":"bool"}],"stateMutability":"view"},{"type":"function","name":"isAllowedTarget","inputs":[{"name":"target","type":"address","internalType":"address"}],"outputs":[{"name":"","type":"bool","internalType":"bool"}],"stateMutability":"view"},{"type":"function","name":"isAllowedWithdrawDestination","inputs":[{"name":"receiver","type":"address","internalType":"address"}],"outputs":[{"name":"","type":"bool","internalType":"bool"}],"stateMutability":"view"},{"type":"function","name":"owner","inputs":[],"outputs":[{"name":"","type":"address","internalType":"address"}],"stateMutability":"view"},{"type":"function","name":"performCall","inputs":[{"name":"target","type":"address","internalType":"address"},{"name":"callData","type":"bytes","internalType":"bytes"}],"outputs":[],"stateMutability":"nonpayable"},{"type":"function","name":"removeApprovalDestination","inputs":[{"name":"destination","type":"address","internalType":"address"},{"name":"notes","type":"string","internalType":"string"}],"outputs":[],"stateMutability":"nonpayable"},{"type":"function","name":"removeAsset","inputs":[{"name":"asset","type":"address","internalType":"address"},{"name":"notes","type":"string","internalType":"string"}],"outputs":[],"stateMutability":"nonpayable"},{"type":"function","name":"removeCallSite","inputs":[{"name":"target","type":"address","internalType":"address"},{"name":"selector","type":"bytes4","internalType":"bytes4"},{"name":"notes","type":"string","internalType":"string"}],"outputs":[],"stateMutability":"nonpayable"},{"type":"function","name":"removeDelegationApprovalDestination","inputs":[{"name":"destination","type":"address","internalType":"address"},{"name":"notes","type":"string","internalType":"string"}],"outputs":[],"stateMutability":"nonpayable"},{"type":"function","name":"removeReceiver","inputs":[{"name":"receiver","type":"address","internalType":"address"},{"name":"notes","type":"string","internalType":"string"}],"outputs":[],"stateMutability":"nonpayable"},{"type":"function","name":"removeSender","inputs":[{"name":"sender","type":"address","internalType":"address"},{"name":"notes","type":"string","internalType":"string"}],"outputs":[],"stateMutability":"nonpayable"},{"type":"function","name":"removeWithdrawDestination","inputs":[{"name":"destination","type":"address","internalType":"address"},{"name":"notes","type":"string","internalType":"string"}],"outputs":[],"stateMutability":"nonpayable"},{"type":"function","name":"renounceOwnership","inputs":[],"outputs":[],"stateMutability":"nonpayable"},{"type":"function","name":"setAnyAssetAllowed","inputs":[{"name":"value","type":"bool","internalType":"bool"},{"name":"notes","type":"string","internalType":"string"}],"outputs":[],"stateMutability":"nonpayable"},{"type":"function","name":"setAvatar","inputs":[{"name":"_avatar","type":"address","internalType":"address"}],"outputs":[],"stateMutability":"nonpayable"},{"type":"function","name":"setTarget","inputs":[{"name":"_target","type":"address","internalType":"address"}],"outputs":[],"stateMutability":"nonpayable"},{"type":"function","name":"setUp","inputs":[{"name":"initializeParams","type":"bytes","internalType":"bytes"}],"outputs":[],"stateMutability":"nonpayable"},{"type":"function","name":"target","inputs":[],"outputs":[{"name":"","type":"address","internalType":"address"}],"stateMutability":"view"},{"type":"function","name":"transferOwnership","inputs":[{"name":"newOwner","type":"address","internalType":"address"}],"outputs":[],"stateMutability":"nonpayable"},{"type":"function","name":"validate1deltaPath","inputs":[{"name":"path","type":"bytes","internalType":"bytes"}],"outputs":[],"stateMutability":"view"},{"type":"function","name":"validateCall","inputs":[{"name":"sender","type":"address","internalType":"address"},{"name":"target","type":"address","internalType":"address"},{"name":"callDataWithSelector","type":"bytes","internalType":"bytes"}],"outputs":[],"stateMutability":"view"},{"type":"function","name":"validateUniswapV3Path","inputs":[{"name":"path","type":"bytes","internalType":"bytes"}],"outputs":[],"stateMutability":"view"},{"type":"function","name":"validate_1deltaDeposit","inputs":[{"name":"callData","type":"bytes","internalType":"bytes"}],"outputs":[],"stateMutability":"view"},{"type":"function","name":"validate_1deltaMulticall","inputs":[{"name":"callData","type":"bytes","internalType":"bytes"}],"outputs":[],"stateMutability":"view"},{"type":"function","name":"validate_1deltaWithdraw","inputs":[{"name":"callData","type":"bytes","internalType":"bytes"}],"outputs":[],"stateMutability":"view"},{"type":"function","name":"validate_aaveSupply","inputs":[{"name":"callData","type":"bytes","internalType":"bytes"}],"outputs":[],"stateMutability":"view"},{"type":"function","name":"validate_aaveWithdraw","inputs":[{"name":"callData","type":"bytes","internalType":"bytes"}],"outputs":[],"stateMutability":"view"},{"type":"function","name":"validate_approve","inputs":[{"name":"callData","type":"bytes","internalType":"bytes"}],"outputs":[],"stateMutability":"view"},{"type":"function","name":"validate_approveDelegation","inputs":[{"name":"callData","type":"bytes","internalType":"bytes"}],"outputs":[],"stateMutability":"view"},{"type":"function","name":"validate_exactInput","inputs":[{"name":"callData","type":"bytes","internalType":"bytes"}],"outputs":[],"stateMutability":"view"},{"type":"function","name":"validate_exactOutput","inputs":[{"name":"callData","type":"bytes","internalType":"bytes"}],"outputs":[],"stateMutability":"view"},{"type":"function","name":"validate_flashSwapAllOut","inputs":[{"name":"callData","type":"bytes","internalType":"bytes"}],"outputs":[],"stateMutability":"view"},{"type":"function","name":"validate_flashSwapExactInt","inputs":[{"name":"callData","type":"bytes","internalType":"bytes"}],"outputs":[],"stateMutability":"view"},{"type":"function","name":"validate_flashSwapExactOut","inputs":[{"name":"callData","type":"bytes","internalType":"bytes"}],"outputs":[],"stateMutability":"view"},{"type":"function","name":"validate_lagoonSettle","inputs":[{"name":"vault","type":"address","internalType":"address"}],"outputs":[],"stateMutability":"view"},{"type":"function","name":"validate_swapExactTokensForTokens","inputs":[{"name":"callData","type":"bytes","internalType":"bytes"}],"outputs":[],"stateMutability":"view"},{"type":"function","name":"validate_transfer","inputs":[{"name":"callData","type":"bytes","internalType":"bytes"}],"outputs":[],"stateMutability":"view"},{"type":"function","name":"validate_transferERC20AllIn","inputs":[{"name":"callData","type":"bytes","internalType":"bytes"}],"outputs":[],"stateMutability":"view"},{"type":"function","name":"validate_transferERC20In","inputs":[{"name":"callData","type":"bytes","internalType":"bytes"}],"outputs":[],"stateMutability":"view"},{"type":"function","name":"whitelistAaveV3","inputs":[{"name":"lendingPool","type":"address","internalType":"address"},{"name":"notes","type":"string","internalType":"string"}],"outputs":[],"stateMutability":"nonpayable"},{"type":"function","name":"whitelistLagoon","inputs":[{"name":"vault","type":"address","internalType":"address"},{"name":"notes","type":"string","internalType":"string"}],"outputs":[],"stateMutability":"nonpayable"},{"type":"function","name":"whitelistOnedelta","inputs":[{"name":"brokerProxy","type":"address","internalType":"address"},{"name":"lendingPool","type":"address","internalType":"address"},{"name":"notes","type":"string","internalType":"string"}],"outputs":[],"stateMutability":"nonpayable"},{"type":"function","name":"whitelistToken","inputs":[{"name":"token","type":"address","internalType":"address"},{"name":"notes","type":"string","internalType":"string"}],"outputs":[],"stateMutability":"nonpayable"},{"type":"function","name":"whitelistTokenForDelegation","inputs":[{"name":"token","type":"address","internalType":"address"},{"name":"notes","type":"string","internalType":"string"}],"outputs":[],"stateMutability":"nonpayable"},{"type":"function","name":"whitelistUniswapV2Router","inputs":[{"name":"router","type":"address","internalType":"address"},{"name":"notes","type":"string","internalType":"string"}],"outputs":[],"stateMutability":"nonpayable"},{"type":"function","name":"whitelistUniswapV3Router","inputs":[{"name":"router","type":"address","internalType":"address"},{"name":"notes","type":"string","internalType":"string"}],"outputs":[],"stateMutability":"nonpayable"},{"type":"event","name":"AnyAssetSet","inputs":[{"name":"value","type":"bool","indexed":false,"internalType":"bool"},{"name":"notes","type":"string","indexed":false,"internalType":"string"}],"anonymous":false},{"type":"event","name":"ApprovalDestinationApproved","inputs":[{"name":"sender","type":"address","indexed":false,"internalType":"address"},{"name":"notes","type":"string","indexed":false,"internalType":"string"}],"anonymous":false},{"type":"event","name":"ApprovalDestinationRemoved","inputs":[{"name":"sender","type":"address","indexed":false,"internalType":"address"},{"name":"notes","type":"string","indexed":false,"internalType":"string"}],"anonymous":false},{"type":"event","name":"AssetApproved","inputs":[{"name":"sender","type":"address","indexed":false,"internalType":"address"},{"name":"notes","type":"string","indexed":false,"internalType":"string"}],"anonymous":false},{"type":"event","name":"AssetRemoved","inputs":[{"name":"sender","type":"address","indexed":false,"internalType":"address"},{"name":"notes","type":"string","indexed":false,"internalType":"string"}],"anonymous":false},{"type":"event","name":"AvatarSet","inputs":[{"name":"previousAvatar","type":"address","indexed":true,"internalType":"address"},{"name":"newAvatar","type":"address","indexed":true,"internalType":"address"}],"anonymous":false},{"type":"event","name":"CallSiteApproved","inputs":[{"name":"target","type":"address","indexed":false,"internalType":"address"},{"name":"selector","type":"bytes4","indexed":false,"internalType":"bytes4"},{"name":"notes","type":"string","indexed":false,"internalType":"string"}],"anonymous":false},{"type":"event","name":"CallSiteRemoved","inputs":[{"name":"target","type":"address","indexed":false,"internalType":"address"},{"name":"selector","type":"bytes4","indexed":false,"internalType":"bytes4"},{"name":"notes","type":"string","indexed":false,"internalType":"string"}],"anonymous":false},{"type":"event","name":"DelegationApprovalDestinationApproved","inputs":[{"name":"sender","type":"address","indexed":false,"internalType":"address"},{"name":"notes","type":"string","indexed":false,"internalType":"string"}],"anonymous":false},{"type":"event","name":"DelegationApprovalDestinationRemoved","inputs":[{"name":"sender","type":"address","indexed":false,"internalType":"address"},{"name":"notes","type":"string","indexed":false,"internalType":"string"}],"anonymous":false},{"type":"event","name":"Initialized","inputs":[{"name":"version","type":"uint64","indexed":false,"internalType":"uint64"}],"anonymous":false},{"type":"event","name":"LagoonVaultApproved","inputs":[{"name":"vault","type":"address","indexed":false,"internalType":"address"},{"name":"notes","type":"string","indexed":false,"internalType":"string"}],"anonymous":false},{"type":"event","name":"OwnershipTransferred","inputs":[{"name":"previousOwner","type":"address","indexed":true,"internalType":"address"},{"name":"newOwner","type":"address","indexed":true,"internalType":"address"}],"anonymous":false},{"type":"event","name":"ReceiverApproved","inputs":[{"name":"sender","type":"address","indexed":false,"internalType":"address"},{"name":"notes","type":"string","indexed":false,"internalType":"string"}],"anonymous":false},{"type":"event","name":"ReceiverRemoved","inputs":[{"name":"sender","type":"address","indexed":false,"internalType":"address"},{"name":"notes","type":"string","indexed":false,"internalType":"string"}],"anonymous":false},{"type":"event","name":"SenderApproved","inputs":[{"name":"sender","type":"address","indexed":false,"internalType":"address"},{"name":"notes","type":"string","indexed":false,"internalType":"string"}],"anonymous":false},{"type":"event","name":"SenderRemoved","inputs":[{"name":"sender","type":"address","indexed":false,"internalType":"address"},{"name":"notes","type":"string","indexed":false,"internalType":"string"}],"anonymous":false},{"type":"event","name":"TargetSet","inputs":[{"name":"previousTarget","type":"address","indexed":true,"internalType":"address"},{"name":"newTarget","type":"address","indexed":true,"internalType":"address"}],"anonymous":false},{"type":"event","name":"WithdrawDestinationApproved","inputs":[{"name":"sender","type":"address","indexed":false,"internalType":"address"},{"name":"notes","type":"string","indexed":false,"internalType":"string"}],"anonymous":false},{"type":"event","name":"WithdrawDestinationRemoved","inputs":[{"name":"sender","type":"address","indexed":false,"internalType":"address"},{"name":"notes","type":"string","indexed":false,"internalType":"string"}],"anonymous":false},{"type":"error","name":"InvalidInitialization","inputs":[]},{"type":"error","name":"NotInitializing","inputs":[]},{"type":"error","name":"OwnableInvalidOwner","inputs":[{"name":"owner","type":"address","internalType":"address"}]},{"type":"error","name":"OwnableUnauthorizedAccount","inputs":[{"name":"account","type":"address","internalType":"address"}]}],"bytecode":{"object":"0x608060405234801561000f575f80fd5b5060405161407e38038061407e83398101604081905261002e916103f1565b604080516001600160a01b03848116602083015283168183015281518082038301815260609091019091526100628161006a565b505050610429565b7ff0c57e16840df040f15088dc2f81fe391c3923bec73e23a9662efc9c229c6a00805468010000000000000000810460ff1615906001600160401b03165f811580156100b35750825b90505f826001600160401b031660011480156100ce5750303b155b9050811580156100dc575080155b156100fa5760405163f92ee8a960e01b815260040160405180910390fd5b84546001600160401b0319166001178555831561012857845460ff60401b1916680100000000000000001785555b610131336101b7565b5f808780602001905181019061014791906103f1565b9092509050610155816101cb565b61015e81610222565b6101678261027b565b505083156101af57845460ff60401b19168555604051600181527fc7f505b2f371ae2175ee4913f4499e1f2633a7b5936321eed1cdaeb6115181d29060200160405180910390a15b505050505050565b6101bf6102ba565b6101c88161030a565b50565b6101d3610312565b5f80546001600160a01b038381166001600160a01b0319831681178455604051919092169283917f52ae88b092de36f87fb43fe794eb1381023b9c1bce563a871154022c63dce3429190a35050565b61022a610312565b600180546001600160a01b038381166001600160a01b0319831681179093556040519116919082907f90cc2f570a6eb594b1580ea3e41247d2d73a55281889e86bd4ec2fc29c7e62d6905f90a35050565b610283610312565b6001600160a01b0381166102b157604051631e4fbdf760e01b81525f60048201526024015b60405180910390fd5b6101c88161036d565b7ff0c57e16840df040f15088dc2f81fe391c3923bec73e23a9662efc9c229c6a005468010000000000000000900460ff1661030857604051631afcd79f60e31b815260040160405180910390fd5b565b6102836102ba565b336103447f9016d09d72d40fdae2fd8ceac6b6234c7706214fd39c1cd1e609a0528c199300546001600160a01b031690565b6001600160a01b0316146103085760405163118cdaa760e01b81523360048201526024016102a8565b7f9016d09d72d40fdae2fd8ceac6b6234c7706214fd39c1cd1e609a0528c19930080546001600160a01b031981166001600160a01b03848116918217845560405192169182907f8be0079c531659141344cd1fd0a4f28419497f9722a3daafe3b4186f6b6457e0905f90a3505050565b6001600160a01b03811681146101c8575f80fd5b5f8060408385031215610402575f80fd5b825161040d816103dd565b602084015190925061041e816103dd565b809150509250929050565b613c48806104365f395ff3fe608060405234801561000f575f80fd5b5060043610610422575f3560e01c80638c2fdf9e1161022c578063d075f9bb11610135578063efb47bff116100bf578063f76081e411610084578063f76081e414610a48578063f901dc3314610a5b578063fa2c59c814610a6e578063fadbcf4814610a81578063fdedfa2714610aa3575f80fd5b8063efb47bff146109df578063f20e85e014610a0f578063f259a07314610426578063f26749f314610a22578063f2fde38b14610a35575f80fd5b8063d7334c9d11610105578063d7334c9d14610971578063e98539c514610984578063eb0de04214610997578063ebe26816146109b9578063ee5462cc146109cc575f80fd5b8063d075f9bb14610925578063d2f73e3d14610938578063d4b839921461094b578063d4c0fe451461095e575f80fd5b8063a847cf4d116101b6578063be8c97b011610186578063be8c97b0146108bc578063c2e657ae146108ec578063c4cc9dba146108ff578063c537bed014610912578063ca963c501461065d575f80fd5b8063a847cf4d14610843578063a9fc3d4f14610870578063b3c329cb14610887578063b8fe8d5f1461089a575f80fd5b806398b3cc39116101fc57806398b3cc39146107d5578063a1b6b430146107e8578063a4c1cccb146107fb578063a4f9edbf1461081d578063a67e1f5414610830575f80fd5b80638c2fdf9e146107855780638da5cb5b146107985780638fb4dff2146107a0578063957dc6c0146107c2575f80fd5b80635e4ccace1161032e578063715018a6116102b8578063776d1a0111610288578063776d1a011461070f57806378addb48146107225780637ea446551461075257806386b6dbe5146107655780638730160814610778575f80fd5b8063715018a6146106d957806372e548a9146106e157806373252494146106f4578063761bcd9c146106fc575f80fd5b80636ad11353116102fe5780636ad113531461065d5780636d5025f1146106705780636d9a1423146106835780636fd7fdef14610696578063713ebf3b146106c6575f80fd5b80635e4ccace146106115780635e6afe4d1461062457806363cc17f2146106375780636a6d5cc81461064a575f80fd5b806334ec8d7e116103af5780634b9412681161037f5780634b9412681461058c5780634b956bd8146105ae57806359b92be9146105c15780635ace1d92146105d45780635aef7de6146105e7575f80fd5b806334ec8d7e146105315780633cf20025146105445780633ea3555114610566578063425f49d014610579575f80fd5b80631710a4f2116103f55780631710a4f2146104985780631c123e77146104ab5780631d49039c146104be5780632d12d788146104ee5780632dc32a6114610501575f80fd5b806304a3ba251461042657806307ac35621461043b57806307ef00cf1461044e578063086cfca814610485575b5f80fd5b6104396104343660046130a4565b610ab2565b005b61043961044936600461315e565b610b1a565b61047061045c3660046131d7565b60086020525f908152604090205460ff1681565b60405190151581526020015b60405180910390f35b6104396104933660046131d7565b610e55565b6104396104a636600461315e565b610eac565b6104396104b936600461315e565b610f60565b6104706104cc3660046131d7565b6001600160a01b03165f9081526009602052604090205460ff16151560011490565b6104396104fc3660046130a4565b610fd9565b61047061050f3660046131d7565b6001600160a01b03165f908152600a602052604090205460ff16151560011490565b61043961053f3660046130a4565b611034565b6104706105523660046131d7565b60076020525f908152604090205460ff1681565b6104396105743660046130a4565b6110af565b61043961058736600461315e565b6110da565b61047061059a3660046131d7565b600a6020525f908152604090205460ff1681565b6104396105bc36600461315e565b6110fb565b6104396105cf36600461315e565b61119e565b6104396105e23660046130a4565b61121f565b5f546105f9906001600160a01b031681565b6040516001600160a01b03909116815260200161047c565b61043961061f366004613215565b61127d565b6104396106323660046130a4565b611329565b6104396106453660046130a4565b611426565b61043961065836600461315e565b611484565b61043961066b36600461315e565b61152b565b61043961067e366004613273565b61154d565b6104396106913660046130a4565b61155f565b6104706106a43660046131d7565b6001600160a01b03165f908152600b602052604090205460ff16151560011490565b6104706106d43660046132a1565b611595565b6104396115cc565b6104396106ef3660046130a4565b6115df565b6105f961163d565b61043961070a36600461315e565b61164b565b61043961071d3660046131d7565b611754565b6104706107303660046131d7565b6001600160a01b03165f9081526003602052604090205460ff16151560011490565b61043961076036600461315e565b6117ad565b6104396107733660046130a4565b6117e9565b600c546104709060ff1681565b6104396107933660046130a4565b611847565b6105f96118a2565b6104706107ae3660046131d7565b600b6020525f908152604090205460ff1681565b6104396107d036600461315e565b6118d0565b6104396107e33660046130a4565b61198e565b6104396107f636600461315e565b6119ec565b6104706108093660046131d7565b60056020525f908152604090205460ff1681565b61043961082b36600461315e565b611b32565b61043961083e3660046130a4565b611c75565b6104706108513660046132a1565b600260209081525f928352604080842090915290825290205460ff1681565b61087960045481565b60405190815260200161047c565b6104396108953660046131d7565b611cd0565b6104706108a83660046131d7565b60036020525f908152604090205460ff1681565b6104706108ca3660046131d7565b6001600160a01b03165f9081526006602052604090205460ff16151560011490565b6104396108fa3660046132e1565b611d39565b61043961090d36600461315e565b611d83565b6104706109203660046131d7565b611e3d565b6104706109333660046131d7565b611e6e565b6104396109463660046130a4565b611e90565b6001546105f9906001600160a01b031681565b61043961096c36600461315e565b611ef1565b61043961097f366004613215565b611f30565b61043961099236600461315e565b611fa2565b6104706109a53660046131d7565b60096020525f908152604090205460ff1681565b6104396109c736600461315e565b612043565b6104396109da3660046130a4565b6120d9565b6104706109ed3660046131d7565b6001600160a01b03165f9081526008602052604090205460ff16151560011490565b610439610a1d3660046130a4565b61218e565b610439610a30366004613273565b6121e4565b610439610a433660046131d7565b612259565b610439610a5636600461315e565b612293565b610439610a693660046130a4565b61230e565b610439610a7c3660046130a4565b612369565b610470610a8f3660046131d7565b60066020525f908152604090205460ff1681565b6040516001815260200161047c565b610aba6123c7565b6001600160a01b0383165f9081526009602052604090819020805460ff19169055517fb71be9befd3ac90c1c9981d3b1161b3c2c6dcd741f13b34061aa251226a802df90610b0d90859085908590613326565b60405180910390a1505050565b5f81806020019051810190610b2f91906133c2565b90505f5b8151811015610e50575f828281518110610b4f57610b4f613471565b602002602001015190505f610b705f6004846123f99092919063ffffffff16565b610b7990613485565b90505f610b966004808551610b8e91906134d7565b8591906123f9565b6040805180820190915260208082527f7472616e736665724552433230496e28616464726573732c75696e74323536299101529050631dac092b60e11b6001600160e01b0319831601610bf157610bec8161119e565b610e45565b60408051808201909152601b81527f7472616e736665724552433230416c6c496e2861646472657373290000000000602090910152635cf59cb760e11b6001600160e01b0319831601610c4757610bec816117ad565b60408051808201909152601881527f6465706f73697428616464726573732c6164647265737329000000000000000060209091015262d3ec1f60e31b6001600160e01b0319831601610c9c57610bec81611d83565b60408051808201909152601981527f776974686472617728616464726573732c6164647265737329000000000000006020909101526306bf1c7b60e01b6001600160e01b0319831601610cf257610bec81612293565b610d19604051806060016040528060278152602001613bb860279139805160209091012090565b6001600160e01b031916826001600160e01b03191603610d3c57610bec8161152b565b610d63604051806060016040528060288152602001613b9060289139805160209091012090565b6001600160e01b031916826001600160e01b03191603610d8657610bec8161152b565b60408051808201909152601e81527f666c61736853776170416c6c4f75742875696e743235362c627974657329000060209091015263d2b3d16560e01b6001600160e01b0319831601610ddc57610bec816110da565b60405162461bcd60e51b815260206004820152603360248201527f76616c69646174655f3164656c74614d756c746963616c6c3a20556e6b6e6f776044820152723710333ab731ba34b7b71039b2b632b1ba37b960691b60648201526084015b60405180910390fd5b505050600101610b33565b505050565b610e5d6123c7565b5f80546001600160a01b038381166001600160a01b0319831681178455604051919092169283917f52ae88b092de36f87fb43fe794eb1381023b9c1bce563a871154022c63dce3429190a35050565b5f81806020019051810190610ec191906134f5565b509050610eea816001600160a01b03165f9081526008602052604090205460ff16151560011490565b610f5c5760405162461bcd60e51b815260206004820152603c60248201527f76616c69646174655f7472616e736665723a205265636569766572206164647260448201527f657373206e6f742077686974656c6973746564206279204775617264000000006064820152608401610e3c565b5050565b5f805b610f6c8361254f565b5092509050610f7a82611e3d565b610f965760405162461bcd60e51b8152600401610e3c90613521565b610f9f81611e3d565b610fbb5760405162461bcd60e51b8152600401610e3c90613521565b610fc48361258a565b15610e5057610fd2836125c3565b9250610f63565b610fe16123c7565b6001600160a01b0383165f9081526007602052604090819020805460ff19169055517f4e13b11ab98e672bd78295ef9cebe764dc617f95decf47d842c25b83abc0c72490610b0d90859085908590613326565b6110668361105f604051806060016040528060338152602001613b5d60339139805160209091012090565b848461127d565b6110918361105f604051806060016040528060348152602001613bdf60349139805160209091012090565b6110a48363b858183f60e01b848461127d565b610e5083838361198e565b6110a48361105f604051806080016040528060438152602001613ab160439139805160209091012090565b5f818060200190518101906110ef9190613569565b915050610f5c816119ec565b5f8180602001905181019061111091906134f5565b509050611139816001600160a01b03165f9081526009602052604090205460ff16151560011490565b610f5c5760405162461bcd60e51b815260206004820152603060248201527f76616c69646174655f617070726f76653a20417070726f76652061646472657360448201526f0e640c8decae640dcdee840dac2e8c6d60831b6064820152608401610e3c565b5f818060200190518101906111b391906134f5565b5090506111bf81611e3d565b610f5c5760405162461bcd60e51b815260206004820152602b60248201527f76616c69646174655f7472616e736665724552433230496e3a20546f6b656e2060448201526a1b9bdd08185b1b1bddd95960aa1b6064820152608401610e3c565b6112276123c7565b6001600160a01b0383165f9081526008602052604090819020805460ff19166001179055517f3562181221a42a19ddd03a82dfe06acab1905ceb65cdaf7d86a1d9fec664355290610b0d90859085908590613326565b6112856123c7565b6001600160a01b0384165f8181526002602090815260408083206001600160e01b03198816845282528083208054600160ff1991821681179092559484526003909252822080549093161790915560048054916112e1836135ad565b91905055507fef729aaa41b9fd994f9ff7c1960df214a84f722002e6cfbea31799cd0873a3ef8484848460405161131b94939291906135c5565b60405180910390a150505050565b6113316123c7565b6001600160a01b0383165f908152600b6020908152604091829020805460ff191660011790558151808301909252600f82526e736574746c654465706f736974282960881b9101526113a3837f559ec80da0b29925dac0e329ba0aaf8bbf2760bcaf9174e4ca42e01d74c0e6d061105f565b60408051808201909152600e81526d736574746c6552656465656d282960901b6020909101526113f3837fa03d55e3f74b6754c01f274bb12d9c8a11ea8330b6b4ce7125c8dff1f63646ca61105f565b7ffaa136302ac223cf7c1146490a741e4520e886fc22d7e759641453f432283d01838383604051610b0d93929190613326565b61142e6123c7565b6001600160a01b0383165f908152600a602052604090819020805460ff19166001179055517f628a44970c0e450415e3ae74334ea44f3307b74dbf677a1371190242bf2f358990610b0d90859085908590613326565b5f808280602001905181019061149a9190613603565b92505091506114a882611e3d565b6114c45760405162461bcd60e51b8152600401610e3c90613643565b6114cd81611e6e565b610e505760405162461bcd60e51b815260206004820152602960248201527f52656365697665722061646472657373206e6f742077686974656c697374656460448201526808189e4811dd585c9960ba1b6064820152608401610e3c565b5f81806020019051810190611540919061366e565b92505050610f5c816119ec565b611559848484846125f4565b50505050565b61158a8361105f604051806060016040528060228152602001613b3b60229139805160209091012090565b610e508383836117e9565b6001600160a01b0382165f9081526002602090815260408083206001600160e01b03198516845290915290205460ff165b92915050565b6115d46123c7565b6115dd5f612d93565b565b6115e76123c7565b6001600160a01b0383165f9081526007602052604090819020805460ff19166001179055517f62dd88c5ecfa60713a657640ebec4de26fc1aefa4afdb24e6d15a124fce7277990610b0d90859085908590613326565b5f6116466118a2565b905090565b5f808280602001905181019061166191906136ba565b5093509350505061167181611e6e565b6116f85760405162461bcd60e51b815260206004820152604c60248201527f76616c69646174655f737761704578616374546f6b656e73466f72546f6b656e60448201527f733a2052656365697665722061646472657373206e6f742077686974656c697360648201526b1d195908189e4811dd585c9960a21b608482015260a401610e3c565b5f805b835181101561174d5783818151811061171657611716613471565b6020026020010151915061172982611e3d565b6117455760405162461bcd60e51b8152600401610e3c90613643565b6001016116fb565b5050505050565b61175c6123c7565b600180546001600160a01b038381166001600160a01b0319831681179093556040519116919082907f90cc2f570a6eb594b1580ea3e41247d2d73a55281889e86bd4ec2fc29c7e62d6905f90a35050565b5f818060200190518101906117c29190613783565b90506117cd81611e3d565b610f5c5760405162461bcd60e51b8152600401610e3c9061379e565b6117f16123c7565b6001600160a01b0383165f9081526005602052604090819020805460ff19166001179055517fad90e2570fc4fe9f7437be3188d5c791c6662892d31731992aa88f5c8762198390610b0d90859085908590613326565b61184f6123c7565b6001600160a01b0383165f9081526008602052604090819020805460ff19169055517f1212f8ddb39de8e1a339460c95752d61100723efeaa34ccd94bca94393f4093890610b0d90859085908590613326565b7f9016d09d72d40fdae2fd8ceac6b6234c7706214fd39c1cd1e609a0528c199300546001600160a01b031690565b5f818060200190518101906118e591906134f5565b50905061190e816001600160a01b03165f908152600a602052604090205460ff16151560011490565b610f5c5760405162461bcd60e51b815260206004820152604560248201527f76616c69646174655f617070726f766544656c65676174696f6e3a204170707260448201527f6f76652064656c65676174696f6e206164647265737320646f6573206e6f74206064820152640dac2e8c6d60db1b608482015260a401610e3c565b6119966123c7565b6001600160a01b0383165f9081526009602052604090819020805460ff19166001179055517f628a44970c0e450415e3ae74334ea44f3307b74dbf677a1371190242bf2f358990610b0d90859085908590613326565b5f805b6119f9835f612e03565b9150611a28600180611a0d600360146137ec565b611a1791906137ec565b611a2191906137ec565b8490612e03565b9050611a3382611e3d565b611a4f5760405162461bcd60e51b8152600401610e3c906137ff565b611a5881611e3d565b611a745760405162461bcd60e51b8152600401610e3c906137ff565b600180611a83600360146137ec565b611a8d91906137ec565b611a9791906137ec565b6014600180611aa76003846137ec565b611ab191906137ec565b611abb91906137ec565b611ac591906137ec565b611acf91906137ec565b835110610e5057611b2b600180611ae8600360146137ec565b611af291906137ec565b611afc91906137ec565b600180611b0b600360146137ec565b611b1591906137ec565b611b1f91906137ec565b8551610b8e91906134d7565b92506119ef565b7ff0c57e16840df040f15088dc2f81fe391c3923bec73e23a9662efc9c229c6a008054600160401b810460ff1615906001600160401b03165f81158015611b765750825b90505f826001600160401b03166001148015611b915750303b155b905081158015611b9f575080155b15611bbd5760405163f92ee8a960e01b815260040160405180910390fd5b845467ffffffffffffffff191660011785558315611be757845460ff60401b1916600160401b1785555b611bf033612eb6565b5f8087806020019051810190611c069190613844565b91509150611c1381610e55565b611c1c81611754565b611c2582612259565b50508315611c6d57845460ff60401b19168555604051600181527fc7f505b2f371ae2175ee4913f4499e1f2633a7b5936321eed1cdaeb6115181d29060200160405180910390a15b505050505050565b611c7d6123c7565b6001600160a01b0383165f9081526006602052604090819020805460ff19169055517f3097928509c53a2dab9500431201d82b0d756e8f890fd01f4ae6b33b45687ea490610b0d90859085908590613326565b611cf6816001600160a01b03165f908152600b602052604090205460ff16151560011490565b611d365760405162461bcd60e51b815260206004820152601160248201527015985d5b1d081b9bdd08185b1b1bddd959607a1b6044820152606401610e3c565b50565b611d416123c7565b600c805460ff19168415151790556040517f50454d9d0025a28a39cac5a4b3f3101d29b6e413fbb64f75fb42eb6837b0771890610b0d9085908590859061387c565b5f8082806020019051810190611d999190613844565b91509150611da682611e3d565b611dc25760405162461bcd60e51b8152600401610e3c9061379e565b611dcb81611e6e565b610e505760405162461bcd60e51b815260206004820152603b60248201527f76616c69646174655f6465706f7369743a20526563656976657220616464726560448201527f7373206e6f742077686974656c697374656420627920477561726400000000006064820152608401610e3c565b600c545f9060ff16806115c65750506001600160a01b03165f9081526005602052604090205460ff16151560011490565b6001600160a01b03165f9081526007602052604090205460ff16151560011490565b5f6060611e9f338686866125f4565b611edf855f86868080601f0160208091040260200160405190810160405280939291908181526020018383808284375f9201829052509250612ec7915050565b90925090508161174d57805160208201fd5b5f81806020019051810190611f069190613897565b5050509050611f1481611e3d565b610f5c5760405162461bcd60e51b8152600401610e3c90613643565b611f386123c7565b6001600160a01b0384165f9081526002602090815260408083206001600160e01b03198716845290915290819020805460ff19169055517f37ea10f2d08f5a9803dfcd5abf3cfc7b0d6fcdf5fcbc36be9ea5a0b53d9a4d9b9061131b9086908690869086906135c5565b5f81806020019051810190611fb79190613973565b9050611fc68160200151611e6e565b6120385760405162461bcd60e51b815260206004820152603f60248201527f76616c69646174655f65786163744f75747075743a205265636569766572206160448201527f646472657373206e6f742077686974656c6973746564206279204775617264006064820152608401610e3c565b8051610f5c90610f60565b5f818060200190518101906120589190613973565b90506120678160200151611e6e565b6120385760405162461bcd60e51b815260206004820152603e60248201527f76616c69646174655f6578616374496e7075743a20526563656976657220616460448201527f6472657373206e6f742077686974656c697374656420627920477561726400006064820152608401610e3c565b6040805180820190915260198152787472616e7366657228616464726573732c75696e743235362960381b602090910152612134837fa9059cbb2ab09eb219583f4a59a5d0623ade346d962bcd4e46b11da047c9049b61105f565b604080518082019091526018815277617070726f766528616464726573732c75696e743235362960401b60209091015261158a837f095ea7b334ae44009aa867bfb386f5c3b4b443ac6f0ee573fa91c4608fbadfba61105f565b6121b98361105f604051806060016040528060268152602001613af460269139805160209091012090565b6110a48361105f604051806060016040528060218152602001613b1a60219139805160209091012090565b6040805180820190915260128152716d756c746963616c6c2862797465735b5d2960701b602090910152612238847fac9650d882acfa253cba1ed543b9ff47351da99c3bd00a89625e5cdb2099009c61105f565b61224384838361198e565b61224e83838361198e565b611559848383611426565b6122616123c7565b6001600160a01b03811661228a57604051631e4fbdf760e01b81525f6004820152602401610e3c565b611d3681612d93565b5f80828060200190518101906122a99190613844565b915091506122b682611e3d565b611dc25760405162461bcd60e51b8152602060048201526024808201527f76616c69646174655f77697468647261773a20546f6b656e206e6f7420616c6c6044820152631bddd95960e21b6064820152608401610e3c565b6123166123c7565b6001600160a01b0383165f9081526005602052604090819020805460ff19169055517f9ca3f065622f5f03f32b7157677a0e420c3a36ab45fd49f256ffebce3e31058790610b0d90859085908590613326565b6123716123c7565b6001600160a01b0383165f9081526006602052604090819020805460ff19166001179055517fa8f9caaf4861720900294428e4ff34d37070c37afd26d96e6e4da75326d2c3ad90610b0d90859085908590613326565b336123d06118a2565b6001600160a01b0316146115dd5760405163118cdaa760e01b8152336004820152602401610e3c565b60608161240781601f6137ec565b10156124465760405162461bcd60e51b815260206004820152600e60248201526d736c6963655f6f766572666c6f7760901b6044820152606401610e3c565b8261245183826137ec565b10156124905760405162461bcd60e51b815260206004820152600e60248201526d736c6963655f6f766572666c6f7760901b6044820152606401610e3c565b61249a82846137ec565b845110156124de5760405162461bcd60e51b8152602060048201526011602482015270736c6963655f6f75744f66426f756e647360781b6044820152606401610e3c565b6060821580156124fc5760405191505f825260208201604052612546565b6040519150601f8416801560200281840101858101878315602002848b0101015b8183101561253557805183526020928301920161251d565b5050858452601f01601f1916604052505b50949350505050565b5f808061255c8482612e03565b9250612569846014612f51565b905061258161257a600360146137ec565b8590612e03565b91509193909250565b5f612597600360146137ec565b60146125a46003826137ec565b6125ae91906137ec565b6125b891906137ec565b825110159050919050565b60606115c66125d4600360146137ec565b6125e0600360146137ec565b84516125ec91906134d7565b8491906123f9565b6125fc61163d565b6001600160a01b0316846001600160a01b031603156115595761263b846001600160a01b03165f9081526006602052604090205460ff16151560011490565b6126875760405162461bcd60e51b815260206004820181905260248201527f76616c696461746543616c6c3a2053656e646572206e6f7420616c6c6f7765646044820152606401610e3c565b5f61269560048284866139ac565b61269e916139d3565b9050365f6126af84600481886139ac565b600c5491935091505f9060ff1680156127085750604080518082019091526018815277617070726f766528616464726573732c75696e743235362960401b60209091015263095ea7b360e01b6001600160e01b03198516145b9050806127fe576127198785611595565b6127fe57612743876001600160a01b03165f9081526003602052604090205460ff16151560011490565b61278f5760405162461bcd60e51b815260206004820181905260248201527f76616c696461746543616c6c3a20746172676574206e6f7420616c6c6f7765646044820152606401610e3c565b6127998785611595565b6127fe5760405162461bcd60e51b815260206004820152603060248201527f76616c696461746543616c6c3a2073656c6563746f72206e6f7420616c6c6f7760448201526f1959081bdb881d1a19481d185c99d95d60821b6064820152608401610e3c565b612825604051806080016040528060438152602001613ab160439139805160209091012090565b6001600160e01b031916846001600160e01b031916036128825761287d83838080601f0160208091040260200160405190810160405280939291908181526020018383808284375f9201919091525061164b92505050565b612d89565b6128a9604051806060016040528060338152602001613b5d60339139805160209091012090565b6001600160e01b031916846001600160e01b031916036129015761287d83838080601f0160208091040260200160405190810160405280939291908181526020018383808284375f9201919091525061204392505050565b6001600160e01b0319841663b858183f60e01b036129a857600c5460ff1661287d5760405162461bcd60e51b815260206004820152604e60248201527f76616c696461746543616c6c3a2053776170526f75746572303220697320637560448201527f7272656e746c7920737570706f72746564206f6e6c79207769746820616e794160648201526d1cdcd95d081dda1a5d195b1a5cdd60921b608482015260a401610e3c565b6040805180820190915260128152716d756c746963616c6c2862797465735b5d2960701b602090910152630a6d35e560e31b6001600160e01b0319851601612a285761287d83838080601f0160208091040260200160405190810160405280939291908181526020018383808284375f92019190915250610b1a92505050565b6040805180820190915260198152787472616e7366657228616464726573732c75696e743235362960381b6020909101526356fa634560e01b6001600160e01b0319851601612aaf5761287d83838080601f0160208091040260200160405190810160405280939291908181526020018383808284375f92019190915250610eac92505050565b604080518082019091526018815277617070726f766528616464726573732c75696e743235362960401b60209091015263f6a1584d60e01b6001600160e01b0319851601612b355761287d83838080601f0160208091040260200160405190810160405280939291908181526020018383808284375f920191909152506110fb92505050565b612b5c604051806060016040528060228152602001613b3b60229139805160209091012090565b6001600160e01b031916846001600160e01b03191603612bb45761287d83838080601f0160208091040260200160405190810160405280939291908181526020018383808284375f920191909152506118d092505050565b612bdb604051806060016040528060268152602001613af460269139805160209091012090565b6001600160e01b031916846001600160e01b03191603612c335761287d83838080601f0160208091040260200160405190810160405280939291908181526020018383808284375f92019190915250611ef192505050565b612c5a604051806060016040528060218152602001613b1a60219139805160209091012090565b6001600160e01b031916846001600160e01b03191603612cb25761287d83838080601f0160208091040260200160405190810160405280939291908181526020018383808284375f9201919091525061148492505050565b60408051808201909152600f81526e736574746c654465706f736974282960881b60209091015263aa6137f360e01b6001600160e01b0319851601612cfa5761287d87611cd0565b60408051808201909152600e81526d736574746c6552656465656d282960901b602090910152635fc2aa1d60e01b6001600160e01b0319851601612d415761287d87611cd0565b60405162461bcd60e51b815260206004820152601960248201527f556e6b6e6f776e2066756e6374696f6e2073656c6563746f72000000000000006044820152606401610e3c565b5050505050505050565b7f9016d09d72d40fdae2fd8ceac6b6234c7706214fd39c1cd1e609a0528c19930080546001600160a01b031981166001600160a01b03848116918217845560405192169182907f8be0079c531659141344cd1fd0a4f28419497f9722a3daafe3b4186f6b6457e0905f90a3505050565b5f81612e108160146137ec565b1015612e535760405162461bcd60e51b8152602060048201526012602482015271746f416464726573735f6f766572666c6f7760701b6044820152606401610e3c565b612e5e8260146137ec565b83511015612ea65760405162461bcd60e51b8152602060048201526015602482015274746f416464726573735f6f75744f66426f756e647360581b6044820152606401610e3c565b500160200151600160601b900490565b612ebe612ffb565b611d3681613044565b600154604051635229073f60e01b81525f916060916001600160a01b0390911690635229073f90612f02908990899089908990600401613a0b565b5f604051808303815f875af1158015612f1d573d5f803e3d5ffd5b505050506040513d5f823e601f3d908101601f19168201604052612f449190810190613a79565b9150915094509492505050565b5f81612f5e8160036137ec565b1015612fa05760405162461bcd60e51b8152602060048201526011602482015270746f55696e7432345f6f766572666c6f7760781b6044820152606401610e3c565b612fab8260036137ec565b83511015612ff25760405162461bcd60e51b8152602060048201526014602482015273746f55696e7432345f6f75744f66426f756e647360601b6044820152606401610e3c565b50016003015190565b7ff0c57e16840df040f15088dc2f81fe391c3923bec73e23a9662efc9c229c6a0054600160401b900460ff166115dd57604051631afcd79f60e31b815260040160405180910390fd5b612261612ffb565b6001600160a01b0381168114611d36575f80fd5b5f8083601f840112613070575f80fd5b5081356001600160401b03811115613086575f80fd5b60208301915083602082850101111561309d575f80fd5b9250929050565b5f805f604084860312156130b6575f80fd5b83356130c18161304c565b925060208401356001600160401b038111156130db575f80fd5b6130e786828701613060565b9497909650939450505050565b634e487b7160e01b5f52604160045260245ffd5b604051601f8201601f191681016001600160401b0381118282101715613130576131306130f4565b604052919050565b5f6001600160401b03821115613150576131506130f4565b50601f01601f191660200190565b5f6020828403121561316e575f80fd5b81356001600160401b03811115613183575f80fd5b8201601f81018413613193575f80fd5b80356131a66131a182613138565b613108565b8181528560208385010111156131ba575f80fd5b816020840160208301375f91810160200191909152949350505050565b5f602082840312156131e7575f80fd5b81356131f28161304c565b9392505050565b80356001600160e01b031981168114613210575f80fd5b919050565b5f805f8060608587031215613228575f80fd5b84356132338161304c565b9350613241602086016131f9565b925060408501356001600160401b0381111561325b575f80fd5b61326787828801613060565b95989497509550505050565b5f805f8060608587031215613286575f80fd5b84356132918161304c565b935060208501356132418161304c565b5f80604083850312156132b2575f80fd5b82356132bd8161304c565b91506132cb602084016131f9565b90509250929050565b8015158114611d36575f80fd5b5f805f604084860312156132f3575f80fd5b83356130c1816132d4565b81835281816020850137505f828201602090810191909152601f909101601f19169091010190565b6001600160a01b03841681526040602082018190525f9061334a90830184866132fe565b95945050505050565b5f6001600160401b0382111561336b5761336b6130f4565b5060051b60200190565b5f82601f830112613384575f80fd5b81516133926131a182613138565b8181528460208386010111156133a6575f80fd5b8160208501602083015e5f918101602001919091529392505050565b5f602082840312156133d2575f80fd5b81516001600160401b038111156133e7575f80fd5b8201601f810184136133f7575f80fd5b80516134056131a182613353565b8082825260208201915060208360051b850101925086831115613426575f80fd5b602084015b838110156134665780516001600160401b03811115613448575f80fd5b61345789602083890101613375565b8452506020928301920161342b565b509695505050505050565b634e487b7160e01b5f52603260045260245ffd5b805160208201516001600160e01b03198116919060048210156134bc576001600160e01b0319600483900360031b81901b82161692505b5050919050565b634e487b7160e01b5f52601160045260245ffd5b818103818111156115c6576115c66134c3565b80516132108161304c565b5f8060408385031215613506575f80fd5b82516135118161304c565b6020939093015192949293505050565b60208082526028908201527f76616c6964617465556e69737761705633506174683a20546f6b656e206e6f7460408201526708185b1b1bddd95960c21b606082015260800190565b5f806040838503121561357a575f80fd5b825160208401519092506001600160401b03811115613597575f80fd5b6135a385828601613375565b9150509250929050565b5f600182016135be576135be6134c3565b5060010190565b6001600160a01b03851681526001600160e01b0319841660208201526060604082018190525f906135f990830184866132fe565b9695505050505050565b5f805f60608486031215613615575f80fd5b83516136208161304c565b6020850151604086015191945092506136388161304c565b809150509250925092565b602080825260119082015270151bdad95b881b9bdd08185b1b1bddd959607a1b604082015260600190565b5f805f60608486031215613680575f80fd5b83516020850151604086015191945092506001600160401b038111156136a4575f80fd5b6136b086828701613375565b9150509250925092565b5f805f805f60a086880312156136ce575f80fd5b85516020870151604088015191965094506001600160401b038111156136f2575f80fd5b8601601f81018813613702575f80fd5b80516137106131a182613353565b8082825260208201915060208360051b85010192508a831115613731575f80fd5b6020840193505b8284101561375c57835161374b8161304c565b825260209384019390910190613738565b955061376e92505050606087016134ea565b60809690960151949793965091949392915050565b5f60208284031215613793575f80fd5b81516131f28161304c565b6020808252602e908201527f76616c69646174655f7472616e736665724552433230416c6c496e3a20546f6b60408201526d195b881b9bdd08185b1b1bddd95960921b606082015260800190565b808201808211156115c6576115c66134c3565b60208082526025908201527f76616c69646174653164656c7461506174683a20546f6b656e206e6f7420616c6040820152641b1bddd95960da1b606082015260800190565b5f8060408385031215613855575f80fd5b82516138608161304c565b60208401519092506138718161304c565b809150509250929050565b8315158152604060208201525f61334a6040830184866132fe565b5f805f80608085870312156138aa575f80fd5b84516138b58161304c565b6020860151604087015191955093506138cd8161304c565b6060959095015193969295505050565b5f60a082840312156138ed575f80fd5b60405160a081016001600160401b038111828210171561390f5761390f6130f4565b806040525080915082516001600160401b0381111561392c575f80fd5b61393885828601613375565b82525060208301516139498161304c565b60208201526040838101519082015260608084015190820152608092830151920191909152919050565b5f60208284031215613983575f80fd5b81516001600160401b03811115613998575f80fd5b6139a4848285016138dd565b949350505050565b5f80858511156139ba575f80fd5b838611156139c6575f80fd5b5050820193919092039150565b80356001600160e01b03198116906004841015613a04576001600160e01b0319600485900360031b81901b82161691505b5092915050565b60018060a01b0385168152836020820152608060408201525f8351806080840152806020860160a085015e5f60a0828501015260a0601f19601f83011684010191505060028310613a6a57634e487b7160e01b5f52602160045260245ffd5b82606083015295945050505050565b5f8060408385031215613a8a575f80fd5b8251613a95816132d4565b60208401519092506001600160401b03811115613597575f80fdfe737761704578616374546f6b656e73466f72546f6b656e732875696e743235362c75696e743235362c616464726573735b5d2c616464726573732c75696e7432353629737570706c7928616464726573732c75696e743235362c616464726573732c75696e74313629776974686472617728616464726573732c75696e743235362c6164647265737329617070726f766544656c65676174696f6e28616464726573732c75696e74323536296578616374496e707574282862797465732c616464726573732c75696e743235362c75696e743235362c75696e743235362929666c6173685377617045786163744f75742875696e743235362c75696e743235362c627974657329666c617368537761704578616374496e2875696e743235362c75696e743235362c62797465732965786163744f7574707574282862797465732c616464726573732c75696e743235362c75696e743235362c75696e743235362929a2646970667358221220832f5cb3e8cb647dd3449333e71f67438662c4860f4c6c46feae8b56cb4ab2db64736f6c634300081a0033","linkReferences":{}},"methodIdentifiers":{"allowApprovalDestination(address,string)":"98b3cc39","allowAsset(address,string)":"86b6dbe5","allowCallSite(address,bytes4,string)":"5e4ccace","allowDelegationApprovalDestination(address,string)":"63cc17f2","allowReceiver(address,string)":"72e548a9","allowSender(address,string)":"fa2c59c8","allowWithdrawDestination(address,string)":"5ace1d92","allowedApprovalDestinations(address)":"eb0de042","allowedAssets(address)":"a4c1cccb","allowedCallSites(address,bytes4)":"a847cf4d","allowedDelegationApprovalDestinations(address)":"4b941268","allowedLagoonVaults(address)":"8fb4dff2","allowedReceivers(address)":"3cf20025","allowedSenders(address)":"fadbcf48","allowedTargets(address)":"b8fe8d5f","allowedWithdrawDestinations(address)":"07ef00cf","anyAsset()":"87301608","avatar()":"5aef7de6","callSiteCount()":"a9fc3d4f","getGovernanceAddress()":"73252494","getInternalVersion()":"fdedfa27","isAllowedApprovalDestination(address)":"1d49039c","isAllowedAsset(address)":"c537bed0","isAllowedCallSite(address,bytes4)":"713ebf3b","isAllowedDelegationApprovalDestination(address)":"2dc32a61","isAllowedLagoonVault(address)":"6fd7fdef","isAllowedReceiver(address)":"d075f9bb","isAllowedSender(address)":"be8c97b0","isAllowedTarget(address)":"78addb48","isAllowedWithdrawDestination(address)":"efb47bff","owner()":"8da5cb5b","performCall(address,bytes)":"d2f73e3d","removeApprovalDestination(address,string)":"04a3ba25","removeAsset(address,string)":"f901dc33","removeCallSite(address,bytes4,string)":"d7334c9d","removeDelegationApprovalDestination(address,string)":"f259a073","removeReceiver(address,string)":"2d12d788","removeSender(address,string)":"a67e1f54","removeWithdrawDestination(address,string)":"8c2fdf9e","renounceOwnership()":"715018a6","setAnyAssetAllowed(bool,string)":"c2e657ae","setAvatar(address)":"086cfca8","setTarget(address)":"776d1a01","setUp(bytes)":"a4f9edbf","target()":"d4b83992","transferOwnership(address)":"f2fde38b","validate1deltaPath(bytes)":"a1b6b430","validateCall(address,address,bytes)":"6d5025f1","validateUniswapV3Path(bytes)":"1c123e77","validate_1deltaDeposit(bytes)":"c4cc9dba","validate_1deltaMulticall(bytes)":"07ac3562","validate_1deltaWithdraw(bytes)":"f76081e4","validate_aaveSupply(bytes)":"d4c0fe45","validate_aaveWithdraw(bytes)":"6a6d5cc8","validate_approve(bytes)":"4b956bd8","validate_approveDelegation(bytes)":"957dc6c0","validate_exactInput(bytes)":"ebe26816","validate_exactOutput(bytes)":"e98539c5","validate_flashSwapAllOut(bytes)":"425f49d0","validate_flashSwapExactInt(bytes)":"ca963c50","validate_flashSwapExactOut(bytes)":"6ad11353","validate_lagoonSettle(address)":"b3c329cb","validate_swapExactTokensForTokens(bytes)":"761bcd9c","validate_transfer(bytes)":"1710a4f2","validate_transferERC20AllIn(bytes)":"7ea44655","validate_transferERC20In(bytes)":"59b92be9","whitelistAaveV3(address,string)":"f20e85e0","whitelistLagoon(address,string)":"5e6afe4d","whitelistOnedelta(address,address,string)":"f26749f3","whitelistToken(address,string)":"ee5462cc","whitelistTokenForDelegation(address,string)":"6d9a1423","whitelistUniswapV2Router(address,string)":"3ea35551","whitelistUniswapV3Router(address,string)":"34ec8d7e"},"id":14}