{"abi":[{"type":"constructor","inputs":[{"name":"_owner","type":"address","internalType":"address"},{"name":"_target","type":"address","internalType":"address"}],"stateMutability":"nonpayable"},{"type":"function","name":"allowApprovalDestination","inputs":[{"name":"destination","type":"address","internalType":"address"},{"name":"notes","type":"string","internalType":"string"}],"outputs":[],"stateMutability":"nonpayable"},{"type":"function","name":"allowAsset","inputs":[{"name":"asset","type":"address","internalType":"address"},{"name":"notes","type":"string","internalType":"string"}],"outputs":[],"stateMutability":"nonpayable"},{"type":"function","name":"allowCallSite","inputs":[{"name":"target","type":"address","internalType":"address"},{"name":"selector","type":"bytes4","internalType":"bytes4"},{"name":"notes","type":"string","internalType":"string"}],"outputs":[],"stateMutability":"nonpayable"},{"type":"function","name":"allowDelegationApprovalDestination","inputs":[{"name":"destination","type":"address","internalType":"address"},{"name":"notes","type":"string","internalType":"string"}],"outputs":[],"stateMutability":"nonpayable"},{"type":"function","name":"allowReceiver","inputs":[{"name":"receiver","type":"address","internalType":"address"},{"name":"notes","type":"string","internalType":"string"}],"outputs":[],"stateMutability":"nonpayable"},{"type":"function","name":"allowSender","inputs":[{"name":"sender","type":"address","internalType":"address"},{"name":"notes","type":"string","internalType":"string"}],"outputs":[],"stateMutability":"nonpayable"},{"type":"function","name":"allowWithdrawDestination","inputs":[{"name":"destination","type":"address","internalType":"address"},{"name":"notes","type":"string","internalType":"string"}],"outputs":[],"stateMutability":"nonpayable"},{"type":"function","name":"allowedApprovalDestinations","inputs":[{"name":"destination","type":"address","internalType":"address"}],"outputs":[{"name":"allowed","type":"bool","internalType":"bool"}],"stateMutability":"view"},{"type":"function","name":"allowedAssets","inputs":[{"name":"token","type":"address","internalType":"address"}],"outputs":[{"name":"allowed","type":"bool","internalType":"bool"}],"stateMutability":"view"},{"type":"function","name":"allowedCCTPDestinations","inputs":[{"name":"domain","type":"uint32","internalType":"uint32"}],"outputs":[{"name":"allowed","type":"bool","internalType":"bool"}],"stateMutability":"view"},{"type":"function","name":"allowedCCTPMessengers","inputs":[{"name":"messenger","type":"address","internalType":"address"}],"outputs":[{"name":"allowed","type":"bool","internalType":"bool"}],"stateMutability":"view"},{"type":"function","name":"allowedCallSites","inputs":[{"name":"target","type":"address","internalType":"address"},{"name":"selector","type":"bytes4","internalType":"bytes4"}],"outputs":[{"name":"allowed","type":"bool","internalType":"bool"}],"stateMutability":"view"},{"type":"function","name":"allowedDelegationApprovalDestinations","inputs":[{"name":"destination","type":"address","internalType":"address"}],"outputs":[{"name":"allowed","type":"bool","internalType":"bool"}],"stateMutability":"view"},{"type":"function","name":"allowedLagoonVaults","inputs":[{"name":"destination","type":"address","internalType":"address"}],"outputs":[{"name":"allowed","type":"bool","internalType":"bool"}],"stateMutability":"view"},{"type":"function","name":"allowedReceivers","inputs":[{"name":"receiver","type":"address","internalType":"address"}],"outputs":[{"name":"allowed","type":"bool","internalType":"bool"}],"stateMutability":"view"},{"type":"function","name":"allowedSenders","inputs":[{"name":"sender","type":"address","internalType":"address"}],"outputs":[{"name":"allowed","type":"bool","internalType":"bool"}],"stateMutability":"view"},{"type":"function","name":"allowedTargets","inputs":[{"name":"target","type":"address","internalType":"address"}],"outputs":[{"name":"allowed","type":"bool","internalType":"bool"}],"stateMutability":"view"},{"type":"function","name":"allowedWithdrawDestinations","inputs":[{"name":"destination","type":"address","internalType":"address"}],"outputs":[{"name":"allowed","type":"bool","internalType":"bool"}],"stateMutability":"view"},{"type":"function","name":"anyAsset","inputs":[],"outputs":[{"name":"","type":"bool","internalType":"bool"}],"stateMutability":"view"},{"type":"function","name":"avatar","inputs":[],"outputs":[{"name":"","type":"address","internalType":"address"}],"stateMutability":"view"},{"type":"function","name":"callSiteCount","inputs":[],"outputs":[{"name":"","type":"uint256","internalType":"uint256"}],"stateMutability":"view"},{"type":"function","name":"getGovernanceAddress","inputs":[],"outputs":[{"name":"","type":"address","internalType":"address"}],"stateMutability":"view"},{"type":"function","name":"getInternalVersion","inputs":[],"outputs":[{"name":"","type":"uint8","internalType":"uint8"}],"stateMutability":"pure"},{"type":"function","name":"getTradingStrategyModuleVersion","inputs":[],"outputs":[{"name":"","type":"string","internalType":"string"}],"stateMutability":"pure"},{"type":"function","name":"gmxOrderVaults","inputs":[{"name":"exchangeRouter","type":"address","internalType":"address"}],"outputs":[{"name":"","type":"address","internalType":"address"}],"stateMutability":"view"},{"type":"function","name":"isAllowedApprovalDestination","inputs":[{"name":"receiver","type":"address","internalType":"address"}],"outputs":[{"name":"","type":"bool","internalType":"bool"}],"stateMutability":"view"},{"type":"function","name":"isAllowedAsset","inputs":[{"name":"token","type":"address","internalType":"address"}],"outputs":[{"name":"","type":"bool","internalType":"bool"}],"stateMutability":"view"},{"type":"function","name":"isAllowedCCTPDestination","inputs":[{"name":"domain","type":"uint32","internalType":"uint32"}],"outputs":[{"name":"","type":"bool","internalType":"bool"}],"stateMutability":"view"},{"type":"function","name":"isAllowedCCTPMessenger","inputs":[{"name":"messenger","type":"address","internalType":"address"}],"outputs":[{"name":"","type":"bool","internalType":"bool"}],"stateMutability":"view"},{"type":"function","name":"isAllowedCallSite","inputs":[{"name":"target","type":"address","internalType":"address"},{"name":"selector","type":"bytes4","internalType":"bytes4"}],"outputs":[{"name":"","type":"bool","internalType":"bool"}],"stateMutability":"view"},{"type":"function","name":"isAllowedCowSwap","inputs":[{"name":"settlement","type":"address","internalType":"address"}],"outputs":[{"name":"","type":"bool","internalType":"bool"}],"stateMutability":"view"},{"type":"function","name":"isAllowedDelegationApprovalDestination","inputs":[{"name":"receiver","type":"address","internalType":"address"}],"outputs":[{"name":"","type":"bool","internalType":"bool"}],"stateMutability":"view"},{"type":"function","name":"isAllowedGMXMarket","inputs":[{"name":"market","type":"address","internalType":"address"}],"outputs":[{"name":"","type":"bool","internalType":"bool"}],"stateMutability":"view"},{"type":"function","name":"isAllowedGMXRouter","inputs":[{"name":"router","type":"address","internalType":"address"}],"outputs":[{"name":"","type":"bool","internalType":"bool"}],"stateMutability":"view"},{"type":"function","name":"isAllowedLagoonVault","inputs":[{"name":"vault","type":"address","internalType":"address"}],"outputs":[{"name":"","type":"bool","internalType":"bool"}],"stateMutability":"view"},{"type":"function","name":"isAllowedReceiver","inputs":[{"name":"receiver","type":"address","internalType":"address"}],"outputs":[{"name":"","type":"bool","internalType":"bool"}],"stateMutability":"view"},{"type":"function","name":"isAllowedSender","inputs":[{"name":"sender","type":"address","internalType":"address"}],"outputs":[{"name":"","type":"bool","internalType":"bool"}],"stateMutability":"view"},{"type":"function","name":"isAllowedTarget","inputs":[{"name":"target","type":"address","internalType":"address"}],"outputs":[{"name":"","type":"bool","internalType":"bool"}],"stateMutability":"view"},{"type":"function","name":"isAllowedVeloraSwapper","inputs":[{"name":"swapper","type":"address","internalType":"address"}],"outputs":[{"name":"","type":"bool","internalType":"bool"}],"stateMutability":"view"},{"type":"function","name":"isAllowedWithdrawDestination","inputs":[{"name":"receiver","type":"address","internalType":"address"}],"outputs":[{"name":"","type":"bool","internalType":"bool"}],"stateMutability":"view"},{"type":"function","name":"multicall","inputs":[{"name":"data","type":"bytes[]","internalType":"bytes[]"}],"outputs":[{"name":"results","type":"bytes[]","internalType":"bytes[]"}],"stateMutability":"payable"},{"type":"function","name":"owner","inputs":[],"outputs":[{"name":"","type":"address","internalType":"address"}],"stateMutability":"view"},{"type":"function","name":"performCall","inputs":[{"name":"target","type":"address","internalType":"address"},{"name":"callData","type":"bytes","internalType":"bytes"},{"name":"value","type":"uint256","internalType":"uint256"}],"outputs":[],"stateMutability":"payable"},{"type":"function","name":"performCall","inputs":[{"name":"target","type":"address","internalType":"address"},{"name":"callData","type":"bytes","internalType":"bytes"}],"outputs":[],"stateMutability":"nonpayable"},{"type":"function","name":"removeApprovalDestination","inputs":[{"name":"destination","type":"address","internalType":"address"},{"name":"notes","type":"string","internalType":"string"}],"outputs":[],"stateMutability":"nonpayable"},{"type":"function","name":"removeAsset","inputs":[{"name":"asset","type":"address","internalType":"address"},{"name":"notes","type":"string","internalType":"string"}],"outputs":[],"stateMutability":"nonpayable"},{"type":"function","name":"removeCCTPDestination","inputs":[{"name":"domain","type":"uint32","internalType":"uint32"},{"name":"notes","type":"string","internalType":"string"}],"outputs":[],"stateMutability":"nonpayable"},{"type":"function","name":"removeCallSite","inputs":[{"name":"target","type":"address","internalType":"address"},{"name":"selector","type":"bytes4","internalType":"bytes4"},{"name":"notes","type":"string","internalType":"string"}],"outputs":[],"stateMutability":"nonpayable"},{"type":"function","name":"removeDelegationApprovalDestination","inputs":[{"name":"destination","type":"address","internalType":"address"},{"name":"notes","type":"string","internalType":"string"}],"outputs":[],"stateMutability":"nonpayable"},{"type":"function","name":"removeGMXMarket","inputs":[{"name":"market","type":"address","internalType":"address"},{"name":"notes","type":"string","internalType":"string"}],"outputs":[],"stateMutability":"nonpayable"},{"type":"function","name":"removeHypercoreVault","inputs":[{"name":"vault","type":"address","internalType":"address"},{"name":"notes","type":"string","internalType":"string"}],"outputs":[],"stateMutability":"nonpayable"},{"type":"function","name":"removeReceiver","inputs":[{"name":"receiver","type":"address","internalType":"address"},{"name":"notes","type":"string","internalType":"string"}],"outputs":[],"stateMutability":"nonpayable"},{"type":"function","name":"removeSender","inputs":[{"name":"sender","type":"address","internalType":"address"},{"name":"notes","type":"string","internalType":"string"}],"outputs":[],"stateMutability":"nonpayable"},{"type":"function","name":"removeWithdrawDestination","inputs":[{"name":"destination","type":"address","internalType":"address"},{"name":"notes","type":"string","internalType":"string"}],"outputs":[],"stateMutability":"nonpayable"},{"type":"function","name":"renounceOwnership","inputs":[],"outputs":[],"stateMutability":"nonpayable"},{"type":"function","name":"setAnyAssetAllowed","inputs":[{"name":"value","type":"bool","internalType":"bool"},{"name":"notes","type":"string","internalType":"string"}],"outputs":[],"stateMutability":"nonpayable"},{"type":"function","name":"setAvatar","inputs":[{"name":"_avatar","type":"address","internalType":"address"}],"outputs":[],"stateMutability":"nonpayable"},{"type":"function","name":"setTarget","inputs":[{"name":"_target","type":"address","internalType":"address"}],"outputs":[],"stateMutability":"nonpayable"},{"type":"function","name":"setUp","inputs":[{"name":"initializeParams","type":"bytes","internalType":"bytes"}],"outputs":[],"stateMutability":"nonpayable"},{"type":"function","name":"swapAndValidateCowSwap","inputs":[{"name":"settlementContract","type":"address","internalType":"address"},{"name":"receiver","type":"address","internalType":"address"},{"name":"appData","type":"bytes32","internalType":"bytes32"},{"name":"tokenIn","type":"address","internalType":"address"},{"name":"tokenOut","type":"address","internalType":"address"},{"name":"amountIn","type":"uint256","internalType":"uint256"},{"name":"minAmountOut","type":"uint256","internalType":"uint256"}],"outputs":[],"stateMutability":"nonpayable"},{"type":"function","name":"swapAndValidateVelora","inputs":[{"name":"augustusSwapper","type":"address","internalType":"address"},{"name":"receiver","type":"address","internalType":"address"},{"name":"tokenIn","type":"address","internalType":"address"},{"name":"tokenOut","type":"address","internalType":"address"},{"name":"amountIn","type":"uint256","internalType":"uint256"},{"name":"minAmountOut","type":"uint256","internalType":"uint256"},{"name":"augustusCalldata","type":"bytes","internalType":"bytes"}],"outputs":[],"stateMutability":"nonpayable"},{"type":"function","name":"target","inputs":[],"outputs":[{"name":"","type":"address","internalType":"address"}],"stateMutability":"view"},{"type":"function","name":"transferOwnership","inputs":[{"name":"newOwner","type":"address","internalType":"address"}],"outputs":[],"stateMutability":"nonpayable"},{"type":"function","name":"validateCall","inputs":[{"name":"sender","type":"address","internalType":"address"},{"name":"target","type":"address","internalType":"address"},{"name":"callDataWithSelector","type":"bytes","internalType":"bytes"}],"outputs":[],"stateMutability":"view"},{"type":"function","name":"whitelistAaveV3","inputs":[{"name":"lendingPool","type":"address","internalType":"address"},{"name":"notes","type":"string","internalType":"string"}],"outputs":[],"stateMutability":"nonpayable"},{"type":"function","name":"whitelistCCTP","inputs":[{"name":"tokenMessenger","type":"address","internalType":"address"},{"name":"notes","type":"string","internalType":"string"}],"outputs":[],"stateMutability":"nonpayable"},{"type":"function","name":"whitelistCCTPDestination","inputs":[{"name":"domain","type":"uint32","internalType":"uint32"},{"name":"notes","type":"string","internalType":"string"}],"outputs":[],"stateMutability":"nonpayable"},{"type":"function","name":"whitelistCoreWriter","inputs":[{"name":"coreWriter","type":"address","internalType":"address"},{"name":"coreDepositWallet","type":"address","internalType":"address"},{"name":"notes","type":"string","internalType":"string"}],"outputs":[],"stateMutability":"nonpayable"},{"type":"function","name":"whitelistCowSwap","inputs":[{"name":"settlementContract","type":"address","internalType":"address"},{"name":"relayerContract","type":"address","internalType":"address"},{"name":"notes","type":"string","internalType":"string"}],"outputs":[],"stateMutability":"nonpayable"},{"type":"function","name":"whitelistERC4626","inputs":[{"name":"vault","type":"address","internalType":"address"},{"name":"notes","type":"string","internalType":"string"}],"outputs":[],"stateMutability":"nonpayable"},{"type":"function","name":"whitelistGMX","inputs":[{"name":"exchangeRouter","type":"address","internalType":"address"},{"name":"syntheticsRouter","type":"address","internalType":"address"},{"name":"orderVault","type":"address","internalType":"address"},{"name":"collateralTokens","type":"address[]","internalType":"address[]"},{"name":"notes","type":"string","internalType":"string"}],"outputs":[],"stateMutability":"nonpayable"},{"type":"function","name":"whitelistGMXMarket","inputs":[{"name":"market","type":"address","internalType":"address"},{"name":"notes","type":"string","internalType":"string"}],"outputs":[],"stateMutability":"nonpayable"},{"type":"function","name":"whitelistHypercoreVault","inputs":[{"name":"vault","type":"address","internalType":"address"},{"name":"notes","type":"string","internalType":"string"}],"outputs":[],"stateMutability":"nonpayable"},{"type":"function","name":"whitelistLagoon","inputs":[{"name":"vault","type":"address","internalType":"address"},{"name":"notes","type":"string","internalType":"string"}],"outputs":[],"stateMutability":"nonpayable"},{"type":"function","name":"whitelistToken","inputs":[{"name":"token","type":"address","internalType":"address"},{"name":"notes","type":"string","internalType":"string"}],"outputs":[],"stateMutability":"nonpayable"},{"type":"function","name":"whitelistTokenForDelegation","inputs":[{"name":"token","type":"address","internalType":"address"},{"name":"notes","type":"string","internalType":"string"}],"outputs":[],"stateMutability":"nonpayable"},{"type":"function","name":"whitelistUniswapV2Router","inputs":[{"name":"router","type":"address","internalType":"address"},{"name":"notes","type":"string","internalType":"string"}],"outputs":[],"stateMutability":"nonpayable"},{"type":"function","name":"whitelistUniswapV3Router","inputs":[{"name":"router","type":"address","internalType":"address"},{"name":"notes","type":"string","internalType":"string"}],"outputs":[],"stateMutability":"nonpayable"},{"type":"function","name":"whitelistVelora","inputs":[{"name":"augustusSwapper","type":"address","internalType":"address"},{"name":"tokenTransferProxy","type":"address","internalType":"address"},{"name":"notes","type":"string","internalType":"string"}],"outputs":[],"stateMutability":"nonpayable"},{"type":"event","name":"AnyAssetSet","inputs":[{"name":"value","type":"bool","indexed":false,"internalType":"bool"},{"name":"notes","type":"string","indexed":false,"internalType":"string"}],"anonymous":false},{"type":"event","name":"AnyVaultSet","inputs":[{"name":"value","type":"bool","indexed":false,"internalType":"bool"},{"name":"notes","type":"string","indexed":false,"internalType":"string"}],"anonymous":false},{"type":"event","name":"ApprovalDestinationApproved","inputs":[{"name":"destination","type":"address","indexed":false,"internalType":"address"},{"name":"notes","type":"string","indexed":false,"internalType":"string"}],"anonymous":false},{"type":"event","name":"ApprovalDestinationRemoved","inputs":[{"name":"destination","type":"address","indexed":false,"internalType":"address"},{"name":"notes","type":"string","indexed":false,"internalType":"string"}],"anonymous":false},{"type":"event","name":"AssetApproved","inputs":[{"name":"asset","type":"address","indexed":false,"internalType":"address"},{"name":"notes","type":"string","indexed":false,"internalType":"string"}],"anonymous":false},{"type":"event","name":"AssetRemoved","inputs":[{"name":"asset","type":"address","indexed":false,"internalType":"address"},{"name":"notes","type":"string","indexed":false,"internalType":"string"}],"anonymous":false},{"type":"event","name":"AvatarSet","inputs":[{"name":"previousAvatar","type":"address","indexed":true,"internalType":"address"},{"name":"newAvatar","type":"address","indexed":true,"internalType":"address"}],"anonymous":false},{"type":"event","name":"CCTPDestinationApproved","inputs":[{"name":"domain","type":"uint32","indexed":false,"internalType":"uint32"},{"name":"notes","type":"string","indexed":false,"internalType":"string"}],"anonymous":false},{"type":"event","name":"CCTPDestinationRemoved","inputs":[{"name":"domain","type":"uint32","indexed":false,"internalType":"uint32"},{"name":"notes","type":"string","indexed":false,"internalType":"string"}],"anonymous":false},{"type":"event","name":"CCTPMessengerApproved","inputs":[{"name":"tokenMessenger","type":"address","indexed":false,"internalType":"address"},{"name":"notes","type":"string","indexed":false,"internalType":"string"}],"anonymous":false},{"type":"event","name":"CallSiteApproved","inputs":[{"name":"target","type":"address","indexed":false,"internalType":"address"},{"name":"selector","type":"bytes4","indexed":false,"internalType":"bytes4"},{"name":"notes","type":"string","indexed":false,"internalType":"string"}],"anonymous":false},{"type":"event","name":"CallSiteRemoved","inputs":[{"name":"target","type":"address","indexed":false,"internalType":"address"},{"name":"selector","type":"bytes4","indexed":false,"internalType":"bytes4"},{"name":"notes","type":"string","indexed":false,"internalType":"string"}],"anonymous":false},{"type":"event","name":"DelegationApprovalDestinationApproved","inputs":[{"name":"destination","type":"address","indexed":false,"internalType":"address"},{"name":"notes","type":"string","indexed":false,"internalType":"string"}],"anonymous":false},{"type":"event","name":"DelegationApprovalDestinationRemoved","inputs":[{"name":"destination","type":"address","indexed":false,"internalType":"address"},{"name":"notes","type":"string","indexed":false,"internalType":"string"}],"anonymous":false},{"type":"event","name":"ERC4626Approved","inputs":[{"name":"vault","type":"address","indexed":false,"internalType":"address"},{"name":"notes","type":"string","indexed":false,"internalType":"string"}],"anonymous":false},{"type":"event","name":"Initialized","inputs":[{"name":"version","type":"uint64","indexed":false,"internalType":"uint64"}],"anonymous":false},{"type":"event","name":"LagoonVaultApproved","inputs":[{"name":"vault","type":"address","indexed":false,"internalType":"address"},{"name":"notes","type":"string","indexed":false,"internalType":"string"}],"anonymous":false},{"type":"event","name":"OwnershipTransferred","inputs":[{"name":"previousOwner","type":"address","indexed":true,"internalType":"address"},{"name":"newOwner","type":"address","indexed":true,"internalType":"address"}],"anonymous":false},{"type":"event","name":"ReceiverApproved","inputs":[{"name":"receiver","type":"address","indexed":false,"internalType":"address"},{"name":"notes","type":"string","indexed":false,"internalType":"string"}],"anonymous":false},{"type":"event","name":"ReceiverRemoved","inputs":[{"name":"receiver","type":"address","indexed":false,"internalType":"address"},{"name":"notes","type":"string","indexed":false,"internalType":"string"}],"anonymous":false},{"type":"event","name":"SenderApproved","inputs":[{"name":"sender","type":"address","indexed":false,"internalType":"address"},{"name":"notes","type":"string","indexed":false,"internalType":"string"}],"anonymous":false},{"type":"event","name":"SenderRemoved","inputs":[{"name":"sender","type":"address","indexed":false,"internalType":"address"},{"name":"notes","type":"string","indexed":false,"internalType":"string"}],"anonymous":false},{"type":"event","name":"TargetSet","inputs":[{"name":"previousTarget","type":"address","indexed":true,"internalType":"address"},{"name":"newTarget","type":"address","indexed":true,"internalType":"address"}],"anonymous":false},{"type":"event","name":"WithdrawDestinationApproved","inputs":[{"name":"destination","type":"address","indexed":false,"internalType":"address"},{"name":"notes","type":"string","indexed":false,"internalType":"string"}],"anonymous":false},{"type":"event","name":"WithdrawDestinationRemoved","inputs":[{"name":"destination","type":"address","indexed":false,"internalType":"address"},{"name":"notes","type":"string","indexed":false,"internalType":"string"}],"anonymous":false},{"type":"error","name":"InvalidInitialization","inputs":[]},{"type":"error","name":"NotInitializing","inputs":[]},{"type":"error","name":"OwnableInvalidOwner","inputs":[{"name":"owner","type":"address","internalType":"address"}]},{"type":"error","name":"OwnableUnauthorizedAccount","inputs":[{"name":"account","type":"address","internalType":"address"}]}],"bytecode":{"object":"0x6080806040523461023257604081614fe4803803809161001f828561028a565b8339810103126102325761003e6020610037836102c1565b92016102c1565b604080516001600160a01b03938416602082019081529290931683820190815290835261006c60608461028a565b5f80516020614fc483398151915254604081901c60ff1615936001600160401b03821680159081610282575b6001149081610278575b15908161026f575b50610260576001600160401b031982166001175f80516020614fc48339815191525560409185610236575b506100de610359565b6100e6610359565b6100ef336102d5565b805181010312610232576101056101c4926102c1565b906001600160a01b0390610118906102c1565b16610121610384565b5f80546001600160a01b031981168317825582916001600160a01b03909116907f52ae88b092de36f87fb43fe794eb1381023b9c1bce563a871154022c63dce3429080a361016d610384565b600180546001600160a01b0319811683179091556001600160a01b03167f90cc2f570a6eb594b1580ea3e41247d2d73a55281889e86bd4ec2fc29c7e62d65f80a36101b6610384565b6001600160a01b03166102d5565b6101d8575b604051614bf990816103cb8239f35b68ff0000000000000000195f80516020614fc483398151915254165f80516020614fc4833981519152557fc7f505b2f371ae2175ee4913f4499e1f2633a7b5936321eed1cdaeb6115181d2602060405160018152a16101c9565b5f80fd5b6001600160481b03191668010000000000000001175f80516020614fc4833981519152555f6100d5565b63f92ee8a960e01b5f5260045ffd5b9050155f6100aa565b303b1591506100a2565b869150610098565b601f909101601f19168101906001600160401b038211908210176102ad57604052565b634e487b7160e01b5f52604160045260245ffd5b51906001600160a01b038216820361023257565b6001600160a01b03168015610346577f9016d09d72d40fdae2fd8ceac6b6234c7706214fd39c1cd1e609a0528c19930080546001600160a01b0319811683179091556001600160a01b03167f8be0079c531659141344cd1fd0a4f28419497f9722a3daafe3b4186f6b6457e05f80a3565b631e4fbdf760e01b5f525f60045260245ffd5b60ff5f80516020614fc48339815191525460401c161561037557565b631afcd79f60e31b5f5260045ffd5b7f9016d09d72d40fdae2fd8ceac6b6234c7706214fd39c1cd1e609a0528c199300546001600160a01b031633036103b757565b63118cdaa760e01b5f523360045260245ffdfe60806040526004361015610011575f80fd5b5f3560e01c80630411fb8e146104c857806304a3ba25146104cd57806307605342146104c857806307ef00cf146103a6578063086cfca8146104c35780631047789e146104be5780631d49039c146103b55780632d12d788146104b95780632dc32a61146104915780632de905bc146104b45780632e31e9c6146104af578063333f22e8146104aa57806334ec8d7e146104a55780633cf20025146103dd5780633ea35551146104a0578063486295dc1461049b5780634acf884d146104965780634b941268146104915780634d3d31ca1461048c5780634efbad39146104875780635ace1d92146104825780635aef7de61461047d5780635e4ccace146104785780635e6afe4d1461047357806363cc17f21461046e5780636d5025f1146104695780636d9a1423146104645780636e3de2021461045f5780636fd7fdef1461042d578063713ebf3b1461040f578063715018a61461045a57806372e548a9146104555780637325249414610432578063748fca461461044b578063776d1a011461045057806378addb48146103f65780637cac69c31461044b57806386a6ae151461044657806386b6dbe514610441578063873016081461043c5780638c2fdf9e146104375780638da5cb5b146104325780638fb4dff21461042d57806398b3cc39146104285780639e4a83cf14610423578063a4c1cccb1461041e578063a4f9edbf14610419578063a67e1f5414610414578063a847cf4d1461040f578063a86ddc571461040a578063a9fc3d4f14610405578063ac9650d814610400578063acb9da16146103fb578063b8fe8d5f146103f6578063ba44ad41146103f1578063be8c97b014610383578063c2e657ae146103ec578063c537bed0146103e7578063cbdb1dcf146103e2578063d075f9bb146103dd578063d078377c146103d8578063d2f73e3d146103d3578063d4b83992146103ce578063d7334c9d146103c9578063d7581509146103c4578063e2873b6d146103bf578063e6f32c51146103ba578063eb0de042146103b5578063ec011440146103b0578063ee5462cc146103ab578063efb47bff146103a6578063f20e85e0146103a1578063f259a0731461039c578063f2fde38b14610397578063f84756aa14610392578063f901dc331461038d578063fa2c59c814610388578063fadbcf48146103835763fdedfa271461037e575f80fd5b6128e3565b612010565b612878565b612810565b612796565b612769565b612701565b61265b565b610616565b612641565b612550565b6107cc565b6124ea565b612499565b612448565b6123d9565b6123b1565b612384565b61219c565b610b18565b612122565b6120f1565b61205a565b611fad565b6116ef565b611ece565b611df3565b611d77565b611cd5565b6114f0565b611c57565b611b0e565b611a0b565b6119c5565b611935565b6114b0565b611603565b6118cd565b6118ab565b611853565b61172f565b61165b565b611695565b611598565b611544565b6112fa565b61122a565b611210565b6111b8565b6110b1565b611029565b610f9f565b610f2a565b610e88565b610e37565b610874565b610ccf565b610bfe565b610b58565b610a5d565b6109e3565b610928565b6108b4565b61080c565b6106f2565b610656565b6104e7565b610590565b6001600160a01b038116036104e357565b5f80fd5b346104e35760203660031901126104e357600435610504816104d2565b60018060a01b03165f52600c602052602060ff60405f2054166040519015158152f35b9181601f840112156104e3578235916001600160401b0383116104e357602083818601950101116104e357565b9060406003198301126104e35760043561056d816104d2565b91602435906001600160401b0382116104e35761058c91600401610527565b9091565b346104e3577fb71be9befd3ac90c1c9981d3b1161b3c2c6dcd741f13b34061aa251226a802df6105f86105c236610554565b6105cd9391936139bb565b6001600160a01b0383165f9081526009602052604090819020805460ff19169055519384938461291e565b0390a1005b6001600160a01b03165f90815260026020526040902090565b346104e35760203660031901126104e357600435610633816104d2565b60018060a01b03165f526008602052602060ff60405f2054166040519015158152f35b346104e35760203660031901126104e357600435610673816104d2565b61067b6139bb565b5f80546001600160a01b039283166001600160a01b03198216811783559216905f80516020614b0d8339815191529080a3005b60606003198201126104e3576004356106c6816104d2565b916024356106d3816104d2565b91604435906001600160401b0382116104e35761058c91600401610527565b346104e357610762610703366106ae565b8181936107119693966139bb565b6107196139bb565b6001600160a01b0386165f9081526009602052604090819020805460ff19166001179055515f80516020614aed833981519152908061075a86868b8461291e565b0390a16136cb565b73__$f7398432285ba6c2c1c9749bf7c6b7e7ad$__803b156104e3576107a1935f936040519586948593849363303e5bc960e21b85526004850161291e565b03915af480156107c7576107b157005b806107bf5f6107c593611a7f565b80610f95565b005b612940565b346104e35760203660031901126104e3576004356107e9816104d2565b60018060a01b03165f526009602052602060ff60405f2054166040519015158152f35b346104e3577f4e13b11ab98e672bd78295ef9cebe764dc617f95decf47d842c25b83abc0c7246105f861083e36610554565b6108499391936139bb565b6001600160a01b0383165f9081526007602052604090819020805460ff19169055519384938461291e565b346104e35760203660031901126104e357600435610891816104d2565b60018060a01b03165f52600a602052602060ff60405f2054166040519015158152f35b346104e3576108c236610554565b6108ca6139bb565b73__$f9fa4d4e532bfe6aeff5ab3d328fd72bc7$__92833b156104e3576109055f92604051948593630b7a416f60e21b85526004850161291e565b938180849603915af480156107c75761091c575080f35b6107c591505f90611a7f565b346104e35760203660031901126104e357600435610945816104d2565b600e546040516312789ae160e11b81526001600160a01b03909216600483015260ff161515602482015260208160448173__$bda5499a8fa48831c49ec55d96dbc8aee1$__5af480156107c7576109b0915f916109b4575b5060405191829182901515815260200190565b0390f35b6109d6915060203d6020116109dc575b6109ce8183611a7f565b81019061294b565b5f61099d565b503d6109c4565b346104e35760203660031901126104e357600435610a00816104d2565b604051630667e45d60e31b81526001600160a01b03909116600482015260208160248173__$f7398432285ba6c2c1c9749bf7c6b7e7ad$__5af480156107c7576109b0915f916109b4575060405191829182901515815260200190565b346104e3576107c5610a6e36610554565b91610a776139bb565b610a7f6139bb565b6001600160a01b0381165f81815260026020908152604080832063c04b8d5960e01b84529091529020600160ff198254161790555f52600360205260405f20600160ff19825416179055610adc610ad7600454613499565b600455565b5f80516020614bcd83398151915260405180610afa868686846134bb565b0390a1610b08838383612aac565b610b13838383612b3e565b6136cb565b346104e35760203660031901126104e357600435610b35816104d2565b60018060a01b03165f526007602052602060ff60405f2054166040519015158152f35b346104e3576107c5610b6936610554565b91610b726139bb565b610b7a6139bb565b6001600160a01b0381165f8181526002602090815260408083206338ed173960e01b84529091529020600160ff198254161790555f52600360205260405f20600160ff19825416179055610bd2610ad7600454613499565b5f80516020614bcd83398151915260405180610bf0868686846134ea565b0390a1610b13838383612bcb565b60603660031901126104e357600435610c16816104d2565b6024356001600160401b0381116104e357610c35903690600401610527565b919060443590610c4784828533613c77565b34610c6d575b90610c61610c6793926107c5953691611abd565b916144af565b906144fb565b91905f8080803460018060a01b038254165af1610c88612960565b5015610c95579091610c4d565b60405162461bcd60e51b815260206004820152601260248201527111551208199bdc9dd85c990819985a5b195960721b6044820152606490fd5b346104e35760e03660031901126104e357600435610cec816104d2565b60243590610cf9826104d2565b60443560643592610d09846104d2565b60843590610d16826104d2565b604051636290236f60e11b81529373__$f7398432285ba6c2c1c9749bf7c6b7e7ad$__9260c43560a435602088600481895af49283156107c757610d66610dc1945f9a8b91610e18575b5061298f565b604051635a1b5fa560e01b81526001600160a01b03958616600482015295851660248701526044860197909752978316606485015291909416608483015260a482019590955260c481019490945283918290819060e4820190565b03915af49081156107c7576107c591610c67915f91610df6575b5060208101516040906001600160a01b031691015190614426565b610e1291503d805f833e610e0a8183611a7f565b810190612a23565b5f610ddb565b610e31915060203d6020116109dc576109ce8183611a7f565b5f610d60565b346104e357610e4536610554565b610e4d6139bb565b73__$bda5499a8fa48831c49ec55d96dbc8aee1$__92833b156104e3576109055f9260405194859363f7570c2960e01b85526004850161291e565b346104e3575f80516020614aed833981519152610ea4366106ae565b9190809491610eb16139bb565b610eb96139bb565b60018060a01b0381165f52600960205260405f20600160ff19825416179055610ee8846040519384938461291e565b0390a173__$c49bf44a3286d065a371d69fbc4a0c0f99$__803b156104e3576107a1935f9360405195869485938493631a65191160e21b85526004850161291e565b346104e3577f3562181221a42a19ddd03a82dfe06acab1905ceb65cdaf7d86a1d9fec66435526105f8610f5c36610554565b610f679391936139bb565b6001600160a01b0383165f9081526008602052604090819020805460ff19166001179055519384938461291e565b5f9103126104e357565b346104e3575f3660031901126104e3575f546040516001600160a01b039091168152602090f35b602435906001600160e01b0319821682036104e357565b60606003198201126104e357600435610ff5816104d2565b916024356001600160e01b0319811681036104e35791604435906001600160401b0382116104e35761058c91600401610527565b346104e3575f80516020614bcd8339815191526105f861104836610fdd565b906110549492946139bb565b6001600160a01b0384165f818152600260205260409020611076908790611cbf565b600160ff198254161790555f52600360205260405f20600160ff198254161790556110a2600454613499565b60045560405194859485613604565b346104e3577ffaa136302ac223cf7c1146490a741e4520e886fc22d7e759641453f432283d016105f86110e336610554565b6110ee9391936139bb565b6001600160a01b0383165f818152600b60205260409020805460ff191660011790556111186139bb565b805f52600260205261113b60405f2063559ec80d60e01b5f5260205260405f2090565b600160ff198254161790555f52600360205260405f20600160ff1982541617905561116a610ad7600454613499565b5f80516020614bcd8339815191526040518061118884888884613519565b0390a1611196818585612c58565b6111a1818585612ce5565b6111ac818585612d72565b6040519384938461291e565b346104e3575f80516020614aed8339815191526105f86111d736610554565b6111e29391936139bb565b6001600160a01b0383165f908152600a602052604090819020805460ff19166001179055519384938461291e565b346104e3576107c5611221366106ae565b92919091613c77565b346104e3576107c561123b36610554565b916112446139bb565b61124c6139bb565b6001600160a01b0381165f818152600260209081526040808320630c04a8a160e41b84529091529020600160ff198254161790555f52600360205260405f20600160ff198254161790556112a4610ad7600454613499565b5f80516020614bcd833981519152604051806112c286868684613548565b0390a16136b1565b9181601f840112156104e3578235916001600160401b0383116104e3576020808501948460051b0101116104e357565b346104e35760a03660031901126104e357600435611317816104d2565b60243590611324826104d2565b60443590611331826104d2565b6064356001600160401b0381116104e3576113509036906004016112ca565b90939091906084356001600160401b0381116104e357611374903690600401610527565b92909461137f6139bb565b6113876139bb565b60018060a01b038216805f52600260205260405f2063ffffffff60e01b631592ca1b60e31b165f5260205260405f20600160ff198254161790555f52600360205260405f20600160ff198254161790556113e5610ad7600454613499565b6040515f80516020614bcd833981519152908061140c878a631592ca1b60e31b8885613604565b0390a161141a8487856136cb565b73__$bda5499a8fa48831c49ec55d96dbc8aee1$__803b156104e35786935f9361145b876040519788968795869563f4d5bb9360e01b875260048701613637565b03915af480156107c75761149c575b505f5b82811061147657005b80611496838661149161148c600196898c61367d565b613692565b61450b565b0161146d565b806107bf5f6114aa93611a7f565b5f61146a565b346104e35760203660031901126104e3576004356114cd816104d2565b60018060a01b03165f52600b602052602060ff60405f2054166040519015158152f35b346104e35760403660031901126104e357602060ff611538600435611514816104d2565b61151c610fc6565b6001600160a01b039091165f9081526002855260409020611cbf565b54166040519015158152f35b346104e3575f3660031901126104e35761155c6139bb565b5f80516020614b2d83398151915280546001600160a01b031981169091555f906001600160a01b03165f80516020614b6d8339815191528280a3005b346104e3577f62dd88c5ecfa60713a657640ebec4de26fc1aefa4afdb24e6d15a124fce727796105f86115ca36610554565b6115d59391936139bb565b6001600160a01b0383165f9081526007602052604090819020805460ff19166001179055519384938461291e565b346104e3575f3660031901126104e3575f80516020614b2d833981519152546040516001600160a01b039091168152602090f35b6004359063ffffffff821682036104e357565b359063ffffffff821682036104e357565b346104e35760203660031901126104e35763ffffffff611679611637565b165f52600d602052602060ff60405f2054166040519015158152f35b346104e35760203660031901126104e3576004356116b2816104d2565b6116ba6139bb565b600180546001600160a01b039283166001600160a01b0319821681179092559091165f80516020614b4d8339815191525f80a3005b346104e35760203660031901126104e35760043561170c816104d2565b60018060a01b03165f526003602052602060ff60405f2054166040519015158152f35b346104e35761173d36610554565b916117466139bb565b6040516338d52e0f60e01b8152926020846004816001600160a01b0386165afa9081156107c7576111ac81856105f8947fd2851df39115d63968e90113e8b3a96f13e33ac4c2e5a9caa1afeffe59e55748985f91611824575b506117ab838389612dff565b6117b6838389612e8c565b6117c1838389612f19565b6117cc838389612fa6565b6117d7838389613033565b6117e28383896130be565b6117ed83838961314b565b6117f88383896131d8565b611803838389613265565b61180e8383896132f2565b6118198383896136cb565b61149183838961450b565b611846915060203d60201161184c575b61183e8183611a7f565b81019061369c565b5f61179f565b503d611834565b346104e3575f80516020614b8d8339815191526105f861187236610554565b61187d9391936139bb565b6001600160a01b0383165f9081526005602052604090819020805460ff19166001179055519384938461291e565b346104e3575f3660031901126104e357602060ff600e54166040519015158152f35b346104e3577f1212f8ddb39de8e1a339460c95752d61100723efeaa34ccd94bca94393f409386105f86118ff36610554565b61190a9391936139bb565b6001600160a01b0383165f9081526008602052604090819020805460ff19169055519384938461291e565b346104e3575f80516020614aed8339815191526105f861195436610554565b61195f9391936139bb565b6001600160a01b0383165f9081526009602052604090819020805460ff19166001179055519384938461291e565b805180835260209291819084018484015e5f828201840152601f01601f1916010190565b9060206119c292818152019061198d565b90565b346104e3575f3660031901126104e3576109b06040516119e6604082611a7f565b60048152631d8c0b8d60e21b602082015260405191829160208352602083019061198d565b346104e35760203660031901126104e357600435611a28816104d2565b60018060a01b03165f526005602052602060ff60405f2054166040519015158152f35b634e487b7160e01b5f52604160045260245ffd5b606081019081106001600160401b03821117611a7a57604052565b611a4b565b601f909101601f19168101906001600160401b03821190821017611a7a57604052565b6001600160401b038111611a7a57601f01601f191660200190565b929192611ac982611aa2565b91611ad76040519384611a7f565b8294818452818301116104e3578281602093845f960137010152565b9080601f830112156104e3578160206119c293359101611abd565b346104e35760203660031901126104e3576004356001600160401b0381116104e357611b3e903690600401611af3565b5f80516020614bad833981519152549060ff604083901c1615611b60565b1590565b916001600160401b031680159081611c4f575b6001149081611c45575b159081611c3c575b50611c2d575f80516020614bad83398151915280546001600160401b0319166001179055611bb79082611c09576136e5565b611bbd57005b5f80516020614bad833981519152805460ff60401b19169055604051600181527fc7f505b2f371ae2175ee4913f4499e1f2633a7b5936321eed1cdaeb6115181d29080602081016105f8565b5f80516020614bad833981519152805460ff60401b1916600160401b1790556136e5565b63f92ee8a960e01b5f5260045ffd5b9050155f611b85565b303b159150611b7d565b839150611b73565b346104e3577f3097928509c53a2dab9500431201d82b0d756e8f890fd01f4ae6b33b45687ea46105f8611c8936610554565b611c949391936139bb565b6001600160a01b0383165f9081526006602052604090819020805460ff19169055519384938461291e565b9063ffffffff60e01b165f5260205260405f2090565b346104e35760203660031901126104e357600435611cf2816104d2565b6040516351097a3360e01b81526001600160a01b03909116600482015260208160248173__$bda5499a8fa48831c49ec55d96dbc8aee1$__5af480156107c7576109b0915f91611d58575b506040516001600160a01b0390911681529081906020820190565b611d71915060203d60201161184c5761183e8183611a7f565b5f611d3d565b346104e3575f3660031901126104e3576020600454604051908152f35b602081016020825282518091526040820191602060408360051b8301019401925f915b838310611dc657505050505090565b9091929394602080611de4600193603f19868203018752895161198d565b97019301930191939290611db7565b60203660031901126104e3576004356001600160401b0381116104e357611e1e9036906004016112ca565b90611e28826137ca565b915f5b818110611e4057604051806109b08682611d94565b5f80611e4d838587613813565b90611e5d60405180938193613854565b0390305af4611e6a612960565b9015611e905790600191611e7e8287613897565b52611e898186613897565b5001611e2b565b60448151106104e357611eb2816024806004611eca9501518301019101613861565b60405162461bcd60e51b8152918291600483016119b1565b0390fd5b346104e357611edc366106ae565b91611ee56139bb565b73__$f9fa4d4e532bfe6aeff5ab3d328fd72bc7$__93843b156104e35760405163565ced0b60e11b81526001600160a01b039182166004820152908216602482015260606044820152935f9085908180611f436064820189896128fe565b03915af49384156107c7576107c594611f5d575b506136cb565b806107bf5f611f6b93611a7f565b5f611f57565b9060406003198301126104e35760043563ffffffff811681036104e35791602435906001600160401b0382116104e35761058c91600401610527565b346104e3577f1032cb8f3d65d1f2761007cb8b0ca5365671ee20a8efa21ecae1a8dfbca5b7a56105f8611fdf36611f71565b611fea9391936139bb565b63ffffffff83165f52600d60205260405f2060ff198154169055604051938493846138ab565b346104e35760203660031901126104e35760043561202d816104d2565b60018060a01b03165f526006602052602060ff60405f2054166040519015158152f35b801515036104e357565b346104e35760403660031901126104e35760043561207781612050565b6024356001600160401b0381116104e3577f50454d9d0025a28a39cac5a4b3f3101d29b6e413fbb64f75fb42eb6837b07718916120bb6105f8923690600401610527565b9290916120c66139bb565b15159160ff19600e541660ff841617600e5560405193849384526040602085015260408401916128fe565b346104e35760203660031901126104e3576020612118600435612113816104d2565b6138c8565b6040519015158152f35b346104e35760203660031901126104e35760043561213f816104d2565b60405163c226c4bb60e01b81526001600160a01b03909116600482015260208160248173__$bda5499a8fa48831c49ec55d96dbc8aee1$__5af480156107c7576109b0915f916109b4575060405191829182901515815260200190565b346104e35760e03660031901126104e3576004356121b9816104d2565b6024356121c5816104d2565b6044356121d1816104d2565b606435926121de846104d2565b60a43592608435919060c4356001600160401b0381116104e357612206903690600401611af3565b604051636290236f60e11b815273__$c49bf44a3286d065a371d69fbc4a0c0f99$__949190602081600481895af480156107c75761224b915f91612365575b506138f8565b5f5460408051636267722d60e11b81526001600160a01b03928316600482015282871660248201529482166044860152878216606486015290891660848501528360a481885af49081156107c7575f935f92612327575b50610c676122b09186614426565b5f546001600160a01b031692853b156104e35760405163fe36c22960e01b81526001600160a01b03948516600482015294841660248601529583166044850152969091166064830152608482015260a481019390935260c483019190915260e4820192909252905f908290818061010481016107a1565b610c6794506122b09192506123539060403d60401161235e575b61234b8183611a7f565b81019061393b565b9490949291506122a2565b503d612341565b61237e915060203d6020116109dc576109ce8183611a7f565b5f612245565b346104e3576107c5610c67610c615f61239c36610554565b6123aa818385979533613c77565b3691611abd565b346104e3575f3660031901126104e3576001546040516001600160a01b039091168152602090f35b346104e3577f37ea10f2d08f5a9803dfcd5abf3cfc7b0d6fcdf5fcbc36be9ea5a0b53d9a4d9b6105f861240b36610fdd565b906124179492946139bb565b60018060a01b0384165f5260026020526124348560405f20611cbf565b805460ff1916905560405194859485613604565b346104e35761245636610554565b61245e6139bb565b73__$bda5499a8fa48831c49ec55d96dbc8aee1$__92833b156104e3576109055f92604051948593634a1c4b1960e11b85526004850161291e565b346104e3576124a736610554565b6124af6139bb565b73__$f9fa4d4e532bfe6aeff5ab3d328fd72bc7$__92833b156104e3576109055f9260405194859363e2873b6d60e01b85526004850161291e565b346104e3577f9fc3f914bc6770a3679a6a9fdb4620f0566db329f178fb033fc0c6dcce1b693d6105f861251c36611f71565b6125279391936139bb565b63ffffffff83165f52600d60205260405f20600160ff19825416179055604051938493846138ab565b346104e3577f9efd66cbdaa05f6414ab9c4ae71d358b087e972c11874e7c3e9c7c79c61e23aa6105f861258236610554565b61258d9391936139bb565b6125956139bb565b6001600160a01b0383165f818152600260209081526040808320634701287760e11b84529091529020600160ff198254161790555f52600360205260405f20600160ff198254161790556125ed610ad7600454613499565b5f80516020614bcd8339815191526040518061260b84888884613577565b0390a16126198185856136cb565b6001600160a01b0383165f908152600c602052604090206111ac90805460ff19166001179055565b346104e3576107c561265236610554565b916114916139bb565b346104e3576107c561266c36610554565b916126756139bb565b61267d6139bb565b6001600160a01b0381165f81815260026020908152604080832063617ba03760e01b84529091529020600160ff198254161790555f52600360205260405f20600160ff198254161790556126d5610ad7600454613499565b5f80516020614bcd833981519152604051806126f3868686846135a6565b0390a1610b1383838361337f565b346104e3577ff9a414ea26a64e12a2abdb23706ec196a42adeb564668fb73f46555fbd2336c26105f861273336610554565b61273e9391936139bb565b6001600160a01b0383165f908152600a602052604090819020805460ff19169055519384938461291e565b346104e35760203660031901126104e3576107c5600435612789816104d2565b6127916139bb565b61395d565b346104e35760203660031901126104e3576004356127b3816104d2565b604051637c23ab5560e11b81526001600160a01b03909116600482015260208160248173__$c49bf44a3286d065a371d69fbc4a0c0f99$__5af480156107c7576109b0915f916109b4575060405191829182901515815260200190565b346104e3577f9ca3f065622f5f03f32b7157677a0e420c3a36ab45fd49f256ffebce3e3105876105f861284236610554565b61284d9391936139bb565b6001600160a01b0383165f9081526005602052604090819020805460ff19169055519384938461291e565b346104e3577fa8f9caaf4861720900294428e4ff34d37070c37afd26d96e6e4da75326d2c3ad6105f86128aa36610554565b6128b59391936139bb565b6001600160a01b0383165f9081526006602052604090819020805460ff19166001179055519384938461291e565b346104e3575f3660031901126104e357602060405160018152f35b908060209392818452848401375f828201840152601f01601f1916010190565b6001600160a01b0390911681526040602082018190526119c2939101916128fe565b6040513d5f823e3d90fd5b908160209103126104e357516119c281612050565b3d1561298a573d9061297182611aa2565b9161297f6040519384611a7f565b82523d5f602084013e565b606090565b1561299657565b60405162461bcd60e51b815260206004820152601560248201527410dbddd4ddd85c131a58881b9bdd081b1a5b9ad959605a1b6044820152606490fd5b9291926129df82611aa2565b916129ed6040519384611a7f565b8294818452818301116104e3578281602093845f96015e010152565b9080601f830112156104e35781516119c2926020016129d3565b6020818303126104e3578051906001600160401b0382116104e357016060818303126104e35760405191612a5683611a5f565b81516001600160401b0381116104e35781612a72918401612a09565b83526020820151612a82816104d2565b602084015260408201516001600160401b0381116104e357612aa49201612a09565b604082015290565b612b395f80516020614bcd83398151915293612ac66139bb565b60018060a01b038316805f52600260205260405f2063ffffffff60e01b631e51809360e31b165f5260205260405f20600160ff198254161790555f52600360205260405f20600160ff19825416179055612b24610ad7600454613499565b604051938493631e51809360e31b9085613604565b0390a1565b612b395f80516020614bcd83398151915293612b586139bb565b60018060a01b038316805f52600260205260405f2063ffffffff60e01b63b858183f60e01b165f5260205260405f20600160ff198254161790555f52600360205260405f20600160ff19825416179055612bb6610ad7600454613499565b60405193849363b858183f60e01b9085613604565b612b395f80516020614bcd83398151915293612be56139bb565b60018060a01b038316805f52600260205260405f2063ffffffff60e01b635c11d79560e01b165f5260205260405f20600160ff198254161790555f52600360205260405f20600160ff19825416179055612c43610ad7600454613499565b604051938493635c11d79560e01b9085613604565b612b395f80516020614bcd83398151915293612c726139bb565b60018060a01b038316805f52600260205260405f2063ffffffff60e01b63a03d55e360e01b165f5260205260405f20600160ff198254161790555f52600360205260405f20600160ff19825416179055612cd0610ad7600454613499565b60405193849363a03d55e360e01b9085613604565b612b395f80516020614bcd83398151915293612cff6139bb565b60018060a01b038316805f52600260205260405f2063ffffffff60e01b63692652c560e11b165f5260205260405f20600160ff198254161790555f52600360205260405f20600160ff19825416179055612d5d610ad7600454613499565b60405193849363692652c560e11b9085613604565b612b395f80516020614bcd83398151915293612d8c6139bb565b60018060a01b038316805f52600260205260405f2063ffffffff60e01b635313efb360e11b165f5260205260405f20600160ff198254161790555f52600360205260405f20600160ff19825416179055612dea610ad7600454613499565b604051938493635313efb360e11b9085613604565b612b395f80516020614bcd83398151915293612e196139bb565b60018060a01b038316805f52600260205260405f2063ffffffff60e01b636e553f6560e01b165f5260205260405f20600160ff198254161790555f52600360205260405f20600160ff19825416179055612e77610ad7600454613499565b604051938493636e553f6560e01b9085613604565b612b395f80516020614bcd83398151915293612ea66139bb565b60018060a01b038316805f52600260205260405f2063ffffffff60e01b632d182be560e21b165f5260205260405f20600160ff198254161790555f52600360205260405f20600160ff19825416179055612f04610ad7600454613499565b604051938493632d182be560e21b9085613604565b612b395f80516020614bcd83398151915293612f336139bb565b60018060a01b038316805f52600260205260405f2063ffffffff60e01b635d043b2960e11b165f5260205260405f20600160ff198254161790555f52600360205260405f20600160ff19825416179055612f91610ad7600454613499565b604051938493635d043b2960e11b9085613604565b612b395f80516020614bcd83398151915293612fc06139bb565b60018060a01b038316805f52600260205260405f2063ffffffff60e01b638dbdbe6d60e01b165f5260205260405f20600160ff198254161790555f52600360205260405f20600160ff1982541617905561301e610ad7600454613499565b604051938493638dbdbe6d60e01b9085613604565b612b395f80516020614bcd8339815191529361304d6139bb565b60018060a01b038316805f52600260205260405f2063ffffffff60e01b62b4d4cb60e11b165f5260205260405f20600160ff198254161790555f52600360205260405f20600160ff198254161790556130aa610ad7600454613499565b60405193849362b4d4cb60e11b9085613604565b612b395f80516020614bcd833981519152936130d86139bb565b60018060a01b038316805f52600260205260405f2063ffffffff60e01b630b8b4a6160e21b165f5260205260405f20600160ff198254161790555f52600360205260405f20600160ff19825416179055613136610ad7600454613499565b604051938493630b8b4a6160e21b9085613604565b612b395f80516020614bcd833981519152936131656139bb565b60018060a01b038316805f52600260205260405f2063ffffffff60e01b633ea0e43760e11b165f5260205260405f20600160ff198254161790555f52600360205260405f20600160ff198254161790556131c3610ad7600454613499565b604051938493633ea0e43760e11b9085613604565b612b395f80516020614bcd833981519152936131f26139bb565b60018060a01b038316805f52600260205260405f2063ffffffff60e01b6319792d1d60e11b165f5260205260405f20600160ff198254161790555f52600360205260405f20600160ff19825416179055613250610ad7600454613499565b6040519384936319792d1d60e11b9085613604565b612b395f80516020614bcd8339815191529361327f6139bb565b60018060a01b038316805f52600260205260405f2063ffffffff60e01b6385b77f4560e01b165f5260205260405f20600160ff198254161790555f52600360205260405f20600160ff198254161790556132dd610ad7600454613499565b6040519384936385b77f4560e01b9085613604565b612b395f80516020614bcd8339815191529361330c6139bb565b60018060a01b038316805f52600260205260405f2063ffffffff60e01b63a8abe90560e01b165f5260205260405f20600160ff198254161790555f52600360205260405f20600160ff1982541617905561336a610ad7600454613499565b60405193849363a8abe90560e01b9085613604565b612b395f80516020614bcd833981519152936133996139bb565b60018060a01b038316805f52600260205260405f2063ffffffff60e01b631a4ca37b60e21b165f5260205260405f20600160ff198254161790555f52600360205260405f20600160ff198254161790556133f7610ad7600454613499565b604051938493631a4ca37b60e21b9085613604565b612b395f80516020614bcd833981519152936134266139bb565b60018060a01b038316805f52600260205260405f2063ffffffff60e01b63095ea7b360e01b165f5260205260405f20600160ff198254161790555f52600360205260405f20600160ff19825416179055613484610ad7600454613499565b60405193849363095ea7b360e01b9085613604565b5f1981146134a75760010190565b634e487b7160e01b5f52601160045260245ffd5b6001600160a01b03909116815263c04b8d5960e01b60208201526060604082018190526119c2939101916128fe565b6001600160a01b0390911681526338ed173960e01b60208201526060604082018190526119c2939101916128fe565b6001600160a01b03909116815263559ec80d60e01b60208201526060604082018190526119c2939101916128fe565b6001600160a01b039091168152630c04a8a160e41b60208201526060604082018190526119c2939101916128fe565b6001600160a01b039091168152634701287760e11b60208201526060604082018190526119c2939101916128fe565b6001600160a01b03909116815263617ba03760e01b60208201526060604082018190526119c2939101916128fe565b6001600160a01b03909116815263a9059cbb60e01b60208201526060604082018190526119c2939101916128fe565b6001600160a01b0390911681526001600160e01b031990911660208201526060604082018190526119c2939101916128fe565b6001600160a01b039182168152918116602083015290911660408201526080606082018190526119c2939101916128fe565b634e487b7160e01b5f52603260045260245ffd5b919081101561368d5760051b0190565b613669565b356119c2816104d2565b908160209103126104e357516119c2816104d2565b612b395f80516020614b8d8339815191529361187d6139bb565b612b395f80516020614aed8339815191529361195f6139bb565b6136ed614ac1565b6136f5614ac1565b6136fe3361395d565b6040818051810103126104e35780604060206137b193015191613720836104d2565b015161372b816104d2565b6001600160a01b031661373c6139bb565b5f80546001600160a01b031981168317825582916001600160a01b03909116905f80516020614b0d8339815191529080a36137756139bb565b600180546001600160a01b0319811683179091556001600160a01b03165f80516020614b4d8339815191525f80a36001600160a01b0316613951565b565b6001600160401b038111611a7a5760051b60200190565b906137d4826137b3565b6137e16040519182611a7f565b82815280926137f2601f19916137b3565b01905f5b82811061380257505050565b8060606020809385010152016137f6565b919081101561368d5760051b81013590601e19813603018212156104e35701803591906001600160401b0383116104e35760200182360381136104e3579190565b908092918237015f815290565b6020818303126104e3578051906001600160401b0382116104e357019080601f830112156104e35781516119c2926020016129d3565b805182101561368d5760209160051b010190565b60409063ffffffff6119c2959316815281602082015201916128fe565b60ff600e54169081156138d9575090565b6001600160a01b03165f9081526005602052604090205460ff16919050565b156138ff57565b60405162461bcd60e51b815260206004820152601460248201527315995b1bdc98531a58881b9bdd081b1a5b9ad95960621b6044820152606490fd5b91908260409103126104e3576020825192015190565b6137b1906127916139bb565b6001600160a01b031680156139a8575f80516020614b2d83398151915280546001600160a01b0319811683179091556001600160a01b03165f80516020614b6d8339815191525f80a3565b631e4fbdf760e01b5f525f60045260245ffd5b5f80516020614b2d833981519152546001600160a01b031633036139db57565b63118cdaa760e01b5f523360045260245ffd5b156139f557565b60405162461bcd60e51b815260206004820152601260248201527114d95b99195c881b9bdd08185b1b1bddd95960721b6044820152606490fd5b906004116104e35790600490565b90929192836004116104e35783116104e357600401916003190190565b356001600160e01b0319811692919060048210613a75575050565b6001600160e01b031960049290920360031b82901b16169150565b15613a9757565b60405162461bcd60e51b815260206004820152601260248201527115185c99d95d081b9bdd08185b1b1bddd95960721b6044820152606490fd5b15613ad857565b60405162461bcd60e51b815260206004820152601460248201527314d95b1958dd1bdc881b9bdd08185b1b1bddd95960621b6044820152606490fd5b15613b1b57565b60405162461bcd60e51b815260206004820152601c60248201527b121e5c195c98dbdc9955985d5b1d131a58881b9bdd081b1a5b9ad95960221b6044820152606490fd5b6001600160e01b031990911681526001600160a01b0390911660208201526060604082018190526119c2939101916128fe565b15613b9957565b60405162461bcd60e51b815260206004820152601160248201527011db5e131a58881b9bdd081b1a5b9ad959607a1b6044820152606490fd5b9291604092613bf99296959660018060a01b031685526060602086015260608501916128fe565b931515910152565b15613c0857565b60405162461bcd60e51b815260206004820152601e60248201527f53776170526f75746572303220726571756972657320616e79417373657400006044820152606490fd5b91602091613bf9919594956040855260408501916128fe565b9160206119c29381815201916128fe565b909192613ca6613c9a60018060a01b035f80516020614b2d833981519152541690565b6001600160a01b031690565b6001600160a01b038316146143e857613ce4613cdf613cd8613cfe9460018060a01b03165f52600660205260405f2090565b5460ff1690565b6139ee565b80613cf8613cf28287613a2f565b90613a5a565b94613a3d565b919092613d0d600e5460ff1690565b806143ce575b6001600160e01b031982166317938e1360e01b81148015928190846143bd575b81156143ac575b1590816143a3575b50614340575b6338ed173960e01b82148015614330575b15613dc25750505050509073__$0e99dd572d354182f948ac1bae4d23aed1$__91823b156104e357604051625e769d60e91b8152925f92849283918291613da39160048401613c66565b03915af480156107c757613db45750565b806107bf5f6137b193611a7f565b63c04b8d5960e01b8203613e165750505050509073__$0e99dd572d354182f948ac1bae4d23aed1$__91823b156104e357604051632c69e61160e11b8152925f92849283918291613da39160048401613c66565b631e51809360e31b8203613e6a5750505050509073__$0e99dd572d354182f948ac1bae4d23aed1$__91823b156104e35760405163fdf3722360e01b8152925f92849283918291613da39160048401613c66565b63b858183f60e01b8203613ed257505050505090613e8a600e5460ff1690565b613e9381613c01565b73__$0e99dd572d354182f948ac1bae4d23aed1$__803b156104e357613da3935f93604051958694859384936331dc39a360e01b855260048501613c4d565b63a9059cbb60e01b8203613ef95750505050506137b191613ef4913691611abd565b614a8a565b63095ea7b360e01b8203613f205750505050506137b191613f1b913691611abd565b614a12565b630c04a8a160e41b8203613f475750505050506137b191613f42913691611abd565b614998565b63617ba03760e01b8203613f6e5750505050506137b191613f69913691611abd565b614955565b631a4ca37b60e21b8203613f955750505050506137b191613f90913691611abd565b614920565b93949363559ec80d60e01b82148015614320575b8015614310575b8015614300575b15613fcb5750505050506137b19150614886565b939493636e553f6560e01b8203613ff55750505050506137b191613ff0913691611abd565b6147e6565b630b8b4a6160e21b820361401c5750505050506137b191614017913691611abd565b614823565b638dbdbe6d60e01b82036140435750505050506137b19161403e913691611abd565b61486c565b62b4d4cb60e11b82036140695750505050506137b191614064913691611abd565b61484b565b632d182be560e21b820361408b5750505050506137b191614017913691611abd565b635d043b2960e11b82036140ad5750505050506137b191614017913691611abd565b633ea0e43760e11b82036140cf5750505050506137b191614017913691611abd565b6319792d1d60e11b82036140f15750505050506137b191614017913691611abd565b6385b77f4560e01b82036141135750505050506137b191614017913691611abd565b63a8abe90560e01b82036141355750505050506137b191613ff0913691611abd565b939493631592ca1b60e31b82036141db575050505073__$bda5499a8fa48831c49ec55d96dbc8aee1$__604051636290236f60e11b8152602081600481855af480156107c75761418c915f916141bc575b50613b92565b600e5460ff1693813b156104e3575f93613da360405196879586948594633bf8b9bb60e11b865260048601613bd2565b6141d5915060203d6020116109dc576109ce8183611a7f565b5f614186565b9295939492634701287760e11b82036141fb575050506137b193506146c7565b959495916142ef575b81156142de575b501561429d57604051636290236f60e11b815273__$f9fa4d4e532bfe6aeff5ab3d328fd72bc7$__9190602081600481865af480156107c757614255915f9161427e575b50613b14565b813b156104e3575f93613da36040519687958694859463be0762ed60e01b865260048601613b5f565b614297915060203d6020116109dc576109ce8183611a7f565b5f61424f565b60405162461bcd60e51b81526020600482015260196024820152782ab735b737bbb710333ab731ba34b7b71039b2b632b1ba37b960391b6044820152606490fd5b63611e2a2d60e11b1490505f61420b565b630acb7f4b60e21b81149150614204565b50635313efb360e11b8214613fb7565b5063692652c560e11b8214613fb0565b5063a03d55e360e01b8214613fa9565b50635c11d79560e01b8214613d59565b614358611b5c613cd886614353896105fd565b611cbf565b15613d48576001600160a01b0385165f9081526003602052604090206143869061438190613cd8565b613a90565b61439e614399613cd886614353896105fd565b613ad1565b613d48565b9050155f613d42565b63611e2a2d60e11b84149150613d3a565b630acb7f4b60e21b84149150613d33565b5063095ea7b360e01b6001600160e01b0319821614613d13565b50505050565b9190916040818403126104e357805161440681612050565b60208201519093906001600160401b0381116104e3576119c29201612a09565b600154604051635229073f60e01b81526001600160a01b0392831660048201525f602482018190526080604483015290949390928592169082908490829061447290608483019061198d565b82606483015203925af19182156107c7575f905f9361449057509190565b905061058c9192503d805f833e6144a78183611a7f565b8101906143ee565b600154604051635229073f60e01b81526001600160a01b0392831660048201526024810193909352608060448401529193925f928592169082908490829061447290608483019061198d565b156145035750565b602081519101fd5b906137b192916145196139bb565b60018060a01b038116805f52600260205260405f2063a9059cbb60e01b5f5260205260405f20600160ff198254161790555f52600360205260405f20600160ff1982541617905561456e610ad7600454613499565b5f80516020614bcd8339815191526040518061458c868686846135d5565b0390a161459a83838361340c565b6136b1565b908160e09103126104e3578035916145b96020830161164a565b9160408101359160608201356145ce816104d2565b916080810135916119c260c060a0840135930161164a565b156145ed57565b60405162461bcd60e51b815260206004820152601c60248201527b10d0d5140819195cdd1a5b985d1a5bdb881b9bdd08185b1b1bddd95960221b6044820152606490fd5b1561463857565b60405162461bcd60e51b815260206004820152601b60248201527a10d0d51408189d5c9b881d1bdad95b881b9bdd08185b1b1bddd959602a1b6044820152606490fd5b1561468257565b60405162461bcd60e51b815260206004820152601f60248201527f43435450206d696e7420726563697069656e74206e6f7420616c6c6f776564006044820152606490fd5b6001600160a01b03165f908152600c602052604090205460ff161561475d57613cd8613cd861473f61473a61472761472c61470b876137b19961475899019061459f565b505050949250969063ffffffff165f52600d60205260405f2090565b6145e6565b6001600160a01b03166138c8565b614631565b6001600160a01b03165f90815260076020526040902090565b61467b565b60405162461bcd60e51b815260206004820152601a60248201527910d0d514081b595cdcd95b99d95c881b9bdd08185b1b1bddd95960321b6044820152606490fd5b156147a657565b60405162461bcd60e51b8152602060048201526018602482015277149958d95a5d995c881b9bdd081dda1a5d195b1a5cdd195960421b6044820152606490fd5b6040818051810103126104e35760400151614800816104d2565b6001600160a01b03165f908152600760205260409020546137b19060ff1661479f565b6060818051810103126104e3576148006060604083015192614844846104d2565b01516104d2565b6080818051810103126104e3576148006080606083015192614844846104d2565b6060818051810103126104e35760600151614800816104d2565b6001600160a01b03165f908152600b602052604090205460ff16156148a757565b60405162461bcd60e51b815260206004820152601160248201527015985d5b1d081b9bdd08185b1b1bddd959607a1b6044820152606490fd5b156148e757565b60405162461bcd60e51b8152602060048201526011602482015270151bdad95b881b9bdd08185b1b1bddd959607a1b6044820152606490fd5b6060818051810103126104e3576148006149506060602084015193614944856104d2565b01519261472c846104d2565b6148e0565b6080818051810103126104e3576148006149506060602084015193614944856104d2565b91908260409103126104e35760208251614992816104d2565b92015190565b6149ab9060208082518301019101614979565b506001600160a01b03165f908152600a602052604090205460ff16156149cd57565b60405162461bcd60e51b815260206004820152601e60248201527f44656c65676174696f6e2061646472657373206e6f7420616c6c6f77656400006044820152606490fd5b614a259060208082518301019101614979565b506001600160a01b03165f9081526009602052604090205460ff1615614a4757565b60405162461bcd60e51b815260206004820152601b60248201527a105c1c1c9bdd99481859191c995cdcc81b9bdd08185b1b1bddd959602a1b6044820152606490fd5b614a9d9060208082518301019101614979565b506001600160a01b03165f908152600860205260409020546137b19060ff1661479f565b60ff5f80516020614bad8339815191525460401c1615614add57565b631afcd79f60e31b5f5260045ffdfe628a44970c0e450415e3ae74334ea44f3307b74dbf677a1371190242bf2f358952ae88b092de36f87fb43fe794eb1381023b9c1bce563a871154022c63dce3429016d09d72d40fdae2fd8ceac6b6234c7706214fd39c1cd1e609a0528c19930090cc2f570a6eb594b1580ea3e41247d2d73a55281889e86bd4ec2fc29c7e62d68be0079c531659141344cd1fd0a4f28419497f9722a3daafe3b4186f6b6457e0ad90e2570fc4fe9f7437be3188d5c791c6662892d31731992aa88f5c87621983f0c57e16840df040f15088dc2f81fe391c3923bec73e23a9662efc9c229c6a00ef729aaa41b9fd994f9ff7c1960df214a84f722002e6cfbea31799cd0873a3efa164736f6c634300081a000af0c57e16840df040f15088dc2f81fe391c3923bec73e23a9662efc9c229c6a00","linkReferences":{"../guard/src/lib/CowSwapLib.sol":{"CowSwapLib":[{"start":2863,"length":20},{"start":3568,"length":20},{"start":4337,"length":20}]},"../guard/src/lib/GmxLib.sol":{"GmxLib":[{"start":3394,"length":20},{"start":4634,"length":20},{"start":6119,"length":20},{"start":8418,"length":20},{"start":9519,"length":20},{"start":10283,"length":20},{"start":17687,"length":20}]},"../guard/src/lib/HypercoreVaultLib.sol":{"HypercoreVaultLib":[{"start":3223,"length":20},{"start":8882,"length":20},{"start":10364,"length":20},{"start":17899,"length":20}]},"../guard/src/lib/UniswapLib.sol":{"UniswapLib":[{"start":16689,"length":20},{"start":16803,"length":20},{"start":16887,"length":20},{"start":16992,"length":20}]},"../guard/src/lib/VeloraLib.sol":{"VeloraLib":[{"start":4792,"length":20},{"start":9696,"length":20},{"start":11171,"length":20}]}}},"methodIdentifiers":{"allowApprovalDestination(address,string)":"98b3cc39","allowAsset(address,string)":"86b6dbe5","allowCallSite(address,bytes4,string)":"5e4ccace","allowDelegationApprovalDestination(address,string)":"63cc17f2","allowReceiver(address,string)":"72e548a9","allowSender(address,string)":"fa2c59c8","allowWithdrawDestination(address,string)":"5ace1d92","allowedApprovalDestinations(address)":"eb0de042","allowedAssets(address)":"a4c1cccb","allowedCCTPDestinations(uint32)":"7cac69c3","allowedCCTPMessengers(address)":"07605342","allowedCallSites(address,bytes4)":"a847cf4d","allowedDelegationApprovalDestinations(address)":"4b941268","allowedLagoonVaults(address)":"8fb4dff2","allowedReceivers(address)":"3cf20025","allowedSenders(address)":"fadbcf48","allowedTargets(address)":"b8fe8d5f","allowedWithdrawDestinations(address)":"07ef00cf","anyAsset()":"87301608","avatar()":"5aef7de6","callSiteCount()":"a9fc3d4f","getGovernanceAddress()":"73252494","getInternalVersion()":"fdedfa27","getTradingStrategyModuleVersion()":"9e4a83cf","gmxOrderVaults(address)":"a86ddc57","isAllowedApprovalDestination(address)":"1d49039c","isAllowedAsset(address)":"c537bed0","isAllowedCCTPDestination(uint32)":"748fca46","isAllowedCCTPMessenger(address)":"0411fb8e","isAllowedCallSite(address,bytes4)":"713ebf3b","isAllowedCowSwap(address)":"333f22e8","isAllowedDelegationApprovalDestination(address)":"2dc32a61","isAllowedGMXMarket(address)":"2e31e9c6","isAllowedGMXRouter(address)":"cbdb1dcf","isAllowedLagoonVault(address)":"6fd7fdef","isAllowedReceiver(address)":"d075f9bb","isAllowedSender(address)":"be8c97b0","isAllowedTarget(address)":"78addb48","isAllowedVeloraSwapper(address)":"f84756aa","isAllowedWithdrawDestination(address)":"efb47bff","multicall(bytes[])":"ac9650d8","owner()":"8da5cb5b","performCall(address,bytes)":"d2f73e3d","performCall(address,bytes,uint256)":"486295dc","removeApprovalDestination(address,string)":"04a3ba25","removeAsset(address,string)":"f901dc33","removeCCTPDestination(uint32,string)":"ba44ad41","removeCallSite(address,bytes4,string)":"d7334c9d","removeDelegationApprovalDestination(address,string)":"f259a073","removeGMXMarket(address,string)":"4d3d31ca","removeHypercoreVault(address,string)":"e2873b6d","removeReceiver(address,string)":"2d12d788","removeSender(address,string)":"a67e1f54","removeWithdrawDestination(address,string)":"8c2fdf9e","renounceOwnership()":"715018a6","setAnyAssetAllowed(bool,string)":"c2e657ae","setAvatar(address)":"086cfca8","setTarget(address)":"776d1a01","setUp(bytes)":"a4f9edbf","swapAndValidateCowSwap(address,address,bytes32,address,address,uint256,uint256)":"4acf884d","swapAndValidateVelora(address,address,address,address,uint256,uint256,bytes)":"d078377c","target()":"d4b83992","transferOwnership(address)":"f2fde38b","validateCall(address,address,bytes)":"6d5025f1","whitelistAaveV3(address,string)":"f20e85e0","whitelistCCTP(address,string)":"ec011440","whitelistCCTPDestination(uint32,string)":"e6f32c51","whitelistCoreWriter(address,address,string)":"acb9da16","whitelistCowSwap(address,address,string)":"1047789e","whitelistERC4626(address,string)":"86a6ae15","whitelistGMX(address,address,address,address[],string)":"6e3de202","whitelistGMXMarket(address,string)":"d7581509","whitelistHypercoreVault(address,string)":"2de905bc","whitelistLagoon(address,string)":"5e6afe4d","whitelistToken(address,string)":"ee5462cc","whitelistTokenForDelegation(address,string)":"6d9a1423","whitelistUniswapV2Router(address,string)":"3ea35551","whitelistUniswapV3Router(address,string)":"34ec8d7e","whitelistVelora(address,address,string)":"4efbad39"},"id":39}