{"abi":[{"type":"constructor","inputs":[{"name":"_owner","type":"address","internalType":"address"},{"name":"_target","type":"address","internalType":"address"}],"stateMutability":"nonpayable"},{"type":"function","name":"allowApprovalDestination","inputs":[{"name":"destination","type":"address","internalType":"address"},{"name":"notes","type":"string","internalType":"string"}],"outputs":[],"stateMutability":"nonpayable"},{"type":"function","name":"allowAsset","inputs":[{"name":"asset","type":"address","internalType":"address"},{"name":"notes","type":"string","internalType":"string"}],"outputs":[],"stateMutability":"nonpayable"},{"type":"function","name":"allowCallSite","inputs":[{"name":"target","type":"address","internalType":"address"},{"name":"selector","type":"bytes4","internalType":"bytes4"},{"name":"notes","type":"string","internalType":"string"}],"outputs":[],"stateMutability":"nonpayable"},{"type":"function","name":"allowDelegationApprovalDestination","inputs":[{"name":"destination","type":"address","internalType":"address"},{"name":"notes","type":"string","internalType":"string"}],"outputs":[],"stateMutability":"nonpayable"},{"type":"function","name":"allowReceiver","inputs":[{"name":"receiver","type":"address","internalType":"address"},{"name":"notes","type":"string","internalType":"string"}],"outputs":[],"stateMutability":"nonpayable"},{"type":"function","name":"allowSender","inputs":[{"name":"sender","type":"address","internalType":"address"},{"name":"notes","type":"string","internalType":"string"}],"outputs":[],"stateMutability":"nonpayable"},{"type":"function","name":"allowWithdrawDestination","inputs":[{"name":"destination","type":"address","internalType":"address"},{"name":"notes","type":"string","internalType":"string"}],"outputs":[],"stateMutability":"nonpayable"},{"type":"function","name":"allowedApprovalDestinations","inputs":[{"name":"destination","type":"address","internalType":"address"}],"outputs":[{"name":"allowed","type":"bool","internalType":"bool"}],"stateMutability":"view"},{"type":"function","name":"allowedAssets","inputs":[{"name":"token","type":"address","internalType":"address"}],"outputs":[{"name":"allowed","type":"bool","internalType":"bool"}],"stateMutability":"view"},{"type":"function","name":"allowedCallSites","inputs":[{"name":"target","type":"address","internalType":"address"},{"name":"selector","type":"bytes4","internalType":"bytes4"}],"outputs":[{"name":"allowed","type":"bool","internalType":"bool"}],"stateMutability":"view"},{"type":"function","name":"allowedDelegationApprovalDestinations","inputs":[{"name":"destination","type":"address","internalType":"address"}],"outputs":[{"name":"allowed","type":"bool","internalType":"bool"}],"stateMutability":"view"},{"type":"function","name":"allowedLagoonVaults","inputs":[{"name":"destination","type":"address","internalType":"address"}],"outputs":[{"name":"allowed","type":"bool","internalType":"bool"}],"stateMutability":"view"},{"type":"function","name":"allowedReceivers","inputs":[{"name":"receiver","type":"address","internalType":"address"}],"outputs":[{"name":"allowed","type":"bool","internalType":"bool"}],"stateMutability":"view"},{"type":"function","name":"allowedSenders","inputs":[{"name":"sender","type":"address","internalType":"address"}],"outputs":[{"name":"allowed","type":"bool","internalType":"bool"}],"stateMutability":"view"},{"type":"function","name":"allowedTargets","inputs":[{"name":"target","type":"address","internalType":"address"}],"outputs":[{"name":"allowed","type":"bool","internalType":"bool"}],"stateMutability":"view"},{"type":"function","name":"allowedWithdrawDestinations","inputs":[{"name":"destination","type":"address","internalType":"address"}],"outputs":[{"name":"allowed","type":"bool","internalType":"bool"}],"stateMutability":"view"},{"type":"function","name":"anyAsset","inputs":[],"outputs":[{"name":"","type":"bool","internalType":"bool"}],"stateMutability":"view"},{"type":"function","name":"avatar","inputs":[],"outputs":[{"name":"","type":"address","internalType":"address"}],"stateMutability":"view"},{"type":"function","name":"callSiteCount","inputs":[],"outputs":[{"name":"","type":"uint256","internalType":"uint256"}],"stateMutability":"view"},{"type":"function","name":"getGovernanceAddress","inputs":[],"outputs":[{"name":"","type":"address","internalType":"address"}],"stateMutability":"view"},{"type":"function","name":"getInternalVersion","inputs":[],"outputs":[{"name":"","type":"uint8","internalType":"uint8"}],"stateMutability":"pure"},{"type":"function","name":"isAllowedApprovalDestination","inputs":[{"name":"receiver","type":"address","internalType":"address"}],"outputs":[{"name":"","type":"bool","internalType":"bool"}],"stateMutability":"view"},{"type":"function","name":"isAllowedAsset","inputs":[{"name":"token","type":"address","internalType":"address"}],"outputs":[{"name":"","type":"bool","internalType":"bool"}],"stateMutability":"view"},{"type":"function","name":"isAllowedCallSite","inputs":[{"name":"target","type":"address","internalType":"address"},{"name":"selector","type":"bytes4","internalType":"bytes4"}],"outputs":[{"name":"","type":"bool","internalType":"bool"}],"stateMutability":"view"},{"type":"function","name":"isAllowedDelegationApprovalDestination","inputs":[{"name":"receiver","type":"address","internalType":"address"}],"outputs":[{"name":"","type":"bool","internalType":"bool"}],"stateMutability":"view"},{"type":"function","name":"isAllowedLagoonVault","inputs":[{"name":"vault","type":"address","internalType":"address"}],"outputs":[{"name":"","type":"bool","internalType":"bool"}],"stateMutability":"view"},{"type":"function","name":"isAllowedReceiver","inputs":[{"name":"receiver","type":"address","internalType":"address"}],"outputs":[{"name":"","type":"bool","internalType":"bool"}],"stateMutability":"view"},{"type":"function","name":"isAllowedSender","inputs":[{"name":"sender","type":"address","internalType":"address"}],"outputs":[{"name":"","type":"bool","internalType":"bool"}],"stateMutability":"view"},{"type":"function","name":"isAllowedTarget","inputs":[{"name":"target","type":"address","internalType":"address"}],"outputs":[{"name":"","type":"bool","internalType":"bool"}],"stateMutability":"view"},{"type":"function","name":"isAllowedWithdrawDestination","inputs":[{"name":"receiver","type":"address","internalType":"address"}],"outputs":[{"name":"","type":"bool","internalType":"bool"}],"stateMutability":"view"},{"type":"function","name":"owner","inputs":[],"outputs":[{"name":"","type":"address","internalType":"address"}],"stateMutability":"view"},{"type":"function","name":"performCall","inputs":[{"name":"target","type":"address","internalType":"address"},{"name":"callData","type":"bytes","internalType":"bytes"}],"outputs":[],"stateMutability":"nonpayable"},{"type":"function","name":"removeApprovalDestination","inputs":[{"name":"destination","type":"address","internalType":"address"},{"name":"notes","type":"string","internalType":"string"}],"outputs":[],"stateMutability":"nonpayable"},{"type":"function","name":"removeAsset","inputs":[{"name":"asset","type":"address","internalType":"address"},{"name":"notes","type":"string","internalType":"string"}],"outputs":[],"stateMutability":"nonpayable"},{"type":"function","name":"removeCallSite","inputs":[{"name":"target","type":"address","internalType":"address"},{"name":"selector","type":"bytes4","internalType":"bytes4"},{"name":"notes","type":"string","internalType":"string"}],"outputs":[],"stateMutability":"nonpayable"},{"type":"function","name":"removeDelegationApprovalDestination","inputs":[{"name":"destination","type":"address","internalType":"address"},{"name":"notes","type":"string","internalType":"string"}],"outputs":[],"stateMutability":"nonpayable"},{"type":"function","name":"removeReceiver","inputs":[{"name":"receiver","type":"address","internalType":"address"},{"name":"notes","type":"string","internalType":"string"}],"outputs":[],"stateMutability":"nonpayable"},{"type":"function","name":"removeSender","inputs":[{"name":"sender","type":"address","internalType":"address"},{"name":"notes","type":"string","internalType":"string"}],"outputs":[],"stateMutability":"nonpayable"},{"type":"function","name":"removeWithdrawDestination","inputs":[{"name":"destination","type":"address","internalType":"address"},{"name":"notes","type":"string","internalType":"string"}],"outputs":[],"stateMutability":"nonpayable"},{"type":"function","name":"renounceOwnership","inputs":[],"outputs":[],"stateMutability":"nonpayable"},{"type":"function","name":"setAnyAssetAllowed","inputs":[{"name":"value","type":"bool","internalType":"bool"},{"name":"notes","type":"string","internalType":"string"}],"outputs":[],"stateMutability":"nonpayable"},{"type":"function","name":"setAvatar","inputs":[{"name":"_avatar","type":"address","internalType":"address"}],"outputs":[],"stateMutability":"nonpayable"},{"type":"function","name":"setTarget","inputs":[{"name":"_target","type":"address","internalType":"address"}],"outputs":[],"stateMutability":"nonpayable"},{"type":"function","name":"setUp","inputs":[{"name":"initializeParams","type":"bytes","internalType":"bytes"}],"outputs":[],"stateMutability":"nonpayable"},{"type":"function","name":"target","inputs":[],"outputs":[{"name":"","type":"address","internalType":"address"}],"stateMutability":"view"},{"type":"function","name":"transferOwnership","inputs":[{"name":"newOwner","type":"address","internalType":"address"}],"outputs":[],"stateMutability":"nonpayable"},{"type":"function","name":"validate1deltaPath","inputs":[{"name":"path","type":"bytes","internalType":"bytes"}],"outputs":[],"stateMutability":"view"},{"type":"function","name":"validateCall","inputs":[{"name":"sender","type":"address","internalType":"address"},{"name":"target","type":"address","internalType":"address"},{"name":"callDataWithSelector","type":"bytes","internalType":"bytes"}],"outputs":[],"stateMutability":"view"},{"type":"function","name":"validateUniswapV3Path","inputs":[{"name":"path","type":"bytes","internalType":"bytes"}],"outputs":[],"stateMutability":"view"},{"type":"function","name":"validate_1deltaDeposit","inputs":[{"name":"callData","type":"bytes","internalType":"bytes"}],"outputs":[],"stateMutability":"view"},{"type":"function","name":"validate_1deltaMulticall","inputs":[{"name":"callData","type":"bytes","internalType":"bytes"}],"outputs":[],"stateMutability":"view"},{"type":"function","name":"validate_1deltaWithdraw","inputs":[{"name":"callData","type":"bytes","internalType":"bytes"}],"outputs":[],"stateMutability":"view"},{"type":"function","name":"validate_ERC4626Deposit","inputs":[{"name":"target","type":"address","internalType":"address"},{"name":"callData","type":"bytes","internalType":"bytes"}],"outputs":[],"stateMutability":"view"},{"type":"function","name":"validate_ERC4626Redeem","inputs":[{"name":"callData","type":"bytes","internalType":"bytes"}],"outputs":[],"stateMutability":"view"},{"type":"function","name":"validate_ERC4626Withdraw","inputs":[{"name":"callData","type":"bytes","internalType":"bytes"}],"outputs":[],"stateMutability":"view"},{"type":"function","name":"validate_aaveSupply","inputs":[{"name":"callData","type":"bytes","internalType":"bytes"}],"outputs":[],"stateMutability":"view"},{"type":"function","name":"validate_aaveWithdraw","inputs":[{"name":"callData","type":"bytes","internalType":"bytes"}],"outputs":[],"stateMutability":"view"},{"type":"function","name":"validate_approve","inputs":[{"name":"callData","type":"bytes","internalType":"bytes"}],"outputs":[],"stateMutability":"view"},{"type":"function","name":"validate_approveDelegation","inputs":[{"name":"callData","type":"bytes","internalType":"bytes"}],"outputs":[],"stateMutability":"view"},{"type":"function","name":"validate_exactInput","inputs":[{"name":"callData","type":"bytes","internalType":"bytes"}],"outputs":[],"stateMutability":"view"},{"type":"function","name":"validate_exactOutput","inputs":[{"name":"callData","type":"bytes","internalType":"bytes"}],"outputs":[],"stateMutability":"view"},{"type":"function","name":"validate_flashSwapAllOut","inputs":[{"name":"callData","type":"bytes","internalType":"bytes"}],"outputs":[],"stateMutability":"view"},{"type":"function","name":"validate_flashSwapExactInt","inputs":[{"name":"callData","type":"bytes","internalType":"bytes"}],"outputs":[],"stateMutability":"view"},{"type":"function","name":"validate_flashSwapExactOut","inputs":[{"name":"callData","type":"bytes","internalType":"bytes"}],"outputs":[],"stateMutability":"view"},{"type":"function","name":"validate_lagoonSettle","inputs":[{"name":"vault","type":"address","internalType":"address"}],"outputs":[],"stateMutability":"view"},{"type":"function","name":"validate_swapExactTokensForTokens","inputs":[{"name":"callData","type":"bytes","internalType":"bytes"}],"outputs":[],"stateMutability":"view"},{"type":"function","name":"validate_transfer","inputs":[{"name":"callData","type":"bytes","internalType":"bytes"}],"outputs":[],"stateMutability":"view"},{"type":"function","name":"validate_transferERC20AllIn","inputs":[{"name":"callData","type":"bytes","internalType":"bytes"}],"outputs":[],"stateMutability":"view"},{"type":"function","name":"validate_transferERC20In","inputs":[{"name":"callData","type":"bytes","internalType":"bytes"}],"outputs":[],"stateMutability":"view"},{"type":"function","name":"whitelistAaveV3","inputs":[{"name":"lendingPool","type":"address","internalType":"address"},{"name":"notes","type":"string","internalType":"string"}],"outputs":[],"stateMutability":"nonpayable"},{"type":"function","name":"whitelistERC4626","inputs":[{"name":"vault","type":"address","internalType":"address"},{"name":"notes","type":"string","internalType":"string"}],"outputs":[],"stateMutability":"nonpayable"},{"type":"function","name":"whitelistLagoon","inputs":[{"name":"vault","type":"address","internalType":"address"},{"name":"notes","type":"string","internalType":"string"}],"outputs":[],"stateMutability":"nonpayable"},{"type":"function","name":"whitelistOnedelta","inputs":[{"name":"brokerProxy","type":"address","internalType":"address"},{"name":"lendingPool","type":"address","internalType":"address"},{"name":"notes","type":"string","internalType":"string"}],"outputs":[],"stateMutability":"nonpayable"},{"type":"function","name":"whitelistToken","inputs":[{"name":"token","type":"address","internalType":"address"},{"name":"notes","type":"string","internalType":"string"}],"outputs":[],"stateMutability":"nonpayable"},{"type":"function","name":"whitelistTokenForDelegation","inputs":[{"name":"token","type":"address","internalType":"address"},{"name":"notes","type":"string","internalType":"string"}],"outputs":[],"stateMutability":"nonpayable"},{"type":"function","name":"whitelistUniswapV2Router","inputs":[{"name":"router","type":"address","internalType":"address"},{"name":"notes","type":"string","internalType":"string"}],"outputs":[],"stateMutability":"nonpayable"},{"type":"function","name":"whitelistUniswapV3Router","inputs":[{"name":"router","type":"address","internalType":"address"},{"name":"notes","type":"string","internalType":"string"}],"outputs":[],"stateMutability":"nonpayable"},{"type":"event","name":"AnyAssetSet","inputs":[{"name":"value","type":"bool","indexed":false,"internalType":"bool"},{"name":"notes","type":"string","indexed":false,"internalType":"string"}],"anonymous":false},{"type":"event","name":"AnyVaultSet","inputs":[{"name":"value","type":"bool","indexed":false,"internalType":"bool"},{"name":"notes","type":"string","indexed":false,"internalType":"string"}],"anonymous":false},{"type":"event","name":"ApprovalDestinationApproved","inputs":[{"name":"sender","type":"address","indexed":false,"internalType":"address"},{"name":"notes","type":"string","indexed":false,"internalType":"string"}],"anonymous":false},{"type":"event","name":"ApprovalDestinationRemoved","inputs":[{"name":"sender","type":"address","indexed":false,"internalType":"address"},{"name":"notes","type":"string","indexed":false,"internalType":"string"}],"anonymous":false},{"type":"event","name":"AssetApproved","inputs":[{"name":"sender","type":"address","indexed":false,"internalType":"address"},{"name":"notes","type":"string","indexed":false,"internalType":"string"}],"anonymous":false},{"type":"event","name":"AssetRemoved","inputs":[{"name":"sender","type":"address","indexed":false,"internalType":"address"},{"name":"notes","type":"string","indexed":false,"internalType":"string"}],"anonymous":false},{"type":"event","name":"AvatarSet","inputs":[{"name":"previousAvatar","type":"address","indexed":true,"internalType":"address"},{"name":"newAvatar","type":"address","indexed":true,"internalType":"address"}],"anonymous":false},{"type":"event","name":"CallSiteApproved","inputs":[{"name":"target","type":"address","indexed":false,"internalType":"address"},{"name":"selector","type":"bytes4","indexed":false,"internalType":"bytes4"},{"name":"notes","type":"string","indexed":false,"internalType":"string"}],"anonymous":false},{"type":"event","name":"CallSiteRemoved","inputs":[{"name":"target","type":"address","indexed":false,"internalType":"address"},{"name":"selector","type":"bytes4","indexed":false,"internalType":"bytes4"},{"name":"notes","type":"string","indexed":false,"internalType":"string"}],"anonymous":false},{"type":"event","name":"DelegationApprovalDestinationApproved","inputs":[{"name":"sender","type":"address","indexed":false,"internalType":"address"},{"name":"notes","type":"string","indexed":false,"internalType":"string"}],"anonymous":false},{"type":"event","name":"DelegationApprovalDestinationRemoved","inputs":[{"name":"sender","type":"address","indexed":false,"internalType":"address"},{"name":"notes","type":"string","indexed":false,"internalType":"string"}],"anonymous":false},{"type":"event","name":"Initialized","inputs":[{"name":"version","type":"uint64","indexed":false,"internalType":"uint64"}],"anonymous":false},{"type":"event","name":"LagoonVaultApproved","inputs":[{"name":"vault","type":"address","indexed":false,"internalType":"address"},{"name":"notes","type":"string","indexed":false,"internalType":"string"}],"anonymous":false},{"type":"event","name":"OwnershipTransferred","inputs":[{"name":"previousOwner","type":"address","indexed":true,"internalType":"address"},{"name":"newOwner","type":"address","indexed":true,"internalType":"address"}],"anonymous":false},{"type":"event","name":"ReceiverApproved","inputs":[{"name":"sender","type":"address","indexed":false,"internalType":"address"},{"name":"notes","type":"string","indexed":false,"internalType":"string"}],"anonymous":false},{"type":"event","name":"ReceiverRemoved","inputs":[{"name":"sender","type":"address","indexed":false,"internalType":"address"},{"name":"notes","type":"string","indexed":false,"internalType":"string"}],"anonymous":false},{"type":"event","name":"SenderApproved","inputs":[{"name":"sender","type":"address","indexed":false,"internalType":"address"},{"name":"notes","type":"string","indexed":false,"internalType":"string"}],"anonymous":false},{"type":"event","name":"SenderRemoved","inputs":[{"name":"sender","type":"address","indexed":false,"internalType":"address"},{"name":"notes","type":"string","indexed":false,"internalType":"string"}],"anonymous":false},{"type":"event","name":"TargetSet","inputs":[{"name":"previousTarget","type":"address","indexed":true,"internalType":"address"},{"name":"newTarget","type":"address","indexed":true,"internalType":"address"}],"anonymous":false},{"type":"event","name":"WithdrawDestinationApproved","inputs":[{"name":"sender","type":"address","indexed":false,"internalType":"address"},{"name":"notes","type":"string","indexed":false,"internalType":"string"}],"anonymous":false},{"type":"event","name":"WithdrawDestinationRemoved","inputs":[{"name":"sender","type":"address","indexed":false,"internalType":"address"},{"name":"notes","type":"string","indexed":false,"internalType":"string"}],"anonymous":false},{"type":"error","name":"InvalidInitialization","inputs":[]},{"type":"error","name":"NotInitializing","inputs":[]},{"type":"error","name":"OwnableInvalidOwner","inputs":[{"name":"owner","type":"address","internalType":"address"}]},{"type":"error","name":"OwnableUnauthorizedAccount","inputs":[{"name":"account","type":"address","internalType":"address"}]}],"bytecode":{"object":"0x608060405234801561000f575f80fd5b506040516146f43803806146f483398101604081905261002e916103f1565b604080516001600160a01b03848116602083015283168183015281518082038301815260609091019091526100628161006a565b505050610429565b7ff0c57e16840df040f15088dc2f81fe391c3923bec73e23a9662efc9c229c6a00805468010000000000000000810460ff1615906001600160401b03165f811580156100b35750825b90505f826001600160401b031660011480156100ce5750303b155b9050811580156100dc575080155b156100fa5760405163f92ee8a960e01b815260040160405180910390fd5b84546001600160401b0319166001178555831561012857845460ff60401b1916680100000000000000001785555b610131336101b7565b5f808780602001905181019061014791906103f1565b9092509050610155816101cb565b61015e81610222565b6101678261027b565b505083156101af57845460ff60401b19168555604051600181527fc7f505b2f371ae2175ee4913f4499e1f2633a7b5936321eed1cdaeb6115181d29060200160405180910390a15b505050505050565b6101bf6102ba565b6101c88161030a565b50565b6101d3610312565b5f80546001600160a01b038381166001600160a01b0319831681178455604051919092169283917f52ae88b092de36f87fb43fe794eb1381023b9c1bce563a871154022c63dce3429190a35050565b61022a610312565b600180546001600160a01b038381166001600160a01b0319831681179093556040519116919082907f90cc2f570a6eb594b1580ea3e41247d2d73a55281889e86bd4ec2fc29c7e62d6905f90a35050565b610283610312565b6001600160a01b0381166102b157604051631e4fbdf760e01b81525f60048201526024015b60405180910390fd5b6101c88161036d565b7ff0c57e16840df040f15088dc2f81fe391c3923bec73e23a9662efc9c229c6a005468010000000000000000900460ff1661030857604051631afcd79f60e31b815260040160405180910390fd5b565b6102836102ba565b336103447f9016d09d72d40fdae2fd8ceac6b6234c7706214fd39c1cd1e609a0528c199300546001600160a01b031690565b6001600160a01b0316146103085760405163118cdaa760e01b81523360048201526024016102a8565b7f9016d09d72d40fdae2fd8ceac6b6234c7706214fd39c1cd1e609a0528c19930080546001600160a01b031981166001600160a01b03848116918217845560405192169182907f8be0079c531659141344cd1fd0a4f28419497f9722a3daafe3b4186f6b6457e0905f90a3505050565b6001600160a01b03811681146101c8575f80fd5b5f8060408385031215610402575f80fd5b825161040d816103dd565b602084015190925061041e816103dd565b809150509250929050565b6142be806104365f395ff3fe608060405234801561000f575f80fd5b506004361061044e575f3560e01c806386b6dbe511610242578063ca963c5011610140578063efb47bff116100bf578063f76081e411610084578063f76081e414610abf578063f901dc3314610ad2578063fa2c59c814610ae5578063fadbcf4814610af8578063fdedfa2714610b1a575f80fd5b8063efb47bff14610a56578063f20e85e014610a86578063f259a07314610452578063f26749f314610a99578063f2fde38b14610aac575f80fd5b8063d7334c9d11610105578063d7334c9d146109e8578063e98539c5146109fb578063eb0de04214610a0e578063ebe2681614610a30578063ee5462cc14610a43575f80fd5b8063ca963c501461069b578063d075f9bb1461099c578063d2f73e3d146109af578063d4b83992146109c2578063d4c0fe45146109d5575f80fd5b8063a4f9edbf116101cc578063b8fe8d5f11610191578063b8fe8d5f14610911578063be8c97b014610933578063c2e657ae14610963578063c4cc9dba14610976578063c537bed014610989575f80fd5b8063a4f9edbf14610894578063a67e1f54146108a7578063a847cf4d146108ba578063a9fc3d4f146108e7578063b3c329cb146108fe575f80fd5b80638fb4dff2116102125780638fb4dff214610817578063957dc6c01461083957806398b3cc391461084c578063a1b6b4301461085f578063a4c1cccb14610872575f80fd5b806386b6dbe5146107dc57806387301608146107ef5780638c2fdf9e146107fc5780638da5cb5b1461080f575f80fd5b80635e4ccace1161034f578063715018a6116102d9578063776d1a011161029e578063776d1a0114610760578063780650861461077357806378addb48146107865780637ea44655146107b657806386a6ae15146107c9575f80fd5b8063715018a61461071757806372e548a91461071f5780637325249414610732578063742bfc7e1461073a578063761bcd9c1461074d575f80fd5b80636ad113531161031f5780636ad113531461069b5780636d5025f1146106ae5780636d9a1423146106c15780636fd7fdef146106d4578063713ebf3b14610704575f80fd5b80635e4ccace1461064f5780635e6afe4d1461066257806363cc17f2146106755780636a6d5cc814610688575f80fd5b80632dc32a61116103db5780634b941268116103a05780634b941268146105ca5780634b956bd8146105ec57806359b92be9146105ff5780635ace1d92146106125780635aef7de614610625575f80fd5b80632dc32a611461053f57806334ec8d7e1461056f5780633cf20025146105825780633ea35551146105a4578063425f49d0146105b7575f80fd5b80631710a4f2116104215780631710a4f2146104c45780631c123e77146104d75780631d49039c146104ea5780632c02cda01461051a5780632d12d7881461052c575f80fd5b806304a3ba251461045257806307ac35621461046757806307ef00cf1461047a578063086cfca8146104b1575b5f80fd5b610465610460366004613677565b610b29565b005b610465610475366004613783565b610b91565b61049c6104883660046137bc565b60086020525f908152604090205460ff1681565b60405190151581526020015b60405180910390f35b6104656104bf3660046137bc565b610ecc565b6104656104d2366004613783565b610f23565b6104656104e5366004613783565b610fd3565b61049c6104f83660046137bc565b6001600160a01b03165f9081526009602052604090205460ff16151560011490565b6104656105283660046137de565b5050565b61046561053a366004613677565b61104c565b61049c61054d3660046137bc565b6001600160a01b03165f908152600a602052604090205460ff16151560011490565b61046561057d366004613677565b6110a7565b61049c6105903660046137bc565b60076020525f908152604090205460ff1681565b6104656105b2366004613677565b611122565b6104656105c5366004613783565b61114d565b61049c6105d83660046137bc565b600a6020525f908152604090205460ff1681565b6104656105fa366004613783565b61116e565b61046561060d366004613783565b611211565b610465610620366004613677565b611292565b5f54610637906001600160a01b031681565b6040516001600160a01b0390911681526020016104a8565b61046561065d366004613846565b6112f0565b610465610670366004613677565b61139c565b610465610683366004613677565b611548565b610465610696366004613783565b6115a6565b6104656106a9366004613783565b61164d565b6104656106bc3660046138a4565b61166f565b6104656106cf366004613677565b611681565b61049c6106e23660046137bc565b6001600160a01b03165f908152600b602052604090205460ff16151560011490565b61049c6107123660046138d2565b6116b7565b6104656116ee565b61046561072d366004613677565b611701565b61063761175f565b610465610748366004613783565b61176d565b61046561075b366004613783565b61180b565b61046561076e3660046137bc565b611914565b610465610781366004613783565b61196d565b61049c6107943660046137bc565b6001600160a01b03165f9081526003602052604090205460ff16151560011490565b6104656107c4366004613783565b611a0f565b6104656107d7366004613677565b611a4b565b6104656107ea366004613677565b611bc3565b600c5461049c9060ff1681565b61046561080a366004613677565b611c21565b610637611c7c565b61049c6108253660046137bc565b600b6020525f908152604090205460ff1681565b610465610847366004613783565b611caa565b61046561085a366004613677565b611d68565b61046561086d366004613783565b611dc6565b61049c6108803660046137bc565b60056020525f908152604090205460ff1681565b6104656108a2366004613783565b611f0c565b6104656108b5366004613677565b61204e565b61049c6108c83660046138d2565b600260209081525f928352604080842090915290825290205460ff1681565b6108f060045481565b6040519081526020016104a8565b61046561090c3660046137bc565b6120a9565b61049c61091f3660046137bc565b60036020525f908152604090205460ff1681565b61049c6109413660046137bc565b6001600160a01b03165f9081526006602052604090205460ff16151560011490565b610465610971366004613912565b612112565b610465610984366004613783565b61215c565b61049c6109973660046137bc565b612216565b61049c6109aa3660046137bc565b612247565b6104656109bd366004613677565b612269565b600154610637906001600160a01b031681565b6104656109e3366004613783565b6122ca565b6104656109f6366004613846565b612309565b610465610a09366004613783565b61237b565b61049c610a1c3660046137bc565b60096020525f908152604090205460ff1681565b610465610a3e366004613783565b61241c565b610465610a51366004613677565b6124b2565b61049c610a643660046137bc565b6001600160a01b03165f9081526008602052604090205460ff16151560011490565b610465610a94366004613677565b6124bd565b610465610aa73660046138a4565b612513565b610465610aba3660046137bc565b612588565b610465610acd366004613783565b6125c2565b610465610ae0366004613677565b61263d565b610465610af3366004613677565b612698565b61049c610b063660046137bc565b60066020525f908152604090205460ff1681565b604051600181526020016104a8565b610b316126f6565b6001600160a01b0383165f9081526009602052604090819020805460ff19169055517fb71be9befd3ac90c1c9981d3b1161b3c2c6dcd741f13b34061aa251226a802df90610b8490859085908590613957565b60405180910390a1505050565b5f81806020019051810190610ba691906139f3565b90505f5b8151811015610ec7575f828281518110610bc657610bc6613aa2565b602002602001015190505f610be75f6004846127289092919063ffffffff16565b610bf090613ab6565b90505f610c0d6004808551610c059190613b08565b859190612728565b6040805180820190915260208082527f7472616e736665724552433230496e28616464726573732c75696e74323536299101529050631dac092b60e11b6001600160e01b0319831601610c6857610c6381611211565b610ebc565b60408051808201909152601b81527f7472616e736665724552433230416c6c496e2861646472657373290000000000602090910152635cf59cb760e11b6001600160e01b0319831601610cbe57610c6381611a0f565b60408051808201909152601881527f6465706f73697428616464726573732c6164647265737329000000000000000060209091015262d3ec1f60e31b6001600160e01b0319831601610d1357610c638161215c565b60408051808201909152601981527f776974686472617728616464726573732c6164647265737329000000000000006020909101526306bf1c7b60e01b6001600160e01b0319831601610d6957610c63816125c2565b610d9060405180606001604052806027815260200161422e60279139805160209091012090565b6001600160e01b031916826001600160e01b03191603610db357610c638161164d565b610dda60405180606001604052806028815260200161420660289139805160209091012090565b6001600160e01b031916826001600160e01b03191603610dfd57610c638161164d565b60408051808201909152601e81527f666c61736853776170416c6c4f75742875696e743235362c627974657329000060209091015263d2b3d16560e01b6001600160e01b0319831601610e5357610c638161114d565b60405162461bcd60e51b815260206004820152603360248201527f76616c69646174655f3164656c74614d756c746963616c6c3a20556e6b6e6f776044820152723710333ab731ba34b7b71039b2b632b1ba37b960691b60648201526084015b60405180910390fd5b505050600101610baa565b505050565b610ed46126f6565b5f80546001600160a01b038381166001600160a01b0319831681178455604051919092169283917f52ae88b092de36f87fb43fe794eb1381023b9c1bce563a871154022c63dce3429190a35050565b5f81806020019051810190610f389190613b26565b509050610f61816001600160a01b03165f9081526008602052604090205460ff16151560011490565b6105285760405162461bcd60e51b815260206004820152603c60248201527f76616c69646174655f7472616e736665723a205265636569766572206164647260448201527f657373206e6f742077686974656c6973746564206279204775617264000000006064820152608401610eb3565b5f805b610fdf8361287e565b5092509050610fed82612216565b6110095760405162461bcd60e51b8152600401610eb390613b52565b61101281612216565b61102e5760405162461bcd60e51b8152600401610eb390613b52565b611037836128b9565b15610ec757611045836128f2565b9250610fd6565b6110546126f6565b6001600160a01b0383165f9081526007602052604090819020805460ff19169055517f4e13b11ab98e672bd78295ef9cebe764dc617f95decf47d842c25b83abc0c72490610b8490859085908590613957565b6110d9836110d26040518060600160405280603381526020016141d360339139805160209091012090565b84846112f0565b611104836110d260405180606001604052806034815260200161425560349139805160209091012090565b6111178363b858183f60e01b84846112f0565b610ec7838383611d68565b611117836110d260405180608001604052806043815260200161410660439139805160209091012090565b5f818060200190518101906111629190613b9a565b91505061052881611dc6565b5f818060200190518101906111839190613b26565b5090506111ac816001600160a01b03165f9081526009602052604090205460ff16151560011490565b6105285760405162461bcd60e51b815260206004820152603060248201527f76616c69646174655f617070726f76653a20417070726f76652061646472657360448201526f0e640c8decae640dcdee840dac2e8c6d60831b6064820152608401610eb3565b5f818060200190518101906112269190613b26565b50905061123281612216565b6105285760405162461bcd60e51b815260206004820152602b60248201527f76616c69646174655f7472616e736665724552433230496e3a20546f6b656e2060448201526a1b9bdd08185b1b1bddd95960aa1b6064820152608401610eb3565b61129a6126f6565b6001600160a01b0383165f9081526008602052604090819020805460ff19166001179055517f3562181221a42a19ddd03a82dfe06acab1905ceb65cdaf7d86a1d9fec664355290610b8490859085908590613957565b6112f86126f6565b6001600160a01b0384165f8181526002602090815260408083206001600160e01b03198816845282528083208054600160ff19918216811790925594845260039092528220805490931617909155600480549161135483613bd4565b91905055507fef729aaa41b9fd994f9ff7c1960df214a84f722002e6cfbea31799cd0873a3ef8484848460405161138e9493929190613bec565b60405180910390a150505050565b6113a46126f6565b6001600160a01b0383165f908152600b6020908152604091829020805460ff191660011790558151808301909252600f82526e736574746c654465706f736974282960881b910152611416837f559ec80da0b29925dac0e329ba0aaf8bbf2760bcaf9174e4ca42e01d74c0e6d06110d2565b60408051808201909152600e81526d736574746c6552656465656d282960901b602090910152611466837fa03d55e3f74b6754c01f274bb12d9c8a11ea8330b6b4ce7125c8dff1f63646ca6110d2565b604080518082019091526016815275736574746c654465706f7369742875696e743235362960501b6020909101526114be837fd24ca58a10c001ae46e533b96327657c0a386bc41cac6e2db77fab9c775540b56110d2565b604080518082019091526015815274736574746c6552656465656d2875696e743235362960581b602090910152611515837fa627df6689990c734a41da64c298fd0d8c7cc1757a97e2f817ed479cf45d135d6110d2565b7ffaa136302ac223cf7c1146490a741e4520e886fc22d7e759641453f432283d01838383604051610b8493929190613957565b6115506126f6565b6001600160a01b0383165f908152600a602052604090819020805460ff19166001179055517f628a44970c0e450415e3ae74334ea44f3307b74dbf677a1371190242bf2f358990610b8490859085908590613957565b5f80828060200190518101906115bc9190613c2a565b92505091506115ca82612216565b6115e65760405162461bcd60e51b8152600401610eb390613c6a565b6115ef81612247565b610ec75760405162461bcd60e51b815260206004820152602960248201527f52656365697665722061646472657373206e6f742077686974656c697374656460448201526808189e4811dd585c9960ba1b6064820152608401610eb3565b5f818060200190518101906116629190613c95565b9250505061052881611dc6565b61167b84848484612923565b50505050565b6116ac836110d26040518060600160405280602281526020016141b160229139805160209091012090565b610ec7838383611bc3565b6001600160a01b0382165f9081526002602090815260408083206001600160e01b03198516845290915290205460ff165b92915050565b6116f66126f6565b6116ff5f6132b1565b565b6117096126f6565b6001600160a01b0383165f9081526007602052604090819020805460ff19166001179055517f62dd88c5ecfa60713a657640ebec4de26fc1aefa4afdb24e6d15a124fce7277990610b8490859085908590613957565b5f611768611c7c565b905090565b5f818060200190518101906117829190613ce1565b5091505061178f81612247565b6105285760405162461bcd60e51b815260206004820152604160248201527f76616c69646174655f4552433436323652656465656d3a20526563656976657260448201527f2061646472657373206e6f742077686974656c697374656420627920477561726064820152601960fa1b608482015260a401610eb3565b5f80828060200190518101906118219190613d17565b5093509350505061183181612247565b6118b85760405162461bcd60e51b815260206004820152604c60248201527f76616c69646174655f737761704578616374546f6b656e73466f72546f6b656e60448201527f733a2052656365697665722061646472657373206e6f742077686974656c697360648201526b1d195908189e4811dd585c9960a21b608482015260a401610eb3565b5f805b835181101561190d578381815181106118d6576118d6613aa2565b602002602001015191506118e982612216565b6119055760405162461bcd60e51b8152600401610eb390613c6a565b6001016118bb565b5050505050565b61191c6126f6565b600180546001600160a01b038381166001600160a01b0319831681179093556040519116919082907f90cc2f570a6eb594b1580ea3e41247d2d73a55281889e86bd4ec2fc29c7e62d6905f90a35050565b5f818060200190518101906119829190613ce1565b5091505061198f81612247565b6105285760405162461bcd60e51b815260206004820152604560248201527f76616c69646174655f455243343632365769746864726177616c3a205265636560448201527f697665722061646472657373206e6f742077686974656c69737465642062792060648201526411dd585c9960da1b608482015260a401610eb3565b5f81806020019051810190611a249190613de0565b9050611a2f81612216565b6105285760405162461bcd60e51b8152600401610eb390613dfb565b5f8390505f816001600160a01b03166338d52e0f6040518163ffffffff1660e01b8152600401602060405180830381865afa158015611a8c573d5f803e3d5ffd5b505050506040513d601f19601f82011682018060405250810190611ab09190613de0565b6040805180820190915260188152776465706f7369742875696e743235362c616464726573732960401b602090910152905084611b10817f6e553f653991036c188afcef45e14f9ecb45269ff9c675358bbb3a2eeb78e03b5b87876112f0565b611b3b86611b0960405180606001604052806021815260200161419060219139805160209091012090565b60408051808201909152601f81527f72656465656d2875696e743235362c616464726573732c616464726573732900602090910152611b9a867fba087652ef750b77b3f3b86ecd8aac56de04fbc0d6751abdd0992cabce379054611b09565b611ba5868686611d68565b611bb0818686613321565b611bbb828686613321565b505050505050565b611bcb6126f6565b6001600160a01b0383165f9081526005602052604090819020805460ff19166001179055517fad90e2570fc4fe9f7437be3188d5c791c6662892d31731992aa88f5c8762198390610b8490859085908590613957565b611c296126f6565b6001600160a01b0383165f9081526008602052604090819020805460ff19169055517f1212f8ddb39de8e1a339460c95752d61100723efeaa34ccd94bca94393f4093890610b8490859085908590613957565b7f9016d09d72d40fdae2fd8ceac6b6234c7706214fd39c1cd1e609a0528c199300546001600160a01b031690565b5f81806020019051810190611cbf9190613b26565b509050611ce8816001600160a01b03165f908152600a602052604090205460ff16151560011490565b6105285760405162461bcd60e51b815260206004820152604560248201527f76616c69646174655f617070726f766544656c65676174696f6e3a204170707260448201527f6f76652064656c65676174696f6e206164647265737320646f6573206e6f74206064820152640dac2e8c6d60db1b608482015260a401610eb3565b611d706126f6565b6001600160a01b0383165f9081526009602052604090819020805460ff19166001179055517f628a44970c0e450415e3ae74334ea44f3307b74dbf677a1371190242bf2f358990610b8490859085908590613957565b5f805b611dd3835f6133d6565b9150611e02600180611de760036014613e49565b611df19190613e49565b611dfb9190613e49565b84906133d6565b9050611e0d82612216565b611e295760405162461bcd60e51b8152600401610eb390613e5c565b611e3281612216565b611e4e5760405162461bcd60e51b8152600401610eb390613e5c565b600180611e5d60036014613e49565b611e679190613e49565b611e719190613e49565b6014600180611e81600384613e49565b611e8b9190613e49565b611e959190613e49565b611e9f9190613e49565b611ea99190613e49565b835110610ec757611f05600180611ec260036014613e49565b611ecc9190613e49565b611ed69190613e49565b600180611ee560036014613e49565b611eef9190613e49565b611ef99190613e49565b8551610c059190613b08565b9250611dc9565b7ff0c57e16840df040f15088dc2f81fe391c3923bec73e23a9662efc9c229c6a008054600160401b810460ff1615906001600160401b03165f81158015611f505750825b90505f826001600160401b03166001148015611f6b5750303b155b905081158015611f79575080155b15611f975760405163f92ee8a960e01b815260040160405180910390fd5b845467ffffffffffffffff191660011785558315611fc157845460ff60401b1916600160401b1785555b611fca33613489565b5f8087806020019051810190611fe09190613ea1565b91509150611fed81610ecc565b611ff681611914565b611fff82612588565b50508315611bbb57845460ff60401b19168555604051600181527fc7f505b2f371ae2175ee4913f4499e1f2633a7b5936321eed1cdaeb6115181d29060200160405180910390a1505050505050565b6120566126f6565b6001600160a01b0383165f9081526006602052604090819020805460ff19169055517f3097928509c53a2dab9500431201d82b0d756e8f890fd01f4ae6b33b45687ea490610b8490859085908590613957565b6120cf816001600160a01b03165f908152600b602052604090205460ff16151560011490565b61210f5760405162461bcd60e51b815260206004820152601160248201527015985d5b1d081b9bdd08185b1b1bddd959607a1b6044820152606401610eb3565b50565b61211a6126f6565b600c805460ff19168415151790556040517f50454d9d0025a28a39cac5a4b3f3101d29b6e413fbb64f75fb42eb6837b0771890610b8490859085908590613ed9565b5f80828060200190518101906121729190613ea1565b9150915061217f82612216565b61219b5760405162461bcd60e51b8152600401610eb390613dfb565b6121a481612247565b610ec75760405162461bcd60e51b815260206004820152603b60248201527f76616c69646174655f6465706f7369743a20526563656976657220616464726560448201527f7373206e6f742077686974656c697374656420627920477561726400000000006064820152608401610eb3565b600c545f9060ff16806116e85750506001600160a01b03165f9081526005602052604090205460ff16151560011490565b6001600160a01b03165f9081526007602052604090205460ff16151560011490565b5f606061227833868686612923565b6122b8855f86868080601f0160208091040260200160405190810160405280939291908181526020018383808284375f920182905250925061349a915050565b90925090508161190d57805160208201fd5b5f818060200190518101906122df9190613ef4565b50505090506122ed81612216565b6105285760405162461bcd60e51b8152600401610eb390613c6a565b6123116126f6565b6001600160a01b0384165f9081526002602090815260408083206001600160e01b03198716845290915290819020805460ff19169055517f37ea10f2d08f5a9803dfcd5abf3cfc7b0d6fcdf5fcbc36be9ea5a0b53d9a4d9b9061138e908690869086908690613bec565b5f818060200190518101906123909190613fd0565b905061239f8160200151612247565b6124115760405162461bcd60e51b815260206004820152603f60248201527f76616c69646174655f65786163744f75747075743a205265636569766572206160448201527f646472657373206e6f742077686974656c6973746564206279204775617264006064820152608401610eb3565b805161052890610fd3565b5f818060200190518101906124319190613fd0565b90506124408160200151612247565b6124115760405162461bcd60e51b815260206004820152603e60248201527f76616c69646174655f6578616374496e7075743a20526563656976657220616460448201527f6472657373206e6f742077686974656c697374656420627920477561726400006064820152608401610eb3565b610ec7838383613321565b6124e8836110d260405180606001604052806026815260200161414960269139805160209091012090565b611117836110d260405180606001604052806021815260200161416f60219139805160209091012090565b6040805180820190915260128152716d756c746963616c6c2862797465735b5d2960701b602090910152612567847fac9650d882acfa253cba1ed543b9ff47351da99c3bd00a89625e5cdb2099009c6110d2565b612572848383611d68565b61257d838383611d68565b61167b848383611548565b6125906126f6565b6001600160a01b0381166125b957604051631e4fbdf760e01b81525f6004820152602401610eb3565b61210f816132b1565b5f80828060200190518101906125d89190613ea1565b915091506125e582612216565b61219b5760405162461bcd60e51b8152602060048201526024808201527f76616c69646174655f77697468647261773a20546f6b656e206e6f7420616c6c6044820152631bddd95960e21b6064820152608401610eb3565b6126456126f6565b6001600160a01b0383165f9081526005602052604090819020805460ff19169055517f9ca3f065622f5f03f32b7157677a0e420c3a36ab45fd49f256ffebce3e31058790610b8490859085908590613957565b6126a06126f6565b6001600160a01b0383165f9081526006602052604090819020805460ff19166001179055517fa8f9caaf4861720900294428e4ff34d37070c37afd26d96e6e4da75326d2c3ad90610b8490859085908590613957565b336126ff611c7c565b6001600160a01b0316146116ff5760405163118cdaa760e01b8152336004820152602401610eb3565b60608161273681601f613e49565b10156127755760405162461bcd60e51b815260206004820152600e60248201526d736c6963655f6f766572666c6f7760901b6044820152606401610eb3565b826127808382613e49565b10156127bf5760405162461bcd60e51b815260206004820152600e60248201526d736c6963655f6f766572666c6f7760901b6044820152606401610eb3565b6127c98284613e49565b8451101561280d5760405162461bcd60e51b8152602060048201526011602482015270736c6963655f6f75744f66426f756e647360781b6044820152606401610eb3565b60608215801561282b5760405191505f825260208201604052612875565b6040519150601f8416801560200281840101858101878315602002848b0101015b8183101561286457805183526020928301920161284c565b5050858452601f01601f1916604052505b50949350505050565b5f808061288b84826133d6565b9250612898846014613524565b90506128b06128a960036014613e49565b85906133d6565b91509193909250565b5f6128c660036014613e49565b60146128d3600382613e49565b6128dd9190613e49565b6128e79190613e49565b825110159050919050565b60606116e861290360036014613e49565b61290f60036014613e49565b845161291b9190613b08565b849190612728565b61292b61175f565b6001600160a01b0316846001600160a01b0316031561167b5761296a846001600160a01b03165f9081526006602052604090205460ff16151560011490565b6129b65760405162461bcd60e51b815260206004820181905260248201527f76616c696461746543616c6c3a2053656e646572206e6f7420616c6c6f7765646044820152606401610eb3565b5f6129c46004828486614001565b6129cd91614028565b9050365f6129de8460048188614001565b600c5491935091505f9060ff168015612a375750604080518082019091526018815277617070726f766528616464726573732c75696e743235362960401b60209091015263095ea7b360e01b6001600160e01b03198516145b905080612b2d57612a4887856116b7565b612b2d57612a72876001600160a01b03165f9081526003602052604090205460ff16151560011490565b612abe5760405162461bcd60e51b815260206004820181905260248201527f76616c696461746543616c6c3a20746172676574206e6f7420616c6c6f7765646044820152606401610eb3565b612ac887856116b7565b612b2d5760405162461bcd60e51b815260206004820152603060248201527f76616c696461746543616c6c3a2073656c6563746f72206e6f7420616c6c6f7760448201526f1959081bdb881d1a19481d185c99d95d60821b6064820152608401610eb3565b612b5460405180608001604052806043815260200161410660439139805160209091012090565b6001600160e01b031916846001600160e01b03191603612bb157612bac83838080601f0160208091040260200160405190810160405280939291908181526020018383808284375f9201919091525061180b92505050565b6132a7565b612bd86040518060600160405280603381526020016141d360339139805160209091012090565b6001600160e01b031916846001600160e01b03191603612c3057612bac83838080601f0160208091040260200160405190810160405280939291908181526020018383808284375f9201919091525061241c92505050565b6001600160e01b0319841663b858183f60e01b03612cd757600c5460ff16612bac5760405162461bcd60e51b815260206004820152604e60248201527f76616c696461746543616c6c3a2053776170526f75746572303220697320637560448201527f7272656e746c7920737570706f72746564206f6e6c79207769746820616e794160648201526d1cdcd95d081dda1a5d195b1a5cdd60921b608482015260a401610eb3565b6040805180820190915260128152716d756c746963616c6c2862797465735b5d2960701b602090910152630a6d35e560e31b6001600160e01b0319851601612d5757612bac83838080601f0160208091040260200160405190810160405280939291908181526020018383808284375f92019190915250610b9192505050565b6040805180820190915260198152787472616e7366657228616464726573732c75696e743235362960381b6020909101526356fa634560e01b6001600160e01b0319851601612dde57612bac83838080601f0160208091040260200160405190810160405280939291908181526020018383808284375f92019190915250610f2392505050565b604080518082019091526018815277617070726f766528616464726573732c75696e743235362960401b60209091015263f6a1584d60e01b6001600160e01b0319851601612e6457612bac83838080601f0160208091040260200160405190810160405280939291908181526020018383808284375f9201919091525061116e92505050565b612e8b6040518060600160405280602281526020016141b160229139805160209091012090565b6001600160e01b031916846001600160e01b03191603612ee357612bac83838080601f0160208091040260200160405190810160405280939291908181526020018383808284375f92019190915250611caa92505050565b612f0a60405180606001604052806026815260200161414960269139805160209091012090565b6001600160e01b031916846001600160e01b03191603612f6257612bac83838080601f0160208091040260200160405190810160405280939291908181526020018383808284375f920191909152506122ca92505050565b612f8960405180606001604052806021815260200161416f60219139805160209091012090565b6001600160e01b031916846001600160e01b03191603612fe157612bac83838080601f0160208091040260200160405190810160405280939291908181526020018383808284375f920191909152506115a692505050565b60408051808201909152600f81526e736574746c654465706f736974282960881b60209091015263aa6137f360e01b6001600160e01b031985160161302957612bac876120a9565b60408051808201909152600e81526d736574746c6552656465656d282960901b602090910152635fc2aa1d60e01b6001600160e01b031985160161307057612bac876120a9565b604080518082019091526016815275736574746c654465706f7369742875696e743235362960501b6020909101526316d9ad3b60e11b6001600160e01b03198516016130bf57612bac876120a9565b604080518082019091526015815274736574746c6552656465656d2875696e743235362960581b602090910152632cec104d60e11b6001600160e01b031985160161310d57612bac876120a9565b6040805180820190915260188152776465706f7369742875696e743235362c616464726573732960401b602090910152636e553f6560e01b6001600160e01b03198516146132a75761317c60405180606001604052806021815260200161419060219139805160209091012090565b6001600160e01b031916846001600160e01b031916036131d457612bac83838080601f0160208091040260200160405190810160405280939291908181526020018383808284375f9201919091525061196d92505050565b60408051808201909152601f81527f72656465656d2875696e743235362c616464726573732c6164647265737329006020909101526322fbc4d760e11b6001600160e01b031985160161325f57612bac83838080601f0160208091040260200160405190810160405280939291908181526020018383808284375f9201919091525061176d92505050565b60405162461bcd60e51b815260206004820152601960248201527f556e6b6e6f776e2066756e6374696f6e2073656c6563746f72000000000000006044820152606401610eb3565b5050505050505050565b7f9016d09d72d40fdae2fd8ceac6b6234c7706214fd39c1cd1e609a0528c19930080546001600160a01b031981166001600160a01b03848116918217845560405192169182907f8be0079c531659141344cd1fd0a4f28419497f9722a3daafe3b4186f6b6457e0905f90a3505050565b6040805180820190915260198152787472616e7366657228616464726573732c75696e743235362960381b60209091015261337c837fa9059cbb2ab09eb219583f4a59a5d0623ade346d962bcd4e46b11da047c9049b6110d2565b604080518082019091526018815277617070726f766528616464726573732c75696e743235362960401b6020909101526116ac837f095ea7b334ae44009aa867bfb386f5c3b4b443ac6f0ee573fa91c4608fbadfba6110d2565b5f816133e3816014613e49565b10156134265760405162461bcd60e51b8152602060048201526012602482015271746f416464726573735f6f766572666c6f7760701b6044820152606401610eb3565b613431826014613e49565b835110156134795760405162461bcd60e51b8152602060048201526015602482015274746f416464726573735f6f75744f66426f756e647360581b6044820152606401610eb3565b500160200151600160601b900490565b6134916135ce565b61210f81613617565b600154604051635229073f60e01b81525f916060916001600160a01b0390911690635229073f906134d5908990899089908990600401614060565b5f604051808303815f875af11580156134f0573d5f803e3d5ffd5b505050506040513d5f823e601f3d908101601f1916820160405261351791908101906140ce565b9150915094509492505050565b5f81613531816003613e49565b10156135735760405162461bcd60e51b8152602060048201526011602482015270746f55696e7432345f6f766572666c6f7760781b6044820152606401610eb3565b61357e826003613e49565b835110156135c55760405162461bcd60e51b8152602060048201526014602482015273746f55696e7432345f6f75744f66426f756e647360601b6044820152606401610eb3565b50016003015190565b7ff0c57e16840df040f15088dc2f81fe391c3923bec73e23a9662efc9c229c6a0054600160401b900460ff166116ff57604051631afcd79f60e31b815260040160405180910390fd5b6125906135ce565b6001600160a01b038116811461210f575f80fd5b5f8083601f840112613643575f80fd5b5081356001600160401b03811115613659575f80fd5b602083019150836020828501011115613670575f80fd5b9250929050565b5f805f60408486031215613689575f80fd5b83356136948161361f565b925060208401356001600160401b038111156136ae575f80fd5b6136ba86828701613633565b9497909650939450505050565b634e487b7160e01b5f52604160045260245ffd5b604051601f8201601f191681016001600160401b0381118282101715613703576137036136c7565b604052919050565b5f6001600160401b03821115613723576137236136c7565b50601f01601f191660200190565b5f82601f830112613740575f80fd5b813561375361374e8261370b565b6136db565b818152846020838601011115613767575f80fd5b816020850160208301375f918101602001919091529392505050565b5f60208284031215613793575f80fd5b81356001600160401b038111156137a8575f80fd5b6137b484828501613731565b949350505050565b5f602082840312156137cc575f80fd5b81356137d78161361f565b9392505050565b5f80604083850312156137ef575f80fd5b82356137fa8161361f565b915060208301356001600160401b03811115613814575f80fd5b61382085828601613731565b9150509250929050565b80356001600160e01b031981168114613841575f80fd5b919050565b5f805f8060608587031215613859575f80fd5b84356138648161361f565b93506138726020860161382a565b925060408501356001600160401b0381111561388c575f80fd5b61389887828801613633565b95989497509550505050565b5f805f80606085870312156138b7575f80fd5b84356138c28161361f565b935060208501356138728161361f565b5f80604083850312156138e3575f80fd5b82356138ee8161361f565b91506138fc6020840161382a565b90509250929050565b801515811461210f575f80fd5b5f805f60408486031215613924575f80fd5b833561369481613905565b81835281816020850137505f828201602090810191909152601f909101601f19169091010190565b6001600160a01b03841681526040602082018190525f9061397b908301848661392f565b95945050505050565b5f6001600160401b0382111561399c5761399c6136c7565b5060051b60200190565b5f82601f8301126139b5575f80fd5b81516139c361374e8261370b565b8181528460208386010111156139d7575f80fd5b8160208501602083015e5f918101602001919091529392505050565b5f60208284031215613a03575f80fd5b81516001600160401b03811115613a18575f80fd5b8201601f81018413613a28575f80fd5b8051613a3661374e82613984565b8082825260208201915060208360051b850101925086831115613a57575f80fd5b602084015b83811015613a975780516001600160401b03811115613a79575f80fd5b613a88896020838901016139a6565b84525060209283019201613a5c565b509695505050505050565b634e487b7160e01b5f52603260045260245ffd5b805160208201516001600160e01b0319811691906004821015613aed576001600160e01b0319600483900360031b81901b82161692505b5050919050565b634e487b7160e01b5f52601160045260245ffd5b818103818111156116e8576116e8613af4565b80516138418161361f565b5f8060408385031215613b37575f80fd5b8251613b428161361f565b6020939093015192949293505050565b60208082526028908201527f76616c6964617465556e69737761705633506174683a20546f6b656e206e6f7460408201526708185b1b1bddd95960c21b606082015260800190565b5f8060408385031215613bab575f80fd5b825160208401519092506001600160401b03811115613bc8575f80fd5b613820858286016139a6565b5f60018201613be557613be5613af4565b5060010190565b6001600160a01b03851681526001600160e01b0319841660208201526060604082018190525f90613c20908301848661392f565b9695505050505050565b5f805f60608486031215613c3c575f80fd5b8351613c478161361f565b602085015160408601519194509250613c5f8161361f565b809150509250925092565b602080825260119082015270151bdad95b881b9bdd08185b1b1bddd959607a1b604082015260600190565b5f805f60608486031215613ca7575f80fd5b83516020850151604086015191945092506001600160401b03811115613ccb575f80fd5b613cd7868287016139a6565b9150509250925092565b5f805f60608486031215613cf3575f80fd5b83516020850151909350613d068161361f565b6040850151909250613c5f8161361f565b5f805f805f60a08688031215613d2b575f80fd5b85516020870151604088015191965094506001600160401b03811115613d4f575f80fd5b8601601f81018813613d5f575f80fd5b8051613d6d61374e82613984565b8082825260208201915060208360051b85010192508a831115613d8e575f80fd5b6020840193505b82841015613db9578351613da88161361f565b825260209384019390910190613d95565b9550613dcb9250505060608701613b1b565b60809690960151949793965091949392915050565b5f60208284031215613df0575f80fd5b81516137d78161361f565b6020808252602e908201527f76616c69646174655f7472616e736665724552433230416c6c496e3a20546f6b60408201526d195b881b9bdd08185b1b1bddd95960921b606082015260800190565b808201808211156116e8576116e8613af4565b60208082526025908201527f76616c69646174653164656c7461506174683a20546f6b656e206e6f7420616c6040820152641b1bddd95960da1b606082015260800190565b5f8060408385031215613eb2575f80fd5b8251613ebd8161361f565b6020840151909250613ece8161361f565b809150509250929050565b8315158152604060208201525f61397b60408301848661392f565b5f805f8060808587031215613f07575f80fd5b8451613f128161361f565b602086015160408701519195509350613f2a8161361f565b6060959095015193969295505050565b5f60a08284031215613f4a575f80fd5b60405160a081016001600160401b0381118282101715613f6c57613f6c6136c7565b806040525080915082516001600160401b03811115613f89575f80fd5b613f95858286016139a6565b8252506020830151613fa68161361f565b60208201526040838101519082015260608084015190820152608092830151920191909152919050565b5f60208284031215613fe0575f80fd5b81516001600160401b03811115613ff5575f80fd5b6137b484828501613f3a565b5f808585111561400f575f80fd5b8386111561401b575f80fd5b5050820193919092039150565b80356001600160e01b03198116906004841015614059576001600160e01b0319600485900360031b81901b82161691505b5092915050565b60018060a01b0385168152836020820152608060408201525f8351806080840152806020860160a085015e5f60a0828501015260a0601f19601f830116840101915050600283106140bf57634e487b7160e01b5f52602160045260245ffd5b82606083015295945050505050565b5f80604083850312156140df575f80fd5b82516140ea81613905565b60208401519092506001600160401b03811115613bc8575f80fdfe737761704578616374546f6b656e73466f72546f6b656e732875696e743235362c75696e743235362c616464726573735b5d2c616464726573732c75696e7432353629737570706c7928616464726573732c75696e743235362c616464726573732c75696e74313629776974686472617728616464726573732c75696e743235362c616464726573732977697468647261772875696e743235362c616464726573732c6164647265737329617070726f766544656c65676174696f6e28616464726573732c75696e74323536296578616374496e707574282862797465732c616464726573732c75696e743235362c75696e743235362c75696e743235362929666c6173685377617045786163744f75742875696e743235362c75696e743235362c627974657329666c617368537761704578616374496e2875696e743235362c75696e743235362c62797465732965786163744f7574707574282862797465732c616464726573732c75696e743235362c75696e743235362c75696e743235362929a2646970667358221220ca86348cf31d233f0cddcb090340c0e722b451b7e4719c5c4cf42ffbb8e87f9f64736f6c634300081a0033","linkReferences":{}},"methodIdentifiers":{"allowApprovalDestination(address,string)":"98b3cc39","allowAsset(address,string)":"86b6dbe5","allowCallSite(address,bytes4,string)":"5e4ccace","allowDelegationApprovalDestination(address,string)":"63cc17f2","allowReceiver(address,string)":"72e548a9","allowSender(address,string)":"fa2c59c8","allowWithdrawDestination(address,string)":"5ace1d92","allowedApprovalDestinations(address)":"eb0de042","allowedAssets(address)":"a4c1cccb","allowedCallSites(address,bytes4)":"a847cf4d","allowedDelegationApprovalDestinations(address)":"4b941268","allowedLagoonVaults(address)":"8fb4dff2","allowedReceivers(address)":"3cf20025","allowedSenders(address)":"fadbcf48","allowedTargets(address)":"b8fe8d5f","allowedWithdrawDestinations(address)":"07ef00cf","anyAsset()":"87301608","avatar()":"5aef7de6","callSiteCount()":"a9fc3d4f","getGovernanceAddress()":"73252494","getInternalVersion()":"fdedfa27","isAllowedApprovalDestination(address)":"1d49039c","isAllowedAsset(address)":"c537bed0","isAllowedCallSite(address,bytes4)":"713ebf3b","isAllowedDelegationApprovalDestination(address)":"2dc32a61","isAllowedLagoonVault(address)":"6fd7fdef","isAllowedReceiver(address)":"d075f9bb","isAllowedSender(address)":"be8c97b0","isAllowedTarget(address)":"78addb48","isAllowedWithdrawDestination(address)":"efb47bff","owner()":"8da5cb5b","performCall(address,bytes)":"d2f73e3d","removeApprovalDestination(address,string)":"04a3ba25","removeAsset(address,string)":"f901dc33","removeCallSite(address,bytes4,string)":"d7334c9d","removeDelegationApprovalDestination(address,string)":"f259a073","removeReceiver(address,string)":"2d12d788","removeSender(address,string)":"a67e1f54","removeWithdrawDestination(address,string)":"8c2fdf9e","renounceOwnership()":"715018a6","setAnyAssetAllowed(bool,string)":"c2e657ae","setAvatar(address)":"086cfca8","setTarget(address)":"776d1a01","setUp(bytes)":"a4f9edbf","target()":"d4b83992","transferOwnership(address)":"f2fde38b","validate1deltaPath(bytes)":"a1b6b430","validateCall(address,address,bytes)":"6d5025f1","validateUniswapV3Path(bytes)":"1c123e77","validate_1deltaDeposit(bytes)":"c4cc9dba","validate_1deltaMulticall(bytes)":"07ac3562","validate_1deltaWithdraw(bytes)":"f76081e4","validate_ERC4626Deposit(address,bytes)":"2c02cda0","validate_ERC4626Redeem(bytes)":"742bfc7e","validate_ERC4626Withdraw(bytes)":"78065086","validate_aaveSupply(bytes)":"d4c0fe45","validate_aaveWithdraw(bytes)":"6a6d5cc8","validate_approve(bytes)":"4b956bd8","validate_approveDelegation(bytes)":"957dc6c0","validate_exactInput(bytes)":"ebe26816","validate_exactOutput(bytes)":"e98539c5","validate_flashSwapAllOut(bytes)":"425f49d0","validate_flashSwapExactInt(bytes)":"ca963c50","validate_flashSwapExactOut(bytes)":"6ad11353","validate_lagoonSettle(address)":"b3c329cb","validate_swapExactTokensForTokens(bytes)":"761bcd9c","validate_transfer(bytes)":"1710a4f2","validate_transferERC20AllIn(bytes)":"7ea44655","validate_transferERC20In(bytes)":"59b92be9","whitelistAaveV3(address,string)":"f20e85e0","whitelistERC4626(address,string)":"86a6ae15","whitelistLagoon(address,string)":"5e6afe4d","whitelistOnedelta(address,address,string)":"f26749f3","whitelistToken(address,string)":"ee5462cc","whitelistTokenForDelegation(address,string)":"6d9a1423","whitelistUniswapV2Router(address,string)":"3ea35551","whitelistUniswapV3Router(address,string)":"34ec8d7e"},"id":18}