{"abi":[{"type":"constructor","inputs":[{"name":"_owner","type":"address","internalType":"address"},{"name":"_target","type":"address","internalType":"address"}],"stateMutability":"nonpayable"},{"type":"function","name":"_SIGN_COOLDOWN","inputs":[],"outputs":[{"name":"","type":"uint256","internalType":"uint256"}],"stateMutability":"view"},{"type":"function","name":"allowApprovalDestination","inputs":[{"name":"destination","type":"address","internalType":"address"},{"name":"notes","type":"string","internalType":"string"}],"outputs":[],"stateMutability":"nonpayable"},{"type":"function","name":"allowAsset","inputs":[{"name":"asset","type":"address","internalType":"address"},{"name":"notes","type":"string","internalType":"string"}],"outputs":[],"stateMutability":"nonpayable"},{"type":"function","name":"allowCallSite","inputs":[{"name":"target","type":"address","internalType":"address"},{"name":"selector","type":"bytes4","internalType":"bytes4"},{"name":"notes","type":"string","internalType":"string"}],"outputs":[],"stateMutability":"nonpayable"},{"type":"function","name":"allowDelegationApprovalDestination","inputs":[{"name":"destination","type":"address","internalType":"address"},{"name":"notes","type":"string","internalType":"string"}],"outputs":[],"stateMutability":"nonpayable"},{"type":"function","name":"allowReceiver","inputs":[{"name":"receiver","type":"address","internalType":"address"},{"name":"notes","type":"string","internalType":"string"}],"outputs":[],"stateMutability":"nonpayable"},{"type":"function","name":"allowSender","inputs":[{"name":"sender","type":"address","internalType":"address"},{"name":"notes","type":"string","internalType":"string"}],"outputs":[],"stateMutability":"nonpayable"},{"type":"function","name":"allowWithdrawDestination","inputs":[{"name":"destination","type":"address","internalType":"address"},{"name":"notes","type":"string","internalType":"string"}],"outputs":[],"stateMutability":"nonpayable"},{"type":"function","name":"allowedApprovalDestinations","inputs":[{"name":"destination","type":"address","internalType":"address"}],"outputs":[{"name":"allowed","type":"bool","internalType":"bool"}],"stateMutability":"view"},{"type":"function","name":"allowedAssets","inputs":[{"name":"token","type":"address","internalType":"address"}],"outputs":[{"name":"allowed","type":"bool","internalType":"bool"}],"stateMutability":"view"},{"type":"function","name":"allowedCallSites","inputs":[{"name":"target","type":"address","internalType":"address"},{"name":"selector","type":"bytes4","internalType":"bytes4"}],"outputs":[{"name":"allowed","type":"bool","internalType":"bool"}],"stateMutability":"view"},{"type":"function","name":"allowedCowSwaps","inputs":[{"name":"destination","type":"address","internalType":"address"}],"outputs":[{"name":"allowed","type":"bool","internalType":"bool"}],"stateMutability":"view"},{"type":"function","name":"allowedDelegationApprovalDestinations","inputs":[{"name":"destination","type":"address","internalType":"address"}],"outputs":[{"name":"allowed","type":"bool","internalType":"bool"}],"stateMutability":"view"},{"type":"function","name":"allowedLagoonVaults","inputs":[{"name":"destination","type":"address","internalType":"address"}],"outputs":[{"name":"allowed","type":"bool","internalType":"bool"}],"stateMutability":"view"},{"type":"function","name":"allowedReceivers","inputs":[{"name":"receiver","type":"address","internalType":"address"}],"outputs":[{"name":"allowed","type":"bool","internalType":"bool"}],"stateMutability":"view"},{"type":"function","name":"allowedSenders","inputs":[{"name":"sender","type":"address","internalType":"address"}],"outputs":[{"name":"allowed","type":"bool","internalType":"bool"}],"stateMutability":"view"},{"type":"function","name":"allowedTargets","inputs":[{"name":"target","type":"address","internalType":"address"}],"outputs":[{"name":"allowed","type":"bool","internalType":"bool"}],"stateMutability":"view"},{"type":"function","name":"allowedWithdrawDestinations","inputs":[{"name":"destination","type":"address","internalType":"address"}],"outputs":[{"name":"allowed","type":"bool","internalType":"bool"}],"stateMutability":"view"},{"type":"function","name":"anyAsset","inputs":[],"outputs":[{"name":"","type":"bool","internalType":"bool"}],"stateMutability":"view"},{"type":"function","name":"avatar","inputs":[],"outputs":[{"name":"","type":"address","internalType":"address"}],"stateMutability":"view"},{"type":"function","name":"callSiteCount","inputs":[],"outputs":[{"name":"","type":"uint256","internalType":"uint256"}],"stateMutability":"view"},{"type":"function","name":"getGovernanceAddress","inputs":[],"outputs":[{"name":"","type":"address","internalType":"address"}],"stateMutability":"view"},{"type":"function","name":"getInternalVersion","inputs":[],"outputs":[{"name":"","type":"uint8","internalType":"uint8"}],"stateMutability":"pure"},{"type":"function","name":"getTradingStrategyModuleVersion","inputs":[],"outputs":[{"name":"","type":"string","internalType":"string"}],"stateMutability":"pure"},{"type":"function","name":"isAllowedApprovalDestination","inputs":[{"name":"receiver","type":"address","internalType":"address"}],"outputs":[{"name":"","type":"bool","internalType":"bool"}],"stateMutability":"view"},{"type":"function","name":"isAllowedAsset","inputs":[{"name":"token","type":"address","internalType":"address"}],"outputs":[{"name":"","type":"bool","internalType":"bool"}],"stateMutability":"view"},{"type":"function","name":"isAllowedCallSite","inputs":[{"name":"target","type":"address","internalType":"address"},{"name":"selector","type":"bytes4","internalType":"bytes4"}],"outputs":[{"name":"","type":"bool","internalType":"bool"}],"stateMutability":"view"},{"type":"function","name":"isAllowedCowSwap","inputs":[{"name":"settlement","type":"address","internalType":"address"}],"outputs":[{"name":"","type":"bool","internalType":"bool"}],"stateMutability":"view"},{"type":"function","name":"isAllowedDelegationApprovalDestination","inputs":[{"name":"receiver","type":"address","internalType":"address"}],"outputs":[{"name":"","type":"bool","internalType":"bool"}],"stateMutability":"view"},{"type":"function","name":"isAllowedLagoonVault","inputs":[{"name":"vault","type":"address","internalType":"address"}],"outputs":[{"name":"","type":"bool","internalType":"bool"}],"stateMutability":"view"},{"type":"function","name":"isAllowedReceiver","inputs":[{"name":"receiver","type":"address","internalType":"address"}],"outputs":[{"name":"","type":"bool","internalType":"bool"}],"stateMutability":"view"},{"type":"function","name":"isAllowedSender","inputs":[{"name":"sender","type":"address","internalType":"address"}],"outputs":[{"name":"","type":"bool","internalType":"bool"}],"stateMutability":"view"},{"type":"function","name":"isAllowedTarget","inputs":[{"name":"target","type":"address","internalType":"address"}],"outputs":[{"name":"","type":"bool","internalType":"bool"}],"stateMutability":"view"},{"type":"function","name":"isAllowedWithdrawDestination","inputs":[{"name":"receiver","type":"address","internalType":"address"}],"outputs":[{"name":"","type":"bool","internalType":"bool"}],"stateMutability":"view"},{"type":"function","name":"multicall","inputs":[{"name":"data","type":"bytes[]","internalType":"bytes[]"}],"outputs":[{"name":"results","type":"bytes[]","internalType":"bytes[]"}],"stateMutability":"payable"},{"type":"function","name":"owner","inputs":[],"outputs":[{"name":"","type":"address","internalType":"address"}],"stateMutability":"view"},{"type":"function","name":"performCall","inputs":[{"name":"target","type":"address","internalType":"address"},{"name":"callData","type":"bytes","internalType":"bytes"},{"name":"value","type":"uint256","internalType":"uint256"}],"outputs":[],"stateMutability":"nonpayable"},{"type":"function","name":"performCall","inputs":[{"name":"target","type":"address","internalType":"address"},{"name":"callData","type":"bytes","internalType":"bytes"}],"outputs":[],"stateMutability":"nonpayable"},{"type":"function","name":"removeApprovalDestination","inputs":[{"name":"destination","type":"address","internalType":"address"},{"name":"notes","type":"string","internalType":"string"}],"outputs":[],"stateMutability":"nonpayable"},{"type":"function","name":"removeAsset","inputs":[{"name":"asset","type":"address","internalType":"address"},{"name":"notes","type":"string","internalType":"string"}],"outputs":[],"stateMutability":"nonpayable"},{"type":"function","name":"removeCallSite","inputs":[{"name":"target","type":"address","internalType":"address"},{"name":"selector","type":"bytes4","internalType":"bytes4"},{"name":"notes","type":"string","internalType":"string"}],"outputs":[],"stateMutability":"nonpayable"},{"type":"function","name":"removeDelegationApprovalDestination","inputs":[{"name":"destination","type":"address","internalType":"address"},{"name":"notes","type":"string","internalType":"string"}],"outputs":[],"stateMutability":"nonpayable"},{"type":"function","name":"removeReceiver","inputs":[{"name":"receiver","type":"address","internalType":"address"},{"name":"notes","type":"string","internalType":"string"}],"outputs":[],"stateMutability":"nonpayable"},{"type":"function","name":"removeSender","inputs":[{"name":"sender","type":"address","internalType":"address"},{"name":"notes","type":"string","internalType":"string"}],"outputs":[],"stateMutability":"nonpayable"},{"type":"function","name":"removeWithdrawDestination","inputs":[{"name":"destination","type":"address","internalType":"address"},{"name":"notes","type":"string","internalType":"string"}],"outputs":[],"stateMutability":"nonpayable"},{"type":"function","name":"renounceOwnership","inputs":[],"outputs":[],"stateMutability":"nonpayable"},{"type":"function","name":"setAnyAssetAllowed","inputs":[{"name":"value","type":"bool","internalType":"bool"},{"name":"notes","type":"string","internalType":"string"}],"outputs":[],"stateMutability":"nonpayable"},{"type":"function","name":"setAvatar","inputs":[{"name":"_avatar","type":"address","internalType":"address"}],"outputs":[],"stateMutability":"nonpayable"},{"type":"function","name":"setTarget","inputs":[{"name":"_target","type":"address","internalType":"address"}],"outputs":[],"stateMutability":"nonpayable"},{"type":"function","name":"setUp","inputs":[{"name":"initializeParams","type":"bytes","internalType":"bytes"}],"outputs":[],"stateMutability":"nonpayable"},{"type":"function","name":"swapAndValidateCowSwap","inputs":[{"name":"settlementContract","type":"address","internalType":"address"},{"name":"receiver","type":"address","internalType":"address"},{"name":"appData","type":"bytes32","internalType":"bytes32"},{"name":"tokenIn","type":"address","internalType":"address"},{"name":"tokenOut","type":"address","internalType":"address"},{"name":"amountIn","type":"uint256","internalType":"uint256"},{"name":"minAmountOut","type":"uint256","internalType":"uint256"}],"outputs":[],"stateMutability":"nonpayable"},{"type":"function","name":"target","inputs":[],"outputs":[{"name":"","type":"address","internalType":"address"}],"stateMutability":"view"},{"type":"function","name":"transferOwnership","inputs":[{"name":"newOwner","type":"address","internalType":"address"}],"outputs":[],"stateMutability":"nonpayable"},{"type":"function","name":"validate1deltaPath","inputs":[{"name":"path","type":"bytes","internalType":"bytes"}],"outputs":[],"stateMutability":"view"},{"type":"function","name":"validateCall","inputs":[{"name":"sender","type":"address","internalType":"address"},{"name":"target","type":"address","internalType":"address"},{"name":"callDataWithSelector","type":"bytes","internalType":"bytes"}],"outputs":[],"stateMutability":"view"},{"type":"function","name":"validateUniswapV3Path","inputs":[{"name":"path","type":"bytes","internalType":"bytes"}],"outputs":[],"stateMutability":"view"},{"type":"function","name":"validate_1deltaDeposit","inputs":[{"name":"callData","type":"bytes","internalType":"bytes"}],"outputs":[],"stateMutability":"view"},{"type":"function","name":"validate_1deltaMulticall","inputs":[{"name":"callData","type":"bytes","internalType":"bytes"}],"outputs":[],"stateMutability":"view"},{"type":"function","name":"validate_1deltaWithdraw","inputs":[{"name":"callData","type":"bytes","internalType":"bytes"}],"outputs":[],"stateMutability":"view"},{"type":"function","name":"validate_ERC4626Deposit","inputs":[{"name":"target","type":"address","internalType":"address"},{"name":"callData","type":"bytes","internalType":"bytes"}],"outputs":[],"stateMutability":"view"},{"type":"function","name":"validate_ERC4626Redeem","inputs":[{"name":"callData","type":"bytes","internalType":"bytes"}],"outputs":[],"stateMutability":"view"},{"type":"function","name":"validate_ERC4626Withdraw","inputs":[{"name":"callData","type":"bytes","internalType":"bytes"}],"outputs":[],"stateMutability":"view"},{"type":"function","name":"validate_aaveSupply","inputs":[{"name":"callData","type":"bytes","internalType":"bytes"}],"outputs":[],"stateMutability":"view"},{"type":"function","name":"validate_aaveWithdraw","inputs":[{"name":"callData","type":"bytes","internalType":"bytes"}],"outputs":[],"stateMutability":"view"},{"type":"function","name":"validate_approve","inputs":[{"name":"callData","type":"bytes","internalType":"bytes"}],"outputs":[],"stateMutability":"view"},{"type":"function","name":"validate_approveDelegation","inputs":[{"name":"callData","type":"bytes","internalType":"bytes"}],"outputs":[],"stateMutability":"view"},{"type":"function","name":"validate_cowSwapSettlement","inputs":[{"name":"callData","type":"bytes","internalType":"bytes"}],"outputs":[],"stateMutability":"view"},{"type":"function","name":"validate_exactInput","inputs":[{"name":"callData","type":"bytes","internalType":"bytes"}],"outputs":[],"stateMutability":"view"},{"type":"function","name":"validate_exactOutput","inputs":[{"name":"callData","type":"bytes","internalType":"bytes"}],"outputs":[],"stateMutability":"view"},{"type":"function","name":"validate_flashSwapAllOut","inputs":[{"name":"callData","type":"bytes","internalType":"bytes"}],"outputs":[],"stateMutability":"view"},{"type":"function","name":"validate_flashSwapExactInt","inputs":[{"name":"callData","type":"bytes","internalType":"bytes"}],"outputs":[],"stateMutability":"view"},{"type":"function","name":"validate_flashSwapExactOut","inputs":[{"name":"callData","type":"bytes","internalType":"bytes"}],"outputs":[],"stateMutability":"view"},{"type":"function","name":"validate_lagoonSettle","inputs":[{"name":"vault","type":"address","internalType":"address"}],"outputs":[],"stateMutability":"view"},{"type":"function","name":"validate_orderlyDelegateSigner","inputs":[{"name":"callData","type":"bytes","internalType":"bytes"}],"outputs":[],"stateMutability":"view"},{"type":"function","name":"validate_orderlyDeposit","inputs":[{"name":"callData","type":"bytes","internalType":"bytes"}],"outputs":[],"stateMutability":"view"},{"type":"function","name":"validate_orderlyWithdraw","inputs":[{"name":"callData","type":"bytes","internalType":"bytes"}],"outputs":[],"stateMutability":"view"},{"type":"function","name":"validate_swapExactTokensForTokens","inputs":[{"name":"callData","type":"bytes","internalType":"bytes"}],"outputs":[],"stateMutability":"view"},{"type":"function","name":"validate_transfer","inputs":[{"name":"callData","type":"bytes","internalType":"bytes"}],"outputs":[],"stateMutability":"view"},{"type":"function","name":"validate_transferERC20AllIn","inputs":[{"name":"callData","type":"bytes","internalType":"bytes"}],"outputs":[],"stateMutability":"view"},{"type":"function","name":"validate_transferERC20In","inputs":[{"name":"callData","type":"bytes","internalType":"bytes"}],"outputs":[],"stateMutability":"view"},{"type":"function","name":"whitelistAaveV3","inputs":[{"name":"lendingPool","type":"address","internalType":"address"},{"name":"notes","type":"string","internalType":"string"}],"outputs":[],"stateMutability":"nonpayable"},{"type":"function","name":"whitelistCowSwap","inputs":[{"name":"settlementContract","type":"address","internalType":"address"},{"name":"notes","type":"string","internalType":"string"}],"outputs":[],"stateMutability":"nonpayable"},{"type":"function","name":"whitelistERC4626","inputs":[{"name":"vault","type":"address","internalType":"address"},{"name":"notes","type":"string","internalType":"string"}],"outputs":[],"stateMutability":"nonpayable"},{"type":"function","name":"whitelistLagoon","inputs":[{"name":"vault","type":"address","internalType":"address"},{"name":"notes","type":"string","internalType":"string"}],"outputs":[],"stateMutability":"nonpayable"},{"type":"function","name":"whitelistOnedelta","inputs":[{"name":"brokerProxy","type":"address","internalType":"address"},{"name":"lendingPool","type":"address","internalType":"address"},{"name":"notes","type":"string","internalType":"string"}],"outputs":[],"stateMutability":"nonpayable"},{"type":"function","name":"whitelistOrderly","inputs":[{"name":"orderlyVault","type":"address","internalType":"address"},{"name":"notes","type":"string","internalType":"string"}],"outputs":[],"stateMutability":"nonpayable"},{"type":"function","name":"whitelistToken","inputs":[{"name":"token","type":"address","internalType":"address"},{"name":"notes","type":"string","internalType":"string"}],"outputs":[],"stateMutability":"nonpayable"},{"type":"function","name":"whitelistTokenForDelegation","inputs":[{"name":"token","type":"address","internalType":"address"},{"name":"notes","type":"string","internalType":"string"}],"outputs":[],"stateMutability":"nonpayable"},{"type":"function","name":"whitelistUniswapV2Router","inputs":[{"name":"router","type":"address","internalType":"address"},{"name":"notes","type":"string","internalType":"string"}],"outputs":[],"stateMutability":"nonpayable"},{"type":"function","name":"whitelistUniswapV3Router","inputs":[{"name":"router","type":"address","internalType":"address"},{"name":"notes","type":"string","internalType":"string"}],"outputs":[],"stateMutability":"nonpayable"},{"type":"event","name":"AnyAssetSet","inputs":[{"name":"value","type":"bool","indexed":false,"internalType":"bool"},{"name":"notes","type":"string","indexed":false,"internalType":"string"}],"anonymous":false},{"type":"event","name":"AnyVaultSet","inputs":[{"name":"value","type":"bool","indexed":false,"internalType":"bool"},{"name":"notes","type":"string","indexed":false,"internalType":"string"}],"anonymous":false},{"type":"event","name":"ApprovalDestinationApproved","inputs":[{"name":"sender","type":"address","indexed":false,"internalType":"address"},{"name":"notes","type":"string","indexed":false,"internalType":"string"}],"anonymous":false},{"type":"event","name":"ApprovalDestinationRemoved","inputs":[{"name":"sender","type":"address","indexed":false,"internalType":"address"},{"name":"notes","type":"string","indexed":false,"internalType":"string"}],"anonymous":false},{"type":"event","name":"AssetApproved","inputs":[{"name":"sender","type":"address","indexed":false,"internalType":"address"},{"name":"notes","type":"string","indexed":false,"internalType":"string"}],"anonymous":false},{"type":"event","name":"AssetRemoved","inputs":[{"name":"sender","type":"address","indexed":false,"internalType":"address"},{"name":"notes","type":"string","indexed":false,"internalType":"string"}],"anonymous":false},{"type":"event","name":"AvatarSet","inputs":[{"name":"previousAvatar","type":"address","indexed":true,"internalType":"address"},{"name":"newAvatar","type":"address","indexed":true,"internalType":"address"}],"anonymous":false},{"type":"event","name":"CallSiteApproved","inputs":[{"name":"target","type":"address","indexed":false,"internalType":"address"},{"name":"selector","type":"bytes4","indexed":false,"internalType":"bytes4"},{"name":"notes","type":"string","indexed":false,"internalType":"string"}],"anonymous":false},{"type":"event","name":"CallSiteRemoved","inputs":[{"name":"target","type":"address","indexed":false,"internalType":"address"},{"name":"selector","type":"bytes4","indexed":false,"internalType":"bytes4"},{"name":"notes","type":"string","indexed":false,"internalType":"string"}],"anonymous":false},{"type":"event","name":"CowSwapApproved","inputs":[{"name":"settlementContract","type":"address","indexed":false,"internalType":"address"},{"name":"notes","type":"string","indexed":false,"internalType":"string"}],"anonymous":false},{"type":"event","name":"DelegationApprovalDestinationApproved","inputs":[{"name":"sender","type":"address","indexed":false,"internalType":"address"},{"name":"notes","type":"string","indexed":false,"internalType":"string"}],"anonymous":false},{"type":"event","name":"DelegationApprovalDestinationRemoved","inputs":[{"name":"sender","type":"address","indexed":false,"internalType":"address"},{"name":"notes","type":"string","indexed":false,"internalType":"string"}],"anonymous":false},{"type":"event","name":"ERC4626Approved","inputs":[{"name":"vault","type":"address","indexed":false,"internalType":"address"},{"name":"notes","type":"string","indexed":false,"internalType":"string"}],"anonymous":false},{"type":"event","name":"Initialized","inputs":[{"name":"version","type":"uint64","indexed":false,"internalType":"uint64"}],"anonymous":false},{"type":"event","name":"LagoonVaultApproved","inputs":[{"name":"vault","type":"address","indexed":false,"internalType":"address"},{"name":"notes","type":"string","indexed":false,"internalType":"string"}],"anonymous":false},{"type":"event","name":"OrderSigned","inputs":[{"name":"timestamp","type":"uint256","indexed":true,"internalType":"uint256"},{"name":"orderUid","type":"bytes","indexed":false,"internalType":"bytes"},{"name":"order","type":"tuple","indexed":false,"internalType":"struct GPv2Order.Data","components":[{"name":"sellToken","type":"address","internalType":"contract IERC20"},{"name":"buyToken","type":"address","internalType":"contract IERC20"},{"name":"receiver","type":"address","internalType":"address"},{"name":"sellAmount","type":"uint256","internalType":"uint256"},{"name":"buyAmount","type":"uint256","internalType":"uint256"},{"name":"validTo","type":"uint32","internalType":"uint32"},{"name":"appData","type":"bytes32","internalType":"bytes32"},{"name":"feeAmount","type":"uint256","internalType":"uint256"},{"name":"kind","type":"bytes32","internalType":"bytes32"},{"name":"partiallyFillable","type":"bool","internalType":"bool"},{"name":"sellTokenBalance","type":"bytes32","internalType":"bytes32"},{"name":"buyTokenBalance","type":"bytes32","internalType":"bytes32"}]},{"name":"validTo","type":"uint32","indexed":false,"internalType":"uint32"},{"name":"buyAmount","type":"uint256","indexed":false,"internalType":"uint256"},{"name":"sellAmount","type":"uint256","indexed":false,"internalType":"uint256"}],"anonymous":false},{"type":"event","name":"OwnershipTransferred","inputs":[{"name":"previousOwner","type":"address","indexed":true,"internalType":"address"},{"name":"newOwner","type":"address","indexed":true,"internalType":"address"}],"anonymous":false},{"type":"event","name":"ReceiverApproved","inputs":[{"name":"sender","type":"address","indexed":false,"internalType":"address"},{"name":"notes","type":"string","indexed":false,"internalType":"string"}],"anonymous":false},{"type":"event","name":"ReceiverRemoved","inputs":[{"name":"sender","type":"address","indexed":false,"internalType":"address"},{"name":"notes","type":"string","indexed":false,"internalType":"string"}],"anonymous":false},{"type":"event","name":"SenderApproved","inputs":[{"name":"sender","type":"address","indexed":false,"internalType":"address"},{"name":"notes","type":"string","indexed":false,"internalType":"string"}],"anonymous":false},{"type":"event","name":"SenderRemoved","inputs":[{"name":"sender","type":"address","indexed":false,"internalType":"address"},{"name":"notes","type":"string","indexed":false,"internalType":"string"}],"anonymous":false},{"type":"event","name":"TargetSet","inputs":[{"name":"previousTarget","type":"address","indexed":true,"internalType":"address"},{"name":"newTarget","type":"address","indexed":true,"internalType":"address"}],"anonymous":false},{"type":"event","name":"WithdrawDestinationApproved","inputs":[{"name":"sender","type":"address","indexed":false,"internalType":"address"},{"name":"notes","type":"string","indexed":false,"internalType":"string"}],"anonymous":false},{"type":"event","name":"WithdrawDestinationRemoved","inputs":[{"name":"sender","type":"address","indexed":false,"internalType":"address"},{"name":"notes","type":"string","indexed":false,"internalType":"string"}],"anonymous":false},{"type":"error","name":"InvalidInitialization","inputs":[]},{"type":"error","name":"NotInitializing","inputs":[]},{"type":"error","name":"OwnableInvalidOwner","inputs":[{"name":"owner","type":"address","internalType":"address"}]},{"type":"error","name":"OwnableUnauthorizedAccount","inputs":[{"name":"account","type":"address","internalType":"address"}]}],"bytecode":{"object":"0x608060405234801561000f575f80fd5b5060405161624838038061624883398101604081905261002e916103f1565b604080516001600160a01b03848116602083015283168183015281518082038301815260609091019091526100628161006a565b505050610429565b7ff0c57e16840df040f15088dc2f81fe391c3923bec73e23a9662efc9c229c6a00805468010000000000000000810460ff1615906001600160401b03165f811580156100b35750825b90505f826001600160401b031660011480156100ce5750303b155b9050811580156100dc575080155b156100fa5760405163f92ee8a960e01b815260040160405180910390fd5b84546001600160401b0319166001178555831561012857845460ff60401b1916680100000000000000001785555b610131336101b7565b5f808780602001905181019061014791906103f1565b9092509050610155816101cb565b61015e81610222565b6101678261027b565b505083156101af57845460ff60401b19168555604051600181527fc7f505b2f371ae2175ee4913f4499e1f2633a7b5936321eed1cdaeb6115181d29060200160405180910390a15b505050505050565b6101bf6102ba565b6101c88161030a565b50565b6101d3610312565b5f80546001600160a01b038381166001600160a01b0319831681178455604051919092169283917f52ae88b092de36f87fb43fe794eb1381023b9c1bce563a871154022c63dce3429190a35050565b61022a610312565b600180546001600160a01b038381166001600160a01b0319831681179093556040519116919082907f90cc2f570a6eb594b1580ea3e41247d2d73a55281889e86bd4ec2fc29c7e62d6905f90a35050565b610283610312565b6001600160a01b0381166102b157604051631e4fbdf760e01b81525f60048201526024015b60405180910390fd5b6101c88161036d565b7ff0c57e16840df040f15088dc2f81fe391c3923bec73e23a9662efc9c229c6a005468010000000000000000900460ff1661030857604051631afcd79f60e31b815260040160405180910390fd5b565b6102836102ba565b336103447f9016d09d72d40fdae2fd8ceac6b6234c7706214fd39c1cd1e609a0528c199300546001600160a01b031690565b6001600160a01b0316146103085760405163118cdaa760e01b81523360048201526024016102a8565b7f9016d09d72d40fdae2fd8ceac6b6234c7706214fd39c1cd1e609a0528c19930080546001600160a01b031981166001600160a01b03848116918217845560405192169182907f8be0079c531659141344cd1fd0a4f28419497f9722a3daafe3b4186f6b6457e0905f90a3505050565b6001600160a01b03811681146101c8575f80fd5b5f8060408385031215610402575f80fd5b825161040d816103dd565b602084015190925061041e816103dd565b809150509250929050565b615e12806104365f395ff3fe608060405260043610610567575f3560e01c806387301608116102c3578063c537bed011610182578063ebe26816116100e7578063f2fde38b11610092578063fa2c59c81161006d578063fa2c59c81461110f578063fadbcf481461112e578063fdedfa271461115c575f80fd5b8063f2fde38b146110b2578063f76081e4146110d1578063f901dc33146110f0575f80fd5b8063f20e85e0116100c2578063f20e85e014611074578063f259a0731461056b578063f26749f314611093575f80fd5b8063ebe2681614610ffa578063ee5462cc14611019578063efb47bff14611038575f80fd5b8063d4c0fe4511610147578063db17a17011610122578063db17a17014610f8e578063e98539c514610fad578063eb0de04214610fcc575f80fd5b8063d4c0fe4514610f50578063d718f041146109d1578063d7334c9d14610f6f575f80fd5b8063c537bed014610eb7578063ca963c5014610993578063d075f9bb14610ed6578063d2f73e3d14610f12578063d4b8399214610f31575f80fd5b8063a67e1f5411610228578063b3c329cb116101ed578063c0f96f24116101c8578063c0f96f2414610e5a578063c2e657ae14610e79578063c4cc9dba14610e98575f80fd5b8063b3c329cb14610dd1578063b8fe8d5f14610df0578063be8c97b014610e1e575f80fd5b8063a67e1f5414610d44578063a847cf4d14610d63578063a9fc3d4f14610d9c578063ac9650d814610db1578063adcfa55b14610b0c575f80fd5b8063957dc6c011610288578063a1b6b43011610263578063a1b6b43014610cd8578063a4c1cccb14610cf7578063a4f9edbf14610d25575f80fd5b8063957dc6c014610c6657806398b3cc3914610c855780639e4a83cf14610ca4575f80fd5b80638730160814610bc45780638c2fdf9e14610bdd5780638da5cb5b14610bfc5780638fb4dff214610c38578063912ef02d146109d1575f80fd5b80635ace1d9211610429578063713ebf3b1161038e578063776d1a01116103395780637ea44655116103145780637ea4465514610b6757806386a6ae1514610b8657806386b6dbe514610ba5575f80fd5b8063776d1a0114610aed5780637806508614610b0c57806378addb4814610b2b575f80fd5b806373252494116103695780637325249414610a9b578063742bfc7e14610aaf578063761bcd9c14610ace575f80fd5b8063713ebf3b14610a49578063715018a614610a6857806372e548a914610a7c575f80fd5b80636a6d5cc8116103ee5780636d5176a6116103c95780636d5176a6146109d15780636d9a1423146109ee5780636fd7fdef14610a0d575f80fd5b80636a6d5cc8146109745780636ad11353146109935780636d5025f1146109b2575f80fd5b80635ace1d92146108c25780635aef7de6146108e15780635e4ccace146109175780635e6afe4d1461093657806363cc17f214610955575f80fd5b806334ec8d7e116104cf57806347566064116104945780634b9412681161046f5780634b941268146108565780634b956bd81461088457806359b92be9146108a3575f80fd5b806347566064146107ea578063486295dc146108185780634acf884d14610837575f80fd5b806334ec8d7e1461073c5780633cf200251461075b5780633ea35551146107895780633ffb788e146107a8578063425f49d0146107cb575f80fd5b80631c123e771161052f5780632d12d7881161050a5780632d12d788146106a55780632dc32a61146106c4578063333f22e814610700575f80fd5b80631c123e771461062c5780631d49039c1461064b5780632c02cda014610687575f80fd5b806304a3ba251461056b57806307ac35621461058c57806307ef00cf146105ab578063086cfca8146105ee5780631710a4f21461060d575b5f80fd5b348015610576575f80fd5b5061058a610585366004614dbd565b611177565b005b348015610597575f80fd5b5061058a6105a6366004614ec9565b6111df565b3480156105b6575f80fd5b506105d96105c5366004614f02565b60086020525f908152604090205460ff1681565b60405190151581526020015b60405180910390f35b3480156105f9575f80fd5b5061058a610608366004614f02565b611524565b348015610618575f80fd5b5061058a610627366004614ec9565b61157b565b348015610637575f80fd5b5061058a610646366004614ec9565b61162b565b348015610656575f80fd5b506105d9610665366004614f02565b6001600160a01b03165f9081526009602052604090205460ff16151560011490565b348015610692575f80fd5b5061058a6106a1366004614f24565b5050565b3480156106b0575f80fd5b5061058a6106bf366004614dbd565b611726565b3480156106cf575f80fd5b506105d96106de366004614f02565b6001600160a01b03165f908152600a602052604090205460ff16151560011490565b34801561070b575f80fd5b506105d961071a366004614f02565b6001600160a01b03165f908152600c602052604090205460ff16151560011490565b348015610747575f80fd5b5061058a610756366004614dbd565b611781565b348015610766575f80fd5b506105d9610775366004614f02565b60076020525f908152604090205460ff1681565b348015610794575f80fd5b5061058a6107a3366004614dbd565b6117fc565b3480156107b3575f80fd5b506107bd6104b081565b6040519081526020016105e5565b3480156107d6575f80fd5b5061058a6107e5366004614ec9565b611852565b3480156107f5575f80fd5b506105d9610804366004614f02565b600c6020525f908152604090205460ff1681565b348015610823575f80fd5b5061058a610832366004614f70565b611873565b348015610842575f80fd5b5061058a610851366004614fc7565b6118dc565b348015610861575f80fd5b506105d9610870366004614f02565b600a6020525f908152604090205460ff1681565b34801561088f575f80fd5b5061058a61089e366004614ec9565b611923565b3480156108ae575f80fd5b5061058a6108bd366004614ec9565b6119c6565b3480156108cd575f80fd5b5061058a6108dc366004614dbd565b611a47565b3480156108ec575f80fd5b505f546108ff906001600160a01b031681565b6040516001600160a01b0390911681526020016105e5565b348015610922575f80fd5b5061058a610931366004615058565b611aa5565b348015610941575f80fd5b5061058a610950366004614dbd565b611b51565b348015610960575f80fd5b5061058a61096f366004614dbd565b611cfd565b34801561097f575f80fd5b5061058a61098e366004614ec9565b611d5b565b34801561099e575f80fd5b5061058a6109ad366004614ec9565b611e43565b3480156109bd575f80fd5b5061058a6109cc3660046150b6565b611e65565b3480156109dc575f80fd5b5061058a6109eb366004614ec9565b50565b3480156109f9575f80fd5b5061058a610a08366004614dbd565b611e77565b348015610a18575f80fd5b506105d9610a27366004614f02565b6001600160a01b03165f908152600b602052604090205460ff16151560011490565b348015610a54575f80fd5b506105d9610a633660046150e4565b611ead565b348015610a73575f80fd5b5061058a611ee4565b348015610a87575f80fd5b5061058a610a96366004614dbd565b611ef7565b348015610aa6575f80fd5b506108ff611f55565b348015610aba575f80fd5b5061058a610ac9366004614ec9565b611f8c565b348015610ad9575f80fd5b5061058a610ae8366004614ec9565b612047565b348015610af8575f80fd5b5061058a610b07366004614f02565b612191565b348015610b17575f80fd5b5061058a610b26366004614ec9565b6121ea565b348015610b36575f80fd5b506105d9610b45366004614f02565b6001600160a01b03165f9081526003602052604090205460ff16151560011490565b348015610b72575f80fd5b5061058a610b81366004614ec9565b6122a9565b348015610b91575f80fd5b5061058a610ba0366004614dbd565b61232c565b348015610bb0575f80fd5b5061058a610bbf366004614dbd565b6125ed565b348015610bcf575f80fd5b50600d546105d99060ff1681565b348015610be8575f80fd5b5061058a610bf7366004614dbd565b61264b565b348015610c07575f80fd5b507f9016d09d72d40fdae2fd8ceac6b6234c7706214fd39c1cd1e609a0528c199300546001600160a01b03166108ff565b348015610c43575f80fd5b506105d9610c52366004614f02565b600b6020525f908152604090205460ff1681565b348015610c71575f80fd5b5061058a610c80366004614ec9565b6126a6565b348015610c90575f80fd5b5061058a610c9f366004614dbd565b612764565b348015610caf575f80fd5b50604080518082018252600681526576302e312e3360d01b602082015290516105e59190615145565b348015610ce3575f80fd5b5061058a610cf2366004614ec9565b6127c2565b348015610d02575f80fd5b506105d9610d11366004614f02565b60056020525f908152604090205460ff1681565b348015610d30575f80fd5b5061058a610d3f366004614ec9565b612984565b348015610d4f575f80fd5b5061058a610d5e366004614dbd565b612ac5565b348015610d6e575f80fd5b506105d9610d7d3660046150e4565b600260209081525f928352604080842090915290825290205460ff1681565b348015610da7575f80fd5b506107bd60045481565b610dc4610dbf366004615157565b612b20565b6040516105e591906151c6565b348015610ddc575f80fd5b5061058a610deb366004614f02565b612c66565b348015610dfb575f80fd5b506105d9610e0a366004614f02565b60036020525f908152604090205460ff1681565b348015610e29575f80fd5b506105d9610e38366004614f02565b6001600160a01b03165f9081526006602052604090205460ff16151560011490565b348015610e65575f80fd5b5061058a610e74366004614dbd565b612cd8565b348015610e84575f80fd5b5061058a610e93366004615236565b612d39565b348015610ea3575f80fd5b5061058a610eb2366004614ec9565b612d83565b348015610ec2575f80fd5b506105d9610ed1366004614f02565b612ea1565b348015610ee1575f80fd5b506105d9610ef0366004614f02565b6001600160a01b03165f9081526007602052604090205460ff16151560011490565b348015610f1d575f80fd5b5061058a610f2c366004614dbd565b612ed2565b348015610f3c575f80fd5b506001546108ff906001600160a01b031681565b348015610f5b575f80fd5b5061058a610f6a366004614ec9565b612ede565b348015610f7a575f80fd5b5061058a610f89366004615058565b612f41565b348015610f99575f80fd5b5061058a610fa8366004614dbd565b612fb3565b348015610fb8575f80fd5b5061058a610fc7366004614ec9565b613034565b348015610fd7575f80fd5b506105d9610fe6366004614f02565b60096020525f908152604090205460ff1681565b348015611005575f80fd5b5061058a611014366004614ec9565b6130f2565b348015611024575f80fd5b5061058a611033366004614dbd565b6131a5565b348015611043575f80fd5b506105d9611052366004614f02565b6001600160a01b03165f9081526008602052604090205460ff16151560011490565b34801561107f575f80fd5b5061058a61108e366004614dbd565b6131b0565b34801561109e575f80fd5b5061058a6110ad3660046150b6565b613206565b3480156110bd575f80fd5b5061058a6110cc366004614f02565b61327b565b3480156110dc575f80fd5b5061058a6110eb366004614ec9565b6132b5565b3480156110fb575f80fd5b5061058a61110a366004614dbd565b613330565b34801561111a575f80fd5b5061058a611129366004614dbd565b61338b565b348015611139575f80fd5b506105d9611148366004614f02565b60066020525f908152604090205460ff1681565b348015611167575f80fd5b50604051600181526020016105e5565b61117f6133e9565b6001600160a01b0383165f9081526009602052604090819020805460ff19169055517fb71be9befd3ac90c1c9981d3b1161b3c2c6dcd741f13b34061aa251226a802df906111d29085908590859061527b565b60405180910390a1505050565b5f818060200190518101906111f4919061531c565b90505f5b815181101561151f575f828281518110611214576112146153cb565b602002602001015190505f6112355f6004846134449092919063ffffffff16565b61123e906153df565b90505f61125b60048085516112539190615431565b859190613444565b6040805180820190915260208082527f7472616e736665724552433230496e28616464726573732c75696e74323536299101529050631dac092b60e11b6001600160e01b03198316016112b6576112b1816119c6565b611514565b60408051808201909152601b81527f7472616e736665724552433230416c6c496e2861646472657373290000000000602090910152635cf59cb760e11b6001600160e01b031983160161130c576112b1816122a9565b60408051808201909152601881527f6465706f73697428616464726573732c6164647265737329000000000000000060209091015262d3ec1f60e31b6001600160e01b0319831601611361576112b181612d83565b60408051808201909152601981527f776974686472617728616464726573732c6164647265737329000000000000006020909101526306bf1c7b60e01b6001600160e01b03198316016113b7576112b1816132b5565b6113de604051806060016040528060278152602001615d8260279139805160209091012090565b6001600160e01b031916826001600160e01b03191603611401576112b181611e43565b611428604051806060016040528060288152602001615d5a60289139805160209091012090565b6001600160e01b031916826001600160e01b0319160361144b576112b181611e43565b60408051808201909152601e81527f666c61736853776170416c6c4f75742875696e743235362c627974657329000060209091015263d2b3d16560e01b6001600160e01b03198316016114a1576112b181611852565b60405162461bcd60e51b815260206004820152603360248201527f76616c69646174655f3164656c74614d756c746963616c6c3a20556e6b6e6f7760448201527f6e2066756e6374696f6e2073656c6563746f720000000000000000000000000060648201526084015b60405180910390fd5b5050506001016111f8565b505050565b61152c6133e9565b5f80546001600160a01b038381166001600160a01b0319831681178455604051919092169283917f52ae88b092de36f87fb43fe794eb1381023b9c1bce563a871154022c63dce3429190a35050565b5f81806020019051810190611590919061544f565b5090506115b9816001600160a01b03165f9081526008602052604090205460ff16151560011490565b6106a15760405162461bcd60e51b815260206004820152603c60248201527f76616c69646174655f7472616e736665723a205265636569766572206164647260448201527f657373206e6f742077686974656c697374656420627920477561726400000000606482015260840161150b565b5f805b611637836135a6565b509250905061164582612ea1565b6116a25760405162461bcd60e51b815260206004820152602860248201527f76616c6964617465556e69737761705633506174683a20546f6b656e206e6f7460448201526708185b1b1bddd95960c21b606482015260840161150b565b6116ab81612ea1565b6117085760405162461bcd60e51b815260206004820152602860248201527f76616c6964617465556e69737761705633506174683a20546f6b656e206e6f7460448201526708185b1b1bddd95960c21b606482015260840161150b565b611711836135e1565b1561151f5761171f8361361a565b925061162e565b61172e6133e9565b6001600160a01b0383165f9081526007602052604090819020805460ff19169055517f4e13b11ab98e672bd78295ef9cebe764dc617f95decf47d842c25b83abc0c724906111d29085908590859061527b565b6117b3836117ac604051806060016040528060338152602001615d2760339139805160209091012090565b8484611aa5565b6117de836117ac604051806060016040528060348152602001615da960349139805160209091012090565b6117f18363b858183f60e01b8484611aa5565b61151f838383612764565b611827836117ac604051806080016040528060438152602001615b3f60439139805160209091012090565b6117f1836117ac604051806080016040528060608152602001615b8260609139805160209091012090565b5f81806020019051810190611867919061547b565b9150506106a1816127c2565b5f60606118823387878761364b565b6118c2868487878080601f0160208091040260200160405190810160405280939291908181526020018383808284375f920182905250925061439e915050565b9092509050816118d457805160208201fd5b505050505050565b5f60605f6118ef8a8a8a8a8a8a8a614428565b905061190581602001515f83604001515f61439e565b90935091508261191757815160208301fd5b50505050505050505050565b5f81806020019051810190611938919061544f565b509050611961816001600160a01b03165f9081526009602052604090205460ff16151560011490565b6106a15760405162461bcd60e51b815260206004820152603060248201527f76616c69646174655f617070726f76653a20417070726f76652061646472657360448201526f0e640c8decae640dcdee840dac2e8c6d60831b606482015260840161150b565b5f818060200190518101906119db919061544f565b5090506119e781612ea1565b6106a15760405162461bcd60e51b815260206004820152602b60248201527f76616c69646174655f7472616e736665724552433230496e3a20546f6b656e2060448201526a1b9bdd08185b1b1bddd95960aa1b606482015260840161150b565b611a4f6133e9565b6001600160a01b0383165f9081526008602052604090819020805460ff19166001179055517f3562181221a42a19ddd03a82dfe06acab1905ceb65cdaf7d86a1d9fec6643552906111d29085908590859061527b565b611aad6133e9565b6001600160a01b0384165f8181526002602090815260408083206001600160e01b03198816845282528083208054600160ff199182168117909255948452600390925282208054909316179091556004805491611b09836154b5565b91905055507fef729aaa41b9fd994f9ff7c1960df214a84f722002e6cfbea31799cd0873a3ef84848484604051611b4394939291906154cd565b60405180910390a150505050565b611b596133e9565b6001600160a01b0383165f908152600b6020908152604091829020805460ff191660011790558151808301909252600f82526e736574746c654465706f736974282960881b910152611bcb837f559ec80da0b29925dac0e329ba0aaf8bbf2760bcaf9174e4ca42e01d74c0e6d06117ac565b60408051808201909152600e81526d736574746c6552656465656d282960901b602090910152611c1b837fa03d55e3f74b6754c01f274bb12d9c8a11ea8330b6b4ce7125c8dff1f63646ca6117ac565b604080518082019091526016815275736574746c654465706f7369742875696e743235362960501b602090910152611c73837fd24ca58a10c001ae46e533b96327657c0a386bc41cac6e2db77fab9c775540b56117ac565b604080518082019091526015815274736574746c6552656465656d2875696e743235362960581b602090910152611cca837fa627df6689990c734a41da64c298fd0d8c7cc1757a97e2f817ed479cf45d135d6117ac565b7ffaa136302ac223cf7c1146490a741e4520e886fc22d7e759641453f432283d018383836040516111d29392919061527b565b611d056133e9565b6001600160a01b0383165f908152600a602052604090819020805460ff19166001179055517f628a44970c0e450415e3ae74334ea44f3307b74dbf677a1371190242bf2f3589906111d29085908590859061527b565b5f8082806020019051810190611d719190615508565b9250509150611d7f82612ea1565b611dbf5760405162461bcd60e51b8152602060048201526011602482015270151bdad95b881b9bdd08185b1b1bddd959607a1b604482015260640161150b565b611de5816001600160a01b03165f9081526007602052604090205460ff16151560011490565b61151f5760405162461bcd60e51b815260206004820152602960248201527f52656365697665722061646472657373206e6f742077686974656c697374656460448201526808189e4811dd585c9960ba1b606482015260840161150b565b5f81806020019051810190611e589190615548565b925050506106a1816127c2565b611e718484848461364b565b50505050565b611ea2836117ac604051806060016040528060228152602001615d0560229139805160209091012090565b61151f8383836125ed565b6001600160a01b0382165f9081526002602090815260408083206001600160e01b03198516845290915290205460ff165b92915050565b611eec6133e9565b611ef55f6146c9565b565b611eff6133e9565b6001600160a01b0383165f9081526007602052604090819020805460ff19166001179055517f62dd88c5ecfa60713a657640ebec4de26fc1aefa4afdb24e6d15a124fce72779906111d29085908590859061527b565b5f611f877f9016d09d72d40fdae2fd8ceac6b6234c7706214fd39c1cd1e609a0528c199300546001600160a01b031690565b905090565b5f81806020019051810190611fa19190615594565b50915050611fcb816001600160a01b03165f9081526007602052604090205460ff16151560011490565b6106a15760405162461bcd60e51b815260206004820152604160248201527f76616c69646174655f4552433436323652656465656d3a20526563656976657260448201527f2061646472657373206e6f742077686974656c697374656420627920477561726064820152601960fa1b608482015260a40161150b565b5f808280602001905181019061205d91906155ca565b5093509350505061208a816001600160a01b03165f9081526007602052604090205460ff16151560011490565b6121115760405162461bcd60e51b815260206004820152604c60248201527f76616c69646174655f737761704578616374546f6b656e73466f72546f6b656e60448201527f733a2052656365697665722061646472657373206e6f742077686974656c697360648201526b1d195908189e4811dd585c9960a21b608482015260a40161150b565b5f805b835181101561218a5783818151811061212f5761212f6153cb565b6020026020010151915061214282612ea1565b6121825760405162461bcd60e51b8152602060048201526011602482015270151bdad95b881b9bdd08185b1b1bddd959607a1b604482015260640161150b565b600101612114565b5050505050565b6121996133e9565b600180546001600160a01b038381166001600160a01b0319831681179093556040519116919082907f90cc2f570a6eb594b1580ea3e41247d2d73a55281889e86bd4ec2fc29c7e62d6905f90a35050565b5f818060200190518101906121ff9190615594565b50915050612229816001600160a01b03165f9081526007602052604090205460ff16151560011490565b6106a15760405162461bcd60e51b815260206004820152604560248201527f76616c69646174655f455243343632365769746864726177616c3a205265636560448201527f697665722061646472657373206e6f742077686974656c69737465642062792060648201526411dd585c9960da1b608482015260a40161150b565b5f818060200190518101906122be9190615693565b90506122c981612ea1565b6106a15760405162461bcd60e51b815260206004820152602e60248201527f76616c69646174655f7472616e736665724552433230416c6c496e3a20546f6b60448201526d195b881b9bdd08185b1b1bddd95960921b606482015260840161150b565b5f8390505f816001600160a01b03166338d52e0f6040518163ffffffff1660e01b8152600401602060405180830381865afa15801561236d573d5f803e3d5ffd5b505050506040513d601f19601f820116820180604052508101906123919190615693565b60408051808201909152601881527f6465706f7369742875696e743235362c616464726573732900000000000000006020909101529050846123f6817f6e553f653991036c188afcef45e14f9ecb45269ff9c675358bbb3a2eeb78e03b5b8787611aa5565b612421866123ef604051806060016040528060218152602001615ce460219139805160209091012090565b60408051808201909152601f81527f72656465656d2875696e743235362c616464726573732c616464726573732900602090910152612480867fba087652ef750b77b3f3b86ecd8aac56de04fbc0d6751abdd0992cabce3790546123ef565b6040805180820190915260208082527f6465706f7369742875696e743235362c616464726573732c61646472657373299101526124dd867f2e2d298468c732b7cc7344a26321c2cd82d446fea74af620fb9923927c3c57e96123ef565b612508866123ef604051806060016040528060268152602001615c2960269139805160209091012090565b612533866123ef604051806060016040528060288152602001615b1760289139805160209091012090565b61255e866123ef604051806060016040528060278152602001615c4f60279139805160209091012090565b612589866123ef604051806060016040528060248152602001615cc060249139805160209091012090565b612594868686612764565b61259f818686614739565b6125aa828686614739565b7fd2851df39115d63968e90113e8b3a96f13e33ac4c2e5a9caa1afeffe59e557488686866040516125dd9392919061527b565b60405180910390a1505050505050565b6125f56133e9565b6001600160a01b0383165f9081526005602052604090819020805460ff19166001179055517fad90e2570fc4fe9f7437be3188d5c791c6662892d31731992aa88f5c87621983906111d29085908590859061527b565b6126536133e9565b6001600160a01b0383165f9081526008602052604090819020805460ff19169055517f1212f8ddb39de8e1a339460c95752d61100723efeaa34ccd94bca94393f40938906111d29085908590859061527b565b5f818060200190518101906126bb919061544f565b5090506126e4816001600160a01b03165f908152600a602052604090205460ff16151560011490565b6106a15760405162461bcd60e51b815260206004820152604560248201527f76616c69646174655f617070726f766544656c65676174696f6e3a204170707260448201527f6f76652064656c65676174696f6e206164647265737320646f6573206e6f74206064820152640dac2e8c6d60db1b608482015260a40161150b565b61276c6133e9565b6001600160a01b0383165f9081526009602052604090819020805460ff19166001179055517f628a44970c0e450415e3ae74334ea44f3307b74dbf677a1371190242bf2f3589906111d29085908590859061527b565b5f805b6127cf835f6147f2565b91506127fe6001806127e3600360146156ae565b6127ed91906156ae565b6127f791906156ae565b84906147f2565b905061280982612ea1565b6128635760405162461bcd60e51b815260206004820152602560248201527f76616c69646174653164656c7461506174683a20546f6b656e206e6f7420616c6044820152641b1bddd95960da1b606482015260840161150b565b61286c81612ea1565b6128c65760405162461bcd60e51b815260206004820152602560248201527f76616c69646174653164656c7461506174683a20546f6b656e206e6f7420616c6044820152641b1bddd95960da1b606482015260840161150b565b6001806128d5600360146156ae565b6128df91906156ae565b6128e991906156ae565b60146001806128f96003846156ae565b61290391906156ae565b61290d91906156ae565b61291791906156ae565b61292191906156ae565b83511061151f5761297d60018061293a600360146156ae565b61294491906156ae565b61294e91906156ae565b60018061295d600360146156ae565b61296791906156ae565b61297191906156ae565b85516112539190615431565b92506127c5565b7ff0c57e16840df040f15088dc2f81fe391c3923bec73e23a9662efc9c229c6a008054600160401b810460ff1615906001600160401b03165f811580156129c85750825b90505f826001600160401b031660011480156129e35750303b155b9050811580156129f1575080155b15612a0f5760405163f92ee8a960e01b815260040160405180910390fd5b845467ffffffffffffffff191660011785558315612a3e57845468ff00000000000000001916600160401b1785555b612a47336148c1565b5f8087806020019051810190612a5d91906156c1565b91509150612a6a81611524565b612a7381612191565b612a7c8261327b565b505083156118d457845468ff000000000000000019168555604051600181527fc7f505b2f371ae2175ee4913f4499e1f2633a7b5936321eed1cdaeb6115181d2906020016125dd565b612acd6133e9565b6001600160a01b0383165f9081526006602052604090819020805460ff19169055517f3097928509c53a2dab9500431201d82b0d756e8f890fd01f4ae6b33b45687ea4906111d29085908590859061527b565b6060816001600160401b03811115612b3a57612b3a614e0d565b604051908082528060200260200182016040528015612b6d57816020015b6060815260200190600190039081612b585790505b5090505f5b82811015612c5f575f8030868685818110612b8f57612b8f6153cb565b9050602002810190612ba191906156f9565b604051612baf92919061573b565b5f60405180830381855af49150503d805f8114612be7576040519150601f19603f3d011682016040523d82523d5f602084013e612bec565b606091505b509150915081612c3757604481511015612c04575f80fd5b60048101905080806020019051810190612c1e919061574a565b60405162461bcd60e51b815260040161150b9190615145565b80848481518110612c4a57612c4a6153cb565b60209081029190910101525050600101612b72565b5092915050565b612c8c816001600160a01b03165f908152600b602052604090205460ff16151560011490565b6109eb5760405162461bcd60e51b815260206004820152601160248201527f5661756c74206e6f7420616c6c6f776564000000000000000000000000000000604482015260640161150b565b612ce3838383612764565b6001600160a01b0383165f908152600c602052604090819020805460ff19166001179055517f936b7187f49d778f82d1c17d927c8006f00eac6d2e5ccb50720dbc7afda8b4a9906111d29085908590859061527b565b612d416133e9565b600d805460ff19168415151790556040517f50454d9d0025a28a39cac5a4b3f3101d29b6e413fbb64f75fb42eb6837b07718906111d29085908590859061578e565b5f8082806020019051810190612d9991906156c1565b91509150612da682612ea1565b612e095760405162461bcd60e51b815260206004820152602e60248201527f76616c69646174655f7472616e736665724552433230416c6c496e3a20546f6b60448201526d195b881b9bdd08185b1b1bddd95960921b606482015260840161150b565b612e2f816001600160a01b03165f9081526007602052604090205460ff16151560011490565b61151f5760405162461bcd60e51b815260206004820152603b60248201527f76616c69646174655f6465706f7369743a20526563656976657220616464726560448201527f7373206e6f742077686974656c69737465642062792047756172640000000000606482015260840161150b565b600d545f9060ff1680611ede5750506001600160a01b03165f9081526005602052604090205460ff16151560011490565b61151f8383835f611873565b5f81806020019051810190612ef391906157a9565b5050509050612f0181612ea1565b6106a15760405162461bcd60e51b8152602060048201526011602482015270151bdad95b881b9bdd08185b1b1bddd959607a1b604482015260640161150b565b612f496133e9565b6001600160a01b0384165f9081526002602090815260408083206001600160e01b03198716845290915290819020805460ff19169055517f37ea10f2d08f5a9803dfcd5abf3cfc7b0d6fcdf5fcbc36be9ea5a0b53d9a4d9b90611b439086908690869086906154cd565b612fde836117ac604051806060016040528060218152602001615acc60219139805160209091012090565b613009836117ac6040518060600160405280602a8152602001615aed602a9139805160209091012090565b6117f1836117ac6040518060800160405280604a8152602001615c76604a9139805160209091012090565b5f818060200190518101906130499190615885565b905061307581602001516001600160a01b03165f9081526007602052604090205460ff16151560011490565b6130e75760405162461bcd60e51b815260206004820152603f60248201527f76616c69646174655f65786163744f75747075743a205265636569766572206160448201527f646472657373206e6f742077686974656c697374656420627920477561726400606482015260840161150b565b80516106a19061162b565b5f818060200190518101906131079190615885565b905061313381602001516001600160a01b03165f9081526007602052604090205460ff16151560011490565b6130e75760405162461bcd60e51b815260206004820152603e60248201527f76616c69646174655f6578616374496e7075743a20526563656976657220616460448201527f6472657373206e6f742077686974656c69737465642062792047756172640000606482015260840161150b565b61151f838383614739565b6131db836117ac604051806060016040528060268152602001615be260269139805160209091012090565b6117f1836117ac604051806060016040528060218152602001615c0860219139805160209091012090565b6040805180820190915260128152716d756c746963616c6c2862797465735b5d2960701b60209091015261325a847fac9650d882acfa253cba1ed543b9ff47351da99c3bd00a89625e5cdb2099009c6117ac565b613265848383612764565b613270838383612764565b611e71848383611cfd565b6132836133e9565b6001600160a01b0381166132ac57604051631e4fbdf760e01b81525f600482015260240161150b565b6109eb816146c9565b5f80828060200190518101906132cb91906156c1565b915091506132d882612ea1565b612e095760405162461bcd60e51b8152602060048201526024808201527f76616c69646174655f77697468647261773a20546f6b656e206e6f7420616c6c6044820152631bddd95960e21b606482015260840161150b565b6133386133e9565b6001600160a01b0383165f9081526005602052604090819020805460ff19169055517f9ca3f065622f5f03f32b7157677a0e420c3a36ab45fd49f256ffebce3e310587906111d29085908590859061527b565b6133936133e9565b6001600160a01b0383165f9081526006602052604090819020805460ff19166001179055517fa8f9caaf4861720900294428e4ff34d37070c37afd26d96e6e4da75326d2c3ad906111d29085908590859061527b565b3361341b7f9016d09d72d40fdae2fd8ceac6b6234c7706214fd39c1cd1e609a0528c199300546001600160a01b031690565b6001600160a01b031614611ef55760405163118cdaa760e01b815233600482015260240161150b565b60608161345281601f6156ae565b10156134915760405162461bcd60e51b815260206004820152600e60248201526d736c6963655f6f766572666c6f7760901b604482015260640161150b565b8261349c83826156ae565b10156134db5760405162461bcd60e51b815260206004820152600e60248201526d736c6963655f6f766572666c6f7760901b604482015260640161150b565b6134e582846156ae565b845110156135355760405162461bcd60e51b815260206004820152601160248201527f736c6963655f6f75744f66426f756e6473000000000000000000000000000000604482015260640161150b565b6060821580156135535760405191505f82526020820160405261359d565b6040519150601f8416801560200281840101858101878315602002848b0101015b8183101561358c578051835260209283019201613574565b5050858452601f01601f1916604052505b50949350505050565b5f80806135b384826147f2565b92506135c08460146148d2565b90506135d86135d1600360146156ae565b85906147f2565b91509193909250565b5f6135ee600360146156ae565b60146135fb6003826156ae565b61360591906156ae565b61360f91906156ae565b825110159050919050565b6060611ede61362b600360146156ae565b613637600360146156ae565b84516136439190615431565b849190613444565b613653611f55565b6001600160a01b0316846001600160a01b03160315611e7157613692846001600160a01b03165f9081526006602052604090205460ff16151560011490565b6136de5760405162461bcd60e51b815260206004820181905260248201527f76616c696461746543616c6c3a2053656e646572206e6f7420616c6c6f776564604482015260640161150b565b5f6136ec60048284866158b6565b6136f5916158dd565b9050365f61370684600481886158b6565b600d5491935091505f9060ff16801561375f5750604080518082019091526018815277617070726f766528616464726573732c75696e743235362960401b60209091015263095ea7b360e01b6001600160e01b03198516145b905080613855576137708785611ead565b6138555761379a876001600160a01b03165f9081526003602052604090205460ff16151560011490565b6137e65760405162461bcd60e51b815260206004820181905260248201527f76616c696461746543616c6c3a20746172676574206e6f7420616c6c6f776564604482015260640161150b565b6137f08785611ead565b6138555760405162461bcd60e51b815260206004820152603060248201527f76616c696461746543616c6c3a2073656c6563746f72206e6f7420616c6c6f7760448201526f1959081bdb881d1a19481d185c99d95d60821b606482015260840161150b565b61387c604051806080016040528060438152602001615b3f60439139805160209091012090565b6001600160e01b031916846001600160e01b031916036138d9576138d483838080601f0160208091040260200160405190810160405280939291908181526020018383808284375f9201919091525061204792505050565b614394565b613900604051806080016040528060608152602001615b8260609139805160209091012090565b6001600160e01b031916846001600160e01b03191603613958576138d483838080601f0160208091040260200160405190810160405280939291908181526020018383808284375f9201919091525061204792505050565b61397f604051806060016040528060338152602001615d2760339139805160209091012090565b6001600160e01b031916846001600160e01b031916036139d7576138d483838080601f0160208091040260200160405190810160405280939291908181526020018383808284375f920191909152506130f292505050565b6001600160e01b0319841663b858183f60e01b03613a7e57600d5460ff166138d45760405162461bcd60e51b815260206004820152604e60248201527f76616c696461746543616c6c3a2053776170526f75746572303220697320637560448201527f7272656e746c7920737570706f72746564206f6e6c79207769746820616e794160648201526d1cdcd95d081dda1a5d195b1a5cdd60921b608482015260a40161150b565b6040805180820190915260128152716d756c746963616c6c2862797465735b5d2960701b602090910152630a6d35e560e31b6001600160e01b0319851601613afe576138d483838080601f0160208091040260200160405190810160405280939291908181526020018383808284375f920191909152506111df92505050565b60408051808201909152601981527f7472616e7366657228616464726573732c75696e7432353629000000000000006020909101526356fa634560e01b6001600160e01b0319851601613b89576138d483838080601f0160208091040260200160405190810160405280939291908181526020018383808284375f9201919091525061157b92505050565b604080518082019091526018815277617070726f766528616464726573732c75696e743235362960401b60209091015263f6a1584d60e01b6001600160e01b0319851601613c0f576138d483838080601f0160208091040260200160405190810160405280939291908181526020018383808284375f9201919091525061192392505050565b613c36604051806060016040528060228152602001615d0560229139805160209091012090565b6001600160e01b031916846001600160e01b03191603613c8e576138d483838080601f0160208091040260200160405190810160405280939291908181526020018383808284375f920191909152506126a692505050565b613cb5604051806060016040528060268152602001615be260269139805160209091012090565b6001600160e01b031916846001600160e01b03191603613d0d576138d483838080601f0160208091040260200160405190810160405280939291908181526020018383808284375f92019190915250612ede92505050565b613d34604051806060016040528060218152602001615c0860219139805160209091012090565b6001600160e01b031916846001600160e01b03191603613d8c576138d483838080601f0160208091040260200160405190810160405280939291908181526020018383808284375f92019190915250611d5b92505050565b60408051808201909152600f81526e736574746c654465706f736974282960881b60209091015263aa6137f360e01b6001600160e01b0319851601613dd4576138d487612c66565b60408051808201909152600e81526d736574746c6552656465656d282960901b602090910152635fc2aa1d60e01b6001600160e01b0319851601613e1b576138d487612c66565b604080518082019091526016815275736574746c654465706f7369742875696e743235362960501b6020909101526316d9ad3b60e11b6001600160e01b0319851601613e6a576138d487612c66565b604080518082019091526015815274736574746c6552656465656d2875696e743235362960581b602090910152632cec104d60e11b6001600160e01b0319851601613eb8576138d487612c66565b60408051808201909152601881527f6465706f7369742875696e743235362c61646472657373290000000000000000602090910152636e553f6560e01b6001600160e01b031985161480613f4f57506040805180820190915260208082527f6465706f7369742875696e743235362c616464726573732c6164647265737329910152630b8b4a6160e21b6001600160e01b03198516145b61439457613f7a604051806060016040528060218152602001615ce460219139805160209091012090565b6001600160e01b031916846001600160e01b03191603613fd2576138d483838080601f0160208091040260200160405190810160405280939291908181526020018383808284375f920191909152506121ea92505050565b60408051808201909152601f81527f72656465656d2875696e743235362c616464726573732c6164647265737329006020909101526322fbc4d760e11b6001600160e01b031985160161405d576138d483838080601f0160208091040260200160405190810160405280939291908181526020018383808284375f92019190915250611f8c92505050565b614084604051806060016040528060268152602001615c2960269139805160209091012090565b6001600160e01b031916846001600160e01b031916036140dc576138d483838080601f0160208091040260200160405190810160405280939291908181526020018383808284375f92019190915250611f8c92505050565b614103604051806060016040528060288152602001615b1760289139805160209091012090565b6001600160e01b031916846001600160e01b0319160361415b576138d483838080601f0160208091040260200160405190810160405280939291908181526020018383808284375f920191909152506121ea92505050565b614182604051806060016040528060278152602001615c4f60279139805160209091012090565b6001600160e01b0319858116911614614394576141bc604051806060016040528060248152602001615cc060249139805160209091012090565b6001600160e01b0319858116911614614394576141f6604051806060016040528060218152602001615acc60219139805160209091012090565b6001600160e01b031916846001600160e01b0319160361424e576138d483838080601f0160208091040260200160405190810160405280939291908181526020018383808284375f920191909152506109eb92505050565b6142756040518060600160405280602a8152602001615aed602a9139805160209091012090565b6001600160e01b031916846001600160e01b031916036142cd576138d483838080601f0160208091040260200160405190810160405280939291908181526020018383808284375f920191909152506109eb92505050565b6142f46040518060800160405280604a8152602001615c76604a9139805160209091012090565b6001600160e01b031916846001600160e01b0319160361434c576138d483838080601f0160208091040260200160405190810160405280939291908181526020018383808284375f920191909152506109eb92505050565b60405162461bcd60e51b815260206004820152601960248201527f556e6b6e6f776e2066756e6374696f6e2073656c6563746f7200000000000000604482015260640161150b565b5050505050505050565b600154604051635229073f60e01b81525f916060916001600160a01b0390911690635229073f906143d9908990899089908990600401615913565b5f604051808303815f875af11580156143f4573d5f803e3d5ffd5b505050506040513d5f823e601f3d908101601f1916820160405261441b9190810190615967565b9150915094509492505050565b60408051606080820183528082525f602083015291810191909152614469886001600160a01b03165f908152600c602052604090205460ff16151560011490565b6144ca5760405162461bcd60e51b815260206004820152602c60248201527f73776170416e6456616c6964617465436f77537761703a20436f77205377617060448201526b081b9bdd08195b98589b195960a21b606482015260840161150b565b335f9081526006602052604090205460ff1615156001146145465760405162461bcd60e51b815260206004820152603060248201527f73776170416e6456616c6964617465436f77537761703a2053656e646572206e60448201526f37ba1030b9b9b2ba1036b0b730b3b2b960811b606482015260840161150b565b61454f85612ea1565b6145af5760405162461bcd60e51b815260206004820152602b60248201527f73776170416e6456616c6964617465436f77537761703a20746f6b656e496e2060448201526a1b9bdd08185b1b1bddd95960aa1b606482015260840161150b565b6145b884612ea1565b6146195760405162461bcd60e51b815260206004820152602c60248201527f73776170416e6456616c6964617465436f77537761703a20746f6b656e4f757460448201526b081b9bdd08185b1b1bddd95960a21b606482015260840161150b565b61463f876001600160a01b03165f9081526007602052604090205460ff16151560011490565b6146a05760405162461bcd60e51b815260206004820152602c60248201527f73776170416e6456616c6964617465436f77537761703a20726563656976657260448201526b081b9bdd08185b1b1bddd95960a21b606482015260840161150b565b5f6146af878988888888614991565b90506146bc898983614adf565b9998505050505050505050565b7f9016d09d72d40fdae2fd8ceac6b6234c7706214fd39c1cd1e609a0528c19930080546001600160a01b031981166001600160a01b03848116918217845560405192169182907f8be0079c531659141344cd1fd0a4f28419497f9722a3daafe3b4186f6b6457e0905f90a3505050565b60408051808201909152601981527f7472616e7366657228616464726573732c75696e743235362900000000000000602090910152614798837fa9059cbb2ab09eb219583f4a59a5d0623ade346d962bcd4e46b11da047c9049b6117ac565b604080518082019091526018815277617070726f766528616464726573732c75696e743235362960401b602090910152611ea2837f095ea7b334ae44009aa867bfb386f5c3b4b443ac6f0ee573fa91c4608fbadfba6117ac565b5f816147ff8160146156ae565b101561484d5760405162461bcd60e51b815260206004820152601260248201527f746f416464726573735f6f766572666c6f770000000000000000000000000000604482015260640161150b565b6148588260146156ae565b835110156148a85760405162461bcd60e51b815260206004820152601560248201527f746f416464726573735f6f75744f66426f756e64730000000000000000000000604482015260640161150b565b5001602001516c01000000000000000000000000900490565b6148c9614cb1565b6109eb81614cfa565b5f816148df8160036156ae565b101561492d5760405162461bcd60e51b815260206004820152601160248201527f746f55696e7432345f6f766572666c6f77000000000000000000000000000000604482015260640161150b565b6149388260036156ae565b835110156149885760405162461bcd60e51b815260206004820152601460248201527f746f55696e7432345f6f75744f66426f756e6473000000000000000000000000604482015260640161150b565b50016003015190565b60408051610180810182525f80825260208201819052918101829052606081018290526080810182905260a0810182905260c0810182905260e08101829052610100810182905261012081018290526101408101829052610160810191909152604051806101800160405280866001600160a01b03168152602001856001600160a01b03168152602001876001600160a01b031681526020018481526020018381526020016104b042614a4491906156ae565b63ffffffff1681526020018881526020015f81526020017ff3b277728b3fee749481eb3e0b3b48980dbbab78658fc419025cb16eee34677581526020015f151581526020017f5a28e9363bb942b639270062aa6bb295f434bcdfc42c97267bf003f272060dc981526020017f5a28e9363bb942b639270062aa6bb295f434bcdfc42c97267bf003f272060dc981525090509695505050505050565b60408051606080820183528082525f6020830152918101919091525f8490505f614bb484836001600160a01b031663f698da256040518163ffffffff1660e01b8152600401602060405180830381865afa158015614b3f573d5f803e3d5ffd5b505050506040513d601f19601f82011682018060405250810190614b63919061599e565b601f1990910180517fd5a25ba2e97094ad7d83dc28a6572da797d6b3e7fc6663bd93efb789fc17e48982526101a08220915260405161190160f01b8152600281019290925260228201526042902090565b604080516038808252606082019092529192505f9190602082018180368337019050509050614be98183888860a00151614d02565b427f2c222fa91d81130fe56ee74391b3b6a113851c1f9cd5bc5853108490ccafc78282878860a0015189608001518a60600151604051614c2d9594939291906159b5565b60405180910390a26040518060600160405280828152602001886001600160a01b0316815260200163ec6cb13f60e01b836001604051602401614c71929190615aa8565b60408051601f198184030181529190526020810180516001600160e01b03166001600160e01b031990931692909217909152905293505050509392505050565b7ff0c57e16840df040f15088dc2f81fe391c3923bec73e23a9662efc9c229c6a0054600160401b900460ff16611ef557604051631afcd79f60e31b815260040160405180910390fd5b613283614cb1565b6038845114614d535760405162461bcd60e51b815260206004820152601960248201527f475076323a2075696420627566666572206f766572666c6f7700000000000000604482015260640161150b565b60388401526034830152602090910152565b6001600160a01b03811681146109eb575f80fd5b5f8083601f840112614d89575f80fd5b5081356001600160401b03811115614d9f575f80fd5b602083019150836020828501011115614db6575f80fd5b9250929050565b5f805f60408486031215614dcf575f80fd5b8335614dda81614d65565b925060208401356001600160401b03811115614df4575f80fd5b614e0086828701614d79565b9497909650939450505050565b634e487b7160e01b5f52604160045260245ffd5b604051601f8201601f191681016001600160401b0381118282101715614e4957614e49614e0d565b604052919050565b5f6001600160401b03821115614e6957614e69614e0d565b50601f01601f191660200190565b5f82601f830112614e86575f80fd5b8135614e99614e9482614e51565b614e21565b818152846020838601011115614ead575f80fd5b816020850160208301375f918101602001919091529392505050565b5f60208284031215614ed9575f80fd5b81356001600160401b03811115614eee575f80fd5b614efa84828501614e77565b949350505050565b5f60208284031215614f12575f80fd5b8135614f1d81614d65565b9392505050565b5f8060408385031215614f35575f80fd5b8235614f4081614d65565b915060208301356001600160401b03811115614f5a575f80fd5b614f6685828601614e77565b9150509250929050565b5f805f8060608587031215614f83575f80fd5b8435614f8e81614d65565b935060208501356001600160401b03811115614fa8575f80fd5b614fb487828801614d79565b9598909750949560400135949350505050565b5f805f805f805f60e0888a031215614fdd575f80fd5b8735614fe881614d65565b96506020880135614ff881614d65565b955060408801359450606088013561500f81614d65565b9350608088013561501f81614d65565b9699959850939692959460a0840135945060c09093013592915050565b80356001600160e01b031981168114615053575f80fd5b919050565b5f805f806060858703121561506b575f80fd5b843561507681614d65565b93506150846020860161503c565b925060408501356001600160401b0381111561509e575f80fd5b6150aa87828801614d79565b95989497509550505050565b5f805f80606085870312156150c9575f80fd5b84356150d481614d65565b9350602085013561508481614d65565b5f80604083850312156150f5575f80fd5b823561510081614d65565b915061510e6020840161503c565b90509250929050565b5f81518084528060208401602086015e5f602082860101526020601f19601f83011685010191505092915050565b602081525f614f1d6020830184615117565b5f8060208385031215615168575f80fd5b82356001600160401b0381111561517d575f80fd5b8301601f8101851361518d575f80fd5b80356001600160401b038111156151a2575f80fd5b8560208260051b84010111156151b6575f80fd5b6020919091019590945092505050565b5f602082016020835280845180835260408501915060408160051b8601019250602086015f5b8281101561521d57603f19878603018452615208858351615117565b945060209384019391909101906001016151ec565b50929695505050505050565b80151581146109eb575f80fd5b5f805f60408486031215615248575f80fd5b8335614dda81615229565b81835281816020850137505f828201602090810191909152601f909101601f19169091010190565b6001600160a01b0384168152604060208201525f61529d604083018486615253565b95945050505050565b5f6001600160401b038211156152be576152be614e0d565b5060051b60200190565b5f6152d5614e9484614e51565b90508281528383830111156152e8575f80fd5b8282602083015e5f602084830101529392505050565b5f82601f83011261530d575f80fd5b614f1d838351602085016152c8565b5f6020828403121561532c575f80fd5b81516001600160401b03811115615341575f80fd5b8201601f81018413615351575f80fd5b805161535f614e94826152a6565b8082825260208201915060208360051b850101925086831115615380575f80fd5b602084015b838110156153c05780516001600160401b038111156153a2575f80fd5b6153b1896020838901016152fe565b84525060209283019201615385565b509695505050505050565b634e487b7160e01b5f52603260045260245ffd5b805160208201516001600160e01b0319811691906004821015615416576001600160e01b0319600483900360031b81901b82161692505b5050919050565b634e487b7160e01b5f52601160045260245ffd5b81810381811115611ede57611ede61541d565b805161505381614d65565b5f8060408385031215615460575f80fd5b825161546b81614d65565b6020939093015192949293505050565b5f806040838503121561548c575f80fd5b825160208401519092506001600160401b038111156154a9575f80fd5b614f66858286016152fe565b5f600182016154c6576154c661541d565b5060010190565b6001600160a01b038516815263ffffffff60e01b84166020820152606060408201525f6154fe606083018486615253565b9695505050505050565b5f805f6060848603121561551a575f80fd5b835161552581614d65565b60208501516040860151919450925061553d81614d65565b809150509250925092565b5f805f6060848603121561555a575f80fd5b83516020850151604086015191945092506001600160401b0381111561557e575f80fd5b61558a868287016152fe565b9150509250925092565b5f805f606084860312156155a6575f80fd5b835160208501519093506155b981614d65565b604085015190925061553d81614d65565b5f805f805f60a086880312156155de575f80fd5b85516020870151604088015191965094506001600160401b03811115615602575f80fd5b8601601f81018813615612575f80fd5b8051615620614e94826152a6565b8082825260208201915060208360051b85010192508a831115615641575f80fd5b6020840193505b8284101561566c57835161565b81614d65565b825260209384019390910190615648565b955061567e9250505060608701615444565b60809690960151949793965091949392915050565b5f602082840312156156a3575f80fd5b8151614f1d81614d65565b80820180821115611ede57611ede61541d565b5f80604083850312156156d2575f80fd5b82516156dd81614d65565b60208401519092506156ee81614d65565b809150509250929050565b5f808335601e1984360301811261570e575f80fd5b8301803591506001600160401b03821115615727575f80fd5b602001915036819003821315614db6575f80fd5b818382375f9101908152919050565b5f6020828403121561575a575f80fd5b81516001600160401b0381111561576f575f80fd5b8201601f8101841361577f575f80fd5b614efa848251602084016152c8565b8315158152604060208201525f61529d604083018486615253565b5f805f80608085870312156157bc575f80fd5b84516157c781614d65565b6020860151604087015191955093506157df81614d65565b6060959095015193969295505050565b5f60a082840312156157ff575f80fd5b60405160a081016001600160401b038111828210171561582157615821614e0d565b806040525080915082516001600160401b0381111561583e575f80fd5b61584a858286016152fe565b825250602083015161585b81614d65565b60208201526040838101519082015260608084015190820152608092830151920191909152919050565b5f60208284031215615895575f80fd5b81516001600160401b038111156158aa575f80fd5b614efa848285016157ef565b5f80858511156158c4575f80fd5b838611156158d0575f80fd5b5050820193919092039150565b80356001600160e01b03198116906004841015612c5f576001600160e01b031960049490940360031b84901b1690921692915050565b6001600160a01b0385168152836020820152608060408201525f61593a6080830185615117565b90506002831061595857634e487b7160e01b5f52602160045260245ffd5b82606083015295945050505050565b5f8060408385031215615978575f80fd5b825161598381615229565b60208401519092506001600160401b038111156154a9575f80fd5b5f602082840312156159ae575f80fd5b5051919050565b61020081525f6159c9610200830188615117565b86516001600160a01b03166020840152905060208601516001600160a01b03811660408401525060408601516001600160a01b03811660608401525060608601516080830152608086015160a083015260a0860151615a3060c084018263ffffffff169052565b5060c086015160e083015260e0860151610100830152610100860151610120830152610120860151615a6761014084018215159052565b50610140860151610160830152610160860151610180830152615a936101a083018663ffffffff169052565b6101c08201939093526101e001529392505050565b604081525f615aba6040830185615117565b90508215156020830152939250505056fe64656c65676174655369676e65722828627974657333322c6164647265737329296465706f7369742828627974657333322c627974657333322c627974657333322c75696e7431323829297265717565737457697468647261772875696e743235362c616464726573732c6164647265737329737761704578616374546f6b656e73466f72546f6b656e732875696e743235362c75696e743235362c616464726573735b5d2c616464726573732c75696e7432353629737761704578616374546f6b656e73466f72546f6b656e73537570706f7274696e674665654f6e5472616e73666572546f6b656e732875696e743235362c75696e743235362c616464726573735b5d2c616464726573732c75696e7432353629737570706c7928616464726573732c75696e743235362c616464726573732c75696e74313629776974686472617728616464726573732c75696e743235362c61646472657373297265717565737452656465656d2875696e743235362c616464726573732c6164647265737329726571756573744465706f7369742875696e743235362c616464726573732c616464726573732977697468647261772828627974657333322c627974657333322c627974657333322c75696e743132382c75696e743132382c616464726573732c616464726573732c75696e74363429296d616b655769746864726177526571756573742875696e743235362c616464726573732977697468647261772875696e743235362c616464726573732c6164647265737329617070726f766544656c65676174696f6e28616464726573732c75696e74323536296578616374496e707574282862797465732c616464726573732c75696e743235362c75696e743235362c75696e743235362929666c6173685377617045786163744f75742875696e743235362c75696e743235362c627974657329666c617368537761704578616374496e2875696e743235362c75696e743235362c62797465732965786163744f7574707574282862797465732c616464726573732c75696e743235362c75696e743235362c75696e743235362929a2646970667358221220a77d4c1724c17cfd0ae3d702b4e65ec716d135f498e9a51a03bf1978de0157b964736f6c634300081a0033","linkReferences":{}},"methodIdentifiers":{"_SIGN_COOLDOWN()":"3ffb788e","allowApprovalDestination(address,string)":"98b3cc39","allowAsset(address,string)":"86b6dbe5","allowCallSite(address,bytes4,string)":"5e4ccace","allowDelegationApprovalDestination(address,string)":"63cc17f2","allowReceiver(address,string)":"72e548a9","allowSender(address,string)":"fa2c59c8","allowWithdrawDestination(address,string)":"5ace1d92","allowedApprovalDestinations(address)":"eb0de042","allowedAssets(address)":"a4c1cccb","allowedCallSites(address,bytes4)":"a847cf4d","allowedCowSwaps(address)":"47566064","allowedDelegationApprovalDestinations(address)":"4b941268","allowedLagoonVaults(address)":"8fb4dff2","allowedReceivers(address)":"3cf20025","allowedSenders(address)":"fadbcf48","allowedTargets(address)":"b8fe8d5f","allowedWithdrawDestinations(address)":"07ef00cf","anyAsset()":"87301608","avatar()":"5aef7de6","callSiteCount()":"a9fc3d4f","getGovernanceAddress()":"73252494","getInternalVersion()":"fdedfa27","getTradingStrategyModuleVersion()":"9e4a83cf","isAllowedApprovalDestination(address)":"1d49039c","isAllowedAsset(address)":"c537bed0","isAllowedCallSite(address,bytes4)":"713ebf3b","isAllowedCowSwap(address)":"333f22e8","isAllowedDelegationApprovalDestination(address)":"2dc32a61","isAllowedLagoonVault(address)":"6fd7fdef","isAllowedReceiver(address)":"d075f9bb","isAllowedSender(address)":"be8c97b0","isAllowedTarget(address)":"78addb48","isAllowedWithdrawDestination(address)":"efb47bff","multicall(bytes[])":"ac9650d8","owner()":"8da5cb5b","performCall(address,bytes)":"d2f73e3d","performCall(address,bytes,uint256)":"486295dc","removeApprovalDestination(address,string)":"04a3ba25","removeAsset(address,string)":"f901dc33","removeCallSite(address,bytes4,string)":"d7334c9d","removeDelegationApprovalDestination(address,string)":"f259a073","removeReceiver(address,string)":"2d12d788","removeSender(address,string)":"a67e1f54","removeWithdrawDestination(address,string)":"8c2fdf9e","renounceOwnership()":"715018a6","setAnyAssetAllowed(bool,string)":"c2e657ae","setAvatar(address)":"086cfca8","setTarget(address)":"776d1a01","setUp(bytes)":"a4f9edbf","swapAndValidateCowSwap(address,address,bytes32,address,address,uint256,uint256)":"4acf884d","target()":"d4b83992","transferOwnership(address)":"f2fde38b","validate1deltaPath(bytes)":"a1b6b430","validateCall(address,address,bytes)":"6d5025f1","validateUniswapV3Path(bytes)":"1c123e77","validate_1deltaDeposit(bytes)":"c4cc9dba","validate_1deltaMulticall(bytes)":"07ac3562","validate_1deltaWithdraw(bytes)":"f76081e4","validate_ERC4626Deposit(address,bytes)":"2c02cda0","validate_ERC4626Redeem(bytes)":"742bfc7e","validate_ERC4626Withdraw(bytes)":"78065086","validate_aaveSupply(bytes)":"d4c0fe45","validate_aaveWithdraw(bytes)":"6a6d5cc8","validate_approve(bytes)":"4b956bd8","validate_approveDelegation(bytes)":"957dc6c0","validate_cowSwapSettlement(bytes)":"adcfa55b","validate_exactInput(bytes)":"ebe26816","validate_exactOutput(bytes)":"e98539c5","validate_flashSwapAllOut(bytes)":"425f49d0","validate_flashSwapExactInt(bytes)":"ca963c50","validate_flashSwapExactOut(bytes)":"6ad11353","validate_lagoonSettle(address)":"b3c329cb","validate_orderlyDelegateSigner(bytes)":"d718f041","validate_orderlyDeposit(bytes)":"6d5176a6","validate_orderlyWithdraw(bytes)":"912ef02d","validate_swapExactTokensForTokens(bytes)":"761bcd9c","validate_transfer(bytes)":"1710a4f2","validate_transferERC20AllIn(bytes)":"7ea44655","validate_transferERC20In(bytes)":"59b92be9","whitelistAaveV3(address,string)":"f20e85e0","whitelistCowSwap(address,string)":"c0f96f24","whitelistERC4626(address,string)":"86a6ae15","whitelistLagoon(address,string)":"5e6afe4d","whitelistOnedelta(address,address,string)":"f26749f3","whitelistOrderly(address,string)":"db17a170","whitelistToken(address,string)":"ee5462cc","whitelistTokenForDelegation(address,string)":"6d9a1423","whitelistUniswapV2Router(address,string)":"3ea35551","whitelistUniswapV3Router(address,string)":"34ec8d7e"},"id":27}