{"abi":[{"type":"constructor","inputs":[{"name":"_owner","type":"address","internalType":"address"},{"name":"_target","type":"address","internalType":"address"}],"stateMutability":"nonpayable"},{"type":"function","name":"_SIGN_COOLDOWN","inputs":[],"outputs":[{"name":"","type":"uint256","internalType":"uint256"}],"stateMutability":"view"},{"type":"function","name":"allowApprovalDestination","inputs":[{"name":"destination","type":"address","internalType":"address"},{"name":"notes","type":"string","internalType":"string"}],"outputs":[],"stateMutability":"nonpayable"},{"type":"function","name":"allowAsset","inputs":[{"name":"asset","type":"address","internalType":"address"},{"name":"notes","type":"string","internalType":"string"}],"outputs":[],"stateMutability":"nonpayable"},{"type":"function","name":"allowCallSite","inputs":[{"name":"target","type":"address","internalType":"address"},{"name":"selector","type":"bytes4","internalType":"bytes4"},{"name":"notes","type":"string","internalType":"string"}],"outputs":[],"stateMutability":"nonpayable"},{"type":"function","name":"allowDelegationApprovalDestination","inputs":[{"name":"destination","type":"address","internalType":"address"},{"name":"notes","type":"string","internalType":"string"}],"outputs":[],"stateMutability":"nonpayable"},{"type":"function","name":"allowReceiver","inputs":[{"name":"receiver","type":"address","internalType":"address"},{"name":"notes","type":"string","internalType":"string"}],"outputs":[],"stateMutability":"nonpayable"},{"type":"function","name":"allowSender","inputs":[{"name":"sender","type":"address","internalType":"address"},{"name":"notes","type":"string","internalType":"string"}],"outputs":[],"stateMutability":"nonpayable"},{"type":"function","name":"allowWithdrawDestination","inputs":[{"name":"destination","type":"address","internalType":"address"},{"name":"notes","type":"string","internalType":"string"}],"outputs":[],"stateMutability":"nonpayable"},{"type":"function","name":"allowedApprovalDestinations","inputs":[{"name":"destination","type":"address","internalType":"address"}],"outputs":[{"name":"allowed","type":"bool","internalType":"bool"}],"stateMutability":"view"},{"type":"function","name":"allowedAssets","inputs":[{"name":"token","type":"address","internalType":"address"}],"outputs":[{"name":"allowed","type":"bool","internalType":"bool"}],"stateMutability":"view"},{"type":"function","name":"allowedCallSites","inputs":[{"name":"target","type":"address","internalType":"address"},{"name":"selector","type":"bytes4","internalType":"bytes4"}],"outputs":[{"name":"allowed","type":"bool","internalType":"bool"}],"stateMutability":"view"},{"type":"function","name":"allowedCowSwaps","inputs":[{"name":"destination","type":"address","internalType":"address"}],"outputs":[{"name":"allowed","type":"bool","internalType":"bool"}],"stateMutability":"view"},{"type":"function","name":"allowedDelegationApprovalDestinations","inputs":[{"name":"destination","type":"address","internalType":"address"}],"outputs":[{"name":"allowed","type":"bool","internalType":"bool"}],"stateMutability":"view"},{"type":"function","name":"allowedLagoonVaults","inputs":[{"name":"destination","type":"address","internalType":"address"}],"outputs":[{"name":"allowed","type":"bool","internalType":"bool"}],"stateMutability":"view"},{"type":"function","name":"allowedReceivers","inputs":[{"name":"receiver","type":"address","internalType":"address"}],"outputs":[{"name":"allowed","type":"bool","internalType":"bool"}],"stateMutability":"view"},{"type":"function","name":"allowedSenders","inputs":[{"name":"sender","type":"address","internalType":"address"}],"outputs":[{"name":"allowed","type":"bool","internalType":"bool"}],"stateMutability":"view"},{"type":"function","name":"allowedTargets","inputs":[{"name":"target","type":"address","internalType":"address"}],"outputs":[{"name":"allowed","type":"bool","internalType":"bool"}],"stateMutability":"view"},{"type":"function","name":"allowedWithdrawDestinations","inputs":[{"name":"destination","type":"address","internalType":"address"}],"outputs":[{"name":"allowed","type":"bool","internalType":"bool"}],"stateMutability":"view"},{"type":"function","name":"anyAsset","inputs":[],"outputs":[{"name":"","type":"bool","internalType":"bool"}],"stateMutability":"view"},{"type":"function","name":"avatar","inputs":[],"outputs":[{"name":"","type":"address","internalType":"address"}],"stateMutability":"view"},{"type":"function","name":"callSiteCount","inputs":[],"outputs":[{"name":"","type":"uint256","internalType":"uint256"}],"stateMutability":"view"},{"type":"function","name":"getGovernanceAddress","inputs":[],"outputs":[{"name":"","type":"address","internalType":"address"}],"stateMutability":"view"},{"type":"function","name":"getInternalVersion","inputs":[],"outputs":[{"name":"","type":"uint8","internalType":"uint8"}],"stateMutability":"pure"},{"type":"function","name":"getTradingStrategyModuleVersion","inputs":[],"outputs":[{"name":"","type":"string","internalType":"string"}],"stateMutability":"pure"},{"type":"function","name":"isAllowedApprovalDestination","inputs":[{"name":"receiver","type":"address","internalType":"address"}],"outputs":[{"name":"","type":"bool","internalType":"bool"}],"stateMutability":"view"},{"type":"function","name":"isAllowedAsset","inputs":[{"name":"token","type":"address","internalType":"address"}],"outputs":[{"name":"","type":"bool","internalType":"bool"}],"stateMutability":"view"},{"type":"function","name":"isAllowedCallSite","inputs":[{"name":"target","type":"address","internalType":"address"},{"name":"selector","type":"bytes4","internalType":"bytes4"}],"outputs":[{"name":"","type":"bool","internalType":"bool"}],"stateMutability":"view"},{"type":"function","name":"isAllowedCowSwap","inputs":[{"name":"settlement","type":"address","internalType":"address"}],"outputs":[{"name":"","type":"bool","internalType":"bool"}],"stateMutability":"view"},{"type":"function","name":"isAllowedDelegationApprovalDestination","inputs":[{"name":"receiver","type":"address","internalType":"address"}],"outputs":[{"name":"","type":"bool","internalType":"bool"}],"stateMutability":"view"},{"type":"function","name":"isAllowedLagoonVault","inputs":[{"name":"vault","type":"address","internalType":"address"}],"outputs":[{"name":"","type":"bool","internalType":"bool"}],"stateMutability":"view"},{"type":"function","name":"isAllowedReceiver","inputs":[{"name":"receiver","type":"address","internalType":"address"}],"outputs":[{"name":"","type":"bool","internalType":"bool"}],"stateMutability":"view"},{"type":"function","name":"isAllowedSender","inputs":[{"name":"sender","type":"address","internalType":"address"}],"outputs":[{"name":"","type":"bool","internalType":"bool"}],"stateMutability":"view"},{"type":"function","name":"isAllowedTarget","inputs":[{"name":"target","type":"address","internalType":"address"}],"outputs":[{"name":"","type":"bool","internalType":"bool"}],"stateMutability":"view"},{"type":"function","name":"isAllowedWithdrawDestination","inputs":[{"name":"receiver","type":"address","internalType":"address"}],"outputs":[{"name":"","type":"bool","internalType":"bool"}],"stateMutability":"view"},{"type":"function","name":"multicall","inputs":[{"name":"data","type":"bytes[]","internalType":"bytes[]"}],"outputs":[{"name":"results","type":"bytes[]","internalType":"bytes[]"}],"stateMutability":"payable"},{"type":"function","name":"owner","inputs":[],"outputs":[{"name":"","type":"address","internalType":"address"}],"stateMutability":"view"},{"type":"function","name":"performCall","inputs":[{"name":"target","type":"address","internalType":"address"},{"name":"callData","type":"bytes","internalType":"bytes"},{"name":"value","type":"uint256","internalType":"uint256"}],"outputs":[],"stateMutability":"nonpayable"},{"type":"function","name":"performCall","inputs":[{"name":"target","type":"address","internalType":"address"},{"name":"callData","type":"bytes","internalType":"bytes"}],"outputs":[],"stateMutability":"nonpayable"},{"type":"function","name":"removeApprovalDestination","inputs":[{"name":"destination","type":"address","internalType":"address"},{"name":"notes","type":"string","internalType":"string"}],"outputs":[],"stateMutability":"nonpayable"},{"type":"function","name":"removeAsset","inputs":[{"name":"asset","type":"address","internalType":"address"},{"name":"notes","type":"string","internalType":"string"}],"outputs":[],"stateMutability":"nonpayable"},{"type":"function","name":"removeCallSite","inputs":[{"name":"target","type":"address","internalType":"address"},{"name":"selector","type":"bytes4","internalType":"bytes4"},{"name":"notes","type":"string","internalType":"string"}],"outputs":[],"stateMutability":"nonpayable"},{"type":"function","name":"removeDelegationApprovalDestination","inputs":[{"name":"destination","type":"address","internalType":"address"},{"name":"notes","type":"string","internalType":"string"}],"outputs":[],"stateMutability":"nonpayable"},{"type":"function","name":"removeReceiver","inputs":[{"name":"receiver","type":"address","internalType":"address"},{"name":"notes","type":"string","internalType":"string"}],"outputs":[],"stateMutability":"nonpayable"},{"type":"function","name":"removeSender","inputs":[{"name":"sender","type":"address","internalType":"address"},{"name":"notes","type":"string","internalType":"string"}],"outputs":[],"stateMutability":"nonpayable"},{"type":"function","name":"removeWithdrawDestination","inputs":[{"name":"destination","type":"address","internalType":"address"},{"name":"notes","type":"string","internalType":"string"}],"outputs":[],"stateMutability":"nonpayable"},{"type":"function","name":"renounceOwnership","inputs":[],"outputs":[],"stateMutability":"nonpayable"},{"type":"function","name":"setAnyAssetAllowed","inputs":[{"name":"value","type":"bool","internalType":"bool"},{"name":"notes","type":"string","internalType":"string"}],"outputs":[],"stateMutability":"nonpayable"},{"type":"function","name":"setAvatar","inputs":[{"name":"_avatar","type":"address","internalType":"address"}],"outputs":[],"stateMutability":"nonpayable"},{"type":"function","name":"setTarget","inputs":[{"name":"_target","type":"address","internalType":"address"}],"outputs":[],"stateMutability":"nonpayable"},{"type":"function","name":"setUp","inputs":[{"name":"initializeParams","type":"bytes","internalType":"bytes"}],"outputs":[],"stateMutability":"nonpayable"},{"type":"function","name":"swapAndValidateCowSwap","inputs":[{"name":"settlementContract","type":"address","internalType":"address"},{"name":"receiver","type":"address","internalType":"address"},{"name":"appData","type":"bytes32","internalType":"bytes32"},{"name":"tokenIn","type":"address","internalType":"address"},{"name":"tokenOut","type":"address","internalType":"address"},{"name":"amountIn","type":"uint256","internalType":"uint256"},{"name":"minAmountOut","type":"uint256","internalType":"uint256"}],"outputs":[],"stateMutability":"nonpayable"},{"type":"function","name":"target","inputs":[],"outputs":[{"name":"","type":"address","internalType":"address"}],"stateMutability":"view"},{"type":"function","name":"transferOwnership","inputs":[{"name":"newOwner","type":"address","internalType":"address"}],"outputs":[],"stateMutability":"nonpayable"},{"type":"function","name":"validate1deltaPath","inputs":[{"name":"path","type":"bytes","internalType":"bytes"}],"outputs":[],"stateMutability":"view"},{"type":"function","name":"validateCall","inputs":[{"name":"sender","type":"address","internalType":"address"},{"name":"target","type":"address","internalType":"address"},{"name":"callDataWithSelector","type":"bytes","internalType":"bytes"}],"outputs":[],"stateMutability":"view"},{"type":"function","name":"validateUniswapV3Path","inputs":[{"name":"path","type":"bytes","internalType":"bytes"}],"outputs":[],"stateMutability":"view"},{"type":"function","name":"validate_1deltaDeposit","inputs":[{"name":"callData","type":"bytes","internalType":"bytes"}],"outputs":[],"stateMutability":"view"},{"type":"function","name":"validate_1deltaMulticall","inputs":[{"name":"callData","type":"bytes","internalType":"bytes"}],"outputs":[],"stateMutability":"view"},{"type":"function","name":"validate_1deltaWithdraw","inputs":[{"name":"callData","type":"bytes","internalType":"bytes"}],"outputs":[],"stateMutability":"view"},{"type":"function","name":"validate_ERC4626Deposit","inputs":[{"name":"target","type":"address","internalType":"address"},{"name":"callData","type":"bytes","internalType":"bytes"}],"outputs":[],"stateMutability":"view"},{"type":"function","name":"validate_ERC4626Redeem","inputs":[{"name":"callData","type":"bytes","internalType":"bytes"}],"outputs":[],"stateMutability":"view"},{"type":"function","name":"validate_ERC4626Withdraw","inputs":[{"name":"callData","type":"bytes","internalType":"bytes"}],"outputs":[],"stateMutability":"view"},{"type":"function","name":"validate_aaveSupply","inputs":[{"name":"callData","type":"bytes","internalType":"bytes"}],"outputs":[],"stateMutability":"view"},{"type":"function","name":"validate_aaveWithdraw","inputs":[{"name":"callData","type":"bytes","internalType":"bytes"}],"outputs":[],"stateMutability":"view"},{"type":"function","name":"validate_approve","inputs":[{"name":"callData","type":"bytes","internalType":"bytes"}],"outputs":[],"stateMutability":"view"},{"type":"function","name":"validate_approveDelegation","inputs":[{"name":"callData","type":"bytes","internalType":"bytes"}],"outputs":[],"stateMutability":"view"},{"type":"function","name":"validate_cowSwapSettlement","inputs":[{"name":"callData","type":"bytes","internalType":"bytes"}],"outputs":[],"stateMutability":"view"},{"type":"function","name":"validate_exactInput","inputs":[{"name":"callData","type":"bytes","internalType":"bytes"}],"outputs":[],"stateMutability":"view"},{"type":"function","name":"validate_exactOutput","inputs":[{"name":"callData","type":"bytes","internalType":"bytes"}],"outputs":[],"stateMutability":"view"},{"type":"function","name":"validate_flashSwapAllOut","inputs":[{"name":"callData","type":"bytes","internalType":"bytes"}],"outputs":[],"stateMutability":"view"},{"type":"function","name":"validate_flashSwapExactInt","inputs":[{"name":"callData","type":"bytes","internalType":"bytes"}],"outputs":[],"stateMutability":"view"},{"type":"function","name":"validate_flashSwapExactOut","inputs":[{"name":"callData","type":"bytes","internalType":"bytes"}],"outputs":[],"stateMutability":"view"},{"type":"function","name":"validate_lagoonSettle","inputs":[{"name":"vault","type":"address","internalType":"address"}],"outputs":[],"stateMutability":"view"},{"type":"function","name":"validate_orderlyDelegateSigner","inputs":[{"name":"callData","type":"bytes","internalType":"bytes"}],"outputs":[],"stateMutability":"view"},{"type":"function","name":"validate_orderlyDeposit","inputs":[{"name":"callData","type":"bytes","internalType":"bytes"}],"outputs":[],"stateMutability":"view"},{"type":"function","name":"validate_orderlyWithdraw","inputs":[{"name":"callData","type":"bytes","internalType":"bytes"}],"outputs":[],"stateMutability":"view"},{"type":"function","name":"validate_swapExactTokensForTokens","inputs":[{"name":"callData","type":"bytes","internalType":"bytes"}],"outputs":[],"stateMutability":"view"},{"type":"function","name":"validate_transfer","inputs":[{"name":"callData","type":"bytes","internalType":"bytes"}],"outputs":[],"stateMutability":"view"},{"type":"function","name":"validate_transferERC20AllIn","inputs":[{"name":"callData","type":"bytes","internalType":"bytes"}],"outputs":[],"stateMutability":"view"},{"type":"function","name":"validate_transferERC20In","inputs":[{"name":"callData","type":"bytes","internalType":"bytes"}],"outputs":[],"stateMutability":"view"},{"type":"function","name":"whitelistAaveV3","inputs":[{"name":"lendingPool","type":"address","internalType":"address"},{"name":"notes","type":"string","internalType":"string"}],"outputs":[],"stateMutability":"nonpayable"},{"type":"function","name":"whitelistCowSwap","inputs":[{"name":"settlementContract","type":"address","internalType":"address"},{"name":"relayerContract","type":"address","internalType":"address"},{"name":"notes","type":"string","internalType":"string"}],"outputs":[],"stateMutability":"nonpayable"},{"type":"function","name":"whitelistERC4626","inputs":[{"name":"vault","type":"address","internalType":"address"},{"name":"notes","type":"string","internalType":"string"}],"outputs":[],"stateMutability":"nonpayable"},{"type":"function","name":"whitelistLagoon","inputs":[{"name":"vault","type":"address","internalType":"address"},{"name":"notes","type":"string","internalType":"string"}],"outputs":[],"stateMutability":"nonpayable"},{"type":"function","name":"whitelistOnedelta","inputs":[{"name":"brokerProxy","type":"address","internalType":"address"},{"name":"lendingPool","type":"address","internalType":"address"},{"name":"notes","type":"string","internalType":"string"}],"outputs":[],"stateMutability":"nonpayable"},{"type":"function","name":"whitelistOrderly","inputs":[{"name":"orderlyVault","type":"address","internalType":"address"},{"name":"notes","type":"string","internalType":"string"}],"outputs":[],"stateMutability":"nonpayable"},{"type":"function","name":"whitelistToken","inputs":[{"name":"token","type":"address","internalType":"address"},{"name":"notes","type":"string","internalType":"string"}],"outputs":[],"stateMutability":"nonpayable"},{"type":"function","name":"whitelistTokenForDelegation","inputs":[{"name":"token","type":"address","internalType":"address"},{"name":"notes","type":"string","internalType":"string"}],"outputs":[],"stateMutability":"nonpayable"},{"type":"function","name":"whitelistUniswapV2Router","inputs":[{"name":"router","type":"address","internalType":"address"},{"name":"notes","type":"string","internalType":"string"}],"outputs":[],"stateMutability":"nonpayable"},{"type":"function","name":"whitelistUniswapV3Router","inputs":[{"name":"router","type":"address","internalType":"address"},{"name":"notes","type":"string","internalType":"string"}],"outputs":[],"stateMutability":"nonpayable"},{"type":"event","name":"AnyAssetSet","inputs":[{"name":"value","type":"bool","indexed":false,"internalType":"bool"},{"name":"notes","type":"string","indexed":false,"internalType":"string"}],"anonymous":false},{"type":"event","name":"AnyVaultSet","inputs":[{"name":"value","type":"bool","indexed":false,"internalType":"bool"},{"name":"notes","type":"string","indexed":false,"internalType":"string"}],"anonymous":false},{"type":"event","name":"ApprovalDestinationApproved","inputs":[{"name":"sender","type":"address","indexed":false,"internalType":"address"},{"name":"notes","type":"string","indexed":false,"internalType":"string"}],"anonymous":false},{"type":"event","name":"ApprovalDestinationRemoved","inputs":[{"name":"sender","type":"address","indexed":false,"internalType":"address"},{"name":"notes","type":"string","indexed":false,"internalType":"string"}],"anonymous":false},{"type":"event","name":"AssetApproved","inputs":[{"name":"sender","type":"address","indexed":false,"internalType":"address"},{"name":"notes","type":"string","indexed":false,"internalType":"string"}],"anonymous":false},{"type":"event","name":"AssetRemoved","inputs":[{"name":"sender","type":"address","indexed":false,"internalType":"address"},{"name":"notes","type":"string","indexed":false,"internalType":"string"}],"anonymous":false},{"type":"event","name":"AvatarSet","inputs":[{"name":"previousAvatar","type":"address","indexed":true,"internalType":"address"},{"name":"newAvatar","type":"address","indexed":true,"internalType":"address"}],"anonymous":false},{"type":"event","name":"CallSiteApproved","inputs":[{"name":"target","type":"address","indexed":false,"internalType":"address"},{"name":"selector","type":"bytes4","indexed":false,"internalType":"bytes4"},{"name":"notes","type":"string","indexed":false,"internalType":"string"}],"anonymous":false},{"type":"event","name":"CallSiteRemoved","inputs":[{"name":"target","type":"address","indexed":false,"internalType":"address"},{"name":"selector","type":"bytes4","indexed":false,"internalType":"bytes4"},{"name":"notes","type":"string","indexed":false,"internalType":"string"}],"anonymous":false},{"type":"event","name":"CowSwapApproved","inputs":[{"name":"settlementContract","type":"address","indexed":false,"internalType":"address"},{"name":"notes","type":"string","indexed":false,"internalType":"string"}],"anonymous":false},{"type":"event","name":"DelegationApprovalDestinationApproved","inputs":[{"name":"sender","type":"address","indexed":false,"internalType":"address"},{"name":"notes","type":"string","indexed":false,"internalType":"string"}],"anonymous":false},{"type":"event","name":"DelegationApprovalDestinationRemoved","inputs":[{"name":"sender","type":"address","indexed":false,"internalType":"address"},{"name":"notes","type":"string","indexed":false,"internalType":"string"}],"anonymous":false},{"type":"event","name":"ERC4626Approved","inputs":[{"name":"vault","type":"address","indexed":false,"internalType":"address"},{"name":"notes","type":"string","indexed":false,"internalType":"string"}],"anonymous":false},{"type":"event","name":"Initialized","inputs":[{"name":"version","type":"uint64","indexed":false,"internalType":"uint64"}],"anonymous":false},{"type":"event","name":"LagoonVaultApproved","inputs":[{"name":"vault","type":"address","indexed":false,"internalType":"address"},{"name":"notes","type":"string","indexed":false,"internalType":"string"}],"anonymous":false},{"type":"event","name":"OrderSigned","inputs":[{"name":"timestamp","type":"uint256","indexed":true,"internalType":"uint256"},{"name":"orderUid","type":"bytes","indexed":false,"internalType":"bytes"},{"name":"order","type":"tuple","indexed":false,"internalType":"struct GPv2Order.Data","components":[{"name":"sellToken","type":"address","internalType":"contract IERC20"},{"name":"buyToken","type":"address","internalType":"contract IERC20"},{"name":"receiver","type":"address","internalType":"address"},{"name":"sellAmount","type":"uint256","internalType":"uint256"},{"name":"buyAmount","type":"uint256","internalType":"uint256"},{"name":"validTo","type":"uint32","internalType":"uint32"},{"name":"appData","type":"bytes32","internalType":"bytes32"},{"name":"feeAmount","type":"uint256","internalType":"uint256"},{"name":"kind","type":"bytes32","internalType":"bytes32"},{"name":"partiallyFillable","type":"bool","internalType":"bool"},{"name":"sellTokenBalance","type":"bytes32","internalType":"bytes32"},{"name":"buyTokenBalance","type":"bytes32","internalType":"bytes32"}]},{"name":"validTo","type":"uint32","indexed":false,"internalType":"uint32"},{"name":"buyAmount","type":"uint256","indexed":false,"internalType":"uint256"},{"name":"sellAmount","type":"uint256","indexed":false,"internalType":"uint256"}],"anonymous":false},{"type":"event","name":"OwnershipTransferred","inputs":[{"name":"previousOwner","type":"address","indexed":true,"internalType":"address"},{"name":"newOwner","type":"address","indexed":true,"internalType":"address"}],"anonymous":false},{"type":"event","name":"ReceiverApproved","inputs":[{"name":"sender","type":"address","indexed":false,"internalType":"address"},{"name":"notes","type":"string","indexed":false,"internalType":"string"}],"anonymous":false},{"type":"event","name":"ReceiverRemoved","inputs":[{"name":"sender","type":"address","indexed":false,"internalType":"address"},{"name":"notes","type":"string","indexed":false,"internalType":"string"}],"anonymous":false},{"type":"event","name":"SenderApproved","inputs":[{"name":"sender","type":"address","indexed":false,"internalType":"address"},{"name":"notes","type":"string","indexed":false,"internalType":"string"}],"anonymous":false},{"type":"event","name":"SenderRemoved","inputs":[{"name":"sender","type":"address","indexed":false,"internalType":"address"},{"name":"notes","type":"string","indexed":false,"internalType":"string"}],"anonymous":false},{"type":"event","name":"TargetSet","inputs":[{"name":"previousTarget","type":"address","indexed":true,"internalType":"address"},{"name":"newTarget","type":"address","indexed":true,"internalType":"address"}],"anonymous":false},{"type":"event","name":"WithdrawDestinationApproved","inputs":[{"name":"sender","type":"address","indexed":false,"internalType":"address"},{"name":"notes","type":"string","indexed":false,"internalType":"string"}],"anonymous":false},{"type":"event","name":"WithdrawDestinationRemoved","inputs":[{"name":"sender","type":"address","indexed":false,"internalType":"address"},{"name":"notes","type":"string","indexed":false,"internalType":"string"}],"anonymous":false},{"type":"error","name":"InvalidInitialization","inputs":[]},{"type":"error","name":"NotInitializing","inputs":[]},{"type":"error","name":"OwnableInvalidOwner","inputs":[{"name":"owner","type":"address","internalType":"address"}]},{"type":"error","name":"OwnableUnauthorizedAccount","inputs":[{"name":"account","type":"address","internalType":"address"}]}],"bytecode":{"object":"0x608060405234801561000f575f80fd5b5060405161630238038061630283398101604081905261002e916103f1565b604080516001600160a01b03848116602083015283168183015281518082038301815260609091019091526100628161006a565b505050610429565b7ff0c57e16840df040f15088dc2f81fe391c3923bec73e23a9662efc9c229c6a00805468010000000000000000810460ff1615906001600160401b03165f811580156100b35750825b90505f826001600160401b031660011480156100ce5750303b155b9050811580156100dc575080155b156100fa5760405163f92ee8a960e01b815260040160405180910390fd5b84546001600160401b0319166001178555831561012857845460ff60401b1916680100000000000000001785555b610131336101b7565b5f808780602001905181019061014791906103f1565b9092509050610155816101cb565b61015e81610222565b6101678261027b565b505083156101af57845460ff60401b19168555604051600181527fc7f505b2f371ae2175ee4913f4499e1f2633a7b5936321eed1cdaeb6115181d29060200160405180910390a15b505050505050565b6101bf6102ba565b6101c88161030a565b50565b6101d3610312565b5f80546001600160a01b038381166001600160a01b0319831681178455604051919092169283917f52ae88b092de36f87fb43fe794eb1381023b9c1bce563a871154022c63dce3429190a35050565b61022a610312565b600180546001600160a01b038381166001600160a01b0319831681179093556040519116919082907f90cc2f570a6eb594b1580ea3e41247d2d73a55281889e86bd4ec2fc29c7e62d6905f90a35050565b610283610312565b6001600160a01b0381166102b157604051631e4fbdf760e01b81525f60048201526024015b60405180910390fd5b6101c88161036d565b7ff0c57e16840df040f15088dc2f81fe391c3923bec73e23a9662efc9c229c6a005468010000000000000000900460ff1661030857604051631afcd79f60e31b815260040160405180910390fd5b565b6102836102ba565b336103447f9016d09d72d40fdae2fd8ceac6b6234c7706214fd39c1cd1e609a0528c199300546001600160a01b031690565b6001600160a01b0316146103085760405163118cdaa760e01b81523360048201526024016102a8565b7f9016d09d72d40fdae2fd8ceac6b6234c7706214fd39c1cd1e609a0528c19930080546001600160a01b031981166001600160a01b03848116918217845560405192169182907f8be0079c531659141344cd1fd0a4f28419497f9722a3daafe3b4186f6b6457e0905f90a3505050565b6001600160a01b03811681146101c8575f80fd5b5f8060408385031215610402575f80fd5b825161040d816103dd565b602084015190925061041e816103dd565b809150509250929050565b615ecc806104365f395ff3fe608060405260043610610567575f3560e01c806386b6dbe5116102c3578063c537bed011610182578063ebe26816116100e7578063f2fde38b11610092578063fa2c59c81161006d578063fa2c59c81461110f578063fadbcf481461112e578063fdedfa271461115c575f80fd5b8063f2fde38b146110b2578063f76081e4146110d1578063f901dc33146110f0575f80fd5b8063f20e85e0116100c2578063f20e85e014611074578063f259a0731461056b578063f26749f314611093575f80fd5b8063ebe2681614610ffa578063ee5462cc14611019578063efb47bff14611038575f80fd5b8063d4c0fe4511610147578063db17a17011610122578063db17a17014610f8e578063e98539c514610fad578063eb0de04214610fcc575f80fd5b8063d4c0fe4514610f50578063d718f041146109f0578063d7334c9d14610f6f575f80fd5b8063c537bed014610eb7578063ca963c50146109b2578063d075f9bb14610ed6578063d2f73e3d14610f12578063d4b8399214610f31575f80fd5b8063a4f9edbf11610228578063adcfa55b116101ed578063be8c97b0116101c8578063be8c97b014610e3d578063c2e657ae14610e79578063c4cc9dba14610e98575f80fd5b8063adcfa55b14610b2b578063b3c329cb14610df0578063b8fe8d5f14610e0f575f80fd5b8063a4f9edbf14610d44578063a67e1f5414610d63578063a847cf4d14610d82578063a9fc3d4f14610dbb578063ac9650d814610dd0575f80fd5b8063912ef02d116102885780639e4a83cf116102635780639e4a83cf14610cc3578063a1b6b43014610cf7578063a4c1cccb14610d16575f80fd5b8063912ef02d146109f0578063957dc6c014610c8557806398b3cc3914610ca4575f80fd5b806386b6dbe514610bc45780638730160814610be35780638c2fdf9e14610bfc5780638da5cb5b14610c1b5780638fb4dff214610c57575f80fd5b806359b92be9116104295780636fd7fdef1161038e578063761bcd9c1161033957806378addb481161031457806378addb4814610b4a5780637ea4465514610b8657806386a6ae1514610ba5575f80fd5b8063761bcd9c14610aed578063776d1a0114610b0c5780637806508614610b2b575f80fd5b806372e548a91161036957806372e548a914610a9b5780637325249414610aba578063742bfc7e14610ace575f80fd5b80636fd7fdef14610a2c578063713ebf3b14610a68578063715018a614610a87575f80fd5b806363cc17f2116103ee5780636d5025f1116103c95780636d5025f1146109d15780636d5176a6146109f05780636d9a142314610a0d575f80fd5b806363cc17f2146109745780636a6d5cc8146109935780636ad11353146109b2575f80fd5b806359b92be9146108c25780635ace1d92146108e15780635aef7de6146109005780635e4ccace146109365780635e6afe4d14610955575f80fd5b8063333f22e8116104cf578063425f49d0116104945780634acf884d1161046f5780634acf884d146108565780634b941268146108755780634b956bd8146108a3575f80fd5b8063425f49d0146107ea5780634756606414610809578063486295dc14610837575f80fd5b8063333f22e81461071f57806334ec8d7e1461075b5780633cf200251461077a5780633ea35551146107a85780633ffb788e146107c7575f80fd5b80631710a4f21161052f5780632c02cda01161050a5780632c02cda0146106a65780632d12d788146106c45780632dc32a61146106e3575f80fd5b80631710a4f21461062c5780631c123e771461064b5780631d49039c1461066a575f80fd5b806304a3ba251461056b57806307ac35621461058c57806307ef00cf146105ab578063086cfca8146105ee5780631047789e1461060d575b5f80fd5b348015610576575f80fd5b5061058a610585366004614e50565b611177565b005b348015610597575f80fd5b5061058a6105a6366004614f5c565b6111df565b3480156105b6575f80fd5b506105d96105c5366004614f95565b60086020525f908152604090205460ff1681565b60405190151581526020015b60405180910390f35b3480156105f9575f80fd5b5061058a610608366004614f95565b611524565b348015610618575f80fd5b5061058a610627366004614fb7565b61157b565b348015610637575f80fd5b5061058a610646366004614f5c565b6115f5565b348015610656575f80fd5b5061058a610665366004614f5c565b6116a5565b348015610675575f80fd5b506105d9610684366004614f95565b6001600160a01b03165f9081526009602052604090205460ff16151560011490565b3480156106b1575f80fd5b5061058a6106c0366004615017565b5050565b3480156106cf575f80fd5b5061058a6106de366004614e50565b6117a0565b3480156106ee575f80fd5b506105d96106fd366004614f95565b6001600160a01b03165f908152600a602052604090205460ff16151560011490565b34801561072a575f80fd5b506105d9610739366004614f95565b6001600160a01b03165f908152600c602052604090205460ff16151560011490565b348015610766575f80fd5b5061058a610775366004614e50565b6117fb565b348015610785575f80fd5b506105d9610794366004614f95565b60076020525f908152604090205460ff1681565b3480156107b3575f80fd5b5061058a6107c2366004614e50565b611876565b3480156107d2575f80fd5b506107dc6104b081565b6040519081526020016105e5565b3480156107f5575f80fd5b5061058a610804366004614f5c565b6118cc565b348015610814575f80fd5b506105d9610823366004614f95565b600c6020525f908152604090205460ff1681565b348015610842575f80fd5b5061058a610851366004615063565b6118ed565b348015610861575f80fd5b5061058a6108703660046150ba565b611956565b348015610880575f80fd5b506105d961088f366004614f95565b600a6020525f908152604090205460ff1681565b3480156108ae575f80fd5b5061058a6108bd366004614f5c565b61199d565b3480156108cd575f80fd5b5061058a6108dc366004614f5c565b611a40565b3480156108ec575f80fd5b5061058a6108fb366004614e50565b611ac1565b34801561090b575f80fd5b505f5461091e906001600160a01b031681565b6040516001600160a01b0390911681526020016105e5565b348015610941575f80fd5b5061058a61095036600461514b565b611b1f565b348015610960575f80fd5b5061058a61096f366004614e50565b611bbd565b34801561097f575f80fd5b5061058a61098e366004614e50565b611d69565b34801561099e575f80fd5b5061058a6109ad366004614f5c565b611dc7565b3480156109bd575f80fd5b5061058a6109cc366004614f5c565b611eaf565b3480156109dc575f80fd5b5061058a6109eb366004614fb7565b611ed1565b3480156109fb575f80fd5b5061058a610a0a366004614f5c565b50565b348015610a18575f80fd5b5061058a610a27366004614e50565b611ee3565b348015610a37575f80fd5b506105d9610a46366004614f95565b6001600160a01b03165f908152600b602052604090205460ff16151560011490565b348015610a73575f80fd5b506105d9610a82366004615177565b611f19565b348015610a92575f80fd5b5061058a611f50565b348015610aa6575f80fd5b5061058a610ab5366004614e50565b611f63565b348015610ac5575f80fd5b5061091e611fc1565b348015610ad9575f80fd5b5061058a610ae8366004614f5c565b611ff8565b348015610af8575f80fd5b5061058a610b07366004614f5c565b6120b3565b348015610b17575f80fd5b5061058a610b26366004614f95565b6121fd565b348015610b36575f80fd5b5061058a610b45366004614f5c565b612256565b348015610b55575f80fd5b506105d9610b64366004614f95565b6001600160a01b03165f9081526003602052604090205460ff16151560011490565b348015610b91575f80fd5b5061058a610ba0366004614f5c565b612315565b348015610bb0575f80fd5b5061058a610bbf366004614e50565b612398565b348015610bcf575f80fd5b5061058a610bde366004614e50565b6126e1565b348015610bee575f80fd5b50600d546105d99060ff1681565b348015610c07575f80fd5b5061058a610c16366004614e50565b61273f565b348015610c26575f80fd5b507f9016d09d72d40fdae2fd8ceac6b6234c7706214fd39c1cd1e609a0528c199300546001600160a01b031661091e565b348015610c62575f80fd5b506105d9610c71366004614f95565b600b6020525f908152604090205460ff1681565b348015610c90575f80fd5b5061058a610c9f366004614f5c565b61279a565b348015610caf575f80fd5b5061058a610cbe366004614e50565b612858565b348015610cce575f80fd5b50604080518082018252600681526576302e312e3360d01b602082015290516105e591906151d8565b348015610d02575f80fd5b5061058a610d11366004614f5c565b6128b6565b348015610d21575f80fd5b506105d9610d30366004614f95565b60056020525f908152604090205460ff1681565b348015610d4f575f80fd5b5061058a610d5e366004614f5c565b612a78565b348015610d6e575f80fd5b5061058a610d7d366004614e50565b612bb9565b348015610d8d575f80fd5b506105d9610d9c366004615177565b600260209081525f928352604080842090915290825290205460ff1681565b348015610dc6575f80fd5b506107dc60045481565b610de3610dde3660046151ea565b612c14565b6040516105e59190615259565b348015610dfb575f80fd5b5061058a610e0a366004614f95565b612d5a565b348015610e1a575f80fd5b506105d9610e29366004614f95565b60036020525f908152604090205460ff1681565b348015610e48575f80fd5b506105d9610e57366004614f95565b6001600160a01b03165f9081526006602052604090205460ff16151560011490565b348015610e84575f80fd5b5061058a610e933660046152c9565b612dcc565b348015610ea3575f80fd5b5061058a610eb2366004614f5c565b612e16565b348015610ec2575f80fd5b506105d9610ed1366004614f95565b612f34565b348015610ee1575f80fd5b506105d9610ef0366004614f95565b6001600160a01b03165f9081526007602052604090205460ff16151560011490565b348015610f1d575f80fd5b5061058a610f2c366004614e50565b612f65565b348015610f3c575f80fd5b5060015461091e906001600160a01b031681565b348015610f5b575f80fd5b5061058a610f6a366004614f5c565b612f71565b348015610f7a575f80fd5b5061058a610f8936600461514b565b612fd4565b348015610f99575f80fd5b5061058a610fa8366004614e50565b613046565b348015610fb8575f80fd5b5061058a610fc7366004614f5c565b6130c7565b348015610fd7575f80fd5b506105d9610fe6366004614f95565b60096020525f908152604090205460ff1681565b348015611005575f80fd5b5061058a611014366004614f5c565b613185565b348015611024575f80fd5b5061058a611033366004614e50565b613238565b348015611043575f80fd5b506105d9611052366004614f95565b6001600160a01b03165f9081526008602052604090205460ff16151560011490565b34801561107f575f80fd5b5061058a61108e366004614e50565b613243565b34801561109e575f80fd5b5061058a6110ad366004614fb7565b613299565b3480156110bd575f80fd5b5061058a6110cc366004614f95565b61330e565b3480156110dc575f80fd5b5061058a6110eb366004614f5c565b613348565b3480156110fb575f80fd5b5061058a61110a366004614e50565b6133c3565b34801561111a575f80fd5b5061058a611129366004614e50565b61341e565b348015611139575f80fd5b506105d9611148366004614f95565b60066020525f908152604090205460ff1681565b348015611167575f80fd5b50604051600181526020016105e5565b61117f61347c565b6001600160a01b0383165f9081526009602052604090819020805460ff19169055517fb71be9befd3ac90c1c9981d3b1161b3c2c6dcd741f13b34061aa251226a802df906111d29085908590859061530e565b60405180910390a1505050565b5f818060200190518101906111f491906153af565b90505f5b815181101561151f575f8282815181106112145761121461545e565b602002602001015190505f6112355f6004846134d79092919063ffffffff16565b61123e90615472565b90505f61125b600480855161125391906154c4565b8591906134d7565b6040805180820190915260208082527f7472616e736665724552433230496e28616464726573732c75696e74323536299101529050631dac092b60e11b6001600160e01b03198316016112b6576112b181611a40565b611514565b60408051808201909152601b81527f7472616e736665724552433230416c6c496e2861646472657373290000000000602090910152635cf59cb760e11b6001600160e01b031983160161130c576112b181612315565b60408051808201909152601881527f6465706f73697428616464726573732c6164647265737329000000000000000060209091015262d3ec1f60e31b6001600160e01b0319831601611361576112b181612e16565b60408051808201909152601981527f776974686472617728616464726573732c6164647265737329000000000000006020909101526306bf1c7b60e01b6001600160e01b03198316016113b7576112b181613348565b6113de604051806060016040528060278152602001615e3c60279139805160209091012090565b6001600160e01b031916826001600160e01b03191603611401576112b181611eaf565b611428604051806060016040528060288152602001615e1460289139805160209091012090565b6001600160e01b031916826001600160e01b0319160361144b576112b181611eaf565b60408051808201909152601e81527f666c61736853776170416c6c4f75742875696e743235362c627974657329000060209091015263d2b3d16560e01b6001600160e01b03198316016114a1576112b1816118cc565b60405162461bcd60e51b815260206004820152603360248201527f76616c69646174655f3164656c74614d756c746963616c6c3a20556e6b6e6f7760448201527f6e2066756e6374696f6e2073656c6563746f720000000000000000000000000060648201526084015b60405180910390fd5b5050506001016111f8565b505050565b61152c61347c565b5f80546001600160a01b038381166001600160a01b0319831681178455604051919092169283917f52ae88b092de36f87fb43fe794eb1381023b9c1bce563a871154022c63dce3429190a35050565b611586848383612858565b611591838383612858565b6001600160a01b0384165f908152600c602052604090819020805460ff19166001179055517f936b7187f49d778f82d1c17d927c8006f00eac6d2e5ccb50720dbc7afda8b4a9906115e79086908590859061530e565b60405180910390a150505050565b5f8180602001905181019061160a91906154e2565b509050611633816001600160a01b03165f9081526008602052604090205460ff16151560011490565b6106c05760405162461bcd60e51b815260206004820152603c60248201527f76616c69646174655f7472616e736665723a205265636569766572206164647260448201527f657373206e6f742077686974656c697374656420627920477561726400000000606482015260840161150b565b5f805b6116b183613639565b50925090506116bf82612f34565b61171c5760405162461bcd60e51b815260206004820152602860248201527f76616c6964617465556e69737761705633506174683a20546f6b656e206e6f7460448201526708185b1b1bddd95960c21b606482015260840161150b565b61172581612f34565b6117825760405162461bcd60e51b815260206004820152602860248201527f76616c6964617465556e69737761705633506174683a20546f6b656e206e6f7460448201526708185b1b1bddd95960c21b606482015260840161150b565b61178b83613674565b1561151f57611799836136ad565b92506116a8565b6117a861347c565b6001600160a01b0383165f9081526007602052604090819020805460ff19169055517f4e13b11ab98e672bd78295ef9cebe764dc617f95decf47d842c25b83abc0c724906111d29085908590859061530e565b61182d83611826604051806060016040528060338152602001615de160339139805160209091012090565b8484611b1f565b61185883611826604051806060016040528060348152602001615e6360349139805160209091012090565b61186b8363b858183f60e01b8484611b1f565b61151f838383612858565b6118a183611826604051806080016040528060438152602001615bf960439139805160209091012090565b61186b83611826604051806080016040528060608152602001615c3c60609139805160209091012090565b5f818060200190518101906118e1919061550e565b9150506106c0816128b6565b5f60606118fc338787876136de565b61193c868487878080601f0160208091040260200160405190810160405280939291908181526020018383808284375f9201829052509250614431915050565b90925090508161194e57805160208201fd5b505050505050565b5f60605f6119698a8a8a8a8a8a8a6144bb565b905061197f81602001515f83604001515f614431565b90935091508261199157815160208301fd5b50505050505050505050565b5f818060200190518101906119b291906154e2565b5090506119db816001600160a01b03165f9081526009602052604090205460ff16151560011490565b6106c05760405162461bcd60e51b815260206004820152603060248201527f76616c69646174655f617070726f76653a20417070726f76652061646472657360448201526f0e640c8decae640dcdee840dac2e8c6d60831b606482015260840161150b565b5f81806020019051810190611a5591906154e2565b509050611a6181612f34565b6106c05760405162461bcd60e51b815260206004820152602b60248201527f76616c69646174655f7472616e736665724552433230496e3a20546f6b656e2060448201526a1b9bdd08185b1b1bddd95960aa1b606482015260840161150b565b611ac961347c565b6001600160a01b0383165f9081526008602052604090819020805460ff19166001179055517f3562181221a42a19ddd03a82dfe06acab1905ceb65cdaf7d86a1d9fec6643552906111d29085908590859061530e565b611b2761347c565b6001600160a01b0384165f8181526002602090815260408083206001600160e01b03198816845282528083208054600160ff199182168117909255948452600390925282208054909316179091556004805491611b8383615548565b91905055507fef729aaa41b9fd994f9ff7c1960df214a84f722002e6cfbea31799cd0873a3ef848484846040516115e79493929190615560565b611bc561347c565b6001600160a01b0383165f908152600b6020908152604091829020805460ff191660011790558151808301909252600f82526e736574746c654465706f736974282960881b910152611c37837f559ec80da0b29925dac0e329ba0aaf8bbf2760bcaf9174e4ca42e01d74c0e6d0611826565b60408051808201909152600e81526d736574746c6552656465656d282960901b602090910152611c87837fa03d55e3f74b6754c01f274bb12d9c8a11ea8330b6b4ce7125c8dff1f63646ca611826565b604080518082019091526016815275736574746c654465706f7369742875696e743235362960501b602090910152611cdf837fd24ca58a10c001ae46e533b96327657c0a386bc41cac6e2db77fab9c775540b5611826565b604080518082019091526015815274736574746c6552656465656d2875696e743235362960581b602090910152611d36837fa627df6689990c734a41da64c298fd0d8c7cc1757a97e2f817ed479cf45d135d611826565b7ffaa136302ac223cf7c1146490a741e4520e886fc22d7e759641453f432283d018383836040516111d29392919061530e565b611d7161347c565b6001600160a01b0383165f908152600a602052604090819020805460ff19166001179055517f628a44970c0e450415e3ae74334ea44f3307b74dbf677a1371190242bf2f3589906111d29085908590859061530e565b5f8082806020019051810190611ddd919061559b565b9250509150611deb82612f34565b611e2b5760405162461bcd60e51b8152602060048201526011602482015270151bdad95b881b9bdd08185b1b1bddd959607a1b604482015260640161150b565b611e51816001600160a01b03165f9081526007602052604090205460ff16151560011490565b61151f5760405162461bcd60e51b815260206004820152602960248201527f52656365697665722061646472657373206e6f742077686974656c697374656460448201526808189e4811dd585c9960ba1b606482015260840161150b565b5f81806020019051810190611ec491906155db565b925050506106c0816128b6565b611edd848484846136de565b50505050565b611f0e83611826604051806060016040528060228152602001615dbf60229139805160209091012090565b61151f8383836126e1565b6001600160a01b0382165f9081526002602090815260408083206001600160e01b03198516845290915290205460ff165b92915050565b611f5861347c565b611f615f61475c565b565b611f6b61347c565b6001600160a01b0383165f9081526007602052604090819020805460ff19166001179055517f62dd88c5ecfa60713a657640ebec4de26fc1aefa4afdb24e6d15a124fce72779906111d29085908590859061530e565b5f611ff37f9016d09d72d40fdae2fd8ceac6b6234c7706214fd39c1cd1e609a0528c199300546001600160a01b031690565b905090565b5f8180602001905181019061200d9190615627565b50915050612037816001600160a01b03165f9081526007602052604090205460ff16151560011490565b6106c05760405162461bcd60e51b815260206004820152604160248201527f76616c69646174655f4552433436323652656465656d3a20526563656976657260448201527f2061646472657373206e6f742077686974656c697374656420627920477561726064820152601960fa1b608482015260a40161150b565b5f80828060200190518101906120c9919061565d565b509350935050506120f6816001600160a01b03165f9081526007602052604090205460ff16151560011490565b61217d5760405162461bcd60e51b815260206004820152604c60248201527f76616c69646174655f737761704578616374546f6b656e73466f72546f6b656e60448201527f733a2052656365697665722061646472657373206e6f742077686974656c697360648201526b1d195908189e4811dd585c9960a21b608482015260a40161150b565b5f805b83518110156121f65783818151811061219b5761219b61545e565b602002602001015191506121ae82612f34565b6121ee5760405162461bcd60e51b8152602060048201526011602482015270151bdad95b881b9bdd08185b1b1bddd959607a1b604482015260640161150b565b600101612180565b5050505050565b61220561347c565b600180546001600160a01b038381166001600160a01b0319831681179093556040519116919082907f90cc2f570a6eb594b1580ea3e41247d2d73a55281889e86bd4ec2fc29c7e62d6905f90a35050565b5f8180602001905181019061226b9190615627565b50915050612295816001600160a01b03165f9081526007602052604090205460ff16151560011490565b6106c05760405162461bcd60e51b815260206004820152604560248201527f76616c69646174655f455243343632365769746864726177616c3a205265636560448201527f697665722061646472657373206e6f742077686974656c69737465642062792060648201526411dd585c9960da1b608482015260a40161150b565b5f8180602001905181019061232a9190615726565b905061233581612f34565b6106c05760405162461bcd60e51b815260206004820152602e60248201527f76616c69646174655f7472616e736665724552433230416c6c496e3a20546f6b60448201526d195b881b9bdd08185b1b1bddd95960921b606482015260840161150b565b5f8390505f816001600160a01b03166338d52e0f6040518163ffffffff1660e01b8152600401602060405180830381865afa1580156123d9573d5f803e3d5ffd5b505050506040513d601f19601f820116820180604052508101906123fd9190615726565b60408051808201909152601881527f6465706f7369742875696e743235362c61646472657373290000000000000000602090910152905084612462817f6e553f653991036c188afcef45e14f9ecb45269ff9c675358bbb3a2eeb78e03b5b8787611b1f565b61248d8661245b604051806060016040528060218152602001615d9e60219139805160209091012090565b60408051808201909152601f81527f72656465656d2875696e743235362c616464726573732c6164647265737329006020909101526124ec867fba087652ef750b77b3f3b86ecd8aac56de04fbc0d6751abdd0992cabce37905461245b565b6040805180820190915260208082527f6465706f7369742875696e743235362c75696e743235362c6164647265737329910152612549867f8dbdbe6d001f5e99073d1e00fb9ab09617cdb877a368e124850de81886e5a85b61245b565b6125748661245b604051806060016040528060278152602001615b5f60279139805160209091012090565b6040805180820190915260208082527f6465706f7369742875696e743235362c616464726573732c61646472657373299101526125d1867f2e2d298468c732b7cc7344a26321c2cd82d446fea74af620fb9923927c3c57e961245b565b6125fc8661245b604051806060016040528060268152602001615ce360269139805160209091012090565b6126278661245b604051806060016040528060288152602001615bd160289139805160209091012090565b6126528661245b604051806060016040528060278152602001615d0960279139805160209091012090565b61267d8661245b604051806060016040528060248152602001615d7a60249139805160209091012090565b612688868686612858565b6126938186866147cc565b61269e8286866147cc565b7fd2851df39115d63968e90113e8b3a96f13e33ac4c2e5a9caa1afeffe59e557488686866040516126d19392919061530e565b60405180910390a1505050505050565b6126e961347c565b6001600160a01b0383165f9081526005602052604090819020805460ff19166001179055517fad90e2570fc4fe9f7437be3188d5c791c6662892d31731992aa88f5c87621983906111d29085908590859061530e565b61274761347c565b6001600160a01b0383165f9081526008602052604090819020805460ff19169055517f1212f8ddb39de8e1a339460c95752d61100723efeaa34ccd94bca94393f40938906111d29085908590859061530e565b5f818060200190518101906127af91906154e2565b5090506127d8816001600160a01b03165f908152600a602052604090205460ff16151560011490565b6106c05760405162461bcd60e51b815260206004820152604560248201527f76616c69646174655f617070726f766544656c65676174696f6e3a204170707260448201527f6f76652064656c65676174696f6e206164647265737320646f6573206e6f74206064820152640dac2e8c6d60db1b608482015260a40161150b565b61286061347c565b6001600160a01b0383165f9081526009602052604090819020805460ff19166001179055517f628a44970c0e450415e3ae74334ea44f3307b74dbf677a1371190242bf2f3589906111d29085908590859061530e565b5f805b6128c3835f614885565b91506128f26001806128d760036014615741565b6128e19190615741565b6128eb9190615741565b8490614885565b90506128fd82612f34565b6129575760405162461bcd60e51b815260206004820152602560248201527f76616c69646174653164656c7461506174683a20546f6b656e206e6f7420616c6044820152641b1bddd95960da1b606482015260840161150b565b61296081612f34565b6129ba5760405162461bcd60e51b815260206004820152602560248201527f76616c69646174653164656c7461506174683a20546f6b656e206e6f7420616c6044820152641b1bddd95960da1b606482015260840161150b565b6001806129c960036014615741565b6129d39190615741565b6129dd9190615741565b60146001806129ed600384615741565b6129f79190615741565b612a019190615741565b612a0b9190615741565b612a159190615741565b83511061151f57612a71600180612a2e60036014615741565b612a389190615741565b612a429190615741565b600180612a5160036014615741565b612a5b9190615741565b612a659190615741565b855161125391906154c4565b92506128b9565b7ff0c57e16840df040f15088dc2f81fe391c3923bec73e23a9662efc9c229c6a008054600160401b810460ff1615906001600160401b03165f81158015612abc5750825b90505f826001600160401b03166001148015612ad75750303b155b905081158015612ae5575080155b15612b035760405163f92ee8a960e01b815260040160405180910390fd5b845467ffffffffffffffff191660011785558315612b3257845468ff00000000000000001916600160401b1785555b612b3b33614954565b5f8087806020019051810190612b519190615754565b91509150612b5e81611524565b612b67816121fd565b612b708261330e565b5050831561194e57845468ff000000000000000019168555604051600181527fc7f505b2f371ae2175ee4913f4499e1f2633a7b5936321eed1cdaeb6115181d2906020016126d1565b612bc161347c565b6001600160a01b0383165f9081526006602052604090819020805460ff19169055517f3097928509c53a2dab9500431201d82b0d756e8f890fd01f4ae6b33b45687ea4906111d29085908590859061530e565b6060816001600160401b03811115612c2e57612c2e614ea0565b604051908082528060200260200182016040528015612c6157816020015b6060815260200190600190039081612c4c5790505b5090505f5b82811015612d53575f8030868685818110612c8357612c8361545e565b9050602002810190612c95919061578c565b604051612ca39291906157ce565b5f60405180830381855af49150503d805f8114612cdb576040519150601f19603f3d011682016040523d82523d5f602084013e612ce0565b606091505b509150915081612d2b57604481511015612cf8575f80fd5b60048101905080806020019051810190612d1291906157dd565b60405162461bcd60e51b815260040161150b91906151d8565b80848481518110612d3e57612d3e61545e565b60209081029190910101525050600101612c66565b5092915050565b612d80816001600160a01b03165f908152600b602052604090205460ff16151560011490565b610a0a5760405162461bcd60e51b815260206004820152601160248201527f5661756c74206e6f7420616c6c6f776564000000000000000000000000000000604482015260640161150b565b612dd461347c565b600d805460ff19168415151790556040517f50454d9d0025a28a39cac5a4b3f3101d29b6e413fbb64f75fb42eb6837b07718906111d290859085908590615821565b5f8082806020019051810190612e2c9190615754565b91509150612e3982612f34565b612e9c5760405162461bcd60e51b815260206004820152602e60248201527f76616c69646174655f7472616e736665724552433230416c6c496e3a20546f6b60448201526d195b881b9bdd08185b1b1bddd95960921b606482015260840161150b565b612ec2816001600160a01b03165f9081526007602052604090205460ff16151560011490565b61151f5760405162461bcd60e51b815260206004820152603b60248201527f76616c69646174655f6465706f7369743a20526563656976657220616464726560448201527f7373206e6f742077686974656c69737465642062792047756172640000000000606482015260840161150b565b600d545f9060ff1680611f4a5750506001600160a01b03165f9081526005602052604090205460ff16151560011490565b61151f8383835f6118ed565b5f81806020019051810190612f86919061583c565b5050509050612f9481612f34565b6106c05760405162461bcd60e51b8152602060048201526011602482015270151bdad95b881b9bdd08185b1b1bddd959607a1b604482015260640161150b565b612fdc61347c565b6001600160a01b0384165f9081526002602090815260408083206001600160e01b03198716845290915290819020805460ff19169055517f37ea10f2d08f5a9803dfcd5abf3cfc7b0d6fcdf5fcbc36be9ea5a0b53d9a4d9b906115e7908690869086908690615560565b61307183611826604051806060016040528060218152602001615b8660219139805160209091012090565b61309c836118266040518060600160405280602a8152602001615ba7602a9139805160209091012090565b61186b836118266040518060800160405280604a8152602001615d30604a9139805160209091012090565b5f818060200190518101906130dc9190615918565b905061310881602001516001600160a01b03165f9081526007602052604090205460ff16151560011490565b61317a5760405162461bcd60e51b815260206004820152603f60248201527f76616c69646174655f65786163744f75747075743a205265636569766572206160448201527f646472657373206e6f742077686974656c697374656420627920477561726400606482015260840161150b565b80516106c0906116a5565b5f8180602001905181019061319a9190615918565b90506131c681602001516001600160a01b03165f9081526007602052604090205460ff16151560011490565b61317a5760405162461bcd60e51b815260206004820152603e60248201527f76616c69646174655f6578616374496e7075743a20526563656976657220616460448201527f6472657373206e6f742077686974656c69737465642062792047756172640000606482015260840161150b565b61151f8383836147cc565b61326e83611826604051806060016040528060268152602001615c9c60269139805160209091012090565b61186b83611826604051806060016040528060218152602001615cc260219139805160209091012090565b6040805180820190915260128152716d756c746963616c6c2862797465735b5d2960701b6020909101526132ed847fac9650d882acfa253cba1ed543b9ff47351da99c3bd00a89625e5cdb2099009c611826565b6132f8848383612858565b613303838383612858565b611edd848383611d69565b61331661347c565b6001600160a01b03811661333f57604051631e4fbdf760e01b81525f600482015260240161150b565b610a0a8161475c565b5f808280602001905181019061335e9190615754565b9150915061336b82612f34565b612e9c5760405162461bcd60e51b8152602060048201526024808201527f76616c69646174655f77697468647261773a20546f6b656e206e6f7420616c6c6044820152631bddd95960e21b606482015260840161150b565b6133cb61347c565b6001600160a01b0383165f9081526005602052604090819020805460ff19169055517f9ca3f065622f5f03f32b7157677a0e420c3a36ab45fd49f256ffebce3e310587906111d29085908590859061530e565b61342661347c565b6001600160a01b0383165f9081526006602052604090819020805460ff19166001179055517fa8f9caaf4861720900294428e4ff34d37070c37afd26d96e6e4da75326d2c3ad906111d29085908590859061530e565b336134ae7f9016d09d72d40fdae2fd8ceac6b6234c7706214fd39c1cd1e609a0528c199300546001600160a01b031690565b6001600160a01b031614611f615760405163118cdaa760e01b815233600482015260240161150b565b6060816134e581601f615741565b10156135245760405162461bcd60e51b815260206004820152600e60248201526d736c6963655f6f766572666c6f7760901b604482015260640161150b565b8261352f8382615741565b101561356e5760405162461bcd60e51b815260206004820152600e60248201526d736c6963655f6f766572666c6f7760901b604482015260640161150b565b6135788284615741565b845110156135c85760405162461bcd60e51b815260206004820152601160248201527f736c6963655f6f75744f66426f756e6473000000000000000000000000000000604482015260640161150b565b6060821580156135e65760405191505f825260208201604052613630565b6040519150601f8416801560200281840101858101878315602002848b0101015b8183101561361f578051835260209283019201613607565b5050858452601f01601f1916604052505b50949350505050565b5f80806136468482614885565b9250613653846014614965565b905061366b61366460036014615741565b8590614885565b91509193909250565b5f61368160036014615741565b601461368e600382615741565b6136989190615741565b6136a29190615741565b825110159050919050565b6060611f4a6136be60036014615741565b6136ca60036014615741565b84516136d691906154c4565b8491906134d7565b6136e6611fc1565b6001600160a01b0316846001600160a01b03160315611edd57613725846001600160a01b03165f9081526006602052604090205460ff16151560011490565b6137715760405162461bcd60e51b815260206004820181905260248201527f76616c696461746543616c6c3a2053656e646572206e6f7420616c6c6f776564604482015260640161150b565b5f61377f6004828486615949565b61378891615970565b9050365f6137998460048188615949565b600d5491935091505f9060ff1680156137f25750604080518082019091526018815277617070726f766528616464726573732c75696e743235362960401b60209091015263095ea7b360e01b6001600160e01b03198516145b9050806138e8576138038785611f19565b6138e85761382d876001600160a01b03165f9081526003602052604090205460ff16151560011490565b6138795760405162461bcd60e51b815260206004820181905260248201527f76616c696461746543616c6c3a20746172676574206e6f7420616c6c6f776564604482015260640161150b565b6138838785611f19565b6138e85760405162461bcd60e51b815260206004820152603060248201527f76616c696461746543616c6c3a2073656c6563746f72206e6f7420616c6c6f7760448201526f1959081bdb881d1a19481d185c99d95d60821b606482015260840161150b565b61390f604051806080016040528060438152602001615bf960439139805160209091012090565b6001600160e01b031916846001600160e01b0319160361396c5761396783838080601f0160208091040260200160405190810160405280939291908181526020018383808284375f920191909152506120b392505050565b614427565b613993604051806080016040528060608152602001615c3c60609139805160209091012090565b6001600160e01b031916846001600160e01b031916036139eb5761396783838080601f0160208091040260200160405190810160405280939291908181526020018383808284375f920191909152506120b392505050565b613a12604051806060016040528060338152602001615de160339139805160209091012090565b6001600160e01b031916846001600160e01b03191603613a6a5761396783838080601f0160208091040260200160405190810160405280939291908181526020018383808284375f9201919091525061318592505050565b6001600160e01b0319841663b858183f60e01b03613b1157600d5460ff166139675760405162461bcd60e51b815260206004820152604e60248201527f76616c696461746543616c6c3a2053776170526f75746572303220697320637560448201527f7272656e746c7920737570706f72746564206f6e6c79207769746820616e794160648201526d1cdcd95d081dda1a5d195b1a5cdd60921b608482015260a40161150b565b6040805180820190915260128152716d756c746963616c6c2862797465735b5d2960701b602090910152630a6d35e560e31b6001600160e01b0319851601613b915761396783838080601f0160208091040260200160405190810160405280939291908181526020018383808284375f920191909152506111df92505050565b60408051808201909152601981527f7472616e7366657228616464726573732c75696e7432353629000000000000006020909101526356fa634560e01b6001600160e01b0319851601613c1c5761396783838080601f0160208091040260200160405190810160405280939291908181526020018383808284375f920191909152506115f592505050565b604080518082019091526018815277617070726f766528616464726573732c75696e743235362960401b60209091015263f6a1584d60e01b6001600160e01b0319851601613ca25761396783838080601f0160208091040260200160405190810160405280939291908181526020018383808284375f9201919091525061199d92505050565b613cc9604051806060016040528060228152602001615dbf60229139805160209091012090565b6001600160e01b031916846001600160e01b03191603613d215761396783838080601f0160208091040260200160405190810160405280939291908181526020018383808284375f9201919091525061279a92505050565b613d48604051806060016040528060268152602001615c9c60269139805160209091012090565b6001600160e01b031916846001600160e01b03191603613da05761396783838080601f0160208091040260200160405190810160405280939291908181526020018383808284375f92019190915250612f7192505050565b613dc7604051806060016040528060218152602001615cc260219139805160209091012090565b6001600160e01b031916846001600160e01b03191603613e1f5761396783838080601f0160208091040260200160405190810160405280939291908181526020018383808284375f92019190915250611dc792505050565b60408051808201909152600f81526e736574746c654465706f736974282960881b60209091015263aa6137f360e01b6001600160e01b0319851601613e675761396787612d5a565b60408051808201909152600e81526d736574746c6552656465656d282960901b602090910152635fc2aa1d60e01b6001600160e01b0319851601613eae5761396787612d5a565b604080518082019091526016815275736574746c654465706f7369742875696e743235362960501b6020909101526316d9ad3b60e11b6001600160e01b0319851601613efd5761396787612d5a565b604080518082019091526015815274736574746c6552656465656d2875696e743235362960581b602090910152632cec104d60e11b6001600160e01b0319851601613f4b5761396787612d5a565b60408051808201909152601881527f6465706f7369742875696e743235362c61646472657373290000000000000000602090910152636e553f6560e01b6001600160e01b031985161480613fe257506040805180820190915260208082527f6465706f7369742875696e743235362c616464726573732c6164647265737329910152630b8b4a6160e21b6001600160e01b03198516145b6144275761400d604051806060016040528060218152602001615d9e60219139805160209091012090565b6001600160e01b031916846001600160e01b031916036140655761396783838080601f0160208091040260200160405190810160405280939291908181526020018383808284375f9201919091525061225692505050565b60408051808201909152601f81527f72656465656d2875696e743235362c616464726573732c6164647265737329006020909101526322fbc4d760e11b6001600160e01b03198516016140f05761396783838080601f0160208091040260200160405190810160405280939291908181526020018383808284375f92019190915250611ff892505050565b614117604051806060016040528060268152602001615ce360269139805160209091012090565b6001600160e01b031916846001600160e01b0319160361416f5761396783838080601f0160208091040260200160405190810160405280939291908181526020018383808284375f92019190915250611ff892505050565b614196604051806060016040528060288152602001615bd160289139805160209091012090565b6001600160e01b031916846001600160e01b031916036141ee5761396783838080601f0160208091040260200160405190810160405280939291908181526020018383808284375f9201919091525061225692505050565b614215604051806060016040528060278152602001615d0960279139805160209091012090565b6001600160e01b03198581169116146144275761424f604051806060016040528060248152602001615d7a60249139805160209091012090565b6001600160e01b031985811691161461442757614289604051806060016040528060218152602001615b8660219139805160209091012090565b6001600160e01b031916846001600160e01b031916036142e15761396783838080601f0160208091040260200160405190810160405280939291908181526020018383808284375f92019190915250610a0a92505050565b6143086040518060600160405280602a8152602001615ba7602a9139805160209091012090565b6001600160e01b031916846001600160e01b031916036143605761396783838080601f0160208091040260200160405190810160405280939291908181526020018383808284375f92019190915250610a0a92505050565b6143876040518060800160405280604a8152602001615d30604a9139805160209091012090565b6001600160e01b031916846001600160e01b031916036143df5761396783838080601f0160208091040260200160405190810160405280939291908181526020018383808284375f92019190915250610a0a92505050565b60405162461bcd60e51b815260206004820152601960248201527f556e6b6e6f776e2066756e6374696f6e2073656c6563746f7200000000000000604482015260640161150b565b5050505050505050565b600154604051635229073f60e01b81525f916060916001600160a01b0390911690635229073f9061446c9089908990899089906004016159a6565b5f604051808303815f875af1158015614487573d5f803e3d5ffd5b505050506040513d5f823e601f3d908101601f191682016040526144ae91908101906159fa565b9150915094509492505050565b60408051606080820183528082525f6020830152918101919091526144fc886001600160a01b03165f908152600c602052604090205460ff16151560011490565b61455d5760405162461bcd60e51b815260206004820152602c60248201527f73776170416e6456616c6964617465436f77537761703a20436f77205377617060448201526b081b9bdd08195b98589b195960a21b606482015260840161150b565b335f9081526006602052604090205460ff1615156001146145d95760405162461bcd60e51b815260206004820152603060248201527f73776170416e6456616c6964617465436f77537761703a2053656e646572206e60448201526f37ba1030b9b9b2ba1036b0b730b3b2b960811b606482015260840161150b565b6145e285612f34565b6146425760405162461bcd60e51b815260206004820152602b60248201527f73776170416e6456616c6964617465436f77537761703a20746f6b656e496e2060448201526a1b9bdd08185b1b1bddd95960aa1b606482015260840161150b565b61464b84612f34565b6146ac5760405162461bcd60e51b815260206004820152602c60248201527f73776170416e6456616c6964617465436f77537761703a20746f6b656e4f757460448201526b081b9bdd08185b1b1bddd95960a21b606482015260840161150b565b6146d2876001600160a01b03165f9081526007602052604090205460ff16151560011490565b6147335760405162461bcd60e51b815260206004820152602c60248201527f73776170416e6456616c6964617465436f77537761703a20726563656976657260448201526b081b9bdd08185b1b1bddd95960a21b606482015260840161150b565b5f614742878988888888614a24565b905061474f898983614b72565b9998505050505050505050565b7f9016d09d72d40fdae2fd8ceac6b6234c7706214fd39c1cd1e609a0528c19930080546001600160a01b031981166001600160a01b03848116918217845560405192169182907f8be0079c531659141344cd1fd0a4f28419497f9722a3daafe3b4186f6b6457e0905f90a3505050565b60408051808201909152601981527f7472616e7366657228616464726573732c75696e74323536290000000000000060209091015261482b837fa9059cbb2ab09eb219583f4a59a5d0623ade346d962bcd4e46b11da047c9049b611826565b604080518082019091526018815277617070726f766528616464726573732c75696e743235362960401b602090910152611f0e837f095ea7b334ae44009aa867bfb386f5c3b4b443ac6f0ee573fa91c4608fbadfba611826565b5f81614892816014615741565b10156148e05760405162461bcd60e51b815260206004820152601260248201527f746f416464726573735f6f766572666c6f770000000000000000000000000000604482015260640161150b565b6148eb826014615741565b8351101561493b5760405162461bcd60e51b815260206004820152601560248201527f746f416464726573735f6f75744f66426f756e64730000000000000000000000604482015260640161150b565b5001602001516c01000000000000000000000000900490565b61495c614d44565b610a0a81614d8d565b5f81614972816003615741565b10156149c05760405162461bcd60e51b815260206004820152601160248201527f746f55696e7432345f6f766572666c6f77000000000000000000000000000000604482015260640161150b565b6149cb826003615741565b83511015614a1b5760405162461bcd60e51b815260206004820152601460248201527f746f55696e7432345f6f75744f66426f756e6473000000000000000000000000604482015260640161150b565b50016003015190565b60408051610180810182525f80825260208201819052918101829052606081018290526080810182905260a0810182905260c0810182905260e08101829052610100810182905261012081018290526101408101829052610160810191909152604051806101800160405280866001600160a01b03168152602001856001600160a01b03168152602001876001600160a01b031681526020018481526020018381526020016104b042614ad79190615741565b63ffffffff1681526020018881526020015f81526020017ff3b277728b3fee749481eb3e0b3b48980dbbab78658fc419025cb16eee34677581526020015f151581526020017f5a28e9363bb942b639270062aa6bb295f434bcdfc42c97267bf003f272060dc981526020017f5a28e9363bb942b639270062aa6bb295f434bcdfc42c97267bf003f272060dc981525090509695505050505050565b60408051606080820183528082525f6020830152918101919091525f8490505f614c4784836001600160a01b031663f698da256040518163ffffffff1660e01b8152600401602060405180830381865afa158015614bd2573d5f803e3d5ffd5b505050506040513d601f19601f82011682018060405250810190614bf69190615a31565b601f1990910180517fd5a25ba2e97094ad7d83dc28a6572da797d6b3e7fc6663bd93efb789fc17e48982526101a08220915260405161190160f01b8152600281019290925260228201526042902090565b604080516038808252606082019092529192505f9190602082018180368337019050509050614c7c8183888860a00151614d95565b427f2c222fa91d81130fe56ee74391b3b6a113851c1f9cd5bc5853108490ccafc78282878860a0015189608001518a60600151604051614cc0959493929190615a48565b60405180910390a26040518060600160405280828152602001886001600160a01b0316815260200163ec6cb13f60e01b836001604051602401614d04929190615b3b565b60408051601f198184030181529190526020810180516001600160e01b03166001600160e01b031990931692909217909152905293505050509392505050565b7ff0c57e16840df040f15088dc2f81fe391c3923bec73e23a9662efc9c229c6a0054600160401b900460ff16611f6157604051631afcd79f60e31b815260040160405180910390fd5b613316614d44565b6038845114614de65760405162461bcd60e51b815260206004820152601960248201527f475076323a2075696420627566666572206f766572666c6f7700000000000000604482015260640161150b565b60388401526034830152602090910152565b6001600160a01b0381168114610a0a575f80fd5b5f8083601f840112614e1c575f80fd5b5081356001600160401b03811115614e32575f80fd5b602083019150836020828501011115614e49575f80fd5b9250929050565b5f805f60408486031215614e62575f80fd5b8335614e6d81614df8565b925060208401356001600160401b03811115614e87575f80fd5b614e9386828701614e0c565b9497909650939450505050565b634e487b7160e01b5f52604160045260245ffd5b604051601f8201601f191681016001600160401b0381118282101715614edc57614edc614ea0565b604052919050565b5f6001600160401b03821115614efc57614efc614ea0565b50601f01601f191660200190565b5f82601f830112614f19575f80fd5b8135614f2c614f2782614ee4565b614eb4565b818152846020838601011115614f40575f80fd5b816020850160208301375f918101602001919091529392505050565b5f60208284031215614f6c575f80fd5b81356001600160401b03811115614f81575f80fd5b614f8d84828501614f0a565b949350505050565b5f60208284031215614fa5575f80fd5b8135614fb081614df8565b9392505050565b5f805f8060608587031215614fca575f80fd5b8435614fd581614df8565b93506020850135614fe581614df8565b925060408501356001600160401b03811115614fff575f80fd5b61500b87828801614e0c565b95989497509550505050565b5f8060408385031215615028575f80fd5b823561503381614df8565b915060208301356001600160401b0381111561504d575f80fd5b61505985828601614f0a565b9150509250929050565b5f805f8060608587031215615076575f80fd5b843561508181614df8565b935060208501356001600160401b0381111561509b575f80fd5b6150a787828801614e0c565b9598909750949560400135949350505050565b5f805f805f805f60e0888a0312156150d0575f80fd5b87356150db81614df8565b965060208801356150eb81614df8565b955060408801359450606088013561510281614df8565b9350608088013561511281614df8565b9699959850939692959460a0840135945060c09093013592915050565b80356001600160e01b031981168114615146575f80fd5b919050565b5f805f806060858703121561515e575f80fd5b843561516981614df8565b9350614fe56020860161512f565b5f8060408385031215615188575f80fd5b823561519381614df8565b91506151a16020840161512f565b90509250929050565b5f81518084528060208401602086015e5f602082860101526020601f19601f83011685010191505092915050565b602081525f614fb060208301846151aa565b5f80602083850312156151fb575f80fd5b82356001600160401b03811115615210575f80fd5b8301601f81018513615220575f80fd5b80356001600160401b03811115615235575f80fd5b8560208260051b8401011115615249575f80fd5b6020919091019590945092505050565b5f602082016020835280845180835260408501915060408160051b8601019250602086015f5b828110156152b057603f1987860301845261529b8583516151aa565b9450602093840193919091019060010161527f565b50929695505050505050565b8015158114610a0a575f80fd5b5f805f604084860312156152db575f80fd5b8335614e6d816152bc565b81835281816020850137505f828201602090810191909152601f909101601f19169091010190565b6001600160a01b0384168152604060208201525f6153306040830184866152e6565b95945050505050565b5f6001600160401b0382111561535157615351614ea0565b5060051b60200190565b5f615368614f2784614ee4565b905082815283838301111561537b575f80fd5b8282602083015e5f602084830101529392505050565b5f82601f8301126153a0575f80fd5b614fb08383516020850161535b565b5f602082840312156153bf575f80fd5b81516001600160401b038111156153d4575f80fd5b8201601f810184136153e4575f80fd5b80516153f2614f2782615339565b8082825260208201915060208360051b850101925086831115615413575f80fd5b602084015b838110156154535780516001600160401b03811115615435575f80fd5b61544489602083890101615391565b84525060209283019201615418565b509695505050505050565b634e487b7160e01b5f52603260045260245ffd5b805160208201516001600160e01b03198116919060048210156154a9576001600160e01b0319600483900360031b81901b82161692505b5050919050565b634e487b7160e01b5f52601160045260245ffd5b81810381811115611f4a57611f4a6154b0565b805161514681614df8565b5f80604083850312156154f3575f80fd5b82516154fe81614df8565b6020939093015192949293505050565b5f806040838503121561551f575f80fd5b825160208401519092506001600160401b0381111561553c575f80fd5b61505985828601615391565b5f60018201615559576155596154b0565b5060010190565b6001600160a01b038516815263ffffffff60e01b84166020820152606060408201525f6155916060830184866152e6565b9695505050505050565b5f805f606084860312156155ad575f80fd5b83516155b881614df8565b6020850151604086015191945092506155d081614df8565b809150509250925092565b5f805f606084860312156155ed575f80fd5b83516020850151604086015191945092506001600160401b03811115615611575f80fd5b61561d86828701615391565b9150509250925092565b5f805f60608486031215615639575f80fd5b8351602085015190935061564c81614df8565b60408501519092506155d081614df8565b5f805f805f60a08688031215615671575f80fd5b85516020870151604088015191965094506001600160401b03811115615695575f80fd5b8601601f810188136156a5575f80fd5b80516156b3614f2782615339565b8082825260208201915060208360051b85010192508a8311156156d4575f80fd5b6020840193505b828410156156ff5783516156ee81614df8565b8252602093840193909101906156db565b955061571192505050606087016154d7565b60809690960151949793965091949392915050565b5f60208284031215615736575f80fd5b8151614fb081614df8565b80820180821115611f4a57611f4a6154b0565b5f8060408385031215615765575f80fd5b825161577081614df8565b602084015190925061578181614df8565b809150509250929050565b5f808335601e198436030181126157a1575f80fd5b8301803591506001600160401b038211156157ba575f80fd5b602001915036819003821315614e49575f80fd5b818382375f9101908152919050565b5f602082840312156157ed575f80fd5b81516001600160401b03811115615802575f80fd5b8201601f81018413615812575f80fd5b614f8d8482516020840161535b565b8315158152604060208201525f6153306040830184866152e6565b5f805f806080858703121561584f575f80fd5b845161585a81614df8565b60208601516040870151919550935061587281614df8565b6060959095015193969295505050565b5f60a08284031215615892575f80fd5b60405160a081016001600160401b03811182821017156158b4576158b4614ea0565b806040525080915082516001600160401b038111156158d1575f80fd5b6158dd85828601615391565b82525060208301516158ee81614df8565b60208201526040838101519082015260608084015190820152608092830151920191909152919050565b5f60208284031215615928575f80fd5b81516001600160401b0381111561593d575f80fd5b614f8d84828501615882565b5f8085851115615957575f80fd5b83861115615963575f80fd5b5050820193919092039150565b80356001600160e01b03198116906004841015612d53576001600160e01b031960049490940360031b84901b1690921692915050565b6001600160a01b0385168152836020820152608060408201525f6159cd60808301856151aa565b9050600283106159eb57634e487b7160e01b5f52602160045260245ffd5b82606083015295945050505050565b5f8060408385031215615a0b575f80fd5b8251615a16816152bc565b60208401519092506001600160401b0381111561553c575f80fd5b5f60208284031215615a41575f80fd5b5051919050565b61020081525f615a5c6102008301886151aa565b86516001600160a01b03166020840152905060208601516001600160a01b03811660408401525060408601516001600160a01b03811660608401525060608601516080830152608086015160a083015260a0860151615ac360c084018263ffffffff169052565b5060c086015160e083015260e0860151610100830152610100860151610120830152610120860151615afa61014084018215159052565b50610140860151610160830152610160860151610180830152615b266101a083018663ffffffff169052565b6101c08201939093526101e001529392505050565b604081525f615b4d60408301856151aa565b90508215156020830152939250505056fe72656465656d2875696e743235362c75696e743235362c616464726573732c616464726573732964656c65676174655369676e65722828627974657333322c6164647265737329296465706f7369742828627974657333322c627974657333322c627974657333322c75696e7431323829297265717565737457697468647261772875696e743235362c616464726573732c6164647265737329737761704578616374546f6b656e73466f72546f6b656e732875696e743235362c75696e743235362c616464726573735b5d2c616464726573732c75696e7432353629737761704578616374546f6b656e73466f72546f6b656e73537570706f7274696e674665654f6e5472616e73666572546f6b656e732875696e743235362c75696e743235362c616464726573735b5d2c616464726573732c75696e7432353629737570706c7928616464726573732c75696e743235362c616464726573732c75696e74313629776974686472617728616464726573732c75696e743235362c61646472657373297265717565737452656465656d2875696e743235362c616464726573732c6164647265737329726571756573744465706f7369742875696e743235362c616464726573732c616464726573732977697468647261772828627974657333322c627974657333322c627974657333322c75696e743132382c75696e743132382c616464726573732c616464726573732c75696e74363429296d616b655769746864726177526571756573742875696e743235362c616464726573732977697468647261772875696e743235362c616464726573732c6164647265737329617070726f766544656c65676174696f6e28616464726573732c75696e74323536296578616374496e707574282862797465732c616464726573732c75696e743235362c75696e743235362c75696e743235362929666c6173685377617045786163744f75742875696e743235362c75696e743235362c627974657329666c617368537761704578616374496e2875696e743235362c75696e743235362c62797465732965786163744f7574707574282862797465732c616464726573732c75696e743235362c75696e743235362c75696e743235362929a26469706673582212200a912d5728ac43e6f1763f4da63c613bd7479c9860c4e51ddecf82cb4ec1497264736f6c634300081a0033","linkReferences":{}},"methodIdentifiers":{"_SIGN_COOLDOWN()":"3ffb788e","allowApprovalDestination(address,string)":"98b3cc39","allowAsset(address,string)":"86b6dbe5","allowCallSite(address,bytes4,string)":"5e4ccace","allowDelegationApprovalDestination(address,string)":"63cc17f2","allowReceiver(address,string)":"72e548a9","allowSender(address,string)":"fa2c59c8","allowWithdrawDestination(address,string)":"5ace1d92","allowedApprovalDestinations(address)":"eb0de042","allowedAssets(address)":"a4c1cccb","allowedCallSites(address,bytes4)":"a847cf4d","allowedCowSwaps(address)":"47566064","allowedDelegationApprovalDestinations(address)":"4b941268","allowedLagoonVaults(address)":"8fb4dff2","allowedReceivers(address)":"3cf20025","allowedSenders(address)":"fadbcf48","allowedTargets(address)":"b8fe8d5f","allowedWithdrawDestinations(address)":"07ef00cf","anyAsset()":"87301608","avatar()":"5aef7de6","callSiteCount()":"a9fc3d4f","getGovernanceAddress()":"73252494","getInternalVersion()":"fdedfa27","getTradingStrategyModuleVersion()":"9e4a83cf","isAllowedApprovalDestination(address)":"1d49039c","isAllowedAsset(address)":"c537bed0","isAllowedCallSite(address,bytes4)":"713ebf3b","isAllowedCowSwap(address)":"333f22e8","isAllowedDelegationApprovalDestination(address)":"2dc32a61","isAllowedLagoonVault(address)":"6fd7fdef","isAllowedReceiver(address)":"d075f9bb","isAllowedSender(address)":"be8c97b0","isAllowedTarget(address)":"78addb48","isAllowedWithdrawDestination(address)":"efb47bff","multicall(bytes[])":"ac9650d8","owner()":"8da5cb5b","performCall(address,bytes)":"d2f73e3d","performCall(address,bytes,uint256)":"486295dc","removeApprovalDestination(address,string)":"04a3ba25","removeAsset(address,string)":"f901dc33","removeCallSite(address,bytes4,string)":"d7334c9d","removeDelegationApprovalDestination(address,string)":"f259a073","removeReceiver(address,string)":"2d12d788","removeSender(address,string)":"a67e1f54","removeWithdrawDestination(address,string)":"8c2fdf9e","renounceOwnership()":"715018a6","setAnyAssetAllowed(bool,string)":"c2e657ae","setAvatar(address)":"086cfca8","setTarget(address)":"776d1a01","setUp(bytes)":"a4f9edbf","swapAndValidateCowSwap(address,address,bytes32,address,address,uint256,uint256)":"4acf884d","target()":"d4b83992","transferOwnership(address)":"f2fde38b","validate1deltaPath(bytes)":"a1b6b430","validateCall(address,address,bytes)":"6d5025f1","validateUniswapV3Path(bytes)":"1c123e77","validate_1deltaDeposit(bytes)":"c4cc9dba","validate_1deltaMulticall(bytes)":"07ac3562","validate_1deltaWithdraw(bytes)":"f76081e4","validate_ERC4626Deposit(address,bytes)":"2c02cda0","validate_ERC4626Redeem(bytes)":"742bfc7e","validate_ERC4626Withdraw(bytes)":"78065086","validate_aaveSupply(bytes)":"d4c0fe45","validate_aaveWithdraw(bytes)":"6a6d5cc8","validate_approve(bytes)":"4b956bd8","validate_approveDelegation(bytes)":"957dc6c0","validate_cowSwapSettlement(bytes)":"adcfa55b","validate_exactInput(bytes)":"ebe26816","validate_exactOutput(bytes)":"e98539c5","validate_flashSwapAllOut(bytes)":"425f49d0","validate_flashSwapExactInt(bytes)":"ca963c50","validate_flashSwapExactOut(bytes)":"6ad11353","validate_lagoonSettle(address)":"b3c329cb","validate_orderlyDelegateSigner(bytes)":"d718f041","validate_orderlyDeposit(bytes)":"6d5176a6","validate_orderlyWithdraw(bytes)":"912ef02d","validate_swapExactTokensForTokens(bytes)":"761bcd9c","validate_transfer(bytes)":"1710a4f2","validate_transferERC20AllIn(bytes)":"7ea44655","validate_transferERC20In(bytes)":"59b92be9","whitelistAaveV3(address,string)":"f20e85e0","whitelistCowSwap(address,address,string)":"1047789e","whitelistERC4626(address,string)":"86a6ae15","whitelistLagoon(address,string)":"5e6afe4d","whitelistOnedelta(address,address,string)":"f26749f3","whitelistOrderly(address,string)":"db17a170","whitelistToken(address,string)":"ee5462cc","whitelistTokenForDelegation(address,string)":"6d9a1423","whitelistUniswapV2Router(address,string)":"3ea35551","whitelistUniswapV3Router(address,string)":"34ec8d7e"},"id":27}