{"abi":[{"type":"constructor","inputs":[{"name":"_owner","type":"address","internalType":"address"},{"name":"_target","type":"address","internalType":"address"}],"stateMutability":"nonpayable"},{"type":"function","name":"_SIGN_COOLDOWN","inputs":[],"outputs":[{"name":"","type":"uint256","internalType":"uint256"}],"stateMutability":"view"},{"type":"function","name":"allowApprovalDestination","inputs":[{"name":"destination","type":"address","internalType":"address"},{"name":"notes","type":"string","internalType":"string"}],"outputs":[],"stateMutability":"nonpayable"},{"type":"function","name":"allowAsset","inputs":[{"name":"asset","type":"address","internalType":"address"},{"name":"notes","type":"string","internalType":"string"}],"outputs":[],"stateMutability":"nonpayable"},{"type":"function","name":"allowCallSite","inputs":[{"name":"target","type":"address","internalType":"address"},{"name":"selector","type":"bytes4","internalType":"bytes4"},{"name":"notes","type":"string","internalType":"string"}],"outputs":[],"stateMutability":"nonpayable"},{"type":"function","name":"allowDelegationApprovalDestination","inputs":[{"name":"destination","type":"address","internalType":"address"},{"name":"notes","type":"string","internalType":"string"}],"outputs":[],"stateMutability":"nonpayable"},{"type":"function","name":"allowReceiver","inputs":[{"name":"receiver","type":"address","internalType":"address"},{"name":"notes","type":"string","internalType":"string"}],"outputs":[],"stateMutability":"nonpayable"},{"type":"function","name":"allowSender","inputs":[{"name":"sender","type":"address","internalType":"address"},{"name":"notes","type":"string","internalType":"string"}],"outputs":[],"stateMutability":"nonpayable"},{"type":"function","name":"allowWithdrawDestination","inputs":[{"name":"destination","type":"address","internalType":"address"},{"name":"notes","type":"string","internalType":"string"}],"outputs":[],"stateMutability":"nonpayable"},{"type":"function","name":"allowedApprovalDestinations","inputs":[{"name":"destination","type":"address","internalType":"address"}],"outputs":[{"name":"allowed","type":"bool","internalType":"bool"}],"stateMutability":"view"},{"type":"function","name":"allowedAssets","inputs":[{"name":"token","type":"address","internalType":"address"}],"outputs":[{"name":"allowed","type":"bool","internalType":"bool"}],"stateMutability":"view"},{"type":"function","name":"allowedCallSites","inputs":[{"name":"target","type":"address","internalType":"address"},{"name":"selector","type":"bytes4","internalType":"bytes4"}],"outputs":[{"name":"allowed","type":"bool","internalType":"bool"}],"stateMutability":"view"},{"type":"function","name":"allowedCowSwaps","inputs":[{"name":"destination","type":"address","internalType":"address"}],"outputs":[{"name":"allowed","type":"bool","internalType":"bool"}],"stateMutability":"view"},{"type":"function","name":"allowedDelegationApprovalDestinations","inputs":[{"name":"destination","type":"address","internalType":"address"}],"outputs":[{"name":"allowed","type":"bool","internalType":"bool"}],"stateMutability":"view"},{"type":"function","name":"allowedLagoonVaults","inputs":[{"name":"destination","type":"address","internalType":"address"}],"outputs":[{"name":"allowed","type":"bool","internalType":"bool"}],"stateMutability":"view"},{"type":"function","name":"allowedReceivers","inputs":[{"name":"receiver","type":"address","internalType":"address"}],"outputs":[{"name":"allowed","type":"bool","internalType":"bool"}],"stateMutability":"view"},{"type":"function","name":"allowedSenders","inputs":[{"name":"sender","type":"address","internalType":"address"}],"outputs":[{"name":"allowed","type":"bool","internalType":"bool"}],"stateMutability":"view"},{"type":"function","name":"allowedTargets","inputs":[{"name":"target","type":"address","internalType":"address"}],"outputs":[{"name":"allowed","type":"bool","internalType":"bool"}],"stateMutability":"view"},{"type":"function","name":"allowedWithdrawDestinations","inputs":[{"name":"destination","type":"address","internalType":"address"}],"outputs":[{"name":"allowed","type":"bool","internalType":"bool"}],"stateMutability":"view"},{"type":"function","name":"anyAsset","inputs":[],"outputs":[{"name":"","type":"bool","internalType":"bool"}],"stateMutability":"view"},{"type":"function","name":"avatar","inputs":[],"outputs":[{"name":"","type":"address","internalType":"address"}],"stateMutability":"view"},{"type":"function","name":"callSiteCount","inputs":[],"outputs":[{"name":"","type":"uint256","internalType":"uint256"}],"stateMutability":"view"},{"type":"function","name":"getGovernanceAddress","inputs":[],"outputs":[{"name":"","type":"address","internalType":"address"}],"stateMutability":"view"},{"type":"function","name":"getInternalVersion","inputs":[],"outputs":[{"name":"","type":"uint8","internalType":"uint8"}],"stateMutability":"pure"},{"type":"function","name":"getTradingStrategyModuleVersion","inputs":[],"outputs":[{"name":"","type":"string","internalType":"string"}],"stateMutability":"pure"},{"type":"function","name":"isAllowedApprovalDestination","inputs":[{"name":"receiver","type":"address","internalType":"address"}],"outputs":[{"name":"","type":"bool","internalType":"bool"}],"stateMutability":"view"},{"type":"function","name":"isAllowedAsset","inputs":[{"name":"token","type":"address","internalType":"address"}],"outputs":[{"name":"","type":"bool","internalType":"bool"}],"stateMutability":"view"},{"type":"function","name":"isAllowedCallSite","inputs":[{"name":"target","type":"address","internalType":"address"},{"name":"selector","type":"bytes4","internalType":"bytes4"}],"outputs":[{"name":"","type":"bool","internalType":"bool"}],"stateMutability":"view"},{"type":"function","name":"isAllowedCowSwap","inputs":[{"name":"settlement","type":"address","internalType":"address"}],"outputs":[{"name":"","type":"bool","internalType":"bool"}],"stateMutability":"view"},{"type":"function","name":"isAllowedDelegationApprovalDestination","inputs":[{"name":"receiver","type":"address","internalType":"address"}],"outputs":[{"name":"","type":"bool","internalType":"bool"}],"stateMutability":"view"},{"type":"function","name":"isAllowedLagoonVault","inputs":[{"name":"vault","type":"address","internalType":"address"}],"outputs":[{"name":"","type":"bool","internalType":"bool"}],"stateMutability":"view"},{"type":"function","name":"isAllowedReceiver","inputs":[{"name":"receiver","type":"address","internalType":"address"}],"outputs":[{"name":"","type":"bool","internalType":"bool"}],"stateMutability":"view"},{"type":"function","name":"isAllowedSender","inputs":[{"name":"sender","type":"address","internalType":"address"}],"outputs":[{"name":"","type":"bool","internalType":"bool"}],"stateMutability":"view"},{"type":"function","name":"isAllowedTarget","inputs":[{"name":"target","type":"address","internalType":"address"}],"outputs":[{"name":"","type":"bool","internalType":"bool"}],"stateMutability":"view"},{"type":"function","name":"isAllowedWithdrawDestination","inputs":[{"name":"receiver","type":"address","internalType":"address"}],"outputs":[{"name":"","type":"bool","internalType":"bool"}],"stateMutability":"view"},{"type":"function","name":"multicall","inputs":[{"name":"data","type":"bytes[]","internalType":"bytes[]"}],"outputs":[{"name":"results","type":"bytes[]","internalType":"bytes[]"}],"stateMutability":"payable"},{"type":"function","name":"owner","inputs":[],"outputs":[{"name":"","type":"address","internalType":"address"}],"stateMutability":"view"},{"type":"function","name":"performCall","inputs":[{"name":"target","type":"address","internalType":"address"},{"name":"callData","type":"bytes","internalType":"bytes"},{"name":"value","type":"uint256","internalType":"uint256"}],"outputs":[],"stateMutability":"nonpayable"},{"type":"function","name":"performCall","inputs":[{"name":"target","type":"address","internalType":"address"},{"name":"callData","type":"bytes","internalType":"bytes"}],"outputs":[],"stateMutability":"nonpayable"},{"type":"function","name":"removeApprovalDestination","inputs":[{"name":"destination","type":"address","internalType":"address"},{"name":"notes","type":"string","internalType":"string"}],"outputs":[],"stateMutability":"nonpayable"},{"type":"function","name":"removeAsset","inputs":[{"name":"asset","type":"address","internalType":"address"},{"name":"notes","type":"string","internalType":"string"}],"outputs":[],"stateMutability":"nonpayable"},{"type":"function","name":"removeCallSite","inputs":[{"name":"target","type":"address","internalType":"address"},{"name":"selector","type":"bytes4","internalType":"bytes4"},{"name":"notes","type":"string","internalType":"string"}],"outputs":[],"stateMutability":"nonpayable"},{"type":"function","name":"removeDelegationApprovalDestination","inputs":[{"name":"destination","type":"address","internalType":"address"},{"name":"notes","type":"string","internalType":"string"}],"outputs":[],"stateMutability":"nonpayable"},{"type":"function","name":"removeReceiver","inputs":[{"name":"receiver","type":"address","internalType":"address"},{"name":"notes","type":"string","internalType":"string"}],"outputs":[],"stateMutability":"nonpayable"},{"type":"function","name":"removeSender","inputs":[{"name":"sender","type":"address","internalType":"address"},{"name":"notes","type":"string","internalType":"string"}],"outputs":[],"stateMutability":"nonpayable"},{"type":"function","name":"removeWithdrawDestination","inputs":[{"name":"destination","type":"address","internalType":"address"},{"name":"notes","type":"string","internalType":"string"}],"outputs":[],"stateMutability":"nonpayable"},{"type":"function","name":"renounceOwnership","inputs":[],"outputs":[],"stateMutability":"nonpayable"},{"type":"function","name":"setAnyAssetAllowed","inputs":[{"name":"value","type":"bool","internalType":"bool"},{"name":"notes","type":"string","internalType":"string"}],"outputs":[],"stateMutability":"nonpayable"},{"type":"function","name":"setAvatar","inputs":[{"name":"_avatar","type":"address","internalType":"address"}],"outputs":[],"stateMutability":"nonpayable"},{"type":"function","name":"setTarget","inputs":[{"name":"_target","type":"address","internalType":"address"}],"outputs":[],"stateMutability":"nonpayable"},{"type":"function","name":"setUp","inputs":[{"name":"initializeParams","type":"bytes","internalType":"bytes"}],"outputs":[],"stateMutability":"nonpayable"},{"type":"function","name":"swapAndValidateCowSwap","inputs":[{"name":"settlementContract","type":"address","internalType":"address"},{"name":"receiver","type":"address","internalType":"address"},{"name":"appData","type":"bytes32","internalType":"bytes32"},{"name":"tokenIn","type":"address","internalType":"address"},{"name":"tokenOut","type":"address","internalType":"address"},{"name":"amountIn","type":"uint256","internalType":"uint256"},{"name":"minAmountOut","type":"uint256","internalType":"uint256"}],"outputs":[{"name":"","type":"bytes","internalType":"bytes"}],"stateMutability":"nonpayable"},{"type":"function","name":"target","inputs":[],"outputs":[{"name":"","type":"address","internalType":"address"}],"stateMutability":"view"},{"type":"function","name":"transferOwnership","inputs":[{"name":"newOwner","type":"address","internalType":"address"}],"outputs":[],"stateMutability":"nonpayable"},{"type":"function","name":"validate1deltaPath","inputs":[{"name":"path","type":"bytes","internalType":"bytes"}],"outputs":[],"stateMutability":"view"},{"type":"function","name":"validateCall","inputs":[{"name":"sender","type":"address","internalType":"address"},{"name":"target","type":"address","internalType":"address"},{"name":"callDataWithSelector","type":"bytes","internalType":"bytes"}],"outputs":[],"stateMutability":"view"},{"type":"function","name":"validateUniswapV3Path","inputs":[{"name":"path","type":"bytes","internalType":"bytes"}],"outputs":[],"stateMutability":"view"},{"type":"function","name":"validate_1deltaDeposit","inputs":[{"name":"callData","type":"bytes","internalType":"bytes"}],"outputs":[],"stateMutability":"view"},{"type":"function","name":"validate_1deltaMulticall","inputs":[{"name":"callData","type":"bytes","internalType":"bytes"}],"outputs":[],"stateMutability":"view"},{"type":"function","name":"validate_1deltaWithdraw","inputs":[{"name":"callData","type":"bytes","internalType":"bytes"}],"outputs":[],"stateMutability":"view"},{"type":"function","name":"validate_ERC4626Deposit","inputs":[{"name":"target","type":"address","internalType":"address"},{"name":"callData","type":"bytes","internalType":"bytes"}],"outputs":[],"stateMutability":"view"},{"type":"function","name":"validate_ERC4626Redeem","inputs":[{"name":"callData","type":"bytes","internalType":"bytes"}],"outputs":[],"stateMutability":"view"},{"type":"function","name":"validate_ERC4626Withdraw","inputs":[{"name":"callData","type":"bytes","internalType":"bytes"}],"outputs":[],"stateMutability":"view"},{"type":"function","name":"validate_aaveSupply","inputs":[{"name":"callData","type":"bytes","internalType":"bytes"}],"outputs":[],"stateMutability":"view"},{"type":"function","name":"validate_aaveWithdraw","inputs":[{"name":"callData","type":"bytes","internalType":"bytes"}],"outputs":[],"stateMutability":"view"},{"type":"function","name":"validate_approve","inputs":[{"name":"callData","type":"bytes","internalType":"bytes"}],"outputs":[],"stateMutability":"view"},{"type":"function","name":"validate_approveDelegation","inputs":[{"name":"callData","type":"bytes","internalType":"bytes"}],"outputs":[],"stateMutability":"view"},{"type":"function","name":"validate_cowSwapSettlement","inputs":[{"name":"callData","type":"bytes","internalType":"bytes"}],"outputs":[],"stateMutability":"view"},{"type":"function","name":"validate_exactInput","inputs":[{"name":"callData","type":"bytes","internalType":"bytes"}],"outputs":[],"stateMutability":"view"},{"type":"function","name":"validate_exactOutput","inputs":[{"name":"callData","type":"bytes","internalType":"bytes"}],"outputs":[],"stateMutability":"view"},{"type":"function","name":"validate_flashSwapAllOut","inputs":[{"name":"callData","type":"bytes","internalType":"bytes"}],"outputs":[],"stateMutability":"view"},{"type":"function","name":"validate_flashSwapExactInt","inputs":[{"name":"callData","type":"bytes","internalType":"bytes"}],"outputs":[],"stateMutability":"view"},{"type":"function","name":"validate_flashSwapExactOut","inputs":[{"name":"callData","type":"bytes","internalType":"bytes"}],"outputs":[],"stateMutability":"view"},{"type":"function","name":"validate_lagoonSettle","inputs":[{"name":"vault","type":"address","internalType":"address"}],"outputs":[],"stateMutability":"view"},{"type":"function","name":"validate_orderlyDelegateSigner","inputs":[{"name":"callData","type":"bytes","internalType":"bytes"}],"outputs":[],"stateMutability":"view"},{"type":"function","name":"validate_orderlyDeposit","inputs":[{"name":"callData","type":"bytes","internalType":"bytes"}],"outputs":[],"stateMutability":"view"},{"type":"function","name":"validate_orderlyWithdraw","inputs":[{"name":"callData","type":"bytes","internalType":"bytes"}],"outputs":[],"stateMutability":"view"},{"type":"function","name":"validate_swapExactTokensForTokens","inputs":[{"name":"callData","type":"bytes","internalType":"bytes"}],"outputs":[],"stateMutability":"view"},{"type":"function","name":"validate_transfer","inputs":[{"name":"callData","type":"bytes","internalType":"bytes"}],"outputs":[],"stateMutability":"view"},{"type":"function","name":"validate_transferERC20AllIn","inputs":[{"name":"callData","type":"bytes","internalType":"bytes"}],"outputs":[],"stateMutability":"view"},{"type":"function","name":"validate_transferERC20In","inputs":[{"name":"callData","type":"bytes","internalType":"bytes"}],"outputs":[],"stateMutability":"view"},{"type":"function","name":"whitelistAaveV3","inputs":[{"name":"lendingPool","type":"address","internalType":"address"},{"name":"notes","type":"string","internalType":"string"}],"outputs":[],"stateMutability":"nonpayable"},{"type":"function","name":"whitelistCowSwap","inputs":[{"name":"settlementContract","type":"address","internalType":"address"},{"name":"notes","type":"string","internalType":"string"}],"outputs":[],"stateMutability":"nonpayable"},{"type":"function","name":"whitelistERC4626","inputs":[{"name":"vault","type":"address","internalType":"address"},{"name":"notes","type":"string","internalType":"string"}],"outputs":[],"stateMutability":"nonpayable"},{"type":"function","name":"whitelistLagoon","inputs":[{"name":"vault","type":"address","internalType":"address"},{"name":"notes","type":"string","internalType":"string"}],"outputs":[],"stateMutability":"nonpayable"},{"type":"function","name":"whitelistOnedelta","inputs":[{"name":"brokerProxy","type":"address","internalType":"address"},{"name":"lendingPool","type":"address","internalType":"address"},{"name":"notes","type":"string","internalType":"string"}],"outputs":[],"stateMutability":"nonpayable"},{"type":"function","name":"whitelistOrderly","inputs":[{"name":"orderlyVault","type":"address","internalType":"address"},{"name":"notes","type":"string","internalType":"string"}],"outputs":[],"stateMutability":"nonpayable"},{"type":"function","name":"whitelistToken","inputs":[{"name":"token","type":"address","internalType":"address"},{"name":"notes","type":"string","internalType":"string"}],"outputs":[],"stateMutability":"nonpayable"},{"type":"function","name":"whitelistTokenForDelegation","inputs":[{"name":"token","type":"address","internalType":"address"},{"name":"notes","type":"string","internalType":"string"}],"outputs":[],"stateMutability":"nonpayable"},{"type":"function","name":"whitelistUniswapV2Router","inputs":[{"name":"router","type":"address","internalType":"address"},{"name":"notes","type":"string","internalType":"string"}],"outputs":[],"stateMutability":"nonpayable"},{"type":"function","name":"whitelistUniswapV3Router","inputs":[{"name":"router","type":"address","internalType":"address"},{"name":"notes","type":"string","internalType":"string"}],"outputs":[],"stateMutability":"nonpayable"},{"type":"event","name":"AnyAssetSet","inputs":[{"name":"value","type":"bool","indexed":false,"internalType":"bool"},{"name":"notes","type":"string","indexed":false,"internalType":"string"}],"anonymous":false},{"type":"event","name":"AnyVaultSet","inputs":[{"name":"value","type":"bool","indexed":false,"internalType":"bool"},{"name":"notes","type":"string","indexed":false,"internalType":"string"}],"anonymous":false},{"type":"event","name":"ApprovalDestinationApproved","inputs":[{"name":"sender","type":"address","indexed":false,"internalType":"address"},{"name":"notes","type":"string","indexed":false,"internalType":"string"}],"anonymous":false},{"type":"event","name":"ApprovalDestinationRemoved","inputs":[{"name":"sender","type":"address","indexed":false,"internalType":"address"},{"name":"notes","type":"string","indexed":false,"internalType":"string"}],"anonymous":false},{"type":"event","name":"AssetApproved","inputs":[{"name":"sender","type":"address","indexed":false,"internalType":"address"},{"name":"notes","type":"string","indexed":false,"internalType":"string"}],"anonymous":false},{"type":"event","name":"AssetRemoved","inputs":[{"name":"sender","type":"address","indexed":false,"internalType":"address"},{"name":"notes","type":"string","indexed":false,"internalType":"string"}],"anonymous":false},{"type":"event","name":"AvatarSet","inputs":[{"name":"previousAvatar","type":"address","indexed":true,"internalType":"address"},{"name":"newAvatar","type":"address","indexed":true,"internalType":"address"}],"anonymous":false},{"type":"event","name":"CallSiteApproved","inputs":[{"name":"target","type":"address","indexed":false,"internalType":"address"},{"name":"selector","type":"bytes4","indexed":false,"internalType":"bytes4"},{"name":"notes","type":"string","indexed":false,"internalType":"string"}],"anonymous":false},{"type":"event","name":"CallSiteRemoved","inputs":[{"name":"target","type":"address","indexed":false,"internalType":"address"},{"name":"selector","type":"bytes4","indexed":false,"internalType":"bytes4"},{"name":"notes","type":"string","indexed":false,"internalType":"string"}],"anonymous":false},{"type":"event","name":"CowSwapApproved","inputs":[{"name":"settlementContract","type":"address","indexed":false,"internalType":"address"},{"name":"notes","type":"string","indexed":false,"internalType":"string"}],"anonymous":false},{"type":"event","name":"DelegationApprovalDestinationApproved","inputs":[{"name":"sender","type":"address","indexed":false,"internalType":"address"},{"name":"notes","type":"string","indexed":false,"internalType":"string"}],"anonymous":false},{"type":"event","name":"DelegationApprovalDestinationRemoved","inputs":[{"name":"sender","type":"address","indexed":false,"internalType":"address"},{"name":"notes","type":"string","indexed":false,"internalType":"string"}],"anonymous":false},{"type":"event","name":"ERC4626Approved","inputs":[{"name":"vault","type":"address","indexed":false,"internalType":"address"},{"name":"notes","type":"string","indexed":false,"internalType":"string"}],"anonymous":false},{"type":"event","name":"Initialized","inputs":[{"name":"version","type":"uint64","indexed":false,"internalType":"uint64"}],"anonymous":false},{"type":"event","name":"LagoonVaultApproved","inputs":[{"name":"vault","type":"address","indexed":false,"internalType":"address"},{"name":"notes","type":"string","indexed":false,"internalType":"string"}],"anonymous":false},{"type":"event","name":"OrderSigned","inputs":[{"name":"timestamp","type":"uint256","indexed":true,"internalType":"uint256"},{"name":"orderUid","type":"bytes","indexed":false,"internalType":"bytes"},{"name":"order","type":"tuple","indexed":false,"internalType":"struct GPv2Order.Data","components":[{"name":"sellToken","type":"address","internalType":"contract IERC20"},{"name":"buyToken","type":"address","internalType":"contract IERC20"},{"name":"receiver","type":"address","internalType":"address"},{"name":"sellAmount","type":"uint256","internalType":"uint256"},{"name":"buyAmount","type":"uint256","internalType":"uint256"},{"name":"validTo","type":"uint32","internalType":"uint32"},{"name":"appData","type":"bytes32","internalType":"bytes32"},{"name":"feeAmount","type":"uint256","internalType":"uint256"},{"name":"kind","type":"bytes32","internalType":"bytes32"},{"name":"partiallyFillable","type":"bool","internalType":"bool"},{"name":"sellTokenBalance","type":"bytes32","internalType":"bytes32"},{"name":"buyTokenBalance","type":"bytes32","internalType":"bytes32"}]},{"name":"validTo","type":"uint32","indexed":false,"internalType":"uint32"},{"name":"buyAmount","type":"uint256","indexed":false,"internalType":"uint256"},{"name":"sellAmount","type":"uint256","indexed":false,"internalType":"uint256"}],"anonymous":false},{"type":"event","name":"OwnershipTransferred","inputs":[{"name":"previousOwner","type":"address","indexed":true,"internalType":"address"},{"name":"newOwner","type":"address","indexed":true,"internalType":"address"}],"anonymous":false},{"type":"event","name":"ReceiverApproved","inputs":[{"name":"sender","type":"address","indexed":false,"internalType":"address"},{"name":"notes","type":"string","indexed":false,"internalType":"string"}],"anonymous":false},{"type":"event","name":"ReceiverRemoved","inputs":[{"name":"sender","type":"address","indexed":false,"internalType":"address"},{"name":"notes","type":"string","indexed":false,"internalType":"string"}],"anonymous":false},{"type":"event","name":"SenderApproved","inputs":[{"name":"sender","type":"address","indexed":false,"internalType":"address"},{"name":"notes","type":"string","indexed":false,"internalType":"string"}],"anonymous":false},{"type":"event","name":"SenderRemoved","inputs":[{"name":"sender","type":"address","indexed":false,"internalType":"address"},{"name":"notes","type":"string","indexed":false,"internalType":"string"}],"anonymous":false},{"type":"event","name":"TargetSet","inputs":[{"name":"previousTarget","type":"address","indexed":true,"internalType":"address"},{"name":"newTarget","type":"address","indexed":true,"internalType":"address"}],"anonymous":false},{"type":"event","name":"WithdrawDestinationApproved","inputs":[{"name":"sender","type":"address","indexed":false,"internalType":"address"},{"name":"notes","type":"string","indexed":false,"internalType":"string"}],"anonymous":false},{"type":"event","name":"WithdrawDestinationRemoved","inputs":[{"name":"sender","type":"address","indexed":false,"internalType":"address"},{"name":"notes","type":"string","indexed":false,"internalType":"string"}],"anonymous":false},{"type":"error","name":"InvalidInitialization","inputs":[]},{"type":"error","name":"NotInitializing","inputs":[]},{"type":"error","name":"OwnableInvalidOwner","inputs":[{"name":"owner","type":"address","internalType":"address"}]},{"type":"error","name":"OwnableUnauthorizedAccount","inputs":[{"name":"account","type":"address","internalType":"address"}]}],"bytecode":{"object":"0x608060405234801561000f575f80fd5b506040516161da3803806161da83398101604081905261002e916103f1565b604080516001600160a01b03848116602083015283168183015281518082038301815260609091019091526100628161006a565b505050610429565b7ff0c57e16840df040f15088dc2f81fe391c3923bec73e23a9662efc9c229c6a00805468010000000000000000810460ff1615906001600160401b03165f811580156100b35750825b90505f826001600160401b031660011480156100ce5750303b155b9050811580156100dc575080155b156100fa5760405163f92ee8a960e01b815260040160405180910390fd5b84546001600160401b0319166001178555831561012857845460ff60401b1916680100000000000000001785555b610131336101b7565b5f808780602001905181019061014791906103f1565b9092509050610155816101cb565b61015e81610222565b6101678261027b565b505083156101af57845460ff60401b19168555604051600181527fc7f505b2f371ae2175ee4913f4499e1f2633a7b5936321eed1cdaeb6115181d29060200160405180910390a15b505050505050565b6101bf6102ba565b6101c88161030a565b50565b6101d3610312565b5f80546001600160a01b038381166001600160a01b0319831681178455604051919092169283917f52ae88b092de36f87fb43fe794eb1381023b9c1bce563a871154022c63dce3429190a35050565b61022a610312565b600180546001600160a01b038381166001600160a01b0319831681179093556040519116919082907f90cc2f570a6eb594b1580ea3e41247d2d73a55281889e86bd4ec2fc29c7e62d6905f90a35050565b610283610312565b6001600160a01b0381166102b157604051631e4fbdf760e01b81525f60048201526024015b60405180910390fd5b6101c88161036d565b7ff0c57e16840df040f15088dc2f81fe391c3923bec73e23a9662efc9c229c6a005468010000000000000000900460ff1661030857604051631afcd79f60e31b815260040160405180910390fd5b565b6102836102ba565b336103447f9016d09d72d40fdae2fd8ceac6b6234c7706214fd39c1cd1e609a0528c199300546001600160a01b031690565b6001600160a01b0316146103085760405163118cdaa760e01b81523360048201526024016102a8565b7f9016d09d72d40fdae2fd8ceac6b6234c7706214fd39c1cd1e609a0528c19930080546001600160a01b031981166001600160a01b03848116918217845560405192169182907f8be0079c531659141344cd1fd0a4f28419497f9722a3daafe3b4186f6b6457e0905f90a3505050565b6001600160a01b03811681146101c8575f80fd5b5f8060408385031215610402575f80fd5b825161040d816103dd565b602084015190925061041e816103dd565b809150509250929050565b615da4806104365f395ff3fe608060405260043610610567575f3560e01c806387301608116102c3578063c537bed011610182578063ebe26816116100e7578063f2fde38b11610092578063fa2c59c81161006d578063fa2c59c814611116578063fadbcf4814611135578063fdedfa2714611163575f80fd5b8063f2fde38b146110b9578063f76081e4146110d8578063f901dc33146110f7575f80fd5b8063f20e85e0116100c2578063f20e85e01461107b578063f259a0731461056b578063f26749f31461109a575f80fd5b8063ebe2681614611001578063ee5462cc14611020578063efb47bff1461103f575f80fd5b8063d4c0fe4511610147578063db17a17011610122578063db17a17014610f95578063e98539c514610fb4578063eb0de04214610fd3575f80fd5b8063d4c0fe4514610f57578063d718f041146109de578063d7334c9d14610f76575f80fd5b8063c537bed014610ebe578063ca963c50146109a0578063d075f9bb14610edd578063d2f73e3d14610f19578063d4b8399214610f38575f80fd5b8063a67e1f5411610228578063b3c329cb116101ed578063c0f96f24116101c8578063c0f96f2414610e61578063c2e657ae14610e80578063c4cc9dba14610e9f575f80fd5b8063b3c329cb14610dd8578063b8fe8d5f14610df7578063be8c97b014610e25575f80fd5b8063a67e1f5414610d4b578063a847cf4d14610d6a578063a9fc3d4f14610da3578063ac9650d814610db8578063adcfa55b14610b19575f80fd5b8063957dc6c011610288578063a1b6b43011610263578063a1b6b43014610cdf578063a4c1cccb14610cfe578063a4f9edbf14610d2c575f80fd5b8063957dc6c014610c7357806398b3cc3914610c925780639e4a83cf14610cb1575f80fd5b80638730160814610bd15780638c2fdf9e14610bea5780638da5cb5b14610c095780638fb4dff214610c45578063912ef02d146109de575f80fd5b80635ace1d9211610429578063713ebf3b1161038e578063776d1a01116103395780637ea44655116103145780637ea4465514610b7457806386a6ae1514610b9357806386b6dbe514610bb2575f80fd5b8063776d1a0114610afa5780637806508614610b1957806378addb4814610b38575f80fd5b806373252494116103695780637325249414610aa8578063742bfc7e14610abc578063761bcd9c14610adb575f80fd5b8063713ebf3b14610a56578063715018a614610a7557806372e548a914610a89575f80fd5b80636a6d5cc8116103ee5780636d5176a6116103c95780636d5176a6146109de5780636d9a1423146109fb5780636fd7fdef14610a1a575f80fd5b80636a6d5cc8146109815780636ad11353146109a05780636d5025f1146109bf575f80fd5b80635ace1d92146108cf5780635aef7de6146108ee5780635e4ccace146109245780635e6afe4d1461094357806363cc17f214610962575f80fd5b806334ec8d7e116104cf57806347566064116104945780634b9412681161046f5780634b941268146108635780634b956bd81461089157806359b92be9146108b0575f80fd5b806347566064146107ea578063486295dc146108185780634acf884d14610837575f80fd5b806334ec8d7e1461073c5780633cf200251461075b5780633ea35551146107895780633ffb788e146107a8578063425f49d0146107cb575f80fd5b80631c123e771161052f5780632d12d7881161050a5780632d12d788146106a55780632dc32a61146106c4578063333f22e814610700575f80fd5b80631c123e771461062c5780631d49039c1461064b5780632c02cda014610687575f80fd5b806304a3ba251461056b57806307ac35621461058c57806307ef00cf146105ab578063086cfca8146105ee5780631710a4f21461060d575b5f80fd5b348015610576575f80fd5b5061058a610585366004614d4f565b61117e565b005b348015610597575f80fd5b5061058a6105a6366004614e5b565b6111e6565b3480156105b6575f80fd5b506105d96105c5366004614e94565b60086020525f908152604090205460ff1681565b60405190151581526020015b60405180910390f35b3480156105f9575f80fd5b5061058a610608366004614e94565b61152b565b348015610618575f80fd5b5061058a610627366004614e5b565b611582565b348015610637575f80fd5b5061058a610646366004614e5b565b611632565b348015610656575f80fd5b506105d9610665366004614e94565b6001600160a01b03165f9081526009602052604090205460ff16151560011490565b348015610692575f80fd5b5061058a6106a1366004614eb6565b5050565b3480156106b0575f80fd5b5061058a6106bf366004614d4f565b61172d565b3480156106cf575f80fd5b506105d96106de366004614e94565b6001600160a01b03165f908152600a602052604090205460ff16151560011490565b34801561070b575f80fd5b506105d961071a366004614e94565b6001600160a01b03165f908152600c602052604090205460ff16151560011490565b348015610747575f80fd5b5061058a610756366004614d4f565b611788565b348015610766575f80fd5b506105d9610775366004614e94565b60076020525f908152604090205460ff1681565b348015610794575f80fd5b5061058a6107a3366004614d4f565b611803565b3480156107b3575f80fd5b506107bd6104b081565b6040519081526020016105e5565b3480156107d6575f80fd5b5061058a6107e5366004614e5b565b611859565b3480156107f5575f80fd5b506105d9610804366004614e94565b600c6020525f908152604090205460ff1681565b348015610823575f80fd5b5061058a610832366004614f02565b61187a565b348015610842575f80fd5b50610856610851366004614f59565b6118e3565b6040516105e59190614ffc565b34801561086e575f80fd5b506105d961087d366004614e94565b600a6020525f908152604090205460ff1681565b34801561089c575f80fd5b5061058a6108ab366004614e5b565b611900565b3480156108bb575f80fd5b5061058a6108ca366004614e5b565b6119a3565b3480156108da575f80fd5b5061058a6108e9366004614d4f565b611a24565b3480156108f9575f80fd5b505f5461090c906001600160a01b031681565b6040516001600160a01b0390911681526020016105e5565b34801561092f575f80fd5b5061058a61093e36600461502a565b611a82565b34801561094e575f80fd5b5061058a61095d366004614d4f565b611b2e565b34801561096d575f80fd5b5061058a61097c366004614d4f565b611cda565b34801561098c575f80fd5b5061058a61099b366004614e5b565b611d38565b3480156109ab575f80fd5b5061058a6109ba366004614e5b565b611e20565b3480156109ca575f80fd5b5061058a6109d9366004615088565b611e42565b3480156109e9575f80fd5b5061058a6109f8366004614e5b565b50565b348015610a06575f80fd5b5061058a610a15366004614d4f565b611e54565b348015610a25575f80fd5b506105d9610a34366004614e94565b6001600160a01b03165f908152600b602052604090205460ff16151560011490565b348015610a61575f80fd5b506105d9610a703660046150b6565b611e8a565b348015610a80575f80fd5b5061058a611ec1565b348015610a94575f80fd5b5061058a610aa3366004614d4f565b611ed4565b348015610ab3575f80fd5b5061090c611f32565b348015610ac7575f80fd5b5061058a610ad6366004614e5b565b611f69565b348015610ae6575f80fd5b5061058a610af5366004614e5b565b612024565b348015610b05575f80fd5b5061058a610b14366004614e94565b61216e565b348015610b24575f80fd5b5061058a610b33366004614e5b565b6121c7565b348015610b43575f80fd5b506105d9610b52366004614e94565b6001600160a01b03165f9081526003602052604090205460ff16151560011490565b348015610b7f575f80fd5b5061058a610b8e366004614e5b565b612286565b348015610b9e575f80fd5b5061058a610bad366004614d4f565b612309565b348015610bbd575f80fd5b5061058a610bcc366004614d4f565b6125ca565b348015610bdc575f80fd5b50600d546105d99060ff1681565b348015610bf5575f80fd5b5061058a610c04366004614d4f565b612628565b348015610c14575f80fd5b507f9016d09d72d40fdae2fd8ceac6b6234c7706214fd39c1cd1e609a0528c199300546001600160a01b031661090c565b348015610c50575f80fd5b506105d9610c5f366004614e94565b600b6020525f908152604090205460ff1681565b348015610c7e575f80fd5b5061058a610c8d366004614e5b565b612683565b348015610c9d575f80fd5b5061058a610cac366004614d4f565b612741565b348015610cbc575f80fd5b5060408051808201909152600681526576302e312e3360d01b6020820152610856565b348015610cea575f80fd5b5061058a610cf9366004614e5b565b61279f565b348015610d09575f80fd5b506105d9610d18366004614e94565b60056020525f908152604090205460ff1681565b348015610d37575f80fd5b5061058a610d46366004614e5b565b612961565b348015610d56575f80fd5b5061058a610d65366004614d4f565b612aa2565b348015610d75575f80fd5b506105d9610d843660046150b6565b600260209081525f928352604080842090915290825290205460ff1681565b348015610dae575f80fd5b506107bd60045481565b610dcb610dc63660046150e9565b612afd565b6040516105e59190615158565b348015610de3575f80fd5b5061058a610df2366004614e94565b612c43565b348015610e02575f80fd5b506105d9610e11366004614e94565b60036020525f908152604090205460ff1681565b348015610e30575f80fd5b506105d9610e3f366004614e94565b6001600160a01b03165f9081526006602052604090205460ff16151560011490565b348015610e6c575f80fd5b5061058a610e7b366004614d4f565b612cb5565b348015610e8b575f80fd5b5061058a610e9a3660046151c8565b612d16565b348015610eaa575f80fd5b5061058a610eb9366004614e5b565b612d60565b348015610ec9575f80fd5b506105d9610ed8366004614e94565b612e7e565b348015610ee8575f80fd5b506105d9610ef7366004614e94565b6001600160a01b03165f9081526007602052604090205460ff16151560011490565b348015610f24575f80fd5b5061058a610f33366004614d4f565b612eaf565b348015610f43575f80fd5b5060015461090c906001600160a01b031681565b348015610f62575f80fd5b5061058a610f71366004614e5b565b612ebb565b348015610f81575f80fd5b5061058a610f9036600461502a565b612f1e565b348015610fa0575f80fd5b5061058a610faf366004614d4f565b612f90565b348015610fbf575f80fd5b5061058a610fce366004614e5b565b613011565b348015610fde575f80fd5b506105d9610fed366004614e94565b60096020525f908152604090205460ff1681565b34801561100c575f80fd5b5061058a61101b366004614e5b565b6130cf565b34801561102b575f80fd5b5061058a61103a366004614d4f565b613182565b34801561104a575f80fd5b506105d9611059366004614e94565b6001600160a01b03165f9081526008602052604090205460ff16151560011490565b348015611086575f80fd5b5061058a611095366004614d4f565b61318d565b3480156110a5575f80fd5b5061058a6110b4366004615088565b6131e3565b3480156110c4575f80fd5b5061058a6110d3366004614e94565b613258565b3480156110e3575f80fd5b5061058a6110f2366004614e5b565b613292565b348015611102575f80fd5b5061058a611111366004614d4f565b61330d565b348015611121575f80fd5b5061058a611130366004614d4f565b613368565b348015611140575f80fd5b506105d961114f366004614e94565b60066020525f908152604090205460ff1681565b34801561116e575f80fd5b50604051600181526020016105e5565b6111866133c6565b6001600160a01b0383165f9081526009602052604090819020805460ff19169055517fb71be9befd3ac90c1c9981d3b1161b3c2c6dcd741f13b34061aa251226a802df906111d99085908590859061520d565b60405180910390a1505050565b5f818060200190518101906111fb91906152ae565b90505f5b8151811015611526575f82828151811061121b5761121b61535d565b602002602001015190505f61123c5f6004846134219092919063ffffffff16565b61124590615371565b90505f611262600480855161125a91906153c3565b859190613421565b6040805180820190915260208082527f7472616e736665724552433230496e28616464726573732c75696e74323536299101529050631dac092b60e11b6001600160e01b03198316016112bd576112b8816119a3565b61151b565b60408051808201909152601b81527f7472616e736665724552433230416c6c496e2861646472657373290000000000602090910152635cf59cb760e11b6001600160e01b0319831601611313576112b881612286565b60408051808201909152601881527f6465706f73697428616464726573732c6164647265737329000000000000000060209091015262d3ec1f60e31b6001600160e01b0319831601611368576112b881612d60565b60408051808201909152601981527f776974686472617728616464726573732c6164647265737329000000000000006020909101526306bf1c7b60e01b6001600160e01b03198316016113be576112b881613292565b6113e5604051806060016040528060278152602001615d1460279139805160209091012090565b6001600160e01b031916826001600160e01b03191603611408576112b881611e20565b61142f604051806060016040528060288152602001615cec60289139805160209091012090565b6001600160e01b031916826001600160e01b03191603611452576112b881611e20565b60408051808201909152601e81527f666c61736853776170416c6c4f75742875696e743235362c627974657329000060209091015263d2b3d16560e01b6001600160e01b03198316016114a8576112b881611859565b60405162461bcd60e51b815260206004820152603360248201527f76616c69646174655f3164656c74614d756c746963616c6c3a20556e6b6e6f7760448201527f6e2066756e6374696f6e2073656c6563746f720000000000000000000000000060648201526084015b60405180910390fd5b5050506001016111ff565b505050565b6115336133c6565b5f80546001600160a01b038381166001600160a01b0319831681178455604051919092169283917f52ae88b092de36f87fb43fe794eb1381023b9c1bce563a871154022c63dce3429190a35050565b5f8180602001905181019061159791906153e1565b5090506115c0816001600160a01b03165f9081526008602052604090205460ff16151560011490565b6106a15760405162461bcd60e51b815260206004820152603c60248201527f76616c69646174655f7472616e736665723a205265636569766572206164647260448201527f657373206e6f742077686974656c6973746564206279204775617264000000006064820152608401611512565b5f805b61163e83613583565b509250905061164c82612e7e565b6116a95760405162461bcd60e51b815260206004820152602860248201527f76616c6964617465556e69737761705633506174683a20546f6b656e206e6f7460448201526708185b1b1bddd95960c21b6064820152608401611512565b6116b281612e7e565b61170f5760405162461bcd60e51b815260206004820152602860248201527f76616c6964617465556e69737761705633506174683a20546f6b656e206e6f7460448201526708185b1b1bddd95960c21b6064820152608401611512565b611718836135be565b1561152657611726836135f7565b9250611635565b6117356133c6565b6001600160a01b0383165f9081526007602052604090819020805460ff19169055517f4e13b11ab98e672bd78295ef9cebe764dc617f95decf47d842c25b83abc0c724906111d99085908590859061520d565b6117ba836117b3604051806060016040528060338152602001615cb960339139805160209091012090565b8484611a82565b6117e5836117b3604051806060016040528060348152602001615d3b60349139805160209091012090565b6117f88363b858183f60e01b8484611a82565b611526838383612741565b61182e836117b3604051806080016040528060438152602001615ad160439139805160209091012090565b6117f8836117b3604051806080016040528060608152602001615b1460609139805160209091012090565b5f8180602001905181019061186e919061540d565b9150506106a18161279f565b5f606061188933878787613628565b6118c9868487878080601f0160208091040260200160405190810160405280939291908181526020018383808284375f920182905250925061437b915050565b9092509050816118db57805160208201fd5b505050505050565b60606118f488888888888888614405565b98975050505050505050565b5f8180602001905181019061191591906153e1565b50905061193e816001600160a01b03165f9081526009602052604090205460ff16151560011490565b6106a15760405162461bcd60e51b815260206004820152603060248201527f76616c69646174655f617070726f76653a20417070726f76652061646472657360448201526f0e640c8decae640dcdee840dac2e8c6d60831b6064820152608401611512565b5f818060200190518101906119b891906153e1565b5090506119c481612e7e565b6106a15760405162461bcd60e51b815260206004820152602b60248201527f76616c69646174655f7472616e736665724552433230496e3a20546f6b656e2060448201526a1b9bdd08185b1b1bddd95960aa1b6064820152608401611512565b611a2c6133c6565b6001600160a01b0383165f9081526008602052604090819020805460ff19166001179055517f3562181221a42a19ddd03a82dfe06acab1905ceb65cdaf7d86a1d9fec6643552906111d99085908590859061520d565b611a8a6133c6565b6001600160a01b0384165f8181526002602090815260408083206001600160e01b03198816845282528083208054600160ff199182168117909255948452600390925282208054909316179091556004805491611ae683615447565b91905055507fef729aaa41b9fd994f9ff7c1960df214a84f722002e6cfbea31799cd0873a3ef84848484604051611b20949392919061545f565b60405180910390a150505050565b611b366133c6565b6001600160a01b0383165f908152600b6020908152604091829020805460ff191660011790558151808301909252600f82526e736574746c654465706f736974282960881b910152611ba8837f559ec80da0b29925dac0e329ba0aaf8bbf2760bcaf9174e4ca42e01d74c0e6d06117b3565b60408051808201909152600e81526d736574746c6552656465656d282960901b602090910152611bf8837fa03d55e3f74b6754c01f274bb12d9c8a11ea8330b6b4ce7125c8dff1f63646ca6117b3565b604080518082019091526016815275736574746c654465706f7369742875696e743235362960501b602090910152611c50837fd24ca58a10c001ae46e533b96327657c0a386bc41cac6e2db77fab9c775540b56117b3565b604080518082019091526015815274736574746c6552656465656d2875696e743235362960581b602090910152611ca7837fa627df6689990c734a41da64c298fd0d8c7cc1757a97e2f817ed479cf45d135d6117b3565b7ffaa136302ac223cf7c1146490a741e4520e886fc22d7e759641453f432283d018383836040516111d99392919061520d565b611ce26133c6565b6001600160a01b0383165f908152600a602052604090819020805460ff19166001179055517f628a44970c0e450415e3ae74334ea44f3307b74dbf677a1371190242bf2f3589906111d99085908590859061520d565b5f8082806020019051810190611d4e919061549a565b9250509150611d5c82612e7e565b611d9c5760405162461bcd60e51b8152602060048201526011602482015270151bdad95b881b9bdd08185b1b1bddd959607a1b6044820152606401611512565b611dc2816001600160a01b03165f9081526007602052604090205460ff16151560011490565b6115265760405162461bcd60e51b815260206004820152602960248201527f52656365697665722061646472657373206e6f742077686974656c697374656460448201526808189e4811dd585c9960ba1b6064820152608401611512565b5f81806020019051810190611e3591906154da565b925050506106a18161279f565b611e4e84848484613628565b50505050565b611e7f836117b3604051806060016040528060228152602001615c9760229139805160209091012090565b6115268383836125ca565b6001600160a01b0382165f9081526002602090815260408083206001600160e01b03198516845290915290205460ff165b92915050565b611ec96133c6565b611ed25f61468c565b565b611edc6133c6565b6001600160a01b0383165f9081526007602052604090819020805460ff19166001179055517f62dd88c5ecfa60713a657640ebec4de26fc1aefa4afdb24e6d15a124fce72779906111d99085908590859061520d565b5f611f647f9016d09d72d40fdae2fd8ceac6b6234c7706214fd39c1cd1e609a0528c199300546001600160a01b031690565b905090565b5f81806020019051810190611f7e9190615526565b50915050611fa8816001600160a01b03165f9081526007602052604090205460ff16151560011490565b6106a15760405162461bcd60e51b815260206004820152604160248201527f76616c69646174655f4552433436323652656465656d3a20526563656976657260448201527f2061646472657373206e6f742077686974656c697374656420627920477561726064820152601960fa1b608482015260a401611512565b5f808280602001905181019061203a919061555c565b50935093505050612067816001600160a01b03165f9081526007602052604090205460ff16151560011490565b6120ee5760405162461bcd60e51b815260206004820152604c60248201527f76616c69646174655f737761704578616374546f6b656e73466f72546f6b656e60448201527f733a2052656365697665722061646472657373206e6f742077686974656c697360648201526b1d195908189e4811dd585c9960a21b608482015260a401611512565b5f805b83518110156121675783818151811061210c5761210c61535d565b6020026020010151915061211f82612e7e565b61215f5760405162461bcd60e51b8152602060048201526011602482015270151bdad95b881b9bdd08185b1b1bddd959607a1b6044820152606401611512565b6001016120f1565b5050505050565b6121766133c6565b600180546001600160a01b038381166001600160a01b0319831681179093556040519116919082907f90cc2f570a6eb594b1580ea3e41247d2d73a55281889e86bd4ec2fc29c7e62d6905f90a35050565b5f818060200190518101906121dc9190615526565b50915050612206816001600160a01b03165f9081526007602052604090205460ff16151560011490565b6106a15760405162461bcd60e51b815260206004820152604560248201527f76616c69646174655f455243343632365769746864726177616c3a205265636560448201527f697665722061646472657373206e6f742077686974656c69737465642062792060648201526411dd585c9960da1b608482015260a401611512565b5f8180602001905181019061229b9190615625565b90506122a681612e7e565b6106a15760405162461bcd60e51b815260206004820152602e60248201527f76616c69646174655f7472616e736665724552433230416c6c496e3a20546f6b60448201526d195b881b9bdd08185b1b1bddd95960921b6064820152608401611512565b5f8390505f816001600160a01b03166338d52e0f6040518163ffffffff1660e01b8152600401602060405180830381865afa15801561234a573d5f803e3d5ffd5b505050506040513d601f19601f8201168201806040525081019061236e9190615625565b60408051808201909152601881527f6465706f7369742875696e743235362c616464726573732900000000000000006020909101529050846123d3817f6e553f653991036c188afcef45e14f9ecb45269ff9c675358bbb3a2eeb78e03b5b8787611a82565b6123fe866123cc604051806060016040528060218152602001615c7660219139805160209091012090565b60408051808201909152601f81527f72656465656d2875696e743235362c616464726573732c61646472657373290060209091015261245d867fba087652ef750b77b3f3b86ecd8aac56de04fbc0d6751abdd0992cabce3790546123cc565b6040805180820190915260208082527f6465706f7369742875696e743235362c616464726573732c61646472657373299101526124ba867f2e2d298468c732b7cc7344a26321c2cd82d446fea74af620fb9923927c3c57e96123cc565b6124e5866123cc604051806060016040528060268152602001615bbb60269139805160209091012090565b612510866123cc604051806060016040528060288152602001615aa960289139805160209091012090565b61253b866123cc604051806060016040528060278152602001615be160279139805160209091012090565b612566866123cc604051806060016040528060248152602001615c5260249139805160209091012090565b612571868686612741565b61257c8186866146fc565b6125878286866146fc565b7fd2851df39115d63968e90113e8b3a96f13e33ac4c2e5a9caa1afeffe59e557488686866040516125ba9392919061520d565b60405180910390a1505050505050565b6125d26133c6565b6001600160a01b0383165f9081526005602052604090819020805460ff19166001179055517fad90e2570fc4fe9f7437be3188d5c791c6662892d31731992aa88f5c87621983906111d99085908590859061520d565b6126306133c6565b6001600160a01b0383165f9081526008602052604090819020805460ff19169055517f1212f8ddb39de8e1a339460c95752d61100723efeaa34ccd94bca94393f40938906111d99085908590859061520d565b5f8180602001905181019061269891906153e1565b5090506126c1816001600160a01b03165f908152600a602052604090205460ff16151560011490565b6106a15760405162461bcd60e51b815260206004820152604560248201527f76616c69646174655f617070726f766544656c65676174696f6e3a204170707260448201527f6f76652064656c65676174696f6e206164647265737320646f6573206e6f74206064820152640dac2e8c6d60db1b608482015260a401611512565b6127496133c6565b6001600160a01b0383165f9081526009602052604090819020805460ff19166001179055517f628a44970c0e450415e3ae74334ea44f3307b74dbf677a1371190242bf2f3589906111d99085908590859061520d565b5f805b6127ac835f6147b5565b91506127db6001806127c060036014615640565b6127ca9190615640565b6127d49190615640565b84906147b5565b90506127e682612e7e565b6128405760405162461bcd60e51b815260206004820152602560248201527f76616c69646174653164656c7461506174683a20546f6b656e206e6f7420616c6044820152641b1bddd95960da1b6064820152608401611512565b61284981612e7e565b6128a35760405162461bcd60e51b815260206004820152602560248201527f76616c69646174653164656c7461506174683a20546f6b656e206e6f7420616c6044820152641b1bddd95960da1b6064820152608401611512565b6001806128b260036014615640565b6128bc9190615640565b6128c69190615640565b60146001806128d6600384615640565b6128e09190615640565b6128ea9190615640565b6128f49190615640565b6128fe9190615640565b8351106115265761295a60018061291760036014615640565b6129219190615640565b61292b9190615640565b60018061293a60036014615640565b6129449190615640565b61294e9190615640565b855161125a91906153c3565b92506127a2565b7ff0c57e16840df040f15088dc2f81fe391c3923bec73e23a9662efc9c229c6a008054600160401b810460ff1615906001600160401b03165f811580156129a55750825b90505f826001600160401b031660011480156129c05750303b155b9050811580156129ce575080155b156129ec5760405163f92ee8a960e01b815260040160405180910390fd5b845467ffffffffffffffff191660011785558315612a1b57845468ff00000000000000001916600160401b1785555b612a2433614884565b5f8087806020019051810190612a3a9190615653565b91509150612a478161152b565b612a508161216e565b612a5982613258565b505083156118db57845468ff000000000000000019168555604051600181527fc7f505b2f371ae2175ee4913f4499e1f2633a7b5936321eed1cdaeb6115181d2906020016125ba565b612aaa6133c6565b6001600160a01b0383165f9081526006602052604090819020805460ff19169055517f3097928509c53a2dab9500431201d82b0d756e8f890fd01f4ae6b33b45687ea4906111d99085908590859061520d565b6060816001600160401b03811115612b1757612b17614d9f565b604051908082528060200260200182016040528015612b4a57816020015b6060815260200190600190039081612b355790505b5090505f5b82811015612c3c575f8030868685818110612b6c57612b6c61535d565b9050602002810190612b7e919061568b565b604051612b8c9291906156cd565b5f60405180830381855af49150503d805f8114612bc4576040519150601f19603f3d011682016040523d82523d5f602084013e612bc9565b606091505b509150915081612c1457604481511015612be1575f80fd5b60048101905080806020019051810190612bfb91906156dc565b60405162461bcd60e51b81526004016115129190614ffc565b80848481518110612c2757612c2761535d565b60209081029190910101525050600101612b4f565b5092915050565b612c69816001600160a01b03165f908152600b602052604090205460ff16151560011490565b6109f85760405162461bcd60e51b815260206004820152601160248201527f5661756c74206e6f7420616c6c6f7765640000000000000000000000000000006044820152606401611512565b612cc0838383612741565b6001600160a01b0383165f908152600c602052604090819020805460ff19166001179055517f936b7187f49d778f82d1c17d927c8006f00eac6d2e5ccb50720dbc7afda8b4a9906111d99085908590859061520d565b612d1e6133c6565b600d805460ff19168415151790556040517f50454d9d0025a28a39cac5a4b3f3101d29b6e413fbb64f75fb42eb6837b07718906111d990859085908590615720565b5f8082806020019051810190612d769190615653565b91509150612d8382612e7e565b612de65760405162461bcd60e51b815260206004820152602e60248201527f76616c69646174655f7472616e736665724552433230416c6c496e3a20546f6b60448201526d195b881b9bdd08185b1b1bddd95960921b6064820152608401611512565b612e0c816001600160a01b03165f9081526007602052604090205460ff16151560011490565b6115265760405162461bcd60e51b815260206004820152603b60248201527f76616c69646174655f6465706f7369743a20526563656976657220616464726560448201527f7373206e6f742077686974656c697374656420627920477561726400000000006064820152608401611512565b600d545f9060ff1680611ebb5750506001600160a01b03165f9081526005602052604090205460ff16151560011490565b6115268383835f61187a565b5f81806020019051810190612ed0919061573b565b5050509050612ede81612e7e565b6106a15760405162461bcd60e51b8152602060048201526011602482015270151bdad95b881b9bdd08185b1b1bddd959607a1b6044820152606401611512565b612f266133c6565b6001600160a01b0384165f9081526002602090815260408083206001600160e01b03198716845290915290819020805460ff19169055517f37ea10f2d08f5a9803dfcd5abf3cfc7b0d6fcdf5fcbc36be9ea5a0b53d9a4d9b90611b2090869086908690869061545f565b612fbb836117b3604051806060016040528060218152602001615a5e60219139805160209091012090565b612fe6836117b36040518060600160405280602a8152602001615a7f602a9139805160209091012090565b6117f8836117b36040518060800160405280604a8152602001615c08604a9139805160209091012090565b5f818060200190518101906130269190615817565b905061305281602001516001600160a01b03165f9081526007602052604090205460ff16151560011490565b6130c45760405162461bcd60e51b815260206004820152603f60248201527f76616c69646174655f65786163744f75747075743a205265636569766572206160448201527f646472657373206e6f742077686974656c6973746564206279204775617264006064820152608401611512565b80516106a190611632565b5f818060200190518101906130e49190615817565b905061311081602001516001600160a01b03165f9081526007602052604090205460ff16151560011490565b6130c45760405162461bcd60e51b815260206004820152603e60248201527f76616c69646174655f6578616374496e7075743a20526563656976657220616460448201527f6472657373206e6f742077686974656c697374656420627920477561726400006064820152608401611512565b6115268383836146fc565b6131b8836117b3604051806060016040528060268152602001615b7460269139805160209091012090565b6117f8836117b3604051806060016040528060218152602001615b9a60219139805160209091012090565b6040805180820190915260128152716d756c746963616c6c2862797465735b5d2960701b602090910152613237847fac9650d882acfa253cba1ed543b9ff47351da99c3bd00a89625e5cdb2099009c6117b3565b613242848383612741565b61324d838383612741565b611e4e848383611cda565b6132606133c6565b6001600160a01b03811661328957604051631e4fbdf760e01b81525f6004820152602401611512565b6109f88161468c565b5f80828060200190518101906132a89190615653565b915091506132b582612e7e565b612de65760405162461bcd60e51b8152602060048201526024808201527f76616c69646174655f77697468647261773a20546f6b656e206e6f7420616c6c6044820152631bddd95960e21b6064820152608401611512565b6133156133c6565b6001600160a01b0383165f9081526005602052604090819020805460ff19169055517f9ca3f065622f5f03f32b7157677a0e420c3a36ab45fd49f256ffebce3e310587906111d99085908590859061520d565b6133706133c6565b6001600160a01b0383165f9081526006602052604090819020805460ff19166001179055517fa8f9caaf4861720900294428e4ff34d37070c37afd26d96e6e4da75326d2c3ad906111d99085908590859061520d565b336133f87f9016d09d72d40fdae2fd8ceac6b6234c7706214fd39c1cd1e609a0528c199300546001600160a01b031690565b6001600160a01b031614611ed25760405163118cdaa760e01b8152336004820152602401611512565b60608161342f81601f615640565b101561346e5760405162461bcd60e51b815260206004820152600e60248201526d736c6963655f6f766572666c6f7760901b6044820152606401611512565b826134798382615640565b10156134b85760405162461bcd60e51b815260206004820152600e60248201526d736c6963655f6f766572666c6f7760901b6044820152606401611512565b6134c28284615640565b845110156135125760405162461bcd60e51b815260206004820152601160248201527f736c6963655f6f75744f66426f756e64730000000000000000000000000000006044820152606401611512565b6060821580156135305760405191505f82526020820160405261357a565b6040519150601f8416801560200281840101858101878315602002848b0101015b81831015613569578051835260209283019201613551565b5050858452601f01601f1916604052505b50949350505050565b5f808061359084826147b5565b925061359d846014614895565b90506135b56135ae60036014615640565b85906147b5565b91509193909250565b5f6135cb60036014615640565b60146135d8600382615640565b6135e29190615640565b6135ec9190615640565b825110159050919050565b6060611ebb61360860036014615640565b61361460036014615640565b845161362091906153c3565b849190613421565b613630611f32565b6001600160a01b0316846001600160a01b03160315611e4e5761366f846001600160a01b03165f9081526006602052604090205460ff16151560011490565b6136bb5760405162461bcd60e51b815260206004820181905260248201527f76616c696461746543616c6c3a2053656e646572206e6f7420616c6c6f7765646044820152606401611512565b5f6136c96004828486615848565b6136d29161586f565b9050365f6136e38460048188615848565b600d5491935091505f9060ff16801561373c5750604080518082019091526018815277617070726f766528616464726573732c75696e743235362960401b60209091015263095ea7b360e01b6001600160e01b03198516145b9050806138325761374d8785611e8a565b61383257613777876001600160a01b03165f9081526003602052604090205460ff16151560011490565b6137c35760405162461bcd60e51b815260206004820181905260248201527f76616c696461746543616c6c3a20746172676574206e6f7420616c6c6f7765646044820152606401611512565b6137cd8785611e8a565b6138325760405162461bcd60e51b815260206004820152603060248201527f76616c696461746543616c6c3a2073656c6563746f72206e6f7420616c6c6f7760448201526f1959081bdb881d1a19481d185c99d95d60821b6064820152608401611512565b613859604051806080016040528060438152602001615ad160439139805160209091012090565b6001600160e01b031916846001600160e01b031916036138b6576138b183838080601f0160208091040260200160405190810160405280939291908181526020018383808284375f9201919091525061202492505050565b614371565b6138dd604051806080016040528060608152602001615b1460609139805160209091012090565b6001600160e01b031916846001600160e01b03191603613935576138b183838080601f0160208091040260200160405190810160405280939291908181526020018383808284375f9201919091525061202492505050565b61395c604051806060016040528060338152602001615cb960339139805160209091012090565b6001600160e01b031916846001600160e01b031916036139b4576138b183838080601f0160208091040260200160405190810160405280939291908181526020018383808284375f920191909152506130cf92505050565b6001600160e01b0319841663b858183f60e01b03613a5b57600d5460ff166138b15760405162461bcd60e51b815260206004820152604e60248201527f76616c696461746543616c6c3a2053776170526f75746572303220697320637560448201527f7272656e746c7920737570706f72746564206f6e6c79207769746820616e794160648201526d1cdcd95d081dda1a5d195b1a5cdd60921b608482015260a401611512565b6040805180820190915260128152716d756c746963616c6c2862797465735b5d2960701b602090910152630a6d35e560e31b6001600160e01b0319851601613adb576138b183838080601f0160208091040260200160405190810160405280939291908181526020018383808284375f920191909152506111e692505050565b60408051808201909152601981527f7472616e7366657228616464726573732c75696e7432353629000000000000006020909101526356fa634560e01b6001600160e01b0319851601613b66576138b183838080601f0160208091040260200160405190810160405280939291908181526020018383808284375f9201919091525061158292505050565b604080518082019091526018815277617070726f766528616464726573732c75696e743235362960401b60209091015263f6a1584d60e01b6001600160e01b0319851601613bec576138b183838080601f0160208091040260200160405190810160405280939291908181526020018383808284375f9201919091525061190092505050565b613c13604051806060016040528060228152602001615c9760229139805160209091012090565b6001600160e01b031916846001600160e01b03191603613c6b576138b183838080601f0160208091040260200160405190810160405280939291908181526020018383808284375f9201919091525061268392505050565b613c92604051806060016040528060268152602001615b7460269139805160209091012090565b6001600160e01b031916846001600160e01b03191603613cea576138b183838080601f0160208091040260200160405190810160405280939291908181526020018383808284375f92019190915250612ebb92505050565b613d11604051806060016040528060218152602001615b9a60219139805160209091012090565b6001600160e01b031916846001600160e01b03191603613d69576138b183838080601f0160208091040260200160405190810160405280939291908181526020018383808284375f92019190915250611d3892505050565b60408051808201909152600f81526e736574746c654465706f736974282960881b60209091015263aa6137f360e01b6001600160e01b0319851601613db1576138b187612c43565b60408051808201909152600e81526d736574746c6552656465656d282960901b602090910152635fc2aa1d60e01b6001600160e01b0319851601613df8576138b187612c43565b604080518082019091526016815275736574746c654465706f7369742875696e743235362960501b6020909101526316d9ad3b60e11b6001600160e01b0319851601613e47576138b187612c43565b604080518082019091526015815274736574746c6552656465656d2875696e743235362960581b602090910152632cec104d60e11b6001600160e01b0319851601613e95576138b187612c43565b60408051808201909152601881527f6465706f7369742875696e743235362c61646472657373290000000000000000602090910152636e553f6560e01b6001600160e01b031985161480613f2c57506040805180820190915260208082527f6465706f7369742875696e743235362c616464726573732c6164647265737329910152630b8b4a6160e21b6001600160e01b03198516145b61437157613f57604051806060016040528060218152602001615c7660219139805160209091012090565b6001600160e01b031916846001600160e01b03191603613faf576138b183838080601f0160208091040260200160405190810160405280939291908181526020018383808284375f920191909152506121c792505050565b60408051808201909152601f81527f72656465656d2875696e743235362c616464726573732c6164647265737329006020909101526322fbc4d760e11b6001600160e01b031985160161403a576138b183838080601f0160208091040260200160405190810160405280939291908181526020018383808284375f92019190915250611f6992505050565b614061604051806060016040528060268152602001615bbb60269139805160209091012090565b6001600160e01b031916846001600160e01b031916036140b9576138b183838080601f0160208091040260200160405190810160405280939291908181526020018383808284375f92019190915250611f6992505050565b6140e0604051806060016040528060288152602001615aa960289139805160209091012090565b6001600160e01b031916846001600160e01b03191603614138576138b183838080601f0160208091040260200160405190810160405280939291908181526020018383808284375f920191909152506121c792505050565b61415f604051806060016040528060278152602001615be160279139805160209091012090565b6001600160e01b031985811691161461437157614199604051806060016040528060248152602001615c5260249139805160209091012090565b6001600160e01b0319858116911614614371576141d3604051806060016040528060218152602001615a5e60219139805160209091012090565b6001600160e01b031916846001600160e01b0319160361422b576138b183838080601f0160208091040260200160405190810160405280939291908181526020018383808284375f920191909152506109f892505050565b6142526040518060600160405280602a8152602001615a7f602a9139805160209091012090565b6001600160e01b031916846001600160e01b031916036142aa576138b183838080601f0160208091040260200160405190810160405280939291908181526020018383808284375f920191909152506109f892505050565b6142d16040518060800160405280604a8152602001615c08604a9139805160209091012090565b6001600160e01b031916846001600160e01b03191603614329576138b183838080601f0160208091040260200160405190810160405280939291908181526020018383808284375f920191909152506109f892505050565b60405162461bcd60e51b815260206004820152601960248201527f556e6b6e6f776e2066756e6374696f6e2073656c6563746f72000000000000006044820152606401611512565b5050505050505050565b600154604051635229073f60e01b81525f916060916001600160a01b0390911690635229073f906143b69089908990899089906004016158a5565b5f604051808303815f875af11580156143d1573d5f803e3d5ffd5b505050506040513d5f823e601f3d908101601f191682016040526143f891908101906158f9565b9150915094509492505050565b606061442d886001600160a01b03165f908152600c602052604090205460ff16151560011490565b61448e5760405162461bcd60e51b815260206004820152602c60248201527f73776170416e6456616c6964617465436f77537761703a20436f77205377617060448201526b081b9bdd08195b98589b195960a21b6064820152608401611512565b335f9081526006602052604090205460ff16151560011461450a5760405162461bcd60e51b815260206004820152603060248201527f73776170416e6456616c6964617465436f77537761703a2053656e646572206e60448201526f37ba1030b9b9b2ba1036b0b730b3b2b960811b6064820152608401611512565b61451385612e7e565b6145735760405162461bcd60e51b815260206004820152602b60248201527f73776170416e6456616c6964617465436f77537761703a20746f6b656e496e2060448201526a1b9bdd08185b1b1bddd95960aa1b6064820152608401611512565b61457c84612e7e565b6145dd5760405162461bcd60e51b815260206004820152602c60248201527f73776170416e6456616c6964617465436f77537761703a20746f6b656e4f757460448201526b081b9bdd08185b1b1bddd95960a21b6064820152608401611512565b614603876001600160a01b03165f9081526007602052604090205460ff16151560011490565b6146645760405162461bcd60e51b815260206004820152602c60248201527f73776170416e6456616c6964617465436f77537761703a20726563656976657260448201526b081b9bdd08185b1b1bddd95960a21b6064820152608401611512565b5f614673878988888888614954565b905061467f8982614aa2565b9998505050505050505050565b7f9016d09d72d40fdae2fd8ceac6b6234c7706214fd39c1cd1e609a0528c19930080546001600160a01b031981166001600160a01b03848116918217845560405192169182907f8be0079c531659141344cd1fd0a4f28419497f9722a3daafe3b4186f6b6457e0905f90a3505050565b60408051808201909152601981527f7472616e7366657228616464726573732c75696e74323536290000000000000060209091015261475b837fa9059cbb2ab09eb219583f4a59a5d0623ade346d962bcd4e46b11da047c9049b6117b3565b604080518082019091526018815277617070726f766528616464726573732c75696e743235362960401b602090910152611e7f837f095ea7b334ae44009aa867bfb386f5c3b4b443ac6f0ee573fa91c4608fbadfba6117b3565b5f816147c2816014615640565b10156148105760405162461bcd60e51b815260206004820152601260248201527f746f416464726573735f6f766572666c6f7700000000000000000000000000006044820152606401611512565b61481b826014615640565b8351101561486b5760405162461bcd60e51b815260206004820152601560248201527f746f416464726573735f6f75744f66426f756e647300000000000000000000006044820152606401611512565b5001602001516c01000000000000000000000000900490565b61488c614c43565b6109f881614c8c565b5f816148a2816003615640565b10156148f05760405162461bcd60e51b815260206004820152601160248201527f746f55696e7432345f6f766572666c6f770000000000000000000000000000006044820152606401611512565b6148fb826003615640565b8351101561494b5760405162461bcd60e51b815260206004820152601460248201527f746f55696e7432345f6f75744f66426f756e64730000000000000000000000006044820152606401611512565b50016003015190565b60408051610180810182525f80825260208201819052918101829052606081018290526080810182905260a0810182905260c0810182905260e08101829052610100810182905261012081018290526101408101829052610160810191909152604051806101800160405280866001600160a01b03168152602001856001600160a01b03168152602001876001600160a01b031681526020018481526020018381526020016104b042614a079190615640565b63ffffffff1681526020018881526020015f81526020017ff3b277728b3fee749481eb3e0b3b48980dbbab78658fc419025cb16eee34677581526020015f151581526020017f5a28e9363bb942b639270062aa6bb295f434bcdfc42c97267bf003f272060dc981526020017f5a28e9363bb942b639270062aa6bb295f434bcdfc42c97267bf003f272060dc981525090509695505050505050565b60605f8390505f614b5e84836001600160a01b031663f698da256040518163ffffffff1660e01b8152600401602060405180830381865afa158015614ae9573d5f803e3d5ffd5b505050506040513d601f19601f82011682018060405250810190614b0d9190615930565b601f1990910180517fd5a25ba2e97094ad7d83dc28a6572da797d6b3e7fc6663bd93efb789fc17e48982526101a08220915260405161190160f01b8152600281019290925260228201526042902090565b604080516038808252606082019092529192505f9190602082018180368337019050509050614b938183308860a00151614c94565b60405163ec6cb13f60e01b81526001600160a01b0384169063ec6cb13f90614bc2908490600190600401615947565b5f604051808303815f87803b158015614bd9575f80fd5b505af1158015614beb573d5f803e3d5ffd5b50505060a0860151608087015160608801516040514294507f2c222fa91d81130fe56ee74391b3b6a113851c1f9cd5bc5853108490ccafc78293614c329387938c9361596a565b60405180910390a295945050505050565b7ff0c57e16840df040f15088dc2f81fe391c3923bec73e23a9662efc9c229c6a0054600160401b900460ff16611ed257604051631afcd79f60e31b815260040160405180910390fd5b613260614c43565b6038845114614ce55760405162461bcd60e51b815260206004820152601960248201527f475076323a2075696420627566666572206f766572666c6f77000000000000006044820152606401611512565b60388401526034830152602090910152565b6001600160a01b03811681146109f8575f80fd5b5f8083601f840112614d1b575f80fd5b5081356001600160401b03811115614d31575f80fd5b602083019150836020828501011115614d48575f80fd5b9250929050565b5f805f60408486031215614d61575f80fd5b8335614d6c81614cf7565b925060208401356001600160401b03811115614d86575f80fd5b614d9286828701614d0b565b9497909650939450505050565b634e487b7160e01b5f52604160045260245ffd5b604051601f8201601f191681016001600160401b0381118282101715614ddb57614ddb614d9f565b604052919050565b5f6001600160401b03821115614dfb57614dfb614d9f565b50601f01601f191660200190565b5f82601f830112614e18575f80fd5b8135614e2b614e2682614de3565b614db3565b818152846020838601011115614e3f575f80fd5b816020850160208301375f918101602001919091529392505050565b5f60208284031215614e6b575f80fd5b81356001600160401b03811115614e80575f80fd5b614e8c84828501614e09565b949350505050565b5f60208284031215614ea4575f80fd5b8135614eaf81614cf7565b9392505050565b5f8060408385031215614ec7575f80fd5b8235614ed281614cf7565b915060208301356001600160401b03811115614eec575f80fd5b614ef885828601614e09565b9150509250929050565b5f805f8060608587031215614f15575f80fd5b8435614f2081614cf7565b935060208501356001600160401b03811115614f3a575f80fd5b614f4687828801614d0b565b9598909750949560400135949350505050565b5f805f805f805f60e0888a031215614f6f575f80fd5b8735614f7a81614cf7565b96506020880135614f8a81614cf7565b9550604088013594506060880135614fa181614cf7565b93506080880135614fb181614cf7565b9699959850939692959460a0840135945060c09093013592915050565b5f81518084528060208401602086015e5f602082860101526020601f19601f83011685010191505092915050565b602081525f614eaf6020830184614fce565b80356001600160e01b031981168114615025575f80fd5b919050565b5f805f806060858703121561503d575f80fd5b843561504881614cf7565b93506150566020860161500e565b925060408501356001600160401b03811115615070575f80fd5b61507c87828801614d0b565b95989497509550505050565b5f805f806060858703121561509b575f80fd5b84356150a681614cf7565b9350602085013561505681614cf7565b5f80604083850312156150c7575f80fd5b82356150d281614cf7565b91506150e06020840161500e565b90509250929050565b5f80602083850312156150fa575f80fd5b82356001600160401b0381111561510f575f80fd5b8301601f8101851361511f575f80fd5b80356001600160401b03811115615134575f80fd5b8560208260051b8401011115615148575f80fd5b6020919091019590945092505050565b5f602082016020835280845180835260408501915060408160051b8601019250602086015f5b828110156151af57603f1987860301845261519a858351614fce565b9450602093840193919091019060010161517e565b50929695505050505050565b80151581146109f8575f80fd5b5f805f604084860312156151da575f80fd5b8335614d6c816151bb565b81835281816020850137505f828201602090810191909152601f909101601f19169091010190565b6001600160a01b0384168152604060208201525f61522f6040830184866151e5565b95945050505050565b5f6001600160401b0382111561525057615250614d9f565b5060051b60200190565b5f615267614e2684614de3565b905082815283838301111561527a575f80fd5b8282602083015e5f602084830101529392505050565b5f82601f83011261529f575f80fd5b614eaf8383516020850161525a565b5f602082840312156152be575f80fd5b81516001600160401b038111156152d3575f80fd5b8201601f810184136152e3575f80fd5b80516152f1614e2682615238565b8082825260208201915060208360051b850101925086831115615312575f80fd5b602084015b838110156153525780516001600160401b03811115615334575f80fd5b61534389602083890101615290565b84525060209283019201615317565b509695505050505050565b634e487b7160e01b5f52603260045260245ffd5b805160208201516001600160e01b03198116919060048210156153a8576001600160e01b0319600483900360031b81901b82161692505b5050919050565b634e487b7160e01b5f52601160045260245ffd5b81810381811115611ebb57611ebb6153af565b805161502581614cf7565b5f80604083850312156153f2575f80fd5b82516153fd81614cf7565b6020939093015192949293505050565b5f806040838503121561541e575f80fd5b825160208401519092506001600160401b0381111561543b575f80fd5b614ef885828601615290565b5f60018201615458576154586153af565b5060010190565b6001600160a01b038516815263ffffffff60e01b84166020820152606060408201525f6154906060830184866151e5565b9695505050505050565b5f805f606084860312156154ac575f80fd5b83516154b781614cf7565b6020850151604086015191945092506154cf81614cf7565b809150509250925092565b5f805f606084860312156154ec575f80fd5b83516020850151604086015191945092506001600160401b03811115615510575f80fd5b61551c86828701615290565b9150509250925092565b5f805f60608486031215615538575f80fd5b8351602085015190935061554b81614cf7565b60408501519092506154cf81614cf7565b5f805f805f60a08688031215615570575f80fd5b85516020870151604088015191965094506001600160401b03811115615594575f80fd5b8601601f810188136155a4575f80fd5b80516155b2614e2682615238565b8082825260208201915060208360051b85010192508a8311156155d3575f80fd5b6020840193505b828410156155fe5783516155ed81614cf7565b8252602093840193909101906155da565b955061561092505050606087016153d6565b60809690960151949793965091949392915050565b5f60208284031215615635575f80fd5b8151614eaf81614cf7565b80820180821115611ebb57611ebb6153af565b5f8060408385031215615664575f80fd5b825161566f81614cf7565b602084015190925061568081614cf7565b809150509250929050565b5f808335601e198436030181126156a0575f80fd5b8301803591506001600160401b038211156156b9575f80fd5b602001915036819003821315614d48575f80fd5b818382375f9101908152919050565b5f602082840312156156ec575f80fd5b81516001600160401b03811115615701575f80fd5b8201601f81018413615711575f80fd5b614e8c8482516020840161525a565b8315158152604060208201525f61522f6040830184866151e5565b5f805f806080858703121561574e575f80fd5b845161575981614cf7565b60208601516040870151919550935061577181614cf7565b6060959095015193969295505050565b5f60a08284031215615791575f80fd5b60405160a081016001600160401b03811182821017156157b3576157b3614d9f565b806040525080915082516001600160401b038111156157d0575f80fd5b6157dc85828601615290565b82525060208301516157ed81614cf7565b60208201526040838101519082015260608084015190820152608092830151920191909152919050565b5f60208284031215615827575f80fd5b81516001600160401b0381111561583c575f80fd5b614e8c84828501615781565b5f8085851115615856575f80fd5b83861115615862575f80fd5b5050820193919092039150565b80356001600160e01b03198116906004841015612c3c576001600160e01b031960049490940360031b84901b1690921692915050565b6001600160a01b0385168152836020820152608060408201525f6158cc6080830185614fce565b9050600283106158ea57634e487b7160e01b5f52602160045260245ffd5b82606083015295945050505050565b5f806040838503121561590a575f80fd5b8251615915816151bb565b60208401519092506001600160401b0381111561543b575f80fd5b5f60208284031215615940575f80fd5b5051919050565b604081525f6159596040830185614fce565b905082151560208301529392505050565b61020081525f61597e610200830188614fce565b86516001600160a01b03166020840152905060208601516001600160a01b03811660408401525060408601516001600160a01b03811660608401525060608601516080830152608086015160a083015260a08601516159e560c084018263ffffffff169052565b5060c086015160e083015260e0860151610100830152610100860151610120830152610120860151615a1c61014084018215159052565b50610140860151610160830152610160860151610180830152615a486101a083018663ffffffff169052565b6101c08201939093526101e00152939250505056fe64656c65676174655369676e65722828627974657333322c6164647265737329296465706f7369742828627974657333322c627974657333322c627974657333322c75696e7431323829297265717565737457697468647261772875696e743235362c616464726573732c6164647265737329737761704578616374546f6b656e73466f72546f6b656e732875696e743235362c75696e743235362c616464726573735b5d2c616464726573732c75696e7432353629737761704578616374546f6b656e73466f72546f6b656e73537570706f7274696e674665654f6e5472616e73666572546f6b656e732875696e743235362c75696e743235362c616464726573735b5d2c616464726573732c75696e7432353629737570706c7928616464726573732c75696e743235362c616464726573732c75696e74313629776974686472617728616464726573732c75696e743235362c61646472657373297265717565737452656465656d2875696e743235362c616464726573732c6164647265737329726571756573744465706f7369742875696e743235362c616464726573732c616464726573732977697468647261772828627974657333322c627974657333322c627974657333322c75696e743132382c75696e743132382c616464726573732c616464726573732c75696e74363429296d616b655769746864726177526571756573742875696e743235362c616464726573732977697468647261772875696e743235362c616464726573732c6164647265737329617070726f766544656c65676174696f6e28616464726573732c75696e74323536296578616374496e707574282862797465732c616464726573732c75696e743235362c75696e743235362c75696e743235362929666c6173685377617045786163744f75742875696e743235362c75696e743235362c627974657329666c617368537761704578616374496e2875696e743235362c75696e743235362c62797465732965786163744f7574707574282862797465732c616464726573732c75696e743235362c75696e743235362c75696e743235362929a2646970667358221220f54cdf8598236e24764ff3a2a3dcd632684b7a35433c672afe33f1ac3de2a0f064736f6c634300081a0033","linkReferences":{}},"methodIdentifiers":{"_SIGN_COOLDOWN()":"3ffb788e","allowApprovalDestination(address,string)":"98b3cc39","allowAsset(address,string)":"86b6dbe5","allowCallSite(address,bytes4,string)":"5e4ccace","allowDelegationApprovalDestination(address,string)":"63cc17f2","allowReceiver(address,string)":"72e548a9","allowSender(address,string)":"fa2c59c8","allowWithdrawDestination(address,string)":"5ace1d92","allowedApprovalDestinations(address)":"eb0de042","allowedAssets(address)":"a4c1cccb","allowedCallSites(address,bytes4)":"a847cf4d","allowedCowSwaps(address)":"47566064","allowedDelegationApprovalDestinations(address)":"4b941268","allowedLagoonVaults(address)":"8fb4dff2","allowedReceivers(address)":"3cf20025","allowedSenders(address)":"fadbcf48","allowedTargets(address)":"b8fe8d5f","allowedWithdrawDestinations(address)":"07ef00cf","anyAsset()":"87301608","avatar()":"5aef7de6","callSiteCount()":"a9fc3d4f","getGovernanceAddress()":"73252494","getInternalVersion()":"fdedfa27","getTradingStrategyModuleVersion()":"9e4a83cf","isAllowedApprovalDestination(address)":"1d49039c","isAllowedAsset(address)":"c537bed0","isAllowedCallSite(address,bytes4)":"713ebf3b","isAllowedCowSwap(address)":"333f22e8","isAllowedDelegationApprovalDestination(address)":"2dc32a61","isAllowedLagoonVault(address)":"6fd7fdef","isAllowedReceiver(address)":"d075f9bb","isAllowedSender(address)":"be8c97b0","isAllowedTarget(address)":"78addb48","isAllowedWithdrawDestination(address)":"efb47bff","multicall(bytes[])":"ac9650d8","owner()":"8da5cb5b","performCall(address,bytes)":"d2f73e3d","performCall(address,bytes,uint256)":"486295dc","removeApprovalDestination(address,string)":"04a3ba25","removeAsset(address,string)":"f901dc33","removeCallSite(address,bytes4,string)":"d7334c9d","removeDelegationApprovalDestination(address,string)":"f259a073","removeReceiver(address,string)":"2d12d788","removeSender(address,string)":"a67e1f54","removeWithdrawDestination(address,string)":"8c2fdf9e","renounceOwnership()":"715018a6","setAnyAssetAllowed(bool,string)":"c2e657ae","setAvatar(address)":"086cfca8","setTarget(address)":"776d1a01","setUp(bytes)":"a4f9edbf","swapAndValidateCowSwap(address,address,bytes32,address,address,uint256,uint256)":"4acf884d","target()":"d4b83992","transferOwnership(address)":"f2fde38b","validate1deltaPath(bytes)":"a1b6b430","validateCall(address,address,bytes)":"6d5025f1","validateUniswapV3Path(bytes)":"1c123e77","validate_1deltaDeposit(bytes)":"c4cc9dba","validate_1deltaMulticall(bytes)":"07ac3562","validate_1deltaWithdraw(bytes)":"f76081e4","validate_ERC4626Deposit(address,bytes)":"2c02cda0","validate_ERC4626Redeem(bytes)":"742bfc7e","validate_ERC4626Withdraw(bytes)":"78065086","validate_aaveSupply(bytes)":"d4c0fe45","validate_aaveWithdraw(bytes)":"6a6d5cc8","validate_approve(bytes)":"4b956bd8","validate_approveDelegation(bytes)":"957dc6c0","validate_cowSwapSettlement(bytes)":"adcfa55b","validate_exactInput(bytes)":"ebe26816","validate_exactOutput(bytes)":"e98539c5","validate_flashSwapAllOut(bytes)":"425f49d0","validate_flashSwapExactInt(bytes)":"ca963c50","validate_flashSwapExactOut(bytes)":"6ad11353","validate_lagoonSettle(address)":"b3c329cb","validate_orderlyDelegateSigner(bytes)":"d718f041","validate_orderlyDeposit(bytes)":"6d5176a6","validate_orderlyWithdraw(bytes)":"912ef02d","validate_swapExactTokensForTokens(bytes)":"761bcd9c","validate_transfer(bytes)":"1710a4f2","validate_transferERC20AllIn(bytes)":"7ea44655","validate_transferERC20In(bytes)":"59b92be9","whitelistAaveV3(address,string)":"f20e85e0","whitelistCowSwap(address,string)":"c0f96f24","whitelistERC4626(address,string)":"86a6ae15","whitelistLagoon(address,string)":"5e6afe4d","whitelistOnedelta(address,address,string)":"f26749f3","whitelistOrderly(address,string)":"db17a170","whitelistToken(address,string)":"ee5462cc","whitelistTokenForDelegation(address,string)":"6d9a1423","whitelistUniswapV2Router(address,string)":"3ea35551","whitelistUniswapV3Router(address,string)":"34ec8d7e"},"id":27}