{"abi":[{"type":"constructor","inputs":[{"name":"_owner","type":"address","internalType":"address"},{"name":"_target","type":"address","internalType":"address"}],"stateMutability":"nonpayable"},{"type":"function","name":"allowApprovalDestination","inputs":[{"name":"destination","type":"address","internalType":"address"},{"name":"notes","type":"string","internalType":"string"}],"outputs":[],"stateMutability":"nonpayable"},{"type":"function","name":"allowAsset","inputs":[{"name":"asset","type":"address","internalType":"address"},{"name":"notes","type":"string","internalType":"string"}],"outputs":[],"stateMutability":"nonpayable"},{"type":"function","name":"allowCallSite","inputs":[{"name":"target","type":"address","internalType":"address"},{"name":"selector","type":"bytes4","internalType":"bytes4"},{"name":"notes","type":"string","internalType":"string"}],"outputs":[],"stateMutability":"nonpayable"},{"type":"function","name":"allowDelegationApprovalDestination","inputs":[{"name":"destination","type":"address","internalType":"address"},{"name":"notes","type":"string","internalType":"string"}],"outputs":[],"stateMutability":"nonpayable"},{"type":"function","name":"allowReceiver","inputs":[{"name":"receiver","type":"address","internalType":"address"},{"name":"notes","type":"string","internalType":"string"}],"outputs":[],"stateMutability":"nonpayable"},{"type":"function","name":"allowSender","inputs":[{"name":"sender","type":"address","internalType":"address"},{"name":"notes","type":"string","internalType":"string"}],"outputs":[],"stateMutability":"nonpayable"},{"type":"function","name":"allowWithdrawDestination","inputs":[{"name":"destination","type":"address","internalType":"address"},{"name":"notes","type":"string","internalType":"string"}],"outputs":[],"stateMutability":"nonpayable"},{"type":"function","name":"allowedApprovalDestinations","inputs":[{"name":"destination","type":"address","internalType":"address"}],"outputs":[{"name":"allowed","type":"bool","internalType":"bool"}],"stateMutability":"view"},{"type":"function","name":"allowedAssets","inputs":[{"name":"token","type":"address","internalType":"address"}],"outputs":[{"name":"allowed","type":"bool","internalType":"bool"}],"stateMutability":"view"},{"type":"function","name":"allowedCCTPDestinations","inputs":[{"name":"domain","type":"uint32","internalType":"uint32"}],"outputs":[{"name":"allowed","type":"bool","internalType":"bool"}],"stateMutability":"view"},{"type":"function","name":"allowedCCTPMessengers","inputs":[{"name":"messenger","type":"address","internalType":"address"}],"outputs":[{"name":"allowed","type":"bool","internalType":"bool"}],"stateMutability":"view"},{"type":"function","name":"allowedCallSites","inputs":[{"name":"target","type":"address","internalType":"address"},{"name":"selector","type":"bytes4","internalType":"bytes4"}],"outputs":[{"name":"allowed","type":"bool","internalType":"bool"}],"stateMutability":"view"},{"type":"function","name":"allowedDelegationApprovalDestinations","inputs":[{"name":"destination","type":"address","internalType":"address"}],"outputs":[{"name":"allowed","type":"bool","internalType":"bool"}],"stateMutability":"view"},{"type":"function","name":"allowedLagoonVaults","inputs":[{"name":"destination","type":"address","internalType":"address"}],"outputs":[{"name":"allowed","type":"bool","internalType":"bool"}],"stateMutability":"view"},{"type":"function","name":"allowedReceivers","inputs":[{"name":"receiver","type":"address","internalType":"address"}],"outputs":[{"name":"allowed","type":"bool","internalType":"bool"}],"stateMutability":"view"},{"type":"function","name":"allowedSenders","inputs":[{"name":"sender","type":"address","internalType":"address"}],"outputs":[{"name":"allowed","type":"bool","internalType":"bool"}],"stateMutability":"view"},{"type":"function","name":"allowedTargets","inputs":[{"name":"target","type":"address","internalType":"address"}],"outputs":[{"name":"allowed","type":"bool","internalType":"bool"}],"stateMutability":"view"},{"type":"function","name":"allowedVeloraSwappers","inputs":[{"name":"destination","type":"address","internalType":"address"}],"outputs":[{"name":"allowed","type":"bool","internalType":"bool"}],"stateMutability":"view"},{"type":"function","name":"allowedWithdrawDestinations","inputs":[{"name":"destination","type":"address","internalType":"address"}],"outputs":[{"name":"allowed","type":"bool","internalType":"bool"}],"stateMutability":"view"},{"type":"function","name":"anyAsset","inputs":[],"outputs":[{"name":"","type":"bool","internalType":"bool"}],"stateMutability":"view"},{"type":"function","name":"avatar","inputs":[],"outputs":[{"name":"","type":"address","internalType":"address"}],"stateMutability":"view"},{"type":"function","name":"callSiteCount","inputs":[],"outputs":[{"name":"","type":"uint256","internalType":"uint256"}],"stateMutability":"view"},{"type":"function","name":"getGovernanceAddress","inputs":[],"outputs":[{"name":"","type":"address","internalType":"address"}],"stateMutability":"view"},{"type":"function","name":"getInternalVersion","inputs":[],"outputs":[{"name":"","type":"uint8","internalType":"uint8"}],"stateMutability":"pure"},{"type":"function","name":"getTradingStrategyModuleVersion","inputs":[],"outputs":[{"name":"","type":"string","internalType":"string"}],"stateMutability":"pure"},{"type":"function","name":"gmxOrderVaults","inputs":[{"name":"exchangeRouter","type":"address","internalType":"address"}],"outputs":[{"name":"","type":"address","internalType":"address"}],"stateMutability":"view"},{"type":"function","name":"isAllowedApprovalDestination","inputs":[{"name":"receiver","type":"address","internalType":"address"}],"outputs":[{"name":"","type":"bool","internalType":"bool"}],"stateMutability":"view"},{"type":"function","name":"isAllowedAsset","inputs":[{"name":"token","type":"address","internalType":"address"}],"outputs":[{"name":"","type":"bool","internalType":"bool"}],"stateMutability":"view"},{"type":"function","name":"isAllowedCCTPDestination","inputs":[{"name":"domain","type":"uint32","internalType":"uint32"}],"outputs":[{"name":"","type":"bool","internalType":"bool"}],"stateMutability":"view"},{"type":"function","name":"isAllowedCCTPMessenger","inputs":[{"name":"messenger","type":"address","internalType":"address"}],"outputs":[{"name":"","type":"bool","internalType":"bool"}],"stateMutability":"view"},{"type":"function","name":"isAllowedCallSite","inputs":[{"name":"target","type":"address","internalType":"address"},{"name":"selector","type":"bytes4","internalType":"bytes4"}],"outputs":[{"name":"","type":"bool","internalType":"bool"}],"stateMutability":"view"},{"type":"function","name":"isAllowedCowSwap","inputs":[{"name":"settlement","type":"address","internalType":"address"}],"outputs":[{"name":"","type":"bool","internalType":"bool"}],"stateMutability":"view"},{"type":"function","name":"isAllowedDelegationApprovalDestination","inputs":[{"name":"receiver","type":"address","internalType":"address"}],"outputs":[{"name":"","type":"bool","internalType":"bool"}],"stateMutability":"view"},{"type":"function","name":"isAllowedGMXMarket","inputs":[{"name":"market","type":"address","internalType":"address"}],"outputs":[{"name":"","type":"bool","internalType":"bool"}],"stateMutability":"view"},{"type":"function","name":"isAllowedGMXRouter","inputs":[{"name":"router","type":"address","internalType":"address"}],"outputs":[{"name":"","type":"bool","internalType":"bool"}],"stateMutability":"view"},{"type":"function","name":"isAllowedLagoonVault","inputs":[{"name":"vault","type":"address","internalType":"address"}],"outputs":[{"name":"","type":"bool","internalType":"bool"}],"stateMutability":"view"},{"type":"function","name":"isAllowedReceiver","inputs":[{"name":"receiver","type":"address","internalType":"address"}],"outputs":[{"name":"","type":"bool","internalType":"bool"}],"stateMutability":"view"},{"type":"function","name":"isAllowedSender","inputs":[{"name":"sender","type":"address","internalType":"address"}],"outputs":[{"name":"","type":"bool","internalType":"bool"}],"stateMutability":"view"},{"type":"function","name":"isAllowedTarget","inputs":[{"name":"target","type":"address","internalType":"address"}],"outputs":[{"name":"","type":"bool","internalType":"bool"}],"stateMutability":"view"},{"type":"function","name":"isAllowedVeloraSwapper","inputs":[{"name":"swapper","type":"address","internalType":"address"}],"outputs":[{"name":"","type":"bool","internalType":"bool"}],"stateMutability":"view"},{"type":"function","name":"isAllowedWithdrawDestination","inputs":[{"name":"receiver","type":"address","internalType":"address"}],"outputs":[{"name":"","type":"bool","internalType":"bool"}],"stateMutability":"view"},{"type":"function","name":"multicall","inputs":[{"name":"data","type":"bytes[]","internalType":"bytes[]"}],"outputs":[{"name":"results","type":"bytes[]","internalType":"bytes[]"}],"stateMutability":"payable"},{"type":"function","name":"owner","inputs":[],"outputs":[{"name":"","type":"address","internalType":"address"}],"stateMutability":"view"},{"type":"function","name":"performCall","inputs":[{"name":"target","type":"address","internalType":"address"},{"name":"callData","type":"bytes","internalType":"bytes"},{"name":"value","type":"uint256","internalType":"uint256"}],"outputs":[],"stateMutability":"nonpayable"},{"type":"function","name":"performCall","inputs":[{"name":"target","type":"address","internalType":"address"},{"name":"callData","type":"bytes","internalType":"bytes"}],"outputs":[],"stateMutability":"nonpayable"},{"type":"function","name":"removeApprovalDestination","inputs":[{"name":"destination","type":"address","internalType":"address"},{"name":"notes","type":"string","internalType":"string"}],"outputs":[],"stateMutability":"nonpayable"},{"type":"function","name":"removeAsset","inputs":[{"name":"asset","type":"address","internalType":"address"},{"name":"notes","type":"string","internalType":"string"}],"outputs":[],"stateMutability":"nonpayable"},{"type":"function","name":"removeCCTPDestination","inputs":[{"name":"domain","type":"uint32","internalType":"uint32"},{"name":"notes","type":"string","internalType":"string"}],"outputs":[],"stateMutability":"nonpayable"},{"type":"function","name":"removeCallSite","inputs":[{"name":"target","type":"address","internalType":"address"},{"name":"selector","type":"bytes4","internalType":"bytes4"},{"name":"notes","type":"string","internalType":"string"}],"outputs":[],"stateMutability":"nonpayable"},{"type":"function","name":"removeDelegationApprovalDestination","inputs":[{"name":"destination","type":"address","internalType":"address"},{"name":"notes","type":"string","internalType":"string"}],"outputs":[],"stateMutability":"nonpayable"},{"type":"function","name":"removeGMXMarket","inputs":[{"name":"market","type":"address","internalType":"address"},{"name":"notes","type":"string","internalType":"string"}],"outputs":[],"stateMutability":"nonpayable"},{"type":"function","name":"removeHypercoreVault","inputs":[{"name":"vault","type":"address","internalType":"address"},{"name":"notes","type":"string","internalType":"string"}],"outputs":[],"stateMutability":"nonpayable"},{"type":"function","name":"removeReceiver","inputs":[{"name":"receiver","type":"address","internalType":"address"},{"name":"notes","type":"string","internalType":"string"}],"outputs":[],"stateMutability":"nonpayable"},{"type":"function","name":"removeSender","inputs":[{"name":"sender","type":"address","internalType":"address"},{"name":"notes","type":"string","internalType":"string"}],"outputs":[],"stateMutability":"nonpayable"},{"type":"function","name":"removeWithdrawDestination","inputs":[{"name":"destination","type":"address","internalType":"address"},{"name":"notes","type":"string","internalType":"string"}],"outputs":[],"stateMutability":"nonpayable"},{"type":"function","name":"renounceOwnership","inputs":[],"outputs":[],"stateMutability":"nonpayable"},{"type":"function","name":"setAnyAssetAllowed","inputs":[{"name":"value","type":"bool","internalType":"bool"},{"name":"notes","type":"string","internalType":"string"}],"outputs":[],"stateMutability":"nonpayable"},{"type":"function","name":"setAvatar","inputs":[{"name":"_avatar","type":"address","internalType":"address"}],"outputs":[],"stateMutability":"nonpayable"},{"type":"function","name":"setTarget","inputs":[{"name":"_target","type":"address","internalType":"address"}],"outputs":[],"stateMutability":"nonpayable"},{"type":"function","name":"setUp","inputs":[{"name":"initializeParams","type":"bytes","internalType":"bytes"}],"outputs":[],"stateMutability":"nonpayable"},{"type":"function","name":"swapAndValidateCowSwap","inputs":[{"name":"settlementContract","type":"address","internalType":"address"},{"name":"receiver","type":"address","internalType":"address"},{"name":"appData","type":"bytes32","internalType":"bytes32"},{"name":"tokenIn","type":"address","internalType":"address"},{"name":"tokenOut","type":"address","internalType":"address"},{"name":"amountIn","type":"uint256","internalType":"uint256"},{"name":"minAmountOut","type":"uint256","internalType":"uint256"}],"outputs":[],"stateMutability":"nonpayable"},{"type":"function","name":"swapAndValidateVelora","inputs":[{"name":"augustusSwapper","type":"address","internalType":"address"},{"name":"tokenIn","type":"address","internalType":"address"},{"name":"tokenOut","type":"address","internalType":"address"},{"name":"amountIn","type":"uint256","internalType":"uint256"},{"name":"minAmountOut","type":"uint256","internalType":"uint256"},{"name":"augustusCalldata","type":"bytes","internalType":"bytes"}],"outputs":[],"stateMutability":"nonpayable"},{"type":"function","name":"target","inputs":[],"outputs":[{"name":"","type":"address","internalType":"address"}],"stateMutability":"view"},{"type":"function","name":"transferOwnership","inputs":[{"name":"newOwner","type":"address","internalType":"address"}],"outputs":[],"stateMutability":"nonpayable"},{"type":"function","name":"validateCall","inputs":[{"name":"sender","type":"address","internalType":"address"},{"name":"target","type":"address","internalType":"address"},{"name":"callDataWithSelector","type":"bytes","internalType":"bytes"}],"outputs":[],"stateMutability":"view"},{"type":"function","name":"whitelistAaveV3","inputs":[{"name":"lendingPool","type":"address","internalType":"address"},{"name":"notes","type":"string","internalType":"string"}],"outputs":[],"stateMutability":"nonpayable"},{"type":"function","name":"whitelistCCTP","inputs":[{"name":"tokenMessenger","type":"address","internalType":"address"},{"name":"notes","type":"string","internalType":"string"}],"outputs":[],"stateMutability":"nonpayable"},{"type":"function","name":"whitelistCCTPDestination","inputs":[{"name":"domain","type":"uint32","internalType":"uint32"},{"name":"notes","type":"string","internalType":"string"}],"outputs":[],"stateMutability":"nonpayable"},{"type":"function","name":"whitelistCoreWriter","inputs":[{"name":"coreWriter","type":"address","internalType":"address"},{"name":"coreDepositWallet","type":"address","internalType":"address"},{"name":"notes","type":"string","internalType":"string"}],"outputs":[],"stateMutability":"nonpayable"},{"type":"function","name":"whitelistCowSwap","inputs":[{"name":"settlementContract","type":"address","internalType":"address"},{"name":"relayerContract","type":"address","internalType":"address"},{"name":"notes","type":"string","internalType":"string"}],"outputs":[],"stateMutability":"nonpayable"},{"type":"function","name":"whitelistERC4626","inputs":[{"name":"vault","type":"address","internalType":"address"},{"name":"notes","type":"string","internalType":"string"}],"outputs":[],"stateMutability":"nonpayable"},{"type":"function","name":"whitelistGMX","inputs":[{"name":"exchangeRouter","type":"address","internalType":"address"},{"name":"syntheticsRouter","type":"address","internalType":"address"},{"name":"orderVault","type":"address","internalType":"address"},{"name":"notes","type":"string","internalType":"string"}],"outputs":[],"stateMutability":"nonpayable"},{"type":"function","name":"whitelistGMXMarket","inputs":[{"name":"market","type":"address","internalType":"address"},{"name":"notes","type":"string","internalType":"string"}],"outputs":[],"stateMutability":"nonpayable"},{"type":"function","name":"whitelistHypercoreVault","inputs":[{"name":"vault","type":"address","internalType":"address"},{"name":"notes","type":"string","internalType":"string"}],"outputs":[],"stateMutability":"nonpayable"},{"type":"function","name":"whitelistLagoon","inputs":[{"name":"vault","type":"address","internalType":"address"},{"name":"notes","type":"string","internalType":"string"}],"outputs":[],"stateMutability":"nonpayable"},{"type":"function","name":"whitelistOrderly","inputs":[{"name":"orderlyVault","type":"address","internalType":"address"},{"name":"notes","type":"string","internalType":"string"}],"outputs":[],"stateMutability":"nonpayable"},{"type":"function","name":"whitelistToken","inputs":[{"name":"token","type":"address","internalType":"address"},{"name":"notes","type":"string","internalType":"string"}],"outputs":[],"stateMutability":"nonpayable"},{"type":"function","name":"whitelistTokenForDelegation","inputs":[{"name":"token","type":"address","internalType":"address"},{"name":"notes","type":"string","internalType":"string"}],"outputs":[],"stateMutability":"nonpayable"},{"type":"function","name":"whitelistUniswapV2Router","inputs":[{"name":"router","type":"address","internalType":"address"},{"name":"notes","type":"string","internalType":"string"}],"outputs":[],"stateMutability":"nonpayable"},{"type":"function","name":"whitelistUniswapV3Router","inputs":[{"name":"router","type":"address","internalType":"address"},{"name":"notes","type":"string","internalType":"string"}],"outputs":[],"stateMutability":"nonpayable"},{"type":"function","name":"whitelistVelora","inputs":[{"name":"augustusSwapper","type":"address","internalType":"address"},{"name":"tokenTransferProxy","type":"address","internalType":"address"},{"name":"notes","type":"string","internalType":"string"}],"outputs":[],"stateMutability":"nonpayable"},{"type":"event","name":"AnyAssetSet","inputs":[{"name":"value","type":"bool","indexed":false,"internalType":"bool"},{"name":"notes","type":"string","indexed":false,"internalType":"string"}],"anonymous":false},{"type":"event","name":"AnyVaultSet","inputs":[{"name":"value","type":"bool","indexed":false,"internalType":"bool"},{"name":"notes","type":"string","indexed":false,"internalType":"string"}],"anonymous":false},{"type":"event","name":"ApprovalDestinationApproved","inputs":[{"name":"destination","type":"address","indexed":false,"internalType":"address"},{"name":"notes","type":"string","indexed":false,"internalType":"string"}],"anonymous":false},{"type":"event","name":"ApprovalDestinationRemoved","inputs":[{"name":"destination","type":"address","indexed":false,"internalType":"address"},{"name":"notes","type":"string","indexed":false,"internalType":"string"}],"anonymous":false},{"type":"event","name":"AssetApproved","inputs":[{"name":"asset","type":"address","indexed":false,"internalType":"address"},{"name":"notes","type":"string","indexed":false,"internalType":"string"}],"anonymous":false},{"type":"event","name":"AssetRemoved","inputs":[{"name":"asset","type":"address","indexed":false,"internalType":"address"},{"name":"notes","type":"string","indexed":false,"internalType":"string"}],"anonymous":false},{"type":"event","name":"AvatarSet","inputs":[{"name":"previousAvatar","type":"address","indexed":true,"internalType":"address"},{"name":"newAvatar","type":"address","indexed":true,"internalType":"address"}],"anonymous":false},{"type":"event","name":"CCTPDestinationApproved","inputs":[{"name":"domain","type":"uint32","indexed":false,"internalType":"uint32"},{"name":"notes","type":"string","indexed":false,"internalType":"string"}],"anonymous":false},{"type":"event","name":"CCTPDestinationRemoved","inputs":[{"name":"domain","type":"uint32","indexed":false,"internalType":"uint32"},{"name":"notes","type":"string","indexed":false,"internalType":"string"}],"anonymous":false},{"type":"event","name":"CCTPMessengerApproved","inputs":[{"name":"tokenMessenger","type":"address","indexed":false,"internalType":"address"},{"name":"notes","type":"string","indexed":false,"internalType":"string"}],"anonymous":false},{"type":"event","name":"CallSiteApproved","inputs":[{"name":"target","type":"address","indexed":false,"internalType":"address"},{"name":"selector","type":"bytes4","indexed":false,"internalType":"bytes4"},{"name":"notes","type":"string","indexed":false,"internalType":"string"}],"anonymous":false},{"type":"event","name":"CallSiteRemoved","inputs":[{"name":"target","type":"address","indexed":false,"internalType":"address"},{"name":"selector","type":"bytes4","indexed":false,"internalType":"bytes4"},{"name":"notes","type":"string","indexed":false,"internalType":"string"}],"anonymous":false},{"type":"event","name":"DelegationApprovalDestinationApproved","inputs":[{"name":"destination","type":"address","indexed":false,"internalType":"address"},{"name":"notes","type":"string","indexed":false,"internalType":"string"}],"anonymous":false},{"type":"event","name":"DelegationApprovalDestinationRemoved","inputs":[{"name":"destination","type":"address","indexed":false,"internalType":"address"},{"name":"notes","type":"string","indexed":false,"internalType":"string"}],"anonymous":false},{"type":"event","name":"ERC4626Approved","inputs":[{"name":"vault","type":"address","indexed":false,"internalType":"address"},{"name":"notes","type":"string","indexed":false,"internalType":"string"}],"anonymous":false},{"type":"event","name":"Initialized","inputs":[{"name":"version","type":"uint64","indexed":false,"internalType":"uint64"}],"anonymous":false},{"type":"event","name":"LagoonVaultApproved","inputs":[{"name":"vault","type":"address","indexed":false,"internalType":"address"},{"name":"notes","type":"string","indexed":false,"internalType":"string"}],"anonymous":false},{"type":"event","name":"OwnershipTransferred","inputs":[{"name":"previousOwner","type":"address","indexed":true,"internalType":"address"},{"name":"newOwner","type":"address","indexed":true,"internalType":"address"}],"anonymous":false},{"type":"event","name":"ReceiverApproved","inputs":[{"name":"receiver","type":"address","indexed":false,"internalType":"address"},{"name":"notes","type":"string","indexed":false,"internalType":"string"}],"anonymous":false},{"type":"event","name":"ReceiverRemoved","inputs":[{"name":"receiver","type":"address","indexed":false,"internalType":"address"},{"name":"notes","type":"string","indexed":false,"internalType":"string"}],"anonymous":false},{"type":"event","name":"SenderApproved","inputs":[{"name":"sender","type":"address","indexed":false,"internalType":"address"},{"name":"notes","type":"string","indexed":false,"internalType":"string"}],"anonymous":false},{"type":"event","name":"SenderRemoved","inputs":[{"name":"sender","type":"address","indexed":false,"internalType":"address"},{"name":"notes","type":"string","indexed":false,"internalType":"string"}],"anonymous":false},{"type":"event","name":"TargetSet","inputs":[{"name":"previousTarget","type":"address","indexed":true,"internalType":"address"},{"name":"newTarget","type":"address","indexed":true,"internalType":"address"}],"anonymous":false},{"type":"event","name":"VeloraSwapExecuted","inputs":[{"name":"timestamp","type":"uint256","indexed":true,"internalType":"uint256"},{"name":"augustusSwapper","type":"address","indexed":true,"internalType":"address"},{"name":"tokenIn","type":"address","indexed":false,"internalType":"address"},{"name":"tokenOut","type":"address","indexed":false,"internalType":"address"},{"name":"amountIn","type":"uint256","indexed":false,"internalType":"uint256"},{"name":"amountOut","type":"uint256","indexed":false,"internalType":"uint256"},{"name":"minAmountOut","type":"uint256","indexed":false,"internalType":"uint256"}],"anonymous":false},{"type":"event","name":"VeloraSwapperApproved","inputs":[{"name":"augustusSwapper","type":"address","indexed":false,"internalType":"address"},{"name":"notes","type":"string","indexed":false,"internalType":"string"}],"anonymous":false},{"type":"event","name":"WithdrawDestinationApproved","inputs":[{"name":"destination","type":"address","indexed":false,"internalType":"address"},{"name":"notes","type":"string","indexed":false,"internalType":"string"}],"anonymous":false},{"type":"event","name":"WithdrawDestinationRemoved","inputs":[{"name":"destination","type":"address","indexed":false,"internalType":"address"},{"name":"notes","type":"string","indexed":false,"internalType":"string"}],"anonymous":false},{"type":"error","name":"InvalidInitialization","inputs":[]},{"type":"error","name":"NotInitializing","inputs":[]},{"type":"error","name":"OwnableInvalidOwner","inputs":[{"name":"owner","type":"address","internalType":"address"}]},{"type":"error","name":"OwnableUnauthorizedAccount","inputs":[{"name":"account","type":"address","internalType":"address"}]}],"bytecode":{"object":"0x60808060405234610232576040816157fd803803809161001f828561028a565b8339810103126102325761003e6020610037836102c1565b92016102c1565b604080516001600160a01b03938416602082019081529290931683820190815290835261006c60608461028a565b5f805160206157dd83398151915254604081901c60ff1615936001600160401b03821680159081610282575b6001149081610278575b15908161026f575b50610260576001600160401b031982166001175f805160206157dd8339815191525560409185610236575b506100de610359565b6100e6610359565b6100ef336102d5565b805181010312610232576101056101c4926102c1565b906001600160a01b0390610118906102c1565b16610121610384565b5f80546001600160a01b031981168317825582916001600160a01b03909116907f52ae88b092de36f87fb43fe794eb1381023b9c1bce563a871154022c63dce3429080a361016d610384565b600180546001600160a01b0319811683179091556001600160a01b03167f90cc2f570a6eb594b1580ea3e41247d2d73a55281889e86bd4ec2fc29c7e62d65f80a36101b6610384565b6001600160a01b03166102d5565b6101d8575b60405161541290816103cb8239f35b68ff0000000000000000195f805160206157dd83398151915254165f805160206157dd833981519152557fc7f505b2f371ae2175ee4913f4499e1f2633a7b5936321eed1cdaeb6115181d2602060405160018152a16101c9565b5f80fd5b6001600160481b03191668010000000000000001175f805160206157dd833981519152555f6100d5565b63f92ee8a960e01b5f5260045ffd5b9050155f6100aa565b303b1591506100a2565b869150610098565b601f909101601f19168101906001600160401b038211908210176102ad57604052565b634e487b7160e01b5f52604160045260245ffd5b51906001600160a01b038216820361023257565b6001600160a01b03168015610346577f9016d09d72d40fdae2fd8ceac6b6234c7706214fd39c1cd1e609a0528c19930080546001600160a01b0319811683179091556001600160a01b03167f8be0079c531659141344cd1fd0a4f28419497f9722a3daafe3b4186f6b6457e05f80a3565b631e4fbdf760e01b5f525f60045260245ffd5b60ff5f805160206157dd8339815191525460401c161561037557565b631afcd79f60e31b5f5260045ffd5b7f9016d09d72d40fdae2fd8ceac6b6234c7706214fd39c1cd1e609a0528c199300546001600160a01b031633036103b757565b63118cdaa760e01b5f523360045260245ffdfe60806040526004361015610011575f80fd5b5f3560e01c80630411fb8e146104e857806304a3ba25146104ed57806307605342146104e857806307ef00cf146103c1578063086cfca8146104e35780631047789e146104de5780631d49039c146103d05780632d12d788146104d95780632dc32a61146104ac5780632de905bc146104d45780632e31e9c6146104cf578063333f22e8146104ca57806334ec8d7e146104c55780633cf20025146104c05780633ea35551146104bb578063486295dc146104b65780634acf884d146104b15780634b941268146104ac5780634d3d31ca146104a75780634efbad39146104a25780635ace1d921461049d5780635aef7de6146104985780635e4ccace146104935780635e6afe4d1461048e57806362d6775e1461048957806363cc17f2146104845780636d5025f11461047f5780636d9a14231461047a5780636fd7fdef14610448578063713ebf3b1461042a578063715018a61461047557806372e548a914610470578063732524941461044d578063748fca4614610466578063776d1a011461046b57806378addb48146104115780637cac69c31461046657806386a6ae151461046157806386b6dbe51461045c57806387301608146104575780638c2fdf9e146104525780638da5cb5b1461044d5780638fb4dff21461044857806398b3cc39146104435780639e4a83cf1461043e578063a4c1cccb14610439578063a4f9edbf14610434578063a67e1f541461042f578063a847cf4d1461042a578063a86ddc5714610425578063a9fc3d4f14610420578063ac9650d81461041b578063acb9da1614610416578063b45ea48b146103ad578063b8fe8d5f14610411578063ba44ad411461040c578063be8c97b014610399578063c2e657ae14610407578063c537bed014610402578063cbdb1dcf146103fd578063d075f9bb146103f8578063d2f73e3d146103f3578063d4b83992146103ee578063d7334c9d146103e9578063d7581509146103e4578063db17a170146103df578063e2873b6d146103da578063e6f32c51146103d5578063eb0de042146103d0578063ec011440146103cb578063ee5462cc146103c6578063efb47bff146103c1578063f20e85e0146103bc578063f259a073146103b7578063f2fde38b146103b2578063f84756aa146103ad578063f901dc33146103a8578063f9cf8ae5146103a3578063fa2c59c81461039e578063fadbcf48146103995763fdedfa2714610394575f80fd5b6128af565b61201e565b612844565b6126f7565b61268f565b611f3f565b612662565b6125fa565b61255c565b610668565b612545565b612454565b610816565b6123ee565b61239d565b6122f4565b6122a3565b612234565b61220c565b6121e9565b6121aa565b612130565b6120ff565b612068565b611fbb565b61168d565b611e9c565b611d9d565b611d21565b611c8d565b61148e565b611c0f565b611ac6565b6119a8565b611960565b6118d0565b61144e565b6115a1565b611868565b611846565b6117ee565b6116cd565b6115f9565b611633565b611536565b6114e2565b6113b6565b61139c565b611344565b611219565b611112565b61108a565b611000565b610f78565b610ec1565b610e70565b6108be565b610ca3565b610c31565b610b93565b610b53565b610aa0565b610a26565b610972565b6108fe565b610856565b610744565b6106a8565b610507565b6105b0565b6001600160a01b0381160361050357565b5f80fd5b3461050357602036600319011261050357600435610524816104f2565b60018060a01b03165f52600d602052602060ff60405f2054166040519015158152f35b9181601f84011215610503578235916001600160401b038311610503576020838186019501011161050357565b9060406003198301126105035760043561058d816104f2565b91602435906001600160401b038211610503576105ac91600401610547565b9091565b34610503577fb71be9befd3ac90c1c9981d3b1161b3c2c6dcd741f13b34061aa251226a802df6106186105e236610574565b6105ed9391936139c5565b6001600160a01b0383165f9081526009602052604090819020805460ff1916905551938493846128ea565b0390a1005b6001600160a01b03165f90815260066020526040902090565b6001600160a01b03165f90815260076020526040902090565b6001600160a01b03165f90815260026020526040902090565b3461050357602036600319011261050357600435610685816104f2565b60018060a01b03165f526008602052602060ff60405f2054166040519015158152f35b34610503576020366003190112610503576004356106c5816104f2565b6106cd6139c5565b5f80546001600160a01b039283166001600160a01b03198216811783559216905f805160206153268339815191529080a3005b606060031982011261050357600435610718816104f2565b91602435610725816104f2565b91604435906001600160401b038211610503576105ac91600401610547565b34610503576107ac61075536610700565b8181936107639693966139c5565b6001600160a01b0386165f9081526009602052604090819020805460ff19166001179055515f8051602061530683398151915290806107a486868b846128ea565b0390a16136b0565b73__$f7398432285ba6c2c1c9749bf7c6b7e7ad$__803b15610503576107eb935f936040519586948593849363303e5bc960e21b8552600485016128ea565b03915af48015610811576107fb57005b806108095f61080f93611a37565b80610fe3565b005b61290c565b3461050357602036600319011261050357600435610833816104f2565b60018060a01b03165f526009602052602060ff60405f2054166040519015158152f35b34610503577f4e13b11ab98e672bd78295ef9cebe764dc617f95decf47d842c25b83abc0c72461061861088836610574565b6108939391936139c5565b6001600160a01b0383165f9081526007602052604090819020805460ff1916905551938493846128ea565b34610503576020366003190112610503576004356108db816104f2565b60018060a01b03165f52600a602052602060ff60405f2054166040519015158152f35b346105035761090c36610574565b6109146139c5565b73__$f9fa4d4e532bfe6aeff5ab3d328fd72bc7$__92833b156105035761094f5f92604051948593630b7a416f60e21b8552600485016128ea565b938180849603915af4801561081157610966575080f35b61080f91505f90611a37565b34610503576020366003190112610503576109b66020600435610994816104f2565b600f546040516312789ae160e11b8152938492839260ff16906004840161292c565b038173__$bda5499a8fa48831c49ec55d96dbc8aee1$__5af48015610811576109f3915f916109f7575b5060405190151581529081906020820190565b0390f35b610a19915060203d602011610a1f575b610a118183611a37565b810190612917565b5f6109e0565b503d610a07565b3461050357602036600319011261050357600435610a43816104f2565b604051630667e45d60e31b81526001600160a01b03909116600482015260208160248173__$f7398432285ba6c2c1c9749bf7c6b7e7ad$__5af48015610811576109f3915f916109f7575060405190151581529081906020820190565b346105035761080f610ab136610574565b91610aba6139c5565b6001600160a01b0381165f81815260026020908152604080832063c04b8d5960e01b84529091529020600160ff198254161790555f52600360205260405f20600160ff19825416179055610b17610b12600454613462565b600455565b5f805160206153e683398151915260405180610b3586868684613475565b0390a1610b43838383612947565b610b4e8383836129d9565b6136b0565b3461050357602036600319011261050357600435610b70816104f2565b60018060a01b03165f526007602052602060ff60405f2054166040519015158152f35b346105035761080f610ba436610574565b91610bad6139c5565b6001600160a01b0381165f8181526002602090815260408083206338ed173960e01b84529091529020600160ff198254161790555f52600360205260405f20600160ff19825416179055610c05610b12600454613462565b5f805160206153e683398151915260405180610c23868686846134a4565b0390a1610b4e838383612a66565b3461050357606036600319011261050357600435610c4e816104f2565b602435906001600160401b03821161050357610c8d610c74610c93933690600401610547565b919060443592610c8681838733613bc9565b3691611a75565b916142b1565b9015610c9b57005b602081519101fd5b346105035760e036600319011261050357600435610cc0816104f2565b60243590610ccd826104f2565b60443560643592610cdd846104f2565b60843590610cea826104f2565b60a4359360c43592610cfa6142fd565b50604051630667e45d60e31b81529573__$f7398432285ba6c2c1c9749bf7c6b7e7ad$__949060208880610d318760048301610fed565b0381895af492831561081157610d53610dff945f9a8b91610e51575b5061431c565b610d6e610d69610d623361061d565b5460ff1690565b6139f8565b610d7f610d7a8b61392b565b61435e565b610d90610d8b8261392b565b6143a0565b610da4610d9f610d6288610636565b6143e3565b6040516365b244b560e11b81526001600160a01b03958616600482015295851660248701526044860197909752978316606485015291909416608483015260a482019590955260c481019490945283918290819060e4820190565b03915af4801561081157610c93915f91610e2f575b5060208101516040906001600160a01b031691015190614228565b610e4b91503d805f833e610e438183611a37565b810190614426565b5f610e14565b610e6a915060203d602011610a1f57610a118183611a37565b5f610d4d565b3461050357610e7e36610574565b610e866139c5565b73__$bda5499a8fa48831c49ec55d96dbc8aee1$__92833b156105035761094f5f9260405194859363f7570c2960e01b8552600485016128ea565b34610503577f4528ea4d4b1ca7b25fe4843fa8f643b7bbdc91395054ca124e68c761b44f77076106185f80516020615306833981519152610f0136610700565b91908095939491610f106139c5565b610f186139c5565b60018060a01b0381165f52600960205260405f20600160ff19825416179055610f4784604051938493846128ea565b0390a16001600160a01b0383165f908152600c602052604090819020805460ff1916600117905551938493846128ea565b34610503577f3562181221a42a19ddd03a82dfe06acab1905ceb65cdaf7d86a1d9fec6643552610618610faa36610574565b610fb59391936139c5565b6001600160a01b0383165f9081526008602052604090819020805460ff1916600117905551938493846128ea565b5f91031261050357565b6001600160a01b03909116815260200190565b34610503575f366003190112610503575f546040516001600160a01b039091168152602090f35b602435906001600160e01b03198216820361050357565b606060031982011261050357600435611056816104f2565b916024356001600160e01b0319811681036105035791604435906001600160401b038211610503576105ac91600401610547565b34610503575f805160206153e68339815191526106186110a93661103e565b906110b59492946139c5565b6001600160a01b0384165f8181526002602052604090206110d7908790611c77565b600160ff198254161790555f52600360205260405f20600160ff19825416179055611103600454613462565b6004556040519485948561361c565b34610503577ffaa136302ac223cf7c1146490a741e4520e886fc22d7e759641453f432283d0161061861114436610574565b61114f9391936139c5565b6001600160a01b0383165f818152600b60205260409020805460ff191660011790556111796139c5565b805f52600260205261119c60405f2063559ec80d60e01b5f5260205260405f2090565b600160ff198254161790555f52600360205260405f20600160ff198254161790556111cb610b12600454613462565b5f805160206153e6833981519152604051806111e9848888846134d3565b0390a16111f7818585612af3565b611202818585612b80565b61120d818585612c0d565b604051938493846128ea565b3461050357608036600319011261050357600435611236816104f2565b60243590611243826104f2565b60443561124f816104f2565b6064356001600160401b0381116105035761126e903690600401610547565b9290936112796139c5565b6112816139c5565b6001600160a01b0382165f818152600260209081526040808320631592ca1b60e31b84529091529020600160ff198254161790555f52600360205260405f20600160ff198254161790556112d9610b12600454613462565b5f805160206153e6833981519152604051806112f787898784613502565b0390a16113058486836136b0565b73__$bda5499a8fa48831c49ec55d96dbc8aee1$__91823b15610503576107eb5f956040519788968795869563f4d5bb9360e01b87526004870161364f565b34610503575f8051602061530683398151915261061861136336610574565b61136e9391936139c5565b6001600160a01b0383165f908152600a602052604090819020805460ff1916600117905551938493846128ea565b346105035761080f6113ad36610700565b92919091613bc9565b346105035761080f6113c736610574565b916113d06139c5565b6001600160a01b0381165f818152600260209081526040808320630c04a8a160e41b84529091529020600160ff198254161790555f52600360205260405f20600160ff19825416179055611428610b12600454613462565b5f805160206153e68339815191526040518061144686868684613531565b0390a1613696565b346105035760203660031901126105035760043561146b816104f2565b60018060a01b03165f52600b602052602060ff60405f2054166040519015158152f35b3461050357604036600319011261050357602060ff6114d66004356114b2816104f2565b6114ba611027565b6001600160a01b039091165f9081526002855260409020611c77565b54166040519015158152f35b34610503575f366003190112610503576114fa6139c5565b5f8051602061534683398151915280546001600160a01b031981169091555f906001600160a01b03165f805160206153868339815191528280a3005b34610503577f62dd88c5ecfa60713a657640ebec4de26fc1aefa4afdb24e6d15a124fce7277961061861156836610574565b6115739391936139c5565b6001600160a01b0383165f9081526007602052604090819020805460ff1916600117905551938493846128ea565b34610503575f366003190112610503575f80516020615346833981519152546040516001600160a01b039091168152602090f35b6004359063ffffffff8216820361050357565b359063ffffffff8216820361050357565b346105035760203660031901126105035763ffffffff6116176115d5565b165f52600e602052602060ff60405f2054166040519015158152f35b3461050357602036600319011261050357600435611650816104f2565b6116586139c5565b600180546001600160a01b039283166001600160a01b0319821681179092559091165f805160206153668339815191525f80a3005b34610503576020366003190112610503576004356116aa816104f2565b60018060a01b03165f526003602052602060ff60405f2054166040519015158152f35b34610503576116db36610574565b6040516338d52e0f60e01b815292906020846004816001600160a01b0386165afa9081156108115761120d8185610618947fd2851df39115d63968e90113e8b3a96f13e33ac4c2e5a9caa1afeffe59e55748985f916117bf575b50611741838389612c9a565b61174c838389612d27565b611757838389612db4565b611762838389612e41565b61176d838389612ece565b611778838389612f59565b611783838389612fe6565b61178e838389613073565b611799838389613100565b6117a483838961318d565b6117af8383896136b0565b6117ba8383896144af565b6144af565b6117e1915060203d6020116117e7575b6117d98183611a37565b810190613681565b5f611735565b503d6117cf565b34610503575f805160206153a683398151915261061861180d36610574565b6118189391936139c5565b6001600160a01b0383165f9081526005602052604090819020805460ff1916600117905551938493846128ea565b34610503575f36600319011261050357602060ff600f54166040519015158152f35b34610503577f1212f8ddb39de8e1a339460c95752d61100723efeaa34ccd94bca94393f4093861061861189a36610574565b6118a59391936139c5565b6001600160a01b0383165f9081526008602052604090819020805460ff1916905551938493846128ea565b34610503575f805160206153068339815191526106186118ef36610574565b6118fa9391936139c5565b6001600160a01b0383165f9081526009602052604090819020805460ff1916600117905551938493846128ea565b805180835260209291819084018484015e5f828201840152601f01601f1916010190565b90602061195d928181520190611928565b90565b34610503575f366003190112610503576109f3604051611981604082611a37565b60068152651d8c0b8c4b8d60d21b6020820152604051918291602083526020830190611928565b34610503576020366003190112610503576004356119c5816104f2565b60018060a01b03165f526005602052602060ff60405f2054166040519015158152f35b634e487b7160e01b5f52604160045260245ffd5b606081019081106001600160401b03821117611a1757604052565b6119e8565b60a081019081106001600160401b03821117611a1757604052565b601f909101601f19168101906001600160401b03821190821017611a1757604052565b6001600160401b038111611a1757601f01601f191660200190565b929192611a8182611a5a565b91611a8f6040519384611a37565b829481845281830111610503578281602093845f960137010152565b9080601f830112156105035781602061195d93359101611a75565b34610503576020366003190112610503576004356001600160401b03811161050357611af6903690600401611aab565b5f805160206153c6833981519152549060ff604083901c1615611b18565b1590565b916001600160401b031680159081611c07575b6001149081611bfd575b159081611bf4575b50611be5575f805160206153c683398151915280546001600160401b0319166001179055611b6f9082611bc1576136ca565b611b7557005b5f805160206153c6833981519152805460ff60401b19169055604051600181527fc7f505b2f371ae2175ee4913f4499e1f2633a7b5936321eed1cdaeb6115181d2908060208101610618565b5f805160206153c6833981519152805460ff60401b1916600160401b1790556136ca565b63f92ee8a960e01b5f5260045ffd5b9050155f611b3d565b303b159150611b35565b839150611b2b565b34610503577f3097928509c53a2dab9500431201d82b0d756e8f890fd01f4ae6b33b45687ea4610618611c4136610574565b611c4c9391936139c5565b6001600160a01b0383165f9081526006602052604090819020805460ff1916905551938493846128ea565b9063ffffffff60e01b165f5260205260405f2090565b3461050357602036600319011261050357600435611caa816104f2565b6040516351097a3360e01b81526001600160a01b03909116600482015260208160248173__$bda5499a8fa48831c49ec55d96dbc8aee1$__5af48015610811576109f3915f91611d02575b5060405191829182610fed565b611d1b915060203d6020116117e7576117d98183611a37565b5f611cf5565b34610503575f366003190112610503576020600454604051908152f35b602081016020825282518091526040820191602060408360051b8301019401925f915b838310611d7057505050505090565b9091929394602080611d8e600193603f198682030187528951611928565b97019301930191939290611d61565b6020366003190112610503576004356001600160401b0381116105035736602382011215610503576004810135906001600160401b038211610503576024810190602436918460051b01011161050357611df6826137af565b915f5b818110611e0e57604051806109f38682611d3e565b5f80611e1b83858761380c565b90611e2b60405180938193613852565b0390305af4611e3861385f565b9015611e5e5790600191611e4c82876138fa565b52611e5781866138fa565b5001611df9565b604481511061050357611e80816024806004611e9895015183010191016138c4565b60405162461bcd60e51b81529182916004830161194c565b0390fd5b3461050357611eaa36610700565b91611eb36139c5565b73__$f9fa4d4e532bfe6aeff5ab3d328fd72bc7$__93843b156105035760405163565ced0b60e11b81526001600160a01b039182166004820152908216602482015260606044820152935f9085908180611f116064820189896128ca565b03915af49384156108115761080f94611f2b575b506136b0565b806108095f611f3993611a37565b5f611f25565b3461050357602036600319011261050357600435611f5c816104f2565b60018060a01b03165f52600c602052602060ff60405f2054166040519015158152f35b9060406003198301126105035760043563ffffffff811681036105035791602435906001600160401b038211610503576105ac91600401610547565b34610503577f1032cb8f3d65d1f2761007cb8b0ca5365671ee20a8efa21ecae1a8dfbca5b7a5610618611fed36611f7f565b611ff89391936139c5565b63ffffffff83165f52600e60205260405f2060ff1981541690556040519384938461390e565b346105035760203660031901126105035760043561203b816104f2565b60018060a01b03165f526006602052602060ff60405f2054166040519015158152f35b8015150361050357565b34610503576040366003190112610503576004356120858161205e565b6024356001600160401b038111610503577f50454d9d0025a28a39cac5a4b3f3101d29b6e413fbb64f75fb42eb6837b07718916120c9610618923690600401610547565b9290916120d46139c5565b15159160ff19600f541660ff841617600f5560405193849384526040602085015260408401916128ca565b34610503576020366003190112610503576020612126600435612121816104f2565b61392b565b6040519015158152f35b346105035760203660031901126105035760043561214d816104f2565b60405163c226c4bb60e01b81526001600160a01b03909116600482015260208160248173__$bda5499a8fa48831c49ec55d96dbc8aee1$__5af48015610811576109f3915f916109f7575060405190151581529081906020820190565b346105035760203660031901126105035760206121266004356121cc816104f2565b6001600160a01b03165f9081526007602052604090205460ff1690565b3461050357610c93610c8d5f6121fe36610574565b610c86818385979533613bc9565b34610503575f366003190112610503576001546040516001600160a01b039091168152602090f35b34610503577f37ea10f2d08f5a9803dfcd5abf3cfc7b0d6fcdf5fcbc36be9ea5a0b53d9a4d9b6106186122663661103e565b906122729492946139c5565b60018060a01b0384165f52600260205261228f8560405f20611c77565b805460ff191690556040519485948561361c565b34610503576122b136610574565b6122b96139c5565b73__$bda5499a8fa48831c49ec55d96dbc8aee1$__92833b156105035761094f5f92604051948593634a1c4b1960e11b8552600485016128ea565b346105035761080f61230536610574565b9161230e6139c5565b6001600160a01b0381165f818152600260209081526040808320632df4869b60e01b84529091529020600160ff198254161790555f52600360205260405f20600160ff19825416179055612366610b12600454613462565b5f805160206153e68339815191526040518061238486868684613560565b0390a161239283838361321a565b610b4e8383836132a7565b34610503576123ab36610574565b6123b36139c5565b73__$f9fa4d4e532bfe6aeff5ab3d328fd72bc7$__92833b156105035761094f5f9260405194859363e2873b6d60e01b8552600485016128ea565b34610503577f9fc3f914bc6770a3679a6a9fdb4620f0566db329f178fb033fc0c6dcce1b693d61061861242036611f7f565b61242b9391936139c5565b63ffffffff83165f52600e60205260405f20600160ff198254161790556040519384938461390e565b34610503577f9efd66cbdaa05f6414ab9c4ae71d358b087e972c11874e7c3e9c7c79c61e23aa61061861248636610574565b6124919391936139c5565b6124996139c5565b6001600160a01b0383165f818152600260209081526040808320634701287760e11b84529091529020600160ff198254161790555f52600360205260405f20600160ff198254161790556124f1610b12600454613462565b5f805160206153e68339815191526040518061250f8488888461358f565b0390a161251d8185856136b0565b6001600160a01b0383165f908152600d6020526040902061120d90805460ff19166001179055565b346105035761080f61255636610574565b916144af565b346105035761080f61256d36610574565b916125766139c5565b6001600160a01b0381165f81815260026020908152604080832063617ba03760e01b84529091529020600160ff198254161790555f52600360205260405f20600160ff198254161790556125ce610b12600454613462565b5f805160206153e6833981519152604051806125ec868686846135be565b0390a1610b4e838383613334565b34610503577ff9a414ea26a64e12a2abdb23706ec196a42adeb564668fb73f46555fbd2336c261061861262c36610574565b6126379391936139c5565b6001600160a01b0383165f908152600a602052604090819020805460ff1916905551938493846128ea565b346105035760203660031901126105035761080f600435612682816104f2565b61268a6139c5565b613967565b34610503577f9ca3f065622f5f03f32b7157677a0e420c3a36ab45fd49f256ffebce3e3105876106186126c136610574565b6126cc9391936139c5565b6001600160a01b0383165f9081526005602052604090819020805460ff1916905551938493846128ea565b346105035760c036600319011261050357600435612714816104f2565b602435612720816104f2565b60443561272c816104f2565b60a4359160843591606435916001600160401b038511610503576127576127c4953690600401611aab565b5f80546001600160a01b038981168352600c60209081526040909320549116906127839060ff16614543565b612792610d69610d623361061d565b61279e610d7a8561392b565b6127aa610d8b8661392b565b604051809881926370a0823160e01b835260048301610fed565b03816001600160a01b0387165afa958615610811575f9661280f575b506127eb9087614228565b969015612807575f5461080f97506001600160a01b031661460c565b865160208801fd5b6127eb9196506128369060203d60201161283d575b61282e8183611a37565b81019061458c565b95906127e0565b503d612824565b34610503577fa8f9caaf4861720900294428e4ff34d37070c37afd26d96e6e4da75326d2c3ad61061861287636610574565b6128819391936139c5565b6001600160a01b0383165f9081526006602052604090819020805460ff1916600117905551938493846128ea565b34610503575f36600319011261050357602060405160018152f35b908060209392818452848401375f828201840152601f01601f1916010190565b6001600160a01b03909116815260406020820181905261195d939101916128ca565b6040513d5f823e3d90fd5b90816020910312610503575161195d8161205e565b6001600160a01b039091168152901515602082015260400190565b6129d45f805160206153e6833981519152936129616139c5565b60018060a01b038316805f52600260205260405f2063ffffffff60e01b631e51809360e31b165f5260205260405f20600160ff198254161790555f52600360205260405f20600160ff198254161790556129bf610b12600454613462565b604051938493631e51809360e31b908561361c565b0390a1565b6129d45f805160206153e6833981519152936129f36139c5565b60018060a01b038316805f52600260205260405f2063ffffffff60e01b63b858183f60e01b165f5260205260405f20600160ff198254161790555f52600360205260405f20600160ff19825416179055612a51610b12600454613462565b60405193849363b858183f60e01b908561361c565b6129d45f805160206153e683398151915293612a806139c5565b60018060a01b038316805f52600260205260405f2063ffffffff60e01b635c11d79560e01b165f5260205260405f20600160ff198254161790555f52600360205260405f20600160ff19825416179055612ade610b12600454613462565b604051938493635c11d79560e01b908561361c565b6129d45f805160206153e683398151915293612b0d6139c5565b60018060a01b038316805f52600260205260405f2063ffffffff60e01b63a03d55e360e01b165f5260205260405f20600160ff198254161790555f52600360205260405f20600160ff19825416179055612b6b610b12600454613462565b60405193849363a03d55e360e01b908561361c565b6129d45f805160206153e683398151915293612b9a6139c5565b60018060a01b038316805f52600260205260405f2063ffffffff60e01b63692652c560e11b165f5260205260405f20600160ff198254161790555f52600360205260405f20600160ff19825416179055612bf8610b12600454613462565b60405193849363692652c560e11b908561361c565b6129d45f805160206153e683398151915293612c276139c5565b60018060a01b038316805f52600260205260405f2063ffffffff60e01b635313efb360e11b165f5260205260405f20600160ff198254161790555f52600360205260405f20600160ff19825416179055612c85610b12600454613462565b604051938493635313efb360e11b908561361c565b6129d45f805160206153e683398151915293612cb46139c5565b60018060a01b038316805f52600260205260405f2063ffffffff60e01b636e553f6560e01b165f5260205260405f20600160ff198254161790555f52600360205260405f20600160ff19825416179055612d12610b12600454613462565b604051938493636e553f6560e01b908561361c565b6129d45f805160206153e683398151915293612d416139c5565b60018060a01b038316805f52600260205260405f2063ffffffff60e01b632d182be560e21b165f5260205260405f20600160ff198254161790555f52600360205260405f20600160ff19825416179055612d9f610b12600454613462565b604051938493632d182be560e21b908561361c565b6129d45f805160206153e683398151915293612dce6139c5565b60018060a01b038316805f52600260205260405f2063ffffffff60e01b635d043b2960e11b165f5260205260405f20600160ff198254161790555f52600360205260405f20600160ff19825416179055612e2c610b12600454613462565b604051938493635d043b2960e11b908561361c565b6129d45f805160206153e683398151915293612e5b6139c5565b60018060a01b038316805f52600260205260405f2063ffffffff60e01b638dbdbe6d60e01b165f5260205260405f20600160ff198254161790555f52600360205260405f20600160ff19825416179055612eb9610b12600454613462565b604051938493638dbdbe6d60e01b908561361c565b6129d45f805160206153e683398151915293612ee86139c5565b60018060a01b038316805f52600260205260405f2063ffffffff60e01b62b4d4cb60e11b165f5260205260405f20600160ff198254161790555f52600360205260405f20600160ff19825416179055612f45610b12600454613462565b60405193849362b4d4cb60e11b908561361c565b6129d45f805160206153e683398151915293612f736139c5565b60018060a01b038316805f52600260205260405f2063ffffffff60e01b630b8b4a6160e21b165f5260205260405f20600160ff198254161790555f52600360205260405f20600160ff19825416179055612fd1610b12600454613462565b604051938493630b8b4a6160e21b908561361c565b6129d45f805160206153e6833981519152936130006139c5565b60018060a01b038316805f52600260205260405f2063ffffffff60e01b633ea0e43760e11b165f5260205260405f20600160ff198254161790555f52600360205260405f20600160ff1982541617905561305e610b12600454613462565b604051938493633ea0e43760e11b908561361c565b6129d45f805160206153e68339815191529361308d6139c5565b60018060a01b038316805f52600260205260405f2063ffffffff60e01b6319792d1d60e11b165f5260205260405f20600160ff198254161790555f52600360205260405f20600160ff198254161790556130eb610b12600454613462565b6040519384936319792d1d60e11b908561361c565b6129d45f805160206153e68339815191529361311a6139c5565b60018060a01b038316805f52600260205260405f2063ffffffff60e01b6385b77f4560e01b165f5260205260405f20600160ff198254161790555f52600360205260405f20600160ff19825416179055613178610b12600454613462565b6040519384936385b77f4560e01b908561361c565b6129d45f805160206153e6833981519152936131a76139c5565b60018060a01b038316805f52600260205260405f2063ffffffff60e01b63a8abe90560e01b165f5260205260405f20600160ff198254161790555f52600360205260405f20600160ff19825416179055613205610b12600454613462565b60405193849363a8abe90560e01b908561361c565b6129d45f805160206153e6833981519152936132346139c5565b60018060a01b038316805f52600260205260405f2063ffffffff60e01b63322dda6d60e01b165f5260205260405f20600160ff198254161790555f52600360205260405f20600160ff19825416179055613292610b12600454613462565b60405193849363322dda6d60e01b908561361c565b6129d45f805160206153e6833981519152936132c16139c5565b60018060a01b038316805f52600260205260405f2063ffffffff60e01b634c61684360e11b165f5260205260405f20600160ff198254161790555f52600360205260405f20600160ff1982541617905561331f610b12600454613462565b604051938493634c61684360e11b908561361c565b6129d45f805160206153e68339815191529361334e6139c5565b60018060a01b038316805f52600260205260405f2063ffffffff60e01b631a4ca37b60e21b165f5260205260405f20600160ff198254161790555f52600360205260405f20600160ff198254161790556133ac610b12600454613462565b604051938493631a4ca37b60e21b908561361c565b6129d45f805160206153e6833981519152936133db6139c5565b60018060a01b038316805f52600260205260405f2063ffffffff60e01b63095ea7b360e01b165f5260205260405f20600160ff198254161790555f52600360205260405f20600160ff19825416179055613439610b12600454613462565b60405193849363095ea7b360e01b908561361c565b634e487b7160e01b5f52601160045260245ffd5b5f1981146134705760010190565b61344e565b6001600160a01b03909116815263c04b8d5960e01b602082015260606040820181905261195d939101916128ca565b6001600160a01b0390911681526338ed173960e01b602082015260606040820181905261195d939101916128ca565b6001600160a01b03909116815263559ec80d60e01b602082015260606040820181905261195d939101916128ca565b6001600160a01b039091168152631592ca1b60e31b602082015260606040820181905261195d939101916128ca565b6001600160a01b039091168152630c04a8a160e41b602082015260606040820181905261195d939101916128ca565b6001600160a01b039091168152632df4869b60e01b602082015260606040820181905261195d939101916128ca565b6001600160a01b039091168152634701287760e11b602082015260606040820181905261195d939101916128ca565b6001600160a01b03909116815263617ba03760e01b602082015260606040820181905261195d939101916128ca565b6001600160a01b03909116815263a9059cbb60e01b602082015260606040820181905261195d939101916128ca565b6001600160a01b0390911681526001600160e01b0319909116602082015260606040820181905261195d939101916128ca565b6001600160a01b0391821681529181166020830152909116604082015260806060820181905261195d939101916128ca565b90816020910312610503575161195d816104f2565b6129d45f805160206153a6833981519152936118186139c5565b6129d45f80516020615306833981519152936118fa6139c5565b6136d261507a565b6136da61507a565b6136e333613967565b60408180518101031261050357806040602061379693015191613705836104f2565b0151613710816104f2565b6001600160a01b03166137216139c5565b5f80546001600160a01b031981168317825582916001600160a01b03909116905f805160206153268339815191529080a361375a6139c5565b600180546001600160a01b0319811683179091556001600160a01b03165f805160206153668339815191525f80a36001600160a01b031661395b565b565b6001600160401b038111611a175760051b60200190565b906137b982613798565b6137c66040519182611a37565b82815280926137d7601f1991613798565b01905f5b8281106137e757505050565b8060606020809385010152016137db565b634e487b7160e01b5f52603260045260245ffd5b919081101561384d5760051b81013590601e19813603018212156105035701803591906001600160401b038311610503576020018236038113610503579190565b6137f8565b908092918237015f815290565b3d15613889573d9061387082611a5a565b9161387e6040519384611a37565b82523d5f602084013e565b606090565b92919261389a82611a5a565b916138a86040519384611a37565b829481845281830111610503578281602093845f96015e010152565b602081830312610503578051906001600160401b03821161050357019080601f8301121561050357815161195d9260200161388e565b805182101561384d5760209160051b010190565b60409063ffffffff61195d959316815281602082015201916128ca565b60ff600f541690811561393c575090565b6001600160a01b03165f9081526005602052604090205460ff16919050565b6137969061268a6139c5565b6001600160a01b031680156139b2575f8051602061534683398151915280546001600160a01b0319811683179091556001600160a01b03165f805160206153868339815191525f80a3565b631e4fbdf760e01b5f525f60045260245ffd5b5f80516020615346833981519152546001600160a01b031633036139e557565b63118cdaa760e01b5f523360045260245ffd5b156139ff57565b60405162461bcd60e51b815260206004820152601260248201527114d95b99195c881b9bdd08185b1b1bddd95960721b6044820152606490fd5b906004116105035790600490565b909291928360041161050357831161050357600401916003190190565b356001600160e01b0319811692919060048210613a7f575050565b6001600160e01b031960049290920360031b82901b16169150565b15613aa157565b60405162461bcd60e51b815260206004820152601260248201527115185c99d95d081b9bdd08185b1b1bddd95960721b6044820152606490fd5b15613ae257565b60405162461bcd60e51b815260206004820152601460248201527314d95b1958dd1bdc881b9bdd08185b1b1bddd95960621b6044820152606490fd5b919082604091031261050357815162ffffff811681036105035760209092015161195d816104f2565b15613b4e57565b60405162461bcd60e51b815260206004820152600760248201526621ab903932b1bb60c91b6044820152606490fd5b15613b8457565b60405162461bcd60e51b815260206004820152601e60248201527f53776170526f75746572303220726571756972657320616e79417373657400006044820152606490fd5b909192613bf8613bec60018060a01b035f80516020615346833981519152541690565b6001600160a01b031690565b6001600160a01b038316146141d057613c19610d69610d62613c339461061d565b80613c2d613c278287613a39565b90613a64565b94613a47565b919092613c42600f5460ff1690565b806141b6575b6001600160e01b03198216916317938e1360e01b831491829081156141a5575b15908161419c575b5061413c575b506338ed173960e01b8203613c9c5750505061379691613c97913691611a75565b615003565b635c11d79560e01b8203613cbc5750505061379691613c97913691611a75565b63c04b8d5960e01b8203613ce15750505061379691613cdc913691611a75565b614f4b565b63b858183f60e01b8203613d08575050505050613796613d03600f5460ff1690565b613b7d565b63a9059cbb60e01b8203613d2d5750505061379691613d28913691611a75565b614f14565b63095ea7b360e01b8203613d525750505061379691613d4d913691611a75565b614e9c565b630c04a8a160e41b8203613d775750505061379691613d72913691611a75565b614e22565b63617ba03760e01b8203613d9c5750505061379691613d97913691611a75565b614ddb565b631a4ca37b60e21b8203613dc15750505061379691613dbc913691611a75565b614da6565b91929163559ec80d60e01b8214801561412c575b801561411c575b801561410c575b15613df5575050506137969150614d0c565b919291636e553f6560e01b821480156140fc575b15613e16575b5050505050565b638dbdbe6d60e01b8203613e4557505050613e3b91613e36913691611a75565b614cf2565b5f80808080613e0f565b62b4d4cb60e11b8203613e6e57505050613e6991613e64913691611a75565b614cd1565b613e3b565b632d182be560e21b8203613e9357505050613e6991613e8e913691611a75565b614c86565b635d043b2960e11b8203613eb357505050613e6991613e8e913691611a75565b633ea0e43760e11b8203613ed357505050613e6991613e8e913691611a75565b6319792d1d60e11b8203613ef357505050613e6991613e8e913691611a75565b919391637a4880bb60e01b8201613f0f575b5050505050613e3b565b63575416fb60e01b8201613f23575b613f05565b63d20b796560e01b820115613f055763cdd2259360e01b820115613f055763339e97bd60e11b820115613f1e57631592ca1b60e31b8203613f73575050613f6992614abf565b5f80808080613f05565b634701287760e11b8203613f91575050613f8c92614820565b613f69565b1561404a575060409192613fb8835194859384936388ea783f60e01b8552600485016128ea565b038173__$f9fa4d4e532bfe6aeff5ab3d328fd72bc7$__5af4908115610811575f905f9261400f575b5062ffffff16600614613ff5575b50613f69565b614004610d6261400992610636565b613b47565b5f613fef565b62ffffff92506006915061403a9060403d604011614043575b6140328183611a37565b810190613b1e565b92909150613fe1565b503d614028565b630acb7f4b60e21b141591506140bb90505773__$f9fa4d4e532bfe6aeff5ab3d328fd72bc7$__803b1561050357614099915f9160405180809581946367bc52cb60e01b835260048301610fed565b03915af48015610811576140ad5750613f69565b806108095f61400993611a37565b60405162461bcd60e51b81526020600482015260196024820152782ab735b737bbb710333ab731ba34b7b71039b2b632b1ba37b960391b6044820152606490fd5b50630b8b4a6160e21b8214613e09565b50635313efb360e11b8214613de3565b5063692652c560e11b8214613ddc565b5063a03d55e360e01b8214613dd5565b614154611b14610d628361414f8861064f565b611c77565b15613c7657614191610d6261419692614188614183610d628960018060a01b03165f52600360205260405f2090565b613a9a565b61414f8761064f565b613adb565b5f613c76565b9050155f613c70565b630acb7f4b60e21b85149150613c68565b5063095ea7b360e01b6001600160e01b0319821614613c48565b50505050565b9080601f8301121561050357815161195d9260200161388e565b9190916040818403126105035780516142088161205e565b60208201519093906001600160401b0381116105035761195d92016141d6565b600154604051635229073f60e01b81526001600160a01b0392831660048201525f6024820181905260806044830152909493909285921690829084908290614274906084830190611928565b82606483015203925af1918215610811575f905f9361429257509190565b90506105ac9192503d805f833e6142a98183611a37565b8101906141f0565b600154604051635229073f60e01b81526001600160a01b0392831660048201526024810193909352608060448401529193925f9285921690829084908290614274906084830190611928565b6040519061430a826119fc565b60606040838281525f60208201520152565b1561432357565b60405162461bcd60e51b815260206004820152601360248201527210dbddd4ddd85c081b9bdd08195b98589b1959606a1b6044820152606490fd5b1561436557565b60405162461bcd60e51b81526020600482015260136024820152721d1bdad95b925b881b9bdd08185b1b1bddd959606a1b6044820152606490fd5b156143a757565b60405162461bcd60e51b81526020600482015260146024820152731d1bdad95b93dd5d081b9bdd08185b1b1bddd95960621b6044820152606490fd5b156143ea57565b60405162461bcd60e51b8152602060048201526014602482015273149958d95a5d995c881b9bdd08185b1b1bddd95960621b6044820152606490fd5b602081830312610503578051906001600160401b03821161050357016060818303126105035760405191614459836119fc565b81516001600160401b03811161050357816144759184016141d6565b83526020820151614485816104f2565b602084015260408201516001600160401b038111610503576144a792016141d6565b604082015290565b9061379692916144bd6139c5565b60018060a01b038116805f52600260205260405f2063a9059cbb60e01b5f5260205260405f20600160ff198254161790555f52600360205260405f20600160ff19825416179055614512610b12600454613462565b5f805160206153e683398151915260405180614530868686846135ed565b0390a161453e8383836133c1565b613696565b1561454a57565b60405162461bcd60e51b815260206004820152601a60248201527915995b1bdc98481cddd85c1c195c881b9bdd08195b98589b195960321b6044820152606490fd5b90816020910312610503575190565b90601f820180921161347057565b9190820180921161347057565b156145bd57565b60405162461bcd60e51b815260206004820152601a602482015279125b9cdd59999a58da595b9d081bdd5d1c1d5d08185b5bdd5b9d60321b6044820152606490fd5b9190820391821161347057565b6040516370a0823160e01b81526001600160a01b03918216600482015293969295929493919290602090839060249082908b165afa918215610811575f926146d7575b50808501808611613470577fadccd6d5139732e7db3b6f230f309c7e8eb03047d2c40c4c136ed949c6e8aa65958361468f614694936146d29610156145b6565b6145ff565b604080516001600160a01b03988916815298881660208a015288019490945260608701939093526080860192909252909216924292819060a0820190565b0390a3565b6146f191925060203d60201161283d5761282e8183611a37565b905f61464f565b908160e091031261050357803591614712602083016115e8565b916040810135916060820135614727816104f2565b9160808101359161195d60c060a084013593016115e8565b1561474657565b60405162461bcd60e51b815260206004820152601c60248201527b10d0d5140819195cdd1a5b985d1a5bdb881b9bdd08185b1b1bddd95960221b6044820152606490fd5b1561479157565b60405162461bcd60e51b815260206004820152601b60248201527a10d0d51408189d5c9b881d1bdad95b881b9bdd08185b1b1bddd959602a1b6044820152606490fd5b156147db57565b60405162461bcd60e51b815260206004820152601f60248201527f43435450206d696e7420726563697069656e74206e6f7420616c6c6f776564006044820152606490fd5b6001600160a01b03165f908152600d602052604090205460ff16156148ab57610d62610d6261489861489361488061488561486487613796996148a69901906146f8565b505050949250969063ffffffff165f52600e60205260405f2090565b61473f565b6001600160a01b031661392b565b61478a565b6001600160a01b0316610636565b6147d4565b60405162461bcd60e51b815260206004820152601a60248201527910d0d514081b595cdcd95b99d95c881b9bdd08185b1b1bddd95960321b6044820152606490fd5b9080601f8301121561050357815161490481613798565b926149126040519485611a37565b81845260208085019260051b82010192831161050357602001905b82821061493a5750505090565b602080918351614949816104f2565b81520191019061492d565b916060838303126105035782516001600160401b038111610503578261497b9185016148ed565b60208401519093906001600160401b038111610503578361499d9183016148ed565b60408201519093906001600160401b0381116105035761195d92016148ed565b92916040926149e49296959660018060a01b031685526060602086015260608501916128ca565b931515910152565b156149f357565b60405162461bcd60e51b815260206004820152601660248201527511d3560e88185cdcd95d081b9bdd08185b1b1bddd95960521b6044820152606490fd5b15614a3857565b60405162461bcd60e51b815260206004820152601960248201527811d3560e881c9958d95a5d995c881b9bdd08185b1b1bddd959603a1b6044820152606490fd5b15614a8057565b60405162461bcd60e51b815260206004820152601760248201527611d3560e881b585c9ad95d081b9bdd08185b1b1bddd959604a1b6044820152606490fd5b9291905f9073__$bda5499a8fa48831c49ec55d96dbc8aee1$__94614b04614ae9600f5460ff1690565b604051633bf8b9bb60e11b81529586948594600486016149bd565b0381865af48015610811575f935f925f92614c14575b505f5b8551811015614b545780614b4e614b49612121614b3c6001958b6138fa565b516001600160a01b031690565b6149ec565b01614b1d565b50919350915f5b8451811015614b855780614b7f614b7a6121cc614b3c6001958a6138fa565b614a31565b01614b5b565b50919092505f5b8151811015614c0e57806020614ba8614b3c614bca94866138fa565b600f5460ff166040516312789ae160e11b81529485928392906004840161292c565b0381885af491821561081157600192614bea915f91614bf0575b50614a79565b01614b8c565b614c08915060203d8111610a1f57610a118183611a37565b5f614be4565b50509050565b91509350614c3491503d805f833e614c2c8183611a37565b810190614954565b91939091905f614b1a565b15614c4657565b60405162461bcd60e51b8152602060048201526018602482015277149958d95a5d995c881b9bdd081dda1a5d195b1a5cdd195960421b6044820152606490fd5b60608180518101031261050357614cae6060604083015192614ca7846104f2565b01516104f2565b6001600160a01b03165f908152600760205260409020546137969060ff16614c3f565b60808180518101031261050357614cae6080606083015192614ca7846104f2565b6060818051810103126105035760600151614cae816104f2565b6001600160a01b03165f908152600b602052604090205460ff1615614d2d57565b60405162461bcd60e51b815260206004820152601160248201527015985d5b1d081b9bdd08185b1b1bddd959607a1b6044820152606490fd5b15614d6d57565b60405162461bcd60e51b8152602060048201526011602482015270151bdad95b881b9bdd08185b1b1bddd959607a1b6044820152606490fd5b60608180518101031261050357614cae614dd66060602084015193614dca856104f2565b015192614885846104f2565b614d66565b60808180518101031261050357614dd6816148856060602061379695015192614ca7846104f2565b91908260409103126105035760208251614e1c816104f2565b92015190565b614e359060208082518301019101614e03565b506001600160a01b03165f908152600a602052604090205460ff1615614e5757565b60405162461bcd60e51b815260206004820152601e60248201527f44656c65676174696f6e2061646472657373206e6f7420616c6c6f77656400006044820152606490fd5b614eaf9060208082518301019101614e03565b506001600160a01b03165f9081526009602052604090205460ff1615614ed157565b60405162461bcd60e51b815260206004820152601b60248201527a105c1c1c9bdd99481859191c995cdcc81b9bdd08185b1b1bddd959602a1b6044820152606490fd5b614f279060208082518301019101614e03565b506001600160a01b03165f908152600860205260409020546137969060ff16614c3f565b8051810190602081830312610503576020810151906001600160401b038211610503570160a0818303126105035760405190614f8682611a1c565b6020810151926001600160401b038411610503576121cc614ffd92614fb961379696602080614ff89601918401016141d6565b855260a0604082015191614fcc836104f2565b82602088015260608101516040880152608081015160608801520151608086015260018060a01b031690565b614c3f565b516150a5565b908151820160a0838203126105035760608301516001600160401b03811161050357610d626080615042614ff89360208061504e9701918901016148ed565b950151614898816104f2565b5f5b8251811015615075578061506f614dd6612121614b3c600195886138fa565b01615050565b509050565b60ff5f805160206153c68339815191525460401c161561509657565b631afcd79f60e31b5f5260045ffd5b6017905b6150b76014825110156151de565b602081015160601c828251106150f957614dd66150de91612121614dd66121218787615222565b80516042116150f5576150f090615135565b6150a9565b5050565b60405162461bcd60e51b8152602060048201526014602482015273746f55696e7432345f6f75744f66426f756e647360601b6044820152606490fd5b601781518181039080821161347057829061515a836151538161459b565b1015615288565b6151688261515385826145a9565b61517e855161517785856145a9565b11156152c5565b03615196575050506040515f81526020810160405290565b60405192601f821692831560051b80858701019484860193010101905b8084106151cb5750508252601f01601f191660405290565b90926020809185518152019301906151b3565b156151e557565b60405162461bcd60e51b8152602060048201526015602482015274746f416464726573735f6f75744f66426f756e647360581b6044820152606490fd5b9060148101918282116134705781831061524e57615245602093825110156151de565b01015160601c90565b60405162461bcd60e51b8152602060048201526012602482015271746f416464726573735f6f766572666c6f7760701b6044820152606490fd5b1561528f57565b60405162461bcd60e51b815260206004820152600e60248201526d736c6963655f6f766572666c6f7760901b6044820152606490fd5b156152cc57565b60405162461bcd60e51b8152602060048201526011602482015270736c6963655f6f75744f66426f756e647360781b6044820152606490fdfe628a44970c0e450415e3ae74334ea44f3307b74dbf677a1371190242bf2f358952ae88b092de36f87fb43fe794eb1381023b9c1bce563a871154022c63dce3429016d09d72d40fdae2fd8ceac6b6234c7706214fd39c1cd1e609a0528c19930090cc2f570a6eb594b1580ea3e41247d2d73a55281889e86bd4ec2fc29c7e62d68be0079c531659141344cd1fd0a4f28419497f9722a3daafe3b4186f6b6457e0ad90e2570fc4fe9f7437be3188d5c791c6662892d31731992aa88f5c87621983f0c57e16840df040f15088dc2f81fe391c3923bec73e23a9662efc9c229c6a00ef729aaa41b9fd994f9ff7c1960df214a84f722002e6cfbea31799cd0873a3efa164736f6c634300081a000af0c57e16840df040f15088dc2f81fe391c3923bec73e23a9662efc9c229c6a00","linkReferences":{"../guard/src/lib/CowSwapLib.sol":{"CowSwapLib":[{"start":2937,"length":20},{"start":3635,"length":20},{"start":4310,"length":20}]},"../guard/src/lib/GmxLib.sol":{"GmxLib":[{"start":3461,"length":20},{"start":4691,"length":20},{"start":5842,"length":20},{"start":8346,"length":20},{"start":9533,"length":20},{"start":9862,"length":20},{"start":20113,"length":20}]},"../guard/src/lib/HypercoreVaultLib.sol":{"HypercoreVaultLib":[{"start":3297,"length":20},{"start":8832,"length":20},{"start":10112,"length":20},{"start":17287,"length":20},{"start":17449,"length":20}]}}},"methodIdentifiers":{"allowApprovalDestination(address,string)":"98b3cc39","allowAsset(address,string)":"86b6dbe5","allowCallSite(address,bytes4,string)":"5e4ccace","allowDelegationApprovalDestination(address,string)":"63cc17f2","allowReceiver(address,string)":"72e548a9","allowSender(address,string)":"fa2c59c8","allowWithdrawDestination(address,string)":"5ace1d92","allowedApprovalDestinations(address)":"eb0de042","allowedAssets(address)":"a4c1cccb","allowedCCTPDestinations(uint32)":"7cac69c3","allowedCCTPMessengers(address)":"07605342","allowedCallSites(address,bytes4)":"a847cf4d","allowedDelegationApprovalDestinations(address)":"4b941268","allowedLagoonVaults(address)":"8fb4dff2","allowedReceivers(address)":"3cf20025","allowedSenders(address)":"fadbcf48","allowedTargets(address)":"b8fe8d5f","allowedVeloraSwappers(address)":"b45ea48b","allowedWithdrawDestinations(address)":"07ef00cf","anyAsset()":"87301608","avatar()":"5aef7de6","callSiteCount()":"a9fc3d4f","getGovernanceAddress()":"73252494","getInternalVersion()":"fdedfa27","getTradingStrategyModuleVersion()":"9e4a83cf","gmxOrderVaults(address)":"a86ddc57","isAllowedApprovalDestination(address)":"1d49039c","isAllowedAsset(address)":"c537bed0","isAllowedCCTPDestination(uint32)":"748fca46","isAllowedCCTPMessenger(address)":"0411fb8e","isAllowedCallSite(address,bytes4)":"713ebf3b","isAllowedCowSwap(address)":"333f22e8","isAllowedDelegationApprovalDestination(address)":"2dc32a61","isAllowedGMXMarket(address)":"2e31e9c6","isAllowedGMXRouter(address)":"cbdb1dcf","isAllowedLagoonVault(address)":"6fd7fdef","isAllowedReceiver(address)":"d075f9bb","isAllowedSender(address)":"be8c97b0","isAllowedTarget(address)":"78addb48","isAllowedVeloraSwapper(address)":"f84756aa","isAllowedWithdrawDestination(address)":"efb47bff","multicall(bytes[])":"ac9650d8","owner()":"8da5cb5b","performCall(address,bytes)":"d2f73e3d","performCall(address,bytes,uint256)":"486295dc","removeApprovalDestination(address,string)":"04a3ba25","removeAsset(address,string)":"f901dc33","removeCCTPDestination(uint32,string)":"ba44ad41","removeCallSite(address,bytes4,string)":"d7334c9d","removeDelegationApprovalDestination(address,string)":"f259a073","removeGMXMarket(address,string)":"4d3d31ca","removeHypercoreVault(address,string)":"e2873b6d","removeReceiver(address,string)":"2d12d788","removeSender(address,string)":"a67e1f54","removeWithdrawDestination(address,string)":"8c2fdf9e","renounceOwnership()":"715018a6","setAnyAssetAllowed(bool,string)":"c2e657ae","setAvatar(address)":"086cfca8","setTarget(address)":"776d1a01","setUp(bytes)":"a4f9edbf","swapAndValidateCowSwap(address,address,bytes32,address,address,uint256,uint256)":"4acf884d","swapAndValidateVelora(address,address,address,uint256,uint256,bytes)":"f9cf8ae5","target()":"d4b83992","transferOwnership(address)":"f2fde38b","validateCall(address,address,bytes)":"6d5025f1","whitelistAaveV3(address,string)":"f20e85e0","whitelistCCTP(address,string)":"ec011440","whitelistCCTPDestination(uint32,string)":"e6f32c51","whitelistCoreWriter(address,address,string)":"acb9da16","whitelistCowSwap(address,address,string)":"1047789e","whitelistERC4626(address,string)":"86a6ae15","whitelistGMX(address,address,address,string)":"62d6775e","whitelistGMXMarket(address,string)":"d7581509","whitelistHypercoreVault(address,string)":"2de905bc","whitelistLagoon(address,string)":"5e6afe4d","whitelistOrderly(address,string)":"db17a170","whitelistToken(address,string)":"ee5462cc","whitelistTokenForDelegation(address,string)":"6d9a1423","whitelistUniswapV2Router(address,string)":"3ea35551","whitelistUniswapV3Router(address,string)":"34ec8d7e","whitelistVelora(address,address,string)":"4efbad39"},"id":33}