{"abi":[{"type":"constructor","inputs":[{"name":"_owner","type":"address","internalType":"address"},{"name":"_target","type":"address","internalType":"address"}],"stateMutability":"nonpayable"},{"type":"function","name":"_SIGN_COOLDOWN","inputs":[],"outputs":[{"name":"","type":"uint256","internalType":"uint256"}],"stateMutability":"view"},{"type":"function","name":"allowApprovalDestination","inputs":[{"name":"destination","type":"address","internalType":"address"},{"name":"notes","type":"string","internalType":"string"}],"outputs":[],"stateMutability":"nonpayable"},{"type":"function","name":"allowAsset","inputs":[{"name":"asset","type":"address","internalType":"address"},{"name":"notes","type":"string","internalType":"string"}],"outputs":[],"stateMutability":"nonpayable"},{"type":"function","name":"allowCallSite","inputs":[{"name":"target","type":"address","internalType":"address"},{"name":"selector","type":"bytes4","internalType":"bytes4"},{"name":"notes","type":"string","internalType":"string"}],"outputs":[],"stateMutability":"nonpayable"},{"type":"function","name":"allowDelegationApprovalDestination","inputs":[{"name":"destination","type":"address","internalType":"address"},{"name":"notes","type":"string","internalType":"string"}],"outputs":[],"stateMutability":"nonpayable"},{"type":"function","name":"allowReceiver","inputs":[{"name":"receiver","type":"address","internalType":"address"},{"name":"notes","type":"string","internalType":"string"}],"outputs":[],"stateMutability":"nonpayable"},{"type":"function","name":"allowSender","inputs":[{"name":"sender","type":"address","internalType":"address"},{"name":"notes","type":"string","internalType":"string"}],"outputs":[],"stateMutability":"nonpayable"},{"type":"function","name":"allowWithdrawDestination","inputs":[{"name":"destination","type":"address","internalType":"address"},{"name":"notes","type":"string","internalType":"string"}],"outputs":[],"stateMutability":"nonpayable"},{"type":"function","name":"allowedApprovalDestinations","inputs":[{"name":"destination","type":"address","internalType":"address"}],"outputs":[{"name":"allowed","type":"bool","internalType":"bool"}],"stateMutability":"view"},{"type":"function","name":"allowedAssets","inputs":[{"name":"token","type":"address","internalType":"address"}],"outputs":[{"name":"allowed","type":"bool","internalType":"bool"}],"stateMutability":"view"},{"type":"function","name":"allowedCallSites","inputs":[{"name":"target","type":"address","internalType":"address"},{"name":"selector","type":"bytes4","internalType":"bytes4"}],"outputs":[{"name":"allowed","type":"bool","internalType":"bool"}],"stateMutability":"view"},{"type":"function","name":"allowedCowSwaps","inputs":[{"name":"destination","type":"address","internalType":"address"}],"outputs":[{"name":"allowed","type":"bool","internalType":"bool"}],"stateMutability":"view"},{"type":"function","name":"allowedDelegationApprovalDestinations","inputs":[{"name":"destination","type":"address","internalType":"address"}],"outputs":[{"name":"allowed","type":"bool","internalType":"bool"}],"stateMutability":"view"},{"type":"function","name":"allowedGMXMarkets","inputs":[{"name":"market","type":"address","internalType":"address"}],"outputs":[{"name":"allowed","type":"bool","internalType":"bool"}],"stateMutability":"view"},{"type":"function","name":"allowedGMXRouters","inputs":[{"name":"destination","type":"address","internalType":"address"}],"outputs":[{"name":"allowed","type":"bool","internalType":"bool"}],"stateMutability":"view"},{"type":"function","name":"allowedLagoonVaults","inputs":[{"name":"destination","type":"address","internalType":"address"}],"outputs":[{"name":"allowed","type":"bool","internalType":"bool"}],"stateMutability":"view"},{"type":"function","name":"allowedReceivers","inputs":[{"name":"receiver","type":"address","internalType":"address"}],"outputs":[{"name":"allowed","type":"bool","internalType":"bool"}],"stateMutability":"view"},{"type":"function","name":"allowedSenders","inputs":[{"name":"sender","type":"address","internalType":"address"}],"outputs":[{"name":"allowed","type":"bool","internalType":"bool"}],"stateMutability":"view"},{"type":"function","name":"allowedTargets","inputs":[{"name":"target","type":"address","internalType":"address"}],"outputs":[{"name":"allowed","type":"bool","internalType":"bool"}],"stateMutability":"view"},{"type":"function","name":"allowedVeloraSwappers","inputs":[{"name":"destination","type":"address","internalType":"address"}],"outputs":[{"name":"allowed","type":"bool","internalType":"bool"}],"stateMutability":"view"},{"type":"function","name":"allowedWithdrawDestinations","inputs":[{"name":"destination","type":"address","internalType":"address"}],"outputs":[{"name":"allowed","type":"bool","internalType":"bool"}],"stateMutability":"view"},{"type":"function","name":"anyAsset","inputs":[],"outputs":[{"name":"","type":"bool","internalType":"bool"}],"stateMutability":"view"},{"type":"function","name":"avatar","inputs":[],"outputs":[{"name":"","type":"address","internalType":"address"}],"stateMutability":"view"},{"type":"function","name":"callSiteCount","inputs":[],"outputs":[{"name":"","type":"uint256","internalType":"uint256"}],"stateMutability":"view"},{"type":"function","name":"getGovernanceAddress","inputs":[],"outputs":[{"name":"","type":"address","internalType":"address"}],"stateMutability":"view"},{"type":"function","name":"getInternalVersion","inputs":[],"outputs":[{"name":"","type":"uint8","internalType":"uint8"}],"stateMutability":"pure"},{"type":"function","name":"getTradingStrategyModuleVersion","inputs":[],"outputs":[{"name":"","type":"string","internalType":"string"}],"stateMutability":"pure"},{"type":"function","name":"gmxOrderVaults","inputs":[{"name":"exchangeRouter","type":"address","internalType":"address"}],"outputs":[{"name":"orderVault","type":"address","internalType":"address"}],"stateMutability":"view"},{"type":"function","name":"isAllowedApprovalDestination","inputs":[{"name":"receiver","type":"address","internalType":"address"}],"outputs":[{"name":"","type":"bool","internalType":"bool"}],"stateMutability":"view"},{"type":"function","name":"isAllowedAsset","inputs":[{"name":"token","type":"address","internalType":"address"}],"outputs":[{"name":"","type":"bool","internalType":"bool"}],"stateMutability":"view"},{"type":"function","name":"isAllowedCallSite","inputs":[{"name":"target","type":"address","internalType":"address"},{"name":"selector","type":"bytes4","internalType":"bytes4"}],"outputs":[{"name":"","type":"bool","internalType":"bool"}],"stateMutability":"view"},{"type":"function","name":"isAllowedCowSwap","inputs":[{"name":"settlement","type":"address","internalType":"address"}],"outputs":[{"name":"","type":"bool","internalType":"bool"}],"stateMutability":"view"},{"type":"function","name":"isAllowedDelegationApprovalDestination","inputs":[{"name":"receiver","type":"address","internalType":"address"}],"outputs":[{"name":"","type":"bool","internalType":"bool"}],"stateMutability":"view"},{"type":"function","name":"isAllowedGMXMarket","inputs":[{"name":"market","type":"address","internalType":"address"}],"outputs":[{"name":"","type":"bool","internalType":"bool"}],"stateMutability":"view"},{"type":"function","name":"isAllowedGMXRouter","inputs":[{"name":"router","type":"address","internalType":"address"}],"outputs":[{"name":"","type":"bool","internalType":"bool"}],"stateMutability":"view"},{"type":"function","name":"isAllowedLagoonVault","inputs":[{"name":"vault","type":"address","internalType":"address"}],"outputs":[{"name":"","type":"bool","internalType":"bool"}],"stateMutability":"view"},{"type":"function","name":"isAllowedReceiver","inputs":[{"name":"receiver","type":"address","internalType":"address"}],"outputs":[{"name":"","type":"bool","internalType":"bool"}],"stateMutability":"view"},{"type":"function","name":"isAllowedSender","inputs":[{"name":"sender","type":"address","internalType":"address"}],"outputs":[{"name":"","type":"bool","internalType":"bool"}],"stateMutability":"view"},{"type":"function","name":"isAllowedTarget","inputs":[{"name":"target","type":"address","internalType":"address"}],"outputs":[{"name":"","type":"bool","internalType":"bool"}],"stateMutability":"view"},{"type":"function","name":"isAllowedVeloraSwapper","inputs":[{"name":"swapper","type":"address","internalType":"address"}],"outputs":[{"name":"","type":"bool","internalType":"bool"}],"stateMutability":"view"},{"type":"function","name":"isAllowedWithdrawDestination","inputs":[{"name":"receiver","type":"address","internalType":"address"}],"outputs":[{"name":"","type":"bool","internalType":"bool"}],"stateMutability":"view"},{"type":"function","name":"multicall","inputs":[{"name":"data","type":"bytes[]","internalType":"bytes[]"}],"outputs":[{"name":"results","type":"bytes[]","internalType":"bytes[]"}],"stateMutability":"payable"},{"type":"function","name":"owner","inputs":[],"outputs":[{"name":"","type":"address","internalType":"address"}],"stateMutability":"view"},{"type":"function","name":"performCall","inputs":[{"name":"target","type":"address","internalType":"address"},{"name":"callData","type":"bytes","internalType":"bytes"},{"name":"value","type":"uint256","internalType":"uint256"}],"outputs":[],"stateMutability":"nonpayable"},{"type":"function","name":"performCall","inputs":[{"name":"target","type":"address","internalType":"address"},{"name":"callData","type":"bytes","internalType":"bytes"}],"outputs":[],"stateMutability":"nonpayable"},{"type":"function","name":"removeApprovalDestination","inputs":[{"name":"destination","type":"address","internalType":"address"},{"name":"notes","type":"string","internalType":"string"}],"outputs":[],"stateMutability":"nonpayable"},{"type":"function","name":"removeAsset","inputs":[{"name":"asset","type":"address","internalType":"address"},{"name":"notes","type":"string","internalType":"string"}],"outputs":[],"stateMutability":"nonpayable"},{"type":"function","name":"removeCallSite","inputs":[{"name":"target","type":"address","internalType":"address"},{"name":"selector","type":"bytes4","internalType":"bytes4"},{"name":"notes","type":"string","internalType":"string"}],"outputs":[],"stateMutability":"nonpayable"},{"type":"function","name":"removeDelegationApprovalDestination","inputs":[{"name":"destination","type":"address","internalType":"address"},{"name":"notes","type":"string","internalType":"string"}],"outputs":[],"stateMutability":"nonpayable"},{"type":"function","name":"removeGMXMarket","inputs":[{"name":"market","type":"address","internalType":"address"},{"name":"notes","type":"string","internalType":"string"}],"outputs":[],"stateMutability":"nonpayable"},{"type":"function","name":"removeReceiver","inputs":[{"name":"receiver","type":"address","internalType":"address"},{"name":"notes","type":"string","internalType":"string"}],"outputs":[],"stateMutability":"nonpayable"},{"type":"function","name":"removeSender","inputs":[{"name":"sender","type":"address","internalType":"address"},{"name":"notes","type":"string","internalType":"string"}],"outputs":[],"stateMutability":"nonpayable"},{"type":"function","name":"removeWithdrawDestination","inputs":[{"name":"destination","type":"address","internalType":"address"},{"name":"notes","type":"string","internalType":"string"}],"outputs":[],"stateMutability":"nonpayable"},{"type":"function","name":"renounceOwnership","inputs":[],"outputs":[],"stateMutability":"nonpayable"},{"type":"function","name":"setAnyAssetAllowed","inputs":[{"name":"value","type":"bool","internalType":"bool"},{"name":"notes","type":"string","internalType":"string"}],"outputs":[],"stateMutability":"nonpayable"},{"type":"function","name":"setAvatar","inputs":[{"name":"_avatar","type":"address","internalType":"address"}],"outputs":[],"stateMutability":"nonpayable"},{"type":"function","name":"setTarget","inputs":[{"name":"_target","type":"address","internalType":"address"}],"outputs":[],"stateMutability":"nonpayable"},{"type":"function","name":"setUp","inputs":[{"name":"initializeParams","type":"bytes","internalType":"bytes"}],"outputs":[],"stateMutability":"nonpayable"},{"type":"function","name":"swapAndValidateCowSwap","inputs":[{"name":"settlementContract","type":"address","internalType":"address"},{"name":"receiver","type":"address","internalType":"address"},{"name":"appData","type":"bytes32","internalType":"bytes32"},{"name":"tokenIn","type":"address","internalType":"address"},{"name":"tokenOut","type":"address","internalType":"address"},{"name":"amountIn","type":"uint256","internalType":"uint256"},{"name":"minAmountOut","type":"uint256","internalType":"uint256"}],"outputs":[],"stateMutability":"nonpayable"},{"type":"function","name":"swapAndValidateVelora","inputs":[{"name":"augustusSwapper","type":"address","internalType":"address"},{"name":"tokenIn","type":"address","internalType":"address"},{"name":"tokenOut","type":"address","internalType":"address"},{"name":"amountIn","type":"uint256","internalType":"uint256"},{"name":"minAmountOut","type":"uint256","internalType":"uint256"},{"name":"augustusCalldata","type":"bytes","internalType":"bytes"}],"outputs":[],"stateMutability":"nonpayable"},{"type":"function","name":"target","inputs":[],"outputs":[{"name":"","type":"address","internalType":"address"}],"stateMutability":"view"},{"type":"function","name":"transferOwnership","inputs":[{"name":"newOwner","type":"address","internalType":"address"}],"outputs":[],"stateMutability":"nonpayable"},{"type":"function","name":"validateCall","inputs":[{"name":"sender","type":"address","internalType":"address"},{"name":"target","type":"address","internalType":"address"},{"name":"callDataWithSelector","type":"bytes","internalType":"bytes"}],"outputs":[],"stateMutability":"view"},{"type":"function","name":"validateUniswapV3Path","inputs":[{"name":"path","type":"bytes","internalType":"bytes"}],"outputs":[],"stateMutability":"view"},{"type":"function","name":"validate_ERC4626Deposit","inputs":[{"name":"target","type":"address","internalType":"address"},{"name":"callData","type":"bytes","internalType":"bytes"}],"outputs":[],"stateMutability":"view"},{"type":"function","name":"validate_ERC4626Redeem","inputs":[{"name":"callData","type":"bytes","internalType":"bytes"}],"outputs":[],"stateMutability":"view"},{"type":"function","name":"validate_ERC4626Withdraw","inputs":[{"name":"callData","type":"bytes","internalType":"bytes"}],"outputs":[],"stateMutability":"view"},{"type":"function","name":"validate_UmamiDeposit","inputs":[{"name":"callData","type":"bytes","internalType":"bytes"}],"outputs":[],"stateMutability":"view"},{"type":"function","name":"validate_UmamiRedeem","inputs":[{"name":"callData","type":"bytes","internalType":"bytes"}],"outputs":[],"stateMutability":"view"},{"type":"function","name":"validate_aaveSupply","inputs":[{"name":"callData","type":"bytes","internalType":"bytes"}],"outputs":[],"stateMutability":"view"},{"type":"function","name":"validate_aaveWithdraw","inputs":[{"name":"callData","type":"bytes","internalType":"bytes"}],"outputs":[],"stateMutability":"view"},{"type":"function","name":"validate_approve","inputs":[{"name":"callData","type":"bytes","internalType":"bytes"}],"outputs":[],"stateMutability":"view"},{"type":"function","name":"validate_approveDelegation","inputs":[{"name":"callData","type":"bytes","internalType":"bytes"}],"outputs":[],"stateMutability":"view"},{"type":"function","name":"validate_cowSwapSettlement","inputs":[{"name":"callData","type":"bytes","internalType":"bytes"}],"outputs":[],"stateMutability":"view"},{"type":"function","name":"validate_exactInput","inputs":[{"name":"callData","type":"bytes","internalType":"bytes"}],"outputs":[],"stateMutability":"view"},{"type":"function","name":"validate_exactOutput","inputs":[{"name":"callData","type":"bytes","internalType":"bytes"}],"outputs":[],"stateMutability":"view"},{"type":"function","name":"validate_gmxMulticall","inputs":[{"name":"exchangeRouter","type":"address","internalType":"address"},{"name":"callData","type":"bytes","internalType":"bytes"}],"outputs":[],"stateMutability":"view"},{"type":"function","name":"validate_lagoonSettle","inputs":[{"name":"vault","type":"address","internalType":"address"}],"outputs":[],"stateMutability":"view"},{"type":"function","name":"validate_orderlyDelegateSigner","inputs":[{"name":"callData","type":"bytes","internalType":"bytes"}],"outputs":[],"stateMutability":"view"},{"type":"function","name":"validate_orderlyDeposit","inputs":[{"name":"callData","type":"bytes","internalType":"bytes"}],"outputs":[],"stateMutability":"view"},{"type":"function","name":"validate_orderlyWithdraw","inputs":[{"name":"callData","type":"bytes","internalType":"bytes"}],"outputs":[],"stateMutability":"view"},{"type":"function","name":"validate_swapExactTokensForTokens","inputs":[{"name":"callData","type":"bytes","internalType":"bytes"}],"outputs":[],"stateMutability":"view"},{"type":"function","name":"validate_transfer","inputs":[{"name":"callData","type":"bytes","internalType":"bytes"}],"outputs":[],"stateMutability":"view"},{"type":"function","name":"whitelistAaveV3","inputs":[{"name":"lendingPool","type":"address","internalType":"address"},{"name":"notes","type":"string","internalType":"string"}],"outputs":[],"stateMutability":"nonpayable"},{"type":"function","name":"whitelistCowSwap","inputs":[{"name":"settlementContract","type":"address","internalType":"address"},{"name":"relayerContract","type":"address","internalType":"address"},{"name":"notes","type":"string","internalType":"string"}],"outputs":[],"stateMutability":"nonpayable"},{"type":"function","name":"whitelistERC4626","inputs":[{"name":"vault","type":"address","internalType":"address"},{"name":"notes","type":"string","internalType":"string"}],"outputs":[],"stateMutability":"nonpayable"},{"type":"function","name":"whitelistGMX","inputs":[{"name":"exchangeRouter","type":"address","internalType":"address"},{"name":"syntheticsRouter","type":"address","internalType":"address"},{"name":"orderVault","type":"address","internalType":"address"},{"name":"notes","type":"string","internalType":"string"}],"outputs":[],"stateMutability":"nonpayable"},{"type":"function","name":"whitelistGMXMarket","inputs":[{"name":"market","type":"address","internalType":"address"},{"name":"notes","type":"string","internalType":"string"}],"outputs":[],"stateMutability":"nonpayable"},{"type":"function","name":"whitelistLagoon","inputs":[{"name":"vault","type":"address","internalType":"address"},{"name":"notes","type":"string","internalType":"string"}],"outputs":[],"stateMutability":"nonpayable"},{"type":"function","name":"whitelistOrderly","inputs":[{"name":"orderlyVault","type":"address","internalType":"address"},{"name":"notes","type":"string","internalType":"string"}],"outputs":[],"stateMutability":"nonpayable"},{"type":"function","name":"whitelistToken","inputs":[{"name":"token","type":"address","internalType":"address"},{"name":"notes","type":"string","internalType":"string"}],"outputs":[],"stateMutability":"nonpayable"},{"type":"function","name":"whitelistTokenForDelegation","inputs":[{"name":"token","type":"address","internalType":"address"},{"name":"notes","type":"string","internalType":"string"}],"outputs":[],"stateMutability":"nonpayable"},{"type":"function","name":"whitelistUniswapV2Router","inputs":[{"name":"router","type":"address","internalType":"address"},{"name":"notes","type":"string","internalType":"string"}],"outputs":[],"stateMutability":"nonpayable"},{"type":"function","name":"whitelistUniswapV3Router","inputs":[{"name":"router","type":"address","internalType":"address"},{"name":"notes","type":"string","internalType":"string"}],"outputs":[],"stateMutability":"nonpayable"},{"type":"function","name":"whitelistVelora","inputs":[{"name":"augustusSwapper","type":"address","internalType":"address"},{"name":"tokenTransferProxy","type":"address","internalType":"address"},{"name":"notes","type":"string","internalType":"string"}],"outputs":[],"stateMutability":"nonpayable"},{"type":"event","name":"AnyAssetSet","inputs":[{"name":"value","type":"bool","indexed":false,"internalType":"bool"},{"name":"notes","type":"string","indexed":false,"internalType":"string"}],"anonymous":false},{"type":"event","name":"AnyVaultSet","inputs":[{"name":"value","type":"bool","indexed":false,"internalType":"bool"},{"name":"notes","type":"string","indexed":false,"internalType":"string"}],"anonymous":false},{"type":"event","name":"ApprovalDestinationApproved","inputs":[{"name":"destination","type":"address","indexed":false,"internalType":"address"},{"name":"notes","type":"string","indexed":false,"internalType":"string"}],"anonymous":false},{"type":"event","name":"ApprovalDestinationRemoved","inputs":[{"name":"destination","type":"address","indexed":false,"internalType":"address"},{"name":"notes","type":"string","indexed":false,"internalType":"string"}],"anonymous":false},{"type":"event","name":"AssetApproved","inputs":[{"name":"asset","type":"address","indexed":false,"internalType":"address"},{"name":"notes","type":"string","indexed":false,"internalType":"string"}],"anonymous":false},{"type":"event","name":"AssetRemoved","inputs":[{"name":"asset","type":"address","indexed":false,"internalType":"address"},{"name":"notes","type":"string","indexed":false,"internalType":"string"}],"anonymous":false},{"type":"event","name":"AvatarSet","inputs":[{"name":"previousAvatar","type":"address","indexed":true,"internalType":"address"},{"name":"newAvatar","type":"address","indexed":true,"internalType":"address"}],"anonymous":false},{"type":"event","name":"CallSiteApproved","inputs":[{"name":"target","type":"address","indexed":false,"internalType":"address"},{"name":"selector","type":"bytes4","indexed":false,"internalType":"bytes4"},{"name":"notes","type":"string","indexed":false,"internalType":"string"}],"anonymous":false},{"type":"event","name":"CallSiteRemoved","inputs":[{"name":"target","type":"address","indexed":false,"internalType":"address"},{"name":"selector","type":"bytes4","indexed":false,"internalType":"bytes4"},{"name":"notes","type":"string","indexed":false,"internalType":"string"}],"anonymous":false},{"type":"event","name":"CowSwapApproved","inputs":[{"name":"settlementContract","type":"address","indexed":false,"internalType":"address"},{"name":"notes","type":"string","indexed":false,"internalType":"string"}],"anonymous":false},{"type":"event","name":"DelegationApprovalDestinationApproved","inputs":[{"name":"destination","type":"address","indexed":false,"internalType":"address"},{"name":"notes","type":"string","indexed":false,"internalType":"string"}],"anonymous":false},{"type":"event","name":"DelegationApprovalDestinationRemoved","inputs":[{"name":"destination","type":"address","indexed":false,"internalType":"address"},{"name":"notes","type":"string","indexed":false,"internalType":"string"}],"anonymous":false},{"type":"event","name":"ERC4626Approved","inputs":[{"name":"vault","type":"address","indexed":false,"internalType":"address"},{"name":"notes","type":"string","indexed":false,"internalType":"string"}],"anonymous":false},{"type":"event","name":"GMXMarketApproved","inputs":[{"name":"market","type":"address","indexed":false,"internalType":"address"},{"name":"notes","type":"string","indexed":false,"internalType":"string"}],"anonymous":false},{"type":"event","name":"GMXMarketRemoved","inputs":[{"name":"market","type":"address","indexed":false,"internalType":"address"},{"name":"notes","type":"string","indexed":false,"internalType":"string"}],"anonymous":false},{"type":"event","name":"GMXRouterApproved","inputs":[{"name":"exchangeRouter","type":"address","indexed":false,"internalType":"address"},{"name":"syntheticsRouter","type":"address","indexed":false,"internalType":"address"},{"name":"notes","type":"string","indexed":false,"internalType":"string"}],"anonymous":false},{"type":"event","name":"Initialized","inputs":[{"name":"version","type":"uint64","indexed":false,"internalType":"uint64"}],"anonymous":false},{"type":"event","name":"LagoonVaultApproved","inputs":[{"name":"vault","type":"address","indexed":false,"internalType":"address"},{"name":"notes","type":"string","indexed":false,"internalType":"string"}],"anonymous":false},{"type":"event","name":"OrderSigned","inputs":[{"name":"timestamp","type":"uint256","indexed":true,"internalType":"uint256"},{"name":"orderUid","type":"bytes","indexed":false,"internalType":"bytes"},{"name":"order","type":"tuple","indexed":false,"internalType":"struct GPv2Order.Data","components":[{"name":"sellToken","type":"address","internalType":"contract IERC20"},{"name":"buyToken","type":"address","internalType":"contract IERC20"},{"name":"receiver","type":"address","internalType":"address"},{"name":"sellAmount","type":"uint256","internalType":"uint256"},{"name":"buyAmount","type":"uint256","internalType":"uint256"},{"name":"validTo","type":"uint32","internalType":"uint32"},{"name":"appData","type":"bytes32","internalType":"bytes32"},{"name":"feeAmount","type":"uint256","internalType":"uint256"},{"name":"kind","type":"bytes32","internalType":"bytes32"},{"name":"partiallyFillable","type":"bool","internalType":"bool"},{"name":"sellTokenBalance","type":"bytes32","internalType":"bytes32"},{"name":"buyTokenBalance","type":"bytes32","internalType":"bytes32"}]},{"name":"validTo","type":"uint32","indexed":false,"internalType":"uint32"},{"name":"buyAmount","type":"uint256","indexed":false,"internalType":"uint256"},{"name":"sellAmount","type":"uint256","indexed":false,"internalType":"uint256"}],"anonymous":false},{"type":"event","name":"OwnershipTransferred","inputs":[{"name":"previousOwner","type":"address","indexed":true,"internalType":"address"},{"name":"newOwner","type":"address","indexed":true,"internalType":"address"}],"anonymous":false},{"type":"event","name":"ReceiverApproved","inputs":[{"name":"receiver","type":"address","indexed":false,"internalType":"address"},{"name":"notes","type":"string","indexed":false,"internalType":"string"}],"anonymous":false},{"type":"event","name":"ReceiverRemoved","inputs":[{"name":"receiver","type":"address","indexed":false,"internalType":"address"},{"name":"notes","type":"string","indexed":false,"internalType":"string"}],"anonymous":false},{"type":"event","name":"SenderApproved","inputs":[{"name":"sender","type":"address","indexed":false,"internalType":"address"},{"name":"notes","type":"string","indexed":false,"internalType":"string"}],"anonymous":false},{"type":"event","name":"SenderRemoved","inputs":[{"name":"sender","type":"address","indexed":false,"internalType":"address"},{"name":"notes","type":"string","indexed":false,"internalType":"string"}],"anonymous":false},{"type":"event","name":"TargetSet","inputs":[{"name":"previousTarget","type":"address","indexed":true,"internalType":"address"},{"name":"newTarget","type":"address","indexed":true,"internalType":"address"}],"anonymous":false},{"type":"event","name":"VeloraSwapExecuted","inputs":[{"name":"timestamp","type":"uint256","indexed":true,"internalType":"uint256"},{"name":"augustusSwapper","type":"address","indexed":true,"internalType":"address"},{"name":"tokenIn","type":"address","indexed":false,"internalType":"address"},{"name":"tokenOut","type":"address","indexed":false,"internalType":"address"},{"name":"amountIn","type":"uint256","indexed":false,"internalType":"uint256"},{"name":"amountOut","type":"uint256","indexed":false,"internalType":"uint256"},{"name":"minAmountOut","type":"uint256","indexed":false,"internalType":"uint256"}],"anonymous":false},{"type":"event","name":"VeloraSwapperApproved","inputs":[{"name":"augustusSwapper","type":"address","indexed":false,"internalType":"address"},{"name":"notes","type":"string","indexed":false,"internalType":"string"}],"anonymous":false},{"type":"event","name":"WithdrawDestinationApproved","inputs":[{"name":"destination","type":"address","indexed":false,"internalType":"address"},{"name":"notes","type":"string","indexed":false,"internalType":"string"}],"anonymous":false},{"type":"event","name":"WithdrawDestinationRemoved","inputs":[{"name":"destination","type":"address","indexed":false,"internalType":"address"},{"name":"notes","type":"string","indexed":false,"internalType":"string"}],"anonymous":false},{"type":"error","name":"InvalidInitialization","inputs":[]},{"type":"error","name":"NotInitializing","inputs":[]},{"type":"error","name":"OwnableInvalidOwner","inputs":[{"name":"owner","type":"address","internalType":"address"}]},{"type":"error","name":"OwnableUnauthorizedAccount","inputs":[{"name":"account","type":"address","internalType":"address"}]}],"bytecode":{"object":"0x6080806040523461023257604081615d76803803809161001f828561028a565b8339810103126102325761003e6020610037836102c1565b92016102c1565b604080516001600160a01b03938416602082019081529290931683820190815290835261006c60608461028a565b5f80516020615d5683398151915254604081901c60ff1615936001600160401b03821680159081610282575b6001149081610278575b15908161026f575b50610260576001600160401b031982166001175f80516020615d568339815191525560409185610236575b506100de610359565b6100e6610359565b6100ef336102d5565b805181010312610232576101056101c4926102c1565b906001600160a01b0390610118906102c1565b16610121610384565b5f80546001600160a01b031981168317825582916001600160a01b03909116907f52ae88b092de36f87fb43fe794eb1381023b9c1bce563a871154022c63dce3429080a361016d610384565b600180546001600160a01b0319811683179091556001600160a01b03167f90cc2f570a6eb594b1580ea3e41247d2d73a55281889e86bd4ec2fc29c7e62d65f80a36101b6610384565b6001600160a01b03166102d5565b6101d8575b60405161598b90816103cb8239f35b68ff0000000000000000195f80516020615d5683398151915254165f80516020615d56833981519152557fc7f505b2f371ae2175ee4913f4499e1f2633a7b5936321eed1cdaeb6115181d2602060405160018152a16101c9565b5f80fd5b6001600160481b03191668010000000000000001175f80516020615d56833981519152555f6100d5565b63f92ee8a960e01b5f5260045ffd5b9050155f6100aa565b303b1591506100a2565b869150610098565b601f909101601f19168101906001600160401b038211908210176102ad57604052565b634e487b7160e01b5f52604160045260245ffd5b51906001600160a01b038216820361023257565b6001600160a01b03168015610346577f9016d09d72d40fdae2fd8ceac6b6234c7706214fd39c1cd1e609a0528c19930080546001600160a01b0319811683179091556001600160a01b03167f8be0079c531659141344cd1fd0a4f28419497f9722a3daafe3b4186f6b6457e05f80a3565b631e4fbdf760e01b5f525f60045260245ffd5b60ff5f80516020615d568339815191525460401c161561037557565b631afcd79f60e31b5f5260045ffd5b7f9016d09d72d40fdae2fd8ceac6b6234c7706214fd39c1cd1e609a0528c199300546001600160a01b031633036103b757565b63118cdaa760e01b5f523360045260245ffdfe60806040526004361015610011575f80fd5b5f3560e01c806304a3ba25146105b957806307ef00cf1461045b578063086cfca8146105b45780630985b046146105af5780630c260a7b146105aa5780631047789e146105a55780631710a4f2146105a05780631c123e771461059b5780631d49039c1461046a5780632c02cda0146105965780632d12d788146105915780632dc32a61146105645780632e31e9c61461058c578063333f22e81461057357806334ec8d7e146105875780633cf20025146105825780633ea355511461057d5780633ffb788e146105785780634756606414610573578063486295dc1461056e5780634acf884d146105695780634b941268146105645780634b956bd81461055f5780634c03f1f81461049c5780634d3d31ca1461055a5780634efbad39146105555780635ace1d92146105505780635aef7de61461054b5780635e4ccace146105465780635e6afe4d1461054157806362d6775e1461053c57806363cc17f2146105375780636a6d5cc8146105325780636bf9e3311461052d5780636d5025f1146105285780636d5176a6146104835780636d9a1423146105235780636fd7fdef146104ec578063713ebf3b146104c9578063715018a61461051e57806372e548a91461051957806373252494146104f1578063742bfc7e146104b557806374fb77fe14610514578063761bcd9c1461050f578063776d1a011461050a57806378065086146104b557806378addb48146104ab57806386a6ae151461050557806386b6dbe51461050057806387301608146104fb5780638c2fdf9e146104f65780638da5cb5b146104f15780638fb4dff2146104ec578063912ef02d14610483578063957dc6c0146104e757806398b3cc39146104e25780639e4a83cf146104dd578063a4c1cccb146104d8578063a4f9edbf146104d3578063a67e1f54146104ce578063a847cf4d146104c9578063a86ddc57146104c4578063a9fc3d4f146104bf578063ac9650d8146104ba578063adcfa55b146104b5578063b3c329cb146104b0578063b45ea48b14610447578063b8fe8d5f146104ab578063be8c97b014610433578063c2e657ae146104a6578063c537bed0146104a1578063cbdb1dcf1461049c578063d075f9bb14610497578063d2f73e3d14610492578063d4b839921461048d578063d4c0fe4514610488578063d718f04114610483578063d7334c9d1461047e578063d758150914610479578063db17a17014610474578063e98539c51461046f578063eb0de0421461046a578063ebe2681614610465578063ee5462cc14610460578063efb47bff1461045b578063f20e85e014610456578063f259a07314610451578063f2fde38b1461044c578063f84756aa14610447578063f901dc3314610442578063f9cf8ae51461043d578063fa2c59c814610438578063fadbcf48146104335763fdedfa271461042e575f80fd5b612682565b611f97565b612617565b6124bb565b612453565b611f57565b612426565b6123be565b612320565b610726565b612309565b6122f3565b610ac7565b6122aa565b612201565b612196565b612127565b61158f565b612111565b6120e9565b6120c6565b61209f565b610fc4565b612078565b611fe1565b611858565b611f32565b6117bc565b611e33565b611db7565b611d74565b611675565b611cf6565b611bcf565b611b8f565b611b43565b611ab6565b611aa0565b611635565b611788565b611a38565b611a16565b6119be565b611898565b6117fe565b6117e8565b6117d2565b61171d565b6116c9565b61159d565b611575565b61155e565b611548565b6114f0565b61139b565b6112a0565b611218565b61118e565b611123565b61106c565b611004565b610fae565b610baa565b610e7a565b610e08565b610c1b565b610dec565b610d4e565b610d0e565b610c5b565b610bea565b610b42565b610b07565b610ab1565b610a9b565b6109a6565b61094a565b6107be565b610766565b61063c565b6001600160a01b038116036105cf57565b5f80fd5b9181601f840112156105cf578235916001600160401b0383116105cf57602083818601950101116105cf57565b9060406003198301126105cf57600435610619816105be565b91602435906001600160401b0382116105cf57610638916004016105d3565b9091565b346105cf577fb71be9befd3ac90c1c9981d3b1161b3c2c6dcd741f13b34061aa251226a802df6106a461066e36610600565b610679939193614095565b6001600160a01b0383165f9081526009602052604090819020805460ff1916905551938493846126bd565b0390a1005b6001600160a01b03165f908152600f6020526040902090565b6001600160a01b03165f908152600e6020526040902090565b6001600160a01b03165f90815260066020526040902090565b6001600160a01b03165f90815260076020526040902090565b6001600160a01b03165f90815260026020526040902090565b346105cf5760203660031901126105cf57600435610743816105be565b60018060a01b03165f526008602052602060ff60405f2054166040519015158152f35b346105cf5760203660031901126105cf57600435610783816105be565b61078b614095565b5f80546001600160a01b039283166001600160a01b03198216811783559216905f805160206158568339815191529080a3005b346105cf5760203660031901126105cf576004356107db816105be565b60018060a01b03165f526010602052602060ff60405f2054166040519015158152f35b634e487b7160e01b5f52604160045260245ffd5b60a081019081106001600160401b0382111761082d57604052565b6107fe565b61010081019081106001600160401b0382111761082d57604052565b601f909101601f19168101906001600160401b0382119082101761082d57604052565b6040519061088060e08361084e565b565b604051906108806101208361084e565b604051906108806101808361084e565b6040519061088060608361084e565b6001600160401b03811161082d57601f01601f191660200190565b9291926108d8826108b1565b916108e6604051938461084e565b8294818452818301116105cf578281602093845f960137010152565b9080601f830112156105cf5781602061091d933591016108cc565b90565b60206003198201126105cf57600435906001600160401b0382116105cf5761091d91600401610902565b346105cf5761096061095b36610920565b612726565b005b60606003198201126105cf5760043561097a816105be565b91602435610987816105be565b91604435906001600160401b0382116105cf57610638916004016105d3565b346105cf577f936b7187f49d778f82d1c17d927c8006f00eac6d2e5ccb50720dbc7afda8b4a96106a45f805160206158368339815191526109e636610962565b919080959394916109f5614095565b6001600160a01b0386165f9081526009602052604090819020805460ff1916600117905551839080610a2987868b846126bd565b0390a1610a34614095565b60018060a01b0381165f52600960205260405f20600160ff19825416179055610a6384604051938493846126bd565b0390a16001600160a01b0383165f908152600c60205260409020610a8f905b805460ff19166001179055565b604051938493846126bd565b346105cf57610960610aac36610920565b612790565b346105cf57610960610ac236610920565b612807565b346105cf5760203660031901126105cf57600435610ae4816105be565b60018060a01b03165f526009602052602060ff60405f2054166040519015158152f35b346105cf5760403660031901126105cf57610b236004356105be565b6024356001600160401b0381116105cf57610960903690600401610902565b346105cf577f4e13b11ab98e672bd78295ef9cebe764dc617f95decf47d842c25b83abc0c7246106a4610b7436610600565b610b7f939193614095565b6001600160a01b0383165f9081526007602052604090819020805460ff1916905551938493846126bd565b346105cf5760203660031901126105cf57600435610bc7816105be565b60018060a01b03165f52600a602052602060ff60405f2054166040519015158152f35b346105cf5760203660031901126105cf576020610c11600435610c0c816105be565b61289c565b6040519015158152f35b346105cf5760203660031901126105cf57600435610c38816105be565b60018060a01b03165f52600c602052602060ff60405f2054166040519015158152f35b346105cf57610960610c6c36610600565b91610c75614095565b6001600160a01b0381165f81815260026020908152604080832063c04b8d5960e01b84529091529020600160ff198254161790555f52600360205260405f20600160ff19825416179055610cd2610ccd60045461345f565b600455565b5f8051602061593683398151915260405180610cf086868684613472565b0390a1610cfe838383612944565b610d098383836129d6565b613c8f565b346105cf5760203660031901126105cf57600435610d2b816105be565b60018060a01b03165f526007602052602060ff60405f2054166040519015158152f35b346105cf57610960610d5f36610600565b91610d68614095565b6001600160a01b0381165f8181526002602090815260408083206338ed173960e01b84529091529020600160ff198254161790555f52600360205260405f20600160ff19825416179055610dc0610ccd60045461345f565b5f8051602061593683398151915260405180610dde868686846134a1565b0390a1610d09838383612a63565b346105cf575f3660031901126105cf5760206040516104b08152f35b346105cf5760603660031901126105cf57600435610e25816105be565b602435906001600160401b0382116105cf57610e64610e4b610e6a9336906004016105d3565b919060443592610e5d81838733614312565b36916108cc565b91614847565b9015610e7257005b602081519101fd5b346105cf5760e03660031901126105cf57600435610e97816105be565b602435610ea3816105be565b60643591610eb0836105be565b60843591610ebd836105be565b60a4359360c435610ecc614893565b506001600160a01b0384165f908152600c602052604090205460ff1615610f7357610e6a95610f5995610f5393610f14610f0f610f08336106db565b5460ff1690565b6141a0565b610f25610f2082613f01565b6148c2565b610f36610f3183613f01565b614904565b610f4a610f45610f08886106f4565b614947565b8560443561543a565b9161563c565b60208101516040906001600160a01b0316910151906147be565b60405162461bcd60e51b815260206004820152601360248201527210dbddd4ddd85c081b9bdd08195b98589b1959606a1b6044820152606490fd5b346105cf57610960610fbf36610920565b6128cc565b346105cf5760203660031901126105cf57600435610fe1816105be565b60018060a01b03165f52600e602052602060ff60405f2054166040519015158152f35b346105cf577f1cc7e10cd1d551ab6504f6a15828923f911f4658af4cc1b82aeaab1d8a4ccc4c6106a461103636610600565b611041939193614095565b6001600160a01b0383165f9081526010602052604090819020805460ff1916905551938493846126bd565b346105cf577f4528ea4d4b1ca7b25fe4843fa8f643b7bbdc91395054ca124e68c761b44f77076106a45f805160206158368339815191526110ac36610962565b919080959394916110bb614095565b6110c3614095565b60018060a01b0381165f52600960205260405f20600160ff198254161790556110f284604051938493846126bd565b0390a16001600160a01b0383165f908152600d602052604090819020805460ff1916600117905551938493846126bd565b346105cf577f3562181221a42a19ddd03a82dfe06acab1905ceb65cdaf7d86a1d9fec66435526106a461115536610600565b611160939193614095565b6001600160a01b0383165f9081526008602052604090819020805460ff1916600117905551938493846126bd565b346105cf575f3660031901126105cf575f546040516001600160a01b039091168152602090f35b602435906001600160e01b0319821682036105cf57565b60606003198201126105cf576004356111e4816105be565b916024356001600160e01b0319811681036105cf5791604435906001600160401b0382116105cf57610638916004016105d3565b346105cf575f805160206159368339815191526106a4611237366111cc565b90611243949294614095565b6001600160a01b0384165f818152600260205260409020611265908790611d5e565b600160ff198254161790555f52600360205260405f20600160ff1982541617905561129160045461345f565b600455604051948594856135ea565b346105cf577ffaa136302ac223cf7c1146490a741e4520e886fc22d7e759641453f432283d016106a46112d236610600565b6112dd939193614095565b6001600160a01b0383165f818152600b60205260409020805460ff19166001179055611307614095565b805f52600260205261132a60405f2063559ec80d60e01b5f5260205260405f2090565b600160ff198254161790555f52600360205260405f20600160ff19825416179055611359610ccd60045461345f565b5f8051602061593683398151915260405180611377848888846134d0565b0390a1611385818585612af0565b611390818585612b7d565b610a8f818585612c0a565b346105cf5760803660031901126105cf576004356113b8816105be565b6024356113c4816105be565b604435916113d1836105be565b606435926001600160401b0384116105cf576114d86106a4916114197f4cd8335923e6c59235dad1eb0d9466176d7e2d5331062745aac072188386d7fe9636906004016105d3565b929091611424614095565b61142c614095565b6001600160a01b0386165f818152600260209081526040808320631592ca1b60e31b84529091529020600160ff198254161790555f52600360205260405f20600160ff19825416179055611484610ccd60045461345f565b5f80516020615936833981519152604051806114a287878b846134ff565b0390a16114b0848489613c8f565b6114b9866106a9565b80546001600160a01b0319166001600160a01b03909216919091179055565b6114e4610a82856106c2565b6040519485948561361d565b346105cf575f805160206158368339815191526106a461150f36610600565b61151a939193614095565b6001600160a01b0383165f908152600a602052604090819020805460ff1916600117905551938493846126bd565b346105cf5761096061155936610920565b613646565b346105cf5761096061156f36610600565b9161388e565b346105cf5761096061158636610962565b92919091614312565b346105cf5761096036610920565b346105cf576109606115ae36610600565b916115b7614095565b6001600160a01b0381165f818152600260209081526040808320630c04a8a160e41b84529091529020600160ff198254161790555f52600360205260405f20600160ff1982541617905561160f610ccd60045461345f565b5f805160206159368339815191526040518061162d8686868461352e565b0390a1613bfb565b346105cf5760203660031901126105cf57600435611652816105be565b60018060a01b03165f52600b602052602060ff60405f2054166040519015158152f35b346105cf5760403660031901126105cf57602060ff6116bd600435611699816105be565b6116a16111b5565b6001600160a01b039091165f9081526002855260409020611d5e565b54166040519015158152f35b346105cf575f3660031901126105cf576116e1614095565b5f8051602061589683398151915280546001600160a01b031981169091555f906001600160a01b03165f805160206158d68339815191528280a3005b346105cf577f62dd88c5ecfa60713a657640ebec4de26fc1aefa4afdb24e6d15a124fce727796106a461174f36610600565b61175a939193614095565b6001600160a01b0383165f9081526007602052604090819020805460ff1916600117905551938493846126bd565b346105cf575f3660031901126105cf575f80516020615896833981519152546040516001600160a01b039091168152602090f35b346105cf576109606117cd36610920565b613a9c565b346105cf576109606117e336610920565b613abd565b346105cf576109606117f936610920565b613b49565b346105cf5760203660031901126105cf5760043561181b816105be565b611823614095565b600180546001600160a01b039283166001600160a01b0319821681179092559091165f805160206158b68339815191525f80a3005b346105cf5760203660031901126105cf57600435611875816105be565b60018060a01b03165f526003602052602060ff60405f2054166040519015158152f35b346105cf576118a636610600565b6040516338d52e0f60e01b815292906020846004816001600160a01b0386165afa9081156119b957610a8f81856106a4947fd2851df39115d63968e90113e8b3a96f13e33ac4c2e5a9caa1afeffe59e55748985f9161198a575b5061190c838389612c97565b611917838389612d24565b611922838389612db1565b61192d838389612e3e565b611938838389612ecb565b611943838389612f56565b61194e838389612fe3565b611959838389613070565b6119648383896130fd565b61196f83838961318a565b61197a838389613c8f565b6119858383896150f7565b6150f7565b6119ac915060203d6020116119b2575b6119a4818361084e565b810190613bdb565b5f611900565b503d61199a565b613bf0565b346105cf575f805160206158f68339815191526106a46119dd36610600565b6119e8939193614095565b6001600160a01b0383165f9081526005602052604090819020805460ff1916600117905551938493846126bd565b346105cf575f3660031901126105cf57602060ff601154166040519015158152f35b346105cf577f1212f8ddb39de8e1a339460c95752d61100723efeaa34ccd94bca94393f409386106a4611a6a36610600565b611a75939193614095565b6001600160a01b0383165f9081526008602052604090819020805460ff1916905551938493846126bd565b346105cf57610960611ab136610920565b613c15565b346105cf575f805160206158368339815191526106a4611ad536610600565b611ae0939193614095565b6001600160a01b0383165f9081526009602052604090819020805460ff1916600117905551938493846126bd565b805180835260209291819084018484015e5f828201840152601f01601f1916010190565b90602061091d928181520190611b0e565b346105cf575f3660031901126105cf57611b8b604051611b6460408261084e565b60068152651d8c0b8c4b8d60d21b6020820152604051918291602083526020830190611b0e565b0390f35b346105cf5760203660031901126105cf57600435611bac816105be565b60018060a01b03165f526005602052602060ff60405f2054166040519015158152f35b346105cf57611bdd36610920565b5f80516020615916833981519152549060ff604083901c1615611bff565b1590565b916001600160401b031680159081611cee575b6001149081611ce4575b159081611cdb575b50611ccc575f8051602061591683398151915280546001600160401b0319166001179055611c569082611ca857613ca9565b611c5c57005b5f80516020615916833981519152805460ff60401b19169055604051600181527fc7f505b2f371ae2175ee4913f4499e1f2633a7b5936321eed1cdaeb6115181d29080602081016106a4565b5f80516020615916833981519152805460ff60401b1916600160401b179055613ca9565b63f92ee8a960e01b5f5260045ffd5b9050155f611c24565b303b159150611c1c565b839150611c12565b346105cf577f3097928509c53a2dab9500431201d82b0d756e8f890fd01f4ae6b33b45687ea46106a4611d2836610600565b611d33939193614095565b6001600160a01b0383165f9081526006602052604090819020805460ff1916905551938493846126bd565b9063ffffffff60e01b165f5260205260405f2090565b346105cf5760203660031901126105cf57600435611d91816105be565b60018060a01b03165f52600f602052602060018060a01b0360405f205416604051908152f35b346105cf575f3660031901126105cf576020600454604051908152f35b602081016020825282518091526040820191602060408360051b8301019401925f915b838310611e0657505050505090565b9091929394602080611e24600193603f198682030187528951611b0e565b97019301930191939290611df7565b60203660031901126105cf576004356001600160401b0381116105cf57366023820112156105cf576004810135906001600160401b0382116105cf576024810190602436918460051b0101116105cf57611e8c82613d75565b915f5b818110611ea45760405180611b8b8682611dd4565b5f80611eb1838587613dbe565b90611ec160405180938193613dff565b0390305af4611ece613e0c565b9015611ef45790600191611ee282876137da565b52611eed81866137da565b5001611e8f565b60448151106105cf57611f16816024806004611f2e9501518301019101613e71565b60405162461bcd60e51b815291829160048301611b32565b0390fd5b346105cf5760203660031901126105cf57610960600435611f52816105be565b613ea7565b346105cf5760203660031901126105cf57600435611f74816105be565b60018060a01b03165f52600d602052602060ff60405f2054166040519015158152f35b346105cf5760203660031901126105cf57600435611fb4816105be565b60018060a01b03165f526006602052602060ff60405f2054166040519015158152f35b801515036105cf57565b346105cf5760403660031901126105cf57600435611ffe81611fd7565b6024356001600160401b0381116105cf577f50454d9d0025a28a39cac5a4b3f3101d29b6e413fbb64f75fb42eb6837b07718916120426106a49236906004016105d3565b92909161204d614095565b15159160ff196011541660ff841617601155604051938493845260406020850152604084019161269d565b346105cf5760203660031901126105cf576020610c1160043561209a816105be565b613f01565b346105cf5760203660031901126105cf576020610c116004356120c1816105be565b613f31565b346105cf57610e6a610e645f6120db36610600565b610e5d818385979533614312565b346105cf575f3660031901126105cf576001546040516001600160a01b039091168152602090f35b346105cf5761096061212236610920565b613f4e565b346105cf577f37ea10f2d08f5a9803dfcd5abf3cfc7b0d6fcdf5fcbc36be9ea5a0b53d9a4d9b6106a4612159366111cc565b90612165949294614095565b60018060a01b0384165f5260026020526121828560405f20611d5e565b805460ff19169055604051948594856135ea565b346105cf577fefc511aabde7c4d22a66bc3bc12740a348cb98d9f7f433d6768ae8c1ab0e3cb86106a46121c836610600565b6121d3939193614095565b6001600160a01b0383165f9081526010602052604090819020805460ff1916600117905551938493846126bd565b346105cf5761096061221236610600565b9161221b614095565b6001600160a01b0381165f818152600260209081526040808320632df4869b60e01b84529091529020600160ff198254161790555f52600360205260405f20600160ff19825416179055612273610ccd60045461345f565b5f80516020615936833981519152604051806122918686868461355d565b0390a161229f838383613217565b610d098383836132a4565b346105cf576109606122cd6122be36610920565b60208082518301019101613f90565b60208101516122ed906122e8906001600160a01b0316613f31565b6126df565b51612807565b346105cf5761096061230436610920565b614015565b346105cf5761096061231a36610600565b916150f7565b346105cf5761096061233136610600565b9161233a614095565b6001600160a01b0381165f81815260026020908152604080832063617ba03760e01b84529091529020600160ff198254161790555f52600360205260405f20600160ff19825416179055612392610ccd60045461345f565b5f80516020615936833981519152604051806123b08686868461358c565b0390a1610d09838383613331565b346105cf577ff9a414ea26a64e12a2abdb23706ec196a42adeb564668fb73f46555fbd2336c26106a46123f036610600565b6123fb939193614095565b6001600160a01b0383165f908152600a602052604090819020805460ff1916905551938493846126bd565b346105cf5760203660031901126105cf57610960600435612446816105be565b61244e614095565b614037565b346105cf577f9ca3f065622f5f03f32b7157677a0e420c3a36ab45fd49f256ffebce3e3105876106a461248536610600565b612490939193614095565b6001600160a01b0383165f9081526005602052604090819020805460ff1916905551938493846126bd565b346105cf5760c03660031901126105cf576004356124d8816105be565b6024356124e4816105be565b6044356124f0816105be565b60a4359160843591606435916001600160401b0385116105cf5761251b612597953690600401610902565b5f80546001600160a01b038981168352600d60209081526040909320549116906125479060ff1661518b565b612556610f0f610f08336106db565b612562610f2085613f01565b61256e610f3186613f01565b6040516370a0823160e01b81526001600160a01b03909116600482015296879081906024820190565b03816001600160a01b0387165afa9586156119b9575f966125e2575b506125be90876147be565b9690156125da575f5461096097506001600160a01b031661522c565b865160208801fd5b6125be9196506126099060203d602011612610575b612601818361084e565b8101906151d4565b95906125b3565b503d6125f7565b346105cf577fa8f9caaf4861720900294428e4ff34d37070c37afd26d96e6e4da75326d2c3ad6106a461264936610600565b612654939193614095565b6001600160a01b0383165f9081526006602052604090819020805460ff1916600117905551938493846126bd565b346105cf575f3660031901126105cf57602060405160018152f35b908060209392818452848401375f828201840152601f01601f1916010190565b6001600160a01b03909116815260406020820181905261091d9391019161269d565b156126e657565b60405162461bcd60e51b8152602060048201526018602482015277149958d95a5d995c881b9bdd081dda1a5d195b1a5cdd195960421b6044820152606490fd5b6080818051810103126105cf5761274e6080606083015192612747846105be565b01516105be565b6001600160a01b03165f908152600760205260409020546108809060ff166126df565b91908260409103126105cf576020825161278a816105be565b92015190565b6127a39060208082518301019101612771565b506001600160a01b03165f908152600860205260409020546108809060ff166126df565b156127ce57565b60405162461bcd60e51b8152602060048201526011602482015270151bdad95b881b9bdd08185b1b1bddd959607a1b6044820152606490fd5b6017905b612819601482511015615318565b602081015160601c82825110612860576128406128459161209a61284061209a878761535c565b6127c7565b805160421161285c57612857906140f2565b61280b565b5050565b60405162461bcd60e51b8152602060048201526014602482015273746f55696e7432345f6f75744f66426f756e647360601b6044820152606490fd5b60ff601154169081156128ad575090565b6001600160a01b03165f9081526010602052604090205460ff16919050565b6128df9060208082518301019101612771565b506001600160a01b03165f9081526009602052604090205460ff161561290157565b60405162461bcd60e51b815260206004820152601b60248201527a105c1c1c9bdd99481859191c995cdcc81b9bdd08185b1b1bddd959602a1b6044820152606490fd5b6129d15f805160206159368339815191529361295e614095565b60018060a01b038316805f52600260205260405f2063ffffffff60e01b631e51809360e31b165f5260205260405f20600160ff198254161790555f52600360205260405f20600160ff198254161790556129bc610ccd60045461345f565b604051938493631e51809360e31b90856135ea565b0390a1565b6129d15f80516020615936833981519152936129f0614095565b60018060a01b038316805f52600260205260405f2063ffffffff60e01b63b858183f60e01b165f5260205260405f20600160ff198254161790555f52600360205260405f20600160ff19825416179055612a4e610ccd60045461345f565b60405193849363b858183f60e01b90856135ea565b6129d15f8051602061593683398151915293612a7d614095565b60018060a01b038316805f52600260205260405f2063ffffffff60e01b635c11d79560e01b165f5260205260405f20600160ff198254161790555f52600360205260405f20600160ff19825416179055612adb610ccd60045461345f565b604051938493635c11d79560e01b90856135ea565b6129d15f8051602061593683398151915293612b0a614095565b60018060a01b038316805f52600260205260405f2063ffffffff60e01b63a03d55e360e01b165f5260205260405f20600160ff198254161790555f52600360205260405f20600160ff19825416179055612b68610ccd60045461345f565b60405193849363a03d55e360e01b90856135ea565b6129d15f8051602061593683398151915293612b97614095565b60018060a01b038316805f52600260205260405f2063ffffffff60e01b63692652c560e11b165f5260205260405f20600160ff198254161790555f52600360205260405f20600160ff19825416179055612bf5610ccd60045461345f565b60405193849363692652c560e11b90856135ea565b6129d15f8051602061593683398151915293612c24614095565b60018060a01b038316805f52600260205260405f2063ffffffff60e01b635313efb360e11b165f5260205260405f20600160ff198254161790555f52600360205260405f20600160ff19825416179055612c82610ccd60045461345f565b604051938493635313efb360e11b90856135ea565b6129d15f8051602061593683398151915293612cb1614095565b60018060a01b038316805f52600260205260405f2063ffffffff60e01b636e553f6560e01b165f5260205260405f20600160ff198254161790555f52600360205260405f20600160ff19825416179055612d0f610ccd60045461345f565b604051938493636e553f6560e01b90856135ea565b6129d15f8051602061593683398151915293612d3e614095565b60018060a01b038316805f52600260205260405f2063ffffffff60e01b632d182be560e21b165f5260205260405f20600160ff198254161790555f52600360205260405f20600160ff19825416179055612d9c610ccd60045461345f565b604051938493632d182be560e21b90856135ea565b6129d15f8051602061593683398151915293612dcb614095565b60018060a01b038316805f52600260205260405f2063ffffffff60e01b635d043b2960e11b165f5260205260405f20600160ff198254161790555f52600360205260405f20600160ff19825416179055612e29610ccd60045461345f565b604051938493635d043b2960e11b90856135ea565b6129d15f8051602061593683398151915293612e58614095565b60018060a01b038316805f52600260205260405f2063ffffffff60e01b638dbdbe6d60e01b165f5260205260405f20600160ff198254161790555f52600360205260405f20600160ff19825416179055612eb6610ccd60045461345f565b604051938493638dbdbe6d60e01b90856135ea565b6129d15f8051602061593683398151915293612ee5614095565b60018060a01b038316805f52600260205260405f2063ffffffff60e01b62b4d4cb60e11b165f5260205260405f20600160ff198254161790555f52600360205260405f20600160ff19825416179055612f42610ccd60045461345f565b60405193849362b4d4cb60e11b90856135ea565b6129d15f8051602061593683398151915293612f70614095565b60018060a01b038316805f52600260205260405f2063ffffffff60e01b630b8b4a6160e21b165f5260205260405f20600160ff198254161790555f52600360205260405f20600160ff19825416179055612fce610ccd60045461345f565b604051938493630b8b4a6160e21b90856135ea565b6129d15f8051602061593683398151915293612ffd614095565b60018060a01b038316805f52600260205260405f2063ffffffff60e01b633ea0e43760e11b165f5260205260405f20600160ff198254161790555f52600360205260405f20600160ff1982541617905561305b610ccd60045461345f565b604051938493633ea0e43760e11b90856135ea565b6129d15f805160206159368339815191529361308a614095565b60018060a01b038316805f52600260205260405f2063ffffffff60e01b6319792d1d60e11b165f5260205260405f20600160ff198254161790555f52600360205260405f20600160ff198254161790556130e8610ccd60045461345f565b6040519384936319792d1d60e11b90856135ea565b6129d15f8051602061593683398151915293613117614095565b60018060a01b038316805f52600260205260405f2063ffffffff60e01b6385b77f4560e01b165f5260205260405f20600160ff198254161790555f52600360205260405f20600160ff19825416179055613175610ccd60045461345f565b6040519384936385b77f4560e01b90856135ea565b6129d15f80516020615936833981519152936131a4614095565b60018060a01b038316805f52600260205260405f2063ffffffff60e01b63a8abe90560e01b165f5260205260405f20600160ff198254161790555f52600360205260405f20600160ff19825416179055613202610ccd60045461345f565b60405193849363a8abe90560e01b90856135ea565b6129d15f8051602061593683398151915293613231614095565b60018060a01b038316805f52600260205260405f2063ffffffff60e01b63322dda6d60e01b165f5260205260405f20600160ff198254161790555f52600360205260405f20600160ff1982541617905561328f610ccd60045461345f565b60405193849363322dda6d60e01b90856135ea565b6129d15f80516020615936833981519152936132be614095565b60018060a01b038316805f52600260205260405f2063ffffffff60e01b634c61684360e11b165f5260205260405f20600160ff198254161790555f52600360205260405f20600160ff1982541617905561331c610ccd60045461345f565b604051938493634c61684360e11b90856135ea565b6129d15f805160206159368339815191529361334b614095565b60018060a01b038316805f52600260205260405f2063ffffffff60e01b631a4ca37b60e21b165f5260205260405f20600160ff198254161790555f52600360205260405f20600160ff198254161790556133a9610ccd60045461345f565b604051938493631a4ca37b60e21b90856135ea565b6129d15f80516020615936833981519152936133d8614095565b60018060a01b038316805f52600260205260405f2063ffffffff60e01b63095ea7b360e01b165f5260205260405f20600160ff198254161790555f52600360205260405f20600160ff19825416179055613436610ccd60045461345f565b60405193849363095ea7b360e01b90856135ea565b634e487b7160e01b5f52601160045260245ffd5b5f19811461346d5760010190565b61344b565b6001600160a01b03909116815263c04b8d5960e01b602082015260606040820181905261091d9391019161269d565b6001600160a01b0390911681526338ed173960e01b602082015260606040820181905261091d9391019161269d565b6001600160a01b03909116815263559ec80d60e01b602082015260606040820181905261091d9391019161269d565b6001600160a01b039091168152631592ca1b60e31b602082015260606040820181905261091d9391019161269d565b6001600160a01b039091168152630c04a8a160e41b602082015260606040820181905261091d9391019161269d565b6001600160a01b039091168152632df4869b60e01b602082015260606040820181905261091d9391019161269d565b6001600160a01b03909116815263617ba03760e01b602082015260606040820181905261091d9391019161269d565b6001600160a01b03909116815263a9059cbb60e01b602082015260606040820181905261091d9391019161269d565b6001600160a01b0390911681526001600160e01b0319909116602082015260606040820181905261091d9391019161269d565b6001600160a01b0391821681529116602082015260606040820181905261091d9391019161269d565b6060818051810103126105cf5761274e612840606060208401519361366a856105be565b015192613676846105be565b6001600160a01b0316613f01565b1561368b57565b60405162461bcd60e51b815260206004820152601660248201527511d356081c9bdd5d195c881b9bdd08185b1b1bddd95960521b6044820152606490fd5b156136d057565b60405162461bcd60e51b815260206004820152601d60248201527f474d58206f726465725661756c74206e6f7420636f6e666967757265640000006044820152606490fd5b6001600160401b03811161082d5760051b60200190565b6020818303126105cf578035906001600160401b0382116105cf57019080601f830112156105cf57813561375f81613715565b9261376d604051948561084e565b81845260208085019260051b820101918383116105cf5760208201905b83821061379957505050505090565b81356001600160401b0381116105cf576020916137bb87848094880101610902565b81520191019061378a565b634e487b7160e01b5f52603260045260245ffd5b80518210156137ee5760209160051b010190565b6137c6565b156137fa57565b60405162461bcd60e51b815260206004820152601360248201527211d3560e8818d85b1b081d1bdbc81cda1bdc9d606a1b6044820152606490fd5b8051156137ee5760200190565b8051600110156137ee5760210190565b8051600210156137ee5760220190565b8051600310156137ee5760230190565b60031981019190821161346d57565b9190820391821161346d57565b906138c26138b56138df939594956138b06138ab610f08836106c2565b613684565b6106a9565b546001600160a01b031690565b936138d76001600160a01b03861615156136c9565b81019061372c565b915f5b8351811015613a965761390360046138fa83876137da565b515110156137f3565b61393761392a61391c61391684886137da565b51613835565b516001600160f81b03191690565b6001600160f81b03191690565b61396161395361392a61391c61394d868a6137da565b51613842565b60081c62ffffff60e01b1690565b1761398b61397e61392a61391c613978868a6137da565b51613852565b60101c61ffff60e01b1690565b176139b46139a861392a61391c6139a2868a6137da565b51613862565b60181c60ff60e01b1690565b1790826139df6139c483886137da565b516139d96139d2858a6137da565b5151613872565b90614a07565b926001600160e01b031916637d39aaf160e01b8103613a0b5750613a059060019361508a565b016138e2565b631cdacd5960e31b8103613a2b5750613a2690600193614fee565b613a05565b63f59c48eb60e01b14159050613a4657613a26600192614ec9565b60405162461bcd60e51b815260206004820152602260248201527f474d583a20556e6b6e6f776e2066756e6374696f6e20696e206d756c746963616044820152611b1b60f21b6064820152608490fd5b50509050565b6060818051810103126105cf5761274e6060604083015192612747846105be565b6060818051810103126105cf576060015161274e816105be565b5190610880826105be565b9080601f830112156105cf578151613af981613715565b92613b07604051948561084e565b81845260208085019260051b8201019283116105cf57602001905b828210613b2f5750505090565b602080918351613b3e816105be565b815201910190613b22565b908151820160a0838203126105cf5760608301516001600160401b0381116105cf57610f086080613b886122e893602080613ba2970191890101613ae2565b950151613b94816105be565b6001600160a01b03166106f4565b5f5b8251811015613bd65780613bd061284061209a613bc3600195886137da565b516001600160a01b031690565b01613ba4565b509050565b908160209103126105cf575161091d816105be565b6040513d5f823e3d90fd5b6129d15f805160206158f6833981519152936119e8614095565b613c289060208082518301019101612771565b506001600160a01b03165f908152600a602052604090205460ff1615613c4a57565b60405162461bcd60e51b815260206004820152601e60248201527f44656c65676174696f6e2061646472657373206e6f7420616c6c6f77656400006044820152606490fd5b6129d15f8051602061583683398151915293611ae0614095565b613cb16157ac565b613cb96157ac565b613cc233614037565b6040818051810103126105cf57806040602061088093015191613ce4836105be565b0151613cef816105be565b6001600160a01b0316613d00614095565b5f80546001600160a01b031981168317825582916001600160a01b03909116905f805160206158568339815191529080a3613d39614095565b600180546001600160a01b0319811683179091556001600160a01b03165f805160206158b68339815191525f80a36001600160a01b031661402b565b90613d7f82613715565b613d8c604051918261084e565b8281528092613d9d601f1991613715565b01905f5b828110613dad57505050565b806060602080938501015201613da1565b91908110156137ee5760051b81013590601e19813603018212156105cf5701803591906001600160401b0383116105cf5760200182360381136105cf579190565b908092918237015f815290565b3d15613e36573d90613e1d826108b1565b91613e2b604051938461084e565b82523d5f602084013e565b606090565b929192613e47826108b1565b91613e55604051938461084e565b8294818452818301116105cf578281602093845f96015e010152565b6020818303126105cf578051906001600160401b0382116105cf57019080601f830112156105cf57815161091d92602001613e3b565b6001600160a01b03165f908152600b602052604090205460ff1615613ec857565b60405162461bcd60e51b815260206004820152601160248201527015985d5b1d081b9bdd08185b1b1bddd959607a1b6044820152606490fd5b60ff60115416908115613f12575090565b6001600160a01b03165f9081526005602052604090205460ff16919050565b6001600160a01b03165f9081526007602052604090205460ff1690565b6080818051810103126105cf57612840816136766060602061088095015192612747846105be565b9080601f830112156105cf57815161091d92602001613e3b565b6020818303126105cf578051906001600160401b0382116105cf57019060a0828203126105cf5760405191613fc483610812565b80516001600160401b0381116105cf57608092613fe2918301613f76565b83526020810151613ff2816105be565b602084015260408101516040840152606081015160608401520151608082015290565b6122cd6108809160208082518301019101613f90565b6108809061244e614095565b6001600160a01b03168015614082575f8051602061589683398151915280546001600160a01b0319811683179091556001600160a01b03165f805160206158d68339815191525f80a3565b631e4fbdf760e01b5f525f60045260245ffd5b5f80516020615896833981519152546001600160a01b031633036140b557565b63118cdaa760e01b5f523360045260245ffd5b90601f820180921161346d57565b906104b0820180921161346d57565b9190820180921161346d57565b8051601619810181811161346d576141148161410d816140c8565b101561498a565b614123601761410d83826140e5565b61413a83516141338360176140e5565b11156149c7565b80614152575050506040515f81526020810160405290565b604051926017601f8316801560051b908181880101956016199087010193010101905b80841061418d5750508252601f01601f191660405290565b9092602080918551815201930190614175565b156141a757565b60405162461bcd60e51b815260206004820152601260248201527114d95b99195c881b9bdd08185b1b1bddd95960721b6044820152606490fd5b906004116105cf5790600490565b90929192836004116105cf5783116105cf57600401916003190190565b356001600160e01b0319811692919060048210614227575050565b6001600160e01b031960049290920360031b82901b16169150565b1561424957565b60405162461bcd60e51b815260206004820152601260248201527115185c99d95d081b9bdd08185b1b1bddd95960721b6044820152606490fd5b1561428a57565b60405162461bcd60e51b815260206004820152601460248201527314d95b1958dd1bdc881b9bdd08185b1b1bddd95960621b6044820152606490fd5b156142cd57565b60405162461bcd60e51b815260206004820152601e60248201527f53776170526f75746572303220726571756972657320616e79417373657400006044820152606490fd5b5f8051602061589683398151915254919390916001600160a01b03166001600160a01b038316146145335761434f610f0f610f08614369946106db565b8061436361435d82866141e1565b9061420c565b936141ef565b92909161437860115460ff1690565b908180614761575b156146fe575b6001600160e01b0319166338ed173960e01b81036143b0575050506117f9906108809236916108cc565b635c11d79560e01b81036143d0575050506117f9906108809236916108cc565b63c04b8d5960e01b81036143f057505050612304906108809236916108cc565b919390929163b858183f60e01b81036144105750505061088091506142c6565b9192509063a9059cbb60e01b81036144345750610880925090610aac9136916108cc565b63095ea7b360e01b81036144545750610880925090610fbf9136916108cc565b630c04a8a160e41b81036144745750610880925090611ab19136916108cc565b63617ba03760e01b810361449457506108809250906121229136916108cc565b631a4ca37b60e21b81036144b457506108809250906115599136916108cc565b63559ec80d60e01b81036144ce5750505061088090613ea7565b63a03d55e360e01b81036144e85750505061088090613ea7565b63692652c560e11b81036145025750505061088090613ea7565b635313efb360e11b810361451c5750505061088090613ea7565b636e553f6560e01b811480156146ee575b15614539575b50505050565b638dbdbe6d60e01b810361456257506145599250906117e39136916108cc565b5f808080614533565b62b4d4cb60e11b8103614586575061458192509061095b9136916108cc565b614559565b632d182be560e21b81036145a657506145819250906117cd9136916108cc565b635d043b2960e11b81036145c657506145819250906117cd9136916108cc565b633ea0e43760e11b81036145e657506145819250906117cd9136916108cc565b6319792d1d60e11b810361460657506145819250906117cd9136916108cc565b637a4880bb60e01b810161461e575b50505050614559565b63575416fb60e01b81011561461557632df4869b60e01b81036146535750614648925036916108cc565b505b5f808080614615565b63322dda6d60e01b8103614674575061466e925036916108cc565b5061464a565b634c61684360e11b810361468f575061466e925036916108cc565b909190631592ca1b60e31b036146ad576146a89261388e565b61464a565b60405162461bcd60e51b81526020600482015260196024820152782ab735b737bbb710333ab731ba34b7b71039b2b632b1ba37b960391b6044820152606490fd5b50630b8b4a6160e21b811461452d565b614716611bfb610f08836147118761070d565b611d5e565b15614386576001600160a01b0383165f9081526003602052604090206147449061473f90610f08565b614242565b61475c614757610f08836147118761070d565b614283565b614386565b5063095ea7b360e01b6001600160e01b0319821614614380565b519061088082611fd7565b9190916040818403126105cf57805161479e81611fd7565b60208201519093906001600160401b0381116105cf5761091d9201613f76565b600154604051635229073f60e01b81526001600160a01b0392831660048201525f602482018190526080604483015290949390928592169082908490829061480a906084830190611b0e565b82606483015203925af19182156119b9575f905f9361482857509190565b90506106389192503d805f833e61483f818361084e565b810190614786565b600154604051635229073f60e01b81526001600160a01b0392831660048201526024810193909352608060448401529193925f928592169082908490829061480a906084830190611b0e565b60405190606082016001600160401b0381118382101761082d5760405260606040838281525f60208201520152565b156148c957565b60405162461bcd60e51b81526020600482015260136024820152721d1bdad95b925b881b9bdd08185b1b1bddd959606a1b6044820152606490fd5b1561490b57565b60405162461bcd60e51b81526020600482015260146024820152731d1bdad95b93dd5d081b9bdd08185b1b1bddd95960621b6044820152606490fd5b1561494e57565b60405162461bcd60e51b8152602060048201526014602482015273149958d95a5d995c881b9bdd08185b1b1bddd95960621b6044820152606490fd5b1561499157565b60405162461bcd60e51b815260206004820152600e60248201526d736c6963655f6f766572666c6f7760901b6044820152606490fd5b156149ce57565b60405162461bcd60e51b8152602060048201526011602482015270736c6963655f6f75744f66426f756e647360781b6044820152606490fd5b614a148261410d816140c8565b614a23600461410d84826140e5565b614a3381516141338460046140e5565b81614a4a5750506040515f81526020810160405290565b60405191601f8116916004831560051b80858701019484860193010101905b808410614a815750508252601f01601f191660405290565b9092602080918551815201930190614a69565b91909160e0818403126105cf57614aa9610871565b92614ab382613ad7565b8452614ac160208301613ad7565b6020850152614ad260408301613ad7565b6040850152614ae360608301613ad7565b6060850152614af460808301613ad7565b6080850152614b0560a08301613ad7565b60a085015260c08201516001600160401b0381116105cf57614b279201613ae2565b60c0830152565b9190826101009103126105cf57604051614b4781610832565b60e0808294805184526020810151602085015260408101516040850152606081015160608501526080810151608085015260a081015160a085015260c081015160c08501520151910152565b519060ff821682036105cf57565b9080601f830112156105cf578151614bb881613715565b92614bc6604051948561084e565b81845260208085019260051b8201019283116105cf57602001905b828210614bee5750505090565b8151815260209182019101614be1565b6020818303126105cf578051906001600160401b0382116105cf5701610200818303126105cf57614c2d610882565b81519092906001600160401b0381116105cf5781614c4c918401614a94565b8352614c5b8160208401614b2e565b6020840152614c6d6101208301614b93565b6040840152614c7f6101408301614b93565b6060840152614c91610160830161477b565b6080840152614ca3610180830161477b565b60a0840152614cb56101a0830161477b565b60c08401526101c082015160e08401526101e08201516001600160401b0381116105cf57614ce39201614ba1565b61010082015290565b15614cf357565b60405162461bcd60e51b815260206004820152602960248201527f474d58206372656174654f726465723a207265636569766572206e6f742077686044820152681a5d195b1a5cdd195960ba1b6064820152608490fd5b15614d5157565b60405162461bcd60e51b815260206004820152603560248201527f474d58206372656174654f726465723a2063616e63656c6c6174696f6e526563604482015274195a5d995c881b9bdd081dda1a5d195b1a5cdd1959605a1b6064820152608490fd5b15614dbb57565b60405162461bcd60e51b815260206004820152602360248201527f474d58206372656174654f726465723a206d61726b6574206e6f7420616c6c6f6044820152621dd95960ea1b6064820152608490fd5b15614e1357565b60405162461bcd60e51b815260206004820152602760248201527f474d58206372656174654f726465723a20636f6c6c61746572616c206e6f7420604482015266185b1b1bddd95960ca1b6064820152608490fd5b15614e6f57565b60405162461bcd60e51b815260206004820152602c60248201527f474d58206372656174654f726465723a207377617050617468206d61726b657460448201526b081b9bdd08185b1b1bddd95960a21b6064820152608490fd5b614edc9060208082518301019101614bfe565b805151614efa90614ef5906001600160a01b0316613f31565b614cec565b805160200151614f1b90614f16906001600160a01b0316613f31565b614d4a565b805160800151614f3c90614f37906001600160a01b031661289c565b614db4565b805160a00151614f5d90614f58906001600160a01b0316613f01565b614e0c565b5f5b60c0825101518051821015614f935781614f8b614f86610c0c613bc360c0966001966137da565b614e68565b019050614f5f565b505050565b15614f9f57565b60405162461bcd60e51b815260206004820152602160248201527f474d582073656e64546f6b656e733a20746f6b656e206e6f7420616c6c6f77656044820152601960fa1b6064820152608490fd5b906060828051810103126105cf57604060208301519261500d846105be565b015190615019826105be565b6001600160a01b039081169116036150465761088090615041906001600160a01b0316613f01565b614f98565b606460405162461bcd60e51b815260206004820152602060248201527f474d582073656e64546f6b656e733a20696e76616c69642072656365697665726044820152fd5b61509d9060208082518301019101612771565b506001600160a01b039182169116036150b257565b60405162461bcd60e51b815260206004820152601d60248201527f474d582073656e64576e743a20696e76616c69642072656365697665720000006044820152606490fd5b906108809291615105614095565b60018060a01b038116805f52600260205260405f2063a9059cbb60e01b5f5260205260405f20600160ff198254161790555f52600360205260405f20600160ff1982541617905561515a610ccd60045461345f565b5f8051602061593683398151915260405180615178868686846135bb565b0390a16151868383836133be565b613bfb565b1561519257565b60405162461bcd60e51b815260206004820152601a60248201527915995b1bdc98481cddd85c1c195c881b9bdd08195b98589b195960321b6044820152606490fd5b908160209103126105cf575190565b156151ea57565b60405162461bcd60e51b815260206004820152601a602482015279125b9cdd59999a58da595b9d081bdd5d1c1d5d08185b5bdd5b9d60321b6044820152606490fd5b6040516370a0823160e01b81526001600160a01b03918216600482015293969295929493919290602090839060249082908b165afa9182156119b9575f926152f7575b5080850180861161346d577fadccd6d5139732e7db3b6f230f309c7e8eb03047d2c40c4c136ed949c6e8aa6595836152af6152b4936152f29610156151e3565b613881565b604080516001600160a01b03988916815298881660208a015288019490945260608701939093526080860192909252909216924292819060a0820190565b0390a3565b61531191925060203d60201161261057612601818361084e565b905f61526f565b1561531f57565b60405162461bcd60e51b8152602060048201526015602482015274746f416464726573735f6f75744f66426f756e647360581b6044820152606490fd5b90601481019182821161346d578183106153885761537f60209382511015615318565b01015160601c90565b60405162461bcd60e51b8152602060048201526012602482015271746f416464726573735f6f766572666c6f7760701b6044820152606490fd5b6040519061018082016001600160401b0381118382101761082d576040525f610160838281528260208201528260408201528260608201528260808201528260a08201528260c08201528260e08201528261010082015282610120820152826101408201520152565b6001600160a01b039091169052565b9361549d6154b49493969261544d6153c2565b5061549461546661545d426140d6565b63ffffffff1690565b95615482615472610892565b9a6001600160a01b03168b61542b565b6001600160a01b031660208a0161542b565b6040880161542b565b6060860152608085015263ffffffff1660a0840152565b60c08201525f60e08201527ff3b277728b3fee749481eb3e0b3b48980dbbab78658fc419025cb16eee3467756101008201525f6101208201525f805160206158768339815191526101408201525f8051602061587683398151915261016082015290565b60405160609190615529838261084e565b6038815291601f1901366020840137565b91959493906101e09361016061555d615615936102008752610200870190611b0e565b89516001600160a01b031660208701529860208101516001600160a01b0316604087015260408101516001600160a01b0316606087015260608101516080870152608081015160a08701526155bf60a082015160c088019063ffffffff169052565b60c081015160e087015260e08101516101008701526101008101516101208701526155f561012082015161014088019015159052565b61014081015186830152015161018085015263ffffffff166101a0840152565b6101c08201520152565b91906020615637600192604086526040860190611b0e565b930152565b9091615646614893565b5060405163f698da2560e01b81526020816004816001600160a01b0387165afa80156119b9576156ec61571d917f2c222fa91d81130fe56ee74391b3b6a113851c1f9cd5bc5853108490ccafc782935f9161578d575b508490604291601f190180517fd5a25ba2e97094ad7d83dc28a6572da797d6b3e7fc6663bd93efb789fc17e48982526101a0822091526040519161190160f01b8352600283015260228201522090565b946157136156f8615518565b9660a086019261570c845163ffffffff1690565b91896157d7565b5163ffffffff1690565b60808301519061573a606085015160405193849342978a8661553a565b0390a260405163ec6cb13f60e01b6020820152906157859061577183615763866024830161561f565b03601f19810185528461084e565b6157796108a2565b9384526020840161542b565b604082015290565b6157a6915060203d60201161261057612601818361084e565b5f61569c565b60ff5f805160206159168339815191525460401c16156157c857565b631afcd79f60e31b5f5260045ffd5b90929160388251036157f457602092603883015260348201520152565b60405162461bcd60e51b8152602060048201526019602482015278475076323a2075696420627566666572206f766572666c6f7760381b6044820152606490fdfe628a44970c0e450415e3ae74334ea44f3307b74dbf677a1371190242bf2f358952ae88b092de36f87fb43fe794eb1381023b9c1bce563a871154022c63dce3425a28e9363bb942b639270062aa6bb295f434bcdfc42c97267bf003f272060dc99016d09d72d40fdae2fd8ceac6b6234c7706214fd39c1cd1e609a0528c19930090cc2f570a6eb594b1580ea3e41247d2d73a55281889e86bd4ec2fc29c7e62d68be0079c531659141344cd1fd0a4f28419497f9722a3daafe3b4186f6b6457e0ad90e2570fc4fe9f7437be3188d5c791c6662892d31731992aa88f5c87621983f0c57e16840df040f15088dc2f81fe391c3923bec73e23a9662efc9c229c6a00ef729aaa41b9fd994f9ff7c1960df214a84f722002e6cfbea31799cd0873a3efa26469706673582212204a55867de20178316e12426ff13d7ceeeff9fcd5ed027bc3d6495df283fecf7964736f6c634300081a0033f0c57e16840df040f15088dc2f81fe391c3923bec73e23a9662efc9c229c6a00","linkReferences":{}},"methodIdentifiers":{"_SIGN_COOLDOWN()":"3ffb788e","allowApprovalDestination(address,string)":"98b3cc39","allowAsset(address,string)":"86b6dbe5","allowCallSite(address,bytes4,string)":"5e4ccace","allowDelegationApprovalDestination(address,string)":"63cc17f2","allowReceiver(address,string)":"72e548a9","allowSender(address,string)":"fa2c59c8","allowWithdrawDestination(address,string)":"5ace1d92","allowedApprovalDestinations(address)":"eb0de042","allowedAssets(address)":"a4c1cccb","allowedCallSites(address,bytes4)":"a847cf4d","allowedCowSwaps(address)":"47566064","allowedDelegationApprovalDestinations(address)":"4b941268","allowedGMXMarkets(address)":"0985b046","allowedGMXRouters(address)":"4c03f1f8","allowedLagoonVaults(address)":"8fb4dff2","allowedReceivers(address)":"3cf20025","allowedSenders(address)":"fadbcf48","allowedTargets(address)":"b8fe8d5f","allowedVeloraSwappers(address)":"b45ea48b","allowedWithdrawDestinations(address)":"07ef00cf","anyAsset()":"87301608","avatar()":"5aef7de6","callSiteCount()":"a9fc3d4f","getGovernanceAddress()":"73252494","getInternalVersion()":"fdedfa27","getTradingStrategyModuleVersion()":"9e4a83cf","gmxOrderVaults(address)":"a86ddc57","isAllowedApprovalDestination(address)":"1d49039c","isAllowedAsset(address)":"c537bed0","isAllowedCallSite(address,bytes4)":"713ebf3b","isAllowedCowSwap(address)":"333f22e8","isAllowedDelegationApprovalDestination(address)":"2dc32a61","isAllowedGMXMarket(address)":"2e31e9c6","isAllowedGMXRouter(address)":"cbdb1dcf","isAllowedLagoonVault(address)":"6fd7fdef","isAllowedReceiver(address)":"d075f9bb","isAllowedSender(address)":"be8c97b0","isAllowedTarget(address)":"78addb48","isAllowedVeloraSwapper(address)":"f84756aa","isAllowedWithdrawDestination(address)":"efb47bff","multicall(bytes[])":"ac9650d8","owner()":"8da5cb5b","performCall(address,bytes)":"d2f73e3d","performCall(address,bytes,uint256)":"486295dc","removeApprovalDestination(address,string)":"04a3ba25","removeAsset(address,string)":"f901dc33","removeCallSite(address,bytes4,string)":"d7334c9d","removeDelegationApprovalDestination(address,string)":"f259a073","removeGMXMarket(address,string)":"4d3d31ca","removeReceiver(address,string)":"2d12d788","removeSender(address,string)":"a67e1f54","removeWithdrawDestination(address,string)":"8c2fdf9e","renounceOwnership()":"715018a6","setAnyAssetAllowed(bool,string)":"c2e657ae","setAvatar(address)":"086cfca8","setTarget(address)":"776d1a01","setUp(bytes)":"a4f9edbf","swapAndValidateCowSwap(address,address,bytes32,address,address,uint256,uint256)":"4acf884d","swapAndValidateVelora(address,address,address,uint256,uint256,bytes)":"f9cf8ae5","target()":"d4b83992","transferOwnership(address)":"f2fde38b","validateCall(address,address,bytes)":"6d5025f1","validateUniswapV3Path(bytes)":"1c123e77","validate_ERC4626Deposit(address,bytes)":"2c02cda0","validate_ERC4626Redeem(bytes)":"742bfc7e","validate_ERC4626Withdraw(bytes)":"78065086","validate_UmamiDeposit(bytes)":"74fb77fe","validate_UmamiRedeem(bytes)":"0c260a7b","validate_aaveSupply(bytes)":"d4c0fe45","validate_aaveWithdraw(bytes)":"6a6d5cc8","validate_approve(bytes)":"4b956bd8","validate_approveDelegation(bytes)":"957dc6c0","validate_cowSwapSettlement(bytes)":"adcfa55b","validate_exactInput(bytes)":"ebe26816","validate_exactOutput(bytes)":"e98539c5","validate_gmxMulticall(address,bytes)":"6bf9e331","validate_lagoonSettle(address)":"b3c329cb","validate_orderlyDelegateSigner(bytes)":"d718f041","validate_orderlyDeposit(bytes)":"6d5176a6","validate_orderlyWithdraw(bytes)":"912ef02d","validate_swapExactTokensForTokens(bytes)":"761bcd9c","validate_transfer(bytes)":"1710a4f2","whitelistAaveV3(address,string)":"f20e85e0","whitelistCowSwap(address,address,string)":"1047789e","whitelistERC4626(address,string)":"86a6ae15","whitelistGMX(address,address,address,string)":"62d6775e","whitelistGMXMarket(address,string)":"d7581509","whitelistLagoon(address,string)":"5e6afe4d","whitelistOrderly(address,string)":"db17a170","whitelistToken(address,string)":"ee5462cc","whitelistTokenForDelegation(address,string)":"6d9a1423","whitelistUniswapV2Router(address,string)":"3ea35551","whitelistUniswapV3Router(address,string)":"34ec8d7e","whitelistVelora(address,address,string)":"4efbad39"},"id":29}