{"abi":[{"type":"constructor","inputs":[{"name":"_owner","type":"address","internalType":"address"},{"name":"_target","type":"address","internalType":"address"}],"stateMutability":"nonpayable"},{"type":"function","name":"allowApprovalDestination","inputs":[{"name":"destination","type":"address","internalType":"address"},{"name":"notes","type":"string","internalType":"string"}],"outputs":[],"stateMutability":"nonpayable"},{"type":"function","name":"allowAsset","inputs":[{"name":"asset","type":"address","internalType":"address"},{"name":"notes","type":"string","internalType":"string"}],"outputs":[],"stateMutability":"nonpayable"},{"type":"function","name":"allowCallSite","inputs":[{"name":"target","type":"address","internalType":"address"},{"name":"selector","type":"bytes4","internalType":"bytes4"},{"name":"notes","type":"string","internalType":"string"}],"outputs":[],"stateMutability":"nonpayable"},{"type":"function","name":"allowDelegationApprovalDestination","inputs":[{"name":"destination","type":"address","internalType":"address"},{"name":"notes","type":"string","internalType":"string"}],"outputs":[],"stateMutability":"nonpayable"},{"type":"function","name":"allowReceiver","inputs":[{"name":"receiver","type":"address","internalType":"address"},{"name":"notes","type":"string","internalType":"string"}],"outputs":[],"stateMutability":"nonpayable"},{"type":"function","name":"allowSender","inputs":[{"name":"sender","type":"address","internalType":"address"},{"name":"notes","type":"string","internalType":"string"}],"outputs":[],"stateMutability":"nonpayable"},{"type":"function","name":"allowWithdrawDestination","inputs":[{"name":"destination","type":"address","internalType":"address"},{"name":"notes","type":"string","internalType":"string"}],"outputs":[],"stateMutability":"nonpayable"},{"type":"function","name":"allowedApprovalDestinations","inputs":[{"name":"destination","type":"address","internalType":"address"}],"outputs":[{"name":"allowed","type":"bool","internalType":"bool"}],"stateMutability":"view"},{"type":"function","name":"allowedAssets","inputs":[{"name":"token","type":"address","internalType":"address"}],"outputs":[{"name":"allowed","type":"bool","internalType":"bool"}],"stateMutability":"view"},{"type":"function","name":"allowedCCTPDestinations","inputs":[{"name":"domain","type":"uint32","internalType":"uint32"}],"outputs":[{"name":"allowed","type":"bool","internalType":"bool"}],"stateMutability":"view"},{"type":"function","name":"allowedCCTPMessengers","inputs":[{"name":"messenger","type":"address","internalType":"address"}],"outputs":[{"name":"allowed","type":"bool","internalType":"bool"}],"stateMutability":"view"},{"type":"function","name":"allowedCallSites","inputs":[{"name":"target","type":"address","internalType":"address"},{"name":"selector","type":"bytes4","internalType":"bytes4"}],"outputs":[{"name":"allowed","type":"bool","internalType":"bool"}],"stateMutability":"view"},{"type":"function","name":"allowedDelegationApprovalDestinations","inputs":[{"name":"destination","type":"address","internalType":"address"}],"outputs":[{"name":"allowed","type":"bool","internalType":"bool"}],"stateMutability":"view"},{"type":"function","name":"allowedLagoonVaults","inputs":[{"name":"vault","type":"address","internalType":"address"}],"outputs":[{"name":"","type":"bool","internalType":"bool"}],"stateMutability":"view"},{"type":"function","name":"allowedReceivers","inputs":[{"name":"receiver","type":"address","internalType":"address"}],"outputs":[{"name":"allowed","type":"bool","internalType":"bool"}],"stateMutability":"view"},{"type":"function","name":"allowedSenders","inputs":[{"name":"sender","type":"address","internalType":"address"}],"outputs":[{"name":"allowed","type":"bool","internalType":"bool"}],"stateMutability":"view"},{"type":"function","name":"allowedTargets","inputs":[{"name":"target","type":"address","internalType":"address"}],"outputs":[{"name":"allowed","type":"bool","internalType":"bool"}],"stateMutability":"view"},{"type":"function","name":"allowedWithdrawDestinations","inputs":[{"name":"destination","type":"address","internalType":"address"}],"outputs":[{"name":"allowed","type":"bool","internalType":"bool"}],"stateMutability":"view"},{"type":"function","name":"anyAsset","inputs":[],"outputs":[{"name":"","type":"bool","internalType":"bool"}],"stateMutability":"view"},{"type":"function","name":"avatar","inputs":[],"outputs":[{"name":"","type":"address","internalType":"address"}],"stateMutability":"view"},{"type":"function","name":"callSiteCount","inputs":[],"outputs":[{"name":"","type":"uint256","internalType":"uint256"}],"stateMutability":"view"},{"type":"function","name":"getGovernanceAddress","inputs":[],"outputs":[{"name":"","type":"address","internalType":"address"}],"stateMutability":"view"},{"type":"function","name":"getInternalVersion","inputs":[],"outputs":[{"name":"","type":"uint8","internalType":"uint8"}],"stateMutability":"pure"},{"type":"function","name":"getLagoonSettlementConfig","inputs":[{"name":"vault","type":"address","internalType":"address"}],"outputs":[{"name":"allowed","type":"bool","internalType":"bool"},{"name":"limitEnabled","type":"bool","internalType":"bool"},{"name":"asset","type":"address","internalType":"address"},{"name":"pendingSilo","type":"address","internalType":"address"},{"name":"maxSettlementAmount","type":"uint256","internalType":"uint256"}],"stateMutability":"view"},{"type":"function","name":"getLagoonSettlementCooldownConfig","inputs":[{"name":"vault","type":"address","internalType":"address"}],"outputs":[{"name":"settlementCooldown","type":"uint256","internalType":"uint256"},{"name":"lastSettlementTimestamp","type":"uint256","internalType":"uint256"},{"name":"nextSettlementTimestamp","type":"uint256","internalType":"uint256"}],"stateMutability":"view"},{"type":"function","name":"getLagoonSettlementSafetyConfig","inputs":[{"name":"vault","type":"address","internalType":"address"}],"outputs":[{"name":"allowed","type":"bool","internalType":"bool"},{"name":"limitEnabled","type":"bool","internalType":"bool"},{"name":"asset","type":"address","internalType":"address"},{"name":"pendingSilo","type":"address","internalType":"address"},{"name":"maxSettlementAmount","type":"uint256","internalType":"uint256"},{"name":"settlementCooldown","type":"uint256","internalType":"uint256"},{"name":"lastSettlementTimestamp","type":"uint256","internalType":"uint256"},{"name":"nextSettlementTimestamp","type":"uint256","internalType":"uint256"}],"stateMutability":"view"},{"type":"function","name":"getTradingStrategyModuleVersion","inputs":[],"outputs":[{"name":"","type":"string","internalType":"string"}],"stateMutability":"pure"},{"type":"function","name":"gmxOrderVaults","inputs":[{"name":"exchangeRouter","type":"address","internalType":"address"}],"outputs":[{"name":"","type":"address","internalType":"address"}],"stateMutability":"view"},{"type":"function","name":"isAllowedApprovalDestination","inputs":[{"name":"receiver","type":"address","internalType":"address"}],"outputs":[{"name":"","type":"bool","internalType":"bool"}],"stateMutability":"view"},{"type":"function","name":"isAllowedAsset","inputs":[{"name":"token","type":"address","internalType":"address"}],"outputs":[{"name":"","type":"bool","internalType":"bool"}],"stateMutability":"view"},{"type":"function","name":"isAllowedCCTPDestination","inputs":[{"name":"domain","type":"uint32","internalType":"uint32"}],"outputs":[{"name":"","type":"bool","internalType":"bool"}],"stateMutability":"view"},{"type":"function","name":"isAllowedCCTPMessenger","inputs":[{"name":"messenger","type":"address","internalType":"address"}],"outputs":[{"name":"","type":"bool","internalType":"bool"}],"stateMutability":"view"},{"type":"function","name":"isAllowedCallSite","inputs":[{"name":"target","type":"address","internalType":"address"},{"name":"selector","type":"bytes4","internalType":"bytes4"}],"outputs":[{"name":"","type":"bool","internalType":"bool"}],"stateMutability":"view"},{"type":"function","name":"isAllowedCowSwap","inputs":[{"name":"settlement","type":"address","internalType":"address"}],"outputs":[{"name":"","type":"bool","internalType":"bool"}],"stateMutability":"view"},{"type":"function","name":"isAllowedDelegationApprovalDestination","inputs":[{"name":"receiver","type":"address","internalType":"address"}],"outputs":[{"name":"","type":"bool","internalType":"bool"}],"stateMutability":"view"},{"type":"function","name":"isAllowedGMXMarket","inputs":[{"name":"market","type":"address","internalType":"address"}],"outputs":[{"name":"","type":"bool","internalType":"bool"}],"stateMutability":"view"},{"type":"function","name":"isAllowedGMXRouter","inputs":[{"name":"router","type":"address","internalType":"address"}],"outputs":[{"name":"","type":"bool","internalType":"bool"}],"stateMutability":"view"},{"type":"function","name":"isAllowedLagoonVault","inputs":[{"name":"vault","type":"address","internalType":"address"}],"outputs":[{"name":"","type":"bool","internalType":"bool"}],"stateMutability":"view"},{"type":"function","name":"isAllowedLighter","inputs":[{"name":"zkLighter","type":"address","internalType":"address"}],"outputs":[{"name":"","type":"bool","internalType":"bool"}],"stateMutability":"view"},{"type":"function","name":"isAllowedLighterAssetIndex","inputs":[{"name":"assetIndex","type":"uint16","internalType":"uint16"}],"outputs":[{"name":"","type":"bool","internalType":"bool"}],"stateMutability":"view"},{"type":"function","name":"isAllowedReceiver","inputs":[{"name":"receiver","type":"address","internalType":"address"}],"outputs":[{"name":"","type":"bool","internalType":"bool"}],"stateMutability":"view"},{"type":"function","name":"isAllowedSender","inputs":[{"name":"sender","type":"address","internalType":"address"}],"outputs":[{"name":"","type":"bool","internalType":"bool"}],"stateMutability":"view"},{"type":"function","name":"isAllowedTarget","inputs":[{"name":"target","type":"address","internalType":"address"}],"outputs":[{"name":"","type":"bool","internalType":"bool"}],"stateMutability":"view"},{"type":"function","name":"isAllowedVeloraSwapper","inputs":[{"name":"swapper","type":"address","internalType":"address"}],"outputs":[{"name":"","type":"bool","internalType":"bool"}],"stateMutability":"view"},{"type":"function","name":"isAllowedWithdrawDestination","inputs":[{"name":"receiver","type":"address","internalType":"address"}],"outputs":[{"name":"","type":"bool","internalType":"bool"}],"stateMutability":"view"},{"type":"function","name":"multicall","inputs":[{"name":"data","type":"bytes[]","internalType":"bytes[]"}],"outputs":[{"name":"results","type":"bytes[]","internalType":"bytes[]"}],"stateMutability":"payable"},{"type":"function","name":"owner","inputs":[],"outputs":[{"name":"","type":"address","internalType":"address"}],"stateMutability":"view"},{"type":"function","name":"performCall","inputs":[{"name":"target","type":"address","internalType":"address"},{"name":"callData","type":"bytes","internalType":"bytes"},{"name":"value","type":"uint256","internalType":"uint256"}],"outputs":[],"stateMutability":"payable"},{"type":"function","name":"performCall","inputs":[{"name":"target","type":"address","internalType":"address"},{"name":"callData","type":"bytes","internalType":"bytes"}],"outputs":[],"stateMutability":"nonpayable"},{"type":"function","name":"removeApprovalDestination","inputs":[{"name":"destination","type":"address","internalType":"address"},{"name":"notes","type":"string","internalType":"string"}],"outputs":[],"stateMutability":"nonpayable"},{"type":"function","name":"removeAsset","inputs":[{"name":"asset","type":"address","internalType":"address"},{"name":"notes","type":"string","internalType":"string"}],"outputs":[],"stateMutability":"nonpayable"},{"type":"function","name":"removeCCTPDestination","inputs":[{"name":"domain","type":"uint32","internalType":"uint32"},{"name":"notes","type":"string","internalType":"string"}],"outputs":[],"stateMutability":"nonpayable"},{"type":"function","name":"removeCallSite","inputs":[{"name":"target","type":"address","internalType":"address"},{"name":"selector","type":"bytes4","internalType":"bytes4"},{"name":"notes","type":"string","internalType":"string"}],"outputs":[],"stateMutability":"nonpayable"},{"type":"function","name":"removeDelegationApprovalDestination","inputs":[{"name":"destination","type":"address","internalType":"address"},{"name":"notes","type":"string","internalType":"string"}],"outputs":[],"stateMutability":"nonpayable"},{"type":"function","name":"removeGMXMarket","inputs":[{"name":"market","type":"address","internalType":"address"},{"name":"notes","type":"string","internalType":"string"}],"outputs":[],"stateMutability":"nonpayable"},{"type":"function","name":"removeHypercoreVault","inputs":[{"name":"vault","type":"address","internalType":"address"},{"name":"notes","type":"string","internalType":"string"}],"outputs":[],"stateMutability":"nonpayable"},{"type":"function","name":"removeReceiver","inputs":[{"name":"receiver","type":"address","internalType":"address"},{"name":"notes","type":"string","internalType":"string"}],"outputs":[],"stateMutability":"nonpayable"},{"type":"function","name":"removeSender","inputs":[{"name":"sender","type":"address","internalType":"address"},{"name":"notes","type":"string","internalType":"string"}],"outputs":[],"stateMutability":"nonpayable"},{"type":"function","name":"removeWithdrawDestination","inputs":[{"name":"destination","type":"address","internalType":"address"},{"name":"notes","type":"string","internalType":"string"}],"outputs":[],"stateMutability":"nonpayable"},{"type":"function","name":"renounceOwnership","inputs":[],"outputs":[],"stateMutability":"nonpayable"},{"type":"function","name":"setAnyAssetAllowed","inputs":[{"name":"value","type":"bool","internalType":"bool"},{"name":"notes","type":"string","internalType":"string"}],"outputs":[],"stateMutability":"nonpayable"},{"type":"function","name":"setAvatar","inputs":[{"name":"_avatar","type":"address","internalType":"address"}],"outputs":[],"stateMutability":"nonpayable"},{"type":"function","name":"setTarget","inputs":[{"name":"_target","type":"address","internalType":"address"}],"outputs":[],"stateMutability":"nonpayable"},{"type":"function","name":"setUp","inputs":[{"name":"initializeParams","type":"bytes","internalType":"bytes"}],"outputs":[],"stateMutability":"nonpayable"},{"type":"function","name":"swapAndValidateCowSwap","inputs":[{"name":"settlementContract","type":"address","internalType":"address"},{"name":"receiver","type":"address","internalType":"address"},{"name":"appData","type":"bytes32","internalType":"bytes32"},{"name":"tokenIn","type":"address","internalType":"address"},{"name":"tokenOut","type":"address","internalType":"address"},{"name":"amountIn","type":"uint256","internalType":"uint256"},{"name":"minAmountOut","type":"uint256","internalType":"uint256"}],"outputs":[],"stateMutability":"nonpayable"},{"type":"function","name":"swapAndValidateVelora","inputs":[{"name":"augustusSwapper","type":"address","internalType":"address"},{"name":"receiver","type":"address","internalType":"address"},{"name":"tokenIn","type":"address","internalType":"address"},{"name":"tokenOut","type":"address","internalType":"address"},{"name":"amountIn","type":"uint256","internalType":"uint256"},{"name":"minAmountOut","type":"uint256","internalType":"uint256"},{"name":"augustusCalldata","type":"bytes","internalType":"bytes"}],"outputs":[],"stateMutability":"nonpayable"},{"type":"function","name":"target","inputs":[],"outputs":[{"name":"","type":"address","internalType":"address"}],"stateMutability":"view"},{"type":"function","name":"transferOwnership","inputs":[{"name":"newOwner","type":"address","internalType":"address"}],"outputs":[],"stateMutability":"nonpayable"},{"type":"function","name":"validateCall","inputs":[{"name":"sender","type":"address","internalType":"address"},{"name":"target","type":"address","internalType":"address"},{"name":"callDataWithSelector","type":"bytes","internalType":"bytes"}],"outputs":[],"stateMutability":"view"},{"type":"function","name":"whitelistAaveV3","inputs":[{"name":"lendingPool","type":"address","internalType":"address"},{"name":"notes","type":"string","internalType":"string"}],"outputs":[],"stateMutability":"nonpayable"},{"type":"function","name":"whitelistCCTP","inputs":[{"name":"tokenMessenger","type":"address","internalType":"address"},{"name":"notes","type":"string","internalType":"string"}],"outputs":[],"stateMutability":"nonpayable"},{"type":"function","name":"whitelistCCTPDestination","inputs":[{"name":"domain","type":"uint32","internalType":"uint32"},{"name":"notes","type":"string","internalType":"string"}],"outputs":[],"stateMutability":"nonpayable"},{"type":"function","name":"whitelistCoreWriter","inputs":[{"name":"coreWriter","type":"address","internalType":"address"},{"name":"coreDepositWallet","type":"address","internalType":"address"},{"name":"notes","type":"string","internalType":"string"}],"outputs":[],"stateMutability":"nonpayable"},{"type":"function","name":"whitelistCowSwap","inputs":[{"name":"settlementContract","type":"address","internalType":"address"},{"name":"relayerContract","type":"address","internalType":"address"},{"name":"notes","type":"string","internalType":"string"}],"outputs":[],"stateMutability":"nonpayable"},{"type":"function","name":"whitelistERC4626","inputs":[{"name":"vault","type":"address","internalType":"address"},{"name":"notes","type":"string","internalType":"string"}],"outputs":[],"stateMutability":"nonpayable"},{"type":"function","name":"whitelistGMX","inputs":[{"name":"exchangeRouter","type":"address","internalType":"address"},{"name":"syntheticsRouter","type":"address","internalType":"address"},{"name":"orderVault","type":"address","internalType":"address"},{"name":"collateralTokens","type":"address[]","internalType":"address[]"},{"name":"notes","type":"string","internalType":"string"}],"outputs":[],"stateMutability":"nonpayable"},{"type":"function","name":"whitelistGMXMarket","inputs":[{"name":"market","type":"address","internalType":"address"},{"name":"notes","type":"string","internalType":"string"}],"outputs":[],"stateMutability":"nonpayable"},{"type":"function","name":"whitelistHypercoreVault","inputs":[{"name":"vault","type":"address","internalType":"address"},{"name":"notes","type":"string","internalType":"string"}],"outputs":[],"stateMutability":"nonpayable"},{"type":"function","name":"whitelistLagoon","inputs":[{"name":"vault","type":"address","internalType":"address"},{"name":"notes","type":"string","internalType":"string"}],"outputs":[],"stateMutability":"nonpayable"},{"type":"function","name":"whitelistLagoonWithSettlementLimit","inputs":[{"name":"vault","type":"address","internalType":"address"},{"name":"asset","type":"address","internalType":"address"},{"name":"pendingSilo","type":"address","internalType":"address"},{"name":"maxSettlementAmount","type":"uint256","internalType":"uint256"},{"name":"notes","type":"string","internalType":"string"}],"outputs":[],"stateMutability":"nonpayable"},{"type":"function","name":"whitelistLagoonWithSettlementLimitAndCooldown","inputs":[{"name":"vault","type":"address","internalType":"address"},{"name":"asset","type":"address","internalType":"address"},{"name":"pendingSilo","type":"address","internalType":"address"},{"name":"maxSettlementAmount","type":"uint256","internalType":"uint256"},{"name":"settlementCooldown","type":"uint256","internalType":"uint256"},{"name":"notes","type":"string","internalType":"string"}],"outputs":[],"stateMutability":"nonpayable"},{"type":"function","name":"whitelistLighter","inputs":[{"name":"zkLighter","type":"address","internalType":"address"},{"name":"usdc","type":"address","internalType":"address"},{"name":"assetIndex","type":"uint16","internalType":"uint16"},{"name":"notes","type":"string","internalType":"string"}],"outputs":[],"stateMutability":"nonpayable"},{"type":"function","name":"whitelistToken","inputs":[{"name":"token","type":"address","internalType":"address"},{"name":"notes","type":"string","internalType":"string"}],"outputs":[],"stateMutability":"nonpayable"},{"type":"function","name":"whitelistTokenForDelegation","inputs":[{"name":"token","type":"address","internalType":"address"},{"name":"notes","type":"string","internalType":"string"}],"outputs":[],"stateMutability":"nonpayable"},{"type":"function","name":"whitelistUniswapV2Router","inputs":[{"name":"router","type":"address","internalType":"address"},{"name":"notes","type":"string","internalType":"string"}],"outputs":[],"stateMutability":"nonpayable"},{"type":"function","name":"whitelistUniswapV3Router","inputs":[{"name":"router","type":"address","internalType":"address"},{"name":"notes","type":"string","internalType":"string"}],"outputs":[],"stateMutability":"nonpayable"},{"type":"function","name":"whitelistVelora","inputs":[{"name":"augustusSwapper","type":"address","internalType":"address"},{"name":"tokenTransferProxy","type":"address","internalType":"address"},{"name":"notes","type":"string","internalType":"string"}],"outputs":[],"stateMutability":"nonpayable"},{"type":"event","name":"AnyAssetSet","inputs":[{"name":"value","type":"bool","indexed":false,"internalType":"bool"},{"name":"notes","type":"string","indexed":false,"internalType":"string"}],"anonymous":false},{"type":"event","name":"AnyVaultSet","inputs":[{"name":"value","type":"bool","indexed":false,"internalType":"bool"},{"name":"notes","type":"string","indexed":false,"internalType":"string"}],"anonymous":false},{"type":"event","name":"ApprovalDestinationApproved","inputs":[{"name":"destination","type":"address","indexed":false,"internalType":"address"},{"name":"notes","type":"string","indexed":false,"internalType":"string"}],"anonymous":false},{"type":"event","name":"ApprovalDestinationRemoved","inputs":[{"name":"destination","type":"address","indexed":false,"internalType":"address"},{"name":"notes","type":"string","indexed":false,"internalType":"string"}],"anonymous":false},{"type":"event","name":"AssetApproved","inputs":[{"name":"asset","type":"address","indexed":false,"internalType":"address"},{"name":"notes","type":"string","indexed":false,"internalType":"string"}],"anonymous":false},{"type":"event","name":"AssetRemoved","inputs":[{"name":"asset","type":"address","indexed":false,"internalType":"address"},{"name":"notes","type":"string","indexed":false,"internalType":"string"}],"anonymous":false},{"type":"event","name":"AvatarSet","inputs":[{"name":"previousAvatar","type":"address","indexed":true,"internalType":"address"},{"name":"newAvatar","type":"address","indexed":true,"internalType":"address"}],"anonymous":false},{"type":"event","name":"CCTPDestinationApproved","inputs":[{"name":"domain","type":"uint32","indexed":false,"internalType":"uint32"},{"name":"notes","type":"string","indexed":false,"internalType":"string"}],"anonymous":false},{"type":"event","name":"CCTPDestinationRemoved","inputs":[{"name":"domain","type":"uint32","indexed":false,"internalType":"uint32"},{"name":"notes","type":"string","indexed":false,"internalType":"string"}],"anonymous":false},{"type":"event","name":"CCTPMessengerApproved","inputs":[{"name":"tokenMessenger","type":"address","indexed":false,"internalType":"address"},{"name":"notes","type":"string","indexed":false,"internalType":"string"}],"anonymous":false},{"type":"event","name":"CallSiteApproved","inputs":[{"name":"target","type":"address","indexed":false,"internalType":"address"},{"name":"selector","type":"bytes4","indexed":false,"internalType":"bytes4"},{"name":"notes","type":"string","indexed":false,"internalType":"string"}],"anonymous":false},{"type":"event","name":"CallSiteRemoved","inputs":[{"name":"target","type":"address","indexed":false,"internalType":"address"},{"name":"selector","type":"bytes4","indexed":false,"internalType":"bytes4"},{"name":"notes","type":"string","indexed":false,"internalType":"string"}],"anonymous":false},{"type":"event","name":"DelegationApprovalDestinationApproved","inputs":[{"name":"destination","type":"address","indexed":false,"internalType":"address"},{"name":"notes","type":"string","indexed":false,"internalType":"string"}],"anonymous":false},{"type":"event","name":"DelegationApprovalDestinationRemoved","inputs":[{"name":"destination","type":"address","indexed":false,"internalType":"address"},{"name":"notes","type":"string","indexed":false,"internalType":"string"}],"anonymous":false},{"type":"event","name":"ERC4626Approved","inputs":[{"name":"vault","type":"address","indexed":false,"internalType":"address"},{"name":"notes","type":"string","indexed":false,"internalType":"string"}],"anonymous":false},{"type":"event","name":"Initialized","inputs":[{"name":"version","type":"uint64","indexed":false,"internalType":"uint64"}],"anonymous":false},{"type":"event","name":"LagoonVaultApproved","inputs":[{"name":"vault","type":"address","indexed":false,"internalType":"address"},{"name":"notes","type":"string","indexed":false,"internalType":"string"}],"anonymous":false},{"type":"event","name":"OwnershipTransferred","inputs":[{"name":"previousOwner","type":"address","indexed":true,"internalType":"address"},{"name":"newOwner","type":"address","indexed":true,"internalType":"address"}],"anonymous":false},{"type":"event","name":"ReceiverApproved","inputs":[{"name":"receiver","type":"address","indexed":false,"internalType":"address"},{"name":"notes","type":"string","indexed":false,"internalType":"string"}],"anonymous":false},{"type":"event","name":"ReceiverRemoved","inputs":[{"name":"receiver","type":"address","indexed":false,"internalType":"address"},{"name":"notes","type":"string","indexed":false,"internalType":"string"}],"anonymous":false},{"type":"event","name":"SenderApproved","inputs":[{"name":"sender","type":"address","indexed":false,"internalType":"address"},{"name":"notes","type":"string","indexed":false,"internalType":"string"}],"anonymous":false},{"type":"event","name":"SenderRemoved","inputs":[{"name":"sender","type":"address","indexed":false,"internalType":"address"},{"name":"notes","type":"string","indexed":false,"internalType":"string"}],"anonymous":false},{"type":"event","name":"TargetSet","inputs":[{"name":"previousTarget","type":"address","indexed":true,"internalType":"address"},{"name":"newTarget","type":"address","indexed":true,"internalType":"address"}],"anonymous":false},{"type":"event","name":"WithdrawDestinationApproved","inputs":[{"name":"destination","type":"address","indexed":false,"internalType":"address"},{"name":"notes","type":"string","indexed":false,"internalType":"string"}],"anonymous":false},{"type":"event","name":"WithdrawDestinationRemoved","inputs":[{"name":"destination","type":"address","indexed":false,"internalType":"address"},{"name":"notes","type":"string","indexed":false,"internalType":"string"}],"anonymous":false},{"type":"error","name":"InvalidInitialization","inputs":[]},{"type":"error","name":"NotInitializing","inputs":[]},{"type":"error","name":"OwnableInvalidOwner","inputs":[{"name":"owner","type":"address","internalType":"address"}]},{"type":"error","name":"OwnableUnauthorizedAccount","inputs":[{"name":"account","type":"address","internalType":"address"}]},{"type":"error","name":"UnknownPostCallValidationKind","inputs":[{"name":"kind","type":"uint8","internalType":"uint8"}]}],"bytecode":{"object":"0x608060405234801561000f575f80fd5b50604051615cfa380380615cfa83398101604081905261002e916103f8565b604080516001600160a01b03848116602083015283168183015281518082038301815260609091019091526100628161006a565b505050610444565b5f6100736101a2565b805490915060ff6801000000000000000082041615906001600160401b03165f8115801561009e5750825b90505f826001600160401b031660011480156100b95750303b155b9050811580156100c7575080155b156100e55760405163f92ee8a960e01b815260040160405180910390fd5b84546001600160401b0319166001178555831561011357845460ff60401b1916680100000000000000001785555b61011c336101c6565b5f808780602001905181019061013291906103f8565b9092509050610140816101da565b61014981610231565b6101528261028a565b5050831561019a57845460ff60401b19168555604051600181527fc7f505b2f371ae2175ee4913f4499e1f2633a7b5936321eed1cdaeb6115181d29060200160405180910390a15b505050505050565b7ff0c57e16840df040f15088dc2f81fe391c3923bec73e23a9662efc9c229c6a0090565b6101ce6102cd565b6101d7816102f4565b50565b6101e26102fc565b5f80546001600160a01b038381166001600160a01b0319831681178455604051919092169283917f52ae88b092de36f87fb43fe794eb1381023b9c1bce563a871154022c63dce3429190a35050565b6102396102fc565b600180546001600160a01b038381166001600160a01b0319831681179093556040519116919082907f90cc2f570a6eb594b1580ea3e41247d2d73a55281889e86bd4ec2fc29c7e62d6905f90a35050565b6102926102fc565b6001600160a01b0381166102c4575f604051631e4fbdf760e01b81526004016102bb9190610430565b60405180910390fd5b6101d78161032e565b6102d5610388565b6102f257604051631afcd79f60e31b815260040160405180910390fd5b565b6102926102cd565b336103056103a6565b6001600160a01b0316146102f2573360405163118cdaa760e01b81526004016102bb9190610430565b5f6103376103c0565b80546001600160a01b038481166001600160a01b031983168117845560405193945091169182907f8be0079c531659141344cd1fd0a4f28419497f9722a3daafe3b4186f6b6457e0905f90a3505050565b5f6103916101a2565b5468010000000000000000900460ff16919050565b5f806103b06103c0565b546001600160a01b031692915050565b7f9016d09d72d40fdae2fd8ceac6b6234c7706214fd39c1cd1e609a0528c19930090565b6001600160a01b03811681146101d7575f80fd5b5f8060408385031215610409575f80fd5b8251610414816103e4565b6020840151909250610425816103e4565b809150509250929050565b6001600160a01b0391909116815260200190565b6158a9806104515f395ff3fe6080604052600436106103cf575f3560e01c80630411fb8e146103d357806304a3ba2514610407578063076053421461042857806307ef00cf14610456578063086cfca8146104845780631047789e146104a35780631d49039c146104c25780632d12d788146104e15780632dc32a61146105005780632de905bc1461051f5780632e31e9c61461053e578063307990e21461055d578063333f22e81461059757806334ec8d7e146105b65780633cf20025146105d55780633ea3555114610603578063408694e314610622578063486295dc146106415780634acf884d146106545780634b941268146106735780634d3d31ca146106a15780634ecd74d6146106c05780634efbad39146107155780634f97d805146107345780635ace1d92146107535780635aef7de6146107725780635c5c06d21461079d5780635e4ccace146107bc5780635e6afe4d146107db57806363cc17f2146107fa5780636d5025f1146108195780636d9a1423146108385780636e3de202146108575780636fd7fdef14610876578063713ebf3b14610895578063715018a6146108b457806372e548a9146108c857806373252494146108e7578063748fca46146108fb578063776d1a011461091a57806378addb48146109395780637cac69c31461095857806386a6ae151461098657806386b6dbe5146109a557806387301608146109c45780638c2fdf9e146109dd5780638da5cb5b146109fc5780638fb4dff214610a1057806398b3cc3914610a2f5780639e4a83cf14610a4e578063a2a7c02f14610a80578063a4c1cccb14610a9f578063a4f9edbf14610acd578063a67e1f5414610aec578063a847cf4d14610b0b578063a86ddc5714610b44578063a9fc3d4f14610b63578063ac9650d814610b86578063acb9da1614610ba6578063b8fe8d5f14610bc5578063ba44ad4114610bf3578063be8c97b014610c12578063c2e657ae14610c31578063c537bed014610c50578063cbdb1dcf14610c6f578063d075f9bb14610c8e578063d078377c14610cad578063d2f73e3d14610ccc578063d4b8399214610ceb578063d7334c9d14610d0a578063d758150914610d29578063e2873b6d14610d48578063e6f32c5114610d67578063e7c292a114610d86578063eb0de04214610dee578063ec01144014610e1c578063ee5462cc14610e3b578063efb47bff14610e5a578063f20e85e014610e79578063f259a07314610e98578063f2fde38b14610eb7578063f84756aa14610ed6578063f901dc3314610ef5578063fa2c59c814610f14578063fadbcf4814610f33578063faef8f5814610f61578063fdedfa2714610f80575b5f80fd5b3480156103de575f80fd5b506103f26103ed366004614735565b610f9b565b60405190151581526020015b60405180910390f35b348015610412575f80fd5b5061042661042136600461479b565b610fb8565b005b348015610433575f80fd5b506103f2610442366004614735565b600b6020525f908152604090205460ff1681565b348015610461575f80fd5b506103f2610470366004614735565b60086020525f908152604090205460ff1681565b34801561048f575f80fd5b5061042661049e366004614735565b611020565b3480156104ae575f80fd5b506104266104bd3660046147eb565b611077565b3480156104cd575f80fd5b506103f26104dc366004614735565b611102565b3480156104ec575f80fd5b506104266104fb36600461479b565b61111f565b34801561050b575f80fd5b506103f261051a366004614735565b61117a565b34801561052a575f80fd5b5061042661053936600461479b565b611197565b348015610549575f80fd5b506103f2610558366004614735565b61120b565b348015610568575f80fd5b5061057c610577366004614735565b61129d565b604080519384526020840192909252908201526060016103fe565b3480156105a2575f80fd5b506103f26105b1366004614735565b611396565b3480156105c1575f80fd5b506104266105d036600461479b565b6113cf565b3480156105e0575f80fd5b506103f26105ef366004614735565b60076020525f908152604090205460ff1681565b34801561060e575f80fd5b5061042661061d36600461479b565b611420565b34801561062d575f80fd5b5061042661063c366004614861565b61144e565b61042661064f3660046148d5565b611515565b34801561065f575f80fd5b5061042661066e36600461492c565b61161f565b34801561067e575f80fd5b506103f261068d366004614735565b600a6020525f908152604090205460ff1681565b3480156106ac575f80fd5b506104266106bb36600461479b565b6117ab565b3480156106cb575f80fd5b506106df6106da366004614735565b6117ee565b60408051951515865293151560208601526001600160a01b0392831693850193909352166060830152608082015260a0016103fe565b348015610720575f80fd5b5061042661072f3660046147eb565b6118ee565b34801561073f575f80fd5b506103f261074e3660046149a1565b61193c565b34801561075e575f80fd5b5061042661076d36600461479b565b611988565b34801561077d575f80fd5b505f54610790906001600160a01b031681565b6040516103fe91906149ba565b3480156107a8575f80fd5b506104266107b73660046149ce565b6119e6565b3480156107c7575f80fd5b506104266107d6366004614a6d565b611adb565b3480156107e6575f80fd5b506104266107f536600461479b565b611b87565b348015610805575f80fd5b5061042661081436600461479b565b611c74565b348015610824575f80fd5b506104266108333660046147eb565b611cd2565b348015610843575f80fd5b5061042661085236600461479b565b611ce5565b348015610862575f80fd5b50610426610871366004614ad9565b611d0b565b348015610881575f80fd5b506103f2610890366004614735565b611ddf565b3480156108a0575f80fd5b506103f26108af366004614b5e565b611de9565b3480156108bf575f80fd5b50610426611e1f565b3480156108d3575f80fd5b506104266108e236600461479b565b611e32565b3480156108f2575f80fd5b50610790611e90565b348015610906575f80fd5b506103f2610915366004614ba4565b611e9e565b348015610925575f80fd5b50610426610934366004614735565b611eb8565b348015610944575f80fd5b506103f2610953366004614735565b611f11565b348015610963575f80fd5b506103f2610972366004614ba4565b600c6020525f908152604090205460ff1681565b348015610991575f80fd5b506104266109a036600461479b565b611f2e565b3480156109b0575f80fd5b506104266109bf36600461479b565b61216a565b3480156109cf575f80fd5b50600d546103f29060ff1681565b3480156109e8575f80fd5b506104266109f736600461479b565b6121c8565b348015610a07575f80fd5b50610790612223565b348015610a1b575f80fd5b506103f2610a2a366004614735565b61223d565b348015610a3a575f80fd5b50610426610a4936600461479b565b6122e8565b348015610a59575f80fd5b50604080518082018252600481526376302e3560e01b602082015290516103fe9190614beb565b348015610a8b575f80fd5b50610426610a9a366004614bfd565b612346565b348015610aaa575f80fd5b506103f2610ab9366004614735565b60056020525f908152604090205460ff1681565b348015610ad8575f80fd5b50610426610ae7366004614d60565b612441565b348015610af7575f80fd5b50610426610b0636600461479b565b612562565b348015610b16575f80fd5b506103f2610b25366004614b5e565b600260209081525f928352604080842090915290825290205460ff1681565b348015610b4f575f80fd5b50610790610b5e366004614735565b6125bd565b348015610b6e575f80fd5b50610b7860045481565b6040519081526020016103fe565b610b99610b94366004614d91565b612635565b6040516103fe9190614dcf565b348015610bb1575f80fd5b50610426610bc03660046147eb565b61277b565b348015610bd0575f80fd5b506103f2610bdf366004614735565b60036020525f908152604090205460ff1681565b348015610bfe575f80fd5b50610426610c0d366004614e32565b6127fd565b348015610c1d575f80fd5b506103f2610c2c366004614735565b612855565b348015610c3c575f80fd5b50610426610c4b366004614e5a565b612872565b348015610c5b575f80fd5b506103f2610c6a366004614735565b6128bc565b348015610c7a575f80fd5b506103f2610c89366004614735565b6128e8565b348015610c99575f80fd5b506103f2610ca8366004614735565b612921565b348015610cb8575f80fd5b50610426610cc7366004614e77565b61293e565b348015610cd7575f80fd5b50610426610ce636600461479b565b612b57565b348015610cf6575f80fd5b50600154610790906001600160a01b031681565b348015610d15575f80fd5b50610426610d24366004614a6d565b612b63565b348015610d34575f80fd5b50610426610d4336600461479b565b612bd5565b348015610d53575f80fd5b50610426610d6236600461479b565b612c18565b348015610d72575f80fd5b50610426610d81366004614e32565b612c5b565b348015610d91575f80fd5b50610da5610da0366004614735565b612cb6565b60408051981515895296151560208901526001600160a01b0395861696880196909652939092166060860152608085015260a084015260c083015260e0820152610100016103fe565b348015610df9575f80fd5b506103f2610e08366004614735565b60096020525f908152604090205460ff1681565b348015610e27575f80fd5b50610426610e3636600461479b565b612dc3565b348015610e46575f80fd5b50610426610e5536600461479b565b612e3f565b348015610e65575f80fd5b506103f2610e74366004614735565b612e52565b348015610e84575f80fd5b50610426610e9336600461479b565b612e6f565b348015610ea3575f80fd5b50610426610eb236600461479b565b612e9d565b348015610ec2575f80fd5b50610426610ed1366004614735565b612ef8565b348015610ee1575f80fd5b506103f2610ef0366004614735565b612f35565b348015610f00575f80fd5b50610426610f0f36600461479b565b612f6e565b348015610f1f575f80fd5b50610426610f2e36600461479b565b612fc9565b348015610f3e575f80fd5b506103f2610f4d366004614735565b60066020525f908152604090205460ff1681565b348015610f6c575f80fd5b506103f2610f7b366004614735565b613027565b348015610f8b575f80fd5b50604051600381526020016103fe565b6001600160a01b03165f908152600b602052604090205460ff1690565b610fc0613060565b6001600160a01b0383165f9081526009602052604090819020805460ff19169055517fb71be9befd3ac90c1c9981d3b1161b3c2c6dcd741f13b34061aa251226a802df9061101390859085908590614f33565b60405180910390a1505050565b611028613060565b5f80546001600160a01b038381166001600160a01b0319831681178455604051919092169283917f52ae88b092de36f87fb43fe794eb1381023b9c1bce563a871154022c63dce3429190a35050565b61107f613060565b61108a8483836122e8565b6110958383836122e8565b60405163303e5bc960e21b815273__$f7398432285ba6c2c1c9749bf7c6b7e7ad$__9063c0f96f24906110d090879086908690600401614f33565b5f6040518083038186803b1580156110e6575f80fd5b505af41580156110f8573d5f803e3d5ffd5b5050505050505050565b6001600160a01b03165f9081526009602052604090205460ff1690565b611127613060565b6001600160a01b0383165f9081526007602052604090819020805460ff19169055517f4e13b11ab98e672bd78295ef9cebe764dc617f95decf47d842c25b83abc0c7249061101390859085908590614f33565b6001600160a01b03165f908152600a602052604090205460ff1690565b61119f613060565b604051630b7a416f60e21b815273__$f9fa4d4e532bfe6aeff5ab3d328fd72bc7$__90632de905bc906111da90869086908690600401614f33565b5f6040518083038186803b1580156111f0575f80fd5b505af4158015611202573d5f803e3d5ffd5b50505050505050565b600d546040516312789ae160e11b81526001600160a01b038316600482015260ff909116151560248201525f9073__$bda5499a8fa48831c49ec55d96dbc8aee1$__906324f135c2906044015b602060405180830381865af4158015611273573d5f803e3d5ffd5b505050506040513d601f19601f820116820180604052508101906112979190614f60565b92915050565b5f805f73__$8a78b2314c8022eee5a913787dcdf9f72e$__63c52046de6040518163ffffffff1660e01b8152600401602060405180830381865af41580156112e7573d5f803e3d5ffd5b505050506040513d601f19601f8201168201806040525081019061130b9190614f60565b611313575f80fd5b60405163786076f560e01b815273__$8a78b2314c8022eee5a913787dcdf9f72e$__9063786076f59061134a9087906004016149ba565b606060405180830381865af4158015611365573d5f803e3d5ffd5b505050506040513d601f19601f820116820180604052508101906113899190614f7b565b9250925092509193909250565b604051630667e45d60e31b81525f9073__$f7398432285ba6c2c1c9749bf7c6b7e7ad$__9063333f22e8906112589085906004016149ba565b6113d7613060565b6113ea8363c04b8d5960e01b8484611adb565b6113fd83631e51809360e31b8484611adb565b6114108363b858183f60e01b8484611adb565b61141b8383836122e8565b505050565b611428613060565b61143b836338ed173960e01b8484611adb565b61141083635c11d79560e01b8484611adb565b611456613060565b61146985638a85708360e01b8484611adb565b61147c8563d20191bd60e01b8484611adb565b61148f85631792c03f60e11b8484611adb565b61149a8583836122e8565b6114a5848383613092565b6040516303cb6dc560e31b815273__$b1eadc77501473dd7d6b2fe89954bce60e$__90631e5b6e28906114e2908890879087908790600401614fa6565b5f6040518083038186803b1580156114f8575f80fd5b505af415801561150a573d5f803e3d5ffd5b505050505050505050565b5f611522338686866130b8565b905034156115c6575f80546040516001600160a01b039091169034908381818185875af1925050503d805f8114611574576040519150601f19603f3d011682016040523d82523d5f602084013e611579565b606091505b50509050806115c45760405162461bcd60e51b815260206004820152601260248201527111551208199bdc9dd85c990819985a5b195960721b60448201526064015b60405180910390fd5b505b5f80611608878588888080601f0160208091040260200160405190810160405280939291908181526020018383808284375f9201829052509250613fce915050565b915091506116168282614058565b61120283614069565b73__$f7398432285ba6c2c1c9749bf7c6b7e7ad$__63c52046de6040518163ffffffff1660e01b8152600401602060405180830381865af4158015611666573d5f803e3d5ffd5b505050506040513d601f19601f8201168201806040525081019061168a9190614f60565b6116ce5760405162461bcd60e51b815260206004820152601560248201527410dbddd4ddd85c131a58881b9bdd081b1a5b9ad959605a1b60448201526064016115bb565b604051635a1b5fa560e01b81526001600160a01b03808916600483015280881660248301526044820187905280861660648301528416608482015260a4810183905260c481018290525f9073__$f7398432285ba6c2c1c9749bf7c6b7e7ad$__90635a1b5fa59060e4015f60405180830381865af4158015611752573d5f803e3d5ffd5b505050506040513d5f823e601f3d908101601f191682016040526117799190810190615032565b90505f8061179183602001515f85604001515f613fce565b9150915061179f8282614058565b50505050505050505050565b6117b3613060565b60405163f7570c2960e01b815273__$bda5499a8fa48831c49ec55d96dbc8aee1$__9063f7570c29906111da90869086908690600401614f33565b5f805f805f73__$8a78b2314c8022eee5a913787dcdf9f72e$__63c52046de6040518163ffffffff1660e01b8152600401602060405180830381865af415801561183a573d5f803e3d5ffd5b505050506040513d601f19601f8201168201806040525081019061185e9190614f60565b611866575f80fd5b60405163de1eb9a360e01b815273__$8a78b2314c8022eee5a913787dcdf9f72e$__9063de1eb9a39061189d9089906004016149ba565b60a060405180830381865af41580156118b8573d5f803e3d5ffd5b505050506040513d601f19601f820116820180604052508101906118dc91906150d9565b939a9299509097509550909350915050565b6118f6613060565b6119018383836122e8565b604051631a65191160e21b815273__$c49bf44a3286d065a371d69fbc4a0c0f99$__906369946444906110d090879086908690600401614f33565b600d54604051632e8e669960e11b815261ffff8316600482015260ff909116151560248201525f9073__$b1eadc77501473dd7d6b2fe89954bce60e$__90635d1ccd3290604401611258565b611990613060565b6001600160a01b0383165f9081526008602052604090819020805460ff19166001179055517f3562181221a42a19ddd03a82dfe06acab1905ceb65cdaf7d86a1d9fec66435529061101390859085908590614f33565b6119ee613060565b73__$8a78b2314c8022eee5a913787dcdf9f72e$__63c52046de6040518163ffffffff1660e01b8152600401602060405180830381865af4158015611a35573d5f803e3d5ffd5b505050506040513d601f19601f82011682018060405250810190611a599190614f60565b611a61575f80fd5b60405163728a349960e01b815273__$8a78b2314c8022eee5a913787dcdf9f72e$__9063728a349990611aa4908a908a908a908a908a908a908a90600401615140565b5f6040518083038186803b158015611aba575f80fd5b505af4158015611acc573d5f803e3d5ffd5b505050506112028783836141be565b611ae3613060565b6001600160a01b0384165f8181526002602090815260408083206001600160e01b03198816845282528083208054600160ff199182168117909255948452600390925282208054909316179091556004805491611b3f8361518f565b91905055507fef729aaa41b9fd994f9ff7c1960df214a84f722002e6cfbea31799cd0873a3ef84848484604051611b7994939291906151b3565b60405180910390a150505050565b611b8f613060565b73__$8a78b2314c8022eee5a913787dcdf9f72e$__63c52046de6040518163ffffffff1660e01b8152600401602060405180830381865af4158015611bd6573d5f803e3d5ffd5b505050506040513d601f19601f82011682018060405250810190611bfa9190614f60565b611c02575f80fd5b60405163fe16474d60e01b815273__$8a78b2314c8022eee5a913787dcdf9f72e$__9063fe16474d90611c3d90869086908690600401614f33565b5f6040518083038186803b158015611c53575f80fd5b505af4158015611c65573d5f803e3d5ffd5b5050505061141b8383836141be565b611c7c613060565b6001600160a01b0383165f908152600a602052604090819020805460ff19166001179055517fb71b62345f0de74ec86ca2292697c77744d05ce6534f9b8866cefdf5fa3152b29061101390859085908590614f33565b611cde848484846130b8565b5050505050565b611ced613060565b611d0083630c04a8a160e41b8484611adb565b61141b83838361216a565b611d13613060565b611d2687631592ca1b60e31b8484611adb565b611d318683836122e8565b60405163f4d5bb9360e01b815273__$bda5499a8fa48831c49ec55d96dbc8aee1$__9063f4d5bb9390611d70908a908a908a90889088906004016151e7565b5f6040518083038186803b158015611d86575f80fd5b505af4158015611d98573d5f803e3d5ffd5b505050505f5b838110156110f857611dd7858583818110611dbb57611dbb615226565b9050602002016020810190611dd09190614735565b8484613092565b600101611d9e565b5f6112978261223d565b6001600160a01b0382165f9081526002602090815260408083206001600160e01b03198516845290915290205460ff1692915050565b611e27613060565b611e305f61420a565b565b611e3a613060565b6001600160a01b0383165f9081526007602052604090819020805460ff19166001179055517f62dd88c5ecfa60713a657640ebec4de26fc1aefa4afdb24e6d15a124fce727799061101390859085908590614f33565b5f611e99612223565b905090565b63ffffffff165f908152600c602052604090205460ff1690565b611ec0613060565b600180546001600160a01b038381166001600160a01b0319831681179093556040519116919082907f90cc2f570a6eb594b1580ea3e41247d2d73a55281889e86bd4ec2fc29c7e62d6905f90a35050565b6001600160a01b03165f9081526003602052604090205460ff1690565b611f36613060565b5f8390505f816001600160a01b03166338d52e0f6040518163ffffffff1660e01b8152600401602060405180830381865afa158015611f77573d5f803e3d5ffd5b505050506040513d601f19601f82011682018060405250810190611f9b919061523a565b905084611fb181636e553f6560e01b8787611adb565b611fc486632d182be560e21b8787611adb565b611fd786635d043b2960e11b8787611adb565b611fea8663983c676d60e01b8787611adb565b611ffd86638dbdbe6d60e01b8787611adb565b61200f8662b4d4cb60e11b8787611adb565b61202286630b8b4a6160e21b8787611adb565b61203586633ea0e43760e11b8787611adb565b612048866319792d1d60e11b8787611adb565b61205b866385b77f4560e01b8787611adb565b61206e8663a8abe90560e01b8787611adb565b61208186630d1e666760e01b8787611adb565b6120948663036bdad760e61b8787611adb565b6120a786633786fe4360e11b8787611adb565b6120ba8663d46a0a4f60e01b8787611adb565b6120cd8663745400c960e01b8787611adb565b6120e08663dd9cc05360e01b8787611adb565b6120f386630332eee160e11b8787611adb565b61210686634c267cb160e11b8787611adb565b6121118686866122e8565b61211c818686613092565b612127828686613092565b7fd2851df39115d63968e90113e8b3a96f13e33ac4c2e5a9caa1afeffe59e5574886868660405161215a93929190614f33565b60405180910390a1505050505050565b612172613060565b6001600160a01b0383165f9081526005602052604090819020805460ff19166001179055517fad90e2570fc4fe9f7437be3188d5c791c6662892d31731992aa88f5c876219839061101390859085908590614f33565b6121d0613060565b6001600160a01b0383165f9081526008602052604090819020805460ff19169055517f1212f8ddb39de8e1a339460c95752d61100723efeaa34ccd94bca94393f409389061101390859085908590614f33565b5f8061222d614264565b546001600160a01b031692915050565b5f73__$8a78b2314c8022eee5a913787dcdf9f72e$__63c52046de6040518163ffffffff1660e01b8152600401602060405180830381865af4158015612285573d5f803e3d5ffd5b505050506040513d601f19601f820116820180604052508101906122a99190614f60565b6122b1575f80fd5b604051633f60482560e21b815273__$8a78b2314c8022eee5a913787dcdf9f72e$__9063fd812094906112589085906004016149ba565b6122f0613060565b6001600160a01b0383165f9081526009602052604090819020805460ff19166001179055517f628a44970c0e450415e3ae74334ea44f3307b74dbf677a1371190242bf2f35899061101390859085908590614f33565b61234e613060565b73__$8a78b2314c8022eee5a913787dcdf9f72e$__63c52046de6040518163ffffffff1660e01b8152600401602060405180830381865af4158015612395573d5f803e3d5ffd5b505050506040513d601f19601f820116820180604052508101906123b99190614f60565b6123c1575f80fd5b604051631870a1c360e11b815273__$8a78b2314c8022eee5a913787dcdf9f72e$__906330e143869061240290899089908990899089908990600401615255565b5f6040518083038186803b158015612418575f80fd5b505af415801561242a573d5f803e3d5ffd5b505050506124398683836141be565b505050505050565b5f61244a614288565b805490915060ff600160401b82041615906001600160401b03165f811580156124705750825b90505f826001600160401b0316600114801561248b5750303b155b905081158015612499575080155b156124b75760405163f92ee8a960e01b815260040160405180910390fd5b84546001600160401b031916600117855583156124e057845460ff60401b1916600160401b1785555b6124e9336142ac565b5f80878060200190518101906124ff919061529c565b9150915061250c81611020565b61251581611eb8565b61251e82612ef8565b5050831561243957845460ff60401b19168555604051600181527fc7f505b2f371ae2175ee4913f4499e1f2633a7b5936321eed1cdaeb6115181d29060200161215a565b61256a613060565b6001600160a01b0383165f9081526006602052604090819020805460ff19169055517f3097928509c53a2dab9500431201d82b0d756e8f890fd01f4ae6b33b45687ea49061101390859085908590614f33565b6040516351097a3360e01b81525f9073__$bda5499a8fa48831c49ec55d96dbc8aee1$__906351097a33906125f69085906004016149ba565b602060405180830381865af4158015612611573d5f803e3d5ffd5b505050506040513d601f19601f82011682018060405250810190611297919061523a565b6060816001600160401b0381111561264f5761264f614c7c565b60405190808252806020026020018201604052801561268257816020015b606081526020019060019003908161266d5790505b5090505f5b82811015612774575f80308686858181106126a4576126a4615226565b90506020028101906126b691906152d4565b6040516126c4929190615316565b5f60405180830381855af49150503d805f81146126fc576040519150601f19603f3d011682016040523d82523d5f602084013e612701565b606091505b50915091508161274c57604481511015612719575f80fd5b600481019050808060200190518101906127339190615325565b60405162461bcd60e51b81526004016115bb9190614beb565b8084848151811061275f5761275f615226565b60209081029190910101525050600101612687565b5092915050565b612783613060565b60405163565ced0b60e11b815273__$f9fa4d4e532bfe6aeff5ab3d328fd72bc7$__9063acb9da16906127c0908790879087908790600401615369565b5f6040518083038186803b1580156127d6575f80fd5b505af41580156127e8573d5f803e3d5ffd5b505050506127f78383836122e8565b50505050565b612805613060565b63ffffffff83165f908152600c602052604090819020805460ff19169055517f1032cb8f3d65d1f2761007cb8b0ca5365671ee20a8efa21ecae1a8dfbca5b7a59061101390859085908590615395565b6001600160a01b03165f9081526006602052604090205460ff1690565b61287a613060565b600d805460ff19168415151790556040517f50454d9d0025a28a39cac5a4b3f3101d29b6e413fbb64f75fb42eb6837b0771890611013908590859085906153b4565b600d545f9060ff16806112975750506001600160a01b03165f9081526005602052604090205460ff1690565b60405163c226c4bb60e01b81525f9073__$bda5499a8fa48831c49ec55d96dbc8aee1$__9063c226c4bb906112589085906004016149ba565b6001600160a01b03165f9081526007602052604090205460ff1690565b73__$c49bf44a3286d065a371d69fbc4a0c0f99$__63c52046de6040518163ffffffff1660e01b8152600401602060405180830381865af4158015612985573d5f803e3d5ffd5b505050506040513d601f19601f820116820180604052508101906129a99190614f60565b6129ec5760405162461bcd60e51b815260206004820152601460248201527315995b1bdc98531a58881b9bdd081b1a5b9ad95960621b60448201526064016115bb565b5f8054604051636267722d60e11b81526001600160a01b0391821660048201528982166024820152888216604482015287821660648201529086166084820152819073__$c49bf44a3286d065a371d69fbc4a0c0f99$__9063c4cee45a9060a4016040805180830381865af4158015612a67573d5f803e3d5ffd5b505050506040513d601f19601f82011682018060405250810190612a8b91906153cf565b915091505f80612a9d8b5f875f613fce565b91509150612aab8282614058565b5f5460405163fe36c22960e01b81526001600160a01b0391821660048201528c821660248201528a8216604482015290891660648201526084810188905260a4810187905260c4810185905260e4810184905273__$c49bf44a3286d065a371d69fbc4a0c0f99$__9063fe36c22990610104015f6040518083038186803b158015612b34575f80fd5b505af4158015612b46573d5f803e3d5ffd5b505050505050505050505050505050565b61141b8383835f611515565b612b6b613060565b6001600160a01b0384165f9081526002602090815260408083206001600160e01b03198716845290915290819020805460ff19169055517f37ea10f2d08f5a9803dfcd5abf3cfc7b0d6fcdf5fcbc36be9ea5a0b53d9a4d9b90611b799086908690869086906151b3565b612bdd613060565b604051634a1c4b1960e11b815273__$bda5499a8fa48831c49ec55d96dbc8aee1$__906394389632906111da90869086908690600401614f33565b612c20613060565b60405163e2873b6d60e01b815273__$f9fa4d4e532bfe6aeff5ab3d328fd72bc7$__9063e2873b6d906111da90869086908690600401614f33565b612c63613060565b63ffffffff83165f908152600c602052604090819020805460ff19166001179055517f9fc3f914bc6770a3679a6a9fdb4620f0566db329f178fb033fc0c6dcce1b693d9061101390859085908590615395565b5f805f805f805f8073__$8a78b2314c8022eee5a913787dcdf9f72e$__63c52046de6040518163ffffffff1660e01b8152600401602060405180830381865af4158015612d05573d5f803e3d5ffd5b505050506040513d601f19601f82011682018060405250810190612d299190614f60565b612d31575f80fd5b60405163671816a760e01b815273__$8a78b2314c8022eee5a913787dcdf9f72e$__9063671816a790612d68908c906004016149ba565b61010060405180830381865af4158015612d84573d5f803e3d5ffd5b505050506040513d601f19601f82011682018060405250810190612da891906153f1565b97509750975097509750975097509750919395975091939597565b612dcb613060565b612dde83634701287760e11b8484611adb565b612de98383836122e8565b6001600160a01b0383165f908152600b602052604090819020805460ff19166001179055517f9efd66cbdaa05f6414ab9c4ae71d358b087e972c11874e7c3e9c7c79c61e23aa9061101390859085908590614f33565b612e47613060565b61141b838383613092565b6001600160a01b03165f9081526008602052604090205460ff1690565b612e77613060565b612e8a8363617ba03760e01b8484611adb565b61141083631a4ca37b60e21b8484611adb565b612ea5613060565b6001600160a01b0383165f908152600a602052604090819020805460ff19169055517ff9a414ea26a64e12a2abdb23706ec196a42adeb564668fb73f46555fbd2336c29061101390859085908590614f33565b612f00613060565b6001600160a01b038116612f29575f604051631e4fbdf760e01b81526004016115bb91906149ba565b612f328161420a565b50565b604051637c23ab5560e11b81525f9073__$c49bf44a3286d065a371d69fbc4a0c0f99$__9063f84756aa906112589085906004016149ba565b612f76613060565b6001600160a01b0383165f9081526005602052604090819020805460ff19169055517f9ca3f065622f5f03f32b7157677a0e420c3a36ab45fd49f256ffebce3e3105879061101390859085908590614f33565b612fd1613060565b6001600160a01b0383165f9081526006602052604090819020805460ff19166001179055517fa8f9caaf4861720900294428e4ff34d37070c37afd26d96e6e4da75326d2c3ad9061101390859085908590614f33565b604051631f5df1eb60e31b81525f9073__$b1eadc77501473dd7d6b2fe89954bce60e$__9063faef8f58906112589085906004016149ba565b33613069612223565b6001600160a01b031614611e30573360405163118cdaa760e01b81526004016115bb91906149ba565b6130a58363a9059cbb60e01b8484611adb565b611d008363095ea7b360e01b8484611adb565b604080518082019091525f8152606060208201526130d4611e90565b6001600160a01b0316856001600160a01b03160315613fc6576130f685612855565b6131375760405162461bcd60e51b815260206004820152601260248201527114d95b99195c881b9bdd08185b1b1bddd95960721b60448201526064016115bb565b5f6131456004828587615472565b61314e91615499565b9050365f61315f8560048189615472565b600d5491935091505f9060ff168015613188575063095ea7b360e01b6001600160e01b03198516145b90505f6001600160e01b031985166317938e1360e01b14806131ba57506001600160e01b03198516630acb7f4b60e21b145b806131d557506001600160e01b0319851663611e2a2d60e11b145b9050811580156131e3575080155b1561328d576131f28986611de9565b61328d576131ff89611f11565b6132405760405162461bcd60e51b815260206004820152601260248201527115185c99d95d081b9bdd08185b1b1bddd95960721b60448201526064016115bb565b61324a8986611de9565b61328d5760405162461bcd60e51b815260206004820152601460248201527314d95b1958dd1bdc881b9bdd08185b1b1bddd95960621b60448201526064016115bb565b6001600160e01b031985166338ed173960e01b14806132bc57506001600160e01b03198516635c11d79560e01b145b1561332a57604051625e769d60e91b815273__$0e99dd572d354182f948ac1bae4d23aed1$__9063bced3a00906132f990879087906004016154cf565b5f6040518083038186803b15801561330f575f80fd5b505af4158015613321573d5f803e3d5ffd5b50505050613fc0565b633fb472a760e01b6001600160e01b031986160161337b57604051632c69e61160e11b815273__$0e99dd572d354182f948ac1bae4d23aed1$__906358d3cc22906132f990879087906004016154cf565b6301ae7f6d60e31b6001600160e01b03198616016133cc5760405163fdf3722360e01b815273__$0e99dd572d354182f948ac1bae4d23aed1$__9063fdf37223906132f990879087906004016154cf565b6347a7e7c160e01b6001600160e01b031986160161347657600d5460ff166134365760405162461bcd60e51b815260206004820152601e60248201527f53776170526f75746572303220726571756972657320616e794173736574000060448201526064016115bb565b600d546040516331dc39a360e01b815273__$0e99dd572d354182f948ac1bae4d23aed1$__916331dc39a3916132f9918891889160ff16906004016154e2565b6356fa634560e01b6001600160e01b03198616016134d1576134cc84848080601f0160208091040260200160405190810160405280939291908181526020018383808284375f920191909152506142bd92505050565b613fc0565b63f6a1584d60e01b6001600160e01b0319861601613527576134cc84848080601f0160208091040260200160405190810160405280939291908181526020018383808284375f920191909152506142fa92505050565b6303fb575f60e41b6001600160e01b031986160161357d576134cc84848080601f0160208091040260200160405190810160405280939291908181526020018383808284375f9201919091525061436592505050565b639e845fc960e01b6001600160e01b03198616016135d3576134cc84848080601f0160208091040260200160405190810160405280939291908181526020018383808284375f920191909152506143d292505050565b6325b35c8560e21b6001600160e01b0319861601613629576134cc84848080601f0160208091040260200160405190810160405280939291908181526020018383808284375f9201919091525061445c92505050565b61363285614480565b156137405773__$8a78b2314c8022eee5a913787dcdf9f72e$__63c52046de6040518163ffffffff1660e01b8152600401602060405180830381865af415801561367e573d5f803e3d5ffd5b505050506040513d601f19601f820116820180604052508101906136a29190614f60565b6136aa575f80fd5b60405163147a100f60e01b81525f9073__$8a78b2314c8022eee5a913787dcdf9f72e$__9063147a100f906136e3908d906004016149ba565b5f60405180830381865af41580156136fd573d5f803e3d5ffd5b505050506040513d5f823e601f3d908101601f191682016040526137249190810190615507565b905080515f1461373a5760018752602087018190525b50613fc0565b6391aac09b60e01b6001600160e01b0319861601613796576134cc84848080601f0160208091040260200160405190810160405280939291908181526020018383808284375f920191909152506144eb92505050565b633474b59f60e21b6001600160e01b03198616016137ec576134cc84848080601f0160208091040260200160405190810160405280939291908181526020018383808284375f9201919091525061450c92505050565b637242419360e01b6001600160e01b0319861601613842576134cc84848080601f0160208091040260200160405190810160405280939291908181526020018383808284375f9201919091525061452e92505050565b637f4b2b3560e11b6001600160e01b0319861601613898576134cc84848080601f0160208091040260200160405190810160405280939291908181526020018383808284375f9201919091525061455092505050565b6312e7d41b60e21b6001600160e01b03198616016138ee576134cc84848080601f0160208091040260200160405190810160405280939291908181526020018383808284375f9201919091525061450c92505050565b6322fbc4d760e11b6001600160e01b0319861601613944576134cc84848080601f0160208091040260200160405190810160405280939291908181526020018383808284375f9201919091525061450c92505050565b6367c3989360e01b6001600160e01b031986160161399a576134cc84848080601f0160208091040260200160405190810160405280939291908181526020018383808284375f920191909152506144eb92505050565b63415f1bc960e11b6001600160e01b03198616016139f0576134cc84848080601f0160208091040260200160405190810160405280939291908181526020018383808284375f9201919091525061450c92505050565b636686d2e360e11b6001600160e01b0319861601613a46576134cc84848080601f0160208091040260200160405190810160405280939291908181526020018383808284375f9201919091525061450c92505050565b637a4880bb60e01b6001600160e01b0319861601613a9c576134cc84848080601f0160208091040260200160405190810160405280939291908181526020018383808284375f9201919091525061450c92505050565b63575416fb60e01b6001600160e01b0319861601613af2576134cc84848080601f0160208091040260200160405190810160405280939291908181526020018383808284375f920191909152506144eb92505050565b6001600160e01b03198516630d1e666760e01b1480613b2157506001600160e01b0319851663036bdad760e61b145b80613b3c57506001600160e01b03198516633786fe4360e11b145b80613b5757506001600160e01b0319851663d46a0a4f60e01b145b80613b7257506001600160e01b0319851663745400c960e01b145b80613b8d57506001600160e01b0319851663dd9cc05360e01b145b80613ba857506001600160e01b03198516630332eee160e11b145b80613bc357506001600160e01b03198516634c267cb160e11b145b613fc057630a6d35e560e31b6001600160e01b0319861601613cce5773__$bda5499a8fa48831c49ec55d96dbc8aee1$__63c52046de6040518163ffffffff1660e01b8152600401602060405180830381865af4158015613c26573d5f803e3d5ffd5b505050506040513d601f19601f82011682018060405250810190613c4a9190614f60565b613c8a5760405162461bcd60e51b815260206004820152601160248201527011db5e131a58881b9bdd081b1a5b9ad959607a1b60448201526064016115bb565b600d54604051633bf8b9bb60e11b815273__$bda5499a8fa48831c49ec55d96dbc8aee1$__916377f17376916132f9918d918991899160ff9091169060040161554c565b6338fed78960e11b6001600160e01b0319861601613cf1576134cc898585614573565b6001600160e01b031985166317938e1360e01b1480613d2057506001600160e01b03198516630acb7f4b60e21b145b80613d3b57506001600160e01b0319851663611e2a2d60e11b145b15613e3a5773__$f9fa4d4e532bfe6aeff5ab3d328fd72bc7$__63c52046de6040518163ffffffff1660e01b8152600401602060405180830381865af4158015613d87573d5f803e3d5ffd5b505050506040513d601f19601f82011682018060405250810190613dab9190614f60565b613df65760405162461bcd60e51b815260206004820152601c60248201527b121e5c195c98dbdc9955985d5b1d131a58881b9bdd081b1a5b9ad95960221b60448201526064016115bb565b600d5460405163f42001eb60e01b815273__$f9fa4d4e532bfe6aeff5ab3d328fd72bc7$__9163f42001eb916132f99189918e918a918a9160ff1690600401615583565b6001600160e01b03198516638a85708360e01b1480613e6957506001600160e01b0319851663d20191bd60e01b145b80613e8457506001600160e01b03198516631792c03f60e11b145b15613f7c5773__$b1eadc77501473dd7d6b2fe89954bce60e$__63c52046de6040518163ffffffff1660e01b8152600401602060405180830381865af4158015613ed0573d5f803e3d5ffd5b505050506040513d601f19601f82011682018060405250810190613ef49190614f60565b613f385760405162461bcd60e51b8152602060048201526015602482015274131a59da1d195c931a58881b9bdd081b1a5b9ad959605a1b60448201526064016115bb565b600d5460405163f42001eb60e01b815273__$b1eadc77501473dd7d6b2fe89954bce60e$__9163f42001eb916132f99189918e918a918a9160ff1690600401615583565b60405162461bcd60e51b81526020600482015260196024820152782ab735b737bbb710333ab731ba34b7b71039b2b632b1ba37b960391b60448201526064016115bb565b50505050505b949350505050565b600154604051635229073f60e01b81525f916060916001600160a01b0390911690635229073f906140099089908990899089906004016155cb565b5f604051808303815f875af1158015614024573d5f803e3d5ffd5b505050506040513d5f823e601f3d908101601f1916820160405261404b919081019061561e565b9150915094509492505050565b8161406557805160208201fd5b5050565b5f8151600181111561407d5761407d615538565b036140855750565b60018151600181111561409a5761409a615538565b0361418c5773__$8a78b2314c8022eee5a913787dcdf9f72e$__63c52046de6040518163ffffffff1660e01b8152600401602060405180830381865af41580156140e6573d5f803e3d5ffd5b505050506040513d601f19601f8201168201806040525081019061410a9190614f60565b614112575f80fd5b602081015160405163321b790760e21b815273__$8a78b2314c8022eee5a913787dcdf9f72e$__9163c86de41c9161414d9190600401614beb565b602060405180830381865af4158015614168573d5f803e3d5ffd5b505050506040513d601f19601f82011682018060405250810190614065919061566b565b8051600181111561419f5761419f615538565b6040516306c5503560e31b815260ff90911660048201526024016115bb565b6141d18363559ec80d60e01b8484611adb565b6141e48363a03d55e360e01b8484611adb565b6141f78363692652c560e11b8484611adb565b61141b83635313efb360e11b8484611adb565b5f614213614264565b80546001600160a01b038481166001600160a01b031983168117845560405193945091169182907f8be0079c531659141344cd1fd0a4f28419497f9722a3daafe3b4186f6b6457e0905f90a3505050565b7f9016d09d72d40fdae2fd8ceac6b6234c7706214fd39c1cd1e609a0528c19930090565b7ff0c57e16840df040f15088dc2f81fe391c3923bec73e23a9662efc9c229c6a0090565b6142b46146db565b612f3281614700565b5f818060200190518101906142d29190615682565b5090506142de81612e52565b6140655760405162461bcd60e51b81526004016115bb906156ae565b5f8180602001905181019061430f9190615682565b50905061431b81611102565b6140655760405162461bcd60e51b815260206004820152601b60248201527a105c1c1c9bdd99481859191c995cdcc81b9bdd08185b1b1bddd959602a1b60448201526064016115bb565b5f8180602001905181019061437a9190615682565b5090506143868161117a565b6140655760405162461bcd60e51b815260206004820152601e60248201527f44656c65676174696f6e2061646472657373206e6f7420616c6c6f776564000060448201526064016115bb565b5f80828060200190518101906143e891906156e0565b5092505091506143f7826128bc565b6144375760405162461bcd60e51b8152602060048201526011602482015270151bdad95b881b9bdd08185b1b1bddd959607a1b60448201526064016115bb565b61444081612921565b61141b5760405162461bcd60e51b81526004016115bb906156ae565b5f80828060200190518101906144729190615726565b92505091506143f7826128bc565b5f6001600160e01b0319821663559ec80d60e01b14806144b057506001600160e01b0319821663a03d55e360e01b145b806144cb57506001600160e01b0319821663692652c560e11b145b8061129757506001600160e01b03198216635313efb360e11b1492915050565b5f818060200190518101906145009190615766565b9150506142de81612921565b5f81806020019051810190614521919061578a565b509150506142de81612921565b5f8180602001905181019061454391906157c0565b925050506142de81612921565b5f8180602001905181019061456591906157ec565b50925050506142de81612921565b61457c83610f9b565b6145c55760405162461bcd60e51b815260206004820152601a60248201527910d0d514081b595cdcd95b99d95c881b9bdd08185b1b1bddd95960321b60448201526064016115bb565b5f80806145d484860186615835565b505050935093509350506145e783611e9e565b6146325760405162461bcd60e51b815260206004820152601c60248201527b10d0d5140819195cdd1a5b985d1a5bdb881b9bdd08185b1b1bddd95960221b60448201526064016115bb565b61463b816128bc565b6146855760405162461bcd60e51b815260206004820152601b60248201527a10d0d51408189d5c9b881d1bdad95b881b9bdd08185b1b1bddd959602a1b60448201526064016115bb565b8161468f81612921565b6112025760405162461bcd60e51b815260206004820152601f60248201527f43435450206d696e7420726563697069656e74206e6f7420616c6c6f7765640060448201526064016115bb565b6146e3614708565b611e3057604051631afcd79f60e31b815260040160405180910390fd5b612f006146db565b5f614711614288565b54600160401b900460ff16919050565b6001600160a01b0381168114612f32575f80fd5b5f60208284031215614745575f80fd5b813561475081614721565b9392505050565b5f8083601f840112614767575f80fd5b5081356001600160401b0381111561477d575f80fd5b602083019150836020828501011115614794575f80fd5b9250929050565b5f805f604084860312156147ad575f80fd5b83356147b881614721565b925060208401356001600160401b038111156147d2575f80fd5b6147de86828701614757565b9497909650939450505050565b5f805f80606085870312156147fe575f80fd5b843561480981614721565b9350602085013561481981614721565b925060408501356001600160401b03811115614833575f80fd5b61483f87828801614757565b95989497509550505050565b803561ffff8116811461485c575f80fd5b919050565b5f805f805f60808688031215614875575f80fd5b853561488081614721565b9450602086013561489081614721565b935061489e6040870161484b565b925060608601356001600160401b038111156148b8575f80fd5b6148c488828901614757565b969995985093965092949392505050565b5f805f80606085870312156148e8575f80fd5b84356148f381614721565b935060208501356001600160401b0381111561490d575f80fd5b61491987828801614757565b9598909750949560400135949350505050565b5f805f805f805f60e0888a031215614942575f80fd5b873561494d81614721565b9650602088013561495d81614721565b955060408801359450606088013561497481614721565b9350608088013561498481614721565b9699959850939692959460a0840135945060c09093013592915050565b5f602082840312156149b1575f80fd5b6147508261484b565b6001600160a01b0391909116815260200190565b5f805f805f805f60c0888a0312156149e4575f80fd5b87356149ef81614721565b965060208801356149ff81614721565b95506040880135614a0f81614721565b9450606088013593506080880135925060a08801356001600160401b03811115614a37575f80fd5b614a438a828b01614757565b989b979a50959850939692959293505050565b80356001600160e01b03198116811461485c575f80fd5b5f805f8060608587031215614a80575f80fd5b8435614a8b81614721565b935061481960208601614a56565b5f8083601f840112614aa9575f80fd5b5081356001600160401b03811115614abf575f80fd5b6020830191508360208260051b8501011115614794575f80fd5b5f805f805f805f60a0888a031215614aef575f80fd5b8735614afa81614721565b96506020880135614b0a81614721565b95506040880135614b1a81614721565b945060608801356001600160401b03811115614b34575f80fd5b614b408a828b01614a99565b90955093505060808801356001600160401b03811115614a37575f80fd5b5f8060408385031215614b6f575f80fd5b8235614b7a81614721565b9150614b8860208401614a56565b90509250929050565b803563ffffffff8116811461485c575f80fd5b5f60208284031215614bb4575f80fd5b61475082614b91565b5f81518084528060208401602086015e5f602082860101526020601f19601f83011685010191505092915050565b602081525f6147506020830184614bbd565b5f805f805f8060a08789031215614c12575f80fd5b8635614c1d81614721565b95506020870135614c2d81614721565b94506040870135614c3d81614721565b93506060870135925060808701356001600160401b03811115614c5e575f80fd5b614c6a89828a01614757565b979a9699509497509295939492505050565b634e487b7160e01b5f52604160045260245ffd5b604051606081016001600160401b0381118282101715614cb257614cb2614c7c565b60405290565b604051601f8201601f191681016001600160401b0381118282101715614ce057614ce0614c7c565b604052919050565b5f6001600160401b03821115614d0057614d00614c7c565b50601f01601f191660200190565b5f82601f830112614d1d575f80fd5b8135614d30614d2b82614ce8565b614cb8565b818152846020838601011115614d44575f80fd5b816020850160208301375f918101602001919091529392505050565b5f60208284031215614d70575f80fd5b81356001600160401b03811115614d85575f80fd5b613fc684828501614d0e565b5f8060208385031215614da2575f80fd5b82356001600160401b03811115614db7575f80fd5b614dc385828601614a99565b90969095509350505050565b5f602082016020835280845180835260408501915060408160051b8601019250602086015f5b82811015614e2657603f19878603018452614e11858351614bbd565b94506020938401939190910190600101614df5565b50929695505050505050565b5f805f60408486031215614e44575f80fd5b6147b884614b91565b8015158114612f32575f80fd5b5f805f60408486031215614e6c575f80fd5b83356147b881614e4d565b5f805f805f805f60e0888a031215614e8d575f80fd5b8735614e9881614721565b96506020880135614ea881614721565b95506040880135614eb881614721565b94506060880135614ec881614721565b93506080880135925060a0880135915060c08801356001600160401b03811115614ef0575f80fd5b614efc8a828b01614d0e565b91505092959891949750929550565b81835281816020850137505f828201602090810191909152601f909101601f19169091010190565b6001600160a01b03841681526040602082018190525f90614f579083018486614f0b565b95945050505050565b5f60208284031215614f70575f80fd5b815161475081614e4d565b5f805f60608486031215614f8d575f80fd5b5050815160208301516040909301519094929350919050565b6001600160a01b038516815261ffff841660208201526060604082018190525f90614fd49083018486614f0b565b9695505050505050565b5f614feb614d2b84614ce8565b9050828152838383011115614ffe575f80fd5b8282602083015e5f602084830101529392505050565b5f82601f830112615023575f80fd5b61475083835160208501614fde565b5f60208284031215615042575f80fd5b81516001600160401b03811115615057575f80fd5b820160608185031215615068575f80fd5b615070614c90565b81516001600160401b03811115615085575f80fd5b61509186828501615014565b82525060208201516150a281614721565b602082015260408201516001600160401b038111156150bf575f80fd5b6150cb86828501615014565b604083015250949350505050565b5f805f805f60a086880312156150ed575f80fd5b85516150f881614e4d565b602087015190955061510981614e4d565b604087015190945061511a81614721565b606087015190935061512b81614721565b60809690960151949793965091949392915050565b6001600160a01b038881168252878116602083015286166040820152606081018590526080810184905260c060a082018190525f906151829083018486614f0b565b9998505050505050505050565b5f600182016151ac57634e487b7160e01b5f52601160045260245ffd5b5060010190565b6001600160a01b03851681526001600160e01b0319841660208201526060604082018190525f90614fd49083018486614f0b565b6001600160a01b0386811682528581166020830152841660408201526080606082018190525f9061521b9083018486614f0b565b979650505050505050565b634e487b7160e01b5f52603260045260245ffd5b5f6020828403121561524a575f80fd5b815161475081614721565b6001600160a01b0387811682528681166020830152851660408201526060810184905260a0608082018190525f906152909083018486614f0b565b98975050505050505050565b5f80604083850312156152ad575f80fd5b82516152b881614721565b60208401519092506152c981614721565b809150509250929050565b5f808335601e198436030181126152e9575f80fd5b8301803591506001600160401b03821115615302575f80fd5b602001915036819003821315614794575f80fd5b818382375f9101908152919050565b5f60208284031215615335575f80fd5b81516001600160401b0381111561534a575f80fd5b8201601f8101841361535a575f80fd5b613fc684825160208401614fde565b6001600160a01b038581168252841660208201526060604082018190525f90614fd49083018486614f0b565b63ffffffff84168152604060208201525f614f57604083018486614f0b565b8315158152604060208201525f614f57604083018486614f0b565b5f80604083850312156153e0575f80fd5b505080516020909101519092909150565b5f805f805f805f80610100898b031215615409575f80fd5b885161541481614e4d565b60208a015190985061542581614e4d565b60408a015190975061543681614721565b60608a015190965061544781614721565b60808a015160a08b015160c08c015160e0909c01519a9d999c50979a91999098919650945092505050565b5f8085851115615480575f80fd5b8386111561548c575f80fd5b5050820193919092039150565b80356001600160e01b03198116906004841015612774576001600160e01b031960049490940360031b84901b1690921692915050565b602081525f613fc6602083018486614f0b565b604081525f6154f5604083018587614f0b565b90508215156020830152949350505050565b5f60208284031215615517575f80fd5b81516001600160401b0381111561552c575f80fd5b613fc684828501615014565b634e487b7160e01b5f52602160045260245ffd5b6001600160a01b03851681526060602082018190525f906155709083018587614f0b565b9050821515604083015295945050505050565b6001600160e01b0319861681526001600160a01b03851660208201526080604082018190525f906155b79083018587614f0b565b905082151560608301529695505050505050565b60018060a01b0385168152836020820152608060408201525f6155f16080830185614bbd565b90506002831061560f57634e487b7160e01b5f52602160045260245ffd5b82606083015295945050505050565b5f806040838503121561562f575f80fd5b825161563a81614e4d565b60208401519092506001600160401b03811115615655575f80fd5b61566185828601615014565b9150509250929050565b5f6020828403121561567b575f80fd5b5051919050565b5f8060408385031215615693575f80fd5b825161569e81614721565b6020939093015192949293505050565b602080825260189082015277149958d95a5d995c881b9bdd081dda1a5d195b1a5cdd195960421b604082015260600190565b5f805f80608085870312156156f3575f80fd5b84516156fe81614721565b60208601516040870151919550935061571681614721565b6060959095015193969295505050565b5f805f60608486031215615738575f80fd5b835161574381614721565b60208501516040860151919450925061575b81614721565b809150509250925092565b5f8060408385031215615777575f80fd5b825160208401519092506152c981614721565b5f805f6060848603121561579c575f80fd5b835160208501519093506157af81614721565b604085015190925061575b81614721565b5f805f606084860312156157d2575f80fd5b835160208501516040860151919450925061575b81614721565b5f805f80608085870312156157ff575f80fd5b845160208601516040870151919550935061581981614721565b606086015190925061582a81614721565b939692955090935050565b5f805f805f805f60e0888a03121561584b575f80fd5b8735965061585b60208901614b91565b955060408801359450606088013561587281614721565b93506080880135925060a0880135915061588e60c08901614b91565b90509295989194975092955056fea164736f6c634300081a000a","linkReferences":{"../guard/src/lib/CowSwapLib.sol":{"CowSwapLib":[{"start":5365,"length":20},{"start":6136,"length":20},{"start":6770,"length":20},{"start":7020,"length":20}]},"../guard/src/lib/GmxLib.sol":{"GmxLib":[{"start":5771,"length":20},{"start":7187,"length":20},{"start":8593,"length":20},{"start":10783,"length":20},{"start":11594,"length":20},{"start":12349,"length":20},{"start":16434,"length":20},{"start":16621,"length":20}]},"../guard/src/lib/HypercoreVaultLib.sol":{"HypercoreVaultLib":[{"start":5631,"length":20},{"start":11235,"length":20},{"start":12416,"length":20},{"start":16787,"length":20},{"start":16985,"length":20}]},"../guard/src/lib/LagoonLib.sol":{"LagoonLib":[{"start":5875,"length":20},{"start":6003,"length":20},{"start":7238,"length":20},{"start":7366,"length":20},{"start":7745,"length":20},{"start":7873,"length":20},{"start":8162,"length":20},{"start":8290,"length":20},{"start":9873,"length":20},{"start":10001,"length":20},{"start":10145,"length":20},{"start":10273,"length":20},{"start":12561,"length":20},{"start":12689,"length":20},{"start":14986,"length":20},{"start":15116,"length":20},{"start":17650,"length":20},{"start":17783,"length":20}]},"../guard/src/lib/LighterLib.sol":{"LighterLib":[{"start":6405,"length":20},{"start":7607,"length":20},{"start":13449,"length":20},{"start":17116,"length":20},{"start":17307,"length":20}]},"../guard/src/lib/UniswapLib.sol":{"UniswapLib":[{"start":14112,"length":20},{"start":14242,"length":20},{"start":14323,"length":20},{"start":14489,"length":20}]},"../guard/src/lib/VeloraLib.sol":{"VeloraLib":[{"start":7521,"length":20},{"start":11665,"length":20},{"start":11905,"length":20},{"start":12113,"length":20},{"start":13207,"length":20}]}}},"methodIdentifiers":{"allowApprovalDestination(address,string)":"98b3cc39","allowAsset(address,string)":"86b6dbe5","allowCallSite(address,bytes4,string)":"5e4ccace","allowDelegationApprovalDestination(address,string)":"63cc17f2","allowReceiver(address,string)":"72e548a9","allowSender(address,string)":"fa2c59c8","allowWithdrawDestination(address,string)":"5ace1d92","allowedApprovalDestinations(address)":"eb0de042","allowedAssets(address)":"a4c1cccb","allowedCCTPDestinations(uint32)":"7cac69c3","allowedCCTPMessengers(address)":"07605342","allowedCallSites(address,bytes4)":"a847cf4d","allowedDelegationApprovalDestinations(address)":"4b941268","allowedLagoonVaults(address)":"8fb4dff2","allowedReceivers(address)":"3cf20025","allowedSenders(address)":"fadbcf48","allowedTargets(address)":"b8fe8d5f","allowedWithdrawDestinations(address)":"07ef00cf","anyAsset()":"87301608","avatar()":"5aef7de6","callSiteCount()":"a9fc3d4f","getGovernanceAddress()":"73252494","getInternalVersion()":"fdedfa27","getLagoonSettlementConfig(address)":"4ecd74d6","getLagoonSettlementCooldownConfig(address)":"307990e2","getLagoonSettlementSafetyConfig(address)":"e7c292a1","getTradingStrategyModuleVersion()":"9e4a83cf","gmxOrderVaults(address)":"a86ddc57","isAllowedApprovalDestination(address)":"1d49039c","isAllowedAsset(address)":"c537bed0","isAllowedCCTPDestination(uint32)":"748fca46","isAllowedCCTPMessenger(address)":"0411fb8e","isAllowedCallSite(address,bytes4)":"713ebf3b","isAllowedCowSwap(address)":"333f22e8","isAllowedDelegationApprovalDestination(address)":"2dc32a61","isAllowedGMXMarket(address)":"2e31e9c6","isAllowedGMXRouter(address)":"cbdb1dcf","isAllowedLagoonVault(address)":"6fd7fdef","isAllowedLighter(address)":"faef8f58","isAllowedLighterAssetIndex(uint16)":"4f97d805","isAllowedReceiver(address)":"d075f9bb","isAllowedSender(address)":"be8c97b0","isAllowedTarget(address)":"78addb48","isAllowedVeloraSwapper(address)":"f84756aa","isAllowedWithdrawDestination(address)":"efb47bff","multicall(bytes[])":"ac9650d8","owner()":"8da5cb5b","performCall(address,bytes)":"d2f73e3d","performCall(address,bytes,uint256)":"486295dc","removeApprovalDestination(address,string)":"04a3ba25","removeAsset(address,string)":"f901dc33","removeCCTPDestination(uint32,string)":"ba44ad41","removeCallSite(address,bytes4,string)":"d7334c9d","removeDelegationApprovalDestination(address,string)":"f259a073","removeGMXMarket(address,string)":"4d3d31ca","removeHypercoreVault(address,string)":"e2873b6d","removeReceiver(address,string)":"2d12d788","removeSender(address,string)":"a67e1f54","removeWithdrawDestination(address,string)":"8c2fdf9e","renounceOwnership()":"715018a6","setAnyAssetAllowed(bool,string)":"c2e657ae","setAvatar(address)":"086cfca8","setTarget(address)":"776d1a01","setUp(bytes)":"a4f9edbf","swapAndValidateCowSwap(address,address,bytes32,address,address,uint256,uint256)":"4acf884d","swapAndValidateVelora(address,address,address,address,uint256,uint256,bytes)":"d078377c","target()":"d4b83992","transferOwnership(address)":"f2fde38b","validateCall(address,address,bytes)":"6d5025f1","whitelistAaveV3(address,string)":"f20e85e0","whitelistCCTP(address,string)":"ec011440","whitelistCCTPDestination(uint32,string)":"e6f32c51","whitelistCoreWriter(address,address,string)":"acb9da16","whitelistCowSwap(address,address,string)":"1047789e","whitelistERC4626(address,string)":"86a6ae15","whitelistGMX(address,address,address,address[],string)":"6e3de202","whitelistGMXMarket(address,string)":"d7581509","whitelistHypercoreVault(address,string)":"2de905bc","whitelistLagoon(address,string)":"5e6afe4d","whitelistLagoonWithSettlementLimit(address,address,address,uint256,string)":"a2a7c02f","whitelistLagoonWithSettlementLimitAndCooldown(address,address,address,uint256,uint256,string)":"5c5c06d2","whitelistLighter(address,address,uint16,string)":"408694e3","whitelistToken(address,string)":"ee5462cc","whitelistTokenForDelegation(address,string)":"6d9a1423","whitelistUniswapV2Router(address,string)":"3ea35551","whitelistUniswapV3Router(address,string)":"34ec8d7e","whitelistVelora(address,address,string)":"4efbad39"},"id":43}