{"abi":[{"type":"constructor","inputs":[{"name":"_owner","type":"address","internalType":"address"},{"name":"_target","type":"address","internalType":"address"}],"stateMutability":"nonpayable"},{"type":"function","name":"allowApprovalDestination","inputs":[{"name":"destination","type":"address","internalType":"address"},{"name":"notes","type":"string","internalType":"string"}],"outputs":[],"stateMutability":"nonpayable"},{"type":"function","name":"allowAsset","inputs":[{"name":"asset","type":"address","internalType":"address"},{"name":"notes","type":"string","internalType":"string"}],"outputs":[],"stateMutability":"nonpayable"},{"type":"function","name":"allowCallSite","inputs":[{"name":"target","type":"address","internalType":"address"},{"name":"selector","type":"bytes4","internalType":"bytes4"},{"name":"notes","type":"string","internalType":"string"}],"outputs":[],"stateMutability":"nonpayable"},{"type":"function","name":"allowDelegationApprovalDestination","inputs":[{"name":"destination","type":"address","internalType":"address"},{"name":"notes","type":"string","internalType":"string"}],"outputs":[],"stateMutability":"nonpayable"},{"type":"function","name":"allowReceiver","inputs":[{"name":"receiver","type":"address","internalType":"address"},{"name":"notes","type":"string","internalType":"string"}],"outputs":[],"stateMutability":"nonpayable"},{"type":"function","name":"allowSender","inputs":[{"name":"sender","type":"address","internalType":"address"},{"name":"notes","type":"string","internalType":"string"}],"outputs":[],"stateMutability":"nonpayable"},{"type":"function","name":"allowWithdrawDestination","inputs":[{"name":"destination","type":"address","internalType":"address"},{"name":"notes","type":"string","internalType":"string"}],"outputs":[],"stateMutability":"nonpayable"},{"type":"function","name":"allowedApprovalDestinations","inputs":[{"name":"destination","type":"address","internalType":"address"}],"outputs":[{"name":"allowed","type":"bool","internalType":"bool"}],"stateMutability":"view"},{"type":"function","name":"allowedAssets","inputs":[{"name":"token","type":"address","internalType":"address"}],"outputs":[{"name":"allowed","type":"bool","internalType":"bool"}],"stateMutability":"view"},{"type":"function","name":"allowedCCTPDestinations","inputs":[{"name":"domain","type":"uint32","internalType":"uint32"}],"outputs":[{"name":"allowed","type":"bool","internalType":"bool"}],"stateMutability":"view"},{"type":"function","name":"allowedCCTPMessengers","inputs":[{"name":"messenger","type":"address","internalType":"address"}],"outputs":[{"name":"allowed","type":"bool","internalType":"bool"}],"stateMutability":"view"},{"type":"function","name":"allowedCallSites","inputs":[{"name":"target","type":"address","internalType":"address"},{"name":"selector","type":"bytes4","internalType":"bytes4"}],"outputs":[{"name":"allowed","type":"bool","internalType":"bool"}],"stateMutability":"view"},{"type":"function","name":"allowedDelegationApprovalDestinations","inputs":[{"name":"destination","type":"address","internalType":"address"}],"outputs":[{"name":"allowed","type":"bool","internalType":"bool"}],"stateMutability":"view"},{"type":"function","name":"allowedLagoonVaults","inputs":[{"name":"destination","type":"address","internalType":"address"}],"outputs":[{"name":"allowed","type":"bool","internalType":"bool"}],"stateMutability":"view"},{"type":"function","name":"allowedReceivers","inputs":[{"name":"receiver","type":"address","internalType":"address"}],"outputs":[{"name":"allowed","type":"bool","internalType":"bool"}],"stateMutability":"view"},{"type":"function","name":"allowedSenders","inputs":[{"name":"sender","type":"address","internalType":"address"}],"outputs":[{"name":"allowed","type":"bool","internalType":"bool"}],"stateMutability":"view"},{"type":"function","name":"allowedTargets","inputs":[{"name":"target","type":"address","internalType":"address"}],"outputs":[{"name":"allowed","type":"bool","internalType":"bool"}],"stateMutability":"view"},{"type":"function","name":"allowedWithdrawDestinations","inputs":[{"name":"destination","type":"address","internalType":"address"}],"outputs":[{"name":"allowed","type":"bool","internalType":"bool"}],"stateMutability":"view"},{"type":"function","name":"anyAsset","inputs":[],"outputs":[{"name":"","type":"bool","internalType":"bool"}],"stateMutability":"view"},{"type":"function","name":"avatar","inputs":[],"outputs":[{"name":"","type":"address","internalType":"address"}],"stateMutability":"view"},{"type":"function","name":"callSiteCount","inputs":[],"outputs":[{"name":"","type":"uint256","internalType":"uint256"}],"stateMutability":"view"},{"type":"function","name":"getGovernanceAddress","inputs":[],"outputs":[{"name":"","type":"address","internalType":"address"}],"stateMutability":"view"},{"type":"function","name":"getInternalVersion","inputs":[],"outputs":[{"name":"","type":"uint8","internalType":"uint8"}],"stateMutability":"pure"},{"type":"function","name":"getTradingStrategyModuleVersion","inputs":[],"outputs":[{"name":"","type":"string","internalType":"string"}],"stateMutability":"pure"},{"type":"function","name":"gmxOrderVaults","inputs":[{"name":"exchangeRouter","type":"address","internalType":"address"}],"outputs":[{"name":"","type":"address","internalType":"address"}],"stateMutability":"view"},{"type":"function","name":"isAllowedApprovalDestination","inputs":[{"name":"receiver","type":"address","internalType":"address"}],"outputs":[{"name":"","type":"bool","internalType":"bool"}],"stateMutability":"view"},{"type":"function","name":"isAllowedAsset","inputs":[{"name":"token","type":"address","internalType":"address"}],"outputs":[{"name":"","type":"bool","internalType":"bool"}],"stateMutability":"view"},{"type":"function","name":"isAllowedCCTPDestination","inputs":[{"name":"domain","type":"uint32","internalType":"uint32"}],"outputs":[{"name":"","type":"bool","internalType":"bool"}],"stateMutability":"view"},{"type":"function","name":"isAllowedCCTPMessenger","inputs":[{"name":"messenger","type":"address","internalType":"address"}],"outputs":[{"name":"","type":"bool","internalType":"bool"}],"stateMutability":"view"},{"type":"function","name":"isAllowedCallSite","inputs":[{"name":"target","type":"address","internalType":"address"},{"name":"selector","type":"bytes4","internalType":"bytes4"}],"outputs":[{"name":"","type":"bool","internalType":"bool"}],"stateMutability":"view"},{"type":"function","name":"isAllowedCowSwap","inputs":[{"name":"settlement","type":"address","internalType":"address"}],"outputs":[{"name":"","type":"bool","internalType":"bool"}],"stateMutability":"view"},{"type":"function","name":"isAllowedDelegationApprovalDestination","inputs":[{"name":"receiver","type":"address","internalType":"address"}],"outputs":[{"name":"","type":"bool","internalType":"bool"}],"stateMutability":"view"},{"type":"function","name":"isAllowedGMXMarket","inputs":[{"name":"market","type":"address","internalType":"address"}],"outputs":[{"name":"","type":"bool","internalType":"bool"}],"stateMutability":"view"},{"type":"function","name":"isAllowedGMXRouter","inputs":[{"name":"router","type":"address","internalType":"address"}],"outputs":[{"name":"","type":"bool","internalType":"bool"}],"stateMutability":"view"},{"type":"function","name":"isAllowedLagoonVault","inputs":[{"name":"vault","type":"address","internalType":"address"}],"outputs":[{"name":"","type":"bool","internalType":"bool"}],"stateMutability":"view"},{"type":"function","name":"isAllowedLighter","inputs":[{"name":"zkLighter","type":"address","internalType":"address"}],"outputs":[{"name":"","type":"bool","internalType":"bool"}],"stateMutability":"view"},{"type":"function","name":"isAllowedLighterAssetIndex","inputs":[{"name":"assetIndex","type":"uint16","internalType":"uint16"}],"outputs":[{"name":"","type":"bool","internalType":"bool"}],"stateMutability":"view"},{"type":"function","name":"isAllowedReceiver","inputs":[{"name":"receiver","type":"address","internalType":"address"}],"outputs":[{"name":"","type":"bool","internalType":"bool"}],"stateMutability":"view"},{"type":"function","name":"isAllowedSender","inputs":[{"name":"sender","type":"address","internalType":"address"}],"outputs":[{"name":"","type":"bool","internalType":"bool"}],"stateMutability":"view"},{"type":"function","name":"isAllowedTarget","inputs":[{"name":"target","type":"address","internalType":"address"}],"outputs":[{"name":"","type":"bool","internalType":"bool"}],"stateMutability":"view"},{"type":"function","name":"isAllowedVeloraSwapper","inputs":[{"name":"swapper","type":"address","internalType":"address"}],"outputs":[{"name":"","type":"bool","internalType":"bool"}],"stateMutability":"view"},{"type":"function","name":"isAllowedWithdrawDestination","inputs":[{"name":"receiver","type":"address","internalType":"address"}],"outputs":[{"name":"","type":"bool","internalType":"bool"}],"stateMutability":"view"},{"type":"function","name":"multicall","inputs":[{"name":"data","type":"bytes[]","internalType":"bytes[]"}],"outputs":[{"name":"results","type":"bytes[]","internalType":"bytes[]"}],"stateMutability":"payable"},{"type":"function","name":"owner","inputs":[],"outputs":[{"name":"","type":"address","internalType":"address"}],"stateMutability":"view"},{"type":"function","name":"performCall","inputs":[{"name":"target","type":"address","internalType":"address"},{"name":"callData","type":"bytes","internalType":"bytes"},{"name":"value","type":"uint256","internalType":"uint256"}],"outputs":[],"stateMutability":"payable"},{"type":"function","name":"performCall","inputs":[{"name":"target","type":"address","internalType":"address"},{"name":"callData","type":"bytes","internalType":"bytes"}],"outputs":[],"stateMutability":"nonpayable"},{"type":"function","name":"removeApprovalDestination","inputs":[{"name":"destination","type":"address","internalType":"address"},{"name":"notes","type":"string","internalType":"string"}],"outputs":[],"stateMutability":"nonpayable"},{"type":"function","name":"removeAsset","inputs":[{"name":"asset","type":"address","internalType":"address"},{"name":"notes","type":"string","internalType":"string"}],"outputs":[],"stateMutability":"nonpayable"},{"type":"function","name":"removeCCTPDestination","inputs":[{"name":"domain","type":"uint32","internalType":"uint32"},{"name":"notes","type":"string","internalType":"string"}],"outputs":[],"stateMutability":"nonpayable"},{"type":"function","name":"removeCallSite","inputs":[{"name":"target","type":"address","internalType":"address"},{"name":"selector","type":"bytes4","internalType":"bytes4"},{"name":"notes","type":"string","internalType":"string"}],"outputs":[],"stateMutability":"nonpayable"},{"type":"function","name":"removeDelegationApprovalDestination","inputs":[{"name":"destination","type":"address","internalType":"address"},{"name":"notes","type":"string","internalType":"string"}],"outputs":[],"stateMutability":"nonpayable"},{"type":"function","name":"removeGMXMarket","inputs":[{"name":"market","type":"address","internalType":"address"},{"name":"notes","type":"string","internalType":"string"}],"outputs":[],"stateMutability":"nonpayable"},{"type":"function","name":"removeHypercoreVault","inputs":[{"name":"vault","type":"address","internalType":"address"},{"name":"notes","type":"string","internalType":"string"}],"outputs":[],"stateMutability":"nonpayable"},{"type":"function","name":"removeReceiver","inputs":[{"name":"receiver","type":"address","internalType":"address"},{"name":"notes","type":"string","internalType":"string"}],"outputs":[],"stateMutability":"nonpayable"},{"type":"function","name":"removeSender","inputs":[{"name":"sender","type":"address","internalType":"address"},{"name":"notes","type":"string","internalType":"string"}],"outputs":[],"stateMutability":"nonpayable"},{"type":"function","name":"removeWithdrawDestination","inputs":[{"name":"destination","type":"address","internalType":"address"},{"name":"notes","type":"string","internalType":"string"}],"outputs":[],"stateMutability":"nonpayable"},{"type":"function","name":"renounceOwnership","inputs":[],"outputs":[],"stateMutability":"nonpayable"},{"type":"function","name":"setAnyAssetAllowed","inputs":[{"name":"value","type":"bool","internalType":"bool"},{"name":"notes","type":"string","internalType":"string"}],"outputs":[],"stateMutability":"nonpayable"},{"type":"function","name":"setAvatar","inputs":[{"name":"_avatar","type":"address","internalType":"address"}],"outputs":[],"stateMutability":"nonpayable"},{"type":"function","name":"setTarget","inputs":[{"name":"_target","type":"address","internalType":"address"}],"outputs":[],"stateMutability":"nonpayable"},{"type":"function","name":"setUp","inputs":[{"name":"initializeParams","type":"bytes","internalType":"bytes"}],"outputs":[],"stateMutability":"nonpayable"},{"type":"function","name":"swapAndValidateCowSwap","inputs":[{"name":"settlementContract","type":"address","internalType":"address"},{"name":"receiver","type":"address","internalType":"address"},{"name":"appData","type":"bytes32","internalType":"bytes32"},{"name":"tokenIn","type":"address","internalType":"address"},{"name":"tokenOut","type":"address","internalType":"address"},{"name":"amountIn","type":"uint256","internalType":"uint256"},{"name":"minAmountOut","type":"uint256","internalType":"uint256"}],"outputs":[],"stateMutability":"nonpayable"},{"type":"function","name":"swapAndValidateVelora","inputs":[{"name":"augustusSwapper","type":"address","internalType":"address"},{"name":"receiver","type":"address","internalType":"address"},{"name":"tokenIn","type":"address","internalType":"address"},{"name":"tokenOut","type":"address","internalType":"address"},{"name":"amountIn","type":"uint256","internalType":"uint256"},{"name":"minAmountOut","type":"uint256","internalType":"uint256"},{"name":"augustusCalldata","type":"bytes","internalType":"bytes"}],"outputs":[],"stateMutability":"nonpayable"},{"type":"function","name":"target","inputs":[],"outputs":[{"name":"","type":"address","internalType":"address"}],"stateMutability":"view"},{"type":"function","name":"transferOwnership","inputs":[{"name":"newOwner","type":"address","internalType":"address"}],"outputs":[],"stateMutability":"nonpayable"},{"type":"function","name":"validateCall","inputs":[{"name":"sender","type":"address","internalType":"address"},{"name":"target","type":"address","internalType":"address"},{"name":"callDataWithSelector","type":"bytes","internalType":"bytes"}],"outputs":[],"stateMutability":"view"},{"type":"function","name":"whitelistAaveV3","inputs":[{"name":"lendingPool","type":"address","internalType":"address"},{"name":"notes","type":"string","internalType":"string"}],"outputs":[],"stateMutability":"nonpayable"},{"type":"function","name":"whitelistCCTP","inputs":[{"name":"tokenMessenger","type":"address","internalType":"address"},{"name":"notes","type":"string","internalType":"string"}],"outputs":[],"stateMutability":"nonpayable"},{"type":"function","name":"whitelistCCTPDestination","inputs":[{"name":"domain","type":"uint32","internalType":"uint32"},{"name":"notes","type":"string","internalType":"string"}],"outputs":[],"stateMutability":"nonpayable"},{"type":"function","name":"whitelistCoreWriter","inputs":[{"name":"coreWriter","type":"address","internalType":"address"},{"name":"coreDepositWallet","type":"address","internalType":"address"},{"name":"notes","type":"string","internalType":"string"}],"outputs":[],"stateMutability":"nonpayable"},{"type":"function","name":"whitelistCowSwap","inputs":[{"name":"settlementContract","type":"address","internalType":"address"},{"name":"relayerContract","type":"address","internalType":"address"},{"name":"notes","type":"string","internalType":"string"}],"outputs":[],"stateMutability":"nonpayable"},{"type":"function","name":"whitelistERC4626","inputs":[{"name":"vault","type":"address","internalType":"address"},{"name":"notes","type":"string","internalType":"string"}],"outputs":[],"stateMutability":"nonpayable"},{"type":"function","name":"whitelistGMX","inputs":[{"name":"exchangeRouter","type":"address","internalType":"address"},{"name":"syntheticsRouter","type":"address","internalType":"address"},{"name":"orderVault","type":"address","internalType":"address"},{"name":"collateralTokens","type":"address[]","internalType":"address[]"},{"name":"notes","type":"string","internalType":"string"}],"outputs":[],"stateMutability":"nonpayable"},{"type":"function","name":"whitelistGMXMarket","inputs":[{"name":"market","type":"address","internalType":"address"},{"name":"notes","type":"string","internalType":"string"}],"outputs":[],"stateMutability":"nonpayable"},{"type":"function","name":"whitelistHypercoreVault","inputs":[{"name":"vault","type":"address","internalType":"address"},{"name":"notes","type":"string","internalType":"string"}],"outputs":[],"stateMutability":"nonpayable"},{"type":"function","name":"whitelistLagoon","inputs":[{"name":"vault","type":"address","internalType":"address"},{"name":"notes","type":"string","internalType":"string"}],"outputs":[],"stateMutability":"nonpayable"},{"type":"function","name":"whitelistLighter","inputs":[{"name":"zkLighter","type":"address","internalType":"address"},{"name":"usdc","type":"address","internalType":"address"},{"name":"assetIndex","type":"uint16","internalType":"uint16"},{"name":"notes","type":"string","internalType":"string"}],"outputs":[],"stateMutability":"nonpayable"},{"type":"function","name":"whitelistToken","inputs":[{"name":"token","type":"address","internalType":"address"},{"name":"notes","type":"string","internalType":"string"}],"outputs":[],"stateMutability":"nonpayable"},{"type":"function","name":"whitelistTokenForDelegation","inputs":[{"name":"token","type":"address","internalType":"address"},{"name":"notes","type":"string","internalType":"string"}],"outputs":[],"stateMutability":"nonpayable"},{"type":"function","name":"whitelistUniswapV2Router","inputs":[{"name":"router","type":"address","internalType":"address"},{"name":"notes","type":"string","internalType":"string"}],"outputs":[],"stateMutability":"nonpayable"},{"type":"function","name":"whitelistUniswapV3Router","inputs":[{"name":"router","type":"address","internalType":"address"},{"name":"notes","type":"string","internalType":"string"}],"outputs":[],"stateMutability":"nonpayable"},{"type":"function","name":"whitelistVelora","inputs":[{"name":"augustusSwapper","type":"address","internalType":"address"},{"name":"tokenTransferProxy","type":"address","internalType":"address"},{"name":"notes","type":"string","internalType":"string"}],"outputs":[],"stateMutability":"nonpayable"},{"type":"event","name":"AnyAssetSet","inputs":[{"name":"value","type":"bool","indexed":false,"internalType":"bool"},{"name":"notes","type":"string","indexed":false,"internalType":"string"}],"anonymous":false},{"type":"event","name":"AnyVaultSet","inputs":[{"name":"value","type":"bool","indexed":false,"internalType":"bool"},{"name":"notes","type":"string","indexed":false,"internalType":"string"}],"anonymous":false},{"type":"event","name":"ApprovalDestinationApproved","inputs":[{"name":"destination","type":"address","indexed":false,"internalType":"address"},{"name":"notes","type":"string","indexed":false,"internalType":"string"}],"anonymous":false},{"type":"event","name":"ApprovalDestinationRemoved","inputs":[{"name":"destination","type":"address","indexed":false,"internalType":"address"},{"name":"notes","type":"string","indexed":false,"internalType":"string"}],"anonymous":false},{"type":"event","name":"AssetApproved","inputs":[{"name":"asset","type":"address","indexed":false,"internalType":"address"},{"name":"notes","type":"string","indexed":false,"internalType":"string"}],"anonymous":false},{"type":"event","name":"AssetRemoved","inputs":[{"name":"asset","type":"address","indexed":false,"internalType":"address"},{"name":"notes","type":"string","indexed":false,"internalType":"string"}],"anonymous":false},{"type":"event","name":"AvatarSet","inputs":[{"name":"previousAvatar","type":"address","indexed":true,"internalType":"address"},{"name":"newAvatar","type":"address","indexed":true,"internalType":"address"}],"anonymous":false},{"type":"event","name":"CCTPDestinationApproved","inputs":[{"name":"domain","type":"uint32","indexed":false,"internalType":"uint32"},{"name":"notes","type":"string","indexed":false,"internalType":"string"}],"anonymous":false},{"type":"event","name":"CCTPDestinationRemoved","inputs":[{"name":"domain","type":"uint32","indexed":false,"internalType":"uint32"},{"name":"notes","type":"string","indexed":false,"internalType":"string"}],"anonymous":false},{"type":"event","name":"CCTPMessengerApproved","inputs":[{"name":"tokenMessenger","type":"address","indexed":false,"internalType":"address"},{"name":"notes","type":"string","indexed":false,"internalType":"string"}],"anonymous":false},{"type":"event","name":"CallSiteApproved","inputs":[{"name":"target","type":"address","indexed":false,"internalType":"address"},{"name":"selector","type":"bytes4","indexed":false,"internalType":"bytes4"},{"name":"notes","type":"string","indexed":false,"internalType":"string"}],"anonymous":false},{"type":"event","name":"CallSiteRemoved","inputs":[{"name":"target","type":"address","indexed":false,"internalType":"address"},{"name":"selector","type":"bytes4","indexed":false,"internalType":"bytes4"},{"name":"notes","type":"string","indexed":false,"internalType":"string"}],"anonymous":false},{"type":"event","name":"DelegationApprovalDestinationApproved","inputs":[{"name":"destination","type":"address","indexed":false,"internalType":"address"},{"name":"notes","type":"string","indexed":false,"internalType":"string"}],"anonymous":false},{"type":"event","name":"DelegationApprovalDestinationRemoved","inputs":[{"name":"destination","type":"address","indexed":false,"internalType":"address"},{"name":"notes","type":"string","indexed":false,"internalType":"string"}],"anonymous":false},{"type":"event","name":"ERC4626Approved","inputs":[{"name":"vault","type":"address","indexed":false,"internalType":"address"},{"name":"notes","type":"string","indexed":false,"internalType":"string"}],"anonymous":false},{"type":"event","name":"Initialized","inputs":[{"name":"version","type":"uint64","indexed":false,"internalType":"uint64"}],"anonymous":false},{"type":"event","name":"LagoonVaultApproved","inputs":[{"name":"vault","type":"address","indexed":false,"internalType":"address"},{"name":"notes","type":"string","indexed":false,"internalType":"string"}],"anonymous":false},{"type":"event","name":"OwnershipTransferred","inputs":[{"name":"previousOwner","type":"address","indexed":true,"internalType":"address"},{"name":"newOwner","type":"address","indexed":true,"internalType":"address"}],"anonymous":false},{"type":"event","name":"ReceiverApproved","inputs":[{"name":"receiver","type":"address","indexed":false,"internalType":"address"},{"name":"notes","type":"string","indexed":false,"internalType":"string"}],"anonymous":false},{"type":"event","name":"ReceiverRemoved","inputs":[{"name":"receiver","type":"address","indexed":false,"internalType":"address"},{"name":"notes","type":"string","indexed":false,"internalType":"string"}],"anonymous":false},{"type":"event","name":"SenderApproved","inputs":[{"name":"sender","type":"address","indexed":false,"internalType":"address"},{"name":"notes","type":"string","indexed":false,"internalType":"string"}],"anonymous":false},{"type":"event","name":"SenderRemoved","inputs":[{"name":"sender","type":"address","indexed":false,"internalType":"address"},{"name":"notes","type":"string","indexed":false,"internalType":"string"}],"anonymous":false},{"type":"event","name":"TargetSet","inputs":[{"name":"previousTarget","type":"address","indexed":true,"internalType":"address"},{"name":"newTarget","type":"address","indexed":true,"internalType":"address"}],"anonymous":false},{"type":"event","name":"WithdrawDestinationApproved","inputs":[{"name":"destination","type":"address","indexed":false,"internalType":"address"},{"name":"notes","type":"string","indexed":false,"internalType":"string"}],"anonymous":false},{"type":"event","name":"WithdrawDestinationRemoved","inputs":[{"name":"destination","type":"address","indexed":false,"internalType":"address"},{"name":"notes","type":"string","indexed":false,"internalType":"string"}],"anonymous":false},{"type":"error","name":"InvalidInitialization","inputs":[]},{"type":"error","name":"NotInitializing","inputs":[]},{"type":"error","name":"OwnableInvalidOwner","inputs":[{"name":"owner","type":"address","internalType":"address"}]},{"type":"error","name":"OwnableUnauthorizedAccount","inputs":[{"name":"account","type":"address","internalType":"address"}]}],"bytecode":{"object":"0x6080806040523461023257604081615b60803803809161001f828561028a565b8339810103126102325761003e6020610037836102c1565b92016102c1565b604080516001600160a01b03938416602082019081529290931683820190815290835261006c60608461028a565b5f80516020615b4083398151915254604081901c60ff1615936001600160401b03821680159081610282575b6001149081610278575b15908161026f575b50610260576001600160401b031982166001175f80516020615b408339815191525560409185610236575b506100de610359565b6100e6610359565b6100ef336102d5565b805181010312610232576101056101c4926102c1565b906001600160a01b0390610118906102c1565b16610121610384565b5f80546001600160a01b031981168317825582916001600160a01b03909116907f52ae88b092de36f87fb43fe794eb1381023b9c1bce563a871154022c63dce3429080a361016d610384565b600180546001600160a01b0319811683179091556001600160a01b03167f90cc2f570a6eb594b1580ea3e41247d2d73a55281889e86bd4ec2fc29c7e62d65f80a36101b6610384565b6001600160a01b03166102d5565b6101d8575b60405161577590816103cb8239f35b68ff0000000000000000195f80516020615b4083398151915254165f80516020615b40833981519152557fc7f505b2f371ae2175ee4913f4499e1f2633a7b5936321eed1cdaeb6115181d2602060405160018152a16101c9565b5f80fd5b6001600160481b03191668010000000000000001175f80516020615b40833981519152555f6100d5565b63f92ee8a960e01b5f5260045ffd5b9050155f6100aa565b303b1591506100a2565b869150610098565b601f909101601f19168101906001600160401b038211908210176102ad57604052565b634e487b7160e01b5f52604160045260245ffd5b51906001600160a01b038216820361023257565b6001600160a01b03168015610346577f9016d09d72d40fdae2fd8ceac6b6234c7706214fd39c1cd1e609a0528c19930080546001600160a01b0319811683179091556001600160a01b03167f8be0079c531659141344cd1fd0a4f28419497f9722a3daafe3b4186f6b6457e05f80a3565b631e4fbdf760e01b5f525f60045260245ffd5b60ff5f80516020615b408339815191525460401c161561037557565b631afcd79f60e31b5f5260045ffd5b7f9016d09d72d40fdae2fd8ceac6b6234c7706214fd39c1cd1e609a0528c199300546001600160a01b031633036103b757565b63118cdaa760e01b5f523360045260245ffdfe60806040526004361015610011575f80fd5b5f3560e01c80630411fb8e146104f857806304a3ba25146104fd57806307605342146104f857806307ef00cf146103cc578063086cfca8146104f35780631047789e146104ee5780631d49039c146103db5780632d12d788146104e95780632dc32a61146104bc5780632de905bc146104e45780632e31e9c6146104df578063333f22e8146104da57806334ec8d7e146104d55780633cf20025146104035780633ea35551146104d0578063408694e3146104cb578063486295dc146104c65780634acf884d146104c15780634b941268146104bc5780634d3d31ca146104b75780634efbad39146104b25780634f97d805146104ad5780635ace1d92146104a85780635aef7de6146104a35780635e4ccace1461049e5780635e6afe4d1461049957806363cc17f2146104945780636d5025f11461048f5780636d9a14231461048a5780636e3de202146104855780636fd7fdef14610453578063713ebf3b14610435578063715018a61461048057806372e548a91461047b5780637325249414610458578063748fca4614610471578063776d1a011461047657806378addb481461041c5780637cac69c31461047157806386a6ae151461046c57806386b6dbe51461046757806387301608146104625780638c2fdf9e1461045d5780638da5cb5b146104585780638fb4dff21461045357806398b3cc391461044e5780639e4a83cf14610449578063a4c1cccb14610444578063a4f9edbf1461043f578063a67e1f541461043a578063a847cf4d14610435578063a86ddc5714610430578063a9fc3d4f1461042b578063ac9650d814610426578063acb9da1614610421578063b8fe8d5f1461041c578063ba44ad4114610417578063be8c97b0146103a9578063c2e657ae14610412578063c537bed01461040d578063cbdb1dcf14610408578063d075f9bb14610403578063d078377c146103fe578063d2f73e3d146103f9578063d4b83992146103f4578063d7334c9d146103ef578063d7581509146103ea578063e2873b6d146103e5578063e6f32c51146103e0578063eb0de042146103db578063ec011440146103d6578063ee5462cc146103d1578063efb47bff146103cc578063f20e85e0146103c7578063f259a073146103c2578063f2fde38b146103bd578063f84756aa146103b8578063f901dc33146103b3578063fa2c59c8146103ae578063fadbcf48146103a9578063faef8f58146103a45763fdedfa271461039f575f80fd5b612b70565b612af6565b612223565b612a8b565b612a23565b6129a9565b61297c565b612914565b61286e565b610646565b612854565b612763565b6107fc565b6126fd565b6126ac565b61265b565b6125ec565b6125c4565b612597565b6123af565b610b48565b612335565b612304565b61226d565b6121c0565b61189f565b6120e1565b612006565b611f8a565b611ee8565b6116a0565b611e6a565b611d21565b611c1e565b611bd8565b611b48565b611660565b6117b3565b611ae0565b611abe565b611a66565b6118df565b61180b565b611845565b611748565b6116f4565b6114af565b6113df565b6113c5565b61135a565b611253565b6111cb565b611141565b6110cc565b61104f565b610fad565b610f5c565b6108a4565b610df4565b610d23565b610c50565b610b88565b610a8d565b610a13565b610958565b6108e4565b61083c565b610722565b610686565b610517565b6105c0565b6001600160a01b0381160361051357565b5f80fd5b346105135760203660031901126105135760043561053481610502565b60018060a01b03165f52600c602052602060ff60405f2054166040519015158152f35b9181601f84011215610513578235916001600160401b038311610513576020838186019501011161051357565b9060406003198301126105135760043561059d81610502565b91602435906001600160401b038211610513576105bc91600401610557565b9091565b34610513577fb71be9befd3ac90c1c9981d3b1161b3c2c6dcd741f13b34061aa251226a802df6106286105f236610584565b6105fd93919361430c565b6001600160a01b0383165f9081526009602052604090819020805460ff191690555193849384612bab565b0390a1005b6001600160a01b03165f90815260026020526040902090565b346105135760203660031901126105135760043561066381610502565b60018060a01b03165f526008602052602060ff60405f2054166040519015158152f35b34610513576020366003190112610513576004356106a381610502565b6106ab61430c565b5f80546001600160a01b039283166001600160a01b03198216811783559216905f805160206156898339815191529080a3005b6060600319820112610513576004356106f681610502565b9160243561070381610502565b91604435906001600160401b038211610513576105bc91600401610557565b3461051357610792610733366106de565b81819361074196939661430c565b61074961430c565b6001600160a01b0386165f9081526009602052604090819020805460ff19166001179055515f80516020615669833981519152908061078a86868b84612bab565b0390a161401c565b73__$f7398432285ba6c2c1c9749bf7c6b7e7ad$__803b15610513576107d1935f936040519586948593849363303e5bc960e21b855260048501612bab565b03915af480156107f7576107e157005b806107ef5f6107f593611c92565b80611137565b005b612bcd565b346105135760203660031901126105135760043561081981610502565b60018060a01b03165f526009602052602060ff60405f2054166040519015158152f35b34610513577f4e13b11ab98e672bd78295ef9cebe764dc617f95decf47d842c25b83abc0c72461062861086e36610584565b61087993919361430c565b6001600160a01b0383165f9081526007602052604090819020805460ff191690555193849384612bab565b34610513576020366003190112610513576004356108c181610502565b60018060a01b03165f52600a602052602060ff60405f2054166040519015158152f35b34610513576108f236610584565b6108fa61430c565b73__$f9fa4d4e532bfe6aeff5ab3d328fd72bc7$__92833b15610513576109355f92604051948593630b7a416f60e21b855260048501612bab565b938180849603915af480156107f75761094c575080f35b6107f591505f90611c92565b346105135760203660031901126105135760043561097581610502565b600e546040516312789ae160e11b81526001600160a01b03909216600483015260ff161515602482015260208160448173__$bda5499a8fa48831c49ec55d96dbc8aee1$__5af480156107f7576109e0915f916109e4575b5060405191829182901515815260200190565b0390f35b610a06915060203d602011610a0c575b6109fe8183611c92565b810190612bd8565b5f6109cd565b503d6109f4565b3461051357602036600319011261051357600435610a3081610502565b604051630667e45d60e31b81526001600160a01b03909116600482015260208160248173__$f7398432285ba6c2c1c9749bf7c6b7e7ad$__5af480156107f7576109e0915f916109e4575060405191829182901515815260200190565b34610513576107f5610a9e36610584565b91610aa761430c565b610aaf61430c565b6001600160a01b0381165f81815260026020908152604080832063c04b8d5960e01b84529091529020600160ff198254161790555f52600360205260405f20600160ff19825416179055610b0c610b07600454613dea565b600455565b5f8051602061574983398151915260405180610b2a86868684613e0c565b0390a1610b38838383612d61565b610b43838383612df3565b61401c565b3461051357602036600319011261051357600435610b6581610502565b60018060a01b03165f526007602052602060ff60405f2054166040519015158152f35b34610513576107f5610b9936610584565b91610ba261430c565b610baa61430c565b6001600160a01b0381165f8181526002602090815260408083206338ed173960e01b84529091529020600160ff198254161790555f52600360205260405f20600160ff19825416179055610c02610b07600454613dea565b5f8051602061574983398151915260405180610c2086868684613e3b565b0390a1610b43838383612e80565b6044359061ffff8216820361051357565b6004359061ffff8216820361051357565b3461051357608036600319011261051357600435610c6d81610502565b60243590610c7a82610502565b610c82610c2e565b60643592906001600160401b03841161051357610ca6610ce4943690600401610557565b8181969294610cb361430c565b610cbe838389612f0d565b610cc9838389612f9a565b610cd4838389613027565b610cdf83838961401c565b61433f565b73__$b1eadc77501473dd7d6b2fe89954bce60e$__90813b15610513575f936107d1604051968795869485946303cb6dc560e31b865260048601612bed565b606036600319011261051357600435610d3b81610502565b6024356001600160401b03811161051357610d5a903690600401610557565b919060443590610d6c848285336146a2565b34610d92575b90610d86610d8c93926107f5953691611cd0565b916150bf565b9061510b565b91905f8080803460018060a01b038254165af1610dad612c15565b5015610dba579091610d72565b60405162461bcd60e51b815260206004820152601260248201527111551208199bdc9dd85c990819985a5b195960721b6044820152606490fd5b346105135760e036600319011261051357600435610e1181610502565b60243590610e1e82610502565b60443560643592610e2e84610502565b60843590610e3b82610502565b604051636290236f60e11b81529373__$f7398432285ba6c2c1c9749bf7c6b7e7ad$__9260c43560a435602088600481895af49283156107f757610e8b610ee6945f9a8b91610f3d575b50612c44565b604051635a1b5fa560e01b81526001600160a01b03958616600482015295851660248701526044860197909752978316606485015291909416608483015260a482019590955260c481019490945283918290819060e4820190565b03915af49081156107f7576107f591610d8c915f91610f1b575b5060208101516040906001600160a01b031691015190615036565b610f3791503d805f833e610f2f8183611c92565b810190612cd8565b5f610f00565b610f56915060203d602011610a0c576109fe8183611c92565b5f610e85565b3461051357610f6a36610584565b610f7261430c565b73__$bda5499a8fa48831c49ec55d96dbc8aee1$__92833b15610513576109355f9260405194859363f7570c2960e01b855260048501612bab565b34610513575f80516020615669833981519152610fc9366106de565b9190809491610fd661430c565b610fde61430c565b60018060a01b0381165f52600960205260405f20600160ff1982541617905561100d8460405193849384612bab565b0390a173__$c49bf44a3286d065a371d69fbc4a0c0f99$__803b15610513576107d1935f9360405195869485938493631a65191160e21b855260048501612bab565b3461051357602036600319011261051357611068610c3f565b60ff600e541661ffff60405192632e8e669960e11b84521660048301521515602482015260208160448173__$b1eadc77501473dd7d6b2fe89954bce60e$__5af480156107f7576109e0915f916109e4575060405191829182901515815260200190565b34610513577f3562181221a42a19ddd03a82dfe06acab1905ceb65cdaf7d86a1d9fec66435526106286110fe36610584565b61110993919361430c565b6001600160a01b0383165f9081526008602052604090819020805460ff191660011790555193849384612bab565b5f91031261051357565b34610513575f366003190112610513575f546040516001600160a01b039091168152602090f35b602435906001600160e01b03198216820361051357565b60606003198201126105135760043561119781610502565b916024356001600160e01b0319811681036105135791604435906001600160401b038211610513576105bc91600401610557565b34610513575f805160206157498339815191526106286111ea3661117f565b906111f694929461430c565b6001600160a01b0384165f818152600260205260409020611218908790611ed2565b600160ff198254161790555f52600360205260405f20600160ff19825416179055611244600454613dea565b60045560405194859485613f55565b34610513577ffaa136302ac223cf7c1146490a741e4520e886fc22d7e759641453f432283d0161062861128536610584565b61129093919361430c565b6001600160a01b0383165f818152600b60205260409020805460ff191660011790556112ba61430c565b805f5260026020526112dd60405f2063559ec80d60e01b5f5260205260405f2090565b600160ff198254161790555f52600360205260405f20600160ff1982541617905561130c610b07600454613dea565b5f805160206157498339815191526040518061132a84888884613e6a565b0390a16113388185856130b4565b611343818585613141565b61134e8185856131ce565b60405193849384612bab565b34610513577fb71b62345f0de74ec86ca2292697c77744d05ce6534f9b8866cefdf5fa3152b261062861138c36610584565b61139793919361430c565b6001600160a01b0383165f908152600a602052604090819020805460ff191660011790555193849384612bab565b34610513576107f56113d6366106de565b929190916146a2565b34610513576107f56113f036610584565b916113f961430c565b61140161430c565b6001600160a01b0381165f818152600260209081526040808320630c04a8a160e41b84529091529020600160ff198254161790555f52600360205260405f20600160ff19825416179055611459610b07600454613dea565b5f805160206157498339815191526040518061147786868684613e99565b0390a1614002565b9181601f84011215610513578235916001600160401b038311610513576020808501948460051b01011161051357565b346105135760a0366003190112610513576004356114cc81610502565b602435906114d982610502565b604435906114e682610502565b6064356001600160401b0381116105135761150590369060040161147f565b90939091906084356001600160401b03811161051357611529903690600401610557565b92909461153461430c565b61153c61430c565b60018060a01b038216805f52600260205260405f2063ffffffff60e01b631592ca1b60e31b165f5260205260405f20600160ff198254161790555f52600360205260405f20600160ff1982541617905561159a610b07600454613dea565b6040515f8051602061574983398151915290806115c1878a631592ca1b60e31b8885613f55565b0390a16115cf84878561401c565b73__$bda5499a8fa48831c49ec55d96dbc8aee1$__803b156105135786935f93611610876040519788968795869563f4d5bb9360e01b875260048701613f88565b03915af480156107f75761164c575b505f5b82811061162b57005b806116468386610cdf611641600196898c613fce565b613fe3565b01611622565b806107ef5f61165a93611c92565b5f61161f565b346105135760203660031901126105135760043561167d81610502565b60018060a01b03165f52600b602052602060ff60405f2054166040519015158152f35b3461051357604036600319011261051357602060ff6116e86004356116c481610502565b6116cc611168565b6001600160a01b039091165f9081526002855260409020611ed2565b54166040519015158152f35b34610513575f3660031901126105135761170c61430c565b5f805160206156a983398151915280546001600160a01b031981169091555f906001600160a01b03165f805160206156e98339815191528280a3005b34610513577f62dd88c5ecfa60713a657640ebec4de26fc1aefa4afdb24e6d15a124fce7277961062861177a36610584565b61178593919361430c565b6001600160a01b0383165f9081526007602052604090819020805460ff191660011790555193849384612bab565b34610513575f366003190112610513575f805160206156a9833981519152546040516001600160a01b039091168152602090f35b6004359063ffffffff8216820361051357565b359063ffffffff8216820361051357565b346105135760203660031901126105135763ffffffff6118296117e7565b165f52600d602052602060ff60405f2054166040519015158152f35b346105135760203660031901126105135760043561186281610502565b61186a61430c565b600180546001600160a01b039283166001600160a01b0319821681179092559091165f805160206156c98339815191525f80a3005b34610513576020366003190112610513576004356118bc81610502565b60018060a01b03165f526003602052602060ff60405f2054166040519015158152f35b34610513576118ed36610584565b916118f661430c565b6040516338d52e0f60e01b8152926020846004816001600160a01b0386165afa9081156107f75761134e8185610628947fd2851df39115d63968e90113e8b3a96f13e33ac4c2e5a9caa1afeffe59e55748985f91611a37575b5061195b83838961325b565b6119668383896132e8565b611971838389613375565b61197c838389613402565b61198783838961348f565b61199283838961351c565b61199d8383896135a7565b6119a8838389613634565b6119b38383896136c1565b6119be83838961374e565b6119c98383896137db565b6119d4838389613868565b6119df8383896138f5565b6119ea838389613982565b6119f5838389613a0f565b611a00838389613a9c565b611a0b838389613b29565b611a16838389613bb6565b611a21838389613c43565b611a2c83838961401c565b610cdf83838961433f565b611a59915060203d602011611a5f575b611a518183611c92565b810190613fed565b5f61194f565b503d611a47565b34610513575f80516020615709833981519152610628611a8536610584565b611a9093919361430c565b6001600160a01b0383165f9081526005602052604090819020805460ff191660011790555193849384612bab565b34610513575f36600319011261051357602060ff600e54166040519015158152f35b34610513577f1212f8ddb39de8e1a339460c95752d61100723efeaa34ccd94bca94393f40938610628611b1236610584565b611b1d93919361430c565b6001600160a01b0383165f9081526008602052604090819020805460ff191690555193849384612bab565b34610513575f80516020615669833981519152610628611b6736610584565b611b7293919361430c565b6001600160a01b0383165f9081526009602052604090819020805460ff191660011790555193849384612bab565b805180835260209291819084018484015e5f828201840152601f01601f1916010190565b906020611bd5928181520190611ba0565b90565b34610513575f366003190112610513576109e0604051611bf9604082611c92565b60048152631d8c0b8d60e21b6020820152604051918291602083526020830190611ba0565b3461051357602036600319011261051357600435611c3b81610502565b60018060a01b03165f526005602052602060ff60405f2054166040519015158152f35b634e487b7160e01b5f52604160045260245ffd5b606081019081106001600160401b03821117611c8d57604052565b611c5e565b601f909101601f19168101906001600160401b03821190821017611c8d57604052565b6001600160401b038111611c8d57601f01601f191660200190565b929192611cdc82611cb5565b91611cea6040519384611c92565b829481845281830111610513578281602093845f960137010152565b9080601f8301121561051357816020611bd593359101611cd0565b34610513576020366003190112610513576004356001600160401b03811161051357611d51903690600401611d06565b5f80516020615729833981519152549060ff604083901c1615611d73565b1590565b916001600160401b031680159081611e62575b6001149081611e58575b159081611e4f575b50611e40575f8051602061572983398151915280546001600160401b0319166001179055611dca9082611e1c57614036565b611dd057005b5f80516020615729833981519152805460ff60401b19169055604051600181527fc7f505b2f371ae2175ee4913f4499e1f2633a7b5936321eed1cdaeb6115181d2908060208101610628565b5f80516020615729833981519152805460ff60401b1916600160401b179055614036565b63f92ee8a960e01b5f5260045ffd5b9050155f611d98565b303b159150611d90565b839150611d86565b34610513577f3097928509c53a2dab9500431201d82b0d756e8f890fd01f4ae6b33b45687ea4610628611e9c36610584565b611ea793919361430c565b6001600160a01b0383165f9081526006602052604090819020805460ff191690555193849384612bab565b9063ffffffff60e01b165f5260205260405f2090565b3461051357602036600319011261051357600435611f0581610502565b6040516351097a3360e01b81526001600160a01b03909116600482015260208160248173__$bda5499a8fa48831c49ec55d96dbc8aee1$__5af480156107f7576109e0915f91611f6b575b506040516001600160a01b0390911681529081906020820190565b611f84915060203d602011611a5f57611a518183611c92565b5f611f50565b34610513575f366003190112610513576020600454604051908152f35b602081016020825282518091526040820191602060408360051b8301019401925f915b838310611fd957505050505090565b9091929394602080611ff7600193603f198682030187528951611ba0565b97019301930191939290611fca565b6020366003190112610513576004356001600160401b0381116105135761203190369060040161147f565b9061203b8261411b565b915f5b81811061205357604051806109e08682611fa7565b5f80612060838587614164565b90612070604051809381936141a5565b0390305af461207d612c15565b90156120a3579060019161209182876141e8565b5261209c81866141e8565b500161203e565b6044815110610513576120c58160248060046120dd95015183010191016141b2565b60405162461bcd60e51b815291829160048301611bc4565b0390fd5b34610513576120ef366106de565b916120f861430c565b73__$f9fa4d4e532bfe6aeff5ab3d328fd72bc7$__93843b156105135760405163565ced0b60e11b81526001600160a01b039182166004820152908216602482015260606044820152935f9085908180612156606482018989612b8b565b03915af49384156107f7576107f594612170575b5061401c565b806107ef5f61217e93611c92565b5f61216a565b9060406003198301126105135760043563ffffffff811681036105135791602435906001600160401b038211610513576105bc91600401610557565b34610513577f1032cb8f3d65d1f2761007cb8b0ca5365671ee20a8efa21ecae1a8dfbca5b7a56106286121f236612184565b6121fd93919361430c565b63ffffffff83165f52600d60205260405f2060ff198154169055604051938493846141fc565b346105135760203660031901126105135760043561224081610502565b60018060a01b03165f526006602052602060ff60405f2054166040519015158152f35b8015150361051357565b346105135760403660031901126105135760043561228a81612263565b6024356001600160401b038111610513577f50454d9d0025a28a39cac5a4b3f3101d29b6e413fbb64f75fb42eb6837b07718916122ce610628923690600401610557565b9290916122d961430c565b15159160ff19600e541660ff841617600e556040519384938452604060208501526040840191612b8b565b3461051357602036600319011261051357602061232b60043561232681610502565b614219565b6040519015158152f35b346105135760203660031901126105135760043561235281610502565b60405163c226c4bb60e01b81526001600160a01b03909116600482015260208160248173__$bda5499a8fa48831c49ec55d96dbc8aee1$__5af480156107f7576109e0915f916109e4575060405191829182901515815260200190565b346105135760e0366003190112610513576004356123cc81610502565b6024356123d881610502565b6044356123e481610502565b606435926123f184610502565b60a43592608435919060c4356001600160401b03811161051357612419903690600401611d06565b604051636290236f60e11b815273__$c49bf44a3286d065a371d69fbc4a0c0f99$__949190602081600481895af480156107f75761245e915f91612578575b50614249565b5f5460408051636267722d60e11b81526001600160a01b03928316600482015282871660248201529482166044860152878216606486015290891660848501528360a481885af49081156107f7575f935f9261253a575b50610d8c6124c39186615036565b5f546001600160a01b031692853b156105135760405163fe36c22960e01b81526001600160a01b03948516600482015294841660248601529583166044850152969091166064830152608482015260a481019390935260c483019190915260e4820192909252905f908290818061010481016107d1565b610d8c94506124c39192506125669060403d604011612571575b61255e8183611c92565b81019061428c565b9490949291506124b5565b503d612554565b612591915060203d602011610a0c576109fe8183611c92565b5f612458565b34610513576107f5610d8c610d865f6125af36610584565b6125bd8183859795336146a2565b3691611cd0565b34610513575f366003190112610513576001546040516001600160a01b039091168152602090f35b34610513577f37ea10f2d08f5a9803dfcd5abf3cfc7b0d6fcdf5fcbc36be9ea5a0b53d9a4d9b61062861261e3661117f565b9061262a94929461430c565b60018060a01b0384165f5260026020526126478560405f20611ed2565b805460ff1916905560405194859485613f55565b346105135761266936610584565b61267161430c565b73__$bda5499a8fa48831c49ec55d96dbc8aee1$__92833b15610513576109355f92604051948593634a1c4b1960e11b855260048501612bab565b34610513576126ba36610584565b6126c261430c565b73__$f9fa4d4e532bfe6aeff5ab3d328fd72bc7$__92833b15610513576109355f9260405194859363e2873b6d60e01b855260048501612bab565b34610513577f9fc3f914bc6770a3679a6a9fdb4620f0566db329f178fb033fc0c6dcce1b693d61062861272f36612184565b61273a93919361430c565b63ffffffff83165f52600d60205260405f20600160ff19825416179055604051938493846141fc565b34610513577f9efd66cbdaa05f6414ab9c4ae71d358b087e972c11874e7c3e9c7c79c61e23aa61062861279536610584565b6127a093919361430c565b6127a861430c565b6001600160a01b0383165f818152600260209081526040808320634701287760e11b84529091529020600160ff198254161790555f52600360205260405f20600160ff19825416179055612800610b07600454613dea565b5f805160206157498339815191526040518061281e84888884613ec8565b0390a161282c81858561401c565b6001600160a01b0383165f908152600c6020526040902061134e90805460ff19166001179055565b34610513576107f561286536610584565b91610cdf61430c565b34610513576107f561287f36610584565b9161288861430c565b61289061430c565b6001600160a01b0381165f81815260026020908152604080832063617ba03760e01b84529091529020600160ff198254161790555f52600360205260405f20600160ff198254161790556128e8610b07600454613dea565b5f805160206157498339815191526040518061290686868684613ef7565b0390a1610b43838383613cd0565b34610513577ff9a414ea26a64e12a2abdb23706ec196a42adeb564668fb73f46555fbd2336c261062861294636610584565b61295193919361430c565b6001600160a01b0383165f908152600a602052604090819020805460ff191690555193849384612bab565b34610513576020366003190112610513576107f560043561299c81610502565b6129a461430c565b6142ae565b34610513576020366003190112610513576004356129c681610502565b604051637c23ab5560e11b81526001600160a01b03909116600482015260208160248173__$c49bf44a3286d065a371d69fbc4a0c0f99$__5af480156107f7576109e0915f916109e4575060405191829182901515815260200190565b34610513577f9ca3f065622f5f03f32b7157677a0e420c3a36ab45fd49f256ffebce3e310587610628612a5536610584565b612a6093919361430c565b6001600160a01b0383165f9081526005602052604090819020805460ff191690555193849384612bab565b34610513577fa8f9caaf4861720900294428e4ff34d37070c37afd26d96e6e4da75326d2c3ad610628612abd36610584565b612ac893919361430c565b6001600160a01b0383165f9081526006602052604090819020805460ff191660011790555193849384612bab565b3461051357602036600319011261051357600435612b1381610502565b604051631f5df1eb60e31b81526001600160a01b03909116600482015260208160248173__$b1eadc77501473dd7d6b2fe89954bce60e$__5af480156107f7576109e0915f916109e4575060405191829182901515815260200190565b34610513575f36600319011261051357602060405160018152f35b908060209392818452848401375f828201840152601f01601f1916010190565b6001600160a01b039091168152604060208201819052611bd593910191612b8b565b6040513d5f823e3d90fd5b908160209103126105135751611bd581612263565b61ffff611bd5959360609360018060a01b031683521660208201528160408201520191612b8b565b3d15612c3f573d90612c2682611cb5565b91612c346040519384611c92565b82523d5f602084013e565b606090565b15612c4b57565b60405162461bcd60e51b815260206004820152601560248201527410dbddd4ddd85c131a58881b9bdd081b1a5b9ad959605a1b6044820152606490fd5b929192612c9482611cb5565b91612ca26040519384611c92565b829481845281830111610513578281602093845f96015e010152565b9080601f83011215610513578151611bd592602001612c88565b602081830312610513578051906001600160401b03821161051357016060818303126105135760405191612d0b83611c72565b81516001600160401b0381116105135781612d27918401612cbe565b83526020820151612d3781610502565b602084015260408201516001600160401b03811161051357612d599201612cbe565b604082015290565b612dee5f8051602061574983398151915293612d7b61430c565b60018060a01b038316805f52600260205260405f2063ffffffff60e01b631e51809360e31b165f5260205260405f20600160ff198254161790555f52600360205260405f20600160ff19825416179055612dd9610b07600454613dea565b604051938493631e51809360e31b9085613f55565b0390a1565b612dee5f8051602061574983398151915293612e0d61430c565b60018060a01b038316805f52600260205260405f2063ffffffff60e01b63b858183f60e01b165f5260205260405f20600160ff198254161790555f52600360205260405f20600160ff19825416179055612e6b610b07600454613dea565b60405193849363b858183f60e01b9085613f55565b612dee5f8051602061574983398151915293612e9a61430c565b60018060a01b038316805f52600260205260405f2063ffffffff60e01b635c11d79560e01b165f5260205260405f20600160ff198254161790555f52600360205260405f20600160ff19825416179055612ef8610b07600454613dea565b604051938493635c11d79560e01b9085613f55565b612dee5f8051602061574983398151915293612f2761430c565b60018060a01b038316805f52600260205260405f2063ffffffff60e01b638a85708360e01b165f5260205260405f20600160ff198254161790555f52600360205260405f20600160ff19825416179055612f85610b07600454613dea565b604051938493638a85708360e01b9085613f55565b612dee5f8051602061574983398151915293612fb461430c565b60018060a01b038316805f52600260205260405f2063ffffffff60e01b63d20191bd60e01b165f5260205260405f20600160ff198254161790555f52600360205260405f20600160ff19825416179055613012610b07600454613dea565b60405193849363d20191bd60e01b9085613f55565b612dee5f805160206157498339815191529361304161430c565b60018060a01b038316805f52600260205260405f2063ffffffff60e01b631792c03f60e11b165f5260205260405f20600160ff198254161790555f52600360205260405f20600160ff1982541617905561309f610b07600454613dea565b604051938493631792c03f60e11b9085613f55565b612dee5f80516020615749833981519152936130ce61430c565b60018060a01b038316805f52600260205260405f2063ffffffff60e01b63a03d55e360e01b165f5260205260405f20600160ff198254161790555f52600360205260405f20600160ff1982541617905561312c610b07600454613dea565b60405193849363a03d55e360e01b9085613f55565b612dee5f805160206157498339815191529361315b61430c565b60018060a01b038316805f52600260205260405f2063ffffffff60e01b63692652c560e11b165f5260205260405f20600160ff198254161790555f52600360205260405f20600160ff198254161790556131b9610b07600454613dea565b60405193849363692652c560e11b9085613f55565b612dee5f80516020615749833981519152936131e861430c565b60018060a01b038316805f52600260205260405f2063ffffffff60e01b635313efb360e11b165f5260205260405f20600160ff198254161790555f52600360205260405f20600160ff19825416179055613246610b07600454613dea565b604051938493635313efb360e11b9085613f55565b612dee5f805160206157498339815191529361327561430c565b60018060a01b038316805f52600260205260405f2063ffffffff60e01b636e553f6560e01b165f5260205260405f20600160ff198254161790555f52600360205260405f20600160ff198254161790556132d3610b07600454613dea565b604051938493636e553f6560e01b9085613f55565b612dee5f805160206157498339815191529361330261430c565b60018060a01b038316805f52600260205260405f2063ffffffff60e01b632d182be560e21b165f5260205260405f20600160ff198254161790555f52600360205260405f20600160ff19825416179055613360610b07600454613dea565b604051938493632d182be560e21b9085613f55565b612dee5f805160206157498339815191529361338f61430c565b60018060a01b038316805f52600260205260405f2063ffffffff60e01b635d043b2960e11b165f5260205260405f20600160ff198254161790555f52600360205260405f20600160ff198254161790556133ed610b07600454613dea565b604051938493635d043b2960e11b9085613f55565b612dee5f805160206157498339815191529361341c61430c565b60018060a01b038316805f52600260205260405f2063ffffffff60e01b63983c676d60e01b165f5260205260405f20600160ff198254161790555f52600360205260405f20600160ff1982541617905561347a610b07600454613dea565b60405193849363983c676d60e01b9085613f55565b612dee5f80516020615749833981519152936134a961430c565b60018060a01b038316805f52600260205260405f2063ffffffff60e01b638dbdbe6d60e01b165f5260205260405f20600160ff198254161790555f52600360205260405f20600160ff19825416179055613507610b07600454613dea565b604051938493638dbdbe6d60e01b9085613f55565b612dee5f805160206157498339815191529361353661430c565b60018060a01b038316805f52600260205260405f2063ffffffff60e01b62b4d4cb60e11b165f5260205260405f20600160ff198254161790555f52600360205260405f20600160ff19825416179055613593610b07600454613dea565b60405193849362b4d4cb60e11b9085613f55565b612dee5f80516020615749833981519152936135c161430c565b60018060a01b038316805f52600260205260405f2063ffffffff60e01b630b8b4a6160e21b165f5260205260405f20600160ff198254161790555f52600360205260405f20600160ff1982541617905561361f610b07600454613dea565b604051938493630b8b4a6160e21b9085613f55565b612dee5f805160206157498339815191529361364e61430c565b60018060a01b038316805f52600260205260405f2063ffffffff60e01b633ea0e43760e11b165f5260205260405f20600160ff198254161790555f52600360205260405f20600160ff198254161790556136ac610b07600454613dea565b604051938493633ea0e43760e11b9085613f55565b612dee5f80516020615749833981519152936136db61430c565b60018060a01b038316805f52600260205260405f2063ffffffff60e01b6319792d1d60e11b165f5260205260405f20600160ff198254161790555f52600360205260405f20600160ff19825416179055613739610b07600454613dea565b6040519384936319792d1d60e11b9085613f55565b612dee5f805160206157498339815191529361376861430c565b60018060a01b038316805f52600260205260405f2063ffffffff60e01b6385b77f4560e01b165f5260205260405f20600160ff198254161790555f52600360205260405f20600160ff198254161790556137c6610b07600454613dea565b6040519384936385b77f4560e01b9085613f55565b612dee5f80516020615749833981519152936137f561430c565b60018060a01b038316805f52600260205260405f2063ffffffff60e01b63a8abe90560e01b165f5260205260405f20600160ff198254161790555f52600360205260405f20600160ff19825416179055613853610b07600454613dea565b60405193849363a8abe90560e01b9085613f55565b612dee5f805160206157498339815191529361388261430c565b60018060a01b038316805f52600260205260405f2063ffffffff60e01b630d1e666760e01b165f5260205260405f20600160ff198254161790555f52600360205260405f20600160ff198254161790556138e0610b07600454613dea565b604051938493630d1e666760e01b9085613f55565b612dee5f805160206157498339815191529361390f61430c565b60018060a01b038316805f52600260205260405f2063ffffffff60e01b63036bdad760e61b165f5260205260405f20600160ff198254161790555f52600360205260405f20600160ff1982541617905561396d610b07600454613dea565b60405193849363036bdad760e61b9085613f55565b612dee5f805160206157498339815191529361399c61430c565b60018060a01b038316805f52600260205260405f2063ffffffff60e01b633786fe4360e11b165f5260205260405f20600160ff198254161790555f52600360205260405f20600160ff198254161790556139fa610b07600454613dea565b604051938493633786fe4360e11b9085613f55565b612dee5f8051602061574983398151915293613a2961430c565b60018060a01b038316805f52600260205260405f2063ffffffff60e01b63d46a0a4f60e01b165f5260205260405f20600160ff198254161790555f52600360205260405f20600160ff19825416179055613a87610b07600454613dea565b60405193849363d46a0a4f60e01b9085613f55565b612dee5f8051602061574983398151915293613ab661430c565b60018060a01b038316805f52600260205260405f2063ffffffff60e01b63745400c960e01b165f5260205260405f20600160ff198254161790555f52600360205260405f20600160ff19825416179055613b14610b07600454613dea565b60405193849363745400c960e01b9085613f55565b612dee5f8051602061574983398151915293613b4361430c565b60018060a01b038316805f52600260205260405f2063ffffffff60e01b63dd9cc05360e01b165f5260205260405f20600160ff198254161790555f52600360205260405f20600160ff19825416179055613ba1610b07600454613dea565b60405193849363dd9cc05360e01b9085613f55565b612dee5f8051602061574983398151915293613bd061430c565b60018060a01b038316805f52600260205260405f2063ffffffff60e01b630332eee160e11b165f5260205260405f20600160ff198254161790555f52600360205260405f20600160ff19825416179055613c2e610b07600454613dea565b604051938493630332eee160e11b9085613f55565b612dee5f8051602061574983398151915293613c5d61430c565b60018060a01b038316805f52600260205260405f2063ffffffff60e01b634c267cb160e11b165f5260205260405f20600160ff198254161790555f52600360205260405f20600160ff19825416179055613cbb610b07600454613dea565b604051938493634c267cb160e11b9085613f55565b612dee5f8051602061574983398151915293613cea61430c565b60018060a01b038316805f52600260205260405f2063ffffffff60e01b631a4ca37b60e21b165f5260205260405f20600160ff198254161790555f52600360205260405f20600160ff19825416179055613d48610b07600454613dea565b604051938493631a4ca37b60e21b9085613f55565b612dee5f8051602061574983398151915293613d7761430c565b60018060a01b038316805f52600260205260405f2063ffffffff60e01b63095ea7b360e01b165f5260205260405f20600160ff198254161790555f52600360205260405f20600160ff19825416179055613dd5610b07600454613dea565b60405193849363095ea7b360e01b9085613f55565b5f198114613df85760010190565b634e487b7160e01b5f52601160045260245ffd5b6001600160a01b03909116815263c04b8d5960e01b6020820152606060408201819052611bd593910191612b8b565b6001600160a01b0390911681526338ed173960e01b6020820152606060408201819052611bd593910191612b8b565b6001600160a01b03909116815263559ec80d60e01b6020820152606060408201819052611bd593910191612b8b565b6001600160a01b039091168152630c04a8a160e41b6020820152606060408201819052611bd593910191612b8b565b6001600160a01b039091168152634701287760e11b6020820152606060408201819052611bd593910191612b8b565b6001600160a01b03909116815263617ba03760e01b6020820152606060408201819052611bd593910191612b8b565b6001600160a01b03909116815263a9059cbb60e01b6020820152606060408201819052611bd593910191612b8b565b6001600160a01b0390911681526001600160e01b03199091166020820152606060408201819052611bd593910191612b8b565b6001600160a01b03918216815291811660208301529091166040820152608060608201819052611bd593910191612b8b565b634e487b7160e01b5f52603260045260245ffd5b9190811015613fde5760051b0190565b613fba565b35611bd581610502565b908160209103126105135751611bd581610502565b612dee5f8051602061570983398151915293611a9061430c565b612dee5f8051602061566983398151915293611b7261430c565b61403e61563d565b61404661563d565b61404f336142ae565b6040818051810103126105135780604060206141029301519161407183610502565b015161407c81610502565b6001600160a01b031661408d61430c565b5f80546001600160a01b031981168317825582916001600160a01b03909116905f805160206156898339815191529080a36140c661430c565b600180546001600160a01b0319811683179091556001600160a01b03165f805160206156c98339815191525f80a36001600160a01b03166142a2565b565b6001600160401b038111611c8d5760051b60200190565b9061412582614104565b6141326040519182611c92565b8281528092614143601f1991614104565b01905f5b82811061415357505050565b806060602080938501015201614147565b9190811015613fde5760051b81013590601e19813603018212156105135701803591906001600160401b038311610513576020018236038113610513579190565b908092918237015f815290565b602081830312610513578051906001600160401b03821161051357019080601f83011215610513578151611bd592602001612c88565b8051821015613fde5760209160051b010190565b60409063ffffffff611bd595931681528160208201520191612b8b565b60ff600e541690811561422a575090565b6001600160a01b03165f9081526005602052604090205460ff16919050565b1561425057565b60405162461bcd60e51b815260206004820152601460248201527315995b1bdc98531a58881b9bdd081b1a5b9ad95960621b6044820152606490fd5b9190826040910312610513576020825192015190565b614102906129a461430c565b6001600160a01b031680156142f9575f805160206156a983398151915280546001600160a01b0319811683179091556001600160a01b03165f805160206156e98339815191525f80a3565b631e4fbdf760e01b5f525f60045260245ffd5b5f805160206156a9833981519152546001600160a01b0316330361432c57565b63118cdaa760e01b5f523360045260245ffd5b90614102929161434d61430c565b60018060a01b038116805f52600260205260405f2063a9059cbb60e01b5f5260205260405f20600160ff198254161790555f52600360205260405f20600160ff198254161790556143a2610b07600454613dea565b5f80516020615749833981519152604051806143c086868684613f26565b0390a16143ce838383613d5d565b614002565b156143da57565b60405162461bcd60e51b815260206004820152601260248201527114d95b99195c881b9bdd08185b1b1bddd95960721b6044820152606490fd5b906004116105135790600490565b909291928360041161051357831161051357600401916003190190565b356001600160e01b031981169291906004821061445a575050565b6001600160e01b031960049290920360031b82901b16169150565b1561447c57565b60405162461bcd60e51b815260206004820152601260248201527115185c99d95d081b9bdd08185b1b1bddd95960721b6044820152606490fd5b156144bd57565b60405162461bcd60e51b815260206004820152601460248201527314d95b1958dd1bdc881b9bdd08185b1b1bddd95960621b6044820152606490fd5b1561450057565b60405162461bcd60e51b8152602060048201526015602482015274131a59da1d195c931a58881b9bdd081b1a5b9ad959605a1b6044820152606490fd5b93614572926060949297969763ffffffff60e01b16865260018060a01b03166020860152608060408601526080850191612b8b565b931515910152565b1561458157565b60405162461bcd60e51b815260206004820152601c60248201527b121e5c195c98dbdc9955985d5b1d131a58881b9bdd081b1a5b9ad95960221b6044820152606490fd5b156145cc57565b60405162461bcd60e51b815260206004820152601160248201527011db5e131a58881b9bdd081b1a5b9ad959607a1b6044820152606490fd5b92916040926145729296959660018060a01b03168552606060208601526060850191612b8b565b1561463357565b60405162461bcd60e51b815260206004820152601e60248201527f53776170526f75746572303220726571756972657320616e79417373657400006044820152606490fd5b9160209161457291959495604085526040850191612b8b565b916020611bd5938181520191612b8b565b9091926146d16146c560018060a01b035f805160206156a9833981519152541690565b6001600160a01b031690565b6001600160a01b03831614614ff85761470f61470a6147036147299460018060a01b03165f52600660205260405f2090565b5460ff1690565b6143d3565b8061472361471d8287614414565b9061443f565b94614422565b919092614738600e5460ff1690565b80614fde575b6001600160e01b03198216906317938e1360e01b8214801591819083614fcd575b8115614fbc575b159081614fb3575b50614f50575b6338ed173960e01b83148015614f40575b156147ee5750505050509073__$0e99dd572d354182f948ac1bae4d23aed1$__91823b1561051357604051625e769d60e91b8152925f928492839182916147cf9160048401614691565b03915af480156107f7576147e05750565b806107ef5f61410293611c92565b63c04b8d5960e01b83036148425750505050509073__$0e99dd572d354182f948ac1bae4d23aed1$__91823b1561051357604051632c69e61160e11b8152925f928492839182916147cf9160048401614691565b631e51809360e31b83036148965750505050509073__$0e99dd572d354182f948ac1bae4d23aed1$__91823b156105135760405163fdf3722360e01b8152925f928492839182916147cf9160048401614691565b63b858183f60e01b83036148fe575050505050906148b6600e5460ff1690565b6148bf8161462c565b73__$0e99dd572d354182f948ac1bae4d23aed1$__803b15610513576147cf935f93604051958694859384936331dc39a360e01b855260048501614678565b63a9059cbb60e01b830361492557505050505061410291614920913691611cd0565b615606565b63095ea7b360e01b830361494c57505050505061410291614947913691611cd0565b61558e565b630c04a8a160e41b83036149735750505050506141029161496e913691611cd0565b615514565b63617ba03760e01b830361499a57505050505061410291614995913691611cd0565b6154d1565b631a4ca37b60e21b83036149c1575050505050614102916149bc913691611cd0565b61549c565b93949363559ec80d60e01b83148015614f30575b8015614f20575b8015614f10575b156149f75750505050506141029150615402565b939493636e553f6560e01b8303614a2157505050505061410291614a1c913691611cd0565b615362565b630b8b4a6160e21b8303614a4857505050505061410291614a43913691611cd0565b61539f565b638dbdbe6d60e01b8303614a6f57505050505061410291614a6a913691611cd0565b6153e8565b62b4d4cb60e11b8303614a9557505050505061410291614a90913691611cd0565b6153c7565b632d182be560e21b8303614ab757505050505061410291614a43913691611cd0565b635d043b2960e11b8303614ad957505050505061410291614a43913691611cd0565b63983c676d60e01b8303614afb57505050505061410291614a1c913691611cd0565b633ea0e43760e11b8303614b1d57505050505061410291614a43913691611cd0565b6319792d1d60e11b8303614b3f57505050505061410291614a43913691611cd0565b6385b77f4560e01b8303614b6157505050505061410291614a43913691611cd0565b63a8abe90560e01b8303614b8357505050505061410291614a1c913691611cd0565b939493630d1e666760e01b83148015614f00575b8015614ef0575b8015614ee0575b8015614ed0575b8015614ec0575b8015614eb0575b8015614ea0575b15614bd0575b50505050505050565b631592ca1b60e31b8303614ca4575050505073__$bda5499a8fa48831c49ec55d96dbc8aee1$__604051636290236f60e11b8152602081600481855af480156107f757614c24915f91614c85575b506145c5565b600e5460ff1693813b15610513575f93614c5460405196879586948594633bf8b9bb60e11b865260048601614605565b03915af480156107f757614c71575b505b5f808080808080614bc7565b806107ef5f614c7f93611c92565b5f614c63565b614c9e915060203d602011610a0c576109fe8183611c92565b5f614c1e565b9295939492634701287760e11b8303614cc957505050614cc49350615243565b614c65565b95949590614e90575b8015614e80575b15614d9b5750604051636290236f60e11b815273__$f9fa4d4e532bfe6aeff5ab3d328fd72bc7$__9190602081600481865af480156107f757614d23915f91614d7c575b5061457a565b600e5460ff1693823b1561051357614d535f956040519788968795869563f42001eb60e01b87526004870161453d565b03915af480156107f757614d68575b50614c65565b806107ef5f614d7693611c92565b5f614d62565b614d95915060203d602011610a0c576109fe8183611c92565b5f614d1d565b638a85708360e01b8114908115614e6f575b8115614e5e575b5015614e1d57604051636290236f60e11b815273__$b1eadc77501473dd7d6b2fe89954bce60e$__9190602081600481865af480156107f757614d23915f91614dfe575b506144f9565b614e17915060203d602011610a0c576109fe8183611c92565b5f614df8565b60405162461bcd60e51b81526020600482015260196024820152782ab735b737bbb710333ab731ba34b7b71039b2b632b1ba37b960391b6044820152606490fd5b631792c03f60e11b1490505f614db4565b63d20191bd60e01b81149150614dad565b5063611e2a2d60e11b8114614cd9565b50630acb7f4b60e21b8114614cd2565b50634c267cb160e11b8314614bc1565b50630332eee160e11b8314614bba565b5063dd9cc05360e01b8314614bb3565b5063745400c960e01b8314614bac565b5063d46a0a4f60e01b8314614ba5565b50633786fe4360e11b8314614b9e565b5063036bdad760e61b8314614b97565b50635313efb360e11b83146149e3565b5063692652c560e11b83146149dc565b5063a03d55e360e01b83146149d5565b50635c11d79560e01b8314614785565b614f68611d6f61470386614f638961062d565b611ed2565b15614774576001600160a01b0385165f908152600360205260409020614f9690614f9190614703565b614475565b614fae614fa961470386614f638961062d565b6144b6565b614774565b9050155f61476e565b63611e2a2d60e11b85149150614766565b630acb7f4b60e21b8514915061475f565b5063095ea7b360e01b6001600160e01b031982161461473e565b50505050565b91909160408184031261051357805161501681612263565b60208201519093906001600160401b03811161051357611bd59201612cbe565b600154604051635229073f60e01b81526001600160a01b0392831660048201525f6024820181905260806044830152909493909285921690829084908290615082906084830190611ba0565b82606483015203925af19182156107f7575f905f936150a057509190565b90506105bc9192503d805f833e6150b78183611c92565b810190614ffe565b600154604051635229073f60e01b81526001600160a01b0392831660048201526024810193909352608060448401529193925f9285921690829084908290615082906084830190611ba0565b156151135750565b602081519101fd5b908160e091031261051357803591615135602083016117fa565b91604081013591606082013561514a81610502565b91608081013591611bd560c060a084013593016117fa565b1561516957565b60405162461bcd60e51b815260206004820152601c60248201527b10d0d5140819195cdd1a5b985d1a5bdb881b9bdd08185b1b1bddd95960221b6044820152606490fd5b156151b457565b60405162461bcd60e51b815260206004820152601b60248201527a10d0d51408189d5c9b881d1bdad95b881b9bdd08185b1b1bddd959602a1b6044820152606490fd5b156151fe57565b60405162461bcd60e51b815260206004820152601f60248201527f43435450206d696e7420726563697069656e74206e6f7420616c6c6f776564006044820152606490fd5b6001600160a01b03165f908152600c602052604090205460ff16156152d9576147036147036152bb6152b66152a36152a861528787614102996152d499019061511b565b505050949250969063ffffffff165f52600d60205260405f2090565b615162565b6001600160a01b0316614219565b6151ad565b6001600160a01b03165f90815260076020526040902090565b6151f7565b60405162461bcd60e51b815260206004820152601a60248201527910d0d514081b595cdcd95b99d95c881b9bdd08185b1b1bddd95960321b6044820152606490fd5b1561532257565b60405162461bcd60e51b8152602060048201526018602482015277149958d95a5d995c881b9bdd081dda1a5d195b1a5cdd195960421b6044820152606490fd5b604081805181010312610513576040015161537c81610502565b6001600160a01b03165f908152600760205260409020546141029060ff1661531b565b6060818051810103126105135761537c60606040830151926153c084610502565b0151610502565b6080818051810103126105135761537c60806060830151926153c084610502565b606081805181010312610513576060015161537c81610502565b6001600160a01b03165f908152600b602052604090205460ff161561542357565b60405162461bcd60e51b815260206004820152601160248201527015985d5b1d081b9bdd08185b1b1bddd959607a1b6044820152606490fd5b1561546357565b60405162461bcd60e51b8152602060048201526011602482015270151bdad95b881b9bdd08185b1b1bddd959607a1b6044820152606490fd5b6060818051810103126105135761537c6154cc60606020840151936154c085610502565b0151926152a884610502565b61545c565b6080818051810103126105135761537c6154cc60606020840151936154c085610502565b9190826040910312610513576020825161550e81610502565b92015190565b61552790602080825183010191016154f5565b506001600160a01b03165f908152600a602052604090205460ff161561554957565b60405162461bcd60e51b815260206004820152601e60248201527f44656c65676174696f6e2061646472657373206e6f7420616c6c6f77656400006044820152606490fd5b6155a190602080825183010191016154f5565b506001600160a01b03165f9081526009602052604090205460ff16156155c357565b60405162461bcd60e51b815260206004820152601b60248201527a105c1c1c9bdd99481859191c995cdcc81b9bdd08185b1b1bddd959602a1b6044820152606490fd5b61561990602080825183010191016154f5565b506001600160a01b03165f908152600860205260409020546141029060ff1661531b565b60ff5f805160206157298339815191525460401c161561565957565b631afcd79f60e31b5f5260045ffdfe628a44970c0e450415e3ae74334ea44f3307b74dbf677a1371190242bf2f358952ae88b092de36f87fb43fe794eb1381023b9c1bce563a871154022c63dce3429016d09d72d40fdae2fd8ceac6b6234c7706214fd39c1cd1e609a0528c19930090cc2f570a6eb594b1580ea3e41247d2d73a55281889e86bd4ec2fc29c7e62d68be0079c531659141344cd1fd0a4f28419497f9722a3daafe3b4186f6b6457e0ad90e2570fc4fe9f7437be3188d5c791c6662892d31731992aa88f5c87621983f0c57e16840df040f15088dc2f81fe391c3923bec73e23a9662efc9c229c6a00ef729aaa41b9fd994f9ff7c1960df214a84f722002e6cfbea31799cd0873a3efa164736f6c634300081a000af0c57e16840df040f15088dc2f81fe391c3923bec73e23a9662efc9c229c6a00","linkReferences":{"../guard/src/lib/CowSwapLib.sol":{"CowSwapLib":[{"start":2911,"length":20},{"start":3616,"length":20},{"start":4630,"length":20}]},"../guard/src/lib/GmxLib.sol":{"GmxLib":[{"start":3442,"length":20},{"start":4927,"length":20},{"start":6556,"length":20},{"start":8949,"length":20},{"start":10050,"length":20},{"start":10814,"length":20},{"start":20399,"length":20}]},"../guard/src/lib/HypercoreVaultLib.sol":{"HypercoreVaultLib":[{"start":3271,"length":20},{"start":9413,"length":20},{"start":10895,"length":20},{"start":20665,"length":20}]},"../guard/src/lib/LighterLib.sol":{"LighterLib":[{"start":4273,"length":20},{"start":5215,"length":20},{"start":12035,"length":20},{"start":20884,"length":20}]},"../guard/src/lib/UniswapLib.sol":{"UniswapLib":[{"start":19293,"length":20},{"start":19407,"length":20},{"start":19491,"length":20},{"start":19596,"length":20}]},"../guard/src/lib/VeloraLib.sol":{"VeloraLib":[{"start":5085,"length":20},{"start":10227,"length":20},{"start":11702,"length":20}]}}},"methodIdentifiers":{"allowApprovalDestination(address,string)":"98b3cc39","allowAsset(address,string)":"86b6dbe5","allowCallSite(address,bytes4,string)":"5e4ccace","allowDelegationApprovalDestination(address,string)":"63cc17f2","allowReceiver(address,string)":"72e548a9","allowSender(address,string)":"fa2c59c8","allowWithdrawDestination(address,string)":"5ace1d92","allowedApprovalDestinations(address)":"eb0de042","allowedAssets(address)":"a4c1cccb","allowedCCTPDestinations(uint32)":"7cac69c3","allowedCCTPMessengers(address)":"07605342","allowedCallSites(address,bytes4)":"a847cf4d","allowedDelegationApprovalDestinations(address)":"4b941268","allowedLagoonVaults(address)":"8fb4dff2","allowedReceivers(address)":"3cf20025","allowedSenders(address)":"fadbcf48","allowedTargets(address)":"b8fe8d5f","allowedWithdrawDestinations(address)":"07ef00cf","anyAsset()":"87301608","avatar()":"5aef7de6","callSiteCount()":"a9fc3d4f","getGovernanceAddress()":"73252494","getInternalVersion()":"fdedfa27","getTradingStrategyModuleVersion()":"9e4a83cf","gmxOrderVaults(address)":"a86ddc57","isAllowedApprovalDestination(address)":"1d49039c","isAllowedAsset(address)":"c537bed0","isAllowedCCTPDestination(uint32)":"748fca46","isAllowedCCTPMessenger(address)":"0411fb8e","isAllowedCallSite(address,bytes4)":"713ebf3b","isAllowedCowSwap(address)":"333f22e8","isAllowedDelegationApprovalDestination(address)":"2dc32a61","isAllowedGMXMarket(address)":"2e31e9c6","isAllowedGMXRouter(address)":"cbdb1dcf","isAllowedLagoonVault(address)":"6fd7fdef","isAllowedLighter(address)":"faef8f58","isAllowedLighterAssetIndex(uint16)":"4f97d805","isAllowedReceiver(address)":"d075f9bb","isAllowedSender(address)":"be8c97b0","isAllowedTarget(address)":"78addb48","isAllowedVeloraSwapper(address)":"f84756aa","isAllowedWithdrawDestination(address)":"efb47bff","multicall(bytes[])":"ac9650d8","owner()":"8da5cb5b","performCall(address,bytes)":"d2f73e3d","performCall(address,bytes,uint256)":"486295dc","removeApprovalDestination(address,string)":"04a3ba25","removeAsset(address,string)":"f901dc33","removeCCTPDestination(uint32,string)":"ba44ad41","removeCallSite(address,bytes4,string)":"d7334c9d","removeDelegationApprovalDestination(address,string)":"f259a073","removeGMXMarket(address,string)":"4d3d31ca","removeHypercoreVault(address,string)":"e2873b6d","removeReceiver(address,string)":"2d12d788","removeSender(address,string)":"a67e1f54","removeWithdrawDestination(address,string)":"8c2fdf9e","renounceOwnership()":"715018a6","setAnyAssetAllowed(bool,string)":"c2e657ae","setAvatar(address)":"086cfca8","setTarget(address)":"776d1a01","setUp(bytes)":"a4f9edbf","swapAndValidateCowSwap(address,address,bytes32,address,address,uint256,uint256)":"4acf884d","swapAndValidateVelora(address,address,address,address,uint256,uint256,bytes)":"d078377c","target()":"d4b83992","transferOwnership(address)":"f2fde38b","validateCall(address,address,bytes)":"6d5025f1","whitelistAaveV3(address,string)":"f20e85e0","whitelistCCTP(address,string)":"ec011440","whitelistCCTPDestination(uint32,string)":"e6f32c51","whitelistCoreWriter(address,address,string)":"acb9da16","whitelistCowSwap(address,address,string)":"1047789e","whitelistERC4626(address,string)":"86a6ae15","whitelistGMX(address,address,address,address[],string)":"6e3de202","whitelistGMXMarket(address,string)":"d7581509","whitelistHypercoreVault(address,string)":"2de905bc","whitelistLagoon(address,string)":"5e6afe4d","whitelistLighter(address,address,uint16,string)":"408694e3","whitelistToken(address,string)":"ee5462cc","whitelistTokenForDelegation(address,string)":"6d9a1423","whitelistUniswapV2Router(address,string)":"3ea35551","whitelistUniswapV3Router(address,string)":"34ec8d7e","whitelistVelora(address,address,string)":"4efbad39"},"id":41}