{"abi":[{"type":"constructor","inputs":[{"name":"_registry","type":"address","internalType":"address"},{"name":"_implementation","type":"address","internalType":"address"},{"name":"_owner","type":"address","internalType":"address"},{"name":"_wrappedNativeToken","type":"address","internalType":"address"}],"stateMutability":"nonpayable"},{"type":"function","name":"REGISTRY","inputs":[],"outputs":[{"name":"","type":"address","internalType":"address"}],"stateMutability":"view"},{"type":"function","name":"WRAPPED_NATIVE","inputs":[],"outputs":[{"name":"","type":"address","internalType":"address"}],"stateMutability":"view"},{"type":"function","name":"createBeaconProxy","inputs":[{"name":"init","type":"bytes","internalType":"bytes"},{"name":"salt","type":"bytes32","internalType":"bytes32"}],"outputs":[{"name":"","type":"address","internalType":"address"}],"stateMutability":"nonpayable"},{"type":"function","name":"createVaultProxy","inputs":[{"name":"init","type":"tuple","internalType":"struct InitStruct","components":[{"name":"underlying","type":"address","internalType":"address"},{"name":"name","type":"string","internalType":"string"},{"name":"symbol","type":"string","internalType":"string"},{"name":"safe","type":"address","internalType":"address"},{"name":"whitelistManager","type":"address","internalType":"address"},{"name":"valuationManager","type":"address","internalType":"address"},{"name":"admin","type":"address","internalType":"address"},{"name":"feeReceiver","type":"address","internalType":"address"},{"name":"managementRate","type":"uint16","internalType":"uint16"},{"name":"performanceRate","type":"uint16","internalType":"uint16"},{"name":"enableWhitelist","type":"bool","internalType":"bool"},{"name":"rateUpdateCooldown","type":"uint256","internalType":"uint256"}]},{"name":"salt","type":"bytes32","internalType":"bytes32"}],"outputs":[{"name":"","type":"address","internalType":"address"}],"stateMutability":"nonpayable"},{"type":"function","name":"implementation","inputs":[],"outputs":[{"name":"","type":"address","internalType":"address"}],"stateMutability":"view"},{"type":"function","name":"instances","inputs":[{"name":"","type":"uint256","internalType":"uint256"}],"outputs":[{"name":"","type":"address","internalType":"address"}],"stateMutability":"view"},{"type":"function","name":"isInstance","inputs":[{"name":"","type":"address","internalType":"address"}],"outputs":[{"name":"","type":"bool","internalType":"bool"}],"stateMutability":"view"},{"type":"function","name":"owner","inputs":[],"outputs":[{"name":"","type":"address","internalType":"address"}],"stateMutability":"view"},{"type":"function","name":"renounceOwnership","inputs":[],"outputs":[],"stateMutability":"nonpayable"},{"type":"function","name":"transferOwnership","inputs":[{"name":"newOwner","type":"address","internalType":"address"}],"outputs":[],"stateMutability":"nonpayable"},{"type":"function","name":"upgradeTo","inputs":[{"name":"newImplementation","type":"address","internalType":"address"}],"outputs":[],"stateMutability":"nonpayable"},{"type":"event","name":"BeaconProxyDeployed","inputs":[{"name":"proxy","type":"address","indexed":false,"internalType":"address"},{"name":"deployer","type":"address","indexed":false,"internalType":"address"}],"anonymous":false},{"type":"event","name":"OwnershipTransferred","inputs":[{"name":"previousOwner","type":"address","indexed":true,"internalType":"address"},{"name":"newOwner","type":"address","indexed":true,"internalType":"address"}],"anonymous":false},{"type":"event","name":"Upgraded","inputs":[{"name":"implementation","type":"address","indexed":true,"internalType":"address"}],"anonymous":false},{"type":"error","name":"BeaconInvalidImplementation","inputs":[{"name":"implementation","type":"address","internalType":"address"}]},{"type":"error","name":"OwnableInvalidOwner","inputs":[{"name":"owner","type":"address","internalType":"address"}]},{"type":"error","name":"OwnableUnauthorizedAccount","inputs":[{"name":"account","type":"address","internalType":"address"}]}],"bytecode":{"object":"0x60c060405234801561000f575f80fd5b5060405161108438038061108483398101604081905261002e91610173565b8282806001600160a01b038116610063575f604051631e4fbdf760e01b815260040161005a91906101c4565b60405180910390fd5b61006c81610094565b50610076826100e3565b50506001600160a01b0393841660805290921660a052506101d89050565b5f80546001600160a01b038381166001600160a01b0319831681178455604051919092169283917f8be0079c531659141344cd1fd0a4f28419497f9722a3daafe3b4186f6b6457e09190a35050565b806001600160a01b03163b5f0361010f578060405163211eb15960e21b815260040161005a91906101c4565b600180546001600160a01b0319166001600160a01b0383169081179091556040517fbc7cd75a20ee27fd9adebab32041f755214dbc6bffa90cc0225b39da2e5c2d3b905f90a250565b80516001600160a01b038116811461016e575f80fd5b919050565b5f805f8060808587031215610186575f80fd5b61018f85610158565b935061019d60208601610158565b92506101ab60408601610158565b91506101b960608601610158565b905092959194509250565b6001600160a01b0391909116815260200190565b60805160a051610e7e6102065f395f818161017e015261027101525f818160a001526102500152610e7e5ff3fe608060405234801561000f575f80fd5b5060043610610097575f3560e01c806306433b1b1461009b5780633659cfe6146100d85780635c60da1b146100ed5780636b44e6be146100fe578063715018a6146101305780638da5cb5b1461013857806394888e7214610140578063a2f7b3a514610153578063b884496a14610166578063d999984d14610179578063f2fde38b146101a0575b5f80fd5b6100c27f000000000000000000000000000000000000000000000000000000000000000081565b6040516100cf9190610502565b60405180910390f35b6100eb6100e6366004610531565b6101b3565b005b6001546001600160a01b03166100c2565b61012061010c366004610531565b60026020525f908152604090205460ff1681565b60405190151581526020016100cf565b6100eb6101c7565b6100c26101da565b6100c261014e36600461054a565b6101e8565b6100c2610161366004610590565b610219565b6100c26101743660046105bb565b610241565b6100c27f000000000000000000000000000000000000000000000000000000000000000081565b6100eb6101ae366004610531565b6103af565b6101bb6103f2565b6101c481610424565b50565b6101cf6103f2565b6101d85f610499565b565b5f546001600160a01b031690565b5f610212836040516020016101fd91906106fd565b60405160208183030381529060405283610241565b9392505050565b60038181548110610228575f80fd5b5f918252602090912001546001600160a01b0316905081565b5f80823063660b88ee60e01b867f00000000000000000000000000000000000000000000000000000000000000007f00000000000000000000000000000000000000000000000000000000000000006040516024016102a293929190610877565b60408051601f198184030181529181526020820180516001600160e01b03166001600160e01b03199094169390931790925290516102df906104e8565b6102ea9291906108a9565b8190604051809103905ff5905080158015610307573d5f803e3d5ffd5b506001600160a01b0381165f818152600260209081526040808320805460ff191660019081179091556003805491820181559093527fc2575a0e9e593c00f959f8c92f12db2869c3395a3b0502d05e2516446f71f85b90920180546001600160a01b03191684179055815192835233908301529192507ffa8e336138457120a1572efbe25f72698abd5cca1c9be0bce42ad406ff350a2b910160405180910390a19392505050565b6103b76103f2565b6001600160a01b0381166103e9575f604051631e4fbdf760e01b81526004016103e09190610502565b60405180910390fd5b6101c481610499565b336103fb6101da565b6001600160a01b0316146101d8573360405163118cdaa760e01b81526004016103e09190610502565b806001600160a01b03163b5f03610450578060405163211eb15960e21b81526004016103e09190610502565b600180546001600160a01b0319166001600160a01b0383169081179091556040517fbc7cd75a20ee27fd9adebab32041f755214dbc6bffa90cc0225b39da2e5c2d3b905f90a250565b5f80546001600160a01b038381166001600160a01b0319831681178455604051919092169283917f8be0079c531659141344cd1fd0a4f28419497f9722a3daafe3b4186f6b6457e09190a35050565b610574806108d583390190565b6001600160a01b03169052565b6001600160a01b0391909116815260200190565b80356001600160a01b038116811461052c575f80fd5b919050565b5f60208284031215610541575f80fd5b61021282610516565b5f806040838503121561055b575f80fd5b82356001600160401b03811115610570575f80fd5b83016101808186031215610582575f80fd5b946020939093013593505050565b5f602082840312156105a0575f80fd5b5035919050565b634e487b7160e01b5f52604160045260245ffd5b5f80604083850312156105cc575f80fd5b82356001600160401b038111156105e1575f80fd5b8301601f810185136105f1575f80fd5b80356001600160401b0381111561060a5761060a6105a7565b604051601f8201601f19908116603f011681016001600160401b0381118282101715610638576106386105a7565b60405281815282820160200187101561064f575f80fd5b816020840160208301375f6020928201830152969401359450505050565b5f808335601e19843603018112610682575f80fd5b83016020810192503590506001600160401b038111156106a0575f80fd5b8036038213156106ae575f80fd5b9250929050565b81835281816020850137505f828201602090810191909152601f909101601f19169091010190565b803561ffff8116811461052c575f80fd5b8035801515811461052c575f80fd5b602081526107166020820161071184610516565b6104f5565b5f610724602084018461066d565b610180604085015261073b6101a0850182846106b5565b91505061074b604085018561066d565b848303601f190160608601526107628382846106b5565b9250505061077260608501610516565b61077f60808501826104f5565b5061078c60808501610516565b61079960a08501826104f5565b506107a660a08501610516565b6107b360c08501826104f5565b506107c060c08501610516565b6107cd60e08501826104f5565b506107da60e08501610516565b6107e86101008501826104f5565b506107f661010085016106dd565b61ffff81166101208501525061080f61012085016106dd565b61ffff81166101408501525061082861014085016106ee565b80151561016085015250610160939093013561018092909201919091525090565b5f81518084528060208401602086015e5f602082860101526020601f19601f83011685010191505092915050565b606081525f6108896060830186610849565b6001600160a01b0394851660208401529290931660409091015292915050565b6001600160a01b03831681526040602082018190525f906108cc90830184610849565b94935050505056fe60a06040526040516105743803806105748339810160408190526100229161033d565b61002c828261003e565b506001600160a01b0316608052610442565b610047826100fb565b6040516001600160a01b038316907f1cf3b03a6cf19fa2baba4df148e9dcabedea7f8a5c07840e207e5c089be95d3e905f90a28051156100ef576100ea826001600160a01b0316635c60da1b6040518163ffffffff1660e01b8152600401602060405180830381865afa1580156100c0573d5f803e3d5ffd5b505050506040513d601f19601f820116820180604052508101906100e491906103ff565b826101fb565b505050565b6100f761026e565b5050565b806001600160a01b03163b5f036101305780604051631933b43b60e21b81526004016101279190610418565b60405180910390fd5b807fa3f0ad74e5423aebfd80d3ef4346578335a9a72aeaee59ff6cb3582b35133d5080546001600160a01b0319166001600160a01b0392831617905560408051635c60da1b60e01b815290515f92841691635c60da1b9160048083019260209291908290030181865afa1580156101a9573d5f803e3d5ffd5b505050506040513d601f19601f820116820180604052508101906101cd91906103ff565b9050806001600160a01b03163b5f036100f75780604051634c9c8ce360e01b81526004016101279190610418565b60605f80846001600160a01b031684604051610217919061042c565b5f60405180830381855af49150503d805f811461024f576040519150601f19603f3d011682016040523d82523d5f602084013e610254565b606091505b50909250905061026585838361028f565b95945050505050565b341561028d5760405163b398979f60e01b815260040160405180910390fd5b565b6060826102a45761029f826102e5565b6102de565b81511580156102bb57506001600160a01b0384163b155b156102db5783604051639996b31560e01b81526004016101279190610418565b50805b9392505050565b8051156102f55780518082602001fd5b604051630a12f52160e11b815260040160405180910390fd5b80516001600160a01b0381168114610324575f80fd5b919050565b634e487b7160e01b5f52604160045260245ffd5b5f806040838503121561034e575f80fd5b6103578361030e565b60208401519092506001600160401b03811115610372575f80fd5b8301601f81018513610382575f80fd5b80516001600160401b0381111561039b5761039b610329565b604051601f8201601f19908116603f011681016001600160401b03811182821017156103c9576103c9610329565b6040528181528282016020018710156103e0575f80fd5b8160208401602083015e5f602083830101528093505050509250929050565b5f6020828403121561040f575f80fd5b6102de8261030e565b6001600160a01b0391909116815260200190565b5f82518060208501845e5f920191825250919050565b60805161011b6104595f395f601d015261011b5ff3fe6080604052600a600c565b005b60186014601a565b609d565b565b5f7f00000000000000000000000000000000000000000000000000000000000000006001600160a01b0316635c60da1b6040518163ffffffff1660e01b8152600401602060405180830381865afa1580156076573d5f803e3d5ffd5b505050506040513d601f19601f820116820180604052508101906098919060ba565b905090565b365f80375f80365f845af43d5f803e80801560b6573d5ff35b3d5ffd5b5f6020828403121560c9575f80fd5b81516001600160a01b038116811460de575f80fd5b939250505056fea2646970667358221220351cbe67f5b11e313031b9a7a95469c68f6c4bee9ec09a8ccac9e85388c09e5664736f6c634300081a0033a26469706673582212207417114e35e14f1216e62977dc7d4f359091a805acfe188d332440aa2a2f73e464736f6c634300081a0033","linkReferences":{}},"methodIdentifiers":{"REGISTRY()":"06433b1b","WRAPPED_NATIVE()":"d999984d","createBeaconProxy(bytes,bytes32)":"b884496a","createVaultProxy((address,string,string,address,address,address,address,address,uint16,uint16,bool,uint256),bytes32)":"94888e72","implementation()":"5c60da1b","instances(uint256)":"a2f7b3a5","isInstance(address)":"6b44e6be","owner()":"8da5cb5b","renounceOwnership()":"715018a6","transferOwnership(address)":"f2fde38b","upgradeTo(address)":"3659cfe6"},"storageLayout":{"storage":[{"astId":8,"contract":"src/protocol-v1/BeaconProxyFactory.sol:BeaconProxyFactory","label":"_owner","offset":0,"slot":"0","type":"t_address"},{"astId":962,"contract":"src/protocol-v1/BeaconProxyFactory.sol:BeaconProxyFactory","label":"_implementation","offset":0,"slot":"1","type":"t_address"},{"astId":54433,"contract":"src/protocol-v1/BeaconProxyFactory.sol:BeaconProxyFactory","label":"isInstance","offset":0,"slot":"2","type":"t_mapping(t_address,t_bool)"},{"astId":54437,"contract":"src/protocol-v1/BeaconProxyFactory.sol:BeaconProxyFactory","label":"instances","offset":0,"slot":"3","type":"t_array(t_address)dyn_storage"}],"types":{"t_address":{"encoding":"inplace","label":"address","numberOfBytes":"20"},"t_array(t_address)dyn_storage":{"encoding":"dynamic_array","label":"address[]","numberOfBytes":"32","base":"t_address"},"t_bool":{"encoding":"inplace","label":"bool","numberOfBytes":"1"},"t_mapping(t_address,t_bool)":{"encoding":"mapping","key":"t_address","label":"mapping(address => bool)","numberOfBytes":"32","value":"t_bool"}}},"id":80}