{"abi":[{"type":"function","name":"acceptOwnership","inputs":[],"outputs":[],"stateMutability":"nonpayable"},{"type":"function","name":"getRolesStorage","inputs":[],"outputs":[{"name":"_rolesStorage","type":"tuple","internalType":"struct Roles.RolesStorage","components":[{"name":"whitelistManager","type":"address","internalType":"address"},{"name":"feeReceiver","type":"address","internalType":"address"},{"name":"safe","type":"address","internalType":"address"},{"name":"feeRegistry","type":"address","internalType":"contract FeeRegistry"},{"name":"valuationManager","type":"address","internalType":"address"}]}],"stateMutability":"pure"},{"type":"function","name":"owner","inputs":[],"outputs":[{"name":"","type":"address","internalType":"address"}],"stateMutability":"view"},{"type":"function","name":"pendingOwner","inputs":[],"outputs":[{"name":"","type":"address","internalType":"address"}],"stateMutability":"view"},{"type":"function","name":"renounceOwnership","inputs":[],"outputs":[],"stateMutability":"nonpayable"},{"type":"function","name":"transferOwnership","inputs":[{"name":"newOwner","type":"address","internalType":"address"}],"outputs":[],"stateMutability":"nonpayable"},{"type":"function","name":"updateFeeReceiver","inputs":[{"name":"_feeReceiver","type":"address","internalType":"address"}],"outputs":[],"stateMutability":"nonpayable"},{"type":"function","name":"updateValuationManager","inputs":[{"name":"_valuationManager","type":"address","internalType":"address"}],"outputs":[],"stateMutability":"nonpayable"},{"type":"function","name":"updateWhitelistManager","inputs":[{"name":"_whitelistManager","type":"address","internalType":"address"}],"outputs":[],"stateMutability":"nonpayable"},{"type":"event","name":"FeeReceiverUpdated","inputs":[{"name":"oldReceiver","type":"address","indexed":false,"internalType":"address"},{"name":"newReceiver","type":"address","indexed":false,"internalType":"address"}],"anonymous":false},{"type":"event","name":"Initialized","inputs":[{"name":"version","type":"uint64","indexed":false,"internalType":"uint64"}],"anonymous":false},{"type":"event","name":"OwnershipTransferStarted","inputs":[{"name":"previousOwner","type":"address","indexed":true,"internalType":"address"},{"name":"newOwner","type":"address","indexed":true,"internalType":"address"}],"anonymous":false},{"type":"event","name":"OwnershipTransferred","inputs":[{"name":"previousOwner","type":"address","indexed":true,"internalType":"address"},{"name":"newOwner","type":"address","indexed":true,"internalType":"address"}],"anonymous":false},{"type":"event","name":"ValuationManagerUpdated","inputs":[{"name":"oldManager","type":"address","indexed":false,"internalType":"address"},{"name":"newManager","type":"address","indexed":false,"internalType":"address"}],"anonymous":false},{"type":"event","name":"WhitelistManagerUpdated","inputs":[{"name":"oldManager","type":"address","indexed":false,"internalType":"address"},{"name":"newManager","type":"address","indexed":false,"internalType":"address"}],"anonymous":false},{"type":"error","name":"InvalidInitialization","inputs":[]},{"type":"error","name":"NotInitializing","inputs":[]},{"type":"error","name":"OwnableInvalidOwner","inputs":[{"name":"owner","type":"address","internalType":"address"}]},{"type":"error","name":"OwnableUnauthorizedAccount","inputs":[{"name":"account","type":"address","internalType":"address"}]}],"bytecode":{"object":"0x6080604052348015600e575f80fd5b506106b58061001c5f395ff3fe608060405234801561000f575f80fd5b5060043610610090575f3560e01c8063937147e311610063578063937147e3146100de578063c69bebe41461020e578063e30c397814610221578063f1a76fcc14610229578063f2fde38b1461023c575f80fd5b806365ccfcef14610094578063715018a6146100a957806379ba5097146100b15780638da5cb5b146100b9575b5f80fd5b6100a76100a2366004610632565b61024f565b005b6100a76102ed565b6100a7610300565b6100c161034d565b6040516001600160a01b0390911681526020015b60405180910390f35b6040805160a080820183525f80835260208084018290528385018290526060808501839052608094850192909252845180840186525f80516020610660833981519152546001600160a01b039081168083527f7c302ed2c673c3d6b4551cf74a01ee649f887e14fd20d13dbca1b6099534d9015482168385019081527f7c302ed2c673c3d6b4551cf74a01ee649f887e14fd20d13dbca1b6099534d902548316848a019081527f7c302ed2c673c3d6b4551cf74a01ee649f887e14fd20d13dbca1b6099534d9035484168588019081527f7c302ed2c673c3d6b4551cf74a01ee649f887e14fd20d13dbca1b6099534d904548516958a019586528a5193845291518416958301959095529351821697810197909752915182169286019290925290511691830191909152016100d5565b6100a761021c366004610632565b610381565b6100c161041f565b6100a7610237366004610632565b610447565b6100a761024a366004610632565b6104cf565b610257610554565b7f27e018912099274c84ffbb1a48209e91c5b25727666d86b88a9d27c5abf4aa675f8051602061066083398151915260040154604080516001600160a01b03928316815291841660208301520160405180910390a17f7c302ed2c673c3d6b4551cf74a01ee649f887e14fd20d13dbca1b6099534d90480546001600160a01b0319166001600160a01b0392909216919091179055565b6102f5610554565b6102fe5f610586565b565b338061030a61041f565b6001600160a01b0316146103415760405163118cdaa760e01b81526001600160a01b03821660048201526024015b60405180910390fd5b61034a81610586565b50565b5f807f9016d09d72d40fdae2fd8ceac6b6234c7706214fd39c1cd1e609a0528c1993005b546001600160a01b031692915050565b610389610554565b7fa92ff4390fe6943f0b30e8fe715dde86f85ab79b2b2c640a10fc094cc4036cc85f8051602061066083398151915260010154604080516001600160a01b03928316815291841660208301520160405180910390a17f7c302ed2c673c3d6b4551cf74a01ee649f887e14fd20d13dbca1b6099534d90180546001600160a01b0319166001600160a01b0392909216919091179055565b5f807f237e158222e3e6968b72b9db0d8043aacf074ad9f650f0d1606b4d82ee432c00610371565b61044f610554565b7f1eee17fbeb6d1c008ca140cc7d787451b233547ba63af138cea3470a1faf33a55f8051602061066083398151915254604080516001600160a01b03928316815291841660208301520160405180910390a15f8051602061066083398151915280546001600160a01b0319166001600160a01b0392909216919091179055565b6104d7610554565b7f237e158222e3e6968b72b9db0d8043aacf074ad9f650f0d1606b4d82ee432c0080546001600160a01b0319166001600160a01b038316908117825561051b61034d565b6001600160a01b03167f38d16b8cac22d99fc7c124b9cd0de2d3fa1faef420bfe791d8c362d765e2270060405160405180910390a35050565b3361055d61034d565b6001600160a01b0316146102fe5760405163118cdaa760e01b8152336004820152602401610338565b7f237e158222e3e6968b72b9db0d8043aacf074ad9f650f0d1606b4d82ee432c0080546001600160a01b03191681556105be826105c2565b5050565b7f9016d09d72d40fdae2fd8ceac6b6234c7706214fd39c1cd1e609a0528c19930080546001600160a01b031981166001600160a01b03848116918217845560405192169182907f8be0079c531659141344cd1fd0a4f28419497f9722a3daafe3b4186f6b6457e0905f90a3505050565b5f60208284031215610642575f80fd5b81356001600160a01b0381168114610658575f80fd5b939250505056fe7c302ed2c673c3d6b4551cf74a01ee649f887e14fd20d13dbca1b6099534d900a264697066735822122022745ce26a1de3aa7f0517c8722e26d5fc2212d3c72fe6b90662aa6e6d3b6dd764736f6c634300081a0033","linkReferences":{}},"methodIdentifiers":{"acceptOwnership()":"79ba5097","getRolesStorage()":"937147e3","owner()":"8da5cb5b","pendingOwner()":"e30c3978","renounceOwnership()":"715018a6","transferOwnership(address)":"f2fde38b","updateFeeReceiver(address)":"c69bebe4","updateValuationManager(address)":"65ccfcef","updateWhitelistManager(address)":"f1a76fcc"},"storageLayout":{"storage":[],"types":{}},"id":85}