{"abi":[{"type":"constructor","inputs":[{"name":"underlying","type":"address","internalType":"contract IERC20"},{"name":"_wrappedNativeToken","type":"address","internalType":"address"}],"stateMutability":"nonpayable"},{"type":"function","name":"depositEth","inputs":[],"outputs":[],"stateMutability":"payable"},{"type":"function","name":"wrappedNativeToken","inputs":[],"outputs":[{"name":"","type":"address","internalType":"contract IWETH9"}],"stateMutability":"view"},{"type":"error","name":"AddressEmptyCode","inputs":[{"name":"target","type":"address","internalType":"address"}]},{"type":"error","name":"AddressInsufficientBalance","inputs":[{"name":"account","type":"address","internalType":"address"}]},{"type":"error","name":"FailedInnerCall","inputs":[]},{"type":"error","name":"SafeERC20FailedOperation","inputs":[{"name":"token","type":"address","internalType":"address"}]}],"bytecode":{"object":"0x608060405234801561000f575f80fd5b506040516104fd3803806104fd83398101604081905261002e91610382565b6100436001600160a01b038316335f19610068565b5f80546001600160a01b0319166001600160a01b0392909216919091179055506103ef565b604080516001600160a01b038416602482015260448082018490528251808303909101815260649091019091526020810180516001600160e01b0390811663095ea7b360e01b179091526100c0908590839061012c16565b61012657604080516001600160a01b03851660248201525f6044808301919091528251808303909101815260649091019091526020810180516001600160e01b0390811663095ea7b360e01b1790915261011c9186916101cd16565b61012684826101cd565b50505050565b5f805f846001600160a01b03168460405161014791906103ba565b5f604051808303815f865af19150503d805f8114610180576040519150601f19603f3d011682016040523d82523d5f602084013e610185565b606091505b50915091508180156101af5750805115806101af5750808060200190518101906101af91906103d0565b80156101c457505f856001600160a01b03163b115b95945050505050565b5f6101e16001600160a01b03841683610238565b905080515f1415801561020557508080602001905181019061020391906103d0565b155b1561023357604051635274afe760e01b81526001600160a01b03841660048201526024015b60405180910390fd5b505050565b606061024583835f61024c565b9392505050565b6060814710156102715760405163cd78605960e01b815230600482015260240161022a565b5f80856001600160a01b0316848660405161028c91906103ba565b5f6040518083038185875af1925050503d805f81146102c6576040519150601f19603f3d011682016040523d82523d5f602084013e6102cb565b606091505b5090925090506102dc8683836102e6565b9695505050505050565b6060826102fb576102f682610342565b610245565b815115801561031257506001600160a01b0384163b155b1561033b57604051639996b31560e01b81526001600160a01b038516600482015260240161022a565b5080610245565b8051156103525780518082602001fd5b604051630a12f52160e11b815260040160405180910390fd5b50565b6001600160a01b038116811461036b575f80fd5b5f8060408385031215610393575f80fd5b825161039e8161036e565b60208401519092506103af8161036e565b809150509250929050565b5f82518060208501845e5f920191825250919050565b5f602082840312156103e0575f80fd5b81518015158114610245575f80fd5b610101806103fc5f395ff3fe6080604052600436106025575f3560e01c806317fcb39b146029578063439370b1146061575b5f80fd5b3480156033575f80fd5b505f546045906001600160a01b031681565b6040516001600160a01b03909116815260200160405180910390f35b60676069565b005b5f8054906101000a90046001600160a01b03166001600160a01b031663d0e30db0346040518263ffffffff1660e01b81526004015f604051808303818588803b15801560b3575f80fd5b505af115801560c4573d5f803e3d5ffd5b505050505056fea2646970667358221220b11a907b569cbcf09f5ab0939e5b1f67fee25a4d3790d60f807e18982c494dc264736f6c634300081a0033","linkReferences":{}},"methodIdentifiers":{"depositEth()":"439370b1","wrappedNativeToken()":"17fcb39b"},"storageLayout":{"storage":[{"astId":64283,"contract":"src/vault/Silo.sol:Silo","label":"wrappedNativeToken","offset":0,"slot":"0","type":"t_contract(IWETH9)65489"}],"types":{"t_contract(IWETH9)65489":{"encoding":"inplace","label":"contract IWETH9","numberOfBytes":"20"}}},"id":86}