{"abi":[{"type":"constructor","inputs":[{"name":"disable","type":"bool","internalType":"bool"}],"stateMutability":"nonpayable"},{"type":"function","name":"MAX_MANAGEMENT_RATE","inputs":[],"outputs":[{"name":"","type":"uint16","internalType":"uint16"}],"stateMutability":"view"},{"type":"function","name":"MAX_PERFORMANCE_RATE","inputs":[],"outputs":[{"name":"","type":"uint16","internalType":"uint16"}],"stateMutability":"view"},{"type":"function","name":"MAX_PROTOCOL_RATE","inputs":[],"outputs":[{"name":"","type":"uint16","internalType":"uint16"}],"stateMutability":"view"},{"type":"function","name":"acceptOwnership","inputs":[],"outputs":[],"stateMutability":"nonpayable"},{"type":"function","name":"addToWhitelist","inputs":[{"name":"accounts","type":"address[]","internalType":"address[]"}],"outputs":[],"stateMutability":"nonpayable"},{"type":"function","name":"allowance","inputs":[{"name":"owner","type":"address","internalType":"address"},{"name":"spender","type":"address","internalType":"address"}],"outputs":[{"name":"","type":"uint256","internalType":"uint256"}],"stateMutability":"view"},{"type":"function","name":"approve","inputs":[{"name":"spender","type":"address","internalType":"address"},{"name":"value","type":"uint256","internalType":"uint256"}],"outputs":[{"name":"","type":"bool","internalType":"bool"}],"stateMutability":"nonpayable"},{"type":"function","name":"asset","inputs":[],"outputs":[{"name":"","type":"address","internalType":"address"}],"stateMutability":"view"},{"type":"function","name":"balanceOf","inputs":[{"name":"account","type":"address","internalType":"address"}],"outputs":[{"name":"","type":"uint256","internalType":"uint256"}],"stateMutability":"view"},{"type":"function","name":"cancelRequestDeposit","inputs":[],"outputs":[],"stateMutability":"nonpayable"},{"type":"function","name":"claimableDepositRequest","inputs":[{"name":"requestId","type":"uint256","internalType":"uint256"},{"name":"controller","type":"address","internalType":"address"}],"outputs":[{"name":"assets","type":"uint256","internalType":"uint256"}],"stateMutability":"view"},{"type":"function","name":"claimableRedeemRequest","inputs":[{"name":"requestId","type":"uint256","internalType":"uint256"},{"name":"controller","type":"address","internalType":"address"}],"outputs":[{"name":"shares","type":"uint256","internalType":"uint256"}],"stateMutability":"view"},{"type":"function","name":"close","inputs":[],"outputs":[],"stateMutability":"nonpayable"},{"type":"function","name":"convertToAssets","inputs":[{"name":"shares","type":"uint256","internalType":"uint256"}],"outputs":[{"name":"","type":"uint256","internalType":"uint256"}],"stateMutability":"view"},{"type":"function","name":"convertToAssets","inputs":[{"name":"shares","type":"uint256","internalType":"uint256"},{"name":"requestId","type":"uint256","internalType":"uint256"}],"outputs":[{"name":"","type":"uint256","internalType":"uint256"}],"stateMutability":"view"},{"type":"function","name":"convertToShares","inputs":[{"name":"assets","type":"uint256","internalType":"uint256"}],"outputs":[{"name":"","type":"uint256","internalType":"uint256"}],"stateMutability":"view"},{"type":"function","name":"convertToShares","inputs":[{"name":"assets","type":"uint256","internalType":"uint256"},{"name":"requestId","type":"uint256","internalType":"uint256"}],"outputs":[{"name":"","type":"uint256","internalType":"uint256"}],"stateMutability":"view"},{"type":"function","name":"decimals","inputs":[],"outputs":[{"name":"","type":"uint8","internalType":"uint8"}],"stateMutability":"view"},{"type":"function","name":"deposit","inputs":[{"name":"assets","type":"uint256","internalType":"uint256"},{"name":"receiver","type":"address","internalType":"address"},{"name":"controller","type":"address","internalType":"address"}],"outputs":[{"name":"","type":"uint256","internalType":"uint256"}],"stateMutability":"nonpayable"},{"type":"function","name":"deposit","inputs":[{"name":"assets","type":"uint256","internalType":"uint256"},{"name":"receiver","type":"address","internalType":"address"}],"outputs":[{"name":"","type":"uint256","internalType":"uint256"}],"stateMutability":"nonpayable"},{"type":"function","name":"depositEpochId","inputs":[],"outputs":[{"name":"","type":"uint40","internalType":"uint40"}],"stateMutability":"view"},{"type":"function","name":"disableWhitelist","inputs":[],"outputs":[],"stateMutability":"nonpayable"},{"type":"function","name":"epochSettleId","inputs":[{"name":"epochId","type":"uint40","internalType":"uint40"}],"outputs":[{"name":"","type":"uint40","internalType":"uint40"}],"stateMutability":"view"},{"type":"function","name":"feeRates","inputs":[],"outputs":[{"name":"","type":"tuple","internalType":"struct Rates","components":[{"name":"managementRate","type":"uint16","internalType":"uint16"},{"name":"performanceRate","type":"uint16","internalType":"uint16"}]}],"stateMutability":"view"},{"type":"function","name":"getRolesStorage","inputs":[],"outputs":[{"name":"_rolesStorage","type":"tuple","internalType":"struct Roles.RolesStorage","components":[{"name":"whitelistManager","type":"address","internalType":"address"},{"name":"feeReceiver","type":"address","internalType":"address"},{"name":"safe","type":"address","internalType":"address"},{"name":"feeRegistry","type":"address","internalType":"contract FeeRegistry"},{"name":"valuationManager","type":"address","internalType":"address"}]}],"stateMutability":"pure"},{"type":"function","name":"highWaterMark","inputs":[],"outputs":[{"name":"","type":"uint256","internalType":"uint256"}],"stateMutability":"view"},{"type":"function","name":"initialize","inputs":[{"name":"init","type":"tuple","internalType":"struct Vault.InitStruct","components":[{"name":"underlying","type":"address","internalType":"contract IERC20"},{"name":"name","type":"string","internalType":"string"},{"name":"symbol","type":"string","internalType":"string"},{"name":"safe","type":"address","internalType":"address"},{"name":"whitelistManager","type":"address","internalType":"address"},{"name":"valuationManager","type":"address","internalType":"address"},{"name":"admin","type":"address","internalType":"address"},{"name":"feeReceiver","type":"address","internalType":"address"},{"name":"feeRegistry","type":"address","internalType":"address"},{"name":"wrappedNativeToken","type":"address","internalType":"address"},{"name":"managementRate","type":"uint16","internalType":"uint16"},{"name":"performanceRate","type":"uint16","internalType":"uint16"},{"name":"enableWhitelist","type":"bool","internalType":"bool"},{"name":"rateUpdateCooldown","type":"uint256","internalType":"uint256"}]}],"outputs":[],"stateMutability":"nonpayable"},{"type":"function","name":"initiateClosing","inputs":[],"outputs":[],"stateMutability":"nonpayable"},{"type":"function","name":"isOperator","inputs":[{"name":"controller","type":"address","internalType":"address"},{"name":"operator","type":"address","internalType":"address"}],"outputs":[{"name":"","type":"bool","internalType":"bool"}],"stateMutability":"view"},{"type":"function","name":"isWhitelistActivated","inputs":[],"outputs":[{"name":"","type":"bool","internalType":"bool"}],"stateMutability":"view"},{"type":"function","name":"isWhitelisted","inputs":[{"name":"account","type":"address","internalType":"address"}],"outputs":[{"name":"","type":"bool","internalType":"bool"}],"stateMutability":"view"},{"type":"function","name":"lastDepositRequestId","inputs":[{"name":"controller","type":"address","internalType":"address"}],"outputs":[{"name":"","type":"uint40","internalType":"uint40"}],"stateMutability":"view"},{"type":"function","name":"lastFeeTime","inputs":[],"outputs":[{"name":"","type":"uint256","internalType":"uint256"}],"stateMutability":"view"},{"type":"function","name":"lastRedeemRequestId","inputs":[{"name":"controller","type":"address","internalType":"address"}],"outputs":[{"name":"","type":"uint40","internalType":"uint40"}],"stateMutability":"view"},{"type":"function","name":"maxDeposit","inputs":[{"name":"controller","type":"address","internalType":"address"}],"outputs":[{"name":"","type":"uint256","internalType":"uint256"}],"stateMutability":"view"},{"type":"function","name":"maxMint","inputs":[{"name":"","type":"address","internalType":"address"}],"outputs":[{"name":"","type":"uint256","internalType":"uint256"}],"stateMutability":"view"},{"type":"function","name":"maxRedeem","inputs":[{"name":"controller","type":"address","internalType":"address"}],"outputs":[{"name":"","type":"uint256","internalType":"uint256"}],"stateMutability":"view"},{"type":"function","name":"maxWithdraw","inputs":[{"name":"owner","type":"address","internalType":"address"}],"outputs":[{"name":"","type":"uint256","internalType":"uint256"}],"stateMutability":"view"},{"type":"function","name":"mint","inputs":[{"name":"shares","type":"uint256","internalType":"uint256"},{"name":"receiver","type":"address","internalType":"address"}],"outputs":[{"name":"","type":"uint256","internalType":"uint256"}],"stateMutability":"nonpayable"},{"type":"function","name":"mint","inputs":[{"name":"shares","type":"uint256","internalType":"uint256"},{"name":"receiver","type":"address","internalType":"address"},{"name":"controller","type":"address","internalType":"address"}],"outputs":[{"name":"","type":"uint256","internalType":"uint256"}],"stateMutability":"nonpayable"},{"type":"function","name":"name","inputs":[],"outputs":[{"name":"","type":"string","internalType":"string"}],"stateMutability":"view"},{"type":"function","name":"owner","inputs":[],"outputs":[{"name":"","type":"address","internalType":"address"}],"stateMutability":"view"},{"type":"function","name":"pause","inputs":[],"outputs":[],"stateMutability":"nonpayable"},{"type":"function","name":"paused","inputs":[],"outputs":[{"name":"","type":"bool","internalType":"bool"}],"stateMutability":"view"},{"type":"function","name":"pendingDepositRequest","inputs":[{"name":"requestId","type":"uint256","internalType":"uint256"},{"name":"controller","type":"address","internalType":"address"}],"outputs":[{"name":"assets","type":"uint256","internalType":"uint256"}],"stateMutability":"view"},{"type":"function","name":"pendingOwner","inputs":[],"outputs":[{"name":"","type":"address","internalType":"address"}],"stateMutability":"view"},{"type":"function","name":"pendingRedeemRequest","inputs":[{"name":"requestId","type":"uint256","internalType":"uint256"},{"name":"controller","type":"address","internalType":"address"}],"outputs":[{"name":"shares","type":"uint256","internalType":"uint256"}],"stateMutability":"view"},{"type":"function","name":"pendingSilo","inputs":[],"outputs":[{"name":"","type":"address","internalType":"address"}],"stateMutability":"view"},{"type":"function","name":"previewDeposit","inputs":[{"name":"","type":"uint256","internalType":"uint256"}],"outputs":[{"name":"","type":"uint256","internalType":"uint256"}],"stateMutability":"pure"},{"type":"function","name":"previewMint","inputs":[{"name":"","type":"uint256","internalType":"uint256"}],"outputs":[{"name":"","type":"uint256","internalType":"uint256"}],"stateMutability":"pure"},{"type":"function","name":"previewRedeem","inputs":[{"name":"","type":"uint256","internalType":"uint256"}],"outputs":[{"name":"","type":"uint256","internalType":"uint256"}],"stateMutability":"pure"},{"type":"function","name":"previewWithdraw","inputs":[{"name":"","type":"uint256","internalType":"uint256"}],"outputs":[{"name":"","type":"uint256","internalType":"uint256"}],"stateMutability":"pure"},{"type":"function","name":"redeem","inputs":[{"name":"shares","type":"uint256","internalType":"uint256"},{"name":"receiver","type":"address","internalType":"address"},{"name":"controller","type":"address","internalType":"address"}],"outputs":[{"name":"assets","type":"uint256","internalType":"uint256"}],"stateMutability":"nonpayable"},{"type":"function","name":"redeemEpochId","inputs":[],"outputs":[{"name":"","type":"uint40","internalType":"uint40"}],"stateMutability":"view"},{"type":"function","name":"renounceOwnership","inputs":[],"outputs":[],"stateMutability":"nonpayable"},{"type":"function","name":"requestDeposit","inputs":[{"name":"assets","type":"uint256","internalType":"uint256"},{"name":"controller","type":"address","internalType":"address"},{"name":"owner","type":"address","internalType":"address"}],"outputs":[{"name":"requestId","type":"uint256","internalType":"uint256"}],"stateMutability":"payable"},{"type":"function","name":"requestDeposit","inputs":[{"name":"assets","type":"uint256","internalType":"uint256"},{"name":"controller","type":"address","internalType":"address"},{"name":"owner","type":"address","internalType":"address"},{"name":"referral","type":"address","internalType":"address"}],"outputs":[{"name":"requestId","type":"uint256","internalType":"uint256"}],"stateMutability":"payable"},{"type":"function","name":"requestRedeem","inputs":[{"name":"shares","type":"uint256","internalType":"uint256"},{"name":"controller","type":"address","internalType":"address"},{"name":"owner","type":"address","internalType":"address"}],"outputs":[{"name":"requestId","type":"uint256","internalType":"uint256"}],"stateMutability":"nonpayable"},{"type":"function","name":"revokeFromWhitelist","inputs":[{"name":"accounts","type":"address[]","internalType":"address[]"}],"outputs":[],"stateMutability":"nonpayable"},{"type":"function","name":"setOperator","inputs":[{"name":"operator","type":"address","internalType":"address"},{"name":"approved","type":"bool","internalType":"bool"}],"outputs":[{"name":"success","type":"bool","internalType":"bool"}],"stateMutability":"nonpayable"},{"type":"function","name":"settleDeposit","inputs":[],"outputs":[],"stateMutability":"nonpayable"},{"type":"function","name":"settleRedeem","inputs":[],"outputs":[],"stateMutability":"nonpayable"},{"type":"function","name":"share","inputs":[],"outputs":[{"name":"","type":"address","internalType":"address"}],"stateMutability":"view"},{"type":"function","name":"supportsInterface","inputs":[{"name":"interfaceId","type":"bytes4","internalType":"bytes4"}],"outputs":[{"name":"","type":"bool","internalType":"bool"}],"stateMutability":"view"},{"type":"function","name":"symbol","inputs":[],"outputs":[{"name":"","type":"string","internalType":"string"}],"stateMutability":"view"},{"type":"function","name":"totalAssets","inputs":[],"outputs":[{"name":"","type":"uint256","internalType":"uint256"}],"stateMutability":"view"},{"type":"function","name":"totalSupply","inputs":[],"outputs":[{"name":"","type":"uint256","internalType":"uint256"}],"stateMutability":"view"},{"type":"function","name":"transfer","inputs":[{"name":"to","type":"address","internalType":"address"},{"name":"value","type":"uint256","internalType":"uint256"}],"outputs":[{"name":"","type":"bool","internalType":"bool"}],"stateMutability":"nonpayable"},{"type":"function","name":"transferFrom","inputs":[{"name":"from","type":"address","internalType":"address"},{"name":"to","type":"address","internalType":"address"},{"name":"value","type":"uint256","internalType":"uint256"}],"outputs":[{"name":"","type":"bool","internalType":"bool"}],"stateMutability":"nonpayable"},{"type":"function","name":"transferOwnership","inputs":[{"name":"newOwner","type":"address","internalType":"address"}],"outputs":[],"stateMutability":"nonpayable"},{"type":"function","name":"unpause","inputs":[],"outputs":[],"stateMutability":"nonpayable"},{"type":"function","name":"updateFeeReceiver","inputs":[{"name":"_feeReceiver","type":"address","internalType":"address"}],"outputs":[],"stateMutability":"nonpayable"},{"type":"function","name":"updateNewTotalAssets","inputs":[{"name":"_newTotalAssets","type":"uint256","internalType":"uint256"}],"outputs":[],"stateMutability":"nonpayable"},{"type":"function","name":"updateRates","inputs":[{"name":"newRates","type":"tuple","internalType":"struct Rates","components":[{"name":"managementRate","type":"uint16","internalType":"uint16"},{"name":"performanceRate","type":"uint16","internalType":"uint16"}]}],"outputs":[],"stateMutability":"nonpayable"},{"type":"function","name":"updateValuationManager","inputs":[{"name":"_valuationManager","type":"address","internalType":"address"}],"outputs":[],"stateMutability":"nonpayable"},{"type":"function","name":"updateWhitelistManager","inputs":[{"name":"_whitelistManager","type":"address","internalType":"address"}],"outputs":[],"stateMutability":"nonpayable"},{"type":"function","name":"withdraw","inputs":[{"name":"assets","type":"uint256","internalType":"uint256"},{"name":"receiver","type":"address","internalType":"address"},{"name":"controller","type":"address","internalType":"address"}],"outputs":[{"name":"shares","type":"uint256","internalType":"uint256"}],"stateMutability":"nonpayable"},{"type":"event","name":"Approval","inputs":[{"name":"owner","type":"address","indexed":true,"internalType":"address"},{"name":"spender","type":"address","indexed":true,"internalType":"address"},{"name":"value","type":"uint256","indexed":false,"internalType":"uint256"}],"anonymous":false},{"type":"event","name":"Deposit","inputs":[{"name":"sender","type":"address","indexed":true,"internalType":"address"},{"name":"owner","type":"address","indexed":true,"internalType":"address"},{"name":"assets","type":"uint256","indexed":false,"internalType":"uint256"},{"name":"shares","type":"uint256","indexed":false,"internalType":"uint256"}],"anonymous":false},{"type":"event","name":"DepositRequest","inputs":[{"name":"controller","type":"address","indexed":true,"internalType":"address"},{"name":"owner","type":"address","indexed":true,"internalType":"address"},{"name":"requestId","type":"uint256","indexed":true,"internalType":"uint256"},{"name":"sender","type":"address","indexed":false,"internalType":"address"},{"name":"assets","type":"uint256","indexed":false,"internalType":"uint256"}],"anonymous":false},{"type":"event","name":"DepositRequestCanceled","inputs":[{"name":"requestId","type":"uint256","indexed":true,"internalType":"uint256"},{"name":"controller","type":"address","indexed":true,"internalType":"address"}],"anonymous":false},{"type":"event","name":"FeeReceiverUpdated","inputs":[{"name":"oldReceiver","type":"address","indexed":false,"internalType":"address"},{"name":"newReceiver","type":"address","indexed":false,"internalType":"address"}],"anonymous":false},{"type":"event","name":"HighWaterMarkUpdated","inputs":[{"name":"oldHighWaterMark","type":"uint256","indexed":false,"internalType":"uint256"},{"name":"newHighWaterMark","type":"uint256","indexed":false,"internalType":"uint256"}],"anonymous":false},{"type":"event","name":"Initialized","inputs":[{"name":"version","type":"uint64","indexed":false,"internalType":"uint64"}],"anonymous":false},{"type":"event","name":"NewTotalAssetsUpdated","inputs":[{"name":"totalAssets","type":"uint256","indexed":false,"internalType":"uint256"}],"anonymous":false},{"type":"event","name":"OperatorSet","inputs":[{"name":"controller","type":"address","indexed":true,"internalType":"address"},{"name":"operator","type":"address","indexed":true,"internalType":"address"},{"name":"approved","type":"bool","indexed":false,"internalType":"bool"}],"anonymous":false},{"type":"event","name":"OwnershipTransferStarted","inputs":[{"name":"previousOwner","type":"address","indexed":true,"internalType":"address"},{"name":"newOwner","type":"address","indexed":true,"internalType":"address"}],"anonymous":false},{"type":"event","name":"OwnershipTransferred","inputs":[{"name":"previousOwner","type":"address","indexed":true,"internalType":"address"},{"name":"newOwner","type":"address","indexed":true,"internalType":"address"}],"anonymous":false},{"type":"event","name":"Paused","inputs":[{"name":"account","type":"address","indexed":false,"internalType":"address"}],"anonymous":false},{"type":"event","name":"RatesUpdated","inputs":[{"name":"oldRates","type":"tuple","indexed":false,"internalType":"struct Rates","components":[{"name":"managementRate","type":"uint16","internalType":"uint16"},{"name":"performanceRate","type":"uint16","internalType":"uint16"}]},{"name":"newRate","type":"tuple","indexed":false,"internalType":"struct Rates","components":[{"name":"managementRate","type":"uint16","internalType":"uint16"},{"name":"performanceRate","type":"uint16","internalType":"uint16"}]},{"name":"timestamp","type":"uint256","indexed":false,"internalType":"uint256"}],"anonymous":false},{"type":"event","name":"RedeemRequest","inputs":[{"name":"controller","type":"address","indexed":true,"internalType":"address"},{"name":"owner","type":"address","indexed":true,"internalType":"address"},{"name":"requestId","type":"uint256","indexed":true,"internalType":"uint256"},{"name":"sender","type":"address","indexed":false,"internalType":"address"},{"name":"shares","type":"uint256","indexed":false,"internalType":"uint256"}],"anonymous":false},{"type":"event","name":"Referral","inputs":[{"name":"referral","type":"address","indexed":true,"internalType":"address"},{"name":"owner","type":"address","indexed":true,"internalType":"address"},{"name":"requestId","type":"uint256","indexed":true,"internalType":"uint256"},{"name":"assets","type":"uint256","indexed":false,"internalType":"uint256"}],"anonymous":false},{"type":"event","name":"SettleDeposit","inputs":[{"name":"epochId","type":"uint40","indexed":true,"internalType":"uint40"},{"name":"settledId","type":"uint40","indexed":true,"internalType":"uint40"},{"name":"totalAssets","type":"uint256","indexed":false,"internalType":"uint256"},{"name":"totalSupply","type":"uint256","indexed":false,"internalType":"uint256"},{"name":"assetsDeposited","type":"uint256","indexed":false,"internalType":"uint256"},{"name":"sharesMinted","type":"uint256","indexed":false,"internalType":"uint256"}],"anonymous":false},{"type":"event","name":"SettleRedeem","inputs":[{"name":"epochId","type":"uint40","indexed":true,"internalType":"uint40"},{"name":"settledId","type":"uint40","indexed":true,"internalType":"uint40"},{"name":"totalAssets","type":"uint256","indexed":false,"internalType":"uint256"},{"name":"totalSupply","type":"uint256","indexed":false,"internalType":"uint256"},{"name":"assetsWithdrawed","type":"uint256","indexed":false,"internalType":"uint256"},{"name":"sharesBurned","type":"uint256","indexed":false,"internalType":"uint256"}],"anonymous":false},{"type":"event","name":"StateUpdated","inputs":[{"name":"state","type":"uint8","indexed":false,"internalType":"enum State"}],"anonymous":false},{"type":"event","name":"TotalAssetsUpdated","inputs":[{"name":"totalAssets","type":"uint256","indexed":false,"internalType":"uint256"}],"anonymous":false},{"type":"event","name":"Transfer","inputs":[{"name":"from","type":"address","indexed":true,"internalType":"address"},{"name":"to","type":"address","indexed":true,"internalType":"address"},{"name":"value","type":"uint256","indexed":false,"internalType":"uint256"}],"anonymous":false},{"type":"event","name":"Unpaused","inputs":[{"name":"account","type":"address","indexed":false,"internalType":"address"}],"anonymous":false},{"type":"event","name":"ValuationManagerUpdated","inputs":[{"name":"oldManager","type":"address","indexed":false,"internalType":"address"},{"name":"newManager","type":"address","indexed":false,"internalType":"address"}],"anonymous":false},{"type":"event","name":"WhitelistDisabled","inputs":[],"anonymous":false},{"type":"event","name":"WhitelistManagerUpdated","inputs":[{"name":"oldManager","type":"address","indexed":false,"internalType":"address"},{"name":"newManager","type":"address","indexed":false,"internalType":"address"}],"anonymous":false},{"type":"event","name":"WhitelistUpdated","inputs":[{"name":"account","type":"address","indexed":true,"internalType":"address"},{"name":"authorized","type":"bool","indexed":false,"internalType":"bool"}],"anonymous":false},{"type":"event","name":"Withdraw","inputs":[{"name":"sender","type":"address","indexed":true,"internalType":"address"},{"name":"receiver","type":"address","indexed":true,"internalType":"address"},{"name":"owner","type":"address","indexed":true,"internalType":"address"},{"name":"assets","type":"uint256","indexed":false,"internalType":"uint256"},{"name":"shares","type":"uint256","indexed":false,"internalType":"uint256"}],"anonymous":false},{"type":"error","name":"AboveMaxRate","inputs":[{"name":"maxRate","type":"uint256","internalType":"uint256"}]},{"type":"error","name":"AddressEmptyCode","inputs":[{"name":"target","type":"address","internalType":"address"}]},{"type":"error","name":"AddressInsufficientBalance","inputs":[{"name":"account","type":"address","internalType":"address"}]},{"type":"error","name":"CantDepositNativeToken","inputs":[]},{"type":"error","name":"Closed","inputs":[]},{"type":"error","name":"ERC20InsufficientAllowance","inputs":[{"name":"spender","type":"address","internalType":"address"},{"name":"allowance","type":"uint256","internalType":"uint256"},{"name":"needed","type":"uint256","internalType":"uint256"}]},{"type":"error","name":"ERC20InsufficientBalance","inputs":[{"name":"sender","type":"address","internalType":"address"},{"name":"balance","type":"uint256","internalType":"uint256"},{"name":"needed","type":"uint256","internalType":"uint256"}]},{"type":"error","name":"ERC20InvalidApprover","inputs":[{"name":"approver","type":"address","internalType":"address"}]},{"type":"error","name":"ERC20InvalidReceiver","inputs":[{"name":"receiver","type":"address","internalType":"address"}]},{"type":"error","name":"ERC20InvalidSender","inputs":[{"name":"sender","type":"address","internalType":"address"}]},{"type":"error","name":"ERC20InvalidSpender","inputs":[{"name":"spender","type":"address","internalType":"address"}]},{"type":"error","name":"ERC4626ExceededMaxDeposit","inputs":[{"name":"receiver","type":"address","internalType":"address"},{"name":"assets","type":"uint256","internalType":"uint256"},{"name":"max","type":"uint256","internalType":"uint256"}]},{"type":"error","name":"ERC4626ExceededMaxMint","inputs":[{"name":"receiver","type":"address","internalType":"address"},{"name":"shares","type":"uint256","internalType":"uint256"},{"name":"max","type":"uint256","internalType":"uint256"}]},{"type":"error","name":"ERC4626ExceededMaxRedeem","inputs":[{"name":"owner","type":"address","internalType":"address"},{"name":"shares","type":"uint256","internalType":"uint256"},{"name":"max","type":"uint256","internalType":"uint256"}]},{"type":"error","name":"ERC4626ExceededMaxWithdraw","inputs":[{"name":"owner","type":"address","internalType":"address"},{"name":"assets","type":"uint256","internalType":"uint256"},{"name":"max","type":"uint256","internalType":"uint256"}]},{"type":"error","name":"ERC7540InvalidOperator","inputs":[]},{"type":"error","name":"ERC7540PreviewDepositDisabled","inputs":[]},{"type":"error","name":"ERC7540PreviewMintDisabled","inputs":[]},{"type":"error","name":"ERC7540PreviewRedeemDisabled","inputs":[]},{"type":"error","name":"ERC7540PreviewWithdrawDisabled","inputs":[]},{"type":"error","name":"EnforcedPause","inputs":[]},{"type":"error","name":"ExpectedPause","inputs":[]},{"type":"error","name":"FailedInnerCall","inputs":[]},{"type":"error","name":"InvalidInitialization","inputs":[]},{"type":"error","name":"MathOverflowedMulDiv","inputs":[]},{"type":"error","name":"NewTotalAssetsMissing","inputs":[]},{"type":"error","name":"NotClosing","inputs":[{"name":"currentState","type":"uint8","internalType":"enum State"}]},{"type":"error","name":"NotInitializing","inputs":[]},{"type":"error","name":"NotOpen","inputs":[{"name":"currentState","type":"uint8","internalType":"enum State"}]},{"type":"error","name":"NotWhitelisted","inputs":[]},{"type":"error","name":"OnlyOneRequestAllowed","inputs":[]},{"type":"error","name":"OnlySafe","inputs":[{"name":"safe","type":"address","internalType":"address"}]},{"type":"error","name":"OnlyValuationManager","inputs":[{"name":"valuationManager","type":"address","internalType":"address"}]},{"type":"error","name":"OnlyWhitelistManager","inputs":[{"name":"whitelistManager","type":"address","internalType":"address"}]},{"type":"error","name":"OwnableInvalidOwner","inputs":[{"name":"owner","type":"address","internalType":"address"}]},{"type":"error","name":"OwnableUnauthorizedAccount","inputs":[{"name":"account","type":"address","internalType":"address"}]},{"type":"error","name":"RequestIdNotClaimable","inputs":[]},{"type":"error","name":"RequestNotCancelable","inputs":[{"name":"requestId","type":"uint256","internalType":"uint256"}]},{"type":"error","name":"SafeERC20FailedOperation","inputs":[{"name":"token","type":"address","internalType":"address"}]}],"bytecode":{"object":"0x608060405234801561000f575f80fd5b50604051615e57380380615e5783398101604081905261002e916100f4565b801561003c5761003c610042565b5061011a565b7ff0c57e16840df040f15088dc2f81fe391c3923bec73e23a9662efc9c229c6a00805468010000000000000000900460ff16156100925760405163f92ee8a960e01b815260040160405180910390fd5b80546001600160401b03908116146100f15780546001600160401b0319166001600160401b0390811782556040519081527fc7f505b2f371ae2175ee4913f4499e1f2633a7b5936321eed1cdaeb6115181d29060200160405180910390a15b50565b5f60208284031215610104575f80fd5b81518015158114610113575f80fd5b9392505050565b615d30806101275f395ff3fe608060405260043610610442575f3560e01c80637f64978311610236578063ba08765211610134578063da39b3e7116100b3578063ef8b30f711610078578063ef8b30f714610d99578063f1a76fcc14610db8578063f2fde38b14610dd7578063f5a23d8d14610df6578063f886d4bd14610e15575f80fd5b8063da39b3e714610d09578063db2088f414610d28578063dd62ed3e14610d47578063e30c397814610d66578063eaed1d0714610d7a575f80fd5b8063c6e6f592116100f9578063c6e6f59214610c79578063ce96cb7714610c98578063d4799d8114610cb7578063d6b0f48414610cd6578063d905777e14610cea575f80fd5b8063ba08765214610be8578063bcd1bf3414610c07578063c63d75b614610c26578063c69bebe414610c46578063c6d8a07414610c65575f80fd5b80639c428921116101c0578063a8d5fd6511610185578063a8d5fd6514610b5a578063a9059cbb14610b6c578063b3d7f6b914610b8b578063b460af9414610baa578063b6363cf214610bc9575f80fd5b80639c42892114610af6578063a03d55e314610b0a578063a1e5944214610b1e578063a439391514610b33578063a5948c8914610b47575f80fd5b80638da5cb5b116102065780638da5cb5b1461097a578063937147e31461098e57806394bf804d14610aa457806395d89b4114610ac3578063995ea21a14610ad7575f80fd5b80637f649783146109155780638456cb591461093457806385b77f451461094857806386af6e681461095b575f80fd5b80633e0a3c25116103435780635c975abb116102cd57806370a082311161029257806370a082311461088e578063715018a6146108ad5780637688c584146108c157806379ba5097146108e25780637d41c86e146108f6575f80fd5b80635c975abb146107e657806365ccfcef1461080957806365e08b231461082857806366b5ae1f1461083c5780636e553f651461086f575f80fd5b806343d726d61161031357806343d726d61461075d5780634cdad50614610771578063558a729714610790578063559ec80d146107af57806355fcd367146107c3575f80fd5b80633e0a3c25146106f55780633edf7247146107165780633f4ba83a1461072a578063402d267d1461073e575f80fd5b8063181e7b3b116103cf5780632e2d2984116103945780632e2d2984146106465780632ef2274a14610665578063313ce5671461068457806338d52e0f146106aa5780633af32abf146106d6575f80fd5b8063181e7b3b1461058e5780631e8410da146105ad57806323b872dd146105e05780632542d4a6146105ff57806326c6f96c14610627575f80fd5b8063095ea7b311610415578063095ea7b3146104dc5780630a28a477146104fb5780631291d4e01461051a57806316f79e301461054f57806318160ddd1461056e575f80fd5b806301e1d1141461044657806301ffc9a71461046d57806306fdde031461049c57806307a2d13a146104bd575b5f80fd5b348015610451575f80fd5b5061045a610e2a565b6040519081526020015b60405180910390f35b348015610478575f80fd5b5061048c610487366004614cb2565b610e3b565b6040519015158152602001610464565b3480156104a7575f80fd5b506104b0610edd565b6040516104649190614cd9565b3480156104c8575f80fd5b5061045a6104d7366004614d0e565b610f9d565b3480156104e7575f80fd5b5061048c6104f6366004614d49565b610fa8565b348015610506575f80fd5b5061045a610515366004614d0e565b610fbf565b348015610525575f80fd5b50610539610534366004614d73565b610fd9565b60405164ffffffffff9091168152602001610464565b34801561055a575f80fd5b50610539610569366004614d73565b61100a565b348015610579575f80fd5b505f80516020615bfb8339815191525461045a565b348015610599575f80fd5b5061045a6105a8366004614d8e565b61103b565b3480156105b8575f80fd5b507fa5292f7ccd85acc1b3080c01f5da9af7799f2c26826bd4d79081d6511780bd035461045a565b3480156105eb575f80fd5b5061048c6105fa366004614dae565b61104e565b34801561060a575f80fd5b50610614610bb881565b60405161ffff9091168152602001610464565b348015610632575f80fd5b5061045a610641366004614dec565b611071565b348015610651575f80fd5b5061045a610660366004614e1a565b611100565b348015610670575f80fd5b5061053961067f366004614e59565b611156565b34801561068f575f80fd5b50610698611182565b60405160ff9091168152602001610464565b3480156106b5575f80fd5b506106be61119e565b6040516001600160a01b039091168152602001610464565b3480156106e1575f80fd5b5061048c6106f0366004614d73565b6111d2565b348015610700575f80fd5b5061071461070f366004614efd565b611222565b005b348015610721575f80fd5b50610539611354565b348015610735575f80fd5b50610714611374565b348015610749575f80fd5b5061045a610758366004614d73565b611386565b348015610768575f80fd5b50610714611391565b34801561077c575f80fd5b5061045a61078b366004614d0e565b61153c565b34801561079b575f80fd5b5061048c6107aa366004614f70565b611556565b3480156107ba575f80fd5b506107146115e6565b3480156107ce575f80fd5b505f80516020615cdb8339815191525460ff1661048c565b3480156107f1575f80fd5b505f80516020615c9b8339815191525460ff1661048c565b348015610814575f80fd5b50610714610823366004614d73565b6116ef565b348015610833575f80fd5b5061053961177a565b348015610847575f80fd5b507fa5292f7ccd85acc1b3080c01f5da9af7799f2c26826bd4d79081d6511780bd025461045a565b34801561087a575f80fd5b5061045a610889366004614dec565b611793565b348015610899575f80fd5b5061045a6108a8366004614d73565b61179f565b3480156108b8575f80fd5b506107146117c5565b3480156108cc575f80fd5b506108d56117d6565b6040516104649190614f9c565b3480156108ed575f80fd5b50610714611874565b348015610901575f80fd5b5061045a610910366004614e1a565b6118bc565b348015610920575f80fd5b5061071461092f366004614fbb565b61193c565b34801561093f575f80fd5b50610714611a5a565b61045a610956366004614e1a565b611a6a565b348015610966575f80fd5b50610714610975366004614fbb565b611ae3565b348015610985575f80fd5b506106be611bf9565b348015610999575f80fd5b506040805160a080820183525f80835260208084018290528385018290526060808501839052608094850192909252845180840186525f80516020615c5b833981519152546001600160a01b039081168083527f7c302ed2c673c3d6b4551cf74a01ee649f887e14fd20d13dbca1b6099534d9015482168385019081525f80516020615bdb833981519152548316848a019081527f7c302ed2c673c3d6b4551cf74a01ee649f887e14fd20d13dbca1b6099534d9035484168588019081525f80516020615cbb833981519152548516958a019586528a519384529151841695830195909552935182169781019790975291518216928601929092529051169183019190915201610464565b348015610aaf575f80fd5b5061045a610abe366004614dec565b611c21565b348015610ace575f80fd5b506104b0611c2d565b348015610ae2575f80fd5b5061045a610af1366004614dec565b611c6b565b348015610b01575f80fd5b50610714611cf2565b348015610b15575f80fd5b50610714611dc6565b348015610b29575f80fd5b5061061461138881565b348015610b3e575f80fd5b50610714611eb8565b61045a610b5536600461506f565b611f5a565b348015610b65575f80fd5b50306106be565b348015610b77575f80fd5b5061048c610b86366004614d49565b61202c565b348015610b96575f80fd5b5061045a610ba5366004614d0e565b612039565b348015610bb5575f80fd5b5061045a610bc4366004614e1a565b612053565b348015610bd4575f80fd5b5061048c610be33660046150bf565b61210b565b348015610bf3575f80fd5b5061045a610c02366004614e1a565b612146565b348015610c12575f80fd5b50610714610c21366004614d0e565b6121f0565b348015610c31575f80fd5b5061045a610c40366004614d73565b505f1990565b348015610c51575f80fd5b50610714610c60366004614d73565b612283565b348015610c70575f80fd5b506106be612321565b348015610c84575f80fd5b5061045a610c93366004614d0e565b61233c565b348015610ca3575f80fd5b5061045a610cb2366004614d73565b612347565b348015610cc2575f80fd5b50610714610cd1366004615157565b61235a565b348015610ce1575f80fd5b50610714612644565b348015610cf5575f80fd5b5061045a610d04366004614d73565b61268c565b348015610d14575f80fd5b5061045a610d23366004614e1a565b612697565b348015610d33575f80fd5b5061045a610d42366004614d8e565b6126e2565b348015610d52575f80fd5b5061045a610d613660046150bf565b6126ee565b348015610d71575f80fd5b506106be612737565b348015610d85575f80fd5b5061045a610d94366004614dec565b61275f565b348015610da4575f80fd5b5061045a610db3366004614d0e565b6127e6565b348015610dc3575f80fd5b50610714610dd2366004614d73565b612800565b348015610de2575f80fd5b50610714610df1366004614d73565b612888565b348015610e01575f80fd5b5061045a610e10366004614dec565b61290d565b348015610e20575f80fd5b506106146103e881565b5f80610e34612995565b5492915050565b5f632f0a18c560e01b6001600160e01b031983161480610e6b575063f815c03d60e01b6001600160e01b03198316145b80610e865750630ce3bbe560e41b6001600160e01b03198316145b80610ea15750631883ba3960e21b6001600160e01b03198316145b80610ebc575063e3bc4e6560e01b6001600160e01b03198316145b80610ed757506001600160e01b031982166301ffc9a760e01b145b92915050565b7f52c63247e1f47db19d5ce0460030c497f067ca4cebf71ba98eeadabe20bace0380546060915f80516020615bbb83398151915291610f1b906152c1565b80601f0160208091040260200160405190810160405280929190818152602001828054610f47906152c1565b8015610f925780601f10610f6957610100808354040283529160200191610f92565b820191905f5260205f20905b815481529060010190602001808311610f7557829003601f168201915b505050505091505090565b5f610ed7825f6129b9565b5f33610fb5818585612a05565b5060019392505050565b5f60405163954bf3b160e01b815260040160405180910390fd5b5f610fe2612995565b6001600160a01b039092165f90815260069290920160205250604090205464ffffffffff1690565b5f611013612995565b6001600160a01b039092165f90815260059290920160205250604090205464ffffffffff1690565b5f61104783835f612a12565b9392505050565b5f3361105b858285612ab1565b611066858585612b0e565b506001949350505050565b5f8061107b612995565b9050835f036110a8576001600160a01b0383165f90815260058201602052604090205464ffffffffff1693505b6002810154600160501b900464ffffffffff168411156110f95764ffffffffff84165f9081526003909101602090815260408083206001600160a01b03861684526001019091529020549050610ed7565b5092915050565b5f816001600160a01b03811633148015906111225750611120813361210b565b155b15611140576040516331d00f8160e11b815260040160405180910390fd5b61114b858585612b6b565b91505b509392505050565b5f61115f612995565b64ffffffffff9283165f9081526003919091016020526040902054909116919050565b5f61118b612995565b60090154600160a01b900460ff16919050565b5f807f0773e532dfede91f04b12a73d3d2acd361424f41f76b4fb79f090161e36b4e005b546001600160a01b031692915050565b5f80516020615cdb833981519152545f905f80516020615c3b8339815191529060ff16611200576001611047565b6001600160a01b0383165f9081526020829052604090205460ff169392505050565b61122a612c8a565b80515f80516020615c7b833981519152906103e861ffff909116111561126c57604051630343096960e31b81526103e860048201526024015b60405180910390fd5b61138861ffff16826020015161ffff16111561129f57604051630343096960e31b81526113886004820152602401611263565b5f8160040154426112b0919061530d565b60408051808201825260058501805461ffff808216808552620100008084048316602080880182905260018c018a905560068c01805492840263ffffffff19938416909517949094179093558b51928c0151841690910293169116171790559051919250907f9eb7e8ec6516c29bbbd60a1c51902c46787a4ce63ef22701759b0b4e9dd34fe09061134690839087908690615320565b60405180910390a150505050565b5f61135d612995565b60020154600160781b900464ffffffffff16919050565b61137c612c8a565b611384612cbc565b565b5f610ed75f83611c6b565b5f80516020615bdb833981519152546001600160a01b03163381146113d45760405163fde82f1f60e01b81526001600160a01b0382166004820152602401611263565b5f80516020615c1b8339815191525460ff1660018160028111156113fa576113fa615363565b1461141a57806040516373cc9d4d60e01b81526004016112639190615377565b5f80516020615c5b833981519152611430612d15565b60018101546003820154604080516339a51be560e01b815290516114ad936001600160a01b039081169316916339a51be59160048083019260209291908290030181865afa158015611484573d5f803e3d5ffd5b505050506040513d601f19601f820116820180604052508101906114a8919061539d565b612d8f565b6114b633612de8565b6114bf33612f83565b5f80516020615c1b833981519152805460ff191660021790556114ff33306114e5612995565b546114ee61119e565b6001600160a01b03169291906131b6565b7f23ad33ab6a13a00aa7d06cd167b2abd03dec86af3cf3cc91759dcd3ae8411887600260405161152f9190615377565b60405180910390a1505050565b5f604051630aaf8c3d60e31b815260040160405180910390fd5b5f61155f61321d565b81611568612995565b335f818152600792909201602090815260408084206001600160a01b038916808652925292839020805494151560ff199095169490941790935590517fceb576d9f15e4e200fdb5096d64d5dfd667e16def20c1eefd14256d8e3faa267906115d590861515815260200190565b60405180910390a350600192915050565b5f80516020615bdb833981519152546001600160a01b03163381146116295760405163fde82f1f60e01b81526001600160a01b0382166004820152602401611263565b5f80516020615c1b8339815191525460ff165f81600281111561164e5761164e615363565b1461166e5780604051634b0145f360e01b81526004016112639190615377565b5f80516020615c5b833981519152611684612d15565b60018101546003820154604080516339a51be560e01b815290516116d8936001600160a01b039081169316916339a51be59160048083019260209291908290030181865afa158015611484573d5f803e3d5ffd5b6116e133612de8565b6116ea33612f83565b505050565b6116f7612c8a565b7f27e018912099274c84ffbb1a48209e91c5b25727666d86b88a9d27c5abf4aa675f80516020615c5b83398151915260040154604080516001600160a01b03928316815291841660208301520160405180910390a15f80516020615cbb83398151915280546001600160a01b0319166001600160a01b0392909216919091179055565b5f611783612995565b6002015464ffffffffff16919050565b5f611047838333612b6b565b6001600160a01b03165f9081525f80516020615bbb833981519152602052604090205490565b6117cd612c8a565b6113845f61324d565b604080518082019091525f80825260208201527fa5292f7ccd85acc1b3080c01f5da9af7799f2c26826bd4d79081d6511780bd01545f80516020615c7b83398151915290421061184a576040805180820190915260059091015461ffff808216835262010000909104166020820152919050565b6040805180820190915260069091015461ffff808216835262010000909104166020820152919050565b338061187e612737565b6001600160a01b0316146118b05760405163118cdaa760e01b81526001600160a01b0382166004820152602401611263565b6118b98161324d565b50565b5f80516020615c1b833981519152545f9060ff16818160028111156118e3576118e3615363565b146119035780604051634b0145f360e01b81526004016112639190615377565b61190b61321d565b611914836111d2565b61193157604051630b094f2760e31b815260040160405180910390fd5b61114b858585613285565b5f80516020615c5b833981519152546001600160a01b031633811461197f57604051632c1d27eb60e11b81526001600160a01b0382166004820152602401611263565b5f80516020615c3b8339815191525f5b8351811015611a54576001825f015f8684815181106119b0576119b06153b8565b60200260200101516001600160a01b03166001600160a01b031681526020019081526020015f205f6101000a81548160ff0219169083151502179055508381815181106119ff576119ff6153b8565b60200260200101516001600160a01b03167ff93f9a76c1bf3444d22400a00cb9fe990e6abe9dbb333fda48859cfee864543d6001604051611a44911515815260200190565b60405180910390a260010161198f565b50505050565b611a62612c8a565b611384613432565b5f816001600160a01b0381163314801590611a8c5750611a8a813361210b565b155b15611aaa576040516331d00f8160e11b815260040160405180910390fd5b611ab261321d565b611abb836111d2565b611ad857604051630b094f2760e31b815260040160405180910390fd5b61114b85858561347a565b5f80516020615c5b833981519152546001600160a01b0316338114611b2657604051632c1d27eb60e11b81526001600160a01b0382166004820152602401611263565b5f80516020615c3b8339815191525f5b8351811015611a54575f825f015f868481518110611b5657611b566153b8565b60200260200101516001600160a01b03166001600160a01b031681526020019081526020015f205f6101000a81548160ff021916908315150217905550838181518110611ba557611ba56153b8565b60200260200101516001600160a01b03167ff93f9a76c1bf3444d22400a00cb9fe990e6abe9dbb333fda48859cfee864543d5f604051611be9911515815260200190565b60405180910390a2600101611b36565b5f807f9016d09d72d40fdae2fd8ceac6b6234c7706214fd39c1cd1e609a0528c1993006111c2565b5f611047838333613690565b7f52c63247e1f47db19d5ce0460030c497f067ca4cebf71ba98eeadabe20bace0480546060915f80516020615bbb83398151915291610f1b906152c1565b5f80611c75612995565b9050835f03611ca2576001600160a01b0383165f90815260058201602052604090205464ffffffffff1693505b6002810154600160501b900464ffffffffff1684116110f95764ffffffffff84165f9081526003909101602090815260408083206001600160a01b03861684526001019091529020549050610ed7565b611cfa61321d565b5f611d03612995565b335f908152600582016020526040902054600282015491925064ffffffffff90811691168114611d4f57604051630378803f60e51b815264ffffffffff82166004820152602401611263565b64ffffffffff81165f908152600383016020908152604080832033845260010190915281208054919055611d8e611d84612321565b33836114ee61119e565b604051339064ffffffffff8416907ff3df774413906479e4aa6d20ad2ad938e10990d517dc9d29909f6eaa4981ad43905f90a3505050565b5f80516020615bdb833981519152546001600160a01b0316338114611e095760405163fde82f1f60e01b81526001600160a01b0382166004820152602401611263565b5f80516020615c1b8339815191525460ff165f816002811115611e2e57611e2e615363565b14611e4e5780604051634b0145f360e01b81526004016112639190615377565b5f80516020615c5b833981519152611e64612d15565b60018101546003820154604080516339a51be560e01b815290516116e1936001600160a01b039081169316916339a51be59160048083019260209291908290030181865afa158015611484573d5f803e3d5ffd5b611ec0612c8a565b5f80516020615c1b8339815191525460ff165f816002811115611ee557611ee5615363565b14611f055780604051634b0145f360e01b81526004016112639190615377565b5f80516020615c1b833981519152805460ff191660019081179091556040517f23ad33ab6a13a00aa7d06cd167b2abd03dec86af3cf3cc91759dcd3ae841188791611f4f91615377565b60405180910390a150565b5f826001600160a01b0381163314801590611f7c5750611f7a813361210b565b155b15611f9a576040516331d00f8160e11b815260040160405180910390fd5b611fa261321d565b611fab846111d2565b611fc857604051630b094f2760e31b815260040160405180910390fd5b611fd386868661347a565b915081846001600160a01b0316846001600160a01b03167f90f46099733ed637df811df4fcc5cae4961192ca04f36da9ab64b4dd8dc9b7f58960405161201b91815260200190565b60405180910390a450949350505050565b5f33610fb5818585612b0e565b5f6040516366345fa160e01b815260040160405180910390fd5b5f61205c61321d565b5f80516020615c1b833981519152805460029060ff168181111561208257612082615363565b14801561209657506120945f8461275f565b155b156120ba576120a685600161379c565b91506120b533858588866137df565b61114e565b6001600160a01b03831633148015906120da57506120d8833361210b565b155b156120f8576040516331d00f8160e11b815260040160405180910390fd5b6121038585856138c4565b915050611047565b5f612114612995565b6001600160a01b039384165f908152600791909101602090815260408083209490951682529290925250205460ff1690565b5f61214f61321d565b5f80516020615c1b833981519152805460029060ff168181111561217557612175615363565b14801561218957506121875f8461275f565b155b156121a757612198855f6129b9565b91506120b533858585896137df565b6001600160a01b03831633148015906121c757506121c5833361210b565b155b156121e5576040516331d00f8160e11b815260040160405180910390fd5b6121038585856139d9565b5f80516020615cbb833981519152546001600160a01b0316338114612233576040516314c9222d60e01b81526001600160a01b0382166004820152602401611263565b60025f80516020615c1b8339815191525460ff16600281111561225857612258615363565b0361227657604051631cdde67b60e01b815260040160405180910390fd5b61227f82613add565b5050565b61228b612c8a565b7fa92ff4390fe6943f0b30e8fe715dde86f85ab79b2b2c640a10fc094cc4036cc85f80516020615c5b83398151915260010154604080516001600160a01b03928316815291841660208301520160405180910390a17f7c302ed2c673c3d6b4551cf74a01ee649f887e14fd20d13dbca1b6099534d90180546001600160a01b0319166001600160a01b0392909216919091179055565b5f61232a612995565b600801546001600160a01b0316919050565b5f610ed7825f61379c565b5f610ed76123548361179f565b5f6129b9565b7ff0c57e16840df040f15088dc2f81fe391c3923bec73e23a9662efc9c229c6a008054600160401b810460ff16159067ffffffffffffffff165f8115801561239f5750825b90505f8267ffffffffffffffff1660011480156123bb5750303b155b9050811580156123c9575080155b156123e75760405163f92ee8a960e01b815260040160405180910390fd5b845467ffffffffffffffff19166001178555831561241157845460ff60401b1916600160401b1785555b855161241c90613cec565b61242e86602001518760400151613cfd565b612436613d0f565b6124bc866101000151876101400151886101600151895f01516001600160a01b031663313ce5676040518163ffffffff1660e01b8152600401602060405180830381865afa15801561248a573d5f803e3d5ffd5b505050506040513d601f19601f820116820180604052508101906124ae91906153cc565b60ff168a6101a00151613d1f565b6124ce865f0151876101200151613e28565b6125418661018001518761010001516001600160a01b03166339a51be56040518163ffffffff1660e01b8152600401602060405180830381865afa158015612518573d5f803e3d5ffd5b505050506040513d601f19601f8201168201806040525081019061253c919061539d565b613fb3565b6125b26040518060a0016040528088608001516001600160a01b031681526020018860e001516001600160a01b0316815260200188606001516001600160a01b031681526020018861010001516001600160a01b031681526020018860a001516001600160a01b031681525061400e565b6125bf8660c001516140e9565b7f23ad33ab6a13a00aa7d06cd167b2abd03dec86af3cf3cc91759dcd3ae84118875f6040516125ee9190615377565b60405180910390a1831561263c57845460ff60401b19168555604051600181527fc7f505b2f371ae2175ee4913f4499e1f2633a7b5936321eed1cdaeb6115181d29060200160405180910390a15b505050505050565b61264c612c8a565b5f80516020615cdb833981519152805460ff191690556040517f212c6e1d3045c9581ef0adf2504dbb1d137f52f38162ccf77a16c69d14eba5c3905f90a1565b5f610ed75f8361275f565b5f816001600160a01b03811633148015906126b957506126b7813361210b565b155b156126d7576040516331d00f8160e11b815260040160405180910390fd5b61114b858585613690565b5f61104783835f6140fa565b6001600160a01b039182165f9081527f52c63247e1f47db19d5ce0460030c497f067ca4cebf71ba98eeadabe20bace016020908152604080832093909416825291909152205490565b5f807f237e158222e3e6968b72b9db0d8043aacf074ad9f650f0d1606b4d82ee432c006111c2565b5f80612769612995565b9050835f03612796576001600160a01b0383165f90815260068201602052604090205464ffffffffff1693505b6002810154600160c81b900464ffffffffff1684116110f95764ffffffffff84165f9081526003909101602090815260408083206001600160a01b03861684526002019091529020549050610ed7565b5f604051633e26cc2f60e11b815260040160405180910390fd5b612808612c8a565b7f1eee17fbeb6d1c008ca140cc7d787451b233547ba63af138cea3470a1faf33a55f80516020615c5b83398151915254604080516001600160a01b03928316815291841660208301520160405180910390a15f80516020615c5b83398151915280546001600160a01b0319166001600160a01b0392909216919091179055565b612890612c8a565b7f237e158222e3e6968b72b9db0d8043aacf074ad9f650f0d1606b4d82ee432c0080546001600160a01b0319166001600160a01b03831690811782556128d4611bf9565b6001600160a01b03167f38d16b8cac22d99fc7c124b9cd0de2d3fa1faef420bfe791d8c362d765e2270060405160405180910390a35050565b5f80612917612995565b9050835f03612944576001600160a01b0383165f90815260068201602052604090205464ffffffffff1693505b6002810154600160c81b900464ffffffffff168411156110f95764ffffffffff84165f9081526003909101602090815260408083206001600160a01b03861684526002019091529020549050610ed7565b7f5c74d456014b1c0eb4368d944667a568313858a3029a650ff0cb7b56f8b57a0090565b5f6110476129c5610e2a565b6129d090600161530d565b6129d861418d565b6129e390600a6154cf565b5f80516020615bfb833981519152546129fc919061530d565b859190856141a9565b6116ea83838360016141f8565b5f80612a1c612995565b64ffffffffff8086165f9081526003830160209081526040808320549093168083526004850190915291812060019081015493945091929091612a5f919061530d565b90505f612a6a61418d565b612a7590600a6154cf565b64ffffffffff84165f908152600486016020526040902054612a97919061530d565b9050612aa5888383896141a9565b98975050505050505050565b5f612abc84846126ee565b90505f198114611a545781811015612b0057604051637dc7a0d960e11b81526001600160a01b03841660048201526024810182905260448101839052606401611263565b611a5484848484035f6141f8565b6001600160a01b038316612b3757604051634b637e8f60e11b81525f6004820152602401611263565b6001600160a01b038216612b605760405163ec442f0560e01b81525f6004820152602401611263565b6116ea8383836142dc565b5f80612b75612995565b6001600160a01b0384165f908152600582016020526040902054600282015491925064ffffffffff90811691600160501b900416811115612bc95760405163912d1a7360e01b815260040160405180910390fd5b64ffffffffff81165f90815260038301602090815260408083206001600160a01b038816845260010190915281208054889290612c079084906154dd565b90915550612c1e90508664ffffffffff83166126e2565b9250612c2b308685612b0e565b846001600160a01b0316846001600160a01b03167fdcbc1c05240f31ff3ad067ef1ee35ce4997762752e3a095284754544f4c709d78886604051612c79929190918252602082015260400190565b60405180910390a350509392505050565b33612c93611bf9565b6001600160a01b0316146113845760405163118cdaa760e01b8152336004820152602401611263565b612cc46142e7565b5f80516020615c9b833981519152805460ff191681557f5db9ee0a495bf2e6ff9c91a7834c1ba4fdd244a5e8aa4e537bd38aeae4b073aa335b6040516001600160a01b039091168152602001611f4f565b612d1d61321d565b5f612d26612995565b6001808201549192508101612d4e576040516343ec4aed60e11b815260040160405180910390fd5b8082555f1960018301556040518181527ff306601d1bd9ff6895ca817f568f68463b269e4b0cf4710e5f1003592ad29f5c9060200160405180910390a15050565b5f80516020615c7b8339815191525f8080612da8614316565b925092509250612db78161443a565b8215612dd757612dc786846144b3565b8115612dd757612dd785836144b3565b428460020181905550505050505050565b5f612df1612995565b600281810154600160281b900464ffffffffff165f8181526004840160205260408120909201549293509190819003612e2a5750505050565b5f612e35825f61379c565b90505f612e40610e2a565b90505f612e585f80516020615bfb8339815191525490565b6002878101549192505f91612e74919064ffffffffff166154f0565b64ffffffffff87165f908152600489016020526040902060018101859055838155909150612ea230866144b3565b612eac868561530d565b9350612eb8858461530d565b8489559250612ec887600261550d565b6002890180546effffffffffffffffffff00000000001916600160281b64ffffffffff9384160264ffffffffff60501b191617600160501b92851692909202919091179055612f22612f18612321565b8a886114ee61119e565b60408051858152602081018590529081018790526060810186905264ffffffffff80891691908416907f26be8b1af887e484fec2868840869fd162e136268c24803bede886ab91aa29bc9060800160405180910390a3505050505050505050565b5f612f8c612995565b6002810154909150600160a01b900464ffffffffff165f612fab61119e565b64ffffffffff83165f908152600485016020526040812060030154919250612fd382826129b9565b6040516370a0823160e01b81526001600160a01b0388811660048301529192505f918516906370a0823190602401602060405180830381865afa15801561301c573d5f803e3d5ffd5b505050506040513d601f19601f82011682018060405250810190613040919061552a565b905081158061304e57508082115b1561305c5750505050505050565b5f613065610e2a565b90505f61307d5f80516020615bfb8339815191525490565b6002898101549192505f916130a09190600160781b900464ffffffffff166154f0565b64ffffffffff89165f90815260048b0160205260409020600181018590558381559091506130d56130cf612321565b886144e7565b6130df86856154dd565b93506130eb87846154dd565b848b5592506130fb89600261550d565b60028b01805469ffffffffffffffffffff60a01b1916600160a01b64ffffffffff9384160264ffffffffff60c81b191617600160c81b928516929092029190911790556131536001600160a01b0389168c30896131b6565b60408051858152602081018590529081018790526060810188905264ffffffffff808b1691908416907fa8fe241e26fead168e608ab85aa4e059a34552bad0fc6d98961122cb5a0abefd9060800160405180910390a35050505050505050505050565b6040516001600160a01b038481166024830152838116604483015260648201839052611a549186918216906323b872dd906084015b604051602081830303815290604052915060e01b6020820180516001600160e01b03838183161783525050505061451b565b5f80516020615c9b8339815191525460ff16156113845760405163d93c066560e01b815260040160405180910390fd5b7f237e158222e3e6968b72b9db0d8043aacf074ad9f650f0d1606b4d82ee432c0080546001600160a01b031916815561227f8261457c565b5f336001600160a01b038316148015906132a657506132a4823361210b565b155b156132b6576132b6823386612ab1565b5f6132bf612995565b90505f6132cc5f8661275f565b905080156132e1576132df8186876139d9565b505b60028201546001600160a01b0386165f90815260068401602052604090205464ffffffffff600160781b909204821691168114613371575f6133235f8861290d565b11156133425760405163cadcefcf60e01b815260040160405180910390fd5b6001600160a01b0386165f9081526006840160205260409020805464ffffffffff191664ffffffffff83161790555b64ffffffffff81165f90815260038401602090815260408083206001600160a01b038a168452600201909152812080548992906133af90849061530d565b909155505060088301546133ce9086906001600160a01b0316896142dc565b604080513381526020810189905264ffffffffff8316916001600160a01b0380891692908a16917f1fdc681a13d8c5da54e301c7ce6542dcde4581e4725043fdab2db12ddc57450691015b60405180910390a464ffffffffff169695505050505050565b61343a61321d565b5f80516020615c9b833981519152805460ff191660011781557f62e78cea01bee320cd4e420270b5ea74000d11b0c9f74754ebdbfc544b05a25833612cfd565b5f806134865f85611c6b565b9050801561349b57613499818586612b6b565b505b5f6134a4612995565b60028101546001600160a01b0387165f90815260058301602052604090205491925064ffffffffff90811691168114613530575f6134e25f88611071565b11156135015760405163cadcefcf60e01b815260040160405180910390fd5b6001600160a01b0386165f9081526005830160205260409020805464ffffffffff191664ffffffffff83161790555b34156135e15760098201546001600160a01b031661354c61119e565b6001600160a01b0316036135c857816008015f9054906101000a90046001600160a01b03166001600160a01b031663439370b1346040518263ffffffff1660e01b81526004015f604051808303818588803b1580156135a9575f80fd5b505af11580156135bb573d5f803e3d5ffd5b50505050503496506135fe565b604051636546370360e01b815260040160405180910390fd5b60088201546135fe9086906001600160a01b0316896114ee61119e565b64ffffffffff81165f90815260038301602090815260408083206001600160a01b038a1684526001019091528120805489929061363c90849061530d565b9091555050604080513381526020810189905264ffffffffff8316916001600160a01b0380891692908a16917fbb58420bb8ce44e11b84e214cc0de10ce5e7c24d0355b2815c3d758b514cae729101613419565b5f8061369a612995565b6001600160a01b0384165f908152600582016020526040902054600282015491925064ffffffffff90811691600160501b9004168111156136ee5760405163912d1a7360e01b815260040160405180910390fd5b6136fa86826001612a12565b64ffffffffff82165f90815260038401602090815260408083206001600160a01b038916845260010190915281208054929550859290919061373d9084906154dd565b9091555061374e9050308688612b0e565b846001600160a01b0316846001600160a01b03167fdcbc1c05240f31ff3ad067ef1ee35ce4997762752e3a095284754544f4c709d78589604051612c79929190918252602082015260400190565b5f6110476137a861418d565b6137b390600a6154cf565b5f80516020615bfb833981519152546137cc919061530d565b6137d4610e2a565b6129fc90600161530d565b826001600160a01b0316856001600160a01b0316141580156138085750613806838661210b565b155b1561381857613818838683612ab1565b81613821612995565b80545f906138309084906154dd565b90915550613840905083826144e7565b61385d848361384d61119e565b6001600160a01b031691906145ec565b826001600160a01b0316846001600160a01b0316866001600160a01b03167ffbde797d201c681b91056529119e0b02407c7bb96a4a2c75c01fc9667232c8db85856040516138b5929190918252602082015260400190565b60405180910390a45050505050565b5f806138ce612995565b6001600160a01b0384165f908152600682016020526040902054600282015491925064ffffffffff90811691600160c81b9004168111156139225760405163912d1a7360e01b815260040160405180910390fd5b61392e868260016140fa565b64ffffffffff82165f90815260038401602090815260408083206001600160a01b03891684526002019091528120805492955085929091906139719084906154dd565b909155506139849050858761384d61119e565b60408051878152602081018590526001600160a01b03808716929088169133917ffbde797d201c681b91056529119e0b02407c7bb96a4a2c75c01fc9667232c8db91015b60405180910390a450509392505050565b5f806139e3612995565b6001600160a01b0384165f908152600682016020526040902054600282015491925064ffffffffff90811691600160c81b900416811115613a375760405163912d1a7360e01b815260040160405180910390fd5b64ffffffffff81165f90815260038301602090815260408083206001600160a01b038816845260020190915281208054889290613a759084906154dd565b90915550613a86905086825f612a12565b9250613a95858461384d61119e565b60408051848152602081018890526001600160a01b03808716929088169133917ffbde797d201c681b91056529119e0b02407c7bb96a4a2c75c01fc9667232c8db91016139c8565b613ae561321d565b5f613aee612995565b60028101805464ffffffffff8082165f9081526003850160205260408082208054600160281b909504841664ffffffffff199586161790559354600160781b8104831682529381208054600160a01b9095049092169390921692909217909155909150613b59612321565b90505f613b6461119e565b6040516370a0823160e01b81526001600160a01b03848116600483015291909116906370a0823190602401602060405180830381865afa158015613baa573d5f803e3d5ffd5b505050506040513d601f19601f82011682018060405250810190613bce919061552a565b90505f613bda8361179f565b90508115613c4057600284810180545f90613bfd90849064ffffffffff1661550d565b82546101009290920a64ffffffffff818102199093169183160217909155600286810154600160281b90049091165f908152600487016020526040902001839055505b8015613cab5760028481018054600f90613c69908490600160781b900464ffffffffff1661550d565b82546101009290920a64ffffffffff8181021990931691831602179091556002860154600160a01b9004165f9081526004860160205260409020600301829055505b600184018590556040518581527f3809c8827d04fcf6537fe5af7a5e42a8ec939c3556096ca7107842a2d44efca59060200160405180910390a15050505050565b613cf461461d565b6118b981614666565b613d0561461d565b61227f82826146e9565b613d1761461d565b611384614739565b613d2761461d565b6103e861ffff85161115613d5257604051630343096960e31b81526103e86004820152602401611263565b61138861ffff84161115613d7d57604051630343096960e31b81526113886004820152602401611263565b427fa5292f7ccd85acc1b3080c01f5da9af7799f2c26826bd4d79081d6511780bd01557fa5292f7ccd85acc1b3080c01f5da9af7799f2c26826bd4d79081d6511780bd048190555f80516020615c7b83398151915280546001600160a01b0319166001600160a01b038716178155613df683600a615541565b6003820155600501805461ffff948516620100000263ffffffff19909116949095169390931793909317909155505050565b613e3061461d565b5f613e39612995565b60028101805478ffffffffffffffffffff0000000000ffffffffffffffffffff19167402000000000200000000000000000001000000000117905560405190915083908390613e8790614ca5565b6001600160a01b03928316815291166020820152604001604051809103905ff080158015613eb7573d5f803e3d5ffd5b506008820180546001600160a01b03199081166001600160a01b03938416179091556009830180549091169184169190911790555f1960018201555f613efb61119e565b6001600160a01b031663313ce5676040518163ffffffff1660e01b8152600401602060405180830381865afa158015613f36573d5f803e3d5ffd5b505050506040513d601f19601f82011682018060405250810190613f5a91906153cc565b905060128160ff1610613f865760098201805460ff60a01b1916600160a01b60ff841602179055611a54565b600982018054601283900360ff16600160a81b0261ffff60a01b1990911617600960a11b17905550505050565b613fbb61461d565b811561227f575f80516020615cdb8339815191528054600160ff1991821681179092556001600160a01b03929092165f9081525f80516020615c3b83398151915260205260409020805490921617905550565b61401661461d565b80515f80516020615c5b83398151915280546001600160a01b03199081166001600160a01b039384161790915560208301517f7c302ed2c673c3d6b4551cf74a01ee649f887e14fd20d13dbca1b6099534d9018054831691841691909117905560408301515f80516020615bdb8339815191528054831691841691909117905560608301517f7c302ed2c673c3d6b4551cf74a01ee649f887e14fd20d13dbca1b6099534d903805483169184169190911790556080909201515f80516020615cbb83398151915280549093169116179055565b6140f161461d565b6118b981614759565b5f80614104612995565b64ffffffffff8086165f9081526003830160209081526040808320549093168083526004850190915291812060019081015493945091929091614147919061530d565b90505f61415261418d565b61415d90600a6154cf565b64ffffffffff84165f90815260048601602052604090205461417f919061530d565b9050612aa5888284896141a9565b5f614196612995565b60090154600160a81b900460ff16919050565b5f806141b686868661478a565b90506141c183614849565b80156141dc57505f84806141d7576141d761554c565b868809115b156141ef576141ec60018261530d565b90505b95945050505050565b5f80516020615bbb8339815191526001600160a01b03851661422f5760405163e602df0560e01b81525f6004820152602401611263565b6001600160a01b03841661425857604051634a1406b160e11b81525f6004820152602401611263565b6001600160a01b038086165f908152600183016020908152604080832093881683529290522083905581156142d557836001600160a01b0316856001600160a01b03167f8c5be1e5ebec7d5bd14f71427d1e84f3dd0314c0f7b2291e5b200ac8c7c3b925856040516142cc91815260200190565b60405180910390a35b5050505050565b6116ea838383614875565b5f80516020615c9b8339815191525460ff1661138457604051638dfc202b60e01b815260040160405180910390fd5b5f80805f80516020615c7b83398151915281614330611182565b60ff16905061434361235482600a615541565b92505f61434e6117d6565b90505f83600201544261436191906154dd565b90505f61436c610e2a565b90505f61438182855f015161ffff1685614888565b90505f6143995f80516020615bfb8339815191525490565b90505f6143b5866020015161ffff16838b8b600301548b6148ac565b90505f6143c2828561530d565b90505f6144046143d061418d565b6143db90600a6154cf565b6143e5908661530d565b6143ef84896154dd565b6143fa90600161530d565b84919060016141a9565b905061441d6144116148d9565b829061271060016141a9565b9b506144298c826154dd565b9c5050505050505050505050909192565b7fa5292f7ccd85acc1b3080c01f5da9af7799f2c26826bd4d79081d6511780bd03545f80516020615c7b83398151915290808311156116ea5760408051828152602081018590527f03f8f938dbe4475565f0cf1c3dcf09728208c2c6065e1f717102058c51e94d06910160405180910390a15060030155565b6001600160a01b0382166144dc5760405163ec442f0560e01b81525f6004820152602401611263565b61227f5f83836142dc565b6001600160a01b03821661451057604051634b637e8f60e11b81525f6004820152602401611263565b61227f825f836142dc565b5f61452f6001600160a01b0384168361496b565b905080515f141580156145535750808060200190518101906145519190615560565b155b156116ea57604051635274afe760e01b81526001600160a01b0384166004820152602401611263565b7f9016d09d72d40fdae2fd8ceac6b6234c7706214fd39c1cd1e609a0528c19930080546001600160a01b031981166001600160a01b03848116918217845560405192169182907f8be0079c531659141344cd1fd0a4f28419497f9722a3daafe3b4186f6b6457e0905f90a3505050565b6040516001600160a01b038381166024830152604482018390526116ea91859182169063a9059cbb906064016131eb565b7ff0c57e16840df040f15088dc2f81fe391c3923bec73e23a9662efc9c229c6a0054600160401b900460ff1661138457604051631afcd79f60e31b815260040160405180910390fd5b61466e61461d565b7f0773e532dfede91f04b12a73d3d2acd361424f41f76b4fb79f090161e36b4e005f8061469a84614978565b91509150816146aa5760126146ac565b805b83546001600160a81b031916600160a01b60ff92909216919091026001600160a01b031916176001600160a01b0394909416939093179091555050565b6146f161461d565b5f80516020615bbb8339815191527f52c63247e1f47db19d5ce0460030c497f067ca4cebf71ba98eeadabe20bace0361472a84826155bf565b5060048101611a5483826155bf565b61474161461d565b5f80516020615c9b833981519152805460ff19169055565b61476161461d565b6001600160a01b0381166118b057604051631e4fbdf760e01b81525f6004820152602401611263565b5f838302815f1985870982811083820303915050805f036147be578382816147b4576147b461554c565b0492505050611047565b8084116147de5760405163227bc15360e01b815260040160405180910390fd5b5f848688095f868103871696879004966002600389028118808a02820302808a02820302808a02820302808a02820302808a02820302808a02909103029181900381900460010186841190950394909402919094039290920491909117919091029150509392505050565b5f600282600381111561485e5761485e615363565b614868919061567a565b60ff166001149050919050565b61487d61321d565b6116ea838383614a4e565b5f80614899858561271060016141a9565b905061114b81846301e1338060016141a9565b5f828411156141ef578284035f6148c8876143fa86600a615541565b9050612aa5818961271060016141a9565b5f80516020615c7b833981519152805460408051634cee8ab360e11b815290515f93926001600160a01b0316916399dd15669160048083019260209291908290030181865afa15801561492e573d5f803e3d5ffd5b505050506040513d601f19601f82011682018060405250810190614952919061552a565b9150610bb88211156149675750610bb8919050565b5090565b606061104783835f614b87565b60408051600481526024810182526020810180516001600160e01b031663313ce56760e01b17905290515f918291829182916001600160a01b038716916149be916156a7565b5f60405180830381855afa9150503d805f81146149f6576040519150601f19603f3d011682016040523d82523d5f602084013e6149fb565b606091505b5091509150818015614a0f57506020815110155b15614a42575f81806020019051810190614a29919061552a565b905060ff8111614a40576001969095509350505050565b505b505f9485945092505050565b5f80516020615bbb8339815191526001600160a01b038416614a885781816002015f828254614a7d919061530d565b90915550614af89050565b6001600160a01b0384165f9081526020829052604090205482811015614ada5760405163391434e360e21b81526001600160a01b03861660048201526024810182905260448101849052606401611263565b6001600160a01b0385165f9081526020839052604090209083900390555b6001600160a01b038316614b16576002810180548390039055614b34565b6001600160a01b0383165f9081526020829052604090208054830190555b826001600160a01b0316846001600160a01b03167fddf252ad1be2c89b69c2b068fc378daa952ba7f163c4a11628f55a4df523b3ef84604051614b7991815260200190565b60405180910390a350505050565b606081471015614bac5760405163cd78605960e01b8152306004820152602401611263565b5f80856001600160a01b03168486604051614bc791906156a7565b5f6040518083038185875af1925050503d805f8114614c01576040519150601f19603f3d011682016040523d82523d5f602084013e614c06565b606091505b5091509150614c16868383614c20565b9695505050505050565b606082614c3557614c3082614c7c565b611047565b8151158015614c4c57506001600160a01b0384163b155b15614c7557604051639996b31560e01b81526001600160a01b0385166004820152602401611263565b5080611047565b805115614c8c5780518082602001fd5b604051630a12f52160e11b815260040160405180910390fd5b6104fd806156be83390190565b5f60208284031215614cc2575f80fd5b81356001600160e01b031981168114611047575f80fd5b602081525f82518060208401528060208501604085015e5f604082850101526040601f19601f83011684010191505092915050565b5f60208284031215614d1e575f80fd5b5035919050565b6001600160a01b03811681146118b9575f80fd5b8035614d4481614d25565b919050565b5f8060408385031215614d5a575f80fd5b8235614d6581614d25565b946020939093013593505050565b5f60208284031215614d83575f80fd5b813561104781614d25565b5f8060408385031215614d9f575f80fd5b50508035926020909101359150565b5f805f60608486031215614dc0575f80fd5b8335614dcb81614d25565b92506020840135614ddb81614d25565b929592945050506040919091013590565b5f8060408385031215614dfd575f80fd5b823591506020830135614e0f81614d25565b809150509250929050565b5f805f60608486031215614e2c575f80fd5b833592506020840135614e3e81614d25565b91506040840135614e4e81614d25565b809150509250925092565b5f60208284031215614e69575f80fd5b813564ffffffffff81168114611047575f80fd5b634e487b7160e01b5f52604160045260245ffd5b6040516101c0810167ffffffffffffffff81118282101715614eb557614eb5614e7d565b60405290565b604051601f8201601f1916810167ffffffffffffffff81118282101715614ee457614ee4614e7d565b604052919050565b803561ffff81168114614d44575f80fd5b5f6040828403128015614f0e575f80fd5b506040805190810167ffffffffffffffff81118282101715614f3257614f32614e7d565b604052614f3e83614eec565b8152614f4c60208401614eec565b60208201529392505050565b80151581146118b9575f80fd5b8035614d4481614f58565b5f8060408385031215614f81575f80fd5b8235614f8c81614d25565b91506020830135614e0f81614f58565b60408101610ed78284805161ffff908116835260209182015116910152565b5f60208284031215614fcb575f80fd5b813567ffffffffffffffff811115614fe1575f80fd5b8201601f81018413614ff1575f80fd5b803567ffffffffffffffff81111561500b5761500b614e7d565b8060051b61501b60208201614ebb565b91825260208184018101929081019087841115615036575f80fd5b6020850194505b83851015615064578435925061505283614d25565b8282526020948501949091019061503d565b979650505050505050565b5f805f8060808587031215615082575f80fd5b84359350602085013561509481614d25565b925060408501356150a481614d25565b915060608501356150b481614d25565b939692955090935050565b5f80604083850312156150d0575f80fd5b82356150db81614d25565b91506020830135614e0f81614d25565b5f82601f8301126150fa575f80fd5b813567ffffffffffffffff81111561511457615114614e7d565b615127601f8201601f1916602001614ebb565b81815284602083860101111561513b575f80fd5b816020850160208301375f918101602001919091529392505050565b5f60208284031215615167575f80fd5b813567ffffffffffffffff81111561517d575f80fd5b82016101c0818503121561518f575f80fd5b615197614e91565b6151a082614d39565b8152602082013567ffffffffffffffff8111156151bb575f80fd5b6151c7868285016150eb565b602083015250604082013567ffffffffffffffff8111156151e6575f80fd5b6151f2868285016150eb565b60408301525061520460608301614d39565b606082015261521560808301614d39565b608082015261522660a08301614d39565b60a082015261523760c08301614d39565b60c082015261524860e08301614d39565b60e082015261525a6101008301614d39565b61010082015261526d6101208301614d39565b6101208201526152806101408301614eec565b6101408201526152936101608301614eec565b6101608201526152a66101808301614f65565b6101808201526101a091820135918101919091529392505050565b600181811c908216806152d557607f821691505b6020821081036152f357634e487b7160e01b5f52602260045260245ffd5b50919050565b634e487b7160e01b5f52601160045260245ffd5b80820180821115610ed757610ed76152f9565b60a0810161533f8286805161ffff908116835260209182015116910152565b835161ffff9081166040840152602090940151909316606082015260800152919050565b634e487b7160e01b5f52602160045260245ffd5b602081016003831061539757634e487b7160e01b5f52602160045260245ffd5b91905290565b5f602082840312156153ad575f80fd5b815161104781614d25565b634e487b7160e01b5f52603260045260245ffd5b5f602082840312156153dc575f80fd5b815160ff81168114611047575f80fd5b6001815b60018411156154275780850481111561540b5761540b6152f9565b600184161561541957908102905b60019390931c9280026153f0565b935093915050565b5f8261543d57506001610ed7565b8161544957505f610ed7565b816001811461545f576002811461546957615485565b6001915050610ed7565b60ff84111561547a5761547a6152f9565b50506001821b610ed7565b5060208310610133831016604e8410600b84101617156154a8575081810a610ed7565b6154b45f1984846153ec565b805f19048211156154c7576154c76152f9565b029392505050565b5f61104760ff84168361542f565b81810381811115610ed757610ed76152f9565b64ffffffffff8281168282160390811115610ed757610ed76152f9565b64ffffffffff8181168382160190811115610ed757610ed76152f9565b5f6020828403121561553a575f80fd5b5051919050565b5f611047838361542f565b634e487b7160e01b5f52601260045260245ffd5b5f60208284031215615570575f80fd5b815161104781614f58565b601f8211156116ea57805f5260205f20601f840160051c810160208510156155a05750805b601f840160051c820191505b818110156142d5575f81556001016155ac565b815167ffffffffffffffff8111156155d9576155d9614e7d565b6155ed816155e784546152c1565b8461557b565b6020601f82116001811461561f575f83156156085750848201515b5f19600385901b1c1916600184901b1784556142d5565b5f84815260208120601f198516915b8281101561564e578785015182556020948501946001909201910161562e565b508482101561566b57868401515f19600387901b60f8161c191681555b50505050600190811b01905550565b5f60ff83168061569857634e487b7160e01b5f52601260045260245ffd5b8060ff84160691505092915050565b5f82518060208501845e5f92019182525091905056fe608060405234801561000f575f80fd5b506040516104fd3803806104fd83398101604081905261002e91610382565b6100436001600160a01b038316335f19610068565b5f80546001600160a01b0319166001600160a01b0392909216919091179055506103ef565b604080516001600160a01b038416602482015260448082018490528251808303909101815260649091019091526020810180516001600160e01b0390811663095ea7b360e01b179091526100c0908590839061012c16565b61012657604080516001600160a01b03851660248201525f6044808301919091528251808303909101815260649091019091526020810180516001600160e01b0390811663095ea7b360e01b1790915261011c9186916101cd16565b61012684826101cd565b50505050565b5f805f846001600160a01b03168460405161014791906103ba565b5f604051808303815f865af19150503d805f8114610180576040519150601f19603f3d011682016040523d82523d5f602084013e610185565b606091505b50915091508180156101af5750805115806101af5750808060200190518101906101af91906103d0565b80156101c457505f856001600160a01b03163b115b95945050505050565b5f6101e16001600160a01b03841683610238565b905080515f1415801561020557508080602001905181019061020391906103d0565b155b1561023357604051635274afe760e01b81526001600160a01b03841660048201526024015b60405180910390fd5b505050565b606061024583835f61024c565b9392505050565b6060814710156102715760405163cd78605960e01b815230600482015260240161022a565b5f80856001600160a01b0316848660405161028c91906103ba565b5f6040518083038185875af1925050503d805f81146102c6576040519150601f19603f3d011682016040523d82523d5f602084013e6102cb565b606091505b5090925090506102dc8683836102e6565b9695505050505050565b6060826102fb576102f682610342565b610245565b815115801561031257506001600160a01b0384163b155b1561033b57604051639996b31560e01b81526001600160a01b038516600482015260240161022a565b5080610245565b8051156103525780518082602001fd5b604051630a12f52160e11b815260040160405180910390fd5b50565b6001600160a01b038116811461036b575f80fd5b5f8060408385031215610393575f80fd5b825161039e8161036e565b60208401519092506103af8161036e565b809150509250929050565b5f82518060208501845e5f920191825250919050565b5f602082840312156103e0575f80fd5b81518015158114610245575f80fd5b610101806103fc5f395ff3fe6080604052600436106025575f3560e01c806317fcb39b146029578063439370b1146061575b5f80fd5b3480156033575f80fd5b505f546045906001600160a01b031681565b6040516001600160a01b03909116815260200160405180910390f35b60676069565b005b5f8054906101000a90046001600160a01b03166001600160a01b031663d0e30db0346040518263ffffffff1660e01b81526004015f604051808303818588803b15801560b3575f80fd5b505af115801560c4573d5f803e3d5ffd5b505050505056fea2646970667358221220b11a907b569cbcf09f5ab0939e5b1f67fee25a4d3790d60f807e18982c494dc264736f6c634300081a003352c63247e1f47db19d5ce0460030c497f067ca4cebf71ba98eeadabe20bace007c302ed2c673c3d6b4551cf74a01ee649f887e14fd20d13dbca1b6099534d90252c63247e1f47db19d5ce0460030c497f067ca4cebf71ba98eeadabe20bace020e6b3200a60a991c539f47dddaca04a18eb4bcf2b53906fb44751d827f001400083cc98ab296d1a1f01854b5f7a2f47df4425a56ba7b35f7faa3a336067e48007c302ed2c673c3d6b4551cf74a01ee649f887e14fd20d13dbca1b6099534d900a5292f7ccd85acc1b3080c01f5da9af7799f2c26826bd4d79081d6511780bd00cd5ed15c6e187e77e9aee88184c21f4f2182ab5827cb3b7e07fbedcd63f033007c302ed2c673c3d6b4551cf74a01ee649f887e14fd20d13dbca1b6099534d904083cc98ab296d1a1f01854b5f7a2f47df4425a56ba7b35f7faa3a336067e4801a26469706673582212201c41cd48a2bc3ee1919881f448a8602a1f18217a7a3c2b8e61a470f04f28407564736f6c634300081a0033","linkReferences":{}},"methodIdentifiers":{"MAX_MANAGEMENT_RATE()":"f886d4bd","MAX_PERFORMANCE_RATE()":"a1e59442","MAX_PROTOCOL_RATE()":"2542d4a6","acceptOwnership()":"79ba5097","addToWhitelist(address[])":"7f649783","allowance(address,address)":"dd62ed3e","approve(address,uint256)":"095ea7b3","asset()":"38d52e0f","balanceOf(address)":"70a08231","cancelRequestDeposit()":"9c428921","claimableDepositRequest(uint256,address)":"995ea21a","claimableRedeemRequest(uint256,address)":"eaed1d07","close()":"43d726d6","convertToAssets(uint256)":"07a2d13a","convertToAssets(uint256,uint256)":"181e7b3b","convertToShares(uint256)":"c6e6f592","convertToShares(uint256,uint256)":"db2088f4","decimals()":"313ce567","deposit(uint256,address)":"6e553f65","deposit(uint256,address,address)":"2e2d2984","depositEpochId()":"65e08b23","disableWhitelist()":"d6b0f484","epochSettleId(uint40)":"2ef2274a","feeRates()":"7688c584","getRolesStorage()":"937147e3","highWaterMark()":"1e8410da","initialize((address,string,string,address,address,address,address,address,address,address,uint16,uint16,bool,uint256))":"d4799d81","initiateClosing()":"a4393915","isOperator(address,address)":"b6363cf2","isWhitelistActivated()":"55fcd367","isWhitelisted(address)":"3af32abf","lastDepositRequestId(address)":"16f79e30","lastFeeTime()":"66b5ae1f","lastRedeemRequestId(address)":"1291d4e0","maxDeposit(address)":"402d267d","maxMint(address)":"c63d75b6","maxRedeem(address)":"d905777e","maxWithdraw(address)":"ce96cb77","mint(uint256,address)":"94bf804d","mint(uint256,address,address)":"da39b3e7","name()":"06fdde03","owner()":"8da5cb5b","pause()":"8456cb59","paused()":"5c975abb","pendingDepositRequest(uint256,address)":"26c6f96c","pendingOwner()":"e30c3978","pendingRedeemRequest(uint256,address)":"f5a23d8d","pendingSilo()":"c6d8a074","previewDeposit(uint256)":"ef8b30f7","previewMint(uint256)":"b3d7f6b9","previewRedeem(uint256)":"4cdad506","previewWithdraw(uint256)":"0a28a477","redeem(uint256,address,address)":"ba087652","redeemEpochId()":"3edf7247","renounceOwnership()":"715018a6","requestDeposit(uint256,address,address)":"85b77f45","requestDeposit(uint256,address,address,address)":"a5948c89","requestRedeem(uint256,address,address)":"7d41c86e","revokeFromWhitelist(address[])":"86af6e68","setOperator(address,bool)":"558a7297","settleDeposit()":"559ec80d","settleRedeem()":"a03d55e3","share()":"a8d5fd65","supportsInterface(bytes4)":"01ffc9a7","symbol()":"95d89b41","totalAssets()":"01e1d114","totalSupply()":"18160ddd","transfer(address,uint256)":"a9059cbb","transferFrom(address,address,uint256)":"23b872dd","transferOwnership(address)":"f2fde38b","unpause()":"3f4ba83a","updateFeeReceiver(address)":"c69bebe4","updateNewTotalAssets(uint256)":"bcd1bf34","updateRates((uint16,uint16))":"3e0a3c25","updateValuationManager(address)":"65ccfcef","updateWhitelistManager(address)":"f1a76fcc","withdraw(uint256,address,address)":"b460af94"},"storageLayout":{"storage":[],"types":{}},"id":87}