{"abi":[{"type":"constructor","inputs":[{"name":"disable","type":"bool","internalType":"bool"}],"stateMutability":"nonpayable"},{"type":"function","name":"MAX_MANAGEMENT_RATE","inputs":[],"outputs":[{"name":"","type":"uint16","internalType":"uint16"}],"stateMutability":"view"},{"type":"function","name":"MAX_PERFORMANCE_RATE","inputs":[],"outputs":[{"name":"","type":"uint16","internalType":"uint16"}],"stateMutability":"view"},{"type":"function","name":"MAX_PROTOCOL_RATE","inputs":[],"outputs":[{"name":"","type":"uint16","internalType":"uint16"}],"stateMutability":"view"},{"type":"function","name":"acceptOwnership","inputs":[],"outputs":[],"stateMutability":"nonpayable"},{"type":"function","name":"addToWhitelist","inputs":[{"name":"accounts","type":"address[]","internalType":"address[]"}],"outputs":[],"stateMutability":"nonpayable"},{"type":"function","name":"allowance","inputs":[{"name":"owner","type":"address","internalType":"address"},{"name":"spender","type":"address","internalType":"address"}],"outputs":[{"name":"","type":"uint256","internalType":"uint256"}],"stateMutability":"view"},{"type":"function","name":"approve","inputs":[{"name":"spender","type":"address","internalType":"address"},{"name":"value","type":"uint256","internalType":"uint256"}],"outputs":[{"name":"","type":"bool","internalType":"bool"}],"stateMutability":"nonpayable"},{"type":"function","name":"asset","inputs":[],"outputs":[{"name":"","type":"address","internalType":"address"}],"stateMutability":"view"},{"type":"function","name":"balanceOf","inputs":[{"name":"account","type":"address","internalType":"address"}],"outputs":[{"name":"","type":"uint256","internalType":"uint256"}],"stateMutability":"view"},{"type":"function","name":"cancelRequestDeposit","inputs":[],"outputs":[],"stateMutability":"nonpayable"},{"type":"function","name":"claimableDepositRequest","inputs":[{"name":"requestId","type":"uint256","internalType":"uint256"},{"name":"controller","type":"address","internalType":"address"}],"outputs":[{"name":"assets","type":"uint256","internalType":"uint256"}],"stateMutability":"view"},{"type":"function","name":"claimableRedeemRequest","inputs":[{"name":"requestId","type":"uint256","internalType":"uint256"},{"name":"controller","type":"address","internalType":"address"}],"outputs":[{"name":"shares","type":"uint256","internalType":"uint256"}],"stateMutability":"view"},{"type":"function","name":"close","inputs":[],"outputs":[],"stateMutability":"nonpayable"},{"type":"function","name":"convertToAssets","inputs":[{"name":"shares","type":"uint256","internalType":"uint256"}],"outputs":[{"name":"","type":"uint256","internalType":"uint256"}],"stateMutability":"view"},{"type":"function","name":"convertToAssets","inputs":[{"name":"shares","type":"uint256","internalType":"uint256"},{"name":"requestId","type":"uint256","internalType":"uint256"}],"outputs":[{"name":"","type":"uint256","internalType":"uint256"}],"stateMutability":"view"},{"type":"function","name":"convertToShares","inputs":[{"name":"assets","type":"uint256","internalType":"uint256"}],"outputs":[{"name":"","type":"uint256","internalType":"uint256"}],"stateMutability":"view"},{"type":"function","name":"convertToShares","inputs":[{"name":"assets","type":"uint256","internalType":"uint256"},{"name":"requestId","type":"uint256","internalType":"uint256"}],"outputs":[{"name":"","type":"uint256","internalType":"uint256"}],"stateMutability":"view"},{"type":"function","name":"decimals","inputs":[],"outputs":[{"name":"","type":"uint8","internalType":"uint8"}],"stateMutability":"view"},{"type":"function","name":"decimalsOffset","inputs":[],"outputs":[{"name":"","type":"uint256","internalType":"uint256"}],"stateMutability":"view"},{"type":"function","name":"deposit","inputs":[{"name":"assets","type":"uint256","internalType":"uint256"},{"name":"receiver","type":"address","internalType":"address"},{"name":"controller","type":"address","internalType":"address"}],"outputs":[{"name":"","type":"uint256","internalType":"uint256"}],"stateMutability":"nonpayable"},{"type":"function","name":"deposit","inputs":[{"name":"assets","type":"uint256","internalType":"uint256"},{"name":"receiver","type":"address","internalType":"address"}],"outputs":[{"name":"","type":"uint256","internalType":"uint256"}],"stateMutability":"nonpayable"},{"type":"function","name":"depositEpochId","inputs":[],"outputs":[{"name":"","type":"uint40","internalType":"uint40"}],"stateMutability":"view"},{"type":"function","name":"depositSettleId","inputs":[],"outputs":[{"name":"","type":"uint256","internalType":"uint256"}],"stateMutability":"view"},{"type":"function","name":"disableWhitelist","inputs":[],"outputs":[],"stateMutability":"nonpayable"},{"type":"function","name":"epochSettleId","inputs":[{"name":"epochId","type":"uint40","internalType":"uint40"}],"outputs":[{"name":"","type":"uint40","internalType":"uint40"}],"stateMutability":"view"},{"type":"function","name":"feeRates","inputs":[],"outputs":[{"name":"","type":"tuple","internalType":"struct Rates","components":[{"name":"managementRate","type":"uint16","internalType":"uint16"},{"name":"performanceRate","type":"uint16","internalType":"uint16"}]}],"stateMutability":"view"},{"type":"function","name":"feeReceiver","inputs":[],"outputs":[{"name":"","type":"address","internalType":"address"}],"stateMutability":"view"},{"type":"function","name":"feeRegistry","inputs":[],"outputs":[{"name":"","type":"address","internalType":"address"}],"stateMutability":"view"},{"type":"function","name":"getRolesStorage","inputs":[],"outputs":[{"name":"_rolesStorage","type":"tuple","internalType":"struct Roles.RolesStorage","components":[{"name":"whitelistManager","type":"address","internalType":"address"},{"name":"feeReceiver","type":"address","internalType":"address"},{"name":"safe","type":"address","internalType":"address"},{"name":"feeRegistry","type":"address","internalType":"contract FeeRegistry"},{"name":"valuationManager","type":"address","internalType":"address"}]}],"stateMutability":"pure"},{"type":"function","name":"highWaterMark","inputs":[],"outputs":[{"name":"","type":"uint256","internalType":"uint256"}],"stateMutability":"view"},{"type":"function","name":"initialize","inputs":[{"name":"init","type":"tuple","internalType":"struct Vault.InitStruct","components":[{"name":"underlying","type":"address","internalType":"contract IERC20"},{"name":"name","type":"string","internalType":"string"},{"name":"symbol","type":"string","internalType":"string"},{"name":"safe","type":"address","internalType":"address"},{"name":"whitelistManager","type":"address","internalType":"address"},{"name":"valuationManager","type":"address","internalType":"address"},{"name":"admin","type":"address","internalType":"address"},{"name":"feeReceiver","type":"address","internalType":"address"},{"name":"feeRegistry","type":"address","internalType":"address"},{"name":"wrappedNativeToken","type":"address","internalType":"address"},{"name":"managementRate","type":"uint16","internalType":"uint16"},{"name":"performanceRate","type":"uint16","internalType":"uint16"},{"name":"enableWhitelist","type":"bool","internalType":"bool"},{"name":"rateUpdateCooldown","type":"uint256","internalType":"uint256"}]}],"outputs":[],"stateMutability":"nonpayable"},{"type":"function","name":"initiateClosing","inputs":[],"outputs":[],"stateMutability":"nonpayable"},{"type":"function","name":"isOperator","inputs":[{"name":"controller","type":"address","internalType":"address"},{"name":"operator","type":"address","internalType":"address"}],"outputs":[{"name":"","type":"bool","internalType":"bool"}],"stateMutability":"view"},{"type":"function","name":"isWhitelistActivated","inputs":[],"outputs":[{"name":"","type":"bool","internalType":"bool"}],"stateMutability":"view"},{"type":"function","name":"isWhitelisted","inputs":[{"name":"account","type":"address","internalType":"address"}],"outputs":[{"name":"","type":"bool","internalType":"bool"}],"stateMutability":"view"},{"type":"function","name":"lastDepositEpochIdSettled_debug","inputs":[],"outputs":[{"name":"","type":"uint256","internalType":"uint256"}],"stateMutability":"view"},{"type":"function","name":"lastDepositRequestId","inputs":[{"name":"controller","type":"address","internalType":"address"}],"outputs":[{"name":"","type":"uint40","internalType":"uint40"}],"stateMutability":"view"},{"type":"function","name":"lastDepositRequestId_debug","inputs":[{"name":"controller","type":"address","internalType":"address"}],"outputs":[{"name":"","type":"uint256","internalType":"uint256"}],"stateMutability":"view"},{"type":"function","name":"lastFeeTime","inputs":[],"outputs":[{"name":"","type":"uint256","internalType":"uint256"}],"stateMutability":"view"},{"type":"function","name":"lastRedeemRequestId","inputs":[{"name":"controller","type":"address","internalType":"address"}],"outputs":[{"name":"","type":"uint40","internalType":"uint40"}],"stateMutability":"view"},{"type":"function","name":"maxDeposit","inputs":[{"name":"controller","type":"address","internalType":"address"}],"outputs":[{"name":"","type":"uint256","internalType":"uint256"}],"stateMutability":"view"},{"type":"function","name":"maxMint","inputs":[{"name":"","type":"address","internalType":"address"}],"outputs":[{"name":"","type":"uint256","internalType":"uint256"}],"stateMutability":"view"},{"type":"function","name":"maxRedeem","inputs":[{"name":"controller","type":"address","internalType":"address"}],"outputs":[{"name":"","type":"uint256","internalType":"uint256"}],"stateMutability":"view"},{"type":"function","name":"maxWithdraw","inputs":[{"name":"owner","type":"address","internalType":"address"}],"outputs":[{"name":"","type":"uint256","internalType":"uint256"}],"stateMutability":"view"},{"type":"function","name":"mint","inputs":[{"name":"shares","type":"uint256","internalType":"uint256"},{"name":"receiver","type":"address","internalType":"address"}],"outputs":[{"name":"","type":"uint256","internalType":"uint256"}],"stateMutability":"nonpayable"},{"type":"function","name":"mint","inputs":[{"name":"shares","type":"uint256","internalType":"uint256"},{"name":"receiver","type":"address","internalType":"address"},{"name":"controller","type":"address","internalType":"address"}],"outputs":[{"name":"","type":"uint256","internalType":"uint256"}],"stateMutability":"nonpayable"},{"type":"function","name":"name","inputs":[],"outputs":[{"name":"","type":"string","internalType":"string"}],"stateMutability":"view"},{"type":"function","name":"newTotalAssets","inputs":[],"outputs":[{"name":"","type":"uint256","internalType":"uint256"}],"stateMutability":"view"},{"type":"function","name":"owner","inputs":[],"outputs":[{"name":"","type":"address","internalType":"address"}],"stateMutability":"view"},{"type":"function","name":"pause","inputs":[],"outputs":[],"stateMutability":"nonpayable"},{"type":"function","name":"paused","inputs":[],"outputs":[{"name":"","type":"bool","internalType":"bool"}],"stateMutability":"view"},{"type":"function","name":"pendingDeposit","inputs":[],"outputs":[{"name":"","type":"uint256","internalType":"uint256"}],"stateMutability":"view"},{"type":"function","name":"pendingDepositRequest","inputs":[{"name":"requestId","type":"uint256","internalType":"uint256"},{"name":"controller","type":"address","internalType":"address"}],"outputs":[{"name":"assets","type":"uint256","internalType":"uint256"}],"stateMutability":"view"},{"type":"function","name":"pendingOwner","inputs":[],"outputs":[{"name":"","type":"address","internalType":"address"}],"stateMutability":"view"},{"type":"function","name":"pendingRedeem","inputs":[],"outputs":[{"name":"","type":"uint256","internalType":"uint256"}],"stateMutability":"view"},{"type":"function","name":"pendingRedeemRequest","inputs":[{"name":"requestId","type":"uint256","internalType":"uint256"},{"name":"controller","type":"address","internalType":"address"}],"outputs":[{"name":"shares","type":"uint256","internalType":"uint256"}],"stateMutability":"view"},{"type":"function","name":"pendingSilo","inputs":[],"outputs":[{"name":"","type":"address","internalType":"address"}],"stateMutability":"view"},{"type":"function","name":"previewDeposit","inputs":[{"name":"","type":"uint256","internalType":"uint256"}],"outputs":[{"name":"","type":"uint256","internalType":"uint256"}],"stateMutability":"pure"},{"type":"function","name":"previewMint","inputs":[{"name":"","type":"uint256","internalType":"uint256"}],"outputs":[{"name":"","type":"uint256","internalType":"uint256"}],"stateMutability":"pure"},{"type":"function","name":"previewRedeem","inputs":[{"name":"","type":"uint256","internalType":"uint256"}],"outputs":[{"name":"","type":"uint256","internalType":"uint256"}],"stateMutability":"pure"},{"type":"function","name":"previewWithdraw","inputs":[{"name":"","type":"uint256","internalType":"uint256"}],"outputs":[{"name":"","type":"uint256","internalType":"uint256"}],"stateMutability":"pure"},{"type":"function","name":"pricePerShare","inputs":[],"outputs":[{"name":"","type":"uint256","internalType":"uint256"}],"stateMutability":"view"},{"type":"function","name":"protocolFeeReceiver","inputs":[],"outputs":[{"name":"","type":"address","internalType":"address"}],"stateMutability":"view"},{"type":"function","name":"protocolRate","inputs":[],"outputs":[{"name":"","type":"uint256","internalType":"uint256"}],"stateMutability":"view"},{"type":"function","name":"redeem","inputs":[{"name":"shares","type":"uint256","internalType":"uint256"},{"name":"receiver","type":"address","internalType":"address"},{"name":"controller","type":"address","internalType":"address"}],"outputs":[{"name":"assets","type":"uint256","internalType":"uint256"}],"stateMutability":"nonpayable"},{"type":"function","name":"redeemEpochId","inputs":[],"outputs":[{"name":"","type":"uint40","internalType":"uint40"}],"stateMutability":"view"},{"type":"function","name":"redeemSettleId","inputs":[],"outputs":[{"name":"","type":"uint256","internalType":"uint256"}],"stateMutability":"view"},{"type":"function","name":"renounceOwnership","inputs":[],"outputs":[],"stateMutability":"nonpayable"},{"type":"function","name":"requestDeposit","inputs":[{"name":"assets","type":"uint256","internalType":"uint256"},{"name":"controller","type":"address","internalType":"address"},{"name":"owner","type":"address","internalType":"address"}],"outputs":[{"name":"requestId","type":"uint256","internalType":"uint256"}],"stateMutability":"payable"},{"type":"function","name":"requestDeposit","inputs":[{"name":"assets","type":"uint256","internalType":"uint256"},{"name":"controller","type":"address","internalType":"address"},{"name":"owner","type":"address","internalType":"address"},{"name":"referral","type":"address","internalType":"address"}],"outputs":[{"name":"requestId","type":"uint256","internalType":"uint256"}],"stateMutability":"payable"},{"type":"function","name":"requestRedeem","inputs":[{"name":"shares","type":"uint256","internalType":"uint256"},{"name":"controller","type":"address","internalType":"address"},{"name":"owner","type":"address","internalType":"address"}],"outputs":[{"name":"requestId","type":"uint256","internalType":"uint256"}],"stateMutability":"nonpayable"},{"type":"function","name":"revokeFromWhitelist","inputs":[{"name":"accounts","type":"address[]","internalType":"address[]"}],"outputs":[],"stateMutability":"nonpayable"},{"type":"function","name":"safe","inputs":[],"outputs":[{"name":"","type":"address","internalType":"address"}],"stateMutability":"view"},{"type":"function","name":"setOperator","inputs":[{"name":"operator","type":"address","internalType":"address"},{"name":"approved","type":"bool","internalType":"bool"}],"outputs":[{"name":"success","type":"bool","internalType":"bool"}],"stateMutability":"nonpayable"},{"type":"function","name":"settleDeposit","inputs":[],"outputs":[],"stateMutability":"nonpayable"},{"type":"function","name":"settleRedeem","inputs":[],"outputs":[],"stateMutability":"nonpayable"},{"type":"function","name":"share","inputs":[],"outputs":[{"name":"","type":"address","internalType":"address"}],"stateMutability":"view"},{"type":"function","name":"state","inputs":[],"outputs":[{"name":"","type":"uint8","internalType":"enum State"}],"stateMutability":"view"},{"type":"function","name":"supportsInterface","inputs":[{"name":"interfaceId","type":"bytes4","internalType":"bytes4"}],"outputs":[{"name":"","type":"bool","internalType":"bool"}],"stateMutability":"view"},{"type":"function","name":"symbol","inputs":[],"outputs":[{"name":"","type":"string","internalType":"string"}],"stateMutability":"view"},{"type":"function","name":"totalAssets","inputs":[],"outputs":[{"name":"","type":"uint256","internalType":"uint256"}],"stateMutability":"view"},{"type":"function","name":"totalAssets","inputs":[{"name":"epochId","type":"uint256","internalType":"uint256"}],"outputs":[{"name":"","type":"uint256","internalType":"uint256"}],"stateMutability":"view"},{"type":"function","name":"totalSupply","inputs":[],"outputs":[{"name":"","type":"uint256","internalType":"uint256"}],"stateMutability":"view"},{"type":"function","name":"totalSupply","inputs":[{"name":"epochId","type":"uint256","internalType":"uint256"}],"outputs":[{"name":"","type":"uint256","internalType":"uint256"}],"stateMutability":"view"},{"type":"function","name":"transfer","inputs":[{"name":"to","type":"address","internalType":"address"},{"name":"value","type":"uint256","internalType":"uint256"}],"outputs":[{"name":"","type":"bool","internalType":"bool"}],"stateMutability":"nonpayable"},{"type":"function","name":"transferFrom","inputs":[{"name":"from","type":"address","internalType":"address"},{"name":"to","type":"address","internalType":"address"},{"name":"value","type":"uint256","internalType":"uint256"}],"outputs":[{"name":"","type":"bool","internalType":"bool"}],"stateMutability":"nonpayable"},{"type":"function","name":"transferOwnership","inputs":[{"name":"newOwner","type":"address","internalType":"address"}],"outputs":[],"stateMutability":"nonpayable"},{"type":"function","name":"underlyingDecimals","inputs":[],"outputs":[{"name":"","type":"uint256","internalType":"uint256"}],"stateMutability":"view"},{"type":"function","name":"unpause","inputs":[],"outputs":[],"stateMutability":"nonpayable"},{"type":"function","name":"updateFeeReceiver","inputs":[{"name":"_feeReceiver","type":"address","internalType":"address"}],"outputs":[],"stateMutability":"nonpayable"},{"type":"function","name":"updateNewTotalAssets","inputs":[{"name":"_newTotalAssets","type":"uint256","internalType":"uint256"}],"outputs":[],"stateMutability":"nonpayable"},{"type":"function","name":"updateRates","inputs":[{"name":"newRates","type":"tuple","internalType":"struct Rates","components":[{"name":"managementRate","type":"uint16","internalType":"uint16"},{"name":"performanceRate","type":"uint16","internalType":"uint16"}]}],"outputs":[],"stateMutability":"nonpayable"},{"type":"function","name":"updateValuationManager","inputs":[{"name":"_valuationManager","type":"address","internalType":"address"}],"outputs":[],"stateMutability":"nonpayable"},{"type":"function","name":"updateWhitelistManager","inputs":[{"name":"_whitelistManager","type":"address","internalType":"address"}],"outputs":[],"stateMutability":"nonpayable"},{"type":"function","name":"valuationManager","inputs":[],"outputs":[{"name":"","type":"address","internalType":"address"}],"stateMutability":"view"},{"type":"function","name":"whitelistManager","inputs":[],"outputs":[{"name":"","type":"address","internalType":"address"}],"stateMutability":"view"},{"type":"function","name":"withdraw","inputs":[{"name":"assets","type":"uint256","internalType":"uint256"},{"name":"receiver","type":"address","internalType":"address"},{"name":"controller","type":"address","internalType":"address"}],"outputs":[{"name":"shares","type":"uint256","internalType":"uint256"}],"stateMutability":"nonpayable"},{"type":"event","name":"Approval","inputs":[{"name":"owner","type":"address","indexed":true,"internalType":"address"},{"name":"spender","type":"address","indexed":true,"internalType":"address"},{"name":"value","type":"uint256","indexed":false,"internalType":"uint256"}],"anonymous":false},{"type":"event","name":"Deposit","inputs":[{"name":"sender","type":"address","indexed":true,"internalType":"address"},{"name":"owner","type":"address","indexed":true,"internalType":"address"},{"name":"assets","type":"uint256","indexed":false,"internalType":"uint256"},{"name":"shares","type":"uint256","indexed":false,"internalType":"uint256"}],"anonymous":false},{"type":"event","name":"DepositRequest","inputs":[{"name":"controller","type":"address","indexed":true,"internalType":"address"},{"name":"owner","type":"address","indexed":true,"internalType":"address"},{"name":"requestId","type":"uint256","indexed":true,"internalType":"uint256"},{"name":"sender","type":"address","indexed":false,"internalType":"address"},{"name":"assets","type":"uint256","indexed":false,"internalType":"uint256"}],"anonymous":false},{"type":"event","name":"DepositRequestCanceled","inputs":[{"name":"requestId","type":"uint256","indexed":true,"internalType":"uint256"},{"name":"controller","type":"address","indexed":true,"internalType":"address"}],"anonymous":false},{"type":"event","name":"FeeReceiverUpdated","inputs":[{"name":"oldReceiver","type":"address","indexed":false,"internalType":"address"},{"name":"newReceiver","type":"address","indexed":false,"internalType":"address"}],"anonymous":false},{"type":"event","name":"HighWaterMarkUpdated","inputs":[{"name":"oldHighWaterMark","type":"uint256","indexed":false,"internalType":"uint256"},{"name":"newHighWaterMark","type":"uint256","indexed":false,"internalType":"uint256"}],"anonymous":false},{"type":"event","name":"Initialized","inputs":[{"name":"version","type":"uint64","indexed":false,"internalType":"uint64"}],"anonymous":false},{"type":"event","name":"NewTotalAssetsUpdated","inputs":[{"name":"totalAssets","type":"uint256","indexed":false,"internalType":"uint256"}],"anonymous":false},{"type":"event","name":"OperatorSet","inputs":[{"name":"controller","type":"address","indexed":true,"internalType":"address"},{"name":"operator","type":"address","indexed":true,"internalType":"address"},{"name":"approved","type":"bool","indexed":false,"internalType":"bool"}],"anonymous":false},{"type":"event","name":"OwnershipTransferStarted","inputs":[{"name":"previousOwner","type":"address","indexed":true,"internalType":"address"},{"name":"newOwner","type":"address","indexed":true,"internalType":"address"}],"anonymous":false},{"type":"event","name":"OwnershipTransferred","inputs":[{"name":"previousOwner","type":"address","indexed":true,"internalType":"address"},{"name":"newOwner","type":"address","indexed":true,"internalType":"address"}],"anonymous":false},{"type":"event","name":"Paused","inputs":[{"name":"account","type":"address","indexed":false,"internalType":"address"}],"anonymous":false},{"type":"event","name":"RatesUpdated","inputs":[{"name":"oldRates","type":"tuple","indexed":false,"internalType":"struct Rates","components":[{"name":"managementRate","type":"uint16","internalType":"uint16"},{"name":"performanceRate","type":"uint16","internalType":"uint16"}]},{"name":"newRate","type":"tuple","indexed":false,"internalType":"struct Rates","components":[{"name":"managementRate","type":"uint16","internalType":"uint16"},{"name":"performanceRate","type":"uint16","internalType":"uint16"}]},{"name":"timestamp","type":"uint256","indexed":false,"internalType":"uint256"}],"anonymous":false},{"type":"event","name":"RedeemRequest","inputs":[{"name":"controller","type":"address","indexed":true,"internalType":"address"},{"name":"owner","type":"address","indexed":true,"internalType":"address"},{"name":"requestId","type":"uint256","indexed":true,"internalType":"uint256"},{"name":"sender","type":"address","indexed":false,"internalType":"address"},{"name":"shares","type":"uint256","indexed":false,"internalType":"uint256"}],"anonymous":false},{"type":"event","name":"Referral","inputs":[{"name":"referral","type":"address","indexed":true,"internalType":"address"},{"name":"owner","type":"address","indexed":true,"internalType":"address"},{"name":"requestId","type":"uint256","indexed":true,"internalType":"uint256"},{"name":"assets","type":"uint256","indexed":false,"internalType":"uint256"}],"anonymous":false},{"type":"event","name":"SettleDeposit","inputs":[{"name":"epochId","type":"uint40","indexed":true,"internalType":"uint40"},{"name":"settledId","type":"uint40","indexed":true,"internalType":"uint40"},{"name":"totalAssets","type":"uint256","indexed":false,"internalType":"uint256"},{"name":"totalSupply","type":"uint256","indexed":false,"internalType":"uint256"},{"name":"assetsDeposited","type":"uint256","indexed":false,"internalType":"uint256"},{"name":"sharesMinted","type":"uint256","indexed":false,"internalType":"uint256"}],"anonymous":false},{"type":"event","name":"SettleRedeem","inputs":[{"name":"epochId","type":"uint40","indexed":true,"internalType":"uint40"},{"name":"settledId","type":"uint40","indexed":true,"internalType":"uint40"},{"name":"totalAssets","type":"uint256","indexed":false,"internalType":"uint256"},{"name":"totalSupply","type":"uint256","indexed":false,"internalType":"uint256"},{"name":"assetsWithdrawed","type":"uint256","indexed":false,"internalType":"uint256"},{"name":"sharesBurned","type":"uint256","indexed":false,"internalType":"uint256"}],"anonymous":false},{"type":"event","name":"StateUpdated","inputs":[{"name":"state","type":"uint8","indexed":false,"internalType":"enum State"}],"anonymous":false},{"type":"event","name":"TotalAssetsUpdated","inputs":[{"name":"totalAssets","type":"uint256","indexed":false,"internalType":"uint256"}],"anonymous":false},{"type":"event","name":"Transfer","inputs":[{"name":"from","type":"address","indexed":true,"internalType":"address"},{"name":"to","type":"address","indexed":true,"internalType":"address"},{"name":"value","type":"uint256","indexed":false,"internalType":"uint256"}],"anonymous":false},{"type":"event","name":"Unpaused","inputs":[{"name":"account","type":"address","indexed":false,"internalType":"address"}],"anonymous":false},{"type":"event","name":"ValuationManagerUpdated","inputs":[{"name":"oldManager","type":"address","indexed":false,"internalType":"address"},{"name":"newManager","type":"address","indexed":false,"internalType":"address"}],"anonymous":false},{"type":"event","name":"WhitelistDisabled","inputs":[],"anonymous":false},{"type":"event","name":"WhitelistManagerUpdated","inputs":[{"name":"oldManager","type":"address","indexed":false,"internalType":"address"},{"name":"newManager","type":"address","indexed":false,"internalType":"address"}],"anonymous":false},{"type":"event","name":"WhitelistUpdated","inputs":[{"name":"account","type":"address","indexed":true,"internalType":"address"},{"name":"authorized","type":"bool","indexed":false,"internalType":"bool"}],"anonymous":false},{"type":"event","name":"Withdraw","inputs":[{"name":"sender","type":"address","indexed":true,"internalType":"address"},{"name":"receiver","type":"address","indexed":true,"internalType":"address"},{"name":"owner","type":"address","indexed":true,"internalType":"address"},{"name":"assets","type":"uint256","indexed":false,"internalType":"uint256"},{"name":"shares","type":"uint256","indexed":false,"internalType":"uint256"}],"anonymous":false},{"type":"error","name":"AboveMaxRate","inputs":[{"name":"maxRate","type":"uint256","internalType":"uint256"}]},{"type":"error","name":"AddressEmptyCode","inputs":[{"name":"target","type":"address","internalType":"address"}]},{"type":"error","name":"AddressInsufficientBalance","inputs":[{"name":"account","type":"address","internalType":"address"}]},{"type":"error","name":"CantDepositNativeToken","inputs":[]},{"type":"error","name":"Closed","inputs":[]},{"type":"error","name":"ERC20InsufficientAllowance","inputs":[{"name":"spender","type":"address","internalType":"address"},{"name":"allowance","type":"uint256","internalType":"uint256"},{"name":"needed","type":"uint256","internalType":"uint256"}]},{"type":"error","name":"ERC20InsufficientBalance","inputs":[{"name":"sender","type":"address","internalType":"address"},{"name":"balance","type":"uint256","internalType":"uint256"},{"name":"needed","type":"uint256","internalType":"uint256"}]},{"type":"error","name":"ERC20InvalidApprover","inputs":[{"name":"approver","type":"address","internalType":"address"}]},{"type":"error","name":"ERC20InvalidReceiver","inputs":[{"name":"receiver","type":"address","internalType":"address"}]},{"type":"error","name":"ERC20InvalidSender","inputs":[{"name":"sender","type":"address","internalType":"address"}]},{"type":"error","name":"ERC20InvalidSpender","inputs":[{"name":"spender","type":"address","internalType":"address"}]},{"type":"error","name":"ERC4626ExceededMaxDeposit","inputs":[{"name":"receiver","type":"address","internalType":"address"},{"name":"assets","type":"uint256","internalType":"uint256"},{"name":"max","type":"uint256","internalType":"uint256"}]},{"type":"error","name":"ERC4626ExceededMaxMint","inputs":[{"name":"receiver","type":"address","internalType":"address"},{"name":"shares","type":"uint256","internalType":"uint256"},{"name":"max","type":"uint256","internalType":"uint256"}]},{"type":"error","name":"ERC4626ExceededMaxRedeem","inputs":[{"name":"owner","type":"address","internalType":"address"},{"name":"shares","type":"uint256","internalType":"uint256"},{"name":"max","type":"uint256","internalType":"uint256"}]},{"type":"error","name":"ERC4626ExceededMaxWithdraw","inputs":[{"name":"owner","type":"address","internalType":"address"},{"name":"assets","type":"uint256","internalType":"uint256"},{"name":"max","type":"uint256","internalType":"uint256"}]},{"type":"error","name":"ERC7540InvalidOperator","inputs":[]},{"type":"error","name":"ERC7540PreviewDepositDisabled","inputs":[]},{"type":"error","name":"ERC7540PreviewMintDisabled","inputs":[]},{"type":"error","name":"ERC7540PreviewRedeemDisabled","inputs":[]},{"type":"error","name":"ERC7540PreviewWithdrawDisabled","inputs":[]},{"type":"error","name":"EnforcedPause","inputs":[]},{"type":"error","name":"ExpectedPause","inputs":[]},{"type":"error","name":"FailedInnerCall","inputs":[]},{"type":"error","name":"InvalidInitialization","inputs":[]},{"type":"error","name":"MathOverflowedMulDiv","inputs":[]},{"type":"error","name":"NewTotalAssetsMissing","inputs":[]},{"type":"error","name":"NotClosing","inputs":[{"name":"currentState","type":"uint8","internalType":"enum State"}]},{"type":"error","name":"NotInitializing","inputs":[]},{"type":"error","name":"NotOpen","inputs":[{"name":"currentState","type":"uint8","internalType":"enum State"}]},{"type":"error","name":"NotWhitelisted","inputs":[]},{"type":"error","name":"OnlyOneRequestAllowed","inputs":[]},{"type":"error","name":"OnlySafe","inputs":[{"name":"safe","type":"address","internalType":"address"}]},{"type":"error","name":"OnlyValuationManager","inputs":[{"name":"valuationManager","type":"address","internalType":"address"}]},{"type":"error","name":"OnlyWhitelistManager","inputs":[{"name":"whitelistManager","type":"address","internalType":"address"}]},{"type":"error","name":"OwnableInvalidOwner","inputs":[{"name":"owner","type":"address","internalType":"address"}]},{"type":"error","name":"OwnableUnauthorizedAccount","inputs":[{"name":"account","type":"address","internalType":"address"}]},{"type":"error","name":"RequestIdNotClaimable","inputs":[]},{"type":"error","name":"RequestNotCancelable","inputs":[{"name":"requestId","type":"uint256","internalType":"uint256"}]},{"type":"error","name":"SafeERC20FailedOperation","inputs":[{"name":"token","type":"address","internalType":"address"}]}],"bytecode":{"object":"0x608060405234801561000f575f80fd5b5060405161636238038061636283398101604081905261002e916100f6565b80801561003d5761003d610044565b505061011c565b7ff0c57e16840df040f15088dc2f81fe391c3923bec73e23a9662efc9c229c6a00805468010000000000000000900460ff16156100945760405163f92ee8a960e01b815260040160405180910390fd5b80546001600160401b03908116146100f35780546001600160401b0319166001600160401b0390811782556040519081527fc7f505b2f371ae2175ee4913f4499e1f2633a7b5936321eed1cdaeb6115181d29060200160405180910390a15b50565b5f60208284031215610106575f80fd5b81518015158114610115575f80fd5b9392505050565b616239806101295f395ff3fe60806040526004361061052d575f3560e01c806385b77f45116102b3578063b6363cf21161017a578063d6b0f484116100e3578063eaed1d071161009d578063f2fde38b11610078578063f2fde38b14610fbe578063f5a23d8d14610fdd578063f64c6f3214610ffc578063f886d4bd14611010575f80fd5b8063eaed1d0714610f61578063ef8b30f714610f80578063f1a76fcc14610f9f575f80fd5b8063d6b0f48414610ebd578063d905777e14610ed1578063da39b3e714610ef0578063db2088f414610f0f578063dd62ed3e14610f2e578063e30c397814610f4d575f80fd5b8063c69bebe411610134578063c69bebe414610e19578063c6d8a07414610e38578063c6e6f59214610e4c578063caa768d514610e6b578063ce96cb7714610e7f578063d4799d8114610e9e575f80fd5b8063b6363cf214610d52578063ba08765214610d71578063bcd1bf3414610d90578063bd85b03914610daf578063c19d93fb14610dce578063c63d75b614610df9575f80fd5b80639d8490ff1161021c578063a8d5fd65116101d6578063a8d5fd6514610cbb578063a9059cbb14610ccd578063b3a408b814610cec578063b3d7f6b914610d00578063b3f0067414610d1f578063b460af9414610d33575f80fd5b80639d8490ff14610c43578063a03d55e314610c57578063a1da6eb514610c6b578063a1e5944214610c7f578063a439391514610c94578063a5948c8914610ca8575f80fd5b806395d89b411161026d57806395d89b4114610bc057806396b298c514610bd457806399530b0614610be8578063995ea21a14610bfc57806399dd156614610c1b5780639c42892114610c2f575f80fd5b806385b77f4514610ad957806386af6e6814610aec5780638da5cb5b14610b0b578063937147e314610b1f5780639460585714610b8257806394bf804d14610ba1575f80fd5b80633af32abf116103f757806365ccfcef116103605780637688c5841161031a5780637688c58414610a3857806379ba509714610a595780637d41c86e14610a6d5780637f64978314610a8c57806383701fd114610aab5780638456cb5914610ac5575f80fd5b806365ccfcef1461098057806365e08b231461099f57806366b5ae1f146109b35780636e553f65146109e657806370a0823114610a05578063715018a614610a24575f80fd5b80634cdad506116103b15780634cdad506146108d4578063558a7297146108f3578063559ec80d1461091257806355fcd367146109265780635c975abb146109495780636564223e1461096c575f80fd5b80633af32abf146108395780633e0a3c25146108585780633edf7247146108795780633f4ba83a1461088d578063402d267d146108a157806343d726d6146108c0575f80fd5b806318766de31161049957806326c6f96c1161045357806326c6f96c1461078e5780632e2d2984146107ad5780632ef2274a146107cc578063313ce567146107eb57806338d52e0f1461081157806339a51be514610825575f80fd5b806318766de3146106d85780631e8410da146106ec57806323b872dd1461071f5780632542d4a61461073e57806325a760c21461076657806326563b401461077a575f80fd5b80630a605c6d116104ea5780630a605c6d146106055780631291d4e01461061957806316f79e301461064e57806318160ddd1461066d578063181e7b3b1461068d578063186f0354146106ac575f80fd5b806301e1d1141461053157806301ffc9a71461055857806306fdde031461058757806307a2d13a146105a8578063095ea7b3146105c75780630a28a477146105e6575b5f80fd5b34801561053c575f80fd5b50610545611025565b6040519081526020015b60405180910390f35b348015610563575f80fd5b50610577610572366004615204565b611036565b604051901515815260200161054f565b348015610592575f80fd5b5061059b6110d8565b60405161054f919061522b565b3480156105b3575f80fd5b506105456105c2366004615260565b611198565b3480156105d2575f80fd5b506105776105e136600461529b565b6111a3565b3480156105f1575f80fd5b50610545610600366004615260565b6111ba565b348015610610575f80fd5b506105456111d4565b348015610624575f80fd5b506106386106333660046152c5565b6111e5565b60405164ffffffffff909116815260200161054f565b348015610659575f80fd5b506106386106683660046152c5565b611216565b348015610678575f80fd5b505f8051602061614483398151915254610545565b348015610698575f80fd5b506105456106a73660046152e0565b611247565b3480156106b7575f80fd5b506106c061125a565b6040516001600160a01b03909116815260200161054f565b3480156106e3575f80fd5b50610545611275565b3480156106f7575f80fd5b507fa5292f7ccd85acc1b3080c01f5da9af7799f2c26826bd4d79081d6511780bd0354610545565b34801561072a575f80fd5b50610577610739366004615300565b611289565b348015610749575f80fd5b50610753610bb881565b60405161ffff909116815260200161054f565b348015610771575f80fd5b506105456112ac565b348015610785575f80fd5b506106c0611321565b348015610799575f80fd5b506105456107a836600461533e565b611339565b3480156107b8575f80fd5b506105456107c736600461536c565b6113c8565b3480156107d7575f80fd5b506106386107e63660046153ab565b61141e565b3480156107f6575f80fd5b506107ff61144a565b60405160ff909116815260200161054f565b34801561081c575f80fd5b506106c0611466565b348015610830575f80fd5b506106c061149a565b348015610844575f80fd5b506105776108533660046152c5565b611518565b348015610863575f80fd5b5061087761087236600461544f565b611568565b005b348015610884575f80fd5b5061063861169a565b348015610898575f80fd5b506108776116ba565b3480156108ac575f80fd5b506105456108bb3660046152c5565b6116cc565b3480156108cb575f80fd5b506108776116d7565b3480156108df575f80fd5b506105456108ee366004615260565b61187f565b3480156108fe575f80fd5b5061057761090d3660046154c2565b611899565b34801561091d575f80fd5b50610877611929565b348015610931575f80fd5b505f805160206161e48339815191525460ff16610577565b348015610954575f80fd5b505f805160206161c48339815191525460ff16610577565b348015610977575f80fd5b50610545611a2f565b34801561098b575f80fd5b5061087761099a3660046152c5565b611a4f565b3480156109aa575f80fd5b50610638611ad3565b3480156109be575f80fd5b507fa5292f7ccd85acc1b3080c01f5da9af7799f2c26826bd4d79081d6511780bd0254610545565b3480156109f1575f80fd5b50610545610a0036600461533e565b611aec565b348015610a10575f80fd5b50610545610a1f3660046152c5565b611af8565b348015610a2f575f80fd5b50610877611b1e565b348015610a43575f80fd5b50610a4c611b2f565b60405161054f91906154ee565b348015610a64575f80fd5b50610877611bcd565b348015610a78575f80fd5b50610545610a8736600461536c565b611c15565b348015610a97575f80fd5b50610877610aa636600461550d565b611c95565b348015610ab6575f80fd5b506105456106683660046152c5565b348015610ad0575f80fd5b50610877611db0565b610545610ae736600461536c565b611dc0565b348015610af7575f80fd5b50610877610b0636600461550d565b611e39565b348015610b16575f80fd5b506106c0611f4c565b348015610b2a575f80fd5b50610b33611f74565b60405161054f919081516001600160a01b039081168252602080840151821690830152604080840151821690830152606080840151821690830152608092830151169181019190915260a00190565b348015610b8d575f80fd5b50610545610b9c366004615260565b611ff6565b348015610bac575f80fd5b50610545610bbb36600461533e565b612037565b348015610bcb575f80fd5b5061059b612043565b348015610bdf575f80fd5b50610545612081565b348015610bf3575f80fd5b50610545612092565b348015610c07575f80fd5b50610545610c1636600461533e565b6120ba565b348015610c26575f80fd5b50610545612141565b348015610c3a575f80fd5b5061087761214a565b348015610c4e575f80fd5b5061054561221e565b348015610c62575f80fd5b50610877612240565b348015610c76575f80fd5b5061054561232f565b348015610c8a575f80fd5b5061075361138881565b348015610c9f575f80fd5b50610877612351565b610545610cb63660046155c1565b6123f3565b348015610cc6575f80fd5b50306106c0565b348015610cd8575f80fd5b50610577610ce736600461529b565b6124c5565b348015610cf7575f80fd5b506106c06124d2565b348015610d0b575f80fd5b50610545610d1a366004615260565b6124ed565b348015610d2a575f80fd5b506106c0612507565b348015610d3e575f80fd5b50610545610d4d36600461536c565b612522565b348015610d5d575f80fd5b50610577610d6c366004615611565b6125da565b348015610d7c575f80fd5b50610545610d8b36600461536c565b612615565b348015610d9b575f80fd5b50610877610daa366004615260565b6126bf565b348015610dba575f80fd5b50610545610dc9366004615260565b612752565b348015610dd9575f80fd5b505f805160206161648339815191525460ff1660405161054f9190615651565b348015610e04575f80fd5b50610545610e133660046152c5565b505f1990565b348015610e24575f80fd5b50610877610e333660046152c5565b612790565b348015610e43575f80fd5b506106c0612814565b348015610e57575f80fd5b50610545610e66366004615260565b61282f565b348015610e76575f80fd5b506106c061283a565b348015610e8a575f80fd5b50610545610e993660046152c5565b612855565b348015610ea9575f80fd5b50610877610eb83660046156e3565b612862565b348015610ec8575f80fd5b50610877612b4c565b348015610edc575f80fd5b50610545610eeb3660046152c5565b612b94565b348015610efb575f80fd5b50610545610f0a36600461536c565b612b9f565b348015610f1a575f80fd5b50610545610f293660046152e0565b612bea565b348015610f39575f80fd5b50610545610f48366004615611565b612bf6565b348015610f58575f80fd5b506106c0612c3f565b348015610f6c575f80fd5b50610545610f7b36600461533e565b612c67565b348015610f8b575f80fd5b50610545610f9a366004615260565b612cee565b348015610faa575f80fd5b50610877610fb93660046152c5565b612d08565b348015610fc9575f80fd5b50610877610fd83660046152c5565b612d86565b348015610fe8575f80fd5b50610545610ff736600461533e565b612e0b565b348015611007575f80fd5b50610545612e93565b34801561101b575f80fd5b506107536103e881565b5f8061102f612f18565b5492915050565b5f632f0a18c560e01b6001600160e01b031983161480611066575063f815c03d60e01b6001600160e01b03198316145b806110815750630ce3bbe560e41b6001600160e01b03198316145b8061109c5750631883ba3960e21b6001600160e01b03198316145b806110b7575063e3bc4e6560e01b6001600160e01b03198316145b806110d257506001600160e01b031982166301ffc9a760e01b145b92915050565b7f52c63247e1f47db19d5ce0460030c497f067ca4cebf71ba98eeadabe20bace0380546060915f80516020616124833981519152916111169061584d565b80601f01602080910402602001604051908101604052809291908181526020018280546111429061584d565b801561118d5780601f106111645761010080835404028352916020019161118d565b820191905f5260205f20905b81548152906001019060200180831161117057829003601f168201915b505050505091505090565b5f6110d2825f612f3c565b5f336111b0818585612f88565b5060019392505050565b5f60405163954bf3b160e01b815260040160405180910390fd5b5f6111e0610a1f612814565b905090565b5f6111ee612f18565b6001600160a01b039092165f90815260069290920160205250604090205464ffffffffff1690565b5f61121f612f18565b6001600160a01b039092165f90815260059290920160205250604090205464ffffffffff1690565b5f61125383835f612f95565b9392505050565b5f611263613034565b600201546001600160a01b0316919050565b5f8061127f612f18565b6001015492915050565b5f33611296858285613058565b6112a18585856130b5565b506001949350505050565b5f806112b6611466565b9050806001600160a01b031663313ce5676040518163ffffffff1660e01b8152600401602060405180830381865afa1580156112f4573d5f803e3d5ffd5b505050506040513d601f19601f820116820180604052508101906113189190615885565b60ff1691505090565b5f61132a613034565b546001600160a01b0316919050565b5f80611343612f18565b9050835f03611370576001600160a01b0383165f90815260058201602052604090205464ffffffffff1693505b6002810154600160501b900464ffffffffff168411156113c15764ffffffffff84165f9081526003909101602090815260408083206001600160a01b038616845260010190915290205490506110d2565b5092915050565b5f816001600160a01b03811633148015906113ea57506113e881336125da565b155b15611408576040516331d00f8160e11b815260040160405180910390fd5b611413858585613112565b91505b509392505050565b5f611427612f18565b64ffffffffff9283165f9081526003919091016020526040902054909116919050565b5f611453612f18565b60090154600160a01b900460ff16919050565b5f807f0773e532dfede91f04b12a73d3d2acd361424f41f76b4fb79f090161e36b4e005b546001600160a01b031692915050565b5f6114a3613034565b6003015f9054906101000a90046001600160a01b03166001600160a01b03166339a51be56040518163ffffffff1660e01b8152600401602060405180830381865afa1580156114f4573d5f803e3d5ffd5b505050506040513d601f19601f820116820180604052508101906111e091906158a5565b5f805160206161e4833981519152545f905f805160206161848339815191529060ff16611546576001611253565b6001600160a01b0383165f9081526020829052604090205460ff169392505050565b611570613231565b80515f805160206161a4833981519152906103e861ffff90911611156115b257604051630343096960e31b81526103e860048201526024015b60405180910390fd5b61138861ffff16826020015161ffff1611156115e557604051630343096960e31b815261138860048201526024016115a9565b5f8160040154426115f691906158d4565b60408051808201825260058501805461ffff808216808552620100008084048316602080880182905260018c018a905560068c01805492840263ffffffff19938416909517949094179093558b51928c0151841690910293169116171790559051919250907f9eb7e8ec6516c29bbbd60a1c51902c46787a4ce63ef22701759b0b4e9dd34fe09061168c908390879086906158e7565b60405180910390a150505050565b5f6116a3612f18565b60020154600160781b900464ffffffffff16919050565b6116c2613231565b6116ca613263565b565b5f6110d25f836120ba565b5f6116e0613034565b600201546001600160a01b0316905033811461171a5760405163fde82f1f60e01b81526001600160a01b03821660048201526024016115a9565b5f805160206161648339815191525460ff1660018160028111156117405761174061563d565b1461176057806040516373cc9d4d60e01b81526004016115a99190615651565b5f611769613034565b90506117736132bc565b60018101546003820154604080516339a51be560e01b815290516117f0936001600160a01b039081169316916339a51be59160048083019260209291908290030181865afa1580156117c7573d5f803e3d5ffd5b505050506040513d601f19601f820116820180604052508101906117eb91906158a5565b613336565b6117f93361338f565b6118023361352a565b5f80516020616164833981519152805460ff191660021790556118423330611828612f18565b54611831611466565b6001600160a01b031692919061375d565b7f23ad33ab6a13a00aa7d06cd167b2abd03dec86af3cf3cc91759dcd3ae841188760026040516118729190615651565b60405180910390a1505050565b5f604051630aaf8c3d60e31b815260040160405180910390fd5b5f6118a26137c4565b816118ab612f18565b335f818152600792909201602090815260408084206001600160a01b038916808652925292839020805494151560ff199095169490941790935590517fceb576d9f15e4e200fdb5096d64d5dfd667e16def20c1eefd14256d8e3faa2679061191890861515815260200190565b60405180910390a350600192915050565b5f611932613034565b600201546001600160a01b0316905033811461196c5760405163fde82f1f60e01b81526001600160a01b03821660048201526024016115a9565b5f805160206161648339815191525460ff165f8160028111156119915761199161563d565b146119b15780604051634b0145f360e01b81526004016115a99190615651565b5f6119ba613034565b90506119c46132bc565b60018101546003820154604080516339a51be560e01b81529051611a18936001600160a01b039081169316916339a51be59160048083019260209291908290030181865afa1580156117c7573d5f803e3d5ffd5b611a213361338f565b611a2a3361352a565b505050565b5f611a38612f18565b60020154600160501b900464ffffffffff16919050565b611a57613231565b7f27e018912099274c84ffbb1a48209e91c5b25727666d86b88a9d27c5abf4aa67611a80613034565b60040154604080516001600160a01b03928316815291841660208301520160405180910390a180611aaf613034565b60040180546001600160a01b0319166001600160a01b039290921691909117905550565b5f611adc612f18565b6002015464ffffffffff16919050565b5f611253838333613112565b6001600160a01b03165f9081525f80516020616124833981519152602052604090205490565b611b26613231565b6116ca5f6137f4565b604080518082019091525f80825260208201527fa5292f7ccd85acc1b3080c01f5da9af7799f2c26826bd4d79081d6511780bd01545f805160206161a4833981519152904210611ba3576040805180820190915260059091015461ffff808216835262010000909104166020820152919050565b6040805180820190915260069091015461ffff808216835262010000909104166020820152919050565b3380611bd7612c3f565b6001600160a01b031614611c095760405163118cdaa760e01b81526001600160a01b03821660048201526024016115a9565b611c12816137f4565b50565b5f80516020616164833981519152545f9060ff1681816002811115611c3c57611c3c61563d565b14611c5c5780604051634b0145f360e01b81526004016115a99190615651565b611c646137c4565b611c6d83611518565b611c8a57604051630b094f2760e31b815260040160405180910390fd5b61141385858561382c565b5f611c9e613034565b546001600160a01b03169050338114611cd557604051632c1d27eb60e11b81526001600160a01b03821660048201526024016115a9565b5f805160206161848339815191525f5b8351811015611daa576001825f015f868481518110611d0657611d0661592a565b60200260200101516001600160a01b03166001600160a01b031681526020019081526020015f205f6101000a81548160ff021916908315150217905550838181518110611d5557611d5561592a565b60200260200101516001600160a01b03167ff93f9a76c1bf3444d22400a00cb9fe990e6abe9dbb333fda48859cfee864543d6001604051611d9a911515815260200190565b60405180910390a2600101611ce5565b50505050565b611db8613231565b6116ca6139d9565b5f816001600160a01b0381163314801590611de25750611de081336125da565b155b15611e00576040516331d00f8160e11b815260040160405180910390fd5b611e086137c4565b611e1183611518565b611e2e57604051630b094f2760e31b815260040160405180910390fd5b611413858585613a21565b5f611e42613034565b546001600160a01b03169050338114611e7957604051632c1d27eb60e11b81526001600160a01b03821660048201526024016115a9565b5f805160206161848339815191525f5b8351811015611daa575f825f015f868481518110611ea957611ea961592a565b60200260200101516001600160a01b03166001600160a01b031681526020019081526020015f205f6101000a81548160ff021916908315150217905550838181518110611ef857611ef861592a565b60200260200101516001600160a01b03167ff93f9a76c1bf3444d22400a00cb9fe990e6abe9dbb333fda48859cfee864543d5f604051611f3c911515815260200190565b60405180910390a2600101611e89565b5f807f9016d09d72d40fdae2fd8ceac6b6234c7706214fd39c1cd1e609a0528c19930061148a565b6040805160a0810182525f80825260208201819052918101829052606081018290526080810191909152611fa6613034565b6040805160a08101825282546001600160a01b0390811682526001840154811660208301526002840154811692820192909252600383015482166060820152600490920154166080820152919050565b5f80612000612f18565b64ffffffffff9384165f90815260038201602090815260408083205490961682526004909201909152929092206001015492915050565b5f611253838333613c37565b7f52c63247e1f47db19d5ce0460030c497f067ca4cebf71ba98eeadabe20bace0480546060915f80516020616124833981519152916111169061584d565b5f61208a613d43565b60ff16905090565b5f6111e061209e61144a565b6120a990600a615a21565b6120b4906001615a2f565b5f612f3c565b5f806120c4612f18565b9050835f036120f1576001600160a01b0383165f90815260058201602052604090205464ffffffffff1693505b6002810154600160501b900464ffffffffff1684116113c15764ffffffffff84165f9081526003909101602090815260408083206001600160a01b038616845260010190915290205490506110d2565b5f6111e0613d5f565b6121526137c4565b5f61215b612f18565b335f908152600582016020526040902054600282015491925064ffffffffff908116911681146121a757604051630378803f60e51b815264ffffffffff821660048201526024016115a9565b64ffffffffff81165f9081526003830160209081526040808320338452600101909152812080549190556121e66121dc612814565b3383611831611466565b604051339064ffffffffff8416907ff3df774413906479e4aa6d20ad2ad938e10990d517dc9d29909f6eaa4981ad43905f90a3505050565b5f80612228612f18565b60020154600160a01b900464ffffffffff1692915050565b5f612249613034565b600201546001600160a01b031690503381146122835760405163fde82f1f60e01b81526001600160a01b03821660048201526024016115a9565b5f805160206161648339815191525460ff165f8160028111156122a8576122a861563d565b146122c85780604051634b0145f360e01b81526004016115a99190615651565b5f6122d1613034565b90506122db6132bc565b60018101546003820154604080516339a51be560e01b81529051611a21936001600160a01b039081169316916339a51be59160048083019260209291908290030181865afa1580156117c7573d5f803e3d5ffd5b5f80612339612f18565b60020154600160281b900464ffffffffff1692915050565b612359613231565b5f805160206161648339815191525460ff165f81600281111561237e5761237e61563d565b1461239e5780604051634b0145f360e01b81526004016115a99190615651565b5f80516020616164833981519152805460ff191660019081179091556040517f23ad33ab6a13a00aa7d06cd167b2abd03dec86af3cf3cc91759dcd3ae8411887916123e891615651565b60405180910390a150565b5f826001600160a01b0381163314801590612415575061241381336125da565b155b15612433576040516331d00f8160e11b815260040160405180910390fd5b61243b6137c4565b61244484611518565b61246157604051630b094f2760e31b815260040160405180910390fd5b61246c868686613a21565b915081846001600160a01b0316846001600160a01b03167f90f46099733ed637df811df4fcc5cae4961192ca04f36da9ab64b4dd8dc9b7f5896040516124b491815260200190565b60405180910390a450949350505050565b5f336111b08185856130b5565b5f6124db613034565b600301546001600160a01b0316919050565b5f6040516366345fa160e01b815260040160405180910390fd5b5f612510613034565b600101546001600160a01b0316919050565b5f61252b6137c4565b5f80516020616164833981519152805460029060ff16818111156125515761255161563d565b14801561256557506125635f84612c67565b155b1561258957612575856001613df1565b91506125843385858886613e34565b611416565b6001600160a01b03831633148015906125a957506125a783336125da565b155b156125c7576040516331d00f8160e11b815260040160405180910390fd5b6125d2858585613f19565b915050611253565b5f6125e3612f18565b6001600160a01b039384165f908152600791909101602090815260408083209490951682529290925250205460ff1690565b5f61261e6137c4565b5f80516020616164833981519152805460029060ff16818111156126445761264461563d565b14801561265857506126565f84612c67565b155b1561267657612667855f612f3c565b91506125843385858589613e34565b6001600160a01b0383163314801590612696575061269483336125da565b155b156126b4576040516331d00f8160e11b815260040160405180910390fd5b6125d285858561402e565b5f6126c8613034565b600401546001600160a01b03169050338114612702576040516314c9222d60e01b81526001600160a01b03821660048201526024016115a9565b60025f805160206161648339815191525460ff1660028111156127275761272761563d565b0361274557604051631cdde67b60e01b815260040160405180910390fd5b61274e82614132565b5050565b5f8061275c612f18565b64ffffffffff9384165f90815260038201602090815260408083205490961682526004909201909152929092205492915050565b612798613231565b7fa92ff4390fe6943f0b30e8fe715dde86f85ab79b2b2c640a10fc094cc4036cc86127c1613034565b60010154604080516001600160a01b03928316815291841660208301520160405180910390a1806127f0613034565b60010180546001600160a01b0319166001600160a01b039290921691909117905550565b5f61281d612f18565b600801546001600160a01b0316919050565b5f6110d2825f613df1565b5f612843613034565b600401546001600160a01b0316919050565b5f6110d26120b483611af8565b7ff0c57e16840df040f15088dc2f81fe391c3923bec73e23a9662efc9c229c6a008054600160401b810460ff16159067ffffffffffffffff165f811580156128a75750825b90505f8267ffffffffffffffff1660011480156128c35750303b155b9050811580156128d1575080155b156128ef5760405163f92ee8a960e01b815260040160405180910390fd5b845467ffffffffffffffff19166001178555831561291957845460ff60401b1916600160401b1785555b855161292490614341565b61293686602001518760400151614352565b61293e614364565b6129c4866101000151876101400151886101600151895f01516001600160a01b031663313ce5676040518163ffffffff1660e01b8152600401602060405180830381865afa158015612992573d5f803e3d5ffd5b505050506040513d601f19601f820116820180604052508101906129b69190615885565b60ff168a6101a00151614374565b6129d6865f015187610120015161447d565b612a498661018001518761010001516001600160a01b03166339a51be56040518163ffffffff1660e01b8152600401602060405180830381865afa158015612a20573d5f803e3d5ffd5b505050506040513d601f19601f82011682018060405250810190612a4491906158a5565b614608565b612aba6040518060a0016040528088608001516001600160a01b031681526020018860e001516001600160a01b0316815260200188606001516001600160a01b031681526020018861010001516001600160a01b031681526020018860a001516001600160a01b0316815250614663565b612ac78660c001516146ed565b7f23ad33ab6a13a00aa7d06cd167b2abd03dec86af3cf3cc91759dcd3ae84118875f604051612af69190615651565b60405180910390a18315612b4457845460ff60401b19168555604051600181527fc7f505b2f371ae2175ee4913f4499e1f2633a7b5936321eed1cdaeb6115181d29060200160405180910390a15b505050505050565b612b54613231565b5f805160206161e4833981519152805460ff191690556040517f212c6e1d3045c9581ef0adf2504dbb1d137f52f38162ccf77a16c69d14eba5c3905f90a1565b5f6110d25f83612c67565b5f816001600160a01b0381163314801590612bc15750612bbf81336125da565b155b15612bdf576040516331d00f8160e11b815260040160405180910390fd5b611413858585613c37565b5f61125383835f6146fe565b6001600160a01b039182165f9081527f52c63247e1f47db19d5ce0460030c497f067ca4cebf71ba98eeadabe20bace016020908152604080832093909416825291909152205490565b5f807f237e158222e3e6968b72b9db0d8043aacf074ad9f650f0d1606b4d82ee432c0061148a565b5f80612c71612f18565b9050835f03612c9e576001600160a01b0383165f90815260068201602052604090205464ffffffffff1693505b6002810154600160c81b900464ffffffffff1684116113c15764ffffffffff84165f9081526003909101602090815260408083206001600160a01b038616845260020190915290205490506110d2565b5f604051633e26cc2f60e11b815260040160405180910390fd5b612d10613231565b7f1eee17fbeb6d1c008ca140cc7d787451b233547ba63af138cea3470a1faf33a5612d39613034565b54604080516001600160a01b03928316815291841660208301520160405180910390a180612d65613034565b80546001600160a01b0319166001600160a01b039290921691909117905550565b612d8e613231565b7f237e158222e3e6968b72b9db0d8043aacf074ad9f650f0d1606b4d82ee432c0080546001600160a01b0319166001600160a01b0383169081178255612dd2611f4c565b6001600160a01b03167f38d16b8cac22d99fc7c124b9cd0de2d3fa1faef420bfe791d8c362d765e2270060405160405180910390a35050565b5f80612e15612f18565b9050835f03612e42576001600160a01b0383165f90815260068201602052604090205464ffffffffff1693505b6002810154600160c81b900464ffffffffff168411156113c15764ffffffffff84165f9081526003909101602090815260408083206001600160a01b038616845260020190915290205490506110d2565b5f612e9c611466565b6001600160a01b03166370a08231612eb2612814565b6040516001600160e01b031960e084901b1681526001600160a01b039091166004820152602401602060405180830381865afa158015612ef4573d5f803e3d5ffd5b505050506040513d601f19601f820116820180604052508101906111e09190615a46565b7f5c74d456014b1c0eb4368d944667a568313858a3029a650ff0cb7b56f8b57a0090565b5f611253612f48611025565b612f539060016158d4565b612f5b613d43565b612f6690600a615a21565b5f8051602061614483398151915254612f7f91906158d4565b8591908561478d565b611a2a83838360016147dc565b5f80612f9f612f18565b64ffffffffff8086165f9081526003830160209081526040808320549093168083526004850190915291812060019081015493945091929091612fe291906158d4565b90505f612fed613d43565b612ff890600a615a21565b64ffffffffff84165f90815260048601602052604090205461301a91906158d4565b90506130288883838961478d565b98975050505050505050565b7f7c302ed2c673c3d6b4551cf74a01ee649f887e14fd20d13dbca1b6099534d90090565b5f6130638484612bf6565b90505f198114611daa57818110156130a757604051637dc7a0d960e11b81526001600160a01b038416600482015260248101829052604481018390526064016115a9565b611daa84848484035f6147dc565b6001600160a01b0383166130de57604051634b637e8f60e11b81525f60048201526024016115a9565b6001600160a01b0382166131075760405163ec442f0560e01b81525f60048201526024016115a9565b611a2a8383836148c0565b5f8061311c612f18565b6001600160a01b0384165f908152600582016020526040902054600282015491925064ffffffffff90811691600160501b9004168111156131705760405163912d1a7360e01b815260040160405180910390fd5b64ffffffffff81165f90815260038301602090815260408083206001600160a01b0388168452600101909152812080548892906131ae908490615a5d565b909155506131c590508664ffffffffff8316612bea565b92506131d23086856130b5565b846001600160a01b0316846001600160a01b03167fdcbc1c05240f31ff3ad067ef1ee35ce4997762752e3a095284754544f4c709d78886604051613220929190918252602082015260400190565b60405180910390a350509392505050565b3361323a611f4c565b6001600160a01b0316146116ca5760405163118cdaa760e01b81523360048201526024016115a9565b61326b6148cb565b5f805160206161c4833981519152805460ff191681557f5db9ee0a495bf2e6ff9c91a7834c1ba4fdd244a5e8aa4e537bd38aeae4b073aa335b6040516001600160a01b0390911681526020016123e8565b6132c46137c4565b5f6132cd612f18565b60018082015491925081016132f5576040516343ec4aed60e11b815260040160405180910390fd5b8082555f1960018301556040518181527ff306601d1bd9ff6895ca817f568f68463b269e4b0cf4710e5f1003592ad29f5c9060200160405180910390a15050565b5f805160206161a48339815191525f808061334f6148fa565b92509250925061335e81614a1e565b821561337e5761336e8684614a97565b811561337e5761337e8583614a97565b428460020181905550505050505050565b5f613398612f18565b600281810154600160281b900464ffffffffff165f81815260048401602052604081209092015492935091908190036133d15750505050565b5f6133dc825f613df1565b90505f6133e7611025565b90505f6133ff5f805160206161448339815191525490565b6002878101549192505f9161341b919064ffffffffff16615a70565b64ffffffffff87165f9081526004890160205260409020600181018590558381559091506134493086614a97565b61345386856158d4565b935061345f85846158d4565b848955925061346f876002615a8d565b6002890180546effffffffffffffffffff00000000001916600160281b64ffffffffff9384160264ffffffffff60501b191617600160501b928516929092029190911790556134c96134bf612814565b8a88611831611466565b60408051858152602081018590529081018790526060810186905264ffffffffff80891691908416907f26be8b1af887e484fec2868840869fd162e136268c24803bede886ab91aa29bc9060800160405180910390a3505050505050505050565b5f613533612f18565b6002810154909150600160a01b900464ffffffffff165f613552611466565b64ffffffffff83165f90815260048501602052604081206003015491925061357a8282612f3c565b6040516370a0823160e01b81526001600160a01b0388811660048301529192505f918516906370a0823190602401602060405180830381865afa1580156135c3573d5f803e3d5ffd5b505050506040513d601f19601f820116820180604052508101906135e79190615a46565b90508115806135f557508082115b156136035750505050505050565b5f61360c611025565b90505f6136245f805160206161448339815191525490565b6002898101549192505f916136479190600160781b900464ffffffffff16615a70565b64ffffffffff89165f90815260048b01602052604090206001810185905583815590915061367c613676612814565b88614acb565b6136868685615a5d565b93506136928784615a5d565b848b5592506136a2896002615a8d565b60028b01805469ffffffffffffffffffff60a01b1916600160a01b64ffffffffff9384160264ffffffffff60c81b191617600160c81b928516929092029190911790556136fa6001600160a01b0389168c308961375d565b60408051858152602081018590529081018790526060810188905264ffffffffff808b1691908416907fa8fe241e26fead168e608ab85aa4e059a34552bad0fc6d98961122cb5a0abefd9060800160405180910390a35050505050505050505050565b6040516001600160a01b038481166024830152838116604483015260648201839052611daa9186918216906323b872dd906084015b604051602081830303815290604052915060e01b6020820180516001600160e01b038381831617835250505050614aff565b5f805160206161c48339815191525460ff16156116ca5760405163d93c066560e01b815260040160405180910390fd5b7f237e158222e3e6968b72b9db0d8043aacf074ad9f650f0d1606b4d82ee432c0080546001600160a01b031916815561274e82614b60565b5f336001600160a01b0383161480159061384d575061384b82336125da565b155b1561385d5761385d823386613058565b5f613866612f18565b90505f6138735f86612c67565b905080156138885761388681868761402e565b505b60028201546001600160a01b0386165f90815260068401602052604090205464ffffffffff600160781b909204821691168114613918575f6138ca5f88612e0b565b11156138e95760405163cadcefcf60e01b815260040160405180910390fd5b6001600160a01b0386165f9081526006840160205260409020805464ffffffffff191664ffffffffff83161790555b64ffffffffff81165f90815260038401602090815260408083206001600160a01b038a168452600201909152812080548992906139569084906158d4565b909155505060088301546139759086906001600160a01b0316896148c0565b604080513381526020810189905264ffffffffff8316916001600160a01b0380891692908a16917f1fdc681a13d8c5da54e301c7ce6542dcde4581e4725043fdab2db12ddc57450691015b60405180910390a464ffffffffff169695505050505050565b6139e16137c4565b5f805160206161c4833981519152805460ff191660011781557f62e78cea01bee320cd4e420270b5ea74000d11b0c9f74754ebdbfc544b05a258336132a4565b5f80613a2d5f856120ba565b90508015613a4257613a40818586613112565b505b5f613a4b612f18565b60028101546001600160a01b0387165f90815260058301602052604090205491925064ffffffffff90811691168114613ad7575f613a895f88611339565b1115613aa85760405163cadcefcf60e01b815260040160405180910390fd5b6001600160a01b0386165f9081526005830160205260409020805464ffffffffff191664ffffffffff83161790555b3415613b885760098201546001600160a01b0316613af3611466565b6001600160a01b031603613b6f57816008015f9054906101000a90046001600160a01b03166001600160a01b031663439370b1346040518263ffffffff1660e01b81526004015f604051808303818588803b158015613b50575f80fd5b505af1158015613b62573d5f803e3d5ffd5b5050505050349650613ba5565b604051636546370360e01b815260040160405180910390fd5b6008820154613ba59086906001600160a01b031689611831611466565b64ffffffffff81165f90815260038301602090815260408083206001600160a01b038a16845260010190915281208054899290613be39084906158d4565b9091555050604080513381526020810189905264ffffffffff8316916001600160a01b0380891692908a16917fbb58420bb8ce44e11b84e214cc0de10ce5e7c24d0355b2815c3d758b514cae7291016139c0565b5f80613c41612f18565b6001600160a01b0384165f908152600582016020526040902054600282015491925064ffffffffff90811691600160501b900416811115613c955760405163912d1a7360e01b815260040160405180910390fd5b613ca186826001612f95565b64ffffffffff82165f90815260038401602090815260408083206001600160a01b0389168452600101909152812080549295508592909190613ce4908490615a5d565b90915550613cf590503086886130b5565b846001600160a01b0316846001600160a01b03167fdcbc1c05240f31ff3ad067ef1ee35ce4997762752e3a095284754544f4c709d78589604051613220929190918252602082015260400190565b5f613d4c612f18565b60090154600160a81b900460ff16919050565b5f805160206161a4833981519152805460408051634cee8ab360e11b815290515f93926001600160a01b0316916399dd15669160048083019260209291908290030181865afa158015613db4573d5f803e3d5ffd5b505050506040513d601f19601f82011682018060405250810190613dd89190615a46565b9150610bb8821115613ded5750610bb8919050565b5090565b5f611253613dfd613d43565b613e0890600a615a21565b5f8051602061614483398151915254613e2191906158d4565b613e29611025565b612f7f9060016158d4565b826001600160a01b0316856001600160a01b031614158015613e5d5750613e5b83866125da565b155b15613e6d57613e6d838683613058565b81613e76612f18565b80545f90613e85908490615a5d565b90915550613e9590508382614acb565b613eb28483613ea2611466565b6001600160a01b03169190614bd0565b826001600160a01b0316846001600160a01b0316866001600160a01b03167ffbde797d201c681b91056529119e0b02407c7bb96a4a2c75c01fc9667232c8db8585604051613f0a929190918252602082015260400190565b60405180910390a45050505050565b5f80613f23612f18565b6001600160a01b0384165f908152600682016020526040902054600282015491925064ffffffffff90811691600160c81b900416811115613f775760405163912d1a7360e01b815260040160405180910390fd5b613f83868260016146fe565b64ffffffffff82165f90815260038401602090815260408083206001600160a01b0389168452600201909152812080549295508592909190613fc6908490615a5d565b90915550613fd990508587613ea2611466565b60408051878152602081018590526001600160a01b03808716929088169133917ffbde797d201c681b91056529119e0b02407c7bb96a4a2c75c01fc9667232c8db91015b60405180910390a450509392505050565b5f80614038612f18565b6001600160a01b0384165f908152600682016020526040902054600282015491925064ffffffffff90811691600160c81b90041681111561408c5760405163912d1a7360e01b815260040160405180910390fd5b64ffffffffff81165f90815260038301602090815260408083206001600160a01b0388168452600201909152812080548892906140ca908490615a5d565b909155506140db905086825f612f95565b92506140ea8584613ea2611466565b60408051848152602081018890526001600160a01b03808716929088169133917ffbde797d201c681b91056529119e0b02407c7bb96a4a2c75c01fc9667232c8db910161401d565b61413a6137c4565b5f614143612f18565b60028101805464ffffffffff8082165f9081526003850160205260408082208054600160281b909504841664ffffffffff199586161790559354600160781b8104831682529381208054600160a01b90950490921693909216929092179091559091506141ae612814565b90505f6141b9611466565b6040516370a0823160e01b81526001600160a01b03848116600483015291909116906370a0823190602401602060405180830381865afa1580156141ff573d5f803e3d5ffd5b505050506040513d601f19601f820116820180604052508101906142239190615a46565b90505f61422f83611af8565b9050811561429557600284810180545f9061425290849064ffffffffff16615a8d565b82546101009290920a64ffffffffff818102199093169183160217909155600286810154600160281b90049091165f908152600487016020526040902001839055505b80156143005760028481018054600f906142be908490600160781b900464ffffffffff16615a8d565b82546101009290920a64ffffffffff8181021990931691831602179091556002860154600160a01b9004165f9081526004860160205260409020600301829055505b600184018590556040518581527f3809c8827d04fcf6537fe5af7a5e42a8ec939c3556096ca7107842a2d44efca59060200160405180910390a15050505050565b614349614c01565b611c1281614c4a565b61435a614c01565b61274e8282614ccd565b61436c614c01565b6116ca614d1d565b61437c614c01565b6103e861ffff851611156143a757604051630343096960e31b81526103e860048201526024016115a9565b61138861ffff841611156143d257604051630343096960e31b815261138860048201526024016115a9565b427fa5292f7ccd85acc1b3080c01f5da9af7799f2c26826bd4d79081d6511780bd01557fa5292f7ccd85acc1b3080c01f5da9af7799f2c26826bd4d79081d6511780bd048190555f805160206161a483398151915280546001600160a01b0319166001600160a01b03871617815561444b83600a615aaa565b6003820155600501805461ffff948516620100000263ffffffff19909116949095169390931793909317909155505050565b614485614c01565b5f61448e612f18565b60028101805478ffffffffffffffffffff0000000000ffffffffffffffffffff191674020000000002000000000000000000010000000001179055604051909150839083906144dc906151f7565b6001600160a01b03928316815291166020820152604001604051809103905ff08015801561450c573d5f803e3d5ffd5b506008820180546001600160a01b03199081166001600160a01b03938416179091556009830180549091169184169190911790555f1960018201555f614550611466565b6001600160a01b031663313ce5676040518163ffffffff1660e01b8152600401602060405180830381865afa15801561458b573d5f803e3d5ffd5b505050506040513d601f19601f820116820180604052508101906145af9190615885565b905060128160ff16106145db5760098201805460ff60a01b1916600160a01b60ff841602179055611daa565b600982018054601283900360ff16600160a81b0261ffff60a01b1990911617600960a11b17905550505050565b614610614c01565b811561274e575f805160206161e48339815191528054600160ff1991821681179092556001600160a01b03929092165f9081525f8051602061618483398151915260205260409020805490921617905550565b61466b614c01565b5f614674613034565b825181546001600160a01b03199081166001600160a01b039283161783556020850151600184018054831691841691909117905560408501516002840180548316918416919091179055606085015160038401805483169184169190911790556080909401516004909201805490941691161790915550565b6146f5614c01565b611c1281614d3d565b5f80614708612f18565b64ffffffffff8086165f908152600383016020908152604080832054909316808352600485019091529181206001908101549394509192909161474b91906158d4565b90505f614756613d43565b61476190600a615a21565b64ffffffffff84165f90815260048601602052604090205461478391906158d4565b9050613028888284895b5f8061479a868686614d6e565b90506147a583614e2d565b80156147c057505f84806147bb576147bb615ab5565b868809115b156147d3576147d06001826158d4565b90505b95945050505050565b5f805160206161248339815191526001600160a01b0385166148135760405163e602df0560e01b81525f60048201526024016115a9565b6001600160a01b03841661483c57604051634a1406b160e11b81525f60048201526024016115a9565b6001600160a01b038086165f908152600183016020908152604080832093881683529290522083905581156148b957836001600160a01b0316856001600160a01b03167f8c5be1e5ebec7d5bd14f71427d1e84f3dd0314c0f7b2291e5b200ac8c7c3b925856040516148b091815260200190565b60405180910390a35b5050505050565b611a2a838383614e59565b5f805160206161c48339815191525460ff166116ca57604051638dfc202b60e01b815260040160405180910390fd5b5f80805f805160206161a48339815191528161491461144a565b60ff1690506149276120b482600a615aaa565b92505f614932611b2f565b90505f8360020154426149459190615a5d565b90505f614950611025565b90505f61496582855f015161ffff1685614e6c565b90505f61497d5f805160206161448339815191525490565b90505f614999866020015161ffff16838b8b600301548b614e90565b90505f6149a682856158d4565b90505f6149e86149b4613d43565b6149bf90600a615a21565b6149c990866158d4565b6149d38489615a5d565b6149de9060016158d4565b849190600161478d565b9050614a016149f5613d5f565b8290612710600161478d565b9b50614a0d8c82615a5d565b9c5050505050505050505050909192565b7fa5292f7ccd85acc1b3080c01f5da9af7799f2c26826bd4d79081d6511780bd03545f805160206161a48339815191529080831115611a2a5760408051828152602081018590527f03f8f938dbe4475565f0cf1c3dcf09728208c2c6065e1f717102058c51e94d06910160405180910390a15060030155565b6001600160a01b038216614ac05760405163ec442f0560e01b81525f60048201526024016115a9565b61274e5f83836148c0565b6001600160a01b038216614af457604051634b637e8f60e11b81525f60048201526024016115a9565b61274e825f836148c0565b5f614b136001600160a01b03841683614ebd565b905080515f14158015614b37575080806020019051810190614b359190615ac9565b155b15611a2a57604051635274afe760e01b81526001600160a01b03841660048201526024016115a9565b7f9016d09d72d40fdae2fd8ceac6b6234c7706214fd39c1cd1e609a0528c19930080546001600160a01b031981166001600160a01b03848116918217845560405192169182907f8be0079c531659141344cd1fd0a4f28419497f9722a3daafe3b4186f6b6457e0905f90a3505050565b6040516001600160a01b03838116602483015260448201839052611a2a91859182169063a9059cbb90606401613792565b7ff0c57e16840df040f15088dc2f81fe391c3923bec73e23a9662efc9c229c6a0054600160401b900460ff166116ca57604051631afcd79f60e31b815260040160405180910390fd5b614c52614c01565b7f0773e532dfede91f04b12a73d3d2acd361424f41f76b4fb79f090161e36b4e005f80614c7e84614eca565b9150915081614c8e576012614c90565b805b83546001600160a81b031916600160a01b60ff92909216919091026001600160a01b031916176001600160a01b0394909416939093179091555050565b614cd5614c01565b5f805160206161248339815191527f52c63247e1f47db19d5ce0460030c497f067ca4cebf71ba98eeadabe20bace03614d0e8482615b28565b5060048101611daa8382615b28565b614d25614c01565b5f805160206161c4833981519152805460ff19169055565b614d45614c01565b6001600160a01b038116611c0957604051631e4fbdf760e01b81525f60048201526024016115a9565b5f838302815f1985870982811083820303915050805f03614da257838281614d9857614d98615ab5565b0492505050611253565b808411614dc25760405163227bc15360e01b815260040160405180910390fd5b5f848688095f868103871696879004966002600389028118808a02820302808a02820302808a02820302808a02820302808a02820302808a02909103029181900381900460010186841190950394909402919094039290920491909117919091029150509392505050565b5f6002826003811115614e4257614e4261563d565b614e4c9190615be3565b60ff166001149050919050565b614e616137c4565b611a2a838383614fa0565b5f80614e7d8585612710600161478d565b905061141381846301e13380600161478d565b5f828411156147d3578284035f614eac876149de86600a615aaa565b90506130288189612710600161478d565b606061125383835f6150d9565b60408051600481526024810182526020810180516001600160e01b031663313ce56760e01b17905290515f918291829182916001600160a01b03871691614f1091615c10565b5f60405180830381855afa9150503d805f8114614f48576040519150601f19603f3d011682016040523d82523d5f602084013e614f4d565b606091505b5091509150818015614f6157506020815110155b15614f94575f81806020019051810190614f7b9190615a46565b905060ff8111614f92576001969095509350505050565b505b505f9485945092505050565b5f805160206161248339815191526001600160a01b038416614fda5781816002015f828254614fcf91906158d4565b9091555061504a9050565b6001600160a01b0384165f908152602082905260409020548281101561502c5760405163391434e360e21b81526001600160a01b038616600482015260248101829052604481018490526064016115a9565b6001600160a01b0385165f9081526020839052604090209083900390555b6001600160a01b038316615068576002810180548390039055615086565b6001600160a01b0383165f9081526020829052604090208054830190555b826001600160a01b0316846001600160a01b03167fddf252ad1be2c89b69c2b068fc378daa952ba7f163c4a11628f55a4df523b3ef846040516150cb91815260200190565b60405180910390a350505050565b6060814710156150fe5760405163cd78605960e01b81523060048201526024016115a9565b5f80856001600160a01b031684866040516151199190615c10565b5f6040518083038185875af1925050503d805f8114615153576040519150601f19603f3d011682016040523d82523d5f602084013e615158565b606091505b5091509150615168868383615172565b9695505050505050565b60608261518757615182826151ce565b611253565b815115801561519e57506001600160a01b0384163b155b156151c757604051639996b31560e01b81526001600160a01b03851660048201526024016115a9565b5080611253565b8051156151de5780518082602001fd5b604051630a12f52160e11b815260040160405180910390fd5b6104fd80615c2783390190565b5f60208284031215615214575f80fd5b81356001600160e01b031981168114611253575f80fd5b602081525f82518060208401528060208501604085015e5f604082850101526040601f19601f83011684010191505092915050565b5f60208284031215615270575f80fd5b5035919050565b6001600160a01b0381168114611c12575f80fd5b803561529681615277565b919050565b5f80604083850312156152ac575f80fd5b82356152b781615277565b946020939093013593505050565b5f602082840312156152d5575f80fd5b813561125381615277565b5f80604083850312156152f1575f80fd5b50508035926020909101359150565b5f805f60608486031215615312575f80fd5b833561531d81615277565b9250602084013561532d81615277565b929592945050506040919091013590565b5f806040838503121561534f575f80fd5b82359150602083013561536181615277565b809150509250929050565b5f805f6060848603121561537e575f80fd5b83359250602084013561539081615277565b915060408401356153a081615277565b809150509250925092565b5f602082840312156153bb575f80fd5b813564ffffffffff81168114611253575f80fd5b634e487b7160e01b5f52604160045260245ffd5b6040516101c0810167ffffffffffffffff81118282101715615407576154076153cf565b60405290565b604051601f8201601f1916810167ffffffffffffffff81118282101715615436576154366153cf565b604052919050565b803561ffff81168114615296575f80fd5b5f6040828403128015615460575f80fd5b506040805190810167ffffffffffffffff81118282101715615484576154846153cf565b6040526154908361543e565b815261549e6020840161543e565b60208201529392505050565b8015158114611c12575f80fd5b8035615296816154aa565b5f80604083850312156154d3575f80fd5b82356154de81615277565b91506020830135615361816154aa565b604081016110d28284805161ffff908116835260209182015116910152565b5f6020828403121561551d575f80fd5b813567ffffffffffffffff811115615533575f80fd5b8201601f81018413615543575f80fd5b803567ffffffffffffffff81111561555d5761555d6153cf565b8060051b61556d6020820161540d565b91825260208184018101929081019087841115615588575f80fd5b6020850194505b838510156155b657843592506155a483615277565b8282526020948501949091019061558f565b979650505050505050565b5f805f80608085870312156155d4575f80fd5b8435935060208501356155e681615277565b925060408501356155f681615277565b9150606085013561560681615277565b939692955090935050565b5f8060408385031215615622575f80fd5b823561562d81615277565b9150602083013561536181615277565b634e487b7160e01b5f52602160045260245ffd5b602081016003831061567157634e487b7160e01b5f52602160045260245ffd5b91905290565b5f82601f830112615686575f80fd5b813567ffffffffffffffff8111156156a0576156a06153cf565b6156b3601f8201601f191660200161540d565b8181528460208386010111156156c7575f80fd5b816020850160208301375f918101602001919091529392505050565b5f602082840312156156f3575f80fd5b813567ffffffffffffffff811115615709575f80fd5b82016101c0818503121561571b575f80fd5b6157236153e3565b61572c8261528b565b8152602082013567ffffffffffffffff811115615747575f80fd5b61575386828501615677565b602083015250604082013567ffffffffffffffff811115615772575f80fd5b61577e86828501615677565b6040830152506157906060830161528b565b60608201526157a16080830161528b565b60808201526157b260a0830161528b565b60a08201526157c360c0830161528b565b60c08201526157d460e0830161528b565b60e08201526157e6610100830161528b565b6101008201526157f9610120830161528b565b61012082015261580c610140830161543e565b61014082015261581f610160830161543e565b61016082015261583261018083016154b7565b6101808201526101a091820135918101919091529392505050565b600181811c9082168061586157607f821691505b60208210810361587f57634e487b7160e01b5f52602260045260245ffd5b50919050565b5f60208284031215615895575f80fd5b815160ff81168114611253575f80fd5b5f602082840312156158b5575f80fd5b815161125381615277565b634e487b7160e01b5f52601160045260245ffd5b808201808211156110d2576110d26158c0565b60a081016159068286805161ffff908116835260209182015116910152565b835161ffff9081166040840152602090940151909316606082015260800152919050565b634e487b7160e01b5f52603260045260245ffd5b6001815b60018411156159795780850481111561595d5761595d6158c0565b600184161561596b57908102905b60019390931c928002615942565b935093915050565b5f8261598f575060016110d2565b8161599b57505f6110d2565b81600181146159b157600281146159bb576159d7565b60019150506110d2565b60ff8411156159cc576159cc6158c0565b50506001821b6110d2565b5060208310610133831016604e8410600b84101617156159fa575081810a6110d2565b615a065f19848461593e565b805f1904821115615a1957615a196158c0565b029392505050565b5f61125360ff841683615981565b80820281158282048414176110d2576110d26158c0565b5f60208284031215615a56575f80fd5b5051919050565b818103818111156110d2576110d26158c0565b64ffffffffff82811682821603908111156110d2576110d26158c0565b64ffffffffff81811683821601908111156110d2576110d26158c0565b5f6112538383615981565b634e487b7160e01b5f52601260045260245ffd5b5f60208284031215615ad9575f80fd5b8151611253816154aa565b601f821115611a2a57805f5260205f20601f840160051c81016020851015615b095750805b601f840160051c820191505b818110156148b9575f8155600101615b15565b815167ffffffffffffffff811115615b4257615b426153cf565b615b5681615b50845461584d565b84615ae4565b6020601f821160018114615b88575f8315615b715750848201515b5f19600385901b1c1916600184901b1784556148b9565b5f84815260208120601f198516915b82811015615bb75787850151825560209485019460019092019101615b97565b5084821015615bd457868401515f19600387901b60f8161c191681555b50505050600190811b01905550565b5f60ff831680615c0157634e487b7160e01b5f52601260045260245ffd5b8060ff84160691505092915050565b5f82518060208501845e5f92019182525091905056fe608060405234801561000f575f80fd5b506040516104fd3803806104fd83398101604081905261002e91610382565b6100436001600160a01b038316335f19610068565b5f80546001600160a01b0319166001600160a01b0392909216919091179055506103ef565b604080516001600160a01b038416602482015260448082018490528251808303909101815260649091019091526020810180516001600160e01b0390811663095ea7b360e01b179091526100c0908590839061012c16565b61012657604080516001600160a01b03851660248201525f6044808301919091528251808303909101815260649091019091526020810180516001600160e01b0390811663095ea7b360e01b1790915261011c9186916101cd16565b61012684826101cd565b50505050565b5f805f846001600160a01b03168460405161014791906103ba565b5f604051808303815f865af19150503d805f8114610180576040519150601f19603f3d011682016040523d82523d5f602084013e610185565b606091505b50915091508180156101af5750805115806101af5750808060200190518101906101af91906103d0565b80156101c457505f856001600160a01b03163b115b95945050505050565b5f6101e16001600160a01b03841683610238565b905080515f1415801561020557508080602001905181019061020391906103d0565b155b1561023357604051635274afe760e01b81526001600160a01b03841660048201526024015b60405180910390fd5b505050565b606061024583835f61024c565b9392505050565b6060814710156102715760405163cd78605960e01b815230600482015260240161022a565b5f80856001600160a01b0316848660405161028c91906103ba565b5f6040518083038185875af1925050503d805f81146102c6576040519150601f19603f3d011682016040523d82523d5f602084013e6102cb565b606091505b5090925090506102dc8683836102e6565b9695505050505050565b6060826102fb576102f682610342565b610245565b815115801561031257506001600160a01b0384163b155b1561033b57604051639996b31560e01b81526001600160a01b038516600482015260240161022a565b5080610245565b8051156103525780518082602001fd5b604051630a12f52160e11b815260040160405180910390fd5b50565b6001600160a01b038116811461036b575f80fd5b5f8060408385031215610393575f80fd5b825161039e8161036e565b60208401519092506103af8161036e565b809150509250929050565b5f82518060208501845e5f920191825250919050565b5f602082840312156103e0575f80fd5b81518015158114610245575f80fd5b610101806103fc5f395ff3fe6080604052600436106025575f3560e01c806317fcb39b146029578063439370b1146061575b5f80fd5b3480156033575f80fd5b505f546045906001600160a01b031681565b6040516001600160a01b03909116815260200160405180910390f35b60676069565b005b5f8054906101000a90046001600160a01b03166001600160a01b031663d0e30db0346040518263ffffffff1660e01b81526004015f604051808303818588803b15801560b3575f80fd5b505af115801560c4573d5f803e3d5ffd5b505050505056fea2646970667358221220b11a907b569cbcf09f5ab0939e5b1f67fee25a4d3790d60f807e18982c494dc264736f6c634300081a003352c63247e1f47db19d5ce0460030c497f067ca4cebf71ba98eeadabe20bace0052c63247e1f47db19d5ce0460030c497f067ca4cebf71ba98eeadabe20bace020e6b3200a60a991c539f47dddaca04a18eb4bcf2b53906fb44751d827f001400083cc98ab296d1a1f01854b5f7a2f47df4425a56ba7b35f7faa3a336067e4800a5292f7ccd85acc1b3080c01f5da9af7799f2c26826bd4d79081d6511780bd00cd5ed15c6e187e77e9aee88184c21f4f2182ab5827cb3b7e07fbedcd63f03300083cc98ab296d1a1f01854b5f7a2f47df4425a56ba7b35f7faa3a336067e4801a2646970667358221220ed7b2c69d107e4651458d1b545de4c271f683e4dcc845db0ea1b92db6c9d8d9064736f6c634300081a0033","linkReferences":{}},"methodIdentifiers":{"MAX_MANAGEMENT_RATE()":"f886d4bd","MAX_PERFORMANCE_RATE()":"a1e59442","MAX_PROTOCOL_RATE()":"2542d4a6","acceptOwnership()":"79ba5097","addToWhitelist(address[])":"7f649783","allowance(address,address)":"dd62ed3e","approve(address,uint256)":"095ea7b3","asset()":"38d52e0f","balanceOf(address)":"70a08231","cancelRequestDeposit()":"9c428921","claimableDepositRequest(uint256,address)":"995ea21a","claimableRedeemRequest(uint256,address)":"eaed1d07","close()":"43d726d6","convertToAssets(uint256)":"07a2d13a","convertToAssets(uint256,uint256)":"181e7b3b","convertToShares(uint256)":"c6e6f592","convertToShares(uint256,uint256)":"db2088f4","decimals()":"313ce567","decimalsOffset()":"96b298c5","deposit(uint256,address)":"6e553f65","deposit(uint256,address,address)":"2e2d2984","depositEpochId()":"65e08b23","depositSettleId()":"a1da6eb5","disableWhitelist()":"d6b0f484","epochSettleId(uint40)":"2ef2274a","feeRates()":"7688c584","feeReceiver()":"b3f00674","feeRegistry()":"b3a408b8","getRolesStorage()":"937147e3","highWaterMark()":"1e8410da","initialize((address,string,string,address,address,address,address,address,address,address,uint16,uint16,bool,uint256))":"d4799d81","initiateClosing()":"a4393915","isOperator(address,address)":"b6363cf2","isWhitelistActivated()":"55fcd367","isWhitelisted(address)":"3af32abf","lastDepositEpochIdSettled_debug()":"6564223e","lastDepositRequestId(address)":"16f79e30","lastDepositRequestId_debug(address)":"83701fd1","lastFeeTime()":"66b5ae1f","lastRedeemRequestId(address)":"1291d4e0","maxDeposit(address)":"402d267d","maxMint(address)":"c63d75b6","maxRedeem(address)":"d905777e","maxWithdraw(address)":"ce96cb77","mint(uint256,address)":"94bf804d","mint(uint256,address,address)":"da39b3e7","name()":"06fdde03","newTotalAssets()":"18766de3","owner()":"8da5cb5b","pause()":"8456cb59","paused()":"5c975abb","pendingDeposit()":"f64c6f32","pendingDepositRequest(uint256,address)":"26c6f96c","pendingOwner()":"e30c3978","pendingRedeem()":"0a605c6d","pendingRedeemRequest(uint256,address)":"f5a23d8d","pendingSilo()":"c6d8a074","previewDeposit(uint256)":"ef8b30f7","previewMint(uint256)":"b3d7f6b9","previewRedeem(uint256)":"4cdad506","previewWithdraw(uint256)":"0a28a477","pricePerShare()":"99530b06","protocolFeeReceiver()":"39a51be5","protocolRate()":"99dd1566","redeem(uint256,address,address)":"ba087652","redeemEpochId()":"3edf7247","redeemSettleId()":"9d8490ff","renounceOwnership()":"715018a6","requestDeposit(uint256,address,address)":"85b77f45","requestDeposit(uint256,address,address,address)":"a5948c89","requestRedeem(uint256,address,address)":"7d41c86e","revokeFromWhitelist(address[])":"86af6e68","safe()":"186f0354","setOperator(address,bool)":"558a7297","settleDeposit()":"559ec80d","settleRedeem()":"a03d55e3","share()":"a8d5fd65","state()":"c19d93fb","supportsInterface(bytes4)":"01ffc9a7","symbol()":"95d89b41","totalAssets()":"01e1d114","totalAssets(uint256)":"94605857","totalSupply()":"18160ddd","totalSupply(uint256)":"bd85b039","transfer(address,uint256)":"a9059cbb","transferFrom(address,address,uint256)":"23b872dd","transferOwnership(address)":"f2fde38b","underlyingDecimals()":"25a760c2","unpause()":"3f4ba83a","updateFeeReceiver(address)":"c69bebe4","updateNewTotalAssets(uint256)":"bcd1bf34","updateRates((uint16,uint16))":"3e0a3c25","updateValuationManager(address)":"65ccfcef","updateWhitelistManager(address)":"f1a76fcc","valuationManager()":"caa768d5","whitelistManager()":"26563b40","withdraw(uint256,address,address)":"b460af94"},"storageLayout":{"storage":[],"types":{}},"id":116}