{
  "_format": "hh-sol-artifact-1",
  "contractName": "AaveDistributionManager",
  "sourceName": "@aave/safety-module/contracts/proposals/extend-stkaave-distribution/StakedTokenV2Rev3.sol",
  "abi": [
    {
      "inputs": [
        {
          "internalType": "address",
          "name": "emissionManager",
          "type": "address"
        },
        {
          "internalType": "uint256",
          "name": "distributionDuration",
          "type": "uint256"
        }
      ],
      "stateMutability": "nonpayable",
      "type": "constructor"
    },
    {
      "anonymous": false,
      "inputs": [
        {
          "indexed": true,
          "internalType": "address",
          "name": "asset",
          "type": "address"
        },
        {
          "indexed": false,
          "internalType": "uint256",
          "name": "emission",
          "type": "uint256"
        }
      ],
      "name": "AssetConfigUpdated",
      "type": "event"
    },
    {
      "anonymous": false,
      "inputs": [
        {
          "indexed": true,
          "internalType": "address",
          "name": "asset",
          "type": "address"
        },
        {
          "indexed": false,
          "internalType": "uint256",
          "name": "index",
          "type": "uint256"
        }
      ],
      "name": "AssetIndexUpdated",
      "type": "event"
    },
    {
      "anonymous": false,
      "inputs": [
        {
          "indexed": true,
          "internalType": "address",
          "name": "user",
          "type": "address"
        },
        {
          "indexed": true,
          "internalType": "address",
          "name": "asset",
          "type": "address"
        },
        {
          "indexed": false,
          "internalType": "uint256",
          "name": "index",
          "type": "uint256"
        }
      ],
      "name": "UserIndexUpdated",
      "type": "event"
    },
    {
      "inputs": [],
      "name": "DISTRIBUTION_END",
      "outputs": [
        {
          "internalType": "uint256",
          "name": "",
          "type": "uint256"
        }
      ],
      "stateMutability": "view",
      "type": "function"
    },
    {
      "inputs": [],
      "name": "EMISSION_MANAGER",
      "outputs": [
        {
          "internalType": "address",
          "name": "",
          "type": "address"
        }
      ],
      "stateMutability": "view",
      "type": "function"
    },
    {
      "inputs": [],
      "name": "PRECISION",
      "outputs": [
        {
          "internalType": "uint8",
          "name": "",
          "type": "uint8"
        }
      ],
      "stateMutability": "view",
      "type": "function"
    },
    {
      "inputs": [
        {
          "internalType": "address",
          "name": "",
          "type": "address"
        }
      ],
      "name": "assets",
      "outputs": [
        {
          "internalType": "uint128",
          "name": "emissionPerSecond",
          "type": "uint128"
        },
        {
          "internalType": "uint128",
          "name": "lastUpdateTimestamp",
          "type": "uint128"
        },
        {
          "internalType": "uint256",
          "name": "index",
          "type": "uint256"
        }
      ],
      "stateMutability": "view",
      "type": "function"
    },
    {
      "inputs": [
        {
          "components": [
            {
              "internalType": "uint128",
              "name": "emissionPerSecond",
              "type": "uint128"
            },
            {
              "internalType": "uint256",
              "name": "totalStaked",
              "type": "uint256"
            },
            {
              "internalType": "address",
              "name": "underlyingAsset",
              "type": "address"
            }
          ],
          "internalType": "struct DistributionTypes.AssetConfigInput[]",
          "name": "assetsConfigInput",
          "type": "tuple[]"
        }
      ],
      "name": "configureAssets",
      "outputs": [],
      "stateMutability": "nonpayable",
      "type": "function"
    },
    {
      "inputs": [
        {
          "internalType": "address",
          "name": "user",
          "type": "address"
        },
        {
          "internalType": "address",
          "name": "asset",
          "type": "address"
        }
      ],
      "name": "getUserAssetData",
      "outputs": [
        {
          "internalType": "uint256",
          "name": "",
          "type": "uint256"
        }
      ],
      "stateMutability": "view",
      "type": "function"
    }
  ],
  "bytecode": "0x60c060405234801561001057600080fd5b50604051610c1c380380610c1c83398101604081905261002f91610094565b610046814261005f60201b6104001790919060201c565b6080525060601b6001600160601b03191660a052610103565b60008282018381101561008d5760405162461bcd60e51b8152600401610084906100cc565b60405180910390fd5b9392505050565b600080604083850312156100a6578182fd5b82516001600160a01b03811681146100bc578283fd5b6020939093015192949293505050565b6020808252601b908201527f536166654d6174683a206164646974696f6e206f766572666c6f770000000000604082015260600190565b60805160a05160601c610adf61013d60003980610186528061039a525080610147528061057652806105bb52806105e85250610adf6000f3fe608060405234801561001057600080fd5b50600436106100725760003560e01c8063b2a5dbfa11610050578063b2a5dbfa146100bd578063cbcbb507146100d2578063f11b8188146100e757610072565b80633373ee4c14610077578063919cd40f146100a0578063aaf5eb68146100a8575b600080fd5b61008a610085366004610819565b610109565b6040516100979190610a92565b60405180910390f35b61008a610145565b6100b0610169565b6040516100979190610a9b565b6100d06100cb36600461084b565b61016e565b005b6100da610398565b60405161009791906108eb565b6100fa6100f53660046107ff565b6103bc565b60405161009793929190610a65565b73ffffffffffffffffffffffffffffffffffffffff80821660009081526020818152604080832093861683526002909301905220545b92915050565b7f000000000000000000000000000000000000000000000000000000000000000081565b601281565b3373ffffffffffffffffffffffffffffffffffffffff7f000000000000000000000000000000000000000000000000000000000000000016146101e6576040517f08c379a00000000000000000000000000000000000000000000000000000000081526004016101dd90610a11565b60405180910390fd5b60005b8181101561039357600080600085858581811061020257fe5b905060600201604001602081019061021a91906107ff565b73ffffffffffffffffffffffffffffffffffffffff1673ffffffffffffffffffffffffffffffffffffffff168152602001908152602001600020905061029984848481811061026557fe5b905060600201604001602081019061027d91906107ff565b8286868681811061028a57fe5b90506060020160200135610446565b508383838181106102a657fe5b6102bc92602060609092020190810191506108bb565b81547fffffffffffffffffffffffffffffffff00000000000000000000000000000000166fffffffffffffffffffffffffffffffff9190911617815583838381811061030457fe5b905060600201604001602081019061031c91906107ff565b73ffffffffffffffffffffffffffffffffffffffff167f87fa03892a0556cb6b8f97e6d533a150d4d55fcbf275fff5fa003fa636bcc7fa85858581811061035f57fe5b61037592602060609092020190810191506108bb565b6040516103829190610a48565b60405180910390a2506001016101e9565b505050565b7f000000000000000000000000000000000000000000000000000000000000000081565b600060208190529081526040902080546001909101546fffffffffffffffffffffffffffffffff808316927001000000000000000000000000000000009004169083565b60008282018381101561043f576040517f08c379a00000000000000000000000000000000000000000000000000000000081526004016101dd9061097d565b9392505050565b600182015482546000919070010000000000000000000000000000000090046fffffffffffffffffffffffffffffffff16428114156104875750905061043f565b84546000906104ab9084906fffffffffffffffffffffffffffffffff168488610545565b905082811461050c578086600101819055508673ffffffffffffffffffffffffffffffffffffffff167f5777ca300dfe5bead41006fbce4389794dbc0ed8d6cccebfaf94630aa04184bc826040516105039190610a92565b60405180910390a25b85546fffffffffffffffffffffffffffffffff428116700100000000000000000000000000000000029116178655925050509392505050565b6000831580610552575081155b8061056e575042836fffffffffffffffffffffffffffffffff16145b806105ab57507f0000000000000000000000000000000000000000000000000000000000000000836fffffffffffffffffffffffffffffffff1610155b156105b757508361065f565b60007f000000000000000000000000000000000000000000000000000000000000000042116105e65742610608565b7f00000000000000000000000000000000000000000000000000000000000000005b90506000610628826fffffffffffffffffffffffffffffffff8716610667565b905061065a876106548661064e670de0b6b3a76400006106488c886106a9565b906106a9565b906106fd565b90610400565b925050505b949350505050565b600061043f83836040518060400160405280601e81526020017f536166654d6174683a207375627472616374696f6e206f766572666c6f77000081525061073f565b6000826106b85750600061013f565b828202828482816106c557fe5b041461043f576040517f08c379a00000000000000000000000000000000000000000000000000000000081526004016101dd906109b4565b600061043f83836040518060400160405280601a81526020017f536166654d6174683a206469766973696f6e206279207a65726f000000000000815250610785565b6000818484111561077d576040517f08c379a00000000000000000000000000000000000000000000000000000000081526004016101dd919061090c565b505050900390565b600081836107c0576040517f08c379a00000000000000000000000000000000000000000000000000000000081526004016101dd919061090c565b5060008385816107cc57fe5b0495945050505050565b803573ffffffffffffffffffffffffffffffffffffffff811681146107fa57600080fd5b919050565b600060208284031215610810578081fd5b61043f826107d6565b6000806040838503121561082b578081fd5b610834836107d6565b9150610842602084016107d6565b90509250929050565b6000806020838503121561085d578182fd5b823567ffffffffffffffff80821115610874578384fd5b818501915085601f830112610887578384fd5b813581811115610895578485fd5b8660206060830285010111156108a9578485fd5b60209290920196919550909350505050565b6000602082840312156108cc578081fd5b81356fffffffffffffffffffffffffffffffff8116811461043f578182fd5b73ffffffffffffffffffffffffffffffffffffffff91909116815260200190565b6000602080835283518082850152825b818110156109385785810183015185820160400152820161091c565b818111156109495783604083870101525b50601f017fffffffffffffffffffffffffffffffffffffffffffffffffffffffffffffffe016929092016040019392505050565b6020808252601b908201527f536166654d6174683a206164646974696f6e206f766572666c6f770000000000604082015260600190565b60208082526021908201527f536166654d6174683a206d756c7469706c69636174696f6e206f766572666c6f60408201527f7700000000000000000000000000000000000000000000000000000000000000606082015260800190565b60208082526015908201527f4f4e4c595f454d495353494f4e5f4d414e414745520000000000000000000000604082015260600190565b6fffffffffffffffffffffffffffffffff91909116815260200190565b6fffffffffffffffffffffffffffffffff9384168152919092166020820152604081019190915260600190565b90815260200190565b60ff9190911681526020019056fea26469706673582212200c0023b0e8c70f24c19a00b2c2ce0514962ab8ed199cdc4e80b4febdca7a9fec64736f6c63430007050033",
  "linkReferences": {},
  "deployedLinkReferences": {}
}