{
  "_format": "hh-sol-artifact-1",
  "contractName": "DepositManager",
  "sourceName": "contracts/bundle/DepositManager.sol",
  "abi": [
    {
      "inputs": [
        {
          "internalType": "address",
          "name": "_depositBatch",
          "type": "address"
        }
      ],
      "stateMutability": "nonpayable",
      "type": "constructor"
    },
    {
      "inputs": [
        {
          "components": [
            {
              "internalType": "uint256",
              "name": "_minMintAmount",
              "type": "uint256"
            },
            {
              "internalType": "uint256",
              "name": "_depositAmount",
              "type": "uint256"
            },
            {
              "internalType": "address",
              "name": "_target",
              "type": "address"
            },
            {
              "internalType": "address",
              "name": "_depositToken",
              "type": "address"
            },
            {
              "internalType": "bytes[]",
              "name": "_callData",
              "type": "bytes[]"
            }
          ],
          "internalType": "struct FunctionParameters.BatchHandler",
          "name": "data",
          "type": "tuple"
        }
      ],
      "name": "deposit",
      "outputs": [],
      "stateMutability": "nonpayable",
      "type": "function"
    }
  ],
  "bytecode": "0x60a060405234801561001057600080fd5b506040516106c33803806106c383398101604081905261002f91610045565b60016000556001600160a01b0316608052610075565b60006020828403121561005757600080fd5b81516001600160a01b038116811461006e57600080fd5b9392505050565b60805161062e6100956000396000818160630152609f015261062e6000f3fe608060405234801561001057600080fd5b506004361061002b5760003560e01c80639136d41514610030575b600080fd5b61004361003e36600461033f565b610045565b005b61004d610117565b60608101516020820151339061008890839083907f000000000000000000000000000000000000000000000000000000000000000090610175565b60405163319f349560e01b81526001600160a01b037f0000000000000000000000000000000000000000000000000000000000000000169063319f3495906100d690869085906004016104dd565b600060405180830381600087803b1580156100f057600080fd5b505af1158015610104573d6000803e3d6000fd5b5050505050506101146001600055565b50565b60026000540361016e5760405162461bcd60e51b815260206004820152601f60248201527f5265656e7472616e637947756172643a207265656e7472616e742063616c6c0060448201526064015b60405180910390fd5b6002600055565b604080516001600160a01b0385811660248301528481166044830152606480830185905283518084039091018152608490920183526020820180516001600160e01b03166323b872dd60e01b17905291516000928392908816916101d991906105b3565b6000604051808303816000865af19150503d8060008114610216576040519150601f19603f3d011682016040523d82523d6000602084013e61021b565b606091505b509150915081801561024557508051158061024557508080602001905181019061024591906105cf565b6102ab5760405162461bcd60e51b815260206004820152603160248201527f5472616e7366657248656c7065723a3a7472616e7366657246726f6d3a207472604482015270185b9cd9995c919c9bdb4819985a5b1959607a1b6064820152608401610165565b505050505050565b634e487b7160e01b600052604160045260246000fd5b60405160a0810167ffffffffffffffff811182821017156102ec576102ec6102b3565b60405290565b604051601f8201601f1916810167ffffffffffffffff8111828210171561031b5761031b6102b3565b604052919050565b80356001600160a01b038116811461033a57600080fd5b919050565b6000602080838503121561035257600080fd5b823567ffffffffffffffff8082111561036a57600080fd5b9084019060a0828703121561037e57600080fd5b6103866102c9565b823581528383013584820152604061039f818501610323565b818301526103af60608501610323565b60608301526080840135838111156103c657600080fd5b808501945050601f88818601126103dc57600080fd5b8435848111156103ee576103ee6102b3565b8060051b6103fd8882016102f2565b918252868101880191888101908c84111561041757600080fd5b89890192505b838310156104a4578235888111156104355760008081fd5b8901603f81018e136104475760008081fd5b8a8101358981111561045b5761045b6102b3565b61046c818801601f19168d016102f2565b8181528f898385010111156104815760008081fd5b818984018e83013760009181018d0191909152835250918901919089019061041d565b608087015250939a9950505050505050505050565b60005b838110156104d45781810151838201526020016104bc565b50506000910152565b60408152600060e08201845160408401526020808601516060850152604086015160018060a01b0380821660808701528060608901511660a08701525050608086015160a060c086015282815180855261010094508487019150848160051b8801019450838301925060005b8181101561058f5787860360ff190183528351805180885261057081888a018985016104b9565b601f01601f191696909601850195509284019291840191600101610549565b505050508192506105aa818501866001600160a01b03169052565b50509392505050565b600082516105c58184602087016104b9565b9190910192915050565b6000602082840312156105e157600080fd5b815180151581146105f157600080fd5b939250505056fea2646970667358221220b2b6433e9a1b7411eb30e24d21ae0582998009b0b0ab7440b681eb6bf233075764736f6c63430008110033",
  "linkReferences": {},
  "deployedLinkReferences": {}
}