{
  "_format": "hh-sol-artifact-1",
  "contractName": "DepositBatch",
  "sourceName": "contracts/bundle/DepositBatch.sol",
  "abi": [
    {
      "inputs": [],
      "name": "CallFailed",
      "type": "error"
    },
    {
      "inputs": [],
      "name": "InvalidBalance",
      "type": "error"
    },
    {
      "inputs": [],
      "name": "InvalidBalanceDiff",
      "type": "error"
    },
    {
      "inputs": [],
      "name": "InvalidLength",
      "type": "error"
    },
    {
      "inputs": [],
      "name": "TransferFailed",
      "type": "error"
    },
    {
      "inputs": [
        {
          "components": [
            {
              "internalType": "uint256",
              "name": "_minMintAmount",
              "type": "uint256"
            },
            {
              "internalType": "uint256",
              "name": "_depositAmount",
              "type": "uint256"
            },
            {
              "internalType": "address",
              "name": "_target",
              "type": "address"
            },
            {
              "internalType": "address",
              "name": "_depositToken",
              "type": "address"
            },
            {
              "internalType": "bytes[]",
              "name": "_callData",
              "type": "bytes[]"
            }
          ],
          "internalType": "struct FunctionParameters.BatchHandler",
          "name": "data",
          "type": "tuple"
        },
        {
          "internalType": "address",
          "name": "user",
          "type": "address"
        }
      ],
      "name": "multiTokenSwapAndDeposit",
      "outputs": [],
      "stateMutability": "payable",
      "type": "function"
    },
    {
      "inputs": [
        {
          "components": [
            {
              "internalType": "uint256",
              "name": "_minMintAmount",
              "type": "uint256"
            },
            {
              "internalType": "uint256",
              "name": "_depositAmount",
              "type": "uint256"
            },
            {
              "internalType": "address",
              "name": "_target",
              "type": "address"
            },
            {
              "internalType": "address",
              "name": "_depositToken",
              "type": "address"
            },
            {
              "internalType": "bytes[]",
              "name": "_callData",
              "type": "bytes[]"
            }
          ],
          "internalType": "struct FunctionParameters.BatchHandler",
          "name": "data",
          "type": "tuple"
        }
      ],
      "name": "multiTokenSwapETHAndTransfer",
      "outputs": [],
      "stateMutability": "payable",
      "type": "function"
    },
    {
      "stateMutability": "payable",
      "type": "receive"
    }
  ],
  "bytecode": "0x608060405234801561001057600080fd5b506001600055610c29806100256000396000f3fe60806040526004361061002d5760003560e01c8063319f3495146100395780639801f4fe1461004e57600080fd5b3661003457005b600080fd5b61004c6100473660046109a2565b610061565b005b61004c61005c3660046109f4565b6100a7565b61006961015e565b606082015161007883836101bc565b60006100848230610602565b9050801561009757610097828483610679565b50506100a36001600055565b5050565b6100af61015e565b346000036100d05760405163c52e3eff60e01b815260040160405180910390fd5b336100db82826101bc565b6000816001600160a01b03164760405160006040518083038185875af1925050503d8060008114610128576040519150601f19603f3d011682016040523d82523d6000602084013e61012d565b606091505b505090508061014f576040516312171d8360e31b815260040160405180910390fd5b505061015b6001600055565b50565b6002600054036101b55760405162461bcd60e51b815260206004820152601f60248201527f5265656e7472616e637947756172643a207265656e7472616e742063616c6c0060448201526064015b60405180910390fd5b6002600055565b600082604001516001600160a01b031663aa6ca8086040518163ffffffff1660e01b8152600401600060405180830381865afa158015610200573d6000803e3d6000fd5b505050506040513d6000823e601f3d908101601f191682016040526102289190810190610a31565b606084015160408501518251929350909160008167ffffffffffffffff811115610254576102546107aa565b60405190808252806020026020018201604052801561027d578160200160208202803683370190505b50905081876080015151146102a55760405163251f56a160e21b815260040160405180910390fd5b60005b828110156105375760008682815181106102c4576102c4610acb565b602002602001015190506000866001600160a01b0316826001600160a01b03160361032157896080015183815181106102ff576102ff610acb565b602002602001015180602001905181019061031a9190610ae1565b90506103fa565b600061032d8330610602565b905060007338147794ff247e5fc179edbae6c37fff88f68c526001600160a01b03168c60800151868151811061036557610365610acb565b602002602001015160405161037a9190610afa565b600060405180830381855af49150503d80600081146103b5576040519150601f19603f3d011682016040523d82523d6000602084013e6103ba565b606091505b50509050806103dc57604051633204506f60e01b815260040160405180910390fd5b60006103e88530610602565b90506103f48382610b3f565b93505050505b8060000361041b576040516305aa9ced60e51b815260040160405180910390fd5b60405163095ea7b360e01b81526001600160a01b0387811660048301526000602483015283169063095ea7b3906044016020604051808303816000875af115801561046a573d6000803e3d6000fd5b505050506040513d601f19601f8201168201806040525081019061048e9190610b52565b5060405163095ea7b360e01b81526001600160a01b0387811660048301526024820183905283169063095ea7b3906044016020604051808303816000875af11580156104de573d6000803e3d6000fd5b505050506040513d601f19601f820116820180604052508101906105029190610b52565b508084848151811061051657610516610acb565b6020026020010181815250505050808061052f90610b7b565b9150506102a8565b5086516040516367a7a6e360e11b81526001600160a01b0385169163cf4f4dc691610569918a91869190600401610b94565b600060405180830381600087803b15801561058357600080fd5b505af1158015610597573d6000803e3d6000fd5b5050505060005b828110156105f85760008682815181106105ba576105ba610acb565b6020026020010151905060006105d08230610602565b905080156105e3576105e3828a83610679565b505080806105f090610b7b565b91505061059e565b5050505050505050565b6040516370a0823160e01b81526001600160a01b038281166004830152600091908416906370a0823190602401602060405180830381865afa15801561064c573d6000803e3d6000fd5b505050506040513d601f19601f820116820180604052508101906106709190610ae1565b90505b92915050565b604080516001600160a01b038481166024830152604480830185905283518084039091018152606490920183526020820180516001600160e01b031663a9059cbb60e01b17905291516000928392908716916106d59190610afa565b6000604051808303816000865af19150503d8060008114610712576040519150601f19603f3d011682016040523d82523d6000602084013e610717565b606091505b50915091508180156107415750805115806107415750808060200190518101906107419190610b52565b6107a35760405162461bcd60e51b815260206004820152602d60248201527f5472616e7366657248656c7065723a3a736166655472616e736665723a20747260448201526c185b9cd9995c8819985a5b1959609a1b60648201526084016101ac565b5050505050565b634e487b7160e01b600052604160045260246000fd5b60405160a0810167ffffffffffffffff811182821017156107e3576107e36107aa565b60405290565b604051601f8201601f1916810167ffffffffffffffff81118282101715610812576108126107aa565b604052919050565b6001600160a01b038116811461015b57600080fd5b600067ffffffffffffffff821115610849576108496107aa565b5060051b60200190565b600060a0828403121561086557600080fd5b61086d6107c0565b9050813581526020808301358183015260408084013561088c8161081a565b83820152606084013561089e8161081a565b6060840152608084013567ffffffffffffffff808211156108be57600080fd5b8186019150601f87818401126108d357600080fd5b82356108e66108e18261082f565b6107e9565b81815260059190911b8401860190868101908a83111561090557600080fd5b8786015b8381101561098e578035868111156109215760008081fd5b8701603f81018d136109335760008081fd5b8981013587811115610947576109476107aa565b610958818801601f19168c016107e9565b8181528e8b83850101111561096d5760008081fd5b818b84018d83013760009181018c0191909152845250918801918801610909565b506080890152509598975050505050505050565b600080604083850312156109b557600080fd5b823567ffffffffffffffff8111156109cc57600080fd5b6109d885828601610853565b92505060208301356109e98161081a565b809150509250929050565b600060208284031215610a0657600080fd5b813567ffffffffffffffff811115610a1d57600080fd5b610a2984828501610853565b949350505050565b60006020808385031215610a4457600080fd5b825167ffffffffffffffff811115610a5b57600080fd5b8301601f81018513610a6c57600080fd5b8051610a7a6108e18261082f565b81815260059190911b82018301908381019087831115610a9957600080fd5b928401925b82841015610ac0578351610ab18161081a565b82529284019290840190610a9e565b979650505050505050565b634e487b7160e01b600052603260045260246000fd5b600060208284031215610af357600080fd5b5051919050565b6000825160005b81811015610b1b5760208186018101518583015201610b01565b506000920191825250919050565b634e487b7160e01b600052601160045260246000fd5b8181038181111561067357610673610b29565b600060208284031215610b6457600080fd5b81518015158114610b7457600080fd5b9392505050565b600060018201610b8d57610b8d610b29565b5060010190565b6001600160a01b038416815260606020808301829052845191830182905260009185820191906080850190845b81811015610bdd57845183529383019391830191600101610bc1565b505080935050505082604083015294935050505056fea26469706673582212204ea70f8bf543f0df64fdca2bd1899e5a73e56bf5377543eda1a46b9ab2eaded864736f6c63430008110033",
  "linkReferences": {},
  "deployedLinkReferences": {}
}