{
  "_format": "hh-sol-artifact-1",
  "contractName": "FeeModule",
  "sourceName": "contracts/fee/FeeModule.sol",
  "abi": [
    {
      "inputs": [],
      "name": "CallerNotAssetManager",
      "type": "error"
    },
    {
      "inputs": [],
      "name": "CallerNotPortfolioManager",
      "type": "error"
    },
    {
      "inputs": [],
      "name": "DivisionByZero",
      "type": "error"
    },
    {
      "inputs": [],
      "name": "InvalidAddress",
      "type": "error"
    },
    {
      "inputs": [],
      "name": "ProtocolEmergencyPaused",
      "type": "error"
    },
    {
      "anonymous": false,
      "inputs": [
        {
          "indexed": false,
          "internalType": "address",
          "name": "previousAdmin",
          "type": "address"
        },
        {
          "indexed": false,
          "internalType": "address",
          "name": "newAdmin",
          "type": "address"
        }
      ],
      "name": "AdminChanged",
      "type": "event"
    },
    {
      "anonymous": false,
      "inputs": [
        {
          "indexed": true,
          "internalType": "address",
          "name": "beacon",
          "type": "address"
        }
      ],
      "name": "BeaconUpgraded",
      "type": "event"
    },
    {
      "anonymous": false,
      "inputs": [
        {
          "indexed": true,
          "internalType": "uint256",
          "name": "entryExitProtocolFeeAmount",
          "type": "uint256"
        },
        {
          "indexed": true,
          "internalType": "uint256",
          "name": "entryExitAssetManagerFeeAmount",
          "type": "uint256"
        }
      ],
      "name": "EntryExitFeeCharged",
      "type": "event"
    },
    {
      "anonymous": false,
      "inputs": [
        {
          "indexed": true,
          "internalType": "address",
          "name": "assetManagementTreasury",
          "type": "address"
        },
        {
          "indexed": true,
          "internalType": "address",
          "name": "protocolTreasury",
          "type": "address"
        },
        {
          "indexed": true,
          "internalType": "uint256",
          "name": "protocolFeeAmount",
          "type": "uint256"
        },
        {
          "indexed": false,
          "internalType": "uint256",
          "name": "managerFeeAmount",
          "type": "uint256"
        }
      ],
      "name": "FeesToBeMinted",
      "type": "event"
    },
    {
      "anonymous": false,
      "inputs": [
        {
          "indexed": false,
          "internalType": "uint8",
          "name": "version",
          "type": "uint8"
        }
      ],
      "name": "Initialized",
      "type": "event"
    },
    {
      "anonymous": false,
      "inputs": [
        {
          "indexed": true,
          "internalType": "uint256",
          "name": "protocolStreamingFeeAmount",
          "type": "uint256"
        },
        {
          "indexed": true,
          "internalType": "uint256",
          "name": "managementFeeAmount",
          "type": "uint256"
        },
        {
          "indexed": true,
          "internalType": "uint256",
          "name": "protocolFeeCutAmount",
          "type": "uint256"
        }
      ],
      "name": "ManagementFeeCalculated",
      "type": "event"
    },
    {
      "anonymous": false,
      "inputs": [
        {
          "indexed": true,
          "internalType": "address",
          "name": "previousOwner",
          "type": "address"
        },
        {
          "indexed": true,
          "internalType": "address",
          "name": "newOwner",
          "type": "address"
        }
      ],
      "name": "OwnershipTransferred",
      "type": "event"
    },
    {
      "anonymous": false,
      "inputs": [
        {
          "indexed": true,
          "internalType": "uint256",
          "name": "performanceFeeProtocolAmount",
          "type": "uint256"
        },
        {
          "indexed": true,
          "internalType": "uint256",
          "name": "performanceFeeAssetManagerAmount",
          "type": "uint256"
        },
        {
          "indexed": true,
          "internalType": "uint256",
          "name": "currentPrice",
          "type": "uint256"
        }
      ],
      "name": "PerformanceFeeCalculated",
      "type": "event"
    },
    {
      "anonymous": false,
      "inputs": [
        {
          "indexed": true,
          "internalType": "address",
          "name": "implementation",
          "type": "address"
        }
      ],
      "name": "Upgraded",
      "type": "event"
    },
    {
      "inputs": [],
      "name": "ONE_YEAR_IN_SECONDS",
      "outputs": [
        {
          "internalType": "uint256",
          "name": "",
          "type": "uint256"
        }
      ],
      "stateMutability": "view",
      "type": "function"
    },
    {
      "inputs": [],
      "name": "TOTAL_WEIGHT",
      "outputs": [
        {
          "internalType": "uint256",
          "name": "",
          "type": "uint256"
        }
      ],
      "stateMutability": "view",
      "type": "function"
    },
    {
      "inputs": [
        {
          "internalType": "uint256",
          "name": "_mintAmount",
          "type": "uint256"
        },
        {
          "internalType": "uint256",
          "name": "_fee",
          "type": "uint256"
        }
      ],
      "name": "_chargeEntryOrExitFee",
      "outputs": [
        {
          "internalType": "uint256",
          "name": "userAmount",
          "type": "uint256"
        }
      ],
      "stateMutability": "nonpayable",
      "type": "function"
    },
    {
      "inputs": [],
      "name": "accessController",
      "outputs": [
        {
          "internalType": "contract IAccessController",
          "name": "",
          "type": "address"
        }
      ],
      "stateMutability": "view",
      "type": "function"
    },
    {
      "inputs": [],
      "name": "assetManagementConfig",
      "outputs": [
        {
          "internalType": "contract IAssetManagementConfig",
          "name": "",
          "type": "address"
        }
      ],
      "stateMutability": "view",
      "type": "function"
    },
    {
      "inputs": [],
      "name": "chargePerformanceFee",
      "outputs": [],
      "stateMutability": "nonpayable",
      "type": "function"
    },
    {
      "inputs": [],
      "name": "chargeProtocolAndManagementFees",
      "outputs": [],
      "stateMutability": "nonpayable",
      "type": "function"
    },
    {
      "inputs": [],
      "name": "chargeProtocolAndManagementFeesProtocol",
      "outputs": [],
      "stateMutability": "nonpayable",
      "type": "function"
    },
    {
      "inputs": [],
      "name": "highWatermark",
      "outputs": [
        {
          "internalType": "uint256",
          "name": "",
          "type": "uint256"
        }
      ],
      "stateMutability": "view",
      "type": "function"
    },
    {
      "inputs": [
        {
          "internalType": "address",
          "name": "_portfolio",
          "type": "address"
        },
        {
          "internalType": "address",
          "name": "_assetManagementConfig",
          "type": "address"
        },
        {
          "internalType": "address",
          "name": "_protocolConfig",
          "type": "address"
        },
        {
          "internalType": "address",
          "name": "_accessController",
          "type": "address"
        }
      ],
      "name": "init",
      "outputs": [],
      "stateMutability": "nonpayable",
      "type": "function"
    },
    {
      "inputs": [],
      "name": "lastChargedManagementFee",
      "outputs": [
        {
          "internalType": "uint256",
          "name": "",
          "type": "uint256"
        }
      ],
      "stateMutability": "view",
      "type": "function"
    },
    {
      "inputs": [],
      "name": "lastChargedProtocolFee",
      "outputs": [
        {
          "internalType": "uint256",
          "name": "",
          "type": "uint256"
        }
      ],
      "stateMutability": "view",
      "type": "function"
    },
    {
      "inputs": [],
      "name": "owner",
      "outputs": [
        {
          "internalType": "address",
          "name": "",
          "type": "address"
        }
      ],
      "stateMutability": "view",
      "type": "function"
    },
    {
      "inputs": [],
      "name": "portfolio",
      "outputs": [
        {
          "internalType": "contract IPortfolio",
          "name": "",
          "type": "address"
        }
      ],
      "stateMutability": "view",
      "type": "function"
    },
    {
      "inputs": [],
      "name": "protocolConfig",
      "outputs": [
        {
          "internalType": "contract IProtocolConfig",
          "name": "",
          "type": "address"
        }
      ],
      "stateMutability": "view",
      "type": "function"
    },
    {
      "inputs": [],
      "name": "proxiableUUID",
      "outputs": [
        {
          "internalType": "bytes32",
          "name": "",
          "type": "bytes32"
        }
      ],
      "stateMutability": "view",
      "type": "function"
    },
    {
      "inputs": [],
      "name": "renounceOwnership",
      "outputs": [],
      "stateMutability": "nonpayable",
      "type": "function"
    },
    {
      "inputs": [],
      "name": "resetHighWaterMark",
      "outputs": [],
      "stateMutability": "nonpayable",
      "type": "function"
    },
    {
      "inputs": [
        {
          "internalType": "address",
          "name": "newOwner",
          "type": "address"
        }
      ],
      "name": "transferOwnership",
      "outputs": [],
      "stateMutability": "nonpayable",
      "type": "function"
    },
    {
      "inputs": [
        {
          "internalType": "uint256",
          "name": "_currentPrice",
          "type": "uint256"
        }
      ],
      "name": "updateHighWaterMark",
      "outputs": [],
      "stateMutability": "nonpayable",
      "type": "function"
    },
    {
      "inputs": [
        {
          "internalType": "address",
          "name": "newImplementation",
          "type": "address"
        }
      ],
      "name": "upgradeTo",
      "outputs": [],
      "stateMutability": "nonpayable",
      "type": "function"
    },
    {
      "inputs": [
        {
          "internalType": "address",
          "name": "newImplementation",
          "type": "address"
        },
        {
          "internalType": "bytes",
          "name": "data",
          "type": "bytes"
        }
      ],
      "name": "upgradeToAndCall",
      "outputs": [],
      "stateMutability": "payable",
      "type": "function"
    }
  ],
  "bytecode": "0x60a06040523060805234801561001457600080fd5b5061001d610022565b6100e1565b600054610100900460ff161561008e5760405162461bcd60e51b815260206004820152602760248201527f496e697469616c697a61626c653a20636f6e747261637420697320696e697469604482015266616c697a696e6760c81b606482015260840160405180910390fd5b60005460ff908116146100df576000805460ff191660ff9081179091556040519081527f7f26b83ff96e1f2b6a682f133852f6798a09c465da95921460cefb38474024989060200160405180910390a15b565b6080516124da6200011960003960008181610463015281816104ac0152818161054b0152818161058b015261061e01526124da6000f3fe6080604052600436106101355760003560e01c806395856945116100ab578063dc9885181161006f578063dc98851814610303578063e7c8fed414610323578063ed2a2f9d1461033b578063f2fde38b14610351578063f5efbb4f14610371578063f6d0a03a1461039157600080fd5b8063958569451461028e578063acc77732146102a3578063b36af15f146102b8578063bc43cbaf146102ce578063c23af23c146102ee57600080fd5b80634f1ef286116100fd5780634f1ef286146101ee57806352d1902d146102015780635d83a51614610224578063715018a6146102445780638120b579146102595780638da5cb5b1461027057600080fd5b806304ff27051461013a57806306552ff31461015157806316ede01614610171578063264e303c146101ae5780633659cfe6146101ce575b600080fd5b34801561014657600080fd5b5061014f6103a8565b005b34801561015d57600080fd5b5061014f61016c366004611f57565b610447565b34801561017d57600080fd5b5060fb54610191906001600160a01b031681565b6040516001600160a01b0390911681526020015b60405180910390f35b3480156101ba57600080fd5b5060fc54610191906001600160a01b031681565b3480156101da57600080fd5b5061014f6101e9366004611fb3565b610459565b61014f6101fc366004612017565b610541565b34801561020d57600080fd5b50610216610611565b6040519081526020016101a5565b34801561023057600080fd5b5061021661023f3660046120bf565b6106c4565b34801561025057600080fd5b5061014f610866565b34801561026557600080fd5b506102166101015481565b34801561027c57600080fd5b506033546001600160a01b0316610191565b34801561029a57600080fd5b5061014f610878565b3480156102af57600080fd5b5061014f610dc2565b3480156102c457600080fd5b5061021660ff5481565b3480156102da57600080fd5b5060fe54610191906001600160a01b031681565b3480156102fa57600080fd5b5061014f610e67565b34801561030f57600080fd5b5061014f61031e3660046120e1565b610f04565b34801561032f57600080fd5b506102166301e1338081565b34801561034757600080fd5b5061021661271081565b34801561035d57600080fd5b5061014f61036c366004611fb3565b610faa565b34801561037d57600080fd5b5060fd54610191906001600160a01b031681565b34801561039d57600080fd5b506102166101005481565b60fd60009054906101000a90046001600160a01b03166001600160a01b03166320e460316040518163ffffffff1660e01b8152600401602060405180830381865afa1580156103fb573d6000803e3d6000fd5b505050506040513d601f19601f8201168201806040525081019061041f91906120fa565b1561043d576040516306eb3ed160e31b815260040160405180910390fd5b610445611020565b565b610453848484846113bb565b50505050565b6001600160a01b037f00000000000000000000000000000000000000000000000000000000000000001630036104aa5760405162461bcd60e51b81526004016104a19061211c565b60405180910390fd5b7f00000000000000000000000000000000000000000000000000000000000000006001600160a01b03166104f360008051602061243e833981519152546001600160a01b031690565b6001600160a01b0316146105195760405162461bcd60e51b81526004016104a190612168565b61052281611589565b6040805160008082526020820190925261053e91839190611591565b50565b6001600160a01b037f00000000000000000000000000000000000000000000000000000000000000001630036105895760405162461bcd60e51b81526004016104a19061211c565b7f00000000000000000000000000000000000000000000000000000000000000006001600160a01b03166105d260008051602061243e833981519152546001600160a01b031690565b6001600160a01b0316146105f85760405162461bcd60e51b81526004016104a190612168565b61060182611589565b61060d82826001611591565b5050565b6000306001600160a01b037f000000000000000000000000000000000000000000000000000000000000000016146106b15760405162461bcd60e51b815260206004820152603860248201527f555550535570677261646561626c653a206d757374206e6f742062652063616c60448201527f6c6564207468726f7567682064656c656761746563616c6c000000000000000060648201526084016104a1565b5060008051602061243e83398151915290565b60006106ce611701565b60fe54604051632474521560e21b815260008051602061248583398151915260048201523360248201526001600160a01b03909116906391d1485490604401602060405180830381865afa15801561072a573d6000803e3d6000fd5b505050506040513d601f19601f8201168201806040525081019061074e91906120fa565b61076b5760405163fbfe535960e01b815260040160405180910390fd5b6000610777838561175a565b90506000806107fc8360fd60009054906101000a90046001600160a01b03166001600160a01b031663b0e21e8a6040518163ffffffff1660e01b8152600401602060405180830381865afa1580156107d3573d6000803e3d6000fd5b505050506040513d601f19601f820116820180604052508101906107f791906121b4565b61177a565b9150915061080a81836117bd565b925090508061081983886121e3565b61082391906121e3565b935080827f728c7c8ae0a95836be047fa5b654ccf39535bbe5a4f1a626c7f32648f7d14c3160405160405180910390a3505050610860600160c955565b92915050565b61086e6118cb565b6104456000611925565b60fe54604051632474521560e21b81527f9c6e3ae929b539a99db03120eac7d9f862d68479b44f1eec05ab6036fcf5683060048201523360248201526001600160a01b03909116906391d1485490604401602060405180830381865afa1580156108e6573d6000803e3d6000fd5b505050506040513d601f19601f8201168201806040525081019061090a91906120fa565b6109275760405163142bddf560e01b815260040160405180910390fd5b60fd60009054906101000a90046001600160a01b03166001600160a01b03166320e460316040518163ffffffff1660e01b8152600401602060405180830381865afa15801561097a573d6000803e3d6000fd5b505050506040513d601f19601f8201168201806040525081019061099e91906120fa565b156109bc576040516306eb3ed160e31b815260040160405180910390fd5b6109c4611701565b60fb54604080516318160ddd60e01b815290516000926001600160a01b0316916318160ddd9160048083019260209291908290030181865afa158015610a0e573d6000803e3d6000fd5b505050506040513d601f19601f82011682018060405250810190610a3291906121b4565b60fb5460fd54604080516307dc0d1d60e41b815290519394506000936001600160a01b039384169363191eb90e931691637dc0d1d09160048083019260209291908290030181865afa158015610a8c573d6000803e3d6000fd5b505050506040513d601f19601f82011682018060405250810190610ab091906121f6565b60fb60009054906101000a90046001600160a01b03166001600160a01b031663aa6ca8086040518163ffffffff1660e01b8152600401600060405180830381865afa158015610b03573d6000803e3d6000fd5b505050506040513d6000823e601f3d908101601f19168201604052610b2b9190810190612213565b60fb546040805163fbfa77cf60e01b8152905188926001600160a01b03169163fbfa77cf9160048083019260209291908290030181865afa158015610b74573d6000803e3d6000fd5b505050506040513d601f19601f82011682018060405250810190610b9891906121f6565b6040518563ffffffff1660e01b8152600401610bb794939291906122c5565b602060405180830381865afa158015610bd4573d6000803e3d6000fd5b505050506040513d601f19601f82011682018060405250810190610bf891906121b4565b90506000610c068284611977565b9050821580610c13575081155b80610c1f575061010154155b15610c3557610c2d816119aa565b505050610db8565b6000610cbd8261010154868660fc60009054906101000a90046001600160a01b03166001600160a01b031663877887826040518163ffffffff1660e01b8152600401602060405180830381865afa158015610c94573d6000803e3d6000fd5b505050506040513d601f19601f82011682018060405250810190610cb891906121b4565b6119c6565b9050600080610d198360fd60009054906101000a90046001600160a01b03166001600160a01b031663b0e21e8a6040518163ffffffff1660e01b8152600401602060405180830381865afa1580156107d3573d6000803e3d6000fd5b91509150610d2781836117bd565b5050610db1610dac8660fb60009054906101000a90046001600160a01b03166001600160a01b03166318160ddd6040518163ffffffff1660e01b8152600401602060405180830381865afa158015610d83573d6000803e3d6000fd5b505050506040513d601f19601f82011682018060405250810190610da791906121b4565b611977565b6119aa565b5050505050505b610445600160c955565b60fe54604051632474521560e21b815260008051602061248583398151915260048201523360248201526001600160a01b03909116906391d1485490604401602060405180830381865afa158015610e1e573d6000803e3d6000fd5b505050506040513d601f19601f82011682018060405250810190610e4291906120fa565b610e5f5760405163fbfe535960e01b815260040160405180910390fd5b600061010155565b60fe54604051632474521560e21b815260008051602061248583398151915260048201523360248201526001600160a01b03909116906391d1485490604401602060405180830381865afa158015610ec3573d6000803e3d6000fd5b505050506040513d601f19601f82011682018060405250810190610ee791906120fa565b61043d5760405163fbfe535960e01b815260040160405180910390fd5b60fe54604051632474521560e21b815260008051602061248583398151915260048201523360248201526001600160a01b03909116906391d1485490604401602060405180830381865afa158015610f60573d6000803e3d6000fd5b505050506040513d601f19601f82011682018060405250810190610f8491906120fa565b610fa15760405163fbfe535960e01b815260040160405180910390fd5b61053e816119aa565b610fb26118cb565b6001600160a01b0381166110175760405162461bcd60e51b815260206004820152602660248201527f4f776e61626c653a206e6577206f776e657220697320746865207a65726f206160448201526564647265737360d01b60648201526084016104a1565b61053e81611925565b611028611701565b60fc546040805163537bfaeb60e11b815290516000926001600160a01b03169163a6f7f5d69160048083019260209291908290030181865afa158015611072573d6000803e3d6000fd5b505050506040513d601f19601f8201168201806040525081019061109691906121b4565b9050600060fd60009054906101000a90046001600160a01b03166001600160a01b031663b0e21e8a6040518163ffffffff1660e01b8152600401602060405180830381865afa1580156110ed573d6000803e3d6000fd5b505050506040513d601f19601f8201168201806040525081019061111191906121b4565b9050600060fd60009054906101000a90046001600160a01b03166001600160a01b03166336523bdd6040518163ffffffff1660e01b8152600401602060405180830381865afa158015611168573d6000803e3d6000fd5b505050506040513d601f19601f8201168201806040525081019061118c91906121b4565b9050600060fb60009054906101000a90046001600160a01b03166001600160a01b03166318160ddd6040518163ffffffff1660e01b8152600401602060405180830381865afa1580156111e3573d6000803e3d6000fd5b505050506040513d601f19601f8201168201806040525081019061120791906121b4565b905080158061122757508315801561121d575082155b8015611227575081155b156112445761123b4260ff81905561010055565b50505050610db8565b60008061125b868686866101005460ff5442611a4a565b9150915061126982826117bd565b505061127a4260ff81905561010055565b60fd54604080516307b14cd560e31b8152905183926001600160a01b031691633d8a66a89160048083019260209291908290030181865afa1580156112c3573d6000803e3d6000fd5b505050506040513d601f19601f820116820180604052508101906112e791906121f6565b6001600160a01b031660fc60009054906101000a90046001600160a01b03166001600160a01b0316637a6d4b596040518163ffffffff1660e01b81526004016020604051808303816000875af1158015611345573d6000803e3d6000fd5b505050506040513d601f19601f8201168201806040525081019061136991906121f6565b6001600160a01b03167f523b854346590699f4c78075602ebe92c90f10e374fbba6d5d12f8fae4967295856040516113a391815260200190565b60405180910390a4505050505050610445600160c955565b600054610100900460ff16158080156113db5750600054600160ff909116105b806113f55750303b1580156113f5575060005460ff166001145b6114585760405162461bcd60e51b815260206004820152602e60248201527f496e697469616c697a61626c653a20636f6e747261637420697320616c72656160448201526d191e481a5b9a5d1a585b1a5e995960921b60648201526084016104a1565b6000805460ff19166001179055801561147b576000805461ff0019166101001790555b6001600160a01b038516158061149857506001600160a01b038416155b806114aa57506001600160a01b038316155b806114bc57506001600160a01b038216155b156114da5760405163e6c4247b60e01b815260040160405180910390fd5b60fb80546001600160a01b038088166001600160a01b03199283161790925560fc805487841690831617905560fd805486841690831617905560fe80549285169290911691909117905561152c611ac7565b611534611af6565b61153c611b1d565b8015611582576000805461ff0019169055604051600181527f7f26b83ff96e1f2b6a682f133852f6798a09c465da95921460cefb38474024989060200160405180910390a15b5050505050565b61053e6118cb565b7f4910fdfa16fed3260ed0e7147f7cc6da11a60208b5b9406d12a635614ffd91435460ff16156115c9576115c483611b4c565b505050565b826001600160a01b03166352d1902d6040518163ffffffff1660e01b8152600401602060405180830381865afa925050508015611623575060408051601f3d908101601f19168201909252611620918101906121b4565b60015b6116865760405162461bcd60e51b815260206004820152602e60248201527f45524331393637557067726164653a206e657720696d706c656d656e7461746960448201526d6f6e206973206e6f74205555505360901b60648201526084016104a1565b60008051602061243e83398151915281146116f55760405162461bcd60e51b815260206004820152602960248201527f45524331393637557067726164653a20756e737570706f727465642070726f786044820152681a58589b195555525160ba1b60648201526084016104a1565b506115c4838383611be8565b600260c954036117535760405162461bcd60e51b815260206004820152601f60248201527f5265656e7472616e637947756172643a207265656e7472616e742063616c6c0060448201526064016104a1565b600260c955565b60006127106117698484612333565b611773919061234a565b9392505050565b60008083600003611790575060009050806117b6565b61271061179d8486612333565b6117a7919061234a565b91506117b382856121e3565b90505b9250929050565b60008061184260fc60009054906101000a90046001600160a01b03166001600160a01b0316637a6d4b596040518163ffffffff1660e01b81526004016020604051808303816000875af1158015611818573d6000803e3d6000fd5b505050506040513d601f19601f8201168201806040525081019061183c91906121f6565b85611c0d565b91506117b360fd60009054906101000a90046001600160a01b03166001600160a01b0316633d8a66a86040518163ffffffff1660e01b8152600401602060405180830381865afa15801561189a573d6000803e3d6000fd5b505050506040513d601f19601f820116820180604052508101906118be91906121f6565b84611c0d565b600160c955565b6033546001600160a01b031633146104455760405162461bcd60e51b815260206004820181905260248201527f4f776e61626c653a2063616c6c6572206973206e6f7420746865206f776e657260448201526064016104a1565b603380546001600160a01b038381166001600160a01b0319831681179093556040519116919082907f8be0079c531659141344cd1fd0a4f28419497f9722a3daafe3b4186f6b6457e090600090a35050565b600081156119a15781611992670de0b6b3a764000085612333565b61199c919061234a565b611773565b60009392505050565b6101015481116119bd57610101546119bf565b805b6101015550565b60008486116119d757506000611a41565b60006119e386886121e3565b90506000612710670de0b6b3a7640000856119fe8986612333565b611a089190612333565b611a12919061234a565b611a1c919061234a565b9050611a2881866121e3565b611a328783612333565b611a3c919061234a565b925050505b95945050505050565b6000806000611a5b87878c87611c8f565b90506000611a6b88878b88611c8f565b90506000611a79838c61177a565b95509050611a87828261236c565b93508085837fb1a7efd3210b80494897ba5c3c381965eab03b29ea634f44f5bddb587521c3c560405160405180910390a450505097509795505050505050565b600054610100900460ff16611aee5760405162461bcd60e51b81526004016104a19061237f565b610445611ce8565b600054610100900460ff166104455760405162461bcd60e51b81526004016104a19061237f565b600054610100900460ff16611b445760405162461bcd60e51b81526004016104a19061237f565b610445611d18565b6001600160a01b0381163b611bb95760405162461bcd60e51b815260206004820152602d60248201527f455243313936373a206e657720696d706c656d656e746174696f6e206973206e60448201526c1bdd08184818dbdb9d1c9858dd609a1b60648201526084016104a1565b60008051602061243e83398151915280546001600160a01b0319166001600160a01b0392909216919091179055565b611bf183611d3f565b600082511180611bfe5750805b156115c4576104538383611d7f565b6000620f4240821015611c2257506000610860565b60fb546040516329460cc560e11b81526001600160a01b038581166004830152602482018590529091169063528c198a90604401600060405180830381600087803b158015611c7057600080fd5b505af1158015611c84573d6000803e3d6000fd5b509395945050505050565b6000818410611ca057506000611ce0565b6000611cae86868686611da4565b9050600086611cc5670de0b6b3a764000084612333565b611ccf919061234a565b9050611cdb8188611dee565b925050505b949350505050565b600054610100900460ff16611d0f5760405162461bcd60e51b81526004016104a19061237f565b61044533611925565b600054610100900460ff166118c45760405162461bcd60e51b81526004016104a19061237f565b611d4881611b4c565b6040516001600160a01b038216907fbc7cd75a20ee27fd9adebab32041f755214dbc6bffa90cc0225b39da2e5c2d3b90600090a250565b6060611773838360405180606001604052806027815260200161245e60279139611e3b565b600080611db185846121e3565b90506127106301e1338082611dc6878a612333565b611dd09190612333565b611dda919061234a565b611de4919061234a565b9695505050505050565b600080611e0384670de0b6b3a76400006121e3565b905080600003611e26576040516323d359a360e01b815260040160405180910390fd5b80611e318486612333565b611ce0919061234a565b6060600080856001600160a01b031685604051611e5891906123ee565b600060405180830381855af49150503d8060008114611e93576040519150601f19603f3d011682016040523d82523d6000602084013e611e98565b606091505b5091509150611de48683838760608315611f13578251600003611f0c576001600160a01b0385163b611f0c5760405162461bcd60e51b815260206004820152601d60248201527f416464726573733a2063616c6c20746f206e6f6e2d636f6e747261637400000060448201526064016104a1565b5081611ce0565b611ce08383815115611f285781518083602001fd5b8060405162461bcd60e51b81526004016104a1919061240a565b6001600160a01b038116811461053e57600080fd5b60008060008060808587031215611f6d57600080fd5b8435611f7881611f42565b93506020850135611f8881611f42565b92506040850135611f9881611f42565b91506060850135611fa881611f42565b939692955090935050565b600060208284031215611fc557600080fd5b813561177381611f42565b634e487b7160e01b600052604160045260246000fd5b604051601f8201601f1916810167ffffffffffffffff8111828210171561200f5761200f611fd0565b604052919050565b6000806040838503121561202a57600080fd5b823561203581611f42565b915060208381013567ffffffffffffffff8082111561205357600080fd5b818601915086601f83011261206757600080fd5b81358181111561207957612079611fd0565b61208b601f8201601f19168501611fe6565b915080825287848285010111156120a157600080fd5b80848401858401376000848284010152508093505050509250929050565b600080604083850312156120d257600080fd5b50508035926020909101359150565b6000602082840312156120f357600080fd5b5035919050565b60006020828403121561210c57600080fd5b8151801515811461177357600080fd5b6020808252602c908201527f46756e6374696f6e206d7573742062652063616c6c6564207468726f7567682060408201526b19195b1959d85d1958d85b1b60a21b606082015260800190565b6020808252602c908201527f46756e6374696f6e206d7573742062652063616c6c6564207468726f7567682060408201526b6163746976652070726f787960a01b606082015260800190565b6000602082840312156121c657600080fd5b5051919050565b634e487b7160e01b600052601160045260246000fd5b81810381811115610860576108606121cd565b60006020828403121561220857600080fd5b815161177381611f42565b6000602080838503121561222657600080fd5b825167ffffffffffffffff8082111561223e57600080fd5b818501915085601f83011261225257600080fd5b81518181111561226457612264611fd0565b8060051b9150612275848301611fe6565b818152918301840191848101908884111561228f57600080fd5b938501935b838510156122b957845192506122a983611f42565b8282529385019390850190612294565b98975050505050505050565b6001600160a01b0385811682526080602080840182905286519184018290526000928782019290919060a0860190855b818110156123135785518516835294830194918301916001016122f5565b505080945050508560408501528085166060850152505095945050505050565b8082028115828204841417610860576108606121cd565b60008261236757634e487b7160e01b600052601260045260246000fd5b500490565b80820180821115610860576108606121cd565b6020808252602b908201527f496e697469616c697a61626c653a20636f6e7472616374206973206e6f74206960408201526a6e697469616c697a696e6760a81b606082015260800190565b60005b838110156123e55781810151838201526020016123cd565b50506000910152565b600082516124008184602087016123ca565b9190910192915050565b60208152600082518060208401526124298160408501602087016123ca565b601f01601f1916919091016040019291505056fe360894a13ba1a3210667c828492db98dca3e2076cc3735a920a3ca505d382bbc416464726573733a206c6f772d6c6576656c2064656c65676174652063616c6c206661696c6564780492c026a8ec3177646a290c79c4977c9f11e95690c54a0ac8ee134587be03a264697066735822122026f6ded84b449f1acbe396cd1432849d923cd66490b9d3552271febe896fd41864736f6c63430008110033",
  "linkReferences": {},
  "deployedLinkReferences": {}
}