{
  "_format": "hh-sol-artifact-1",
  "contractName": "PortfolioV3_2",
  "sourceName": "contracts/mock/upgradeability/PortfolioV3_2.sol",
  "abi": [
    {
      "inputs": [],
      "stateMutability": "nonpayable",
      "type": "constructor"
    },
    {
      "inputs": [],
      "name": "AlreadyInitialized",
      "type": "error"
    },
    {
      "inputs": [],
      "name": "BalanceOfVaultIsZero",
      "type": "error"
    },
    {
      "inputs": [],
      "name": "CallerNeedToMaintainMinTokenAmount",
      "type": "error"
    },
    {
      "inputs": [],
      "name": "CallerNotHavingGivenPortfolioTokenAmount",
      "type": "error"
    },
    {
      "inputs": [],
      "name": "CallerNotPortfolioManager",
      "type": "error"
    },
    {
      "inputs": [],
      "name": "CallerNotRebalancerContract",
      "type": "error"
    },
    {
      "inputs": [],
      "name": "CallerNotSuperAdmin",
      "type": "error"
    },
    {
      "inputs": [],
      "name": "CoolDownPeriodNotPassed",
      "type": "error"
    },
    {
      "inputs": [],
      "name": "DivisionByZero",
      "type": "error"
    },
    {
      "inputs": [],
      "name": "InvalidAddress",
      "type": "error"
    },
    {
      "inputs": [],
      "name": "InvalidDepositInputLength",
      "type": "error"
    },
    {
      "inputs": [],
      "name": "InvalidExemptionTokensLength",
      "type": "error"
    },
    {
      "inputs": [],
      "name": "InvalidMintAmount",
      "type": "error"
    },
    {
      "inputs": [],
      "name": "InvalidSpender",
      "type": "error"
    },
    {
      "inputs": [],
      "name": "InvalidTokenAddress",
      "type": "error"
    },
    {
      "inputs": [],
      "name": "MintedAmountIsNotAccepted",
      "type": "error"
    },
    {
      "inputs": [],
      "name": "PortfolioTokenNotInitialized",
      "type": "error"
    },
    {
      "inputs": [],
      "name": "ProtocolIsPaused",
      "type": "error"
    },
    {
      "inputs": [],
      "name": "TokenAlreadyExist",
      "type": "error"
    },
    {
      "inputs": [
        {
          "internalType": "uint256",
          "name": "limit",
          "type": "uint256"
        }
      ],
      "name": "TokenCountOutOfLimit",
      "type": "error"
    },
    {
      "inputs": [],
      "name": "TokenNotEnabled",
      "type": "error"
    },
    {
      "inputs": [],
      "name": "TokenNotWhitelisted",
      "type": "error"
    },
    {
      "inputs": [],
      "name": "TransferFailed",
      "type": "error"
    },
    {
      "inputs": [],
      "name": "Transferprohibited",
      "type": "error"
    },
    {
      "inputs": [],
      "name": "UserNotAllowedToDeposit",
      "type": "error"
    },
    {
      "anonymous": false,
      "inputs": [
        {
          "indexed": false,
          "internalType": "address",
          "name": "previousAdmin",
          "type": "address"
        },
        {
          "indexed": false,
          "internalType": "address",
          "name": "newAdmin",
          "type": "address"
        }
      ],
      "name": "AdminChanged",
      "type": "event"
    },
    {
      "anonymous": false,
      "inputs": [
        {
          "indexed": true,
          "internalType": "address",
          "name": "owner",
          "type": "address"
        },
        {
          "indexed": true,
          "internalType": "address",
          "name": "spender",
          "type": "address"
        },
        {
          "indexed": false,
          "internalType": "uint256",
          "name": "value",
          "type": "uint256"
        }
      ],
      "name": "Approval",
      "type": "event"
    },
    {
      "anonymous": false,
      "inputs": [
        {
          "indexed": true,
          "internalType": "address",
          "name": "beacon",
          "type": "address"
        }
      ],
      "name": "BeaconUpgraded",
      "type": "event"
    },
    {
      "anonymous": false,
      "inputs": [
        {
          "indexed": true,
          "internalType": "address",
          "name": "portfolio",
          "type": "address"
        },
        {
          "indexed": true,
          "internalType": "address",
          "name": "user",
          "type": "address"
        },
        {
          "indexed": true,
          "internalType": "uint256",
          "name": "mintedAmount",
          "type": "uint256"
        },
        {
          "indexed": false,
          "internalType": "uint256",
          "name": "userBalanceAfterDeposit",
          "type": "uint256"
        }
      ],
      "name": "Deposited",
      "type": "event"
    },
    {
      "anonymous": false,
      "inputs": [
        {
          "indexed": false,
          "internalType": "uint8",
          "name": "version",
          "type": "uint8"
        }
      ],
      "name": "Initialized",
      "type": "event"
    },
    {
      "anonymous": false,
      "inputs": [
        {
          "indexed": true,
          "internalType": "address",
          "name": "previousOwner",
          "type": "address"
        },
        {
          "indexed": true,
          "internalType": "address",
          "name": "newOwner",
          "type": "address"
        }
      ],
      "name": "OwnershipTransferred",
      "type": "event"
    },
    {
      "anonymous": false,
      "inputs": [
        {
          "indexed": true,
          "internalType": "address",
          "name": "portfolio",
          "type": "address"
        }
      ],
      "name": "PublicSwapEnabled",
      "type": "event"
    },
    {
      "anonymous": false,
      "inputs": [
        {
          "indexed": true,
          "internalType": "address",
          "name": "from",
          "type": "address"
        },
        {
          "indexed": true,
          "internalType": "address",
          "name": "to",
          "type": "address"
        },
        {
          "indexed": false,
          "internalType": "uint256",
          "name": "value",
          "type": "uint256"
        }
      ],
      "name": "Transfer",
      "type": "event"
    },
    {
      "anonymous": false,
      "inputs": [
        {
          "indexed": true,
          "internalType": "address",
          "name": "implementation",
          "type": "address"
        }
      ],
      "name": "Upgraded",
      "type": "event"
    },
    {
      "anonymous": false,
      "inputs": [
        {
          "indexed": false,
          "internalType": "uint256[]",
          "name": "depositedAmounts",
          "type": "uint256[]"
        },
        {
          "indexed": false,
          "internalType": "address[]",
          "name": "portfolioTokens",
          "type": "address[]"
        }
      ],
      "name": "UserDepositedAmounts",
      "type": "event"
    },
    {
      "anonymous": false,
      "inputs": [
        {
          "indexed": true,
          "internalType": "address",
          "name": "user",
          "type": "address"
        },
        {
          "indexed": true,
          "internalType": "uint256",
          "name": "burnedAmount",
          "type": "uint256"
        },
        {
          "indexed": true,
          "internalType": "address",
          "name": "portfolio",
          "type": "address"
        },
        {
          "indexed": false,
          "internalType": "address[]",
          "name": "portfolioTokens",
          "type": "address[]"
        },
        {
          "indexed": false,
          "internalType": "uint256",
          "name": "userBalanceAfterWithdrawal",
          "type": "uint256"
        },
        {
          "indexed": false,
          "internalType": "uint256[]",
          "name": "userWithdrawalAmounts",
          "type": "uint256[]"
        }
      ],
      "name": "Withdrawn",
      "type": "event"
    },
    {
      "inputs": [
        {
          "internalType": "address",
          "name": "",
          "type": "address"
        }
      ],
      "name": "_lastDepositTime",
      "outputs": [
        {
          "internalType": "uint256",
          "name": "",
          "type": "uint256"
        }
      ],
      "stateMutability": "view",
      "type": "function"
    },
    {
      "inputs": [
        {
          "internalType": "address",
          "name": "",
          "type": "address"
        }
      ],
      "name": "_lastWithdrawCooldown",
      "outputs": [
        {
          "internalType": "uint256",
          "name": "",
          "type": "uint256"
        }
      ],
      "stateMutability": "view",
      "type": "function"
    },
    {
      "inputs": [],
      "name": "accessController",
      "outputs": [
        {
          "internalType": "contract IAccessController",
          "name": "",
          "type": "address"
        }
      ],
      "stateMutability": "view",
      "type": "function"
    },
    {
      "inputs": [
        {
          "internalType": "address",
          "name": "owner",
          "type": "address"
        },
        {
          "internalType": "address",
          "name": "spender",
          "type": "address"
        }
      ],
      "name": "allowance",
      "outputs": [
        {
          "internalType": "uint256",
          "name": "",
          "type": "uint256"
        }
      ],
      "stateMutability": "view",
      "type": "function"
    },
    {
      "inputs": [
        {
          "internalType": "address",
          "name": "spender",
          "type": "address"
        },
        {
          "internalType": "uint256",
          "name": "amount",
          "type": "uint256"
        }
      ],
      "name": "approve",
      "outputs": [
        {
          "internalType": "bool",
          "name": "",
          "type": "bool"
        }
      ],
      "stateMutability": "nonpayable",
      "type": "function"
    },
    {
      "inputs": [],
      "name": "assetManagementConfig",
      "outputs": [
        {
          "internalType": "contract IAssetManagementConfig",
          "name": "",
          "type": "address"
        }
      ],
      "stateMutability": "view",
      "type": "function"
    },
    {
      "inputs": [
        {
          "internalType": "address",
          "name": "account",
          "type": "address"
        }
      ],
      "name": "balanceOf",
      "outputs": [
        {
          "internalType": "uint256",
          "name": "",
          "type": "uint256"
        }
      ],
      "stateMutability": "view",
      "type": "function"
    },
    {
      "inputs": [],
      "name": "decimals",
      "outputs": [
        {
          "internalType": "uint8",
          "name": "",
          "type": "uint8"
        }
      ],
      "stateMutability": "view",
      "type": "function"
    },
    {
      "inputs": [
        {
          "internalType": "address",
          "name": "spender",
          "type": "address"
        },
        {
          "internalType": "uint256",
          "name": "subtractedValue",
          "type": "uint256"
        }
      ],
      "name": "decreaseAllowance",
      "outputs": [
        {
          "internalType": "bool",
          "name": "",
          "type": "bool"
        }
      ],
      "stateMutability": "nonpayable",
      "type": "function"
    },
    {
      "inputs": [],
      "name": "feeModule",
      "outputs": [
        {
          "internalType": "contract IFeeModule",
          "name": "",
          "type": "address"
        }
      ],
      "stateMutability": "view",
      "type": "function"
    },
    {
      "inputs": [
        {
          "internalType": "address[]",
          "name": "portfolioTokens",
          "type": "address[]"
        },
        {
          "internalType": "address",
          "name": "_vault",
          "type": "address"
        }
      ],
      "name": "getTokenBalancesOf",
      "outputs": [
        {
          "internalType": "uint256[]",
          "name": "vaultBalances",
          "type": "uint256[]"
        }
      ],
      "stateMutability": "view",
      "type": "function"
    },
    {
      "inputs": [],
      "name": "getTokens",
      "outputs": [
        {
          "internalType": "address[]",
          "name": "",
          "type": "address[]"
        }
      ],
      "stateMutability": "view",
      "type": "function"
    },
    {
      "inputs": [
        {
          "internalType": "contract IPriceOracle",
          "name": "_oracle",
          "type": "address"
        },
        {
          "internalType": "address[]",
          "name": "_tokens",
          "type": "address[]"
        },
        {
          "internalType": "uint256",
          "name": "_totalSupply",
          "type": "uint256"
        },
        {
          "internalType": "address",
          "name": "_vault",
          "type": "address"
        }
      ],
      "name": "getVaultValueInUSD",
      "outputs": [
        {
          "internalType": "uint256",
          "name": "vaultValue",
          "type": "uint256"
        }
      ],
      "stateMutability": "view",
      "type": "function"
    },
    {
      "inputs": [
        {
          "internalType": "address",
          "name": "spender",
          "type": "address"
        },
        {
          "internalType": "uint256",
          "name": "addedValue",
          "type": "uint256"
        }
      ],
      "name": "increaseAllowance",
      "outputs": [
        {
          "internalType": "bool",
          "name": "",
          "type": "bool"
        }
      ],
      "stateMutability": "nonpayable",
      "type": "function"
    },
    {
      "inputs": [
        {
          "components": [
            {
              "internalType": "string",
              "name": "_name",
              "type": "string"
            },
            {
              "internalType": "string",
              "name": "_symbol",
              "type": "string"
            },
            {
              "internalType": "address",
              "name": "_vault",
              "type": "address"
            },
            {
              "internalType": "address",
              "name": "_module",
              "type": "address"
            },
            {
              "internalType": "address",
              "name": "_tokenExclusionManager",
              "type": "address"
            },
            {
              "internalType": "address",
              "name": "_accessController",
              "type": "address"
            },
            {
              "internalType": "address",
              "name": "_protocolConfig",
              "type": "address"
            },
            {
              "internalType": "address",
              "name": "_assetManagementConfig",
              "type": "address"
            },
            {
              "internalType": "address",
              "name": "_feeModule",
              "type": "address"
            }
          ],
          "internalType": "struct FunctionParameters.PortfolioInitData",
          "name": "initData",
          "type": "tuple"
        }
      ],
      "name": "init",
      "outputs": [],
      "stateMutability": "nonpayable",
      "type": "function"
    },
    {
      "inputs": [
        {
          "internalType": "address[]",
          "name": "_tokens",
          "type": "address[]"
        }
      ],
      "name": "initToken",
      "outputs": [],
      "stateMutability": "nonpayable",
      "type": "function"
    },
    {
      "inputs": [
        {
          "internalType": "address",
          "name": "_to",
          "type": "address"
        },
        {
          "internalType": "uint256",
          "name": "_amount",
          "type": "uint256"
        }
      ],
      "name": "mintShares",
      "outputs": [],
      "stateMutability": "nonpayable",
      "type": "function"
    },
    {
      "inputs": [
        {
          "internalType": "uint256[]",
          "name": "depositAmounts",
          "type": "uint256[]"
        },
        {
          "internalType": "uint256",
          "name": "_minMintAmount",
          "type": "uint256"
        },
        {
          "components": [
            {
              "components": [
                {
                  "internalType": "address",
                  "name": "token",
                  "type": "address"
                },
                {
                  "internalType": "uint160",
                  "name": "amount",
                  "type": "uint160"
                },
                {
                  "internalType": "uint48",
                  "name": "expiration",
                  "type": "uint48"
                },
                {
                  "internalType": "uint48",
                  "name": "nonce",
                  "type": "uint48"
                }
              ],
              "internalType": "struct IAllowanceTransfer.PermitDetails[]",
              "name": "details",
              "type": "tuple[]"
            },
            {
              "internalType": "address",
              "name": "spender",
              "type": "address"
            },
            {
              "internalType": "uint256",
              "name": "sigDeadline",
              "type": "uint256"
            }
          ],
          "internalType": "struct IAllowanceTransfer.PermitBatch",
          "name": "_permit",
          "type": "tuple"
        },
        {
          "internalType": "bytes",
          "name": "_signature",
          "type": "bytes"
        }
      ],
      "name": "multiTokenDeposit",
      "outputs": [],
      "stateMutability": "nonpayable",
      "type": "function"
    },
    {
      "inputs": [
        {
          "internalType": "address",
          "name": "_depositor",
          "type": "address"
        },
        {
          "internalType": "address",
          "name": "_depositFor",
          "type": "address"
        },
        {
          "internalType": "uint256[]",
          "name": "depositAmounts",
          "type": "uint256[]"
        },
        {
          "internalType": "uint256",
          "name": "_minMintAmount",
          "type": "uint256"
        },
        {
          "components": [
            {
              "components": [
                {
                  "internalType": "address",
                  "name": "token",
                  "type": "address"
                },
                {
                  "internalType": "uint160",
                  "name": "amount",
                  "type": "uint160"
                },
                {
                  "internalType": "uint48",
                  "name": "expiration",
                  "type": "uint48"
                },
                {
                  "internalType": "uint48",
                  "name": "nonce",
                  "type": "uint48"
                }
              ],
              "internalType": "struct IAllowanceTransfer.PermitDetails[]",
              "name": "details",
              "type": "tuple[]"
            },
            {
              "internalType": "address",
              "name": "spender",
              "type": "address"
            },
            {
              "internalType": "uint256",
              "name": "sigDeadline",
              "type": "uint256"
            }
          ],
          "internalType": "struct IAllowanceTransfer.PermitBatch",
          "name": "_permit",
          "type": "tuple"
        },
        {
          "internalType": "bytes",
          "name": "_signature",
          "type": "bytes"
        }
      ],
      "name": "multiTokenDepositFor",
      "outputs": [],
      "stateMutability": "nonpayable",
      "type": "function"
    },
    {
      "inputs": [
        {
          "internalType": "uint256",
          "name": "_portfolioTokenAmount",
          "type": "uint256"
        }
      ],
      "name": "multiTokenWithdrawal",
      "outputs": [],
      "stateMutability": "nonpayable",
      "type": "function"
    },
    {
      "inputs": [],
      "name": "name",
      "outputs": [
        {
          "internalType": "string",
          "name": "",
          "type": "string"
        }
      ],
      "stateMutability": "view",
      "type": "function"
    },
    {
      "inputs": [],
      "name": "owner",
      "outputs": [
        {
          "internalType": "address",
          "name": "",
          "type": "address"
        }
      ],
      "stateMutability": "view",
      "type": "function"
    },
    {
      "inputs": [],
      "name": "permit2",
      "outputs": [
        {
          "internalType": "contract IAllowanceTransfer",
          "name": "",
          "type": "address"
        }
      ],
      "stateMutability": "view",
      "type": "function"
    },
    {
      "inputs": [],
      "name": "protocolConfig",
      "outputs": [
        {
          "internalType": "contract IProtocolConfig",
          "name": "",
          "type": "address"
        }
      ],
      "stateMutability": "view",
      "type": "function"
    },
    {
      "inputs": [],
      "name": "proxiableUUID",
      "outputs": [
        {
          "internalType": "bytes32",
          "name": "",
          "type": "bytes32"
        }
      ],
      "stateMutability": "view",
      "type": "function"
    },
    {
      "inputs": [
        {
          "internalType": "address",
          "name": "_token",
          "type": "address"
        },
        {
          "internalType": "uint256",
          "name": "_amount",
          "type": "uint256"
        },
        {
          "internalType": "address",
          "name": "_to",
          "type": "address"
        }
      ],
      "name": "pullFromVault",
      "outputs": [],
      "stateMutability": "nonpayable",
      "type": "function"
    },
    {
      "inputs": [],
      "name": "renounceOwnership",
      "outputs": [],
      "stateMutability": "nonpayable",
      "type": "function"
    },
    {
      "inputs": [],
      "name": "safeModule",
      "outputs": [
        {
          "internalType": "address",
          "name": "",
          "type": "address"
        }
      ],
      "stateMutability": "view",
      "type": "function"
    },
    {
      "inputs": [],
      "name": "symbol",
      "outputs": [
        {
          "internalType": "string",
          "name": "",
          "type": "string"
        }
      ],
      "stateMutability": "view",
      "type": "function"
    },
    {
      "inputs": [],
      "name": "tokenExclusionManager",
      "outputs": [
        {
          "internalType": "contract ITokenExclusionManager",
          "name": "",
          "type": "address"
        }
      ],
      "stateMutability": "view",
      "type": "function"
    },
    {
      "inputs": [],
      "name": "totalSupply",
      "outputs": [
        {
          "internalType": "uint256",
          "name": "",
          "type": "uint256"
        }
      ],
      "stateMutability": "view",
      "type": "function"
    },
    {
      "inputs": [
        {
          "internalType": "address",
          "name": "to",
          "type": "address"
        },
        {
          "internalType": "uint256",
          "name": "amount",
          "type": "uint256"
        }
      ],
      "name": "transfer",
      "outputs": [
        {
          "internalType": "bool",
          "name": "",
          "type": "bool"
        }
      ],
      "stateMutability": "nonpayable",
      "type": "function"
    },
    {
      "inputs": [
        {
          "internalType": "address",
          "name": "from",
          "type": "address"
        },
        {
          "internalType": "address",
          "name": "to",
          "type": "address"
        },
        {
          "internalType": "uint256",
          "name": "amount",
          "type": "uint256"
        }
      ],
      "name": "transferFrom",
      "outputs": [
        {
          "internalType": "bool",
          "name": "",
          "type": "bool"
        }
      ],
      "stateMutability": "nonpayable",
      "type": "function"
    },
    {
      "inputs": [
        {
          "internalType": "address",
          "name": "newOwner",
          "type": "address"
        }
      ],
      "name": "transferOwnership",
      "outputs": [],
      "stateMutability": "nonpayable",
      "type": "function"
    },
    {
      "inputs": [
        {
          "internalType": "address[]",
          "name": "_tokens",
          "type": "address[]"
        }
      ],
      "name": "updateTokenList",
      "outputs": [],
      "stateMutability": "nonpayable",
      "type": "function"
    },
    {
      "inputs": [
        {
          "internalType": "address",
          "name": "newImplementation",
          "type": "address"
        }
      ],
      "name": "upgradeTo",
      "outputs": [],
      "stateMutability": "nonpayable",
      "type": "function"
    },
    {
      "inputs": [
        {
          "internalType": "address",
          "name": "newImplementation",
          "type": "address"
        },
        {
          "internalType": "bytes",
          "name": "data",
          "type": "bytes"
        }
      ],
      "name": "upgradeToAndCall",
      "outputs": [],
      "stateMutability": "payable",
      "type": "function"
    },
    {
      "inputs": [
        {
          "internalType": "address",
          "name": "",
          "type": "address"
        }
      ],
      "name": "userCooldownPeriod",
      "outputs": [
        {
          "internalType": "uint256",
          "name": "",
          "type": "uint256"
        }
      ],
      "stateMutability": "view",
      "type": "function"
    },
    {
      "inputs": [
        {
          "internalType": "address",
          "name": "",
          "type": "address"
        }
      ],
      "name": "userLastDepositTime",
      "outputs": [
        {
          "internalType": "uint256",
          "name": "",
          "type": "uint256"
        }
      ],
      "stateMutability": "view",
      "type": "function"
    },
    {
      "inputs": [],
      "name": "vault",
      "outputs": [
        {
          "internalType": "address",
          "name": "",
          "type": "address"
        }
      ],
      "stateMutability": "view",
      "type": "function"
    }
  ],
  "bytecode": "0x60c0604052306080526e22d473030f116ddee9f6b43ac78ba360a0523480156200002857600080fd5b506200003362000039565b620000fa565b600054610100900460ff1615620000a65760405162461bcd60e51b815260206004820152602760248201527f496e697469616c697a61626c653a20636f6e747261637420697320696e697469604482015266616c697a696e6760c81b606482015260840160405180910390fd5b60005460ff90811614620000f8576000805460ff191660ff9081179091556040519081527f7f26b83ff96e1f2b6a682f133852f6798a09c465da95921460cefb38474024989060200160405180910390a15b565b60805160a051614c266200014a600039600081816102ef01528181611fe30152613a28015260008181610c8c01528181610cd501528181610f7101528181610fb101526110950152614c266000f3fe60806040526004361061023b5760003560e01c8063665714a91161012e578063bae41cbf116100ab578063d37aad481161006f578063d37aad48146106f9578063dd62ed3e14610719578063f2fde38b14610739578063f5efbb4f14610759578063fbfa77cf1461077857600080fd5b8063bae41cbf1461064c578063bc43cbaf1461066b578063c147af511461068b578063c88c82a5146106ab578063ca5fafdd146106d857600080fd5b806393005a5a116100f257806393005a5a146105a857806395d89b41146105d5578063a457c2d7146105ea578063a9059cbb1461060a578063aa6ca8081461062a57600080fd5b8063665714a91461050857806370a0823114610535578063715018a614610555578063859a21de1461056a5780638da5cb5b1461058a57600080fd5b8063313ce567116101bc57806345b12b651161018057806345b12b65146104645780634631f667146104925780634f1ef286146104c0578063528c198a146104d357806352d1902d146104f357600080fd5b8063313ce567146103c85780633659cfe6146103e45780633887938c1461040457806339509351146104245780633d91c7e91461044457600080fd5b806318160ddd1161020357806318160ddd14610329578063191eb90e1461034857806323b872dd14610368578063264e303c146103885780632e8a3649146103a757600080fd5b80630473d2bb1461024057806305414b411461026257806306fdde0314610282578063095ea7b3146102ad57806312261ee7146102dd575b600080fd5b34801561024c57600080fd5b5061026061025b366004613eee565b610798565b005b34801561026e57600080fd5b5061026061027d366004613fab565b610998565b34801561028e57600080fd5b506102976109c3565b6040516102a49190614098565b60405180910390f35b3480156102b957600080fd5b506102cd6102c83660046140d0565b610a55565b60405190151581526020016102a4565b3480156102e957600080fd5b506103117f000000000000000000000000000000000000000000000000000000000000000081565b6040516001600160a01b0390911681526020016102a4565b34801561033557600080fd5b5060cb545b6040519081526020016102a4565b34801561035457600080fd5b5061033a6103633660046141ca565b610a6f565b34801561037457600080fd5b506102cd610383366004614235565b610c5c565b34801561039457600080fd5b50610199546001600160a01b0316610311565b3480156103b357600080fd5b5061010054610311906001600160a01b031681565b3480156103d457600080fd5b50604051601281526020016102a4565b3480156103f057600080fd5b506102606103ff366004614276565b610c82565b34801561041057600080fd5b5061026061041f366004614293565b610d67565b34801561043057600080fd5b506102cd61043f3660046140d0565b610d94565b34801561045057600080fd5b5061026061045f366004614355565b610db6565b34801561047057600080fd5b5061033a61047f366004614276565b6101336020526000908152604090205481565b34801561049e57600080fd5b5061033a6104ad366004614276565b6101346020526000908152604090205481565b6102606104ce3660046143bd565b610f67565b3480156104df57600080fd5b506102606104ee3660046140d0565b611037565b3480156104ff57600080fd5b5061033a611088565b34801561051457600080fd5b5061033a610523366004614276565b60fc6020526000908152604090205481565b34801561054157600080fd5b5061033a610550366004614276565b61113b565b34801561056157600080fd5b50610260611156565b34801561057657600080fd5b50610260610585366004614355565b61116a565b34801561059657600080fd5b506033546001600160a01b0316610311565b3480156105b457600080fd5b506105c86105c336600461444f565b61139a565b6040516102a491906144db565b3480156105e157600080fd5b50610297611448565b3480156105f657600080fd5b506102cd6106053660046140d0565b611457565b34801561061657600080fd5b506102cd6106253660046140d0565b6114dd565b34801561063657600080fd5b5061063f6114eb565b6040516102a49190614527565b34801561065857600080fd5b5061019b546001600160a01b0316610311565b34801561067757600080fd5b5060fb54610311906001600160a01b031681565b34801561069757600080fd5b506102606106a636600461453a565b61154c565b3480156106b757600080fd5b5061033a6106c6366004614276565b60fd6020526000908152604090205481565b3480156106e457600080fd5b5061013554610311906001600160a01b031681565b34801561070557600080fd5b50610260610714366004614575565b611798565b34801561072557600080fd5b5061033a6107343660046145b7565b6117ef565b34801561074557600080fd5b50610260610754366004614276565b61181a565b34801561076557600080fd5b5061019a546001600160a01b0316610311565b34801561078457600080fd5b5060ff54610311906001600160a01b031681565b6107a0611890565b600060fe8054806020026020016040519081016040528092919081815260200182805480156107f857602002820191906000526020600020905b81546001600160a01b031681526001909101906020018083116107da575b50505050509050606060008251905061081433308684866118eb565b61081d33611ada565b61082633611b47565b600061083160cb5490565b905061083d3386611cb3565b94506000826001600160401b03811115610859576108596140fc565b604051908082528060200260200182016040528015610882578160200160208202803683370190505b50905060005b838110156109265760008682815181106108a4576108a46145e5565b6020026020010151905060006108cf8260ff60009054906101000a90046001600160a01b0316611dd3565b9050808484815181106108e4576108e46145e5565b6020908102919091010152846108fa8a83614611565b6109049190614628565b9050610911828233611e7a565b5050808061091e9061464a565b915050610888565b5060006109323361113b565b9050306001600160a01b031687336001600160a01b03167ffbd7c392da8d481164c86593f74bcc551732f8c3265d1976d82e88dc353088e289858760405161097c93929190614663565b60405180910390a4505050505050610995600161016755565b50565b6109a0611890565b6109b03333888888888888611f7d565b6109bb600161016755565b505050505050565b606060cc80546109d29061468e565b80601f01602080910402602001604051908101604052809291908181526020018280546109fe9061468e565b8015610a4b5780601f10610a2057610100808354040283529160200191610a4b565b820191906000526020600020905b815481529060010190602001808311610a2e57829003601f168201915b5050505050905090565b600033610a638185856121dc565b60019150505b92915050565b600082600003610a8157506000610c54565b8351600090815b81811015610c50576000878281518110610aa457610aa46145e5565b60200260200101519050610ac161019a546001600160a01b031690565b60405163748538d960e01b81526001600160a01b038381166004830152919091169063748538d990602401602060405180830381865afa158015610b09573d6000803e3d6000fd5b505050506040513d601f19601f82011682018060405250810190610b2d91906146d2565b610b4a57604051631fcf8c4760e11b815260040160405180910390fd5b6040516370a0823160e01b81526001600160a01b038781166004830152808b169163cf644e1e918491908216906370a0823190602401602060405180830381865afa158015610b9d573d6000803e3d6000fd5b505050506040513d601f19601f82011682018060405250810190610bc191906146ed565b6040516001600160e01b031960e085901b1681526001600160a01b0390921660048301526024820152604401602060405180830381865afa158015610c0a573d6000803e3d6000fd5b505050506040513d601f19601f82011682018060405250810190610c2e91906146ed565b9350610c3a8486614706565b9450508080610c489061464a565b915050610a88565b5050505b949350505050565b600033610c6a858285612300565b610c7585858561237a565b60019150505b9392505050565b6001600160a01b037f0000000000000000000000000000000000000000000000000000000000000000163003610cd35760405162461bcd60e51b8152600401610cca90614719565b60405180910390fd5b7f00000000000000000000000000000000000000000000000000000000000000006001600160a01b0316610d1c600080516020614baa833981519152546001600160a01b031690565b6001600160a01b031614610d425760405162461bcd60e51b8152600401610cca90614765565b610d4b81612536565b604080516000808252602082019092526109959183919061253e565b610d6f611890565b610d7f8888888888888888611f7d565b610d8a600161016755565b5050505050505050565b600033610a63818585610da783836117ef565b610db19190614706565b6121dc565b610de07f8e73530dd444215065cdf478f826e993aeb5e2798587f0bbf5a978bd97df63ea336126a9565b610dfd57604051631fcf4cd160e21b815260040160405180910390fd5b6000610e1261019a546001600160a01b031690565b6001600160a01b03166322da98e76040518163ffffffff1660e01b8152600401602060405180830381865afa158015610e4f573d6000803e3d6000fd5b505050506040513d601f19601f82011682018060405250810190610e7391906146ed565b90508181811115610e9a57604051632870818760e21b815260048101839052602401610cca565b60005b81811015610f49576000858583818110610eb957610eb96145e5565b9050602002016020810190610ece9190614276565b9050610ed98161271f565b6001600160a01b0381166000908152610101602052604090205460ff1615610f1457604051638c56fc5160e01b815260040160405180910390fd5b6001600160a01b0316600090815261010160205260409020805460ff1916600117905580610f418161464a565b915050610e9d565b50610f548484612858565b610f6060fe8585613e76565b5050505050565b6001600160a01b037f0000000000000000000000000000000000000000000000000000000000000000163003610faf5760405162461bcd60e51b8152600401610cca90614719565b7f00000000000000000000000000000000000000000000000000000000000000006001600160a01b0316610ff8600080516020614baa833981519152546001600160a01b031690565b6001600160a01b03161461101e5760405162461bcd60e51b8152600401610cca90614765565b61102782612536565b6110338282600161253e565b5050565b6110617f9f2df0fed2c77648de5860a4cc508cd0818c85b8b8a1ab4ceeef8d981c8956a6336126a9565b61107e5760405163fbfe535960e01b815260040160405180910390fd5b61103382826128cc565b6000306001600160a01b037f000000000000000000000000000000000000000000000000000000000000000016146111285760405162461bcd60e51b815260206004820152603860248201527f555550535570677261646561626c653a206d757374206e6f742062652063616c60448201527f6c6564207468726f7567682064656c656761746563616c6c00000000000000006064820152608401610cca565b50600080516020614baa83398151915290565b6001600160a01b0316600090815260c9602052604090205490565b61115e6129a1565b61116860006129fb565b565b6111947fd980155b32cf66e6af51e0972d64b9d5efe0e6f237dfaa4bdc83f990dd79e9c8336126a9565b6111b05760405162469b1b60e21b815260040160405180910390fd5b60006111c561019a546001600160a01b031690565b6001600160a01b03166322da98e76040518163ffffffff1660e01b8152600401602060405180830381865afa158015611202573d6000803e3d6000fd5b505050506040513d601f19601f8201168201806040525081019061122691906146ed565b9050818181111561124d57604051632870818760e21b815260048101839052602401610cca565b60fe541561126d5760405162dc149f60e41b815260040160405180910390fd5b60005b8181101561135e57600085858381811061128c5761128c6145e5565b90506020020160208101906112a19190614276565b90506112ac8161271f565b6001600160a01b0381166000908152610101602052604090205460ff16156112e757604051638c56fc5160e01b815260040160405180910390fd5b6001600160a01b0316600081815261010160205260408120805460ff1916600190811790915560fe805491820181559091527f54075df80ec1ae6ac9100e1fd0ebf3246c17f5c933137af392011f4c5f61513a0180546001600160a01b0319169091179055806113568161464a565b915050611270565b506113698484612858565b60405130907f3eea0b07b9b6aa4d2288b533e67070697cff737b3d413ac2c7b70d5c152452d790600090a250505050565b8151606090806001600160401b038111156113b7576113b76140fc565b6040519080825280602002602001820160405280156113e0578160200160208202803683370190505b50915060005b8181101561144057611411858281518110611403576114036145e5565b602002602001015185611dd3565b838281518110611423576114236145e5565b6020908102919091010152806114388161464a565b9150506113e6565b505092915050565b606060cd80546109d29061468e565b6000338161146582866117ef565b9050838110156114c55760405162461bcd60e51b815260206004820152602560248201527f45524332303a2064656372656173656420616c6c6f77616e63652062656c6f77604482015264207a65726f60d81b6064820152608401610cca565b6114d282868684036121dc565b506001949350505050565b600033610a6381858561237a565b606060fe805480602002602001604051908101604052809291908181526020018280548015610a4b57602002820191906000526020600020905b81546001600160a01b03168152600190910190602001808311611525575050505050905090565b600054610100900460ff161580801561156c5750600054600160ff909116105b806115865750303b158015611586575060005460ff166001145b6115e95760405162461bcd60e51b815260206004820152602e60248201527f496e697469616c697a61626c653a20636f6e747261637420697320616c72656160448201526d191e481a5b9a5d1a585b1a5e995960921b6064820152608401610cca565b6000805460ff19166001179055801561160c576000805461ff0019166101001790555b611614612a4d565b61161c612a7c565b61164461162f6060840160408501614276565b61163f6080850160608601614276565b612aa3565b61166361165183806147b1565b61165e60208601866147b1565b612b34565b61166b612ba7565b61168361167e60c0840160a08501614276565b612baf565b6116b961169660a0840160808501614276565b61013580546001600160a01b0319166001600160a01b0392909216919091179055565b6116ca610100830160e08401614276565b61019980546001600160a01b0319166001600160a01b03929092169190911790556116fb60e0830160c08401614276565b61019a80546001600160a01b0319166001600160a01b039290921691909117905561172e61012083016101008401614276565b61019b80546001600160a01b0319166001600160a01b03929092169190911790558015611033576000805461ff0019169055604051600181527f7f26b83ff96e1f2b6a682f133852f6798a09c465da95921460cefb38474024989060200160405180910390a15050565b6117c27f8e73530dd444215065cdf478f826e993aeb5e2798587f0bbf5a978bd97df63ea336126a9565b6117df57604051631fcf4cd160e21b815260040160405180910390fd5b6117ea838383611e7a565b505050565b6001600160a01b03918216600090815260ca6020908152604080832093909416825291909152205490565b6118226129a1565b6001600160a01b0381166118875760405162461bcd60e51b815260206004820152602660248201527f4f776e61626c653a206e6577206f776e657220697320746865207a65726f206160448201526564647265737360d01b6064820152608401610cca565b610995816129fb565b600261016754036118e35760405162461bcd60e51b815260206004820152601f60248201527f5265656e7472616e637947756172643a207265656e7472616e742063616c6c006044820152606401610cca565b600261016755565b61019a546001600160a01b03166001600160a01b03166320e460316040518163ffffffff1660e01b8152600401602060405180830381865afa158015611935573d6000803e3d6000fd5b505050506040513d601f19601f8201168201806040525081019061195991906146d2565b1561197757604051632bc2c01360e21b815260040160405180910390fd5b6040516370a0823160e01b81526001600160a01b038681166004830152600091908616906370a0823190602401602060405180830381865afa1580156119c1573d6000803e3d6000fd5b505050506040513d601f19601f820116820180604052508101906119e591906146ed565b905080841115611a085760405163f467df5760e01b815260040160405180910390fd5b6000611a1485836147f7565b90508015801590611a91575061019a546001600160a01b03166001600160a01b03166317db494b6040518163ffffffff1660e01b8152600401602060405180830381865afa158015611a6a573d6000803e3d6000fd5b505050506040513d601f19601f82011682018060405250810190611a8e91906146ed565b81105b15611aaf57604051632678c87760e01b815260040160405180910390fd5b8383511115611ad1576040516334a9986560e01b815260040160405180910390fd5b50505050505050565b6001600160a01b038116600090815260fd602090815260408083205460fc909252822054611b089190614706565b9050600042821115611b2357611b1e42836147f7565b611b26565b60005b905080156117ea5760405163036a87d960e21b815260040160405180910390fd5b610199546001600160a01b03166001600160a01b0316637a6d4b596040518163ffffffff1660e01b81526004016020604051808303816000875af1158015611b93573d6000803e3d6000fd5b505050506040513d601f19601f82011682018060405250810190611bb7919061480a565b6001600160a01b0316816001600160a01b03161480611c54575061019a546001600160a01b03166001600160a01b0316633d8a66a86040518163ffffffff1660e01b8152600401602060405180830381865afa158015611c1b573d6000803e3d6000fd5b505050506040513d601f19601f82011682018060405250810190611c3f919061480a565b6001600160a01b0316816001600160a01b0316145b6109955761019b546001600160a01b03166001600160a01b031663c23af23c6040518163ffffffff1660e01b8152600401600060405180830381600087803b158015611c9f57600080fd5b505af1158015610f60573d6000803e3d6000fd5b600080611cc9610199546001600160a01b031690565b6001600160a01b0316636284ae416040518163ffffffff1660e01b8152600401602060405180830381865afa158015611d06573d6000803e3d6000fd5b505050506040513d601f19601f82011682018060405250810190611d2a91906146ed565b9050829150611d398185612c1f565b15611dc25761019b546001600160a01b0316604051632ec1d28b60e11b815260048101859052602481018390526001600160a01b039190911690635d83a516906044016020604051808303816000875af1158015611d9b573d6000803e3d6000fd5b505050506040513d601f19601f82011682018060405250810190611dbf91906146ed565b91505b611dcc8484612d40565b5092915050565b60006001600160a01b0383161580611df257506001600160a01b038216155b15611e105760405163e6c4247b60e01b815260040160405180910390fd5b6040516370a0823160e01b81526001600160a01b0383811660048301528416906370a0823190602401602060405180830381865afa158015611e56573d6000803e3d6000fd5b505050506040513d601f19601f82011682018060405250810190610c7b91906146ed565b604080516001600160a01b038381166024830152604480830186905283518084039091018152606490920183526020820180516001600160e01b031663a9059cbb60e01b17905261010054925163440420ff60e11b8152919260009291169063880841fe90611eef9088908690600401614827565b6000604051808303816000875af1158015611f0e573d6000803e3d6000fd5b505050506040513d6000823e601f3d908101601f19168201604052611f36919081019061484b565b915050805160001480611f58575080806020019051810190611f5891906146d2565b610f60576040516312171d8360e31b815260040160405180910390fd5b600161016755565b30611f8e6040850160208601614276565b6001600160a01b031614611fb557604051635461585f60e01b815260040160405180910390fd5b60fe54611fc3908890612e87565b611fcc87611b47565b604051632a2d80d160e01b81526001600160a01b037f00000000000000000000000000000000000000000000000000000000000000001690632a2d80d19061201e908b90879087908790600401614913565b600060405180830381600087803b15801561203857600080fd5b505af115801561204c573d6000803e3d6000fd5b50505050600061205d898888613158565b9050600061206a60cb5490565b905060008160000361215057610199546001600160a01b03166001600160a01b031663ef69183e6040518163ffffffff1660e01b8152600401602060405180830381865afa1580156120c0573d6000803e3d6000fd5b505050506040513d601f19601f820116820180604052508101906120e491906146ed565b90506120f961019b546001600160a01b031690565b6001600160a01b031663acc777326040518163ffffffff1660e01b8152600401600060405180830381600087803b15801561213357600080fd5b505af1158015612147573d6000803e3d6000fd5b5050505061215d565b61215a83836133dd565b90505b6121678a82613480565b90506121738188613672565b600061217e8b61113b565b9050818b6001600160a01b0316306001600160a01b03167ff5681f9d0db1b911ac18ee83d515a1cf1051853a9eae418316a2fdf7dea427c5846040516121c691815260200190565b60405180910390a4505050505050505050505050565b6001600160a01b03831661223e5760405162461bcd60e51b8152602060048201526024808201527f45524332303a20617070726f76652066726f6d20746865207a65726f206164646044820152637265737360e01b6064820152608401610cca565b6001600160a01b03821661229f5760405162461bcd60e51b815260206004820152602260248201527f45524332303a20617070726f766520746f20746865207a65726f206164647265604482015261737360f01b6064820152608401610cca565b6001600160a01b03838116600081815260ca602090815260408083209487168084529482529182902085905590518481527f8c5be1e5ebec7d5bd14f71427d1e84f3dd0314c0f7b2291e5b200ac8c7c3b925910160405180910390a3505050565b600061230c84846117ef565b9050600019811461237457818110156123675760405162461bcd60e51b815260206004820152601d60248201527f45524332303a20696e73756666696369656e7420616c6c6f77616e63650000006044820152606401610cca565b61237484848484036121dc565b50505050565b6001600160a01b0383166123de5760405162461bcd60e51b815260206004820152602560248201527f45524332303a207472616e736665722066726f6d20746865207a65726f206164604482015264647265737360d81b6064820152608401610cca565b6001600160a01b0382166124405760405162461bcd60e51b815260206004820152602360248201527f45524332303a207472616e7366657220746f20746865207a65726f206164647260448201526265737360e81b6064820152608401610cca565b61244b838383613693565b6001600160a01b038316600090815260c96020526040902054818110156124c35760405162461bcd60e51b815260206004820152602660248201527f45524332303a207472616e7366657220616d6f756e7420657863656564732062604482015265616c616e636560d01b6064820152608401610cca565b6001600160a01b03808516600081815260c9602052604080822086860390559286168082529083902080548601905591517fddf252ad1be2c89b69c2b068fc378daa952ba7f163c4a11628f55a4df523b3ef906125239086815260200190565b60405180910390a3612374848484613848565b6109956129a1565b7f4910fdfa16fed3260ed0e7147f7cc6da11a60208b5b9406d12a635614ffd91435460ff1615612571576117ea8361389d565b826001600160a01b03166352d1902d6040518163ffffffff1660e01b8152600401602060405180830381865afa9250505080156125cb575060408051601f3d908101601f191682019092526125c8918101906146ed565b60015b61262e5760405162461bcd60e51b815260206004820152602e60248201527f45524331393637557067726164653a206e657720696d706c656d656e7461746960448201526d6f6e206973206e6f74205555505360901b6064820152608401610cca565b600080516020614baa833981519152811461269d5760405162461bcd60e51b815260206004820152602960248201527f45524331393637557067726164653a20756e737570706f727465642070726f786044820152681a58589b195555525160ba1b6064820152608401610cca565b506117ea838383613939565b60fb54604051632474521560e21b8152600481018490526001600160a01b03838116602483015260009216906391d1485490604401602060405180830381865afa1580156126fb573d6000803e3d6000fd5b505050506040513d601f19601f82011682018060405250810190610c7b91906146d2565b610199546001600160a01b03166001600160a01b031663e348560b6040518163ffffffff1660e01b81526004016020604051808303816000875af115801561276b573d6000803e3d6000fd5b505050506040513d601f19601f8201168201806040525081019061278f91906146d2565b80156128135750610199546001600160a01b0316604051630daf9c2160e41b81526001600160a01b038381166004830152919091169063daf9c210906024016020604051808303816000875af11580156127ed573d6000803e3d6000fd5b505050506040513d601f19601f8201168201806040525081019061281191906146d2565b155b15612831576040516307c241ad60e51b815260040160405180910390fd5b6001600160a01b03811661099557604051630f58058360e11b815260040160405180910390fd5b8060005b81811015612374576000610101600086868581811061287d5761287d6145e5565b90506020020160208101906128929190614276565b6001600160a01b031681526020810191909152604001600020805460ff1916911515919091179055806128c48161464a565b91505061285c565b6001600160a01b0382166129225760405162461bcd60e51b815260206004820152601f60248201527f45524332303a206d696e7420746f20746865207a65726f2061646472657373006044820152606401610cca565b61292e60008383613693565b8060cb60008282546129409190614706565b90915550506001600160a01b038216600081815260c960209081526040808320805486019055518481527fddf252ad1be2c89b69c2b068fc378daa952ba7f163c4a11628f55a4df523b3ef910160405180910390a361103360008383613848565b6033546001600160a01b031633146111685760405162461bcd60e51b815260206004820181905260248201527f4f776e61626c653a2063616c6c6572206973206e6f7420746865206f776e65726044820152606401610cca565b603380546001600160a01b038381166001600160a01b0319831681179093556040519116919082907f8be0079c531659141344cd1fd0a4f28419497f9722a3daafe3b4186f6b6457e090600090a35050565b600054610100900460ff16612a745760405162461bcd60e51b8152600401610cca90614a3d565b61116861395e565b600054610100900460ff166111685760405162461bcd60e51b8152600401610cca90614a3d565b600054610100900460ff16612aca5760405162461bcd60e51b8152600401610cca90614a3d565b6001600160a01b0382161580612ae757506001600160a01b038116155b15612b055760405163e6c4247b60e01b815260040160405180910390fd5b60ff80546001600160a01b039384166001600160a01b0319918216179091556101008054929093169116179055565b61237484848080601f01602080910402602001604051908101604052809392919081815260200183838082843760009201919091525050604080516020601f8801819004810282018101909252868152925086915085908190840183828082843760009201919091525061398e92505050565b6111686139bf565b600054610100900460ff16612bd65760405162461bcd60e51b8152600401610cca90614a3d565b6001600160a01b038116612bfd5760405163e6c4247b60e01b815260040160405180910390fd5b60fb80546001600160a01b0319166001600160a01b0392909216919091179055565b60008083118015610c7b5750610199546001600160a01b03166001600160a01b0316637a6d4b596040518163ffffffff1660e01b81526004016020604051808303816000875af1158015612c77573d6000803e3d6000fd5b505050506040513d601f19601f82011682018060405250810190612c9b919061480a565b6001600160a01b0316826001600160a01b03161480612d38575061019a546001600160a01b03166001600160a01b0316633d8a66a86040518163ffffffff1660e01b8152600401602060405180830381865afa158015612cff573d6000803e3d6000fd5b505050506040513d601f19601f82011682018060405250810190612d23919061480a565b6001600160a01b0316826001600160a01b0316145b159392505050565b6001600160a01b038216612da05760405162461bcd60e51b815260206004820152602160248201527f45524332303a206275726e2066726f6d20746865207a65726f206164647265736044820152607360f81b6064820152608401610cca565b612dac82600083613693565b6001600160a01b038216600090815260c9602052604090205481811015612e205760405162461bcd60e51b815260206004820152602260248201527f45524332303a206275726e20616d6f756e7420657863656564732062616c616e604482015261636560f01b6064820152608401610cca565b6001600160a01b038316600081815260c960209081526040808320868603905560cb80548790039055518581529192917fddf252ad1be2c89b69c2b068fc378daa952ba7f163c4a11628f55a4df523b3ef910160405180910390a36117ea83600084613848565b610199546001600160a01b03166001600160a01b031663ae96b1016040518163ffffffff1660e01b81526004016020604051808303816000875af1158015612ed3573d6000803e3d6000fd5b505050506040513d601f19601f82011682018060405250810190612ef791906146d2565b80612f785750610199546001600160a01b0316604051631ec4398960e31b81526001600160a01b038481166004830152919091169063f621cc48906024016020604051808303816000875af1158015612f54573d6000803e3d6000fd5b505050506040513d601f19601f82011682018060405250810190612f7891906146d2565b15806130045750610199546001600160a01b03166001600160a01b0316637a6d4b596040518163ffffffff1660e01b81526004016020604051808303816000875af1158015612fcb573d6000803e3d6000fd5b505050506040513d601f19601f82011682018060405250810190612fef919061480a565b6001600160a01b0316826001600160a01b0316145b8061308d575061019a546001600160a01b03166001600160a01b0316633d8a66a86040518163ffffffff1660e01b8152600401602060405180830381865afa158015613054573d6000803e3d6000fd5b505050506040513d601f19601f82011682018060405250810190613078919061480a565b6001600160a01b0316826001600160a01b0316145b156130ab576040516396bd0ed560e01b815260040160405180910390fd5b61019a546001600160a01b03166001600160a01b031663dac885616040518163ffffffff1660e01b8152600401602060405180830381865afa1580156130f5573d6000803e3d6000fd5b505050506040513d601f19601f8201168201806040525081019061311991906146d2565b1561313757604051632bc2c01360e21b815260040160405180910390fd5b8060000361103357604051633298b3e360e01b815260040160405180910390fd5b60fe805460408051602080840282018101909252828152600093859385938301828280156131af57602002820191906000526020600020905b81546001600160a01b03168152600190910190602001808311613191575b50505050509050805182146131d7576040516369f9527360e11b815260040160405180910390fd5b60ff546000906131f19083906001600160a01b031661139a565b90506131fc60cb5490565b6000036132695760005b8381101561325c5761324a88848381518110613224576132246145e5565b602002602001015189898581811061323e5761323e6145e5565b905060200201356139ee565b806132548161464a565b915050613206565b5060009350505050610c7b565b60006132a887876000818110613281576132816145e5565b905060200201358360008151811061329b5761329b6145e5565b6020026020010151613a82565b905060015b848110156133075760006132e58989848181106132cc576132cc6145e5565b9050602002013585848151811061329b5761329b6145e5565b90506132f18184613ac2565b92505080806132ff9061464a565b9150506132ad565b50600080600019815b878110156133ce57600087828151811061332c5761332c6145e5565b60200260200101519050670de0b6b3a7640000878381518110613351576133516145e5565b6020026020010151876133649190614611565b61336e9190614628565b945061337b8d82876139ee565b60ff546133929082906001600160a01b0316611dd3565b93506133b88783815181106133a9576133a96145e5565b60200260200101518585613ad8565b92505080806133c69061464a565b915050613310565b509a9950505050505050505050565b6000806133ea8484613b03565b90506133ff610199546001600160a01b031690565b6001600160a01b03166317db494b6040518163ffffffff1660e01b8152600401602060405180830381865afa15801561343c573d6000803e3d6000fd5b505050506040513d601f19601f8201168201806040525081019061346091906146ed565b811015610c7b57604051638b78cd9f60e01b815260040160405180910390fd5b600080613496610199546001600160a01b031690565b6001600160a01b031663072ea61c6040518163ffffffff1660e01b8152600401602060405180830381865afa1580156134d3573d6000803e3d6000fd5b505050506040513d601f19601f820116820180604052508101906134f791906146ed565b90506135038185612c1f565b1561358c5761019b546001600160a01b0316604051632ec1d28b60e11b815260048101859052602481018390526001600160a01b039190911690635d83a516906044016020604051808303816000875af1158015613565573d6000803e3d6000fd5b505050506040513d601f19601f8201168201806040525081019061358991906146ed565b92505b61359684846128cc565b6136416135a28561113b565b846135b661019a546001600160a01b031690565b6001600160a01b03166304646a496040518163ffffffff1660e01b8152600401602060405180830381865afa1580156135f3573d6000803e3d6000fd5b505050506040513d601f19601f8201168201806040525081019061361791906146ed565b6001600160a01b038816600090815260fd602090815260408083205460fc90925290912054613b50565b6001600160a01b038516600090815260fd602090815260408083209390935560fc9052204290555081905092915050565b818111156110335760405163199f5a0360e31b815260040160405180910390fd5b6001600160a01b03831615806136b057506001600160a01b038216155b156136ba57505050565b610199546001600160a01b03166001600160a01b031663d823c5ce6040518163ffffffff1660e01b81526004016020604051808303816000875af1158015613706573d6000803e3d6000fd5b505050506040513d601f19601f8201168201806040525081019061372a91906146d2565b806138225750610199546001600160a01b03166001600160a01b03166392ff0d316040518163ffffffff1660e01b81526004016020604051808303816000875af115801561377c573d6000803e3d6000fd5b505050506040513d601f19601f820116820180604052508101906137a091906146d2565b80156138225750610199546001600160a01b0316604051631ec4398960e31b81526001600160a01b038481166004830152919091169063f621cc48906024016020604051808303816000875af11580156137fe573d6000803e3d6000fd5b505050506040513d601f19601f8201168201806040525081019061382291906146d2565b61383f5760405163359d0ceb60e01b815260040160405180910390fd5b6117ea83611ada565b6001600160a01b038316613868576117ea826138638461113b565b613c07565b6001600160a01b038216613883576117ea836138638561113b565b613890836138638561113b565b6117ea826138638461113b565b6001600160a01b0381163b61390a5760405162461bcd60e51b815260206004820152602d60248201527f455243313936373a206e657720696d706c656d656e746174696f6e206973206e60448201526c1bdd08184818dbdb9d1c9858dd609a1b6064820152608401610cca565b600080516020614baa83398151915280546001600160a01b0319166001600160a01b0392909216919091179055565b61394283613c6a565b60008251118061394f5750805b156117ea576123748383613caa565b600054610100900460ff166139855760405162461bcd60e51b8152600401610cca90614a3d565b611168336129fb565b600054610100900460ff166139b55760405162461bcd60e51b8152600401610cca90614a3d565b6110338282613ccf565b600054610100900460ff166139e65760405162461bcd60e51b8152600401610cca90614a3d565b611168613d0f565b60ff54604051631b63c28b60e11b81526001600160a01b0385811660048301529182166024820152828216604482015283821660648201527f0000000000000000000000000000000000000000000000000000000000000000909116906336c7851690608401600060405180830381600087803b158015613a6e57600080fd5b505af1158015611ad1573d6000803e3d6000fd5b600081600003613aa557604051633ba269b760e21b815260040160405180910390fd5b81613ab8670de0b6b3a764000085614611565b610c7b9190614628565b6000818310613ad15781610c7b565b5090919050565b600080613aee613ae886866147f7565b85613a82565b9050613afa8184613ac2565b95945050505050565b600080613b1884670de0b6b3a76400006147f7565b905080600003613b3b576040516323d359a360e01b815260040160405180910390fd5b80613b468486614611565b610c549190614628565b600080613b5d8484614706565b90506000613b6b8242613d36565b9050868803613b8a578615613b805785613b83565b60005b9250613bfc565b861580613b9657508086105b15613ba357809250613bfc565b6000613baf888a6147f7565b9050600089613bbe8484614611565b613bc88a8c614611565b613bd29190614706565b613bdc9190614628565b9050878111613bf557613bf0816001613d51565b613bf7565b875b945050505b505095945050505050565b61013554604051634a9e86a560e11b81526001600160a01b038481166004830152602482018490529091169063953d0d4a90604401600060405180830381600087803b158015613c5657600080fd5b505af11580156109bb573d6000803e3d6000fd5b613c738161389d565b6040516001600160a01b038216907fbc7cd75a20ee27fd9adebab32041f755214dbc6bffa90cc0225b39da2e5c2d3b90600090a250565b6060610c7b8383604051806060016040528060278152602001614bca60279139613d60565b600054610100900460ff16613cf65760405162461bcd60e51b8152600401610cca90614a3d565b60cc613d028382614ace565b5060cd6117ea8282614ace565b600054610100900460ff16611f755760405162461bcd60e51b8152600401610cca90614a3d565b600081831115613d495750808203610a69565b506000610a69565b6000818311613ad15781610c7b565b6060600080856001600160a01b031685604051613d7d9190614b8d565b600060405180830381855af49150503d8060008114613db8576040519150601f19603f3d011682016040523d82523d6000602084013e613dbd565b606091505b5091509150613dce86838387613dd8565b9695505050505050565b60608315613e47578251600003613e40576001600160a01b0385163b613e405760405162461bcd60e51b815260206004820152601d60248201527f416464726573733a2063616c6c20746f206e6f6e2d636f6e74726163740000006044820152606401610cca565b5081610c54565b610c548383815115613e5c5781518083602001fd5b8060405162461bcd60e51b8152600401610cca9190614098565b828054828255906000526020600020908101928215613ec9579160200282015b82811115613ec95781546001600160a01b0319166001600160a01b03843516178255602090920191600190910190613e96565b50613ed5929150613ed9565b5090565b5b80821115613ed55760008155600101613eda565b600060208284031215613f0057600080fd5b5035919050565b60008083601f840112613f1957600080fd5b5081356001600160401b03811115613f3057600080fd5b6020830191508360208260051b8501011115613f4b57600080fd5b9250929050565b600060608284031215613f6457600080fd5b50919050565b60008083601f840112613f7c57600080fd5b5081356001600160401b03811115613f9357600080fd5b602083019150836020828501011115613f4b57600080fd5b60008060008060008060808789031215613fc457600080fd5b86356001600160401b0380821115613fdb57600080fd5b613fe78a838b01613f07565b909850965060208901359550604089013591508082111561400757600080fd5b6140138a838b01613f52565b9450606089013591508082111561402957600080fd5b5061403689828a01613f6a565b979a9699509497509295939492505050565b60005b8381101561406357818101518382015260200161404b565b50506000910152565b60008151808452614084816020860160208601614048565b601f01601f19169290920160200192915050565b602081526000610c7b602083018461406c565b6001600160a01b038116811461099557600080fd5b80356140cb816140ab565b919050565b600080604083850312156140e357600080fd5b82356140ee816140ab565b946020939093013593505050565b634e487b7160e01b600052604160045260246000fd5b604051601f8201601f191681016001600160401b038111828210171561413a5761413a6140fc565b604052919050565b600082601f83011261415357600080fd5b813560206001600160401b0382111561416e5761416e6140fc565b8160051b61417d828201614112565b928352848101820192828101908785111561419757600080fd5b83870192505b848310156141bf5782356141b0816140ab565b8252918301919083019061419d565b979650505050505050565b600080600080608085870312156141e057600080fd5b84356141eb816140ab565b935060208501356001600160401b0381111561420657600080fd5b61421287828801614142565b93505060408501359150606085013561422a816140ab565b939692955090935050565b60008060006060848603121561424a57600080fd5b8335614255816140ab565b92506020840135614265816140ab565b929592945050506040919091013590565b60006020828403121561428857600080fd5b8135610c7b816140ab565b60008060008060008060008060c0898b0312156142af57600080fd5b88356142ba816140ab565b975060208901356142ca816140ab565b965060408901356001600160401b03808211156142e657600080fd5b6142f28c838d01613f07565b909850965060608b0135955060808b013591508082111561431257600080fd5b61431e8c838d01613f52565b945060a08b013591508082111561433457600080fd5b506143418b828c01613f6a565b999c989b5096995094979396929594505050565b6000806020838503121561436857600080fd5b82356001600160401b0381111561437e57600080fd5b61438a85828601613f07565b90969095509350505050565b60006001600160401b038211156143af576143af6140fc565b50601f01601f191660200190565b600080604083850312156143d057600080fd5b82356143db816140ab565b915060208301356001600160401b038111156143f657600080fd5b8301601f8101851361440757600080fd5b803561441a61441582614396565b614112565b81815286602083850101111561442f57600080fd5b816020840160208301376000602083830101528093505050509250929050565b6000806040838503121561446257600080fd5b82356001600160401b0381111561447857600080fd5b61448485828601614142565b9250506020830135614495816140ab565b809150509250929050565b600081518084526020808501945080840160005b838110156144d0578151875295820195908201906001016144b4565b509495945050505050565b602081526000610c7b60208301846144a0565b600081518084526020808501945080840160005b838110156144d05781516001600160a01b031687529582019590820190600101614502565b602081526000610c7b60208301846144ee565b60006020828403121561454c57600080fd5b81356001600160401b0381111561456257600080fd5b82016101208185031215610c7b57600080fd5b60008060006060848603121561458a57600080fd5b8335614595816140ab565b92506020840135915060408401356145ac816140ab565b809150509250925092565b600080604083850312156145ca57600080fd5b82356145d5816140ab565b91506020830135614495816140ab565b634e487b7160e01b600052603260045260246000fd5b634e487b7160e01b600052601160045260246000fd5b8082028115828204841417610a6957610a696145fb565b60008261464557634e487b7160e01b600052601260045260246000fd5b500490565b60006001820161465c5761465c6145fb565b5060010190565b60608152600061467660608301866144ee565b8460208401528281036040840152613dce81856144a0565b600181811c908216806146a257607f821691505b602082108103613f6457634e487b7160e01b600052602260045260246000fd5b805180151581146140cb57600080fd5b6000602082840312156146e457600080fd5b610c7b826146c2565b6000602082840312156146ff57600080fd5b5051919050565b80820180821115610a6957610a696145fb565b6020808252602c908201527f46756e6374696f6e206d7573742062652063616c6c6564207468726f7567682060408201526b19195b1959d85d1958d85b1b60a21b606082015260800190565b6020808252602c908201527f46756e6374696f6e206d7573742062652063616c6c6564207468726f7567682060408201526b6163746976652070726f787960a01b606082015260800190565b6000808335601e198436030181126147c857600080fd5b8301803591506001600160401b038211156147e257600080fd5b602001915036819003821315613f4b57600080fd5b81810381811115610a6957610a696145fb565b60006020828403121561481c57600080fd5b8151610c7b816140ab565b6001600160a01b0383168152604060208201819052600090610c549083018461406c565b6000806040838503121561485e57600080fd5b614867836146c2565b915060208301516001600160401b0381111561488257600080fd5b8301601f8101851361489357600080fd5b80516148a161441582614396565b8181528660208385010111156148b657600080fd5b6148c7826020830160208601614048565b8093505050509250929050565b803565ffffffffffff811681146140cb57600080fd5b81835281816020850137506000828201602090810191909152601f909101601f19169091010190565b6001600160a01b038581168252606060208084018290526000929060c085018835368a9003601e1901811261494757600080fd5b890182810190356001600160401b0381111561496257600080fd5b8060071b360382131561497457600080fd5b878601869052918290529060009060e088015b818310156149f357833561499a816140ab565b86168152838501356149ab816140ab565b86168186015260406149be8582016148d4565b65ffffffffffff80821683850152806149d88b89016148d4565b16848b01525050506080938401936001939093019201614987565b6149fe858d016140c0565b6001600160a01b03811660808b0152965060408c013560a08a015288810360408a0152614a2c818b8d6148ea565b9d9c50505050505050505050505050565b6020808252602b908201527f496e697469616c697a61626c653a20636f6e7472616374206973206e6f74206960408201526a6e697469616c697a696e6760a81b606082015260800190565b601f8211156117ea57600081815260208120601f850160051c81016020861015614aaf5750805b601f850160051c820191505b818110156109bb57828155600101614abb565b81516001600160401b03811115614ae757614ae76140fc565b614afb81614af5845461468e565b84614a88565b602080601f831160018114614b305760008415614b185750858301515b600019600386901b1c1916600185901b1785556109bb565b600085815260208120601f198616915b82811015614b5f57888601518255948401946001909101908401614b40565b5085821015614b7d5787850151600019600388901b60f8161c191681555b5050505050600190811b01905550565b60008251614b9f818460208701614048565b919091019291505056fe360894a13ba1a3210667c828492db98dca3e2076cc3735a920a3ca505d382bbc416464726573733a206c6f772d6c6576656c2064656c65676174652063616c6c206661696c6564a26469706673582212200724d48080fa48ab5e4b7c0af075a4d97c024ea40ef08c1eef0d0886bf25808464736f6c63430008110033",
  "linkReferences": {},
  "deployedLinkReferences": {}
}