{
  "_format": "hh-sol-artifact-1",
  "contractName": "PortfolioV3_4",
  "sourceName": "contracts/mock/upgradeability/PortfolioV3_4.sol",
  "abi": [
    {
      "inputs": [],
      "stateMutability": "nonpayable",
      "type": "constructor"
    },
    {
      "inputs": [],
      "name": "AlreadyInitialized",
      "type": "error"
    },
    {
      "inputs": [],
      "name": "BalanceOfVaultIsZero",
      "type": "error"
    },
    {
      "inputs": [],
      "name": "CallerNeedToMaintainMinTokenAmount",
      "type": "error"
    },
    {
      "inputs": [],
      "name": "CallerNotHavingGivenPortfolioTokenAmount",
      "type": "error"
    },
    {
      "inputs": [],
      "name": "CallerNotPortfolioManager",
      "type": "error"
    },
    {
      "inputs": [],
      "name": "CallerNotRebalancerContract",
      "type": "error"
    },
    {
      "inputs": [],
      "name": "CallerNotSuperAdmin",
      "type": "error"
    },
    {
      "inputs": [],
      "name": "CoolDownPeriodNotPassed",
      "type": "error"
    },
    {
      "inputs": [],
      "name": "DivisionByZero",
      "type": "error"
    },
    {
      "inputs": [],
      "name": "InvalidAddress",
      "type": "error"
    },
    {
      "inputs": [],
      "name": "InvalidDepositInputLength",
      "type": "error"
    },
    {
      "inputs": [],
      "name": "InvalidExemptionTokensLength",
      "type": "error"
    },
    {
      "inputs": [],
      "name": "InvalidMintAmount",
      "type": "error"
    },
    {
      "inputs": [],
      "name": "InvalidSpender",
      "type": "error"
    },
    {
      "inputs": [],
      "name": "InvalidTokenAddress",
      "type": "error"
    },
    {
      "inputs": [],
      "name": "MintedAmountIsNotAccepted",
      "type": "error"
    },
    {
      "inputs": [],
      "name": "PortfolioTokenNotInitialized",
      "type": "error"
    },
    {
      "inputs": [],
      "name": "ProtocolIsPaused",
      "type": "error"
    },
    {
      "inputs": [],
      "name": "TokenAlreadyExist",
      "type": "error"
    },
    {
      "inputs": [
        {
          "internalType": "uint256",
          "name": "limit",
          "type": "uint256"
        }
      ],
      "name": "TokenCountOutOfLimit",
      "type": "error"
    },
    {
      "inputs": [],
      "name": "TokenNotEnabled",
      "type": "error"
    },
    {
      "inputs": [],
      "name": "TokenNotWhitelisted",
      "type": "error"
    },
    {
      "inputs": [],
      "name": "TransferFailed",
      "type": "error"
    },
    {
      "inputs": [],
      "name": "Transferprohibited",
      "type": "error"
    },
    {
      "inputs": [],
      "name": "UserNotAllowedToDeposit",
      "type": "error"
    },
    {
      "anonymous": false,
      "inputs": [
        {
          "indexed": false,
          "internalType": "address",
          "name": "previousAdmin",
          "type": "address"
        },
        {
          "indexed": false,
          "internalType": "address",
          "name": "newAdmin",
          "type": "address"
        }
      ],
      "name": "AdminChanged",
      "type": "event"
    },
    {
      "anonymous": false,
      "inputs": [
        {
          "indexed": true,
          "internalType": "address",
          "name": "owner",
          "type": "address"
        },
        {
          "indexed": true,
          "internalType": "address",
          "name": "spender",
          "type": "address"
        },
        {
          "indexed": false,
          "internalType": "uint256",
          "name": "value",
          "type": "uint256"
        }
      ],
      "name": "Approval",
      "type": "event"
    },
    {
      "anonymous": false,
      "inputs": [
        {
          "indexed": true,
          "internalType": "address",
          "name": "beacon",
          "type": "address"
        }
      ],
      "name": "BeaconUpgraded",
      "type": "event"
    },
    {
      "anonymous": false,
      "inputs": [
        {
          "indexed": true,
          "internalType": "address",
          "name": "portfolio",
          "type": "address"
        },
        {
          "indexed": true,
          "internalType": "address",
          "name": "user",
          "type": "address"
        },
        {
          "indexed": false,
          "internalType": "uint256",
          "name": "mintedAmount",
          "type": "uint256"
        }
      ],
      "name": "Deposited",
      "type": "event"
    },
    {
      "anonymous": false,
      "inputs": [
        {
          "indexed": false,
          "internalType": "uint8",
          "name": "version",
          "type": "uint8"
        }
      ],
      "name": "Initialized",
      "type": "event"
    },
    {
      "anonymous": false,
      "inputs": [
        {
          "indexed": true,
          "internalType": "address",
          "name": "previousOwner",
          "type": "address"
        },
        {
          "indexed": true,
          "internalType": "address",
          "name": "newOwner",
          "type": "address"
        }
      ],
      "name": "OwnershipTransferred",
      "type": "event"
    },
    {
      "anonymous": false,
      "inputs": [],
      "name": "PublicSwapEnabled",
      "type": "event"
    },
    {
      "anonymous": false,
      "inputs": [
        {
          "indexed": true,
          "internalType": "address",
          "name": "from",
          "type": "address"
        },
        {
          "indexed": true,
          "internalType": "address",
          "name": "to",
          "type": "address"
        },
        {
          "indexed": false,
          "internalType": "uint256",
          "name": "value",
          "type": "uint256"
        }
      ],
      "name": "Transfer",
      "type": "event"
    },
    {
      "anonymous": false,
      "inputs": [
        {
          "indexed": true,
          "internalType": "address",
          "name": "implementation",
          "type": "address"
        }
      ],
      "name": "Upgraded",
      "type": "event"
    },
    {
      "anonymous": false,
      "inputs": [
        {
          "indexed": true,
          "internalType": "address",
          "name": "user",
          "type": "address"
        },
        {
          "indexed": false,
          "internalType": "uint256",
          "name": "burnedAmount",
          "type": "uint256"
        },
        {
          "indexed": true,
          "internalType": "address",
          "name": "portfolio",
          "type": "address"
        }
      ],
      "name": "Withdrawn",
      "type": "event"
    },
    {
      "inputs": [],
      "name": "_currentSnapshotId",
      "outputs": [
        {
          "internalType": "uint256",
          "name": "",
          "type": "uint256"
        }
      ],
      "stateMutability": "view",
      "type": "function"
    },
    {
      "inputs": [
        {
          "internalType": "address",
          "name": "",
          "type": "address"
        }
      ],
      "name": "_lastDepositTime",
      "outputs": [
        {
          "internalType": "uint256",
          "name": "",
          "type": "uint256"
        }
      ],
      "stateMutability": "view",
      "type": "function"
    },
    {
      "inputs": [
        {
          "internalType": "address",
          "name": "",
          "type": "address"
        }
      ],
      "name": "_lastWithdrawCooldown",
      "outputs": [
        {
          "internalType": "uint256",
          "name": "",
          "type": "uint256"
        }
      ],
      "stateMutability": "view",
      "type": "function"
    },
    {
      "inputs": [],
      "name": "accessController",
      "outputs": [
        {
          "internalType": "contract IAccessController",
          "name": "",
          "type": "address"
        }
      ],
      "stateMutability": "view",
      "type": "function"
    },
    {
      "inputs": [
        {
          "internalType": "address",
          "name": "owner",
          "type": "address"
        },
        {
          "internalType": "address",
          "name": "spender",
          "type": "address"
        }
      ],
      "name": "allowance",
      "outputs": [
        {
          "internalType": "uint256",
          "name": "",
          "type": "uint256"
        }
      ],
      "stateMutability": "view",
      "type": "function"
    },
    {
      "inputs": [
        {
          "internalType": "address",
          "name": "spender",
          "type": "address"
        },
        {
          "internalType": "uint256",
          "name": "amount",
          "type": "uint256"
        }
      ],
      "name": "approve",
      "outputs": [
        {
          "internalType": "bool",
          "name": "",
          "type": "bool"
        }
      ],
      "stateMutability": "nonpayable",
      "type": "function"
    },
    {
      "inputs": [],
      "name": "assetManagementConfig",
      "outputs": [
        {
          "internalType": "contract IAssetManagementConfig",
          "name": "",
          "type": "address"
        }
      ],
      "stateMutability": "view",
      "type": "function"
    },
    {
      "inputs": [
        {
          "internalType": "address",
          "name": "account",
          "type": "address"
        }
      ],
      "name": "balanceOf",
      "outputs": [
        {
          "internalType": "uint256",
          "name": "",
          "type": "uint256"
        }
      ],
      "stateMutability": "view",
      "type": "function"
    },
    {
      "inputs": [],
      "name": "decimals",
      "outputs": [
        {
          "internalType": "uint8",
          "name": "",
          "type": "uint8"
        }
      ],
      "stateMutability": "view",
      "type": "function"
    },
    {
      "inputs": [
        {
          "internalType": "address",
          "name": "spender",
          "type": "address"
        },
        {
          "internalType": "uint256",
          "name": "subtractedValue",
          "type": "uint256"
        }
      ],
      "name": "decreaseAllowance",
      "outputs": [
        {
          "internalType": "bool",
          "name": "",
          "type": "bool"
        }
      ],
      "stateMutability": "nonpayable",
      "type": "function"
    },
    {
      "inputs": [],
      "name": "feeModule",
      "outputs": [
        {
          "internalType": "contract IFeeModule",
          "name": "",
          "type": "address"
        }
      ],
      "stateMutability": "view",
      "type": "function"
    },
    {
      "inputs": [
        {
          "internalType": "address[]",
          "name": "portfolioTokens",
          "type": "address[]"
        },
        {
          "internalType": "address",
          "name": "_vault",
          "type": "address"
        }
      ],
      "name": "getTokenBalancesOf",
      "outputs": [
        {
          "internalType": "uint256[]",
          "name": "vaultBalances",
          "type": "uint256[]"
        }
      ],
      "stateMutability": "view",
      "type": "function"
    },
    {
      "inputs": [],
      "name": "getTokens",
      "outputs": [
        {
          "internalType": "address[]",
          "name": "",
          "type": "address[]"
        }
      ],
      "stateMutability": "view",
      "type": "function"
    },
    {
      "inputs": [
        {
          "internalType": "contract IPriceOracle",
          "name": "_oracle",
          "type": "address"
        },
        {
          "internalType": "address[]",
          "name": "_tokens",
          "type": "address[]"
        },
        {
          "internalType": "uint256",
          "name": "_totalSupply",
          "type": "uint256"
        },
        {
          "internalType": "address",
          "name": "_vault",
          "type": "address"
        }
      ],
      "name": "getVaultValueInUSD",
      "outputs": [
        {
          "internalType": "uint256",
          "name": "vaultValue",
          "type": "uint256"
        }
      ],
      "stateMutability": "view",
      "type": "function"
    },
    {
      "inputs": [
        {
          "internalType": "address",
          "name": "spender",
          "type": "address"
        },
        {
          "internalType": "uint256",
          "name": "addedValue",
          "type": "uint256"
        }
      ],
      "name": "increaseAllowance",
      "outputs": [
        {
          "internalType": "bool",
          "name": "",
          "type": "bool"
        }
      ],
      "stateMutability": "nonpayable",
      "type": "function"
    },
    {
      "inputs": [
        {
          "components": [
            {
              "internalType": "string",
              "name": "_name",
              "type": "string"
            },
            {
              "internalType": "string",
              "name": "_symbol",
              "type": "string"
            },
            {
              "internalType": "address",
              "name": "_vault",
              "type": "address"
            },
            {
              "internalType": "address",
              "name": "_module",
              "type": "address"
            },
            {
              "internalType": "address",
              "name": "_tokenExclusionManager",
              "type": "address"
            },
            {
              "internalType": "address",
              "name": "_accessController",
              "type": "address"
            },
            {
              "internalType": "address",
              "name": "_protocolConfig",
              "type": "address"
            },
            {
              "internalType": "address",
              "name": "_assetManagementConfig",
              "type": "address"
            },
            {
              "internalType": "address",
              "name": "_feeModule",
              "type": "address"
            }
          ],
          "internalType": "struct FunctionParameters.PortfolioInitData",
          "name": "initData",
          "type": "tuple"
        }
      ],
      "name": "init",
      "outputs": [],
      "stateMutability": "nonpayable",
      "type": "function"
    },
    {
      "inputs": [
        {
          "internalType": "address[]",
          "name": "_tokens",
          "type": "address[]"
        }
      ],
      "name": "initToken",
      "outputs": [],
      "stateMutability": "nonpayable",
      "type": "function"
    },
    {
      "inputs": [
        {
          "internalType": "address",
          "name": "_to",
          "type": "address"
        },
        {
          "internalType": "uint256",
          "name": "_amount",
          "type": "uint256"
        }
      ],
      "name": "mintShares",
      "outputs": [],
      "stateMutability": "nonpayable",
      "type": "function"
    },
    {
      "inputs": [
        {
          "internalType": "uint256[]",
          "name": "depositAmounts",
          "type": "uint256[]"
        },
        {
          "internalType": "uint256",
          "name": "_minMintAmount",
          "type": "uint256"
        },
        {
          "components": [
            {
              "components": [
                {
                  "internalType": "address",
                  "name": "token",
                  "type": "address"
                },
                {
                  "internalType": "uint160",
                  "name": "amount",
                  "type": "uint160"
                },
                {
                  "internalType": "uint48",
                  "name": "expiration",
                  "type": "uint48"
                },
                {
                  "internalType": "uint48",
                  "name": "nonce",
                  "type": "uint48"
                }
              ],
              "internalType": "struct IAllowanceTransfer.PermitDetails[]",
              "name": "details",
              "type": "tuple[]"
            },
            {
              "internalType": "address",
              "name": "spender",
              "type": "address"
            },
            {
              "internalType": "uint256",
              "name": "sigDeadline",
              "type": "uint256"
            }
          ],
          "internalType": "struct IAllowanceTransfer.PermitBatch",
          "name": "_permit",
          "type": "tuple"
        },
        {
          "internalType": "bytes",
          "name": "_signature",
          "type": "bytes"
        }
      ],
      "name": "multiTokenDeposit",
      "outputs": [],
      "stateMutability": "nonpayable",
      "type": "function"
    },
    {
      "inputs": [
        {
          "internalType": "address",
          "name": "_depositor",
          "type": "address"
        },
        {
          "internalType": "address",
          "name": "_depositFor",
          "type": "address"
        },
        {
          "internalType": "uint256[]",
          "name": "depositAmounts",
          "type": "uint256[]"
        },
        {
          "internalType": "uint256",
          "name": "_minMintAmount",
          "type": "uint256"
        },
        {
          "components": [
            {
              "components": [
                {
                  "internalType": "address",
                  "name": "token",
                  "type": "address"
                },
                {
                  "internalType": "uint160",
                  "name": "amount",
                  "type": "uint160"
                },
                {
                  "internalType": "uint48",
                  "name": "expiration",
                  "type": "uint48"
                },
                {
                  "internalType": "uint48",
                  "name": "nonce",
                  "type": "uint48"
                }
              ],
              "internalType": "struct IAllowanceTransfer.PermitDetails[]",
              "name": "details",
              "type": "tuple[]"
            },
            {
              "internalType": "address",
              "name": "spender",
              "type": "address"
            },
            {
              "internalType": "uint256",
              "name": "sigDeadline",
              "type": "uint256"
            }
          ],
          "internalType": "struct IAllowanceTransfer.PermitBatch",
          "name": "_permit",
          "type": "tuple"
        },
        {
          "internalType": "bytes",
          "name": "_signature",
          "type": "bytes"
        }
      ],
      "name": "multiTokenDepositFor",
      "outputs": [],
      "stateMutability": "nonpayable",
      "type": "function"
    },
    {
      "inputs": [
        {
          "internalType": "uint256",
          "name": "_portfolioTokenAmount",
          "type": "uint256"
        }
      ],
      "name": "multiTokenWithdrawal",
      "outputs": [],
      "stateMutability": "nonpayable",
      "type": "function"
    },
    {
      "inputs": [],
      "name": "name",
      "outputs": [
        {
          "internalType": "string",
          "name": "",
          "type": "string"
        }
      ],
      "stateMutability": "view",
      "type": "function"
    },
    {
      "inputs": [],
      "name": "owner",
      "outputs": [
        {
          "internalType": "address",
          "name": "",
          "type": "address"
        }
      ],
      "stateMutability": "view",
      "type": "function"
    },
    {
      "inputs": [],
      "name": "permit2",
      "outputs": [
        {
          "internalType": "contract IAllowanceTransfer",
          "name": "",
          "type": "address"
        }
      ],
      "stateMutability": "view",
      "type": "function"
    },
    {
      "inputs": [],
      "name": "protocolConfig",
      "outputs": [
        {
          "internalType": "contract IProtocolConfig",
          "name": "",
          "type": "address"
        }
      ],
      "stateMutability": "view",
      "type": "function"
    },
    {
      "inputs": [],
      "name": "proxiableUUID",
      "outputs": [
        {
          "internalType": "bytes32",
          "name": "",
          "type": "bytes32"
        }
      ],
      "stateMutability": "view",
      "type": "function"
    },
    {
      "inputs": [
        {
          "internalType": "address",
          "name": "_token",
          "type": "address"
        },
        {
          "internalType": "uint256",
          "name": "_amount",
          "type": "uint256"
        },
        {
          "internalType": "address",
          "name": "_to",
          "type": "address"
        }
      ],
      "name": "pullFromVault",
      "outputs": [],
      "stateMutability": "nonpayable",
      "type": "function"
    },
    {
      "inputs": [],
      "name": "renounceOwnership",
      "outputs": [],
      "stateMutability": "nonpayable",
      "type": "function"
    },
    {
      "inputs": [],
      "name": "safeModule",
      "outputs": [
        {
          "internalType": "address",
          "name": "",
          "type": "address"
        }
      ],
      "stateMutability": "view",
      "type": "function"
    },
    {
      "inputs": [],
      "name": "symbol",
      "outputs": [
        {
          "internalType": "string",
          "name": "",
          "type": "string"
        }
      ],
      "stateMutability": "view",
      "type": "function"
    },
    {
      "inputs": [],
      "name": "tokenExclusionManager",
      "outputs": [
        {
          "internalType": "contract ITokenExclusionManager",
          "name": "",
          "type": "address"
        }
      ],
      "stateMutability": "view",
      "type": "function"
    },
    {
      "inputs": [],
      "name": "totalSupply",
      "outputs": [
        {
          "internalType": "uint256",
          "name": "",
          "type": "uint256"
        }
      ],
      "stateMutability": "view",
      "type": "function"
    },
    {
      "inputs": [
        {
          "internalType": "address",
          "name": "to",
          "type": "address"
        },
        {
          "internalType": "uint256",
          "name": "amount",
          "type": "uint256"
        }
      ],
      "name": "transfer",
      "outputs": [
        {
          "internalType": "bool",
          "name": "",
          "type": "bool"
        }
      ],
      "stateMutability": "nonpayable",
      "type": "function"
    },
    {
      "inputs": [
        {
          "internalType": "address",
          "name": "from",
          "type": "address"
        },
        {
          "internalType": "address",
          "name": "to",
          "type": "address"
        },
        {
          "internalType": "uint256",
          "name": "amount",
          "type": "uint256"
        }
      ],
      "name": "transferFrom",
      "outputs": [
        {
          "internalType": "bool",
          "name": "",
          "type": "bool"
        }
      ],
      "stateMutability": "nonpayable",
      "type": "function"
    },
    {
      "inputs": [
        {
          "internalType": "address",
          "name": "newOwner",
          "type": "address"
        }
      ],
      "name": "transferOwnership",
      "outputs": [],
      "stateMutability": "nonpayable",
      "type": "function"
    },
    {
      "inputs": [
        {
          "internalType": "address[]",
          "name": "_tokens",
          "type": "address[]"
        }
      ],
      "name": "updateTokenList",
      "outputs": [],
      "stateMutability": "nonpayable",
      "type": "function"
    },
    {
      "inputs": [
        {
          "internalType": "address",
          "name": "newImplementation",
          "type": "address"
        }
      ],
      "name": "upgradeTo",
      "outputs": [],
      "stateMutability": "nonpayable",
      "type": "function"
    },
    {
      "inputs": [
        {
          "internalType": "address",
          "name": "newImplementation",
          "type": "address"
        },
        {
          "internalType": "bytes",
          "name": "data",
          "type": "bytes"
        }
      ],
      "name": "upgradeToAndCall",
      "outputs": [],
      "stateMutability": "payable",
      "type": "function"
    },
    {
      "inputs": [
        {
          "internalType": "address",
          "name": "",
          "type": "address"
        }
      ],
      "name": "userCooldownPeriod",
      "outputs": [
        {
          "internalType": "uint256",
          "name": "",
          "type": "uint256"
        }
      ],
      "stateMutability": "view",
      "type": "function"
    },
    {
      "inputs": [
        {
          "internalType": "address",
          "name": "",
          "type": "address"
        }
      ],
      "name": "userLastDepositTime",
      "outputs": [
        {
          "internalType": "uint256",
          "name": "",
          "type": "uint256"
        }
      ],
      "stateMutability": "view",
      "type": "function"
    },
    {
      "inputs": [],
      "name": "vault",
      "outputs": [
        {
          "internalType": "address",
          "name": "",
          "type": "address"
        }
      ],
      "stateMutability": "view",
      "type": "function"
    }
  ],
  "bytecode": "0x60c0604052306080526e22d473030f116ddee9f6b43ac78ba360a0523480156200002857600080fd5b506200003362000039565b620000fa565b600054610100900460ff1615620000a65760405162461bcd60e51b815260206004820152602760248201527f496e697469616c697a61626c653a20636f6e747261637420697320696e697469604482015266616c697a696e6760c81b606482015260840160405180910390fd5b60005460ff90811614620000f8576000805460ff191660ff9081179091556040519081527f7f26b83ff96e1f2b6a682f133852f6798a09c465da95921460cefb38474024989060200160405180910390a15b565b60805160a051614b6d6200014a600039600081816102fa01528181611fa501526139af015260008181610c3b01528181610c8401528181610f2101528181610f6101526110450152614b6d6000f3fe6080604052600436106102465760003560e01c8063665714a911610139578063bae41cbf116100b6578063d37aad481161007a578063d37aad481461071a578063dd62ed3e1461073a578063f2fde38b1461075a578063f35524f51461077a578063f5efbb4f14610791578063fbfa77cf146107b057600080fd5b8063bae41cbf1461066d578063bc43cbaf1461068c578063c147af51146106ac578063c88c82a5146106cc578063ca5fafdd146106f957600080fd5b806393005a5a116100fd57806393005a5a146105c957806395d89b41146105f6578063a457c2d71461060b578063a9059cbb1461062b578063aa6ca8081461064b57600080fd5b8063665714a91461051357806370a0823114610540578063715018a614610576578063859a21de1461058b5780638da5cb5b146105ab57600080fd5b8063313ce567116101c757806345b12b651161018b57806345b12b651461046f5780634631f6671461049d5780634f1ef286146104cb578063528c198a146104de57806352d1902d146104fe57600080fd5b8063313ce567146103d35780633659cfe6146103ef5780633887938c1461040f578063395093511461042f5780633d91c7e91461044f57600080fd5b806318160ddd1161020e57806318160ddd14610334578063191eb90e1461035357806323b872dd14610373578063264e303c146103935780632e8a3649146103b257600080fd5b80630473d2bb1461024b57806305414b411461026d57806306fdde031461028d578063095ea7b3146102b857806312261ee7146102e8575b600080fd5b34801561025757600080fd5b5061026b610266366004613e75565b6107d1565b005b34801561027957600080fd5b5061026b610288366004613f32565b610947565b34801561029957600080fd5b506102a2610972565b6040516102af919061401f565b60405180910390f35b3480156102c457600080fd5b506102d86102d3366004614057565b610a04565b60405190151581526020016102af565b3480156102f457600080fd5b5061031c7f000000000000000000000000000000000000000000000000000000000000000081565b6040516001600160a01b0390911681526020016102af565b34801561034057600080fd5b5060cb545b6040519081526020016102af565b34801561035f57600080fd5b5061034561036e366004614151565b610a1e565b34801561037f57600080fd5b506102d861038e3660046141bc565b610c0b565b34801561039f57600080fd5b5061019c546001600160a01b031661031c565b3480156103be57600080fd5b506101025461031c906001600160a01b031681565b3480156103df57600080fd5b50604051601281526020016102af565b3480156103fb57600080fd5b5061026b61040a3660046141fd565b610c31565b34801561041b57600080fd5b5061026b61042a36600461421a565b610d16565b34801561043b57600080fd5b506102d861044a366004614057565b610d43565b34801561045b57600080fd5b5061026b61046a3660046142dc565b610d65565b34801561047b57600080fd5b5061034561048a3660046141fd565b6101366020526000908152604090205481565b3480156104a957600080fd5b506103456104b83660046141fd565b6101376020526000908152604090205481565b61026b6104d9366004614344565b610f17565b3480156104ea57600080fd5b5061026b6104f9366004614057565b610fe7565b34801561050a57600080fd5b50610345611038565b34801561051f57600080fd5b5061034561052e3660046141fd565b60fc6020526000908152604090205481565b34801561054c57600080fd5b5061034561055b3660046141fd565b6001600160a01b0316600090815260c9602052604090205490565b34801561058257600080fd5b5061026b6110eb565b34801561059757600080fd5b5061026b6105a63660046142dc565b6110ff565b3480156105b757600080fd5b506033546001600160a01b031661031c565b3480156105d557600080fd5b506105e96105e43660046143d6565b61132f565b6040516102af9190614427565b34801561060257600080fd5b506102a26113dd565b34801561061757600080fd5b506102d8610626366004614057565b6113ec565b34801561063757600080fd5b506102d8610646366004614057565b611472565b34801561065757600080fd5b50610660611480565b6040516102af919061446b565b34801561067957600080fd5b5061019e546001600160a01b031661031c565b34801561069857600080fd5b5060fb5461031c906001600160a01b031681565b3480156106b857600080fd5b5061026b6106c73660046144ac565b6114e2565b3480156106d857600080fd5b506103456106e73660046141fd565b60fd6020526000908152604090205481565b34801561070557600080fd5b506101385461031c906001600160a01b031681565b34801561072657600080fd5b5061026b6107353660046144e7565b611759565b34801561074657600080fd5b50610345610755366004614529565b6117b0565b34801561076657600080fd5b5061026b6107753660046141fd565b6117db565b34801561078657600080fd5b506103456101035481565b34801561079d57600080fd5b5061019d546001600160a01b031661031c565b3480156107bc57600080fd5b506101015461031c906001600160a01b031681565b6107d9611851565b600061010080548060200260200160405190810160405280929190818152602001828054801561083257602002820191906000526020600020905b81546001600160a01b03168152600190910190602001808311610814575b50505050509050606060008251905061084e33308684866118ac565b61085733611a9b565b61086033611b08565b600061086b60cb5490565b90506108773386611c74565b945060005b828110156108fd57600085828151811061089857610898614557565b6020026020010151905060006108c48261010160009054906101000a90046001600160a01b0316611d94565b9050836108d18983614583565b6108db919061459a565b90506108e8828233611e3b565b505080806108f5906145bc565b91505061087c565b50604051858152309033907fcbcdbdf10631a43cc99c80acace8232649421c3f4f73919f16013d47c83a687a9060200160405180910390a350505050610944600161016a55565b50565b61094f611851565b61095f3333888888888888611f3e565b61096a600161016a55565b505050505050565b606060cc8054610981906145d5565b80601f01602080910402602001604051908101604052809291908181526020018280546109ad906145d5565b80156109fa5780601f106109cf576101008083540402835291602001916109fa565b820191906000526020600020905b8154815290600101906020018083116109dd57829003601f168201915b5050505050905090565b600033610a12818585612182565b60019150505b92915050565b600082600003610a3057506000610c03565b8351600090815b81811015610bff576000878281518110610a5357610a53614557565b60200260200101519050610a7061019d546001600160a01b031690565b60405163748538d960e01b81526001600160a01b038381166004830152919091169063748538d990602401602060405180830381865afa158015610ab8573d6000803e3d6000fd5b505050506040513d601f19601f82011682018060405250810190610adc9190614619565b610af957604051631fcf8c4760e11b815260040160405180910390fd5b6040516370a0823160e01b81526001600160a01b038781166004830152808b169163cf644e1e918491908216906370a0823190602401602060405180830381865afa158015610b4c573d6000803e3d6000fd5b505050506040513d601f19601f82011682018060405250810190610b709190614634565b6040516001600160e01b031960e085901b1681526001600160a01b0390921660048301526024820152604401602060405180830381865afa158015610bb9573d6000803e3d6000fd5b505050506040513d601f19601f82011682018060405250810190610bdd9190614634565b9350610be9848661464d565b9450508080610bf7906145bc565b915050610a37565b5050505b949350505050565b600033610c198582856122a6565b610c24858585612320565b60019150505b9392505050565b6001600160a01b037f0000000000000000000000000000000000000000000000000000000000000000163003610c825760405162461bcd60e51b8152600401610c7990614660565b60405180910390fd5b7f00000000000000000000000000000000000000000000000000000000000000006001600160a01b0316610ccb600080516020614af1833981519152546001600160a01b031690565b6001600160a01b031614610cf15760405162461bcd60e51b8152600401610c79906146ac565b610cfa816124dc565b60408051600080825260208201909252610944918391906124e4565b610d1e611851565b610d2e8888888888888888611f3e565b610d39600161016a55565b5050505050505050565b600033610a12818585610d5683836117b0565b610d60919061464d565b612182565b610d8f7f8e73530dd444215065cdf478f826e993aeb5e2798587f0bbf5a978bd97df63ea3361264f565b610dac57604051631fcf4cd160e21b815260040160405180910390fd5b6000610dc161019d546001600160a01b031690565b6001600160a01b03166322da98e76040518163ffffffff1660e01b8152600401602060405180830381865afa158015610dfe573d6000803e3d6000fd5b505050506040513d601f19601f82011682018060405250810190610e229190614634565b90508181811115610e4957604051632870818760e21b815260048101839052602401610c79565b60005b81811015610ef8576000858583818110610e6857610e68614557565b9050602002016020810190610e7d91906141fd565b9050610e88816126c5565b6001600160a01b0381166000908152610104602052604090205460ff1615610ec357604051638c56fc5160e01b815260040160405180910390fd5b6001600160a01b0316600090815261010460205260409020805460ff1916600117905580610ef0816145bc565b915050610e4c565b50610f0384846127fe565b610f106101008585613dfd565b5050505050565b6001600160a01b037f0000000000000000000000000000000000000000000000000000000000000000163003610f5f5760405162461bcd60e51b8152600401610c7990614660565b7f00000000000000000000000000000000000000000000000000000000000000006001600160a01b0316610fa8600080516020614af1833981519152546001600160a01b031690565b6001600160a01b031614610fce5760405162461bcd60e51b8152600401610c79906146ac565b610fd7826124dc565b610fe3828260016124e4565b5050565b6110117f9f2df0fed2c77648de5860a4cc508cd0818c85b8b8a1ab4ceeef8d981c8956a63361264f565b61102e5760405163fbfe535960e01b815260040160405180910390fd5b610fe38282612872565b6000306001600160a01b037f000000000000000000000000000000000000000000000000000000000000000016146110d85760405162461bcd60e51b815260206004820152603860248201527f555550535570677261646561626c653a206d757374206e6f742062652063616c60448201527f6c6564207468726f7567682064656c656761746563616c6c00000000000000006064820152608401610c79565b50600080516020614af183398151915290565b6110f3612947565b6110fd60006129a1565b565b6111297fd980155b32cf66e6af51e0972d64b9d5efe0e6f237dfaa4bdc83f990dd79e9c83361264f565b6111455760405162469b1b60e21b815260040160405180910390fd5b600061115a61019d546001600160a01b031690565b6001600160a01b03166322da98e76040518163ffffffff1660e01b8152600401602060405180830381865afa158015611197573d6000803e3d6000fd5b505050506040513d601f19601f820116820180604052508101906111bb9190614634565b905081818111156111e257604051632870818760e21b815260048101839052602401610c79565b61010054156112035760405162dc149f60e41b815260040160405180910390fd5b60005b818110156112f557600085858381811061122257611222614557565b905060200201602081019061123791906141fd565b9050611242816126c5565b6001600160a01b0381166000908152610104602052604090205460ff161561127d57604051638c56fc5160e01b815260040160405180910390fd5b6001600160a01b0316600081815261010460205260408120805460ff19166001908117909155610100805491820181559091527f45e010b9ae401e2eb71529478da8bd513a9bdc2d095a111e324f5b95c09ed87b0180546001600160a01b0319169091179055806112ed816145bc565b915050611206565b5061130084846127fe565b6040517ff0736500ddf7d6282ef1e9e6fc7d6cdf233f579d40df0dfc1c87e9b356c16afc90600090a150505050565b8151606090806001600160401b0381111561134c5761134c614083565b604051908082528060200260200182016040528015611375578160200160208202803683370190505b50915060005b818110156113d5576113a685828151811061139857611398614557565b602002602001015185611d94565b8382815181106113b8576113b8614557565b6020908102919091010152806113cd816145bc565b91505061137b565b505092915050565b606060cd8054610981906145d5565b600033816113fa82866117b0565b90508381101561145a5760405162461bcd60e51b815260206004820152602560248201527f45524332303a2064656372656173656420616c6c6f77616e63652062656c6f77604482015264207a65726f60d81b6064820152608401610c79565b6114678286868403612182565b506001949350505050565b600033610a12818585612320565b60606101008054806020026020016040519081016040528092919081815260200182805480156109fa57602002820191906000526020600020905b81546001600160a01b031681526001909101906020018083116114bb575050505050905090565b600054610100900460ff16158080156115025750600054600160ff909116105b8061151c5750303b15801561151c575060005460ff166001145b61157f5760405162461bcd60e51b815260206004820152602e60248201527f496e697469616c697a61626c653a20636f6e747261637420697320616c72656160448201526d191e481a5b9a5d1a585b1a5e995960921b6064820152608401610c79565b6000805460ff1916600117905580156115a2576000805461ff0019166101001790555b6115aa6129f3565b6115b2612a22565b6116056115c560608401604085016141fd565b6115d560808501606086016141fd565b61010180546001600160a01b039384166001600160a01b0319918216179091556101028054929093169116179055565b61162461161283806146f8565b61161f60208601866146f8565b612a49565b61162c612abc565b61164461163f60c0840160a085016141fd565b612ac4565b61167a61165760a08401608085016141fd565b61013880546001600160a01b0319166001600160a01b0392909216919091179055565b61168b610100830160e084016141fd565b61019c80546001600160a01b0319166001600160a01b03929092169190911790556116bc60e0830160c084016141fd565b61019d80546001600160a01b0319166001600160a01b03929092169190911790556116ef610120830161010084016141fd565b61019e80546001600160a01b0319166001600160a01b03929092169190911790558015610fe3576000805461ff0019169055604051600181527f7f26b83ff96e1f2b6a682f133852f6798a09c465da95921460cefb38474024989060200160405180910390a15050565b6117837f8e73530dd444215065cdf478f826e993aeb5e2798587f0bbf5a978bd97df63ea3361264f565b6117a057604051631fcf4cd160e21b815260040160405180910390fd5b6117ab838383611e3b565b505050565b6001600160a01b03918216600090815260ca6020908152604080832093909416825291909152205490565b6117e3612947565b6001600160a01b0381166118485760405162461bcd60e51b815260206004820152602660248201527f4f776e61626c653a206e6577206f776e657220697320746865207a65726f206160448201526564647265737360d01b6064820152608401610c79565b610944816129a1565b600261016a54036118a45760405162461bcd60e51b815260206004820152601f60248201527f5265656e7472616e637947756172643a207265656e7472616e742063616c6c006044820152606401610c79565b600261016a55565b61019d546001600160a01b03166001600160a01b03166320e460316040518163ffffffff1660e01b8152600401602060405180830381865afa1580156118f6573d6000803e3d6000fd5b505050506040513d601f19601f8201168201806040525081019061191a9190614619565b1561193857604051632bc2c01360e21b815260040160405180910390fd5b6040516370a0823160e01b81526001600160a01b038681166004830152600091908616906370a0823190602401602060405180830381865afa158015611982573d6000803e3d6000fd5b505050506040513d601f19601f820116820180604052508101906119a69190614634565b9050808411156119c95760405163f467df5760e01b815260040160405180910390fd5b60006119d5858361473e565b90508015801590611a52575061019d546001600160a01b03166001600160a01b03166317db494b6040518163ffffffff1660e01b8152600401602060405180830381865afa158015611a2b573d6000803e3d6000fd5b505050506040513d601f19601f82011682018060405250810190611a4f9190614634565b81105b15611a7057604051632678c87760e01b815260040160405180910390fd5b8383511115611a92576040516334a9986560e01b815260040160405180910390fd5b50505050505050565b6001600160a01b038116600090815260fd602090815260408083205460fc909252822054611ac9919061464d565b9050600042821115611ae457611adf428361473e565b611ae7565b60005b905080156117ab5760405163036a87d960e21b815260040160405180910390fd5b61019c546001600160a01b03166001600160a01b0316637a6d4b596040518163ffffffff1660e01b81526004016020604051808303816000875af1158015611b54573d6000803e3d6000fd5b505050506040513d601f19601f82011682018060405250810190611b789190614751565b6001600160a01b0316816001600160a01b03161480611c15575061019d546001600160a01b03166001600160a01b0316633d8a66a86040518163ffffffff1660e01b8152600401602060405180830381865afa158015611bdc573d6000803e3d6000fd5b505050506040513d601f19601f82011682018060405250810190611c009190614751565b6001600160a01b0316816001600160a01b0316145b6109445761019e546001600160a01b03166001600160a01b031663c23af23c6040518163ffffffff1660e01b8152600401600060405180830381600087803b158015611c6057600080fd5b505af1158015610f10573d6000803e3d6000fd5b600080611c8a61019c546001600160a01b031690565b6001600160a01b0316636284ae416040518163ffffffff1660e01b8152600401602060405180830381865afa158015611cc7573d6000803e3d6000fd5b505050506040513d601f19601f82011682018060405250810190611ceb9190614634565b9050829150611cfa8185612b34565b15611d835761019e546001600160a01b0316604051632ec1d28b60e11b815260048101859052602481018390526001600160a01b039190911690635d83a516906044016020604051808303816000875af1158015611d5c573d6000803e3d6000fd5b505050506040513d601f19601f82011682018060405250810190611d809190614634565b91505b611d8d8484612c55565b5092915050565b60006001600160a01b0383161580611db357506001600160a01b038216155b15611dd15760405163e6c4247b60e01b815260040160405180910390fd5b6040516370a0823160e01b81526001600160a01b0383811660048301528416906370a0823190602401602060405180830381865afa158015611e17573d6000803e3d6000fd5b505050506040513d601f19601f82011682018060405250810190610c2a9190614634565b604080516001600160a01b038381166024830152604480830186905283518084039091018152606490920183526020820180516001600160e01b031663a9059cbb60e01b17905261010254925163440420ff60e11b8152919260009291169063880841fe90611eb0908890869060040161476e565b6000604051808303816000875af1158015611ecf573d6000803e3d6000fd5b505050506040513d6000823e601f3d908101601f19168201604052611ef79190810190614792565b915050805160001480611f19575080806020019051810190611f199190614619565b610f10576040516312171d8360e31b815260040160405180910390fd5b600161016a55565b30611f4f60408501602086016141fd565b6001600160a01b031614611f7657604051635461585f60e01b815260040160405180910390fd5b61010054611f85908890612d9c565b611f8e87611b08565b604051632a2d80d160e01b81526001600160a01b037f00000000000000000000000000000000000000000000000000000000000000001690632a2d80d190611fe0908b9087908790879060040161485a565b600060405180830381600087803b158015611ffa57600080fd5b505af115801561200e573d6000803e3d6000fd5b50505050600061201f89888861306d565b9050600061202c60cb5490565b90506000816000036121125761019c546001600160a01b03166001600160a01b031663ef69183e6040518163ffffffff1660e01b8152600401602060405180830381865afa158015612082573d6000803e3d6000fd5b505050506040513d601f19601f820116820180604052508101906120a69190614634565b90506120bb61019e546001600160a01b031690565b6001600160a01b031663acc777326040518163ffffffff1660e01b8152600401600060405180830381600087803b1580156120f557600080fd5b505af1158015612109573d6000803e3d6000fd5b5050505061211f565b61211c83836132f5565b90505b6121298a82613398565b905061213581886135a0565b6040518181526001600160a01b038b169030907f8752a472e571a816aea92eec8dae9baf628e840f4929fbcc2d155e6233ff68a79060200160405180910390a35050505050505050505050565b6001600160a01b0383166121e45760405162461bcd60e51b8152602060048201526024808201527f45524332303a20617070726f76652066726f6d20746865207a65726f206164646044820152637265737360e01b6064820152608401610c79565b6001600160a01b0382166122455760405162461bcd60e51b815260206004820152602260248201527f45524332303a20617070726f766520746f20746865207a65726f206164647265604482015261737360f01b6064820152608401610c79565b6001600160a01b03838116600081815260ca602090815260408083209487168084529482529182902085905590518481527f8c5be1e5ebec7d5bd14f71427d1e84f3dd0314c0f7b2291e5b200ac8c7c3b925910160405180910390a3505050565b60006122b284846117b0565b9050600019811461231a578181101561230d5760405162461bcd60e51b815260206004820152601d60248201527f45524332303a20696e73756666696369656e7420616c6c6f77616e63650000006044820152606401610c79565b61231a8484848403612182565b50505050565b6001600160a01b0383166123845760405162461bcd60e51b815260206004820152602560248201527f45524332303a207472616e736665722066726f6d20746865207a65726f206164604482015264647265737360d81b6064820152608401610c79565b6001600160a01b0382166123e65760405162461bcd60e51b815260206004820152602360248201527f45524332303a207472616e7366657220746f20746865207a65726f206164647260448201526265737360e81b6064820152608401610c79565b6123f18383836135c1565b6001600160a01b038316600090815260c96020526040902054818110156124695760405162461bcd60e51b815260206004820152602660248201527f45524332303a207472616e7366657220616d6f756e7420657863656564732062604482015265616c616e636560d01b6064820152608401610c79565b6001600160a01b03808516600081815260c9602052604080822086860390559286168082529083902080548601905591517fddf252ad1be2c89b69c2b068fc378daa952ba7f163c4a11628f55a4df523b3ef906124c99086815260200190565b60405180910390a361231a848484613776565b610944612947565b7f4910fdfa16fed3260ed0e7147f7cc6da11a60208b5b9406d12a635614ffd91435460ff1615612517576117ab83613823565b826001600160a01b03166352d1902d6040518163ffffffff1660e01b8152600401602060405180830381865afa925050508015612571575060408051601f3d908101601f1916820190925261256e91810190614634565b60015b6125d45760405162461bcd60e51b815260206004820152602e60248201527f45524331393637557067726164653a206e657720696d706c656d656e7461746960448201526d6f6e206973206e6f74205555505360901b6064820152608401610c79565b600080516020614af183398151915281146126435760405162461bcd60e51b815260206004820152602960248201527f45524331393637557067726164653a20756e737570706f727465642070726f786044820152681a58589b195555525160ba1b6064820152608401610c79565b506117ab8383836138bf565b60fb54604051632474521560e21b8152600481018490526001600160a01b03838116602483015260009216906391d1485490604401602060405180830381865afa1580156126a1573d6000803e3d6000fd5b505050506040513d601f19601f82011682018060405250810190610c2a9190614619565b61019c546001600160a01b03166001600160a01b031663e348560b6040518163ffffffff1660e01b81526004016020604051808303816000875af1158015612711573d6000803e3d6000fd5b505050506040513d601f19601f820116820180604052508101906127359190614619565b80156127b9575061019c546001600160a01b0316604051630daf9c2160e41b81526001600160a01b038381166004830152919091169063daf9c210906024016020604051808303816000875af1158015612793573d6000803e3d6000fd5b505050506040513d601f19601f820116820180604052508101906127b79190614619565b155b156127d7576040516307c241ad60e51b815260040160405180910390fd5b6001600160a01b03811661094457604051630f58058360e11b815260040160405180910390fd5b8060005b8181101561231a576000610104600086868581811061282357612823614557565b905060200201602081019061283891906141fd565b6001600160a01b031681526020810191909152604001600020805460ff19169115159190911790558061286a816145bc565b915050612802565b6001600160a01b0382166128c85760405162461bcd60e51b815260206004820152601f60248201527f45524332303a206d696e7420746f20746865207a65726f2061646472657373006044820152606401610c79565b6128d4600083836135c1565b8060cb60008282546128e6919061464d565b90915550506001600160a01b038216600081815260c960209081526040808320805486019055518481527fddf252ad1be2c89b69c2b068fc378daa952ba7f163c4a11628f55a4df523b3ef910160405180910390a3610fe360008383613776565b6033546001600160a01b031633146110fd5760405162461bcd60e51b815260206004820181905260248201527f4f776e61626c653a2063616c6c6572206973206e6f7420746865206f776e65726044820152606401610c79565b603380546001600160a01b038381166001600160a01b0319831681179093556040519116919082907f8be0079c531659141344cd1fd0a4f28419497f9722a3daafe3b4186f6b6457e090600090a35050565b600054610100900460ff16612a1a5760405162461bcd60e51b8152600401610c7990614984565b6110fd6138e4565b600054610100900460ff166110fd5760405162461bcd60e51b8152600401610c7990614984565b61231a84848080601f01602080910402602001604051908101604052809392919081815260200183838082843760009201919091525050604080516020601f8801819004810282018101909252868152925086915085908190840183828082843760009201919091525061391492505050565b6110fd613945565b600054610100900460ff16612aeb5760405162461bcd60e51b8152600401610c7990614984565b6001600160a01b038116612b125760405163e6c4247b60e01b815260040160405180910390fd5b60fb80546001600160a01b0319166001600160a01b0392909216919091179055565b60008083118015610c2a575061019c546001600160a01b03166001600160a01b0316637a6d4b596040518163ffffffff1660e01b81526004016020604051808303816000875af1158015612b8c573d6000803e3d6000fd5b505050506040513d601f19601f82011682018060405250810190612bb09190614751565b6001600160a01b0316826001600160a01b03161480612c4d575061019d546001600160a01b03166001600160a01b0316633d8a66a86040518163ffffffff1660e01b8152600401602060405180830381865afa158015612c14573d6000803e3d6000fd5b505050506040513d601f19601f82011682018060405250810190612c389190614751565b6001600160a01b0316826001600160a01b0316145b159392505050565b6001600160a01b038216612cb55760405162461bcd60e51b815260206004820152602160248201527f45524332303a206275726e2066726f6d20746865207a65726f206164647265736044820152607360f81b6064820152608401610c79565b612cc1826000836135c1565b6001600160a01b038216600090815260c9602052604090205481811015612d355760405162461bcd60e51b815260206004820152602260248201527f45524332303a206275726e20616d6f756e7420657863656564732062616c616e604482015261636560f01b6064820152608401610c79565b6001600160a01b038316600081815260c960209081526040808320868603905560cb80548790039055518581529192917fddf252ad1be2c89b69c2b068fc378daa952ba7f163c4a11628f55a4df523b3ef910160405180910390a36117ab83600084613776565b61019c546001600160a01b03166001600160a01b031663ae96b1016040518163ffffffff1660e01b81526004016020604051808303816000875af1158015612de8573d6000803e3d6000fd5b505050506040513d601f19601f82011682018060405250810190612e0c9190614619565b80612e8d575061019c546001600160a01b0316604051631ec4398960e31b81526001600160a01b038481166004830152919091169063f621cc48906024016020604051808303816000875af1158015612e69573d6000803e3d6000fd5b505050506040513d601f19601f82011682018060405250810190612e8d9190614619565b1580612f19575061019c546001600160a01b03166001600160a01b0316637a6d4b596040518163ffffffff1660e01b81526004016020604051808303816000875af1158015612ee0573d6000803e3d6000fd5b505050506040513d601f19601f82011682018060405250810190612f049190614751565b6001600160a01b0316826001600160a01b0316145b80612fa2575061019d546001600160a01b03166001600160a01b0316633d8a66a86040518163ffffffff1660e01b8152600401602060405180830381865afa158015612f69573d6000803e3d6000fd5b505050506040513d601f19601f82011682018060405250810190612f8d9190614751565b6001600160a01b0316826001600160a01b0316145b15612fc0576040516396bd0ed560e01b815260040160405180910390fd5b61019d546001600160a01b03166001600160a01b031663dac885616040518163ffffffff1660e01b8152600401602060405180830381865afa15801561300a573d6000803e3d6000fd5b505050506040513d601f19601f8201168201806040525081019061302e9190614619565b1561304c57604051632bc2c01360e21b815260040160405180910390fd5b80600003610fe357604051633298b3e360e01b815260040160405180910390fd5b610100805460408051602080840282018101909252828152600093859385938301828280156130c557602002820191906000526020600020905b81546001600160a01b031681526001909101906020018083116130a7575b50505050509050805182146130ed576040516369f9527360e11b815260040160405180910390fd5b610101546000906131089083906001600160a01b031661132f565b905061311360cb5490565b6000036131805760005b83811015613173576131618884838151811061313b5761313b614557565b602002602001015189898581811061315557613155614557565b90506020020135613974565b8061316b816145bc565b91505061311d565b5060009350505050610c2a565b60006131bf8787600081811061319857613198614557565b90506020020135836000815181106131b2576131b2614557565b6020026020010151613a09565b905060015b8481101561321e5760006131fc8989848181106131e3576131e3614557565b905060200201358584815181106131b2576131b2614557565b90506132088184613a49565b9250508080613216906145bc565b9150506131c4565b50600080600019815b878110156132e657600087828151811061324357613243614557565b60200260200101519050670de0b6b3a764000087838151811061326857613268614557565b60200260200101518761327b9190614583565b613285919061459a565b94506132928d8287613974565b610101546132aa9082906001600160a01b0316611d94565b93506132d08783815181106132c1576132c1614557565b60200260200101518585613a5f565b92505080806132de906145bc565b915050613227565b509a9950505050505050505050565b6000806133028484613a8a565b905061331761019c546001600160a01b031690565b6001600160a01b03166317db494b6040518163ffffffff1660e01b8152600401602060405180830381865afa158015613354573d6000803e3d6000fd5b505050506040513d601f19601f820116820180604052508101906133789190614634565b811015610c2a57604051638b78cd9f60e01b815260040160405180910390fd5b6000806133ae61019c546001600160a01b031690565b6001600160a01b031663072ea61c6040518163ffffffff1660e01b8152600401602060405180830381865afa1580156133eb573d6000803e3d6000fd5b505050506040513d601f19601f8201168201806040525081019061340f9190614634565b905061341b8185612b34565b156134a45761019e546001600160a01b0316604051632ec1d28b60e11b815260048101859052602481018390526001600160a01b039190911690635d83a516906044016020604051808303816000875af115801561347d573d6000803e3d6000fd5b505050506040513d601f19601f820116820180604052508101906134a19190614634565b92505b6134ae8484612872565b61356f6134d0856001600160a01b0316600090815260c9602052604090205490565b846134e461019d546001600160a01b031690565b6001600160a01b03166304646a496040518163ffffffff1660e01b8152600401602060405180830381865afa158015613521573d6000803e3d6000fd5b505050506040513d601f19601f820116820180604052508101906135459190614634565b6001600160a01b038816600090815260fd602090815260408083205460fc90925290912054613ad7565b6001600160a01b038516600090815260fd602090815260408083209390935560fc9052204290555081905092915050565b81811115610fe35760405163199f5a0360e31b815260040160405180910390fd5b6001600160a01b03831615806135de57506001600160a01b038216155b156135e857505050565b61019c546001600160a01b03166001600160a01b031663d823c5ce6040518163ffffffff1660e01b81526004016020604051808303816000875af1158015613634573d6000803e3d6000fd5b505050506040513d601f19601f820116820180604052508101906136589190614619565b80613750575061019c546001600160a01b03166001600160a01b03166392ff0d316040518163ffffffff1660e01b81526004016020604051808303816000875af11580156136aa573d6000803e3d6000fd5b505050506040513d601f19601f820116820180604052508101906136ce9190614619565b8015613750575061019c546001600160a01b0316604051631ec4398960e31b81526001600160a01b038481166004830152919091169063f621cc48906024016020604051808303816000875af115801561372c573d6000803e3d6000fd5b505050506040513d601f19601f820116820180604052508101906137509190614619565b61376d5760405163359d0ceb60e01b815260040160405180910390fd5b6117ab83611a9b565b6001600160a01b0383166137ac576117ab826137a7846001600160a01b0316600090815260c9602052604090205490565b613b8e565b6001600160a01b0382166137dd576117ab836137a7856001600160a01b0316600090815260c9602052604090205490565b613800836137a7856001600160a01b0316600090815260c9602052604090205490565b6117ab826137a7846001600160a01b0316600090815260c9602052604090205490565b6001600160a01b0381163b6138905760405162461bcd60e51b815260206004820152602d60248201527f455243313936373a206e657720696d706c656d656e746174696f6e206973206e60448201526c1bdd08184818dbdb9d1c9858dd609a1b6064820152608401610c79565b600080516020614af183398151915280546001600160a01b0319166001600160a01b0392909216919091179055565b6138c883613bf1565b6000825111806138d55750805b156117ab5761231a8383613c31565b600054610100900460ff1661390b5760405162461bcd60e51b8152600401610c7990614984565b6110fd336129a1565b600054610100900460ff1661393b5760405162461bcd60e51b8152600401610c7990614984565b610fe38282613c56565b600054610100900460ff1661396c5760405162461bcd60e51b8152600401610c7990614984565b6110fd613c96565b61010154604051631b63c28b60e11b81526001600160a01b0385811660048301529182166024820152828216604482015283821660648201527f0000000000000000000000000000000000000000000000000000000000000000909116906336c7851690608401600060405180830381600087803b1580156139f557600080fd5b505af1158015611a92573d6000803e3d6000fd5b600081600003613a2c57604051633ba269b760e21b815260040160405180910390fd5b81613a3f670de0b6b3a764000085614583565b610c2a919061459a565b6000818310613a585781610c2a565b5090919050565b600080613a75613a6f868661473e565b85613a09565b9050613a818184613a49565b95945050505050565b600080613a9f84670de0b6b3a764000061473e565b905080600003613ac2576040516323d359a360e01b815260040160405180910390fd5b80613acd8486614583565b610c03919061459a565b600080613ae4848461464d565b90506000613af28242613cbd565b9050868803613b11578615613b075785613b0a565b60005b9250613b83565b861580613b1d57508086105b15613b2a57809250613b83565b6000613b36888a61473e565b9050600089613b458484614583565b613b4f8a8c614583565b613b59919061464d565b613b63919061459a565b9050878111613b7c57613b77816001613cd8565b613b7e565b875b945050505b505095945050505050565b61013854604051634a9e86a560e11b81526001600160a01b038481166004830152602482018490529091169063953d0d4a90604401600060405180830381600087803b158015613bdd57600080fd5b505af115801561096a573d6000803e3d6000fd5b613bfa81613823565b6040516001600160a01b038216907fbc7cd75a20ee27fd9adebab32041f755214dbc6bffa90cc0225b39da2e5c2d3b90600090a250565b6060610c2a8383604051806060016040528060278152602001614b1160279139613ce7565b600054610100900460ff16613c7d5760405162461bcd60e51b8152600401610c7990614984565b60cc613c898382614a15565b5060cd6117ab8282614a15565b600054610100900460ff16611f365760405162461bcd60e51b8152600401610c7990614984565b600081831115613cd05750808203610a18565b506000610a18565b6000818311613a585781610c2a565b6060600080856001600160a01b031685604051613d049190614ad4565b600060405180830381855af49150503d8060008114613d3f576040519150601f19603f3d011682016040523d82523d6000602084013e613d44565b606091505b5091509150613d5586838387613d5f565b9695505050505050565b60608315613dce578251600003613dc7576001600160a01b0385163b613dc75760405162461bcd60e51b815260206004820152601d60248201527f416464726573733a2063616c6c20746f206e6f6e2d636f6e74726163740000006044820152606401610c79565b5081610c03565b610c038383815115613de35781518083602001fd5b8060405162461bcd60e51b8152600401610c79919061401f565b828054828255906000526020600020908101928215613e50579160200282015b82811115613e505781546001600160a01b0319166001600160a01b03843516178255602090920191600190910190613e1d565b50613e5c929150613e60565b5090565b5b80821115613e5c5760008155600101613e61565b600060208284031215613e8757600080fd5b5035919050565b60008083601f840112613ea057600080fd5b5081356001600160401b03811115613eb757600080fd5b6020830191508360208260051b8501011115613ed257600080fd5b9250929050565b600060608284031215613eeb57600080fd5b50919050565b60008083601f840112613f0357600080fd5b5081356001600160401b03811115613f1a57600080fd5b602083019150836020828501011115613ed257600080fd5b60008060008060008060808789031215613f4b57600080fd5b86356001600160401b0380821115613f6257600080fd5b613f6e8a838b01613e8e565b9098509650602089013595506040890135915080821115613f8e57600080fd5b613f9a8a838b01613ed9565b94506060890135915080821115613fb057600080fd5b50613fbd89828a01613ef1565b979a9699509497509295939492505050565b60005b83811015613fea578181015183820152602001613fd2565b50506000910152565b6000815180845261400b816020860160208601613fcf565b601f01601f19169290920160200192915050565b602081526000610c2a6020830184613ff3565b6001600160a01b038116811461094457600080fd5b803561405281614032565b919050565b6000806040838503121561406a57600080fd5b823561407581614032565b946020939093013593505050565b634e487b7160e01b600052604160045260246000fd5b604051601f8201601f191681016001600160401b03811182821017156140c1576140c1614083565b604052919050565b600082601f8301126140da57600080fd5b813560206001600160401b038211156140f5576140f5614083565b8160051b614104828201614099565b928352848101820192828101908785111561411e57600080fd5b83870192505b8483101561414657823561413781614032565b82529183019190830190614124565b979650505050505050565b6000806000806080858703121561416757600080fd5b843561417281614032565b935060208501356001600160401b0381111561418d57600080fd5b614199878288016140c9565b9350506040850135915060608501356141b181614032565b939692955090935050565b6000806000606084860312156141d157600080fd5b83356141dc81614032565b925060208401356141ec81614032565b929592945050506040919091013590565b60006020828403121561420f57600080fd5b8135610c2a81614032565b60008060008060008060008060c0898b03121561423657600080fd5b883561424181614032565b9750602089013561425181614032565b965060408901356001600160401b038082111561426d57600080fd5b6142798c838d01613e8e565b909850965060608b0135955060808b013591508082111561429957600080fd5b6142a58c838d01613ed9565b945060a08b01359150808211156142bb57600080fd5b506142c88b828c01613ef1565b999c989b5096995094979396929594505050565b600080602083850312156142ef57600080fd5b82356001600160401b0381111561430557600080fd5b61431185828601613e8e565b90969095509350505050565b60006001600160401b0382111561433657614336614083565b50601f01601f191660200190565b6000806040838503121561435757600080fd5b823561436281614032565b915060208301356001600160401b0381111561437d57600080fd5b8301601f8101851361438e57600080fd5b80356143a161439c8261431d565b614099565b8181528660208385010111156143b657600080fd5b816020840160208301376000602083830101528093505050509250929050565b600080604083850312156143e957600080fd5b82356001600160401b038111156143ff57600080fd5b61440b858286016140c9565b925050602083013561441c81614032565b809150509250929050565b6020808252825182820181905260009190848201906040850190845b8181101561445f57835183529284019291840191600101614443565b50909695505050505050565b6020808252825182820181905260009190848201906040850190845b8181101561445f5783516001600160a01b031683529284019291840191600101614487565b6000602082840312156144be57600080fd5b81356001600160401b038111156144d457600080fd5b82016101208185031215610c2a57600080fd5b6000806000606084860312156144fc57600080fd5b833561450781614032565b925060208401359150604084013561451e81614032565b809150509250925092565b6000806040838503121561453c57600080fd5b823561454781614032565b9150602083013561441c81614032565b634e487b7160e01b600052603260045260246000fd5b634e487b7160e01b600052601160045260246000fd5b8082028115828204841417610a1857610a1861456d565b6000826145b757634e487b7160e01b600052601260045260246000fd5b500490565b6000600182016145ce576145ce61456d565b5060010190565b600181811c908216806145e957607f821691505b602082108103613eeb57634e487b7160e01b600052602260045260246000fd5b8051801515811461405257600080fd5b60006020828403121561462b57600080fd5b610c2a82614609565b60006020828403121561464657600080fd5b5051919050565b80820180821115610a1857610a1861456d565b6020808252602c908201527f46756e6374696f6e206d7573742062652063616c6c6564207468726f7567682060408201526b19195b1959d85d1958d85b1b60a21b606082015260800190565b6020808252602c908201527f46756e6374696f6e206d7573742062652063616c6c6564207468726f7567682060408201526b6163746976652070726f787960a01b606082015260800190565b6000808335601e1984360301811261470f57600080fd5b8301803591506001600160401b0382111561472957600080fd5b602001915036819003821315613ed257600080fd5b81810381811115610a1857610a1861456d565b60006020828403121561476357600080fd5b8151610c2a81614032565b6001600160a01b0383168152604060208201819052600090610c0390830184613ff3565b600080604083850312156147a557600080fd5b6147ae83614609565b915060208301516001600160401b038111156147c957600080fd5b8301601f810185136147da57600080fd5b80516147e861439c8261431d565b8181528660208385010111156147fd57600080fd5b61480e826020830160208601613fcf565b8093505050509250929050565b803565ffffffffffff8116811461405257600080fd5b81835281816020850137506000828201602090810191909152601f909101601f19169091010190565b6001600160a01b038581168252606060208084018290526000929060c085018835368a9003601e1901811261488e57600080fd5b890182810190356001600160401b038111156148a957600080fd5b8060071b36038213156148bb57600080fd5b878601869052918290529060009060e088015b8183101561493a5783356148e181614032565b86168152838501356148f281614032565b861681860152604061490585820161481b565b65ffffffffffff808216838501528061491f8b890161481b565b16848b015250505060809384019360019390930192016148ce565b614945858d01614047565b6001600160a01b03811660808b0152965060408c013560a08a015288810360408a0152614973818b8d614831565b9d9c50505050505050505050505050565b6020808252602b908201527f496e697469616c697a61626c653a20636f6e7472616374206973206e6f74206960408201526a6e697469616c697a696e6760a81b606082015260800190565b601f8211156117ab57600081815260208120601f850160051c810160208610156149f65750805b601f850160051c820191505b8181101561096a57828155600101614a02565b81516001600160401b03811115614a2e57614a2e614083565b614a4281614a3c84546145d5565b846149cf565b602080601f831160018114614a775760008415614a5f5750858301515b600019600386901b1c1916600185901b17855561096a565b600085815260208120601f198616915b82811015614aa657888601518255948401946001909101908401614a87565b5085821015614ac45787850151600019600388901b60f8161c191681555b5050505050600190811b01905550565b60008251614ae6818460208701613fcf565b919091019291505056fe360894a13ba1a3210667c828492db98dca3e2076cc3735a920a3ca505d382bbc416464726573733a206c6f772d6c6576656c2064656c65676174652063616c6c206661696c6564a2646970667358221220f0cbd5969eb3e6594ad516c18e74399a5313274bfde8ca1bfd0d9cbdcbd587b764736f6c63430008110033",
  "linkReferences": {},
  "deployedLinkReferences": {}
}