{
  "_format": "hh-sol-artifact-1",
  "contractName": "PortfolioCalculations",
  "sourceName": "contracts/front-end-helpers/PortfolioCalculations.sol",
  "abi": [
    {
      "inputs": [],
      "name": "BalanceOfVaultIsZero",
      "type": "error"
    },
    {
      "inputs": [],
      "name": "InvalidId",
      "type": "error"
    },
    {
      "inputs": [],
      "name": "InvalidLength",
      "type": "error"
    },
    {
      "inputs": [],
      "name": "NoTokensRemoved",
      "type": "error"
    },
    {
      "inputs": [],
      "name": "TOTAL_WEIGHT",
      "outputs": [
        {
          "internalType": "uint256",
          "name": "",
          "type": "uint256"
        }
      ],
      "stateMutability": "view",
      "type": "function"
    },
    {
      "inputs": [
        {
          "internalType": "address",
          "name": "_portfolio",
          "type": "address"
        },
        {
          "internalType": "uint256",
          "name": "_userShare",
          "type": "uint256"
        }
      ],
      "name": "getExpectedMintAmount",
      "outputs": [
        {
          "internalType": "uint256",
          "name": "",
          "type": "uint256"
        }
      ],
      "stateMutability": "view",
      "type": "function"
    },
    {
      "inputs": [
        {
          "internalType": "address",
          "name": "_portfolio",
          "type": "address"
        }
      ],
      "name": "getPerformanceFee",
      "outputs": [
        {
          "internalType": "uint256",
          "name": "protocolFee",
          "type": "uint256"
        },
        {
          "internalType": "uint256",
          "name": "assetManagerFee",
          "type": "uint256"
        }
      ],
      "stateMutability": "view",
      "type": "function"
    },
    {
      "inputs": [
        {
          "internalType": "address",
          "name": "_portfolio",
          "type": "address"
        }
      ],
      "name": "getPortfolioData",
      "outputs": [
        {
          "internalType": "uint256[]",
          "name": "tokenAmountArray",
          "type": "uint256[]"
        },
        {
          "internalType": "uint8[]",
          "name": "tokenDecimalArray",
          "type": "uint8[]"
        },
        {
          "internalType": "address[]",
          "name": "indexTokens",
          "type": "address[]"
        },
        {
          "internalType": "uint256",
          "name": "totalSupply",
          "type": "uint256"
        }
      ],
      "stateMutability": "view",
      "type": "function"
    },
    {
      "inputs": [
        {
          "internalType": "address",
          "name": "_portfolio",
          "type": "address"
        }
      ],
      "name": "getPortfolioDataByte",
      "outputs": [
        {
          "internalType": "bytes",
          "name": "",
          "type": "bytes"
        }
      ],
      "stateMutability": "view",
      "type": "function"
    },
    {
      "inputs": [
        {
          "internalType": "address",
          "name": "_portfolio",
          "type": "address"
        }
      ],
      "name": "getProtocolAndManagementFee",
      "outputs": [
        {
          "internalType": "uint256",
          "name": "assetManagerFeeToMint",
          "type": "uint256"
        },
        {
          "internalType": "uint256",
          "name": "protocolFeeToMint",
          "type": "uint256"
        }
      ],
      "stateMutability": "view",
      "type": "function"
    },
    {
      "inputs": [
        {
          "internalType": "address",
          "name": "_portfolio",
          "type": "address"
        }
      ],
      "name": "getTokenBalancesAndDecimals",
      "outputs": [
        {
          "internalType": "uint256[]",
          "name": "",
          "type": "uint256[]"
        },
        {
          "internalType": "uint8[]",
          "name": "",
          "type": "uint8[]"
        }
      ],
      "stateMutability": "view",
      "type": "function"
    },
    {
      "inputs": [
        {
          "internalType": "uint256[]",
          "name": "userAmounts",
          "type": "uint256[]"
        },
        {
          "internalType": "address",
          "name": "_portfolio",
          "type": "address"
        }
      ],
      "name": "getUserAmountToDeposit",
      "outputs": [
        {
          "internalType": "uint256[]",
          "name": "",
          "type": "uint256[]"
        },
        {
          "internalType": "uint256",
          "name": "_desiredShare",
          "type": "uint256"
        }
      ],
      "stateMutability": "view",
      "type": "function"
    },
    {
      "inputs": [
        {
          "internalType": "address",
          "name": "_portfolio",
          "type": "address"
        },
        {
          "internalType": "address",
          "name": "user",
          "type": "address"
        },
        {
          "internalType": "uint256",
          "name": "startId",
          "type": "uint256"
        },
        {
          "internalType": "uint256",
          "name": "endId",
          "type": "uint256"
        }
      ],
      "name": "getUserTokenClaimBalance",
      "outputs": [
        {
          "internalType": "uint256[]",
          "name": "",
          "type": "uint256[]"
        }
      ],
      "stateMutability": "view",
      "type": "function"
    },
    {
      "inputs": [
        {
          "internalType": "uint256",
          "name": "_portfolioTokenAmount",
          "type": "uint256"
        },
        {
          "internalType": "address",
          "name": "_portfolio",
          "type": "address"
        }
      ],
      "name": "getWithdrawalAmounts",
      "outputs": [
        {
          "internalType": "uint256[]",
          "name": "",
          "type": "uint256[]"
        }
      ],
      "stateMutability": "view",
      "type": "function"
    }
  ],
  "bytecode": "0x608060405234801561001057600080fd5b50612810806100206000396000f3fe608060405234801561001057600080fd5b506004361061009e5760003560e01c8063a22a7b3411610066578063a22a7b3414610149578063b275b3b31461016a578063dc85d05a1461018d578063ec052070146101ad578063ed2a2f9d146101c057600080fd5b806329b56220146100a35780632a8aec5e146100cd57806342b632d1146100f55780637fa43d68146101165780639b2eb34d14610136575b600080fd5b6100b66100b13660046121b5565b6101c9565b6040516100c4929190612298565b60405180910390f35b6100e06100db3660046122ba565b61061b565b604080519283526020830191909152016100c4565b6101086101033660046122ba565b6107f6565b6040516100c492919061230a565b61012961012436600461232f565b610b8c565b6040516100c49190612375565b6100e06101443660046122ba565b610f25565b61015c610157366004612388565b6113e1565b6040519081526020016100c4565b61017d6101783660046122ba565b6115ec565b6040516100c494939291906123ed565b6101a061019b3660046122ba565b6116fe565b6040516100c49190612438565b6101296101bb366004612486565b61176e565b61015c61271081565b60606000808390506000816001600160a01b03166393005a5a836001600160a01b031663aa6ca8086040518163ffffffff1660e01b8152600401600060405180830381865afa158015610220573d6000803e3d6000fd5b505050506040513d6000823e601f3d908101601f1916820160405261024891908101906124b6565b846001600160a01b031663fbfa77cf6040518163ffffffff1660e01b8152600401602060405180830381865afa158015610286573d6000803e3d6000fd5b505050506040513d601f19601f820116820180604052508101906102aa9190612545565b6040518363ffffffff1660e01b81526004016102c7929190612562565b600060405180830381865afa1580156102e4573d6000803e3d6000fd5b505050506040513d6000823e601f3d908101601f1916820160405261030c919081019061258c565b805190915060005b818110156103685782818151811061032e5761032e612612565b602002602001015160000361035657604051633ba269b760e21b815260040160405180910390fd5b806103608161263e565b915050610314565b508087511461038a5760405163251f56a160e21b815260040160405180910390fd5b60008167ffffffffffffffff8111156103a5576103a5612122565b6040519080825280602002602001820160405280156103ce578160200160208202803683370190505b5090506000836000815181106103e6576103e6612612565b6020026020010151670de0b6b3a76400008a60008151811061040a5761040a612612565b602002602001015161041c9190612657565b610426919061266e565b90508860008151811061043b5761043b612612565b60200260200101518460008151811061045657610456612612565b60200260200101516104689190612690565b670de0b6b3a76400008a60008151811061048457610484612612565b60200260200101516104969190612657565b6104a0919061266e565b955060015b838110156105985760008582815181106104c1576104c1612612565b6020026020010151670de0b6b3a76400008c84815181106104e4576104e4612612565b60200260200101516104f69190612657565b610500919061266e565b905080831115610585578092508a828151811061051f5761051f612612565b602002602001015186838151811061053957610539612612565b602002602001015161054b9190612690565b670de0b6b3a76400008c848151811061056657610566612612565b60200260200101516105789190612657565b610582919061266e565b97505b50806105908161263e565b9150506104a5565b5060005b8381101561060b57670de0b6b3a7640000828683815181106105c0576105c0612612565b60200260200101516105d29190612657565b6105dc919061266e565b8382815181106105ee576105ee612612565b6020908102919091010152806106038161263e565b91505061059c565b50909550505050505b9250929050565b60008060008390506000816001600160a01b031663bae41cbf6040518163ffffffff1660e01b8152600401602060405180830381865afa158015610663573d6000803e3d6000fd5b505050506040513d601f19601f820116820180604052508101906106879190612545565b90506000826001600160a01b031663264e303c6040518163ffffffff1660e01b8152600401602060405180830381865afa1580156106c9573d6000803e3d6000fd5b505050506040513d601f19601f820116820180604052508101906106ed9190612545565b90506000836001600160a01b031663f5efbb4f6040518163ffffffff1660e01b8152600401602060405180830381865afa15801561072f573d6000803e3d6000fd5b505050506040513d601f19601f820116820180604052508101906107539190612545565b90506000846001600160a01b03166318160ddd6040518163ffffffff1660e01b8152600401602060405180830381865afa158015610795573d6000803e3d6000fd5b505050506040513d601f19601f820116820180604052508101906107b991906126a3565b90506107c783838684611cb3565b9097509550620f42408710156107dc57600096505b620f42408610156107ec57600095505b5050505050915091565b6060806001600160a01b0383166108285760405162461bcd60e51b815260040161081f906126bc565b60405180910390fd5b60008390506000816001600160a01b031663fbfa77cf6040518163ffffffff1660e01b8152600401602060405180830381865afa15801561086d573d6000803e3d6000fd5b505050506040513d601f19601f820116820180604052508101906108919190612545565b90506000826001600160a01b031663aa6ca8086040518163ffffffff1660e01b8152600401600060405180830381865afa1580156108d3573d6000803e3d6000fd5b505050506040513d6000823e601f3d908101601f191682016040526108fb91908101906124b6565b90506000815167ffffffffffffffff81111561091957610919612122565b604051908082528060200260200182016040528015610942578160200160208202803683370190505b5090506000825167ffffffffffffffff81111561096157610961612122565b60405190808252806020026020018201604052801561098a578160200160208202803683370190505b5090506000856001600160a01b03166318160ddd6040518163ffffffff1660e01b8152600401602060405180830381865afa1580156109cd573d6000803e3d6000fd5b505050506040513d601f19601f820116820180604052508101906109f191906126a3565b1115610b685760005b8351811015610b5a57838181518110610a1557610a15612612565b60209081029190910101516040516370a0823160e01b81526001600160a01b038781166004830152909116906370a0823190602401602060405180830381865afa158015610a67573d6000803e3d6000fd5b505050506040513d601f19601f82011682018060405250810190610a8b91906126a3565b838281518110610a9d57610a9d612612565b602002602001018181525050838181518110610abb57610abb612612565b60200260200101516001600160a01b031663313ce5676040518163ffffffff1660e01b8152600401602060405180830381865afa158015610b00573d6000803e3d6000fd5b505050506040513d601f19601f82011682018060405250810190610b2491906126f3565b828281518110610b3657610b36612612565b60ff9092166020928302919091019091015280610b528161263e565b9150506109fa565b509097909650945050505050565b50506040805160008082526020820190815281830190925297909650945050505050565b606060008590506000816001600160a01b031663ca5fafdd6040518163ffffffff1660e01b8152600401602060405180830381865afa158015610bd3573d6000803e3d6000fd5b505050506040513d601f19601f82011682018060405250810190610bf79190612545565b90506000816001600160a01b031663f35524f56040518163ffffffff1660e01b8152600401602060405180830381865afa158015610c39573d6000803e3d6000fd5b505050506040513d601f19601f82011682018060405250810190610c5d91906126a3565b90506002811015610c815760405163042962d360e51b815260040160405180910390fd5b84861180610c8f5750808510155b15610cad57604051631bf4348160e31b815260040160405180910390fd5b6000610cba866001612690565b90506000610cc88883612716565b67ffffffffffffffff811115610ce057610ce0612122565b604051908082528060200260200182016040528015610d09578160200160208202803683370190505b5090506000885b83811015610f1357604051630fffd29d60e11b81526001600160a01b038c81166004830152602482018390526000918291891690631fffa53a906044016040805180830381865afa158015610d69573d6000803e3d6000fd5b505050506040513d601f19601f82011682018060405250810190610d8d9190612729565b91509150818015610d9e5750600081115b15610ed05760008060008a6001600160a01b03166328c0d002876040518263ffffffff1660e01b8152600401610dd691815260200190565b606060405180830381865afa158015610df3573d6000803e3d6000fd5b505050506040513d601f19601f82011682018060405250810190610e17919061275c565b6040516370a0823160e01b81526001600160a01b03808416600483015293965091945092506000918516906370a0823190602401602060405180830381865afa158015610e68573d6000803e3d6000fd5b505050506040513d601f19601f82011682018060405250810190610e8c91906126a3565b9050600082610e9b8784612657565b610ea5919061266e565b9050808a8a81518110610eba57610eba612612565b6020026020010181815250505050505050610ef1565b6000858581518110610ee457610ee4612612565b6020026020010181815250505b83610efb8161263e565b94505050508080610f0b9061263e565b915050610d10565b5090955050505050505b949350505050565b60008060008390506000816001600160a01b031663f5efbb4f6040518163ffffffff1660e01b8152600401602060405180830381865afa158015610f6d573d6000803e3d6000fd5b505050506040513d601f19601f82011682018060405250810190610f919190612545565b90506000826001600160a01b03166318160ddd6040518163ffffffff1660e01b8152600401602060405180830381865afa158015610fd3573d6000803e3d6000fd5b505050506040513d601f19601f82011682018060405250810190610ff791906126a3565b90506000836001600160a01b031663bae41cbf6040518163ffffffff1660e01b8152600401602060405180830381865afa158015611039573d6000803e3d6000fd5b505050506040513d601f19601f8201168201806040525081019061105d9190612545565b90506000846001600160a01b031663264e303c6040518163ffffffff1660e01b8152600401602060405180830381865afa15801561109f573d6000803e3d6000fd5b505050506040513d601f19601f820116820180604052508101906110c39190612545565b90506000856001600160a01b031663191eb90e866001600160a01b0316637dc0d1d06040518163ffffffff1660e01b8152600401602060405180830381865afa158015611114573d6000803e3d6000fd5b505050506040513d601f19601f820116820180604052508101906111389190612545565b886001600160a01b031663aa6ca8086040518163ffffffff1660e01b8152600401600060405180830381865afa158015611176573d6000803e3d6000fd5b505050506040513d6000823e601f3d908101601f1916820160405261119e91908101906124b6565b878a6001600160a01b031663fbfa77cf6040518163ffffffff1660e01b8152600401602060405180830381865afa1580156111dd573d6000803e3d6000fd5b505050506040513d601f19601f820116820180604052508101906112019190612545565b6040518563ffffffff1660e01b8152600401611220949392919061279f565b602060405180830381865afa15801561123d573d6000803e3d6000fd5b505050506040513d601f19601f8201168201806040525081019061126191906126a3565b9050600061126f8286611ec9565b9050600061134282866001600160a01b0316638120b5796040518163ffffffff1660e01b8152600401602060405180830381865afa1580156112b5573d6000803e3d6000fd5b505050506040513d601f19601f820116820180604052508101906112d991906126a3565b8886886001600160a01b031663877887826040518163ffffffff1660e01b8152600401602060405180830381865afa158015611319573d6000803e3d6000fd5b505050506040513d601f19601f8201168201806040525081019061133d91906126a3565b611efd565b90506113af81886001600160a01b031663b0e21e8a6040518163ffffffff1660e01b8152600401602060405180830381865afa158015611386573d6000803e3d6000fd5b505050506040513d601f19601f820116820180604052508101906113aa91906126a3565b611f81565b909a509850620f42408a10156113c457600099505b620f42408910156113d457600098505b5050505050505050915091565b60006001600160a01b0383166114095760405162461bcd60e51b815260040161081f906126bc565b60008211801561141a575061271082105b61145b5760405162461bcd60e51b8152602060048201526012602482015271496e76616c6964207573657220736861726560701b604482015260640161081f565b60008390506000816001600160a01b03166318160ddd6040518163ffffffff1660e01b8152600401602060405180830381865afa1580156114a0573d6000803e3d6000fd5b505050506040513d601f19601f820116820180604052508101906114c491906126a3565b90506000826001600160a01b031663bae41cbf6040518163ffffffff1660e01b8152600401602060405180830381865afa158015611506573d6000803e3d6000fd5b505050506040513d601f19601f8201168201806040525081019061152a9190612545565b90506000611539866001612716565b6115438488612657565b61154d919061266e565b90506000826001600160a01b031663072ea61c6040518163ffffffff1660e01b8152600401602060405180830381865afa15801561158f573d6000803e3d6000fd5b505050506040513d601f19601f820116820180604052508101906115b391906126a3565b905080156115df576127106115c88282612716565b6115d29084612657565b6115dc919061266e565b91505b5093505050505b92915050565b6060808060006001600160a01b0385166116185760405162461bcd60e51b815260040161081f906126bc565b84611622816107f6565b8095508196505050806001600160a01b031663aa6ca8086040518163ffffffff1660e01b8152600401600060405180830381865afa158015611668573d6000803e3d6000fd5b505050506040513d6000823e601f3d908101601f1916820160405261169091908101906124b6565b9250806001600160a01b03166318160ddd6040518163ffffffff1660e01b8152600401602060405180830381865afa1580156116d0573d6000803e3d6000fd5b505050506040513d601f19601f820116820180604052508101906116f491906126a3565b9150509193509193565b60606001600160a01b0382166117265760405162461bcd60e51b815260040161081f906126bc565b600080600080611735866115ec565b93509350935093508383838360405160200161175494939291906123ed565b604051602081830303815290604052945050505050919050565b606060008290506000816001600160a01b031663aa6ca8086040518163ffffffff1660e01b8152600401600060405180830381865afa1580156117b5573d6000803e3d6000fd5b505050506040513d6000823e601f3d908101601f191682016040526117dd91908101906124b6565b90506000815190506000836001600160a01b031663fbfa77cf6040518163ffffffff1660e01b8152600401602060405180830381865afa158015611825573d6000803e3d6000fd5b505050506040513d601f19601f820116820180604052508101906118499190612545565b905060008267ffffffffffffffff81111561186657611866612122565b60405190808252806020026020018201604052801561188f578160200160208202803683370190505b5090506000856001600160a01b031663bae41cbf6040518163ffffffff1660e01b8152600401602060405180830381865afa1580156118d2573d6000803e3d6000fd5b505050506040513d601f19601f820116820180604052508101906118f69190612545565b90506000866001600160a01b031663264e303c6040518163ffffffff1660e01b8152600401602060405180830381865afa158015611938573d6000803e3d6000fd5b505050506040513d601f19601f8201168201806040525081019061195c9190612545565b90506000876001600160a01b031663f5efbb4f6040518163ffffffff1660e01b8152600401602060405180830381865afa15801561199e573d6000803e3d6000fd5b505050506040513d601f19601f820116820180604052508101906119c29190612545565b905060008b90506000896001600160a01b03166318160ddd6040518163ffffffff1660e01b8152600401602060405180830381865afa158015611a09573d6000803e3d6000fd5b505050506040513d601f19601f82011682018060405250810190611a2d91906126a3565b9050600080611a3e86868986611cb3565b91509150611a4d828285611fc3565b925060008490506000876001600160a01b0316636284ae416040518163ffffffff1660e01b8152600401602060405180830381865afa158015611a94573d6000803e3d6000fd5b505050506040513d601f19601f82011682018060405250810190611ab891906126a3565b1115611baa576000611b2b886001600160a01b0316636284ae416040518163ffffffff1660e01b8152600401602060405180830381865afa158015611b01573d6000803e3d6000fd5b505050506040513d601f19601f82011682018060405250810190611b2591906126a3565b87611ffc565b9050600080611b72838a6001600160a01b031663b0e21e8a6040518163ffffffff1660e01b8152600401602060405180830381865afa158015611386573d6000803e3d6000fd5b91509150620f4240821115611b8e57611b8b8285612716565b93505b620f4240811115611ba657611ba38185612716565b93505b5050505b60005b8b811015611c9e5760008d8281518110611bc957611bc9612612565b60209081029190910101516040516370a0823160e01b81526001600160a01b038e811660048301529192506000918316906370a0823190602401602060405180830381865afa158015611c20573d6000803e3d6000fd5b505050506040513d601f19601f82011682018060405250810190611c4491906126a3565b905086611c518583612657565b611c5b919061266e565b905080600003611c6a57600080fd5b808c8481518110611c7d57611c7d612612565b60200260200101818152505050508080611c969061263e565b915050611bad565b50979f9e505050505050505050505050505050565b6000806000866001600160a01b031663a6f7f5d66040518163ffffffff1660e01b8152600401602060405180830381865afa158015611cf6573d6000803e3d6000fd5b505050506040513d601f19601f82011682018060405250810190611d1a91906126a3565b90506000866001600160a01b031663b0e21e8a6040518163ffffffff1660e01b8152600401602060405180830381865afa158015611d5c573d6000803e3d6000fd5b505050506040513d601f19601f82011682018060405250810190611d8091906126a3565b90506000876001600160a01b03166336523bdd6040518163ffffffff1660e01b8152600401602060405180830381865afa158015611dc2573d6000803e3d6000fd5b505050506040513d601f19601f82011682018060405250810190611de691906126a3565b9050611eb9838383898b6001600160a01b031663f6d0a03a6040518163ffffffff1660e01b8152600401602060405180830381865afa158015611e2d573d6000803e3d6000fd5b505050506040513d601f19601f82011682018060405250810190611e5191906126a3565b8c6001600160a01b031663b36af15f6040518163ffffffff1660e01b8152600401602060405180830381865afa158015611e8f573d6000803e3d6000fd5b505050506040513d601f19601f82011682018060405250810190611eb391906126a3565b42612015565b909a909950975050505050505050565b60008115611ef35781611ee4670de0b6b3a764000085612657565b611eee919061266e565b611ef6565b60005b9392505050565b6000848611611f0e57506000611f78565b6000611f1a8688612716565b90506000612710670de0b6b3a764000085611f358986612657565b611f3f9190612657565b611f49919061266e565b611f53919061266e565b9050611f5f8186612716565b611f698783612657565b611f73919061266e565b925050505b95945050505050565b60008083600003611f9757506000905080610614565b612710611fa48486612657565b611fae919061266e565b9150611fba8285612716565b90509250929050565b6000620f4240841115611fdd57611fda8483612690565b91505b620f4240831115611ff557611ff28383612690565b91505b5092915050565b600061271061200b8484612657565b611ef6919061266e565b600080600061202687878c87612063565b9050600061203688878b88612063565b90506000612044838c611f81565b955090506120528282612690565b935050505097509795505050505050565b600081841061207457506000610f1d565b6000612082868686866120ba565b9050600086612099670de0b6b3a764000084612657565b6120a3919061266e565b90506120af8188612104565b979650505050505050565b6000806120c78584612716565b90506127106301e13380826120dc878a612657565b6120e69190612657565b6120f0919061266e565b6120fa919061266e565b9695505050505050565b600061211883670de0b6b3a7640000612716565b61200b8385612657565b634e487b7160e01b600052604160045260246000fd5b604051601f8201601f1916810167ffffffffffffffff8111828210171561216157612161612122565b604052919050565b600067ffffffffffffffff82111561218357612183612122565b5060051b60200190565b6001600160a01b03811681146121a257600080fd5b50565b80356121b08161218d565b919050565b600080604083850312156121c857600080fd5b823567ffffffffffffffff8111156121df57600080fd5b8301601f810185136121f057600080fd5b8035602061220561220083612169565b612138565b82815260059290921b8301810191818101908884111561222457600080fd5b938201935b8385101561224257843582529382019390820190612229565b955061225190508682016121a5565b93505050509250929050565b600081518084526020808501945080840160005b8381101561228d57815187529582019590820190600101612271565b509495945050505050565b6040815260006122ab604083018561225d565b90508260208301529392505050565b6000602082840312156122cc57600080fd5b8135611ef68161218d565b600081518084526020808501945080840160005b8381101561228d57815160ff16875295820195908201906001016122eb565b60408152600061231d604083018561225d565b8281036020840152611f7881856122d7565b6000806000806080858703121561234557600080fd5b84356123508161218d565b935060208501356123608161218d565b93969395505050506040820135916060013590565b602081526000611ef6602083018461225d565b6000806040838503121561239b57600080fd5b82356123a68161218d565b946020939093013593505050565b600081518084526020808501945080840160005b8381101561228d5781516001600160a01b0316875295820195908201906001016123c8565b608081526000612400608083018761225d565b828103602084015261241281876122d7565b9050828103604084015261242681866123b4565b91505082606083015295945050505050565b600060208083528351808285015260005b8181101561246557858101830151858201604001528201612449565b506000604082860101526040601f19601f8301168501019250505092915050565b6000806040838503121561249957600080fd5b8235915060208301356124ab8161218d565b809150509250929050565b600060208083850312156124c957600080fd5b825167ffffffffffffffff8111156124e057600080fd5b8301601f810185136124f157600080fd5b80516124ff61220082612169565b81815260059190911b8201830190838101908783111561251e57600080fd5b928401925b828410156120af5783516125368161218d565b82529284019290840190612523565b60006020828403121561255757600080fd5b8151611ef68161218d565b60408152600061257560408301856123b4565b905060018060a01b03831660208301529392505050565b6000602080838503121561259f57600080fd5b825167ffffffffffffffff8111156125b657600080fd5b8301601f810185136125c757600080fd5b80516125d561220082612169565b81815260059190911b820183019083810190878311156125f457600080fd5b928401925b828410156120af578351825292840192908401906125f9565b634e487b7160e01b600052603260045260246000fd5b634e487b7160e01b600052601160045260246000fd5b60006001820161265057612650612628565b5060010190565b80820281158282048414176115e6576115e6612628565b60008261268b57634e487b7160e01b600052601260045260246000fd5b500490565b808201808211156115e6576115e6612628565b6000602082840312156126b557600080fd5b5051919050565b60208082526019908201527f496e76616c696420706f7274666f6c696f206164647265737300000000000000604082015260600190565b60006020828403121561270557600080fd5b815160ff81168114611ef657600080fd5b818103818111156115e6576115e6612628565b6000806040838503121561273c57600080fd5b8251801515811461274c57600080fd5b6020939093015192949293505050565b60008060006060848603121561277157600080fd5b835161277c8161218d565b602085015190935061278d8161218d565b80925050604084015190509250925092565b600060018060a01b038087168352608060208401526127c160808401876123b4565b604084019590955292909216606090910152509291505056fea26469706673582212202c9fa3ea5ddb254f0d431d0bcb67219430387c9795c7656522c7d8c0fa0af5f264736f6c63430008110033",
  "linkReferences": {},
  "deployedLinkReferences": {}
}