{
  "_format": "hh-sol-artifact-1",
  "contractName": "Portfolio",
  "sourceName": "contracts/core/Portfolio.sol",
  "abi": [
    {
      "inputs": [],
      "stateMutability": "nonpayable",
      "type": "constructor"
    },
    {
      "inputs": [],
      "name": "AlreadyInitialized",
      "type": "error"
    },
    {
      "inputs": [],
      "name": "AmountCannotBeZero",
      "type": "error"
    },
    {
      "inputs": [],
      "name": "BalanceOfVaultIsZero",
      "type": "error"
    },
    {
      "inputs": [],
      "name": "CallerNeedToMaintainMinTokenAmount",
      "type": "error"
    },
    {
      "inputs": [],
      "name": "CallerNotHavingGivenPortfolioTokenAmount",
      "type": "error"
    },
    {
      "inputs": [],
      "name": "CallerNotPortfolioManager",
      "type": "error"
    },
    {
      "inputs": [],
      "name": "CallerNotRebalancerContract",
      "type": "error"
    },
    {
      "inputs": [],
      "name": "CallerNotSuperAdmin",
      "type": "error"
    },
    {
      "inputs": [],
      "name": "ClaimFailed",
      "type": "error"
    },
    {
      "inputs": [],
      "name": "CoolDownPeriodNotPassed",
      "type": "error"
    },
    {
      "inputs": [],
      "name": "DivisionByZero",
      "type": "error"
    },
    {
      "inputs": [],
      "name": "InsufficientAllowance",
      "type": "error"
    },
    {
      "inputs": [],
      "name": "InvalidAddress",
      "type": "error"
    },
    {
      "inputs": [],
      "name": "InvalidCastToUint160",
      "type": "error"
    },
    {
      "inputs": [],
      "name": "InvalidDepositInputLength",
      "type": "error"
    },
    {
      "inputs": [],
      "name": "InvalidExemptionTokens",
      "type": "error"
    },
    {
      "inputs": [],
      "name": "InvalidExemptionTokensLength",
      "type": "error"
    },
    {
      "inputs": [],
      "name": "InvalidMintAmount",
      "type": "error"
    },
    {
      "inputs": [],
      "name": "InvalidSpender",
      "type": "error"
    },
    {
      "inputs": [],
      "name": "InvalidTokenAddress",
      "type": "error"
    },
    {
      "inputs": [],
      "name": "MintedAmountIsNotAccepted",
      "type": "error"
    },
    {
      "inputs": [],
      "name": "PortfolioTokenNotInitialized",
      "type": "error"
    },
    {
      "inputs": [],
      "name": "ProtocolIsPaused",
      "type": "error"
    },
    {
      "inputs": [],
      "name": "TokenAlreadyExist",
      "type": "error"
    },
    {
      "inputs": [
        {
          "internalType": "uint256",
          "name": "limit",
          "type": "uint256"
        }
      ],
      "name": "TokenCountOutOfLimit",
      "type": "error"
    },
    {
      "inputs": [],
      "name": "TokenNotEnabled",
      "type": "error"
    },
    {
      "inputs": [],
      "name": "TokenNotWhitelisted",
      "type": "error"
    },
    {
      "inputs": [],
      "name": "TransferFailed",
      "type": "error"
    },
    {
      "inputs": [],
      "name": "Transferprohibited",
      "type": "error"
    },
    {
      "inputs": [],
      "name": "UserNotAllowedToDeposit",
      "type": "error"
    },
    {
      "inputs": [],
      "name": "WithdrawalAmountIsSmall",
      "type": "error"
    },
    {
      "anonymous": false,
      "inputs": [
        {
          "indexed": false,
          "internalType": "address",
          "name": "previousAdmin",
          "type": "address"
        },
        {
          "indexed": false,
          "internalType": "address",
          "name": "newAdmin",
          "type": "address"
        }
      ],
      "name": "AdminChanged",
      "type": "event"
    },
    {
      "anonymous": false,
      "inputs": [
        {
          "indexed": true,
          "internalType": "address",
          "name": "owner",
          "type": "address"
        },
        {
          "indexed": true,
          "internalType": "address",
          "name": "spender",
          "type": "address"
        },
        {
          "indexed": false,
          "internalType": "uint256",
          "name": "value",
          "type": "uint256"
        }
      ],
      "name": "Approval",
      "type": "event"
    },
    {
      "anonymous": false,
      "inputs": [
        {
          "indexed": true,
          "internalType": "address",
          "name": "beacon",
          "type": "address"
        }
      ],
      "name": "BeaconUpgraded",
      "type": "event"
    },
    {
      "anonymous": false,
      "inputs": [
        {
          "indexed": true,
          "internalType": "address",
          "name": "portfolio",
          "type": "address"
        },
        {
          "indexed": true,
          "internalType": "address",
          "name": "user",
          "type": "address"
        },
        {
          "indexed": true,
          "internalType": "uint256",
          "name": "mintedAmount",
          "type": "uint256"
        },
        {
          "indexed": false,
          "internalType": "uint256",
          "name": "userBalanceAfterDeposit",
          "type": "uint256"
        }
      ],
      "name": "Deposited",
      "type": "event"
    },
    {
      "anonymous": false,
      "inputs": [
        {
          "indexed": false,
          "internalType": "uint8",
          "name": "version",
          "type": "uint8"
        }
      ],
      "name": "Initialized",
      "type": "event"
    },
    {
      "anonymous": false,
      "inputs": [
        {
          "indexed": true,
          "internalType": "address",
          "name": "previousOwner",
          "type": "address"
        },
        {
          "indexed": true,
          "internalType": "address",
          "name": "newOwner",
          "type": "address"
        }
      ],
      "name": "OwnershipTransferred",
      "type": "event"
    },
    {
      "anonymous": false,
      "inputs": [
        {
          "indexed": true,
          "internalType": "address",
          "name": "portfolio",
          "type": "address"
        }
      ],
      "name": "PublicSwapEnabled",
      "type": "event"
    },
    {
      "anonymous": false,
      "inputs": [
        {
          "indexed": true,
          "internalType": "address",
          "name": "from",
          "type": "address"
        },
        {
          "indexed": true,
          "internalType": "address",
          "name": "to",
          "type": "address"
        },
        {
          "indexed": false,
          "internalType": "uint256",
          "name": "value",
          "type": "uint256"
        }
      ],
      "name": "Transfer",
      "type": "event"
    },
    {
      "anonymous": false,
      "inputs": [
        {
          "indexed": true,
          "internalType": "address",
          "name": "implementation",
          "type": "address"
        }
      ],
      "name": "Upgraded",
      "type": "event"
    },
    {
      "anonymous": false,
      "inputs": [
        {
          "indexed": false,
          "internalType": "uint256[]",
          "name": "depositedAmounts",
          "type": "uint256[]"
        },
        {
          "indexed": false,
          "internalType": "address[]",
          "name": "portfolioTokens",
          "type": "address[]"
        }
      ],
      "name": "UserDepositedAmounts",
      "type": "event"
    },
    {
      "anonymous": false,
      "inputs": [
        {
          "indexed": true,
          "internalType": "address",
          "name": "user",
          "type": "address"
        },
        {
          "indexed": true,
          "internalType": "uint256",
          "name": "burnedAmount",
          "type": "uint256"
        },
        {
          "indexed": true,
          "internalType": "address",
          "name": "portfolio",
          "type": "address"
        },
        {
          "indexed": false,
          "internalType": "address[]",
          "name": "portfolioTokens",
          "type": "address[]"
        },
        {
          "indexed": false,
          "internalType": "uint256",
          "name": "userBalanceAfterWithdrawal",
          "type": "uint256"
        },
        {
          "indexed": false,
          "internalType": "uint256[]",
          "name": "userWithdrawalAmounts",
          "type": "uint256[]"
        }
      ],
      "name": "Withdrawn",
      "type": "event"
    },
    {
      "inputs": [
        {
          "internalType": "address",
          "name": "",
          "type": "address"
        }
      ],
      "name": "_lastDepositTime",
      "outputs": [
        {
          "internalType": "uint256",
          "name": "",
          "type": "uint256"
        }
      ],
      "stateMutability": "view",
      "type": "function"
    },
    {
      "inputs": [
        {
          "internalType": "address",
          "name": "",
          "type": "address"
        }
      ],
      "name": "_lastWithdrawCooldown",
      "outputs": [
        {
          "internalType": "uint256",
          "name": "",
          "type": "uint256"
        }
      ],
      "stateMutability": "view",
      "type": "function"
    },
    {
      "inputs": [],
      "name": "accessController",
      "outputs": [
        {
          "internalType": "contract IAccessController",
          "name": "",
          "type": "address"
        }
      ],
      "stateMutability": "view",
      "type": "function"
    },
    {
      "inputs": [
        {
          "internalType": "address",
          "name": "owner",
          "type": "address"
        },
        {
          "internalType": "address",
          "name": "spender",
          "type": "address"
        }
      ],
      "name": "allowance",
      "outputs": [
        {
          "internalType": "uint256",
          "name": "",
          "type": "uint256"
        }
      ],
      "stateMutability": "view",
      "type": "function"
    },
    {
      "inputs": [
        {
          "internalType": "address",
          "name": "spender",
          "type": "address"
        },
        {
          "internalType": "uint256",
          "name": "amount",
          "type": "uint256"
        }
      ],
      "name": "approve",
      "outputs": [
        {
          "internalType": "bool",
          "name": "",
          "type": "bool"
        }
      ],
      "stateMutability": "nonpayable",
      "type": "function"
    },
    {
      "inputs": [],
      "name": "assetManagementConfig",
      "outputs": [
        {
          "internalType": "contract IAssetManagementConfig",
          "name": "",
          "type": "address"
        }
      ],
      "stateMutability": "view",
      "type": "function"
    },
    {
      "inputs": [
        {
          "internalType": "address",
          "name": "account",
          "type": "address"
        }
      ],
      "name": "balanceOf",
      "outputs": [
        {
          "internalType": "uint256",
          "name": "",
          "type": "uint256"
        }
      ],
      "stateMutability": "view",
      "type": "function"
    },
    {
      "inputs": [
        {
          "internalType": "address",
          "name": "_target",
          "type": "address"
        },
        {
          "internalType": "bytes",
          "name": "_claimCalldata",
          "type": "bytes"
        }
      ],
      "name": "claimRewardTokens",
      "outputs": [],
      "stateMutability": "nonpayable",
      "type": "function"
    },
    {
      "inputs": [],
      "name": "decimals",
      "outputs": [
        {
          "internalType": "uint8",
          "name": "",
          "type": "uint8"
        }
      ],
      "stateMutability": "view",
      "type": "function"
    },
    {
      "inputs": [
        {
          "internalType": "address",
          "name": "spender",
          "type": "address"
        },
        {
          "internalType": "uint256",
          "name": "subtractedValue",
          "type": "uint256"
        }
      ],
      "name": "decreaseAllowance",
      "outputs": [
        {
          "internalType": "bool",
          "name": "",
          "type": "bool"
        }
      ],
      "stateMutability": "nonpayable",
      "type": "function"
    },
    {
      "inputs": [
        {
          "internalType": "uint256",
          "name": "_portfolioTokenAmount",
          "type": "uint256"
        },
        {
          "internalType": "address[]",
          "name": "_exemptionTokens",
          "type": "address[]"
        }
      ],
      "name": "emergencyWithdrawal",
      "outputs": [],
      "stateMutability": "nonpayable",
      "type": "function"
    },
    {
      "inputs": [
        {
          "internalType": "address",
          "name": "_withdrawFor",
          "type": "address"
        },
        {
          "internalType": "address",
          "name": "_tokenReceiver",
          "type": "address"
        },
        {
          "internalType": "uint256",
          "name": "_portfolioTokenAmount",
          "type": "uint256"
        },
        {
          "internalType": "address[]",
          "name": "_exemptionTokens",
          "type": "address[]"
        }
      ],
      "name": "emergencyWithdrawalFor",
      "outputs": [],
      "stateMutability": "nonpayable",
      "type": "function"
    },
    {
      "inputs": [],
      "name": "feeModule",
      "outputs": [
        {
          "internalType": "contract IFeeModule",
          "name": "",
          "type": "address"
        }
      ],
      "stateMutability": "view",
      "type": "function"
    },
    {
      "inputs": [
        {
          "internalType": "address[]",
          "name": "portfolioTokens",
          "type": "address[]"
        },
        {
          "internalType": "address",
          "name": "_vault",
          "type": "address"
        }
      ],
      "name": "getTokenBalancesOf",
      "outputs": [
        {
          "internalType": "uint256[]",
          "name": "vaultBalances",
          "type": "uint256[]"
        }
      ],
      "stateMutability": "view",
      "type": "function"
    },
    {
      "inputs": [],
      "name": "getTokens",
      "outputs": [
        {
          "internalType": "address[]",
          "name": "",
          "type": "address[]"
        }
      ],
      "stateMutability": "view",
      "type": "function"
    },
    {
      "inputs": [
        {
          "internalType": "contract IPriceOracle",
          "name": "_oracle",
          "type": "address"
        },
        {
          "internalType": "address[]",
          "name": "_tokens",
          "type": "address[]"
        },
        {
          "internalType": "uint256",
          "name": "_totalSupply",
          "type": "uint256"
        },
        {
          "internalType": "address",
          "name": "_vault",
          "type": "address"
        }
      ],
      "name": "getVaultValueInUSD",
      "outputs": [
        {
          "internalType": "uint256",
          "name": "vaultValue",
          "type": "uint256"
        }
      ],
      "stateMutability": "view",
      "type": "function"
    },
    {
      "inputs": [
        {
          "internalType": "address",
          "name": "spender",
          "type": "address"
        },
        {
          "internalType": "uint256",
          "name": "addedValue",
          "type": "uint256"
        }
      ],
      "name": "increaseAllowance",
      "outputs": [
        {
          "internalType": "bool",
          "name": "",
          "type": "bool"
        }
      ],
      "stateMutability": "nonpayable",
      "type": "function"
    },
    {
      "inputs": [
        {
          "components": [
            {
              "internalType": "string",
              "name": "_name",
              "type": "string"
            },
            {
              "internalType": "string",
              "name": "_symbol",
              "type": "string"
            },
            {
              "internalType": "address",
              "name": "_vault",
              "type": "address"
            },
            {
              "internalType": "address",
              "name": "_module",
              "type": "address"
            },
            {
              "internalType": "address",
              "name": "_tokenExclusionManager",
              "type": "address"
            },
            {
              "internalType": "address",
              "name": "_accessController",
              "type": "address"
            },
            {
              "internalType": "address",
              "name": "_protocolConfig",
              "type": "address"
            },
            {
              "internalType": "address",
              "name": "_assetManagementConfig",
              "type": "address"
            },
            {
              "internalType": "address",
              "name": "_feeModule",
              "type": "address"
            }
          ],
          "internalType": "struct FunctionParameters.PortfolioInitData",
          "name": "initData",
          "type": "tuple"
        }
      ],
      "name": "init",
      "outputs": [],
      "stateMutability": "nonpayable",
      "type": "function"
    },
    {
      "inputs": [
        {
          "internalType": "address[]",
          "name": "_tokens",
          "type": "address[]"
        }
      ],
      "name": "initToken",
      "outputs": [],
      "stateMutability": "nonpayable",
      "type": "function"
    },
    {
      "inputs": [
        {
          "internalType": "address",
          "name": "_to",
          "type": "address"
        },
        {
          "internalType": "uint256",
          "name": "_amount",
          "type": "uint256"
        }
      ],
      "name": "mintShares",
      "outputs": [],
      "stateMutability": "nonpayable",
      "type": "function"
    },
    {
      "inputs": [
        {
          "internalType": "uint256[]",
          "name": "depositAmounts",
          "type": "uint256[]"
        },
        {
          "internalType": "uint256",
          "name": "_minMintAmount",
          "type": "uint256"
        },
        {
          "components": [
            {
              "components": [
                {
                  "internalType": "address",
                  "name": "token",
                  "type": "address"
                },
                {
                  "internalType": "uint160",
                  "name": "amount",
                  "type": "uint160"
                },
                {
                  "internalType": "uint48",
                  "name": "expiration",
                  "type": "uint48"
                },
                {
                  "internalType": "uint48",
                  "name": "nonce",
                  "type": "uint48"
                }
              ],
              "internalType": "struct IAllowanceTransfer.PermitDetails[]",
              "name": "details",
              "type": "tuple[]"
            },
            {
              "internalType": "address",
              "name": "spender",
              "type": "address"
            },
            {
              "internalType": "uint256",
              "name": "sigDeadline",
              "type": "uint256"
            }
          ],
          "internalType": "struct IAllowanceTransfer.PermitBatch",
          "name": "_permit",
          "type": "tuple"
        },
        {
          "internalType": "bytes",
          "name": "_signature",
          "type": "bytes"
        }
      ],
      "name": "multiTokenDeposit",
      "outputs": [],
      "stateMutability": "nonpayable",
      "type": "function"
    },
    {
      "inputs": [
        {
          "internalType": "address",
          "name": "_depositFor",
          "type": "address"
        },
        {
          "internalType": "uint256[]",
          "name": "depositAmounts",
          "type": "uint256[]"
        },
        {
          "internalType": "uint256",
          "name": "_minMintAmount",
          "type": "uint256"
        }
      ],
      "name": "multiTokenDepositFor",
      "outputs": [],
      "stateMutability": "nonpayable",
      "type": "function"
    },
    {
      "inputs": [
        {
          "internalType": "uint256",
          "name": "_portfolioTokenAmount",
          "type": "uint256"
        }
      ],
      "name": "multiTokenWithdrawal",
      "outputs": [],
      "stateMutability": "nonpayable",
      "type": "function"
    },
    {
      "inputs": [
        {
          "internalType": "address",
          "name": "_withdrawFor",
          "type": "address"
        },
        {
          "internalType": "address",
          "name": "_tokenReceiver",
          "type": "address"
        },
        {
          "internalType": "uint256",
          "name": "_portfolioTokenAmount",
          "type": "uint256"
        }
      ],
      "name": "multiTokenWithdrawalFor",
      "outputs": [],
      "stateMutability": "nonpayable",
      "type": "function"
    },
    {
      "inputs": [],
      "name": "name",
      "outputs": [
        {
          "internalType": "string",
          "name": "",
          "type": "string"
        }
      ],
      "stateMutability": "view",
      "type": "function"
    },
    {
      "inputs": [],
      "name": "owner",
      "outputs": [
        {
          "internalType": "address",
          "name": "",
          "type": "address"
        }
      ],
      "stateMutability": "view",
      "type": "function"
    },
    {
      "inputs": [],
      "name": "permit2",
      "outputs": [
        {
          "internalType": "contract IAllowanceTransfer",
          "name": "",
          "type": "address"
        }
      ],
      "stateMutability": "view",
      "type": "function"
    },
    {
      "inputs": [],
      "name": "protocolConfig",
      "outputs": [
        {
          "internalType": "contract IProtocolConfig",
          "name": "",
          "type": "address"
        }
      ],
      "stateMutability": "view",
      "type": "function"
    },
    {
      "inputs": [],
      "name": "proxiableUUID",
      "outputs": [
        {
          "internalType": "bytes32",
          "name": "",
          "type": "bytes32"
        }
      ],
      "stateMutability": "view",
      "type": "function"
    },
    {
      "inputs": [
        {
          "internalType": "address",
          "name": "_token",
          "type": "address"
        },
        {
          "internalType": "uint256",
          "name": "_amount",
          "type": "uint256"
        },
        {
          "internalType": "address",
          "name": "_to",
          "type": "address"
        }
      ],
      "name": "pullFromVault",
      "outputs": [],
      "stateMutability": "nonpayable",
      "type": "function"
    },
    {
      "inputs": [],
      "name": "renounceOwnership",
      "outputs": [],
      "stateMutability": "nonpayable",
      "type": "function"
    },
    {
      "inputs": [],
      "name": "safeModule",
      "outputs": [
        {
          "internalType": "address",
          "name": "",
          "type": "address"
        }
      ],
      "stateMutability": "view",
      "type": "function"
    },
    {
      "inputs": [],
      "name": "symbol",
      "outputs": [
        {
          "internalType": "string",
          "name": "",
          "type": "string"
        }
      ],
      "stateMutability": "view",
      "type": "function"
    },
    {
      "inputs": [],
      "name": "tokenExclusionManager",
      "outputs": [
        {
          "internalType": "contract ITokenExclusionManager",
          "name": "",
          "type": "address"
        }
      ],
      "stateMutability": "view",
      "type": "function"
    },
    {
      "inputs": [],
      "name": "totalSupply",
      "outputs": [
        {
          "internalType": "uint256",
          "name": "",
          "type": "uint256"
        }
      ],
      "stateMutability": "view",
      "type": "function"
    },
    {
      "inputs": [
        {
          "internalType": "address",
          "name": "to",
          "type": "address"
        },
        {
          "internalType": "uint256",
          "name": "amount",
          "type": "uint256"
        }
      ],
      "name": "transfer",
      "outputs": [
        {
          "internalType": "bool",
          "name": "",
          "type": "bool"
        }
      ],
      "stateMutability": "nonpayable",
      "type": "function"
    },
    {
      "inputs": [
        {
          "internalType": "address",
          "name": "from",
          "type": "address"
        },
        {
          "internalType": "address",
          "name": "to",
          "type": "address"
        },
        {
          "internalType": "uint256",
          "name": "amount",
          "type": "uint256"
        }
      ],
      "name": "transferFrom",
      "outputs": [
        {
          "internalType": "bool",
          "name": "",
          "type": "bool"
        }
      ],
      "stateMutability": "nonpayable",
      "type": "function"
    },
    {
      "inputs": [
        {
          "internalType": "address",
          "name": "newOwner",
          "type": "address"
        }
      ],
      "name": "transferOwnership",
      "outputs": [],
      "stateMutability": "nonpayable",
      "type": "function"
    },
    {
      "inputs": [
        {
          "internalType": "address[]",
          "name": "_tokens",
          "type": "address[]"
        }
      ],
      "name": "updateTokenList",
      "outputs": [],
      "stateMutability": "nonpayable",
      "type": "function"
    },
    {
      "inputs": [
        {
          "internalType": "address",
          "name": "newImplementation",
          "type": "address"
        }
      ],
      "name": "upgradeTo",
      "outputs": [],
      "stateMutability": "nonpayable",
      "type": "function"
    },
    {
      "inputs": [
        {
          "internalType": "address",
          "name": "newImplementation",
          "type": "address"
        },
        {
          "internalType": "bytes",
          "name": "data",
          "type": "bytes"
        }
      ],
      "name": "upgradeToAndCall",
      "outputs": [],
      "stateMutability": "payable",
      "type": "function"
    },
    {
      "inputs": [
        {
          "internalType": "address",
          "name": "",
          "type": "address"
        }
      ],
      "name": "userCooldownPeriod",
      "outputs": [
        {
          "internalType": "uint256",
          "name": "",
          "type": "uint256"
        }
      ],
      "stateMutability": "view",
      "type": "function"
    },
    {
      "inputs": [
        {
          "internalType": "address",
          "name": "",
          "type": "address"
        }
      ],
      "name": "userLastDepositTime",
      "outputs": [
        {
          "internalType": "uint256",
          "name": "",
          "type": "uint256"
        }
      ],
      "stateMutability": "view",
      "type": "function"
    },
    {
      "inputs": [],
      "name": "vault",
      "outputs": [
        {
          "internalType": "address",
          "name": "",
          "type": "address"
        }
      ],
      "stateMutability": "view",
      "type": "function"
    }
  ],
  "bytecode": "0x60c0604052306080526e22d473030f116ddee9f6b43ac78ba360a0523480156200002857600080fd5b506200003362000039565b620000fa565b600054610100900460ff1615620000a65760405162461bcd60e51b815260206004820152602760248201527f496e697469616c697a61626c653a20636f6e747261637420697320696e697469604482015266616c697a696e6760c81b606482015260840160405180910390fd5b60005460ff90811614620000f8576000805460ff191660ff9081179091556040519081527f7f26b83ff96e1f2b6a682f133852f6798a09c465da95921460cefb38474024989060200160405180910390a15b565b60805160a0516155656200014a6000396000818161031b0152818161315a0152614296015260008181610b8c01528181610bd501528181610e4401528181610e840152610f6801526155656000f3fe6080604052600436106102675760003560e01c8063715018a611610144578063bc43cbaf116100b6578063d37aad481161007a578063d37aad4814610785578063da97b392146107a5578063dd62ed3e146107c5578063f2fde38b146107e5578063f5efbb4f14610805578063fbfa77cf1461082457600080fd5b8063bc43cbaf146106d7578063c147af51146106f7578063c88c82a514610717578063ca5fafdd14610744578063cf4f4dc61461076557600080fd5b806395d89b411161010857806395d89b4114610621578063991afdec14610636578063a457c2d714610656578063a9059cbb14610676578063aa6ca80814610696578063bae41cbf146106b857600080fd5b8063715018a61461058157806376fa2fd914610596578063859a21de146105b65780638da5cb5b146105d657806393005a5a146105f457600080fd5b8063313ce567116101dd5780634631f667116101a15780634631f667146104be5780634f1ef286146104ec578063528c198a146104ff57806352d1902d1461051f578063665714a91461053457806370a082311461056157600080fd5b8063313ce567146104145780633659cfe61461043057806339509351146104505780633d91c7e91461047057806345b12b651461049057600080fd5b806318160ddd1161022f57806318160ddd14610355578063191eb90e1461037457806323b872dd14610394578063264e303c146103b45780632e8a3649146103d35780632fd77d69146103f457600080fd5b80630473d2bb1461026c57806305414b411461028e57806306fdde03146102ae578063095ea7b3146102d957806312261ee714610309575b600080fd5b34801561027857600080fd5b5061028c6102873660046147e8565b610844565b005b34801561029a57600080fd5b5061028c6102a936600461484c565b610869565b3480156102ba57600080fd5b506102c3610893565b6040516102d0919061496d565b60405180910390f35b3480156102e557600080fd5b506102f96102f43660046149a5565b610925565b60405190151581526020016102d0565b34801561031557600080fd5b5061033d7f000000000000000000000000000000000000000000000000000000000000000081565b6040516001600160a01b0390911681526020016102d0565b34801561036157600080fd5b5060cb545b6040519081526020016102d0565b34801561038057600080fd5b5061036661038f366004614a94565b61093f565b3480156103a057600080fd5b506102f96103af366004614aff565b610b2c565b3480156103c057600080fd5b50610199546001600160a01b031661033d565b3480156103df57600080fd5b506101005461033d906001600160a01b031681565b34801561040057600080fd5b5061028c61040f366004614aff565b610b50565b34801561042057600080fd5b50604051601281526020016102d0565b34801561043c57600080fd5b5061028c61044b366004614b40565b610b82565b34801561045c57600080fd5b506102f961046b3660046149a5565b610c67565b34801561047c57600080fd5b5061028c61048b366004614b5d565b610c89565b34801561049c57600080fd5b506103666104ab366004614b40565b6101336020526000908152604090205481565b3480156104ca57600080fd5b506103666104d9366004614b40565b6101346020526000908152604090205481565b61028c6104fa366004614bc5565b610e3a565b34801561050b57600080fd5b5061028c61051a3660046149a5565b610f0a565b34801561052b57600080fd5b50610366610f5b565b34801561054057600080fd5b5061036661054f366004614b40565b60fc6020526000908152604090205481565b34801561056d57600080fd5b5061036661057c366004614b40565b61100e565b34801561058d57600080fd5b5061028c611029565b3480156105a257600080fd5b5061028c6105b1366004614bc5565b61103d565b3480156105c257600080fd5b5061028c6105d1366004614b5d565b61113e565b3480156105e257600080fd5b506033546001600160a01b031661033d565b34801561060057600080fd5b5061061461060f366004614c57565b61136e565b6040516102d09190614ce3565b34801561062d57600080fd5b506102c361141c565b34801561064257600080fd5b5061028c610651366004614cf6565b61142b565b34801561066257600080fd5b506102f96106713660046149a5565b61145b565b34801561068257600080fd5b506102f96106913660046149a5565b6114d6565b3480156106a257600080fd5b506106ab6114e4565b6040516102d09190614d9a565b3480156106c457600080fd5b5061019b546001600160a01b031661033d565b3480156106e357600080fd5b5060fb5461033d906001600160a01b031681565b34801561070357600080fd5b5061028c610712366004614dad565b611545565b34801561072357600080fd5b50610366610732366004614b40565b60fd6020526000908152604090205481565b34801561075057600080fd5b506101355461033d906001600160a01b031681565b34801561077157600080fd5b5061028c610780366004614de8565b611773565b34801561079157600080fd5b5061028c6107a0366004614e43565b611787565b3480156107b157600080fd5b5061028c6107c0366004614e85565b6118c9565b3480156107d157600080fd5b506103666107e0366004614ecb565b6118e8565b3480156107f157600080fd5b5061028c610800366004614b40565b611913565b34801561081157600080fd5b5061019a546001600160a01b031661033d565b34801561083057600080fd5b5060ff5461033d906001600160a01b031681565b61084c611989565b606061085a333384846119e4565b50610866600161016755565b50565b610871611989565b61088033878787878787611d5f565b61088b600161016755565b505050505050565b606060cc80546108a290614ef9565b80601f01602080910402602001604051908101604052809291908181526020018280546108ce90614ef9565b801561091b5780601f106108f05761010080835404028352916020019161091b565b820191906000526020600020905b8154815290600101906020018083116108fe57829003601f168201915b5050505050905090565b600033610933818585611dd5565b60019150505b92915050565b60008260000361095157506000610b24565b8351600090815b81811015610b2057600087828151811061097457610974614f33565b6020026020010151905061099161019a546001600160a01b031690565b60405163748538d960e01b81526001600160a01b038381166004830152919091169063748538d990602401602060405180830381865afa1580156109d9573d6000803e3d6000fd5b505050506040513d601f19601f820116820180604052508101906109fd9190614f59565b610a1a57604051631fcf8c4760e11b815260040160405180910390fd5b6040516370a0823160e01b81526001600160a01b038781166004830152808b169163cf644e1e918491908216906370a0823190602401602060405180830381865afa158015610a6d573d6000803e3d6000fd5b505050506040513d601f19601f82011682018060405250810190610a919190614f74565b6040516001600160e01b031960e085901b1681526001600160a01b0390921660048301526024820152604401602060405180830381865afa158015610ada573d6000803e3d6000fd5b505050506040513d601f19601f82011682018060405250810190610afe9190614f74565b9350610b0a8486614fa3565b9450508080610b1890614fb6565b915050610958565b5050505b949350505050565b600033610b3a858285611ef9565b610b45858585611f6d565b506001949350505050565b610b58611989565b610b63833383611ef9565b6060610b71848484846119e4565b50610b7d600161016755565b505050565b6001600160a01b037f0000000000000000000000000000000000000000000000000000000000000000163003610bd35760405162461bcd60e51b8152600401610bca90614fcf565b60405180910390fd5b7f00000000000000000000000000000000000000000000000000000000000000006001600160a01b0316610c1c6000805160206154e9833981519152546001600160a01b031690565b6001600160a01b031614610c425760405162461bcd60e51b8152600401610bca9061501b565b610c4b81612129565b6040805160008082526020820190925261086691839190612131565b600033610933818585610c7a83836118e8565b610c849190614fa3565b611dd5565b610cb37f8e73530dd444215065cdf478f826e993aeb5e2798587f0bbf5a978bd97df63ea3361229c565b610cd057604051631fcf4cd160e21b815260040160405180910390fd5b6000610ce561019a546001600160a01b031690565b6001600160a01b03166322da98e76040518163ffffffff1660e01b8152600401602060405180830381865afa158015610d22573d6000803e3d6000fd5b505050506040513d601f19601f82011682018060405250810190610d469190614f74565b90508181811115610d6d57604051632870818760e21b815260048101839052602401610bca565b60005b81811015610e1c576000858583818110610d8c57610d8c614f33565b9050602002016020810190610da19190614b40565b9050610dac81612319565b6001600160a01b0381166000908152610101602052604090205460ff1615610de757604051638c56fc5160e01b815260040160405180910390fd5b6001600160a01b0316600090815261010160205260409020805460ff1916600117905580610e1481614fb6565b915050610d70565b50610e278484612452565b610e3360fe8585614779565b5050505050565b6001600160a01b037f0000000000000000000000000000000000000000000000000000000000000000163003610e825760405162461bcd60e51b8152600401610bca90614fcf565b7f00000000000000000000000000000000000000000000000000000000000000006001600160a01b0316610ecb6000805160206154e9833981519152546001600160a01b031690565b6001600160a01b031614610ef15760405162461bcd60e51b8152600401610bca9061501b565b610efa82612129565b610f0682826001612131565b5050565b610f347f9f2df0fed2c77648de5860a4cc508cd0818c85b8b8a1ab4ceeef8d981c8956a63361229c565b610f515760405163fbfe535960e01b815260040160405180910390fd5b610f0682826124c6565b6000306001600160a01b037f00000000000000000000000000000000000000000000000000000000000000001614610ffb5760405162461bcd60e51b815260206004820152603860248201527f555550535570677261646561626c653a206d757374206e6f742062652063616c60448201527f6c6564207468726f7567682064656c656761746563616c6c00000000000000006064820152608401610bca565b506000805160206154e983398151915290565b6001600160a01b0316600090815260c9602052604090205490565b61103161259b565b61103b60006125f5565b565b6110677f8e73530dd444215065cdf478f826e993aeb5e2798587f0bbf5a978bd97df63ea3361229c565b61108457604051631fcf4cd160e21b815260040160405180910390fd5b6101005460405163440420ff60e11b81526000916001600160a01b03169063880841fe906110b89086908690600401615067565b6000604051808303816000875af11580156110d7573d6000803e3d6000fd5b505050506040513d6000823e601f3d908101601f191682016040526110ff919081019061508b565b9150508051600014806111215750808060200190518101906111219190614f59565b610b7d5760405163360e42e160e01b815260040160405180910390fd5b6111687fd980155b32cf66e6af51e0972d64b9d5efe0e6f237dfaa4bdc83f990dd79e9c83361229c565b6111845760405162469b1b60e21b815260040160405180910390fd5b600061119961019a546001600160a01b031690565b6001600160a01b03166322da98e76040518163ffffffff1660e01b8152600401602060405180830381865afa1580156111d6573d6000803e3d6000fd5b505050506040513d601f19601f820116820180604052508101906111fa9190614f74565b9050818181111561122157604051632870818760e21b815260048101839052602401610bca565b60fe54156112415760405162dc149f60e41b815260040160405180910390fd5b60005b8181101561133257600085858381811061126057611260614f33565b90506020020160208101906112759190614b40565b905061128081612319565b6001600160a01b0381166000908152610101602052604090205460ff16156112bb57604051638c56fc5160e01b815260040160405180910390fd5b6001600160a01b0316600081815261010160205260408120805460ff1916600190811790915560fe805491820181559091527f54075df80ec1ae6ac9100e1fd0ebf3246c17f5c933137af392011f4c5f61513a0180546001600160a01b03191690911790558061132a81614fb6565b915050611244565b5061133d8484612452565b60405130907f3eea0b07b9b6aa4d2288b533e67070697cff737b3d413ac2c7b70d5c152452d790600090a250505050565b8151606090806001600160401b0381111561138b5761138b6149d1565b6040519080825280602002602001820160405280156113b4578160200160208202803683370190505b50915060005b81811015611414576113e58582815181106113d7576113d7614f33565b602002602001015185612647565b8382815181106113f7576113f7614f33565b60209081029190910101528061140c81614fb6565b9150506113ba565b505092915050565b606060cd80546108a290614ef9565b611433611989565b61143e843384611ef9565b61144a848484846119e4565b611455600161016755565b50505050565b6000338161146982866118e8565b9050838110156114c95760405162461bcd60e51b815260206004820152602560248201527f45524332303a2064656372656173656420616c6c6f77616e63652062656c6f77604482015264207a65726f60d81b6064820152608401610bca565b610b458286868403611dd5565b600033610933818585611f6d565b606060fe80548060200260200160405190810160405280929190818152602001828054801561091b57602002820191906000526020600020905b81546001600160a01b0316815260019091019060200180831161151e575050505050905090565b600054610100900460ff16158080156115655750600054600160ff909116105b8061157f5750303b15801561157f575060005460ff166001145b6115e25760405162461bcd60e51b815260206004820152602e60248201527f496e697469616c697a61626c653a20636f6e747261637420697320616c72656160448201526d191e481a5b9a5d1a585b1a5e995960921b6064820152608401610bca565b6000805460ff191660011790558015611605576000805461ff0019166101001790555b61160d6126ee565b61161561271d565b61163d6116286060840160408501614b40565b6116386080850160608601614b40565b612744565b61165c61164a8380615114565b6116576020860186615114565b6127d5565b61166461286f565b61167c61167760c0840160a08501614b40565b61289e565b61169461168f60a0840160808501614b40565b61290e565b6116a5610100830160e08401614b40565b61019980546001600160a01b0319166001600160a01b03929092169190911790556116d660e0830160c08401614b40565b61019a80546001600160a01b0319166001600160a01b039290921691909117905561170961012083016101008401614b40565b61019b80546001600160a01b0319166001600160a01b03929092169190911790558015610f06576000805461ff0019169055604051600181527f7f26b83ff96e1f2b6a682f133852f6798a09c465da95921460cefb38474024989060200160405180910390a15050565b61177b611989565b61144a84848484612958565b6117b17f8e73530dd444215065cdf478f826e993aeb5e2798587f0bbf5a978bd97df63ea3361229c565b6117ce57604051631fcf4cd160e21b815260040160405180910390fd5b604080516001600160a01b038381166024830152604480830186905283518084039091018152606490920183526020820180516001600160e01b031663a9059cbb60e01b17905261010054925163440420ff60e11b8152919260009291169063880841fe906118439088908690600401615067565b6000604051808303816000875af1158015611862573d6000803e3d6000fd5b505050506040513d6000823e601f3d908101601f1916820160405261188a919081019061508b565b9150508051600014806118ac5750808060200190518101906118ac9190614f59565b610e33576040516312171d8360e31b815260040160405180910390fd5b6118d1611989565b6118dd333384846119e4565b610f06600161016755565b6001600160a01b03918216600090815260ca6020908152604080832093909416825291909152205490565b61191b61259b565b6001600160a01b0381166119805760405162461bcd60e51b815260206004820152602660248201527f4f776e61626c653a206e6577206f776e657220697320746865207a65726f206160448201526564647265737360d01b6064820152608401610bca565b610866816125f5565b600261016754036119dc5760405162461bcd60e51b815260206004820152601f60248201527f5265656e7472616e637947756172643a207265656e7472616e742063616c6c006044820152606401610bca565b600261016755565b600060fe805480602002602001604051908101604052809291908181526020018280548015611a3c57602002820191906000526020600020905b81546001600160a01b03168152600190910190602001808311611a1e575b50505050509050600081519050611a568630868487612989565b611a5f86612b78565b611a6886612be5565b6000611a7360cb5490565b9050611a7f8786612d51565b94506000826001600160401b03811115611a9b57611a9b6149d1565b604051908082528060200260200182016040528015611ac4578160200160208202803683370190505b5090506000805b84811015611ced576000868281518110611ae757611ae7614f33565b602002602001015190506000611b128260ff60009054906101000a90046001600160a01b0316612647565b905085611b1f8b8361515a565b611b299190615171565b604080516001600160a01b038e81166024830152604480830185905283518084039091018152606490920183526020820180516001600160e01b031663a9059cbb60e01b17905261010054925163440420ff60e11b8152939450909291169063880841fe90611b9e9086908590600401615067565b6000604051808303816000875af1925050508015611bde57506040513d6000823e601f3d908101601f19168201604052611bdb919081019061508b565b60015b611c5e57826001600160a01b03168a8681518110611bfe57611bfe614f33565b60200260200101516001600160a01b031614611c2d57604051631eb1fe5f60e21b815260040160405180910390fd5b6000868581518110611c4157611c41614f33565b602090810291909101015284611c5681614fb6565b955050611cd7565b505081158015611c995750826001600160a01b03168a8681518110611c8557611c85614f33565b60200260200101516001600160a01b031614155b15611cb7576040516373bf9e5f60e01b815260040160405180910390fd5b81868581518110611cca57611cca614f33565b6020026020010181815250505b5050508080611ce590614fb6565b915050611acb565b506000611cf98a61100e565b9050306001600160a01b0316888b6001600160a01b03167ffbd7c392da8d481164c86593f74bcc551732f8c3265d1976d82e88dc353088e2898588604051611d4393929190615193565b60405180910390a450505050505050505050565b600161016755565b30611d706040850160208601614b40565b6001600160a01b031614611d9757604051635461585f60e01b815260040160405180910390fd5b60fe54611da5908890612e71565b611dae87612be5565b6000611dbe878786868633613142565b9050611dcb8886836132dc565b5050505050505050565b6001600160a01b038316611e375760405162461bcd60e51b8152602060048201526024808201527f45524332303a20617070726f76652066726f6d20746865207a65726f206164646044820152637265737360e01b6064820152608401610bca565b6001600160a01b038216611e985760405162461bcd60e51b815260206004820152602260248201527f45524332303a20617070726f766520746f20746865207a65726f206164647265604482015261737360f01b6064820152608401610bca565b6001600160a01b03838116600081815260ca602090815260408083209487168084529482529182902085905590518481527f8c5be1e5ebec7d5bd14f71427d1e84f3dd0314c0f7b2291e5b200ac8c7c3b925910160405180910390a3505050565b6000611f0584846118e8565b905060001981146114555781811015611f605760405162461bcd60e51b815260206004820152601d60248201527f45524332303a20696e73756666696369656e7420616c6c6f77616e63650000006044820152606401610bca565b6114558484848403611dd5565b6001600160a01b038316611fd15760405162461bcd60e51b815260206004820152602560248201527f45524332303a207472616e736665722066726f6d20746865207a65726f206164604482015264647265737360d81b6064820152608401610bca565b6001600160a01b0382166120335760405162461bcd60e51b815260206004820152602360248201527f45524332303a207472616e7366657220746f20746865207a65726f206164647260448201526265737360e81b6064820152608401610bca565b61203e838383613453565b6001600160a01b038316600090815260c96020526040902054818110156120b65760405162461bcd60e51b815260206004820152602660248201527f45524332303a207472616e7366657220616d6f756e7420657863656564732062604482015265616c616e636560d01b6064820152608401610bca565b6001600160a01b03808516600081815260c9602052604080822086860390559286168082529083902080548601905591517fddf252ad1be2c89b69c2b068fc378daa952ba7f163c4a11628f55a4df523b3ef906121169086815260200190565b60405180910390a3611455848484613608565b61086661259b565b7f4910fdfa16fed3260ed0e7147f7cc6da11a60208b5b9406d12a635614ffd91435460ff161561216457610b7d8361365d565b826001600160a01b03166352d1902d6040518163ffffffff1660e01b8152600401602060405180830381865afa9250505080156121be575060408051601f3d908101601f191682019092526121bb91810190614f74565b60015b6122215760405162461bcd60e51b815260206004820152602e60248201527f45524331393637557067726164653a206e657720696d706c656d656e7461746960448201526d6f6e206973206e6f74205555505360901b6064820152608401610bca565b6000805160206154e983398151915281146122905760405162461bcd60e51b815260206004820152602960248201527f45524331393637557067726164653a20756e737570706f727465642070726f786044820152681a58589b195555525160ba1b6064820152608401610bca565b50610b7d8383836136f9565b60fb54604051632474521560e21b8152600481018490526001600160a01b03838116602483015260009216906391d1485490604401602060405180830381865afa1580156122ee573d6000803e3d6000fd5b505050506040513d601f19601f820116820180604052508101906123129190614f59565b9392505050565b610199546001600160a01b03166001600160a01b031663e348560b6040518163ffffffff1660e01b81526004016020604051808303816000875af1158015612365573d6000803e3d6000fd5b505050506040513d601f19601f820116820180604052508101906123899190614f59565b801561240d5750610199546001600160a01b0316604051630daf9c2160e41b81526001600160a01b038381166004830152919091169063daf9c210906024016020604051808303816000875af11580156123e7573d6000803e3d6000fd5b505050506040513d601f19601f8201168201806040525081019061240b9190614f59565b155b1561242b576040516307c241ad60e51b815260040160405180910390fd5b6001600160a01b03811661086657604051630f58058360e11b815260040160405180910390fd5b8060005b81811015611455576000610101600086868581811061247757612477614f33565b905060200201602081019061248c9190614b40565b6001600160a01b031681526020810191909152604001600020805460ff1916911515919091179055806124be81614fb6565b915050612456565b6001600160a01b03821661251c5760405162461bcd60e51b815260206004820152601f60248201527f45524332303a206d696e7420746f20746865207a65726f2061646472657373006044820152606401610bca565b61252860008383613453565b8060cb600082825461253a9190614fa3565b90915550506001600160a01b038216600081815260c960209081526040808320805486019055518481527fddf252ad1be2c89b69c2b068fc378daa952ba7f163c4a11628f55a4df523b3ef910160405180910390a3610f0660008383613608565b6033546001600160a01b0316331461103b5760405162461bcd60e51b815260206004820181905260248201527f4f776e61626c653a2063616c6c6572206973206e6f7420746865206f776e65726044820152606401610bca565b603380546001600160a01b038381166001600160a01b0319831681179093556040519116919082907f8be0079c531659141344cd1fd0a4f28419497f9722a3daafe3b4186f6b6457e090600090a35050565b60006001600160a01b038316158061266657506001600160a01b038216155b156126845760405163e6c4247b60e01b815260040160405180910390fd5b6040516370a0823160e01b81526001600160a01b0383811660048301528416906370a0823190602401602060405180830381865afa1580156126ca573d6000803e3d6000fd5b505050506040513d601f19601f820116820180604052508101906123129190614f74565b600054610100900460ff166127155760405162461bcd60e51b8152600401610bca906151be565b61103b61371e565b600054610100900460ff1661103b5760405162461bcd60e51b8152600401610bca906151be565b600054610100900460ff1661276b5760405162461bcd60e51b8152600401610bca906151be565b6001600160a01b038216158061278857506001600160a01b038116155b156127a65760405163e6c4247b60e01b815260040160405180910390fd5b60ff80546001600160a01b039384166001600160a01b0319918216179091556101008054929093169116179055565b600054610100900460ff166127fc5760405162461bcd60e51b8152600401610bca906151be565b61145584848080601f01602080910402602001604051908101604052809392919081815260200183838082843760009201919091525050604080516020601f8801819004810282018101909252868152925086915085908190840183828082843760009201919091525061374e92505050565b600054610100900460ff166128965760405162461bcd60e51b8152600401610bca906151be565b61103b61377f565b600054610100900460ff166128c55760405162461bcd60e51b8152600401610bca906151be565b6001600160a01b0381166128ec5760405163e6c4247b60e01b815260040160405180910390fd5b60fb80546001600160a01b0319166001600160a01b0392909216919091179055565b600054610100900460ff166129355760405162461bcd60e51b8152600401610bca906151be565b61013580546001600160a01b0319166001600160a01b0392909216919091179055565b60fe54612966908590612e71565b61296f84612be5565b600061297c3385856137ae565b9050610e338583836132dc565b61019a546001600160a01b03166001600160a01b03166320e460316040518163ffffffff1660e01b8152600401602060405180830381865afa1580156129d3573d6000803e3d6000fd5b505050506040513d601f19601f820116820180604052508101906129f79190614f59565b15612a1557604051632bc2c01360e21b815260040160405180910390fd5b6040516370a0823160e01b81526001600160a01b038681166004830152600091908616906370a0823190602401602060405180830381865afa158015612a5f573d6000803e3d6000fd5b505050506040513d601f19601f82011682018060405250810190612a839190614f74565b905080841115612aa65760405163f467df5760e01b815260040160405180910390fd5b6000612ab28583615209565b90508015801590612b2f575061019a546001600160a01b03166001600160a01b03166317db494b6040518163ffffffff1660e01b8152600401602060405180830381865afa158015612b08573d6000803e3d6000fd5b505050506040513d601f19601f82011682018060405250810190612b2c9190614f74565b81105b15612b4d57604051632678c87760e01b815260040160405180910390fd5b8383511115612b6f576040516334a9986560e01b815260040160405180910390fd5b50505050505050565b6001600160a01b038116600090815260fd602090815260408083205460fc909252822054612ba69190614fa3565b9050600042821115612bc157612bbc4283615209565b612bc4565b60005b90508015610b7d5760405163036a87d960e21b815260040160405180910390fd5b610199546001600160a01b03166001600160a01b0316637a6d4b596040518163ffffffff1660e01b81526004016020604051808303816000875af1158015612c31573d6000803e3d6000fd5b505050506040513d601f19601f82011682018060405250810190612c55919061521c565b6001600160a01b0316816001600160a01b03161480612cf2575061019a546001600160a01b03166001600160a01b0316633d8a66a86040518163ffffffff1660e01b8152600401602060405180830381865afa158015612cb9573d6000803e3d6000fd5b505050506040513d601f19601f82011682018060405250810190612cdd919061521c565b6001600160a01b0316816001600160a01b0316145b6108665761019b546001600160a01b03166001600160a01b031663c23af23c6040518163ffffffff1660e01b8152600401600060405180830381600087803b158015612d3d57600080fd5b505af1158015610e33573d6000803e3d6000fd5b600080612d67610199546001600160a01b031690565b6001600160a01b0316636284ae416040518163ffffffff1660e01b8152600401602060405180830381865afa158015612da4573d6000803e3d6000fd5b505050506040513d601f19601f82011682018060405250810190612dc89190614f74565b9050829150612dd781856137df565b15612e605761019b546001600160a01b0316604051632ec1d28b60e11b815260048101859052602481018390526001600160a01b039190911690635d83a516906044016020604051808303816000875af1158015612e39573d6000803e3d6000fd5b505050506040513d601f19601f82011682018060405250810190612e5d9190614f74565b91505b612e6a8484613900565b5092915050565b610199546001600160a01b03166001600160a01b031663ae96b1016040518163ffffffff1660e01b81526004016020604051808303816000875af1158015612ebd573d6000803e3d6000fd5b505050506040513d601f19601f82011682018060405250810190612ee19190614f59565b80612f625750610199546001600160a01b0316604051631ec4398960e31b81526001600160a01b038481166004830152919091169063f621cc48906024016020604051808303816000875af1158015612f3e573d6000803e3d6000fd5b505050506040513d601f19601f82011682018060405250810190612f629190614f59565b1580612fee5750610199546001600160a01b03166001600160a01b0316637a6d4b596040518163ffffffff1660e01b81526004016020604051808303816000875af1158015612fb5573d6000803e3d6000fd5b505050506040513d601f19601f82011682018060405250810190612fd9919061521c565b6001600160a01b0316826001600160a01b0316145b80613077575061019a546001600160a01b03166001600160a01b0316633d8a66a86040518163ffffffff1660e01b8152600401602060405180830381865afa15801561303e573d6000803e3d6000fd5b505050506040513d601f19601f82011682018060405250810190613062919061521c565b6001600160a01b0316826001600160a01b0316145b15613095576040516396bd0ed560e01b815260040160405180910390fd5b61019a546001600160a01b03166001600160a01b031663dac885616040518163ffffffff1660e01b8152600401602060405180830381865afa1580156130df573d6000803e3d6000fd5b505050506040513d601f19601f820116820180604052508101906131039190614f59565b1561312157604051632bc2c01360e21b815260040160405180910390fd5b80600003610f0657604051633298b3e360e01b815260040160405180910390fd5b6000806000806131528a8a613a47565b9250925092507f00000000000000000000000000000000000000000000000000000000000000006001600160a01b0316632a2d80d1338a8a8a6040518563ffffffff1660e01b81526004016131aa9493929190615278565b600060405180830381600087803b1580156131c457600080fd5b505af19250505080156131d5575060015b6132be578860005b818110156132bb578b8b828181106131f7576131f7614f33565b9050602002013584828151811061321057613210614f33565b6020908102919091010151604051636eb1769f60e11b81523360048201523060248201526001600160a01b039091169063dd62ed3e90604401602060405180830381865afa158015613266573d6000803e3d6000fd5b505050506040513d601f19601f8201168201806040525081019061328a9190614f74565b10156132a9576040516313be252b60e01b815260040160405180910390fd5b806132b381614fb6565b9150506131dd565b50505b6132ce85848c8c86866001613afd565b9a9950505050505050505050565b60006132e760cb5490565b90506000816000036133cd57610199546001600160a01b03166001600160a01b031663ef69183e6040518163ffffffff1660e01b8152600401602060405180830381865afa15801561333d573d6000803e3d6000fd5b505050506040513d601f19601f820116820180604052508101906133619190614f74565b905061337661019b546001600160a01b031690565b6001600160a01b031663acc777326040518163ffffffff1660e01b8152600401600060405180830381600087803b1580156133b057600080fd5b505af11580156133c4573d6000803e3d6000fd5b505050506133da565b6133d78383613ea4565b90505b6133e48582613f47565b90506133f08185614139565b60006133fb8661100e565b905081866001600160a01b0316306001600160a01b03167ff5681f9d0db1b911ac18ee83d515a1cf1051853a9eae418316a2fdf7dea427c58460405161344391815260200190565b60405180910390a4505050505050565b6001600160a01b038316158061347057506001600160a01b038216155b1561347a57505050565b610199546001600160a01b03166001600160a01b031663d823c5ce6040518163ffffffff1660e01b81526004016020604051808303816000875af11580156134c6573d6000803e3d6000fd5b505050506040513d601f19601f820116820180604052508101906134ea9190614f59565b806135e25750610199546001600160a01b03166001600160a01b03166392ff0d316040518163ffffffff1660e01b81526004016020604051808303816000875af115801561353c573d6000803e3d6000fd5b505050506040513d601f19601f820116820180604052508101906135609190614f59565b80156135e25750610199546001600160a01b0316604051631ec4398960e31b81526001600160a01b038481166004830152919091169063f621cc48906024016020604051808303816000875af11580156135be573d6000803e3d6000fd5b505050506040513d601f19601f820116820180604052508101906135e29190614f59565b6135ff5760405163359d0ceb60e01b815260040160405180910390fd5b610b7d83612b78565b6001600160a01b03831661362857610b7d826136238461100e565b61415a565b6001600160a01b03821661364357610b7d836136238561100e565b613650836136238561100e565b610b7d826136238461100e565b6001600160a01b0381163b6136ca5760405162461bcd60e51b815260206004820152602d60248201527f455243313936373a206e657720696d706c656d656e746174696f6e206973206e60448201526c1bdd08184818dbdb9d1c9858dd609a1b6064820152608401610bca565b6000805160206154e983398151915280546001600160a01b0319166001600160a01b0392909216919091179055565b613702836141bd565b60008251118061370f5750805b15610b7d5761145583836141fd565b600054610100900460ff166137455760405162461bcd60e51b8152600401610bca906151be565b61103b336125f5565b600054610100900460ff166137755760405162461bcd60e51b8152600401610bca906151be565b610f068282614222565b600054610100900460ff166137a65760405162461bcd60e51b8152600401610bca906151be565b61103b614262565b6000806000806137be8686613a47565b9250925092506137d48784888886866000613afd565b979650505050505050565b600080831180156123125750610199546001600160a01b03166001600160a01b0316637a6d4b596040518163ffffffff1660e01b81526004016020604051808303816000875af1158015613837573d6000803e3d6000fd5b505050506040513d601f19601f8201168201806040525081019061385b919061521c565b6001600160a01b0316826001600160a01b031614806138f8575061019a546001600160a01b03166001600160a01b0316633d8a66a86040518163ffffffff1660e01b8152600401602060405180830381865afa1580156138bf573d6000803e3d6000fd5b505050506040513d601f19601f820116820180604052508101906138e3919061521c565b6001600160a01b0316826001600160a01b0316145b159392505050565b6001600160a01b0382166139605760405162461bcd60e51b815260206004820152602160248201527f45524332303a206275726e2066726f6d20746865207a65726f206164647265736044820152607360f81b6064820152608401610bca565b61396c82600083613453565b6001600160a01b038216600090815260c96020526040902054818110156139e05760405162461bcd60e51b815260206004820152602260248201527f45524332303a206275726e20616d6f756e7420657863656564732062616c616e604482015261636560f01b6064820152608401610bca565b6001600160a01b038316600081815260c960209081526040808320868603905560cb80548790039055518581529192917fddf252ad1be2c89b69c2b068fc378daa952ba7f163c4a11628f55a4df523b3ef910160405180910390a3610b7d83600084613608565b60006060806000858590509050600060fe805480602002602001604051908101604052809291908181526020018280548015613aac57602002820191906000526020600020905b81546001600160a01b03168152600190910190602001808311613a8e575b5050505050905080518214613ad4576040516369f9527360e11b815260040160405180910390fd5b60ff54600090613aee9083906001600160a01b031661136e565b92989197509195509350505050565b600080876001600160401b03811115613b1857613b186149d1565b604051908082528060200260200182016040528015613b41578160200160208202803683370190505b509050613b4d60cb5490565b600003613cd65760005b88811015613c92576000888883818110613b7357613b73614f33565b90506020020135905080838381518110613b8f57613b8f614f33565b60200260200101818152505080600003613bbc5760405163d11b25af60e01b815260040160405180910390fd5b8415613beb57613be68b888481518110613bd857613bd8614f33565b602002602001015183614289565b613c0f565b613c0f8b888481518110613c0157613c01614f33565b602002602001015183614336565b6000613c42888481518110613c2657613c26614f33565b602090810291909101015160ff546001600160a01b0316612647565b9050868381518110613c5657613c56614f33565b60200260200101518111613c7d576040516312171d8360e31b815260040160405180910390fd5b50508080613c8a90614fb6565b915050613b57565b507f9d31a060746f9525066d524e97ebde55535755e618ed9742729f170efde314ec8186604051613cc49291906153a2565b60405180910390a160009150506137d4565b6000613d1588886000818110613cee57613cee614f33565b9050602002013586600081518110613d0857613d08614f33565b6020026020010151614350565b905060015b89811015613d74576000613d528a8a84818110613d3957613d39614f33565b90506020020135888481518110613d0857613d08614f33565b9050613d5e8184614390565b9250508080613d6c90614fb6565b915050613d1a565b506000600019815b8b811015613e5b576000898281518110613d9857613d98614f33565b602002602001015190506000898381518110613db657613db6614f33565b60200260200101519050670de0b6b3a76400008187613dd5919061515a565b613ddf9190615171565b945084878481518110613df457613df4614f33565b6020026020010181815250508815613e1657613e118f8387614289565b613e21565b613e218f8387614336565b60ff54613e44908290613e3e9085906001600160a01b0316612647565b866143a6565b935050508080613e5390614fb6565b915050613d7c565b507f9d31a060746f9525066d524e97ebde55535755e618ed9742729f170efde314ec8489604051613e8d9291906153a2565b60405180910390a19b9a5050505050505050505050565b600080613eb184846143d1565b9050613ec6610199546001600160a01b031690565b6001600160a01b03166317db494b6040518163ffffffff1660e01b8152600401602060405180830381865afa158015613f03573d6000803e3d6000fd5b505050506040513d601f19601f82011682018060405250810190613f279190614f74565b81101561231257604051638b78cd9f60e01b815260040160405180910390fd5b600080613f5d610199546001600160a01b031690565b6001600160a01b031663072ea61c6040518163ffffffff1660e01b8152600401602060405180830381865afa158015613f9a573d6000803e3d6000fd5b505050506040513d601f19601f82011682018060405250810190613fbe9190614f74565b9050613fca81856137df565b156140535761019b546001600160a01b0316604051632ec1d28b60e11b815260048101859052602481018390526001600160a01b039190911690635d83a516906044016020604051808303816000875af115801561402c573d6000803e3d6000fd5b505050506040513d601f19601f820116820180604052508101906140509190614f74565b92505b61405d84846124c6565b6141086140698561100e565b8461407d61019a546001600160a01b031690565b6001600160a01b03166304646a496040518163ffffffff1660e01b8152600401602060405180830381865afa1580156140ba573d6000803e3d6000fd5b505050506040513d601f19601f820116820180604052508101906140de9190614f74565b6001600160a01b038816600090815260fd602090815260408083205460fc9092529091205461441e565b6001600160a01b038516600090815260fd602090815260408083209390935560fc9052204290555081905092915050565b81811115610f065760405163199f5a0360e31b815260040160405180910390fd5b61013554604051634a9e86a560e11b81526001600160a01b038481166004830152602482018490529091169063953d0d4a90604401600060405180830381600087803b1580156141a957600080fd5b505af115801561088b573d6000803e3d6000fd5b6141c68161365d565b6040516001600160a01b038216907fbc7cd75a20ee27fd9adebab32041f755214dbc6bffa90cc0225b39da2e5c2d3b90600090a250565b60606123128383604051806060016040528060278152602001615509602791396144d5565b600054610100900460ff166142495760405162461bcd60e51b8152600401610bca906151be565b60cc614255838261540d565b5060cd610b7d828261540d565b600054610100900460ff16611d575760405162461bcd60e51b8152600401610bca906151be565b60ff546001600160a01b037f00000000000000000000000000000000000000000000000000000000000000008116916336c78516918691166142ca8561454d565b6040516001600160e01b031960e086901b1681526001600160a01b0393841660048201529183166024830152821660448201529085166064820152608401600060405180830381600087803b15801561432257600080fd5b505af1158015612b6f573d6000803e3d6000fd5b60ff54610b7d90839085906001600160a01b03168461457b565b60008160000361437357604051633ba269b760e21b815260040160405180910390fd5b81614386670de0b6b3a76400008561515a565b6123129190615171565b600081831061439f5781612312565b5090919050565b6000806143bc6143b68686615209565b85614350565b90506143c88184614390565b95945050505050565b6000806143e684670de0b6b3a7640000615209565b905080600003614409576040516323d359a360e01b815260040160405180910390fd5b80614414848661515a565b610b249190615171565b60008061442b8484614fa3565b9050600061443982426146b1565b905086880361445857861561444e5785614451565b60005b92506144ca565b86158061446457508086105b15614471578092506144ca565b600061447d888a615209565b905060008961448c848461515a565b6144968a8c61515a565b6144a09190614fa3565b6144aa9190615171565b90508781116144c3576144be8160016146cc565b6144c5565b875b945050505b505095945050505050565b6060600080856001600160a01b0316856040516144f291906154cc565b600060405180830381855af49150503d806000811461452d576040519150601f19603f3d011682016040523d82523d6000602084013e614532565b606091505b5091509150614543868383876146db565b9695505050505050565b60006001600160a01b0382111561457757604051630861c1ef60e01b815260040160405180910390fd5b5090565b604080516001600160a01b0385811660248301528481166044830152606480830185905283518084039091018152608490920183526020820180516001600160e01b03166323b872dd60e01b17905291516000928392908816916145df91906154cc565b6000604051808303816000865af19150503d806000811461461c576040519150601f19603f3d011682016040523d82523d6000602084013e614621565b606091505b509150915081801561464b57508051158061464b57508080602001905181019061464b9190614f59565b61088b5760405162461bcd60e51b815260206004820152603160248201527f5472616e7366657248656c7065723a3a7472616e7366657246726f6d3a207472604482015270185b9cd9995c919c9bdb4819985a5b1959607a1b6064820152608401610bca565b6000818311156146c45750808203610939565b506000610939565b600081831161439f5781612312565b6060831561474a578251600003614743576001600160a01b0385163b6147435760405162461bcd60e51b815260206004820152601d60248201527f416464726573733a2063616c6c20746f206e6f6e2d636f6e74726163740000006044820152606401610bca565b5081610b24565b610b24838381511561475f5781518083602001fd5b8060405162461bcd60e51b8152600401610bca919061496d565b8280548282559060005260206000209081019282156147cc579160200282015b828111156147cc5781546001600160a01b0319166001600160a01b03843516178255602090920191600190910190614799565b506145779291505b8082111561457757600081556001016147d4565b6000602082840312156147fa57600080fd5b5035919050565b60008083601f84011261481357600080fd5b5081356001600160401b0381111561482a57600080fd5b6020830191508360208260051b850101111561484557600080fd5b9250929050565b6000806000806000806080878903121561486557600080fd5b86356001600160401b038082111561487c57600080fd5b6148888a838b01614801565b90985096506020890135955060408901359150808211156148a857600080fd5b908801906060828b0312156148bc57600080fd5b909350606088013590808211156148d257600080fd5b818901915089601f8301126148e657600080fd5b8135818111156148f557600080fd5b8a602082850101111561490757600080fd5b6020830194508093505050509295509295509295565b60005b83811015614938578181015183820152602001614920565b50506000910152565b6000815180845261495981602086016020860161491d565b601f01601f19169290920160200192915050565b6020815260006123126020830184614941565b6001600160a01b038116811461086657600080fd5b80356149a081614980565b919050565b600080604083850312156149b857600080fd5b82356149c381614980565b946020939093013593505050565b634e487b7160e01b600052604160045260246000fd5b604051601f8201601f191681016001600160401b0381118282101715614a0f57614a0f6149d1565b604052919050565b600082601f830112614a2857600080fd5b813560206001600160401b03821115614a4357614a436149d1565b8160051b614a528282016149e7565b9283528481018201928281019087851115614a6c57600080fd5b83870192505b848310156137d4578235614a8581614980565b82529183019190830190614a72565b60008060008060808587031215614aaa57600080fd5b8435614ab581614980565b935060208501356001600160401b03811115614ad057600080fd5b614adc87828801614a17565b935050604085013591506060850135614af481614980565b939692955090935050565b600080600060608486031215614b1457600080fd5b8335614b1f81614980565b92506020840135614b2f81614980565b929592945050506040919091013590565b600060208284031215614b5257600080fd5b813561231281614980565b60008060208385031215614b7057600080fd5b82356001600160401b03811115614b8657600080fd5b614b9285828601614801565b90969095509350505050565b60006001600160401b03821115614bb757614bb76149d1565b50601f01601f191660200190565b60008060408385031215614bd857600080fd5b8235614be381614980565b915060208301356001600160401b03811115614bfe57600080fd5b8301601f81018513614c0f57600080fd5b8035614c22614c1d82614b9e565b6149e7565b818152866020838501011115614c3757600080fd5b816020840160208301376000602083830101528093505050509250929050565b60008060408385031215614c6a57600080fd5b82356001600160401b03811115614c8057600080fd5b614c8c85828601614a17565b9250506020830135614c9d81614980565b809150509250929050565b600081518084526020808501945080840160005b83811015614cd857815187529582019590820190600101614cbc565b509495945050505050565b6020815260006123126020830184614ca8565b60008060008060808587031215614d0c57600080fd5b8435614d1781614980565b93506020850135614d2781614980565b92506040850135915060608501356001600160401b03811115614d4957600080fd5b614d5587828801614a17565b91505092959194509250565b600081518084526020808501945080840160005b83811015614cd85781516001600160a01b031687529582019590820190600101614d75565b6020815260006123126020830184614d61565b600060208284031215614dbf57600080fd5b81356001600160401b03811115614dd557600080fd5b8201610120818503121561231257600080fd5b60008060008060608587031215614dfe57600080fd5b8435614e0981614980565b935060208501356001600160401b03811115614e2457600080fd5b614e3087828801614801565b9598909750949560400135949350505050565b600080600060608486031215614e5857600080fd5b8335614e6381614980565b9250602084013591506040840135614e7a81614980565b809150509250925092565b60008060408385031215614e9857600080fd5b8235915060208301356001600160401b03811115614eb557600080fd5b614ec185828601614a17565b9150509250929050565b60008060408385031215614ede57600080fd5b8235614ee981614980565b91506020830135614c9d81614980565b600181811c90821680614f0d57607f821691505b602082108103614f2d57634e487b7160e01b600052602260045260246000fd5b50919050565b634e487b7160e01b600052603260045260246000fd5b805180151581146149a057600080fd5b600060208284031215614f6b57600080fd5b61231282614f49565b600060208284031215614f8657600080fd5b5051919050565b634e487b7160e01b600052601160045260246000fd5b8082018082111561093957610939614f8d565b600060018201614fc857614fc8614f8d565b5060010190565b6020808252602c908201527f46756e6374696f6e206d7573742062652063616c6c6564207468726f7567682060408201526b19195b1959d85d1958d85b1b60a21b606082015260800190565b6020808252602c908201527f46756e6374696f6e206d7573742062652063616c6c6564207468726f7567682060408201526b6163746976652070726f787960a01b606082015260800190565b6001600160a01b0383168152604060208201819052600090610b2490830184614941565b6000806040838503121561509e57600080fd5b6150a783614f49565b915060208301516001600160401b038111156150c257600080fd5b8301601f810185136150d357600080fd5b80516150e1614c1d82614b9e565b8181528660208385010111156150f657600080fd5b61510782602083016020860161491d565b8093505050509250929050565b6000808335601e1984360301811261512b57600080fd5b8301803591506001600160401b0382111561514557600080fd5b60200191503681900382131561484557600080fd5b808202811582820484141761093957610939614f8d565b60008261518e57634e487b7160e01b600052601260045260246000fd5b500490565b6060815260006151a66060830186614d61565b84602084015282810360408401526145438185614ca8565b6020808252602b908201527f496e697469616c697a61626c653a20636f6e7472616374206973206e6f74206960408201526a6e697469616c697a696e6760a81b606082015260800190565b8181038181111561093957610939614f8d565b60006020828403121561522e57600080fd5b815161231281614980565b803565ffffffffffff811681146149a057600080fd5b81835281816020850137506000828201602090810191909152601f909101601f19169091010190565b6001600160a01b038581168252606060208084018290526000929060c085018835368a9003601e190181126152ac57600080fd5b890182810190356001600160401b038111156152c757600080fd5b8060071b36038213156152d957600080fd5b878601869052918290529060009060e088015b818310156153585783356152ff81614980565b861681528385013561531081614980565b8616818601526040615323858201615239565b65ffffffffffff808216838501528061533d8b8901615239565b16848b015250505060809384019360019390930192016152ec565b615363858d01614995565b6001600160a01b03811660808b0152965060408c013560a08a015288810360408a0152615391818b8d61524f565b9d9c50505050505050505050505050565b6040815260006153b56040830185614ca8565b82810360208401526143c88185614d61565b601f821115610b7d57600081815260208120601f850160051c810160208610156153ee5750805b601f850160051c820191505b8181101561088b578281556001016153fa565b81516001600160401b03811115615426576154266149d1565b61543a816154348454614ef9565b846153c7565b602080601f83116001811461546f57600084156154575750858301515b600019600386901b1c1916600185901b17855561088b565b600085815260208120601f198616915b8281101561549e5788860151825594840194600190910190840161547f565b50858210156154bc5787850151600019600388901b60f8161c191681555b5050505050600190811b01905550565b600082516154de81846020870161491d565b919091019291505056fe360894a13ba1a3210667c828492db98dca3e2076cc3735a920a3ca505d382bbc416464726573733a206c6f772d6c6576656c2064656c65676174652063616c6c206661696c6564a26469706673582212202b23a389e9a77f8212eb841155d51c2b58d0c386e421dec94e16da5e2b0bc33064736f6c63430008110033",
  "linkReferences": {},
  "deployedLinkReferences": {}
}