{
  "_format": "hh-sol-artifact-1",
  "contractName": "RebalancingConfig",
  "sourceName": "contracts/rebalance/RebalancingConfig.sol",
  "abi": [
    {
      "inputs": [],
      "name": "InvalidAddress",
      "type": "error"
    },
    {
      "anonymous": false,
      "inputs": [
        {
          "indexed": false,
          "internalType": "uint8",
          "name": "version",
          "type": "uint8"
        }
      ],
      "name": "Initialized",
      "type": "event"
    },
    {
      "inputs": [],
      "name": "accessController",
      "outputs": [
        {
          "internalType": "contract IAccessController",
          "name": "",
          "type": "address"
        }
      ],
      "stateMutability": "view",
      "type": "function"
    },
    {
      "inputs": [],
      "name": "assetManagementConfig",
      "outputs": [
        {
          "internalType": "contract IAssetManagementConfig",
          "name": "",
          "type": "address"
        }
      ],
      "stateMutability": "view",
      "type": "function"
    },
    {
      "inputs": [
        {
          "internalType": "address[]",
          "name": "portfolioTokens",
          "type": "address[]"
        },
        {
          "internalType": "address",
          "name": "_vault",
          "type": "address"
        }
      ],
      "name": "getTokenBalancesOf",
      "outputs": [
        {
          "internalType": "uint256[]",
          "name": "vaultBalances",
          "type": "uint256[]"
        }
      ],
      "stateMutability": "view",
      "type": "function"
    },
    {
      "inputs": [],
      "name": "portfolio",
      "outputs": [
        {
          "internalType": "contract IPortfolio",
          "name": "",
          "type": "address"
        }
      ],
      "stateMutability": "view",
      "type": "function"
    },
    {
      "inputs": [],
      "name": "protocolConfig",
      "outputs": [
        {
          "internalType": "contract IProtocolConfig",
          "name": "",
          "type": "address"
        }
      ],
      "stateMutability": "view",
      "type": "function"
    },
    {
      "inputs": [
        {
          "internalType": "address",
          "name": "",
          "type": "address"
        }
      ],
      "name": "tokensMapping",
      "outputs": [
        {
          "internalType": "bool",
          "name": "",
          "type": "bool"
        }
      ],
      "stateMutability": "view",
      "type": "function"
    }
  ],
  "bytecode": "0x608060405234801561001057600080fd5b5061047a806100206000396000f3fe608060405234801561001057600080fd5b50600436106100625760003560e01c806316ede01614610067578063264e303c1461009d5780633d70015a146100b057806393005a5a146100e3578063bc43cbaf14610103578063f5efbb4f14610116575b600080fd5b600054610080906201000090046001600160a01b031681565b6040516001600160a01b0390911681526020015b60405180910390f35b600354610080906001600160a01b031681565b6100d36100be3660046102a2565b60056020526000908152604090205460ff1681565b6040519015158152602001610094565b6100f66100f13660046102d3565b610129565b60405161009491906103aa565b600154610080906001600160a01b031681565b600254610080906001600160a01b031681565b81516060908067ffffffffffffffff811115610147576101476102bd565b604051908082528060200260200182016040528015610170578160200160208202803683370190505b50915060005b818110156101d0576101a1858281518110610193576101936103ee565b6020026020010151856101d8565b8382815181106101b3576101b36103ee565b6020908102919091010152806101c881610404565b915050610176565b505092915050565b60006001600160a01b03831615806101f757506001600160a01b038216155b156102155760405163e6c4247b60e01b815260040160405180910390fd5b6040516370a0823160e01b81526001600160a01b0383811660048301528416906370a0823190602401602060405180830381865afa15801561025b573d6000803e3d6000fd5b505050506040513d601f19601f8201168201806040525081019061027f919061042b565b9392505050565b80356001600160a01b038116811461029d57600080fd5b919050565b6000602082840312156102b457600080fd5b61027f82610286565b634e487b7160e01b600052604160045260246000fd5b600080604083850312156102e657600080fd5b823567ffffffffffffffff808211156102fe57600080fd5b818501915085601f83011261031257600080fd5b8135602082821115610326576103266102bd565b8160051b604051601f19603f8301168101818110868211171561034b5761034b6102bd565b60405292835281830193508481018201928984111561036957600080fd5b948201945b8386101561038e5761037f86610286565b8552948201949382019361036e565b965061039d9050878201610286565b9450505050509250929050565b6020808252825182820181905260009190848201906040850190845b818110156103e2578351835292840192918401916001016103c6565b50909695505050505050565b634e487b7160e01b600052603260045260246000fd5b60006001820161042457634e487b7160e01b600052601160045260246000fd5b5060010190565b60006020828403121561043d57600080fd5b505191905056fea2646970667358221220a9806743e5a4740075a679e7be3013b76b01b24af1d8cd79ddba11164d8dfac064736f6c63430008110033",
  "linkReferences": {},
  "deployedLinkReferences": {}
}