{
  "_format": "hh-sol-artifact-1",
  "contractName": "TokenBalanceLibrary",
  "sourceName": "contracts/core/calculations/TokenBalanceLibrary.sol",
  "abi": [
    {
      "inputs": [],
      "name": "InvalidAddress",
      "type": "error"
    },
    {
      "inputs": [
        {
          "internalType": "address[]",
          "name": "portfolioTokens",
          "type": "address[]"
        },
        {
          "internalType": "address",
          "name": "_vault",
          "type": "address"
        }
      ],
      "name": "getTokenBalancesOf",
      "outputs": [
        {
          "internalType": "uint256[]",
          "name": "vaultBalances",
          "type": "uint256[]"
        }
      ],
      "stateMutability": "view",
      "type": "function"
    }
  ],
  "bytecode": "0x608060405234801561001057600080fd5b5061038f806100206000396000f3fe608060405234801561001057600080fd5b506004361061002b5760003560e01c806393005a5a14610030575b600080fd5b61004361003e3660046101e8565b610059565b60405161005091906102bf565b60405180910390f35b81516060908067ffffffffffffffff811115610077576100776101b6565b6040519080825280602002602001820160405280156100a0578160200160208202803683370190505b50915060005b81811015610100576100d18582815181106100c3576100c3610303565b602002602001015185610108565b8382815181106100e3576100e3610303565b6020908102919091010152806100f881610319565b9150506100a6565b505092915050565b60006001600160a01b038316158061012757506001600160a01b038216155b156101455760405163e6c4247b60e01b815260040160405180910390fd5b6040516370a0823160e01b81526001600160a01b0383811660048301528416906370a0823190602401602060405180830381865afa15801561018b573d6000803e3d6000fd5b505050506040513d601f19601f820116820180604052508101906101af9190610340565b9392505050565b634e487b7160e01b600052604160045260246000fd5b80356001600160a01b03811681146101e357600080fd5b919050565b600080604083850312156101fb57600080fd5b823567ffffffffffffffff8082111561021357600080fd5b818501915085601f83011261022757600080fd5b813560208282111561023b5761023b6101b6565b8160051b604051601f19603f83011681018181108682111715610260576102606101b6565b60405292835281830193508481018201928984111561027e57600080fd5b948201945b838610156102a357610294866101cc565b85529482019493820193610283565b96506102b290508782016101cc565b9450505050509250929050565b6020808252825182820181905260009190848201906040850190845b818110156102f7578351835292840192918401916001016102db565b50909695505050505050565b634e487b7160e01b600052603260045260246000fd5b60006001820161033957634e487b7160e01b600052601160045260246000fd5b5060010190565b60006020828403121561035257600080fd5b505191905056fea264697066735822122075eef205359500a784e69fbcf44a9bf76e7dc900f8af26707a6727551fbbc2f564736f6c63430008110033",
  "linkReferences": {},
  "deployedLinkReferences": {}
}