{
  "_format": "hh-sol-artifact-1",
  "contractName": "TokenRemovalVault",
  "sourceName": "contracts/vault/TokenRemovalVault.sol",
  "abi": [
    {
      "inputs": [],
      "name": "AmountCannotBeZero",
      "type": "error"
    },
    {
      "anonymous": false,
      "inputs": [
        {
          "indexed": false,
          "internalType": "uint8",
          "name": "version",
          "type": "uint8"
        }
      ],
      "name": "Initialized",
      "type": "event"
    },
    {
      "anonymous": false,
      "inputs": [
        {
          "indexed": true,
          "internalType": "address",
          "name": "previousOwner",
          "type": "address"
        },
        {
          "indexed": true,
          "internalType": "address",
          "name": "newOwner",
          "type": "address"
        }
      ],
      "name": "OwnershipTransferred",
      "type": "event"
    },
    {
      "inputs": [],
      "name": "init",
      "outputs": [],
      "stateMutability": "nonpayable",
      "type": "function"
    },
    {
      "inputs": [],
      "name": "owner",
      "outputs": [
        {
          "internalType": "address",
          "name": "",
          "type": "address"
        }
      ],
      "stateMutability": "view",
      "type": "function"
    },
    {
      "inputs": [],
      "name": "renounceOwnership",
      "outputs": [],
      "stateMutability": "nonpayable",
      "type": "function"
    },
    {
      "inputs": [
        {
          "internalType": "address",
          "name": "newOwner",
          "type": "address"
        }
      ],
      "name": "transferOwnership",
      "outputs": [],
      "stateMutability": "nonpayable",
      "type": "function"
    },
    {
      "inputs": [
        {
          "internalType": "address",
          "name": "_token",
          "type": "address"
        },
        {
          "internalType": "address",
          "name": "_to",
          "type": "address"
        },
        {
          "internalType": "uint256",
          "name": "_amount",
          "type": "uint256"
        }
      ],
      "name": "withdrawTokens",
      "outputs": [],
      "stateMutability": "nonpayable",
      "type": "function"
    }
  ],
  "bytecode": "0x608060405234801561001057600080fd5b5061060f806100206000396000f3fe608060405234801561001057600080fd5b50600436106100575760003560e01c80635e35359e1461005c578063715018a6146100715780638da5cb5b14610079578063e1c7392a14610098578063f2fde38b146100a0575b600080fd5b61006f61006a3660046104df565b6100b3565b005b61006f6100ec565b603354604080516001600160a01b039092168252519081900360200190f35b61006f610100565b61006f6100ae36600461051b565b610216565b6100bb61028c565b806000036100dc5760405163d11b25af60e01b815260040160405180910390fd5b6100e78383836102e6565b505050565b6100f461028c565b6100fe6000610417565b565b600054610100900460ff16158080156101205750600054600160ff909116105b8061013a5750303b15801561013a575060005460ff166001145b6101a25760405162461bcd60e51b815260206004820152602e60248201527f496e697469616c697a61626c653a20636f6e747261637420697320616c72656160448201526d191e481a5b9a5d1a585b1a5e995960921b60648201526084015b60405180910390fd5b6000805460ff1916600117905580156101c5576000805461ff0019166101001790555b6101cd610469565b8015610213576000805461ff0019169055604051600181527f7f26b83ff96e1f2b6a682f133852f6798a09c465da95921460cefb38474024989060200160405180910390a15b50565b61021e61028c565b6001600160a01b0381166102835760405162461bcd60e51b815260206004820152602660248201527f4f776e61626c653a206e6577206f776e657220697320746865207a65726f206160448201526564647265737360d01b6064820152608401610199565b61021381610417565b6033546001600160a01b031633146100fe5760405162461bcd60e51b815260206004820181905260248201527f4f776e61626c653a2063616c6c6572206973206e6f7420746865206f776e65726044820152606401610199565b604080516001600160a01b038481166024830152604480830185905283518084039091018152606490920183526020820180516001600160e01b031663a9059cbb60e01b1790529151600092839290871691610342919061053d565b6000604051808303816000865af19150503d806000811461037f576040519150601f19603f3d011682016040523d82523d6000602084013e610384565b606091505b50915091508180156103ae5750805115806103ae5750808060200190518101906103ae919061056c565b6104105760405162461bcd60e51b815260206004820152602d60248201527f5472616e7366657248656c7065723a3a736166655472616e736665723a20747260448201526c185b9cd9995c8819985a5b1959609a1b6064820152608401610199565b5050505050565b603380546001600160a01b038381166001600160a01b0319831681179093556040519116919082907f8be0079c531659141344cd1fd0a4f28419497f9722a3daafe3b4186f6b6457e090600090a35050565b600054610100900460ff166104905760405162461bcd60e51b81526004016101999061058e565b6100fe600054610100900460ff166104ba5760405162461bcd60e51b81526004016101999061058e565b6100fe33610417565b80356001600160a01b03811681146104da57600080fd5b919050565b6000806000606084860312156104f457600080fd5b6104fd846104c3565b925061050b602085016104c3565b9150604084013590509250925092565b60006020828403121561052d57600080fd5b610536826104c3565b9392505050565b6000825160005b8181101561055e5760208186018101518583015201610544565b506000920191825250919050565b60006020828403121561057e57600080fd5b8151801515811461053657600080fd5b6020808252602b908201527f496e697469616c697a61626c653a20636f6e7472616374206973206e6f74206960408201526a6e697469616c697a696e6760a81b60608201526080019056fea26469706673582212208cdad7d4282998f2394f9b0bd4884536e7699bf8968fe3fdd224d28c6862463a64736f6c63430008110033",
  "linkReferences": {},
  "deployedLinkReferences": {}
}