{
  "_format": "hh-sol-artifact-1",
  "contractName": "TokenExclusionManager",
  "sourceName": "contracts/core/management/TokenExclusionManager.sol",
  "abi": [
    {
      "inputs": [],
      "stateMutability": "nonpayable",
      "type": "constructor"
    },
    {
      "inputs": [],
      "name": "CallerNotPortfolioManager",
      "type": "error"
    },
    {
      "inputs": [],
      "name": "InvalidAddress",
      "type": "error"
    },
    {
      "inputs": [],
      "name": "InvalidId",
      "type": "error"
    },
    {
      "inputs": [],
      "name": "NoTokensRemoved",
      "type": "error"
    },
    {
      "inputs": [],
      "name": "ProtocolIsPaused",
      "type": "error"
    },
    {
      "anonymous": false,
      "inputs": [
        {
          "indexed": false,
          "internalType": "address",
          "name": "previousAdmin",
          "type": "address"
        },
        {
          "indexed": false,
          "internalType": "address",
          "name": "newAdmin",
          "type": "address"
        }
      ],
      "name": "AdminChanged",
      "type": "event"
    },
    {
      "anonymous": false,
      "inputs": [
        {
          "indexed": true,
          "internalType": "address",
          "name": "beacon",
          "type": "address"
        }
      ],
      "name": "BeaconUpgraded",
      "type": "event"
    },
    {
      "anonymous": false,
      "inputs": [
        {
          "indexed": false,
          "internalType": "uint8",
          "name": "version",
          "type": "uint8"
        }
      ],
      "name": "Initialized",
      "type": "event"
    },
    {
      "anonymous": false,
      "inputs": [
        {
          "indexed": true,
          "internalType": "address",
          "name": "previousOwner",
          "type": "address"
        },
        {
          "indexed": true,
          "internalType": "address",
          "name": "newOwner",
          "type": "address"
        }
      ],
      "name": "OwnershipTransferred",
      "type": "event"
    },
    {
      "anonymous": false,
      "inputs": [
        {
          "indexed": true,
          "internalType": "uint256",
          "name": "snapshotId",
          "type": "uint256"
        }
      ],
      "name": "SnapShotCreated",
      "type": "event"
    },
    {
      "anonymous": false,
      "inputs": [
        {
          "indexed": true,
          "internalType": "address",
          "name": "token",
          "type": "address"
        },
        {
          "indexed": true,
          "internalType": "uint256",
          "name": "totalSupply",
          "type": "uint256"
        },
        {
          "indexed": false,
          "internalType": "uint256",
          "name": "atSnapshotId",
          "type": "uint256"
        }
      ],
      "name": "TokenRecordUpdated",
      "type": "event"
    },
    {
      "anonymous": false,
      "inputs": [
        {
          "indexed": true,
          "internalType": "address",
          "name": "implementation",
          "type": "address"
        }
      ],
      "name": "Upgraded",
      "type": "event"
    },
    {
      "anonymous": false,
      "inputs": [
        {
          "indexed": true,
          "internalType": "address",
          "name": "user",
          "type": "address"
        },
        {
          "indexed": true,
          "internalType": "uint256",
          "name": "claimedAtId",
          "type": "uint256"
        }
      ],
      "name": "UserClaimedToken",
      "type": "event"
    },
    {
      "anonymous": false,
      "inputs": [
        {
          "indexed": true,
          "internalType": "address",
          "name": "user",
          "type": "address"
        },
        {
          "indexed": true,
          "internalType": "uint256",
          "name": "startId",
          "type": "uint256"
        },
        {
          "indexed": true,
          "internalType": "uint256",
          "name": "endId",
          "type": "uint256"
        }
      ],
      "name": "UserClaimedTokenAtRange",
      "type": "event"
    },
    {
      "anonymous": false,
      "inputs": [
        {
          "indexed": true,
          "internalType": "address",
          "name": "user",
          "type": "address"
        },
        {
          "indexed": true,
          "internalType": "uint256",
          "name": "portfolioBalance",
          "type": "uint256"
        },
        {
          "indexed": true,
          "internalType": "uint256",
          "name": "atSnapshotId",
          "type": "uint256"
        }
      ],
      "name": "UserRecordUpdated",
      "type": "event"
    },
    {
      "inputs": [],
      "name": "_currentSnapshotId",
      "outputs": [
        {
          "internalType": "uint256",
          "name": "",
          "type": "uint256"
        }
      ],
      "stateMutability": "view",
      "type": "function"
    },
    {
      "inputs": [],
      "name": "accessController",
      "outputs": [
        {
          "internalType": "contract AccessController",
          "name": "",
          "type": "address"
        }
      ],
      "stateMutability": "view",
      "type": "function"
    },
    {
      "inputs": [
        {
          "internalType": "address",
          "name": "user",
          "type": "address"
        },
        {
          "internalType": "uint256",
          "name": "startId",
          "type": "uint256"
        },
        {
          "internalType": "uint256",
          "name": "endId",
          "type": "uint256"
        }
      ],
      "name": "claimRemovedTokens",
      "outputs": [],
      "stateMutability": "nonpayable",
      "type": "function"
    },
    {
      "inputs": [
        {
          "internalType": "address",
          "name": "user",
          "type": "address"
        },
        {
          "internalType": "uint256",
          "name": "id",
          "type": "uint256"
        }
      ],
      "name": "claimTokenAtId",
      "outputs": [],
      "stateMutability": "nonpayable",
      "type": "function"
    },
    {
      "inputs": [],
      "name": "deployTokenRemovalVault",
      "outputs": [
        {
          "internalType": "address",
          "name": "",
          "type": "address"
        }
      ],
      "stateMutability": "nonpayable",
      "type": "function"
    },
    {
      "inputs": [
        {
          "internalType": "address",
          "name": "user",
          "type": "address"
        },
        {
          "internalType": "uint256",
          "name": "id",
          "type": "uint256"
        }
      ],
      "name": "getDataAtId",
      "outputs": [
        {
          "internalType": "bool",
          "name": "",
          "type": "bool"
        },
        {
          "internalType": "uint256",
          "name": "",
          "type": "uint256"
        }
      ],
      "stateMutability": "view",
      "type": "function"
    },
    {
      "inputs": [
        {
          "internalType": "address",
          "name": "",
          "type": "address"
        },
        {
          "internalType": "uint256",
          "name": "",
          "type": "uint256"
        }
      ],
      "name": "hasUserClaimed",
      "outputs": [
        {
          "internalType": "bool",
          "name": "",
          "type": "bool"
        }
      ],
      "stateMutability": "view",
      "type": "function"
    },
    {
      "inputs": [
        {
          "internalType": "address",
          "name": "_accessController",
          "type": "address"
        },
        {
          "internalType": "address",
          "name": "_protocolConfig",
          "type": "address"
        },
        {
          "internalType": "address",
          "name": "_baseTokenRemovalVaultImplementation",
          "type": "address"
        }
      ],
      "name": "init",
      "outputs": [],
      "stateMutability": "nonpayable",
      "type": "function"
    },
    {
      "inputs": [],
      "name": "owner",
      "outputs": [
        {
          "internalType": "address",
          "name": "",
          "type": "address"
        }
      ],
      "stateMutability": "view",
      "type": "function"
    },
    {
      "inputs": [],
      "name": "protocolConfig",
      "outputs": [
        {
          "internalType": "contract IProtocolConfig",
          "name": "",
          "type": "address"
        }
      ],
      "stateMutability": "view",
      "type": "function"
    },
    {
      "inputs": [],
      "name": "proxiableUUID",
      "outputs": [
        {
          "internalType": "bytes32",
          "name": "",
          "type": "bytes32"
        }
      ],
      "stateMutability": "view",
      "type": "function"
    },
    {
      "inputs": [
        {
          "internalType": "uint256",
          "name": "",
          "type": "uint256"
        }
      ],
      "name": "removedToken",
      "outputs": [
        {
          "internalType": "address",
          "name": "token",
          "type": "address"
        },
        {
          "internalType": "address",
          "name": "vault",
          "type": "address"
        },
        {
          "internalType": "uint256",
          "name": "totalSupply",
          "type": "uint256"
        }
      ],
      "stateMutability": "view",
      "type": "function"
    },
    {
      "inputs": [],
      "name": "renounceOwnership",
      "outputs": [],
      "stateMutability": "nonpayable",
      "type": "function"
    },
    {
      "inputs": [
        {
          "internalType": "uint256",
          "name": "_snapShotId",
          "type": "uint256"
        },
        {
          "internalType": "address",
          "name": "_tokenRemoved",
          "type": "address"
        },
        {
          "internalType": "address",
          "name": "_vault",
          "type": "address"
        },
        {
          "internalType": "uint256",
          "name": "_totalSupply",
          "type": "uint256"
        }
      ],
      "name": "setTokenAndSupplyRecord",
      "outputs": [],
      "stateMutability": "nonpayable",
      "type": "function"
    },
    {
      "inputs": [
        {
          "internalType": "address",
          "name": "_user",
          "type": "address"
        },
        {
          "internalType": "uint256",
          "name": "_userBalance",
          "type": "uint256"
        }
      ],
      "name": "setUserRecord",
      "outputs": [],
      "stateMutability": "nonpayable",
      "type": "function"
    },
    {
      "inputs": [],
      "name": "snapshot",
      "outputs": [
        {
          "internalType": "uint256",
          "name": "",
          "type": "uint256"
        }
      ],
      "stateMutability": "nonpayable",
      "type": "function"
    },
    {
      "inputs": [
        {
          "internalType": "address",
          "name": "newOwner",
          "type": "address"
        }
      ],
      "name": "transferOwnership",
      "outputs": [],
      "stateMutability": "nonpayable",
      "type": "function"
    },
    {
      "inputs": [
        {
          "internalType": "address",
          "name": "newImplementation",
          "type": "address"
        }
      ],
      "name": "upgradeTo",
      "outputs": [],
      "stateMutability": "nonpayable",
      "type": "function"
    },
    {
      "inputs": [
        {
          "internalType": "address",
          "name": "newImplementation",
          "type": "address"
        },
        {
          "internalType": "bytes",
          "name": "data",
          "type": "bytes"
        }
      ],
      "name": "upgradeToAndCall",
      "outputs": [],
      "stateMutability": "payable",
      "type": "function"
    },
    {
      "inputs": [
        {
          "internalType": "address",
          "name": "",
          "type": "address"
        },
        {
          "internalType": "uint256",
          "name": "",
          "type": "uint256"
        }
      ],
      "name": "userRecord",
      "outputs": [
        {
          "internalType": "uint256",
          "name": "portfolioBalance",
          "type": "uint256"
        },
        {
          "internalType": "bool",
          "name": "hasInteractedWithId",
          "type": "bool"
        }
      ],
      "stateMutability": "view",
      "type": "function"
    }
  ],
  "bytecode": "0x60a06040523060805234801561001457600080fd5b5061001d610022565b6100e1565b600054610100900460ff161561008e5760405162461bcd60e51b815260206004820152602760248201527f496e697469616c697a61626c653a20636f6e747261637420697320696e697469604482015266616c697a696e6760c81b606482015260840160405180910390fd5b60005460ff908116146100df576000805460ff191660ff9081179091556040519081527f7f26b83ff96e1f2b6a682f133852f6798a09c465da95921460cefb38474024989060200160405180910390a15b565b608051611d866101186000396000818161073b0152818161077b0152818161081a0152818161085a01526108ed0152611d866000f3fe60806040526004361061011f5760003560e01c8063715018a6116100a0578063bc43cbaf11610064578063bc43cbaf146103c0578063d199e986146103e0578063f2fde38b14610400578063f35524f514610420578063f5efbb4f1461043657600080fd5b8063715018a6146103385780638da5cb5b1461034d5780638ea13ce81461036b578063953d0d4a1461038b5780639711715a146103ab57600080fd5b80634f1ef286116100e75780634f1ef2861461025e57806352d1902d146102715780635b89c6cd146102945780635c81883d146102eb5780635cbe4fb71461030b57600080fd5b8063184b9559146101245780631fffa53a1461014657806328c0d00214610182578063351c1709146101f25780633659cfe61461023e575b600080fd5b34801561013057600080fd5b5061014461013f3660046118dc565b610456565b005b34801561015257600080fd5b5061016661016136600461191f565b61061a565b6040805192151583526020830191909152015b60405180910390f35b34801561018e57600080fd5b506101cc61019d366004611949565b610101602052600090815260409020805460018201546002909201546001600160a01b03918216929091169083565b604080516001600160a01b03948516815293909216602084015290820152606001610179565b3480156101fe57600080fd5b5061022e61020d36600461191f565b61010060209081526000928352604080842090915290825290205460ff1681565b6040519015158152602001610179565b34801561024a57600080fd5b50610144610259366004611962565b610731565b61014461026c366004611993565b610810565b34801561027d57600080fd5b506102866108e0565b604051908152602001610179565b3480156102a057600080fd5b506102d66102af36600461191f565b60ff6020818152600093845260408085209091529183529120805460019091015490911682565b60408051928352901515602083015201610179565b3480156102f757600080fd5b5061014461030636600461191f565b610993565b34801561031757600080fd5b50610320610a1c565b6040516001600160a01b039091168152602001610179565b34801561034457600080fd5b50610144610ae6565b34801561035957600080fd5b506033546001600160a01b0316610320565b34801561037757600080fd5b50610144610386366004611a55565b610afa565b34801561039757600080fd5b506101446103a636600461191f565b610bd1565b3480156103b757600080fd5b50610286610c70565b3480156103cc57600080fd5b5060fb54610320906001600160a01b031681565b3480156103ec57600080fd5b506101446103fb366004611a99565b610d0f565b34801561040c57600080fd5b5061014461041b366004611962565b610ea3565b34801561042c57600080fd5b5061028660fd5481565b34801561044257600080fd5b5060fc54610320906001600160a01b031681565b600054610100900460ff16158080156104765750600054600160ff909116105b806104905750303b158015610490575060005460ff166001145b6104f85760405162461bcd60e51b815260206004820152602e60248201527f496e697469616c697a61626c653a20636f6e747261637420697320616c72656160448201526d191e481a5b9a5d1a585b1a5e995960921b60648201526084015b60405180910390fd5b6000805460ff19166001179055801561051b576000805461ff0019166101001790555b610523610f19565b61052b610f48565b610533610f77565b6001600160a01b038416158061055057506001600160a01b038316155b1561056e5760405163e6c4247b60e01b815260040160405180910390fd5b60fb80546001600160a01b038087166001600160a01b03199283161790925560fc80549286169290911691909117905560fd80549060006105ae83611ae2565b909155505060fe80546001600160a01b0319166001600160a01b0384161790558015610614576000805461ff0019169055604051600181527f7f26b83ff96e1f2b6a682f133852f6798a09c465da95921460cefb38474024989060200160405180910390a15b50505050565b6001600160a01b038216600090815261010060209081526040808320848452909152812054819060ff16156106545750600090508061072a565b6001600160a01b038416600090815260ff602081815260408084208785528252928390208351808501909452805484526001015490911615159082018190526107225760006106a4600186611afb565b90505b8015610714576001600160a01b038616600090815260ff602081815260408084208585528252928390208351808501909452805484526001015490911615801591830191909152610701575160019450925061072a915050565b508061070c81611b0e565b9150506106a7565b50600080925092505061072a565b516001925090505b9250929050565b6001600160a01b037f00000000000000000000000000000000000000000000000000000000000000001630036107795760405162461bcd60e51b81526004016104ef90611b25565b7f00000000000000000000000000000000000000000000000000000000000000006001600160a01b03166107c2600080516020611d0a833981519152546001600160a01b031690565b6001600160a01b0316146107e85760405162461bcd60e51b81526004016104ef90611b71565b6107f181610f9e565b6040805160008082526020820190925261080d91839190610fa6565b50565b6001600160a01b037f00000000000000000000000000000000000000000000000000000000000000001630036108585760405162461bcd60e51b81526004016104ef90611b25565b7f00000000000000000000000000000000000000000000000000000000000000006001600160a01b03166108a1600080516020611d0a833981519152546001600160a01b031690565b6001600160a01b0316146108c75760405162461bcd60e51b81526004016104ef90611b71565b6108d082610f9e565b6108dc82826001610fa6565b5050565b6000306001600160a01b037f000000000000000000000000000000000000000000000000000000000000000016146109805760405162461bcd60e51b815260206004820152603860248201527f555550535570677261646561626c653a206d757374206e6f742062652063616c60448201527f6c6564207468726f7567682064656c656761746563616c6c000000000000000060648201526084016104ef565b50600080516020611d0a83398151915290565b61099b611111565b6001600160a01b0382166109c25760405163e6c4247b60e01b815260040160405180910390fd5b60fd5460028110156109e75760405163042962d360e51b815260040160405180910390fd5b808210610a0757604051631bf4348160e31b815260040160405180910390fd5b610a11838361116a565b506108dc6001606555565b6000610a5660405180604001604052806016815260200175504f5254464f4c494f5f4d414e414745525f524f4c4560501b815250336112c4565b610a735760405163fbfe535960e01b815260040160405180910390fd5b60fe54600090610a8b906001600160a01b031661134b565b9050806001600160a01b031663e1c7392a6040518163ffffffff1660e01b8152600401600060405180830381600087803b158015610ac857600080fd5b505af1158015610adc573d6000803e3d6000fd5b5092935050505090565b610aee6113e5565b610af8600061143f565b565b610b3260405180604001604052806016815260200175504f5254464f4c494f5f4d414e414745525f524f4c4560501b815250336112c4565b610b4f5760405163fbfe535960e01b815260040160405180910390fd5b6000848152610101602090815260409182902080546001600160a01b03199081166001600160a01b03888116918217845560018401805490931690881617909155600290910184905591518681528392917f781b34c75e5388a8bc79c906c437c0eae71fd2af154908f085219b7995ea94b8910160405180910390a350505050565b610c0960405180604001604052806016815260200175504f5254464f4c494f5f4d414e414745525f524f4c4560501b815250336112c4565b610c265760405163fbfe535960e01b815260040160405180910390fd5b610c33828260fd54611491565b60fd5460405182906001600160a01b038516907ffeb344882d05de97e313ba702cc42d69ff774a2a3f06ff07a6c475df94a1182790600090a45050565b6000610caa60405180604001604052806016815260200175504f5254464f4c494f5f4d414e414745525f524f4c4560501b815250336112c4565b610cc75760405163fbfe535960e01b815260040160405180910390fd5b60fd8054906000610cd783611ae2565b909155505060fd546040517f88f09f91299b8e7511663a6faec38d8b57fd3c717a5074abfa61eea7adba553a90600090a25060fd5490565b610d17611111565b60fc60009054906101000a90046001600160a01b03166001600160a01b03166320e460316040518163ffffffff1660e01b8152600401602060405180830381865afa158015610d6a573d6000803e3d6000fd5b505050506040513d601f19601f82011682018060405250810190610d8e9190611bbd565b15610dac57604051632bc2c01360e21b815260040160405180910390fd5b6001600160a01b038316610dd35760405163e6c4247b60e01b815260040160405180910390fd5b60fd546002811015610df85760405163042962d360e51b815260040160405180910390fd5b81831180610e065750808210155b15610e2457604051631bf4348160e31b815260040160405180910390fd5b6000610e31836001611be6565b9050835b81811015610e5957610e47868261116a565b80610e5181611ae2565b915050610e35565b508084866001600160a01b03167f94078e58e2f3cf7b1245956f2672cb7f87b0eef0ed2464590a3ab16163550b9660405160405180910390a45050610e9e6001606555565b505050565b610eab6113e5565b6001600160a01b038116610f105760405162461bcd60e51b815260206004820152602660248201527f4f776e61626c653a206e6577206f776e657220697320746865207a65726f206160448201526564647265737360d01b60648201526084016104ef565b61080d8161143f565b600054610100900460ff16610f405760405162461bcd60e51b81526004016104ef90611bf9565b610af86114cd565b600054610100900460ff16610f6f5760405162461bcd60e51b81526004016104ef90611bf9565b610af86114fd565b600054610100900460ff16610af85760405162461bcd60e51b81526004016104ef90611bf9565b61080d6113e5565b7f4910fdfa16fed3260ed0e7147f7cc6da11a60208b5b9406d12a635614ffd91435460ff1615610fd957610e9e83611524565b826001600160a01b03166352d1902d6040518163ffffffff1660e01b8152600401602060405180830381865afa925050508015611033575060408051601f3d908101601f1916820190925261103091810190611c44565b60015b6110965760405162461bcd60e51b815260206004820152602e60248201527f45524331393637557067726164653a206e657720696d706c656d656e7461746960448201526d6f6e206973206e6f74205555505360901b60648201526084016104ef565b600080516020611d0a83398151915281146111055760405162461bcd60e51b815260206004820152602960248201527f45524331393637557067726164653a20756e737570706f727465642070726f786044820152681a58589b195555525160ba1b60648201526084016104ef565b50610e9e8383836115c0565b6002606554036111635760405162461bcd60e51b815260206004820152601f60248201527f5265656e7472616e637947756172643a207265656e7472616e742063616c6c0060448201526064016104ef565b6002606555565b600080611177848461061a565b915091508180156111885750600081115b156106145760008381526101016020908152604091829020825160608101845281546001600160a01b0390811680835260018401549091169382019390935260029091015492810183905291906111e281888887866115e5565b6001600160a01b0387166000908152610100602090815260408083208984529091528120805460ff1916600190811790915561121f908890611be6565b6001600160a01b038916600090815260ff60208181526040808420858552909152909120600101549192501661125a5761125a888683611491565b6001600160a01b038816600081815260ff602090815260408083208b8452909152808220828155600101805460ff19169055518992917f5ff3281652afa39429d76d70d780340afc835758126f2e9907a90335a24dba2c91a35050505050505050565b6001606555565b60fb5482516020840120604051632474521560e21b815260048101919091526001600160a01b03838116602483015260009216906391d1485490604401602060405180830381865afa15801561131e573d6000803e3d6000fd5b505050506040513d601f19601f820116820180604052508101906113429190611bbd565b90505b92915050565b6000763d602d80600a3d3981f3363d3d373d3d3d363d730000008260601b60e81c176000526e5af43d82803e903d91602b57fd5bf38260781b17602052603760096000f090506001600160a01b0381166113e05760405162461bcd60e51b8152602060048201526016602482015275115490cc4c4d8dce8818dc99585d194819985a5b195960521b60448201526064016104ef565b919050565b6033546001600160a01b03163314610af85760405162461bcd60e51b815260206004820181905260248201527f4f776e61626c653a2063616c6c6572206973206e6f7420746865206f776e657260448201526064016104ef565b603380546001600160a01b038381166001600160a01b0319831681179093556040519116919082907f8be0079c531659141344cd1fd0a4f28419497f9722a3daafe3b4186f6b6457e090600090a35050565b6001600160a01b0392909216600090815260ff60209081526040808320948352939052919091209081556001908101805460ff19169091179055565b600054610100900460ff166114f45760405162461bcd60e51b81526004016104ef90611bf9565b610af83361143f565b600054610100900460ff166112bd5760405162461bcd60e51b81526004016104ef90611bf9565b6001600160a01b0381163b6115915760405162461bcd60e51b815260206004820152602d60248201527f455243313936373a206e657720696d706c656d656e746174696f6e206973206e60448201526c1bdd08184818dbdb9d1c9858dd609a1b60648201526084016104ef565b600080516020611d0a83398151915280546001600160a01b0319166001600160a01b0392909216919091179055565b6115c983611742565b6000825111806115d65750805b15610e9e576106148383611782565b600083815261010160209081526040808320815160608101835281546001600160a01b0390811680835260018401549091169482018590526002909201548184015291516370a0823160e01b815260048101939093529092916370a0823190602401602060405180830381865afa158015611664573d6000803e3d6000fd5b505050506040513d601f19601f820116820180604052508101906116889190611c44565b90506000836116978684611c5d565b6116a19190611c74565b6020840151604051632f1a9acf60e11b81526001600160a01b038b811660048301528a81166024830152604482018490529293509091821690635e35359e90606401600060405180830381600087803b1580156116fd57600080fd5b505af1158015611711573d6000803e3d6000fd5b5050505085856117219190611afb565b60009788526101016020526040909720600201969096555050505050505050565b61174b81611524565b6040516001600160a01b038216907fbc7cd75a20ee27fd9adebab32041f755214dbc6bffa90cc0225b39da2e5c2d3b90600090a250565b60606113428383604051806060016040528060278152602001611d2a602791396060600080856001600160a01b0316856040516117bf9190611cba565b600060405180830381855af49150503d80600081146117fa576040519150601f19603f3d011682016040523d82523d6000602084013e6117ff565b606091505b50915091506118108683838761181a565b9695505050505050565b60608315611889578251600003611882576001600160a01b0385163b6118825760405162461bcd60e51b815260206004820152601d60248201527f416464726573733a2063616c6c20746f206e6f6e2d636f6e747261637400000060448201526064016104ef565b5081611893565b611893838361189b565b949350505050565b8151156118ab5781518083602001fd5b8060405162461bcd60e51b81526004016104ef9190611cd6565b80356001600160a01b03811681146113e057600080fd5b6000806000606084860312156118f157600080fd5b6118fa846118c5565b9250611908602085016118c5565b9150611916604085016118c5565b90509250925092565b6000806040838503121561193257600080fd5b61193b836118c5565b946020939093013593505050565b60006020828403121561195b57600080fd5b5035919050565b60006020828403121561197457600080fd5b611342826118c5565b634e487b7160e01b600052604160045260246000fd5b600080604083850312156119a657600080fd5b6119af836118c5565b9150602083013567ffffffffffffffff808211156119cc57600080fd5b818501915085601f8301126119e057600080fd5b8135818111156119f2576119f261197d565b604051601f8201601f19908116603f01168101908382118183101715611a1a57611a1a61197d565b81604052828152886020848701011115611a3357600080fd5b8260208601602083013760006020848301015280955050505050509250929050565b60008060008060808587031215611a6b57600080fd5b84359350611a7b602086016118c5565b9250611a89604086016118c5565b9396929550929360600135925050565b600080600060608486031215611aae57600080fd5b611ab7846118c5565b95602085013595506040909401359392505050565b634e487b7160e01b600052601160045260246000fd5b600060018201611af457611af4611acc565b5060010190565b8181038181111561134557611345611acc565b600081611b1d57611b1d611acc565b506000190190565b6020808252602c908201527f46756e6374696f6e206d7573742062652063616c6c6564207468726f7567682060408201526b19195b1959d85d1958d85b1b60a21b606082015260800190565b6020808252602c908201527f46756e6374696f6e206d7573742062652063616c6c6564207468726f7567682060408201526b6163746976652070726f787960a01b606082015260800190565b600060208284031215611bcf57600080fd5b81518015158114611bdf57600080fd5b9392505050565b8082018082111561134557611345611acc565b6020808252602b908201527f496e697469616c697a61626c653a20636f6e7472616374206973206e6f74206960408201526a6e697469616c697a696e6760a81b606082015260800190565b600060208284031215611c5657600080fd5b5051919050565b808202811582820484141761134557611345611acc565b600082611c9157634e487b7160e01b600052601260045260246000fd5b500490565b60005b83811015611cb1578181015183820152602001611c99565b50506000910152565b60008251611ccc818460208701611c96565b9190910192915050565b6020815260008251806020840152611cf5816040850160208701611c96565b601f01601f1916919091016040019291505056fe360894a13ba1a3210667c828492db98dca3e2076cc3735a920a3ca505d382bbc416464726573733a206c6f772d6c6576656c2064656c65676174652063616c6c206661696c6564a264697066735822122029402a76ccd9faf1042993b728515f764fe1c4664b3dac17fc42ba5535ac0c1164736f6c63430008110033",
  "linkReferences": {},
  "deployedLinkReferences": {}
}