{
  "_format": "hh-sol-artifact-1",
  "contractName": "TokenExclusionManagerV3_2",
  "sourceName": "contracts/mock/upgradeability/TokenExclusionManagerV3_2.sol",
  "abi": [
    {
      "inputs": [],
      "stateMutability": "nonpayable",
      "type": "constructor"
    },
    {
      "inputs": [],
      "name": "CallerNotPortfolioManager",
      "type": "error"
    },
    {
      "inputs": [],
      "name": "InvalidAddress",
      "type": "error"
    },
    {
      "inputs": [],
      "name": "NoTokensRemoved",
      "type": "error"
    },
    {
      "anonymous": false,
      "inputs": [
        {
          "indexed": false,
          "internalType": "address",
          "name": "previousAdmin",
          "type": "address"
        },
        {
          "indexed": false,
          "internalType": "address",
          "name": "newAdmin",
          "type": "address"
        }
      ],
      "name": "AdminChanged",
      "type": "event"
    },
    {
      "anonymous": false,
      "inputs": [
        {
          "indexed": true,
          "internalType": "address",
          "name": "beacon",
          "type": "address"
        }
      ],
      "name": "BeaconUpgraded",
      "type": "event"
    },
    {
      "anonymous": false,
      "inputs": [
        {
          "indexed": false,
          "internalType": "uint8",
          "name": "version",
          "type": "uint8"
        }
      ],
      "name": "Initialized",
      "type": "event"
    },
    {
      "anonymous": false,
      "inputs": [
        {
          "indexed": true,
          "internalType": "address",
          "name": "previousOwner",
          "type": "address"
        },
        {
          "indexed": true,
          "internalType": "address",
          "name": "newOwner",
          "type": "address"
        }
      ],
      "name": "OwnershipTransferred",
      "type": "event"
    },
    {
      "anonymous": false,
      "inputs": [
        {
          "indexed": false,
          "internalType": "uint256",
          "name": "snapshotId",
          "type": "uint256"
        }
      ],
      "name": "SnapShotCreated",
      "type": "event"
    },
    {
      "anonymous": false,
      "inputs": [
        {
          "indexed": false,
          "internalType": "address",
          "name": "token",
          "type": "address"
        },
        {
          "indexed": false,
          "internalType": "uint256",
          "name": "tokenBalance",
          "type": "uint256"
        },
        {
          "indexed": false,
          "internalType": "uint256",
          "name": "totalSupply",
          "type": "uint256"
        },
        {
          "indexed": false,
          "internalType": "uint256",
          "name": "atSnapshotId",
          "type": "uint256"
        }
      ],
      "name": "TokenRecordUpdated",
      "type": "event"
    },
    {
      "anonymous": false,
      "inputs": [
        {
          "indexed": true,
          "internalType": "address",
          "name": "implementation",
          "type": "address"
        }
      ],
      "name": "Upgraded",
      "type": "event"
    },
    {
      "anonymous": false,
      "inputs": [
        {
          "indexed": false,
          "internalType": "address",
          "name": "user",
          "type": "address"
        },
        {
          "indexed": false,
          "internalType": "uint256",
          "name": "claimedTill",
          "type": "uint256"
        }
      ],
      "name": "UserClaimedToken",
      "type": "event"
    },
    {
      "anonymous": false,
      "inputs": [
        {
          "indexed": false,
          "internalType": "address",
          "name": "user",
          "type": "address"
        },
        {
          "indexed": false,
          "internalType": "uint256",
          "name": "portfolioBalance",
          "type": "uint256"
        },
        {
          "indexed": false,
          "internalType": "uint256",
          "name": "atSnapshotId",
          "type": "uint256"
        }
      ],
      "name": "UserRecordUpdated",
      "type": "event"
    },
    {
      "inputs": [],
      "name": "_currentSnapshotId",
      "outputs": [
        {
          "internalType": "uint256",
          "name": "",
          "type": "uint256"
        }
      ],
      "stateMutability": "view",
      "type": "function"
    },
    {
      "inputs": [],
      "name": "_newSnapShotId",
      "outputs": [
        {
          "internalType": "uint256",
          "name": "",
          "type": "uint256"
        }
      ],
      "stateMutability": "view",
      "type": "function"
    },
    {
      "inputs": [],
      "name": "accessController",
      "outputs": [
        {
          "internalType": "contract AccessController",
          "name": "",
          "type": "address"
        }
      ],
      "stateMutability": "view",
      "type": "function"
    },
    {
      "inputs": [
        {
          "internalType": "address",
          "name": "user",
          "type": "address"
        }
      ],
      "name": "claimRemovedTokens",
      "outputs": [],
      "stateMutability": "nonpayable",
      "type": "function"
    },
    {
      "inputs": [
        {
          "internalType": "address",
          "name": "_accessController",
          "type": "address"
        },
        {
          "internalType": "address",
          "name": "_protocolConfig",
          "type": "address"
        }
      ],
      "name": "init",
      "outputs": [],
      "stateMutability": "nonpayable",
      "type": "function"
    },
    {
      "inputs": [
        {
          "internalType": "address",
          "name": "",
          "type": "address"
        }
      ],
      "name": "lastClaimedRemovedTokenId",
      "outputs": [
        {
          "internalType": "uint256",
          "name": "",
          "type": "uint256"
        }
      ],
      "stateMutability": "view",
      "type": "function"
    },
    {
      "inputs": [],
      "name": "owner",
      "outputs": [
        {
          "internalType": "address",
          "name": "",
          "type": "address"
        }
      ],
      "stateMutability": "view",
      "type": "function"
    },
    {
      "inputs": [],
      "name": "protocolConfig",
      "outputs": [
        {
          "internalType": "contract IProtocolConfig",
          "name": "",
          "type": "address"
        }
      ],
      "stateMutability": "view",
      "type": "function"
    },
    {
      "inputs": [],
      "name": "proxiableUUID",
      "outputs": [
        {
          "internalType": "bytes32",
          "name": "",
          "type": "bytes32"
        }
      ],
      "stateMutability": "view",
      "type": "function"
    },
    {
      "inputs": [
        {
          "internalType": "uint256",
          "name": "",
          "type": "uint256"
        }
      ],
      "name": "removedToken",
      "outputs": [
        {
          "internalType": "address",
          "name": "token",
          "type": "address"
        },
        {
          "internalType": "uint256",
          "name": "balanceAtRemoval",
          "type": "uint256"
        }
      ],
      "stateMutability": "view",
      "type": "function"
    },
    {
      "inputs": [],
      "name": "renounceOwnership",
      "outputs": [],
      "stateMutability": "nonpayable",
      "type": "function"
    },
    {
      "inputs": [
        {
          "internalType": "uint256",
          "name": "_snapShotId",
          "type": "uint256"
        },
        {
          "internalType": "uint256",
          "name": "_balanceAtRemoval",
          "type": "uint256"
        },
        {
          "internalType": "address",
          "name": "_tokenRemoved",
          "type": "address"
        },
        {
          "internalType": "uint256",
          "name": "_totalSupply",
          "type": "uint256"
        }
      ],
      "name": "setTokenAndSupplyRecord",
      "outputs": [],
      "stateMutability": "nonpayable",
      "type": "function"
    },
    {
      "inputs": [
        {
          "internalType": "address",
          "name": "_user",
          "type": "address"
        },
        {
          "internalType": "uint256",
          "name": "_userBalance",
          "type": "uint256"
        }
      ],
      "name": "setUserRecord",
      "outputs": [],
      "stateMutability": "nonpayable",
      "type": "function"
    },
    {
      "inputs": [],
      "name": "snapshot",
      "outputs": [
        {
          "internalType": "uint256",
          "name": "",
          "type": "uint256"
        }
      ],
      "stateMutability": "nonpayable",
      "type": "function"
    },
    {
      "inputs": [
        {
          "internalType": "uint256",
          "name": "",
          "type": "uint256"
        }
      ],
      "name": "totalSupplyRecord",
      "outputs": [
        {
          "internalType": "uint256",
          "name": "",
          "type": "uint256"
        }
      ],
      "stateMutability": "view",
      "type": "function"
    },
    {
      "inputs": [
        {
          "internalType": "address",
          "name": "newOwner",
          "type": "address"
        }
      ],
      "name": "transferOwnership",
      "outputs": [],
      "stateMutability": "nonpayable",
      "type": "function"
    },
    {
      "inputs": [
        {
          "internalType": "address",
          "name": "newImplementation",
          "type": "address"
        }
      ],
      "name": "upgradeTo",
      "outputs": [],
      "stateMutability": "nonpayable",
      "type": "function"
    },
    {
      "inputs": [
        {
          "internalType": "address",
          "name": "newImplementation",
          "type": "address"
        },
        {
          "internalType": "bytes",
          "name": "data",
          "type": "bytes"
        }
      ],
      "name": "upgradeToAndCall",
      "outputs": [],
      "stateMutability": "payable",
      "type": "function"
    },
    {
      "inputs": [
        {
          "internalType": "address",
          "name": "",
          "type": "address"
        },
        {
          "internalType": "uint256",
          "name": "",
          "type": "uint256"
        }
      ],
      "name": "userRecord",
      "outputs": [
        {
          "internalType": "uint256",
          "name": "portfolioBalance",
          "type": "uint256"
        },
        {
          "internalType": "bool",
          "name": "hasInteractedWithId",
          "type": "bool"
        }
      ],
      "stateMutability": "view",
      "type": "function"
    }
  ],
  "bytecode": "0x60a06040523060805234801561001457600080fd5b5061001d610022565b6100e1565b600054610100900460ff161561008e5760405162461bcd60e51b815260206004820152602760248201527f496e697469616c697a61626c653a20636f6e747261637420697320696e697469604482015266616c697a696e6760c81b606482015260840160405180910390fd5b60005460ff908116146100df576000805460ff191660ff9081179091556040519081527f7f26b83ff96e1f2b6a682f133852f6798a09c465da95921460cefb38474024989060200160405180910390a15b565b60805161189b6101186000396000818161060801528181610651015281816106ed0152818161072d01526107c0015261189b6000f3fe6080604052600436106101145760003560e01c80638da5cb5b116100a0578063d0d9953211610064578063d0d995321461034d578063f09a40161461037b578063f2fde38b1461039b578063f35524f5146103bb578063f5efbb4f146103d157600080fd5b80638da5cb5b146102b0578063953d0d4a146102e25780639711715a14610302578063b56ff50414610317578063bc43cbaf1461032d57600080fd5b80634f1ef286116100e75780634f1ef286146101fc57806352d1902d1461020f5780635b89c6cd146102245780635f39880c1461027b578063715018a61461029b57600080fd5b80630de7324c146101195780630ea676831461013b57806328c0d0021461017c5780633659cfe6146101dc575b600080fd5b34801561012557600080fd5b50610139610134366004611452565b6103f1565b005b34801561014757600080fd5b50610169610156366004611452565b6101006020526000908152604090205481565b6040519081526020015b60405180910390f35b34801561018857600080fd5b506101bd61019736600461146d565b61010260205260009081526040902080546001909101546001600160a01b039091169082565b604080516001600160a01b039093168352602083019190915201610173565b3480156101e857600080fd5b506101396101f7366004611452565b6105fe565b61013961020a36600461149c565b6106e3565b34801561021b57600080fd5b506101696107b3565b34801561023057600080fd5b5061026661023f36600461155e565b60ff6020818152600093845260408085209091529183529120805460019091015490911682565b60408051928352901515602083015201610173565b34801561028757600080fd5b50610139610296366004611588565b610866565b3480156102a757600080fd5b50610139610946565b3480156102bc57600080fd5b506033546001600160a01b03165b6040516001600160a01b039091168152602001610173565b3480156102ee57600080fd5b506101396102fd36600461155e565b61095a565b34801561030e57600080fd5b50610169610a09565b34801561032357600080fd5b5061016960fe5481565b34801561033957600080fd5b5060fb546102ca906001600160a01b031681565b34801561035957600080fd5b5061016961036836600461146d565b6101016020526000908152604090205481565b34801561038757600080fd5b506101396103963660046115c5565b610ab7565b3480156103a757600080fd5b506101396103b6366004611452565b610c52565b3480156103c757600080fd5b5061016960fd5481565b3480156103dd57600080fd5b5060fc546102ca906001600160a01b031681565b6103f9610cc8565b6001600160a01b0381166104205760405163e6c4247b60e01b815260040160405180910390fd5b60fd5460028110156104455760405163042962d360e51b815260040160405180910390fd5b6001600160a01b03821660009081526101006020526040812054908061046c83600161160e565b90505b8381101561053b5760008181526101016020908152604080832054610102835281842080546001918201546001600160a01b038c8116885260ff8088528689208a8a52885297869020865180880190975280548752909301549096161580159585019590955291949116929091906105175780516001600160a01b038a16600090815260ff602090815260408083208984529091528120908155600101805460ff1916905595505b610524838a888588610d21565b50505050808061053390611621565b91505061046f565b506001600160a01b038416600090815260ff602081815260408084208785529091529091206001015416610573576105738482610d54565b61059f8461058260018661163a565b6001600160a01b0390911660009081526101006020526040902055565b7f5ff3281652afa39429d76d70d780340afc835758126f2e9907a90335a24dba2c846105cc60018661163a565b604080516001600160a01b03909316835260208301919091520160405180910390a15050506105fb600160c955565b50565b6001600160a01b037f000000000000000000000000000000000000000000000000000000000000000016300361064f5760405162461bcd60e51b81526004016106469061164d565b60405180910390fd5b7f00000000000000000000000000000000000000000000000000000000000000006001600160a01b031661069860008051602061181f833981519152546001600160a01b031690565b6001600160a01b0316146106be5760405162461bcd60e51b815260040161064690611699565b6106c781610d96565b604080516000808252602082019092526105fb91839190610d9e565b6001600160a01b037f000000000000000000000000000000000000000000000000000000000000000016300361072b5760405162461bcd60e51b81526004016106469061164d565b7f00000000000000000000000000000000000000000000000000000000000000006001600160a01b031661077460008051602061181f833981519152546001600160a01b031690565b6001600160a01b03161461079a5760405162461bcd60e51b815260040161064690611699565b6107a382610d96565b6107af82826001610d9e565b5050565b6000306001600160a01b037f000000000000000000000000000000000000000000000000000000000000000016146108535760405162461bcd60e51b815260206004820152603860248201527f555550535570677261646561626c653a206d757374206e6f742062652063616c60448201527f6c6564207468726f7567682064656c656761746563616c6c00000000000000006064820152608401610646565b5060008051602061181f83398151915290565b61089e60405180604001604052806016815260200175504f5254464f4c494f5f4d414e414745525f524f4c4560501b81525033610f09565b6108bb5760405163fbfe535960e01b815260040160405180910390fd5b60008481526101026020908152604080832080546001600160a01b0319166001600160a01b0387169081178255600190910187905561010183529281902084905580519283529082018590528101829052606081018590527f3ffedfdd762d08473b8dd0165a1d45f4794e09f8b9f3d45afa8b9297a0a66b459060800160405180910390a150505050565b61094e610f90565b6109586000610fea565b565b61099260405180604001604052806016815260200175504f5254464f4c494f5f4d414e414745525f524f4c4560501b81525033610f09565b6109af5760405163fbfe535960e01b815260040160405180910390fd5b6109b98282610d54565b60fd54604080516001600160a01b03851681526020810184905280820192909252517ffeb344882d05de97e313ba702cc42d69ff774a2a3f06ff07a6c475df94a118279181900360600190a15050565b6000610a4360405180604001604052806016815260200175504f5254464f4c494f5f4d414e414745525f524f4c4560501b81525033610f09565b610a605760405163fbfe535960e01b815260040160405180910390fd5b60fd8054906000610a7083611621565b91905055507f88f09f91299b8e7511663a6faec38d8b57fd3c717a5074abfa61eea7adba553a60fd54604051610aa891815260200190565b60405180910390a15060fd5490565b600054610100900460ff1615808015610ad75750600054600160ff909116105b80610af15750303b158015610af1575060005460ff166001145b610b545760405162461bcd60e51b815260206004820152602e60248201527f496e697469616c697a61626c653a20636f6e747261637420697320616c72656160448201526d191e481a5b9a5d1a585b1a5e995960921b6064820152608401610646565b6000805460ff191660011790558015610b77576000805461ff0019166101001790555b610b7f61103c565b610b8761106b565b6001600160a01b0383161580610ba457506001600160a01b038216155b15610bc25760405163e6c4247b60e01b815260040160405180910390fd5b60fb80546001600160a01b038086166001600160a01b03199283161790925560fc80549285169290911691909117905560fd8054906000610c0283611621565b91905055508015610c4d576000805461ff0019169055604051600181527f7f26b83ff96e1f2b6a682f133852f6798a09c465da95921460cefb38474024989060200160405180910390a15b505050565b610c5a610f90565b6001600160a01b038116610cbf5760405162461bcd60e51b815260206004820152602660248201527f4f776e61626c653a206e6577206f776e657220697320746865207a65726f206160448201526564647265737360d01b6064820152608401610646565b6105fb81610fea565b600260c95403610d1a5760405162461bcd60e51b815260206004820152601f60248201527f5265656e7472616e637947756172643a207265656e7472616e742063616c6c006044820152606401610646565b600260c955565b8215610d4d57600081610d3485856116e5565b610d3e91906116fc565b9050610d4b868683611092565b505b5050505050565b6001600160a01b0391909116600090815260ff6020908152604080832060fd80548552925280832093909355548152206001908101805460ff19169091179055565b6105fb610f90565b7f4910fdfa16fed3260ed0e7147f7cc6da11a60208b5b9406d12a635614ffd91435460ff1615610dd157610c4d836111bc565b826001600160a01b03166352d1902d6040518163ffffffff1660e01b8152600401602060405180830381865afa925050508015610e2b575060408051601f3d908101601f19168201909252610e289181019061171e565b60015b610e8e5760405162461bcd60e51b815260206004820152602e60248201527f45524331393637557067726164653a206e657720696d706c656d656e7461746960448201526d6f6e206973206e6f74205555505360901b6064820152608401610646565b60008051602061181f8339815191528114610efd5760405162461bcd60e51b815260206004820152602960248201527f45524331393637557067726164653a20756e737570706f727465642070726f786044820152681a58589b195555525160ba1b6064820152608401610646565b50610c4d838383611258565b60fb5482516020840120604051632474521560e21b815260048101919091526001600160a01b03838116602483015260009216906391d1485490604401602060405180830381865afa158015610f63573d6000803e3d6000fd5b505050506040513d601f19601f82011682018060405250810190610f879190611737565b90505b92915050565b6033546001600160a01b031633146109585760405162461bcd60e51b815260206004820181905260248201527f4f776e61626c653a2063616c6c6572206973206e6f7420746865206f776e65726044820152606401610646565b603380546001600160a01b038381166001600160a01b0319831681179093556040519116919082907f8be0079c531659141344cd1fd0a4f28419497f9722a3daafe3b4186f6b6457e090600090a35050565b600054610100900460ff166110635760405162461bcd60e51b815260040161064690611760565b610958611283565b600054610100900460ff166109585760405162461bcd60e51b815260040161064690611760565b604080516001600160a01b038481166024830152604480830185905283518084039091018152606490920183526020820180516001600160e01b031663a9059cbb60e01b17905291516000928392908716916110ee91906117cf565b6000604051808303816000865af19150503d806000811461112b576040519150601f19603f3d011682016040523d82523d6000602084013e611130565b606091505b509150915081801561115a57508051158061115a57508080602001905181019061115a9190611737565b610d4d5760405162461bcd60e51b815260206004820152602d60248201527f5472616e7366657248656c7065723a3a736166655472616e736665723a20747260448201526c185b9cd9995c8819985a5b1959609a1b6064820152608401610646565b6001600160a01b0381163b6112295760405162461bcd60e51b815260206004820152602d60248201527f455243313936373a206e657720696d706c656d656e746174696f6e206973206e60448201526c1bdd08184818dbdb9d1c9858dd609a1b6064820152608401610646565b60008051602061181f83398151915280546001600160a01b0319166001600160a01b0392909216919091179055565b611261836112b3565b60008251118061126e5750805b15610c4d5761127d83836112f3565b50505050565b600054610100900460ff166112aa5760405162461bcd60e51b815260040161064690611760565b61095833610fea565b6112bc816111bc565b6040516001600160a01b038216907fbc7cd75a20ee27fd9adebab32041f755214dbc6bffa90cc0225b39da2e5c2d3b90600090a250565b6060610f87838360405180606001604052806027815260200161183f602791396060600080856001600160a01b03168560405161133091906117cf565b600060405180830381855af49150503d806000811461136b576040519150601f19603f3d011682016040523d82523d6000602084013e611370565b606091505b50915091506113818683838761138b565b9695505050505050565b606083156113fa5782516000036113f3576001600160a01b0385163b6113f35760405162461bcd60e51b815260206004820152601d60248201527f416464726573733a2063616c6c20746f206e6f6e2d636f6e74726163740000006044820152606401610646565b5081611404565b611404838361140c565b949350505050565b81511561141c5781518083602001fd5b8060405162461bcd60e51b815260040161064691906117eb565b80356001600160a01b038116811461144d57600080fd5b919050565b60006020828403121561146457600080fd5b610f8782611436565b60006020828403121561147f57600080fd5b5035919050565b634e487b7160e01b600052604160045260246000fd5b600080604083850312156114af57600080fd5b6114b883611436565b9150602083013567ffffffffffffffff808211156114d557600080fd5b818501915085601f8301126114e957600080fd5b8135818111156114fb576114fb611486565b604051601f8201601f19908116603f0116810190838211818310171561152357611523611486565b8160405282815288602084870101111561153c57600080fd5b8260208601602083013760006020848301015280955050505050509250929050565b6000806040838503121561157157600080fd5b61157a83611436565b946020939093013593505050565b6000806000806080858703121561159e57600080fd5b84359350602085013592506115b560408601611436565b9396929550929360600135925050565b600080604083850312156115d857600080fd5b6115e183611436565b91506115ef60208401611436565b90509250929050565b634e487b7160e01b600052601160045260246000fd5b80820180821115610f8a57610f8a6115f8565b600060018201611633576116336115f8565b5060010190565b81810381811115610f8a57610f8a6115f8565b6020808252602c908201527f46756e6374696f6e206d7573742062652063616c6c6564207468726f7567682060408201526b19195b1959d85d1958d85b1b60a21b606082015260800190565b6020808252602c908201527f46756e6374696f6e206d7573742062652063616c6c6564207468726f7567682060408201526b6163746976652070726f787960a01b606082015260800190565b8082028115828204841417610f8a57610f8a6115f8565b60008261171957634e487b7160e01b600052601260045260246000fd5b500490565b60006020828403121561173057600080fd5b5051919050565b60006020828403121561174957600080fd5b8151801515811461175957600080fd5b9392505050565b6020808252602b908201527f496e697469616c697a61626c653a20636f6e7472616374206973206e6f74206960408201526a6e697469616c697a696e6760a81b606082015260800190565b60005b838110156117c65781810151838201526020016117ae565b50506000910152565b600082516117e18184602087016117ab565b9190910192915050565b602081526000825180602084015261180a8160408501602087016117ab565b601f01601f1916919091016040019291505056fe360894a13ba1a3210667c828492db98dca3e2076cc3735a920a3ca505d382bbc416464726573733a206c6f772d6c6576656c2064656c65676174652063616c6c206661696c6564a2646970667358221220533d4323e2d941e87bfae9b61eb88fd9abc262ab0aecc02318bb659a0e2ea3cf64736f6c63430008110033",
  "linkReferences": {},
  "deployedLinkReferences": {}
}