{
  "_format": "hh-sol-artifact-1",
  "contractName": "UniswapV2Handler",
  "sourceName": "contracts/mock/UniSwapV2Handler.sol",
  "abi": [
    {
      "inputs": [],
      "name": "InvalidAddress",
      "type": "error"
    },
    {
      "anonymous": false,
      "inputs": [
        {
          "indexed": false,
          "internalType": "uint8",
          "name": "version",
          "type": "uint8"
        }
      ],
      "name": "Initialized",
      "type": "event"
    },
    {
      "anonymous": false,
      "inputs": [
        {
          "indexed": true,
          "internalType": "address",
          "name": "previousOwner",
          "type": "address"
        },
        {
          "indexed": true,
          "internalType": "address",
          "name": "newOwner",
          "type": "address"
        }
      ],
      "name": "OwnershipTransferred",
      "type": "event"
    },
    {
      "inputs": [],
      "name": "DIVISOR_INT",
      "outputs": [
        {
          "internalType": "uint256",
          "name": "",
          "type": "uint256"
        }
      ],
      "stateMutability": "view",
      "type": "function"
    },
    {
      "inputs": [],
      "name": "getETH",
      "outputs": [
        {
          "internalType": "address",
          "name": "",
          "type": "address"
        }
      ],
      "stateMutability": "view",
      "type": "function"
    },
    {
      "inputs": [
        {
          "internalType": "address",
          "name": "crypto",
          "type": "address"
        }
      ],
      "name": "getPathForETH",
      "outputs": [
        {
          "internalType": "address[]",
          "name": "",
          "type": "address[]"
        }
      ],
      "stateMutability": "view",
      "type": "function"
    },
    {
      "inputs": [
        {
          "internalType": "address",
          "name": "_tokenIn",
          "type": "address"
        },
        {
          "internalType": "address",
          "name": "_tokenOut",
          "type": "address"
        }
      ],
      "name": "getPathForMultiToken",
      "outputs": [
        {
          "internalType": "address[]",
          "name": "",
          "type": "address[]"
        }
      ],
      "stateMutability": "pure",
      "type": "function"
    },
    {
      "inputs": [
        {
          "internalType": "address",
          "name": "_tokenIn",
          "type": "address"
        },
        {
          "internalType": "address",
          "name": "_tokenOut",
          "type": "address"
        }
      ],
      "name": "getPathForRewardToken",
      "outputs": [
        {
          "internalType": "address[]",
          "name": "",
          "type": "address[]"
        }
      ],
      "stateMutability": "view",
      "type": "function"
    },
    {
      "inputs": [
        {
          "internalType": "address",
          "name": "token",
          "type": "address"
        }
      ],
      "name": "getPathForToken",
      "outputs": [
        {
          "internalType": "address[]",
          "name": "",
          "type": "address[]"
        }
      ],
      "stateMutability": "view",
      "type": "function"
    },
    {
      "inputs": [],
      "name": "getSwapAddress",
      "outputs": [
        {
          "internalType": "address",
          "name": "",
          "type": "address"
        }
      ],
      "stateMutability": "view",
      "type": "function"
    },
    {
      "inputs": [
        {
          "internalType": "address",
          "name": "_router",
          "type": "address"
        }
      ],
      "name": "init",
      "outputs": [],
      "stateMutability": "nonpayable",
      "type": "function"
    },
    {
      "inputs": [],
      "name": "owner",
      "outputs": [
        {
          "internalType": "address",
          "name": "",
          "type": "address"
        }
      ],
      "stateMutability": "view",
      "type": "function"
    },
    {
      "inputs": [],
      "name": "renounceOwnership",
      "outputs": [],
      "stateMutability": "nonpayable",
      "type": "function"
    },
    {
      "inputs": [
        {
          "internalType": "uint256",
          "name": "_slippage",
          "type": "uint256"
        },
        {
          "internalType": "address",
          "name": "_t",
          "type": "address"
        },
        {
          "internalType": "address",
          "name": "_to",
          "type": "address"
        }
      ],
      "name": "swapETHToTokens",
      "outputs": [
        {
          "internalType": "uint256",
          "name": "swapResult",
          "type": "uint256"
        }
      ],
      "stateMutability": "payable",
      "type": "function"
    },
    {
      "inputs": [
        {
          "internalType": "uint256",
          "name": "_swapAmount",
          "type": "uint256"
        },
        {
          "internalType": "uint256",
          "name": "_slippage",
          "type": "uint256"
        },
        {
          "internalType": "address",
          "name": "_tokenIn",
          "type": "address"
        },
        {
          "internalType": "address",
          "name": "_tokenOut",
          "type": "address"
        },
        {
          "internalType": "address",
          "name": "_to",
          "type": "address"
        },
        {
          "internalType": "bool",
          "name": "isEnabled",
          "type": "bool"
        }
      ],
      "name": "swapTokenToTokens",
      "outputs": [
        {
          "internalType": "uint256",
          "name": "swapResult",
          "type": "uint256"
        }
      ],
      "stateMutability": "nonpayable",
      "type": "function"
    },
    {
      "inputs": [
        {
          "internalType": "uint256",
          "name": "_swapAmount",
          "type": "uint256"
        },
        {
          "internalType": "uint256",
          "name": "_slippage",
          "type": "uint256"
        },
        {
          "internalType": "address",
          "name": "_t",
          "type": "address"
        },
        {
          "internalType": "address",
          "name": "_to",
          "type": "address"
        },
        {
          "internalType": "bool",
          "name": "isEnabled",
          "type": "bool"
        }
      ],
      "name": "swapTokensToETH",
      "outputs": [
        {
          "internalType": "uint256",
          "name": "swapResult",
          "type": "uint256"
        }
      ],
      "stateMutability": "nonpayable",
      "type": "function"
    },
    {
      "inputs": [
        {
          "internalType": "address",
          "name": "newOwner",
          "type": "address"
        }
      ],
      "name": "transferOwnership",
      "outputs": [],
      "stateMutability": "nonpayable",
      "type": "function"
    }
  ],
  "bytecode": "0x608060405234801561001057600080fd5b5061001a3361001f565b61007a565b600080546001600160a01b038381166201000081810262010000600160b01b0319851617855560405193049190911692909183917f8be0079c531659141344cd1fd0a4f28419497f9722a3daafe3b4186f6b6457e091a35050565b611036806100896000396000f3fe6080604052600436106100dd5760003560e01c80637fd57b701161007f578063b0849c1c11610059578063b0849c1c1461023e578063b62598d71461025e578063ca0e7ed514610271578063f2fde38b1461029157600080fd5b80637fd57b70146101dc57806385811fbf146101fc5780638da5cb5b1461021a57600080fd5b8063305d442e116100bb578063305d442e146101645780636f013dcd1461017a578063715018a6146101a757806372ff17fa146101bc57600080fd5b80630a3ac6b7146100e257806314f6c3be1461011557806319ab453c14610142575b600080fd5b3480156100ee57600080fd5b506101026100fd366004610c77565b6102b1565b6040519081526020015b60405180910390f35b34801561012157600080fd5b5061012a61039f565b6040516001600160a01b03909116815260200161010c565b34801561014e57600080fd5b5061016261015d366004610cd6565b610412565b005b34801561017057600080fd5b5061010261271081565b34801561018657600080fd5b5061019a610195366004610cfa565b610563565b60405161010c9190610d77565b3480156101b357600080fd5b5061016261062c565b3480156101c857600080fd5b506101026101d7366004610d8a565b610640565b3480156101e857600080fd5b5061019a6101f7366004610cfa565b6107c6565b34801561020857600080fd5b506001546001600160a01b031661012a565b34801561022657600080fd5b506000546201000090046001600160a01b031661012a565b34801561024a57600080fd5b5061019a610259366004610cd6565b610833565b61010261026c366004610dfa565b6108c5565b34801561027d57600080fd5b5061019a61028c366004610cd6565b61097c565b34801561029d57600080fd5b506101626102ac366004610cd6565b6109f0565b6001546000906102cc9085906001600160a01b031688610a69565b6000826102da5760016102f1565b6102f187876102e88861097c565b50600192915050565b6001549091506001600160a01b03166318cbafe588836103108961097c565b88426040518663ffffffff1660e01b8152600401610332959493929190610e3c565b6000604051808303816000875af1158015610351573d6000803e3d6000fd5b505050506040513d6000823e601f3d908101601f191682016040526103799190810190610e8e565b60018151811061038b5761038b610f4c565b602002602001015191505095945050505050565b600154604080516315ab88c960e31b815290516000926001600160a01b03169163ad5c46489160048083019260209291908290030181865afa1580156103e9573d6000803e3d6000fd5b505050506040513d601f19601f8201168201806040525081019061040d9190610f62565b905090565b600054610100900460ff16158080156104325750600054600160ff909116105b8061044c5750303b15801561044c575060005460ff166001145b6104b45760405162461bcd60e51b815260206004820152602e60248201527f496e697469616c697a61626c653a20636f6e747261637420697320616c72656160448201526d191e481a5b9a5d1a585b1a5e995960921b60648201526084015b60405180910390fd5b6000805460ff1916600117905580156104d7576000805461ff0019166101001790555b6001600160a01b0382166104fe5760405163e6c4247b60e01b815260040160405180910390fd5b600180546001600160a01b0319166001600160a01b038416179055801561055f576000805461ff0019169055604051600181527f7f26b83ff96e1f2b6a682f133852f6798a09c465da95921460cefb38474024989060200160405180910390a15b5050565b6040805160038082526080820190925260609160009190602082018480368337019050509050838160008151811061059d5761059d610f4c565b60200260200101906001600160a01b031690816001600160a01b0316815250506105c561039f565b816001815181106105d8576105d8610f4c565b60200260200101906001600160a01b031690816001600160a01b031681525050828160028151811061060c5761060c610f4c565b6001600160a01b0390921660209283029190910190910152905092915050565b610634610b98565b61063e6000610bf9565b565b60015460009061065b9086906001600160a01b031689610a69565b8115610716576001546001600160a01b03166338ed173988610682818a6102e88b8b6107c6565b61068c89896107c6565b87426040518663ffffffff1660e01b81526004016106ae959493929190610e3c565b6000604051808303816000875af11580156106cd573d6000803e3d6000fd5b505050506040513d6000823e601f3d908101601f191682016040526106f59190810190610e8e565b60018151811061070757610707610f4c565b602002602001015190506107bc565b600180546001600160a01b0316906338ed17399089906107368989610563565b87426040518663ffffffff1660e01b8152600401610758959493929190610e3c565b6000604051808303816000875af1158015610777573d6000803e3d6000fd5b505050506040513d6000823e601f3d908101601f1916820160405261079f9190810190610e8e565b6002815181106107b1576107b1610f4c565b602002602001015190505b9695505050505050565b6040805160028082526060808301845292600092919060208301908036833701905050905083816000815181106107ff576107ff610f4c565b60200260200101906001600160a01b031690816001600160a01b031681525050828160018151811061060c5761060c610f4c565b6040805160028082526060808301845292600092919060208301908036833701905050905061086061039f565b8160008151811061087357610873610f4c565b60200260200101906001600160a01b031690816001600160a01b03168152505082816001815181106108a7576108a7610f4c565b6001600160a01b039092166020928302919091019091015292915050565b6001546000906001600160a01b0316637ff36ab5346108e881886102e889610833565b6108f187610833565b86426040518663ffffffff1660e01b81526004016109129493929190610f7f565b60006040518083038185885af1158015610930573d6000803e3d6000fd5b50505050506040513d6000823e601f3d908101601f191682016040526109599190810190610e8e565b60018151811061096b5761096b610f4c565b602002602001015190509392505050565b6040805160028082526060808301845292600092919060208301908036833701905050905082816000815181106109b5576109b5610f4c565b60200260200101906001600160a01b031690816001600160a01b0316815250506109dd61039f565b816001815181106108a7576108a7610f4c565b6109f8610b98565b6001600160a01b038116610a5d5760405162461bcd60e51b815260206004820152602660248201527f4f776e61626c653a206e6577206f776e657220697320746865207a65726f206160448201526564647265737360d01b60648201526084016104ab565b610a6681610bf9565b50565b604080516001600160a01b038481166024830152604480830185905283518084039091018152606490920183526020820180516001600160e01b031663095ea7b360e01b1790529151600092839290871691610ac59190610fb4565b6000604051808303816000865af19150503d8060008114610b02576040519150601f19603f3d011682016040523d82523d6000602084013e610b07565b606091505b5091509150818015610b31575080511580610b31575080806020019051810190610b319190610fe3565b610b915760405162461bcd60e51b815260206004820152602b60248201527f5472616e7366657248656c7065723a3a73616665417070726f76653a2061707060448201526a1c9bdd994819985a5b195960aa1b60648201526084016104ab565b5050505050565b6000546001600160a01b036201000090910416331461063e5760405162461bcd60e51b815260206004820181905260248201527f4f776e61626c653a2063616c6c6572206973206e6f7420746865206f776e657260448201526064016104ab565b600080546001600160a01b038381166201000081810262010000600160b01b0319851617855560405193049190911692909183917f8be0079c531659141344cd1fd0a4f28419497f9722a3daafe3b4186f6b6457e091a35050565b6001600160a01b0381168114610a6657600080fd5b8015158114610a6657600080fd5b600080600080600060a08688031215610c8f57600080fd5b85359450602086013593506040860135610ca881610c54565b92506060860135610cb881610c54565b91506080860135610cc881610c69565b809150509295509295909350565b600060208284031215610ce857600080fd5b8135610cf381610c54565b9392505050565b60008060408385031215610d0d57600080fd5b8235610d1881610c54565b91506020830135610d2881610c54565b809150509250929050565b600081518084526020808501945080840160005b83811015610d6c5781516001600160a01b031687529582019590820190600101610d47565b509495945050505050565b602081526000610cf36020830184610d33565b60008060008060008060c08789031215610da357600080fd5b86359550602087013594506040870135610dbc81610c54565b93506060870135610dcc81610c54565b92506080870135610ddc81610c54565b915060a0870135610dec81610c69565b809150509295509295509295565b600080600060608486031215610e0f57600080fd5b833592506020840135610e2181610c54565b91506040840135610e3181610c54565b809150509250925092565b85815284602082015260a060408201526000610e5b60a0830186610d33565b6001600160a01b0394909416606083015250608001529392505050565b634e487b7160e01b600052604160045260246000fd5b60006020808385031215610ea157600080fd5b825167ffffffffffffffff80821115610eb957600080fd5b818501915085601f830112610ecd57600080fd5b815181811115610edf57610edf610e78565b8060051b604051601f19603f83011681018181108582111715610f0457610f04610e78565b604052918252848201925083810185019188831115610f2257600080fd5b938501935b82851015610f4057845184529385019392850192610f27565b98975050505050505050565b634e487b7160e01b600052603260045260246000fd5b600060208284031215610f7457600080fd5b8151610cf381610c54565b848152608060208201526000610f986080830186610d33565b6001600160a01b03949094166040830152506060015292915050565b6000825160005b81811015610fd55760208186018101518583015201610fbb565b506000920191825250919050565b600060208284031215610ff557600080fd5b8151610cf381610c6956fea26469706673582212206ecba82b9636e3f3eca254b8ac3ce67151ff9e756de3a6d3f189849e9a8a2a7664736f6c63430008110033",
  "linkReferences": {},
  "deployedLinkReferences": {}
}