{"abi":[{"type":"constructor","inputs":[{"name":"_integrationManager","type":"address","internalType":"address"},{"name":"_guard","type":"address","internalType":"contract IGuard"}],"stateMutability":"nonpayable"},{"type":"function","name":"CLAIM_REWARDS_SELECTOR","inputs":[],"outputs":[{"name":"","type":"bytes4","internalType":"bytes4"}],"stateMutability":"view"},{"type":"function","name":"EXECUTE_CALLS_SELECTOR","inputs":[],"outputs":[{"name":"","type":"bytes4","internalType":"bytes4"}],"stateMutability":"view"},{"type":"function","name":"LEND_AND_STAKE_SELECTOR","inputs":[],"outputs":[{"name":"","type":"bytes4","internalType":"bytes4"}],"stateMutability":"view"},{"type":"function","name":"LEND_SELECTOR","inputs":[],"outputs":[{"name":"","type":"bytes4","internalType":"bytes4"}],"stateMutability":"view"},{"type":"function","name":"REDEEM_SELECTOR","inputs":[],"outputs":[{"name":"","type":"bytes4","internalType":"bytes4"}],"stateMutability":"view"},{"type":"function","name":"STAKE_SELECTOR","inputs":[],"outputs":[{"name":"","type":"bytes4","internalType":"bytes4"}],"stateMutability":"view"},{"type":"function","name":"TAKE_MULTIPLE_ORDERS_SELECTOR","inputs":[],"outputs":[{"name":"","type":"bytes4","internalType":"bytes4"}],"stateMutability":"view"},{"type":"function","name":"TAKE_ORDER_SELECTOR","inputs":[],"outputs":[{"name":"","type":"bytes4","internalType":"bytes4"}],"stateMutability":"view"},{"type":"function","name":"UNSTAKE_AND_REDEEM_SELECTOR","inputs":[],"outputs":[{"name":"","type":"bytes4","internalType":"bytes4"}],"stateMutability":"view"},{"type":"function","name":"UNSTAKE_SELECTOR","inputs":[],"outputs":[{"name":"","type":"bytes4","internalType":"bytes4"}],"stateMutability":"view"},{"type":"function","name":"bindVault","inputs":[{"name":"_vault","type":"address","internalType":"contract IVaultMock"},{"name":"production","type":"bool","internalType":"bool"},{"name":"meta","type":"string","internalType":"string"}],"outputs":[],"stateMutability":"nonpayable"},{"type":"function","name":"executeCalls","inputs":[{"name":"_vaultProxy","type":"address","internalType":"address"},{"name":"_actionData","type":"bytes","internalType":"bytes"},{"name":"","type":"bytes","internalType":"bytes"}],"outputs":[],"stateMutability":"nonpayable"},{"type":"function","name":"getIntegrationManager","inputs":[],"outputs":[{"name":"integrationManager_","type":"address","internalType":"address"}],"stateMutability":"view"},{"type":"function","name":"guard","inputs":[],"outputs":[{"name":"","type":"address","internalType":"contract IGuard"}],"stateMutability":"view"},{"type":"function","name":"parseAssetsForAction","inputs":[{"name":"","type":"address","internalType":"address"},{"name":"_selector","type":"bytes4","internalType":"bytes4"},{"name":"_actionData","type":"bytes","internalType":"bytes"}],"outputs":[{"name":"spendAssetsHandleType_","type":"uint8","internalType":"enum IIntegrationManager.SpendAssetsHandleType"},{"name":"spendAssets_","type":"address[]","internalType":"address[]"},{"name":"spendAssetAmounts_","type":"uint256[]","internalType":"uint256[]"},{"name":"incomingAssets_","type":"address[]","internalType":"address[]"},{"name":"minIncomingAssetAmounts_","type":"uint256[]","internalType":"uint256[]"}],"stateMutability":"view"},{"type":"function","name":"vault","inputs":[],"outputs":[{"name":"","type":"address","internalType":"contract IVaultMock"}],"stateMutability":"view"},{"type":"event","name":"GuardedGenericAdapterDeployed","inputs":[{"name":"vault","type":"address","indexed":false,"internalType":"address"},{"name":"production","type":"bool","indexed":false,"internalType":"bool"},{"name":"meta","type":"string","indexed":false,"internalType":"string"}],"anonymous":false}],"bytecode":{"object":"0x60a060405234801561001057600080fd5b50604051620017c7380380620017c783398101604081905261003191610068565b60609190911b6001600160601b031916608052600180546001600160a01b0319166001600160a01b039092169190911790556100b9565b6000806040838503121561007a578182fd5b8251610085816100a1565b6020840151909250610096816100a1565b809150509250929050565b6001600160a01b03811681146100b657600080fd5b50565b60805160601c6116eb620000dc60003980610316528061067452506116eb6000f3fe608060405234801561001057600080fd5b50600436106101005760003560e01c8063b23228cf11610097578063e16f57a611610066578063e16f57a6146101b1578063e7c45690146101c4578063f7d882b5146101cc578063fbfa77cf146101d457610100565b8063b23228cf14610168578063b7fe1a1114610170578063c32990a214610185578063c54efee51461018d57610100565b80633ffc1591116100d35780633ffc15911461013b57806340da225d146101435780637ceab3b11461014b578063863e5ad01461016057610100565b8063080456c11461010557806312d9c1f614610123578063131461c01461012b578063257cb1a314610133575b600080fd5b61010d6101dc565b60405161011a91906112cc565b60405180910390f35b61010d610200565b61010d610224565b61010d610248565b61010d61026c565b61010d610290565b6101536102b4565b60405161011a9190611221565b61010d6102c3565b61010d6102e7565b61018361017e366004610df4565b61030b565b005b61010d6104a0565b6101a061019b366004610d85565b6104c4565b60405161011a9594939291906112e1565b6101836101bf36600461111f565b61051b565b610153610672565b61010d610696565b6101536106ba565b7f8334eb99be0145865eba9889fca2ee920288090caefff4cc776038e20ad9259a81565b7fb7fe1a117cff974e3f19d303d9f97ada44b7ecad880df21ddfdc69ba0493b79681565b7f29fa046e79524c3c5ac4c01df692c35e217802b2b13b21121b76cf0ef02b138c81565b7f099f75155f0e997bf83a7993a71d5e7e7540bd386fe1e84643a09ce6b412521981565b7ffa7dd04da627f433da73c4355ead9c75682a67a8fc84d3f6170ef0922f402d2481565b7fb9dfbaccbe5cd2a84fdcf1d15f23ef25d23086f5afbaa99516065ed4a5bbc7a381565b6001546001600160a01b031681565b7f03e38a2bd7063d45c897edeafc330e71657502dd86434d3c37a489caf116af6981565b7f68e30677f607df46e87da13e15b637784cfa62374b653f35ab43d10361a2f83081565b336001600160a01b037f0000000000000000000000000000000000000000000000000000000000000000161461035c5760405162461bcd60e51b81526004016103539061141f565b60405180910390fd5b8484848080601f01602080910402602001604051908101604052809392919081815260200183838082843760009201919091525050604080516020601f8a018190048102820181019092528881528a9350915088908890819084018382808284376000920182905250546001600160a01b038d811691161492506103f59150505760405162461bcd60e51b8152600401610353906114a8565b606061040189896106c9565b945050505050606080610413836106ee565b9150915060005b825181101561045b5761045383828151811061043257fe5b602002602001015183838151811061044657fe5b6020026020010151610731565b60010161041a565b50505050606061046a82610813565b505090506104788382610839565b50505050606061048782610813565b925050506104958382610839565b505050505050505050565b7f0e7f692dad5b88fdee426250d6eae91207e56a2e8112b7364579bed1790e5bf481565b600060608080806001600160e01b0319881663b7fe1a1160e01b146104fb5760405162461bcd60e51b8152600401610353906115b1565b61050587876106c9565b5060029d919c509a509198509650945050505050565b6000546001600160a01b0316156105445760405162461bcd60e51b815260040161035390611471565b6001600160a01b03841661056a5760405162461bcd60e51b8152600401610353906113e8565b60006001600160a01b0316846001600160a01b0316630ee2cb106040518163ffffffff1660e01b815260040160206040518083038186803b1580156105ae57600080fd5b505afa1580156105c2573d6000803e3d6000fd5b505050506040513d601f19601f820116820180604052508101906105e69190610d69565b6001600160a01b0316141561060d5760405162461bcd60e51b815260040161035390611530565b600080546001600160a01b0319166001600160a01b0386811691909117918290556040517f6b7dee5493b2683d1aa1b51da848a1af75f8fb9c1e0857120098c9d5a62c1f6a9261066492169086908690869061126a565b60405180910390a150505050565b7f000000000000000000000000000000000000000000000000000000000000000090565b7fc29fa9dde84204c2908778afd0613d802d31cf046179b88f6d2b4a4e507ea2d581565b6000546001600160a01b031681565b6060808080806106db86880188611037565b939b929a50909850965090945092505050565b606080828060200190518101906107059190610e74565b805182519294509092501461072c5760405162461bcd60e51b81526004016103539061135d565b915091565b600154600054604051636d5025f160e01b81526001600160a01b0392831692636d5025f1926107699291169086908690600401611235565b600060405180830381600087803b15801561078357600080fd5b505af1158015610797573d6000803e3d6000fd5b5050505060006060836001600160a01b0316836040516107b79190611205565b6000604051808303816000865af19150503d80600081146107f4576040519150601f19603f3d011682016040523d82523d6000602084013e6107f9565b606091505b50915091508161080d578051602082018181fd5b50505050565b60608060608380602001905181019061082c9190610f5d565b9250925092509193909250565b6060815167ffffffffffffffff8111801561085357600080fd5b5060405190808252806020026020018201604052801561087d578160200160208202803683370190505b50905060005b825181101561098e57600083828151811061089a57fe5b60200260200101519050806001600160a01b03166370a08231306040518263ffffffff1660e01b81526004016108d09190611221565b60206040518083038186803b1580156108e857600080fd5b505afa1580156108fc573d6000803e3d6000fd5b505050506040513d601f19601f82011682018060405250810190610920919061114f565b83838151811061092c57fe5b602002602001018181525050600083838151811061094657fe5b60200260200101511115610985576109858584848151811061096457fe5b6020026020010151836001600160a01b03166109959092919063ffffffff16565b50600101610883565b5092915050565b6109eb8363a9059cbb60e01b84846040516024016109b49291906112b3565b60408051601f198184030181529190526020810180516001600160e01b03166001600160e01b0319909316929092179091526109f0565b505050565b6060610a45826040518060400160405280602081526020017f5361666545524332303a206c6f772d6c6576656c2063616c6c206661696c6564815250856001600160a01b0316610a7f9092919063ffffffff16565b8051909150156109eb5780806020019051810190610a639190611103565b6109eb5760405162461bcd60e51b815260040161035390611567565b6060610a8e8484600085610a98565b90505b9392505050565b606082471015610aba5760405162461bcd60e51b8152600401610353906113a2565b610ac385610b59565b610adf5760405162461bcd60e51b8152600401610353906114f9565b60006060866001600160a01b03168587604051610afc9190611205565b60006040518083038185875af1925050503d8060008114610b39576040519150601f19603f3d011682016040523d82523d6000602084013e610b3e565b606091505b5091509150610b4e828286610b5f565b979650505050505050565b3b151590565b60608315610b6e575081610a91565b825115610b7e5782518084602001fd5b8160405162461bcd60e51b8152600401610353919061134a565b600082601f830112610ba8578081fd5b8135610bbb610bb68261161f565b6115f8565b818152915060208083019084810181840286018201871015610bdc57600080fd5b60005b84811015610c04578135610bf28161168f565b84529282019290820190600101610bdf565b505050505092915050565b600082601f830112610c1f578081fd5b8151610c2d610bb68261161f565b818152915060208083019084810181840286018201871015610c4e57600080fd5b60005b84811015610c04578151610c648161168f565b84529282019290820190600101610c51565b600082601f830112610c86578081fd5b8135610c94610bb68261161f565b818152915060208083019084810181840286018201871015610cb557600080fd5b60005b84811015610c0457813584529282019290820190600101610cb8565b60008083601f840112610ce5578182fd5b50813567ffffffffffffffff811115610cfc578182fd5b602083019150836020828501011115610d1457600080fd5b9250929050565b600082601f830112610d2b578081fd5b8135610d39610bb68261163f565b9150808252836020828501011115610d5057600080fd5b8060208401602084013760009082016020015292915050565b600060208284031215610d7a578081fd5b8151610a918161168f565b60008060008060608587031215610d9a578283fd5b8435610da58161168f565b935060208501356001600160e01b031981168114610dc1578384fd5b9250604085013567ffffffffffffffff811115610ddc578283fd5b610de887828801610cd4565b95989497509550505050565b600080600080600060608688031215610e0b578081fd5b8535610e168161168f565b9450602086013567ffffffffffffffff80821115610e32578283fd5b610e3e89838a01610cd4565b90965094506040880135915080821115610e56578283fd5b50610e6388828901610cd4565b969995985093965092949392505050565b6000806040808486031215610e87578283fd5b835167ffffffffffffffff80821115610e9e578485fd5b610eaa87838801610c0f565b9450602091508186015181811115610ec0578485fd5b86019050601f81018713610ed2578384fd5b8051610ee0610bb68261161f565b81815283810190838501875b84811015610f4c57815186018c603f820112610f0657898afd5b87810151610f16610bb68261163f565b8181528e8b838501011115610f29578b8cfd5b610f38828b83018d8601611663565b865250509286019290860190600101610eec565b50979a909950975050505050505050565b600080600060608486031215610f71578081fd5b835167ffffffffffffffff80821115610f88578283fd5b610f9487838801610c0f565b9450602091508186015181811115610faa578384fd5b8601601f81018813610fba578384fd5b8051610fc8610bb68261161f565b81815284810190838601868402850187018c1015610fe4578788fd5b8794505b83851015611006578051835260019490940193918601918601610fe8565b5060408a0151909750945050505080821115611020578283fd5b5061102d86828701610c0f565b9150509250925092565b600080600080600060a0868803121561104e578283fd5b853567ffffffffffffffff80821115611065578485fd5b61107189838a01610b98565b96506020880135915080821115611086578485fd5b61109289838a01610c76565b955060408801359150808211156110a7578485fd5b6110b389838a01610b98565b945060608801359150808211156110c8578283fd5b6110d489838a01610c76565b935060808801359150808211156110e9578283fd5b506110f688828901610d1b565b9150509295509295909350565b600060208284031215611114578081fd5b8151610a91816116a7565b60008060008060608587031215611134578182fd5b843561113f8161168f565b93506020850135610dc1816116a7565b600060208284031215611160578081fd5b5051919050565b6000815180845260208085019450808401835b8381101561119f5781516001600160a01b03168752958201959082019060010161117a565b509495945050505050565b6000815180845260208085019450808401835b8381101561119f578151875295820195908201906001016111bd565b600081518084526111f1816020860160208601611663565b601f01601f19169290920160200192915050565b60008251611217818460208701611663565b9190910192915050565b6001600160a01b0391909116815260200190565b6001600160a01b03848116825283166020820152606060408201819052600090611261908301846111d9565b95945050505050565b6001600160a01b038516815283151560208201526060604082018190528101829052600082846080840137818301608090810191909152601f909201601f191601019392505050565b6001600160a01b03929092168252602082015260400190565b6001600160e01b031991909116815260200190565b6000600387106112ed57fe5b86825260a0602083015261130460a0830187611167565b828103604084015261131681876111aa565b9050828103606084015261132a8186611167565b9050828103608084015261133e81856111aa565b98975050505050505050565b600060208252610a9160208301846111d9565b60208082526025908201527f556e657175616c2065787465726e616c2063616c6c7320617272617973206c656040820152646e6774687360d81b606082015260800190565b60208082526026908201527f416464726573733a20696e73756666696369656e742062616c616e636520666f6040820152651c8818d85b1b60d21b606082015260800190565b60208082526018908201527f4e756c6c206164647265737320656e636f756e74657265640000000000000000604082015260600190565b60208082526032908201527f4f6e6c792074686520496e746567726174696f6e4d616e616765722063616e2060408201527131b0b636103a3434b990333ab731ba34b7b760711b606082015260800190565b6020808252601c908201527f43616e20626520696e697469616c69736564206f6e6c79206f6e636500000000604082015260600190565b60208082526031908201527f4f6e6c792063616c6c732066726f6d207468652077686974656c6973746564206040820152701d985d5b1d08185c9948185b1b1bddd959607a1b606082015260800190565b6020808252601d908201527f416464726573733a2063616c6c20746f206e6f6e2d636f6e7472616374000000604082015260600190565b60208082526017908201527f456e636f756e74657265642066756e6e79207661756c74000000000000000000604082015260600190565b6020808252602a908201527f5361666545524332303a204552433230206f7065726174696f6e20646964206e6040820152691bdd081cdd58d8d9595960b21b606082015260800190565b60208082526027908201527f7061727365417373657473466f72416374696f6e3a205f73656c6563746f72206040820152661a5b9d985b1a5960ca1b606082015260800190565b60405181810167ffffffffffffffff8111828210171561161757600080fd5b604052919050565b600067ffffffffffffffff821115611635578081fd5b5060209081020190565b600067ffffffffffffffff821115611655578081fd5b50601f01601f191660200190565b60005b8381101561167e578181015183820152602001611666565b8381111561080d5750506000910152565b6001600160a01b03811681146116a457600080fd5b50565b80151581146116a457600080fdfea26469706673582212200cc01c572478d7d2d9977823ec42d01f61539198df39e9afde48bed679f7312b64736f6c634300060c0033","linkReferences":{}},"methodIdentifiers":{"CLAIM_REWARDS_SELECTOR()":"40da225d","EXECUTE_CALLS_SELECTOR()":"12d9c1f6","LEND_AND_STAKE_SELECTOR()":"131461c0","LEND_SELECTOR()":"257cb1a3","REDEEM_SELECTOR()":"f7d882b5","STAKE_SELECTOR()":"3ffc1591","TAKE_MULTIPLE_ORDERS_SELECTOR()":"c32990a2","TAKE_ORDER_SELECTOR()":"863e5ad0","UNSTAKE_AND_REDEEM_SELECTOR()":"080456c1","UNSTAKE_SELECTOR()":"b23228cf","bindVault(address,bool,string)":"e16f57a6","executeCalls(address,bytes,bytes)":"b7fe1a11","getIntegrationManager()":"e7c45690","guard()":"7ceab3b1","parseAssetsForAction(address,bytes4,bytes)":"c54efee5","vault()":"fbfa77cf"},"id":19}