{"abi":[{"type":"constructor","inputs":[{"name":"_integrationManager","type":"address","internalType":"address"},{"name":"_guard","type":"address","internalType":"contract IGuard"}],"stateMutability":"nonpayable"},{"type":"function","name":"CLAIM_REWARDS_SELECTOR","inputs":[],"outputs":[{"name":"","type":"bytes4","internalType":"bytes4"}],"stateMutability":"view"},{"type":"function","name":"EXECUTE_CALLS_SELECTOR","inputs":[],"outputs":[{"name":"","type":"bytes4","internalType":"bytes4"}],"stateMutability":"view"},{"type":"function","name":"LEND_AND_STAKE_SELECTOR","inputs":[],"outputs":[{"name":"","type":"bytes4","internalType":"bytes4"}],"stateMutability":"view"},{"type":"function","name":"LEND_SELECTOR","inputs":[],"outputs":[{"name":"","type":"bytes4","internalType":"bytes4"}],"stateMutability":"view"},{"type":"function","name":"REDEEM_SELECTOR","inputs":[],"outputs":[{"name":"","type":"bytes4","internalType":"bytes4"}],"stateMutability":"view"},{"type":"function","name":"STAKE_SELECTOR","inputs":[],"outputs":[{"name":"","type":"bytes4","internalType":"bytes4"}],"stateMutability":"view"},{"type":"function","name":"TAKE_MULTIPLE_ORDERS_SELECTOR","inputs":[],"outputs":[{"name":"","type":"bytes4","internalType":"bytes4"}],"stateMutability":"view"},{"type":"function","name":"TAKE_ORDER_SELECTOR","inputs":[],"outputs":[{"name":"","type":"bytes4","internalType":"bytes4"}],"stateMutability":"view"},{"type":"function","name":"UNSTAKE_AND_REDEEM_SELECTOR","inputs":[],"outputs":[{"name":"","type":"bytes4","internalType":"bytes4"}],"stateMutability":"view"},{"type":"function","name":"UNSTAKE_SELECTOR","inputs":[],"outputs":[{"name":"","type":"bytes4","internalType":"bytes4"}],"stateMutability":"view"},{"type":"function","name":"bindVault","inputs":[{"name":"_vault","type":"address","internalType":"contract IVaultMock"},{"name":"_production","type":"bool","internalType":"bool"},{"name":"meta","type":"string","internalType":"string"}],"outputs":[],"stateMutability":"nonpayable"},{"type":"function","name":"executeCalls","inputs":[{"name":"_vaultProxy","type":"address","internalType":"address"},{"name":"_actionData","type":"bytes","internalType":"bytes"},{"name":"","type":"bytes","internalType":"bytes"}],"outputs":[],"stateMutability":"nonpayable"},{"type":"function","name":"getIntegrationManager","inputs":[],"outputs":[{"name":"integrationManager_","type":"address","internalType":"address"}],"stateMutability":"view"},{"type":"function","name":"guard","inputs":[],"outputs":[{"name":"","type":"address","internalType":"contract IGuard"}],"stateMutability":"view"},{"type":"function","name":"parseAssetsForAction","inputs":[{"name":"","type":"address","internalType":"address"},{"name":"_selector","type":"bytes4","internalType":"bytes4"},{"name":"_actionData","type":"bytes","internalType":"bytes"}],"outputs":[{"name":"spendAssetsHandleType_","type":"uint8","internalType":"enum IIntegrationManager.SpendAssetsHandleType"},{"name":"spendAssets_","type":"address[]","internalType":"address[]"},{"name":"spendAssetAmounts_","type":"uint256[]","internalType":"uint256[]"},{"name":"incomingAssets_","type":"address[]","internalType":"address[]"},{"name":"minIncomingAssetAmounts_","type":"uint256[]","internalType":"uint256[]"}],"stateMutability":"view"},{"type":"function","name":"production","inputs":[],"outputs":[{"name":"","type":"bool","internalType":"bool"}],"stateMutability":"view"},{"type":"function","name":"vault","inputs":[],"outputs":[{"name":"","type":"address","internalType":"contract IVaultMock"}],"stateMutability":"view"},{"type":"event","name":"GuardedGenericAdapterDeployed","inputs":[{"name":"vault","type":"address","indexed":false,"internalType":"address"},{"name":"production","type":"bool","indexed":false,"internalType":"bool"},{"name":"meta","type":"string","indexed":false,"internalType":"string"}],"anonymous":false}],"bytecode":{"object":"0x60a060405234801561001057600080fd5b50604051620018273803806200182783398101604081905261003191610068565b60609190911b6001600160601b031916608052600180546001600160a01b0319166001600160a01b039092169190911790556100b9565b6000806040838503121561007a578182fd5b8251610085816100a1565b6020840151909250610096816100a1565b809150509250929050565b6001600160a01b03811681146100b657600080fd5b50565b60805160601c61174b620000dc6000398061034652806106c9525061174b6000f3fe608060405234801561001057600080fd5b506004361061010b5760003560e01c8063863e5ad0116100a2578063c54efee511610071578063c54efee5146101ad578063e16f57a6146101d1578063e7c45690146101e4578063f7d882b5146101ec578063fbfa77cf146101f45761010b565b8063863e5ad014610180578063b23228cf14610188578063b7fe1a1114610190578063c32990a2146101a55761010b565b8063257cb1a3116100de578063257cb1a3146101535780633ffc15911461015b57806340da225d146101635780637ceab3b11461016b5761010b565b806305e88b6914610110578063080456c11461012e57806312d9c1f614610143578063131461c01461014b575b600080fd5b6101186101fc565b6040516101259190611321565b60405180910390f35b61013661020c565b604051610125919061132c565b610136610230565b610136610254565b610136610278565b61013661029c565b6101366102c0565b6101736102e4565b6040516101259190611276565b6101366102f3565b610136610317565b6101a361019e366004610e49565b61033b565b005b6101366104d0565b6101c06101bb366004610dda565b6104f4565b604051610125959493929190611341565b6101a36101df366004611174565b61054b565b6101736106c7565b6101366106eb565b61017361070f565b600154600160a01b900460ff1681565b7f8334eb99be0145865eba9889fca2ee920288090caefff4cc776038e20ad9259a81565b7fb7fe1a117cff974e3f19d303d9f97ada44b7ecad880df21ddfdc69ba0493b79681565b7f29fa046e79524c3c5ac4c01df692c35e217802b2b13b21121b76cf0ef02b138c81565b7f099f75155f0e997bf83a7993a71d5e7e7540bd386fe1e84643a09ce6b412521981565b7ffa7dd04da627f433da73c4355ead9c75682a67a8fc84d3f6170ef0922f402d2481565b7fb9dfbaccbe5cd2a84fdcf1d15f23ef25d23086f5afbaa99516065ed4a5bbc7a381565b6001546001600160a01b031681565b7f03e38a2bd7063d45c897edeafc330e71657502dd86434d3c37a489caf116af6981565b7f68e30677f607df46e87da13e15b637784cfa62374b653f35ab43d10361a2f83081565b336001600160a01b037f0000000000000000000000000000000000000000000000000000000000000000161461038c5760405162461bcd60e51b81526004016103839061147f565b60405180910390fd5b8484848080601f01602080910402602001604051908101604052809392919081815260200183838082843760009201919091525050604080516020601f8a018190048102820181019092528881528a9350915088908890819084018382808284376000920182905250546001600160a01b038d811691161492506104259150505760405162461bcd60e51b815260040161038390611508565b6060610431898961071e565b94505050505060608061044383610743565b9150915060005b825181101561048b5761048383828151811061046257fe5b602002602001015183838151811061047657fe5b6020026020010151610786565b60010161044a565b50505050606061049a82610868565b505090506104a8838261088e565b5050505060606104b782610868565b925050506104c5838261088e565b505050505050505050565b7f0e7f692dad5b88fdee426250d6eae91207e56a2e8112b7364579bed1790e5bf481565b600060608080806001600160e01b0319881663b7fe1a1160e01b1461052b5760405162461bcd60e51b815260040161038390611611565b610535878761071e565b5060029d919c509a509198509650945050505050565b6000546001600160a01b0316156105745760405162461bcd60e51b8152600401610383906114d1565b6001600160a01b03841661059a5760405162461bcd60e51b815260040161038390611448565b60006001600160a01b0316846001600160a01b0316630ee2cb106040518163ffffffff1660e01b815260040160206040518083038186803b1580156105de57600080fd5b505afa1580156105f2573d6000803e3d6000fd5b505050506040513d601f19601f820116820180604052508101906106169190610dbe565b6001600160a01b0316141561063d5760405162461bcd60e51b815260040161038390611590565b600080546001600160a01b0319166001600160a01b0386811691909117918290556001805460ff60a01b1916600160a01b871515810291909117918290556040517f6b7dee5493b2683d1aa1b51da848a1af75f8fb9c1e0857120098c9d5a62c1f6a946106b994169260ff9290049190911690869086906112bf565b60405180910390a150505050565b7f000000000000000000000000000000000000000000000000000000000000000090565b7fc29fa9dde84204c2908778afd0613d802d31cf046179b88f6d2b4a4e507ea2d581565b6000546001600160a01b031681565b6060808080806107308688018861108c565b939b929a50909850965090945092505050565b6060808280602001905181019061075a9190610ec9565b80518251929450909250146107815760405162461bcd60e51b8152600401610383906113bd565b915091565b600154600054604051636d5025f160e01b81526001600160a01b0392831692636d5025f1926107be929116908690869060040161128a565b600060405180830381600087803b1580156107d857600080fd5b505af11580156107ec573d6000803e3d6000fd5b5050505060006060836001600160a01b03168360405161080c919061125a565b6000604051808303816000865af19150503d8060008114610849576040519150601f19603f3d011682016040523d82523d6000602084013e61084e565b606091505b509150915081610862578051602082018181fd5b50505050565b6060806060838060200190518101906108819190610fb2565b9250925092509193909250565b6060815167ffffffffffffffff811180156108a857600080fd5b506040519080825280602002602001820160405280156108d2578160200160208202803683370190505b50905060005b82518110156109e35760008382815181106108ef57fe5b60200260200101519050806001600160a01b03166370a08231306040518263ffffffff1660e01b81526004016109259190611276565b60206040518083038186803b15801561093d57600080fd5b505afa158015610951573d6000803e3d6000fd5b505050506040513d601f19601f8201168201806040525081019061097591906111a4565b83838151811061098157fe5b602002602001018181525050600083838151811061099b57fe5b602002602001015111156109da576109da858484815181106109b957fe5b6020026020010151836001600160a01b03166109ea9092919063ffffffff16565b506001016108d8565b5092915050565b610a408363a9059cbb60e01b8484604051602401610a09929190611308565b60408051601f198184030181529190526020810180516001600160e01b03166001600160e01b031990931692909217909152610a45565b505050565b6060610a9a826040518060400160405280602081526020017f5361666545524332303a206c6f772d6c6576656c2063616c6c206661696c6564815250856001600160a01b0316610ad49092919063ffffffff16565b805190915015610a405780806020019051810190610ab89190611158565b610a405760405162461bcd60e51b8152600401610383906115c7565b6060610ae38484600085610aed565b90505b9392505050565b606082471015610b0f5760405162461bcd60e51b815260040161038390611402565b610b1885610bae565b610b345760405162461bcd60e51b815260040161038390611559565b60006060866001600160a01b03168587604051610b51919061125a565b60006040518083038185875af1925050503d8060008114610b8e576040519150601f19603f3d011682016040523d82523d6000602084013e610b93565b606091505b5091509150610ba3828286610bb4565b979650505050505050565b3b151590565b60608315610bc3575081610ae6565b825115610bd35782518084602001fd5b8160405162461bcd60e51b815260040161038391906113aa565b600082601f830112610bfd578081fd5b8135610c10610c0b8261167f565b611658565b818152915060208083019084810181840286018201871015610c3157600080fd5b60005b84811015610c59578135610c47816116ef565b84529282019290820190600101610c34565b505050505092915050565b600082601f830112610c74578081fd5b8151610c82610c0b8261167f565b818152915060208083019084810181840286018201871015610ca357600080fd5b60005b84811015610c59578151610cb9816116ef565b84529282019290820190600101610ca6565b600082601f830112610cdb578081fd5b8135610ce9610c0b8261167f565b818152915060208083019084810181840286018201871015610d0a57600080fd5b60005b84811015610c5957813584529282019290820190600101610d0d565b60008083601f840112610d3a578182fd5b50813567ffffffffffffffff811115610d51578182fd5b602083019150836020828501011115610d6957600080fd5b9250929050565b600082601f830112610d80578081fd5b8135610d8e610c0b8261169f565b9150808252836020828501011115610da557600080fd5b8060208401602084013760009082016020015292915050565b600060208284031215610dcf578081fd5b8151610ae6816116ef565b60008060008060608587031215610def578283fd5b8435610dfa816116ef565b935060208501356001600160e01b031981168114610e16578384fd5b9250604085013567ffffffffffffffff811115610e31578283fd5b610e3d87828801610d29565b95989497509550505050565b600080600080600060608688031215610e60578081fd5b8535610e6b816116ef565b9450602086013567ffffffffffffffff80821115610e87578283fd5b610e9389838a01610d29565b90965094506040880135915080821115610eab578283fd5b50610eb888828901610d29565b969995985093965092949392505050565b6000806040808486031215610edc578283fd5b835167ffffffffffffffff80821115610ef3578485fd5b610eff87838801610c64565b9450602091508186015181811115610f15578485fd5b86019050601f81018713610f27578384fd5b8051610f35610c0b8261167f565b81815283810190838501875b84811015610fa157815186018c603f820112610f5b57898afd5b87810151610f6b610c0b8261169f565b8181528e8b838501011115610f7e578b8cfd5b610f8d828b83018d86016116c3565b865250509286019290860190600101610f41565b50979a909950975050505050505050565b600080600060608486031215610fc6578081fd5b835167ffffffffffffffff80821115610fdd578283fd5b610fe987838801610c64565b9450602091508186015181811115610fff578384fd5b8601601f8101881361100f578384fd5b805161101d610c0b8261167f565b81815284810190838601868402850187018c1015611039578788fd5b8794505b8385101561105b57805183526001949094019391860191860161103d565b5060408a0151909750945050505080821115611075578283fd5b5061108286828701610c64565b9150509250925092565b600080600080600060a086880312156110a3578283fd5b853567ffffffffffffffff808211156110ba578485fd5b6110c689838a01610bed565b965060208801359150808211156110db578485fd5b6110e789838a01610ccb565b955060408801359150808211156110fc578485fd5b61110889838a01610bed565b9450606088013591508082111561111d578283fd5b61112989838a01610ccb565b9350608088013591508082111561113e578283fd5b5061114b88828901610d70565b9150509295509295909350565b600060208284031215611169578081fd5b8151610ae681611707565b60008060008060608587031215611189578182fd5b8435611194816116ef565b93506020850135610e1681611707565b6000602082840312156111b5578081fd5b5051919050565b6000815180845260208085019450808401835b838110156111f45781516001600160a01b0316875295820195908201906001016111cf565b509495945050505050565b6000815180845260208085019450808401835b838110156111f457815187529582019590820190600101611212565b600081518084526112468160208601602086016116c3565b601f01601f19169290920160200192915050565b6000825161126c8184602087016116c3565b9190910192915050565b6001600160a01b0391909116815260200190565b6001600160a01b038481168252831660208201526060604082018190526000906112b69083018461122e565b95945050505050565b6001600160a01b038516815283151560208201526060604082018190528101829052600082846080840137818301608090810191909152601f909201601f191601019392505050565b6001600160a01b03929092168252602082015260400190565b901515815260200190565b6001600160e01b031991909116815260200190565b60006003871061134d57fe5b86825260a0602083015261136460a08301876111bc565b828103604084015261137681876111ff565b9050828103606084015261138a81866111bc565b9050828103608084015261139e81856111ff565b98975050505050505050565b600060208252610ae6602083018461122e565b60208082526025908201527f556e657175616c2065787465726e616c2063616c6c7320617272617973206c656040820152646e6774687360d81b606082015260800190565b60208082526026908201527f416464726573733a20696e73756666696369656e742062616c616e636520666f6040820152651c8818d85b1b60d21b606082015260800190565b60208082526018908201527f4e756c6c206164647265737320656e636f756e74657265640000000000000000604082015260600190565b60208082526032908201527f4f6e6c792074686520496e746567726174696f6e4d616e616765722063616e2060408201527131b0b636103a3434b990333ab731ba34b7b760711b606082015260800190565b6020808252601c908201527f43616e20626520696e697469616c69736564206f6e6c79206f6e636500000000604082015260600190565b60208082526031908201527f4f6e6c792063616c6c732066726f6d207468652077686974656c6973746564206040820152701d985d5b1d08185c9948185b1b1bddd959607a1b606082015260800190565b6020808252601d908201527f416464726573733a2063616c6c20746f206e6f6e2d636f6e7472616374000000604082015260600190565b60208082526017908201527f456e636f756e74657265642066756e6e79207661756c74000000000000000000604082015260600190565b6020808252602a908201527f5361666545524332303a204552433230206f7065726174696f6e20646964206e6040820152691bdd081cdd58d8d9595960b21b606082015260800190565b60208082526027908201527f7061727365417373657473466f72416374696f6e3a205f73656c6563746f72206040820152661a5b9d985b1a5960ca1b606082015260800190565b60405181810167ffffffffffffffff8111828210171561167757600080fd5b604052919050565b600067ffffffffffffffff821115611695578081fd5b5060209081020190565b600067ffffffffffffffff8211156116b5578081fd5b50601f01601f191660200190565b60005b838110156116de5781810151838201526020016116c6565b838111156108625750506000910152565b6001600160a01b038116811461170457600080fd5b50565b801515811461170457600080fdfea26469706673582212204a4222192e7798fa865252cce462ae0a6beef60d91c65b37552efbb89c999cde64736f6c634300060c0033","linkReferences":{}},"methodIdentifiers":{"CLAIM_REWARDS_SELECTOR()":"40da225d","EXECUTE_CALLS_SELECTOR()":"12d9c1f6","LEND_AND_STAKE_SELECTOR()":"131461c0","LEND_SELECTOR()":"257cb1a3","REDEEM_SELECTOR()":"f7d882b5","STAKE_SELECTOR()":"3ffc1591","TAKE_MULTIPLE_ORDERS_SELECTOR()":"c32990a2","TAKE_ORDER_SELECTOR()":"863e5ad0","UNSTAKE_AND_REDEEM_SELECTOR()":"080456c1","UNSTAKE_SELECTOR()":"b23228cf","bindVault(address,bool,string)":"e16f57a6","executeCalls(address,bytes,bytes)":"b7fe1a11","getIntegrationManager()":"e7c45690","guard()":"7ceab3b1","parseAssetsForAction(address,bytes4,bytes)":"c54efee5","production()":"05e88b69","vault()":"fbfa77cf"},"id":11}