{"abi":[{"type":"constructor","inputs":[{"name":"_integrationManager","type":"address","internalType":"address"},{"name":"_guard","type":"address","internalType":"contract IGuard"}],"stateMutability":"nonpayable"},{"type":"function","name":"CLAIM_REWARDS_SELECTOR","inputs":[],"outputs":[{"name":"","type":"bytes4","internalType":"bytes4"}],"stateMutability":"view"},{"type":"function","name":"EXECUTE_CALLS_SELECTOR","inputs":[],"outputs":[{"name":"","type":"bytes4","internalType":"bytes4"}],"stateMutability":"view"},{"type":"function","name":"LEND_AND_STAKE_SELECTOR","inputs":[],"outputs":[{"name":"","type":"bytes4","internalType":"bytes4"}],"stateMutability":"view"},{"type":"function","name":"LEND_SELECTOR","inputs":[],"outputs":[{"name":"","type":"bytes4","internalType":"bytes4"}],"stateMutability":"view"},{"type":"function","name":"REDEEM_SELECTOR","inputs":[],"outputs":[{"name":"","type":"bytes4","internalType":"bytes4"}],"stateMutability":"view"},{"type":"function","name":"STAKE_SELECTOR","inputs":[],"outputs":[{"name":"","type":"bytes4","internalType":"bytes4"}],"stateMutability":"view"},{"type":"function","name":"TAKE_MULTIPLE_ORDERS_SELECTOR","inputs":[],"outputs":[{"name":"","type":"bytes4","internalType":"bytes4"}],"stateMutability":"view"},{"type":"function","name":"TAKE_ORDER_SELECTOR","inputs":[],"outputs":[{"name":"","type":"bytes4","internalType":"bytes4"}],"stateMutability":"view"},{"type":"function","name":"UNSTAKE_AND_REDEEM_SELECTOR","inputs":[],"outputs":[{"name":"","type":"bytes4","internalType":"bytes4"}],"stateMutability":"view"},{"type":"function","name":"UNSTAKE_SELECTOR","inputs":[],"outputs":[{"name":"","type":"bytes4","internalType":"bytes4"}],"stateMutability":"view"},{"type":"function","name":"bindVault","inputs":[{"name":"_vault","type":"address","internalType":"contract IVaultMock"}],"outputs":[],"stateMutability":"nonpayable"},{"type":"function","name":"executeCalls","inputs":[{"name":"_vaultProxy","type":"address","internalType":"address"},{"name":"_actionData","type":"bytes","internalType":"bytes"},{"name":"","type":"bytes","internalType":"bytes"}],"outputs":[],"stateMutability":"nonpayable"},{"type":"function","name":"getIntegrationManager","inputs":[],"outputs":[{"name":"integrationManager_","type":"address","internalType":"address"}],"stateMutability":"view"},{"type":"function","name":"guard","inputs":[],"outputs":[{"name":"","type":"address","internalType":"contract IGuard"}],"stateMutability":"view"},{"type":"function","name":"parseAssetsForAction","inputs":[{"name":"","type":"address","internalType":"address"},{"name":"_selector","type":"bytes4","internalType":"bytes4"},{"name":"_actionData","type":"bytes","internalType":"bytes"}],"outputs":[{"name":"spendAssetsHandleType_","type":"uint8","internalType":"enum IIntegrationManager.SpendAssetsHandleType"},{"name":"spendAssets_","type":"address[]","internalType":"address[]"},{"name":"spendAssetAmounts_","type":"uint256[]","internalType":"uint256[]"},{"name":"incomingAssets_","type":"address[]","internalType":"address[]"},{"name":"minIncomingAssetAmounts_","type":"uint256[]","internalType":"uint256[]"}],"stateMutability":"view"},{"type":"function","name":"vault","inputs":[],"outputs":[{"name":"","type":"address","internalType":"contract IVaultMock"}],"stateMutability":"view"}],"bytecode":{"object":"0x60a060405234801561001057600080fd5b506040516200171d3803806200171d83398101604081905261003191610068565b60609190911b6001600160601b031916608052600180546001600160a01b0319166001600160a01b039092169190911790556100b9565b6000806040838503121561007a578182fd5b8251610085816100a1565b6020840151909250610096816100a1565b809150509250929050565b6001600160a01b03811681146100b657600080fd5b50565b60805160601c611641620000dc60003980610433528061063152506116416000f3fe608060405234801561001057600080fd5b50600436106101005760003560e01c806395febcc111610097578063c54efee511610066578063c54efee5146101a0578063e7c45690146101c4578063f7d882b5146101cc578063fbfa77cf146101d457610100565b806395febcc114610168578063b23228cf1461017d578063b7fe1a1114610185578063c32990a21461019857610100565b80633ffc1591116100d35780633ffc15911461013b57806340da225d146101435780637ceab3b11461014b578063863e5ad01461016057610100565b8063080456c11461010557806312d9c1f614610123578063131461c01461012b578063257cb1a314610133575b600080fd5b61010d6101dc565b60405161011a9190611230565b60405180910390f35b61010d610200565b61010d610224565b61010d610248565b61010d61026c565b61010d610290565b6101536102b4565b60405161011a91906111ce565b61010d6102c3565b61017b6101763660046110e0565b6102e7565b005b61010d610404565b61017b610193366004610db1565b610428565b61010d6105b4565b6101b36101ae366004610d42565b6105d8565b60405161011a959493929190611245565b61015361062f565b61010d610653565b610153610677565b7f8334eb99be0145865eba9889fca2ee920288090caefff4cc776038e20ad9259a81565b7fb7fe1a117cff974e3f19d303d9f97ada44b7ecad880df21ddfdc69ba0493b79681565b7f29fa046e79524c3c5ac4c01df692c35e217802b2b13b21121b76cf0ef02b138c81565b7f099f75155f0e997bf83a7993a71d5e7e7540bd386fe1e84643a09ce6b412521981565b7ffa7dd04da627f433da73c4355ead9c75682a67a8fc84d3f6170ef0922f402d2481565b7fb9dfbaccbe5cd2a84fdcf1d15f23ef25d23086f5afbaa99516065ed4a5bbc7a381565b6001546001600160a01b031681565b7f03e38a2bd7063d45c897edeafc330e71657502dd86434d3c37a489caf116af6981565b6000546001600160a01b0316156103195760405162461bcd60e51b8152600401610310906113d5565b60405180910390fd5b6001600160a01b03811661033f5760405162461bcd60e51b81526004016103109061134c565b60006001600160a01b0316816001600160a01b0316630ee2cb106040518163ffffffff1660e01b815260040160206040518083038186803b15801561038357600080fd5b505afa158015610397573d6000803e3d6000fd5b505050506040513d601f19601f820116820180604052508101906103bb9190610d26565b6001600160a01b031614156103e25760405162461bcd60e51b815260040161031090611494565b600080546001600160a01b0319166001600160a01b0392909216919091179055565b7f68e30677f607df46e87da13e15b637784cfa62374b653f35ab43d10361a2f83081565b336001600160a01b037f000000000000000000000000000000000000000000000000000000000000000016146104705760405162461bcd60e51b815260040161031090611383565b8484848080601f01602080910402602001604051908101604052809392919081815260200183838082843760009201919091525050604080516020601f8a018190048102820181019092528881528a9350915088908890819084018382808284376000920182905250546001600160a01b038d811691161492506105099150505760405162461bcd60e51b81526004016103109061140c565b60606105158989610686565b945050505050606080610527836106ab565b9150915060005b825181101561056f5761056783828151811061054657fe5b602002602001015183838151811061055a57fe5b60200260200101516106ee565b60010161052e565b50505050606061057e826107d0565b5050905061058c83826107f6565b50505050606061059b826107d0565b925050506105a983826107f6565b505050505050505050565b7f0e7f692dad5b88fdee426250d6eae91207e56a2e8112b7364579bed1790e5bf481565b600060608080806001600160e01b0319881663b7fe1a1160e01b1461060f5760405162461bcd60e51b815260040161031090611515565b6106198787610686565b5060029d919c509a509198509650945050505050565b7f000000000000000000000000000000000000000000000000000000000000000090565b7fc29fa9dde84204c2908778afd0613d802d31cf046179b88f6d2b4a4e507ea2d581565b6000546001600160a01b031681565b60608080808061069886880188610ff4565b939b929a50909850965090945092505050565b606080828060200190518101906106c29190610e31565b80518251929450909250146106e95760405162461bcd60e51b8152600401610310906112c1565b915091565b600154600054604051636d5025f160e01b81526001600160a01b0392831692636d5025f19261072692911690869086906004016111e2565b600060405180830381600087803b15801561074057600080fd5b505af1158015610754573d6000803e3d6000fd5b5050505060006060836001600160a01b03168360405161077491906111b2565b6000604051808303816000865af19150503d80600081146107b1576040519150601f19603f3d011682016040523d82523d6000602084013e6107b6565b606091505b5091509150816107ca578051602082018181fd5b50505050565b6060806060838060200190518101906107e99190610f1a565b9250925092509193909250565b6060815167ffffffffffffffff8111801561081057600080fd5b5060405190808252806020026020018201604052801561083a578160200160208202803683370190505b50905060005b825181101561094b57600083828151811061085757fe5b60200260200101519050806001600160a01b03166370a08231306040518263ffffffff1660e01b815260040161088d91906111ce565b60206040518083038186803b1580156108a557600080fd5b505afa1580156108b9573d6000803e3d6000fd5b505050506040513d601f19601f820116820180604052508101906108dd91906110fc565b8383815181106108e957fe5b602002602001018181525050600083838151811061090357fe5b60200260200101511115610942576109428584848151811061092157fe5b6020026020010151836001600160a01b03166109529092919063ffffffff16565b50600101610840565b5092915050565b6109a88363a9059cbb60e01b8484604051602401610971929190611217565b60408051601f198184030181529190526020810180516001600160e01b03166001600160e01b0319909316929092179091526109ad565b505050565b6060610a02826040518060400160405280602081526020017f5361666545524332303a206c6f772d6c6576656c2063616c6c206661696c6564815250856001600160a01b0316610a3c9092919063ffffffff16565b8051909150156109a85780806020019051810190610a2091906110c0565b6109a85760405162461bcd60e51b8152600401610310906114cb565b6060610a4b8484600085610a55565b90505b9392505050565b606082471015610a775760405162461bcd60e51b815260040161031090611306565b610a8085610b16565b610a9c5760405162461bcd60e51b81526004016103109061145d565b60006060866001600160a01b03168587604051610ab991906111b2565b60006040518083038185875af1925050503d8060008114610af6576040519150601f19603f3d011682016040523d82523d6000602084013e610afb565b606091505b5091509150610b0b828286610b1c565b979650505050505050565b3b151590565b60608315610b2b575081610a4e565b825115610b3b5782518084602001fd5b8160405162461bcd60e51b815260040161031091906112ae565b600082601f830112610b65578081fd5b8135610b78610b7382611583565b61155c565b818152915060208083019084810181840286018201871015610b9957600080fd5b60005b84811015610bc1578135610baf816115f3565b84529282019290820190600101610b9c565b505050505092915050565b600082601f830112610bdc578081fd5b8151610bea610b7382611583565b818152915060208083019084810181840286018201871015610c0b57600080fd5b60005b84811015610bc1578151610c21816115f3565b84529282019290820190600101610c0e565b600082601f830112610c43578081fd5b8135610c51610b7382611583565b818152915060208083019084810181840286018201871015610c7257600080fd5b60005b84811015610bc157813584529282019290820190600101610c75565b60008083601f840112610ca2578182fd5b50813567ffffffffffffffff811115610cb9578182fd5b602083019150836020828501011115610cd157600080fd5b9250929050565b600082601f830112610ce8578081fd5b8135610cf6610b73826115a3565b9150808252836020828501011115610d0d57600080fd5b8060208401602084013760009082016020015292915050565b600060208284031215610d37578081fd5b8151610a4e816115f3565b60008060008060608587031215610d57578283fd5b8435610d62816115f3565b935060208501356001600160e01b031981168114610d7e578384fd5b9250604085013567ffffffffffffffff811115610d99578283fd5b610da587828801610c91565b95989497509550505050565b600080600080600060608688031215610dc8578081fd5b8535610dd3816115f3565b9450602086013567ffffffffffffffff80821115610def578283fd5b610dfb89838a01610c91565b90965094506040880135915080821115610e13578283fd5b50610e2088828901610c91565b969995985093965092949392505050565b6000806040808486031215610e44578283fd5b835167ffffffffffffffff80821115610e5b578485fd5b610e6787838801610bcc565b9450602091508186015181811115610e7d578485fd5b86019050601f81018713610e8f578384fd5b8051610e9d610b7382611583565b81815283810190838501875b84811015610f0957815186018c603f820112610ec357898afd5b87810151610ed3610b73826115a3565b8181528e8b838501011115610ee6578b8cfd5b610ef5828b83018d86016115c7565b865250509286019290860190600101610ea9565b50979a909950975050505050505050565b600080600060608486031215610f2e578283fd5b835167ffffffffffffffff80821115610f45578485fd5b610f5187838801610bcc565b9450602091508186015181811115610f67578485fd5b8601601f81018813610f77578485fd5b8051610f85610b7382611583565b81815284810190838601868402850187018c1015610fa1578889fd5b8894505b83851015610fc3578051835260019490940193918601918601610fa5565b5060408a0151909750945050505080821115610fdd578283fd5b50610fea86828701610bcc565b9150509250925092565b600080600080600060a0868803121561100b578283fd5b853567ffffffffffffffff80821115611022578485fd5b61102e89838a01610b55565b96506020880135915080821115611043578485fd5b61104f89838a01610c33565b95506040880135915080821115611064578485fd5b61107089838a01610b55565b94506060880135915080821115611085578283fd5b61109189838a01610c33565b935060808801359150808211156110a6578283fd5b506110b388828901610cd8565b9150509295509295909350565b6000602082840312156110d1578081fd5b81518015158114610a4e578182fd5b6000602082840312156110f1578081fd5b8135610a4e816115f3565b60006020828403121561110d578081fd5b5051919050565b6000815180845260208085019450808401835b8381101561114c5781516001600160a01b031687529582019590820190600101611127565b509495945050505050565b6000815180845260208085019450808401835b8381101561114c5781518752958201959082019060010161116a565b6000815180845261119e8160208601602086016115c7565b601f01601f19169290920160200192915050565b600082516111c48184602087016115c7565b9190910192915050565b6001600160a01b0391909116815260200190565b6001600160a01b0384811682528316602082015260606040820181905260009061120e90830184611186565b95945050505050565b6001600160a01b03929092168252602082015260400190565b6001600160e01b031991909116815260200190565b60006003871061125157fe5b86825260a0602083015261126860a0830187611114565b828103604084015261127a8187611157565b9050828103606084015261128e8186611114565b905082810360808401526112a28185611157565b98975050505050505050565b600060208252610a4e6020830184611186565b60208082526025908201527f556e657175616c2065787465726e616c2063616c6c7320617272617973206c656040820152646e6774687360d81b606082015260800190565b60208082526026908201527f416464726573733a20696e73756666696369656e742062616c616e636520666f6040820152651c8818d85b1b60d21b606082015260800190565b60208082526018908201527f4e756c6c206164647265737320656e636f756e74657265640000000000000000604082015260600190565b60208082526032908201527f4f6e6c792074686520496e746567726174696f6e4d616e616765722063616e2060408201527131b0b636103a3434b990333ab731ba34b7b760711b606082015260800190565b6020808252601c908201527f43616e20626520696e697469616c69736564206f6e6c79206f6e636500000000604082015260600190565b60208082526031908201527f4f6e6c792063616c6c732066726f6d207468652077686974656c6973746564206040820152701d985d5b1d08185c9948185b1b1bddd959607a1b606082015260800190565b6020808252601d908201527f416464726573733a2063616c6c20746f206e6f6e2d636f6e7472616374000000604082015260600190565b60208082526017908201527f456e636f756e74657265642066756e6e79207661756c74000000000000000000604082015260600190565b6020808252602a908201527f5361666545524332303a204552433230206f7065726174696f6e20646964206e6040820152691bdd081cdd58d8d9595960b21b606082015260800190565b60208082526027908201527f7061727365417373657473466f72416374696f6e3a205f73656c6563746f72206040820152661a5b9d985b1a5960ca1b606082015260800190565b60405181810167ffffffffffffffff8111828210171561157b57600080fd5b604052919050565b600067ffffffffffffffff821115611599578081fd5b5060209081020190565b600067ffffffffffffffff8211156115b9578081fd5b50601f01601f191660200190565b60005b838110156115e25781810151838201526020016115ca565b838111156107ca5750506000910152565b6001600160a01b038116811461160857600080fd5b5056fea26469706673582212205a2eb780f9dc3794c220e46bf1f3f22b8a3554663b1154d9b07d2f63d604aaba64736f6c634300060c0033","linkReferences":{}},"methodIdentifiers":{"CLAIM_REWARDS_SELECTOR()":"40da225d","EXECUTE_CALLS_SELECTOR()":"12d9c1f6","LEND_AND_STAKE_SELECTOR()":"131461c0","LEND_SELECTOR()":"257cb1a3","REDEEM_SELECTOR()":"f7d882b5","STAKE_SELECTOR()":"3ffc1591","TAKE_MULTIPLE_ORDERS_SELECTOR()":"c32990a2","TAKE_ORDER_SELECTOR()":"863e5ad0","UNSTAKE_AND_REDEEM_SELECTOR()":"080456c1","UNSTAKE_SELECTOR()":"b23228cf","bindVault(address)":"95febcc1","executeCalls(address,bytes,bytes)":"b7fe1a11","getIntegrationManager()":"e7c45690","guard()":"7ceab3b1","parseAssetsForAction(address,bytes4,bytes)":"c54efee5","vault()":"fbfa77cf"},"id":19}