{"abi":[{"type":"function","name":"name","inputs":[],"outputs":[{"name":"","type":"string","internalType":"string"}],"stateMutability":"view"},{"type":"function","name":"symbol","inputs":[],"outputs":[{"name":"","type":"string","internalType":"string"}],"stateMutability":"view"}],"bytecode":{"object":"0x60c0604052600d60808190526c2337b7b130b9002137b7b130b960991b60a090815261002e9160009190610060565b5060408051602081019182905260009081905261004d91600191610060565b5034801561005a57600080fd5b506100f3565b828054600181600116156101000203166002900490600052602060002090601f016020900481019282601f106100a157805160ff19168380011785556100ce565b828001600101855582156100ce579182015b828111156100ce5782518255916020019190600101906100b3565b506100da9291506100de565b5090565b5b808211156100da57600081556001016100df565b6101de806101026000396000f3fe608060405234801561001057600080fd5b50600436106100365760003560e01c806306fdde031461003b57806395d89b41146100b8575b600080fd5b6100436100c0565b6040805160208082528351818301528351919283929083019185019080838360005b8381101561007d578181015183820152602001610065565b50505050905090810190601f1680156100aa5780820380516001836020036101000a031916815260200191505b509250505060405180910390f35b61004361014e565b6000805460408051602060026001851615610100026000190190941693909304601f810184900484028201840190925281815292918301828280156101465780601f1061011b57610100808354040283529160200191610146565b820191906000526020600020905b81548152906001019060200180831161012957829003601f168201915b505050505081565b60018054604080516020600284861615610100026000190190941693909304601f810184900484028201840190925281815292918301828280156101465780601f1061011b5761010080835404028352916020019161014656fea264697066735822122054d423a13f86557a239064a2ccb4cad9573ec4aad9a2263421ef5276baf8985d64736f6c634300060c0033","linkReferences":{}},"methodIdentifiers":{"name()":"06fdde03","symbol()":"95d89b41"},"id":7}