{"abi":[{"type":"constructor","inputs":[{"name":"token","type":"address","internalType":"contract IEIP3009"}],"stateMutability":"nonpayable"},{"type":"function","name":"_token","inputs":[],"outputs":[{"name":"","type":"address","internalType":"contract IEIP3009"}],"stateMutability":"view"},{"type":"function","name":"amountReceived","inputs":[],"outputs":[{"name":"","type":"uint256","internalType":"uint256"}],"stateMutability":"view"},{"type":"function","name":"deposit","inputs":[{"name":"from","type":"address","internalType":"address"},{"name":"to","type":"address","internalType":"address"},{"name":"value","type":"uint256","internalType":"uint256"},{"name":"validAfter","type":"uint256","internalType":"uint256"},{"name":"validBefore","type":"uint256","internalType":"uint256"},{"name":"nonce","type":"bytes32","internalType":"bytes32"},{"name":"v","type":"uint8","internalType":"uint8"},{"name":"r","type":"bytes32","internalType":"bytes32"},{"name":"s","type":"bytes32","internalType":"bytes32"}],"outputs":[{"name":"","type":"uint256","internalType":"uint256"}],"stateMutability":"nonpayable"}],"bytecode":{"object":"0x608060405234801561001057600080fd5b506040516102ab3803806102ab8339818101604052602081101561003357600080fd5b5051600080546001600160a01b039092166001600160a01b0319909216919091179055610246806100656000396000f3fe608060405234801561001057600080fd5b50600436106100415760003560e01c8063d524b0ff14610046578063d561434714610060578063ecd0c0c3146100bf575b600080fd5b61004e6100e3565b60408051918252519081900360200190f35b61004e600480360361012081101561007757600080fd5b506001600160a01b03813581169160208101359091169060408101359060608101359060808101359060a08101359060ff60c0820135169060e08101359061010001356100e9565b6100c7610201565b604080516001600160a01b039092168252519081900360200190f35b60015481565b60006001600160a01b0389163014610148576040805162461bcd60e51b815260206004820152601e60248201527f526563697069656e74206973206e6f74207468697320636f6e74726163740000604482015290519081900360640190fd5b60008054604080516377aadf6360e11b81526001600160a01b038e811660048301528d81166024830152604482018d9052606482018c9052608482018b905260a482018a905260ff891660c483015260e4820188905261010482018790529151919092169263ef55bec692610124808201939182900301818387803b1580156101d057600080fd5b505af11580156101e4573d6000803e3d6000fd5b5050600180548b0190819055925050509998505050505050505050565b6000546001600160a01b03168156fea2646970667358221220d58f45fc5e0df67354d8ff06a068555d38b63da199ccd1f919f377c3502926d164736f6c634300060c0033","linkReferences":{}},"methodIdentifiers":{"_token()":"ecd0c0c3","amountReceived()":"d524b0ff","deposit(address,address,uint256,uint256,uint256,bytes32,uint8,bytes32,bytes32)":"d5614347"},"id":9}