{"abi":[{"type":"constructor","inputs":[],"stateMutability":"nonpayable"},{"type":"function","name":"decimals","inputs":[],"outputs":[{"name":"","type":"uint256","internalType":"uint256"}],"stateMutability":"view"},{"type":"function","name":"latestRoundData","inputs":[],"outputs":[{"name":"roundId","type":"uint80","internalType":"uint80"},{"name":"answer","type":"int256","internalType":"int256"},{"name":"startedAt","type":"uint256","internalType":"uint256"},{"name":"updatedAt","type":"uint256","internalType":"uint256"},{"name":"answeredInRound","type":"uint80","internalType":"uint80"}],"stateMutability":"view"},{"type":"function","name":"setDecimals","inputs":[{"name":"_decimals","type":"uint80","internalType":"uint80"}],"outputs":[],"stateMutability":"nonpayable"},{"type":"function","name":"setValue","inputs":[{"name":"_answer","type":"uint80","internalType":"uint80"}],"outputs":[],"stateMutability":"nonpayable"}],"bytecode":{"object":"0x608060405234801561001057600080fd5b506008600255610172806100256000396000f3fe608060405234801561001057600080fd5b506004361061004c5760003560e01c80630ef0b0dd146100515780632923cd5014610079578063313ce5671461009f578063feaf968c146100b9575b600080fd5b6100776004803603602081101561006757600080fd5b50356001600160501b0316610105565b005b6100776004803603602081101561008f57600080fd5b50356001600160501b0316610113565b6100a7610125565b60408051918252519081900360200190f35b6100c161012b565b60405180866001600160501b03168152602001858152602001848152602001838152602001826001600160501b031681526020019550505050505060405180910390f35b6001600160501b0316600255565b6001600160501b031660005542600155565b60025481565b60008054600154829081909192939456fea2646970667358221220b4c6ba12df5469995cfddd0d1cb36bbd5a93112234bebc68c6b35b7777c5cc2264736f6c634300060c0033","linkReferences":{}},"methodIdentifiers":{"decimals()":"313ce567","latestRoundData()":"feaf968c","setDecimals(uint80)":"0ef0b0dd","setValue(uint80)":"2923cd50"},"id":79}