{
  "abi": [
    {
      "inputs": [
        {
          "internalType": "contract IERC20",
          "name": "token",
          "type": "address"
        }
      ],
      "stateMutability": "nonpayable",
      "type": "constructor"
    },
    {
      "inputs": [],
      "name": "_token",
      "outputs": [
        {
          "internalType": "contract IERC20",
          "name": "",
          "type": "address"
        }
      ],
      "stateMutability": "view",
      "type": "function"
    },
    {
      "inputs": [],
      "name": "amountReceived",
      "outputs": [
        {
          "internalType": "uint256",
          "name": "",
          "type": "uint256"
        }
      ],
      "stateMutability": "view",
      "type": "function"
    },
    {
      "inputs": [
        {
          "internalType": "bytes",
          "name": "receiveAuthorization",
          "type": "bytes"
        }
      ],
      "name": "deposit",
      "outputs": [
        {
          "internalType": "uint256",
          "name": "",
          "type": "uint256"
        }
      ],
      "stateMutability": "nonpayable",
      "type": "function"
    }
  ],
  "bytecode": {
    "object": "0x608060405234801561001057600080fd5b506040516103b83803806103b88339818101604052602081101561003357600080fd5b5051600080546001600160a01b039092166001600160a01b0319909216919091179055610353806100656000396000f3fe608060405234801561001057600080fd5b50600436106100415760003560e01c806398b1e06a14610046578063d524b0ff146100c8578063ecd0c0c3146100d0575b600080fd5b6100b66004803603602081101561005c57600080fd5b81019060208101813564010000000081111561007757600080fd5b82018360208201111561008957600080fd5b803590602001918460018302840111640100000000831117156100ab57600080fd5b5090925090506100f4565b60408051918252519081900360200190f35b6100b66102bd565b6100d86102c3565b604080516001600160a01b039092168252519081900360200190f35b600080808061010660608287896102d2565b606081101561011457600080fd5b506001600160a01b038135811694506020820135169250604001359050308214610185576040805162461bcd60e51b815260206004820152601e60248201527f526563697069656e74206973206e6f74207468697320636f6e74726163740000604482015290519081900360640190fd5b600080546040516377aadf6360e11b602082018181526001600160a01b039093169290918a918a916024018383808284378083019250505093505050506040516020818303038152906040526040518082805190602001908083835b602083106102005780518252601f1990920191602091820191016101e1565b6001836020036101000a0380198251168184511680821785525050505050509050019150506000604051808303816000865af19150503d8060008114610262576040519150601f19603f3d011682016040523d82523d6000602084013e610267565b606091505b50509050806102a75760405162461bcd60e51b81526004018080602001828103825260238152602001806102fb6023913960400191505060405180910390fd5b5060018054909101908190559250505092915050565b60015481565b6000546001600160a01b031681565b600080858511156102e1578182fd5b838611156102ed578182fd5b505082019391909203915056fe4661696c656420746f207472616e7366657220746f2074686520666f72776172646572a26469706673582212208b7a2c4b5b4e2de898784acf07e1882e0cc5c3c5cb39ed02484802886b9defca64736f6c634300060c0033",
    "linkReferences": {}
  },
  "methodIdentifiers": {
    "_token()": "ecd0c0c3",
    "amountReceived()": "d524b0ff",
    "deposit(bytes)": "98b1e06a"
  },
  "id": 78
}