{"abi":[{"type":"function","name":"boom","inputs":[],"outputs":[],"stateMutability":"nonpayable"}],"bytecode":{"object":"0x6080604052348015600f57600080fd5b5060a88061001e6000396000f3fe6080604052348015600f57600080fd5b506004361060285760003560e01c8063a169ce0914602d575b600080fd5b60336035565b005b6040805162461bcd60e51b815260206004820152600d60248201526c426967206261646120626f6f6d60981b604482015290519081900360640190fdfea2646970667358221220721c849ea968ddc8e2dd647a10a9c70c292e841a623a707813e9a64d22961f0564736f6c634300060c0033","linkReferences":{}},"methodIdentifiers":{"boom()":"a169ce09"},"id":11}