{"abi":[{"type":"function","name":"revert1","inputs":[],"outputs":[],"stateMutability":"nonpayable"},{"type":"function","name":"revert2","inputs":[{"name":"second","type":"address","internalType":"address"}],"outputs":[],"stateMutability":"nonpayable"}],"bytecode":{"object":"0x608060405234801561001057600080fd5b50610128806100206000396000f3fe6080604052348015600f57600080fd5b506004361060325760003560e01c806325ad8c83146037578063b550276d14605c575b600080fd5b605a60048036036020811015604b57600080fd5b50356001600160a01b03166062565b005b605a60bc565b6000819050806001600160a01b031663a169ce096040518163ffffffff1660e01b8152600401600060405180830381600087803b15801560a157600080fd5b505af115801560b4573d6000803e3d6000fd5b505050505050565b6040805162461bcd60e51b81526020600482015260066024820152653337b7b130b960d11b604482015290519081900360640190fdfea26469706673582212204dc735912d59ddfb65520055bb83f327232c16bdb2537bb60cf26a9f6e296d5664736f6c634300060c0033","linkReferences":{}},"methodIdentifiers":{"revert1()":"b550276d","revert2(address)":"25ad8c83"},"id":10}