{
  "abi": [
    {
      "inputs": [],
      "name": "boom",
      "outputs": [],
      "stateMutability": "nonpayable",
      "type": "function"
    }
  ],
  "bytecode": {
    "object": "0x6080604052348015600f57600080fd5b5060a88061001e6000396000f3fe6080604052348015600f57600080fd5b506004361060285760003560e01c8063a169ce0914602d575b600080fd5b60336035565b005b6040805162461bcd60e51b815260206004820152600d60248201526c426967206261646120626f6f6d60981b604482015290519081900360640190fdfea26469706673582212201e2b20141ee4a7b15887fbe7533dfcd505122baa5e37d80d81352e8a18d1d7d864736f6c634300060c0033",
    "linkReferences": {}
  },
  "methodIdentifiers": {
    "boom()": "a169ce09"
  },
  "id": 81
}