{"abi":[{"type":"constructor","inputs":[{"name":"_token","type":"address","internalType":"contract IEIP3009"},{"name":"_comptroller","type":"address","internalType":"contract IEnzymeComptroller"},{"name":"_termsOfService","type":"address","internalType":"contract ITermsOfService"}],"stateMutability":"nonpayable"},{"type":"function","name":"amountProxied","inputs":[],"outputs":[{"name":"","type":"uint256","internalType":"uint256"}],"stateMutability":"view"},{"type":"function","name":"buySharesOnBehalfUsingTransferWithAuthorizationAndTermsOfService","inputs":[{"name":"from","type":"address","internalType":"address"},{"name":"to","type":"address","internalType":"address"},{"name":"value","type":"uint256","internalType":"uint256"},{"name":"validAfter","type":"uint256","internalType":"uint256"},{"name":"validBefore","type":"uint256","internalType":"uint256"},{"name":"nonce","type":"bytes32","internalType":"bytes32"},{"name":"v","type":"uint8","internalType":"uint8"},{"name":"r","type":"bytes32","internalType":"bytes32"},{"name":"s","type":"bytes32","internalType":"bytes32"},{"name":"minSharesQuantity","type":"uint256","internalType":"uint256"},{"name":"termsOfServiceHash","type":"bytes32","internalType":"bytes32"},{"name":"termsOfServiceSignature","type":"bytes","internalType":"bytes"}],"outputs":[{"name":"","type":"uint256","internalType":"uint256"}],"stateMutability":"nonpayable"},{"type":"function","name":"comptroller","inputs":[],"outputs":[{"name":"","type":"address","internalType":"contract IEnzymeComptroller"}],"stateMutability":"view"},{"type":"function","name":"isTermsOfServiceEnabled","inputs":[],"outputs":[{"name":"","type":"bool","internalType":"bool"}],"stateMutability":"pure"},{"type":"function","name":"termsOfService","inputs":[],"outputs":[{"name":"","type":"address","internalType":"contract ITermsOfService"}],"stateMutability":"view"},{"type":"function","name":"token","inputs":[],"outputs":[{"name":"","type":"address","internalType":"contract IEIP3009"}],"stateMutability":"view"}],"bytecode":{"object":"0x608060405234801561001057600080fd5b506040516106823803806106828339818101604052606081101561003357600080fd5b5080516020820151604090920151600080546001600160a01b039384166001600160a01b03199182161790915560028054948416948216949094179093556001805492909116919092161790556105f38061008f6000396000f3fe608060405234801561001057600080fd5b50600436106100625760003560e01c80631e117f49146100675780635fe3b5671461008b5780636e80f2be14610093578063be81e2e4146100ad578063e6b02fac146100c9578063fc0c546a14610192575b600080fd5b61006f61019a565b604080516001600160a01b039092168252519081900360200190f35b61006f6101a9565b61009b6101b8565b60408051918252519081900360200190f35b6100b56101be565b604080519115158252519081900360200190f35b61009b60048036036101808110156100e057600080fd5b6001600160a01b03823581169260208101359091169160408201359160608101359160808201359160a08101359160ff60c0830135169160e08101359161010082013591610120810135916101408201359190810190610180810161016082013564010000000081111561015357600080fd5b82018360208201111561016557600080fd5b8035906020019184600183028401116401000000008311171561018757600080fd5b5090925090506101c3565b61006f610576565b6001546001600160a01b031681565b6002546001600160a01b031681565b60035481565b600190565b6000831561029857600160009054906101000a90046001600160a01b03166001600160a01b0316635f145fb78f8686866040518563ffffffff1660e01b815260040180856001600160a01b0316815260200184815260200180602001806020018381038352858582818152602001925080828437600081840152601f19601f8201169050808301925050508381038252600081526020016020019650505050505050600060405180830381600087803b15801561027f57600080fd5b505af1158015610293573d6000803e3d6000fd5b505050505b600160009054906101000a90046001600160a01b03166001600160a01b0316635053b5638f6040518263ffffffff1660e01b815260040180826001600160a01b03168152602001915050602060405180830381600087803b1580156102fc57600080fd5b505af1158015610310573d6000803e3d6000fd5b505050506040513d602081101561032657600080fd5b50516103635760405162461bcd60e51b81526004018080602001828103825260388152602001806105866038913960400191505060405180910390fd5b60008054906101000a90046001600160a01b03166001600160a01b031663e3ee160e8f8f8f8f8f8f8f8f8f6040518a63ffffffff1660e01b8152600401808a6001600160a01b03168152602001896001600160a01b031681526020018881526020018781526020018681526020018581526020018460ff1681526020018381526020018281526020019950505050505050505050600060405180830381600087803b15801561041157600080fd5b505af1158015610425573d6000803e3d6000fd5b5050505060008054906101000a90046001600160a01b03166001600160a01b031663095ea7b3600260009054906101000a90046001600160a01b03168e6040518363ffffffff1660e01b815260040180836001600160a01b0316815260200182815260200192505050602060405180830381600087803b1580156104a857600080fd5b505af11580156104bc573d6000803e3d6000fd5b505050506040513d60208110156104d257600080fd5b5050600254604080516321dff62560e21b8152336004820152602481018f90526044810188905290516000926001600160a01b03169163877fd89491606480830192602092919082900301818787803b15801561052e57600080fd5b505af1158015610542573d6000803e3d6000fd5b505050506040513d602081101561055857600080fd5b5051600380548f0190559150509d9c50505050505050505050505050565b6000546001600160a01b03168156fe5465726d73206f66207365727669636520636865636b206661696c65642c2063616e6e6f742070726f6365656420746f206465706f736974a264697066735822122020c74ae2579d5b9b5e732d5ed0dd863fb7eaef1305c4682071bc97ca1ab401f864736f6c634300060c0033","linkReferences":{}},"methodIdentifiers":{"amountProxied()":"6e80f2be","buySharesOnBehalfUsingTransferWithAuthorizationAndTermsOfService(address,address,uint256,uint256,uint256,bytes32,uint8,bytes32,bytes32,uint256,bytes32,bytes)":"e6b02fac","comptroller()":"5fe3b567","isTermsOfServiceEnabled()":"be81e2e4","termsOfService()":"1e117f49","token()":"fc0c546a"},"id":2}