{
  "abi": [
    {
      "inputs": [
        {
          "internalType": "contract IEIP3009",
          "name": "_token",
          "type": "address"
        },
        {
          "internalType": "contract IEnzymeComptroller",
          "name": "_comptroller",
          "type": "address"
        }
      ],
      "stateMutability": "nonpayable",
      "type": "constructor"
    },
    {
      "inputs": [],
      "name": "amountProxied",
      "outputs": [
        {
          "internalType": "uint256",
          "name": "",
          "type": "uint256"
        }
      ],
      "stateMutability": "view",
      "type": "function"
    },
    {
      "inputs": [
        {
          "internalType": "address",
          "name": "from",
          "type": "address"
        },
        {
          "internalType": "address",
          "name": "to",
          "type": "address"
        },
        {
          "internalType": "uint256",
          "name": "value",
          "type": "uint256"
        },
        {
          "internalType": "uint256",
          "name": "validAfter",
          "type": "uint256"
        },
        {
          "internalType": "uint256",
          "name": "validBefore",
          "type": "uint256"
        },
        {
          "internalType": "bytes32",
          "name": "nonce",
          "type": "bytes32"
        },
        {
          "internalType": "uint8",
          "name": "v",
          "type": "uint8"
        },
        {
          "internalType": "bytes32",
          "name": "r",
          "type": "bytes32"
        },
        {
          "internalType": "bytes32",
          "name": "s",
          "type": "bytes32"
        },
        {
          "internalType": "uint256",
          "name": "minSharesQuantity",
          "type": "uint256"
        }
      ],
      "name": "buySharesOnBehalf",
      "outputs": [
        {
          "internalType": "uint256",
          "name": "",
          "type": "uint256"
        }
      ],
      "stateMutability": "nonpayable",
      "type": "function"
    },
    {
      "inputs": [],
      "name": "comptroller",
      "outputs": [
        {
          "internalType": "contract IEnzymeComptroller",
          "name": "",
          "type": "address"
        }
      ],
      "stateMutability": "view",
      "type": "function"
    },
    {
      "inputs": [],
      "name": "token",
      "outputs": [
        {
          "internalType": "contract IEIP3009",
          "name": "",
          "type": "address"
        }
      ],
      "stateMutability": "view",
      "type": "function"
    }
  ],
  "bytecode": {
    "object": "0x608060405234801561001057600080fd5b5060405161041a38038061041a8339818101604052604081101561003357600080fd5b508051602090910151600080546001600160a01b039384166001600160a01b031991821617909155600180549390921692169190911790556103a08061007a6000396000f3fe608060405234801561001057600080fd5b506004361061004c5760003560e01c80635fe3b567146100515780636e80f2be14610075578063b5b0ab321461008f578063fc0c546a146100f5575b600080fd5b6100596100fd565b604080516001600160a01b039092168252519081900360200190f35b61007d61010c565b60408051918252519081900360200190f35b61007d60048036036101408110156100a657600080fd5b506001600160a01b03813581169160208101359091169060408101359060608101359060808101359060a08101359060ff60c0820135169060e081013590610100810135906101200135610112565b61005961035b565b6001546001600160a01b031681565b60025481565b60006001600160a01b038a163014610171576040805162461bcd60e51b815260206004820152601e60248201527f526563697069656e74206973206e6f74207468697320636f6e74726163740000604482015290519081900360640190fd5b60008054604080516377aadf6360e11b81526001600160a01b038f811660048301528e81166024830152604482018e9052606482018d9052608482018c905260a482018b905260ff8a1660c483015260e4820189905261010482018890529151919092169263ef55bec692610124808201939182900301818387803b1580156101f957600080fd5b505af115801561020d573d6000803e3d6000fd5b5050505060008054906101000a90046001600160a01b03166001600160a01b031663095ea7b3600160009054906101000a90046001600160a01b03168b6040518363ffffffff1660e01b815260040180836001600160a01b0316815260200182815260200192505050602060405180830381600087803b15801561029057600080fd5b505af11580156102a4573d6000803e3d6000fd5b505050506040513d60208110156102ba57600080fd5b5050600154604080516321dff62560e21b8152336004820152602481018c90526044810185905290516000926001600160a01b03169163877fd89491606480830192602092919082900301818787803b15801561031657600080fd5b505af115801561032a573d6000803e3d6000fd5b505050506040513d602081101561034057600080fd5b5051600280548c0190559150509a9950505050505050505050565b6000546001600160a01b03168156fea26469706673582212209a0d54714d18ef3ea9511d6b929ef1e24f3bfa5f32cb5e31bb7daa5e888503f764736f6c634300060c0033",
    "linkReferences": {}
  },
  "methodIdentifiers": {
    "amountProxied()": "6e80f2be",
    "buySharesOnBehalf(address,address,uint256,uint256,uint256,bytes32,uint8,bytes32,bytes32,uint256)": "b5b0ab32",
    "comptroller()": "5fe3b567",
    "token()": "fc0c546a"
  },
  "id": 9
}