{"abi":[{"type":"constructor","inputs":[{"name":"_token","type":"address","internalType":"contract IEIP3009"},{"name":"_comptroller","type":"address","internalType":"contract IEnzymeComptroller"}],"stateMutability":"nonpayable"},{"type":"function","name":"amountProxied","inputs":[],"outputs":[{"name":"","type":"uint256","internalType":"uint256"}],"stateMutability":"view"},{"type":"function","name":"buySharesOnBehalfUsingReceiveWithAuthorization","inputs":[{"name":"from","type":"address","internalType":"address"},{"name":"to","type":"address","internalType":"address"},{"name":"value","type":"uint256","internalType":"uint256"},{"name":"validAfter","type":"uint256","internalType":"uint256"},{"name":"validBefore","type":"uint256","internalType":"uint256"},{"name":"nonce","type":"bytes32","internalType":"bytes32"},{"name":"v","type":"uint8","internalType":"uint8"},{"name":"r","type":"bytes32","internalType":"bytes32"},{"name":"s","type":"bytes32","internalType":"bytes32"},{"name":"minSharesQuantity","type":"uint256","internalType":"uint256"}],"outputs":[{"name":"","type":"uint256","internalType":"uint256"}],"stateMutability":"nonpayable"},{"type":"function","name":"buySharesOnBehalfUsingTransferWithAuthorization","inputs":[{"name":"from","type":"address","internalType":"address"},{"name":"to","type":"address","internalType":"address"},{"name":"value","type":"uint256","internalType":"uint256"},{"name":"validAfter","type":"uint256","internalType":"uint256"},{"name":"validBefore","type":"uint256","internalType":"uint256"},{"name":"nonce","type":"bytes32","internalType":"bytes32"},{"name":"v","type":"uint8","internalType":"uint8"},{"name":"r","type":"bytes32","internalType":"bytes32"},{"name":"s","type":"bytes32","internalType":"bytes32"},{"name":"minSharesQuantity","type":"uint256","internalType":"uint256"}],"outputs":[{"name":"","type":"uint256","internalType":"uint256"}],"stateMutability":"nonpayable"},{"type":"function","name":"comptroller","inputs":[],"outputs":[{"name":"","type":"address","internalType":"contract IEnzymeComptroller"}],"stateMutability":"view"},{"type":"function","name":"token","inputs":[],"outputs":[{"name":"","type":"address","internalType":"contract IEIP3009"}],"stateMutability":"view"}],"bytecode":{"object":"0x608060405234801561001057600080fd5b506040516105153803806105158339818101604052604081101561003357600080fd5b508051602090910151600080546001600160a01b039384166001600160a01b0319918216179091556001805493909216921691909117905561049b8061007a6000396000f3fe608060405234801561001057600080fd5b50600436106100565760003560e01c80621291eb1461005b5780635fe3b567146100d35780636e80f2be146100f75780637cc4040b146100ff578063fc0c546a14610165575b600080fd5b6100c1600480360361014081101561007257600080fd5b506001600160a01b03813581169160208101359091169060408101359060608101359060808101359060a08101359060ff60c0820135169060e08101359061010081013590610120013561016d565b60408051918252519081900360200190f35b6100db6103b6565b604080516001600160a01b039092168252519081900360200190f35b6100c16103c5565b6100c1600480360361014081101561011657600080fd5b506001600160a01b03813581169160208101359091169060408101359060608101359060808101359060a08101359060ff60c0820135169060e0810135906101008101359061012001356103cb565b6100db610456565b60006001600160a01b038a1630146101cc576040805162461bcd60e51b815260206004820152601e60248201527f526563697069656e74206973206e6f74207468697320636f6e74726163740000604482015290519081900360640190fd5b60008054604080516377aadf6360e11b81526001600160a01b038f811660048301528e81166024830152604482018e9052606482018d9052608482018c905260a482018b905260ff8a1660c483015260e4820189905261010482018890529151919092169263ef55bec692610124808201939182900301818387803b15801561025457600080fd5b505af1158015610268573d6000803e3d6000fd5b5050505060008054906101000a90046001600160a01b03166001600160a01b031663095ea7b3600160009054906101000a90046001600160a01b03168b6040518363ffffffff1660e01b815260040180836001600160a01b0316815260200182815260200192505050602060405180830381600087803b1580156102eb57600080fd5b505af11580156102ff573d6000803e3d6000fd5b505050506040513d602081101561031557600080fd5b5050600154604080516321dff62560e21b8152336004820152602481018c90526044810185905290516000926001600160a01b03169163877fd89491606480830192602092919082900301818787803b15801561037157600080fd5b505af1158015610385573d6000803e3d6000fd5b505050506040513d602081101561039b57600080fd5b5051600280548c0190559150509a9950505050505050505050565b6001546001600160a01b031681565b60025481565b60008054604080516371f70b0760e11b81526001600160a01b038e811660048301528d81166024830152604482018d9052606482018c9052608482018b905260a482018a905260ff891660c483015260e4820188905261010482018790529151919092169163e3ee160e91610124808301928692919082900301818387803b15801561025457600080fd5b6000546001600160a01b03168156fea264697066735822122050727b1b0030523ef6b88283228288d4f50372de6257c3c97ebf729ca7c52f5164736f6c634300060c0033","linkReferences":{}},"methodIdentifiers":{"amountProxied()":"6e80f2be","buySharesOnBehalfUsingReceiveWithAuthorization(address,address,uint256,uint256,uint256,bytes32,uint8,bytes32,bytes32,uint256)":"001291eb","buySharesOnBehalfUsingTransferWithAuthorization(address,address,uint256,uint256,uint256,bytes32,uint8,bytes32,bytes32,uint256)":"7cc4040b","comptroller()":"5fe3b567","token()":"fc0c546a"},"id":74}