{
  "abi": [
    {
      "inputs": [
        {
          "internalType": "address",
          "name": "_integrationManager",
          "type": "address"
        },
        {
          "internalType": "address payable",
          "name": "_whitelistedVault",
          "type": "address"
        }
      ],
      "stateMutability": "nonpayable",
      "type": "constructor"
    },
    {
      "inputs": [],
      "name": "CLAIM_REWARDS_SELECTOR",
      "outputs": [
        {
          "internalType": "bytes4",
          "name": "",
          "type": "bytes4"
        }
      ],
      "stateMutability": "view",
      "type": "function"
    },
    {
      "inputs": [],
      "name": "EXECUTE_CALLS_SELECTOR",
      "outputs": [
        {
          "internalType": "bytes4",
          "name": "",
          "type": "bytes4"
        }
      ],
      "stateMutability": "view",
      "type": "function"
    },
    {
      "inputs": [],
      "name": "LEND_AND_STAKE_SELECTOR",
      "outputs": [
        {
          "internalType": "bytes4",
          "name": "",
          "type": "bytes4"
        }
      ],
      "stateMutability": "view",
      "type": "function"
    },
    {
      "inputs": [],
      "name": "LEND_SELECTOR",
      "outputs": [
        {
          "internalType": "bytes4",
          "name": "",
          "type": "bytes4"
        }
      ],
      "stateMutability": "view",
      "type": "function"
    },
    {
      "inputs": [],
      "name": "REDEEM_SELECTOR",
      "outputs": [
        {
          "internalType": "bytes4",
          "name": "",
          "type": "bytes4"
        }
      ],
      "stateMutability": "view",
      "type": "function"
    },
    {
      "inputs": [],
      "name": "STAKE_SELECTOR",
      "outputs": [
        {
          "internalType": "bytes4",
          "name": "",
          "type": "bytes4"
        }
      ],
      "stateMutability": "view",
      "type": "function"
    },
    {
      "inputs": [],
      "name": "TAKE_MULTIPLE_ORDERS_SELECTOR",
      "outputs": [
        {
          "internalType": "bytes4",
          "name": "",
          "type": "bytes4"
        }
      ],
      "stateMutability": "view",
      "type": "function"
    },
    {
      "inputs": [],
      "name": "TAKE_ORDER_SELECTOR",
      "outputs": [
        {
          "internalType": "bytes4",
          "name": "",
          "type": "bytes4"
        }
      ],
      "stateMutability": "view",
      "type": "function"
    },
    {
      "inputs": [],
      "name": "UNSTAKE_AND_REDEEM_SELECTOR",
      "outputs": [
        {
          "internalType": "bytes4",
          "name": "",
          "type": "bytes4"
        }
      ],
      "stateMutability": "view",
      "type": "function"
    },
    {
      "inputs": [],
      "name": "UNSTAKE_SELECTOR",
      "outputs": [
        {
          "internalType": "bytes4",
          "name": "",
          "type": "bytes4"
        }
      ],
      "stateMutability": "view",
      "type": "function"
    },
    {
      "inputs": [
        {
          "internalType": "address",
          "name": "_vaultProxy",
          "type": "address"
        },
        {
          "internalType": "bytes",
          "name": "_actionData",
          "type": "bytes"
        },
        {
          "internalType": "bytes",
          "name": "",
          "type": "bytes"
        }
      ],
      "name": "executeCalls",
      "outputs": [],
      "stateMutability": "nonpayable",
      "type": "function"
    },
    {
      "inputs": [],
      "name": "getIntegrationManager",
      "outputs": [
        {
          "internalType": "address",
          "name": "integrationManager_",
          "type": "address"
        }
      ],
      "stateMutability": "view",
      "type": "function"
    },
    {
      "inputs": [
        {
          "internalType": "address",
          "name": "",
          "type": "address"
        },
        {
          "internalType": "bytes4",
          "name": "_selector",
          "type": "bytes4"
        },
        {
          "internalType": "bytes",
          "name": "_actionData",
          "type": "bytes"
        }
      ],
      "name": "parseAssetsForAction",
      "outputs": [
        {
          "internalType": "enum IIntegrationManager.SpendAssetsHandleType",
          "name": "spendAssetsHandleType_",
          "type": "uint8"
        },
        {
          "internalType": "address[]",
          "name": "spendAssets_",
          "type": "address[]"
        },
        {
          "internalType": "uint256[]",
          "name": "spendAssetAmounts_",
          "type": "uint256[]"
        },
        {
          "internalType": "address[]",
          "name": "incomingAssets_",
          "type": "address[]"
        },
        {
          "internalType": "uint256[]",
          "name": "minIncomingAssetAmounts_",
          "type": "uint256[]"
        }
      ],
      "stateMutability": "view",
      "type": "function"
    },
    {
      "inputs": [],
      "name": "whitelistedVault",
      "outputs": [
        {
          "internalType": "address payable",
          "name": "",
          "type": "address"
        }
      ],
      "stateMutability": "view",
      "type": "function"
    }
  ],
  "bytecode": {
    "object": "0x60a06040523480156200001157600080fd5b506040516200156c3803806200156c83398101604081905262000034916200013e565b606082901b6001600160601b031916608052600080546001600160a01b0319166001600160a01b0383811691909117918290556040805162ee2cb160e41b8152905192909116918291630ee2cb10916004808301926020929190829003018186803b158015620000a357600080fd5b505afa158015620000b8573d6000803e3d6000fd5b505050506040513d601f19601f82011682018060405250810190620000de919062000118565b6001600160a01b03166200010f5760405162461bcd60e51b815260040162000106906200017c565b60405180910390fd5b505050620001cc565b6000602082840312156200012a578081fd5b81516200013781620001b3565b9392505050565b6000806040838503121562000151578081fd5b82516200015e81620001b3565b60208401519092506200017181620001b3565b809150509250929050565b60208082526017908201527f456e636f756e74657265642066756e6e79207661756c74000000000000000000604082015260600190565b6001600160a01b0381168114620001c957600080fd5b50565b60805160601c61137d620001ef600039806102e55280610578525061137d6000f3fe608060405234801561001057600080fd5b50600436106100ea5760003560e01c80639adf0ee31161008c578063c32990a211610066578063c32990a21461016f578063c54efee514610177578063e7c456901461019b578063f7d882b5146101a3576100ea565b80639adf0ee31461013d578063b23228cf14610152578063b7fe1a111461015a576100ea565b8063257cb1a3116100c8578063257cb1a31461011d5780633ffc15911461012557806340da225d1461012d578063863e5ad014610135576100ea565b8063080456c1146100ef57806312d9c1f61461010d578063131461c014610115575b600080fd5b6100f76101ab565b6040516101049190610fed565b60405180910390f35b6100f76101cf565b6100f76101f3565b6100f7610217565b6100f761023b565b6100f761025f565b6100f7610283565b6101456102a7565b6040516101049190610fc0565b6100f76102b6565b61016d610168366004610beb565b6102da565b005b6100f76104fb565b61018a610185366004610b7c565b61051f565b604051610104959493929190611002565b610145610576565b6100f761059a565b7f8334eb99be0145865eba9889fca2ee920288090caefff4cc776038e20ad9259a81565b7fb7fe1a117cff974e3f19d303d9f97ada44b7ecad880df21ddfdc69ba0493b79681565b7f29fa046e79524c3c5ac4c01df692c35e217802b2b13b21121b76cf0ef02b138c81565b7f099f75155f0e997bf83a7993a71d5e7e7540bd386fe1e84643a09ce6b412521981565b7ffa7dd04da627f433da73c4355ead9c75682a67a8fc84d3f6170ef0922f402d2481565b7fb9dfbaccbe5cd2a84fdcf1d15f23ef25d23086f5afbaa99516065ed4a5bbc7a381565b7f03e38a2bd7063d45c897edeafc330e71657502dd86434d3c37a489caf116af6981565b6000546001600160a01b031681565b7f68e30677f607df46e87da13e15b637784cfa62374b653f35ab43d10361a2f83081565b336001600160a01b037f0000000000000000000000000000000000000000000000000000000000000000161461032b5760405162461bcd60e51b815260040161032290611129565b60405180910390fd5b8484848080601f01602080910402602001604051908101604052809392919081815260200183838082843760009201919091525050604080516020601f8a018190048102820181019092528881528a9350915088908890819084018382808284376000920182905250546001600160a01b038d811691161492506103c49150505760405162461bcd60e51b81526004016103229061117b565b60606103d089896105be565b9450505050506060806103e2836105e3565b9150915060005b82518110156104b657600083828151811061040057fe5b60200260200101519050606083838151811061041857fe5b6020026020010151905060006060836001600160a01b03168360405161043e9190610fa4565b6000604051808303816000865af19150503d806000811461047b576040519150601f19603f3d011682016040523d82523d6000602084013e610480565b606091505b50915091508181906104a55760405162461bcd60e51b8152600401610322919061106b565b5050600190930192506103e9915050565b5050505060606104c582610626565b505090506104d3838261064c565b5050505060606104e282610626565b925050506104f0838261064c565b505050505050505050565b7f0e7f692dad5b88fdee426250d6eae91207e56a2e8112b7364579bed1790e5bf481565b600060608080806001600160e01b0319881663b7fe1a1160e01b146105565760405162461bcd60e51b81526004016103229061124d565b61056087876105be565b5060029d919c509a509198509650945050505050565b7f000000000000000000000000000000000000000000000000000000000000000090565b7fc29fa9dde84204c2908778afd0613d802d31cf046179b88f6d2b4a4e507ea2d581565b6060808080806105d086880188610e2e565b939b929a50909850965090945092505050565b606080828060200190518101906105fa9190610c6b565b80518251929450909250146106215760405162461bcd60e51b81526004016103229061109e565b915091565b60608060608380602001905181019061063f9190610d54565b9250925092509193909250565b6060815167ffffffffffffffff8111801561066657600080fd5b50604051908082528060200260200182016040528015610690578160200160208202803683370190505b50905060005b82518110156107a15760008382815181106106ad57fe5b60200260200101519050806001600160a01b03166370a08231306040518263ffffffff1660e01b81526004016106e39190610fc0565b60206040518083038186803b1580156106fb57600080fd5b505afa15801561070f573d6000803e3d6000fd5b505050506040513d601f19601f820116820180604052508101906107339190610f1a565b83838151811061073f57fe5b602002602001018181525050600083838151811061075957fe5b60200260200101511115610798576107988584848151811061077757fe5b6020026020010151836001600160a01b03166107a89092919063ffffffff16565b50600101610696565b5092915050565b6107fe8363a9059cbb60e01b84846040516024016107c7929190610fd4565b60408051601f198184030181529190526020810180516001600160e01b03166001600160e01b031990931692909217909152610803565b505050565b6060610858826040518060400160405280602081526020017f5361666545524332303a206c6f772d6c6576656c2063616c6c206661696c6564815250856001600160a01b03166108929092919063ffffffff16565b8051909150156107fe57808060200190518101906108769190610efa565b6107fe5760405162461bcd60e51b815260040161032290611203565b60606108a184846000856108ab565b90505b9392505050565b6060824710156108cd5760405162461bcd60e51b8152600401610322906110e3565b6108d68561096c565b6108f25760405162461bcd60e51b8152600401610322906111cc565b60006060866001600160a01b0316858760405161090f9190610fa4565b60006040518083038185875af1925050503d806000811461094c576040519150601f19603f3d011682016040523d82523d6000602084013e610951565b606091505b5091509150610961828286610972565b979650505050505050565b3b151590565b606083156109815750816108a4565b8251156109915782518084602001fd5b8160405162461bcd60e51b8152600401610322919061106b565b600082601f8301126109bb578081fd5b81356109ce6109c9826112bb565b611294565b8181529150602080830190848101818402860182018710156109ef57600080fd5b60005b84811015610a17578135610a058161132f565b845292820192908201906001016109f2565b505050505092915050565b600082601f830112610a32578081fd5b8151610a406109c9826112bb565b818152915060208083019084810181840286018201871015610a6157600080fd5b60005b84811015610a17578151610a778161132f565b84529282019290820190600101610a64565b600082601f830112610a99578081fd5b8135610aa76109c9826112bb565b818152915060208083019084810181840286018201871015610ac857600080fd5b60005b84811015610a1757813584529282019290820190600101610acb565b60008083601f840112610af8578182fd5b50813567ffffffffffffffff811115610b0f578182fd5b602083019150836020828501011115610b2757600080fd5b9250929050565b600082601f830112610b3e578081fd5b8135610b4c6109c9826112db565b9150808252836020828501011115610b6357600080fd5b8060208401602084013760009082016020015292915050565b60008060008060608587031215610b91578384fd5b8435610b9c8161132f565b935060208501356001600160e01b031981168114610bb8578384fd5b9250604085013567ffffffffffffffff811115610bd3578283fd5b610bdf87828801610ae7565b95989497509550505050565b600080600080600060608688031215610c02578081fd5b8535610c0d8161132f565b9450602086013567ffffffffffffffff80821115610c29578283fd5b610c3589838a01610ae7565b90965094506040880135915080821115610c4d578283fd5b50610c5a88828901610ae7565b969995985093965092949392505050565b6000806040808486031215610c7e578283fd5b835167ffffffffffffffff80821115610c95578485fd5b610ca187838801610a22565b9450602091508186015181811115610cb7578485fd5b86019050601f81018713610cc9578384fd5b8051610cd76109c9826112bb565b81815283810190838501875b84811015610d4357815186018c603f820112610cfd57898afd5b87810151610d0d6109c9826112db565b8181528e8b838501011115610d20578b8cfd5b610d2f828b83018d86016112ff565b865250509286019290860190600101610ce3565b50979a909950975050505050505050565b600080600060608486031215610d68578283fd5b835167ffffffffffffffff80821115610d7f578485fd5b610d8b87838801610a22565b9450602091508186015181811115610da1578485fd5b8601601f81018813610db1578485fd5b8051610dbf6109c9826112bb565b81815284810190838601868402850187018c1015610ddb578889fd5b8894505b83851015610dfd578051835260019490940193918601918601610ddf565b5060408a0151909750945050505080821115610e17578283fd5b50610e2486828701610a22565b9150509250925092565b600080600080600060a08688031215610e45578081fd5b853567ffffffffffffffff80821115610e5c578283fd5b610e6889838a016109ab565b96506020880135915080821115610e7d578283fd5b610e8989838a01610a89565b95506040880135915080821115610e9e578283fd5b610eaa89838a016109ab565b94506060880135915080821115610ebf578283fd5b610ecb89838a01610a89565b93506080880135915080821115610ee0578283fd5b50610eed88828901610b2e565b9150509295509295909350565b600060208284031215610f0b578081fd5b815180151581146108a4578182fd5b600060208284031215610f2b578081fd5b5051919050565b6000815180845260208085019450808401835b83811015610f6a5781516001600160a01b031687529582019590820190600101610f45565b509495945050505050565b6000815180845260208085019450808401835b83811015610f6a57815187529582019590820190600101610f88565b60008251610fb68184602087016112ff565b9190910192915050565b6001600160a01b0391909116815260200190565b6001600160a01b03929092168252602082015260400190565b6001600160e01b031991909116815260200190565b60006003871061100e57fe5b86825260a0602083015261102560a0830187610f32565b82810360408401526110378187610f75565b9050828103606084015261104b8186610f32565b9050828103608084015261105f8185610f75565b98975050505050505050565b600060208252825180602084015261108a8160408501602087016112ff565b601f01601f19169190910160400192915050565b60208082526025908201527f556e657175616c2065787465726e616c2063616c6c7320617272617973206c656040820152646e6774687360d81b606082015260800190565b60208082526026908201527f416464726573733a20696e73756666696369656e742062616c616e636520666f6040820152651c8818d85b1b60d21b606082015260800190565b60208082526032908201527f4f6e6c792074686520496e746567726174696f6e4d616e616765722063616e2060408201527131b0b636103a3434b990333ab731ba34b7b760711b606082015260800190565b60208082526031908201527f4f6e6c792063616c6c732066726f6d207468652077686974656c6973746564206040820152701d985d5b1d08185c9948185b1b1bddd959607a1b606082015260800190565b6020808252601d908201527f416464726573733a2063616c6c20746f206e6f6e2d636f6e7472616374000000604082015260600190565b6020808252602a908201527f5361666545524332303a204552433230206f7065726174696f6e20646964206e6040820152691bdd081cdd58d8d9595960b21b606082015260800190565b60208082526027908201527f7061727365417373657473466f72416374696f6e3a205f73656c6563746f72206040820152661a5b9d985b1a5960ca1b606082015260800190565b60405181810167ffffffffffffffff811182821017156112b357600080fd5b604052919050565b600067ffffffffffffffff8211156112d1578081fd5b5060209081020190565b600067ffffffffffffffff8211156112f1578081fd5b50601f01601f191660200190565b60005b8381101561131a578181015183820152602001611302565b83811115611329576000848401525b50505050565b6001600160a01b038116811461134457600080fd5b5056fea2646970667358221220c7239bcf01edc41d7e2d52507d4b4c704156e75144d12f05d37e12aedb1fcf8664736f6c634300060c0033",
    "linkReferences": {}
  },
  "methodIdentifiers": {
    "CLAIM_REWARDS_SELECTOR()": "40da225d",
    "EXECUTE_CALLS_SELECTOR()": "12d9c1f6",
    "LEND_AND_STAKE_SELECTOR()": "131461c0",
    "LEND_SELECTOR()": "257cb1a3",
    "REDEEM_SELECTOR()": "f7d882b5",
    "STAKE_SELECTOR()": "3ffc1591",
    "TAKE_MULTIPLE_ORDERS_SELECTOR()": "c32990a2",
    "TAKE_ORDER_SELECTOR()": "863e5ad0",
    "UNSTAKE_AND_REDEEM_SELECTOR()": "080456c1",
    "UNSTAKE_SELECTOR()": "b23228cf",
    "executeCalls(address,bytes,bytes)": "b7fe1a11",
    "getIntegrationManager()": "e7c45690",
    "parseAssetsForAction(address,bytes4,bytes)": "c54efee5",
    "whitelistedVault()": "9adf0ee3"
  },
  "id": 82
}