{"abi":[{"type":"function","name":"isAllowedCowSwap","inputs":[{"name":"settlement","type":"address","internalType":"address"}],"outputs":[{"name":"","type":"bool","internalType":"bool"}],"stateMutability":"view"},{"type":"event","name":"CowSwapApproved","inputs":[{"name":"settlementContract","type":"address","indexed":false,"internalType":"address"},{"name":"notes","type":"string","indexed":false,"internalType":"string"}],"anonymous":false},{"type":"event","name":"OrderSigned","inputs":[{"name":"timestamp","type":"uint256","indexed":true,"internalType":"uint256"},{"name":"orderUid","type":"bytes","indexed":false,"internalType":"bytes"},{"name":"order","type":"tuple","indexed":false,"internalType":"struct GPv2Order.Data","components":[{"name":"sellToken","type":"address","internalType":"contract IERC20"},{"name":"buyToken","type":"address","internalType":"contract IERC20"},{"name":"receiver","type":"address","internalType":"address"},{"name":"sellAmount","type":"uint256","internalType":"uint256"},{"name":"buyAmount","type":"uint256","internalType":"uint256"},{"name":"validTo","type":"uint32","internalType":"uint32"},{"name":"appData","type":"bytes32","internalType":"bytes32"},{"name":"feeAmount","type":"uint256","internalType":"uint256"},{"name":"kind","type":"bytes32","internalType":"bytes32"},{"name":"partiallyFillable","type":"bool","internalType":"bool"},{"name":"sellTokenBalance","type":"bytes32","internalType":"bytes32"},{"name":"buyTokenBalance","type":"bytes32","internalType":"bytes32"}]},{"name":"validTo","type":"uint32","indexed":false,"internalType":"uint32"},{"name":"buyAmount","type":"uint256","indexed":false,"internalType":"uint256"},{"name":"sellAmount","type":"uint256","indexed":false,"internalType":"uint256"}],"anonymous":false}],"bytecode":{"object":"0x60808060405234601b5761076790816100208239308160070152f35b5f80fdfe6080604052307f0000000000000000000000000000000000000000000000000000000000000000146004361015610034575f80fd5b5f3560e01c8063333f22e814610071578063c0f96f24146100675763cb64896a1461005d575f80fd5b1561022a575b5f80fd5b50156100f5575f80fd5b602036600319011261006357602060ff61009161008c61009d565b6104c8565b54166040519015158152f35b600435906001600160a01b038216820361006357565b602435906001600160a01b038216820361006357565b606435906001600160a01b038216820361006357565b608435906001600160a01b038216820361006357565b60403660031901126100635761010961009d565b6024356001600160401b03811161006357366023820112156100635760048101356001600160401b03811161006357366024828401011161006357826060916101727f936b7187f49d778f82d1c17d927c8006f00eac6d2e5ccb50720dbc7afda8b4a9956104c8565b600160ff1982541617905580602460405195869460018060a01b031685526040602086015282604086015201848401375f828201840152601f01601f19168101030190a1005b805180835260209291819084018484015e5f828201840152601f01601f1916010190565b90610227916020815260406101fd83516060602085015260808401906101b8565b60208401516001600160a01b031683830152920151818303601f19016060909201919091526101b8565b90565b60e03660031901126100635761023e61009d565b6102466100b3565b61024e6100c9565b916102576100df565b60c435939060a43561026761055d565b506102ae6102806102774261058c565b63ffffffff1690565b9261029c61028c61053c565b956001600160a01b0316866105af565b6001600160a01b0316602085016105af565b6102bb85604085016105af565b60608301908152608083019586526102dd60a0840192839063ffffffff169052565b60443560c08401525f60e084018190527ff3b277728b3fee749481eb3e0b3b48980dbbab78658fc419025cb16eee3467756101008501526101208401527f5a28e9363bb942b639270062aa6bb295f434bcdfc42c97267bf003f272060dc9610140840181905261016084015260405163f698da2560e01b8152956020876004816001600160a01b0389165afa80156104c3576104217f2c222fa91d81130fe56ee74391b3b6a113851c1f9cd5bc5853108490ccafc782946104176103f9610434946104909c5f91610494575b508990604291601f190180517fd5a25ba2e97094ad7d83dc28a6572da797d6b3e7fc6663bd93efb789fc17e48982526101a0822091526040519161190160f01b8352600283015260228201522090565b6104016105d8565b9a610410845163ffffffff1690565b918c6106fc565b5163ffffffff1690565b9151925160405193849342978a866105fa565b0390a260405163ec6cb13f60e01b60208201529061047f9061046b8361045d86602483016106df565b03601f198101855284610514565b61047361054e565b938452602084016105af565b6040820152604051918291826101dc565b0390f35b6104b6915060203d6020116104bc575b6104ae8183610514565b8101906105be565b5f6103a9565b503d6104a4565b6105cd565b6001600160a01b03165f9081527ffd6864399670e7c48225223d35d97abfe5417163cbc980a5f31d86d8b3582cdb6020526040902090565b634e487b7160e01b5f52604160045260245ffd5b601f909101601f19168101906001600160401b0382119082101761053757604052565b610500565b6040519061054c61018083610514565b565b6040519061054c606083610514565b60405190606082016001600160401b038111838210176105375760405260606040838281525f60208201520152565b906104b0820180921161059b57565b634e487b7160e01b5f52601160045260245ffd5b6001600160a01b039091169052565b90816020910312610063575190565b6040513d5f823e3d90fd5b604051606091906105e98382610514565b6038815291601f1901366020840137565b91959493906101e09361016061061d6106d59361020087526102008701906101b8565b89516001600160a01b031660208701529860208101516001600160a01b0316604087015260408101516001600160a01b0316606087015260608101516080870152608081015160a087015261067f60a082015160c088019063ffffffff169052565b60c081015160e087015260e08101516101008701526101008101516101208701526106b561012082015161014088019015159052565b61014081015186830152015161018085015263ffffffff166101a0840152565b6101c08201520152565b919060206106f76001926040865260408601906101b8565b930152565b909291603882510361071957602092603883015260348201520152565b60405162461bcd60e51b8152602060048201526019602482015278475076323a2075696420627566666572206f766572666c6f7760381b6044820152606490fdfea164736f6c634300081a000a","linkReferences":{}},"methodIdentifiers":{"createAndSignOrder(address,address,bytes32,address,address,uint256,uint256)":"cb64896a","isAllowedCowSwap(address)":"333f22e8","whitelistCowSwap(address,string)":"c0f96f24"},"id":25}