{"abi":[{"type":"function","name":"isAllowedCowSwap","inputs":[{"name":"settlement","type":"address","internalType":"address"}],"outputs":[{"name":"","type":"bool","internalType":"bool"}],"stateMutability":"view"},{"type":"function","name":"isDeployed","inputs":[],"outputs":[{"name":"","type":"bool","internalType":"bool"}],"stateMutability":"pure"},{"type":"event","name":"CowSwapApproved","inputs":[{"name":"settlementContract","type":"address","indexed":false,"internalType":"address"},{"name":"notes","type":"string","indexed":false,"internalType":"string"}],"anonymous":false},{"type":"event","name":"OrderSigned","inputs":[{"name":"timestamp","type":"uint256","indexed":true,"internalType":"uint256"},{"name":"orderUid","type":"bytes","indexed":false,"internalType":"bytes"},{"name":"order","type":"tuple","indexed":false,"internalType":"struct GPv2Order.Data","components":[{"name":"sellToken","type":"address","internalType":"contract IERC20"},{"name":"buyToken","type":"address","internalType":"contract IERC20"},{"name":"receiver","type":"address","internalType":"address"},{"name":"sellAmount","type":"uint256","internalType":"uint256"},{"name":"buyAmount","type":"uint256","internalType":"uint256"},{"name":"validTo","type":"uint32","internalType":"uint32"},{"name":"appData","type":"bytes32","internalType":"bytes32"},{"name":"feeAmount","type":"uint256","internalType":"uint256"},{"name":"kind","type":"bytes32","internalType":"bytes32"},{"name":"partiallyFillable","type":"bool","internalType":"bool"},{"name":"sellTokenBalance","type":"bytes32","internalType":"bytes32"},{"name":"buyTokenBalance","type":"bytes32","internalType":"bytes32"}]},{"name":"validTo","type":"uint32","indexed":false,"internalType":"uint32"},{"name":"buyAmount","type":"uint256","indexed":false,"internalType":"uint256"},{"name":"sellAmount","type":"uint256","indexed":false,"internalType":"uint256"}],"anonymous":false}],"bytecode":{"object":"0x60808060405234601b57610ac590816100208239308160070152f35b5f80fdfe6080604052307f0000000000000000000000000000000000000000000000000000000000000000146004361015610034575f80fd5b5f3560e01c8063333f22e8146100965780635a1b5fa51461008c578063c0f96f2414610082578063c52046de1461007d5763cb64896a14610073575f80fd5b1561068d575b5f80fd5b610677565b50156105b4575f80fd5b50156101b4575f80fd5b602036600319011261007957602060ff6100b66100b16100c2565b6106b0565b54166040519015158152f35b600435906001600160a01b038216820361007957565b60e0906003190112610079576004356001600160a01b038116810361007957906024356001600160a01b03811681036100795790604435906064356001600160a01b038116810361007957906084356001600160a01b0381168103610079579060a4359060c43590565b805180835260209291819084018484015e5f828201840152601f01601f1916010190565b906101b1916020815260406101878351606060208501526080840190610142565b60208401516001600160a01b031683830152920151818303601f1901606090920191909152610142565b90565b6101bd366100d8565b95936101c7610745565b506101e36101de6101d7876106b0565b5460ff1690565b610774565b604051630be8c97b60e41b81526020818061020133600483016107ce565b0381305afa80156105235761021d915f91610595575b506107ec565b604051630c537bed60e41b81526020818061023b88600483016107ce565b0381305afa801561052357610257915f91610576575b5061082d565b604051630c537bed60e41b81526020818061027587600483016107ce565b0381305afa801561052357610291915f91610557575b5061086f565b60405163d075f9bb60e01b8152602081806102af8a600483016107ce565b0381305afa8015610523576102cb915f91610528575b506108b2565b6103116102e36102da426108f5565b63ffffffff1690565b936102ff6102ef610724565b966001600160a01b031687610918565b6001600160a01b031660208601610918565b61031e8660408601610918565b606084019182526080840196875261034060a0850193849063ffffffff169052565b60c08401525f60e084018190527ff3b277728b3fee749481eb3e0b3b48980dbbab78658fc419025cb16eee3467756101008501526101208401527f5a28e9363bb942b639270062aa6bb295f434bcdfc42c97267bf003f272060dc9610140840181905261016084015260405163f698da2560e01b8152956020876004816001600160a01b0389165afa8015610523576104817f2c222fa91d81130fe56ee74391b3b6a113851c1f9cd5bc5853108490ccafc78294610477610459610494946104f09c5f916104f4575b508990604291601f190180517fd5a25ba2e97094ad7d83dc28a6572da797d6b3e7fc6663bd93efb789fc17e48982526101a0822091526040519161190160f01b8352600283015260228201522090565b610461610936565b9a610470845163ffffffff1690565b918c610a5a565b5163ffffffff1690565b9151925160405193849342978a86610958565b0390a260405163ec6cb13f60e01b6020820152906104df906104cb836104bd8660248301610a3d565b03601f1981018552846106fc565b6104d3610736565b93845260208401610918565b604082015260405191829182610166565b0390f35b610516915060203d60201161051c575b61050e81836106fc565b810190610927565b5f610409565b503d610504565b6107e1565b61054a915060203d602011610550575b61054281836106fc565b8101906107b6565b5f6102c5565b503d610538565b610570915060203d6020116105505761054281836106fc565b5f61028b565b61058f915060203d6020116105505761054281836106fc565b5f610251565b6105ae915060203d6020116105505761054281836106fc565b5f610217565b6040366003190112610079576105c86100c2565b6024356001600160401b03811161007957366023820112156100795760048101356001600160401b03811161007957366024828401011161007957826060916106317f936b7187f49d778f82d1c17d927c8006f00eac6d2e5ccb50720dbc7afda8b4a9956106b0565b600160ff1982541617905580602460405195869460018060a01b031685526040602086015282604086015201848401375f828201840152601f01601f19168101030190a1005b5f36600319011261007957602060405160018152f35b610696366100d8565b95936106a0610745565b506103116102e36102da426108f5565b6001600160a01b03165f9081527ffd6864399670e7c48225223d35d97abfe5417163cbc980a5f31d86d8b3582cdb6020526040902090565b634e487b7160e01b5f52604160045260245ffd5b601f909101601f19168101906001600160401b0382119082101761071f57604052565b6106e8565b60405190610734610180836106fc565b565b604051906107346060836106fc565b60405190606082016001600160401b0381118382101761071f5760405260606040838281525f60208201520152565b1561077b57565b60405162461bcd60e51b815260206004820152601360248201527210dbddd4ddd85c081b9bdd08195b98589b1959606a1b6044820152606490fd5b90816020910312610079575180151581036100795790565b6001600160a01b03909116815260200190565b6040513d5f823e3d90fd5b156107f357565b60405162461bcd60e51b815260206004820152601260248201527114d95b99195c881b9bdd08185b1b1bddd95960721b6044820152606490fd5b1561083457565b60405162461bcd60e51b81526020600482015260136024820152721d1bdad95b925b881b9bdd08185b1b1bddd959606a1b6044820152606490fd5b1561087657565b60405162461bcd60e51b81526020600482015260146024820152731d1bdad95b93dd5d081b9bdd08185b1b1bddd95960621b6044820152606490fd5b156108b957565b60405162461bcd60e51b8152602060048201526014602482015273149958d95a5d995c881b9bdd08185b1b1bddd95960621b6044820152606490fd5b906104b0820180921161090457565b634e487b7160e01b5f52601160045260245ffd5b6001600160a01b039091169052565b90816020910312610079575190565b6040516060919061094783826106fc565b6038815291601f1901366020840137565b91959493906101e09361016061097b610a33936102008752610200870190610142565b89516001600160a01b031660208701529860208101516001600160a01b0316604087015260408101516001600160a01b0316606087015260608101516080870152608081015160a08701526109dd60a082015160c088019063ffffffff169052565b60c081015160e087015260e0810151610100870152610100810151610120870152610a1361012082015161014088019015159052565b61014081015186830152015161018085015263ffffffff166101a0840152565b6101c08201520152565b91906020610a55600192604086526040860190610142565b930152565b9092916038825103610a7757602092603883015260348201520152565b60405162461bcd60e51b8152602060048201526019602482015278475076323a2075696420627566666572206f766572666c6f7760381b6044820152606490fdfea164736f6c634300081a000a","linkReferences":{}},"methodIdentifiers":{"createAndSignOrder(address,address,bytes32,address,address,uint256,uint256)":"cb64896a","isAllowedCowSwap(address)":"333f22e8","isDeployed()":"c52046de","validateAndCreateOrder(address,address,bytes32,address,address,uint256,uint256)":"5a1b5fa5","whitelistCowSwap(address,string)":"c0f96f24"},"id":7}