{"abi":[{"type":"function","name":"getOrderVault","inputs":[{"name":"exchangeRouter","type":"address","internalType":"address"}],"outputs":[{"name":"","type":"address","internalType":"address"}],"stateMutability":"view"},{"type":"function","name":"isAllowedMarket","inputs":[{"name":"market","type":"address","internalType":"address"},{"name":"anyAsset","type":"bool","internalType":"bool"}],"outputs":[{"name":"","type":"bool","internalType":"bool"}],"stateMutability":"view"},{"type":"function","name":"isAllowedRouter","inputs":[{"name":"router","type":"address","internalType":"address"}],"outputs":[{"name":"","type":"bool","internalType":"bool"}],"stateMutability":"view"},{"type":"function","name":"isDeployed","inputs":[],"outputs":[{"name":"","type":"bool","internalType":"bool"}],"stateMutability":"pure"},{"type":"function","name":"validateMulticall","inputs":[{"name":"exchangeRouter","type":"address","internalType":"address"},{"name":"callData","type":"bytes","internalType":"bytes"},{"name":"anyAsset","type":"bool","internalType":"bool"}],"outputs":[{"name":"assetsToCheck","type":"address[]","internalType":"address[]"},{"name":"receiversToCheck","type":"address[]","internalType":"address[]"},{"name":"marketsToCheck","type":"address[]","internalType":"address[]"}],"stateMutability":"view"},{"type":"event","name":"GMXMarketApproved","inputs":[{"name":"market","type":"address","indexed":false,"internalType":"address"},{"name":"notes","type":"string","indexed":false,"internalType":"string"}],"anonymous":false},{"type":"event","name":"GMXMarketRemoved","inputs":[{"name":"market","type":"address","indexed":false,"internalType":"address"},{"name":"notes","type":"string","indexed":false,"internalType":"string"}],"anonymous":false},{"type":"event","name":"GMXRouterApproved","inputs":[{"name":"exchangeRouter","type":"address","indexed":false,"internalType":"address"},{"name":"syntheticsRouter","type":"address","indexed":false,"internalType":"address"},{"name":"notes","type":"string","indexed":false,"internalType":"string"}],"anonymous":false}],"bytecode":{"object":"0x60808060405234601b5761113290816100208239308160070152f35b5f80fdfe6080604052307f0000000000000000000000000000000000000000000000000000000000000000146004361015610034575f80fd5b5f3560e01c806324f135c2146100c657806351097a33146100c157806377f17376146100bc57806394389632146100b2578063c226c4bb146100ad578063c52046de146100a8578063f4d5bb931461009e5763f7570c2914610094575f80fd5b156107e0575b5f80fd5b501561070d575f80fd5b6106f7565b6106c7565b5015610672575f80fd5b61020d565b610134565b6100e6565b6001600160a01b0381160361009a57565b8015150361009a57565b604036600319011261009a576020600435610100816100cb565b6024359061010d826100dc565b811561011f575b506040519015158152f35b60ff915061012c9061082d565b54165f610114565b602036600319011261009a57602060043561014e816100cb565b6001600160a01b039061016090610865565b5416604051908152f35b9181601f8401121561009a578235916001600160401b03831161009a576020838186019501011161009a57565b90602080835192838152019201905f5b8181106101b45750505090565b82516001600160a01b03168452602093840193909201916001016101a7565b916101fc906101ee61020a9593606086526060860190610197565b908482036020860152610197565b916040818403910152610197565b90565b606036600319011261009a57600435610225816100cb565b602435906001600160401b03821161009a576102486102aa92369060040161016a565b929060443592610257846100dc565b61027261026d6102668361089d565b5460ff1690565b6108d5565b6001600160a01b03906102959061028890610865565b546001600160a01b031690565b16936102a285151561091a565b810190610a1a565b916102bd6102b88451610b08565b610b23565b6102ca6102b88551610b08565b6102d76102b88651610b08565b905f915f905f805b89518110156106185761030060046102f7838d610b5f565b51511015610b78565b878a6103b36103a761033961032b6103a18761034661033961032b610325848b610b5f565b51610bba565b516001600160f81b03191690565b6001600160f81b03191690565b61037061036261033961032b61035c868d610b5f565b51610bc7565b60081c62ffffff60e01b1690565b1761039a61038d61033961032b610387868d610b5f565b51610bd7565b60101c61ffff60e01b1690565b1796610b5f565b51610be7565b60181c60ff60e01b1690565b176103dd8c6103d76103d0866103c98185610b5f565b5193610b5f565b5151610bf7565b9061108a565b906001600160e01b031916637d39aaf160e01b81036104255750600192916104118260208061041f95518301019101610f4b565b50848060a01b031614610f64565b016102df565b919791631cdacd5960e31b81036104945750600192916104656104548360208061048f96518301019101610ed3565b50868060a09d939d1b031614610f00565b61048061047182610ec5565b99858060a01b0316918b610b5f565b6001600160a01b039091169052565b61041f565b9197509063f59c48eb60e01b036105c857806020806104b893518301019101610dd7565b8051516104dc906001600160a01b03165b6104806104d588610ec5565b9789610b5f565b8051602001516104f4906001600160a01b03166104c9565b8915610504575b5060019061041f565b9791999394989296909561053a8b61048061053361052c60808e51015160018060a01b031690565b929e610ec5565b9d8b610b5f565b885160a00151610560906001600160a01b031661048061055984610ec5565b9385610b5f565b5f5b60c08a51015180518210156105b357906105a88a9b9c9d61048061059861058b85600197610b5f565b516001600160a01b031690565b916105a281610ec5565b9d610b5f565b019a9998979a610562565b50509560019197939995949a929850906104fb565b60405162461bcd60e51b815260206004820152602260248201527f474d583a20556e6b6e6f776e2066756e6374696f6e20696e206d756c746963616044820152611b1b60f21b6064820152608490fd5b5061063292869495855285528152604051938493846101d3565b0390f35b90604060031983011261009a5760043561064f816100cb565b91602435906001600160401b03821161009a5761066e9160040161016a565b9091565b7fefc511aabde7c4d22a66bc3bc12740a348cb98d9f7f433d6768ae8c1ab0e3cb86106c261069f36610636565b6106ab8394929461082d565b805460ff1916600117905560405193849384610fd0565b0390a1005b602036600319011261009a57602060ff6106eb6004356106e6816100cb565b61089d565b54166040519015158152f35b5f36600319011261009a57602060405160018152f35b608036600319011261009a57600435610725816100cb565b602435610731816100cb565b6044359161073e836100cb565b6064356001600160401b03811161009a577f4cd8335923e6c59235dad1eb0d9466176d7e2d5331062745aac072188386d7fe936107826106c292369060040161016a565b909161078d8561089d565b805460ff191660011790556107a185610865565b80546001600160a01b0319166001600160a01b039283161790556040805195821686529516602085015260609484018590529293849390840191610fb0565b7f1cc7e10cd1d551ab6504f6a15828923f911f4658af4cc1b82aeaab1d8a4ccc4c6106c261080d36610636565b6108198394929461082d565b805460ff1916905560405193849384610fd0565b6001600160a01b03165f9081527fb4b3b3c2204e8d964e9e13413b4c54fdc9937c68a8d13e6655667eedea5ae6216020526040902090565b6001600160a01b03165f9081527fb4b3b3c2204e8d964e9e13413b4c54fdc9937c68a8d13e6655667eedea5ae6206020526040902090565b6001600160a01b03165f9081527fb4b3b3c2204e8d964e9e13413b4c54fdc9937c68a8d13e6655667eedea5ae61f6020526040902090565b156108dc57565b60405162461bcd60e51b815260206004820152601660248201527511d356081c9bdd5d195c881b9bdd08185b1b1bddd95960521b6044820152606490fd5b1561092157565b60405162461bcd60e51b815260206004820152601d60248201527f474d58206f726465725661756c74206e6f7420636f6e666967757265640000006044820152606490fd5b634e487b7160e01b5f52604160045260245ffd5b6040519060e082016001600160401b0381118382101761099957604052565b610966565b6040519061010082016001600160401b0381118382101761099957604052565b6040519061012082016001600160401b0381118382101761099957604052565b6040519190601f01601f191682016001600160401b0381118382101761099957604052565b6001600160401b0381116109995760051b60200190565b60208183031261009a578035906001600160401b03821161009a57019080601f8301121561009a57813591610a56610a5184610a03565b6109de565b9260208085838152019160051b8301019183831161009a5760208101915b838310610a8357505050505090565b82356001600160401b03811161009a57820185603f8201121561009a576020810135916001600160401b03831161099957610ac7601f8401601f19166020016109de565b838152604083850101881061009a575f602085819660408397018386013783010152815201920191610a74565b634e487b7160e01b5f52601160045260245ffd5b908160011b9180830460021490151715610b1e57565b610af4565b90610b30610a5183610a03565b8281528092610b41601f1991610a03565b0190602036910137565b634e487b7160e01b5f52603260045260245ffd5b8051821015610b735760209160051b010190565b610b4b565b15610b7f57565b60405162461bcd60e51b815260206004820152601360248201527211d3560e8818d85b1b081d1bdbc81cda1bdc9d606a1b6044820152606490fd5b805115610b735760200190565b805160011015610b735760210190565b805160021015610b735760220190565b805160031015610b735760230190565b600319810191908211610b1e57565b5190610c11826100cb565b565b9080601f8301121561009a578151610c2d610a5182610a03565b9260208085848152019260051b82010192831161009a57602001905b828210610c565750505090565b602080918351610c65816100cb565b815201910190610c49565b91909160e08184031261009a57610c8561097a565b92610c8f82610c06565b8452610c9d60208301610c06565b6020850152610cae60408301610c06565b6040850152610cbf60608301610c06565b6060850152610cd060808301610c06565b6080850152610ce160a08301610c06565b60a085015260c08201516001600160401b03811161009a57610d039201610c13565b60c0830152565b91908261010091031261009a5760e0610d2161099e565b92805184526020810151602085015260408101516040850152606081015160608501526080810151608085015260a081015160a085015260c081015160c0850152015160e0830152565b519060ff8216820361009a57565b5190610c11826100dc565b9080601f8301121561009a578151610d9e610a5182610a03565b9260208085848152019260051b82010192831161009a57602001905b828210610dc75750505090565b8151815260209182019101610dba565b60208183031261009a578051906001600160401b03821161009a57016102008183031261009a57610e066109be565b81519092906001600160401b03811161009a5781610e25918401610c70565b8352610e348160208401610d0a565b6020840152610e466101208301610d6b565b6040840152610e586101408301610d6b565b6060840152610e6a6101608301610d79565b6080840152610e7c6101808301610d79565b60a0840152610e8e6101a08301610d79565b60c08401526101c082015160e08401526101e08201516001600160401b03811161009a57610ebc9201610d84565b61010082015290565b5f198114610b1e5760010190565b9081606091031261009a578051610ee9816100cb565b9160406020830151610efa816100cb565b92015190565b15610f0757565b606460405162461bcd60e51b815260206004820152602060248201527f474d582073656e64546f6b656e733a20696e76616c69642072656365697665726044820152fd5b919082604091031261009a5760208251610efa816100cb565b15610f6b57565b60405162461bcd60e51b815260206004820152601d60248201527f474d582073656e64576e743a20696e76616c69642072656365697665720000006044820152606490fd5b908060209392818452848401375f828201840152601f01601f1916010190565b6001600160a01b03909116815260406020820181905261020a93910191610fb0565b90601f8201809211610b1e57565b91908201809211610b1e57565b1561101457565b60405162461bcd60e51b815260206004820152600e60248201526d736c6963655f6f766572666c6f7760901b6044820152606490fd5b1561105157565b60405162461bcd60e51b8152602060048201526011602482015270736c6963655f6f75744f66426f756e647360781b6044820152606490fd5b61109e8261109781610ff2565b101561100d565b6110ad60046110978482611000565b6110c481516110bd846004611000565b111561104a565b816110db5750506040515f81526020810160405290565b60405191601f8116916004831560051b80858701019484860193010101905b8084106111125750508252601f01601f191660405290565b90926020809185518152019301906110fa56fea164736f6c634300081a000a","linkReferences":{}},"methodIdentifiers":{"getOrderVault(address)":"51097a33","isAllowedMarket(address,bool)":"24f135c2","isAllowedRouter(address)":"c226c4bb","isDeployed()":"c52046de","removeMarket(address,string)":"f7570c29","validateMulticall(address,bytes,bool)":"77f17376","whitelistMarket(address,string)":"94389632","whitelistRouter(address,address,address,string)":"f4d5bb93"},"id":9}