{"abi":[{"type":"function","name":"getOrderVault","inputs":[{"name":"exchangeRouter","type":"address","internalType":"address"}],"outputs":[{"name":"","type":"address","internalType":"address"}],"stateMutability":"view"},{"type":"function","name":"isAllowedMarket","inputs":[{"name":"market","type":"address","internalType":"address"},{"name":"anyAsset","type":"bool","internalType":"bool"}],"outputs":[{"name":"","type":"bool","internalType":"bool"}],"stateMutability":"view"},{"type":"function","name":"isAllowedRouter","inputs":[{"name":"router","type":"address","internalType":"address"}],"outputs":[{"name":"","type":"bool","internalType":"bool"}],"stateMutability":"view"},{"type":"function","name":"isDeployed","inputs":[],"outputs":[{"name":"","type":"bool","internalType":"bool"}],"stateMutability":"pure"},{"type":"function","name":"validateMulticall","inputs":[{"name":"exchangeRouter","type":"address","internalType":"address"},{"name":"callData","type":"bytes","internalType":"bytes"},{"name":"anyAsset","type":"bool","internalType":"bool"}],"outputs":[],"stateMutability":"view"},{"type":"event","name":"GMXMarketApproved","inputs":[{"name":"market","type":"address","indexed":false,"internalType":"address"},{"name":"notes","type":"string","indexed":false,"internalType":"string"}],"anonymous":false},{"type":"event","name":"GMXMarketRemoved","inputs":[{"name":"market","type":"address","indexed":false,"internalType":"address"},{"name":"notes","type":"string","indexed":false,"internalType":"string"}],"anonymous":false},{"type":"event","name":"GMXRouterApproved","inputs":[{"name":"exchangeRouter","type":"address","indexed":false,"internalType":"address"},{"name":"syntheticsRouter","type":"address","indexed":false,"internalType":"address"},{"name":"notes","type":"string","indexed":false,"internalType":"string"}],"anonymous":false}],"bytecode":{"object":"0x60808060405234601b576111e190816100208239308160070152f35b5f80fdfe6080604052307f0000000000000000000000000000000000000000000000000000000000000000146004361015610034575f80fd5b5f3560e01c806324f135c2146100c657806351097a33146100c157806377f17376146100bc57806394389632146100b2578063c226c4bb146100ad578063c52046de146100a8578063f4d5bb931461009e5763f7570c2914610094575f80fd5b156107ea575b5f80fd5b5015610717575f80fd5b610701565b6106d1565b501561067c575f80fd5b6101aa565b610147565b6100e6565b6001600160a01b0381160361009a57565b8015150361009a57565b604036600319011261009a576020600435610100816100cb565b6024359061010d826100dc565b811561011f575b506040519015158152f35b60ff915061012c90610837565b54165f610114565b6001600160a01b03909116815260200190565b602036600319011261009a576020600435610161816100cb565b6001600160a01b03906101739061086f565b5416604051908152f35b9181601f8401121561009a578235916001600160401b03831161009a576020838186019501011161009a57565b606036600319011261009a576004356101c2816100cb565b602435906001600160401b03821161009a576101e561024792369060040161017d565b9290604435926101f4846100dc565b61020f61020a610203836108a7565b5460ff1690565b6108df565b6001600160a01b0390610232906102259061086f565b546001600160a01b031690565b169361023f851515610924565b810190610a00565b5f5b815181101561063e578061026c6004610263879486610af7565b51511015610b10565b6102a061029361028561027f8487610af7565b51610b52565b516001600160f81b03191690565b6001600160f81b03191690565b6102ca6102bc6102936102856102b68689610af7565b51610b5f565b60081c62ffffff60e01b1690565b176102f46102e76102936102856102e18689610af7565b51610b6f565b60101c61ffff60e01b1690565b1761031d61031161029361028561030b8689610af7565b51610b7f565b60181c60ff60e01b1690565b1761034661032b8386610af7565b516103406103398588610af7565b5151610ba3565b90611139565b906001600160e01b031916637d39aaf160e01b810361038d57506001926103798260208061038795518301019101610ffa565b50848060a01b031614611013565b01610249565b631cdacd5960e31b810361045957506103b2816020806103c694518301019101610f82565b5090936001600160a01b0390911614610faf565b83156103d6575b60019150610387565b604051630c537bed60e41b81529160209083908190610401906001600160a01b031660048301610134565b0381305afa91821561045457600192610421915f91610426575b50610f3d565b6103cd565b610447915060203d811161044d575b61043f81836109a5565b810190610e8c565b5f61041b565b503d610435565b610ea4565b9192509063f59c48eb60e01b036105ee578060208061047d93518301019101610d9e565b8051516104ab906020906001600160a01b03165b6040518093819263d075f9bb60e01b835260048301610134565b0381305afa8015610454576104c7915f916105d0575b50610eaf565b80516020908101516104e291906001600160a01b0316610491565b0381305afa8015610454576104fd915f916105d05750610eaf565b831561050d575b50600190610387565b9291909361053861053361020361052e60808851015160018060a01b031690565b610837565b610ef7565b835160a00151604051630c537bed60e41b81529060209082908190610569906001600160a01b031660048301610134565b0381305afa801561045457610584915f916104265750610f3d565b5f5b60c08551015180518210156105c157906105bb61053361020361052e6105ae85600197610af7565b516001600160a01b031690565b01610586565b50509360019192935090610504565b6105e8915060203d811161044d5761043f81836109a5565b5f6104c1565b60405162461bcd60e51b815260206004820152602260248201527f474d583a20556e6b6e6f776e2066756e6374696f6e20696e206d756c746963616044820152611b1b60f21b6064820152608490fd5b005b90604060031983011261009a57600435610659816100cb565b91602435906001600160401b03821161009a576106789160040161017d565b9091565b7fefc511aabde7c4d22a66bc3bc12740a348cb98d9f7f433d6768ae8c1ab0e3cb86106cc6106a936610640565b6106b583949294610837565b805460ff191660011790556040519384938461107f565b0390a1005b602036600319011261009a57602060ff6106f56004356106f0816100cb565b6108a7565b54166040519015158152f35b5f36600319011261009a57602060405160018152f35b608036600319011261009a5760043561072f816100cb565b60243561073b816100cb565b60443591610748836100cb565b6064356001600160401b03811161009a577f4cd8335923e6c59235dad1eb0d9466176d7e2d5331062745aac072188386d7fe9361078c6106cc92369060040161017d565b9091610797856108a7565b805460ff191660011790556107ab8561086f565b80546001600160a01b0319166001600160a01b03928316179055604080519582168652951660208501526060948401859052929384939084019161105f565b7f1cc7e10cd1d551ab6504f6a15828923f911f4658af4cc1b82aeaab1d8a4ccc4c6106cc61081736610640565b61082383949294610837565b805460ff191690556040519384938461107f565b6001600160a01b03165f9081527fb4b3b3c2204e8d964e9e13413b4c54fdc9937c68a8d13e6655667eedea5ae6216020526040902090565b6001600160a01b03165f9081527fb4b3b3c2204e8d964e9e13413b4c54fdc9937c68a8d13e6655667eedea5ae6206020526040902090565b6001600160a01b03165f9081527fb4b3b3c2204e8d964e9e13413b4c54fdc9937c68a8d13e6655667eedea5ae61f6020526040902090565b156108e657565b60405162461bcd60e51b815260206004820152601660248201527511d356081c9bdd5d195c881b9bdd08185b1b1bddd95960521b6044820152606490fd5b1561092b57565b60405162461bcd60e51b815260206004820152601d60248201527f474d58206f726465725661756c74206e6f7420636f6e666967757265640000006044820152606490fd5b634e487b7160e01b5f52604160045260245ffd5b61010081019081106001600160401b038211176109a057604052565b610970565b601f909101601f19168101906001600160401b038211908210176109a057604052565b604051906109d760e0836109a5565b565b604051906109d7610120836109a5565b6001600160401b0381116109a05760051b60200190565b60208183031261009a578035906001600160401b03821161009a57019080601f8301121561009a57813591610a34836109e9565b92610a4260405194856109a5565b80845260208085019160051b8301019183831161009a5760208101915b838310610a6e57505050505090565b82356001600160401b03811161009a57820185603f8201121561009a576020810135916001600160401b0383116109a057604051610ab6601f8501601f1916602001826109a5565b838152604083850101881061009a575f602085819660408397018386013783010152815201920191610a5f565b634e487b7160e01b5f52603260045260245ffd5b8051821015610b0b5760209160051b010190565b610ae3565b15610b1757565b60405162461bcd60e51b815260206004820152601360248201527211d3560e8818d85b1b081d1bdbc81cda1bdc9d606a1b6044820152606490fd5b805115610b0b5760200190565b805160011015610b0b5760210190565b805160021015610b0b5760220190565b805160031015610b0b5760230190565b634e487b7160e01b5f52601160045260245ffd5b600319810191908211610bb257565b610b8f565b51906109d7826100cb565b9080601f8301121561009a578151610bd9816109e9565b92610be760405194856109a5565b81845260208085019260051b82010192831161009a57602001905b828210610c0f5750505090565b602080918351610c1e816100cb565b815201910190610c02565b91909160e08184031261009a57610c3e6109c8565b92610c4882610bb7565b8452610c5660208301610bb7565b6020850152610c6760408301610bb7565b6040850152610c7860608301610bb7565b6060850152610c8960808301610bb7565b6080850152610c9a60a08301610bb7565b60a085015260c08201516001600160401b03811161009a57610cbc9201610bc2565b60c0830152565b91908261010091031261009a57604051610cdc81610984565b60e0808294805184526020810151602085015260408101516040850152606081015160608501526080810151608085015260a081015160a085015260c081015160c08501520151910152565b519060ff8216820361009a57565b51906109d7826100dc565b9080601f8301121561009a578151610d58816109e9565b92610d6660405194856109a5565b81845260208085019260051b82010192831161009a57602001905b828210610d8e5750505090565b8151815260209182019101610d81565b60208183031261009a578051906001600160401b03821161009a57016102008183031261009a57610dcd6109d9565b81519092906001600160401b03811161009a5781610dec918401610c29565b8352610dfb8160208401610cc3565b6020840152610e0d6101208301610d28565b6040840152610e1f6101408301610d28565b6060840152610e316101608301610d36565b6080840152610e436101808301610d36565b60a0840152610e556101a08301610d36565b60c08401526101c082015160e08401526101e08201516001600160401b03811161009a57610e839201610d41565b61010082015290565b9081602091031261009a5751610ea1816100dc565b90565b6040513d5f823e3d90fd5b15610eb657565b60405162461bcd60e51b815260206004820152601960248201527811d3560e881c9958d95a5d995c881b9bdd08185b1b1bddd959603a1b6044820152606490fd5b15610efe57565b60405162461bcd60e51b815260206004820152601760248201527611d3560e881b585c9ad95d081b9bdd08185b1b1bddd959604a1b6044820152606490fd5b15610f4457565b60405162461bcd60e51b815260206004820152601660248201527511d3560e88185cdcd95d081b9bdd08185b1b1bddd95960521b6044820152606490fd5b9081606091031261009a578051610f98816100cb565b9160406020830151610fa9816100cb565b92015190565b15610fb657565b606460405162461bcd60e51b815260206004820152602060248201527f474d582073656e64546f6b656e733a20696e76616c69642072656365697665726044820152fd5b919082604091031261009a5760208251610fa9816100cb565b1561101a57565b60405162461bcd60e51b815260206004820152601d60248201527f474d582073656e64576e743a20696e76616c69642072656365697665720000006044820152606490fd5b908060209392818452848401375f828201840152601f01601f1916010190565b6001600160a01b039091168152604060208201819052610ea19391019161105f565b90601f8201809211610bb257565b91908201809211610bb257565b156110c357565b60405162461bcd60e51b815260206004820152600e60248201526d736c6963655f6f766572666c6f7760901b6044820152606490fd5b1561110057565b60405162461bcd60e51b8152602060048201526011602482015270736c6963655f6f75744f66426f756e647360781b6044820152606490fd5b61114d82611146816110a1565b10156110bc565b61115c600461114684826110af565b611173815161116c8460046110af565b11156110f9565b8161118a5750506040515f81526020810160405290565b60405191601f8116916004831560051b80858701019484860193010101905b8084106111c15750508252601f01601f191660405290565b90926020809185518152019301906111a956fea164736f6c634300081a000a","linkReferences":{}},"methodIdentifiers":{"getOrderVault(address)":"51097a33","isAllowedMarket(address,bool)":"24f135c2","isAllowedRouter(address)":"c226c4bb","isDeployed()":"c52046de","removeMarket(address,string)":"f7570c29","validateMulticall(address,bytes,bool)":"77f17376","whitelistMarket(address,string)":"94389632","whitelistRouter(address,address,address,string)":"f4d5bb93"},"id":9}