{"abi":[{"type":"constructor","inputs":[],"stateMutability":"nonpayable"},{"type":"function","name":"allowApprovalDestination","inputs":[{"name":"destination","type":"address","internalType":"address"},{"name":"notes","type":"string","internalType":"string"}],"outputs":[],"stateMutability":"nonpayable"},{"type":"function","name":"allowAsset","inputs":[{"name":"asset","type":"address","internalType":"address"},{"name":"notes","type":"string","internalType":"string"}],"outputs":[],"stateMutability":"nonpayable"},{"type":"function","name":"allowCallSite","inputs":[{"name":"target","type":"address","internalType":"address"},{"name":"selector","type":"bytes4","internalType":"bytes4"},{"name":"notes","type":"string","internalType":"string"}],"outputs":[],"stateMutability":"nonpayable"},{"type":"function","name":"allowDelegationApprovalDestination","inputs":[{"name":"destination","type":"address","internalType":"address"},{"name":"notes","type":"string","internalType":"string"}],"outputs":[],"stateMutability":"nonpayable"},{"type":"function","name":"allowReceiver","inputs":[{"name":"receiver","type":"address","internalType":"address"},{"name":"notes","type":"string","internalType":"string"}],"outputs":[],"stateMutability":"nonpayable"},{"type":"function","name":"allowSender","inputs":[{"name":"sender","type":"address","internalType":"address"},{"name":"notes","type":"string","internalType":"string"}],"outputs":[],"stateMutability":"nonpayable"},{"type":"function","name":"allowWithdrawDestination","inputs":[{"name":"destination","type":"address","internalType":"address"},{"name":"notes","type":"string","internalType":"string"}],"outputs":[],"stateMutability":"nonpayable"},{"type":"function","name":"allowedApprovalDestinations","inputs":[{"name":"destination","type":"address","internalType":"address"}],"outputs":[{"name":"allowed","type":"bool","internalType":"bool"}],"stateMutability":"view"},{"type":"function","name":"allowedAssets","inputs":[{"name":"token","type":"address","internalType":"address"}],"outputs":[{"name":"allowed","type":"bool","internalType":"bool"}],"stateMutability":"view"},{"type":"function","name":"allowedCallSites","inputs":[{"name":"target","type":"address","internalType":"address"},{"name":"selector","type":"bytes4","internalType":"bytes4"}],"outputs":[{"name":"allowed","type":"bool","internalType":"bool"}],"stateMutability":"view"},{"type":"function","name":"allowedDelegationApprovalDestinations","inputs":[{"name":"destination","type":"address","internalType":"address"}],"outputs":[{"name":"allowed","type":"bool","internalType":"bool"}],"stateMutability":"view"},{"type":"function","name":"allowedLagoonVaults","inputs":[{"name":"destination","type":"address","internalType":"address"}],"outputs":[{"name":"allowed","type":"bool","internalType":"bool"}],"stateMutability":"view"},{"type":"function","name":"allowedReceivers","inputs":[{"name":"receiver","type":"address","internalType":"address"}],"outputs":[{"name":"allowed","type":"bool","internalType":"bool"}],"stateMutability":"view"},{"type":"function","name":"allowedSenders","inputs":[{"name":"sender","type":"address","internalType":"address"}],"outputs":[{"name":"allowed","type":"bool","internalType":"bool"}],"stateMutability":"view"},{"type":"function","name":"allowedTargets","inputs":[{"name":"target","type":"address","internalType":"address"}],"outputs":[{"name":"allowed","type":"bool","internalType":"bool"}],"stateMutability":"view"},{"type":"function","name":"allowedWithdrawDestinations","inputs":[{"name":"destination","type":"address","internalType":"address"}],"outputs":[{"name":"allowed","type":"bool","internalType":"bool"}],"stateMutability":"view"},{"type":"function","name":"anyAsset","inputs":[],"outputs":[{"name":"","type":"bool","internalType":"bool"}],"stateMutability":"view"},{"type":"function","name":"callSiteCount","inputs":[],"outputs":[{"name":"","type":"uint256","internalType":"uint256"}],"stateMutability":"view"},{"type":"function","name":"getGovernanceAddress","inputs":[],"outputs":[{"name":"","type":"address","internalType":"address"}],"stateMutability":"view"},{"type":"function","name":"getInternalVersion","inputs":[],"outputs":[{"name":"","type":"uint8","internalType":"uint8"}],"stateMutability":"pure"},{"type":"function","name":"isAllowedApprovalDestination","inputs":[{"name":"receiver","type":"address","internalType":"address"}],"outputs":[{"name":"","type":"bool","internalType":"bool"}],"stateMutability":"view"},{"type":"function","name":"isAllowedAsset","inputs":[{"name":"token","type":"address","internalType":"address"}],"outputs":[{"name":"","type":"bool","internalType":"bool"}],"stateMutability":"view"},{"type":"function","name":"isAllowedCallSite","inputs":[{"name":"target","type":"address","internalType":"address"},{"name":"selector","type":"bytes4","internalType":"bytes4"}],"outputs":[{"name":"","type":"bool","internalType":"bool"}],"stateMutability":"view"},{"type":"function","name":"isAllowedDelegationApprovalDestination","inputs":[{"name":"receiver","type":"address","internalType":"address"}],"outputs":[{"name":"","type":"bool","internalType":"bool"}],"stateMutability":"view"},{"type":"function","name":"isAllowedLagoonVault","inputs":[{"name":"vault","type":"address","internalType":"address"}],"outputs":[{"name":"","type":"bool","internalType":"bool"}],"stateMutability":"view"},{"type":"function","name":"isAllowedReceiver","inputs":[{"name":"receiver","type":"address","internalType":"address"}],"outputs":[{"name":"","type":"bool","internalType":"bool"}],"stateMutability":"view"},{"type":"function","name":"isAllowedSender","inputs":[{"name":"sender","type":"address","internalType":"address"}],"outputs":[{"name":"","type":"bool","internalType":"bool"}],"stateMutability":"view"},{"type":"function","name":"isAllowedTarget","inputs":[{"name":"target","type":"address","internalType":"address"}],"outputs":[{"name":"","type":"bool","internalType":"bool"}],"stateMutability":"view"},{"type":"function","name":"isAllowedWithdrawDestination","inputs":[{"name":"receiver","type":"address","internalType":"address"}],"outputs":[{"name":"","type":"bool","internalType":"bool"}],"stateMutability":"view"},{"type":"function","name":"owner","inputs":[],"outputs":[{"name":"","type":"address","internalType":"address"}],"stateMutability":"view"},{"type":"function","name":"removeApprovalDestination","inputs":[{"name":"destination","type":"address","internalType":"address"},{"name":"notes","type":"string","internalType":"string"}],"outputs":[],"stateMutability":"nonpayable"},{"type":"function","name":"removeAsset","inputs":[{"name":"asset","type":"address","internalType":"address"},{"name":"notes","type":"string","internalType":"string"}],"outputs":[],"stateMutability":"nonpayable"},{"type":"function","name":"removeCallSite","inputs":[{"name":"target","type":"address","internalType":"address"},{"name":"selector","type":"bytes4","internalType":"bytes4"},{"name":"notes","type":"string","internalType":"string"}],"outputs":[],"stateMutability":"nonpayable"},{"type":"function","name":"removeDelegationApprovalDestination","inputs":[{"name":"destination","type":"address","internalType":"address"},{"name":"notes","type":"string","internalType":"string"}],"outputs":[],"stateMutability":"nonpayable"},{"type":"function","name":"removeReceiver","inputs":[{"name":"receiver","type":"address","internalType":"address"},{"name":"notes","type":"string","internalType":"string"}],"outputs":[],"stateMutability":"nonpayable"},{"type":"function","name":"removeSender","inputs":[{"name":"sender","type":"address","internalType":"address"},{"name":"notes","type":"string","internalType":"string"}],"outputs":[],"stateMutability":"nonpayable"},{"type":"function","name":"removeWithdrawDestination","inputs":[{"name":"destination","type":"address","internalType":"address"},{"name":"notes","type":"string","internalType":"string"}],"outputs":[],"stateMutability":"nonpayable"},{"type":"function","name":"renounceOwnership","inputs":[],"outputs":[],"stateMutability":"nonpayable"},{"type":"function","name":"setAnyAssetAllowed","inputs":[{"name":"value","type":"bool","internalType":"bool"},{"name":"notes","type":"string","internalType":"string"}],"outputs":[],"stateMutability":"nonpayable"},{"type":"function","name":"transferOwnership","inputs":[{"name":"newOwner","type":"address","internalType":"address"}],"outputs":[],"stateMutability":"nonpayable"},{"type":"function","name":"validate1deltaPath","inputs":[{"name":"path","type":"bytes","internalType":"bytes"}],"outputs":[],"stateMutability":"view"},{"type":"function","name":"validateCall","inputs":[{"name":"sender","type":"address","internalType":"address"},{"name":"target","type":"address","internalType":"address"},{"name":"callDataWithSelector","type":"bytes","internalType":"bytes"}],"outputs":[],"stateMutability":"view"},{"type":"function","name":"validateUniswapV3Path","inputs":[{"name":"path","type":"bytes","internalType":"bytes"}],"outputs":[],"stateMutability":"view"},{"type":"function","name":"validate_1deltaDeposit","inputs":[{"name":"callData","type":"bytes","internalType":"bytes"}],"outputs":[],"stateMutability":"view"},{"type":"function","name":"validate_1deltaMulticall","inputs":[{"name":"callData","type":"bytes","internalType":"bytes"}],"outputs":[],"stateMutability":"view"},{"type":"function","name":"validate_1deltaWithdraw","inputs":[{"name":"callData","type":"bytes","internalType":"bytes"}],"outputs":[],"stateMutability":"view"},{"type":"function","name":"validate_aaveSupply","inputs":[{"name":"callData","type":"bytes","internalType":"bytes"}],"outputs":[],"stateMutability":"view"},{"type":"function","name":"validate_aaveWithdraw","inputs":[{"name":"callData","type":"bytes","internalType":"bytes"}],"outputs":[],"stateMutability":"view"},{"type":"function","name":"validate_approve","inputs":[{"name":"callData","type":"bytes","internalType":"bytes"}],"outputs":[],"stateMutability":"view"},{"type":"function","name":"validate_approveDelegation","inputs":[{"name":"callData","type":"bytes","internalType":"bytes"}],"outputs":[],"stateMutability":"view"},{"type":"function","name":"validate_exactInput","inputs":[{"name":"callData","type":"bytes","internalType":"bytes"}],"outputs":[],"stateMutability":"view"},{"type":"function","name":"validate_exactOutput","inputs":[{"name":"callData","type":"bytes","internalType":"bytes"}],"outputs":[],"stateMutability":"view"},{"type":"function","name":"validate_flashSwapAllOut","inputs":[{"name":"callData","type":"bytes","internalType":"bytes"}],"outputs":[],"stateMutability":"view"},{"type":"function","name":"validate_flashSwapExactInt","inputs":[{"name":"callData","type":"bytes","internalType":"bytes"}],"outputs":[],"stateMutability":"view"},{"type":"function","name":"validate_flashSwapExactOut","inputs":[{"name":"callData","type":"bytes","internalType":"bytes"}],"outputs":[],"stateMutability":"view"},{"type":"function","name":"validate_lagoonSettle","inputs":[{"name":"vault","type":"address","internalType":"address"}],"outputs":[],"stateMutability":"view"},{"type":"function","name":"validate_swapExactTokensForTokens","inputs":[{"name":"callData","type":"bytes","internalType":"bytes"}],"outputs":[],"stateMutability":"view"},{"type":"function","name":"validate_transfer","inputs":[{"name":"callData","type":"bytes","internalType":"bytes"}],"outputs":[],"stateMutability":"view"},{"type":"function","name":"validate_transferERC20AllIn","inputs":[{"name":"callData","type":"bytes","internalType":"bytes"}],"outputs":[],"stateMutability":"view"},{"type":"function","name":"validate_transferERC20In","inputs":[{"name":"callData","type":"bytes","internalType":"bytes"}],"outputs":[],"stateMutability":"view"},{"type":"function","name":"whitelistAaveV3","inputs":[{"name":"lendingPool","type":"address","internalType":"address"},{"name":"notes","type":"string","internalType":"string"}],"outputs":[],"stateMutability":"nonpayable"},{"type":"function","name":"whitelistLagoon","inputs":[{"name":"vault","type":"address","internalType":"address"},{"name":"notes","type":"string","internalType":"string"}],"outputs":[],"stateMutability":"nonpayable"},{"type":"function","name":"whitelistOnedelta","inputs":[{"name":"brokerProxy","type":"address","internalType":"address"},{"name":"lendingPool","type":"address","internalType":"address"},{"name":"notes","type":"string","internalType":"string"}],"outputs":[],"stateMutability":"nonpayable"},{"type":"function","name":"whitelistToken","inputs":[{"name":"token","type":"address","internalType":"address"},{"name":"notes","type":"string","internalType":"string"}],"outputs":[],"stateMutability":"nonpayable"},{"type":"function","name":"whitelistTokenForDelegation","inputs":[{"name":"token","type":"address","internalType":"address"},{"name":"notes","type":"string","internalType":"string"}],"outputs":[],"stateMutability":"nonpayable"},{"type":"function","name":"whitelistUniswapV2Router","inputs":[{"name":"router","type":"address","internalType":"address"},{"name":"notes","type":"string","internalType":"string"}],"outputs":[],"stateMutability":"nonpayable"},{"type":"function","name":"whitelistUniswapV3Router","inputs":[{"name":"router","type":"address","internalType":"address"},{"name":"notes","type":"string","internalType":"string"}],"outputs":[],"stateMutability":"nonpayable"},{"type":"event","name":"AnyAssetSet","inputs":[{"name":"value","type":"bool","indexed":false,"internalType":"bool"},{"name":"notes","type":"string","indexed":false,"internalType":"string"}],"anonymous":false},{"type":"event","name":"ApprovalDestinationApproved","inputs":[{"name":"sender","type":"address","indexed":false,"internalType":"address"},{"name":"notes","type":"string","indexed":false,"internalType":"string"}],"anonymous":false},{"type":"event","name":"ApprovalDestinationRemoved","inputs":[{"name":"sender","type":"address","indexed":false,"internalType":"address"},{"name":"notes","type":"string","indexed":false,"internalType":"string"}],"anonymous":false},{"type":"event","name":"AssetApproved","inputs":[{"name":"sender","type":"address","indexed":false,"internalType":"address"},{"name":"notes","type":"string","indexed":false,"internalType":"string"}],"anonymous":false},{"type":"event","name":"AssetRemoved","inputs":[{"name":"sender","type":"address","indexed":false,"internalType":"address"},{"name":"notes","type":"string","indexed":false,"internalType":"string"}],"anonymous":false},{"type":"event","name":"CallSiteApproved","inputs":[{"name":"target","type":"address","indexed":false,"internalType":"address"},{"name":"selector","type":"bytes4","indexed":false,"internalType":"bytes4"},{"name":"notes","type":"string","indexed":false,"internalType":"string"}],"anonymous":false},{"type":"event","name":"CallSiteRemoved","inputs":[{"name":"target","type":"address","indexed":false,"internalType":"address"},{"name":"selector","type":"bytes4","indexed":false,"internalType":"bytes4"},{"name":"notes","type":"string","indexed":false,"internalType":"string"}],"anonymous":false},{"type":"event","name":"DelegationApprovalDestinationApproved","inputs":[{"name":"sender","type":"address","indexed":false,"internalType":"address"},{"name":"notes","type":"string","indexed":false,"internalType":"string"}],"anonymous":false},{"type":"event","name":"DelegationApprovalDestinationRemoved","inputs":[{"name":"sender","type":"address","indexed":false,"internalType":"address"},{"name":"notes","type":"string","indexed":false,"internalType":"string"}],"anonymous":false},{"type":"event","name":"LagoonVaultApproved","inputs":[{"name":"vault","type":"address","indexed":false,"internalType":"address"},{"name":"notes","type":"string","indexed":false,"internalType":"string"}],"anonymous":false},{"type":"event","name":"OwnershipTransferred","inputs":[{"name":"previousOwner","type":"address","indexed":true,"internalType":"address"},{"name":"newOwner","type":"address","indexed":true,"internalType":"address"}],"anonymous":false},{"type":"event","name":"ReceiverApproved","inputs":[{"name":"sender","type":"address","indexed":false,"internalType":"address"},{"name":"notes","type":"string","indexed":false,"internalType":"string"}],"anonymous":false},{"type":"event","name":"ReceiverRemoved","inputs":[{"name":"sender","type":"address","indexed":false,"internalType":"address"},{"name":"notes","type":"string","indexed":false,"internalType":"string"}],"anonymous":false},{"type":"event","name":"SenderApproved","inputs":[{"name":"sender","type":"address","indexed":false,"internalType":"address"},{"name":"notes","type":"string","indexed":false,"internalType":"string"}],"anonymous":false},{"type":"event","name":"SenderRemoved","inputs":[{"name":"sender","type":"address","indexed":false,"internalType":"address"},{"name":"notes","type":"string","indexed":false,"internalType":"string"}],"anonymous":false},{"type":"event","name":"WithdrawDestinationApproved","inputs":[{"name":"sender","type":"address","indexed":false,"internalType":"address"},{"name":"notes","type":"string","indexed":false,"internalType":"string"}],"anonymous":false},{"type":"event","name":"WithdrawDestinationRemoved","inputs":[{"name":"sender","type":"address","indexed":false,"internalType":"address"},{"name":"notes","type":"string","indexed":false,"internalType":"string"}],"anonymous":false}],"bytecode":{"object":"0x608060405234801562000010575f80fd5b506200001c3362000022565b6200007b565b600a80546001600160a01b03838116610100818102610100600160a81b031985161790945560405193909204169182907f8be0079c531659141344cd1fd0a4f28419497f9722a3daafe3b4186f6b6457e0905f90a35050565b613a1980620000895f395ff3fe608060405234801561000f575f80fd5b50600436106103e0575f3560e01c80638c2fdf9e1161020b578063d075f9bb1161011f578063f20e85e0116100b4578063f76081e411610084578063f76081e4146109ab578063f901dc33146109be578063fa2c59c8146109d1578063fadbcf48146109e4578063fdedfa2714610a06575f80fd5b8063f20e85e014610972578063f259a073146103e4578063f26749f314610985578063f2fde38b14610998575f80fd5b8063eb0de042116100ef578063eb0de042146108fa578063ebe268161461091c578063ee5462cc1461092f578063efb47bff14610942575f80fd5b8063d075f9bb146108ae578063d4c0fe45146108c1578063d7334c9d146108d4578063e98539c5146108e7575f80fd5b8063a847cf4d116101a0578063be8c97b011610170578063be8c97b014610845578063c2e657ae14610875578063c4cc9dba14610888578063c537bed01461089b578063ca963c50146105de575f80fd5b8063a847cf4d146107cf578063a9fc3d4f146107f9578063b3c329cb14610810578063b8fe8d5f14610823575f80fd5b806398b3cc39116101db57806398b3cc3914610774578063a1b6b43014610787578063a4c1cccb1461079a578063a67e1f54146107bc575f80fd5b80638c2fdf9e146107165780638da5cb5b146107295780638fb4dff21461073f578063957dc6c014610761575f80fd5b80635e4ccace11610302578063713ebf3b11610297578063761bcd9c11610267578063761bcd9c1461069f57806378addb48146106b25780637ea44655146106e357806386b6dbe5146106f65780638730160814610709575f80fd5b8063713ebf3b14610647578063715018a61461065a57806372e548a9146106625780637325249414610675575f80fd5b80636ad11353116102d25780636ad11353146105de5780636d5025f1146105f15780636d9a1423146106045780636fd7fdef14610617575f80fd5b80635e4ccace146105925780635e6afe4d146105a557806363cc17f2146105b85780636a6d5cc8146105cb575f80fd5b806334ec8d7e116103785780634b941268116103485780634b941268146105375780634b956bd81461055957806359b92be91461056c5780635ace1d921461057f575f80fd5b806334ec8d7e146104dc5780633cf20025146104ef5780633ea3555114610511578063425f49d014610524575f80fd5b80631c123e77116103b35780631c123e77146104565780631d49039c146104695780632d12d788146104995780632dc32a61146104ac575f80fd5b806304a3ba25146103e457806307ac3562146103f957806307ef00cf1461040c5780631710a4f214610443575b5f80fd5b6103f76103f2366004612ef7565b610a15565b005b6103f7610407366004612fb1565b610aae565b61042e61041a36600461302a565b60066020525f908152604090205460ff1681565b60405190151581526020015b60405180910390f35b6103f7610451366004612fb1565b610de4565b6103f7610464366004612fb1565b610e98565b61042e61047736600461302a565b6001600160a01b03165f9081526007602052604090205460ff16151560011490565b6103f76104a7366004612ef7565b610f11565b61042e6104ba36600461302a565b6001600160a01b03165f9081526008602052604090205460ff16151560011490565b6103f76104ea366004612ef7565b610f94565b61042e6104fd36600461302a565b60056020525f908152604090205460ff1681565b6103f761051f366004612ef7565b61100f565b6103f7610532366004612fb1565b61103a565b61042e61054536600461302a565b60086020525f908152604090205460ff1681565b6103f7610567366004612fb1565b61105b565b6103f761057a366004612fb1565b6110fe565b6103f761058d366004612ef7565b61117f565b6103f76105a0366004613068565b611205565b6103f76105b3366004612ef7565b6112d6565b6103f76105c6366004612ef7565b6113fb565b6103f76105d9366004612fb1565b611481565b6103f76105ec366004612fb1565b611528565b6103f76105ff3660046130c6565b61154a565b6103f7610612366004612ef7565b61155c565b61042e61062536600461302a565b6001600160a01b03165f9081526009602052604090205460ff16151560011490565b61042e6106553660046130f4565b611592565b6103f76115c7565b6103f7610670366004612ef7565b6115da565b600a5461010090046001600160a01b03165b6040516001600160a01b03909116815260200161043a565b6103f76106ad366004612fb1565b611660565b61042e6106c036600461302a565b6001600160a01b03165f9081526001602081905260409091205460ff1615151490565b6103f76106f1366004612fb1565b611769565b6103f7610704366004612ef7565b6117a5565b600a5461042e9060ff1681565b6103f7610724366004612ef7565b61182b565b600a5461010090046001600160a01b0316610687565b61042e61074d36600461302a565b60096020525f908152604090205460ff1681565b6103f761076f366004612fb1565b6118ae565b6103f7610782366004612ef7565b61196c565b6103f7610795366004612fb1565b6119f2565b61042e6107a836600461302a565b60036020525f908152604090205460ff1681565b6103f76107ca366004612ef7565b611b38565b61042e6107dd3660046130f4565b5f60208181529281526040808220909352908152205460ff1681565b61080260025481565b60405190815260200161043a565b6103f761081e36600461302a565b611bbb565b61042e61083136600461302a565b60016020525f908152604090205460ff1681565b61042e61085336600461302a565b6001600160a01b03165f9081526004602052604090205460ff16151560011490565b6103f7610883366004613127565b611c24565b6103f7610896366004612fb1565b611c96565b61042e6108a936600461302a565b611d50565b61042e6108bc36600461302a565b611d81565b6103f76108cf366004612fb1565b611da3565b6103f76108e2366004613068565b611de2565b6103f76108f5366004612fb1565b611e7a565b61042e61090836600461302a565b60076020525f908152604090205460ff1681565b6103f761092a366004612fb1565b611f1b565b6103f761093d366004612ef7565b611fb1565b61042e61095036600461302a565b6001600160a01b03165f9081526006602052604090205460ff16151560011490565b6103f7610980366004612ef7565b612066565b6103f76109933660046130c6565b6120bc565b6103f76109a636600461302a565b612131565b6103f76109b9366004612fb1565b6121a7565b6103f76109cc366004612ef7565b612222565b6103f76109df366004612ef7565b6122a5565b61042e6109f236600461302a565b60046020525f908152604090205460ff1681565b6040516001815260200161043a565b600a546001600160a01b03610100909104163314610a4e5760405162461bcd60e51b8152600401610a4590613148565b60405180910390fd5b6001600160a01b0383165f9081526007602052604090819020805460ff19169055517fb71be9befd3ac90c1c9981d3b1161b3c2c6dcd741f13b34061aa251226a802df90610aa1908590859085906131a5565b60405180910390a1505050565b5f81806020019051810190610ac39190613258565b90505f5b8151811015610ddf575f828281518110610ae357610ae3613301565b602002602001015190505f610b045f60048461232b9092919063ffffffff16565b610b0d90613315565b90505f610b2a6004808551610b229190613360565b85919061232b565b6040805180820190915260208082527f7472616e736665724552433230496e28616464726573732c75696e74323536299101529050631dac092b60e11b6001600160e01b0319831601610b8557610b80816110fe565b610dd4565b60408051808201909152601b81527f7472616e736665724552433230416c6c496e2861646472657373290000000000602090910152635cf59cb760e11b6001600160e01b0319831601610bdb57610b8081611769565b60408051808201909152601881527f6465706f73697428616464726573732c6164647265737329000000000000000060209091015262d3ec1f60e31b6001600160e01b0319831601610c3057610b8081611c96565b60408051808201909152601981527f776974686472617728616464726573732c6164647265737329000000000000006020909101526306bf1c7b60e01b6001600160e01b0319831601610c8657610b80816121a7565b610cad60405180606001604052806027815260200161398960279139805160209091012090565b6001600160e01b031916826001600160e01b03191603610cd057610b8081611528565b610cf760405180606001604052806028815260200161396160289139805160209091012090565b6001600160e01b031916826001600160e01b03191603610d1a57610b8081611528565b60408051808201909152601e81527f666c61736853776170416c6c4f75742875696e743235362c627974657329000060209091015263d2b3d16560e01b6001600160e01b0319831601610d7057610b808161103a565b60405162461bcd60e51b815260206004820152603360248201527f76616c69646174655f3164656c74614d756c746963616c6c3a20556e6b6e6f776044820152723710333ab731ba34b7b71039b2b632b1ba37b960691b6064820152608401610a45565b505050600101610ac7565b505050565b5f81806020019051810190610df9919061337e565b509050610e22816001600160a01b03165f9081526006602052604090205460ff16151560011490565b610e945760405162461bcd60e51b815260206004820152603c60248201527f76616c69646174655f7472616e736665723a205265636569766572206164647260448201527f657373206e6f742077686974656c6973746564206279204775617264000000006064820152608401610a45565b5050565b5f805b610ea483612481565b5092509050610eb282611d50565b610ece5760405162461bcd60e51b8152600401610a45906133aa565b610ed781611d50565b610ef35760405162461bcd60e51b8152600401610a45906133aa565b610efc836124bc565b15610ddf57610f0a836124f5565b9250610e9b565b600a546001600160a01b03610100909104163314610f415760405162461bcd60e51b8152600401610a4590613148565b6001600160a01b0383165f9081526005602052604090819020805460ff19169055517f4e13b11ab98e672bd78295ef9cebe764dc617f95decf47d842c25b83abc0c72490610aa1908590859085906131a5565b610fc683610fbf60405180606001604052806033815260200161392e60339139805160209091012090565b8484611205565b610ff183610fbf6040518060600160405280603481526020016139b060349139805160209091012090565b6110048363b858183f60e01b8484611205565b610ddf83838361196c565b61100483610fbf60405180608001604052806043815260200161388260439139805160209091012090565b5f8180602001905181019061104f91906133f2565b915050610e94816119f2565b5f81806020019051810190611070919061337e565b509050611099816001600160a01b03165f9081526007602052604090205460ff16151560011490565b610e945760405162461bcd60e51b815260206004820152603060248201527f76616c69646174655f617070726f76653a20417070726f76652061646472657360448201526f0e640c8decae640dcdee840dac2e8c6d60831b6064820152608401610a45565b5f81806020019051810190611113919061337e565b50905061111f81611d50565b610e945760405162461bcd60e51b815260206004820152602b60248201527f76616c69646174655f7472616e736665724552433230496e3a20546f6b656e2060448201526a1b9bdd08185b1b1bddd95960aa1b6064820152608401610a45565b600a546001600160a01b036101009091041633146111af5760405162461bcd60e51b8152600401610a4590613148565b6001600160a01b0383165f9081526006602052604090819020805460ff19166001179055517f3562181221a42a19ddd03a82dfe06acab1905ceb65cdaf7d86a1d9fec664355290610aa1908590859085906131a5565b600a546001600160a01b036101009091041633146112355760405162461bcd60e51b8152600401610a4590613148565b6001600160a01b0384165f818152602081815260408083206001600160e01b03198816845282528083208054600160ff199182168117909255948452918290528220805490931617909155600280549161128e83613435565b91905055507fef729aaa41b9fd994f9ff7c1960df214a84f722002e6cfbea31799cd0873a3ef848484846040516112c8949392919061344d565b60405180910390a150505050565b600a546001600160a01b036101009091041633146113065760405162461bcd60e51b8152600401610a4590613148565b6001600160a01b0383165f90815260096020908152604091829020805460ff191660011790558151808301909252600f82526e736574746c654465706f736974282960881b910152611378837f559ec80da0b29925dac0e329ba0aaf8bbf2760bcaf9174e4ca42e01d74c0e6d0610fbf565b60408051808201909152600e81526d736574746c6552656465656d282960901b6020909101526113c8837fa03d55e3f74b6754c01f274bb12d9c8a11ea8330b6b4ce7125c8dff1f63646ca610fbf565b7ffaa136302ac223cf7c1146490a741e4520e886fc22d7e759641453f432283d01838383604051610aa1939291906131a5565b600a546001600160a01b0361010090910416331461142b5760405162461bcd60e51b8152600401610a4590613148565b6001600160a01b0383165f9081526008602052604090819020805460ff19166001179055517f628a44970c0e450415e3ae74334ea44f3307b74dbf677a1371190242bf2f358990610aa1908590859085906131a5565b5f8082806020019051810190611497919061348b565b92505091506114a582611d50565b6114c15760405162461bcd60e51b8152600401610a45906134cb565b6114ca81611d81565b610ddf5760405162461bcd60e51b815260206004820152602960248201527f52656365697665722061646472657373206e6f742077686974656c697374656460448201526808189e4811dd585c9960ba1b6064820152608401610a45565b5f8180602001905181019061153d91906134f6565b92505050610e94816119f2565b61155684848484612526565b50505050565b61158783610fbf60405180606001604052806022815260200161390c60229139805160209091012090565b610ddf8383836117a5565b6001600160a01b0382165f908152602081815260408083206001600160e01b03198516845290915290205460ff165b92915050565b6115cf612cb9565b6115d85f612ce9565b565b600a546001600160a01b0361010090910416331461160a5760405162461bcd60e51b8152600401610a4590613148565b6001600160a01b0383165f9081526005602052604090819020805460ff19166001179055517f62dd88c5ecfa60713a657640ebec4de26fc1aefa4afdb24e6d15a124fce7277990610aa1908590859085906131a5565b5f80828060200190518101906116769190613541565b5093509350505061168681611d81565b61170d5760405162461bcd60e51b815260206004820152604c60248201527f76616c69646174655f737761704578616374546f6b656e73466f72546f6b656e60448201527f733a2052656365697665722061646472657373206e6f742077686974656c697360648201526b1d195908189e4811dd585c9960a21b608482015260a401610a45565b5f805b83518110156117625783818151811061172b5761172b613301565b6020026020010151915061173e82611d50565b61175a5760405162461bcd60e51b8152600401610a45906134cb565b600101611710565b5050505050565b5f8180602001905181019061177e9190613603565b905061178981611d50565b610e945760405162461bcd60e51b8152600401610a459061361e565b600a546001600160a01b036101009091041633146117d55760405162461bcd60e51b8152600401610a4590613148565b6001600160a01b0383165f9081526003602052604090819020805460ff19166001179055517fad90e2570fc4fe9f7437be3188d5c791c6662892d31731992aa88f5c8762198390610aa1908590859085906131a5565b600a546001600160a01b0361010090910416331461185b5760405162461bcd60e51b8152600401610a4590613148565b6001600160a01b0383165f9081526006602052604090819020805460ff19169055517f1212f8ddb39de8e1a339460c95752d61100723efeaa34ccd94bca94393f4093890610aa1908590859085906131a5565b5f818060200190518101906118c3919061337e565b5090506118ec816001600160a01b03165f9081526008602052604090205460ff16151560011490565b610e945760405162461bcd60e51b815260206004820152604560248201527f76616c69646174655f617070726f766544656c65676174696f6e3a204170707260448201527f6f76652064656c65676174696f6e206164647265737320646f6573206e6f74206064820152640dac2e8c6d60db1b608482015260a401610a45565b600a546001600160a01b0361010090910416331461199c5760405162461bcd60e51b8152600401610a4590613148565b6001600160a01b0383165f9081526007602052604090819020805460ff19166001179055517f628a44970c0e450415e3ae74334ea44f3307b74dbf677a1371190242bf2f358990610aa1908590859085906131a5565b5f805b6119ff835f612d42565b9150611a2e600180611a136003601461366c565b611a1d919061366c565b611a27919061366c565b8490612d42565b9050611a3982611d50565b611a555760405162461bcd60e51b8152600401610a459061367f565b611a5e81611d50565b611a7a5760405162461bcd60e51b8152600401610a459061367f565b600180611a896003601461366c565b611a93919061366c565b611a9d919061366c565b6014600180611aad60038461366c565b611ab7919061366c565b611ac1919061366c565b611acb919061366c565b611ad5919061366c565b835110610ddf57611b31600180611aee6003601461366c565b611af8919061366c565b611b02919061366c565b600180611b116003601461366c565b611b1b919061366c565b611b25919061366c565b8551610b229190613360565b92506119f5565b600a546001600160a01b03610100909104163314611b685760405162461bcd60e51b8152600401610a4590613148565b6001600160a01b0383165f9081526004602052604090819020805460ff19169055517f3097928509c53a2dab9500431201d82b0d756e8f890fd01f4ae6b33b45687ea490610aa1908590859085906131a5565b611be1816001600160a01b03165f9081526009602052604090205460ff16151560011490565b611c215760405162461bcd60e51b815260206004820152601160248201527015985d5b1d081b9bdd08185b1b1bddd959607a1b6044820152606401610a45565b50565b600a546001600160a01b03610100909104163314611c545760405162461bcd60e51b8152600401610a4590613148565b600a805460ff19168415151790556040517f50454d9d0025a28a39cac5a4b3f3101d29b6e413fbb64f75fb42eb6837b0771890610aa1908590859085906136c4565b5f8082806020019051810190611cac91906136df565b91509150611cb982611d50565b611cd55760405162461bcd60e51b8152600401610a459061361e565b611cde81611d81565b610ddf5760405162461bcd60e51b815260206004820152603b60248201527f76616c69646174655f6465706f7369743a20526563656976657220616464726560448201527f7373206e6f742077686974656c697374656420627920477561726400000000006064820152608401610a45565b600a545f9060ff16806115c15750506001600160a01b03165f9081526003602052604090205460ff16151560011490565b6001600160a01b03165f9081526005602052604090205460ff16151560011490565b5f81806020019051810190611db89190613717565b5050509050611dc681611d50565b610e945760405162461bcd60e51b8152600401610a45906134cb565b600a546001600160a01b03610100909104163314611e125760405162461bcd60e51b8152600401610a4590613148565b6001600160a01b0384165f908152602081815260408083206001600160e01b03198716845290915290819020805460ff19169055517f37ea10f2d08f5a9803dfcd5abf3cfc7b0d6fcdf5fcbc36be9ea5a0b53d9a4d9b906112c890869086908690869061344d565b5f81806020019051810190611e8f91906137f1565b9050611e9e8160200151611d81565b611f105760405162461bcd60e51b815260206004820152603f60248201527f76616c69646174655f65786163744f75747075743a205265636569766572206160448201527f646472657373206e6f742077686974656c6973746564206279204775617264006064820152608401610a45565b8051610e9490610e98565b5f81806020019051810190611f3091906137f1565b9050611f3f8160200151611d81565b611f105760405162461bcd60e51b815260206004820152603e60248201527f76616c69646174655f6578616374496e7075743a20526563656976657220616460448201527f6472657373206e6f742077686974656c697374656420627920477561726400006064820152608401610a45565b6040805180820190915260198152787472616e7366657228616464726573732c75696e743235362960381b60209091015261200c837fa9059cbb2ab09eb219583f4a59a5d0623ade346d962bcd4e46b11da047c9049b610fbf565b604080518082019091526018815277617070726f766528616464726573732c75696e743235362960401b602090910152611587837f095ea7b334ae44009aa867bfb386f5c3b4b443ac6f0ee573fa91c4608fbadfba610fbf565b61209183610fbf6040518060600160405280602681526020016138c560269139805160209091012090565b61100483610fbf6040518060600160405280602181526020016138eb60219139805160209091012090565b6040805180820190915260128152716d756c746963616c6c2862797465735b5d2960701b602090910152612110847fac9650d882acfa253cba1ed543b9ff47351da99c3bd00a89625e5cdb2099009c610fbf565b61211b84838361196c565b61212683838361196c565b6115568483836113fb565b612139612cb9565b6001600160a01b03811661219e5760405162461bcd60e51b815260206004820152602660248201527f4f776e61626c653a206e6577206f776e657220697320746865207a65726f206160448201526564647265737360d01b6064820152608401610a45565b611c2181612ce9565b5f80828060200190518101906121bd91906136df565b915091506121ca82611d50565b611cd55760405162461bcd60e51b8152602060048201526024808201527f76616c69646174655f77697468647261773a20546f6b656e206e6f7420616c6c6044820152631bddd95960e21b6064820152608401610a45565b600a546001600160a01b036101009091041633146122525760405162461bcd60e51b8152600401610a4590613148565b6001600160a01b0383165f9081526003602052604090819020805460ff19169055517f9ca3f065622f5f03f32b7157677a0e420c3a36ab45fd49f256ffebce3e31058790610aa1908590859085906131a5565b600a546001600160a01b036101009091041633146122d55760405162461bcd60e51b8152600401610a4590613148565b6001600160a01b0383165f9081526004602052604090819020805460ff19166001179055517fa8f9caaf4861720900294428e4ff34d37070c37afd26d96e6e4da75326d2c3ad90610aa1908590859085906131a5565b60608161233981601f61366c565b10156123785760405162461bcd60e51b815260206004820152600e60248201526d736c6963655f6f766572666c6f7760901b6044820152606401610a45565b82612383838261366c565b10156123c25760405162461bcd60e51b815260206004820152600e60248201526d736c6963655f6f766572666c6f7760901b6044820152606401610a45565b6123cc828461366c565b845110156124105760405162461bcd60e51b8152602060048201526011602482015270736c6963655f6f75744f66426f756e647360781b6044820152606401610a45565b60608215801561242e5760405191505f825260208201604052612478565b6040519150601f8416801560200281840101858101878315602002848b0101015b8183101561246757805183526020928301920161244f565b5050858452601f01601f1916604052505b50949350505050565b5f808061248e8482612d42565b925061249b846014612df5565b90506124b36124ac6003601461366c565b8590612d42565b91509193909250565b5f6124c96003601461366c565b60146124d660038261366c565b6124e0919061366c565b6124ea919061366c565b825110159050919050565b60606115c16125066003601461366c565b6125126003601461366c565b845161251e9190613360565b84919061232b565b600a546001600160a01b03858116610100909204161461155657612566846001600160a01b03165f9081526004602052604090205460ff16151560011490565b6125b25760405162461bcd60e51b815260206004820181905260248201527f76616c696461746543616c6c3a2053656e646572206e6f7420616c6c6f7765646044820152606401610a45565b5f6125c0600482848661382a565b6125c991613851565b9050365f6125da846004818861382a565b600a5491935091505f9060ff1680156126335750604080518082019091526018815277617070726f766528616464726573732c75696e743235362960401b60209091015263095ea7b360e01b6001600160e01b03198516145b905080612724576126448785611592565b612724576001600160a01b0387165f9081526001602081905260409091205460ff161515146126b55760405162461bcd60e51b815260206004820181905260248201527f76616c696461746543616c6c3a20746172676574206e6f7420616c6c6f7765646044820152606401610a45565b6126bf8785611592565b6127245760405162461bcd60e51b815260206004820152603060248201527f76616c696461746543616c6c3a2073656c6563746f72206e6f7420616c6c6f7760448201526f1959081bdb881d1a19481d185c99d95d60821b6064820152608401610a45565b61274b60405180608001604052806043815260200161388260439139805160209091012090565b6001600160e01b031916846001600160e01b031916036127a8576127a383838080601f0160208091040260200160405190810160405280939291908181526020018383808284375f9201919091525061166092505050565b612caf565b6127cf60405180606001604052806033815260200161392e60339139805160209091012090565b6001600160e01b031916846001600160e01b03191603612827576127a383838080601f0160208091040260200160405190810160405280939291908181526020018383808284375f92019190915250611f1b92505050565b6001600160e01b0319841663b858183f60e01b036128ce57600a5460ff166127a35760405162461bcd60e51b815260206004820152604e60248201527f76616c696461746543616c6c3a2053776170526f75746572303220697320637560448201527f7272656e746c7920737570706f72746564206f6e6c79207769746820616e794160648201526d1cdcd95d081dda1a5d195b1a5cdd60921b608482015260a401610a45565b6040805180820190915260128152716d756c746963616c6c2862797465735b5d2960701b602090910152630a6d35e560e31b6001600160e01b031985160161294e576127a383838080601f0160208091040260200160405190810160405280939291908181526020018383808284375f92019190915250610aae92505050565b6040805180820190915260198152787472616e7366657228616464726573732c75696e743235362960381b6020909101526356fa634560e01b6001600160e01b03198516016129d5576127a383838080601f0160208091040260200160405190810160405280939291908181526020018383808284375f92019190915250610de492505050565b604080518082019091526018815277617070726f766528616464726573732c75696e743235362960401b60209091015263f6a1584d60e01b6001600160e01b0319851601612a5b576127a383838080601f0160208091040260200160405190810160405280939291908181526020018383808284375f9201919091525061105b92505050565b612a8260405180606001604052806022815260200161390c60229139805160209091012090565b6001600160e01b031916846001600160e01b03191603612ada576127a383838080601f0160208091040260200160405190810160405280939291908181526020018383808284375f920191909152506118ae92505050565b612b016040518060600160405280602681526020016138c560269139805160209091012090565b6001600160e01b031916846001600160e01b03191603612b59576127a383838080601f0160208091040260200160405190810160405280939291908181526020018383808284375f92019190915250611da392505050565b612b806040518060600160405280602181526020016138eb60219139805160209091012090565b6001600160e01b031916846001600160e01b03191603612bd8576127a383838080601f0160208091040260200160405190810160405280939291908181526020018383808284375f9201919091525061148192505050565b60408051808201909152600f81526e736574746c654465706f736974282960881b60209091015263aa6137f360e01b6001600160e01b0319851601612c20576127a387611bbb565b60408051808201909152600e81526d736574746c6552656465656d282960901b602090910152635fc2aa1d60e01b6001600160e01b0319851601612c67576127a387611bbb565b60405162461bcd60e51b815260206004820152601960248201527f556e6b6e6f776e2066756e6374696f6e2073656c6563746f72000000000000006044820152606401610a45565b5050505050505050565b600a546001600160a01b036101009091041633146115d85760405162461bcd60e51b8152600401610a4590613148565b600a80546001600160a01b03838116610100818102610100600160a81b031985161790945560405193909204169182907f8be0079c531659141344cd1fd0a4f28419497f9722a3daafe3b4186f6b6457e0905f90a35050565b5f81612d4f81601461366c565b1015612d925760405162461bcd60e51b8152602060048201526012602482015271746f416464726573735f6f766572666c6f7760701b6044820152606401610a45565b612d9d82601461366c565b83511015612de55760405162461bcd60e51b8152602060048201526015602482015274746f416464726573735f6f75744f66426f756e647360581b6044820152606401610a45565b500160200151600160601b900490565b5f81612e0281600361366c565b1015612e445760405162461bcd60e51b8152602060048201526011602482015270746f55696e7432345f6f766572666c6f7760781b6044820152606401610a45565b612e4f82600361366c565b83511015612e965760405162461bcd60e51b8152602060048201526014602482015273746f55696e7432345f6f75744f66426f756e647360601b6044820152606401610a45565b50016003015190565b6001600160a01b0381168114611c21575f80fd5b5f8083601f840112612ec3575f80fd5b5081356001600160401b03811115612ed9575f80fd5b602083019150836020828501011115612ef0575f80fd5b9250929050565b5f805f60408486031215612f09575f80fd5b8335612f1481612e9f565b925060208401356001600160401b03811115612f2e575f80fd5b612f3a86828701612eb3565b9497909650939450505050565b634e487b7160e01b5f52604160045260245ffd5b604051601f8201601f191681016001600160401b0381118282101715612f8357612f83612f47565b604052919050565b5f6001600160401b03821115612fa357612fa3612f47565b50601f01601f191660200190565b5f60208284031215612fc1575f80fd5b81356001600160401b03811115612fd6575f80fd5b8201601f81018413612fe6575f80fd5b8035612ff9612ff482612f8b565b612f5b565b81815285602083850101111561300d575f80fd5b816020840160208301375f91810160200191909152949350505050565b5f6020828403121561303a575f80fd5b813561304581612e9f565b9392505050565b80356001600160e01b031981168114613063575f80fd5b919050565b5f805f806060858703121561307b575f80fd5b843561308681612e9f565b93506130946020860161304c565b925060408501356001600160401b038111156130ae575f80fd5b6130ba87828801612eb3565b95989497509550505050565b5f805f80606085870312156130d9575f80fd5b84356130e481612e9f565b9350602085013561309481612e9f565b5f8060408385031215613105575f80fd5b823561311081612e9f565b915061311e6020840161304c565b90509250929050565b5f805f60408486031215613139575f80fd5b83358015158114612f14575f80fd5b6020808252818101527f4f776e61626c653a2063616c6c6572206973206e6f7420746865206f776e6572604082015260600190565b81835281816020850137505f828201602090810191909152601f909101601f19169091010190565b6001600160a01b03841681526040602082018190525f906131c9908301848661317d565b95945050505050565b5f6001600160401b038211156131ea576131ea612f47565b5060051b60200190565b5f82601f830112613203575f80fd5b8151613211612ff482612f8b565b8181526020856020848701011115613227575f80fd5b5f5b83811015613244578581018201518382018301528101613229565b50505f918101602001919091529392505050565b5f6020808385031215613269575f80fd5b82516001600160401b038082111561327f575f80fd5b818501915085601f830112613292575f80fd5b81516132a0612ff4826131d2565b81815260059190911b830184019084810190888311156132be575f80fd5b8585015b838110156132f4578051858111156132d8575f80fd5b6132e68b89838a01016131f4565b8452509186019186016132c2565b5098975050505050505050565b634e487b7160e01b5f52603260045260245ffd5b805160208201516001600160e01b031980821692919060048310156133445780818460040360031b1b83161693505b505050919050565b634e487b7160e01b5f52601160045260245ffd5b818103818111156115c1576115c161334c565b805161306381612e9f565b5f806040838503121561338f575f80fd5b825161339a81612e9f565b6020939093015192949293505050565b60208082526028908201527f76616c6964617465556e69737761705633506174683a20546f6b656e206e6f7460408201526708185b1b1bddd95960c21b606082015260800190565b5f8060408385031215613403575f80fd5b8251915060208301516001600160401b0381111561341f575f80fd5b61342b858286016131f4565b9150509250929050565b5f600182016134465761344661334c565b5060010190565b6001600160a01b03851681526001600160e01b0319841660208201526060604082018190525f90613481908301848661317d565b9695505050505050565b5f805f6060848603121561349d575f80fd5b83516134a881612e9f565b6020850151604086015191945092506134c081612e9f565b809150509250925092565b602080825260119082015270151bdad95b881b9bdd08185b1b1bddd959607a1b604082015260600190565b5f805f60608486031215613508575f80fd5b835192506020840151915060408401516001600160401b0381111561352b575f80fd5b613537868287016131f4565b9150509250925092565b5f805f805f60a08688031215613555575f80fd5b85519450602080870151945060408701516001600160401b03811115613579575f80fd5b8701601f81018913613589575f80fd5b8051613597612ff4826131d2565b81815260059190911b8201830190838101908b8311156135b5575f80fd5b928401925b828410156135dc5783516135cd81612e9f565b825292840192908401906135ba565b80975050505050506135f060608701613373565b9150608086015190509295509295909350565b5f60208284031215613613575f80fd5b815161304581612e9f565b6020808252602e908201527f76616c69646174655f7472616e736665724552433230416c6c496e3a20546f6b60408201526d195b881b9bdd08185b1b1bddd95960921b606082015260800190565b808201808211156115c1576115c161334c565b60208082526025908201527f76616c69646174653164656c7461506174683a20546f6b656e206e6f7420616c6040820152641b1bddd95960da1b606082015260800190565b8315158152604060208201525f6131c960408301848661317d565b5f80604083850312156136f0575f80fd5b82516136fb81612e9f565b602084015190925061370c81612e9f565b809150509250929050565b5f805f806080858703121561372a575f80fd5b845161373581612e9f565b60208601516040870151919550935061374d81612e9f565b6060959095015193969295505050565b5f60a0828403121561376d575f80fd5b60405160a081016001600160401b03828210818311171561379057613790612f47565b8160405282935084519150808211156137a7575f80fd5b506137b4858286016131f4565b82525060208301516137c581612e9f565b806020830152506040830151604082015260608301516060820152608083015160808201525092915050565b5f60208284031215613801575f80fd5b81516001600160401b03811115613816575f80fd5b6138228482850161375d565b949350505050565b5f8085851115613838575f80fd5b83861115613844575f80fd5b5050820193919092039150565b6001600160e01b031981358181169160048510156138795780818660040360031b1b83161692505b50509291505056fe737761704578616374546f6b656e73466f72546f6b656e732875696e743235362c75696e743235362c616464726573735b5d2c616464726573732c75696e7432353629737570706c7928616464726573732c75696e743235362c616464726573732c75696e74313629776974686472617728616464726573732c75696e743235362c6164647265737329617070726f766544656c65676174696f6e28616464726573732c75696e74323536296578616374496e707574282862797465732c616464726573732c75696e743235362c75696e743235362c75696e743235362929666c6173685377617045786163744f75742875696e743235362c75696e743235362c627974657329666c617368537761704578616374496e2875696e743235362c75696e743235362c62797465732965786163744f7574707574282862797465732c616464726573732c75696e743235362c75696e743235362c75696e743235362929a264697066735822122097d4aaf92f8c1fe17285a428679f8cb5faecc7a74ea1f6787418a7c19d95ddf664736f6c63430008170033","linkReferences":{}},"methodIdentifiers":{"allowApprovalDestination(address,string)":"98b3cc39","allowAsset(address,string)":"86b6dbe5","allowCallSite(address,bytes4,string)":"5e4ccace","allowDelegationApprovalDestination(address,string)":"63cc17f2","allowReceiver(address,string)":"72e548a9","allowSender(address,string)":"fa2c59c8","allowWithdrawDestination(address,string)":"5ace1d92","allowedApprovalDestinations(address)":"eb0de042","allowedAssets(address)":"a4c1cccb","allowedCallSites(address,bytes4)":"a847cf4d","allowedDelegationApprovalDestinations(address)":"4b941268","allowedLagoonVaults(address)":"8fb4dff2","allowedReceivers(address)":"3cf20025","allowedSenders(address)":"fadbcf48","allowedTargets(address)":"b8fe8d5f","allowedWithdrawDestinations(address)":"07ef00cf","anyAsset()":"87301608","callSiteCount()":"a9fc3d4f","getGovernanceAddress()":"73252494","getInternalVersion()":"fdedfa27","isAllowedApprovalDestination(address)":"1d49039c","isAllowedAsset(address)":"c537bed0","isAllowedCallSite(address,bytes4)":"713ebf3b","isAllowedDelegationApprovalDestination(address)":"2dc32a61","isAllowedLagoonVault(address)":"6fd7fdef","isAllowedReceiver(address)":"d075f9bb","isAllowedSender(address)":"be8c97b0","isAllowedTarget(address)":"78addb48","isAllowedWithdrawDestination(address)":"efb47bff","owner()":"8da5cb5b","removeApprovalDestination(address,string)":"04a3ba25","removeAsset(address,string)":"f901dc33","removeCallSite(address,bytes4,string)":"d7334c9d","removeDelegationApprovalDestination(address,string)":"f259a073","removeReceiver(address,string)":"2d12d788","removeSender(address,string)":"a67e1f54","removeWithdrawDestination(address,string)":"8c2fdf9e","renounceOwnership()":"715018a6","setAnyAssetAllowed(bool,string)":"c2e657ae","transferOwnership(address)":"f2fde38b","validate1deltaPath(bytes)":"a1b6b430","validateCall(address,address,bytes)":"6d5025f1","validateUniswapV3Path(bytes)":"1c123e77","validate_1deltaDeposit(bytes)":"c4cc9dba","validate_1deltaMulticall(bytes)":"07ac3562","validate_1deltaWithdraw(bytes)":"f76081e4","validate_aaveSupply(bytes)":"d4c0fe45","validate_aaveWithdraw(bytes)":"6a6d5cc8","validate_approve(bytes)":"4b956bd8","validate_approveDelegation(bytes)":"957dc6c0","validate_exactInput(bytes)":"ebe26816","validate_exactOutput(bytes)":"e98539c5","validate_flashSwapAllOut(bytes)":"425f49d0","validate_flashSwapExactInt(bytes)":"ca963c50","validate_flashSwapExactOut(bytes)":"6ad11353","validate_lagoonSettle(address)":"b3c329cb","validate_swapExactTokensForTokens(bytes)":"761bcd9c","validate_transfer(bytes)":"1710a4f2","validate_transferERC20AllIn(bytes)":"7ea44655","validate_transferERC20In(bytes)":"59b92be9","whitelistAaveV3(address,string)":"f20e85e0","whitelistLagoon(address,string)":"5e6afe4d","whitelistOnedelta(address,address,string)":"f26749f3","whitelistToken(address,string)":"ee5462cc","whitelistTokenForDelegation(address,string)":"6d9a1423","whitelistUniswapV2Router(address,string)":"3ea35551","whitelistUniswapV3Router(address,string)":"34ec8d7e"},"id":2}