{"abi":[{"type":"constructor","inputs":[],"stateMutability":"nonpayable"},{"type":"function","name":"_validateCallInternal","inputs":[{"name":"sender","type":"address","internalType":"address"},{"name":"target","type":"address","internalType":"address"},{"name":"callDataWithSelector","type":"bytes","internalType":"bytes"}],"outputs":[],"stateMutability":"view"},{"type":"function","name":"allowApprovalDestination","inputs":[{"name":"destination","type":"address","internalType":"address"},{"name":"notes","type":"string","internalType":"string"}],"outputs":[],"stateMutability":"nonpayable"},{"type":"function","name":"allowAsset","inputs":[{"name":"asset","type":"address","internalType":"address"},{"name":"notes","type":"string","internalType":"string"}],"outputs":[],"stateMutability":"nonpayable"},{"type":"function","name":"allowCallSite","inputs":[{"name":"target","type":"address","internalType":"address"},{"name":"selector","type":"bytes4","internalType":"bytes4"},{"name":"notes","type":"string","internalType":"string"}],"outputs":[],"stateMutability":"nonpayable"},{"type":"function","name":"allowDelegationApprovalDestination","inputs":[{"name":"destination","type":"address","internalType":"address"},{"name":"notes","type":"string","internalType":"string"}],"outputs":[],"stateMutability":"nonpayable"},{"type":"function","name":"allowReceiver","inputs":[{"name":"receiver","type":"address","internalType":"address"},{"name":"notes","type":"string","internalType":"string"}],"outputs":[],"stateMutability":"nonpayable"},{"type":"function","name":"allowSender","inputs":[{"name":"sender","type":"address","internalType":"address"},{"name":"notes","type":"string","internalType":"string"}],"outputs":[],"stateMutability":"nonpayable"},{"type":"function","name":"allowWithdrawDestination","inputs":[{"name":"destination","type":"address","internalType":"address"},{"name":"notes","type":"string","internalType":"string"}],"outputs":[],"stateMutability":"nonpayable"},{"type":"function","name":"allowedApprovalDestinations","inputs":[{"name":"destination","type":"address","internalType":"address"}],"outputs":[{"name":"allowed","type":"bool","internalType":"bool"}],"stateMutability":"view"},{"type":"function","name":"allowedAssets","inputs":[{"name":"token","type":"address","internalType":"address"}],"outputs":[{"name":"allowed","type":"bool","internalType":"bool"}],"stateMutability":"view"},{"type":"function","name":"allowedCallSites","inputs":[{"name":"target","type":"address","internalType":"address"},{"name":"selector","type":"bytes4","internalType":"bytes4"}],"outputs":[{"name":"allowed","type":"bool","internalType":"bool"}],"stateMutability":"view"},{"type":"function","name":"allowedDelegationApprovalDestinations","inputs":[{"name":"destination","type":"address","internalType":"address"}],"outputs":[{"name":"allowed","type":"bool","internalType":"bool"}],"stateMutability":"view"},{"type":"function","name":"allowedReceivers","inputs":[{"name":"receiver","type":"address","internalType":"address"}],"outputs":[{"name":"allowed","type":"bool","internalType":"bool"}],"stateMutability":"view"},{"type":"function","name":"allowedSenders","inputs":[{"name":"sender","type":"address","internalType":"address"}],"outputs":[{"name":"allowed","type":"bool","internalType":"bool"}],"stateMutability":"view"},{"type":"function","name":"allowedWithdrawDestinations","inputs":[{"name":"destination","type":"address","internalType":"address"}],"outputs":[{"name":"allowed","type":"bool","internalType":"bool"}],"stateMutability":"view"},{"type":"function","name":"anyAsset","inputs":[],"outputs":[{"name":"","type":"bool","internalType":"bool"}],"stateMutability":"view"},{"type":"function","name":"callSiteCount","inputs":[],"outputs":[{"name":"","type":"uint256","internalType":"uint256"}],"stateMutability":"view"},{"type":"function","name":"getGovernanceAddress","inputs":[],"outputs":[{"name":"","type":"address","internalType":"address"}],"stateMutability":"view"},{"type":"function","name":"getInternalVersion","inputs":[],"outputs":[{"name":"","type":"uint8","internalType":"uint8"}],"stateMutability":"pure"},{"type":"function","name":"isAllowedApprovalDestination","inputs":[{"name":"receiver","type":"address","internalType":"address"}],"outputs":[{"name":"","type":"bool","internalType":"bool"}],"stateMutability":"view"},{"type":"function","name":"isAllowedAsset","inputs":[{"name":"token","type":"address","internalType":"address"}],"outputs":[{"name":"","type":"bool","internalType":"bool"}],"stateMutability":"view"},{"type":"function","name":"isAllowedCallSite","inputs":[{"name":"target","type":"address","internalType":"address"},{"name":"selector","type":"bytes4","internalType":"bytes4"}],"outputs":[{"name":"","type":"bool","internalType":"bool"}],"stateMutability":"view"},{"type":"function","name":"isAllowedDelegationApprovalDestination","inputs":[{"name":"receiver","type":"address","internalType":"address"}],"outputs":[{"name":"","type":"bool","internalType":"bool"}],"stateMutability":"view"},{"type":"function","name":"isAllowedReceiver","inputs":[{"name":"receiver","type":"address","internalType":"address"}],"outputs":[{"name":"","type":"bool","internalType":"bool"}],"stateMutability":"view"},{"type":"function","name":"isAllowedSender","inputs":[{"name":"sender","type":"address","internalType":"address"}],"outputs":[{"name":"","type":"bool","internalType":"bool"}],"stateMutability":"view"},{"type":"function","name":"isAllowedWithdrawDestination","inputs":[{"name":"receiver","type":"address","internalType":"address"}],"outputs":[{"name":"","type":"bool","internalType":"bool"}],"stateMutability":"view"},{"type":"function","name":"owner","inputs":[],"outputs":[{"name":"","type":"address","internalType":"address"}],"stateMutability":"view"},{"type":"function","name":"removeApprovalDestination","inputs":[{"name":"destination","type":"address","internalType":"address"},{"name":"notes","type":"string","internalType":"string"}],"outputs":[],"stateMutability":"nonpayable"},{"type":"function","name":"removeAsset","inputs":[{"name":"asset","type":"address","internalType":"address"},{"name":"notes","type":"string","internalType":"string"}],"outputs":[],"stateMutability":"nonpayable"},{"type":"function","name":"removeCallSite","inputs":[{"name":"target","type":"address","internalType":"address"},{"name":"selector","type":"bytes4","internalType":"bytes4"},{"name":"notes","type":"string","internalType":"string"}],"outputs":[],"stateMutability":"nonpayable"},{"type":"function","name":"removeDelegationApprovalDestination","inputs":[{"name":"destination","type":"address","internalType":"address"},{"name":"notes","type":"string","internalType":"string"}],"outputs":[],"stateMutability":"nonpayable"},{"type":"function","name":"removeReceiver","inputs":[{"name":"receiver","type":"address","internalType":"address"},{"name":"notes","type":"string","internalType":"string"}],"outputs":[],"stateMutability":"nonpayable"},{"type":"function","name":"removeSender","inputs":[{"name":"sender","type":"address","internalType":"address"},{"name":"notes","type":"string","internalType":"string"}],"outputs":[],"stateMutability":"nonpayable"},{"type":"function","name":"removeWithdrawDestination","inputs":[{"name":"destination","type":"address","internalType":"address"},{"name":"notes","type":"string","internalType":"string"}],"outputs":[],"stateMutability":"nonpayable"},{"type":"function","name":"renounceOwnership","inputs":[],"outputs":[],"stateMutability":"nonpayable"},{"type":"function","name":"setAnyAssetAllowed","inputs":[{"name":"value","type":"bool","internalType":"bool"},{"name":"notes","type":"string","internalType":"string"}],"outputs":[],"stateMutability":"nonpayable"},{"type":"function","name":"transferOwnership","inputs":[{"name":"newOwner","type":"address","internalType":"address"}],"outputs":[],"stateMutability":"nonpayable"},{"type":"function","name":"validate1deltaPath","inputs":[{"name":"path","type":"bytes","internalType":"bytes"}],"outputs":[],"stateMutability":"view"},{"type":"function","name":"validateCall","inputs":[{"name":"sender","type":"address","internalType":"address"},{"name":"target","type":"address","internalType":"address"},{"name":"callDataWithSelector","type":"bytes","internalType":"bytes"}],"outputs":[],"stateMutability":"view"},{"type":"function","name":"validateUniswapV3Path","inputs":[{"name":"path","type":"bytes","internalType":"bytes"}],"outputs":[],"stateMutability":"view"},{"type":"function","name":"validate_1deltaDeposit","inputs":[{"name":"callData","type":"bytes","internalType":"bytes"}],"outputs":[],"stateMutability":"view"},{"type":"function","name":"validate_1deltaMulticall","inputs":[{"name":"callData","type":"bytes","internalType":"bytes"}],"outputs":[],"stateMutability":"view"},{"type":"function","name":"validate_1deltaWithdraw","inputs":[{"name":"callData","type":"bytes","internalType":"bytes"}],"outputs":[],"stateMutability":"view"},{"type":"function","name":"validate_aaveSupply","inputs":[{"name":"callData","type":"bytes","internalType":"bytes"}],"outputs":[],"stateMutability":"view"},{"type":"function","name":"validate_aaveWithdraw","inputs":[{"name":"callData","type":"bytes","internalType":"bytes"}],"outputs":[],"stateMutability":"view"},{"type":"function","name":"validate_approve","inputs":[{"name":"callData","type":"bytes","internalType":"bytes"}],"outputs":[],"stateMutability":"view"},{"type":"function","name":"validate_approveDelegation","inputs":[{"name":"callData","type":"bytes","internalType":"bytes"}],"outputs":[],"stateMutability":"view"},{"type":"function","name":"validate_exactInput","inputs":[{"name":"callData","type":"bytes","internalType":"bytes"}],"outputs":[],"stateMutability":"view"},{"type":"function","name":"validate_exactOutput","inputs":[{"name":"callData","type":"bytes","internalType":"bytes"}],"outputs":[],"stateMutability":"view"},{"type":"function","name":"validate_flashSwapAllOut","inputs":[{"name":"callData","type":"bytes","internalType":"bytes"}],"outputs":[],"stateMutability":"view"},{"type":"function","name":"validate_flashSwapExactInt","inputs":[{"name":"callData","type":"bytes","internalType":"bytes"}],"outputs":[],"stateMutability":"view"},{"type":"function","name":"validate_flashSwapExactOut","inputs":[{"name":"callData","type":"bytes","internalType":"bytes"}],"outputs":[],"stateMutability":"view"},{"type":"function","name":"validate_swapExactTokensForTokens","inputs":[{"name":"callData","type":"bytes","internalType":"bytes"}],"outputs":[],"stateMutability":"view"},{"type":"function","name":"validate_transfer","inputs":[{"name":"callData","type":"bytes","internalType":"bytes"}],"outputs":[],"stateMutability":"view"},{"type":"function","name":"validate_transferERC20AllIn","inputs":[{"name":"callData","type":"bytes","internalType":"bytes"}],"outputs":[],"stateMutability":"view"},{"type":"function","name":"validate_transferERC20In","inputs":[{"name":"callData","type":"bytes","internalType":"bytes"}],"outputs":[],"stateMutability":"view"},{"type":"function","name":"whitelistAaveV3","inputs":[{"name":"lendingPool","type":"address","internalType":"address"},{"name":"notes","type":"string","internalType":"string"}],"outputs":[],"stateMutability":"nonpayable"},{"type":"function","name":"whitelistOnedelta","inputs":[{"name":"brokerProxy","type":"address","internalType":"address"},{"name":"lendingPool","type":"address","internalType":"address"},{"name":"notes","type":"string","internalType":"string"}],"outputs":[],"stateMutability":"nonpayable"},{"type":"function","name":"whitelistToken","inputs":[{"name":"token","type":"address","internalType":"address"},{"name":"notes","type":"string","internalType":"string"}],"outputs":[],"stateMutability":"nonpayable"},{"type":"function","name":"whitelistTokenForDelegation","inputs":[{"name":"token","type":"address","internalType":"address"},{"name":"notes","type":"string","internalType":"string"}],"outputs":[],"stateMutability":"nonpayable"},{"type":"function","name":"whitelistUniswapV2Router","inputs":[{"name":"router","type":"address","internalType":"address"},{"name":"notes","type":"string","internalType":"string"}],"outputs":[],"stateMutability":"nonpayable"},{"type":"function","name":"whitelistUniswapV3Router","inputs":[{"name":"router","type":"address","internalType":"address"},{"name":"notes","type":"string","internalType":"string"}],"outputs":[],"stateMutability":"nonpayable"},{"type":"event","name":"AnyAssetSet","inputs":[{"name":"value","type":"bool","indexed":false,"internalType":"bool"},{"name":"notes","type":"string","indexed":false,"internalType":"string"}],"anonymous":false},{"type":"event","name":"ApprovalDestinationApproved","inputs":[{"name":"sender","type":"address","indexed":false,"internalType":"address"},{"name":"notes","type":"string","indexed":false,"internalType":"string"}],"anonymous":false},{"type":"event","name":"ApprovalDestinationRemoved","inputs":[{"name":"sender","type":"address","indexed":false,"internalType":"address"},{"name":"notes","type":"string","indexed":false,"internalType":"string"}],"anonymous":false},{"type":"event","name":"AssetApproved","inputs":[{"name":"sender","type":"address","indexed":false,"internalType":"address"},{"name":"notes","type":"string","indexed":false,"internalType":"string"}],"anonymous":false},{"type":"event","name":"AssetRemoved","inputs":[{"name":"sender","type":"address","indexed":false,"internalType":"address"},{"name":"notes","type":"string","indexed":false,"internalType":"string"}],"anonymous":false},{"type":"event","name":"CallSiteApproved","inputs":[{"name":"target","type":"address","indexed":false,"internalType":"address"},{"name":"selector","type":"bytes4","indexed":false,"internalType":"bytes4"},{"name":"notes","type":"string","indexed":false,"internalType":"string"}],"anonymous":false},{"type":"event","name":"CallSiteRemoved","inputs":[{"name":"target","type":"address","indexed":false,"internalType":"address"},{"name":"selector","type":"bytes4","indexed":false,"internalType":"bytes4"},{"name":"notes","type":"string","indexed":false,"internalType":"string"}],"anonymous":false},{"type":"event","name":"DelegationApprovalDestinationApproved","inputs":[{"name":"sender","type":"address","indexed":false,"internalType":"address"},{"name":"notes","type":"string","indexed":false,"internalType":"string"}],"anonymous":false},{"type":"event","name":"DelegationApprovalDestinationRemoved","inputs":[{"name":"sender","type":"address","indexed":false,"internalType":"address"},{"name":"notes","type":"string","indexed":false,"internalType":"string"}],"anonymous":false},{"type":"event","name":"OwnershipTransferred","inputs":[{"name":"previousOwner","type":"address","indexed":true,"internalType":"address"},{"name":"newOwner","type":"address","indexed":true,"internalType":"address"}],"anonymous":false},{"type":"event","name":"ReceiverApproved","inputs":[{"name":"sender","type":"address","indexed":false,"internalType":"address"},{"name":"notes","type":"string","indexed":false,"internalType":"string"}],"anonymous":false},{"type":"event","name":"ReceiverRemoved","inputs":[{"name":"sender","type":"address","indexed":false,"internalType":"address"},{"name":"notes","type":"string","indexed":false,"internalType":"string"}],"anonymous":false},{"type":"event","name":"SenderApproved","inputs":[{"name":"sender","type":"address","indexed":false,"internalType":"address"},{"name":"notes","type":"string","indexed":false,"internalType":"string"}],"anonymous":false},{"type":"event","name":"SenderRemoved","inputs":[{"name":"sender","type":"address","indexed":false,"internalType":"address"},{"name":"notes","type":"string","indexed":false,"internalType":"string"}],"anonymous":false},{"type":"event","name":"WithdrawDestinationApproved","inputs":[{"name":"sender","type":"address","indexed":false,"internalType":"address"},{"name":"notes","type":"string","indexed":false,"internalType":"string"}],"anonymous":false},{"type":"event","name":"WithdrawDestinationRemoved","inputs":[{"name":"sender","type":"address","indexed":false,"internalType":"address"},{"name":"notes","type":"string","indexed":false,"internalType":"string"}],"anonymous":false}],"bytecode":{"object":"0x60806040523480156200001157600080fd5b506200001d3362000023565b6200007d565b600880546001600160a01b03838116610100818102610100600160a81b031985161790945560405193909204169182907f8be0079c531659141344cd1fd0a4f28419497f9722a3daafe3b4186f6b6457e090600090a35050565b61366c806200008d6000396000f3fe608060405234801561001057600080fd5b50600436106103ba5760003560e01c80638c2fdf9e116101f4578063d4c0fe451161011a578063f259a073116100ad578063f901dc331161007c578063f901dc33146108eb578063fa2c59c8146108fe578063fadbcf4814610911578063fdedfa271461093457600080fd5b8063f259a073146103bf578063f26749f3146108b2578063f2fde38b146108c5578063f76081e4146108d857600080fd5b8063ebe26816116100e9578063ebe2681614610848578063ee5462cc1461085b578063efb47bff1461086e578063f20e85e01461089f57600080fd5b8063d4c0fe45146107ec578063d7334c9d146107ff578063e98539c514610812578063eb0de0421461082557600080fd5b8063a847cf4d11610192578063c4cc9dba11610161578063c4cc9dba146107b3578063c537bed0146107c6578063ca963c50146105be578063d075f9bb146107d957600080fd5b8063a847cf4d1461072d578063a9fc3d4f14610758578063be8c97b01461076f578063c2e657ae146107a057600080fd5b806398b3cc39116101ce57806398b3cc39146106d1578063a1b6b430146106e4578063a4c1cccb146106f7578063a67e1f541461071a57600080fd5b80638c2fdf9e146106955780638da5cb5b146106a8578063957dc6c0146106be57600080fd5b806359b92be9116102e4578063713ebf3b11610277578063761bcd9c11610246578063761bcd9c1461064f5780637ea446551461066257806386b6dbe514610675578063873016081461068857600080fd5b8063713ebf3b146105f7578063715018a61461060a57806372e548a914610612578063732524941461062557600080fd5b80636a6d5cc8116102b35780636a6d5cc8146105ab5780636ad11353146105be5780636d5025f1146105d15780636d9a1423146105e457600080fd5b806359b92be91461055f5780635ace1d92146105725780635e4ccace1461058557806363cc17f21461059857600080fd5b80632d12d7881161035c5780633ea355511161032b5780633ea3555114610503578063425f49d0146105165780634b941268146105295780634b956bd81461054c57600080fd5b80632d12d788146104895780632dc32a611461049c57806334ec8d7e146104cd5780633cf20025146104e057600080fd5b80631710a4f2116103985780631710a4f21461041f5780631c123e77146104325780631d49039c146104455780632674111e1461047657600080fd5b806304a3ba25146103bf57806307ac3562146103d457806307ef00cf146103e7575b600080fd5b6103d26103cd366004612af4565b610943565b005b6103d26103e2366004612bb5565b6109dd565b61040a6103f5366004612c34565b60056020526000908152604090205460ff1681565b60405190151581526020015b60405180910390f35b6103d261042d366004612bb5565b610d19565b6103d2610440366004612bb5565b610dcf565b61040a610453366004612c34565b6001600160a01b031660009081526006602052604090205460ff16151560011490565b6103d2610484366004612c58565b610e49565b6103d2610497366004612af4565b6113cd565b61040a6104aa366004612c34565b6001600160a01b031660009081526007602052604090205460ff16151560011490565b6103d26104db366004612af4565b611451565b61040a6104ee366004612c34565b60046020526000908152604090205460ff1681565b6103d2610511366004612af4565b6114b9565b6103d2610524366004612bb5565b6114e4565b61040a610537366004612c34565b60076020526000908152604090205460ff1681565b6103d261055a366004612bb5565b611506565b6103d261056d366004612bb5565b6115ab565b6103d2610580366004612af4565b61162d565b6103d2610593366004612cd9565b6116b4565b6103d26105a6366004612af4565b611771565b6103d26105b9366004612bb5565b6117f8565b6103d26105cc366004612bb5565b6118a0565b6103d26105df366004612c58565b6118c3565b6103d26105f2366004612af4565b6118cf565b61040a610605366004612d08565b611905565b6103d261199a565b6103d2610620366004612af4565b6119ae565b60085461010090046001600160a01b03165b6040516001600160a01b039091168152602001610416565b6103d261065d366004612bb5565b611a35565b6103d2610670366004612bb5565b611b40565b6103d2610683366004612af4565b611b7d565b60085461040a9060ff1681565b6103d26106a3366004612af4565b611c04565b60085461010090046001600160a01b0316610637565b6103d26106cc366004612bb5565b611c88565b6103d26106df366004612af4565b611d48565b6103d26106f2366004612bb5565b611dcf565b61040a610705366004612c34565b60026020526000908152604090205460ff1681565b6103d2610728366004612af4565b611f17565b61040a61073b366004612d08565b600060208181529281526040808220909352908152205460ff1681565b61076160015481565b604051908152602001610416565b61040a61077d366004612c34565b6001600160a01b031660009081526003602052604090205460ff16151560011490565b6103d26107ae366004612d3d565b611f9b565b6103d26107c1366004612bb5565b61200d565b61040a6107d4366004612c34565b6120c8565b61040a6107e7366004612c34565b6120fb565b6103d26107fa366004612bb5565b61211e565b6103d261080d366004612cd9565b61215e565b6103d2610820366004612bb5565b6121f7565b61040a610833366004612c34565b60066020526000908152604090205460ff1681565b6103d2610856366004612bb5565b612299565b6103d2610869366004612af4565b612330565b61040a61087c366004612c34565b6001600160a01b031660009081526005602052604090205460ff16151560011490565b6103d26108ad366004612af4565b6123e5565b6103d26108c0366004612c58565b61243b565b6103d26108d3366004612c34565b6124b0565b6103d26108e6366004612bb5565b612529565b6103d26108f9366004612af4565b6125a5565b6103d261090c366004612af4565b612629565b61040a61091f366004612c34565b60036020526000908152604090205460ff1681565b60405160018152602001610416565b6008546001600160a01b0361010090910416331461097c5760405162461bcd60e51b815260040161097390612d62565b60405180910390fd5b6001600160a01b03831660009081526006602052604090819020805460ff19169055517fb71be9befd3ac90c1c9981d3b1161b3c2c6dcd741f13b34061aa251226a802df906109d090859085908590612dc0565b60405180910390a1505050565b6000818060200190518101906109f39190612e7a565b905060005b8151811015610d14576000828281518110610a1557610a15612f2a565b602002602001015190506000610a3860006004846126b09092919063ffffffff16565b610a4190612f40565b90506000610a5f6004808551610a579190612f8d565b8591906126b0565b6040805180820190915260208082527f7472616e736665724552433230496e28616464726573732c75696e74323536299101529050631dac092b60e11b6001600160e01b0319831601610aba57610ab5816115ab565b610d09565b60408051808201909152601b81527f7472616e736665724552433230416c6c496e2861646472657373290000000000602090910152635cf59cb760e11b6001600160e01b0319831601610b1057610ab581611b40565b60408051808201909152601881527f6465706f73697428616464726573732c6164647265737329000000000000000060209091015262d3ec1f60e31b6001600160e01b0319831601610b6557610ab58161200d565b60408051808201909152601981527f776974686472617728616464726573732c6164647265737329000000000000006020909101526306bf1c7b60e01b6001600160e01b0319831601610bbb57610ab581612529565b610be26040518060600160405280602781526020016135dc60279139805160209091012090565b6001600160e01b031916826001600160e01b03191603610c0557610ab5816118a0565b610c2c6040518060600160405280602881526020016135b460289139805160209091012090565b6001600160e01b031916826001600160e01b03191603610c4f57610ab5816118a0565b60408051808201909152601e81527f666c61736853776170416c6c4f75742875696e743235362c627974657329000060209091015263d2b3d16560e01b6001600160e01b0319831601610ca557610ab5816114e4565b60405162461bcd60e51b815260206004820152603360248201527f76616c69646174655f3164656c74614d756c746963616c6c3a20556e6b6e6f776044820152723710333ab731ba34b7b71039b2b632b1ba37b960691b6064820152608401610973565b5050506001016109f8565b505050565b600081806020019051810190610d2f9190612fab565b509050610d59816001600160a01b031660009081526005602052604090205460ff16151560011490565b610dcb5760405162461bcd60e51b815260206004820152603c60248201527f76616c69646174655f7472616e736665723a205265636569766572206164647260448201527f657373206e6f742077686974656c6973746564206279204775617264000000006064820152608401610973565b5050565b6000805b610ddc83612807565b5092509050610dea826120c8565b610e065760405162461bcd60e51b815260040161097390612fd9565b610e0f816120c8565b610e2b5760405162461bcd60e51b815260040161097390612fd9565b610e3483612843565b15610d1457610e428361287d565b9250610dd3565b6008546001600160a01b0385811661010090920416146113c757610e8a846001600160a01b031660009081526003602052604090205460ff16151560011490565b610ed65760405162461bcd60e51b815260206004820181905260248201527f76616c696461746543616c6c3a2053656e646572206e6f7420616c6c6f7765646044820152606401610973565b6000610ee56004828486613021565b610eee9161304b565b9050366000610f008460048188613021565b91509150610f0e8684611905565b610f665760405162461bcd60e51b815260206004820152602360248201527f76616c696461746543616c6c3a2043616c6c2073697465206e6f7420616c6c6f6044820152621dd95960ea1b6064820152608401610973565b610f8d6040518060800160405280604381526020016134d560439139805160209091012090565b6001600160e01b031916836001600160e01b03191603610feb57610fe682828080601f016020809104026020016040519081016040528093929190818152602001838380828437600092019190915250611a3592505050565b6113c3565b61101260405180606001604052806033815260200161358160339139805160209091012090565b6001600160e01b031916836001600160e01b0319160361106b57610fe682828080601f01602080910402602001604051908101604052809392919081815260200183838082843760009201919091525061229992505050565b6040805180820190915260128152716d756c746963616c6c2862797465735b5d2960701b602090910152630a6d35e560e31b6001600160e01b03198416016110ec57610fe682828080601f0160208091040260200160405190810160405280939291908181526020018383808284376000920191909152506109dd92505050565b6040805180820190915260198152787472616e7366657228616464726573732c75696e743235362960381b6020909101526356fa634560e01b6001600160e01b031984160161117457610fe682828080601f016020809104026020016040519081016040528093929190818152602001838380828437600092019190915250610d1992505050565b604080518082019091526018815277617070726f766528616464726573732c75696e743235362960401b60209091015263f6a1584d60e01b6001600160e01b03198416016111fb57610fe682828080601f01602080910402602001604051908101604052809392919081815260200183838082843760009201919091525061150692505050565b61122260405180606001604052806022815260200161355f60229139805160209091012090565b6001600160e01b031916836001600160e01b0319160361127b57610fe682828080601f016020809104026020016040519081016040528093929190818152602001838380828437600092019190915250611c8892505050565b6112a260405180606001604052806026815260200161351860269139805160209091012090565b6001600160e01b031916836001600160e01b031916036112fb57610fe682828080601f01602080910402602001604051908101604052809392919081815260200183838082843760009201919091525061211e92505050565b61132260405180606001604052806021815260200161353e60219139805160209091012090565b6001600160e01b031916836001600160e01b0319160361137b57610fe682828080601f0160208091040260200160405190810160405280939291908181526020018383808284376000920191909152506117f892505050565b60405162461bcd60e51b815260206004820152601960248201527f556e6b6e6f776e2066756e6374696f6e2073656c6563746f72000000000000006044820152606401610973565b5050505b50505050565b6008546001600160a01b036101009091041633146113fd5760405162461bcd60e51b815260040161097390612d62565b6001600160a01b03831660009081526004602052604090819020805460ff19169055517f4e13b11ab98e672bd78295ef9cebe764dc617f95decf47d842c25b83abc0c724906109d090859085908590612dc0565b6114838361147c60405180606001604052806033815260200161358160339139805160209091012090565b84846116b4565b6114ae8361147c60405180606001604052806034815260200161360360349139805160209091012090565b610d14838383611d48565b6114ae8361147c6040518060800160405280604381526020016134d560439139805160209091012090565b6000818060200190518101906114fa919061307b565b915050610dcb81611dcf565b60008180602001905181019061151c9190612fab565b509050611546816001600160a01b031660009081526006602052604090205460ff16151560011490565b610dcb5760405162461bcd60e51b815260206004820152603060248201527f76616c69646174655f617070726f76653a20417070726f76652061646472657360448201526f0e640c8decae640dcdee840dac2e8c6d60831b6064820152608401610973565b6000818060200190518101906115c19190612fab565b5090506115cd816120c8565b610dcb5760405162461bcd60e51b815260206004820152602b60248201527f76616c69646174655f7472616e736665724552433230496e3a20546f6b656e2060448201526a1b9bdd08185b1b1bddd95960aa1b6064820152608401610973565b6008546001600160a01b0361010090910416331461165d5760405162461bcd60e51b815260040161097390612d62565b6001600160a01b03831660009081526005602052604090819020805460ff19166001179055517f3562181221a42a19ddd03a82dfe06acab1905ceb65cdaf7d86a1d9fec6643552906109d090859085908590612dc0565b6008546001600160a01b036101009091041633146116e45760405162461bcd60e51b815260040161097390612d62565b6001600160a01b0384166000908152602081815260408083206001600160e01b0319871684529091528120805460ff19166001908117909155805491611729836130c1565b91905055507fef729aaa41b9fd994f9ff7c1960df214a84f722002e6cfbea31799cd0873a3ef8484848460405161176394939291906130da565b60405180910390a150505050565b6008546001600160a01b036101009091041633146117a15760405162461bcd60e51b815260040161097390612d62565b6001600160a01b03831660009081526007602052604090819020805460ff19166001179055517f628a44970c0e450415e3ae74334ea44f3307b74dbf677a1371190242bf2f3589906109d090859085908590612dc0565b6000808280602001905181019061180f9190613119565b925050915061181d826120c8565b6118395760405162461bcd60e51b81526004016109739061315c565b611842816120fb565b610d145760405162461bcd60e51b815260206004820152602960248201527f52656365697665722061646472657373206e6f742077686974656c697374656460448201526808189e4811dd585c9960ba1b6064820152608401610973565b6000818060200190518101906118b69190613187565b92505050610dcb81611dcf565b6113c784848484610e49565b6118fa8361147c60405180606001604052806022815260200161355f60229139805160209091012090565b610d14838383611b7d565b60085460009060ff161561196357604080518082019091526018815277617070726f766528616464726573732c75696e743235362960401b60209091015263f6a1584d60e01b6001600160e01b031983160161196357506001611994565b506001600160a01b0382166000908152602081815260408083206001600160e01b03198516845290915290205460ff165b92915050565b6119a26128ae565b6119ac60006128de565b565b6008546001600160a01b036101009091041633146119de5760405162461bcd60e51b815260040161097390612d62565b6001600160a01b03831660009081526004602052604090819020805460ff19166001179055517f62dd88c5ecfa60713a657640ebec4de26fc1aefa4afdb24e6d15a124fce72779906109d090859085908590612dc0565b60008082806020019051810190611a4c91906131d6565b50935093505050611a5c816120fb565b611ae35760405162461bcd60e51b815260206004820152604c60248201527f76616c69646174655f737761704578616374546f6b656e73466f72546f6b656e60448201527f733a2052656365697665722061646472657373206e6f742077686974656c697360648201526b1d195908189e4811dd585c9960a21b608482015260a401610973565b6000805b8351811015611b3957838181518110611b0257611b02612f2a565b60200260200101519150611b15826120c8565b611b315760405162461bcd60e51b81526004016109739061315c565b600101611ae7565b5050505050565b600081806020019051810190611b56919061329f565b9050611b61816120c8565b610dcb5760405162461bcd60e51b8152600401610973906132bc565b6008546001600160a01b03610100909104163314611bad5760405162461bcd60e51b815260040161097390612d62565b6001600160a01b03831660009081526002602052604090819020805460ff19166001179055517fad90e2570fc4fe9f7437be3188d5c791c6662892d31731992aa88f5c87621983906109d090859085908590612dc0565b6008546001600160a01b03610100909104163314611c345760405162461bcd60e51b815260040161097390612d62565b6001600160a01b03831660009081526005602052604090819020805460ff19169055517f1212f8ddb39de8e1a339460c95752d61100723efeaa34ccd94bca94393f40938906109d090859085908590612dc0565b600081806020019051810190611c9e9190612fab565b509050611cc8816001600160a01b031660009081526007602052604090205460ff16151560011490565b610dcb5760405162461bcd60e51b815260206004820152604560248201527f76616c69646174655f617070726f766544656c65676174696f6e3a204170707260448201527f6f76652064656c65676174696f6e206164647265737320646f6573206e6f74206064820152640dac2e8c6d60db1b608482015260a401610973565b6008546001600160a01b03610100909104163314611d785760405162461bcd60e51b815260040161097390612d62565b6001600160a01b03831660009081526006602052604090819020805460ff19166001179055517f628a44970c0e450415e3ae74334ea44f3307b74dbf677a1371190242bf2f3589906109d090859085908590612dc0565b6000805b611dde836000612938565b9150611e0d600180611df26003601461330a565b611dfc919061330a565b611e06919061330a565b8490612938565b9050611e18826120c8565b611e345760405162461bcd60e51b81526004016109739061331d565b611e3d816120c8565b611e595760405162461bcd60e51b81526004016109739061331d565b600180611e686003601461330a565b611e72919061330a565b611e7c919061330a565b6014600180611e8c60038461330a565b611e96919061330a565b611ea0919061330a565b611eaa919061330a565b611eb4919061330a565b835110610d1457611f10600180611ecd6003601461330a565b611ed7919061330a565b611ee1919061330a565b600180611ef06003601461330a565b611efa919061330a565b611f04919061330a565b8551610a579190612f8d565b9250611dd3565b6008546001600160a01b03610100909104163314611f475760405162461bcd60e51b815260040161097390612d62565b6001600160a01b03831660009081526003602052604090819020805460ff19169055517f3097928509c53a2dab9500431201d82b0d756e8f890fd01f4ae6b33b45687ea4906109d090859085908590612dc0565b6008546001600160a01b03610100909104163314611fcb5760405162461bcd60e51b815260040161097390612d62565b6008805460ff19168415151790556040517f50454d9d0025a28a39cac5a4b3f3101d29b6e413fbb64f75fb42eb6837b07718906109d090859085908590613362565b60008082806020019051810190612024919061337e565b91509150612031826120c8565b61204d5760405162461bcd60e51b8152600401610973906132bc565b612056816120fb565b610d145760405162461bcd60e51b815260206004820152603b60248201527f76616c69646174655f6465706f7369743a20526563656976657220616464726560448201527f7373206e6f742077686974656c697374656420627920477561726400000000006064820152608401610973565b60085460009060ff16806119945750506001600160a01b031660009081526002602052604090205460ff16151560011490565b6001600160a01b031660009081526004602052604090205460ff16151560011490565b60008180602001905181019061213491906133b8565b5050509050612142816120c8565b610dcb5760405162461bcd60e51b81526004016109739061315c565b6008546001600160a01b0361010090910416331461218e5760405162461bcd60e51b815260040161097390612d62565b6001600160a01b0384166000908152602081815260408083206001600160e01b03198716845290915290819020805460ff19169055517f37ea10f2d08f5a9803dfcd5abf3cfc7b0d6fcdf5fcbc36be9ea5a0b53d9a4d9b906117639086908690869086906130da565b60008180602001905181019061220d9190613498565b905061221c81602001516120fb565b61228e5760405162461bcd60e51b815260206004820152603f60248201527f76616c69646174655f65786163744f75747075743a205265636569766572206160448201527f646472657373206e6f742077686974656c6973746564206279204775617264006064820152608401610973565b8051610dcb90610dcf565b6000818060200190518101906122af9190613498565b90506122be81602001516120fb565b61228e5760405162461bcd60e51b815260206004820152603e60248201527f76616c69646174655f6578616374496e7075743a20526563656976657220616460448201527f6472657373206e6f742077686974656c697374656420627920477561726400006064820152608401610973565b6040805180820190915260198152787472616e7366657228616464726573732c75696e743235362960381b60209091015261238b837fa9059cbb2ab09eb219583f4a59a5d0623ade346d962bcd4e46b11da047c9049b61147c565b604080518082019091526018815277617070726f766528616464726573732c75696e743235362960401b6020909101526118fa837f095ea7b334ae44009aa867bfb386f5c3b4b443ac6f0ee573fa91c4608fbadfba61147c565b6124108361147c60405180606001604052806026815260200161351860269139805160209091012090565b6114ae8361147c60405180606001604052806021815260200161353e60219139805160209091012090565b6040805180820190915260128152716d756c746963616c6c2862797465735b5d2960701b60209091015261248f847fac9650d882acfa253cba1ed543b9ff47351da99c3bd00a89625e5cdb2099009c61147c565b61249a848383611d48565b6124a5838383611d48565b6113c7848383611771565b6124b86128ae565b6001600160a01b03811661251d5760405162461bcd60e51b815260206004820152602660248201527f4f776e61626c653a206e6577206f776e657220697320746865207a65726f206160448201526564647265737360d01b6064820152608401610973565b612526816128de565b50565b60008082806020019051810190612540919061337e565b9150915061254d826120c8565b61204d5760405162461bcd60e51b8152602060048201526024808201527f76616c69646174655f77697468647261773a20546f6b656e206e6f7420616c6c6044820152631bddd95960e21b6064820152608401610973565b6008546001600160a01b036101009091041633146125d55760405162461bcd60e51b815260040161097390612d62565b6001600160a01b03831660009081526002602052604090819020805460ff19169055517f9ca3f065622f5f03f32b7157677a0e420c3a36ab45fd49f256ffebce3e310587906109d090859085908590612dc0565b6008546001600160a01b036101009091041633146126595760405162461bcd60e51b815260040161097390612d62565b6001600160a01b03831660009081526003602052604090819020805460ff19166001179055517fa8f9caaf4861720900294428e4ff34d37070c37afd26d96e6e4da75326d2c3ad906109d090859085908590612dc0565b6060816126be81601f61330a565b10156126fd5760405162461bcd60e51b815260206004820152600e60248201526d736c6963655f6f766572666c6f7760901b6044820152606401610973565b82612708838261330a565b10156127475760405162461bcd60e51b815260206004820152600e60248201526d736c6963655f6f766572666c6f7760901b6044820152606401610973565b612751828461330a565b845110156127955760405162461bcd60e51b8152602060048201526011602482015270736c6963655f6f75744f66426f756e647360781b6044820152606401610973565b6060821580156127b457604051915060008252602082016040526127fe565b6040519150601f8416801560200281840101858101878315602002848b0101015b818310156127ed5780518352602092830192016127d5565b5050858452601f01601f1916604052505b50949350505050565b600080806128158482612938565b92506128228460146129ec565b905061283a6128336003601461330a565b8590612938565b91509193909250565b60006128516003601461330a565b601461285e60038261330a565b612868919061330a565b612872919061330a565b825110159050919050565b606061199461288e6003601461330a565b61289a6003601461330a565b84516128a69190612f8d565b8491906126b0565b6008546001600160a01b036101009091041633146119ac5760405162461bcd60e51b815260040161097390612d62565b600880546001600160a01b03838116610100818102610100600160a81b031985161790945560405193909204169182907f8be0079c531659141344cd1fd0a4f28419497f9722a3daafe3b4186f6b6457e090600090a35050565b60008161294681601461330a565b10156129895760405162461bcd60e51b8152602060048201526012602482015271746f416464726573735f6f766572666c6f7760701b6044820152606401610973565b61299482601461330a565b835110156129dc5760405162461bcd60e51b8152602060048201526015602482015274746f416464726573735f6f75744f66426f756e647360581b6044820152606401610973565b500160200151600160601b900490565b6000816129fa81600361330a565b1015612a3c5760405162461bcd60e51b8152602060048201526011602482015270746f55696e7432345f6f766572666c6f7760781b6044820152606401610973565b612a4782600361330a565b83511015612a8e5760405162461bcd60e51b8152602060048201526014602482015273746f55696e7432345f6f75744f66426f756e647360601b6044820152606401610973565b50016003015190565b6001600160a01b038116811461252657600080fd5b60008083601f840112612abe57600080fd5b5081356001600160401b03811115612ad557600080fd5b602083019150836020828501011115612aed57600080fd5b9250929050565b600080600060408486031215612b0957600080fd5b8335612b1481612a97565b925060208401356001600160401b03811115612b2f57600080fd5b612b3b86828701612aac565b9497909650939450505050565b634e487b7160e01b600052604160045260246000fd5b604051601f8201601f191681016001600160401b0381118282101715612b8657612b86612b48565b604052919050565b60006001600160401b03821115612ba757612ba7612b48565b50601f01601f191660200190565b600060208284031215612bc757600080fd5b81356001600160401b03811115612bdd57600080fd5b8201601f81018413612bee57600080fd5b8035612c01612bfc82612b8e565b612b5e565b818152856020838501011115612c1657600080fd5b81602084016020830137600091810160200191909152949350505050565b600060208284031215612c4657600080fd5b8135612c5181612a97565b9392505050565b60008060008060608587031215612c6e57600080fd5b8435612c7981612a97565b93506020850135612c8981612a97565b925060408501356001600160401b03811115612ca457600080fd5b612cb087828801612aac565b95989497509550505050565b80356001600160e01b031981168114612cd457600080fd5b919050565b60008060008060608587031215612cef57600080fd5b8435612cfa81612a97565b9350612c8960208601612cbc565b60008060408385031215612d1b57600080fd5b8235612d2681612a97565b9150612d3460208401612cbc565b90509250929050565b600080600060408486031215612d5257600080fd5b83358015158114612b1457600080fd5b6020808252818101527f4f776e61626c653a2063616c6c6572206973206e6f7420746865206f776e6572604082015260600190565b81835281816020850137506000828201602090810191909152601f909101601f19169091010190565b6001600160a01b0384168152604060208201819052600090612de59083018486612d97565b95945050505050565b60006001600160401b03821115612e0757612e07612b48565b5060051b60200190565b600082601f830112612e2257600080fd5b8151612e30612bfc82612b8e565b8181526020856020848701011115612e4757600080fd5b60005b83811015612e65578581018201518382018301528101612e4a565b50506000918101602001919091529392505050565b60006020808385031215612e8d57600080fd5b82516001600160401b0380821115612ea457600080fd5b818501915085601f830112612eb857600080fd5b8151612ec6612bfc82612dee565b81815260059190911b83018401908481019088831115612ee557600080fd5b8585015b83811015612f1d57805185811115612f015760008081fd5b612f0f8b89838a0101612e11565b845250918601918601612ee9565b5098975050505050505050565b634e487b7160e01b600052603260045260246000fd5b805160208201516001600160e01b03198082169291906004831015612f6f5780818460040360031b1b83161693505b505050919050565b634e487b7160e01b600052601160045260246000fd5b8181038181111561199457611994612f77565b8051612cd481612a97565b60008060408385031215612fbe57600080fd5b8251612fc981612a97565b6020939093015192949293505050565b60208082526028908201527f76616c6964617465556e69737761705633506174683a20546f6b656e206e6f7460408201526708185b1b1bddd95960c21b606082015260800190565b6000808585111561303157600080fd5b8386111561303e57600080fd5b5050820193919092039150565b6001600160e01b031981358181169160048510156130735780818660040360031b1b83161692505b505092915050565b6000806040838503121561308e57600080fd5b8251915060208301516001600160401b038111156130ab57600080fd5b6130b785828601612e11565b9150509250929050565b6000600182016130d3576130d3612f77565b5060010190565b6001600160a01b03851681526001600160e01b03198416602082015260606040820181905260009061310f9083018486612d97565b9695505050505050565b60008060006060848603121561312e57600080fd5b835161313981612a97565b60208501516040860151919450925061315181612a97565b809150509250925092565b602080825260119082015270151bdad95b881b9bdd08185b1b1bddd959607a1b604082015260600190565b60008060006060848603121561319c57600080fd5b835192506020840151915060408401516001600160401b038111156131c057600080fd5b6131cc86828701612e11565b9150509250925092565b600080600080600060a086880312156131ee57600080fd5b85519450602080870151945060408701516001600160401b0381111561321357600080fd5b8701601f8101891361322457600080fd5b8051613232612bfc82612dee565b81815260059190911b8201830190838101908b83111561325157600080fd5b928401925b8284101561327857835161326981612a97565b82529284019290840190613256565b809750505050505061328c60608701612fa0565b9150608086015190509295509295909350565b6000602082840312156132b157600080fd5b8151612c5181612a97565b6020808252602e908201527f76616c69646174655f7472616e736665724552433230416c6c496e3a20546f6b60408201526d195b881b9bdd08185b1b1bddd95960921b606082015260800190565b8082018082111561199457611994612f77565b60208082526025908201527f76616c69646174653164656c7461506174683a20546f6b656e206e6f7420616c6040820152641b1bddd95960da1b606082015260800190565b8315158152604060208201526000612de5604083018486612d97565b6000806040838503121561339157600080fd5b825161339c81612a97565b60208401519092506133ad81612a97565b809150509250929050565b600080600080608085870312156133ce57600080fd5b84516133d981612a97565b6020860151604087015191955093506133f181612a97565b6060959095015193969295505050565b600060a0828403121561341357600080fd5b60405160a081016001600160401b03828210818311171561343657613436612b48565b81604052829350845191508082111561344e57600080fd5b5061345b85828601612e11565b825250602083015161346c81612a97565b806020830152506040830151604082015260608301516060820152608083015160808201525092915050565b6000602082840312156134aa57600080fd5b81516001600160401b038111156134c057600080fd5b6134cc84828501613401565b94935050505056fe737761704578616374546f6b656e73466f72546f6b656e732875696e743235362c75696e743235362c616464726573735b5d2c616464726573732c75696e7432353629737570706c7928616464726573732c75696e743235362c616464726573732c75696e74313629776974686472617728616464726573732c75696e743235362c6164647265737329617070726f766544656c65676174696f6e28616464726573732c75696e74323536296578616374496e707574282862797465732c616464726573732c75696e743235362c75696e743235362c75696e743235362929666c6173685377617045786163744f75742875696e743235362c75696e743235362c627974657329666c617368537761704578616374496e2875696e743235362c75696e743235362c62797465732965786163744f7574707574282862797465732c616464726573732c75696e743235362c75696e743235362c75696e743235362929a26469706673582212203662b17178f09b3227d88196bf0d8f1241bf880e674ea18dcce8bf0f36a4fca164736f6c63430008170033","linkReferences":{}},"methodIdentifiers":{"_validateCallInternal(address,address,bytes)":"2674111e","allowApprovalDestination(address,string)":"98b3cc39","allowAsset(address,string)":"86b6dbe5","allowCallSite(address,bytes4,string)":"5e4ccace","allowDelegationApprovalDestination(address,string)":"63cc17f2","allowReceiver(address,string)":"72e548a9","allowSender(address,string)":"fa2c59c8","allowWithdrawDestination(address,string)":"5ace1d92","allowedApprovalDestinations(address)":"eb0de042","allowedAssets(address)":"a4c1cccb","allowedCallSites(address,bytes4)":"a847cf4d","allowedDelegationApprovalDestinations(address)":"4b941268","allowedReceivers(address)":"3cf20025","allowedSenders(address)":"fadbcf48","allowedWithdrawDestinations(address)":"07ef00cf","anyAsset()":"87301608","callSiteCount()":"a9fc3d4f","getGovernanceAddress()":"73252494","getInternalVersion()":"fdedfa27","isAllowedApprovalDestination(address)":"1d49039c","isAllowedAsset(address)":"c537bed0","isAllowedCallSite(address,bytes4)":"713ebf3b","isAllowedDelegationApprovalDestination(address)":"2dc32a61","isAllowedReceiver(address)":"d075f9bb","isAllowedSender(address)":"be8c97b0","isAllowedWithdrawDestination(address)":"efb47bff","owner()":"8da5cb5b","removeApprovalDestination(address,string)":"04a3ba25","removeAsset(address,string)":"f901dc33","removeCallSite(address,bytes4,string)":"d7334c9d","removeDelegationApprovalDestination(address,string)":"f259a073","removeReceiver(address,string)":"2d12d788","removeSender(address,string)":"a67e1f54","removeWithdrawDestination(address,string)":"8c2fdf9e","renounceOwnership()":"715018a6","setAnyAssetAllowed(bool,string)":"c2e657ae","transferOwnership(address)":"f2fde38b","validate1deltaPath(bytes)":"a1b6b430","validateCall(address,address,bytes)":"6d5025f1","validateUniswapV3Path(bytes)":"1c123e77","validate_1deltaDeposit(bytes)":"c4cc9dba","validate_1deltaMulticall(bytes)":"07ac3562","validate_1deltaWithdraw(bytes)":"f76081e4","validate_aaveSupply(bytes)":"d4c0fe45","validate_aaveWithdraw(bytes)":"6a6d5cc8","validate_approve(bytes)":"4b956bd8","validate_approveDelegation(bytes)":"957dc6c0","validate_exactInput(bytes)":"ebe26816","validate_exactOutput(bytes)":"e98539c5","validate_flashSwapAllOut(bytes)":"425f49d0","validate_flashSwapExactInt(bytes)":"ca963c50","validate_flashSwapExactOut(bytes)":"6ad11353","validate_swapExactTokensForTokens(bytes)":"761bcd9c","validate_transfer(bytes)":"1710a4f2","validate_transferERC20AllIn(bytes)":"7ea44655","validate_transferERC20In(bytes)":"59b92be9","whitelistAaveV3(address,string)":"f20e85e0","whitelistOnedelta(address,address,string)":"f26749f3","whitelistToken(address,string)":"ee5462cc","whitelistTokenForDelegation(address,string)":"6d9a1423","whitelistUniswapV2Router(address,string)":"3ea35551","whitelistUniswapV3Router(address,string)":"34ec8d7e"},"id":3}