{"abi":[{"type":"constructor","inputs":[],"stateMutability":"nonpayable"},{"type":"function","name":"allowApprovalDestination","inputs":[{"name":"destination","type":"address","internalType":"address"},{"name":"notes","type":"string","internalType":"string"}],"outputs":[],"stateMutability":"nonpayable"},{"type":"function","name":"allowAsset","inputs":[{"name":"asset","type":"address","internalType":"address"},{"name":"notes","type":"string","internalType":"string"}],"outputs":[],"stateMutability":"nonpayable"},{"type":"function","name":"allowCallSite","inputs":[{"name":"target","type":"address","internalType":"address"},{"name":"selector","type":"bytes4","internalType":"bytes4"},{"name":"notes","type":"string","internalType":"string"}],"outputs":[],"stateMutability":"nonpayable"},{"type":"function","name":"allowReceiver","inputs":[{"name":"receiver","type":"address","internalType":"address"},{"name":"notes","type":"string","internalType":"string"}],"outputs":[],"stateMutability":"nonpayable"},{"type":"function","name":"allowSender","inputs":[{"name":"sender","type":"address","internalType":"address"},{"name":"notes","type":"string","internalType":"string"}],"outputs":[],"stateMutability":"nonpayable"},{"type":"function","name":"allowWithdrawDestination","inputs":[{"name":"destination","type":"address","internalType":"address"},{"name":"notes","type":"string","internalType":"string"}],"outputs":[],"stateMutability":"nonpayable"},{"type":"function","name":"allowedApprovalDestinations","inputs":[{"name":"destination","type":"address","internalType":"address"}],"outputs":[{"name":"allowed","type":"bool","internalType":"bool"}],"stateMutability":"view"},{"type":"function","name":"allowedAssets","inputs":[{"name":"token","type":"address","internalType":"address"}],"outputs":[{"name":"allowed","type":"bool","internalType":"bool"}],"stateMutability":"view"},{"type":"function","name":"allowedCallSites","inputs":[{"name":"target","type":"address","internalType":"address"},{"name":"selector","type":"bytes4","internalType":"bytes4"}],"outputs":[{"name":"allowed","type":"bool","internalType":"bool"}],"stateMutability":"view"},{"type":"function","name":"allowedReceivers","inputs":[{"name":"receiver","type":"address","internalType":"address"}],"outputs":[{"name":"allowed","type":"bool","internalType":"bool"}],"stateMutability":"view"},{"type":"function","name":"allowedSenders","inputs":[{"name":"sender","type":"address","internalType":"address"}],"outputs":[{"name":"allowed","type":"bool","internalType":"bool"}],"stateMutability":"view"},{"type":"function","name":"allowedWithdrawDestinations","inputs":[{"name":"destination","type":"address","internalType":"address"}],"outputs":[{"name":"allowed","type":"bool","internalType":"bool"}],"stateMutability":"view"},{"type":"function","name":"callSiteCount","inputs":[],"outputs":[{"name":"","type":"uint256","internalType":"uint256"}],"stateMutability":"view"},{"type":"function","name":"getGovernanceAddress","inputs":[],"outputs":[{"name":"","type":"address","internalType":"address"}],"stateMutability":"view"},{"type":"function","name":"getInternalVersion","inputs":[],"outputs":[{"name":"","type":"uint8","internalType":"uint8"}],"stateMutability":"pure"},{"type":"function","name":"isAllowedApprovalDestination","inputs":[{"name":"receiver","type":"address","internalType":"address"}],"outputs":[{"name":"","type":"bool","internalType":"bool"}],"stateMutability":"view"},{"type":"function","name":"isAllowedAsset","inputs":[{"name":"token","type":"address","internalType":"address"}],"outputs":[{"name":"","type":"bool","internalType":"bool"}],"stateMutability":"view"},{"type":"function","name":"isAllowedCallSite","inputs":[{"name":"target","type":"address","internalType":"address"},{"name":"selector","type":"bytes4","internalType":"bytes4"}],"outputs":[{"name":"","type":"bool","internalType":"bool"}],"stateMutability":"view"},{"type":"function","name":"isAllowedReceiver","inputs":[{"name":"receiver","type":"address","internalType":"address"}],"outputs":[{"name":"","type":"bool","internalType":"bool"}],"stateMutability":"view"},{"type":"function","name":"isAllowedSender","inputs":[{"name":"sender","type":"address","internalType":"address"}],"outputs":[{"name":"","type":"bool","internalType":"bool"}],"stateMutability":"view"},{"type":"function","name":"isAllowedWithdrawDestination","inputs":[{"name":"receiver","type":"address","internalType":"address"}],"outputs":[{"name":"","type":"bool","internalType":"bool"}],"stateMutability":"view"},{"type":"function","name":"owner","inputs":[],"outputs":[{"name":"","type":"address","internalType":"address"}],"stateMutability":"view"},{"type":"function","name":"removeApprovalDestination","inputs":[{"name":"destination","type":"address","internalType":"address"},{"name":"notes","type":"string","internalType":"string"}],"outputs":[],"stateMutability":"nonpayable"},{"type":"function","name":"removeAsset","inputs":[{"name":"asset","type":"address","internalType":"address"},{"name":"notes","type":"string","internalType":"string"}],"outputs":[],"stateMutability":"nonpayable"},{"type":"function","name":"removeCallSite","inputs":[{"name":"target","type":"address","internalType":"address"},{"name":"selector","type":"bytes4","internalType":"bytes4"},{"name":"notes","type":"string","internalType":"string"}],"outputs":[],"stateMutability":"nonpayable"},{"type":"function","name":"removeReceiver","inputs":[{"name":"receiver","type":"address","internalType":"address"},{"name":"notes","type":"string","internalType":"string"}],"outputs":[],"stateMutability":"nonpayable"},{"type":"function","name":"removeSender","inputs":[{"name":"sender","type":"address","internalType":"address"},{"name":"notes","type":"string","internalType":"string"}],"outputs":[],"stateMutability":"nonpayable"},{"type":"function","name":"removeWithdrawDestination","inputs":[{"name":"destination","type":"address","internalType":"address"},{"name":"notes","type":"string","internalType":"string"}],"outputs":[],"stateMutability":"nonpayable"},{"type":"function","name":"renounceOwnership","inputs":[],"outputs":[],"stateMutability":"nonpayable"},{"type":"function","name":"transferOwnership","inputs":[{"name":"newOwner","type":"address","internalType":"address"}],"outputs":[],"stateMutability":"nonpayable"},{"type":"function","name":"validateCall","inputs":[{"name":"sender","type":"address","internalType":"address"},{"name":"target","type":"address","internalType":"address"},{"name":"callDataWithSelector","type":"bytes","internalType":"bytes"}],"outputs":[],"stateMutability":"view"},{"type":"function","name":"validate_approve","inputs":[{"name":"callData","type":"bytes","internalType":"bytes"}],"outputs":[],"stateMutability":"view"},{"type":"function","name":"validate_exactInput","inputs":[{"name":"callData","type":"bytes","internalType":"bytes"}],"outputs":[],"stateMutability":"view"},{"type":"function","name":"validate_exactOutput","inputs":[{"name":"callData","type":"bytes","internalType":"bytes"}],"outputs":[],"stateMutability":"view"},{"type":"function","name":"validate_swapExactTokensForTokens","inputs":[{"name":"callData","type":"bytes","internalType":"bytes"}],"outputs":[],"stateMutability":"view"},{"type":"function","name":"validate_transfer","inputs":[{"name":"callData","type":"bytes","internalType":"bytes"}],"outputs":[],"stateMutability":"view"},{"type":"function","name":"whitelistToken","inputs":[{"name":"token","type":"address","internalType":"address"},{"name":"notes","type":"string","internalType":"string"}],"outputs":[],"stateMutability":"nonpayable"},{"type":"function","name":"whitelistUniswapV2Router","inputs":[{"name":"router","type":"address","internalType":"address"},{"name":"notes","type":"string","internalType":"string"}],"outputs":[],"stateMutability":"nonpayable"},{"type":"function","name":"whitelistUniswapV3Router","inputs":[{"name":"router","type":"address","internalType":"address"},{"name":"notes","type":"string","internalType":"string"}],"outputs":[],"stateMutability":"nonpayable"},{"type":"event","name":"ApprovalDestinationApproved","inputs":[{"name":"sender","type":"address","indexed":false,"internalType":"address"},{"name":"notes","type":"string","indexed":false,"internalType":"string"}],"anonymous":false},{"type":"event","name":"ApprovalDestinationRemoved","inputs":[{"name":"sender","type":"address","indexed":false,"internalType":"address"},{"name":"notes","type":"string","indexed":false,"internalType":"string"}],"anonymous":false},{"type":"event","name":"AssetApproved","inputs":[{"name":"sender","type":"address","indexed":false,"internalType":"address"},{"name":"notes","type":"string","indexed":false,"internalType":"string"}],"anonymous":false},{"type":"event","name":"AssetRemoved","inputs":[{"name":"sender","type":"address","indexed":false,"internalType":"address"},{"name":"notes","type":"string","indexed":false,"internalType":"string"}],"anonymous":false},{"type":"event","name":"CallSiteApproved","inputs":[{"name":"target","type":"address","indexed":false,"internalType":"address"},{"name":"selector","type":"bytes4","indexed":false,"internalType":"bytes4"},{"name":"notes","type":"string","indexed":false,"internalType":"string"}],"anonymous":false},{"type":"event","name":"CallSiteRemoved","inputs":[{"name":"target","type":"address","indexed":false,"internalType":"address"},{"name":"selector","type":"bytes4","indexed":false,"internalType":"bytes4"},{"name":"notes","type":"string","indexed":false,"internalType":"string"}],"anonymous":false},{"type":"event","name":"OwnershipTransferred","inputs":[{"name":"previousOwner","type":"address","indexed":true,"internalType":"address"},{"name":"newOwner","type":"address","indexed":true,"internalType":"address"}],"anonymous":false},{"type":"event","name":"ReceiverApproved","inputs":[{"name":"sender","type":"address","indexed":false,"internalType":"address"},{"name":"notes","type":"string","indexed":false,"internalType":"string"}],"anonymous":false},{"type":"event","name":"ReceiverRemoved","inputs":[{"name":"sender","type":"address","indexed":false,"internalType":"address"},{"name":"notes","type":"string","indexed":false,"internalType":"string"}],"anonymous":false},{"type":"event","name":"SenderApproved","inputs":[{"name":"sender","type":"address","indexed":false,"internalType":"address"},{"name":"notes","type":"string","indexed":false,"internalType":"string"}],"anonymous":false},{"type":"event","name":"SenderRemoved","inputs":[{"name":"sender","type":"address","indexed":false,"internalType":"address"},{"name":"notes","type":"string","indexed":false,"internalType":"string"}],"anonymous":false},{"type":"event","name":"WithdrawDestinationApproved","inputs":[{"name":"sender","type":"address","indexed":false,"internalType":"address"},{"name":"notes","type":"string","indexed":false,"internalType":"string"}],"anonymous":false},{"type":"event","name":"WithdrawDestinationRemoved","inputs":[{"name":"sender","type":"address","indexed":false,"internalType":"address"},{"name":"notes","type":"string","indexed":false,"internalType":"string"}],"anonymous":false}],"bytecode":{"object":"0x608060405234801561001057600080fd5b5061001a3361001f565b61006f565b600080546001600160a01b038381166001600160a01b0319831681178455604051919092169283917f8be0079c531659141344cd1fd0a4f28419497f9722a3daafe3b4186f6b6457e09190a35050565b611d698061007e6000396000f3fe608060405234801561001057600080fd5b506004361061023d5760003560e01c80638da5cb5b1161013b578063e98539c5116100b8578063f2fde38b1161007c578063f2fde38b146105a8578063f901dc33146105bb578063fa2c59c8146105ce578063fadbcf48146105e1578063fdedfa271461060457600080fd5b8063e98539c51461052e578063eb0de04214610541578063ebe268161461052e578063ee5462cc14610564578063efb47bff1461057757600080fd5b8063a9fc3d4f116100ff578063a9fc3d4f1461048f578063be8c97b0146104a6578063c537bed0146104d7578063d075f9bb146104ea578063d7334c9d1461051b57600080fd5b80638da5cb5b1461040757806398b3cc3914610418578063a4c1cccb1461042b578063a67e1f541461044e578063a847cf4d1461046157600080fd5b80635ace1d92116101c957806372e548a91161018d57806372e548a91461039657806373252494146103a9578063761bcd9c146103ce57806386b6dbe5146103e15780638c2fdf9e146103f457600080fd5b80635ace1d92146103425780635e4ccace146103555780636d5025f114610368578063713ebf3b1461037b578063715018a61461038e57600080fd5b80632d12d788116102105780632d12d788146102d357806334ec8d7e146102e65780633cf20025146102f95780633ea355511461031c5780634b956bd81461032f57600080fd5b806304a3ba251461024257806307ef00cf146102575780631710a4f21461028f5780631d49039c146102a2575b600080fd5b61025561025036600461165f565b610613565b005b61027a6102653660046116b4565b60066020526000908152604090205460ff1681565b60405190151581526020015b60405180910390f35b61025561029d366004611770565b61067c565b61027a6102b03660046116b4565b6001600160a01b031660009081526007602052604090205460ff16151560011490565b6102556102e136600461165f565b6106e5565b6102556102f436600461165f565b610741565b61027a6103073660046116b4565b60056020526000908152604090205460ff1681565b61025561032a36600461165f565b6107ae565b61025561033d366004611770565b6107d9565b61025561035036600461165f565b610865565b61025561036336600461180d565b6108c4565b610255610376366004611870565b61095a565b61027a6103893660046118a1565b610cb9565b610255610cf1565b6102556103a436600461165f565b610d05565b6000546001600160a01b03165b6040516001600160a01b039091168152602001610286565b6102556103dc366004611770565b610d64565b6102556103ef36600461165f565b610eaf565b61025561040236600461165f565b610f0e565b6000546001600160a01b03166103b6565b61025561042636600461165f565b610f6a565b61027a6104393660046116b4565b60036020526000908152604090205460ff1681565b61025561045c36600461165f565b610fc9565b61027a61046f3660046118a1565b600160209081526000928352604080842090915290825290205460ff1681565b61049860025481565b604051908152602001610286565b61027a6104b43660046116b4565b6001600160a01b031660009081526004602052604090205460ff16151560011490565b61027a6104e53660046116b4565b611025565b61027a6104f83660046116b4565b6001600160a01b031660009081526005602052604090205460ff16151560011490565b61025561052936600461180d565b611048565b61025561053c366004611770565b6110bb565b61027a61054f3660046116b4565b60076020526000908152604090205460ff1681565b61025561057236600461165f565b6111c8565b61027a6105853660046116b4565b6001600160a01b031660009081526006602052604090205460ff16151560011490565b6102556105b63660046116b4565b611288565b6102556105c936600461165f565b611301565b6102556105dc36600461165f565b61135d565b61027a6105ef3660046116b4565b60046020526000908152604090205460ff1681565b60405160018152602001610286565b61061b6113bc565b6001600160a01b03831660009081526007602052604090819020805460ff19169055517fb71be9befd3ac90c1c9981d3b1161b3c2c6dcd741f13b34061aa251226a802df9061066f908590859085906118ff565b60405180910390a1505050565b6000818060200190518101906106929190611938565b5090506106bc816001600160a01b031660009081526006602052604090205460ff16151560011490565b6106e15760405162461bcd60e51b81526004016106d890611966565b60405180910390fd5b5050565b6106ed6113bc565b6001600160a01b03831660009081526005602052604090819020805460ff19169055517f4e13b11ab98e672bd78295ef9cebe764dc617f95decf47d842c25b83abc0c7249061066f908590859085906118ff565b6107738361076c604051806060016040528060338152602001611ccd60339139805160209091012090565b84846108c4565b61079e8361076c604051806060016040528060348152602001611d0060349139805160209091012090565b6107a9838383610f6a565b505050565b61079e8361076c604051806080016040528060438152602001611c8a60439139805160209091012090565b6000818060200190518101906107ef9190611938565b509050610819816001600160a01b031660009081526007602052604090205460ff16151560011490565b6106e15760405162461bcd60e51b815260206004820152601e60248201527f417070726f7665206164647265737320646f6573206e6f74206d61746368000060448201526064016106d8565b61086d6113bc565b6001600160a01b03831660009081526006602052604090819020805460ff19166001179055517f3562181221a42a19ddd03a82dfe06acab1905ceb65cdaf7d86a1d9fec66435529061066f908590859085906118ff565b6108cc6113bc565b6001600160a01b03841660009081526001602081815260408084206001600160e01b0319881685529091528220805460ff191690911790556002805491610912836119b3565b91905055507fef729aaa41b9fd994f9ff7c1960df214a84f722002e6cfbea31799cd0873a3ef8484848460405161094c94939291906119cc565b60405180910390a150505050565b6000546001600160a01b03858116911614610cb357610996846001600160a01b031660009081526004602052604090205460ff16151560011490565b6109d75760405162461bcd60e51b815260206004820152601260248201527114d95b99195c881b9bdd08185b1b1bddd95960721b60448201526064016106d8565b60006109e66004828486611a0b565b6109ef91611a35565b9050366000610a018460048188611a0b565b91509150610a0f8684610cb9565b610a535760405162461bcd60e51b815260206004820152601560248201527410d85b1b081cda5d19481b9bdd08185b1b1bddd959605a1b60448201526064016106d8565b610a7a604051806080016040528060438152602001611c8a60439139805160209091012090565b6001600160e01b031916836001600160e01b03191603610ad857610ad382828080601f016020809104026020016040519081016040528093929190818152602001838380828437600092019190915250610d6492505050565b610caf565b610aff604051806060016040528060338152602001611ccd60339139805160209091012090565b6001600160e01b031916836001600160e01b03191603610b5857610ad382828080601f0160208091040260200160405190810160405280939291908181526020018383808284376000920191909152506110bb92505050565b6040805180820190915260198152787472616e7366657228616464726573732c75696e743235362960381b6020909101526356fa634560e01b6001600160e01b0319841601610be057610ad382828080601f01602080910402602001604051908101604052809392919081815260200183838082843760009201919091525061067c92505050565b604080518082019091526018815277617070726f766528616464726573732c75696e743235362960401b60209091015263f6a1584d60e01b6001600160e01b0319841601610c6757610ad382828080601f0160208091040260200160405190810160405280939291908181526020018383808284376000920191909152506107d992505050565b60405162461bcd60e51b815260206004820152601960248201527f556e6b6e6f776e2066756e6374696f6e2073656c6563746f720000000000000060448201526064016106d8565b5050505b50505050565b6001600160a01b03821660009081526001602090815260408083206001600160e01b03198516845290915290205460ff165b92915050565b610cf96113bc565b610d036000611416565b565b610d0d6113bc565b6001600160a01b03831660009081526005602052604090819020805460ff19166001179055517f62dd88c5ecfa60713a657640ebec4de26fc1aefa4afdb24e6d15a124fce727799061066f908590859085906118ff565b60008082806020019051810190610d7b9190611a65565b50935093505050600082600081518110610d9757610d97611b47565b6020026020010151905060008360018551610db29190611b5d565b81518110610dc257610dc2611b47565b60200260200101519050610df3836001600160a01b031660009081526005602052604090205460ff16151560011490565b610e0f5760405162461bcd60e51b81526004016106d890611966565b610e1882611025565b610e5b5760405162461bcd60e51b8152602060048201526014602482015273151bdad95b881a5b881b9bdd08185b1b1bddd95960621b60448201526064016106d8565b610e6481611025565b610ea85760405162461bcd60e51b8152602060048201526015602482015274151bdad95b881bdd5d081b9bdd08185b1b1bddd959605a1b60448201526064016106d8565b5050505050565b610eb76113bc565b6001600160a01b03831660009081526003602052604090819020805460ff19166001179055517fad90e2570fc4fe9f7437be3188d5c791c6662892d31731992aa88f5c876219839061066f908590859085906118ff565b610f166113bc565b6001600160a01b03831660009081526006602052604090819020805460ff19169055517f1212f8ddb39de8e1a339460c95752d61100723efeaa34ccd94bca94393f409389061066f908590859085906118ff565b610f726113bc565b6001600160a01b03831660009081526007602052604090819020805460ff19166001179055517f628a44970c0e450415e3ae74334ea44f3307b74dbf677a1371190242bf2f35899061066f908590859085906118ff565b610fd16113bc565b6001600160a01b03831660009081526004602052604090819020805460ff19169055517f3097928509c53a2dab9500431201d82b0d756e8f890fd01f4ae6b33b45687ea49061066f908590859085906118ff565b6001600160a01b031660009081526003602052604090205460ff16151560011490565b6110506113bc565b6001600160a01b03841660009081526001602090815260408083206001600160e01b03198716845290915290819020805460ff19169055517f37ea10f2d08f5a9803dfcd5abf3cfc7b0d6fcdf5fcbc36be9ea5a0b53d9a4d9b9061094c9086908690869086906119cc565b6000818060200190518101906110d19190611c39565b90506000806110e38360000151611466565b509150915061111383602001516001600160a01b031660009081526005602052604090205460ff16151560011490565b61112f5760405162461bcd60e51b81526004016106d890611966565b61113881611025565b61117b5760405162461bcd60e51b8152602060048201526014602482015273151bdad95b881a5b881b9bdd08185b1b1bddd95960621b60448201526064016106d8565b61118482611025565b610cb35760405162461bcd60e51b8152602060048201526015602482015274151bdad95b881bdd5d081b9bdd08185b1b1bddd959605a1b60448201526064016106d8565b6040805180820190915260198152787472616e7366657228616464726573732c75696e743235362960381b602090910152611223837fa9059cbb2ab09eb219583f4a59a5d0623ade346d962bcd4e46b11da047c9049b61076c565b604080518082019091526018815277617070726f766528616464726573732c75696e743235362960401b60209091015261127d837f095ea7b334ae44009aa867bfb386f5c3b4b443ac6f0ee573fa91c4608fbadfba61076c565b6107a9838383610eaf565b6112906113bc565b6001600160a01b0381166112f55760405162461bcd60e51b815260206004820152602660248201527f4f776e61626c653a206e6577206f776e657220697320746865207a65726f206160448201526564647265737360d01b60648201526084016106d8565b6112fe81611416565b50565b6113096113bc565b6001600160a01b03831660009081526003602052604090819020805460ff19169055517f9ca3f065622f5f03f32b7157677a0e420c3a36ab45fd49f256ffebce3e3105879061066f908590859085906118ff565b6113656113bc565b6001600160a01b03831660009081526004602052604090819020805460ff19166001179055517fa8f9caaf4861720900294428e4ff34d37070c37afd26d96e6e4da75326d2c3ad9061066f908590859085906118ff565b6000546001600160a01b03163314610d035760405162461bcd60e51b815260206004820181905260248201527f4f776e61626c653a2063616c6c6572206973206e6f7420746865206f776e657260448201526064016106d8565b600080546001600160a01b038381166001600160a01b0319831681178455604051919092169283917f8be0079c531659141344cd1fd0a4f28419497f9722a3daafe3b4186f6b6457e09190a35050565b6000808061147484826114a2565b9250611481846014611556565b905061149961149260036014611c76565b85906114a2565b91509193909250565b6000816114b0816014611c76565b10156114f35760405162461bcd60e51b8152602060048201526012602482015271746f416464726573735f6f766572666c6f7760701b60448201526064016106d8565b6114fe826014611c76565b835110156115465760405162461bcd60e51b8152602060048201526015602482015274746f416464726573735f6f75744f66426f756e647360581b60448201526064016106d8565b500160200151600160601b900490565b600081611564816003611c76565b10156115a65760405162461bcd60e51b8152602060048201526011602482015270746f55696e7432345f6f766572666c6f7760781b60448201526064016106d8565b6115b1826003611c76565b835110156115f85760405162461bcd60e51b8152602060048201526014602482015273746f55696e7432345f6f75744f66426f756e647360601b60448201526064016106d8565b50016003015190565b6001600160a01b03811681146112fe57600080fd5b60008083601f84011261162857600080fd5b50813567ffffffffffffffff81111561164057600080fd5b60208301915083602082850101111561165857600080fd5b9250929050565b60008060006040848603121561167457600080fd5b833561167f81611601565b9250602084013567ffffffffffffffff81111561169b57600080fd5b6116a786828701611616565b9497909650939450505050565b6000602082840312156116c657600080fd5b81356116d181611601565b9392505050565b634e487b7160e01b600052604160045260246000fd5b60405160a0810167ffffffffffffffff81118282101715611711576117116116d8565b60405290565b604051601f8201601f1916810167ffffffffffffffff81118282101715611740576117406116d8565b604052919050565b600067ffffffffffffffff821115611762576117626116d8565b50601f01601f191660200190565b60006020828403121561178257600080fd5b813567ffffffffffffffff81111561179957600080fd5b8201601f810184136117aa57600080fd5b80356117bd6117b882611748565b611717565b8181528560208385010111156117d257600080fd5b81602084016020830137600091810160200191909152949350505050565b80356001600160e01b03198116811461180857600080fd5b919050565b6000806000806060858703121561182357600080fd5b843561182e81611601565b935061183c602086016117f0565b9250604085013567ffffffffffffffff81111561185857600080fd5b61186487828801611616565b95989497509550505050565b6000806000806060858703121561188657600080fd5b843561189181611601565b9350602085013561183c81611601565b600080604083850312156118b457600080fd5b82356118bf81611601565b91506118cd602084016117f0565b90509250929050565b81835281816020850137506000828201602090810191909152601f909101601f19169091010190565b6001600160a01b038416815260406020820181905260009061192490830184866118d6565b95945050505050565b805161180881611601565b6000806040838503121561194b57600080fd5b825161195681611601565b6020939093015192949293505050565b6020808252601f908201527f5265636569766572206164647265737320646f6573206e6f74206d6174636800604082015260600190565b634e487b7160e01b600052601160045260246000fd5b6000600182016119c5576119c561199d565b5060010190565b6001600160a01b03851681526001600160e01b031984166020820152606060408201819052600090611a0190830184866118d6565b9695505050505050565b60008085851115611a1b57600080fd5b83861115611a2857600080fd5b5050820193919092039150565b6001600160e01b03198135818116916004851015611a5d5780818660040360031b1b83161692505b505092915050565b600080600080600060a08688031215611a7d57600080fd5b855194506020808701519450604087015167ffffffffffffffff80821115611aa457600080fd5b818901915089601f830112611ab857600080fd5b815181811115611aca57611aca6116d8565b8060051b9150611adb848301611717565b818152918301840191848101908c841115611af557600080fd5b938501935b83851015611b1f5784519250611b0f83611601565b8282529385019390850190611afa565b809850505050505050611b346060870161192d565b9150608086015190509295509295909350565b634e487b7160e01b600052603260045260246000fd5b81810381811115610ceb57610ceb61199d565b600060a08284031215611b8257600080fd5b611b8a6116ee565b9050815167ffffffffffffffff811115611ba357600080fd5b8201601f81018413611bb457600080fd5b8051611bc26117b882611748565b81815260208681848601011115611bd857600080fd5b60005b83811015611bf6578481018201518382018301528101611bdb565b506000818484010152818552611c0d81870161192d565b818601525050505060408201516040820152606082015160608201526080820151608082015292915050565b600060208284031215611c4b57600080fd5b815167ffffffffffffffff811115611c6257600080fd5b611c6e84828501611b70565b949350505050565b80820180821115610ceb57610ceb61199d56fe737761704578616374546f6b656e73466f72546f6b656e732875696e743235362c75696e743235362c616464726573735b5d2c616464726573732c75696e74323536296578616374496e707574282862797465732c616464726573732c75696e743235362c75696e743235362c75696e74323536292965786163744f7574707574282862797465732c616464726573732c75696e743235362c75696e743235362c75696e743235362929a2646970667358221220e88ed2912eab98995b40322e88f40e08d2bdf8357ade4b178af2d940e0040ae664736f6c63430008170033","linkReferences":{}},"methodIdentifiers":{"allowApprovalDestination(address,string)":"98b3cc39","allowAsset(address,string)":"86b6dbe5","allowCallSite(address,bytes4,string)":"5e4ccace","allowReceiver(address,string)":"72e548a9","allowSender(address,string)":"fa2c59c8","allowWithdrawDestination(address,string)":"5ace1d92","allowedApprovalDestinations(address)":"eb0de042","allowedAssets(address)":"a4c1cccb","allowedCallSites(address,bytes4)":"a847cf4d","allowedReceivers(address)":"3cf20025","allowedSenders(address)":"fadbcf48","allowedWithdrawDestinations(address)":"07ef00cf","callSiteCount()":"a9fc3d4f","getGovernanceAddress()":"73252494","getInternalVersion()":"fdedfa27","isAllowedApprovalDestination(address)":"1d49039c","isAllowedAsset(address)":"c537bed0","isAllowedCallSite(address,bytes4)":"713ebf3b","isAllowedReceiver(address)":"d075f9bb","isAllowedSender(address)":"be8c97b0","isAllowedWithdrawDestination(address)":"efb47bff","owner()":"8da5cb5b","removeApprovalDestination(address,string)":"04a3ba25","removeAsset(address,string)":"f901dc33","removeCallSite(address,bytes4,string)":"d7334c9d","removeReceiver(address,string)":"2d12d788","removeSender(address,string)":"a67e1f54","removeWithdrawDestination(address,string)":"8c2fdf9e","renounceOwnership()":"715018a6","transferOwnership(address)":"f2fde38b","validateCall(address,address,bytes)":"6d5025f1","validate_approve(bytes)":"4b956bd8","validate_exactInput(bytes)":"ebe26816","validate_exactOutput(bytes)":"e98539c5","validate_swapExactTokensForTokens(bytes)":"761bcd9c","validate_transfer(bytes)":"1710a4f2","whitelistToken(address,string)":"ee5462cc","whitelistUniswapV2Router(address,string)":"3ea35551","whitelistUniswapV3Router(address,string)":"34ec8d7e"},"id":3}