{"abi":[{"type":"constructor","inputs":[],"stateMutability":"nonpayable"},{"type":"function","name":"allowApprovalDestination","inputs":[{"name":"destination","type":"address","internalType":"address"},{"name":"notes","type":"string","internalType":"string"}],"outputs":[],"stateMutability":"nonpayable"},{"type":"function","name":"allowAsset","inputs":[{"name":"asset","type":"address","internalType":"address"},{"name":"notes","type":"string","internalType":"string"}],"outputs":[],"stateMutability":"nonpayable"},{"type":"function","name":"allowCallSite","inputs":[{"name":"target","type":"address","internalType":"address"},{"name":"selector","type":"bytes4","internalType":"bytes4"},{"name":"notes","type":"string","internalType":"string"}],"outputs":[],"stateMutability":"nonpayable"},{"type":"function","name":"allowDelegationApprovalDestination","inputs":[{"name":"destination","type":"address","internalType":"address"},{"name":"notes","type":"string","internalType":"string"}],"outputs":[],"stateMutability":"nonpayable"},{"type":"function","name":"allowReceiver","inputs":[{"name":"receiver","type":"address","internalType":"address"},{"name":"notes","type":"string","internalType":"string"}],"outputs":[],"stateMutability":"nonpayable"},{"type":"function","name":"allowSender","inputs":[{"name":"sender","type":"address","internalType":"address"},{"name":"notes","type":"string","internalType":"string"}],"outputs":[],"stateMutability":"nonpayable"},{"type":"function","name":"allowWithdrawDestination","inputs":[{"name":"destination","type":"address","internalType":"address"},{"name":"notes","type":"string","internalType":"string"}],"outputs":[],"stateMutability":"nonpayable"},{"type":"function","name":"allowedApprovalDestinations","inputs":[{"name":"destination","type":"address","internalType":"address"}],"outputs":[{"name":"allowed","type":"bool","internalType":"bool"}],"stateMutability":"view"},{"type":"function","name":"allowedAssets","inputs":[{"name":"token","type":"address","internalType":"address"}],"outputs":[{"name":"allowed","type":"bool","internalType":"bool"}],"stateMutability":"view"},{"type":"function","name":"allowedCallSites","inputs":[{"name":"target","type":"address","internalType":"address"},{"name":"selector","type":"bytes4","internalType":"bytes4"}],"outputs":[{"name":"allowed","type":"bool","internalType":"bool"}],"stateMutability":"view"},{"type":"function","name":"allowedDelegationApprovalDestinations","inputs":[{"name":"destination","type":"address","internalType":"address"}],"outputs":[{"name":"allowed","type":"bool","internalType":"bool"}],"stateMutability":"view"},{"type":"function","name":"allowedReceivers","inputs":[{"name":"receiver","type":"address","internalType":"address"}],"outputs":[{"name":"allowed","type":"bool","internalType":"bool"}],"stateMutability":"view"},{"type":"function","name":"allowedSenders","inputs":[{"name":"sender","type":"address","internalType":"address"}],"outputs":[{"name":"allowed","type":"bool","internalType":"bool"}],"stateMutability":"view"},{"type":"function","name":"allowedWithdrawDestinations","inputs":[{"name":"destination","type":"address","internalType":"address"}],"outputs":[{"name":"allowed","type":"bool","internalType":"bool"}],"stateMutability":"view"},{"type":"function","name":"callSiteCount","inputs":[],"outputs":[{"name":"","type":"uint256","internalType":"uint256"}],"stateMutability":"view"},{"type":"function","name":"getGovernanceAddress","inputs":[],"outputs":[{"name":"","type":"address","internalType":"address"}],"stateMutability":"view"},{"type":"function","name":"getInternalVersion","inputs":[],"outputs":[{"name":"","type":"uint8","internalType":"uint8"}],"stateMutability":"pure"},{"type":"function","name":"isAllowedApprovalDestination","inputs":[{"name":"receiver","type":"address","internalType":"address"}],"outputs":[{"name":"","type":"bool","internalType":"bool"}],"stateMutability":"view"},{"type":"function","name":"isAllowedAsset","inputs":[{"name":"token","type":"address","internalType":"address"}],"outputs":[{"name":"","type":"bool","internalType":"bool"}],"stateMutability":"view"},{"type":"function","name":"isAllowedCallSite","inputs":[{"name":"target","type":"address","internalType":"address"},{"name":"selector","type":"bytes4","internalType":"bytes4"}],"outputs":[{"name":"","type":"bool","internalType":"bool"}],"stateMutability":"view"},{"type":"function","name":"isAllowedDelegationApprovalDestination","inputs":[{"name":"receiver","type":"address","internalType":"address"}],"outputs":[{"name":"","type":"bool","internalType":"bool"}],"stateMutability":"view"},{"type":"function","name":"isAllowedReceiver","inputs":[{"name":"receiver","type":"address","internalType":"address"}],"outputs":[{"name":"","type":"bool","internalType":"bool"}],"stateMutability":"view"},{"type":"function","name":"isAllowedSender","inputs":[{"name":"sender","type":"address","internalType":"address"}],"outputs":[{"name":"","type":"bool","internalType":"bool"}],"stateMutability":"view"},{"type":"function","name":"isAllowedWithdrawDestination","inputs":[{"name":"receiver","type":"address","internalType":"address"}],"outputs":[{"name":"","type":"bool","internalType":"bool"}],"stateMutability":"view"},{"type":"function","name":"owner","inputs":[],"outputs":[{"name":"","type":"address","internalType":"address"}],"stateMutability":"view"},{"type":"function","name":"removeApprovalDestination","inputs":[{"name":"destination","type":"address","internalType":"address"},{"name":"notes","type":"string","internalType":"string"}],"outputs":[],"stateMutability":"nonpayable"},{"type":"function","name":"removeAsset","inputs":[{"name":"asset","type":"address","internalType":"address"},{"name":"notes","type":"string","internalType":"string"}],"outputs":[],"stateMutability":"nonpayable"},{"type":"function","name":"removeCallSite","inputs":[{"name":"target","type":"address","internalType":"address"},{"name":"selector","type":"bytes4","internalType":"bytes4"},{"name":"notes","type":"string","internalType":"string"}],"outputs":[],"stateMutability":"nonpayable"},{"type":"function","name":"removeDelegationApprovalDestination","inputs":[{"name":"destination","type":"address","internalType":"address"},{"name":"notes","type":"string","internalType":"string"}],"outputs":[],"stateMutability":"nonpayable"},{"type":"function","name":"removeReceiver","inputs":[{"name":"receiver","type":"address","internalType":"address"},{"name":"notes","type":"string","internalType":"string"}],"outputs":[],"stateMutability":"nonpayable"},{"type":"function","name":"removeSender","inputs":[{"name":"sender","type":"address","internalType":"address"},{"name":"notes","type":"string","internalType":"string"}],"outputs":[],"stateMutability":"nonpayable"},{"type":"function","name":"removeWithdrawDestination","inputs":[{"name":"destination","type":"address","internalType":"address"},{"name":"notes","type":"string","internalType":"string"}],"outputs":[],"stateMutability":"nonpayable"},{"type":"function","name":"renounceOwnership","inputs":[],"outputs":[],"stateMutability":"nonpayable"},{"type":"function","name":"transferOwnership","inputs":[{"name":"newOwner","type":"address","internalType":"address"}],"outputs":[],"stateMutability":"nonpayable"},{"type":"function","name":"validate1deltaPath","inputs":[{"name":"path","type":"bytes","internalType":"bytes"}],"outputs":[],"stateMutability":"view"},{"type":"function","name":"validateCall","inputs":[{"name":"sender","type":"address","internalType":"address"},{"name":"target","type":"address","internalType":"address"},{"name":"callDataWithSelector","type":"bytes","internalType":"bytes"}],"outputs":[],"stateMutability":"view"},{"type":"function","name":"validateUniswapV3Path","inputs":[{"name":"path","type":"bytes","internalType":"bytes"}],"outputs":[],"stateMutability":"view"},{"type":"function","name":"validate_1deltaMulticall","inputs":[{"name":"callData","type":"bytes","internalType":"bytes"}],"outputs":[],"stateMutability":"view"},{"type":"function","name":"validate_approve","inputs":[{"name":"callData","type":"bytes","internalType":"bytes"}],"outputs":[],"stateMutability":"view"},{"type":"function","name":"validate_approveDelegation","inputs":[{"name":"callData","type":"bytes","internalType":"bytes"}],"outputs":[],"stateMutability":"view"},{"type":"function","name":"validate_deposit","inputs":[{"name":"callData","type":"bytes","internalType":"bytes"}],"outputs":[],"stateMutability":"view"},{"type":"function","name":"validate_exactInput","inputs":[{"name":"callData","type":"bytes","internalType":"bytes"}],"outputs":[],"stateMutability":"view"},{"type":"function","name":"validate_exactOutput","inputs":[{"name":"callData","type":"bytes","internalType":"bytes"}],"outputs":[],"stateMutability":"view"},{"type":"function","name":"validate_flashSwapAllOut","inputs":[{"name":"callData","type":"bytes","internalType":"bytes"}],"outputs":[],"stateMutability":"view"},{"type":"function","name":"validate_flashSwapExactInt","inputs":[{"name":"callData","type":"bytes","internalType":"bytes"}],"outputs":[],"stateMutability":"view"},{"type":"function","name":"validate_flashSwapExactOut","inputs":[{"name":"callData","type":"bytes","internalType":"bytes"}],"outputs":[],"stateMutability":"view"},{"type":"function","name":"validate_swapExactTokensForTokens","inputs":[{"name":"callData","type":"bytes","internalType":"bytes"}],"outputs":[],"stateMutability":"view"},{"type":"function","name":"validate_transfer","inputs":[{"name":"callData","type":"bytes","internalType":"bytes"}],"outputs":[],"stateMutability":"view"},{"type":"function","name":"validate_transferERC20AllIn","inputs":[{"name":"callData","type":"bytes","internalType":"bytes"}],"outputs":[],"stateMutability":"view"},{"type":"function","name":"validate_transferERC20In","inputs":[{"name":"callData","type":"bytes","internalType":"bytes"}],"outputs":[],"stateMutability":"view"},{"type":"function","name":"validate_withdraw","inputs":[{"name":"callData","type":"bytes","internalType":"bytes"}],"outputs":[],"stateMutability":"view"},{"type":"function","name":"whitelistOnedelta","inputs":[{"name":"brokerProxy","type":"address","internalType":"address"},{"name":"lendingPool","type":"address","internalType":"address"},{"name":"notes","type":"string","internalType":"string"}],"outputs":[],"stateMutability":"nonpayable"},{"type":"function","name":"whitelistToken","inputs":[{"name":"token","type":"address","internalType":"address"},{"name":"notes","type":"string","internalType":"string"}],"outputs":[],"stateMutability":"nonpayable"},{"type":"function","name":"whitelistTokenForDelegation","inputs":[{"name":"token","type":"address","internalType":"address"},{"name":"notes","type":"string","internalType":"string"}],"outputs":[],"stateMutability":"nonpayable"},{"type":"function","name":"whitelistUniswapV2Router","inputs":[{"name":"router","type":"address","internalType":"address"},{"name":"notes","type":"string","internalType":"string"}],"outputs":[],"stateMutability":"nonpayable"},{"type":"function","name":"whitelistUniswapV3Router","inputs":[{"name":"router","type":"address","internalType":"address"},{"name":"notes","type":"string","internalType":"string"}],"outputs":[],"stateMutability":"nonpayable"},{"type":"event","name":"ApprovalDestinationApproved","inputs":[{"name":"sender","type":"address","indexed":false,"internalType":"address"},{"name":"notes","type":"string","indexed":false,"internalType":"string"}],"anonymous":false},{"type":"event","name":"ApprovalDestinationRemoved","inputs":[{"name":"sender","type":"address","indexed":false,"internalType":"address"},{"name":"notes","type":"string","indexed":false,"internalType":"string"}],"anonymous":false},{"type":"event","name":"AssetApproved","inputs":[{"name":"sender","type":"address","indexed":false,"internalType":"address"},{"name":"notes","type":"string","indexed":false,"internalType":"string"}],"anonymous":false},{"type":"event","name":"AssetRemoved","inputs":[{"name":"sender","type":"address","indexed":false,"internalType":"address"},{"name":"notes","type":"string","indexed":false,"internalType":"string"}],"anonymous":false},{"type":"event","name":"CallSiteApproved","inputs":[{"name":"target","type":"address","indexed":false,"internalType":"address"},{"name":"selector","type":"bytes4","indexed":false,"internalType":"bytes4"},{"name":"notes","type":"string","indexed":false,"internalType":"string"}],"anonymous":false},{"type":"event","name":"CallSiteRemoved","inputs":[{"name":"target","type":"address","indexed":false,"internalType":"address"},{"name":"selector","type":"bytes4","indexed":false,"internalType":"bytes4"},{"name":"notes","type":"string","indexed":false,"internalType":"string"}],"anonymous":false},{"type":"event","name":"DelegationApprovalDestinationApproved","inputs":[{"name":"sender","type":"address","indexed":false,"internalType":"address"},{"name":"notes","type":"string","indexed":false,"internalType":"string"}],"anonymous":false},{"type":"event","name":"DelegationApprovalDestinationRemoved","inputs":[{"name":"sender","type":"address","indexed":false,"internalType":"address"},{"name":"notes","type":"string","indexed":false,"internalType":"string"}],"anonymous":false},{"type":"event","name":"OwnershipTransferred","inputs":[{"name":"previousOwner","type":"address","indexed":true,"internalType":"address"},{"name":"newOwner","type":"address","indexed":true,"internalType":"address"}],"anonymous":false},{"type":"event","name":"ReceiverApproved","inputs":[{"name":"sender","type":"address","indexed":false,"internalType":"address"},{"name":"notes","type":"string","indexed":false,"internalType":"string"}],"anonymous":false},{"type":"event","name":"ReceiverRemoved","inputs":[{"name":"sender","type":"address","indexed":false,"internalType":"address"},{"name":"notes","type":"string","indexed":false,"internalType":"string"}],"anonymous":false},{"type":"event","name":"SenderApproved","inputs":[{"name":"sender","type":"address","indexed":false,"internalType":"address"},{"name":"notes","type":"string","indexed":false,"internalType":"string"}],"anonymous":false},{"type":"event","name":"SenderRemoved","inputs":[{"name":"sender","type":"address","indexed":false,"internalType":"address"},{"name":"notes","type":"string","indexed":false,"internalType":"string"}],"anonymous":false},{"type":"event","name":"WithdrawDestinationApproved","inputs":[{"name":"sender","type":"address","indexed":false,"internalType":"address"},{"name":"notes","type":"string","indexed":false,"internalType":"string"}],"anonymous":false},{"type":"event","name":"WithdrawDestinationRemoved","inputs":[{"name":"sender","type":"address","indexed":false,"internalType":"address"},{"name":"notes","type":"string","indexed":false,"internalType":"string"}],"anonymous":false}],"bytecode":{"object":"0x608060405234801561001057600080fd5b5061001a3361001f565b61006f565b600080546001600160a01b038381166001600160a01b0319831681178455604051919092169283917f8be0079c531659141344cd1fd0a4f28419497f9722a3daafe3b4186f6b6457e09190a35050565b612aef8061007e6000396000f3fe608060405234801561001057600080fd5b50600436106103785760003560e01c806386b6dbe5116101d3578063d7334c9d11610104578063f259a073116100a2578063f901dc331161007c578063f901dc3314610810578063fa2c59c814610823578063fadbcf4814610836578063fdedfa271461085957600080fd5b8063f259a0731461037d578063f26749f3146107ea578063f2fde38b146107fd57600080fd5b8063eb0de042116100de578063eb0de04214610783578063ebe2681614610770578063ee5462cc146107a6578063efb47bff146107b957600080fd5b8063d7334c9d1461075d578063e98539c514610770578063e9cd02e71461054357600080fd5b8063a67e1f5411610171578063be8c97b01161014b578063be8c97b014610706578063c537bed014610737578063ca963c5014610569578063d075f9bb1461074a57600080fd5b8063a67e1f54146106ae578063a847cf4d146106c1578063a9fc3d4f146106ef57600080fd5b8063957dc6c0116101ad578063957dc6c01461065257806398b3cc3914610665578063a1b6b43014610678578063a4c1cccb1461068b57600080fd5b806386b6dbe51461061b5780638c2fdf9e1461062e5780638da5cb5b1461064157600080fd5b806359b92be9116102ad5780636d9a14231161024b57806372e548a91161022557806372e548a9146105bd57806373252494146105d0578063761bcd9c146105f55780637ea446551461060857600080fd5b80636d9a14231461058f578063713ebf3b146105a2578063715018a6146105b557600080fd5b80635e62deee116102875780635e62deee1461054357806363cc17f2146105565780636ad11353146105695780636d5025f11461057c57600080fd5b806359b92be91461050a5780635ace1d921461051d5780635e4ccace1461053057600080fd5b80632dc32a611161031a5780633ea35551116102f45780633ea35551146104ae578063425f49d0146104c15780634b941268146104d45780634b956bd8146104f757600080fd5b80632dc32a611461044757806334ec8d7e146104785780633cf200251461048b57600080fd5b80631710a4f2116103565780631710a4f2146103dd5780631c123e77146103f05780631d49039c146104035780632d12d7881461043457600080fd5b806304a3ba251461037d57806307ac35621461039257806307ef00cf146103a5575b600080fd5b61039061038b366004612164565b610868565b005b6103906103a0366004612225565b6108d1565b6103c86103b33660046122a4565b60066020526000908152604090205460ff1681565b60405190151581526020015b60405180910390f35b6103906103eb366004612225565b610bf6565b6103906103fe366004612225565b610c56565b6103c86104113660046122a4565b6001600160a01b031660009081526007602052604090205460ff16151560011490565b610390610442366004612164565b610cd0565b6103c86104553660046122a4565b6001600160a01b031660009081526008602052604090205460ff16151560011490565b610390610486366004612164565b610d2c565b6103c86104993660046122a4565b60056020526000908152604090205460ff1681565b6103906104bc366004612164565b610d94565b6103906104cf366004612225565b610dbf565b6103c86104e23660046122a4565b60086020526000908152604090205460ff1681565b610390610505366004612225565b610de1565b610390610518366004612225565b610e6d565b61039061052b366004612164565b610eab565b61039061053e3660046122e5565b610f0a565b610390610551366004612225565b610fa0565b610390610564366004612164565b611005565b610390610577366004612225565b611064565b61039061058a366004612347565b611087565b61039061059d366004612164565b61149f565b6103c86105b0366004612378565b6114d5565b61039061150d565b6103906105cb366004612164565b611521565b6000546001600160a01b03165b6040516001600160a01b0390911681526020016103d4565b610390610603366004612225565b611580565b610390610616366004612225565b611620565b610390610629366004612164565b611641565b61039061063c366004612164565b6116a0565b6000546001600160a01b03166105dd565b610390610660366004612225565b6116fc565b610390610673366004612164565b61179a565b610390610686366004612225565b6117f9565b6103c86106993660046122a4565b60036020526000908152604090205460ff1681565b6103906106bc366004612164565b611941565b6103c86106cf366004612378565b600160209081526000928352604080842090915290825290205460ff1681565b6106f860025481565b6040519081526020016103d4565b6103c86107143660046122a4565b6001600160a01b031660009081526004602052604090205460ff16151560011490565b6103c86107453660046122a4565b61199d565b6103c86107583660046122a4565b6119c0565b61039061076b3660046122e5565b6119e3565b61039061077e366004612225565b611a56565b6103c86107913660046122a4565b60076020526000908152604090205460ff1681565b6103906107b4366004612164565b611aa2565b6103c86107c73660046122a4565b6001600160a01b031660009081526006602052604090205460ff16151560011490565b6103906107f8366004612347565b611b57565b61039061080b3660046122a4565b611bcc565b61039061081e366004612164565b611c45565b610390610831366004612164565b611ca1565b6103c86108443660046122a4565b60046020526000908152604090205460ff1681565b604051600181526020016103d4565b610870611d00565b6001600160a01b03831660009081526007602052604090819020805460ff19169055517fb71be9befd3ac90c1c9981d3b1161b3c2c6dcd741f13b34061aa251226a802df906108c4908590859085906123d6565b60405180910390a1505050565b6000818060200190518101906108e79190612490565b905060005b8151811015610bf157600082828151811061090957610909612540565b60200260200101519050600061092c6000600484611d5a9092919063ffffffff16565b61093590612556565b90506000610953600480855161094b91906125a3565b859190611d5a565b6040805180820190915260208082527f7472616e736665724552433230496e28616464726573732c75696e74323536299101529050631dac092b60e11b6001600160e01b03198316016109ae576109a981610e6d565b610be6565b60408051808201909152601b81527f7472616e736665724552433230416c6c496e2861646472657373290000000000602090910152635cf59cb760e11b6001600160e01b0319831601610a04576109a981611620565b60408051808201909152601881527f6465706f73697428616464726573732c6164647265737329000000000000000060209091015262d3ec1f60e31b6001600160e01b0319831601610a59576109a981610fa0565b60408051808201909152601981527f776974686472617728616464726573732c6164647265737329000000000000006020909101526306bf1c7b60e01b6001600160e01b0319831601610aaf576109a981610fa0565b610ad6604051806060016040528060278152602001612a5f60279139805160209091012090565b6001600160e01b031916826001600160e01b03191603610af9576109a981611064565b610b20604051806060016040528060288152602001612a3760289139805160209091012090565b6001600160e01b031916826001600160e01b03191603610b43576109a981611064565b60408051808201909152601e81527f666c61736853776170416c6c4f75742875696e743235362c627974657329000060209091015263d2b3d16560e01b6001600160e01b0319831601610b99576109a981610dbf565b60405162461bcd60e51b815260206004820152601960248201527f556e6b6e6f776e2066756e6374696f6e2073656c6563746f720000000000000060448201526064015b60405180910390fd5b5050506001016108ec565b505050565b600081806020019051810190610c0c91906125c1565b509050610c36816001600160a01b031660009081526006602052604090205460ff16151560011490565b610c525760405162461bcd60e51b8152600401610bdd906125ef565b5050565b6000805b610c6383611eb1565b5092509050610c718261199d565b610c8d5760405162461bcd60e51b8152600401610bdd90612626565b610c968161199d565b610cb25760405162461bcd60e51b8152600401610bdd90612626565b610cbb83611eed565b15610bf157610cc983611f27565b9250610c5a565b610cd8611d00565b6001600160a01b03831660009081526005602052604090819020805460ff19169055517f4e13b11ab98e672bd78295ef9cebe764dc617f95decf47d842c25b83abc0c724906108c4908590859085906123d6565b610d5e83610d57604051806060016040528060338152602001612a0460339139805160209091012090565b8484610f0a565b610d8983610d57604051806060016040528060348152602001612a8660349139805160209091012090565b610bf183838361179a565b610d8983610d5760405180608001604052806043815260200161299f60439139805160209091012090565b600081806020019051810190610dd59190612651565b915050610c52816117f9565b600081806020019051810190610df791906125c1565b509050610e21816001600160a01b031660009081526007602052604090205460ff16151560011490565b610c525760405162461bcd60e51b815260206004820152601e60248201527f417070726f7665206164647265737320646f6573206e6f74206d6174636800006044820152606401610bdd565b600081806020019051810190610e8391906125c1565b509050610e8f8161199d565b610c525760405162461bcd60e51b8152600401610bdd90612626565b610eb3611d00565b6001600160a01b03831660009081526006602052604090819020805460ff19166001179055517f3562181221a42a19ddd03a82dfe06acab1905ceb65cdaf7d86a1d9fec6643552906108c4908590859085906123d6565b610f12611d00565b6001600160a01b03841660009081526001602081815260408084206001600160e01b0319881685529091528220805460ff191690911790556002805491610f5883612697565b91905055507fef729aaa41b9fd994f9ff7c1960df214a84f722002e6cfbea31799cd0873a3ef84848484604051610f9294939291906126b0565b60405180910390a150505050565b60008082806020019051810190610fb791906126ef565b91509150610fc48261199d565b610fe05760405162461bcd60e51b8152600401610bdd90612626565b610fe9816119c0565b610bf15760405162461bcd60e51b8152600401610bdd906125ef565b61100d611d00565b6001600160a01b03831660009081526008602052604090819020805460ff19166001179055517f628a44970c0e450415e3ae74334ea44f3307b74dbf677a1371190242bf2f3589906108c4908590859085906123d6565b60008180602001905181019061107a9190612729565b92505050610c52816117f9565b6000546001600160a01b03858116911614611499576110c3846001600160a01b031660009081526004602052604090205460ff16151560011490565b6111045760405162461bcd60e51b815260206004820152601260248201527114d95b99195c881b9bdd08185b1b1bddd95960721b6044820152606401610bdd565b60006111136004828486612778565b61111c916127a2565b905036600061112e8460048188612778565b9150915061113c86846114d5565b6111805760405162461bcd60e51b815260206004820152601560248201527410d85b1b081cda5d19481b9bdd08185b1b1bddd959605a1b6044820152606401610bdd565b6111a760405180608001604052806043815260200161299f60439139805160209091012090565b6001600160e01b031916836001600160e01b031916036112055761120082828080601f01602080910402602001604051908101604052809392919081815260200183838082843760009201919091525061158092505050565b611495565b61122c604051806060016040528060338152602001612a0460339139805160209091012090565b6001600160e01b031916836001600160e01b031916036112855761120082828080601f016020809104026020016040519081016040528093929190818152602001838380828437600092019190915250611a5692505050565b6040805180820190915260128152716d756c746963616c6c2862797465735b5d2960701b602090910152630a6d35e560e31b6001600160e01b03198416016113065761120082828080601f0160208091040260200160405190810160405280939291908181526020018383808284376000920191909152506108d192505050565b6040805180820190915260198152787472616e7366657228616464726573732c75696e743235362960381b6020909101526356fa634560e01b6001600160e01b031984160161138e5761120082828080601f016020809104026020016040519081016040528093929190818152602001838380828437600092019190915250610bf692505050565b604080518082019091526018815277617070726f766528616464726573732c75696e743235362960401b60209091015263f6a1584d60e01b6001600160e01b03198416016114155761120082828080601f016020809104026020016040519081016040528093929190818152602001838380828437600092019190915250610de192505050565b61143c6040518060600160405280602281526020016129e260229139805160209091012090565b6001600160e01b031916836001600160e01b03191603610b995761120082828080601f0160208091040260200160405190810160405280939291908181526020018383808284376000920191909152506116fc92505050565b5050505b50505050565b6114ca83610d576040518060600160405280602281526020016129e260229139805160209091012090565b610bf1838383611641565b6001600160a01b03821660009081526001602090815260408083206001600160e01b03198516845290915290205460ff165b92915050565b611515611d00565b61151f6000611f58565b565b611529611d00565b6001600160a01b03831660009081526005602052604090819020805460ff19166001179055517f62dd88c5ecfa60713a657640ebec4de26fc1aefa4afdb24e6d15a124fce72779906108c4908590859085906123d6565b6000808280602001905181019061159791906127d2565b509350935050506115a7816119c0565b6115c35760405162461bcd60e51b8152600401610bdd906125ef565b6000805b8351811015611619578381815181106115e2576115e2612540565b602002602001015191506115f58261199d565b6116115760405162461bcd60e51b8152600401610bdd90612626565b6001016115c7565b5050505050565b600081806020019051810190611636919061289b565b9050610e8f8161199d565b611649611d00565b6001600160a01b03831660009081526003602052604090819020805460ff19166001179055517fad90e2570fc4fe9f7437be3188d5c791c6662892d31731992aa88f5c87621983906108c4908590859085906123d6565b6116a8611d00565b6001600160a01b03831660009081526006602052604090819020805460ff19169055517f1212f8ddb39de8e1a339460c95752d61100723efeaa34ccd94bca94393f40938906108c4908590859085906123d6565b60008180602001905181019061171291906125c1565b50905061173c816001600160a01b031660009081526008602052604090205460ff16151560011490565b610c525760405162461bcd60e51b815260206004820152602960248201527f417070726f76652064656c65676174696f6e206164647265737320646f6573206044820152680dcdee840dac2e8c6d60bb1b6064820152608401610bdd565b6117a2611d00565b6001600160a01b03831660009081526007602052604090819020805460ff19166001179055517f628a44970c0e450415e3ae74334ea44f3307b74dbf677a1371190242bf2f3589906108c4908590859085906123d6565b6000805b611808836000611fa8565b915061183760018061181c600360146128b8565b61182691906128b8565b61183091906128b8565b8490611fa8565b90506118428261199d565b61185e5760405162461bcd60e51b8152600401610bdd90612626565b6118678161199d565b6118835760405162461bcd60e51b8152600401610bdd90612626565b600180611892600360146128b8565b61189c91906128b8565b6118a691906128b8565b60146001806118b66003846128b8565b6118c091906128b8565b6118ca91906128b8565b6118d491906128b8565b6118de91906128b8565b835110610bf15761193a6001806118f7600360146128b8565b61190191906128b8565b61190b91906128b8565b60018061191a600360146128b8565b61192491906128b8565b61192e91906128b8565b855161094b91906125a3565b92506117fd565b611949611d00565b6001600160a01b03831660009081526004602052604090819020805460ff19169055517f3097928509c53a2dab9500431201d82b0d756e8f890fd01f4ae6b33b45687ea4906108c4908590859085906123d6565b6001600160a01b031660009081526003602052604090205460ff16151560011490565b6001600160a01b031660009081526005602052604090205460ff16151560011490565b6119eb611d00565b6001600160a01b03841660009081526001602090815260408083206001600160e01b03198716845290915290819020805460ff19169055517f37ea10f2d08f5a9803dfcd5abf3cfc7b0d6fcdf5fcbc36be9ea5a0b53d9a4d9b90610f929086908690869086906126b0565b600081806020019051810190611a6c9190612962565b9050611a7b81602001516119c0565b611a975760405162461bcd60e51b8152600401610bdd906125ef565b8051610c5290610c56565b6040805180820190915260198152787472616e7366657228616464726573732c75696e743235362960381b602090910152611afd837fa9059cbb2ab09eb219583f4a59a5d0623ade346d962bcd4e46b11da047c9049b610d57565b604080518082019091526018815277617070726f766528616464726573732c75696e743235362960401b6020909101526114ca837f095ea7b334ae44009aa867bfb386f5c3b4b443ac6f0ee573fa91c4608fbadfba610d57565b6040805180820190915260128152716d756c746963616c6c2862797465735b5d2960701b602090910152611bab847fac9650d882acfa253cba1ed543b9ff47351da99c3bd00a89625e5cdb2099009c610d57565b611bb684838361179a565b611bc1848383611005565b61149983838361179a565b611bd4611d00565b6001600160a01b038116611c395760405162461bcd60e51b815260206004820152602660248201527f4f776e61626c653a206e6577206f776e657220697320746865207a65726f206160448201526564647265737360d01b6064820152608401610bdd565b611c4281611f58565b50565b611c4d611d00565b6001600160a01b03831660009081526003602052604090819020805460ff19169055517f9ca3f065622f5f03f32b7157677a0e420c3a36ab45fd49f256ffebce3e310587906108c4908590859085906123d6565b611ca9611d00565b6001600160a01b03831660009081526004602052604090819020805460ff19166001179055517fa8f9caaf4861720900294428e4ff34d37070c37afd26d96e6e4da75326d2c3ad906108c4908590859085906123d6565b6000546001600160a01b0316331461151f5760405162461bcd60e51b815260206004820181905260248201527f4f776e61626c653a2063616c6c6572206973206e6f7420746865206f776e65726044820152606401610bdd565b606081611d6881601f6128b8565b1015611da75760405162461bcd60e51b815260206004820152600e60248201526d736c6963655f6f766572666c6f7760901b6044820152606401610bdd565b82611db283826128b8565b1015611df15760405162461bcd60e51b815260206004820152600e60248201526d736c6963655f6f766572666c6f7760901b6044820152606401610bdd565b611dfb82846128b8565b84511015611e3f5760405162461bcd60e51b8152602060048201526011602482015270736c6963655f6f75744f66426f756e647360781b6044820152606401610bdd565b606082158015611e5e5760405191506000825260208201604052611ea8565b6040519150601f8416801560200281840101858101878315602002848b0101015b81831015611e97578051835260209283019201611e7f565b5050858452601f01601f1916604052505b50949350505050565b60008080611ebf8482611fa8565b9250611ecc84601461205c565b9050611ee4611edd600360146128b8565b8590611fa8565b91509193909250565b6000611efb600360146128b8565b6014611f086003826128b8565b611f1291906128b8565b611f1c91906128b8565b825110159050919050565b6060611507611f38600360146128b8565b611f44600360146128b8565b8451611f5091906125a3565b849190611d5a565b600080546001600160a01b038381166001600160a01b0319831681178455604051919092169283917f8be0079c531659141344cd1fd0a4f28419497f9722a3daafe3b4186f6b6457e09190a35050565b600081611fb68160146128b8565b1015611ff95760405162461bcd60e51b8152602060048201526012602482015271746f416464726573735f6f766572666c6f7760701b6044820152606401610bdd565b6120048260146128b8565b8351101561204c5760405162461bcd60e51b8152602060048201526015602482015274746f416464726573735f6f75744f66426f756e647360581b6044820152606401610bdd565b500160200151600160601b900490565b60008161206a8160036128b8565b10156120ac5760405162461bcd60e51b8152602060048201526011602482015270746f55696e7432345f6f766572666c6f7760781b6044820152606401610bdd565b6120b78260036128b8565b835110156120fe5760405162461bcd60e51b8152602060048201526014602482015273746f55696e7432345f6f75744f66426f756e647360601b6044820152606401610bdd565b50016003015190565b6001600160a01b0381168114611c4257600080fd5b60008083601f84011261212e57600080fd5b5081356001600160401b0381111561214557600080fd5b60208301915083602082850101111561215d57600080fd5b9250929050565b60008060006040848603121561217957600080fd5b833561218481612107565b925060208401356001600160401b0381111561219f57600080fd5b6121ab8682870161211c565b9497909650939450505050565b634e487b7160e01b600052604160045260246000fd5b604051601f8201601f191681016001600160401b03811182821017156121f6576121f66121b8565b604052919050565b60006001600160401b03821115612217576122176121b8565b50601f01601f191660200190565b60006020828403121561223757600080fd5b81356001600160401b0381111561224d57600080fd5b8201601f8101841361225e57600080fd5b803561227161226c826121fe565b6121ce565b81815285602083850101111561228657600080fd5b81602084016020830137600091810160200191909152949350505050565b6000602082840312156122b657600080fd5b81356122c181612107565b9392505050565b80356001600160e01b0319811681146122e057600080fd5b919050565b600080600080606085870312156122fb57600080fd5b843561230681612107565b9350612314602086016122c8565b925060408501356001600160401b0381111561232f57600080fd5b61233b8782880161211c565b95989497509550505050565b6000806000806060858703121561235d57600080fd5b843561236881612107565b9350602085013561231481612107565b6000806040838503121561238b57600080fd5b823561239681612107565b91506123a4602084016122c8565b90509250929050565b81835281816020850137506000828201602090810191909152601f909101601f19169091010190565b6001600160a01b03841681526040602082018190526000906123fb90830184866123ad565b95945050505050565b60006001600160401b0382111561241d5761241d6121b8565b5060051b60200190565b600082601f83011261243857600080fd5b815161244661226c826121fe565b818152602085602084870101111561245d57600080fd5b60005b8381101561247b578581018201518382018301528101612460565b50506000918101602001919091529392505050565b600060208083850312156124a357600080fd5b82516001600160401b03808211156124ba57600080fd5b818501915085601f8301126124ce57600080fd5b81516124dc61226c82612404565b81815260059190911b830184019084810190888311156124fb57600080fd5b8585015b83811015612533578051858111156125175760008081fd5b6125258b89838a0101612427565b8452509186019186016124ff565b5098975050505050505050565b634e487b7160e01b600052603260045260246000fd5b805160208201516001600160e01b031980821692919060048310156125855780818460040360031b1b83161693505b505050919050565b634e487b7160e01b600052601160045260246000fd5b818103818111156115075761150761258d565b80516122e081612107565b600080604083850312156125d457600080fd5b82516125df81612107565b6020939093015192949293505050565b6020808252601f908201527f5265636569766572206164647265737320646f6573206e6f74206d6174636800604082015260600190565b602080825260119082015270151bdad95b881b9bdd08185b1b1bddd959607a1b604082015260600190565b6000806040838503121561266457600080fd5b8251915060208301516001600160401b0381111561268157600080fd5b61268d85828601612427565b9150509250929050565b6000600182016126a9576126a961258d565b5060010190565b6001600160a01b03851681526001600160e01b0319841660208201526060604082018190526000906126e590830184866123ad565b9695505050505050565b6000806040838503121561270257600080fd5b825161270d81612107565b602084015190925061271e81612107565b809150509250929050565b60008060006060848603121561273e57600080fd5b835192506020840151915060408401516001600160401b0381111561276257600080fd5b61276e86828701612427565b9150509250925092565b6000808585111561278857600080fd5b8386111561279557600080fd5b5050820193919092039150565b6001600160e01b031981358181169160048510156127ca5780818660040360031b1b83161692505b505092915050565b600080600080600060a086880312156127ea57600080fd5b85519450602080870151945060408701516001600160401b0381111561280f57600080fd5b8701601f8101891361282057600080fd5b805161282e61226c82612404565b81815260059190911b8201830190838101908b83111561284d57600080fd5b928401925b8284101561287457835161286581612107565b82529284019290840190612852565b8097505050505050612888606087016125b6565b9150608086015190509295509295909350565b6000602082840312156128ad57600080fd5b81516122c181612107565b808201808211156115075761150761258d565b600060a082840312156128dd57600080fd5b60405160a081016001600160401b038282108183111715612900576129006121b8565b81604052829350845191508082111561291857600080fd5b5061292585828601612427565b825250602083015161293681612107565b806020830152506040830151604082015260608301516060820152608083015160808201525092915050565b60006020828403121561297457600080fd5b81516001600160401b0381111561298a57600080fd5b612996848285016128cb565b94935050505056fe737761704578616374546f6b656e73466f72546f6b656e732875696e743235362c75696e743235362c616464726573735b5d2c616464726573732c75696e7432353629617070726f766544656c65676174696f6e28616464726573732c75696e74323536296578616374496e707574282862797465732c616464726573732c75696e743235362c75696e743235362c75696e743235362929666c6173685377617045786163744f75742875696e743235362c75696e743235362c627974657329666c617368537761704578616374496e2875696e743235362c75696e743235362c62797465732965786163744f7574707574282862797465732c616464726573732c75696e743235362c75696e743235362c75696e743235362929a2646970667358221220ac2c98cea8b69eefa2f5a9f28259dfd207bb6dddcf0ff7675f763dbb19448d9864736f6c63430008170033","linkReferences":{}},"methodIdentifiers":{"allowApprovalDestination(address,string)":"98b3cc39","allowAsset(address,string)":"86b6dbe5","allowCallSite(address,bytes4,string)":"5e4ccace","allowDelegationApprovalDestination(address,string)":"63cc17f2","allowReceiver(address,string)":"72e548a9","allowSender(address,string)":"fa2c59c8","allowWithdrawDestination(address,string)":"5ace1d92","allowedApprovalDestinations(address)":"eb0de042","allowedAssets(address)":"a4c1cccb","allowedCallSites(address,bytes4)":"a847cf4d","allowedDelegationApprovalDestinations(address)":"4b941268","allowedReceivers(address)":"3cf20025","allowedSenders(address)":"fadbcf48","allowedWithdrawDestinations(address)":"07ef00cf","callSiteCount()":"a9fc3d4f","getGovernanceAddress()":"73252494","getInternalVersion()":"fdedfa27","isAllowedApprovalDestination(address)":"1d49039c","isAllowedAsset(address)":"c537bed0","isAllowedCallSite(address,bytes4)":"713ebf3b","isAllowedDelegationApprovalDestination(address)":"2dc32a61","isAllowedReceiver(address)":"d075f9bb","isAllowedSender(address)":"be8c97b0","isAllowedWithdrawDestination(address)":"efb47bff","owner()":"8da5cb5b","removeApprovalDestination(address,string)":"04a3ba25","removeAsset(address,string)":"f901dc33","removeCallSite(address,bytes4,string)":"d7334c9d","removeDelegationApprovalDestination(address,string)":"f259a073","removeReceiver(address,string)":"2d12d788","removeSender(address,string)":"a67e1f54","removeWithdrawDestination(address,string)":"8c2fdf9e","renounceOwnership()":"715018a6","transferOwnership(address)":"f2fde38b","validate1deltaPath(bytes)":"a1b6b430","validateCall(address,address,bytes)":"6d5025f1","validateUniswapV3Path(bytes)":"1c123e77","validate_1deltaMulticall(bytes)":"07ac3562","validate_approve(bytes)":"4b956bd8","validate_approveDelegation(bytes)":"957dc6c0","validate_deposit(bytes)":"5e62deee","validate_exactInput(bytes)":"ebe26816","validate_exactOutput(bytes)":"e98539c5","validate_flashSwapAllOut(bytes)":"425f49d0","validate_flashSwapExactInt(bytes)":"ca963c50","validate_flashSwapExactOut(bytes)":"6ad11353","validate_swapExactTokensForTokens(bytes)":"761bcd9c","validate_transfer(bytes)":"1710a4f2","validate_transferERC20AllIn(bytes)":"7ea44655","validate_transferERC20In(bytes)":"59b92be9","validate_withdraw(bytes)":"e9cd02e7","whitelistOnedelta(address,address,string)":"f26749f3","whitelistToken(address,string)":"ee5462cc","whitelistTokenForDelegation(address,string)":"6d9a1423","whitelistUniswapV2Router(address,string)":"3ea35551","whitelistUniswapV3Router(address,string)":"34ec8d7e"},"id":3}