{"abi":[{"type":"constructor","inputs":[],"stateMutability":"nonpayable"},{"type":"function","name":"allowApprovalDestination","inputs":[{"name":"destination","type":"address","internalType":"address"},{"name":"notes","type":"string","internalType":"string"}],"outputs":[],"stateMutability":"nonpayable"},{"type":"function","name":"allowAsset","inputs":[{"name":"asset","type":"address","internalType":"address"},{"name":"notes","type":"string","internalType":"string"}],"outputs":[],"stateMutability":"nonpayable"},{"type":"function","name":"allowCallSite","inputs":[{"name":"target","type":"address","internalType":"address"},{"name":"selector","type":"bytes4","internalType":"bytes4"},{"name":"notes","type":"string","internalType":"string"}],"outputs":[],"stateMutability":"nonpayable"},{"type":"function","name":"allowReceiver","inputs":[{"name":"receiver","type":"address","internalType":"address"},{"name":"notes","type":"string","internalType":"string"}],"outputs":[],"stateMutability":"nonpayable"},{"type":"function","name":"allowSender","inputs":[{"name":"sender","type":"address","internalType":"address"},{"name":"notes","type":"string","internalType":"string"}],"outputs":[],"stateMutability":"nonpayable"},{"type":"function","name":"allowWithdrawDestination","inputs":[{"name":"destination","type":"address","internalType":"address"},{"name":"notes","type":"string","internalType":"string"}],"outputs":[],"stateMutability":"nonpayable"},{"type":"function","name":"allowedApprovalDestinations","inputs":[{"name":"destination","type":"address","internalType":"address"}],"outputs":[{"name":"allowed","type":"bool","internalType":"bool"}],"stateMutability":"view"},{"type":"function","name":"allowedAssets","inputs":[{"name":"token","type":"address","internalType":"address"}],"outputs":[{"name":"allowed","type":"bool","internalType":"bool"}],"stateMutability":"view"},{"type":"function","name":"allowedCallSites","inputs":[{"name":"target","type":"address","internalType":"address"},{"name":"selector","type":"bytes4","internalType":"bytes4"}],"outputs":[{"name":"allowed","type":"bool","internalType":"bool"}],"stateMutability":"view"},{"type":"function","name":"allowedReceivers","inputs":[{"name":"receiver","type":"address","internalType":"address"}],"outputs":[{"name":"allowed","type":"bool","internalType":"bool"}],"stateMutability":"view"},{"type":"function","name":"allowedSenders","inputs":[{"name":"sender","type":"address","internalType":"address"}],"outputs":[{"name":"allowed","type":"bool","internalType":"bool"}],"stateMutability":"view"},{"type":"function","name":"allowedWithdrawDestinations","inputs":[{"name":"destination","type":"address","internalType":"address"}],"outputs":[{"name":"allowed","type":"bool","internalType":"bool"}],"stateMutability":"view"},{"type":"function","name":"callSiteCount","inputs":[],"outputs":[{"name":"","type":"uint256","internalType":"uint256"}],"stateMutability":"view"},{"type":"function","name":"getGovernanceAddress","inputs":[],"outputs":[{"name":"","type":"address","internalType":"address"}],"stateMutability":"view"},{"type":"function","name":"getInternalVersion","inputs":[],"outputs":[{"name":"","type":"uint8","internalType":"uint8"}],"stateMutability":"pure"},{"type":"function","name":"isAllowedApprovalDestination","inputs":[{"name":"receiver","type":"address","internalType":"address"}],"outputs":[{"name":"","type":"bool","internalType":"bool"}],"stateMutability":"view"},{"type":"function","name":"isAllowedAsset","inputs":[{"name":"token","type":"address","internalType":"address"}],"outputs":[{"name":"","type":"bool","internalType":"bool"}],"stateMutability":"view"},{"type":"function","name":"isAllowedCallSite","inputs":[{"name":"target","type":"address","internalType":"address"},{"name":"selector","type":"bytes4","internalType":"bytes4"}],"outputs":[{"name":"","type":"bool","internalType":"bool"}],"stateMutability":"view"},{"type":"function","name":"isAllowedReceiver","inputs":[{"name":"receiver","type":"address","internalType":"address"}],"outputs":[{"name":"","type":"bool","internalType":"bool"}],"stateMutability":"view"},{"type":"function","name":"isAllowedSender","inputs":[{"name":"sender","type":"address","internalType":"address"}],"outputs":[{"name":"","type":"bool","internalType":"bool"}],"stateMutability":"view"},{"type":"function","name":"isAllowedWithdrawDestination","inputs":[{"name":"receiver","type":"address","internalType":"address"}],"outputs":[{"name":"","type":"bool","internalType":"bool"}],"stateMutability":"view"},{"type":"function","name":"owner","inputs":[],"outputs":[{"name":"","type":"address","internalType":"address"}],"stateMutability":"view"},{"type":"function","name":"removeApprovalDestination","inputs":[{"name":"destination","type":"address","internalType":"address"},{"name":"notes","type":"string","internalType":"string"}],"outputs":[],"stateMutability":"nonpayable"},{"type":"function","name":"removeAsset","inputs":[{"name":"asset","type":"address","internalType":"address"},{"name":"notes","type":"string","internalType":"string"}],"outputs":[],"stateMutability":"nonpayable"},{"type":"function","name":"removeCallSite","inputs":[{"name":"target","type":"address","internalType":"address"},{"name":"selector","type":"bytes4","internalType":"bytes4"},{"name":"notes","type":"string","internalType":"string"}],"outputs":[],"stateMutability":"nonpayable"},{"type":"function","name":"removeReceiver","inputs":[{"name":"receiver","type":"address","internalType":"address"},{"name":"notes","type":"string","internalType":"string"}],"outputs":[],"stateMutability":"nonpayable"},{"type":"function","name":"removeSender","inputs":[{"name":"sender","type":"address","internalType":"address"},{"name":"notes","type":"string","internalType":"string"}],"outputs":[],"stateMutability":"nonpayable"},{"type":"function","name":"removeWithdrawDestination","inputs":[{"name":"destination","type":"address","internalType":"address"},{"name":"notes","type":"string","internalType":"string"}],"outputs":[],"stateMutability":"nonpayable"},{"type":"function","name":"renounceOwnership","inputs":[],"outputs":[],"stateMutability":"nonpayable"},{"type":"function","name":"transferOwnership","inputs":[{"name":"newOwner","type":"address","internalType":"address"}],"outputs":[],"stateMutability":"nonpayable"},{"type":"function","name":"validateCall","inputs":[{"name":"sender","type":"address","internalType":"address"},{"name":"target","type":"address","internalType":"address"},{"name":"callDataWithSelector","type":"bytes","internalType":"bytes"}],"outputs":[],"stateMutability":"view"},{"type":"function","name":"validate_approve","inputs":[{"name":"callData","type":"bytes","internalType":"bytes"}],"outputs":[],"stateMutability":"view"},{"type":"function","name":"validate_exactInput","inputs":[{"name":"callData","type":"bytes","internalType":"bytes"}],"outputs":[],"stateMutability":"view"},{"type":"function","name":"validate_exactOutput","inputs":[{"name":"callData","type":"bytes","internalType":"bytes"}],"outputs":[],"stateMutability":"view"},{"type":"function","name":"validate_swapTokensForExactTokens","inputs":[{"name":"callData","type":"bytes","internalType":"bytes"}],"outputs":[],"stateMutability":"view"},{"type":"function","name":"validate_transfer","inputs":[{"name":"callData","type":"bytes","internalType":"bytes"}],"outputs":[],"stateMutability":"view"},{"type":"function","name":"whitelistToken","inputs":[{"name":"token","type":"address","internalType":"address"},{"name":"notes","type":"string","internalType":"string"}],"outputs":[],"stateMutability":"nonpayable"},{"type":"function","name":"whitelistUniswapV2Router","inputs":[{"name":"router","type":"address","internalType":"address"},{"name":"notes","type":"string","internalType":"string"}],"outputs":[],"stateMutability":"nonpayable"},{"type":"function","name":"whitelistUniswapV3Router","inputs":[{"name":"router","type":"address","internalType":"address"},{"name":"notes","type":"string","internalType":"string"}],"outputs":[],"stateMutability":"nonpayable"},{"type":"event","name":"ApprovalDestinationApproved","inputs":[{"name":"sender","type":"address","indexed":false,"internalType":"address"},{"name":"notes","type":"string","indexed":false,"internalType":"string"}],"anonymous":false},{"type":"event","name":"ApprovalDestinationRemoved","inputs":[{"name":"sender","type":"address","indexed":false,"internalType":"address"},{"name":"notes","type":"string","indexed":false,"internalType":"string"}],"anonymous":false},{"type":"event","name":"AssetApproved","inputs":[{"name":"sender","type":"address","indexed":false,"internalType":"address"},{"name":"notes","type":"string","indexed":false,"internalType":"string"}],"anonymous":false},{"type":"event","name":"AssetRemoved","inputs":[{"name":"sender","type":"address","indexed":false,"internalType":"address"},{"name":"notes","type":"string","indexed":false,"internalType":"string"}],"anonymous":false},{"type":"event","name":"CallSiteApproved","inputs":[{"name":"target","type":"address","indexed":false,"internalType":"address"},{"name":"selector","type":"bytes4","indexed":false,"internalType":"bytes4"},{"name":"notes","type":"string","indexed":false,"internalType":"string"}],"anonymous":false},{"type":"event","name":"CallSiteRemoved","inputs":[{"name":"target","type":"address","indexed":false,"internalType":"address"},{"name":"selector","type":"bytes4","indexed":false,"internalType":"bytes4"},{"name":"notes","type":"string","indexed":false,"internalType":"string"}],"anonymous":false},{"type":"event","name":"OwnershipTransferred","inputs":[{"name":"previousOwner","type":"address","indexed":true,"internalType":"address"},{"name":"newOwner","type":"address","indexed":true,"internalType":"address"}],"anonymous":false},{"type":"event","name":"ReceiverApproved","inputs":[{"name":"sender","type":"address","indexed":false,"internalType":"address"},{"name":"notes","type":"string","indexed":false,"internalType":"string"}],"anonymous":false},{"type":"event","name":"ReceiverRemoved","inputs":[{"name":"sender","type":"address","indexed":false,"internalType":"address"},{"name":"notes","type":"string","indexed":false,"internalType":"string"}],"anonymous":false},{"type":"event","name":"SenderApproved","inputs":[{"name":"sender","type":"address","indexed":false,"internalType":"address"},{"name":"notes","type":"string","indexed":false,"internalType":"string"}],"anonymous":false},{"type":"event","name":"SenderRemoved","inputs":[{"name":"sender","type":"address","indexed":false,"internalType":"address"},{"name":"notes","type":"string","indexed":false,"internalType":"string"}],"anonymous":false},{"type":"event","name":"WithdrawDestinationApproved","inputs":[{"name":"sender","type":"address","indexed":false,"internalType":"address"},{"name":"notes","type":"string","indexed":false,"internalType":"string"}],"anonymous":false},{"type":"event","name":"WithdrawDestinationRemoved","inputs":[{"name":"sender","type":"address","indexed":false,"internalType":"address"},{"name":"notes","type":"string","indexed":false,"internalType":"string"}],"anonymous":false}],"bytecode":{"object":"0x608060405234801561001057600080fd5b5061001a3361001f565b61006f565b600080546001600160a01b038381166001600160a01b0319831681178455604051919092169283917f8be0079c531659141344cd1fd0a4f28419497f9722a3daafe3b4186f6b6457e09190a35050565b611ae88061007e6000396000f3fe608060405234801561001057600080fd5b506004361061023d5760003560e01c80638da5cb5b1161013b578063e98539c5116100b8578063f2fde38b1161007c578063f2fde38b146105a8578063f901dc33146105bb578063fa2c59c8146105ce578063fadbcf48146105e1578063fdedfa271461060457600080fd5b8063e98539c51461028f578063eb0de0421461052e578063ebe2681614610551578063ee5462cc14610564578063efb47bff1461057757600080fd5b8063a9fc3d4f116100ff578063a9fc3d4f1461048f578063be8c97b0146104a6578063c537bed0146104d7578063d075f9bb146104ea578063d7334c9d1461051b57600080fd5b80638da5cb5b1461040757806398b3cc3914610418578063a4c1cccb1461042b578063a67e1f541461044e578063a847cf4d1461046157600080fd5b80634b956bd8116101c9578063715018a61161018d578063715018a6146103a157806372e548a9146103a957806373252494146103bc57806386b6dbe5146103e15780638c2fdf9e146103f457600080fd5b80634b956bd8146103425780635ace1d92146103555780635e4ccace146103685780636d5025f11461037b578063713ebf3b1461038e57600080fd5b80631d49039c116102105780631d49039c146102b55780632d12d788146102e657806334ec8d7e146102f95780633cf200251461030c5780633ea355511461032f57600080fd5b806304a3ba251461024257806307ef00cf146102575780631202f5e51461028f5780631710a4f2146102a2575b600080fd5b610255610250366004611474565b610613565b005b61027a6102653660046114c9565b60066020526000908152604090205460ff1681565b60405190151581526020015b60405180910390f35b61025561029d366004611534565b61067c565b6102556102b0366004611534565b6107d0565b61027a6102c33660046114c9565b6001600160a01b031660009081526007602052604090205460ff16151560011490565b6102556102f4366004611474565b610830565b610255610307366004611474565b61088c565b61027a61031a3660046114c9565b60056020526000908152604090205460ff1681565b61025561033d366004611474565b6108f2565b610255610350366004611534565b61091d565b610255610363366004611474565b6109a9565b6102556103763660046115e6565b610a08565b610255610389366004611649565b610a9e565b61027a61039c36600461167a565b610d7d565b610255610db5565b6102556103b7366004611474565b610dc9565b6000546001600160a01b03165b6040516001600160a01b039091168152602001610286565b6102556103ef366004611474565b610e28565b610255610402366004611474565b610e87565b6000546001600160a01b03166103c9565b610255610426366004611474565b610ee3565b61027a6104393660046114c9565b60036020526000908152604090205460ff1681565b61025561045c366004611474565b610f42565b61027a61046f36600461167a565b600160209081526000928352604080842090915290825290205460ff1681565b61049860025481565b604051908152602001610286565b61027a6104b43660046114c9565b6001600160a01b031660009081526004602052604090205460ff16151560011490565b61027a6104e53660046114c9565b610f9e565b61027a6104f83660046114c9565b6001600160a01b031660009081526005602052604090205460ff16151560011490565b6102556105293660046115e6565b610fc1565b61027a61053c3660046114c9565b60076020526000908152604090205460ff1681565b61025561055f3660046116af565b611034565b610255610572366004611474565b611178565b61027a6105853660046114c9565b6001600160a01b031660009081526006602052604090205460ff16151560011490565b6102556105b63660046114c9565b611238565b6102556105c9366004611474565b6112b1565b6102556105dc366004611474565b61130d565b61027a6105ef3660046114c9565b60046020526000908152604090205460ff1681565b60405160018152602001610286565b61061b61136c565b6001600160a01b03831660009081526007602052604090819020805460ff19169055517fb71be9befd3ac90c1c9981d3b1161b3c2c6dcd741f13b34061aa251226a802df9061066f9085908590859061171a565b60405180910390a1505050565b600080828060200190518101906106939190611777565b509350935050506000826000815181106106af576106af611846565b60200260200101519050600083600185516106ca9190611872565b815181106106da576106da611846565b6020026020010151905061070b836001600160a01b031660009081526005602052604090205460ff16151560011490565b6107305760405162461bcd60e51b815260040161072790611885565b60405180910390fd5b61073982610f9e565b61077c5760405162461bcd60e51b8152602060048201526014602482015273151bdad95b881a5b881b9bdd08185b1b1bddd95960621b6044820152606401610727565b61078581610f9e565b6107c95760405162461bcd60e51b8152602060048201526015602482015274151bdad95b881bdd5d081b9bdd08185b1b1bddd959605a1b6044820152606401610727565b5050505050565b6000818060200190518101906107e691906118bc565b509050610810816001600160a01b031660009081526006602052604090205460ff16151560011490565b61082c5760405162461bcd60e51b815260040161072790611885565b5050565b61083861136c565b6001600160a01b03831660009081526005602052604090819020805460ff19169055517f4e13b11ab98e672bd78295ef9cebe764dc617f95decf47d842c25b83abc0c7249061066f9085908590859061171a565b6040805180820190915260118152706578616374496e7075742862797465732960781b6020909101526108e2837f89cf0f4a3e56566bb71b8cd02ffe8b3486a64a83541ead2c027e3d6207b121d55b8484610a08565b6108ed838383610ee3565b505050565b6108e2836108db604051806080016040528060438152602001611a7060439139805160209091012090565b60008180602001905181019061093391906118bc565b50905061095d816001600160a01b031660009081526007602052604090205460ff16151560011490565b61082c5760405162461bcd60e51b815260206004820152601e60248201527f417070726f7665206164647265737320646f6573206e6f74206d6174636800006044820152606401610727565b6109b161136c565b6001600160a01b03831660009081526006602052604090819020805460ff19166001179055517f3562181221a42a19ddd03a82dfe06acab1905ceb65cdaf7d86a1d9fec66435529061066f9085908590859061171a565b610a1061136c565b6001600160a01b03841660009081526001602081815260408084206001600160e01b0319881685529091528220805460ff191690911790556002805491610a56836118ea565b91905055507fef729aaa41b9fd994f9ff7c1960df214a84f722002e6cfbea31799cd0873a3ef84848484604051610a909493929190611903565b60405180910390a150505050565b6000546001600160a01b03858116911614610d7757610ada846001600160a01b031660009081526004602052604090205460ff16151560011490565b610b1b5760405162461bcd60e51b815260206004820152601260248201527114d95b99195c881b9bdd08185b1b1bddd95960721b6044820152606401610727565b6000610b2a6004828486611942565b610b339161196c565b9050366000610b458460048188611942565b91509150610b538684610d7d565b610b975760405162461bcd60e51b815260206004820152601560248201527410d85b1b081cda5d19481b9bdd08185b1b1bddd959605a1b6044820152606401610727565b610bbe604051806080016040528060438152602001611a7060439139805160209091012090565b6001600160e01b031916836001600160e01b03191603610c1c57610c1782828080601f01602080910402602001604051908101604052809392919081815260200183838082843760009201919091525061067c92505050565b610d73565b6040805180820190915260198152787472616e7366657228616464726573732c75696e743235362960381b6020909101526356fa634560e01b6001600160e01b0319841601610ca457610c1782828080601f0160208091040260200160405190810160405280939291908181526020018383808284376000920191909152506107d092505050565b604080518082019091526018815277617070726f766528616464726573732c75696e743235362960401b60209091015263f6a1584d60e01b6001600160e01b0319841601610d2b57610c1782828080601f01602080910402602001604051908101604052809392919081815260200183838082843760009201919091525061091d92505050565b60405162461bcd60e51b815260206004820152601960248201527f556e6b6e6f776e2066756e6374696f6e2073656c6563746f72000000000000006044820152606401610727565b5050505b50505050565b6001600160a01b03821660009081526001602090815260408083206001600160e01b03198516845290915290205460ff165b92915050565b610dbd61136c565b610dc760006113c6565b565b610dd161136c565b6001600160a01b03831660009081526005602052604090819020805460ff19166001179055517f62dd88c5ecfa60713a657640ebec4de26fc1aefa4afdb24e6d15a124fce727799061066f9085908590859061171a565b610e3061136c565b6001600160a01b03831660009081526003602052604090819020805460ff19166001179055517fad90e2570fc4fe9f7437be3188d5c791c6662892d31731992aa88f5c876219839061066f9085908590859061171a565b610e8f61136c565b6001600160a01b03831660009081526006602052604090819020805460ff19169055517f1212f8ddb39de8e1a339460c95752d61100723efeaa34ccd94bca94393f409389061066f9085908590859061171a565b610eeb61136c565b6001600160a01b03831660009081526007602052604090819020805460ff19166001179055517f628a44970c0e450415e3ae74334ea44f3307b74dbf677a1371190242bf2f35899061066f9085908590859061171a565b610f4a61136c565b6001600160a01b03831660009081526004602052604090819020805460ff19169055517f3097928509c53a2dab9500431201d82b0d756e8f890fd01f4ae6b33b45687ea49061066f9085908590859061171a565b6001600160a01b031660009081526003602052604090205460ff16151560011490565b610fc961136c565b6001600160a01b03841660009081526001602090815260408083206001600160e01b03198716845290915290819020805460ff19169055517f37ea10f2d08f5a9803dfcd5abf3cfc7b0d6fcdf5fcbc36be9ea5a0b53d9a4d9b90610a90908690869086908690611903565b600080611043838501856119a7565b5093509350505060008260008151811061105f5761105f611846565b602002602001015190506000836001855161107a9190611872565b8151811061108a5761108a611846565b602002602001015190506110bb836001600160a01b031660009081526005602052604090205460ff16151560011490565b6110d75760405162461bcd60e51b815260040161072790611885565b6110e082610f9e565b6111235760405162461bcd60e51b8152602060048201526014602482015273151bdad95b881a5b881b9bdd08185b1b1bddd95960621b6044820152606401610727565b61112c81610f9e565b6111705760405162461bcd60e51b8152602060048201526015602482015274151bdad95b881bdd5d081b9bdd08185b1b1bddd959605a1b6044820152606401610727565b505050505050565b6040805180820190915260198152787472616e7366657228616464726573732c75696e743235362960381b6020909101526111d3837fa9059cbb2ab09eb219583f4a59a5d0623ade346d962bcd4e46b11da047c9049b6108db565b604080518082019091526018815277617070726f766528616464726573732c75696e743235362960401b60209091015261122d837f095ea7b334ae44009aa867bfb386f5c3b4b443ac6f0ee573fa91c4608fbadfba6108db565b6108ed838383610e28565b61124061136c565b6001600160a01b0381166112a55760405162461bcd60e51b815260206004820152602660248201527f4f776e61626c653a206e6577206f776e657220697320746865207a65726f206160448201526564647265737360d01b6064820152608401610727565b6112ae816113c6565b50565b6112b961136c565b6001600160a01b03831660009081526003602052604090819020805460ff19169055517f9ca3f065622f5f03f32b7157677a0e420c3a36ab45fd49f256ffebce3e3105879061066f9085908590859061171a565b61131561136c565b6001600160a01b03831660009081526004602052604090819020805460ff19166001179055517fa8f9caaf4861720900294428e4ff34d37070c37afd26d96e6e4da75326d2c3ad9061066f9085908590859061171a565b6000546001600160a01b03163314610dc75760405162461bcd60e51b815260206004820181905260248201527f4f776e61626c653a2063616c6c6572206973206e6f7420746865206f776e65726044820152606401610727565b600080546001600160a01b038381166001600160a01b0319831681178455604051919092169283917f8be0079c531659141344cd1fd0a4f28419497f9722a3daafe3b4186f6b6457e09190a35050565b6001600160a01b03811681146112ae57600080fd5b60008083601f84011261143d57600080fd5b50813567ffffffffffffffff81111561145557600080fd5b60208301915083602082850101111561146d57600080fd5b9250929050565b60008060006040848603121561148957600080fd5b833561149481611416565b9250602084013567ffffffffffffffff8111156114b057600080fd5b6114bc8682870161142b565b9497909650939450505050565b6000602082840312156114db57600080fd5b81356114e681611416565b9392505050565b634e487b7160e01b600052604160045260246000fd5b604051601f8201601f1916810167ffffffffffffffff8111828210171561152c5761152c6114ed565b604052919050565b6000602080838503121561154757600080fd5b823567ffffffffffffffff8082111561155f57600080fd5b818501915085601f83011261157357600080fd5b813581811115611585576115856114ed565b611597601f8201601f19168501611503565b915080825286848285010111156115ad57600080fd5b8084840185840137600090820190930192909252509392505050565b80356001600160e01b0319811681146115e157600080fd5b919050565b600080600080606085870312156115fc57600080fd5b843561160781611416565b9350611615602086016115c9565b9250604085013567ffffffffffffffff81111561163157600080fd5b61163d8782880161142b565b95989497509550505050565b6000806000806060858703121561165f57600080fd5b843561166a81611416565b9350602085013561161581611416565b6000806040838503121561168d57600080fd5b823561169881611416565b91506116a6602084016115c9565b90509250929050565b600080602083850312156116c257600080fd5b823567ffffffffffffffff8111156116d957600080fd5b6116e58582860161142b565b90969095509350505050565b81835281816020850137506000828201602090810191909152601f909101601f19169091010190565b6001600160a01b038416815260406020820181905260009061173f90830184866116f1565b95945050505050565b600067ffffffffffffffff821115611762576117626114ed565b5060051b60200190565b80516115e181611416565b600080600080600060a0868803121561178f57600080fd5b855194506020808701519450604087015167ffffffffffffffff8111156117b557600080fd5b8701601f810189136117c657600080fd5b80516117d96117d482611748565b611503565b81815260059190911b8201830190838101908b8311156117f857600080fd5b928401925b8284101561181f57835161181081611416565b825292840192908401906117fd565b80975050505050506118336060870161176c565b9150608086015190509295509295909350565b634e487b7160e01b600052603260045260246000fd5b634e487b7160e01b600052601160045260246000fd5b81810381811115610daf57610daf61185c565b6020808252601f908201527f5265636569766572206164647265737320646f6573206e6f74206d6174636800604082015260600190565b600080604083850312156118cf57600080fd5b82516118da81611416565b6020939093015192949293505050565b6000600182016118fc576118fc61185c565b5060010190565b6001600160a01b03851681526001600160e01b03198416602082015260606040820181905260009061193890830184866116f1565b9695505050505050565b6000808585111561195257600080fd5b8386111561195f57600080fd5b5050820193919092039150565b6001600160e01b031981358181169160048510156119945780818660040360031b1b83161692505b505092915050565b80356115e181611416565b600080600080600060a086880312156119bf57600080fd5b853594506020808701359450604087013567ffffffffffffffff8111156119e557600080fd5b8701601f810189136119f657600080fd5b8035611a046117d482611748565b81815260059190911b8201830190838101908b831115611a2357600080fd5b928401925b82841015611a4a578335611a3b81611416565b82529284019290840190611a28565b8097505050505050611a5e6060870161199c565b94979396509194608001359291505056fe737761704578616374546f6b656e73466f72546f6b656e732875696e743235362c75696e743235362c616464726573735b5d2c616464726573732c75696e7432353629a2646970667358221220c868256ef0d2302096bc38eef29df62764f4c749d10b9a87adb1e7ae2259825d64736f6c63430008170033","linkReferences":{}},"methodIdentifiers":{"allowApprovalDestination(address,string)":"98b3cc39","allowAsset(address,string)":"86b6dbe5","allowCallSite(address,bytes4,string)":"5e4ccace","allowReceiver(address,string)":"72e548a9","allowSender(address,string)":"fa2c59c8","allowWithdrawDestination(address,string)":"5ace1d92","allowedApprovalDestinations(address)":"eb0de042","allowedAssets(address)":"a4c1cccb","allowedCallSites(address,bytes4)":"a847cf4d","allowedReceivers(address)":"3cf20025","allowedSenders(address)":"fadbcf48","allowedWithdrawDestinations(address)":"07ef00cf","callSiteCount()":"a9fc3d4f","getGovernanceAddress()":"73252494","getInternalVersion()":"fdedfa27","isAllowedApprovalDestination(address)":"1d49039c","isAllowedAsset(address)":"c537bed0","isAllowedCallSite(address,bytes4)":"713ebf3b","isAllowedReceiver(address)":"d075f9bb","isAllowedSender(address)":"be8c97b0","isAllowedWithdrawDestination(address)":"efb47bff","owner()":"8da5cb5b","removeApprovalDestination(address,string)":"04a3ba25","removeAsset(address,string)":"f901dc33","removeCallSite(address,bytes4,string)":"d7334c9d","removeReceiver(address,string)":"2d12d788","removeSender(address,string)":"a67e1f54","removeWithdrawDestination(address,string)":"8c2fdf9e","renounceOwnership()":"715018a6","transferOwnership(address)":"f2fde38b","validateCall(address,address,bytes)":"6d5025f1","validate_approve(bytes)":"4b956bd8","validate_exactInput(bytes)":"ebe26816","validate_exactOutput(bytes)":"e98539c5","validate_swapTokensForExactTokens(bytes)":"1202f5e5","validate_transfer(bytes)":"1710a4f2","whitelistToken(address,string)":"ee5462cc","whitelistUniswapV2Router(address,string)":"3ea35551","whitelistUniswapV3Router(address,string)":"34ec8d7e"},"id":3}