{"abi":[{"type":"constructor","inputs":[],"stateMutability":"nonpayable"},{"type":"function","name":"allowApprovalDestination","inputs":[{"name":"destination","type":"address","internalType":"address"},{"name":"notes","type":"string","internalType":"string"}],"outputs":[],"stateMutability":"nonpayable"},{"type":"function","name":"allowAsset","inputs":[{"name":"asset","type":"address","internalType":"address"},{"name":"notes","type":"string","internalType":"string"}],"outputs":[],"stateMutability":"nonpayable"},{"type":"function","name":"allowCallSite","inputs":[{"name":"target","type":"address","internalType":"address"},{"name":"selector","type":"bytes4","internalType":"bytes4"},{"name":"notes","type":"string","internalType":"string"}],"outputs":[],"stateMutability":"nonpayable"},{"type":"function","name":"allowDelegationApprovalDestination","inputs":[{"name":"destination","type":"address","internalType":"address"},{"name":"notes","type":"string","internalType":"string"}],"outputs":[],"stateMutability":"nonpayable"},{"type":"function","name":"allowReceiver","inputs":[{"name":"receiver","type":"address","internalType":"address"},{"name":"notes","type":"string","internalType":"string"}],"outputs":[],"stateMutability":"nonpayable"},{"type":"function","name":"allowSender","inputs":[{"name":"sender","type":"address","internalType":"address"},{"name":"notes","type":"string","internalType":"string"}],"outputs":[],"stateMutability":"nonpayable"},{"type":"function","name":"allowWithdrawDestination","inputs":[{"name":"destination","type":"address","internalType":"address"},{"name":"notes","type":"string","internalType":"string"}],"outputs":[],"stateMutability":"nonpayable"},{"type":"function","name":"allowedApprovalDestinations","inputs":[{"name":"destination","type":"address","internalType":"address"}],"outputs":[{"name":"allowed","type":"bool","internalType":"bool"}],"stateMutability":"view"},{"type":"function","name":"allowedAssets","inputs":[{"name":"token","type":"address","internalType":"address"}],"outputs":[{"name":"allowed","type":"bool","internalType":"bool"}],"stateMutability":"view"},{"type":"function","name":"allowedCCTPDestinations","inputs":[{"name":"domain","type":"uint32","internalType":"uint32"}],"outputs":[{"name":"allowed","type":"bool","internalType":"bool"}],"stateMutability":"view"},{"type":"function","name":"allowedCCTPMessengers","inputs":[{"name":"messenger","type":"address","internalType":"address"}],"outputs":[{"name":"allowed","type":"bool","internalType":"bool"}],"stateMutability":"view"},{"type":"function","name":"allowedCallSites","inputs":[{"name":"target","type":"address","internalType":"address"},{"name":"selector","type":"bytes4","internalType":"bytes4"}],"outputs":[{"name":"allowed","type":"bool","internalType":"bool"}],"stateMutability":"view"},{"type":"function","name":"allowedDelegationApprovalDestinations","inputs":[{"name":"destination","type":"address","internalType":"address"}],"outputs":[{"name":"allowed","type":"bool","internalType":"bool"}],"stateMutability":"view"},{"type":"function","name":"allowedLagoonVaults","inputs":[{"name":"vault","type":"address","internalType":"address"}],"outputs":[{"name":"","type":"bool","internalType":"bool"}],"stateMutability":"view"},{"type":"function","name":"allowedReceivers","inputs":[{"name":"receiver","type":"address","internalType":"address"}],"outputs":[{"name":"allowed","type":"bool","internalType":"bool"}],"stateMutability":"view"},{"type":"function","name":"allowedSenders","inputs":[{"name":"sender","type":"address","internalType":"address"}],"outputs":[{"name":"allowed","type":"bool","internalType":"bool"}],"stateMutability":"view"},{"type":"function","name":"allowedTargets","inputs":[{"name":"target","type":"address","internalType":"address"}],"outputs":[{"name":"allowed","type":"bool","internalType":"bool"}],"stateMutability":"view"},{"type":"function","name":"allowedWithdrawDestinations","inputs":[{"name":"destination","type":"address","internalType":"address"}],"outputs":[{"name":"allowed","type":"bool","internalType":"bool"}],"stateMutability":"view"},{"type":"function","name":"anyAsset","inputs":[],"outputs":[{"name":"","type":"bool","internalType":"bool"}],"stateMutability":"view"},{"type":"function","name":"callSiteCount","inputs":[],"outputs":[{"name":"","type":"uint256","internalType":"uint256"}],"stateMutability":"view"},{"type":"function","name":"getGovernanceAddress","inputs":[],"outputs":[{"name":"","type":"address","internalType":"address"}],"stateMutability":"view"},{"type":"function","name":"getInternalVersion","inputs":[],"outputs":[{"name":"","type":"uint8","internalType":"uint8"}],"stateMutability":"pure"},{"type":"function","name":"getLagoonSettlementConfig","inputs":[{"name":"vault","type":"address","internalType":"address"}],"outputs":[{"name":"allowed","type":"bool","internalType":"bool"},{"name":"limitEnabled","type":"bool","internalType":"bool"},{"name":"asset","type":"address","internalType":"address"},{"name":"pendingSilo","type":"address","internalType":"address"},{"name":"maxSettlementAmount","type":"uint256","internalType":"uint256"}],"stateMutability":"view"},{"type":"function","name":"gmxOrderVaults","inputs":[{"name":"exchangeRouter","type":"address","internalType":"address"}],"outputs":[{"name":"","type":"address","internalType":"address"}],"stateMutability":"view"},{"type":"function","name":"isAllowedApprovalDestination","inputs":[{"name":"receiver","type":"address","internalType":"address"}],"outputs":[{"name":"","type":"bool","internalType":"bool"}],"stateMutability":"view"},{"type":"function","name":"isAllowedAsset","inputs":[{"name":"token","type":"address","internalType":"address"}],"outputs":[{"name":"","type":"bool","internalType":"bool"}],"stateMutability":"view"},{"type":"function","name":"isAllowedCCTPDestination","inputs":[{"name":"domain","type":"uint32","internalType":"uint32"}],"outputs":[{"name":"","type":"bool","internalType":"bool"}],"stateMutability":"view"},{"type":"function","name":"isAllowedCCTPMessenger","inputs":[{"name":"messenger","type":"address","internalType":"address"}],"outputs":[{"name":"","type":"bool","internalType":"bool"}],"stateMutability":"view"},{"type":"function","name":"isAllowedCallSite","inputs":[{"name":"target","type":"address","internalType":"address"},{"name":"selector","type":"bytes4","internalType":"bytes4"}],"outputs":[{"name":"","type":"bool","internalType":"bool"}],"stateMutability":"view"},{"type":"function","name":"isAllowedCowSwap","inputs":[{"name":"settlement","type":"address","internalType":"address"}],"outputs":[{"name":"","type":"bool","internalType":"bool"}],"stateMutability":"view"},{"type":"function","name":"isAllowedDelegationApprovalDestination","inputs":[{"name":"receiver","type":"address","internalType":"address"}],"outputs":[{"name":"","type":"bool","internalType":"bool"}],"stateMutability":"view"},{"type":"function","name":"isAllowedGMXMarket","inputs":[{"name":"market","type":"address","internalType":"address"}],"outputs":[{"name":"","type":"bool","internalType":"bool"}],"stateMutability":"view"},{"type":"function","name":"isAllowedGMXRouter","inputs":[{"name":"router","type":"address","internalType":"address"}],"outputs":[{"name":"","type":"bool","internalType":"bool"}],"stateMutability":"view"},{"type":"function","name":"isAllowedLagoonVault","inputs":[{"name":"vault","type":"address","internalType":"address"}],"outputs":[{"name":"","type":"bool","internalType":"bool"}],"stateMutability":"view"},{"type":"function","name":"isAllowedLighter","inputs":[{"name":"zkLighter","type":"address","internalType":"address"}],"outputs":[{"name":"","type":"bool","internalType":"bool"}],"stateMutability":"view"},{"type":"function","name":"isAllowedLighterAssetIndex","inputs":[{"name":"assetIndex","type":"uint16","internalType":"uint16"}],"outputs":[{"name":"","type":"bool","internalType":"bool"}],"stateMutability":"view"},{"type":"function","name":"isAllowedReceiver","inputs":[{"name":"receiver","type":"address","internalType":"address"}],"outputs":[{"name":"","type":"bool","internalType":"bool"}],"stateMutability":"view"},{"type":"function","name":"isAllowedSender","inputs":[{"name":"sender","type":"address","internalType":"address"}],"outputs":[{"name":"","type":"bool","internalType":"bool"}],"stateMutability":"view"},{"type":"function","name":"isAllowedTarget","inputs":[{"name":"target","type":"address","internalType":"address"}],"outputs":[{"name":"","type":"bool","internalType":"bool"}],"stateMutability":"view"},{"type":"function","name":"isAllowedVeloraSwapper","inputs":[{"name":"swapper","type":"address","internalType":"address"}],"outputs":[{"name":"","type":"bool","internalType":"bool"}],"stateMutability":"view"},{"type":"function","name":"isAllowedWithdrawDestination","inputs":[{"name":"receiver","type":"address","internalType":"address"}],"outputs":[{"name":"","type":"bool","internalType":"bool"}],"stateMutability":"view"},{"type":"function","name":"multicall","inputs":[{"name":"data","type":"bytes[]","internalType":"bytes[]"}],"outputs":[{"name":"results","type":"bytes[]","internalType":"bytes[]"}],"stateMutability":"payable"},{"type":"function","name":"owner","inputs":[],"outputs":[{"name":"","type":"address","internalType":"address"}],"stateMutability":"view"},{"type":"function","name":"removeApprovalDestination","inputs":[{"name":"destination","type":"address","internalType":"address"},{"name":"notes","type":"string","internalType":"string"}],"outputs":[],"stateMutability":"nonpayable"},{"type":"function","name":"removeAsset","inputs":[{"name":"asset","type":"address","internalType":"address"},{"name":"notes","type":"string","internalType":"string"}],"outputs":[],"stateMutability":"nonpayable"},{"type":"function","name":"removeCCTPDestination","inputs":[{"name":"domain","type":"uint32","internalType":"uint32"},{"name":"notes","type":"string","internalType":"string"}],"outputs":[],"stateMutability":"nonpayable"},{"type":"function","name":"removeCallSite","inputs":[{"name":"target","type":"address","internalType":"address"},{"name":"selector","type":"bytes4","internalType":"bytes4"},{"name":"notes","type":"string","internalType":"string"}],"outputs":[],"stateMutability":"nonpayable"},{"type":"function","name":"removeDelegationApprovalDestination","inputs":[{"name":"destination","type":"address","internalType":"address"},{"name":"notes","type":"string","internalType":"string"}],"outputs":[],"stateMutability":"nonpayable"},{"type":"function","name":"removeGMXMarket","inputs":[{"name":"market","type":"address","internalType":"address"},{"name":"notes","type":"string","internalType":"string"}],"outputs":[],"stateMutability":"nonpayable"},{"type":"function","name":"removeHypercoreVault","inputs":[{"name":"vault","type":"address","internalType":"address"},{"name":"notes","type":"string","internalType":"string"}],"outputs":[],"stateMutability":"nonpayable"},{"type":"function","name":"removeReceiver","inputs":[{"name":"receiver","type":"address","internalType":"address"},{"name":"notes","type":"string","internalType":"string"}],"outputs":[],"stateMutability":"nonpayable"},{"type":"function","name":"removeSender","inputs":[{"name":"sender","type":"address","internalType":"address"},{"name":"notes","type":"string","internalType":"string"}],"outputs":[],"stateMutability":"nonpayable"},{"type":"function","name":"removeWithdrawDestination","inputs":[{"name":"destination","type":"address","internalType":"address"},{"name":"notes","type":"string","internalType":"string"}],"outputs":[],"stateMutability":"nonpayable"},{"type":"function","name":"renounceOwnership","inputs":[],"outputs":[],"stateMutability":"nonpayable"},{"type":"function","name":"setAnyAssetAllowed","inputs":[{"name":"value","type":"bool","internalType":"bool"},{"name":"notes","type":"string","internalType":"string"}],"outputs":[],"stateMutability":"nonpayable"},{"type":"function","name":"transferOwnership","inputs":[{"name":"newOwner","type":"address","internalType":"address"}],"outputs":[],"stateMutability":"nonpayable"},{"type":"function","name":"validateCall","inputs":[{"name":"sender","type":"address","internalType":"address"},{"name":"target","type":"address","internalType":"address"},{"name":"callDataWithSelector","type":"bytes","internalType":"bytes"}],"outputs":[],"stateMutability":"view"},{"type":"function","name":"whitelistAaveV3","inputs":[{"name":"lendingPool","type":"address","internalType":"address"},{"name":"notes","type":"string","internalType":"string"}],"outputs":[],"stateMutability":"nonpayable"},{"type":"function","name":"whitelistCCTP","inputs":[{"name":"tokenMessenger","type":"address","internalType":"address"},{"name":"notes","type":"string","internalType":"string"}],"outputs":[],"stateMutability":"nonpayable"},{"type":"function","name":"whitelistCCTPDestination","inputs":[{"name":"domain","type":"uint32","internalType":"uint32"},{"name":"notes","type":"string","internalType":"string"}],"outputs":[],"stateMutability":"nonpayable"},{"type":"function","name":"whitelistCoreWriter","inputs":[{"name":"coreWriter","type":"address","internalType":"address"},{"name":"coreDepositWallet","type":"address","internalType":"address"},{"name":"notes","type":"string","internalType":"string"}],"outputs":[],"stateMutability":"nonpayable"},{"type":"function","name":"whitelistCowSwap","inputs":[{"name":"settlementContract","type":"address","internalType":"address"},{"name":"relayerContract","type":"address","internalType":"address"},{"name":"notes","type":"string","internalType":"string"}],"outputs":[],"stateMutability":"nonpayable"},{"type":"function","name":"whitelistERC4626","inputs":[{"name":"vault","type":"address","internalType":"address"},{"name":"notes","type":"string","internalType":"string"}],"outputs":[],"stateMutability":"nonpayable"},{"type":"function","name":"whitelistGMX","inputs":[{"name":"exchangeRouter","type":"address","internalType":"address"},{"name":"syntheticsRouter","type":"address","internalType":"address"},{"name":"orderVault","type":"address","internalType":"address"},{"name":"collateralTokens","type":"address[]","internalType":"address[]"},{"name":"notes","type":"string","internalType":"string"}],"outputs":[],"stateMutability":"nonpayable"},{"type":"function","name":"whitelistGMXMarket","inputs":[{"name":"market","type":"address","internalType":"address"},{"name":"notes","type":"string","internalType":"string"}],"outputs":[],"stateMutability":"nonpayable"},{"type":"function","name":"whitelistHypercoreVault","inputs":[{"name":"vault","type":"address","internalType":"address"},{"name":"notes","type":"string","internalType":"string"}],"outputs":[],"stateMutability":"nonpayable"},{"type":"function","name":"whitelistLagoon","inputs":[{"name":"vault","type":"address","internalType":"address"},{"name":"notes","type":"string","internalType":"string"}],"outputs":[],"stateMutability":"nonpayable"},{"type":"function","name":"whitelistLagoonWithSettlementLimit","inputs":[{"name":"vault","type":"address","internalType":"address"},{"name":"asset","type":"address","internalType":"address"},{"name":"pendingSilo","type":"address","internalType":"address"},{"name":"maxSettlementAmount","type":"uint256","internalType":"uint256"},{"name":"notes","type":"string","internalType":"string"}],"outputs":[],"stateMutability":"nonpayable"},{"type":"function","name":"whitelistLighter","inputs":[{"name":"zkLighter","type":"address","internalType":"address"},{"name":"usdc","type":"address","internalType":"address"},{"name":"assetIndex","type":"uint16","internalType":"uint16"},{"name":"notes","type":"string","internalType":"string"}],"outputs":[],"stateMutability":"nonpayable"},{"type":"function","name":"whitelistToken","inputs":[{"name":"token","type":"address","internalType":"address"},{"name":"notes","type":"string","internalType":"string"}],"outputs":[],"stateMutability":"nonpayable"},{"type":"function","name":"whitelistTokenForDelegation","inputs":[{"name":"token","type":"address","internalType":"address"},{"name":"notes","type":"string","internalType":"string"}],"outputs":[],"stateMutability":"nonpayable"},{"type":"function","name":"whitelistUniswapV2Router","inputs":[{"name":"router","type":"address","internalType":"address"},{"name":"notes","type":"string","internalType":"string"}],"outputs":[],"stateMutability":"nonpayable"},{"type":"function","name":"whitelistUniswapV3Router","inputs":[{"name":"router","type":"address","internalType":"address"},{"name":"notes","type":"string","internalType":"string"}],"outputs":[],"stateMutability":"nonpayable"},{"type":"function","name":"whitelistVelora","inputs":[{"name":"augustusSwapper","type":"address","internalType":"address"},{"name":"tokenTransferProxy","type":"address","internalType":"address"},{"name":"notes","type":"string","internalType":"string"}],"outputs":[],"stateMutability":"nonpayable"},{"type":"event","name":"AnyAssetSet","inputs":[{"name":"value","type":"bool","indexed":false,"internalType":"bool"},{"name":"notes","type":"string","indexed":false,"internalType":"string"}],"anonymous":false},{"type":"event","name":"AnyVaultSet","inputs":[{"name":"value","type":"bool","indexed":false,"internalType":"bool"},{"name":"notes","type":"string","indexed":false,"internalType":"string"}],"anonymous":false},{"type":"event","name":"ApprovalDestinationApproved","inputs":[{"name":"destination","type":"address","indexed":false,"internalType":"address"},{"name":"notes","type":"string","indexed":false,"internalType":"string"}],"anonymous":false},{"type":"event","name":"ApprovalDestinationRemoved","inputs":[{"name":"destination","type":"address","indexed":false,"internalType":"address"},{"name":"notes","type":"string","indexed":false,"internalType":"string"}],"anonymous":false},{"type":"event","name":"AssetApproved","inputs":[{"name":"asset","type":"address","indexed":false,"internalType":"address"},{"name":"notes","type":"string","indexed":false,"internalType":"string"}],"anonymous":false},{"type":"event","name":"AssetRemoved","inputs":[{"name":"asset","type":"address","indexed":false,"internalType":"address"},{"name":"notes","type":"string","indexed":false,"internalType":"string"}],"anonymous":false},{"type":"event","name":"CCTPDestinationApproved","inputs":[{"name":"domain","type":"uint32","indexed":false,"internalType":"uint32"},{"name":"notes","type":"string","indexed":false,"internalType":"string"}],"anonymous":false},{"type":"event","name":"CCTPDestinationRemoved","inputs":[{"name":"domain","type":"uint32","indexed":false,"internalType":"uint32"},{"name":"notes","type":"string","indexed":false,"internalType":"string"}],"anonymous":false},{"type":"event","name":"CCTPMessengerApproved","inputs":[{"name":"tokenMessenger","type":"address","indexed":false,"internalType":"address"},{"name":"notes","type":"string","indexed":false,"internalType":"string"}],"anonymous":false},{"type":"event","name":"CallSiteApproved","inputs":[{"name":"target","type":"address","indexed":false,"internalType":"address"},{"name":"selector","type":"bytes4","indexed":false,"internalType":"bytes4"},{"name":"notes","type":"string","indexed":false,"internalType":"string"}],"anonymous":false},{"type":"event","name":"CallSiteRemoved","inputs":[{"name":"target","type":"address","indexed":false,"internalType":"address"},{"name":"selector","type":"bytes4","indexed":false,"internalType":"bytes4"},{"name":"notes","type":"string","indexed":false,"internalType":"string"}],"anonymous":false},{"type":"event","name":"DelegationApprovalDestinationApproved","inputs":[{"name":"destination","type":"address","indexed":false,"internalType":"address"},{"name":"notes","type":"string","indexed":false,"internalType":"string"}],"anonymous":false},{"type":"event","name":"DelegationApprovalDestinationRemoved","inputs":[{"name":"destination","type":"address","indexed":false,"internalType":"address"},{"name":"notes","type":"string","indexed":false,"internalType":"string"}],"anonymous":false},{"type":"event","name":"ERC4626Approved","inputs":[{"name":"vault","type":"address","indexed":false,"internalType":"address"},{"name":"notes","type":"string","indexed":false,"internalType":"string"}],"anonymous":false},{"type":"event","name":"OwnershipTransferred","inputs":[{"name":"previousOwner","type":"address","indexed":true,"internalType":"address"},{"name":"newOwner","type":"address","indexed":true,"internalType":"address"}],"anonymous":false},{"type":"event","name":"ReceiverApproved","inputs":[{"name":"receiver","type":"address","indexed":false,"internalType":"address"},{"name":"notes","type":"string","indexed":false,"internalType":"string"}],"anonymous":false},{"type":"event","name":"ReceiverRemoved","inputs":[{"name":"receiver","type":"address","indexed":false,"internalType":"address"},{"name":"notes","type":"string","indexed":false,"internalType":"string"}],"anonymous":false},{"type":"event","name":"SenderApproved","inputs":[{"name":"sender","type":"address","indexed":false,"internalType":"address"},{"name":"notes","type":"string","indexed":false,"internalType":"string"}],"anonymous":false},{"type":"event","name":"SenderRemoved","inputs":[{"name":"sender","type":"address","indexed":false,"internalType":"address"},{"name":"notes","type":"string","indexed":false,"internalType":"string"}],"anonymous":false},{"type":"event","name":"WithdrawDestinationApproved","inputs":[{"name":"destination","type":"address","indexed":false,"internalType":"address"},{"name":"notes","type":"string","indexed":false,"internalType":"string"}],"anonymous":false},{"type":"event","name":"WithdrawDestinationRemoved","inputs":[{"name":"destination","type":"address","indexed":false,"internalType":"address"},{"name":"notes","type":"string","indexed":false,"internalType":"string"}],"anonymous":false}],"bytecode":{"object":"0x60808060405234606a57600b8054610100600160a81b0319811633600881811b610100600160a81b0316929092179093551c6001600160a01b03167f8be0079c531659141344cd1fd0a4f28419497f9722a3daafe3b4186f6b6457e05f80a3615478908161006f8239f35b5f80fdfe60806040526004361015610011575f80fd5b5f3560e01c80630411fb8e1461047857806304a3ba251461047d578063076053421461047857806307ef00cf146103745780631047789e146104735780631d49039c146103835780632d12d7881461046e5780632dc32a611461044b5780632de905bc146104695780632e31e9c614610464578063333f22e81461045f57806334ec8d7e1461045a5780633cf200251461039c5780633ea3555114610455578063408694e3146104505780634b9412681461044b5780634d3d31ca146104465780634ecd74d6146104415780634efbad391461043c5780634f97d805146104375780635ace1d92146104325780635e4ccace1461042d5780635e6afe4d1461042857806363cc17f2146104235780636d5025f11461041e5780636d9a1423146104195780636e3de202146104145780636fd7fdef146103e7578063713ebf3b146103ce578063715018a61461040f57806372e548a91461040a57806373252494146103ec578063748fca461461040557806378addb48146103b55780637cac69c31461040557806386a6ae151461040057806386b6dbe5146103fb57806387301608146103f65780638c2fdf9e146103f15780638da5cb5b146103ec5780638fb4dff2146103e757806398b3cc39146103e2578063a2a7c02f146103dd578063a4c1cccb146103d8578063a67e1f54146103d3578063a847cf4d146103ce578063a86ddc57146103c9578063a9fc3d4f146103c4578063ac9650d8146103bf578063acb9da16146103ba578063b8fe8d5f146103b5578063ba44ad41146103b0578063be8c97b014610351578063c2e657ae146103ab578063c537bed0146103a6578063cbdb1dcf146103a1578063d075f9bb1461039c578063d7334c9d14610397578063d758150914610392578063e2873b6d1461038d578063e6f32c5114610388578063eb0de04214610383578063ec0114401461037e578063ee5462cc14610379578063efb47bff14610374578063f20e85e01461036f578063f259a0731461036a578063f2fde38b14610365578063f84756aa14610360578063f901dc331461035b578063fa2c59c814610356578063fadbcf4814610351578063faef8f581461034c5763fdedfa2714610347575f80fd5b6127ba565b612740565b611f51565b6126c5565b61264d565b6125d3565b612503565b61248b565b6123db565b6105d6565b6123b1565b6122b6565b610745565b612240565b6121d5565b61216a565b6120ec565b610abd565b612072565b612041565b611f9b565b611ede565b6116e3565b611def565b611d14565b611c74565b611be0565b611522565b611b52565b611b12565b611a30565b6119c8565b61144d565b611659565b611950565b61192e565b6118c6565b611723565b6116a9565b6115cb565b61157f565b611311565b611237565b61121d565b6111a2565b6110e2565b61104f565b610f71565b610ef4565b610e46565b610d1a565b610cb2565b6107fd565b610bcf565b610afd565b6109f8565b61097e565b6108c3565b61083d565b610785565b61065a565b610497565b610540565b6001600160a01b0381160361049357565b5f80fd5b34610493576020366003190112610493576004356104b481610482565b60018060a01b03165f526009602052602060ff60405f2054166040519015158152f35b9181601f84011215610493578235916001600160401b038311610493576020838186019501011161049357565b9060406003198301126104935760043561051d81610482565b91602435906001600160401b0382116104935761053c916004016104d7565b9091565b34610493577fb71be9befd3ac90c1c9981d3b1161b3c2c6dcd741f13b34061aa251226a802df6105b861057236610504565b61058d60018060a09694961b03600b5460081c1633146127d5565b6001600160a01b0383165f9081526007602052604090819020805460ff191690555193849384612840565b0390a1005b6001600160a01b03165f90815260208190526040902090565b34610493576020366003190112610493576004356105f381610482565b60018060a01b03165f526006602052602060ff60405f2054166040519015158152f35b60606003198201126104935760043561062e81610482565b9160243561063b81610482565b91604435906001600160401b0382116104935761053c916004016104d7565b34610493576106db61066b36610616565b81819361069260018060a09996991b03600b5460081c16331461068d816127d5565b6127d5565b6001600160a01b0386165f9081526007602052604090819020805460ff19166001179055515f805160206153ec83398151915290806106d386868b84612840565b0390a1613de4565b73__$6fc6cfb0e70d6cdcacff54ae5a1f7f5d2d$__803b156104935761071a935f936040519586948593849363303e5bc960e21b855260048501612840565b03915af480156107405761072a57005b806107385f61073e93612899565b80611575565b005b6128bc565b346104935760203660031901126104935760043561076281610482565b60018060a01b03165f526007602052602060ff60405f2054166040519015158152f35b34610493577f4e13b11ab98e672bd78295ef9cebe764dc617f95decf47d842c25b83abc0c7246105b86107b736610504565b6107d260018060a09694961b03600b5460081c1633146127d5565b6001600160a01b0383165f9081526005602052604090819020805460ff191690555193849384612840565b346104935760203660031901126104935760043561081a81610482565b60018060a01b03165f526008602052602060ff60405f2054166040519015158152f35b346104935761084b36610504565b915f9261086660018060a01b03600b5460081c1633146127d5565b73__$ed404fe8d8cd691b210f32f3e93e2f5fa7$__803b15610493576108a5935f9360405195869485938493630b7a416f60e21b855260048501612840565b03915af48015610740576108b7575080f35b61073e91505f90612899565b34610493576020366003190112610493576004356108e081610482565b600b546040516312789ae160e11b81526001600160a01b03909216600483015260ff161515602482015260208160448173__$abe99e6f90010eaab1ae0937da96c92fff$__5af480156107405761094b915f9161094f575b5060405191829182901515815260200190565b0390f35b610971915060203d602011610977575b6109698183612899565b8101906128c7565b5f610938565b503d61095f565b346104935760203660031901126104935760043561099b81610482565b604051630667e45d60e31b81526001600160a01b03909116600482015260208160248173__$6fc6cfb0e70d6cdcacff54ae5a1f7f5d2d$__5af480156107405761094b915f9161094f575060405191829182901515815260200190565b346104935761073e610a0936610504565b91610a2660018060a01b03600b5460081c16331461068d816127d5565b6001600160a01b0381165f8181526020818152604080832063c04b8d5960e01b84529091529020600160ff198254161790555f52600160205260405f20600160ff19825416179055610a81610a7c600254613ba2565b600255565b5f8051602061544c83398151915260405180610a9f86868684613bc4565b0390a1610aad838383612956565b610ab88383836129f2565b613de4565b3461049357602036600319011261049357600435610ada81610482565b60018060a01b03165f526005602052602060ff60405f2054166040519015158152f35b346104935761073e610b0e36610504565b91610b2b60018060a01b03600b5460081c16331461068d816127d5565b6001600160a01b0381165f818152602081815260408083206338ed173960e01b84529091529020600160ff198254161790555f52600160205260405f20600160ff19825416179055610b81610a7c600254613ba2565b5f8051602061544c83398151915260405180610b9f86868684613bf3565b0390a1610ab8838383612a89565b6044359061ffff8216820361049357565b6004359061ffff8216820361049357565b3461049357608036600319011261049357600435610bec81610482565b60243590610bf982610482565b610c01610bad565b60643592906001600160401b03841161049357610c25610c739436906004016104d7565b8181969294610c4260018060a01b03600b5460081c1633146127d5565b610c4d838389612b20565b610c58838389612bb7565b610c63838389612c4e565b610c6e838389613de4565b614014565b73__$300e553707b39d57f293635f93074e10dd$__90813b15610493575f9361071a604051968795869485946303cb6dc560e31b8652600486016128dc565b3461049357610cc036610504565b915f92610cdb60018060a01b03600b5460081c1633146127d5565b73__$abe99e6f90010eaab1ae0937da96c92fff$__803b15610493576108a5935f936040519586948593849363f7570c2960e01b855260048501612840565b3461049357602036600319011261049357600435610d3781610482565b604051636290236f60e11b81529073__$58d3987dc9188d295674ac47c9b90498d5$__90602083600481855af491821561074057610d8260a093610d9d955f91610e27575b50612904565b604051808095819463de1eb9a360e01b835260048301611646565b03915af48015610740575f80915f805f92610deb575b60408051941515855294151560208501526001600160a01b03908116948401949094529092166060820152608081019190915260a090f35b5050505050610e1461094b9160a03d60a011610e20575b610e0c8183612899565b81019061290b565b92945084939291610db3565b503d610e02565b610e40915060203d602011610977576109698183612899565b5f610d7c565b34610493575f805160206153ec833981519152610e6236610616565b9190809491610e8360018060a01b03600b5460081c16331461068d816127d5565b60018060a01b0381165f52600760205260405f20600160ff19825416179055610eb28460405193849384612840565b0390a173__$3ebced50d16a3712772def6ef3a529a5cb$__803b156104935761071a935f9360405195869485938493631a65191160e21b855260048501612840565b3461049357602036600319011261049357610f0d610bbe565b60ff600b541661ffff60405192632e8e669960e11b84521660048301521515602482015260208160448173__$300e553707b39d57f293635f93074e10dd$__5af480156107405761094b915f9161094f575060405191829182901515815260200190565b34610493577f3562181221a42a19ddd03a82dfe06acab1905ceb65cdaf7d86a1d9fec66435526105b8610fa336610504565b610fbe60018060a09694961b03600b5460081c1633146127d5565b6001600160a01b0383165f9081526006602052604090819020805460ff191660011790555193849384612840565b602435906001600160e01b03198216820361049357565b60606003198201126104935760043561101b81610482565b916024356001600160e01b0319811681036104935791604435906001600160401b0382116104935761053c916004016104d7565b34610493575f8051602061544c8339815191526105b861106e36611003565b9061108a60018060a09795971b03600b5460081c1633146127d5565b60018060a01b038416805f525f6020526110a78660405f20611bca565b600160ff198254161790555f52600160205260405f20600160ff198254161790556110d6610a7c600254613ba2565b60405194859485613d0d565b34610493576110f036610504565b9061110960018060a01b03600b5460081c1633146127d5565b604051636290236f60e11b815273__$58d3987dc9188d295674ac47c9b90498d5$__9390602081600481885af480156107405761114c915f91610e275750612904565b833b15610493575f604051809563fe16474d60e01b8252818061117488888860048501612840565b03915af49384156107405761073e9461118e575b506140bb565b806107385f61119c93612899565b5f611188565b34610493577fb71b62345f0de74ec86ca2292697c77744d05ce6534f9b8866cefdf5fa3152b26105b86111d436610504565b6111ef60018060a09694961b03600b5460081c1633146127d5565b6001600160a01b0383165f9081526008602052604090819020805460ff191660011790555193849384612840565b346104935761073e61122e36610616565b9291909161450b565b346104935761073e61124836610504565b9161126560018060a01b03600b5460081c16331461068d816127d5565b6001600160a01b0381165f81815260208181526040808320630c04a8a160e41b84529091529020600160ff198254161790555f52600160205260405f20600160ff198254161790556112bb610a7c600254613ba2565b5f8051602061544c833981519152604051806112d986868684613c22565b0390a1613dba565b9181601f84011215610493578235916001600160401b038311610493576020808501948460051b01011161049357565b346104935760a03660031901126104935760043561132e81610482565b6024359061133b82610482565b6044359061134882610482565b6064356001600160401b038111610493576113679036906004016112e1565b90939091906084356001600160401b0381116104935761138b9036906004016104d7565b9290946113a660018060a01b03600b5460081c1633146127d5565b6113b18487846138af565b6113bc848785613de4565b73__$abe99e6f90010eaab1ae0937da96c92fff$__803b156104935786935f936113fd876040519788968795869563f4d5bb9360e01b875260048701613d40565b03915af4801561074057611439575b505f5b82811061141857005b806114338386610c6e61142e600196898c613d86565b613d9b565b0161140f565b806107385f61144793612899565b5f61140c565b346104935760203660031901126104935760043561146a81610482565b604051636290236f60e11b81529073__$58d3987dc9188d295674ac47c9b90498d5$__90602083600481855af4918215610740576114b46020936114cf955f9161150b5750612904565b6040518080958194633f60482560e21b835260048301611646565b03915af48015610740576020915f916114ee575b506040519015158152f35b6115059150823d8411610977576109698183612899565b5f6114e3565b610e409150853d8711610977576109698183612899565b3461049357604036600319011261049357602060ff61156960043561154681610482565b61154e610fec565b6001600160a01b039091165f90815280855260409020611bca565b54166040519015158152f35b5f91031261049357565b34610493575f36600319011261049357611597614eb5565b600b8054610100600160a81b031981169091555f9060081c6001600160a01b03165f8051602061540c8339815191528280a3005b34610493577f62dd88c5ecfa60713a657640ebec4de26fc1aefa4afdb24e6d15a124fce727796105b86115fd36610504565b61161860018060a09694961b03600b5460081c1633146127d5565b6001600160a01b0383165f9081526005602052604090819020805460ff191660011790555193849384612840565b6001600160a01b03909116815260200190565b34610493575f36600319011261049357600b5460405160089190911c6001600160a01b03168152602090f35b6004359063ffffffff8216820361049357565b359063ffffffff8216820361049357565b346104935760203660031901126104935763ffffffff6116c7611685565b165f52600a602052602060ff60405f2054166040519015158152f35b346104935760203660031901126104935760043561170081610482565b60018060a01b03165f526001602052602060ff60405f2054166040519015158152f35b346104935761173136610504565b9161174a60018060a01b03600b5460081c1633146127d5565b6040516338d52e0f60e01b8152926020846004816001600160a01b0386165afa9081156107405761188b81856105b8947fd2851df39115d63968e90113e8b3a96f13e33ac4c2e5a9caa1afeffe59e55748985f91611897575b506117af838389612ce5565b6117ba838389612d7c565b6117c5838389612e13565b6117d0838389612eaa565b6117db838389612f41565b6117e6838389612fd8565b6117f183838961306d565b6117fc838389613104565b61180783838961319b565b611812838389613232565b61181d8383896132c9565b611828838389613360565b6118338383896133f7565b61183e83838961348e565b611849838389613525565b6118548383896135bc565b61185f838389613653565b61186a8383896136ea565b611875838389613781565b611880838389613de4565b610c6e838389614014565b60405193849384612840565b6118b9915060203d6020116118bf575b6118b18183612899565b810190613da5565b5f6117a3565b503d6118a7565b34610493575f8051602061542c8339815191526105b86118e536610504565b61190060018060a09694961b03600b5460081c1633146127d5565b6001600160a01b0383165f9081526003602052604090819020805460ff191660011790555193849384612840565b34610493575f36600319011261049357602060ff600b54166040519015158152f35b34610493577f1212f8ddb39de8e1a339460c95752d61100723efeaa34ccd94bca94393f409386105b861198236610504565b61199d60018060a09694961b03600b5460081c1633146127d5565b6001600160a01b0383165f9081526006602052604090819020805460ff191690555193849384612840565b34610493575f805160206153ec8339815191526105b86119e736610504565b611a0260018060a09694961b03600b5460081c1633146127d5565b6001600160a01b0383165f9081526007602052604090819020805460ff191660011790555193849384612840565b346104935760a036600319011261049357600435611a4d81610482565b602435611a5981610482565b604435611a6581610482565b606435926084356001600160401b03811161049357611a889036906004016104d7565b939094611aa360018060a01b03600b5460081c1633146127d5565b604051636290236f60e11b815273__$58d3987dc9188d295674ac47c9b90498d5$__90602081600481855af4801561074057611ae5915f91610e275750612904565b803b156104935786945f93611174886040519a8b9687958695631870a1c360e11b87528b60048801613e0e565b3461049357602036600319011261049357600435611b2f81610482565b60018060a01b03165f526003602052602060ff60405f2054166040519015158152f35b34610493577f3097928509c53a2dab9500431201d82b0d756e8f890fd01f4ae6b33b45687ea46105b8611b8436610504565b611b9f60018060a09694961b03600b5460081c1633146127d5565b6001600160a01b0383165f9081526004602052604090819020805460ff191690555193849384612840565b9063ffffffff60e01b165f5260205260405f2090565b3461049357602036600319011261049357600435611bfd81610482565b6040516351097a3360e01b81526001600160a01b03909116600482015260208160248173__$abe99e6f90010eaab1ae0937da96c92fff$__5af480156107405761094b915f91611c55575b5060405191829182611646565b611c6e915060203d6020116118bf576118b18183612899565b5f611c48565b34610493575f366003190112610493576020600254604051908152f35b805180835260209291819084018484015e5f828201840152601f01601f1916010190565b602081016020825282518091526040820191602060408360051b8301019401925f915b838310611ce757505050505090565b9091929394602080611d05600193603f198682030187528951611c91565b97019301930191939290611cd8565b6020366003190112610493576004356001600160401b03811161049357611d3f9036906004016112e1565b90611d4982613e5f565b915f5b818110611d61576040518061094b8682611cb5565b5f80611d6e838587613ea8565b90611d7e60405180938193613ee9565b0390305af4611d8b613f11565b9015611db15790600191611d9f8287613fb3565b52611daa8186613fb3565b5001611d4c565b604481511061049357611dd3816024806004611deb9501518301019101613f40565b60405162461bcd60e51b815291829160048301613fa2565b0390fd5b3461049357611dfd36610616565b91611e1660018060a01b03600b5460081c1633146127d5565b73__$ed404fe8d8cd691b210f32f3e93e2f5fa7$__93843b156104935760405163565ced0b60e11b81526001600160a01b039182166004820152908216602482015260606044820152935f9085908180611e74606482018989612820565b03915af49384156107405761073e94611e8e575b50613de4565b806107385f611e9c93612899565b5f611e88565b9060406003198301126104935760043563ffffffff811681036104935791602435906001600160401b0382116104935761053c916004016104d7565b34610493577f1032cb8f3d65d1f2761007cb8b0ca5365671ee20a8efa21ecae1a8dfbca5b7a56105b8611f1036611ea2565b611f2b60018060a09694961b03600b5460081c1633146127d5565b63ffffffff83165f52600a60205260405f2060ff19815416905560405193849384613fc7565b3461049357602036600319011261049357600435611f6e81610482565b60018060a01b03165f526004602052602060ff60405f2054166040519015158152f35b8015150361049357565b3461049357604036600319011261049357600435611fb881611f91565b6024356001600160401b038111610493577f50454d9d0025a28a39cac5a4b3f3101d29b6e413fbb64f75fb42eb6837b0771891611ffc6105b89236906004016104d7565b9290600b54926120183360018060a01b038660081c16146127d5565b15159260ff84169060ff191617600b556040519384938452604060208501526040840191612820565b3461049357602036600319011261049357602061206860043561206381610482565b613fe4565b6040519015158152f35b346104935760203660031901126104935760043561208f81610482565b60405163c226c4bb60e01b81526001600160a01b03909116600482015260208160248173__$abe99e6f90010eaab1ae0937da96c92fff$__5af480156107405761094b915f9161094f575060405191829182901515815260200190565b34610493577f37ea10f2d08f5a9803dfcd5abf3cfc7b0d6fcdf5fcbc36be9ea5a0b53d9a4d9b6105b861211e36611003565b9061213a60018060a09795971b03600b5460081c1633146127d5565b60018060a01b0384165f525f6020526121568560405f20611bca565b805460ff1916905560405194859485613d0d565b346104935761217836610504565b600b545f9391906121969060081c6001600160a01b031633146127d5565b73__$abe99e6f90010eaab1ae0937da96c92fff$__803b15610493576108a5935f9360405195869485938493634a1c4b1960e11b855260048501612840565b34610493576121e336610504565b600b545f9391906122019060081c6001600160a01b031633146127d5565b73__$ed404fe8d8cd691b210f32f3e93e2f5fa7$__803b15610493576108a5935f936040519586948593849363e2873b6d60e01b855260048501612840565b34610493577f9fc3f914bc6770a3679a6a9fdb4620f0566db329f178fb033fc0c6dcce1b693d6105b861227236611ea2565b61228d60018060a09694961b03600b5460081c1633146127d5565b63ffffffff83165f52600a60205260405f20600160ff1982541617905560405193849384613fc7565b34610493577f9efd66cbdaa05f6414ab9c4ae71d358b087e972c11874e7c3e9c7c79c61e23aa6105b86122e836610504565b61230760018060a09694961b03600b5460081c16331461068d816127d5565b6001600160a01b0383165f81815260208181526040808320634701287760e11b84529091529020600160ff198254161790555f52600160205260405f20600160ff1982541617905561235d610a7c600254613ba2565b5f8051602061544c8339815191526040518061237b84888884613c51565b0390a1612389818585613de4565b6001600160a01b0383165f90815260096020526040902061188b90805460ff19166001179055565b346104935761073e6123c236610504565b91610c6e60018060a01b03600b5460081c1633146127d5565b346104935761073e6123ec36610504565b9161240960018060a01b03600b5460081c16331461068d816127d5565b6001600160a01b0381165f8181526020818152604080832063617ba03760e01b84529091529020600160ff198254161790555f52600160205260405f20600160ff1982541617905561245f610a7c600254613ba2565b5f8051602061544c8339815191526040518061247d86868684613c80565b0390a1610ab8838383613818565b34610493577ff9a414ea26a64e12a2abdb23706ec196a42adeb564668fb73f46555fbd2336c26105b86124bd36610504565b6124d860018060a09694961b03600b5460081c1633146127d5565b6001600160a01b0383165f9081526008602052604090819020805460ff191690555193849384612840565b346104935760203660031901126104935760043561252081610482565b612528614eb5565b6001600160a01b0381161561257f57600b8054610100600160a81b03198116600884811b610100600160a81b0316919091179092556001600160a01b0392831692911c165f8051602061540c8339815191525f80a3005b60405162461bcd60e51b815260206004820152602660248201527f4f776e61626c653a206e6577206f776e657220697320746865207a65726f206160448201526564647265737360d01b6064820152608490fd5b34610493576020366003190112610493576004356125f081610482565b604051637c23ab5560e11b81526001600160a01b03909116600482015260208160248173__$3ebced50d16a3712772def6ef3a529a5cb$__5af480156107405761094b915f9161094f575060405191829182901515815260200190565b34610493577f9ca3f065622f5f03f32b7157677a0e420c3a36ab45fd49f256ffebce3e3105876105b861267f36610504565b61269a60018060a09694961b03600b5460081c1633146127d5565b6001600160a01b0383165f9081526003602052604090819020805460ff191690555193849384612840565b34610493577fa8f9caaf4861720900294428e4ff34d37070c37afd26d96e6e4da75326d2c3ad6105b86126f736610504565b61271260018060a09694961b03600b5460081c1633146127d5565b6001600160a01b0383165f9081526004602052604090819020805460ff191660011790555193849384612840565b346104935760203660031901126104935760043561275d81610482565b604051631f5df1eb60e31b81526001600160a01b03909116600482015260208160248173__$300e553707b39d57f293635f93074e10dd$__5af480156107405761094b915f9161094f575060405191829182901515815260200190565b34610493575f36600319011261049357602060405160028152f35b156127dc57565b606460405162461bcd60e51b815260206004820152602060248201527f4f776e61626c653a2063616c6c6572206973206e6f7420746865206f776e65726044820152fd5b908060209392818452848401375f828201840152601f01601f1916010190565b6001600160a01b03909116815260406020820181905261286293910191612820565b90565b634e487b7160e01b5f52604160045260245ffd5b60c081019081106001600160401b0382111761289457604052565b612865565b601f909101601f19168101906001600160401b0382119082101761289457604052565b6040513d5f823e3d90fd5b90816020910312610493575161286281611f91565b61ffff612862959360609360018060a01b031683521660208201528160408201520191612820565b1561049357565b908160a091031261049357805161292181611f91565b91602082015161293081611f91565b91604081015161293f81610482565b916080606083015161295081610482565b92015190565b6129ed5f8051602061544c8339815191529361298060018060a01b03600b5460081c1633146127d5565b6001600160a01b0383165f8181526020819052604090206129a990631e51809360e31b90611bca565b600160ff198254161790555f52600160205260405f20600160ff198254161790556129d8610a7c600254613ba2565b604051938493631e51809360e31b9085613d0d565b0390a1565b6129ed5f8051602061544c83398151915293612a1c60018060a01b03600b5460081c1633146127d5565b6001600160a01b0383165f818152602081905260409020612a459063b858183f60e01b90611bca565b600160ff198254161790555f52600160205260405f20600160ff19825416179055612a74610a7c600254613ba2565b60405193849363b858183f60e01b9085613d0d565b6129ed5f8051602061544c83398151915293612ab360018060a01b03600b5460081c1633146127d5565b6001600160a01b0383165f818152602081905260409020612adc90635c11d79560e01b90611bca565b600160ff198254161790555f52600160205260405f20600160ff19825416179055612b0b610a7c600254613ba2565b604051938493635c11d79560e01b9085613d0d565b6129ed5f8051602061544c83398151915293612b4a60018060a01b03600b5460081c1633146127d5565b6001600160a01b0383165f818152602081905260409020612b7390638a85708360e01b90611bca565b600160ff198254161790555f52600160205260405f20600160ff19825416179055612ba2610a7c600254613ba2565b604051938493638a85708360e01b9085613d0d565b6129ed5f8051602061544c83398151915293612be160018060a01b03600b5460081c1633146127d5565b6001600160a01b0383165f818152602081905260409020612c0a9063d20191bd60e01b90611bca565b600160ff198254161790555f52600160205260405f20600160ff19825416179055612c39610a7c600254613ba2565b60405193849363d20191bd60e01b9085613d0d565b6129ed5f8051602061544c83398151915293612c7860018060a01b03600b5460081c1633146127d5565b6001600160a01b0383165f818152602081905260409020612ca190631792c03f60e11b90611bca565b600160ff198254161790555f52600160205260405f20600160ff19825416179055612cd0610a7c600254613ba2565b604051938493631792c03f60e11b9085613d0d565b6129ed5f8051602061544c83398151915293612d0f60018060a01b03600b5460081c1633146127d5565b6001600160a01b0383165f818152602081905260409020612d3890636e553f6560e01b90611bca565b600160ff198254161790555f52600160205260405f20600160ff19825416179055612d67610a7c600254613ba2565b604051938493636e553f6560e01b9085613d0d565b6129ed5f8051602061544c83398151915293612da660018060a01b03600b5460081c1633146127d5565b6001600160a01b0383165f818152602081905260409020612dcf90632d182be560e21b90611bca565b600160ff198254161790555f52600160205260405f20600160ff19825416179055612dfe610a7c600254613ba2565b604051938493632d182be560e21b9085613d0d565b6129ed5f8051602061544c83398151915293612e3d60018060a01b03600b5460081c1633146127d5565b6001600160a01b0383165f818152602081905260409020612e6690635d043b2960e11b90611bca565b600160ff198254161790555f52600160205260405f20600160ff19825416179055612e95610a7c600254613ba2565b604051938493635d043b2960e11b9085613d0d565b6129ed5f8051602061544c83398151915293612ed460018060a01b03600b5460081c1633146127d5565b6001600160a01b0383165f818152602081905260409020612efd9063983c676d60e01b90611bca565b600160ff198254161790555f52600160205260405f20600160ff19825416179055612f2c610a7c600254613ba2565b60405193849363983c676d60e01b9085613d0d565b6129ed5f8051602061544c83398151915293612f6b60018060a01b03600b5460081c1633146127d5565b6001600160a01b0383165f818152602081905260409020612f9490638dbdbe6d60e01b90611bca565b600160ff198254161790555f52600160205260405f20600160ff19825416179055612fc3610a7c600254613ba2565b604051938493638dbdbe6d60e01b9085613d0d565b6129ed5f8051602061544c8339815191529361300260018060a01b03600b5460081c1633146127d5565b6001600160a01b0383165f81815260208190526040902061302a9062b4d4cb60e11b90611bca565b600160ff198254161790555f52600160205260405f20600160ff19825416179055613059610a7c600254613ba2565b60405193849362b4d4cb60e11b9085613d0d565b6129ed5f8051602061544c8339815191529361309760018060a01b03600b5460081c1633146127d5565b6001600160a01b0383165f8181526020819052604090206130c090630b8b4a6160e21b90611bca565b600160ff198254161790555f52600160205260405f20600160ff198254161790556130ef610a7c600254613ba2565b604051938493630b8b4a6160e21b9085613d0d565b6129ed5f8051602061544c8339815191529361312e60018060a01b03600b5460081c1633146127d5565b6001600160a01b0383165f81815260208190526040902061315790633ea0e43760e11b90611bca565b600160ff198254161790555f52600160205260405f20600160ff19825416179055613186610a7c600254613ba2565b604051938493633ea0e43760e11b9085613d0d565b6129ed5f8051602061544c833981519152936131c560018060a01b03600b5460081c1633146127d5565b6001600160a01b0383165f8181526020819052604090206131ee906319792d1d60e11b90611bca565b600160ff198254161790555f52600160205260405f20600160ff1982541617905561321d610a7c600254613ba2565b6040519384936319792d1d60e11b9085613d0d565b6129ed5f8051602061544c8339815191529361325c60018060a01b03600b5460081c1633146127d5565b6001600160a01b0383165f818152602081905260409020613285906385b77f4560e01b90611bca565b600160ff198254161790555f52600160205260405f20600160ff198254161790556132b4610a7c600254613ba2565b6040519384936385b77f4560e01b9085613d0d565b6129ed5f8051602061544c833981519152936132f360018060a01b03600b5460081c1633146127d5565b6001600160a01b0383165f81815260208190526040902061331c9063a8abe90560e01b90611bca565b600160ff198254161790555f52600160205260405f20600160ff1982541617905561334b610a7c600254613ba2565b60405193849363a8abe90560e01b9085613d0d565b6129ed5f8051602061544c8339815191529361338a60018060a01b03600b5460081c1633146127d5565b6001600160a01b0383165f8181526020819052604090206133b390630d1e666760e01b90611bca565b600160ff198254161790555f52600160205260405f20600160ff198254161790556133e2610a7c600254613ba2565b604051938493630d1e666760e01b9085613d0d565b6129ed5f8051602061544c8339815191529361342160018060a01b03600b5460081c1633146127d5565b6001600160a01b0383165f81815260208190526040902061344a9063036bdad760e61b90611bca565b600160ff198254161790555f52600160205260405f20600160ff19825416179055613479610a7c600254613ba2565b60405193849363036bdad760e61b9085613d0d565b6129ed5f8051602061544c833981519152936134b860018060a01b03600b5460081c1633146127d5565b6001600160a01b0383165f8181526020819052604090206134e190633786fe4360e11b90611bca565b600160ff198254161790555f52600160205260405f20600160ff19825416179055613510610a7c600254613ba2565b604051938493633786fe4360e11b9085613d0d565b6129ed5f8051602061544c8339815191529361354f60018060a01b03600b5460081c1633146127d5565b6001600160a01b0383165f8181526020819052604090206135789063d46a0a4f60e01b90611bca565b600160ff198254161790555f52600160205260405f20600160ff198254161790556135a7610a7c600254613ba2565b60405193849363d46a0a4f60e01b9085613d0d565b6129ed5f8051602061544c833981519152936135e660018060a01b03600b5460081c1633146127d5565b6001600160a01b0383165f81815260208190526040902061360f9063745400c960e01b90611bca565b600160ff198254161790555f52600160205260405f20600160ff1982541617905561363e610a7c600254613ba2565b60405193849363745400c960e01b9085613d0d565b6129ed5f8051602061544c8339815191529361367d60018060a01b03600b5460081c1633146127d5565b6001600160a01b0383165f8181526020819052604090206136a69063dd9cc05360e01b90611bca565b600160ff198254161790555f52600160205260405f20600160ff198254161790556136d5610a7c600254613ba2565b60405193849363dd9cc05360e01b9085613d0d565b6129ed5f8051602061544c8339815191529361371460018060a01b03600b5460081c1633146127d5565b6001600160a01b0383165f81815260208190526040902061373d90630332eee160e11b90611bca565b600160ff198254161790555f52600160205260405f20600160ff1982541617905561376c610a7c600254613ba2565b604051938493630332eee160e11b9085613d0d565b6129ed5f8051602061544c833981519152936137ab60018060a01b03600b5460081c1633146127d5565b6001600160a01b0383165f8181526020819052604090206137d490634c267cb160e11b90611bca565b600160ff198254161790555f52600160205260405f20600160ff19825416179055613803610a7c600254613ba2565b604051938493634c267cb160e11b9085613d0d565b6129ed5f8051602061544c8339815191529361384260018060a01b03600b5460081c1633146127d5565b6001600160a01b0383165f81815260208190526040902061386b90631a4ca37b60e21b90611bca565b600160ff198254161790555f52600160205260405f20600160ff1982541617905561389a610a7c600254613ba2565b604051938493631a4ca37b60e21b9085613d0d565b6129ed5f8051602061544c833981519152936138d960018060a01b03600b5460081c1633146127d5565b6001600160a01b0383165f81815260208190526040902061390290631592ca1b60e31b90611bca565b600160ff198254161790555f52600160205260405f20600160ff19825416179055613931610a7c600254613ba2565b604051938493631592ca1b60e31b9085613d0d565b6129ed5f8051602061544c8339815191529361397060018060a01b03600b5460081c1633146127d5565b6001600160a01b0383165f8181526020819052604090206139999063095ea7b360e01b90611bca565b600160ff198254161790555f52600160205260405f20600160ff198254161790556139c8610a7c600254613ba2565b60405193849363095ea7b360e01b9085613d0d565b6129ed5f8051602061544c83398151915293613a0760018060a01b03600b5460081c1633146127d5565b6001600160a01b0383165f818152602081905260409020613a309063a03d55e360e01b90611bca565b600160ff198254161790555f52600160205260405f20600160ff19825416179055613a5f610a7c600254613ba2565b60405193849363a03d55e360e01b9085613d0d565b6129ed5f8051602061544c83398151915293613a9e60018060a01b03600b5460081c1633146127d5565b6001600160a01b0383165f818152602081905260409020613ac79063692652c560e11b90611bca565b600160ff198254161790555f52600160205260405f20600160ff19825416179055613af6610a7c600254613ba2565b60405193849363692652c560e11b9085613d0d565b6129ed5f8051602061544c83398151915293613b3560018060a01b03600b5460081c1633146127d5565b6001600160a01b0383165f818152602081905260409020613b5e90635313efb360e11b90611bca565b600160ff198254161790555f52600160205260405f20600160ff19825416179055613b8d610a7c600254613ba2565b604051938493635313efb360e11b9085613d0d565b5f198114613bb05760010190565b634e487b7160e01b5f52601160045260245ffd5b6001600160a01b03909116815263c04b8d5960e01b602082015260606040820181905261286293910191612820565b6001600160a01b0390911681526338ed173960e01b602082015260606040820181905261286293910191612820565b6001600160a01b039091168152630c04a8a160e41b602082015260606040820181905261286293910191612820565b6001600160a01b039091168152634701287760e11b602082015260606040820181905261286293910191612820565b6001600160a01b03909116815263617ba03760e01b602082015260606040820181905261286293910191612820565b6001600160a01b03909116815263a9059cbb60e01b602082015260606040820181905261286293910191612820565b6001600160a01b03909116815263559ec80d60e01b602082015260606040820181905261286293910191612820565b6001600160a01b0390911681526001600160e01b0319909116602082015260606040820181905261286293910191612820565b6001600160a01b0391821681529181166020830152909116604082015260806060820181905261286293910191612820565b634e487b7160e01b5f52603260045260245ffd5b9190811015613d965760051b0190565b613d72565b3561286281610482565b90816020910312610493575161286281610482565b6129ed5f8051602061542c8339815191529361190060018060a01b03600b5460081c1633146127d5565b6129ed5f805160206153ec83398151915293611a0260018060a01b03600b5460081c1633146127d5565b6001600160a01b03918216815291811660208301529091166040820152606081019190915260a06080820181905261286293910191612820565b6001600160401b0381116128945760051b60200190565b90613e6982613e48565b613e766040519182612899565b8281528092613e87601f1991613e48565b01905f5b828110613e9757505050565b806060602080938501015201613e8b565b9190811015613d965760051b81013590601e19813603018212156104935701803591906001600160401b038311610493576020018236038113610493579190565b908092918237015f815290565b6001600160401b03811161289457601f01601f191660200190565b3d15613f3b573d90613f2282613ef6565b91613f306040519384612899565b82523d5f602084013e565b606090565b602081830312610493578051906001600160401b038211610493570181601f8201121561049357805190613f7382613ef6565b92613f816040519485612899565b8284526020838301011161049357815f9260208093018386015e8301015290565b906020612862928181520190611c91565b8051821015613d965760209160051b010190565b60409063ffffffff61286295931681528160208201520191612820565b60ff600b5416908115613ff5575090565b6001600160a01b03165f9081526003602052604090205460ff16919050565b906140b9929161403260018060a01b03600b5460081c1633146127d5565b6001600160a01b0381165f8181526020818152604080832063a9059cbb60e01b84529091529020600160ff198254161790555f52600160205260405f20600160ff19825416179055614088610a7c600254613ba2565b5f8051602061544c833981519152604051806140a686868684613caf565b0390a16140b4838383613946565b613dba565b565b906140b992916140d960018060a01b03600b5460081c1633146127d5565b6001600160a01b0381165f8181526020818152604080832063559ec80d60e01b84529091529020600160ff198254161790555f52600160205260405f20600160ff1982541617905561412f610a7c600254613ba2565b5f8051602061544c8339815191526040518061414d86868684613cde565b0390a161415b8383836139dd565b614166838383613a74565b613b0b565b6040519061417882612879565b5f60a0838281528260208201528260408201528260608201528260808201520152565b156141a257565b60405162461bcd60e51b815260206004820152601260248201527114d95b99195c881b9bdd08185b1b1bddd95960721b6044820152606490fd5b906004116104935790600490565b909291928360041161049357831161049357600401916003190190565b356001600160e01b0319811692919060048210614222575050565b6001600160e01b031960049290920360031b82901b16169150565b1561424457565b60405162461bcd60e51b815260206004820152601260248201527115185c99d95d081b9bdd08185b1b1bddd95960721b6044820152606490fd5b1561428557565b60405162461bcd60e51b815260206004820152601460248201527314d95b1958dd1bdc881b9bdd08185b1b1bddd95960621b6044820152606490fd5b156142c857565b60405162461bcd60e51b8152602060048201526015602482015274131a59da1d195c931a58881b9bdd081b1a5b9ad959605a1b6044820152606490fd5b9361433a926060949297969763ffffffff60e01b16865260018060a01b03166020860152608060408601526080850191612820565b931515910152565b1561434957565b60405162461bcd60e51b815260206004820152601c60248201527b121e5c195c98dbdc9955985d5b1d131a58881b9bdd081b1a5b9ad95960221b6044820152606490fd5b1561439457565b60405162461bcd60e51b815260206004820152601160248201527011db5e131a58881b9bdd081b1a5b9ad959607a1b6044820152606490fd5b929160409261433a9296959660018060a01b03168552606060208601526060850191612820565b92919261440082613ef6565b9161440e6040519384612899565b829481845281830111610493578281602093845f960137010152565b908160c09103126104935760a06040519161444483612879565b805161444f81611f91565b8352602081015161445f81610482565b6020840152604081015161447281610482565b60408401526060810151606084015260808101516080840152015160a082015290565b1561449c57565b60405162461bcd60e51b815260206004820152601e60248201527f53776170526f75746572303220726571756972657320616e79417373657400006044820152606490fd5b9160209161433a91959495604085526040850191612820565b916020612862938181520191612820565b939261451561416b565b600b5490959060081c6001600160a01b03166001600160a01b03821614614eaf576001600160a01b03165f908152600460205260409020614580919061456690614561905b5460ff1690565b61419b565b8061457a61457482876141dc565b90614207565b946141ea565b91909261458f600b5460ff1690565b80614e95575b6001600160e01b03198216906317938e1360e01b8214801591819083614e84575b8115614e73575b159081614e6a575b50614e03575b6338ed173960e01b83148015614df3575b156146455750505050509073__$6d73eb2bedba9c44263ccaf5969a8714f4$__91823b1561049357604051625e769d60e91b8152925f9284928391829161462691600484016144fa565b03915af48015610740576146375750565b806107385f6140b993612899565b63c04b8d5960e01b83036146995750505050509073__$6d73eb2bedba9c44263ccaf5969a8714f4$__91823b1561049357604051632c69e61160e11b8152925f9284928391829161462691600484016144fa565b631e51809360e31b83036146ed5750505050509073__$6d73eb2bedba9c44263ccaf5969a8714f4$__91823b156104935760405163fdf3722360e01b8152925f9284928391829161462691600484016144fa565b63b858183f60e01b83036147555750505050509061470d600b5460ff1690565b61471681614495565b73__$6d73eb2bedba9c44263ccaf5969a8714f4$__803b1561049357614626935f93604051958694859384936331dc39a360e01b8552600485016144e1565b63a9059cbb60e01b830361477c5750505050506140b9916147779136916143f4565b6153b4565b63095ea7b360e01b83036147a35750505050506140b99161479e9136916143f4565b61533c565b630c04a8a160e41b83036147ca5750505050506140b9916147c59136916143f4565b6152c2565b63617ba03760e01b83036147f15750505050506140b9916147ec9136916143f4565b615285565b631a4ca37b60e21b83036148185750505050506140b9916148139136916143f4565b615250565b61482784999796959899614ecd565b156148d5575050505050505073__$58d3987dc9188d295674ac47c9b90498d5$__60405191636290236f60e11b8352602083600481855af49182156107405761487c60c093614897955f91610e275750612904565b60405180809581946340a4cc7760e11b835260048301611646565b03915af4908115610740575f916148ac575090565b612862915060c03d60c0116148ce575b6148c68183612899565b81019061442a565b503d6148bc565b9597969495939493636e553f6560e01b83036149045750505050506140b9916148ff9136916143f4565b615170565b630b8b4a6160e21b830361492b5750505050506140b9916149269136916143f4565b6151ad565b638dbdbe6d60e01b83036149525750505050506140b99161494d9136916143f4565b6151f6565b62b4d4cb60e11b83036149785750505050506140b9916149739136916143f4565b6151d5565b632d182be560e21b830361499a5750505050506140b9916149269136916143f4565b635d043b2960e11b83036149bc5750505050506140b9916149269136916143f4565b63983c676d60e01b83036149de5750505050506140b9916148ff9136916143f4565b633ea0e43760e11b8303614a005750505050506140b9916149269136916143f4565b6319792d1d60e11b8303614a225750505050506140b9916149269136916143f4565b6385b77f4560e01b8303614a445750505050506140b9916149269136916143f4565b63a8abe90560e01b8303614a665750505050506140b9916148ff9136916143f4565b939493630d1e666760e01b83148015614de3575b8015614dd3575b8015614dc3575b8015614db3575b8015614da3575b8015614d93575b8015614d83575b15614ab3575b50505050505050565b631592ca1b60e31b8303614b87575050505073__$abe99e6f90010eaab1ae0937da96c92fff$__604051636290236f60e11b8152602081600481855af4801561074057614b07915f91614b68575b5061438d565b600b5460ff1693813b15610493575f93614b3760405196879586948594633bf8b9bb60e11b8652600486016143cd565b03915af4801561074057614b54575b505b5f808080808080614aaa565b806107385f614b6293612899565b5f614b46565b614b81915060203d602011610977576109698183612899565b5f614b01565b9295939492634701287760e11b8303614bac57505050614ba79350615051565b614b48565b95949590614d73575b8015614d63575b15614c7e5750604051636290236f60e11b815273__$ed404fe8d8cd691b210f32f3e93e2f5fa7$__9190602081600481865af4801561074057614c06915f91614c5f575b50614342565b600b5460ff1693823b1561049357614c365f956040519788968795869563f42001eb60e01b875260048701614305565b03915af4801561074057614c4b575b50614b48565b806107385f614c5993612899565b5f614c45565b614c78915060203d602011610977576109698183612899565b5f614c00565b638a85708360e01b8114908115614d52575b8115614d41575b5015614d0057604051636290236f60e11b815273__$300e553707b39d57f293635f93074e10dd$__9190602081600481865af4801561074057614c06915f91614ce1575b506142c1565b614cfa915060203d602011610977576109698183612899565b5f614cdb565b60405162461bcd60e51b81526020600482015260196024820152782ab735b737bbb710333ab731ba34b7b71039b2b632b1ba37b960391b6044820152606490fd5b631792c03f60e11b1490505f614c97565b63d20191bd60e01b81149150614c90565b5063611e2a2d60e11b8114614bbc565b50630acb7f4b60e21b8114614bb5565b50634c267cb160e11b8314614aa4565b50630332eee160e11b8314614a9d565b5063dd9cc05360e01b8314614a96565b5063745400c960e01b8314614a8f565b5063d46a0a4f60e01b8314614a88565b50633786fe4360e11b8314614a81565b5063036bdad760e61b8314614a7a565b50635c11d79560e01b83146145dc565b614e1f614e1b61455a86614e16896105bd565b611bca565b1590565b156145cb576001600160a01b0385165f908152600160205260409020614e4d90614e489061455a565b61423d565b614e65614e6061455a86614e16896105bd565b61427e565b6145cb565b9050155f6145c5565b63611e2a2d60e11b851491506145bd565b630acb7f4b60e21b851491506145b6565b5063095ea7b360e01b6001600160e01b0319821614614595565b50505050565b6140b960018060a01b03600b5460081c1633146127d5565b63ffffffff60e01b1663559ec80d60e01b8114908115614f18575b8115614f07575b8115614ef9575090565b635313efb360e11b14919050565b63692652c560e11b81149150614eef565b63a03d55e360e01b81149150614ee8565b908160e091031261049357803591614f4360208301611698565b916040810135916060820135614f5881610482565b9160808101359161286260c060a08401359301611698565b15614f7757565b60405162461bcd60e51b815260206004820152601c60248201527b10d0d5140819195cdd1a5b985d1a5bdb881b9bdd08185b1b1bddd95960221b6044820152606490fd5b15614fc257565b60405162461bcd60e51b815260206004820152601b60248201527a10d0d51408189d5c9b881d1bdad95b881b9bdd08185b1b1bddd959602a1b6044820152606490fd5b1561500c57565b60405162461bcd60e51b815260206004820152601f60248201527f43435450206d696e7420726563697069656e74206e6f7420616c6c6f776564006044820152606490fd5b6001600160a01b03165f9081526009602052604090205460ff16156150e75761455a61455a6150c96150c46150b16150b6615095876140b9996150e2990190614f29565b505050949250969063ffffffff165f52600a60205260405f2090565b614f70565b6001600160a01b0316613fe4565b614fbb565b6001600160a01b03165f90815260056020526040902090565b615005565b60405162461bcd60e51b815260206004820152601a60248201527910d0d514081b595cdcd95b99d95c881b9bdd08185b1b1bddd95960321b6044820152606490fd5b1561513057565b60405162461bcd60e51b8152602060048201526018602482015277149958d95a5d995c881b9bdd081dda1a5d195b1a5cdd195960421b6044820152606490fd5b604081805181010312610493576040015161518a81610482565b6001600160a01b03165f908152600560205260409020546140b99060ff16615129565b6060818051810103126104935761518a60606040830151926151ce84610482565b0151610482565b6080818051810103126104935761518a60806060830151926151ce84610482565b606081805181010312610493576060015161518a81610482565b1561521757565b60405162461bcd60e51b8152602060048201526011602482015270151bdad95b881b9bdd08185b1b1bddd959607a1b6044820152606490fd5b6060818051810103126104935761518a615280606060208401519361527485610482565b0151926150b684610482565b615210565b6080818051810103126104935761518a615280606060208401519361527485610482565b9190826040910312610493576020825161295081610482565b6152d590602080825183010191016152a9565b506001600160a01b03165f9081526008602052604090205460ff16156152f757565b60405162461bcd60e51b815260206004820152601e60248201527f44656c65676174696f6e2061646472657373206e6f7420616c6c6f77656400006044820152606490fd5b61534f90602080825183010191016152a9565b506001600160a01b03165f9081526007602052604090205460ff161561537157565b60405162461bcd60e51b815260206004820152601b60248201527a105c1c1c9bdd99481859191c995cdcc81b9bdd08185b1b1bddd959602a1b6044820152606490fd5b6153c790602080825183010191016152a9565b506001600160a01b03165f908152600660205260409020546140b99060ff1661512956fe628a44970c0e450415e3ae74334ea44f3307b74dbf677a1371190242bf2f35898be0079c531659141344cd1fd0a4f28419497f9722a3daafe3b4186f6b6457e0ad90e2570fc4fe9f7437be3188d5c791c6662892d31731992aa88f5c87621983ef729aaa41b9fd994f9ff7c1960df214a84f722002e6cfbea31799cd0873a3efa164736f6c634300081a000a","linkReferences":{"src/lib/CowSwapLib.sol":{"CowSwapLib":[{"start":1868,"length":20},{"start":2607,"length":20}]},"src/lib/GmxLib.sol":{"GmxLib":[{"start":2433,"length":20},{"start":3404,"length":20},{"start":5165,"length":20},{"start":7313,"length":20},{"start":8483,"length":20},{"start":8711,"length":20},{"start":19254,"length":20}]},"src/lib/HypercoreVaultLib.sol":{"HypercoreVaultLib":[{"start":2263,"length":20},{"start":7815,"length":20},{"start":8818,"length":20},{"start":19520,"length":20}]},"src/lib/LagoonLib.sol":{"LagoonLib":[{"start":3510,"length":20},{"start":4487,"length":20},{"start":5353,"length":20},{"start":6945,"length":20},{"start":18596,"length":20}]},"src/lib/LighterLib.sol":{"LighterLib":[{"start":3300,"length":20},{"start":4008,"length":20},{"start":10225,"length":20},{"start":19739,"length":20}]},"src/lib/UniswapLib.sol":{"UniswapLib":[{"start":18008,"length":20},{"start":18122,"length":20},{"start":18206,"length":20},{"start":18311,"length":20}]},"src/lib/VeloraLib.sol":{"VeloraLib":[{"start":3878,"length":20},{"start":9860,"length":20}]}}},"methodIdentifiers":{"allowApprovalDestination(address,string)":"98b3cc39","allowAsset(address,string)":"86b6dbe5","allowCallSite(address,bytes4,string)":"5e4ccace","allowDelegationApprovalDestination(address,string)":"63cc17f2","allowReceiver(address,string)":"72e548a9","allowSender(address,string)":"fa2c59c8","allowWithdrawDestination(address,string)":"5ace1d92","allowedApprovalDestinations(address)":"eb0de042","allowedAssets(address)":"a4c1cccb","allowedCCTPDestinations(uint32)":"7cac69c3","allowedCCTPMessengers(address)":"07605342","allowedCallSites(address,bytes4)":"a847cf4d","allowedDelegationApprovalDestinations(address)":"4b941268","allowedLagoonVaults(address)":"8fb4dff2","allowedReceivers(address)":"3cf20025","allowedSenders(address)":"fadbcf48","allowedTargets(address)":"b8fe8d5f","allowedWithdrawDestinations(address)":"07ef00cf","anyAsset()":"87301608","callSiteCount()":"a9fc3d4f","getGovernanceAddress()":"73252494","getInternalVersion()":"fdedfa27","getLagoonSettlementConfig(address)":"4ecd74d6","gmxOrderVaults(address)":"a86ddc57","isAllowedApprovalDestination(address)":"1d49039c","isAllowedAsset(address)":"c537bed0","isAllowedCCTPDestination(uint32)":"748fca46","isAllowedCCTPMessenger(address)":"0411fb8e","isAllowedCallSite(address,bytes4)":"713ebf3b","isAllowedCowSwap(address)":"333f22e8","isAllowedDelegationApprovalDestination(address)":"2dc32a61","isAllowedGMXMarket(address)":"2e31e9c6","isAllowedGMXRouter(address)":"cbdb1dcf","isAllowedLagoonVault(address)":"6fd7fdef","isAllowedLighter(address)":"faef8f58","isAllowedLighterAssetIndex(uint16)":"4f97d805","isAllowedReceiver(address)":"d075f9bb","isAllowedSender(address)":"be8c97b0","isAllowedTarget(address)":"78addb48","isAllowedVeloraSwapper(address)":"f84756aa","isAllowedWithdrawDestination(address)":"efb47bff","multicall(bytes[])":"ac9650d8","owner()":"8da5cb5b","removeApprovalDestination(address,string)":"04a3ba25","removeAsset(address,string)":"f901dc33","removeCCTPDestination(uint32,string)":"ba44ad41","removeCallSite(address,bytes4,string)":"d7334c9d","removeDelegationApprovalDestination(address,string)":"f259a073","removeGMXMarket(address,string)":"4d3d31ca","removeHypercoreVault(address,string)":"e2873b6d","removeReceiver(address,string)":"2d12d788","removeSender(address,string)":"a67e1f54","removeWithdrawDestination(address,string)":"8c2fdf9e","renounceOwnership()":"715018a6","setAnyAssetAllowed(bool,string)":"c2e657ae","transferOwnership(address)":"f2fde38b","validateCall(address,address,bytes)":"6d5025f1","whitelistAaveV3(address,string)":"f20e85e0","whitelistCCTP(address,string)":"ec011440","whitelistCCTPDestination(uint32,string)":"e6f32c51","whitelistCoreWriter(address,address,string)":"acb9da16","whitelistCowSwap(address,address,string)":"1047789e","whitelistERC4626(address,string)":"86a6ae15","whitelistGMX(address,address,address,address[],string)":"6e3de202","whitelistGMXMarket(address,string)":"d7581509","whitelistHypercoreVault(address,string)":"2de905bc","whitelistLagoon(address,string)":"5e6afe4d","whitelistLagoonWithSettlementLimit(address,address,address,uint256,string)":"a2a7c02f","whitelistLighter(address,address,uint16,string)":"408694e3","whitelistToken(address,string)":"ee5462cc","whitelistTokenForDelegation(address,string)":"6d9a1423","whitelistUniswapV2Router(address,string)":"3ea35551","whitelistUniswapV3Router(address,string)":"34ec8d7e","whitelistVelora(address,address,string)":"4efbad39"},"id":2}