{"abi":[{"type":"constructor","inputs":[],"stateMutability":"nonpayable"},{"type":"function","name":"allowApprovalDestination","inputs":[{"name":"destination","type":"address","internalType":"address"},{"name":"notes","type":"string","internalType":"string"}],"outputs":[],"stateMutability":"nonpayable"},{"type":"function","name":"allowAsset","inputs":[{"name":"asset","type":"address","internalType":"address"},{"name":"notes","type":"string","internalType":"string"}],"outputs":[],"stateMutability":"nonpayable"},{"type":"function","name":"allowCallSite","inputs":[{"name":"target","type":"address","internalType":"address"},{"name":"selector","type":"bytes4","internalType":"bytes4"},{"name":"notes","type":"string","internalType":"string"}],"outputs":[],"stateMutability":"nonpayable"},{"type":"function","name":"allowDelegationApprovalDestination","inputs":[{"name":"destination","type":"address","internalType":"address"},{"name":"notes","type":"string","internalType":"string"}],"outputs":[],"stateMutability":"nonpayable"},{"type":"function","name":"allowReceiver","inputs":[{"name":"receiver","type":"address","internalType":"address"},{"name":"notes","type":"string","internalType":"string"}],"outputs":[],"stateMutability":"nonpayable"},{"type":"function","name":"allowSender","inputs":[{"name":"sender","type":"address","internalType":"address"},{"name":"notes","type":"string","internalType":"string"}],"outputs":[],"stateMutability":"nonpayable"},{"type":"function","name":"allowWithdrawDestination","inputs":[{"name":"destination","type":"address","internalType":"address"},{"name":"notes","type":"string","internalType":"string"}],"outputs":[],"stateMutability":"nonpayable"},{"type":"function","name":"allowedApprovalDestinations","inputs":[{"name":"destination","type":"address","internalType":"address"}],"outputs":[{"name":"allowed","type":"bool","internalType":"bool"}],"stateMutability":"view"},{"type":"function","name":"allowedAssets","inputs":[{"name":"token","type":"address","internalType":"address"}],"outputs":[{"name":"allowed","type":"bool","internalType":"bool"}],"stateMutability":"view"},{"type":"function","name":"allowedCCTPDestinations","inputs":[{"name":"domain","type":"uint32","internalType":"uint32"}],"outputs":[{"name":"allowed","type":"bool","internalType":"bool"}],"stateMutability":"view"},{"type":"function","name":"allowedCCTPMessengers","inputs":[{"name":"messenger","type":"address","internalType":"address"}],"outputs":[{"name":"allowed","type":"bool","internalType":"bool"}],"stateMutability":"view"},{"type":"function","name":"allowedCallSites","inputs":[{"name":"target","type":"address","internalType":"address"},{"name":"selector","type":"bytes4","internalType":"bytes4"}],"outputs":[{"name":"allowed","type":"bool","internalType":"bool"}],"stateMutability":"view"},{"type":"function","name":"allowedDelegationApprovalDestinations","inputs":[{"name":"destination","type":"address","internalType":"address"}],"outputs":[{"name":"allowed","type":"bool","internalType":"bool"}],"stateMutability":"view"},{"type":"function","name":"allowedLagoonVaults","inputs":[{"name":"destination","type":"address","internalType":"address"}],"outputs":[{"name":"allowed","type":"bool","internalType":"bool"}],"stateMutability":"view"},{"type":"function","name":"allowedReceivers","inputs":[{"name":"receiver","type":"address","internalType":"address"}],"outputs":[{"name":"allowed","type":"bool","internalType":"bool"}],"stateMutability":"view"},{"type":"function","name":"allowedSenders","inputs":[{"name":"sender","type":"address","internalType":"address"}],"outputs":[{"name":"allowed","type":"bool","internalType":"bool"}],"stateMutability":"view"},{"type":"function","name":"allowedTargets","inputs":[{"name":"target","type":"address","internalType":"address"}],"outputs":[{"name":"allowed","type":"bool","internalType":"bool"}],"stateMutability":"view"},{"type":"function","name":"allowedWithdrawDestinations","inputs":[{"name":"destination","type":"address","internalType":"address"}],"outputs":[{"name":"allowed","type":"bool","internalType":"bool"}],"stateMutability":"view"},{"type":"function","name":"anyAsset","inputs":[],"outputs":[{"name":"","type":"bool","internalType":"bool"}],"stateMutability":"view"},{"type":"function","name":"callSiteCount","inputs":[],"outputs":[{"name":"","type":"uint256","internalType":"uint256"}],"stateMutability":"view"},{"type":"function","name":"getGovernanceAddress","inputs":[],"outputs":[{"name":"","type":"address","internalType":"address"}],"stateMutability":"view"},{"type":"function","name":"getInternalVersion","inputs":[],"outputs":[{"name":"","type":"uint8","internalType":"uint8"}],"stateMutability":"pure"},{"type":"function","name":"gmxOrderVaults","inputs":[{"name":"exchangeRouter","type":"address","internalType":"address"}],"outputs":[{"name":"","type":"address","internalType":"address"}],"stateMutability":"view"},{"type":"function","name":"isAllowedApprovalDestination","inputs":[{"name":"receiver","type":"address","internalType":"address"}],"outputs":[{"name":"","type":"bool","internalType":"bool"}],"stateMutability":"view"},{"type":"function","name":"isAllowedAsset","inputs":[{"name":"token","type":"address","internalType":"address"}],"outputs":[{"name":"","type":"bool","internalType":"bool"}],"stateMutability":"view"},{"type":"function","name":"isAllowedCCTPDestination","inputs":[{"name":"domain","type":"uint32","internalType":"uint32"}],"outputs":[{"name":"","type":"bool","internalType":"bool"}],"stateMutability":"view"},{"type":"function","name":"isAllowedCCTPMessenger","inputs":[{"name":"messenger","type":"address","internalType":"address"}],"outputs":[{"name":"","type":"bool","internalType":"bool"}],"stateMutability":"view"},{"type":"function","name":"isAllowedCallSite","inputs":[{"name":"target","type":"address","internalType":"address"},{"name":"selector","type":"bytes4","internalType":"bytes4"}],"outputs":[{"name":"","type":"bool","internalType":"bool"}],"stateMutability":"view"},{"type":"function","name":"isAllowedCowSwap","inputs":[{"name":"settlement","type":"address","internalType":"address"}],"outputs":[{"name":"","type":"bool","internalType":"bool"}],"stateMutability":"view"},{"type":"function","name":"isAllowedDelegationApprovalDestination","inputs":[{"name":"receiver","type":"address","internalType":"address"}],"outputs":[{"name":"","type":"bool","internalType":"bool"}],"stateMutability":"view"},{"type":"function","name":"isAllowedGMXMarket","inputs":[{"name":"market","type":"address","internalType":"address"}],"outputs":[{"name":"","type":"bool","internalType":"bool"}],"stateMutability":"view"},{"type":"function","name":"isAllowedGMXRouter","inputs":[{"name":"router","type":"address","internalType":"address"}],"outputs":[{"name":"","type":"bool","internalType":"bool"}],"stateMutability":"view"},{"type":"function","name":"isAllowedLagoonVault","inputs":[{"name":"vault","type":"address","internalType":"address"}],"outputs":[{"name":"","type":"bool","internalType":"bool"}],"stateMutability":"view"},{"type":"function","name":"isAllowedReceiver","inputs":[{"name":"receiver","type":"address","internalType":"address"}],"outputs":[{"name":"","type":"bool","internalType":"bool"}],"stateMutability":"view"},{"type":"function","name":"isAllowedSender","inputs":[{"name":"sender","type":"address","internalType":"address"}],"outputs":[{"name":"","type":"bool","internalType":"bool"}],"stateMutability":"view"},{"type":"function","name":"isAllowedTarget","inputs":[{"name":"target","type":"address","internalType":"address"}],"outputs":[{"name":"","type":"bool","internalType":"bool"}],"stateMutability":"view"},{"type":"function","name":"isAllowedVeloraSwapper","inputs":[{"name":"swapper","type":"address","internalType":"address"}],"outputs":[{"name":"","type":"bool","internalType":"bool"}],"stateMutability":"view"},{"type":"function","name":"isAllowedWithdrawDestination","inputs":[{"name":"receiver","type":"address","internalType":"address"}],"outputs":[{"name":"","type":"bool","internalType":"bool"}],"stateMutability":"view"},{"type":"function","name":"multicall","inputs":[{"name":"data","type":"bytes[]","internalType":"bytes[]"}],"outputs":[{"name":"results","type":"bytes[]","internalType":"bytes[]"}],"stateMutability":"payable"},{"type":"function","name":"owner","inputs":[],"outputs":[{"name":"","type":"address","internalType":"address"}],"stateMutability":"view"},{"type":"function","name":"removeApprovalDestination","inputs":[{"name":"destination","type":"address","internalType":"address"},{"name":"notes","type":"string","internalType":"string"}],"outputs":[],"stateMutability":"nonpayable"},{"type":"function","name":"removeAsset","inputs":[{"name":"asset","type":"address","internalType":"address"},{"name":"notes","type":"string","internalType":"string"}],"outputs":[],"stateMutability":"nonpayable"},{"type":"function","name":"removeCCTPDestination","inputs":[{"name":"domain","type":"uint32","internalType":"uint32"},{"name":"notes","type":"string","internalType":"string"}],"outputs":[],"stateMutability":"nonpayable"},{"type":"function","name":"removeCallSite","inputs":[{"name":"target","type":"address","internalType":"address"},{"name":"selector","type":"bytes4","internalType":"bytes4"},{"name":"notes","type":"string","internalType":"string"}],"outputs":[],"stateMutability":"nonpayable"},{"type":"function","name":"removeDelegationApprovalDestination","inputs":[{"name":"destination","type":"address","internalType":"address"},{"name":"notes","type":"string","internalType":"string"}],"outputs":[],"stateMutability":"nonpayable"},{"type":"function","name":"removeGMXMarket","inputs":[{"name":"market","type":"address","internalType":"address"},{"name":"notes","type":"string","internalType":"string"}],"outputs":[],"stateMutability":"nonpayable"},{"type":"function","name":"removeHypercoreVault","inputs":[{"name":"vault","type":"address","internalType":"address"},{"name":"notes","type":"string","internalType":"string"}],"outputs":[],"stateMutability":"nonpayable"},{"type":"function","name":"removeReceiver","inputs":[{"name":"receiver","type":"address","internalType":"address"},{"name":"notes","type":"string","internalType":"string"}],"outputs":[],"stateMutability":"nonpayable"},{"type":"function","name":"removeSender","inputs":[{"name":"sender","type":"address","internalType":"address"},{"name":"notes","type":"string","internalType":"string"}],"outputs":[],"stateMutability":"nonpayable"},{"type":"function","name":"removeWithdrawDestination","inputs":[{"name":"destination","type":"address","internalType":"address"},{"name":"notes","type":"string","internalType":"string"}],"outputs":[],"stateMutability":"nonpayable"},{"type":"function","name":"renounceOwnership","inputs":[],"outputs":[],"stateMutability":"nonpayable"},{"type":"function","name":"setAnyAssetAllowed","inputs":[{"name":"value","type":"bool","internalType":"bool"},{"name":"notes","type":"string","internalType":"string"}],"outputs":[],"stateMutability":"nonpayable"},{"type":"function","name":"transferOwnership","inputs":[{"name":"newOwner","type":"address","internalType":"address"}],"outputs":[],"stateMutability":"nonpayable"},{"type":"function","name":"validateCall","inputs":[{"name":"sender","type":"address","internalType":"address"},{"name":"target","type":"address","internalType":"address"},{"name":"callDataWithSelector","type":"bytes","internalType":"bytes"}],"outputs":[],"stateMutability":"view"},{"type":"function","name":"whitelistAaveV3","inputs":[{"name":"lendingPool","type":"address","internalType":"address"},{"name":"notes","type":"string","internalType":"string"}],"outputs":[],"stateMutability":"nonpayable"},{"type":"function","name":"whitelistCCTP","inputs":[{"name":"tokenMessenger","type":"address","internalType":"address"},{"name":"notes","type":"string","internalType":"string"}],"outputs":[],"stateMutability":"nonpayable"},{"type":"function","name":"whitelistCCTPDestination","inputs":[{"name":"domain","type":"uint32","internalType":"uint32"},{"name":"notes","type":"string","internalType":"string"}],"outputs":[],"stateMutability":"nonpayable"},{"type":"function","name":"whitelistCoreWriter","inputs":[{"name":"coreWriter","type":"address","internalType":"address"},{"name":"coreDepositWallet","type":"address","internalType":"address"},{"name":"notes","type":"string","internalType":"string"}],"outputs":[],"stateMutability":"nonpayable"},{"type":"function","name":"whitelistCowSwap","inputs":[{"name":"settlementContract","type":"address","internalType":"address"},{"name":"relayerContract","type":"address","internalType":"address"},{"name":"notes","type":"string","internalType":"string"}],"outputs":[],"stateMutability":"nonpayable"},{"type":"function","name":"whitelistERC4626","inputs":[{"name":"vault","type":"address","internalType":"address"},{"name":"notes","type":"string","internalType":"string"}],"outputs":[],"stateMutability":"nonpayable"},{"type":"function","name":"whitelistGMX","inputs":[{"name":"exchangeRouter","type":"address","internalType":"address"},{"name":"syntheticsRouter","type":"address","internalType":"address"},{"name":"orderVault","type":"address","internalType":"address"},{"name":"collateralTokens","type":"address[]","internalType":"address[]"},{"name":"notes","type":"string","internalType":"string"}],"outputs":[],"stateMutability":"nonpayable"},{"type":"function","name":"whitelistGMXMarket","inputs":[{"name":"market","type":"address","internalType":"address"},{"name":"notes","type":"string","internalType":"string"}],"outputs":[],"stateMutability":"nonpayable"},{"type":"function","name":"whitelistHypercoreVault","inputs":[{"name":"vault","type":"address","internalType":"address"},{"name":"notes","type":"string","internalType":"string"}],"outputs":[],"stateMutability":"nonpayable"},{"type":"function","name":"whitelistLagoon","inputs":[{"name":"vault","type":"address","internalType":"address"},{"name":"notes","type":"string","internalType":"string"}],"outputs":[],"stateMutability":"nonpayable"},{"type":"function","name":"whitelistToken","inputs":[{"name":"token","type":"address","internalType":"address"},{"name":"notes","type":"string","internalType":"string"}],"outputs":[],"stateMutability":"nonpayable"},{"type":"function","name":"whitelistTokenForDelegation","inputs":[{"name":"token","type":"address","internalType":"address"},{"name":"notes","type":"string","internalType":"string"}],"outputs":[],"stateMutability":"nonpayable"},{"type":"function","name":"whitelistUniswapV2Router","inputs":[{"name":"router","type":"address","internalType":"address"},{"name":"notes","type":"string","internalType":"string"}],"outputs":[],"stateMutability":"nonpayable"},{"type":"function","name":"whitelistUniswapV3Router","inputs":[{"name":"router","type":"address","internalType":"address"},{"name":"notes","type":"string","internalType":"string"}],"outputs":[],"stateMutability":"nonpayable"},{"type":"function","name":"whitelistVelora","inputs":[{"name":"augustusSwapper","type":"address","internalType":"address"},{"name":"tokenTransferProxy","type":"address","internalType":"address"},{"name":"notes","type":"string","internalType":"string"}],"outputs":[],"stateMutability":"nonpayable"},{"type":"event","name":"AnyAssetSet","inputs":[{"name":"value","type":"bool","indexed":false,"internalType":"bool"},{"name":"notes","type":"string","indexed":false,"internalType":"string"}],"anonymous":false},{"type":"event","name":"AnyVaultSet","inputs":[{"name":"value","type":"bool","indexed":false,"internalType":"bool"},{"name":"notes","type":"string","indexed":false,"internalType":"string"}],"anonymous":false},{"type":"event","name":"ApprovalDestinationApproved","inputs":[{"name":"destination","type":"address","indexed":false,"internalType":"address"},{"name":"notes","type":"string","indexed":false,"internalType":"string"}],"anonymous":false},{"type":"event","name":"ApprovalDestinationRemoved","inputs":[{"name":"destination","type":"address","indexed":false,"internalType":"address"},{"name":"notes","type":"string","indexed":false,"internalType":"string"}],"anonymous":false},{"type":"event","name":"AssetApproved","inputs":[{"name":"asset","type":"address","indexed":false,"internalType":"address"},{"name":"notes","type":"string","indexed":false,"internalType":"string"}],"anonymous":false},{"type":"event","name":"AssetRemoved","inputs":[{"name":"asset","type":"address","indexed":false,"internalType":"address"},{"name":"notes","type":"string","indexed":false,"internalType":"string"}],"anonymous":false},{"type":"event","name":"CCTPDestinationApproved","inputs":[{"name":"domain","type":"uint32","indexed":false,"internalType":"uint32"},{"name":"notes","type":"string","indexed":false,"internalType":"string"}],"anonymous":false},{"type":"event","name":"CCTPDestinationRemoved","inputs":[{"name":"domain","type":"uint32","indexed":false,"internalType":"uint32"},{"name":"notes","type":"string","indexed":false,"internalType":"string"}],"anonymous":false},{"type":"event","name":"CCTPMessengerApproved","inputs":[{"name":"tokenMessenger","type":"address","indexed":false,"internalType":"address"},{"name":"notes","type":"string","indexed":false,"internalType":"string"}],"anonymous":false},{"type":"event","name":"CallSiteApproved","inputs":[{"name":"target","type":"address","indexed":false,"internalType":"address"},{"name":"selector","type":"bytes4","indexed":false,"internalType":"bytes4"},{"name":"notes","type":"string","indexed":false,"internalType":"string"}],"anonymous":false},{"type":"event","name":"CallSiteRemoved","inputs":[{"name":"target","type":"address","indexed":false,"internalType":"address"},{"name":"selector","type":"bytes4","indexed":false,"internalType":"bytes4"},{"name":"notes","type":"string","indexed":false,"internalType":"string"}],"anonymous":false},{"type":"event","name":"DelegationApprovalDestinationApproved","inputs":[{"name":"destination","type":"address","indexed":false,"internalType":"address"},{"name":"notes","type":"string","indexed":false,"internalType":"string"}],"anonymous":false},{"type":"event","name":"DelegationApprovalDestinationRemoved","inputs":[{"name":"destination","type":"address","indexed":false,"internalType":"address"},{"name":"notes","type":"string","indexed":false,"internalType":"string"}],"anonymous":false},{"type":"event","name":"ERC4626Approved","inputs":[{"name":"vault","type":"address","indexed":false,"internalType":"address"},{"name":"notes","type":"string","indexed":false,"internalType":"string"}],"anonymous":false},{"type":"event","name":"LagoonVaultApproved","inputs":[{"name":"vault","type":"address","indexed":false,"internalType":"address"},{"name":"notes","type":"string","indexed":false,"internalType":"string"}],"anonymous":false},{"type":"event","name":"OwnershipTransferred","inputs":[{"name":"previousOwner","type":"address","indexed":true,"internalType":"address"},{"name":"newOwner","type":"address","indexed":true,"internalType":"address"}],"anonymous":false},{"type":"event","name":"ReceiverApproved","inputs":[{"name":"receiver","type":"address","indexed":false,"internalType":"address"},{"name":"notes","type":"string","indexed":false,"internalType":"string"}],"anonymous":false},{"type":"event","name":"ReceiverRemoved","inputs":[{"name":"receiver","type":"address","indexed":false,"internalType":"address"},{"name":"notes","type":"string","indexed":false,"internalType":"string"}],"anonymous":false},{"type":"event","name":"SenderApproved","inputs":[{"name":"sender","type":"address","indexed":false,"internalType":"address"},{"name":"notes","type":"string","indexed":false,"internalType":"string"}],"anonymous":false},{"type":"event","name":"SenderRemoved","inputs":[{"name":"sender","type":"address","indexed":false,"internalType":"address"},{"name":"notes","type":"string","indexed":false,"internalType":"string"}],"anonymous":false},{"type":"event","name":"WithdrawDestinationApproved","inputs":[{"name":"destination","type":"address","indexed":false,"internalType":"address"},{"name":"notes","type":"string","indexed":false,"internalType":"string"}],"anonymous":false},{"type":"event","name":"WithdrawDestinationRemoved","inputs":[{"name":"destination","type":"address","indexed":false,"internalType":"address"},{"name":"notes","type":"string","indexed":false,"internalType":"string"}],"anonymous":false}],"bytecode":{"object":"0x60808060405234606a57600c8054610100600160a81b0319811633600881811b610100600160a81b0316929092179093551c6001600160a01b03167f8be0079c531659141344cd1fd0a4f28419497f9722a3daafe3b4186f6b6457e05f80a36149fa908161006f8239f35b5f80fdfe60806040526004361015610011575f80fd5b5f3560e01c80630411fb8e1461042857806304a3ba251461042d578063076053421461042857806307ef00cf146103385780631047789e146104235780631d49039c146103475780632d12d7881461041e5780632dc32a61146104005780632de905bc146104195780632e31e9c614610414578063333f22e81461040f57806334ec8d7e1461040a5780633cf20025146103605780633ea35551146104055780634b941268146104005780634d3d31ca146103fb5780634efbad39146103f65780635ace1d92146103f15780635e4ccace146103ec5780635e6afe4d146103e757806363cc17f2146103e25780636d5025f1146103dd5780636d9a1423146103d85780636e3de202146103d35780636fd7fdef146103a6578063713ebf3b14610392578063715018a6146103ce57806372e548a9146103c957806373252494146103ab578063748fca46146103c457806378addb48146103795780637cac69c3146103c457806386a6ae15146103bf57806386b6dbe5146103ba57806387301608146103b55780638c2fdf9e146103b05780638da5cb5b146103ab5780638fb4dff2146103a657806398b3cc39146103a1578063a4c1cccb1461039c578063a67e1f5414610397578063a847cf4d14610392578063a86ddc571461038d578063a9fc3d4f14610388578063ac9650d814610383578063acb9da161461037e578063b8fe8d5f14610379578063ba44ad4114610374578063be8c97b014610315578063c2e657ae1461036f578063c537bed01461036a578063cbdb1dcf14610365578063d075f9bb14610360578063d7334c9d1461035b578063d758150914610356578063e2873b6d14610351578063e6f32c511461034c578063eb0de04214610347578063ec01144014610342578063ee5462cc1461033d578063efb47bff14610338578063f20e85e014610333578063f259a0731461032e578063f2fde38b14610329578063f84756aa14610324578063f901dc331461031f578063fa2c59c81461031a578063fadbcf48146103155763fdedfa2714610310575f80fd5b612304565b611b15565b612289565b612211565b612197565b6120c7565b61204f565b611f9f565b610586565b611f75565b611e7a565b6106f5565b611e04565b611d99565b611d2e565b611cb0565b610a6d565b611c36565b611c05565b611b5f565b611aa2565b611392565b6119b3565b6118d8565b611838565b611796565b6111e4565b611708565b6116c8565b611660565b6111a4565b611308565b6115e8565b6115c6565b61155e565b6113d2565b611358565b61128d565b611241565b611063565b610f89565b610f6f565b610f07565b610de4565b610d51565b610c73565b610bc5565b610b5d565b6107ad565b610aad565b6109a8565b61092e565b610873565b6107ed565b610735565b61060a565b610447565b6104f0565b6001600160a01b0381160361044357565b5f80fd5b346104435760203660031901126104435760043561046481610432565b60018060a01b03165f52600a602052602060ff60405f2054166040519015158152f35b9181601f84011215610443578235916001600160401b038311610443576020838186019501011161044357565b906040600319830112610443576004356104cd81610432565b91602435906001600160401b038211610443576104ec91600401610487565b9091565b34610443577fb71be9befd3ac90c1c9981d3b1161b3c2c6dcd741f13b34061aa251226a802df610568610522366104b4565b61053d60018060a09694961b03600c5460081c16331461231f565b6001600160a01b0383165f9081526007602052604090819020805460ff19169055519384938461238a565b0390a1005b6001600160a01b03165f90815260208190526040902090565b34610443576020366003190112610443576004356105a381610432565b60018060a01b03165f526006602052602060ff60405f2054166040519015158152f35b6060600319820112610443576004356105de81610432565b916024356105eb81610432565b91604435906001600160401b038211610443576104ec91600401610487565b346104435761068b61061b366105c6565b81819361064260018060a09996991b03600c5460081c16331461063d8161231f565b61231f565b6001600160a01b0386165f9081526007602052604090819020805460ff19166001179055515f8051602061496e833981519152908061068386868b8461238a565b0390a161363d565b73__$6fc6cfb0e70d6cdcacff54ae5a1f7f5d2d$__803b15610443576106ca935f936040519586948593849363303e5bc960e21b85526004850161238a565b03915af480156106f0576106da57005b806106e85f6106ee936123c3565b80611237565b005b6123eb565b346104435760203660031901126104435760043561071281610432565b60018060a01b03165f526007602052602060ff60405f2054166040519015158152f35b34610443577f4e13b11ab98e672bd78295ef9cebe764dc617f95decf47d842c25b83abc0c724610568610767366104b4565b61078260018060a09694961b03600c5460081c16331461231f565b6001600160a01b0383165f9081526005602052604090819020805460ff19169055519384938461238a565b34610443576020366003190112610443576004356107ca81610432565b60018060a01b03165f526008602052602060ff60405f2054166040519015158152f35b34610443576107fb366104b4565b915f9261081660018060a01b03600c5460081c16331461231f565b73__$ed404fe8d8cd691b210f32f3e93e2f5fa7$__803b1561044357610855935f9360405195869485938493630b7a416f60e21b85526004850161238a565b03915af480156106f057610867575080f35b6106ee91505f906123c3565b346104435760203660031901126104435760043561089081610432565b600c546040516312789ae160e11b81526001600160a01b03909216600483015260ff161515602482015260208160448173__$abe99e6f90010eaab1ae0937da96c92fff$__5af480156106f0576108fb915f916108ff575b5060405191829182901515815260200190565b0390f35b610921915060203d602011610927575b61091981836123c3565b8101906123f6565b5f6108e8565b503d61090f565b346104435760203660031901126104435760043561094b81610432565b604051630667e45d60e31b81526001600160a01b03909116600482015260208160248173__$6fc6cfb0e70d6cdcacff54ae5a1f7f5d2d$__5af480156106f0576108fb915f916108ff575060405191829182901515815260200190565b34610443576106ee6109b9366104b4565b916109d660018060a01b03600c5460081c16331461063d8161231f565b6001600160a01b0381165f8181526020818152604080832063c04b8d5960e01b84529091529020600160ff198254161790555f52600160205260405f20600160ff19825416179055610a31610a2c6002546133fb565b600255565b5f805160206149ce83398151915260405180610a4f8686868461341d565b0390a1610a5d83838361240b565b610a688383836124a7565b61363d565b3461044357602036600319011261044357600435610a8a81610432565b60018060a01b03165f526005602052602060ff60405f2054166040519015158152f35b34610443576106ee610abe366104b4565b91610adb60018060a01b03600c5460081c16331461063d8161231f565b6001600160a01b0381165f818152602081815260408083206338ed173960e01b84529091529020600160ff198254161790555f52600160205260405f20600160ff19825416179055610b31610a2c6002546133fb565b5f805160206149ce83398151915260405180610b4f8686868461344c565b0390a1610a6883838361253e565b3461044357610b6b366104b4565b915f92610b8660018060a01b03600c5460081c16331461231f565b73__$abe99e6f90010eaab1ae0937da96c92fff$__803b1561044357610855935f936040519586948593849363f7570c2960e01b85526004850161238a565b34610443575f8051602061496e833981519152610be1366105c6565b9190809491610c0260018060a01b03600c5460081c16331461063d8161231f565b60018060a01b0381165f52600760205260405f20600160ff19825416179055610c31846040519384938461238a565b0390a173__$3ebced50d16a3712772def6ef3a529a5cb$__803b15610443576106ca935f9360405195869485938493631a65191160e21b85526004850161238a565b34610443577f3562181221a42a19ddd03a82dfe06acab1905ceb65cdaf7d86a1d9fec6643552610568610ca5366104b4565b610cc060018060a09694961b03600c5460081c16331461231f565b6001600160a01b0383165f9081526006602052604090819020805460ff19166001179055519384938461238a565b602435906001600160e01b03198216820361044357565b606060031982011261044357600435610d1d81610432565b916024356001600160e01b0319811681036104435791604435906001600160401b038211610443576104ec91600401610487565b34610443575f805160206149ce833981519152610568610d7036610d05565b90610d8c60018060a09795971b03600c5460081c16331461231f565b60018060a01b038416805f525f602052610da98660405f20611780565b600160ff198254161790555f52600160205260405f20600160ff19825416179055610dd8610a2c6002546133fb565b60405194859485613566565b34610443577ffaa136302ac223cf7c1146490a741e4520e886fc22d7e759641453f432283d01610568610e16366104b4565b610e3160018060a09694961b03600c5460081c16331461231f565b6001600160a01b038381165f818152600960205260409020805460ff19166001179055600c549091610e689160081c16331461231f565b805f525f602052610e8a60405f2063559ec80d60e01b5f5260205260405f2090565b600160ff198254161790555f52600160205260405f20600160ff19825416179055610eb9610a2c6002546133fb565b5f805160206149ce83398151915260405180610ed78488888461347b565b0390a1610ee58185856125d5565b610ef081858561266c565b610efb818585612703565b6040519384938461238a565b34610443575f8051602061496e833981519152610568610f26366104b4565b610f4160018060a09694961b03600c5460081c16331461231f565b6001600160a01b0383165f9081526008602052604090819020805460ff19166001179055519384938461238a565b34610443576106ee610f80366105c6565b92919091613af4565b34610443576106ee610f9a366104b4565b91610fb760018060a01b03600c5460081c16331461063d8161231f565b6001600160a01b0381165f81815260208181526040808320630c04a8a160e41b84529091529020600160ff198254161790555f52600160205260405f20600160ff1982541617905561100d610a2c6002546133fb565b5f805160206149ce8339815191526040518061102b868686846134aa565b0390a1613613565b9181601f84011215610443578235916001600160401b038311610443576020808501948460051b01011161044357565b346104435760a03660031901126104435760043561108081610432565b6024359061108d82610432565b6044359061109a82610432565b6064356001600160401b038111610443576110b9903690600401611033565b90939091906084356001600160401b038111610443576110dd903690600401610487565b9290946110f860018060a01b03600c5460081c16331461231f565b6111038487846132cd565b61110e84878561363d565b73__$abe99e6f90010eaab1ae0937da96c92fff$__803b156104435786935f9361114f876040519788968795869563f4d5bb9360e01b875260048701613599565b03915af480156106f057611190575b505f5b82811061116a57005b8061118a8386611185611180600196898c6135df565b6135f4565b61438e565b01611161565b806106e85f61119e936123c3565b5f61115e565b34610443576020366003190112610443576004356111c181610432565b60018060a01b03165f526009602052602060ff60405f2054166040519015158152f35b3461044357604036600319011261044357602060ff61122b60043561120881610432565b611210610cee565b6001600160a01b039091165f90815280855260409020611780565b54166040519015158152f35b5f91031261044357565b34610443575f36600319011261044357611259614433565b600c8054610100600160a81b031981169091555f9060081c6001600160a01b03165f8051602061498e8339815191528280a3005b34610443577f62dd88c5ecfa60713a657640ebec4de26fc1aefa4afdb24e6d15a124fce727796105686112bf366104b4565b6112da60018060a09694961b03600c5460081c16331461231f565b6001600160a01b0383165f9081526005602052604090819020805460ff19166001179055519384938461238a565b34610443575f36600319011261044357600c5460405160089190911c6001600160a01b03168152602090f35b6004359063ffffffff8216820361044357565b359063ffffffff8216820361044357565b346104435760203660031901126104435763ffffffff611376611334565b165f52600b602052602060ff60405f2054166040519015158152f35b34610443576020366003190112610443576004356113af81610432565b60018060a01b03165f526001602052602060ff60405f2054166040519015158152f35b34610443576113e0366104b4565b916113f960018060a01b03600c5460081c16331461231f565b6040516338d52e0f60e01b8152926020846004816001600160a01b0386165afa9081156106f057610efb8185610568947fd2851df39115d63968e90113e8b3a96f13e33ac4c2e5a9caa1afeffe59e55748985f9161152f575b5061145e83838961279a565b611469838389612831565b6114748383896128c8565b61147f83838961295f565b61148a8383896129f6565b611495838389612a8b565b6114a0838389612b22565b6114ab838389612bb9565b6114b6838389612c50565b6114c1838389612ce7565b6114cc838389612d7e565b6114d7838389612e15565b6114e2838389612eac565b6114ed838389612f43565b6114f8838389612fda565b611503838389613071565b61150e838389613108565b61151983838961319f565b61152483838961363d565b61118583838961438e565b611551915060203d602011611557575b61154981836123c3565b8101906135fe565b5f611452565b503d61153f565b34610443575f805160206149ae83398151915261056861157d366104b4565b61159860018060a09694961b03600c5460081c16331461231f565b6001600160a01b0383165f9081526003602052604090819020805460ff19166001179055519384938461238a565b34610443575f36600319011261044357602060ff600c54166040519015158152f35b34610443577f1212f8ddb39de8e1a339460c95752d61100723efeaa34ccd94bca94393f4093861056861161a366104b4565b61163560018060a09694961b03600c5460081c16331461231f565b6001600160a01b0383165f9081526006602052604090819020805460ff19169055519384938461238a565b34610443575f8051602061496e83398151915261056861167f366104b4565b61169a60018060a09694961b03600c5460081c16331461231f565b6001600160a01b0383165f9081526007602052604090819020805460ff19166001179055519384938461238a565b34610443576020366003190112610443576004356116e581610432565b60018060a01b03165f526003602052602060ff60405f2054166040519015158152f35b34610443577f3097928509c53a2dab9500431201d82b0d756e8f890fd01f4ae6b33b45687ea461056861173a366104b4565b61175560018060a09694961b03600c5460081c16331461231f565b6001600160a01b0383165f9081526004602052604090819020805460ff19169055519384938461238a565b9063ffffffff60e01b165f5260205260405f2090565b34610443576020366003190112610443576004356117b381610432565b6040516351097a3360e01b81526001600160a01b03909116600482015260208160248173__$abe99e6f90010eaab1ae0937da96c92fff$__5af480156106f0576108fb915f91611819575b506040516001600160a01b0390911681529081906020820190565b611832915060203d6020116115575761154981836123c3565b5f6117fe565b34610443575f366003190112610443576020600254604051908152f35b805180835260209291819084018484015e5f828201840152601f01601f1916010190565b602081016020825282518091526040820191602060408360051b8301019401925f915b8383106118ab57505050505090565b90919293946020806118c9600193603f198682030187528951611855565b9701930193019193929061189c565b6020366003190112610443576004356001600160401b03811161044357611903903690600401611033565b9061190d8261367e565b915f5b81811061192557604051806108fb8682611879565b5f806119328385876136c7565b9061194260405180938193613708565b0390305af461194f613730565b9015611975579060019161196382876137d2565b5261196e81866137d2565b5001611910565b6044815110610443576119978160248060046119af950151830101910161375f565b60405162461bcd60e51b8152918291600483016137c1565b0390fd5b34610443576119c1366105c6565b916119da60018060a01b03600c5460081c16331461231f565b73__$ed404fe8d8cd691b210f32f3e93e2f5fa7$__93843b156104435760405163565ced0b60e11b81526001600160a01b039182166004820152908216602482015260606044820152935f9085908180611a3860648201898961236a565b03915af49384156106f0576106ee94611a52575b5061363d565b806106e85f611a60936123c3565b5f611a4c565b9060406003198301126104435760043563ffffffff811681036104435791602435906001600160401b038211610443576104ec91600401610487565b34610443577f1032cb8f3d65d1f2761007cb8b0ca5365671ee20a8efa21ecae1a8dfbca5b7a5610568611ad436611a66565b611aef60018060a09694961b03600c5460081c16331461231f565b63ffffffff83165f52600b60205260405f2060ff198154169055604051938493846137e6565b3461044357602036600319011261044357600435611b3281610432565b60018060a01b03165f526004602052602060ff60405f2054166040519015158152f35b8015150361044357565b3461044357604036600319011261044357600435611b7c81611b55565b6024356001600160401b038111610443577f50454d9d0025a28a39cac5a4b3f3101d29b6e413fbb64f75fb42eb6837b0771891611bc0610568923690600401610487565b9290600c5492611bdc3360018060a01b038660081c161461231f565b15159260ff84169060ff191617600c55604051938493845260406020850152604084019161236a565b34610443576020366003190112610443576020611c2c600435611c2781610432565b613803565b6040519015158152f35b3461044357602036600319011261044357600435611c5381610432565b60405163c226c4bb60e01b81526001600160a01b03909116600482015260208160248173__$abe99e6f90010eaab1ae0937da96c92fff$__5af480156106f0576108fb915f916108ff575060405191829182901515815260200190565b34610443577f37ea10f2d08f5a9803dfcd5abf3cfc7b0d6fcdf5fcbc36be9ea5a0b53d9a4d9b610568611ce236610d05565b90611cfe60018060a09795971b03600c5460081c16331461231f565b60018060a01b0384165f525f602052611d1a8560405f20611780565b805460ff1916905560405194859485613566565b3461044357611d3c366104b4565b600c545f939190611d5a9060081c6001600160a01b0316331461231f565b73__$abe99e6f90010eaab1ae0937da96c92fff$__803b1561044357610855935f9360405195869485938493634a1c4b1960e11b85526004850161238a565b3461044357611da7366104b4565b600c545f939190611dc59060081c6001600160a01b0316331461231f565b73__$ed404fe8d8cd691b210f32f3e93e2f5fa7$__803b1561044357610855935f936040519586948593849363e2873b6d60e01b85526004850161238a565b34610443577f9fc3f914bc6770a3679a6a9fdb4620f0566db329f178fb033fc0c6dcce1b693d610568611e3636611a66565b611e5160018060a09694961b03600c5460081c16331461231f565b63ffffffff83165f52600b60205260405f20600160ff19825416179055604051938493846137e6565b34610443577f9efd66cbdaa05f6414ab9c4ae71d358b087e972c11874e7c3e9c7c79c61e23aa610568611eac366104b4565b611ecb60018060a09694961b03600c5460081c16331461063d8161231f565b6001600160a01b0383165f81815260208181526040808320634701287760e11b84529091529020600160ff198254161790555f52600160205260405f20600160ff19825416179055611f21610a2c6002546133fb565b5f805160206149ce83398151915260405180611f3f848888846134d9565b0390a1611f4d81858561363d565b6001600160a01b0383165f908152600a60205260409020610efb90805460ff19166001179055565b34610443576106ee611f86366104b4565b9161118560018060a01b03600c5460081c16331461231f565b34610443576106ee611fb0366104b4565b91611fcd60018060a01b03600c5460081c16331461063d8161231f565b6001600160a01b0381165f8181526020818152604080832063617ba03760e01b84529091529020600160ff198254161790555f52600160205260405f20600160ff19825416179055612023610a2c6002546133fb565b5f805160206149ce8339815191526040518061204186868684613508565b0390a1610a68838383613236565b34610443577ff9a414ea26a64e12a2abdb23706ec196a42adeb564668fb73f46555fbd2336c2610568612081366104b4565b61209c60018060a09694961b03600c5460081c16331461231f565b6001600160a01b0383165f9081526008602052604090819020805460ff19169055519384938461238a565b34610443576020366003190112610443576004356120e481610432565b6120ec614433565b6001600160a01b0381161561214357600c8054610100600160a81b03198116600884811b610100600160a81b0316919091179092556001600160a01b0392831692911c165f8051602061498e8339815191525f80a3005b60405162461bcd60e51b815260206004820152602660248201527f4f776e61626c653a206e6577206f776e657220697320746865207a65726f206160448201526564647265737360d01b6064820152608490fd5b34610443576020366003190112610443576004356121b481610432565b604051637c23ab5560e11b81526001600160a01b03909116600482015260208160248173__$3ebced50d16a3712772def6ef3a529a5cb$__5af480156106f0576108fb915f916108ff575060405191829182901515815260200190565b34610443577f9ca3f065622f5f03f32b7157677a0e420c3a36ab45fd49f256ffebce3e310587610568612243366104b4565b61225e60018060a09694961b03600c5460081c16331461231f565b6001600160a01b0383165f9081526003602052604090819020805460ff19169055519384938461238a565b34610443577fa8f9caaf4861720900294428e4ff34d37070c37afd26d96e6e4da75326d2c3ad6105686122bb366104b4565b6122d660018060a09694961b03600c5460081c16331461231f565b6001600160a01b0383165f9081526004602052604090819020805460ff19166001179055519384938461238a565b34610443575f36600319011261044357602060405160018152f35b1561232657565b606460405162461bcd60e51b815260206004820152602060248201527f4f776e61626c653a2063616c6c6572206973206e6f7420746865206f776e65726044820152fd5b908060209392818452848401375f828201840152601f01601f1916010190565b6001600160a01b0390911681526040602082018190526123ac9391019161236a565b90565b634e487b7160e01b5f52604160045260245ffd5b601f909101601f19168101906001600160401b038211908210176123e657604052565b6123af565b6040513d5f823e3d90fd5b9081602091031261044357516123ac81611b55565b6124a25f805160206149ce8339815191529361243560018060a01b03600c5460081c16331461231f565b6001600160a01b0383165f81815260208190526040902061245e90631e51809360e31b90611780565b600160ff198254161790555f52600160205260405f20600160ff1982541617905561248d610a2c6002546133fb565b604051938493631e51809360e31b9085613566565b0390a1565b6124a25f805160206149ce833981519152936124d160018060a01b03600c5460081c16331461231f565b6001600160a01b0383165f8181526020819052604090206124fa9063b858183f60e01b90611780565b600160ff198254161790555f52600160205260405f20600160ff19825416179055612529610a2c6002546133fb565b60405193849363b858183f60e01b9085613566565b6124a25f805160206149ce8339815191529361256860018060a01b03600c5460081c16331461231f565b6001600160a01b0383165f81815260208190526040902061259190635c11d79560e01b90611780565b600160ff198254161790555f52600160205260405f20600160ff198254161790556125c0610a2c6002546133fb565b604051938493635c11d79560e01b9085613566565b6124a25f805160206149ce833981519152936125ff60018060a01b03600c5460081c16331461231f565b6001600160a01b0383165f8181526020819052604090206126289063a03d55e360e01b90611780565b600160ff198254161790555f52600160205260405f20600160ff19825416179055612657610a2c6002546133fb565b60405193849363a03d55e360e01b9085613566565b6124a25f805160206149ce8339815191529361269660018060a01b03600c5460081c16331461231f565b6001600160a01b0383165f8181526020819052604090206126bf9063692652c560e11b90611780565b600160ff198254161790555f52600160205260405f20600160ff198254161790556126ee610a2c6002546133fb565b60405193849363692652c560e11b9085613566565b6124a25f805160206149ce8339815191529361272d60018060a01b03600c5460081c16331461231f565b6001600160a01b0383165f81815260208190526040902061275690635313efb360e11b90611780565b600160ff198254161790555f52600160205260405f20600160ff19825416179055612785610a2c6002546133fb565b604051938493635313efb360e11b9085613566565b6124a25f805160206149ce833981519152936127c460018060a01b03600c5460081c16331461231f565b6001600160a01b0383165f8181526020819052604090206127ed90636e553f6560e01b90611780565b600160ff198254161790555f52600160205260405f20600160ff1982541617905561281c610a2c6002546133fb565b604051938493636e553f6560e01b9085613566565b6124a25f805160206149ce8339815191529361285b60018060a01b03600c5460081c16331461231f565b6001600160a01b0383165f81815260208190526040902061288490632d182be560e21b90611780565b600160ff198254161790555f52600160205260405f20600160ff198254161790556128b3610a2c6002546133fb565b604051938493632d182be560e21b9085613566565b6124a25f805160206149ce833981519152936128f260018060a01b03600c5460081c16331461231f565b6001600160a01b0383165f81815260208190526040902061291b90635d043b2960e11b90611780565b600160ff198254161790555f52600160205260405f20600160ff1982541617905561294a610a2c6002546133fb565b604051938493635d043b2960e11b9085613566565b6124a25f805160206149ce8339815191529361298960018060a01b03600c5460081c16331461231f565b6001600160a01b0383165f8181526020819052604090206129b290638dbdbe6d60e01b90611780565b600160ff198254161790555f52600160205260405f20600160ff198254161790556129e1610a2c6002546133fb565b604051938493638dbdbe6d60e01b9085613566565b6124a25f805160206149ce83398151915293612a2060018060a01b03600c5460081c16331461231f565b6001600160a01b0383165f818152602081905260409020612a489062b4d4cb60e11b90611780565b600160ff198254161790555f52600160205260405f20600160ff19825416179055612a77610a2c6002546133fb565b60405193849362b4d4cb60e11b9085613566565b6124a25f805160206149ce83398151915293612ab560018060a01b03600c5460081c16331461231f565b6001600160a01b0383165f818152602081905260409020612ade90630b8b4a6160e21b90611780565b600160ff198254161790555f52600160205260405f20600160ff19825416179055612b0d610a2c6002546133fb565b604051938493630b8b4a6160e21b9085613566565b6124a25f805160206149ce83398151915293612b4c60018060a01b03600c5460081c16331461231f565b6001600160a01b0383165f818152602081905260409020612b7590633ea0e43760e11b90611780565b600160ff198254161790555f52600160205260405f20600160ff19825416179055612ba4610a2c6002546133fb565b604051938493633ea0e43760e11b9085613566565b6124a25f805160206149ce83398151915293612be360018060a01b03600c5460081c16331461231f565b6001600160a01b0383165f818152602081905260409020612c0c906319792d1d60e11b90611780565b600160ff198254161790555f52600160205260405f20600160ff19825416179055612c3b610a2c6002546133fb565b6040519384936319792d1d60e11b9085613566565b6124a25f805160206149ce83398151915293612c7a60018060a01b03600c5460081c16331461231f565b6001600160a01b0383165f818152602081905260409020612ca3906385b77f4560e01b90611780565b600160ff198254161790555f52600160205260405f20600160ff19825416179055612cd2610a2c6002546133fb565b6040519384936385b77f4560e01b9085613566565b6124a25f805160206149ce83398151915293612d1160018060a01b03600c5460081c16331461231f565b6001600160a01b0383165f818152602081905260409020612d3a9063a8abe90560e01b90611780565b600160ff198254161790555f52600160205260405f20600160ff19825416179055612d69610a2c6002546133fb565b60405193849363a8abe90560e01b9085613566565b6124a25f805160206149ce83398151915293612da860018060a01b03600c5460081c16331461231f565b6001600160a01b0383165f818152602081905260409020612dd190630d1e666760e01b90611780565b600160ff198254161790555f52600160205260405f20600160ff19825416179055612e00610a2c6002546133fb565b604051938493630d1e666760e01b9085613566565b6124a25f805160206149ce83398151915293612e3f60018060a01b03600c5460081c16331461231f565b6001600160a01b0383165f818152602081905260409020612e689063036bdad760e61b90611780565b600160ff198254161790555f52600160205260405f20600160ff19825416179055612e97610a2c6002546133fb565b60405193849363036bdad760e61b9085613566565b6124a25f805160206149ce83398151915293612ed660018060a01b03600c5460081c16331461231f565b6001600160a01b0383165f818152602081905260409020612eff90633786fe4360e11b90611780565b600160ff198254161790555f52600160205260405f20600160ff19825416179055612f2e610a2c6002546133fb565b604051938493633786fe4360e11b9085613566565b6124a25f805160206149ce83398151915293612f6d60018060a01b03600c5460081c16331461231f565b6001600160a01b0383165f818152602081905260409020612f969063d46a0a4f60e01b90611780565b600160ff198254161790555f52600160205260405f20600160ff19825416179055612fc5610a2c6002546133fb565b60405193849363d46a0a4f60e01b9085613566565b6124a25f805160206149ce8339815191529361300460018060a01b03600c5460081c16331461231f565b6001600160a01b0383165f81815260208190526040902061302d9063745400c960e01b90611780565b600160ff198254161790555f52600160205260405f20600160ff1982541617905561305c610a2c6002546133fb565b60405193849363745400c960e01b9085613566565b6124a25f805160206149ce8339815191529361309b60018060a01b03600c5460081c16331461231f565b6001600160a01b0383165f8181526020819052604090206130c49063dd9cc05360e01b90611780565b600160ff198254161790555f52600160205260405f20600160ff198254161790556130f3610a2c6002546133fb565b60405193849363dd9cc05360e01b9085613566565b6124a25f805160206149ce8339815191529361313260018060a01b03600c5460081c16331461231f565b6001600160a01b0383165f81815260208190526040902061315b90630332eee160e11b90611780565b600160ff198254161790555f52600160205260405f20600160ff1982541617905561318a610a2c6002546133fb565b604051938493630332eee160e11b9085613566565b6124a25f805160206149ce833981519152936131c960018060a01b03600c5460081c16331461231f565b6001600160a01b0383165f8181526020819052604090206131f290634c267cb160e11b90611780565b600160ff198254161790555f52600160205260405f20600160ff19825416179055613221610a2c6002546133fb565b604051938493634c267cb160e11b9085613566565b6124a25f805160206149ce8339815191529361326060018060a01b03600c5460081c16331461231f565b6001600160a01b0383165f81815260208190526040902061328990631a4ca37b60e21b90611780565b600160ff198254161790555f52600160205260405f20600160ff198254161790556132b8610a2c6002546133fb565b604051938493631a4ca37b60e21b9085613566565b6124a25f805160206149ce833981519152936132f760018060a01b03600c5460081c16331461231f565b6001600160a01b0383165f81815260208190526040902061332090631592ca1b60e31b90611780565b600160ff198254161790555f52600160205260405f20600160ff1982541617905561334f610a2c6002546133fb565b604051938493631592ca1b60e31b9085613566565b6124a25f805160206149ce8339815191529361338e60018060a01b03600c5460081c16331461231f565b6001600160a01b0383165f8181526020819052604090206133b79063095ea7b360e01b90611780565b600160ff198254161790555f52600160205260405f20600160ff198254161790556133e6610a2c6002546133fb565b60405193849363095ea7b360e01b9085613566565b5f1981146134095760010190565b634e487b7160e01b5f52601160045260245ffd5b6001600160a01b03909116815263c04b8d5960e01b60208201526060604082018190526123ac9391019161236a565b6001600160a01b0390911681526338ed173960e01b60208201526060604082018190526123ac9391019161236a565b6001600160a01b03909116815263559ec80d60e01b60208201526060604082018190526123ac9391019161236a565b6001600160a01b039091168152630c04a8a160e41b60208201526060604082018190526123ac9391019161236a565b6001600160a01b039091168152634701287760e11b60208201526060604082018190526123ac9391019161236a565b6001600160a01b03909116815263617ba03760e01b60208201526060604082018190526123ac9391019161236a565b6001600160a01b03909116815263a9059cbb60e01b60208201526060604082018190526123ac9391019161236a565b6001600160a01b0390911681526001600160e01b031990911660208201526060604082018190526123ac9391019161236a565b6001600160a01b039182168152918116602083015290911660408201526080606082018190526123ac9391019161236a565b634e487b7160e01b5f52603260045260245ffd5b91908110156135ef5760051b0190565b6135cb565b356123ac81610432565b9081602091031261044357516123ac81610432565b6124a25f805160206149ae8339815191529361159860018060a01b03600c5460081c16331461231f565b6124a25f8051602061496e8339815191529361169a60018060a01b03600c5460081c16331461231f565b6001600160401b0381116123e65760051b60200190565b9061368882613667565b61369560405191826123c3565b82815280926136a6601f1991613667565b01905f5b8281106136b657505050565b8060606020809385010152016136aa565b91908110156135ef5760051b81013590601e19813603018212156104435701803591906001600160401b038311610443576020018236038113610443579190565b908092918237015f815290565b6001600160401b0381116123e657601f01601f191660200190565b3d1561375a573d9061374182613715565b9161374f60405193846123c3565b82523d5f602084013e565b606090565b602081830312610443578051906001600160401b038211610443570181601f820112156104435780519061379282613715565b926137a060405194856123c3565b8284526020838301011161044357815f9260208093018386015e8301015290565b9060206123ac928181520190611855565b80518210156135ef5760209160051b010190565b60409063ffffffff6123ac9593168152816020820152019161236a565b60ff600c5416908115613814575090565b6001600160a01b03165f9081526003602052604090205460ff16919050565b1561383a57565b60405162461bcd60e51b815260206004820152601260248201527114d95b99195c881b9bdd08185b1b1bddd95960721b6044820152606490fd5b906004116104435790600490565b909291928360041161044357831161044357600401916003190190565b356001600160e01b03198116929190600482106138ba575050565b6001600160e01b031960049290920360031b82901b16169150565b156138dc57565b60405162461bcd60e51b815260206004820152601260248201527115185c99d95d081b9bdd08185b1b1bddd95960721b6044820152606490fd5b1561391d57565b60405162461bcd60e51b815260206004820152601460248201527314d95b1958dd1bdc881b9bdd08185b1b1bddd95960621b6044820152606490fd5b1561396057565b60405162461bcd60e51b815260206004820152601c60248201527b121e5c195c98dbdc9955985d5b1d131a58881b9bdd081b1a5b9ad95960221b6044820152606490fd5b936139d9926060949297969763ffffffff60e01b16865260018060a01b0316602086015260806040860152608085019161236a565b931515910152565b156139e857565b60405162461bcd60e51b815260206004820152601160248201527011db5e131a58881b9bdd081b1a5b9ad959607a1b6044820152606490fd5b92916040926139d99296959660018060a01b0316855260606020860152606085019161236a565b929192613a5482613715565b91613a6260405193846123c3565b829481845281830111610443578281602093845f960137010152565b15613a8557565b60405162461bcd60e51b815260206004820152601e60248201527f53776170526f75746572303220726571756972657320616e79417373657400006044820152606490fd5b916020916139d99195949560408552604085019161236a565b9160206123ac93818152019161236a565b909192613b1a613b0e60018060a01b03600c5460081c1690565b6001600160a01b031690565b6001600160a01b0383161461438857613b58613b53613b4c613b729460018060a01b03165f52600460205260405f2090565b5460ff1690565b613833565b80613b6c613b668287613874565b9061389f565b94613882565b919092613b81600c5460ff1690565b8061436e575b6001600160e01b031982166317938e1360e01b811480159281908461435d575b811561434c575b159081614343575b506142dc575b6338ed173960e01b821480156142cc575b15613c3e5750505050509073__$6d73eb2bedba9c44263ccaf5969a8714f4$__91823b1561044357604051625e769d60e91b8152925f92849283918291613c179160048401613ae3565b03915af480156106f057613c2a575b505b565b806106e85f613c38936123c3565b5f613c26565b63c04b8d5960e01b8203613c925750505050509073__$6d73eb2bedba9c44263ccaf5969a8714f4$__91823b1561044357604051632c69e61160e11b8152925f92849283918291613c179160048401613ae3565b631e51809360e31b8203613ce65750505050509073__$6d73eb2bedba9c44263ccaf5969a8714f4$__91823b156104435760405163fdf3722360e01b8152925f92849283918291613c179160048401613ae3565b63b858183f60e01b8203613d4e57505050505090613d06600c5460ff1690565b613d0f81613a7e565b73__$6d73eb2bedba9c44263ccaf5969a8714f4$__803b1561044357613c17935f93604051958694859384936331dc39a360e01b855260048501613aca565b63a9059cbb60e01b8203613d75575050505050613c2891613d70913691613a48565b614936565b63095ea7b360e01b8203613d9c575050505050613c2891613d97913691613a48565b6148be565b630c04a8a160e41b8203613dc3575050505050613c2891613dbe913691613a48565b614844565b63617ba03760e01b8203613dea575050505050613c2891613de5913691613a48565b614801565b631a4ca37b60e21b8203613e11575050505050613c2891613e0c913691613a48565b6147cc565b93949363559ec80d60e01b821480156142bc575b80156142ac575b801561429c575b15613e47575050505050613c289150614732565b939493636e553f6560e01b8203613e71575050505050613c2891613e6c913691613a48565b614692565b630b8b4a6160e21b8203613e98575050505050613c2891613e93913691613a48565b6146cf565b638dbdbe6d60e01b8203613ebf575050505050613c2891613eba913691613a48565b614718565b62b4d4cb60e11b8203613ee5575050505050613c2891613ee0913691613a48565b6146f7565b632d182be560e21b8203613f07575050505050613c2891613e93913691613a48565b635d043b2960e11b8203613f29575050505050613c2891613e93913691613a48565b633ea0e43760e11b8203613f4b575050505050613c2891613e93913691613a48565b6319792d1d60e11b8203613f6d575050505050613c2891613e93913691613a48565b6385b77f4560e01b8203613f8f575050505050613c2891613e93913691613a48565b63a8abe90560e01b8203613fb1575050505050613c2891613e6c913691613a48565b939493630d1e666760e01b8214801561428c575b801561427c575b801561426c575b801561425c575b801561424c575b801561423c575b801561422c575b15613ffe575b50505050505050565b631592ca1b60e31b82036140d2575050505073__$abe99e6f90010eaab1ae0937da96c92fff$__604051636290236f60e11b8152602081600481855af480156106f057614052915f916140b3575b506139e1565b600c5460ff1693813b15610443575f9361408260405196879586948594633bf8b9bb60e11b865260048601613a21565b03915af480156106f05761409f575b505b5f808080808080613ff5565b806106e85f6140ad936123c3565b5f614091565b6140cc915060203d6020116109275761091981836123c3565b5f61404c565b9295939492634701287760e11b82036140f7575050506140f29350614573565b614093565b9594959161421b575b811561420a575b50156141c957604051636290236f60e11b815273__$ed404fe8d8cd691b210f32f3e93e2f5fa7$__9190602081600481865af480156106f057614151915f916141aa575b50613959565b600c5460ff1693823b15610443576141815f956040519788968795869563f42001eb60e01b8752600487016139a4565b03915af480156106f057614196575b50614093565b806106e85f6141a4936123c3565b5f614190565b6141c3915060203d6020116109275761091981836123c3565b5f61414b565b60405162461bcd60e51b81526020600482015260196024820152782ab735b737bbb710333ab731ba34b7b71039b2b632b1ba37b960391b6044820152606490fd5b63611e2a2d60e11b1490505f614107565b630acb7f4b60e21b81149150614100565b50634c267cb160e11b8214613fef565b50630332eee160e11b8214613fe8565b5063dd9cc05360e01b8214613fe1565b5063745400c960e01b8214613fda565b5063d46a0a4f60e01b8214613fd3565b50633786fe4360e11b8214613fcc565b5063036bdad760e61b8214613fc5565b50635313efb360e11b8214613e33565b5063692652c560e11b8214613e2c565b5063a03d55e360e01b8214613e25565b50635c11d79560e01b8214613bcd565b6142f86142f4613b4c866142ef8961056d565b611780565b1590565b15613bbc576001600160a01b0385165f9081526001602052604090206143269061432190613b4c565b6138d5565b61433e614339613b4c866142ef8961056d565b613916565b613bbc565b9050155f613bb6565b63611e2a2d60e11b84149150613bae565b630acb7f4b60e21b84149150613ba7565b5063095ea7b360e01b6001600160e01b0319821614613b87565b50505050565b90613c2892916143ac60018060a01b03600c5460081c16331461231f565b6001600160a01b0381165f8181526020818152604080832063a9059cbb60e01b84529091529020600160ff198254161790555f52600160205260405f20600160ff19825416179055614402610a2c6002546133fb565b5f805160206149ce8339815191526040518061442086868684613537565b0390a161442e838383613364565b613613565b613c2860018060a01b03600c5460081c16331461231f565b908160e09103126104435780359161446560208301611347565b91604081013591606082013561447a81610432565b916080810135916123ac60c060a08401359301611347565b1561449957565b60405162461bcd60e51b815260206004820152601c60248201527b10d0d5140819195cdd1a5b985d1a5bdb881b9bdd08185b1b1bddd95960221b6044820152606490fd5b156144e457565b60405162461bcd60e51b815260206004820152601b60248201527a10d0d51408189d5c9b881d1bdad95b881b9bdd08185b1b1bddd959602a1b6044820152606490fd5b1561452e57565b60405162461bcd60e51b815260206004820152601f60248201527f43435450206d696e7420726563697069656e74206e6f7420616c6c6f776564006044820152606490fd5b6001600160a01b03165f908152600a602052604090205460ff161561460957613b4c613b4c6145eb6145e66145d36145d86145b787613c289961460499019061444b565b505050949250969063ffffffff165f52600b60205260405f2090565b614492565b6001600160a01b0316613803565b6144dd565b6001600160a01b03165f90815260056020526040902090565b614527565b60405162461bcd60e51b815260206004820152601a60248201527910d0d514081b595cdcd95b99d95c881b9bdd08185b1b1bddd95960321b6044820152606490fd5b1561465257565b60405162461bcd60e51b8152602060048201526018602482015277149958d95a5d995c881b9bdd081dda1a5d195b1a5cdd195960421b6044820152606490fd5b60408180518101031261044357604001516146ac81610432565b6001600160a01b03165f90815260056020526040902054613c289060ff1661464b565b606081805181010312610443576146ac60606040830151926146f084610432565b0151610432565b608081805181010312610443576146ac60806060830151926146f084610432565b60608180518101031261044357606001516146ac81610432565b6001600160a01b03165f9081526009602052604090205460ff161561475357565b60405162461bcd60e51b815260206004820152601160248201527015985d5b1d081b9bdd08185b1b1bddd959607a1b6044820152606490fd5b1561479357565b60405162461bcd60e51b8152602060048201526011602482015270151bdad95b881b9bdd08185b1b1bddd959607a1b6044820152606490fd5b606081805181010312610443576146ac6147fc60606020840151936147f085610432565b0151926145d884610432565b61478c565b608081805181010312610443576146ac6147fc60606020840151936147f085610432565b9190826040910312610443576020825161483e81610432565b92015190565b6148579060208082518301019101614825565b506001600160a01b03165f9081526008602052604090205460ff161561487957565b60405162461bcd60e51b815260206004820152601e60248201527f44656c65676174696f6e2061646472657373206e6f7420616c6c6f77656400006044820152606490fd5b6148d19060208082518301019101614825565b506001600160a01b03165f9081526007602052604090205460ff16156148f357565b60405162461bcd60e51b815260206004820152601b60248201527a105c1c1c9bdd99481859191c995cdcc81b9bdd08185b1b1bddd959602a1b6044820152606490fd5b6149499060208082518301019101614825565b506001600160a01b03165f90815260066020526040902054613c289060ff1661464b56fe628a44970c0e450415e3ae74334ea44f3307b74dbf677a1371190242bf2f35898be0079c531659141344cd1fd0a4f28419497f9722a3daafe3b4186f6b6457e0ad90e2570fc4fe9f7437be3188d5c791c6662892d31731992aa88f5c87621983ef729aaa41b9fd994f9ff7c1960df214a84f722002e6cfbea31799cd0873a3efa164736f6c634300081a000a","linkReferences":{"src/lib/CowSwapLib.sol":{"CowSwapLib":[{"start":1788,"length":20},{"start":2527,"length":20}]},"src/lib/GmxLib.sol":{"GmxLib":[{"start":2353,"length":20},{"start":3063,"length":20},{"start":4479,"length":20},{"start":6215,"length":20},{"start":7399,"length":20},{"start":7627,"length":20},{"start":16513,"length":20}]},"src/lib/HypercoreVaultLib.sol":{"HypercoreVaultLib":[{"start":2183,"length":20},{"start":6731,"length":20},{"start":7734,"length":20},{"start":16779,"length":20}]},"src/lib/UniswapLib.sol":{"UniswapLib":[{"start":15433,"length":20},{"start":15555,"length":20},{"start":15639,"length":20},{"start":15744,"length":20}]},"src/lib/VeloraLib.sol":{"VeloraLib":[{"start":3237,"length":20},{"start":8776,"length":20}]}}},"methodIdentifiers":{"allowApprovalDestination(address,string)":"98b3cc39","allowAsset(address,string)":"86b6dbe5","allowCallSite(address,bytes4,string)":"5e4ccace","allowDelegationApprovalDestination(address,string)":"63cc17f2","allowReceiver(address,string)":"72e548a9","allowSender(address,string)":"fa2c59c8","allowWithdrawDestination(address,string)":"5ace1d92","allowedApprovalDestinations(address)":"eb0de042","allowedAssets(address)":"a4c1cccb","allowedCCTPDestinations(uint32)":"7cac69c3","allowedCCTPMessengers(address)":"07605342","allowedCallSites(address,bytes4)":"a847cf4d","allowedDelegationApprovalDestinations(address)":"4b941268","allowedLagoonVaults(address)":"8fb4dff2","allowedReceivers(address)":"3cf20025","allowedSenders(address)":"fadbcf48","allowedTargets(address)":"b8fe8d5f","allowedWithdrawDestinations(address)":"07ef00cf","anyAsset()":"87301608","callSiteCount()":"a9fc3d4f","getGovernanceAddress()":"73252494","getInternalVersion()":"fdedfa27","gmxOrderVaults(address)":"a86ddc57","isAllowedApprovalDestination(address)":"1d49039c","isAllowedAsset(address)":"c537bed0","isAllowedCCTPDestination(uint32)":"748fca46","isAllowedCCTPMessenger(address)":"0411fb8e","isAllowedCallSite(address,bytes4)":"713ebf3b","isAllowedCowSwap(address)":"333f22e8","isAllowedDelegationApprovalDestination(address)":"2dc32a61","isAllowedGMXMarket(address)":"2e31e9c6","isAllowedGMXRouter(address)":"cbdb1dcf","isAllowedLagoonVault(address)":"6fd7fdef","isAllowedReceiver(address)":"d075f9bb","isAllowedSender(address)":"be8c97b0","isAllowedTarget(address)":"78addb48","isAllowedVeloraSwapper(address)":"f84756aa","isAllowedWithdrawDestination(address)":"efb47bff","multicall(bytes[])":"ac9650d8","owner()":"8da5cb5b","removeApprovalDestination(address,string)":"04a3ba25","removeAsset(address,string)":"f901dc33","removeCCTPDestination(uint32,string)":"ba44ad41","removeCallSite(address,bytes4,string)":"d7334c9d","removeDelegationApprovalDestination(address,string)":"f259a073","removeGMXMarket(address,string)":"4d3d31ca","removeHypercoreVault(address,string)":"e2873b6d","removeReceiver(address,string)":"2d12d788","removeSender(address,string)":"a67e1f54","removeWithdrawDestination(address,string)":"8c2fdf9e","renounceOwnership()":"715018a6","setAnyAssetAllowed(bool,string)":"c2e657ae","transferOwnership(address)":"f2fde38b","validateCall(address,address,bytes)":"6d5025f1","whitelistAaveV3(address,string)":"f20e85e0","whitelistCCTP(address,string)":"ec011440","whitelistCCTPDestination(uint32,string)":"e6f32c51","whitelistCoreWriter(address,address,string)":"acb9da16","whitelistCowSwap(address,address,string)":"1047789e","whitelistERC4626(address,string)":"86a6ae15","whitelistGMX(address,address,address,address[],string)":"6e3de202","whitelistGMXMarket(address,string)":"d7581509","whitelistHypercoreVault(address,string)":"2de905bc","whitelistLagoon(address,string)":"5e6afe4d","whitelistToken(address,string)":"ee5462cc","whitelistTokenForDelegation(address,string)":"6d9a1423","whitelistUniswapV2Router(address,string)":"3ea35551","whitelistUniswapV3Router(address,string)":"34ec8d7e","whitelistVelora(address,address,string)":"4efbad39"},"id":19}