{"abi":[{"type":"constructor","inputs":[],"stateMutability":"nonpayable"},{"type":"function","name":"allowApprovalDestination","inputs":[{"name":"destination","type":"address","internalType":"address"},{"name":"notes","type":"string","internalType":"string"}],"outputs":[],"stateMutability":"nonpayable"},{"type":"function","name":"allowAsset","inputs":[{"name":"asset","type":"address","internalType":"address"},{"name":"notes","type":"string","internalType":"string"}],"outputs":[],"stateMutability":"nonpayable"},{"type":"function","name":"allowCallSite","inputs":[{"name":"target","type":"address","internalType":"address"},{"name":"selector","type":"bytes4","internalType":"bytes4"},{"name":"notes","type":"string","internalType":"string"}],"outputs":[],"stateMutability":"nonpayable"},{"type":"function","name":"allowDelegationApprovalDestination","inputs":[{"name":"destination","type":"address","internalType":"address"},{"name":"notes","type":"string","internalType":"string"}],"outputs":[],"stateMutability":"nonpayable"},{"type":"function","name":"allowReceiver","inputs":[{"name":"receiver","type":"address","internalType":"address"},{"name":"notes","type":"string","internalType":"string"}],"outputs":[],"stateMutability":"nonpayable"},{"type":"function","name":"allowSender","inputs":[{"name":"sender","type":"address","internalType":"address"},{"name":"notes","type":"string","internalType":"string"}],"outputs":[],"stateMutability":"nonpayable"},{"type":"function","name":"allowWithdrawDestination","inputs":[{"name":"destination","type":"address","internalType":"address"},{"name":"notes","type":"string","internalType":"string"}],"outputs":[],"stateMutability":"nonpayable"},{"type":"function","name":"allowedApprovalDestinations","inputs":[{"name":"destination","type":"address","internalType":"address"}],"outputs":[{"name":"allowed","type":"bool","internalType":"bool"}],"stateMutability":"view"},{"type":"function","name":"allowedAssets","inputs":[{"name":"token","type":"address","internalType":"address"}],"outputs":[{"name":"allowed","type":"bool","internalType":"bool"}],"stateMutability":"view"},{"type":"function","name":"allowedCCTPDestinations","inputs":[{"name":"domain","type":"uint32","internalType":"uint32"}],"outputs":[{"name":"allowed","type":"bool","internalType":"bool"}],"stateMutability":"view"},{"type":"function","name":"allowedCCTPMessengers","inputs":[{"name":"messenger","type":"address","internalType":"address"}],"outputs":[{"name":"allowed","type":"bool","internalType":"bool"}],"stateMutability":"view"},{"type":"function","name":"allowedCallSites","inputs":[{"name":"target","type":"address","internalType":"address"},{"name":"selector","type":"bytes4","internalType":"bytes4"}],"outputs":[{"name":"allowed","type":"bool","internalType":"bool"}],"stateMutability":"view"},{"type":"function","name":"allowedDelegationApprovalDestinations","inputs":[{"name":"destination","type":"address","internalType":"address"}],"outputs":[{"name":"allowed","type":"bool","internalType":"bool"}],"stateMutability":"view"},{"type":"function","name":"allowedLagoonVaults","inputs":[{"name":"destination","type":"address","internalType":"address"}],"outputs":[{"name":"allowed","type":"bool","internalType":"bool"}],"stateMutability":"view"},{"type":"function","name":"allowedReceivers","inputs":[{"name":"receiver","type":"address","internalType":"address"}],"outputs":[{"name":"allowed","type":"bool","internalType":"bool"}],"stateMutability":"view"},{"type":"function","name":"allowedSenders","inputs":[{"name":"sender","type":"address","internalType":"address"}],"outputs":[{"name":"allowed","type":"bool","internalType":"bool"}],"stateMutability":"view"},{"type":"function","name":"allowedTargets","inputs":[{"name":"target","type":"address","internalType":"address"}],"outputs":[{"name":"allowed","type":"bool","internalType":"bool"}],"stateMutability":"view"},{"type":"function","name":"allowedWithdrawDestinations","inputs":[{"name":"destination","type":"address","internalType":"address"}],"outputs":[{"name":"allowed","type":"bool","internalType":"bool"}],"stateMutability":"view"},{"type":"function","name":"anyAsset","inputs":[],"outputs":[{"name":"","type":"bool","internalType":"bool"}],"stateMutability":"view"},{"type":"function","name":"callSiteCount","inputs":[],"outputs":[{"name":"","type":"uint256","internalType":"uint256"}],"stateMutability":"view"},{"type":"function","name":"getGovernanceAddress","inputs":[],"outputs":[{"name":"","type":"address","internalType":"address"}],"stateMutability":"view"},{"type":"function","name":"getInternalVersion","inputs":[],"outputs":[{"name":"","type":"uint8","internalType":"uint8"}],"stateMutability":"pure"},{"type":"function","name":"gmxOrderVaults","inputs":[{"name":"exchangeRouter","type":"address","internalType":"address"}],"outputs":[{"name":"","type":"address","internalType":"address"}],"stateMutability":"view"},{"type":"function","name":"isAllowedApprovalDestination","inputs":[{"name":"receiver","type":"address","internalType":"address"}],"outputs":[{"name":"","type":"bool","internalType":"bool"}],"stateMutability":"view"},{"type":"function","name":"isAllowedAsset","inputs":[{"name":"token","type":"address","internalType":"address"}],"outputs":[{"name":"","type":"bool","internalType":"bool"}],"stateMutability":"view"},{"type":"function","name":"isAllowedCCTPDestination","inputs":[{"name":"domain","type":"uint32","internalType":"uint32"}],"outputs":[{"name":"","type":"bool","internalType":"bool"}],"stateMutability":"view"},{"type":"function","name":"isAllowedCCTPMessenger","inputs":[{"name":"messenger","type":"address","internalType":"address"}],"outputs":[{"name":"","type":"bool","internalType":"bool"}],"stateMutability":"view"},{"type":"function","name":"isAllowedCallSite","inputs":[{"name":"target","type":"address","internalType":"address"},{"name":"selector","type":"bytes4","internalType":"bytes4"}],"outputs":[{"name":"","type":"bool","internalType":"bool"}],"stateMutability":"view"},{"type":"function","name":"isAllowedCowSwap","inputs":[{"name":"settlement","type":"address","internalType":"address"}],"outputs":[{"name":"","type":"bool","internalType":"bool"}],"stateMutability":"view"},{"type":"function","name":"isAllowedDelegationApprovalDestination","inputs":[{"name":"receiver","type":"address","internalType":"address"}],"outputs":[{"name":"","type":"bool","internalType":"bool"}],"stateMutability":"view"},{"type":"function","name":"isAllowedGMXMarket","inputs":[{"name":"market","type":"address","internalType":"address"}],"outputs":[{"name":"","type":"bool","internalType":"bool"}],"stateMutability":"view"},{"type":"function","name":"isAllowedGMXRouter","inputs":[{"name":"router","type":"address","internalType":"address"}],"outputs":[{"name":"","type":"bool","internalType":"bool"}],"stateMutability":"view"},{"type":"function","name":"isAllowedLagoonVault","inputs":[{"name":"vault","type":"address","internalType":"address"}],"outputs":[{"name":"","type":"bool","internalType":"bool"}],"stateMutability":"view"},{"type":"function","name":"isAllowedReceiver","inputs":[{"name":"receiver","type":"address","internalType":"address"}],"outputs":[{"name":"","type":"bool","internalType":"bool"}],"stateMutability":"view"},{"type":"function","name":"isAllowedSender","inputs":[{"name":"sender","type":"address","internalType":"address"}],"outputs":[{"name":"","type":"bool","internalType":"bool"}],"stateMutability":"view"},{"type":"function","name":"isAllowedTarget","inputs":[{"name":"target","type":"address","internalType":"address"}],"outputs":[{"name":"","type":"bool","internalType":"bool"}],"stateMutability":"view"},{"type":"function","name":"isAllowedVeloraSwapper","inputs":[{"name":"swapper","type":"address","internalType":"address"}],"outputs":[{"name":"","type":"bool","internalType":"bool"}],"stateMutability":"view"},{"type":"function","name":"isAllowedWithdrawDestination","inputs":[{"name":"receiver","type":"address","internalType":"address"}],"outputs":[{"name":"","type":"bool","internalType":"bool"}],"stateMutability":"view"},{"type":"function","name":"multicall","inputs":[{"name":"data","type":"bytes[]","internalType":"bytes[]"}],"outputs":[{"name":"results","type":"bytes[]","internalType":"bytes[]"}],"stateMutability":"payable"},{"type":"function","name":"owner","inputs":[],"outputs":[{"name":"","type":"address","internalType":"address"}],"stateMutability":"view"},{"type":"function","name":"removeApprovalDestination","inputs":[{"name":"destination","type":"address","internalType":"address"},{"name":"notes","type":"string","internalType":"string"}],"outputs":[],"stateMutability":"nonpayable"},{"type":"function","name":"removeAsset","inputs":[{"name":"asset","type":"address","internalType":"address"},{"name":"notes","type":"string","internalType":"string"}],"outputs":[],"stateMutability":"nonpayable"},{"type":"function","name":"removeCCTPDestination","inputs":[{"name":"domain","type":"uint32","internalType":"uint32"},{"name":"notes","type":"string","internalType":"string"}],"outputs":[],"stateMutability":"nonpayable"},{"type":"function","name":"removeCallSite","inputs":[{"name":"target","type":"address","internalType":"address"},{"name":"selector","type":"bytes4","internalType":"bytes4"},{"name":"notes","type":"string","internalType":"string"}],"outputs":[],"stateMutability":"nonpayable"},{"type":"function","name":"removeDelegationApprovalDestination","inputs":[{"name":"destination","type":"address","internalType":"address"},{"name":"notes","type":"string","internalType":"string"}],"outputs":[],"stateMutability":"nonpayable"},{"type":"function","name":"removeGMXMarket","inputs":[{"name":"market","type":"address","internalType":"address"},{"name":"notes","type":"string","internalType":"string"}],"outputs":[],"stateMutability":"nonpayable"},{"type":"function","name":"removeHypercoreVault","inputs":[{"name":"vault","type":"address","internalType":"address"},{"name":"notes","type":"string","internalType":"string"}],"outputs":[],"stateMutability":"nonpayable"},{"type":"function","name":"removeReceiver","inputs":[{"name":"receiver","type":"address","internalType":"address"},{"name":"notes","type":"string","internalType":"string"}],"outputs":[],"stateMutability":"nonpayable"},{"type":"function","name":"removeSender","inputs":[{"name":"sender","type":"address","internalType":"address"},{"name":"notes","type":"string","internalType":"string"}],"outputs":[],"stateMutability":"nonpayable"},{"type":"function","name":"removeWithdrawDestination","inputs":[{"name":"destination","type":"address","internalType":"address"},{"name":"notes","type":"string","internalType":"string"}],"outputs":[],"stateMutability":"nonpayable"},{"type":"function","name":"renounceOwnership","inputs":[],"outputs":[],"stateMutability":"nonpayable"},{"type":"function","name":"setAnyAssetAllowed","inputs":[{"name":"value","type":"bool","internalType":"bool"},{"name":"notes","type":"string","internalType":"string"}],"outputs":[],"stateMutability":"nonpayable"},{"type":"function","name":"transferOwnership","inputs":[{"name":"newOwner","type":"address","internalType":"address"}],"outputs":[],"stateMutability":"nonpayable"},{"type":"function","name":"validateCall","inputs":[{"name":"sender","type":"address","internalType":"address"},{"name":"target","type":"address","internalType":"address"},{"name":"callDataWithSelector","type":"bytes","internalType":"bytes"}],"outputs":[],"stateMutability":"view"},{"type":"function","name":"whitelistAaveV3","inputs":[{"name":"lendingPool","type":"address","internalType":"address"},{"name":"notes","type":"string","internalType":"string"}],"outputs":[],"stateMutability":"nonpayable"},{"type":"function","name":"whitelistCCTP","inputs":[{"name":"tokenMessenger","type":"address","internalType":"address"},{"name":"notes","type":"string","internalType":"string"}],"outputs":[],"stateMutability":"nonpayable"},{"type":"function","name":"whitelistCCTPDestination","inputs":[{"name":"domain","type":"uint32","internalType":"uint32"},{"name":"notes","type":"string","internalType":"string"}],"outputs":[],"stateMutability":"nonpayable"},{"type":"function","name":"whitelistCoreWriter","inputs":[{"name":"coreWriter","type":"address","internalType":"address"},{"name":"coreDepositWallet","type":"address","internalType":"address"},{"name":"notes","type":"string","internalType":"string"}],"outputs":[],"stateMutability":"nonpayable"},{"type":"function","name":"whitelistCowSwap","inputs":[{"name":"settlementContract","type":"address","internalType":"address"},{"name":"relayerContract","type":"address","internalType":"address"},{"name":"notes","type":"string","internalType":"string"}],"outputs":[],"stateMutability":"nonpayable"},{"type":"function","name":"whitelistERC4626","inputs":[{"name":"vault","type":"address","internalType":"address"},{"name":"notes","type":"string","internalType":"string"}],"outputs":[],"stateMutability":"nonpayable"},{"type":"function","name":"whitelistGMX","inputs":[{"name":"exchangeRouter","type":"address","internalType":"address"},{"name":"syntheticsRouter","type":"address","internalType":"address"},{"name":"orderVault","type":"address","internalType":"address"},{"name":"notes","type":"string","internalType":"string"}],"outputs":[],"stateMutability":"nonpayable"},{"type":"function","name":"whitelistGMXMarket","inputs":[{"name":"market","type":"address","internalType":"address"},{"name":"notes","type":"string","internalType":"string"}],"outputs":[],"stateMutability":"nonpayable"},{"type":"function","name":"whitelistHypercoreVault","inputs":[{"name":"vault","type":"address","internalType":"address"},{"name":"notes","type":"string","internalType":"string"}],"outputs":[],"stateMutability":"nonpayable"},{"type":"function","name":"whitelistLagoon","inputs":[{"name":"vault","type":"address","internalType":"address"},{"name":"notes","type":"string","internalType":"string"}],"outputs":[],"stateMutability":"nonpayable"},{"type":"function","name":"whitelistToken","inputs":[{"name":"token","type":"address","internalType":"address"},{"name":"notes","type":"string","internalType":"string"}],"outputs":[],"stateMutability":"nonpayable"},{"type":"function","name":"whitelistTokenForDelegation","inputs":[{"name":"token","type":"address","internalType":"address"},{"name":"notes","type":"string","internalType":"string"}],"outputs":[],"stateMutability":"nonpayable"},{"type":"function","name":"whitelistUniswapV2Router","inputs":[{"name":"router","type":"address","internalType":"address"},{"name":"notes","type":"string","internalType":"string"}],"outputs":[],"stateMutability":"nonpayable"},{"type":"function","name":"whitelistUniswapV3Router","inputs":[{"name":"router","type":"address","internalType":"address"},{"name":"notes","type":"string","internalType":"string"}],"outputs":[],"stateMutability":"nonpayable"},{"type":"function","name":"whitelistVelora","inputs":[{"name":"augustusSwapper","type":"address","internalType":"address"},{"name":"tokenTransferProxy","type":"address","internalType":"address"},{"name":"notes","type":"string","internalType":"string"}],"outputs":[],"stateMutability":"nonpayable"},{"type":"event","name":"AnyAssetSet","inputs":[{"name":"value","type":"bool","indexed":false,"internalType":"bool"},{"name":"notes","type":"string","indexed":false,"internalType":"string"}],"anonymous":false},{"type":"event","name":"AnyVaultSet","inputs":[{"name":"value","type":"bool","indexed":false,"internalType":"bool"},{"name":"notes","type":"string","indexed":false,"internalType":"string"}],"anonymous":false},{"type":"event","name":"ApprovalDestinationApproved","inputs":[{"name":"destination","type":"address","indexed":false,"internalType":"address"},{"name":"notes","type":"string","indexed":false,"internalType":"string"}],"anonymous":false},{"type":"event","name":"ApprovalDestinationRemoved","inputs":[{"name":"destination","type":"address","indexed":false,"internalType":"address"},{"name":"notes","type":"string","indexed":false,"internalType":"string"}],"anonymous":false},{"type":"event","name":"AssetApproved","inputs":[{"name":"asset","type":"address","indexed":false,"internalType":"address"},{"name":"notes","type":"string","indexed":false,"internalType":"string"}],"anonymous":false},{"type":"event","name":"AssetRemoved","inputs":[{"name":"asset","type":"address","indexed":false,"internalType":"address"},{"name":"notes","type":"string","indexed":false,"internalType":"string"}],"anonymous":false},{"type":"event","name":"CCTPDestinationApproved","inputs":[{"name":"domain","type":"uint32","indexed":false,"internalType":"uint32"},{"name":"notes","type":"string","indexed":false,"internalType":"string"}],"anonymous":false},{"type":"event","name":"CCTPDestinationRemoved","inputs":[{"name":"domain","type":"uint32","indexed":false,"internalType":"uint32"},{"name":"notes","type":"string","indexed":false,"internalType":"string"}],"anonymous":false},{"type":"event","name":"CCTPMessengerApproved","inputs":[{"name":"tokenMessenger","type":"address","indexed":false,"internalType":"address"},{"name":"notes","type":"string","indexed":false,"internalType":"string"}],"anonymous":false},{"type":"event","name":"CallSiteApproved","inputs":[{"name":"target","type":"address","indexed":false,"internalType":"address"},{"name":"selector","type":"bytes4","indexed":false,"internalType":"bytes4"},{"name":"notes","type":"string","indexed":false,"internalType":"string"}],"anonymous":false},{"type":"event","name":"CallSiteRemoved","inputs":[{"name":"target","type":"address","indexed":false,"internalType":"address"},{"name":"selector","type":"bytes4","indexed":false,"internalType":"bytes4"},{"name":"notes","type":"string","indexed":false,"internalType":"string"}],"anonymous":false},{"type":"event","name":"DelegationApprovalDestinationApproved","inputs":[{"name":"destination","type":"address","indexed":false,"internalType":"address"},{"name":"notes","type":"string","indexed":false,"internalType":"string"}],"anonymous":false},{"type":"event","name":"DelegationApprovalDestinationRemoved","inputs":[{"name":"destination","type":"address","indexed":false,"internalType":"address"},{"name":"notes","type":"string","indexed":false,"internalType":"string"}],"anonymous":false},{"type":"event","name":"ERC4626Approved","inputs":[{"name":"vault","type":"address","indexed":false,"internalType":"address"},{"name":"notes","type":"string","indexed":false,"internalType":"string"}],"anonymous":false},{"type":"event","name":"LagoonVaultApproved","inputs":[{"name":"vault","type":"address","indexed":false,"internalType":"address"},{"name":"notes","type":"string","indexed":false,"internalType":"string"}],"anonymous":false},{"type":"event","name":"OwnershipTransferred","inputs":[{"name":"previousOwner","type":"address","indexed":true,"internalType":"address"},{"name":"newOwner","type":"address","indexed":true,"internalType":"address"}],"anonymous":false},{"type":"event","name":"ReceiverApproved","inputs":[{"name":"receiver","type":"address","indexed":false,"internalType":"address"},{"name":"notes","type":"string","indexed":false,"internalType":"string"}],"anonymous":false},{"type":"event","name":"ReceiverRemoved","inputs":[{"name":"receiver","type":"address","indexed":false,"internalType":"address"},{"name":"notes","type":"string","indexed":false,"internalType":"string"}],"anonymous":false},{"type":"event","name":"SenderApproved","inputs":[{"name":"sender","type":"address","indexed":false,"internalType":"address"},{"name":"notes","type":"string","indexed":false,"internalType":"string"}],"anonymous":false},{"type":"event","name":"SenderRemoved","inputs":[{"name":"sender","type":"address","indexed":false,"internalType":"address"},{"name":"notes","type":"string","indexed":false,"internalType":"string"}],"anonymous":false},{"type":"event","name":"WithdrawDestinationApproved","inputs":[{"name":"destination","type":"address","indexed":false,"internalType":"address"},{"name":"notes","type":"string","indexed":false,"internalType":"string"}],"anonymous":false},{"type":"event","name":"WithdrawDestinationRemoved","inputs":[{"name":"destination","type":"address","indexed":false,"internalType":"address"},{"name":"notes","type":"string","indexed":false,"internalType":"string"}],"anonymous":false}],"bytecode":{"object":"0x60808060405234606a57600c8054610100600160a81b0319811633600881811b610100600160a81b0316929092179093551c6001600160a01b03167f8be0079c531659141344cd1fd0a4f28419497f9722a3daafe3b4186f6b6457e05f80a3614333908161006f8239f35b5f80fdfe60806040526004361015610011575f80fd5b5f3560e01c80630411fb8e1461042857806304a3ba251461042d578063076053421461042857806307ef00cf146103385780631047789e146104235780631d49039c146103475780632d12d7881461041e5780632dc32a61146104005780632de905bc146104195780632e31e9c614610414578063333f22e81461040f57806334ec8d7e1461040a5780633cf20025146103605780633ea35551146104055780634b941268146104005780634d3d31ca146103fb5780634efbad39146103f65780635ace1d92146103f15780635e4ccace146103ec5780635e6afe4d146103e757806362d6775e146103e257806363cc17f2146103dd5780636d5025f1146103d85780636d9a1423146103d35780636fd7fdef146103a6578063713ebf3b14610392578063715018a6146103ce57806372e548a9146103c957806373252494146103ab578063748fca46146103c457806378addb48146103795780637cac69c3146103c457806386a6ae15146103bf57806386b6dbe5146103ba57806387301608146103b55780638c2fdf9e146103b05780638da5cb5b146103ab5780638fb4dff2146103a657806398b3cc39146103a1578063a4c1cccb1461039c578063a67e1f5414610397578063a847cf4d14610392578063a86ddc571461038d578063a9fc3d4f14610388578063ac9650d814610383578063acb9da161461037e578063b8fe8d5f14610379578063ba44ad4114610374578063be8c97b014610315578063c2e657ae1461036f578063c537bed01461036a578063cbdb1dcf14610365578063d075f9bb14610360578063d7334c9d1461035b578063d758150914610356578063e2873b6d14610351578063e6f32c511461034c578063eb0de04214610347578063ec01144014610342578063ee5462cc1461033d578063efb47bff14610338578063f20e85e014610333578063f259a0731461032e578063f2fde38b14610329578063f84756aa14610324578063f901dc331461031f578063fa2c59c81461031a578063fadbcf48146103155763fdedfa2714610310575f80fd5b612299565b611aaa565b61221e565b6121a6565b61212c565b61205c565b611fe4565b611f34565b610586565b611f0a565b611e0f565b6106f5565b611d99565b611d2e565b611cc3565b611c45565b610a6d565b611bcb565b611b9a565b611af4565b611a37565b611356565b611948565b611849565b6117a9565b611707565b6111a8565b611679565b611639565b6115d1565b611168565b6112cc565b611559565b611537565b6114cf565b611396565b61131c565b611251565b611205565b6110be565b6110a4565b61103c565b610f07565b610de4565b610d51565b610c73565b610bc5565b610b5d565b6107ad565b610aad565b6109a8565b61092e565b610873565b6107ed565b610735565b61060a565b610447565b6104f0565b6001600160a01b0381160361044357565b5f80fd5b346104435760203660031901126104435760043561046481610432565b60018060a01b03165f52600a602052602060ff60405f2054166040519015158152f35b9181601f84011215610443578235916001600160401b038311610443576020838186019501011161044357565b906040600319830112610443576004356104cd81610432565b91602435906001600160401b038211610443576104ec91600401610487565b9091565b34610443577fb71be9befd3ac90c1c9981d3b1161b3c2c6dcd741f13b34061aa251226a802df610568610522366104b4565b61053d60018060a09694961b03600c5460081c1633146122b4565b6001600160a01b0383165f9081526007602052604090819020805460ff19169055519384938461231f565b0390a1005b6001600160a01b03165f90815260208190526040902090565b34610443576020366003190112610443576004356105a381610432565b60018060a01b03165f526006602052602060ff60405f2054166040519015158152f35b6060600319820112610443576004356105de81610432565b916024356105eb81610432565b91604435906001600160401b038211610443576104ec91600401610487565b346104435761068b61061b366105c6565b81819361064260018060a09996991b03600c5460081c16331461063d816122b4565b6122b4565b6001600160a01b0386165f9081526007602052604090819020805460ff19166001179055515f805160206142a7833981519152908061068386868b8461231f565b0390a161307f565b73__$6fc6cfb0e70d6cdcacff54ae5a1f7f5d2d$__803b15610443576106ca935f936040519586948593849363303e5bc960e21b85526004850161231f565b03915af480156106f0576106da57005b806106e85f6106ee93612358565b806111fb565b005b612380565b346104435760203660031901126104435760043561071281610432565b60018060a01b03165f526007602052602060ff60405f2054166040519015158152f35b34610443577f4e13b11ab98e672bd78295ef9cebe764dc617f95decf47d842c25b83abc0c724610568610767366104b4565b61078260018060a09694961b03600c5460081c1633146122b4565b6001600160a01b0383165f9081526005602052604090819020805460ff19169055519384938461231f565b34610443576020366003190112610443576004356107ca81610432565b60018060a01b03165f526008602052602060ff60405f2054166040519015158152f35b34610443576107fb366104b4565b915f9261081660018060a01b03600c5460081c1633146122b4565b73__$ed404fe8d8cd691b210f32f3e93e2f5fa7$__803b1561044357610855935f9360405195869485938493630b7a416f60e21b85526004850161231f565b03915af480156106f057610867575080f35b6106ee91505f90612358565b346104435760203660031901126104435760043561089081610432565b600c546040516312789ae160e11b81526001600160a01b03909216600483015260ff161515602482015260208160448173__$abe99e6f90010eaab1ae0937da96c92fff$__5af480156106f0576108fb915f916108ff575b5060405191829182901515815260200190565b0390f35b610921915060203d602011610927575b6109198183612358565b81019061238b565b5f6108e8565b503d61090f565b346104435760203660031901126104435760043561094b81610432565b604051630667e45d60e31b81526001600160a01b03909116600482015260208160248173__$6fc6cfb0e70d6cdcacff54ae5a1f7f5d2d$__5af480156106f0576108fb915f916108ff575060405191829182901515815260200190565b34610443576106ee6109b9366104b4565b916109d660018060a01b03600c5460081c16331461063d816122b4565b6001600160a01b0381165f8181526020818152604080832063c04b8d5960e01b84529091529020600160ff198254161790555f52600160205260405f20600160ff19825416179055610a31610a2c600254612e41565b600255565b5f8051602061430783398151915260405180610a4f86868684612e63565b0390a1610a5d8383836123a0565b610a6883838361243c565b61307f565b3461044357602036600319011261044357600435610a8a81610432565b60018060a01b03165f526005602052602060ff60405f2054166040519015158152f35b34610443576106ee610abe366104b4565b91610adb60018060a01b03600c5460081c16331461063d816122b4565b6001600160a01b0381165f818152602081815260408083206338ed173960e01b84529091529020600160ff198254161790555f52600160205260405f20600160ff19825416179055610b31610a2c600254612e41565b5f8051602061430783398151915260405180610b4f86868684612e92565b0390a1610a688383836124d3565b3461044357610b6b366104b4565b915f92610b8660018060a01b03600c5460081c1633146122b4565b73__$abe99e6f90010eaab1ae0937da96c92fff$__803b1561044357610855935f936040519586948593849363f7570c2960e01b85526004850161231f565b34610443575f805160206142a7833981519152610be1366105c6565b9190809491610c0260018060a01b03600c5460081c16331461063d816122b4565b60018060a01b0381165f52600760205260405f20600160ff19825416179055610c31846040519384938461231f565b0390a173__$3ebced50d16a3712772def6ef3a529a5cb$__803b15610443576106ca935f9360405195869485938493631a65191160e21b85526004850161231f565b34610443577f3562181221a42a19ddd03a82dfe06acab1905ceb65cdaf7d86a1d9fec6643552610568610ca5366104b4565b610cc060018060a09694961b03600c5460081c1633146122b4565b6001600160a01b0383165f9081526006602052604090819020805460ff19166001179055519384938461231f565b602435906001600160e01b03198216820361044357565b606060031982011261044357600435610d1d81610432565b916024356001600160e01b0319811681036104435791604435906001600160401b038211610443576104ec91600401610487565b34610443575f80516020614307833981519152610568610d7036610d05565b90610d8c60018060a09795971b03600c5460081c1633146122b4565b60018060a01b038416805f525f602052610da98660405f206116f1565b600160ff198254161790555f52600160205260405f20600160ff19825416179055610dd8610a2c600254612e41565b60405194859485612fdb565b34610443577ffaa136302ac223cf7c1146490a741e4520e886fc22d7e759641453f432283d01610568610e16366104b4565b610e3160018060a09694961b03600c5460081c1633146122b4565b6001600160a01b038381165f818152600960205260409020805460ff19166001179055600c549091610e689160081c1633146122b4565b805f525f602052610e8a60405f2063559ec80d60e01b5f5260205260405f2090565b600160ff198254161790555f52600160205260405f20600160ff19825416179055610eb9610a2c600254612e41565b5f8051602061430783398151915260405180610ed784888884612ec1565b0390a1610ee581858561256a565b610ef0818585612601565b610efb818585612698565b6040519384938461231f565b3461044357608036600319011261044357600435610f2481610432565b60243590610f3182610432565b604435610f3d81610432565b6064356001600160401b03811161044357610f5c903690600401610487565b929093610f7b60018060a01b03600c5460081c16331461063d816122b4565b6001600160a01b0382165f81815260208181526040808320631592ca1b60e31b84529091529020600160ff198254161790555f52600160205260405f20600160ff19825416179055610fd1610a2c600254612e41565b5f8051602061430783398151915260405180610fef87898784612ef0565b0390a1610ffd84868361307f565b73__$abe99e6f90010eaab1ae0937da96c92fff$__91823b15610443576106ca5f956040519788968795869563f4d5bb9360e01b87526004870161300e565b34610443575f805160206142a783398151915261056861105b366104b4565b61107660018060a09694961b03600c5460081c1633146122b4565b6001600160a01b0383165f9081526008602052604090819020805460ff19166001179055519384938461231f565b34610443576106ee6110b5366105c6565b9291909161354d565b34610443576106ee6110cf366104b4565b916110ec60018060a01b03600c5460081c16331461063d816122b4565b6001600160a01b0381165f81815260208181526040808320630c04a8a160e41b84529091529020600160ff198254161790555f52600160205260405f20600160ff19825416179055611142610a2c600254612e41565b5f805160206143078339815191526040518061116086868684612f1f565b0390a1613055565b346104435760203660031901126104435760043561118581610432565b60018060a01b03165f526009602052602060ff60405f2054166040519015158152f35b3461044357604036600319011261044357602060ff6111ef6004356111cc81610432565b6111d4610cee565b6001600160a01b039091165f908152808552604090206116f1565b54166040519015158152f35b5f91031261044357565b34610443575f3660031901126104435761121d613cc7565b600c8054610100600160a81b031981169091555f9060081c6001600160a01b03165f805160206142c78339815191528280a3005b34610443577f62dd88c5ecfa60713a657640ebec4de26fc1aefa4afdb24e6d15a124fce72779610568611283366104b4565b61129e60018060a09694961b03600c5460081c1633146122b4565b6001600160a01b0383165f9081526005602052604090819020805460ff19166001179055519384938461231f565b34610443575f36600319011261044357600c5460405160089190911c6001600160a01b03168152602090f35b6004359063ffffffff8216820361044357565b359063ffffffff8216820361044357565b346104435760203660031901126104435763ffffffff61133a6112f8565b165f52600b602052602060ff60405f2054166040519015158152f35b346104435760203660031901126104435760043561137381610432565b60018060a01b03165f526001602052602060ff60405f2054166040519015158152f35b34610443576113a4366104b4565b916113bd60018060a01b03600c5460081c1633146122b4565b6040516338d52e0f60e01b8152926020846004816001600160a01b0386165afa9081156106f057610efb8185610568947fd2851df39115d63968e90113e8b3a96f13e33ac4c2e5a9caa1afeffe59e55748985f916114a0575b5061142283838961272f565b61142d8383896127c6565b61143883838961285d565b6114438383896128f4565b61144e83838961298b565b611459838389612a20565b611464838389612ab7565b61146f838389612b4e565b61147a838389612be5565b611485838389612c7c565b61149083838961307f565b61149b838389613cdf565b613cdf565b6114c2915060203d6020116114c8575b6114ba8183612358565b810190613040565b5f611416565b503d6114b0565b34610443575f805160206142e78339815191526105686114ee366104b4565b61150960018060a09694961b03600c5460081c1633146122b4565b6001600160a01b0383165f9081526003602052604090819020805460ff19166001179055519384938461231f565b34610443575f36600319011261044357602060ff600c54166040519015158152f35b34610443577f1212f8ddb39de8e1a339460c95752d61100723efeaa34ccd94bca94393f4093861056861158b366104b4565b6115a660018060a09694961b03600c5460081c1633146122b4565b6001600160a01b0383165f9081526006602052604090819020805460ff19169055519384938461231f565b34610443575f805160206142a78339815191526105686115f0366104b4565b61160b60018060a09694961b03600c5460081c1633146122b4565b6001600160a01b0383165f9081526007602052604090819020805460ff19166001179055519384938461231f565b346104435760203660031901126104435760043561165681610432565b60018060a01b03165f526003602052602060ff60405f2054166040519015158152f35b34610443577f3097928509c53a2dab9500431201d82b0d756e8f890fd01f4ae6b33b45687ea46105686116ab366104b4565b6116c660018060a09694961b03600c5460081c1633146122b4565b6001600160a01b0383165f9081526004602052604090819020805460ff19169055519384938461231f565b9063ffffffff60e01b165f5260205260405f2090565b346104435760203660031901126104435760043561172481610432565b6040516351097a3360e01b81526001600160a01b03909116600482015260208160248173__$abe99e6f90010eaab1ae0937da96c92fff$__5af480156106f0576108fb915f9161178a575b506040516001600160a01b0390911681529081906020820190565b6117a3915060203d6020116114c8576114ba8183612358565b5f61176f565b34610443575f366003190112610443576020600254604051908152f35b805180835260209291819084018484015e5f828201840152601f01601f1916010190565b602081016020825282518091526040820191602060408360051b8301019401925f915b83831061181c57505050505090565b909192939460208061183a600193603f1986820301875289516117c6565b9701930193019193929061180d565b6020366003190112610443576004356001600160401b0381116104435736602382011215610443576004810135906001600160401b038211610443576024810190602436918460051b010111610443576118a2826130c0565b915f5b8181106118ba57604051806108fb86826117ea565b5f806118c783858761311d565b906118d760405180938193613163565b0390305af46118e461318b565b901561190a57906001916118f8828761322d565b52611903818661322d565b50016118a5565b60448151106104435761192c81602480600461194495015183010191016131ba565b60405162461bcd60e51b81529182916004830161321c565b0390fd5b3461044357611956366105c6565b9161196f60018060a01b03600c5460081c1633146122b4565b73__$ed404fe8d8cd691b210f32f3e93e2f5fa7$__93843b156104435760405163565ced0b60e11b81526001600160a01b039182166004820152908216602482015260606044820152935f90859081806119cd6064820189896122ff565b03915af49384156106f0576106ee946119e7575b5061307f565b806106e85f6119f593612358565b5f6119e1565b9060406003198301126104435760043563ffffffff811681036104435791602435906001600160401b038211610443576104ec91600401610487565b34610443577f1032cb8f3d65d1f2761007cb8b0ca5365671ee20a8efa21ecae1a8dfbca5b7a5610568611a69366119fb565b611a8460018060a09694961b03600c5460081c1633146122b4565b63ffffffff83165f52600b60205260405f2060ff19815416905560405193849384613241565b3461044357602036600319011261044357600435611ac781610432565b60018060a01b03165f526004602052602060ff60405f2054166040519015158152f35b8015150361044357565b3461044357604036600319011261044357600435611b1181611aea565b6024356001600160401b038111610443577f50454d9d0025a28a39cac5a4b3f3101d29b6e413fbb64f75fb42eb6837b0771891611b55610568923690600401610487565b9290600c5492611b713360018060a01b038660081c16146122b4565b15159260ff84169060ff191617600c5560405193849384526040602085015260408401916122ff565b34610443576020366003190112610443576020611bc1600435611bbc81610432565b61325e565b6040519015158152f35b3461044357602036600319011261044357600435611be881610432565b60405163c226c4bb60e01b81526001600160a01b03909116600482015260208160248173__$abe99e6f90010eaab1ae0937da96c92fff$__5af480156106f0576108fb915f916108ff575060405191829182901515815260200190565b34610443577f37ea10f2d08f5a9803dfcd5abf3cfc7b0d6fcdf5fcbc36be9ea5a0b53d9a4d9b610568611c7736610d05565b90611c9360018060a09795971b03600c5460081c1633146122b4565b60018060a01b0384165f525f602052611caf8560405f206116f1565b805460ff1916905560405194859485612fdb565b3461044357611cd1366104b4565b600c545f939190611cef9060081c6001600160a01b031633146122b4565b73__$abe99e6f90010eaab1ae0937da96c92fff$__803b1561044357610855935f9360405195869485938493634a1c4b1960e11b85526004850161231f565b3461044357611d3c366104b4565b600c545f939190611d5a9060081c6001600160a01b031633146122b4565b73__$ed404fe8d8cd691b210f32f3e93e2f5fa7$__803b1561044357610855935f936040519586948593849363e2873b6d60e01b85526004850161231f565b34610443577f9fc3f914bc6770a3679a6a9fdb4620f0566db329f178fb033fc0c6dcce1b693d610568611dcb366119fb565b611de660018060a09694961b03600c5460081c1633146122b4565b63ffffffff83165f52600b60205260405f20600160ff1982541617905560405193849384613241565b34610443577f9efd66cbdaa05f6414ab9c4ae71d358b087e972c11874e7c3e9c7c79c61e23aa610568611e41366104b4565b611e6060018060a09694961b03600c5460081c16331461063d816122b4565b6001600160a01b0383165f81815260208181526040808320634701287760e11b84529091529020600160ff198254161790555f52600160205260405f20600160ff19825416179055611eb6610a2c600254612e41565b5f8051602061430783398151915260405180611ed484888884612f4e565b0390a1611ee281858561307f565b6001600160a01b0383165f908152600a60205260409020610efb90805460ff19166001179055565b34610443576106ee611f1b366104b4565b9161149b60018060a01b03600c5460081c1633146122b4565b34610443576106ee611f45366104b4565b91611f6260018060a01b03600c5460081c16331461063d816122b4565b6001600160a01b0381165f8181526020818152604080832063617ba03760e01b84529091529020600160ff198254161790555f52600160205260405f20600160ff19825416179055611fb8610a2c600254612e41565b5f8051602061430783398151915260405180611fd686868684612f7d565b0390a1610a68838383612d13565b34610443577ff9a414ea26a64e12a2abdb23706ec196a42adeb564668fb73f46555fbd2336c2610568612016366104b4565b61203160018060a09694961b03600c5460081c1633146122b4565b6001600160a01b0383165f9081526008602052604090819020805460ff19169055519384938461231f565b346104435760203660031901126104435760043561207981610432565b612081613cc7565b6001600160a01b038116156120d857600c8054610100600160a81b03198116600884811b610100600160a81b0316919091179092556001600160a01b0392831692911c165f805160206142c78339815191525f80a3005b60405162461bcd60e51b815260206004820152602660248201527f4f776e61626c653a206e6577206f776e657220697320746865207a65726f206160448201526564647265737360d01b6064820152608490fd5b346104435760203660031901126104435760043561214981610432565b604051637c23ab5560e11b81526001600160a01b03909116600482015260208160248173__$3ebced50d16a3712772def6ef3a529a5cb$__5af480156106f0576108fb915f916108ff575060405191829182901515815260200190565b34610443577f9ca3f065622f5f03f32b7157677a0e420c3a36ab45fd49f256ffebce3e3105876105686121d8366104b4565b6121f360018060a09694961b03600c5460081c1633146122b4565b6001600160a01b0383165f9081526003602052604090819020805460ff19169055519384938461231f565b34610443577fa8f9caaf4861720900294428e4ff34d37070c37afd26d96e6e4da75326d2c3ad610568612250366104b4565b61226b60018060a09694961b03600c5460081c1633146122b4565b6001600160a01b0383165f9081526004602052604090819020805460ff19166001179055519384938461231f565b34610443575f36600319011261044357602060405160018152f35b156122bb57565b606460405162461bcd60e51b815260206004820152602060248201527f4f776e61626c653a2063616c6c6572206973206e6f7420746865206f776e65726044820152fd5b908060209392818452848401375f828201840152601f01601f1916010190565b6001600160a01b039091168152604060208201819052612341939101916122ff565b90565b634e487b7160e01b5f52604160045260245ffd5b601f909101601f19168101906001600160401b0382119082101761237b57604052565b612344565b6040513d5f823e3d90fd5b90816020910312610443575161234181611aea565b6124375f80516020614307833981519152936123ca60018060a01b03600c5460081c1633146122b4565b6001600160a01b0383165f8181526020819052604090206123f390631e51809360e31b906116f1565b600160ff198254161790555f52600160205260405f20600160ff19825416179055612422610a2c600254612e41565b604051938493631e51809360e31b9085612fdb565b0390a1565b6124375f805160206143078339815191529361246660018060a01b03600c5460081c1633146122b4565b6001600160a01b0383165f81815260208190526040902061248f9063b858183f60e01b906116f1565b600160ff198254161790555f52600160205260405f20600160ff198254161790556124be610a2c600254612e41565b60405193849363b858183f60e01b9085612fdb565b6124375f80516020614307833981519152936124fd60018060a01b03600c5460081c1633146122b4565b6001600160a01b0383165f81815260208190526040902061252690635c11d79560e01b906116f1565b600160ff198254161790555f52600160205260405f20600160ff19825416179055612555610a2c600254612e41565b604051938493635c11d79560e01b9085612fdb565b6124375f805160206143078339815191529361259460018060a01b03600c5460081c1633146122b4565b6001600160a01b0383165f8181526020819052604090206125bd9063a03d55e360e01b906116f1565b600160ff198254161790555f52600160205260405f20600160ff198254161790556125ec610a2c600254612e41565b60405193849363a03d55e360e01b9085612fdb565b6124375f805160206143078339815191529361262b60018060a01b03600c5460081c1633146122b4565b6001600160a01b0383165f8181526020819052604090206126549063692652c560e11b906116f1565b600160ff198254161790555f52600160205260405f20600160ff19825416179055612683610a2c600254612e41565b60405193849363692652c560e11b9085612fdb565b6124375f80516020614307833981519152936126c260018060a01b03600c5460081c1633146122b4565b6001600160a01b0383165f8181526020819052604090206126eb90635313efb360e11b906116f1565b600160ff198254161790555f52600160205260405f20600160ff1982541617905561271a610a2c600254612e41565b604051938493635313efb360e11b9085612fdb565b6124375f805160206143078339815191529361275960018060a01b03600c5460081c1633146122b4565b6001600160a01b0383165f81815260208190526040902061278290636e553f6560e01b906116f1565b600160ff198254161790555f52600160205260405f20600160ff198254161790556127b1610a2c600254612e41565b604051938493636e553f6560e01b9085612fdb565b6124375f80516020614307833981519152936127f060018060a01b03600c5460081c1633146122b4565b6001600160a01b0383165f81815260208190526040902061281990632d182be560e21b906116f1565b600160ff198254161790555f52600160205260405f20600160ff19825416179055612848610a2c600254612e41565b604051938493632d182be560e21b9085612fdb565b6124375f805160206143078339815191529361288760018060a01b03600c5460081c1633146122b4565b6001600160a01b0383165f8181526020819052604090206128b090635d043b2960e11b906116f1565b600160ff198254161790555f52600160205260405f20600160ff198254161790556128df610a2c600254612e41565b604051938493635d043b2960e11b9085612fdb565b6124375f805160206143078339815191529361291e60018060a01b03600c5460081c1633146122b4565b6001600160a01b0383165f81815260208190526040902061294790638dbdbe6d60e01b906116f1565b600160ff198254161790555f52600160205260405f20600160ff19825416179055612976610a2c600254612e41565b604051938493638dbdbe6d60e01b9085612fdb565b6124375f80516020614307833981519152936129b560018060a01b03600c5460081c1633146122b4565b6001600160a01b0383165f8181526020819052604090206129dd9062b4d4cb60e11b906116f1565b600160ff198254161790555f52600160205260405f20600160ff19825416179055612a0c610a2c600254612e41565b60405193849362b4d4cb60e11b9085612fdb565b6124375f8051602061430783398151915293612a4a60018060a01b03600c5460081c1633146122b4565b6001600160a01b0383165f818152602081905260409020612a7390630b8b4a6160e21b906116f1565b600160ff198254161790555f52600160205260405f20600160ff19825416179055612aa2610a2c600254612e41565b604051938493630b8b4a6160e21b9085612fdb565b6124375f8051602061430783398151915293612ae160018060a01b03600c5460081c1633146122b4565b6001600160a01b0383165f818152602081905260409020612b0a90633ea0e43760e11b906116f1565b600160ff198254161790555f52600160205260405f20600160ff19825416179055612b39610a2c600254612e41565b604051938493633ea0e43760e11b9085612fdb565b6124375f8051602061430783398151915293612b7860018060a01b03600c5460081c1633146122b4565b6001600160a01b0383165f818152602081905260409020612ba1906319792d1d60e11b906116f1565b600160ff198254161790555f52600160205260405f20600160ff19825416179055612bd0610a2c600254612e41565b6040519384936319792d1d60e11b9085612fdb565b6124375f8051602061430783398151915293612c0f60018060a01b03600c5460081c1633146122b4565b6001600160a01b0383165f818152602081905260409020612c38906385b77f4560e01b906116f1565b600160ff198254161790555f52600160205260405f20600160ff19825416179055612c67610a2c600254612e41565b6040519384936385b77f4560e01b9085612fdb565b6124375f8051602061430783398151915293612ca660018060a01b03600c5460081c1633146122b4565b6001600160a01b0383165f818152602081905260409020612ccf9063a8abe90560e01b906116f1565b600160ff198254161790555f52600160205260405f20600160ff19825416179055612cfe610a2c600254612e41565b60405193849363a8abe90560e01b9085612fdb565b6124375f8051602061430783398151915293612d3d60018060a01b03600c5460081c1633146122b4565b6001600160a01b0383165f818152602081905260409020612d6690631a4ca37b60e21b906116f1565b600160ff198254161790555f52600160205260405f20600160ff19825416179055612d95610a2c600254612e41565b604051938493631a4ca37b60e21b9085612fdb565b6124375f8051602061430783398151915293612dd460018060a01b03600c5460081c1633146122b4565b6001600160a01b0383165f818152602081905260409020612dfd9063095ea7b360e01b906116f1565b600160ff198254161790555f52600160205260405f20600160ff19825416179055612e2c610a2c600254612e41565b60405193849363095ea7b360e01b9085612fdb565b5f198114612e4f5760010190565b634e487b7160e01b5f52601160045260245ffd5b6001600160a01b03909116815263c04b8d5960e01b6020820152606060408201819052612341939101916122ff565b6001600160a01b0390911681526338ed173960e01b6020820152606060408201819052612341939101916122ff565b6001600160a01b03909116815263559ec80d60e01b6020820152606060408201819052612341939101916122ff565b6001600160a01b039091168152631592ca1b60e31b6020820152606060408201819052612341939101916122ff565b6001600160a01b039091168152630c04a8a160e41b6020820152606060408201819052612341939101916122ff565b6001600160a01b039091168152634701287760e11b6020820152606060408201819052612341939101916122ff565b6001600160a01b03909116815263617ba03760e01b6020820152606060408201819052612341939101916122ff565b6001600160a01b03909116815263a9059cbb60e01b6020820152606060408201819052612341939101916122ff565b6001600160a01b0390911681526001600160e01b03199091166020820152606060408201819052612341939101916122ff565b6001600160a01b03918216815291811660208301529091166040820152608060608201819052612341939101916122ff565b90816020910312610443575161234181610432565b6124375f805160206142e78339815191529361150960018060a01b03600c5460081c1633146122b4565b6124375f805160206142a78339815191529361160b60018060a01b03600c5460081c1633146122b4565b6001600160401b03811161237b5760051b60200190565b906130ca826130a9565b6130d76040519182612358565b82815280926130e8601f19916130a9565b01905f5b8281106130f857505050565b8060606020809385010152016130ec565b634e487b7160e01b5f52603260045260245ffd5b919081101561315e5760051b81013590601e19813603018212156104435701803591906001600160401b038311610443576020018236038113610443579190565b613109565b908092918237015f815290565b6001600160401b03811161237b57601f01601f191660200190565b3d156131b5573d9061319c82613170565b916131aa6040519384612358565b82523d5f602084013e565b606090565b602081830312610443578051906001600160401b038211610443570181601f82011215610443578051906131ed82613170565b926131fb6040519485612358565b8284526020838301011161044357815f9260208093018386015e8301015290565b9060206123419281815201906117c6565b805182101561315e5760209160051b010190565b60409063ffffffff612341959316815281602082015201916122ff565b60ff600c541690811561326f575090565b6001600160a01b03165f9081526003602052604090205460ff16919050565b1561329557565b60405162461bcd60e51b815260206004820152601260248201527114d95b99195c881b9bdd08185b1b1bddd95960721b6044820152606490fd5b906004116104435790600490565b909291928360041161044357831161044357600401916003190190565b356001600160e01b0319811692919060048210613315575050565b6001600160e01b031960049290920360031b82901b16169150565b1561333757565b60405162461bcd60e51b815260206004820152601260248201527115185c99d95d081b9bdd08185b1b1bddd95960721b6044820152606490fd5b1561337857565b60405162461bcd60e51b815260206004820152601460248201527314d95b1958dd1bdc881b9bdd08185b1b1bddd95960621b6044820152606490fd5b156133bb57565b60405162461bcd60e51b815260206004820152601c60248201527b121e5c195c98dbdc9955985d5b1d131a58881b9bdd081b1a5b9ad95960221b6044820152606490fd5b6001600160e01b031990911681526001600160a01b039091166020820152606060408201819052612341939101916122ff565b1561343957565b60405162461bcd60e51b815260206004820152601160248201527011db5e131a58881b9bdd081b1a5b9ad959607a1b6044820152606490fd5b92916040926134999296959660018060a01b031685526060602086015260608501916122ff565b931515910152565b9291926134ad82613170565b916134bb6040519384612358565b829481845281830111610443578281602093845f960137010152565b156134de57565b60405162461bcd60e51b815260206004820152601e60248201527f53776170526f75746572303220726571756972657320616e79417373657400006044820152606490fd5b91602091613499919594956040855260408501916122ff565b9160206123419381815201916122ff565b90919261357361356760018060a01b03600c5460081c1690565b6001600160a01b031690565b6001600160a01b03831614613cc1576135b16135ac6135a56135cb9460018060a01b03165f52600460205260405f2090565b5460ff1690565b61328e565b806135c56135bf82876132cf565b906132fa565b946132dd565b9190926135da600c5460ff1690565b80613ca7575b6001600160e01b031982166317938e1360e01b8114801592819084613c96575b8115613c85575b159081613c7c575b50613c15575b6338ed173960e01b82148015613c05575b156136975750505050509073__$6d73eb2bedba9c44263ccaf5969a8714f4$__91823b1561044357604051625e769d60e91b8152925f92849283918291613670916004840161353c565b03915af480156106f057613683575b505b565b806106e85f61369193612358565b5f61367f565b63c04b8d5960e01b82036136eb5750505050509073__$6d73eb2bedba9c44263ccaf5969a8714f4$__91823b1561044357604051632c69e61160e11b8152925f92849283918291613670916004840161353c565b631e51809360e31b820361373f5750505050509073__$6d73eb2bedba9c44263ccaf5969a8714f4$__91823b156104435760405163fdf3722360e01b8152925f92849283918291613670916004840161353c565b63b858183f60e01b82036137a75750505050509061375f600c5460ff1690565b613768816134d7565b73__$6d73eb2bedba9c44263ccaf5969a8714f4$__803b1561044357613670935f93604051958694859384936331dc39a360e01b855260048501613523565b63a9059cbb60e01b82036137ce575050505050613681916137c99136916134a1565b61426f565b63095ea7b360e01b82036137f5575050505050613681916137f09136916134a1565b6141f7565b630c04a8a160e41b820361381c575050505050613681916138179136916134a1565b61417d565b63617ba03760e01b82036138435750505050506136819161383e9136916134a1565b61413a565b631a4ca37b60e21b820361386a575050505050613681916138659136916134a1565b614105565b93949363559ec80d60e01b82148015613bf5575b8015613be5575b8015613bd5575b156138a0575050505050613681915061406b565b939493636e553f6560e01b82036138ca575050505050613681916138c59136916134a1565b613fcb565b630b8b4a6160e21b82036138f1575050505050613681916138ec9136916134a1565b614008565b638dbdbe6d60e01b8203613918575050505050613681916139139136916134a1565b614051565b62b4d4cb60e11b820361393e575050505050613681916139399136916134a1565b614030565b632d182be560e21b8203613960575050505050613681916138ec9136916134a1565b635d043b2960e11b8203613982575050505050613681916138ec9136916134a1565b633ea0e43760e11b82036139a4575050505050613681916138ec9136916134a1565b6319792d1d60e11b82036139c6575050505050613681916138ec9136916134a1565b6385b77f4560e01b82036139e8575050505050613681916138ec9136916134a1565b63a8abe90560e01b8203613a0a575050505050613681916138c59136916134a1565b939493631592ca1b60e31b8203613ab0575050505073__$abe99e6f90010eaab1ae0937da96c92fff$__604051636290236f60e11b8152602081600481855af480156106f057613a61915f91613a91575b50613432565b600c5460ff1693813b15610443575f9361367060405196879586948594633bf8b9bb60e11b865260048601613472565b613aaa915060203d602011610927576109198183612358565b5f613a5b565b9295939492634701287760e11b8203613ad0575050506136819350613eac565b95949591613bc4575b8115613bb3575b5015613b7257604051636290236f60e11b815273__$ed404fe8d8cd691b210f32f3e93e2f5fa7$__9190602081600481865af480156106f057613b2a915f91613b53575b506133b4565b813b15610443575f936136706040519687958694859463be0762ed60e01b8652600486016133ff565b613b6c915060203d602011610927576109198183612358565b5f613b24565b60405162461bcd60e51b81526020600482015260196024820152782ab735b737bbb710333ab731ba34b7b71039b2b632b1ba37b960391b6044820152606490fd5b63611e2a2d60e11b1490505f613ae0565b630acb7f4b60e21b81149150613ad9565b50635313efb360e11b821461388c565b5063692652c560e11b8214613885565b5063a03d55e360e01b821461387e565b50635c11d79560e01b8214613626565b613c31613c2d6135a586613c288961056d565b6116f1565b1590565b15613615576001600160a01b0385165f908152600160205260409020613c5f90613c5a906135a5565b613330565b613c77613c726135a586613c288961056d565b613371565b613615565b9050155f61360f565b63611e2a2d60e11b84149150613607565b630acb7f4b60e21b84149150613600565b5063095ea7b360e01b6001600160e01b03198216146135e0565b50505050565b61368160018060a01b03600c5460081c1633146122b4565b906136819291613cfd60018060a01b03600c5460081c1633146122b4565b6001600160a01b0381165f8181526020818152604080832063a9059cbb60e01b84529091529020600160ff198254161790555f52600160205260405f20600160ff19825416179055613d53610a2c600254612e41565b5f8051602061430783398151915260405180613d7186868684612fac565b0390a1613d7f838383612daa565b613055565b908160e091031261044357803591613d9e6020830161130b565b916040810135916060820135613db381610432565b9160808101359161234160c060a0840135930161130b565b15613dd257565b60405162461bcd60e51b815260206004820152601c60248201527b10d0d5140819195cdd1a5b985d1a5bdb881b9bdd08185b1b1bddd95960221b6044820152606490fd5b15613e1d57565b60405162461bcd60e51b815260206004820152601b60248201527a10d0d51408189d5c9b881d1bdad95b881b9bdd08185b1b1bddd959602a1b6044820152606490fd5b15613e6757565b60405162461bcd60e51b815260206004820152601f60248201527f43435450206d696e7420726563697069656e74206e6f7420616c6c6f776564006044820152606490fd5b6001600160a01b03165f908152600a602052604090205460ff1615613f42576135a56135a5613f24613f1f613f0c613f11613ef08761368199613f3d990190613d84565b505050949250969063ffffffff165f52600b60205260405f2090565b613dcb565b6001600160a01b031661325e565b613e16565b6001600160a01b03165f90815260056020526040902090565b613e60565b60405162461bcd60e51b815260206004820152601a60248201527910d0d514081b595cdcd95b99d95c881b9bdd08185b1b1bddd95960321b6044820152606490fd5b15613f8b57565b60405162461bcd60e51b8152602060048201526018602482015277149958d95a5d995c881b9bdd081dda1a5d195b1a5cdd195960421b6044820152606490fd5b6040818051810103126104435760400151613fe581610432565b6001600160a01b03165f908152600560205260409020546136819060ff16613f84565b60608180518101031261044357613fe5606060408301519261402984610432565b0151610432565b60808180518101031261044357613fe5608060608301519261402984610432565b6060818051810103126104435760600151613fe581610432565b6001600160a01b03165f9081526009602052604090205460ff161561408c57565b60405162461bcd60e51b815260206004820152601160248201527015985d5b1d081b9bdd08185b1b1bddd959607a1b6044820152606490fd5b156140cc57565b60405162461bcd60e51b8152602060048201526011602482015270151bdad95b881b9bdd08185b1b1bddd959607a1b6044820152606490fd5b60608180518101031261044357613fe5614135606060208401519361412985610432565b015192613f1184610432565b6140c5565b60808180518101031261044357613fe5614135606060208401519361412985610432565b9190826040910312610443576020825161417781610432565b92015190565b614190906020808251830101910161415e565b506001600160a01b03165f9081526008602052604090205460ff16156141b257565b60405162461bcd60e51b815260206004820152601e60248201527f44656c65676174696f6e2061646472657373206e6f7420616c6c6f77656400006044820152606490fd5b61420a906020808251830101910161415e565b506001600160a01b03165f9081526007602052604090205460ff161561422c57565b60405162461bcd60e51b815260206004820152601b60248201527a105c1c1c9bdd99481859191c995cdcc81b9bdd08185b1b1bddd959602a1b6044820152606490fd5b614282906020808251830101910161415e565b506001600160a01b03165f908152600660205260409020546136819060ff16613f8456fe628a44970c0e450415e3ae74334ea44f3307b74dbf677a1371190242bf2f35898be0079c531659141344cd1fd0a4f28419497f9722a3daafe3b4186f6b6457e0ad90e2570fc4fe9f7437be3188d5c791c6662892d31731992aa88f5c87621983ef729aaa41b9fd994f9ff7c1960df214a84f722002e6cfbea31799cd0873a3efa164736f6c634300081a000a","linkReferences":{"src/lib/CowSwapLib.sol":{"CowSwapLib":[{"start":1788,"length":20},{"start":2527,"length":20}]},"src/lib/GmxLib.sol":{"GmxLib":[{"start":2353,"length":20},{"start":3063,"length":20},{"start":4206,"length":20},{"start":6072,"length":20},{"start":7292,"length":20},{"start":7520,"length":20},{"start":14992,"length":20}]},"src/lib/HypercoreVaultLib.sol":{"HypercoreVaultLib":[{"start":2183,"length":20},{"start":6624,"length":20},{"start":7627,"length":20},{"start":15204,"length":20}]},"src/lib/UniswapLib.sol":{"UniswapLib":[{"start":13986,"length":20},{"start":14108,"length":20},{"start":14192,"length":20},{"start":14297,"length":20}]},"src/lib/VeloraLib.sol":{"VeloraLib":[{"start":3237,"length":20},{"start":8669,"length":20}]}}},"methodIdentifiers":{"allowApprovalDestination(address,string)":"98b3cc39","allowAsset(address,string)":"86b6dbe5","allowCallSite(address,bytes4,string)":"5e4ccace","allowDelegationApprovalDestination(address,string)":"63cc17f2","allowReceiver(address,string)":"72e548a9","allowSender(address,string)":"fa2c59c8","allowWithdrawDestination(address,string)":"5ace1d92","allowedApprovalDestinations(address)":"eb0de042","allowedAssets(address)":"a4c1cccb","allowedCCTPDestinations(uint32)":"7cac69c3","allowedCCTPMessengers(address)":"07605342","allowedCallSites(address,bytes4)":"a847cf4d","allowedDelegationApprovalDestinations(address)":"4b941268","allowedLagoonVaults(address)":"8fb4dff2","allowedReceivers(address)":"3cf20025","allowedSenders(address)":"fadbcf48","allowedTargets(address)":"b8fe8d5f","allowedWithdrawDestinations(address)":"07ef00cf","anyAsset()":"87301608","callSiteCount()":"a9fc3d4f","getGovernanceAddress()":"73252494","getInternalVersion()":"fdedfa27","gmxOrderVaults(address)":"a86ddc57","isAllowedApprovalDestination(address)":"1d49039c","isAllowedAsset(address)":"c537bed0","isAllowedCCTPDestination(uint32)":"748fca46","isAllowedCCTPMessenger(address)":"0411fb8e","isAllowedCallSite(address,bytes4)":"713ebf3b","isAllowedCowSwap(address)":"333f22e8","isAllowedDelegationApprovalDestination(address)":"2dc32a61","isAllowedGMXMarket(address)":"2e31e9c6","isAllowedGMXRouter(address)":"cbdb1dcf","isAllowedLagoonVault(address)":"6fd7fdef","isAllowedReceiver(address)":"d075f9bb","isAllowedSender(address)":"be8c97b0","isAllowedTarget(address)":"78addb48","isAllowedVeloraSwapper(address)":"f84756aa","isAllowedWithdrawDestination(address)":"efb47bff","multicall(bytes[])":"ac9650d8","owner()":"8da5cb5b","removeApprovalDestination(address,string)":"04a3ba25","removeAsset(address,string)":"f901dc33","removeCCTPDestination(uint32,string)":"ba44ad41","removeCallSite(address,bytes4,string)":"d7334c9d","removeDelegationApprovalDestination(address,string)":"f259a073","removeGMXMarket(address,string)":"4d3d31ca","removeHypercoreVault(address,string)":"e2873b6d","removeReceiver(address,string)":"2d12d788","removeSender(address,string)":"a67e1f54","removeWithdrawDestination(address,string)":"8c2fdf9e","renounceOwnership()":"715018a6","setAnyAssetAllowed(bool,string)":"c2e657ae","transferOwnership(address)":"f2fde38b","validateCall(address,address,bytes)":"6d5025f1","whitelistAaveV3(address,string)":"f20e85e0","whitelistCCTP(address,string)":"ec011440","whitelistCCTPDestination(uint32,string)":"e6f32c51","whitelistCoreWriter(address,address,string)":"acb9da16","whitelistCowSwap(address,address,string)":"1047789e","whitelistERC4626(address,string)":"86a6ae15","whitelistGMX(address,address,address,string)":"62d6775e","whitelistGMXMarket(address,string)":"d7581509","whitelistHypercoreVault(address,string)":"2de905bc","whitelistLagoon(address,string)":"5e6afe4d","whitelistToken(address,string)":"ee5462cc","whitelistTokenForDelegation(address,string)":"6d9a1423","whitelistUniswapV2Router(address,string)":"3ea35551","whitelistUniswapV3Router(address,string)":"34ec8d7e","whitelistVelora(address,address,string)":"4efbad39"},"id":2}