{"abi":[{"type":"constructor","inputs":[],"stateMutability":"nonpayable"},{"type":"function","name":"allowApprovalDestination","inputs":[{"name":"destination","type":"address","internalType":"address"},{"name":"notes","type":"string","internalType":"string"}],"outputs":[],"stateMutability":"nonpayable"},{"type":"function","name":"allowAsset","inputs":[{"name":"asset","type":"address","internalType":"address"},{"name":"notes","type":"string","internalType":"string"}],"outputs":[],"stateMutability":"nonpayable"},{"type":"function","name":"allowCallSite","inputs":[{"name":"target","type":"address","internalType":"address"},{"name":"selector","type":"bytes4","internalType":"bytes4"},{"name":"notes","type":"string","internalType":"string"}],"outputs":[],"stateMutability":"nonpayable"},{"type":"function","name":"allowDelegationApprovalDestination","inputs":[{"name":"destination","type":"address","internalType":"address"},{"name":"notes","type":"string","internalType":"string"}],"outputs":[],"stateMutability":"nonpayable"},{"type":"function","name":"allowReceiver","inputs":[{"name":"receiver","type":"address","internalType":"address"},{"name":"notes","type":"string","internalType":"string"}],"outputs":[],"stateMutability":"nonpayable"},{"type":"function","name":"allowSender","inputs":[{"name":"sender","type":"address","internalType":"address"},{"name":"notes","type":"string","internalType":"string"}],"outputs":[],"stateMutability":"nonpayable"},{"type":"function","name":"allowWithdrawDestination","inputs":[{"name":"destination","type":"address","internalType":"address"},{"name":"notes","type":"string","internalType":"string"}],"outputs":[],"stateMutability":"nonpayable"},{"type":"function","name":"allowedApprovalDestinations","inputs":[{"name":"destination","type":"address","internalType":"address"}],"outputs":[{"name":"allowed","type":"bool","internalType":"bool"}],"stateMutability":"view"},{"type":"function","name":"allowedAssets","inputs":[{"name":"token","type":"address","internalType":"address"}],"outputs":[{"name":"allowed","type":"bool","internalType":"bool"}],"stateMutability":"view"},{"type":"function","name":"allowedCallSites","inputs":[{"name":"target","type":"address","internalType":"address"},{"name":"selector","type":"bytes4","internalType":"bytes4"}],"outputs":[{"name":"allowed","type":"bool","internalType":"bool"}],"stateMutability":"view"},{"type":"function","name":"allowedDelegationApprovalDestinations","inputs":[{"name":"destination","type":"address","internalType":"address"}],"outputs":[{"name":"allowed","type":"bool","internalType":"bool"}],"stateMutability":"view"},{"type":"function","name":"allowedLagoonVaults","inputs":[{"name":"destination","type":"address","internalType":"address"}],"outputs":[{"name":"allowed","type":"bool","internalType":"bool"}],"stateMutability":"view"},{"type":"function","name":"allowedReceivers","inputs":[{"name":"receiver","type":"address","internalType":"address"}],"outputs":[{"name":"allowed","type":"bool","internalType":"bool"}],"stateMutability":"view"},{"type":"function","name":"allowedSenders","inputs":[{"name":"sender","type":"address","internalType":"address"}],"outputs":[{"name":"allowed","type":"bool","internalType":"bool"}],"stateMutability":"view"},{"type":"function","name":"allowedTargets","inputs":[{"name":"target","type":"address","internalType":"address"}],"outputs":[{"name":"allowed","type":"bool","internalType":"bool"}],"stateMutability":"view"},{"type":"function","name":"allowedWithdrawDestinations","inputs":[{"name":"destination","type":"address","internalType":"address"}],"outputs":[{"name":"allowed","type":"bool","internalType":"bool"}],"stateMutability":"view"},{"type":"function","name":"anyAsset","inputs":[],"outputs":[{"name":"","type":"bool","internalType":"bool"}],"stateMutability":"view"},{"type":"function","name":"callSiteCount","inputs":[],"outputs":[{"name":"","type":"uint256","internalType":"uint256"}],"stateMutability":"view"},{"type":"function","name":"getGovernanceAddress","inputs":[],"outputs":[{"name":"","type":"address","internalType":"address"}],"stateMutability":"view"},{"type":"function","name":"getInternalVersion","inputs":[],"outputs":[{"name":"","type":"uint8","internalType":"uint8"}],"stateMutability":"pure"},{"type":"function","name":"isAllowedApprovalDestination","inputs":[{"name":"receiver","type":"address","internalType":"address"}],"outputs":[{"name":"","type":"bool","internalType":"bool"}],"stateMutability":"view"},{"type":"function","name":"isAllowedAsset","inputs":[{"name":"token","type":"address","internalType":"address"}],"outputs":[{"name":"","type":"bool","internalType":"bool"}],"stateMutability":"view"},{"type":"function","name":"isAllowedCallSite","inputs":[{"name":"target","type":"address","internalType":"address"},{"name":"selector","type":"bytes4","internalType":"bytes4"}],"outputs":[{"name":"","type":"bool","internalType":"bool"}],"stateMutability":"view"},{"type":"function","name":"isAllowedDelegationApprovalDestination","inputs":[{"name":"receiver","type":"address","internalType":"address"}],"outputs":[{"name":"","type":"bool","internalType":"bool"}],"stateMutability":"view"},{"type":"function","name":"isAllowedLagoonVault","inputs":[{"name":"vault","type":"address","internalType":"address"}],"outputs":[{"name":"","type":"bool","internalType":"bool"}],"stateMutability":"view"},{"type":"function","name":"isAllowedReceiver","inputs":[{"name":"receiver","type":"address","internalType":"address"}],"outputs":[{"name":"","type":"bool","internalType":"bool"}],"stateMutability":"view"},{"type":"function","name":"isAllowedSender","inputs":[{"name":"sender","type":"address","internalType":"address"}],"outputs":[{"name":"","type":"bool","internalType":"bool"}],"stateMutability":"view"},{"type":"function","name":"isAllowedTarget","inputs":[{"name":"target","type":"address","internalType":"address"}],"outputs":[{"name":"","type":"bool","internalType":"bool"}],"stateMutability":"view"},{"type":"function","name":"isAllowedWithdrawDestination","inputs":[{"name":"receiver","type":"address","internalType":"address"}],"outputs":[{"name":"","type":"bool","internalType":"bool"}],"stateMutability":"view"},{"type":"function","name":"owner","inputs":[],"outputs":[{"name":"","type":"address","internalType":"address"}],"stateMutability":"view"},{"type":"function","name":"removeApprovalDestination","inputs":[{"name":"destination","type":"address","internalType":"address"},{"name":"notes","type":"string","internalType":"string"}],"outputs":[],"stateMutability":"nonpayable"},{"type":"function","name":"removeAsset","inputs":[{"name":"asset","type":"address","internalType":"address"},{"name":"notes","type":"string","internalType":"string"}],"outputs":[],"stateMutability":"nonpayable"},{"type":"function","name":"removeCallSite","inputs":[{"name":"target","type":"address","internalType":"address"},{"name":"selector","type":"bytes4","internalType":"bytes4"},{"name":"notes","type":"string","internalType":"string"}],"outputs":[],"stateMutability":"nonpayable"},{"type":"function","name":"removeDelegationApprovalDestination","inputs":[{"name":"destination","type":"address","internalType":"address"},{"name":"notes","type":"string","internalType":"string"}],"outputs":[],"stateMutability":"nonpayable"},{"type":"function","name":"removeReceiver","inputs":[{"name":"receiver","type":"address","internalType":"address"},{"name":"notes","type":"string","internalType":"string"}],"outputs":[],"stateMutability":"nonpayable"},{"type":"function","name":"removeSender","inputs":[{"name":"sender","type":"address","internalType":"address"},{"name":"notes","type":"string","internalType":"string"}],"outputs":[],"stateMutability":"nonpayable"},{"type":"function","name":"removeWithdrawDestination","inputs":[{"name":"destination","type":"address","internalType":"address"},{"name":"notes","type":"string","internalType":"string"}],"outputs":[],"stateMutability":"nonpayable"},{"type":"function","name":"renounceOwnership","inputs":[],"outputs":[],"stateMutability":"nonpayable"},{"type":"function","name":"setAnyAssetAllowed","inputs":[{"name":"value","type":"bool","internalType":"bool"},{"name":"notes","type":"string","internalType":"string"}],"outputs":[],"stateMutability":"nonpayable"},{"type":"function","name":"transferOwnership","inputs":[{"name":"newOwner","type":"address","internalType":"address"}],"outputs":[],"stateMutability":"nonpayable"},{"type":"function","name":"validate1deltaPath","inputs":[{"name":"path","type":"bytes","internalType":"bytes"}],"outputs":[],"stateMutability":"view"},{"type":"function","name":"validateCall","inputs":[{"name":"sender","type":"address","internalType":"address"},{"name":"target","type":"address","internalType":"address"},{"name":"callDataWithSelector","type":"bytes","internalType":"bytes"}],"outputs":[],"stateMutability":"view"},{"type":"function","name":"validateUniswapV3Path","inputs":[{"name":"path","type":"bytes","internalType":"bytes"}],"outputs":[],"stateMutability":"view"},{"type":"function","name":"validate_1deltaDeposit","inputs":[{"name":"callData","type":"bytes","internalType":"bytes"}],"outputs":[],"stateMutability":"view"},{"type":"function","name":"validate_1deltaMulticall","inputs":[{"name":"callData","type":"bytes","internalType":"bytes"}],"outputs":[],"stateMutability":"view"},{"type":"function","name":"validate_1deltaWithdraw","inputs":[{"name":"callData","type":"bytes","internalType":"bytes"}],"outputs":[],"stateMutability":"view"},{"type":"function","name":"validate_ERC4626Deposit","inputs":[{"name":"target","type":"address","internalType":"address"},{"name":"callData","type":"bytes","internalType":"bytes"}],"outputs":[],"stateMutability":"view"},{"type":"function","name":"validate_ERC4626Redeem","inputs":[{"name":"callData","type":"bytes","internalType":"bytes"}],"outputs":[],"stateMutability":"view"},{"type":"function","name":"validate_ERC4626Withdraw","inputs":[{"name":"callData","type":"bytes","internalType":"bytes"}],"outputs":[],"stateMutability":"view"},{"type":"function","name":"validate_aaveSupply","inputs":[{"name":"callData","type":"bytes","internalType":"bytes"}],"outputs":[],"stateMutability":"view"},{"type":"function","name":"validate_aaveWithdraw","inputs":[{"name":"callData","type":"bytes","internalType":"bytes"}],"outputs":[],"stateMutability":"view"},{"type":"function","name":"validate_approve","inputs":[{"name":"callData","type":"bytes","internalType":"bytes"}],"outputs":[],"stateMutability":"view"},{"type":"function","name":"validate_approveDelegation","inputs":[{"name":"callData","type":"bytes","internalType":"bytes"}],"outputs":[],"stateMutability":"view"},{"type":"function","name":"validate_exactInput","inputs":[{"name":"callData","type":"bytes","internalType":"bytes"}],"outputs":[],"stateMutability":"view"},{"type":"function","name":"validate_exactOutput","inputs":[{"name":"callData","type":"bytes","internalType":"bytes"}],"outputs":[],"stateMutability":"view"},{"type":"function","name":"validate_flashSwapAllOut","inputs":[{"name":"callData","type":"bytes","internalType":"bytes"}],"outputs":[],"stateMutability":"view"},{"type":"function","name":"validate_flashSwapExactInt","inputs":[{"name":"callData","type":"bytes","internalType":"bytes"}],"outputs":[],"stateMutability":"view"},{"type":"function","name":"validate_flashSwapExactOut","inputs":[{"name":"callData","type":"bytes","internalType":"bytes"}],"outputs":[],"stateMutability":"view"},{"type":"function","name":"validate_lagoonSettle","inputs":[{"name":"vault","type":"address","internalType":"address"}],"outputs":[],"stateMutability":"view"},{"type":"function","name":"validate_orderlyDelegateSigner","inputs":[{"name":"callData","type":"bytes","internalType":"bytes"}],"outputs":[],"stateMutability":"view"},{"type":"function","name":"validate_orderlyDeposit","inputs":[{"name":"callData","type":"bytes","internalType":"bytes"}],"outputs":[],"stateMutability":"view"},{"type":"function","name":"validate_orderlyWithdraw","inputs":[{"name":"callData","type":"bytes","internalType":"bytes"}],"outputs":[],"stateMutability":"view"},{"type":"function","name":"validate_swapExactTokensForTokens","inputs":[{"name":"callData","type":"bytes","internalType":"bytes"}],"outputs":[],"stateMutability":"view"},{"type":"function","name":"validate_transfer","inputs":[{"name":"callData","type":"bytes","internalType":"bytes"}],"outputs":[],"stateMutability":"view"},{"type":"function","name":"validate_transferERC20AllIn","inputs":[{"name":"callData","type":"bytes","internalType":"bytes"}],"outputs":[],"stateMutability":"view"},{"type":"function","name":"validate_transferERC20In","inputs":[{"name":"callData","type":"bytes","internalType":"bytes"}],"outputs":[],"stateMutability":"view"},{"type":"function","name":"whitelistAaveV3","inputs":[{"name":"lendingPool","type":"address","internalType":"address"},{"name":"notes","type":"string","internalType":"string"}],"outputs":[],"stateMutability":"nonpayable"},{"type":"function","name":"whitelistERC4626","inputs":[{"name":"vault","type":"address","internalType":"address"},{"name":"notes","type":"string","internalType":"string"}],"outputs":[],"stateMutability":"nonpayable"},{"type":"function","name":"whitelistLagoon","inputs":[{"name":"vault","type":"address","internalType":"address"},{"name":"notes","type":"string","internalType":"string"}],"outputs":[],"stateMutability":"nonpayable"},{"type":"function","name":"whitelistOnedelta","inputs":[{"name":"brokerProxy","type":"address","internalType":"address"},{"name":"lendingPool","type":"address","internalType":"address"},{"name":"notes","type":"string","internalType":"string"}],"outputs":[],"stateMutability":"nonpayable"},{"type":"function","name":"whitelistOrderly","inputs":[{"name":"orderlyVault","type":"address","internalType":"address"},{"name":"notes","type":"string","internalType":"string"}],"outputs":[],"stateMutability":"nonpayable"},{"type":"function","name":"whitelistToken","inputs":[{"name":"token","type":"address","internalType":"address"},{"name":"notes","type":"string","internalType":"string"}],"outputs":[],"stateMutability":"nonpayable"},{"type":"function","name":"whitelistTokenForDelegation","inputs":[{"name":"token","type":"address","internalType":"address"},{"name":"notes","type":"string","internalType":"string"}],"outputs":[],"stateMutability":"nonpayable"},{"type":"function","name":"whitelistUniswapV2Router","inputs":[{"name":"router","type":"address","internalType":"address"},{"name":"notes","type":"string","internalType":"string"}],"outputs":[],"stateMutability":"nonpayable"},{"type":"function","name":"whitelistUniswapV3Router","inputs":[{"name":"router","type":"address","internalType":"address"},{"name":"notes","type":"string","internalType":"string"}],"outputs":[],"stateMutability":"nonpayable"},{"type":"event","name":"AnyAssetSet","inputs":[{"name":"value","type":"bool","indexed":false,"internalType":"bool"},{"name":"notes","type":"string","indexed":false,"internalType":"string"}],"anonymous":false},{"type":"event","name":"AnyVaultSet","inputs":[{"name":"value","type":"bool","indexed":false,"internalType":"bool"},{"name":"notes","type":"string","indexed":false,"internalType":"string"}],"anonymous":false},{"type":"event","name":"ApprovalDestinationApproved","inputs":[{"name":"sender","type":"address","indexed":false,"internalType":"address"},{"name":"notes","type":"string","indexed":false,"internalType":"string"}],"anonymous":false},{"type":"event","name":"ApprovalDestinationRemoved","inputs":[{"name":"sender","type":"address","indexed":false,"internalType":"address"},{"name":"notes","type":"string","indexed":false,"internalType":"string"}],"anonymous":false},{"type":"event","name":"AssetApproved","inputs":[{"name":"sender","type":"address","indexed":false,"internalType":"address"},{"name":"notes","type":"string","indexed":false,"internalType":"string"}],"anonymous":false},{"type":"event","name":"AssetRemoved","inputs":[{"name":"sender","type":"address","indexed":false,"internalType":"address"},{"name":"notes","type":"string","indexed":false,"internalType":"string"}],"anonymous":false},{"type":"event","name":"CallSiteApproved","inputs":[{"name":"target","type":"address","indexed":false,"internalType":"address"},{"name":"selector","type":"bytes4","indexed":false,"internalType":"bytes4"},{"name":"notes","type":"string","indexed":false,"internalType":"string"}],"anonymous":false},{"type":"event","name":"CallSiteRemoved","inputs":[{"name":"target","type":"address","indexed":false,"internalType":"address"},{"name":"selector","type":"bytes4","indexed":false,"internalType":"bytes4"},{"name":"notes","type":"string","indexed":false,"internalType":"string"}],"anonymous":false},{"type":"event","name":"DelegationApprovalDestinationApproved","inputs":[{"name":"sender","type":"address","indexed":false,"internalType":"address"},{"name":"notes","type":"string","indexed":false,"internalType":"string"}],"anonymous":false},{"type":"event","name":"DelegationApprovalDestinationRemoved","inputs":[{"name":"sender","type":"address","indexed":false,"internalType":"address"},{"name":"notes","type":"string","indexed":false,"internalType":"string"}],"anonymous":false},{"type":"event","name":"LagoonVaultApproved","inputs":[{"name":"vault","type":"address","indexed":false,"internalType":"address"},{"name":"notes","type":"string","indexed":false,"internalType":"string"}],"anonymous":false},{"type":"event","name":"OwnershipTransferred","inputs":[{"name":"previousOwner","type":"address","indexed":true,"internalType":"address"},{"name":"newOwner","type":"address","indexed":true,"internalType":"address"}],"anonymous":false},{"type":"event","name":"ReceiverApproved","inputs":[{"name":"sender","type":"address","indexed":false,"internalType":"address"},{"name":"notes","type":"string","indexed":false,"internalType":"string"}],"anonymous":false},{"type":"event","name":"ReceiverRemoved","inputs":[{"name":"sender","type":"address","indexed":false,"internalType":"address"},{"name":"notes","type":"string","indexed":false,"internalType":"string"}],"anonymous":false},{"type":"event","name":"SenderApproved","inputs":[{"name":"sender","type":"address","indexed":false,"internalType":"address"},{"name":"notes","type":"string","indexed":false,"internalType":"string"}],"anonymous":false},{"type":"event","name":"SenderRemoved","inputs":[{"name":"sender","type":"address","indexed":false,"internalType":"address"},{"name":"notes","type":"string","indexed":false,"internalType":"string"}],"anonymous":false},{"type":"event","name":"WithdrawDestinationApproved","inputs":[{"name":"sender","type":"address","indexed":false,"internalType":"address"},{"name":"notes","type":"string","indexed":false,"internalType":"string"}],"anonymous":false},{"type":"event","name":"WithdrawDestinationRemoved","inputs":[{"name":"sender","type":"address","indexed":false,"internalType":"address"},{"name":"notes","type":"string","indexed":false,"internalType":"string"}],"anonymous":false}],"bytecode":{"object":"0x608060405234801562000010575f80fd5b506200001c3362000022565b6200007b565b600a80546001600160a01b03838116610100818102610100600160a81b031985161790945560405193909204169182907f8be0079c531659141344cd1fd0a4f28419497f9722a3daafe3b4186f6b6457e0905f90a35050565b61486380620000895f395ff3fe608060405234801561000f575f80fd5b5060043610610438575f3560e01c80638730160811610237578063d075f9bb11610135578063efb47bff116100bf578063f76081e411610084578063f76081e414610a8f578063f901dc3314610aa2578063fa2c59c814610ab5578063fadbcf4814610ac8578063fdedfa2714610aea575f80fd5b8063efb47bff14610a26578063f20e85e014610a56578063f259a0731461043c578063f26749f314610a69578063f2fde38b14610a7c575f80fd5b8063db17a17011610105578063db17a170146109b8578063e98539c5146109cb578063eb0de042146109de578063ebe2681614610a00578063ee5462cc14610a13575f80fd5b8063d075f9bb14610962578063d4c0fe4514610992578063d718f0411461066e578063d7334c9d146109a5575f80fd5b8063a67e1f54116101c1578063be8c97b011610186578063be8c97b0146108f9578063c2e657ae14610929578063c4cc9dba1461093c578063c537bed01461094f578063ca963c5014610648575f80fd5b8063a67e1f5414610870578063a847cf4d14610883578063a9fc3d4f146108ad578063b3c329cb146108c4578063b8fe8d5f146108d7575f80fd5b8063912ef02d11610207578063912ef02d1461066e578063957dc6c01461081557806398b3cc3914610828578063a1b6b4301461083b578063a4c1cccb1461084e575f80fd5b806387301608146107bd5780638c2fdf9e146107ca5780638da5cb5b146107dd5780638fb4dff2146107f3575f80fd5b80635e6afe4d11610344578063715018a6116102ce5780637806508611610293578063780650861461074057806378addb48146107535780637ea446551461078457806386a6ae151461079757806386b6dbe5146107aa575f80fd5b8063715018a6146106d557806372e548a9146106dd57806373252494146106f0578063742bfc7e1461071a578063761bcd9c1461072d575f80fd5b80636d5025f1116103145780636d5025f11461065b5780636d5176a61461066e5780636d9a14231461067f5780636fd7fdef14610692578063713ebf3b146106c2575f80fd5b80635e6afe4d1461060f57806363cc17f2146106225780636a6d5cc8146106355780636ad1135314610648575f80fd5b806334ec8d7e116103c55780634b941268116103955780634b941268146105a15780634b956bd8146105c357806359b92be9146105d65780635ace1d92146105e95780635e4ccace146105fc575f80fd5b806334ec8d7e146105465780633cf20025146105595780633ea355511461057b578063425f49d01461058e575f80fd5b80631c123e771161040b5780631c123e77146104ae5780631d49039c146104c15780632c02cda0146104f15780632d12d788146105035780632dc32a6114610516575f80fd5b806304a3ba251461043c57806307ac35621461045157806307ef00cf146104645780631710a4f21461049b575b5f80fd5b61044f61044a366004613cbd565b610af9565b005b61044f61045f366004613dcc565b610bab565b610486610472366004613e06565b60066020525f908152604090205460ff1681565b60405190151581526020015b60405180910390f35b61044f6104a9366004613dcc565b610eeb565b61044f6104bc366004613dcc565b610f9b565b6104866104cf366004613e06565b6001600160a01b03165f9081526007602052604090205460ff16151560011490565b61044f6104ff366004613e28565b5050565b61044f610511366004613cbd565b611096565b610486610524366004613e06565b6001600160a01b03165f9081526008602052604090205460ff16151560011490565b61044f610554366004613cbd565b611136565b610486610567366004613e06565b60056020525f908152604090205460ff1681565b61044f610589366004613cbd565b6111b1565b61044f61059c366004613dcc565b611207565b6104866105af366004613e06565b60086020525f908152604090205460ff1681565b61044f6105d1366004613dcc565b611228565b61044f6105e4366004613dcc565b6112cb565b61044f6105f7366004613cbd565b61134c565b61044f61060a366004613e91565b6113ef565b61044f61061d366004613cbd565b6114dd565b61044f610630366004613cbd565b6116ce565b61044f610643366004613dcc565b611771565b61044f610656366004613dcc565b611859565b61044f610669366004613ef0565b61187b565b61044f61067c366004613dcc565b50565b61044f61068d366004613cbd565b61188d565b6104866106a0366004613e06565b6001600160a01b03165f9081526009602052604090205460ff16151560011490565b6104866106d0366004613f1e565b6118c3565b61044f6118f8565b61044f6106eb366004613cbd565b61190b565b600a5461010090046001600160a01b03165b6040516001600160a01b039091168152602001610492565b61044f610728366004613dcc565b6119ae565b61044f61073b366004613dcc565b611a69565b61044f61074e366004613dcc565b611bb3565b610486610761366004613e06565b6001600160a01b03165f9081526001602081905260409091205460ff1615151490565b61044f610792366004613dcc565b611c72565b61044f6107a5366004613cbd565b611cf5565b61044f6107b8366004613cbd565b611e72565b600a546104869060ff1681565b61044f6107d8366004613cbd565b611f15565b600a5461010090046001600160a01b0316610702565b610486610801366004613e06565b60096020525f908152604090205460ff1681565b61044f610823366004613dcc565b611fb5565b61044f610836366004613cbd565b612073565b61044f610849366004613dcc565b612116565b61048661085c366004613e06565b60036020525f908152604090205460ff1681565b61044f61087e366004613cbd565b6122d8565b610486610891366004613f1e565b5f60208181529281526040808220909352908152205460ff1681565b6108b660025481565b604051908152602001610492565b61044f6108d2366004613e06565b612378565b6104866108e5366004613e06565b60016020525f908152604090205460ff1681565b610486610907366004613e06565b6001600160a01b03165f9081526004602052604090205460ff16151560011490565b61044f610937366004613f51565b6123ea565b61044f61094a366004613dcc565b612479565b61048661095d366004613e06565b612597565b610486610970366004613e06565b6001600160a01b03165f9081526005602052604090205460ff16151560011490565b61044f6109a0366004613dcc565b6125c8565b61044f6109b3366004613e91565b61262b565b61044f6109c6366004613cbd565b6126e0565b61044f6109d9366004613dcc565b612761565b6104866109ec366004613e06565b60076020525f908152604090205460ff1681565b61044f610a0e366004613dcc565b61281f565b61044f610a21366004613cbd565b6128d2565b610486610a34366004613e06565b6001600160a01b03165f9081526006602052604090205460ff16151560011490565b61044f610a64366004613cbd565b6128dd565b61044f610a77366004613ef0565b612933565b61044f610a8a366004613e06565b6129a8565b61044f610a9d366004613dcc565b612a1e565b61044f610ab0366004613cbd565b612a99565b61044f610ac3366004613cbd565b612b39565b610486610ad6366004613e06565b60046020525f908152604090205460ff1681565b60405160018152602001610492565b600a546001600160a01b03610100909104163314610b4b5760405162461bcd60e51b815260206004820181905260248201525f8051602061471583398151915260448201526064015b60405180910390fd5b6001600160a01b0383165f9081526007602052604090819020805460ff19169055517fb71be9befd3ac90c1c9981d3b1161b3c2c6dcd741f13b34061aa251226a802df90610b9e90859085908590613f9a565b60405180910390a1505050565b5f81806020019051810190610bc0919061404c565b90505f5b8151811015610ee6575f828281518110610be057610be06140f6565b602002602001015190505f610c015f600484612bdc9092919063ffffffff16565b610c0a9061410a565b90505f610c276004808551610c1f9190614155565b859190612bdc565b6040805180820190915260208082527f7472616e736665724552433230496e28616464726573732c75696e74323536299101529050631dac092b60e11b6001600160e01b0319831601610c8257610c7d816112cb565b610edb565b60408051808201909152601b81527f7472616e736665724552433230416c6c496e2861646472657373290000000000602090910152635cf59cb760e11b6001600160e01b0319831601610cd857610c7d81611c72565b60408051808201909152601881527f6465706f73697428616464726573732c6164647265737329000000000000000060209091015262d3ec1f60e31b6001600160e01b0319831601610d2d57610c7d81612479565b60408051808201909152601981527f776974686472617728616464726573732c6164647265737329000000000000006020909101526306bf1c7b60e01b6001600160e01b0319831601610d8357610c7d81612a1e565b610daa6040518060600160405280602781526020016147d360279139805160209091012090565b6001600160e01b031916826001600160e01b03191603610dcd57610c7d81611859565b610df46040518060600160405280602881526020016147ab60289139805160209091012090565b6001600160e01b031916826001600160e01b03191603610e1757610c7d81611859565b60408051808201909152601e81527f666c61736853776170416c6c4f75742875696e743235362c627974657329000060209091015263d2b3d16560e01b6001600160e01b0319831601610e6d57610c7d81611207565b60405162461bcd60e51b815260206004820152603360248201527f76616c69646174655f3164656c74614d756c746963616c6c3a20556e6b6e6f7760448201527f6e2066756e6374696f6e2073656c6563746f72000000000000000000000000006064820152608401610b42565b505050600101610bc4565b505050565b5f81806020019051810190610f009190614173565b509050610f29816001600160a01b03165f9081526006602052604090205460ff16151560011490565b6104ff5760405162461bcd60e51b815260206004820152603c60248201527f76616c69646174655f7472616e736665723a205265636569766572206164647260448201527f657373206e6f742077686974656c6973746564206279204775617264000000006064820152608401610b42565b5f805b610fa783612d3e565b5092509050610fb582612597565b6110125760405162461bcd60e51b815260206004820152602860248201527f76616c6964617465556e69737761705633506174683a20546f6b656e206e6f7460448201526708185b1b1bddd95960c21b6064820152608401610b42565b61101b81612597565b6110785760405162461bcd60e51b815260206004820152602860248201527f76616c6964617465556e69737761705633506174683a20546f6b656e206e6f7460448201526708185b1b1bddd95960c21b6064820152608401610b42565b61108183612d79565b15610ee65761108f83612db2565b9250610f9e565b600a546001600160a01b036101009091041633146110e35760405162461bcd60e51b815260206004820181905260248201525f805160206147158339815191526044820152606401610b42565b6001600160a01b0383165f9081526005602052604090819020805460ff19169055517f4e13b11ab98e672bd78295ef9cebe764dc617f95decf47d842c25b83abc0c72490610b9e90859085908590613f9a565b6111688361116160405180606001604052806033815260200161477860339139805160209091012090565b84846113ef565b611193836111616040518060600160405280603481526020016147fa60349139805160209091012090565b6111a68363b858183f60e01b84846113ef565b610ee6838383612073565b6111dc836111616040518060800160405280604381526020016145e160439139805160209091012090565b6111a68361116160405180608001604052806060815260200161462460609139805160209091012090565b5f8180602001905181019061121c919061419f565b9150506104ff81612116565b5f8180602001905181019061123d9190614173565b509050611266816001600160a01b03165f9081526007602052604090205460ff16151560011490565b6104ff5760405162461bcd60e51b815260206004820152603060248201527f76616c69646174655f617070726f76653a20417070726f76652061646472657360448201526f0e640c8decae640dcdee840dac2e8c6d60831b6064820152608401610b42565b5f818060200190518101906112e09190614173565b5090506112ec81612597565b6104ff5760405162461bcd60e51b815260206004820152602b60248201527f76616c69646174655f7472616e736665724552433230496e3a20546f6b656e2060448201526a1b9bdd08185b1b1bddd95960aa1b6064820152608401610b42565b600a546001600160a01b036101009091041633146113995760405162461bcd60e51b815260206004820181905260248201525f805160206147158339815191526044820152606401610b42565b6001600160a01b0383165f9081526006602052604090819020805460ff19166001179055517f3562181221a42a19ddd03a82dfe06acab1905ceb65cdaf7d86a1d9fec664355290610b9e90859085908590613f9a565b600a546001600160a01b0361010090910416331461143c5760405162461bcd60e51b815260206004820181905260248201525f805160206147158339815191526044820152606401610b42565b6001600160a01b0384165f818152602081815260408083206001600160e01b03198816845282528083208054600160ff1991821681179092559484529182905282208054909316179091556002805491611495836141d9565b91905055507fef729aaa41b9fd994f9ff7c1960df214a84f722002e6cfbea31799cd0873a3ef848484846040516114cf94939291906141f1565b60405180910390a150505050565b600a546001600160a01b0361010090910416331461152a5760405162461bcd60e51b815260206004820181905260248201525f805160206147158339815191526044820152606401610b42565b6001600160a01b0383165f90815260096020908152604091829020805460ff191660011790558151808301909252600f82526e736574746c654465706f736974282960881b91015261159c837f559ec80da0b29925dac0e329ba0aaf8bbf2760bcaf9174e4ca42e01d74c0e6d0611161565b60408051808201909152600e81526d736574746c6552656465656d282960901b6020909101526115ec837fa03d55e3f74b6754c01f274bb12d9c8a11ea8330b6b4ce7125c8dff1f63646ca611161565b604080518082019091526016815275736574746c654465706f7369742875696e743235362960501b602090910152611644837fd24ca58a10c001ae46e533b96327657c0a386bc41cac6e2db77fab9c775540b5611161565b604080518082019091526015815274736574746c6552656465656d2875696e743235362960581b60209091015261169b837fa627df6689990c734a41da64c298fd0d8c7cc1757a97e2f817ed479cf45d135d611161565b7ffaa136302ac223cf7c1146490a741e4520e886fc22d7e759641453f432283d01838383604051610b9e93929190613f9a565b600a546001600160a01b0361010090910416331461171b5760405162461bcd60e51b815260206004820181905260248201525f805160206147158339815191526044820152606401610b42565b6001600160a01b0383165f9081526008602052604090819020805460ff19166001179055517f628a44970c0e450415e3ae74334ea44f3307b74dbf677a1371190242bf2f358990610b9e90859085908590613f9a565b5f8082806020019051810190611787919061422c565b925050915061179582612597565b6117d55760405162461bcd60e51b8152602060048201526011602482015270151bdad95b881b9bdd08185b1b1bddd959607a1b6044820152606401610b42565b6117fb816001600160a01b03165f9081526005602052604090205460ff16151560011490565b610ee65760405162461bcd60e51b815260206004820152602960248201527f52656365697665722061646472657373206e6f742077686974656c697374656460448201526808189e4811dd585c9960ba1b6064820152608401610b42565b5f8180602001905181019061186e919061426c565b925050506104ff81612116565b61188784848484612de3565b50505050565b6118b88361116160405180606001604052806022815260200161475660229139805160209091012090565b610ee6838383611e72565b6001600160a01b0382165f908152602081815260408083206001600160e01b03198516845290915290205460ff165b92915050565b61190061396a565b6119095f6139b7565b565b600a546001600160a01b036101009091041633146119585760405162461bcd60e51b815260206004820181905260248201525f805160206147158339815191526044820152606401610b42565b6001600160a01b0383165f9081526005602052604090819020805460ff19166001179055517f62dd88c5ecfa60713a657640ebec4de26fc1aefa4afdb24e6d15a124fce7277990610b9e90859085908590613f9a565b5f818060200190518101906119c391906142b8565b509150506119ed816001600160a01b03165f9081526005602052604090205460ff16151560011490565b6104ff5760405162461bcd60e51b815260206004820152604160248201527f76616c69646174655f4552433436323652656465656d3a20526563656976657260448201527f2061646472657373206e6f742077686974656c697374656420627920477561726064820152601960fa1b608482015260a401610b42565b5f8082806020019051810190611a7f91906142ed565b50935093505050611aac816001600160a01b03165f9081526005602052604090205460ff16151560011490565b611b335760405162461bcd60e51b815260206004820152604c60248201527f76616c69646174655f737761704578616374546f6b656e73466f72546f6b656e60448201527f733a2052656365697665722061646472657373206e6f742077686974656c697360648201526b1d195908189e4811dd585c9960a21b608482015260a401610b42565b5f805b8351811015611bac57838181518110611b5157611b516140f6565b60200260200101519150611b6482612597565b611ba45760405162461bcd60e51b8152602060048201526011602482015270151bdad95b881b9bdd08185b1b1bddd959607a1b6044820152606401610b42565b600101611b36565b5050505050565b5f81806020019051810190611bc891906142b8565b50915050611bf2816001600160a01b03165f9081526005602052604090205460ff16151560011490565b6104ff5760405162461bcd60e51b815260206004820152604560248201527f76616c69646174655f455243343632365769746864726177616c3a205265636560448201527f697665722061646472657373206e6f742077686974656c69737465642062792060648201526411dd585c9960da1b608482015260a401610b42565b5f81806020019051810190611c8791906143b0565b9050611c9281612597565b6104ff5760405162461bcd60e51b815260206004820152602e60248201527f76616c69646174655f7472616e736665724552433230416c6c496e3a20546f6b60448201526d195b881b9bdd08185b1b1bddd95960921b6064820152608401610b42565b5f8390505f816001600160a01b03166338d52e0f6040518163ffffffff1660e01b8152600401602060405180830381865afa158015611d36573d5f803e3d5ffd5b505050506040513d601f19601f82011682018060405250810190611d5a91906143b0565b60408051808201909152601881527f6465706f7369742875696e743235362c61646472657373290000000000000000602090910152905084611dbf817f6e553f653991036c188afcef45e14f9ecb45269ff9c675358bbb3a2eeb78e03b5b87876113ef565b611dea86611db860405180606001604052806021815260200161473560219139805160209091012090565b60408051808201909152601f81527f72656465656d2875696e743235362c616464726573732c616464726573732900602090910152611e49867fba087652ef750b77b3f3b86ecd8aac56de04fbc0d6751abdd0992cabce379054611db8565b611e54868686612073565b611e5f818686613a1d565b611e6a828686613a1d565b505050505050565b600a546001600160a01b03610100909104163314611ebf5760405162461bcd60e51b815260206004820181905260248201525f805160206147158339815191526044820152606401610b42565b6001600160a01b0383165f9081526003602052604090819020805460ff19166001179055517fad90e2570fc4fe9f7437be3188d5c791c6662892d31731992aa88f5c8762198390610b9e90859085908590613f9a565b600a546001600160a01b03610100909104163314611f625760405162461bcd60e51b815260206004820181905260248201525f805160206147158339815191526044820152606401610b42565b6001600160a01b0383165f9081526006602052604090819020805460ff19169055517f1212f8ddb39de8e1a339460c95752d61100723efeaa34ccd94bca94393f4093890610b9e90859085908590613f9a565b5f81806020019051810190611fca9190614173565b509050611ff3816001600160a01b03165f9081526008602052604090205460ff16151560011490565b6104ff5760405162461bcd60e51b815260206004820152604560248201527f76616c69646174655f617070726f766544656c65676174696f6e3a204170707260448201527f6f76652064656c65676174696f6e206164647265737320646f6573206e6f74206064820152640dac2e8c6d60db1b608482015260a401610b42565b600a546001600160a01b036101009091041633146120c05760405162461bcd60e51b815260206004820181905260248201525f805160206147158339815191526044820152606401610b42565b6001600160a01b0383165f9081526007602052604090819020805460ff19166001179055517f628a44970c0e450415e3ae74334ea44f3307b74dbf677a1371190242bf2f358990610b9e90859085908590613f9a565b5f805b612123835f613ad6565b9150612152600180612137600360146143cb565b61214191906143cb565b61214b91906143cb565b8490613ad6565b905061215d82612597565b6121b75760405162461bcd60e51b815260206004820152602560248201527f76616c69646174653164656c7461506174683a20546f6b656e206e6f7420616c6044820152641b1bddd95960da1b6064820152608401610b42565b6121c081612597565b61221a5760405162461bcd60e51b815260206004820152602560248201527f76616c69646174653164656c7461506174683a20546f6b656e206e6f7420616c6044820152641b1bddd95960da1b6064820152608401610b42565b600180612229600360146143cb565b61223391906143cb565b61223d91906143cb565b601460018061224d6003846143cb565b61225791906143cb565b61226191906143cb565b61226b91906143cb565b61227591906143cb565b835110610ee6576122d160018061228e600360146143cb565b61229891906143cb565b6122a291906143cb565b6001806122b1600360146143cb565b6122bb91906143cb565b6122c591906143cb565b8551610c1f9190614155565b9250612119565b600a546001600160a01b036101009091041633146123255760405162461bcd60e51b815260206004820181905260248201525f805160206147158339815191526044820152606401610b42565b6001600160a01b0383165f9081526004602052604090819020805460ff19169055517f3097928509c53a2dab9500431201d82b0d756e8f890fd01f4ae6b33b45687ea490610b9e90859085908590613f9a565b61239e816001600160a01b03165f9081526009602052604090205460ff16151560011490565b61067c5760405162461bcd60e51b815260206004820152601160248201527f5661756c74206e6f7420616c6c6f7765640000000000000000000000000000006044820152606401610b42565b600a546001600160a01b036101009091041633146124375760405162461bcd60e51b815260206004820181905260248201525f805160206147158339815191526044820152606401610b42565b600a805460ff19168415151790556040517f50454d9d0025a28a39cac5a4b3f3101d29b6e413fbb64f75fb42eb6837b0771890610b9e908590859085906143de565b5f808280602001905181019061248f91906143f9565b9150915061249c82612597565b6124ff5760405162461bcd60e51b815260206004820152602e60248201527f76616c69646174655f7472616e736665724552433230416c6c496e3a20546f6b60448201526d195b881b9bdd08185b1b1bddd95960921b6064820152608401610b42565b612525816001600160a01b03165f9081526005602052604090205460ff16151560011490565b610ee65760405162461bcd60e51b815260206004820152603b60248201527f76616c69646174655f6465706f7369743a20526563656976657220616464726560448201527f7373206e6f742077686974656c697374656420627920477561726400000000006064820152608401610b42565b600a545f9060ff16806118f25750506001600160a01b03165f9081526003602052604090205460ff16151560011490565b5f818060200190518101906125dd9190614431565b50505090506125eb81612597565b6104ff5760405162461bcd60e51b8152602060048201526011602482015270151bdad95b881b9bdd08185b1b1bddd959607a1b6044820152606401610b42565b600a546001600160a01b036101009091041633146126785760405162461bcd60e51b815260206004820181905260248201525f805160206147158339815191526044820152606401610b42565b6001600160a01b0384165f908152602081815260408083206001600160e01b03198716845290915290819020805460ff19169055517f37ea10f2d08f5a9803dfcd5abf3cfc7b0d6fcdf5fcbc36be9ea5a0b53d9a4d9b906114cf9086908690869086906141f1565b61270b8361116160405180606001604052806021815260200161459660219139805160209091012090565b612736836111616040518060600160405280602a81526020016145b7602a9139805160209091012090565b6111a6836111616040518060800160405280604a81526020016146cb604a9139805160209091012090565b5f81806020019051810190612776919061450c565b90506127a281602001516001600160a01b03165f9081526005602052604090205460ff16151560011490565b6128145760405162461bcd60e51b815260206004820152603f60248201527f76616c69646174655f65786163744f75747075743a205265636569766572206160448201527f646472657373206e6f742077686974656c6973746564206279204775617264006064820152608401610b42565b80516104ff90610f9b565b5f81806020019051810190612834919061450c565b905061286081602001516001600160a01b03165f9081526005602052604090205460ff16151560011490565b6128145760405162461bcd60e51b815260206004820152603e60248201527f76616c69646174655f6578616374496e7075743a20526563656976657220616460448201527f6472657373206e6f742077686974656c697374656420627920477561726400006064820152608401610b42565b610ee6838383613a1d565b6129088361116160405180606001604052806026815260200161468460269139805160209091012090565b6111a6836111616040518060600160405280602181526020016146aa60219139805160209091012090565b6040805180820190915260128152716d756c746963616c6c2862797465735b5d2960701b602090910152612987847fac9650d882acfa253cba1ed543b9ff47351da99c3bd00a89625e5cdb2099009c611161565b612992848383612073565b61299d838383612073565b6118878483836116ce565b6129b061396a565b6001600160a01b038116612a155760405162461bcd60e51b815260206004820152602660248201527f4f776e61626c653a206e6577206f776e657220697320746865207a65726f206160448201526564647265737360d01b6064820152608401610b42565b61067c816139b7565b5f8082806020019051810190612a3491906143f9565b91509150612a4182612597565b6124ff5760405162461bcd60e51b8152602060048201526024808201527f76616c69646174655f77697468647261773a20546f6b656e206e6f7420616c6c6044820152631bddd95960e21b6064820152608401610b42565b600a546001600160a01b03610100909104163314612ae65760405162461bcd60e51b815260206004820181905260248201525f805160206147158339815191526044820152606401610b42565b6001600160a01b0383165f9081526003602052604090819020805460ff19169055517f9ca3f065622f5f03f32b7157677a0e420c3a36ab45fd49f256ffebce3e31058790610b9e90859085908590613f9a565b600a546001600160a01b03610100909104163314612b865760405162461bcd60e51b815260206004820181905260248201525f805160206147158339815191526044820152606401610b42565b6001600160a01b0383165f9081526004602052604090819020805460ff19166001179055517fa8f9caaf4861720900294428e4ff34d37070c37afd26d96e6e4da75326d2c3ad90610b9e90859085908590613f9a565b606081612bea81601f6143cb565b1015612c295760405162461bcd60e51b815260206004820152600e60248201526d736c6963655f6f766572666c6f7760901b6044820152606401610b42565b82612c3483826143cb565b1015612c735760405162461bcd60e51b815260206004820152600e60248201526d736c6963655f6f766572666c6f7760901b6044820152606401610b42565b612c7d82846143cb565b84511015612ccd5760405162461bcd60e51b815260206004820152601160248201527f736c6963655f6f75744f66426f756e64730000000000000000000000000000006044820152606401610b42565b606082158015612ceb5760405191505f825260208201604052612d35565b6040519150601f8416801560200281840101858101878315602002848b0101015b81831015612d24578051835260209283019201612d0c565b5050858452601f01601f1916604052505b50949350505050565b5f8080612d4b8482613ad6565b9250612d58846014613ba5565b9050612d70612d69600360146143cb565b8590613ad6565b91509193909250565b5f612d86600360146143cb565b6014612d936003826143cb565b612d9d91906143cb565b612da791906143cb565b825110159050919050565b60606118f2612dc3600360146143cb565b612dcf600360146143cb565b8451612ddb9190614155565b849190612bdc565b600a546001600160a01b03858116610100909204161461188757612e23846001600160a01b03165f9081526004602052604090205460ff16151560011490565b612e6f5760405162461bcd60e51b815260206004820181905260248201527f76616c696461746543616c6c3a2053656e646572206e6f7420616c6c6f7765646044820152606401610b42565b5f612e7d600482848661453e565b612e8691614565565b9050365f612e97846004818861453e565b600a5491935091505f9060ff168015612ef05750604080518082019091526018815277617070726f766528616464726573732c75696e743235362960401b60209091015263095ea7b360e01b6001600160e01b03198516145b905080612fe157612f0187856118c3565b612fe1576001600160a01b0387165f9081526001602081905260409091205460ff16151514612f725760405162461bcd60e51b815260206004820181905260248201527f76616c696461746543616c6c3a20746172676574206e6f7420616c6c6f7765646044820152606401610b42565b612f7c87856118c3565b612fe15760405162461bcd60e51b815260206004820152603060248201527f76616c696461746543616c6c3a2073656c6563746f72206e6f7420616c6c6f7760448201526f1959081bdb881d1a19481d185c99d95d60821b6064820152608401610b42565b6130086040518060800160405280604381526020016145e160439139805160209091012090565b6001600160e01b031916846001600160e01b031916036130655761306083838080601f0160208091040260200160405190810160405280939291908181526020018383808284375f92019190915250611a6992505050565b613960565b61308c60405180608001604052806060815260200161462460609139805160209091012090565b6001600160e01b031916846001600160e01b031916036130e45761306083838080601f0160208091040260200160405190810160405280939291908181526020018383808284375f92019190915250611a6992505050565b61310b60405180606001604052806033815260200161477860339139805160209091012090565b6001600160e01b031916846001600160e01b031916036131635761306083838080601f0160208091040260200160405190810160405280939291908181526020018383808284375f9201919091525061281f92505050565b6001600160e01b0319841663b858183f60e01b0361320a57600a5460ff166130605760405162461bcd60e51b815260206004820152604e60248201527f76616c696461746543616c6c3a2053776170526f75746572303220697320637560448201527f7272656e746c7920737570706f72746564206f6e6c79207769746820616e794160648201526d1cdcd95d081dda1a5d195b1a5cdd60921b608482015260a401610b42565b6040805180820190915260128152716d756c746963616c6c2862797465735b5d2960701b602090910152630a6d35e560e31b6001600160e01b031985160161328a5761306083838080601f0160208091040260200160405190810160405280939291908181526020018383808284375f92019190915250610bab92505050565b60408051808201909152601981527f7472616e7366657228616464726573732c75696e7432353629000000000000006020909101526356fa634560e01b6001600160e01b03198516016133155761306083838080601f0160208091040260200160405190810160405280939291908181526020018383808284375f92019190915250610eeb92505050565b604080518082019091526018815277617070726f766528616464726573732c75696e743235362960401b60209091015263f6a1584d60e01b6001600160e01b031985160161339b5761306083838080601f0160208091040260200160405190810160405280939291908181526020018383808284375f9201919091525061122892505050565b6133c260405180606001604052806022815260200161475660229139805160209091012090565b6001600160e01b031916846001600160e01b0319160361341a5761306083838080601f0160208091040260200160405190810160405280939291908181526020018383808284375f92019190915250611fb592505050565b61344160405180606001604052806026815260200161468460269139805160209091012090565b6001600160e01b031916846001600160e01b031916036134995761306083838080601f0160208091040260200160405190810160405280939291908181526020018383808284375f920191909152506125c892505050565b6134c06040518060600160405280602181526020016146aa60219139805160209091012090565b6001600160e01b031916846001600160e01b031916036135185761306083838080601f0160208091040260200160405190810160405280939291908181526020018383808284375f9201919091525061177192505050565b60408051808201909152600f81526e736574746c654465706f736974282960881b60209091015263aa6137f360e01b6001600160e01b03198516016135605761306087612378565b60408051808201909152600e81526d736574746c6552656465656d282960901b602090910152635fc2aa1d60e01b6001600160e01b03198516016135a75761306087612378565b604080518082019091526016815275736574746c654465706f7369742875696e743235362960501b6020909101526316d9ad3b60e11b6001600160e01b03198516016135f65761306087612378565b604080518082019091526015815274736574746c6552656465656d2875696e743235362960581b602090910152632cec104d60e11b6001600160e01b03198516016136445761306087612378565b60408051808201909152601881527f6465706f7369742875696e743235362c61646472657373290000000000000000602090910152636e553f6560e01b6001600160e01b0319851614613960576136b860405180606001604052806021815260200161473560219139805160209091012090565b6001600160e01b031916846001600160e01b031916036137105761306083838080601f0160208091040260200160405190810160405280939291908181526020018383808284375f92019190915250611bb392505050565b60408051808201909152601f81527f72656465656d2875696e743235362c616464726573732c6164647265737329006020909101526322fbc4d760e11b6001600160e01b031985160161379b5761306083838080601f0160208091040260200160405190810160405280939291908181526020018383808284375f920191909152506119ae92505050565b6137c260405180606001604052806021815260200161459660219139805160209091012090565b6001600160e01b031916846001600160e01b0319160361381a5761306083838080601f0160208091040260200160405190810160405280939291908181526020018383808284375f9201919091525061067c92505050565b6138416040518060600160405280602a81526020016145b7602a9139805160209091012090565b6001600160e01b031916846001600160e01b031916036138995761306083838080601f0160208091040260200160405190810160405280939291908181526020018383808284375f9201919091525061067c92505050565b6138c06040518060800160405280604a81526020016146cb604a9139805160209091012090565b6001600160e01b031916846001600160e01b031916036139185761306083838080601f0160208091040260200160405190810160405280939291908181526020018383808284375f9201919091525061067c92505050565b60405162461bcd60e51b815260206004820152601960248201527f556e6b6e6f776e2066756e6374696f6e2073656c6563746f72000000000000006044820152606401610b42565b5050505050505050565b600a546001600160a01b036101009091041633146119095760405162461bcd60e51b815260206004820181905260248201525f805160206147158339815191526044820152606401610b42565b600a80546001600160a01b0383811661010081810274ffffffffffffffffffffffffffffffffffffffff001985161790945560405193909204169182907f8be0079c531659141344cd1fd0a4f28419497f9722a3daafe3b4186f6b6457e0905f90a35050565b60408051808201909152601981527f7472616e7366657228616464726573732c75696e743235362900000000000000602090910152613a7c837fa9059cbb2ab09eb219583f4a59a5d0623ade346d962bcd4e46b11da047c9049b611161565b604080518082019091526018815277617070726f766528616464726573732c75696e743235362960401b6020909101526118b8837f095ea7b334ae44009aa867bfb386f5c3b4b443ac6f0ee573fa91c4608fbadfba611161565b5f81613ae38160146143cb565b1015613b315760405162461bcd60e51b815260206004820152601260248201527f746f416464726573735f6f766572666c6f7700000000000000000000000000006044820152606401610b42565b613b3c8260146143cb565b83511015613b8c5760405162461bcd60e51b815260206004820152601560248201527f746f416464726573735f6f75744f66426f756e647300000000000000000000006044820152606401610b42565b5001602001516c01000000000000000000000000900490565b5f81613bb28160036143cb565b1015613c005760405162461bcd60e51b815260206004820152601160248201527f746f55696e7432345f6f766572666c6f770000000000000000000000000000006044820152606401610b42565b613c0b8260036143cb565b83511015613c5b5760405162461bcd60e51b815260206004820152601460248201527f746f55696e7432345f6f75744f66426f756e64730000000000000000000000006044820152606401610b42565b50016003015190565b6001600160a01b038116811461067c575f80fd5b5f8083601f840112613c88575f80fd5b50813567ffffffffffffffff811115613c9f575f80fd5b602083019150836020828501011115613cb6575f80fd5b9250929050565b5f805f60408486031215613ccf575f80fd5b8335613cda81613c64565b9250602084013567ffffffffffffffff811115613cf5575f80fd5b613d0186828701613c78565b9497909650939450505050565b634e487b7160e01b5f52604160045260245ffd5b604051601f8201601f1916810167ffffffffffffffff81118282101715613d4b57613d4b613d0e565b604052919050565b5f67ffffffffffffffff821115613d6c57613d6c613d0e565b50601f01601f191660200190565b5f82601f830112613d89575f80fd5b8135613d9c613d9782613d53565b613d22565b818152846020838601011115613db0575f80fd5b816020850160208301375f918101602001919091529392505050565b5f60208284031215613ddc575f80fd5b813567ffffffffffffffff811115613df2575f80fd5b613dfe84828501613d7a565b949350505050565b5f60208284031215613e16575f80fd5b8135613e2181613c64565b9392505050565b5f8060408385031215613e39575f80fd5b8235613e4481613c64565b9150602083013567ffffffffffffffff811115613e5f575f80fd5b613e6b85828601613d7a565b9150509250929050565b80356001600160e01b031981168114613e8c575f80fd5b919050565b5f805f8060608587031215613ea4575f80fd5b8435613eaf81613c64565b9350613ebd60208601613e75565b9250604085013567ffffffffffffffff811115613ed8575f80fd5b613ee487828801613c78565b95989497509550505050565b5f805f8060608587031215613f03575f80fd5b8435613f0e81613c64565b93506020850135613ebd81613c64565b5f8060408385031215613f2f575f80fd5b8235613f3a81613c64565b9150613f4860208401613e75565b90509250929050565b5f805f60408486031215613f63575f80fd5b83358015158114613cda575f80fd5b81835281816020850137505f828201602090810191909152601f909101601f19169091010190565b6001600160a01b0384168152604060208201525f613fbc604083018486613f72565b95945050505050565b5f67ffffffffffffffff821115613fde57613fde613d0e565b5060051b60200190565b5f82601f830112613ff7575f80fd5b8151614005613d9782613d53565b818152602085602084870101111561401b575f80fd5b5f5b8381101561403857858101820151838201830152810161401d565b50505f918101602001919091529392505050565b5f602080838503121561405d575f80fd5b825167ffffffffffffffff80821115614074575f80fd5b818501915085601f830112614087575f80fd5b8151614095613d9782613fc5565b81815260059190911b830184019084810190888311156140b3575f80fd5b8585015b838110156140e9578051858111156140cd575f80fd5b6140db8b89838a0101613fe8565b8452509186019186016140b7565b5098975050505050505050565b634e487b7160e01b5f52603260045260245ffd5b805160208201516001600160e01b031980821692919060048310156141395780818460040360031b1b83161693505b505050919050565b634e487b7160e01b5f52601160045260245ffd5b818103818111156118f2576118f2614141565b8051613e8c81613c64565b5f8060408385031215614184575f80fd5b825161418f81613c64565b6020939093015192949293505050565b5f80604083850312156141b0575f80fd5b82519150602083015167ffffffffffffffff8111156141cd575f80fd5b613e6b85828601613fe8565b5f600182016141ea576141ea614141565b5060010190565b6001600160a01b038516815263ffffffff60e01b84166020820152606060408201525f614222606083018486613f72565b9695505050505050565b5f805f6060848603121561423e575f80fd5b835161424981613c64565b60208501516040860151919450925061426181613c64565b809150509250925092565b5f805f6060848603121561427e575f80fd5b8351925060208401519150604084015167ffffffffffffffff8111156142a2575f80fd5b6142ae86828701613fe8565b9150509250925092565b5f805f606084860312156142ca575f80fd5b8351925060208401516142dc81613c64565b604085015190925061426181613c64565b5f805f805f60a08688031215614301575f80fd5b855194506020808701519450604087015167ffffffffffffffff811115614326575f80fd5b8701601f81018913614336575f80fd5b8051614344613d9782613fc5565b81815260059190911b8201830190838101908b831115614362575f80fd5b928401925b8284101561438957835161437a81613c64565b82529284019290840190614367565b809750505050505061439d60608701614168565b9150608086015190509295509295909350565b5f602082840312156143c0575f80fd5b8151613e2181613c64565b808201808211156118f2576118f2614141565b8315158152604060208201525f613fbc604083018486613f72565b5f806040838503121561440a575f80fd5b825161441581613c64565b602084015190925061442681613c64565b809150509250929050565b5f805f8060808587031215614444575f80fd5b845161444f81613c64565b60208601516040870151919550935061446781613c64565b6060959095015193969295505050565b5f60a08284031215614487575f80fd5b60405160a0810167ffffffffffffffff82821081831117156144ab576144ab613d0e565b8160405282935084519150808211156144c2575f80fd5b506144cf85828601613fe8565b82525060208301516144e081613c64565b806020830152506040830151604082015260608301516060820152608083015160808201525092915050565b5f6020828403121561451c575f80fd5b815167ffffffffffffffff811115614532575f80fd5b613dfe84828501614477565b5f808585111561454c575f80fd5b83861115614558575f80fd5b5050820193919092039150565b6001600160e01b0319813581811691600485101561458d5780818660040360031b1b83161692505b50509291505056fe64656c65676174655369676e65722828627974657333322c6164647265737329296465706f7369742828627974657333322c627974657333322c627974657333322c75696e743132382929737761704578616374546f6b656e73466f72546f6b656e732875696e743235362c75696e743235362c616464726573735b5d2c616464726573732c75696e7432353629737761704578616374546f6b656e73466f72546f6b656e73537570706f7274696e674665654f6e5472616e73666572546f6b656e732875696e743235362c75696e743235362c616464726573735b5d2c616464726573732c75696e7432353629737570706c7928616464726573732c75696e743235362c616464726573732c75696e74313629776974686472617728616464726573732c75696e743235362c616464726573732977697468647261772828627974657333322c627974657333322c627974657333322c75696e743132382c75696e743132382c616464726573732c616464726573732c75696e74363429294f776e61626c653a2063616c6c6572206973206e6f7420746865206f776e657277697468647261772875696e743235362c616464726573732c6164647265737329617070726f766544656c65676174696f6e28616464726573732c75696e74323536296578616374496e707574282862797465732c616464726573732c75696e743235362c75696e743235362c75696e743235362929666c6173685377617045786163744f75742875696e743235362c75696e743235362c627974657329666c617368537761704578616374496e2875696e743235362c75696e743235362c62797465732965786163744f7574707574282862797465732c616464726573732c75696e743235362c75696e743235362c75696e743235362929a26469706673582212207e99f9a36c028756c7c5bd1f763251fafde8a401983f580b536c1ad5fa4ba0e564736f6c63430008170033","linkReferences":{}},"methodIdentifiers":{"allowApprovalDestination(address,string)":"98b3cc39","allowAsset(address,string)":"86b6dbe5","allowCallSite(address,bytes4,string)":"5e4ccace","allowDelegationApprovalDestination(address,string)":"63cc17f2","allowReceiver(address,string)":"72e548a9","allowSender(address,string)":"fa2c59c8","allowWithdrawDestination(address,string)":"5ace1d92","allowedApprovalDestinations(address)":"eb0de042","allowedAssets(address)":"a4c1cccb","allowedCallSites(address,bytes4)":"a847cf4d","allowedDelegationApprovalDestinations(address)":"4b941268","allowedLagoonVaults(address)":"8fb4dff2","allowedReceivers(address)":"3cf20025","allowedSenders(address)":"fadbcf48","allowedTargets(address)":"b8fe8d5f","allowedWithdrawDestinations(address)":"07ef00cf","anyAsset()":"87301608","callSiteCount()":"a9fc3d4f","getGovernanceAddress()":"73252494","getInternalVersion()":"fdedfa27","isAllowedApprovalDestination(address)":"1d49039c","isAllowedAsset(address)":"c537bed0","isAllowedCallSite(address,bytes4)":"713ebf3b","isAllowedDelegationApprovalDestination(address)":"2dc32a61","isAllowedLagoonVault(address)":"6fd7fdef","isAllowedReceiver(address)":"d075f9bb","isAllowedSender(address)":"be8c97b0","isAllowedTarget(address)":"78addb48","isAllowedWithdrawDestination(address)":"efb47bff","owner()":"8da5cb5b","removeApprovalDestination(address,string)":"04a3ba25","removeAsset(address,string)":"f901dc33","removeCallSite(address,bytes4,string)":"d7334c9d","removeDelegationApprovalDestination(address,string)":"f259a073","removeReceiver(address,string)":"2d12d788","removeSender(address,string)":"a67e1f54","removeWithdrawDestination(address,string)":"8c2fdf9e","renounceOwnership()":"715018a6","setAnyAssetAllowed(bool,string)":"c2e657ae","transferOwnership(address)":"f2fde38b","validate1deltaPath(bytes)":"a1b6b430","validateCall(address,address,bytes)":"6d5025f1","validateUniswapV3Path(bytes)":"1c123e77","validate_1deltaDeposit(bytes)":"c4cc9dba","validate_1deltaMulticall(bytes)":"07ac3562","validate_1deltaWithdraw(bytes)":"f76081e4","validate_ERC4626Deposit(address,bytes)":"2c02cda0","validate_ERC4626Redeem(bytes)":"742bfc7e","validate_ERC4626Withdraw(bytes)":"78065086","validate_aaveSupply(bytes)":"d4c0fe45","validate_aaveWithdraw(bytes)":"6a6d5cc8","validate_approve(bytes)":"4b956bd8","validate_approveDelegation(bytes)":"957dc6c0","validate_exactInput(bytes)":"ebe26816","validate_exactOutput(bytes)":"e98539c5","validate_flashSwapAllOut(bytes)":"425f49d0","validate_flashSwapExactInt(bytes)":"ca963c50","validate_flashSwapExactOut(bytes)":"6ad11353","validate_lagoonSettle(address)":"b3c329cb","validate_orderlyDelegateSigner(bytes)":"d718f041","validate_orderlyDeposit(bytes)":"6d5176a6","validate_orderlyWithdraw(bytes)":"912ef02d","validate_swapExactTokensForTokens(bytes)":"761bcd9c","validate_transfer(bytes)":"1710a4f2","validate_transferERC20AllIn(bytes)":"7ea44655","validate_transferERC20In(bytes)":"59b92be9","whitelistAaveV3(address,string)":"f20e85e0","whitelistERC4626(address,string)":"86a6ae15","whitelistLagoon(address,string)":"5e6afe4d","whitelistOnedelta(address,address,string)":"f26749f3","whitelistOrderly(address,string)":"db17a170","whitelistToken(address,string)":"ee5462cc","whitelistTokenForDelegation(address,string)":"6d9a1423","whitelistUniswapV2Router(address,string)":"3ea35551","whitelistUniswapV3Router(address,string)":"34ec8d7e"},"id":2}