{"abi":[{"type":"constructor","inputs":[],"stateMutability":"nonpayable"},{"type":"function","name":"_SIGN_COOLDOWN","inputs":[],"outputs":[{"name":"","type":"uint256","internalType":"uint256"}],"stateMutability":"view"},{"type":"function","name":"allowApprovalDestination","inputs":[{"name":"destination","type":"address","internalType":"address"},{"name":"notes","type":"string","internalType":"string"}],"outputs":[],"stateMutability":"nonpayable"},{"type":"function","name":"allowAsset","inputs":[{"name":"asset","type":"address","internalType":"address"},{"name":"notes","type":"string","internalType":"string"}],"outputs":[],"stateMutability":"nonpayable"},{"type":"function","name":"allowCallSite","inputs":[{"name":"target","type":"address","internalType":"address"},{"name":"selector","type":"bytes4","internalType":"bytes4"},{"name":"notes","type":"string","internalType":"string"}],"outputs":[],"stateMutability":"nonpayable"},{"type":"function","name":"allowDelegationApprovalDestination","inputs":[{"name":"destination","type":"address","internalType":"address"},{"name":"notes","type":"string","internalType":"string"}],"outputs":[],"stateMutability":"nonpayable"},{"type":"function","name":"allowReceiver","inputs":[{"name":"receiver","type":"address","internalType":"address"},{"name":"notes","type":"string","internalType":"string"}],"outputs":[],"stateMutability":"nonpayable"},{"type":"function","name":"allowSender","inputs":[{"name":"sender","type":"address","internalType":"address"},{"name":"notes","type":"string","internalType":"string"}],"outputs":[],"stateMutability":"nonpayable"},{"type":"function","name":"allowWithdrawDestination","inputs":[{"name":"destination","type":"address","internalType":"address"},{"name":"notes","type":"string","internalType":"string"}],"outputs":[],"stateMutability":"nonpayable"},{"type":"function","name":"allowedApprovalDestinations","inputs":[{"name":"destination","type":"address","internalType":"address"}],"outputs":[{"name":"allowed","type":"bool","internalType":"bool"}],"stateMutability":"view"},{"type":"function","name":"allowedAssets","inputs":[{"name":"token","type":"address","internalType":"address"}],"outputs":[{"name":"allowed","type":"bool","internalType":"bool"}],"stateMutability":"view"},{"type":"function","name":"allowedCCTPDestinations","inputs":[{"name":"domain","type":"uint32","internalType":"uint32"}],"outputs":[{"name":"allowed","type":"bool","internalType":"bool"}],"stateMutability":"view"},{"type":"function","name":"allowedCCTPMessengers","inputs":[{"name":"messenger","type":"address","internalType":"address"}],"outputs":[{"name":"allowed","type":"bool","internalType":"bool"}],"stateMutability":"view"},{"type":"function","name":"allowedCallSites","inputs":[{"name":"target","type":"address","internalType":"address"},{"name":"selector","type":"bytes4","internalType":"bytes4"}],"outputs":[{"name":"allowed","type":"bool","internalType":"bool"}],"stateMutability":"view"},{"type":"function","name":"allowedCowSwaps","inputs":[{"name":"destination","type":"address","internalType":"address"}],"outputs":[{"name":"allowed","type":"bool","internalType":"bool"}],"stateMutability":"view"},{"type":"function","name":"allowedDelegationApprovalDestinations","inputs":[{"name":"destination","type":"address","internalType":"address"}],"outputs":[{"name":"allowed","type":"bool","internalType":"bool"}],"stateMutability":"view"},{"type":"function","name":"allowedGMXMarkets","inputs":[{"name":"market","type":"address","internalType":"address"}],"outputs":[{"name":"allowed","type":"bool","internalType":"bool"}],"stateMutability":"view"},{"type":"function","name":"allowedGMXRouters","inputs":[{"name":"destination","type":"address","internalType":"address"}],"outputs":[{"name":"allowed","type":"bool","internalType":"bool"}],"stateMutability":"view"},{"type":"function","name":"allowedLagoonVaults","inputs":[{"name":"destination","type":"address","internalType":"address"}],"outputs":[{"name":"allowed","type":"bool","internalType":"bool"}],"stateMutability":"view"},{"type":"function","name":"allowedReceivers","inputs":[{"name":"receiver","type":"address","internalType":"address"}],"outputs":[{"name":"allowed","type":"bool","internalType":"bool"}],"stateMutability":"view"},{"type":"function","name":"allowedSenders","inputs":[{"name":"sender","type":"address","internalType":"address"}],"outputs":[{"name":"allowed","type":"bool","internalType":"bool"}],"stateMutability":"view"},{"type":"function","name":"allowedTargets","inputs":[{"name":"target","type":"address","internalType":"address"}],"outputs":[{"name":"allowed","type":"bool","internalType":"bool"}],"stateMutability":"view"},{"type":"function","name":"allowedVeloraSwappers","inputs":[{"name":"destination","type":"address","internalType":"address"}],"outputs":[{"name":"allowed","type":"bool","internalType":"bool"}],"stateMutability":"view"},{"type":"function","name":"allowedWithdrawDestinations","inputs":[{"name":"destination","type":"address","internalType":"address"}],"outputs":[{"name":"allowed","type":"bool","internalType":"bool"}],"stateMutability":"view"},{"type":"function","name":"anyAsset","inputs":[],"outputs":[{"name":"","type":"bool","internalType":"bool"}],"stateMutability":"view"},{"type":"function","name":"callSiteCount","inputs":[],"outputs":[{"name":"","type":"uint256","internalType":"uint256"}],"stateMutability":"view"},{"type":"function","name":"getGovernanceAddress","inputs":[],"outputs":[{"name":"","type":"address","internalType":"address"}],"stateMutability":"view"},{"type":"function","name":"getInternalVersion","inputs":[],"outputs":[{"name":"","type":"uint8","internalType":"uint8"}],"stateMutability":"pure"},{"type":"function","name":"gmxOrderVaults","inputs":[{"name":"exchangeRouter","type":"address","internalType":"address"}],"outputs":[{"name":"orderVault","type":"address","internalType":"address"}],"stateMutability":"view"},{"type":"function","name":"isAllowedApprovalDestination","inputs":[{"name":"receiver","type":"address","internalType":"address"}],"outputs":[{"name":"","type":"bool","internalType":"bool"}],"stateMutability":"view"},{"type":"function","name":"isAllowedAsset","inputs":[{"name":"token","type":"address","internalType":"address"}],"outputs":[{"name":"","type":"bool","internalType":"bool"}],"stateMutability":"view"},{"type":"function","name":"isAllowedCCTPDestination","inputs":[{"name":"domain","type":"uint32","internalType":"uint32"}],"outputs":[{"name":"","type":"bool","internalType":"bool"}],"stateMutability":"view"},{"type":"function","name":"isAllowedCCTPMessenger","inputs":[{"name":"messenger","type":"address","internalType":"address"}],"outputs":[{"name":"","type":"bool","internalType":"bool"}],"stateMutability":"view"},{"type":"function","name":"isAllowedCallSite","inputs":[{"name":"target","type":"address","internalType":"address"},{"name":"selector","type":"bytes4","internalType":"bytes4"}],"outputs":[{"name":"","type":"bool","internalType":"bool"}],"stateMutability":"view"},{"type":"function","name":"isAllowedCowSwap","inputs":[{"name":"settlement","type":"address","internalType":"address"}],"outputs":[{"name":"","type":"bool","internalType":"bool"}],"stateMutability":"view"},{"type":"function","name":"isAllowedDelegationApprovalDestination","inputs":[{"name":"receiver","type":"address","internalType":"address"}],"outputs":[{"name":"","type":"bool","internalType":"bool"}],"stateMutability":"view"},{"type":"function","name":"isAllowedGMXMarket","inputs":[{"name":"market","type":"address","internalType":"address"}],"outputs":[{"name":"","type":"bool","internalType":"bool"}],"stateMutability":"view"},{"type":"function","name":"isAllowedGMXRouter","inputs":[{"name":"router","type":"address","internalType":"address"}],"outputs":[{"name":"","type":"bool","internalType":"bool"}],"stateMutability":"view"},{"type":"function","name":"isAllowedLagoonVault","inputs":[{"name":"vault","type":"address","internalType":"address"}],"outputs":[{"name":"","type":"bool","internalType":"bool"}],"stateMutability":"view"},{"type":"function","name":"isAllowedReceiver","inputs":[{"name":"receiver","type":"address","internalType":"address"}],"outputs":[{"name":"","type":"bool","internalType":"bool"}],"stateMutability":"view"},{"type":"function","name":"isAllowedSender","inputs":[{"name":"sender","type":"address","internalType":"address"}],"outputs":[{"name":"","type":"bool","internalType":"bool"}],"stateMutability":"view"},{"type":"function","name":"isAllowedTarget","inputs":[{"name":"target","type":"address","internalType":"address"}],"outputs":[{"name":"","type":"bool","internalType":"bool"}],"stateMutability":"view"},{"type":"function","name":"isAllowedVeloraSwapper","inputs":[{"name":"swapper","type":"address","internalType":"address"}],"outputs":[{"name":"","type":"bool","internalType":"bool"}],"stateMutability":"view"},{"type":"function","name":"isAllowedWithdrawDestination","inputs":[{"name":"receiver","type":"address","internalType":"address"}],"outputs":[{"name":"","type":"bool","internalType":"bool"}],"stateMutability":"view"},{"type":"function","name":"multicall","inputs":[{"name":"data","type":"bytes[]","internalType":"bytes[]"}],"outputs":[{"name":"results","type":"bytes[]","internalType":"bytes[]"}],"stateMutability":"payable"},{"type":"function","name":"owner","inputs":[],"outputs":[{"name":"","type":"address","internalType":"address"}],"stateMutability":"view"},{"type":"function","name":"removeApprovalDestination","inputs":[{"name":"destination","type":"address","internalType":"address"},{"name":"notes","type":"string","internalType":"string"}],"outputs":[],"stateMutability":"nonpayable"},{"type":"function","name":"removeAsset","inputs":[{"name":"asset","type":"address","internalType":"address"},{"name":"notes","type":"string","internalType":"string"}],"outputs":[],"stateMutability":"nonpayable"},{"type":"function","name":"removeCCTPDestination","inputs":[{"name":"domain","type":"uint32","internalType":"uint32"},{"name":"notes","type":"string","internalType":"string"}],"outputs":[],"stateMutability":"nonpayable"},{"type":"function","name":"removeCallSite","inputs":[{"name":"target","type":"address","internalType":"address"},{"name":"selector","type":"bytes4","internalType":"bytes4"},{"name":"notes","type":"string","internalType":"string"}],"outputs":[],"stateMutability":"nonpayable"},{"type":"function","name":"removeDelegationApprovalDestination","inputs":[{"name":"destination","type":"address","internalType":"address"},{"name":"notes","type":"string","internalType":"string"}],"outputs":[],"stateMutability":"nonpayable"},{"type":"function","name":"removeGMXMarket","inputs":[{"name":"market","type":"address","internalType":"address"},{"name":"notes","type":"string","internalType":"string"}],"outputs":[],"stateMutability":"nonpayable"},{"type":"function","name":"removeReceiver","inputs":[{"name":"receiver","type":"address","internalType":"address"},{"name":"notes","type":"string","internalType":"string"}],"outputs":[],"stateMutability":"nonpayable"},{"type":"function","name":"removeSender","inputs":[{"name":"sender","type":"address","internalType":"address"},{"name":"notes","type":"string","internalType":"string"}],"outputs":[],"stateMutability":"nonpayable"},{"type":"function","name":"removeWithdrawDestination","inputs":[{"name":"destination","type":"address","internalType":"address"},{"name":"notes","type":"string","internalType":"string"}],"outputs":[],"stateMutability":"nonpayable"},{"type":"function","name":"renounceOwnership","inputs":[],"outputs":[],"stateMutability":"nonpayable"},{"type":"function","name":"setAnyAssetAllowed","inputs":[{"name":"value","type":"bool","internalType":"bool"},{"name":"notes","type":"string","internalType":"string"}],"outputs":[],"stateMutability":"nonpayable"},{"type":"function","name":"transferOwnership","inputs":[{"name":"newOwner","type":"address","internalType":"address"}],"outputs":[],"stateMutability":"nonpayable"},{"type":"function","name":"validateCall","inputs":[{"name":"sender","type":"address","internalType":"address"},{"name":"target","type":"address","internalType":"address"},{"name":"callDataWithSelector","type":"bytes","internalType":"bytes"}],"outputs":[],"stateMutability":"view"},{"type":"function","name":"validateUniswapV3Path","inputs":[{"name":"path","type":"bytes","internalType":"bytes"}],"outputs":[],"stateMutability":"view"},{"type":"function","name":"validate_ERC4626Deposit","inputs":[{"name":"target","type":"address","internalType":"address"},{"name":"callData","type":"bytes","internalType":"bytes"}],"outputs":[],"stateMutability":"view"},{"type":"function","name":"validate_ERC4626Redeem","inputs":[{"name":"callData","type":"bytes","internalType":"bytes"}],"outputs":[],"stateMutability":"view"},{"type":"function","name":"validate_ERC4626Withdraw","inputs":[{"name":"callData","type":"bytes","internalType":"bytes"}],"outputs":[],"stateMutability":"view"},{"type":"function","name":"validate_UmamiDeposit","inputs":[{"name":"callData","type":"bytes","internalType":"bytes"}],"outputs":[],"stateMutability":"view"},{"type":"function","name":"validate_UmamiRedeem","inputs":[{"name":"callData","type":"bytes","internalType":"bytes"}],"outputs":[],"stateMutability":"view"},{"type":"function","name":"validate_aaveSupply","inputs":[{"name":"callData","type":"bytes","internalType":"bytes"}],"outputs":[],"stateMutability":"view"},{"type":"function","name":"validate_aaveWithdraw","inputs":[{"name":"callData","type":"bytes","internalType":"bytes"}],"outputs":[],"stateMutability":"view"},{"type":"function","name":"validate_approve","inputs":[{"name":"callData","type":"bytes","internalType":"bytes"}],"outputs":[],"stateMutability":"view"},{"type":"function","name":"validate_approveDelegation","inputs":[{"name":"callData","type":"bytes","internalType":"bytes"}],"outputs":[],"stateMutability":"view"},{"type":"function","name":"validate_cctpDepositForBurn","inputs":[{"name":"target","type":"address","internalType":"address"},{"name":"callData","type":"bytes","internalType":"bytes"}],"outputs":[],"stateMutability":"view"},{"type":"function","name":"validate_cowSwapSettlement","inputs":[{"name":"callData","type":"bytes","internalType":"bytes"}],"outputs":[],"stateMutability":"view"},{"type":"function","name":"validate_exactInput","inputs":[{"name":"callData","type":"bytes","internalType":"bytes"}],"outputs":[],"stateMutability":"view"},{"type":"function","name":"validate_exactOutput","inputs":[{"name":"callData","type":"bytes","internalType":"bytes"}],"outputs":[],"stateMutability":"view"},{"type":"function","name":"validate_gmxMulticall","inputs":[{"name":"exchangeRouter","type":"address","internalType":"address"},{"name":"callData","type":"bytes","internalType":"bytes"}],"outputs":[],"stateMutability":"view"},{"type":"function","name":"validate_lagoonSettle","inputs":[{"name":"vault","type":"address","internalType":"address"}],"outputs":[],"stateMutability":"view"},{"type":"function","name":"validate_orderlyDelegateSigner","inputs":[{"name":"callData","type":"bytes","internalType":"bytes"}],"outputs":[],"stateMutability":"view"},{"type":"function","name":"validate_orderlyDeposit","inputs":[{"name":"callData","type":"bytes","internalType":"bytes"}],"outputs":[],"stateMutability":"view"},{"type":"function","name":"validate_orderlyWithdraw","inputs":[{"name":"callData","type":"bytes","internalType":"bytes"}],"outputs":[],"stateMutability":"view"},{"type":"function","name":"validate_swapExactTokensForTokens","inputs":[{"name":"callData","type":"bytes","internalType":"bytes"}],"outputs":[],"stateMutability":"view"},{"type":"function","name":"validate_transfer","inputs":[{"name":"callData","type":"bytes","internalType":"bytes"}],"outputs":[],"stateMutability":"view"},{"type":"function","name":"whitelistAaveV3","inputs":[{"name":"lendingPool","type":"address","internalType":"address"},{"name":"notes","type":"string","internalType":"string"}],"outputs":[],"stateMutability":"nonpayable"},{"type":"function","name":"whitelistCCTP","inputs":[{"name":"tokenMessenger","type":"address","internalType":"address"},{"name":"notes","type":"string","internalType":"string"}],"outputs":[],"stateMutability":"nonpayable"},{"type":"function","name":"whitelistCCTPDestination","inputs":[{"name":"domain","type":"uint32","internalType":"uint32"},{"name":"notes","type":"string","internalType":"string"}],"outputs":[],"stateMutability":"nonpayable"},{"type":"function","name":"whitelistCowSwap","inputs":[{"name":"settlementContract","type":"address","internalType":"address"},{"name":"relayerContract","type":"address","internalType":"address"},{"name":"notes","type":"string","internalType":"string"}],"outputs":[],"stateMutability":"nonpayable"},{"type":"function","name":"whitelistERC4626","inputs":[{"name":"vault","type":"address","internalType":"address"},{"name":"notes","type":"string","internalType":"string"}],"outputs":[],"stateMutability":"nonpayable"},{"type":"function","name":"whitelistGMX","inputs":[{"name":"exchangeRouter","type":"address","internalType":"address"},{"name":"syntheticsRouter","type":"address","internalType":"address"},{"name":"orderVault","type":"address","internalType":"address"},{"name":"notes","type":"string","internalType":"string"}],"outputs":[],"stateMutability":"nonpayable"},{"type":"function","name":"whitelistGMXMarket","inputs":[{"name":"market","type":"address","internalType":"address"},{"name":"notes","type":"string","internalType":"string"}],"outputs":[],"stateMutability":"nonpayable"},{"type":"function","name":"whitelistLagoon","inputs":[{"name":"vault","type":"address","internalType":"address"},{"name":"notes","type":"string","internalType":"string"}],"outputs":[],"stateMutability":"nonpayable"},{"type":"function","name":"whitelistOrderly","inputs":[{"name":"orderlyVault","type":"address","internalType":"address"},{"name":"notes","type":"string","internalType":"string"}],"outputs":[],"stateMutability":"nonpayable"},{"type":"function","name":"whitelistToken","inputs":[{"name":"token","type":"address","internalType":"address"},{"name":"notes","type":"string","internalType":"string"}],"outputs":[],"stateMutability":"nonpayable"},{"type":"function","name":"whitelistTokenForDelegation","inputs":[{"name":"token","type":"address","internalType":"address"},{"name":"notes","type":"string","internalType":"string"}],"outputs":[],"stateMutability":"nonpayable"},{"type":"function","name":"whitelistUniswapV2Router","inputs":[{"name":"router","type":"address","internalType":"address"},{"name":"notes","type":"string","internalType":"string"}],"outputs":[],"stateMutability":"nonpayable"},{"type":"function","name":"whitelistUniswapV3Router","inputs":[{"name":"router","type":"address","internalType":"address"},{"name":"notes","type":"string","internalType":"string"}],"outputs":[],"stateMutability":"nonpayable"},{"type":"function","name":"whitelistVelora","inputs":[{"name":"augustusSwapper","type":"address","internalType":"address"},{"name":"tokenTransferProxy","type":"address","internalType":"address"},{"name":"notes","type":"string","internalType":"string"}],"outputs":[],"stateMutability":"nonpayable"},{"type":"event","name":"AnyAssetSet","inputs":[{"name":"value","type":"bool","indexed":false,"internalType":"bool"},{"name":"notes","type":"string","indexed":false,"internalType":"string"}],"anonymous":false},{"type":"event","name":"AnyVaultSet","inputs":[{"name":"value","type":"bool","indexed":false,"internalType":"bool"},{"name":"notes","type":"string","indexed":false,"internalType":"string"}],"anonymous":false},{"type":"event","name":"ApprovalDestinationApproved","inputs":[{"name":"destination","type":"address","indexed":false,"internalType":"address"},{"name":"notes","type":"string","indexed":false,"internalType":"string"}],"anonymous":false},{"type":"event","name":"ApprovalDestinationRemoved","inputs":[{"name":"destination","type":"address","indexed":false,"internalType":"address"},{"name":"notes","type":"string","indexed":false,"internalType":"string"}],"anonymous":false},{"type":"event","name":"AssetApproved","inputs":[{"name":"asset","type":"address","indexed":false,"internalType":"address"},{"name":"notes","type":"string","indexed":false,"internalType":"string"}],"anonymous":false},{"type":"event","name":"AssetRemoved","inputs":[{"name":"asset","type":"address","indexed":false,"internalType":"address"},{"name":"notes","type":"string","indexed":false,"internalType":"string"}],"anonymous":false},{"type":"event","name":"CCTPDestinationApproved","inputs":[{"name":"domain","type":"uint32","indexed":false,"internalType":"uint32"},{"name":"notes","type":"string","indexed":false,"internalType":"string"}],"anonymous":false},{"type":"event","name":"CCTPDestinationRemoved","inputs":[{"name":"domain","type":"uint32","indexed":false,"internalType":"uint32"},{"name":"notes","type":"string","indexed":false,"internalType":"string"}],"anonymous":false},{"type":"event","name":"CCTPMessengerApproved","inputs":[{"name":"tokenMessenger","type":"address","indexed":false,"internalType":"address"},{"name":"notes","type":"string","indexed":false,"internalType":"string"}],"anonymous":false},{"type":"event","name":"CallSiteApproved","inputs":[{"name":"target","type":"address","indexed":false,"internalType":"address"},{"name":"selector","type":"bytes4","indexed":false,"internalType":"bytes4"},{"name":"notes","type":"string","indexed":false,"internalType":"string"}],"anonymous":false},{"type":"event","name":"CallSiteRemoved","inputs":[{"name":"target","type":"address","indexed":false,"internalType":"address"},{"name":"selector","type":"bytes4","indexed":false,"internalType":"bytes4"},{"name":"notes","type":"string","indexed":false,"internalType":"string"}],"anonymous":false},{"type":"event","name":"CowSwapApproved","inputs":[{"name":"settlementContract","type":"address","indexed":false,"internalType":"address"},{"name":"notes","type":"string","indexed":false,"internalType":"string"}],"anonymous":false},{"type":"event","name":"DelegationApprovalDestinationApproved","inputs":[{"name":"destination","type":"address","indexed":false,"internalType":"address"},{"name":"notes","type":"string","indexed":false,"internalType":"string"}],"anonymous":false},{"type":"event","name":"DelegationApprovalDestinationRemoved","inputs":[{"name":"destination","type":"address","indexed":false,"internalType":"address"},{"name":"notes","type":"string","indexed":false,"internalType":"string"}],"anonymous":false},{"type":"event","name":"ERC4626Approved","inputs":[{"name":"vault","type":"address","indexed":false,"internalType":"address"},{"name":"notes","type":"string","indexed":false,"internalType":"string"}],"anonymous":false},{"type":"event","name":"GMXMarketApproved","inputs":[{"name":"market","type":"address","indexed":false,"internalType":"address"},{"name":"notes","type":"string","indexed":false,"internalType":"string"}],"anonymous":false},{"type":"event","name":"GMXMarketRemoved","inputs":[{"name":"market","type":"address","indexed":false,"internalType":"address"},{"name":"notes","type":"string","indexed":false,"internalType":"string"}],"anonymous":false},{"type":"event","name":"GMXRouterApproved","inputs":[{"name":"exchangeRouter","type":"address","indexed":false,"internalType":"address"},{"name":"syntheticsRouter","type":"address","indexed":false,"internalType":"address"},{"name":"notes","type":"string","indexed":false,"internalType":"string"}],"anonymous":false},{"type":"event","name":"LagoonVaultApproved","inputs":[{"name":"vault","type":"address","indexed":false,"internalType":"address"},{"name":"notes","type":"string","indexed":false,"internalType":"string"}],"anonymous":false},{"type":"event","name":"OrderSigned","inputs":[{"name":"timestamp","type":"uint256","indexed":true,"internalType":"uint256"},{"name":"orderUid","type":"bytes","indexed":false,"internalType":"bytes"},{"name":"order","type":"tuple","indexed":false,"internalType":"struct GPv2Order.Data","components":[{"name":"sellToken","type":"address","internalType":"contract IERC20"},{"name":"buyToken","type":"address","internalType":"contract IERC20"},{"name":"receiver","type":"address","internalType":"address"},{"name":"sellAmount","type":"uint256","internalType":"uint256"},{"name":"buyAmount","type":"uint256","internalType":"uint256"},{"name":"validTo","type":"uint32","internalType":"uint32"},{"name":"appData","type":"bytes32","internalType":"bytes32"},{"name":"feeAmount","type":"uint256","internalType":"uint256"},{"name":"kind","type":"bytes32","internalType":"bytes32"},{"name":"partiallyFillable","type":"bool","internalType":"bool"},{"name":"sellTokenBalance","type":"bytes32","internalType":"bytes32"},{"name":"buyTokenBalance","type":"bytes32","internalType":"bytes32"}]},{"name":"validTo","type":"uint32","indexed":false,"internalType":"uint32"},{"name":"buyAmount","type":"uint256","indexed":false,"internalType":"uint256"},{"name":"sellAmount","type":"uint256","indexed":false,"internalType":"uint256"}],"anonymous":false},{"type":"event","name":"OwnershipTransferred","inputs":[{"name":"previousOwner","type":"address","indexed":true,"internalType":"address"},{"name":"newOwner","type":"address","indexed":true,"internalType":"address"}],"anonymous":false},{"type":"event","name":"ReceiverApproved","inputs":[{"name":"receiver","type":"address","indexed":false,"internalType":"address"},{"name":"notes","type":"string","indexed":false,"internalType":"string"}],"anonymous":false},{"type":"event","name":"ReceiverRemoved","inputs":[{"name":"receiver","type":"address","indexed":false,"internalType":"address"},{"name":"notes","type":"string","indexed":false,"internalType":"string"}],"anonymous":false},{"type":"event","name":"SenderApproved","inputs":[{"name":"sender","type":"address","indexed":false,"internalType":"address"},{"name":"notes","type":"string","indexed":false,"internalType":"string"}],"anonymous":false},{"type":"event","name":"SenderRemoved","inputs":[{"name":"sender","type":"address","indexed":false,"internalType":"address"},{"name":"notes","type":"string","indexed":false,"internalType":"string"}],"anonymous":false},{"type":"event","name":"VeloraSwapExecuted","inputs":[{"name":"timestamp","type":"uint256","indexed":true,"internalType":"uint256"},{"name":"augustusSwapper","type":"address","indexed":true,"internalType":"address"},{"name":"tokenIn","type":"address","indexed":false,"internalType":"address"},{"name":"tokenOut","type":"address","indexed":false,"internalType":"address"},{"name":"amountIn","type":"uint256","indexed":false,"internalType":"uint256"},{"name":"amountOut","type":"uint256","indexed":false,"internalType":"uint256"},{"name":"minAmountOut","type":"uint256","indexed":false,"internalType":"uint256"}],"anonymous":false},{"type":"event","name":"VeloraSwapperApproved","inputs":[{"name":"augustusSwapper","type":"address","indexed":false,"internalType":"address"},{"name":"notes","type":"string","indexed":false,"internalType":"string"}],"anonymous":false},{"type":"event","name":"WithdrawDestinationApproved","inputs":[{"name":"destination","type":"address","indexed":false,"internalType":"address"},{"name":"notes","type":"string","indexed":false,"internalType":"string"}],"anonymous":false},{"type":"event","name":"WithdrawDestinationRemoved","inputs":[{"name":"destination","type":"address","indexed":false,"internalType":"address"},{"name":"notes","type":"string","indexed":false,"internalType":"string"}],"anonymous":false}],"bytecode":{"object":"0x6080806040523461006b5760118054610100600160a81b0319811633600881811b610100600160a81b0316929092179093551c6001600160a01b03167f8be0079c531659141344cd1fd0a4f28419497f9722a3daafe3b4186f6b6457e05f80a3614e9c90816100708239f35b5f80fdfe60806040526004361015610011575f80fd5b5f3560e01c80630411fb8e1461058a57806304a3ba251461058f578063076053421461058a57806307ef00cf146104405780630985b046146105855780630c260a7b146105805780631047789e1461057b5780631561149f146105765780631710a4f2146105715780631c123e771461056c5780631d49039c146104545780632c02cda0146105675780632d12d788146105625780632dc32a611461053f5780632e31e9c61461055d578063333f22e81461054457806334ec8d7e146105585780633cf20025146105535780633ea355511461054e5780633ffb788e1461054957806347566064146105445780634b9412681461053f5780634b956bd81461053a5780634c03f1f8146104815780634d3d31ca146105355780634efbad39146105305780635ace1d921461052b5780635e4ccace146105265780635e6afe4d1461052157806362d6775e1461051c57806363cc17f2146105175780636a6d5cc8146105125780636bf9e3311461050d5780636d5025f1146105085780636d5176a6146104725780636d9a1423146105035780636fd7fdef146104cc578063713ebf3b146104b3578063715018a6146104fe57806372e548a9146104f957806373252494146104d1578063742bfc7e1461049f578063748fca46146104ea57806374fb77fe146104f4578063761bcd9c146104ef578063780650861461049f57806378addb48146104955780637cac69c3146104ea57806386a6ae15146104e557806386b6dbe5146104e057806387301608146104db5780638c2fdf9e146104d65780638da5cb5b146104d15780638fb4dff2146104cc578063912ef02d14610472578063957dc6c0146104c757806398b3cc39146104c2578063a4c1cccb146104bd578063a67e1f54146104b8578063a847cf4d146104b3578063a86ddc57146104ae578063a9fc3d4f146104a9578063ac9650d8146104a4578063adcfa55b1461049f578063b3c329cb1461049a578063b45ea48b1461042c578063b8fe8d5f14610495578063ba44ad4114610490578063be8c97b01461041d578063c2e657ae1461048b578063c537bed014610486578063cbdb1dcf14610481578063d075f9bb1461047c578063d4c0fe4514610477578063d718f04114610472578063d7334c9d1461046d578063d758150914610468578063db17a17014610463578063e6f32c511461045e578063e98539c514610459578063eb0de04214610454578063ebe268161461044f578063ec0114401461044a578063ee5462cc14610445578063efb47bff14610440578063f20e85e01461043b578063f259a07314610436578063f2fde38b14610431578063f84756aa1461042c578063f901dc3314610427578063fa2c59c814610422578063fadbcf481461041d5763fdedfa2714610418575f80fd5b61247f565b611ceb565b61240d565b61239e565b611bfc565b6122da565b612268565b6121bd565b61072a565b6121a6565b6120b4565b61209e565b610a32565b612055565b611fdf565b611f29565b611eb7565b611e3f565b611378565b611e29565b611e02565b610daa565b611ddb565b611d35565b611c78565b611641565b611bd7565b6115b1565b611ad4565b611a0e565b6119d1565b61146b565b61194c565b61190c565b6118ad565b611897565b61142b565b611585565b611828565b611806565b6117a7565b611681565b6115d8565b61162b565b611615565b611513565b6114c7565b611386565b61135e565b611347565b611331565b6112cf565b611164565b611055565b610fc7565b610f09565b610e59565b610dea565b610d94565b610b1c565b610b8d565b610d78565b610ccd565b610c8d565b610bcd565b610b5c565b610aad565b610a72565b610a1c565b610a06565b6109ef565b610935565b6108d9565b61076a565b6105a9565b610652565b6001600160a01b038116036105a557565b5f80fd5b346105a55760203660031901126105a5576004356105c681610594565b60018060a01b03165f52600f602052602060ff60405f2054166040519015158152f35b9181601f840112156105a5578235916001600160401b0383116105a557602083818601950101116105a557565b9060406003198301126105a55760043561062f81610594565b91602435906001600160401b0382116105a55761064e916004016105e9565b9091565b346105a5577fb71be9befd3ac90c1c9981d3b1161b3c2c6dcd741f13b34061aa251226a802df6106c161068436610616565b60018060a09593951b036106a08160115460081c16331461249a565b83165f52600760205260405f2060ff19815416905560405193849384612505565b0390a1005b6001600160a01b03165f908152600d6020526040902090565b6001600160a01b03165f908152600c6020526040902090565b6001600160a01b03165f90815260056020526040902090565b6001600160a01b03165f90815260208190526040902090565b346105a55760203660031901126105a55760043561074781610594565b60018060a01b03165f526006602052602060ff60405f2054166040519015158152f35b346105a55760203660031901126105a55760043561078781610594565b60018060a01b03165f52600e602052602060ff60405f2054166040519015158152f35b634e487b7160e01b5f52604160045260245ffd5b60a081019081106001600160401b038211176107d957604052565b6107aa565b601f909101601f19168101906001600160401b038211908210176107d957604052565b6040519060e082016001600160401b038111838210176107d957604052565b6040519061012082016001600160401b038111838210176107d957604052565b6001600160401b0381116107d957601f01601f191660200190565b92919261086782610840565b9161087560405193846107de565b8294818452818301116105a5578281602093845f960137010152565b9080601f830112156105a5578160206108ac9335910161085b565b90565b60206003198201126105a557600435906001600160401b0382116105a5576108ac91600401610891565b346105a5576108ef6108ea366108af565b61256e565b005b60606003198201126105a55760043561090981610594565b9160243561091681610594565b91604435906001600160401b0382116105a55761064e916004016105e9565b346105a5577f936b7187f49d778f82d1c17d927c8006f00eac6d2e5ccb50720dbc7afda8b4a96106c1610967366108f1565b9093916109c8828660018060a01b036109888160115460081c16331461249a565b871693845f52600760205260405f20600160ff198254161790555f80516020614de7833981519152604051806109c086868d84612505565b0390a1613ba0565b5f52600a6020526109e360405f20600160ff19825416179055565b60405193849384612505565b346105a5576108ef610a0036610616565b9161269c565b346105a5576108ef610a17366108af565b6127a6565b346105a5576108ef610a2d366108af565b61281d565b346105a55760203660031901126105a557600435610a4f81610594565b60018060a01b03165f526007602052602060ff60405f2054166040519015158152f35b346105a55760403660031901126105a557610a8e600435610594565b6024356001600160401b0381116105a5576108ef903690600401610891565b346105a5577f4e13b11ab98e672bd78295ef9cebe764dc617f95decf47d842c25b83abc0c7246106c1610adf36610616565b60018060a09593951b03610afb8160115460081c16331461249a565b83165f52600560205260405f2060ff19815416905560405193849384612505565b346105a55760203660031901126105a557600435610b3981610594565b60018060a01b03165f526008602052602060ff60405f2054166040519015158152f35b346105a55760203660031901126105a5576020610b83600435610b7e81610594565b6128ab565b6040519015158152f35b346105a55760203660031901126105a557600435610baa81610594565b60018060a01b03165f52600a602052602060ff60405f2054166040519015158152f35b346105a5576108ef610bde36610616565b9160018060a01b03610bf88160115460081c16331461249a565b8116805f525f602052610c1c60405f2063c04b8d5960e01b5f5260205260405f2090565b9060ff19916001838254161790555f526001602052600160405f2091825416179055610c51610c4c60025461333c565b600255565b5f80516020614e4783398151915260405180610c6f8686868461334f565b0390a1610c7d838383612953565b610c888383836129f5565b613ba0565b346105a55760203660031901126105a557600435610caa81610594565b60018060a01b03165f526005602052602060ff60405f2054166040519015158152f35b346105a5576108ef610cde36610616565b9160018060a01b03610cf88160115460081c16331461249a565b8116805f525f602052610d1c60405f206338ed173960e01b5f5260205260405f2090565b9060ff19916001838254161790555f526001602052600160405f2091825416179055610d4c610c4c60025461333c565b5f80516020614e4783398151915260405180610d6a8686868461337e565b0390a1610c88838383612a71565b346105a5575f3660031901126105a55760206040516104b08152f35b346105a5576108ef610da5366108af565b6128db565b346105a55760203660031901126105a557600435610dc781610594565b60018060a01b03165f52600c602052602060ff60405f2054166040519015158152f35b346105a5577f1cc7e10cd1d551ab6504f6a15828923f911f4658af4cc1b82aeaab1d8a4ccc4c6106c1610e1c36610616565b60018060a09593951b03610e388160115460081c16331461249a565b83165f52600e60205260405f2060ff19815416905560405193849384612505565b346105a5577f4528ea4d4b1ca7b25fe4843fa8f643b7bbdc91395054ca124e68c761b44f77076106c1610e8b366108f1565b9093915f80516020614de78339815191528560018060a01b0392610ec08460115460081c163314610ebb8161249a565b61249a565b8381165f52600760205260405f20600160ff19825416179055610ee98560405193849384612505565b0390a183165f52600b6020526109e360405f20600160ff19825416179055565b346105a5577f3562181221a42a19ddd03a82dfe06acab1905ceb65cdaf7d86a1d9fec66435526106c1610f3b36610616565b60018060a09593951b03610f578160115460081c16331461249a565b83165f52600660205260405f20600160ff1982541617905560405193849384612505565b60606003198201126105a557600435610f9381610594565b916024356001600160e01b0319811681036105a55791604435906001600160401b0382116105a55761064e916004016105e9565b346105a5575f80516020614e478339815191526106c1610fe636610f7b565b9060018060a09694961b036110038160115460081c16331461249a565b8416805f525f6020526110198660405f206119bb565b9060ff19916001838254161790555f526001602052600160405f209182541617905561104660025461333c565b600255604051948594856134c7565b346105a5577ffaa136302ac223cf7c1146490a741e4520e886fc22d7e759641453f432283d016106c161108736610616565b6011549193916001600160a01b03906110a69060081c8216331461249a565b808416805f5260096020526110d560405f209260ff1993600185825416179055339060115460081c161461249a565b805f525f6020526110f760405f2063559ec80d60e01b5f5260205260405f2090565b6001838254161790555f526001602052600160405f2091825416179055611122610c4c60025461333c565b5f80516020614e4783398151915260405180611140848888846133ad565b0390a161114e818585612aed565b611159818585612b69565b6109e3818585612be5565b346105a55760803660031901126105a55760043561118181610594565b60243561118d81610594565b6044359161119a83610594565b606435926001600160401b0384116105a5576112aa6106c1916111e27f4cd8335923e6c59235dad1eb0d9466176d7e2d5331062745aac072188386d7fe9636906004016105e9565b92909160018060a01b036112028160115460081c163314610ebb8161249a565b8616805f525f60205261122660405f20631592ca1b60e31b5f5260205260405f2090565b9060ff19916001838254161790555f526001602052600160405f2091825416179055611256610c4c60025461333c565b5f80516020614e478339815191526040518061127487878b846133dc565b0390a1611282848489613ba0565b61128b866106c6565b80546001600160a01b0319166001600160a01b03909216919091179055565b6112c36112b6856106df565b805460ff19166001179055565b604051948594856134fa565b346105a5575f80516020614de78339815191526106c16112ee36610616565b6011549193916001600160a01b039061130d9060081c8216331461249a565b83165f52600860205260405f20600160ff1982541617905560405193849384612505565b346105a5576108ef611342366108af565b613523565b346105a5576108ef61135836610616565b91613775565b346105a5576108ef61136f366108f1565b92919091614830565b346105a5576108ef366108af565b346105a5576108ef61139736610616565b9160018060a01b036113b18160115460081c16331461249a565b8116805f525f6020526113d560405f20630c04a8a160e41b5f5260205260405f2090565b9060ff19916001838254161790555f526001602052600160405f2091825416179055611405610c4c60025461333c565b5f80516020614e47833981519152604051806114238686868461340b565b0390a1613afb565b346105a55760203660031901126105a55760043561144881610594565b60018060a01b03165f526009602052602060ff60405f2054166040519015158152f35b346105a55760403660031901126105a55760043561148881610594565b6024356001600160e01b0319811681036105a5576114bb60ff9160209360018060a01b03165f525f845260405f206119bb565b54166040519015158152f35b346105a5575f3660031901126105a5576114df614cc0565b60118054610100600160a81b031981169091555f9060081c6001600160a01b03165f80516020614e078339815191528280a3005b346105a5577f62dd88c5ecfa60713a657640ebec4de26fc1aefa4afdb24e6d15a124fce727796106c161154536610616565b60018060a09593951b036115618160115460081c16331461249a565b83165f52600560205260405f20600160ff1982541617905560405193849384612505565b346105a5575f3660031901126105a55760115460405160089190911c6001600160a01b03168152602090f35b346105a5576108ef6115c2366108af565b613993565b359063ffffffff821682036105a557565b346105a55760203660031901126105a55760043563ffffffff81168091036105a5575f526010602052602060ff60405f2054166040519015158152f35b346105a5576108ef611626366108af565b6139b4565b346105a5576108ef61163c366108af565b613a51565b346105a55760203660031901126105a55760043561165e81610594565b60018060a01b03165f526001602052602060ff60405f2054166040519015158152f35b346105a55761168f36610616565b6040516338d52e0f60e01b815292906020846004816001600160a01b0386165afa9081156117a2576109e381856106c1947fd2851df39115d63968e90113e8b3a96f13e33ac4c2e5a9caa1afeffe59e55748985f91611773575b506116f5838389612c61565b611700838389612cdd565b61170b838389612d59565b611716838389612dd5565b611721838389612e51565b61172c838389612ecc565b611737838389612f48565b611742838389612fc4565b61174d838389613040565b6117588383896130bc565b611763838389613ba0565b61176e838389614cd8565b614cd8565b611795915060203d60201161179b575b61178d81836107de565b810190613adb565b5f6116e9565b503d611783565b613af0565b346105a5575f80516020614e278339815191526106c16117c636610616565b60018060a09593951b036117e28160115460081c16331461249a565b83165f52600360205260405f20600160ff1982541617905560405193849384612505565b346105a5575f3660031901126105a557602060ff601154166040519015158152f35b346105a5577f1212f8ddb39de8e1a339460c95752d61100723efeaa34ccd94bca94393f409386106c161185a36610616565b60018060a09593951b036118768160115460081c16331461249a565b83165f52600660205260405f2060ff19815416905560405193849384612505565b346105a5576108ef6118a8366108af565b613b26565b346105a5575f80516020614de78339815191526106c16118cc36610616565b60018060a09593951b036118e88160115460081c16331461249a565b83165f52600760205260405f20600160ff1982541617905560405193849384612505565b346105a55760203660031901126105a55760043561192981610594565b60018060a01b03165f526003602052602060ff60405f2054166040519015158152f35b346105a5577f3097928509c53a2dab9500431201d82b0d756e8f890fd01f4ae6b33b45687ea46106c161197e36610616565b60018060a09593951b0361199a8160115460081c16331461249a565b83165f52600460205260405f2060ff19815416905560405193849384612505565b9063ffffffff60e01b165f5260205260405f2090565b346105a55760203660031901126105a55760206004356119f081610594565b60018060a01b038091165f52600d825260405f205416604051908152f35b346105a5575f3660031901126105a5576020600254604051908152f35b5f5b838110611a3c5750505f910152565b8181015183820152602001611a2d565b90602091611a6581518092818552858086019101611a2b565b601f01601f1916010190565b6020808201906020835283518092526040830192602060408460051b8301019501935f915b848310611aa65750505050505090565b9091929394958480611ac4600193603f198682030187528a51611a4c565b9801930193019194939290611a96565b60203660031901126105a5576001600160401b0360048035908282116105a557366023830112156105a55781600401359283116105a5576024906024830192602436918660051b0101116105a557611b2b84613bcb565b935f5b818110611b475760405180611b438882611a71565b0390f35b5f80611b54838589613c14565b60409391611b66855180938193613c55565b0390305af490611b74613c62565b9115611b9b575090600191611b8982896136ce565b52611b9481886136ce565b5001611b2e565b84828760448251106105a5578181611bbe9285611bd39501518301019101613cc6565b925162461bcd60e51b81529283928301613cfc565b0390fd5b346105a55760203660031901126105a5576108ef600435611bf781610594565b613d0d565b346105a55760203660031901126105a557600435611c1981610594565b60018060a01b03165f52600b602052602060ff60405f2054166040519015158152f35b9060406003198301126105a55760043563ffffffff811681036105a55791602435906001600160401b0382116105a55761064e916004016105e9565b346105a5577f1032cb8f3d65d1f2761007cb8b0ca5365671ee20a8efa21ecae1a8dfbca5b7a56106c1611caa36611c3c565b611cc560018060a09694961b0360115460081c16331461249a565b63ffffffff83165f52601060205260405f2060ff19815416905560405193849384613d67565b346105a55760203660031901126105a557600435611d0881610594565b60018060a01b03165f526004602052602060ff60405f2054166040519015158152f35b801515036105a557565b346105a55760403660031901126105a557600435611d5281611d2b565b6024356001600160401b0381116105a5577f50454d9d0025a28a39cac5a4b3f3101d29b6e413fbb64f75fb42eb6837b0771891611d966106c19236906004016105e9565b929060115492611db23360018060a01b038660081c161461249a565b15159260ff84169060ff19161760115560405193849384526040602085015260408401916124e5565b346105a55760203660031901126105a5576020610b83600435611dfd81610594565b613d84565b346105a55760203660031901126105a5576020610b83600435611e2481610594565b613db4565b346105a5576108ef611e3a366108af565b613dd1565b346105a5577f37ea10f2d08f5a9803dfcd5abf3cfc7b0d6fcdf5fcbc36be9ea5a0b53d9a4d9b6106c1611e7136610f7b565b9060018060a09694961b03611e8e8160115460081c16331461249a565b84165f525f602052611ea38560405f206119bb565b805460ff19169055604051948594856134c7565b346105a5577fefc511aabde7c4d22a66bc3bc12740a348cb98d9f7f433d6768ae8c1ab0e3cb86106c1611ee936610616565b60018060a09593951b03611f058160115460081c16331461249a565b83165f52600e60205260405f20600160ff1982541617905560405193849384612505565b346105a5576108ef611f3a36610616565b9160018060a01b03611f548160115460081c16331461249a565b8116805f525f602052611f7860405f20632df4869b60e01b5f5260205260405f2090565b9060ff19916001838254161790555f526001602052600160405f2091825416179055611fa8610c4c60025461333c565b5f80516020614e4783398151915260405180611fc68686868461343a565b0390a1611fd4838383613138565b610c888383836131b4565b346105a5577f9fc3f914bc6770a3679a6a9fdb4620f0566db329f178fb033fc0c6dcce1b693d6106c161201136611c3c565b61202c60018060a09694961b0360115460081c16331461249a565b63ffffffff83165f52601060205260405f20600160ff1982541617905560405193849384613d67565b346105a5576108ef612078612069366108af565b60208082518301019101613e07565b602081015161209890612093906001600160a01b0316613db4565b612527565b5161281d565b346105a5576108ef6120af366108af565b613e95565b346105a5577f9efd66cbdaa05f6414ab9c4ae71d358b087e972c11874e7c3e9c7c79c61e23aa6106c16120e636610616565b60018060a09593951b036121068160115460081c163314610ebb8161249a565b8316805f525f60205261212a60405f20634701287760e11b5f5260205260405f2090565b9060ff19916001838254161790555f526001602052600160405f209182541617905561215a610c4c60025461333c565b5f80516020614e478339815191526040518061217884888884613469565b0390a1612186818585613ba0565b6001600160a01b0383165f908152600f602052604090206109e3906112b6565b346105a5576108ef6121b736610616565b91614cd8565b346105a5576108ef6121ce36610616565b9160018060a01b036121e88160115460081c16331461249a565b8116805f525f60205261220c60405f2063617ba03760e01b5f5260205260405f2090565b9060ff19916001838254161790555f526001602052600160405f209182541617905561223c610c4c60025461333c565b5f80516020614e478339815191526040518061225a86868684613498565b0390a1610c88838383613230565b346105a5577ff9a414ea26a64e12a2abdb23706ec196a42adeb564668fb73f46555fbd2336c26106c161229a36610616565b6011549193916001600160a01b03906122b99060081c8216331461249a565b83165f52600860205260405f2060ff19815416905560405193849384612505565b346105a55760203660031901126105a5576004356122f781610594565b6122ff614cc0565b6001600160a01b0381811691821561234a5760118054610100600160a81b03198116600893841b610100600160a81b031617909155901c165f80516020614e078339815191525f80a3005b60405162461bcd60e51b815260206004820152602660248201527f4f776e61626c653a206e6577206f776e657220697320746865207a65726f206160448201526564647265737360d01b6064820152608490fd5b346105a5577f9ca3f065622f5f03f32b7157677a0e420c3a36ab45fd49f256ffebce3e3105876106c16123d036610616565b60018060a09593951b036123ec8160115460081c16331461249a565b83165f52600360205260405f2060ff19815416905560405193849384612505565b346105a5577fa8f9caaf4861720900294428e4ff34d37070c37afd26d96e6e4da75326d2c3ad6106c161243f36610616565b60018060a09593951b0361245b8160115460081c16331461249a565b83165f52600460205260405f20600160ff1982541617905560405193849384612505565b346105a5575f3660031901126105a557602060405160018152f35b156124a157565b606460405162461bcd60e51b815260206004820152602060248201527f4f776e61626c653a2063616c6c6572206973206e6f7420746865206f776e65726044820152fd5b908060209392818452848401375f828201840152601f01601f1916010190565b6001600160a01b0390911681526040602082018190526108ac939101916124e5565b1561252e57565b60405162461bcd60e51b8152602060048201526018602482015277149958d95a5d995c881b9bdd081dda1a5d195b1a5cdd195960421b6044820152606490fd5b6080818051810103126105a557612596608060608301519261258f84610594565b0151610594565b6001600160a01b03165f908152600560205260409020546125b99060ff16612527565b565b156125c257565b60405162461bcd60e51b815260206004820152601c60248201527b10d0d5140819195cdd1a5b985d1a5bdb881b9bdd08185b1b1bddd95960221b6044820152606490fd5b1561260d57565b60405162461bcd60e51b815260206004820152601b60248201527a10d0d51408189d5c9b881d1bdad95b881b9bdd08185b1b1bddd959602a1b6044820152606490fd5b1561265757565b60405162461bcd60e51b815260206004820152601f60248201527f43435450206d696e7420726563697069656e74206e6f7420616c6c6f776564006044820152606490fd5b909160018060a01b038092165f52600f60205260ff60405f20541615612745578260e091810103126105a55761272181604084612738612733612740966126e860206125b99a016115c7565b61272d61272861272160608801359361270085610594565b61270c60c08a016115c7565b5063ffffffff165f52601060205260405f2090565b5460ff1690565b6125bb565b16613d84565b612606565b0135166106f8565b612650565b60405162461bcd60e51b815260206004820152601a60248201527910d0d514081b595cdcd95b99d95c881b9bdd08185b1b1bddd95960321b6044820152606490fd5b91908260409103126105a557602082516127a081610594565b92015190565b6127b99060208082518301019101612787565b506001600160a01b03165f908152600660205260409020546125b99060ff16612527565b156127e457565b60405162461bcd60e51b8152602060048201526011602482015270151bdad95b881b9bdd08185b1b1bddd959607a1b6044820152606490fd5b601461282c8183511015614d89565b60208083015160601c91601784511061287157505061285761285c91611dfd612857611dfd86614dcd565b6127dd565b805160421161286e57610a2d90613ed5565b50565b606492506040519162461bcd60e51b83526004830152602482015273746f55696e7432345f6f75744f66426f756e647360601b6044820152fd5b60ff601154169081156128bc575090565b6001600160a01b03165f908152600e602052604090205460ff16919050565b6128ee9060208082518301019101612787565b506001600160a01b03165f9081526007602052604090205460ff161561291057565b60405162461bcd60e51b815260206004820152601b60248201527a105c1c1c9bdd99481859191c995cdcc81b9bdd08185b1b1bddd959602a1b6044820152606490fd5b906129f05f80516020614e47833981519152939260018060a01b03906129818260115460081c16331461249a565b1691825f525f60205260405f2093631e51809360e31b94855f5260205260405f2060ff1990600182825416179055845f526001602052600160405f20918254161790556129cf60025461333c565b600255604051948594855260208501526060604085015260608401916124e5565b0390a1565b906129f05f80516020614e47833981519152939260018060a01b0390612a238260115460081c16331461249a565b1691825f525f60205260405f209363b858183f60e01b94855f5260205260405f2060ff1990600182825416179055845f526001602052600160405f20918254161790556129cf60025461333c565b906129f05f80516020614e47833981519152939260018060a01b0390612a9f8260115460081c16331461249a565b1691825f525f60205260405f2093635c11d79560e01b94855f5260205260405f2060ff1990600182825416179055845f526001602052600160405f20918254161790556129cf60025461333c565b906129f05f80516020614e47833981519152939260018060a01b0390612b1b8260115460081c16331461249a565b1691825f525f60205260405f209363a03d55e360e01b94855f5260205260405f2060ff1990600182825416179055845f526001602052600160405f20918254161790556129cf60025461333c565b906129f05f80516020614e47833981519152939260018060a01b0390612b978260115460081c16331461249a565b1691825f525f60205260405f209363692652c560e11b94855f5260205260405f2060ff1990600182825416179055845f526001602052600160405f20918254161790556129cf60025461333c565b906129f05f80516020614e47833981519152939260018060a01b0390612c138260115460081c16331461249a565b1691825f525f60205260405f2093635313efb360e11b94855f5260205260405f2060ff1990600182825416179055845f526001602052600160405f20918254161790556129cf60025461333c565b906129f05f80516020614e47833981519152939260018060a01b0390612c8f8260115460081c16331461249a565b1691825f525f60205260405f2093636e553f6560e01b94855f5260205260405f2060ff1990600182825416179055845f526001602052600160405f20918254161790556129cf60025461333c565b906129f05f80516020614e47833981519152939260018060a01b0390612d0b8260115460081c16331461249a565b1691825f525f60205260405f2093632d182be560e21b94855f5260205260405f2060ff1990600182825416179055845f526001602052600160405f20918254161790556129cf60025461333c565b906129f05f80516020614e47833981519152939260018060a01b0390612d878260115460081c16331461249a565b1691825f525f60205260405f2093635d043b2960e11b94855f5260205260405f2060ff1990600182825416179055845f526001602052600160405f20918254161790556129cf60025461333c565b906129f05f80516020614e47833981519152939260018060a01b0390612e038260115460081c16331461249a565b1691825f525f60205260405f2093638dbdbe6d60e01b94855f5260205260405f2060ff1990600182825416179055845f526001602052600160405f20918254161790556129cf60025461333c565b906129f05f80516020614e47833981519152939260018060a01b0390612e7f8260115460081c16331461249a565b1691825f525f60205260405f209362b4d4cb60e11b94855f5260205260405f2060ff1990600182825416179055845f526001602052600160405f20918254161790556129cf60025461333c565b906129f05f80516020614e47833981519152939260018060a01b0390612efa8260115460081c16331461249a565b1691825f525f60205260405f2093630b8b4a6160e21b94855f5260205260405f2060ff1990600182825416179055845f526001602052600160405f20918254161790556129cf60025461333c565b906129f05f80516020614e47833981519152939260018060a01b0390612f768260115460081c16331461249a565b1691825f525f60205260405f2093633ea0e43760e11b94855f5260205260405f2060ff1990600182825416179055845f526001602052600160405f20918254161790556129cf60025461333c565b906129f05f80516020614e47833981519152939260018060a01b0390612ff28260115460081c16331461249a565b1691825f525f60205260405f20936319792d1d60e11b94855f5260205260405f2060ff1990600182825416179055845f526001602052600160405f20918254161790556129cf60025461333c565b906129f05f80516020614e47833981519152939260018060a01b039061306e8260115460081c16331461249a565b1691825f525f60205260405f20936385b77f4560e01b94855f5260205260405f2060ff1990600182825416179055845f526001602052600160405f20918254161790556129cf60025461333c565b906129f05f80516020614e47833981519152939260018060a01b03906130ea8260115460081c16331461249a565b1691825f525f60205260405f209363a8abe90560e01b94855f5260205260405f2060ff1990600182825416179055845f526001602052600160405f20918254161790556129cf60025461333c565b906129f05f80516020614e47833981519152939260018060a01b03906131668260115460081c16331461249a565b1691825f525f60205260405f209363322dda6d60e01b94855f5260205260405f2060ff1990600182825416179055845f526001602052600160405f20918254161790556129cf60025461333c565b906129f05f80516020614e47833981519152939260018060a01b03906131e28260115460081c16331461249a565b1691825f525f60205260405f2093634c61684360e11b94855f5260205260405f2060ff1990600182825416179055845f526001602052600160405f20918254161790556129cf60025461333c565b906129f05f80516020614e47833981519152939260018060a01b039061325e8260115460081c16331461249a565b1691825f525f60205260405f2093631a4ca37b60e21b94855f5260205260405f2060ff1990600182825416179055845f526001602052600160405f20918254161790556129cf60025461333c565b906129f05f80516020614e47833981519152939260018060a01b03906132da8260115460081c16331461249a565b1691825f525f60205260405f209363095ea7b360e01b94855f5260205260405f2060ff1990600182825416179055845f526001602052600160405f20918254161790556129cf60025461333c565b634e487b7160e01b5f52601160045260245ffd5b5f19811461334a5760010190565b613328565b6001600160a01b03909116815263c04b8d5960e01b60208201526060604082018190526108ac939101916124e5565b6001600160a01b0390911681526338ed173960e01b60208201526060604082018190526108ac939101916124e5565b6001600160a01b03909116815263559ec80d60e01b60208201526060604082018190526108ac939101916124e5565b6001600160a01b039091168152631592ca1b60e31b60208201526060604082018190526108ac939101916124e5565b6001600160a01b039091168152630c04a8a160e41b60208201526060604082018190526108ac939101916124e5565b6001600160a01b039091168152632df4869b60e01b60208201526060604082018190526108ac939101916124e5565b6001600160a01b039091168152634701287760e11b60208201526060604082018190526108ac939101916124e5565b6001600160a01b03909116815263617ba03760e01b60208201526060604082018190526108ac939101916124e5565b6001600160a01b0390911681526001600160e01b031990911660208201526060604082018190526108ac939101916124e5565b6001600160a01b039182168152911660208201526060604082018190526108ac939101916124e5565b6060818051810103126105a557606060208201519161354183610594565b015161354c81610594565b6001600160a01b039161356490612857908416613d84565b165f5260056020526125b960ff60405f205416612527565b1561358357565b60405162461bcd60e51b815260206004820152601660248201527511d356081c9bdd5d195c881b9bdd08185b1b1bddd95960521b6044820152606490fd5b156135c857565b60405162461bcd60e51b815260206004820152601d60248201527f474d58206f726465725661756c74206e6f7420636f6e666967757265640000006044820152606490fd5b6001600160401b0381116107d95760051b60200190565b9060209081838203126105a5576001600160401b03928035908482116105a5570181601f820112156105a557803561365b8161360d565b9461366960405196876107de565b818652848087019260051b840101938085116105a557858401925b858410613695575050505050505090565b83358381116105a55787916136af848480948a0101610891565b815201930192613684565b634e487b7160e01b5f52603260045260245ffd5b80518210156136e25760209160051b010190565b6136ba565b156136ee57565b60405162461bcd60e51b815260206004820152601360248201527211d3560e8818d85b1b081d1bdbc81cda1bdc9d606a1b6044820152606490fd5b8051156136e25760200190565b8051600110156136e25760210190565b8051600210156136e25760220190565b8051600310156136e25760230190565b60031981019190821161334a57565b906137a961379c6137c693959495613797613792612721836106df565b61357c565b6106c6565b546001600160a01b031690565b936137be6001600160a01b03861615156135c1565b810190613624565b915f5b835181101561398d578160046137ec816137e385896136ce565b515110156136e7565b6138206138136138056137ff868a6136ce565b51613729565b516001600160f81b03191690565b6001600160f81b03191690565b61384a61383c613813613805613836888c6136ce565b51613736565b60081c62ffffff60e01b1690565b17613874613867613813613805613861888c6136ce565b51613746565b60101c61ffff60e01b1690565b1761389d61389161381361380561388b888c6136ce565b51613756565b60181c60ff60e01b1690565b17906138c76138ac85896136ce565b516138c16138ba878b6136ce565b5151613766565b90613ffd565b916001600160e01b031916637d39aaf160e01b81036138f5575050600192916138ef9161465b565b016137c9565b631cdacd5960e31b8103613917575050600192916139129161457a565b6138ef565b9192509063f59c48eb60e01b036139355750906139126001926144cf565b611bd39060405191829162461bcd60e51b8352820160809060208152602260208201527f474d583a20556e6b6e6f776e2066756e6374696f6e20696e206d756c746963616040820152611b1b60f21b60608201520190565b50509050565b6060818051810103126105a557612596606060408301519261258f84610594565b6060818051810103126105a5576060015161259681610594565b51906125b982610594565b9080601f830112156105a5578151906020916139f48161360d565b93613a0260405195866107de565b81855260208086019260051b8201019283116105a557602001905b828210613a2b575050505090565b8380918351613a3981610594565b815201910190613a1d565b516001600160a01b031690565b908151820160a0838203126105a55760608301516001600160401b0381116105a5576127216080613a9061209393602080613aaa9701918901016139d9565b950151613a9c81610594565b6001600160a01b03166106f8565b5f5b8251811015613ad65780613ad0612857611dfd613acb600195886136ce565b613a44565b01613aac565b509050565b908160209103126105a557516108ac81610594565b6040513d5f823e3d90fd5b6129f05f80516020614e278339815191529360018060a01b036117e28160115460081c16331461249a565b613b399060208082518301019101612787565b506001600160a01b03165f9081526008602052604090205460ff1615613b5b57565b60405162461bcd60e51b815260206004820152601e60248201527f44656c65676174696f6e2061646472657373206e6f7420616c6c6f77656400006044820152606490fd5b6129f05f80516020614de78339815191529360018060a01b036118e88160115460081c16331461249a565b90613bd58261360d565b613be260405191826107de565b8281528092613bf3601f199161360d565b01905f5b828110613c0357505050565b806060602080938501015201613bf7565b91908110156136e25760051b81013590601e19813603018212156105a55701803591906001600160401b0383116105a55760200182360381136105a5579190565b908092918237015f815290565b3d15613c8c573d90613c7382610840565b91613c8160405193846107de565b82523d5f602084013e565b606090565b90929192613c9e81610840565b91613cac60405193846107de565b8294828452828201116105a55760206125b9930190611a2b565b6020818303126105a5578051906001600160401b0382116105a557019080601f830112156105a55781516108ac92602001613c91565b9060206108ac928181520190611a4c565b6001600160a01b03165f9081526009602052604090205460ff1615613d2e57565b60405162461bcd60e51b815260206004820152601160248201527015985d5b1d081b9bdd08185b1b1bddd959607a1b6044820152606490fd5b60409063ffffffff6108ac959316815281602082015201916124e5565b60ff60115416908115613d95575090565b6001600160a01b03165f9081526003602052604090205460ff16919050565b6001600160a01b03165f9081526005602052604090205460ff1690565b6080818051810103126105a55761285781613df9606060206125b99501519261258f84610594565b6001600160a01b0316613d84565b906020828203126105a55781516001600160401b03928382116105a5570160a0818303126105a55760405192613e3c846107be565b81519081116105a557810182601f820112156105a557608092816020613e6493519101613c91565b8352613e72602082016139ce565b602084015260408101516040840152606081015160608401520151608082015290565b6120786125b99160208082518301019101613e07565b90601f820180921161334a57565b601701908160171161334a57565b600401908160041161334a57565b8051601619918282019082821161334a57613efa82613ef381613eab565b1015613f80565b613f086017613ef384613eb9565b613f1d8151613f1684613eb9565b1115613fbd565b81613f3657505050506040515f81526020810160405290565b601760405194601f8416801560051b9182828901019687010193010101905b808410613f6d5750508252601f01601f191660405290565b9092835181526020809101930190613f55565b15613f8757565b60405162461bcd60e51b815260206004820152600e60248201526d736c6963655f6f766572666c6f7760901b6044820152606490fd5b15613fc457565b60405162461bcd60e51b8152602060048201526011602482015270736c6963655f6f75744f66426f756e647360781b6044820152606490fd5b61400a82613ef381613eab565b6140186004613ef384613ec7565b6140268151613f1684613ec7565b8161403d5750506040515f81526020810160405290565b60405191601f8116916004831560051b80858701019484860193010101905b8084106140745750508252601f01601f191660405290565b909283518152602080910193019061405c565b91909160e0818403126105a55761409c610801565b926140a6826139ce565b84526140b4602083016139ce565b60208501526140c5604083016139ce565b60408501526140d6606083016139ce565b60608501526140e7608083016139ce565b60808501526140f860a083016139ce565b60a085015260c08201516001600160401b0381116105a55761411a92016139d9565b60c0830152565b80929161010091829103126105a5576040519081016001600160401b038111828210176107d95760405260e0808294805184526020810151602085015260408101516040850152606081015160608501526080810151608085015260a081015160a085015260c081015160c08501520151910152565b519060ff821682036105a557565b51906125b982611d2b565b9080601f830112156105a5578151906020916141cb8161360d565b936141d960405195866107de565b81855260208086019260051b8201019283116105a557602001905b828210614202575050505090565b815181529083019083016141f4565b906020828203126105a55781516001600160401b03928382116105a5570190610200828203126105a557614243610820565b9282518181116105a55782614259918501614087565b84526142688260208501614121565b602085015261427a6101208401614197565b604085015261428c6101408401614197565b606085015261429e61016084016141a5565b60808501526142b061018084016141a5565b60a08501526142c26101a084016141a5565b60c08501526101c083015160e08501526101e08301519081116105a5576142e992016141b0565b61010082015290565b156142f957565b60405162461bcd60e51b815260206004820152602960248201527f474d58206372656174654f726465723a207265636569766572206e6f742077686044820152681a5d195b1a5cdd195960ba1b6064820152608490fd5b1561435757565b60405162461bcd60e51b815260206004820152603560248201527f474d58206372656174654f726465723a2063616e63656c6c6174696f6e526563604482015274195a5d995c881b9bdd081dda1a5d195b1a5cdd1959605a1b6064820152608490fd5b156143c157565b60405162461bcd60e51b815260206004820152602360248201527f474d58206372656174654f726465723a206d61726b6574206e6f7420616c6c6f6044820152621dd95960ea1b6064820152608490fd5b1561441957565b60405162461bcd60e51b815260206004820152602760248201527f474d58206372656174654f726465723a20636f6c6c61746572616c206e6f7420604482015266185b1b1bddd95960ca1b6064820152608490fd5b1561447557565b60405162461bcd60e51b815260206004820152602c60248201527f474d58206372656174654f726465723a207377617050617468206d61726b657460448201526b081b9bdd08185b1b1bddd95960a21b6064820152608490fd5b6144e29060208082518301019101614211565b6144f76144f2611e248351613a44565b6142f2565b61450f61450a611e246020845101613a44565b614350565b614527614522610b7e6080845101613a44565b6143ba565b61453f61453a611dfd60a0845101613a44565b614412565b5f5b60c0825101518051821015614575578161456d614568610b7e613acb60c0966001966136ce565b61446e565b019050614541565b505050565b906060828051810103126105a557604060208301519261459984610594565b01516145a481610594565b6001600160a01b0391821690821603614617576145c19116613d84565b156145c857565b60405162461bcd60e51b815260206004820152602160248201527f474d582073656e64546f6b656e733a20746f6b656e206e6f7420616c6c6f77656044820152601960fa1b6064820152608490fd5b606460405162461bcd60e51b815260206004820152602060248201527f474d582073656e64546f6b656e733a20696e76616c69642072656365697665726044820152fd5b61466e9060208082518301019101612787565b506001600160a01b0391821691160361468357565b60405162461bcd60e51b815260206004820152601d60248201527f474d582073656e64576e743a20696e76616c69642072656365697665720000006044820152606490fd5b156146cf57565b60405162461bcd60e51b815260206004820152601260248201527114d95b99195c881b9bdd08185b1b1bddd95960721b6044820152606490fd5b906004116105a55790600490565b90929192836004116105a55783116105a557600401916003190190565b6001600160e01b0319903581811693926004811061475157505050565b60040360031b82901b16169150565b1561476757565b60405162461bcd60e51b815260206004820152601260248201527115185c99d95d081b9bdd08185b1b1bddd95960721b6044820152606490fd5b156147a857565b60405162461bcd60e51b815260206004820152601460248201527314d95b1958dd1bdc881b9bdd08185b1b1bddd95960621b6044820152606490fd5b156147eb57565b60405162461bcd60e51b815260206004820152601e60248201527f53776170526f75746572303220726571756972657320616e79417373657400006044820152606490fd5b60115492906001600160a01b03808216600886901c90911614614cb9576001600160a01b03165f90815260046020526040902060ff946148969161487c9061487790612721565b6146c8565b8061489061488a8286614709565b90614734565b93614717565b94909316908180614c9f575b15614c38575b6001600160e01b0319166338ed173960e01b81036148d25750505061163c906125b992369161085b565b635c11d79560e01b81036148f25750505061163c906125b992369161085b565b63c04b8d5960e01b8103614912575050506120af906125b992369161085b565b919390929163b858183f60e01b8103614932575050506125b991506147e4565b9192509063a9059cbb60e01b810361495657506125b9925090610a1791369161085b565b63095ea7b360e01b810361497657506125b9925090610da591369161085b565b630c04a8a160e41b810361499657506125b99250906118a891369161085b565b63617ba03760e01b81036149b657506125b9925090611e3a91369161085b565b631a4ca37b60e21b81036149d657506125b992509061134291369161085b565b63559ec80d60e01b81036149f0575050506125b990613d0d565b63a03d55e360e01b8103614a0a575050506125b990613d0d565b63692652c560e11b8103614a24575050506125b990613d0d565b635313efb360e11b8103614a3e575050506125b990613d0d565b636e553f6560e01b81148015614c28575b15614a5b575b50505050565b638dbdbe6d60e01b8103614a845750614a7b92509061162691369161085b565b5f808080614a55565b62b4d4cb60e11b8103614aa85750614aa39250906108ea91369161085b565b614a7b565b632d182be560e21b8103614ac85750614aa39250906115c291369161085b565b635d043b2960e11b8103614ae85750614aa39250906115c291369161085b565b633ea0e43760e11b8103614b085750614aa39250906115c291369161085b565b6319792d1d60e11b8103614b285750614aa39250906115c291369161085b565b637a4880bb60e01b8101614b40575b50505050614a7b565b63575416fb60e01b810115614b3757632df4869b60e01b8103614b755750614b6a9250369161085b565b505b5f808080614b37565b63322dda6d60e01b8103614b965750614b909250369161085b565b50614b6c565b634c61684360e11b8103614bb15750614b909250369161085b565b909190631592ca1b60e31b8103614bd15750614bcc92613775565b614b6c565b634701287760e11b03614be757614bcc9261269c565b60405162461bcd60e51b81526020600482015260196024820152782ab735b737bbb710333ab731ba34b7b71039b2b632b1ba37b960391b6044820152606490fd5b50630b8b4a6160e21b8114614a4f565b614c54614c5061272183614c4b87610711565b6119bb565b1590565b156148a8576001600160a01b0383165f908152600160205260409020614c8290614c7d90612721565b614760565b614c9a614c9561272183614c4b87610711565b6147a1565b6148a8565b506001600160e01b0319811663095ea7b360e01b146148a2565b5050505050565b6125b960018060a01b0360115460081c16331461249a565b906125b992915f80516020614e4783398151915260018060a01b03614d058160115460081c16331461249a565b8216805f525f60205260405f2063a9059cbb60e01b90815f5260205260405f2060ff1990600182825416179055825f526001602052600160405f2091825416179055614d5260025461333c565b60025560405191825260208201526060604082015280614d766060820187876124e5565b0390a1614d848383836132ac565b613afb565b15614d9057565b60405162461bcd60e51b8152602060048201526015602482015274746f416464726573735f6f75744f66426f756e647360581b6044820152606490fd5b603790614dde602b82511015614d89565b015160601c9056fe628a44970c0e450415e3ae74334ea44f3307b74dbf677a1371190242bf2f35898be0079c531659141344cd1fd0a4f28419497f9722a3daafe3b4186f6b6457e0ad90e2570fc4fe9f7437be3188d5c791c6662892d31731992aa88f5c87621983ef729aaa41b9fd994f9ff7c1960df214a84f722002e6cfbea31799cd0873a3efa2646970667358221220de4e9380294ce99d3589a63b1ecd9c75f2bacd70401b9a28d92be79246ac89ee64736f6c63430008170033","linkReferences":{}},"methodIdentifiers":{"_SIGN_COOLDOWN()":"3ffb788e","allowApprovalDestination(address,string)":"98b3cc39","allowAsset(address,string)":"86b6dbe5","allowCallSite(address,bytes4,string)":"5e4ccace","allowDelegationApprovalDestination(address,string)":"63cc17f2","allowReceiver(address,string)":"72e548a9","allowSender(address,string)":"fa2c59c8","allowWithdrawDestination(address,string)":"5ace1d92","allowedApprovalDestinations(address)":"eb0de042","allowedAssets(address)":"a4c1cccb","allowedCCTPDestinations(uint32)":"7cac69c3","allowedCCTPMessengers(address)":"07605342","allowedCallSites(address,bytes4)":"a847cf4d","allowedCowSwaps(address)":"47566064","allowedDelegationApprovalDestinations(address)":"4b941268","allowedGMXMarkets(address)":"0985b046","allowedGMXRouters(address)":"4c03f1f8","allowedLagoonVaults(address)":"8fb4dff2","allowedReceivers(address)":"3cf20025","allowedSenders(address)":"fadbcf48","allowedTargets(address)":"b8fe8d5f","allowedVeloraSwappers(address)":"b45ea48b","allowedWithdrawDestinations(address)":"07ef00cf","anyAsset()":"87301608","callSiteCount()":"a9fc3d4f","getGovernanceAddress()":"73252494","getInternalVersion()":"fdedfa27","gmxOrderVaults(address)":"a86ddc57","isAllowedApprovalDestination(address)":"1d49039c","isAllowedAsset(address)":"c537bed0","isAllowedCCTPDestination(uint32)":"748fca46","isAllowedCCTPMessenger(address)":"0411fb8e","isAllowedCallSite(address,bytes4)":"713ebf3b","isAllowedCowSwap(address)":"333f22e8","isAllowedDelegationApprovalDestination(address)":"2dc32a61","isAllowedGMXMarket(address)":"2e31e9c6","isAllowedGMXRouter(address)":"cbdb1dcf","isAllowedLagoonVault(address)":"6fd7fdef","isAllowedReceiver(address)":"d075f9bb","isAllowedSender(address)":"be8c97b0","isAllowedTarget(address)":"78addb48","isAllowedVeloraSwapper(address)":"f84756aa","isAllowedWithdrawDestination(address)":"efb47bff","multicall(bytes[])":"ac9650d8","owner()":"8da5cb5b","removeApprovalDestination(address,string)":"04a3ba25","removeAsset(address,string)":"f901dc33","removeCCTPDestination(uint32,string)":"ba44ad41","removeCallSite(address,bytes4,string)":"d7334c9d","removeDelegationApprovalDestination(address,string)":"f259a073","removeGMXMarket(address,string)":"4d3d31ca","removeReceiver(address,string)":"2d12d788","removeSender(address,string)":"a67e1f54","removeWithdrawDestination(address,string)":"8c2fdf9e","renounceOwnership()":"715018a6","setAnyAssetAllowed(bool,string)":"c2e657ae","transferOwnership(address)":"f2fde38b","validateCall(address,address,bytes)":"6d5025f1","validateUniswapV3Path(bytes)":"1c123e77","validate_ERC4626Deposit(address,bytes)":"2c02cda0","validate_ERC4626Redeem(bytes)":"742bfc7e","validate_ERC4626Withdraw(bytes)":"78065086","validate_UmamiDeposit(bytes)":"74fb77fe","validate_UmamiRedeem(bytes)":"0c260a7b","validate_aaveSupply(bytes)":"d4c0fe45","validate_aaveWithdraw(bytes)":"6a6d5cc8","validate_approve(bytes)":"4b956bd8","validate_approveDelegation(bytes)":"957dc6c0","validate_cctpDepositForBurn(address,bytes)":"1561149f","validate_cowSwapSettlement(bytes)":"adcfa55b","validate_exactInput(bytes)":"ebe26816","validate_exactOutput(bytes)":"e98539c5","validate_gmxMulticall(address,bytes)":"6bf9e331","validate_lagoonSettle(address)":"b3c329cb","validate_orderlyDelegateSigner(bytes)":"d718f041","validate_orderlyDeposit(bytes)":"6d5176a6","validate_orderlyWithdraw(bytes)":"912ef02d","validate_swapExactTokensForTokens(bytes)":"761bcd9c","validate_transfer(bytes)":"1710a4f2","whitelistAaveV3(address,string)":"f20e85e0","whitelistCCTP(address,string)":"ec011440","whitelistCCTPDestination(uint32,string)":"e6f32c51","whitelistCowSwap(address,address,string)":"1047789e","whitelistERC4626(address,string)":"86a6ae15","whitelistGMX(address,address,address,string)":"62d6775e","whitelistGMXMarket(address,string)":"d7581509","whitelistLagoon(address,string)":"5e6afe4d","whitelistOrderly(address,string)":"db17a170","whitelistToken(address,string)":"ee5462cc","whitelistTokenForDelegation(address,string)":"6d9a1423","whitelistUniswapV2Router(address,string)":"3ea35551","whitelistUniswapV3Router(address,string)":"34ec8d7e","whitelistVelora(address,address,string)":"4efbad39"},"id":19}