{"abi":[{"type":"constructor","inputs":[],"stateMutability":"nonpayable"},{"type":"function","name":"allowApprovalDestination","inputs":[{"name":"destination","type":"address","internalType":"address"},{"name":"notes","type":"string","internalType":"string"}],"outputs":[],"stateMutability":"nonpayable"},{"type":"function","name":"allowAsset","inputs":[{"name":"asset","type":"address","internalType":"address"},{"name":"notes","type":"string","internalType":"string"}],"outputs":[],"stateMutability":"nonpayable"},{"type":"function","name":"allowCallSite","inputs":[{"name":"target","type":"address","internalType":"address"},{"name":"selector","type":"bytes4","internalType":"bytes4"},{"name":"notes","type":"string","internalType":"string"}],"outputs":[],"stateMutability":"nonpayable"},{"type":"function","name":"allowReceiver","inputs":[{"name":"receiver","type":"address","internalType":"address"},{"name":"notes","type":"string","internalType":"string"}],"outputs":[],"stateMutability":"nonpayable"},{"type":"function","name":"allowSender","inputs":[{"name":"sender","type":"address","internalType":"address"},{"name":"notes","type":"string","internalType":"string"}],"outputs":[],"stateMutability":"nonpayable"},{"type":"function","name":"allowWithdrawDestination","inputs":[{"name":"destination","type":"address","internalType":"address"},{"name":"notes","type":"string","internalType":"string"}],"outputs":[],"stateMutability":"nonpayable"},{"type":"function","name":"allowedApprovalDestinations","inputs":[{"name":"destination","type":"address","internalType":"address"}],"outputs":[{"name":"allowed","type":"bool","internalType":"bool"}],"stateMutability":"view"},{"type":"function","name":"allowedAssets","inputs":[{"name":"token","type":"address","internalType":"address"}],"outputs":[{"name":"allowed","type":"bool","internalType":"bool"}],"stateMutability":"view"},{"type":"function","name":"allowedCallSites","inputs":[{"name":"target","type":"address","internalType":"address"},{"name":"selector","type":"bytes4","internalType":"bytes4"}],"outputs":[{"name":"allowed","type":"bool","internalType":"bool"}],"stateMutability":"view"},{"type":"function","name":"allowedReceivers","inputs":[{"name":"receiver","type":"address","internalType":"address"}],"outputs":[{"name":"allowed","type":"bool","internalType":"bool"}],"stateMutability":"view"},{"type":"function","name":"allowedSenders","inputs":[{"name":"sender","type":"address","internalType":"address"}],"outputs":[{"name":"allowed","type":"bool","internalType":"bool"}],"stateMutability":"view"},{"type":"function","name":"allowedWithdrawDestinations","inputs":[{"name":"destination","type":"address","internalType":"address"}],"outputs":[{"name":"allowed","type":"bool","internalType":"bool"}],"stateMutability":"view"},{"type":"function","name":"callSiteCount","inputs":[],"outputs":[{"name":"","type":"uint256","internalType":"uint256"}],"stateMutability":"view"},{"type":"function","name":"getGovernanceAddress","inputs":[],"outputs":[{"name":"","type":"address","internalType":"address"}],"stateMutability":"view"},{"type":"function","name":"getInternalVersion","inputs":[],"outputs":[{"name":"","type":"uint8","internalType":"uint8"}],"stateMutability":"pure"},{"type":"function","name":"isAllowedApprovalDestination","inputs":[{"name":"receiver","type":"address","internalType":"address"}],"outputs":[{"name":"","type":"bool","internalType":"bool"}],"stateMutability":"view"},{"type":"function","name":"isAllowedAsset","inputs":[{"name":"token","type":"address","internalType":"address"}],"outputs":[{"name":"","type":"bool","internalType":"bool"}],"stateMutability":"view"},{"type":"function","name":"isAllowedCallSite","inputs":[{"name":"target","type":"address","internalType":"address"},{"name":"selector","type":"bytes4","internalType":"bytes4"}],"outputs":[{"name":"","type":"bool","internalType":"bool"}],"stateMutability":"view"},{"type":"function","name":"isAllowedReceiver","inputs":[{"name":"receiver","type":"address","internalType":"address"}],"outputs":[{"name":"","type":"bool","internalType":"bool"}],"stateMutability":"view"},{"type":"function","name":"isAllowedSender","inputs":[{"name":"sender","type":"address","internalType":"address"}],"outputs":[{"name":"","type":"bool","internalType":"bool"}],"stateMutability":"view"},{"type":"function","name":"isAllowedWithdrawDestination","inputs":[{"name":"receiver","type":"address","internalType":"address"}],"outputs":[{"name":"","type":"bool","internalType":"bool"}],"stateMutability":"view"},{"type":"function","name":"owner","inputs":[],"outputs":[{"name":"","type":"address","internalType":"address"}],"stateMutability":"view"},{"type":"function","name":"removeApprovalDestination","inputs":[{"name":"destination","type":"address","internalType":"address"},{"name":"notes","type":"string","internalType":"string"}],"outputs":[],"stateMutability":"nonpayable"},{"type":"function","name":"removeAsset","inputs":[{"name":"asset","type":"address","internalType":"address"},{"name":"notes","type":"string","internalType":"string"}],"outputs":[],"stateMutability":"nonpayable"},{"type":"function","name":"removeCallSite","inputs":[{"name":"target","type":"address","internalType":"address"},{"name":"selector","type":"bytes4","internalType":"bytes4"},{"name":"notes","type":"string","internalType":"string"}],"outputs":[],"stateMutability":"nonpayable"},{"type":"function","name":"removeReceiver","inputs":[{"name":"receiver","type":"address","internalType":"address"},{"name":"notes","type":"string","internalType":"string"}],"outputs":[],"stateMutability":"nonpayable"},{"type":"function","name":"removeSender","inputs":[{"name":"sender","type":"address","internalType":"address"},{"name":"notes","type":"string","internalType":"string"}],"outputs":[],"stateMutability":"nonpayable"},{"type":"function","name":"removeWithdrawDestination","inputs":[{"name":"destination","type":"address","internalType":"address"},{"name":"notes","type":"string","internalType":"string"}],"outputs":[],"stateMutability":"nonpayable"},{"type":"function","name":"renounceOwnership","inputs":[],"outputs":[],"stateMutability":"nonpayable"},{"type":"function","name":"transferOwnership","inputs":[{"name":"newOwner","type":"address","internalType":"address"}],"outputs":[],"stateMutability":"nonpayable"},{"type":"function","name":"validateCall","inputs":[{"name":"sender","type":"address","internalType":"address"},{"name":"target","type":"address","internalType":"address"},{"name":"callDataWithSelector","type":"bytes","internalType":"bytes"}],"outputs":[],"stateMutability":"view"},{"type":"function","name":"validate_approve","inputs":[{"name":"callData","type":"bytes","internalType":"bytes"}],"outputs":[],"stateMutability":"view"},{"type":"function","name":"validate_exactInput","inputs":[{"name":"callData","type":"bytes","internalType":"bytes"}],"outputs":[],"stateMutability":"view"},{"type":"function","name":"validate_exactOutput","inputs":[{"name":"callData","type":"bytes","internalType":"bytes"}],"outputs":[],"stateMutability":"view"},{"type":"function","name":"validate_multicall","inputs":[{"name":"callData","type":"bytes","internalType":"bytes"}],"outputs":[],"stateMutability":"view"},{"type":"function","name":"validate_swapExactTokensForTokens","inputs":[{"name":"callData","type":"bytes","internalType":"bytes"}],"outputs":[],"stateMutability":"view"},{"type":"function","name":"validate_transfer","inputs":[{"name":"callData","type":"bytes","internalType":"bytes"}],"outputs":[],"stateMutability":"view"},{"type":"function","name":"whitelistOnedeltaBrokerProxy","inputs":[{"name":"router","type":"address","internalType":"address"},{"name":"notes","type":"string","internalType":"string"}],"outputs":[],"stateMutability":"nonpayable"},{"type":"function","name":"whitelistToken","inputs":[{"name":"token","type":"address","internalType":"address"},{"name":"notes","type":"string","internalType":"string"}],"outputs":[],"stateMutability":"nonpayable"},{"type":"function","name":"whitelistUniswapV2Router","inputs":[{"name":"router","type":"address","internalType":"address"},{"name":"notes","type":"string","internalType":"string"}],"outputs":[],"stateMutability":"nonpayable"},{"type":"function","name":"whitelistUniswapV3Router","inputs":[{"name":"router","type":"address","internalType":"address"},{"name":"notes","type":"string","internalType":"string"}],"outputs":[],"stateMutability":"nonpayable"},{"type":"event","name":"ApprovalDestinationApproved","inputs":[{"name":"sender","type":"address","indexed":false,"internalType":"address"},{"name":"notes","type":"string","indexed":false,"internalType":"string"}],"anonymous":false},{"type":"event","name":"ApprovalDestinationRemoved","inputs":[{"name":"sender","type":"address","indexed":false,"internalType":"address"},{"name":"notes","type":"string","indexed":false,"internalType":"string"}],"anonymous":false},{"type":"event","name":"AssetApproved","inputs":[{"name":"sender","type":"address","indexed":false,"internalType":"address"},{"name":"notes","type":"string","indexed":false,"internalType":"string"}],"anonymous":false},{"type":"event","name":"AssetRemoved","inputs":[{"name":"sender","type":"address","indexed":false,"internalType":"address"},{"name":"notes","type":"string","indexed":false,"internalType":"string"}],"anonymous":false},{"type":"event","name":"CallSiteApproved","inputs":[{"name":"target","type":"address","indexed":false,"internalType":"address"},{"name":"selector","type":"bytes4","indexed":false,"internalType":"bytes4"},{"name":"notes","type":"string","indexed":false,"internalType":"string"}],"anonymous":false},{"type":"event","name":"CallSiteRemoved","inputs":[{"name":"target","type":"address","indexed":false,"internalType":"address"},{"name":"selector","type":"bytes4","indexed":false,"internalType":"bytes4"},{"name":"notes","type":"string","indexed":false,"internalType":"string"}],"anonymous":false},{"type":"event","name":"OwnershipTransferred","inputs":[{"name":"previousOwner","type":"address","indexed":true,"internalType":"address"},{"name":"newOwner","type":"address","indexed":true,"internalType":"address"}],"anonymous":false},{"type":"event","name":"ReceiverApproved","inputs":[{"name":"sender","type":"address","indexed":false,"internalType":"address"},{"name":"notes","type":"string","indexed":false,"internalType":"string"}],"anonymous":false},{"type":"event","name":"ReceiverRemoved","inputs":[{"name":"sender","type":"address","indexed":false,"internalType":"address"},{"name":"notes","type":"string","indexed":false,"internalType":"string"}],"anonymous":false},{"type":"event","name":"SenderApproved","inputs":[{"name":"sender","type":"address","indexed":false,"internalType":"address"},{"name":"notes","type":"string","indexed":false,"internalType":"string"}],"anonymous":false},{"type":"event","name":"SenderRemoved","inputs":[{"name":"sender","type":"address","indexed":false,"internalType":"address"},{"name":"notes","type":"string","indexed":false,"internalType":"string"}],"anonymous":false},{"type":"event","name":"WithdrawDestinationApproved","inputs":[{"name":"sender","type":"address","indexed":false,"internalType":"address"},{"name":"notes","type":"string","indexed":false,"internalType":"string"}],"anonymous":false},{"type":"event","name":"WithdrawDestinationRemoved","inputs":[{"name":"sender","type":"address","indexed":false,"internalType":"address"},{"name":"notes","type":"string","indexed":false,"internalType":"string"}],"anonymous":false}],"bytecode":{"object":"0x608060405234801561001057600080fd5b5061001a3361001f565b61006f565b600080546001600160a01b038381166001600160a01b0319831681178455604051919092169283917f8be0079c531659141344cd1fd0a4f28419497f9722a3daafe3b4186f6b6457e09190a35050565b61206f8061007e6000396000f3fe608060405234801561001057600080fd5b50600436106102535760003560e01c80638da5cb5b11610146578063d7334c9d116100c3578063efb47bff11610087578063efb47bff146105a8578063f2fde38b146105d9578063f901dc33146105ec578063fa2c59c8146105ff578063fadbcf4814610612578063fdedfa271461063557600080fd5b8063d7334c9d14610539578063e98539c51461054c578063eb0de0421461055f578063ebe2681614610582578063ee5462cc1461059557600080fd5b8063a847cf4d1161010a578063a847cf4d1461049d578063a9fc3d4f146104cb578063be8c97b0146104e2578063c537bed014610513578063d075f9bb1461052657600080fd5b80638da5cb5b1461043057806392476ccd1461044157806398b3cc3914610454578063a4c1cccb14610467578063a67e1f541461048a57600080fd5b80635ace1d92116101d457806372e548a91161019857806372e548a9146103bf57806373252494146103d2578063761bcd9c146103f757806386b6dbe51461040a5780638c2fdf9e1461041d57600080fd5b80635ace1d921461036b5780635e4ccace1461037e5780636d5025f114610391578063713ebf3b146103a4578063715018a6146103b757600080fd5b806334ec8d7e1161021b57806334ec8d7e146102fc578063378ca1671461030f5780633cf20025146103225780633ea35551146103455780634b956bd81461035857600080fd5b806304a3ba251461025857806307ef00cf1461026d5780631710a4f2146102a55780631d49039c146102b85780632d12d788146102e9575b600080fd5b61026b61026636600461193a565b610644565b005b61029061027b36600461198f565b60066020526000908152604090205460ff1681565b60405190151581526020015b60405180910390f35b61026b6102b3366004611a4b565b6106ad565b6102906102c636600461198f565b6001600160a01b031660009081526007602052604090205460ff16151560011490565b61026b6102f736600461193a565b610716565b61026b61030a36600461193a565b610772565b61026b61031d366004611a4b565b6107df565b61029061033036600461198f565b60056020526000908152604090205460ff1681565b61026b61035336600461193a565b610804565b61026b610366366004611a4b565b61082f565b61026b61037936600461193a565b6108bb565b61026b61038c366004611ae8565b61091a565b61026b61039f366004611b4b565b6109b0565b6102906103b2366004611b7c565b610d90565b61026b610dc8565b61026b6103cd36600461193a565b610ddc565b6000546001600160a01b03165b6040516001600160a01b03909116815260200161029c565b61026b610405366004611a4b565b610e3b565b61026b61041836600461193a565b610ed6565b61026b61042b36600461193a565b610f35565b6000546001600160a01b03166103df565b61026b61044f36600461193a565b610f91565b61026b61046236600461193a565b610fe5565b61029061047536600461198f565b60036020526000908152604090205460ff1681565b61026b61049836600461193a565b611044565b6102906104ab366004611b7c565b600160209081526000928352604080842090915290825290205460ff1681565b6104d460025481565b60405190815260200161029c565b6102906104f036600461198f565b6001600160a01b031660009081526004602052604090205460ff16151560011490565b61029061052136600461198f565b6110a0565b61029061053436600461198f565b6110c3565b61026b610547366004611ae8565b6110e6565b61026b61055a366004611a4b565b611159565b61029061056d36600461198f565b60076020526000908152604090205460ff1681565b61026b610590366004611a4b565b61121d565b61026b6105a336600461193a565b6112e1565b6102906105b636600461198f565b6001600160a01b031660009081526006602052604090205460ff16151560011490565b61026b6105e736600461198f565b6113a1565b61026b6105fa36600461193a565b61141a565b61026b61060d36600461193a565b611476565b61029061062036600461198f565b60046020526000908152604090205460ff1681565b6040516001815260200161029c565b61064c6114d5565b6001600160a01b03831660009081526007602052604090819020805460ff19169055517fb71be9befd3ac90c1c9981d3b1161b3c2c6dcd741f13b34061aa251226a802df906106a090859085908590611bda565b60405180910390a1505050565b6000818060200190518101906106c39190611c13565b5090506106ed816001600160a01b031660009081526006602052604090205460ff16151560011490565b6107125760405162461bcd60e51b815260040161070990611c41565b60405180910390fd5b5050565b61071e6114d5565b6001600160a01b03831660009081526005602052604090819020805460ff19169055517f4e13b11ab98e672bd78295ef9cebe764dc617f95decf47d842c25b83abc0c724906106a090859085908590611bda565b6107a48361079d604051806060016040528060338152602001611fd360339139805160209091012090565b848461091a565b6107cf8361079d60405180606001604052806034815260200161200660349139805160209091012090565b6107da838383610fe5565b505050565b6000818060200190518101906107f59190611d41565b90506106ed81602001516110c3565b6107cf8361079d604051806080016040528060438152602001611f9060439139805160209091012090565b6000818060200190518101906108459190611c13565b50905061086f816001600160a01b031660009081526007602052604090205460ff16151560011490565b6107125760405162461bcd60e51b815260206004820152601e60248201527f417070726f7665206164647265737320646f6573206e6f74206d6174636800006044820152606401610709565b6108c36114d5565b6001600160a01b03831660009081526006602052604090819020805460ff19166001179055517f3562181221a42a19ddd03a82dfe06acab1905ceb65cdaf7d86a1d9fec6643552906106a090859085908590611bda565b6109226114d5565b6001600160a01b03841660009081526001602081815260408084206001600160e01b0319881685529091528220805460ff19169091179055600280549161096883611d94565b91905055507fef729aaa41b9fd994f9ff7c1960df214a84f722002e6cfbea31799cd0873a3ef848484846040516109a29493929190611dad565b60405180910390a150505050565b6000546001600160a01b03858116911614610d8a576109ec846001600160a01b031660009081526004602052604090205460ff16151560011490565b610a2d5760405162461bcd60e51b815260206004820152601260248201527114d95b99195c881b9bdd08185b1b1bddd95960721b6044820152606401610709565b6000610a3c6004828486611dec565b610a4591611e16565b9050366000610a578460048188611dec565b91509150610a658684610d90565b610aa95760405162461bcd60e51b815260206004820152601560248201527410d85b1b081cda5d19481b9bdd08185b1b1bddd959605a1b6044820152606401610709565b610ad0604051806080016040528060438152602001611f9060439139805160209091012090565b6001600160e01b031916836001600160e01b03191603610b2e57610b2982828080601f016020809104026020016040519081016040528093929190818152602001838380828437600092019190915250610e3b92505050565b610d86565b610b55604051806060016040528060338152602001611fd360339139805160209091012090565b6001600160e01b031916836001600160e01b03191603610bae57610b2982828080601f01602080910402602001604051908101604052809392919081815260200183838082843760009201919091525061121d92505050565b6040805180820190915260128152716d756c746963616c6c2862797465735b5d2960701b602090910152630a6d35e560e31b6001600160e01b0319841601610c2f57610b2982828080601f0160208091040260200160405190810160405280939291908181526020018383808284376000920191909152506107df92505050565b6040805180820190915260198152787472616e7366657228616464726573732c75696e743235362960381b6020909101526356fa634560e01b6001600160e01b0319841601610cb757610b2982828080601f0160208091040260200160405190810160405280939291908181526020018383808284376000920191909152506106ad92505050565b604080518082019091526018815277617070726f766528616464726573732c75696e743235362960401b60209091015263f6a1584d60e01b6001600160e01b0319841601610d3e57610b2982828080601f01602080910402602001604051908101604052809392919081815260200183838082843760009201919091525061082f92505050565b60405162461bcd60e51b815260206004820152601960248201527f556e6b6e6f776e2066756e6374696f6e2073656c6563746f72000000000000006044820152606401610709565b5050505b50505050565b6001600160a01b03821660009081526001602090815260408083206001600160e01b03198516845290915290205460ff165b92915050565b610dd06114d5565b610dda600061152f565b565b610de46114d5565b6001600160a01b03831660009081526005602052604090819020805460ff19166001179055517f62dd88c5ecfa60713a657640ebec4de26fc1aefa4afdb24e6d15a124fce72779906106a090859085908590611bda565b60008082806020019051810190610e529190611e46565b50935093505050610e62816110c3565b610e7e5760405162461bcd60e51b815260040161070990611c41565b60005b8251811015610d8a576000838281518110610e9e57610e9e611f28565b60200260200101519050610eb1816110a0565b610ecd5760405162461bcd60e51b815260040161070990611f3e565b50600101610e81565b610ede6114d5565b6001600160a01b03831660009081526003602052604090819020805460ff19166001179055517fad90e2570fc4fe9f7437be3188d5c791c6662892d31731992aa88f5c87621983906106a090859085908590611bda565b610f3d6114d5565b6001600160a01b03831660009081526006602052604090819020805460ff19169055517f1212f8ddb39de8e1a339460c95752d61100723efeaa34ccd94bca94393f40938906106a090859085908590611bda565b6040805180820190915260128152716d756c746963616c6c2862797465735b5d2960701b6020909101526107cf837fac9650d882acfa253cba1ed543b9ff47351da99c3bd00a89625e5cdb2099009c61079d565b610fed6114d5565b6001600160a01b03831660009081526007602052604090819020805460ff19166001179055517f628a44970c0e450415e3ae74334ea44f3307b74dbf677a1371190242bf2f3589906106a090859085908590611bda565b61104c6114d5565b6001600160a01b03831660009081526004602052604090819020805460ff19169055517f3097928509c53a2dab9500431201d82b0d756e8f890fd01f4ae6b33b45687ea4906106a090859085908590611bda565b6001600160a01b031660009081526003602052604090205460ff16151560011490565b6001600160a01b031660009081526005602052604090205460ff16151560011490565b6110ee6114d5565b6001600160a01b03841660009081526001602090815260408083206001600160e01b03198716845290915290819020805460ff19169055517f37ea10f2d08f5a9803dfcd5abf3cfc7b0d6fcdf5fcbc36be9ea5a0b53d9a4d9b906109a2908690869086908690611dad565b60008180602001905181019061116f9190611d41565b905061117e81602001516110c3565b61119a5760405162461bcd60e51b815260040161070990611c41565b6000806111aa836000015161157f565b50915091506111b8816110a0565b6111d45760405162461bcd60e51b815260040161070990611f3e565b6111dd826110a0565b6111f95760405162461bcd60e51b815260040161070990611f3e565b8251611204906115bb565b15610d8a578251611214906115f5565b8352505061119a565b6000818060200190518101906112339190611d41565b905061124281602001516110c3565b61125e5760405162461bcd60e51b815260040161070990611c41565b60008061126e836000015161157f565b509150915061127c816110a0565b6112985760405162461bcd60e51b815260040161070990611f3e565b6112a1826110a0565b6112bd5760405162461bcd60e51b815260040161070990611f3e565b82516112c8906115bb565b15610d8a5782516112d8906115f5565b8352505061125e565b6040805180820190915260198152787472616e7366657228616464726573732c75696e743235362960381b60209091015261133c837fa9059cbb2ab09eb219583f4a59a5d0623ade346d962bcd4e46b11da047c9049b61079d565b604080518082019091526018815277617070726f766528616464726573732c75696e743235362960401b602090910152611396837f095ea7b334ae44009aa867bfb386f5c3b4b443ac6f0ee573fa91c4608fbadfba61079d565b6107da838383610ed6565b6113a96114d5565b6001600160a01b03811661140e5760405162461bcd60e51b815260206004820152602660248201527f4f776e61626c653a206e6577206f776e657220697320746865207a65726f206160448201526564647265737360d01b6064820152608401610709565b6114178161152f565b50565b6114226114d5565b6001600160a01b03831660009081526003602052604090819020805460ff19169055517f9ca3f065622f5f03f32b7157677a0e420c3a36ab45fd49f256ffebce3e310587906106a090859085908590611bda565b61147e6114d5565b6001600160a01b03831660009081526004602052604090819020805460ff19166001179055517fa8f9caaf4861720900294428e4ff34d37070c37afd26d96e6e4da75326d2c3ad906106a090859085908590611bda565b6000546001600160a01b03163314610dda5760405162461bcd60e51b815260206004820181905260248201527f4f776e61626c653a2063616c6c6572206973206e6f7420746865206f776e65726044820152606401610709565b600080546001600160a01b038381166001600160a01b0319831681178455604051919092169283917f8be0079c531659141344cd1fd0a4f28419497f9722a3daafe3b4186f6b6457e09190a35050565b6000808061158d8482611626565b925061159a8460146116da565b90506115b26115ab60036014611f69565b8590611626565b91509193909250565b60006115c960036014611f69565b60146115d6600382611f69565b6115e09190611f69565b6115ea9190611f69565b825110159050919050565b6060610dc261160660036014611f69565b61161260036014611f69565b845161161e9190611f7c565b849190611785565b600081611634816014611f69565b10156116775760405162461bcd60e51b8152602060048201526012602482015271746f416464726573735f6f766572666c6f7760701b6044820152606401610709565b611682826014611f69565b835110156116ca5760405162461bcd60e51b8152602060048201526015602482015274746f416464726573735f6f75744f66426f756e647360581b6044820152606401610709565b500160200151600160601b900490565b6000816116e8816003611f69565b101561172a5760405162461bcd60e51b8152602060048201526011602482015270746f55696e7432345f6f766572666c6f7760781b6044820152606401610709565b611735826003611f69565b8351101561177c5760405162461bcd60e51b8152602060048201526014602482015273746f55696e7432345f6f75744f66426f756e647360601b6044820152606401610709565b50016003015190565b60608161179381601f611f69565b10156117d25760405162461bcd60e51b815260206004820152600e60248201526d736c6963655f6f766572666c6f7760901b6044820152606401610709565b826117dd8382611f69565b101561181c5760405162461bcd60e51b815260206004820152600e60248201526d736c6963655f6f766572666c6f7760901b6044820152606401610709565b6118268284611f69565b8451101561186a5760405162461bcd60e51b8152602060048201526011602482015270736c6963655f6f75744f66426f756e647360781b6044820152606401610709565b60608215801561188957604051915060008252602082016040526118d3565b6040519150601f8416801560200281840101858101878315602002848b0101015b818310156118c25780518352602092830192016118aa565b5050858452601f01601f1916604052505b50949350505050565b6001600160a01b038116811461141757600080fd5b60008083601f84011261190357600080fd5b50813567ffffffffffffffff81111561191b57600080fd5b60208301915083602082850101111561193357600080fd5b9250929050565b60008060006040848603121561194f57600080fd5b833561195a816118dc565b9250602084013567ffffffffffffffff81111561197657600080fd5b611982868287016118f1565b9497909650939450505050565b6000602082840312156119a157600080fd5b81356119ac816118dc565b9392505050565b634e487b7160e01b600052604160045260246000fd5b60405160a0810167ffffffffffffffff811182821017156119ec576119ec6119b3565b60405290565b604051601f8201601f1916810167ffffffffffffffff81118282101715611a1b57611a1b6119b3565b604052919050565b600067ffffffffffffffff821115611a3d57611a3d6119b3565b50601f01601f191660200190565b600060208284031215611a5d57600080fd5b813567ffffffffffffffff811115611a7457600080fd5b8201601f81018413611a8557600080fd5b8035611a98611a9382611a23565b6119f2565b818152856020838501011115611aad57600080fd5b81602084016020830137600091810160200191909152949350505050565b80356001600160e01b031981168114611ae357600080fd5b919050565b60008060008060608587031215611afe57600080fd5b8435611b09816118dc565b9350611b1760208601611acb565b9250604085013567ffffffffffffffff811115611b3357600080fd5b611b3f878288016118f1565b95989497509550505050565b60008060008060608587031215611b6157600080fd5b8435611b6c816118dc565b93506020850135611b17816118dc565b60008060408385031215611b8f57600080fd5b8235611b9a816118dc565b9150611ba860208401611acb565b90509250929050565b81835281816020850137506000828201602090810191909152601f909101601f19169091010190565b6001600160a01b0384168152604060208201819052600090611bff9083018486611bb1565b95945050505050565b8051611ae3816118dc565b60008060408385031215611c2657600080fd5b8251611c31816118dc565b6020939093015192949293505050565b6020808252601f908201527f5265636569766572206164647265737320646f6573206e6f74206d6174636800604082015260600190565b600060a08284031215611c8a57600080fd5b611c926119c9565b9050815167ffffffffffffffff811115611cab57600080fd5b8201601f81018413611cbc57600080fd5b8051611cca611a9382611a23565b81815260208681848601011115611ce057600080fd5b60005b83811015611cfe578481018201518382018301528101611ce3565b506000818484010152818552611d15818701611c08565b818601525050505060408201516040820152606082015160608201526080820151608082015292915050565b600060208284031215611d5357600080fd5b815167ffffffffffffffff811115611d6a57600080fd5b611d7684828501611c78565b949350505050565b634e487b7160e01b600052601160045260246000fd5b600060018201611da657611da6611d7e565b5060010190565b6001600160a01b03851681526001600160e01b031984166020820152606060408201819052600090611de29083018486611bb1565b9695505050505050565b60008085851115611dfc57600080fd5b83861115611e0957600080fd5b5050820193919092039150565b6001600160e01b03198135818116916004851015611e3e5780818660040360031b1b83161692505b505092915050565b600080600080600060a08688031215611e5e57600080fd5b855194506020808701519450604087015167ffffffffffffffff80821115611e8557600080fd5b818901915089601f830112611e9957600080fd5b815181811115611eab57611eab6119b3565b8060051b9150611ebc8483016119f2565b818152918301840191848101908c841115611ed657600080fd5b938501935b83851015611f005784519250611ef0836118dc565b8282529385019390850190611edb565b809850505050505050611f1560608701611c08565b9150608086015190509295509295909350565b634e487b7160e01b600052603260045260246000fd5b602080825260119082015270151bdad95b881b9bdd08185b1b1bddd959607a1b604082015260600190565b80820180821115610dc257610dc2611d7e565b81810381811115610dc257610dc2611d7e56fe737761704578616374546f6b656e73466f72546f6b656e732875696e743235362c75696e743235362c616464726573735b5d2c616464726573732c75696e74323536296578616374496e707574282862797465732c616464726573732c75696e743235362c75696e743235362c75696e74323536292965786163744f7574707574282862797465732c616464726573732c75696e743235362c75696e743235362c75696e743235362929a26469706673582212200788bea51d05c7a176ff46f85aa08251e6148d0f31eb00a911b7e5d6444213bb64736f6c63430008170033","linkReferences":{}},"methodIdentifiers":{"allowApprovalDestination(address,string)":"98b3cc39","allowAsset(address,string)":"86b6dbe5","allowCallSite(address,bytes4,string)":"5e4ccace","allowReceiver(address,string)":"72e548a9","allowSender(address,string)":"fa2c59c8","allowWithdrawDestination(address,string)":"5ace1d92","allowedApprovalDestinations(address)":"eb0de042","allowedAssets(address)":"a4c1cccb","allowedCallSites(address,bytes4)":"a847cf4d","allowedReceivers(address)":"3cf20025","allowedSenders(address)":"fadbcf48","allowedWithdrawDestinations(address)":"07ef00cf","callSiteCount()":"a9fc3d4f","getGovernanceAddress()":"73252494","getInternalVersion()":"fdedfa27","isAllowedApprovalDestination(address)":"1d49039c","isAllowedAsset(address)":"c537bed0","isAllowedCallSite(address,bytes4)":"713ebf3b","isAllowedReceiver(address)":"d075f9bb","isAllowedSender(address)":"be8c97b0","isAllowedWithdrawDestination(address)":"efb47bff","owner()":"8da5cb5b","removeApprovalDestination(address,string)":"04a3ba25","removeAsset(address,string)":"f901dc33","removeCallSite(address,bytes4,string)":"d7334c9d","removeReceiver(address,string)":"2d12d788","removeSender(address,string)":"a67e1f54","removeWithdrawDestination(address,string)":"8c2fdf9e","renounceOwnership()":"715018a6","transferOwnership(address)":"f2fde38b","validateCall(address,address,bytes)":"6d5025f1","validate_approve(bytes)":"4b956bd8","validate_exactInput(bytes)":"ebe26816","validate_exactOutput(bytes)":"e98539c5","validate_multicall(bytes)":"378ca167","validate_swapExactTokensForTokens(bytes)":"761bcd9c","validate_transfer(bytes)":"1710a4f2","whitelistOnedeltaBrokerProxy(address,string)":"92476ccd","whitelistToken(address,string)":"ee5462cc","whitelistUniswapV2Router(address,string)":"3ea35551","whitelistUniswapV3Router(address,string)":"34ec8d7e"},"id":3}