{"abi":[{"type":"constructor","inputs":[],"stateMutability":"nonpayable"},{"type":"function","name":"_SIGN_COOLDOWN","inputs":[],"outputs":[{"name":"","type":"uint256","internalType":"uint256"}],"stateMutability":"view"},{"type":"function","name":"allowApprovalDestination","inputs":[{"name":"destination","type":"address","internalType":"address"},{"name":"notes","type":"string","internalType":"string"}],"outputs":[],"stateMutability":"nonpayable"},{"type":"function","name":"allowAsset","inputs":[{"name":"asset","type":"address","internalType":"address"},{"name":"notes","type":"string","internalType":"string"}],"outputs":[],"stateMutability":"nonpayable"},{"type":"function","name":"allowCallSite","inputs":[{"name":"target","type":"address","internalType":"address"},{"name":"selector","type":"bytes4","internalType":"bytes4"},{"name":"notes","type":"string","internalType":"string"}],"outputs":[],"stateMutability":"nonpayable"},{"type":"function","name":"allowDelegationApprovalDestination","inputs":[{"name":"destination","type":"address","internalType":"address"},{"name":"notes","type":"string","internalType":"string"}],"outputs":[],"stateMutability":"nonpayable"},{"type":"function","name":"allowReceiver","inputs":[{"name":"receiver","type":"address","internalType":"address"},{"name":"notes","type":"string","internalType":"string"}],"outputs":[],"stateMutability":"nonpayable"},{"type":"function","name":"allowSender","inputs":[{"name":"sender","type":"address","internalType":"address"},{"name":"notes","type":"string","internalType":"string"}],"outputs":[],"stateMutability":"nonpayable"},{"type":"function","name":"allowWithdrawDestination","inputs":[{"name":"destination","type":"address","internalType":"address"},{"name":"notes","type":"string","internalType":"string"}],"outputs":[],"stateMutability":"nonpayable"},{"type":"function","name":"allowedApprovalDestinations","inputs":[{"name":"destination","type":"address","internalType":"address"}],"outputs":[{"name":"allowed","type":"bool","internalType":"bool"}],"stateMutability":"view"},{"type":"function","name":"allowedAssets","inputs":[{"name":"token","type":"address","internalType":"address"}],"outputs":[{"name":"allowed","type":"bool","internalType":"bool"}],"stateMutability":"view"},{"type":"function","name":"allowedCCTPDestinations","inputs":[{"name":"domain","type":"uint32","internalType":"uint32"}],"outputs":[{"name":"allowed","type":"bool","internalType":"bool"}],"stateMutability":"view"},{"type":"function","name":"allowedCCTPMessengers","inputs":[{"name":"messenger","type":"address","internalType":"address"}],"outputs":[{"name":"allowed","type":"bool","internalType":"bool"}],"stateMutability":"view"},{"type":"function","name":"allowedCallSites","inputs":[{"name":"target","type":"address","internalType":"address"},{"name":"selector","type":"bytes4","internalType":"bytes4"}],"outputs":[{"name":"allowed","type":"bool","internalType":"bool"}],"stateMutability":"view"},{"type":"function","name":"allowedCowSwaps","inputs":[{"name":"destination","type":"address","internalType":"address"}],"outputs":[{"name":"allowed","type":"bool","internalType":"bool"}],"stateMutability":"view"},{"type":"function","name":"allowedDelegationApprovalDestinations","inputs":[{"name":"destination","type":"address","internalType":"address"}],"outputs":[{"name":"allowed","type":"bool","internalType":"bool"}],"stateMutability":"view"},{"type":"function","name":"allowedGMXMarkets","inputs":[{"name":"market","type":"address","internalType":"address"}],"outputs":[{"name":"allowed","type":"bool","internalType":"bool"}],"stateMutability":"view"},{"type":"function","name":"allowedGMXRouters","inputs":[{"name":"destination","type":"address","internalType":"address"}],"outputs":[{"name":"allowed","type":"bool","internalType":"bool"}],"stateMutability":"view"},{"type":"function","name":"allowedLagoonVaults","inputs":[{"name":"destination","type":"address","internalType":"address"}],"outputs":[{"name":"allowed","type":"bool","internalType":"bool"}],"stateMutability":"view"},{"type":"function","name":"allowedReceivers","inputs":[{"name":"receiver","type":"address","internalType":"address"}],"outputs":[{"name":"allowed","type":"bool","internalType":"bool"}],"stateMutability":"view"},{"type":"function","name":"allowedSenders","inputs":[{"name":"sender","type":"address","internalType":"address"}],"outputs":[{"name":"allowed","type":"bool","internalType":"bool"}],"stateMutability":"view"},{"type":"function","name":"allowedTargets","inputs":[{"name":"target","type":"address","internalType":"address"}],"outputs":[{"name":"allowed","type":"bool","internalType":"bool"}],"stateMutability":"view"},{"type":"function","name":"allowedVeloraSwappers","inputs":[{"name":"destination","type":"address","internalType":"address"}],"outputs":[{"name":"allowed","type":"bool","internalType":"bool"}],"stateMutability":"view"},{"type":"function","name":"allowedWithdrawDestinations","inputs":[{"name":"destination","type":"address","internalType":"address"}],"outputs":[{"name":"allowed","type":"bool","internalType":"bool"}],"stateMutability":"view"},{"type":"function","name":"anyAsset","inputs":[],"outputs":[{"name":"","type":"bool","internalType":"bool"}],"stateMutability":"view"},{"type":"function","name":"callSiteCount","inputs":[],"outputs":[{"name":"","type":"uint256","internalType":"uint256"}],"stateMutability":"view"},{"type":"function","name":"getGovernanceAddress","inputs":[],"outputs":[{"name":"","type":"address","internalType":"address"}],"stateMutability":"view"},{"type":"function","name":"getInternalVersion","inputs":[],"outputs":[{"name":"","type":"uint8","internalType":"uint8"}],"stateMutability":"pure"},{"type":"function","name":"gmxOrderVaults","inputs":[{"name":"exchangeRouter","type":"address","internalType":"address"}],"outputs":[{"name":"orderVault","type":"address","internalType":"address"}],"stateMutability":"view"},{"type":"function","name":"isAllowedApprovalDestination","inputs":[{"name":"receiver","type":"address","internalType":"address"}],"outputs":[{"name":"","type":"bool","internalType":"bool"}],"stateMutability":"view"},{"type":"function","name":"isAllowedAsset","inputs":[{"name":"token","type":"address","internalType":"address"}],"outputs":[{"name":"","type":"bool","internalType":"bool"}],"stateMutability":"view"},{"type":"function","name":"isAllowedCCTPDestination","inputs":[{"name":"domain","type":"uint32","internalType":"uint32"}],"outputs":[{"name":"","type":"bool","internalType":"bool"}],"stateMutability":"view"},{"type":"function","name":"isAllowedCCTPMessenger","inputs":[{"name":"messenger","type":"address","internalType":"address"}],"outputs":[{"name":"","type":"bool","internalType":"bool"}],"stateMutability":"view"},{"type":"function","name":"isAllowedCallSite","inputs":[{"name":"target","type":"address","internalType":"address"},{"name":"selector","type":"bytes4","internalType":"bytes4"}],"outputs":[{"name":"","type":"bool","internalType":"bool"}],"stateMutability":"view"},{"type":"function","name":"isAllowedCowSwap","inputs":[{"name":"settlement","type":"address","internalType":"address"}],"outputs":[{"name":"","type":"bool","internalType":"bool"}],"stateMutability":"view"},{"type":"function","name":"isAllowedDelegationApprovalDestination","inputs":[{"name":"receiver","type":"address","internalType":"address"}],"outputs":[{"name":"","type":"bool","internalType":"bool"}],"stateMutability":"view"},{"type":"function","name":"isAllowedGMXMarket","inputs":[{"name":"market","type":"address","internalType":"address"}],"outputs":[{"name":"","type":"bool","internalType":"bool"}],"stateMutability":"view"},{"type":"function","name":"isAllowedGMXRouter","inputs":[{"name":"router","type":"address","internalType":"address"}],"outputs":[{"name":"","type":"bool","internalType":"bool"}],"stateMutability":"view"},{"type":"function","name":"isAllowedLagoonVault","inputs":[{"name":"vault","type":"address","internalType":"address"}],"outputs":[{"name":"","type":"bool","internalType":"bool"}],"stateMutability":"view"},{"type":"function","name":"isAllowedReceiver","inputs":[{"name":"receiver","type":"address","internalType":"address"}],"outputs":[{"name":"","type":"bool","internalType":"bool"}],"stateMutability":"view"},{"type":"function","name":"isAllowedSender","inputs":[{"name":"sender","type":"address","internalType":"address"}],"outputs":[{"name":"","type":"bool","internalType":"bool"}],"stateMutability":"view"},{"type":"function","name":"isAllowedTarget","inputs":[{"name":"target","type":"address","internalType":"address"}],"outputs":[{"name":"","type":"bool","internalType":"bool"}],"stateMutability":"view"},{"type":"function","name":"isAllowedVeloraSwapper","inputs":[{"name":"swapper","type":"address","internalType":"address"}],"outputs":[{"name":"","type":"bool","internalType":"bool"}],"stateMutability":"view"},{"type":"function","name":"isAllowedWithdrawDestination","inputs":[{"name":"receiver","type":"address","internalType":"address"}],"outputs":[{"name":"","type":"bool","internalType":"bool"}],"stateMutability":"view"},{"type":"function","name":"multicall","inputs":[{"name":"data","type":"bytes[]","internalType":"bytes[]"}],"outputs":[{"name":"results","type":"bytes[]","internalType":"bytes[]"}],"stateMutability":"payable"},{"type":"function","name":"owner","inputs":[],"outputs":[{"name":"","type":"address","internalType":"address"}],"stateMutability":"view"},{"type":"function","name":"removeApprovalDestination","inputs":[{"name":"destination","type":"address","internalType":"address"},{"name":"notes","type":"string","internalType":"string"}],"outputs":[],"stateMutability":"nonpayable"},{"type":"function","name":"removeAsset","inputs":[{"name":"asset","type":"address","internalType":"address"},{"name":"notes","type":"string","internalType":"string"}],"outputs":[],"stateMutability":"nonpayable"},{"type":"function","name":"removeCCTPDestination","inputs":[{"name":"domain","type":"uint32","internalType":"uint32"},{"name":"notes","type":"string","internalType":"string"}],"outputs":[],"stateMutability":"nonpayable"},{"type":"function","name":"removeCallSite","inputs":[{"name":"target","type":"address","internalType":"address"},{"name":"selector","type":"bytes4","internalType":"bytes4"},{"name":"notes","type":"string","internalType":"string"}],"outputs":[],"stateMutability":"nonpayable"},{"type":"function","name":"removeDelegationApprovalDestination","inputs":[{"name":"destination","type":"address","internalType":"address"},{"name":"notes","type":"string","internalType":"string"}],"outputs":[],"stateMutability":"nonpayable"},{"type":"function","name":"removeGMXMarket","inputs":[{"name":"market","type":"address","internalType":"address"},{"name":"notes","type":"string","internalType":"string"}],"outputs":[],"stateMutability":"nonpayable"},{"type":"function","name":"removeHypercoreVault","inputs":[{"name":"vault","type":"address","internalType":"address"},{"name":"notes","type":"string","internalType":"string"}],"outputs":[],"stateMutability":"nonpayable"},{"type":"function","name":"removeReceiver","inputs":[{"name":"receiver","type":"address","internalType":"address"},{"name":"notes","type":"string","internalType":"string"}],"outputs":[],"stateMutability":"nonpayable"},{"type":"function","name":"removeSender","inputs":[{"name":"sender","type":"address","internalType":"address"},{"name":"notes","type":"string","internalType":"string"}],"outputs":[],"stateMutability":"nonpayable"},{"type":"function","name":"removeWithdrawDestination","inputs":[{"name":"destination","type":"address","internalType":"address"},{"name":"notes","type":"string","internalType":"string"}],"outputs":[],"stateMutability":"nonpayable"},{"type":"function","name":"renounceOwnership","inputs":[],"outputs":[],"stateMutability":"nonpayable"},{"type":"function","name":"setAnyAssetAllowed","inputs":[{"name":"value","type":"bool","internalType":"bool"},{"name":"notes","type":"string","internalType":"string"}],"outputs":[],"stateMutability":"nonpayable"},{"type":"function","name":"transferOwnership","inputs":[{"name":"newOwner","type":"address","internalType":"address"}],"outputs":[],"stateMutability":"nonpayable"},{"type":"function","name":"validateCall","inputs":[{"name":"sender","type":"address","internalType":"address"},{"name":"target","type":"address","internalType":"address"},{"name":"callDataWithSelector","type":"bytes","internalType":"bytes"}],"outputs":[],"stateMutability":"view"},{"type":"function","name":"whitelistAaveV3","inputs":[{"name":"lendingPool","type":"address","internalType":"address"},{"name":"notes","type":"string","internalType":"string"}],"outputs":[],"stateMutability":"nonpayable"},{"type":"function","name":"whitelistCCTP","inputs":[{"name":"tokenMessenger","type":"address","internalType":"address"},{"name":"notes","type":"string","internalType":"string"}],"outputs":[],"stateMutability":"nonpayable"},{"type":"function","name":"whitelistCCTPDestination","inputs":[{"name":"domain","type":"uint32","internalType":"uint32"},{"name":"notes","type":"string","internalType":"string"}],"outputs":[],"stateMutability":"nonpayable"},{"type":"function","name":"whitelistCoreWriter","inputs":[{"name":"coreWriter","type":"address","internalType":"address"},{"name":"coreDepositWallet","type":"address","internalType":"address"},{"name":"notes","type":"string","internalType":"string"}],"outputs":[],"stateMutability":"nonpayable"},{"type":"function","name":"whitelistCowSwap","inputs":[{"name":"settlementContract","type":"address","internalType":"address"},{"name":"relayerContract","type":"address","internalType":"address"},{"name":"notes","type":"string","internalType":"string"}],"outputs":[],"stateMutability":"nonpayable"},{"type":"function","name":"whitelistERC4626","inputs":[{"name":"vault","type":"address","internalType":"address"},{"name":"notes","type":"string","internalType":"string"}],"outputs":[],"stateMutability":"nonpayable"},{"type":"function","name":"whitelistGMX","inputs":[{"name":"exchangeRouter","type":"address","internalType":"address"},{"name":"syntheticsRouter","type":"address","internalType":"address"},{"name":"orderVault","type":"address","internalType":"address"},{"name":"notes","type":"string","internalType":"string"}],"outputs":[],"stateMutability":"nonpayable"},{"type":"function","name":"whitelistGMXMarket","inputs":[{"name":"market","type":"address","internalType":"address"},{"name":"notes","type":"string","internalType":"string"}],"outputs":[],"stateMutability":"nonpayable"},{"type":"function","name":"whitelistHypercoreVault","inputs":[{"name":"vault","type":"address","internalType":"address"},{"name":"notes","type":"string","internalType":"string"}],"outputs":[],"stateMutability":"nonpayable"},{"type":"function","name":"whitelistLagoon","inputs":[{"name":"vault","type":"address","internalType":"address"},{"name":"notes","type":"string","internalType":"string"}],"outputs":[],"stateMutability":"nonpayable"},{"type":"function","name":"whitelistOrderly","inputs":[{"name":"orderlyVault","type":"address","internalType":"address"},{"name":"notes","type":"string","internalType":"string"}],"outputs":[],"stateMutability":"nonpayable"},{"type":"function","name":"whitelistToken","inputs":[{"name":"token","type":"address","internalType":"address"},{"name":"notes","type":"string","internalType":"string"}],"outputs":[],"stateMutability":"nonpayable"},{"type":"function","name":"whitelistTokenForDelegation","inputs":[{"name":"token","type":"address","internalType":"address"},{"name":"notes","type":"string","internalType":"string"}],"outputs":[],"stateMutability":"nonpayable"},{"type":"function","name":"whitelistUniswapV2Router","inputs":[{"name":"router","type":"address","internalType":"address"},{"name":"notes","type":"string","internalType":"string"}],"outputs":[],"stateMutability":"nonpayable"},{"type":"function","name":"whitelistUniswapV3Router","inputs":[{"name":"router","type":"address","internalType":"address"},{"name":"notes","type":"string","internalType":"string"}],"outputs":[],"stateMutability":"nonpayable"},{"type":"function","name":"whitelistVelora","inputs":[{"name":"augustusSwapper","type":"address","internalType":"address"},{"name":"tokenTransferProxy","type":"address","internalType":"address"},{"name":"notes","type":"string","internalType":"string"}],"outputs":[],"stateMutability":"nonpayable"},{"type":"event","name":"AnyAssetSet","inputs":[{"name":"value","type":"bool","indexed":false,"internalType":"bool"},{"name":"notes","type":"string","indexed":false,"internalType":"string"}],"anonymous":false},{"type":"event","name":"AnyVaultSet","inputs":[{"name":"value","type":"bool","indexed":false,"internalType":"bool"},{"name":"notes","type":"string","indexed":false,"internalType":"string"}],"anonymous":false},{"type":"event","name":"ApprovalDestinationApproved","inputs":[{"name":"destination","type":"address","indexed":false,"internalType":"address"},{"name":"notes","type":"string","indexed":false,"internalType":"string"}],"anonymous":false},{"type":"event","name":"ApprovalDestinationRemoved","inputs":[{"name":"destination","type":"address","indexed":false,"internalType":"address"},{"name":"notes","type":"string","indexed":false,"internalType":"string"}],"anonymous":false},{"type":"event","name":"AssetApproved","inputs":[{"name":"asset","type":"address","indexed":false,"internalType":"address"},{"name":"notes","type":"string","indexed":false,"internalType":"string"}],"anonymous":false},{"type":"event","name":"AssetRemoved","inputs":[{"name":"asset","type":"address","indexed":false,"internalType":"address"},{"name":"notes","type":"string","indexed":false,"internalType":"string"}],"anonymous":false},{"type":"event","name":"CCTPDestinationApproved","inputs":[{"name":"domain","type":"uint32","indexed":false,"internalType":"uint32"},{"name":"notes","type":"string","indexed":false,"internalType":"string"}],"anonymous":false},{"type":"event","name":"CCTPDestinationRemoved","inputs":[{"name":"domain","type":"uint32","indexed":false,"internalType":"uint32"},{"name":"notes","type":"string","indexed":false,"internalType":"string"}],"anonymous":false},{"type":"event","name":"CCTPMessengerApproved","inputs":[{"name":"tokenMessenger","type":"address","indexed":false,"internalType":"address"},{"name":"notes","type":"string","indexed":false,"internalType":"string"}],"anonymous":false},{"type":"event","name":"CallSiteApproved","inputs":[{"name":"target","type":"address","indexed":false,"internalType":"address"},{"name":"selector","type":"bytes4","indexed":false,"internalType":"bytes4"},{"name":"notes","type":"string","indexed":false,"internalType":"string"}],"anonymous":false},{"type":"event","name":"CallSiteRemoved","inputs":[{"name":"target","type":"address","indexed":false,"internalType":"address"},{"name":"selector","type":"bytes4","indexed":false,"internalType":"bytes4"},{"name":"notes","type":"string","indexed":false,"internalType":"string"}],"anonymous":false},{"type":"event","name":"CowSwapApproved","inputs":[{"name":"settlementContract","type":"address","indexed":false,"internalType":"address"},{"name":"notes","type":"string","indexed":false,"internalType":"string"}],"anonymous":false},{"type":"event","name":"DelegationApprovalDestinationApproved","inputs":[{"name":"destination","type":"address","indexed":false,"internalType":"address"},{"name":"notes","type":"string","indexed":false,"internalType":"string"}],"anonymous":false},{"type":"event","name":"DelegationApprovalDestinationRemoved","inputs":[{"name":"destination","type":"address","indexed":false,"internalType":"address"},{"name":"notes","type":"string","indexed":false,"internalType":"string"}],"anonymous":false},{"type":"event","name":"ERC4626Approved","inputs":[{"name":"vault","type":"address","indexed":false,"internalType":"address"},{"name":"notes","type":"string","indexed":false,"internalType":"string"}],"anonymous":false},{"type":"event","name":"GMXMarketApproved","inputs":[{"name":"market","type":"address","indexed":false,"internalType":"address"},{"name":"notes","type":"string","indexed":false,"internalType":"string"}],"anonymous":false},{"type":"event","name":"GMXMarketRemoved","inputs":[{"name":"market","type":"address","indexed":false,"internalType":"address"},{"name":"notes","type":"string","indexed":false,"internalType":"string"}],"anonymous":false},{"type":"event","name":"GMXRouterApproved","inputs":[{"name":"exchangeRouter","type":"address","indexed":false,"internalType":"address"},{"name":"syntheticsRouter","type":"address","indexed":false,"internalType":"address"},{"name":"notes","type":"string","indexed":false,"internalType":"string"}],"anonymous":false},{"type":"event","name":"LagoonVaultApproved","inputs":[{"name":"vault","type":"address","indexed":false,"internalType":"address"},{"name":"notes","type":"string","indexed":false,"internalType":"string"}],"anonymous":false},{"type":"event","name":"OrderSigned","inputs":[{"name":"timestamp","type":"uint256","indexed":true,"internalType":"uint256"},{"name":"orderUid","type":"bytes","indexed":false,"internalType":"bytes"},{"name":"order","type":"tuple","indexed":false,"internalType":"struct GPv2Order.Data","components":[{"name":"sellToken","type":"address","internalType":"contract IERC20"},{"name":"buyToken","type":"address","internalType":"contract IERC20"},{"name":"receiver","type":"address","internalType":"address"},{"name":"sellAmount","type":"uint256","internalType":"uint256"},{"name":"buyAmount","type":"uint256","internalType":"uint256"},{"name":"validTo","type":"uint32","internalType":"uint32"},{"name":"appData","type":"bytes32","internalType":"bytes32"},{"name":"feeAmount","type":"uint256","internalType":"uint256"},{"name":"kind","type":"bytes32","internalType":"bytes32"},{"name":"partiallyFillable","type":"bool","internalType":"bool"},{"name":"sellTokenBalance","type":"bytes32","internalType":"bytes32"},{"name":"buyTokenBalance","type":"bytes32","internalType":"bytes32"}]},{"name":"validTo","type":"uint32","indexed":false,"internalType":"uint32"},{"name":"buyAmount","type":"uint256","indexed":false,"internalType":"uint256"},{"name":"sellAmount","type":"uint256","indexed":false,"internalType":"uint256"}],"anonymous":false},{"type":"event","name":"OwnershipTransferred","inputs":[{"name":"previousOwner","type":"address","indexed":true,"internalType":"address"},{"name":"newOwner","type":"address","indexed":true,"internalType":"address"}],"anonymous":false},{"type":"event","name":"ReceiverApproved","inputs":[{"name":"receiver","type":"address","indexed":false,"internalType":"address"},{"name":"notes","type":"string","indexed":false,"internalType":"string"}],"anonymous":false},{"type":"event","name":"ReceiverRemoved","inputs":[{"name":"receiver","type":"address","indexed":false,"internalType":"address"},{"name":"notes","type":"string","indexed":false,"internalType":"string"}],"anonymous":false},{"type":"event","name":"SenderApproved","inputs":[{"name":"sender","type":"address","indexed":false,"internalType":"address"},{"name":"notes","type":"string","indexed":false,"internalType":"string"}],"anonymous":false},{"type":"event","name":"SenderRemoved","inputs":[{"name":"sender","type":"address","indexed":false,"internalType":"address"},{"name":"notes","type":"string","indexed":false,"internalType":"string"}],"anonymous":false},{"type":"event","name":"VeloraSwapExecuted","inputs":[{"name":"timestamp","type":"uint256","indexed":true,"internalType":"uint256"},{"name":"augustusSwapper","type":"address","indexed":true,"internalType":"address"},{"name":"tokenIn","type":"address","indexed":false,"internalType":"address"},{"name":"tokenOut","type":"address","indexed":false,"internalType":"address"},{"name":"amountIn","type":"uint256","indexed":false,"internalType":"uint256"},{"name":"amountOut","type":"uint256","indexed":false,"internalType":"uint256"},{"name":"minAmountOut","type":"uint256","indexed":false,"internalType":"uint256"}],"anonymous":false},{"type":"event","name":"VeloraSwapperApproved","inputs":[{"name":"augustusSwapper","type":"address","indexed":false,"internalType":"address"},{"name":"notes","type":"string","indexed":false,"internalType":"string"}],"anonymous":false},{"type":"event","name":"WithdrawDestinationApproved","inputs":[{"name":"destination","type":"address","indexed":false,"internalType":"address"},{"name":"notes","type":"string","indexed":false,"internalType":"string"}],"anonymous":false},{"type":"event","name":"WithdrawDestinationRemoved","inputs":[{"name":"destination","type":"address","indexed":false,"internalType":"address"},{"name":"notes","type":"string","indexed":false,"internalType":"string"}],"anonymous":false}],"bytecode":{"object":"0x6080806040523461006b5760118054610100600160a81b0319811633600881811b610100600160a81b0316929092179093551c6001600160a01b03167f8be0079c531659141344cd1fd0a4f28419497f9722a3daafe3b4186f6b6457e05f80a3614f7e90816100708239f35b5f80fdfe60806040526004361015610011575f80fd5b5f3560e01c80630411fb8e1461047e57806304a3ba2514610483578063076053421461047e57806307ef00cf1461037a5780630985b046146104795780631047789e146104745780631d49039c146103895780632d12d7881461046f5780632dc32a61146104475780632de905bc1461046a5780632e31e9c614610465578063333f22e81461044c57806334ec8d7e146104605780633cf200251461045b5780633ea35551146104565780633ffb788e14610451578063475660641461044c5780634b941268146104475780634c03f1f8146103ac5780634d3d31ca146104425780634efbad391461043d5780635ace1d92146104385780635e4ccace146104335780635e6afe4d1461042e57806362d6775e1461042957806363cc17f2146104245780636d5025f11461041f5780636d9a14231461041a5780636fd7fdef146103ed578063713ebf3b146103d9578063715018a61461041557806372e548a91461041057806373252494146103f2578063748fca461461040b57806378addb48146103c05780637cac69c31461040b57806386a6ae151461040657806386b6dbe51461040157806387301608146103fc5780638c2fdf9e146103f75780638da5cb5b146103f25780638fb4dff2146103ed57806398b3cc39146103e8578063a4c1cccb146103e3578063a67e1f54146103de578063a847cf4d146103d9578063a86ddc57146103d4578063a9fc3d4f146103cf578063ac9650d8146103ca578063acb9da16146103c5578063b45ea48b14610366578063b8fe8d5f146103c0578063ba44ad41146103bb578063be8c97b014610357578063c2e657ae146103b6578063c537bed0146103b1578063cbdb1dcf146103ac578063d075f9bb146103a7578063d7334c9d146103a2578063d75815091461039d578063db17a17014610398578063e2873b6d14610393578063e6f32c511461038e578063eb0de04214610389578063ec01144014610384578063ee5462cc1461037f578063efb47bff1461037a578063f20e85e014610375578063f259a07314610370578063f2fde38b1461036b578063f84756aa14610366578063f901dc3314610361578063fa2c59c81461035c578063fadbcf48146103575763fdedfa2714610352575f80fd5b61221f565b611a95565b6121ad565b61213e565b6119a6565b61207a565b612008565b611f5d565b61061e565b611f46565b611e54565b61079c565b611dde565b611d73565b611cbd565b611c4b565b611bd3565b611bac565b610b58565b611b85565b611adf565b611a22565b611372565b6118ed565b6117ea565b611724565b6116e7565b6111de565b611662565b611622565b6115c3565b61119e565b6112f8565b611554565b611532565b6114d3565b6113b2565b611335565b611286565b61123a565b6110f9565b6110df565b61107d565b610f12565b610e03565b610d75565b610cb7565b610c07565b610b98565b61084b565b610947565b610b3c565b610a87565b610a47565b610987565b610916565b61088b565b6107dc565b6106e2565b61065e565b61049d565b610546565b6001600160a01b0381160361049957565b5f80fd5b34610499576020366003190112610499576004356104ba81610488565b60018060a01b03165f52600f602052602060ff60405f2054166040519015158152f35b9181601f84011215610499578235916001600160401b038311610499576020838186019501011161049957565b9060406003198301126104995760043561052381610488565b91602435906001600160401b03821161049957610542916004016104dd565b9091565b34610499577fb71be9befd3ac90c1c9981d3b1161b3c2c6dcd741f13b34061aa251226a802df6105b56105783661050a565b60018060a09593951b036105948160115460081c16331461223a565b83165f52600760205260405f2060ff198154169055604051938493846122a5565b0390a1005b6001600160a01b03165f908152600d6020526040902090565b6001600160a01b03165f908152600c6020526040902090565b6001600160a01b03165f90815260208190526040902090565b6001600160a01b03165f90815260056020526040902090565b346104995760203660031901126104995760043561063b81610488565b60018060a01b03165f526006602052602060ff60405f2054166040519015158152f35b346104995760203660031901126104995760043561067b81610488565b60018060a01b03165f52600e602052602060ff60405f2054166040519015158152f35b6060600319820112610499576004356106b681610488565b916024356106c381610488565b91604435906001600160401b03821161049957610542916004016104dd565b34610499577f936b7187f49d778f82d1c17d927c8006f00eac6d2e5ccb50720dbc7afda8b4a96105b56107143661069e565b909391610775828660018060a01b036107358160115460081c16331461223a565b871693845f52600760205260405f20600160ff198254161790555f80516020614ec98339815191526040518061076d86868d846122a5565b0390a1612f8c565b5f52600a60205261079060405f20600160ff19825416179055565b604051938493846122a5565b34610499576020366003190112610499576004356107b981610488565b60018060a01b03165f526007602052602060ff60405f2054166040519015158152f35b34610499577f4e13b11ab98e672bd78295ef9cebe764dc617f95decf47d842c25b83abc0c7246105b561080e3661050a565b60018060a09593951b0361082a8160115460081c16331461223a565b83165f52600560205260405f2060ff198154169055604051938493846122a5565b346104995760203660031901126104995760043561086881610488565b60018060a01b03165f526008602052602060ff60405f2054166040519015158152f35b34610499576108993661050a565b915f926108b460018060a01b0360115460081c16331461223a565b73__$bb84f48f443ebf59904c3f186f7cc5264f$__803b15610499576108f3935f9360405195869485938493630b7a416f60e21b8552600485016122a5565b03915af4801561091157610905575080f35b61090f91506122de565b005b612334565b3461049957602036600319011261049957602061093d60043561093881610488565b61233f565b6040519015158152f35b346104995760203660031901126104995760043561096481610488565b60018060a01b03165f52600a602052602060ff60405f2054166040519015158152f35b346104995761090f6109983661050a565b9160018060a01b036109b28160115460081c16331461223a565b8116805f525f6020526109d660405f2063c04b8d5960e01b5f5260205260405f2090565b9060ff19916001838254161790555f526001602052600160405f2091825416179055610a0b610a06600254612d58565b600255565b5f80516020614f2983398151915260405180610a2986868684612d6b565b0390a1610a3783838361236f565b610a42838383612411565b612f8c565b3461049957602036600319011261049957600435610a6481610488565b60018060a01b03165f526005602052602060ff60405f2054166040519015158152f35b346104995761090f610a983661050a565b9160018060a01b03610ab28160115460081c16331461223a565b8116805f525f602052610ad660405f206338ed173960e01b5f5260205260405f2090565b9060ff19916001838254161790555f526001602052600160405f2091825416179055610b06610a06600254612d58565b5f80516020614f2983398151915260405180610b2486868684612d9a565b0390a1610a4283838361248d565b5f91031261049957565b34610499575f3660031901126104995760206040516104b08152f35b3461049957602036600319011261049957600435610b7581610488565b60018060a01b03165f52600c602052602060ff60405f2054166040519015158152f35b34610499577f1cc7e10cd1d551ab6504f6a15828923f911f4658af4cc1b82aeaab1d8a4ccc4c6105b5610bca3661050a565b60018060a09593951b03610be68160115460081c16331461223a565b83165f52600e60205260405f2060ff198154169055604051938493846122a5565b34610499577f4528ea4d4b1ca7b25fe4843fa8f643b7bbdc91395054ca124e68c761b44f77076105b5610c393661069e565b9093915f80516020614ec98339815191528560018060a01b0392610c6e8460115460081c163314610c698161223a565b61223a565b8381165f52600760205260405f20600160ff19825416179055610c9785604051938493846122a5565b0390a183165f52600b60205261079060405f20600160ff19825416179055565b34610499577f3562181221a42a19ddd03a82dfe06acab1905ceb65cdaf7d86a1d9fec66435526105b5610ce93661050a565b60018060a09593951b03610d058160115460081c16331461223a565b83165f52600660205260405f20600160ff19825416179055604051938493846122a5565b606060031982011261049957600435610d4181610488565b916024356001600160e01b0319811681036104995791604435906001600160401b03821161049957610542916004016104dd565b34610499575f80516020614f298339815191526105b5610d9436610d29565b9060018060a09694961b03610db18160115460081c16331461223a565b8416805f525f602052610dc78660405f206116d1565b9060ff19916001838254161790555f526001602052600160405f2091825416179055610df4600254612d58565b60025560405194859485612ee3565b34610499577ffaa136302ac223cf7c1146490a741e4520e886fc22d7e759641453f432283d016105b5610e353661050a565b6011549193916001600160a01b0390610e549060081c8216331461223a565b808416805f526009602052610e8360405f209260ff1993600185825416179055339060115460081c161461223a565b805f525f602052610ea560405f2063559ec80d60e01b5f5260205260405f2090565b6001838254161790555f526001602052600160405f2091825416179055610ed0610a06600254612d58565b5f80516020614f2983398151915260405180610eee84888884612dc9565b0390a1610efc818585612509565b610f07818585612585565b610790818585612601565b3461049957608036600319011261049957600435610f2f81610488565b602435610f3b81610488565b60443591610f4883610488565b606435926001600160401b038411610499576110586105b591610f907f4cd8335923e6c59235dad1eb0d9466176d7e2d5331062745aac072188386d7fe9636906004016104dd565b92909160018060a01b03610fb08160115460081c163314610c698161223a565b8616805f525f602052610fd460405f20631592ca1b60e31b5f5260205260405f2090565b9060ff19916001838254161790555f526001602052600160405f2091825416179055611004610a06600254612d58565b5f80516020614f298339815191526040518061102287878b84612df8565b0390a1611030848489612f8c565b611039866105ba565b80546001600160a01b0319166001600160a01b03909216919091179055565b611071611064856105d3565b805460ff19166001179055565b60405194859485612f16565b34610499575f80516020614ec98339815191526105b561109c3661050a565b6011549193916001600160a01b03906110bb9060081c8216331461223a565b83165f52600860205260405f20600160ff19825416179055604051938493846122a5565b346104995761090f6110f03661069e565b929190916133fe565b346104995761090f61110a3661050a565b9160018060a01b036111248160115460081c16331461223a565b8116805f525f60205261114860405f20630c04a8a160e41b5f5260205260405f2090565b9060ff19916001838254161790555f526001602052600160405f2091825416179055611178610a06600254612d58565b5f80516020614f298339815191526040518061119686868684612e27565b0390a1612f61565b34610499576020366003190112610499576004356111bb81610488565b60018060a01b03165f526009602052602060ff60405f2054166040519015158152f35b34610499576040366003190112610499576004356111fb81610488565b6024356001600160e01b0319811681036104995761122e60ff9160209360018060a01b03165f525f845260405f206116d1565b54166040519015158152f35b34610499575f36600319011261049957611252613a45565b60118054610100600160a81b031981169091555f9060081c6001600160a01b03165f80516020614ee98339815191528280a3005b34610499577f62dd88c5ecfa60713a657640ebec4de26fc1aefa4afdb24e6d15a124fce727796105b56112b83661050a565b60018060a09593951b036112d48160115460081c16331461223a565b83165f52600560205260405f20600160ff19825416179055604051938493846122a5565b34610499575f3660031901126104995760115460405160089190911c6001600160a01b03168152602090f35b359063ffffffff8216820361049957565b346104995760203660031901126104995760043563ffffffff8116809103610499575f526010602052602060ff60405f2054166040519015158152f35b346104995760203660031901126104995760043561138f81610488565b60018060a01b03165f526001602052602060ff60405f2054166040519015158152f35b34610499576113c03661050a565b6040516338d52e0f60e01b815292906020846004816001600160a01b0386165afa9081156109115761079081856105b5947fd2851df39115d63968e90113e8b3a96f13e33ac4c2e5a9caa1afeffe59e55748985f916114a4575b5061142683838961267d565b6114318383896126f9565b61143c838389612775565b6114478383896127f1565b61145283838961286d565b61145d8383896128e8565b611468838389612964565b6114738383896129e0565b61147e838389612a5c565b611489838389612ad8565b611494838389612f8c565b61149f838389613a5d565b613a5d565b6114c6915060203d6020116114cc575b6114be8183612311565b810190612f4c565b5f61141a565b503d6114b4565b34610499575f80516020614f098339815191526105b56114f23661050a565b60018060a09593951b0361150e8160115460081c16331461223a565b83165f52600360205260405f20600160ff19825416179055604051938493846122a5565b34610499575f36600319011261049957602060ff601154166040519015158152f35b34610499577f1212f8ddb39de8e1a339460c95752d61100723efeaa34ccd94bca94393f409386105b56115863661050a565b60018060a09593951b036115a28160115460081c16331461223a565b83165f52600660205260405f2060ff198154169055604051938493846122a5565b34610499575f80516020614ec98339815191526105b56115e23661050a565b60018060a09593951b036115fe8160115460081c16331461223a565b83165f52600760205260405f20600160ff19825416179055604051938493846122a5565b346104995760203660031901126104995760043561163f81610488565b60018060a01b03165f526003602052602060ff60405f2054166040519015158152f35b34610499577f3097928509c53a2dab9500431201d82b0d756e8f890fd01f4ae6b33b45687ea46105b56116943661050a565b60018060a09593951b036116b08160115460081c16331461223a565b83165f52600460205260405f2060ff198154169055604051938493846122a5565b9063ffffffff60e01b165f5260205260405f2090565b3461049957602036600319011261049957602060043561170681610488565b60018060a01b038091165f52600d825260405f205416604051908152f35b34610499575f366003190112610499576020600254604051908152f35b5f5b8381106117525750505f910152565b8181015183820152602001611743565b9060209161177b81518092818552858086019101611741565b601f01601f1916010190565b6020808201906020835283518092526040830192602060408460051b8301019501935f915b8483106117bc5750505050505090565b90919293949584806117da600193603f198682030187528a51611762565b98019301930191949392906117ac565b6020366003190112610499576001600160401b0360048035908282116104995736602383011215610499578160040135928311610499576024906024830192602436918660051b010111610499576118418461300d565b935f5b81811061185d57604051806118598882611787565b0390f35b5f8061186a83858961306a565b6040939161187c8551809381936130b0565b0390305af49061188a6130d8565b91156118b157509060019161189f8289613183565b526118aa8188613183565b5001611844565b84828760448251106104995781816118d492856118e9950151830101910161313c565b925162461bcd60e51b81529283928301613172565b0390fd5b34610499576118fb3661069e565b60115492935f939192916001600160a01b03919061191f9060081c8316331461223a565b73__$bb84f48f443ebf59904c3f186f7cc5264f$__90813b156104995760405163565ced0b60e11b815290831660048201529186166024830152606060448301525f9082908180611974606482018989612285565b03915af4801561091157611991575b5061198e9293612f8c565b80f35b61198e935061199f906122de565b5f92611983565b34610499576020366003190112610499576004356119c381610488565b60018060a01b03165f52600b602052602060ff60405f2054166040519015158152f35b9060406003198301126104995760043563ffffffff811681036104995791602435906001600160401b03821161049957610542916004016104dd565b34610499577f1032cb8f3d65d1f2761007cb8b0ca5365671ee20a8efa21ecae1a8dfbca5b7a56105b5611a54366119e6565b611a6f60018060a09694961b0360115460081c16331461223a565b63ffffffff83165f52601060205260405f2060ff19815416905560405193849384613197565b3461049957602036600319011261049957600435611ab281610488565b60018060a01b03165f526004602052602060ff60405f2054166040519015158152f35b8015150361049957565b3461049957604036600319011261049957600435611afc81611ad5565b6024356001600160401b038111610499577f50454d9d0025a28a39cac5a4b3f3101d29b6e413fbb64f75fb42eb6837b0771891611b406105b59236906004016104dd565b929060115492611b5c3360018060a01b038660081c161461223a565b15159260ff84169060ff1916176011556040519384938452604060208501526040840191612285565b3461049957602036600319011261049957602061093d600435611ba781610488565b6131b4565b3461049957602036600319011261049957602061093d600435611bce81610488565b6131e4565b34610499577f37ea10f2d08f5a9803dfcd5abf3cfc7b0d6fcdf5fcbc36be9ea5a0b53d9a4d9b6105b5611c0536610d29565b9060018060a09694961b03611c228160115460081c16331461223a565b84165f525f602052611c378560405f206116d1565b805460ff1916905560405194859485612ee3565b34610499577fefc511aabde7c4d22a66bc3bc12740a348cb98d9f7f433d6768ae8c1ab0e3cb86105b5611c7d3661050a565b60018060a09593951b03611c998160115460081c16331461223a565b83165f52600e60205260405f20600160ff19825416179055604051938493846122a5565b346104995761090f611cce3661050a565b9160018060a01b03611ce88160115460081c16331461223a565b8116805f525f602052611d0c60405f20632df4869b60e01b5f5260205260405f2090565b9060ff19916001838254161790555f526001602052600160405f2091825416179055611d3c610a06600254612d58565b5f80516020614f2983398151915260405180611d5a86868684612e56565b0390a1611d68838383612b54565b610a42838383612bd0565b3461049957611d813661050a565b6011545f939190611d9f9060081c6001600160a01b0316331461223a565b73__$bb84f48f443ebf59904c3f186f7cc5264f$__803b15610499576108f3935f936040519586948593849363e2873b6d60e01b8552600485016122a5565b34610499577f9fc3f914bc6770a3679a6a9fdb4620f0566db329f178fb033fc0c6dcce1b693d6105b5611e10366119e6565b611e2b60018060a09694961b0360115460081c16331461223a565b63ffffffff83165f52601060205260405f20600160ff1982541617905560405193849384613197565b34610499577f9efd66cbdaa05f6414ab9c4ae71d358b087e972c11874e7c3e9c7c79c61e23aa6105b5611e863661050a565b60018060a09593951b03611ea68160115460081c163314610c698161223a565b8316805f525f602052611eca60405f20634701287760e11b5f5260205260405f2090565b9060ff19916001838254161790555f526001602052600160405f2091825416179055611efa610a06600254612d58565b5f80516020614f2983398151915260405180611f1884888884612e85565b0390a1611f26818585612f8c565b6001600160a01b0383165f908152600f6020526040902061079090611064565b346104995761090f611f573661050a565b91613a5d565b346104995761090f611f6e3661050a565b9160018060a01b03611f888160115460081c16331461223a565b8116805f525f602052611fac60405f2063617ba03760e01b5f5260205260405f2090565b9060ff19916001838254161790555f526001602052600160405f2091825416179055611fdc610a06600254612d58565b5f80516020614f2983398151915260405180611ffa86868684612eb4565b0390a1610a42838383612c4c565b34610499577ff9a414ea26a64e12a2abdb23706ec196a42adeb564668fb73f46555fbd2336c26105b561203a3661050a565b6011549193916001600160a01b03906120599060081c8216331461223a565b83165f52600860205260405f2060ff198154169055604051938493846122a5565b346104995760203660031901126104995760043561209781610488565b61209f613a45565b6001600160a01b038181169182156120ea5760118054610100600160a81b03198116600893841b610100600160a81b031617909155901c165f80516020614ee98339815191525f80a3005b60405162461bcd60e51b815260206004820152602660248201527f4f776e61626c653a206e6577206f776e657220697320746865207a65726f206160448201526564647265737360d01b6064820152608490fd5b34610499577f9ca3f065622f5f03f32b7157677a0e420c3a36ab45fd49f256ffebce3e3105876105b56121703661050a565b60018060a09593951b0361218c8160115460081c16331461223a565b83165f52600360205260405f2060ff198154169055604051938493846122a5565b34610499577fa8f9caaf4861720900294428e4ff34d37070c37afd26d96e6e4da75326d2c3ad6105b56121df3661050a565b60018060a09593951b036121fb8160115460081c16331461223a565b83165f52600460205260405f20600160ff19825416179055604051938493846122a5565b34610499575f36600319011261049957602060405160018152f35b1561224157565b606460405162461bcd60e51b815260206004820152602060248201527f4f776e61626c653a2063616c6c6572206973206e6f7420746865206f776e65726044820152fd5b908060209392818452848401375f828201840152601f01601f1916010190565b6001600160a01b0390911681526040602082018190526122c793910191612285565b90565b634e487b7160e01b5f52604160045260245ffd5b6001600160401b0381116122f157604052565b6122ca565b60a081019081106001600160401b038211176122f157604052565b601f909101601f19168101906001600160401b038211908210176122f157604052565b6040513d5f823e3d90fd5b60ff60115416908115612350575090565b6001600160a01b03165f908152600e602052604090205460ff16919050565b9061240c5f80516020614f29833981519152939260018060a01b039061239d8260115460081c16331461223a565b1691825f525f60205260405f2093631e51809360e31b94855f5260205260405f2060ff1990600182825416179055845f526001602052600160405f20918254161790556123eb600254612d58565b60025560405194859485526020850152606060408501526060840191612285565b0390a1565b9061240c5f80516020614f29833981519152939260018060a01b039061243f8260115460081c16331461223a565b1691825f525f60205260405f209363b858183f60e01b94855f5260205260405f2060ff1990600182825416179055845f526001602052600160405f20918254161790556123eb600254612d58565b9061240c5f80516020614f29833981519152939260018060a01b03906124bb8260115460081c16331461223a565b1691825f525f60205260405f2093635c11d79560e01b94855f5260205260405f2060ff1990600182825416179055845f526001602052600160405f20918254161790556123eb600254612d58565b9061240c5f80516020614f29833981519152939260018060a01b03906125378260115460081c16331461223a565b1691825f525f60205260405f209363a03d55e360e01b94855f5260205260405f2060ff1990600182825416179055845f526001602052600160405f20918254161790556123eb600254612d58565b9061240c5f80516020614f29833981519152939260018060a01b03906125b38260115460081c16331461223a565b1691825f525f60205260405f209363692652c560e11b94855f5260205260405f2060ff1990600182825416179055845f526001602052600160405f20918254161790556123eb600254612d58565b9061240c5f80516020614f29833981519152939260018060a01b039061262f8260115460081c16331461223a565b1691825f525f60205260405f2093635313efb360e11b94855f5260205260405f2060ff1990600182825416179055845f526001602052600160405f20918254161790556123eb600254612d58565b9061240c5f80516020614f29833981519152939260018060a01b03906126ab8260115460081c16331461223a565b1691825f525f60205260405f2093636e553f6560e01b94855f5260205260405f2060ff1990600182825416179055845f526001602052600160405f20918254161790556123eb600254612d58565b9061240c5f80516020614f29833981519152939260018060a01b03906127278260115460081c16331461223a565b1691825f525f60205260405f2093632d182be560e21b94855f5260205260405f2060ff1990600182825416179055845f526001602052600160405f20918254161790556123eb600254612d58565b9061240c5f80516020614f29833981519152939260018060a01b03906127a38260115460081c16331461223a565b1691825f525f60205260405f2093635d043b2960e11b94855f5260205260405f2060ff1990600182825416179055845f526001602052600160405f20918254161790556123eb600254612d58565b9061240c5f80516020614f29833981519152939260018060a01b039061281f8260115460081c16331461223a565b1691825f525f60205260405f2093638dbdbe6d60e01b94855f5260205260405f2060ff1990600182825416179055845f526001602052600160405f20918254161790556123eb600254612d58565b9061240c5f80516020614f29833981519152939260018060a01b039061289b8260115460081c16331461223a565b1691825f525f60205260405f209362b4d4cb60e11b94855f5260205260405f2060ff1990600182825416179055845f526001602052600160405f20918254161790556123eb600254612d58565b9061240c5f80516020614f29833981519152939260018060a01b03906129168260115460081c16331461223a565b1691825f525f60205260405f2093630b8b4a6160e21b94855f5260205260405f2060ff1990600182825416179055845f526001602052600160405f20918254161790556123eb600254612d58565b9061240c5f80516020614f29833981519152939260018060a01b03906129928260115460081c16331461223a565b1691825f525f60205260405f2093633ea0e43760e11b94855f5260205260405f2060ff1990600182825416179055845f526001602052600160405f20918254161790556123eb600254612d58565b9061240c5f80516020614f29833981519152939260018060a01b0390612a0e8260115460081c16331461223a565b1691825f525f60205260405f20936319792d1d60e11b94855f5260205260405f2060ff1990600182825416179055845f526001602052600160405f20918254161790556123eb600254612d58565b9061240c5f80516020614f29833981519152939260018060a01b0390612a8a8260115460081c16331461223a565b1691825f525f60205260405f20936385b77f4560e01b94855f5260205260405f2060ff1990600182825416179055845f526001602052600160405f20918254161790556123eb600254612d58565b9061240c5f80516020614f29833981519152939260018060a01b0390612b068260115460081c16331461223a565b1691825f525f60205260405f209363a8abe90560e01b94855f5260205260405f2060ff1990600182825416179055845f526001602052600160405f20918254161790556123eb600254612d58565b9061240c5f80516020614f29833981519152939260018060a01b0390612b828260115460081c16331461223a565b1691825f525f60205260405f209363322dda6d60e01b94855f5260205260405f2060ff1990600182825416179055845f526001602052600160405f20918254161790556123eb600254612d58565b9061240c5f80516020614f29833981519152939260018060a01b0390612bfe8260115460081c16331461223a565b1691825f525f60205260405f2093634c61684360e11b94855f5260205260405f2060ff1990600182825416179055845f526001602052600160405f20918254161790556123eb600254612d58565b9061240c5f80516020614f29833981519152939260018060a01b0390612c7a8260115460081c16331461223a565b1691825f525f60205260405f2093631a4ca37b60e21b94855f5260205260405f2060ff1990600182825416179055845f526001602052600160405f20918254161790556123eb600254612d58565b9061240c5f80516020614f29833981519152939260018060a01b0390612cf68260115460081c16331461223a565b1691825f525f60205260405f209363095ea7b360e01b94855f5260205260405f2060ff1990600182825416179055845f526001602052600160405f20918254161790556123eb600254612d58565b634e487b7160e01b5f52601160045260245ffd5b5f198114612d665760010190565b612d44565b6001600160a01b03909116815263c04b8d5960e01b60208201526060604082018190526122c793910191612285565b6001600160a01b0390911681526338ed173960e01b60208201526060604082018190526122c793910191612285565b6001600160a01b03909116815263559ec80d60e01b60208201526060604082018190526122c793910191612285565b6001600160a01b039091168152631592ca1b60e31b60208201526060604082018190526122c793910191612285565b6001600160a01b039091168152630c04a8a160e41b60208201526060604082018190526122c793910191612285565b6001600160a01b039091168152632df4869b60e01b60208201526060604082018190526122c793910191612285565b6001600160a01b039091168152634701287760e11b60208201526060604082018190526122c793910191612285565b6001600160a01b03909116815263617ba03760e01b60208201526060604082018190526122c793910191612285565b6001600160a01b0390911681526001600160e01b031990911660208201526060604082018190526122c793910191612285565b6001600160a01b039182168152911660208201526060604082018190526122c793910191612285565b5190612f4a82610488565b565b9081602091031261049957516122c781610488565b61240c5f80516020614f098339815191529360018060a01b0361150e8160115460081c16331461223a565b61240c5f80516020614ec98339815191529360018060a01b036115fe8160115460081c16331461223a565b6040519060e082016001600160401b038111838210176122f157604052565b6040519061012082016001600160401b038111838210176122f157604052565b6001600160401b0381116122f15760051b60200190565b9061301782612ff6565b6130246040519182612311565b8281528092613035601f1991612ff6565b01905f5b82811061304557505050565b806060602080938501015201613039565b634e487b7160e01b5f52603260045260245ffd5b91908110156130ab5760051b81013590601e19813603018212156104995701803591906001600160401b038311610499576020018236038113610499579190565b613056565b908092918237015f815290565b6001600160401b0381116122f157601f01601f191660200190565b3d15613102573d906130e9826130bd565b916130f76040519384612311565b82523d5f602084013e565b606090565b90929192613114816130bd565b916131226040519384612311565b829482845282820111610499576020612f4a930190611741565b602081830312610499578051906001600160401b03821161049957019080601f830112156104995781516122c792602001613107565b9060206122c7928181520190611762565b80518210156130ab5760209160051b010190565b60409063ffffffff6122c795931681528160208201520191612285565b60ff601154169081156131c5575090565b6001600160a01b03165f9081526003602052604090205460ff16919050565b6001600160a01b03165f9081526005602052604090205460ff1690565b1561320857565b60405162461bcd60e51b815260206004820152601260248201527114d95b99195c881b9bdd08185b1b1bddd95960721b6044820152606490fd5b906004116104995790600490565b909291928360041161049957831161049957600401916003190190565b6001600160e01b0319903581811693926004811061328a57505050565b60040360031b82901b16169150565b156132a057565b60405162461bcd60e51b815260206004820152601260248201527115185c99d95d081b9bdd08185b1b1bddd95960721b6044820152606490fd5b156132e157565b60405162461bcd60e51b815260206004820152601460248201527314d95b1958dd1bdc881b9bdd08185b1b1bddd95960621b6044820152606490fd5b919082604091031261049957815162ffffff81168103610499576020909201516122c781610488565b1561334d57565b60405162461bcd60e51b815260206004820152600760248201526621ab903932b1bb60c91b6044820152606490fd5b929192613388826130bd565b916133966040519384612311565b829481845281830111610499578281602093845f960137010152565b156133b957565b60405162461bcd60e51b815260206004820152601e60248201527f53776170526f75746572303220726571756972657320616e79417373657400006044820152606490fd5b60115491939192906001600160a01b03808216600886901c90911614613678576001600160a01b03165f90815260046020526040902060ff9261346a916134509061344b905b5460ff1690565b613201565b8061346461345e8286613242565b9061326d565b93613250565b9290931680613a2b575b6001600160e01b03198216916317938e1360e01b83149182908115613a1a575b159081613a11575b506139ad575b506338ed173960e01b82036134c9575050612f4a9250906134c491369161337c565b614536565b635c11d79560e01b82036134ea575050612f4a9250906134c491369161337c565b63c04b8d5960e01b8203613510575050612f4a92509061350b91369161337c565b61440b565b63b858183f60e01b8203613537575050505050612f4a61353260115460ff1690565b6133b2565b63a9059cbb60e01b820361355d575050612f4a92509061355891369161337c565b6143c7565b63095ea7b360e01b8203613583575050612f4a92509061357e91369161337c565b61434f565b630c04a8a160e41b82036135a9575050612f4a9250906135a491369161337c565b6142d5565b63617ba03760e01b82036135cf575050612f4a9250906135ca91369161337c565b614280565b631a4ca37b60e21b82036135f5575050612f4a9250906135f091369161337c565b614222565b63559ec80d60e01b82036136105750505050612f4a90614188565b63a03d55e360e01b820361362b5750505050612f4a90614188565b63692652c560e11b82036136465750505050612f4a90614188565b635313efb360e11b82036136615750505050612f4a90614188565b636e553f6560e01b8214801561399d575b1561367f575b5050505050565b638dbdbe6d60e01b82036136af5750506136a59250906136a091369161337c565b61416e565b5f80808080613678565b62b4d4cb60e11b82036136d95750506136d49250906136cf91369161337c565b61414d565b6136a5565b632d182be560e21b82036136ff5750506136d49250906136fa91369161337c565b614102565b635d043b2960e11b82036137205750506136d49250906136fa91369161337c565b633ea0e43760e11b82036137415750506136d49250906136fa91369161337c565b6319792d1d60e11b82036137625750506136d49250906136fa91369161337c565b637a4880bb60e01b820161377b575b50505050506136a5565b63575416fb60e01b82011561377157632df4869b60e01b82036137b25750506137a69250369161337c565b505b5f80808080613771565b63322dda6d60e01b82036137d45750506137ce9250369161337c565b506137a8565b634c61684360e11b82036137f05750506137ce9250369161337c565b919291631592ca1b60e31b820361381157505061380c92613e9d565b6137a8565b634701287760e11b820361382a57505061380c92613bef565b156138e2575060409192613851835194859384936388ea783f60e01b8552600485016122a5565b038173__$bb84f48f443ebf59904c3f186f7cc5264f$__5af4908115610911575f905f926138a7575b5062ffffff1660061461388d57506137a8565b61389c6134446138a192610605565b613346565b5f6137ce565b62ffffff9250600691506138d29060403d6040116138db575b6138ca8183612311565b81019061331d565b9290915061387a565b503d6138c0565b630acb7f4b60e21b1415915061395c90505773__$bb84f48f443ebf59904c3f186f7cc5264f$__803b15610499576040516367bc52cb60e01b81526001600160a01b039290921660048301525f90829060249082905af480156109115761394957506137a8565b806139566138a1926122de565b80610b32565b60405162461bcd60e51b81526020600482015260196024820152782ab735b737bbb710333ab731ba34b7b71039b2b632b1ba37b960391b6044820152606490fd5b50630b8b4a6160e21b8214613672565b6139c96139c5613444836139c08a6105ec565b6116d1565b1590565b156134a257613a06613444613a0b926139fd6139f86134448b60018060a01b03165f52600160205260405f2090565b613299565b6139c0896105ec565b6132da565b5f6134a2565b9050155f61349c565b630acb7f4b60e21b85149150613494565b506001600160e01b0319811663095ea7b360e01b14613474565b612f4a60018060a01b0360115460081c16331461223a565b90612f4a92915f80516020614f2983398151915260018060a01b03613a8a8160115460081c16331461223a565b8216805f525f60205260405f2063a9059cbb60e01b90815f5260205260405f2060ff1990600182825416179055825f526001602052600160405f2091825416179055613ad7600254612d58565b60025560405191825260208201526060604082015280613afb606082018787612285565b0390a1613b09838383612cc8565b612f61565b15613b1557565b60405162461bcd60e51b815260206004820152601c60248201527b10d0d5140819195cdd1a5b985d1a5bdb881b9bdd08185b1b1bddd95960221b6044820152606490fd5b15613b6057565b60405162461bcd60e51b815260206004820152601b60248201527a10d0d51408189d5c9b881d1bdad95b881b9bdd08185b1b1bddd959602a1b6044820152606490fd5b15613baa57565b60405162461bcd60e51b815260206004820152601f60248201527f43435450206d696e7420726563697069656e74206e6f7420616c6c6f776564006044820152606490fd5b909160018060a01b038092165f52600f60205260ff60405f20541615613c91578260e091810103126104995761344481604084613c84613c7f613c8c96613c3b6020612f4a9a01611324565b613c79613c74613444606088013593613c5385610488565b613c5f60c08a01611324565b5063ffffffff165f52601060205260405f2090565b613b0e565b166131b4565b613b59565b013516610605565b613ba3565b60405162461bcd60e51b815260206004820152601a60248201527910d0d514081b595cdcd95b99d95c881b9bdd08185b1b1bddd95960321b6044820152606490fd5b15613cda57565b60405162461bcd60e51b815260206004820152601660248201527511d356081c9bdd5d195c881b9bdd08185b1b1bddd95960521b6044820152606490fd5b15613d1f57565b60405162461bcd60e51b815260206004820152601d60248201527f474d58206f726465725661756c74206e6f7420636f6e666967757265640000006044820152606490fd5b906020908183820312610499576001600160401b039280359084821161049957019080601f83011215610499578135613d9c81612ff6565b94604090613dad6040519788612311565b828752858088019360051b8601019484861161049957868101935b868510613dda57505050505050505090565b843583811161049957820186603f82011215610499578891613e048883888680960135910161337c565b815201940193613dc8565b15613e1657565b60405162461bcd60e51b815260206004820152601360248201527211d3560e8818d85b1b081d1bdbc81cda1bdc9d606a1b6044820152606490fd5b8051156130ab5760200190565b8051600110156130ab5760210190565b8051600210156130ab5760220190565b8051600310156130ab5760230190565b600319810191908211612d6657565b90613ed1613ec4613eee93959495613ebf613eba613444836105d3565b613cd3565b6105ba565b546001600160a01b031690565b93613ee66001600160a01b0386161515613d18565b810190613d64565b915f5b83518110156140b557816004613f1481613f0b8589613183565b51511015613e0f565b613f48613f3b613f2d613f27868a613183565b51613e51565b516001600160f81b03191690565b6001600160f81b03191690565b613f72613f64613f3b613f2d613f5e888c613183565b51613e5e565b60081c62ffffff60e01b1690565b17613f9c613f8f613f3b613f2d613f89888c613183565b51613e6e565b60101c61ffff60e01b1690565b17613fc5613fb9613f3b613f2d613fb3888c613183565b51613e7e565b60181c60ff60e01b1690565b1790613fef613fd48589613183565b51613fe9613fe2878b613183565b5151613e8e565b90614667565b916001600160e01b031916637d39aaf160e01b810361401d5750506001929161401791614cd3565b01613ef1565b631cdacd5960e31b810361403f5750506001929161403a91614bf2565b614017565b9192509063f59c48eb60e01b0361405d57509061403a600192614b47565b6118e99060405191829162461bcd60e51b8352820160809060208152602260208201527f474d583a20556e6b6e6f776e2066756e6374696f6e20696e206d756c746963616040820152611b1b60f21b60608201520190565b50509050565b156140c257565b60405162461bcd60e51b8152602060048201526018602482015277149958d95a5d995c881b9bdd081dda1a5d195b1a5cdd195960421b6044820152606490fd5b6060818051810103126104995761412a606060408301519261412384610488565b0151610488565b6001600160a01b03165f90815260056020526040902054612f4a9060ff166140bb565b6080818051810103126104995761412a608060608301519261412384610488565b606081805181010312610499576060015161412a81610488565b6001600160a01b03165f9081526009602052604090205460ff16156141a957565b60405162461bcd60e51b815260206004820152601160248201527015985d5b1d081b9bdd08185b1b1bddd959607a1b6044820152606490fd5b156141e957565b60405162461bcd60e51b8152602060048201526011602482015270151bdad95b881b9bdd08185b1b1bddd959607a1b6044820152606490fd5b60608180518101031261049957606060208201519161424083610488565b015161424b81610488565b6001600160a01b0391614268906142639084166131b4565b6141e2565b165f526005602052612f4a60ff60405f2054166140bb565b60808180518101031261049957614263816142a860606020612f4a9501519261412384610488565b6001600160a01b03166131b4565b919082604091031261049957602082516142cf81610488565b92015190565b6142e890602080825183010191016142b6565b506001600160a01b03165f9081526008602052604090205460ff161561430a57565b60405162461bcd60e51b815260206004820152601e60248201527f44656c65676174696f6e2061646472657373206e6f7420616c6c6f77656400006044820152606490fd5b61436290602080825183010191016142b6565b506001600160a01b03165f9081526007602052604090205460ff161561438457565b60405162461bcd60e51b815260206004820152601b60248201527a105c1c1c9bdd99481859191c995cdcc81b9bdd08185b1b1bddd959602a1b6044820152606490fd5b6143da90602080825183010191016142b6565b506001600160a01b03165f90815260066020526040902054612f4a9060ff166140bb565b516001600160a01b031690565b805190602091810182810192808383031261049957828101516001600160401b0393908481116104995760a0910180930312610499576040519261444e846122f6565b818301519081116104995782019084603f830112156104995760a06144c593614485612f4a97856040866144c09801519101613107565b865261449360408201612f3f565b809387015260608101516040870152608081015160608701520151608085015260018060a01b03166131e4565b6140bb565b51614d40565b9080601f83011215610499578151906020916144e681612ff6565b936144f46040519586612311565b81855260208086019260051b82010192831161049957602001905b82821061451d575050505090565b838091835161452b81610488565b81520191019061450f565b908151820160a0838203126104995760608301516001600160401b0381116104995761344460806145756144c09360208061458f9701918901016144cb565b95015161458181610488565b6001600160a01b0316610605565b5f5b82518110156145bb57806145b5614263611ba76145b060019588613183565b6143fe565b01614591565b509050565b90601f8201809211612d6657565b6004019081600411612d6657565b6017019081601711612d6657565b156145f157565b60405162461bcd60e51b815260206004820152600e60248201526d736c6963655f6f766572666c6f7760901b6044820152606490fd5b1561462e57565b60405162461bcd60e51b8152602060048201526011602482015270736c6963655f6f75744f66426f756e647360781b6044820152606490fd5b61467b82614674816145c0565b10156145ea565b6146896004614674846145ce565b61469e8151614697846145ce565b1115614627565b816146b55750506040515f81526020810160405290565b60405191601f8116916004831560051b80858701019484860193010101905b8084106146ec5750508252601f01601f191660405290565b90928351815260208091019301906146d4565b91909160e08184031261049957614714612fb7565b9261471e82612f3f565b845261472c60208301612f3f565b602085015261473d60408301612f3f565b604085015261474e60608301612f3f565b606085015261475f60808301612f3f565b608085015261477060a08301612f3f565b60a085015260c08201516001600160401b0381116104995761479292016144cb565b60c0830152565b8092916101009182910312610499576040519081016001600160401b038111828210176122f15760405260e0808294805184526020810151602085015260408101516040850152606081015160608501526080810151608085015260a081015160a085015260c081015160c08501520151910152565b519060ff8216820361049957565b5190612f4a82611ad5565b9080601f830112156104995781519060209161484381612ff6565b936148516040519586612311565b81855260208086019260051b82010192831161049957602001905b82821061487a575050505090565b8151815290830190830161486c565b906020828203126104995781516001600160401b039283821161049957019061020082820312610499576148bb612fd6565b92825181811161049957826148d19185016146ff565b84526148e08260208501614799565b60208501526148f2610120840161480f565b6040850152614904610140840161480f565b6060850152614916610160840161481d565b6080850152614928610180840161481d565b60a085015261493a6101a0840161481d565b60c08501526101c083015160e08501526101e0830151908111610499576149619201614828565b61010082015290565b1561497157565b60405162461bcd60e51b815260206004820152602960248201527f474d58206372656174654f726465723a207265636569766572206e6f742077686044820152681a5d195b1a5cdd195960ba1b6064820152608490fd5b156149cf57565b60405162461bcd60e51b815260206004820152603560248201527f474d58206372656174654f726465723a2063616e63656c6c6174696f6e526563604482015274195a5d995c881b9bdd081dda1a5d195b1a5cdd1959605a1b6064820152608490fd5b15614a3957565b60405162461bcd60e51b815260206004820152602360248201527f474d58206372656174654f726465723a206d61726b6574206e6f7420616c6c6f6044820152621dd95960ea1b6064820152608490fd5b15614a9157565b60405162461bcd60e51b815260206004820152602760248201527f474d58206372656174654f726465723a20636f6c6c61746572616c206e6f7420604482015266185b1b1bddd95960ca1b6064820152608490fd5b15614aed57565b60405162461bcd60e51b815260206004820152602c60248201527f474d58206372656174654f726465723a207377617050617468206d61726b657460448201526b081b9bdd08185b1b1bddd95960a21b6064820152608490fd5b614b5a9060208082518301019101614889565b614b6f614b6a611bce83516143fe565b61496a565b614b87614b82611bce60208451016143fe565b6149c8565b614b9f614b9a61093860808451016143fe565b614a32565b614bb7614bb2611ba760a08451016143fe565b614a8a565b5f5b60c0825101518051821015614bed5781614be5614be06109386145b060c096600196613183565b614ae6565b019050614bb9565b505050565b90606082805181010312610499576040602083015192614c1184610488565b0151614c1c81610488565b6001600160a01b0391821690821603614c8f57614c3991166131b4565b15614c4057565b60405162461bcd60e51b815260206004820152602160248201527f474d582073656e64546f6b656e733a20746f6b656e206e6f7420616c6c6f77656044820152601960fa1b6064820152608490fd5b606460405162461bcd60e51b815260206004820152602060248201527f474d582073656e64546f6b656e733a20696e76616c69642072656365697665726044820152fd5b614ce690602080825183010191016142b6565b506001600160a01b03918216911603614cfb57565b60405162461bcd60e51b815260206004820152601d60248201527f474d582073656e64576e743a20696e76616c69642072656365697665720000006044820152606490fd5b6014614d4f8183511015614e6b565b60208083015160601c916017845110614d94575050614263614d7a91611ba7614263611ba786614eaf565b8051604211614d9157614d8c90614dce565b614d40565b50565b606492506040519162461bcd60e51b83526004830152602482015273746f55696e7432345f6f75744f66426f756e647360601b6044820152fd5b80516016199182820190828211612d6657614dec82614674816145c0565b614dfa6017614674846145dc565b614e088151614697846145dc565b81614e2157505050506040515f81526020810160405290565b601760405194601f8416801560051b9182828901019687010193010101905b808410614e585750508252601f01601f191660405290565b9092835181526020809101930190614e40565b15614e7257565b60405162461bcd60e51b8152602060048201526015602482015274746f416464726573735f6f75744f66426f756e647360581b6044820152606490fd5b603790614ec0602b82511015614e6b565b015160601c9056fe628a44970c0e450415e3ae74334ea44f3307b74dbf677a1371190242bf2f35898be0079c531659141344cd1fd0a4f28419497f9722a3daafe3b4186f6b6457e0ad90e2570fc4fe9f7437be3188d5c791c6662892d31731992aa88f5c87621983ef729aaa41b9fd994f9ff7c1960df214a84f722002e6cfbea31799cd0873a3efa26469706673582212205518b59a42e5f1498685e8e851d9831e1df07546e051f5d99bbb0f14b233dd8b64736f6c63430008170033","linkReferences":{"src/lib/HypercoreVault.sol":{"HypercoreVaultLib":[{"start":2342,"length":20},{"start":6545,"length":20},{"start":7697,"length":20},{"start":14533,"length":20},{"start":14694,"length":20}]}}},"methodIdentifiers":{"_SIGN_COOLDOWN()":"3ffb788e","allowApprovalDestination(address,string)":"98b3cc39","allowAsset(address,string)":"86b6dbe5","allowCallSite(address,bytes4,string)":"5e4ccace","allowDelegationApprovalDestination(address,string)":"63cc17f2","allowReceiver(address,string)":"72e548a9","allowSender(address,string)":"fa2c59c8","allowWithdrawDestination(address,string)":"5ace1d92","allowedApprovalDestinations(address)":"eb0de042","allowedAssets(address)":"a4c1cccb","allowedCCTPDestinations(uint32)":"7cac69c3","allowedCCTPMessengers(address)":"07605342","allowedCallSites(address,bytes4)":"a847cf4d","allowedCowSwaps(address)":"47566064","allowedDelegationApprovalDestinations(address)":"4b941268","allowedGMXMarkets(address)":"0985b046","allowedGMXRouters(address)":"4c03f1f8","allowedLagoonVaults(address)":"8fb4dff2","allowedReceivers(address)":"3cf20025","allowedSenders(address)":"fadbcf48","allowedTargets(address)":"b8fe8d5f","allowedVeloraSwappers(address)":"b45ea48b","allowedWithdrawDestinations(address)":"07ef00cf","anyAsset()":"87301608","callSiteCount()":"a9fc3d4f","getGovernanceAddress()":"73252494","getInternalVersion()":"fdedfa27","gmxOrderVaults(address)":"a86ddc57","isAllowedApprovalDestination(address)":"1d49039c","isAllowedAsset(address)":"c537bed0","isAllowedCCTPDestination(uint32)":"748fca46","isAllowedCCTPMessenger(address)":"0411fb8e","isAllowedCallSite(address,bytes4)":"713ebf3b","isAllowedCowSwap(address)":"333f22e8","isAllowedDelegationApprovalDestination(address)":"2dc32a61","isAllowedGMXMarket(address)":"2e31e9c6","isAllowedGMXRouter(address)":"cbdb1dcf","isAllowedLagoonVault(address)":"6fd7fdef","isAllowedReceiver(address)":"d075f9bb","isAllowedSender(address)":"be8c97b0","isAllowedTarget(address)":"78addb48","isAllowedVeloraSwapper(address)":"f84756aa","isAllowedWithdrawDestination(address)":"efb47bff","multicall(bytes[])":"ac9650d8","owner()":"8da5cb5b","removeApprovalDestination(address,string)":"04a3ba25","removeAsset(address,string)":"f901dc33","removeCCTPDestination(uint32,string)":"ba44ad41","removeCallSite(address,bytes4,string)":"d7334c9d","removeDelegationApprovalDestination(address,string)":"f259a073","removeGMXMarket(address,string)":"4d3d31ca","removeHypercoreVault(address,string)":"e2873b6d","removeReceiver(address,string)":"2d12d788","removeSender(address,string)":"a67e1f54","removeWithdrawDestination(address,string)":"8c2fdf9e","renounceOwnership()":"715018a6","setAnyAssetAllowed(bool,string)":"c2e657ae","transferOwnership(address)":"f2fde38b","validateCall(address,address,bytes)":"6d5025f1","whitelistAaveV3(address,string)":"f20e85e0","whitelistCCTP(address,string)":"ec011440","whitelistCCTPDestination(uint32,string)":"e6f32c51","whitelistCoreWriter(address,address,string)":"acb9da16","whitelistCowSwap(address,address,string)":"1047789e","whitelistERC4626(address,string)":"86a6ae15","whitelistGMX(address,address,address,string)":"62d6775e","whitelistGMXMarket(address,string)":"d7581509","whitelistHypercoreVault(address,string)":"2de905bc","whitelistLagoon(address,string)":"5e6afe4d","whitelistOrderly(address,string)":"db17a170","whitelistToken(address,string)":"ee5462cc","whitelistTokenForDelegation(address,string)":"6d9a1423","whitelistUniswapV2Router(address,string)":"3ea35551","whitelistUniswapV3Router(address,string)":"34ec8d7e","whitelistVelora(address,address,string)":"4efbad39"},"id":2}