{"abi":[{"type":"constructor","inputs":[],"stateMutability":"nonpayable"},{"type":"function","name":"allowApprovalDestination","inputs":[{"name":"destination","type":"address","internalType":"address"},{"name":"notes","type":"string","internalType":"string"}],"outputs":[],"stateMutability":"nonpayable"},{"type":"function","name":"allowAsset","inputs":[{"name":"asset","type":"address","internalType":"address"},{"name":"notes","type":"string","internalType":"string"}],"outputs":[],"stateMutability":"nonpayable"},{"type":"function","name":"allowCallSite","inputs":[{"name":"target","type":"address","internalType":"address"},{"name":"selector","type":"bytes4","internalType":"bytes4"},{"name":"notes","type":"string","internalType":"string"}],"outputs":[],"stateMutability":"nonpayable"},{"type":"function","name":"allowDelegationApprovalDestination","inputs":[{"name":"destination","type":"address","internalType":"address"},{"name":"notes","type":"string","internalType":"string"}],"outputs":[],"stateMutability":"nonpayable"},{"type":"function","name":"allowReceiver","inputs":[{"name":"receiver","type":"address","internalType":"address"},{"name":"notes","type":"string","internalType":"string"}],"outputs":[],"stateMutability":"nonpayable"},{"type":"function","name":"allowSender","inputs":[{"name":"sender","type":"address","internalType":"address"},{"name":"notes","type":"string","internalType":"string"}],"outputs":[],"stateMutability":"nonpayable"},{"type":"function","name":"allowWithdrawDestination","inputs":[{"name":"destination","type":"address","internalType":"address"},{"name":"notes","type":"string","internalType":"string"}],"outputs":[],"stateMutability":"nonpayable"},{"type":"function","name":"allowedApprovalDestinations","inputs":[{"name":"destination","type":"address","internalType":"address"}],"outputs":[{"name":"allowed","type":"bool","internalType":"bool"}],"stateMutability":"view"},{"type":"function","name":"allowedAssets","inputs":[{"name":"token","type":"address","internalType":"address"}],"outputs":[{"name":"allowed","type":"bool","internalType":"bool"}],"stateMutability":"view"},{"type":"function","name":"allowedCCTPDestinations","inputs":[{"name":"domain","type":"uint32","internalType":"uint32"}],"outputs":[{"name":"allowed","type":"bool","internalType":"bool"}],"stateMutability":"view"},{"type":"function","name":"allowedCCTPMessengers","inputs":[{"name":"messenger","type":"address","internalType":"address"}],"outputs":[{"name":"allowed","type":"bool","internalType":"bool"}],"stateMutability":"view"},{"type":"function","name":"allowedCallSites","inputs":[{"name":"target","type":"address","internalType":"address"},{"name":"selector","type":"bytes4","internalType":"bytes4"}],"outputs":[{"name":"allowed","type":"bool","internalType":"bool"}],"stateMutability":"view"},{"type":"function","name":"allowedDelegationApprovalDestinations","inputs":[{"name":"destination","type":"address","internalType":"address"}],"outputs":[{"name":"allowed","type":"bool","internalType":"bool"}],"stateMutability":"view"},{"type":"function","name":"allowedLagoonVaults","inputs":[{"name":"destination","type":"address","internalType":"address"}],"outputs":[{"name":"allowed","type":"bool","internalType":"bool"}],"stateMutability":"view"},{"type":"function","name":"allowedReceivers","inputs":[{"name":"receiver","type":"address","internalType":"address"}],"outputs":[{"name":"allowed","type":"bool","internalType":"bool"}],"stateMutability":"view"},{"type":"function","name":"allowedSenders","inputs":[{"name":"sender","type":"address","internalType":"address"}],"outputs":[{"name":"allowed","type":"bool","internalType":"bool"}],"stateMutability":"view"},{"type":"function","name":"allowedTargets","inputs":[{"name":"target","type":"address","internalType":"address"}],"outputs":[{"name":"allowed","type":"bool","internalType":"bool"}],"stateMutability":"view"},{"type":"function","name":"allowedVeloraSwappers","inputs":[{"name":"destination","type":"address","internalType":"address"}],"outputs":[{"name":"allowed","type":"bool","internalType":"bool"}],"stateMutability":"view"},{"type":"function","name":"allowedWithdrawDestinations","inputs":[{"name":"destination","type":"address","internalType":"address"}],"outputs":[{"name":"allowed","type":"bool","internalType":"bool"}],"stateMutability":"view"},{"type":"function","name":"anyAsset","inputs":[],"outputs":[{"name":"","type":"bool","internalType":"bool"}],"stateMutability":"view"},{"type":"function","name":"callSiteCount","inputs":[],"outputs":[{"name":"","type":"uint256","internalType":"uint256"}],"stateMutability":"view"},{"type":"function","name":"getGovernanceAddress","inputs":[],"outputs":[{"name":"","type":"address","internalType":"address"}],"stateMutability":"view"},{"type":"function","name":"getInternalVersion","inputs":[],"outputs":[{"name":"","type":"uint8","internalType":"uint8"}],"stateMutability":"pure"},{"type":"function","name":"gmxOrderVaults","inputs":[{"name":"exchangeRouter","type":"address","internalType":"address"}],"outputs":[{"name":"","type":"address","internalType":"address"}],"stateMutability":"view"},{"type":"function","name":"isAllowedApprovalDestination","inputs":[{"name":"receiver","type":"address","internalType":"address"}],"outputs":[{"name":"","type":"bool","internalType":"bool"}],"stateMutability":"view"},{"type":"function","name":"isAllowedAsset","inputs":[{"name":"token","type":"address","internalType":"address"}],"outputs":[{"name":"","type":"bool","internalType":"bool"}],"stateMutability":"view"},{"type":"function","name":"isAllowedCCTPDestination","inputs":[{"name":"domain","type":"uint32","internalType":"uint32"}],"outputs":[{"name":"","type":"bool","internalType":"bool"}],"stateMutability":"view"},{"type":"function","name":"isAllowedCCTPMessenger","inputs":[{"name":"messenger","type":"address","internalType":"address"}],"outputs":[{"name":"","type":"bool","internalType":"bool"}],"stateMutability":"view"},{"type":"function","name":"isAllowedCallSite","inputs":[{"name":"target","type":"address","internalType":"address"},{"name":"selector","type":"bytes4","internalType":"bytes4"}],"outputs":[{"name":"","type":"bool","internalType":"bool"}],"stateMutability":"view"},{"type":"function","name":"isAllowedCowSwap","inputs":[{"name":"settlement","type":"address","internalType":"address"}],"outputs":[{"name":"","type":"bool","internalType":"bool"}],"stateMutability":"view"},{"type":"function","name":"isAllowedDelegationApprovalDestination","inputs":[{"name":"receiver","type":"address","internalType":"address"}],"outputs":[{"name":"","type":"bool","internalType":"bool"}],"stateMutability":"view"},{"type":"function","name":"isAllowedGMXMarket","inputs":[{"name":"market","type":"address","internalType":"address"}],"outputs":[{"name":"","type":"bool","internalType":"bool"}],"stateMutability":"view"},{"type":"function","name":"isAllowedGMXRouter","inputs":[{"name":"router","type":"address","internalType":"address"}],"outputs":[{"name":"","type":"bool","internalType":"bool"}],"stateMutability":"view"},{"type":"function","name":"isAllowedLagoonVault","inputs":[{"name":"vault","type":"address","internalType":"address"}],"outputs":[{"name":"","type":"bool","internalType":"bool"}],"stateMutability":"view"},{"type":"function","name":"isAllowedReceiver","inputs":[{"name":"receiver","type":"address","internalType":"address"}],"outputs":[{"name":"","type":"bool","internalType":"bool"}],"stateMutability":"view"},{"type":"function","name":"isAllowedSender","inputs":[{"name":"sender","type":"address","internalType":"address"}],"outputs":[{"name":"","type":"bool","internalType":"bool"}],"stateMutability":"view"},{"type":"function","name":"isAllowedTarget","inputs":[{"name":"target","type":"address","internalType":"address"}],"outputs":[{"name":"","type":"bool","internalType":"bool"}],"stateMutability":"view"},{"type":"function","name":"isAllowedVeloraSwapper","inputs":[{"name":"swapper","type":"address","internalType":"address"}],"outputs":[{"name":"","type":"bool","internalType":"bool"}],"stateMutability":"view"},{"type":"function","name":"isAllowedWithdrawDestination","inputs":[{"name":"receiver","type":"address","internalType":"address"}],"outputs":[{"name":"","type":"bool","internalType":"bool"}],"stateMutability":"view"},{"type":"function","name":"multicall","inputs":[{"name":"data","type":"bytes[]","internalType":"bytes[]"}],"outputs":[{"name":"results","type":"bytes[]","internalType":"bytes[]"}],"stateMutability":"payable"},{"type":"function","name":"owner","inputs":[],"outputs":[{"name":"","type":"address","internalType":"address"}],"stateMutability":"view"},{"type":"function","name":"removeApprovalDestination","inputs":[{"name":"destination","type":"address","internalType":"address"},{"name":"notes","type":"string","internalType":"string"}],"outputs":[],"stateMutability":"nonpayable"},{"type":"function","name":"removeAsset","inputs":[{"name":"asset","type":"address","internalType":"address"},{"name":"notes","type":"string","internalType":"string"}],"outputs":[],"stateMutability":"nonpayable"},{"type":"function","name":"removeCCTPDestination","inputs":[{"name":"domain","type":"uint32","internalType":"uint32"},{"name":"notes","type":"string","internalType":"string"}],"outputs":[],"stateMutability":"nonpayable"},{"type":"function","name":"removeCallSite","inputs":[{"name":"target","type":"address","internalType":"address"},{"name":"selector","type":"bytes4","internalType":"bytes4"},{"name":"notes","type":"string","internalType":"string"}],"outputs":[],"stateMutability":"nonpayable"},{"type":"function","name":"removeDelegationApprovalDestination","inputs":[{"name":"destination","type":"address","internalType":"address"},{"name":"notes","type":"string","internalType":"string"}],"outputs":[],"stateMutability":"nonpayable"},{"type":"function","name":"removeGMXMarket","inputs":[{"name":"market","type":"address","internalType":"address"},{"name":"notes","type":"string","internalType":"string"}],"outputs":[],"stateMutability":"nonpayable"},{"type":"function","name":"removeHypercoreVault","inputs":[{"name":"vault","type":"address","internalType":"address"},{"name":"notes","type":"string","internalType":"string"}],"outputs":[],"stateMutability":"nonpayable"},{"type":"function","name":"removeReceiver","inputs":[{"name":"receiver","type":"address","internalType":"address"},{"name":"notes","type":"string","internalType":"string"}],"outputs":[],"stateMutability":"nonpayable"},{"type":"function","name":"removeSender","inputs":[{"name":"sender","type":"address","internalType":"address"},{"name":"notes","type":"string","internalType":"string"}],"outputs":[],"stateMutability":"nonpayable"},{"type":"function","name":"removeWithdrawDestination","inputs":[{"name":"destination","type":"address","internalType":"address"},{"name":"notes","type":"string","internalType":"string"}],"outputs":[],"stateMutability":"nonpayable"},{"type":"function","name":"renounceOwnership","inputs":[],"outputs":[],"stateMutability":"nonpayable"},{"type":"function","name":"setAnyAssetAllowed","inputs":[{"name":"value","type":"bool","internalType":"bool"},{"name":"notes","type":"string","internalType":"string"}],"outputs":[],"stateMutability":"nonpayable"},{"type":"function","name":"transferOwnership","inputs":[{"name":"newOwner","type":"address","internalType":"address"}],"outputs":[],"stateMutability":"nonpayable"},{"type":"function","name":"validateCall","inputs":[{"name":"sender","type":"address","internalType":"address"},{"name":"target","type":"address","internalType":"address"},{"name":"callDataWithSelector","type":"bytes","internalType":"bytes"}],"outputs":[],"stateMutability":"view"},{"type":"function","name":"whitelistAaveV3","inputs":[{"name":"lendingPool","type":"address","internalType":"address"},{"name":"notes","type":"string","internalType":"string"}],"outputs":[],"stateMutability":"nonpayable"},{"type":"function","name":"whitelistCCTP","inputs":[{"name":"tokenMessenger","type":"address","internalType":"address"},{"name":"notes","type":"string","internalType":"string"}],"outputs":[],"stateMutability":"nonpayable"},{"type":"function","name":"whitelistCCTPDestination","inputs":[{"name":"domain","type":"uint32","internalType":"uint32"},{"name":"notes","type":"string","internalType":"string"}],"outputs":[],"stateMutability":"nonpayable"},{"type":"function","name":"whitelistCoreWriter","inputs":[{"name":"coreWriter","type":"address","internalType":"address"},{"name":"coreDepositWallet","type":"address","internalType":"address"},{"name":"notes","type":"string","internalType":"string"}],"outputs":[],"stateMutability":"nonpayable"},{"type":"function","name":"whitelistCowSwap","inputs":[{"name":"settlementContract","type":"address","internalType":"address"},{"name":"relayerContract","type":"address","internalType":"address"},{"name":"notes","type":"string","internalType":"string"}],"outputs":[],"stateMutability":"nonpayable"},{"type":"function","name":"whitelistERC4626","inputs":[{"name":"vault","type":"address","internalType":"address"},{"name":"notes","type":"string","internalType":"string"}],"outputs":[],"stateMutability":"nonpayable"},{"type":"function","name":"whitelistGMX","inputs":[{"name":"exchangeRouter","type":"address","internalType":"address"},{"name":"syntheticsRouter","type":"address","internalType":"address"},{"name":"orderVault","type":"address","internalType":"address"},{"name":"notes","type":"string","internalType":"string"}],"outputs":[],"stateMutability":"nonpayable"},{"type":"function","name":"whitelistGMXMarket","inputs":[{"name":"market","type":"address","internalType":"address"},{"name":"notes","type":"string","internalType":"string"}],"outputs":[],"stateMutability":"nonpayable"},{"type":"function","name":"whitelistHypercoreVault","inputs":[{"name":"vault","type":"address","internalType":"address"},{"name":"notes","type":"string","internalType":"string"}],"outputs":[],"stateMutability":"nonpayable"},{"type":"function","name":"whitelistLagoon","inputs":[{"name":"vault","type":"address","internalType":"address"},{"name":"notes","type":"string","internalType":"string"}],"outputs":[],"stateMutability":"nonpayable"},{"type":"function","name":"whitelistOrderly","inputs":[{"name":"orderlyVault","type":"address","internalType":"address"},{"name":"notes","type":"string","internalType":"string"}],"outputs":[],"stateMutability":"nonpayable"},{"type":"function","name":"whitelistToken","inputs":[{"name":"token","type":"address","internalType":"address"},{"name":"notes","type":"string","internalType":"string"}],"outputs":[],"stateMutability":"nonpayable"},{"type":"function","name":"whitelistTokenForDelegation","inputs":[{"name":"token","type":"address","internalType":"address"},{"name":"notes","type":"string","internalType":"string"}],"outputs":[],"stateMutability":"nonpayable"},{"type":"function","name":"whitelistUniswapV2Router","inputs":[{"name":"router","type":"address","internalType":"address"},{"name":"notes","type":"string","internalType":"string"}],"outputs":[],"stateMutability":"nonpayable"},{"type":"function","name":"whitelistUniswapV3Router","inputs":[{"name":"router","type":"address","internalType":"address"},{"name":"notes","type":"string","internalType":"string"}],"outputs":[],"stateMutability":"nonpayable"},{"type":"function","name":"whitelistVelora","inputs":[{"name":"augustusSwapper","type":"address","internalType":"address"},{"name":"tokenTransferProxy","type":"address","internalType":"address"},{"name":"notes","type":"string","internalType":"string"}],"outputs":[],"stateMutability":"nonpayable"},{"type":"event","name":"AnyAssetSet","inputs":[{"name":"value","type":"bool","indexed":false,"internalType":"bool"},{"name":"notes","type":"string","indexed":false,"internalType":"string"}],"anonymous":false},{"type":"event","name":"AnyVaultSet","inputs":[{"name":"value","type":"bool","indexed":false,"internalType":"bool"},{"name":"notes","type":"string","indexed":false,"internalType":"string"}],"anonymous":false},{"type":"event","name":"ApprovalDestinationApproved","inputs":[{"name":"destination","type":"address","indexed":false,"internalType":"address"},{"name":"notes","type":"string","indexed":false,"internalType":"string"}],"anonymous":false},{"type":"event","name":"ApprovalDestinationRemoved","inputs":[{"name":"destination","type":"address","indexed":false,"internalType":"address"},{"name":"notes","type":"string","indexed":false,"internalType":"string"}],"anonymous":false},{"type":"event","name":"AssetApproved","inputs":[{"name":"asset","type":"address","indexed":false,"internalType":"address"},{"name":"notes","type":"string","indexed":false,"internalType":"string"}],"anonymous":false},{"type":"event","name":"AssetRemoved","inputs":[{"name":"asset","type":"address","indexed":false,"internalType":"address"},{"name":"notes","type":"string","indexed":false,"internalType":"string"}],"anonymous":false},{"type":"event","name":"CCTPDestinationApproved","inputs":[{"name":"domain","type":"uint32","indexed":false,"internalType":"uint32"},{"name":"notes","type":"string","indexed":false,"internalType":"string"}],"anonymous":false},{"type":"event","name":"CCTPDestinationRemoved","inputs":[{"name":"domain","type":"uint32","indexed":false,"internalType":"uint32"},{"name":"notes","type":"string","indexed":false,"internalType":"string"}],"anonymous":false},{"type":"event","name":"CCTPMessengerApproved","inputs":[{"name":"tokenMessenger","type":"address","indexed":false,"internalType":"address"},{"name":"notes","type":"string","indexed":false,"internalType":"string"}],"anonymous":false},{"type":"event","name":"CallSiteApproved","inputs":[{"name":"target","type":"address","indexed":false,"internalType":"address"},{"name":"selector","type":"bytes4","indexed":false,"internalType":"bytes4"},{"name":"notes","type":"string","indexed":false,"internalType":"string"}],"anonymous":false},{"type":"event","name":"CallSiteRemoved","inputs":[{"name":"target","type":"address","indexed":false,"internalType":"address"},{"name":"selector","type":"bytes4","indexed":false,"internalType":"bytes4"},{"name":"notes","type":"string","indexed":false,"internalType":"string"}],"anonymous":false},{"type":"event","name":"DelegationApprovalDestinationApproved","inputs":[{"name":"destination","type":"address","indexed":false,"internalType":"address"},{"name":"notes","type":"string","indexed":false,"internalType":"string"}],"anonymous":false},{"type":"event","name":"DelegationApprovalDestinationRemoved","inputs":[{"name":"destination","type":"address","indexed":false,"internalType":"address"},{"name":"notes","type":"string","indexed":false,"internalType":"string"}],"anonymous":false},{"type":"event","name":"ERC4626Approved","inputs":[{"name":"vault","type":"address","indexed":false,"internalType":"address"},{"name":"notes","type":"string","indexed":false,"internalType":"string"}],"anonymous":false},{"type":"event","name":"LagoonVaultApproved","inputs":[{"name":"vault","type":"address","indexed":false,"internalType":"address"},{"name":"notes","type":"string","indexed":false,"internalType":"string"}],"anonymous":false},{"type":"event","name":"OwnershipTransferred","inputs":[{"name":"previousOwner","type":"address","indexed":true,"internalType":"address"},{"name":"newOwner","type":"address","indexed":true,"internalType":"address"}],"anonymous":false},{"type":"event","name":"ReceiverApproved","inputs":[{"name":"receiver","type":"address","indexed":false,"internalType":"address"},{"name":"notes","type":"string","indexed":false,"internalType":"string"}],"anonymous":false},{"type":"event","name":"ReceiverRemoved","inputs":[{"name":"receiver","type":"address","indexed":false,"internalType":"address"},{"name":"notes","type":"string","indexed":false,"internalType":"string"}],"anonymous":false},{"type":"event","name":"SenderApproved","inputs":[{"name":"sender","type":"address","indexed":false,"internalType":"address"},{"name":"notes","type":"string","indexed":false,"internalType":"string"}],"anonymous":false},{"type":"event","name":"SenderRemoved","inputs":[{"name":"sender","type":"address","indexed":false,"internalType":"address"},{"name":"notes","type":"string","indexed":false,"internalType":"string"}],"anonymous":false},{"type":"event","name":"VeloraSwapExecuted","inputs":[{"name":"timestamp","type":"uint256","indexed":true,"internalType":"uint256"},{"name":"augustusSwapper","type":"address","indexed":true,"internalType":"address"},{"name":"tokenIn","type":"address","indexed":false,"internalType":"address"},{"name":"tokenOut","type":"address","indexed":false,"internalType":"address"},{"name":"amountIn","type":"uint256","indexed":false,"internalType":"uint256"},{"name":"amountOut","type":"uint256","indexed":false,"internalType":"uint256"},{"name":"minAmountOut","type":"uint256","indexed":false,"internalType":"uint256"}],"anonymous":false},{"type":"event","name":"VeloraSwapperApproved","inputs":[{"name":"augustusSwapper","type":"address","indexed":false,"internalType":"address"},{"name":"notes","type":"string","indexed":false,"internalType":"string"}],"anonymous":false},{"type":"event","name":"WithdrawDestinationApproved","inputs":[{"name":"destination","type":"address","indexed":false,"internalType":"address"},{"name":"notes","type":"string","indexed":false,"internalType":"string"}],"anonymous":false},{"type":"event","name":"WithdrawDestinationRemoved","inputs":[{"name":"destination","type":"address","indexed":false,"internalType":"address"},{"name":"notes","type":"string","indexed":false,"internalType":"string"}],"anonymous":false}],"bytecode":{"object":"0x60808060405234606a57600d8054610100600160a81b0319811633600881811b610100600160a81b0316929092179093551c6001600160a01b03167f8be0079c531659141344cd1fd0a4f28419497f9722a3daafe3b4186f6b6457e05f80a3614c00908161006f8239f35b5f80fdfe60806040526004361015610011575f80fd5b5f3560e01c80630411fb8e1461044857806304a3ba251461044d578063076053421461044857806307ef00cf1461034e5780631047789e146104435780631d49039c1461035d5780632d12d7881461043e5780632dc32a611461041b5780632de905bc146104395780632e31e9c614610434578063333f22e81461042f57806334ec8d7e1461042a5780633cf20025146104255780633ea35551146104205780634b9412681461041b5780634d3d31ca146104165780634efbad39146104115780635ace1d921461040c5780635e4ccace146104075780635e6afe4d1461040257806362d6775e146103fd57806363cc17f2146103f85780636d5025f1146103f35780636d9a1423146103ee5780636fd7fdef146103c1578063713ebf3b146103ad578063715018a6146103e957806372e548a9146103e457806373252494146103c6578063748fca46146103df57806378addb48146103945780637cac69c3146103df57806386a6ae15146103da57806386b6dbe5146103d557806387301608146103d05780638c2fdf9e146103cb5780638da5cb5b146103c65780638fb4dff2146103c157806398b3cc39146103bc578063a4c1cccb146103b7578063a67e1f54146103b2578063a847cf4d146103ad578063a86ddc57146103a8578063a9fc3d4f146103a3578063ac9650d81461039e578063acb9da1614610399578063b45ea48b1461033a578063b8fe8d5f14610394578063ba44ad411461038f578063be8c97b01461032b578063c2e657ae1461038a578063c537bed014610385578063cbdb1dcf14610380578063d075f9bb1461037b578063d7334c9d14610376578063d758150914610371578063db17a1701461036c578063e2873b6d14610367578063e6f32c5114610362578063eb0de0421461035d578063ec01144014610358578063ee5462cc14610353578063efb47bff1461034e578063f20e85e014610349578063f259a07314610344578063f2fde38b1461033f578063f84756aa1461033a578063f901dc3314610335578063fa2c59c814610330578063fadbcf481461032b5763fdedfa2714610326575f80fd5b612357565b611b03565b6122dc565b612264565b611a14565b612194565b61211c565b612070565b6105bf565b612059565b611f5e565b610725565b611ee8565b611e7d565b611dc6565b611d5b565b611cdd565b611c9e565b611c24565b611bf3565b611b4d565b611a90565b611395565b611961565b611862565b6117c2565b61172e565b6111d4565b6116a0565b611660565b6115f8565b611194565b61130b565b611580565b61155e565b6114f6565b6113d5565b61135b565b61127d565b611231565b6110ee565b6110d4565b61106c565b610f37565b610e20565b610d8d565b610caf565b610be6565b610b7e565b6107dd565b610ad2565b610a92565b6109d1565b610957565b6108a3565b61081d565b610765565b610643565b610467565b610510565b6001600160a01b0381160361046357565b5f80fd5b346104635760203660031901126104635760043561048481610452565b60018060a01b03165f52600b602052602060ff60405f2054166040519015158152f35b9181601f84011215610463578235916001600160401b038311610463576020838186019501011161046357565b906040600319830112610463576004356104ed81610452565b91602435906001600160401b0382116104635761050c916004016104a7565b9091565b34610463577fb71be9befd3ac90c1c9981d3b1161b3c2c6dcd741f13b34061aa251226a802df610588610542366104d4565b61055d60018060a09694961b03600d5460081c163314612372565b6001600160a01b0383165f9081526007602052604090819020805460ff1916905551938493846123dd565b0390a1005b6001600160a01b03165f90815260208190526040902090565b6001600160a01b03165f90815260056020526040902090565b34610463576020366003190112610463576004356105dc81610452565b60018060a01b03165f526006602052602060ff60405f2054166040519015158152f35b60606003198201126104635760043561061781610452565b9160243561062481610452565b91604435906001600160401b0382116104635761050c916004016104a7565b34610463576106bb610654366105ff565b81819361067260018060a09996991b03600d5460081c163314612372565b6001600160a01b0386165f9081526007602052604090819020805460ff19166001179055515f80516020614b7483398151915290806106b386868b846123dd565b0390a16132e2565b73__$6fc6cfb0e70d6cdcacff54ae5a1f7f5d2d$__803b15610463576106fa935f936040519586948593849363303e5bc960e21b8552600485016123dd565b03915af480156107205761070a57005b806107185f61071e93612436565b80611227565b005b612459565b346104635760203660031901126104635760043561074281610452565b60018060a01b03165f526007602052602060ff60405f2054166040519015158152f35b34610463577f4e13b11ab98e672bd78295ef9cebe764dc617f95decf47d842c25b83abc0c724610588610797366104d4565b6107b260018060a09694961b03600d5460081c163314612372565b6001600160a01b0383165f9081526005602052604090819020805460ff1916905551938493846123dd565b34610463576020366003190112610463576004356107fa81610452565b60018060a01b03165f526008602052602060ff60405f2054166040519015158152f35b346104635761082b366104d4565b915f9261084660018060a01b03600d5460081c163314612372565b73__$ed404fe8d8cd691b210f32f3e93e2f5fa7$__803b1561046357610885935f9360405195869485938493630b7a416f60e21b8552600485016123dd565b03915af4801561072057610897575080f35b61071e91505f90612436565b34610463576020366003190112610463576108e760206004356108c581610452565b600d546040516312789ae160e11b8152938492839260ff169060048401612479565b038173__$abe99e6f90010eaab1ae0937da96c92fff$__5af4801561072057610924915f91610928575b5060405190151581529081906020820190565b0390f35b61094a915060203d602011610950575b6109428183612436565b810190612464565b5f610911565b503d610938565b346104635760203660031901126104635760043561097481610452565b604051630667e45d60e31b81526001600160a01b03909116600482015260208160248173__$6fc6cfb0e70d6cdcacff54ae5a1f7f5d2d$__5af4801561072057610924915f91610928575060405190151581529081906020820190565b346104635761071e6109e2366104d4565b916109fb60018060a01b03600d5460081c163314612372565b6001600160a01b0381165f8181526020818152604080832063c04b8d5960e01b84529091529020600160ff198254161790555f52600160205260405f20600160ff19825416179055610a56610a51600254613077565b600255565b5f80516020614bd483398151915260405180610a748686868461308a565b0390a1610a82838383612494565b610a8d838383612530565b6132e2565b3461046357602036600319011261046357600435610aaf81610452565b60018060a01b03165f526005602052602060ff60405f2054166040519015158152f35b346104635761071e610ae3366104d4565b91610afc60018060a01b03600d5460081c163314612372565b6001600160a01b0381165f818152602081815260408083206338ed173960e01b84529091529020600160ff198254161790555f52600160205260405f20600160ff19825416179055610b52610a51600254613077565b5f80516020614bd483398151915260405180610b70868686846130b9565b0390a1610a8d8383836125c7565b3461046357610b8c366104d4565b915f92610ba760018060a01b03600d5460081c163314612372565b73__$abe99e6f90010eaab1ae0937da96c92fff$__803b1561046357610885935f936040519586948593849363f7570c2960e01b8552600485016123dd565b34610463577f4528ea4d4b1ca7b25fe4843fa8f643b7bbdc91395054ca124e68c761b44f77076105885f80516020614b74833981519152610c26366105ff565b91908095939491610c4e60018060a01b03600d5460081c163314610c4981612372565b612372565b60018060a01b0381165f52600760205260405f20600160ff19825416179055610c7d84604051938493846123dd565b0390a16001600160a01b0383165f908152600a60205260409020805460ff191660011790555b604051938493846123dd565b34610463577f3562181221a42a19ddd03a82dfe06acab1905ceb65cdaf7d86a1d9fec6643552610588610ce1366104d4565b610cfc60018060a09694961b03600d5460081c163314612372565b6001600160a01b0383165f9081526006602052604090819020805460ff1916600117905551938493846123dd565b602435906001600160e01b03198216820361046357565b606060031982011261046357600435610d5981610452565b916024356001600160e01b0319811681036104635791604435906001600160401b0382116104635761050c916004016104a7565b34610463575f80516020614bd4833981519152610588610dac36610d41565b90610dc860018060a09795971b03600d5460081c163314612372565b60018060a01b038416805f525f602052610de58660405f20611718565b600160ff198254161790555f52600160205260405f20600160ff19825416179055610e14610a51600254613077565b60405194859485613231565b34610463577ffaa136302ac223cf7c1146490a741e4520e886fc22d7e759641453f432283d01610588610e52366104d4565b610e6d60018060a09694961b03600d5460081c163314612372565b6001600160a01b038381165f818152600960205260409020805460ff19166001179055600d549091610ea49160081c163314612372565b805f525f602052610ec660405f2063559ec80d60e01b5f5260205260405f2090565b600160ff198254161790555f52600160205260405f20600160ff19825416179055610ef5610a51600254613077565b5f80516020614bd483398151915260405180610f13848888846130e8565b0390a1610f2181858561265e565b610f2c8185856126f5565b610ca381858561278c565b3461046357608036600319011261046357600435610f5481610452565b60243590610f6182610452565b604435610f6d81610452565b6064356001600160401b03811161046357610f8c9036906004016104a7565b929093610fab60018060a01b03600d5460081c163314610c4981612372565b6001600160a01b0382165f81815260208181526040808320631592ca1b60e31b84529091529020600160ff198254161790555f52600160205260405f20600160ff19825416179055611001610a51600254613077565b5f80516020614bd48339815191526040518061101f87898784613117565b0390a161102d8486836132e2565b73__$abe99e6f90010eaab1ae0937da96c92fff$__91823b15610463576106fa5f956040519788968795869563f4d5bb9360e01b875260048701613264565b34610463575f80516020614b7483398151915261058861108b366104d4565b6110a660018060a09694961b03600d5460081c163314612372565b6001600160a01b0383165f9081526008602052604090819020805460ff1916600117905551938493846123dd565b346104635761071e6110e5366105ff565b9291909161379c565b346104635761071e6110ff366104d4565b9161111860018060a01b03600d5460081c163314612372565b6001600160a01b0381165f81815260208181526040808320630c04a8a160e41b84529091529020600160ff198254161790555f52600160205260405f20600160ff1982541617905561116e610a51600254613077565b5f80516020614bd48339815191526040518061118c86868684613146565b0390a16132b8565b34610463576020366003190112610463576004356111b181610452565b60018060a01b03165f526009602052602060ff60405f2054166040519015158152f35b3461046357604036600319011261046357602060ff61121b6004356111f881610452565b611200610d2a565b6001600160a01b039091165f90815280855260409020611718565b54166040519015158152f35b5f91031261046357565b34610463575f36600319011261046357611249613e8d565b600d8054610100600160a81b031981169091555f9060081c6001600160a01b03165f80516020614b948339815191528280a3005b34610463577f62dd88c5ecfa60713a657640ebec4de26fc1aefa4afdb24e6d15a124fce727796105886112af366104d4565b6112ca60018060a09694961b03600d5460081c163314612372565b6001600160a01b0383165f9081526005602052604090819020805460ff1916600117905551938493846123dd565b6001600160a01b03909116815260200190565b34610463575f36600319011261046357600d5460405160089190911c6001600160a01b03168152602090f35b6004359063ffffffff8216820361046357565b359063ffffffff8216820361046357565b346104635760203660031901126104635763ffffffff611379611337565b165f52600c602052602060ff60405f2054166040519015158152f35b34610463576020366003190112610463576004356113b281610452565b60018060a01b03165f526001602052602060ff60405f2054166040519015158152f35b34610463576113e3366104d4565b6040516338d52e0f60e01b815292906020846004816001600160a01b0386165afa90811561072057610ca38185610588947fd2851df39115d63968e90113e8b3a96f13e33ac4c2e5a9caa1afeffe59e55748985f916114c7575b50611449838389612823565b6114548383896128ba565b61145f838389612951565b61146a8383896129e8565b611475838389612a7f565b611480838389612b14565b61148b838389612bab565b611496838389612c42565b6114a1838389612cd9565b6114ac838389612d70565b6114b78383896132e2565b6114c2838389613ea5565b613ea5565b6114e9915060203d6020116114ef575b6114e18183612436565b8101906132a3565b5f61143d565b503d6114d7565b34610463575f80516020614bb4833981519152610588611515366104d4565b61153060018060a09694961b03600d5460081c163314612372565b6001600160a01b0383165f9081526003602052604090819020805460ff1916600117905551938493846123dd565b34610463575f36600319011261046357602060ff600d54166040519015158152f35b34610463577f1212f8ddb39de8e1a339460c95752d61100723efeaa34ccd94bca94393f409386105886115b2366104d4565b6115cd60018060a09694961b03600d5460081c163314612372565b6001600160a01b0383165f9081526006602052604090819020805460ff1916905551938493846123dd565b34610463575f80516020614b74833981519152610588611617366104d4565b61163260018060a09694961b03600d5460081c163314612372565b6001600160a01b0383165f9081526007602052604090819020805460ff1916600117905551938493846123dd565b346104635760203660031901126104635760043561167d81610452565b60018060a01b03165f526003602052602060ff60405f2054166040519015158152f35b34610463577f3097928509c53a2dab9500431201d82b0d756e8f890fd01f4ae6b33b45687ea46105886116d2366104d4565b6116ed60018060a09694961b03600d5460081c163314612372565b6001600160a01b0383165f9081526004602052604090819020805460ff1916905551938493846123dd565b9063ffffffff60e01b165f5260205260405f2090565b346104635760203660031901126104635760043561174b81610452565b6040516351097a3360e01b81526001600160a01b03909116600482015260208160248173__$abe99e6f90010eaab1ae0937da96c92fff$__5af4801561072057610924915f916117a3575b50604051918291826112f8565b6117bc915060203d6020116114ef576114e18183612436565b5f611796565b34610463575f366003190112610463576020600254604051908152f35b805180835260209291819084018484015e5f828201840152601f01601f1916010190565b602081016020825282518091526040820191602060408360051b8301019401925f915b83831061183557505050505090565b9091929394602080611853600193603f1986820301875289516117df565b97019301930191939290611826565b6020366003190112610463576004356001600160401b0381116104635736602382011215610463576004810135906001600160401b038211610463576024810190602436918460051b010111610463576118bb82613323565b915f5b8181106118d357604051806109248682611803565b5f806118e0838587613380565b906118f0604051809381936133c6565b0390305af46118fd6133ee565b90156119235790600191611911828761349a565b5261191c818661349a565b50016118be565b60448151106104635761194581602480600461195d9501518301019101613453565b60405162461bcd60e51b815291829160048301613489565b0390fd5b346104635761196f366105ff565b9161198860018060a01b03600d5460081c163314612372565b73__$ed404fe8d8cd691b210f32f3e93e2f5fa7$__93843b156104635760405163565ced0b60e11b81526001600160a01b039182166004820152908216602482015260606044820152935f90859081806119e66064820189896123bd565b03915af49384156107205761071e94611a00575b506132e2565b806107185f611a0e93612436565b5f6119fa565b3461046357602036600319011261046357600435611a3181610452565b60018060a01b03165f52600a602052602060ff60405f2054166040519015158152f35b9060406003198301126104635760043563ffffffff811681036104635791602435906001600160401b0382116104635761050c916004016104a7565b34610463577f1032cb8f3d65d1f2761007cb8b0ca5365671ee20a8efa21ecae1a8dfbca5b7a5610588611ac236611a54565b611add60018060a09694961b03600d5460081c163314612372565b63ffffffff83165f52600c60205260405f2060ff198154169055604051938493846134ae565b3461046357602036600319011261046357600435611b2081610452565b60018060a01b03165f526004602052602060ff60405f2054166040519015158152f35b8015150361046357565b3461046357604036600319011261046357600435611b6a81611b43565b6024356001600160401b038111610463577f50454d9d0025a28a39cac5a4b3f3101d29b6e413fbb64f75fb42eb6837b0771891611bae6105889236906004016104a7565b9290600d5492611bca3360018060a01b038660081c1614612372565b15159260ff84169060ff191617600d5560405193849384526040602085015260408401916123bd565b34610463576020366003190112610463576020611c1a600435611c1581610452565b6134cb565b6040519015158152f35b3461046357602036600319011261046357600435611c4181610452565b60405163c226c4bb60e01b81526001600160a01b03909116600482015260208160248173__$abe99e6f90010eaab1ae0937da96c92fff$__5af4801561072057610924915f91610928575060405190151581529081906020820190565b34610463576020366003190112610463576020611c1a600435611cc081610452565b6001600160a01b03165f9081526005602052604090205460ff1690565b34610463577f37ea10f2d08f5a9803dfcd5abf3cfc7b0d6fcdf5fcbc36be9ea5a0b53d9a4d9b610588611d0f36610d41565b90611d2b60018060a09795971b03600d5460081c163314612372565b60018060a01b0384165f525f602052611d478560405f20611718565b805460ff1916905560405194859485613231565b3461046357611d69366104d4565b600d545f939190611d879060081c6001600160a01b03163314612372565b73__$abe99e6f90010eaab1ae0937da96c92fff$__803b1561046357610885935f9360405195869485938493634a1c4b1960e11b8552600485016123dd565b346104635761071e611dd7366104d4565b91611df060018060a01b03600d5460081c163314612372565b6001600160a01b0381165f81815260208181526040808320632df4869b60e01b84529091529020600160ff198254161790555f52600160205260405f20600160ff19825416179055611e46610a51600254613077565b5f80516020614bd483398151915260405180611e6486868684613175565b0390a1611e72838383612e07565b610a8d838383612e9e565b3461046357611e8b366104d4565b600d545f939190611ea99060081c6001600160a01b03163314612372565b73__$ed404fe8d8cd691b210f32f3e93e2f5fa7$__803b1561046357610885935f936040519586948593849363e2873b6d60e01b8552600485016123dd565b34610463577f9fc3f914bc6770a3679a6a9fdb4620f0566db329f178fb033fc0c6dcce1b693d610588611f1a36611a54565b611f3560018060a09694961b03600d5460081c163314612372565b63ffffffff83165f52600c60205260405f20600160ff19825416179055604051938493846134ae565b34610463577f9efd66cbdaa05f6414ab9c4ae71d358b087e972c11874e7c3e9c7c79c61e23aa610588611f90366104d4565b611faf60018060a09694961b03600d5460081c163314610c4981612372565b6001600160a01b0383165f81815260208181526040808320634701287760e11b84529091529020600160ff198254161790555f52600160205260405f20600160ff19825416179055612005610a51600254613077565b5f80516020614bd483398151915260405180612023848888846131a4565b0390a16120318185856132e2565b6001600160a01b0383165f908152600b60205260409020610ca390805460ff19166001179055565b346104635761071e61206a366104d4565b91613ea5565b346104635761071e612081366104d4565b9161209a60018060a01b03600d5460081c163314612372565b6001600160a01b0381165f8181526020818152604080832063617ba03760e01b84529091529020600160ff198254161790555f52600160205260405f20600160ff198254161790556120f0610a51600254613077565b5f80516020614bd48339815191526040518061210e868686846131d3565b0390a1610a8d838383612f35565b34610463577ff9a414ea26a64e12a2abdb23706ec196a42adeb564668fb73f46555fbd2336c261058861214e366104d4565b61216960018060a09694961b03600d5460081c163314612372565b6001600160a01b0383165f9081526008602052604090819020805460ff1916905551938493846123dd565b34610463576020366003190112610463576004356121b181610452565b6121b9613e8d565b6001600160a01b0381161561221057600d8054610100600160a81b03198116600884811b610100600160a81b0316919091179092556001600160a01b0392831692911c165f80516020614b948339815191525f80a3005b60405162461bcd60e51b815260206004820152602660248201527f4f776e61626c653a206e6577206f776e657220697320746865207a65726f206160448201526564647265737360d01b6064820152608490fd5b34610463577f9ca3f065622f5f03f32b7157677a0e420c3a36ab45fd49f256ffebce3e310587610588612296366104d4565b6122b160018060a09694961b03600d5460081c163314612372565b6001600160a01b0383165f9081526003602052604090819020805460ff1916905551938493846123dd565b34610463577fa8f9caaf4861720900294428e4ff34d37070c37afd26d96e6e4da75326d2c3ad61058861230e366104d4565b61232960018060a09694961b03600d5460081c163314612372565b6001600160a01b0383165f9081526004602052604090819020805460ff1916600117905551938493846123dd565b34610463575f36600319011261046357602060405160018152f35b1561237957565b606460405162461bcd60e51b815260206004820152602060248201527f4f776e61626c653a2063616c6c6572206973206e6f7420746865206f776e65726044820152fd5b908060209392818452848401375f828201840152601f01601f1916010190565b6001600160a01b0390911681526040602082018190526123ff939101916123bd565b90565b634e487b7160e01b5f52604160045260245ffd5b60a081019081106001600160401b0382111761243157604052565b612402565b601f909101601f19168101906001600160401b0382119082101761243157604052565b6040513d5f823e3d90fd5b9081602091031261046357516123ff81611b43565b6001600160a01b039091168152901515602082015260400190565b61252b5f80516020614bd4833981519152936124be60018060a01b03600d5460081c163314612372565b6001600160a01b0383165f8181526020819052604090206124e790631e51809360e31b90611718565b600160ff198254161790555f52600160205260405f20600160ff19825416179055612516610a51600254613077565b604051938493631e51809360e31b9085613231565b0390a1565b61252b5f80516020614bd48339815191529361255a60018060a01b03600d5460081c163314612372565b6001600160a01b0383165f8181526020819052604090206125839063b858183f60e01b90611718565b600160ff198254161790555f52600160205260405f20600160ff198254161790556125b2610a51600254613077565b60405193849363b858183f60e01b9085613231565b61252b5f80516020614bd4833981519152936125f160018060a01b03600d5460081c163314612372565b6001600160a01b0383165f81815260208190526040902061261a90635c11d79560e01b90611718565b600160ff198254161790555f52600160205260405f20600160ff19825416179055612649610a51600254613077565b604051938493635c11d79560e01b9085613231565b61252b5f80516020614bd48339815191529361268860018060a01b03600d5460081c163314612372565b6001600160a01b0383165f8181526020819052604090206126b19063a03d55e360e01b90611718565b600160ff198254161790555f52600160205260405f20600160ff198254161790556126e0610a51600254613077565b60405193849363a03d55e360e01b9085613231565b61252b5f80516020614bd48339815191529361271f60018060a01b03600d5460081c163314612372565b6001600160a01b0383165f8181526020819052604090206127489063692652c560e11b90611718565b600160ff198254161790555f52600160205260405f20600160ff19825416179055612777610a51600254613077565b60405193849363692652c560e11b9085613231565b61252b5f80516020614bd4833981519152936127b660018060a01b03600d5460081c163314612372565b6001600160a01b0383165f8181526020819052604090206127df90635313efb360e11b90611718565b600160ff198254161790555f52600160205260405f20600160ff1982541617905561280e610a51600254613077565b604051938493635313efb360e11b9085613231565b61252b5f80516020614bd48339815191529361284d60018060a01b03600d5460081c163314612372565b6001600160a01b0383165f81815260208190526040902061287690636e553f6560e01b90611718565b600160ff198254161790555f52600160205260405f20600160ff198254161790556128a5610a51600254613077565b604051938493636e553f6560e01b9085613231565b61252b5f80516020614bd4833981519152936128e460018060a01b03600d5460081c163314612372565b6001600160a01b0383165f81815260208190526040902061290d90632d182be560e21b90611718565b600160ff198254161790555f52600160205260405f20600160ff1982541617905561293c610a51600254613077565b604051938493632d182be560e21b9085613231565b61252b5f80516020614bd48339815191529361297b60018060a01b03600d5460081c163314612372565b6001600160a01b0383165f8181526020819052604090206129a490635d043b2960e11b90611718565b600160ff198254161790555f52600160205260405f20600160ff198254161790556129d3610a51600254613077565b604051938493635d043b2960e11b9085613231565b61252b5f80516020614bd483398151915293612a1260018060a01b03600d5460081c163314612372565b6001600160a01b0383165f818152602081905260409020612a3b90638dbdbe6d60e01b90611718565b600160ff198254161790555f52600160205260405f20600160ff19825416179055612a6a610a51600254613077565b604051938493638dbdbe6d60e01b9085613231565b61252b5f80516020614bd483398151915293612aa960018060a01b03600d5460081c163314612372565b6001600160a01b0383165f818152602081905260409020612ad19062b4d4cb60e11b90611718565b600160ff198254161790555f52600160205260405f20600160ff19825416179055612b00610a51600254613077565b60405193849362b4d4cb60e11b9085613231565b61252b5f80516020614bd483398151915293612b3e60018060a01b03600d5460081c163314612372565b6001600160a01b0383165f818152602081905260409020612b6790630b8b4a6160e21b90611718565b600160ff198254161790555f52600160205260405f20600160ff19825416179055612b96610a51600254613077565b604051938493630b8b4a6160e21b9085613231565b61252b5f80516020614bd483398151915293612bd560018060a01b03600d5460081c163314612372565b6001600160a01b0383165f818152602081905260409020612bfe90633ea0e43760e11b90611718565b600160ff198254161790555f52600160205260405f20600160ff19825416179055612c2d610a51600254613077565b604051938493633ea0e43760e11b9085613231565b61252b5f80516020614bd483398151915293612c6c60018060a01b03600d5460081c163314612372565b6001600160a01b0383165f818152602081905260409020612c95906319792d1d60e11b90611718565b600160ff198254161790555f52600160205260405f20600160ff19825416179055612cc4610a51600254613077565b6040519384936319792d1d60e11b9085613231565b61252b5f80516020614bd483398151915293612d0360018060a01b03600d5460081c163314612372565b6001600160a01b0383165f818152602081905260409020612d2c906385b77f4560e01b90611718565b600160ff198254161790555f52600160205260405f20600160ff19825416179055612d5b610a51600254613077565b6040519384936385b77f4560e01b9085613231565b61252b5f80516020614bd483398151915293612d9a60018060a01b03600d5460081c163314612372565b6001600160a01b0383165f818152602081905260409020612dc39063a8abe90560e01b90611718565b600160ff198254161790555f52600160205260405f20600160ff19825416179055612df2610a51600254613077565b60405193849363a8abe90560e01b9085613231565b61252b5f80516020614bd483398151915293612e3160018060a01b03600d5460081c163314612372565b6001600160a01b0383165f818152602081905260409020612e5a9063322dda6d60e01b90611718565b600160ff198254161790555f52600160205260405f20600160ff19825416179055612e89610a51600254613077565b60405193849363322dda6d60e01b9085613231565b61252b5f80516020614bd483398151915293612ec860018060a01b03600d5460081c163314612372565b6001600160a01b0383165f818152602081905260409020612ef190634c61684360e11b90611718565b600160ff198254161790555f52600160205260405f20600160ff19825416179055612f20610a51600254613077565b604051938493634c61684360e11b9085613231565b61252b5f80516020614bd483398151915293612f5f60018060a01b03600d5460081c163314612372565b6001600160a01b0383165f818152602081905260409020612f8890631a4ca37b60e21b90611718565b600160ff198254161790555f52600160205260405f20600160ff19825416179055612fb7610a51600254613077565b604051938493631a4ca37b60e21b9085613231565b61252b5f80516020614bd483398151915293612ff660018060a01b03600d5460081c163314612372565b6001600160a01b0383165f81815260208190526040902061301f9063095ea7b360e01b90611718565b600160ff198254161790555f52600160205260405f20600160ff1982541617905561304e610a51600254613077565b60405193849363095ea7b360e01b9085613231565b634e487b7160e01b5f52601160045260245ffd5b5f1981146130855760010190565b613063565b6001600160a01b03909116815263c04b8d5960e01b60208201526060604082018190526123ff939101916123bd565b6001600160a01b0390911681526338ed173960e01b60208201526060604082018190526123ff939101916123bd565b6001600160a01b03909116815263559ec80d60e01b60208201526060604082018190526123ff939101916123bd565b6001600160a01b039091168152631592ca1b60e31b60208201526060604082018190526123ff939101916123bd565b6001600160a01b039091168152630c04a8a160e41b60208201526060604082018190526123ff939101916123bd565b6001600160a01b039091168152632df4869b60e01b60208201526060604082018190526123ff939101916123bd565b6001600160a01b039091168152634701287760e11b60208201526060604082018190526123ff939101916123bd565b6001600160a01b03909116815263617ba03760e01b60208201526060604082018190526123ff939101916123bd565b6001600160a01b03909116815263a9059cbb60e01b60208201526060604082018190526123ff939101916123bd565b6001600160a01b0390911681526001600160e01b031990911660208201526060604082018190526123ff939101916123bd565b6001600160a01b039182168152918116602083015290911660408201526080606082018190526123ff939101916123bd565b51906132a182610452565b565b9081602091031261046357516123ff81610452565b61252b5f80516020614bb48339815191529361153060018060a01b03600d5460081c163314612372565b61252b5f80516020614b748339815191529361163260018060a01b03600d5460081c163314612372565b6001600160401b0381116124315760051b60200190565b9061332d8261330c565b61333a6040519182612436565b828152809261334b601f199161330c565b01905f5b82811061335b57505050565b80606060208093850101520161334f565b634e487b7160e01b5f52603260045260245ffd5b91908110156133c15760051b81013590601e19813603018212156104635701803591906001600160401b038311610463576020018236038113610463579190565b61336c565b908092918237015f815290565b6001600160401b03811161243157601f01601f191660200190565b3d15613418573d906133ff826133d3565b9161340d6040519384612436565b82523d5f602084013e565b606090565b929192613429826133d3565b916134376040519384612436565b829481845281830111610463578281602093845f96015e010152565b602081830312610463578051906001600160401b03821161046357019080601f830112156104635781516123ff9260200161341d565b9060206123ff9281815201906117df565b80518210156133c15760209160051b010190565b60409063ffffffff6123ff959316815281602082015201916123bd565b60ff600d54169081156134dc575090565b6001600160a01b03165f9081526003602052604090205460ff16919050565b1561350257565b60405162461bcd60e51b815260206004820152601260248201527114d95b99195c881b9bdd08185b1b1bddd95960721b6044820152606490fd5b906004116104635790600490565b909291928360041161046357831161046357600401916003190190565b356001600160e01b0319811692919060048210613582575050565b6001600160e01b031960049290920360031b82901b16169150565b156135a457565b60405162461bcd60e51b815260206004820152601260248201527115185c99d95d081b9bdd08185b1b1bddd95960721b6044820152606490fd5b156135e557565b60405162461bcd60e51b815260206004820152601460248201527314d95b1958dd1bdc881b9bdd08185b1b1bddd95960621b6044820152606490fd5b9081606091031261046357803561363781610452565b916123ff60406020840135930161134a565b1561365057565b606460405162461bcd60e51b815260206004820152602060248201527f6465706f736974466f7220726563697069656e74206e6f7420616c6c6f7765646044820152fd5b919082604091031261046357815162ffffff81168103610463576020909201516123ff81610452565b156136c457565b60405162461bcd60e51b815260206004820152602860248201527f436f72655772697465722073706f7453656e64207265636569766572206e6f7460448201526708185b1b1bddd95960c21b6064820152608490fd5b929192613726826133d3565b916137346040519384612436565b829481845281830111610463578281602093845f960137010152565b1561375757565b60405162461bcd60e51b815260206004820152601e60248201527f53776170526f75746572303220726571756972657320616e79417373657400006044820152606490fd5b600d549193909160081c6001600160a01b03166001600160a01b03831614613e87576137ed6137e86137e16138079460018060a01b03165f52600460205260405f2090565b5460ff1690565b6134fb565b806138016137fb828661353c565b90613567565b9361354a565b929091613816600d5460ff1690565b80613e6d575b6001600160e01b03198216916317938e1360e01b83149182908115613e5c575b8115613e4b575b159081613e42575b50613dde575b506338ed173960e01b820361387757505050613872906132a192369161371a565b614881565b635c11d79560e01b820361389757505050613872906132a192369161371a565b63c04b8d5960e01b82036138bc575050506138b7906132a192369161371a565b6147b7565b63b858183f60e01b82036138e35750505050506132a16138de600d5460ff1690565b613750565b63a9059cbb60e01b820361390857505050613903906132a192369161371a565b614780565b63095ea7b360e01b820361392d57505050613928906132a192369161371a565b614708565b630c04a8a160e41b82036139525750505061394d906132a192369161371a565b61468e565b63617ba03760e01b820361397757505050613972906132a192369161371a565b614647565b631a4ca37b60e21b820361399c57505050613997906132a192369161371a565b614612565b91929163559ec80d60e01b82148015613dce575b8015613dbe575b8015613dae575b156139d0575050506132a19150614578565b919291636e553f6560e01b82148015613d9e575b156139f1575b5050505050565b638dbdbe6d60e01b8203613a2057505050613a1190613a1692369161371a565b61455e565b5f808080806139ea565b62b4d4cb60e11b8203613a4957505050613a3f90613a4492369161371a565b61453d565b613a16565b632d182be560e21b8203613a6e57505050613a6990613a4492369161371a565b614515565b635d043b2960e11b8203613a8e57505050613a6990613a4492369161371a565b633ea0e43760e11b8203613aae57505050613a6990613a4492369161371a565b6319792d1d60e11b8203613ace57505050613a6990613a4492369161371a565b637a4880bb60e01b8201613ae7575b5050505050613a16565b63a8abe90560e01b8203613b1657505050613b0790613b0c92369161371a565b6144d8565b5f80808080613add565b63d20b796560e01b8201613b2f575b5050505050613b0c565b63cdd2259360e01b820115613b255763339e97bd60e11b820115613b2557631592ca1b60e31b8203613b7257505090613b689291614311565b5f80808080613b25565b634701287760e11b8203613b9257505090613b8d9291614072565b613b68565b15613c4b575090604091613bb9835194859384936388ea783f60e01b8552600485016123dd565b038173__$ed404fe8d8cd691b210f32f3e93e2f5fa7$__5af4908115610720575f905f92613c10575b5062ffffff16600614613bf6575b50613b68565b613c056137e1613c0a926105a6565b6136bd565b5f613bf0565b62ffffff925060069150613c3b9060403d604011613c44575b613c338183612436565b810190613694565b92909150613be2565b503d613c29565b909290630acb7f4b60e21b8103613cbe5750505073__$ed404fe8d8cd691b210f32f3e93e2f5fa7$__803b1561046357613c9c915f9160405180809581946367bc52cb60e01b8352600483016112f8565b03915af4801561072057613cb05750613b68565b806107185f613c0a93612436565b9192909163611e2a2d60e11b03613d5d5773__$ed404fe8d8cd691b210f32f3e93e2f5fa7$__803b1561046357613d0c915f9160405180809581946367bc52cb60e01b8352600483016112f8565b03915af4801561072057613b8d93613d44936137e193613d3493613d49575b50810190613621565b50506001600160a01b03166105a6565b613649565b806107185f613d5793612436565b5f613d2b565b60405162461bcd60e51b81526020600482015260196024820152782ab735b737bbb710333ab731ba34b7b71039b2b632b1ba37b960391b6044820152606490fd5b50630b8b4a6160e21b82146139e4565b50635313efb360e11b82146139be565b5063692652c560e11b82146139b7565b5063a03d55e360e01b82146139b0565b613dfa613df66137e183613df18861058d565b611718565b1590565b1561385157613e376137e1613e3c92613e2e613e296137e18960018060a01b03165f52600160205260405f2090565b61359d565b613df18761058d565b6135de565b5f613851565b9050155f61384b565b63611e2a2d60e11b85149150613843565b630acb7f4b60e21b8514915061383c565b5063095ea7b360e01b6001600160e01b031982161461381c565b50505050565b6132a160018060a01b03600d5460081c163314612372565b906132a19291613ec360018060a01b03600d5460081c163314612372565b6001600160a01b0381165f8181526020818152604080832063a9059cbb60e01b84529091529020600160ff198254161790555f52600160205260405f20600160ff19825416179055613f19610a51600254613077565b5f80516020614bd483398151915260405180613f3786868684613202565b0390a1613f45838383612fcc565b6132b8565b908160e091031261046357803591613f646020830161134a565b916040810135916060820135613f7981610452565b916080810135916123ff60c060a0840135930161134a565b15613f9857565b60405162461bcd60e51b815260206004820152601c60248201527b10d0d5140819195cdd1a5b985d1a5bdb881b9bdd08185b1b1bddd95960221b6044820152606490fd5b15613fe357565b60405162461bcd60e51b815260206004820152601b60248201527a10d0d51408189d5c9b881d1bdad95b881b9bdd08185b1b1bddd959602a1b6044820152606490fd5b1561402d57565b60405162461bcd60e51b815260206004820152601f60248201527f43435450206d696e7420726563697069656e74206e6f7420616c6c6f776564006044820152606490fd5b6001600160a01b03165f908152600b602052604090205460ff16156140fd576137e16137e16140ea6140e56140d26140d76140b6876132a1996140f8990190613f4a565b505050949250969063ffffffff165f52600c60205260405f2090565b613f91565b6001600160a01b03166134cb565b613fdc565b6001600160a01b03166105a6565b614026565b60405162461bcd60e51b815260206004820152601a60248201527910d0d514081b595cdcd95b99d95c881b9bdd08185b1b1bddd95960321b6044820152606490fd5b9080601f830112156104635781516141568161330c565b926141646040519485612436565b81845260208085019260051b82010192831161046357602001905b82821061418c5750505090565b60208091835161419b81610452565b81520191019061417f565b916060838303126104635782516001600160401b03811161046357826141cd91850161413f565b60208401519093906001600160401b03811161046357836141ef91830161413f565b60408201519093906001600160401b038111610463576123ff920161413f565b92916040926142369296959660018060a01b031685526060602086015260608501916123bd565b931515910152565b1561424557565b60405162461bcd60e51b815260206004820152601660248201527511d3560e88185cdcd95d081b9bdd08185b1b1bddd95960521b6044820152606490fd5b1561428a57565b60405162461bcd60e51b815260206004820152601960248201527811d3560e881c9958d95a5d995c881b9bdd08185b1b1bddd959603a1b6044820152606490fd5b156142d257565b60405162461bcd60e51b815260206004820152601760248201527611d3560e881b585c9ad95d081b9bdd08185b1b1bddd959604a1b6044820152606490fd5b9291905f9073__$abe99e6f90010eaab1ae0937da96c92fff$__9461435661433b600d5460ff1690565b604051633bf8b9bb60e11b815295869485946004860161420f565b0381865af48015610720575f935f925f92614466575b505f5b85518110156143a657806143a061439b611c1561438e6001958b61349a565b516001600160a01b031690565b61423e565b0161436f565b50919350915f5b84518110156143d757806143d16143cc611cc061438e6001958a61349a565b614283565b016143ad565b50919092505f5b8151811015614460578060206143fa61438e61441c948661349a565b600d5460ff166040516312789ae160e11b815294859283929060048401612479565b0381885af49182156107205760019261443c915f91614442575b506142cb565b016143de565b61445a915060203d8111610950576109428183612436565b5f614436565b50509050565b9150935061448691503d805f833e61447e8183612436565b8101906141a6565b91939091905f61436c565b1561449857565b60405162461bcd60e51b8152602060048201526018602482015277149958d95a5d995c881b9bdd081dda1a5d195b1a5cdd195960421b6044820152606490fd5b60408180518101031261046357604001516144f281610452565b6001600160a01b03165f908152600560205260409020546132a19060ff16614491565b606081805181010312610463576144f2606060408301519261453684610452565b0151610452565b608081805181010312610463576144f2608060608301519261453684610452565b60608180518101031261046357606001516144f281610452565b6001600160a01b03165f9081526009602052604090205460ff161561459957565b60405162461bcd60e51b815260206004820152601160248201527015985d5b1d081b9bdd08185b1b1bddd959607a1b6044820152606490fd5b156145d957565b60405162461bcd60e51b8152602060048201526011602482015270151bdad95b881b9bdd08185b1b1bddd959607a1b6044820152606490fd5b606081805181010312610463576144f2614642606060208401519361463685610452565b0151926140d784610452565b6145d2565b60808180518101031261046357614642816140d7606060206132a19501519261453684610452565b9190826040910312610463576020825161468881610452565b92015190565b6146a1906020808251830101910161466f565b506001600160a01b03165f9081526008602052604090205460ff16156146c357565b60405162461bcd60e51b815260206004820152601e60248201527f44656c65676174696f6e2061646472657373206e6f7420616c6c6f77656400006044820152606490fd5b61471b906020808251830101910161466f565b506001600160a01b03165f9081526007602052604090205460ff161561473d57565b60405162461bcd60e51b815260206004820152601b60248201527a105c1c1c9bdd99481859191c995cdcc81b9bdd08185b1b1bddd959602a1b6044820152606490fd5b614793906020808251830101910161466f565b506001600160a01b03165f908152600660205260409020546132a19060ff16614491565b805181016020810191602081830312610463576020810151906001600160401b03821161046357019060a0908290031261046357604051906147f882612416565b60208101516001600160401b0381116104635760209082010183601f8201121561046357611cc061487b926148396132a1968460206148769651910161341d565b855260a061484960408301613296565b9182602088015260608101516040880152608081015160608801520151608086015260018060a01b031690565b614491565b516148f8565b908151820160a0838203126104635760608301516001600160401b038111610463576137e160806148c0614876936020806148cc97019189010161413f565b9501516140ea81610452565b5f5b82518110156148f357806148ed614642611c1561438e6001958861349a565b016148ce565b509050565b6017905b61490a601482511015614a4c565b602081015160601c8282511061494c5761464261493191611c15614642611c158787614a90565b805160421161494857614943906149a3565b6148fc565b5050565b60405162461bcd60e51b8152602060048201526014602482015273746f55696e7432345f6f75744f66426f756e647360601b6044820152606490fd5b90601f820180921161308557565b9190820180921161308557565b60178151818103908082116130855782906149c8836149c181614988565b1015614af6565b6149d6826149c18582614996565b6149ec85516149e58585614996565b1115614b33565b03614a04575050506040515f81526020810160405290565b60405192601f821692831560051b80858701019484860193010101905b808410614a395750508252601f01601f191660405290565b9092602080918551815201930190614a21565b15614a5357565b60405162461bcd60e51b8152602060048201526015602482015274746f416464726573735f6f75744f66426f756e647360581b6044820152606490fd5b90601481019182821161308557818310614abc57614ab360209382511015614a4c565b01015160601c90565b60405162461bcd60e51b8152602060048201526012602482015271746f416464726573735f6f766572666c6f7760701b6044820152606490fd5b15614afd57565b60405162461bcd60e51b815260206004820152600e60248201526d736c6963655f6f766572666c6f7760901b6044820152606490fd5b15614b3a57565b60405162461bcd60e51b8152602060048201526011602482015270736c6963655f6f75744f66426f756e647360781b6044820152606490fdfe628a44970c0e450415e3ae74334ea44f3307b74dbf677a1371190242bf2f35898be0079c531659141344cd1fd0a4f28419497f9722a3daafe3b4186f6b6457e0ad90e2570fc4fe9f7437be3188d5c791c6662892d31731992aa88f5c87621983ef729aaa41b9fd994f9ff7c1960df214a84f722002e6cfbea31799cd0873a3efa164736f6c634300081a000a","linkReferences":{"src/lib/CowSwapLib.sol":{"CowSwapLib":[{"start":1836,"length":20},{"start":2568,"length":20}]},"src/lib/GmxLib.sol":{"GmxLib":[{"start":2394,"length":20},{"start":3096,"length":20},{"start":4254,"length":20},{"start":6111,"length":20},{"start":7381,"length":20},{"start":7672,"length":20},{"start":17287,"length":20}]},"src/lib/HypercoreVaultLib.sol":{"HypercoreVaultLib":[{"start":2231,"length":20},{"start":6649,"length":20},{"start":7962,"length":20},{"start":15404,"length":20},{"start":15568,"length":20},{"start":15680,"length":20}]}}},"methodIdentifiers":{"allowApprovalDestination(address,string)":"98b3cc39","allowAsset(address,string)":"86b6dbe5","allowCallSite(address,bytes4,string)":"5e4ccace","allowDelegationApprovalDestination(address,string)":"63cc17f2","allowReceiver(address,string)":"72e548a9","allowSender(address,string)":"fa2c59c8","allowWithdrawDestination(address,string)":"5ace1d92","allowedApprovalDestinations(address)":"eb0de042","allowedAssets(address)":"a4c1cccb","allowedCCTPDestinations(uint32)":"7cac69c3","allowedCCTPMessengers(address)":"07605342","allowedCallSites(address,bytes4)":"a847cf4d","allowedDelegationApprovalDestinations(address)":"4b941268","allowedLagoonVaults(address)":"8fb4dff2","allowedReceivers(address)":"3cf20025","allowedSenders(address)":"fadbcf48","allowedTargets(address)":"b8fe8d5f","allowedVeloraSwappers(address)":"b45ea48b","allowedWithdrawDestinations(address)":"07ef00cf","anyAsset()":"87301608","callSiteCount()":"a9fc3d4f","getGovernanceAddress()":"73252494","getInternalVersion()":"fdedfa27","gmxOrderVaults(address)":"a86ddc57","isAllowedApprovalDestination(address)":"1d49039c","isAllowedAsset(address)":"c537bed0","isAllowedCCTPDestination(uint32)":"748fca46","isAllowedCCTPMessenger(address)":"0411fb8e","isAllowedCallSite(address,bytes4)":"713ebf3b","isAllowedCowSwap(address)":"333f22e8","isAllowedDelegationApprovalDestination(address)":"2dc32a61","isAllowedGMXMarket(address)":"2e31e9c6","isAllowedGMXRouter(address)":"cbdb1dcf","isAllowedLagoonVault(address)":"6fd7fdef","isAllowedReceiver(address)":"d075f9bb","isAllowedSender(address)":"be8c97b0","isAllowedTarget(address)":"78addb48","isAllowedVeloraSwapper(address)":"f84756aa","isAllowedWithdrawDestination(address)":"efb47bff","multicall(bytes[])":"ac9650d8","owner()":"8da5cb5b","removeApprovalDestination(address,string)":"04a3ba25","removeAsset(address,string)":"f901dc33","removeCCTPDestination(uint32,string)":"ba44ad41","removeCallSite(address,bytes4,string)":"d7334c9d","removeDelegationApprovalDestination(address,string)":"f259a073","removeGMXMarket(address,string)":"4d3d31ca","removeHypercoreVault(address,string)":"e2873b6d","removeReceiver(address,string)":"2d12d788","removeSender(address,string)":"a67e1f54","removeWithdrawDestination(address,string)":"8c2fdf9e","renounceOwnership()":"715018a6","setAnyAssetAllowed(bool,string)":"c2e657ae","transferOwnership(address)":"f2fde38b","validateCall(address,address,bytes)":"6d5025f1","whitelistAaveV3(address,string)":"f20e85e0","whitelistCCTP(address,string)":"ec011440","whitelistCCTPDestination(uint32,string)":"e6f32c51","whitelistCoreWriter(address,address,string)":"acb9da16","whitelistCowSwap(address,address,string)":"1047789e","whitelistERC4626(address,string)":"86a6ae15","whitelistGMX(address,address,address,string)":"62d6775e","whitelistGMXMarket(address,string)":"d7581509","whitelistHypercoreVault(address,string)":"2de905bc","whitelistLagoon(address,string)":"5e6afe4d","whitelistOrderly(address,string)":"db17a170","whitelistToken(address,string)":"ee5462cc","whitelistTokenForDelegation(address,string)":"6d9a1423","whitelistUniswapV2Router(address,string)":"3ea35551","whitelistUniswapV3Router(address,string)":"34ec8d7e","whitelistVelora(address,address,string)":"4efbad39"},"id":2}