{"abi":[{"type":"constructor","inputs":[],"stateMutability":"nonpayable"},{"type":"function","name":"allowApprovalDestination","inputs":[{"name":"destination","type":"address","internalType":"address"},{"name":"notes","type":"string","internalType":"string"}],"outputs":[],"stateMutability":"nonpayable"},{"type":"function","name":"allowAsset","inputs":[{"name":"asset","type":"address","internalType":"address"},{"name":"notes","type":"string","internalType":"string"}],"outputs":[],"stateMutability":"nonpayable"},{"type":"function","name":"allowCallSite","inputs":[{"name":"target","type":"address","internalType":"address"},{"name":"selector","type":"bytes4","internalType":"bytes4"},{"name":"notes","type":"string","internalType":"string"}],"outputs":[],"stateMutability":"nonpayable"},{"type":"function","name":"allowDelegationApprovalDestination","inputs":[{"name":"destination","type":"address","internalType":"address"},{"name":"notes","type":"string","internalType":"string"}],"outputs":[],"stateMutability":"nonpayable"},{"type":"function","name":"allowReceiver","inputs":[{"name":"receiver","type":"address","internalType":"address"},{"name":"notes","type":"string","internalType":"string"}],"outputs":[],"stateMutability":"nonpayable"},{"type":"function","name":"allowSender","inputs":[{"name":"sender","type":"address","internalType":"address"},{"name":"notes","type":"string","internalType":"string"}],"outputs":[],"stateMutability":"nonpayable"},{"type":"function","name":"allowWithdrawDestination","inputs":[{"name":"destination","type":"address","internalType":"address"},{"name":"notes","type":"string","internalType":"string"}],"outputs":[],"stateMutability":"nonpayable"},{"type":"function","name":"allowedApprovalDestinations","inputs":[{"name":"destination","type":"address","internalType":"address"}],"outputs":[{"name":"allowed","type":"bool","internalType":"bool"}],"stateMutability":"view"},{"type":"function","name":"allowedAssets","inputs":[{"name":"token","type":"address","internalType":"address"}],"outputs":[{"name":"allowed","type":"bool","internalType":"bool"}],"stateMutability":"view"},{"type":"function","name":"allowedCCTPDestinations","inputs":[{"name":"domain","type":"uint32","internalType":"uint32"}],"outputs":[{"name":"allowed","type":"bool","internalType":"bool"}],"stateMutability":"view"},{"type":"function","name":"allowedCCTPMessengers","inputs":[{"name":"messenger","type":"address","internalType":"address"}],"outputs":[{"name":"allowed","type":"bool","internalType":"bool"}],"stateMutability":"view"},{"type":"function","name":"allowedCallSites","inputs":[{"name":"target","type":"address","internalType":"address"},{"name":"selector","type":"bytes4","internalType":"bytes4"}],"outputs":[{"name":"allowed","type":"bool","internalType":"bool"}],"stateMutability":"view"},{"type":"function","name":"allowedDelegationApprovalDestinations","inputs":[{"name":"destination","type":"address","internalType":"address"}],"outputs":[{"name":"allowed","type":"bool","internalType":"bool"}],"stateMutability":"view"},{"type":"function","name":"allowedLagoonVaults","inputs":[{"name":"destination","type":"address","internalType":"address"}],"outputs":[{"name":"allowed","type":"bool","internalType":"bool"}],"stateMutability":"view"},{"type":"function","name":"allowedReceivers","inputs":[{"name":"receiver","type":"address","internalType":"address"}],"outputs":[{"name":"allowed","type":"bool","internalType":"bool"}],"stateMutability":"view"},{"type":"function","name":"allowedSenders","inputs":[{"name":"sender","type":"address","internalType":"address"}],"outputs":[{"name":"allowed","type":"bool","internalType":"bool"}],"stateMutability":"view"},{"type":"function","name":"allowedTargets","inputs":[{"name":"target","type":"address","internalType":"address"}],"outputs":[{"name":"allowed","type":"bool","internalType":"bool"}],"stateMutability":"view"},{"type":"function","name":"allowedWithdrawDestinations","inputs":[{"name":"destination","type":"address","internalType":"address"}],"outputs":[{"name":"allowed","type":"bool","internalType":"bool"}],"stateMutability":"view"},{"type":"function","name":"anyAsset","inputs":[],"outputs":[{"name":"","type":"bool","internalType":"bool"}],"stateMutability":"view"},{"type":"function","name":"callSiteCount","inputs":[],"outputs":[{"name":"","type":"uint256","internalType":"uint256"}],"stateMutability":"view"},{"type":"function","name":"getGovernanceAddress","inputs":[],"outputs":[{"name":"","type":"address","internalType":"address"}],"stateMutability":"view"},{"type":"function","name":"getInternalVersion","inputs":[],"outputs":[{"name":"","type":"uint8","internalType":"uint8"}],"stateMutability":"pure"},{"type":"function","name":"gmxOrderVaults","inputs":[{"name":"exchangeRouter","type":"address","internalType":"address"}],"outputs":[{"name":"","type":"address","internalType":"address"}],"stateMutability":"view"},{"type":"function","name":"isAllowedApprovalDestination","inputs":[{"name":"receiver","type":"address","internalType":"address"}],"outputs":[{"name":"","type":"bool","internalType":"bool"}],"stateMutability":"view"},{"type":"function","name":"isAllowedAsset","inputs":[{"name":"token","type":"address","internalType":"address"}],"outputs":[{"name":"","type":"bool","internalType":"bool"}],"stateMutability":"view"},{"type":"function","name":"isAllowedCCTPDestination","inputs":[{"name":"domain","type":"uint32","internalType":"uint32"}],"outputs":[{"name":"","type":"bool","internalType":"bool"}],"stateMutability":"view"},{"type":"function","name":"isAllowedCCTPMessenger","inputs":[{"name":"messenger","type":"address","internalType":"address"}],"outputs":[{"name":"","type":"bool","internalType":"bool"}],"stateMutability":"view"},{"type":"function","name":"isAllowedCallSite","inputs":[{"name":"target","type":"address","internalType":"address"},{"name":"selector","type":"bytes4","internalType":"bytes4"}],"outputs":[{"name":"","type":"bool","internalType":"bool"}],"stateMutability":"view"},{"type":"function","name":"isAllowedCowSwap","inputs":[{"name":"settlement","type":"address","internalType":"address"}],"outputs":[{"name":"","type":"bool","internalType":"bool"}],"stateMutability":"view"},{"type":"function","name":"isAllowedDelegationApprovalDestination","inputs":[{"name":"receiver","type":"address","internalType":"address"}],"outputs":[{"name":"","type":"bool","internalType":"bool"}],"stateMutability":"view"},{"type":"function","name":"isAllowedGMXMarket","inputs":[{"name":"market","type":"address","internalType":"address"}],"outputs":[{"name":"","type":"bool","internalType":"bool"}],"stateMutability":"view"},{"type":"function","name":"isAllowedGMXRouter","inputs":[{"name":"router","type":"address","internalType":"address"}],"outputs":[{"name":"","type":"bool","internalType":"bool"}],"stateMutability":"view"},{"type":"function","name":"isAllowedLagoonVault","inputs":[{"name":"vault","type":"address","internalType":"address"}],"outputs":[{"name":"","type":"bool","internalType":"bool"}],"stateMutability":"view"},{"type":"function","name":"isAllowedReceiver","inputs":[{"name":"receiver","type":"address","internalType":"address"}],"outputs":[{"name":"","type":"bool","internalType":"bool"}],"stateMutability":"view"},{"type":"function","name":"isAllowedSender","inputs":[{"name":"sender","type":"address","internalType":"address"}],"outputs":[{"name":"","type":"bool","internalType":"bool"}],"stateMutability":"view"},{"type":"function","name":"isAllowedTarget","inputs":[{"name":"target","type":"address","internalType":"address"}],"outputs":[{"name":"","type":"bool","internalType":"bool"}],"stateMutability":"view"},{"type":"function","name":"isAllowedVeloraSwapper","inputs":[{"name":"swapper","type":"address","internalType":"address"}],"outputs":[{"name":"","type":"bool","internalType":"bool"}],"stateMutability":"view"},{"type":"function","name":"isAllowedWithdrawDestination","inputs":[{"name":"receiver","type":"address","internalType":"address"}],"outputs":[{"name":"","type":"bool","internalType":"bool"}],"stateMutability":"view"},{"type":"function","name":"multicall","inputs":[{"name":"data","type":"bytes[]","internalType":"bytes[]"}],"outputs":[{"name":"results","type":"bytes[]","internalType":"bytes[]"}],"stateMutability":"payable"},{"type":"function","name":"owner","inputs":[],"outputs":[{"name":"","type":"address","internalType":"address"}],"stateMutability":"view"},{"type":"function","name":"removeApprovalDestination","inputs":[{"name":"destination","type":"address","internalType":"address"},{"name":"notes","type":"string","internalType":"string"}],"outputs":[],"stateMutability":"nonpayable"},{"type":"function","name":"removeAsset","inputs":[{"name":"asset","type":"address","internalType":"address"},{"name":"notes","type":"string","internalType":"string"}],"outputs":[],"stateMutability":"nonpayable"},{"type":"function","name":"removeCCTPDestination","inputs":[{"name":"domain","type":"uint32","internalType":"uint32"},{"name":"notes","type":"string","internalType":"string"}],"outputs":[],"stateMutability":"nonpayable"},{"type":"function","name":"removeCallSite","inputs":[{"name":"target","type":"address","internalType":"address"},{"name":"selector","type":"bytes4","internalType":"bytes4"},{"name":"notes","type":"string","internalType":"string"}],"outputs":[],"stateMutability":"nonpayable"},{"type":"function","name":"removeDelegationApprovalDestination","inputs":[{"name":"destination","type":"address","internalType":"address"},{"name":"notes","type":"string","internalType":"string"}],"outputs":[],"stateMutability":"nonpayable"},{"type":"function","name":"removeGMXMarket","inputs":[{"name":"market","type":"address","internalType":"address"},{"name":"notes","type":"string","internalType":"string"}],"outputs":[],"stateMutability":"nonpayable"},{"type":"function","name":"removeHypercoreVault","inputs":[{"name":"vault","type":"address","internalType":"address"},{"name":"notes","type":"string","internalType":"string"}],"outputs":[],"stateMutability":"nonpayable"},{"type":"function","name":"removeReceiver","inputs":[{"name":"receiver","type":"address","internalType":"address"},{"name":"notes","type":"string","internalType":"string"}],"outputs":[],"stateMutability":"nonpayable"},{"type":"function","name":"removeSender","inputs":[{"name":"sender","type":"address","internalType":"address"},{"name":"notes","type":"string","internalType":"string"}],"outputs":[],"stateMutability":"nonpayable"},{"type":"function","name":"removeWithdrawDestination","inputs":[{"name":"destination","type":"address","internalType":"address"},{"name":"notes","type":"string","internalType":"string"}],"outputs":[],"stateMutability":"nonpayable"},{"type":"function","name":"renounceOwnership","inputs":[],"outputs":[],"stateMutability":"nonpayable"},{"type":"function","name":"setAnyAssetAllowed","inputs":[{"name":"value","type":"bool","internalType":"bool"},{"name":"notes","type":"string","internalType":"string"}],"outputs":[],"stateMutability":"nonpayable"},{"type":"function","name":"transferOwnership","inputs":[{"name":"newOwner","type":"address","internalType":"address"}],"outputs":[],"stateMutability":"nonpayable"},{"type":"function","name":"validateCall","inputs":[{"name":"sender","type":"address","internalType":"address"},{"name":"target","type":"address","internalType":"address"},{"name":"callDataWithSelector","type":"bytes","internalType":"bytes"}],"outputs":[],"stateMutability":"view"},{"type":"function","name":"whitelistAaveV3","inputs":[{"name":"lendingPool","type":"address","internalType":"address"},{"name":"notes","type":"string","internalType":"string"}],"outputs":[],"stateMutability":"nonpayable"},{"type":"function","name":"whitelistCCTP","inputs":[{"name":"tokenMessenger","type":"address","internalType":"address"},{"name":"notes","type":"string","internalType":"string"}],"outputs":[],"stateMutability":"nonpayable"},{"type":"function","name":"whitelistCCTPDestination","inputs":[{"name":"domain","type":"uint32","internalType":"uint32"},{"name":"notes","type":"string","internalType":"string"}],"outputs":[],"stateMutability":"nonpayable"},{"type":"function","name":"whitelistCoreWriter","inputs":[{"name":"coreWriter","type":"address","internalType":"address"},{"name":"coreDepositWallet","type":"address","internalType":"address"},{"name":"notes","type":"string","internalType":"string"}],"outputs":[],"stateMutability":"nonpayable"},{"type":"function","name":"whitelistCowSwap","inputs":[{"name":"settlementContract","type":"address","internalType":"address"},{"name":"relayerContract","type":"address","internalType":"address"},{"name":"notes","type":"string","internalType":"string"}],"outputs":[],"stateMutability":"nonpayable"},{"type":"function","name":"whitelistERC4626","inputs":[{"name":"vault","type":"address","internalType":"address"},{"name":"notes","type":"string","internalType":"string"}],"outputs":[],"stateMutability":"nonpayable"},{"type":"function","name":"whitelistGMX","inputs":[{"name":"exchangeRouter","type":"address","internalType":"address"},{"name":"syntheticsRouter","type":"address","internalType":"address"},{"name":"orderVault","type":"address","internalType":"address"},{"name":"collateralTokens","type":"address[]","internalType":"address[]"},{"name":"notes","type":"string","internalType":"string"}],"outputs":[],"stateMutability":"nonpayable"},{"type":"function","name":"whitelistGMXMarket","inputs":[{"name":"market","type":"address","internalType":"address"},{"name":"notes","type":"string","internalType":"string"}],"outputs":[],"stateMutability":"nonpayable"},{"type":"function","name":"whitelistHypercoreVault","inputs":[{"name":"vault","type":"address","internalType":"address"},{"name":"notes","type":"string","internalType":"string"}],"outputs":[],"stateMutability":"nonpayable"},{"type":"function","name":"whitelistLagoon","inputs":[{"name":"vault","type":"address","internalType":"address"},{"name":"notes","type":"string","internalType":"string"}],"outputs":[],"stateMutability":"nonpayable"},{"type":"function","name":"whitelistToken","inputs":[{"name":"token","type":"address","internalType":"address"},{"name":"notes","type":"string","internalType":"string"}],"outputs":[],"stateMutability":"nonpayable"},{"type":"function","name":"whitelistTokenForDelegation","inputs":[{"name":"token","type":"address","internalType":"address"},{"name":"notes","type":"string","internalType":"string"}],"outputs":[],"stateMutability":"nonpayable"},{"type":"function","name":"whitelistUniswapV2Router","inputs":[{"name":"router","type":"address","internalType":"address"},{"name":"notes","type":"string","internalType":"string"}],"outputs":[],"stateMutability":"nonpayable"},{"type":"function","name":"whitelistUniswapV3Router","inputs":[{"name":"router","type":"address","internalType":"address"},{"name":"notes","type":"string","internalType":"string"}],"outputs":[],"stateMutability":"nonpayable"},{"type":"function","name":"whitelistVelora","inputs":[{"name":"augustusSwapper","type":"address","internalType":"address"},{"name":"tokenTransferProxy","type":"address","internalType":"address"},{"name":"notes","type":"string","internalType":"string"}],"outputs":[],"stateMutability":"nonpayable"},{"type":"event","name":"AnyAssetSet","inputs":[{"name":"value","type":"bool","indexed":false,"internalType":"bool"},{"name":"notes","type":"string","indexed":false,"internalType":"string"}],"anonymous":false},{"type":"event","name":"AnyVaultSet","inputs":[{"name":"value","type":"bool","indexed":false,"internalType":"bool"},{"name":"notes","type":"string","indexed":false,"internalType":"string"}],"anonymous":false},{"type":"event","name":"ApprovalDestinationApproved","inputs":[{"name":"destination","type":"address","indexed":false,"internalType":"address"},{"name":"notes","type":"string","indexed":false,"internalType":"string"}],"anonymous":false},{"type":"event","name":"ApprovalDestinationRemoved","inputs":[{"name":"destination","type":"address","indexed":false,"internalType":"address"},{"name":"notes","type":"string","indexed":false,"internalType":"string"}],"anonymous":false},{"type":"event","name":"AssetApproved","inputs":[{"name":"asset","type":"address","indexed":false,"internalType":"address"},{"name":"notes","type":"string","indexed":false,"internalType":"string"}],"anonymous":false},{"type":"event","name":"AssetRemoved","inputs":[{"name":"asset","type":"address","indexed":false,"internalType":"address"},{"name":"notes","type":"string","indexed":false,"internalType":"string"}],"anonymous":false},{"type":"event","name":"CCTPDestinationApproved","inputs":[{"name":"domain","type":"uint32","indexed":false,"internalType":"uint32"},{"name":"notes","type":"string","indexed":false,"internalType":"string"}],"anonymous":false},{"type":"event","name":"CCTPDestinationRemoved","inputs":[{"name":"domain","type":"uint32","indexed":false,"internalType":"uint32"},{"name":"notes","type":"string","indexed":false,"internalType":"string"}],"anonymous":false},{"type":"event","name":"CCTPMessengerApproved","inputs":[{"name":"tokenMessenger","type":"address","indexed":false,"internalType":"address"},{"name":"notes","type":"string","indexed":false,"internalType":"string"}],"anonymous":false},{"type":"event","name":"CallSiteApproved","inputs":[{"name":"target","type":"address","indexed":false,"internalType":"address"},{"name":"selector","type":"bytes4","indexed":false,"internalType":"bytes4"},{"name":"notes","type":"string","indexed":false,"internalType":"string"}],"anonymous":false},{"type":"event","name":"CallSiteRemoved","inputs":[{"name":"target","type":"address","indexed":false,"internalType":"address"},{"name":"selector","type":"bytes4","indexed":false,"internalType":"bytes4"},{"name":"notes","type":"string","indexed":false,"internalType":"string"}],"anonymous":false},{"type":"event","name":"DelegationApprovalDestinationApproved","inputs":[{"name":"destination","type":"address","indexed":false,"internalType":"address"},{"name":"notes","type":"string","indexed":false,"internalType":"string"}],"anonymous":false},{"type":"event","name":"DelegationApprovalDestinationRemoved","inputs":[{"name":"destination","type":"address","indexed":false,"internalType":"address"},{"name":"notes","type":"string","indexed":false,"internalType":"string"}],"anonymous":false},{"type":"event","name":"ERC4626Approved","inputs":[{"name":"vault","type":"address","indexed":false,"internalType":"address"},{"name":"notes","type":"string","indexed":false,"internalType":"string"}],"anonymous":false},{"type":"event","name":"LagoonVaultApproved","inputs":[{"name":"vault","type":"address","indexed":false,"internalType":"address"},{"name":"notes","type":"string","indexed":false,"internalType":"string"}],"anonymous":false},{"type":"event","name":"OwnershipTransferred","inputs":[{"name":"previousOwner","type":"address","indexed":true,"internalType":"address"},{"name":"newOwner","type":"address","indexed":true,"internalType":"address"}],"anonymous":false},{"type":"event","name":"ReceiverApproved","inputs":[{"name":"receiver","type":"address","indexed":false,"internalType":"address"},{"name":"notes","type":"string","indexed":false,"internalType":"string"}],"anonymous":false},{"type":"event","name":"ReceiverRemoved","inputs":[{"name":"receiver","type":"address","indexed":false,"internalType":"address"},{"name":"notes","type":"string","indexed":false,"internalType":"string"}],"anonymous":false},{"type":"event","name":"SenderApproved","inputs":[{"name":"sender","type":"address","indexed":false,"internalType":"address"},{"name":"notes","type":"string","indexed":false,"internalType":"string"}],"anonymous":false},{"type":"event","name":"SenderRemoved","inputs":[{"name":"sender","type":"address","indexed":false,"internalType":"address"},{"name":"notes","type":"string","indexed":false,"internalType":"string"}],"anonymous":false},{"type":"event","name":"WithdrawDestinationApproved","inputs":[{"name":"destination","type":"address","indexed":false,"internalType":"address"},{"name":"notes","type":"string","indexed":false,"internalType":"string"}],"anonymous":false},{"type":"event","name":"WithdrawDestinationRemoved","inputs":[{"name":"destination","type":"address","indexed":false,"internalType":"address"},{"name":"notes","type":"string","indexed":false,"internalType":"string"}],"anonymous":false}],"bytecode":{"object":"0x60808060405234606a57600c8054610100600160a81b0319811633600881811b610100600160a81b0316929092179093551c6001600160a01b03167f8be0079c531659141344cd1fd0a4f28419497f9722a3daafe3b4186f6b6457e05f80a36143d1908161006f8239f35b5f80fdfe60806040526004361015610011575f80fd5b5f3560e01c80630411fb8e1461042857806304a3ba251461042d578063076053421461042857806307ef00cf146103385780631047789e146104235780631d49039c146103475780632d12d7881461041e5780632dc32a61146104005780632de905bc146104195780632e31e9c614610414578063333f22e81461040f57806334ec8d7e1461040a5780633cf20025146103605780633ea35551146104055780634b941268146104005780634d3d31ca146103fb5780634efbad39146103f65780635ace1d92146103f15780635e4ccace146103ec5780635e6afe4d146103e757806363cc17f2146103e25780636d5025f1146103dd5780636d9a1423146103d85780636e3de202146103d35780636fd7fdef146103a6578063713ebf3b14610392578063715018a6146103ce57806372e548a9146103c957806373252494146103ab578063748fca46146103c457806378addb48146103795780637cac69c3146103c457806386a6ae15146103bf57806386b6dbe5146103ba57806387301608146103b55780638c2fdf9e146103b05780638da5cb5b146103ab5780638fb4dff2146103a657806398b3cc39146103a1578063a4c1cccb1461039c578063a67e1f5414610397578063a847cf4d14610392578063a86ddc571461038d578063a9fc3d4f14610388578063ac9650d814610383578063acb9da161461037e578063b8fe8d5f14610379578063ba44ad4114610374578063be8c97b014610315578063c2e657ae1461036f578063c537bed01461036a578063cbdb1dcf14610365578063d075f9bb14610360578063d7334c9d1461035b578063d758150914610356578063e2873b6d14610351578063e6f32c511461034c578063eb0de04214610347578063ec01144014610342578063ee5462cc1461033d578063efb47bff14610338578063f20e85e014610333578063f259a0731461032e578063f2fde38b14610329578063f84756aa14610324578063f901dc331461031f578063fa2c59c81461031a578063fadbcf48146103155763fdedfa2714610310575f80fd5b6122ac565b611abd565b612231565b6121b9565b61213f565b61206f565b611ff7565b611f47565b610586565b611f1d565b611e22565b6106f5565b611dac565b611d41565b611cd6565b611c58565b610a6d565b611bde565b611bad565b611b07565b611a4a565b611392565b61195b565b611880565b6117e0565b61173e565b6111e4565b6116b0565b611670565b611608565b6111a4565b611308565b611590565b61156e565b611506565b6113d2565b611358565b61128d565b611241565b611063565b610f89565b610f6f565b610f07565b610de4565b610d51565b610c73565b610bc5565b610b5d565b6107ad565b610aad565b6109a8565b61092e565b610873565b6107ed565b610735565b61060a565b610447565b6104f0565b6001600160a01b0381160361044357565b5f80fd5b346104435760203660031901126104435760043561046481610432565b60018060a01b03165f52600a602052602060ff60405f2054166040519015158152f35b9181601f84011215610443578235916001600160401b038311610443576020838186019501011161044357565b906040600319830112610443576004356104cd81610432565b91602435906001600160401b038211610443576104ec91600401610487565b9091565b34610443577fb71be9befd3ac90c1c9981d3b1161b3c2c6dcd741f13b34061aa251226a802df610568610522366104b4565b61053d60018060a09694961b03600c5460081c1633146122c7565b6001600160a01b0383165f9081526007602052604090819020805460ff191690555193849384612332565b0390a1005b6001600160a01b03165f90815260208190526040902090565b34610443576020366003190112610443576004356105a381610432565b60018060a01b03165f526006602052602060ff60405f2054166040519015158152f35b6060600319820112610443576004356105de81610432565b916024356105eb81610432565b91604435906001600160401b038211610443576104ec91600401610487565b346104435761068b61061b366105c6565b81819361064260018060a09996991b03600c5460081c16331461063d816122c7565b6122c7565b6001600160a01b0386165f9081526007602052604090819020805460ff19166001179055515f80516020614345833981519152908061068386868b84612332565b0390a161312d565b73__$6fc6cfb0e70d6cdcacff54ae5a1f7f5d2d$__803b15610443576106ca935f936040519586948593849363303e5bc960e21b855260048501612332565b03915af480156106f0576106da57005b806106e85f6106ee9361236b565b80611237565b005b612393565b346104435760203660031901126104435760043561071281610432565b60018060a01b03165f526007602052602060ff60405f2054166040519015158152f35b34610443577f4e13b11ab98e672bd78295ef9cebe764dc617f95decf47d842c25b83abc0c724610568610767366104b4565b61078260018060a09694961b03600c5460081c1633146122c7565b6001600160a01b0383165f9081526005602052604090819020805460ff191690555193849384612332565b34610443576020366003190112610443576004356107ca81610432565b60018060a01b03165f526008602052602060ff60405f2054166040519015158152f35b34610443576107fb366104b4565b915f9261081660018060a01b03600c5460081c1633146122c7565b73__$ed404fe8d8cd691b210f32f3e93e2f5fa7$__803b1561044357610855935f9360405195869485938493630b7a416f60e21b855260048501612332565b03915af480156106f057610867575080f35b6106ee91505f9061236b565b346104435760203660031901126104435760043561089081610432565b600c546040516312789ae160e11b81526001600160a01b03909216600483015260ff161515602482015260208160448173__$abe99e6f90010eaab1ae0937da96c92fff$__5af480156106f0576108fb915f916108ff575b5060405191829182901515815260200190565b0390f35b610921915060203d602011610927575b610919818361236b565b81019061239e565b5f6108e8565b503d61090f565b346104435760203660031901126104435760043561094b81610432565b604051630667e45d60e31b81526001600160a01b03909116600482015260208160248173__$6fc6cfb0e70d6cdcacff54ae5a1f7f5d2d$__5af480156106f0576108fb915f916108ff575060405191829182901515815260200190565b34610443576106ee6109b9366104b4565b916109d660018060a01b03600c5460081c16331461063d816122c7565b6001600160a01b0381165f8181526020818152604080832063c04b8d5960e01b84529091529020600160ff198254161790555f52600160205260405f20600160ff19825416179055610a31610a2c600254612eeb565b600255565b5f805160206143a583398151915260405180610a4f86868684612f0d565b0390a1610a5d8383836123b3565b610a6883838361244f565b61312d565b3461044357602036600319011261044357600435610a8a81610432565b60018060a01b03165f526005602052602060ff60405f2054166040519015158152f35b34610443576106ee610abe366104b4565b91610adb60018060a01b03600c5460081c16331461063d816122c7565b6001600160a01b0381165f818152602081815260408083206338ed173960e01b84529091529020600160ff198254161790555f52600160205260405f20600160ff19825416179055610b31610a2c600254612eeb565b5f805160206143a583398151915260405180610b4f86868684612f3c565b0390a1610a688383836124e6565b3461044357610b6b366104b4565b915f92610b8660018060a01b03600c5460081c1633146122c7565b73__$abe99e6f90010eaab1ae0937da96c92fff$__803b1561044357610855935f936040519586948593849363f7570c2960e01b855260048501612332565b34610443575f80516020614345833981519152610be1366105c6565b9190809491610c0260018060a01b03600c5460081c16331461063d816122c7565b60018060a01b0381165f52600760205260405f20600160ff19825416179055610c318460405193849384612332565b0390a173__$3ebced50d16a3712772def6ef3a529a5cb$__803b15610443576106ca935f9360405195869485938493631a65191160e21b855260048501612332565b34610443577f3562181221a42a19ddd03a82dfe06acab1905ceb65cdaf7d86a1d9fec6643552610568610ca5366104b4565b610cc060018060a09694961b03600c5460081c1633146122c7565b6001600160a01b0383165f9081526006602052604090819020805460ff191660011790555193849384612332565b602435906001600160e01b03198216820361044357565b606060031982011261044357600435610d1d81610432565b916024356001600160e01b0319811681036104435791604435906001600160401b038211610443576104ec91600401610487565b34610443575f805160206143a5833981519152610568610d7036610d05565b90610d8c60018060a09795971b03600c5460081c1633146122c7565b60018060a01b038416805f525f602052610da98660405f20611728565b600160ff198254161790555f52600160205260405f20600160ff19825416179055610dd8610a2c600254612eeb565b60405194859485613056565b34610443577ffaa136302ac223cf7c1146490a741e4520e886fc22d7e759641453f432283d01610568610e16366104b4565b610e3160018060a09694961b03600c5460081c1633146122c7565b6001600160a01b038381165f818152600960205260409020805460ff19166001179055600c549091610e689160081c1633146122c7565b805f525f602052610e8a60405f2063559ec80d60e01b5f5260205260405f2090565b600160ff198254161790555f52600160205260405f20600160ff19825416179055610eb9610a2c600254612eeb565b5f805160206143a583398151915260405180610ed784888884612f6b565b0390a1610ee581858561257d565b610ef0818585612614565b610efb8185856126ab565b60405193849384612332565b34610443575f80516020614345833981519152610568610f26366104b4565b610f4160018060a09694961b03600c5460081c1633146122c7565b6001600160a01b0383165f9081526008602052604090819020805460ff191660011790555193849384612332565b34610443576106ee610f80366105c6565b929190916135e4565b34610443576106ee610f9a366104b4565b91610fb760018060a01b03600c5460081c16331461063d816122c7565b6001600160a01b0381165f81815260208181526040808320630c04a8a160e41b84529091529020600160ff198254161790555f52600160205260405f20600160ff1982541617905561100d610a2c600254612eeb565b5f805160206143a58339815191526040518061102b86868684612f9a565b0390a1613103565b9181601f84011215610443578235916001600160401b038311610443576020808501948460051b01011161044357565b346104435760a03660031901126104435760043561108081610432565b6024359061108d82610432565b6044359061109a82610432565b6064356001600160401b038111610443576110b9903690600401611033565b90939091906084356001600160401b038111610443576110dd903690600401610487565b9290946110f860018060a01b03600c5460081c1633146122c7565b611103848784612dbd565b61110e84878561312d565b73__$abe99e6f90010eaab1ae0937da96c92fff$__803b156104435786935f9361114f876040519788968795869563f4d5bb9360e01b875260048701613089565b03915af480156106f057611190575b505f5b82811061116a57005b8061118a8386611185611180600196898c6130cf565b6130e4565b613d65565b01611161565b806106e85f61119e9361236b565b5f61115e565b34610443576020366003190112610443576004356111c181610432565b60018060a01b03165f526009602052602060ff60405f2054166040519015158152f35b3461044357604036600319011261044357602060ff61122b60043561120881610432565b611210610cee565b6001600160a01b039091165f90815280855260409020611728565b54166040519015158152f35b5f91031261044357565b34610443575f36600319011261044357611259613e0a565b600c8054610100600160a81b031981169091555f9060081c6001600160a01b03165f805160206143658339815191528280a3005b34610443577f62dd88c5ecfa60713a657640ebec4de26fc1aefa4afdb24e6d15a124fce727796105686112bf366104b4565b6112da60018060a09694961b03600c5460081c1633146122c7565b6001600160a01b0383165f9081526005602052604090819020805460ff191660011790555193849384612332565b34610443575f36600319011261044357600c5460405160089190911c6001600160a01b03168152602090f35b6004359063ffffffff8216820361044357565b359063ffffffff8216820361044357565b346104435760203660031901126104435763ffffffff611376611334565b165f52600b602052602060ff60405f2054166040519015158152f35b34610443576020366003190112610443576004356113af81610432565b60018060a01b03165f526001602052602060ff60405f2054166040519015158152f35b34610443576113e0366104b4565b916113f960018060a01b03600c5460081c1633146122c7565b6040516338d52e0f60e01b8152926020846004816001600160a01b0386165afa9081156106f057610efb8185610568947fd2851df39115d63968e90113e8b3a96f13e33ac4c2e5a9caa1afeffe59e55748985f916114d7575b5061145e838389612742565b6114698383896127d9565b611474838389612870565b61147f838389612907565b61148a83838961299e565b611495838389612a33565b6114a0838389612aca565b6114ab838389612b61565b6114b6838389612bf8565b6114c1838389612c8f565b6114cc83838961312d565b611185838389613d65565b6114f9915060203d6020116114ff575b6114f1818361236b565b8101906130ee565b5f611452565b503d6114e7565b34610443575f80516020614385833981519152610568611525366104b4565b61154060018060a09694961b03600c5460081c1633146122c7565b6001600160a01b0383165f9081526003602052604090819020805460ff191660011790555193849384612332565b34610443575f36600319011261044357602060ff600c54166040519015158152f35b34610443577f1212f8ddb39de8e1a339460c95752d61100723efeaa34ccd94bca94393f409386105686115c2366104b4565b6115dd60018060a09694961b03600c5460081c1633146122c7565b6001600160a01b0383165f9081526006602052604090819020805460ff191690555193849384612332565b34610443575f80516020614345833981519152610568611627366104b4565b61164260018060a09694961b03600c5460081c1633146122c7565b6001600160a01b0383165f9081526007602052604090819020805460ff191660011790555193849384612332565b346104435760203660031901126104435760043561168d81610432565b60018060a01b03165f526003602052602060ff60405f2054166040519015158152f35b34610443577f3097928509c53a2dab9500431201d82b0d756e8f890fd01f4ae6b33b45687ea46105686116e2366104b4565b6116fd60018060a09694961b03600c5460081c1633146122c7565b6001600160a01b0383165f9081526004602052604090819020805460ff191690555193849384612332565b9063ffffffff60e01b165f5260205260405f2090565b346104435760203660031901126104435760043561175b81610432565b6040516351097a3360e01b81526001600160a01b03909116600482015260208160248173__$abe99e6f90010eaab1ae0937da96c92fff$__5af480156106f0576108fb915f916117c1575b506040516001600160a01b0390911681529081906020820190565b6117da915060203d6020116114ff576114f1818361236b565b5f6117a6565b34610443575f366003190112610443576020600254604051908152f35b805180835260209291819084018484015e5f828201840152601f01601f1916010190565b602081016020825282518091526040820191602060408360051b8301019401925f915b83831061185357505050505090565b9091929394602080611871600193603f1986820301875289516117fd565b97019301930191939290611844565b6020366003190112610443576004356001600160401b038111610443576118ab903690600401611033565b906118b58261316e565b915f5b8181106118cd57604051806108fb8682611821565b5f806118da8385876131b7565b906118ea604051809381936131f8565b0390305af46118f7613220565b901561191d579060019161190b82876132c2565b5261191681866132c2565b50016118b8565b60448151106104435761193f816024806004611957950151830101910161324f565b60405162461bcd60e51b8152918291600483016132b1565b0390fd5b3461044357611969366105c6565b9161198260018060a01b03600c5460081c1633146122c7565b73__$ed404fe8d8cd691b210f32f3e93e2f5fa7$__93843b156104435760405163565ced0b60e11b81526001600160a01b039182166004820152908216602482015260606044820152935f90859081806119e0606482018989612312565b03915af49384156106f0576106ee946119fa575b5061312d565b806106e85f611a089361236b565b5f6119f4565b9060406003198301126104435760043563ffffffff811681036104435791602435906001600160401b038211610443576104ec91600401610487565b34610443577f1032cb8f3d65d1f2761007cb8b0ca5365671ee20a8efa21ecae1a8dfbca5b7a5610568611a7c36611a0e565b611a9760018060a09694961b03600c5460081c1633146122c7565b63ffffffff83165f52600b60205260405f2060ff198154169055604051938493846132d6565b3461044357602036600319011261044357600435611ada81610432565b60018060a01b03165f526004602052602060ff60405f2054166040519015158152f35b8015150361044357565b3461044357604036600319011261044357600435611b2481611afd565b6024356001600160401b038111610443577f50454d9d0025a28a39cac5a4b3f3101d29b6e413fbb64f75fb42eb6837b0771891611b68610568923690600401610487565b9290600c5492611b843360018060a01b038660081c16146122c7565b15159260ff84169060ff191617600c556040519384938452604060208501526040840191612312565b34610443576020366003190112610443576020611bd4600435611bcf81610432565b6132f3565b6040519015158152f35b3461044357602036600319011261044357600435611bfb81610432565b60405163c226c4bb60e01b81526001600160a01b03909116600482015260208160248173__$abe99e6f90010eaab1ae0937da96c92fff$__5af480156106f0576108fb915f916108ff575060405191829182901515815260200190565b34610443577f37ea10f2d08f5a9803dfcd5abf3cfc7b0d6fcdf5fcbc36be9ea5a0b53d9a4d9b610568611c8a36610d05565b90611ca660018060a09795971b03600c5460081c1633146122c7565b60018060a01b0384165f525f602052611cc28560405f20611728565b805460ff1916905560405194859485613056565b3461044357611ce4366104b4565b600c545f939190611d029060081c6001600160a01b031633146122c7565b73__$abe99e6f90010eaab1ae0937da96c92fff$__803b1561044357610855935f9360405195869485938493634a1c4b1960e11b855260048501612332565b3461044357611d4f366104b4565b600c545f939190611d6d9060081c6001600160a01b031633146122c7565b73__$ed404fe8d8cd691b210f32f3e93e2f5fa7$__803b1561044357610855935f936040519586948593849363e2873b6d60e01b855260048501612332565b34610443577f9fc3f914bc6770a3679a6a9fdb4620f0566db329f178fb033fc0c6dcce1b693d610568611dde36611a0e565b611df960018060a09694961b03600c5460081c1633146122c7565b63ffffffff83165f52600b60205260405f20600160ff19825416179055604051938493846132d6565b34610443577f9efd66cbdaa05f6414ab9c4ae71d358b087e972c11874e7c3e9c7c79c61e23aa610568611e54366104b4565b611e7360018060a09694961b03600c5460081c16331461063d816122c7565b6001600160a01b0383165f81815260208181526040808320634701287760e11b84529091529020600160ff198254161790555f52600160205260405f20600160ff19825416179055611ec9610a2c600254612eeb565b5f805160206143a583398151915260405180611ee784888884612fc9565b0390a1611ef581858561312d565b6001600160a01b0383165f908152600a60205260409020610efb90805460ff19166001179055565b34610443576106ee611f2e366104b4565b9161118560018060a01b03600c5460081c1633146122c7565b34610443576106ee611f58366104b4565b91611f7560018060a01b03600c5460081c16331461063d816122c7565b6001600160a01b0381165f8181526020818152604080832063617ba03760e01b84529091529020600160ff198254161790555f52600160205260405f20600160ff19825416179055611fcb610a2c600254612eeb565b5f805160206143a583398151915260405180611fe986868684612ff8565b0390a1610a68838383612d26565b34610443577ff9a414ea26a64e12a2abdb23706ec196a42adeb564668fb73f46555fbd2336c2610568612029366104b4565b61204460018060a09694961b03600c5460081c1633146122c7565b6001600160a01b0383165f9081526008602052604090819020805460ff191690555193849384612332565b346104435760203660031901126104435760043561208c81610432565b612094613e0a565b6001600160a01b038116156120eb57600c8054610100600160a81b03198116600884811b610100600160a81b0316919091179092556001600160a01b0392831692911c165f805160206143658339815191525f80a3005b60405162461bcd60e51b815260206004820152602660248201527f4f776e61626c653a206e6577206f776e657220697320746865207a65726f206160448201526564647265737360d01b6064820152608490fd5b346104435760203660031901126104435760043561215c81610432565b604051637c23ab5560e11b81526001600160a01b03909116600482015260208160248173__$3ebced50d16a3712772def6ef3a529a5cb$__5af480156106f0576108fb915f916108ff575060405191829182901515815260200190565b34610443577f9ca3f065622f5f03f32b7157677a0e420c3a36ab45fd49f256ffebce3e3105876105686121eb366104b4565b61220660018060a09694961b03600c5460081c1633146122c7565b6001600160a01b0383165f9081526003602052604090819020805460ff191690555193849384612332565b34610443577fa8f9caaf4861720900294428e4ff34d37070c37afd26d96e6e4da75326d2c3ad610568612263366104b4565b61227e60018060a09694961b03600c5460081c1633146122c7565b6001600160a01b0383165f9081526004602052604090819020805460ff191660011790555193849384612332565b34610443575f36600319011261044357602060405160018152f35b156122ce57565b606460405162461bcd60e51b815260206004820152602060248201527f4f776e61626c653a2063616c6c6572206973206e6f7420746865206f776e65726044820152fd5b908060209392818452848401375f828201840152601f01601f1916010190565b6001600160a01b03909116815260406020820181905261235493910191612312565b90565b634e487b7160e01b5f52604160045260245ffd5b601f909101601f19168101906001600160401b0382119082101761238e57604052565b612357565b6040513d5f823e3d90fd5b90816020910312610443575161235481611afd565b61244a5f805160206143a5833981519152936123dd60018060a01b03600c5460081c1633146122c7565b6001600160a01b0383165f81815260208190526040902061240690631e51809360e31b90611728565b600160ff198254161790555f52600160205260405f20600160ff19825416179055612435610a2c600254612eeb565b604051938493631e51809360e31b9085613056565b0390a1565b61244a5f805160206143a58339815191529361247960018060a01b03600c5460081c1633146122c7565b6001600160a01b0383165f8181526020819052604090206124a29063b858183f60e01b90611728565b600160ff198254161790555f52600160205260405f20600160ff198254161790556124d1610a2c600254612eeb565b60405193849363b858183f60e01b9085613056565b61244a5f805160206143a58339815191529361251060018060a01b03600c5460081c1633146122c7565b6001600160a01b0383165f81815260208190526040902061253990635c11d79560e01b90611728565b600160ff198254161790555f52600160205260405f20600160ff19825416179055612568610a2c600254612eeb565b604051938493635c11d79560e01b9085613056565b61244a5f805160206143a5833981519152936125a760018060a01b03600c5460081c1633146122c7565b6001600160a01b0383165f8181526020819052604090206125d09063a03d55e360e01b90611728565b600160ff198254161790555f52600160205260405f20600160ff198254161790556125ff610a2c600254612eeb565b60405193849363a03d55e360e01b9085613056565b61244a5f805160206143a58339815191529361263e60018060a01b03600c5460081c1633146122c7565b6001600160a01b0383165f8181526020819052604090206126679063692652c560e11b90611728565b600160ff198254161790555f52600160205260405f20600160ff19825416179055612696610a2c600254612eeb565b60405193849363692652c560e11b9085613056565b61244a5f805160206143a5833981519152936126d560018060a01b03600c5460081c1633146122c7565b6001600160a01b0383165f8181526020819052604090206126fe90635313efb360e11b90611728565b600160ff198254161790555f52600160205260405f20600160ff1982541617905561272d610a2c600254612eeb565b604051938493635313efb360e11b9085613056565b61244a5f805160206143a58339815191529361276c60018060a01b03600c5460081c1633146122c7565b6001600160a01b0383165f81815260208190526040902061279590636e553f6560e01b90611728565b600160ff198254161790555f52600160205260405f20600160ff198254161790556127c4610a2c600254612eeb565b604051938493636e553f6560e01b9085613056565b61244a5f805160206143a58339815191529361280360018060a01b03600c5460081c1633146122c7565b6001600160a01b0383165f81815260208190526040902061282c90632d182be560e21b90611728565b600160ff198254161790555f52600160205260405f20600160ff1982541617905561285b610a2c600254612eeb565b604051938493632d182be560e21b9085613056565b61244a5f805160206143a58339815191529361289a60018060a01b03600c5460081c1633146122c7565b6001600160a01b0383165f8181526020819052604090206128c390635d043b2960e11b90611728565b600160ff198254161790555f52600160205260405f20600160ff198254161790556128f2610a2c600254612eeb565b604051938493635d043b2960e11b9085613056565b61244a5f805160206143a58339815191529361293160018060a01b03600c5460081c1633146122c7565b6001600160a01b0383165f81815260208190526040902061295a90638dbdbe6d60e01b90611728565b600160ff198254161790555f52600160205260405f20600160ff19825416179055612989610a2c600254612eeb565b604051938493638dbdbe6d60e01b9085613056565b61244a5f805160206143a5833981519152936129c860018060a01b03600c5460081c1633146122c7565b6001600160a01b0383165f8181526020819052604090206129f09062b4d4cb60e11b90611728565b600160ff198254161790555f52600160205260405f20600160ff19825416179055612a1f610a2c600254612eeb565b60405193849362b4d4cb60e11b9085613056565b61244a5f805160206143a583398151915293612a5d60018060a01b03600c5460081c1633146122c7565b6001600160a01b0383165f818152602081905260409020612a8690630b8b4a6160e21b90611728565b600160ff198254161790555f52600160205260405f20600160ff19825416179055612ab5610a2c600254612eeb565b604051938493630b8b4a6160e21b9085613056565b61244a5f805160206143a583398151915293612af460018060a01b03600c5460081c1633146122c7565b6001600160a01b0383165f818152602081905260409020612b1d90633ea0e43760e11b90611728565b600160ff198254161790555f52600160205260405f20600160ff19825416179055612b4c610a2c600254612eeb565b604051938493633ea0e43760e11b9085613056565b61244a5f805160206143a583398151915293612b8b60018060a01b03600c5460081c1633146122c7565b6001600160a01b0383165f818152602081905260409020612bb4906319792d1d60e11b90611728565b600160ff198254161790555f52600160205260405f20600160ff19825416179055612be3610a2c600254612eeb565b6040519384936319792d1d60e11b9085613056565b61244a5f805160206143a583398151915293612c2260018060a01b03600c5460081c1633146122c7565b6001600160a01b0383165f818152602081905260409020612c4b906385b77f4560e01b90611728565b600160ff198254161790555f52600160205260405f20600160ff19825416179055612c7a610a2c600254612eeb565b6040519384936385b77f4560e01b9085613056565b61244a5f805160206143a583398151915293612cb960018060a01b03600c5460081c1633146122c7565b6001600160a01b0383165f818152602081905260409020612ce29063a8abe90560e01b90611728565b600160ff198254161790555f52600160205260405f20600160ff19825416179055612d11610a2c600254612eeb565b60405193849363a8abe90560e01b9085613056565b61244a5f805160206143a583398151915293612d5060018060a01b03600c5460081c1633146122c7565b6001600160a01b0383165f818152602081905260409020612d7990631a4ca37b60e21b90611728565b600160ff198254161790555f52600160205260405f20600160ff19825416179055612da8610a2c600254612eeb565b604051938493631a4ca37b60e21b9085613056565b61244a5f805160206143a583398151915293612de760018060a01b03600c5460081c1633146122c7565b6001600160a01b0383165f818152602081905260409020612e1090631592ca1b60e31b90611728565b600160ff198254161790555f52600160205260405f20600160ff19825416179055612e3f610a2c600254612eeb565b604051938493631592ca1b60e31b9085613056565b61244a5f805160206143a583398151915293612e7e60018060a01b03600c5460081c1633146122c7565b6001600160a01b0383165f818152602081905260409020612ea79063095ea7b360e01b90611728565b600160ff198254161790555f52600160205260405f20600160ff19825416179055612ed6610a2c600254612eeb565b60405193849363095ea7b360e01b9085613056565b5f198114612ef95760010190565b634e487b7160e01b5f52601160045260245ffd5b6001600160a01b03909116815263c04b8d5960e01b602082015260606040820181905261235493910191612312565b6001600160a01b0390911681526338ed173960e01b602082015260606040820181905261235493910191612312565b6001600160a01b03909116815263559ec80d60e01b602082015260606040820181905261235493910191612312565b6001600160a01b039091168152630c04a8a160e41b602082015260606040820181905261235493910191612312565b6001600160a01b039091168152634701287760e11b602082015260606040820181905261235493910191612312565b6001600160a01b03909116815263617ba03760e01b602082015260606040820181905261235493910191612312565b6001600160a01b03909116815263a9059cbb60e01b602082015260606040820181905261235493910191612312565b6001600160a01b0390911681526001600160e01b0319909116602082015260606040820181905261235493910191612312565b6001600160a01b0391821681529181166020830152909116604082015260806060820181905261235493910191612312565b634e487b7160e01b5f52603260045260245ffd5b91908110156130df5760051b0190565b6130bb565b3561235481610432565b90816020910312610443575161235481610432565b61244a5f805160206143858339815191529361154060018060a01b03600c5460081c1633146122c7565b61244a5f805160206143458339815191529361164260018060a01b03600c5460081c1633146122c7565b6001600160401b03811161238e5760051b60200190565b9061317882613157565b613185604051918261236b565b8281528092613196601f1991613157565b01905f5b8281106131a657505050565b80606060208093850101520161319a565b91908110156130df5760051b81013590601e19813603018212156104435701803591906001600160401b038311610443576020018236038113610443579190565b908092918237015f815290565b6001600160401b03811161238e57601f01601f191660200190565b3d1561324a573d9061323182613205565b9161323f604051938461236b565b82523d5f602084013e565b606090565b602081830312610443578051906001600160401b038211610443570181601f820112156104435780519061328282613205565b92613290604051948561236b565b8284526020838301011161044357815f9260208093018386015e8301015290565b9060206123549281815201906117fd565b80518210156130df5760209160051b010190565b60409063ffffffff61235495931681528160208201520191612312565b60ff600c5416908115613304575090565b6001600160a01b03165f9081526003602052604090205460ff16919050565b1561332a57565b60405162461bcd60e51b815260206004820152601260248201527114d95b99195c881b9bdd08185b1b1bddd95960721b6044820152606490fd5b906004116104435790600490565b909291928360041161044357831161044357600401916003190190565b356001600160e01b03198116929190600482106133aa575050565b6001600160e01b031960049290920360031b82901b16169150565b156133cc57565b60405162461bcd60e51b815260206004820152601260248201527115185c99d95d081b9bdd08185b1b1bddd95960721b6044820152606490fd5b1561340d57565b60405162461bcd60e51b815260206004820152601460248201527314d95b1958dd1bdc881b9bdd08185b1b1bddd95960621b6044820152606490fd5b1561345057565b60405162461bcd60e51b815260206004820152601c60248201527b121e5c195c98dbdc9955985d5b1d131a58881b9bdd081b1a5b9ad95960221b6044820152606490fd5b936134c9926060949297969763ffffffff60e01b16865260018060a01b03166020860152608060408601526080850191612312565b931515910152565b156134d857565b60405162461bcd60e51b815260206004820152601160248201527011db5e131a58881b9bdd081b1a5b9ad959607a1b6044820152606490fd5b92916040926134c99296959660018060a01b03168552606060208601526060850191612312565b92919261354482613205565b91613552604051938461236b565b829481845281830111610443578281602093845f960137010152565b1561357557565b60405162461bcd60e51b815260206004820152601e60248201527f53776170526f75746572303220726571756972657320616e79417373657400006044820152606490fd5b916020916134c991959495604085526040850191612312565b916020612354938181520191612312565b90919261360a6135fe60018060a01b03600c5460081c1690565b6001600160a01b031690565b6001600160a01b03831614613d5f5761364861364361363c6136629460018060a01b03165f52600460205260405f2090565b5460ff1690565b613323565b8061365c6136568287613364565b9061338f565b94613372565b919092613671600c5460ff1690565b80613d45575b6001600160e01b031982166317938e1360e01b8114801592819084613d34575b8115613d23575b159081613d1a575b50613cb3575b6338ed173960e01b82148015613ca3575b1561372e5750505050509073__$6d73eb2bedba9c44263ccaf5969a8714f4$__91823b1561044357604051625e769d60e91b8152925f9284928391829161370791600484016135d3565b03915af480156106f05761371a575b505b565b806106e85f6137289361236b565b5f613716565b63c04b8d5960e01b82036137825750505050509073__$6d73eb2bedba9c44263ccaf5969a8714f4$__91823b1561044357604051632c69e61160e11b8152925f9284928391829161370791600484016135d3565b631e51809360e31b82036137d65750505050509073__$6d73eb2bedba9c44263ccaf5969a8714f4$__91823b156104435760405163fdf3722360e01b8152925f9284928391829161370791600484016135d3565b63b858183f60e01b820361383e575050505050906137f6600c5460ff1690565b6137ff8161356e565b73__$6d73eb2bedba9c44263ccaf5969a8714f4$__803b1561044357613707935f93604051958694859384936331dc39a360e01b8552600485016135ba565b63a9059cbb60e01b820361386557505050505061371891613860913691613538565b61430d565b63095ea7b360e01b820361388c57505050505061371891613887913691613538565b614295565b630c04a8a160e41b82036138b3575050505050613718916138ae913691613538565b61421b565b63617ba03760e01b82036138da575050505050613718916138d5913691613538565b6141d8565b631a4ca37b60e21b8203613901575050505050613718916138fc913691613538565b6141a3565b93949363559ec80d60e01b82148015613c93575b8015613c83575b8015613c73575b156139375750505050506137189150614109565b939493636e553f6560e01b82036139615750505050506137189161395c913691613538565b614069565b630b8b4a6160e21b820361398857505050505061371891613983913691613538565b6140a6565b638dbdbe6d60e01b82036139af575050505050613718916139aa913691613538565b6140ef565b62b4d4cb60e11b82036139d5575050505050613718916139d0913691613538565b6140ce565b632d182be560e21b82036139f757505050505061371891613983913691613538565b635d043b2960e11b8203613a1957505050505061371891613983913691613538565b633ea0e43760e11b8203613a3b57505050505061371891613983913691613538565b6319792d1d60e11b8203613a5d57505050505061371891613983913691613538565b6385b77f4560e01b8203613a7f57505050505061371891613983913691613538565b63a8abe90560e01b8203613aa15750505050506137189161395c913691613538565b939493631592ca1b60e31b8203613b47575050505073__$abe99e6f90010eaab1ae0937da96c92fff$__604051636290236f60e11b8152602081600481855af480156106f057613af8915f91613b28575b506134d1565b600c5460ff1693813b15610443575f9361370760405196879586948594633bf8b9bb60e11b865260048601613511565b613b41915060203d60201161092757610919818361236b565b5f613af2565b9295939492634701287760e11b8203613b67575050506137189350613f4a565b95949591613c62575b8115613c51575b5015613c1057604051636290236f60e11b815273__$ed404fe8d8cd691b210f32f3e93e2f5fa7$__9190602081600481865af480156106f057613bc1915f91613bf1575b50613449565b600c5460ff1693823b15610443576137075f956040519788968795869563f42001eb60e01b875260048701613494565b613c0a915060203d60201161092757610919818361236b565b5f613bbb565b60405162461bcd60e51b81526020600482015260196024820152782ab735b737bbb710333ab731ba34b7b71039b2b632b1ba37b960391b6044820152606490fd5b63611e2a2d60e11b1490505f613b77565b630acb7f4b60e21b81149150613b70565b50635313efb360e11b8214613923565b5063692652c560e11b821461391c565b5063a03d55e360e01b8214613915565b50635c11d79560e01b82146136bd565b613ccf613ccb61363c86613cc68961056d565b611728565b1590565b156136ac576001600160a01b0385165f908152600160205260409020613cfd90613cf89061363c565b6133c5565b613d15613d1061363c86613cc68961056d565b613406565b6136ac565b9050155f6136a6565b63611e2a2d60e11b8414915061369e565b630acb7f4b60e21b84149150613697565b5063095ea7b360e01b6001600160e01b0319821614613677565b50505050565b906137189291613d8360018060a01b03600c5460081c1633146122c7565b6001600160a01b0381165f8181526020818152604080832063a9059cbb60e01b84529091529020600160ff198254161790555f52600160205260405f20600160ff19825416179055613dd9610a2c600254612eeb565b5f805160206143a583398151915260405180613df786868684613027565b0390a1613e05838383612e54565b613103565b61371860018060a01b03600c5460081c1633146122c7565b908160e091031261044357803591613e3c60208301611347565b916040810135916060820135613e5181610432565b9160808101359161235460c060a08401359301611347565b15613e7057565b60405162461bcd60e51b815260206004820152601c60248201527b10d0d5140819195cdd1a5b985d1a5bdb881b9bdd08185b1b1bddd95960221b6044820152606490fd5b15613ebb57565b60405162461bcd60e51b815260206004820152601b60248201527a10d0d51408189d5c9b881d1bdad95b881b9bdd08185b1b1bddd959602a1b6044820152606490fd5b15613f0557565b60405162461bcd60e51b815260206004820152601f60248201527f43435450206d696e7420726563697069656e74206e6f7420616c6c6f776564006044820152606490fd5b6001600160a01b03165f908152600a602052604090205460ff1615613fe05761363c61363c613fc2613fbd613faa613faf613f8e8761371899613fdb990190613e22565b505050949250969063ffffffff165f52600b60205260405f2090565b613e69565b6001600160a01b03166132f3565b613eb4565b6001600160a01b03165f90815260056020526040902090565b613efe565b60405162461bcd60e51b815260206004820152601a60248201527910d0d514081b595cdcd95b99d95c881b9bdd08185b1b1bddd95960321b6044820152606490fd5b1561402957565b60405162461bcd60e51b8152602060048201526018602482015277149958d95a5d995c881b9bdd081dda1a5d195b1a5cdd195960421b6044820152606490fd5b604081805181010312610443576040015161408381610432565b6001600160a01b03165f908152600560205260409020546137189060ff16614022565b6060818051810103126104435761408360606040830151926140c784610432565b0151610432565b6080818051810103126104435761408360806060830151926140c784610432565b606081805181010312610443576060015161408381610432565b6001600160a01b03165f9081526009602052604090205460ff161561412a57565b60405162461bcd60e51b815260206004820152601160248201527015985d5b1d081b9bdd08185b1b1bddd959607a1b6044820152606490fd5b1561416a57565b60405162461bcd60e51b8152602060048201526011602482015270151bdad95b881b9bdd08185b1b1bddd959607a1b6044820152606490fd5b606081805181010312610443576140836141d360606020840151936141c785610432565b015192613faf84610432565b614163565b608081805181010312610443576140836141d360606020840151936141c785610432565b9190826040910312610443576020825161421581610432565b92015190565b61422e90602080825183010191016141fc565b506001600160a01b03165f9081526008602052604090205460ff161561425057565b60405162461bcd60e51b815260206004820152601e60248201527f44656c65676174696f6e2061646472657373206e6f7420616c6c6f77656400006044820152606490fd5b6142a890602080825183010191016141fc565b506001600160a01b03165f9081526007602052604090205460ff16156142ca57565b60405162461bcd60e51b815260206004820152601b60248201527a105c1c1c9bdd99481859191c995cdcc81b9bdd08185b1b1bddd959602a1b6044820152606490fd5b61432090602080825183010191016141fc565b506001600160a01b03165f908152600660205260409020546137189060ff1661402256fe628a44970c0e450415e3ae74334ea44f3307b74dbf677a1371190242bf2f35898be0079c531659141344cd1fd0a4f28419497f9722a3daafe3b4186f6b6457e0ad90e2570fc4fe9f7437be3188d5c791c6662892d31731992aa88f5c87621983ef729aaa41b9fd994f9ff7c1960df214a84f722002e6cfbea31799cd0873a3efa164736f6c634300081a000a","linkReferences":{"src/lib/CowSwapLib.sol":{"CowSwapLib":[{"start":1788,"length":20},{"start":2527,"length":20}]},"src/lib/GmxLib.sol":{"GmxLib":[{"start":2353,"length":20},{"start":3063,"length":20},{"start":4479,"length":20},{"start":6127,"length":20},{"start":7311,"length":20},{"start":7539,"length":20},{"start":15143,"length":20}]},"src/lib/HypercoreVaultLib.sol":{"HypercoreVaultLib":[{"start":2183,"length":20},{"start":6643,"length":20},{"start":7646,"length":20},{"start":15355,"length":20}]},"src/lib/UniswapLib.sol":{"UniswapLib":[{"start":14137,"length":20},{"start":14259,"length":20},{"start":14343,"length":20},{"start":14448,"length":20}]},"src/lib/VeloraLib.sol":{"VeloraLib":[{"start":3237,"length":20},{"start":8688,"length":20}]}}},"methodIdentifiers":{"allowApprovalDestination(address,string)":"98b3cc39","allowAsset(address,string)":"86b6dbe5","allowCallSite(address,bytes4,string)":"5e4ccace","allowDelegationApprovalDestination(address,string)":"63cc17f2","allowReceiver(address,string)":"72e548a9","allowSender(address,string)":"fa2c59c8","allowWithdrawDestination(address,string)":"5ace1d92","allowedApprovalDestinations(address)":"eb0de042","allowedAssets(address)":"a4c1cccb","allowedCCTPDestinations(uint32)":"7cac69c3","allowedCCTPMessengers(address)":"07605342","allowedCallSites(address,bytes4)":"a847cf4d","allowedDelegationApprovalDestinations(address)":"4b941268","allowedLagoonVaults(address)":"8fb4dff2","allowedReceivers(address)":"3cf20025","allowedSenders(address)":"fadbcf48","allowedTargets(address)":"b8fe8d5f","allowedWithdrawDestinations(address)":"07ef00cf","anyAsset()":"87301608","callSiteCount()":"a9fc3d4f","getGovernanceAddress()":"73252494","getInternalVersion()":"fdedfa27","gmxOrderVaults(address)":"a86ddc57","isAllowedApprovalDestination(address)":"1d49039c","isAllowedAsset(address)":"c537bed0","isAllowedCCTPDestination(uint32)":"748fca46","isAllowedCCTPMessenger(address)":"0411fb8e","isAllowedCallSite(address,bytes4)":"713ebf3b","isAllowedCowSwap(address)":"333f22e8","isAllowedDelegationApprovalDestination(address)":"2dc32a61","isAllowedGMXMarket(address)":"2e31e9c6","isAllowedGMXRouter(address)":"cbdb1dcf","isAllowedLagoonVault(address)":"6fd7fdef","isAllowedReceiver(address)":"d075f9bb","isAllowedSender(address)":"be8c97b0","isAllowedTarget(address)":"78addb48","isAllowedVeloraSwapper(address)":"f84756aa","isAllowedWithdrawDestination(address)":"efb47bff","multicall(bytes[])":"ac9650d8","owner()":"8da5cb5b","removeApprovalDestination(address,string)":"04a3ba25","removeAsset(address,string)":"f901dc33","removeCCTPDestination(uint32,string)":"ba44ad41","removeCallSite(address,bytes4,string)":"d7334c9d","removeDelegationApprovalDestination(address,string)":"f259a073","removeGMXMarket(address,string)":"4d3d31ca","removeHypercoreVault(address,string)":"e2873b6d","removeReceiver(address,string)":"2d12d788","removeSender(address,string)":"a67e1f54","removeWithdrawDestination(address,string)":"8c2fdf9e","renounceOwnership()":"715018a6","setAnyAssetAllowed(bool,string)":"c2e657ae","transferOwnership(address)":"f2fde38b","validateCall(address,address,bytes)":"6d5025f1","whitelistAaveV3(address,string)":"f20e85e0","whitelistCCTP(address,string)":"ec011440","whitelistCCTPDestination(uint32,string)":"e6f32c51","whitelistCoreWriter(address,address,string)":"acb9da16","whitelistCowSwap(address,address,string)":"1047789e","whitelistERC4626(address,string)":"86a6ae15","whitelistGMX(address,address,address,address[],string)":"6e3de202","whitelistGMXMarket(address,string)":"d7581509","whitelistHypercoreVault(address,string)":"2de905bc","whitelistLagoon(address,string)":"5e6afe4d","whitelistToken(address,string)":"ee5462cc","whitelistTokenForDelegation(address,string)":"6d9a1423","whitelistUniswapV2Router(address,string)":"3ea35551","whitelistUniswapV3Router(address,string)":"34ec8d7e","whitelistVelora(address,address,string)":"4efbad39"},"id":2}