{"abi":[{"type":"constructor","inputs":[],"stateMutability":"nonpayable"},{"type":"function","name":"_SIGN_COOLDOWN","inputs":[],"outputs":[{"name":"","type":"uint256","internalType":"uint256"}],"stateMutability":"view"},{"type":"function","name":"allowApprovalDestination","inputs":[{"name":"destination","type":"address","internalType":"address"},{"name":"notes","type":"string","internalType":"string"}],"outputs":[],"stateMutability":"nonpayable"},{"type":"function","name":"allowAsset","inputs":[{"name":"asset","type":"address","internalType":"address"},{"name":"notes","type":"string","internalType":"string"}],"outputs":[],"stateMutability":"nonpayable"},{"type":"function","name":"allowCallSite","inputs":[{"name":"target","type":"address","internalType":"address"},{"name":"selector","type":"bytes4","internalType":"bytes4"},{"name":"notes","type":"string","internalType":"string"}],"outputs":[],"stateMutability":"nonpayable"},{"type":"function","name":"allowDelegationApprovalDestination","inputs":[{"name":"destination","type":"address","internalType":"address"},{"name":"notes","type":"string","internalType":"string"}],"outputs":[],"stateMutability":"nonpayable"},{"type":"function","name":"allowReceiver","inputs":[{"name":"receiver","type":"address","internalType":"address"},{"name":"notes","type":"string","internalType":"string"}],"outputs":[],"stateMutability":"nonpayable"},{"type":"function","name":"allowSender","inputs":[{"name":"sender","type":"address","internalType":"address"},{"name":"notes","type":"string","internalType":"string"}],"outputs":[],"stateMutability":"nonpayable"},{"type":"function","name":"allowWithdrawDestination","inputs":[{"name":"destination","type":"address","internalType":"address"},{"name":"notes","type":"string","internalType":"string"}],"outputs":[],"stateMutability":"nonpayable"},{"type":"function","name":"allowedApprovalDestinations","inputs":[{"name":"destination","type":"address","internalType":"address"}],"outputs":[{"name":"allowed","type":"bool","internalType":"bool"}],"stateMutability":"view"},{"type":"function","name":"allowedAssets","inputs":[{"name":"token","type":"address","internalType":"address"}],"outputs":[{"name":"allowed","type":"bool","internalType":"bool"}],"stateMutability":"view"},{"type":"function","name":"allowedCallSites","inputs":[{"name":"target","type":"address","internalType":"address"},{"name":"selector","type":"bytes4","internalType":"bytes4"}],"outputs":[{"name":"allowed","type":"bool","internalType":"bool"}],"stateMutability":"view"},{"type":"function","name":"allowedCowSwaps","inputs":[{"name":"destination","type":"address","internalType":"address"}],"outputs":[{"name":"allowed","type":"bool","internalType":"bool"}],"stateMutability":"view"},{"type":"function","name":"allowedDelegationApprovalDestinations","inputs":[{"name":"destination","type":"address","internalType":"address"}],"outputs":[{"name":"allowed","type":"bool","internalType":"bool"}],"stateMutability":"view"},{"type":"function","name":"allowedLagoonVaults","inputs":[{"name":"destination","type":"address","internalType":"address"}],"outputs":[{"name":"allowed","type":"bool","internalType":"bool"}],"stateMutability":"view"},{"type":"function","name":"allowedReceivers","inputs":[{"name":"receiver","type":"address","internalType":"address"}],"outputs":[{"name":"allowed","type":"bool","internalType":"bool"}],"stateMutability":"view"},{"type":"function","name":"allowedSenders","inputs":[{"name":"sender","type":"address","internalType":"address"}],"outputs":[{"name":"allowed","type":"bool","internalType":"bool"}],"stateMutability":"view"},{"type":"function","name":"allowedTargets","inputs":[{"name":"target","type":"address","internalType":"address"}],"outputs":[{"name":"allowed","type":"bool","internalType":"bool"}],"stateMutability":"view"},{"type":"function","name":"allowedVeloraSwappers","inputs":[{"name":"destination","type":"address","internalType":"address"}],"outputs":[{"name":"allowed","type":"bool","internalType":"bool"}],"stateMutability":"view"},{"type":"function","name":"allowedWithdrawDestinations","inputs":[{"name":"destination","type":"address","internalType":"address"}],"outputs":[{"name":"allowed","type":"bool","internalType":"bool"}],"stateMutability":"view"},{"type":"function","name":"anyAsset","inputs":[],"outputs":[{"name":"","type":"bool","internalType":"bool"}],"stateMutability":"view"},{"type":"function","name":"callSiteCount","inputs":[],"outputs":[{"name":"","type":"uint256","internalType":"uint256"}],"stateMutability":"view"},{"type":"function","name":"getGovernanceAddress","inputs":[],"outputs":[{"name":"","type":"address","internalType":"address"}],"stateMutability":"view"},{"type":"function","name":"getInternalVersion","inputs":[],"outputs":[{"name":"","type":"uint8","internalType":"uint8"}],"stateMutability":"pure"},{"type":"function","name":"isAllowedApprovalDestination","inputs":[{"name":"receiver","type":"address","internalType":"address"}],"outputs":[{"name":"","type":"bool","internalType":"bool"}],"stateMutability":"view"},{"type":"function","name":"isAllowedAsset","inputs":[{"name":"token","type":"address","internalType":"address"}],"outputs":[{"name":"","type":"bool","internalType":"bool"}],"stateMutability":"view"},{"type":"function","name":"isAllowedCallSite","inputs":[{"name":"target","type":"address","internalType":"address"},{"name":"selector","type":"bytes4","internalType":"bytes4"}],"outputs":[{"name":"","type":"bool","internalType":"bool"}],"stateMutability":"view"},{"type":"function","name":"isAllowedCowSwap","inputs":[{"name":"settlement","type":"address","internalType":"address"}],"outputs":[{"name":"","type":"bool","internalType":"bool"}],"stateMutability":"view"},{"type":"function","name":"isAllowedDelegationApprovalDestination","inputs":[{"name":"receiver","type":"address","internalType":"address"}],"outputs":[{"name":"","type":"bool","internalType":"bool"}],"stateMutability":"view"},{"type":"function","name":"isAllowedLagoonVault","inputs":[{"name":"vault","type":"address","internalType":"address"}],"outputs":[{"name":"","type":"bool","internalType":"bool"}],"stateMutability":"view"},{"type":"function","name":"isAllowedReceiver","inputs":[{"name":"receiver","type":"address","internalType":"address"}],"outputs":[{"name":"","type":"bool","internalType":"bool"}],"stateMutability":"view"},{"type":"function","name":"isAllowedSender","inputs":[{"name":"sender","type":"address","internalType":"address"}],"outputs":[{"name":"","type":"bool","internalType":"bool"}],"stateMutability":"view"},{"type":"function","name":"isAllowedTarget","inputs":[{"name":"target","type":"address","internalType":"address"}],"outputs":[{"name":"","type":"bool","internalType":"bool"}],"stateMutability":"view"},{"type":"function","name":"isAllowedVeloraSwapper","inputs":[{"name":"swapper","type":"address","internalType":"address"}],"outputs":[{"name":"","type":"bool","internalType":"bool"}],"stateMutability":"view"},{"type":"function","name":"isAllowedWithdrawDestination","inputs":[{"name":"receiver","type":"address","internalType":"address"}],"outputs":[{"name":"","type":"bool","internalType":"bool"}],"stateMutability":"view"},{"type":"function","name":"multicall","inputs":[{"name":"data","type":"bytes[]","internalType":"bytes[]"}],"outputs":[{"name":"results","type":"bytes[]","internalType":"bytes[]"}],"stateMutability":"payable"},{"type":"function","name":"owner","inputs":[],"outputs":[{"name":"","type":"address","internalType":"address"}],"stateMutability":"view"},{"type":"function","name":"removeApprovalDestination","inputs":[{"name":"destination","type":"address","internalType":"address"},{"name":"notes","type":"string","internalType":"string"}],"outputs":[],"stateMutability":"nonpayable"},{"type":"function","name":"removeAsset","inputs":[{"name":"asset","type":"address","internalType":"address"},{"name":"notes","type":"string","internalType":"string"}],"outputs":[],"stateMutability":"nonpayable"},{"type":"function","name":"removeCallSite","inputs":[{"name":"target","type":"address","internalType":"address"},{"name":"selector","type":"bytes4","internalType":"bytes4"},{"name":"notes","type":"string","internalType":"string"}],"outputs":[],"stateMutability":"nonpayable"},{"type":"function","name":"removeDelegationApprovalDestination","inputs":[{"name":"destination","type":"address","internalType":"address"},{"name":"notes","type":"string","internalType":"string"}],"outputs":[],"stateMutability":"nonpayable"},{"type":"function","name":"removeReceiver","inputs":[{"name":"receiver","type":"address","internalType":"address"},{"name":"notes","type":"string","internalType":"string"}],"outputs":[],"stateMutability":"nonpayable"},{"type":"function","name":"removeSender","inputs":[{"name":"sender","type":"address","internalType":"address"},{"name":"notes","type":"string","internalType":"string"}],"outputs":[],"stateMutability":"nonpayable"},{"type":"function","name":"removeWithdrawDestination","inputs":[{"name":"destination","type":"address","internalType":"address"},{"name":"notes","type":"string","internalType":"string"}],"outputs":[],"stateMutability":"nonpayable"},{"type":"function","name":"renounceOwnership","inputs":[],"outputs":[],"stateMutability":"nonpayable"},{"type":"function","name":"setAnyAssetAllowed","inputs":[{"name":"value","type":"bool","internalType":"bool"},{"name":"notes","type":"string","internalType":"string"}],"outputs":[],"stateMutability":"nonpayable"},{"type":"function","name":"transferOwnership","inputs":[{"name":"newOwner","type":"address","internalType":"address"}],"outputs":[],"stateMutability":"nonpayable"},{"type":"function","name":"validateCall","inputs":[{"name":"sender","type":"address","internalType":"address"},{"name":"target","type":"address","internalType":"address"},{"name":"callDataWithSelector","type":"bytes","internalType":"bytes"}],"outputs":[],"stateMutability":"view"},{"type":"function","name":"validateUniswapV3Path","inputs":[{"name":"path","type":"bytes","internalType":"bytes"}],"outputs":[],"stateMutability":"view"},{"type":"function","name":"validate_ERC4626Deposit","inputs":[{"name":"target","type":"address","internalType":"address"},{"name":"callData","type":"bytes","internalType":"bytes"}],"outputs":[],"stateMutability":"view"},{"type":"function","name":"validate_ERC4626Redeem","inputs":[{"name":"callData","type":"bytes","internalType":"bytes"}],"outputs":[],"stateMutability":"view"},{"type":"function","name":"validate_ERC4626Withdraw","inputs":[{"name":"callData","type":"bytes","internalType":"bytes"}],"outputs":[],"stateMutability":"view"},{"type":"function","name":"validate_UmamiDeposit","inputs":[{"name":"callData","type":"bytes","internalType":"bytes"}],"outputs":[],"stateMutability":"view"},{"type":"function","name":"validate_UmamiRedeem","inputs":[{"name":"callData","type":"bytes","internalType":"bytes"}],"outputs":[],"stateMutability":"view"},{"type":"function","name":"validate_aaveSupply","inputs":[{"name":"callData","type":"bytes","internalType":"bytes"}],"outputs":[],"stateMutability":"view"},{"type":"function","name":"validate_aaveWithdraw","inputs":[{"name":"callData","type":"bytes","internalType":"bytes"}],"outputs":[],"stateMutability":"view"},{"type":"function","name":"validate_approve","inputs":[{"name":"callData","type":"bytes","internalType":"bytes"}],"outputs":[],"stateMutability":"view"},{"type":"function","name":"validate_approveDelegation","inputs":[{"name":"callData","type":"bytes","internalType":"bytes"}],"outputs":[],"stateMutability":"view"},{"type":"function","name":"validate_cowSwapSettlement","inputs":[{"name":"callData","type":"bytes","internalType":"bytes"}],"outputs":[],"stateMutability":"view"},{"type":"function","name":"validate_exactInput","inputs":[{"name":"callData","type":"bytes","internalType":"bytes"}],"outputs":[],"stateMutability":"view"},{"type":"function","name":"validate_exactOutput","inputs":[{"name":"callData","type":"bytes","internalType":"bytes"}],"outputs":[],"stateMutability":"view"},{"type":"function","name":"validate_lagoonSettle","inputs":[{"name":"vault","type":"address","internalType":"address"}],"outputs":[],"stateMutability":"view"},{"type":"function","name":"validate_orderlyDelegateSigner","inputs":[{"name":"callData","type":"bytes","internalType":"bytes"}],"outputs":[],"stateMutability":"view"},{"type":"function","name":"validate_orderlyDeposit","inputs":[{"name":"callData","type":"bytes","internalType":"bytes"}],"outputs":[],"stateMutability":"view"},{"type":"function","name":"validate_orderlyWithdraw","inputs":[{"name":"callData","type":"bytes","internalType":"bytes"}],"outputs":[],"stateMutability":"view"},{"type":"function","name":"validate_swapExactTokensForTokens","inputs":[{"name":"callData","type":"bytes","internalType":"bytes"}],"outputs":[],"stateMutability":"view"},{"type":"function","name":"validate_transfer","inputs":[{"name":"callData","type":"bytes","internalType":"bytes"}],"outputs":[],"stateMutability":"view"},{"type":"function","name":"whitelistAaveV3","inputs":[{"name":"lendingPool","type":"address","internalType":"address"},{"name":"notes","type":"string","internalType":"string"}],"outputs":[],"stateMutability":"nonpayable"},{"type":"function","name":"whitelistCowSwap","inputs":[{"name":"settlementContract","type":"address","internalType":"address"},{"name":"relayerContract","type":"address","internalType":"address"},{"name":"notes","type":"string","internalType":"string"}],"outputs":[],"stateMutability":"nonpayable"},{"type":"function","name":"whitelistERC4626","inputs":[{"name":"vault","type":"address","internalType":"address"},{"name":"notes","type":"string","internalType":"string"}],"outputs":[],"stateMutability":"nonpayable"},{"type":"function","name":"whitelistLagoon","inputs":[{"name":"vault","type":"address","internalType":"address"},{"name":"notes","type":"string","internalType":"string"}],"outputs":[],"stateMutability":"nonpayable"},{"type":"function","name":"whitelistOrderly","inputs":[{"name":"orderlyVault","type":"address","internalType":"address"},{"name":"notes","type":"string","internalType":"string"}],"outputs":[],"stateMutability":"nonpayable"},{"type":"function","name":"whitelistToken","inputs":[{"name":"token","type":"address","internalType":"address"},{"name":"notes","type":"string","internalType":"string"}],"outputs":[],"stateMutability":"nonpayable"},{"type":"function","name":"whitelistTokenForDelegation","inputs":[{"name":"token","type":"address","internalType":"address"},{"name":"notes","type":"string","internalType":"string"}],"outputs":[],"stateMutability":"nonpayable"},{"type":"function","name":"whitelistUniswapV2Router","inputs":[{"name":"router","type":"address","internalType":"address"},{"name":"notes","type":"string","internalType":"string"}],"outputs":[],"stateMutability":"nonpayable"},{"type":"function","name":"whitelistUniswapV3Router","inputs":[{"name":"router","type":"address","internalType":"address"},{"name":"notes","type":"string","internalType":"string"}],"outputs":[],"stateMutability":"nonpayable"},{"type":"function","name":"whitelistVelora","inputs":[{"name":"augustusSwapper","type":"address","internalType":"address"},{"name":"tokenTransferProxy","type":"address","internalType":"address"},{"name":"notes","type":"string","internalType":"string"}],"outputs":[],"stateMutability":"nonpayable"},{"type":"event","name":"AnyAssetSet","inputs":[{"name":"value","type":"bool","indexed":false,"internalType":"bool"},{"name":"notes","type":"string","indexed":false,"internalType":"string"}],"anonymous":false},{"type":"event","name":"AnyVaultSet","inputs":[{"name":"value","type":"bool","indexed":false,"internalType":"bool"},{"name":"notes","type":"string","indexed":false,"internalType":"string"}],"anonymous":false},{"type":"event","name":"ApprovalDestinationApproved","inputs":[{"name":"sender","type":"address","indexed":false,"internalType":"address"},{"name":"notes","type":"string","indexed":false,"internalType":"string"}],"anonymous":false},{"type":"event","name":"ApprovalDestinationRemoved","inputs":[{"name":"sender","type":"address","indexed":false,"internalType":"address"},{"name":"notes","type":"string","indexed":false,"internalType":"string"}],"anonymous":false},{"type":"event","name":"AssetApproved","inputs":[{"name":"sender","type":"address","indexed":false,"internalType":"address"},{"name":"notes","type":"string","indexed":false,"internalType":"string"}],"anonymous":false},{"type":"event","name":"AssetRemoved","inputs":[{"name":"sender","type":"address","indexed":false,"internalType":"address"},{"name":"notes","type":"string","indexed":false,"internalType":"string"}],"anonymous":false},{"type":"event","name":"CallSiteApproved","inputs":[{"name":"target","type":"address","indexed":false,"internalType":"address"},{"name":"selector","type":"bytes4","indexed":false,"internalType":"bytes4"},{"name":"notes","type":"string","indexed":false,"internalType":"string"}],"anonymous":false},{"type":"event","name":"CallSiteRemoved","inputs":[{"name":"target","type":"address","indexed":false,"internalType":"address"},{"name":"selector","type":"bytes4","indexed":false,"internalType":"bytes4"},{"name":"notes","type":"string","indexed":false,"internalType":"string"}],"anonymous":false},{"type":"event","name":"CowSwapApproved","inputs":[{"name":"settlementContract","type":"address","indexed":false,"internalType":"address"},{"name":"notes","type":"string","indexed":false,"internalType":"string"}],"anonymous":false},{"type":"event","name":"DelegationApprovalDestinationApproved","inputs":[{"name":"sender","type":"address","indexed":false,"internalType":"address"},{"name":"notes","type":"string","indexed":false,"internalType":"string"}],"anonymous":false},{"type":"event","name":"DelegationApprovalDestinationRemoved","inputs":[{"name":"sender","type":"address","indexed":false,"internalType":"address"},{"name":"notes","type":"string","indexed":false,"internalType":"string"}],"anonymous":false},{"type":"event","name":"ERC4626Approved","inputs":[{"name":"vault","type":"address","indexed":false,"internalType":"address"},{"name":"notes","type":"string","indexed":false,"internalType":"string"}],"anonymous":false},{"type":"event","name":"LagoonVaultApproved","inputs":[{"name":"vault","type":"address","indexed":false,"internalType":"address"},{"name":"notes","type":"string","indexed":false,"internalType":"string"}],"anonymous":false},{"type":"event","name":"OrderSigned","inputs":[{"name":"timestamp","type":"uint256","indexed":true,"internalType":"uint256"},{"name":"orderUid","type":"bytes","indexed":false,"internalType":"bytes"},{"name":"order","type":"tuple","indexed":false,"internalType":"struct GPv2Order.Data","components":[{"name":"sellToken","type":"address","internalType":"contract IERC20"},{"name":"buyToken","type":"address","internalType":"contract IERC20"},{"name":"receiver","type":"address","internalType":"address"},{"name":"sellAmount","type":"uint256","internalType":"uint256"},{"name":"buyAmount","type":"uint256","internalType":"uint256"},{"name":"validTo","type":"uint32","internalType":"uint32"},{"name":"appData","type":"bytes32","internalType":"bytes32"},{"name":"feeAmount","type":"uint256","internalType":"uint256"},{"name":"kind","type":"bytes32","internalType":"bytes32"},{"name":"partiallyFillable","type":"bool","internalType":"bool"},{"name":"sellTokenBalance","type":"bytes32","internalType":"bytes32"},{"name":"buyTokenBalance","type":"bytes32","internalType":"bytes32"}]},{"name":"validTo","type":"uint32","indexed":false,"internalType":"uint32"},{"name":"buyAmount","type":"uint256","indexed":false,"internalType":"uint256"},{"name":"sellAmount","type":"uint256","indexed":false,"internalType":"uint256"}],"anonymous":false},{"type":"event","name":"OwnershipTransferred","inputs":[{"name":"previousOwner","type":"address","indexed":true,"internalType":"address"},{"name":"newOwner","type":"address","indexed":true,"internalType":"address"}],"anonymous":false},{"type":"event","name":"ReceiverApproved","inputs":[{"name":"sender","type":"address","indexed":false,"internalType":"address"},{"name":"notes","type":"string","indexed":false,"internalType":"string"}],"anonymous":false},{"type":"event","name":"ReceiverRemoved","inputs":[{"name":"sender","type":"address","indexed":false,"internalType":"address"},{"name":"notes","type":"string","indexed":false,"internalType":"string"}],"anonymous":false},{"type":"event","name":"SenderApproved","inputs":[{"name":"sender","type":"address","indexed":false,"internalType":"address"},{"name":"notes","type":"string","indexed":false,"internalType":"string"}],"anonymous":false},{"type":"event","name":"SenderRemoved","inputs":[{"name":"sender","type":"address","indexed":false,"internalType":"address"},{"name":"notes","type":"string","indexed":false,"internalType":"string"}],"anonymous":false},{"type":"event","name":"VeloraSwapExecuted","inputs":[{"name":"timestamp","type":"uint256","indexed":true,"internalType":"uint256"},{"name":"augustusSwapper","type":"address","indexed":true,"internalType":"address"},{"name":"tokenIn","type":"address","indexed":false,"internalType":"address"},{"name":"tokenOut","type":"address","indexed":false,"internalType":"address"},{"name":"amountIn","type":"uint256","indexed":false,"internalType":"uint256"},{"name":"amountOut","type":"uint256","indexed":false,"internalType":"uint256"},{"name":"minAmountOut","type":"uint256","indexed":false,"internalType":"uint256"}],"anonymous":false},{"type":"event","name":"VeloraSwapperApproved","inputs":[{"name":"augustusSwapper","type":"address","indexed":false,"internalType":"address"},{"name":"notes","type":"string","indexed":false,"internalType":"string"}],"anonymous":false},{"type":"event","name":"WithdrawDestinationApproved","inputs":[{"name":"sender","type":"address","indexed":false,"internalType":"address"},{"name":"notes","type":"string","indexed":false,"internalType":"string"}],"anonymous":false},{"type":"event","name":"WithdrawDestinationRemoved","inputs":[{"name":"sender","type":"address","indexed":false,"internalType":"address"},{"name":"notes","type":"string","indexed":false,"internalType":"string"}],"anonymous":false}],"bytecode":{"object":"0x6080806040523461006b57600c8054610100600160a81b0319811633600881811b610100600160a81b0316929092179093551c6001600160a01b03167f8be0079c531659141344cd1fd0a4f28419497f9722a3daafe3b4186f6b6457e05f80a3613ac590816100708239f35b5f80fdfe60806040526004361015610011575f80fd5b5f3560e01c806304a3ba251461037b57806307ef00cf146104b15780630c260a7b146104ac5780631047789e146104a75780631710a4f2146104a25780631c123e771461049d5780631d49039c146104985780632c02cda0146104935780632d12d7881461048e5780632dc32a6114610489578063333f22e81461048457806334ec8d7e1461047f5780633cf200251461047a5780633ea35551146104755780633ffb788e14610470578063475660641461046b5780634b941268146104665780634b956bd8146104615780634efbad391461045c5780635ace1d92146104575780635e4ccace146104525780635e6afe4d1461044d57806363cc17f2146104485780636a6d5cc8146104435780636d5025f11461043e5780636d5176a6146103a85780636d9a1423146104395780636fd7fdef14610434578063713ebf3b146103e4578063715018a61461042f57806372e548a91461042a5780637325249414610402578063742bfc7e146103d557806374fb77fe14610425578063761bcd9c1461042057806378065086146103d557806378addb481461041b57806386a6ae151461041657806386b6dbe514610411578063873016081461040c5780638c2fdf9e146104075780638da5cb5b146104025780638fb4dff2146103fd578063912ef02d146103a8578063957dc6c0146103f857806398b3cc39146103f3578063a4c1cccb146103ee578063a67e1f54146103e9578063a847cf4d146103e4578063a9fc3d4f146103df578063ac9650d8146103da578063adcfa55b146103d5578063b3c329cb146103d0578063b45ea48b146103cb578063b8fe8d5f146103c6578063be8c97b0146103c1578063c2e657ae146103bc578063c537bed0146103b7578063d075f9bb146103b2578063d4c0fe45146103ad578063d718f041146103a8578063d7334c9d146103a3578063db17a1701461039e578063e98539c514610399578063eb0de04214610394578063ebe268161461038f578063ee5462cc1461038a578063efb47bff14610385578063f20e85e014610380578063f259a0731461037b578063f2fde38b14610376578063f84756aa14610371578063f901dc331461036c578063fa2c59c814610367578063fadbcf48146103625763fdedfa271461035d575f80fd5b611e09565b611dc9565b611d57565b611ce8565b611ca5565b611be1565b610534565b611b36565b611b0f565b611af8565b611ae2565b611aa2565b611a59565b6119a3565b61192b565b610f72565b611915565b6118ee565b6118c7565b611820565b6117f9565b6117b9565b611779565b611754565b611192565b611651565b61158b565b61104c565b611506565b6114c6565b611467565b611451565b611411565b611166565b6113a2565b611380565b611321565b6111fb565b6111d4565b6111be565b6111a8565b6110f4565b6110a8565b611025565b610f80565b610f58565b610f42565b610ee0565b610dd1565b610d43565b610c85565b610bd5565b610bbf565b610b7f565b610b3f565b610b23565b610a78565b610a38565b610978565b610935565b61090e565b61089f565b610864565b610833565b61081d565b610807565b61074d565b6106f1565b6105c1565b6001600160a01b038116036104c757565b5f80fd5b9181601f840112156104c7578235916001600160401b0383116104c757602083818601950101116104c757565b9060406003198301126104c757600435610511816104b6565b91602435906001600160401b0382116104c757610530916004016104cb565b9091565b346104c7577fb71be9befd3ac90c1c9981d3b1161b3c2c6dcd741f13b34061aa251226a802df6105a3610566366104f8565b60018060a09593951b0361058281600c5460081c163314611e24565b83165f52600760205260405f2060ff19815416905560405193849384611e8f565b0390a1005b6001600160a01b03165f90815260208190526040902090565b346104c75760203660031901126104c7576004356105de816104b6565b60018060a01b03165f526006602052602060ff60405f2054166040519015158152f35b634e487b7160e01b5f52604160045260245ffd5b60a081019081106001600160401b0382111761063057604052565b610601565b601f909101601f19168101906001600160401b0382119082101761063057604052565b6001600160401b03811161063057601f01601f191660200190565b92919261067f82610658565b9161068d6040519384610635565b8294818452818301116104c7578281602093845f960137010152565b9080601f830112156104c7578160206106c493359101610673565b90565b60206003198201126104c757600435906001600160401b0382116104c7576106c4916004016106a9565b346104c757610707610702366106c7565b611f05565b005b60606003198201126104c757600435610721816104b6565b9160243561072e816104b6565b91604435906001600160401b0382116104c757610530916004016104cb565b346104c7577f936b7187f49d778f82d1c17d927c8006f00eac6d2e5ccb50720dbc7afda8b4a96105a361077f36610709565b9093916107e0828660018060a01b036107a081600c5460081c163314611e24565b871693845f52600760205260405f20600160ff198254161790555f80516020613a10833981519152604051806107d886868d84611e8f565b0390a1612f14565b5f52600a6020526107fb60405f20600160ff19825416179055565b60405193849384611e8f565b346104c757610707610818366106c7565b611f61565b346104c75761070761082e366106c7565b611fc9565b346104c75760203660031901126104c757602061085a600435610855816104b6565b612057565b6040519015158152f35b346104c75760403660031901126104c7576108806004356104b6565b6024356001600160401b0381116104c7576107079036906004016106a9565b346104c7577f4e13b11ab98e672bd78295ef9cebe764dc617f95decf47d842c25b83abc0c7246105a36108d1366104f8565b60018060a09593951b036108ed81600c5460081c163314611e24565b83165f52600560205260405f2060ff19815416905560405193849384611e8f565b346104c75760203660031901126104c757602061085a600435610930816104b6565b612079565b346104c75760203660031901126104c757600435610952816104b6565b60018060a01b03165f52600a6020526020600160ff60405f205416151514604051908152f35b346104c757610707610989366104f8565b9160018060a01b036109a381600c5460081c163314611e24565b8116805f525f6020526109c760405f2063c04b8d5960e01b5f5260205260405f2090565b9060ff19916001838254161790555f526001602052600160405f20918254161790556109fc6109f7600254612af3565b600255565b5f80516020613a7083398151915260405180610a1a86868684612b06565b0390a1610a2883838361210a565b610a338383836121ac565b612f14565b346104c75760203660031901126104c757600435610a55816104b6565b60018060a01b03165f526005602052602060ff60405f2054166040519015158152f35b346104c757610707610a89366104f8565b9160018060a01b03610aa381600c5460081c163314611e24565b8116805f525f602052610ac760405f206338ed173960e01b5f5260205260405f2090565b9060ff19916001838254161790555f526001602052600160405f2091825416179055610af76109f7600254612af3565b5f80516020613a7083398151915260405180610b1586868684612b35565b0390a1610a33838383612228565b346104c7575f3660031901126104c75760206040516104b08152f35b346104c75760203660031901126104c757600435610b5c816104b6565b60018060a01b03165f52600a602052602060ff60405f2054166040519015158152f35b346104c75760203660031901126104c757600435610b9c816104b6565b60018060a01b03165f526008602052602060ff60405f2054166040519015158152f35b346104c757610707610bd0366106c7565b61209b565b346104c7577f4528ea4d4b1ca7b25fe4843fa8f643b7bbdc91395054ca124e68c761b44f77076105a3610c0736610709565b9093915f80516020613a108339815191528560018060a01b0392610c3c84600c5460081c163314610c3781611e24565b611e24565b8381165f52600760205260405f20600160ff19825416179055610c658560405193849384611e8f565b0390a183165f52600b6020526107fb60405f20600160ff19825416179055565b346104c7577f3562181221a42a19ddd03a82dfe06acab1905ceb65cdaf7d86a1d9fec66435526105a3610cb7366104f8565b60018060a09593951b03610cd381600c5460081c163314611e24565b83165f52600660205260405f20600160ff1982541617905560405193849384611e8f565b60606003198201126104c757600435610d0f816104b6565b916024356001600160e01b0319811681036104c75791604435906001600160401b0382116104c757610530916004016104cb565b346104c7575f80516020613a708339815191526105a3610d6236610cf7565b9060018060a09694961b03610d7f81600c5460081c163314611e24565b8416805f525f602052610d958660405f20611575565b9060ff19916001838254161790555f526001602052600160405f2091825416179055610dc2600254612af3565b60025560405194859485612c20565b346104c7577ffaa136302ac223cf7c1146490a741e4520e886fc22d7e759641453f432283d016105a3610e03366104f8565b600c549193916001600160a01b0390610e229060081c82163314611e24565b808416805f526009602052610e5160405f209260ff19936001858254161790553390600c5460081c1614611e24565b805f525f602052610e7360405f2063559ec80d60e01b5f5260205260405f2090565b6001838254161790555f526001602052600160405f2091825416179055610e9e6109f7600254612af3565b5f80516020613a7083398151915260405180610ebc84888884612b64565b0390a1610eca8185856122a4565b610ed5818585612320565b6107fb81858561239c565b346104c7575f80516020613a108339815191526105a3610eff366104f8565b600c549193916001600160a01b0390610f1e9060081c82163314611e24565b83165f52600860205260405f20600160ff1982541617905560405193849384611e8f565b346104c757610707610f53366106c7565b612c53565b346104c757610707610f6936610709565b92919091613471565b346104c757610707366106c7565b346104c757610707610f91366104f8565b9160018060a01b03610fab81600c5460081c163314611e24565b8116805f525f602052610fcf60405f20630c04a8a160e41b5f5260205260405f2090565b9060ff19916001838254161790555f526001602052600160405f2091825416179055610fff6109f7600254612af3565b5f80516020613a708339815191526040518061101d86868684612b93565b0390a1612e78565b346104c75760203660031901126104c757602061085a600435611047816104b6565b612ca1565b346104c75760403660031901126104c757600435611069816104b6565b6024356001600160e01b0319811681036104c75761109c60ff9160209360018060a01b03165f525f845260405f20611575565b54166040519015158152f35b346104c7575f3660031901126104c7576110c061386c565b600c8054610100600160a81b031981169091555f9060081c6001600160a01b03165f80516020613a308339815191528280a3005b346104c7577f62dd88c5ecfa60713a657640ebec4de26fc1aefa4afdb24e6d15a124fce727796105a3611126366104f8565b60018060a09593951b0361114281600c5460081c163314611e24565b83165f52600560205260405f20600160ff1982541617905560405193849384611e8f565b346104c7575f3660031901126104c757600c5460405160089190911c6001600160a01b03168152602090f35b346104c7576107076111a3366106c7565b612cc3565b346104c7576107076111b9366106c7565b612ceb565b346104c7576107076111cf366106c7565b612d50565b346104c75760203660031901126104c757602061085a6004356111f6816104b6565b612e39565b346104c757611209366104f8565b6040516338d52e0f60e01b815292906020846004816001600160a01b0386165afa90811561131c576107fb81856105a3947fd2851df39115d63968e90113e8b3a96f13e33ac4c2e5a9caa1afeffe59e55748985f916112ed575b5061126f838389612418565b61127a838389612494565b611285838389612510565b61129083838961258c565b61129b838389612608565b6112a6838389612683565b6112b18383896126ff565b6112bc83838961277b565b6112c78383896127f7565b6112d2838389612873565b6112dd838389612f14565b6112e8838389613884565b613884565b61130f915060203d602011611315575b6113078183610635565b810190612e58565b5f611263565b503d6112fd565b612e6d565b346104c7575f80516020613a508339815191526105a3611340366104f8565b60018060a09593951b0361135c81600c5460081c163314611e24565b83165f52600360205260405f20600160ff1982541617905560405193849384611e8f565b346104c7575f3660031901126104c757602060ff600c54166040519015158152f35b346104c7577f1212f8ddb39de8e1a339460c95752d61100723efeaa34ccd94bca94393f409386105a36113d4366104f8565b60018060a09593951b036113f081600c5460081c163314611e24565b83165f52600660205260405f2060ff19815416905560405193849384611e8f565b346104c75760203660031901126104c75760043561142e816104b6565b60018060a01b03165f526009602052602060ff60405f2054166040519015158152f35b346104c757610707611462366106c7565b612ea3565b346104c7575f80516020613a108339815191526105a3611486366104f8565b60018060a09593951b036114a281600c5460081c163314611e24565b83165f52600760205260405f20600160ff1982541617905560405193849384611e8f565b346104c75760203660031901126104c7576004356114e3816104b6565b60018060a01b03165f526003602052602060ff60405f2054166040519015158152f35b346104c7577f3097928509c53a2dab9500431201d82b0d756e8f890fd01f4ae6b33b45687ea46105a3611538366104f8565b60018060a09593951b0361155481600c5460081c163314611e24565b83165f52600460205260405f2060ff19815416905560405193849384611e8f565b9063ffffffff60e01b165f5260205260405f2090565b346104c7575f3660031901126104c7576020600254604051908152f35b5f5b8381106115b95750505f910152565b81810151838201526020016115aa565b906020916115e2815180928185528580860191016115a8565b601f01601f1916010190565b6020808201906020835283518092526040830192602060408460051b8301019501935f915b8483106116235750505050505090565b9091929394958480611641600193603f198682030187528a516115c9565b9801930193019194939290611613565b60203660031901126104c7576001600160401b0360048035908282116104c757366023830112156104c75781600401359283116104c7576024906024830192602436918660051b0101116104c7576116a884612f3f565b935f5b8181106116c457604051806116c088826115ee565b0390f35b5f806116d1838589612f88565b604093916116e3855180938193612fc9565b0390305af4906116f1612fd6565b91156117185750906001916117068289612d37565b526117118188612d37565b50016116ab565b84828760448251106104c757818161173b9285611750950151830101910161303a565b925162461bcd60e51b81529283928301613070565b0390fd5b346104c75760203660031901126104c757610707600435611774816104b6565b613081565b346104c75760203660031901126104c757600435611796816104b6565b60018060a01b03165f52600b602052602060ff60405f2054166040519015158152f35b346104c75760203660031901126104c7576004356117d6816104b6565b60018060a01b03165f526001602052602060ff60405f2054166040519015158152f35b346104c75760203660031901126104c757602061085a60043561181b816104b6565b6130ca565b346104c75760403660031901126104c7576004358015158091036104c7576024356001600160401b0381116104c7577f50454d9d0025a28a39cac5a4b3f3101d29b6e413fbb64f75fb42eb6837b07718916118826105a39236906004016104cb565b600c54909391906118a1600882901c6001600160a01b03163314611e24565b60ff84169060ff191617600c556040519384938452604060208501526040840191611e6f565b346104c75760203660031901126104c757602061085a6004356118e9816104b6565b6130ec565b346104c75760203660031901126104c757602061085a600435611910816104b6565b613121565b346104c757610707611926366106c7565b613143565b346104c7577f37ea10f2d08f5a9803dfcd5abf3cfc7b0d6fcdf5fcbc36be9ea5a0b53d9a4d9b6105a361195d36610cf7565b9060018060a09694961b0361197a81600c5460081c163314611e24565b84165f525f60205261198f8560405f20611575565b805460ff1916905560405194859485612c20565b346104c7576107076119b4366104f8565b9160018060a01b036119ce81600c5460081c163314611e24565b8116805f525f6020526119f260405f20632df4869b60e01b5f5260205260405f2090565b9060ff19916001838254161790555f526001602052600160405f2091825416179055611a226109f7600254612af3565b5f80516020613a7083398151915260405180611a4086868684612bc2565b0390a1611a4e8383836128ef565b610a3383838361296b565b346104c757610707611a7c611a6d366106c7565b60208082518301019101613179565b6020810151611a9c90611a97906001600160a01b0316613121565b611ebe565b51611fc9565b346104c75760203660031901126104c757600435611abf816104b6565b60018060a01b03165f526007602052602060ff60405f2054166040519015158152f35b346104c757610707611af3366106c7565b613207565b346104c757610707611b09366104f8565b91613884565b346104c75760203660031901126104c757602061085a600435611b31816104b6565b61321d565b346104c757610707611b47366104f8565b9160018060a01b03611b6181600c5460081c163314611e24565b8116805f525f602052611b8560405f2063617ba03760e01b5f5260205260405f2090565b9060ff19916001838254161790555f526001602052600160405f2091825416179055611bb56109f7600254612af3565b5f80516020613a7083398151915260405180611bd386868684612bf1565b0390a1610a338383836129e7565b346104c75760203660031901126104c757600435611bfe816104b6565b611c0661386c565b6001600160a01b03818116918215611c5157600c8054610100600160a81b03198116600893841b610100600160a81b031617909155901c165f80516020613a308339815191525f80a3005b60405162461bcd60e51b815260206004820152602660248201527f4f776e61626c653a206e6577206f776e657220697320746865207a65726f206160448201526564647265737360d01b6064820152608490fd5b346104c75760203660031901126104c757600435611cc2816104b6565b60018060a01b03165f52600b6020526020600160ff60405f205416151514604051908152f35b346104c7577f9ca3f065622f5f03f32b7157677a0e420c3a36ab45fd49f256ffebce3e3105876105a3611d1a366104f8565b60018060a09593951b03611d3681600c5460081c163314611e24565b83165f52600360205260405f2060ff19815416905560405193849384611e8f565b346104c7577fa8f9caaf4861720900294428e4ff34d37070c37afd26d96e6e4da75326d2c3ad6105a3611d89366104f8565b60018060a09593951b03611da581600c5460081c163314611e24565b83165f52600460205260405f20600160ff1982541617905560405193849384611e8f565b346104c75760203660031901126104c757600435611de6816104b6565b60018060a01b03165f526004602052602060ff60405f2054166040519015158152f35b346104c7575f3660031901126104c757602060405160018152f35b15611e2b57565b606460405162461bcd60e51b815260206004820152602060248201527f4f776e61626c653a2063616c6c6572206973206e6f7420746865206f776e65726044820152fd5b908060209392818452848401375f828201840152601f01601f1916010190565b6001600160a01b0390911681526040602082018190526106c493910191611e6f565b5190611ebc826104b6565b565b15611ec557565b60405162461bcd60e51b8152602060048201526018602482015277149958d95a5d995c881b9bdd081dda1a5d195b1a5cdd195960421b6044820152606490fd5b6080818051810103126104c757611a9781611f3460806060611ebc95015192611f2d846104b6565b01516104b6565b6001600160a01b0316613121565b91908260409103126104c75760208251611f5b816104b6565b92015190565b611a97611f7a611ebc9260208082518301019101611f42565b506001600160a01b031661321d565b15611f9057565b60405162461bcd60e51b8152602060048201526011602482015270151bdad95b881b9bdd08185b1b1bddd959607a1b6044820152606490fd5b6014611fd88183511015613935565b60208083015160601c91601784511061201d575050612003612008916118e96120036118e986613979565b611f89565b805160421161201a5761082e9061325b565b50565b606492506040519162461bcd60e51b83526004830152602482015273746f55696e7432345f6f75744f66426f756e647360601b6044820152fd5b6001600160a01b03165f9081526007602052604090205460ff16151560011490565b6001600160a01b03165f9081526008602052604090205460ff16151560011490565b6120b16120c09160208082518301019101611f42565b506001600160a01b0316612057565b156120c757565b60405162461bcd60e51b815260206004820152601b60248201527a105c1c1c9bdd99481859191c995cdcc81b9bdd08185b1b1bddd959602a1b6044820152606490fd5b906121a75f80516020613a70833981519152939260018060a01b039061213882600c5460081c163314611e24565b1691825f525f60205260405f2093631e51809360e31b94855f5260205260405f2060ff1990600182825416179055845f526001602052600160405f2091825416179055612186600254612af3565b60025560405194859485526020850152606060408501526060840191611e6f565b0390a1565b906121a75f80516020613a70833981519152939260018060a01b03906121da82600c5460081c163314611e24565b1691825f525f60205260405f209363b858183f60e01b94855f5260205260405f2060ff1990600182825416179055845f526001602052600160405f2091825416179055612186600254612af3565b906121a75f80516020613a70833981519152939260018060a01b039061225682600c5460081c163314611e24565b1691825f525f60205260405f2093635c11d79560e01b94855f5260205260405f2060ff1990600182825416179055845f526001602052600160405f2091825416179055612186600254612af3565b906121a75f80516020613a70833981519152939260018060a01b03906122d282600c5460081c163314611e24565b1691825f525f60205260405f209363a03d55e360e01b94855f5260205260405f2060ff1990600182825416179055845f526001602052600160405f2091825416179055612186600254612af3565b906121a75f80516020613a70833981519152939260018060a01b039061234e82600c5460081c163314611e24565b1691825f525f60205260405f209363692652c560e11b94855f5260205260405f2060ff1990600182825416179055845f526001602052600160405f2091825416179055612186600254612af3565b906121a75f80516020613a70833981519152939260018060a01b03906123ca82600c5460081c163314611e24565b1691825f525f60205260405f2093635313efb360e11b94855f5260205260405f2060ff1990600182825416179055845f526001602052600160405f2091825416179055612186600254612af3565b906121a75f80516020613a70833981519152939260018060a01b039061244682600c5460081c163314611e24565b1691825f525f60205260405f2093636e553f6560e01b94855f5260205260405f2060ff1990600182825416179055845f526001602052600160405f2091825416179055612186600254612af3565b906121a75f80516020613a70833981519152939260018060a01b03906124c282600c5460081c163314611e24565b1691825f525f60205260405f2093632d182be560e21b94855f5260205260405f2060ff1990600182825416179055845f526001602052600160405f2091825416179055612186600254612af3565b906121a75f80516020613a70833981519152939260018060a01b039061253e82600c5460081c163314611e24565b1691825f525f60205260405f2093635d043b2960e11b94855f5260205260405f2060ff1990600182825416179055845f526001602052600160405f2091825416179055612186600254612af3565b906121a75f80516020613a70833981519152939260018060a01b03906125ba82600c5460081c163314611e24565b1691825f525f60205260405f2093638dbdbe6d60e01b94855f5260205260405f2060ff1990600182825416179055845f526001602052600160405f2091825416179055612186600254612af3565b906121a75f80516020613a70833981519152939260018060a01b039061263682600c5460081c163314611e24565b1691825f525f60205260405f209362b4d4cb60e11b94855f5260205260405f2060ff1990600182825416179055845f526001602052600160405f2091825416179055612186600254612af3565b906121a75f80516020613a70833981519152939260018060a01b03906126b182600c5460081c163314611e24565b1691825f525f60205260405f2093630b8b4a6160e21b94855f5260205260405f2060ff1990600182825416179055845f526001602052600160405f2091825416179055612186600254612af3565b906121a75f80516020613a70833981519152939260018060a01b039061272d82600c5460081c163314611e24565b1691825f525f60205260405f2093633ea0e43760e11b94855f5260205260405f2060ff1990600182825416179055845f526001602052600160405f2091825416179055612186600254612af3565b906121a75f80516020613a70833981519152939260018060a01b03906127a982600c5460081c163314611e24565b1691825f525f60205260405f20936319792d1d60e11b94855f5260205260405f2060ff1990600182825416179055845f526001602052600160405f2091825416179055612186600254612af3565b906121a75f80516020613a70833981519152939260018060a01b039061282582600c5460081c163314611e24565b1691825f525f60205260405f20936385b77f4560e01b94855f5260205260405f2060ff1990600182825416179055845f526001602052600160405f2091825416179055612186600254612af3565b906121a75f80516020613a70833981519152939260018060a01b03906128a182600c5460081c163314611e24565b1691825f525f60205260405f209363a8abe90560e01b94855f5260205260405f2060ff1990600182825416179055845f526001602052600160405f2091825416179055612186600254612af3565b906121a75f80516020613a70833981519152939260018060a01b039061291d82600c5460081c163314611e24565b1691825f525f60205260405f209363322dda6d60e01b94855f5260205260405f2060ff1990600182825416179055845f526001602052600160405f2091825416179055612186600254612af3565b906121a75f80516020613a70833981519152939260018060a01b039061299982600c5460081c163314611e24565b1691825f525f60205260405f2093634c61684360e11b94855f5260205260405f2060ff1990600182825416179055845f526001602052600160405f2091825416179055612186600254612af3565b906121a75f80516020613a70833981519152939260018060a01b0390612a1582600c5460081c163314611e24565b1691825f525f60205260405f2093631a4ca37b60e21b94855f5260205260405f2060ff1990600182825416179055845f526001602052600160405f2091825416179055612186600254612af3565b906121a75f80516020613a70833981519152939260018060a01b0390612a9182600c5460081c163314611e24565b1691825f525f60205260405f209363095ea7b360e01b94855f5260205260405f2060ff1990600182825416179055845f526001602052600160405f2091825416179055612186600254612af3565b634e487b7160e01b5f52601160045260245ffd5b5f198114612b015760010190565b612adf565b6001600160a01b03909116815263c04b8d5960e01b60208201526060604082018190526106c493910191611e6f565b6001600160a01b0390911681526338ed173960e01b60208201526060604082018190526106c493910191611e6f565b6001600160a01b03909116815263559ec80d60e01b60208201526060604082018190526106c493910191611e6f565b6001600160a01b039091168152630c04a8a160e41b60208201526060604082018190526106c493910191611e6f565b6001600160a01b039091168152632df4869b60e01b60208201526060604082018190526106c493910191611e6f565b6001600160a01b03909116815263617ba03760e01b60208201526060604082018190526106c493910191611e6f565b6001600160a01b0390911681526001600160e01b031990911660208201526060604082018190526106c493910191611e6f565b6060818051810103126104c757611a978160606020611ebc94015191612c78836104b6565b0151612c83816104b6565b6001600160a01b0391612c9b906120039084166130ec565b16613121565b6001600160a01b03165f9081526009602052604090205460ff16151560011490565b6060818051810103126104c757611a9781611f3460606040611ebc95015192611f2d846104b6565b6060818051810103126104c757611a976060611ebc920151611f34816104b6565b6001600160401b0381116106305760051b60200190565b634e487b7160e01b5f52603260045260245ffd5b8051821015612d4b5760209160051b010190565b612d23565b908151820191602060a082602086019503126104c75760608201516001600160401b0381116104c75782019380603f860112156104c7576020850151612d9581612d0c565b95612da36040519788610635565b8187526040602088019260051b8201019283116104c757604001905b828210612e205750612de793611a9793506001600160a01b039250612c9b9150608001611eb1565b5f5b8251811015612e1b5780612e156120036118e9612e0860019588612d37565b516001600160a01b031690565b01612de9565b509050565b8380918351612e2e816104b6565b815201910190612dbf565b60018060a01b03165f526001602052600160ff60405f20541615151490565b908160209103126104c757516106c4816104b6565b6040513d5f823e3d90fd5b6121a75f80516020613a508339815191529360018060a01b0361135c81600c5460081c163314611e24565b612eb9612ec89160208082518301019101611f42565b506001600160a01b0316612079565b15612ecf57565b60405162461bcd60e51b815260206004820152601e60248201527f44656c65676174696f6e2061646472657373206e6f7420616c6c6f77656400006044820152606490fd5b6121a75f80516020613a108339815191529360018060a01b036114a281600c5460081c163314611e24565b90612f4982612d0c565b612f566040519182610635565b8281528092612f67601f1991612d0c565b01905f5b828110612f7757505050565b806060602080938501015201612f6b565b9190811015612d4b5760051b81013590601e19813603018212156104c75701803591906001600160401b0383116104c75760200182360381136104c7579190565b908092918237015f815290565b3d15613000573d90612fe782610658565b91612ff56040519384610635565b82523d5f602084013e565b606090565b9092919261301281610658565b916130206040519384610635565b8294828452828201116104c7576020611ebc9301906115a8565b6020818303126104c7578051906001600160401b0382116104c757019080601f830112156104c75781516106c492602001613005565b9060206106c49281815201906115c9565b61308a90612ca1565b1561309157565b60405162461bcd60e51b815260206004820152601160248201527015985d5b1d081b9bdd08185b1b1bddd959607a1b6044820152606490fd5b6001600160a01b03165f9081526004602052604090205460ff16151560011490565b60ff600c54169081156130fd575090565b6001600160a01b03165f9081526003602052604090205460ff161515600114919050565b6001600160a01b03165f9081526005602052604090205460ff16151560011490565b6080818051810103126104c7576120038161316b60606020611ebc95015192611f2d846104b6565b6001600160a01b03166130ec565b906020828203126104c75781516001600160401b03928382116104c7570160a0818303126104c757604051926131ae84610615565b81519081116104c757810182601f820112156104c7576080928160206131d693519101613005565b83526131e460208201611eb1565b602084015260408101516040840152606081015160608401520151608082015290565b611a7c611ebc9160208082518301019101613179565b6001600160a01b03165f9081526006602052604090205460ff16151560011490565b90601f8201809211612b0157565b6017019081601711612b0157565b80516016199182820190828211612b0157613280826132798161323f565b1015613992565b61328e60176132798461324d565b6132a3815161329c8461324d565b11156139cf565b601783036132bf57505050506040515f81526020810160405290565b601760405194601f8416801560051b9182828901019687010193010101905b8084106132f65750508252601f01601f191660405290565b90928351815260208091019301906132de565b1561331057565b60405162461bcd60e51b815260206004820152601260248201527114d95b99195c881b9bdd08185b1b1bddd95960721b6044820152606490fd5b906004116104c75790600490565b90929192836004116104c75783116104c757600401916003190190565b6001600160e01b0319903581811693926004811061339257505050565b60040360031b82901b16169150565b156133a857565b60405162461bcd60e51b815260206004820152601260248201527115185c99d95d081b9bdd08185b1b1bddd95960721b6044820152606490fd5b156133e957565b60405162461bcd60e51b815260206004820152601460248201527314d95b1958dd1bdc881b9bdd08185b1b1bddd95960621b6044820152606490fd5b1561342c57565b60405162461bcd60e51b815260206004820152601e60248201527f53776170526f75746572303220726571756972657320616e79417373657400006044820152606490fd5b600c549291906001600160a01b03808216600886901c909116146138655760ff946134a66134a16134c0936130ca565b613309565b806134ba6134b4828761334a565b90613375565b94613358565b9490931691828061384b575b156137f5575b6001600160e01b0319166338ed173960e01b81036134fc575050506111cf90611ebc923691610673565b635c11d79560e01b810361351c575050506111cf90611ebc923691610673565b63c04b8d5960e01b810361353c57505050611af390611ebc923691610673565b91929163b858183f60e01b810361355a57505050611ebc9150613425565b9192509063a9059cbb60e01b810361357d57505061081890611ebc923691610673565b63095ea7b360e01b810361359c575050610bd090611ebc923691610673565b630c04a8a160e41b81036135bb57505061146290611ebc923691610673565b63617ba03760e01b81036135da57505061192690611ebc923691610673565b631a4ca37b60e21b81036135f9575050610f5390611ebc923691610673565b90919063559ec80d60e01b8103613616575050611ebc9150613081565b63a03d55e360e01b8103613630575050611ebc9150613081565b63692652c560e11b810361364a575050611ebc9150613081565b635313efb360e11b8103613664575050611ebc9150613081565b909150636e553f6560e01b811480156137e5575b1561368257505050565b638dbdbe6d60e01b81036136a057506111b990611ebc923691610673565b62b4d4cb60e11b81036136bd575061070290611ebc923691610673565b632d182be560e21b81036136db57506111a390611ebc923691610673565b635d043b2960e11b81036136f957506111a390611ebc923691610673565b633ea0e43760e11b810361371757506111a390611ebc923691610673565b6319792d1d60e11b810361373557506111a390611ebc923691610673565b637a4880bb60e01b8101613749575b505050565b63575416fb60e01b81011561374457632df4869b60e01b8103613772575061201a913691610673565b63322dda6d60e01b810361378c575061201a913691610673565b634c61684360e11b036137a45761201a913691610673565b60405162461bcd60e51b81526020600482015260196024820152782ab735b737bbb710333ab731ba34b7b71039b2b632b1ba37b960391b6044820152606490fd5b50630b8b4a6160e21b8114613678565b61381861381461380d83613808866105a8565b611575565b5460ff1690565b1590565b156134d25761382e61382983612e39565b6133a1565b61384661384161380d83613808866105a8565b6133e2565b6134d2565b506001600160e01b0319811663095ea7b360e01b146134cc565b5050505050565b611ebc60018060a01b03600c5460081c163314611e24565b90611ebc92915f80516020613a7083398151915260018060a01b036138b181600c5460081c163314611e24565b8216805f525f60205260405f2063a9059cbb60e01b90815f5260205260405f2060ff1990600182825416179055825f526001602052600160405f20918254161790556138fe600254612af3565b60025560405191825260208201526060604082015280613922606082018787611e6f565b0390a1613930838383612a63565b612e78565b1561393c57565b60405162461bcd60e51b8152602060048201526015602482015274746f416464726573735f6f75744f66426f756e647360581b6044820152606490fd5b60379061398a602b82511015613935565b015160601c90565b1561399957565b60405162461bcd60e51b815260206004820152600e60248201526d736c6963655f6f766572666c6f7760901b6044820152606490fd5b156139d657565b60405162461bcd60e51b8152602060048201526011602482015270736c6963655f6f75744f66426f756e647360781b6044820152606490fdfe628a44970c0e450415e3ae74334ea44f3307b74dbf677a1371190242bf2f35898be0079c531659141344cd1fd0a4f28419497f9722a3daafe3b4186f6b6457e0ad90e2570fc4fe9f7437be3188d5c791c6662892d31731992aa88f5c87621983ef729aaa41b9fd994f9ff7c1960df214a84f722002e6cfbea31799cd0873a3efa2646970667358221220cca6df9595bde7c4af65d85ffc956c00da5f7fcd3d848215567a8b44a9353fff64736f6c63430008170033","linkReferences":{}},"methodIdentifiers":{"_SIGN_COOLDOWN()":"3ffb788e","allowApprovalDestination(address,string)":"98b3cc39","allowAsset(address,string)":"86b6dbe5","allowCallSite(address,bytes4,string)":"5e4ccace","allowDelegationApprovalDestination(address,string)":"63cc17f2","allowReceiver(address,string)":"72e548a9","allowSender(address,string)":"fa2c59c8","allowWithdrawDestination(address,string)":"5ace1d92","allowedApprovalDestinations(address)":"eb0de042","allowedAssets(address)":"a4c1cccb","allowedCallSites(address,bytes4)":"a847cf4d","allowedCowSwaps(address)":"47566064","allowedDelegationApprovalDestinations(address)":"4b941268","allowedLagoonVaults(address)":"8fb4dff2","allowedReceivers(address)":"3cf20025","allowedSenders(address)":"fadbcf48","allowedTargets(address)":"b8fe8d5f","allowedVeloraSwappers(address)":"b45ea48b","allowedWithdrawDestinations(address)":"07ef00cf","anyAsset()":"87301608","callSiteCount()":"a9fc3d4f","getGovernanceAddress()":"73252494","getInternalVersion()":"fdedfa27","isAllowedApprovalDestination(address)":"1d49039c","isAllowedAsset(address)":"c537bed0","isAllowedCallSite(address,bytes4)":"713ebf3b","isAllowedCowSwap(address)":"333f22e8","isAllowedDelegationApprovalDestination(address)":"2dc32a61","isAllowedLagoonVault(address)":"6fd7fdef","isAllowedReceiver(address)":"d075f9bb","isAllowedSender(address)":"be8c97b0","isAllowedTarget(address)":"78addb48","isAllowedVeloraSwapper(address)":"f84756aa","isAllowedWithdrawDestination(address)":"efb47bff","multicall(bytes[])":"ac9650d8","owner()":"8da5cb5b","removeApprovalDestination(address,string)":"04a3ba25","removeAsset(address,string)":"f901dc33","removeCallSite(address,bytes4,string)":"d7334c9d","removeDelegationApprovalDestination(address,string)":"f259a073","removeReceiver(address,string)":"2d12d788","removeSender(address,string)":"a67e1f54","removeWithdrawDestination(address,string)":"8c2fdf9e","renounceOwnership()":"715018a6","setAnyAssetAllowed(bool,string)":"c2e657ae","transferOwnership(address)":"f2fde38b","validateCall(address,address,bytes)":"6d5025f1","validateUniswapV3Path(bytes)":"1c123e77","validate_ERC4626Deposit(address,bytes)":"2c02cda0","validate_ERC4626Redeem(bytes)":"742bfc7e","validate_ERC4626Withdraw(bytes)":"78065086","validate_UmamiDeposit(bytes)":"74fb77fe","validate_UmamiRedeem(bytes)":"0c260a7b","validate_aaveSupply(bytes)":"d4c0fe45","validate_aaveWithdraw(bytes)":"6a6d5cc8","validate_approve(bytes)":"4b956bd8","validate_approveDelegation(bytes)":"957dc6c0","validate_cowSwapSettlement(bytes)":"adcfa55b","validate_exactInput(bytes)":"ebe26816","validate_exactOutput(bytes)":"e98539c5","validate_lagoonSettle(address)":"b3c329cb","validate_orderlyDelegateSigner(bytes)":"d718f041","validate_orderlyDeposit(bytes)":"6d5176a6","validate_orderlyWithdraw(bytes)":"912ef02d","validate_swapExactTokensForTokens(bytes)":"761bcd9c","validate_transfer(bytes)":"1710a4f2","whitelistAaveV3(address,string)":"f20e85e0","whitelistCowSwap(address,address,string)":"1047789e","whitelistERC4626(address,string)":"86a6ae15","whitelistLagoon(address,string)":"5e6afe4d","whitelistOrderly(address,string)":"db17a170","whitelistToken(address,string)":"ee5462cc","whitelistTokenForDelegation(address,string)":"6d9a1423","whitelistUniswapV2Router(address,string)":"3ea35551","whitelistUniswapV3Router(address,string)":"34ec8d7e","whitelistVelora(address,address,string)":"4efbad39"},"id":19}