{"abi":[{"type":"constructor","inputs":[],"stateMutability":"nonpayable"},{"type":"function","name":"allowApprovalDestination","inputs":[{"name":"destination","type":"address","internalType":"address"},{"name":"notes","type":"string","internalType":"string"}],"outputs":[],"stateMutability":"nonpayable"},{"type":"function","name":"allowAsset","inputs":[{"name":"asset","type":"address","internalType":"address"},{"name":"notes","type":"string","internalType":"string"}],"outputs":[],"stateMutability":"nonpayable"},{"type":"function","name":"allowCallSite","inputs":[{"name":"target","type":"address","internalType":"address"},{"name":"selector","type":"bytes4","internalType":"bytes4"},{"name":"notes","type":"string","internalType":"string"}],"outputs":[],"stateMutability":"nonpayable"},{"type":"function","name":"allowDelegationApprovalDestination","inputs":[{"name":"destination","type":"address","internalType":"address"},{"name":"notes","type":"string","internalType":"string"}],"outputs":[],"stateMutability":"nonpayable"},{"type":"function","name":"allowReceiver","inputs":[{"name":"receiver","type":"address","internalType":"address"},{"name":"notes","type":"string","internalType":"string"}],"outputs":[],"stateMutability":"nonpayable"},{"type":"function","name":"allowSender","inputs":[{"name":"sender","type":"address","internalType":"address"},{"name":"notes","type":"string","internalType":"string"}],"outputs":[],"stateMutability":"nonpayable"},{"type":"function","name":"allowWithdrawDestination","inputs":[{"name":"destination","type":"address","internalType":"address"},{"name":"notes","type":"string","internalType":"string"}],"outputs":[],"stateMutability":"nonpayable"},{"type":"function","name":"allowedApprovalDestinations","inputs":[{"name":"destination","type":"address","internalType":"address"}],"outputs":[{"name":"allowed","type":"bool","internalType":"bool"}],"stateMutability":"view"},{"type":"function","name":"allowedAssets","inputs":[{"name":"token","type":"address","internalType":"address"}],"outputs":[{"name":"allowed","type":"bool","internalType":"bool"}],"stateMutability":"view"},{"type":"function","name":"allowedCallSites","inputs":[{"name":"target","type":"address","internalType":"address"},{"name":"selector","type":"bytes4","internalType":"bytes4"}],"outputs":[{"name":"allowed","type":"bool","internalType":"bool"}],"stateMutability":"view"},{"type":"function","name":"allowedDelegationApprovalDestinations","inputs":[{"name":"destination","type":"address","internalType":"address"}],"outputs":[{"name":"allowed","type":"bool","internalType":"bool"}],"stateMutability":"view"},{"type":"function","name":"allowedLagoonVaults","inputs":[{"name":"destination","type":"address","internalType":"address"}],"outputs":[{"name":"allowed","type":"bool","internalType":"bool"}],"stateMutability":"view"},{"type":"function","name":"allowedReceivers","inputs":[{"name":"receiver","type":"address","internalType":"address"}],"outputs":[{"name":"allowed","type":"bool","internalType":"bool"}],"stateMutability":"view"},{"type":"function","name":"allowedSenders","inputs":[{"name":"sender","type":"address","internalType":"address"}],"outputs":[{"name":"allowed","type":"bool","internalType":"bool"}],"stateMutability":"view"},{"type":"function","name":"allowedTargets","inputs":[{"name":"target","type":"address","internalType":"address"}],"outputs":[{"name":"allowed","type":"bool","internalType":"bool"}],"stateMutability":"view"},{"type":"function","name":"allowedWithdrawDestinations","inputs":[{"name":"destination","type":"address","internalType":"address"}],"outputs":[{"name":"allowed","type":"bool","internalType":"bool"}],"stateMutability":"view"},{"type":"function","name":"anyAsset","inputs":[],"outputs":[{"name":"","type":"bool","internalType":"bool"}],"stateMutability":"view"},{"type":"function","name":"callSiteCount","inputs":[],"outputs":[{"name":"","type":"uint256","internalType":"uint256"}],"stateMutability":"view"},{"type":"function","name":"getGovernanceAddress","inputs":[],"outputs":[{"name":"","type":"address","internalType":"address"}],"stateMutability":"view"},{"type":"function","name":"getInternalVersion","inputs":[],"outputs":[{"name":"","type":"uint8","internalType":"uint8"}],"stateMutability":"pure"},{"type":"function","name":"isAllowedApprovalDestination","inputs":[{"name":"receiver","type":"address","internalType":"address"}],"outputs":[{"name":"","type":"bool","internalType":"bool"}],"stateMutability":"view"},{"type":"function","name":"isAllowedAsset","inputs":[{"name":"token","type":"address","internalType":"address"}],"outputs":[{"name":"","type":"bool","internalType":"bool"}],"stateMutability":"view"},{"type":"function","name":"isAllowedCallSite","inputs":[{"name":"target","type":"address","internalType":"address"},{"name":"selector","type":"bytes4","internalType":"bytes4"}],"outputs":[{"name":"","type":"bool","internalType":"bool"}],"stateMutability":"view"},{"type":"function","name":"isAllowedDelegationApprovalDestination","inputs":[{"name":"receiver","type":"address","internalType":"address"}],"outputs":[{"name":"","type":"bool","internalType":"bool"}],"stateMutability":"view"},{"type":"function","name":"isAllowedLagoonVault","inputs":[{"name":"vault","type":"address","internalType":"address"}],"outputs":[{"name":"","type":"bool","internalType":"bool"}],"stateMutability":"view"},{"type":"function","name":"isAllowedReceiver","inputs":[{"name":"receiver","type":"address","internalType":"address"}],"outputs":[{"name":"","type":"bool","internalType":"bool"}],"stateMutability":"view"},{"type":"function","name":"isAllowedSender","inputs":[{"name":"sender","type":"address","internalType":"address"}],"outputs":[{"name":"","type":"bool","internalType":"bool"}],"stateMutability":"view"},{"type":"function","name":"isAllowedTarget","inputs":[{"name":"target","type":"address","internalType":"address"}],"outputs":[{"name":"","type":"bool","internalType":"bool"}],"stateMutability":"view"},{"type":"function","name":"isAllowedWithdrawDestination","inputs":[{"name":"receiver","type":"address","internalType":"address"}],"outputs":[{"name":"","type":"bool","internalType":"bool"}],"stateMutability":"view"},{"type":"function","name":"owner","inputs":[],"outputs":[{"name":"","type":"address","internalType":"address"}],"stateMutability":"view"},{"type":"function","name":"removeApprovalDestination","inputs":[{"name":"destination","type":"address","internalType":"address"},{"name":"notes","type":"string","internalType":"string"}],"outputs":[],"stateMutability":"nonpayable"},{"type":"function","name":"removeAsset","inputs":[{"name":"asset","type":"address","internalType":"address"},{"name":"notes","type":"string","internalType":"string"}],"outputs":[],"stateMutability":"nonpayable"},{"type":"function","name":"removeCallSite","inputs":[{"name":"target","type":"address","internalType":"address"},{"name":"selector","type":"bytes4","internalType":"bytes4"},{"name":"notes","type":"string","internalType":"string"}],"outputs":[],"stateMutability":"nonpayable"},{"type":"function","name":"removeDelegationApprovalDestination","inputs":[{"name":"destination","type":"address","internalType":"address"},{"name":"notes","type":"string","internalType":"string"}],"outputs":[],"stateMutability":"nonpayable"},{"type":"function","name":"removeReceiver","inputs":[{"name":"receiver","type":"address","internalType":"address"},{"name":"notes","type":"string","internalType":"string"}],"outputs":[],"stateMutability":"nonpayable"},{"type":"function","name":"removeSender","inputs":[{"name":"sender","type":"address","internalType":"address"},{"name":"notes","type":"string","internalType":"string"}],"outputs":[],"stateMutability":"nonpayable"},{"type":"function","name":"removeWithdrawDestination","inputs":[{"name":"destination","type":"address","internalType":"address"},{"name":"notes","type":"string","internalType":"string"}],"outputs":[],"stateMutability":"nonpayable"},{"type":"function","name":"renounceOwnership","inputs":[],"outputs":[],"stateMutability":"nonpayable"},{"type":"function","name":"setAnyAssetAllowed","inputs":[{"name":"value","type":"bool","internalType":"bool"},{"name":"notes","type":"string","internalType":"string"}],"outputs":[],"stateMutability":"nonpayable"},{"type":"function","name":"transferOwnership","inputs":[{"name":"newOwner","type":"address","internalType":"address"}],"outputs":[],"stateMutability":"nonpayable"},{"type":"function","name":"validate1deltaPath","inputs":[{"name":"path","type":"bytes","internalType":"bytes"}],"outputs":[],"stateMutability":"view"},{"type":"function","name":"validateCall","inputs":[{"name":"sender","type":"address","internalType":"address"},{"name":"target","type":"address","internalType":"address"},{"name":"callDataWithSelector","type":"bytes","internalType":"bytes"}],"outputs":[],"stateMutability":"view"},{"type":"function","name":"validateUniswapV3Path","inputs":[{"name":"path","type":"bytes","internalType":"bytes"}],"outputs":[],"stateMutability":"view"},{"type":"function","name":"validate_1deltaDeposit","inputs":[{"name":"callData","type":"bytes","internalType":"bytes"}],"outputs":[],"stateMutability":"view"},{"type":"function","name":"validate_1deltaMulticall","inputs":[{"name":"callData","type":"bytes","internalType":"bytes"}],"outputs":[],"stateMutability":"view"},{"type":"function","name":"validate_1deltaWithdraw","inputs":[{"name":"callData","type":"bytes","internalType":"bytes"}],"outputs":[],"stateMutability":"view"},{"type":"function","name":"validate_ERC4626Deposit","inputs":[{"name":"target","type":"address","internalType":"address"},{"name":"callData","type":"bytes","internalType":"bytes"}],"outputs":[],"stateMutability":"view"},{"type":"function","name":"validate_ERC4626Redeem","inputs":[{"name":"callData","type":"bytes","internalType":"bytes"}],"outputs":[],"stateMutability":"view"},{"type":"function","name":"validate_ERC4626Withdraw","inputs":[{"name":"callData","type":"bytes","internalType":"bytes"}],"outputs":[],"stateMutability":"view"},{"type":"function","name":"validate_aaveSupply","inputs":[{"name":"callData","type":"bytes","internalType":"bytes"}],"outputs":[],"stateMutability":"view"},{"type":"function","name":"validate_aaveWithdraw","inputs":[{"name":"callData","type":"bytes","internalType":"bytes"}],"outputs":[],"stateMutability":"view"},{"type":"function","name":"validate_approve","inputs":[{"name":"callData","type":"bytes","internalType":"bytes"}],"outputs":[],"stateMutability":"view"},{"type":"function","name":"validate_approveDelegation","inputs":[{"name":"callData","type":"bytes","internalType":"bytes"}],"outputs":[],"stateMutability":"view"},{"type":"function","name":"validate_exactInput","inputs":[{"name":"callData","type":"bytes","internalType":"bytes"}],"outputs":[],"stateMutability":"view"},{"type":"function","name":"validate_exactOutput","inputs":[{"name":"callData","type":"bytes","internalType":"bytes"}],"outputs":[],"stateMutability":"view"},{"type":"function","name":"validate_flashSwapAllOut","inputs":[{"name":"callData","type":"bytes","internalType":"bytes"}],"outputs":[],"stateMutability":"view"},{"type":"function","name":"validate_flashSwapExactInt","inputs":[{"name":"callData","type":"bytes","internalType":"bytes"}],"outputs":[],"stateMutability":"view"},{"type":"function","name":"validate_flashSwapExactOut","inputs":[{"name":"callData","type":"bytes","internalType":"bytes"}],"outputs":[],"stateMutability":"view"},{"type":"function","name":"validate_lagoonSettle","inputs":[{"name":"vault","type":"address","internalType":"address"}],"outputs":[],"stateMutability":"view"},{"type":"function","name":"validate_swapExactTokensForTokens","inputs":[{"name":"callData","type":"bytes","internalType":"bytes"}],"outputs":[],"stateMutability":"view"},{"type":"function","name":"validate_transfer","inputs":[{"name":"callData","type":"bytes","internalType":"bytes"}],"outputs":[],"stateMutability":"view"},{"type":"function","name":"validate_transferERC20AllIn","inputs":[{"name":"callData","type":"bytes","internalType":"bytes"}],"outputs":[],"stateMutability":"view"},{"type":"function","name":"validate_transferERC20In","inputs":[{"name":"callData","type":"bytes","internalType":"bytes"}],"outputs":[],"stateMutability":"view"},{"type":"function","name":"whitelistAaveV3","inputs":[{"name":"lendingPool","type":"address","internalType":"address"},{"name":"notes","type":"string","internalType":"string"}],"outputs":[],"stateMutability":"nonpayable"},{"type":"function","name":"whitelistERC4626","inputs":[{"name":"vault","type":"address","internalType":"address"},{"name":"notes","type":"string","internalType":"string"}],"outputs":[],"stateMutability":"nonpayable"},{"type":"function","name":"whitelistLagoon","inputs":[{"name":"vault","type":"address","internalType":"address"},{"name":"notes","type":"string","internalType":"string"}],"outputs":[],"stateMutability":"nonpayable"},{"type":"function","name":"whitelistOnedelta","inputs":[{"name":"brokerProxy","type":"address","internalType":"address"},{"name":"lendingPool","type":"address","internalType":"address"},{"name":"notes","type":"string","internalType":"string"}],"outputs":[],"stateMutability":"nonpayable"},{"type":"function","name":"whitelistToken","inputs":[{"name":"token","type":"address","internalType":"address"},{"name":"notes","type":"string","internalType":"string"}],"outputs":[],"stateMutability":"nonpayable"},{"type":"function","name":"whitelistTokenForDelegation","inputs":[{"name":"token","type":"address","internalType":"address"},{"name":"notes","type":"string","internalType":"string"}],"outputs":[],"stateMutability":"nonpayable"},{"type":"function","name":"whitelistUniswapV2Router","inputs":[{"name":"router","type":"address","internalType":"address"},{"name":"notes","type":"string","internalType":"string"}],"outputs":[],"stateMutability":"nonpayable"},{"type":"function","name":"whitelistUniswapV3Router","inputs":[{"name":"router","type":"address","internalType":"address"},{"name":"notes","type":"string","internalType":"string"}],"outputs":[],"stateMutability":"nonpayable"},{"type":"event","name":"AnyAssetSet","inputs":[{"name":"value","type":"bool","indexed":false,"internalType":"bool"},{"name":"notes","type":"string","indexed":false,"internalType":"string"}],"anonymous":false},{"type":"event","name":"AnyVaultSet","inputs":[{"name":"value","type":"bool","indexed":false,"internalType":"bool"},{"name":"notes","type":"string","indexed":false,"internalType":"string"}],"anonymous":false},{"type":"event","name":"ApprovalDestinationApproved","inputs":[{"name":"sender","type":"address","indexed":false,"internalType":"address"},{"name":"notes","type":"string","indexed":false,"internalType":"string"}],"anonymous":false},{"type":"event","name":"ApprovalDestinationRemoved","inputs":[{"name":"sender","type":"address","indexed":false,"internalType":"address"},{"name":"notes","type":"string","indexed":false,"internalType":"string"}],"anonymous":false},{"type":"event","name":"AssetApproved","inputs":[{"name":"sender","type":"address","indexed":false,"internalType":"address"},{"name":"notes","type":"string","indexed":false,"internalType":"string"}],"anonymous":false},{"type":"event","name":"AssetRemoved","inputs":[{"name":"sender","type":"address","indexed":false,"internalType":"address"},{"name":"notes","type":"string","indexed":false,"internalType":"string"}],"anonymous":false},{"type":"event","name":"CallSiteApproved","inputs":[{"name":"target","type":"address","indexed":false,"internalType":"address"},{"name":"selector","type":"bytes4","indexed":false,"internalType":"bytes4"},{"name":"notes","type":"string","indexed":false,"internalType":"string"}],"anonymous":false},{"type":"event","name":"CallSiteRemoved","inputs":[{"name":"target","type":"address","indexed":false,"internalType":"address"},{"name":"selector","type":"bytes4","indexed":false,"internalType":"bytes4"},{"name":"notes","type":"string","indexed":false,"internalType":"string"}],"anonymous":false},{"type":"event","name":"DelegationApprovalDestinationApproved","inputs":[{"name":"sender","type":"address","indexed":false,"internalType":"address"},{"name":"notes","type":"string","indexed":false,"internalType":"string"}],"anonymous":false},{"type":"event","name":"DelegationApprovalDestinationRemoved","inputs":[{"name":"sender","type":"address","indexed":false,"internalType":"address"},{"name":"notes","type":"string","indexed":false,"internalType":"string"}],"anonymous":false},{"type":"event","name":"LagoonVaultApproved","inputs":[{"name":"vault","type":"address","indexed":false,"internalType":"address"},{"name":"notes","type":"string","indexed":false,"internalType":"string"}],"anonymous":false},{"type":"event","name":"OwnershipTransferred","inputs":[{"name":"previousOwner","type":"address","indexed":true,"internalType":"address"},{"name":"newOwner","type":"address","indexed":true,"internalType":"address"}],"anonymous":false},{"type":"event","name":"ReceiverApproved","inputs":[{"name":"sender","type":"address","indexed":false,"internalType":"address"},{"name":"notes","type":"string","indexed":false,"internalType":"string"}],"anonymous":false},{"type":"event","name":"ReceiverRemoved","inputs":[{"name":"sender","type":"address","indexed":false,"internalType":"address"},{"name":"notes","type":"string","indexed":false,"internalType":"string"}],"anonymous":false},{"type":"event","name":"SenderApproved","inputs":[{"name":"sender","type":"address","indexed":false,"internalType":"address"},{"name":"notes","type":"string","indexed":false,"internalType":"string"}],"anonymous":false},{"type":"event","name":"SenderRemoved","inputs":[{"name":"sender","type":"address","indexed":false,"internalType":"address"},{"name":"notes","type":"string","indexed":false,"internalType":"string"}],"anonymous":false},{"type":"event","name":"WithdrawDestinationApproved","inputs":[{"name":"sender","type":"address","indexed":false,"internalType":"address"},{"name":"notes","type":"string","indexed":false,"internalType":"string"}],"anonymous":false},{"type":"event","name":"WithdrawDestinationRemoved","inputs":[{"name":"sender","type":"address","indexed":false,"internalType":"address"},{"name":"notes","type":"string","indexed":false,"internalType":"string"}],"anonymous":false}],"bytecode":{"object":"0x608060405234801562000010575f80fd5b506200001c3362000022565b6200007b565b600a80546001600160a01b03838116610100818102610100600160a81b031985161790945560405193909204169182907f8be0079c531659141344cd1fd0a4f28419497f9722a3daafe3b4186f6b6457e0905f90a35050565b613f4380620000895f395ff3fe608060405234801561000f575f80fd5b506004361061040c575f3560e01c806386b6dbe511610221578063ca963c501161012a578063f20e85e0116100b4578063f76081e411610084578063f76081e414610a22578063f901dc3314610a35578063fa2c59c814610a48578063fadbcf4814610a5b578063fdedfa2714610a7d575f80fd5b8063f20e85e0146109e9578063f259a07314610410578063f26749f3146109fc578063f2fde38b14610a0f575f80fd5b8063e98539c5116100fa578063e98539c51461095e578063eb0de04214610971578063ebe2681614610993578063ee5462cc146109a6578063efb47bff146109b9575f80fd5b8063ca963c501461061c578063d075f9bb14610925578063d4c0fe4514610938578063d7334c9d1461094b575f80fd5b8063a67e1f54116101ab578063b8fe8d5f1161017b578063b8fe8d5f1461089a578063be8c97b0146108bc578063c2e657ae146108ec578063c4cc9dba146108ff578063c537bed014610912575f80fd5b8063a67e1f5414610833578063a847cf4d14610846578063a9fc3d4f14610870578063b3c329cb14610887575f80fd5b80638fb4dff2116101f15780638fb4dff2146107b6578063957dc6c0146107d857806398b3cc39146107eb578063a1b6b430146107fe578063a4c1cccb14610811575f80fd5b806386b6dbe51461076d57806387301608146107805780638c2fdf9e1461078d5780638da5cb5b146107a0575f80fd5b80635e4ccace11610323578063715018a6116102ad578063761bcd9c1161027d578063761bcd9c146106f0578063780650861461070357806378addb48146107165780637ea446551461074757806386a6ae151461075a575f80fd5b8063715018a61461069857806372e548a9146106a057806373252494146106b3578063742bfc7e146106dd575f80fd5b80636ad11353116102f35780636ad113531461061c5780636d5025f11461062f5780636d9a1423146106425780636fd7fdef14610655578063713ebf3b14610685575f80fd5b80635e4ccace146105d05780635e6afe4d146105e357806363cc17f2146105f65780636a6d5cc814610609575f80fd5b80632dc32a61116103a4578063425f49d011610374578063425f49d0146105625780634b941268146105755780634b956bd81461059757806359b92be9146105aa5780635ace1d92146105bd575f80fd5b80632dc32a61146104ea57806334ec8d7e1461051a5780633cf200251461052d5780633ea355511461054f575f80fd5b80631c123e77116103df5780631c123e77146104825780631d49039c146104955780632c02cda0146104c55780632d12d788146104d7575f80fd5b806304a3ba251461041057806307ac35621461042557806307ef00cf146104385780631710a4f21461046f575b5f80fd5b61042361041e36600461337f565b610a8c565b005b61042361043336600461348b565b610b25565b61045a6104463660046134c4565b60066020525f908152604090205460ff1681565b60405190151581526020015b60405180910390f35b61042361047d36600461348b565b610e5b565b61042361049036600461348b565b610f0b565b61045a6104a33660046134c4565b6001600160a01b03165f9081526007602052604090205460ff16151560011490565b6104236104d33660046134e6565b5050565b6104236104e536600461337f565b610f84565b61045a6104f83660046134c4565b6001600160a01b03165f9081526008602052604090205460ff16151560011490565b61042361052836600461337f565b611007565b61045a61053b3660046134c4565b60056020525f908152604090205460ff1681565b61042361055d36600461337f565b611082565b61042361057036600461348b565b6110ad565b61045a6105833660046134c4565b60086020525f908152604090205460ff1681565b6104236105a536600461348b565b6110ce565b6104236105b836600461348b565b611171565b6104236105cb36600461337f565b6111f2565b6104236105de36600461354e565b611278565b6104236105f136600461337f565b611349565b61042361060436600461337f565b61146e565b61042361061736600461348b565b6114f4565b61042361062a36600461348b565b61159b565b61042361063d3660046135ac565b6115bd565b61042361065036600461337f565b6115cf565b61045a6106633660046134c4565b6001600160a01b03165f9081526009602052604090205460ff16151560011490565b61045a6106933660046135da565b611605565b61042361163a565b6104236106ae36600461337f565b61164d565b600a5461010090046001600160a01b03165b6040516001600160a01b039091168152602001610466565b6104236106eb36600461348b565b6116d3565b6104236106fe36600461348b565b611771565b61042361071136600461348b565b61187a565b61045a6107243660046134c4565b6001600160a01b03165f9081526001602081905260409091205460ff1615151490565b61042361075536600461348b565b61191c565b61042361076836600461337f565b611958565b61042361077b36600461337f565b611ad0565b600a5461045a9060ff1681565b61042361079b36600461337f565b611b56565b600a5461010090046001600160a01b03166106c5565b61045a6107c43660046134c4565b60096020525f908152604090205460ff1681565b6104236107e636600461348b565b611bd9565b6104236107f936600461337f565b611c97565b61042361080c36600461348b565b611d1d565b61045a61081f3660046134c4565b60036020525f908152604090205460ff1681565b61042361084136600461337f565b611e63565b61045a6108543660046135da565b5f60208181529281526040808220909352908152205460ff1681565b61087960025481565b604051908152602001610466565b6104236108953660046134c4565b611ee6565b61045a6108a83660046134c4565b60016020525f908152604090205460ff1681565b61045a6108ca3660046134c4565b6001600160a01b03165f9081526004602052604090205460ff16151560011490565b6104236108fa36600461360d565b611f4f565b61042361090d36600461348b565b611fc1565b61045a6109203660046134c4565b61207b565b61045a6109333660046134c4565b6120ac565b61042361094636600461348b565b6120ce565b61042361095936600461354e565b61210d565b61042361096c36600461348b565b6121a5565b61045a61097f3660046134c4565b60076020525f908152604090205460ff1681565b6104236109a136600461348b565b612246565b6104236109b436600461337f565b6122dc565b61045a6109c73660046134c4565b6001600160a01b03165f9081526006602052604090205460ff16151560011490565b6104236109f736600461337f565b6122e7565b610423610a0a3660046135ac565b61233d565b610423610a1d3660046134c4565b6123b2565b610423610a3036600461348b565b612428565b610423610a4336600461337f565b6124a3565b610423610a5636600461337f565b612526565b61045a610a693660046134c4565b60046020525f908152604090205460ff1681565b60405160018152602001610466565b600a546001600160a01b03610100909104163314610ac55760405162461bcd60e51b8152600401610abc9061362e565b60405180910390fd5b6001600160a01b0383165f9081526007602052604090819020805460ff19169055517fb71be9befd3ac90c1c9981d3b1161b3c2c6dcd741f13b34061aa251226a802df90610b189085908590859061368b565b60405180910390a1505050565b5f81806020019051810190610b3a919061373e565b90505f5b8151811015610e56575f828281518110610b5a57610b5a6137e7565b602002602001015190505f610b7b5f6004846125ac9092919063ffffffff16565b610b84906137fb565b90505f610ba16004808551610b999190613846565b8591906125ac565b6040805180820190915260208082527f7472616e736665724552433230496e28616464726573732c75696e74323536299101529050631dac092b60e11b6001600160e01b0319831601610bfc57610bf781611171565b610e4b565b60408051808201909152601b81527f7472616e736665724552433230416c6c496e2861646472657373290000000000602090910152635cf59cb760e11b6001600160e01b0319831601610c5257610bf78161191c565b60408051808201909152601881527f6465706f73697428616464726573732c6164647265737329000000000000000060209091015262d3ec1f60e31b6001600160e01b0319831601610ca757610bf781611fc1565b60408051808201909152601981527f776974686472617728616464726573732c6164647265737329000000000000006020909101526306bf1c7b60e01b6001600160e01b0319831601610cfd57610bf781612428565b610d24604051806060016040528060278152602001613eb360279139805160209091012090565b6001600160e01b031916826001600160e01b03191603610d4757610bf78161159b565b610d6e604051806060016040528060288152602001613e8b60289139805160209091012090565b6001600160e01b031916826001600160e01b03191603610d9157610bf78161159b565b60408051808201909152601e81527f666c61736853776170416c6c4f75742875696e743235362c627974657329000060209091015263d2b3d16560e01b6001600160e01b0319831601610de757610bf7816110ad565b60405162461bcd60e51b815260206004820152603360248201527f76616c69646174655f3164656c74614d756c746963616c6c3a20556e6b6e6f776044820152723710333ab731ba34b7b71039b2b632b1ba37b960691b6064820152608401610abc565b505050600101610b3e565b505050565b5f81806020019051810190610e709190613864565b509050610e99816001600160a01b03165f9081526006602052604090205460ff16151560011490565b6104d35760405162461bcd60e51b815260206004820152603c60248201527f76616c69646174655f7472616e736665723a205265636569766572206164647260448201527f657373206e6f742077686974656c6973746564206279204775617264000000006064820152608401610abc565b5f805b610f1783612702565b5092509050610f258261207b565b610f415760405162461bcd60e51b8152600401610abc90613890565b610f4a8161207b565b610f665760405162461bcd60e51b8152600401610abc90613890565b610f6f8361273d565b15610e5657610f7d83612776565b9250610f0e565b600a546001600160a01b03610100909104163314610fb45760405162461bcd60e51b8152600401610abc9061362e565b6001600160a01b0383165f9081526005602052604090819020805460ff19169055517f4e13b11ab98e672bd78295ef9cebe764dc617f95decf47d842c25b83abc0c72490610b189085908590859061368b565b61103983611032604051806060016040528060338152602001613e5860339139805160209091012090565b8484611278565b61106483611032604051806060016040528060348152602001613eda60349139805160209091012090565b6110778363b858183f60e01b8484611278565b610e56838383611c97565b61107783611032604051806080016040528060438152602001613d8b60439139805160209091012090565b5f818060200190518101906110c291906138d8565b9150506104d381611d1d565b5f818060200190518101906110e39190613864565b50905061110c816001600160a01b03165f9081526007602052604090205460ff16151560011490565b6104d35760405162461bcd60e51b815260206004820152603060248201527f76616c69646174655f617070726f76653a20417070726f76652061646472657360448201526f0e640c8decae640dcdee840dac2e8c6d60831b6064820152608401610abc565b5f818060200190518101906111869190613864565b5090506111928161207b565b6104d35760405162461bcd60e51b815260206004820152602b60248201527f76616c69646174655f7472616e736665724552433230496e3a20546f6b656e2060448201526a1b9bdd08185b1b1bddd95960aa1b6064820152608401610abc565b600a546001600160a01b036101009091041633146112225760405162461bcd60e51b8152600401610abc9061362e565b6001600160a01b0383165f9081526006602052604090819020805460ff19166001179055517f3562181221a42a19ddd03a82dfe06acab1905ceb65cdaf7d86a1d9fec664355290610b189085908590859061368b565b600a546001600160a01b036101009091041633146112a85760405162461bcd60e51b8152600401610abc9061362e565b6001600160a01b0384165f818152602081815260408083206001600160e01b03198816845282528083208054600160ff199182168117909255948452918290528220805490931617909155600280549161130183613911565b91905055507fef729aaa41b9fd994f9ff7c1960df214a84f722002e6cfbea31799cd0873a3ef8484848460405161133b9493929190613929565b60405180910390a150505050565b600a546001600160a01b036101009091041633146113795760405162461bcd60e51b8152600401610abc9061362e565b6001600160a01b0383165f90815260096020908152604091829020805460ff191660011790558151808301909252600f82526e736574746c654465706f736974282960881b9101526113eb837f559ec80da0b29925dac0e329ba0aaf8bbf2760bcaf9174e4ca42e01d74c0e6d0611032565b60408051808201909152600e81526d736574746c6552656465656d282960901b60209091015261143b837fa03d55e3f74b6754c01f274bb12d9c8a11ea8330b6b4ce7125c8dff1f63646ca611032565b7ffaa136302ac223cf7c1146490a741e4520e886fc22d7e759641453f432283d01838383604051610b189392919061368b565b600a546001600160a01b0361010090910416331461149e5760405162461bcd60e51b8152600401610abc9061362e565b6001600160a01b0383165f9081526008602052604090819020805460ff19166001179055517f628a44970c0e450415e3ae74334ea44f3307b74dbf677a1371190242bf2f358990610b189085908590859061368b565b5f808280602001905181019061150a9190613967565b92505091506115188261207b565b6115345760405162461bcd60e51b8152600401610abc906139a7565b61153d816120ac565b610e565760405162461bcd60e51b815260206004820152602960248201527f52656365697665722061646472657373206e6f742077686974656c697374656460448201526808189e4811dd585c9960ba1b6064820152608401610abc565b5f818060200190518101906115b091906139d2565b925050506104d381611d1d565b6115c9848484846127a7565b50505050565b6115fa83611032604051806060016040528060228152602001613e3660229139805160209091012090565b610e56838383611ad0565b6001600160a01b0382165f908152602081815260408083206001600160e01b03198516845290915290205460ff165b92915050565b61164261308c565b61164b5f6130bc565b565b600a546001600160a01b0361010090910416331461167d5760405162461bcd60e51b8152600401610abc9061362e565b6001600160a01b0383165f9081526005602052604090819020805460ff19166001179055517f62dd88c5ecfa60713a657640ebec4de26fc1aefa4afdb24e6d15a124fce7277990610b189085908590859061368b565b5f818060200190518101906116e89190613a1d565b509150506116f5816120ac565b6104d35760405162461bcd60e51b815260206004820152604160248201527f76616c69646174655f4552433436323652656465656d3a20526563656976657260448201527f2061646472657373206e6f742077686974656c697374656420627920477561726064820152601960fa1b608482015260a401610abc565b5f80828060200190518101906117879190613a52565b50935093505050611797816120ac565b61181e5760405162461bcd60e51b815260206004820152604c60248201527f76616c69646174655f737761704578616374546f6b656e73466f72546f6b656e60448201527f733a2052656365697665722061646472657373206e6f742077686974656c697360648201526b1d195908189e4811dd585c9960a21b608482015260a401610abc565b5f805b83518110156118735783818151811061183c5761183c6137e7565b6020026020010151915061184f8261207b565b61186b5760405162461bcd60e51b8152600401610abc906139a7565b600101611821565b5050505050565b5f8180602001905181019061188f9190613a1d565b5091505061189c816120ac565b6104d35760405162461bcd60e51b815260206004820152604560248201527f76616c69646174655f455243343632365769746864726177616c3a205265636560448201527f697665722061646472657373206e6f742077686974656c69737465642062792060648201526411dd585c9960da1b608482015260a401610abc565b5f818060200190518101906119319190613b14565b905061193c8161207b565b6104d35760405162461bcd60e51b8152600401610abc90613b2f565b5f8390505f816001600160a01b03166338d52e0f6040518163ffffffff1660e01b8152600401602060405180830381865afa158015611999573d5f803e3d5ffd5b505050506040513d601f19601f820116820180604052508101906119bd9190613b14565b6040805180820190915260188152776465706f7369742875696e743235362c616464726573732960401b602090910152905084611a1d817f6e553f653991036c188afcef45e14f9ecb45269ff9c675358bbb3a2eeb78e03b5b8787611278565b611a4886611a16604051806060016040528060218152602001613e1560219139805160209091012090565b60408051808201909152601f81527f72656465656d2875696e743235362c616464726573732c616464726573732900602090910152611aa7867fba087652ef750b77b3f3b86ecd8aac56de04fbc0d6751abdd0992cabce379054611a16565b611ab2868686611c97565b611abd818686613115565b611ac8828686613115565b505050505050565b600a546001600160a01b03610100909104163314611b005760405162461bcd60e51b8152600401610abc9061362e565b6001600160a01b0383165f9081526003602052604090819020805460ff19166001179055517fad90e2570fc4fe9f7437be3188d5c791c6662892d31731992aa88f5c8762198390610b189085908590859061368b565b600a546001600160a01b03610100909104163314611b865760405162461bcd60e51b8152600401610abc9061362e565b6001600160a01b0383165f9081526006602052604090819020805460ff19169055517f1212f8ddb39de8e1a339460c95752d61100723efeaa34ccd94bca94393f4093890610b189085908590859061368b565b5f81806020019051810190611bee9190613864565b509050611c17816001600160a01b03165f9081526008602052604090205460ff16151560011490565b6104d35760405162461bcd60e51b815260206004820152604560248201527f76616c69646174655f617070726f766544656c65676174696f6e3a204170707260448201527f6f76652064656c65676174696f6e206164647265737320646f6573206e6f74206064820152640dac2e8c6d60db1b608482015260a401610abc565b600a546001600160a01b03610100909104163314611cc75760405162461bcd60e51b8152600401610abc9061362e565b6001600160a01b0383165f9081526007602052604090819020805460ff19166001179055517f628a44970c0e450415e3ae74334ea44f3307b74dbf677a1371190242bf2f358990610b189085908590859061368b565b5f805b611d2a835f6131ca565b9150611d59600180611d3e60036014613b7d565b611d489190613b7d565b611d529190613b7d565b84906131ca565b9050611d648261207b565b611d805760405162461bcd60e51b8152600401610abc90613b90565b611d898161207b565b611da55760405162461bcd60e51b8152600401610abc90613b90565b600180611db460036014613b7d565b611dbe9190613b7d565b611dc89190613b7d565b6014600180611dd8600384613b7d565b611de29190613b7d565b611dec9190613b7d565b611df69190613b7d565b611e009190613b7d565b835110610e5657611e5c600180611e1960036014613b7d565b611e239190613b7d565b611e2d9190613b7d565b600180611e3c60036014613b7d565b611e469190613b7d565b611e509190613b7d565b8551610b999190613846565b9250611d20565b600a546001600160a01b03610100909104163314611e935760405162461bcd60e51b8152600401610abc9061362e565b6001600160a01b0383165f9081526004602052604090819020805460ff19169055517f3097928509c53a2dab9500431201d82b0d756e8f890fd01f4ae6b33b45687ea490610b189085908590859061368b565b611f0c816001600160a01b03165f9081526009602052604090205460ff16151560011490565b611f4c5760405162461bcd60e51b815260206004820152601160248201527015985d5b1d081b9bdd08185b1b1bddd959607a1b6044820152606401610abc565b50565b600a546001600160a01b03610100909104163314611f7f5760405162461bcd60e51b8152600401610abc9061362e565b600a805460ff19168415151790556040517f50454d9d0025a28a39cac5a4b3f3101d29b6e413fbb64f75fb42eb6837b0771890610b1890859085908590613bd5565b5f8082806020019051810190611fd79190613bf0565b91509150611fe48261207b565b6120005760405162461bcd60e51b8152600401610abc90613b2f565b612009816120ac565b610e565760405162461bcd60e51b815260206004820152603b60248201527f76616c69646174655f6465706f7369743a20526563656976657220616464726560448201527f7373206e6f742077686974656c697374656420627920477561726400000000006064820152608401610abc565b600a545f9060ff16806116345750506001600160a01b03165f9081526003602052604090205460ff16151560011490565b6001600160a01b03165f9081526005602052604090205460ff16151560011490565b5f818060200190518101906120e39190613c28565b50505090506120f18161207b565b6104d35760405162461bcd60e51b8152600401610abc906139a7565b600a546001600160a01b0361010090910416331461213d5760405162461bcd60e51b8152600401610abc9061362e565b6001600160a01b0384165f908152602081815260408083206001600160e01b03198716845290915290819020805460ff19169055517f37ea10f2d08f5a9803dfcd5abf3cfc7b0d6fcdf5fcbc36be9ea5a0b53d9a4d9b9061133b908690869086908690613929565b5f818060200190518101906121ba9190613d02565b90506121c981602001516120ac565b61223b5760405162461bcd60e51b815260206004820152603f60248201527f76616c69646174655f65786163744f75747075743a205265636569766572206160448201527f646472657373206e6f742077686974656c6973746564206279204775617264006064820152608401610abc565b80516104d390610f0b565b5f8180602001905181019061225b9190613d02565b905061226a81602001516120ac565b61223b5760405162461bcd60e51b815260206004820152603e60248201527f76616c69646174655f6578616374496e7075743a20526563656976657220616460448201527f6472657373206e6f742077686974656c697374656420627920477561726400006064820152608401610abc565b610e56838383613115565b61231283611032604051806060016040528060268152602001613dce60269139805160209091012090565b61107783611032604051806060016040528060218152602001613df460219139805160209091012090565b6040805180820190915260128152716d756c746963616c6c2862797465735b5d2960701b602090910152612391847fac9650d882acfa253cba1ed543b9ff47351da99c3bd00a89625e5cdb2099009c611032565b61239c848383611c97565b6123a7838383611c97565b6115c984838361146e565b6123ba61308c565b6001600160a01b03811661241f5760405162461bcd60e51b815260206004820152602660248201527f4f776e61626c653a206e6577206f776e657220697320746865207a65726f206160448201526564647265737360d01b6064820152608401610abc565b611f4c816130bc565b5f808280602001905181019061243e9190613bf0565b9150915061244b8261207b565b6120005760405162461bcd60e51b8152602060048201526024808201527f76616c69646174655f77697468647261773a20546f6b656e206e6f7420616c6c6044820152631bddd95960e21b6064820152608401610abc565b600a546001600160a01b036101009091041633146124d35760405162461bcd60e51b8152600401610abc9061362e565b6001600160a01b0383165f9081526003602052604090819020805460ff19169055517f9ca3f065622f5f03f32b7157677a0e420c3a36ab45fd49f256ffebce3e31058790610b189085908590859061368b565b600a546001600160a01b036101009091041633146125565760405162461bcd60e51b8152600401610abc9061362e565b6001600160a01b0383165f9081526004602052604090819020805460ff19166001179055517fa8f9caaf4861720900294428e4ff34d37070c37afd26d96e6e4da75326d2c3ad90610b189085908590859061368b565b6060816125ba81601f613b7d565b10156125f95760405162461bcd60e51b815260206004820152600e60248201526d736c6963655f6f766572666c6f7760901b6044820152606401610abc565b826126048382613b7d565b10156126435760405162461bcd60e51b815260206004820152600e60248201526d736c6963655f6f766572666c6f7760901b6044820152606401610abc565b61264d8284613b7d565b845110156126915760405162461bcd60e51b8152602060048201526011602482015270736c6963655f6f75744f66426f756e647360781b6044820152606401610abc565b6060821580156126af5760405191505f8252602082016040526126f9565b6040519150601f8416801560200281840101858101878315602002848b0101015b818310156126e85780518352602092830192016126d0565b5050858452601f01601f1916604052505b50949350505050565b5f808061270f84826131ca565b925061271c84601461327d565b905061273461272d60036014613b7d565b85906131ca565b91509193909250565b5f61274a60036014613b7d565b6014612757600382613b7d565b6127619190613b7d565b61276b9190613b7d565b825110159050919050565b606061163461278760036014613b7d565b61279360036014613b7d565b845161279f9190613846565b8491906125ac565b600a546001600160a01b0385811661010090920416146115c9576127e7846001600160a01b03165f9081526004602052604090205460ff16151560011490565b6128335760405162461bcd60e51b815260206004820181905260248201527f76616c696461746543616c6c3a2053656e646572206e6f7420616c6c6f7765646044820152606401610abc565b5f6128416004828486613d33565b61284a91613d5a565b9050365f61285b8460048188613d33565b600a5491935091505f9060ff1680156128b45750604080518082019091526018815277617070726f766528616464726573732c75696e743235362960401b60209091015263095ea7b360e01b6001600160e01b03198516145b9050806129a5576128c58785611605565b6129a5576001600160a01b0387165f9081526001602081905260409091205460ff161515146129365760405162461bcd60e51b815260206004820181905260248201527f76616c696461746543616c6c3a20746172676574206e6f7420616c6c6f7765646044820152606401610abc565b6129408785611605565b6129a55760405162461bcd60e51b815260206004820152603060248201527f76616c696461746543616c6c3a2073656c6563746f72206e6f7420616c6c6f7760448201526f1959081bdb881d1a19481d185c99d95d60821b6064820152608401610abc565b6129cc604051806080016040528060438152602001613d8b60439139805160209091012090565b6001600160e01b031916846001600160e01b03191603612a2957612a2483838080601f0160208091040260200160405190810160405280939291908181526020018383808284375f9201919091525061177192505050565b613082565b612a50604051806060016040528060338152602001613e5860339139805160209091012090565b6001600160e01b031916846001600160e01b03191603612aa857612a2483838080601f0160208091040260200160405190810160405280939291908181526020018383808284375f9201919091525061224692505050565b6001600160e01b0319841663b858183f60e01b03612b4f57600a5460ff16612a245760405162461bcd60e51b815260206004820152604e60248201527f76616c696461746543616c6c3a2053776170526f75746572303220697320637560448201527f7272656e746c7920737570706f72746564206f6e6c79207769746820616e794160648201526d1cdcd95d081dda1a5d195b1a5cdd60921b608482015260a401610abc565b6040805180820190915260128152716d756c746963616c6c2862797465735b5d2960701b602090910152630a6d35e560e31b6001600160e01b0319851601612bcf57612a2483838080601f0160208091040260200160405190810160405280939291908181526020018383808284375f92019190915250610b2592505050565b6040805180820190915260198152787472616e7366657228616464726573732c75696e743235362960381b6020909101526356fa634560e01b6001600160e01b0319851601612c5657612a2483838080601f0160208091040260200160405190810160405280939291908181526020018383808284375f92019190915250610e5b92505050565b604080518082019091526018815277617070726f766528616464726573732c75696e743235362960401b60209091015263f6a1584d60e01b6001600160e01b0319851601612cdc57612a2483838080601f0160208091040260200160405190810160405280939291908181526020018383808284375f920191909152506110ce92505050565b612d03604051806060016040528060228152602001613e3660229139805160209091012090565b6001600160e01b031916846001600160e01b03191603612d5b57612a2483838080601f0160208091040260200160405190810160405280939291908181526020018383808284375f92019190915250611bd992505050565b612d82604051806060016040528060268152602001613dce60269139805160209091012090565b6001600160e01b031916846001600160e01b03191603612dda57612a2483838080601f0160208091040260200160405190810160405280939291908181526020018383808284375f920191909152506120ce92505050565b612e01604051806060016040528060218152602001613df460219139805160209091012090565b6001600160e01b031916846001600160e01b03191603612e5957612a2483838080601f0160208091040260200160405190810160405280939291908181526020018383808284375f920191909152506114f492505050565b60408051808201909152600f81526e736574746c654465706f736974282960881b60209091015263aa6137f360e01b6001600160e01b0319851601612ea157612a2487611ee6565b60408051808201909152600e81526d736574746c6552656465656d282960901b602090910152635fc2aa1d60e01b6001600160e01b0319851601612ee857612a2487611ee6565b6040805180820190915260188152776465706f7369742875696e743235362c616464726573732960401b602090910152636e553f6560e01b6001600160e01b031985161461308257612f57604051806060016040528060218152602001613e1560219139805160209091012090565b6001600160e01b031916846001600160e01b03191603612faf57612a2483838080601f0160208091040260200160405190810160405280939291908181526020018383808284375f9201919091525061187a92505050565b60408051808201909152601f81527f72656465656d2875696e743235362c616464726573732c6164647265737329006020909101526322fbc4d760e11b6001600160e01b031985160161303a57612a2483838080601f0160208091040260200160405190810160405280939291908181526020018383808284375f920191909152506116d392505050565b60405162461bcd60e51b815260206004820152601960248201527f556e6b6e6f776e2066756e6374696f6e2073656c6563746f72000000000000006044820152606401610abc565b5050505050505050565b600a546001600160a01b0361010090910416331461164b5760405162461bcd60e51b8152600401610abc9061362e565b600a80546001600160a01b03838116610100818102610100600160a81b031985161790945560405193909204169182907f8be0079c531659141344cd1fd0a4f28419497f9722a3daafe3b4186f6b6457e0905f90a35050565b6040805180820190915260198152787472616e7366657228616464726573732c75696e743235362960381b602090910152613170837fa9059cbb2ab09eb219583f4a59a5d0623ade346d962bcd4e46b11da047c9049b611032565b604080518082019091526018815277617070726f766528616464726573732c75696e743235362960401b6020909101526115fa837f095ea7b334ae44009aa867bfb386f5c3b4b443ac6f0ee573fa91c4608fbadfba611032565b5f816131d7816014613b7d565b101561321a5760405162461bcd60e51b8152602060048201526012602482015271746f416464726573735f6f766572666c6f7760701b6044820152606401610abc565b613225826014613b7d565b8351101561326d5760405162461bcd60e51b8152602060048201526015602482015274746f416464726573735f6f75744f66426f756e647360581b6044820152606401610abc565b500160200151600160601b900490565b5f8161328a816003613b7d565b10156132cc5760405162461bcd60e51b8152602060048201526011602482015270746f55696e7432345f6f766572666c6f7760781b6044820152606401610abc565b6132d7826003613b7d565b8351101561331e5760405162461bcd60e51b8152602060048201526014602482015273746f55696e7432345f6f75744f66426f756e647360601b6044820152606401610abc565b50016003015190565b6001600160a01b0381168114611f4c575f80fd5b5f8083601f84011261334b575f80fd5b5081356001600160401b03811115613361575f80fd5b602083019150836020828501011115613378575f80fd5b9250929050565b5f805f60408486031215613391575f80fd5b833561339c81613327565b925060208401356001600160401b038111156133b6575f80fd5b6133c28682870161333b565b9497909650939450505050565b634e487b7160e01b5f52604160045260245ffd5b604051601f8201601f191681016001600160401b038111828210171561340b5761340b6133cf565b604052919050565b5f6001600160401b0382111561342b5761342b6133cf565b50601f01601f191660200190565b5f82601f830112613448575f80fd5b813561345b61345682613413565b6133e3565b81815284602083860101111561346f575f80fd5b816020850160208301375f918101602001919091529392505050565b5f6020828403121561349b575f80fd5b81356001600160401b038111156134b0575f80fd5b6134bc84828501613439565b949350505050565b5f602082840312156134d4575f80fd5b81356134df81613327565b9392505050565b5f80604083850312156134f7575f80fd5b823561350281613327565b915060208301356001600160401b0381111561351c575f80fd5b61352885828601613439565b9150509250929050565b80356001600160e01b031981168114613549575f80fd5b919050565b5f805f8060608587031215613561575f80fd5b843561356c81613327565b935061357a60208601613532565b925060408501356001600160401b03811115613594575f80fd5b6135a08782880161333b565b95989497509550505050565b5f805f80606085870312156135bf575f80fd5b84356135ca81613327565b9350602085013561357a81613327565b5f80604083850312156135eb575f80fd5b82356135f681613327565b915061360460208401613532565b90509250929050565b5f805f6040848603121561361f575f80fd5b8335801515811461339c575f80fd5b6020808252818101527f4f776e61626c653a2063616c6c6572206973206e6f7420746865206f776e6572604082015260600190565b81835281816020850137505f828201602090810191909152601f909101601f19169091010190565b6001600160a01b03841681526040602082018190525f906136af9083018486613663565b95945050505050565b5f6001600160401b038211156136d0576136d06133cf565b5060051b60200190565b5f82601f8301126136e9575f80fd5b81516136f761345682613413565b818152602085602084870101111561370d575f80fd5b5f5b8381101561372a57858101820151838201830152810161370f565b50505f918101602001919091529392505050565b5f602080838503121561374f575f80fd5b82516001600160401b0380821115613765575f80fd5b818501915085601f830112613778575f80fd5b8151613786613456826136b8565b81815260059190911b830184019084810190888311156137a4575f80fd5b8585015b838110156137da578051858111156137be575f80fd5b6137cc8b89838a01016136da565b8452509186019186016137a8565b5098975050505050505050565b634e487b7160e01b5f52603260045260245ffd5b805160208201516001600160e01b0319808216929190600483101561382a5780818460040360031b1b83161693505b505050919050565b634e487b7160e01b5f52601160045260245ffd5b8181038181111561163457611634613832565b805161354981613327565b5f8060408385031215613875575f80fd5b825161388081613327565b6020939093015192949293505050565b60208082526028908201527f76616c6964617465556e69737761705633506174683a20546f6b656e206e6f7460408201526708185b1b1bddd95960c21b606082015260800190565b5f80604083850312156138e9575f80fd5b8251915060208301516001600160401b03811115613905575f80fd5b613528858286016136da565b5f6001820161392257613922613832565b5060010190565b6001600160a01b03851681526001600160e01b0319841660208201526060604082018190525f9061395d9083018486613663565b9695505050505050565b5f805f60608486031215613979575f80fd5b835161398481613327565b60208501516040860151919450925061399c81613327565b809150509250925092565b602080825260119082015270151bdad95b881b9bdd08185b1b1bddd959607a1b604082015260600190565b5f805f606084860312156139e4575f80fd5b835192506020840151915060408401516001600160401b03811115613a07575f80fd5b613a13868287016136da565b9150509250925092565b5f805f60608486031215613a2f575f80fd5b835192506020840151613a4181613327565b604085015190925061399c81613327565b5f805f805f60a08688031215613a66575f80fd5b85519450602080870151945060408701516001600160401b03811115613a8a575f80fd5b8701601f81018913613a9a575f80fd5b8051613aa8613456826136b8565b81815260059190911b8201830190838101908b831115613ac6575f80fd5b928401925b82841015613aed578351613ade81613327565b82529284019290840190613acb565b8097505050505050613b0160608701613859565b9150608086015190509295509295909350565b5f60208284031215613b24575f80fd5b81516134df81613327565b6020808252602e908201527f76616c69646174655f7472616e736665724552433230416c6c496e3a20546f6b60408201526d195b881b9bdd08185b1b1bddd95960921b606082015260800190565b8082018082111561163457611634613832565b60208082526025908201527f76616c69646174653164656c7461506174683a20546f6b656e206e6f7420616c6040820152641b1bddd95960da1b606082015260800190565b8315158152604060208201525f6136af604083018486613663565b5f8060408385031215613c01575f80fd5b8251613c0c81613327565b6020840151909250613c1d81613327565b809150509250929050565b5f805f8060808587031215613c3b575f80fd5b8451613c4681613327565b602086015160408701519195509350613c5e81613327565b6060959095015193969295505050565b5f60a08284031215613c7e575f80fd5b60405160a081016001600160401b038282108183111715613ca157613ca16133cf565b816040528293508451915080821115613cb8575f80fd5b50613cc5858286016136da565b8252506020830151613cd681613327565b806020830152506040830151604082015260608301516060820152608083015160808201525092915050565b5f60208284031215613d12575f80fd5b81516001600160401b03811115613d27575f80fd5b6134bc84828501613c6e565b5f8085851115613d41575f80fd5b83861115613d4d575f80fd5b5050820193919092039150565b6001600160e01b03198135818116916004851015613d825780818660040360031b1b83161692505b50509291505056fe737761704578616374546f6b656e73466f72546f6b656e732875696e743235362c75696e743235362c616464726573735b5d2c616464726573732c75696e7432353629737570706c7928616464726573732c75696e743235362c616464726573732c75696e74313629776974686472617728616464726573732c75696e743235362c616464726573732977697468647261772875696e743235362c616464726573732c6164647265737329617070726f766544656c65676174696f6e28616464726573732c75696e74323536296578616374496e707574282862797465732c616464726573732c75696e743235362c75696e743235362c75696e743235362929666c6173685377617045786163744f75742875696e743235362c75696e743235362c627974657329666c617368537761704578616374496e2875696e743235362c75696e743235362c62797465732965786163744f7574707574282862797465732c616464726573732c75696e743235362c75696e743235362c75696e743235362929a264697066735822122081d33b2cacfe0dc5ef795dee329be979493f93ef327c605edd5d3dafef123d3d64736f6c63430008170033","linkReferences":{}},"methodIdentifiers":{"allowApprovalDestination(address,string)":"98b3cc39","allowAsset(address,string)":"86b6dbe5","allowCallSite(address,bytes4,string)":"5e4ccace","allowDelegationApprovalDestination(address,string)":"63cc17f2","allowReceiver(address,string)":"72e548a9","allowSender(address,string)":"fa2c59c8","allowWithdrawDestination(address,string)":"5ace1d92","allowedApprovalDestinations(address)":"eb0de042","allowedAssets(address)":"a4c1cccb","allowedCallSites(address,bytes4)":"a847cf4d","allowedDelegationApprovalDestinations(address)":"4b941268","allowedLagoonVaults(address)":"8fb4dff2","allowedReceivers(address)":"3cf20025","allowedSenders(address)":"fadbcf48","allowedTargets(address)":"b8fe8d5f","allowedWithdrawDestinations(address)":"07ef00cf","anyAsset()":"87301608","callSiteCount()":"a9fc3d4f","getGovernanceAddress()":"73252494","getInternalVersion()":"fdedfa27","isAllowedApprovalDestination(address)":"1d49039c","isAllowedAsset(address)":"c537bed0","isAllowedCallSite(address,bytes4)":"713ebf3b","isAllowedDelegationApprovalDestination(address)":"2dc32a61","isAllowedLagoonVault(address)":"6fd7fdef","isAllowedReceiver(address)":"d075f9bb","isAllowedSender(address)":"be8c97b0","isAllowedTarget(address)":"78addb48","isAllowedWithdrawDestination(address)":"efb47bff","owner()":"8da5cb5b","removeApprovalDestination(address,string)":"04a3ba25","removeAsset(address,string)":"f901dc33","removeCallSite(address,bytes4,string)":"d7334c9d","removeDelegationApprovalDestination(address,string)":"f259a073","removeReceiver(address,string)":"2d12d788","removeSender(address,string)":"a67e1f54","removeWithdrawDestination(address,string)":"8c2fdf9e","renounceOwnership()":"715018a6","setAnyAssetAllowed(bool,string)":"c2e657ae","transferOwnership(address)":"f2fde38b","validate1deltaPath(bytes)":"a1b6b430","validateCall(address,address,bytes)":"6d5025f1","validateUniswapV3Path(bytes)":"1c123e77","validate_1deltaDeposit(bytes)":"c4cc9dba","validate_1deltaMulticall(bytes)":"07ac3562","validate_1deltaWithdraw(bytes)":"f76081e4","validate_ERC4626Deposit(address,bytes)":"2c02cda0","validate_ERC4626Redeem(bytes)":"742bfc7e","validate_ERC4626Withdraw(bytes)":"78065086","validate_aaveSupply(bytes)":"d4c0fe45","validate_aaveWithdraw(bytes)":"6a6d5cc8","validate_approve(bytes)":"4b956bd8","validate_approveDelegation(bytes)":"957dc6c0","validate_exactInput(bytes)":"ebe26816","validate_exactOutput(bytes)":"e98539c5","validate_flashSwapAllOut(bytes)":"425f49d0","validate_flashSwapExactInt(bytes)":"ca963c50","validate_flashSwapExactOut(bytes)":"6ad11353","validate_lagoonSettle(address)":"b3c329cb","validate_swapExactTokensForTokens(bytes)":"761bcd9c","validate_transfer(bytes)":"1710a4f2","validate_transferERC20AllIn(bytes)":"7ea44655","validate_transferERC20In(bytes)":"59b92be9","whitelistAaveV3(address,string)":"f20e85e0","whitelistERC4626(address,string)":"86a6ae15","whitelistLagoon(address,string)":"5e6afe4d","whitelistOnedelta(address,address,string)":"f26749f3","whitelistToken(address,string)":"ee5462cc","whitelistTokenForDelegation(address,string)":"6d9a1423","whitelistUniswapV2Router(address,string)":"3ea35551","whitelistUniswapV3Router(address,string)":"34ec8d7e"},"id":5}