{"abi":[{"type":"constructor","inputs":[],"stateMutability":"nonpayable"},{"type":"function","name":"allowApprovalDestination","inputs":[{"name":"destination","type":"address","internalType":"address"},{"name":"notes","type":"string","internalType":"string"}],"outputs":[],"stateMutability":"nonpayable"},{"type":"function","name":"allowAsset","inputs":[{"name":"asset","type":"address","internalType":"address"},{"name":"notes","type":"string","internalType":"string"}],"outputs":[],"stateMutability":"nonpayable"},{"type":"function","name":"allowCallSite","inputs":[{"name":"target","type":"address","internalType":"address"},{"name":"selector","type":"bytes4","internalType":"bytes4"},{"name":"notes","type":"string","internalType":"string"}],"outputs":[],"stateMutability":"nonpayable"},{"type":"function","name":"allowReceiver","inputs":[{"name":"receiver","type":"address","internalType":"address"},{"name":"notes","type":"string","internalType":"string"}],"outputs":[],"stateMutability":"nonpayable"},{"type":"function","name":"allowSender","inputs":[{"name":"sender","type":"address","internalType":"address"},{"name":"notes","type":"string","internalType":"string"}],"outputs":[],"stateMutability":"nonpayable"},{"type":"function","name":"allowWithdrawDestination","inputs":[{"name":"destination","type":"address","internalType":"address"},{"name":"notes","type":"string","internalType":"string"}],"outputs":[],"stateMutability":"nonpayable"},{"type":"function","name":"allowedApprovalDestinations","inputs":[{"name":"destination","type":"address","internalType":"address"}],"outputs":[{"name":"allowed","type":"bool","internalType":"bool"}],"stateMutability":"view"},{"type":"function","name":"allowedAssets","inputs":[{"name":"token","type":"address","internalType":"address"}],"outputs":[{"name":"allowed","type":"bool","internalType":"bool"}],"stateMutability":"view"},{"type":"function","name":"allowedCallSites","inputs":[{"name":"target","type":"address","internalType":"address"},{"name":"selector","type":"bytes4","internalType":"bytes4"}],"outputs":[{"name":"allowed","type":"bool","internalType":"bool"}],"stateMutability":"view"},{"type":"function","name":"allowedReceivers","inputs":[{"name":"receiver","type":"address","internalType":"address"}],"outputs":[{"name":"allowed","type":"bool","internalType":"bool"}],"stateMutability":"view"},{"type":"function","name":"allowedSenders","inputs":[{"name":"sender","type":"address","internalType":"address"}],"outputs":[{"name":"allowed","type":"bool","internalType":"bool"}],"stateMutability":"view"},{"type":"function","name":"allowedWithdrawDestinations","inputs":[{"name":"destination","type":"address","internalType":"address"}],"outputs":[{"name":"allowed","type":"bool","internalType":"bool"}],"stateMutability":"view"},{"type":"function","name":"callSiteCount","inputs":[],"outputs":[{"name":"","type":"uint256","internalType":"uint256"}],"stateMutability":"view"},{"type":"function","name":"getGovernanceAddress","inputs":[],"outputs":[{"name":"","type":"address","internalType":"address"}],"stateMutability":"view"},{"type":"function","name":"getInternalVersion","inputs":[],"outputs":[{"name":"","type":"uint8","internalType":"uint8"}],"stateMutability":"pure"},{"type":"function","name":"isAllowedApprovalDestination","inputs":[{"name":"receiver","type":"address","internalType":"address"}],"outputs":[{"name":"","type":"bool","internalType":"bool"}],"stateMutability":"view"},{"type":"function","name":"isAllowedAsset","inputs":[{"name":"token","type":"address","internalType":"address"}],"outputs":[{"name":"","type":"bool","internalType":"bool"}],"stateMutability":"view"},{"type":"function","name":"isAllowedCallSite","inputs":[{"name":"target","type":"address","internalType":"address"},{"name":"selector","type":"bytes4","internalType":"bytes4"}],"outputs":[{"name":"","type":"bool","internalType":"bool"}],"stateMutability":"view"},{"type":"function","name":"isAllowedReceiver","inputs":[{"name":"receiver","type":"address","internalType":"address"}],"outputs":[{"name":"","type":"bool","internalType":"bool"}],"stateMutability":"view"},{"type":"function","name":"isAllowedSender","inputs":[{"name":"sender","type":"address","internalType":"address"}],"outputs":[{"name":"","type":"bool","internalType":"bool"}],"stateMutability":"view"},{"type":"function","name":"isAllowedWithdrawDestination","inputs":[{"name":"receiver","type":"address","internalType":"address"}],"outputs":[{"name":"","type":"bool","internalType":"bool"}],"stateMutability":"view"},{"type":"function","name":"owner","inputs":[],"outputs":[{"name":"","type":"address","internalType":"address"}],"stateMutability":"view"},{"type":"function","name":"removeApprovalDestination","inputs":[{"name":"destination","type":"address","internalType":"address"},{"name":"notes","type":"string","internalType":"string"}],"outputs":[],"stateMutability":"nonpayable"},{"type":"function","name":"removeAsset","inputs":[{"name":"asset","type":"address","internalType":"address"},{"name":"notes","type":"string","internalType":"string"}],"outputs":[],"stateMutability":"nonpayable"},{"type":"function","name":"removeCallSite","inputs":[{"name":"target","type":"address","internalType":"address"},{"name":"selector","type":"bytes4","internalType":"bytes4"},{"name":"notes","type":"string","internalType":"string"}],"outputs":[],"stateMutability":"nonpayable"},{"type":"function","name":"removeReceiver","inputs":[{"name":"receiver","type":"address","internalType":"address"},{"name":"notes","type":"string","internalType":"string"}],"outputs":[],"stateMutability":"nonpayable"},{"type":"function","name":"removeSender","inputs":[{"name":"sender","type":"address","internalType":"address"},{"name":"notes","type":"string","internalType":"string"}],"outputs":[],"stateMutability":"nonpayable"},{"type":"function","name":"removeWithdrawDestination","inputs":[{"name":"destination","type":"address","internalType":"address"},{"name":"notes","type":"string","internalType":"string"}],"outputs":[],"stateMutability":"nonpayable"},{"type":"function","name":"renounceOwnership","inputs":[],"outputs":[],"stateMutability":"nonpayable"},{"type":"function","name":"transferOwnership","inputs":[{"name":"newOwner","type":"address","internalType":"address"}],"outputs":[],"stateMutability":"nonpayable"},{"type":"function","name":"validateCall","inputs":[{"name":"sender","type":"address","internalType":"address"},{"name":"target","type":"address","internalType":"address"},{"name":"callDataWithSelector","type":"bytes","internalType":"bytes"}],"outputs":[],"stateMutability":"view"},{"type":"function","name":"validate_approve","inputs":[{"name":"callData","type":"bytes","internalType":"bytes"}],"outputs":[],"stateMutability":"view"},{"type":"function","name":"validate_exactInput","inputs":[{"name":"callData","type":"bytes","internalType":"bytes"}],"outputs":[],"stateMutability":"view"},{"type":"function","name":"validate_exactOutput","inputs":[{"name":"callData","type":"bytes","internalType":"bytes"}],"outputs":[],"stateMutability":"view"},{"type":"function","name":"validate_swapTokensForExactTokens","inputs":[{"name":"callData","type":"bytes","internalType":"bytes"}],"outputs":[],"stateMutability":"view"},{"type":"function","name":"validate_transfer","inputs":[{"name":"callData","type":"bytes","internalType":"bytes"}],"outputs":[],"stateMutability":"view"},{"type":"function","name":"whitelistToken","inputs":[{"name":"token","type":"address","internalType":"address"},{"name":"notes","type":"string","internalType":"string"}],"outputs":[],"stateMutability":"nonpayable"},{"type":"function","name":"whitelistUniswapV2Router","inputs":[{"name":"router","type":"address","internalType":"address"},{"name":"notes","type":"string","internalType":"string"}],"outputs":[],"stateMutability":"nonpayable"},{"type":"function","name":"whitelistUniswapV3Router","inputs":[{"name":"router","type":"address","internalType":"address"},{"name":"notes","type":"string","internalType":"string"}],"outputs":[],"stateMutability":"nonpayable"},{"type":"event","name":"ApprovalDestinationApproved","inputs":[{"name":"sender","type":"address","indexed":false,"internalType":"address"},{"name":"notes","type":"string","indexed":false,"internalType":"string"}],"anonymous":false},{"type":"event","name":"ApprovalDestinationRemoved","inputs":[{"name":"sender","type":"address","indexed":false,"internalType":"address"},{"name":"notes","type":"string","indexed":false,"internalType":"string"}],"anonymous":false},{"type":"event","name":"AssetApproved","inputs":[{"name":"sender","type":"address","indexed":false,"internalType":"address"},{"name":"notes","type":"string","indexed":false,"internalType":"string"}],"anonymous":false},{"type":"event","name":"AssetRemoved","inputs":[{"name":"sender","type":"address","indexed":false,"internalType":"address"},{"name":"notes","type":"string","indexed":false,"internalType":"string"}],"anonymous":false},{"type":"event","name":"CallSiteApproved","inputs":[{"name":"target","type":"address","indexed":false,"internalType":"address"},{"name":"selector","type":"bytes4","indexed":false,"internalType":"bytes4"},{"name":"notes","type":"string","indexed":false,"internalType":"string"}],"anonymous":false},{"type":"event","name":"CallSiteRemoved","inputs":[{"name":"target","type":"address","indexed":false,"internalType":"address"},{"name":"selector","type":"bytes4","indexed":false,"internalType":"bytes4"},{"name":"notes","type":"string","indexed":false,"internalType":"string"}],"anonymous":false},{"type":"event","name":"OwnershipTransferred","inputs":[{"name":"previousOwner","type":"address","indexed":true,"internalType":"address"},{"name":"newOwner","type":"address","indexed":true,"internalType":"address"}],"anonymous":false},{"type":"event","name":"ReceiverApproved","inputs":[{"name":"sender","type":"address","indexed":false,"internalType":"address"},{"name":"notes","type":"string","indexed":false,"internalType":"string"}],"anonymous":false},{"type":"event","name":"ReceiverRemoved","inputs":[{"name":"sender","type":"address","indexed":false,"internalType":"address"},{"name":"notes","type":"string","indexed":false,"internalType":"string"}],"anonymous":false},{"type":"event","name":"SenderApproved","inputs":[{"name":"sender","type":"address","indexed":false,"internalType":"address"},{"name":"notes","type":"string","indexed":false,"internalType":"string"}],"anonymous":false},{"type":"event","name":"SenderRemoved","inputs":[{"name":"sender","type":"address","indexed":false,"internalType":"address"},{"name":"notes","type":"string","indexed":false,"internalType":"string"}],"anonymous":false},{"type":"event","name":"WithdrawDestinationApproved","inputs":[{"name":"sender","type":"address","indexed":false,"internalType":"address"},{"name":"notes","type":"string","indexed":false,"internalType":"string"}],"anonymous":false},{"type":"event","name":"WithdrawDestinationRemoved","inputs":[{"name":"sender","type":"address","indexed":false,"internalType":"address"},{"name":"notes","type":"string","indexed":false,"internalType":"string"}],"anonymous":false}],"bytecode":{"object":"0x608060405234801561001057600080fd5b5061001a3361001f565b61006f565b600080546001600160a01b038381166001600160a01b0319831681178455604051919092169283917f8be0079c531659141344cd1fd0a4f28419497f9722a3daafe3b4186f6b6457e09190a35050565b611de98061007e6000396000f3fe608060405234801561001057600080fd5b506004361061023d5760003560e01c80638da5cb5b1161013b578063e98539c5116100b8578063f2fde38b1161007c578063f2fde38b146105a8578063f901dc33146105bb578063fa2c59c8146105ce578063fadbcf48146105e1578063fdedfa271461060457600080fd5b8063e98539c51461052e578063eb0de04214610541578063ebe268161461052e578063ee5462cc14610564578063efb47bff1461057757600080fd5b8063a9fc3d4f116100ff578063a9fc3d4f1461048f578063be8c97b0146104a6578063c537bed0146104d7578063d075f9bb146104ea578063d7334c9d1461051b57600080fd5b80638da5cb5b1461040757806398b3cc3914610418578063a4c1cccb1461042b578063a67e1f541461044e578063a847cf4d1461046157600080fd5b80634b956bd8116101c9578063715018a61161018d578063715018a6146103a157806372e548a9146103a957806373252494146103bc57806386b6dbe5146103e15780638c2fdf9e146103f457600080fd5b80634b956bd8146103425780635ace1d92146103555780635e4ccace146103685780636d5025f11461037b578063713ebf3b1461038e57600080fd5b80631d49039c116102105780631d49039c146102b55780632d12d788146102e657806334ec8d7e146102f95780633cf200251461030c5780633ea355511461032f57600080fd5b806304a3ba251461024257806307ef00cf146102575780631202f5e51461028f5780631710a4f2146102a2575b600080fd5b6102556102503660046116df565b610613565b005b61027a610265366004611734565b60066020526000908152604090205460ff1681565b60405190151581526020015b60405180910390f35b61025561029d3660046117f0565b61067c565b6102556102b03660046117f0565b6107d0565b61027a6102c3366004611734565b6001600160a01b031660009081526007602052604090205460ff16151560011490565b6102556102f43660046116df565b610830565b6102556103073660046116df565b61088c565b61027a61031a366004611734565b60056020526000908152604090205460ff1681565b61025561033d3660046116df565b6108f9565b6102556103503660046117f0565b610924565b6102556103633660046116df565b6109b0565b61025561037636600461188d565b610a0f565b6102556103893660046118f0565b610aa5565b61027a61039c366004611921565b610e84565b610255610ebc565b6102556103b73660046116df565b610ed0565b6000546001600160a01b03165b6040516001600160a01b039091168152602001610286565b6102556103ef3660046116df565b610f2f565b6102556104023660046116df565b610f8e565b6000546001600160a01b03166103c9565b6102556104263660046116df565b610fea565b61027a610439366004611734565b60036020526000908152604090205460ff1681565b61025561045c3660046116df565b611049565b61027a61046f366004611921565b600160209081526000928352604080842090915290825290205460ff1681565b61049860025481565b604051908152602001610286565b61027a6104b4366004611734565b6001600160a01b031660009081526004602052604090205460ff16151560011490565b61027a6104e5366004611734565b6110a5565b61027a6104f8366004611734565b6001600160a01b031660009081526005602052604090205460ff16151560011490565b61025561052936600461188d565b6110c8565b61025561053c3660046117f0565b61113b565b61027a61054f366004611734565b60076020526000908152604090205460ff1681565b6102556105723660046116df565b611248565b61027a610585366004611734565b6001600160a01b031660009081526006602052604090205460ff16151560011490565b6102556105b6366004611734565b611308565b6102556105c93660046116df565b611381565b6102556105dc3660046116df565b6113dd565b61027a6105ef366004611734565b60046020526000908152604090205460ff1681565b60405160018152602001610286565b61061b61143c565b6001600160a01b03831660009081526007602052604090819020805460ff19169055517fb71be9befd3ac90c1c9981d3b1161b3c2c6dcd741f13b34061aa251226a802df9061066f9085908590859061197f565b60405180910390a1505050565b6000808280602001905181019061069391906119b8565b509350935050506000826000815181106106af576106af611a9a565b60200260200101519050600083600185516106ca9190611ac6565b815181106106da576106da611a9a565b6020026020010151905061070b836001600160a01b031660009081526005602052604090205460ff16151560011490565b6107305760405162461bcd60e51b815260040161072790611ad9565b60405180910390fd5b610739826110a5565b61077c5760405162461bcd60e51b8152602060048201526014602482015273151bdad95b881a5b881b9bdd08185b1b1bddd95960621b6044820152606401610727565b610785816110a5565b6107c95760405162461bcd60e51b8152602060048201526015602482015274151bdad95b881bdd5d081b9bdd08185b1b1bddd959605a1b6044820152606401610727565b5050505050565b6000818060200190518101906107e69190611b10565b509050610810816001600160a01b031660009081526006602052604090205460ff16151560011490565b61082c5760405162461bcd60e51b815260040161072790611ad9565b5050565b61083861143c565b6001600160a01b03831660009081526005602052604090819020805460ff19169055517f4e13b11ab98e672bd78295ef9cebe764dc617f95decf47d842c25b83abc0c7249061066f9085908590859061197f565b6108be836108b7604051806060016040528060338152602001611d4d60339139805160209091012090565b8484610a0f565b6108e9836108b7604051806060016040528060348152602001611d8060349139805160209091012090565b6108f4838383610fea565b505050565b6108e9836108b7604051806080016040528060438152602001611d0a60439139805160209091012090565b60008180602001905181019061093a9190611b10565b509050610964816001600160a01b031660009081526007602052604090205460ff16151560011490565b61082c5760405162461bcd60e51b815260206004820152601e60248201527f417070726f7665206164647265737320646f6573206e6f74206d6174636800006044820152606401610727565b6109b861143c565b6001600160a01b03831660009081526006602052604090819020805460ff19166001179055517f3562181221a42a19ddd03a82dfe06acab1905ceb65cdaf7d86a1d9fec66435529061066f9085908590859061197f565b610a1761143c565b6001600160a01b03841660009081526001602081815260408084206001600160e01b0319881685529091528220805460ff191690911790556002805491610a5d83611b3e565b91905055507fef729aaa41b9fd994f9ff7c1960df214a84f722002e6cfbea31799cd0873a3ef84848484604051610a979493929190611b57565b60405180910390a150505050565b6000546001600160a01b03858116911614610e7e57610ae1846001600160a01b031660009081526004602052604090205460ff16151560011490565b610b225760405162461bcd60e51b815260206004820152601260248201527114d95b99195c881b9bdd08185b1b1bddd95960721b6044820152606401610727565b6000610b316004828486611b96565b610b3a91611bc0565b9050366000610b4c8460048188611b96565b91509150610b5a8684610e84565b610b9e5760405162461bcd60e51b815260206004820152601560248201527410d85b1b081cda5d19481b9bdd08185b1b1bddd959605a1b6044820152606401610727565b610bc5604051806080016040528060438152602001611d0a60439139805160209091012090565b6001600160e01b031916836001600160e01b03191603610c2357610c1e82828080601f01602080910402602001604051908101604052809392919081815260200183838082843760009201919091525061067c92505050565b610e7a565b610c4a604051806060016040528060338152602001611d4d60339139805160209091012090565b6001600160e01b031916836001600160e01b03191603610ca357610c1e82828080601f01602080910402602001604051908101604052809392919081815260200183838082843760009201919091525061113b92505050565b610cca604051806060016040528060348152602001611d8060349139805160209091012090565b6001600160e01b031916836001600160e01b03191603610d2357610c1e82828080601f01602080910402602001604051908101604052809392919081815260200183838082843760009201919091525061113b92505050565b6040805180820190915260198152787472616e7366657228616464726573732c75696e743235362960381b6020909101526356fa634560e01b6001600160e01b0319841601610dab57610c1e82828080601f0160208091040260200160405190810160405280939291908181526020018383808284376000920191909152506107d092505050565b604080518082019091526018815277617070726f766528616464726573732c75696e743235362960401b60209091015263f6a1584d60e01b6001600160e01b0319841601610e3257610c1e82828080601f01602080910402602001604051908101604052809392919081815260200183838082843760009201919091525061092492505050565b60405162461bcd60e51b815260206004820152601960248201527f556e6b6e6f776e2066756e6374696f6e2073656c6563746f72000000000000006044820152606401610727565b5050505b50505050565b6001600160a01b03821660009081526001602090815260408083206001600160e01b03198516845290915290205460ff165b92915050565b610ec461143c565b610ece6000611496565b565b610ed861143c565b6001600160a01b03831660009081526005602052604090819020805460ff19166001179055517f62dd88c5ecfa60713a657640ebec4de26fc1aefa4afdb24e6d15a124fce727799061066f9085908590859061197f565b610f3761143c565b6001600160a01b03831660009081526003602052604090819020805460ff19166001179055517fad90e2570fc4fe9f7437be3188d5c791c6662892d31731992aa88f5c876219839061066f9085908590859061197f565b610f9661143c565b6001600160a01b03831660009081526006602052604090819020805460ff19169055517f1212f8ddb39de8e1a339460c95752d61100723efeaa34ccd94bca94393f409389061066f9085908590859061197f565b610ff261143c565b6001600160a01b03831660009081526007602052604090819020805460ff19166001179055517f628a44970c0e450415e3ae74334ea44f3307b74dbf677a1371190242bf2f35899061066f9085908590859061197f565b61105161143c565b6001600160a01b03831660009081526004602052604090819020805460ff19169055517f3097928509c53a2dab9500431201d82b0d756e8f890fd01f4ae6b33b45687ea49061066f9085908590859061197f565b6001600160a01b031660009081526003602052604090205460ff16151560011490565b6110d061143c565b6001600160a01b03841660009081526001602090815260408083206001600160e01b03198716845290915290819020805460ff19169055517f37ea10f2d08f5a9803dfcd5abf3cfc7b0d6fcdf5fcbc36be9ea5a0b53d9a4d9b90610a97908690869086908690611b57565b6000818060200190518101906111519190611cb9565b905060008061116383600001516114e6565b509150915061119383602001516001600160a01b031660009081526005602052604090205460ff16151560011490565b6111af5760405162461bcd60e51b815260040161072790611ad9565b6111b8816110a5565b6111fb5760405162461bcd60e51b8152602060048201526014602482015273151bdad95b881a5b881b9bdd08185b1b1bddd95960621b6044820152606401610727565b611204826110a5565b610e7e5760405162461bcd60e51b8152602060048201526015602482015274151bdad95b881bdd5d081b9bdd08185b1b1bddd959605a1b6044820152606401610727565b6040805180820190915260198152787472616e7366657228616464726573732c75696e743235362960381b6020909101526112a3837fa9059cbb2ab09eb219583f4a59a5d0623ade346d962bcd4e46b11da047c9049b6108b7565b604080518082019091526018815277617070726f766528616464726573732c75696e743235362960401b6020909101526112fd837f095ea7b334ae44009aa867bfb386f5c3b4b443ac6f0ee573fa91c4608fbadfba6108b7565b6108f4838383610f2f565b61131061143c565b6001600160a01b0381166113755760405162461bcd60e51b815260206004820152602660248201527f4f776e61626c653a206e6577206f776e657220697320746865207a65726f206160448201526564647265737360d01b6064820152608401610727565b61137e81611496565b50565b61138961143c565b6001600160a01b03831660009081526003602052604090819020805460ff19169055517f9ca3f065622f5f03f32b7157677a0e420c3a36ab45fd49f256ffebce3e3105879061066f9085908590859061197f565b6113e561143c565b6001600160a01b03831660009081526004602052604090819020805460ff19166001179055517fa8f9caaf4861720900294428e4ff34d37070c37afd26d96e6e4da75326d2c3ad9061066f9085908590859061197f565b6000546001600160a01b03163314610ece5760405162461bcd60e51b815260206004820181905260248201527f4f776e61626c653a2063616c6c6572206973206e6f7420746865206f776e65726044820152606401610727565b600080546001600160a01b038381166001600160a01b0319831681178455604051919092169283917f8be0079c531659141344cd1fd0a4f28419497f9722a3daafe3b4186f6b6457e09190a35050565b600080806114f48482611522565b92506115018460146115d6565b905061151961151260036014611cf6565b8590611522565b91509193909250565b600081611530816014611cf6565b10156115735760405162461bcd60e51b8152602060048201526012602482015271746f416464726573735f6f766572666c6f7760701b6044820152606401610727565b61157e826014611cf6565b835110156115c65760405162461bcd60e51b8152602060048201526015602482015274746f416464726573735f6f75744f66426f756e647360581b6044820152606401610727565b500160200151600160601b900490565b6000816115e4816003611cf6565b10156116265760405162461bcd60e51b8152602060048201526011602482015270746f55696e7432345f6f766572666c6f7760781b6044820152606401610727565b611631826003611cf6565b835110156116785760405162461bcd60e51b8152602060048201526014602482015273746f55696e7432345f6f75744f66426f756e647360601b6044820152606401610727565b50016003015190565b6001600160a01b038116811461137e57600080fd5b60008083601f8401126116a857600080fd5b50813567ffffffffffffffff8111156116c057600080fd5b6020830191508360208285010111156116d857600080fd5b9250929050565b6000806000604084860312156116f457600080fd5b83356116ff81611681565b9250602084013567ffffffffffffffff81111561171b57600080fd5b61172786828701611696565b9497909650939450505050565b60006020828403121561174657600080fd5b813561175181611681565b9392505050565b634e487b7160e01b600052604160045260246000fd5b60405160a0810167ffffffffffffffff8111828210171561179157611791611758565b60405290565b604051601f8201601f1916810167ffffffffffffffff811182821017156117c0576117c0611758565b604052919050565b600067ffffffffffffffff8211156117e2576117e2611758565b50601f01601f191660200190565b60006020828403121561180257600080fd5b813567ffffffffffffffff81111561181957600080fd5b8201601f8101841361182a57600080fd5b803561183d611838826117c8565b611797565b81815285602083850101111561185257600080fd5b81602084016020830137600091810160200191909152949350505050565b80356001600160e01b03198116811461188857600080fd5b919050565b600080600080606085870312156118a357600080fd5b84356118ae81611681565b93506118bc60208601611870565b9250604085013567ffffffffffffffff8111156118d857600080fd5b6118e487828801611696565b95989497509550505050565b6000806000806060858703121561190657600080fd5b843561191181611681565b935060208501356118bc81611681565b6000806040838503121561193457600080fd5b823561193f81611681565b915061194d60208401611870565b90509250929050565b81835281816020850137506000828201602090810191909152601f909101601f19169091010190565b6001600160a01b03841681526040602082018190526000906119a49083018486611956565b95945050505050565b805161188881611681565b600080600080600060a086880312156119d057600080fd5b855194506020808701519450604087015167ffffffffffffffff808211156119f757600080fd5b818901915089601f830112611a0b57600080fd5b815181811115611a1d57611a1d611758565b8060051b9150611a2e848301611797565b818152918301840191848101908c841115611a4857600080fd5b938501935b83851015611a725784519250611a6283611681565b8282529385019390850190611a4d565b809850505050505050611a87606087016119ad565b9150608086015190509295509295909350565b634e487b7160e01b600052603260045260246000fd5b634e487b7160e01b600052601160045260246000fd5b81810381811115610eb657610eb6611ab0565b6020808252601f908201527f5265636569766572206164647265737320646f6573206e6f74206d6174636800604082015260600190565b60008060408385031215611b2357600080fd5b8251611b2e81611681565b6020939093015192949293505050565b600060018201611b5057611b50611ab0565b5060010190565b6001600160a01b03851681526001600160e01b031984166020820152606060408201819052600090611b8c9083018486611956565b9695505050505050565b60008085851115611ba657600080fd5b83861115611bb357600080fd5b5050820193919092039150565b6001600160e01b03198135818116916004851015611be85780818660040360031b1b83161692505b505092915050565b600060a08284031215611c0257600080fd5b611c0a61176e565b9050815167ffffffffffffffff811115611c2357600080fd5b8201601f81018413611c3457600080fd5b8051611c42611838826117c8565b81815260208681848601011115611c5857600080fd5b60005b83811015611c76578481018201518382018301528101611c5b565b506000818484010152818552611c8d8187016119ad565b818601525050505060408201516040820152606082015160608201526080820151608082015292915050565b600060208284031215611ccb57600080fd5b815167ffffffffffffffff811115611ce257600080fd5b611cee84828501611bf0565b949350505050565b80820180821115610eb657610eb6611ab056fe737761704578616374546f6b656e73466f72546f6b656e732875696e743235362c75696e743235362c616464726573735b5d2c616464726573732c75696e74323536296578616374496e707574282862797465732c616464726573732c75696e743235362c75696e743235362c75696e74323536292965786163744f7574707574282862797465732c616464726573732c75696e743235362c75696e743235362c75696e743235362929a26469706673582212208147bd05e0d6d226b697e277ad3d5d7a5c73132abb0419b025de6fce213053f864736f6c63430008170033","linkReferences":{}},"methodIdentifiers":{"allowApprovalDestination(address,string)":"98b3cc39","allowAsset(address,string)":"86b6dbe5","allowCallSite(address,bytes4,string)":"5e4ccace","allowReceiver(address,string)":"72e548a9","allowSender(address,string)":"fa2c59c8","allowWithdrawDestination(address,string)":"5ace1d92","allowedApprovalDestinations(address)":"eb0de042","allowedAssets(address)":"a4c1cccb","allowedCallSites(address,bytes4)":"a847cf4d","allowedReceivers(address)":"3cf20025","allowedSenders(address)":"fadbcf48","allowedWithdrawDestinations(address)":"07ef00cf","callSiteCount()":"a9fc3d4f","getGovernanceAddress()":"73252494","getInternalVersion()":"fdedfa27","isAllowedApprovalDestination(address)":"1d49039c","isAllowedAsset(address)":"c537bed0","isAllowedCallSite(address,bytes4)":"713ebf3b","isAllowedReceiver(address)":"d075f9bb","isAllowedSender(address)":"be8c97b0","isAllowedWithdrawDestination(address)":"efb47bff","owner()":"8da5cb5b","removeApprovalDestination(address,string)":"04a3ba25","removeAsset(address,string)":"f901dc33","removeCallSite(address,bytes4,string)":"d7334c9d","removeReceiver(address,string)":"2d12d788","removeSender(address,string)":"a67e1f54","removeWithdrawDestination(address,string)":"8c2fdf9e","renounceOwnership()":"715018a6","transferOwnership(address)":"f2fde38b","validateCall(address,address,bytes)":"6d5025f1","validate_approve(bytes)":"4b956bd8","validate_exactInput(bytes)":"ebe26816","validate_exactOutput(bytes)":"e98539c5","validate_swapTokensForExactTokens(bytes)":"1202f5e5","validate_transfer(bytes)":"1710a4f2","whitelistToken(address,string)":"ee5462cc","whitelistUniswapV2Router(address,string)":"3ea35551","whitelistUniswapV3Router(address,string)":"34ec8d7e"},"id":4}