{"abi":[{"type":"constructor","inputs":[],"stateMutability":"nonpayable"},{"type":"function","name":"allowApprovalDestination","inputs":[{"name":"destination","type":"address","internalType":"address"},{"name":"notes","type":"string","internalType":"string"}],"outputs":[],"stateMutability":"nonpayable"},{"type":"function","name":"allowAsset","inputs":[{"name":"asset","type":"address","internalType":"address"},{"name":"notes","type":"string","internalType":"string"}],"outputs":[],"stateMutability":"nonpayable"},{"type":"function","name":"allowCallSite","inputs":[{"name":"target","type":"address","internalType":"address"},{"name":"selector","type":"bytes4","internalType":"bytes4"},{"name":"notes","type":"string","internalType":"string"}],"outputs":[],"stateMutability":"nonpayable"},{"type":"function","name":"allowDelegationApprovalDestination","inputs":[{"name":"destination","type":"address","internalType":"address"},{"name":"notes","type":"string","internalType":"string"}],"outputs":[],"stateMutability":"nonpayable"},{"type":"function","name":"allowReceiver","inputs":[{"name":"receiver","type":"address","internalType":"address"},{"name":"notes","type":"string","internalType":"string"}],"outputs":[],"stateMutability":"nonpayable"},{"type":"function","name":"allowSender","inputs":[{"name":"sender","type":"address","internalType":"address"},{"name":"notes","type":"string","internalType":"string"}],"outputs":[],"stateMutability":"nonpayable"},{"type":"function","name":"allowWithdrawDestination","inputs":[{"name":"destination","type":"address","internalType":"address"},{"name":"notes","type":"string","internalType":"string"}],"outputs":[],"stateMutability":"nonpayable"},{"type":"function","name":"allowedApprovalDestinations","inputs":[{"name":"destination","type":"address","internalType":"address"}],"outputs":[{"name":"allowed","type":"bool","internalType":"bool"}],"stateMutability":"view"},{"type":"function","name":"allowedAssets","inputs":[{"name":"token","type":"address","internalType":"address"}],"outputs":[{"name":"allowed","type":"bool","internalType":"bool"}],"stateMutability":"view"},{"type":"function","name":"allowedCallSites","inputs":[{"name":"target","type":"address","internalType":"address"},{"name":"selector","type":"bytes4","internalType":"bytes4"}],"outputs":[{"name":"allowed","type":"bool","internalType":"bool"}],"stateMutability":"view"},{"type":"function","name":"allowedDelegationApprovalDestinations","inputs":[{"name":"destination","type":"address","internalType":"address"}],"outputs":[{"name":"allowed","type":"bool","internalType":"bool"}],"stateMutability":"view"},{"type":"function","name":"allowedLagoonVaults","inputs":[{"name":"destination","type":"address","internalType":"address"}],"outputs":[{"name":"allowed","type":"bool","internalType":"bool"}],"stateMutability":"view"},{"type":"function","name":"allowedReceivers","inputs":[{"name":"receiver","type":"address","internalType":"address"}],"outputs":[{"name":"allowed","type":"bool","internalType":"bool"}],"stateMutability":"view"},{"type":"function","name":"allowedSenders","inputs":[{"name":"sender","type":"address","internalType":"address"}],"outputs":[{"name":"allowed","type":"bool","internalType":"bool"}],"stateMutability":"view"},{"type":"function","name":"allowedTargets","inputs":[{"name":"target","type":"address","internalType":"address"}],"outputs":[{"name":"allowed","type":"bool","internalType":"bool"}],"stateMutability":"view"},{"type":"function","name":"allowedWithdrawDestinations","inputs":[{"name":"destination","type":"address","internalType":"address"}],"outputs":[{"name":"allowed","type":"bool","internalType":"bool"}],"stateMutability":"view"},{"type":"function","name":"anyAsset","inputs":[],"outputs":[{"name":"","type":"bool","internalType":"bool"}],"stateMutability":"view"},{"type":"function","name":"callSiteCount","inputs":[],"outputs":[{"name":"","type":"uint256","internalType":"uint256"}],"stateMutability":"view"},{"type":"function","name":"getGovernanceAddress","inputs":[],"outputs":[{"name":"","type":"address","internalType":"address"}],"stateMutability":"view"},{"type":"function","name":"getInternalVersion","inputs":[],"outputs":[{"name":"","type":"uint8","internalType":"uint8"}],"stateMutability":"pure"},{"type":"function","name":"isAllowedApprovalDestination","inputs":[{"name":"receiver","type":"address","internalType":"address"}],"outputs":[{"name":"","type":"bool","internalType":"bool"}],"stateMutability":"view"},{"type":"function","name":"isAllowedAsset","inputs":[{"name":"token","type":"address","internalType":"address"}],"outputs":[{"name":"","type":"bool","internalType":"bool"}],"stateMutability":"view"},{"type":"function","name":"isAllowedCallSite","inputs":[{"name":"target","type":"address","internalType":"address"},{"name":"selector","type":"bytes4","internalType":"bytes4"}],"outputs":[{"name":"","type":"bool","internalType":"bool"}],"stateMutability":"view"},{"type":"function","name":"isAllowedDelegationApprovalDestination","inputs":[{"name":"receiver","type":"address","internalType":"address"}],"outputs":[{"name":"","type":"bool","internalType":"bool"}],"stateMutability":"view"},{"type":"function","name":"isAllowedLagoonVault","inputs":[{"name":"vault","type":"address","internalType":"address"}],"outputs":[{"name":"","type":"bool","internalType":"bool"}],"stateMutability":"view"},{"type":"function","name":"isAllowedReceiver","inputs":[{"name":"receiver","type":"address","internalType":"address"}],"outputs":[{"name":"","type":"bool","internalType":"bool"}],"stateMutability":"view"},{"type":"function","name":"isAllowedSender","inputs":[{"name":"sender","type":"address","internalType":"address"}],"outputs":[{"name":"","type":"bool","internalType":"bool"}],"stateMutability":"view"},{"type":"function","name":"isAllowedTarget","inputs":[{"name":"target","type":"address","internalType":"address"}],"outputs":[{"name":"","type":"bool","internalType":"bool"}],"stateMutability":"view"},{"type":"function","name":"isAllowedWithdrawDestination","inputs":[{"name":"receiver","type":"address","internalType":"address"}],"outputs":[{"name":"","type":"bool","internalType":"bool"}],"stateMutability":"view"},{"type":"function","name":"owner","inputs":[],"outputs":[{"name":"","type":"address","internalType":"address"}],"stateMutability":"view"},{"type":"function","name":"removeApprovalDestination","inputs":[{"name":"destination","type":"address","internalType":"address"},{"name":"notes","type":"string","internalType":"string"}],"outputs":[],"stateMutability":"nonpayable"},{"type":"function","name":"removeAsset","inputs":[{"name":"asset","type":"address","internalType":"address"},{"name":"notes","type":"string","internalType":"string"}],"outputs":[],"stateMutability":"nonpayable"},{"type":"function","name":"removeCallSite","inputs":[{"name":"target","type":"address","internalType":"address"},{"name":"selector","type":"bytes4","internalType":"bytes4"},{"name":"notes","type":"string","internalType":"string"}],"outputs":[],"stateMutability":"nonpayable"},{"type":"function","name":"removeDelegationApprovalDestination","inputs":[{"name":"destination","type":"address","internalType":"address"},{"name":"notes","type":"string","internalType":"string"}],"outputs":[],"stateMutability":"nonpayable"},{"type":"function","name":"removeReceiver","inputs":[{"name":"receiver","type":"address","internalType":"address"},{"name":"notes","type":"string","internalType":"string"}],"outputs":[],"stateMutability":"nonpayable"},{"type":"function","name":"removeSender","inputs":[{"name":"sender","type":"address","internalType":"address"},{"name":"notes","type":"string","internalType":"string"}],"outputs":[],"stateMutability":"nonpayable"},{"type":"function","name":"removeWithdrawDestination","inputs":[{"name":"destination","type":"address","internalType":"address"},{"name":"notes","type":"string","internalType":"string"}],"outputs":[],"stateMutability":"nonpayable"},{"type":"function","name":"renounceOwnership","inputs":[],"outputs":[],"stateMutability":"nonpayable"},{"type":"function","name":"setAnyAssetAllowed","inputs":[{"name":"value","type":"bool","internalType":"bool"},{"name":"notes","type":"string","internalType":"string"}],"outputs":[],"stateMutability":"nonpayable"},{"type":"function","name":"transferOwnership","inputs":[{"name":"newOwner","type":"address","internalType":"address"}],"outputs":[],"stateMutability":"nonpayable"},{"type":"function","name":"validate1deltaPath","inputs":[{"name":"path","type":"bytes","internalType":"bytes"}],"outputs":[],"stateMutability":"view"},{"type":"function","name":"validateCall","inputs":[{"name":"sender","type":"address","internalType":"address"},{"name":"target","type":"address","internalType":"address"},{"name":"callDataWithSelector","type":"bytes","internalType":"bytes"}],"outputs":[],"stateMutability":"view"},{"type":"function","name":"validateUniswapV3Path","inputs":[{"name":"path","type":"bytes","internalType":"bytes"}],"outputs":[],"stateMutability":"view"},{"type":"function","name":"validate_1deltaDeposit","inputs":[{"name":"callData","type":"bytes","internalType":"bytes"}],"outputs":[],"stateMutability":"view"},{"type":"function","name":"validate_1deltaMulticall","inputs":[{"name":"callData","type":"bytes","internalType":"bytes"}],"outputs":[],"stateMutability":"view"},{"type":"function","name":"validate_1deltaWithdraw","inputs":[{"name":"callData","type":"bytes","internalType":"bytes"}],"outputs":[],"stateMutability":"view"},{"type":"function","name":"validate_ERC4626Deposit","inputs":[{"name":"target","type":"address","internalType":"address"},{"name":"callData","type":"bytes","internalType":"bytes"}],"outputs":[],"stateMutability":"view"},{"type":"function","name":"validate_ERC4626Redeem","inputs":[{"name":"callData","type":"bytes","internalType":"bytes"}],"outputs":[],"stateMutability":"view"},{"type":"function","name":"validate_ERC4626Withdraw","inputs":[{"name":"callData","type":"bytes","internalType":"bytes"}],"outputs":[],"stateMutability":"view"},{"type":"function","name":"validate_aaveSupply","inputs":[{"name":"callData","type":"bytes","internalType":"bytes"}],"outputs":[],"stateMutability":"view"},{"type":"function","name":"validate_aaveWithdraw","inputs":[{"name":"callData","type":"bytes","internalType":"bytes"}],"outputs":[],"stateMutability":"view"},{"type":"function","name":"validate_approve","inputs":[{"name":"callData","type":"bytes","internalType":"bytes"}],"outputs":[],"stateMutability":"view"},{"type":"function","name":"validate_approveDelegation","inputs":[{"name":"callData","type":"bytes","internalType":"bytes"}],"outputs":[],"stateMutability":"view"},{"type":"function","name":"validate_exactInput","inputs":[{"name":"callData","type":"bytes","internalType":"bytes"}],"outputs":[],"stateMutability":"view"},{"type":"function","name":"validate_exactOutput","inputs":[{"name":"callData","type":"bytes","internalType":"bytes"}],"outputs":[],"stateMutability":"view"},{"type":"function","name":"validate_flashSwapAllOut","inputs":[{"name":"callData","type":"bytes","internalType":"bytes"}],"outputs":[],"stateMutability":"view"},{"type":"function","name":"validate_flashSwapExactInt","inputs":[{"name":"callData","type":"bytes","internalType":"bytes"}],"outputs":[],"stateMutability":"view"},{"type":"function","name":"validate_flashSwapExactOut","inputs":[{"name":"callData","type":"bytes","internalType":"bytes"}],"outputs":[],"stateMutability":"view"},{"type":"function","name":"validate_lagoonSettle","inputs":[{"name":"vault","type":"address","internalType":"address"}],"outputs":[],"stateMutability":"view"},{"type":"function","name":"validate_swapExactTokensForTokens","inputs":[{"name":"callData","type":"bytes","internalType":"bytes"}],"outputs":[],"stateMutability":"view"},{"type":"function","name":"validate_transfer","inputs":[{"name":"callData","type":"bytes","internalType":"bytes"}],"outputs":[],"stateMutability":"view"},{"type":"function","name":"validate_transferERC20AllIn","inputs":[{"name":"callData","type":"bytes","internalType":"bytes"}],"outputs":[],"stateMutability":"view"},{"type":"function","name":"validate_transferERC20In","inputs":[{"name":"callData","type":"bytes","internalType":"bytes"}],"outputs":[],"stateMutability":"view"},{"type":"function","name":"whitelistAaveV3","inputs":[{"name":"lendingPool","type":"address","internalType":"address"},{"name":"notes","type":"string","internalType":"string"}],"outputs":[],"stateMutability":"nonpayable"},{"type":"function","name":"whitelistERC4626","inputs":[{"name":"vault","type":"address","internalType":"address"},{"name":"notes","type":"string","internalType":"string"}],"outputs":[],"stateMutability":"nonpayable"},{"type":"function","name":"whitelistLagoon","inputs":[{"name":"vault","type":"address","internalType":"address"},{"name":"notes","type":"string","internalType":"string"}],"outputs":[],"stateMutability":"nonpayable"},{"type":"function","name":"whitelistOnedelta","inputs":[{"name":"brokerProxy","type":"address","internalType":"address"},{"name":"lendingPool","type":"address","internalType":"address"},{"name":"notes","type":"string","internalType":"string"}],"outputs":[],"stateMutability":"nonpayable"},{"type":"function","name":"whitelistToken","inputs":[{"name":"token","type":"address","internalType":"address"},{"name":"notes","type":"string","internalType":"string"}],"outputs":[],"stateMutability":"nonpayable"},{"type":"function","name":"whitelistTokenForDelegation","inputs":[{"name":"token","type":"address","internalType":"address"},{"name":"notes","type":"string","internalType":"string"}],"outputs":[],"stateMutability":"nonpayable"},{"type":"function","name":"whitelistUniswapV2Router","inputs":[{"name":"router","type":"address","internalType":"address"},{"name":"notes","type":"string","internalType":"string"}],"outputs":[],"stateMutability":"nonpayable"},{"type":"function","name":"whitelistUniswapV3Router","inputs":[{"name":"router","type":"address","internalType":"address"},{"name":"notes","type":"string","internalType":"string"}],"outputs":[],"stateMutability":"nonpayable"},{"type":"event","name":"AnyAssetSet","inputs":[{"name":"value","type":"bool","indexed":false,"internalType":"bool"},{"name":"notes","type":"string","indexed":false,"internalType":"string"}],"anonymous":false},{"type":"event","name":"AnyVaultSet","inputs":[{"name":"value","type":"bool","indexed":false,"internalType":"bool"},{"name":"notes","type":"string","indexed":false,"internalType":"string"}],"anonymous":false},{"type":"event","name":"ApprovalDestinationApproved","inputs":[{"name":"sender","type":"address","indexed":false,"internalType":"address"},{"name":"notes","type":"string","indexed":false,"internalType":"string"}],"anonymous":false},{"type":"event","name":"ApprovalDestinationRemoved","inputs":[{"name":"sender","type":"address","indexed":false,"internalType":"address"},{"name":"notes","type":"string","indexed":false,"internalType":"string"}],"anonymous":false},{"type":"event","name":"AssetApproved","inputs":[{"name":"sender","type":"address","indexed":false,"internalType":"address"},{"name":"notes","type":"string","indexed":false,"internalType":"string"}],"anonymous":false},{"type":"event","name":"AssetRemoved","inputs":[{"name":"sender","type":"address","indexed":false,"internalType":"address"},{"name":"notes","type":"string","indexed":false,"internalType":"string"}],"anonymous":false},{"type":"event","name":"CallSiteApproved","inputs":[{"name":"target","type":"address","indexed":false,"internalType":"address"},{"name":"selector","type":"bytes4","indexed":false,"internalType":"bytes4"},{"name":"notes","type":"string","indexed":false,"internalType":"string"}],"anonymous":false},{"type":"event","name":"CallSiteRemoved","inputs":[{"name":"target","type":"address","indexed":false,"internalType":"address"},{"name":"selector","type":"bytes4","indexed":false,"internalType":"bytes4"},{"name":"notes","type":"string","indexed":false,"internalType":"string"}],"anonymous":false},{"type":"event","name":"DelegationApprovalDestinationApproved","inputs":[{"name":"sender","type":"address","indexed":false,"internalType":"address"},{"name":"notes","type":"string","indexed":false,"internalType":"string"}],"anonymous":false},{"type":"event","name":"DelegationApprovalDestinationRemoved","inputs":[{"name":"sender","type":"address","indexed":false,"internalType":"address"},{"name":"notes","type":"string","indexed":false,"internalType":"string"}],"anonymous":false},{"type":"event","name":"LagoonVaultApproved","inputs":[{"name":"vault","type":"address","indexed":false,"internalType":"address"},{"name":"notes","type":"string","indexed":false,"internalType":"string"}],"anonymous":false},{"type":"event","name":"OwnershipTransferred","inputs":[{"name":"previousOwner","type":"address","indexed":true,"internalType":"address"},{"name":"newOwner","type":"address","indexed":true,"internalType":"address"}],"anonymous":false},{"type":"event","name":"ReceiverApproved","inputs":[{"name":"sender","type":"address","indexed":false,"internalType":"address"},{"name":"notes","type":"string","indexed":false,"internalType":"string"}],"anonymous":false},{"type":"event","name":"ReceiverRemoved","inputs":[{"name":"sender","type":"address","indexed":false,"internalType":"address"},{"name":"notes","type":"string","indexed":false,"internalType":"string"}],"anonymous":false},{"type":"event","name":"SenderApproved","inputs":[{"name":"sender","type":"address","indexed":false,"internalType":"address"},{"name":"notes","type":"string","indexed":false,"internalType":"string"}],"anonymous":false},{"type":"event","name":"SenderRemoved","inputs":[{"name":"sender","type":"address","indexed":false,"internalType":"address"},{"name":"notes","type":"string","indexed":false,"internalType":"string"}],"anonymous":false},{"type":"event","name":"WithdrawDestinationApproved","inputs":[{"name":"sender","type":"address","indexed":false,"internalType":"address"},{"name":"notes","type":"string","indexed":false,"internalType":"string"}],"anonymous":false},{"type":"event","name":"WithdrawDestinationRemoved","inputs":[{"name":"sender","type":"address","indexed":false,"internalType":"address"},{"name":"notes","type":"string","indexed":false,"internalType":"string"}],"anonymous":false}],"bytecode":{"object":"0x608060405234801562000010575f80fd5b506200001c3362000022565b6200007b565b600a80546001600160a01b03838116610100818102610100600160a81b031985161790945560405193909204169182907f8be0079c531659141344cd1fd0a4f28419497f9722a3daafe3b4186f6b6457e0905f90a35050565b61450480620000895f395ff3fe608060405234801561000f575f80fd5b506004361061040c575f3560e01c806386b6dbe511610221578063ca963c501161012a578063f20e85e0116100b4578063f76081e411610084578063f76081e414610a3f578063f901dc3314610a52578063fa2c59c814610a65578063fadbcf4814610a78578063fdedfa2714610a9a575f80fd5b8063f20e85e014610a06578063f259a07314610410578063f26749f314610a19578063f2fde38b14610a2c575f80fd5b8063e98539c5116100fa578063e98539c51461097b578063eb0de0421461098e578063ebe26816146109b0578063ee5462cc146109c3578063efb47bff146109d6575f80fd5b8063ca963c501461061c578063d075f9bb14610925578063d4c0fe4514610955578063d7334c9d14610968575f80fd5b8063a67e1f54116101ab578063b8fe8d5f1161017b578063b8fe8d5f1461089a578063be8c97b0146108bc578063c2e657ae146108ec578063c4cc9dba146108ff578063c537bed014610912575f80fd5b8063a67e1f5414610833578063a847cf4d14610846578063a9fc3d4f14610870578063b3c329cb14610887575f80fd5b80638fb4dff2116101f15780638fb4dff2146107b6578063957dc6c0146107d857806398b3cc39146107eb578063a1b6b430146107fe578063a4c1cccb14610811575f80fd5b806386b6dbe51461076d57806387301608146107805780638c2fdf9e1461078d5780638da5cb5b146107a0575f80fd5b80635e4ccace11610323578063715018a6116102ad578063761bcd9c1161027d578063761bcd9c146106f0578063780650861461070357806378addb48146107165780637ea446551461074757806386a6ae151461075a575f80fd5b8063715018a61461069857806372e548a9146106a057806373252494146106b3578063742bfc7e146106dd575f80fd5b80636ad11353116102f35780636ad113531461061c5780636d5025f11461062f5780636d9a1423146106425780636fd7fdef14610655578063713ebf3b14610685575f80fd5b80635e4ccace146105d05780635e6afe4d146105e357806363cc17f2146105f65780636a6d5cc814610609575f80fd5b80632dc32a61116103a4578063425f49d011610374578063425f49d0146105625780634b941268146105755780634b956bd81461059757806359b92be9146105aa5780635ace1d92146105bd575f80fd5b80632dc32a61146104ea57806334ec8d7e1461051a5780633cf200251461052d5780633ea355511461054f575f80fd5b80631c123e77116103df5780631c123e77146104825780631d49039c146104955780632c02cda0146104c55780632d12d788146104d7575f80fd5b806304a3ba251461041057806307ac35621461042557806307ef00cf146104385780631710a4f21461046f575b5f80fd5b61042361041e3660046139f3565b610aa9565b005b610423610433366004613b02565b610b5b565b61045a610446366004613b3c565b60066020525f908152604090205460ff1681565b60405190151581526020015b60405180910390f35b61042361047d366004613b02565b610e9b565b610423610490366004613b02565b610f4b565b61045a6104a3366004613b3c565b6001600160a01b03165f9081526007602052604090205460ff16151560011490565b6104236104d3366004613b5e565b5050565b6104236104e53660046139f3565b611046565b61045a6104f8366004613b3c565b6001600160a01b03165f9081526008602052604090205460ff16151560011490565b6104236105283660046139f3565b6110e6565b61045a61053b366004613b3c565b60056020525f908152604090205460ff1681565b61042361055d3660046139f3565b611161565b610423610570366004613b02565b6111b7565b61045a610583366004613b3c565b60086020525f908152604090205460ff1681565b6104236105a5366004613b02565b6111d8565b6104236105b8366004613b02565b61127b565b6104236105cb3660046139f3565b6112fc565b6104236105de366004613bc7565b61139f565b6104236105f13660046139f3565b61148d565b6104236106043660046139f3565b61167e565b610423610617366004613b02565b611721565b61042361062a366004613b02565b611809565b61042361063d366004613c26565b61182b565b6104236106503660046139f3565b61183d565b61045a610663366004613b3c565b6001600160a01b03165f9081526009602052604090205460ff16151560011490565b61045a610693366004613c54565b611873565b6104236118a8565b6104236106ae3660046139f3565b6118bb565b600a5461010090046001600160a01b03165b6040516001600160a01b039091168152602001610466565b6104236106eb366004613b02565b61195e565b6104236106fe366004613b02565b611a19565b610423610711366004613b02565b611b63565b61045a610724366004613b3c565b6001600160a01b03165f9081526001602081905260409091205460ff1615151490565b610423610755366004613b02565b611c22565b6104236107683660046139f3565b611ca5565b61042361077b3660046139f3565b611e22565b600a5461045a9060ff1681565b61042361079b3660046139f3565b611ec5565b600a5461010090046001600160a01b03166106c5565b61045a6107c4366004613b3c565b60096020525f908152604090205460ff1681565b6104236107e6366004613b02565b611f65565b6104236107f93660046139f3565b612023565b61042361080c366004613b02565b6120c6565b61045a61081f366004613b3c565b60036020525f908152604090205460ff1681565b6104236108413660046139f3565b612288565b61045a610854366004613c54565b5f60208181529281526040808220909352908152205460ff1681565b61087960025481565b604051908152602001610466565b610423610895366004613b3c565b612328565b61045a6108a8366004613b3c565b60016020525f908152604090205460ff1681565b61045a6108ca366004613b3c565b6001600160a01b03165f9081526004602052604090205460ff16151560011490565b6104236108fa366004613c87565b61239d565b61042361090d366004613b02565b61242c565b61045a610920366004613b3c565b61254a565b61045a610933366004613b3c565b6001600160a01b03165f9081526005602052604090205460ff16151560011490565b610423610963366004613b02565b61257b565b610423610976366004613bc7565b6125de565b610423610989366004613b02565b612693565b61045a61099c366004613b3c565b60076020525f908152604090205460ff1681565b6104236109be366004613b02565b612751565b6104236109d13660046139f3565b612804565b61045a6109e4366004613b3c565b6001600160a01b03165f9081526006602052604090205460ff16151560011490565b610423610a143660046139f3565b61280f565b610423610a27366004613c26565b612865565b610423610a3a366004613b3c565b6128da565b610423610a4d366004613b02565b612950565b610423610a603660046139f3565b6129cb565b610423610a733660046139f3565b612a6b565b61045a610a86366004613b3c565b60046020525f908152604090205460ff1681565b60405160018152602001610466565b600a546001600160a01b03610100909104163314610afb5760405162461bcd60e51b815260206004820181905260248201525f805160206143b683398151915260448201526064015b60405180910390fd5b6001600160a01b0383165f9081526007602052604090819020805460ff19169055517fb71be9befd3ac90c1c9981d3b1161b3c2c6dcd741f13b34061aa251226a802df90610b4e90859085908590613cd0565b60405180910390a1505050565b5f81806020019051810190610b709190613d82565b90505f5b8151811015610e96575f828281518110610b9057610b90613e2c565b602002602001015190505f610bb15f600484612b0e9092919063ffffffff16565b610bba90613e40565b90505f610bd76004808551610bcf9190613e8b565b859190612b0e565b6040805180820190915260208082527f7472616e736665724552433230496e28616464726573732c75696e74323536299101529050631dac092b60e11b6001600160e01b0319831601610c3257610c2d8161127b565b610e8b565b60408051808201909152601b81527f7472616e736665724552433230416c6c496e2861646472657373290000000000602090910152635cf59cb760e11b6001600160e01b0319831601610c8857610c2d81611c22565b60408051808201909152601881527f6465706f73697428616464726573732c6164647265737329000000000000000060209091015262d3ec1f60e31b6001600160e01b0319831601610cdd57610c2d8161242c565b60408051808201909152601981527f776974686472617728616464726573732c6164647265737329000000000000006020909101526306bf1c7b60e01b6001600160e01b0319831601610d3357610c2d81612950565b610d5a60405180606001604052806027815260200161447460279139805160209091012090565b6001600160e01b031916826001600160e01b03191603610d7d57610c2d81611809565b610da460405180606001604052806028815260200161444c60289139805160209091012090565b6001600160e01b031916826001600160e01b03191603610dc757610c2d81611809565b60408051808201909152601e81527f666c61736853776170416c6c4f75742875696e743235362c627974657329000060209091015263d2b3d16560e01b6001600160e01b0319831601610e1d57610c2d816111b7565b60405162461bcd60e51b815260206004820152603360248201527f76616c69646174655f3164656c74614d756c746963616c6c3a20556e6b6e6f7760448201527f6e2066756e6374696f6e2073656c6563746f72000000000000000000000000006064820152608401610af2565b505050600101610b74565b505050565b5f81806020019051810190610eb09190613ea9565b509050610ed9816001600160a01b03165f9081526006602052604090205460ff16151560011490565b6104d35760405162461bcd60e51b815260206004820152603c60248201527f76616c69646174655f7472616e736665723a205265636569766572206164647260448201527f657373206e6f742077686974656c6973746564206279204775617264000000006064820152608401610af2565b5f805b610f5783612c70565b5092509050610f658261254a565b610fc25760405162461bcd60e51b815260206004820152602860248201527f76616c6964617465556e69737761705633506174683a20546f6b656e206e6f7460448201526708185b1b1bddd95960c21b6064820152608401610af2565b610fcb8161254a565b6110285760405162461bcd60e51b815260206004820152602860248201527f76616c6964617465556e69737761705633506174683a20546f6b656e206e6f7460448201526708185b1b1bddd95960c21b6064820152608401610af2565b61103183612cab565b15610e965761103f83612ce4565b9250610f4e565b600a546001600160a01b036101009091041633146110935760405162461bcd60e51b815260206004820181905260248201525f805160206143b68339815191526044820152606401610af2565b6001600160a01b0383165f9081526005602052604090819020805460ff19169055517f4e13b11ab98e672bd78295ef9cebe764dc617f95decf47d842c25b83abc0c72490610b4e90859085908590613cd0565b6111188361111160405180606001604052806033815260200161441960339139805160209091012090565b848461139f565b6111438361111160405180606001604052806034815260200161449b60349139805160209091012090565b6111568363b858183f60e01b848461139f565b610e96838383612023565b61118c836111116040518060800160405280604381526020016142cc60439139805160209091012090565b6111568361111160405180608001604052806060815260200161430f60609139805160209091012090565b5f818060200190518101906111cc9190613ed5565b9150506104d3816120c6565b5f818060200190518101906111ed9190613ea9565b509050611216816001600160a01b03165f9081526007602052604090205460ff16151560011490565b6104d35760405162461bcd60e51b815260206004820152603060248201527f76616c69646174655f617070726f76653a20417070726f76652061646472657360448201526f0e640c8decae640dcdee840dac2e8c6d60831b6064820152608401610af2565b5f818060200190518101906112909190613ea9565b50905061129c8161254a565b6104d35760405162461bcd60e51b815260206004820152602b60248201527f76616c69646174655f7472616e736665724552433230496e3a20546f6b656e2060448201526a1b9bdd08185b1b1bddd95960aa1b6064820152608401610af2565b600a546001600160a01b036101009091041633146113495760405162461bcd60e51b815260206004820181905260248201525f805160206143b68339815191526044820152606401610af2565b6001600160a01b0383165f9081526006602052604090819020805460ff19166001179055517f3562181221a42a19ddd03a82dfe06acab1905ceb65cdaf7d86a1d9fec664355290610b4e90859085908590613cd0565b600a546001600160a01b036101009091041633146113ec5760405162461bcd60e51b815260206004820181905260248201525f805160206143b68339815191526044820152606401610af2565b6001600160a01b0384165f818152602081815260408083206001600160e01b03198816845282528083208054600160ff199182168117909255948452918290528220805490931617909155600280549161144583613f0f565b91905055507fef729aaa41b9fd994f9ff7c1960df214a84f722002e6cfbea31799cd0873a3ef8484848460405161147f9493929190613f27565b60405180910390a150505050565b600a546001600160a01b036101009091041633146114da5760405162461bcd60e51b815260206004820181905260248201525f805160206143b68339815191526044820152606401610af2565b6001600160a01b0383165f90815260096020908152604091829020805460ff191660011790558151808301909252600f82526e736574746c654465706f736974282960881b91015261154c837f559ec80da0b29925dac0e329ba0aaf8bbf2760bcaf9174e4ca42e01d74c0e6d0611111565b60408051808201909152600e81526d736574746c6552656465656d282960901b60209091015261159c837fa03d55e3f74b6754c01f274bb12d9c8a11ea8330b6b4ce7125c8dff1f63646ca611111565b604080518082019091526016815275736574746c654465706f7369742875696e743235362960501b6020909101526115f4837fd24ca58a10c001ae46e533b96327657c0a386bc41cac6e2db77fab9c775540b5611111565b604080518082019091526015815274736574746c6552656465656d2875696e743235362960581b60209091015261164b837fa627df6689990c734a41da64c298fd0d8c7cc1757a97e2f817ed479cf45d135d611111565b7ffaa136302ac223cf7c1146490a741e4520e886fc22d7e759641453f432283d01838383604051610b4e93929190613cd0565b600a546001600160a01b036101009091041633146116cb5760405162461bcd60e51b815260206004820181905260248201525f805160206143b68339815191526044820152606401610af2565b6001600160a01b0383165f9081526008602052604090819020805460ff19166001179055517f628a44970c0e450415e3ae74334ea44f3307b74dbf677a1371190242bf2f358990610b4e90859085908590613cd0565b5f80828060200190518101906117379190613f62565b92505091506117458261254a565b6117855760405162461bcd60e51b8152602060048201526011602482015270151bdad95b881b9bdd08185b1b1bddd959607a1b6044820152606401610af2565b6117ab816001600160a01b03165f9081526005602052604090205460ff16151560011490565b610e965760405162461bcd60e51b815260206004820152602960248201527f52656365697665722061646472657373206e6f742077686974656c697374656460448201526808189e4811dd585c9960ba1b6064820152608401610af2565b5f8180602001905181019061181e9190613fa2565b925050506104d3816120c6565b61183784848484612d15565b50505050565b611868836111116040518060600160405280602281526020016143f760229139805160209091012090565b610e96838383611e22565b6001600160a01b0382165f908152602081815260408083206001600160e01b03198516845290915290205460ff165b92915050565b6118b06136a0565b6118b95f6136ed565b565b600a546001600160a01b036101009091041633146119085760405162461bcd60e51b815260206004820181905260248201525f805160206143b68339815191526044820152606401610af2565b6001600160a01b0383165f9081526005602052604090819020805460ff19166001179055517f62dd88c5ecfa60713a657640ebec4de26fc1aefa4afdb24e6d15a124fce7277990610b4e90859085908590613cd0565b5f818060200190518101906119739190613fee565b5091505061199d816001600160a01b03165f9081526005602052604090205460ff16151560011490565b6104d35760405162461bcd60e51b815260206004820152604160248201527f76616c69646174655f4552433436323652656465656d3a20526563656976657260448201527f2061646472657373206e6f742077686974656c697374656420627920477561726064820152601960fa1b608482015260a401610af2565b5f8082806020019051810190611a2f9190614023565b50935093505050611a5c816001600160a01b03165f9081526005602052604090205460ff16151560011490565b611ae35760405162461bcd60e51b815260206004820152604c60248201527f76616c69646174655f737761704578616374546f6b656e73466f72546f6b656e60448201527f733a2052656365697665722061646472657373206e6f742077686974656c697360648201526b1d195908189e4811dd585c9960a21b608482015260a401610af2565b5f805b8351811015611b5c57838181518110611b0157611b01613e2c565b60200260200101519150611b148261254a565b611b545760405162461bcd60e51b8152602060048201526011602482015270151bdad95b881b9bdd08185b1b1bddd959607a1b6044820152606401610af2565b600101611ae6565b5050505050565b5f81806020019051810190611b789190613fee565b50915050611ba2816001600160a01b03165f9081526005602052604090205460ff16151560011490565b6104d35760405162461bcd60e51b815260206004820152604560248201527f76616c69646174655f455243343632365769746864726177616c3a205265636560448201527f697665722061646472657373206e6f742077686974656c69737465642062792060648201526411dd585c9960da1b608482015260a401610af2565b5f81806020019051810190611c3791906140e6565b9050611c428161254a565b6104d35760405162461bcd60e51b815260206004820152602e60248201527f76616c69646174655f7472616e736665724552433230416c6c496e3a20546f6b60448201526d195b881b9bdd08185b1b1bddd95960921b6064820152608401610af2565b5f8390505f816001600160a01b03166338d52e0f6040518163ffffffff1660e01b8152600401602060405180830381865afa158015611ce6573d5f803e3d5ffd5b505050506040513d601f19601f82011682018060405250810190611d0a91906140e6565b60408051808201909152601881527f6465706f7369742875696e743235362c61646472657373290000000000000000602090910152905084611d6f817f6e553f653991036c188afcef45e14f9ecb45269ff9c675358bbb3a2eeb78e03b5b878761139f565b611d9a86611d686040518060600160405280602181526020016143d660219139805160209091012090565b60408051808201909152601f81527f72656465656d2875696e743235362c616464726573732c616464726573732900602090910152611df9867fba087652ef750b77b3f3b86ecd8aac56de04fbc0d6751abdd0992cabce379054611d68565b611e04868686612023565b611e0f818686613753565b611e1a828686613753565b505050505050565b600a546001600160a01b03610100909104163314611e6f5760405162461bcd60e51b815260206004820181905260248201525f805160206143b68339815191526044820152606401610af2565b6001600160a01b0383165f9081526003602052604090819020805460ff19166001179055517fad90e2570fc4fe9f7437be3188d5c791c6662892d31731992aa88f5c8762198390610b4e90859085908590613cd0565b600a546001600160a01b03610100909104163314611f125760405162461bcd60e51b815260206004820181905260248201525f805160206143b68339815191526044820152606401610af2565b6001600160a01b0383165f9081526006602052604090819020805460ff19169055517f1212f8ddb39de8e1a339460c95752d61100723efeaa34ccd94bca94393f4093890610b4e90859085908590613cd0565b5f81806020019051810190611f7a9190613ea9565b509050611fa3816001600160a01b03165f9081526008602052604090205460ff16151560011490565b6104d35760405162461bcd60e51b815260206004820152604560248201527f76616c69646174655f617070726f766544656c65676174696f6e3a204170707260448201527f6f76652064656c65676174696f6e206164647265737320646f6573206e6f74206064820152640dac2e8c6d60db1b608482015260a401610af2565b600a546001600160a01b036101009091041633146120705760405162461bcd60e51b815260206004820181905260248201525f805160206143b68339815191526044820152606401610af2565b6001600160a01b0383165f9081526007602052604090819020805460ff19166001179055517f628a44970c0e450415e3ae74334ea44f3307b74dbf677a1371190242bf2f358990610b4e90859085908590613cd0565b5f805b6120d3835f61380c565b91506121026001806120e760036014614101565b6120f19190614101565b6120fb9190614101565b849061380c565b905061210d8261254a565b6121675760405162461bcd60e51b815260206004820152602560248201527f76616c69646174653164656c7461506174683a20546f6b656e206e6f7420616c6044820152641b1bddd95960da1b6064820152608401610af2565b6121708161254a565b6121ca5760405162461bcd60e51b815260206004820152602560248201527f76616c69646174653164656c7461506174683a20546f6b656e206e6f7420616c6044820152641b1bddd95960da1b6064820152608401610af2565b6001806121d960036014614101565b6121e39190614101565b6121ed9190614101565b60146001806121fd600384614101565b6122079190614101565b6122119190614101565b61221b9190614101565b6122259190614101565b835110610e965761228160018061223e60036014614101565b6122489190614101565b6122529190614101565b60018061226160036014614101565b61226b9190614101565b6122759190614101565b8551610bcf9190613e8b565b92506120c9565b600a546001600160a01b036101009091041633146122d55760405162461bcd60e51b815260206004820181905260248201525f805160206143b68339815191526044820152606401610af2565b6001600160a01b0383165f9081526004602052604090819020805460ff19169055517f3097928509c53a2dab9500431201d82b0d756e8f890fd01f4ae6b33b45687ea490610b4e90859085908590613cd0565b61234e816001600160a01b03165f9081526009602052604090205460ff16151560011490565b61239a5760405162461bcd60e51b815260206004820152601160248201527f5661756c74206e6f7420616c6c6f7765640000000000000000000000000000006044820152606401610af2565b50565b600a546001600160a01b036101009091041633146123ea5760405162461bcd60e51b815260206004820181905260248201525f805160206143b68339815191526044820152606401610af2565b600a805460ff19168415151790556040517f50454d9d0025a28a39cac5a4b3f3101d29b6e413fbb64f75fb42eb6837b0771890610b4e90859085908590614114565b5f8082806020019051810190612442919061412f565b9150915061244f8261254a565b6124b25760405162461bcd60e51b815260206004820152602e60248201527f76616c69646174655f7472616e736665724552433230416c6c496e3a20546f6b60448201526d195b881b9bdd08185b1b1bddd95960921b6064820152608401610af2565b6124d8816001600160a01b03165f9081526005602052604090205460ff16151560011490565b610e965760405162461bcd60e51b815260206004820152603b60248201527f76616c69646174655f6465706f7369743a20526563656976657220616464726560448201527f7373206e6f742077686974656c697374656420627920477561726400000000006064820152608401610af2565b600a545f9060ff16806118a25750506001600160a01b03165f9081526003602052604090205460ff16151560011490565b5f818060200190518101906125909190614167565b505050905061259e8161254a565b6104d35760405162461bcd60e51b8152602060048201526011602482015270151bdad95b881b9bdd08185b1b1bddd959607a1b6044820152606401610af2565b600a546001600160a01b0361010090910416331461262b5760405162461bcd60e51b815260206004820181905260248201525f805160206143b68339815191526044820152606401610af2565b6001600160a01b0384165f908152602081815260408083206001600160e01b03198716845290915290819020805460ff19169055517f37ea10f2d08f5a9803dfcd5abf3cfc7b0d6fcdf5fcbc36be9ea5a0b53d9a4d9b9061147f908690869086908690613f27565b5f818060200190518101906126a89190614242565b90506126d481602001516001600160a01b03165f9081526005602052604090205460ff16151560011490565b6127465760405162461bcd60e51b815260206004820152603f60248201527f76616c69646174655f65786163744f75747075743a205265636569766572206160448201527f646472657373206e6f742077686974656c6973746564206279204775617264006064820152608401610af2565b80516104d390610f4b565b5f818060200190518101906127669190614242565b905061279281602001516001600160a01b03165f9081526005602052604090205460ff16151560011490565b6127465760405162461bcd60e51b815260206004820152603e60248201527f76616c69646174655f6578616374496e7075743a20526563656976657220616460448201527f6472657373206e6f742077686974656c697374656420627920477561726400006064820152608401610af2565b610e96838383613753565b61283a8361111160405180606001604052806026815260200161436f60269139805160209091012090565b6111568361111160405180606001604052806021815260200161439560219139805160209091012090565b6040805180820190915260128152716d756c746963616c6c2862797465735b5d2960701b6020909101526128b9847fac9650d882acfa253cba1ed543b9ff47351da99c3bd00a89625e5cdb2099009c611111565b6128c4848383612023565b6128cf838383612023565b61183784838361167e565b6128e26136a0565b6001600160a01b0381166129475760405162461bcd60e51b815260206004820152602660248201527f4f776e61626c653a206e6577206f776e657220697320746865207a65726f206160448201526564647265737360d01b6064820152608401610af2565b61239a816136ed565b5f8082806020019051810190612966919061412f565b915091506129738261254a565b6124b25760405162461bcd60e51b8152602060048201526024808201527f76616c69646174655f77697468647261773a20546f6b656e206e6f7420616c6c6044820152631bddd95960e21b6064820152608401610af2565b600a546001600160a01b03610100909104163314612a185760405162461bcd60e51b815260206004820181905260248201525f805160206143b68339815191526044820152606401610af2565b6001600160a01b0383165f9081526003602052604090819020805460ff19169055517f9ca3f065622f5f03f32b7157677a0e420c3a36ab45fd49f256ffebce3e31058790610b4e90859085908590613cd0565b600a546001600160a01b03610100909104163314612ab85760405162461bcd60e51b815260206004820181905260248201525f805160206143b68339815191526044820152606401610af2565b6001600160a01b0383165f9081526004602052604090819020805460ff19166001179055517fa8f9caaf4861720900294428e4ff34d37070c37afd26d96e6e4da75326d2c3ad90610b4e90859085908590613cd0565b606081612b1c81601f614101565b1015612b5b5760405162461bcd60e51b815260206004820152600e60248201526d736c6963655f6f766572666c6f7760901b6044820152606401610af2565b82612b668382614101565b1015612ba55760405162461bcd60e51b815260206004820152600e60248201526d736c6963655f6f766572666c6f7760901b6044820152606401610af2565b612baf8284614101565b84511015612bff5760405162461bcd60e51b815260206004820152601160248201527f736c6963655f6f75744f66426f756e64730000000000000000000000000000006044820152606401610af2565b606082158015612c1d5760405191505f825260208201604052612c67565b6040519150601f8416801560200281840101858101878315602002848b0101015b81831015612c56578051835260209283019201612c3e565b5050858452601f01601f1916604052505b50949350505050565b5f8080612c7d848261380c565b9250612c8a8460146138db565b9050612ca2612c9b60036014614101565b859061380c565b91509193909250565b5f612cb860036014614101565b6014612cc5600382614101565b612ccf9190614101565b612cd99190614101565b825110159050919050565b60606118a2612cf560036014614101565b612d0160036014614101565b8451612d0d9190613e8b565b849190612b0e565b600a546001600160a01b03858116610100909204161461183757612d55846001600160a01b03165f9081526004602052604090205460ff16151560011490565b612da15760405162461bcd60e51b815260206004820181905260248201527f76616c696461746543616c6c3a2053656e646572206e6f7420616c6c6f7765646044820152606401610af2565b5f612daf6004828486614274565b612db89161429b565b9050365f612dc98460048188614274565b600a5491935091505f9060ff168015612e225750604080518082019091526018815277617070726f766528616464726573732c75696e743235362960401b60209091015263095ea7b360e01b6001600160e01b03198516145b905080612f1357612e338785611873565b612f13576001600160a01b0387165f9081526001602081905260409091205460ff16151514612ea45760405162461bcd60e51b815260206004820181905260248201527f76616c696461746543616c6c3a20746172676574206e6f7420616c6c6f7765646044820152606401610af2565b612eae8785611873565b612f135760405162461bcd60e51b815260206004820152603060248201527f76616c696461746543616c6c3a2073656c6563746f72206e6f7420616c6c6f7760448201526f1959081bdb881d1a19481d185c99d95d60821b6064820152608401610af2565b612f3a6040518060800160405280604381526020016142cc60439139805160209091012090565b6001600160e01b031916846001600160e01b03191603612f9757612f9283838080601f0160208091040260200160405190810160405280939291908181526020018383808284375f92019190915250611a1992505050565b613696565b612fbe60405180606001604052806033815260200161441960339139805160209091012090565b6001600160e01b031916846001600160e01b0319160361301657612f9283838080601f0160208091040260200160405190810160405280939291908181526020018383808284375f9201919091525061275192505050565b6001600160e01b0319841663b858183f60e01b036130bd57600a5460ff16612f925760405162461bcd60e51b815260206004820152604e60248201527f76616c696461746543616c6c3a2053776170526f75746572303220697320637560448201527f7272656e746c7920737570706f72746564206f6e6c79207769746820616e794160648201526d1cdcd95d081dda1a5d195b1a5cdd60921b608482015260a401610af2565b6040805180820190915260128152716d756c746963616c6c2862797465735b5d2960701b602090910152630a6d35e560e31b6001600160e01b031985160161313d57612f9283838080601f0160208091040260200160405190810160405280939291908181526020018383808284375f92019190915250610b5b92505050565b60408051808201909152601981527f7472616e7366657228616464726573732c75696e7432353629000000000000006020909101526356fa634560e01b6001600160e01b03198516016131c857612f9283838080601f0160208091040260200160405190810160405280939291908181526020018383808284375f92019190915250610e9b92505050565b604080518082019091526018815277617070726f766528616464726573732c75696e743235362960401b60209091015263f6a1584d60e01b6001600160e01b031985160161324e57612f9283838080601f0160208091040260200160405190810160405280939291908181526020018383808284375f920191909152506111d892505050565b6132756040518060600160405280602281526020016143f760229139805160209091012090565b6001600160e01b031916846001600160e01b031916036132cd57612f9283838080601f0160208091040260200160405190810160405280939291908181526020018383808284375f92019190915250611f6592505050565b6132f460405180606001604052806026815260200161436f60269139805160209091012090565b6001600160e01b031916846001600160e01b0319160361334c57612f9283838080601f0160208091040260200160405190810160405280939291908181526020018383808284375f9201919091525061257b92505050565b61337360405180606001604052806021815260200161439560219139805160209091012090565b6001600160e01b031916846001600160e01b031916036133cb57612f9283838080601f0160208091040260200160405190810160405280939291908181526020018383808284375f9201919091525061172192505050565b60408051808201909152600f81526e736574746c654465706f736974282960881b60209091015263aa6137f360e01b6001600160e01b031985160161341357612f9287612328565b60408051808201909152600e81526d736574746c6552656465656d282960901b602090910152635fc2aa1d60e01b6001600160e01b031985160161345a57612f9287612328565b604080518082019091526016815275736574746c654465706f7369742875696e743235362960501b6020909101526316d9ad3b60e11b6001600160e01b03198516016134a957612f9287612328565b604080518082019091526015815274736574746c6552656465656d2875696e743235362960581b602090910152632cec104d60e11b6001600160e01b03198516016134f757612f9287612328565b60408051808201909152601881527f6465706f7369742875696e743235362c61646472657373290000000000000000602090910152636e553f6560e01b6001600160e01b03198516146136965761356b6040518060600160405280602181526020016143d660219139805160209091012090565b6001600160e01b031916846001600160e01b031916036135c357612f9283838080601f0160208091040260200160405190810160405280939291908181526020018383808284375f92019190915250611b6392505050565b60408051808201909152601f81527f72656465656d2875696e743235362c616464726573732c6164647265737329006020909101526322fbc4d760e11b6001600160e01b031985160161364e57612f9283838080601f0160208091040260200160405190810160405280939291908181526020018383808284375f9201919091525061195e92505050565b60405162461bcd60e51b815260206004820152601960248201527f556e6b6e6f776e2066756e6374696f6e2073656c6563746f72000000000000006044820152606401610af2565b5050505050505050565b600a546001600160a01b036101009091041633146118b95760405162461bcd60e51b815260206004820181905260248201525f805160206143b68339815191526044820152606401610af2565b600a80546001600160a01b0383811661010081810274ffffffffffffffffffffffffffffffffffffffff001985161790945560405193909204169182907f8be0079c531659141344cd1fd0a4f28419497f9722a3daafe3b4186f6b6457e0905f90a35050565b60408051808201909152601981527f7472616e7366657228616464726573732c75696e7432353629000000000000006020909101526137b2837fa9059cbb2ab09eb219583f4a59a5d0623ade346d962bcd4e46b11da047c9049b611111565b604080518082019091526018815277617070726f766528616464726573732c75696e743235362960401b602090910152611868837f095ea7b334ae44009aa867bfb386f5c3b4b443ac6f0ee573fa91c4608fbadfba611111565b5f81613819816014614101565b10156138675760405162461bcd60e51b815260206004820152601260248201527f746f416464726573735f6f766572666c6f7700000000000000000000000000006044820152606401610af2565b613872826014614101565b835110156138c25760405162461bcd60e51b815260206004820152601560248201527f746f416464726573735f6f75744f66426f756e647300000000000000000000006044820152606401610af2565b5001602001516c01000000000000000000000000900490565b5f816138e8816003614101565b10156139365760405162461bcd60e51b815260206004820152601160248201527f746f55696e7432345f6f766572666c6f770000000000000000000000000000006044820152606401610af2565b613941826003614101565b835110156139915760405162461bcd60e51b815260206004820152601460248201527f746f55696e7432345f6f75744f66426f756e64730000000000000000000000006044820152606401610af2565b50016003015190565b6001600160a01b038116811461239a575f80fd5b5f8083601f8401126139be575f80fd5b50813567ffffffffffffffff8111156139d5575f80fd5b6020830191508360208285010111156139ec575f80fd5b9250929050565b5f805f60408486031215613a05575f80fd5b8335613a108161399a565b9250602084013567ffffffffffffffff811115613a2b575f80fd5b613a37868287016139ae565b9497909650939450505050565b634e487b7160e01b5f52604160045260245ffd5b604051601f8201601f1916810167ffffffffffffffff81118282101715613a8157613a81613a44565b604052919050565b5f67ffffffffffffffff821115613aa257613aa2613a44565b50601f01601f191660200190565b5f82601f830112613abf575f80fd5b8135613ad2613acd82613a89565b613a58565b818152846020838601011115613ae6575f80fd5b816020850160208301375f918101602001919091529392505050565b5f60208284031215613b12575f80fd5b813567ffffffffffffffff811115613b28575f80fd5b613b3484828501613ab0565b949350505050565b5f60208284031215613b4c575f80fd5b8135613b578161399a565b9392505050565b5f8060408385031215613b6f575f80fd5b8235613b7a8161399a565b9150602083013567ffffffffffffffff811115613b95575f80fd5b613ba185828601613ab0565b9150509250929050565b80356001600160e01b031981168114613bc2575f80fd5b919050565b5f805f8060608587031215613bda575f80fd5b8435613be58161399a565b9350613bf360208601613bab565b9250604085013567ffffffffffffffff811115613c0e575f80fd5b613c1a878288016139ae565b95989497509550505050565b5f805f8060608587031215613c39575f80fd5b8435613c448161399a565b93506020850135613bf38161399a565b5f8060408385031215613c65575f80fd5b8235613c708161399a565b9150613c7e60208401613bab565b90509250929050565b5f805f60408486031215613c99575f80fd5b83358015158114613a10575f80fd5b81835281816020850137505f828201602090810191909152601f909101601f19169091010190565b6001600160a01b0384168152604060208201525f613cf2604083018486613ca8565b95945050505050565b5f67ffffffffffffffff821115613d1457613d14613a44565b5060051b60200190565b5f82601f830112613d2d575f80fd5b8151613d3b613acd82613a89565b8181526020856020848701011115613d51575f80fd5b5f5b83811015613d6e578581018201518382018301528101613d53565b50505f918101602001919091529392505050565b5f6020808385031215613d93575f80fd5b825167ffffffffffffffff80821115613daa575f80fd5b818501915085601f830112613dbd575f80fd5b8151613dcb613acd82613cfb565b81815260059190911b83018401908481019088831115613de9575f80fd5b8585015b83811015613e1f57805185811115613e03575f80fd5b613e118b89838a0101613d1e565b845250918601918601613ded565b5098975050505050505050565b634e487b7160e01b5f52603260045260245ffd5b805160208201516001600160e01b03198082169291906004831015613e6f5780818460040360031b1b83161693505b505050919050565b634e487b7160e01b5f52601160045260245ffd5b818103818111156118a2576118a2613e77565b8051613bc28161399a565b5f8060408385031215613eba575f80fd5b8251613ec58161399a565b6020939093015192949293505050565b5f8060408385031215613ee6575f80fd5b82519150602083015167ffffffffffffffff811115613f03575f80fd5b613ba185828601613d1e565b5f60018201613f2057613f20613e77565b5060010190565b6001600160a01b038516815263ffffffff60e01b84166020820152606060408201525f613f58606083018486613ca8565b9695505050505050565b5f805f60608486031215613f74575f80fd5b8351613f7f8161399a565b602085015160408601519194509250613f978161399a565b809150509250925092565b5f805f60608486031215613fb4575f80fd5b8351925060208401519150604084015167ffffffffffffffff811115613fd8575f80fd5b613fe486828701613d1e565b9150509250925092565b5f805f60608486031215614000575f80fd5b8351925060208401516140128161399a565b6040850151909250613f978161399a565b5f805f805f60a08688031215614037575f80fd5b855194506020808701519450604087015167ffffffffffffffff81111561405c575f80fd5b8701601f8101891361406c575f80fd5b805161407a613acd82613cfb565b81815260059190911b8201830190838101908b831115614098575f80fd5b928401925b828410156140bf5783516140b08161399a565b8252928401929084019061409d565b80975050505050506140d360608701613e9e565b9150608086015190509295509295909350565b5f602082840312156140f6575f80fd5b8151613b578161399a565b808201808211156118a2576118a2613e77565b8315158152604060208201525f613cf2604083018486613ca8565b5f8060408385031215614140575f80fd5b825161414b8161399a565b602084015190925061415c8161399a565b809150509250929050565b5f805f806080858703121561417a575f80fd5b84516141858161399a565b60208601516040870151919550935061419d8161399a565b6060959095015193969295505050565b5f60a082840312156141bd575f80fd5b60405160a0810167ffffffffffffffff82821081831117156141e1576141e1613a44565b8160405282935084519150808211156141f8575f80fd5b5061420585828601613d1e565b82525060208301516142168161399a565b806020830152506040830151604082015260608301516060820152608083015160808201525092915050565b5f60208284031215614252575f80fd5b815167ffffffffffffffff811115614268575f80fd5b613b34848285016141ad565b5f8085851115614282575f80fd5b8386111561428e575f80fd5b5050820193919092039150565b6001600160e01b031981358181169160048510156142c35780818660040360031b1b83161692505b50509291505056fe737761704578616374546f6b656e73466f72546f6b656e732875696e743235362c75696e743235362c616464726573735b5d2c616464726573732c75696e7432353629737761704578616374546f6b656e73466f72546f6b656e73537570706f7274696e674665654f6e5472616e73666572546f6b656e732875696e743235362c75696e743235362c616464726573735b5d2c616464726573732c75696e7432353629737570706c7928616464726573732c75696e743235362c616464726573732c75696e74313629776974686472617728616464726573732c75696e743235362c61646472657373294f776e61626c653a2063616c6c6572206973206e6f7420746865206f776e657277697468647261772875696e743235362c616464726573732c6164647265737329617070726f766544656c65676174696f6e28616464726573732c75696e74323536296578616374496e707574282862797465732c616464726573732c75696e743235362c75696e743235362c75696e743235362929666c6173685377617045786163744f75742875696e743235362c75696e743235362c627974657329666c617368537761704578616374496e2875696e743235362c75696e743235362c62797465732965786163744f7574707574282862797465732c616464726573732c75696e743235362c75696e743235362c75696e743235362929a264697066735822122034ba673acfc9f2841ab6d9ad5a6ae205b813571915c8cdb05e7f1a85d1da3c9064736f6c63430008170033","linkReferences":{}},"methodIdentifiers":{"allowApprovalDestination(address,string)":"98b3cc39","allowAsset(address,string)":"86b6dbe5","allowCallSite(address,bytes4,string)":"5e4ccace","allowDelegationApprovalDestination(address,string)":"63cc17f2","allowReceiver(address,string)":"72e548a9","allowSender(address,string)":"fa2c59c8","allowWithdrawDestination(address,string)":"5ace1d92","allowedApprovalDestinations(address)":"eb0de042","allowedAssets(address)":"a4c1cccb","allowedCallSites(address,bytes4)":"a847cf4d","allowedDelegationApprovalDestinations(address)":"4b941268","allowedLagoonVaults(address)":"8fb4dff2","allowedReceivers(address)":"3cf20025","allowedSenders(address)":"fadbcf48","allowedTargets(address)":"b8fe8d5f","allowedWithdrawDestinations(address)":"07ef00cf","anyAsset()":"87301608","callSiteCount()":"a9fc3d4f","getGovernanceAddress()":"73252494","getInternalVersion()":"fdedfa27","isAllowedApprovalDestination(address)":"1d49039c","isAllowedAsset(address)":"c537bed0","isAllowedCallSite(address,bytes4)":"713ebf3b","isAllowedDelegationApprovalDestination(address)":"2dc32a61","isAllowedLagoonVault(address)":"6fd7fdef","isAllowedReceiver(address)":"d075f9bb","isAllowedSender(address)":"be8c97b0","isAllowedTarget(address)":"78addb48","isAllowedWithdrawDestination(address)":"efb47bff","owner()":"8da5cb5b","removeApprovalDestination(address,string)":"04a3ba25","removeAsset(address,string)":"f901dc33","removeCallSite(address,bytes4,string)":"d7334c9d","removeDelegationApprovalDestination(address,string)":"f259a073","removeReceiver(address,string)":"2d12d788","removeSender(address,string)":"a67e1f54","removeWithdrawDestination(address,string)":"8c2fdf9e","renounceOwnership()":"715018a6","setAnyAssetAllowed(bool,string)":"c2e657ae","transferOwnership(address)":"f2fde38b","validate1deltaPath(bytes)":"a1b6b430","validateCall(address,address,bytes)":"6d5025f1","validateUniswapV3Path(bytes)":"1c123e77","validate_1deltaDeposit(bytes)":"c4cc9dba","validate_1deltaMulticall(bytes)":"07ac3562","validate_1deltaWithdraw(bytes)":"f76081e4","validate_ERC4626Deposit(address,bytes)":"2c02cda0","validate_ERC4626Redeem(bytes)":"742bfc7e","validate_ERC4626Withdraw(bytes)":"78065086","validate_aaveSupply(bytes)":"d4c0fe45","validate_aaveWithdraw(bytes)":"6a6d5cc8","validate_approve(bytes)":"4b956bd8","validate_approveDelegation(bytes)":"957dc6c0","validate_exactInput(bytes)":"ebe26816","validate_exactOutput(bytes)":"e98539c5","validate_flashSwapAllOut(bytes)":"425f49d0","validate_flashSwapExactInt(bytes)":"ca963c50","validate_flashSwapExactOut(bytes)":"6ad11353","validate_lagoonSettle(address)":"b3c329cb","validate_swapExactTokensForTokens(bytes)":"761bcd9c","validate_transfer(bytes)":"1710a4f2","validate_transferERC20AllIn(bytes)":"7ea44655","validate_transferERC20In(bytes)":"59b92be9","whitelistAaveV3(address,string)":"f20e85e0","whitelistERC4626(address,string)":"86a6ae15","whitelistLagoon(address,string)":"5e6afe4d","whitelistOnedelta(address,address,string)":"f26749f3","whitelistToken(address,string)":"ee5462cc","whitelistTokenForDelegation(address,string)":"6d9a1423","whitelistUniswapV2Router(address,string)":"3ea35551","whitelistUniswapV3Router(address,string)":"34ec8d7e"},"id":2}