{"abi":[{"type":"constructor","inputs":[],"stateMutability":"nonpayable"},{"type":"function","name":"_SIGN_COOLDOWN","inputs":[],"outputs":[{"name":"","type":"uint256","internalType":"uint256"}],"stateMutability":"view"},{"type":"function","name":"allowApprovalDestination","inputs":[{"name":"destination","type":"address","internalType":"address"},{"name":"notes","type":"string","internalType":"string"}],"outputs":[],"stateMutability":"nonpayable"},{"type":"function","name":"allowAsset","inputs":[{"name":"asset","type":"address","internalType":"address"},{"name":"notes","type":"string","internalType":"string"}],"outputs":[],"stateMutability":"nonpayable"},{"type":"function","name":"allowCallSite","inputs":[{"name":"target","type":"address","internalType":"address"},{"name":"selector","type":"bytes4","internalType":"bytes4"},{"name":"notes","type":"string","internalType":"string"}],"outputs":[],"stateMutability":"nonpayable"},{"type":"function","name":"allowDelegationApprovalDestination","inputs":[{"name":"destination","type":"address","internalType":"address"},{"name":"notes","type":"string","internalType":"string"}],"outputs":[],"stateMutability":"nonpayable"},{"type":"function","name":"allowReceiver","inputs":[{"name":"receiver","type":"address","internalType":"address"},{"name":"notes","type":"string","internalType":"string"}],"outputs":[],"stateMutability":"nonpayable"},{"type":"function","name":"allowSender","inputs":[{"name":"sender","type":"address","internalType":"address"},{"name":"notes","type":"string","internalType":"string"}],"outputs":[],"stateMutability":"nonpayable"},{"type":"function","name":"allowWithdrawDestination","inputs":[{"name":"destination","type":"address","internalType":"address"},{"name":"notes","type":"string","internalType":"string"}],"outputs":[],"stateMutability":"nonpayable"},{"type":"function","name":"allowedApprovalDestinations","inputs":[{"name":"destination","type":"address","internalType":"address"}],"outputs":[{"name":"allowed","type":"bool","internalType":"bool"}],"stateMutability":"view"},{"type":"function","name":"allowedAssets","inputs":[{"name":"token","type":"address","internalType":"address"}],"outputs":[{"name":"allowed","type":"bool","internalType":"bool"}],"stateMutability":"view"},{"type":"function","name":"allowedCallSites","inputs":[{"name":"target","type":"address","internalType":"address"},{"name":"selector","type":"bytes4","internalType":"bytes4"}],"outputs":[{"name":"allowed","type":"bool","internalType":"bool"}],"stateMutability":"view"},{"type":"function","name":"allowedCowSwaps","inputs":[{"name":"destination","type":"address","internalType":"address"}],"outputs":[{"name":"allowed","type":"bool","internalType":"bool"}],"stateMutability":"view"},{"type":"function","name":"allowedDelegationApprovalDestinations","inputs":[{"name":"destination","type":"address","internalType":"address"}],"outputs":[{"name":"allowed","type":"bool","internalType":"bool"}],"stateMutability":"view"},{"type":"function","name":"allowedGMXMarkets","inputs":[{"name":"market","type":"address","internalType":"address"}],"outputs":[{"name":"allowed","type":"bool","internalType":"bool"}],"stateMutability":"view"},{"type":"function","name":"allowedGMXRouters","inputs":[{"name":"destination","type":"address","internalType":"address"}],"outputs":[{"name":"allowed","type":"bool","internalType":"bool"}],"stateMutability":"view"},{"type":"function","name":"allowedLagoonVaults","inputs":[{"name":"destination","type":"address","internalType":"address"}],"outputs":[{"name":"allowed","type":"bool","internalType":"bool"}],"stateMutability":"view"},{"type":"function","name":"allowedReceivers","inputs":[{"name":"receiver","type":"address","internalType":"address"}],"outputs":[{"name":"allowed","type":"bool","internalType":"bool"}],"stateMutability":"view"},{"type":"function","name":"allowedSenders","inputs":[{"name":"sender","type":"address","internalType":"address"}],"outputs":[{"name":"allowed","type":"bool","internalType":"bool"}],"stateMutability":"view"},{"type":"function","name":"allowedTargets","inputs":[{"name":"target","type":"address","internalType":"address"}],"outputs":[{"name":"allowed","type":"bool","internalType":"bool"}],"stateMutability":"view"},{"type":"function","name":"allowedVeloraSwappers","inputs":[{"name":"destination","type":"address","internalType":"address"}],"outputs":[{"name":"allowed","type":"bool","internalType":"bool"}],"stateMutability":"view"},{"type":"function","name":"allowedWithdrawDestinations","inputs":[{"name":"destination","type":"address","internalType":"address"}],"outputs":[{"name":"allowed","type":"bool","internalType":"bool"}],"stateMutability":"view"},{"type":"function","name":"anyAsset","inputs":[],"outputs":[{"name":"","type":"bool","internalType":"bool"}],"stateMutability":"view"},{"type":"function","name":"callSiteCount","inputs":[],"outputs":[{"name":"","type":"uint256","internalType":"uint256"}],"stateMutability":"view"},{"type":"function","name":"getGovernanceAddress","inputs":[],"outputs":[{"name":"","type":"address","internalType":"address"}],"stateMutability":"view"},{"type":"function","name":"getInternalVersion","inputs":[],"outputs":[{"name":"","type":"uint8","internalType":"uint8"}],"stateMutability":"pure"},{"type":"function","name":"gmxOrderVaults","inputs":[{"name":"exchangeRouter","type":"address","internalType":"address"}],"outputs":[{"name":"orderVault","type":"address","internalType":"address"}],"stateMutability":"view"},{"type":"function","name":"isAllowedApprovalDestination","inputs":[{"name":"receiver","type":"address","internalType":"address"}],"outputs":[{"name":"","type":"bool","internalType":"bool"}],"stateMutability":"view"},{"type":"function","name":"isAllowedAsset","inputs":[{"name":"token","type":"address","internalType":"address"}],"outputs":[{"name":"","type":"bool","internalType":"bool"}],"stateMutability":"view"},{"type":"function","name":"isAllowedCallSite","inputs":[{"name":"target","type":"address","internalType":"address"},{"name":"selector","type":"bytes4","internalType":"bytes4"}],"outputs":[{"name":"","type":"bool","internalType":"bool"}],"stateMutability":"view"},{"type":"function","name":"isAllowedCowSwap","inputs":[{"name":"settlement","type":"address","internalType":"address"}],"outputs":[{"name":"","type":"bool","internalType":"bool"}],"stateMutability":"view"},{"type":"function","name":"isAllowedDelegationApprovalDestination","inputs":[{"name":"receiver","type":"address","internalType":"address"}],"outputs":[{"name":"","type":"bool","internalType":"bool"}],"stateMutability":"view"},{"type":"function","name":"isAllowedGMXMarket","inputs":[{"name":"market","type":"address","internalType":"address"}],"outputs":[{"name":"","type":"bool","internalType":"bool"}],"stateMutability":"view"},{"type":"function","name":"isAllowedGMXRouter","inputs":[{"name":"router","type":"address","internalType":"address"}],"outputs":[{"name":"","type":"bool","internalType":"bool"}],"stateMutability":"view"},{"type":"function","name":"isAllowedLagoonVault","inputs":[{"name":"vault","type":"address","internalType":"address"}],"outputs":[{"name":"","type":"bool","internalType":"bool"}],"stateMutability":"view"},{"type":"function","name":"isAllowedReceiver","inputs":[{"name":"receiver","type":"address","internalType":"address"}],"outputs":[{"name":"","type":"bool","internalType":"bool"}],"stateMutability":"view"},{"type":"function","name":"isAllowedSender","inputs":[{"name":"sender","type":"address","internalType":"address"}],"outputs":[{"name":"","type":"bool","internalType":"bool"}],"stateMutability":"view"},{"type":"function","name":"isAllowedTarget","inputs":[{"name":"target","type":"address","internalType":"address"}],"outputs":[{"name":"","type":"bool","internalType":"bool"}],"stateMutability":"view"},{"type":"function","name":"isAllowedVeloraSwapper","inputs":[{"name":"swapper","type":"address","internalType":"address"}],"outputs":[{"name":"","type":"bool","internalType":"bool"}],"stateMutability":"view"},{"type":"function","name":"isAllowedWithdrawDestination","inputs":[{"name":"receiver","type":"address","internalType":"address"}],"outputs":[{"name":"","type":"bool","internalType":"bool"}],"stateMutability":"view"},{"type":"function","name":"multicall","inputs":[{"name":"data","type":"bytes[]","internalType":"bytes[]"}],"outputs":[{"name":"results","type":"bytes[]","internalType":"bytes[]"}],"stateMutability":"payable"},{"type":"function","name":"owner","inputs":[],"outputs":[{"name":"","type":"address","internalType":"address"}],"stateMutability":"view"},{"type":"function","name":"removeApprovalDestination","inputs":[{"name":"destination","type":"address","internalType":"address"},{"name":"notes","type":"string","internalType":"string"}],"outputs":[],"stateMutability":"nonpayable"},{"type":"function","name":"removeAsset","inputs":[{"name":"asset","type":"address","internalType":"address"},{"name":"notes","type":"string","internalType":"string"}],"outputs":[],"stateMutability":"nonpayable"},{"type":"function","name":"removeCallSite","inputs":[{"name":"target","type":"address","internalType":"address"},{"name":"selector","type":"bytes4","internalType":"bytes4"},{"name":"notes","type":"string","internalType":"string"}],"outputs":[],"stateMutability":"nonpayable"},{"type":"function","name":"removeDelegationApprovalDestination","inputs":[{"name":"destination","type":"address","internalType":"address"},{"name":"notes","type":"string","internalType":"string"}],"outputs":[],"stateMutability":"nonpayable"},{"type":"function","name":"removeGMXMarket","inputs":[{"name":"market","type":"address","internalType":"address"},{"name":"notes","type":"string","internalType":"string"}],"outputs":[],"stateMutability":"nonpayable"},{"type":"function","name":"removeReceiver","inputs":[{"name":"receiver","type":"address","internalType":"address"},{"name":"notes","type":"string","internalType":"string"}],"outputs":[],"stateMutability":"nonpayable"},{"type":"function","name":"removeSender","inputs":[{"name":"sender","type":"address","internalType":"address"},{"name":"notes","type":"string","internalType":"string"}],"outputs":[],"stateMutability":"nonpayable"},{"type":"function","name":"removeWithdrawDestination","inputs":[{"name":"destination","type":"address","internalType":"address"},{"name":"notes","type":"string","internalType":"string"}],"outputs":[],"stateMutability":"nonpayable"},{"type":"function","name":"renounceOwnership","inputs":[],"outputs":[],"stateMutability":"nonpayable"},{"type":"function","name":"setAnyAssetAllowed","inputs":[{"name":"value","type":"bool","internalType":"bool"},{"name":"notes","type":"string","internalType":"string"}],"outputs":[],"stateMutability":"nonpayable"},{"type":"function","name":"transferOwnership","inputs":[{"name":"newOwner","type":"address","internalType":"address"}],"outputs":[],"stateMutability":"nonpayable"},{"type":"function","name":"validateCall","inputs":[{"name":"sender","type":"address","internalType":"address"},{"name":"target","type":"address","internalType":"address"},{"name":"callDataWithSelector","type":"bytes","internalType":"bytes"}],"outputs":[],"stateMutability":"view"},{"type":"function","name":"validateUniswapV3Path","inputs":[{"name":"path","type":"bytes","internalType":"bytes"}],"outputs":[],"stateMutability":"view"},{"type":"function","name":"validate_ERC4626Deposit","inputs":[{"name":"target","type":"address","internalType":"address"},{"name":"callData","type":"bytes","internalType":"bytes"}],"outputs":[],"stateMutability":"view"},{"type":"function","name":"validate_ERC4626Redeem","inputs":[{"name":"callData","type":"bytes","internalType":"bytes"}],"outputs":[],"stateMutability":"view"},{"type":"function","name":"validate_ERC4626Withdraw","inputs":[{"name":"callData","type":"bytes","internalType":"bytes"}],"outputs":[],"stateMutability":"view"},{"type":"function","name":"validate_UmamiDeposit","inputs":[{"name":"callData","type":"bytes","internalType":"bytes"}],"outputs":[],"stateMutability":"view"},{"type":"function","name":"validate_UmamiRedeem","inputs":[{"name":"callData","type":"bytes","internalType":"bytes"}],"outputs":[],"stateMutability":"view"},{"type":"function","name":"validate_aaveSupply","inputs":[{"name":"callData","type":"bytes","internalType":"bytes"}],"outputs":[],"stateMutability":"view"},{"type":"function","name":"validate_aaveWithdraw","inputs":[{"name":"callData","type":"bytes","internalType":"bytes"}],"outputs":[],"stateMutability":"view"},{"type":"function","name":"validate_approve","inputs":[{"name":"callData","type":"bytes","internalType":"bytes"}],"outputs":[],"stateMutability":"view"},{"type":"function","name":"validate_approveDelegation","inputs":[{"name":"callData","type":"bytes","internalType":"bytes"}],"outputs":[],"stateMutability":"view"},{"type":"function","name":"validate_cowSwapSettlement","inputs":[{"name":"callData","type":"bytes","internalType":"bytes"}],"outputs":[],"stateMutability":"view"},{"type":"function","name":"validate_exactInput","inputs":[{"name":"callData","type":"bytes","internalType":"bytes"}],"outputs":[],"stateMutability":"view"},{"type":"function","name":"validate_exactOutput","inputs":[{"name":"callData","type":"bytes","internalType":"bytes"}],"outputs":[],"stateMutability":"view"},{"type":"function","name":"validate_gmxMulticall","inputs":[{"name":"exchangeRouter","type":"address","internalType":"address"},{"name":"callData","type":"bytes","internalType":"bytes"}],"outputs":[],"stateMutability":"view"},{"type":"function","name":"validate_lagoonSettle","inputs":[{"name":"vault","type":"address","internalType":"address"}],"outputs":[],"stateMutability":"view"},{"type":"function","name":"validate_orderlyDelegateSigner","inputs":[{"name":"callData","type":"bytes","internalType":"bytes"}],"outputs":[],"stateMutability":"view"},{"type":"function","name":"validate_orderlyDeposit","inputs":[{"name":"callData","type":"bytes","internalType":"bytes"}],"outputs":[],"stateMutability":"view"},{"type":"function","name":"validate_orderlyWithdraw","inputs":[{"name":"callData","type":"bytes","internalType":"bytes"}],"outputs":[],"stateMutability":"view"},{"type":"function","name":"validate_swapExactTokensForTokens","inputs":[{"name":"callData","type":"bytes","internalType":"bytes"}],"outputs":[],"stateMutability":"view"},{"type":"function","name":"validate_transfer","inputs":[{"name":"callData","type":"bytes","internalType":"bytes"}],"outputs":[],"stateMutability":"view"},{"type":"function","name":"whitelistAaveV3","inputs":[{"name":"lendingPool","type":"address","internalType":"address"},{"name":"notes","type":"string","internalType":"string"}],"outputs":[],"stateMutability":"nonpayable"},{"type":"function","name":"whitelistCowSwap","inputs":[{"name":"settlementContract","type":"address","internalType":"address"},{"name":"relayerContract","type":"address","internalType":"address"},{"name":"notes","type":"string","internalType":"string"}],"outputs":[],"stateMutability":"nonpayable"},{"type":"function","name":"whitelistERC4626","inputs":[{"name":"vault","type":"address","internalType":"address"},{"name":"notes","type":"string","internalType":"string"}],"outputs":[],"stateMutability":"nonpayable"},{"type":"function","name":"whitelistGMX","inputs":[{"name":"exchangeRouter","type":"address","internalType":"address"},{"name":"syntheticsRouter","type":"address","internalType":"address"},{"name":"orderVault","type":"address","internalType":"address"},{"name":"notes","type":"string","internalType":"string"}],"outputs":[],"stateMutability":"nonpayable"},{"type":"function","name":"whitelistGMXMarket","inputs":[{"name":"market","type":"address","internalType":"address"},{"name":"notes","type":"string","internalType":"string"}],"outputs":[],"stateMutability":"nonpayable"},{"type":"function","name":"whitelistLagoon","inputs":[{"name":"vault","type":"address","internalType":"address"},{"name":"notes","type":"string","internalType":"string"}],"outputs":[],"stateMutability":"nonpayable"},{"type":"function","name":"whitelistOrderly","inputs":[{"name":"orderlyVault","type":"address","internalType":"address"},{"name":"notes","type":"string","internalType":"string"}],"outputs":[],"stateMutability":"nonpayable"},{"type":"function","name":"whitelistToken","inputs":[{"name":"token","type":"address","internalType":"address"},{"name":"notes","type":"string","internalType":"string"}],"outputs":[],"stateMutability":"nonpayable"},{"type":"function","name":"whitelistTokenForDelegation","inputs":[{"name":"token","type":"address","internalType":"address"},{"name":"notes","type":"string","internalType":"string"}],"outputs":[],"stateMutability":"nonpayable"},{"type":"function","name":"whitelistUniswapV2Router","inputs":[{"name":"router","type":"address","internalType":"address"},{"name":"notes","type":"string","internalType":"string"}],"outputs":[],"stateMutability":"nonpayable"},{"type":"function","name":"whitelistUniswapV3Router","inputs":[{"name":"router","type":"address","internalType":"address"},{"name":"notes","type":"string","internalType":"string"}],"outputs":[],"stateMutability":"nonpayable"},{"type":"function","name":"whitelistVelora","inputs":[{"name":"augustusSwapper","type":"address","internalType":"address"},{"name":"tokenTransferProxy","type":"address","internalType":"address"},{"name":"notes","type":"string","internalType":"string"}],"outputs":[],"stateMutability":"nonpayable"},{"type":"event","name":"AnyAssetSet","inputs":[{"name":"value","type":"bool","indexed":false,"internalType":"bool"},{"name":"notes","type":"string","indexed":false,"internalType":"string"}],"anonymous":false},{"type":"event","name":"AnyVaultSet","inputs":[{"name":"value","type":"bool","indexed":false,"internalType":"bool"},{"name":"notes","type":"string","indexed":false,"internalType":"string"}],"anonymous":false},{"type":"event","name":"ApprovalDestinationApproved","inputs":[{"name":"sender","type":"address","indexed":false,"internalType":"address"},{"name":"notes","type":"string","indexed":false,"internalType":"string"}],"anonymous":false},{"type":"event","name":"ApprovalDestinationRemoved","inputs":[{"name":"sender","type":"address","indexed":false,"internalType":"address"},{"name":"notes","type":"string","indexed":false,"internalType":"string"}],"anonymous":false},{"type":"event","name":"AssetApproved","inputs":[{"name":"sender","type":"address","indexed":false,"internalType":"address"},{"name":"notes","type":"string","indexed":false,"internalType":"string"}],"anonymous":false},{"type":"event","name":"AssetRemoved","inputs":[{"name":"sender","type":"address","indexed":false,"internalType":"address"},{"name":"notes","type":"string","indexed":false,"internalType":"string"}],"anonymous":false},{"type":"event","name":"CallSiteApproved","inputs":[{"name":"target","type":"address","indexed":false,"internalType":"address"},{"name":"selector","type":"bytes4","indexed":false,"internalType":"bytes4"},{"name":"notes","type":"string","indexed":false,"internalType":"string"}],"anonymous":false},{"type":"event","name":"CallSiteRemoved","inputs":[{"name":"target","type":"address","indexed":false,"internalType":"address"},{"name":"selector","type":"bytes4","indexed":false,"internalType":"bytes4"},{"name":"notes","type":"string","indexed":false,"internalType":"string"}],"anonymous":false},{"type":"event","name":"CowSwapApproved","inputs":[{"name":"settlementContract","type":"address","indexed":false,"internalType":"address"},{"name":"notes","type":"string","indexed":false,"internalType":"string"}],"anonymous":false},{"type":"event","name":"DelegationApprovalDestinationApproved","inputs":[{"name":"sender","type":"address","indexed":false,"internalType":"address"},{"name":"notes","type":"string","indexed":false,"internalType":"string"}],"anonymous":false},{"type":"event","name":"DelegationApprovalDestinationRemoved","inputs":[{"name":"sender","type":"address","indexed":false,"internalType":"address"},{"name":"notes","type":"string","indexed":false,"internalType":"string"}],"anonymous":false},{"type":"event","name":"ERC4626Approved","inputs":[{"name":"vault","type":"address","indexed":false,"internalType":"address"},{"name":"notes","type":"string","indexed":false,"internalType":"string"}],"anonymous":false},{"type":"event","name":"GMXMarketApproved","inputs":[{"name":"market","type":"address","indexed":false,"internalType":"address"},{"name":"notes","type":"string","indexed":false,"internalType":"string"}],"anonymous":false},{"type":"event","name":"GMXMarketRemoved","inputs":[{"name":"market","type":"address","indexed":false,"internalType":"address"},{"name":"notes","type":"string","indexed":false,"internalType":"string"}],"anonymous":false},{"type":"event","name":"GMXRouterApproved","inputs":[{"name":"exchangeRouter","type":"address","indexed":false,"internalType":"address"},{"name":"syntheticsRouter","type":"address","indexed":false,"internalType":"address"},{"name":"notes","type":"string","indexed":false,"internalType":"string"}],"anonymous":false},{"type":"event","name":"LagoonVaultApproved","inputs":[{"name":"vault","type":"address","indexed":false,"internalType":"address"},{"name":"notes","type":"string","indexed":false,"internalType":"string"}],"anonymous":false},{"type":"event","name":"OrderSigned","inputs":[{"name":"timestamp","type":"uint256","indexed":true,"internalType":"uint256"},{"name":"orderUid","type":"bytes","indexed":false,"internalType":"bytes"},{"name":"order","type":"tuple","indexed":false,"internalType":"struct GPv2Order.Data","components":[{"name":"sellToken","type":"address","internalType":"contract IERC20"},{"name":"buyToken","type":"address","internalType":"contract IERC20"},{"name":"receiver","type":"address","internalType":"address"},{"name":"sellAmount","type":"uint256","internalType":"uint256"},{"name":"buyAmount","type":"uint256","internalType":"uint256"},{"name":"validTo","type":"uint32","internalType":"uint32"},{"name":"appData","type":"bytes32","internalType":"bytes32"},{"name":"feeAmount","type":"uint256","internalType":"uint256"},{"name":"kind","type":"bytes32","internalType":"bytes32"},{"name":"partiallyFillable","type":"bool","internalType":"bool"},{"name":"sellTokenBalance","type":"bytes32","internalType":"bytes32"},{"name":"buyTokenBalance","type":"bytes32","internalType":"bytes32"}]},{"name":"validTo","type":"uint32","indexed":false,"internalType":"uint32"},{"name":"buyAmount","type":"uint256","indexed":false,"internalType":"uint256"},{"name":"sellAmount","type":"uint256","indexed":false,"internalType":"uint256"}],"anonymous":false},{"type":"event","name":"OwnershipTransferred","inputs":[{"name":"previousOwner","type":"address","indexed":true,"internalType":"address"},{"name":"newOwner","type":"address","indexed":true,"internalType":"address"}],"anonymous":false},{"type":"event","name":"ReceiverApproved","inputs":[{"name":"sender","type":"address","indexed":false,"internalType":"address"},{"name":"notes","type":"string","indexed":false,"internalType":"string"}],"anonymous":false},{"type":"event","name":"ReceiverRemoved","inputs":[{"name":"sender","type":"address","indexed":false,"internalType":"address"},{"name":"notes","type":"string","indexed":false,"internalType":"string"}],"anonymous":false},{"type":"event","name":"SenderApproved","inputs":[{"name":"sender","type":"address","indexed":false,"internalType":"address"},{"name":"notes","type":"string","indexed":false,"internalType":"string"}],"anonymous":false},{"type":"event","name":"SenderRemoved","inputs":[{"name":"sender","type":"address","indexed":false,"internalType":"address"},{"name":"notes","type":"string","indexed":false,"internalType":"string"}],"anonymous":false},{"type":"event","name":"VeloraSwapExecuted","inputs":[{"name":"timestamp","type":"uint256","indexed":true,"internalType":"uint256"},{"name":"augustusSwapper","type":"address","indexed":true,"internalType":"address"},{"name":"tokenIn","type":"address","indexed":false,"internalType":"address"},{"name":"tokenOut","type":"address","indexed":false,"internalType":"address"},{"name":"amountIn","type":"uint256","indexed":false,"internalType":"uint256"},{"name":"amountOut","type":"uint256","indexed":false,"internalType":"uint256"},{"name":"minAmountOut","type":"uint256","indexed":false,"internalType":"uint256"}],"anonymous":false},{"type":"event","name":"VeloraSwapperApproved","inputs":[{"name":"augustusSwapper","type":"address","indexed":false,"internalType":"address"},{"name":"notes","type":"string","indexed":false,"internalType":"string"}],"anonymous":false},{"type":"event","name":"WithdrawDestinationApproved","inputs":[{"name":"sender","type":"address","indexed":false,"internalType":"address"},{"name":"notes","type":"string","indexed":false,"internalType":"string"}],"anonymous":false},{"type":"event","name":"WithdrawDestinationRemoved","inputs":[{"name":"sender","type":"address","indexed":false,"internalType":"address"},{"name":"notes","type":"string","indexed":false,"internalType":"string"}],"anonymous":false}],"bytecode":{"object":"0x6080806040523461006b57600f8054610100600160a81b0319811633600881811b610100600160a81b0316929092179093551c6001600160a01b03167f8be0079c531659141344cd1fd0a4f28419497f9722a3daafe3b4186f6b6457e05f80a36145cd90816100708239f35b5f80fdfe60806040526004361015610011575f80fd5b5f3560e01c806304a3ba251461051957806307ef00cf146103e85780630985b046146105145780630c260a7b1461050f5780631047789e1461050a5780631710a4f2146105055780631c123e77146105005780631d49039c146103f75780632c02cda0146104fb5780632d12d788146104f65780632dc32a61146104d35780632e31e9c6146104f1578063333f22e8146104d857806334ec8d7e146104ec5780633cf20025146104e75780633ea35551146104e25780633ffb788e146104dd57806347566064146104d85780634b941268146104d35780634b956bd8146104ce5780634c03f1f81461041f5780634d3d31ca146104c95780634efbad39146104c45780635ace1d92146104bf5780635e4ccace146104ba5780635e6afe4d146104b557806362d6775e146104b057806363cc17f2146104ab5780636a6d5cc8146104a65780636bf9e331146104a15780636d5025f11461049c5780636d5176a6146104105780636d9a1423146104975780636fd7fdef14610465578063713ebf3b1461044c578063715018a61461049257806372e548a91461048d578063732524941461046a578063742bfc7e1461043857806374fb77fe14610488578063761bcd9c14610483578063780650861461043857806378addb481461042e57806386a6ae151461047e57806386b6dbe51461047957806387301608146104745780638c2fdf9e1461046f5780638da5cb5b1461046a5780638fb4dff214610465578063912ef02d14610410578063957dc6c01461046057806398b3cc391461045b578063a4c1cccb14610456578063a67e1f5414610451578063a847cf4d1461044c578063a86ddc5714610447578063a9fc3d4f14610442578063ac9650d81461043d578063adcfa55b14610438578063b3c329cb14610433578063b45ea48b146103d4578063b8fe8d5f1461042e578063be8c97b0146103c5578063c2e657ae14610429578063c537bed014610424578063cbdb1dcf1461041f578063d075f9bb1461041a578063d4c0fe4514610415578063d718f04114610410578063d7334c9d1461040b578063d758150914610406578063db17a17014610401578063e98539c5146103fc578063eb0de042146103f7578063ebe26816146103f2578063ee5462cc146103ed578063efb47bff146103e8578063f20e85e0146103e3578063f259a073146103de578063f2fde38b146103d9578063f84756aa146103d4578063f901dc33146103cf578063fa2c59c8146103ca578063fadbcf48146103c55763fdedfa27146103c0575f80fd5b612105565b611ae2565b612093565b612024565b611aa2565b611f60565b611eee565b611e43565b610674565b611e2c565b611e16565b610926565b611dcd565b611d17565b611ca5565b611c2d565b61126c565b611c17565b611bf0565b610c9e565b611bc9565b611b22565b6114e7565b611a7d565b6114a5565b61197a565b6118b4565b611877565b61135f565b6117f2565b6117b2565b611753565b61173d565b61131f565b611479565b6116ce565b6116ac565b61164d565b611527565b6114d1565b6114bb565b611407565b6113bb565b61127a565b611252565b61123b565b611225565b6111c3565b611058565b610f49565b610ebb565b610dfd565b610d4d565b610cde565b610c88565b610a10565b610a81565b610c6c565b610bc1565b610b81565b610ac1565b610a50565b6109a1565b610966565b610910565b6108fa565b610840565b6107e4565b6106b4565b61059c565b6001600160a01b0381160361052f57565b5f80fd5b9181601f8401121561052f578235916001600160401b03831161052f576020838186019501011161052f57565b90604060031983011261052f576004356105798161051e565b91602435906001600160401b03821161052f5761059891600401610533565b9091565b3461052f577fb71be9befd3ac90c1c9981d3b1161b3c2c6dcd741f13b34061aa251226a802df61060b6105ce36610560565b60018060a09593951b036105ea81600f5460081c163314612120565b83165f52600760205260405f2060ff1981541690556040519384938461218b565b0390a1005b6001600160a01b03165f908152600d6020526040902090565b6001600160a01b03165f908152600c6020526040902090565b6001600160a01b03165f90815260056020526040902090565b6001600160a01b03165f90815260208190526040902090565b3461052f57602036600319011261052f576004356106918161051e565b60018060a01b03165f526006602052602060ff60405f2054166040519015158152f35b3461052f57602036600319011261052f576004356106d18161051e565b60018060a01b03165f52600e602052602060ff60405f2054166040519015158152f35b634e487b7160e01b5f52604160045260245ffd5b60a081019081106001600160401b0382111761072357604052565b6106f4565b601f909101601f19168101906001600160401b0382119082101761072357604052565b6001600160401b03811161072357601f01601f191660200190565b9291926107728261074b565b916107806040519384610728565b82948184528183011161052f578281602093845f960137010152565b9080601f8301121561052f578160206107b793359101610766565b90565b602060031982011261052f57600435906001600160401b03821161052f576107b79160040161079c565b3461052f576107fa6107f5366107ba565b612201565b005b606060031982011261052f576004356108148161051e565b916024356108218161051e565b91604435906001600160401b03821161052f5761059891600401610533565b3461052f577f936b7187f49d778f82d1c17d927c8006f00eac6d2e5ccb50720dbc7afda8b4a961060b610872366107fc565b9093916108d3828660018060a01b0361089381600f5460081c163314612120565b871693845f52600760205260405f20600160ff198254161790555f80516020614518833981519152604051806108cb86868d8461218b565b0390a1613623565b5f52600a6020526108ee60405f20600160ff19825416179055565b6040519384938461218b565b3461052f576107fa61090b366107ba565b61226b565b3461052f576107fa610921366107ba565b6122e2565b3461052f57602036600319011261052f576004356109438161051e565b60018060a01b03165f526007602052602060ff60405f2054166040519015158152f35b3461052f57604036600319011261052f5761098260043561051e565b6024356001600160401b03811161052f576107fa90369060040161079c565b3461052f577f4e13b11ab98e672bd78295ef9cebe764dc617f95decf47d842c25b83abc0c72461060b6109d336610560565b60018060a09593951b036109ef81600f5460081c163314612120565b83165f52600560205260405f2060ff1981541690556040519384938461218b565b3461052f57602036600319011261052f57600435610a2d8161051e565b60018060a01b03165f526008602052602060ff60405f2054166040519015158152f35b3461052f57602036600319011261052f576020610a77600435610a728161051e565b612370565b6040519015158152f35b3461052f57602036600319011261052f57600435610a9e8161051e565b60018060a01b03165f52600a602052602060ff60405f2054166040519015158152f35b3461052f576107fa610ad236610560565b9160018060a01b03610aec81600f5460081c163314612120565b8116805f525f602052610b1060405f2063c04b8d5960e01b5f5260205260405f2090565b9060ff19916001838254161790555f526001602052600160405f2091825416179055610b45610b40600254612e01565b600255565b5f8051602061457883398151915260405180610b6386868684612e14565b0390a1610b71838383612418565b610b7c8383836124ba565b613623565b3461052f57602036600319011261052f57600435610b9e8161051e565b60018060a01b03165f526005602052602060ff60405f2054166040519015158152f35b3461052f576107fa610bd236610560565b9160018060a01b03610bec81600f5460081c163314612120565b8116805f525f602052610c1060405f206338ed173960e01b5f5260205260405f2090565b9060ff19916001838254161790555f526001602052600160405f2091825416179055610c40610b40600254612e01565b5f8051602061457883398151915260405180610c5e86868684612e43565b0390a1610b7c838383612536565b3461052f575f36600319011261052f5760206040516104b08152f35b3461052f576107fa610c99366107ba565b6123a0565b3461052f57602036600319011261052f57600435610cbb8161051e565b60018060a01b03165f52600c602052602060ff60405f2054166040519015158152f35b3461052f577f1cc7e10cd1d551ab6504f6a15828923f911f4658af4cc1b82aeaab1d8a4ccc4c61060b610d1036610560565b60018060a09593951b03610d2c81600f5460081c163314612120565b83165f52600e60205260405f2060ff1981541690556040519384938461218b565b3461052f577f4528ea4d4b1ca7b25fe4843fa8f643b7bbdc91395054ca124e68c761b44f770761060b610d7f366107fc565b9093915f805160206145188339815191528560018060a01b0392610db484600f5460081c163314610daf81612120565b612120565b8381165f52600760205260405f20600160ff19825416179055610ddd856040519384938461218b565b0390a183165f52600b6020526108ee60405f20600160ff19825416179055565b3461052f577f3562181221a42a19ddd03a82dfe06acab1905ceb65cdaf7d86a1d9fec664355261060b610e2f36610560565b60018060a09593951b03610e4b81600f5460081c163314612120565b83165f52600660205260405f20600160ff198254161790556040519384938461218b565b606060031982011261052f57600435610e878161051e565b916024356001600160e01b03198116810361052f5791604435906001600160401b03821161052f5761059891600401610533565b3461052f575f8051602061457883398151915261060b610eda36610e6f565b9060018060a09694961b03610ef781600f5460081c163314612120565b8416805f525f602052610f0d8660405f20611861565b9060ff19916001838254161790555f526001602052600160405f2091825416179055610f3a600254612e01565b60025560405194859485612f5d565b3461052f577ffaa136302ac223cf7c1146490a741e4520e886fc22d7e759641453f432283d0161060b610f7b36610560565b600f549193916001600160a01b0390610f9a9060081c82163314612120565b808416805f526009602052610fc960405f209260ff19936001858254161790553390600f5460081c1614612120565b805f525f602052610feb60405f2063559ec80d60e01b5f5260205260405f2090565b6001838254161790555f526001602052600160405f2091825416179055611016610b40600254612e01565b5f805160206145788339815191526040518061103484888884612e72565b0390a16110428185856125b2565b61104d81858561262e565b6108ee8185856126aa565b3461052f57608036600319011261052f576004356110758161051e565b6024356110818161051e565b6044359161108e8361051e565b606435926001600160401b03841161052f5761119e61060b916110d67f4cd8335923e6c59235dad1eb0d9466176d7e2d5331062745aac072188386d7fe963690600401610533565b92909160018060a01b036110f681600f5460081c163314610daf81612120565b8616805f525f60205261111a60405f20631592ca1b60e31b5f5260205260405f2090565b9060ff19916001838254161790555f526001602052600160405f209182541617905561114a610b40600254612e01565b5f805160206145788339815191526040518061116887878b84612ea1565b0390a1611176848489613623565b61117f86610610565b80546001600160a01b0319166001600160a01b03909216919091179055565b6111b76111aa85610629565b805460ff19166001179055565b60405194859485612f90565b3461052f575f8051602061451883398151915261060b6111e236610560565b600f549193916001600160a01b03906112019060081c82163314612120565b83165f52600860205260405f20600160ff198254161790556040519384938461218b565b3461052f576107fa611236366107ba565b612fb9565b3461052f576107fa61124c36610560565b9161320b565b3461052f576107fa611263366107fc565b92919091613f79565b3461052f576107fa366107ba565b3461052f576107fa61128b36610560565b9160018060a01b036112a581600f5460081c163314612120565b8116805f525f6020526112c960405f20630c04a8a160e41b5f5260205260405f2090565b9060ff19916001838254161790555f526001602052600160405f20918254161790556112f9610b40600254612e01565b5f805160206145788339815191526040518061131786868684612ed0565b0390a161357e565b3461052f57602036600319011261052f5760043561133c8161051e565b60018060a01b03165f526009602052602060ff60405f2054166040519015158152f35b3461052f57604036600319011261052f5760043561137c8161051e565b6024356001600160e01b03198116810361052f576113af60ff9160209360018060a01b03165f525f845260405f20611861565b54166040519015158152f35b3461052f575f36600319011261052f576113d36143f1565b600f8054610100600160a81b031981169091555f9060081c6001600160a01b03165f805160206145388339815191528280a3005b3461052f577f62dd88c5ecfa60713a657640ebec4de26fc1aefa4afdb24e6d15a124fce7277961060b61143936610560565b60018060a09593951b0361145581600f5460081c163314612120565b83165f52600560205260405f20600160ff198254161790556040519384938461218b565b3461052f575f36600319011261052f57600f5460405160089190911c6001600160a01b03168152602090f35b3461052f576107fa6114b6366107ba565b613430565b3461052f576107fa6114cc366107ba565b613451565b3461052f576107fa6114e2366107ba565b61346b565b3461052f57602036600319011261052f576004356115048161051e565b60018060a01b03165f526001602052602060ff60405f2054166040519015158152f35b3461052f5761153536610560565b6040516338d52e0f60e01b815292906020846004816001600160a01b0386165afa908115611648576108ee818561060b947fd2851df39115d63968e90113e8b3a96f13e33ac4c2e5a9caa1afeffe59e55748985f91611619575b5061159b838389612726565b6115a68383896127a2565b6115b183838961281e565b6115bc83838961289a565b6115c7838389612916565b6115d2838389612991565b6115dd838389612a0d565b6115e8838389612a89565b6115f3838389612b05565b6115fe838389612b81565b611609838389613623565b611614838389614409565b614409565b61163b915060203d602011611641575b6116338183610728565b81019061355e565b5f61158f565b503d611629565b613573565b3461052f575f8051602061455883398151915261060b61166c36610560565b60018060a09593951b0361168881600f5460081c163314612120565b83165f52600360205260405f20600160ff198254161790556040519384938461218b565b3461052f575f36600319011261052f57602060ff600f54166040519015158152f35b3461052f577f1212f8ddb39de8e1a339460c95752d61100723efeaa34ccd94bca94393f4093861060b61170036610560565b60018060a09593951b0361171c81600f5460081c163314612120565b83165f52600660205260405f2060ff1981541690556040519384938461218b565b3461052f576107fa61174e366107ba565b6135a9565b3461052f575f8051602061451883398151915261060b61177236610560565b60018060a09593951b0361178e81600f5460081c163314612120565b83165f52600760205260405f20600160ff198254161790556040519384938461218b565b3461052f57602036600319011261052f576004356117cf8161051e565b60018060a01b03165f526003602052602060ff60405f2054166040519015158152f35b3461052f577f3097928509c53a2dab9500431201d82b0d756e8f890fd01f4ae6b33b45687ea461060b61182436610560565b60018060a09593951b0361184081600f5460081c163314612120565b83165f52600460205260405f2060ff1981541690556040519384938461218b565b9063ffffffff60e01b165f5260205260405f2090565b3461052f57602036600319011261052f5760206004356118968161051e565b60018060a01b038091165f52600d825260405f205416604051908152f35b3461052f575f36600319011261052f576020600254604051908152f35b5f5b8381106118e25750505f910152565b81810151838201526020016118d3565b9060209161190b815180928185528580860191016118d1565b601f01601f1916010190565b6020808201906020835283518092526040830192602060408460051b8301019501935f915b84831061194c5750505050505090565b909192939495848061196a600193603f198682030187528a516118f2565b980193019301919493929061193c565b602036600319011261052f576001600160401b03600480359082821161052f573660238301121561052f57816004013592831161052f576024906024830192602436918660051b01011161052f576119d18461364e565b935f5b8181106119ed57604051806119e98882611917565b0390f35b5f806119fa838589613697565b60409391611a0c8551809381936136d8565b0390305af490611a1a6136e5565b9115611a41575090600191611a2f8289613164565b52611a3a8188613164565b50016119d4565b848287604482511061052f578181611a649285611a799501518301019101613749565b925162461bcd60e51b8152928392830161377f565b0390fd5b3461052f57602036600319011261052f576107fa600435611a9d8161051e565b613790565b3461052f57602036600319011261052f57600435611abf8161051e565b60018060a01b03165f52600b602052602060ff60405f2054166040519015158152f35b3461052f57602036600319011261052f57600435611aff8161051e565b60018060a01b03165f526004602052602060ff60405f2054166040519015158152f35b3461052f57604036600319011261052f5760043580151580910361052f576024356001600160401b03811161052f577f50454d9d0025a28a39cac5a4b3f3101d29b6e413fbb64f75fb42eb6837b0771891611b8461060b923690600401610533565b600f5490939190611ba3600882901c6001600160a01b03163314612120565b60ff84169060ff191617600f55604051938493845260406020850152604084019161216b565b3461052f57602036600319011261052f576020610a77600435611beb8161051e565b6137ea565b3461052f57602036600319011261052f576020610a77600435611c128161051e565b61381a565b3461052f576107fa611c28366107ba565b613837565b3461052f577f37ea10f2d08f5a9803dfcd5abf3cfc7b0d6fcdf5fcbc36be9ea5a0b53d9a4d9b61060b611c5f36610e6f565b9060018060a09694961b03611c7c81600f5460081c163314612120565b84165f525f602052611c918560405f20611861565b805460ff1916905560405194859485612f5d565b3461052f577fefc511aabde7c4d22a66bc3bc12740a348cb98d9f7f433d6768ae8c1ab0e3cb861060b611cd736610560565b60018060a09593951b03611cf381600f5460081c163314612120565b83165f52600e60205260405f20600160ff198254161790556040519384938461218b565b3461052f576107fa611d2836610560565b9160018060a01b03611d4281600f5460081c163314612120565b8116805f525f602052611d6660405f20632df4869b60e01b5f5260205260405f2090565b9060ff19916001838254161790555f526001602052600160405f2091825416179055611d96610b40600254612e01565b5f8051602061457883398151915260405180611db486868684612eff565b0390a1611dc2838383612bfd565b610b7c838383612c79565b3461052f576107fa611df0611de1366107ba565b6020808251830101910161386d565b6020810151611e1090611e0b906001600160a01b031661381a565b6121ba565b516122e2565b3461052f576107fa611e27366107ba565b6138fb565b3461052f576107fa611e3d36610560565b91614409565b3461052f576107fa611e5436610560565b9160018060a01b03611e6e81600f5460081c163314612120565b8116805f525f602052611e9260405f2063617ba03760e01b5f5260205260405f2090565b9060ff19916001838254161790555f526001602052600160405f2091825416179055611ec2610b40600254612e01565b5f8051602061457883398151915260405180611ee086868684612f2e565b0390a1610b7c838383612cf5565b3461052f577ff9a414ea26a64e12a2abdb23706ec196a42adeb564668fb73f46555fbd2336c261060b611f2036610560565b600f549193916001600160a01b0390611f3f9060081c82163314612120565b83165f52600860205260405f2060ff1981541690556040519384938461218b565b3461052f57602036600319011261052f57600435611f7d8161051e565b611f856143f1565b6001600160a01b03818116918215611fd057600f8054610100600160a81b03198116600893841b610100600160a81b031617909155901c165f805160206145388339815191525f80a3005b60405162461bcd60e51b815260206004820152602660248201527f4f776e61626c653a206e6577206f776e657220697320746865207a65726f206160448201526564647265737360d01b6064820152608490fd5b3461052f577f9ca3f065622f5f03f32b7157677a0e420c3a36ab45fd49f256ffebce3e31058761060b61205636610560565b60018060a09593951b0361207281600f5460081c163314612120565b83165f52600360205260405f2060ff1981541690556040519384938461218b565b3461052f577fa8f9caaf4861720900294428e4ff34d37070c37afd26d96e6e4da75326d2c3ad61060b6120c536610560565b60018060a09593951b036120e181600f5460081c163314612120565b83165f52600460205260405f20600160ff198254161790556040519384938461218b565b3461052f575f36600319011261052f57602060405160018152f35b1561212757565b606460405162461bcd60e51b815260206004820152602060248201527f4f776e61626c653a2063616c6c6572206973206e6f7420746865206f776e65726044820152fd5b908060209392818452848401375f828201840152601f01601f1916010190565b6001600160a01b0390911681526040602082018190526107b79391019161216b565b51906121b88261051e565b565b156121c157565b60405162461bcd60e51b8152602060048201526018602482015277149958d95a5d995c881b9bdd081dda1a5d195b1a5cdd195960421b6044820152606490fd5b60808180518101031261052f5761222960806060830151926122228461051e565b015161051e565b6001600160a01b03165f908152600560205260409020546121b89060ff166121ba565b919082604091031261052f57602082516122658161051e565b92015190565b61227e906020808251830101910161224c565b506001600160a01b03165f908152600660205260409020546121b89060ff166121ba565b156122a957565b60405162461bcd60e51b8152602060048201526011602482015270151bdad95b881b9bdd08185b1b1bddd959607a1b6044820152606490fd5b60146122f181835110156144ba565b60208083015160601c91601784511061233657505061231c61232191611beb61231c611beb866144fe565b6122a2565b8051604211612333576109219061393b565b50565b606492506040519162461bcd60e51b83526004830152602482015273746f55696e7432345f6f75744f66426f756e647360601b6044820152fd5b60ff600f5416908115612381575090565b6001600160a01b03165f908152600e602052604090205460ff16919050565b6123b3906020808251830101910161224c565b506001600160a01b03165f9081526007602052604090205460ff16156123d557565b60405162461bcd60e51b815260206004820152601b60248201527a105c1c1c9bdd99481859191c995cdcc81b9bdd08185b1b1bddd959602a1b6044820152606490fd5b906124b55f80516020614578833981519152939260018060a01b039061244682600f5460081c163314612120565b1691825f525f60205260405f2093631e51809360e31b94855f5260205260405f2060ff1990600182825416179055845f526001602052600160405f2091825416179055612494600254612e01565b6002556040519485948552602085015260606040850152606084019161216b565b0390a1565b906124b55f80516020614578833981519152939260018060a01b03906124e882600f5460081c163314612120565b1691825f525f60205260405f209363b858183f60e01b94855f5260205260405f2060ff1990600182825416179055845f526001602052600160405f2091825416179055612494600254612e01565b906124b55f80516020614578833981519152939260018060a01b039061256482600f5460081c163314612120565b1691825f525f60205260405f2093635c11d79560e01b94855f5260205260405f2060ff1990600182825416179055845f526001602052600160405f2091825416179055612494600254612e01565b906124b55f80516020614578833981519152939260018060a01b03906125e082600f5460081c163314612120565b1691825f525f60205260405f209363a03d55e360e01b94855f5260205260405f2060ff1990600182825416179055845f526001602052600160405f2091825416179055612494600254612e01565b906124b55f80516020614578833981519152939260018060a01b039061265c82600f5460081c163314612120565b1691825f525f60205260405f209363692652c560e11b94855f5260205260405f2060ff1990600182825416179055845f526001602052600160405f2091825416179055612494600254612e01565b906124b55f80516020614578833981519152939260018060a01b03906126d882600f5460081c163314612120565b1691825f525f60205260405f2093635313efb360e11b94855f5260205260405f2060ff1990600182825416179055845f526001602052600160405f2091825416179055612494600254612e01565b906124b55f80516020614578833981519152939260018060a01b039061275482600f5460081c163314612120565b1691825f525f60205260405f2093636e553f6560e01b94855f5260205260405f2060ff1990600182825416179055845f526001602052600160405f2091825416179055612494600254612e01565b906124b55f80516020614578833981519152939260018060a01b03906127d082600f5460081c163314612120565b1691825f525f60205260405f2093632d182be560e21b94855f5260205260405f2060ff1990600182825416179055845f526001602052600160405f2091825416179055612494600254612e01565b906124b55f80516020614578833981519152939260018060a01b039061284c82600f5460081c163314612120565b1691825f525f60205260405f2093635d043b2960e11b94855f5260205260405f2060ff1990600182825416179055845f526001602052600160405f2091825416179055612494600254612e01565b906124b55f80516020614578833981519152939260018060a01b03906128c882600f5460081c163314612120565b1691825f525f60205260405f2093638dbdbe6d60e01b94855f5260205260405f2060ff1990600182825416179055845f526001602052600160405f2091825416179055612494600254612e01565b906124b55f80516020614578833981519152939260018060a01b039061294482600f5460081c163314612120565b1691825f525f60205260405f209362b4d4cb60e11b94855f5260205260405f2060ff1990600182825416179055845f526001602052600160405f2091825416179055612494600254612e01565b906124b55f80516020614578833981519152939260018060a01b03906129bf82600f5460081c163314612120565b1691825f525f60205260405f2093630b8b4a6160e21b94855f5260205260405f2060ff1990600182825416179055845f526001602052600160405f2091825416179055612494600254612e01565b906124b55f80516020614578833981519152939260018060a01b0390612a3b82600f5460081c163314612120565b1691825f525f60205260405f2093633ea0e43760e11b94855f5260205260405f2060ff1990600182825416179055845f526001602052600160405f2091825416179055612494600254612e01565b906124b55f80516020614578833981519152939260018060a01b0390612ab782600f5460081c163314612120565b1691825f525f60205260405f20936319792d1d60e11b94855f5260205260405f2060ff1990600182825416179055845f526001602052600160405f2091825416179055612494600254612e01565b906124b55f80516020614578833981519152939260018060a01b0390612b3382600f5460081c163314612120565b1691825f525f60205260405f20936385b77f4560e01b94855f5260205260405f2060ff1990600182825416179055845f526001602052600160405f2091825416179055612494600254612e01565b906124b55f80516020614578833981519152939260018060a01b0390612baf82600f5460081c163314612120565b1691825f525f60205260405f209363a8abe90560e01b94855f5260205260405f2060ff1990600182825416179055845f526001602052600160405f2091825416179055612494600254612e01565b906124b55f80516020614578833981519152939260018060a01b0390612c2b82600f5460081c163314612120565b1691825f525f60205260405f209363322dda6d60e01b94855f5260205260405f2060ff1990600182825416179055845f526001602052600160405f2091825416179055612494600254612e01565b906124b55f80516020614578833981519152939260018060a01b0390612ca782600f5460081c163314612120565b1691825f525f60205260405f2093634c61684360e11b94855f5260205260405f2060ff1990600182825416179055845f526001602052600160405f2091825416179055612494600254612e01565b906124b55f80516020614578833981519152939260018060a01b0390612d2382600f5460081c163314612120565b1691825f525f60205260405f2093631a4ca37b60e21b94855f5260205260405f2060ff1990600182825416179055845f526001602052600160405f2091825416179055612494600254612e01565b906124b55f80516020614578833981519152939260018060a01b0390612d9f82600f5460081c163314612120565b1691825f525f60205260405f209363095ea7b360e01b94855f5260205260405f2060ff1990600182825416179055845f526001602052600160405f2091825416179055612494600254612e01565b634e487b7160e01b5f52601160045260245ffd5b5f198114612e0f5760010190565b612ded565b6001600160a01b03909116815263c04b8d5960e01b60208201526060604082018190526107b79391019161216b565b6001600160a01b0390911681526338ed173960e01b60208201526060604082018190526107b79391019161216b565b6001600160a01b03909116815263559ec80d60e01b60208201526060604082018190526107b79391019161216b565b6001600160a01b039091168152631592ca1b60e31b60208201526060604082018190526107b79391019161216b565b6001600160a01b039091168152630c04a8a160e41b60208201526060604082018190526107b79391019161216b565b6001600160a01b039091168152632df4869b60e01b60208201526060604082018190526107b79391019161216b565b6001600160a01b03909116815263617ba03760e01b60208201526060604082018190526107b79391019161216b565b6001600160a01b0390911681526001600160e01b031990911660208201526060604082018190526107b79391019161216b565b6001600160a01b039182168152911660208201526060604082018190526107b79391019161216b565b60608180518101031261052f576060602082015191612fd78361051e565b0151612fe28161051e565b6001600160a01b0391612ffa9061231c9084166137ea565b165f5260056020526121b860ff60405f2054166121ba565b1561301957565b60405162461bcd60e51b815260206004820152601660248201527511d356081c9bdd5d195c881b9bdd08185b1b1bddd95960521b6044820152606490fd5b1561305e57565b60405162461bcd60e51b815260206004820152601d60248201527f474d58206f726465725661756c74206e6f7420636f6e666967757265640000006044820152606490fd5b6001600160401b0381116107235760051b60200190565b90602090818382031261052f576001600160401b039280359084821161052f570181601f8201121561052f5780356130f1816130a3565b946130ff6040519687610728565b818652848087019260051b8401019380851161052f57858401925b85841061312b575050505050505090565b833583811161052f578791613145848480948a010161079c565b81520193019261311a565b634e487b7160e01b5f52603260045260245ffd5b80518210156131785760209160051b010190565b613150565b1561318457565b60405162461bcd60e51b815260206004820152601360248201527211d3560e8818d85b1b081d1bdbc81cda1bdc9d606a1b6044820152606490fd5b8051156131785760200190565b8051600110156131785760210190565b8051600210156131785760220190565b8051600310156131785760230190565b600319810191908211612e0f57565b906132466132396132639395949561323461322f61322883610629565b5460ff1690565b613012565b610610565b546001600160a01b031690565b9361325b6001600160a01b0386161515613057565b8101906130ba565b915f5b835181101561342a57816004613289816132808589613164565b5151101561317d565b6132bd6132b06132a261329c868a613164565b516131bf565b516001600160f81b03191690565b6001600160f81b03191690565b6132e76132d96132b06132a26132d3888c613164565b516131cc565b60081c62ffffff60e01b1690565b176133116133046132b06132a26132fe888c613164565b516131dc565b60101c61ffff60e01b1690565b1761333a61332e6132b06132a2613328888c613164565b516131ec565b60181c60ff60e01b1690565b17906133646133498589613164565b5161335e613357878b613164565b51516131fc565b90613a63565b916001600160e01b031916637d39aaf160e01b81036133925750506001929161338c91613da4565b01613266565b631cdacd5960e31b81036133b4575050600192916133af91613cc3565b61338c565b9192509063f59c48eb60e01b036133d25750906133af600192613c0b565b611a799060405191829162461bcd60e51b8352820160809060208152602260208201527f474d583a20556e6b6e6f776e2066756e6374696f6e20696e206d756c746963616040820152611b1b60f21b60608201520190565b50509050565b60608180518101031261052f5761222960606040830151926122228461051e565b60608180518101031261052f57606001516122298161051e565b908151820191602060a0826020860195031261052f5760608201516001600160401b03811161052f5782019380603f8601121561052f5760208501516134b0816130a3565b956134be6040519788610728565b8187526040602088019260051b82010192831161052f57604001905b828210613545575061350c93611e0b935061322892506001600160a01b039150613506906080016121ad565b16610642565b5f5b8251811015613540578061353a61231c611beb61352d60019588613164565b516001600160a01b031690565b0161350e565b509050565b83809183516135538161051e565b8152019101906134da565b9081602091031261052f57516107b78161051e565b6040513d5f823e3d90fd5b6124b55f805160206145588339815191529360018060a01b0361168881600f5460081c163314612120565b6135bc906020808251830101910161224c565b506001600160a01b03165f9081526008602052604090205460ff16156135de57565b60405162461bcd60e51b815260206004820152601e60248201527f44656c65676174696f6e2061646472657373206e6f7420616c6c6f77656400006044820152606490fd5b6124b55f805160206145188339815191529360018060a01b0361178e81600f5460081c163314612120565b90613658826130a3565b6136656040519182610728565b8281528092613676601f19916130a3565b01905f5b82811061368657505050565b80606060208093850101520161367a565b91908110156131785760051b81013590601e198136030182121561052f5701803591906001600160401b03831161052f57602001823603811361052f579190565b908092918237015f815290565b3d1561370f573d906136f68261074b565b916137046040519384610728565b82523d5f602084013e565b606090565b909291926137218161074b565b9161372f6040519384610728565b82948284528282011161052f5760206121b89301906118d1565b60208183031261052f578051906001600160401b03821161052f57019080601f8301121561052f5781516107b792602001613714565b9060206107b79281815201906118f2565b6001600160a01b03165f9081526009602052604090205460ff16156137b157565b60405162461bcd60e51b815260206004820152601160248201527015985d5b1d081b9bdd08185b1b1bddd959607a1b6044820152606490fd5b60ff600f54169081156137fb575090565b6001600160a01b03165f9081526003602052604090205460ff16919050565b6001600160a01b03165f9081526005602052604090205460ff1690565b60808180518101031261052f5761231c8161385f606060206121b8950151926122228461051e565b6001600160a01b03166137ea565b9060208282031261052f5781516001600160401b039283821161052f570160a08183031261052f57604051926138a284610708565b815190811161052f57810182601f8201121561052f576080928160206138ca93519101613714565b83526138d8602082016121ad565b602084015260408101516040840152606081015160608401520151608082015290565b611df06121b8916020808251830101910161386d565b90601f8201809211612e0f57565b6017019081601711612e0f57565b6004019081600411612e0f57565b80516016199182820190828211612e0f576139608261395981613911565b10156139e6565b61396e60176139598461391f565b613983815161397c8461391f565b1115613a23565b8161399c57505050506040515f81526020810160405290565b601760405194601f8416801560051b9182828901019687010193010101905b8084106139d35750508252601f01601f191660405290565b90928351815260208091019301906139bb565b156139ed57565b60405162461bcd60e51b815260206004820152600e60248201526d736c6963655f6f766572666c6f7760901b6044820152606490fd5b15613a2a57565b60405162461bcd60e51b8152602060048201526011602482015270736c6963655f6f75744f66426f756e647360781b6044820152606490fd5b613a708261395981613911565b613a7e60046139598461392d565b613a8c815161397c8461392d565b81613aa35750506040515f81526020810160405290565b60405191601f8116916004831560051b80858701019484860193010101905b808410613ada5750508252601f01601f191660405290565b9092835181526020809101930190613ac2565b15613af457565b60405162461bcd60e51b815260206004820152603560248201527f474d58206372656174654f726465723a2063616e63656c6c6174696f6e526563604482015274195a5d995c881b9bdd081dda1a5d195b1a5cdd1959605a1b6064820152608490fd5b15613b5e57565b60405162461bcd60e51b815260206004820152602360248201527f474d58206372656174654f726465723a206d61726b6574206e6f7420616c6c6f6044820152621dd95960ea1b6064820152608490fd5b15613bb657565b60405162461bcd60e51b815260206004820152602760248201527f474d58206372656174654f726465723a20636f6c6c61746572616c206e6f7420604482015266185b1b1bddd95960ca1b6064820152608490fd5b610240810151610260820151906102e06102c08401519301519060018060a01b03165f52600560205260ff60405f20541615613c6c57611beb613c626121b894610a72613c5d613228613c6797610642565b613aed565b613b57565b613baf565b60405162461bcd60e51b815260206004820152602960248201527f474d58206372656174654f726465723a207265636569766572206e6f742077686044820152681a5d195b1a5cdd195960ba1b6064820152608490fd5b9060608280518101031261052f576040602083015192613ce28461051e565b0151613ced8161051e565b6001600160a01b0391821690821603613d6057613d0a91166137ea565b15613d1157565b60405162461bcd60e51b815260206004820152602160248201527f474d582073656e64546f6b656e733a20746f6b656e206e6f7420616c6c6f77656044820152601960fa1b6064820152608490fd5b606460405162461bcd60e51b815260206004820152602060248201527f474d582073656e64546f6b656e733a20696e76616c69642072656365697665726044820152fd5b613db7906020808251830101910161224c565b506001600160a01b03918216911603613dcc57565b60405162461bcd60e51b815260206004820152601d60248201527f474d582073656e64576e743a20696e76616c69642072656365697665720000006044820152606490fd5b15613e1857565b60405162461bcd60e51b815260206004820152601260248201527114d95b99195c881b9bdd08185b1b1bddd95960721b6044820152606490fd5b9060041161052f5790600490565b909291928360041161052f57831161052f57600401916003190190565b6001600160e01b03199035818116939260048110613e9a57505050565b60040360031b82901b16169150565b15613eb057565b60405162461bcd60e51b815260206004820152601260248201527115185c99d95d081b9bdd08185b1b1bddd95960721b6044820152606490fd5b15613ef157565b60405162461bcd60e51b815260206004820152601460248201527314d95b1958dd1bdc881b9bdd08185b1b1bddd95960621b6044820152606490fd5b15613f3457565b60405162461bcd60e51b815260206004820152601e60248201527f53776170526f75746572303220726571756972657320616e79417373657400006044820152606490fd5b600f5492906001600160a01b03808216600886901c909116146143ea576001600160a01b03165f90815260046020526040902060ff94613fdf91613fc590613fc090613228565b613e11565b80613fd9613fd38286613e52565b90613e7d565b93613e60565b949093169081806143d0575b15614369575b6001600160e01b0319166338ed173960e01b810361401b575050506114e2906121b8923691610766565b635c11d79560e01b810361403b575050506114e2906121b8923691610766565b63c04b8d5960e01b810361405b57505050611e27906121b8923691610766565b919390929163b858183f60e01b810361407b575050506121b89150613f2d565b9192509063a9059cbb60e01b810361409f57506121b892509061090b913691610766565b63095ea7b360e01b81036140bf57506121b8925090610c99913691610766565b630c04a8a160e41b81036140df57506121b892509061174e913691610766565b63617ba03760e01b81036140ff57506121b8925090611c28913691610766565b631a4ca37b60e21b810361411f57506121b8925090611236913691610766565b63559ec80d60e01b8103614139575050506121b890613790565b63a03d55e360e01b8103614153575050506121b890613790565b63692652c560e11b810361416d575050506121b890613790565b635313efb360e11b8103614187575050506121b890613790565b636e553f6560e01b81148015614359575b156141a4575b50505050565b638dbdbe6d60e01b81036141cd57506141c49250906114cc913691610766565b5f80808061419e565b62b4d4cb60e11b81036141f157506141ec9250906107f5913691610766565b6141c4565b632d182be560e21b810361421157506141ec9250906114b6913691610766565b635d043b2960e11b810361423157506141ec9250906114b6913691610766565b633ea0e43760e11b810361425157506141ec9250906114b6913691610766565b6319792d1d60e11b810361427157506141ec9250906114b6913691610766565b637a4880bb60e01b8101614289575b505050506141c4565b63575416fb60e01b81011561428057632df4869b60e01b81036142be57506142b392503691610766565b505b5f808080614280565b63322dda6d60e01b81036142df57506142d992503691610766565b506142b5565b634c61684360e11b81036142fa57506142d992503691610766565b909190631592ca1b60e31b03614318576143139261320b565b6142b5565b60405162461bcd60e51b81526020600482015260196024820152782ab735b737bbb710333ab731ba34b7b71039b2b632b1ba37b960391b6044820152606490fd5b50630b8b4a6160e21b8114614198565b6143856143816132288361437c8761065b565b611861565b1590565b15613ff1576001600160a01b0383165f9081526001602052604090206143b3906143ae90613228565b613ea9565b6143cb6143c66132288361437c8761065b565b613eea565b613ff1565b506001600160e01b0319811663095ea7b360e01b14613feb565b5050505050565b6121b860018060a01b03600f5460081c163314612120565b906121b892915f8051602061457883398151915260018060a01b0361443681600f5460081c163314612120565b8216805f525f60205260405f2063a9059cbb60e01b90815f5260205260405f2060ff1990600182825416179055825f526001602052600160405f2091825416179055614483600254612e01565b600255604051918252602082015260606040820152806144a760608201878761216b565b0390a16144b5838383612d71565b61357e565b156144c157565b60405162461bcd60e51b8152602060048201526015602482015274746f416464726573735f6f75744f66426f756e647360581b6044820152606490fd5b60379061450f602b825110156144ba565b015160601c9056fe628a44970c0e450415e3ae74334ea44f3307b74dbf677a1371190242bf2f35898be0079c531659141344cd1fd0a4f28419497f9722a3daafe3b4186f6b6457e0ad90e2570fc4fe9f7437be3188d5c791c6662892d31731992aa88f5c87621983ef729aaa41b9fd994f9ff7c1960df214a84f722002e6cfbea31799cd0873a3efa264697066735822122067af1ec3b0a430426b177db6473284df543e2396bf5e666755043fb3ac97625964736f6c63430008170033","linkReferences":{}},"methodIdentifiers":{"_SIGN_COOLDOWN()":"3ffb788e","allowApprovalDestination(address,string)":"98b3cc39","allowAsset(address,string)":"86b6dbe5","allowCallSite(address,bytes4,string)":"5e4ccace","allowDelegationApprovalDestination(address,string)":"63cc17f2","allowReceiver(address,string)":"72e548a9","allowSender(address,string)":"fa2c59c8","allowWithdrawDestination(address,string)":"5ace1d92","allowedApprovalDestinations(address)":"eb0de042","allowedAssets(address)":"a4c1cccb","allowedCallSites(address,bytes4)":"a847cf4d","allowedCowSwaps(address)":"47566064","allowedDelegationApprovalDestinations(address)":"4b941268","allowedGMXMarkets(address)":"0985b046","allowedGMXRouters(address)":"4c03f1f8","allowedLagoonVaults(address)":"8fb4dff2","allowedReceivers(address)":"3cf20025","allowedSenders(address)":"fadbcf48","allowedTargets(address)":"b8fe8d5f","allowedVeloraSwappers(address)":"b45ea48b","allowedWithdrawDestinations(address)":"07ef00cf","anyAsset()":"87301608","callSiteCount()":"a9fc3d4f","getGovernanceAddress()":"73252494","getInternalVersion()":"fdedfa27","gmxOrderVaults(address)":"a86ddc57","isAllowedApprovalDestination(address)":"1d49039c","isAllowedAsset(address)":"c537bed0","isAllowedCallSite(address,bytes4)":"713ebf3b","isAllowedCowSwap(address)":"333f22e8","isAllowedDelegationApprovalDestination(address)":"2dc32a61","isAllowedGMXMarket(address)":"2e31e9c6","isAllowedGMXRouter(address)":"cbdb1dcf","isAllowedLagoonVault(address)":"6fd7fdef","isAllowedReceiver(address)":"d075f9bb","isAllowedSender(address)":"be8c97b0","isAllowedTarget(address)":"78addb48","isAllowedVeloraSwapper(address)":"f84756aa","isAllowedWithdrawDestination(address)":"efb47bff","multicall(bytes[])":"ac9650d8","owner()":"8da5cb5b","removeApprovalDestination(address,string)":"04a3ba25","removeAsset(address,string)":"f901dc33","removeCallSite(address,bytes4,string)":"d7334c9d","removeDelegationApprovalDestination(address,string)":"f259a073","removeGMXMarket(address,string)":"4d3d31ca","removeReceiver(address,string)":"2d12d788","removeSender(address,string)":"a67e1f54","removeWithdrawDestination(address,string)":"8c2fdf9e","renounceOwnership()":"715018a6","setAnyAssetAllowed(bool,string)":"c2e657ae","transferOwnership(address)":"f2fde38b","validateCall(address,address,bytes)":"6d5025f1","validateUniswapV3Path(bytes)":"1c123e77","validate_ERC4626Deposit(address,bytes)":"2c02cda0","validate_ERC4626Redeem(bytes)":"742bfc7e","validate_ERC4626Withdraw(bytes)":"78065086","validate_UmamiDeposit(bytes)":"74fb77fe","validate_UmamiRedeem(bytes)":"0c260a7b","validate_aaveSupply(bytes)":"d4c0fe45","validate_aaveWithdraw(bytes)":"6a6d5cc8","validate_approve(bytes)":"4b956bd8","validate_approveDelegation(bytes)":"957dc6c0","validate_cowSwapSettlement(bytes)":"adcfa55b","validate_exactInput(bytes)":"ebe26816","validate_exactOutput(bytes)":"e98539c5","validate_gmxMulticall(address,bytes)":"6bf9e331","validate_lagoonSettle(address)":"b3c329cb","validate_orderlyDelegateSigner(bytes)":"d718f041","validate_orderlyDeposit(bytes)":"6d5176a6","validate_orderlyWithdraw(bytes)":"912ef02d","validate_swapExactTokensForTokens(bytes)":"761bcd9c","validate_transfer(bytes)":"1710a4f2","whitelistAaveV3(address,string)":"f20e85e0","whitelistCowSwap(address,address,string)":"1047789e","whitelistERC4626(address,string)":"86a6ae15","whitelistGMX(address,address,address,string)":"62d6775e","whitelistGMXMarket(address,string)":"d7581509","whitelistLagoon(address,string)":"5e6afe4d","whitelistOrderly(address,string)":"db17a170","whitelistToken(address,string)":"ee5462cc","whitelistTokenForDelegation(address,string)":"6d9a1423","whitelistUniswapV2Router(address,string)":"3ea35551","whitelistUniswapV3Router(address,string)":"34ec8d7e","whitelistVelora(address,address,string)":"4efbad39"},"id":19}