{"abi":[{"type":"constructor","inputs":[],"stateMutability":"nonpayable"},{"type":"function","name":"allowApprovalDestination","inputs":[{"name":"destination","type":"address","internalType":"address"},{"name":"notes","type":"string","internalType":"string"}],"outputs":[],"stateMutability":"nonpayable"},{"type":"function","name":"allowAsset","inputs":[{"name":"sender","type":"address","internalType":"address"},{"name":"notes","type":"string","internalType":"string"}],"outputs":[],"stateMutability":"nonpayable"},{"type":"function","name":"allowCallSite","inputs":[{"name":"target","type":"address","internalType":"address"},{"name":"selector","type":"bytes4","internalType":"bytes4"},{"name":"notes","type":"string","internalType":"string"}],"outputs":[],"stateMutability":"nonpayable"},{"type":"function","name":"allowReceiver","inputs":[{"name":"receiver","type":"address","internalType":"address"},{"name":"notes","type":"string","internalType":"string"}],"outputs":[],"stateMutability":"nonpayable"},{"type":"function","name":"allowSender","inputs":[{"name":"sender","type":"address","internalType":"address"},{"name":"notes","type":"string","internalType":"string"}],"outputs":[],"stateMutability":"nonpayable"},{"type":"function","name":"allowWithdrawDestination","inputs":[{"name":"destination","type":"address","internalType":"address"},{"name":"notes","type":"string","internalType":"string"}],"outputs":[],"stateMutability":"nonpayable"},{"type":"function","name":"allowedApprovalDestinations","inputs":[{"name":"destination","type":"address","internalType":"address"}],"outputs":[{"name":"allowed","type":"bool","internalType":"bool"}],"stateMutability":"view"},{"type":"function","name":"allowedAssets","inputs":[{"name":"token","type":"address","internalType":"address"}],"outputs":[{"name":"allowed","type":"bool","internalType":"bool"}],"stateMutability":"view"},{"type":"function","name":"allowedCallSites","inputs":[{"name":"target","type":"address","internalType":"address"},{"name":"selector","type":"bytes4","internalType":"bytes4"}],"outputs":[{"name":"allowed","type":"bool","internalType":"bool"}],"stateMutability":"view"},{"type":"function","name":"allowedReceivers","inputs":[{"name":"receiver","type":"address","internalType":"address"}],"outputs":[{"name":"allowed","type":"bool","internalType":"bool"}],"stateMutability":"view"},{"type":"function","name":"allowedSenders","inputs":[{"name":"sender","type":"address","internalType":"address"}],"outputs":[{"name":"allowed","type":"bool","internalType":"bool"}],"stateMutability":"view"},{"type":"function","name":"allowedWithdrawDestinations","inputs":[{"name":"destination","type":"address","internalType":"address"}],"outputs":[{"name":"allowed","type":"bool","internalType":"bool"}],"stateMutability":"view"},{"type":"function","name":"callSiteCount","inputs":[],"outputs":[{"name":"","type":"uint256","internalType":"uint256"}],"stateMutability":"view"},{"type":"function","name":"getGovernanceAddress","inputs":[],"outputs":[{"name":"","type":"address","internalType":"address"}],"stateMutability":"view"},{"type":"function","name":"isAllowedApprovalDestination","inputs":[{"name":"receiver","type":"address","internalType":"address"}],"outputs":[{"name":"","type":"bool","internalType":"bool"}],"stateMutability":"view"},{"type":"function","name":"isAllowedAsset","inputs":[{"name":"token","type":"address","internalType":"address"}],"outputs":[{"name":"","type":"bool","internalType":"bool"}],"stateMutability":"view"},{"type":"function","name":"isAllowedCallSite","inputs":[{"name":"target","type":"address","internalType":"address"},{"name":"selector","type":"bytes4","internalType":"bytes4"}],"outputs":[{"name":"","type":"bool","internalType":"bool"}],"stateMutability":"view"},{"type":"function","name":"isAllowedReceiver","inputs":[{"name":"sender","type":"address","internalType":"address"}],"outputs":[{"name":"","type":"bool","internalType":"bool"}],"stateMutability":"view"},{"type":"function","name":"isAllowedSender","inputs":[{"name":"sender","type":"address","internalType":"address"}],"outputs":[{"name":"","type":"bool","internalType":"bool"}],"stateMutability":"view"},{"type":"function","name":"isAllowedWithdrawDestination","inputs":[{"name":"receiver","type":"address","internalType":"address"}],"outputs":[{"name":"","type":"bool","internalType":"bool"}],"stateMutability":"view"},{"type":"function","name":"owner","inputs":[],"outputs":[{"name":"","type":"address","internalType":"address"}],"stateMutability":"view"},{"type":"function","name":"removeApprovalDestination","inputs":[{"name":"destination","type":"address","internalType":"address"},{"name":"notes","type":"string","internalType":"string"}],"outputs":[],"stateMutability":"nonpayable"},{"type":"function","name":"removeAsset","inputs":[{"name":"sender","type":"address","internalType":"address"},{"name":"notes","type":"string","internalType":"string"}],"outputs":[],"stateMutability":"nonpayable"},{"type":"function","name":"removeCallSite","inputs":[{"name":"target","type":"address","internalType":"address"},{"name":"selector","type":"bytes4","internalType":"bytes4"},{"name":"notes","type":"string","internalType":"string"}],"outputs":[],"stateMutability":"nonpayable"},{"type":"function","name":"removeReceiver","inputs":[{"name":"receiver","type":"address","internalType":"address"},{"name":"notes","type":"string","internalType":"string"}],"outputs":[],"stateMutability":"nonpayable"},{"type":"function","name":"removeSender","inputs":[{"name":"sender","type":"address","internalType":"address"},{"name":"notes","type":"string","internalType":"string"}],"outputs":[],"stateMutability":"nonpayable"},{"type":"function","name":"removeWithdrawDestination","inputs":[{"name":"destination","type":"address","internalType":"address"},{"name":"notes","type":"string","internalType":"string"}],"outputs":[],"stateMutability":"nonpayable"},{"type":"function","name":"renounceOwnership","inputs":[],"outputs":[],"stateMutability":"nonpayable"},{"type":"function","name":"transferOwnership","inputs":[{"name":"newOwner","type":"address","internalType":"address"}],"outputs":[],"stateMutability":"nonpayable"},{"type":"function","name":"validateCall","inputs":[{"name":"sender","type":"address","internalType":"address"},{"name":"target","type":"address","internalType":"address"},{"name":"callDataWithSelector","type":"bytes","internalType":"bytes"}],"outputs":[],"stateMutability":"view"},{"type":"function","name":"validate_approve","inputs":[{"name":"callData","type":"bytes","internalType":"bytes"}],"outputs":[],"stateMutability":"view"},{"type":"function","name":"validate_swapTokensForExactTokens","inputs":[{"name":"callData","type":"bytes","internalType":"bytes"}],"outputs":[],"stateMutability":"view"},{"type":"function","name":"validate_transfer","inputs":[{"name":"callData","type":"bytes","internalType":"bytes"}],"outputs":[],"stateMutability":"view"},{"type":"function","name":"whitelistToken","inputs":[{"name":"token","type":"address","internalType":"address"},{"name":"notes","type":"string","internalType":"string"}],"outputs":[],"stateMutability":"nonpayable"},{"type":"function","name":"whitelistUniswapV2Router","inputs":[{"name":"router","type":"address","internalType":"address"},{"name":"notes","type":"string","internalType":"string"}],"outputs":[],"stateMutability":"nonpayable"},{"type":"event","name":"ApprovalDestinationApproved","inputs":[{"name":"sender","type":"address","indexed":false,"internalType":"address"},{"name":"notes","type":"string","indexed":false,"internalType":"string"}],"anonymous":false},{"type":"event","name":"ApprovalDestinationRemoved","inputs":[{"name":"sender","type":"address","indexed":false,"internalType":"address"},{"name":"notes","type":"string","indexed":false,"internalType":"string"}],"anonymous":false},{"type":"event","name":"AssetApproved","inputs":[{"name":"sender","type":"address","indexed":false,"internalType":"address"},{"name":"notes","type":"string","indexed":false,"internalType":"string"}],"anonymous":false},{"type":"event","name":"AssetRemoved","inputs":[{"name":"sender","type":"address","indexed":false,"internalType":"address"},{"name":"notes","type":"string","indexed":false,"internalType":"string"}],"anonymous":false},{"type":"event","name":"CallSiteApproved","inputs":[{"name":"target","type":"address","indexed":false,"internalType":"address"},{"name":"selector","type":"bytes4","indexed":false,"internalType":"bytes4"},{"name":"notes","type":"string","indexed":false,"internalType":"string"}],"anonymous":false},{"type":"event","name":"CallSiteRemoved","inputs":[{"name":"target","type":"address","indexed":false,"internalType":"address"},{"name":"selector","type":"bytes4","indexed":false,"internalType":"bytes4"},{"name":"notes","type":"string","indexed":false,"internalType":"string"}],"anonymous":false},{"type":"event","name":"OwnershipTransferred","inputs":[{"name":"previousOwner","type":"address","indexed":true,"internalType":"address"},{"name":"newOwner","type":"address","indexed":true,"internalType":"address"}],"anonymous":false},{"type":"event","name":"ReceiverApproved","inputs":[{"name":"sender","type":"address","indexed":false,"internalType":"address"},{"name":"notes","type":"string","indexed":false,"internalType":"string"}],"anonymous":false},{"type":"event","name":"ReceiverRemoved","inputs":[{"name":"sender","type":"address","indexed":false,"internalType":"address"},{"name":"notes","type":"string","indexed":false,"internalType":"string"}],"anonymous":false},{"type":"event","name":"SenderApproved","inputs":[{"name":"sender","type":"address","indexed":false,"internalType":"address"},{"name":"notes","type":"string","indexed":false,"internalType":"string"}],"anonymous":false},{"type":"event","name":"SenderRemoved","inputs":[{"name":"sender","type":"address","indexed":false,"internalType":"address"},{"name":"notes","type":"string","indexed":false,"internalType":"string"}],"anonymous":false},{"type":"event","name":"WithdrawDestinationApproved","inputs":[{"name":"sender","type":"address","indexed":false,"internalType":"address"},{"name":"notes","type":"string","indexed":false,"internalType":"string"}],"anonymous":false},{"type":"event","name":"WithdrawDestinationRemoved","inputs":[{"name":"sender","type":"address","indexed":false,"internalType":"address"},{"name":"notes","type":"string","indexed":false,"internalType":"string"}],"anonymous":false}],"bytecode":{"object":"0x608060405234801561001057600080fd5b5061001a3361001f565b61006f565b600080546001600160a01b038381166001600160a01b0319831681178455604051919092169283917f8be0079c531659141344cd1fd0a4f28419497f9722a3daafe3b4186f6b6457e09190a35050565b61184b8061007e6000396000f3fe608060405234801561001057600080fd5b50600436106102115760003560e01c80638c2fdf9e11610125578063d075f9bb116100ad578063efb47bff1161007c578063efb47bff14610525578063f2fde38b14610556578063f901dc3314610569578063fa2c59c81461057c578063fadbcf481461058f57600080fd5b8063d075f9bb146104c9578063d7334c9d146104dc578063eb0de042146104ef578063ee5462cc1461051257600080fd5b8063a67e1f54116100f4578063a67e1f541461040f578063a847cf4d14610422578063a9fc3d4f14610450578063be8c97b014610467578063c537bed01461049857600080fd5b80638c2fdf9e146103b55780638da5cb5b146103c857806398b3cc39146103d9578063a4c1cccb146103ec57600080fd5b80634b956bd8116101a8578063713ebf3b11610177578063713ebf3b1461034f578063715018a61461036257806372e548a91461036a578063732524941461037d57806386b6dbe5146103a257600080fd5b80634b956bd8146103035780635ace1d92146103165780635e4ccace146103295780636d5025f11461033c57600080fd5b80631d49039c116101e45780631d49039c146102895780632d12d788146102ba5780633cf20025146102cd5780633ea35551146102f057600080fd5b806304a3ba251461021657806307ef00cf1461022b5780631202f5e5146102635780631710a4f214610276575b600080fd5b6102296102243660046112fa565b6105b2565b005b61024e61023936600461134f565b60066020526000908152604090205460ff1681565b60405190151581526020015b60405180910390f35b6102296102713660046113ba565b61061b565b6102296102843660046113ba565b6107b9565b61024e61029736600461134f565b6001600160a01b031660009081526007602052604090205460ff16151560011490565b6102296102c83660046112fa565b610849565b61024e6102db36600461134f565b60056020526000908152604090205460ff1681565b6102296102fe3660046112fa565b6108a5565b6102296103113660046113ba565b6108e7565b6102296103243660046112fa565b610973565b61022961033736600461146c565b6109d2565b61022961034a3660046114cf565b610a68565b61024e61035d366004611500565b610d43565b610229610d7b565b6102296103783660046112fa565b610d8f565b6000546001600160a01b03165b6040516001600160a01b03909116815260200161025a565b6102296103b03660046112fa565b610dee565b6102296103c33660046112fa565b610e4d565b6000546001600160a01b031661038a565b6102296103e73660046112fa565b610ea9565b61024e6103fa36600461134f565b60036020526000908152604090205460ff1681565b61022961041d3660046112fa565b610f08565b61024e610430366004611500565b600160209081526000928352604080842090915290825290205460ff1681565b61045960025481565b60405190815260200161025a565b61024e61047536600461134f565b6001600160a01b031660009081526004602052604090205460ff16151560011490565b61024e6104a636600461134f565b6001600160a01b031660009081526003602052604090205460ff16151560011490565b61024e6104d736600461134f565b610f64565b6102296104ea36600461146c565b610f8d565b61024e6104fd36600461134f565b60076020526000908152604090205460ff1681565b6102296105203660046112fa565b611000565b61024e61053336600461134f565b6001600160a01b031660009081526006602052604090205460ff16151560011490565b61022961056436600461134f565b6110be565b6102296105773660046112fa565b611137565b61022961058a3660046112fa565b611193565b61024e61059d36600461134f565b60046020526000908152604090205460ff1681565b6105ba6111f2565b6001600160a01b03831660009081526007602052604090819020805460ff19169055517fb71be9befd3ac90c1c9981d3b1161b3c2c6dcd741f13b34061aa251226a802df9061060e9085908590859061155e565b60405180910390a1505050565b600080828060200190518101906106329190611597565b5093509350505060008260008151811061064e5761064e611679565b602002602001015190506000836001855161066991906116a5565b8151811061067957610679611679565b6020026020010151905061068c83610f64565b6106dd5760405162461bcd60e51b815260206004820152601f60248201527f5265636569766572206164647265737320646f6573206e6f74206d617463680060448201526064015b60405180910390fd5b610704826001600160a01b031660009081526003602052604090205460ff16151560011490565b6107475760405162461bcd60e51b8152602060048201526014602482015273151bdad95b881a5b881b9bdd08185b1b1bddd95960621b60448201526064016106d4565b61076e816001600160a01b031660009081526003602052604090205460ff16151560011490565b6107b25760405162461bcd60e51b8152602060048201526015602482015274151bdad95b881bdd5d081b9bdd08185b1b1bddd959605a1b60448201526064016106d4565b5050505050565b6000818060200190518101906107cf91906116b8565b5090506107f9816001600160a01b031660009081526006602052604090205460ff16151560011490565b6108455760405162461bcd60e51b815260206004820152601f60248201527f5265636569766572206164647265737320646f6573206e6f74206d617463680060448201526064016106d4565b5050565b6108516111f2565b6001600160a01b03831660009081526005602052604090819020805460ff19169055517f4e13b11ab98e672bd78295ef9cebe764dc617f95decf47d842c25b83abc0c7249061060e9085908590859061155e565b6108d7836108d06040518060800160405280604381526020016117d360439139805160209091012090565b84846109d2565b6108e2838383610ea9565b505050565b6000818060200190518101906108fd91906116b8565b509050610927816001600160a01b031660009081526007602052604090205460ff16151560011490565b6108455760405162461bcd60e51b815260206004820152601e60248201527f417070726f7665206164647265737320646f6573206e6f74206d61746368000060448201526064016106d4565b61097b6111f2565b6001600160a01b03831660009081526006602052604090819020805460ff19166001179055517f3562181221a42a19ddd03a82dfe06acab1905ceb65cdaf7d86a1d9fec66435529061060e9085908590859061155e565b6109da6111f2565b6001600160a01b03841660009081526001602081815260408084206001600160e01b0319881685529091528220805460ff191690911790556002805491610a20836116e6565b91905055507fef729aaa41b9fd994f9ff7c1960df214a84f722002e6cfbea31799cd0873a3ef84848484604051610a5a94939291906116ff565b60405180910390a150505050565b6000546001600160a01b03858116911614610d3d57610aa4846001600160a01b031660009081526004602052604090205460ff16151560011490565b15610ae65760405162461bcd60e51b815260206004820152601260248201527114d95b99195c881b9bdd08185b1b1bddd95960721b60448201526064016106d4565b6000610af5600482848661173e565b610afe91611768565b9050366000610b10846004818861173e565b91509150610b1e8684610d43565b15610b635760405162461bcd60e51b815260206004820152601560248201527410d85b1b081cda5d19481b9bdd08185b1b1bddd959605a1b60448201526064016106d4565b610b8a6040518060600160405280603a8152602001611799603a9139805160209091012090565b6001600160e01b031916836001600160e01b03191603610be857610be382828080601f01602080910402602001604051908101604052809392919081815260200183838082843760009201919091525061061b92505050565b610d39565b6040805180820190915260168152757472616e7366657228616464726573732c75696e742960501b602090910152631268db0560e31b6001600160e01b0319841601610c6d57610be382828080601f0160208091040260200160405190810160405280939291908181526020018383808284376000920191909152506107b992505050565b604080518082019091526015815274617070726f766528616464726573732c75696e742960581b602090910152637bc9df8560e11b6001600160e01b0319841601610cf157610be382828080601f0160208091040260200160405190810160405280939291908181526020018383808284376000920191909152506108e792505050565b60405162461bcd60e51b815260206004820152601960248201527f556e6b6e6f776e2066756e6374696f6e2073656c6563746f720000000000000060448201526064016106d4565b5050505b50505050565b6001600160a01b03821660009081526001602090815260408083206001600160e01b03198516845290915290205460ff165b92915050565b610d836111f2565b610d8d600061124c565b565b610d976111f2565b6001600160a01b03831660009081526005602052604090819020805460ff19166001179055517f62dd88c5ecfa60713a657640ebec4de26fc1aefa4afdb24e6d15a124fce727799061060e9085908590859061155e565b610df66111f2565b6001600160a01b03831660009081526003602052604090819020805460ff19166001179055517fad90e2570fc4fe9f7437be3188d5c791c6662892d31731992aa88f5c876219839061060e9085908590859061155e565b610e556111f2565b6001600160a01b03831660009081526006602052604090819020805460ff19169055517f1212f8ddb39de8e1a339460c95752d61100723efeaa34ccd94bca94393f409389061060e9085908590859061155e565b610eb16111f2565b6001600160a01b03831660009081526007602052604090819020805460ff19166001179055517f628a44970c0e450415e3ae74334ea44f3307b74dbf677a1371190242bf2f35899061060e9085908590859061155e565b610f106111f2565b6001600160a01b03831660009081526004602052604090819020805460ff19169055517f3097928509c53a2dab9500431201d82b0d756e8f890fd01f4ae6b33b45687ea49061060e9085908590859061155e565b6000610d75826001600160a01b031660009081526004602052604090205460ff16151560011490565b610f956111f2565b6001600160a01b03841660009081526001602090815260408083206001600160e01b03198716845290915290819020805460ff19169055517f37ea10f2d08f5a9803dfcd5abf3cfc7b0d6fcdf5fcbc36be9ea5a0b53d9a4d9b90610a5a9086908690869086906116ff565b60408051808201909152601981527f7472616e7366657228616464726573732c75696e74323536290000000000000060209091015261105f837fa9059cbb2ab09eb219583f4a59a5d0623ade346d962bcd4e46b11da047c9049b6108d0565b60408051808201909152601881527f617070726f766528616464726573732c75696e743235362900000000000000006020909101526108e2837f095ea7b334ae44009aa867bfb386f5c3b4b443ac6f0ee573fa91c4608fbadfba6108d0565b6110c66111f2565b6001600160a01b03811661112b5760405162461bcd60e51b815260206004820152602660248201527f4f776e61626c653a206e6577206f776e657220697320746865207a65726f206160448201526564647265737360d01b60648201526084016106d4565b6111348161124c565b50565b61113f6111f2565b6001600160a01b03831660009081526003602052604090819020805460ff19169055517f9ca3f065622f5f03f32b7157677a0e420c3a36ab45fd49f256ffebce3e3105879061060e9085908590859061155e565b61119b6111f2565b6001600160a01b03831660009081526004602052604090819020805460ff19166001179055517fa8f9caaf4861720900294428e4ff34d37070c37afd26d96e6e4da75326d2c3ad9061060e9085908590859061155e565b6000546001600160a01b03163314610d8d5760405162461bcd60e51b815260206004820181905260248201527f4f776e61626c653a2063616c6c6572206973206e6f7420746865206f776e657260448201526064016106d4565b600080546001600160a01b038381166001600160a01b0319831681178455604051919092169283917f8be0079c531659141344cd1fd0a4f28419497f9722a3daafe3b4186f6b6457e09190a35050565b6001600160a01b038116811461113457600080fd5b60008083601f8401126112c357600080fd5b50813567ffffffffffffffff8111156112db57600080fd5b6020830191508360208285010111156112f357600080fd5b9250929050565b60008060006040848603121561130f57600080fd5b833561131a8161129c565b9250602084013567ffffffffffffffff81111561133657600080fd5b611342868287016112b1565b9497909650939450505050565b60006020828403121561136157600080fd5b813561136c8161129c565b9392505050565b634e487b7160e01b600052604160045260246000fd5b604051601f8201601f1916810167ffffffffffffffff811182821017156113b2576113b2611373565b604052919050565b600060208083850312156113cd57600080fd5b823567ffffffffffffffff808211156113e557600080fd5b818501915085601f8301126113f957600080fd5b81358181111561140b5761140b611373565b61141d601f8201601f19168501611389565b9150808252868482850101111561143357600080fd5b8084840185840137600090820190930192909252509392505050565b80356001600160e01b03198116811461146757600080fd5b919050565b6000806000806060858703121561148257600080fd5b843561148d8161129c565b935061149b6020860161144f565b9250604085013567ffffffffffffffff8111156114b757600080fd5b6114c3878288016112b1565b95989497509550505050565b600080600080606085870312156114e557600080fd5b84356114f08161129c565b9350602085013561149b8161129c565b6000806040838503121561151357600080fd5b823561151e8161129c565b915061152c6020840161144f565b90509250929050565b81835281816020850137506000828201602090810191909152601f909101601f19169091010190565b6001600160a01b03841681526040602082018190526000906115839083018486611535565b95945050505050565b80516114678161129c565b600080600080600060a086880312156115af57600080fd5b855194506020808701519450604087015167ffffffffffffffff808211156115d657600080fd5b818901915089601f8301126115ea57600080fd5b8151818111156115fc576115fc611373565b8060051b915061160d848301611389565b818152918301840191848101908c84111561162757600080fd5b938501935b8385101561165157845192506116418361129c565b828252938501939085019061162c565b8098505050505050506116666060870161158c565b9150608086015190509295509295909350565b634e487b7160e01b600052603260045260246000fd5b634e487b7160e01b600052601160045260246000fd5b81810381811115610d7557610d7561168f565b600080604083850312156116cb57600080fd5b82516116d68161129c565b6020939093015192949293505050565b6000600182016116f8576116f861168f565b5060010190565b6001600160a01b03851681526001600160e01b0319841660208201526060604082018190526000906117349083018486611535565b9695505050505050565b6000808585111561174e57600080fd5b8386111561175b57600080fd5b5050820193919092039150565b6001600160e01b031981358181169160048510156117905780818660040360031b1b83161692505b50509291505056fe73776170546f6b656e73466f724578616374546f6b656e732875696e742c75696e742c616464726573735b5d2c616464726573732c75696e7429737761704578616374546f6b656e73466f72546f6b656e732875696e743235362c75696e743235362c616464726573735b5d2c616464726573732c75696e7432353629a2646970667358221220c8df3eeedd0d32da118a94e7a726ff92ff61140587a0b2b9a38faf9f2133a2c064736f6c63430008130033","linkReferences":{}},"methodIdentifiers":{"allowApprovalDestination(address,string)":"98b3cc39","allowAsset(address,string)":"86b6dbe5","allowCallSite(address,bytes4,string)":"5e4ccace","allowReceiver(address,string)":"72e548a9","allowSender(address,string)":"fa2c59c8","allowWithdrawDestination(address,string)":"5ace1d92","allowedApprovalDestinations(address)":"eb0de042","allowedAssets(address)":"a4c1cccb","allowedCallSites(address,bytes4)":"a847cf4d","allowedReceivers(address)":"3cf20025","allowedSenders(address)":"fadbcf48","allowedWithdrawDestinations(address)":"07ef00cf","callSiteCount()":"a9fc3d4f","getGovernanceAddress()":"73252494","isAllowedApprovalDestination(address)":"1d49039c","isAllowedAsset(address)":"c537bed0","isAllowedCallSite(address,bytes4)":"713ebf3b","isAllowedReceiver(address)":"d075f9bb","isAllowedSender(address)":"be8c97b0","isAllowedWithdrawDestination(address)":"efb47bff","owner()":"8da5cb5b","removeApprovalDestination(address,string)":"04a3ba25","removeAsset(address,string)":"f901dc33","removeCallSite(address,bytes4,string)":"d7334c9d","removeReceiver(address,string)":"2d12d788","removeSender(address,string)":"a67e1f54","removeWithdrawDestination(address,string)":"8c2fdf9e","renounceOwnership()":"715018a6","transferOwnership(address)":"f2fde38b","validateCall(address,address,bytes)":"6d5025f1","validate_approve(bytes)":"4b956bd8","validate_swapTokensForExactTokens(bytes)":"1202f5e5","validate_transfer(bytes)":"1710a4f2","whitelistToken(address,string)":"ee5462cc","whitelistUniswapV2Router(address,string)":"3ea35551"},"id":2}