{"abi":[{"type":"constructor","inputs":[],"stateMutability":"nonpayable"},{"type":"function","name":"allowApprovalDestination","inputs":[{"name":"destination","type":"address","internalType":"address"},{"name":"notes","type":"string","internalType":"string"}],"outputs":[],"stateMutability":"nonpayable"},{"type":"function","name":"allowAsset","inputs":[{"name":"asset","type":"address","internalType":"address"},{"name":"notes","type":"string","internalType":"string"}],"outputs":[],"stateMutability":"nonpayable"},{"type":"function","name":"allowCallSite","inputs":[{"name":"target","type":"address","internalType":"address"},{"name":"selector","type":"bytes4","internalType":"bytes4"},{"name":"notes","type":"string","internalType":"string"}],"outputs":[],"stateMutability":"nonpayable"},{"type":"function","name":"allowDelegationApprovalDestination","inputs":[{"name":"destination","type":"address","internalType":"address"},{"name":"notes","type":"string","internalType":"string"}],"outputs":[],"stateMutability":"nonpayable"},{"type":"function","name":"allowReceiver","inputs":[{"name":"receiver","type":"address","internalType":"address"},{"name":"notes","type":"string","internalType":"string"}],"outputs":[],"stateMutability":"nonpayable"},{"type":"function","name":"allowSender","inputs":[{"name":"sender","type":"address","internalType":"address"},{"name":"notes","type":"string","internalType":"string"}],"outputs":[],"stateMutability":"nonpayable"},{"type":"function","name":"allowWithdrawDestination","inputs":[{"name":"destination","type":"address","internalType":"address"},{"name":"notes","type":"string","internalType":"string"}],"outputs":[],"stateMutability":"nonpayable"},{"type":"function","name":"allowedApprovalDestinations","inputs":[{"name":"destination","type":"address","internalType":"address"}],"outputs":[{"name":"allowed","type":"bool","internalType":"bool"}],"stateMutability":"view"},{"type":"function","name":"allowedAssets","inputs":[{"name":"token","type":"address","internalType":"address"}],"outputs":[{"name":"allowed","type":"bool","internalType":"bool"}],"stateMutability":"view"},{"type":"function","name":"allowedCCTPDestinations","inputs":[{"name":"domain","type":"uint32","internalType":"uint32"}],"outputs":[{"name":"allowed","type":"bool","internalType":"bool"}],"stateMutability":"view"},{"type":"function","name":"allowedCCTPMessengers","inputs":[{"name":"messenger","type":"address","internalType":"address"}],"outputs":[{"name":"allowed","type":"bool","internalType":"bool"}],"stateMutability":"view"},{"type":"function","name":"allowedCallSites","inputs":[{"name":"target","type":"address","internalType":"address"},{"name":"selector","type":"bytes4","internalType":"bytes4"}],"outputs":[{"name":"allowed","type":"bool","internalType":"bool"}],"stateMutability":"view"},{"type":"function","name":"allowedDelegationApprovalDestinations","inputs":[{"name":"destination","type":"address","internalType":"address"}],"outputs":[{"name":"allowed","type":"bool","internalType":"bool"}],"stateMutability":"view"},{"type":"function","name":"allowedLagoonVaults","inputs":[{"name":"destination","type":"address","internalType":"address"}],"outputs":[{"name":"allowed","type":"bool","internalType":"bool"}],"stateMutability":"view"},{"type":"function","name":"allowedReceivers","inputs":[{"name":"receiver","type":"address","internalType":"address"}],"outputs":[{"name":"allowed","type":"bool","internalType":"bool"}],"stateMutability":"view"},{"type":"function","name":"allowedSenders","inputs":[{"name":"sender","type":"address","internalType":"address"}],"outputs":[{"name":"allowed","type":"bool","internalType":"bool"}],"stateMutability":"view"},{"type":"function","name":"allowedTargets","inputs":[{"name":"target","type":"address","internalType":"address"}],"outputs":[{"name":"allowed","type":"bool","internalType":"bool"}],"stateMutability":"view"},{"type":"function","name":"allowedWithdrawDestinations","inputs":[{"name":"destination","type":"address","internalType":"address"}],"outputs":[{"name":"allowed","type":"bool","internalType":"bool"}],"stateMutability":"view"},{"type":"function","name":"anyAsset","inputs":[],"outputs":[{"name":"","type":"bool","internalType":"bool"}],"stateMutability":"view"},{"type":"function","name":"callSiteCount","inputs":[],"outputs":[{"name":"","type":"uint256","internalType":"uint256"}],"stateMutability":"view"},{"type":"function","name":"getGovernanceAddress","inputs":[],"outputs":[{"name":"","type":"address","internalType":"address"}],"stateMutability":"view"},{"type":"function","name":"getInternalVersion","inputs":[],"outputs":[{"name":"","type":"uint8","internalType":"uint8"}],"stateMutability":"pure"},{"type":"function","name":"gmxOrderVaults","inputs":[{"name":"exchangeRouter","type":"address","internalType":"address"}],"outputs":[{"name":"","type":"address","internalType":"address"}],"stateMutability":"view"},{"type":"function","name":"isAllowedApprovalDestination","inputs":[{"name":"receiver","type":"address","internalType":"address"}],"outputs":[{"name":"","type":"bool","internalType":"bool"}],"stateMutability":"view"},{"type":"function","name":"isAllowedAsset","inputs":[{"name":"token","type":"address","internalType":"address"}],"outputs":[{"name":"","type":"bool","internalType":"bool"}],"stateMutability":"view"},{"type":"function","name":"isAllowedCCTPDestination","inputs":[{"name":"domain","type":"uint32","internalType":"uint32"}],"outputs":[{"name":"","type":"bool","internalType":"bool"}],"stateMutability":"view"},{"type":"function","name":"isAllowedCCTPMessenger","inputs":[{"name":"messenger","type":"address","internalType":"address"}],"outputs":[{"name":"","type":"bool","internalType":"bool"}],"stateMutability":"view"},{"type":"function","name":"isAllowedCallSite","inputs":[{"name":"target","type":"address","internalType":"address"},{"name":"selector","type":"bytes4","internalType":"bytes4"}],"outputs":[{"name":"","type":"bool","internalType":"bool"}],"stateMutability":"view"},{"type":"function","name":"isAllowedCowSwap","inputs":[{"name":"settlement","type":"address","internalType":"address"}],"outputs":[{"name":"","type":"bool","internalType":"bool"}],"stateMutability":"view"},{"type":"function","name":"isAllowedDelegationApprovalDestination","inputs":[{"name":"receiver","type":"address","internalType":"address"}],"outputs":[{"name":"","type":"bool","internalType":"bool"}],"stateMutability":"view"},{"type":"function","name":"isAllowedGMXMarket","inputs":[{"name":"market","type":"address","internalType":"address"}],"outputs":[{"name":"","type":"bool","internalType":"bool"}],"stateMutability":"view"},{"type":"function","name":"isAllowedGMXRouter","inputs":[{"name":"router","type":"address","internalType":"address"}],"outputs":[{"name":"","type":"bool","internalType":"bool"}],"stateMutability":"view"},{"type":"function","name":"isAllowedLagoonVault","inputs":[{"name":"vault","type":"address","internalType":"address"}],"outputs":[{"name":"","type":"bool","internalType":"bool"}],"stateMutability":"view"},{"type":"function","name":"isAllowedReceiver","inputs":[{"name":"receiver","type":"address","internalType":"address"}],"outputs":[{"name":"","type":"bool","internalType":"bool"}],"stateMutability":"view"},{"type":"function","name":"isAllowedSender","inputs":[{"name":"sender","type":"address","internalType":"address"}],"outputs":[{"name":"","type":"bool","internalType":"bool"}],"stateMutability":"view"},{"type":"function","name":"isAllowedTarget","inputs":[{"name":"target","type":"address","internalType":"address"}],"outputs":[{"name":"","type":"bool","internalType":"bool"}],"stateMutability":"view"},{"type":"function","name":"isAllowedVeloraSwapper","inputs":[{"name":"swapper","type":"address","internalType":"address"}],"outputs":[{"name":"","type":"bool","internalType":"bool"}],"stateMutability":"view"},{"type":"function","name":"isAllowedWithdrawDestination","inputs":[{"name":"receiver","type":"address","internalType":"address"}],"outputs":[{"name":"","type":"bool","internalType":"bool"}],"stateMutability":"view"},{"type":"function","name":"multicall","inputs":[{"name":"data","type":"bytes[]","internalType":"bytes[]"}],"outputs":[{"name":"results","type":"bytes[]","internalType":"bytes[]"}],"stateMutability":"payable"},{"type":"function","name":"owner","inputs":[],"outputs":[{"name":"","type":"address","internalType":"address"}],"stateMutability":"view"},{"type":"function","name":"removeApprovalDestination","inputs":[{"name":"destination","type":"address","internalType":"address"},{"name":"notes","type":"string","internalType":"string"}],"outputs":[],"stateMutability":"nonpayable"},{"type":"function","name":"removeAsset","inputs":[{"name":"asset","type":"address","internalType":"address"},{"name":"notes","type":"string","internalType":"string"}],"outputs":[],"stateMutability":"nonpayable"},{"type":"function","name":"removeCCTPDestination","inputs":[{"name":"domain","type":"uint32","internalType":"uint32"},{"name":"notes","type":"string","internalType":"string"}],"outputs":[],"stateMutability":"nonpayable"},{"type":"function","name":"removeCallSite","inputs":[{"name":"target","type":"address","internalType":"address"},{"name":"selector","type":"bytes4","internalType":"bytes4"},{"name":"notes","type":"string","internalType":"string"}],"outputs":[],"stateMutability":"nonpayable"},{"type":"function","name":"removeDelegationApprovalDestination","inputs":[{"name":"destination","type":"address","internalType":"address"},{"name":"notes","type":"string","internalType":"string"}],"outputs":[],"stateMutability":"nonpayable"},{"type":"function","name":"removeGMXMarket","inputs":[{"name":"market","type":"address","internalType":"address"},{"name":"notes","type":"string","internalType":"string"}],"outputs":[],"stateMutability":"nonpayable"},{"type":"function","name":"removeHypercoreVault","inputs":[{"name":"vault","type":"address","internalType":"address"},{"name":"notes","type":"string","internalType":"string"}],"outputs":[],"stateMutability":"nonpayable"},{"type":"function","name":"removeReceiver","inputs":[{"name":"receiver","type":"address","internalType":"address"},{"name":"notes","type":"string","internalType":"string"}],"outputs":[],"stateMutability":"nonpayable"},{"type":"function","name":"removeSender","inputs":[{"name":"sender","type":"address","internalType":"address"},{"name":"notes","type":"string","internalType":"string"}],"outputs":[],"stateMutability":"nonpayable"},{"type":"function","name":"removeWithdrawDestination","inputs":[{"name":"destination","type":"address","internalType":"address"},{"name":"notes","type":"string","internalType":"string"}],"outputs":[],"stateMutability":"nonpayable"},{"type":"function","name":"renounceOwnership","inputs":[],"outputs":[],"stateMutability":"nonpayable"},{"type":"function","name":"setAnyAssetAllowed","inputs":[{"name":"value","type":"bool","internalType":"bool"},{"name":"notes","type":"string","internalType":"string"}],"outputs":[],"stateMutability":"nonpayable"},{"type":"function","name":"transferOwnership","inputs":[{"name":"newOwner","type":"address","internalType":"address"}],"outputs":[],"stateMutability":"nonpayable"},{"type":"function","name":"validateCall","inputs":[{"name":"sender","type":"address","internalType":"address"},{"name":"target","type":"address","internalType":"address"},{"name":"callDataWithSelector","type":"bytes","internalType":"bytes"}],"outputs":[],"stateMutability":"view"},{"type":"function","name":"whitelistAaveV3","inputs":[{"name":"lendingPool","type":"address","internalType":"address"},{"name":"notes","type":"string","internalType":"string"}],"outputs":[],"stateMutability":"nonpayable"},{"type":"function","name":"whitelistCCTP","inputs":[{"name":"tokenMessenger","type":"address","internalType":"address"},{"name":"notes","type":"string","internalType":"string"}],"outputs":[],"stateMutability":"nonpayable"},{"type":"function","name":"whitelistCCTPDestination","inputs":[{"name":"domain","type":"uint32","internalType":"uint32"},{"name":"notes","type":"string","internalType":"string"}],"outputs":[],"stateMutability":"nonpayable"},{"type":"function","name":"whitelistCoreWriter","inputs":[{"name":"coreWriter","type":"address","internalType":"address"},{"name":"coreDepositWallet","type":"address","internalType":"address"},{"name":"notes","type":"string","internalType":"string"}],"outputs":[],"stateMutability":"nonpayable"},{"type":"function","name":"whitelistCowSwap","inputs":[{"name":"settlementContract","type":"address","internalType":"address"},{"name":"relayerContract","type":"address","internalType":"address"},{"name":"notes","type":"string","internalType":"string"}],"outputs":[],"stateMutability":"nonpayable"},{"type":"function","name":"whitelistERC4626","inputs":[{"name":"vault","type":"address","internalType":"address"},{"name":"notes","type":"string","internalType":"string"}],"outputs":[],"stateMutability":"nonpayable"},{"type":"function","name":"whitelistGMX","inputs":[{"name":"exchangeRouter","type":"address","internalType":"address"},{"name":"syntheticsRouter","type":"address","internalType":"address"},{"name":"orderVault","type":"address","internalType":"address"},{"name":"notes","type":"string","internalType":"string"}],"outputs":[],"stateMutability":"nonpayable"},{"type":"function","name":"whitelistGMXMarket","inputs":[{"name":"market","type":"address","internalType":"address"},{"name":"notes","type":"string","internalType":"string"}],"outputs":[],"stateMutability":"nonpayable"},{"type":"function","name":"whitelistHypercoreVault","inputs":[{"name":"vault","type":"address","internalType":"address"},{"name":"notes","type":"string","internalType":"string"}],"outputs":[],"stateMutability":"nonpayable"},{"type":"function","name":"whitelistLagoon","inputs":[{"name":"vault","type":"address","internalType":"address"},{"name":"notes","type":"string","internalType":"string"}],"outputs":[],"stateMutability":"nonpayable"},{"type":"function","name":"whitelistToken","inputs":[{"name":"token","type":"address","internalType":"address"},{"name":"notes","type":"string","internalType":"string"}],"outputs":[],"stateMutability":"nonpayable"},{"type":"function","name":"whitelistTokenForDelegation","inputs":[{"name":"token","type":"address","internalType":"address"},{"name":"notes","type":"string","internalType":"string"}],"outputs":[],"stateMutability":"nonpayable"},{"type":"function","name":"whitelistUniswapV2Router","inputs":[{"name":"router","type":"address","internalType":"address"},{"name":"notes","type":"string","internalType":"string"}],"outputs":[],"stateMutability":"nonpayable"},{"type":"function","name":"whitelistUniswapV3Router","inputs":[{"name":"router","type":"address","internalType":"address"},{"name":"notes","type":"string","internalType":"string"}],"outputs":[],"stateMutability":"nonpayable"},{"type":"function","name":"whitelistVelora","inputs":[{"name":"augustusSwapper","type":"address","internalType":"address"},{"name":"tokenTransferProxy","type":"address","internalType":"address"},{"name":"notes","type":"string","internalType":"string"}],"outputs":[],"stateMutability":"nonpayable"},{"type":"event","name":"AnyAssetSet","inputs":[{"name":"value","type":"bool","indexed":false,"internalType":"bool"},{"name":"notes","type":"string","indexed":false,"internalType":"string"}],"anonymous":false},{"type":"event","name":"AnyVaultSet","inputs":[{"name":"value","type":"bool","indexed":false,"internalType":"bool"},{"name":"notes","type":"string","indexed":false,"internalType":"string"}],"anonymous":false},{"type":"event","name":"ApprovalDestinationApproved","inputs":[{"name":"destination","type":"address","indexed":false,"internalType":"address"},{"name":"notes","type":"string","indexed":false,"internalType":"string"}],"anonymous":false},{"type":"event","name":"ApprovalDestinationRemoved","inputs":[{"name":"destination","type":"address","indexed":false,"internalType":"address"},{"name":"notes","type":"string","indexed":false,"internalType":"string"}],"anonymous":false},{"type":"event","name":"AssetApproved","inputs":[{"name":"asset","type":"address","indexed":false,"internalType":"address"},{"name":"notes","type":"string","indexed":false,"internalType":"string"}],"anonymous":false},{"type":"event","name":"AssetRemoved","inputs":[{"name":"asset","type":"address","indexed":false,"internalType":"address"},{"name":"notes","type":"string","indexed":false,"internalType":"string"}],"anonymous":false},{"type":"event","name":"CCTPDestinationApproved","inputs":[{"name":"domain","type":"uint32","indexed":false,"internalType":"uint32"},{"name":"notes","type":"string","indexed":false,"internalType":"string"}],"anonymous":false},{"type":"event","name":"CCTPDestinationRemoved","inputs":[{"name":"domain","type":"uint32","indexed":false,"internalType":"uint32"},{"name":"notes","type":"string","indexed":false,"internalType":"string"}],"anonymous":false},{"type":"event","name":"CCTPMessengerApproved","inputs":[{"name":"tokenMessenger","type":"address","indexed":false,"internalType":"address"},{"name":"notes","type":"string","indexed":false,"internalType":"string"}],"anonymous":false},{"type":"event","name":"CallSiteApproved","inputs":[{"name":"target","type":"address","indexed":false,"internalType":"address"},{"name":"selector","type":"bytes4","indexed":false,"internalType":"bytes4"},{"name":"notes","type":"string","indexed":false,"internalType":"string"}],"anonymous":false},{"type":"event","name":"CallSiteRemoved","inputs":[{"name":"target","type":"address","indexed":false,"internalType":"address"},{"name":"selector","type":"bytes4","indexed":false,"internalType":"bytes4"},{"name":"notes","type":"string","indexed":false,"internalType":"string"}],"anonymous":false},{"type":"event","name":"DelegationApprovalDestinationApproved","inputs":[{"name":"destination","type":"address","indexed":false,"internalType":"address"},{"name":"notes","type":"string","indexed":false,"internalType":"string"}],"anonymous":false},{"type":"event","name":"DelegationApprovalDestinationRemoved","inputs":[{"name":"destination","type":"address","indexed":false,"internalType":"address"},{"name":"notes","type":"string","indexed":false,"internalType":"string"}],"anonymous":false},{"type":"event","name":"ERC4626Approved","inputs":[{"name":"vault","type":"address","indexed":false,"internalType":"address"},{"name":"notes","type":"string","indexed":false,"internalType":"string"}],"anonymous":false},{"type":"event","name":"LagoonVaultApproved","inputs":[{"name":"vault","type":"address","indexed":false,"internalType":"address"},{"name":"notes","type":"string","indexed":false,"internalType":"string"}],"anonymous":false},{"type":"event","name":"OwnershipTransferred","inputs":[{"name":"previousOwner","type":"address","indexed":true,"internalType":"address"},{"name":"newOwner","type":"address","indexed":true,"internalType":"address"}],"anonymous":false},{"type":"event","name":"ReceiverApproved","inputs":[{"name":"receiver","type":"address","indexed":false,"internalType":"address"},{"name":"notes","type":"string","indexed":false,"internalType":"string"}],"anonymous":false},{"type":"event","name":"ReceiverRemoved","inputs":[{"name":"receiver","type":"address","indexed":false,"internalType":"address"},{"name":"notes","type":"string","indexed":false,"internalType":"string"}],"anonymous":false},{"type":"event","name":"SenderApproved","inputs":[{"name":"sender","type":"address","indexed":false,"internalType":"address"},{"name":"notes","type":"string","indexed":false,"internalType":"string"}],"anonymous":false},{"type":"event","name":"SenderRemoved","inputs":[{"name":"sender","type":"address","indexed":false,"internalType":"address"},{"name":"notes","type":"string","indexed":false,"internalType":"string"}],"anonymous":false},{"type":"event","name":"WithdrawDestinationApproved","inputs":[{"name":"destination","type":"address","indexed":false,"internalType":"address"},{"name":"notes","type":"string","indexed":false,"internalType":"string"}],"anonymous":false},{"type":"event","name":"WithdrawDestinationRemoved","inputs":[{"name":"destination","type":"address","indexed":false,"internalType":"address"},{"name":"notes","type":"string","indexed":false,"internalType":"string"}],"anonymous":false}],"bytecode":{"object":"0x60808060405234606a57600c8054610100600160a81b0319811633600881811b610100600160a81b0316929092179093551c6001600160a01b03167f8be0079c531659141344cd1fd0a4f28419497f9722a3daafe3b4186f6b6457e05f80a3614ce5908161006f8239f35b5f80fdfe60806040526004361015610011575f80fd5b5f3560e01c80630411fb8e1461042d57806304a3ba2514610432578063076053421461042d57806307ef00cf146103385780631047789e146104285780631d49039c146103475780632d12d788146104235780632dc32a61146104005780632de905bc1461041e5780632e31e9c614610419578063333f22e81461041457806334ec8d7e1461040f5780633cf200251461040a5780633ea35551146104055780634b941268146104005780634d3d31ca146103fb5780634efbad39146103f65780635ace1d92146103f15780635e4ccace146103ec5780635e6afe4d146103e757806362d6775e146103e257806363cc17f2146103dd5780636d5025f1146103d85780636d9a1423146103d35780636fd7fdef146103a6578063713ebf3b14610392578063715018a6146103ce57806372e548a9146103c957806373252494146103ab578063748fca46146103c457806378addb48146103795780637cac69c3146103c457806386a6ae15146103bf57806386b6dbe5146103ba57806387301608146103b55780638c2fdf9e146103b05780638da5cb5b146103ab5780638fb4dff2146103a657806398b3cc39146103a1578063a4c1cccb1461039c578063a67e1f5414610397578063a847cf4d14610392578063a86ddc571461038d578063a9fc3d4f14610388578063ac9650d814610383578063acb9da161461037e578063b8fe8d5f14610379578063ba44ad4114610374578063be8c97b014610315578063c2e657ae1461036f578063c537bed01461036a578063cbdb1dcf14610365578063d075f9bb14610360578063d7334c9d1461035b578063d758150914610356578063e2873b6d14610351578063e6f32c511461034c578063eb0de04214610347578063ec01144014610342578063ee5462cc1461033d578063efb47bff14610338578063f20e85e014610333578063f259a0731461032e578063f2fde38b14610329578063f84756aa14610324578063f901dc331461031f578063fa2c59c81461031a578063fadbcf48146103155763fdedfa2714610310575f80fd5b61229d565b611a9e565b612222565b6121aa565b612130565b612060565b611fe8565b611f3c565b6105a4565b611f25565b611e2a565b61070a565b611db4565b611d49565b611cde565b611c60565b611c39565b611bbf565b611b8e565b611ae8565b611a2b565b611370565b61193c565b61183d565b61179d565b611709565b6111af565b61167b565b61163b565b6115d3565b61116f565b6112e6565b61155b565b611539565b6114d1565b6113b0565b611336565b611258565b61120c565b6110c9565b6110af565b611047565b610f12565b610def565b610d5c565b610c7e565b610bcb565b610b63565b6107c2565b610ab7565b610a77565b6109b6565b61093c565b610888565b610802565b61074a565b610628565b61044c565b6104f5565b6001600160a01b0381160361044857565b5f80fd5b346104485760203660031901126104485760043561046981610437565b60018060a01b03165f52600a602052602060ff60405f2054166040519015158152f35b9181601f84011215610448578235916001600160401b038311610448576020838186019501011161044857565b906040600319830112610448576004356104d281610437565b91602435906001600160401b038211610448576104f19160040161048c565b9091565b34610448577fb71be9befd3ac90c1c9981d3b1161b3c2c6dcd741f13b34061aa251226a802df61056d610527366104b9565b61054260018060a09694961b03600c5460081c1633146122b8565b6001600160a01b0383165f9081526007602052604090819020805460ff191690555193849384612323565b0390a1005b6001600160a01b03165f90815260208190526040902090565b6001600160a01b03165f90815260056020526040902090565b34610448576020366003190112610448576004356105c181610437565b60018060a01b03165f526006602052602060ff60405f2054166040519015158152f35b6060600319820112610448576004356105fc81610437565b9160243561060981610437565b91604435906001600160401b038211610448576104f19160040161048c565b34610448576106a0610639366105e4565b81819361065760018060a09996991b03600c5460081c1633146122b8565b6001600160a01b0386165f9081526007602052604090819020805460ff19166001179055515f80516020614c59833981519152908061069886868b84612323565b0390a16130d9565b73__$6fc6cfb0e70d6cdcacff54ae5a1f7f5d2d$__803b15610448576106df935f936040519586948593849363303e5bc960e21b855260048501612323565b03915af48015610705576106ef57005b806106fd5f61070393612397565b80611202565b005b6123ba565b346104485760203660031901126104485760043561072781610437565b60018060a01b03165f526007602052602060ff60405f2054166040519015158152f35b34610448577f4e13b11ab98e672bd78295ef9cebe764dc617f95decf47d842c25b83abc0c72461056d61077c366104b9565b61079760018060a09694961b03600c5460081c1633146122b8565b6001600160a01b0383165f9081526005602052604090819020805460ff191690555193849384612323565b34610448576020366003190112610448576004356107df81610437565b60018060a01b03165f526008602052602060ff60405f2054166040519015158152f35b3461044857610810366104b9565b915f9261082b60018060a01b03600c5460081c1633146122b8565b73__$ed404fe8d8cd691b210f32f3e93e2f5fa7$__803b156104485761086a935f9360405195869485938493630b7a416f60e21b855260048501612323565b03915af480156107055761087c575080f35b61070391505f90612397565b34610448576020366003190112610448576108cc60206004356108aa81610437565b600c546040516312789ae160e11b8152938492839260ff1690600484016123da565b038173__$abe99e6f90010eaab1ae0937da96c92fff$__5af4801561070557610909915f9161090d575b5060405191829182901515815260200190565b0390f35b61092f915060203d602011610935575b6109278183612397565b8101906123c5565b5f6108f6565b503d61091d565b346104485760203660031901126104485760043561095981610437565b604051630667e45d60e31b81526001600160a01b03909116600482015260208160248173__$6fc6cfb0e70d6cdcacff54ae5a1f7f5d2d$__5af4801561070557610909915f9161090d575060405191829182901515815260200190565b34610448576107036109c7366104b9565b916109e060018060a01b03600c5460081c1633146122b8565b6001600160a01b0381165f8181526020818152604080832063c04b8d5960e01b84529091529020600160ff198254161790555f52600160205260405f20600160ff19825416179055610a3b610a36600254612eaa565b600255565b5f80516020614cb983398151915260405180610a5986868684612ebd565b0390a1610a678383836123f5565b610a72838383612491565b6130d9565b3461044857602036600319011261044857600435610a9481610437565b60018060a01b03165f526005602052602060ff60405f2054166040519015158152f35b3461044857610703610ac8366104b9565b91610ae160018060a01b03600c5460081c1633146122b8565b6001600160a01b0381165f818152602081815260408083206338ed173960e01b84529091529020600160ff198254161790555f52600160205260405f20600160ff19825416179055610b37610a36600254612eaa565b5f80516020614cb983398151915260405180610b5586868684612eec565b0390a1610a72838383612528565b3461044857610b71366104b9565b915f92610b8c60018060a01b03600c5460081c1633146122b8565b73__$abe99e6f90010eaab1ae0937da96c92fff$__803b156104485761086a935f936040519586948593849363f7570c2960e01b855260048501612323565b34610448575f80516020614c59833981519152610be7366105e4565b9190809491610c0d60018060a01b03600c5460081c163314610c08816122b8565b6122b8565b60018060a01b0381165f52600760205260405f20600160ff19825416179055610c3c8460405193849384612323565b0390a173__$3ebced50d16a3712772def6ef3a529a5cb$__803b15610448576106df935f9360405195869485938493631a65191160e21b855260048501612323565b34610448577f3562181221a42a19ddd03a82dfe06acab1905ceb65cdaf7d86a1d9fec664355261056d610cb0366104b9565b610ccb60018060a09694961b03600c5460081c1633146122b8565b6001600160a01b0383165f9081526006602052604090819020805460ff191660011790555193849384612323565b602435906001600160e01b03198216820361044857565b606060031982011261044857600435610d2881610437565b916024356001600160e01b0319811681036104485791604435906001600160401b038211610448576104f19160040161048c565b34610448575f80516020614cb983398151915261056d610d7b36610d10565b90610d9760018060a09795971b03600c5460081c1633146122b8565b60018060a01b038416805f525f602052610db48660405f206116f3565b600160ff198254161790555f52600160205260405f20600160ff19825416179055610de3610a36600254612eaa565b60405194859485613035565b34610448577ffaa136302ac223cf7c1146490a741e4520e886fc22d7e759641453f432283d0161056d610e21366104b9565b610e3c60018060a09694961b03600c5460081c1633146122b8565b6001600160a01b038381165f818152600960205260409020805460ff19166001179055600c549091610e739160081c1633146122b8565b805f525f602052610e9560405f2063559ec80d60e01b5f5260205260405f2090565b600160ff198254161790555f52600160205260405f20600160ff19825416179055610ec4610a36600254612eaa565b5f80516020614cb983398151915260405180610ee284888884612f1b565b0390a1610ef08185856125bf565b610efb818585612656565b610f068185856126ed565b60405193849384612323565b3461044857608036600319011261044857600435610f2f81610437565b60243590610f3c82610437565b604435610f4881610437565b6064356001600160401b03811161044857610f6790369060040161048c565b929093610f8660018060a01b03600c5460081c163314610c08816122b8565b6001600160a01b0382165f81815260208181526040808320631592ca1b60e31b84529091529020600160ff198254161790555f52600160205260405f20600160ff19825416179055610fdc610a36600254612eaa565b5f80516020614cb983398151915260405180610ffa87898784612f4a565b0390a16110088486836130d9565b73__$abe99e6f90010eaab1ae0937da96c92fff$__91823b15610448576106df5f956040519788968795869563f4d5bb9360e01b875260048701613068565b34610448575f80516020614c5983398151915261056d611066366104b9565b61108160018060a09694961b03600c5460081c1633146122b8565b6001600160a01b0383165f9081526008602052604090819020805460ff191660011790555193849384612323565b34610448576107036110c0366105e4565b92919091613645565b34610448576107036110da366104b9565b916110f360018060a01b03600c5460081c1633146122b8565b6001600160a01b0381165f81815260208181526040808320630c04a8a160e41b84529091529020600160ff198254161790555f52600160205260405f20600160ff19825416179055611149610a36600254612eaa565b5f80516020614cb98339815191526040518061116786868684612f79565b0390a16130af565b346104485760203660031901126104485760043561118c81610437565b60018060a01b03165f526009602052602060ff60405f2054166040519015158152f35b3461044857604036600319011261044857602060ff6111f66004356111d381610437565b6111db610cf9565b6001600160a01b039091165f908152808552604090206116f3565b54166040519015158152f35b5f91031261044857565b34610448575f36600319011261044857611224613e22565b600c8054610100600160a81b031981169091555f9060081c6001600160a01b03165f80516020614c798339815191528280a3005b34610448577f62dd88c5ecfa60713a657640ebec4de26fc1aefa4afdb24e6d15a124fce7277961056d61128a366104b9565b6112a560018060a09694961b03600c5460081c1633146122b8565b6001600160a01b0383165f9081526005602052604090819020805460ff191660011790555193849384612323565b6001600160a01b03909116815260200190565b34610448575f36600319011261044857600c5460405160089190911c6001600160a01b03168152602090f35b6004359063ffffffff8216820361044857565b359063ffffffff8216820361044857565b346104485760203660031901126104485763ffffffff611354611312565b165f52600b602052602060ff60405f2054166040519015158152f35b346104485760203660031901126104485760043561138d81610437565b60018060a01b03165f526001602052602060ff60405f2054166040519015158152f35b34610448576113be366104b9565b6040516338d52e0f60e01b815292906020846004816001600160a01b0386165afa90811561070557610f06818561056d947fd2851df39115d63968e90113e8b3a96f13e33ac4c2e5a9caa1afeffe59e55748985f916114a2575b50611424838389612784565b61142f83838961281b565b61143a8383896128b2565b611445838389612949565b6114508383896129e0565b61145b838389612a75565b611466838389612b0c565b611471838389612ba3565b61147c838389612c3a565b611487838389612cd1565b6114928383896130d9565b61149d838389613e3a565b613e3a565b6114c4915060203d6020116114ca575b6114bc8183612397565b81019061309a565b5f611418565b503d6114b2565b34610448575f80516020614c9983398151915261056d6114f0366104b9565b61150b60018060a09694961b03600c5460081c1633146122b8565b6001600160a01b0383165f9081526003602052604090819020805460ff191660011790555193849384612323565b34610448575f36600319011261044857602060ff600c54166040519015158152f35b34610448577f1212f8ddb39de8e1a339460c95752d61100723efeaa34ccd94bca94393f4093861056d61158d366104b9565b6115a860018060a09694961b03600c5460081c1633146122b8565b6001600160a01b0383165f9081526006602052604090819020805460ff191690555193849384612323565b34610448575f80516020614c5983398151915261056d6115f2366104b9565b61160d60018060a09694961b03600c5460081c1633146122b8565b6001600160a01b0383165f9081526007602052604090819020805460ff191660011790555193849384612323565b346104485760203660031901126104485760043561165881610437565b60018060a01b03165f526003602052602060ff60405f2054166040519015158152f35b34610448577f3097928509c53a2dab9500431201d82b0d756e8f890fd01f4ae6b33b45687ea461056d6116ad366104b9565b6116c860018060a09694961b03600c5460081c1633146122b8565b6001600160a01b0383165f9081526004602052604090819020805460ff191690555193849384612323565b9063ffffffff60e01b165f5260205260405f2090565b346104485760203660031901126104485760043561172681610437565b6040516351097a3360e01b81526001600160a01b03909116600482015260208160248173__$abe99e6f90010eaab1ae0937da96c92fff$__5af4801561070557610909915f9161177e575b50604051918291826112d3565b611797915060203d6020116114ca576114bc8183612397565b5f611771565b34610448575f366003190112610448576020600254604051908152f35b805180835260209291819084018484015e5f828201840152601f01601f1916010190565b602081016020825282518091526040820191602060408360051b8301019401925f915b83831061181057505050505090565b909192939460208061182e600193603f1986820301875289516117ba565b97019301930191939290611801565b6020366003190112610448576004356001600160401b0381116104485736602382011215610448576004810135906001600160401b038211610448576024810190602436918460051b010111610448576118968261311a565b915f5b8181106118ae576040518061090986826117de565b5f806118bb838587613177565b906118cb604051809381936131bd565b0390305af46118d86131e5565b90156118fe57906001916118ec8287613291565b526118f78186613291565b5001611899565b604481511061044857611920816024806004611938950151830101910161324a565b60405162461bcd60e51b815291829160048301613280565b0390fd5b346104485761194a366105e4565b9161196360018060a01b03600c5460081c1633146122b8565b73__$ed404fe8d8cd691b210f32f3e93e2f5fa7$__93843b156104485760405163565ced0b60e11b81526001600160a01b039182166004820152908216602482015260606044820152935f90859081806119c1606482018989612303565b03915af493841561070557610703946119db575b506130d9565b806106fd5f6119e993612397565b5f6119d5565b9060406003198301126104485760043563ffffffff811681036104485791602435906001600160401b038211610448576104f19160040161048c565b34610448577f1032cb8f3d65d1f2761007cb8b0ca5365671ee20a8efa21ecae1a8dfbca5b7a561056d611a5d366119ef565b611a7860018060a09694961b03600c5460081c1633146122b8565b63ffffffff83165f52600b60205260405f2060ff198154169055604051938493846132a5565b3461044857602036600319011261044857600435611abb81610437565b60018060a01b03165f526004602052602060ff60405f2054166040519015158152f35b8015150361044857565b3461044857604036600319011261044857600435611b0581611ade565b6024356001600160401b038111610448577f50454d9d0025a28a39cac5a4b3f3101d29b6e413fbb64f75fb42eb6837b0771891611b4961056d92369060040161048c565b9290600c5492611b653360018060a01b038660081c16146122b8565b15159260ff84169060ff191617600c556040519384938452604060208501526040840191612303565b34610448576020366003190112610448576020611bb5600435611bb081610437565b6132c2565b6040519015158152f35b3461044857602036600319011261044857600435611bdc81610437565b60405163c226c4bb60e01b81526001600160a01b03909116600482015260208160248173__$abe99e6f90010eaab1ae0937da96c92fff$__5af4801561070557610909915f9161090d575060405191829182901515815260200190565b34610448576020366003190112610448576020611bb5600435611c5b81610437565b6132f2565b34610448577f37ea10f2d08f5a9803dfcd5abf3cfc7b0d6fcdf5fcbc36be9ea5a0b53d9a4d9b61056d611c9236610d10565b90611cae60018060a09795971b03600c5460081c1633146122b8565b60018060a01b0384165f525f602052611cca8560405f206116f3565b805460ff1916905560405194859485613035565b3461044857611cec366104b9565b600c545f939190611d0a9060081c6001600160a01b031633146122b8565b73__$abe99e6f90010eaab1ae0937da96c92fff$__803b156104485761086a935f9360405195869485938493634a1c4b1960e11b855260048501612323565b3461044857611d57366104b9565b600c545f939190611d759060081c6001600160a01b031633146122b8565b73__$ed404fe8d8cd691b210f32f3e93e2f5fa7$__803b156104485761086a935f936040519586948593849363e2873b6d60e01b855260048501612323565b34610448577f9fc3f914bc6770a3679a6a9fdb4620f0566db329f178fb033fc0c6dcce1b693d61056d611de6366119ef565b611e0160018060a09694961b03600c5460081c1633146122b8565b63ffffffff83165f52600b60205260405f20600160ff19825416179055604051938493846132a5565b34610448577f9efd66cbdaa05f6414ab9c4ae71d358b087e972c11874e7c3e9c7c79c61e23aa61056d611e5c366104b9565b611e7b60018060a09694961b03600c5460081c163314610c08816122b8565b6001600160a01b0383165f81815260208181526040808320634701287760e11b84529091529020600160ff198254161790555f52600160205260405f20600160ff19825416179055611ed1610a36600254612eaa565b5f80516020614cb983398151915260405180611eef84888884612fa8565b0390a1611efd8185856130d9565b6001600160a01b0383165f908152600a60205260409020610f0690805460ff19166001179055565b3461044857610703611f36366104b9565b91613e3a565b3461044857610703611f4d366104b9565b91611f6660018060a01b03600c5460081c1633146122b8565b6001600160a01b0381165f8181526020818152604080832063617ba03760e01b84529091529020600160ff198254161790555f52600160205260405f20600160ff19825416179055611fbc610a36600254612eaa565b5f80516020614cb983398151915260405180611fda86868684612fd7565b0390a1610a72838383612d68565b34610448577ff9a414ea26a64e12a2abdb23706ec196a42adeb564668fb73f46555fbd2336c261056d61201a366104b9565b61203560018060a09694961b03600c5460081c1633146122b8565b6001600160a01b0383165f9081526008602052604090819020805460ff191690555193849384612323565b346104485760203660031901126104485760043561207d81610437565b612085613e22565b6001600160a01b038116156120dc57600c8054610100600160a81b03198116600884811b610100600160a81b0316919091179092556001600160a01b0392831692911c165f80516020614c798339815191525f80a3005b60405162461bcd60e51b815260206004820152602660248201527f4f776e61626c653a206e6577206f776e657220697320746865207a65726f206160448201526564647265737360d01b6064820152608490fd5b346104485760203660031901126104485760043561214d81610437565b604051637c23ab5560e11b81526001600160a01b03909116600482015260208160248173__$3ebced50d16a3712772def6ef3a529a5cb$__5af4801561070557610909915f9161090d575060405191829182901515815260200190565b34610448577f9ca3f065622f5f03f32b7157677a0e420c3a36ab45fd49f256ffebce3e31058761056d6121dc366104b9565b6121f760018060a09694961b03600c5460081c1633146122b8565b6001600160a01b0383165f9081526003602052604090819020805460ff191690555193849384612323565b34610448577fa8f9caaf4861720900294428e4ff34d37070c37afd26d96e6e4da75326d2c3ad61056d612254366104b9565b61226f60018060a09694961b03600c5460081c1633146122b8565b6001600160a01b0383165f9081526004602052604090819020805460ff191660011790555193849384612323565b34610448575f36600319011261044857602060405160018152f35b156122bf57565b606460405162461bcd60e51b815260206004820152602060248201527f4f776e61626c653a2063616c6c6572206973206e6f7420746865206f776e65726044820152fd5b908060209392818452848401375f828201840152601f01601f1916010190565b6001600160a01b03909116815260406020820181905261234593910191612303565b90565b634e487b7160e01b5f52604160045260245ffd5b608081019081106001600160401b0382111761237757604052565b612348565b60a081019081106001600160401b0382111761237757604052565b601f909101601f19168101906001600160401b0382119082101761237757604052565b6040513d5f823e3d90fd5b90816020910312610448575161234581611ade565b6001600160a01b039091168152901515602082015260400190565b61248c5f80516020614cb98339815191529361241f60018060a01b03600c5460081c1633146122b8565b6001600160a01b0383165f81815260208190526040902061244890631e51809360e31b906116f3565b600160ff198254161790555f52600160205260405f20600160ff19825416179055612477610a36600254612eaa565b604051938493631e51809360e31b9085613035565b0390a1565b61248c5f80516020614cb9833981519152936124bb60018060a01b03600c5460081c1633146122b8565b6001600160a01b0383165f8181526020819052604090206124e49063b858183f60e01b906116f3565b600160ff198254161790555f52600160205260405f20600160ff19825416179055612513610a36600254612eaa565b60405193849363b858183f60e01b9085613035565b61248c5f80516020614cb98339815191529361255260018060a01b03600c5460081c1633146122b8565b6001600160a01b0383165f81815260208190526040902061257b90635c11d79560e01b906116f3565b600160ff198254161790555f52600160205260405f20600160ff198254161790556125aa610a36600254612eaa565b604051938493635c11d79560e01b9085613035565b61248c5f80516020614cb9833981519152936125e960018060a01b03600c5460081c1633146122b8565b6001600160a01b0383165f8181526020819052604090206126129063a03d55e360e01b906116f3565b600160ff198254161790555f52600160205260405f20600160ff19825416179055612641610a36600254612eaa565b60405193849363a03d55e360e01b9085613035565b61248c5f80516020614cb98339815191529361268060018060a01b03600c5460081c1633146122b8565b6001600160a01b0383165f8181526020819052604090206126a99063692652c560e11b906116f3565b600160ff198254161790555f52600160205260405f20600160ff198254161790556126d8610a36600254612eaa565b60405193849363692652c560e11b9085613035565b61248c5f80516020614cb98339815191529361271760018060a01b03600c5460081c1633146122b8565b6001600160a01b0383165f81815260208190526040902061274090635313efb360e11b906116f3565b600160ff198254161790555f52600160205260405f20600160ff1982541617905561276f610a36600254612eaa565b604051938493635313efb360e11b9085613035565b61248c5f80516020614cb9833981519152936127ae60018060a01b03600c5460081c1633146122b8565b6001600160a01b0383165f8181526020819052604090206127d790636e553f6560e01b906116f3565b600160ff198254161790555f52600160205260405f20600160ff19825416179055612806610a36600254612eaa565b604051938493636e553f6560e01b9085613035565b61248c5f80516020614cb98339815191529361284560018060a01b03600c5460081c1633146122b8565b6001600160a01b0383165f81815260208190526040902061286e90632d182be560e21b906116f3565b600160ff198254161790555f52600160205260405f20600160ff1982541617905561289d610a36600254612eaa565b604051938493632d182be560e21b9085613035565b61248c5f80516020614cb9833981519152936128dc60018060a01b03600c5460081c1633146122b8565b6001600160a01b0383165f81815260208190526040902061290590635d043b2960e11b906116f3565b600160ff198254161790555f52600160205260405f20600160ff19825416179055612934610a36600254612eaa565b604051938493635d043b2960e11b9085613035565b61248c5f80516020614cb98339815191529361297360018060a01b03600c5460081c1633146122b8565b6001600160a01b0383165f81815260208190526040902061299c90638dbdbe6d60e01b906116f3565b600160ff198254161790555f52600160205260405f20600160ff198254161790556129cb610a36600254612eaa565b604051938493638dbdbe6d60e01b9085613035565b61248c5f80516020614cb983398151915293612a0a60018060a01b03600c5460081c1633146122b8565b6001600160a01b0383165f818152602081905260409020612a329062b4d4cb60e11b906116f3565b600160ff198254161790555f52600160205260405f20600160ff19825416179055612a61610a36600254612eaa565b60405193849362b4d4cb60e11b9085613035565b61248c5f80516020614cb983398151915293612a9f60018060a01b03600c5460081c1633146122b8565b6001600160a01b0383165f818152602081905260409020612ac890630b8b4a6160e21b906116f3565b600160ff198254161790555f52600160205260405f20600160ff19825416179055612af7610a36600254612eaa565b604051938493630b8b4a6160e21b9085613035565b61248c5f80516020614cb983398151915293612b3660018060a01b03600c5460081c1633146122b8565b6001600160a01b0383165f818152602081905260409020612b5f90633ea0e43760e11b906116f3565b600160ff198254161790555f52600160205260405f20600160ff19825416179055612b8e610a36600254612eaa565b604051938493633ea0e43760e11b9085613035565b61248c5f80516020614cb983398151915293612bcd60018060a01b03600c5460081c1633146122b8565b6001600160a01b0383165f818152602081905260409020612bf6906319792d1d60e11b906116f3565b600160ff198254161790555f52600160205260405f20600160ff19825416179055612c25610a36600254612eaa565b6040519384936319792d1d60e11b9085613035565b61248c5f80516020614cb983398151915293612c6460018060a01b03600c5460081c1633146122b8565b6001600160a01b0383165f818152602081905260409020612c8d906385b77f4560e01b906116f3565b600160ff198254161790555f52600160205260405f20600160ff19825416179055612cbc610a36600254612eaa565b6040519384936385b77f4560e01b9085613035565b61248c5f80516020614cb983398151915293612cfb60018060a01b03600c5460081c1633146122b8565b6001600160a01b0383165f818152602081905260409020612d249063a8abe90560e01b906116f3565b600160ff198254161790555f52600160205260405f20600160ff19825416179055612d53610a36600254612eaa565b60405193849363a8abe90560e01b9085613035565b61248c5f80516020614cb983398151915293612d9260018060a01b03600c5460081c1633146122b8565b6001600160a01b0383165f818152602081905260409020612dbb90631a4ca37b60e21b906116f3565b600160ff198254161790555f52600160205260405f20600160ff19825416179055612dea610a36600254612eaa565b604051938493631a4ca37b60e21b9085613035565b61248c5f80516020614cb983398151915293612e2960018060a01b03600c5460081c1633146122b8565b6001600160a01b0383165f818152602081905260409020612e529063095ea7b360e01b906116f3565b600160ff198254161790555f52600160205260405f20600160ff19825416179055612e81610a36600254612eaa565b60405193849363095ea7b360e01b9085613035565b634e487b7160e01b5f52601160045260245ffd5b5f198114612eb85760010190565b612e96565b6001600160a01b03909116815263c04b8d5960e01b602082015260606040820181905261234593910191612303565b6001600160a01b0390911681526338ed173960e01b602082015260606040820181905261234593910191612303565b6001600160a01b03909116815263559ec80d60e01b602082015260606040820181905261234593910191612303565b6001600160a01b039091168152631592ca1b60e31b602082015260606040820181905261234593910191612303565b6001600160a01b039091168152630c04a8a160e41b602082015260606040820181905261234593910191612303565b6001600160a01b039091168152634701287760e11b602082015260606040820181905261234593910191612303565b6001600160a01b03909116815263617ba03760e01b602082015260606040820181905261234593910191612303565b6001600160a01b03909116815263a9059cbb60e01b602082015260606040820181905261234593910191612303565b6001600160a01b0390911681526001600160e01b0319909116602082015260606040820181905261234593910191612303565b6001600160a01b0391821681529181166020830152909116604082015260806060820181905261234593910191612303565b90816020910312610448575161234581610437565b61248c5f80516020614c998339815191529361150b60018060a01b03600c5460081c1633146122b8565b61248c5f80516020614c598339815191529361160d60018060a01b03600c5460081c1633146122b8565b6001600160401b0381116123775760051b60200190565b9061312482613103565b6131316040519182612397565b8281528092613142601f1991613103565b01905f5b82811061315257505050565b806060602080938501015201613146565b634e487b7160e01b5f52603260045260245ffd5b91908110156131b85760051b81013590601e19813603018212156104485701803591906001600160401b038311610448576020018236038113610448579190565b613163565b908092918237015f815290565b6001600160401b03811161237757601f01601f191660200190565b3d1561320f573d906131f6826131ca565b916132046040519384612397565b82523d5f602084013e565b606090565b929192613220826131ca565b9161322e6040519384612397565b829481845281830111610448578281602093845f96015e010152565b602081830312610448578051906001600160401b03821161044857019080601f8301121561044857815161234592602001613214565b9060206123459281815201906117ba565b80518210156131b85760209160051b010190565b60409063ffffffff61234595931681528160208201520191612303565b60ff600c54169081156132d3575090565b6001600160a01b03165f9081526003602052604090205460ff16919050565b6001600160a01b03165f9081526005602052604090205460ff1690565b1561331657565b60405162461bcd60e51b815260206004820152601260248201527114d95b99195c881b9bdd08185b1b1bddd95960721b6044820152606490fd5b906004116104485790600490565b909291928360041161044857831161044857600401916003190190565b356001600160e01b0319811692919060048210613396575050565b6001600160e01b031960049290920360031b82901b16169150565b156133b857565b60405162461bcd60e51b815260206004820152601260248201527115185c99d95d081b9bdd08185b1b1bddd95960721b6044820152606490fd5b156133f957565b60405162461bcd60e51b815260206004820152601460248201527314d95b1958dd1bdc881b9bdd08185b1b1bddd95960621b6044820152606490fd5b1561343c57565b60405162461bcd60e51b815260206004820152601c60248201527b121e5c195c98dbdc9955985d5b1d131a58881b9bdd081b1a5b9ad95960221b6044820152606490fd5b9081606091031261044857803561349681610437565b91612345604060208401359301611325565b156134af57565b606460405162461bcd60e51b815260206004820152602060248201527f6465706f736974466f7220726563697069656e74206e6f7420616c6c6f7765646044820152fd5b919082604091031261044857815162ffffff811681036104485760209092015161234581610437565b1561352357565b60405162461bcd60e51b815260206004820152602860248201527f436f72655772697465722073706f7453656e64207265636569766572206e6f7460448201526708185b1b1bddd95960c21b6064820152608490fd5b1561358057565b60405162461bcd60e51b815260206004820152601b60248201527a121e5c195c98dbdc99481d985d5b1d081b9bdd08185b1b1bddd959602a1b6044820152606490fd5b9291926135cf826131ca565b916135dd6040519384612397565b829481845281830111610448578281602093845f960137010152565b1561360057565b60405162461bcd60e51b815260206004820152601e60248201527f53776170526f75746572303220726571756972657320616e79417373657400006044820152606490fd5b600c549193909160081c6001600160a01b03166001600160a01b03831614613e1c5761369661369161368a6136b09460018060a01b03165f52600460205260405f2090565b5460ff1690565b61330f565b806136aa6136a48286613350565b9061337b565b9361335e565b9290916136bf600c5460ff1690565b80613e02575b6001600160e01b03198216916317938e1360e01b83149182908115613df1575b8115613de0575b159081613dd7575b50613d73575b506338ed173960e01b82036137225750505061371b906137209236916135c3565b614966565b565b635c11d79560e01b82036137425750505061371b906137209236916135c3565b63c04b8d5960e01b820361376757505050613762906137209236916135c3565b6148b7565b631e51809360e31b820361378757505050613762906137209236916135c3565b63b858183f60e01b82036137c0575050506137bb90613720926137b46137af600c5460ff1690565b6135f9565b36916135c3565b6147f0565b63a9059cbb60e01b82036137e5575050506137e0906137209236916135c3565b61479f565b63095ea7b360e01b820361380a57505050613805906137209236916135c3565b614727565b630c04a8a160e41b820361382f5750505061382a906137209236916135c3565b6146ad565b63617ba03760e01b82036138545750505061384f906137209236916135c3565b61466a565b631a4ca37b60e21b820361387957505050613874906137209236916135c3565b614635565b91929163559ec80d60e01b82148015613d63575b8015613d53575b8015613d43575b156138ad57505050613720915061459b565b919291636e553f6560e01b82036138d5575050506138d0906137209236916135c3565b6144fb565b630b8b4a6160e21b82036138fa575050506138f5906137209236916135c3565b614538565b638dbdbe6d60e01b820361391f5750505061391a906137209236916135c3565b614581565b62b4d4cb60e11b82036139435750505061393e906137209236916135c3565b614560565b632d182be560e21b8203613963575050506138f5906137209236916135c3565b635d043b2960e11b8203613983575050506138f5906137209236916135c3565b633ea0e43760e11b82036139a3575050506138f5906137209236916135c3565b6319792d1d60e11b82036139c3575050506138f5906137209236916135c3565b6385b77f4560e01b82036139e3575050506138f5906137209236916135c3565b63a8abe90560e01b8203613a03575050506138d0906137209236916135c3565b631592ca1b60e31b8203613a1e5750509061372092916142e6565b634701287760e11b8203613a39575050906137209291614007565b15613b995750604051636290236f60e11b815273__$ed404fe8d8cd691b210f32f3e93e2f5fa7$__929091602083600481875af492831561070557604093613a88915f91613b7a575b50613435565b613aa5835195869384936388ea783f60e01b855260048501612323565b0381845af4918215610705575f905f93613b45575b5062ffffff1660028103613b255750613aeb9160209160405180809581946319d628c560e01b8352600483016112d3565b03915af4801561070557613720915f91613b06575b50613579565b613b1f915060203d602011610935576109278183612397565b5f613b00565b6006915014613b315750565b613b4061368a6137209261058b565b61351c565b62ffffff9350613b6d915060403d604011613b73575b613b658183612397565b8101906134f3565b92613aba565b503d613b5b565b613b93915060203d602011610935576109278183612397565b5f613a82565b909290630acb7f4b60e21b8103613c36575050604051636290236f60e11b815273__$ed404fe8d8cd691b210f32f3e93e2f5fa7$__9150602081600481855af4801561070557613bef915f91613b7a5750613435565b803b1561044857613c17915f9160405180809581946367bc52cb60e01b8352600483016112d3565b03915af4801561070557613c285750565b806106fd5f61372093612397565b9192909163611e2a2d60e11b03613d0257604051636290236f60e11b815273__$ed404fe8d8cd691b210f32f3e93e2f5fa7$__90602081600481855af4801561070557613c89915f91613b7a5750613435565b803b1561044857613cb1915f9160405180809581946367bc52cb60e01b8352600483016112d3565b03915af480156107055761372093613ce99361368a93613cd993613cee575b50810190613480565b50506001600160a01b031661058b565b6134a8565b806106fd5f613cfc93612397565b5f613cd0565b60405162461bcd60e51b81526020600482015260196024820152782ab735b737bbb710333ab731ba34b7b71039b2b632b1ba37b960391b6044820152606490fd5b50635313efb360e11b821461389b565b5063692652c560e11b8214613894565b5063a03d55e360e01b821461388d565b613d8f613d8b61368a83613d8688610572565b6116f3565b1590565b156136fa57613dcc61368a613dd192613dc3613dbe61368a8960018060a01b03165f52600160205260405f2090565b6133b1565b613d8687610572565b6133f2565b5f6136fa565b9050155f6136f4565b63611e2a2d60e11b851491506136ec565b630acb7f4b60e21b851491506136e5565b5063095ea7b360e01b6001600160e01b03198216146136c5565b50505050565b61372060018060a01b03600c5460081c1633146122b8565b906137209291613e5860018060a01b03600c5460081c1633146122b8565b6001600160a01b0381165f8181526020818152604080832063a9059cbb60e01b84529091529020600160ff198254161790555f52600160205260405f20600160ff19825416179055613eae610a36600254612eaa565b5f80516020614cb983398151915260405180613ecc86868684613006565b0390a1613eda838383612dff565b6130af565b908160e091031261044857803591613ef960208301611325565b916040810135916060820135613f0e81610437565b9160808101359161234560c060a08401359301611325565b15613f2d57565b60405162461bcd60e51b815260206004820152601c60248201527b10d0d5140819195cdd1a5b985d1a5bdb881b9bdd08185b1b1bddd95960221b6044820152606490fd5b15613f7857565b60405162461bcd60e51b815260206004820152601b60248201527a10d0d51408189d5c9b881d1bdad95b881b9bdd08185b1b1bddd959602a1b6044820152606490fd5b15613fc257565b60405162461bcd60e51b815260206004820152601f60248201527f43435450206d696e7420726563697069656e74206e6f7420616c6c6f776564006044820152606490fd5b6001600160a01b03165f908152600a602052604090205460ff16156140925761368a61368a61407f61407a61406761406c61404b876137209961408d990190613edf565b505050949250969063ffffffff165f52600b60205260405f2090565b613f26565b6001600160a01b03166132c2565b613f71565b6001600160a01b031661058b565b613fbb565b60405162461bcd60e51b815260206004820152601a60248201527910d0d514081b595cdcd95b99d95c881b9bdd08185b1b1bddd95960321b6044820152606490fd5b156140db57565b60405162461bcd60e51b815260206004820152601160248201527011db5e131a58881b9bdd081b1a5b9ad959607a1b6044820152606490fd5b9080601f8301121561044857815161412b81613103565b926141396040519485612397565b81845260208085019260051b82010192831161044857602001905b8282106141615750505090565b60208091835161417081610437565b815201910190614154565b916060838303126104485782516001600160401b03811161044857826141a2918501614114565b60208401519093906001600160401b03811161044857836141c4918301614114565b60408201519093906001600160401b038111610448576123459201614114565b929160409261420b9296959660018060a01b03168552606060208601526060850191612303565b931515910152565b1561421a57565b60405162461bcd60e51b815260206004820152601660248201527511d3560e88185cdcd95d081b9bdd08185b1b1bddd95960521b6044820152606490fd5b1561425f57565b60405162461bcd60e51b815260206004820152601960248201527811d3560e881c9958d95a5d995c881b9bdd08185b1b1bddd959603a1b6044820152606490fd5b156142a757565b60405162461bcd60e51b815260206004820152601760248201527611d3560e881b585c9ad95d081b9bdd08185b1b1bddd959604a1b6044820152606490fd5b604051636290236f60e11b815273__$abe99e6f90010eaab1ae0937da96c92fff$__9493929091602083600481895af4928315610705575f93614330918591614495575b506140d4565b61435a61433f600c5460ff1690565b604051633bf8b9bb60e11b81529586948594600486016141e4565b0381865af48015610705575f935f925f9261446a575b505f5b85518110156143aa57806143a461439f611bb06143926001958b613291565b516001600160a01b031690565b614213565b01614373565b50919350915f5b84518110156143db57806143d56143d0611c5b6143926001958a613291565b614258565b016143b1565b50919092505f5b8151811015614464578060206143fe6143926144209486613291565b600c5460ff166040516312789ae160e11b8152948592839290600484016123da565b0381885af491821561070557600192614440915f91614446575b506142a0565b016143e2565b61445e915060203d8111610935576109278183612397565b5f61443a565b50509050565b9150935061448a91503d805f833e6144828183612397565b81019061417b565b91939091905f614370565b6144ae915060203d602011610935576109278183612397565b5f61432a565b156144bb57565b60405162461bcd60e51b8152602060048201526018602482015277149958d95a5d995c881b9bdd081dda1a5d195b1a5cdd195960421b6044820152606490fd5b604081805181010312610448576040015161451581610437565b6001600160a01b03165f908152600560205260409020546137209060ff166144b4565b60608180518101031261044857614515606060408301519261455984610437565b0151610437565b60808180518101031261044857614515608060608301519261455984610437565b606081805181010312610448576060015161451581610437565b6001600160a01b03165f9081526009602052604090205460ff16156145bc57565b60405162461bcd60e51b815260206004820152601160248201527015985d5b1d081b9bdd08185b1b1bddd959607a1b6044820152606490fd5b156145fc57565b60405162461bcd60e51b8152602060048201526011602482015270151bdad95b881b9bdd08185b1b1bddd959607a1b6044820152606490fd5b60608180518101031261044857614515614665606060208401519361465985610437565b01519261406c84610437565b6145f5565b60808180518101031261044857614515614665606060208401519361465985610437565b919082604091031261044857602082516146a781610437565b92015190565b6146c0906020808251830101910161468e565b506001600160a01b03165f9081526008602052604090205460ff16156146e257565b60405162461bcd60e51b815260206004820152601e60248201527f44656c65676174696f6e2061646472657373206e6f7420616c6c6f77656400006044820152606490fd5b61473a906020808251830101910161468e565b506001600160a01b03165f9081526007602052604090205460ff161561475c57565b60405162461bcd60e51b815260206004820152601b60248201527a105c1c1c9bdd99481859191c995cdcc81b9bdd08185b1b1bddd959602a1b6044820152606490fd5b6147b2906020808251830101910161468e565b506001600160a01b03165f908152600660205260409020546137209060ff166144b4565b9080601f8301121561044857815161234592602001613214565b8051810190602081830312610448576020810151906001600160401b0382116104485701608081830312610448576040519161482b8361235c565b60208201516001600160401b038111610448576148979261485a611c5b926020806148929601918401016147d6565b8552608060408201519161486d83610437565b602087018390526060818101516040890152910151908601526001600160a01b031690565b6144b4565b6148a6613d8b600c5460ff1690565b6148ad5750565b61372090516149dd565b60208082518301019101602081830312610448578051906001600160401b03821161044857019060a08282031261044857604051906148f58261237c565b8251926001600160401b038411610448576149176080926137209583016147d6565b8352602081015161492781610437565b602084018190526040828101519085015260608083015190850152910151608083015261496090614892906001600160a01b03166132f2565b516149dd565b908151820160a0838203126104485760608301516001600160401b0381116104485761368a60806149a5614892936020806149b1970191890101614114565b95015161407f81610437565b5f5b82518110156149d857806149d2614665611bb061439260019588613291565b016149b3565b509050565b6017905b6149ef601482511015614b31565b602081015160601c82825110614a3157614665614a1691611bb0614665611bb08787614b75565b8051604211614a2d57614a2890614a88565b6149e1565b5050565b60405162461bcd60e51b8152602060048201526014602482015273746f55696e7432345f6f75744f66426f756e647360601b6044820152606490fd5b90601f8201809211612eb857565b91908201809211612eb857565b6017815181810390808211612eb8578290614aad83614aa681614a6d565b1015614bdb565b614abb82614aa68582614a7b565b614ad18551614aca8585614a7b565b1115614c18565b03614ae9575050506040515f81526020810160405290565b60405192601f821692831560051b80858701019484860193010101905b808410614b1e5750508252601f01601f191660405290565b9092602080918551815201930190614b06565b15614b3857565b60405162461bcd60e51b8152602060048201526015602482015274746f416464726573735f6f75744f66426f756e647360581b6044820152606490fd5b906014810191828211612eb857818310614ba157614b9860209382511015614b31565b01015160601c90565b60405162461bcd60e51b8152602060048201526012602482015271746f416464726573735f6f766572666c6f7760701b6044820152606490fd5b15614be257565b60405162461bcd60e51b815260206004820152600e60248201526d736c6963655f6f766572666c6f7760901b6044820152606490fd5b15614c1f57565b60405162461bcd60e51b8152602060048201526011602482015270736c6963655f6f75744f66426f756e647360781b6044820152606490fdfe628a44970c0e450415e3ae74334ea44f3307b74dbf677a1371190242bf2f35898be0079c531659141344cd1fd0a4f28419497f9722a3daafe3b4186f6b6457e0ad90e2570fc4fe9f7437be3188d5c791c6662892d31731992aa88f5c87621983ef729aaa41b9fd994f9ff7c1960df214a84f722002e6cfbea31799cd0873a3efa164736f6c634300081a000a","linkReferences":{"src/lib/CowSwapLib.sol":{"CowSwapLib":[{"start":1809,"length":20},{"start":2541,"length":20}]},"src/lib/GmxLib.sol":{"GmxLib":[{"start":2367,"length":20},{"start":3069,"length":20},{"start":4217,"length":20},{"start":6074,"length":20},{"start":7280,"length":20},{"start":7547,"length":20},{"start":17252,"length":20}]},"src/lib/HypercoreVaultLib.sol":{"HypercoreVaultLib":[{"start":2204,"length":20},{"start":6612,"length":20},{"start":7654,"length":20},{"start":15037,"length":20},{"start":15402,"length":20},{"start":15557,"length":20}]},"src/lib/VeloraLib.sol":{"VeloraLib":[{"start":3248,"length":20},{"start":8673,"length":20}]}}},"methodIdentifiers":{"allowApprovalDestination(address,string)":"98b3cc39","allowAsset(address,string)":"86b6dbe5","allowCallSite(address,bytes4,string)":"5e4ccace","allowDelegationApprovalDestination(address,string)":"63cc17f2","allowReceiver(address,string)":"72e548a9","allowSender(address,string)":"fa2c59c8","allowWithdrawDestination(address,string)":"5ace1d92","allowedApprovalDestinations(address)":"eb0de042","allowedAssets(address)":"a4c1cccb","allowedCCTPDestinations(uint32)":"7cac69c3","allowedCCTPMessengers(address)":"07605342","allowedCallSites(address,bytes4)":"a847cf4d","allowedDelegationApprovalDestinations(address)":"4b941268","allowedLagoonVaults(address)":"8fb4dff2","allowedReceivers(address)":"3cf20025","allowedSenders(address)":"fadbcf48","allowedTargets(address)":"b8fe8d5f","allowedWithdrawDestinations(address)":"07ef00cf","anyAsset()":"87301608","callSiteCount()":"a9fc3d4f","getGovernanceAddress()":"73252494","getInternalVersion()":"fdedfa27","gmxOrderVaults(address)":"a86ddc57","isAllowedApprovalDestination(address)":"1d49039c","isAllowedAsset(address)":"c537bed0","isAllowedCCTPDestination(uint32)":"748fca46","isAllowedCCTPMessenger(address)":"0411fb8e","isAllowedCallSite(address,bytes4)":"713ebf3b","isAllowedCowSwap(address)":"333f22e8","isAllowedDelegationApprovalDestination(address)":"2dc32a61","isAllowedGMXMarket(address)":"2e31e9c6","isAllowedGMXRouter(address)":"cbdb1dcf","isAllowedLagoonVault(address)":"6fd7fdef","isAllowedReceiver(address)":"d075f9bb","isAllowedSender(address)":"be8c97b0","isAllowedTarget(address)":"78addb48","isAllowedVeloraSwapper(address)":"f84756aa","isAllowedWithdrawDestination(address)":"efb47bff","multicall(bytes[])":"ac9650d8","owner()":"8da5cb5b","removeApprovalDestination(address,string)":"04a3ba25","removeAsset(address,string)":"f901dc33","removeCCTPDestination(uint32,string)":"ba44ad41","removeCallSite(address,bytes4,string)":"d7334c9d","removeDelegationApprovalDestination(address,string)":"f259a073","removeGMXMarket(address,string)":"4d3d31ca","removeHypercoreVault(address,string)":"e2873b6d","removeReceiver(address,string)":"2d12d788","removeSender(address,string)":"a67e1f54","removeWithdrawDestination(address,string)":"8c2fdf9e","renounceOwnership()":"715018a6","setAnyAssetAllowed(bool,string)":"c2e657ae","transferOwnership(address)":"f2fde38b","validateCall(address,address,bytes)":"6d5025f1","whitelistAaveV3(address,string)":"f20e85e0","whitelistCCTP(address,string)":"ec011440","whitelistCCTPDestination(uint32,string)":"e6f32c51","whitelistCoreWriter(address,address,string)":"acb9da16","whitelistCowSwap(address,address,string)":"1047789e","whitelistERC4626(address,string)":"86a6ae15","whitelistGMX(address,address,address,string)":"62d6775e","whitelistGMXMarket(address,string)":"d7581509","whitelistHypercoreVault(address,string)":"2de905bc","whitelistLagoon(address,string)":"5e6afe4d","whitelistToken(address,string)":"ee5462cc","whitelistTokenForDelegation(address,string)":"6d9a1423","whitelistUniswapV2Router(address,string)":"3ea35551","whitelistUniswapV3Router(address,string)":"34ec8d7e","whitelistVelora(address,address,string)":"4efbad39"},"id":2}