{"abi":[{"type":"function","name":"getAllowedCoreDepositWallet","inputs":[],"outputs":[{"name":"","type":"address","internalType":"address"}],"stateMutability":"view"},{"type":"function","name":"getAllowedCoreWriter","inputs":[],"outputs":[{"name":"","type":"address","internalType":"address"}],"stateMutability":"view"},{"type":"function","name":"isAllowedCoreWriterAction","inputs":[{"name":"actionId","type":"uint24","internalType":"uint24"}],"outputs":[{"name":"","type":"bool","internalType":"bool"}],"stateMutability":"view"},{"type":"function","name":"isAllowedHypercoreVault","inputs":[{"name":"vault","type":"address","internalType":"address"},{"name":"anyAsset","type":"bool","internalType":"bool"}],"outputs":[{"name":"","type":"bool","internalType":"bool"}],"stateMutability":"view"},{"type":"function","name":"isDeployed","inputs":[],"outputs":[{"name":"","type":"bool","internalType":"bool"}],"stateMutability":"pure"},{"type":"function","name":"validateCall","inputs":[{"name":"selector","type":"bytes4","internalType":"bytes4"},{"name":"target","type":"address","internalType":"address"},{"name":"callData","type":"bytes","internalType":"bytes"},{"name":"anyAsset","type":"bool","internalType":"bool"}],"outputs":[],"stateMutability":"view"},{"type":"event","name":"CoreDepositWalletApproved","inputs":[{"name":"wallet","type":"address","indexed":false,"internalType":"address"},{"name":"notes","type":"string","indexed":false,"internalType":"string"}],"anonymous":false},{"type":"event","name":"CoreWriterApproved","inputs":[{"name":"coreWriter","type":"address","indexed":false,"internalType":"address"},{"name":"notes","type":"string","indexed":false,"internalType":"string"}],"anonymous":false},{"type":"event","name":"HypercoreVaultApproved","inputs":[{"name":"vault","type":"address","indexed":false,"internalType":"address"},{"name":"notes","type":"string","indexed":false,"internalType":"string"}],"anonymous":false},{"type":"event","name":"HypercoreVaultRemoved","inputs":[{"name":"vault","type":"address","indexed":false,"internalType":"address"},{"name":"notes","type":"string","indexed":false,"internalType":"string"}],"anonymous":false}],"bytecode":{"object":"0x60808060405234601b57610cc390816100208239308160070152f35b5f80fdfe6080604052307f0000000000000000000000000000000000000000000000000000000000000000146004361015610034575f80fd5b5f3560e01c9081632de905bc146100d25781634a6e900a146100cd578163637b6b96146100c857816386a71f91146100c3578163acb9da16146100ba578163c52046de146100b5578163d1f73dc0146100b0578163e2873b6d146100a6575063f42001eb146100a1575f80fd5b6104d0565b15610483575b5f80fd5b610435565b610415565b1561024f575f80fd5b61021b565b6101ec565b6101bd565b15610155575f80fd5b6001600160a01b038116036100ac57565b9181601f840112156100ac578235916001600160401b0383116100ac57602083818601950101116100ac57565b9060406003198301126100ac57600435610132816100db565b91602435906001600160401b0382116100ac57610151916004016100ec565b9091565b7fcabf3dc7df64f5410b5e58b02206d0209272dc1d82093ea8f10cf94a2f96ba116101a561018236610119565b61018e839492946106a6565b805460ff19166001179055604051938493846106de565b0390a1005b6001600160a01b03909116815260200190565b5f3660031901126100ac575f80516020610c97833981519152546040516001600160a01b039091168152602090f35b5f3660031901126100ac575f80516020610c57833981519152546040516001600160a01b039091168152602090f35b60203660031901126100ac5760043562ffffff811681036100ac5760ff610243602092610713565b54166040519015158152f35b60603660031901126100ac57600435610267816100db565b60243590610274826100db565b604435916001600160401b0383116100ac576101a57f474077bab0fc69bc23eec8b76b8b9f61a3514f063c6f5835fa217e521ec6c0a56102d97f1f5f686587cd19b3cc08c3afed87812055ee30c04065e0377a5874567fe8ad729536906004016100ec565b5f80516020610c9783398151915280546001600160a01b0319166001600160a01b038816179055909490919085905f80516020610c5783398151915280546001600160a01b0319166001600160a01b03881617905560025f525f80516020610c778339815191526020527f6dc76b80877549f5e2d35779128ffd933d67be9aacde2617298bf3a1c11e9cd1805460ff1916600117905560065f525f80516020610c778339815191526020527fd7f0b692a098e45342ee6790049ecc8b4a16884d9136e417fbed3599e58a099b805460ff1916600117905560075f525f80516020610c778339815191526020526103f67f4974a52e6c6fd0f247049298be19e142889fbe3912e8420eb23cd4539f4e6941805460ff19166001179055565b61040684604051938493846106de565b0390a1604051938493846106de565b5f3660031901126100ac57602060405160018152f35b801515036100ac57565b60403660031901126100ac57602060043561044f816100db565b6024359061045c8261042b565b811561046e575b506040519015158152f35b60ff915061047b906106a6565b54165f610463565b7fc96c7f0bedca8f9a854bd633166c35e06128fc3bbbeee5fb3aae2fd65dffd22f6101a56104b036610119565b6104bc839492946106a6565b805460ff19169055604051938493846106de565b60803660031901126100ac5760043563ffffffff60e01b81168091036100ac57602435906104fd826100db565b6044356001600160401b0381116100ac5761051c9036906004016100ec565b90926064359261052b8461042b565b6317938e1360e01b81036105fa57509062ffffff9361054992610b43565b92166002810361057f57501561055e575b505b005b61057461056d610579926106a6565b5460ff1690565b61086a565b5f61055a565b600691501461058a57005b60206105aa916040518093819263d075f9bb60e01b8352600483016101aa565b0381305afa80156105f55761055c915f916105c6575b5061080d565b6105e8915060203d6020116105ee575b6105e08183610777565b81019061079f565b5f6105c0565b503d6105d6565b6107b7565b909250630acb7f4b60e21b810361061757505061055c91506108b4565b90919063611e2a2d60e11b1461062957005b61066b9260209261063c610644936108b4565b810190610732565b505060405163d075f9bb60e01b81529283918291906001600160a01b0316600483016101aa565b0381305afa80156105f55761055c915f91610687575b506107c2565b6106a0915060203d6020116105ee576105e08183610777565b5f610681565b6001600160a01b03165f9081527f4a2a83b8105ad4a0dda71dd0f16c9ab0603926e6c3d8681e5ff7baf68ed680836020526040902090565b9192606093819260018060a01b0316845260406020850152816040850152848401375f828201840152601f01601f1916010190565b62ffffff165f525f80516020610c7783398151915260205260405f2090565b908160609103126100ac578035610748816100db565b916040602083013592013563ffffffff811681036100ac5790565b634e487b7160e01b5f52604160045260245ffd5b601f909101601f19168101906001600160401b0382119082101761079a57604052565b610763565b908160209103126100ac57516107b48161042b565b90565b6040513d5f823e3d90fd5b156107c957565b606460405162461bcd60e51b815260206004820152602060248201527f6465706f736974466f7220726563697069656e74206e6f7420616c6c6f7765646044820152fd5b1561081457565b60405162461bcd60e51b815260206004820152602860248201527f436f72655772697465722073706f7453656e64207265636569766572206e6f7460448201526708185b1b1bddd95960c21b6064820152608490fd5b1561087157565b60405162461bcd60e51b815260206004820152601b60248201527a121e5c195c98dbdc99481d985d5b1d081b9bdd08185b1b1bddd959602a1b6044820152606490fd5b5f80516020610c57833981519152546001600160a01b039081169116036108d757565b60405162461bcd60e51b815260206004820152601d60248201527f436f72654465706f73697457616c6c6574206e6f7420616c6c6f7765640000006044820152606490fd5b1561092357565b60405162461bcd60e51b815260206004820152601660248201527510dbdc9955dc9a5d195c881b9bdd08185b1b1bddd95960521b6044820152606490fd5b6020818303126100ac578035906001600160401b0382116100ac570181601f820112156100ac578035906001600160401b03821161079a57604051926109b1601f8401601f191660200185610777565b828452602083830101116100ac57815f926020809301838601378301015290565b156109d957565b60405162461bcd60e51b815260206004820152601b60248201527a10dbdc9955dc9a5d195c881858dd1a5bdb881d1bdbc81cda1bdc9d602a1b6044820152606490fd5b15610a2357565b60405162461bcd60e51b815260206004820152601e60248201527f436f726557726974657220756e737570706f727465642076657273696f6e00006044820152606490fd5b15610a6f57565b606460405162461bcd60e51b815260206004820152602060248201527f436f726557726974657220616374696f6e204944206e6f7420616c6c6f7765646044820152fd5b600319810191908211610ac257565b634e487b7160e01b5f52601160045260245ffd5b51906001600160401b03821682036100ac57565b908160609103126100ac578051610b00816100db565b916107b46040610b1260208501610ad6565b9301610ad6565b908160609103126100ac578051610b2f816100db565b916107b460406020840151610b128161042b565b5f80516020610c97833981519152545f93610b7a93929091610b72916001600160a01b0390811691161461091c565b810190610961565b91825192610b8b60048510156109d2565b62ffffff60208201610ba2600182515f1a14610a1c565b5160e01c1693610bbc610bb761056d87610713565b610a68565b60048111610bc8575050565b610bd190610ab3565b926040519380855260208501925f5b828110610c40575050601f01601f1916840160200160405260028503610c205750602083610c12939451010190610b19565b50506001600160a01b031690565b9260068514610c2d575050565b610c129293508060209151010190610aea565b8060246020928401015182828a01015201610be056fe4a2a83b8105ad4a0dda71dd0f16c9ab0603926e6c3d8681e5ff7baf68ed680824a2a83b8105ad4a0dda71dd0f16c9ab0603926e6c3d8681e5ff7baf68ed680844a2a83b8105ad4a0dda71dd0f16c9ab0603926e6c3d8681e5ff7baf68ed68081a164736f6c634300081a000a","linkReferences":{}},"methodIdentifiers":{"getAllowedCoreDepositWallet()":"637b6b96","getAllowedCoreWriter()":"4a6e900a","isAllowedCoreWriterAction(uint24)":"86a71f91","isAllowedHypercoreVault(address,bool)":"d1f73dc0","isDeployed()":"c52046de","removeHypercoreVault(address,string)":"e2873b6d","validateCall(bytes4,address,bytes,bool)":"f42001eb","whitelistCoreWriter(address,address,string)":"acb9da16","whitelistHypercoreVault(address,string)":"2de905bc"},"id":10}