{"abi":[{"type":"function","name":"getAllowedCoreDepositWallet","inputs":[],"outputs":[{"name":"","type":"address","internalType":"address"}],"stateMutability":"view"},{"type":"function","name":"getAllowedCoreWriter","inputs":[],"outputs":[{"name":"","type":"address","internalType":"address"}],"stateMutability":"view"},{"type":"function","name":"isAllowedCoreWriterAction","inputs":[{"name":"actionId","type":"uint24","internalType":"uint24"}],"outputs":[{"name":"","type":"bool","internalType":"bool"}],"stateMutability":"view"},{"type":"function","name":"isAllowedHypercoreVault","inputs":[{"name":"vault","type":"address","internalType":"address"},{"name":"anyAsset","type":"bool","internalType":"bool"}],"outputs":[{"name":"","type":"bool","internalType":"bool"}],"stateMutability":"view"},{"type":"function","name":"isDeployed","inputs":[],"outputs":[{"name":"","type":"bool","internalType":"bool"}],"stateMutability":"pure"},{"type":"function","name":"validateCall","inputs":[{"name":"selector","type":"bytes4","internalType":"bytes4"},{"name":"target","type":"address","internalType":"address"},{"name":"callData","type":"bytes","internalType":"bytes"},{"name":"anyAsset","type":"bool","internalType":"bool"}],"outputs":[],"stateMutability":"view"},{"type":"event","name":"CoreDepositWalletApproved","inputs":[{"name":"wallet","type":"address","indexed":false,"internalType":"address"},{"name":"notes","type":"string","indexed":false,"internalType":"string"}],"anonymous":false},{"type":"event","name":"CoreWriterApproved","inputs":[{"name":"coreWriter","type":"address","indexed":false,"internalType":"address"},{"name":"notes","type":"string","indexed":false,"internalType":"string"}],"anonymous":false},{"type":"event","name":"HypercoreVaultApproved","inputs":[{"name":"vault","type":"address","indexed":false,"internalType":"address"},{"name":"notes","type":"string","indexed":false,"internalType":"string"}],"anonymous":false},{"type":"event","name":"HypercoreVaultRemoved","inputs":[{"name":"vault","type":"address","indexed":false,"internalType":"address"},{"name":"notes","type":"string","indexed":false,"internalType":"string"}],"anonymous":false}],"bytecode":{"object":"0x60808060405234601b57610eb190816100208239308160070152f35b5f80fdfe6080604052307f0000000000000000000000000000000000000000000000000000000000000000146004361015610034575f80fd5b5f3560e01c9081632de905bc146100d25781634a6e900a146100cd578163637b6b96146100c857816386a71f91146100c3578163acb9da16146100ba578163c52046de146100b5578163d1f73dc0146100b0578163e2873b6d146100a6575063f42001eb146100a1575f80fd5b6104bd565b15610470575b5f80fd5b610422565b610402565b1561023c575f80fd5b610208565b6101d9565b6101aa565b15610155575f80fd5b6001600160a01b038116036100ac57565b9181601f840112156100ac578235916001600160401b0383116100ac57602083818601950101116100ac57565b9060406003198301126100ac57600435610132816100db565b91602435906001600160401b0382116100ac57610151916004016100ec565b9091565b7fcabf3dc7df64f5410b5e58b02206d0209272dc1d82093ea8f10cf94a2f96ba116101a561018236610119565b61018e83949294610637565b805460ff191660011790556040519384938461066f565b0390a1005b5f3660031901126100ac575f80516020610e85833981519152546040516001600160a01b039091168152602090f35b5f3660031901126100ac575f80516020610e25833981519152546040516001600160a01b039091168152602090f35b60203660031901126100ac5760043562ffffff811681036100ac5760ff6102306020926106a4565b54166040519015158152f35b60603660031901126100ac57600435610254816100db565b60243590610261826100db565b604435916001600160401b0383116100ac576101a57f474077bab0fc69bc23eec8b76b8b9f61a3514f063c6f5835fa217e521ec6c0a56102c67f1f5f686587cd19b3cc08c3afed87812055ee30c04065e0377a5874567fe8ad729536906004016100ec565b5f80516020610e8583398151915280546001600160a01b0319166001600160a01b038816179055909490919085905f80516020610e2583398151915280546001600160a01b0319166001600160a01b03881617905560025f525f80516020610e458339815191526020527f6dc76b80877549f5e2d35779128ffd933d67be9aacde2617298bf3a1c11e9cd1805460ff1916600117905560075f525f80516020610e458339815191526020527f4974a52e6c6fd0f247049298be19e142889fbe3912e8420eb23cd4539f4e6941805460ff19166001179055600d5f525f80516020610e458339815191526020526103e37ffadef9051202991a55f36668b92ec9b8b62d822322b2c94b66b182b7312e3bda805460ff19166001179055565b6103f3846040519384938461066f565b0390a16040519384938461066f565b5f3660031901126100ac57602060405160018152f35b801515036100ac57565b60403660031901126100ac57602060043561043c816100db565b6024359061044982610418565b811561045b575b506040519015158152f35b60ff915061046890610637565b54165f610450565b7fc96c7f0bedca8f9a854bd633166c35e06128fc3bbbeee5fb3aae2fd65dffd22f6101a561049d36610119565b6104a983949294610637565b805460ff191690556040519384938461066f565b60803660031901126100ac5760043563ffffffff60e01b81168091036100ac57602435906104ea826100db565b6044356001600160401b0381116100ac576105099036906004016100ec565b90926064359261051884610418565b6317938e1360e01b8103610572575060029162ffffff9461053892610c8f565b931614610545575b50505b005b15610551575b80610540565b61056761056061056c92610637565b5460ff1690565b6107a5565b5f61054b565b909250630acb7f4b60e21b810361058f57505061054391506107ef565b90919063611e2a2d60e11b146105a157005b6105e7926020926105b46105bc936107ef565b8101906106d1565b505060405163d075f9bb60e01b81526001600160a01b03909116600482015291829081906024820190565b0381305afa801561063257610543915f91610603575b5061075a565b610625915060203d60201161062b575b61061d8183610712565b81019061073a565b5f6105fd565b503d610613565b61074f565b6001600160a01b03165f9081527f4a2a83b8105ad4a0dda71dd0f16c9ab0603926e6c3d8681e5ff7baf68ed680836020526040902090565b9192606093819260018060a01b0316845260406020850152816040850152848401375f828201840152601f01601f1916010190565b62ffffff165f525f80516020610e4583398151915260205260405f2090565b63ffffffff8116036100ac57565b908160609103126100ac5780356106e7816100db565b91604060208301359201356106fb816106c3565b90565b634e487b7160e01b5f52604160045260245ffd5b601f909101601f19168101906001600160401b0382119082101761073557604052565b6106fe565b908160209103126100ac57516106fb81610418565b6040513d5f823e3d90fd5b1561076157565b606460405162461bcd60e51b815260206004820152602060248201527f6465706f736974466f7220726563697069656e74206e6f7420616c6c6f7765646044820152fd5b156107ac57565b60405162461bcd60e51b815260206004820152601b60248201527a121e5c195c98dbdc99481d985d5b1d081b9bdd08185b1b1bddd959602a1b6044820152606490fd5b5f80516020610e25833981519152546001600160a01b0390811691160361081257565b60405162461bcd60e51b815260206004820152601d60248201527f436f72654465706f73697457616c6c6574206e6f7420616c6c6f7765640000006044820152606490fd5b1561085e57565b60405162461bcd60e51b815260206004820152601660248201527510dbdc9955dc9a5d195c881b9bdd08185b1b1bddd95960521b6044820152606490fd5b6020818303126100ac578035906001600160401b0382116100ac570181601f820112156100ac578035906001600160401b03821161073557604051926108ec601f8401601f191660200185610712565b828452602083830101116100ac57815f926020809301838601378301015290565b1561091457565b60405162461bcd60e51b815260206004820152601b60248201527a10dbdc9955dc9a5d195c881858dd1a5bdb881d1bdbc81cda1bdc9d602a1b6044820152606490fd5b1561095e57565b60405162461bcd60e51b815260206004820152601e60248201527f436f726557726974657220756e737570706f727465642076657273696f6e00006044820152606490fd5b156109aa57565b606460405162461bcd60e51b815260206004820152602060248201527f436f726557726974657220616374696f6e204944206e6f7420616c6c6f7765646044820152fd5b6003198101919082116109fd57565b634e487b7160e01b5f52601160045260245ffd5b51906001600160401b03821682036100ac57565b91908260c09103126100ac578151610a3c816100db565b916020810151610a4b816100db565b916040820151610a5a816106c3565b916060810151610a69816106c3565b916106fb60a0610a7b60808501610a11565b9301610a11565b15610a8957565b60405162461bcd60e51b815260206004820152602c60248201525f80516020610e6583398151915260448201526b081b9bdd08185b1b1bddd95960a21b6064820152608490fd5b15610ad757565b60405162461bcd60e51b815260206004820152602b60248201527f436f72655772697465722073656e644173736574207375624163636f756e742060448201526a1b9bdd08185b1b1bddd95960aa1b6064820152608490fd5b15610b3757565b60405162461bcd60e51b815260206004820152602b60248201527f436f72655772697465722073656e64417373657420736f757263655f6465782060448201526a1b9bdd08185b1b1bddd95960aa1b6064820152608490fd5b15610b9757565b60405162461bcd60e51b815260206004820152603060248201525f80516020610e6583398151915260448201526f17d9195e081b9bdd08185b1b1bddd95960821b6064820152608490fd5b15610be957565b60405162461bcd60e51b815260206004820152602660248201527f436f72655772697465722073656e64417373657420746f6b656e206e6f7420616044820152651b1b1bddd95960d21b6064820152608490fd5b908160609103126100ac578051610c53816100db565b916106fb6040610a7b60208501610a11565b908160609103126100ac578051610c7b816100db565b916106fb60406020840151610a7b81610418565b5f80516020610e85833981519152545f93610cc693929091610cbe916001600160a01b03908116911614610857565b81019061089c565b91825192610cd7600485101561090d565b62ffffff60208201610cee600182515f1a14610957565b5160e01c1693610d08610d03610560876106a4565b6109a3565b60048111610d14575050565b610d1d906109ee565b926040519380855260208501925f5b828110610e0e575050601f01601f1916840160200160405260028503610d6c5750602083610d5e939451010190610c65565b50506001600160a01b031690565b60068503610d865750602083610d5e939451010190610c3d565b92600d8514610d93575050565b610de09350610dfd63ffffffff80610def610df682610dbd610e0c98602089849a51010190610a25565b506001600160a01b039094169d939a90969093919290916001609d1b8f14610a82565b6001600160a01b031615610ad0565b1614610b30565b1614610b90565b6001600160401b031615610be2565b565b8060246020928401015182828a01015201610d2c56fe4a2a83b8105ad4a0dda71dd0f16c9ab0603926e6c3d8681e5ff7baf68ed680824a2a83b8105ad4a0dda71dd0f16c9ab0603926e6c3d8681e5ff7baf68ed68084436f72655772697465722073656e6441737365742064657374696e6174696f6e4a2a83b8105ad4a0dda71dd0f16c9ab0603926e6c3d8681e5ff7baf68ed68081a164736f6c634300081a000a","linkReferences":{}},"methodIdentifiers":{"getAllowedCoreDepositWallet()":"637b6b96","getAllowedCoreWriter()":"4a6e900a","isAllowedCoreWriterAction(uint24)":"86a71f91","isAllowedHypercoreVault(address,bool)":"d1f73dc0","isDeployed()":"c52046de","removeHypercoreVault(address,string)":"e2873b6d","validateCall(bytes4,address,bytes,bool)":"f42001eb","whitelistCoreWriter(address,address,string)":"acb9da16","whitelistHypercoreVault(address,string)":"2de905bc"},"id":10}