{"abi":[{"type":"function","name":"getAllowedCoreDepositWallet","inputs":[],"outputs":[{"name":"","type":"address","internalType":"address"}],"stateMutability":"view"},{"type":"function","name":"getAllowedCoreWriter","inputs":[],"outputs":[{"name":"","type":"address","internalType":"address"}],"stateMutability":"view"},{"type":"function","name":"isAllowedCoreWriterAction","inputs":[{"name":"actionId","type":"uint24","internalType":"uint24"}],"outputs":[{"name":"","type":"bool","internalType":"bool"}],"stateMutability":"view"},{"type":"function","name":"isAllowedHypercoreVault","inputs":[{"name":"vault","type":"address","internalType":"address"}],"outputs":[{"name":"","type":"bool","internalType":"bool"}],"stateMutability":"view"},{"type":"function","name":"isDeployed","inputs":[],"outputs":[{"name":"","type":"bool","internalType":"bool"}],"stateMutability":"pure"},{"type":"function","name":"validateCall","inputs":[{"name":"selector","type":"bytes4","internalType":"bytes4"},{"name":"target","type":"address","internalType":"address"},{"name":"callData","type":"bytes","internalType":"bytes"}],"outputs":[],"stateMutability":"view"},{"type":"event","name":"CoreDepositWalletApproved","inputs":[{"name":"wallet","type":"address","indexed":false,"internalType":"address"},{"name":"notes","type":"string","indexed":false,"internalType":"string"}],"anonymous":false},{"type":"event","name":"CoreWriterApproved","inputs":[{"name":"coreWriter","type":"address","indexed":false,"internalType":"address"},{"name":"notes","type":"string","indexed":false,"internalType":"string"}],"anonymous":false},{"type":"event","name":"HypercoreVaultApproved","inputs":[{"name":"vault","type":"address","indexed":false,"internalType":"address"},{"name":"notes","type":"string","indexed":false,"internalType":"string"}],"anonymous":false},{"type":"event","name":"HypercoreVaultRemoved","inputs":[{"name":"vault","type":"address","indexed":false,"internalType":"address"},{"name":"notes","type":"string","indexed":false,"internalType":"string"}],"anonymous":false}],"bytecode":{"object":"0x60808060405234601b57610c7e90816100208239308160070152f35b5f80fdfe6080604052307f0000000000000000000000000000000000000000000000000000000000000000146004361015610034575f80fd5b5f3560e01c806319d628c5146100d65780632de905bc146100cc5780634a6e900a146100c7578063637b6b96146100c257806386a71f91146100bd578063acb9da16146100b3578063be0762ed146100ae578063c52046de146100a95763e2873b6d1461009f575f80fd5b1561060a575b5f80fd5b6105f4565b610439565b5015610273575f80fd5b61024b565b61021c565b6101ed565b5015610185575f80fd5b6100ec565b6001600160a01b038116036100a557565b60203660031901126100a557602060ff61011060043561010b816100db565b610657565b54166040519015158152f35b9181601f840112156100a5578235916001600160401b0383116100a557602083818601950101116100a557565b9060406003198301126100a557600435610162816100db565b91602435906001600160401b0382116100a5576101819160040161011c565b9091565b7fcabf3dc7df64f5410b5e58b02206d0209272dc1d82093ea8f10cf94a2f96ba116101d56101b236610149565b6101be83949294610657565b805460ff191660011790556040519384938461068f565b0390a1005b6001600160a01b03909116815260200190565b5f3660031901126100a5575f80516020610c52833981519152546040516001600160a01b039091168152602090f35b5f3660031901126100a5575f80516020610c12833981519152546040516001600160a01b039091168152602090f35b60203660031901126100a55760043562ffffff811681036100a55760ff6101106020926106c4565b60603660031901126100a55760043561028b816100db565b60243590610298826100db565b604435916001600160401b0383116100a5576101d57f474077bab0fc69bc23eec8b76b8b9f61a3514f063c6f5835fa217e521ec6c0a56102fd7f1f5f686587cd19b3cc08c3afed87812055ee30c04065e0377a5874567fe8ad7295369060040161011c565b5f80516020610c5283398151915280546001600160a01b0319166001600160a01b038816179055909490919085905f80516020610c1283398151915280546001600160a01b0319166001600160a01b03881617905560025f525f80516020610c328339815191526020527f6dc76b80877549f5e2d35779128ffd933d67be9aacde2617298bf3a1c11e9cd1805460ff1916600117905560065f525f80516020610c328339815191526020527fd7f0b692a098e45342ee6790049ecc8b4a16884d9136e417fbed3599e58a099b805460ff1916600117905560075f525f80516020610c3283398151915260205261041a7f4974a52e6c6fd0f247049298be19e142889fbe3912e8420eb23cd4539f4e6941805460ff19166001179055565b61042a846040519384938461068f565b0390a16040519384938461068f565b60603660031901126100a55760043563ffffffff60e01b81168091036100a557602435610465816100db565b6044356001600160401b0381116100a55761048490369060040161011c565b90929091906317938e1360e01b810361054857509062ffffff926104a792610afe565b9116600281036104cf57506104c86104c16104cd92610657565b5460ff1690565b610827565b005b6006146104d857005b60206104f8916040518093819263d075f9bb60e01b8352600483016101da565b0381305afa8015610543576104cd915f91610514575b506107ca565b610536915060203d60201161053c575b61052e8183610728565b81019061075d565b5f61050e565b503d610524565b610774565b909190630acb7f4b60e21b81036105655750506104cd9150610871565b90919063611e2a2d60e11b1461057757005b6105b99260209261058a61059293610871565b8101906106e3565b505060405163d075f9bb60e01b81529283918291906001600160a01b0316600483016101da565b0381305afa8015610543576104cd915f916105d5575b5061077f565b6105ee915060203d60201161053c5761052e8183610728565b5f6105cf565b5f3660031901126100a557602060405160018152f35b7fc96c7f0bedca8f9a854bd633166c35e06128fc3bbbeee5fb3aae2fd65dffd22f6101d561063736610149565b61064383949294610657565b805460ff191690556040519384938461068f565b6001600160a01b03165f9081527f4a2a83b8105ad4a0dda71dd0f16c9ab0603926e6c3d8681e5ff7baf68ed680836020526040902090565b9192606093819260018060a01b0316845260406020850152816040850152848401375f828201840152601f01601f1916010190565b62ffffff165f525f80516020610c3283398151915260205260405f2090565b908160609103126100a55780356106f9816100db565b916040602083013592013563ffffffff811681036100a55790565b634e487b7160e01b5f52604160045260245ffd5b601f909101601f19168101906001600160401b0382119082101761074b57604052565b610714565b519081151582036100a557565b908160209103126100a55761077190610750565b90565b6040513d5f823e3d90fd5b1561078657565b606460405162461bcd60e51b815260206004820152602060248201527f6465706f736974466f7220726563697069656e74206e6f7420616c6c6f7765646044820152fd5b156107d157565b60405162461bcd60e51b815260206004820152602860248201527f436f72655772697465722073706f7453656e64207265636569766572206e6f7460448201526708185b1b1bddd95960c21b6064820152608490fd5b1561082e57565b60405162461bcd60e51b815260206004820152601b60248201527a121e5c195c98dbdc99481d985d5b1d081b9bdd08185b1b1bddd959602a1b6044820152606490fd5b5f80516020610c12833981519152546001600160a01b0390811691160361089457565b60405162461bcd60e51b815260206004820152601d60248201527f436f72654465706f73697457616c6c6574206e6f7420616c6c6f7765640000006044820152606490fd5b156108e057565b60405162461bcd60e51b815260206004820152601660248201527510dbdc9955dc9a5d195c881b9bdd08185b1b1bddd95960521b6044820152606490fd5b6020818303126100a5578035906001600160401b0382116100a5570181601f820112156100a5578035906001600160401b03821161074b576040519261096e601f8401601f191660200185610728565b828452602083830101116100a557815f926020809301838601378301015290565b1561099657565b60405162461bcd60e51b815260206004820152601b60248201527a10dbdc9955dc9a5d195c881858dd1a5bdb881d1bdbc81cda1bdc9d602a1b6044820152606490fd5b156109e057565b60405162461bcd60e51b815260206004820152601e60248201527f436f726557726974657220756e737570706f727465642076657273696f6e00006044820152606490fd5b15610a2c57565b606460405162461bcd60e51b815260206004820152602060248201527f436f726557726974657220616374696f6e204944206e6f7420616c6c6f7765646044820152fd5b600319810191908211610a7f57565b634e487b7160e01b5f52601160045260245ffd5b51906001600160401b03821682036100a557565b908160609103126100a5578051610abd816100db565b916107716040610acf60208501610a93565b9301610a93565b908160609103126100a5578051610aec816100db565b916107716040610acf60208501610750565b5f80516020610c52833981519152545f93610b3593929091610b2d916001600160a01b039081169116146108d9565b81019061091e565b91825192610b46600485101561098f565b62ffffff60208201610b5d600182515f1a146109d9565b5160e01c1693610b77610b726104c1876106c4565b610a25565b60048111610b83575050565b610b8c90610a70565b926040519380855260208501925f5b828110610bfb575050601f01601f1916840160200160405260028503610bdb5750602083610bcd939451010190610ad6565b50506001600160a01b031690565b9260068514610be8575050565b610bcd9293508060209151010190610aa7565b8060246020928401015182828a01015201610b9b56fe4a2a83b8105ad4a0dda71dd0f16c9ab0603926e6c3d8681e5ff7baf68ed680824a2a83b8105ad4a0dda71dd0f16c9ab0603926e6c3d8681e5ff7baf68ed680844a2a83b8105ad4a0dda71dd0f16c9ab0603926e6c3d8681e5ff7baf68ed68081a164736f6c634300081a000a","linkReferences":{}},"methodIdentifiers":{"getAllowedCoreDepositWallet()":"637b6b96","getAllowedCoreWriter()":"4a6e900a","isAllowedCoreWriterAction(uint24)":"86a71f91","isAllowedHypercoreVault(address)":"19d628c5","isDeployed()":"c52046de","removeHypercoreVault(address,string)":"e2873b6d","validateCall(bytes4,address,bytes)":"be0762ed","whitelistCoreWriter(address,address,string)":"acb9da16","whitelistHypercoreVault(address,string)":"2de905bc"},"id":10}