{"abi":[{"type":"function","name":"getAllowedCoreDepositWallet","inputs":[],"outputs":[{"name":"","type":"address","internalType":"address"}],"stateMutability":"view"},{"type":"function","name":"getAllowedCoreWriter","inputs":[],"outputs":[{"name":"","type":"address","internalType":"address"}],"stateMutability":"view"},{"type":"function","name":"isAllowedCoreWriterAction","inputs":[{"name":"actionId","type":"uint24","internalType":"uint24"}],"outputs":[{"name":"","type":"bool","internalType":"bool"}],"stateMutability":"view"},{"type":"function","name":"isAllowedHypercoreVault","inputs":[{"name":"vault","type":"address","internalType":"address"}],"outputs":[{"name":"","type":"bool","internalType":"bool"}],"stateMutability":"view"},{"type":"function","name":"isDeployed","inputs":[],"outputs":[{"name":"","type":"bool","internalType":"bool"}],"stateMutability":"pure"},{"type":"function","name":"validateAction","inputs":[{"name":"target","type":"address","internalType":"address"},{"name":"callData","type":"bytes","internalType":"bytes"}],"outputs":[{"name":"actionId","type":"uint24","internalType":"uint24"},{"name":"destination","type":"address","internalType":"address"}],"stateMutability":"view"},{"type":"function","name":"validateDeposit","inputs":[{"name":"target","type":"address","internalType":"address"}],"outputs":[],"stateMutability":"view"},{"type":"event","name":"CoreDepositWalletApproved","inputs":[{"name":"wallet","type":"address","indexed":false,"internalType":"address"},{"name":"notes","type":"string","indexed":false,"internalType":"string"}],"anonymous":false},{"type":"event","name":"CoreWriterApproved","inputs":[{"name":"coreWriter","type":"address","indexed":false,"internalType":"address"},{"name":"notes","type":"string","indexed":false,"internalType":"string"}],"anonymous":false},{"type":"event","name":"HypercoreVaultApproved","inputs":[{"name":"vault","type":"address","indexed":false,"internalType":"address"},{"name":"notes","type":"string","indexed":false,"internalType":"string"}],"anonymous":false},{"type":"event","name":"HypercoreVaultRemoved","inputs":[{"name":"vault","type":"address","indexed":false,"internalType":"address"},{"name":"notes","type":"string","indexed":false,"internalType":"string"}],"anonymous":false}],"bytecode":{"object":"0x60808060405234601b576109d190816100208239308160070152f35b5f80fdfe6080604052307f0000000000000000000000000000000000000000000000000000000000000000146004361015610034575f80fd5b5f3560e01c806319d628c5146100e65780632de905bc146100dc5780634a6e900a146100d7578063637b6b96146100d257806367bc52cb146100cd57806386a71f91146100c857806388ea783f146100c3578063acb9da16146100b9578063c52046de146100b45763e2873b6d146100aa575f80fd5b1561062f575b5f80fd5b610619565b5015610453575f80fd5b6102f0565b6102c8565b610248565b610219565b6101ea565b5015610195575f80fd5b6100fc565b6001600160a01b038116036100b057565b60203660031901126100b057602060ff61012060043561011b816100eb565b61067c565b54166040519015158152f35b9181601f840112156100b0578235916001600160401b0383116100b057602083818601950101116100b057565b9060406003198301126100b057600435610172816100eb565b91602435906001600160401b0382116100b0576101919160040161012c565b9091565b7fcabf3dc7df64f5410b5e58b02206d0209272dc1d82093ea8f10cf94a2f96ba116101e56101c236610159565b6101ce8394929461067c565b805460ff19166001179055604051938493846106b4565b0390a1005b5f3660031901126100b0575f805160206109a5833981519152546040516001600160a01b039091168152602090f35b5f3660031901126100b0575f80516020610965833981519152546040516001600160a01b039091168152602090f35b60203660031901126100b057600435610260816100eb565b5f80516020610965833981519152546001600160a01b0390811691160361028357005b60405162461bcd60e51b815260206004820152601d60248201527f436f72654465706f73697457616c6c6574206e6f7420616c6c6f7765640000006044820152606490fd5b60203660031901126100b05760043562ffffff811681036100b05760ff6101206020926106e9565b6103346102fc36610159565b5f805160206109a5833981519152545f949361032c916001600160a01b03166001600160a01b0390911614610708565b810190610761565b80519061034460048310156107e8565b62ffffff6020820161035b600182515f1a14610832565b5160e01c169161037c610377610370856106e9565b5460ff1690565b61087e565b600481116103a8575b50506040805162ffffff9290921682526001600160a01b03929092166020820152f35b6103b1906108c9565b926040519380855260208501925f5b82811061043d575050601f01601f191684016020016040526002830361040657506020836103f2939451010190610932565b50506001600160a01b0316905b5f80610385565b9260068314610417575b50506103ff565b61042a9293508060209151010190610900565b50506001600160a01b0316905f80610410565b8060246020928401015182828a010152016103c0565b60603660031901126100b05760043561046b816100eb565b60243590610478826100eb565b604435916001600160401b0383116100b0576101e57f474077bab0fc69bc23eec8b76b8b9f61a3514f063c6f5835fa217e521ec6c0a56104dd7f1f5f686587cd19b3cc08c3afed87812055ee30c04065e0377a5874567fe8ad7295369060040161012c565b5f805160206109a583398151915280546001600160a01b0319166001600160a01b038816179055909490919085905f8051602061096583398151915280546001600160a01b0319166001600160a01b03881617905560025f525f805160206109858339815191526020527f6dc76b80877549f5e2d35779128ffd933d67be9aacde2617298bf3a1c11e9cd1805460ff1916600117905560065f525f805160206109858339815191526020527fd7f0b692a098e45342ee6790049ecc8b4a16884d9136e417fbed3599e58a099b805460ff1916600117905560075f525f805160206109858339815191526020526105fa7f4974a52e6c6fd0f247049298be19e142889fbe3912e8420eb23cd4539f4e6941805460ff19166001179055565b61060a84604051938493846106b4565b0390a1604051938493846106b4565b5f3660031901126100b057602060405160018152f35b7fc96c7f0bedca8f9a854bd633166c35e06128fc3bbbeee5fb3aae2fd65dffd22f6101e561065c36610159565b6106688394929461067c565b805460ff19169055604051938493846106b4565b6001600160a01b03165f9081527f4a2a83b8105ad4a0dda71dd0f16c9ab0603926e6c3d8681e5ff7baf68ed680836020526040902090565b9192606093819260018060a01b0316845260406020850152816040850152848401375f828201840152601f01601f1916010190565b62ffffff165f525f8051602061098583398151915260205260405f2090565b1561070f57565b60405162461bcd60e51b815260206004820152601660248201527510dbdc9955dc9a5d195c881b9bdd08185b1b1bddd95960521b6044820152606490fd5b634e487b7160e01b5f52604160045260245ffd5b6020818303126100b0578035906001600160401b0382116100b0570181601f820112156100b0578035906001600160401b0382116107e35760405192601f8301601f19908116603f011684016001600160401b038111858210176107e357604052828452602083830101116100b057815f926020809301838601378301015290565b61074d565b156107ef57565b60405162461bcd60e51b815260206004820152601b60248201527a10dbdc9955dc9a5d195c881858dd1a5bdb881d1bdbc81cda1bdc9d602a1b6044820152606490fd5b1561083957565b60405162461bcd60e51b815260206004820152601e60248201527f436f726557726974657220756e737570706f727465642076657273696f6e00006044820152606490fd5b1561088557565b606460405162461bcd60e51b815260206004820152602060248201527f436f726557726974657220616374696f6e204944206e6f7420616c6c6f7765646044820152fd5b6003198101919082116108d857565b634e487b7160e01b5f52601160045260245ffd5b51906001600160401b03821682036100b057565b908160609103126100b0578051610916816100eb565b9161092f6040610928602085016108ec565b93016108ec565b90565b908160609103126100b0578051610948816100eb565b91602082015180151581036100b057604061092f9193016108ec56fe4a2a83b8105ad4a0dda71dd0f16c9ab0603926e6c3d8681e5ff7baf68ed680824a2a83b8105ad4a0dda71dd0f16c9ab0603926e6c3d8681e5ff7baf68ed680844a2a83b8105ad4a0dda71dd0f16c9ab0603926e6c3d8681e5ff7baf68ed68081a164736f6c634300081a000a","linkReferences":{}},"methodIdentifiers":{"getAllowedCoreDepositWallet()":"637b6b96","getAllowedCoreWriter()":"4a6e900a","isAllowedCoreWriterAction(uint24)":"86a71f91","isAllowedHypercoreVault(address)":"19d628c5","isDeployed()":"c52046de","removeHypercoreVault(address,string)":"e2873b6d","validateAction(address,bytes)":"88ea783f","validateDeposit(address)":"67bc52cb","whitelistCoreWriter(address,address,string)":"acb9da16","whitelistHypercoreVault(address,string)":"2de905bc"},"id":10}