{"abi":[{"type":"function","name":"captureSettlement","inputs":[{"name":"vault","type":"address","internalType":"address"}],"outputs":[{"name":"snapshot","type":"tuple","internalType":"struct LagoonLib.SettlementSnapshot","components":[{"name":"limitEnabled","type":"bool","internalType":"bool"},{"name":"asset","type":"address","internalType":"address"},{"name":"pendingSilo","type":"address","internalType":"address"},{"name":"maxSettlementAmount","type":"uint256","internalType":"uint256"},{"name":"siloBalanceBefore","type":"uint256","internalType":"uint256"},{"name":"vaultBalanceBefore","type":"uint256","internalType":"uint256"}]}],"stateMutability":"view"},{"type":"function","name":"getVaultConfig","inputs":[{"name":"vault","type":"address","internalType":"address"}],"outputs":[{"name":"allowed","type":"bool","internalType":"bool"},{"name":"limitEnabled","type":"bool","internalType":"bool"},{"name":"asset","type":"address","internalType":"address"},{"name":"pendingSilo","type":"address","internalType":"address"},{"name":"maxSettlementAmount","type":"uint256","internalType":"uint256"}],"stateMutability":"view"},{"type":"function","name":"isAllowedVault","inputs":[{"name":"vault","type":"address","internalType":"address"}],"outputs":[{"name":"","type":"bool","internalType":"bool"}],"stateMutability":"view"},{"type":"function","name":"isDeployed","inputs":[],"outputs":[{"name":"","type":"bool","internalType":"bool"}],"stateMutability":"pure"},{"type":"event","name":"LagoonSettlementLimitSet","inputs":[{"name":"vault","type":"address","indexed":true,"internalType":"address"},{"name":"asset","type":"address","indexed":true,"internalType":"address"},{"name":"pendingSilo","type":"address","indexed":true,"internalType":"address"},{"name":"maxSettlementAmount","type":"uint256","indexed":false,"internalType":"uint256"},{"name":"enabled","type":"bool","indexed":false,"internalType":"bool"},{"name":"notes","type":"string","indexed":false,"internalType":"string"}],"anonymous":false},{"type":"event","name":"LagoonSettlementValidated","inputs":[{"name":"vault","type":"address","indexed":true,"internalType":"address"},{"name":"depositAssets","type":"uint256","indexed":false,"internalType":"uint256"},{"name":"redeemAssets","type":"uint256","indexed":false,"internalType":"uint256"},{"name":"grossSettlementAmount","type":"uint256","indexed":false,"internalType":"uint256"},{"name":"maxSettlementAmount","type":"uint256","indexed":false,"internalType":"uint256"}],"anonymous":false},{"type":"event","name":"LagoonVaultApproved","inputs":[{"name":"vault","type":"address","indexed":false,"internalType":"address"},{"name":"notes","type":"string","indexed":false,"internalType":"string"}],"anonymous":false},{"type":"error","name":"LagoonAddressHasNoCode","inputs":[{"name":"invalidAddress","type":"address","internalType":"address"}]},{"type":"error","name":"LagoonAssetMismatch","inputs":[{"name":"configuredAsset","type":"address","internalType":"address"},{"name":"vaultAsset","type":"address","internalType":"address"}]},{"type":"error","name":"LagoonInvalidAddress","inputs":[{"name":"invalidAddress","type":"address","internalType":"address"}]},{"type":"error","name":"LagoonSettlementLimitExceeded","inputs":[{"name":"actualAmount","type":"uint256","internalType":"uint256"},{"name":"maxAmount","type":"uint256","internalType":"uint256"}]},{"type":"error","name":"LagoonSiloAllowanceMissing","inputs":[{"name":"pendingSilo","type":"address","internalType":"address"},{"name":"vault","type":"address","internalType":"address"}]},{"type":"error","name":"LagoonSiloBalanceIncreased","inputs":[{"name":"beforeBalance","type":"uint256","internalType":"uint256"},{"name":"afterBalance","type":"uint256","internalType":"uint256"}]},{"type":"error","name":"LagoonVaultAlreadyConfigured","inputs":[{"name":"configuredVault","type":"address","internalType":"address"},{"name":"requestedVault","type":"address","internalType":"address"}]},{"type":"error","name":"LagoonVaultBalanceDecreased","inputs":[{"name":"beforeBalance","type":"uint256","internalType":"uint256"},{"name":"afterBalance","type":"uint256","internalType":"uint256"}]},{"type":"error","name":"LagoonVaultNotAllowed","inputs":[{"name":"vault","type":"address","internalType":"address"}]}],"bytecode":{"object":"0x60808060405234601b57610c0890816100208239308160070152f35b5f80fdfe6080604052307f0000000000000000000000000000000000000000000000000000000000000000146004361015610034575f80fd5b5f3560e01c806330e14386146102b45780637b36d2191461027c578063814998ee14610213578063c52046de146101fd578063de1eb9a3146101b0578063fd812094146101595763fe16474d14610089575f80fd5b610155576040366003190112610155576100a16105a3565b6024356001600160401b038111610155575f80516020610bbc833981519152916100d26101509236906004016105b9565b6100de83949294610af2565b6100e7836105e6565b5f80516020610b9c833981519152805460ff60a01b191690555f80516020610bdc83398151915280546001600160a01b03199081169091555f80516020610b5c833981519152805490911690555f5f80516020610b7c8339815191525560405193849384610634565b0390a1005b5f80fd5b602036600319011261015557602061016f6105a3565b5f80516020610b9c833981519152546001600160a01b0316801515918261019d575b50506040519015158152f35b6001600160a01b03161490508280610191565b60203660031901126101555760a06101ce6101c96105a3565b610a5c565b60408051951515865293151560208601525f196001871b01928316938501939093521660608301526080820152f35b5f36600319011261015557602060405160018152f35b60203660031901126101555760c061023161022c6105a3565b610888565b60a060405191805115158352600180831b036020820151166020840152600180831b0360408201511660408401526060810151606084015260808101516080840152015160a0820152f35b506101555760e0366003190112610155576102956105a3565b60c0366023190112610155576102ac6020916106b1565b604051908152f35b506101555760a0366003190112610155576102cd6105a3565b602435906001600160a01b03821690818303610155576044356001600160a01b0381169384820361015557606435906084356001600160401b0381116101555761031b9036906004016105b9565b93909161032786610af2565b861561059057871561057d57853b1561055f573b1561054c573b1561054c576040516338d52e0f60e01b81526001600160a01b0385169490602081600481895afa9081156104e9575f9161050a575b506001600160a01b03168681036104f45750604051636eb1769f60e11b81528760048201528560248201526020816044818a5afa9081156104e9575f916104b7575b50156104a057815f80516020610bbc8339815191527f87e14d99c72b7d0dea1ad6a5a753aafa3b63fe41cc84d9f6ccaf1056e568f577959493836103fe61049b956105e6565b5f80516020610b9c833981519152805460ff60a01b1916600160a01b1790555f80516020610bdc83398151915280546001600160a01b03199081168c179091555f80516020610b5c83398151915280549091168c1790555f80516020610b7c83398151915286905560405191829161047891899184610634565b0390a1604051938493845260016020850152606060408501526060840191610614565b0390a4005b848763f33ca31560e01b5f5260045260245260445ffd5b90506020813d6020116104e1575b816104d260209383610659565b8101031261015557515f6103b8565b3d91506104c5565b6040513d5f823e3d90fd5b866324475d2b60e21b5f5260045260245260445ffd5b90506020813d602011610544575b8161052560209383610659565b8101031261015557516001600160a01b0381168103610155575f610376565b3d9150610518565b85638df4c17f60e01b5f5260045260245ffd5b638df4c17f60e01b5f9081526001600160a01b038716600452602490fd5b87635bc665fb60e11b5f5260045260245ffd5b86635bc665fb60e11b5f5260045260245ffd5b600435906001600160a01b038216820361015557565b9181601f84011215610155578235916001600160401b038311610155576020838186019501011161015557565b5f80516020610b9c83398151915280546001600160a01b0319166001600160a01b0392909216919091179055565b908060209392818452848401375f828201840152601f01601f1916010190565b6001600160a01b03909116815260406020820181905261065693910191610614565b90565b601f909101601f19168101906001600160401b0382119082101761067c57604052565b634e487b7160e01b5f52604160045260245ffd5b9190820391821161069d57565b634e487b7160e01b5f52601160045260245ffd5b9060243580159081150361015557610883576044356001600160a01b03811690818103610155576064356001600160a01b03811691908281036101555750604051916370a0823160e01b83526004830152602082602481865afa9182156104e9575f9261084e575b50506040516370a0823160e01b81526001600160a01b039094166004850181905291602090859060249082905afa9384156104e9575f9461081a575b5060a435908181116108045760c435918286106107ed57610780929161077a91610690565b94610690565b928381019384821161069d5784608435918282116107d757917fbced4f92b2389f1c2486acaedea8221611ece0d024f9c1b1de9b34c9b1c392389391608093604051938452602084015260408301526060820152a2565b506350b8950560e01b5f5260045260245260445ffd5b858363507c27a760e11b5f5260045260245260445ffd5b906307543cfb60e11b5f5260045260245260445ffd5b9093506020813d602011610846575b8161083660209383610659565b810103126101555751925f610755565b3d9150610829565b9091506020813d60201161087b575b8161086a60209383610659565b810103126101555751906024610719565b3d915061085d565b5f9150565b604051919060c083016001600160401b0381118482101761067c576040525f83525f60208401525f60408401525f60608401525f60808401525f60a0840152825f80516020610b9c8339815191525460018060a01b0381168015908115610a48575b50610a2a5760a01c60ff1615610a255750600183525f80516020610bdc833981519152546001600160a01b0390811660208086018290525f80516020610b5c8339815191525490921660408087018290525f80516020610b7c833981519152546060880152516370a0823160e01b815260048101919091529092909182602481865afa80156104e9575f906109f2575b60808601526040516370a0823160e01b81526001600160a01b0390911660048201529160209150829060249082905afa9081156104e9575f916109c0575b5060a0830152565b90506020813d6020116109ea575b816109db60209383610659565b8101031261015557515f6109b8565b3d91506109ce565b506020823d602011610a1d575b81610a0c60209383610659565b81010312610155576020915161097a565b3d91506109ff565b925050565b6329ea313160e01b5f9081526001600160a01b038416600452602490fd5b6001600160a01b038516141590505f6108ea565b5f80516020610b9c8339815191525491906001600160a01b0383168015159182610adf575b505015610ad2575f80516020610bdc833981519152545f80516020610b5c833981519152545f80516020610b7c8339815191525460019460a01c60ff16936001600160a01b03938416939290921691565b5f91508190819081908190565b6001600160a01b03161490505f80610a81565b6001600160a01b03168015610b49575f80516020610b9c833981519152546001600160a01b031680151580610b3f575b610b2a575050565b6377ca491760e11b5f5260045260245260445ffd5b5081811415610b22565b635bc665fb60e11b5f5260045260245ffdfedc3d44fceb32d4497e8738595e5ee69137d10f92f16cdfce4f803517d589911fdc3d44fceb32d4497e8738595e5ee69137d10f92f16cdfce4f803517d5899120dc3d44fceb32d4497e8738595e5ee69137d10f92f16cdfce4f803517d589911dfaa136302ac223cf7c1146490a741e4520e886fc22d7e759641453f432283d01dc3d44fceb32d4497e8738595e5ee69137d10f92f16cdfce4f803517d589911ea164736f6c634300081a000a","linkReferences":{}},"methodIdentifiers":{"captureSettlement(address)":"814998ee","getVaultConfig(address)":"de1eb9a3","isAllowedVault(address)":"fd812094","isDeployed()":"c52046de","verifySettlement(address,LagoonLib.SettlementSnapshot)":"7b36d219","whitelistVault(address,string)":"fe16474d","whitelistVaultWithSettlementLimit(address,address,address,uint256,string)":"30e14386"},"id":16}