{"abi":[{"type":"function","name":"capturePostCallContext","inputs":[{"name":"vault","type":"address","internalType":"address"}],"outputs":[{"name":"context","type":"bytes","internalType":"bytes"}],"stateMutability":"view"},{"type":"function","name":"getSettlementCooldownConfig","inputs":[{"name":"vault","type":"address","internalType":"address"}],"outputs":[{"name":"settlementCooldown","type":"uint256","internalType":"uint256"},{"name":"lastSettlementTimestamp","type":"uint256","internalType":"uint256"},{"name":"nextSettlementTimestamp","type":"uint256","internalType":"uint256"}],"stateMutability":"view"},{"type":"function","name":"getVaultConfig","inputs":[{"name":"vault","type":"address","internalType":"address"}],"outputs":[{"name":"allowed","type":"bool","internalType":"bool"},{"name":"limitEnabled","type":"bool","internalType":"bool"},{"name":"asset","type":"address","internalType":"address"},{"name":"pendingSilo","type":"address","internalType":"address"},{"name":"maxSettlementAmount","type":"uint256","internalType":"uint256"}],"stateMutability":"view"},{"type":"function","name":"isAllowedVault","inputs":[{"name":"vault","type":"address","internalType":"address"}],"outputs":[{"name":"","type":"bool","internalType":"bool"}],"stateMutability":"view"},{"type":"function","name":"isDeployed","inputs":[],"outputs":[{"name":"","type":"bool","internalType":"bool"}],"stateMutability":"pure"},{"type":"event","name":"LagoonSettlementCooldownSet","inputs":[{"name":"vault","type":"address","indexed":true,"internalType":"address"},{"name":"settlementCooldown","type":"uint256","indexed":false,"internalType":"uint256"},{"name":"notes","type":"string","indexed":false,"internalType":"string"}],"anonymous":false},{"type":"event","name":"LagoonSettlementCooldownStarted","inputs":[{"name":"vault","type":"address","indexed":true,"internalType":"address"},{"name":"settlementTimestamp","type":"uint256","indexed":false,"internalType":"uint256"},{"name":"nextSettlementTimestamp","type":"uint256","indexed":false,"internalType":"uint256"}],"anonymous":false},{"type":"event","name":"LagoonSettlementLimitSet","inputs":[{"name":"vault","type":"address","indexed":true,"internalType":"address"},{"name":"asset","type":"address","indexed":true,"internalType":"address"},{"name":"pendingSilo","type":"address","indexed":true,"internalType":"address"},{"name":"maxSettlementAmount","type":"uint256","indexed":false,"internalType":"uint256"},{"name":"enabled","type":"bool","indexed":false,"internalType":"bool"},{"name":"notes","type":"string","indexed":false,"internalType":"string"}],"anonymous":false},{"type":"event","name":"LagoonSettlementValidated","inputs":[{"name":"vault","type":"address","indexed":true,"internalType":"address"},{"name":"depositAssets","type":"uint256","indexed":false,"internalType":"uint256"},{"name":"redeemAssets","type":"uint256","indexed":false,"internalType":"uint256"},{"name":"grossSettlementAmount","type":"uint256","indexed":false,"internalType":"uint256"},{"name":"maxSettlementAmount","type":"uint256","indexed":false,"internalType":"uint256"}],"anonymous":false},{"type":"event","name":"LagoonVaultApproved","inputs":[{"name":"vault","type":"address","indexed":false,"internalType":"address"},{"name":"notes","type":"string","indexed":false,"internalType":"string"}],"anonymous":false},{"type":"error","name":"LagoonAddressHasNoCode","inputs":[{"name":"invalidAddress","type":"address","internalType":"address"}]},{"type":"error","name":"LagoonAssetMismatch","inputs":[{"name":"configuredAsset","type":"address","internalType":"address"},{"name":"vaultAsset","type":"address","internalType":"address"}]},{"type":"error","name":"LagoonInvalidAddress","inputs":[{"name":"invalidAddress","type":"address","internalType":"address"}]},{"type":"error","name":"LagoonInvalidSettlementCooldown","inputs":[{"name":"settlementCooldown","type":"uint256","internalType":"uint256"}]},{"type":"error","name":"LagoonSettlementCooldownActive","inputs":[{"name":"currentTimestamp","type":"uint256","internalType":"uint256"},{"name":"nextSettlementTimestamp","type":"uint256","internalType":"uint256"}]},{"type":"error","name":"LagoonSettlementLimitExceeded","inputs":[{"name":"actualAmount","type":"uint256","internalType":"uint256"},{"name":"maxAmount","type":"uint256","internalType":"uint256"}]},{"type":"error","name":"LagoonSiloAllowanceMissing","inputs":[{"name":"pendingSilo","type":"address","internalType":"address"},{"name":"vault","type":"address","internalType":"address"}]},{"type":"error","name":"LagoonSiloBalanceIncreased","inputs":[{"name":"beforeBalance","type":"uint256","internalType":"uint256"},{"name":"afterBalance","type":"uint256","internalType":"uint256"}]},{"type":"error","name":"LagoonVaultAlreadyConfigured","inputs":[{"name":"configuredVault","type":"address","internalType":"address"},{"name":"requestedVault","type":"address","internalType":"address"}]},{"type":"error","name":"LagoonVaultBalanceDecreased","inputs":[{"name":"beforeBalance","type":"uint256","internalType":"uint256"},{"name":"afterBalance","type":"uint256","internalType":"uint256"}]},{"type":"error","name":"LagoonVaultNotAllowed","inputs":[{"name":"vault","type":"address","internalType":"address"}]}],"bytecode":{"object":"0x60808060405234601b5761127590816100208239308160070152f35b5f80fdfe6080604052307f0000000000000000000000000000000000000000000000000000000000000000146004361015610034575f80fd5b5f3560e01c8063147a100f14610b7557806330e143861461088c578063728a349914610540578063786076f51461050f578063c52046de146104f9578063c86de41c1461023a578063de1eb9a3146101ed578063fd812094146101965763fe16474d1461009f575f80fd5b610192576040366003190112610192576100b7610bc1565b6024356001600160401b038111610192575f80516020611229833981519152916100e861018d923690600401610c17565b6100f4839492946110df565b5f805160206111e983398151915280546001600160a81b0319166001600160a01b0385161790555f8051602061124983398151915280546001600160a01b03199081169091555f80516020611169833981519152805490911690555f5f805160206111a98339815191528190555f805160206111c98339815191528190555f805160206111498339815191525560405193849384611083565b0390a1005b5f80fd5b60203660031901126101925760206101ac610bc1565b5f805160206111e9833981519152546001600160a01b031680151591826101da575b50506040519015158152f35b6001600160a01b031614905082806101ce565b60203660031901126101925760a061020b610206610bc1565b610f9f565b60408051951515865293151560208601525f196001871b01928316938501939093521660608301526080820152f35b50610192576020366003190112610192576004356001600160401b0381116101925761026a903690600401610c17565b819081010360e081126101925781356001600160a01b03811691908290036101925760c090601f19011261019257604051906102a582610c65565b6102b160208401610c03565b928383526102c160408201610c03565b928360208201526040810194606083013586526060820194608084013586526020608084019160a0860135835260c060a0860196013586526024604051809581936370a0823160e01b835260018060a01b0316600483015260018060a01b03165afa9182156104b7575f926104c2575b5091516040516370a0823160e01b8152600481018690529290602090849060249082906001600160a01b03165afa9283156104b7575f93610483575b50805180831161046c57508351808410610455575061039992916103919151610f92565b925190610f92565b6103a38183610c44565b93855180861161043f575094837fbced4f92b2389f1c2486acaedea8221611ece0d024f9c1b1de9b34c9b1c3923860807f88e140f6afc429ace9c8cad3d73a316b58c07cca7543edf007e11dec1bbecbcb9560409561041560209b425f80516020611149833981519152555142610c44565b95519087519283528b83015289878301526060820152a281519042825286820152a2604051908152f35b856350b8950560e01b5f5260045260245260445ffd5b839063507c27a760e11b5f5260045260245260445ffd5b90506307543cfb60e11b5f5260045260245260445ffd5b9092506020813d6020116104af575b8161049f60209383610c94565b810103126101925751915f61036d565b3d9150610492565b6040513d5f823e3d90fd5b9291506020833d6020116104f1575b816104de60209383610c94565b8101031261019257915190916020610331565b3d91506104d1565b5f36600319011261019257602060405160018152f35b602036600319011261019257606061052d610528610bc1565b610f05565b9060405192835260208301526040820152f35b506101925760c036600319011261019257610559610bc1565b610561610bd7565b610569610bed565b60843592906064359060a4356001600160401b03811161019257610591903690600401610c17565b93909261059d826110df565b6001600160a01b038616918215610879576001600160a01b03841693841561086657813b1561084557873b1561083257803b1561081f576040516338d52e0f60e01b81526001600160a01b03831698906020816004818d5afa9081156104b7575f916107dd575b506001600160a01b03168581036107c75750604051636eb1769f60e11b8152602081806106358787600484016110c5565b0381895afa9081156104b7575f91610795575b501561077e57891561076b5761076695935f80516020611229833981519152888b9c9997956106f45f805160206111898339815191529d966106c65f8051602061120983398151915297600160a01b8a60018060a81b03195f805160206111e9833981519152541617175f805160206111e983398151915255611035565b5f8051602061116983398151915280546001600160a01b0319166001600160a01b0392909216919091179055565b835f805160206111a9833981519152558a5f805160206111c9833981519152556107248c60405193849384611083565b0390a160405190815260016020820152606060408201528061074a606082018b89611063565b0390a46040519384938452604060208501526040840191611063565b0390a2005b89634ec8672760e01b5f5260045260245ffd5b888663f33ca31560e01b5f5260045260245260445ffd5b90506020813d6020116107bf575b816107b060209383610c94565b8101031261019257515f610648565b3d91506107a3565b856324475d2b60e21b5f5260045260245260445ffd5b90506020813d602011610817575b816107f860209383610c94565b8101031261019257516001600160a01b0381168103610192575f610604565b3d91506107eb565b84638df4c17f60e01b5f5260045260245ffd5b83638df4c17f60e01b5f5260045260245ffd5b50638df4c17f60e01b5f9081526001600160a01b0391909116600452602490fd5b84635bc665fb60e11b5f5260045260245ffd5b82635bc665fb60e11b5f5260045260245ffd5b506101925760a0366003190112610192576108a5610bc1565b6108ad610bd7565b906108b6610bed565b91606435916084356001600160401b038111610192576108da903690600401610c17565b9190926108e6826110df565b6001600160a01b038116908115610b62576001600160a01b038716928315610b4f57803b15610b2f57813b15610b1c57873b15610832576040516338d52e0f60e01b81526001600160a01b03821698906020816004818d5afa9081156104b7575f91610ada575b506001600160a01b0316848103610ac45750604051636eb1769f60e11b8152926020848061097f8686600484016110c5565b0381885afa80156104b7578a945f91610a8f575b5015610a78575f805160206111e983398151915280546001600160a81b0319168517600160a01b1790555f80516020611189833981519152985f805160206112098339815191529390925f80516020611229833981519152928a92916109fc916106c690611035565b835f805160206111a983398151915255620151805f805160206111c983398151915255610a2f8960405193849384611083565b0390a1604051908152600160208201526060604082015280610a5560608201888a611063565b0390a4610766604051928392620151808452604060208501526040840191611063565b838663f33ca31560e01b5f5260045260245260445ffd5b9450506020843d602011610abc575b81610aab60209383610c94565b81010312610192578993515f610993565b3d9150610a9e565b846324475d2b60e21b5f5260045260245260445ffd5b90506020813d602011610b14575b81610af560209383610c94565b8101031261019257516001600160a01b0381168103610192575f61094d565b3d9150610ae8565b82638df4c17f60e01b5f5260045260245ffd5b638df4c17f60e01b5f9081526001600160a01b0391909116600452602490fd5b83635bc665fb60e11b5f5260045260245ffd5b50635bc665fb60e11b5f5260045260245ffd5b60203660031901126101925760206040610b95610b90610bc1565b610cb7565b815192839181835280519182918282860152018484015e5f828201840152601f01601f19168101030190f35b600435906001600160a01b038216820361019257565b602435906001600160a01b038216820361019257565b604435906001600160a01b038216820361019257565b35906001600160a01b038216820361019257565b9181601f84011215610192578235916001600160401b038311610192576020838186019501011161019257565b91908201809211610c5157565b634e487b7160e01b5f52601160045260245ffd5b60c081019081106001600160401b03821117610c8057604052565b634e487b7160e01b5f52604160045260245ffd5b601f909101601f19168101906001600160401b03821190821017610c8057604052565b5f805160206111e9833981519152546001600160a01b0381168015908115610ef1575b50610ed05760a01c60ff1615610eca57610cf26110a5565b905f80516020611149833981519152548281610e9e575b5050604051610d1781610c65565b6020810160408201606083019160808401935f855260a08101955f875260018060a01b035f8051602061124983398151915254169788835260018060a01b035f805160206111698339815191525416908185525f805160206111a98339815191525486528652604051906370a0823160e01b825260048201526020816024818c5afa9081156104b7575f91610e6b575b5086526040516370a0823160e01b81526001600160a01b039091166004820181905297602090829060249082905afa9081156104b7575f91610e39575b50865260405196602088015260018060a01b03905116604087015260018060a01b0390511660608601525160808501525160a08401525160c08301525160e082015260e08152610e3661010082610c94565b90565b90506020813d602011610e63575b81610e5460209383610c94565b8101031261019257515f610de4565b3d9150610e47565b90506020813d602011610e96575b81610e8660209383610c94565b8101031261019257516024610da7565b3d9150610e79565b610ea791610c44565b804210610eb45782610d09565b639cbc34ff60e01b5f524260045260245260445ffd5b50606090565b506329ea313160e01b5f9081526001600160a01b0391909116600452602490fd5b6001600160a01b038416141590505f610cda565b5f805160206111e9833981519152545f92916001600160a01b038216801592918315610f7e575b50508115610f6f575b50610f6657610f426110a5565b915f80516020611149833981519152549182610f5a57565b9050610e368383610c44565b5f915081908190565b60ff915060a01c16155f610f35565b6001600160a01b0316141591505f80610f2c565b91908203918211610c5157565b5f805160206111e98339815191525491906001600160a01b0383168015159182611022575b505015611015575f80516020611249833981519152545f80516020611169833981519152545f805160206111a98339815191525460019460a01c60ff16936001600160a01b03938416939290921691565b5f91508190819081908190565b6001600160a01b03161490505f80610fc4565b5f8051602061124983398151915280546001600160a01b0319166001600160a01b0392909216919091179055565b908060209392818452848401375f828201840152601f01601f1916010190565b6001600160a01b039091168152604060208201819052610e3693910191611063565b5f805160206111c98339815191525480156110bd5790565b506201518090565b6001600160a01b0391821681529116602082015260400190565b6001600160a01b03168015611136575f805160206111e9833981519152546001600160a01b03168015158061112c575b611117575050565b6377ca491760e11b5f5260045260245260445ffd5b508181141561110f565b635bc665fb60e11b5f5260045260245ffdfedc3d44fceb32d4497e8738595e5ee69137d10f92f16cdfce4f803517d5899122dc3d44fceb32d4497e8738595e5ee69137d10f92f16cdfce4f803517d589911f65e88753cb2bc092e138cf9a2d823e4c0d97426fdd3c8fbb3597d18e7b6ab41ddc3d44fceb32d4497e8738595e5ee69137d10f92f16cdfce4f803517d5899120dc3d44fceb32d4497e8738595e5ee69137d10f92f16cdfce4f803517d5899121dc3d44fceb32d4497e8738595e5ee69137d10f92f16cdfce4f803517d589911d87e14d99c72b7d0dea1ad6a5a753aafa3b63fe41cc84d9f6ccaf1056e568f577faa136302ac223cf7c1146490a741e4520e886fc22d7e759641453f432283d01dc3d44fceb32d4497e8738595e5ee69137d10f92f16cdfce4f803517d589911ea164736f6c634300081a000a","linkReferences":{}},"methodIdentifiers":{"capturePostCallContext(address)":"147a100f","getSettlementCooldownConfig(address)":"786076f5","getVaultConfig(address)":"de1eb9a3","isAllowedVault(address)":"fd812094","isDeployed()":"c52046de","validatePostCall(bytes)":"c86de41c","whitelistVault(address,string)":"fe16474d","whitelistVaultWithSettlementLimit(address,address,address,uint256,string)":"30e14386","whitelistVaultWithSettlementLimitAndCooldown(address,address,address,uint256,uint256,string)":"728a3499"},"id":16}