{"abi":[{"type":"function","name":"isAllowedAssetIndex","inputs":[{"name":"assetIndex","type":"uint16","internalType":"uint16"},{"name":"anyAsset","type":"bool","internalType":"bool"}],"outputs":[{"name":"","type":"bool","internalType":"bool"}],"stateMutability":"view"},{"type":"function","name":"isAllowedLighter","inputs":[{"name":"zkLighter","type":"address","internalType":"address"}],"outputs":[{"name":"","type":"bool","internalType":"bool"}],"stateMutability":"view"},{"type":"function","name":"isDeployed","inputs":[],"outputs":[{"name":"","type":"bool","internalType":"bool"}],"stateMutability":"pure"},{"type":"function","name":"validateCall","inputs":[{"name":"selector","type":"bytes4","internalType":"bytes4"},{"name":"target","type":"address","internalType":"address"},{"name":"callData","type":"bytes","internalType":"bytes"},{"name":"anyAsset","type":"bool","internalType":"bool"}],"outputs":[],"stateMutability":"view"},{"type":"event","name":"LighterContractApproved","inputs":[{"name":"zkLighter","type":"address","indexed":false,"internalType":"address"},{"name":"assetIndex","type":"uint16","indexed":false,"internalType":"uint16"},{"name":"notes","type":"string","indexed":false,"internalType":"string"}],"anonymous":false}],"bytecode":{"object":"0x60808060405234601c576107469081610021823930816104c30152f35b5f80fdfe60806040526004361015610011575f80fd5b5f3560e01c80631e5b6e28146104c05780635d1ccd321461046e578063c52046de14610458578063f42001eb146100805763faef8f5814610050575f80fd5b602036600319011261007c57602060ff61007061006b6105b5565b610607565b54166040519015158152f35b5f80fd5b608036600319011261007c5760043563ffffffff60e01b811680910361007c576024356001600160a01b038116810361007c576044356001600160401b03811161007c576100d29036906004016105da565b90926064359283159384150361007c576100ed60ff91610607565b541615610414578390638a85708360e01b810361026857506080918101031261007c57610119826106d6565b610131604061012a602086016105cb565b9401610670565b5060405163d075f9bb60e01b81526001600160a01b039091166004820152602081602481305afa90811561025d575f9161022e575b50156101d757610173575b005b61017e60ff9161063f565b54161561018757005b60405162461bcd60e51b815260206004820152602260248201527f4c696768746572206465706f7369743a206173736574206e6f7420616c6c6f77604482015261195960f21b6064820152608490fd5b60405162461bcd60e51b815260206004820152602960248201527f4c696768746572206465706f7369743a207265636569766572206e6f742077686044820152681a5d195b1a5cdd195960ba1b6064820152608490fd5b610250915060203d602011610256575b61024881836106ea565b810190610721565b83610166565b503d61023e565b6040513d5f823e3d90fd5b631792c03f60e11b810361037457506060918101031261007c5761028b826106d6565b6040610299602085016105cb565b9301356001600160801b0381160361007c5760405163d075f9bb60e01b81526001600160a01b039091166004820152602081602481305afa90811561025d575f91610355575b5015610300576102eb57005b60ff6102f96101719261063f565b541661067e565b60405162461bcd60e51b815260206004820152602760248201527f4c6967687465722077697468647261773a206f776e6572206e6f742077686974604482015266195b1a5cdd195960ca1b6064820152608490fd5b61036e915060203d6020116102565761024881836106ea565b836102df565b63d20191bd60e01b141590506103d357826080918101031261007c57813565ffffffffffff81160361007c5760606103ae602084016105cb565b926103bb60408201610670565b5001356001600160401b0381160361007c576102eb57005b60405162461bcd60e51b81526020600482015260196024820152782634b3b43a32b91d103ab735b737bbb71039b2b632b1ba37b960391b6044820152606490fd5b60405162461bcd60e51b815260206004820152601c60248201527b131a59da1d195c8818dbdb9d1c9858dd081b9bdd08185b1b1bddd95960221b6044820152606490fd5b5f36600319011261007c57602060405160018152f35b604036600319011261007c5760043561ffff8116810361007c57602435908115908115830361007c57602092916104ab575b506040519015158152f35b60ff91506104b89061063f565b5416826104a0565b307f00000000000000000000000000000000000000000000000000000000000000001461007c57606036600319011261007c576104fb6105b5565b60243561ffff81169081810361007c57604435926001600160401b03841161007c5761056e6080926105527f0688c9840fd73e2e75f23a5a084118d8a9421d9c25f925ff45b6a4885318b63c9636906004016105da565b92839261055e86610607565b805460ff1916600117905561063f565b600160ff1982541617905560405195869460018060a01b03168552602085015260606040850152816060850152848401375f828201840152601f01601f19168101030190a1005b600435906001600160a01b038216820361007c57565b359061ffff8216820361007c57565b9181601f8401121561007c578235916001600160401b03831161007c576020838186019501011161007c57565b6001600160a01b03165f9081527fa80259d4f217729286d9159ac45d303ee25d2f4d4ea7350954a393cf7d18048d6020526040902090565b61ffff165f527fa80259d4f217729286d9159ac45d303ee25d2f4d4ea7350954a393cf7d18048e60205260405f2090565b359060ff8216820361007c57565b1561068557565b60405162461bcd60e51b815260206004820152602360248201527f4c6967687465722077697468647261773a206173736574206e6f7420616c6c6f6044820152621dd95960ea1b6064820152608490fd5b35906001600160a01b038216820361007c57565b601f909101601f19168101906001600160401b0382119082101761070d57604052565b634e487b7160e01b5f52604160045260245ffd5b9081602091031261007c5751801515810361007c579056fea164736f6c634300081a000a","linkReferences":{}},"methodIdentifiers":{"isAllowedAssetIndex(uint16,bool)":"5d1ccd32","isAllowedLighter(address)":"faef8f58","isDeployed()":"c52046de","validateCall(bytes4,address,bytes,bool)":"f42001eb","whitelistLighter(address,uint16,string)":"1e5b6e28"},"id":35}