{"abi":[{"type":"function","name":"actions","inputs":[{"name":"","type":"uint256","internalType":"uint256"}],"outputs":[{"name":"sender","type":"address","internalType":"address"},{"name":"version","type":"uint8","internalType":"uint8"},{"name":"actionId","type":"uint24","internalType":"uint24"},{"name":"params","type":"bytes","internalType":"bytes"}],"stateMutability":"view"},{"type":"function","name":"getAction","inputs":[{"name":"index","type":"uint256","internalType":"uint256"}],"outputs":[{"name":"sender","type":"address","internalType":"address"},{"name":"version","type":"uint8","internalType":"uint8"},{"name":"actionId","type":"uint24","internalType":"uint24"},{"name":"params","type":"bytes","internalType":"bytes"}],"stateMutability":"view"},{"type":"function","name":"getActionCount","inputs":[],"outputs":[{"name":"","type":"uint256","internalType":"uint256"}],"stateMutability":"view"},{"type":"function","name":"sendRawAction","inputs":[{"name":"data","type":"bytes","internalType":"bytes"}],"outputs":[],"stateMutability":"nonpayable"},{"type":"event","name":"RawAction","inputs":[{"name":"sender","type":"address","indexed":true,"internalType":"address"},{"name":"data","type":"bytes","indexed":false,"internalType":"bytes"}],"anonymous":false}],"bytecode":{"object":"0x60808060405234601557610660908161001a8239f35b5f80fdfe6080806040526004361015610012575f80fd5b5f3560e01c90816317938e13146100ea575080635eecd218146100ce57806383240f83146100a85763b6e7687314610048575f80fd5b346100a45760203660031901126100a457610064600435610498565b5061007360018254920161052b565b6040519182916100a09160a881901c62ffffff169060a081901c60ff16906001600160a01b0316856105cb565b0390f35b5f80fd5b346100a45760203660031901126100a4576004355f548110156100a45761006490610498565b346100a4575f3660031901126100a45760205f54604051908152f35b346100a45760203660031901126100a457600435906001600160401b0382116100a457366023830112156100a4576004820135916001600160401b0383116100a457602481019136602485840101116100a45760048410610456575082156101e45782600110156101e45782600210156101e45782600310156101e4576003198301928084116101f85761017d84610618565b9361018b6040519586610508565b80855261019a601f1991610618565b0136602086013760045b8181101561020c578281016024019060031981018181116101f857865111156101e457600191356001600160f81b0319165f1a868201601c0153016101a4565b634e487b7160e01b5f52603260045260245ffd5b634e487b7160e01b5f52601160045260245ffd5b50604051909291608082016001600160401b0381118382101761042f5760405233825260208201833560f81c81526040830191602761ff0080602684013560f01c161662ff000080602585013560e81c16161791013560f81c178252606083019586525f54600160401b81101561042f5780600161028c92015f55610498565b9290926104435792518254915193516001600160c01b03199092166001600160a01b03919091161760a09390931b60ff60a01b169290921760a89290921b62ffffff60a81b16919091178155925180519093600101906001600160401b03811161042f576102fa82546104d0565b601f81116103ea575b506020601f82116001146103795781905f8051602061063483398151915295965f9261036e575b50508160011b915f199060031b1c19161790555b82604051916020835281602084015260408301375f604084830101526040813394601f80199101168101030190a2005b01519050868061032a565b601f19821695835f52815f20965f5b8181106103d25750915f805160206106348339815191529697918460019594106103ba575b505050811b01905561033e565b01515f1960f88460031b161c191690558680806103ad565b83830151895560019098019760209384019301610388565b825f5260205f20601f830160051c81019160208410610425575b601f0160051c01905b81811061041a5750610303565b5f815560010161040d565b9091508190610404565b634e487b7160e01b5f52604160045260245ffd5b634e487b7160e01b5f525f60045260245ffd5b62461bcd60e51b815260206004820152601e60248201527f4d6f636b436f72655772697465723a206461746120746f6f2073686f727400006044820152606490fd5b5f548110156101e4575f80805260019190911b7f290decd9548b62a8d60345a988386fc84ba6bc95484008f6362f93160ef3e5630191565b90600182811c921680156104fe575b60208310146104ea57565b634e487b7160e01b5f52602260045260245ffd5b91607f16916104df565b601f909101601f19168101906001600160401b0382119082101761042f57604052565b9060405191825f82549261053e846104d0565b80845293600181169081156105a95750600114610565575b5061056392500383610508565b565b90505f9291925260205f20905f915b81831061058d575050906020610563928201015f610556565b6020919350806001915483858901015201910190918492610574565b90506020925061056394915060ff191682840152151560051b8201015f610556565b9262ffffff9060ff60209460a097946001808a1b031687521684860152166040840152608060608401528051918291826080860152018484015e5f828201840152601f01601f1916010190565b6001600160401b03811161042f57601f01601f19166020019056fe8c7f585fb295f7eb1e6aeb8fba61b23a4fe60beda405f0045073b185c74412e3a164736f6c634300081a000a","linkReferences":{}},"methodIdentifiers":{"actions(uint256)":"83240f83","getAction(uint256)":"b6e76873","getActionCount()":"5eecd218","sendRawAction(bytes)":"17938e13"},"id":36}