{"abi":[{"type":"function","name":"deposit","inputs":[{"name":"amount","type":"uint256","internalType":"uint256"},{"name":"destinationDex","type":"uint32","internalType":"uint32"}],"outputs":[],"stateMutability":"nonpayable"},{"type":"function","name":"depositFor","inputs":[{"name":"recipient","type":"address","internalType":"address"},{"name":"amount","type":"uint256","internalType":"uint256"},{"name":"destinationDex","type":"uint32","internalType":"uint32"}],"outputs":[],"stateMutability":"nonpayable"},{"type":"function","name":"deposits","inputs":[{"name":"","type":"uint256","internalType":"uint256"}],"outputs":[{"name":"sender","type":"address","internalType":"address"},{"name":"amount","type":"uint256","internalType":"uint256"},{"name":"destinationDex","type":"uint32","internalType":"uint32"}],"stateMutability":"view"},{"type":"function","name":"getDeposit","inputs":[{"name":"index","type":"uint256","internalType":"uint256"}],"outputs":[{"name":"sender","type":"address","internalType":"address"},{"name":"amount","type":"uint256","internalType":"uint256"},{"name":"destinationDex","type":"uint32","internalType":"uint32"}],"stateMutability":"view"},{"type":"function","name":"getDepositCount","inputs":[],"outputs":[{"name":"","type":"uint256","internalType":"uint256"}],"stateMutability":"view"},{"type":"event","name":"Deposit","inputs":[{"name":"sender","type":"address","indexed":true,"internalType":"address"},{"name":"amount","type":"uint256","indexed":false,"internalType":"uint256"},{"name":"destinationDex","type":"uint32","indexed":false,"internalType":"uint32"}],"anonymous":false},{"type":"event","name":"DepositFor","inputs":[{"name":"sender","type":"address","indexed":true,"internalType":"address"},{"name":"recipient","type":"address","indexed":true,"internalType":"address"},{"name":"amount","type":"uint256","indexed":false,"internalType":"uint256"},{"name":"destinationDex","type":"uint32","indexed":false,"internalType":"uint32"}],"anonymous":false}],"bytecode":{"object":"0x608080604052346015576102f3908161001a8239f35b5f80fdfe60806040526004361015610011575f80fd5b5f3560e01c80632b2dfd2c1461018e5780639363a141146101725780639f9fb96814610156578063b02c43d0146100f75763c23c545a14610050575f80fd5b346100f35760603660031901126100f3576004356001600160a01b038116908190036100f35760243560443563ffffffff81168082036100f3577f3d77ae71727fb9fd8c916d5c39b7a86014f703298528a11d65c17cfd95ba6385916100cf6100ee926100bb610222565b903382528660208301526040820152610255565b60405191829133958390815263ffffffff909116602082015260400190565b0390a3005b5f80fd5b346100f35760203660031901126100f3576004355f548110156100f35761011d906101e9565b5080546001820154600290920154604080516001600160a01b039093168352602083019390935263ffffffff1691810191909152606090f35b346100f35760203660031901126100f35761011d6004356101e9565b346100f3575f3660031901126100f35760205f54604051908152f35b346100f35760403660031901126100f35760043560243563ffffffff81168082036100f3577f738681ca441269aaa213f676d1b0ff77b3c266333326c36e69b5294966c02319916100cf6101e4926100bb610222565b0390a2005b5f5481101561020e575f8080526003919091025f805160206102c78339815191520191565b634e487b7160e01b5f52603260045260245ffd5b60405190606082016001600160401b0381118382101761024157604052565b634e487b7160e01b5f52604160045260245ffd5b5f54600160401b81101561024157600181015f555f5481101561020e575f80526003025f805160206102c7833981519152016040600263ffffffff9260018060a01b0385511660018060a01b031982541617815560208501516001820155019201511663ffffffff1982541617905556fe290decd9548b62a8d60345a988386fc84ba6bc95484008f6362f93160ef3e563a164736f6c634300081a000a","linkReferences":{}},"methodIdentifiers":{"deposit(uint256,uint32)":"2b2dfd2c","depositFor(address,uint256,uint32)":"c23c545a","deposits(uint256)":"b02c43d0","getDeposit(uint256)":"9f9fb968","getDepositCount()":"9363a141"},"id":35}