{"abi":[{"type":"function","name":"deposit","inputs":[{"name":"amount","type":"uint256","internalType":"uint256"},{"name":"destinationDex","type":"uint32","internalType":"uint32"}],"outputs":[],"stateMutability":"nonpayable"},{"type":"function","name":"depositFor","inputs":[{"name":"recipient","type":"address","internalType":"address"},{"name":"amount","type":"uint256","internalType":"uint256"},{"name":"destinationDex","type":"uint32","internalType":"uint32"}],"outputs":[],"stateMutability":"nonpayable"},{"type":"function","name":"deposits","inputs":[{"name":"","type":"uint256","internalType":"uint256"}],"outputs":[{"name":"sender","type":"address","internalType":"address"},{"name":"amount","type":"uint256","internalType":"uint256"},{"name":"destinationDex","type":"uint32","internalType":"uint32"}],"stateMutability":"view"},{"type":"function","name":"getDeposit","inputs":[{"name":"index","type":"uint256","internalType":"uint256"}],"outputs":[{"name":"sender","type":"address","internalType":"address"},{"name":"amount","type":"uint256","internalType":"uint256"},{"name":"destinationDex","type":"uint32","internalType":"uint32"}],"stateMutability":"view"},{"type":"function","name":"getDepositCount","inputs":[],"outputs":[{"name":"","type":"uint256","internalType":"uint256"}],"stateMutability":"view"},{"type":"event","name":"Deposit","inputs":[{"name":"sender","type":"address","indexed":true,"internalType":"address"},{"name":"amount","type":"uint256","indexed":false,"internalType":"uint256"},{"name":"destinationDex","type":"uint32","indexed":false,"internalType":"uint32"}],"anonymous":false},{"type":"event","name":"DepositFor","inputs":[{"name":"sender","type":"address","indexed":true,"internalType":"address"},{"name":"recipient","type":"address","indexed":true,"internalType":"address"},{"name":"amount","type":"uint256","indexed":false,"internalType":"uint256"},{"name":"destinationDex","type":"uint32","indexed":false,"internalType":"uint32"}],"anonymous":false}],"bytecode":{"object":"0x6080806040523461001657610313908161001b8239f35b5f80fdfe6040608081526004361015610012575f80fd5b5f3560e01c80632b2dfd2c1461018e5780639363a141146101715780639f9fb96814610154578063b02c43d0146100f65763c23c545a14610051575f80fd5b346100f25760603660031901126100f2576004356001600160a01b03811691908290036100f2576024359060443563ffffffff8116908181036100f2577f3d77ae71727fb9fd8c916d5c39b7a86014f703298528a11d65c17cfd95ba6385926100d26100ed936100bf610237565b903382528760208301528382015261026a565b5193845263ffffffff16602084015233929081906040820190565b0390a3005b5f80fd5b50346100f25760203660031901126100f2576004355f548110156100f25761011d906101eb565b508054600182015460029092015492516001600160a01b039091168152602081019190915263ffffffff9091166040820152606090f35b50346100f25760203660031901126100f25761011d6004356101eb565b50346100f2575f3660031901126100f2576020905f549051908152f35b50346100f257806003193601126100f2576004359060243563ffffffff8116908181036100f2577f738681ca441269aaa213f676d1b0ff77b3c266333326c36e69b5294966c02319926100d26101e6936100bf610237565b0390a2005b5f54811015610223575f8080526003919091027f290decd9548b62a8d60345a988386fc84ba6bc95484008f6362f93160ef3e5630191565b634e487b7160e01b5f52603260045260245ffd5b60405190606082016001600160401b0381118382101761025657604052565b634e487b7160e01b5f52604160045260245ffd5b5f54600160401b8110156102565780600161028792015f556101eb565b6102ca576040600263ffffffff9260018060a01b0385511660018060a01b031982541617815560208501516001820155019201511663ffffffff19825416179055565b634e487b7160e01b5f525f60045260245ffdfea264697066735822122083de871e0a75e892984c8bdd19cd7c4d9cf2d9a4675b90811adcfd47ad9f573764736f6c63430008170033","linkReferences":{}},"methodIdentifiers":{"deposit(uint256,uint32)":"2b2dfd2c","depositFor(address,uint256,uint32)":"c23c545a","deposits(uint256)":"b02c43d0","getDeposit(uint256)":"9f9fb968","getDepositCount()":"9363a141"},"id":36}