{"abi":[{"type":"constructor","inputs":[{"name":"_assetManager","type":"address","internalType":"address"}],"stateMutability":"nonpayable"},{"type":"function","name":"assetManager","inputs":[],"outputs":[{"name":"","type":"address","internalType":"address"}],"stateMutability":"view"},{"type":"function","name":"getWithdrawAddress","inputs":[],"outputs":[{"name":"","type":"address","internalType":"address"}],"stateMutability":"view"},{"type":"function","name":"guard","inputs":[],"outputs":[{"name":"","type":"address","internalType":"contract GuardV0"}],"stateMutability":"view"},{"type":"function","name":"initialiseOwnership","inputs":[{"name":"_owner","type":"address","internalType":"address"}],"outputs":[],"stateMutability":"nonpayable"},{"type":"function","name":"isDisabled","inputs":[],"outputs":[{"name":"","type":"bool","internalType":"bool"}],"stateMutability":"view"},{"type":"function","name":"owner","inputs":[],"outputs":[{"name":"","type":"address","internalType":"address"}],"stateMutability":"view"},{"type":"function","name":"performCall","inputs":[{"name":"target","type":"address","internalType":"address"},{"name":"callData","type":"bytes","internalType":"bytes"}],"outputs":[],"stateMutability":"nonpayable"},{"type":"function","name":"renounceOwnership","inputs":[],"outputs":[],"stateMutability":"nonpayable"},{"type":"function","name":"resetGuard","inputs":[{"name":"_guard","type":"address","internalType":"contract GuardV0"}],"outputs":[],"stateMutability":"nonpayable"},{"type":"function","name":"transferOwnership","inputs":[{"name":"newOwner","type":"address","internalType":"address"}],"outputs":[],"stateMutability":"nonpayable"},{"type":"function","name":"updateAssetManager","inputs":[{"name":"_assetManager","type":"address","internalType":"address"},{"name":"notes","type":"string","internalType":"string"}],"outputs":[],"stateMutability":"nonpayable"},{"type":"function","name":"withdrawAddress","inputs":[],"outputs":[{"name":"","type":"address","internalType":"address"}],"stateMutability":"view"},{"type":"event","name":"OwnershipTransferred","inputs":[{"name":"previousOwner","type":"address","indexed":true,"internalType":"address"},{"name":"newOwner","type":"address","indexed":true,"internalType":"address"}],"anonymous":false}],"bytecode":{"object":"0x608060405234801561001057600080fd5b50604051613d46380380613d4683398101604081905261002f91610177565b6100383361011a565b6040516100449061016a565b604051809103906000f080158015610060573d6000803e3d6000fd5b50600380546001600160a01b039283166001600160a01b0319918216811790925560018054938516939091168317905560408051631f458b3960e31b815260048101939093526024830152601960448301527f496e697469616c206173736574206d616e61676572207365740000000000000060648301529063fa2c59c890608401600060405180830381600087803b1580156100fc57600080fd5b505af1158015610110573d6000803e3d6000fd5b50505050506101a7565b600080546001600160a01b038381166001600160a01b0319831681178455604051919092169283917f8be0079c531659141344cd1fd0a4f28419497f9722a3daafe3b4186f6b6457e09190a35050565b61334180610a0583390190565b60006020828403121561018957600080fd5b81516001600160a01b03811681146101a057600080fd5b9392505050565b61084f806101b66000396000f3fe608060405234801561001057600080fd5b50600436106100b45760003560e01c80638da5cb5b116100715780638da5cb5b1461014957806394217ad11461015a578063d13573361461016d578063d2f73e3d14610180578063e8e7f80014610149578063f2fde38b1461019357600080fd5b80631581b600146100b957806337cfecf2146100e95780634a0e159d146100fe5780636c57f5a914610111578063715018a61461012e5780637ceab3b114610136575b600080fd5b6002546100cc906001600160a01b031681565b6040516001600160a01b0390911681526020015b60405180910390f35b6100fc6100f73660046106b9565b6101a6565b005b6100fc61010c366004610726565b61034e565b6001546040516001600160a01b03909116151581526020016100e0565b6100fc610461565b6003546100cc906001600160a01b031681565b6000546001600160a01b03166100cc565b6001546100cc906001600160a01b031681565b6100fc61017b3660046106b9565b610475565b6100fc61018e366004610726565b61049f565b6100fc6101a13660046106b9565b61057f565b6101ae6105fa565b60035460408051632d670ec960e11b81526001600160a01b0384811660048301526024820192909252601a60448201527f496e697469616c206f776e65722063616e2077697468647261770000000000006064820152911690635ace1d9290608401600060405180830381600087803b15801561022a57600080fd5b505af115801561023e573d6000803e3d6000fd5b5050600354604080516372e548a960e01b81523060048201526024810191909152602560448201527f5661756c742063616e207265636569766520746f6b656e732066726f6d206120606482015264747261646560d81b60848201526001600160a01b0390911692506372e548a9915060a401600060405180830381600087803b1580156102cb57600080fd5b505af11580156102df573d6000803e3d6000fd5b505060035460405163f2fde38b60e01b81526001600160a01b038581166004830152909116925063f2fde38b9150602401600060405180830381600087803b15801561032a57600080fd5b505af115801561033e573d6000803e3d6000fd5b5050505061034b8161057f565b50565b6103566105fa565b6001546001600160a01b0316156103d25760035460015460405163299f87d560e21b81526001600160a01b039283169263a67e1f549261039f92911690869086906004016107a4565b600060405180830381600087803b1580156103b957600080fd5b505af11580156103cd573d6000803e3d6000fd5b505050505b600180546001600160a01b0319166001600160a01b0385169081179091551561045c57600354604051631f458b3960e31b81526001600160a01b039091169063fa2c59c890610429908690869086906004016107a4565b600060405180830381600087803b15801561044357600080fd5b505af1158015610457573d6000803e3d6000fd5b505050505b505050565b6104696105fa565b6104736000610654565b565b61047d6105fa565b600380546001600160a01b0319166001600160a01b0392909216919091179055565b600354604051636d5025f160e01b81526001600160a01b0390911690636d5025f1906104d59033908790879087906004016107d2565b60006040518083038186803b1580156104ed57600080fd5b505afa158015610501573d6000803e3d6000fd5b50505050600080846001600160a01b03168484604051610522929190610809565b6000604051808303816000865af19150503d806000811461055f576040519150601f19603f3d011682016040523d82523d6000602084013e610564565b606091505b509150915081610578578051602082018181fd5b5050505050565b6105876105fa565b6001600160a01b0381166105f15760405162461bcd60e51b815260206004820152602660248201527f4f776e61626c653a206e6577206f776e657220697320746865207a65726f206160448201526564647265737360d01b60648201526084015b60405180910390fd5b61034b81610654565b6000546001600160a01b031633146104735760405162461bcd60e51b815260206004820181905260248201527f4f776e61626c653a2063616c6c6572206973206e6f7420746865206f776e657260448201526064016105e8565b600080546001600160a01b038381166001600160a01b0319831681178455604051919092169283917f8be0079c531659141344cd1fd0a4f28419497f9722a3daafe3b4186f6b6457e09190a35050565b6001600160a01b038116811461034b57600080fd5b6000602082840312156106cb57600080fd5b81356106d6816106a4565b9392505050565b60008083601f8401126106ef57600080fd5b50813567ffffffffffffffff81111561070757600080fd5b60208301915083602082850101111561071f57600080fd5b9250929050565b60008060006040848603121561073b57600080fd5b8335610746816106a4565b9250602084013567ffffffffffffffff81111561076257600080fd5b61076e868287016106dd565b9497909650939450505050565b81835281816020850137506000828201602090810191909152601f909101601f19169091010190565b6001600160a01b03841681526040602082018190526000906107c9908301848661077b565b95945050505050565b6001600160a01b038581168252841660208201526060604082018190526000906107ff908301848661077b565b9695505050505050565b818382376000910190815291905056fea26469706673582212206079472c105f7c72fe2df74f6f36084929e82eac7e09a62cafe38230686fb6b264736f6c63430008170033608060405234801561001057600080fd5b5061001a3361001f565b61006f565b600080546001600160a01b038381166001600160a01b0319831681178455604051919092169283917f8be0079c531659141344cd1fd0a4f28419497f9722a3daafe3b4186f6b6457e09190a35050565b6132c2806200007f6000396000f3fe608060405234801561001057600080fd5b50600436106103995760003560e01c80638c2fdf9e116101e9578063d7334c9d1161010f578063f259a073116100ad578063f901dc331161007c578063f901dc3314610890578063fa2c59c8146108a3578063fadbcf48146108b6578063fdedfa27146108d957600080fd5b8063f259a0731461039e578063f26749f314610857578063f2fde38b1461086a578063f76081e41461087d57600080fd5b8063ebe26816116100e9578063ebe26816146107ed578063ee5462cc14610800578063efb47bff14610813578063f20e85e01461084457600080fd5b8063d7334c9d146107a4578063e98539c5146107b7578063eb0de042146107ca57600080fd5b8063a847cf4d11610187578063c537bed011610156578063c537bed01461076b578063ca963c501461058a578063d075f9bb1461077e578063d4c0fe451461079157600080fd5b8063a847cf4d146106e2578063a9fc3d4f14610710578063be8c97b014610727578063c4cc9dba1461075857600080fd5b806398b3cc39116101c357806398b3cc3914610686578063a1b6b43014610699578063a4c1cccb146106ac578063a67e1f54146106cf57600080fd5b80638c2fdf9e1461064f5780638da5cb5b14610662578063957dc6c01461067357600080fd5b806359b92be9116102ce5780636d9a14231161026c578063732524941161023b57806373252494146105f1578063761bcd9c146106165780637ea446551461062957806386b6dbe51461063c57600080fd5b80636d9a1423146105b0578063713ebf3b146105c3578063715018a6146105d657806372e548a9146105de57600080fd5b806363cc17f2116102a857806363cc17f2146105645780636a6d5cc8146105775780636ad113531461058a5780636d5025f11461059d57600080fd5b806359b92be91461052b5780635ace1d921461053e5780635e4ccace1461055157600080fd5b80632dc32a611161033b5780633ea35551116103155780633ea35551146104cf578063425f49d0146104e25780634b941268146104f55780634b956bd81461051857600080fd5b80632dc32a611461046857806334ec8d7e146104995780633cf20025146104ac57600080fd5b80631710a4f2116103775780631710a4f2146103fe5780631c123e77146104115780631d49039c146104245780632d12d7881461045557600080fd5b806304a3ba251461039e57806307ac3562146103b357806307ef00cf146103c6575b600080fd5b6103b16103ac3660046127c0565b6108e8565b005b6103b16103c1366004612881565b610951565b6103e96103d4366004612900565b60066020526000908152604090205460ff1681565b60405190151581526020015b60405180910390f35b6103b161040c366004612881565b610c92565b6103b161041f366004612881565b610d48565b6103e9610432366004612900565b6001600160a01b031660009081526007602052604090205460ff16151560011490565b6103b16104633660046127c0565b610dc2565b6103e9610476366004612900565b6001600160a01b031660009081526008602052604090205460ff16151560011490565b6103b16104a73660046127c0565b610e1e565b6103e96104ba366004612900565b60056020526000908152604090205460ff1681565b6103b16104dd3660046127c0565b610e86565b6103b16104f0366004612881565b610eb1565b6103e9610503366004612900565b60086020526000908152604090205460ff1681565b6103b1610526366004612881565b610ed3565b6103b1610539366004612881565b610f78565b6103b161054c3660046127c0565b610ffa565b6103b161055f366004612941565b611059565b6103b16105723660046127c0565b6110ef565b6103b1610585366004612881565b61114e565b6103b1610598366004612881565b6111f6565b6103b16105ab3660046129a3565b611219565b6103b16105be3660046127c0565b611798565b6103e96105d13660046129d4565b6117ce565b6103b1611806565b6103b16105ec3660046127c0565b61181a565b6000546001600160a01b03165b6040516001600160a01b0390911681526020016103f5565b6103b1610624366004612881565b611879565b6103b1610637366004612881565b611984565b6103b161064a3660046127c0565b6119c1565b6103b161065d3660046127c0565b611a20565b6000546001600160a01b03166105fe565b6103b1610681366004612881565b611a7c565b6103b16106943660046127c0565b611b3c565b6103b16106a7366004612881565b611b9b565b6103e96106ba366004612900565b60036020526000908152604090205460ff1681565b6103b16106dd3660046127c0565b611ce3565b6103e96106f03660046129d4565b600160209081526000928352604080842090915290825290205460ff1681565b61071960025481565b6040519081526020016103f5565b6103e9610735366004612900565b6001600160a01b031660009081526004602052604090205460ff16151560011490565b6103b1610766366004612881565b611d3f565b6103e9610779366004612900565b611dfa565b6103e961078c366004612900565b611e1d565b6103b161079f366004612881565b611e40565b6103b16107b2366004612941565b611e80565b6103b16107c5366004612881565b611ef3565b6103e96107d8366004612900565b60076020526000908152604090205460ff1681565b6103b16107fb366004612881565b611f95565b6103b161080e3660046127c0565b61202c565b6103e9610821366004612900565b6001600160a01b031660009081526006602052604090205460ff16151560011490565b6103b16108523660046127c0565b6120e1565b6103b16108653660046129a3565b612137565b6103b1610878366004612900565b6121ac565b6103b161088b366004612881565b612225565b6103b161089e3660046127c0565b6122a1565b6103b16108b13660046127c0565b6122fd565b6103e96108c4366004612900565b60046020526000908152604090205460ff1681565b604051600181526020016103f5565b6108f061235c565b6001600160a01b03831660009081526007602052604090819020805460ff19169055517fb71be9befd3ac90c1c9981d3b1161b3c2c6dcd741f13b34061aa251226a802df9061094490859085908590612a32565b60405180910390a1505050565b6000818060200190518101906109679190612aec565b905060005b8151811015610c8d57600082828151811061098957610989612b9c565b6020026020010151905060006109ac60006004846123b69092919063ffffffff16565b6109b590612bb2565b905060006109d360048085516109cb9190612bff565b8591906123b6565b6040805180820190915260208082527f7472616e736665724552433230496e28616464726573732c75696e74323536299101529050631dac092b60e11b6001600160e01b0319831601610a2e57610a2981610f78565b610c82565b60408051808201909152601b81527f7472616e736665724552433230416c6c496e2861646472657373290000000000602090910152635cf59cb760e11b6001600160e01b0319831601610a8457610a2981611984565b60408051808201909152601881527f6465706f73697428616464726573732c6164647265737329000000000000000060209091015262d3ec1f60e31b6001600160e01b0319831601610ad957610a2981611d3f565b60408051808201909152601981527f776974686472617728616464726573732c6164647265737329000000000000006020909101526306bf1c7b60e01b6001600160e01b0319831601610b2f57610a2981612225565b610b5660405180606001604052806027815260200161323260279139805160209091012090565b6001600160e01b031916826001600160e01b03191603610b7957610a29816111f6565b610ba060405180606001604052806028815260200161320a60289139805160209091012090565b6001600160e01b031916826001600160e01b03191603610bc357610a29816111f6565b60408051808201909152601e81527f666c61736853776170416c6c4f75742875696e743235362c627974657329000060209091015263d2b3d16560e01b6001600160e01b0319831601610c1957610a2981610eb1565b60405162461bcd60e51b815260206004820152603360248201527f76616c69646174655f3164656c74614d756c746963616c6c3a20556e6b6e6f776044820152723710333ab731ba34b7b71039b2b632b1ba37b960691b60648201526084015b60405180910390fd5b50505060010161096c565b505050565b600081806020019051810190610ca89190612c1d565b509050610cd2816001600160a01b031660009081526006602052604090205460ff16151560011490565b610d445760405162461bcd60e51b815260206004820152603c60248201527f76616c69646174655f7472616e736665723a205265636569766572206164647260448201527f657373206e6f742077686974656c6973746564206279204775617264000000006064820152608401610c79565b5050565b6000805b610d558361250d565b5092509050610d6382611dfa565b610d7f5760405162461bcd60e51b8152600401610c7990612c4b565b610d8881611dfa565b610da45760405162461bcd60e51b8152600401610c7990612c4b565b610dad83612549565b15610c8d57610dbb83612583565b9250610d4c565b610dca61235c565b6001600160a01b03831660009081526005602052604090819020805460ff19169055517f4e13b11ab98e672bd78295ef9cebe764dc617f95decf47d842c25b83abc0c7249061094490859085908590612a32565b610e5083610e496040518060600160405280603381526020016131d760339139805160209091012090565b8484611059565b610e7b83610e4960405180606001604052806034815260200161325960349139805160209091012090565b610c8d838383611b3c565b610e7b83610e4960405180608001604052806043815260200161312b60439139805160209091012090565b600081806020019051810190610ec79190612c93565b915050610d4481611b9b565b600081806020019051810190610ee99190612c1d565b509050610f13816001600160a01b031660009081526007602052604090205460ff16151560011490565b610d445760405162461bcd60e51b815260206004820152603060248201527f76616c69646174655f617070726f76653a20417070726f76652061646472657360448201526f0e640c8decae640dcdee840dac2e8c6d60831b6064820152608401610c79565b600081806020019051810190610f8e9190612c1d565b509050610f9a81611dfa565b610d445760405162461bcd60e51b815260206004820152602b60248201527f76616c69646174655f7472616e736665724552433230496e3a20546f6b656e2060448201526a1b9bdd08185b1b1bddd95960aa1b6064820152608401610c79565b61100261235c565b6001600160a01b03831660009081526006602052604090819020805460ff19166001179055517f3562181221a42a19ddd03a82dfe06acab1905ceb65cdaf7d86a1d9fec66435529061094490859085908590612a32565b61106161235c565b6001600160a01b03841660009081526001602081815260408084206001600160e01b0319881685529091528220805460ff1916909117905560028054916110a783612cd9565b91905055507fef729aaa41b9fd994f9ff7c1960df214a84f722002e6cfbea31799cd0873a3ef848484846040516110e19493929190612cf2565b60405180910390a150505050565b6110f761235c565b6001600160a01b03831660009081526008602052604090819020805460ff19166001179055517f628a44970c0e450415e3ae74334ea44f3307b74dbf677a1371190242bf2f35899061094490859085908590612a32565b600080828060200190518101906111659190612d31565b925050915061117382611dfa565b61118f5760405162461bcd60e51b8152600401610c7990612d74565b61119881611e1d565b610c8d5760405162461bcd60e51b815260206004820152602960248201527f52656365697665722061646472657373206e6f742077686974656c697374656460448201526808189e4811dd585c9960ba1b6064820152608401610c79565b60008180602001905181019061120c9190612d9f565b92505050610d4481611b9b565b6000546001600160a01b0385811691161461179257611255846001600160a01b031660009081526004602052604090205460ff16151560011490565b6112a15760405162461bcd60e51b815260206004820181905260248201527f76616c696461746543616c6c3a2053656e646572206e6f7420616c6c6f7765646044820152606401610c79565b60006112b06004828486612dee565b6112b991612e18565b90503660006112cb8460048188612dee565b915091506112d986846117ce565b6113315760405162461bcd60e51b815260206004820152602360248201527f76616c696461746543616c6c3a2043616c6c2073697465206e6f7420616c6c6f6044820152621dd95960ea1b6064820152608401610c79565b61135860405180608001604052806043815260200161312b60439139805160209091012090565b6001600160e01b031916836001600160e01b031916036113b6576113b182828080601f01602080910402602001604051908101604052809392919081815260200183838082843760009201919091525061187992505050565b61178e565b6113dd6040518060600160405280603381526020016131d760339139805160209091012090565b6001600160e01b031916836001600160e01b03191603611436576113b182828080601f016020809104026020016040519081016040528093929190818152602001838380828437600092019190915250611f9592505050565b6040805180820190915260128152716d756c746963616c6c2862797465735b5d2960701b602090910152630a6d35e560e31b6001600160e01b03198416016114b7576113b182828080601f01602080910402602001604051908101604052809392919081815260200183838082843760009201919091525061095192505050565b6040805180820190915260198152787472616e7366657228616464726573732c75696e743235362960381b6020909101526356fa634560e01b6001600160e01b031984160161153f576113b182828080601f016020809104026020016040519081016040528093929190818152602001838380828437600092019190915250610c9292505050565b604080518082019091526018815277617070726f766528616464726573732c75696e743235362960401b60209091015263f6a1584d60e01b6001600160e01b03198416016115c6576113b182828080601f016020809104026020016040519081016040528093929190818152602001838380828437600092019190915250610ed392505050565b6115ed6040518060600160405280602281526020016131b560229139805160209091012090565b6001600160e01b031916836001600160e01b03191603611646576113b182828080601f016020809104026020016040519081016040528093929190818152602001838380828437600092019190915250611a7c92505050565b61166d60405180606001604052806026815260200161316e60269139805160209091012090565b6001600160e01b031916836001600160e01b031916036116c6576113b182828080601f016020809104026020016040519081016040528093929190818152602001838380828437600092019190915250611e4092505050565b6116ed60405180606001604052806021815260200161319460219139805160209091012090565b6001600160e01b031916836001600160e01b03191603611746576113b182828080601f01602080910402602001604051908101604052809392919081815260200183838082843760009201919091525061114e92505050565b60405162461bcd60e51b815260206004820152601960248201527f556e6b6e6f776e2066756e6374696f6e2073656c6563746f72000000000000006044820152606401610c79565b5050505b50505050565b6117c383610e496040518060600160405280602281526020016131b560229139805160209091012090565b610c8d8383836119c1565b6001600160a01b03821660009081526001602090815260408083206001600160e01b03198516845290915290205460ff165b92915050565b61180e61235c565b61181860006125b4565b565b61182261235c565b6001600160a01b03831660009081526005602052604090819020805460ff19166001179055517f62dd88c5ecfa60713a657640ebec4de26fc1aefa4afdb24e6d15a124fce727799061094490859085908590612a32565b600080828060200190518101906118909190612e48565b509350935050506118a081611e1d565b6119275760405162461bcd60e51b815260206004820152604c60248201527f76616c69646174655f737761704578616374546f6b656e73466f72546f6b656e60448201527f733a2052656365697665722061646472657373206e6f742077686974656c697360648201526b1d195908189e4811dd585c9960a21b608482015260a401610c79565b6000805b835181101561197d5783818151811061194657611946612b9c565b6020026020010151915061195982611dfa565b6119755760405162461bcd60e51b8152600401610c7990612d74565b60010161192b565b5050505050565b60008180602001905181019061199a9190612f11565b90506119a581611dfa565b610d445760405162461bcd60e51b8152600401610c7990612f2e565b6119c961235c565b6001600160a01b03831660009081526003602052604090819020805460ff19166001179055517fad90e2570fc4fe9f7437be3188d5c791c6662892d31731992aa88f5c876219839061094490859085908590612a32565b611a2861235c565b6001600160a01b03831660009081526006602052604090819020805460ff19169055517f1212f8ddb39de8e1a339460c95752d61100723efeaa34ccd94bca94393f409389061094490859085908590612a32565b600081806020019051810190611a929190612c1d565b509050611abc816001600160a01b031660009081526008602052604090205460ff16151560011490565b610d445760405162461bcd60e51b815260206004820152604560248201527f76616c69646174655f617070726f766544656c65676174696f6e3a204170707260448201527f6f76652064656c65676174696f6e206164647265737320646f6573206e6f74206064820152640dac2e8c6d60db1b608482015260a401610c79565b611b4461235c565b6001600160a01b03831660009081526007602052604090819020805460ff19166001179055517f628a44970c0e450415e3ae74334ea44f3307b74dbf677a1371190242bf2f35899061094490859085908590612a32565b6000805b611baa836000612604565b9150611bd9600180611bbe60036014612f7c565b611bc89190612f7c565b611bd29190612f7c565b8490612604565b9050611be482611dfa565b611c005760405162461bcd60e51b8152600401610c7990612f8f565b611c0981611dfa565b611c255760405162461bcd60e51b8152600401610c7990612f8f565b600180611c3460036014612f7c565b611c3e9190612f7c565b611c489190612f7c565b6014600180611c58600384612f7c565b611c629190612f7c565b611c6c9190612f7c565b611c769190612f7c565b611c809190612f7c565b835110610c8d57611cdc600180611c9960036014612f7c565b611ca39190612f7c565b611cad9190612f7c565b600180611cbc60036014612f7c565b611cc69190612f7c565b611cd09190612f7c565b85516109cb9190612bff565b9250611b9f565b611ceb61235c565b6001600160a01b03831660009081526004602052604090819020805460ff19169055517f3097928509c53a2dab9500431201d82b0d756e8f890fd01f4ae6b33b45687ea49061094490859085908590612a32565b60008082806020019051810190611d569190612fd4565b91509150611d6382611dfa565b611d7f5760405162461bcd60e51b8152600401610c7990612f2e565b611d8881611e1d565b610c8d5760405162461bcd60e51b815260206004820152603b60248201527f76616c69646174655f6465706f7369743a20526563656976657220616464726560448201527f7373206e6f742077686974656c697374656420627920477561726400000000006064820152608401610c79565b6001600160a01b031660009081526003602052604090205460ff16151560011490565b6001600160a01b031660009081526005602052604090205460ff16151560011490565b600081806020019051810190611e56919061300e565b5050509050611e6481611dfa565b610d445760405162461bcd60e51b8152600401610c7990612d74565b611e8861235c565b6001600160a01b03841660009081526001602090815260408083206001600160e01b03198716845290915290819020805460ff19169055517f37ea10f2d08f5a9803dfcd5abf3cfc7b0d6fcdf5fcbc36be9ea5a0b53d9a4d9b906110e1908690869086908690612cf2565b600081806020019051810190611f0991906130ee565b9050611f188160200151611e1d565b611f8a5760405162461bcd60e51b815260206004820152603f60248201527f76616c69646174655f65786163744f75747075743a205265636569766572206160448201527f646472657373206e6f742077686974656c6973746564206279204775617264006064820152608401610c79565b8051610d4490610d48565b600081806020019051810190611fab91906130ee565b9050611fba8160200151611e1d565b611f8a5760405162461bcd60e51b815260206004820152603e60248201527f76616c69646174655f6578616374496e7075743a20526563656976657220616460448201527f6472657373206e6f742077686974656c697374656420627920477561726400006064820152608401610c79565b6040805180820190915260198152787472616e7366657228616464726573732c75696e743235362960381b602090910152612087837fa9059cbb2ab09eb219583f4a59a5d0623ade346d962bcd4e46b11da047c9049b610e49565b604080518082019091526018815277617070726f766528616464726573732c75696e743235362960401b6020909101526117c3837f095ea7b334ae44009aa867bfb386f5c3b4b443ac6f0ee573fa91c4608fbadfba610e49565b61210c83610e4960405180606001604052806026815260200161316e60269139805160209091012090565b610e7b83610e4960405180606001604052806021815260200161319460219139805160209091012090565b6040805180820190915260128152716d756c746963616c6c2862797465735b5d2960701b60209091015261218b847fac9650d882acfa253cba1ed543b9ff47351da99c3bd00a89625e5cdb2099009c610e49565b612196848383611b3c565b6121a1838383611b3c565b6117928483836110ef565b6121b461235c565b6001600160a01b0381166122195760405162461bcd60e51b815260206004820152602660248201527f4f776e61626c653a206e6577206f776e657220697320746865207a65726f206160448201526564647265737360d01b6064820152608401610c79565b612222816125b4565b50565b6000808280602001905181019061223c9190612fd4565b9150915061224982611dfa565b611d7f5760405162461bcd60e51b8152602060048201526024808201527f76616c69646174655f77697468647261773a20546f6b656e206e6f7420616c6c6044820152631bddd95960e21b6064820152608401610c79565b6122a961235c565b6001600160a01b03831660009081526003602052604090819020805460ff19169055517f9ca3f065622f5f03f32b7157677a0e420c3a36ab45fd49f256ffebce3e3105879061094490859085908590612a32565b61230561235c565b6001600160a01b03831660009081526004602052604090819020805460ff19166001179055517fa8f9caaf4861720900294428e4ff34d37070c37afd26d96e6e4da75326d2c3ad9061094490859085908590612a32565b6000546001600160a01b031633146118185760405162461bcd60e51b815260206004820181905260248201527f4f776e61626c653a2063616c6c6572206973206e6f7420746865206f776e65726044820152606401610c79565b6060816123c481601f612f7c565b10156124035760405162461bcd60e51b815260206004820152600e60248201526d736c6963655f6f766572666c6f7760901b6044820152606401610c79565b8261240e8382612f7c565b101561244d5760405162461bcd60e51b815260206004820152600e60248201526d736c6963655f6f766572666c6f7760901b6044820152606401610c79565b6124578284612f7c565b8451101561249b5760405162461bcd60e51b8152602060048201526011602482015270736c6963655f6f75744f66426f756e647360781b6044820152606401610c79565b6060821580156124ba5760405191506000825260208201604052612504565b6040519150601f8416801560200281840101858101878315602002848b0101015b818310156124f35780518352602092830192016124db565b5050858452601f01601f1916604052505b50949350505050565b6000808061251b8482612604565b92506125288460146126b8565b905061254061253960036014612f7c565b8590612604565b91509193909250565b600061255760036014612f7c565b6014612564600382612f7c565b61256e9190612f7c565b6125789190612f7c565b825110159050919050565b606061180061259460036014612f7c565b6125a060036014612f7c565b84516125ac9190612bff565b8491906123b6565b600080546001600160a01b038381166001600160a01b0319831681178455604051919092169283917f8be0079c531659141344cd1fd0a4f28419497f9722a3daafe3b4186f6b6457e09190a35050565b600081612612816014612f7c565b10156126555760405162461bcd60e51b8152602060048201526012602482015271746f416464726573735f6f766572666c6f7760701b6044820152606401610c79565b612660826014612f7c565b835110156126a85760405162461bcd60e51b8152602060048201526015602482015274746f416464726573735f6f75744f66426f756e647360581b6044820152606401610c79565b500160200151600160601b900490565b6000816126c6816003612f7c565b10156127085760405162461bcd60e51b8152602060048201526011602482015270746f55696e7432345f6f766572666c6f7760781b6044820152606401610c79565b612713826003612f7c565b8351101561275a5760405162461bcd60e51b8152602060048201526014602482015273746f55696e7432345f6f75744f66426f756e647360601b6044820152606401610c79565b50016003015190565b6001600160a01b038116811461222257600080fd5b60008083601f84011261278a57600080fd5b5081356001600160401b038111156127a157600080fd5b6020830191508360208285010111156127b957600080fd5b9250929050565b6000806000604084860312156127d557600080fd5b83356127e081612763565b925060208401356001600160401b038111156127fb57600080fd5b61280786828701612778565b9497909650939450505050565b634e487b7160e01b600052604160045260246000fd5b604051601f8201601f191681016001600160401b038111828210171561285257612852612814565b604052919050565b60006001600160401b0382111561287357612873612814565b50601f01601f191660200190565b60006020828403121561289357600080fd5b81356001600160401b038111156128a957600080fd5b8201601f810184136128ba57600080fd5b80356128cd6128c88261285a565b61282a565b8181528560208385010111156128e257600080fd5b81602084016020830137600091810160200191909152949350505050565b60006020828403121561291257600080fd5b813561291d81612763565b9392505050565b80356001600160e01b03198116811461293c57600080fd5b919050565b6000806000806060858703121561295757600080fd5b843561296281612763565b935061297060208601612924565b925060408501356001600160401b0381111561298b57600080fd5b61299787828801612778565b95989497509550505050565b600080600080606085870312156129b957600080fd5b84356129c481612763565b9350602085013561297081612763565b600080604083850312156129e757600080fd5b82356129f281612763565b9150612a0060208401612924565b90509250929050565b81835281816020850137506000828201602090810191909152601f909101601f19169091010190565b6001600160a01b0384168152604060208201819052600090612a579083018486612a09565b95945050505050565b60006001600160401b03821115612a7957612a79612814565b5060051b60200190565b600082601f830112612a9457600080fd5b8151612aa26128c88261285a565b8181526020856020848701011115612ab957600080fd5b60005b83811015612ad7578581018201518382018301528101612abc565b50506000918101602001919091529392505050565b60006020808385031215612aff57600080fd5b82516001600160401b0380821115612b1657600080fd5b818501915085601f830112612b2a57600080fd5b8151612b386128c882612a60565b81815260059190911b83018401908481019088831115612b5757600080fd5b8585015b83811015612b8f57805185811115612b735760008081fd5b612b818b89838a0101612a83565b845250918601918601612b5b565b5098975050505050505050565b634e487b7160e01b600052603260045260246000fd5b805160208201516001600160e01b03198082169291906004831015612be15780818460040360031b1b83161693505b505050919050565b634e487b7160e01b600052601160045260246000fd5b8181038181111561180057611800612be9565b805161293c81612763565b60008060408385031215612c3057600080fd5b8251612c3b81612763565b6020939093015192949293505050565b60208082526028908201527f76616c6964617465556e69737761705633506174683a20546f6b656e206e6f7460408201526708185b1b1bddd95960c21b606082015260800190565b60008060408385031215612ca657600080fd5b8251915060208301516001600160401b03811115612cc357600080fd5b612ccf85828601612a83565b9150509250929050565b600060018201612ceb57612ceb612be9565b5060010190565b6001600160a01b03851681526001600160e01b031984166020820152606060408201819052600090612d279083018486612a09565b9695505050505050565b600080600060608486031215612d4657600080fd5b8351612d5181612763565b602085015160408601519194509250612d6981612763565b809150509250925092565b602080825260119082015270151bdad95b881b9bdd08185b1b1bddd959607a1b604082015260600190565b600080600060608486031215612db457600080fd5b835192506020840151915060408401516001600160401b03811115612dd857600080fd5b612de486828701612a83565b9150509250925092565b60008085851115612dfe57600080fd5b83861115612e0b57600080fd5b5050820193919092039150565b6001600160e01b03198135818116916004851015612e405780818660040360031b1b83161692505b505092915050565b600080600080600060a08688031215612e6057600080fd5b85519450602080870151945060408701516001600160401b03811115612e8557600080fd5b8701601f81018913612e9657600080fd5b8051612ea46128c882612a60565b81815260059190911b8201830190838101908b831115612ec357600080fd5b928401925b82841015612eea578351612edb81612763565b82529284019290840190612ec8565b8097505050505050612efe60608701612c12565b9150608086015190509295509295909350565b600060208284031215612f2357600080fd5b815161291d81612763565b6020808252602e908201527f76616c69646174655f7472616e736665724552433230416c6c496e3a20546f6b60408201526d195b881b9bdd08185b1b1bddd95960921b606082015260800190565b8082018082111561180057611800612be9565b60208082526025908201527f76616c69646174653164656c7461506174683a20546f6b656e206e6f7420616c6040820152641b1bddd95960da1b606082015260800190565b60008060408385031215612fe757600080fd5b8251612ff281612763565b602084015190925061300381612763565b809150509250929050565b6000806000806080858703121561302457600080fd5b845161302f81612763565b60208601516040870151919550935061304781612763565b6060959095015193969295505050565b600060a0828403121561306957600080fd5b60405160a081016001600160401b03828210818311171561308c5761308c612814565b8160405282935084519150808211156130a457600080fd5b506130b185828601612a83565b82525060208301516130c281612763565b806020830152506040830151604082015260608301516060820152608083015160808201525092915050565b60006020828403121561310057600080fd5b81516001600160401b0381111561311657600080fd5b61312284828501613057565b94935050505056fe737761704578616374546f6b656e73466f72546f6b656e732875696e743235362c75696e743235362c616464726573735b5d2c616464726573732c75696e7432353629737570706c7928616464726573732c75696e743235362c616464726573732c75696e74313629776974686472617728616464726573732c75696e743235362c6164647265737329617070726f766544656c65676174696f6e28616464726573732c75696e74323536296578616374496e707574282862797465732c616464726573732c75696e743235362c75696e743235362c75696e743235362929666c6173685377617045786163744f75742875696e743235362c75696e743235362c627974657329666c617368537761704578616374496e2875696e743235362c75696e743235362c62797465732965786163744f7574707574282862797465732c616464726573732c75696e743235362c75696e743235362c75696e743235362929a2646970667358221220b603d69f408106e492212ff58c93c034be3d82476c7f60a6952e62d679f8ab1e64736f6c63430008170033","linkReferences":{}},"methodIdentifiers":{"assetManager()":"94217ad1","getWithdrawAddress()":"e8e7f800","guard()":"7ceab3b1","initialiseOwnership(address)":"37cfecf2","isDisabled()":"6c57f5a9","owner()":"8da5cb5b","performCall(address,bytes)":"d2f73e3d","renounceOwnership()":"715018a6","resetGuard(address)":"d1357336","transferOwnership(address)":"f2fde38b","updateAssetManager(address,string)":"4a0e159d","withdrawAddress()":"1581b600"},"id":5}