{"abi":[{"type":"constructor","inputs":[],"stateMutability":"nonpayable"},{"type":"function","name":"assetManager","inputs":[],"outputs":[{"name":"","type":"address","internalType":"address"}],"stateMutability":"view"},{"type":"function","name":"getWithdrawAddress","inputs":[],"outputs":[{"name":"","type":"address","internalType":"address"}],"stateMutability":"view"},{"type":"function","name":"guard","inputs":[],"outputs":[{"name":"","type":"address","internalType":"contract GuardV0"}],"stateMutability":"view"},{"type":"function","name":"owner","inputs":[],"outputs":[{"name":"","type":"address","internalType":"address"}],"stateMutability":"view"},{"type":"function","name":"performCall","inputs":[{"name":"target","type":"address","internalType":"address"},{"name":"callData","type":"bytes","internalType":"bytes"}],"outputs":[],"stateMutability":"nonpayable"},{"type":"function","name":"renounceOwnership","inputs":[],"outputs":[],"stateMutability":"nonpayable"},{"type":"function","name":"resetGuard","inputs":[{"name":"_guard","type":"address","internalType":"contract GuardV0"}],"outputs":[],"stateMutability":"nonpayable"},{"type":"function","name":"transferOwnership","inputs":[{"name":"newOwner","type":"address","internalType":"address"}],"outputs":[],"stateMutability":"nonpayable"},{"type":"function","name":"updateAssetManager","inputs":[{"name":"_assetManager","type":"address","internalType":"address"},{"name":"notes","type":"string","internalType":"string"}],"outputs":[],"stateMutability":"nonpayable"},{"type":"function","name":"withdrawAddress","inputs":[],"outputs":[{"name":"","type":"address","internalType":"address"}],"stateMutability":"view"},{"type":"event","name":"OwnershipTransferred","inputs":[{"name":"previousOwner","type":"address","indexed":true,"internalType":"address"},{"name":"newOwner","type":"address","indexed":true,"internalType":"address"}],"anonymous":false}],"bytecode":{"object":"0x608060405234801561001057600080fd5b5061001a336101e9565b60405161002690610239565b604051809103906000f080158015610042573d6000803e3d6000fd5b50600380546001600160a01b0319166001600160a01b0392909216918217905560405163f2fde38b60e01b815233600482015263f2fde38b90602401600060405180830381600087803b15801561009857600080fd5b505af11580156100ac573d6000803e3d6000fd5b505060035460408051632d670ec960e11b81523360048201526024810191909152601a60448201527f496e697469616c206f776e65722063616e20776974686472617700000000000060648201526001600160a01b039091169250635ace1d929150608401600060405180830381600087803b15801561012b57600080fd5b505af115801561013f573d6000803e3d6000fd5b5050600354604080516372e548a960e01b81523060048201526024810191909152602560448201527f5661756c742063616e207265636569766520746f6b656e732066726f6d206120606482015264747261646560d81b60848201526001600160a01b0390911692506372e548a9915060a401600060405180830381600087803b1580156101cc57600080fd5b505af11580156101e0573d6000803e3d6000fd5b50505050610246565b600080546001600160a01b038381166001600160a01b0319831681178455604051919092169283917f8be0079c531659141344cd1fd0a4f28419497f9722a3daafe3b4186f6b6457e09190a35050565b6118228061090f83390190565b6106ba806102556000396000f3fe608060405234801561001057600080fd5b506004361061009e5760003560e01c806394217ad11161006657806394217ad114610113578063d135733614610126578063d2f73e3d14610139578063e8e7f80014610102578063f2fde38b1461014c57600080fd5b80631581b600146100a35780634a0e159d146100d2578063715018a6146100e75780637ceab3b1146100ef5780638da5cb5b14610102575b600080fd5b6002546100b6906001600160a01b031681565b6040516001600160a01b03909116815260200160405180910390f35b6100e56100e036600461051f565b61015f565b005b6100e5610265565b6003546100b6906001600160a01b031681565b6000546001600160a01b03166100b6565b6001546100b6906001600160a01b031681565b6100e5610134366004610574565b610279565b6100e561014736600461051f565b6102a3565b6100e561015a366004610574565b61039e565b610167610417565b6001546001600160a01b0316156101e35760035460015460405163299f87d560e21b81526001600160a01b039283169263a67e1f54926101b092911690869086906004016105c1565b600060405180830381600087803b1580156101ca57600080fd5b505af11580156101de573d6000803e3d6000fd5b505050505b600180546001600160a01b0319166001600160a01b0385811691909117909155600354604051631f458b3960e31b815291169063fa2c59c89061022e908690869086906004016105c1565b600060405180830381600087803b15801561024857600080fd5b505af115801561025c573d6000803e3d6000fd5b50505050505050565b61026d610417565b6102776000610471565b565b610281610417565b600380546001600160a01b0319166001600160a01b0392909216919091179055565b600354604051636d5025f160e01b81526001600160a01b0390911690636d5025f1906102d99033908790879087906004016105ef565b60006040518083038186803b1580156102f157600080fd5b505afa158015610305573d6000803e3d6000fd5b50505050600080846001600160a01b03168484604051610326929190610626565b6000604051808303816000865af19150503d8060008114610363576040519150601f19603f3d011682016040523d82523d6000602084013e610368565b606091505b50915091508181906103965760405162461bcd60e51b815260040161038d9190610636565b60405180910390fd5b505050505050565b6103a6610417565b6001600160a01b03811661040b5760405162461bcd60e51b815260206004820152602660248201527f4f776e61626c653a206e6577206f776e657220697320746865207a65726f206160448201526564647265737360d01b606482015260840161038d565b61041481610471565b50565b6000546001600160a01b031633146102775760405162461bcd60e51b815260206004820181905260248201527f4f776e61626c653a2063616c6c6572206973206e6f7420746865206f776e6572604482015260640161038d565b600080546001600160a01b038381166001600160a01b0319831681178455604051919092169283917f8be0079c531659141344cd1fd0a4f28419497f9722a3daafe3b4186f6b6457e09190a35050565b6001600160a01b038116811461041457600080fd5b60008083601f8401126104e857600080fd5b50813567ffffffffffffffff81111561050057600080fd5b60208301915083602082850101111561051857600080fd5b9250929050565b60008060006040848603121561053457600080fd5b833561053f816104c1565b9250602084013567ffffffffffffffff81111561055b57600080fd5b610567868287016104d6565b9497909650939450505050565b60006020828403121561058657600080fd5b8135610591816104c1565b9392505050565b81835281816020850137506000828201602090810191909152601f909101601f19169091010190565b6001600160a01b03841681526040602082018190526000906105e69083018486610598565b95945050505050565b6001600160a01b0385811682528416602082015260606040820181905260009061061c9083018486610598565b9695505050505050565b8183823760009101908152919050565b600060208083528351808285015260005b8181101561066357858101830151858201604001528201610647565b506000604082860101526040601f19601f830116850101925050509291505056fea2646970667358221220b87aabb43b99abbc0ef59df22d4d4eb25dd4d07e0708234fd10b4fc6a027bbb564736f6c63430008130033608060405234801561001057600080fd5b5061001a3361001f565b61006f565b600080546001600160a01b038381166001600160a01b0319831681178455604051919092169283917f8be0079c531659141344cd1fd0a4f28419497f9722a3daafe3b4186f6b6457e09190a35050565b6117a48061007e6000396000f3fe608060405234801561001057600080fd5b50600436106102065760003560e01c80638c2fdf9e1161011a578063d075f9bb116100ad578063efb47bff1161007c578063efb47bff14610503578063f2fde38b14610534578063f901dc3314610547578063fa2c59c81461055a578063fadbcf481461056d57600080fd5b8063d075f9bb146104a7578063d7334c9d146104ba578063eb0de042146104cd578063ee5462cc146104f057600080fd5b8063a67e1f54116100e9578063a67e1f5414610404578063a847cf4d14610417578063be8c97b014610445578063c537bed01461047657600080fd5b80638c2fdf9e146103aa5780638da5cb5b146103bd57806398b3cc39146103ce578063a4c1cccb146103e157600080fd5b80634b956bd81161019d578063715018a61161016c578063715018a61461034457806372e548a91461034c578063732524941461035f57806386b6dbe5146103845780638a27112a1461039757600080fd5b80634b956bd8146102f85780635ace1d921461030b5780635e4ccace1461031e5780636d5025f11461033157600080fd5b80631d49039c116101d95780631d49039c1461027e5780632d12d788146102af5780633cf20025146102c25780633ea35551146102e557600080fd5b806304a3ba251461020b57806307ef00cf146102205780631202f5e5146102585780631710a4f21461026b575b600080fd5b61021e6102193660046112b7565b610590565b005b61024361022e36600461130c565b60056020526000908152604090205460ff1681565b60405190151581526020015b60405180910390f35b61021e610266366004611377565b6105f9565b61021e610279366004611377565b610797565b61024361028c36600461130c565b6001600160a01b031660009081526006602052604090205460ff16151560011490565b61021e6102bd3660046112b7565b610827565b6102436102d036600461130c565b60046020526000908152604090205460ff1681565b61021e6102f33660046112b7565b610883565b61021e610306366004611377565b6108c5565b61021e6103193660046112b7565b610951565b61021e61032c366004611429565b6109b0565b61021e61033f36600461148c565b610a34565b61021e610d0f565b61021e61035a3660046112b7565b610d23565b6000546001600160a01b03165b6040516001600160a01b03909116815260200161024f565b61021e6103923660046112b7565b610d82565b6102436103a53660046114bd565b610de1565b61021e6103b83660046112b7565b610e19565b6000546001600160a01b031661036c565b61021e6103dc3660046112b7565b610e75565b6102436103ef36600461130c565b60026020526000908152604090205460ff1681565b61021e6104123660046112b7565b610ed4565b6102436104253660046114bd565b600160209081526000928352604080842090915290825290205460ff1681565b61024361045336600461130c565b6001600160a01b031660009081526003602052604090205460ff16151560011490565b61024361048436600461130c565b6001600160a01b031660009081526002602052604090205460ff16151560011490565b6102436104b536600461130c565b610f30565b61021e6104c8366004611429565b610f59565b6102436104db36600461130c565b60066020526000908152604090205460ff1681565b61021e6104fe3660046112b7565b610fcc565b61024361051136600461130c565b6001600160a01b031660009081526005602052604090205460ff16151560011490565b61021e61054236600461130c565b61107b565b61021e6105553660046112b7565b6110f4565b61021e6105683660046112b7565b611150565b61024361057b36600461130c565b60036020526000908152604090205460ff1681565b6105986111af565b6001600160a01b03831660009081526006602052604090819020805460ff19169055517fb71be9befd3ac90c1c9981d3b1161b3c2c6dcd741f13b34061aa251226a802df906105ec9085908590859061151b565b60405180910390a1505050565b600080828060200190518101906106109190611554565b5093509350505060008260008151811061062c5761062c611636565b6020026020010151905060008360018551610647919061164c565b8151811061065757610657611636565b6020026020010151905061066a83610f30565b6106bb5760405162461bcd60e51b815260206004820152601f60248201527f5265636569766572206164647265737320646f6573206e6f74206d617463680060448201526064015b60405180910390fd5b6106e2826001600160a01b031660009081526002602052604090205460ff16151560011490565b6107255760405162461bcd60e51b8152602060048201526014602482015273151bdad95b881a5b881b9bdd08185b1b1bddd95960621b60448201526064016106b2565b61074c816001600160a01b031660009081526002602052604090205460ff16151560011490565b6107905760405162461bcd60e51b8152602060048201526015602482015274151bdad95b881bdd5d081b9bdd08185b1b1bddd959605a1b60448201526064016106b2565b5050505050565b6000818060200190518101906107ad919061166d565b5090506107d7816001600160a01b031660009081526005602052604090205460ff16151560011490565b6108235760405162461bcd60e51b815260206004820152601f60248201527f5265636569766572206164647265737320646f6573206e6f74206d617463680060448201526064016106b2565b5050565b61082f6111af565b6001600160a01b03831660009081526004602052604090819020805460ff19169055517f4e13b11ab98e672bd78295ef9cebe764dc617f95decf47d842c25b83abc0c724906105ec9085908590859061151b565b6108b5836108ae6040518060600160405280603a8152602001611735603a9139805160209091012090565b84846109b0565b6108c0838383610e75565b505050565b6000818060200190518101906108db919061166d565b509050610905816001600160a01b031660009081526006602052604090205460ff16151560011490565b6108235760405162461bcd60e51b815260206004820152601e60248201527f417070726f7665206164647265737320646f6573206e6f74206d61746368000060448201526064016106b2565b6109596111af565b6001600160a01b03831660009081526005602052604090819020805460ff19166001179055517f3562181221a42a19ddd03a82dfe06acab1905ceb65cdaf7d86a1d9fec6643552906105ec9085908590859061151b565b6109b86111af565b6001600160a01b03841660009081526001602081815260408084206001600160e01b03198816855290915291829020805460ff19169091179055517fef729aaa41b9fd994f9ff7c1960df214a84f722002e6cfbea31799cd0873a3ef90610a2690869086908690869061169b565b60405180910390a150505050565b6000546001600160a01b03858116911614610d0957610a70846001600160a01b031660009081526003602052604090205460ff16151560011490565b15610ab25760405162461bcd60e51b815260206004820152601260248201527114d95b99195c881b9bdd08185b1b1bddd95960721b60448201526064016106b2565b6000610ac160048284866116da565b610aca91611704565b9050366000610adc84600481886116da565b91509150610aea8684610de1565b15610b2f5760405162461bcd60e51b815260206004820152601560248201527410d85b1b081cda5d19481b9bdd08185b1b1bddd959605a1b60448201526064016106b2565b610b566040518060600160405280603a8152602001611735603a9139805160209091012090565b6001600160e01b031916836001600160e01b03191603610bb457610baf82828080601f0160208091040260200160405190810160405280939291908181526020018383808284376000920191909152506105f992505050565b610d05565b6040805180820190915260168152757472616e7366657228616464726573732c75696e742960501b602090910152631268db0560e31b6001600160e01b0319841601610c3957610baf82828080601f01602080910402602001604051908101604052809392919081815260200183838082843760009201919091525061079792505050565b604080518082019091526015815274617070726f766528616464726573732c75696e742960581b602090910152637bc9df8560e11b6001600160e01b0319841601610cbd57610baf82828080601f0160208091040260200160405190810160405280939291908181526020018383808284376000920191909152506108c592505050565b60405162461bcd60e51b815260206004820152601960248201527f556e6b6e6f776e2066756e6374696f6e2073656c6563746f720000000000000060448201526064016106b2565b5050505b50505050565b610d176111af565b610d216000611209565b565b610d2b6111af565b6001600160a01b03831660009081526004602052604090819020805460ff19166001179055517f62dd88c5ecfa60713a657640ebec4de26fc1aefa4afdb24e6d15a124fce72779906105ec9085908590859061151b565b610d8a6111af565b6001600160a01b03831660009081526002602052604090819020805460ff19166001179055517fad90e2570fc4fe9f7437be3188d5c791c6662892d31731992aa88f5c87621983906105ec9085908590859061151b565b6001600160a01b03821660009081526001602090815260408083206001600160e01b03198516845290915290205460ff165b92915050565b610e216111af565b6001600160a01b03831660009081526005602052604090819020805460ff19169055517f1212f8ddb39de8e1a339460c95752d61100723efeaa34ccd94bca94393f40938906105ec9085908590859061151b565b610e7d6111af565b6001600160a01b03831660009081526006602052604090819020805460ff19166001179055517f628a44970c0e450415e3ae74334ea44f3307b74dbf677a1371190242bf2f3589906105ec9085908590859061151b565b610edc6111af565b6001600160a01b03831660009081526003602052604090819020805460ff19169055517f3097928509c53a2dab9500431201d82b0d756e8f890fd01f4ae6b33b45687ea4906105ec9085908590859061151b565b6000610e13826001600160a01b031660009081526003602052604090205460ff16151560011490565b610f616111af565b6001600160a01b03841660009081526001602090815260408083206001600160e01b03198716845290915290819020805460ff19169055517f37ea10f2d08f5a9803dfcd5abf3cfc7b0d6fcdf5fcbc36be9ea5a0b53d9a4d9b90610a2690869086908690869061169b565b6040805180820190915260168152757472616e7366657228616464726573732c75696e742960501b602090910152611024837f6cb927d8770b2b9c4fe615474f966e28a580a7dd1fffeaa06990257cebfe1e7b6108ae565b604080518082019091526015815274617070726f766528616464726573732c75696e742960581b6020909101526108c0837f086c40f692cc9c13988b9e49a7610f67375e8373bfe7653911770b351c2b1c546108ae565b6110836111af565b6001600160a01b0381166110e85760405162461bcd60e51b815260206004820152602660248201527f4f776e61626c653a206e6577206f776e657220697320746865207a65726f206160448201526564647265737360d01b60648201526084016106b2565b6110f181611209565b50565b6110fc6111af565b6001600160a01b03831660009081526002602052604090819020805460ff19169055517f9ca3f065622f5f03f32b7157677a0e420c3a36ab45fd49f256ffebce3e310587906105ec9085908590859061151b565b6111586111af565b6001600160a01b03831660009081526003602052604090819020805460ff19166001179055517fa8f9caaf4861720900294428e4ff34d37070c37afd26d96e6e4da75326d2c3ad906105ec9085908590859061151b565b6000546001600160a01b03163314610d215760405162461bcd60e51b815260206004820181905260248201527f4f776e61626c653a2063616c6c6572206973206e6f7420746865206f776e657260448201526064016106b2565b600080546001600160a01b038381166001600160a01b0319831681178455604051919092169283917f8be0079c531659141344cd1fd0a4f28419497f9722a3daafe3b4186f6b6457e09190a35050565b6001600160a01b03811681146110f157600080fd5b60008083601f84011261128057600080fd5b50813567ffffffffffffffff81111561129857600080fd5b6020830191508360208285010111156112b057600080fd5b9250929050565b6000806000604084860312156112cc57600080fd5b83356112d781611259565b9250602084013567ffffffffffffffff8111156112f357600080fd5b6112ff8682870161126e565b9497909650939450505050565b60006020828403121561131e57600080fd5b813561132981611259565b9392505050565b634e487b7160e01b600052604160045260246000fd5b604051601f8201601f1916810167ffffffffffffffff8111828210171561136f5761136f611330565b604052919050565b6000602080838503121561138a57600080fd5b823567ffffffffffffffff808211156113a257600080fd5b818501915085601f8301126113b657600080fd5b8135818111156113c8576113c8611330565b6113da601f8201601f19168501611346565b915080825286848285010111156113f057600080fd5b8084840185840137600090820190930192909252509392505050565b80356001600160e01b03198116811461142457600080fd5b919050565b6000806000806060858703121561143f57600080fd5b843561144a81611259565b93506114586020860161140c565b9250604085013567ffffffffffffffff81111561147457600080fd5b6114808782880161126e565b95989497509550505050565b600080600080606085870312156114a257600080fd5b84356114ad81611259565b9350602085013561145881611259565b600080604083850312156114d057600080fd5b82356114db81611259565b91506114e96020840161140c565b90509250929050565b81835281816020850137506000828201602090810191909152601f909101601f19169091010190565b6001600160a01b038416815260406020820181905260009061154090830184866114f2565b95945050505050565b805161142481611259565b600080600080600060a0868803121561156c57600080fd5b855194506020808701519450604087015167ffffffffffffffff8082111561159357600080fd5b818901915089601f8301126115a757600080fd5b8151818111156115b9576115b9611330565b8060051b91506115ca848301611346565b818152918301840191848101908c8411156115e457600080fd5b938501935b8385101561160e57845192506115fe83611259565b82825293850193908501906115e9565b80985050505050505061162360608701611549565b9150608086015190509295509295909350565b634e487b7160e01b600052603260045260246000fd5b81810381811115610e1357634e487b7160e01b600052601160045260246000fd5b6000806040838503121561168057600080fd5b825161168b81611259565b6020939093015192949293505050565b6001600160a01b03851681526001600160e01b0319841660208201526060604082018190526000906116d090830184866114f2565b9695505050505050565b600080858511156116ea57600080fd5b838611156116f757600080fd5b5050820193919092039150565b6001600160e01b0319813581811691600485101561172c5780818660040360031b1b83161692505b50509291505056fe73776170546f6b656e73466f724578616374546f6b656e732875696e742c75696e742c616464726573735b5d2c616464726573732c75696e7429a26469706673582212202acea1d1b546c0080843bce1a4b7cf7209cce70fdaec51736ec39a70be94bd6564736f6c63430008130033","linkReferences":{}},"methodIdentifiers":{"assetManager()":"94217ad1","getWithdrawAddress()":"e8e7f800","guard()":"7ceab3b1","owner()":"8da5cb5b","performCall(address,bytes)":"d2f73e3d","renounceOwnership()":"715018a6","resetGuard(address)":"d1357336","transferOwnership(address)":"f2fde38b","updateAssetManager(address,string)":"4a0e159d","withdrawAddress()":"1581b600"},"id":20}