{"abi":[{"type":"constructor","inputs":[{"name":"_assetManager","type":"address","internalType":"address"}],"stateMutability":"nonpayable"},{"type":"function","name":"assetManager","inputs":[],"outputs":[{"name":"","type":"address","internalType":"address"}],"stateMutability":"view"},{"type":"function","name":"delegate","inputs":[{"name":"vault","type":"address","internalType":"address"},{"name":"data","type":"tuple","internalType":"struct VaultTypes.VaultDelegate","components":[{"name":"brokerHash","type":"bytes32","internalType":"bytes32"},{"name":"delegateSigner","type":"address","internalType":"address"}]}],"outputs":[],"stateMutability":"nonpayable"},{"type":"function","name":"getWithdrawAddress","inputs":[],"outputs":[{"name":"","type":"address","internalType":"address"}],"stateMutability":"view"},{"type":"function","name":"guard","inputs":[],"outputs":[{"name":"","type":"address","internalType":"contract GuardV0"}],"stateMutability":"view"},{"type":"function","name":"initialiseOwnership","inputs":[{"name":"_owner","type":"address","internalType":"address"}],"outputs":[],"stateMutability":"nonpayable"},{"type":"function","name":"isDisabled","inputs":[],"outputs":[{"name":"","type":"bool","internalType":"bool"}],"stateMutability":"view"},{"type":"function","name":"owner","inputs":[],"outputs":[{"name":"","type":"address","internalType":"address"}],"stateMutability":"view"},{"type":"function","name":"performCall","inputs":[{"name":"target","type":"address","internalType":"address"},{"name":"callData","type":"bytes","internalType":"bytes"}],"outputs":[],"stateMutability":"nonpayable"},{"type":"function","name":"renounceOwnership","inputs":[],"outputs":[],"stateMutability":"nonpayable"},{"type":"function","name":"resetGuard","inputs":[{"name":"_guard","type":"address","internalType":"contract GuardV0"}],"outputs":[],"stateMutability":"nonpayable"},{"type":"function","name":"transferOwnership","inputs":[{"name":"newOwner","type":"address","internalType":"address"}],"outputs":[],"stateMutability":"nonpayable"},{"type":"function","name":"updateAssetManager","inputs":[{"name":"_assetManager","type":"address","internalType":"address"},{"name":"notes","type":"string","internalType":"string"}],"outputs":[],"stateMutability":"nonpayable"},{"type":"function","name":"withdrawAddress","inputs":[],"outputs":[{"name":"","type":"address","internalType":"address"}],"stateMutability":"view"},{"type":"event","name":"OwnershipTransferred","inputs":[{"name":"previousOwner","type":"address","indexed":true,"internalType":"address"},{"name":"newOwner","type":"address","indexed":true,"internalType":"address"}],"anonymous":false}],"bytecode":{"object":"0x608060405234801561000f575f80fd5b506040516150ca3803806150ca83398101604081905261002e9161016d565b61003733610111565b60405161004390610160565b604051809103905ff08015801561005c573d5f803e3d5ffd5b50600380546001600160a01b039283166001600160a01b0319918216811790925560018054938516939091168317905560408051631f458b3960e31b815260048101939093526024830152601960448301527f496e697469616c206173736574206d616e61676572207365740000000000000060648301529063fa2c59c8906084015f604051808303815f87803b1580156100f5575f80fd5b505af1158015610107573d5f803e3d5ffd5b505050505061019a565b5f80546001600160a01b038381166001600160a01b0319831681178455604051919092169283917f8be0079c531659141344cd1fd0a4f28419497f9722a3daafe3b4186f6b6457e09190a35050565b61460c80610abe83390190565b5f6020828403121561017d575f80fd5b81516001600160a01b0381168114610193575f80fd5b9392505050565b610917806101a75f395ff3fe608060405234801561000f575f80fd5b50600436106100da575f3560e01c80637ceab3b111610088578063d135733611610063578063d1357336146101a4578063d2f73e3d146101b7578063e8e7f80014610181578063f2fde38b146101ca575f80fd5b80637ceab3b11461016e5780638da5cb5b1461018157806394217ad114610191575f80fd5b80634a0e159d116100b85780634a0e159d146101365780636c57f5a914610149578063715018a614610166575f80fd5b80631581b600146100de57806337cfecf21461010e57806345e49f0214610123575b5f80fd5b6002546100f1906001600160a01b031681565b6040516001600160a01b0390911681526020015b60405180910390f35b61012161011c366004610727565b6101dd565b005b610121610131366004610749565b610376565b6101216101443660046107cc565b6103d3565b6001546040516001600160a01b0390911615158152602001610105565b6101216104dc565b6003546100f1906001600160a01b031681565b5f546001600160a01b03166100f1565b6001546100f1906001600160a01b031681565b6101216101b2366004610727565b6104ef565b6101216101c53660046107cc565b610519565b6101216101d8366004610727565b6105f0565b6101e561066b565b60035460408051632d670ec960e11b81526001600160a01b0384811660048301526024820192909252601a60448201527f496e697469616c206f776e65722063616e2077697468647261770000000000006064820152911690635ace1d92906084015f604051808303815f87803b15801561025e575f80fd5b505af1158015610270573d5f803e3d5ffd5b5050600354604080516372e548a960e01b81523060048201526024810191909152602560448201527f5661756c742063616e207265636569766520746f6b656e732066726f6d206120606482015264747261646560d81b60848201526001600160a01b0390911692506372e548a9915060a4015f604051808303815f87803b1580156102fa575f80fd5b505af115801561030c573d5f803e3d5ffd5b505060035460405163f2fde38b60e01b81526001600160a01b038581166004830152909116925063f2fde38b91506024015f604051808303815f87803b158015610354575f80fd5b505af1158015610366573d5f803e3d5ffd5b50505050610373816105f0565b50565b604051632df4869b60e01b81526001600160a01b03831690632df4869b906103a290849060040161081d565b5f604051808303815f87803b1580156103b9575f80fd5b505af11580156103cb573d5f803e3d5ffd5b505050505050565b6103db61066b565b6001546001600160a01b0316156104525760035460015460405163299f87d560e21b81526001600160a01b039283169263a67e1f54926104249291169086908690600401610871565b5f604051808303815f87803b15801561043b575f80fd5b505af115801561044d573d5f803e3d5ffd5b505050505b600180546001600160a01b0319166001600160a01b038516908117909155156104d757600354604051631f458b3960e31b81526001600160a01b039091169063fa2c59c8906104a990869086908690600401610871565b5f604051808303815f87803b1580156104c0575f80fd5b505af11580156104d2573d5f803e3d5ffd5b505050505b505050565b6104e461066b565b6104ed5f6106c4565b565b6104f761066b565b600380546001600160a01b0319166001600160a01b0392909216919091179055565b600354604051636d5025f160e01b81526001600160a01b0390911690636d5025f19061054f90339087908790879060040161089c565b5f6040518083038186803b158015610565575f80fd5b505afa158015610577573d5f803e3d5ffd5b505050505f80846001600160a01b031684846040516105979291906108d2565b5f604051808303815f865af19150503d805f81146105d0576040519150601f19603f3d011682016040523d82523d5f602084013e6105d5565b606091505b5091509150816105e9578051602082018181fd5b5050505050565b6105f861066b565b6001600160a01b0381166106625760405162461bcd60e51b815260206004820152602660248201527f4f776e61626c653a206e6577206f776e657220697320746865207a65726f206160448201526564647265737360d01b60648201526084015b60405180910390fd5b610373816106c4565b5f546001600160a01b031633146104ed5760405162461bcd60e51b815260206004820181905260248201527f4f776e61626c653a2063616c6c6572206973206e6f7420746865206f776e65726044820152606401610659565b5f80546001600160a01b038381166001600160a01b0319831681178455604051919092169283917f8be0079c531659141344cd1fd0a4f28419497f9722a3daafe3b4186f6b6457e09190a35050565b6001600160a01b0381168114610373575f80fd5b5f60208284031215610737575f80fd5b813561074281610713565b9392505050565b5f80828403606081121561075b575f80fd5b833561076681610713565b92506040601f1982011215610779575f80fd5b506020830190509250929050565b5f8083601f840112610797575f80fd5b50813567ffffffffffffffff8111156107ae575f80fd5b6020830191508360208285010111156107c5575f80fd5b9250929050565b5f805f604084860312156107de575f80fd5b83356107e981610713565b9250602084013567ffffffffffffffff811115610804575f80fd5b61081086828701610787565b9497909650939450505050565b8135815260408101602083013561083381610713565b6001600160a01b03811660208401525092915050565b81835281816020850137505f828201602090810191909152601f909101601f19169091010190565b6001600160a01b0384168152604060208201525f610893604083018486610849565b95945050505050565b5f6001600160a01b038087168352808616602084015250606060408301526108c8606083018486610849565b9695505050505050565b818382375f910190815291905056fea264697066735822122067aa759cdf4047ca2c2710a3f8498200e68879e259a8fbd75c09ee84332f65e864736f6c63430008170033608060405234801562000010575f80fd5b506200001c3362000022565b6200007b565b600a80546001600160a01b03838116610100818102610100600160a81b031985161790945560405193909204169182907f8be0079c531659141344cd1fd0a4f28419497f9722a3daafe3b4186f6b6457e0905f90a35050565b61458380620000895f395ff3fe608060405234801561000f575f80fd5b506004361061040c575f3560e01c806386b6dbe511610221578063ca963c501161012a578063f20e85e0116100b4578063f76081e411610084578063f76081e414610a3f578063f901dc3314610a52578063fa2c59c814610a65578063fadbcf4814610a78578063fdedfa2714610a9a575f80fd5b8063f20e85e014610a06578063f259a07314610410578063f26749f314610a19578063f2fde38b14610a2c575f80fd5b8063e98539c5116100fa578063e98539c51461097b578063eb0de0421461098e578063ebe26816146109b0578063ee5462cc146109c3578063efb47bff146109d6575f80fd5b8063ca963c501461061c578063d075f9bb14610925578063d4c0fe4514610955578063d7334c9d14610968575f80fd5b8063a67e1f54116101ab578063b8fe8d5f1161017b578063b8fe8d5f1461089a578063be8c97b0146108bc578063c2e657ae146108ec578063c4cc9dba146108ff578063c537bed014610912575f80fd5b8063a67e1f5414610833578063a847cf4d14610846578063a9fc3d4f14610870578063b3c329cb14610887575f80fd5b80638fb4dff2116101f15780638fb4dff2146107b6578063957dc6c0146107d857806398b3cc39146107eb578063a1b6b430146107fe578063a4c1cccb14610811575f80fd5b806386b6dbe51461076d57806387301608146107805780638c2fdf9e1461078d5780638da5cb5b146107a0575f80fd5b80635e4ccace11610323578063715018a6116102ad578063761bcd9c1161027d578063761bcd9c146106f0578063780650861461070357806378addb48146107165780637ea446551461074757806386a6ae151461075a575f80fd5b8063715018a61461069857806372e548a9146106a057806373252494146106b3578063742bfc7e146106dd575f80fd5b80636ad11353116102f35780636ad113531461061c5780636d5025f11461062f5780636d9a1423146106425780636fd7fdef14610655578063713ebf3b14610685575f80fd5b80635e4ccace146105d05780635e6afe4d146105e357806363cc17f2146105f65780636a6d5cc814610609575f80fd5b80632dc32a61116103a4578063425f49d011610374578063425f49d0146105625780634b941268146105755780634b956bd81461059757806359b92be9146105aa5780635ace1d92146105bd575f80fd5b80632dc32a61146104ea57806334ec8d7e1461051a5780633cf200251461052d5780633ea355511461054f575f80fd5b80631c123e77116103df5780631c123e77146104825780631d49039c146104955780632c02cda0146104c55780632d12d788146104d7575f80fd5b806304a3ba251461041057806307ac35621461042557806307ef00cf146104385780631710a4f21461046f575b5f80fd5b61042361041e366004613a72565b610aa9565b005b610423610433366004613b81565b610b5b565b61045a610446366004613bbb565b60066020525f908152604090205460ff1681565b60405190151581526020015b60405180910390f35b61042361047d366004613b81565b610e9b565b610423610490366004613b81565b610f4b565b61045a6104a3366004613bbb565b6001600160a01b03165f9081526007602052604090205460ff16151560011490565b6104236104d3366004613bdd565b5050565b6104236104e5366004613a72565b611046565b61045a6104f8366004613bbb565b6001600160a01b03165f9081526008602052604090205460ff16151560011490565b610423610528366004613a72565b6110e6565b61045a61053b366004613bbb565b60056020525f908152604090205460ff1681565b61042361055d366004613a72565b611161565b610423610570366004613b81565b6111b7565b61045a610583366004613bbb565b60086020525f908152604090205460ff1681565b6104236105a5366004613b81565b6111d8565b6104236105b8366004613b81565b61127b565b6104236105cb366004613a72565b6112fc565b6104236105de366004613c46565b61139f565b6104236105f1366004613a72565b61148d565b610423610604366004613a72565b61167e565b610423610617366004613b81565b611721565b61042361062a366004613b81565b611809565b61042361063d366004613ca5565b61182b565b610423610650366004613a72565b61183d565b61045a610663366004613bbb565b6001600160a01b03165f9081526009602052604090205460ff16151560011490565b61045a610693366004613cd3565b611873565b6104236118a8565b6104236106ae366004613a72565b6118bb565b600a5461010090046001600160a01b03165b6040516001600160a01b039091168152602001610466565b6104236106eb366004613b81565b61195e565b6104236106fe366004613b81565b611a19565b610423610711366004613b81565b611b63565b61045a610724366004613bbb565b6001600160a01b03165f9081526001602081905260409091205460ff1615151490565b610423610755366004613b81565b611c22565b610423610768366004613a72565b611ca5565b61042361077b366004613a72565b611e22565b600a5461045a9060ff1681565b61042361079b366004613a72565b611ec5565b600a5461010090046001600160a01b03166106c5565b61045a6107c4366004613bbb565b60096020525f908152604090205460ff1681565b6104236107e6366004613b81565b611f65565b6104236107f9366004613a72565b612023565b61042361080c366004613b81565b6120c6565b61045a61081f366004613bbb565b60036020525f908152604090205460ff1681565b610423610841366004613a72565b612288565b61045a610854366004613cd3565b5f60208181529281526040808220909352908152205460ff1681565b61087960025481565b604051908152602001610466565b610423610895366004613bbb565b612328565b61045a6108a8366004613bbb565b60016020525f908152604090205460ff1681565b61045a6108ca366004613bbb565b6001600160a01b03165f9081526004602052604090205460ff16151560011490565b6104236108fa366004613d06565b61239d565b61042361090d366004613b81565b61242c565b61045a610920366004613bbb565b61254a565b61045a610933366004613bbb565b6001600160a01b03165f9081526005602052604090205460ff16151560011490565b610423610963366004613b81565b61257b565b610423610976366004613c46565b6125de565b610423610989366004613b81565b612693565b61045a61099c366004613bbb565b60076020525f908152604090205460ff1681565b6104236109be366004613b81565b612751565b6104236109d1366004613a72565b612804565b61045a6109e4366004613bbb565b6001600160a01b03165f9081526006602052604090205460ff16151560011490565b610423610a14366004613a72565b61280f565b610423610a27366004613ca5565b612865565b610423610a3a366004613bbb565b6128da565b610423610a4d366004613b81565b612950565b610423610a60366004613a72565b6129cb565b610423610a73366004613a72565b612a6b565b61045a610a86366004613bbb565b60046020525f908152604090205460ff1681565b60405160018152602001610466565b600a546001600160a01b03610100909104163314610afb5760405162461bcd60e51b815260206004820181905260248201525f8051602061443583398151915260448201526064015b60405180910390fd5b6001600160a01b0383165f9081526007602052604090819020805460ff19169055517fb71be9befd3ac90c1c9981d3b1161b3c2c6dcd741f13b34061aa251226a802df90610b4e90859085908590613d4f565b60405180910390a1505050565b5f81806020019051810190610b709190613e01565b90505f5b8151811015610e96575f828281518110610b9057610b90613eab565b602002602001015190505f610bb15f600484612b0e9092919063ffffffff16565b610bba90613ebf565b90505f610bd76004808551610bcf9190613f0a565b859190612b0e565b6040805180820190915260208082527f7472616e736665724552433230496e28616464726573732c75696e74323536299101529050631dac092b60e11b6001600160e01b0319831601610c3257610c2d8161127b565b610e8b565b60408051808201909152601b81527f7472616e736665724552433230416c6c496e2861646472657373290000000000602090910152635cf59cb760e11b6001600160e01b0319831601610c8857610c2d81611c22565b60408051808201909152601881527f6465706f73697428616464726573732c6164647265737329000000000000000060209091015262d3ec1f60e31b6001600160e01b0319831601610cdd57610c2d8161242c565b60408051808201909152601981527f776974686472617728616464726573732c6164647265737329000000000000006020909101526306bf1c7b60e01b6001600160e01b0319831601610d3357610c2d81612950565b610d5a6040518060600160405280602781526020016144f360279139805160209091012090565b6001600160e01b031916826001600160e01b03191603610d7d57610c2d81611809565b610da46040518060600160405280602881526020016144cb60289139805160209091012090565b6001600160e01b031916826001600160e01b03191603610dc757610c2d81611809565b60408051808201909152601e81527f666c61736853776170416c6c4f75742875696e743235362c627974657329000060209091015263d2b3d16560e01b6001600160e01b0319831601610e1d57610c2d816111b7565b60405162461bcd60e51b815260206004820152603360248201527f76616c69646174655f3164656c74614d756c746963616c6c3a20556e6b6e6f7760448201527f6e2066756e6374696f6e2073656c6563746f72000000000000000000000000006064820152608401610af2565b505050600101610b74565b505050565b5f81806020019051810190610eb09190613f28565b509050610ed9816001600160a01b03165f9081526006602052604090205460ff16151560011490565b6104d35760405162461bcd60e51b815260206004820152603c60248201527f76616c69646174655f7472616e736665723a205265636569766572206164647260448201527f657373206e6f742077686974656c6973746564206279204775617264000000006064820152608401610af2565b5f805b610f5783612c70565b5092509050610f658261254a565b610fc25760405162461bcd60e51b815260206004820152602860248201527f76616c6964617465556e69737761705633506174683a20546f6b656e206e6f7460448201526708185b1b1bddd95960c21b6064820152608401610af2565b610fcb8161254a565b6110285760405162461bcd60e51b815260206004820152602860248201527f76616c6964617465556e69737761705633506174683a20546f6b656e206e6f7460448201526708185b1b1bddd95960c21b6064820152608401610af2565b61103183612cab565b15610e965761103f83612ce4565b9250610f4e565b600a546001600160a01b036101009091041633146110935760405162461bcd60e51b815260206004820181905260248201525f805160206144358339815191526044820152606401610af2565b6001600160a01b0383165f9081526005602052604090819020805460ff19169055517f4e13b11ab98e672bd78295ef9cebe764dc617f95decf47d842c25b83abc0c72490610b4e90859085908590613d4f565b6111188361111160405180606001604052806033815260200161449860339139805160209091012090565b848461139f565b6111438361111160405180606001604052806034815260200161451a60349139805160209091012090565b6111568363b858183f60e01b848461139f565b610e96838383612023565b61118c8361111160405180608001604052806043815260200161434b60439139805160209091012090565b6111568361111160405180608001604052806060815260200161438e60609139805160209091012090565b5f818060200190518101906111cc9190613f54565b9150506104d3816120c6565b5f818060200190518101906111ed9190613f28565b509050611216816001600160a01b03165f9081526007602052604090205460ff16151560011490565b6104d35760405162461bcd60e51b815260206004820152603060248201527f76616c69646174655f617070726f76653a20417070726f76652061646472657360448201526f0e640c8decae640dcdee840dac2e8c6d60831b6064820152608401610af2565b5f818060200190518101906112909190613f28565b50905061129c8161254a565b6104d35760405162461bcd60e51b815260206004820152602b60248201527f76616c69646174655f7472616e736665724552433230496e3a20546f6b656e2060448201526a1b9bdd08185b1b1bddd95960aa1b6064820152608401610af2565b600a546001600160a01b036101009091041633146113495760405162461bcd60e51b815260206004820181905260248201525f805160206144358339815191526044820152606401610af2565b6001600160a01b0383165f9081526006602052604090819020805460ff19166001179055517f3562181221a42a19ddd03a82dfe06acab1905ceb65cdaf7d86a1d9fec664355290610b4e90859085908590613d4f565b600a546001600160a01b036101009091041633146113ec5760405162461bcd60e51b815260206004820181905260248201525f805160206144358339815191526044820152606401610af2565b6001600160a01b0384165f818152602081815260408083206001600160e01b03198816845282528083208054600160ff199182168117909255948452918290528220805490931617909155600280549161144583613f8e565b91905055507fef729aaa41b9fd994f9ff7c1960df214a84f722002e6cfbea31799cd0873a3ef8484848460405161147f9493929190613fa6565b60405180910390a150505050565b600a546001600160a01b036101009091041633146114da5760405162461bcd60e51b815260206004820181905260248201525f805160206144358339815191526044820152606401610af2565b6001600160a01b0383165f90815260096020908152604091829020805460ff191660011790558151808301909252600f82526e736574746c654465706f736974282960881b91015261154c837f559ec80da0b29925dac0e329ba0aaf8bbf2760bcaf9174e4ca42e01d74c0e6d0611111565b60408051808201909152600e81526d736574746c6552656465656d282960901b60209091015261159c837fa03d55e3f74b6754c01f274bb12d9c8a11ea8330b6b4ce7125c8dff1f63646ca611111565b604080518082019091526016815275736574746c654465706f7369742875696e743235362960501b6020909101526115f4837fd24ca58a10c001ae46e533b96327657c0a386bc41cac6e2db77fab9c775540b5611111565b604080518082019091526015815274736574746c6552656465656d2875696e743235362960581b60209091015261164b837fa627df6689990c734a41da64c298fd0d8c7cc1757a97e2f817ed479cf45d135d611111565b7ffaa136302ac223cf7c1146490a741e4520e886fc22d7e759641453f432283d01838383604051610b4e93929190613d4f565b600a546001600160a01b036101009091041633146116cb5760405162461bcd60e51b815260206004820181905260248201525f805160206144358339815191526044820152606401610af2565b6001600160a01b0383165f9081526008602052604090819020805460ff19166001179055517f628a44970c0e450415e3ae74334ea44f3307b74dbf677a1371190242bf2f358990610b4e90859085908590613d4f565b5f80828060200190518101906117379190613fe1565b92505091506117458261254a565b6117855760405162461bcd60e51b8152602060048201526011602482015270151bdad95b881b9bdd08185b1b1bddd959607a1b6044820152606401610af2565b6117ab816001600160a01b03165f9081526005602052604090205460ff16151560011490565b610e965760405162461bcd60e51b815260206004820152602960248201527f52656365697665722061646472657373206e6f742077686974656c697374656460448201526808189e4811dd585c9960ba1b6064820152608401610af2565b5f8180602001905181019061181e9190614021565b925050506104d3816120c6565b61183784848484612d15565b50505050565b6118688361111160405180606001604052806022815260200161447660229139805160209091012090565b610e96838383611e22565b6001600160a01b0382165f908152602081815260408083206001600160e01b03198516845290915290205460ff165b92915050565b6118b061371f565b6118b95f61376c565b565b600a546001600160a01b036101009091041633146119085760405162461bcd60e51b815260206004820181905260248201525f805160206144358339815191526044820152606401610af2565b6001600160a01b0383165f9081526005602052604090819020805460ff19166001179055517f62dd88c5ecfa60713a657640ebec4de26fc1aefa4afdb24e6d15a124fce7277990610b4e90859085908590613d4f565b5f81806020019051810190611973919061406d565b5091505061199d816001600160a01b03165f9081526005602052604090205460ff16151560011490565b6104d35760405162461bcd60e51b815260206004820152604160248201527f76616c69646174655f4552433436323652656465656d3a20526563656976657260448201527f2061646472657373206e6f742077686974656c697374656420627920477561726064820152601960fa1b608482015260a401610af2565b5f8082806020019051810190611a2f91906140a2565b50935093505050611a5c816001600160a01b03165f9081526005602052604090205460ff16151560011490565b611ae35760405162461bcd60e51b815260206004820152604c60248201527f76616c69646174655f737761704578616374546f6b656e73466f72546f6b656e60448201527f733a2052656365697665722061646472657373206e6f742077686974656c697360648201526b1d195908189e4811dd585c9960a21b608482015260a401610af2565b5f805b8351811015611b5c57838181518110611b0157611b01613eab565b60200260200101519150611b148261254a565b611b545760405162461bcd60e51b8152602060048201526011602482015270151bdad95b881b9bdd08185b1b1bddd959607a1b6044820152606401610af2565b600101611ae6565b5050505050565b5f81806020019051810190611b78919061406d565b50915050611ba2816001600160a01b03165f9081526005602052604090205460ff16151560011490565b6104d35760405162461bcd60e51b815260206004820152604560248201527f76616c69646174655f455243343632365769746864726177616c3a205265636560448201527f697665722061646472657373206e6f742077686974656c69737465642062792060648201526411dd585c9960da1b608482015260a401610af2565b5f81806020019051810190611c379190614165565b9050611c428161254a565b6104d35760405162461bcd60e51b815260206004820152602e60248201527f76616c69646174655f7472616e736665724552433230416c6c496e3a20546f6b60448201526d195b881b9bdd08185b1b1bddd95960921b6064820152608401610af2565b5f8390505f816001600160a01b03166338d52e0f6040518163ffffffff1660e01b8152600401602060405180830381865afa158015611ce6573d5f803e3d5ffd5b505050506040513d601f19601f82011682018060405250810190611d0a9190614165565b60408051808201909152601881527f6465706f7369742875696e743235362c61646472657373290000000000000000602090910152905084611d6f817f6e553f653991036c188afcef45e14f9ecb45269ff9c675358bbb3a2eeb78e03b5b878761139f565b611d9a86611d6860405180606001604052806021815260200161445560219139805160209091012090565b60408051808201909152601f81527f72656465656d2875696e743235362c616464726573732c616464726573732900602090910152611df9867fba087652ef750b77b3f3b86ecd8aac56de04fbc0d6751abdd0992cabce379054611d68565b611e04868686612023565b611e0f8186866137d2565b611e1a8286866137d2565b505050505050565b600a546001600160a01b03610100909104163314611e6f5760405162461bcd60e51b815260206004820181905260248201525f805160206144358339815191526044820152606401610af2565b6001600160a01b0383165f9081526003602052604090819020805460ff19166001179055517fad90e2570fc4fe9f7437be3188d5c791c6662892d31731992aa88f5c8762198390610b4e90859085908590613d4f565b600a546001600160a01b03610100909104163314611f125760405162461bcd60e51b815260206004820181905260248201525f805160206144358339815191526044820152606401610af2565b6001600160a01b0383165f9081526006602052604090819020805460ff19169055517f1212f8ddb39de8e1a339460c95752d61100723efeaa34ccd94bca94393f4093890610b4e90859085908590613d4f565b5f81806020019051810190611f7a9190613f28565b509050611fa3816001600160a01b03165f9081526008602052604090205460ff16151560011490565b6104d35760405162461bcd60e51b815260206004820152604560248201527f76616c69646174655f617070726f766544656c65676174696f6e3a204170707260448201527f6f76652064656c65676174696f6e206164647265737320646f6573206e6f74206064820152640dac2e8c6d60db1b608482015260a401610af2565b600a546001600160a01b036101009091041633146120705760405162461bcd60e51b815260206004820181905260248201525f805160206144358339815191526044820152606401610af2565b6001600160a01b0383165f9081526007602052604090819020805460ff19166001179055517f628a44970c0e450415e3ae74334ea44f3307b74dbf677a1371190242bf2f358990610b4e90859085908590613d4f565b5f805b6120d3835f61388b565b91506121026001806120e760036014614180565b6120f19190614180565b6120fb9190614180565b849061388b565b905061210d8261254a565b6121675760405162461bcd60e51b815260206004820152602560248201527f76616c69646174653164656c7461506174683a20546f6b656e206e6f7420616c6044820152641b1bddd95960da1b6064820152608401610af2565b6121708161254a565b6121ca5760405162461bcd60e51b815260206004820152602560248201527f76616c69646174653164656c7461506174683a20546f6b656e206e6f7420616c6044820152641b1bddd95960da1b6064820152608401610af2565b6001806121d960036014614180565b6121e39190614180565b6121ed9190614180565b60146001806121fd600384614180565b6122079190614180565b6122119190614180565b61221b9190614180565b6122259190614180565b835110610e965761228160018061223e60036014614180565b6122489190614180565b6122529190614180565b60018061226160036014614180565b61226b9190614180565b6122759190614180565b8551610bcf9190613f0a565b92506120c9565b600a546001600160a01b036101009091041633146122d55760405162461bcd60e51b815260206004820181905260248201525f805160206144358339815191526044820152606401610af2565b6001600160a01b0383165f9081526004602052604090819020805460ff19169055517f3097928509c53a2dab9500431201d82b0d756e8f890fd01f4ae6b33b45687ea490610b4e90859085908590613d4f565b61234e816001600160a01b03165f9081526009602052604090205460ff16151560011490565b61239a5760405162461bcd60e51b815260206004820152601160248201527f5661756c74206e6f7420616c6c6f7765640000000000000000000000000000006044820152606401610af2565b50565b600a546001600160a01b036101009091041633146123ea5760405162461bcd60e51b815260206004820181905260248201525f805160206144358339815191526044820152606401610af2565b600a805460ff19168415151790556040517f50454d9d0025a28a39cac5a4b3f3101d29b6e413fbb64f75fb42eb6837b0771890610b4e90859085908590614193565b5f808280602001905181019061244291906141ae565b9150915061244f8261254a565b6124b25760405162461bcd60e51b815260206004820152602e60248201527f76616c69646174655f7472616e736665724552433230416c6c496e3a20546f6b60448201526d195b881b9bdd08185b1b1bddd95960921b6064820152608401610af2565b6124d8816001600160a01b03165f9081526005602052604090205460ff16151560011490565b610e965760405162461bcd60e51b815260206004820152603b60248201527f76616c69646174655f6465706f7369743a20526563656976657220616464726560448201527f7373206e6f742077686974656c697374656420627920477561726400000000006064820152608401610af2565b600a545f9060ff16806118a25750506001600160a01b03165f9081526003602052604090205460ff16151560011490565b5f8180602001905181019061259091906141e6565b505050905061259e8161254a565b6104d35760405162461bcd60e51b8152602060048201526011602482015270151bdad95b881b9bdd08185b1b1bddd959607a1b6044820152606401610af2565b600a546001600160a01b0361010090910416331461262b5760405162461bcd60e51b815260206004820181905260248201525f805160206144358339815191526044820152606401610af2565b6001600160a01b0384165f908152602081815260408083206001600160e01b03198716845290915290819020805460ff19169055517f37ea10f2d08f5a9803dfcd5abf3cfc7b0d6fcdf5fcbc36be9ea5a0b53d9a4d9b9061147f908690869086908690613fa6565b5f818060200190518101906126a891906142c1565b90506126d481602001516001600160a01b03165f9081526005602052604090205460ff16151560011490565b6127465760405162461bcd60e51b815260206004820152603f60248201527f76616c69646174655f65786163744f75747075743a205265636569766572206160448201527f646472657373206e6f742077686974656c6973746564206279204775617264006064820152608401610af2565b80516104d390610f4b565b5f8180602001905181019061276691906142c1565b905061279281602001516001600160a01b03165f9081526005602052604090205460ff16151560011490565b6127465760405162461bcd60e51b815260206004820152603e60248201527f76616c69646174655f6578616374496e7075743a20526563656976657220616460448201527f6472657373206e6f742077686974656c697374656420627920477561726400006064820152608401610af2565b610e968383836137d2565b61283a836111116040518060600160405280602681526020016143ee60269139805160209091012090565b6111568361111160405180606001604052806021815260200161441460219139805160209091012090565b6040805180820190915260128152716d756c746963616c6c2862797465735b5d2960701b6020909101526128b9847fac9650d882acfa253cba1ed543b9ff47351da99c3bd00a89625e5cdb2099009c611111565b6128c4848383612023565b6128cf838383612023565b61183784838361167e565b6128e261371f565b6001600160a01b0381166129475760405162461bcd60e51b815260206004820152602660248201527f4f776e61626c653a206e6577206f776e657220697320746865207a65726f206160448201526564647265737360d01b6064820152608401610af2565b61239a8161376c565b5f808280602001905181019061296691906141ae565b915091506129738261254a565b6124b25760405162461bcd60e51b8152602060048201526024808201527f76616c69646174655f77697468647261773a20546f6b656e206e6f7420616c6c6044820152631bddd95960e21b6064820152608401610af2565b600a546001600160a01b03610100909104163314612a185760405162461bcd60e51b815260206004820181905260248201525f805160206144358339815191526044820152606401610af2565b6001600160a01b0383165f9081526003602052604090819020805460ff19169055517f9ca3f065622f5f03f32b7157677a0e420c3a36ab45fd49f256ffebce3e31058790610b4e90859085908590613d4f565b600a546001600160a01b03610100909104163314612ab85760405162461bcd60e51b815260206004820181905260248201525f805160206144358339815191526044820152606401610af2565b6001600160a01b0383165f9081526004602052604090819020805460ff19166001179055517fa8f9caaf4861720900294428e4ff34d37070c37afd26d96e6e4da75326d2c3ad90610b4e90859085908590613d4f565b606081612b1c81601f614180565b1015612b5b5760405162461bcd60e51b815260206004820152600e60248201526d736c6963655f6f766572666c6f7760901b6044820152606401610af2565b82612b668382614180565b1015612ba55760405162461bcd60e51b815260206004820152600e60248201526d736c6963655f6f766572666c6f7760901b6044820152606401610af2565b612baf8284614180565b84511015612bff5760405162461bcd60e51b815260206004820152601160248201527f736c6963655f6f75744f66426f756e64730000000000000000000000000000006044820152606401610af2565b606082158015612c1d5760405191505f825260208201604052612c67565b6040519150601f8416801560200281840101858101878315602002848b0101015b81831015612c56578051835260209283019201612c3e565b5050858452601f01601f1916604052505b50949350505050565b5f8080612c7d848261388b565b9250612c8a84601461395a565b9050612ca2612c9b60036014614180565b859061388b565b91509193909250565b5f612cb860036014614180565b6014612cc5600382614180565b612ccf9190614180565b612cd99190614180565b825110159050919050565b60606118a2612cf560036014614180565b612d0160036014614180565b8451612d0d9190613f0a565b849190612b0e565b600a546001600160a01b03858116610100909204161461183757612d55846001600160a01b03165f9081526004602052604090205460ff16151560011490565b612da15760405162461bcd60e51b815260206004820181905260248201527f76616c696461746543616c6c3a2053656e646572206e6f7420616c6c6f7765646044820152606401610af2565b5f612daf60048284866142f3565b612db89161431a565b9050365f612dc984600481886142f3565b600a5491935091505f9060ff168015612e225750604080518082019091526018815277617070726f766528616464726573732c75696e743235362960401b60209091015263095ea7b360e01b6001600160e01b03198516145b905080612f1357612e338785611873565b612f13576001600160a01b0387165f9081526001602081905260409091205460ff16151514612ea45760405162461bcd60e51b815260206004820181905260248201527f76616c696461746543616c6c3a20746172676574206e6f7420616c6c6f7765646044820152606401610af2565b612eae8785611873565b612f135760405162461bcd60e51b815260206004820152603060248201527f76616c696461746543616c6c3a2073656c6563746f72206e6f7420616c6c6f7760448201526f1959081bdb881d1a19481d185c99d95d60821b6064820152608401610af2565b612f3a60405180608001604052806043815260200161434b60439139805160209091012090565b6001600160e01b031916846001600160e01b03191603612f9757612f9283838080601f0160208091040260200160405190810160405280939291908181526020018383808284375f92019190915250611a1992505050565b613715565b612fbe60405180608001604052806060815260200161438e60609139805160209091012090565b6001600160e01b031916846001600160e01b0319160361301657612f9283838080601f0160208091040260200160405190810160405280939291908181526020018383808284375f92019190915250611a1992505050565b61303d60405180606001604052806033815260200161449860339139805160209091012090565b6001600160e01b031916846001600160e01b0319160361309557612f9283838080601f0160208091040260200160405190810160405280939291908181526020018383808284375f9201919091525061275192505050565b6001600160e01b0319841663b858183f60e01b0361313c57600a5460ff16612f925760405162461bcd60e51b815260206004820152604e60248201527f76616c696461746543616c6c3a2053776170526f75746572303220697320637560448201527f7272656e746c7920737570706f72746564206f6e6c79207769746820616e794160648201526d1cdcd95d081dda1a5d195b1a5cdd60921b608482015260a401610af2565b6040805180820190915260128152716d756c746963616c6c2862797465735b5d2960701b602090910152630a6d35e560e31b6001600160e01b03198516016131bc57612f9283838080601f0160208091040260200160405190810160405280939291908181526020018383808284375f92019190915250610b5b92505050565b60408051808201909152601981527f7472616e7366657228616464726573732c75696e7432353629000000000000006020909101526356fa634560e01b6001600160e01b031985160161324757612f9283838080601f0160208091040260200160405190810160405280939291908181526020018383808284375f92019190915250610e9b92505050565b604080518082019091526018815277617070726f766528616464726573732c75696e743235362960401b60209091015263f6a1584d60e01b6001600160e01b03198516016132cd57612f9283838080601f0160208091040260200160405190810160405280939291908181526020018383808284375f920191909152506111d892505050565b6132f460405180606001604052806022815260200161447660229139805160209091012090565b6001600160e01b031916846001600160e01b0319160361334c57612f9283838080601f0160208091040260200160405190810160405280939291908181526020018383808284375f92019190915250611f6592505050565b6133736040518060600160405280602681526020016143ee60269139805160209091012090565b6001600160e01b031916846001600160e01b031916036133cb57612f9283838080601f0160208091040260200160405190810160405280939291908181526020018383808284375f9201919091525061257b92505050565b6133f260405180606001604052806021815260200161441460219139805160209091012090565b6001600160e01b031916846001600160e01b0319160361344a57612f9283838080601f0160208091040260200160405190810160405280939291908181526020018383808284375f9201919091525061172192505050565b60408051808201909152600f81526e736574746c654465706f736974282960881b60209091015263aa6137f360e01b6001600160e01b031985160161349257612f9287612328565b60408051808201909152600e81526d736574746c6552656465656d282960901b602090910152635fc2aa1d60e01b6001600160e01b03198516016134d957612f9287612328565b604080518082019091526016815275736574746c654465706f7369742875696e743235362960501b6020909101526316d9ad3b60e11b6001600160e01b031985160161352857612f9287612328565b604080518082019091526015815274736574746c6552656465656d2875696e743235362960581b602090910152632cec104d60e11b6001600160e01b031985160161357657612f9287612328565b60408051808201909152601881527f6465706f7369742875696e743235362c61646472657373290000000000000000602090910152636e553f6560e01b6001600160e01b0319851614613715576135ea60405180606001604052806021815260200161445560219139805160209091012090565b6001600160e01b031916846001600160e01b0319160361364257612f9283838080601f0160208091040260200160405190810160405280939291908181526020018383808284375f92019190915250611b6392505050565b60408051808201909152601f81527f72656465656d2875696e743235362c616464726573732c6164647265737329006020909101526322fbc4d760e11b6001600160e01b03198516016136cd57612f9283838080601f0160208091040260200160405190810160405280939291908181526020018383808284375f9201919091525061195e92505050565b60405162461bcd60e51b815260206004820152601960248201527f556e6b6e6f776e2066756e6374696f6e2073656c6563746f72000000000000006044820152606401610af2565b5050505050505050565b600a546001600160a01b036101009091041633146118b95760405162461bcd60e51b815260206004820181905260248201525f805160206144358339815191526044820152606401610af2565b600a80546001600160a01b0383811661010081810274ffffffffffffffffffffffffffffffffffffffff001985161790945560405193909204169182907f8be0079c531659141344cd1fd0a4f28419497f9722a3daafe3b4186f6b6457e0905f90a35050565b60408051808201909152601981527f7472616e7366657228616464726573732c75696e743235362900000000000000602090910152613831837fa9059cbb2ab09eb219583f4a59a5d0623ade346d962bcd4e46b11da047c9049b611111565b604080518082019091526018815277617070726f766528616464726573732c75696e743235362960401b602090910152611868837f095ea7b334ae44009aa867bfb386f5c3b4b443ac6f0ee573fa91c4608fbadfba611111565b5f81613898816014614180565b10156138e65760405162461bcd60e51b815260206004820152601260248201527f746f416464726573735f6f766572666c6f7700000000000000000000000000006044820152606401610af2565b6138f1826014614180565b835110156139415760405162461bcd60e51b815260206004820152601560248201527f746f416464726573735f6f75744f66426f756e647300000000000000000000006044820152606401610af2565b5001602001516c01000000000000000000000000900490565b5f81613967816003614180565b10156139b55760405162461bcd60e51b815260206004820152601160248201527f746f55696e7432345f6f766572666c6f770000000000000000000000000000006044820152606401610af2565b6139c0826003614180565b83511015613a105760405162461bcd60e51b815260206004820152601460248201527f746f55696e7432345f6f75744f66426f756e64730000000000000000000000006044820152606401610af2565b50016003015190565b6001600160a01b038116811461239a575f80fd5b5f8083601f840112613a3d575f80fd5b50813567ffffffffffffffff811115613a54575f80fd5b602083019150836020828501011115613a6b575f80fd5b9250929050565b5f805f60408486031215613a84575f80fd5b8335613a8f81613a19565b9250602084013567ffffffffffffffff811115613aaa575f80fd5b613ab686828701613a2d565b9497909650939450505050565b634e487b7160e01b5f52604160045260245ffd5b604051601f8201601f1916810167ffffffffffffffff81118282101715613b0057613b00613ac3565b604052919050565b5f67ffffffffffffffff821115613b2157613b21613ac3565b50601f01601f191660200190565b5f82601f830112613b3e575f80fd5b8135613b51613b4c82613b08565b613ad7565b818152846020838601011115613b65575f80fd5b816020850160208301375f918101602001919091529392505050565b5f60208284031215613b91575f80fd5b813567ffffffffffffffff811115613ba7575f80fd5b613bb384828501613b2f565b949350505050565b5f60208284031215613bcb575f80fd5b8135613bd681613a19565b9392505050565b5f8060408385031215613bee575f80fd5b8235613bf981613a19565b9150602083013567ffffffffffffffff811115613c14575f80fd5b613c2085828601613b2f565b9150509250929050565b80356001600160e01b031981168114613c41575f80fd5b919050565b5f805f8060608587031215613c59575f80fd5b8435613c6481613a19565b9350613c7260208601613c2a565b9250604085013567ffffffffffffffff811115613c8d575f80fd5b613c9987828801613a2d565b95989497509550505050565b5f805f8060608587031215613cb8575f80fd5b8435613cc381613a19565b93506020850135613c7281613a19565b5f8060408385031215613ce4575f80fd5b8235613cef81613a19565b9150613cfd60208401613c2a565b90509250929050565b5f805f60408486031215613d18575f80fd5b83358015158114613a8f575f80fd5b81835281816020850137505f828201602090810191909152601f909101601f19169091010190565b6001600160a01b0384168152604060208201525f613d71604083018486613d27565b95945050505050565b5f67ffffffffffffffff821115613d9357613d93613ac3565b5060051b60200190565b5f82601f830112613dac575f80fd5b8151613dba613b4c82613b08565b8181526020856020848701011115613dd0575f80fd5b5f5b83811015613ded578581018201518382018301528101613dd2565b50505f918101602001919091529392505050565b5f6020808385031215613e12575f80fd5b825167ffffffffffffffff80821115613e29575f80fd5b818501915085601f830112613e3c575f80fd5b8151613e4a613b4c82613d7a565b81815260059190911b83018401908481019088831115613e68575f80fd5b8585015b83811015613e9e57805185811115613e82575f80fd5b613e908b89838a0101613d9d565b845250918601918601613e6c565b5098975050505050505050565b634e487b7160e01b5f52603260045260245ffd5b805160208201516001600160e01b03198082169291906004831015613eee5780818460040360031b1b83161693505b505050919050565b634e487b7160e01b5f52601160045260245ffd5b818103818111156118a2576118a2613ef6565b8051613c4181613a19565b5f8060408385031215613f39575f80fd5b8251613f4481613a19565b6020939093015192949293505050565b5f8060408385031215613f65575f80fd5b82519150602083015167ffffffffffffffff811115613f82575f80fd5b613c2085828601613d9d565b5f60018201613f9f57613f9f613ef6565b5060010190565b6001600160a01b038516815263ffffffff60e01b84166020820152606060408201525f613fd7606083018486613d27565b9695505050505050565b5f805f60608486031215613ff3575f80fd5b8351613ffe81613a19565b60208501516040860151919450925061401681613a19565b809150509250925092565b5f805f60608486031215614033575f80fd5b8351925060208401519150604084015167ffffffffffffffff811115614057575f80fd5b61406386828701613d9d565b9150509250925092565b5f805f6060848603121561407f575f80fd5b83519250602084015161409181613a19565b604085015190925061401681613a19565b5f805f805f60a086880312156140b6575f80fd5b855194506020808701519450604087015167ffffffffffffffff8111156140db575f80fd5b8701601f810189136140eb575f80fd5b80516140f9613b4c82613d7a565b81815260059190911b8201830190838101908b831115614117575f80fd5b928401925b8284101561413e57835161412f81613a19565b8252928401929084019061411c565b809750505050505061415260608701613f1d565b9150608086015190509295509295909350565b5f60208284031215614175575f80fd5b8151613bd681613a19565b808201808211156118a2576118a2613ef6565b8315158152604060208201525f613d71604083018486613d27565b5f80604083850312156141bf575f80fd5b82516141ca81613a19565b60208401519092506141db81613a19565b809150509250929050565b5f805f80608085870312156141f9575f80fd5b845161420481613a19565b60208601516040870151919550935061421c81613a19565b6060959095015193969295505050565b5f60a0828403121561423c575f80fd5b60405160a0810167ffffffffffffffff828210818311171561426057614260613ac3565b816040528293508451915080821115614277575f80fd5b5061428485828601613d9d565b825250602083015161429581613a19565b806020830152506040830151604082015260608301516060820152608083015160808201525092915050565b5f602082840312156142d1575f80fd5b815167ffffffffffffffff8111156142e7575f80fd5b613bb38482850161422c565b5f8085851115614301575f80fd5b8386111561430d575f80fd5b5050820193919092039150565b6001600160e01b031981358181169160048510156143425780818660040360031b1b83161692505b50509291505056fe737761704578616374546f6b656e73466f72546f6b656e732875696e743235362c75696e743235362c616464726573735b5d2c616464726573732c75696e7432353629737761704578616374546f6b656e73466f72546f6b656e73537570706f7274696e674665654f6e5472616e73666572546f6b656e732875696e743235362c75696e743235362c616464726573735b5d2c616464726573732c75696e7432353629737570706c7928616464726573732c75696e743235362c616464726573732c75696e74313629776974686472617728616464726573732c75696e743235362c61646472657373294f776e61626c653a2063616c6c6572206973206e6f7420746865206f776e657277697468647261772875696e743235362c616464726573732c6164647265737329617070726f766544656c65676174696f6e28616464726573732c75696e74323536296578616374496e707574282862797465732c616464726573732c75696e743235362c75696e743235362c75696e743235362929666c6173685377617045786163744f75742875696e743235362c75696e743235362c627974657329666c617368537761704578616374496e2875696e743235362c75696e743235362c62797465732965786163744f7574707574282862797465732c616464726573732c75696e743235362c75696e743235362c75696e743235362929a264697066735822122098ce4100cf565ad27e8ea6e86f6c1b9e5063a64cdca8cfddd8499764bb04e0b564736f6c63430008170033","linkReferences":{}},"methodIdentifiers":{"assetManager()":"94217ad1","delegate(address,(bytes32,address))":"45e49f02","getWithdrawAddress()":"e8e7f800","guard()":"7ceab3b1","initialiseOwnership(address)":"37cfecf2","isDisabled()":"6c57f5a9","owner()":"8da5cb5b","performCall(address,bytes)":"d2f73e3d","renounceOwnership()":"715018a6","resetGuard(address)":"d1357336","transferOwnership(address)":"f2fde38b","updateAssetManager(address,string)":"4a0e159d","withdrawAddress()":"1581b600"},"id":6}