{"abi":[{"type":"constructor","inputs":[{"name":"_assetManager","type":"address","internalType":"address"}],"stateMutability":"nonpayable"},{"type":"function","name":"assetManager","inputs":[],"outputs":[{"name":"","type":"address","internalType":"address"}],"stateMutability":"view"},{"type":"function","name":"getWithdrawAddress","inputs":[],"outputs":[{"name":"","type":"address","internalType":"address"}],"stateMutability":"view"},{"type":"function","name":"guard","inputs":[],"outputs":[{"name":"","type":"address","internalType":"contract GuardV0"}],"stateMutability":"view"},{"type":"function","name":"initialiseOwnership","inputs":[{"name":"_owner","type":"address","internalType":"address"}],"outputs":[],"stateMutability":"nonpayable"},{"type":"function","name":"owner","inputs":[],"outputs":[{"name":"","type":"address","internalType":"address"}],"stateMutability":"view"},{"type":"function","name":"performCall","inputs":[{"name":"target","type":"address","internalType":"address"},{"name":"callData","type":"bytes","internalType":"bytes"}],"outputs":[],"stateMutability":"nonpayable"},{"type":"function","name":"renounceOwnership","inputs":[],"outputs":[],"stateMutability":"nonpayable"},{"type":"function","name":"resetGuard","inputs":[{"name":"_guard","type":"address","internalType":"contract GuardV0"}],"outputs":[],"stateMutability":"nonpayable"},{"type":"function","name":"transferOwnership","inputs":[{"name":"newOwner","type":"address","internalType":"address"}],"outputs":[],"stateMutability":"nonpayable"},{"type":"function","name":"updateAssetManager","inputs":[{"name":"_assetManager","type":"address","internalType":"address"},{"name":"notes","type":"string","internalType":"string"}],"outputs":[],"stateMutability":"nonpayable"},{"type":"function","name":"withdrawAddress","inputs":[],"outputs":[{"name":"","type":"address","internalType":"address"}],"stateMutability":"view"},{"type":"event","name":"OwnershipTransferred","inputs":[{"name":"previousOwner","type":"address","indexed":true,"internalType":"address"},{"name":"newOwner","type":"address","indexed":true,"internalType":"address"}],"anonymous":false}],"bytecode":{"object":"0x608060405234801561001057600080fd5b5060405161227738038061227783398101604081905261002f91610177565b6100383361011a565b6040516100449061016a565b604051809103906000f080158015610060573d6000803e3d6000fd5b50600380546001600160a01b039283166001600160a01b0319918216811790925560018054938516939091168317905560408051631f458b3960e31b815260048101939093526024830152601960448301527f496e697469616c206173736574206d616e61676572207365740000000000000060648301529063fa2c59c890608401600060405180830381600087803b1580156100fc57600080fd5b505af1158015610110573d6000803e3d6000fd5b50505050506101a7565b600080546001600160a01b038381166001600160a01b0319831681178455604051919092169283917f8be0079c531659141344cd1fd0a4f28419497f9722a3daafe3b4186f6b6457e09190a35050565b6118a8806109cf83390190565b60006020828403121561018957600080fd5b81516001600160a01b03811681146101a057600080fd5b9392505050565b610819806101b66000396000f3fe608060405234801561001057600080fd5b50600436106100a95760003560e01c80638da5cb5b116100715780638da5cb5b1461012057806394217ad114610131578063d135733614610144578063d2f73e3d14610157578063e8e7f80014610120578063f2fde38b1461016a57600080fd5b80631581b600146100ae57806337cfecf2146100dd5780634a0e159d146100f2578063715018a6146101055780637ceab3b11461010d575b600080fd5b6002546100c1906001600160a01b031681565b6040516001600160a01b03909116815260200160405180910390f35b6100f06100eb366004610683565b61017d565b005b6100f06101003660046106f0565b610325565b6100f061042b565b6003546100c1906001600160a01b031681565b6000546001600160a01b03166100c1565b6001546100c1906001600160a01b031681565b6100f0610152366004610683565b61043f565b6100f06101653660046106f0565b610469565b6100f0610178366004610683565b610549565b6101856105c4565b60035460408051632d670ec960e11b81526001600160a01b0384811660048301526024820192909252601a60448201527f496e697469616c206f776e65722063616e2077697468647261770000000000006064820152911690635ace1d9290608401600060405180830381600087803b15801561020157600080fd5b505af1158015610215573d6000803e3d6000fd5b5050600354604080516372e548a960e01b81523060048201526024810191909152602560448201527f5661756c742063616e207265636569766520746f6b656e732066726f6d206120606482015264747261646560d81b60848201526001600160a01b0390911692506372e548a9915060a401600060405180830381600087803b1580156102a257600080fd5b505af11580156102b6573d6000803e3d6000fd5b505060035460405163f2fde38b60e01b81526001600160a01b038581166004830152909116925063f2fde38b9150602401600060405180830381600087803b15801561030157600080fd5b505af1158015610315573d6000803e3d6000fd5b5050505061032281610549565b50565b61032d6105c4565b6001546001600160a01b0316156103a95760035460015460405163299f87d560e21b81526001600160a01b039283169263a67e1f5492610376929116908690869060040161076e565b600060405180830381600087803b15801561039057600080fd5b505af11580156103a4573d6000803e3d6000fd5b505050505b600180546001600160a01b0319166001600160a01b0385811691909117909155600354604051631f458b3960e31b815291169063fa2c59c8906103f49086908690869060040161076e565b600060405180830381600087803b15801561040e57600080fd5b505af1158015610422573d6000803e3d6000fd5b50505050505050565b6104336105c4565b61043d600061061e565b565b6104476105c4565b600380546001600160a01b0319166001600160a01b0392909216919091179055565b600354604051636d5025f160e01b81526001600160a01b0390911690636d5025f19061049f90339087908790879060040161079c565b60006040518083038186803b1580156104b757600080fd5b505afa1580156104cb573d6000803e3d6000fd5b50505050600080846001600160a01b031684846040516104ec9291906107d3565b6000604051808303816000865af19150503d8060008114610529576040519150601f19603f3d011682016040523d82523d6000602084013e61052e565b606091505b509150915081610542578051602082018181fd5b5050505050565b6105516105c4565b6001600160a01b0381166105bb5760405162461bcd60e51b815260206004820152602660248201527f4f776e61626c653a206e6577206f776e657220697320746865207a65726f206160448201526564647265737360d01b60648201526084015b60405180910390fd5b6103228161061e565b6000546001600160a01b0316331461043d5760405162461bcd60e51b815260206004820181905260248201527f4f776e61626c653a2063616c6c6572206973206e6f7420746865206f776e657260448201526064016105b2565b600080546001600160a01b038381166001600160a01b0319831681178455604051919092169283917f8be0079c531659141344cd1fd0a4f28419497f9722a3daafe3b4186f6b6457e09190a35050565b6001600160a01b038116811461032257600080fd5b60006020828403121561069557600080fd5b81356106a08161066e565b9392505050565b60008083601f8401126106b957600080fd5b50813567ffffffffffffffff8111156106d157600080fd5b6020830191508360208285010111156106e957600080fd5b9250929050565b60008060006040848603121561070557600080fd5b83356107108161066e565b9250602084013567ffffffffffffffff81111561072c57600080fd5b610738868287016106a7565b9497909650939450505050565b81835281816020850137506000828201602090810191909152601f909101601f19169091010190565b6001600160a01b03841681526040602082018190526000906107939083018486610745565b95945050505050565b6001600160a01b038581168252841660208201526060604082018190526000906107c99083018486610745565b9695505050505050565b818382376000910190815291905056fea2646970667358221220f6c5991fe73b7d51d864a6fe661a5eb7d3627c9da99e460511fe7e21a020cedc64736f6c63430008130033608060405234801561001057600080fd5b5061001a3361001f565b61006f565b600080546001600160a01b038381166001600160a01b0319831681178455604051919092169283917f8be0079c531659141344cd1fd0a4f28419497f9722a3daafe3b4186f6b6457e09190a35050565b61182a8061007e6000396000f3fe608060405234801561001057600080fd5b50600436106102115760003560e01c80638c2fdf9e11610125578063d075f9bb116100ad578063efb47bff1161007c578063efb47bff14610543578063f2fde38b14610574578063f901dc3314610587578063fa2c59c81461059a578063fadbcf48146105ad57600080fd5b8063d075f9bb146104c9578063d7334c9d146104fa578063eb0de0421461050d578063ee5462cc1461053057600080fd5b8063a67e1f54116100f4578063a67e1f541461040f578063a847cf4d14610422578063a9fc3d4f14610450578063be8c97b014610467578063c537bed01461049857600080fd5b80638c2fdf9e146103b55780638da5cb5b146103c857806398b3cc39146103d9578063a4c1cccb146103ec57600080fd5b80634b956bd8116101a8578063713ebf3b11610177578063713ebf3b1461034f578063715018a61461036257806372e548a91461036a578063732524941461037d57806386b6dbe5146103a257600080fd5b80634b956bd8146103035780635ace1d92146103165780635e4ccace146103295780636d5025f11461033c57600080fd5b80631d49039c116101e45780631d49039c146102895780632d12d788146102ba5780633cf20025146102cd5780633ea35551146102f057600080fd5b806304a3ba251461021657806307ef00cf1461022b5780631202f5e5146102635780631710a4f214610276575b600080fd5b610229610224366004611313565b6105d0565b005b61024e610239366004611368565b60066020526000908152604090205460ff1681565b60405190151581526020015b60405180910390f35b6102296102713660046113d3565b610639565b6102296102843660046113d3565b6107f5565b61024e610297366004611368565b6001600160a01b031660009081526007602052604090205460ff16151560011490565b6102296102c8366004611313565b610885565b61024e6102db366004611368565b60056020526000908152604090205460ff1681565b6102296102fe366004611313565b6108e1565b6102296103113660046113d3565b610923565b610229610324366004611313565b6109af565b610229610337366004611485565b610a0e565b61022961034a3660046114e8565b610aa4565b61024e61035d366004611519565b610d83565b610229610dbb565b610229610378366004611313565b610dcf565b6000546001600160a01b03165b6040516001600160a01b03909116815260200161025a565b6102296103b0366004611313565b610e2e565b6102296103c3366004611313565b610e8d565b6000546001600160a01b031661038a565b6102296103e7366004611313565b610ee9565b61024e6103fa366004611368565b60036020526000908152604090205460ff1681565b61022961041d366004611313565b610f48565b61024e610430366004611519565b600160209081526000928352604080842090915290825290205460ff1681565b61045960025481565b60405190815260200161025a565b61024e610475366004611368565b6001600160a01b031660009081526004602052604090205460ff16151560011490565b61024e6104a6366004611368565b6001600160a01b031660009081526003602052604090205460ff16151560011490565b61024e6104d7366004611368565b6001600160a01b031660009081526005602052604090205460ff16151560011490565b610229610508366004611485565b610fa4565b61024e61051b366004611368565b60076020526000908152604090205460ff1681565b61022961053e366004611313565b611017565b61024e610551366004611368565b6001600160a01b031660009081526006602052604090205460ff16151560011490565b610229610582366004611368565b6110d7565b610229610595366004611313565b611150565b6102296105a8366004611313565b6111ac565b61024e6105bb366004611368565b60046020526000908152604090205460ff1681565b6105d861120b565b6001600160a01b03831660009081526007602052604090819020805460ff19169055517fb71be9befd3ac90c1c9981d3b1161b3c2c6dcd741f13b34061aa251226a802df9061062c90859085908590611577565b60405180910390a1505050565b6000808280602001905181019061065091906115b0565b5093509350505060008260008151811061066c5761066c611692565b602002602001015190506000836001855161068791906116be565b8151811061069757610697611692565b602002602001015190506106c8836001600160a01b031660009081526005602052604090205460ff16151560011490565b6107195760405162461bcd60e51b815260206004820152601f60248201527f5265636569766572206164647265737320646f6573206e6f74206d617463680060448201526064015b60405180910390fd5b610740826001600160a01b031660009081526003602052604090205460ff16151560011490565b6107835760405162461bcd60e51b8152602060048201526014602482015273151bdad95b881a5b881b9bdd08185b1b1bddd95960621b6044820152606401610710565b6107aa816001600160a01b031660009081526003602052604090205460ff16151560011490565b6107ee5760405162461bcd60e51b8152602060048201526015602482015274151bdad95b881bdd5d081b9bdd08185b1b1bddd959605a1b6044820152606401610710565b5050505050565b60008180602001905181019061080b91906116d1565b509050610835816001600160a01b031660009081526006602052604090205460ff16151560011490565b6108815760405162461bcd60e51b815260206004820152601f60248201527f5265636569766572206164647265737320646f6573206e6f74206d61746368006044820152606401610710565b5050565b61088d61120b565b6001600160a01b03831660009081526005602052604090819020805460ff19169055517f4e13b11ab98e672bd78295ef9cebe764dc617f95decf47d842c25b83abc0c7249061062c90859085908590611577565b6109138361090c6040518060800160405280604381526020016117b260439139805160209091012090565b8484610a0e565b61091e838383610ee9565b505050565b60008180602001905181019061093991906116d1565b509050610963816001600160a01b031660009081526007602052604090205460ff16151560011490565b6108815760405162461bcd60e51b815260206004820152601e60248201527f417070726f7665206164647265737320646f6573206e6f74206d6174636800006044820152606401610710565b6109b761120b565b6001600160a01b03831660009081526006602052604090819020805460ff19166001179055517f3562181221a42a19ddd03a82dfe06acab1905ceb65cdaf7d86a1d9fec66435529061062c90859085908590611577565b610a1661120b565b6001600160a01b03841660009081526001602081815260408084206001600160e01b0319881685529091528220805460ff191690911790556002805491610a5c836116ff565b91905055507fef729aaa41b9fd994f9ff7c1960df214a84f722002e6cfbea31799cd0873a3ef84848484604051610a969493929190611718565b60405180910390a150505050565b6000546001600160a01b03858116911614610d7d57610ae0846001600160a01b031660009081526004602052604090205460ff16151560011490565b610b215760405162461bcd60e51b815260206004820152601260248201527114d95b99195c881b9bdd08185b1b1bddd95960721b6044820152606401610710565b6000610b306004828486611757565b610b3991611781565b9050366000610b4b8460048188611757565b91509150610b598684610d83565b610b9d5760405162461bcd60e51b815260206004820152601560248201527410d85b1b081cda5d19481b9bdd08185b1b1bddd959605a1b6044820152606401610710565b610bc46040518060800160405280604381526020016117b260439139805160209091012090565b6001600160e01b031916836001600160e01b03191603610c2257610c1d82828080601f01602080910402602001604051908101604052809392919081815260200183838082843760009201919091525061063992505050565b610d79565b6040805180820190915260198152787472616e7366657228616464726573732c75696e743235362960381b6020909101526356fa634560e01b6001600160e01b0319841601610caa57610c1d82828080601f0160208091040260200160405190810160405280939291908181526020018383808284376000920191909152506107f592505050565b604080518082019091526018815277617070726f766528616464726573732c75696e743235362960401b60209091015263f6a1584d60e01b6001600160e01b0319841601610d3157610c1d82828080601f01602080910402602001604051908101604052809392919081815260200183838082843760009201919091525061092392505050565b60405162461bcd60e51b815260206004820152601960248201527f556e6b6e6f776e2066756e6374696f6e2073656c6563746f72000000000000006044820152606401610710565b5050505b50505050565b6001600160a01b03821660009081526001602090815260408083206001600160e01b03198516845290915290205460ff165b92915050565b610dc361120b565b610dcd6000611265565b565b610dd761120b565b6001600160a01b03831660009081526005602052604090819020805460ff19166001179055517f62dd88c5ecfa60713a657640ebec4de26fc1aefa4afdb24e6d15a124fce727799061062c90859085908590611577565b610e3661120b565b6001600160a01b03831660009081526003602052604090819020805460ff19166001179055517fad90e2570fc4fe9f7437be3188d5c791c6662892d31731992aa88f5c876219839061062c90859085908590611577565b610e9561120b565b6001600160a01b03831660009081526006602052604090819020805460ff19169055517f1212f8ddb39de8e1a339460c95752d61100723efeaa34ccd94bca94393f409389061062c90859085908590611577565b610ef161120b565b6001600160a01b03831660009081526007602052604090819020805460ff19166001179055517f628a44970c0e450415e3ae74334ea44f3307b74dbf677a1371190242bf2f35899061062c90859085908590611577565b610f5061120b565b6001600160a01b03831660009081526004602052604090819020805460ff19169055517f3097928509c53a2dab9500431201d82b0d756e8f890fd01f4ae6b33b45687ea49061062c90859085908590611577565b610fac61120b565b6001600160a01b03841660009081526001602090815260408083206001600160e01b03198716845290915290819020805460ff19169055517f37ea10f2d08f5a9803dfcd5abf3cfc7b0d6fcdf5fcbc36be9ea5a0b53d9a4d9b90610a96908690869086908690611718565b6040805180820190915260198152787472616e7366657228616464726573732c75696e743235362960381b602090910152611072837fa9059cbb2ab09eb219583f4a59a5d0623ade346d962bcd4e46b11da047c9049b61090c565b604080518082019091526018815277617070726f766528616464726573732c75696e743235362960401b6020909101526110cc837f095ea7b334ae44009aa867bfb386f5c3b4b443ac6f0ee573fa91c4608fbadfba61090c565b61091e838383610e2e565b6110df61120b565b6001600160a01b0381166111445760405162461bcd60e51b815260206004820152602660248201527f4f776e61626c653a206e6577206f776e657220697320746865207a65726f206160448201526564647265737360d01b6064820152608401610710565b61114d81611265565b50565b61115861120b565b6001600160a01b03831660009081526003602052604090819020805460ff19169055517f9ca3f065622f5f03f32b7157677a0e420c3a36ab45fd49f256ffebce3e3105879061062c90859085908590611577565b6111b461120b565b6001600160a01b03831660009081526004602052604090819020805460ff19166001179055517fa8f9caaf4861720900294428e4ff34d37070c37afd26d96e6e4da75326d2c3ad9061062c90859085908590611577565b6000546001600160a01b03163314610dcd5760405162461bcd60e51b815260206004820181905260248201527f4f776e61626c653a2063616c6c6572206973206e6f7420746865206f776e65726044820152606401610710565b600080546001600160a01b038381166001600160a01b0319831681178455604051919092169283917f8be0079c531659141344cd1fd0a4f28419497f9722a3daafe3b4186f6b6457e09190a35050565b6001600160a01b038116811461114d57600080fd5b60008083601f8401126112dc57600080fd5b50813567ffffffffffffffff8111156112f457600080fd5b60208301915083602082850101111561130c57600080fd5b9250929050565b60008060006040848603121561132857600080fd5b8335611333816112b5565b9250602084013567ffffffffffffffff81111561134f57600080fd5b61135b868287016112ca565b9497909650939450505050565b60006020828403121561137a57600080fd5b8135611385816112b5565b9392505050565b634e487b7160e01b600052604160045260246000fd5b604051601f8201601f1916810167ffffffffffffffff811182821017156113cb576113cb61138c565b604052919050565b600060208083850312156113e657600080fd5b823567ffffffffffffffff808211156113fe57600080fd5b818501915085601f83011261141257600080fd5b8135818111156114245761142461138c565b611436601f8201601f191685016113a2565b9150808252868482850101111561144c57600080fd5b8084840185840137600090820190930192909252509392505050565b80356001600160e01b03198116811461148057600080fd5b919050565b6000806000806060858703121561149b57600080fd5b84356114a6816112b5565b93506114b460208601611468565b9250604085013567ffffffffffffffff8111156114d057600080fd5b6114dc878288016112ca565b95989497509550505050565b600080600080606085870312156114fe57600080fd5b8435611509816112b5565b935060208501356114b4816112b5565b6000806040838503121561152c57600080fd5b8235611537816112b5565b915061154560208401611468565b90509250929050565b81835281816020850137506000828201602090810191909152601f909101601f19169091010190565b6001600160a01b038416815260406020820181905260009061159c908301848661154e565b95945050505050565b8051611480816112b5565b600080600080600060a086880312156115c857600080fd5b855194506020808701519450604087015167ffffffffffffffff808211156115ef57600080fd5b818901915089601f83011261160357600080fd5b8151818111156116155761161561138c565b8060051b91506116268483016113a2565b818152918301840191848101908c84111561164057600080fd5b938501935b8385101561166a578451925061165a836112b5565b8282529385019390850190611645565b80985050505050505061167f606087016115a5565b9150608086015190509295509295909350565b634e487b7160e01b600052603260045260246000fd5b634e487b7160e01b600052601160045260246000fd5b81810381811115610db557610db56116a8565b600080604083850312156116e457600080fd5b82516116ef816112b5565b6020939093015192949293505050565b600060018201611711576117116116a8565b5060010190565b6001600160a01b03851681526001600160e01b03198416602082015260606040820181905260009061174d908301848661154e565b9695505050505050565b6000808585111561176757600080fd5b8386111561177457600080fd5b5050820193919092039150565b6001600160e01b031981358181169160048510156117a95780818660040360031b1b83161692505b50509291505056fe737761704578616374546f6b656e73466f72546f6b656e732875696e743235362c75696e743235362c616464726573735b5d2c616464726573732c75696e7432353629a2646970667358221220598754b763932a80fe2a427a4e573515c9ebcc8ad40e2e8c2acef7c7b17e788e64736f6c63430008130033","linkReferences":{}},"methodIdentifiers":{"assetManager()":"94217ad1","getWithdrawAddress()":"e8e7f800","guard()":"7ceab3b1","initialiseOwnership(address)":"37cfecf2","owner()":"8da5cb5b","performCall(address,bytes)":"d2f73e3d","renounceOwnership()":"715018a6","resetGuard(address)":"d1357336","transferOwnership(address)":"f2fde38b","updateAssetManager(address,string)":"4a0e159d","withdrawAddress()":"1581b600"},"id":4}