{"abi":[{"type":"constructor","inputs":[{"name":"_assetManager","type":"address","internalType":"address"}],"stateMutability":"nonpayable"},{"type":"function","name":"assetManager","inputs":[],"outputs":[{"name":"","type":"address","internalType":"address"}],"stateMutability":"view"},{"type":"function","name":"getWithdrawAddress","inputs":[],"outputs":[{"name":"","type":"address","internalType":"address"}],"stateMutability":"view"},{"type":"function","name":"guard","inputs":[],"outputs":[{"name":"","type":"address","internalType":"contract GuardV0"}],"stateMutability":"view"},{"type":"function","name":"initialiseOwnership","inputs":[{"name":"_owner","type":"address","internalType":"address"}],"outputs":[],"stateMutability":"nonpayable"},{"type":"function","name":"isDisabled","inputs":[],"outputs":[{"name":"","type":"bool","internalType":"bool"}],"stateMutability":"view"},{"type":"function","name":"owner","inputs":[],"outputs":[{"name":"","type":"address","internalType":"address"}],"stateMutability":"view"},{"type":"function","name":"performCall","inputs":[{"name":"target","type":"address","internalType":"address"},{"name":"callData","type":"bytes","internalType":"bytes"}],"outputs":[],"stateMutability":"nonpayable"},{"type":"function","name":"renounceOwnership","inputs":[],"outputs":[],"stateMutability":"nonpayable"},{"type":"function","name":"resetGuard","inputs":[{"name":"_guard","type":"address","internalType":"contract GuardV0"}],"outputs":[],"stateMutability":"nonpayable"},{"type":"function","name":"transferOwnership","inputs":[{"name":"newOwner","type":"address","internalType":"address"}],"outputs":[],"stateMutability":"nonpayable"},{"type":"function","name":"updateAssetManager","inputs":[{"name":"_assetManager","type":"address","internalType":"address"},{"name":"notes","type":"string","internalType":"string"}],"outputs":[],"stateMutability":"nonpayable"},{"type":"function","name":"withdrawAddress","inputs":[],"outputs":[{"name":"","type":"address","internalType":"address"}],"stateMutability":"view"},{"type":"event","name":"OwnershipTransferred","inputs":[{"name":"previousOwner","type":"address","indexed":true,"internalType":"address"},{"name":"newOwner","type":"address","indexed":true,"internalType":"address"}],"anonymous":false}],"bytecode":{"object":"0x608060405234801561001057600080fd5b5060405161286c38038061286c83398101604081905261002f91610177565b6100383361011a565b6040516100449061016a565b604051809103906000f080158015610060573d6000803e3d6000fd5b50600380546001600160a01b039283166001600160a01b0319918216811790925560018054938516939091168317905560408051631f458b3960e31b815260048101939093526024830152601960448301527f496e697469616c206173736574206d616e61676572207365740000000000000060648301529063fa2c59c890608401600060405180830381600087803b1580156100fc57600080fd5b505af1158015610110573d6000803e3d6000fd5b50505050506101a7565b600080546001600160a01b038381166001600160a01b0319831681178455604051919092169283917f8be0079c531659141344cd1fd0a4f28419497f9722a3daafe3b4186f6b6457e09190a35050565b611e6780610a0583390190565b60006020828403121561018957600080fd5b81516001600160a01b03811681146101a057600080fd5b9392505050565b61084f806101b66000396000f3fe608060405234801561001057600080fd5b50600436106100b45760003560e01c80638da5cb5b116100715780638da5cb5b1461014957806394217ad11461015a578063d13573361461016d578063d2f73e3d14610180578063e8e7f80014610149578063f2fde38b1461019357600080fd5b80631581b600146100b957806337cfecf2146100e95780634a0e159d146100fe5780636c57f5a914610111578063715018a61461012e5780637ceab3b114610136575b600080fd5b6002546100cc906001600160a01b031681565b6040516001600160a01b0390911681526020015b60405180910390f35b6100fc6100f73660046106b9565b6101a6565b005b6100fc61010c366004610726565b61034e565b6001546040516001600160a01b03909116151581526020016100e0565b6100fc610461565b6003546100cc906001600160a01b031681565b6000546001600160a01b03166100cc565b6001546100cc906001600160a01b031681565b6100fc61017b3660046106b9565b610475565b6100fc61018e366004610726565b61049f565b6100fc6101a13660046106b9565b61057f565b6101ae6105fa565b60035460408051632d670ec960e11b81526001600160a01b0384811660048301526024820192909252601a60448201527f496e697469616c206f776e65722063616e2077697468647261770000000000006064820152911690635ace1d9290608401600060405180830381600087803b15801561022a57600080fd5b505af115801561023e573d6000803e3d6000fd5b5050600354604080516372e548a960e01b81523060048201526024810191909152602560448201527f5661756c742063616e207265636569766520746f6b656e732066726f6d206120606482015264747261646560d81b60848201526001600160a01b0390911692506372e548a9915060a401600060405180830381600087803b1580156102cb57600080fd5b505af11580156102df573d6000803e3d6000fd5b505060035460405163f2fde38b60e01b81526001600160a01b038581166004830152909116925063f2fde38b9150602401600060405180830381600087803b15801561032a57600080fd5b505af115801561033e573d6000803e3d6000fd5b5050505061034b8161057f565b50565b6103566105fa565b6001546001600160a01b0316156103d25760035460015460405163299f87d560e21b81526001600160a01b039283169263a67e1f549261039f92911690869086906004016107a4565b600060405180830381600087803b1580156103b957600080fd5b505af11580156103cd573d6000803e3d6000fd5b505050505b600180546001600160a01b0319166001600160a01b0385169081179091551561045c57600354604051631f458b3960e31b81526001600160a01b039091169063fa2c59c890610429908690869086906004016107a4565b600060405180830381600087803b15801561044357600080fd5b505af1158015610457573d6000803e3d6000fd5b505050505b505050565b6104696105fa565b6104736000610654565b565b61047d6105fa565b600380546001600160a01b0319166001600160a01b0392909216919091179055565b600354604051636d5025f160e01b81526001600160a01b0390911690636d5025f1906104d59033908790879087906004016107d2565b60006040518083038186803b1580156104ed57600080fd5b505afa158015610501573d6000803e3d6000fd5b50505050600080846001600160a01b03168484604051610522929190610809565b6000604051808303816000865af19150503d806000811461055f576040519150601f19603f3d011682016040523d82523d6000602084013e610564565b606091505b509150915081610578578051602082018181fd5b5050505050565b6105876105fa565b6001600160a01b0381166105f15760405162461bcd60e51b815260206004820152602660248201527f4f776e61626c653a206e6577206f776e657220697320746865207a65726f206160448201526564647265737360d01b60648201526084015b60405180910390fd5b61034b81610654565b6000546001600160a01b031633146104735760405162461bcd60e51b815260206004820181905260248201527f4f776e61626c653a2063616c6c6572206973206e6f7420746865206f776e657260448201526064016105e8565b600080546001600160a01b038381166001600160a01b0319831681178455604051919092169283917f8be0079c531659141344cd1fd0a4f28419497f9722a3daafe3b4186f6b6457e09190a35050565b6001600160a01b038116811461034b57600080fd5b6000602082840312156106cb57600080fd5b81356106d6816106a4565b9392505050565b60008083601f8401126106ef57600080fd5b50813567ffffffffffffffff81111561070757600080fd5b60208301915083602082850101111561071f57600080fd5b9250929050565b60008060006040848603121561073b57600080fd5b8335610746816106a4565b9250602084013567ffffffffffffffff81111561076257600080fd5b61076e868287016106dd565b9497909650939450505050565b81835281816020850137506000828201602090810191909152601f909101601f19169091010190565b6001600160a01b03841681526040602082018190526000906107c9908301848661077b565b95945050505050565b6001600160a01b038581168252841660208201526060604082018190526000906107ff908301848661077b565b9695505050505050565b818382376000910190815291905056fea26469706673582212202e5ad635c176e509b2e1fffa34d13f528caf251d786fe4ab8154bc5446d8d49c64736f6c63430008170033608060405234801561001057600080fd5b5061001a3361001f565b61006f565b600080546001600160a01b038381166001600160a01b0319831681178455604051919092169283917f8be0079c531659141344cd1fd0a4f28419497f9722a3daafe3b4186f6b6457e09190a35050565b611de98061007e6000396000f3fe608060405234801561001057600080fd5b506004361061023d5760003560e01c80638da5cb5b1161013b578063e98539c5116100b8578063f2fde38b1161007c578063f2fde38b146105a8578063f901dc33146105bb578063fa2c59c8146105ce578063fadbcf48146105e1578063fdedfa271461060457600080fd5b8063e98539c51461052e578063eb0de04214610541578063ebe268161461052e578063ee5462cc14610564578063efb47bff1461057757600080fd5b8063a9fc3d4f116100ff578063a9fc3d4f1461048f578063be8c97b0146104a6578063c537bed0146104d7578063d075f9bb146104ea578063d7334c9d1461051b57600080fd5b80638da5cb5b1461040757806398b3cc3914610418578063a4c1cccb1461042b578063a67e1f541461044e578063a847cf4d1461046157600080fd5b80634b956bd8116101c9578063715018a61161018d578063715018a6146103a157806372e548a9146103a957806373252494146103bc57806386b6dbe5146103e15780638c2fdf9e146103f457600080fd5b80634b956bd8146103425780635ace1d92146103555780635e4ccace146103685780636d5025f11461037b578063713ebf3b1461038e57600080fd5b80631d49039c116102105780631d49039c146102b55780632d12d788146102e657806334ec8d7e146102f95780633cf200251461030c5780633ea355511461032f57600080fd5b806304a3ba251461024257806307ef00cf146102575780631202f5e51461028f5780631710a4f2146102a2575b600080fd5b6102556102503660046116df565b610613565b005b61027a610265366004611734565b60066020526000908152604090205460ff1681565b60405190151581526020015b60405180910390f35b61025561029d3660046117f0565b61067c565b6102556102b03660046117f0565b6107d0565b61027a6102c3366004611734565b6001600160a01b031660009081526007602052604090205460ff16151560011490565b6102556102f43660046116df565b610830565b6102556103073660046116df565b61088c565b61027a61031a366004611734565b60056020526000908152604090205460ff1681565b61025561033d3660046116df565b6108f9565b6102556103503660046117f0565b610924565b6102556103633660046116df565b6109b0565b61025561037636600461188d565b610a0f565b6102556103893660046118f0565b610aa5565b61027a61039c366004611921565b610e84565b610255610ebc565b6102556103b73660046116df565b610ed0565b6000546001600160a01b03165b6040516001600160a01b039091168152602001610286565b6102556103ef3660046116df565b610f2f565b6102556104023660046116df565b610f8e565b6000546001600160a01b03166103c9565b6102556104263660046116df565b610fea565b61027a610439366004611734565b60036020526000908152604090205460ff1681565b61025561045c3660046116df565b611049565b61027a61046f366004611921565b600160209081526000928352604080842090915290825290205460ff1681565b61049860025481565b604051908152602001610286565b61027a6104b4366004611734565b6001600160a01b031660009081526004602052604090205460ff16151560011490565b61027a6104e5366004611734565b6110a5565b61027a6104f8366004611734565b6001600160a01b031660009081526005602052604090205460ff16151560011490565b61025561052936600461188d565b6110c8565b61025561053c3660046117f0565b61113b565b61027a61054f366004611734565b60076020526000908152604090205460ff1681565b6102556105723660046116df565b611248565b61027a610585366004611734565b6001600160a01b031660009081526006602052604090205460ff16151560011490565b6102556105b6366004611734565b611308565b6102556105c93660046116df565b611381565b6102556105dc3660046116df565b6113dd565b61027a6105ef366004611734565b60046020526000908152604090205460ff1681565b60405160018152602001610286565b61061b61143c565b6001600160a01b03831660009081526007602052604090819020805460ff19169055517fb71be9befd3ac90c1c9981d3b1161b3c2c6dcd741f13b34061aa251226a802df9061066f9085908590859061197f565b60405180910390a1505050565b6000808280602001905181019061069391906119b8565b509350935050506000826000815181106106af576106af611a9a565b60200260200101519050600083600185516106ca9190611ac6565b815181106106da576106da611a9a565b6020026020010151905061070b836001600160a01b031660009081526005602052604090205460ff16151560011490565b6107305760405162461bcd60e51b815260040161072790611ad9565b60405180910390fd5b610739826110a5565b61077c5760405162461bcd60e51b8152602060048201526014602482015273151bdad95b881a5b881b9bdd08185b1b1bddd95960621b6044820152606401610727565b610785816110a5565b6107c95760405162461bcd60e51b8152602060048201526015602482015274151bdad95b881bdd5d081b9bdd08185b1b1bddd959605a1b6044820152606401610727565b5050505050565b6000818060200190518101906107e69190611b10565b509050610810816001600160a01b031660009081526006602052604090205460ff16151560011490565b61082c5760405162461bcd60e51b815260040161072790611ad9565b5050565b61083861143c565b6001600160a01b03831660009081526005602052604090819020805460ff19169055517f4e13b11ab98e672bd78295ef9cebe764dc617f95decf47d842c25b83abc0c7249061066f9085908590859061197f565b6108be836108b7604051806060016040528060338152602001611d4d60339139805160209091012090565b8484610a0f565b6108e9836108b7604051806060016040528060348152602001611d8060349139805160209091012090565b6108f4838383610fea565b505050565b6108e9836108b7604051806080016040528060438152602001611d0a60439139805160209091012090565b60008180602001905181019061093a9190611b10565b509050610964816001600160a01b031660009081526007602052604090205460ff16151560011490565b61082c5760405162461bcd60e51b815260206004820152601e60248201527f417070726f7665206164647265737320646f6573206e6f74206d6174636800006044820152606401610727565b6109b861143c565b6001600160a01b03831660009081526006602052604090819020805460ff19166001179055517f3562181221a42a19ddd03a82dfe06acab1905ceb65cdaf7d86a1d9fec66435529061066f9085908590859061197f565b610a1761143c565b6001600160a01b03841660009081526001602081815260408084206001600160e01b0319881685529091528220805460ff191690911790556002805491610a5d83611b3e565b91905055507fef729aaa41b9fd994f9ff7c1960df214a84f722002e6cfbea31799cd0873a3ef84848484604051610a979493929190611b57565b60405180910390a150505050565b6000546001600160a01b03858116911614610e7e57610ae1846001600160a01b031660009081526004602052604090205460ff16151560011490565b610b225760405162461bcd60e51b815260206004820152601260248201527114d95b99195c881b9bdd08185b1b1bddd95960721b6044820152606401610727565b6000610b316004828486611b96565b610b3a91611bc0565b9050366000610b4c8460048188611b96565b91509150610b5a8684610e84565b610b9e5760405162461bcd60e51b815260206004820152601560248201527410d85b1b081cda5d19481b9bdd08185b1b1bddd959605a1b6044820152606401610727565b610bc5604051806080016040528060438152602001611d0a60439139805160209091012090565b6001600160e01b031916836001600160e01b03191603610c2357610c1e82828080601f01602080910402602001604051908101604052809392919081815260200183838082843760009201919091525061067c92505050565b610e7a565b610c4a604051806060016040528060338152602001611d4d60339139805160209091012090565b6001600160e01b031916836001600160e01b03191603610ca357610c1e82828080601f01602080910402602001604051908101604052809392919081815260200183838082843760009201919091525061113b92505050565b610cca604051806060016040528060348152602001611d8060349139805160209091012090565b6001600160e01b031916836001600160e01b03191603610d2357610c1e82828080601f01602080910402602001604051908101604052809392919081815260200183838082843760009201919091525061113b92505050565b6040805180820190915260198152787472616e7366657228616464726573732c75696e743235362960381b6020909101526356fa634560e01b6001600160e01b0319841601610dab57610c1e82828080601f0160208091040260200160405190810160405280939291908181526020018383808284376000920191909152506107d092505050565b604080518082019091526018815277617070726f766528616464726573732c75696e743235362960401b60209091015263f6a1584d60e01b6001600160e01b0319841601610e3257610c1e82828080601f01602080910402602001604051908101604052809392919081815260200183838082843760009201919091525061092492505050565b60405162461bcd60e51b815260206004820152601960248201527f556e6b6e6f776e2066756e6374696f6e2073656c6563746f72000000000000006044820152606401610727565b5050505b50505050565b6001600160a01b03821660009081526001602090815260408083206001600160e01b03198516845290915290205460ff165b92915050565b610ec461143c565b610ece6000611496565b565b610ed861143c565b6001600160a01b03831660009081526005602052604090819020805460ff19166001179055517f62dd88c5ecfa60713a657640ebec4de26fc1aefa4afdb24e6d15a124fce727799061066f9085908590859061197f565b610f3761143c565b6001600160a01b03831660009081526003602052604090819020805460ff19166001179055517fad90e2570fc4fe9f7437be3188d5c791c6662892d31731992aa88f5c876219839061066f9085908590859061197f565b610f9661143c565b6001600160a01b03831660009081526006602052604090819020805460ff19169055517f1212f8ddb39de8e1a339460c95752d61100723efeaa34ccd94bca94393f409389061066f9085908590859061197f565b610ff261143c565b6001600160a01b03831660009081526007602052604090819020805460ff19166001179055517f628a44970c0e450415e3ae74334ea44f3307b74dbf677a1371190242bf2f35899061066f9085908590859061197f565b61105161143c565b6001600160a01b03831660009081526004602052604090819020805460ff19169055517f3097928509c53a2dab9500431201d82b0d756e8f890fd01f4ae6b33b45687ea49061066f9085908590859061197f565b6001600160a01b031660009081526003602052604090205460ff16151560011490565b6110d061143c565b6001600160a01b03841660009081526001602090815260408083206001600160e01b03198716845290915290819020805460ff19169055517f37ea10f2d08f5a9803dfcd5abf3cfc7b0d6fcdf5fcbc36be9ea5a0b53d9a4d9b90610a97908690869086908690611b57565b6000818060200190518101906111519190611cb9565b905060008061116383600001516114e6565b509150915061119383602001516001600160a01b031660009081526005602052604090205460ff16151560011490565b6111af5760405162461bcd60e51b815260040161072790611ad9565b6111b8816110a5565b6111fb5760405162461bcd60e51b8152602060048201526014602482015273151bdad95b881a5b881b9bdd08185b1b1bddd95960621b6044820152606401610727565b611204826110a5565b610e7e5760405162461bcd60e51b8152602060048201526015602482015274151bdad95b881bdd5d081b9bdd08185b1b1bddd959605a1b6044820152606401610727565b6040805180820190915260198152787472616e7366657228616464726573732c75696e743235362960381b6020909101526112a3837fa9059cbb2ab09eb219583f4a59a5d0623ade346d962bcd4e46b11da047c9049b6108b7565b604080518082019091526018815277617070726f766528616464726573732c75696e743235362960401b6020909101526112fd837f095ea7b334ae44009aa867bfb386f5c3b4b443ac6f0ee573fa91c4608fbadfba6108b7565b6108f4838383610f2f565b61131061143c565b6001600160a01b0381166113755760405162461bcd60e51b815260206004820152602660248201527f4f776e61626c653a206e6577206f776e657220697320746865207a65726f206160448201526564647265737360d01b6064820152608401610727565b61137e81611496565b50565b61138961143c565b6001600160a01b03831660009081526003602052604090819020805460ff19169055517f9ca3f065622f5f03f32b7157677a0e420c3a36ab45fd49f256ffebce3e3105879061066f9085908590859061197f565b6113e561143c565b6001600160a01b03831660009081526004602052604090819020805460ff19166001179055517fa8f9caaf4861720900294428e4ff34d37070c37afd26d96e6e4da75326d2c3ad9061066f9085908590859061197f565b6000546001600160a01b03163314610ece5760405162461bcd60e51b815260206004820181905260248201527f4f776e61626c653a2063616c6c6572206973206e6f7420746865206f776e65726044820152606401610727565b600080546001600160a01b038381166001600160a01b0319831681178455604051919092169283917f8be0079c531659141344cd1fd0a4f28419497f9722a3daafe3b4186f6b6457e09190a35050565b600080806114f48482611522565b92506115018460146115d6565b905061151961151260036014611cf6565b8590611522565b91509193909250565b600081611530816014611cf6565b10156115735760405162461bcd60e51b8152602060048201526012602482015271746f416464726573735f6f766572666c6f7760701b6044820152606401610727565b61157e826014611cf6565b835110156115c65760405162461bcd60e51b8152602060048201526015602482015274746f416464726573735f6f75744f66426f756e647360581b6044820152606401610727565b500160200151600160601b900490565b6000816115e4816003611cf6565b10156116265760405162461bcd60e51b8152602060048201526011602482015270746f55696e7432345f6f766572666c6f7760781b6044820152606401610727565b611631826003611cf6565b835110156116785760405162461bcd60e51b8152602060048201526014602482015273746f55696e7432345f6f75744f66426f756e647360601b6044820152606401610727565b50016003015190565b6001600160a01b038116811461137e57600080fd5b60008083601f8401126116a857600080fd5b50813567ffffffffffffffff8111156116c057600080fd5b6020830191508360208285010111156116d857600080fd5b9250929050565b6000806000604084860312156116f457600080fd5b83356116ff81611681565b9250602084013567ffffffffffffffff81111561171b57600080fd5b61172786828701611696565b9497909650939450505050565b60006020828403121561174657600080fd5b813561175181611681565b9392505050565b634e487b7160e01b600052604160045260246000fd5b60405160a0810167ffffffffffffffff8111828210171561179157611791611758565b60405290565b604051601f8201601f1916810167ffffffffffffffff811182821017156117c0576117c0611758565b604052919050565b600067ffffffffffffffff8211156117e2576117e2611758565b50601f01601f191660200190565b60006020828403121561180257600080fd5b813567ffffffffffffffff81111561181957600080fd5b8201601f8101841361182a57600080fd5b803561183d611838826117c8565b611797565b81815285602083850101111561185257600080fd5b81602084016020830137600091810160200191909152949350505050565b80356001600160e01b03198116811461188857600080fd5b919050565b600080600080606085870312156118a357600080fd5b84356118ae81611681565b93506118bc60208601611870565b9250604085013567ffffffffffffffff8111156118d857600080fd5b6118e487828801611696565b95989497509550505050565b6000806000806060858703121561190657600080fd5b843561191181611681565b935060208501356118bc81611681565b6000806040838503121561193457600080fd5b823561193f81611681565b915061194d60208401611870565b90509250929050565b81835281816020850137506000828201602090810191909152601f909101601f19169091010190565b6001600160a01b03841681526040602082018190526000906119a49083018486611956565b95945050505050565b805161188881611681565b600080600080600060a086880312156119d057600080fd5b855194506020808701519450604087015167ffffffffffffffff808211156119f757600080fd5b818901915089601f830112611a0b57600080fd5b815181811115611a1d57611a1d611758565b8060051b9150611a2e848301611797565b818152918301840191848101908c841115611a4857600080fd5b938501935b83851015611a725784519250611a6283611681565b8282529385019390850190611a4d565b809850505050505050611a87606087016119ad565b9150608086015190509295509295909350565b634e487b7160e01b600052603260045260246000fd5b634e487b7160e01b600052601160045260246000fd5b81810381811115610eb657610eb6611ab0565b6020808252601f908201527f5265636569766572206164647265737320646f6573206e6f74206d6174636800604082015260600190565b60008060408385031215611b2357600080fd5b8251611b2e81611681565b6020939093015192949293505050565b600060018201611b5057611b50611ab0565b5060010190565b6001600160a01b03851681526001600160e01b031984166020820152606060408201819052600090611b8c9083018486611956565b9695505050505050565b60008085851115611ba657600080fd5b83861115611bb357600080fd5b5050820193919092039150565b6001600160e01b03198135818116916004851015611be85780818660040360031b1b83161692505b505092915050565b600060a08284031215611c0257600080fd5b611c0a61176e565b9050815167ffffffffffffffff811115611c2357600080fd5b8201601f81018413611c3457600080fd5b8051611c42611838826117c8565b81815260208681848601011115611c5857600080fd5b60005b83811015611c76578481018201518382018301528101611c5b565b506000818484010152818552611c8d8187016119ad565b818601525050505060408201516040820152606082015160608201526080820151608082015292915050565b600060208284031215611ccb57600080fd5b815167ffffffffffffffff811115611ce257600080fd5b611cee84828501611bf0565b949350505050565b80820180821115610eb657610eb6611ab056fe737761704578616374546f6b656e73466f72546f6b656e732875696e743235362c75696e743235362c616464726573735b5d2c616464726573732c75696e74323536296578616374496e707574282862797465732c616464726573732c75696e743235362c75696e743235362c75696e74323536292965786163744f7574707574282862797465732c616464726573732c75696e743235362c75696e743235362c75696e743235362929a26469706673582212208147bd05e0d6d226b697e277ad3d5d7a5c73132abb0419b025de6fce213053f864736f6c63430008170033","linkReferences":{}},"methodIdentifiers":{"assetManager()":"94217ad1","getWithdrawAddress()":"e8e7f800","guard()":"7ceab3b1","initialiseOwnership(address)":"37cfecf2","isDisabled()":"6c57f5a9","owner()":"8da5cb5b","performCall(address,bytes)":"d2f73e3d","renounceOwnership()":"715018a6","resetGuard(address)":"d1357336","transferOwnership(address)":"f2fde38b","updateAssetManager(address,string)":"4a0e159d","withdrawAddress()":"1581b600"},"id":5}