{"abi":[{"type":"constructor","inputs":[{"name":"_assetManager","type":"address","internalType":"address"}],"stateMutability":"nonpayable"},{"type":"function","name":"assetManager","inputs":[],"outputs":[{"name":"","type":"address","internalType":"address"}],"stateMutability":"view"},{"type":"function","name":"delegate","inputs":[{"name":"vault","type":"address","internalType":"address"},{"name":"data","type":"tuple","internalType":"struct VaultTypes.VaultDelegate","components":[{"name":"brokerHash","type":"bytes32","internalType":"bytes32"},{"name":"delegateSigner","type":"address","internalType":"address"}]}],"outputs":[],"stateMutability":"nonpayable"},{"type":"function","name":"getWithdrawAddress","inputs":[],"outputs":[{"name":"","type":"address","internalType":"address"}],"stateMutability":"view"},{"type":"function","name":"guard","inputs":[],"outputs":[{"name":"","type":"address","internalType":"contract GuardV0"}],"stateMutability":"view"},{"type":"function","name":"initialiseOwnership","inputs":[{"name":"_owner","type":"address","internalType":"address"}],"outputs":[],"stateMutability":"nonpayable"},{"type":"function","name":"isDisabled","inputs":[],"outputs":[{"name":"","type":"bool","internalType":"bool"}],"stateMutability":"view"},{"type":"function","name":"owner","inputs":[],"outputs":[{"name":"","type":"address","internalType":"address"}],"stateMutability":"view"},{"type":"function","name":"performCall","inputs":[{"name":"target","type":"address","internalType":"address"},{"name":"callData","type":"bytes","internalType":"bytes"}],"outputs":[],"stateMutability":"nonpayable"},{"type":"function","name":"renounceOwnership","inputs":[],"outputs":[],"stateMutability":"nonpayable"},{"type":"function","name":"resetGuard","inputs":[{"name":"_guard","type":"address","internalType":"contract GuardV0"}],"outputs":[],"stateMutability":"nonpayable"},{"type":"function","name":"transferOwnership","inputs":[{"name":"newOwner","type":"address","internalType":"address"}],"outputs":[],"stateMutability":"nonpayable"},{"type":"function","name":"updateAssetManager","inputs":[{"name":"_assetManager","type":"address","internalType":"address"},{"name":"notes","type":"string","internalType":"string"}],"outputs":[],"stateMutability":"nonpayable"},{"type":"function","name":"withdrawAddress","inputs":[],"outputs":[{"name":"","type":"address","internalType":"address"}],"stateMutability":"view"},{"type":"event","name":"OwnershipTransferred","inputs":[{"name":"previousOwner","type":"address","indexed":true,"internalType":"address"},{"name":"newOwner","type":"address","indexed":true,"internalType":"address"}],"anonymous":false}],"bytecode":{"object":"0x608060405234801562000010575f80fd5b5060405162008658380380620086588339818101604052810190620000369190620002cb565b620000566200004a6200019060201b60201c565b6200019760201b60201c565b604051620000649062000258565b604051809103905ff0801580156200007e573d5f803e3d5ffd5b5060035f6101000a81548173ffffffffffffffffffffffffffffffffffffffff021916908373ffffffffffffffffffffffffffffffffffffffff1602179055508060015f6101000a81548173ffffffffffffffffffffffffffffffffffffffff021916908373ffffffffffffffffffffffffffffffffffffffff16021790555060035f9054906101000a900473ffffffffffffffffffffffffffffffffffffffff1673ffffffffffffffffffffffffffffffffffffffff1663fa2c59c8826040518263ffffffff1660e01b81526004016200015a91906200036a565b5f604051808303815f87803b15801562000172575f80fd5b505af115801562000185573d5f803e3d5ffd5b50505050506200039a565b5f33905090565b5f805f9054906101000a900473ffffffffffffffffffffffffffffffffffffffff169050815f806101000a81548173ffffffffffffffffffffffffffffffffffffffff021916908373ffffffffffffffffffffffffffffffffffffffff1602179055508173ffffffffffffffffffffffffffffffffffffffff168173ffffffffffffffffffffffffffffffffffffffff167f8be0079c531659141344cd1fd0a4f28419497f9722a3daafe3b4186f6b6457e060405160405180910390a35050565b61701c806200163c83390190565b5f80fd5b5f73ffffffffffffffffffffffffffffffffffffffff82169050919050565b5f62000295826200026a565b9050919050565b620002a78162000289565b8114620002b2575f80fd5b50565b5f81519050620002c5816200029c565b92915050565b5f60208284031215620002e357620002e262000266565b5b5f620002f284828501620002b5565b91505092915050565b620003068162000289565b82525050565b5f82825260208201905092915050565b7f496e697469616c206173736574206d616e6167657220736574000000000000005f82015250565b5f620003526019836200030c565b91506200035f826200031c565b602082019050919050565b5f6040820190506200037f5f830184620002fb565b8181036020830152620003928162000344565b905092915050565b61129480620003a85f395ff3fe608060405234801561000f575f80fd5b50600436106100cd575f3560e01c80637ceab3b11161008a578063d135733611610064578063d1357336146101c5578063d2f73e3d146101e1578063e8e7f800146101fd578063f2fde38b1461021b576100cd565b80637ceab3b11461016b5780638da5cb5b1461018957806394217ad1146101a7576100cd565b80631581b600146100d157806337cfecf2146100ef57806345e49f021461010b5780634a0e159d146101275780636c57f5a914610143578063715018a614610161575b5f80fd5b6100d9610237565b6040516100e69190610ae6565b60405180910390f35b61010960048036038101906101049190610b31565b61025c565b005b61012560048036038101906101209190610b7e565b610405565b005b610141600480360381019061013c9190610c1d565b61046f565b005b61014b61069d565b6040516101589190610c94565b60405180910390f35b6101696106f4565b005b610173610707565b6040516101809190610d08565b60405180910390f35b61019161072c565b60405161019e9190610ae6565b60405180910390f35b6101af610753565b6040516101bc9190610ae6565b60405180910390f35b6101df60048036038101906101da9190610d5c565b610778565b005b6101fb60048036038101906101f69190610ddc565b6107c3565b005b6102056108d1565b6040516102129190610ae6565b60405180910390f35b61023560048036038101906102309190610b31565b6108df565b005b60025f9054906101000a900473ffffffffffffffffffffffffffffffffffffffff1681565b610264610961565b60035f9054906101000a900473ffffffffffffffffffffffffffffffffffffffff1673ffffffffffffffffffffffffffffffffffffffff16635ace1d92826040518263ffffffff1660e01b81526004016102be9190610e93565b5f604051808303815f87803b1580156102d5575f80fd5b505af11580156102e7573d5f803e3d5ffd5b5050505060035f9054906101000a900473ffffffffffffffffffffffffffffffffffffffff1673ffffffffffffffffffffffffffffffffffffffff166372e548a9306040518263ffffffff1660e01b81526004016103459190610f2f565b5f604051808303815f87803b15801561035c575f80fd5b505af115801561036e573d5f803e3d5ffd5b5050505060035f9054906101000a900473ffffffffffffffffffffffffffffffffffffffff1673ffffffffffffffffffffffffffffffffffffffff1663f2fde38b826040518263ffffffff1660e01b81526004016103cc9190610ae6565b5f604051808303815f87803b1580156103e3575f80fd5b505af11580156103f5573d5f803e3d5ffd5b50505050610402816108df565b50565b8173ffffffffffffffffffffffffffffffffffffffff16632df4869b826040518263ffffffff1660e01b815260040161043e9190611015565b5f604051808303815f87803b158015610455575f80fd5b505af1158015610467573d5f803e3d5ffd5b505050505050565b610477610961565b5f73ffffffffffffffffffffffffffffffffffffffff1660015f9054906101000a900473ffffffffffffffffffffffffffffffffffffffff1673ffffffffffffffffffffffffffffffffffffffff16146105785760035f9054906101000a900473ffffffffffffffffffffffffffffffffffffffff1673ffffffffffffffffffffffffffffffffffffffff1663a67e1f5460015f9054906101000a900473ffffffffffffffffffffffffffffffffffffffff1684846040518463ffffffff1660e01b815260040161054a93929190611078565b5f604051808303815f87803b158015610561575f80fd5b505af1158015610573573d5f803e3d5ffd5b505050505b8260015f6101000a81548173ffffffffffffffffffffffffffffffffffffffff021916908373ffffffffffffffffffffffffffffffffffffffff1602179055505f73ffffffffffffffffffffffffffffffffffffffff1660015f9054906101000a900473ffffffffffffffffffffffffffffffffffffffff1673ffffffffffffffffffffffffffffffffffffffff16146106985760035f9054906101000a900473ffffffffffffffffffffffffffffffffffffffff1673ffffffffffffffffffffffffffffffffffffffff1663fa2c59c88484846040518463ffffffff1660e01b815260040161066a93929190611078565b5f604051808303815f87803b158015610681575f80fd5b505af1158015610693573d5f803e3d5ffd5b505050505b505050565b5f8073ffffffffffffffffffffffffffffffffffffffff1660015f9054906101000a900473ffffffffffffffffffffffffffffffffffffffff1673ffffffffffffffffffffffffffffffffffffffff161415905090565b6106fc610961565b6107055f6109df565b565b60035f9054906101000a900473ffffffffffffffffffffffffffffffffffffffff1681565b5f805f9054906101000a900473ffffffffffffffffffffffffffffffffffffffff16905090565b60015f9054906101000a900473ffffffffffffffffffffffffffffffffffffffff1681565b610780610961565b8060035f6101000a81548173ffffffffffffffffffffffffffffffffffffffff021916908373ffffffffffffffffffffffffffffffffffffffff16021790555050565b60035f9054906101000a900473ffffffffffffffffffffffffffffffffffffffff1673ffffffffffffffffffffffffffffffffffffffff16636d5025f1338585856040518563ffffffff1660e01b815260040161082394939291906110e4565b5f6040518083038186803b158015610839575f80fd5b505afa15801561084b573d5f803e3d5ffd5b505050505f808473ffffffffffffffffffffffffffffffffffffffff168484604051610878929190611150565b5f604051808303815f865af19150503d805f81146108b1576040519150601f19603f3d011682016040523d82523d5f602084013e6108b6565b606091505b5091509150816108ca578051602082018181fd5b5050505050565b5f6108da61072c565b905090565b6108e7610961565b5f73ffffffffffffffffffffffffffffffffffffffff168173ffffffffffffffffffffffffffffffffffffffff1603610955576040517f08c379a000000000000000000000000000000000000000000000000000000000815260040161094c906111d8565b60405180910390fd5b61095e816109df565b50565b610969610aa0565b73ffffffffffffffffffffffffffffffffffffffff1661098761072c565b73ffffffffffffffffffffffffffffffffffffffff16146109dd576040517f08c379a00000000000000000000000000000000000000000000000000000000081526004016109d490611240565b60405180910390fd5b565b5f805f9054906101000a900473ffffffffffffffffffffffffffffffffffffffff169050815f806101000a81548173ffffffffffffffffffffffffffffffffffffffff021916908373ffffffffffffffffffffffffffffffffffffffff1602179055508173ffffffffffffffffffffffffffffffffffffffff168173ffffffffffffffffffffffffffffffffffffffff167f8be0079c531659141344cd1fd0a4f28419497f9722a3daafe3b4186f6b6457e060405160405180910390a35050565b5f33905090565b5f73ffffffffffffffffffffffffffffffffffffffff82169050919050565b5f610ad082610aa7565b9050919050565b610ae081610ac6565b82525050565b5f602082019050610af95f830184610ad7565b92915050565b5f80fd5b5f80fd5b610b1081610ac6565b8114610b1a575f80fd5b50565b5f81359050610b2b81610b07565b92915050565b5f60208284031215610b4657610b45610aff565b5b5f610b5384828501610b1d565b91505092915050565b5f80fd5b5f60408284031215610b7557610b74610b5c565b5b81905092915050565b5f8060608385031215610b9457610b93610aff565b5b5f610ba185828601610b1d565b9250506020610bb285828601610b60565b9150509250929050565b5f80fd5b5f80fd5b5f80fd5b5f8083601f840112610bdd57610bdc610bbc565b5b8235905067ffffffffffffffff811115610bfa57610bf9610bc0565b5b602083019150836001820283011115610c1657610c15610bc4565b5b9250929050565b5f805f60408486031215610c3457610c33610aff565b5b5f610c4186828701610b1d565b935050602084013567ffffffffffffffff811115610c6257610c61610b03565b5b610c6e86828701610bc8565b92509250509250925092565b5f8115159050919050565b610c8e81610c7a565b82525050565b5f602082019050610ca75f830184610c85565b92915050565b5f819050919050565b5f610cd0610ccb610cc684610aa7565b610cad565b610aa7565b9050919050565b5f610ce182610cb6565b9050919050565b5f610cf282610cd7565b9050919050565b610d0281610ce8565b82525050565b5f602082019050610d1b5f830184610cf9565b92915050565b5f610d2b82610ac6565b9050919050565b610d3b81610d21565b8114610d45575f80fd5b50565b5f81359050610d5681610d32565b92915050565b5f60208284031215610d7157610d70610aff565b5b5f610d7e84828501610d48565b91505092915050565b5f8083601f840112610d9c57610d9b610bbc565b5b8235905067ffffffffffffffff811115610db957610db8610bc0565b5b602083019150836001820283011115610dd557610dd4610bc4565b5b9250929050565b5f805f60408486031215610df357610df2610aff565b5b5f610e0086828701610b1d565b935050602084013567ffffffffffffffff811115610e2157610e20610b03565b5b610e2d86828701610d87565b92509250509250925092565b5f82825260208201905092915050565b7f496e697469616c206f776e65722063616e2077697468647261770000000000005f82015250565b5f610e7d601a83610e39565b9150610e8882610e49565b602082019050919050565b5f604082019050610ea65f830184610ad7565b8181036020830152610eb781610e71565b905092915050565b7f5661756c742063616e207265636569766520746f6b656e732066726f6d2061205f8201527f7472616465000000000000000000000000000000000000000000000000000000602082015250565b5f610f19602583610e39565b9150610f2482610ebf565b604082019050919050565b5f604082019050610f425f830184610ad7565b8181036020830152610f5381610f0d565b905092915050565b5f819050919050565b610f6d81610f5b565b8114610f77575f80fd5b50565b5f81359050610f8881610f64565b92915050565b5f610f9c6020840184610f7a565b905092915050565b610fad81610f5b565b82525050565b5f610fc16020840184610b1d565b905092915050565b610fd281610ac6565b82525050565b60408201610fe85f830183610f8e565b610ff45f850182610fa4565b506110026020830183610fb3565b61100f6020850182610fc9565b50505050565b5f6040820190506110285f830184610fd8565b92915050565b828183375f83830152505050565b5f601f19601f8301169050919050565b5f6110578385610e39565b935061106483858461102e565b61106d8361103c565b840190509392505050565b5f60408201905061108b5f830186610ad7565b818103602083015261109e81848661104c565b9050949350505050565b5f82825260208201905092915050565b5f6110c383856110a8565b93506110d083858461102e565b6110d98361103c565b840190509392505050565b5f6060820190506110f75f830187610ad7565b6111046020830186610ad7565b81810360408301526111178184866110b8565b905095945050505050565b5f81905092915050565b5f6111378385611122565b935061114483858461102e565b82840190509392505050565b5f61115c82848661112c565b91508190509392505050565b7f4f776e61626c653a206e6577206f776e657220697320746865207a65726f20615f8201527f6464726573730000000000000000000000000000000000000000000000000000602082015250565b5f6111c2602683610e39565b91506111cd82611168565b604082019050919050565b5f6020820190508181035f8301526111ef816111b6565b9050919050565b7f4f776e61626c653a2063616c6c6572206973206e6f7420746865206f776e65725f82015250565b5f61122a602083610e39565b9150611235826111f6565b602082019050919050565b5f6020820190508181035f8301526112578161121e565b905091905056fea2646970667358221220db1299dd62558d11bb374d9611a32e44414afbe0f49525e9ed98a3e543112cc564736f6c63430008170033608060405234801562000010575f80fd5b5062000031620000256200003760201b60201c565b6200003e60201b60201c565b62000103565b5f33905090565b5f600a60019054906101000a900473ffffffffffffffffffffffffffffffffffffffff16905081600a60016101000a81548173ffffffffffffffffffffffffffffffffffffffff021916908373ffffffffffffffffffffffffffffffffffffffff1602179055508173ffffffffffffffffffffffffffffffffffffffff168173ffffffffffffffffffffffffffffffffffffffff167f8be0079c531659141344cd1fd0a4f28419497f9722a3daafe3b4186f6b6457e060405160405180910390a35050565b616f0b80620001115f395ff3fe608060405234801561000f575f80fd5b506004361061041b575f3560e01c806386b6dbe511610229578063ca963c501161012e578063f20e85e0116100b6578063f76081e411610085578063f76081e414610ca1578063f901dc3314610cbd578063fa2c59c814610cd9578063fadbcf4814610cf5578063fdedfa2714610d255761041b565b8063f20e85e014610c31578063f259a07314610c4d578063f26749f314610c69578063f2fde38b14610c855761041b565b8063e98539c5116100fd578063e98539c514610b7d578063eb0de04214610b99578063ebe2681614610bc9578063ee5462cc14610be5578063efb47bff14610c015761041b565b8063ca963c5014610af9578063d075f9bb14610b15578063d4c0fe4514610b45578063d7334c9d14610b615761041b565b8063a67e1f54116101b1578063b8fe8d5f11610180578063b8fe8d5f14610a31578063be8c97b014610a61578063c2e657ae14610a91578063c4cc9dba14610aad578063c537bed014610ac95761041b565b8063a67e1f54146109ab578063a847cf4d146109c7578063a9fc3d4f146109f7578063b3c329cb14610a155761041b565b80638fb4dff2116101f85780638fb4dff2146108f7578063957dc6c01461092757806398b3cc3914610943578063a1b6b4301461095f578063a4c1cccb1461097b5761041b565b806386b6dbe514610883578063873016081461089f5780638c2fdf9e146108bd5780638da5cb5b146108d95761041b565b80635e4ccace1161032f578063715018a6116102b7578063761bcd9c11610286578063761bcd9c146107e357806378065086146107ff57806378addb481461081b5780637ea446551461084b57806386a6ae15146108675761041b565b8063715018a61461078357806372e548a91461078d57806373252494146107a9578063742bfc7e146107c75761041b565b80636ad11353116102fe5780636ad11353146106cf5780636d5025f1146106eb5780636d9a1423146107075780636fd7fdef14610723578063713ebf3b146107535761041b565b80635e4ccace1461065f5780635e6afe4d1461067b57806363cc17f2146106975780636a6d5cc8146106b35761041b565b80632dc32a61116103b2578063425f49d011610381578063425f49d0146105bf5780634b941268146105db5780634b956bd81461060b57806359b92be9146106275780635ace1d92146106435761041b565b80632dc32a611461052757806334ec8d7e146105575780633cf20025146105735780633ea35551146105a35761041b565b80631c123e77116103ee5780631c123e77146104a35780631d49039c146104bf5780632c02cda0146104ef5780632d12d7881461050b5761041b565b806304a3ba251461041f57806307ac35621461043b57806307ef00cf146104575780631710a4f214610487575b5f80fd5b61043960048036038101906104349190614bab565b610d43565b005b61045560048036038101906104509190614d40565b610e4b565b005b610471600480360381019061046c9190614d87565b6112de565b60405161047e9190614dcc565b60405180910390f35b6104a1600480360381019061049c9190614d40565b6112fb565b005b6104bd60048036038101906104b89190614d40565b61135f565b005b6104d960048036038101906104d49190614d87565b611438565b6040516104e69190614dcc565b60405180910390f35b61050960048036038101906105049190614de5565b611491565b005b61052560048036038101906105209190614bab565b611495565b005b610541600480360381019061053c9190614d87565b61159d565b60405161054e9190614dcc565b60405180910390f35b610571600480360381019061056c9190614bab565b6115f6565b005b61058d60048036038101906105889190614d87565b611671565b60405161059a9190614dcc565b60405180910390f35b6105bd60048036038101906105b89190614bab565b61168e565b005b6105d960048036038101906105d49190614d40565b6116f6565b005b6105f560048036038101906105f09190614d87565b61171b565b6040516106029190614dcc565b60405180910390f35b61062560048036038101906106209190614d40565b611738565b005b610641600480360381019061063c9190614d40565b61179c565b005b61065d60048036038101906106589190614bab565b611800565b005b61067960048036038101906106749190614e94565b611911565b005b61069560048036038101906106909190614bab565b611adc565b005b6106b160048036038101906106ac9190614bab565b611d11565b005b6106cd60048036038101906106c89190614d40565b611e22565b005b6106e960048036038101906106e49190614d40565b611ed2565b005b61070560048036038101906107009190614f5a565b611ef8565b005b610721600480360381019061071c9190614bab565b611f0a565b005b61073d60048036038101906107389190614d87565b611f46565b60405161074a9190614dcc565b60405180910390f35b61076d60048036038101906107689190614fcb565b611f9f565b60405161077a9190614dcc565b60405180910390f35b61078b61203e565b005b6107a760048036038101906107a29190614bab565b612051565b005b6107b1612162565b6040516107be9190615018565b60405180910390f35b6107e160048036038101906107dc9190614d40565b612170565b005b6107fd60048036038101906107f89190614d40565b6121d5565b005b61081960048036038101906108149190614d40565b6122c2565b005b61083560048036038101906108309190614d87565b612327565b6040516108429190614dcc565b60405180910390f35b61086560048036038101906108609190614d40565b612380565b005b610881600480360381019061087c9190614bab565b6123e3565b005b61089d60048036038101906108989190614bab565b612542565b005b6108a7612653565b6040516108b49190614dcc565b60405180910390f35b6108d760048036038101906108d29190614bab565b612665565b005b6108e161276d565b6040516108ee9190615018565b60405180910390f35b610911600480360381019061090c9190614d87565b612796565b60405161091e9190614dcc565b60405180910390f35b610941600480360381019061093c9190614d40565b6127b3565b005b61095d60048036038101906109589190614bab565b612817565b005b61097960048036038101906109749190614d40565b612928565b005b61099560048036038101906109909190614d87565b612af6565b6040516109a29190614dcc565b60405180910390f35b6109c560048036038101906109c09190614bab565b612b13565b005b6109e160048036038101906109dc9190614fcb565b612c1b565b6040516109ee9190614dcc565b60405180910390f35b6109ff612c44565b604051610a0c9190615049565b60405180910390f35b610a2f6004803603810190610a2a9190614d87565b612c4a565b005b610a4b6004803603810190610a469190614d87565b612c95565b604051610a589190614dcc565b60405180910390f35b610a7b6004803603810190610a769190614d87565b612cb2565b604051610a889190614dcc565b60405180910390f35b610aab6004803603810190610aa6919061508c565b612d0b565b005b610ac76004803603810190610ac29190614d40565b612de0565b005b610ae36004803603810190610ade9190614d87565b612e8f565b604051610af09190614dcc565b60405180910390f35b610b136004803603810190610b0e9190614d40565b612efe565b005b610b2f6004803603810190610b2a9190614d87565b612f24565b604051610b3c9190614dcc565b60405180910390f35b610b5f6004803603810190610b5a9190614d40565b612f7d565b005b610b7b6004803603810190610b769190614e94565b612fe3565b005b610b976004803603810190610b929190614d40565b61313a565b005b610bb36004803603810190610bae9190614d87565b6131ad565b604051610bc09190614dcc565b60405180910390f35b610be36004803603810190610bde9190614d40565b6131ca565b005b610bff6004803603810190610bfa9190614bab565b61323d565b005b610c1b6004803603810190610c169190614d87565b61324d565b604051610c289190614dcc565b60405180910390f35b610c4b6004803603810190610c469190614bab565b6132a6565b005b610c676004803603810190610c629190614bab565b61330e565b005b610c836004803603810190610c7e91906150e9565b613416565b005b610c9f6004803603810190610c9a9190614d87565b613486565b005b610cbb6004803603810190610cb69190614d40565b613508565b005b610cd76004803603810190610cd29190614bab565b6135b7565b005b610cf36004803603810190610cee9190614bab565b6136bf565b005b610d0f6004803603810190610d0a9190614d87565b6137d0565b604051610d1c9190614dcc565b60405180910390f35b610d2d6137ed565b604051610d3a9190615175565b60405180910390f35b610d4b6137f5565b73ffffffffffffffffffffffffffffffffffffffff16610d6961276d565b73ffffffffffffffffffffffffffffffffffffffff1614610dbf576040517f08c379a0000000000000000000000000000000000000000000000000000000008152600401610db6906151e8565b60405180910390fd5b60075f8473ffffffffffffffffffffffffffffffffffffffff1673ffffffffffffffffffffffffffffffffffffffff1681526020019081526020015f205f6101000a81549060ff02191690557fb71be9befd3ac90c1c9981d3b1161b3c2c6dcd741f13b34061aa251226a802df838383604051610e3e93929190615232565b60405180910390a1505050565b5f81806020019051810190610e6091906153d6565b90505f5b81518110156112d9575f828281518110610e8157610e8061541d565b5b602002602001015190505f610ea25f6004846137fc9092919063ffffffff16565b610eab90615483565b90505f610ed06004808551610ec09190615516565b856137fc9092919063ffffffff16565b9050610f106040518060400160405280602081526020017f7472616e736665724552433230496e28616464726573732c75696e7432353629815250613966565b7bffffffffffffffffffffffffffffffffffffffffffffffffffffffff1916827bffffffffffffffffffffffffffffffffffffffffffffffffffffffff191603610f6257610f5d8161179c565b6112c9565b610fa06040518060400160405280601b81526020017f7472616e736665724552433230416c6c496e2861646472657373290000000000815250613966565b7bffffffffffffffffffffffffffffffffffffffffffffffffffffffff1916827bffffffffffffffffffffffffffffffffffffffffffffffffffffffff191603610ff257610fed81612380565b6112c8565b6110306040518060400160405280601881526020017f6465706f73697428616464726573732c61646472657373290000000000000000815250613966565b7bffffffffffffffffffffffffffffffffffffffffffffffffffffffff1916827bffffffffffffffffffffffffffffffffffffffffffffffffffffffff1916036110825761107d81612de0565b6112c7565b6110c06040518060400160405280601981526020017f776974686472617728616464726573732c616464726573732900000000000000815250613966565b7bffffffffffffffffffffffffffffffffffffffffffffffffffffffff1916827bffffffffffffffffffffffffffffffffffffffffffffffffffffffff1916036111125761110d81613508565b6112c6565b611133604051806060016040528060278152602001616e7b60279139613966565b7bffffffffffffffffffffffffffffffffffffffffffffffffffffffff1916827bffffffffffffffffffffffffffffffffffffffffffffffffffffffff1916036111855761118081612efe565b6112c5565b6111a6604051806060016040528060288152602001616e5360289139613966565b7bffffffffffffffffffffffffffffffffffffffffffffffffffffffff1916827bffffffffffffffffffffffffffffffffffffffffffffffffffffffff1916036111f8576111f381611ed2565b6112c4565b6112366040518060400160405280601e81526020017f666c61736853776170416c6c4f75742875696e743235362c6279746573290000815250613966565b7bffffffffffffffffffffffffffffffffffffffffffffffffffffffff1916827bffffffffffffffffffffffffffffffffffffffffffffffffffffffff19160361128857611283816116f6565b6112c3565b6040517f08c379a00000000000000000000000000000000000000000000000000000000081526004016112ba906155b9565b60405180910390fd5b5b5b5b5b5b5b5050508080600101915050610e64565b505050565b6006602052805f5260405f205f915054906101000a900460ff1681565b5f81806020019051810190611310919061563c565b50905061131c8161324d565b61135b576040517f08c379a0000000000000000000000000000000000000000000000000000000008152600401611352906156ea565b60405180910390fd5b5050565b5f805b6001156114335761137283613976565b50809350819250505061138482612e8f565b6113c3576040517f08c379a00000000000000000000000000000000000000000000000000000000081526004016113ba90615778565b60405180910390fd5b6113cc81612e8f565b61140b576040517f08c379a000000000000000000000000000000000000000000000000000000000815260040161140290615778565b60405180910390fd5b611414836139cd565b156114295761142283613a0b565b925061142e565b611433565b611362565b505050565b5f6001151560075f8473ffffffffffffffffffffffffffffffffffffffff1673ffffffffffffffffffffffffffffffffffffffff1681526020019081526020015f205f9054906101000a900460ff161515149050919050565b5050565b61149d6137f5565b73ffffffffffffffffffffffffffffffffffffffff166114bb61276d565b73ffffffffffffffffffffffffffffffffffffffff1614611511576040517f08c379a0000000000000000000000000000000000000000000000000000000008152600401611508906151e8565b60405180910390fd5b60055f8473ffffffffffffffffffffffffffffffffffffffff1673ffffffffffffffffffffffffffffffffffffffff1681526020019081526020015f205f6101000a81549060ff02191690557f4e13b11ab98e672bd78295ef9cebe764dc617f95decf47d842c25b83abc0c72483838360405161159093929190615232565b60405180910390a1505050565b5f6001151560085f8473ffffffffffffffffffffffffffffffffffffffff1673ffffffffffffffffffffffffffffffffffffffff1681526020019081526020015f205f9054906101000a900460ff161515149050919050565b6116228361161b604051806060016040528060338152602001616e2060339139613966565b8484611911565b61164e83611647604051806060016040528060348152602001616ea260349139613966565b8484611911565b6116618363b858183f60e01b8484611911565b61166c838383612817565b505050565b6005602052805f5260405f205f915054906101000a900460ff1681565b6116ba836116b3604051806080016040528060438152602001616cf360439139613966565b8484611911565b6116e6836116df604051806080016040528060608152602001616d3660609139613966565b8484611911565b6116f1838383612817565b505050565b5f8180602001905181019061170b9190615796565b91505061171781612928565b5050565b6008602052805f5260405f205f915054906101000a900460ff1681565b5f8180602001905181019061174d919061563c565b50905061175981611438565b611798576040517f08c379a000000000000000000000000000000000000000000000000000000000815260040161178f90615860565b60405180910390fd5b5050565b5f818060200190518101906117b1919061563c565b5090506117bd81612e8f565b6117fc576040517f08c379a00000000000000000000000000000000000000000000000000000000081526004016117f3906158ee565b60405180910390fd5b5050565b6118086137f5565b73ffffffffffffffffffffffffffffffffffffffff1661182661276d565b73ffffffffffffffffffffffffffffffffffffffff161461187c576040517f08c379a0000000000000000000000000000000000000000000000000000000008152600401611873906151e8565b60405180910390fd5b600160065f8573ffffffffffffffffffffffffffffffffffffffff1673ffffffffffffffffffffffffffffffffffffffff1681526020019081526020015f205f6101000a81548160ff0219169083151502179055507f3562181221a42a19ddd03a82dfe06acab1905ceb65cdaf7d86a1d9fec664355283838360405161190493929190615232565b60405180910390a1505050565b6119196137f5565b73ffffffffffffffffffffffffffffffffffffffff1661193761276d565b73ffffffffffffffffffffffffffffffffffffffff161461198d576040517f08c379a0000000000000000000000000000000000000000000000000000000008152600401611984906151e8565b60405180910390fd5b60015f808673ffffffffffffffffffffffffffffffffffffffff1673ffffffffffffffffffffffffffffffffffffffff1681526020019081526020015f205f857bffffffffffffffffffffffffffffffffffffffffffffffffffffffff19167bffffffffffffffffffffffffffffffffffffffffffffffffffffffff191681526020019081526020015f205f6101000a81548160ff0219169083151502179055506001805f8673ffffffffffffffffffffffffffffffffffffffff1673ffffffffffffffffffffffffffffffffffffffff1681526020019081526020015f205f6101000a81548160ff02191690831515021790555060025f815480929190611a949061590c565b91905055507fef729aaa41b9fd994f9ff7c1960df214a84f722002e6cfbea31799cd0873a3ef84848484604051611ace9493929190615962565b60405180910390a150505050565b611ae46137f5565b73ffffffffffffffffffffffffffffffffffffffff16611b0261276d565b73ffffffffffffffffffffffffffffffffffffffff1614611b58576040517f08c379a0000000000000000000000000000000000000000000000000000000008152600401611b4f906151e8565b60405180910390fd5b600160095f8573ffffffffffffffffffffffffffffffffffffffff1673ffffffffffffffffffffffffffffffffffffffff1681526020019081526020015f205f6101000a81548160ff021916908315150217905550611bf683611bef6040518060400160405280600f81526020017f736574746c654465706f73697428290000000000000000000000000000000000815250613966565b8484611911565b611c3f83611c386040518060400160405280600e81526020017f736574746c6552656465656d2829000000000000000000000000000000000000815250613966565b8484611911565b611c8883611c816040518060400160405280601681526020017f736574746c654465706f7369742875696e743235362900000000000000000000815250613966565b8484611911565b611cd183611cca6040518060400160405280601581526020017f736574746c6552656465656d2875696e74323536290000000000000000000000815250613966565b8484611911565b7ffaa136302ac223cf7c1146490a741e4520e886fc22d7e759641453f432283d01838383604051611d0493929190615232565b60405180910390a1505050565b611d196137f5565b73ffffffffffffffffffffffffffffffffffffffff16611d3761276d565b73ffffffffffffffffffffffffffffffffffffffff1614611d8d576040517f08c379a0000000000000000000000000000000000000000000000000000000008152600401611d84906151e8565b60405180910390fd5b600160085f8573ffffffffffffffffffffffffffffffffffffffff1673ffffffffffffffffffffffffffffffffffffffff1681526020019081526020015f205f6101000a81548160ff0219169083151502179055507f628a44970c0e450415e3ae74334ea44f3307b74dbf677a1371190242bf2f3589838383604051611e1593929190615232565b60405180910390a1505050565b5f8082806020019051810190611e3891906159a0565b9250509150611e4682612e8f565b611e85576040517f08c379a0000000000000000000000000000000000000000000000000000000008152600401611e7c90615a3a565b60405180910390fd5b611e8e81612f24565b611ecd576040517f08c379a0000000000000000000000000000000000000000000000000000000008152600401611ec490615ac8565b60405180910390fd5b505050565b5f81806020019051810190611ee79190615ae6565b92505050611ef481612928565b5050565b611f0484848484613a4f565b50505050565b611f3683611f2f604051806060016040528060228152602001616dfe60229139613966565b8484611911565b611f41838383612542565b505050565b5f6001151560095f8473ffffffffffffffffffffffffffffffffffffffff1673ffffffffffffffffffffffffffffffffffffffff1681526020019081526020015f205f9054906101000a900460ff161515149050919050565b5f805f8473ffffffffffffffffffffffffffffffffffffffff1673ffffffffffffffffffffffffffffffffffffffff1681526020019081526020015f205f837bffffffffffffffffffffffffffffffffffffffffffffffffffffffff19167bffffffffffffffffffffffffffffffffffffffffffffffffffffffff191681526020019081526020015f205f9054906101000a900460ff16905092915050565b6120466146fd565b61204f5f61477b565b565b6120596137f5565b73ffffffffffffffffffffffffffffffffffffffff1661207761276d565b73ffffffffffffffffffffffffffffffffffffffff16146120cd576040517f08c379a00000000000000000000000000000000000000000000000000000000081526004016120c4906151e8565b60405180910390fd5b600160055f8573ffffffffffffffffffffffffffffffffffffffff1673ffffffffffffffffffffffffffffffffffffffff1681526020019081526020015f205f6101000a81548160ff0219169083151502179055507f62dd88c5ecfa60713a657640ebec4de26fc1aefa4afdb24e6d15a124fce7277983838360405161215593929190615232565b60405180910390a1505050565b5f61216b61276d565b905090565b5f818060200190518101906121859190615b52565b5091505061219281612f24565b6121d1576040517f08c379a00000000000000000000000000000000000000000000000000000000081526004016121c890615c38565b60405180910390fd5b5050565b5f80828060200190518101906121eb9190615d2a565b509350935050506121fb81612f24565b61223a576040517f08c379a000000000000000000000000000000000000000000000000000000000815260040161223190615e53565b60405180910390fd5b5f805f90505b83518110156122bb5783818151811061225c5761225b61541d565b5b6020026020010151915061226f82612e8f565b6122ae576040517f08c379a00000000000000000000000000000000000000000000000000000000081526004016122a590615a3a565b60405180910390fd5b8080600101915050612240565b5050505050565b5f818060200190518101906122d79190615b52565b509150506122e481612f24565b612323576040517f08c379a000000000000000000000000000000000000000000000000000000000815260040161231a90615f07565b60405180910390fd5b5050565b5f6001151560015f8473ffffffffffffffffffffffffffffffffffffffff1673ffffffffffffffffffffffffffffffffffffffff1681526020019081526020015f205f9054906101000a900460ff161515149050919050565b5f818060200190518101906123959190615f25565b90506123a081612e8f565b6123df576040517f08c379a00000000000000000000000000000000000000000000000000000000081526004016123d690615fc0565b60405180910390fd5b5050565b5f8390505f8173ffffffffffffffffffffffffffffffffffffffff166338d52e0f6040518163ffffffff1660e01b8152600401602060405180830381865afa158015612431573d5f803e3d5ffd5b505050506040513d601f19601f820116820180604052508101906124559190615fde565b90505f8590506124a48661249d6040518060400160405280601881526020017f6465706f7369742875696e743235362c61646472657373290000000000000000815250613966565b8787611911565b6124d0866124c9604051806060016040528060218152602001616ddd60219139613966565b8787611911565b612519866125126040518060400160405280601f81526020017f72656465656d2875696e743235362c616464726573732c616464726573732900815250613966565b8787611911565b612524868686612817565b61252f818686614840565b61253a828686614840565b505050505050565b61254a6137f5565b73ffffffffffffffffffffffffffffffffffffffff1661256861276d565b73ffffffffffffffffffffffffffffffffffffffff16146125be576040517f08c379a00000000000000000000000000000000000000000000000000000000081526004016125b5906151e8565b60405180910390fd5b600160035f8573ffffffffffffffffffffffffffffffffffffffff1673ffffffffffffffffffffffffffffffffffffffff1681526020019081526020015f205f6101000a81548160ff0219169083151502179055507fad90e2570fc4fe9f7437be3188d5c791c6662892d31731992aa88f5c8762198383838360405161264693929190615232565b60405180910390a1505050565b600a5f9054906101000a900460ff1681565b61266d6137f5565b73ffffffffffffffffffffffffffffffffffffffff1661268b61276d565b73ffffffffffffffffffffffffffffffffffffffff16146126e1576040517f08c379a00000000000000000000000000000000000000000000000000000000081526004016126d8906151e8565b60405180910390fd5b60065f8473ffffffffffffffffffffffffffffffffffffffff1673ffffffffffffffffffffffffffffffffffffffff1681526020019081526020015f205f6101000a81549060ff02191690557f1212f8ddb39de8e1a339460c95752d61100723efeaa34ccd94bca94393f4093883838360405161276093929190615232565b60405180910390a1505050565b5f600a60019054906101000a900473ffffffffffffffffffffffffffffffffffffffff16905090565b6009602052805f5260405f205f915054906101000a900460ff1681565b5f818060200190518101906127c8919061563c565b5090506127d48161159d565b612813576040517f08c379a000000000000000000000000000000000000000000000000000000000815260040161280a9061609f565b60405180910390fd5b5050565b61281f6137f5565b73ffffffffffffffffffffffffffffffffffffffff1661283d61276d565b73ffffffffffffffffffffffffffffffffffffffff1614612893576040517f08c379a000000000000000000000000000000000000000000000000000000000815260040161288a906151e8565b60405180910390fd5b600160075f8573ffffffffffffffffffffffffffffffffffffffff1673ffffffffffffffffffffffffffffffffffffffff1681526020019081526020015f205f6101000a81548160ff0219169083151502179055507f628a44970c0e450415e3ae74334ea44f3307b74dbf677a1371190242bf2f358983838360405161291b93929190615232565b60405180910390a1505050565b5f805b600115612af1576129455f846148e290919063ffffffff16565b915061297e6001806003601461295b91906160bd565b61296591906160bd565b61296f91906160bd565b846148e290919063ffffffff16565b905061298982612e8f565b6129c8576040517f08c379a00000000000000000000000000000000000000000000000000000000081526004016129bf90616160565b60405180910390fd5b6129d181612e8f565b612a10576040517f08c379a0000000000000000000000000000000000000000000000000000000008152600401612a0790616160565b60405180910390fd5b60018060036014612a2191906160bd565b612a2b91906160bd565b612a3591906160bd565b601460018060036014612a4891906160bd565b612a5291906160bd565b612a5c91906160bd565b612a6691906160bd565b612a7091906160bd565b835110612ae757612ae060018060036014612a8b91906160bd565b612a9591906160bd565b612a9f91906160bd565b60018060036014612ab091906160bd565b612aba91906160bd565b612ac491906160bd565b8551612ad09190615516565b856137fc9092919063ffffffff16565b9250612aec565b612af1565b61292b565b505050565b6003602052805f5260405f205f915054906101000a900460ff1681565b612b1b6137f5565b73ffffffffffffffffffffffffffffffffffffffff16612b3961276d565b73ffffffffffffffffffffffffffffffffffffffff1614612b8f576040517f08c379a0000000000000000000000000000000000000000000000000000000008152600401612b86906151e8565b60405180910390fd5b60045f8473ffffffffffffffffffffffffffffffffffffffff1673ffffffffffffffffffffffffffffffffffffffff1681526020019081526020015f205f6101000a81549060ff02191690557f3097928509c53a2dab9500431201d82b0d756e8f890fd01f4ae6b33b45687ea4838383604051612c0e93929190615232565b60405180910390a1505050565b5f602052815f5260405f20602052805f5260405f205f915091509054906101000a900460ff1681565b60025481565b612c5381611f46565b612c92576040517f08c379a0000000000000000000000000000000000000000000000000000000008152600401612c89906161c8565b60405180910390fd5b50565b6001602052805f5260405f205f915054906101000a900460ff1681565b5f6001151560045f8473ffffffffffffffffffffffffffffffffffffffff1673ffffffffffffffffffffffffffffffffffffffff1681526020019081526020015f205f9054906101000a900460ff161515149050919050565b612d136137f5565b73ffffffffffffffffffffffffffffffffffffffff16612d3161276d565b73ffffffffffffffffffffffffffffffffffffffff1614612d87576040517f08c379a0000000000000000000000000000000000000000000000000000000008152600401612d7e906151e8565b60405180910390fd5b82600a5f6101000a81548160ff0219169083151502179055507f50454d9d0025a28a39cac5a4b3f3101d29b6e413fbb64f75fb42eb6837b07718838383604051612dd3939291906161e6565b60405180910390a1505050565b5f8082806020019051810190612df69190616216565b91509150612e0382612e8f565b612e42576040517f08c379a0000000000000000000000000000000000000000000000000000000008152600401612e3990615fc0565b60405180910390fd5b612e4b81612f24565b612e8a576040517f08c379a0000000000000000000000000000000000000000000000000000000008152600401612e81906162c4565b60405180910390fd5b505050565b5f600a5f9054906101000a900460ff1680612ef757506001151560035f8473ffffffffffffffffffffffffffffffffffffffff1673ffffffffffffffffffffffffffffffffffffffff1681526020019081526020015f205f9054906101000a900460ff161515145b9050919050565b5f81806020019051810190612f139190615ae6565b92505050612f2081612928565b5050565b5f6001151560055f8473ffffffffffffffffffffffffffffffffffffffff1673ffffffffffffffffffffffffffffffffffffffff1681526020019081526020015f205f9054906101000a900460ff161515149050919050565b5f81806020019051810190612f9291906162e2565b5050509050612fa081612e8f565b612fdf576040517f08c379a0000000000000000000000000000000000000000000000000000000008152600401612fd690615a3a565b60405180910390fd5b5050565b612feb6137f5565b73ffffffffffffffffffffffffffffffffffffffff1661300961276d565b73ffffffffffffffffffffffffffffffffffffffff161461305f576040517f08c379a0000000000000000000000000000000000000000000000000000000008152600401613056906151e8565b60405180910390fd5b5f808573ffffffffffffffffffffffffffffffffffffffff1673ffffffffffffffffffffffffffffffffffffffff1681526020019081526020015f205f847bffffffffffffffffffffffffffffffffffffffffffffffffffffffff19167bffffffffffffffffffffffffffffffffffffffffffffffffffffffff191681526020019081526020015f205f6101000a81549060ff02191690557f37ea10f2d08f5a9803dfcd5abf3cfc7b0d6fcdf5fcbc36be9ea5a0b53d9a4d9b8484848460405161312c9493929190615962565b60405180910390a150505050565b5f8180602001905181019061314f91906163f3565b905061315e8160200151612f24565b61319d576040517f08c379a0000000000000000000000000000000000000000000000000000000008152600401613194906164aa565b60405180910390fd5b6131a9815f015161135f565b5050565b6007602052805f5260405f205f915054906101000a900460ff1681565b5f818060200190518101906131df919061656d565b90506131ee8160200151612f24565b61322d576040517f08c379a000000000000000000000000000000000000000000000000000000000815260040161322490616624565b60405180910390fd5b613239815f015161135f565b5050565b613248838383614840565b505050565b5f6001151560065f8473ffffffffffffffffffffffffffffffffffffffff1673ffffffffffffffffffffffffffffffffffffffff1681526020019081526020015f205f9054906101000a900460ff161515149050919050565b6132d2836132cb604051806060016040528060268152602001616d9660269139613966565b8484611911565b6132fe836132f7604051806060016040528060218152602001616dbc60219139613966565b8484611911565b613309838383612817565b505050565b6133166137f5565b73ffffffffffffffffffffffffffffffffffffffff1661333461276d565b73ffffffffffffffffffffffffffffffffffffffff161461338a576040517f08c379a0000000000000000000000000000000000000000000000000000000008152600401613381906151e8565b60405180910390fd5b60075f8473ffffffffffffffffffffffffffffffffffffffff1673ffffffffffffffffffffffffffffffffffffffff1681526020019081526020015f205f6101000a81549060ff02191690557fb71be9befd3ac90c1c9981d3b1161b3c2c6dcd741f13b34061aa251226a802df83838360405161340993929190615232565b60405180910390a1505050565b61345f846134586040518060400160405280601281526020017f6d756c746963616c6c2862797465735b5d290000000000000000000000000000815250613966565b8484611911565b61346a848383612817565b613475838383612817565b613480848383611d11565b50505050565b61348e6146fd565b5f73ffffffffffffffffffffffffffffffffffffffff168173ffffffffffffffffffffffffffffffffffffffff16036134fc576040517f08c379a00000000000000000000000000000000000000000000000000000000081526004016134f3906166b2565b60405180910390fd5b6135058161477b565b50565b5f808280602001905181019061351e9190616216565b9150915061352b82612e8f565b61356a576040517f08c379a000000000000000000000000000000000000000000000000000000000815260040161356190616740565b60405180910390fd5b61357381612f24565b6135b2576040517f08c379a00000000000000000000000000000000000000000000000000000000081526004016135a9906162c4565b60405180910390fd5b505050565b6135bf6137f5565b73ffffffffffffffffffffffffffffffffffffffff166135dd61276d565b73ffffffffffffffffffffffffffffffffffffffff1614613633576040517f08c379a000000000000000000000000000000000000000000000000000000000815260040161362a906151e8565b60405180910390fd5b60035f8473ffffffffffffffffffffffffffffffffffffffff1673ffffffffffffffffffffffffffffffffffffffff1681526020019081526020015f205f6101000a81549060ff02191690557f9ca3f065622f5f03f32b7157677a0e420c3a36ab45fd49f256ffebce3e3105878383836040516136b293929190615232565b60405180910390a1505050565b6136c76137f5565b73ffffffffffffffffffffffffffffffffffffffff166136e561276d565b73ffffffffffffffffffffffffffffffffffffffff161461373b576040517f08c379a0000000000000000000000000000000000000000000000000000000008152600401613732906151e8565b60405180910390fd5b600160045f8573ffffffffffffffffffffffffffffffffffffffff1673ffffffffffffffffffffffffffffffffffffffff1681526020019081526020015f205f6101000a81548160ff0219169083151502179055507fa8f9caaf4861720900294428e4ff34d37070c37afd26d96e6e4da75326d2c3ad8383836040516137c393929190615232565b60405180910390a1505050565b6004602052805f5260405f205f915054906101000a900460ff1681565b5f6001905090565b5f33905090565b606081601f8361380c91906160bd565b101561384d576040517f08c379a0000000000000000000000000000000000000000000000000000000008152600401613844906167a8565b60405180910390fd5b82828461385a91906160bd565b101561389b576040517f08c379a0000000000000000000000000000000000000000000000000000000008152600401613892906167a8565b60405180910390fd5b81836138a791906160bd565b845110156138ea576040517f08c379a00000000000000000000000000000000000000000000000000000000081526004016138e190616810565b60405180910390fd5b606082155f81146139095760405191505f82526020820160405261395a565b6040519150601f8416801560200281840101858101878315602002848b0101015b81831015613947578051835260208301925060208101905061392a565b50868552601f19601f8301166040525050505b50809150509392505050565b5f81805190602001209050919050565b5f805f61398c5f856148e290919063ffffffff16565b92506139a26014856149a590919063ffffffff16565b90506139c4600360146139b591906160bd565b856148e290919063ffffffff16565b91509193909250565b5f600360146139dc91906160bd565b6014600360146139ec91906160bd565b6139f691906160bd565b613a0091906160bd565b825110159050919050565b6060613a4860036014613a1e91906160bd565b60036014613a2c91906160bd565b8451613a389190615516565b846137fc9092919063ffffffff16565b9050919050565b613a57612162565b73ffffffffffffffffffffffffffffffffffffffff168473ffffffffffffffffffffffffffffffffffffffff1603156146f757613a9384612cb2565b613ad2576040517f08c379a0000000000000000000000000000000000000000000000000000000008152600401613ac990616878565b60405180910390fd5b5f82825f90600492613ae69392919061689e565b90613af191906168e2565b9050365f84846004908092613b089392919061689e565b915091505f600a5f9054906101000a900460ff168015613b2d5750613b2c84614a59565b5b905080613bd557613b3e8785611f9f565b613bd457613b4b87612327565b613b8a576040517f08c379a0000000000000000000000000000000000000000000000000000000008152600401613b819061698a565b60405180910390fd5b613b948785611f9f565b613bd3576040517f08c379a0000000000000000000000000000000000000000000000000000000008152600401613bca90616a18565b60405180910390fd5b5b5b613bf6604051806080016040528060438152602001616cf360439139613966565b7bffffffffffffffffffffffffffffffffffffffffffffffffffffffff1916847bffffffffffffffffffffffffffffffffffffffffffffffffffffffff191603613c8b57613c8683838080601f0160208091040260200160405190810160405280939291908181526020018383808284375f81840152601f19601f820116905080830192505050505050506121d5565b6146f2565b613cac604051806060016040528060338152602001616e2060339139613966565b7bffffffffffffffffffffffffffffffffffffffffffffffffffffffff1916847bffffffffffffffffffffffffffffffffffffffffffffffffffffffff191603613d4157613d3c83838080601f0160208091040260200160405190810160405280939291908181526020018383808284375f81840152601f19601f820116905080830192505050505050506131ca565b6146f1565b63b858183f60e01b847bffffffffffffffffffffffffffffffffffffffffffffffffffffffff191603613dc157600a5f9054906101000a900460ff16613dbc576040517f08c379a0000000000000000000000000000000000000000000000000000000008152600401613db390616acc565b60405180910390fd5b6146f0565b613dff6040518060400160405280601281526020017f6d756c746963616c6c2862797465735b5d290000000000000000000000000000815250613966565b7bffffffffffffffffffffffffffffffffffffffffffffffffffffffff1916847bffffffffffffffffffffffffffffffffffffffffffffffffffffffff191603613e9457613e8f83838080601f0160208091040260200160405190810160405280939291908181526020018383808284375f81840152601f19601f82011690508083019250505050505050610e4b565b6146ef565b613ed26040518060400160405280601981526020017f7472616e7366657228616464726573732c75696e743235362900000000000000815250613966565b7bffffffffffffffffffffffffffffffffffffffffffffffffffffffff1916847bffffffffffffffffffffffffffffffffffffffffffffffffffffffff191603613f6757613f6283838080601f0160208091040260200160405190810160405280939291908181526020018383808284375f81840152601f19601f820116905080830192505050505050506112fb565b6146ee565b613fa56040518060400160405280601881526020017f617070726f766528616464726573732c75696e74323536290000000000000000815250613966565b7bffffffffffffffffffffffffffffffffffffffffffffffffffffffff1916847bffffffffffffffffffffffffffffffffffffffffffffffffffffffff19160361403a5761403583838080601f0160208091040260200160405190810160405280939291908181526020018383808284375f81840152601f19601f82011690508083019250505050505050611738565b6146ed565b61405b604051806060016040528060228152602001616dfe60229139613966565b7bffffffffffffffffffffffffffffffffffffffffffffffffffffffff1916847bffffffffffffffffffffffffffffffffffffffffffffffffffffffff1916036140f0576140eb83838080601f0160208091040260200160405190810160405280939291908181526020018383808284375f81840152601f19601f820116905080830192505050505050506127b3565b6146ec565b614111604051806060016040528060268152602001616d9660269139613966565b7bffffffffffffffffffffffffffffffffffffffffffffffffffffffff1916847bffffffffffffffffffffffffffffffffffffffffffffffffffffffff1916036141a6576141a183838080601f0160208091040260200160405190810160405280939291908181526020018383808284375f81840152601f19601f82011690508083019250505050505050612f7d565b6146eb565b6141c7604051806060016040528060218152602001616dbc60219139613966565b7bffffffffffffffffffffffffffffffffffffffffffffffffffffffff1916847bffffffffffffffffffffffffffffffffffffffffffffffffffffffff19160361425c5761425783838080601f0160208091040260200160405190810160405280939291908181526020018383808284375f81840152601f19601f82011690508083019250505050505050611e22565b6146ea565b61429a6040518060400160405280600f81526020017f736574746c654465706f73697428290000000000000000000000000000000000815250613966565b7bffffffffffffffffffffffffffffffffffffffffffffffffffffffff1916847bffffffffffffffffffffffffffffffffffffffffffffffffffffffff1916036142ec576142e787612c4a565b6146e9565b61432a6040518060400160405280600e81526020017f736574746c6552656465656d2829000000000000000000000000000000000000815250613966565b7bffffffffffffffffffffffffffffffffffffffffffffffffffffffff1916847bffffffffffffffffffffffffffffffffffffffffffffffffffffffff19160361437c5761437787612c4a565b6146e8565b6143ba6040518060400160405280601681526020017f736574746c654465706f7369742875696e743235362900000000000000000000815250613966565b7bffffffffffffffffffffffffffffffffffffffffffffffffffffffff1916847bffffffffffffffffffffffffffffffffffffffffffffffffffffffff19160361440c5761440787612c4a565b6146e7565b61444a6040518060400160405280601581526020017f736574746c6552656465656d2875696e74323536290000000000000000000000815250613966565b7bffffffffffffffffffffffffffffffffffffffffffffffffffffffff1916847bffffffffffffffffffffffffffffffffffffffffffffffffffffffff19160361449c5761449787612c4a565b6146e6565b6144da6040518060400160405280601881526020017f6465706f7369742875696e743235362c61646472657373290000000000000000815250613966565b7bffffffffffffffffffffffffffffffffffffffffffffffffffffffff1916847bffffffffffffffffffffffffffffffffffffffffffffffffffffffff191603156146e557614540604051806060016040528060218152602001616ddd60219139613966565b7bffffffffffffffffffffffffffffffffffffffffffffffffffffffff1916847bffffffffffffffffffffffffffffffffffffffffffffffffffffffff1916036145d5576145d083838080601f0160208091040260200160405190810160405280939291908181526020018383808284375f81840152601f19601f820116905080830192505050505050506122c2565b6146e4565b6146136040518060400160405280601f81526020017f72656465656d2875696e743235362c616464726573732c616464726573732900815250613966565b7bffffffffffffffffffffffffffffffffffffffffffffffffffffffff1916847bffffffffffffffffffffffffffffffffffffffffffffffffffffffff1916036146a8576146a383838080601f0160208091040260200160405190810160405280939291908181526020018383808284375f81840152601f19601f82011690508083019250505050505050612170565b6146e3565b6040517f08c379a00000000000000000000000000000000000000000000000000000000081526004016146da90616b34565b60405180910390fd5b5b5b5b5b5b5b5b5b5b5b5b5b5b5b5b505050505b50505050565b6147056137f5565b73ffffffffffffffffffffffffffffffffffffffff1661472361276d565b73ffffffffffffffffffffffffffffffffffffffff1614614779576040517f08c379a0000000000000000000000000000000000000000000000000000000008152600401614770906151e8565b60405180910390fd5b565b5f600a60019054906101000a900473ffffffffffffffffffffffffffffffffffffffff16905081600a60016101000a81548173ffffffffffffffffffffffffffffffffffffffff021916908373ffffffffffffffffffffffffffffffffffffffff1602179055508173ffffffffffffffffffffffffffffffffffffffff168173ffffffffffffffffffffffffffffffffffffffff167f8be0079c531659141344cd1fd0a4f28419497f9722a3daafe3b4186f6b6457e060405160405180910390a35050565b614889836148826040518060400160405280601981526020017f7472616e7366657228616464726573732c75696e743235362900000000000000815250613966565b8484611911565b6148d2836148cb6040518060400160405280601881526020017f617070726f766528616464726573732c75696e74323536290000000000000000815250613966565b8484611911565b6148dd838383612542565b505050565b5f816014836148f191906160bd565b1015614932576040517f08c379a000000000000000000000000000000000000000000000000000000000815260040161492990616b9c565b60405180910390fd5b60148261493f91906160bd565b83511015614982576040517f08c379a000000000000000000000000000000000000000000000000000000000815260040161497990616c04565b60405180910390fd5b5f6c01000000000000000000000000836020860101510490508091505092915050565b5f816003836149b491906160bd565b10156149f5576040517f08c379a00000000000000000000000000000000000000000000000000000000081526004016149ec90616c6c565b60405180910390fd5b600382614a0291906160bd565b83511015614a45576040517f08c379a0000000000000000000000000000000000000000000000000000000008152600401614a3c90616cd4565b60405180910390fd5b5f8260038501015190508091505092915050565b5f614a986040518060400160405280601881526020017f617070726f766528616464726573732c75696e74323536290000000000000000815250613966565b7bffffffffffffffffffffffffffffffffffffffffffffffffffffffff1916827bffffffffffffffffffffffffffffffffffffffffffffffffffffffff1916149050919050565b5f604051905090565b5f80fd5b5f80fd5b5f73ffffffffffffffffffffffffffffffffffffffff82169050919050565b5f614b1982614af0565b9050919050565b614b2981614b0f565b8114614b33575f80fd5b50565b5f81359050614b4481614b20565b92915050565b5f80fd5b5f80fd5b5f80fd5b5f8083601f840112614b6b57614b6a614b4a565b5b8235905067ffffffffffffffff811115614b8857614b87614b4e565b5b602083019150836001820283011115614ba457614ba3614b52565b5b9250929050565b5f805f60408486031215614bc257614bc1614ae8565b5b5f614bcf86828701614b36565b935050602084013567ffffffffffffffff811115614bf057614bef614aec565b5b614bfc86828701614b56565b92509250509250925092565b5f80fd5b5f601f19601f8301169050919050565b7f4e487b71000000000000000000000000000000000000000000000000000000005f52604160045260245ffd5b614c5282614c0c565b810181811067ffffffffffffffff82111715614c7157614c70614c1c565b5b80604052505050565b5f614c83614adf565b9050614c8f8282614c49565b919050565b5f67ffffffffffffffff821115614cae57614cad614c1c565b5b614cb782614c0c565b9050602081019050919050565b828183375f83830152505050565b5f614ce4614cdf84614c94565b614c7a565b905082815260208101848484011115614d0057614cff614c08565b5b614d0b848285614cc4565b509392505050565b5f82601f830112614d2757614d26614b4a565b5b8135614d37848260208601614cd2565b91505092915050565b5f60208284031215614d5557614d54614ae8565b5b5f82013567ffffffffffffffff811115614d7257614d71614aec565b5b614d7e84828501614d13565b91505092915050565b5f60208284031215614d9c57614d9b614ae8565b5b5f614da984828501614b36565b91505092915050565b5f8115159050919050565b614dc681614db2565b82525050565b5f602082019050614ddf5f830184614dbd565b92915050565b5f8060408385031215614dfb57614dfa614ae8565b5b5f614e0885828601614b36565b925050602083013567ffffffffffffffff811115614e2957614e28614aec565b5b614e3585828601614d13565b9150509250929050565b5f7fffffffff0000000000000000000000000000000000000000000000000000000082169050919050565b614e7381614e3f565b8114614e7d575f80fd5b50565b5f81359050614e8e81614e6a565b92915050565b5f805f8060608587031215614eac57614eab614ae8565b5b5f614eb987828801614b36565b9450506020614eca87828801614e80565b935050604085013567ffffffffffffffff811115614eeb57614eea614aec565b5b614ef787828801614b56565b925092505092959194509250565b5f8083601f840112614f1a57614f19614b4a565b5b8235905067ffffffffffffffff811115614f3757614f36614b4e565b5b602083019150836001820283011115614f5357614f52614b52565b5b9250929050565b5f805f8060608587031215614f7257614f71614ae8565b5b5f614f7f87828801614b36565b9450506020614f9087828801614b36565b935050604085013567ffffffffffffffff811115614fb157614fb0614aec565b5b614fbd87828801614f05565b925092505092959194509250565b5f8060408385031215614fe157614fe0614ae8565b5b5f614fee85828601614b36565b9250506020614fff85828601614e80565b9150509250929050565b61501281614b0f565b82525050565b5f60208201905061502b5f830184615009565b92915050565b5f819050919050565b61504381615031565b82525050565b5f60208201905061505c5f83018461503a565b92915050565b61506b81614db2565b8114615075575f80fd5b50565b5f8135905061508681615062565b92915050565b5f805f604084860312156150a3576150a2614ae8565b5b5f6150b086828701615078565b935050602084013567ffffffffffffffff8111156150d1576150d0614aec565b5b6150dd86828701614b56565b92509250509250925092565b5f805f806060858703121561510157615100614ae8565b5b5f61510e87828801614b36565b945050602061511f87828801614b36565b935050604085013567ffffffffffffffff8111156151405761513f614aec565b5b61514c87828801614b56565b925092505092959194509250565b5f60ff82169050919050565b61516f8161515a565b82525050565b5f6020820190506151885f830184615166565b92915050565b5f82825260208201905092915050565b7f4f776e61626c653a2063616c6c6572206973206e6f7420746865206f776e65725f82015250565b5f6151d260208361518e565b91506151dd8261519e565b602082019050919050565b5f6020820190508181035f8301526151ff816151c6565b9050919050565b5f615211838561518e565b935061521e838584614cc4565b61522783614c0c565b840190509392505050565b5f6040820190506152455f830186615009565b8181036020830152615258818486615206565b9050949350505050565b5f67ffffffffffffffff82111561527c5761527b614c1c565b5b602082029050602081019050919050565b5f5b838110156152aa57808201518184015260208101905061528f565b5f8484015250505050565b5f6152c76152c284614c94565b614c7a565b9050828152602081018484840111156152e3576152e2614c08565b5b6152ee84828561528d565b509392505050565b5f82601f83011261530a57615309614b4a565b5b815161531a8482602086016152b5565b91505092915050565b5f61533561533084615262565b614c7a565b9050808382526020820190506020840283018581111561535857615357614b52565b5b835b8181101561539f57805167ffffffffffffffff81111561537d5761537c614b4a565b5b80860161538a89826152f6565b8552602085019450505060208101905061535a565b5050509392505050565b5f82601f8301126153bd576153bc614b4a565b5b81516153cd848260208601615323565b91505092915050565b5f602082840312156153eb576153ea614ae8565b5b5f82015167ffffffffffffffff81111561540857615407614aec565b5b615414848285016153a9565b91505092915050565b7f4e487b71000000000000000000000000000000000000000000000000000000005f52603260045260245ffd5b5f81519050919050565b5f819050602082019050919050565b5f61546e8251614e3f565b80915050919050565b5f82821b905092915050565b5f61548d8261544a565b8261549784615454565b90506154a281615463565b925060048210156154e2576154dd7fffffffff0000000000000000000000000000000000000000000000000000000083600403600802615477565b831692505b5050919050565b7f4e487b71000000000000000000000000000000000000000000000000000000005f52601160045260245ffd5b5f61552082615031565b915061552b83615031565b9250828203905081811115615543576155426154e9565b5b92915050565b7f76616c69646174655f3164656c74614d756c746963616c6c3a20556e6b6e6f775f8201527f6e2066756e6374696f6e2073656c6563746f7200000000000000000000000000602082015250565b5f6155a360338361518e565b91506155ae82615549565b604082019050919050565b5f6020820190508181035f8301526155d081615597565b9050919050565b5f6155e182614af0565b9050919050565b6155f1816155d7565b81146155fb575f80fd5b50565b5f8151905061560c816155e8565b92915050565b61561b81615031565b8114615625575f80fd5b50565b5f8151905061563681615612565b92915050565b5f806040838503121561565257615651614ae8565b5b5f61565f858286016155fe565b925050602061567085828601615628565b9150509250929050565b7f76616c69646174655f7472616e736665723a20526563656976657220616464725f8201527f657373206e6f742077686974656c697374656420627920477561726400000000602082015250565b5f6156d4603c8361518e565b91506156df8261567a565b604082019050919050565b5f6020820190508181035f830152615701816156c8565b9050919050565b7f76616c6964617465556e69737761705633506174683a20546f6b656e206e6f745f8201527f20616c6c6f776564000000000000000000000000000000000000000000000000602082015250565b5f61576260288361518e565b915061576d82615708565b604082019050919050565b5f6020820190508181035f83015261578f81615756565b9050919050565b5f80604083850312156157ac576157ab614ae8565b5b5f6157b985828601615628565b925050602083015167ffffffffffffffff8111156157da576157d9614aec565b5b6157e6858286016152f6565b9150509250929050565b7f76616c69646174655f617070726f76653a20417070726f7665206164647265735f8201527f7320646f6573206e6f74206d6174636800000000000000000000000000000000602082015250565b5f61584a60308361518e565b9150615855826157f0565b604082019050919050565b5f6020820190508181035f8301526158778161583e565b9050919050565b7f76616c69646174655f7472616e736665724552433230496e3a20546f6b656e205f8201527f6e6f7420616c6c6f776564000000000000000000000000000000000000000000602082015250565b5f6158d8602b8361518e565b91506158e38261587e565b604082019050919050565b5f6020820190508181035f830152615905816158cc565b9050919050565b5f61591682615031565b91507fffffffffffffffffffffffffffffffffffffffffffffffffffffffffffffffff8203615948576159476154e9565b5b600182019050919050565b61595c81614e3f565b82525050565b5f6060820190506159755f830187615009565b6159826020830186615953565b8181036040830152615995818486615206565b905095945050505050565b5f805f606084860312156159b7576159b6614ae8565b5b5f6159c4868287016155fe565b93505060206159d586828701615628565b92505060406159e6868287016155fe565b9150509250925092565b7f546f6b656e206e6f7420616c6c6f7765640000000000000000000000000000005f82015250565b5f615a2460118361518e565b9150615a2f826159f0565b602082019050919050565b5f6020820190508181035f830152615a5181615a18565b9050919050565b7f52656365697665722061646472657373206e6f742077686974656c69737465645f8201527f2062792047756172640000000000000000000000000000000000000000000000602082015250565b5f615ab260298361518e565b9150615abd82615a58565b604082019050919050565b5f6020820190508181035f830152615adf81615aa6565b9050919050565b5f805f60608486031215615afd57615afc614ae8565b5b5f615b0a86828701615628565b9350506020615b1b86828701615628565b925050604084015167ffffffffffffffff811115615b3c57615b3b614aec565b5b615b48868287016152f6565b9150509250925092565b5f805f60608486031215615b6957615b68614ae8565b5b5f615b7686828701615628565b9350506020615b87868287016155fe565b9250506040615b98868287016155fe565b9150509250925092565b7f76616c69646174655f4552433436323652656465656d3a2052656365697665725f8201527f2061646472657373206e6f742077686974656c6973746564206279204775617260208201527f6400000000000000000000000000000000000000000000000000000000000000604082015250565b5f615c2260418361518e565b9150615c2d82615ba2565b606082019050919050565b5f6020820190508181035f830152615c4f81615c16565b9050919050565b5f67ffffffffffffffff821115615c7057615c6f614c1c565b5b602082029050602081019050919050565b5f81519050615c8f81614b20565b92915050565b5f615ca7615ca284615c56565b614c7a565b90508083825260208201905060208402830185811115615cca57615cc9614b52565b5b835b81811015615cf35780615cdf8882615c81565b845260208401935050602081019050615ccc565b5050509392505050565b5f82601f830112615d1157615d10614b4a565b5b8151615d21848260208601615c95565b91505092915050565b5f805f805f60a08688031215615d4357615d42614ae8565b5b5f615d5088828901615628565b9550506020615d6188828901615628565b945050604086015167ffffffffffffffff811115615d8257615d81614aec565b5b615d8e88828901615cfd565b9350506060615d9f888289016155fe565b9250506080615db088828901615628565b9150509295509295909350565b7f76616c69646174655f737761704578616374546f6b656e73466f72546f6b656e5f8201527f733a2052656365697665722061646472657373206e6f742077686974656c697360208201527f7465642062792047756172640000000000000000000000000000000000000000604082015250565b5f615e3d604c8361518e565b9150615e4882615dbd565b606082019050919050565b5f6020820190508181035f830152615e6a81615e31565b9050919050565b7f76616c69646174655f455243343632365769746864726177616c3a20526563655f8201527f697665722061646472657373206e6f742077686974656c69737465642062792060208201527f4775617264000000000000000000000000000000000000000000000000000000604082015250565b5f615ef160458361518e565b9150615efc82615e71565b606082019050919050565b5f6020820190508181035f830152615f1e81615ee5565b9050919050565b5f60208284031215615f3a57615f39614ae8565b5b5f615f47848285016155fe565b91505092915050565b7f76616c69646174655f7472616e736665724552433230416c6c496e3a20546f6b5f8201527f656e206e6f7420616c6c6f776564000000000000000000000000000000000000602082015250565b5f615faa602e8361518e565b9150615fb582615f50565b604082019050919050565b5f6020820190508181035f830152615fd781615f9e565b9050919050565b5f60208284031215615ff357615ff2614ae8565b5b5f61600084828501615c81565b91505092915050565b7f76616c69646174655f617070726f766544656c65676174696f6e3a20417070725f8201527f6f76652064656c65676174696f6e206164647265737320646f6573206e6f742060208201527f6d61746368000000000000000000000000000000000000000000000000000000604082015250565b5f61608960458361518e565b915061609482616009565b606082019050919050565b5f6020820190508181035f8301526160b68161607d565b9050919050565b5f6160c782615031565b91506160d283615031565b92508282019050808211156160ea576160e96154e9565b5b92915050565b7f76616c69646174653164656c7461506174683a20546f6b656e206e6f7420616c5f8201527f6c6f776564000000000000000000000000000000000000000000000000000000602082015250565b5f61614a60258361518e565b9150616155826160f0565b604082019050919050565b5f6020820190508181035f8301526161778161613e565b9050919050565b7f5661756c74206e6f7420616c6c6f7765640000000000000000000000000000005f82015250565b5f6161b260118361518e565b91506161bd8261617e565b602082019050919050565b5f6020820190508181035f8301526161df816161a6565b9050919050565b5f6040820190506161f95f830186614dbd565b818103602083015261620c818486615206565b9050949350505050565b5f806040838503121561622c5761622b614ae8565b5b5f616239858286016155fe565b925050602061624a858286016155fe565b9150509250929050565b7f76616c69646174655f6465706f7369743a2052656365697665722061646472655f8201527f7373206e6f742077686974656c69737465642062792047756172640000000000602082015250565b5f6162ae603b8361518e565b91506162b982616254565b604082019050919050565b5f6020820190508181035f8301526162db816162a2565b9050919050565b5f805f80608085870312156162fa576162f9614ae8565b5b5f616307878288016155fe565b945050602061631887828801615628565b9350506040616329878288016155fe565b925050606061633a87828801615628565b91505092959194509250565b5f80fd5b5f80fd5b5f60a0828403121561636357616362616346565b5b61636d60a0614c7a565b90505f82015167ffffffffffffffff81111561638c5761638b61634a565b5b616398848285016152f6565b5f8301525060206163ab84828501615c81565b60208301525060406163bf84828501615628565b60408301525060606163d384828501615628565b60608301525060806163e784828501615628565b60808301525092915050565b5f6020828403121561640857616407614ae8565b5b5f82015167ffffffffffffffff81111561642557616424614aec565b5b6164318482850161634e565b91505092915050565b7f76616c69646174655f65786163744f75747075743a20526563656976657220615f8201527f646472657373206e6f742077686974656c697374656420627920477561726400602082015250565b5f616494603f8361518e565b915061649f8261643a565b604082019050919050565b5f6020820190508181035f8301526164c181616488565b9050919050565b5f60a082840312156164dd576164dc616346565b5b6164e760a0614c7a565b90505f82015167ffffffffffffffff8111156165065761650561634a565b5b616512848285016152f6565b5f83015250602061652584828501615c81565b602083015250604061653984828501615628565b604083015250606061654d84828501615628565b606083015250608061656184828501615628565b60808301525092915050565b5f6020828403121561658257616581614ae8565b5b5f82015167ffffffffffffffff81111561659f5761659e614aec565b5b6165ab848285016164c8565b91505092915050565b7f76616c69646174655f6578616374496e7075743a2052656365697665722061645f8201527f6472657373206e6f742077686974656c69737465642062792047756172640000602082015250565b5f61660e603e8361518e565b9150616619826165b4565b604082019050919050565b5f6020820190508181035f83015261663b81616602565b9050919050565b7f4f776e61626c653a206e6577206f776e657220697320746865207a65726f20615f8201527f6464726573730000000000000000000000000000000000000000000000000000602082015250565b5f61669c60268361518e565b91506166a782616642565b604082019050919050565b5f6020820190508181035f8301526166c981616690565b9050919050565b7f76616c69646174655f77697468647261773a20546f6b656e206e6f7420616c6c5f8201527f6f77656400000000000000000000000000000000000000000000000000000000602082015250565b5f61672a60248361518e565b9150616735826166d0565b604082019050919050565b5f6020820190508181035f8301526167578161671e565b9050919050565b7f736c6963655f6f766572666c6f770000000000000000000000000000000000005f82015250565b5f616792600e8361518e565b915061679d8261675e565b602082019050919050565b5f6020820190508181035f8301526167bf81616786565b9050919050565b7f736c6963655f6f75744f66426f756e64730000000000000000000000000000005f82015250565b5f6167fa60118361518e565b9150616805826167c6565b602082019050919050565b5f6020820190508181035f830152616827816167ee565b9050919050565b7f76616c696461746543616c6c3a2053656e646572206e6f7420616c6c6f7765645f82015250565b5f61686260208361518e565b915061686d8261682e565b602082019050919050565b5f6020820190508181035f83015261688f81616856565b9050919050565b5f80fd5b5f80fd5b5f80858511156168b1576168b0616896565b5b838611156168c2576168c161689a565b5b6001850283019150848603905094509492505050565b5f82905092915050565b5f6168ed83836168d8565b826168f88135614e3f565b92506004821015616938576169337fffffffff0000000000000000000000000000000000000000000000000000000083600403600802615477565b831692505b505092915050565b7f76616c696461746543616c6c3a20746172676574206e6f7420616c6c6f7765645f82015250565b5f61697460208361518e565b915061697f82616940565b602082019050919050565b5f6020820190508181035f8301526169a181616968565b9050919050565b7f76616c696461746543616c6c3a2073656c6563746f72206e6f7420616c6c6f775f8201527f6564206f6e207468652074617267657400000000000000000000000000000000602082015250565b5f616a0260308361518e565b9150616a0d826169a8565b604082019050919050565b5f6020820190508181035f830152616a2f816169f6565b9050919050565b7f76616c696461746543616c6c3a2053776170526f7574657230322069732063755f8201527f7272656e746c7920737570706f72746564206f6e6c79207769746820616e794160208201527f737365742077686974656c697374000000000000000000000000000000000000604082015250565b5f616ab6604e8361518e565b9150616ac182616a36565b606082019050919050565b5f6020820190508181035f830152616ae381616aaa565b9050919050565b7f556e6b6e6f776e2066756e6374696f6e2073656c6563746f72000000000000005f82015250565b5f616b1e60198361518e565b9150616b2982616aea565b602082019050919050565b5f6020820190508181035f830152616b4b81616b12565b9050919050565b7f746f416464726573735f6f766572666c6f7700000000000000000000000000005f82015250565b5f616b8660128361518e565b9150616b9182616b52565b602082019050919050565b5f6020820190508181035f830152616bb381616b7a565b9050919050565b7f746f416464726573735f6f75744f66426f756e647300000000000000000000005f82015250565b5f616bee60158361518e565b9150616bf982616bba565b602082019050919050565b5f6020820190508181035f830152616c1b81616be2565b9050919050565b7f746f55696e7432345f6f766572666c6f770000000000000000000000000000005f82015250565b5f616c5660118361518e565b9150616c6182616c22565b602082019050919050565b5f6020820190508181035f830152616c8381616c4a565b9050919050565b7f746f55696e7432345f6f75744f66426f756e64730000000000000000000000005f82015250565b5f616cbe60148361518e565b9150616cc982616c8a565b602082019050919050565b5f6020820190508181035f830152616ceb81616cb2565b905091905056fe737761704578616374546f6b656e73466f72546f6b656e732875696e743235362c75696e743235362c616464726573735b5d2c616464726573732c75696e7432353629737761704578616374546f6b656e73466f72546f6b656e73537570706f7274696e674665654f6e5472616e73666572546f6b656e732875696e743235362c75696e743235362c616464726573735b5d2c616464726573732c75696e7432353629737570706c7928616464726573732c75696e743235362c616464726573732c75696e74313629776974686472617728616464726573732c75696e743235362c616464726573732977697468647261772875696e743235362c616464726573732c6164647265737329617070726f766544656c65676174696f6e28616464726573732c75696e74323536296578616374496e707574282862797465732c616464726573732c75696e743235362c75696e743235362c75696e743235362929666c6173685377617045786163744f75742875696e743235362c75696e743235362c627974657329666c617368537761704578616374496e2875696e743235362c75696e743235362c62797465732965786163744f7574707574282862797465732c616464726573732c75696e743235362c75696e743235362c75696e743235362929a2646970667358221220634ab6496571a47361d4228bc8121d88d75197976411550648aaf4bc732ac07464736f6c63430008170033","linkReferences":{}},"methodIdentifiers":{"assetManager()":"94217ad1","delegate(address,(bytes32,address))":"45e49f02","getWithdrawAddress()":"e8e7f800","guard()":"7ceab3b1","initialiseOwnership(address)":"37cfecf2","isDisabled()":"6c57f5a9","owner()":"8da5cb5b","performCall(address,bytes)":"d2f73e3d","renounceOwnership()":"715018a6","resetGuard(address)":"d1357336","transferOwnership(address)":"f2fde38b","updateAssetManager(address,string)":"4a0e159d","withdrawAddress()":"1581b600"},"id":6}