{"abi":[{"type":"function","name":"isAllowedVeloraSwapper","inputs":[{"name":"swapper","type":"address","internalType":"address"}],"outputs":[{"name":"","type":"bool","internalType":"bool"}],"stateMutability":"view"},{"type":"function","name":"isDeployed","inputs":[],"outputs":[{"name":"","type":"bool","internalType":"bool"}],"stateMutability":"pure"},{"type":"function","name":"validateAndGetPreBalance","inputs":[{"name":"safeAddress","type":"address","internalType":"address"},{"name":"augustusSwapper","type":"address","internalType":"address"},{"name":"receiver","type":"address","internalType":"address"},{"name":"tokenIn","type":"address","internalType":"address"},{"name":"tokenOut","type":"address","internalType":"address"}],"outputs":[{"name":"","type":"uint256","internalType":"uint256"}],"stateMutability":"view"},{"type":"event","name":"VeloraSwapExecuted","inputs":[{"name":"timestamp","type":"uint256","indexed":true,"internalType":"uint256"},{"name":"augustusSwapper","type":"address","indexed":true,"internalType":"address"},{"name":"tokenIn","type":"address","indexed":false,"internalType":"address"},{"name":"tokenOut","type":"address","indexed":false,"internalType":"address"},{"name":"amountIn","type":"uint256","indexed":false,"internalType":"uint256"},{"name":"amountOut","type":"uint256","indexed":false,"internalType":"uint256"},{"name":"minAmountOut","type":"uint256","indexed":false,"internalType":"uint256"}],"anonymous":false},{"type":"event","name":"VeloraSwapperApproved","inputs":[{"name":"augustusSwapper","type":"address","indexed":false,"internalType":"address"},{"name":"notes","type":"string","indexed":false,"internalType":"string"}],"anonymous":false}],"bytecode":{"object":"0x60808060405234601b5761073a90816100208239308160080152f35b5f80fdfe608080604052307f0000000000000000000000000000000000000000000000000000000000000000146004361015610035575f80fd5b5f3560e01c918263613d7da9146104e857508163699464441461042157508063c52046de1461040b578063caab1492146100a75763f84756aa14610077575f80fd5b60203660031901126100a357602060ff61009761009261064e565b6106dd565b54166040519015158152f35b5f80fd5b60a03660031901126100a3576100bb61064e565b6100c3610664565b906100cc61067a565b6100d4610690565b906084359360018060a01b0385168095036100a3576100f460ff916106dd565b5416156103c957604051630be8c97b60e41b8152336004820152602081602481305afa908115610245575f916103aa575b50156103705760405163d075f9bb60e01b81526001600160a01b039091166004820152602081602481305afa908115610245575f91610351575b501561031557604051630c537bed60e41b81526001600160a01b039091166004820152602081602481305afa908115610245575f916102f6575b50156102bb57604051630c537bed60e41b815260048101839052602081602481305afa908115610245575f9161028c575b5015610250576040516370a0823160e01b81526001600160a01b03909116600482015290602090829060249082905afa8015610245575f90610212575b602090604051908152f35b506020813d60201161023d575b8161022c602093836106a6565b810103126100a35760209051610207565b3d915061021f565b6040513d5f823e3d90fd5b60405162461bcd60e51b81526020600482015260146024820152731d1bdad95b93dd5d081b9bdd08185b1b1bddd95960621b6044820152606490fd5b6102ae915060203d6020116102b4575b6102a681836106a6565b810190610715565b836101ca565b503d61029c565b60405162461bcd60e51b81526020600482015260136024820152721d1bdad95b925b881b9bdd08185b1b1bddd959606a1b6044820152606490fd5b61030f915060203d6020116102b4576102a681836106a6565b83610199565b60405162461bcd60e51b8152602060048201526014602482015273149958d95a5d995c881b9bdd08185b1b1bddd95960621b6044820152606490fd5b61036a915060203d6020116102b4576102a681836106a6565b8461015f565b60405162461bcd60e51b815260206004820152601260248201527114d95b99195c881b9bdd08185b1b1bddd95960721b6044820152606490fd5b6103c3915060203d6020116102b4576102a681836106a6565b85610125565b60405162461bcd60e51b815260206004820152601a60248201527915995b1bdc98481cddd85c1c195c881b9bdd08195b98589b195960321b6044820152606490fd5b5f3660031901126100a357602060405160018152f35b6100a35760403660031901126100a35761043961064e565b6024356001600160401b0381116100a357366023820112156100a35760048101356001600160401b0381116100a35736602482840101116100a357826060916104a27f4528ea4d4b1ca7b25fe4843fa8f643b7bbdc91395054ca124e68c761b44f7707956106dd565b600160ff1982541617905580602460405195869460018060a01b031685526040602086015282604086015201848401375f828201840152601f01601f19168101030190a1005b906100a35760e03660031901126100a35761050161064e565b610509610664565b9061051261067a565b9261051b610690565b6370a0823160e01b82526001600160a01b03928316600483015260a435921660c435602083602481855afa928315610245575f9361061a575b508381018082116105c45783106105d85782039182116105c4576040519460018060a01b03168552602085015260843560408501526060840152608083015260018060a01b0316907fadccd6d5139732e7db3b6f230f309c7e8eb03047d2c40c4c136ed949c6e8aa6560a04292a3005b634e487b7160e01b5f52601160045260245ffd5b60405162461bcd60e51b815260206004820152601a602482015279125b9cdd59999a58da595b9d081bdd5d1c1d5d08185b5bdd5b9d60321b6044820152606490fd5b9092506020813d602011610646575b81610636602093836106a6565b810103126100a357519186610554565b3d9150610629565b600435906001600160a01b03821682036100a357565b602435906001600160a01b03821682036100a357565b604435906001600160a01b03821682036100a357565b606435906001600160a01b03821682036100a357565b601f909101601f19168101906001600160401b038211908210176106c957604052565b634e487b7160e01b5f52604160045260245ffd5b6001600160a01b03165f9081527f030baae286f7f623820389331724eb057cdc356ad16c24aa566bdbe2bd1628036020526040902090565b908160209103126100a3575180151581036100a3579056fea164736f6c634300081a000a","linkReferences":{}},"methodIdentifiers":{"isAllowedVeloraSwapper(address)":"f84756aa","isDeployed()":"c52046de","validateAndGetPreBalance(address,address,address,address,address)":"caab1492","verifySlippageAndEmit(address,address,address,address,uint256,uint256,uint256)":"613d7da9","whitelistVelora(address,string)":"69946444"},"id":18}