{"abi":[{"type":"function","name":"isAllowedVeloraSwapper","inputs":[{"name":"swapper","type":"address","internalType":"address"}],"outputs":[{"name":"","type":"bool","internalType":"bool"}],"stateMutability":"view"},{"type":"function","name":"isDeployed","inputs":[],"outputs":[{"name":"","type":"bool","internalType":"bool"}],"stateMutability":"pure"},{"type":"function","name":"validateAndGetPreBalances","inputs":[{"name":"safeAddress","type":"address","internalType":"address"},{"name":"augustusSwapper","type":"address","internalType":"address"},{"name":"receiver","type":"address","internalType":"address"},{"name":"tokenIn","type":"address","internalType":"address"},{"name":"tokenOut","type":"address","internalType":"address"}],"outputs":[{"name":"preBalanceIn","type":"uint256","internalType":"uint256"},{"name":"preBalanceOut","type":"uint256","internalType":"uint256"}],"stateMutability":"view"},{"type":"event","name":"VeloraSwapExecuted","inputs":[{"name":"timestamp","type":"uint256","indexed":true,"internalType":"uint256"},{"name":"augustusSwapper","type":"address","indexed":true,"internalType":"address"},{"name":"tokenIn","type":"address","indexed":false,"internalType":"address"},{"name":"tokenOut","type":"address","indexed":false,"internalType":"address"},{"name":"declaredAmountIn","type":"uint256","indexed":false,"internalType":"uint256"},{"name":"actualAmountIn","type":"uint256","indexed":false,"internalType":"uint256"},{"name":"actualAmountOut","type":"uint256","indexed":false,"internalType":"uint256"},{"name":"minAmountOut","type":"uint256","indexed":false,"internalType":"uint256"}],"anonymous":false},{"type":"event","name":"VeloraSwapperApproved","inputs":[{"name":"augustusSwapper","type":"address","indexed":false,"internalType":"address"},{"name":"notes","type":"string","indexed":false,"internalType":"string"}],"anonymous":false}],"bytecode":{"object":"0x60808060405234601b576108c790816100208239308160070152f35b5f80fdfe6080604052307f0000000000000000000000000000000000000000000000000000000000000000146004361015610034575f80fd5b5f3560e01c80636994644414610706578063c4cee45a14610342578063c52046de1461032c578063f84756aa146103005763fe36c22914610073575f80fd5b61021a5761010036600319011261021a5761008c6107ce565b6100946107e4565b61009c6107fa565b916100a5610810565b6084359160a4359260c4359560e4359385156102bb576040516370a0823160e01b81526001600160a01b039485166004820181905291909416949091602085602481895afa948515610226575f95610287575b50868201808311610273578510610231576040516370a0823160e01b815260048101939093526001600160a01b0316976020836024818c5afa928315610226575f936101ee575b508361014b84836108ad565b116101b4576101639261015d916108ad565b936108ad565b92604051968752602087015260408601526060850152608084015260a083015260018060a01b0316907f52a746335b1f9ef3604051992c62f50d609e9fcd39f4290350685824a57d9cac60c04292a3005b60405162461bcd60e51b8152602060048201526012602482015271151bdad95b881a5b881bdd995c9cdc195b9d60721b6044820152606490fd5b9092506020813d60201161021e575b8161020a6020938361085e565b8101031261021a5751915f61013f565b5f80fd5b3d91506101fd565b6040513d5f823e3d90fd5b60405162461bcd60e51b815260206004820152601a602482015279125b9cdd59999a58da595b9d081bdd5d1c1d5d08185b5bdd5b9d60321b6044820152606490fd5b634e487b7160e01b5f52601160045260245ffd5b9094506020813d6020116102b3575b816102a36020938361085e565b8101031261021a5751935f6100f8565b3d9150610296565b60405162461bcd60e51b815260206004820152601d60248201527f6d696e416d6f756e744f7574206d75737420626520706f7369746976650000006044820152606490fd5b602036600319011261021a57602060ff61032061031b6107ce565b610826565b54166040519015158152f35b5f36600319011261021a57602060405160018152f35b60a036600319011261021a576103566107ce565b61035e6107e4565b906103676107fa565b61036f610810565b906084359360018060a01b03851680950361021a5761038f60ff91610826565b5416156106c457604051630be8c97b60e41b8152336004820152602081602481305afa908115610226575f916106a5575b501561066b5760405163d075f9bb60e01b81526001600160a01b039091166004820152602081602481305afa908115610226575f9161064c575b501561061057604051630c537bed60e41b81526001600160a01b039091166004820181905290602081602481305afa908115610226575f916105f1575b50156105b657604051630c537bed60e41b815260048101849052602081602481305afa908115610226575f91610587575b501561054b576040516370a0823160e01b81526001600160a01b039092166004830181905290602090839060249082905afa918215610226575f92610516575b506020906024604051809581936370a0823160e01b835260048301525afa8015610226575f906104e3575b6040809350519182526020820152f35b506020823d60201161050e575b816104fd6020938361085e565b8101031261021a57604091516104d3565b3d91506104f0565b9091506020813d602011610543575b816105326020938361085e565b8101031261021a57519060206104a8565b3d9150610525565b60405162461bcd60e51b81526020600482015260146024820152731d1bdad95b93dd5d081b9bdd08185b1b1bddd95960621b6044820152606490fd5b6105a9915060203d6020116105af575b6105a1818361085e565b810190610895565b84610468565b503d610597565b60405162461bcd60e51b81526020600482015260136024820152721d1bdad95b925b881b9bdd08185b1b1bddd959606a1b6044820152606490fd5b61060a915060203d6020116105af576105a1818361085e565b84610437565b60405162461bcd60e51b8152602060048201526014602482015273149958d95a5d995c881b9bdd08185b1b1bddd95960621b6044820152606490fd5b610665915060203d6020116105af576105a1818361085e565b846103fa565b60405162461bcd60e51b815260206004820152601260248201527114d95b99195c881b9bdd08185b1b1bddd95960721b6044820152606490fd5b6106be915060203d6020116105af576105a1818361085e565b856103c0565b60405162461bcd60e51b815260206004820152601a60248201527915995b1bdc98481cddd85c1c195c881b9bdd08195b98589b195960321b6044820152606490fd5b5061021a57604036600319011261021a5761071f6107ce565b6024356001600160401b03811161021a573660238201121561021a5760048101356001600160401b03811161021a57366024828401011161021a57826060916107887f4528ea4d4b1ca7b25fe4843fa8f643b7bbdc91395054ca124e68c761b44f770795610826565b600160ff1982541617905580602460405195869460018060a01b031685526040602086015282604086015201848401375f828201840152601f01601f19168101030190a1005b600435906001600160a01b038216820361021a57565b602435906001600160a01b038216820361021a57565b604435906001600160a01b038216820361021a57565b606435906001600160a01b038216820361021a57565b6001600160a01b03165f9081527f030baae286f7f623820389331724eb057cdc356ad16c24aa566bdbe2bd1628036020526040902090565b601f909101601f19168101906001600160401b0382119082101761088157604052565b634e487b7160e01b5f52604160045260245ffd5b9081602091031261021a5751801515810361021a5790565b919082039182116102735756fea164736f6c634300081a000a","linkReferences":{}},"methodIdentifiers":{"isAllowedVeloraSwapper(address)":"f84756aa","isDeployed()":"c52046de","validateAndGetPreBalances(address,address,address,address,address)":"c4cee45a","verifyBalancesAndEmit(address,address,address,address,uint256,uint256,uint256,uint256)":"fe36c229","whitelistVelora(address,string)":"69946444"},"id":18}