{
  "contractName": "ContractWithExternalFunctions",
  "abi": [
    {
      "inputs": [
        {
          "internalType": "string",
          "name": "foo",
          "type": "string"
        }
      ],
      "name": "setFoo",
      "outputs": [
        {
          "internalType": "bool",
          "name": "",
          "type": "bool"
        }
      ],
      "stateMutability": "nonpayable",
      "type": "function"
    },
    {
      "inputs": [],
      "name": "getFoo",
      "outputs": [
        {
          "internalType": "string",
          "name": "",
          "type": "string"
        }
      ],
      "stateMutability": "view",
      "type": "function"
    },
    {
      "inputs": [
        {
          "internalType": "uint256",
          "name": "bar",
          "type": "uint256"
        }
      ],
      "name": "setBar",
      "outputs": [
        {
          "internalType": "bool",
          "name": "",
          "type": "bool"
        }
      ],
      "stateMutability": "nonpayable",
      "type": "function"
    },
    {
      "inputs": [],
      "name": "getBar",
      "outputs": [
        {
          "internalType": "uint256",
          "name": "",
          "type": "uint256"
        }
      ],
      "stateMutability": "view",
      "type": "function"
    }
  ],
  "bytecode": "0x608060405234801561001057600080fd5b50610349806100206000396000f3fe608060405234801561001057600080fd5b506004361061004c5760003560e01c8063243dc8da14610051578063352d3fba146100ce57806367a23d13146100ff578063cfcb156614610119575b600080fd5b610059610189565b6040805160208082528351818301528351919283929083019185019080838360005b8381101561009357818101518382015260200161007b565b50505050905090810190601f1680156100c05780820380516001836020036101000a031916815260200191505b509250505060405180910390f35b6100eb600480360360208110156100e457600080fd5b503561023d565b604080519115158252519081900360200190f35b610107610245565b60408051918252519081900360200190f35b6100eb6004803603602081101561012f57600080fd5b81019060208101813564010000000081111561014a57600080fd5b82018360208201111561015c57600080fd5b8035906020019184600183028401116401000000008311171561017e57600080fd5b50909250905061024b565b60008054604080516020601f60027fffffffffffffffffffffffffffffffffffffffffffffffffffffffffffffffff6101006001881615020190951694909404938401819004810282018101909252828152606093909290918301828280156102335780601f1061020857610100808354040283529160200191610233565b820191906000526020600020905b81548152906001019060200180831161021657829003601f168201915b5050505050905090565b600190815590565b60015490565b6000610258818484610262565b5060019392505050565b828054600181600116156101000203166002900490600052602060002090601f016020900481019282601f106102c1578280017fffffffffffffffffffffffffffffffffffffffffffffffffffffffffffffff008235161785556102ee565b828001600101855582156102ee579182015b828111156102ee5782358255916020019190600101906102d3565b506102fa9291506102fe565b5090565b5b808211156102fa57600081556001016102ff56fea26469706673582212208e6b3637f0ab9d25c710e18cfa81a0538ec3aca5d65989130875880e659fada364736f6c634300060c0033",
  "immutableReferences": {},
  "source": "/**\n * SPDX-License-Identifier: MIT\n *\n * Copyright (c) 2018-2021 CENTRE SECZ\n *\n * Permission is hereby granted, free of charge, to any person obtaining a copy\n * of this software and associated documentation files (the \"Software\"), to deal\n * in the Software without restriction, including without limitation the rights\n * to use, copy, modify, merge, publish, distribute, sublicense, and/or sell\n * copies of the Software, and to permit persons to whom the Software is\n * furnished to do so, subject to the following conditions:\n *\n * The above copyright notice and this permission notice shall be included in\n * copies or substantial portions of the Software.\n *\n * THE SOFTWARE IS PROVIDED \"AS IS\", WITHOUT WARRANTY OF ANY KIND, EXPRESS OR\n * IMPLIED, INCLUDING BUT NOT LIMITED TO THE WARRANTIES OF MERCHANTABILITY,\n * FITNESS FOR A PARTICULAR PURPOSE AND NONINFRINGEMENT. IN NO EVENT SHALL THE\n * AUTHORS OR COPYRIGHT HOLDERS BE LIABLE FOR ANY CLAIM, DAMAGES OR OTHER\n * LIABILITY, WHETHER IN AN ACTION OF CONTRACT, TORT OR OTHERWISE, ARISING FROM,\n * OUT OF OR IN CONNECTION WITH THE SOFTWARE OR THE USE OR OTHER DEALINGS IN THE\n * SOFTWARE.\n */\n\npragma solidity 0.6.12;\n\ncontract ContractWithExternalFunctions {\n    string private _foo;\n    uint256 private _bar;\n\n    function setFoo(string calldata foo) external returns (bool) {\n        _foo = foo;\n        return true;\n    }\n\n    function getFoo() external view returns (string memory) {\n        return _foo;\n    }\n\n    function setBar(uint256 bar) external returns (bool) {\n        _bar = bar;\n        return true;\n    }\n\n    function getBar() external view returns (uint256) {\n        return _bar;\n    }\n}\n",
  "sourcePath": "/Users/moo/code/ts/trade-executor/deps/web3-ethereum-defi/contracts/centre/contracts/test/ContractWithExternalFunctions.sol",
  "compiler": {
    "name": "solc",
    "version": "0.6.12+commit.27d51765.Emscripten.clang"
  },
  "schemaVersion": "3.2.2",
  "updatedAt": "2023-05-17T19:03:52.702Z",
  "devdoc": {
    "kind": "dev",
    "methods": {},
    "version": 1
  },
  "userdoc": {
    "kind": "user",
    "methods": {},
    "version": 1
  }
}