{
  "contractName": "Rescuable",
  "abi": [
    {
      "anonymous": false,
      "inputs": [
        {
          "indexed": false,
          "internalType": "address",
          "name": "previousOwner",
          "type": "address"
        },
        {
          "indexed": false,
          "internalType": "address",
          "name": "newOwner",
          "type": "address"
        }
      ],
      "name": "OwnershipTransferred",
      "type": "event"
    },
    {
      "anonymous": false,
      "inputs": [
        {
          "indexed": true,
          "internalType": "address",
          "name": "newRescuer",
          "type": "address"
        }
      ],
      "name": "RescuerChanged",
      "type": "event"
    },
    {
      "inputs": [],
      "name": "owner",
      "outputs": [
        {
          "internalType": "address",
          "name": "",
          "type": "address"
        }
      ],
      "stateMutability": "view",
      "type": "function"
    },
    {
      "inputs": [
        {
          "internalType": "address",
          "name": "newOwner",
          "type": "address"
        }
      ],
      "name": "transferOwnership",
      "outputs": [],
      "stateMutability": "nonpayable",
      "type": "function"
    },
    {
      "inputs": [],
      "name": "rescuer",
      "outputs": [
        {
          "internalType": "address",
          "name": "",
          "type": "address"
        }
      ],
      "stateMutability": "view",
      "type": "function"
    },
    {
      "inputs": [
        {
          "internalType": "contract IERC20",
          "name": "tokenContract",
          "type": "address"
        },
        {
          "internalType": "address",
          "name": "to",
          "type": "address"
        },
        {
          "internalType": "uint256",
          "name": "amount",
          "type": "uint256"
        }
      ],
      "name": "rescueERC20",
      "outputs": [],
      "stateMutability": "nonpayable",
      "type": "function"
    },
    {
      "inputs": [
        {
          "internalType": "address",
          "name": "newRescuer",
          "type": "address"
        }
      ],
      "name": "updateRescuer",
      "outputs": [],
      "stateMutability": "nonpayable",
      "type": "function"
    }
  ],
  "bytecode": "0x608060405234801561001057600080fd5b5061001a3361001f565b610041565b600080546001600160a01b0319166001600160a01b0392909216919091179055565b6109ac806100506000396000f3fe608060405234801561001057600080fd5b50600436106100675760003560e01c80638da5cb5b116100505780638da5cb5b146100d2578063b2118a8d146100da578063f2fde38b1461011d57610067565b80632ab600451461006c57806338a63183146100a1575b600080fd5b61009f6004803603602081101561008257600080fd5b503573ffffffffffffffffffffffffffffffffffffffff16610150565b005b6100a96102b1565b6040805173ffffffffffffffffffffffffffffffffffffffff9092168252519081900360200190f35b6100a96102cd565b61009f600480360360608110156100f057600080fd5b5073ffffffffffffffffffffffffffffffffffffffff8135811691602081013590911690604001356102e9565b61009f6004803603602081101561013357600080fd5b503573ffffffffffffffffffffffffffffffffffffffff1661037f565b60005473ffffffffffffffffffffffffffffffffffffffff1633146101d657604080517f08c379a000000000000000000000000000000000000000000000000000000000815260206004820181905260248201527f4f776e61626c653a2063616c6c6572206973206e6f7420746865206f776e6572604482015290519081900360640190fd5b73ffffffffffffffffffffffffffffffffffffffff8116610242576040517f08c379a000000000000000000000000000000000000000000000000000000000815260040180806020018281038252602a8152602001806108ff602a913960400191505060405180910390fd5b600180547fffffffffffffffffffffffff00000000000000000000000000000000000000001673ffffffffffffffffffffffffffffffffffffffff83169081179091556040517fe475e580d85111348e40d8ca33cfdd74c30fe1655c2d8537a13abc10065ffa5a90600090a250565b60015473ffffffffffffffffffffffffffffffffffffffff1690565b60005473ffffffffffffffffffffffffffffffffffffffff1690565b60015473ffffffffffffffffffffffffffffffffffffffff163314610359576040517f08c379a00000000000000000000000000000000000000000000000000000000081526004018080602001828103825260248152602001806109296024913960400191505060405180910390fd5b61037a73ffffffffffffffffffffffffffffffffffffffff841683836104d2565b505050565b60005473ffffffffffffffffffffffffffffffffffffffff16331461040557604080517f08c379a000000000000000000000000000000000000000000000000000000000815260206004820181905260248201527f4f776e61626c653a2063616c6c6572206973206e6f7420746865206f776e6572604482015290519081900360640190fd5b73ffffffffffffffffffffffffffffffffffffffff8116610471576040517f08c379a00000000000000000000000000000000000000000000000000000000081526004018080602001828103825260268152602001806108d96026913960400191505060405180910390fd5b6000546040805173ffffffffffffffffffffffffffffffffffffffff9283168152918316602083015280517f8be0079c531659141344cd1fd0a4f28419497f9722a3daafe3b4186f6b6457e09281900390910190a16104cf8161055f565b50565b6040805173ffffffffffffffffffffffffffffffffffffffff8416602482015260448082018490528251808303909101815260649091019091526020810180517bffffffffffffffffffffffffffffffffffffffffffffffffffffffff167fa9059cbb0000000000000000000000000000000000000000000000000000000017905261037a9084906105a6565b600080547fffffffffffffffffffffffff00000000000000000000000000000000000000001673ffffffffffffffffffffffffffffffffffffffff92909216919091179055565b6060610608826040518060400160405280602081526020017f5361666545524332303a206c6f772d6c6576656c2063616c6c206661696c65648152508573ffffffffffffffffffffffffffffffffffffffff1661067e9092919063ffffffff16565b80519091501561037a5780806020019051602081101561062757600080fd5b505161037a576040517f08c379a000000000000000000000000000000000000000000000000000000000815260040180806020018281038252602a81526020018061094d602a913960400191505060405180910390fd5b606061068d8484600085610695565b949350505050565b60606106a08561089f565b61070b57604080517f08c379a000000000000000000000000000000000000000000000000000000000815260206004820152601d60248201527f416464726573733a2063616c6c20746f206e6f6e2d636f6e7472616374000000604482015290519081900360640190fd5b600060608673ffffffffffffffffffffffffffffffffffffffff1685876040518082805190602001908083835b6020831061077557805182527fffffffffffffffffffffffffffffffffffffffffffffffffffffffffffffffe09092019160209182019101610738565b6001836020036101000a03801982511681845116808217855250505050505090500191505060006040518083038185875af1925050503d80600081146107d7576040519150601f19603f3d011682016040523d82523d6000602084013e6107dc565b606091505b509150915081156107f057915061068d9050565b8051156108005780518082602001fd5b836040517f08c379a00000000000000000000000000000000000000000000000000000000081526004018080602001828103825283818151815260200191508051906020019080838360005b8381101561086457818101518382015260200161084c565b50505050905090810190601f1680156108915780820380516001836020036101000a031916815260200191505b509250505060405180910390fd5b6000813f7fc5d2460186f7233c927e7db2dcc703c0e500b653ca82273b7bfad8045d85a47081811480159061068d57505015159291505056fe4f776e61626c653a206e6577206f776e657220697320746865207a65726f2061646472657373526573637561626c653a206e6577207265736375657220697320746865207a65726f2061646472657373526573637561626c653a2063616c6c6572206973206e6f742074686520726573637565725361666545524332303a204552433230206f7065726174696f6e20646964206e6f742073756363656564a264697066735822122003e5041e289a24a3fe0f4b2b2eca5003fc7d3dda704c6bcb1238b10f17cc986664736f6c634300060c0033",
  "immutableReferences": {},
  "source": "/**\n * SPDX-License-Identifier: MIT\n *\n * Copyright (c) 2018-2020 CENTRE SECZ\n *\n * Permission is hereby granted, free of charge, to any person obtaining a copy\n * of this software and associated documentation files (the \"Software\"), to deal\n * in the Software without restriction, including without limitation the rights\n * to use, copy, modify, merge, publish, distribute, sublicense, and/or sell\n * copies of the Software, and to permit persons to whom the Software is\n * furnished to do so, subject to the following conditions:\n *\n * The above copyright notice and this permission notice shall be included in\n * copies or substantial portions of the Software.\n *\n * THE SOFTWARE IS PROVIDED \"AS IS\", WITHOUT WARRANTY OF ANY KIND, EXPRESS OR\n * IMPLIED, INCLUDING BUT NOT LIMITED TO THE WARRANTIES OF MERCHANTABILITY,\n * FITNESS FOR A PARTICULAR PURPOSE AND NONINFRINGEMENT. IN NO EVENT SHALL THE\n * AUTHORS OR COPYRIGHT HOLDERS BE LIABLE FOR ANY CLAIM, DAMAGES OR OTHER\n * LIABILITY, WHETHER IN AN ACTION OF CONTRACT, TORT OR OTHERWISE, ARISING FROM,\n * OUT OF OR IN CONNECTION WITH THE SOFTWARE OR THE USE OR OTHER DEALINGS IN THE\n * SOFTWARE.\n */\n\npragma solidity 0.6.12;\n\nimport { Ownable } from \"../v1/Ownable.sol\";\nimport { IERC20 } from \"@openzeppelin/contracts/token/ERC20/IERC20.sol\";\nimport { SafeERC20 } from \"@openzeppelin/contracts/token/ERC20/SafeERC20.sol\";\n\ncontract Rescuable is Ownable {\n    using SafeERC20 for IERC20;\n\n    address private _rescuer;\n\n    event RescuerChanged(address indexed newRescuer);\n\n    /**\n     * @notice Returns current rescuer\n     * @return Rescuer's address\n     */\n    function rescuer() external view returns (address) {\n        return _rescuer;\n    }\n\n    /**\n     * @notice Revert if called by any account other than the rescuer.\n     */\n    modifier onlyRescuer() {\n        require(msg.sender == _rescuer, \"Rescuable: caller is not the rescuer\");\n        _;\n    }\n\n    /**\n     * @notice Rescue ERC20 tokens locked up in this contract.\n     * @param tokenContract ERC20 token contract address\n     * @param to        Recipient address\n     * @param amount    Amount to withdraw\n     */\n    function rescueERC20(\n        IERC20 tokenContract,\n        address to,\n        uint256 amount\n    ) external onlyRescuer {\n        tokenContract.safeTransfer(to, amount);\n    }\n\n    /**\n     * @notice Assign the rescuer role to a given address.\n     * @param newRescuer New rescuer's address\n     */\n    function updateRescuer(address newRescuer) external onlyOwner {\n        require(\n            newRescuer != address(0),\n            \"Rescuable: new rescuer is the zero address\"\n        );\n        _rescuer = newRescuer;\n        emit RescuerChanged(newRescuer);\n    }\n}\n",
  "sourcePath": "/Users/moo/code/ts/trade-executor/deps/web3-ethereum-defi/contracts/centre/contracts/v1.1/Rescuable.sol",
  "compiler": {
    "name": "solc",
    "version": "0.6.12+commit.27d51765.Emscripten.clang"
  },
  "schemaVersion": "3.2.2",
  "updatedAt": "2023-05-17T19:03:52.711Z",
  "devdoc": {
    "kind": "dev",
    "methods": {
      "owner()": {
        "details": "Tells the address of the owner",
        "returns": {
          "_0": "the address of the owner"
        }
      },
      "rescueERC20(address,address,uint256)": {
        "params": {
          "amount": "Amount to withdraw",
          "to": "Recipient address",
          "tokenContract": "ERC20 token contract address"
        }
      },
      "rescuer()": {
        "returns": {
          "_0": "Rescuer's address"
        }
      },
      "transferOwnership(address)": {
        "details": "Allows the current owner to transfer control of the contract to a newOwner.",
        "params": {
          "newOwner": "The address to transfer ownership to."
        }
      },
      "updateRescuer(address)": {
        "params": {
          "newRescuer": "New rescuer's address"
        }
      }
    },
    "version": 1
  },
  "userdoc": {
    "kind": "user",
    "methods": {
      "rescueERC20(address,address,uint256)": {
        "notice": "Rescue ERC20 tokens locked up in this contract."
      },
      "rescuer()": {
        "notice": "Returns current rescuer"
      },
      "updateRescuer(address)": {
        "notice": "Assign the rescuer role to a given address."
      }
    },
    "version": 1
  }
}