{
  "contractName": "V2UpgraderHelper",
  "abi": [
    {
      "inputs": [
        {
          "internalType": "address",
          "name": "fiatTokenProxy",
          "type": "address"
        }
      ],
      "stateMutability": "nonpayable",
      "type": "constructor"
    },
    {
      "anonymous": false,
      "inputs": [
        {
          "indexed": false,
          "internalType": "address",
          "name": "previousOwner",
          "type": "address"
        },
        {
          "indexed": false,
          "internalType": "address",
          "name": "newOwner",
          "type": "address"
        }
      ],
      "name": "OwnershipTransferred",
      "type": "event"
    },
    {
      "inputs": [],
      "name": "owner",
      "outputs": [
        {
          "internalType": "address",
          "name": "",
          "type": "address"
        }
      ],
      "stateMutability": "view",
      "type": "function"
    },
    {
      "inputs": [
        {
          "internalType": "address",
          "name": "newOwner",
          "type": "address"
        }
      ],
      "name": "transferOwnership",
      "outputs": [],
      "stateMutability": "nonpayable",
      "type": "function"
    },
    {
      "inputs": [],
      "name": "proxy",
      "outputs": [
        {
          "internalType": "address",
          "name": "",
          "type": "address"
        }
      ],
      "stateMutability": "view",
      "type": "function"
    },
    {
      "inputs": [],
      "name": "name",
      "outputs": [
        {
          "internalType": "string",
          "name": "",
          "type": "string"
        }
      ],
      "stateMutability": "view",
      "type": "function"
    },
    {
      "inputs": [],
      "name": "symbol",
      "outputs": [
        {
          "internalType": "string",
          "name": "",
          "type": "string"
        }
      ],
      "stateMutability": "view",
      "type": "function"
    },
    {
      "inputs": [],
      "name": "decimals",
      "outputs": [
        {
          "internalType": "uint8",
          "name": "",
          "type": "uint8"
        }
      ],
      "stateMutability": "view",
      "type": "function"
    },
    {
      "inputs": [],
      "name": "currency",
      "outputs": [
        {
          "internalType": "string",
          "name": "",
          "type": "string"
        }
      ],
      "stateMutability": "view",
      "type": "function"
    },
    {
      "inputs": [],
      "name": "masterMinter",
      "outputs": [
        {
          "internalType": "address",
          "name": "",
          "type": "address"
        }
      ],
      "stateMutability": "view",
      "type": "function"
    },
    {
      "inputs": [],
      "name": "fiatTokenOwner",
      "outputs": [
        {
          "internalType": "address",
          "name": "",
          "type": "address"
        }
      ],
      "stateMutability": "view",
      "type": "function"
    },
    {
      "inputs": [],
      "name": "pauser",
      "outputs": [
        {
          "internalType": "address",
          "name": "",
          "type": "address"
        }
      ],
      "stateMutability": "view",
      "type": "function"
    },
    {
      "inputs": [],
      "name": "blacklister",
      "outputs": [
        {
          "internalType": "address",
          "name": "",
          "type": "address"
        }
      ],
      "stateMutability": "view",
      "type": "function"
    },
    {
      "inputs": [
        {
          "internalType": "address",
          "name": "account",
          "type": "address"
        }
      ],
      "name": "balanceOf",
      "outputs": [
        {
          "internalType": "uint256",
          "name": "",
          "type": "uint256"
        }
      ],
      "stateMutability": "view",
      "type": "function"
    },
    {
      "inputs": [
        {
          "internalType": "address",
          "name": "from",
          "type": "address"
        },
        {
          "internalType": "address",
          "name": "to",
          "type": "address"
        },
        {
          "internalType": "uint256",
          "name": "value",
          "type": "uint256"
        }
      ],
      "name": "transferFrom",
      "outputs": [
        {
          "internalType": "bool",
          "name": "",
          "type": "bool"
        }
      ],
      "stateMutability": "nonpayable",
      "type": "function"
    },
    {
      "inputs": [],
      "name": "tearDown",
      "outputs": [],
      "stateMutability": "nonpayable",
      "type": "function"
    }
  ],
  "bytecode": "0x608060405234801561001057600080fd5b50604051610c14380380610c148339818101604052602081101561003357600080fd5b505161003e33610063565b600180546001600160a01b0319166001600160a01b0392909216919091179055610085565b600080546001600160a01b0319166001600160a01b0392909216919091179055565b610b80806100946000396000f3fe608060405234801561001057600080fd5b50600436106100ea5760003560e01c806395d89b411161008c578063e5a6b10f11610066578063e5a6b10f1461027f578063ec1e6a4f14610287578063ec55688914610291578063f2fde38b14610299576100ea565b806395d89b41146102675780639fd0506d1461026f578063bd10243014610277576100ea565b806335d99f35116100c857806335d99f35146101e15780636d3c5bbe1461021257806370a082311461021a5780638da5cb5b1461025f576100ea565b806306fdde03146100ef57806323b872dd1461016c578063313ce567146101c3575b600080fd5b6100f76102cc565b6040805160208082528351818301528351919283929083019185019080838360005b83811015610131578181015183820152602001610119565b50505050905090810190601f16801561015e5780820380516001836020036101000a031916815260200191505b509250505060405180910390f35b6101af6004803603606081101561018257600080fd5b5073ffffffffffffffffffffffffffffffffffffffff813581169160208101359091169060400135610447565b604080519115158252519081900360200190f35b6101cb610502565b6040805160ff9092168252519081900360200190f35b6101e961059e565b6040805173ffffffffffffffffffffffffffffffffffffffff9092168252519081900360200190f35b6101e9610609565b61024d6004803603602081101561023057600080fd5b503573ffffffffffffffffffffffffffffffffffffffff16610674565b60408051918252519081900360200190f35b6101e961071d565b6100f7610739565b6101e96107a4565b6101e961080f565b6100f761087a565b61028f6108e5565b005b6101e961096e565b61028f600480360360208110156102af57600080fd5b503573ffffffffffffffffffffffffffffffffffffffff1661098a565b600154604080517f06fdde03000000000000000000000000000000000000000000000000000000008152905160609273ffffffffffffffffffffffffffffffffffffffff16916306fdde03916004808301926000929190829003018186803b15801561033757600080fd5b505afa15801561034b573d6000803e3d6000fd5b505050506040513d6000823e601f3d9081017fffffffffffffffffffffffffffffffffffffffffffffffffffffffffffffffe0168201604052602081101561039257600080fd5b81019080805160405193929190846401000000008211156103b257600080fd5b9083019060208201858111156103c757600080fd5b82516401000000008111828201881017156103e157600080fd5b82525081516020918201929091019080838360005b8381101561040e5781810151838201526020016103f6565b50505050905090810190601f16801561043b5780820380516001836020036101000a031916815260200191505b50604052505050905090565b600154604080517f23b872dd00000000000000000000000000000000000000000000000000000000815273ffffffffffffffffffffffffffffffffffffffff8681166004830152858116602483015260448201859052915160009392909216916323b872dd9160648082019260209290919082900301818787803b1580156104ce57600080fd5b505af11580156104e2573d6000803e3d6000fd5b505050506040513d60208110156104f857600080fd5b5051949350505050565b600154604080517f313ce567000000000000000000000000000000000000000000000000000000008152905160009273ffffffffffffffffffffffffffffffffffffffff169163313ce567916004808301926020929190829003018186803b15801561056d57600080fd5b505afa158015610581573d6000803e3d6000fd5b505050506040513d602081101561059757600080fd5b5051905090565b600154604080517f35d99f35000000000000000000000000000000000000000000000000000000008152905160009273ffffffffffffffffffffffffffffffffffffffff16916335d99f35916004808301926020929190829003018186803b15801561056d57600080fd5b600154604080517f8da5cb5b000000000000000000000000000000000000000000000000000000008152905160009273ffffffffffffffffffffffffffffffffffffffff1691638da5cb5b916004808301926020929190829003018186803b15801561056d57600080fd5b600154604080517f70a0823100000000000000000000000000000000000000000000000000000000815273ffffffffffffffffffffffffffffffffffffffff8481166004830152915160009392909216916370a0823191602480820192602092909190829003018186803b1580156106eb57600080fd5b505afa1580156106ff573d6000803e3d6000fd5b505050506040513d602081101561071557600080fd5b505192915050565b60005473ffffffffffffffffffffffffffffffffffffffff1690565b600154604080517f95d89b41000000000000000000000000000000000000000000000000000000008152905160609273ffffffffffffffffffffffffffffffffffffffff16916395d89b41916004808301926000929190829003018186803b15801561033757600080fd5b600154604080517f9fd0506d000000000000000000000000000000000000000000000000000000008152905160009273ffffffffffffffffffffffffffffffffffffffff1691639fd0506d916004808301926020929190829003018186803b15801561056d57600080fd5b600154604080517fbd102430000000000000000000000000000000000000000000000000000000008152905160009273ffffffffffffffffffffffffffffffffffffffff169163bd102430916004808301926020929190829003018186803b15801561056d57600080fd5b600154604080517fe5a6b10f000000000000000000000000000000000000000000000000000000008152905160609273ffffffffffffffffffffffffffffffffffffffff169163e5a6b10f916004808301926000929190829003018186803b15801561033757600080fd5b60005473ffffffffffffffffffffffffffffffffffffffff16331461096b57604080517f08c379a000000000000000000000000000000000000000000000000000000000815260206004820181905260248201527f4f776e61626c653a2063616c6c6572206973206e6f7420746865206f776e6572604482015290519081900360640190fd5b33ff5b60015473ffffffffffffffffffffffffffffffffffffffff1690565b60005473ffffffffffffffffffffffffffffffffffffffff163314610a1057604080517f08c379a000000000000000000000000000000000000000000000000000000000815260206004820181905260248201527f4f776e61626c653a2063616c6c6572206973206e6f7420746865206f776e6572604482015290519081900360640190fd5b73ffffffffffffffffffffffffffffffffffffffff8116610a7c576040517f08c379a0000000000000000000000000000000000000000000000000000000008152600401808060200182810382526026815260200180610b256026913960400191505060405180910390fd5b6000546040805173ffffffffffffffffffffffffffffffffffffffff9283168152918316602083015280517f8be0079c531659141344cd1fd0a4f28419497f9722a3daafe3b4186f6b6457e09281900390910190a1610ada81610add565b50565b600080547fffffffffffffffffffffffff00000000000000000000000000000000000000001673ffffffffffffffffffffffffffffffffffffffff9290921691909117905556fe4f776e61626c653a206e6577206f776e657220697320746865207a65726f2061646472657373a264697066735822122028c4337f4b4f3aa581316a66fe06b56319c76e2e3c6b7240eda277d7937717d564736f6c634300060c0033",
  "immutableReferences": {},
  "source": "/**\n * SPDX-License-Identifier: MIT\n *\n * Copyright (c) 2018-2020 CENTRE SECZ\n *\n * Permission is hereby granted, free of charge, to any person obtaining a copy\n * of this software and associated documentation files (the \"Software\"), to deal\n * in the Software without restriction, including without limitation the rights\n * to use, copy, modify, merge, publish, distribute, sublicense, and/or sell\n * copies of the Software, and to permit persons to whom the Software is\n * furnished to do so, subject to the following conditions:\n *\n * The above copyright notice and this permission notice shall be included in\n * copies or substantial portions of the Software.\n *\n * THE SOFTWARE IS PROVIDED \"AS IS\", WITHOUT WARRANTY OF ANY KIND, EXPRESS OR\n * IMPLIED, INCLUDING BUT NOT LIMITED TO THE WARRANTIES OF MERCHANTABILITY,\n * FITNESS FOR A PARTICULAR PURPOSE AND NONINFRINGEMENT. IN NO EVENT SHALL THE\n * AUTHORS OR COPYRIGHT HOLDERS BE LIABLE FOR ANY CLAIM, DAMAGES OR OTHER\n * LIABILITY, WHETHER IN AN ACTION OF CONTRACT, TORT OR OTHERWISE, ARISING FROM,\n * OUT OF OR IN CONNECTION WITH THE SOFTWARE OR THE USE OR OTHER DEALINGS IN THE\n * SOFTWARE.\n */\n\npragma solidity 0.6.12;\n\nimport { FiatTokenV1 } from \"../../v1/FiatTokenV1.sol\";\nimport { Ownable } from \"../../v1/Ownable.sol\";\n\n/**\n * @title V2 Upgrader Helper\n * @dev Enables V2Upgrader to read some contract state before it renounces the\n * proxy admin role. (Proxy admins cannot call delegated methods.) It is also\n * used to test approve/transferFrom.\n */\ncontract V2UpgraderHelper is Ownable {\n    address private _proxy;\n\n    /**\n     * @notice Constructor\n     * @param fiatTokenProxy    Address of the FiatTokenProxy contract\n     */\n    constructor(address fiatTokenProxy) public Ownable() {\n        _proxy = fiatTokenProxy;\n    }\n\n    /**\n     * @notice The address of the FiatTokenProxy contract\n     * @return Contract address\n     */\n    function proxy() external view returns (address) {\n        return address(_proxy);\n    }\n\n    /**\n     * @notice Call name()\n     * @return name\n     */\n    function name() external view returns (string memory) {\n        return FiatTokenV1(_proxy).name();\n    }\n\n    /**\n     * @notice Call symbol()\n     * @return symbol\n     */\n    function symbol() external view returns (string memory) {\n        return FiatTokenV1(_proxy).symbol();\n    }\n\n    /**\n     * @notice Call decimals()\n     * @return decimals\n     */\n    function decimals() external view returns (uint8) {\n        return FiatTokenV1(_proxy).decimals();\n    }\n\n    /**\n     * @notice Call currency()\n     * @return currency\n     */\n    function currency() external view returns (string memory) {\n        return FiatTokenV1(_proxy).currency();\n    }\n\n    /**\n     * @notice Call masterMinter()\n     * @return masterMinter\n     */\n    function masterMinter() external view returns (address) {\n        return FiatTokenV1(_proxy).masterMinter();\n    }\n\n    /**\n     * @notice Call owner()\n     * @dev Renamed to fiatTokenOwner due to the existence of Ownable.owner()\n     * @return owner\n     */\n    function fiatTokenOwner() external view returns (address) {\n        return FiatTokenV1(_proxy).owner();\n    }\n\n    /**\n     * @notice Call pauser()\n     * @return pauser\n     */\n    function pauser() external view returns (address) {\n        return FiatTokenV1(_proxy).pauser();\n    }\n\n    /**\n     * @notice Call blacklister()\n     * @return blacklister\n     */\n    function blacklister() external view returns (address) {\n        return FiatTokenV1(_proxy).blacklister();\n    }\n\n    /**\n     * @notice Call balanceOf(address)\n     * @param account   Account\n     * @return balance\n     */\n    function balanceOf(address account) external view returns (uint256) {\n        return FiatTokenV1(_proxy).balanceOf(account);\n    }\n\n    /**\n     * @notice Call transferFrom(address,address,uint256)\n     * @param from     Sender\n     * @param to       Recipient\n     * @param value    Amount\n     * @return result\n     */\n    function transferFrom(\n        address from,\n        address to,\n        uint256 value\n    ) external returns (bool) {\n        return FiatTokenV1(_proxy).transferFrom(from, to, value);\n    }\n\n    /**\n     * @notice Tear down the contract (self-destruct)\n     */\n    function tearDown() external onlyOwner {\n        selfdestruct(msg.sender);\n    }\n}\n",
  "sourcePath": "/Users/moo/code/ts/trade-executor/deps/web3-ethereum-defi/contracts/centre/contracts/v2/upgrader/V2UpgraderHelper.sol",
  "compiler": {
    "name": "solc",
    "version": "0.6.12+commit.27d51765.Emscripten.clang"
  },
  "schemaVersion": "3.2.2",
  "updatedAt": "2023-05-17T19:03:52.733Z",
  "devdoc": {
    "details": "Enables V2Upgrader to read some contract state before it renounces the proxy admin role. (Proxy admins cannot call delegated methods.) It is also used to test approve/transferFrom.",
    "kind": "dev",
    "methods": {
      "balanceOf(address)": {
        "params": {
          "account": "Account"
        },
        "returns": {
          "_0": "balance"
        }
      },
      "blacklister()": {
        "returns": {
          "_0": "blacklister"
        }
      },
      "constructor": {
        "params": {
          "fiatTokenProxy": "Address of the FiatTokenProxy contract"
        }
      },
      "currency()": {
        "returns": {
          "_0": "currency"
        }
      },
      "decimals()": {
        "returns": {
          "_0": "decimals"
        }
      },
      "fiatTokenOwner()": {
        "details": "Renamed to fiatTokenOwner due to the existence of Ownable.owner()",
        "returns": {
          "_0": "owner"
        }
      },
      "masterMinter()": {
        "returns": {
          "_0": "masterMinter"
        }
      },
      "name()": {
        "returns": {
          "_0": "name"
        }
      },
      "owner()": {
        "details": "Tells the address of the owner",
        "returns": {
          "_0": "the address of the owner"
        }
      },
      "pauser()": {
        "returns": {
          "_0": "pauser"
        }
      },
      "proxy()": {
        "returns": {
          "_0": "Contract address"
        }
      },
      "symbol()": {
        "returns": {
          "_0": "symbol"
        }
      },
      "transferFrom(address,address,uint256)": {
        "params": {
          "from": "Sender",
          "to": "Recipient",
          "value": "Amount"
        },
        "returns": {
          "_0": "result"
        }
      },
      "transferOwnership(address)": {
        "details": "Allows the current owner to transfer control of the contract to a newOwner.",
        "params": {
          "newOwner": "The address to transfer ownership to."
        }
      }
    },
    "title": "V2 Upgrader Helper",
    "version": 1
  },
  "userdoc": {
    "kind": "user",
    "methods": {
      "balanceOf(address)": {
        "notice": "Call balanceOf(address)"
      },
      "blacklister()": {
        "notice": "Call blacklister()"
      },
      "constructor": "Constructor",
      "currency()": {
        "notice": "Call currency()"
      },
      "decimals()": {
        "notice": "Call decimals()"
      },
      "fiatTokenOwner()": {
        "notice": "Call owner()"
      },
      "masterMinter()": {
        "notice": "Call masterMinter()"
      },
      "name()": {
        "notice": "Call name()"
      },
      "pauser()": {
        "notice": "Call pauser()"
      },
      "proxy()": {
        "notice": "The address of the FiatTokenProxy contract"
      },
      "symbol()": {
        "notice": "Call symbol()"
      },
      "tearDown()": {
        "notice": "Tear down the contract (self-destruct)"
      },
      "transferFrom(address,address,uint256)": {
        "notice": "Call transferFrom(address,address,uint256)"
      }
    },
    "version": 1
  }
}