{
  "_format": "hh-sol-artifact-1",
  "contractName": "PeripheryImmutableStateTest",
  "sourceName": "contracts/test/PeripheryImmutableStateTest.sol",
  "abi": [
    {
      "inputs": [
        {
          "internalType": "address",
          "name": "_factory",
          "type": "address"
        },
        {
          "internalType": "address",
          "name": "_WETH9",
          "type": "address"
        }
      ],
      "stateMutability": "nonpayable",
      "type": "constructor"
    },
    {
      "inputs": [],
      "name": "WETH9",
      "outputs": [
        {
          "internalType": "address",
          "name": "",
          "type": "address"
        }
      ],
      "stateMutability": "view",
      "type": "function"
    },
    {
      "inputs": [],
      "name": "factory",
      "outputs": [
        {
          "internalType": "address",
          "name": "",
          "type": "address"
        }
      ],
      "stateMutability": "view",
      "type": "function"
    }
  ],
  "bytecode": "0x60c060405234801561001057600080fd5b5060405161013b38038061013b8339818101604052604081101561003357600080fd5b5080516020909101516001600160601b0319606092831b8116608052911b1660a05260805160601c60a05160601c60c161007a60003980606e5250806092525060c16000f3fe6080604052348015600f57600080fd5b506004361060325760003560e01c80634aa4a4fc146037578063c45a0155146066575b600080fd5b603d606c565b6040805173ffffffffffffffffffffffffffffffffffffffff9092168252519081900360200190f35b603d6090565b7f000000000000000000000000000000000000000000000000000000000000000081565b7f00000000000000000000000000000000000000000000000000000000000000008156fea164736f6c6343000706000a",
  "linkReferences": {},
  "deployedLinkReferences": {}
}